{"abi":[{"inputs":[{"internalType":"address","name":"memberMap","type":"address"},{"internalType":"address","name":"_parentFactory","type":"address"},{"internalType":"address","name":"_treasuryAddress","type":"address"}],"stateMutability":"nonpayable","type":"constructor"},{"anonymous":false,"inputs":[{"indexed":false,"internalType":"address","name":"sender","type":"address"}],"name":"ApplicantCreated","type":"event"},{"anonymous":false,"inputs":[],"name":"ApplicantVote","type":"event"},{"anonymous":false,"inputs":[{"indexed":false,"internalType":"address","name":"applicant","type":"address"}],"name":"ApplicantVoteEnd","type":"event"},{"anonymous":false,"inputs":[],"name":"CreateApplicant","type":"event"},{"inputs":[{"internalType":"uint256","name":"","type":"uint256"}],"name":"applicantList","outputs":[{"internalType":"address","name":"","type":"address"}],"stateMutability":"view","type":"function"},{"inputs":[{"internalType":"address","name":"applicant","type":"address"}],"name":"approveApplicant","outputs":[],"stateMutability":"nonpayable","type":"function"},{"inputs":[{"internalType":"string","name":"reason","type":"string"}],"name":"createApplicant","outputs":[],"stateMutability":"nonpayable","type":"function"},{"inputs":[{"internalType":"address","name":"applicant","type":"address"}],"name":"getApplicantVoteCount","outputs":[{"internalType":"uint256","name":"","type":"uint256"}],"stateMutability":"view","type":"function"},{"inputs":[{"internalType":"address","name":"applicant","type":"address"}],"name":"getApplicantVoteEndDate","outputs":[{"internalType":"uint256","name":"","type":"uint256"}],"stateMutability":"view","type":"function"},{"inputs":[{"internalType":"address","name":"applicant","type":"address"}],"name":"getApplicantWords","outputs":[{"internalType":"string","name":"","type":"string"}],"stateMutability":"view","type":"function"},{"inputs":[],"name":"getApplicants","outputs":[{"internalType":"address[]","name":"","type":"address[]"}],"stateMutability":"view","type":"function"},{"inputs":[{"internalType":"address","name":"applicant","type":"address"}],"name":"rejectApplicant","outputs":[],"stateMutability":"nonpayable","type":"function"},{"inputs":[{"internalType":"address","name":"_memberPoolAddress","type":"address"}],"name":"setMemberPoolAddress","outputs":[],"stateMutability":"nonpayable","type":"function"},{"inputs":[{"internalType":"address","name":"applicant","type":"address"}],"name":"voteForApplicant","outputs":[],"stateMutability":"nonpayable","type":"function"}],"devdoc":{"kind":"dev","methods":{},"version":1},"evm":{"assembly":"    /* \"ApplicantPool.sol\":117:4186  contract ApplicantPool {... */\n  mstore(0x40, 0xc0)\n    /* \"ApplicantPool.sol\":719:931  constructor(address memberMap, address _parentFactory, address _treasuryAddress) {... */\n  callvalue\n  dup1\n  iszero\n  tag_1\n  jumpi\n  0x00\n  dup1\n  revert\ntag_1:\n  pop\n  mload(0x40)\n  sub(codesize, bytecodeSize)\n  dup1\n  bytecodeSize\n  dup4\n  codecopy\n  dup2\n  dup2\n  add\n  0x40\n  mstore\n  dup2\n  add\n  swap1\n  tag_2\n  swap2\n  swap1\n  tag_3\n  jump\t// in\ntag_2:\n    /* \"ApplicantPool.sol\":827:836  memberMap */\n  dup3\n    /* \"ApplicantPool.sol\":811:814  map */\n  0x06\n  0x00\n    /* \"ApplicantPool.sol\":811:837  map = MemberMap(memberMap) */\n  0x0100\n  exp\n  dup2\n  sload\n  dup2\n  0xffffffffffffffffffffffffffffffffffffffff\n  mul\n  not\n  and\n  swap1\n  dup4\n  0xffffffffffffffffffffffffffffffffffffffff\n  and\n  mul\n  or\n  swap1\n  sstore\n  pop\n    /* \"ApplicantPool.sol\":864:878  _parentFactory */\n  dup2\n    /* \"ApplicantPool.sol\":848:878  parentFactory = _parentFactory */\n  0xffffffffffffffffffffffffffffffffffffffff\n  and\n  0x80\n  dup2\n  0xffffffffffffffffffffffffffffffffffffffff\n  and\n  dup2\n  mstore\n  pop\n  pop\n    /* \"ApplicantPool.sol\":907:923  _treasuryAddress */\n  dup1\n    /* \"ApplicantPool.sol\":889:923  treasuryAddress = _treasuryAddress */\n  0xffffffffffffffffffffffffffffffffffffffff\n  and\n  0xa0\n  dup2\n  0xffffffffffffffffffffffffffffffffffffffff\n  and\n  dup2\n  mstore\n  pop\n  pop\n    /* \"ApplicantPool.sol\":719:931  constructor(address memberMap, address _parentFactory, address _treasuryAddress) {... */\n  pop\n  pop\n  pop\n    /* \"ApplicantPool.sol\":117:4186  contract ApplicantPool {... */\n  jump(tag_6)\n    /* \"#utility.yul\":88:205   */\ntag_8:\n    /* \"#utility.yul\":197:198   */\n  0x00\n    /* \"#utility.yul\":194:195   */\n  dup1\n    /* \"#utility.yul\":187:199   */\n  revert\n    /* \"#utility.yul\":334:460   */\ntag_10:\n    /* \"#utility.yul\":371:378   */\n  0x00\n    /* \"#utility.yul\":411:453   */\n  0xffffffffffffffffffffffffffffffffffffffff\n    /* \"#utility.yul\":404:409   */\n  dup3\n    /* \"#utility.yul\":400:454   */\n  and\n    /* \"#utility.yul\":389:454   */\n  swap1\n  pop\n    /* \"#utility.yul\":334:460   */\n  swap2\n  swap1\n  pop\n  jump\t// out\n    /* \"#utility.yul\":466:562   */\ntag_11:\n    /* \"#utility.yul\":503:510   */\n  0x00\n    /* \"#utility.yul\":532:556   */\n  tag_20\n    /* \"#utility.yul\":550:555   */\n  dup3\n    /* \"#utility.yul\":532:556   */\n  tag_10\n  jump\t// in\ntag_20:\n    /* \"#utility.yul\":521:556   */\n  swap1\n  pop\n    /* \"#utility.yul\":466:562   */\n  swap2\n  swap1\n  pop\n  jump\t// out\n    /* \"#utility.yul\":568:690   */\ntag_12:\n    /* \"#utility.yul\":641:665   */\n  tag_22\n    /* \"#utility.yul\":659:664   */\n  dup2\n    /* \"#utility.yul\":641:665   */\n  tag_11\n  jump\t// in\ntag_22:\n    /* \"#utility.yul\":634:639   */\n  dup2\n    /* \"#utility.yul\":631:666   */\n  eq\n    /* \"#utility.yul\":621:684   */\n  tag_23\n  jumpi\n    /* \"#utility.yul\":680:681   */\n  0x00\n    /* \"#utility.yul\":677:678   */\n  dup1\n    /* \"#utility.yul\":670:682   */\n  revert\n    /* \"#utility.yul\":621:684   */\ntag_23:\n    /* \"#utility.yul\":568:690   */\n  pop\n  jump\t// out\n    /* \"#utility.yul\":696:839   */\ntag_13:\n    /* \"#utility.yul\":753:758   */\n  0x00\n    /* \"#utility.yul\":784:790   */\n  dup2\n    /* \"#utility.yul\":778:791   */\n  mload\n    /* \"#utility.yul\":769:791   */\n  swap1\n  pop\n    /* \"#utility.yul\":800:833   */\n  tag_25\n    /* \"#utility.yul\":827:832   */\n  dup2\n    /* \"#utility.yul\":800:833   */\n  tag_12\n  jump\t// in\ntag_25:\n    /* \"#utility.yul\":696:839   */\n  swap3\n  swap2\n  pop\n  pop\n  jump\t// out\n    /* \"#utility.yul\":845:1508   */\ntag_3:\n    /* \"#utility.yul\":933:939   */\n  0x00\n    /* \"#utility.yul\":941:947   */\n  dup1\n    /* \"#utility.yul\":949:955   */\n  0x00\n    /* \"#utility.yul\":998:1000   */\n  0x60\n    /* \"#utility.yul\":986:995   */\n  dup5\n    /* \"#utility.yul\":977:984   */\n  dup7\n    /* \"#utility.yul\":973:996   */\n  sub\n    /* \"#utility.yul\":969:1001   */\n  slt\n    /* \"#utility.yul\":966:1085   */\n  iszero\n  tag_27\n  jumpi\n    /* \"#utility.yul\":1004:1083   */\n  tag_28\n  tag_8\n  jump\t// in\ntag_28:\n    /* \"#utility.yul\":966:1085   */\ntag_27:\n    /* \"#utility.yul\":1124:1125   */\n  0x00\n    /* \"#utility.yul\":1149:1213   */\n  tag_29\n    /* \"#utility.yul\":1205:1212   */\n  dup7\n    /* \"#utility.yul\":1196:1202   */\n  dup3\n    /* \"#utility.yul\":1185:1194   */\n  dup8\n    /* \"#utility.yul\":1181:1203   */\n  add\n    /* \"#utility.yul\":1149:1213   */\n  tag_13\n  jump\t// in\ntag_29:\n    /* \"#utility.yul\":1139:1213   */\n  swap4\n  pop\n    /* \"#utility.yul\":1095:1223   */\n  pop\n    /* \"#utility.yul\":1262:1264   */\n  0x20\n    /* \"#utility.yul\":1288:1352   */\n  tag_30\n    /* \"#utility.yul\":1344:1351   */\n  dup7\n    /* \"#utility.yul\":1335:1341   */\n  dup3\n    /* \"#utility.yul\":1324:1333   */\n  dup8\n    /* \"#utility.yul\":1320:1342   */\n  add\n    /* \"#utility.yul\":1288:1352   */\n  tag_13\n  jump\t// in\ntag_30:\n    /* \"#utility.yul\":1278:1352   */\n  swap3\n  pop\n    /* \"#utility.yul\":1233:1362   */\n  pop\n    /* \"#utility.yul\":1401:1403   */\n  0x40\n    /* \"#utility.yul\":1427:1491   */\n  tag_31\n    /* \"#utility.yul\":1483:1490   */\n  dup7\n    /* \"#utility.yul\":1474:1480   */\n  dup3\n    /* \"#utility.yul\":1463:1472   */\n  dup8\n    /* \"#utility.yul\":1459:1481   */\n  add\n    /* \"#utility.yul\":1427:1491   */\n  tag_13\n  jump\t// in\ntag_31:\n    /* \"#utility.yul\":1417:1491   */\n  swap2\n  pop\n    /* \"#utility.yul\":1372:1501   */\n  pop\n    /* \"#utility.yul\":845:1508   */\n  swap3\n  pop\n  swap3\n  pop\n  swap3\n  jump\t// out\n    /* \"ApplicantPool.sol\":117:4186  contract ApplicantPool {... */\ntag_6:\n  mload(0x80)\n  mload(0xa0)\n  codecopy(0x00, dataOffset(sub_0), dataSize(sub_0))\n  0x00\n  assignImmutable(\"0xc47ece0ffae697632ce145a7086cbcf260f7fa60876ff2606761ea2b7581ee76\")\n  0x00\n  assignImmutable(\"0x2e9b7c94e032d8b3b8b30bd825717a5ac74958b53e7c37a892a4fd7dc56e4975\")\n  return(0x00, dataSize(sub_0))\nstop\n\nsub_0: assembly {\n        /* \"ApplicantPool.sol\":117:4186  contract ApplicantPool {... */\n      mstore(0x40, 0x80)\n      callvalue\n      dup1\n      iszero\n      tag_1\n      jumpi\n      0x00\n      dup1\n      revert\n    tag_1:\n      pop\n      jumpi(tag_2, lt(calldatasize, 0x04))\n      shr(0xe0, calldataload(0x00))\n      dup1\n      0x8c468cd4\n      gt\n      tag_13\n      jumpi\n      dup1\n      0x8c468cd4\n      eq\n      tag_8\n      jumpi\n      dup1\n      0xb672bdcb\n      eq\n      tag_9\n      jumpi\n      dup1\n      0xd9a87535\n      eq\n      tag_10\n      jumpi\n      dup1\n      0xf6ec9738\n      eq\n      tag_11\n      jumpi\n      dup1\n      0xfd591902\n      eq\n      tag_12\n      jumpi\n      jump(tag_2)\n    tag_13:\n      dup1\n      0xad808f\n      eq\n      tag_3\n      jumpi\n      dup1\n      0x1292a282\n      eq\n      tag_4\n      jumpi\n      dup1\n      0x273f868e\n      eq\n      tag_5\n      jumpi\n      dup1\n      0x28f4694c\n      eq\n      tag_6\n      jumpi\n      dup1\n      0x455772d2\n      eq\n      tag_7\n      jumpi\n    tag_2:\n      0x00\n      dup1\n      revert\n        /* \"ApplicantPool.sol\":2642:2839  function getApplicantWords(address applicant)... */\n    tag_3:\n      tag_14\n      0x04\n      dup1\n      calldatasize\n      sub\n      dup2\n      add\n      swap1\n      tag_15\n      swap2\n      swap1\n      tag_16\n      jump\t// in\n    tag_15:\n      tag_17\n      jump\t// in\n    tag_14:\n      mload(0x40)\n      tag_18\n      swap2\n      swap1\n      tag_19\n      jump\t// in\n    tag_18:\n      mload(0x40)\n      dup1\n      swap2\n      sub\n      swap1\n      return\n        /* \"ApplicantPool.sol\":3027:3322  function approveApplicant(address applicant)... */\n    tag_4:\n      tag_20\n      0x04\n      dup1\n      calldatasize\n      sub\n      dup2\n      add\n      swap1\n      tag_21\n      swap2\n      swap1\n      tag_16\n      jump\t// in\n    tag_21:\n      tag_22\n      jump\t// in\n    tag_20:\n      stop\n        /* \"ApplicantPool.sol\":3330:3684  function rejectApplicant(address applicant)... */\n    tag_5:\n      tag_23\n      0x04\n      dup1\n      calldatasize\n      sub\n      dup2\n      add\n      swap1\n      tag_24\n      swap2\n      swap1\n      tag_16\n      jump\t// in\n    tag_24:\n      tag_25\n      jump\t// in\n    tag_23:\n      stop\n        /* \"ApplicantPool.sol\":1941:2464  function voteForApplicant(address applicant) public memberOnly(msg.sender) {... */\n    tag_6:\n      tag_26\n      0x04\n      dup1\n      calldatasize\n      sub\n      dup2\n      add\n      swap1\n      tag_27\n      swap2\n      swap1\n      tag_16\n      jump\t// in\n    tag_27:\n      tag_28\n      jump\t// in\n    tag_26:\n      stop\n        /* \"ApplicantPool.sol\":1259:1426  function getApplicants()... */\n    tag_7:\n      tag_29\n      tag_30\n      jump\t// in\n    tag_29:\n      mload(0x40)\n      tag_31\n      swap2\n      swap1\n      tag_32\n      jump\t// in\n    tag_31:\n      mload(0x40)\n      dup1\n      swap2\n      sub\n      swap1\n      return\n        /* \"ApplicantPool.sol\":300:330  address[] public applicantList */\n    tag_8:\n      tag_33\n      0x04\n      dup1\n      calldatasize\n      sub\n      dup2\n      add\n      swap1\n      tag_34\n      swap2\n      swap1\n      tag_35\n      jump\t// in\n    tag_34:\n      tag_36\n      jump\t// in\n    tag_33:\n      mload(0x40)\n      tag_37\n      swap2\n      swap1\n      tag_38\n      jump\t// in\n    tag_37:\n      mload(0x40)\n      dup1\n      swap2\n      sub\n      swap1\n      return\n        /* \"ApplicantPool.sol\":2472:2634  function getApplicantVoteEndDate(address applicant)... */\n    tag_9:\n      tag_39\n      0x04\n      dup1\n      calldatasize\n      sub\n      dup2\n      add\n      swap1\n      tag_40\n      swap2\n      swap1\n      tag_16\n      jump\t// in\n    tag_40:\n      tag_41\n      jump\t// in\n    tag_39:\n      mload(0x40)\n      tag_42\n      swap2\n      swap1\n      tag_43\n      jump\t// in\n    tag_42:\n      mload(0x40)\n      dup1\n      swap2\n      sub\n      swap1\n      return\n        /* \"ApplicantPool.sol\":2847:3019  function getApplicantVoteCount(address applicant)... */\n    tag_10:\n      tag_44\n      0x04\n      dup1\n      calldatasize\n      sub\n      dup2\n      add\n      swap1\n      tag_45\n      swap2\n      swap1\n      tag_16\n      jump\t// in\n    tag_45:\n      tag_46\n      jump\t// in\n    tag_44:\n      mload(0x40)\n      tag_47\n      swap2\n      swap1\n      tag_43\n      jump\t// in\n    tag_47:\n      mload(0x40)\n      dup1\n      swap2\n      sub\n      swap1\n      return\n        /* \"ApplicantPool.sol\":4061:4183  function setMemberPoolAddress(address _memberPoolAddress) public {... */\n    tag_11:\n      tag_48\n      0x04\n      dup1\n      calldatasize\n      sub\n      dup2\n      add\n      swap1\n      tag_49\n      swap2\n      swap1\n      tag_16\n      jump\t// in\n    tag_49:\n      tag_50\n      jump\t// in\n    tag_48:\n      stop\n        /* \"ApplicantPool.sol\":1434:1933  function createApplicant(string calldata reason) public {... */\n    tag_12:\n      tag_51\n      0x04\n      dup1\n      calldatasize\n      sub\n      dup2\n      add\n      swap1\n      tag_52\n      swap2\n      swap1\n      tag_53\n      jump\t// in\n    tag_52:\n      tag_54\n      jump\t// in\n    tag_51:\n      stop\n        /* \"ApplicantPool.sol\":2642:2839  function getApplicantWords(address applicant)... */\n    tag_17:\n        /* \"ApplicantPool.sol\":2768:2781  string memory */\n      0x60\n        /* \"ApplicantPool.sol\":2738:2748  msg.sender */\n      caller\n        /* \"ApplicantPool.sol\":1008:1011  map */\n      0x06\n      0x00\n      swap1\n      sload\n      swap1\n      0x0100\n      exp\n      swap1\n      div\n      0xffffffffffffffffffffffffffffffffffffffff\n      and\n        /* \"ApplicantPool.sol\":1008:1020  map.isMember */\n      0xffffffffffffffffffffffffffffffffffffffff\n      and\n      0x39ac7a08\n        /* \"ApplicantPool.sol\":1021:1027  sender */\n      dup3\n        /* \"ApplicantPool.sol\":1029:1046  memberPoolAddress */\n      0x07\n      0x00\n      swap1\n      sload\n      swap1\n      0x0100\n      exp\n      swap1\n      div\n      0xffffffffffffffffffffffffffffffffffffffff\n      and\n        /* \"ApplicantPool.sol\":1008:1047  map.isMember(sender, memberPoolAddress) */\n      mload(0x40)\n      dup4\n      0xffffffff\n      and\n      0xe0\n      shl\n      dup2\n      mstore\n      0x04\n      add\n      tag_56\n      swap3\n      swap2\n      swap1\n      tag_57\n      jump\t// in\n    tag_56:\n      0x20\n      mload(0x40)\n      dup1\n      dup4\n      sub\n      dup2\n      dup7\n      gas\n      staticcall\n      iszero\n      dup1\n      iszero\n      tag_59\n      jumpi\n      returndatasize\n      0x00\n      dup1\n      returndatacopy\n      revert(0x00, returndatasize)\n    tag_59:\n      pop\n      pop\n      pop\n      pop\n      mload(0x40)\n      returndatasize\n      not(0x1f)\n      0x1f\n      dup3\n      add\n      and\n      dup3\n      add\n      dup1\n      0x40\n      mstore\n      pop\n      dup2\n      add\n      swap1\n      tag_60\n      swap2\n      swap1\n      tag_61\n      jump\t// in\n    tag_60:\n        /* \"ApplicantPool.sol\":986:1099  require(... */\n      tag_62\n      jumpi\n      mload(0x40)\n      0x08c379a000000000000000000000000000000000000000000000000000000000\n      dup2\n      mstore\n      0x04\n      add\n      tag_63\n      swap1\n      tag_64\n      jump\t// in\n    tag_63:\n      mload(0x40)\n      dup1\n      swap2\n      sub\n      swap1\n      revert\n    tag_62:\n        /* \"ApplicantPool.sol\":2806:2820  applicantWords */\n      0x04\n        /* \"ApplicantPool.sol\":2806:2831  applicantWords[applicant] */\n      0x00\n        /* \"ApplicantPool.sol\":2821:2830  applicant */\n      dup5\n        /* \"ApplicantPool.sol\":2806:2831  applicantWords[applicant] */\n      0xffffffffffffffffffffffffffffffffffffffff\n      and\n      0xffffffffffffffffffffffffffffffffffffffff\n      and\n      dup2\n      mstore\n      0x20\n      add\n      swap1\n      dup2\n      mstore\n      0x20\n      add\n      0x00\n      keccak256\n        /* \"ApplicantPool.sol\":2799:2831  return applicantWords[applicant] */\n      dup1\n      sload\n      tag_66\n      swap1\n      tag_67\n      jump\t// in\n    tag_66:\n      dup1\n      0x1f\n      add\n      0x20\n      dup1\n      swap2\n      div\n      mul\n      0x20\n      add\n      mload(0x40)\n      swap1\n      dup2\n      add\n      0x40\n      mstore\n      dup1\n      swap3\n      swap2\n      swap1\n      dup2\n      dup2\n      mstore\n      0x20\n      add\n      dup3\n      dup1\n      sload\n      tag_68\n      swap1\n      tag_67\n      jump\t// in\n    tag_68:\n      dup1\n      iszero\n      tag_69\n      jumpi\n      dup1\n      0x1f\n      lt\n      tag_70\n      jumpi\n      0x0100\n      dup1\n      dup4\n      sload\n      div\n      mul\n      dup4\n      mstore\n      swap2\n      0x20\n      add\n      swap2\n      jump(tag_69)\n    tag_70:\n      dup3\n      add\n      swap2\n      swap1\n      0x00\n      mstore\n      keccak256(0x00, 0x20)\n      swap1\n    tag_71:\n      dup2\n      sload\n      dup2\n      mstore\n      swap1\n      0x01\n      add\n      swap1\n      0x20\n      add\n      dup1\n      dup4\n      gt\n      tag_71\n      jumpi\n      dup3\n      swap1\n      sub\n      0x1f\n      and\n      dup3\n      add\n      swap2\n    tag_69:\n      pop\n      pop\n      pop\n      pop\n      pop\n      swap2\n      pop\n        /* \"ApplicantPool.sol\":2642:2839  function getApplicantWords(address applicant)... */\n      pop\n      swap2\n      swap1\n      pop\n      jump\t// out\n        /* \"ApplicantPool.sol\":3027:3322  function approveApplicant(address applicant)... */\n    tag_22:\n        /* \"ApplicantPool.sol\":3112:3122  msg.sender */\n      caller\n        /* \"ApplicantPool.sol\":1196:1213  memberPoolAddress */\n      0x07\n      0x00\n      swap1\n      sload\n      swap1\n      0x0100\n      exp\n      swap1\n      div\n      0xffffffffffffffffffffffffffffffffffffffff\n      and\n        /* \"ApplicantPool.sol\":1186:1213  sender == memberPoolAddress */\n      0xffffffffffffffffffffffffffffffffffffffff\n      and\n        /* \"ApplicantPool.sol\":1186:1192  sender */\n      dup2\n        /* \"ApplicantPool.sol\":1186:1213  sender == memberPoolAddress */\n      0xffffffffffffffffffffffffffffffffffffffff\n      and\n      eq\n        /* \"ApplicantPool.sol\":1178:1231  require(sender == memberPoolAddress, \"Access Denied\") */\n      tag_73\n      jumpi\n      mload(0x40)\n      0x08c379a000000000000000000000000000000000000000000000000000000000\n      dup2\n      mstore\n      0x04\n      add\n      tag_74\n      swap1\n      tag_75\n      jump\t// in\n    tag_74:\n      mload(0x40)\n      dup1\n      swap2\n      sub\n      swap1\n      revert\n    tag_73:\n        /* \"ApplicantPool.sol\":3162:3179  memberPoolAddress */\n      0x07\n      0x00\n      swap1\n      sload\n      swap1\n      0x0100\n      exp\n      swap1\n      div\n      0xffffffffffffffffffffffffffffffffffffffff\n      and\n        /* \"ApplicantPool.sol\":3148:3179  msg.sender == memberPoolAddress */\n      0xffffffffffffffffffffffffffffffffffffffff\n      and\n        /* \"ApplicantPool.sol\":3148:3158  msg.sender */\n      caller\n        /* \"ApplicantPool.sol\":3148:3179  msg.sender == memberPoolAddress */\n      0xffffffffffffffffffffffffffffffffffffffff\n      and\n      eq\n        /* \"ApplicantPool.sol\":3140:3180  require(msg.sender == memberPoolAddress) */\n      tag_77\n      jumpi\n      0x00\n      dup1\n      revert\n    tag_77:\n        /* \"ApplicantPool.sol\":3191:3194  map */\n      0x06\n      0x00\n      swap1\n      sload\n      swap1\n      0x0100\n      exp\n      swap1\n      div\n      0xffffffffffffffffffffffffffffffffffffffff\n      and\n        /* \"ApplicantPool.sol\":3191:3204  map.addMember */\n      0xffffffffffffffffffffffffffffffffffffffff\n      and\n      0x9d58b15d\n        /* \"ApplicantPool.sol\":3205:3222  memberPoolAddress */\n      0x07\n      0x00\n      swap1\n      sload\n      swap1\n      0x0100\n      exp\n      swap1\n      div\n      0xffffffffffffffffffffffffffffffffffffffff\n      and\n        /* \"ApplicantPool.sol\":3224:3233  applicant */\n      dup5\n        /* \"ApplicantPool.sol\":3191:3234  map.addMember(memberPoolAddress, applicant) */\n      mload(0x40)\n      dup4\n      0xffffffff\n      and\n      0xe0\n      shl\n      dup2\n      mstore\n      0x04\n      add\n      tag_78\n      swap3\n      swap2\n      swap1\n      tag_57\n      jump\t// in\n    tag_78:\n      0x00\n      mload(0x40)\n      dup1\n      dup4\n      sub\n      dup2\n      0x00\n      dup8\n      dup1\n      extcodesize\n      iszero\n      dup1\n      iszero\n      tag_79\n      jumpi\n      0x00\n      dup1\n      revert\n    tag_79:\n      pop\n      gas\n      call\n      iszero\n      dup1\n      iszero\n      tag_81\n      jumpi\n      returndatasize\n      0x00\n      dup1\n      returndatacopy\n      revert(0x00, returndatasize)\n    tag_81:\n      pop\n      pop\n      pop\n      pop\n        /* \"ApplicantPool.sol\":3245:3270  _burnApplicant(applicant) */\n      tag_82\n        /* \"ApplicantPool.sol\":3260:3269  applicant */\n      dup3\n        /* \"ApplicantPool.sol\":3245:3259  _burnApplicant */\n      tag_83\n        /* \"ApplicantPool.sol\":3245:3270  _burnApplicant(applicant) */\n      jump\t// in\n    tag_82:\n        /* \"ApplicantPool.sol\":3288:3302  applicantVotes */\n      0x01\n        /* \"ApplicantPool.sol\":3288:3314  applicantVotes[msg.sender] */\n      0x00\n        /* \"ApplicantPool.sol\":3303:3313  msg.sender */\n      caller\n        /* \"ApplicantPool.sol\":3288:3314  applicantVotes[msg.sender] */\n      0xffffffffffffffffffffffffffffffffffffffff\n      and\n      0xffffffffffffffffffffffffffffffffffffffff\n      and\n      dup2\n      mstore\n      0x20\n      add\n      swap1\n      dup2\n      mstore\n      0x20\n      add\n      0x00\n      keccak256\n      0x00\n        /* \"ApplicantPool.sol\":3281:3314  delete applicantVotes[msg.sender] */\n      tag_84\n      swap2\n      swap1\n      tag_85\n      jump\t// in\n    tag_84:\n        /* \"ApplicantPool.sol\":3027:3322  function approveApplicant(address applicant)... */\n      pop\n      pop\n      jump\t// out\n        /* \"ApplicantPool.sol\":3330:3684  function rejectApplicant(address applicant)... */\n    tag_25:\n        /* \"ApplicantPool.sol\":3414:3424  msg.sender */\n      caller\n        /* \"ApplicantPool.sol\":1196:1213  memberPoolAddress */\n      0x07\n      0x00\n      swap1\n      sload\n      swap1\n      0x0100\n      exp\n      swap1\n      div\n      0xffffffffffffffffffffffffffffffffffffffff\n      and\n        /* \"ApplicantPool.sol\":1186:1213  sender == memberPoolAddress */\n      0xffffffffffffffffffffffffffffffffffffffff\n      and\n        /* \"ApplicantPool.sol\":1186:1192  sender */\n      dup2\n        /* \"ApplicantPool.sol\":1186:1213  sender == memberPoolAddress */\n      0xffffffffffffffffffffffffffffffffffffffff\n      and\n      eq\n        /* \"ApplicantPool.sol\":1178:1231  require(sender == memberPoolAddress, \"Access Denied\") */\n      tag_87\n      jumpi\n      mload(0x40)\n      0x08c379a000000000000000000000000000000000000000000000000000000000\n      dup2\n      mstore\n      0x04\n      add\n      tag_88\n      swap1\n      tag_75\n      jump\t// in\n    tag_88:\n      mload(0x40)\n      dup1\n      swap2\n      sub\n      swap1\n      revert\n    tag_87:\n        /* \"ApplicantPool.sol\":3450:3466  activeApplicants */\n      0x03\n        /* \"ApplicantPool.sol\":3450:3477  activeApplicants[applicant] */\n      0x00\n        /* \"ApplicantPool.sol\":3467:3476  applicant */\n      dup4\n        /* \"ApplicantPool.sol\":3450:3477  activeApplicants[applicant] */\n      0xffffffffffffffffffffffffffffffffffffffff\n      and\n      0xffffffffffffffffffffffffffffffffffffffff\n      and\n      dup2\n      mstore\n      0x20\n      add\n      swap1\n      dup2\n      mstore\n      0x20\n      add\n      0x00\n      keccak256\n      0x00\n      swap1\n      sload\n      swap1\n      0x0100\n      exp\n      swap1\n      div\n      0xff\n      and\n        /* \"ApplicantPool.sol\":3442:3507  require(activeApplicants[applicant], \"Invalid applicant address\") */\n      tag_90\n      jumpi\n      mload(0x40)\n      0x08c379a000000000000000000000000000000000000000000000000000000000\n      dup2\n      mstore\n      0x04\n      add\n      tag_91\n      swap1\n      tag_92\n      jump\t// in\n    tag_91:\n      mload(0x40)\n      dup1\n      swap2\n      sub\n      swap1\n      revert\n    tag_90:\n        /* \"ApplicantPool.sol\":3548:3553  false */\n      0x00\n        /* \"ApplicantPool.sol\":3518:3534  activeApplicants */\n      0x03\n        /* \"ApplicantPool.sol\":3518:3545  activeApplicants[applicant] */\n      0x00\n        /* \"ApplicantPool.sol\":3535:3544  applicant */\n      dup5\n        /* \"ApplicantPool.sol\":3518:3545  activeApplicants[applicant] */\n      0xffffffffffffffffffffffffffffffffffffffff\n      and\n      0xffffffffffffffffffffffffffffffffffffffff\n      and\n      dup2\n      mstore\n      0x20\n      add\n      swap1\n      dup2\n      mstore\n      0x20\n      add\n      0x00\n      keccak256\n      0x00\n        /* \"ApplicantPool.sol\":3518:3553  activeApplicants[applicant] = false */\n      0x0100\n      exp\n      dup2\n      sload\n      dup2\n      0xff\n      mul\n      not\n      and\n      swap1\n      dup4\n      iszero\n      iszero\n      mul\n      or\n      swap1\n      sstore\n      pop\n        /* \"ApplicantPool.sol\":3595:3596  1 */\n      0x01\n        /* \"ApplicantPool.sol\":3564:3579  applicantPoints */\n      0x02\n        /* \"ApplicantPool.sol\":3564:3591  applicantPoints[msg.sender] */\n      0x00\n        /* \"ApplicantPool.sol\":3580:3590  msg.sender */\n      caller\n        /* \"ApplicantPool.sol\":3564:3591  applicantPoints[msg.sender] */\n      0xffffffffffffffffffffffffffffffffffffffff\n      and\n      0xffffffffffffffffffffffffffffffffffffffff\n      and\n      dup2\n      mstore\n      0x20\n      add\n      swap1\n      dup2\n      mstore\n      0x20\n      add\n      0x00\n      keccak256\n      0x00\n        /* \"ApplicantPool.sol\":3564:3596  applicantPoints[msg.sender] -= 1 */\n      dup3\n      dup3\n      sload\n      tag_93\n      swap2\n      swap1\n      tag_94\n      jump\t// in\n    tag_93:\n      swap3\n      pop\n      pop\n      dup2\n      swap1\n      sstore\n      pop\n        /* \"ApplicantPool.sol\":3607:3632  _burnApplicant(applicant) */\n      tag_95\n        /* \"ApplicantPool.sol\":3622:3631  applicant */\n      dup3\n        /* \"ApplicantPool.sol\":3607:3621  _burnApplicant */\n      tag_83\n        /* \"ApplicantPool.sol\":3607:3632  _burnApplicant(applicant) */\n      jump\t// in\n    tag_95:\n        /* \"ApplicantPool.sol\":3650:3664  applicantVotes */\n      0x01\n        /* \"ApplicantPool.sol\":3650:3676  applicantVotes[msg.sender] */\n      0x00\n        /* \"ApplicantPool.sol\":3665:3675  msg.sender */\n      caller\n        /* \"ApplicantPool.sol\":3650:3676  applicantVotes[msg.sender] */\n      0xffffffffffffffffffffffffffffffffffffffff\n      and\n      0xffffffffffffffffffffffffffffffffffffffff\n      and\n      dup2\n      mstore\n      0x20\n      add\n      swap1\n      dup2\n      mstore\n      0x20\n      add\n      0x00\n      keccak256\n      0x00\n        /* \"ApplicantPool.sol\":3643:3676  delete applicantVotes[msg.sender] */\n      tag_96\n      swap2\n      swap1\n      tag_85\n      jump\t// in\n    tag_96:\n        /* \"ApplicantPool.sol\":3330:3684  function rejectApplicant(address applicant)... */\n      pop\n      pop\n      jump\t// out\n        /* \"ApplicantPool.sol\":1941:2464  function voteForApplicant(address applicant) public memberOnly(msg.sender) {... */\n    tag_28:\n        /* \"ApplicantPool.sol\":2004:2014  msg.sender */\n      caller\n        /* \"ApplicantPool.sol\":1008:1011  map */\n      0x06\n      0x00\n      swap1\n      sload\n      swap1\n      0x0100\n      exp\n      swap1\n      div\n      0xffffffffffffffffffffffffffffffffffffffff\n      and\n        /* \"ApplicantPool.sol\":1008:1020  map.isMember */\n      0xffffffffffffffffffffffffffffffffffffffff\n      and\n      0x39ac7a08\n        /* \"ApplicantPool.sol\":1021:1027  sender */\n      dup3\n        /* \"ApplicantPool.sol\":1029:1046  memberPoolAddress */\n      0x07\n      0x00\n      swap1\n      sload\n      swap1\n      0x0100\n      exp\n      swap1\n      div\n      0xffffffffffffffffffffffffffffffffffffffff\n      and\n        /* \"ApplicantPool.sol\":1008:1047  map.isMember(sender, memberPoolAddress) */\n      mload(0x40)\n      dup4\n      0xffffffff\n      and\n      0xe0\n      shl\n      dup2\n      mstore\n      0x04\n      add\n      tag_98\n      swap3\n      swap2\n      swap1\n      tag_57\n      jump\t// in\n    tag_98:\n      0x20\n      mload(0x40)\n      dup1\n      dup4\n      sub\n      dup2\n      dup7\n      gas\n      staticcall\n      iszero\n      dup1\n      iszero\n      tag_100\n      jumpi\n      returndatasize\n      0x00\n      dup1\n      returndatacopy\n      revert(0x00, returndatasize)\n    tag_100:\n      pop\n      pop\n      pop\n      pop\n      mload(0x40)\n      returndatasize\n      not(0x1f)\n      0x1f\n      dup3\n      add\n      and\n      dup3\n      add\n      dup1\n      0x40\n      mstore\n      pop\n      dup2\n      add\n      swap1\n      tag_101\n      swap2\n      swap1\n      tag_61\n      jump\t// in\n    tag_101:\n        /* \"ApplicantPool.sol\":986:1099  require(... */\n      tag_102\n      jumpi\n      mload(0x40)\n      0x08c379a000000000000000000000000000000000000000000000000000000000\n      dup2\n      mstore\n      0x04\n      add\n      tag_103\n      swap1\n      tag_64\n      jump\t// in\n    tag_103:\n      mload(0x40)\n      dup1\n      swap2\n      sub\n      swap1\n      revert\n    tag_102:\n        /* \"ApplicantPool.sol\":2035:2051  activeApplicants */\n      0x03\n        /* \"ApplicantPool.sol\":2035:2062  activeApplicants[applicant] */\n      0x00\n        /* \"ApplicantPool.sol\":2052:2061  applicant */\n      dup4\n        /* \"ApplicantPool.sol\":2035:2062  activeApplicants[applicant] */\n      0xffffffffffffffffffffffffffffffffffffffff\n      and\n      0xffffffffffffffffffffffffffffffffffffffff\n      and\n      dup2\n      mstore\n      0x20\n      add\n      swap1\n      dup2\n      mstore\n      0x20\n      add\n      0x00\n      keccak256\n      0x00\n      swap1\n      sload\n      swap1\n      0x0100\n      exp\n      swap1\n      div\n      0xff\n      and\n        /* \"ApplicantPool.sol\":2027:2082  require(activeApplicants[applicant], \"Not a applicant\") */\n      tag_105\n      jumpi\n      mload(0x40)\n      0x08c379a000000000000000000000000000000000000000000000000000000000\n      dup2\n      mstore\n      0x04\n      add\n      tag_106\n      swap1\n      tag_107\n      jump\t// in\n    tag_106:\n      mload(0x40)\n      dup1\n      swap2\n      sub\n      swap1\n      revert\n    tag_105:\n        /* \"ApplicantPool.sol\":2093:2105  bool didVote */\n      0x00\n        /* \"ApplicantPool.sol\":2129:2138  uint256 i */\n      dup1\n        /* \"ApplicantPool.sol\":2124:2310  for (uint256 i = 0; i < applicantVotes[applicant].length; i++) {... */\n    tag_108:\n        /* \"ApplicantPool.sol\":2148:2162  applicantVotes */\n      0x01\n        /* \"ApplicantPool.sol\":2148:2173  applicantVotes[applicant] */\n      0x00\n        /* \"ApplicantPool.sol\":2163:2172  applicant */\n      dup6\n        /* \"ApplicantPool.sol\":2148:2173  applicantVotes[applicant] */\n      0xffffffffffffffffffffffffffffffffffffffff\n      and\n      0xffffffffffffffffffffffffffffffffffffffff\n      and\n      dup2\n      mstore\n      0x20\n      add\n      swap1\n      dup2\n      mstore\n      0x20\n      add\n      0x00\n      keccak256\n        /* \"ApplicantPool.sol\":2148:2180  applicantVotes[applicant].length */\n      dup1\n      sload\n      swap1\n      pop\n        /* \"ApplicantPool.sol\":2144:2145  i */\n      dup2\n        /* \"ApplicantPool.sol\":2144:2180  i < applicantVotes[applicant].length */\n      lt\n        /* \"ApplicantPool.sol\":2124:2310  for (uint256 i = 0; i < applicantVotes[applicant].length; i++) {... */\n      iszero\n      tag_109\n      jumpi\n        /* \"ApplicantPool.sol\":2238:2248  msg.sender */\n      caller\n        /* \"ApplicantPool.sol\":2206:2248  applicantVotes[applicant][i] == msg.sender */\n      0xffffffffffffffffffffffffffffffffffffffff\n      and\n        /* \"ApplicantPool.sol\":2206:2220  applicantVotes */\n      0x01\n        /* \"ApplicantPool.sol\":2206:2231  applicantVotes[applicant] */\n      0x00\n        /* \"ApplicantPool.sol\":2221:2230  applicant */\n      dup7\n        /* \"ApplicantPool.sol\":2206:2231  applicantVotes[applicant] */\n      0xffffffffffffffffffffffffffffffffffffffff\n      and\n      0xffffffffffffffffffffffffffffffffffffffff\n      and\n      dup2\n      mstore\n      0x20\n      add\n      swap1\n      dup2\n      mstore\n      0x20\n      add\n      0x00\n      keccak256\n        /* \"ApplicantPool.sol\":2232:2233  i */\n      dup3\n        /* \"ApplicantPool.sol\":2206:2234  applicantVotes[applicant][i] */\n      dup2\n      sload\n      dup2\n      lt\n      tag_111\n      jumpi\n      tag_112\n      tag_113\n      jump\t// in\n    tag_112:\n    tag_111:\n      swap1\n      0x00\n      mstore\n      keccak256(0x00, 0x20)\n      add\n      0x00\n      swap1\n      sload\n      swap1\n      0x0100\n      exp\n      swap1\n      div\n      0xffffffffffffffffffffffffffffffffffffffff\n      and\n        /* \"ApplicantPool.sol\":2206:2248  applicantVotes[applicant][i] == msg.sender */\n      0xffffffffffffffffffffffffffffffffffffffff\n      and\n      sub\n        /* \"ApplicantPool.sol\":2202:2299  if (applicantVotes[applicant][i] == msg.sender) {... */\n      tag_115\n      jumpi\n        /* \"ApplicantPool.sol\":2279:2283  true */\n      0x01\n        /* \"ApplicantPool.sol\":2269:2283  didVote = true */\n      swap2\n      pop\n        /* \"ApplicantPool.sol\":2202:2299  if (applicantVotes[applicant][i] == msg.sender) {... */\n    tag_115:\n        /* \"ApplicantPool.sol\":2182:2185  i++ */\n      dup1\n      dup1\n      tag_116\n      swap1\n      tag_117\n      jump\t// in\n    tag_116:\n      swap2\n      pop\n      pop\n        /* \"ApplicantPool.sol\":2124:2310  for (uint256 i = 0; i < applicantVotes[applicant].length; i++) {... */\n      jump(tag_108)\n    tag_109:\n      pop\n        /* \"ApplicantPool.sol\":2329:2336  didVote */\n      dup1\n        /* \"ApplicantPool.sol\":2328:2336  !didVote */\n      iszero\n        /* \"ApplicantPool.sol\":2320:2361  require(!didVote, \"Sender already voted\") */\n      tag_118\n      jumpi\n      mload(0x40)\n      0x08c379a000000000000000000000000000000000000000000000000000000000\n      dup2\n      mstore\n      0x04\n      add\n      tag_119\n      swap1\n      tag_120\n      jump\t// in\n    tag_119:\n      mload(0x40)\n      dup1\n      swap2\n      sub\n      swap1\n      revert\n    tag_118:\n        /* \"ApplicantPool.sol\":2372:2386  applicantVotes */\n      0x01\n        /* \"ApplicantPool.sol\":2372:2397  applicantVotes[applicant] */\n      0x00\n        /* \"ApplicantPool.sol\":2387:2396  applicant */\n      dup5\n        /* \"ApplicantPool.sol\":2372:2397  applicantVotes[applicant] */\n      0xffffffffffffffffffffffffffffffffffffffff\n      and\n      0xffffffffffffffffffffffffffffffffffffffff\n      and\n      dup2\n      mstore\n      0x20\n      add\n      swap1\n      dup2\n      mstore\n      0x20\n      add\n      0x00\n      keccak256\n        /* \"ApplicantPool.sol\":2403:2413  msg.sender */\n      caller\n        /* \"ApplicantPool.sol\":2372:2414  applicantVotes[applicant].push(msg.sender) */\n      swap1\n      dup1\n      0x01\n      dup2\n      sload\n      add\n      dup1\n      dup3\n      sstore\n      dup1\n      swap2\n      pop\n      pop\n      0x01\n      swap1\n      sub\n      swap1\n      0x00\n      mstore\n      keccak256(0x00, 0x20)\n      add\n      0x00\n      swap1\n      swap2\n      swap1\n      swap2\n      swap1\n      swap2\n      0x0100\n      exp\n      dup2\n      sload\n      dup2\n      0xffffffffffffffffffffffffffffffffffffffff\n      mul\n      not\n      and\n      swap1\n      dup4\n      0xffffffffffffffffffffffffffffffffffffffff\n      and\n      mul\n      or\n      swap1\n      sstore\n      pop\n        /* \"ApplicantPool.sol\":2455:2456  1 */\n      0x01\n        /* \"ApplicantPool.sol\":2425:2440  applicantPoints */\n      0x02\n        /* \"ApplicantPool.sol\":2425:2451  applicantPoints[applicant] */\n      0x00\n        /* \"ApplicantPool.sol\":2441:2450  applicant */\n      dup6\n        /* \"ApplicantPool.sol\":2425:2451  applicantPoints[applicant] */\n      0xffffffffffffffffffffffffffffffffffffffff\n      and\n      0xffffffffffffffffffffffffffffffffffffffff\n      and\n      dup2\n      mstore\n      0x20\n      add\n      swap1\n      dup2\n      mstore\n      0x20\n      add\n      0x00\n      keccak256\n      0x00\n        /* \"ApplicantPool.sol\":2425:2456  applicantPoints[applicant] += 1 */\n      dup3\n      dup3\n      sload\n      tag_122\n      swap2\n      swap1\n      tag_123\n      jump\t// in\n    tag_122:\n      swap3\n      pop\n      pop\n      dup2\n      swap1\n      sstore\n      pop\n        /* \"ApplicantPool.sol\":2016:2464  {... */\n      pop\n        /* \"ApplicantPool.sol\":1941:2464  function voteForApplicant(address applicant) public memberOnly(msg.sender) {... */\n      pop\n      pop\n      jump\t// out\n        /* \"ApplicantPool.sol\":1259:1426  function getApplicants()... */\n    tag_30:\n        /* \"ApplicantPool.sol\":1364:1380  address[] memory */\n      0x60\n        /* \"ApplicantPool.sol\":1334:1344  msg.sender */\n      caller\n        /* \"ApplicantPool.sol\":1008:1011  map */\n      0x06\n      0x00\n      swap1\n      sload\n      swap1\n      0x0100\n      exp\n      swap1\n      div\n      0xffffffffffffffffffffffffffffffffffffffff\n      and\n        /* \"ApplicantPool.sol\":1008:1020  map.isMember */\n      0xffffffffffffffffffffffffffffffffffffffff\n      and\n      0x39ac7a08\n        /* \"ApplicantPool.sol\":1021:1027  sender */\n      dup3\n        /* \"ApplicantPool.sol\":1029:1046  memberPoolAddress */\n      0x07\n      0x00\n      swap1\n      sload\n      swap1\n      0x0100\n      exp\n      swap1\n      div\n      0xffffffffffffffffffffffffffffffffffffffff\n      and\n        /* \"ApplicantPool.sol\":1008:1047  map.isMember(sender, memberPoolAddress) */\n      mload(0x40)\n      dup4\n      0xffffffff\n      and\n      0xe0\n      shl\n      dup2\n      mstore\n      0x04\n      add\n      tag_125\n      swap3\n      swap2\n      swap1\n      tag_57\n      jump\t// in\n    tag_125:\n      0x20\n      mload(0x40)\n      dup1\n      dup4\n      sub\n      dup2\n      dup7\n      gas\n      staticcall\n      iszero\n      dup1\n      iszero\n      tag_127\n      jumpi\n      returndatasize\n      0x00\n      dup1\n      returndatacopy\n      revert(0x00, returndatasize)\n    tag_127:\n      pop\n      pop\n      pop\n      pop\n      mload(0x40)\n      returndatasize\n      not(0x1f)\n      0x1f\n      dup3\n      add\n      and\n      dup3\n      add\n      dup1\n      0x40\n      mstore\n      pop\n      dup2\n      add\n      swap1\n      tag_128\n      swap2\n      swap1\n      tag_61\n      jump\t// in\n    tag_128:\n        /* \"ApplicantPool.sol\":986:1099  require(... */\n      tag_129\n      jumpi\n      mload(0x40)\n      0x08c379a000000000000000000000000000000000000000000000000000000000\n      dup2\n      mstore\n      0x04\n      add\n      tag_130\n      swap1\n      tag_64\n      jump\t// in\n    tag_130:\n      mload(0x40)\n      dup1\n      swap2\n      sub\n      swap1\n      revert\n    tag_129:\n        /* \"ApplicantPool.sol\":1405:1418  applicantList */\n      0x00\n        /* \"ApplicantPool.sol\":1398:1418  return applicantList */\n      dup1\n      sload\n      dup1\n      0x20\n      mul\n      0x20\n      add\n      mload(0x40)\n      swap1\n      dup2\n      add\n      0x40\n      mstore\n      dup1\n      swap3\n      swap2\n      swap1\n      dup2\n      dup2\n      mstore\n      0x20\n      add\n      dup3\n      dup1\n      sload\n      dup1\n      iszero\n      tag_132\n      jumpi\n      0x20\n      mul\n      dup3\n      add\n      swap2\n      swap1\n      0x00\n      mstore\n      keccak256(0x00, 0x20)\n      swap1\n    tag_133:\n      dup2\n      0x00\n      swap1\n      sload\n      swap1\n      0x0100\n      exp\n      swap1\n      div\n      0xffffffffffffffffffffffffffffffffffffffff\n      and\n      0xffffffffffffffffffffffffffffffffffffffff\n      and\n      dup2\n      mstore\n      0x20\n      add\n      swap1\n      0x01\n      add\n      swap1\n      dup1\n      dup4\n      gt\n      tag_133\n      jumpi\n    tag_132:\n      pop\n      pop\n      pop\n      pop\n      pop\n      swap2\n      pop\n        /* \"ApplicantPool.sol\":1259:1426  function getApplicants()... */\n      pop\n      swap1\n      jump\t// out\n        /* \"ApplicantPool.sol\":300:330  address[] public applicantList */\n    tag_36:\n      0x00\n      dup2\n      dup2\n      sload\n      dup2\n      lt\n      tag_134\n      jumpi\n      0x00\n      dup1\n      revert\n    tag_134:\n      swap1\n      0x00\n      mstore\n      keccak256(0x00, 0x20)\n      add\n      0x00\n      swap2\n      pop\n      sload\n      swap1\n      0x0100\n      exp\n      swap1\n      div\n      0xffffffffffffffffffffffffffffffffffffffff\n      and\n      dup2\n      jump\t// out\n        /* \"ApplicantPool.sol\":2472:2634  function getApplicantVoteEndDate(address applicant)... */\n    tag_41:\n        /* \"ApplicantPool.sol\":2572:2579  uint256 */\n      0x00\n        /* \"ApplicantPool.sol\":2604:2615  voteEndTime */\n      0x05\n        /* \"ApplicantPool.sol\":2604:2626  voteEndTime[applicant] */\n      0x00\n        /* \"ApplicantPool.sol\":2616:2625  applicant */\n      dup4\n        /* \"ApplicantPool.sol\":2604:2626  voteEndTime[applicant] */\n      0xffffffffffffffffffffffffffffffffffffffff\n      and\n      0xffffffffffffffffffffffffffffffffffffffff\n      and\n      dup2\n      mstore\n      0x20\n      add\n      swap1\n      dup2\n      mstore\n      0x20\n      add\n      0x00\n      keccak256\n      sload\n        /* \"ApplicantPool.sol\":2597:2626  return voteEndTime[applicant] */\n      swap1\n      pop\n        /* \"ApplicantPool.sol\":2472:2634  function getApplicantVoteEndDate(address applicant)... */\n      swap2\n      swap1\n      pop\n      jump\t// out\n        /* \"ApplicantPool.sol\":2847:3019  function getApplicantVoteCount(address applicant)... */\n    tag_46:\n        /* \"ApplicantPool.sol\":2947:2954  uint256 */\n      0x00\n        /* \"ApplicantPool.sol\":2979:2993  applicantVotes */\n      0x01\n        /* \"ApplicantPool.sol\":2979:3004  applicantVotes[applicant] */\n      0x00\n        /* \"ApplicantPool.sol\":2994:3003  applicant */\n      dup4\n        /* \"ApplicantPool.sol\":2979:3004  applicantVotes[applicant] */\n      0xffffffffffffffffffffffffffffffffffffffff\n      and\n      0xffffffffffffffffffffffffffffffffffffffff\n      and\n      dup2\n      mstore\n      0x20\n      add\n      swap1\n      dup2\n      mstore\n      0x20\n      add\n      0x00\n      keccak256\n        /* \"ApplicantPool.sol\":2979:3011  applicantVotes[applicant].length */\n      dup1\n      sload\n      swap1\n      pop\n        /* \"ApplicantPool.sol\":2972:3011  return applicantVotes[applicant].length */\n      swap1\n      pop\n        /* \"ApplicantPool.sol\":2847:3019  function getApplicantVoteCount(address applicant)... */\n      swap2\n      swap1\n      pop\n      jump\t// out\n        /* \"ApplicantPool.sol\":4061:4183  function setMemberPoolAddress(address _memberPoolAddress) public {... */\n    tag_50:\n        /* \"ApplicantPool.sol\":4157:4175  _memberPoolAddress */\n      dup1\n        /* \"ApplicantPool.sol\":4137:4154  memberPoolAddress */\n      0x07\n      0x00\n        /* \"ApplicantPool.sol\":4137:4175  memberPoolAddress = _memberPoolAddress */\n      0x0100\n      exp\n      dup2\n      sload\n      dup2\n      0xffffffffffffffffffffffffffffffffffffffff\n      mul\n      not\n      and\n      swap1\n      dup4\n      0xffffffffffffffffffffffffffffffffffffffff\n      and\n      mul\n      or\n      swap1\n      sstore\n      pop\n        /* \"ApplicantPool.sol\":4061:4183  function setMemberPoolAddress(address _memberPoolAddress) public {... */\n      pop\n      jump\t// out\n        /* \"ApplicantPool.sol\":1434:1933  function createApplicant(string calldata reason) public {... */\n    tag_54:\n        /* \"ApplicantPool.sol\":1524:1527  map */\n      0x06\n      0x00\n      swap1\n      sload\n      swap1\n      0x0100\n      exp\n      swap1\n      div\n      0xffffffffffffffffffffffffffffffffffffffff\n      and\n        /* \"ApplicantPool.sol\":1524:1536  map.isMember */\n      0xffffffffffffffffffffffffffffffffffffffff\n      and\n      0x39ac7a08\n        /* \"ApplicantPool.sol\":1537:1547  msg.sender */\n      caller\n        /* \"ApplicantPool.sol\":1549:1566  memberPoolAddress */\n      0x07\n      0x00\n      swap1\n      sload\n      swap1\n      0x0100\n      exp\n      swap1\n      div\n      0xffffffffffffffffffffffffffffffffffffffff\n      and\n        /* \"ApplicantPool.sol\":1524:1567  map.isMember(msg.sender, memberPoolAddress) */\n      mload(0x40)\n      dup4\n      0xffffffff\n      and\n      0xe0\n      shl\n      dup2\n      mstore\n      0x04\n      add\n      tag_140\n      swap3\n      swap2\n      swap1\n      tag_57\n      jump\t// in\n    tag_140:\n      0x20\n      mload(0x40)\n      dup1\n      dup4\n      sub\n      dup2\n      dup7\n      gas\n      staticcall\n      iszero\n      dup1\n      iszero\n      tag_142\n      jumpi\n      returndatasize\n      0x00\n      dup1\n      returndatacopy\n      revert(0x00, returndatasize)\n    tag_142:\n      pop\n      pop\n      pop\n      pop\n      mload(0x40)\n      returndatasize\n      not(0x1f)\n      0x1f\n      dup3\n      add\n      and\n      dup3\n      add\n      dup1\n      0x40\n      mstore\n      pop\n      dup2\n      add\n      swap1\n      tag_143\n      swap2\n      swap1\n      tag_61\n      jump\t// in\n    tag_143:\n        /* \"ApplicantPool.sol\":1523:1567  !map.isMember(msg.sender, memberPoolAddress) */\n      iszero\n        /* \"ApplicantPool.sol\":1501:1616  require(... */\n      tag_144\n      jumpi\n      mload(0x40)\n      0x08c379a000000000000000000000000000000000000000000000000000000000\n      dup2\n      mstore\n      0x04\n      add\n      tag_145\n      swap1\n      tag_146\n      jump\t// in\n    tag_145:\n      mload(0x40)\n      dup1\n      swap2\n      sub\n      swap1\n      revert\n    tag_144:\n        /* \"ApplicantPool.sol\":1636:1652  activeApplicants */\n      0x03\n        /* \"ApplicantPool.sol\":1636:1664  activeApplicants[msg.sender] */\n      0x00\n        /* \"ApplicantPool.sol\":1653:1663  msg.sender */\n      caller\n        /* \"ApplicantPool.sol\":1636:1664  activeApplicants[msg.sender] */\n      0xffffffffffffffffffffffffffffffffffffffff\n      and\n      0xffffffffffffffffffffffffffffffffffffffff\n      and\n      dup2\n      mstore\n      0x20\n      add\n      swap1\n      dup2\n      mstore\n      0x20\n      add\n      0x00\n      keccak256\n      0x00\n      swap1\n      sload\n      swap1\n      0x0100\n      exp\n      swap1\n      div\n      0xff\n      and\n        /* \"ApplicantPool.sol\":1635:1664  !activeApplicants[msg.sender] */\n      iszero\n        /* \"ApplicantPool.sol\":1627:1693  require(!activeApplicants[msg.sender], \"Already active applicant\") */\n      tag_147\n      jumpi\n      mload(0x40)\n      0x08c379a000000000000000000000000000000000000000000000000000000000\n      dup2\n      mstore\n      0x04\n      add\n      tag_148\n      swap1\n      tag_149\n      jump\t// in\n    tag_148:\n      mload(0x40)\n      dup1\n      swap2\n      sub\n      swap1\n      revert\n    tag_147:\n        /* \"ApplicantPool.sol\":1742:1744  -3 */\n      0xfffffffffffffffffffffffffffffffffffffffffffffffffffffffffffffffd\n        /* \"ApplicantPool.sol\":1712:1727  applicantPoints */\n      0x02\n        /* \"ApplicantPool.sol\":1712:1739  applicantPoints[msg.sender] */\n      0x00\n        /* \"ApplicantPool.sol\":1728:1738  msg.sender */\n      caller\n        /* \"ApplicantPool.sol\":1712:1739  applicantPoints[msg.sender] */\n      0xffffffffffffffffffffffffffffffffffffffff\n      and\n      0xffffffffffffffffffffffffffffffffffffffff\n      and\n      dup2\n      mstore\n      0x20\n      add\n      swap1\n      dup2\n      mstore\n      0x20\n      add\n      0x00\n      keccak256\n      sload\n        /* \"ApplicantPool.sol\":1712:1744  applicantPoints[msg.sender] > -3 */\n      sgt\n        /* \"ApplicantPool.sol\":1704:1765  require(applicantPoints[msg.sender] > -3, \"account rejected\") */\n      tag_150\n      jumpi\n      mload(0x40)\n      0x08c379a000000000000000000000000000000000000000000000000000000000\n      dup2\n      mstore\n      0x04\n      add\n      tag_151\n      swap1\n      tag_152\n      jump\t// in\n    tag_151:\n      mload(0x40)\n      dup1\n      swap2\n      sub\n      swap1\n      revert\n    tag_150:\n        /* \"ApplicantPool.sol\":1805:1811  reason */\n      dup2\n      dup2\n        /* \"ApplicantPool.sol\":1776:1790  applicantWords */\n      0x04\n        /* \"ApplicantPool.sol\":1776:1802  applicantWords[msg.sender] */\n      0x00\n        /* \"ApplicantPool.sol\":1791:1801  msg.sender */\n      caller\n        /* \"ApplicantPool.sol\":1776:1802  applicantWords[msg.sender] */\n      0xffffffffffffffffffffffffffffffffffffffff\n      and\n      0xffffffffffffffffffffffffffffffffffffffff\n      and\n      dup2\n      mstore\n      0x20\n      add\n      swap1\n      dup2\n      mstore\n      0x20\n      add\n      0x00\n      keccak256\n        /* \"ApplicantPool.sol\":1776:1811  applicantWords[msg.sender] = reason */\n      swap2\n      dup3\n      tag_153\n      swap3\n      swap2\n      swap1\n      tag_154\n      jump\t// in\n    tag_153:\n      pop\n        /* \"ApplicantPool.sol\":1822:1835  applicantList */\n      0x00\n        /* \"ApplicantPool.sol\":1841:1851  msg.sender */\n      caller\n        /* \"ApplicantPool.sol\":1822:1852  applicantList.push(msg.sender) */\n      swap1\n      dup1\n      0x01\n      dup2\n      sload\n      add\n      dup1\n      dup3\n      sstore\n      dup1\n      swap2\n      pop\n      pop\n      0x01\n      swap1\n      sub\n      swap1\n      0x00\n      mstore\n      keccak256(0x00, 0x20)\n      add\n      0x00\n      swap1\n      swap2\n      swap1\n      swap2\n      swap1\n      swap2\n      0x0100\n      exp\n      dup2\n      sload\n      dup2\n      0xffffffffffffffffffffffffffffffffffffffff\n      mul\n      not\n      and\n      swap1\n      dup4\n      0xffffffffffffffffffffffffffffffffffffffff\n      and\n      mul\n      or\n      swap1\n      sstore\n      pop\n        /* \"ApplicantPool.sol\":1907:1916  259200000 */\n      0x0f731400\n        /* \"ApplicantPool.sol\":1889:1904  block.timestamp */\n      timestamp\n        /* \"ApplicantPool.sol\":1889:1916  block.timestamp + 259200000 */\n      tag_156\n      swap2\n      swap1\n      tag_157\n      jump\t// in\n    tag_156:\n        /* \"ApplicantPool.sol\":1863:1874  voteEndTime */\n      0x05\n        /* \"ApplicantPool.sol\":1863:1886  voteEndTime[msg.sender] */\n      0x00\n        /* \"ApplicantPool.sol\":1875:1885  msg.sender */\n      caller\n        /* \"ApplicantPool.sol\":1863:1886  voteEndTime[msg.sender] */\n      0xffffffffffffffffffffffffffffffffffffffff\n      and\n      0xffffffffffffffffffffffffffffffffffffffff\n      and\n      dup2\n      mstore\n      0x20\n      add\n      swap1\n      dup2\n      mstore\n      0x20\n      add\n      0x00\n      keccak256\n        /* \"ApplicantPool.sol\":1863:1916  voteEndTime[msg.sender] = block.timestamp + 259200000 */\n      dup2\n      swap1\n      sstore\n      pop\n        /* \"ApplicantPool.sol\":1434:1933  function createApplicant(string calldata reason) public {... */\n      pop\n      pop\n      jump\t// out\n        /* \"ApplicantPool.sol\":3692:4053  function _burnApplicant(address applicant) internal {... */\n    tag_83:\n        /* \"ApplicantPool.sol\":3755:3768  uint256 index */\n      0x00\n        /* \"ApplicantPool.sol\":3783:3943  for (index = 0; index < applicantList.length; index++) {... */\n    tag_159:\n        /* \"ApplicantPool.sol\":3807:3820  applicantList */\n      0x00\n        /* \"ApplicantPool.sol\":3807:3827  applicantList.length */\n      dup1\n      sload\n      swap1\n      pop\n        /* \"ApplicantPool.sol\":3799:3804  index */\n      dup2\n        /* \"ApplicantPool.sol\":3799:3827  index < applicantList.length */\n      lt\n        /* \"ApplicantPool.sol\":3783:3943  for (index = 0; index < applicantList.length; index++) {... */\n      iszero\n      tag_160\n      jumpi\n        /* \"ApplicantPool.sol\":3881:3890  applicant */\n      dup2\n        /* \"ApplicantPool.sol\":3857:3890  applicantList[index] == applicant */\n      0xffffffffffffffffffffffffffffffffffffffff\n      and\n        /* \"ApplicantPool.sol\":3857:3870  applicantList */\n      0x00\n        /* \"ApplicantPool.sol\":3871:3876  index */\n      dup3\n        /* \"ApplicantPool.sol\":3857:3877  applicantList[index] */\n      dup2\n      sload\n      dup2\n      lt\n      tag_162\n      jumpi\n      tag_163\n      tag_113\n      jump\t// in\n    tag_163:\n    tag_162:\n      swap1\n      0x00\n      mstore\n      keccak256(0x00, 0x20)\n      add\n      0x00\n      swap1\n      sload\n      swap1\n      0x0100\n      exp\n      swap1\n      div\n      0xffffffffffffffffffffffffffffffffffffffff\n      and\n        /* \"ApplicantPool.sol\":3857:3890  applicantList[index] == applicant */\n      0xffffffffffffffffffffffffffffffffffffffff\n      and\n      sub\n        /* \"ApplicantPool.sol\":3853:3932  if (applicantList[index] == applicant) {... */\n      iszero\n        /* \"ApplicantPool.sol\":3911:3916  break */\n      tag_160\n        /* \"ApplicantPool.sol\":3853:3932  if (applicantList[index] == applicant) {... */\n      jumpi\n        /* \"ApplicantPool.sol\":3829:3836  index++ */\n      dup1\n      dup1\n      tag_166\n      swap1\n      tag_117\n      jump\t// in\n    tag_166:\n      swap2\n      pop\n      pop\n        /* \"ApplicantPool.sol\":3783:3943  for (index = 0; index < applicantList.length; index++) {... */\n      jump(tag_159)\n    tag_160:\n        /* \"ApplicantPool.sol\":3976:3989  applicantList */\n      0x00\n        /* \"ApplicantPool.sol\":4013:4014  1 */\n      0x01\n        /* \"ApplicantPool.sol\":3990:4003  applicantList */\n      0x00\n        /* \"ApplicantPool.sol\":3990:4010  applicantList.length */\n      dup1\n      sload\n      swap1\n      pop\n        /* \"ApplicantPool.sol\":3990:4014  applicantList.length - 1 */\n      tag_167\n      swap2\n      swap1\n      tag_168\n      jump\t// in\n    tag_167:\n        /* \"ApplicantPool.sol\":3976:4015  applicantList[applicantList.length - 1] */\n      dup2\n      sload\n      dup2\n      lt\n      tag_169\n      jumpi\n      tag_170\n      tag_113\n      jump\t// in\n    tag_170:\n    tag_169:\n      swap1\n      0x00\n      mstore\n      keccak256(0x00, 0x20)\n      add\n      0x00\n      swap1\n      sload\n      swap1\n      0x0100\n      exp\n      swap1\n      div\n      0xffffffffffffffffffffffffffffffffffffffff\n      and\n        /* \"ApplicantPool.sol\":3953:3966  applicantList */\n      0x00\n        /* \"ApplicantPool.sol\":3967:3972  index */\n      dup3\n        /* \"ApplicantPool.sol\":3953:3973  applicantList[index] */\n      dup2\n      sload\n      dup2\n      lt\n      tag_172\n      jumpi\n      tag_173\n      tag_113\n      jump\t// in\n    tag_173:\n    tag_172:\n      swap1\n      0x00\n      mstore\n      keccak256(0x00, 0x20)\n      add\n      0x00\n        /* \"ApplicantPool.sol\":3953:4015  applicantList[index] = applicantList[applicantList.length - 1] */\n      0x0100\n      exp\n      dup2\n      sload\n      dup2\n      0xffffffffffffffffffffffffffffffffffffffff\n      mul\n      not\n      and\n      swap1\n      dup4\n      0xffffffffffffffffffffffffffffffffffffffff\n      and\n      mul\n      or\n      swap1\n      sstore\n      pop\n        /* \"ApplicantPool.sol\":4026:4039  applicantList */\n      0x00\n        /* \"ApplicantPool.sol\":4026:4045  applicantList.pop() */\n      dup1\n      sload\n      dup1\n      tag_175\n      jumpi\n      tag_176\n      tag_177\n      jump\t// in\n    tag_176:\n    tag_175:\n      0x01\n      swap1\n      sub\n      dup2\n      dup2\n      swap1\n      0x00\n      mstore\n      keccak256(0x00, 0x20)\n      add\n      exp(0x0100, 0x00)\n      dup2\n      sload\n      swap1\n      0xffffffffffffffffffffffffffffffffffffffff\n      mul\n      not\n      and\n      swap1\n      sstore\n      swap1\n      sstore\n        /* \"ApplicantPool.sol\":3744:4053  {... */\n      pop\n        /* \"ApplicantPool.sol\":3692:4053  function _burnApplicant(address applicant) internal {... */\n      pop\n      jump\t// out\n    tag_85:\n      pop\n      dup1\n      sload\n      0x00\n      dup3\n      sstore\n      swap1\n      0x00\n      mstore\n      keccak256(0x00, 0x20)\n      swap1\n      dup2\n      add\n      swap1\n      tag_180\n      swap2\n      swap1\n      tag_181\n      jump\t// in\n    tag_180:\n      pop\n      jump\t// out\n    tag_181:\n    tag_182:\n      dup1\n      dup3\n      gt\n      iszero\n      tag_183\n      jumpi\n      0x00\n      dup2\n      0x00\n      swap1\n      sstore\n      pop\n      0x01\n      add\n      jump(tag_182)\n    tag_183:\n      pop\n      swap1\n      jump\t// out\n        /* \"#utility.yul\":88:205   */\n    tag_185:\n        /* \"#utility.yul\":197:198   */\n      0x00\n        /* \"#utility.yul\":194:195   */\n      dup1\n        /* \"#utility.yul\":187:199   */\n      revert\n        /* \"#utility.yul\":211:328   */\n    tag_186:\n        /* \"#utility.yul\":320:321   */\n      0x00\n        /* \"#utility.yul\":317:318   */\n      dup1\n        /* \"#utility.yul\":310:322   */\n      revert\n        /* \"#utility.yul\":334:460   */\n    tag_187:\n        /* \"#utility.yul\":371:378   */\n      0x00\n        /* \"#utility.yul\":411:453   */\n      0xffffffffffffffffffffffffffffffffffffffff\n        /* \"#utility.yul\":404:409   */\n      dup3\n        /* \"#utility.yul\":400:454   */\n      and\n        /* \"#utility.yul\":389:454   */\n      swap1\n      pop\n        /* \"#utility.yul\":334:460   */\n      swap2\n      swap1\n      pop\n      jump\t// out\n        /* \"#utility.yul\":466:562   */\n    tag_188:\n        /* \"#utility.yul\":503:510   */\n      0x00\n        /* \"#utility.yul\":532:556   */\n      tag_257\n        /* \"#utility.yul\":550:555   */\n      dup3\n        /* \"#utility.yul\":532:556   */\n      tag_187\n      jump\t// in\n    tag_257:\n        /* \"#utility.yul\":521:556   */\n      swap1\n      pop\n        /* \"#utility.yul\":466:562   */\n      swap2\n      swap1\n      pop\n      jump\t// out\n        /* \"#utility.yul\":568:690   */\n    tag_189:\n        /* \"#utility.yul\":641:665   */\n      tag_259\n        /* \"#utility.yul\":659:664   */\n      dup2\n        /* \"#utility.yul\":641:665   */\n      tag_188\n      jump\t// in\n    tag_259:\n        /* \"#utility.yul\":634:639   */\n      dup2\n        /* \"#utility.yul\":631:666   */\n      eq\n        /* \"#utility.yul\":621:684   */\n      tag_260\n      jumpi\n        /* \"#utility.yul\":680:681   */\n      0x00\n        /* \"#utility.yul\":677:678   */\n      dup1\n        /* \"#utility.yul\":670:682   */\n      revert\n        /* \"#utility.yul\":621:684   */\n    tag_260:\n        /* \"#utility.yul\":568:690   */\n      pop\n      jump\t// out\n        /* \"#utility.yul\":696:835   */\n    tag_190:\n        /* \"#utility.yul\":742:747   */\n      0x00\n        /* \"#utility.yul\":780:786   */\n      dup2\n        /* \"#utility.yul\":767:787   */\n      calldataload\n        /* \"#utility.yul\":758:787   */\n      swap1\n      pop\n        /* \"#utility.yul\":796:829   */\n      tag_262\n        /* \"#utility.yul\":823:828   */\n      dup2\n        /* \"#utility.yul\":796:829   */\n      tag_189\n      jump\t// in\n    tag_262:\n        /* \"#utility.yul\":696:835   */\n      swap3\n      swap2\n      pop\n      pop\n      jump\t// out\n        /* \"#utility.yul\":841:1170   */\n    tag_16:\n        /* \"#utility.yul\":900:906   */\n      0x00\n        /* \"#utility.yul\":949:951   */\n      0x20\n        /* \"#utility.yul\":937:946   */\n      dup3\n        /* \"#utility.yul\":928:935   */\n      dup5\n        /* \"#utility.yul\":924:947   */\n      sub\n        /* \"#utility.yul\":920:952   */\n      slt\n        /* \"#utility.yul\":917:1036   */\n      iszero\n      tag_264\n      jumpi\n        /* \"#utility.yul\":955:1034   */\n      tag_265\n      tag_185\n      jump\t// in\n    tag_265:\n        /* \"#utility.yul\":917:1036   */\n    tag_264:\n        /* \"#utility.yul\":1075:1076   */\n      0x00\n        /* \"#utility.yul\":1100:1153   */\n      tag_266\n        /* \"#utility.yul\":1145:1152   */\n      dup5\n        /* \"#utility.yul\":1136:1142   */\n      dup3\n        /* \"#utility.yul\":1125:1134   */\n      dup6\n        /* \"#utility.yul\":1121:1143   */\n      add\n        /* \"#utility.yul\":1100:1153   */\n      tag_190\n      jump\t// in\n    tag_266:\n        /* \"#utility.yul\":1090:1153   */\n      swap2\n      pop\n        /* \"#utility.yul\":1046:1163   */\n      pop\n        /* \"#utility.yul\":841:1170   */\n      swap3\n      swap2\n      pop\n      pop\n      jump\t// out\n        /* \"#utility.yul\":1176:1275   */\n    tag_191:\n        /* \"#utility.yul\":1228:1234   */\n      0x00\n        /* \"#utility.yul\":1262:1267   */\n      dup2\n        /* \"#utility.yul\":1256:1268   */\n      mload\n        /* \"#utility.yul\":1246:1268   */\n      swap1\n      pop\n        /* \"#utility.yul\":1176:1275   */\n      swap2\n      swap1\n      pop\n      jump\t// out\n        /* \"#utility.yul\":1281:1450   */\n    tag_192:\n        /* \"#utility.yul\":1365:1376   */\n      0x00\n        /* \"#utility.yul\":1399:1405   */\n      dup3\n        /* \"#utility.yul\":1394:1397   */\n      dup3\n        /* \"#utility.yul\":1387:1406   */\n      mstore\n        /* \"#utility.yul\":1439:1443   */\n      0x20\n        /* \"#utility.yul\":1434:1437   */\n      dup3\n        /* \"#utility.yul\":1430:1444   */\n      add\n        /* \"#utility.yul\":1415:1444   */\n      swap1\n      pop\n        /* \"#utility.yul\":1281:1450   */\n      swap3\n      swap2\n      pop\n      pop\n      jump\t// out\n        /* \"#utility.yul\":1456:1702   */\n    tag_193:\n        /* \"#utility.yul\":1537:1538   */\n      0x00\n        /* \"#utility.yul\":1547:1660   */\n    tag_270:\n        /* \"#utility.yul\":1561:1567   */\n      dup4\n        /* \"#utility.yul\":1558:1559   */\n      dup2\n        /* \"#utility.yul\":1555:1568   */\n      lt\n        /* \"#utility.yul\":1547:1660   */\n      iszero\n      tag_272\n      jumpi\n        /* \"#utility.yul\":1646:1647   */\n      dup1\n        /* \"#utility.yul\":1641:1644   */\n      dup3\n        /* \"#utility.yul\":1637:1648   */\n      add\n        /* \"#utility.yul\":1631:1649   */\n      mload\n        /* \"#utility.yul\":1627:1628   */\n      dup2\n        /* \"#utility.yul\":1622:1625   */\n      dup5\n        /* \"#utility.yul\":1618:1629   */\n      add\n        /* \"#utility.yul\":1611:1650   */\n      mstore\n        /* \"#utility.yul\":1583:1585   */\n      0x20\n        /* \"#utility.yul\":1580:1581   */\n      dup2\n        /* \"#utility.yul\":1576:1586   */\n      add\n        /* \"#utility.yul\":1571:1586   */\n      swap1\n      pop\n        /* \"#utility.yul\":1547:1660   */\n      jump(tag_270)\n    tag_272:\n        /* \"#utility.yul\":1694:1695   */\n      0x00\n        /* \"#utility.yul\":1685:1691   */\n      dup5\n        /* \"#utility.yul\":1680:1683   */\n      dup5\n        /* \"#utility.yul\":1676:1692   */\n      add\n        /* \"#utility.yul\":1669:1696   */\n      mstore\n        /* \"#utility.yul\":1518:1702   */\n      pop\n        /* \"#utility.yul\":1456:1702   */\n      pop\n      pop\n      pop\n      jump\t// out\n        /* \"#utility.yul\":1708:1810   */\n    tag_194:\n        /* \"#utility.yul\":1749:1755   */\n      0x00\n        /* \"#utility.yul\":1800:1802   */\n      0x1f\n        /* \"#utility.yul\":1796:1803   */\n      not\n        /* \"#utility.yul\":1791:1793   */\n      0x1f\n        /* \"#utility.yul\":1784:1789   */\n      dup4\n        /* \"#utility.yul\":1780:1794   */\n      add\n        /* \"#utility.yul\":1776:1804   */\n      and\n        /* \"#utility.yul\":1766:1804   */\n      swap1\n      pop\n        /* \"#utility.yul\":1708:1810   */\n      swap2\n      swap1\n      pop\n      jump\t// out\n        /* \"#utility.yul\":1816:2193   */\n    tag_195:\n        /* \"#utility.yul\":1904:1907   */\n      0x00\n        /* \"#utility.yul\":1932:1971   */\n      tag_275\n        /* \"#utility.yul\":1965:1970   */\n      dup3\n        /* \"#utility.yul\":1932:1971   */\n      tag_191\n      jump\t// in\n    tag_275:\n        /* \"#utility.yul\":1987:2058   */\n      tag_276\n        /* \"#utility.yul\":2051:2057   */\n      dup2\n        /* \"#utility.yul\":2046:2049   */\n      dup6\n        /* \"#utility.yul\":1987:2058   */\n      tag_192\n      jump\t// in\n    tag_276:\n        /* \"#utility.yul\":1980:2058   */\n      swap4\n      pop\n        /* \"#utility.yul\":2067:2132   */\n      tag_277\n        /* \"#utility.yul\":2125:2131   */\n      dup2\n        /* \"#utility.yul\":2120:2123   */\n      dup6\n        /* \"#utility.yul\":2113:2117   */\n      0x20\n        /* \"#utility.yul\":2106:2111   */\n      dup7\n        /* \"#utility.yul\":2102:2118   */\n      add\n        /* \"#utility.yul\":2067:2132   */\n      tag_193\n      jump\t// in\n    tag_277:\n        /* \"#utility.yul\":2157:2186   */\n      tag_278\n        /* \"#utility.yul\":2179:2185   */\n      dup2\n        /* \"#utility.yul\":2157:2186   */\n      tag_194\n      jump\t// in\n    tag_278:\n        /* \"#utility.yul\":2152:2155   */\n      dup5\n        /* \"#utility.yul\":2148:2187   */\n      add\n        /* \"#utility.yul\":2141:2187   */\n      swap2\n      pop\n        /* \"#utility.yul\":1908:2193   */\n      pop\n        /* \"#utility.yul\":1816:2193   */\n      swap3\n      swap2\n      pop\n      pop\n      jump\t// out\n        /* \"#utility.yul\":2199:2512   */\n    tag_19:\n        /* \"#utility.yul\":2312:2316   */\n      0x00\n        /* \"#utility.yul\":2350:2352   */\n      0x20\n        /* \"#utility.yul\":2339:2348   */\n      dup3\n        /* \"#utility.yul\":2335:2353   */\n      add\n        /* \"#utility.yul\":2327:2353   */\n      swap1\n      pop\n        /* \"#utility.yul\":2399:2408   */\n      dup2\n        /* \"#utility.yul\":2393:2397   */\n      dup2\n        /* \"#utility.yul\":2389:2409   */\n      sub\n        /* \"#utility.yul\":2385:2386   */\n      0x00\n        /* \"#utility.yul\":2374:2383   */\n      dup4\n        /* \"#utility.yul\":2370:2387   */\n      add\n        /* \"#utility.yul\":2363:2410   */\n      mstore\n        /* \"#utility.yul\":2427:2505   */\n      tag_280\n        /* \"#utility.yul\":2500:2504   */\n      dup2\n        /* \"#utility.yul\":2491:2497   */\n      dup5\n        /* \"#utility.yul\":2427:2505   */\n      tag_195\n      jump\t// in\n    tag_280:\n        /* \"#utility.yul\":2419:2505   */\n      swap1\n      pop\n        /* \"#utility.yul\":2199:2512   */\n      swap3\n      swap2\n      pop\n      pop\n      jump\t// out\n        /* \"#utility.yul\":2518:2632   */\n    tag_196:\n        /* \"#utility.yul\":2585:2591   */\n      0x00\n        /* \"#utility.yul\":2619:2624   */\n      dup2\n        /* \"#utility.yul\":2613:2625   */\n      mload\n        /* \"#utility.yul\":2603:2625   */\n      swap1\n      pop\n        /* \"#utility.yul\":2518:2632   */\n      swap2\n      swap1\n      pop\n      jump\t// out\n        /* \"#utility.yul\":2638:2822   */\n    tag_197:\n        /* \"#utility.yul\":2737:2748   */\n      0x00\n        /* \"#utility.yul\":2771:2777   */\n      dup3\n        /* \"#utility.yul\":2766:2769   */\n      dup3\n        /* \"#utility.yul\":2759:2778   */\n      mstore\n        /* \"#utility.yul\":2811:2815   */\n      0x20\n        /* \"#utility.yul\":2806:2809   */\n      dup3\n        /* \"#utility.yul\":2802:2816   */\n      add\n        /* \"#utility.yul\":2787:2816   */\n      swap1\n      pop\n        /* \"#utility.yul\":2638:2822   */\n      swap3\n      swap2\n      pop\n      pop\n      jump\t// out\n        /* \"#utility.yul\":2828:2960   */\n    tag_198:\n        /* \"#utility.yul\":2895:2899   */\n      0x00\n        /* \"#utility.yul\":2918:2921   */\n      dup2\n        /* \"#utility.yul\":2910:2921   */\n      swap1\n      pop\n        /* \"#utility.yul\":2948:2952   */\n      0x20\n        /* \"#utility.yul\":2943:2946   */\n      dup3\n        /* \"#utility.yul\":2939:2953   */\n      add\n        /* \"#utility.yul\":2931:2953   */\n      swap1\n      pop\n        /* \"#utility.yul\":2828:2960   */\n      swap2\n      swap1\n      pop\n      jump\t// out\n        /* \"#utility.yul\":2966:3074   */\n    tag_199:\n        /* \"#utility.yul\":3043:3067   */\n      tag_285\n        /* \"#utility.yul\":3061:3066   */\n      dup2\n        /* \"#utility.yul\":3043:3067   */\n      tag_188\n      jump\t// in\n    tag_285:\n        /* \"#utility.yul\":3038:3041   */\n      dup3\n        /* \"#utility.yul\":3031:3068   */\n      mstore\n        /* \"#utility.yul\":2966:3074   */\n      pop\n      pop\n      jump\t// out\n        /* \"#utility.yul\":3080:3259   */\n    tag_200:\n        /* \"#utility.yul\":3149:3159   */\n      0x00\n        /* \"#utility.yul\":3170:3216   */\n      tag_287\n        /* \"#utility.yul\":3212:3215   */\n      dup4\n        /* \"#utility.yul\":3204:3210   */\n      dup4\n        /* \"#utility.yul\":3170:3216   */\n      tag_199\n      jump\t// in\n    tag_287:\n        /* \"#utility.yul\":3248:3252   */\n      0x20\n        /* \"#utility.yul\":3243:3246   */\n      dup4\n        /* \"#utility.yul\":3239:3253   */\n      add\n        /* \"#utility.yul\":3225:3253   */\n      swap1\n      pop\n        /* \"#utility.yul\":3080:3259   */\n      swap3\n      swap2\n      pop\n      pop\n      jump\t// out\n        /* \"#utility.yul\":3265:3378   */\n    tag_201:\n        /* \"#utility.yul\":3335:3339   */\n      0x00\n        /* \"#utility.yul\":3367:3371   */\n      0x20\n        /* \"#utility.yul\":3362:3365   */\n      dup3\n        /* \"#utility.yul\":3358:3372   */\n      add\n        /* \"#utility.yul\":3350:3372   */\n      swap1\n      pop\n        /* \"#utility.yul\":3265:3378   */\n      swap2\n      swap1\n      pop\n      jump\t// out\n        /* \"#utility.yul\":3414:4146   */\n    tag_202:\n        /* \"#utility.yul\":3533:3536   */\n      0x00\n        /* \"#utility.yul\":3562:3616   */\n      tag_290\n        /* \"#utility.yul\":3610:3615   */\n      dup3\n        /* \"#utility.yul\":3562:3616   */\n      tag_196\n      jump\t// in\n    tag_290:\n        /* \"#utility.yul\":3632:3718   */\n      tag_291\n        /* \"#utility.yul\":3711:3717   */\n      dup2\n        /* \"#utility.yul\":3706:3709   */\n      dup6\n        /* \"#utility.yul\":3632:3718   */\n      tag_197\n      jump\t// in\n    tag_291:\n        /* \"#utility.yul\":3625:3718   */\n      swap4\n      pop\n        /* \"#utility.yul\":3742:3798   */\n      tag_292\n        /* \"#utility.yul\":3792:3797   */\n      dup4\n        /* \"#utility.yul\":3742:3798   */\n      tag_198\n      jump\t// in\n    tag_292:\n        /* \"#utility.yul\":3821:3828   */\n      dup1\n        /* \"#utility.yul\":3852:3853   */\n      0x00\n        /* \"#utility.yul\":3837:4121   */\n    tag_293:\n        /* \"#utility.yul\":3862:3868   */\n      dup4\n        /* \"#utility.yul\":3859:3860   */\n      dup2\n        /* \"#utility.yul\":3856:3869   */\n      lt\n        /* \"#utility.yul\":3837:4121   */\n      iszero\n      tag_295\n      jumpi\n        /* \"#utility.yul\":3938:3944   */\n      dup2\n        /* \"#utility.yul\":3932:3945   */\n      mload\n        /* \"#utility.yul\":3965:4028   */\n      tag_296\n        /* \"#utility.yul\":4024:4027   */\n      dup9\n        /* \"#utility.yul\":4009:4022   */\n      dup3\n        /* \"#utility.yul\":3965:4028   */\n      tag_200\n      jump\t// in\n    tag_296:\n        /* \"#utility.yul\":3958:4028   */\n      swap8\n      pop\n        /* \"#utility.yul\":4051:4111   */\n      tag_297\n        /* \"#utility.yul\":4104:4110   */\n      dup4\n        /* \"#utility.yul\":4051:4111   */\n      tag_201\n      jump\t// in\n    tag_297:\n        /* \"#utility.yul\":4041:4111   */\n      swap3\n      pop\n        /* \"#utility.yul\":3897:4121   */\n      pop\n        /* \"#utility.yul\":3884:3885   */\n      0x01\n        /* \"#utility.yul\":3881:3882   */\n      dup2\n        /* \"#utility.yul\":3877:3886   */\n      add\n        /* \"#utility.yul\":3872:3886   */\n      swap1\n      pop\n        /* \"#utility.yul\":3837:4121   */\n      jump(tag_293)\n    tag_295:\n        /* \"#utility.yul\":3841:3855   */\n      pop\n        /* \"#utility.yul\":4137:4140   */\n      dup6\n        /* \"#utility.yul\":4130:4140   */\n      swap4\n      pop\n        /* \"#utility.yul\":3538:4146   */\n      pop\n      pop\n      pop\n        /* \"#utility.yul\":3414:4146   */\n      swap3\n      swap2\n      pop\n      pop\n      jump\t// out\n        /* \"#utility.yul\":4152:4525   */\n    tag_32:\n        /* \"#utility.yul\":4295:4299   */\n      0x00\n        /* \"#utility.yul\":4333:4335   */\n      0x20\n        /* \"#utility.yul\":4322:4331   */\n      dup3\n        /* \"#utility.yul\":4318:4336   */\n      add\n        /* \"#utility.yul\":4310:4336   */\n      swap1\n      pop\n        /* \"#utility.yul\":4382:4391   */\n      dup2\n        /* \"#utility.yul\":4376:4380   */\n      dup2\n        /* \"#utility.yul\":4372:4392   */\n      sub\n        /* \"#utility.yul\":4368:4369   */\n      0x00\n        /* \"#utility.yul\":4357:4366   */\n      dup4\n        /* \"#utility.yul\":4353:4370   */\n      add\n        /* \"#utility.yul\":4346:4393   */\n      mstore\n        /* \"#utility.yul\":4410:4518   */\n      tag_299\n        /* \"#utility.yul\":4513:4517   */\n      dup2\n        /* \"#utility.yul\":4504:4510   */\n      dup5\n        /* \"#utility.yul\":4410:4518   */\n      tag_202\n      jump\t// in\n    tag_299:\n        /* \"#utility.yul\":4402:4518   */\n      swap1\n      pop\n        /* \"#utility.yul\":4152:4525   */\n      swap3\n      swap2\n      pop\n      pop\n      jump\t// out\n        /* \"#utility.yul\":4531:4608   */\n    tag_203:\n        /* \"#utility.yul\":4568:4575   */\n      0x00\n        /* \"#utility.yul\":4597:4602   */\n      dup2\n        /* \"#utility.yul\":4586:4602   */\n      swap1\n      pop\n        /* \"#utility.yul\":4531:4608   */\n      swap2\n      swap1\n      pop\n      jump\t// out\n        /* \"#utility.yul\":4614:4736   */\n    tag_204:\n        /* \"#utility.yul\":4687:4711   */\n      tag_302\n        /* \"#utility.yul\":4705:4710   */\n      dup2\n        /* \"#utility.yul\":4687:4711   */\n      tag_203\n      jump\t// in\n    tag_302:\n        /* \"#utility.yul\":4680:4685   */\n      dup2\n        /* \"#utility.yul\":4677:4712   */\n      eq\n        /* \"#utility.yul\":4667:4730   */\n      tag_303\n      jumpi\n        /* \"#utility.yul\":4726:4727   */\n      0x00\n        /* \"#utility.yul\":4723:4724   */\n      dup1\n        /* \"#utility.yul\":4716:4728   */\n      revert\n        /* \"#utility.yul\":4667:4730   */\n    tag_303:\n        /* \"#utility.yul\":4614:4736   */\n      pop\n      jump\t// out\n        /* \"#utility.yul\":4742:4881   */\n    tag_205:\n        /* \"#utility.yul\":4788:4793   */\n      0x00\n        /* \"#utility.yul\":4826:4832   */\n      dup2\n        /* \"#utility.yul\":4813:4833   */\n      calldataload\n        /* \"#utility.yul\":4804:4833   */\n      swap1\n      pop\n        /* \"#utility.yul\":4842:4875   */\n      tag_305\n        /* \"#utility.yul\":4869:4874   */\n      dup2\n        /* \"#utility.yul\":4842:4875   */\n      tag_204\n      jump\t// in\n    tag_305:\n        /* \"#utility.yul\":4742:4881   */\n      swap3\n      swap2\n      pop\n      pop\n      jump\t// out\n        /* \"#utility.yul\":4887:5216   */\n    tag_35:\n        /* \"#utility.yul\":4946:4952   */\n      0x00\n        /* \"#utility.yul\":4995:4997   */\n      0x20\n        /* \"#utility.yul\":4983:4992   */\n      dup3\n        /* \"#utility.yul\":4974:4981   */\n      dup5\n        /* \"#utility.yul\":4970:4993   */\n      sub\n        /* \"#utility.yul\":4966:4998   */\n      slt\n        /* \"#utility.yul\":4963:5082   */\n      iszero\n      tag_307\n      jumpi\n        /* \"#utility.yul\":5001:5080   */\n      tag_308\n      tag_185\n      jump\t// in\n    tag_308:\n        /* \"#utility.yul\":4963:5082   */\n    tag_307:\n        /* \"#utility.yul\":5121:5122   */\n      0x00\n        /* \"#utility.yul\":5146:5199   */\n      tag_309\n        /* \"#utility.yul\":5191:5198   */\n      dup5\n        /* \"#utility.yul\":5182:5188   */\n      dup3\n        /* \"#utility.yul\":5171:5180   */\n      dup6\n        /* \"#utility.yul\":5167:5189   */\n      add\n        /* \"#utility.yul\":5146:5199   */\n      tag_205\n      jump\t// in\n    tag_309:\n        /* \"#utility.yul\":5136:5199   */\n      swap2\n      pop\n        /* \"#utility.yul\":5092:5209   */\n      pop\n        /* \"#utility.yul\":4887:5216   */\n      swap3\n      swap2\n      pop\n      pop\n      jump\t// out\n        /* \"#utility.yul\":5222:5340   */\n    tag_206:\n        /* \"#utility.yul\":5309:5333   */\n      tag_311\n        /* \"#utility.yul\":5327:5332   */\n      dup2\n        /* \"#utility.yul\":5309:5333   */\n      tag_188\n      jump\t// in\n    tag_311:\n        /* \"#utility.yul\":5304:5307   */\n      dup3\n        /* \"#utility.yul\":5297:5334   */\n      mstore\n        /* \"#utility.yul\":5222:5340   */\n      pop\n      pop\n      jump\t// out\n        /* \"#utility.yul\":5346:5568   */\n    tag_38:\n        /* \"#utility.yul\":5439:5443   */\n      0x00\n        /* \"#utility.yul\":5477:5479   */\n      0x20\n        /* \"#utility.yul\":5466:5475   */\n      dup3\n        /* \"#utility.yul\":5462:5480   */\n      add\n        /* \"#utility.yul\":5454:5480   */\n      swap1\n      pop\n        /* \"#utility.yul\":5490:5561   */\n      tag_313\n        /* \"#utility.yul\":5558:5559   */\n      0x00\n        /* \"#utility.yul\":5547:5556   */\n      dup4\n        /* \"#utility.yul\":5543:5560   */\n      add\n        /* \"#utility.yul\":5534:5540   */\n      dup5\n        /* \"#utility.yul\":5490:5561   */\n      tag_206\n      jump\t// in\n    tag_313:\n        /* \"#utility.yul\":5346:5568   */\n      swap3\n      swap2\n      pop\n      pop\n      jump\t// out\n        /* \"#utility.yul\":5574:5692   */\n    tag_207:\n        /* \"#utility.yul\":5661:5685   */\n      tag_315\n        /* \"#utility.yul\":5679:5684   */\n      dup2\n        /* \"#utility.yul\":5661:5685   */\n      tag_203\n      jump\t// in\n    tag_315:\n        /* \"#utility.yul\":5656:5659   */\n      dup3\n        /* \"#utility.yul\":5649:5686   */\n      mstore\n        /* \"#utility.yul\":5574:5692   */\n      pop\n      pop\n      jump\t// out\n        /* \"#utility.yul\":5698:5920   */\n    tag_43:\n        /* \"#utility.yul\":5791:5795   */\n      0x00\n        /* \"#utility.yul\":5829:5831   */\n      0x20\n        /* \"#utility.yul\":5818:5827   */\n      dup3\n        /* \"#utility.yul\":5814:5832   */\n      add\n        /* \"#utility.yul\":5806:5832   */\n      swap1\n      pop\n        /* \"#utility.yul\":5842:5913   */\n      tag_317\n        /* \"#utility.yul\":5910:5911   */\n      0x00\n        /* \"#utility.yul\":5899:5908   */\n      dup4\n        /* \"#utility.yul\":5895:5912   */\n      add\n        /* \"#utility.yul\":5886:5892   */\n      dup5\n        /* \"#utility.yul\":5842:5913   */\n      tag_207\n      jump\t// in\n    tag_317:\n        /* \"#utility.yul\":5698:5920   */\n      swap3\n      swap2\n      pop\n      pop\n      jump\t// out\n        /* \"#utility.yul\":5926:6043   */\n    tag_208:\n        /* \"#utility.yul\":6035:6036   */\n      0x00\n        /* \"#utility.yul\":6032:6033   */\n      dup1\n        /* \"#utility.yul\":6025:6037   */\n      revert\n        /* \"#utility.yul\":6049:6166   */\n    tag_209:\n        /* \"#utility.yul\":6158:6159   */\n      0x00\n        /* \"#utility.yul\":6155:6156   */\n      dup1\n        /* \"#utility.yul\":6148:6160   */\n      revert\n        /* \"#utility.yul\":6172:6289   */\n    tag_210:\n        /* \"#utility.yul\":6281:6282   */\n      0x00\n        /* \"#utility.yul\":6278:6279   */\n      dup1\n        /* \"#utility.yul\":6271:6283   */\n      revert\n        /* \"#utility.yul\":6309:6862   */\n    tag_211:\n        /* \"#utility.yul\":6367:6375   */\n      0x00\n        /* \"#utility.yul\":6377:6383   */\n      dup1\n        /* \"#utility.yul\":6427:6430   */\n      dup4\n        /* \"#utility.yul\":6420:6424   */\n      0x1f\n        /* \"#utility.yul\":6412:6418   */\n      dup5\n        /* \"#utility.yul\":6408:6425   */\n      add\n        /* \"#utility.yul\":6404:6431   */\n      slt\n        /* \"#utility.yul\":6394:6516   */\n      tag_322\n      jumpi\n        /* \"#utility.yul\":6435:6514   */\n      tag_323\n      tag_208\n      jump\t// in\n    tag_323:\n        /* \"#utility.yul\":6394:6516   */\n    tag_322:\n        /* \"#utility.yul\":6548:6554   */\n      dup3\n        /* \"#utility.yul\":6535:6555   */\n      calldataload\n        /* \"#utility.yul\":6525:6555   */\n      swap1\n      pop\n        /* \"#utility.yul\":6578:6596   */\n      0xffffffffffffffff\n        /* \"#utility.yul\":6570:6576   */\n      dup2\n        /* \"#utility.yul\":6567:6597   */\n      gt\n        /* \"#utility.yul\":6564:6681   */\n      iszero\n      tag_324\n      jumpi\n        /* \"#utility.yul\":6600:6679   */\n      tag_325\n      tag_209\n      jump\t// in\n    tag_325:\n        /* \"#utility.yul\":6564:6681   */\n    tag_324:\n        /* \"#utility.yul\":6714:6718   */\n      0x20\n        /* \"#utility.yul\":6706:6712   */\n      dup4\n        /* \"#utility.yul\":6702:6719   */\n      add\n        /* \"#utility.yul\":6690:6719   */\n      swap2\n      pop\n        /* \"#utility.yul\":6768:6771   */\n      dup4\n        /* \"#utility.yul\":6760:6764   */\n      0x01\n        /* \"#utility.yul\":6752:6758   */\n      dup3\n        /* \"#utility.yul\":6748:6765   */\n      mul\n        /* \"#utility.yul\":6738:6746   */\n      dup4\n        /* \"#utility.yul\":6734:6766   */\n      add\n        /* \"#utility.yul\":6731:6772   */\n      gt\n        /* \"#utility.yul\":6728:6856   */\n      iszero\n      tag_326\n      jumpi\n        /* \"#utility.yul\":6775:6854   */\n      tag_327\n      tag_210\n      jump\t// in\n    tag_327:\n        /* \"#utility.yul\":6728:6856   */\n    tag_326:\n        /* \"#utility.yul\":6309:6862   */\n      swap3\n      pop\n      swap3\n      swap1\n      pop\n      jump\t// out\n        /* \"#utility.yul\":6868:7397   */\n    tag_53:\n        /* \"#utility.yul\":6939:6945   */\n      0x00\n        /* \"#utility.yul\":6947:6953   */\n      dup1\n        /* \"#utility.yul\":6996:6998   */\n      0x20\n        /* \"#utility.yul\":6984:6993   */\n      dup4\n        /* \"#utility.yul\":6975:6982   */\n      dup6\n        /* \"#utility.yul\":6971:6994   */\n      sub\n        /* \"#utility.yul\":6967:6999   */\n      slt\n        /* \"#utility.yul\":6964:7083   */\n      iszero\n      tag_329\n      jumpi\n        /* \"#utility.yul\":7002:7081   */\n      tag_330\n      tag_185\n      jump\t// in\n    tag_330:\n        /* \"#utility.yul\":6964:7083   */\n    tag_329:\n        /* \"#utility.yul\":7150:7151   */\n      0x00\n        /* \"#utility.yul\":7139:7148   */\n      dup4\n        /* \"#utility.yul\":7135:7152   */\n      add\n        /* \"#utility.yul\":7122:7153   */\n      calldataload\n        /* \"#utility.yul\":7180:7198   */\n      0xffffffffffffffff\n        /* \"#utility.yul\":7172:7178   */\n      dup2\n        /* \"#utility.yul\":7169:7199   */\n      gt\n        /* \"#utility.yul\":7166:7283   */\n      iszero\n      tag_331\n      jumpi\n        /* \"#utility.yul\":7202:7281   */\n      tag_332\n      tag_186\n      jump\t// in\n    tag_332:\n        /* \"#utility.yul\":7166:7283   */\n    tag_331:\n        /* \"#utility.yul\":7315:7380   */\n      tag_333\n        /* \"#utility.yul\":7372:7379   */\n      dup6\n        /* \"#utility.yul\":7363:7369   */\n      dup3\n        /* \"#utility.yul\":7352:7361   */\n      dup7\n        /* \"#utility.yul\":7348:7370   */\n      add\n        /* \"#utility.yul\":7315:7380   */\n      tag_211\n      jump\t// in\n    tag_333:\n        /* \"#utility.yul\":7297:7380   */\n      swap3\n      pop\n      swap3\n      pop\n        /* \"#utility.yul\":7093:7390   */\n      pop\n        /* \"#utility.yul\":6868:7397   */\n      swap3\n      pop\n      swap3\n      swap1\n      pop\n      jump\t// out\n        /* \"#utility.yul\":7403:7735   */\n    tag_57:\n        /* \"#utility.yul\":7524:7528   */\n      0x00\n        /* \"#utility.yul\":7562:7564   */\n      0x40\n        /* \"#utility.yul\":7551:7560   */\n      dup3\n        /* \"#utility.yul\":7547:7565   */\n      add\n        /* \"#utility.yul\":7539:7565   */\n      swap1\n      pop\n        /* \"#utility.yul\":7575:7646   */\n      tag_335\n        /* \"#utility.yul\":7643:7644   */\n      0x00\n        /* \"#utility.yul\":7632:7641   */\n      dup4\n        /* \"#utility.yul\":7628:7645   */\n      add\n        /* \"#utility.yul\":7619:7625   */\n      dup6\n        /* \"#utility.yul\":7575:7646   */\n      tag_206\n      jump\t// in\n    tag_335:\n        /* \"#utility.yul\":7656:7728   */\n      tag_336\n        /* \"#utility.yul\":7724:7726   */\n      0x20\n        /* \"#utility.yul\":7713:7722   */\n      dup4\n        /* \"#utility.yul\":7709:7727   */\n      add\n        /* \"#utility.yul\":7700:7706   */\n      dup5\n        /* \"#utility.yul\":7656:7728   */\n      tag_206\n      jump\t// in\n    tag_336:\n        /* \"#utility.yul\":7403:7735   */\n      swap4\n      swap3\n      pop\n      pop\n      pop\n      jump\t// out\n        /* \"#utility.yul\":7741:7831   */\n    tag_212:\n        /* \"#utility.yul\":7775:7782   */\n      0x00\n        /* \"#utility.yul\":7818:7823   */\n      dup2\n        /* \"#utility.yul\":7811:7824   */\n      iszero\n        /* \"#utility.yul\":7804:7825   */\n      iszero\n        /* \"#utility.yul\":7793:7825   */\n      swap1\n      pop\n        /* \"#utility.yul\":7741:7831   */\n      swap2\n      swap1\n      pop\n      jump\t// out\n        /* \"#utility.yul\":7837:7953   */\n    tag_213:\n        /* \"#utility.yul\":7907:7928   */\n      tag_339\n        /* \"#utility.yul\":7922:7927   */\n      dup2\n        /* \"#utility.yul\":7907:7928   */\n      tag_212\n      jump\t// in\n    tag_339:\n        /* \"#utility.yul\":7900:7905   */\n      dup2\n        /* \"#utility.yul\":7897:7929   */\n      eq\n        /* \"#utility.yul\":7887:7947   */\n      tag_340\n      jumpi\n        /* \"#utility.yul\":7943:7944   */\n      0x00\n        /* \"#utility.yul\":7940:7941   */\n      dup1\n        /* \"#utility.yul\":7933:7945   */\n      revert\n        /* \"#utility.yul\":7887:7947   */\n    tag_340:\n        /* \"#utility.yul\":7837:7953   */\n      pop\n      jump\t// out\n        /* \"#utility.yul\":7959:8096   */\n    tag_214:\n        /* \"#utility.yul\":8013:8018   */\n      0x00\n        /* \"#utility.yul\":8044:8050   */\n      dup2\n        /* \"#utility.yul\":8038:8051   */\n      mload\n        /* \"#utility.yul\":8029:8051   */\n      swap1\n      pop\n        /* \"#utility.yul\":8060:8090   */\n      tag_342\n        /* \"#utility.yul\":8084:8089   */\n      dup2\n        /* \"#utility.yul\":8060:8090   */\n      tag_213\n      jump\t// in\n    tag_342:\n        /* \"#utility.yul\":7959:8096   */\n      swap3\n      swap2\n      pop\n      pop\n      jump\t// out\n        /* \"#utility.yul\":8102:8447   */\n    tag_61:\n        /* \"#utility.yul\":8169:8175   */\n      0x00\n        /* \"#utility.yul\":8218:8220   */\n      0x20\n        /* \"#utility.yul\":8206:8215   */\n      dup3\n        /* \"#utility.yul\":8197:8204   */\n      dup5\n        /* \"#utility.yul\":8193:8216   */\n      sub\n        /* \"#utility.yul\":8189:8221   */\n      slt\n        /* \"#utility.yul\":8186:8305   */\n      iszero\n      tag_344\n      jumpi\n        /* \"#utility.yul\":8224:8303   */\n      tag_345\n      tag_185\n      jump\t// in\n    tag_345:\n        /* \"#utility.yul\":8186:8305   */\n    tag_344:\n        /* \"#utility.yul\":8344:8345   */\n      0x00\n        /* \"#utility.yul\":8369:8430   */\n      tag_346\n        /* \"#utility.yul\":8422:8429   */\n      dup5\n        /* \"#utility.yul\":8413:8419   */\n      dup3\n        /* \"#utility.yul\":8402:8411   */\n      dup6\n        /* \"#utility.yul\":8398:8420   */\n      add\n        /* \"#utility.yul\":8369:8430   */\n      tag_214\n      jump\t// in\n    tag_346:\n        /* \"#utility.yul\":8359:8430   */\n      swap2\n      pop\n        /* \"#utility.yul\":8315:8440   */\n      pop\n        /* \"#utility.yul\":8102:8447   */\n      swap3\n      swap2\n      pop\n      pop\n      jump\t// out\n        /* \"#utility.yul\":8453:8627   */\n    tag_215:\n        /* \"#utility.yul\":8593:8619   */\n      0x526571756972656420746f2062652061206d656d656265720000000000000000\n        /* \"#utility.yul\":8589:8590   */\n      0x00\n        /* \"#utility.yul\":8581:8587   */\n      dup3\n        /* \"#utility.yul\":8577:8591   */\n      add\n        /* \"#utility.yul\":8570:8620   */\n      mstore\n        /* \"#utility.yul\":8453:8627   */\n      pop\n      jump\t// out\n        /* \"#utility.yul\":8633:8999   */\n    tag_216:\n        /* \"#utility.yul\":8775:8778   */\n      0x00\n        /* \"#utility.yul\":8796:8863   */\n      tag_349\n        /* \"#utility.yul\":8860:8862   */\n      0x18\n        /* \"#utility.yul\":8855:8858   */\n      dup4\n        /* \"#utility.yul\":8796:8863   */\n      tag_192\n      jump\t// in\n    tag_349:\n        /* \"#utility.yul\":8789:8863   */\n      swap2\n      pop\n        /* \"#utility.yul\":8872:8965   */\n      tag_350\n        /* \"#utility.yul\":8961:8964   */\n      dup3\n        /* \"#utility.yul\":8872:8965   */\n      tag_215\n      jump\t// in\n    tag_350:\n        /* \"#utility.yul\":8990:8992   */\n      0x20\n        /* \"#utility.yul\":8985:8988   */\n      dup3\n        /* \"#utility.yul\":8981:8993   */\n      add\n        /* \"#utility.yul\":8974:8993   */\n      swap1\n      pop\n        /* \"#utility.yul\":8633:8999   */\n      swap2\n      swap1\n      pop\n      jump\t// out\n        /* \"#utility.yul\":9005:9424   */\n    tag_64:\n        /* \"#utility.yul\":9171:9175   */\n      0x00\n        /* \"#utility.yul\":9209:9211   */\n      0x20\n        /* \"#utility.yul\":9198:9207   */\n      dup3\n        /* \"#utility.yul\":9194:9212   */\n      add\n        /* \"#utility.yul\":9186:9212   */\n      swap1\n      pop\n        /* \"#utility.yul\":9258:9267   */\n      dup2\n        /* \"#utility.yul\":9252:9256   */\n      dup2\n        /* \"#utility.yul\":9248:9268   */\n      sub\n        /* \"#utility.yul\":9244:9245   */\n      0x00\n        /* \"#utility.yul\":9233:9242   */\n      dup4\n        /* \"#utility.yul\":9229:9246   */\n      add\n        /* \"#utility.yul\":9222:9269   */\n      mstore\n        /* \"#utility.yul\":9286:9417   */\n      tag_352\n        /* \"#utility.yul\":9412:9416   */\n      dup2\n        /* \"#utility.yul\":9286:9417   */\n      tag_216\n      jump\t// in\n    tag_352:\n        /* \"#utility.yul\":9278:9417   */\n      swap1\n      pop\n        /* \"#utility.yul\":9005:9424   */\n      swap2\n      swap1\n      pop\n      jump\t// out\n        /* \"#utility.yul\":9430:9610   */\n    tag_217:\n        /* \"#utility.yul\":9478:9555   */\n      0x4e487b7100000000000000000000000000000000000000000000000000000000\n        /* \"#utility.yul\":9475:9476   */\n      0x00\n        /* \"#utility.yul\":9468:9556   */\n      mstore\n        /* \"#utility.yul\":9575:9579   */\n      0x22\n        /* \"#utility.yul\":9572:9573   */\n      0x04\n        /* \"#utility.yul\":9565:9580   */\n      mstore\n        /* \"#utility.yul\":9599:9603   */\n      0x24\n        /* \"#utility.yul\":9596:9597   */\n      0x00\n        /* \"#utility.yul\":9589:9604   */\n      revert\n        /* \"#utility.yul\":9616:9936   */\n    tag_67:\n        /* \"#utility.yul\":9660:9666   */\n      0x00\n        /* \"#utility.yul\":9697:9698   */\n      0x02\n        /* \"#utility.yul\":9691:9695   */\n      dup3\n        /* \"#utility.yul\":9687:9699   */\n      div\n        /* \"#utility.yul\":9677:9699   */\n      swap1\n      pop\n        /* \"#utility.yul\":9744:9745   */\n      0x01\n        /* \"#utility.yul\":9738:9742   */\n      dup3\n        /* \"#utility.yul\":9734:9746   */\n      and\n        /* \"#utility.yul\":9765:9783   */\n      dup1\n        /* \"#utility.yul\":9755:9836   */\n      tag_355\n      jumpi\n        /* \"#utility.yul\":9821:9825   */\n      0x7f\n        /* \"#utility.yul\":9813:9819   */\n      dup3\n        /* \"#utility.yul\":9809:9826   */\n      and\n        /* \"#utility.yul\":9799:9826   */\n      swap2\n      pop\n        /* \"#utility.yul\":9755:9836   */\n    tag_355:\n        /* \"#utility.yul\":9883:9885   */\n      0x20\n        /* \"#utility.yul\":9875:9881   */\n      dup3\n        /* \"#utility.yul\":9872:9886   */\n      lt\n        /* \"#utility.yul\":9852:9870   */\n      dup2\n        /* \"#utility.yul\":9849:9887   */\n      sub\n        /* \"#utility.yul\":9846:9930   */\n      tag_356\n      jumpi\n        /* \"#utility.yul\":9902:9920   */\n      tag_357\n      tag_217\n      jump\t// in\n    tag_357:\n        /* \"#utility.yul\":9846:9930   */\n    tag_356:\n        /* \"#utility.yul\":9667:9936   */\n      pop\n        /* \"#utility.yul\":9616:9936   */\n      swap2\n      swap1\n      pop\n      jump\t// out\n        /* \"#utility.yul\":9942:10105   */\n    tag_218:\n        /* \"#utility.yul\":10082:10097   */\n      0x4163636573732044656e69656400000000000000000000000000000000000000\n        /* \"#utility.yul\":10078:10079   */\n      0x00\n        /* \"#utility.yul\":10070:10076   */\n      dup3\n        /* \"#utility.yul\":10066:10080   */\n      add\n        /* \"#utility.yul\":10059:10098   */\n      mstore\n        /* \"#utility.yul\":9942:10105   */\n      pop\n      jump\t// out\n        /* \"#utility.yul\":10111:10477   */\n    tag_219:\n        /* \"#utility.yul\":10253:10256   */\n      0x00\n        /* \"#utility.yul\":10274:10341   */\n      tag_360\n        /* \"#utility.yul\":10338:10340   */\n      0x0d\n        /* \"#utility.yul\":10333:10336   */\n      dup4\n        /* \"#utility.yul\":10274:10341   */\n      tag_192\n      jump\t// in\n    tag_360:\n        /* \"#utility.yul\":10267:10341   */\n      swap2\n      pop\n        /* \"#utility.yul\":10350:10443   */\n      tag_361\n        /* \"#utility.yul\":10439:10442   */\n      dup3\n        /* \"#utility.yul\":10350:10443   */\n      tag_218\n      jump\t// in\n    tag_361:\n        /* \"#utility.yul\":10468:10470   */\n      0x20\n        /* \"#utility.yul\":10463:10466   */\n      dup3\n        /* \"#utility.yul\":10459:10471   */\n      add\n        /* \"#utility.yul\":10452:10471   */\n      swap1\n      pop\n        /* \"#utility.yul\":10111:10477   */\n      swap2\n      swap1\n      pop\n      jump\t// out\n        /* \"#utility.yul\":10483:10902   */\n    tag_75:\n        /* \"#utility.yul\":10649:10653   */\n      0x00\n        /* \"#utility.yul\":10687:10689   */\n      0x20\n        /* \"#utility.yul\":10676:10685   */\n      dup3\n        /* \"#utility.yul\":10672:10690   */\n      add\n        /* \"#utility.yul\":10664:10690   */\n      swap1\n      pop\n        /* \"#utility.yul\":10736:10745   */\n      dup2\n        /* \"#utility.yul\":10730:10734   */\n      dup2\n        /* \"#utility.yul\":10726:10746   */\n      sub\n        /* \"#utility.yul\":10722:10723   */\n      0x00\n        /* \"#utility.yul\":10711:10720   */\n      dup4\n        /* \"#utility.yul\":10707:10724   */\n      add\n        /* \"#utility.yul\":10700:10747   */\n      mstore\n        /* \"#utility.yul\":10764:10895   */\n      tag_363\n        /* \"#utility.yul\":10890:10894   */\n      dup2\n        /* \"#utility.yul\":10764:10895   */\n      tag_219\n      jump\t// in\n    tag_363:\n        /* \"#utility.yul\":10756:10895   */\n      swap1\n      pop\n        /* \"#utility.yul\":10483:10902   */\n      swap2\n      swap1\n      pop\n      jump\t// out\n        /* \"#utility.yul\":10908:11083   */\n    tag_220:\n        /* \"#utility.yul\":11048:11075   */\n      0x496e76616c6964206170706c6963616e74206164647265737300000000000000\n        /* \"#utility.yul\":11044:11045   */\n      0x00\n        /* \"#utility.yul\":11036:11042   */\n      dup3\n        /* \"#utility.yul\":11032:11046   */\n      add\n        /* \"#utility.yul\":11025:11076   */\n      mstore\n        /* \"#utility.yul\":10908:11083   */\n      pop\n      jump\t// out\n        /* \"#utility.yul\":11089:11455   */\n    tag_221:\n        /* \"#utility.yul\":11231:11234   */\n      0x00\n        /* \"#utility.yul\":11252:11319   */\n      tag_366\n        /* \"#utility.yul\":11316:11318   */\n      0x19\n        /* \"#utility.yul\":11311:11314   */\n      dup4\n        /* \"#utility.yul\":11252:11319   */\n      tag_192\n      jump\t// in\n    tag_366:\n        /* \"#utility.yul\":11245:11319   */\n      swap2\n      pop\n        /* \"#utility.yul\":11328:11421   */\n      tag_367\n        /* \"#utility.yul\":11417:11420   */\n      dup3\n        /* \"#utility.yul\":11328:11421   */\n      tag_220\n      jump\t// in\n    tag_367:\n        /* \"#utility.yul\":11446:11448   */\n      0x20\n        /* \"#utility.yul\":11441:11444   */\n      dup3\n        /* \"#utility.yul\":11437:11449   */\n      add\n        /* \"#utility.yul\":11430:11449   */\n      swap1\n      pop\n        /* \"#utility.yul\":11089:11455   */\n      swap2\n      swap1\n      pop\n      jump\t// out\n        /* \"#utility.yul\":11461:11880   */\n    tag_92:\n        /* \"#utility.yul\":11627:11631   */\n      0x00\n        /* \"#utility.yul\":11665:11667   */\n      0x20\n        /* \"#utility.yul\":11654:11663   */\n      dup3\n        /* \"#utility.yul\":11650:11668   */\n      add\n        /* \"#utility.yul\":11642:11668   */\n      swap1\n      pop\n        /* \"#utility.yul\":11714:11723   */\n      dup2\n        /* \"#utility.yul\":11708:11712   */\n      dup2\n        /* \"#utility.yul\":11704:11724   */\n      sub\n        /* \"#utility.yul\":11700:11701   */\n      0x00\n        /* \"#utility.yul\":11689:11698   */\n      dup4\n        /* \"#utility.yul\":11685:11702   */\n      add\n        /* \"#utility.yul\":11678:11725   */\n      mstore\n        /* \"#utility.yul\":11742:11873   */\n      tag_369\n        /* \"#utility.yul\":11868:11872   */\n      dup2\n        /* \"#utility.yul\":11742:11873   */\n      tag_221\n      jump\t// in\n    tag_369:\n        /* \"#utility.yul\":11734:11873   */\n      swap1\n      pop\n        /* \"#utility.yul\":11461:11880   */\n      swap2\n      swap1\n      pop\n      jump\t// out\n        /* \"#utility.yul\":11886:11962   */\n    tag_222:\n        /* \"#utility.yul\":11922:11929   */\n      0x00\n        /* \"#utility.yul\":11951:11956   */\n      dup2\n        /* \"#utility.yul\":11940:11956   */\n      swap1\n      pop\n        /* \"#utility.yul\":11886:11962   */\n      swap2\n      swap1\n      pop\n      jump\t// out\n        /* \"#utility.yul\":11968:12148   */\n    tag_223:\n        /* \"#utility.yul\":12016:12093   */\n      0x4e487b7100000000000000000000000000000000000000000000000000000000\n        /* \"#utility.yul\":12013:12014   */\n      0x00\n        /* \"#utility.yul\":12006:12094   */\n      mstore\n        /* \"#utility.yul\":12113:12117   */\n      0x11\n        /* \"#utility.yul\":12110:12111   */\n      0x04\n        /* \"#utility.yul\":12103:12118   */\n      mstore\n        /* \"#utility.yul\":12137:12141   */\n      0x24\n        /* \"#utility.yul\":12134:12135   */\n      0x00\n        /* \"#utility.yul\":12127:12142   */\n      revert\n        /* \"#utility.yul\":12154:12526   */\n    tag_94:\n        /* \"#utility.yul\":12193:12197   */\n      0x00\n        /* \"#utility.yul\":12213:12232   */\n      tag_373\n        /* \"#utility.yul\":12230:12231   */\n      dup3\n        /* \"#utility.yul\":12213:12232   */\n      tag_222\n      jump\t// in\n    tag_373:\n        /* \"#utility.yul\":12208:12232   */\n      swap2\n      pop\n        /* \"#utility.yul\":12246:12265   */\n      tag_374\n        /* \"#utility.yul\":12263:12264   */\n      dup4\n        /* \"#utility.yul\":12246:12265   */\n      tag_222\n      jump\t// in\n    tag_374:\n        /* \"#utility.yul\":12241:12265   */\n      swap3\n      pop\n        /* \"#utility.yul\":12289:12290   */\n      dup3\n        /* \"#utility.yul\":12286:12287   */\n      dup3\n        /* \"#utility.yul\":12282:12291   */\n      sub\n        /* \"#utility.yul\":12274:12291   */\n      swap1\n      pop\n        /* \"#utility.yul\":12483:12484   */\n      dup2\n        /* \"#utility.yul\":12477:12481   */\n      dup2\n        /* \"#utility.yul\":12473:12485   */\n      slt\n        /* \"#utility.yul\":12469:12470   */\n      0x00\n        /* \"#utility.yul\":12466:12467   */\n      dup5\n        /* \"#utility.yul\":12462:12471   */\n      slt\n        /* \"#utility.yul\":12458:12486   */\n      and\n        /* \"#utility.yul\":12441:12442   */\n      dup3\n        /* \"#utility.yul\":12435:12439   */\n      dup3\n        /* \"#utility.yul\":12431:12443   */\n      sgt\n        /* \"#utility.yul\":12426:12427   */\n      0x00\n        /* \"#utility.yul\":12423:12424   */\n      dup6\n        /* \"#utility.yul\":12419:12428   */\n      slt\n        /* \"#utility.yul\":12412:12429   */\n      iszero\n        /* \"#utility.yul\":12408:12444   */\n      and\n        /* \"#utility.yul\":12392:12496   */\n      or\n        /* \"#utility.yul\":12389:12519   */\n      iszero\n      tag_375\n      jumpi\n        /* \"#utility.yul\":12499:12517   */\n      tag_376\n      tag_223\n      jump\t// in\n    tag_376:\n        /* \"#utility.yul\":12389:12519   */\n    tag_375:\n        /* \"#utility.yul\":12154:12526   */\n      swap3\n      swap2\n      pop\n      pop\n      jump\t// out\n        /* \"#utility.yul\":12532:12697   */\n    tag_224:\n        /* \"#utility.yul\":12672:12689   */\n      0x4e6f742061206170706c6963616e740000000000000000000000000000000000\n        /* \"#utility.yul\":12668:12669   */\n      0x00\n        /* \"#utility.yul\":12660:12666   */\n      dup3\n        /* \"#utility.yul\":12656:12670   */\n      add\n        /* \"#utility.yul\":12649:12690   */\n      mstore\n        /* \"#utility.yul\":12532:12697   */\n      pop\n      jump\t// out\n        /* \"#utility.yul\":12703:13069   */\n    tag_225:\n        /* \"#utility.yul\":12845:12848   */\n      0x00\n        /* \"#utility.yul\":12866:12933   */\n      tag_379\n        /* \"#utility.yul\":12930:12932   */\n      0x0f\n        /* \"#utility.yul\":12925:12928   */\n      dup4\n        /* \"#utility.yul\":12866:12933   */\n      tag_192\n      jump\t// in\n    tag_379:\n        /* \"#utility.yul\":12859:12933   */\n      swap2\n      pop\n        /* \"#utility.yul\":12942:13035   */\n      tag_380\n        /* \"#utility.yul\":13031:13034   */\n      dup3\n        /* \"#utility.yul\":12942:13035   */\n      tag_224\n      jump\t// in\n    tag_380:\n        /* \"#utility.yul\":13060:13062   */\n      0x20\n        /* \"#utility.yul\":13055:13058   */\n      dup3\n        /* \"#utility.yul\":13051:13063   */\n      add\n        /* \"#utility.yul\":13044:13063   */\n      swap1\n      pop\n        /* \"#utility.yul\":12703:13069   */\n      swap2\n      swap1\n      pop\n      jump\t// out\n        /* \"#utility.yul\":13075:13494   */\n    tag_107:\n        /* \"#utility.yul\":13241:13245   */\n      0x00\n        /* \"#utility.yul\":13279:13281   */\n      0x20\n        /* \"#utility.yul\":13268:13277   */\n      dup3\n        /* \"#utility.yul\":13264:13282   */\n      add\n        /* \"#utility.yul\":13256:13282   */\n      swap1\n      pop\n        /* \"#utility.yul\":13328:13337   */\n      dup2\n        /* \"#utility.yul\":13322:13326   */\n      dup2\n        /* \"#utility.yul\":13318:13338   */\n      sub\n        /* \"#utility.yul\":13314:13315   */\n      0x00\n        /* \"#utility.yul\":13303:13312   */\n      dup4\n        /* \"#utility.yul\":13299:13316   */\n      add\n        /* \"#utility.yul\":13292:13339   */\n      mstore\n        /* \"#utility.yul\":13356:13487   */\n      tag_382\n        /* \"#utility.yul\":13482:13486   */\n      dup2\n        /* \"#utility.yul\":13356:13487   */\n      tag_225\n      jump\t// in\n    tag_382:\n        /* \"#utility.yul\":13348:13487   */\n      swap1\n      pop\n        /* \"#utility.yul\":13075:13494   */\n      swap2\n      swap1\n      pop\n      jump\t// out\n        /* \"#utility.yul\":13500:13680   */\n    tag_113:\n        /* \"#utility.yul\":13548:13625   */\n      0x4e487b7100000000000000000000000000000000000000000000000000000000\n        /* \"#utility.yul\":13545:13546   */\n      0x00\n        /* \"#utility.yul\":13538:13626   */\n      mstore\n        /* \"#utility.yul\":13645:13649   */\n      0x32\n        /* \"#utility.yul\":13642:13643   */\n      0x04\n        /* \"#utility.yul\":13635:13650   */\n      mstore\n        /* \"#utility.yul\":13669:13673   */\n      0x24\n        /* \"#utility.yul\":13666:13667   */\n      0x00\n        /* \"#utility.yul\":13659:13674   */\n      revert\n        /* \"#utility.yul\":13686:13919   */\n    tag_117:\n        /* \"#utility.yul\":13725:13728   */\n      0x00\n        /* \"#utility.yul\":13748:13772   */\n      tag_385\n        /* \"#utility.yul\":13766:13771   */\n      dup3\n        /* \"#utility.yul\":13748:13772   */\n      tag_203\n      jump\t// in\n    tag_385:\n        /* \"#utility.yul\":13739:13772   */\n      swap2\n      pop\n        /* \"#utility.yul\":13794:13860   */\n      0xffffffffffffffffffffffffffffffffffffffffffffffffffffffffffffffff\n        /* \"#utility.yul\":13787:13792   */\n      dup3\n        /* \"#utility.yul\":13784:13861   */\n      sub\n        /* \"#utility.yul\":13781:13884   */\n      tag_386\n      jumpi\n        /* \"#utility.yul\":13864:13882   */\n      tag_387\n      tag_223\n      jump\t// in\n    tag_387:\n        /* \"#utility.yul\":13781:13884   */\n    tag_386:\n        /* \"#utility.yul\":13911:13912   */\n      0x01\n        /* \"#utility.yul\":13904:13909   */\n      dup3\n        /* \"#utility.yul\":13900:13913   */\n      add\n        /* \"#utility.yul\":13893:13913   */\n      swap1\n      pop\n        /* \"#utility.yul\":13686:13919   */\n      swap2\n      swap1\n      pop\n      jump\t// out\n        /* \"#utility.yul\":13925:14095   */\n    tag_226:\n        /* \"#utility.yul\":14065:14087   */\n      0x53656e64657220616c726561647920766f746564000000000000000000000000\n        /* \"#utility.yul\":14061:14062   */\n      0x00\n        /* \"#utility.yul\":14053:14059   */\n      dup3\n        /* \"#utility.yul\":14049:14063   */\n      add\n        /* \"#utility.yul\":14042:14088   */\n      mstore\n        /* \"#utility.yul\":13925:14095   */\n      pop\n      jump\t// out\n        /* \"#utility.yul\":14101:14467   */\n    tag_227:\n        /* \"#utility.yul\":14243:14246   */\n      0x00\n        /* \"#utility.yul\":14264:14331   */\n      tag_390\n        /* \"#utility.yul\":14328:14330   */\n      0x14\n        /* \"#utility.yul\":14323:14326   */\n      dup4\n        /* \"#utility.yul\":14264:14331   */\n      tag_192\n      jump\t// in\n    tag_390:\n        /* \"#utility.yul\":14257:14331   */\n      swap2\n      pop\n        /* \"#utility.yul\":14340:14433   */\n      tag_391\n        /* \"#utility.yul\":14429:14432   */\n      dup3\n        /* \"#utility.yul\":14340:14433   */\n      tag_226\n      jump\t// in\n    tag_391:\n        /* \"#utility.yul\":14458:14460   */\n      0x20\n        /* \"#utility.yul\":14453:14456   */\n      dup3\n        /* \"#utility.yul\":14449:14461   */\n      add\n        /* \"#utility.yul\":14442:14461   */\n      swap1\n      pop\n        /* \"#utility.yul\":14101:14467   */\n      swap2\n      swap1\n      pop\n      jump\t// out\n        /* \"#utility.yul\":14473:14892   */\n    tag_120:\n        /* \"#utility.yul\":14639:14643   */\n      0x00\n        /* \"#utility.yul\":14677:14679   */\n      0x20\n        /* \"#utility.yul\":14666:14675   */\n      dup3\n        /* \"#utility.yul\":14662:14680   */\n      add\n        /* \"#utility.yul\":14654:14680   */\n      swap1\n      pop\n        /* \"#utility.yul\":14726:14735   */\n      dup2\n        /* \"#utility.yul\":14720:14724   */\n      dup2\n        /* \"#utility.yul\":14716:14736   */\n      sub\n        /* \"#utility.yul\":14712:14713   */\n      0x00\n        /* \"#utility.yul\":14701:14710   */\n      dup4\n        /* \"#utility.yul\":14697:14714   */\n      add\n        /* \"#utility.yul\":14690:14737   */\n      mstore\n        /* \"#utility.yul\":14754:14885   */\n      tag_393\n        /* \"#utility.yul\":14880:14884   */\n      dup2\n        /* \"#utility.yul\":14754:14885   */\n      tag_227\n      jump\t// in\n    tag_393:\n        /* \"#utility.yul\":14746:14885   */\n      swap1\n      pop\n        /* \"#utility.yul\":14473:14892   */\n      swap2\n      swap1\n      pop\n      jump\t// out\n        /* \"#utility.yul\":14898:15273   */\n    tag_123:\n        /* \"#utility.yul\":14937:14940   */\n      0x00\n        /* \"#utility.yul\":14956:14975   */\n      tag_395\n        /* \"#utility.yul\":14973:14974   */\n      dup3\n        /* \"#utility.yul\":14956:14975   */\n      tag_222\n      jump\t// in\n    tag_395:\n        /* \"#utility.yul\":14951:14975   */\n      swap2\n      pop\n        /* \"#utility.yul\":14989:15008   */\n      tag_396\n        /* \"#utility.yul\":15006:15007   */\n      dup4\n        /* \"#utility.yul\":14989:15008   */\n      tag_222\n      jump\t// in\n    tag_396:\n        /* \"#utility.yul\":14984:15008   */\n      swap3\n      pop\n        /* \"#utility.yul\":15031:15032   */\n      dup3\n        /* \"#utility.yul\":15028:15029   */\n      dup3\n        /* \"#utility.yul\":15024:15033   */\n      add\n        /* \"#utility.yul\":15017:15033   */\n      swap1\n      pop\n        /* \"#utility.yul\":15229:15230   */\n      dup3\n        /* \"#utility.yul\":15224:15227   */\n      dup2\n        /* \"#utility.yul\":15220:15231   */\n      slt\n        /* \"#utility.yul\":15213:15232   */\n      iszero\n        /* \"#utility.yul\":15209:15210   */\n      0x00\n        /* \"#utility.yul\":15206:15207   */\n      dup4\n        /* \"#utility.yul\":15202:15211   */\n      slt\n        /* \"#utility.yul\":15198:15233   */\n      and\n        /* \"#utility.yul\":15181:15182   */\n      dup4\n        /* \"#utility.yul\":15176:15179   */\n      dup3\n        /* \"#utility.yul\":15172:15183   */\n      slt\n        /* \"#utility.yul\":15167:15168   */\n      0x00\n        /* \"#utility.yul\":15164:15165   */\n      dup5\n        /* \"#utility.yul\":15160:15169   */\n      slt\n        /* \"#utility.yul\":15153:15170   */\n      iszero\n        /* \"#utility.yul\":15149:15184   */\n      and\n        /* \"#utility.yul\":15133:15243   */\n      or\n        /* \"#utility.yul\":15130:15266   */\n      iszero\n      tag_397\n      jumpi\n        /* \"#utility.yul\":15246:15264   */\n      tag_398\n      tag_223\n      jump\t// in\n    tag_398:\n        /* \"#utility.yul\":15130:15266   */\n    tag_397:\n        /* \"#utility.yul\":14898:15273   */\n      swap3\n      swap2\n      pop\n      pop\n      jump\t// out\n        /* \"#utility.yul\":15279:15450   */\n    tag_228:\n        /* \"#utility.yul\":15419:15442   */\n      0x416c726561647920616374697665206d656d6265720000000000000000000000\n        /* \"#utility.yul\":15415:15416   */\n      0x00\n        /* \"#utility.yul\":15407:15413   */\n      dup3\n        /* \"#utility.yul\":15403:15417   */\n      add\n        /* \"#utility.yul\":15396:15443   */\n      mstore\n        /* \"#utility.yul\":15279:15450   */\n      pop\n      jump\t// out\n        /* \"#utility.yul\":15456:15822   */\n    tag_229:\n        /* \"#utility.yul\":15598:15601   */\n      0x00\n        /* \"#utility.yul\":15619:15686   */\n      tag_401\n        /* \"#utility.yul\":15683:15685   */\n      0x15\n        /* \"#utility.yul\":15678:15681   */\n      dup4\n        /* \"#utility.yul\":15619:15686   */\n      tag_192\n      jump\t// in\n    tag_401:\n        /* \"#utility.yul\":15612:15686   */\n      swap2\n      pop\n        /* \"#utility.yul\":15695:15788   */\n      tag_402\n        /* \"#utility.yul\":15784:15787   */\n      dup3\n        /* \"#utility.yul\":15695:15788   */\n      tag_228\n      jump\t// in\n    tag_402:\n        /* \"#utility.yul\":15813:15815   */\n      0x20\n        /* \"#utility.yul\":15808:15811   */\n      dup3\n        /* \"#utility.yul\":15804:15816   */\n      add\n        /* \"#utility.yul\":15797:15816   */\n      swap1\n      pop\n        /* \"#utility.yul\":15456:15822   */\n      swap2\n      swap1\n      pop\n      jump\t// out\n        /* \"#utility.yul\":15828:16247   */\n    tag_146:\n        /* \"#utility.yul\":15994:15998   */\n      0x00\n        /* \"#utility.yul\":16032:16034   */\n      0x20\n        /* \"#utility.yul\":16021:16030   */\n      dup3\n        /* \"#utility.yul\":16017:16035   */\n      add\n        /* \"#utility.yul\":16009:16035   */\n      swap1\n      pop\n        /* \"#utility.yul\":16081:16090   */\n      dup2\n        /* \"#utility.yul\":16075:16079   */\n      dup2\n        /* \"#utility.yul\":16071:16091   */\n      sub\n        /* \"#utility.yul\":16067:16068   */\n      0x00\n        /* \"#utility.yul\":16056:16065   */\n      dup4\n        /* \"#utility.yul\":16052:16069   */\n      add\n        /* \"#utility.yul\":16045:16092   */\n      mstore\n        /* \"#utility.yul\":16109:16240   */\n      tag_404\n        /* \"#utility.yul\":16235:16239   */\n      dup2\n        /* \"#utility.yul\":16109:16240   */\n      tag_229\n      jump\t// in\n    tag_404:\n        /* \"#utility.yul\":16101:16240   */\n      swap1\n      pop\n        /* \"#utility.yul\":15828:16247   */\n      swap2\n      swap1\n      pop\n      jump\t// out\n        /* \"#utility.yul\":16253:16427   */\n    tag_230:\n        /* \"#utility.yul\":16393:16419   */\n      0x416c726561647920616374697665206170706c6963616e740000000000000000\n        /* \"#utility.yul\":16389:16390   */\n      0x00\n        /* \"#utility.yul\":16381:16387   */\n      dup3\n        /* \"#utility.yul\":16377:16391   */\n      add\n        /* \"#utility.yul\":16370:16420   */\n      mstore\n        /* \"#utility.yul\":16253:16427   */\n      pop\n      jump\t// out\n        /* \"#utility.yul\":16433:16799   */\n    tag_231:\n        /* \"#utility.yul\":16575:16578   */\n      0x00\n        /* \"#utility.yul\":16596:16663   */\n      tag_407\n        /* \"#utility.yul\":16660:16662   */\n      0x18\n        /* \"#utility.yul\":16655:16658   */\n      dup4\n        /* \"#utility.yul\":16596:16663   */\n      tag_192\n      jump\t// in\n    tag_407:\n        /* \"#utility.yul\":16589:16663   */\n      swap2\n      pop\n        /* \"#utility.yul\":16672:16765   */\n      tag_408\n        /* \"#utility.yul\":16761:16764   */\n      dup3\n        /* \"#utility.yul\":16672:16765   */\n      tag_230\n      jump\t// in\n    tag_408:\n        /* \"#utility.yul\":16790:16792   */\n      0x20\n        /* \"#utility.yul\":16785:16788   */\n      dup3\n        /* \"#utility.yul\":16781:16793   */\n      add\n        /* \"#utility.yul\":16774:16793   */\n      swap1\n      pop\n        /* \"#utility.yul\":16433:16799   */\n      swap2\n      swap1\n      pop\n      jump\t// out\n        /* \"#utility.yul\":16805:17224   */\n    tag_149:\n        /* \"#utility.yul\":16971:16975   */\n      0x00\n        /* \"#utility.yul\":17009:17011   */\n      0x20\n        /* \"#utility.yul\":16998:17007   */\n      dup3\n        /* \"#utility.yul\":16994:17012   */\n      add\n        /* \"#utility.yul\":16986:17012   */\n      swap1\n      pop\n        /* \"#utility.yul\":17058:17067   */\n      dup2\n        /* \"#utility.yul\":17052:17056   */\n      dup2\n        /* \"#utility.yul\":17048:17068   */\n      sub\n        /* \"#utility.yul\":17044:17045   */\n      0x00\n        /* \"#utility.yul\":17033:17042   */\n      dup4\n        /* \"#utility.yul\":17029:17046   */\n      add\n        /* \"#utility.yul\":17022:17069   */\n      mstore\n        /* \"#utility.yul\":17086:17217   */\n      tag_410\n        /* \"#utility.yul\":17212:17216   */\n      dup2\n        /* \"#utility.yul\":17086:17217   */\n      tag_231\n      jump\t// in\n    tag_410:\n        /* \"#utility.yul\":17078:17217   */\n      swap1\n      pop\n        /* \"#utility.yul\":16805:17224   */\n      swap2\n      swap1\n      pop\n      jump\t// out\n        /* \"#utility.yul\":17230:17396   */\n    tag_232:\n        /* \"#utility.yul\":17370:17388   */\n      0x6163636f756e742072656a656374656400000000000000000000000000000000\n        /* \"#utility.yul\":17366:17367   */\n      0x00\n        /* \"#utility.yul\":17358:17364   */\n      dup3\n        /* \"#utility.yul\":17354:17368   */\n      add\n        /* \"#utility.yul\":17347:17389   */\n      mstore\n        /* \"#utility.yul\":17230:17396   */\n      pop\n      jump\t// out\n        /* \"#utility.yul\":17402:17768   */\n    tag_233:\n        /* \"#utility.yul\":17544:17547   */\n      0x00\n        /* \"#utility.yul\":17565:17632   */\n      tag_413\n        /* \"#utility.yul\":17629:17631   */\n      0x10\n        /* \"#utility.yul\":17624:17627   */\n      dup4\n        /* \"#utility.yul\":17565:17632   */\n      tag_192\n      jump\t// in\n    tag_413:\n        /* \"#utility.yul\":17558:17632   */\n      swap2\n      pop\n        /* \"#utility.yul\":17641:17734   */\n      tag_414\n        /* \"#utility.yul\":17730:17733   */\n      dup3\n        /* \"#utility.yul\":17641:17734   */\n      tag_232\n      jump\t// in\n    tag_414:\n        /* \"#utility.yul\":17759:17761   */\n      0x20\n        /* \"#utility.yul\":17754:17757   */\n      dup3\n        /* \"#utility.yul\":17750:17762   */\n      add\n        /* \"#utility.yul\":17743:17762   */\n      swap1\n      pop\n        /* \"#utility.yul\":17402:17768   */\n      swap2\n      swap1\n      pop\n      jump\t// out\n        /* \"#utility.yul\":17774:18193   */\n    tag_152:\n        /* \"#utility.yul\":17940:17944   */\n      0x00\n        /* \"#utility.yul\":17978:17980   */\n      0x20\n        /* \"#utility.yul\":17967:17976   */\n      dup3\n        /* \"#utility.yul\":17963:17981   */\n      add\n        /* \"#utility.yul\":17955:17981   */\n      swap1\n      pop\n        /* \"#utility.yul\":18027:18036   */\n      dup2\n        /* \"#utility.yul\":18021:18025   */\n      dup2\n        /* \"#utility.yul\":18017:18037   */\n      sub\n        /* \"#utility.yul\":18013:18014   */\n      0x00\n        /* \"#utility.yul\":18002:18011   */\n      dup4\n        /* \"#utility.yul\":17998:18015   */\n      add\n        /* \"#utility.yul\":17991:18038   */\n      mstore\n        /* \"#utility.yul\":18055:18186   */\n      tag_416\n        /* \"#utility.yul\":18181:18185   */\n      dup2\n        /* \"#utility.yul\":18055:18186   */\n      tag_233\n      jump\t// in\n    tag_416:\n        /* \"#utility.yul\":18047:18186   */\n      swap1\n      pop\n        /* \"#utility.yul\":17774:18193   */\n      swap2\n      swap1\n      pop\n      jump\t// out\n        /* \"#utility.yul\":18199:18296   */\n    tag_234:\n        /* \"#utility.yul\":18258:18264   */\n      0x00\n        /* \"#utility.yul\":18286:18289   */\n      dup3\n        /* \"#utility.yul\":18276:18289   */\n      swap1\n      pop\n        /* \"#utility.yul\":18199:18296   */\n      swap3\n      swap2\n      pop\n      pop\n      jump\t// out\n        /* \"#utility.yul\":18302:18482   */\n    tag_235:\n        /* \"#utility.yul\":18350:18427   */\n      0x4e487b7100000000000000000000000000000000000000000000000000000000\n        /* \"#utility.yul\":18347:18348   */\n      0x00\n        /* \"#utility.yul\":18340:18428   */\n      mstore\n        /* \"#utility.yul\":18447:18451   */\n      0x41\n        /* \"#utility.yul\":18444:18445   */\n      0x04\n        /* \"#utility.yul\":18437:18452   */\n      mstore\n        /* \"#utility.yul\":18471:18475   */\n      0x24\n        /* \"#utility.yul\":18468:18469   */\n      0x00\n        /* \"#utility.yul\":18461:18476   */\n      revert\n        /* \"#utility.yul\":18488:18629   */\n    tag_236:\n        /* \"#utility.yul\":18537:18541   */\n      0x00\n        /* \"#utility.yul\":18560:18563   */\n      dup2\n        /* \"#utility.yul\":18552:18563   */\n      swap1\n      pop\n        /* \"#utility.yul\":18583:18586   */\n      dup2\n        /* \"#utility.yul\":18580:18581   */\n      0x00\n        /* \"#utility.yul\":18573:18587   */\n      mstore\n        /* \"#utility.yul\":18617:18621   */\n      0x20\n        /* \"#utility.yul\":18614:18615   */\n      0x00\n        /* \"#utility.yul\":18604:18622   */\n      keccak256\n        /* \"#utility.yul\":18596:18622   */\n      swap1\n      pop\n        /* \"#utility.yul\":18488:18629   */\n      swap2\n      swap1\n      pop\n      jump\t// out\n        /* \"#utility.yul\":18635:18728   */\n    tag_237:\n        /* \"#utility.yul\":18672:18678   */\n      0x00\n        /* \"#utility.yul\":18719:18721   */\n      0x20\n        /* \"#utility.yul\":18714:18716   */\n      0x1f\n        /* \"#utility.yul\":18707:18712   */\n      dup4\n        /* \"#utility.yul\":18703:18717   */\n      add\n        /* \"#utility.yul\":18699:18722   */\n      div\n        /* \"#utility.yul\":18689:18722   */\n      swap1\n      pop\n        /* \"#utility.yul\":18635:18728   */\n      swap2\n      swap1\n      pop\n      jump\t// out\n        /* \"#utility.yul\":18734:18841   */\n    tag_238:\n        /* \"#utility.yul\":18778:18786   */\n      0x00\n        /* \"#utility.yul\":18828:18833   */\n      dup3\n        /* \"#utility.yul\":18822:18826   */\n      dup3\n        /* \"#utility.yul\":18818:18834   */\n      shl\n        /* \"#utility.yul\":18797:18834   */\n      swap1\n      pop\n        /* \"#utility.yul\":18734:18841   */\n      swap3\n      swap2\n      pop\n      pop\n      jump\t// out\n        /* \"#utility.yul\":18847:19240   */\n    tag_239:\n        /* \"#utility.yul\":18916:18922   */\n      0x00\n        /* \"#utility.yul\":18966:18967   */\n      0x08\n        /* \"#utility.yul\":18954:18964   */\n      dup4\n        /* \"#utility.yul\":18950:18968   */\n      mul\n        /* \"#utility.yul\":18989:19086   */\n      tag_423\n        /* \"#utility.yul\":19019:19085   */\n      0xffffffffffffffffffffffffffffffffffffffffffffffffffffffffffffffff\n        /* \"#utility.yul\":19008:19017   */\n      dup3\n        /* \"#utility.yul\":18989:19086   */\n      tag_238\n      jump\t// in\n    tag_423:\n        /* \"#utility.yul\":19107:19146   */\n      tag_424\n        /* \"#utility.yul\":19137:19145   */\n      dup7\n        /* \"#utility.yul\":19126:19135   */\n      dup4\n        /* \"#utility.yul\":19107:19146   */\n      tag_238\n      jump\t// in\n    tag_424:\n        /* \"#utility.yul\":19095:19146   */\n      swap6\n      pop\n        /* \"#utility.yul\":19179:19183   */\n      dup1\n        /* \"#utility.yul\":19175:19184   */\n      not\n        /* \"#utility.yul\":19168:19173   */\n      dup5\n        /* \"#utility.yul\":19164:19185   */\n      and\n        /* \"#utility.yul\":19155:19185   */\n      swap4\n      pop\n        /* \"#utility.yul\":19228:19232   */\n      dup1\n        /* \"#utility.yul\":19218:19226   */\n      dup7\n        /* \"#utility.yul\":19214:19233   */\n      and\n        /* \"#utility.yul\":19207:19212   */\n      dup5\n        /* \"#utility.yul\":19204:19234   */\n      or\n        /* \"#utility.yul\":19194:19234   */\n      swap3\n      pop\n        /* \"#utility.yul\":18923:19240   */\n      pop\n      pop\n        /* \"#utility.yul\":18847:19240   */\n      swap4\n      swap3\n      pop\n      pop\n      pop\n      jump\t// out\n        /* \"#utility.yul\":19246:19306   */\n    tag_240:\n        /* \"#utility.yul\":19274:19277   */\n      0x00\n        /* \"#utility.yul\":19295:19300   */\n      dup2\n        /* \"#utility.yul\":19288:19300   */\n      swap1\n      pop\n        /* \"#utility.yul\":19246:19306   */\n      swap2\n      swap1\n      pop\n      jump\t// out\n        /* \"#utility.yul\":19312:19454   */\n    tag_241:\n        /* \"#utility.yul\":19362:19371   */\n      0x00\n        /* \"#utility.yul\":19395:19448   */\n      tag_427\n        /* \"#utility.yul\":19413:19447   */\n      tag_428\n        /* \"#utility.yul\":19422:19446   */\n      tag_429\n        /* \"#utility.yul\":19440:19445   */\n      dup5\n        /* \"#utility.yul\":19422:19446   */\n      tag_203\n      jump\t// in\n    tag_429:\n        /* \"#utility.yul\":19413:19447   */\n      tag_240\n      jump\t// in\n    tag_428:\n        /* \"#utility.yul\":19395:19448   */\n      tag_203\n      jump\t// in\n    tag_427:\n        /* \"#utility.yul\":19382:19448   */\n      swap1\n      pop\n        /* \"#utility.yul\":19312:19454   */\n      swap2\n      swap1\n      pop\n      jump\t// out\n        /* \"#utility.yul\":19460:19535   */\n    tag_242:\n        /* \"#utility.yul\":19503:19506   */\n      0x00\n        /* \"#utility.yul\":19524:19529   */\n      dup2\n        /* \"#utility.yul\":19517:19529   */\n      swap1\n      pop\n        /* \"#utility.yul\":19460:19535   */\n      swap2\n      swap1\n      pop\n      jump\t// out\n        /* \"#utility.yul\":19541:19810   */\n    tag_243:\n        /* \"#utility.yul\":19651:19690   */\n      tag_432\n        /* \"#utility.yul\":19682:19689   */\n      dup4\n        /* \"#utility.yul\":19651:19690   */\n      tag_241\n      jump\t// in\n    tag_432:\n        /* \"#utility.yul\":19712:19803   */\n      tag_433\n        /* \"#utility.yul\":19761:19802   */\n      tag_434\n        /* \"#utility.yul\":19785:19801   */\n      dup3\n        /* \"#utility.yul\":19761:19802   */\n      tag_242\n      jump\t// in\n    tag_434:\n        /* \"#utility.yul\":19753:19759   */\n      dup5\n        /* \"#utility.yul\":19746:19750   */\n      dup5\n        /* \"#utility.yul\":19740:19751   */\n      sload\n        /* \"#utility.yul\":19712:19803   */\n      tag_239\n      jump\t// in\n    tag_433:\n        /* \"#utility.yul\":19706:19710   */\n      dup3\n        /* \"#utility.yul\":19699:19804   */\n      sstore\n        /* \"#utility.yul\":19617:19810   */\n      pop\n        /* \"#utility.yul\":19541:19810   */\n      pop\n      pop\n      pop\n      jump\t// out\n        /* \"#utility.yul\":19816:19889   */\n    tag_244:\n        /* \"#utility.yul\":19861:19864   */\n      0x00\n        /* \"#utility.yul\":19816:19889   */\n      swap1\n      jump\t// out\n        /* \"#utility.yul\":19895:20084   */\n    tag_245:\n        /* \"#utility.yul\":19972:20004   */\n      tag_437\n      tag_244\n      jump\t// in\n    tag_437:\n        /* \"#utility.yul\":20013:20078   */\n      tag_438\n        /* \"#utility.yul\":20071:20077   */\n      dup2\n        /* \"#utility.yul\":20063:20069   */\n      dup5\n        /* \"#utility.yul\":20057:20061   */\n      dup5\n        /* \"#utility.yul\":20013:20078   */\n      tag_243\n      jump\t// in\n    tag_438:\n        /* \"#utility.yul\":19948:20084   */\n      pop\n        /* \"#utility.yul\":19895:20084   */\n      pop\n      pop\n      jump\t// out\n        /* \"#utility.yul\":20090:20276   */\n    tag_246:\n        /* \"#utility.yul\":20150:20270   */\n    tag_440:\n        /* \"#utility.yul\":20167:20170   */\n      dup2\n        /* \"#utility.yul\":20160:20165   */\n      dup2\n        /* \"#utility.yul\":20157:20171   */\n      lt\n        /* \"#utility.yul\":20150:20270   */\n      iszero\n      tag_442\n      jumpi\n        /* \"#utility.yul\":20221:20260   */\n      tag_443\n        /* \"#utility.yul\":20258:20259   */\n      0x00\n        /* \"#utility.yul\":20251:20256   */\n      dup3\n        /* \"#utility.yul\":20221:20260   */\n      tag_245\n      jump\t// in\n    tag_443:\n        /* \"#utility.yul\":20194:20195   */\n      0x01\n        /* \"#utility.yul\":20187:20192   */\n      dup2\n        /* \"#utility.yul\":20183:20196   */\n      add\n        /* \"#utility.yul\":20174:20196   */\n      swap1\n      pop\n        /* \"#utility.yul\":20150:20270   */\n      jump(tag_440)\n    tag_442:\n        /* \"#utility.yul\":20090:20276   */\n      pop\n      pop\n      jump\t// out\n        /* \"#utility.yul\":20282:20825   */\n    tag_247:\n        /* \"#utility.yul\":20383:20385   */\n      0x1f\n        /* \"#utility.yul\":20378:20381   */\n      dup3\n        /* \"#utility.yul\":20375:20386   */\n      gt\n        /* \"#utility.yul\":20372:20818   */\n      iszero\n      tag_445\n      jumpi\n        /* \"#utility.yul\":20417:20455   */\n      tag_446\n        /* \"#utility.yul\":20449:20454   */\n      dup2\n        /* \"#utility.yul\":20417:20455   */\n      tag_236\n      jump\t// in\n    tag_446:\n        /* \"#utility.yul\":20501:20530   */\n      tag_447\n        /* \"#utility.yul\":20519:20529   */\n      dup5\n        /* \"#utility.yul\":20501:20530   */\n      tag_237\n      jump\t// in\n    tag_447:\n        /* \"#utility.yul\":20491:20499   */\n      dup2\n        /* \"#utility.yul\":20487:20531   */\n      add\n        /* \"#utility.yul\":20684:20686   */\n      0x20\n        /* \"#utility.yul\":20672:20682   */\n      dup6\n        /* \"#utility.yul\":20669:20687   */\n      lt\n        /* \"#utility.yul\":20666:20715   */\n      iszero\n      tag_448\n      jumpi\n        /* \"#utility.yul\":20705:20713   */\n      dup2\n        /* \"#utility.yul\":20690:20713   */\n      swap1\n      pop\n        /* \"#utility.yul\":20666:20715   */\n    tag_448:\n        /* \"#utility.yul\":20728:20808   */\n      tag_449\n        /* \"#utility.yul\":20784:20806   */\n      tag_450\n        /* \"#utility.yul\":20802:20805   */\n      dup6\n        /* \"#utility.yul\":20784:20806   */\n      tag_237\n      jump\t// in\n    tag_450:\n        /* \"#utility.yul\":20774:20782   */\n      dup4\n        /* \"#utility.yul\":20770:20807   */\n      add\n        /* \"#utility.yul\":20757:20768   */\n      dup3\n        /* \"#utility.yul\":20728:20808   */\n      tag_246\n      jump\t// in\n    tag_449:\n        /* \"#utility.yul\":20387:20818   */\n      pop\n      pop\n        /* \"#utility.yul\":20372:20818   */\n    tag_445:\n        /* \"#utility.yul\":20282:20825   */\n      pop\n      pop\n      pop\n      jump\t// out\n        /* \"#utility.yul\":20831:20948   */\n    tag_248:\n        /* \"#utility.yul\":20885:20893   */\n      0x00\n        /* \"#utility.yul\":20935:20940   */\n      dup3\n        /* \"#utility.yul\":20929:20933   */\n      dup3\n        /* \"#utility.yul\":20925:20941   */\n      shr\n        /* \"#utility.yul\":20904:20941   */\n      swap1\n      pop\n        /* \"#utility.yul\":20831:20948   */\n      swap3\n      swap2\n      pop\n      pop\n      jump\t// out\n        /* \"#utility.yul\":20954:21123   */\n    tag_249:\n        /* \"#utility.yul\":20998:21004   */\n      0x00\n        /* \"#utility.yul\":21031:21082   */\n      tag_453\n        /* \"#utility.yul\":21079:21080   */\n      0x00\n        /* \"#utility.yul\":21075:21081   */\n      not\n        /* \"#utility.yul\":21067:21072   */\n      dup5\n        /* \"#utility.yul\":21064:21065   */\n      0x08\n        /* \"#utility.yul\":21060:21073   */\n      mul\n        /* \"#utility.yul\":21031:21082   */\n      tag_248\n      jump\t// in\n    tag_453:\n        /* \"#utility.yul\":21027:21083   */\n      not\n        /* \"#utility.yul\":21112:21116   */\n      dup1\n        /* \"#utility.yul\":21106:21110   */\n      dup4\n        /* \"#utility.yul\":21102:21117   */\n      and\n        /* \"#utility.yul\":21092:21117   */\n      swap2\n      pop\n        /* \"#utility.yul\":21005:21123   */\n      pop\n        /* \"#utility.yul\":20954:21123   */\n      swap3\n      swap2\n      pop\n      pop\n      jump\t// out\n        /* \"#utility.yul\":21128:21423   */\n    tag_250:\n        /* \"#utility.yul\":21204:21208   */\n      0x00\n        /* \"#utility.yul\":21350:21379   */\n      tag_455\n        /* \"#utility.yul\":21375:21378   */\n      dup4\n        /* \"#utility.yul\":21369:21373   */\n      dup4\n        /* \"#utility.yul\":21350:21379   */\n      tag_249\n      jump\t// in\n    tag_455:\n        /* \"#utility.yul\":21342:21379   */\n      swap2\n      pop\n        /* \"#utility.yul\":21412:21415   */\n      dup3\n        /* \"#utility.yul\":21409:21410   */\n      0x02\n        /* \"#utility.yul\":21405:21416   */\n      mul\n        /* \"#utility.yul\":21399:21403   */\n      dup3\n        /* \"#utility.yul\":21396:21417   */\n      or\n        /* \"#utility.yul\":21388:21417   */\n      swap1\n      pop\n        /* \"#utility.yul\":21128:21423   */\n      swap3\n      swap2\n      pop\n      pop\n      jump\t// out\n        /* \"#utility.yul\":21428:22831   */\n    tag_154:\n        /* \"#utility.yul\":21552:21596   */\n      tag_457\n        /* \"#utility.yul\":21592:21595   */\n      dup4\n        /* \"#utility.yul\":21587:21590   */\n      dup4\n        /* \"#utility.yul\":21552:21596   */\n      tag_234\n      jump\t// in\n    tag_457:\n        /* \"#utility.yul\":21661:21679   */\n      0xffffffffffffffff\n        /* \"#utility.yul\":21653:21659   */\n      dup2\n        /* \"#utility.yul\":21650:21680   */\n      gt\n        /* \"#utility.yul\":21647:21703   */\n      iszero\n      tag_458\n      jumpi\n        /* \"#utility.yul\":21683:21701   */\n      tag_459\n      tag_235\n      jump\t// in\n    tag_459:\n        /* \"#utility.yul\":21647:21703   */\n    tag_458:\n        /* \"#utility.yul\":21727:21765   */\n      tag_460\n        /* \"#utility.yul\":21759:21763   */\n      dup3\n        /* \"#utility.yul\":21753:21764   */\n      sload\n        /* \"#utility.yul\":21727:21765   */\n      tag_67\n      jump\t// in\n    tag_460:\n        /* \"#utility.yul\":21812:21879   */\n      tag_461\n        /* \"#utility.yul\":21872:21878   */\n      dup3\n        /* \"#utility.yul\":21864:21870   */\n      dup3\n        /* \"#utility.yul\":21858:21862   */\n      dup6\n        /* \"#utility.yul\":21812:21879   */\n      tag_247\n      jump\t// in\n    tag_461:\n        /* \"#utility.yul\":21906:21907   */\n      0x00\n        /* \"#utility.yul\":21935:21937   */\n      0x1f\n        /* \"#utility.yul\":21927:21933   */\n      dup4\n        /* \"#utility.yul\":21924:21938   */\n      gt\n        /* \"#utility.yul\":21952:21953   */\n      0x01\n        /* \"#utility.yul\":21947:22579   */\n      dup2\n      eq\n      tag_463\n      jumpi\n        /* \"#utility.yul\":22623:22624   */\n      0x00\n        /* \"#utility.yul\":22640:22646   */\n      dup5\n        /* \"#utility.yul\":22637:22721   */\n      iszero\n      tag_464\n      jumpi\n        /* \"#utility.yul\":22696:22705   */\n      dup3\n        /* \"#utility.yul\":22691:22694   */\n      dup8\n        /* \"#utility.yul\":22687:22706   */\n      add\n        /* \"#utility.yul\":22674:22707   */\n      calldataload\n        /* \"#utility.yul\":22665:22707   */\n      swap1\n      pop\n        /* \"#utility.yul\":22637:22721   */\n    tag_464:\n        /* \"#utility.yul\":22747:22814   */\n      tag_465\n        /* \"#utility.yul\":22807:22813   */\n      dup6\n        /* \"#utility.yul\":22800:22805   */\n      dup3\n        /* \"#utility.yul\":22747:22814   */\n      tag_250\n      jump\t// in\n    tag_465:\n        /* \"#utility.yul\":22741:22745   */\n      dup7\n        /* \"#utility.yul\":22734:22815   */\n      sstore\n        /* \"#utility.yul\":22596:22825   */\n      pop\n        /* \"#utility.yul\":21917:22825   */\n      jump(tag_462)\n        /* \"#utility.yul\":21947:22579   */\n    tag_463:\n        /* \"#utility.yul\":21999:22003   */\n      0x1f\n        /* \"#utility.yul\":21995:22004   */\n      not\n        /* \"#utility.yul\":21987:21993   */\n      dup5\n        /* \"#utility.yul\":21983:22005   */\n      and\n        /* \"#utility.yul\":22033:22070   */\n      tag_466\n        /* \"#utility.yul\":22065:22069   */\n      dup7\n        /* \"#utility.yul\":22033:22070   */\n      tag_236\n      jump\t// in\n    tag_466:\n        /* \"#utility.yul\":22092:22093   */\n      0x00\n        /* \"#utility.yul\":22106:22321   */\n    tag_467:\n        /* \"#utility.yul\":22120:22127   */\n      dup3\n        /* \"#utility.yul\":22117:22118   */\n      dup2\n        /* \"#utility.yul\":22114:22128   */\n      lt\n        /* \"#utility.yul\":22106:22321   */\n      iszero\n      tag_469\n      jumpi\n        /* \"#utility.yul\":22206:22215   */\n      dup5\n        /* \"#utility.yul\":22201:22204   */\n      dup10\n        /* \"#utility.yul\":22197:22216   */\n      add\n        /* \"#utility.yul\":22184:22217   */\n      calldataload\n        /* \"#utility.yul\":22176:22182   */\n      dup3\n        /* \"#utility.yul\":22169:22218   */\n      sstore\n        /* \"#utility.yul\":22257:22258   */\n      0x01\n        /* \"#utility.yul\":22249:22255   */\n      dup3\n        /* \"#utility.yul\":22245:22259   */\n      add\n        /* \"#utility.yul\":22235:22259   */\n      swap2\n      pop\n        /* \"#utility.yul\":22304:22306   */\n      0x20\n        /* \"#utility.yul\":22293:22302   */\n      dup6\n        /* \"#utility.yul\":22289:22307   */\n      add\n        /* \"#utility.yul\":22276:22307   */\n      swap5\n      pop\n        /* \"#utility.yul\":22143:22147   */\n      0x20\n        /* \"#utility.yul\":22140:22141   */\n      dup2\n        /* \"#utility.yul\":22136:22148   */\n      add\n        /* \"#utility.yul\":22131:22148   */\n      swap1\n      pop\n        /* \"#utility.yul\":22106:22321   */\n      jump(tag_467)\n    tag_469:\n        /* \"#utility.yul\":22349:22355   */\n      dup7\n        /* \"#utility.yul\":22340:22347   */\n      dup4\n        /* \"#utility.yul\":22337:22356   */\n      lt\n        /* \"#utility.yul\":22334:22520   */\n      iszero\n      tag_470\n      jumpi\n        /* \"#utility.yul\":22414:22423   */\n      dup5\n        /* \"#utility.yul\":22409:22412   */\n      dup10\n        /* \"#utility.yul\":22405:22424   */\n      add\n        /* \"#utility.yul\":22392:22425   */\n      calldataload\n        /* \"#utility.yul\":22457:22505   */\n      tag_471\n        /* \"#utility.yul\":22499:22503   */\n      0x1f\n        /* \"#utility.yul\":22491:22497   */\n      dup10\n        /* \"#utility.yul\":22487:22504   */\n      and\n        /* \"#utility.yul\":22476:22485   */\n      dup3\n        /* \"#utility.yul\":22457:22505   */\n      tag_249\n      jump\t// in\n    tag_471:\n        /* \"#utility.yul\":22449:22455   */\n      dup4\n        /* \"#utility.yul\":22442:22506   */\n      sstore\n        /* \"#utility.yul\":22357:22520   */\n      pop\n        /* \"#utility.yul\":22334:22520   */\n    tag_470:\n        /* \"#utility.yul\":22566:22567   */\n      0x01\n        /* \"#utility.yul\":22562:22563   */\n      0x02\n        /* \"#utility.yul\":22554:22560   */\n      dup9\n        /* \"#utility.yul\":22550:22564   */\n      mul\n        /* \"#utility.yul\":22546:22568   */\n      add\n        /* \"#utility.yul\":22540:22544   */\n      dup9\n        /* \"#utility.yul\":22533:22569   */\n      sstore\n        /* \"#utility.yul\":21954:22579   */\n      pop\n      pop\n      pop\n        /* \"#utility.yul\":21917:22825   */\n    tag_462:\n      pop\n        /* \"#utility.yul\":21527:22831   */\n      pop\n      pop\n      pop\n        /* \"#utility.yul\":21428:22831   */\n      pop\n      pop\n      pop\n      jump\t// out\n        /* \"#utility.yul\":22837:23028   */\n    tag_157:\n        /* \"#utility.yul\":22877:22880   */\n      0x00\n        /* \"#utility.yul\":22896:22916   */\n      tag_473\n        /* \"#utility.yul\":22914:22915   */\n      dup3\n        /* \"#utility.yul\":22896:22916   */\n      tag_203\n      jump\t// in\n    tag_473:\n        /* \"#utility.yul\":22891:22916   */\n      swap2\n      pop\n        /* \"#utility.yul\":22930:22950   */\n      tag_474\n        /* \"#utility.yul\":22948:22949   */\n      dup4\n        /* \"#utility.yul\":22930:22950   */\n      tag_203\n      jump\t// in\n    tag_474:\n        /* \"#utility.yul\":22925:22950   */\n      swap3\n      pop\n        /* \"#utility.yul\":22973:22974   */\n      dup3\n        /* \"#utility.yul\":22970:22971   */\n      dup3\n        /* \"#utility.yul\":22966:22975   */\n      add\n        /* \"#utility.yul\":22959:22975   */\n      swap1\n      pop\n        /* \"#utility.yul\":22994:22997   */\n      dup1\n        /* \"#utility.yul\":22991:22992   */\n      dup3\n        /* \"#utility.yul\":22988:22998   */\n      gt\n        /* \"#utility.yul\":22985:23021   */\n      iszero\n      tag_475\n      jumpi\n        /* \"#utility.yul\":23001:23019   */\n      tag_476\n      tag_223\n      jump\t// in\n    tag_476:\n        /* \"#utility.yul\":22985:23021   */\n    tag_475:\n        /* \"#utility.yul\":22837:23028   */\n      swap3\n      swap2\n      pop\n      pop\n      jump\t// out\n        /* \"#utility.yul\":23034:23228   */\n    tag_168:\n        /* \"#utility.yul\":23074:23078   */\n      0x00\n        /* \"#utility.yul\":23094:23114   */\n      tag_478\n        /* \"#utility.yul\":23112:23113   */\n      dup3\n        /* \"#utility.yul\":23094:23114   */\n      tag_203\n      jump\t// in\n    tag_478:\n        /* \"#utility.yul\":23089:23114   */\n      swap2\n      pop\n        /* \"#utility.yul\":23128:23148   */\n      tag_479\n        /* \"#utility.yul\":23146:23147   */\n      dup4\n        /* \"#utility.yul\":23128:23148   */\n      tag_203\n      jump\t// in\n    tag_479:\n        /* \"#utility.yul\":23123:23148   */\n      swap3\n      pop\n        /* \"#utility.yul\":23172:23173   */\n      dup3\n        /* \"#utility.yul\":23169:23170   */\n      dup3\n        /* \"#utility.yul\":23165:23174   */\n      sub\n        /* \"#utility.yul\":23157:23174   */\n      swap1\n      pop\n        /* \"#utility.yul\":23196:23197   */\n      dup2\n        /* \"#utility.yul\":23190:23194   */\n      dup2\n        /* \"#utility.yul\":23187:23198   */\n      gt\n        /* \"#utility.yul\":23184:23221   */\n      iszero\n      tag_480\n      jumpi\n        /* \"#utility.yul\":23201:23219   */\n      tag_481\n      tag_223\n      jump\t// in\n    tag_481:\n        /* \"#utility.yul\":23184:23221   */\n    tag_480:\n        /* \"#utility.yul\":23034:23228   */\n      swap3\n      swap2\n      pop\n      pop\n      jump\t// out\n        /* \"#utility.yul\":23234:23414   */\n    tag_177:\n        /* \"#utility.yul\":23282:23359   */\n      0x4e487b7100000000000000000000000000000000000000000000000000000000\n        /* \"#utility.yul\":23279:23280   */\n      0x00\n        /* \"#utility.yul\":23272:23360   */\n      mstore\n        /* \"#utility.yul\":23379:23383   */\n      0x31\n        /* \"#utility.yul\":23376:23377   */\n      0x04\n        /* \"#utility.yul\":23369:23384   */\n      mstore\n        /* \"#utility.yul\":23403:23407   */\n      0x24\n        /* \"#utility.yul\":23400:23401   */\n      0x00\n        /* \"#utility.yul\":23393:23408   */\n      revert\n\n    auxdata: 0xa2646970667358221220fe34fe32ba600f6da0daf1dee0179876bd98bc057d65045e0b3586604a4dadba64736f6c63430008110033\n}\n","bytecode":{"linkReferences":{},"object":"60c06040523480156200001157600080fd5b50604051620021e3380380620021e3833981810160405281019062000037919062000153565b82600660006101000a81548173ffffffffffffffffffffffffffffffffffffffff021916908373ffffffffffffffffffffffffffffffffffffffff1602179055508173ffffffffffffffffffffffffffffffffffffffff1660808173ffffffffffffffffffffffffffffffffffffffff16815250508073ffffffffffffffffffffffffffffffffffffffff1660a08173ffffffffffffffffffffffffffffffffffffffff1681525050505050620001af565b600080fd5b600073ffffffffffffffffffffffffffffffffffffffff82169050919050565b60006200011b82620000ee565b9050919050565b6200012d816200010e565b81146200013957600080fd5b50565b6000815190506200014d8162000122565b92915050565b6000806000606084860312156200016f576200016e620000e9565b5b60006200017f868287016200013c565b935050602062000192868287016200013c565b9250506040620001a5868287016200013c565b9150509250925092565b60805160a051612014620001cf60003960005050600050506120146000f3fe608060405234801561001057600080fd5b506004361061009d5760003560e01c80638c468cd4116100665780638c468cd414610144578063b672bdcb14610174578063d9a87535146101a4578063f6ec9738146101d4578063fd591902146101f05761009d565b8062ad808f146100a25780631292a282146100d2578063273f868e146100ee57806328f4694c1461010a578063455772d214610126575b600080fd5b6100bc60048036038101906100b791906113e4565b61020c565b6040516100c991906114a1565b60405180910390f35b6100ec60048036038101906100e791906113e4565b6103de565b005b610108600480360381019061010391906113e4565b6105d2565b005b610124600480360381019061011f91906113e4565b6107f6565b005b61012e610bd4565b60405161013b9190611581565b60405180910390f35b61015e600480360381019061015991906115d9565b610d63565b60405161016b9190611615565b60405180910390f35b61018e600480360381019061018991906113e4565b610da2565b60405161019b919061163f565b60405180910390f35b6101be60048036038101906101b991906113e4565b610deb565b6040516101cb919061163f565b60405180910390f35b6101ee60048036038101906101e991906113e4565b610e37565b005b61020a600480360381019061020591906116bf565b610e7b565b005b606033600660009054906101000a900473ffffffffffffffffffffffffffffffffffffffff1673ffffffffffffffffffffffffffffffffffffffff166339ac7a0882600760009054906101000a900473ffffffffffffffffffffffffffffffffffffffff166040518363ffffffff1660e01b815260040161028e92919061170c565b602060405180830381865afa1580156102ab573d6000803e3d6000fd5b505050506040513d601f19601f820116820180604052508101906102cf919061176d565b61030e576040517f08c379a0000000000000000000000000000000000000000000000000000000008152600401610305906117e6565b60405180910390fd5b600460008473ffffffffffffffffffffffffffffffffffffffff1673ffffffffffffffffffffffffffffffffffffffff168152602001908152602001600020805461035890611835565b80601f016020809104026020016040519081016040528092919081815260200182805461038490611835565b80156103d15780601f106103a6576101008083540402835291602001916103d1565b820191906000526020600020905b8154815290600101906020018083116103b457829003601f168201915b5050505050915050919050565b33600760009054906101000a900473ffffffffffffffffffffffffffffffffffffffff1673ffffffffffffffffffffffffffffffffffffffff168173ffffffffffffffffffffffffffffffffffffffff161461046f576040517f08c379a0000000000000000000000000000000000000000000000000000000008152600401610466906118b2565b60405180910390fd5b600760009054906101000a900473ffffffffffffffffffffffffffffffffffffffff1673ffffffffffffffffffffffffffffffffffffffff163373ffffffffffffffffffffffffffffffffffffffff16146104c957600080fd5b600660009054906101000a900473ffffffffffffffffffffffffffffffffffffffff1673ffffffffffffffffffffffffffffffffffffffff16639d58b15d600760009054906101000a900473ffffffffffffffffffffffffffffffffffffffff16846040518363ffffffff1660e01b815260040161054892919061170c565b600060405180830381600087803b15801561056257600080fd5b505af1158015610576573d6000803e3d6000fd5b50505050610583826111b2565b600160003373ffffffffffffffffffffffffffffffffffffffff1673ffffffffffffffffffffffffffffffffffffffff16815260200190815260200160002060006105ce919061133e565b5050565b33600760009054906101000a900473ffffffffffffffffffffffffffffffffffffffff1673ffffffffffffffffffffffffffffffffffffffff168173ffffffffffffffffffffffffffffffffffffffff1614610663576040517f08c379a000000000000000000000000000000000000000000000000000000000815260040161065a906118b2565b60405180910390fd5b600360008373ffffffffffffffffffffffffffffffffffffffff1673ffffffffffffffffffffffffffffffffffffffff16815260200190815260200160002060009054906101000a900460ff166106ef576040517f08c379a00000000000000000000000000000000000000000000000000000000081526004016106e69061191e565b60405180910390fd5b6000600360008473ffffffffffffffffffffffffffffffffffffffff1673ffffffffffffffffffffffffffffffffffffffff16815260200190815260200160002060006101000a81548160ff0219169083151502179055506001600260003373ffffffffffffffffffffffffffffffffffffffff1673ffffffffffffffffffffffffffffffffffffffff16815260200190815260200160002060008282546107979190611977565b925050819055506107a7826111b2565b600160003373ffffffffffffffffffffffffffffffffffffffff1673ffffffffffffffffffffffffffffffffffffffff16815260200190815260200160002060006107f2919061133e565b5050565b33600660009054906101000a900473ffffffffffffffffffffffffffffffffffffffff1673ffffffffffffffffffffffffffffffffffffffff166339ac7a0882600760009054906101000a900473ffffffffffffffffffffffffffffffffffffffff166040518363ffffffff1660e01b815260040161087692919061170c565b602060405180830381865afa158015610893573d6000803e3d6000fd5b505050506040513d601f19601f820116820180604052508101906108b7919061176d565b6108f6576040517f08c379a00000000000000000000000000000000000000000000000000000000081526004016108ed906117e6565b60405180910390fd5b600360008373ffffffffffffffffffffffffffffffffffffffff1673ffffffffffffffffffffffffffffffffffffffff16815260200190815260200160002060009054906101000a900460ff16610982576040517f08c379a000000000000000000000000000000000000000000000000000000000815260040161097990611a06565b60405180910390fd5b6000805b600160008573ffffffffffffffffffffffffffffffffffffffff1673ffffffffffffffffffffffffffffffffffffffff16815260200190815260200160002080549050811015610a96573373ffffffffffffffffffffffffffffffffffffffff16600160008673ffffffffffffffffffffffffffffffffffffffff1673ffffffffffffffffffffffffffffffffffffffff1681526020019081526020016000208281548110610a3857610a37611a26565b5b9060005260206000200160009054906101000a900473ffffffffffffffffffffffffffffffffffffffff1673ffffffffffffffffffffffffffffffffffffffff1603610a8357600191505b8080610a8e90611a55565b915050610986565b508015610ad8576040517f08c379a0000000000000000000000000000000000000000000000000000000008152600401610acf90611ae9565b60405180910390fd5b600160008473ffffffffffffffffffffffffffffffffffffffff1673ffffffffffffffffffffffffffffffffffffffff168152602001908152602001600020339080600181540180825580915050600190039060005260206000200160009091909190916101000a81548173ffffffffffffffffffffffffffffffffffffffff021916908373ffffffffffffffffffffffffffffffffffffffff1602179055506001600260008573ffffffffffffffffffffffffffffffffffffffff1673ffffffffffffffffffffffffffffffffffffffff1681526020019081526020016000206000828254610bc89190611b09565b92505081905550505050565b606033600660009054906101000a900473ffffffffffffffffffffffffffffffffffffffff1673ffffffffffffffffffffffffffffffffffffffff166339ac7a0882600760009054906101000a900473ffffffffffffffffffffffffffffffffffffffff166040518363ffffffff1660e01b8152600401610c5692919061170c565b602060405180830381865afa158015610c73573d6000803e3d6000fd5b505050506040513d601f19601f82011682018060405250810190610c97919061176d565b610cd6576040517f08c379a0000000000000000000000000000000000000000000000000000000008152600401610ccd906117e6565b60405180910390fd5b6000805480602002602001604051908101604052809291908181526020018280548015610d5857602002820191906000526020600020905b8160009054906101000a900473ffffffffffffffffffffffffffffffffffffffff1673ffffffffffffffffffffffffffffffffffffffff1681526020019060010190808311610d0e575b505050505091505090565b60008181548110610d7357600080fd5b906000526020600020016000915054906101000a900473ffffffffffffffffffffffffffffffffffffffff1681565b6000600560008373ffffffffffffffffffffffffffffffffffffffff1673ffffffffffffffffffffffffffffffffffffffff168152602001908152602001600020549050919050565b6000600160008373ffffffffffffffffffffffffffffffffffffffff1673ffffffffffffffffffffffffffffffffffffffff168152602001908152602001600020805490509050919050565b80600760006101000a81548173ffffffffffffffffffffffffffffffffffffffff021916908373ffffffffffffffffffffffffffffffffffffffff16021790555050565b600660009054906101000a900473ffffffffffffffffffffffffffffffffffffffff1673ffffffffffffffffffffffffffffffffffffffff166339ac7a0833600760009054906101000a900473ffffffffffffffffffffffffffffffffffffffff166040518363ffffffff1660e01b8152600401610efa92919061170c565b602060405180830381865afa158015610f17573d6000803e3d6000fd5b505050506040513d601f19601f82011682018060405250810190610f3b919061176d565b15610f7b576040517f08c379a0000000000000000000000000000000000000000000000000000000008152600401610f7290611b99565b60405180910390fd5b600360003373ffffffffffffffffffffffffffffffffffffffff1673ffffffffffffffffffffffffffffffffffffffff16815260200190815260200160002060009054906101000a900460ff1615611008576040517f08c379a0000000000000000000000000000000000000000000000000000000008152600401610fff90611c05565b60405180910390fd5b7ffffffffffffffffffffffffffffffffffffffffffffffffffffffffffffffffd600260003373ffffffffffffffffffffffffffffffffffffffff1673ffffffffffffffffffffffffffffffffffffffff16815260200190815260200160002054136110a9576040517f08c379a00000000000000000000000000000000000000000000000000000000081526004016110a090611c71565b60405180910390fd5b8181600460003373ffffffffffffffffffffffffffffffffffffffff1673ffffffffffffffffffffffffffffffffffffffff16815260200190815260200160002091826110f7929190611e77565b506000339080600181540180825580915050600190039060005260206000200160009091909190916101000a81548173ffffffffffffffffffffffffffffffffffffffff021916908373ffffffffffffffffffffffffffffffffffffffff160217905550630f7314004261116b9190611f47565b600560003373ffffffffffffffffffffffffffffffffffffffff1673ffffffffffffffffffffffffffffffffffffffff168152602001908152602001600020819055505050565b60005b600080549050811015611247578173ffffffffffffffffffffffffffffffffffffffff16600082815481106111ed576111ec611a26565b5b9060005260206000200160009054906101000a900473ffffffffffffffffffffffffffffffffffffffff1673ffffffffffffffffffffffffffffffffffffffff16031561124757808061123f90611a55565b9150506111b5565b6000600160008054905061125b9190611f7b565b8154811061126c5761126b611a26565b5b9060005260206000200160009054906101000a900473ffffffffffffffffffffffffffffffffffffffff16600082815481106112ab576112aa611a26565b5b9060005260206000200160006101000a81548173ffffffffffffffffffffffffffffffffffffffff021916908373ffffffffffffffffffffffffffffffffffffffff160217905550600080548061130557611304611faf565b5b6001900381819060005260206000200160006101000a81549073ffffffffffffffffffffffffffffffffffffffff021916905590555050565b508054600082559060005260206000209081019061135c919061135f565b50565b5b80821115611378576000816000905550600101611360565b5090565b600080fd5b600080fd5b600073ffffffffffffffffffffffffffffffffffffffff82169050919050565b60006113b182611386565b9050919050565b6113c1816113a6565b81146113cc57600080fd5b50565b6000813590506113de816113b8565b92915050565b6000602082840312156113fa576113f961137c565b5b6000611408848285016113cf565b91505092915050565b600081519050919050565b600082825260208201905092915050565b60005b8381101561144b578082015181840152602081019050611430565b60008484015250505050565b6000601f19601f8301169050919050565b600061147382611411565b61147d818561141c565b935061148d81856020860161142d565b61149681611457565b840191505092915050565b600060208201905081810360008301526114bb8184611468565b905092915050565b600081519050919050565b600082825260208201905092915050565b6000819050602082019050919050565b6114f8816113a6565b82525050565b600061150a83836114ef565b60208301905092915050565b6000602082019050919050565b600061152e826114c3565b61153881856114ce565b9350611543836114df565b8060005b8381101561157457815161155b88826114fe565b975061156683611516565b925050600181019050611547565b5085935050505092915050565b6000602082019050818103600083015261159b8184611523565b905092915050565b6000819050919050565b6115b6816115a3565b81146115c157600080fd5b50565b6000813590506115d3816115ad565b92915050565b6000602082840312156115ef576115ee61137c565b5b60006115fd848285016115c4565b91505092915050565b61160f816113a6565b82525050565b600060208201905061162a6000830184611606565b92915050565b611639816115a3565b82525050565b60006020820190506116546000830184611630565b92915050565b600080fd5b600080fd5b600080fd5b60008083601f84011261167f5761167e61165a565b5b8235905067ffffffffffffffff81111561169c5761169b61165f565b5b6020830191508360018202830111156116b8576116b7611664565b5b9250929050565b600080602083850312156116d6576116d561137c565b5b600083013567ffffffffffffffff8111156116f4576116f3611381565b5b61170085828601611669565b92509250509250929050565b60006040820190506117216000830185611606565b61172e6020830184611606565b9392505050565b60008115159050919050565b61174a81611735565b811461175557600080fd5b50565b60008151905061176781611741565b92915050565b6000602082840312156117835761178261137c565b5b600061179184828501611758565b91505092915050565b7f526571756972656420746f2062652061206d656d656265720000000000000000600082015250565b60006117d060188361141c565b91506117db8261179a565b602082019050919050565b600060208201905081810360008301526117ff816117c3565b9050919050565b7f4e487b7100000000000000000000000000000000000000000000000000000000600052602260045260246000fd5b6000600282049050600182168061184d57607f821691505b6020821081036118605761185f611806565b5b50919050565b7f4163636573732044656e69656400000000000000000000000000000000000000600082015250565b600061189c600d8361141c565b91506118a782611866565b602082019050919050565b600060208201905081810360008301526118cb8161188f565b9050919050565b7f496e76616c6964206170706c6963616e74206164647265737300000000000000600082015250565b600061190860198361141c565b9150611913826118d2565b602082019050919050565b60006020820190508181036000830152611937816118fb565b9050919050565b6000819050919050565b7f4e487b7100000000000000000000000000000000000000000000000000000000600052601160045260246000fd5b60006119828261193e565b915061198d8361193e565b92508282039050818112600084121682821360008512151617156119b4576119b3611948565b5b92915050565b7f4e6f742061206170706c6963616e740000000000000000000000000000000000600082015250565b60006119f0600f8361141c565b91506119fb826119ba565b602082019050919050565b60006020820190508181036000830152611a1f816119e3565b9050919050565b7f4e487b7100000000000000000000000000000000000000000000000000000000600052603260045260246000fd5b6000611a60826115a3565b91507fffffffffffffffffffffffffffffffffffffffffffffffffffffffffffffffff8203611a9257611a91611948565b5b600182019050919050565b7f53656e64657220616c726561647920766f746564000000000000000000000000600082015250565b6000611ad360148361141c565b9150611ade82611a9d565b602082019050919050565b60006020820190508181036000830152611b0281611ac6565b9050919050565b6000611b148261193e565b9150611b1f8361193e565b925082820190508281121560008312168382126000841215161715611b4757611b46611948565b5b92915050565b7f416c726561647920616374697665206d656d6265720000000000000000000000600082015250565b6000611b8360158361141c565b9150611b8e82611b4d565b602082019050919050565b60006020820190508181036000830152611bb281611b76565b9050919050565b7f416c726561647920616374697665206170706c6963616e740000000000000000600082015250565b6000611bef60188361141c565b9150611bfa82611bb9565b602082019050919050565b60006020820190508181036000830152611c1e81611be2565b9050919050565b7f6163636f756e742072656a656374656400000000000000000000000000000000600082015250565b6000611c5b60108361141c565b9150611c6682611c25565b602082019050919050565b60006020820190508181036000830152611c8a81611c4e565b9050919050565b600082905092915050565b7f4e487b7100000000000000000000000000000000000000000000000000000000600052604160045260246000fd5b60008190508160005260206000209050919050565b60006020601f8301049050919050565b600082821b905092915050565b600060088302611d2d7fffffffffffffffffffffffffffffffffffffffffffffffffffffffffffffffff82611cf0565b611d378683611cf0565b95508019841693508086168417925050509392505050565b6000819050919050565b6000611d74611d6f611d6a846115a3565b611d4f565b6115a3565b9050919050565b6000819050919050565b611d8e83611d59565b611da2611d9a82611d7b565b848454611cfd565b825550505050565b600090565b611db7611daa565b611dc2818484611d85565b505050565b5b81811015611de657611ddb600082611daf565b600181019050611dc8565b5050565b601f821115611e2b57611dfc81611ccb565b611e0584611ce0565b81016020851015611e14578190505b611e28611e2085611ce0565b830182611dc7565b50505b505050565b600082821c905092915050565b6000611e4e60001984600802611e30565b1980831691505092915050565b6000611e678383611e3d565b9150826002028217905092915050565b611e818383611c91565b67ffffffffffffffff811115611e9a57611e99611c9c565b5b611ea48254611835565b611eaf828285611dea565b6000601f831160018114611ede5760008415611ecc578287013590505b611ed68582611e5b565b865550611f3e565b601f198416611eec86611ccb565b60005b82811015611f1457848901358255600182019150602085019450602081019050611eef565b86831015611f315784890135611f2d601f891682611e3d565b8355505b6001600288020188555050505b50505050505050565b6000611f52826115a3565b9150611f5d836115a3565b9250828201905080821115611f7557611f74611948565b5b92915050565b6000611f86826115a3565b9150611f91836115a3565b9250828203905081811115611fa957611fa8611948565b5b92915050565b7f4e487b7100000000000000000000000000000000000000000000000000000000600052603160045260246000fdfea2646970667358221220fe34fe32ba600f6da0daf1dee0179876bd98bc057d65045e0b3586604a4dadba64736f6c63430008110033","opcodes":"PUSH1 0xC0 PUSH1 0x40 MSTORE CALLVALUE DUP1 ISZERO PUSH3 0x11 JUMPI PUSH1 0x0 DUP1 REVERT JUMPDEST POP PUSH1 0x40 MLOAD PUSH3 0x21E3 CODESIZE SUB DUP1 PUSH3 0x21E3 DUP4 CODECOPY DUP2 DUP2 ADD PUSH1 0x40 MSTORE DUP2 ADD SWAP1 PUSH3 0x37 SWAP2 SWAP1 PUSH3 0x153 JUMP JUMPDEST DUP3 PUSH1 0x6 PUSH1 0x0 PUSH2 0x100 EXP DUP2 SLOAD DUP2 PUSH20 0xFFFFFFFFFFFFFFFFFFFFFFFFFFFFFFFFFFFFFFFF MUL NOT AND SWAP1 DUP4 PUSH20 0xFFFFFFFFFFFFFFFFFFFFFFFFFFFFFFFFFFFFFFFF AND MUL OR SWAP1 SSTORE POP DUP2 PUSH20 0xFFFFFFFFFFFFFFFFFFFFFFFFFFFFFFFFFFFFFFFF AND PUSH1 0x80 DUP2 PUSH20 0xFFFFFFFFFFFFFFFFFFFFFFFFFFFFFFFFFFFFFFFF AND DUP2 MSTORE POP POP DUP1 PUSH20 0xFFFFFFFFFFFFFFFFFFFFFFFFFFFFFFFFFFFFFFFF AND PUSH1 0xA0 DUP2 PUSH20 0xFFFFFFFFFFFFFFFFFFFFFFFFFFFFFFFFFFFFFFFF AND DUP2 MSTORE POP POP POP POP POP PUSH3 0x1AF JUMP JUMPDEST PUSH1 0x0 DUP1 REVERT JUMPDEST PUSH1 0x0 PUSH20 0xFFFFFFFFFFFFFFFFFFFFFFFFFFFFFFFFFFFFFFFF DUP3 AND SWAP1 POP SWAP2 SWAP1 POP JUMP JUMPDEST PUSH1 0x0 PUSH3 0x11B DUP3 PUSH3 0xEE JUMP JUMPDEST SWAP1 POP SWAP2 SWAP1 POP JUMP JUMPDEST PUSH3 0x12D DUP2 PUSH3 0x10E JUMP JUMPDEST DUP2 EQ PUSH3 0x139 JUMPI PUSH1 0x0 DUP1 REVERT JUMPDEST POP JUMP JUMPDEST PUSH1 0x0 DUP2 MLOAD SWAP1 POP PUSH3 0x14D DUP2 PUSH3 0x122 JUMP JUMPDEST SWAP3 SWAP2 POP POP JUMP JUMPDEST PUSH1 0x0 DUP1 PUSH1 0x0 PUSH1 0x60 DUP5 DUP7 SUB SLT ISZERO PUSH3 0x16F JUMPI PUSH3 0x16E PUSH3 0xE9 JUMP JUMPDEST JUMPDEST PUSH1 0x0 PUSH3 0x17F DUP7 DUP3 DUP8 ADD PUSH3 0x13C JUMP JUMPDEST SWAP4 POP POP PUSH1 0x20 PUSH3 0x192 DUP7 DUP3 DUP8 ADD PUSH3 0x13C JUMP JUMPDEST SWAP3 POP POP PUSH1 0x40 PUSH3 0x1A5 DUP7 DUP3 DUP8 ADD PUSH3 0x13C JUMP JUMPDEST SWAP2 POP POP SWAP3 POP SWAP3 POP SWAP3 JUMP JUMPDEST PUSH1 0x80 MLOAD PUSH1 0xA0 MLOAD PUSH2 0x2014 PUSH3 0x1CF PUSH1 0x0 CODECOPY PUSH1 0x0 POP POP PUSH1 0x0 POP POP PUSH2 0x2014 PUSH1 0x0 RETURN INVALID PUSH1 0x80 PUSH1 0x40 MSTORE CALLVALUE DUP1 ISZERO PUSH2 0x10 JUMPI PUSH1 0x0 DUP1 REVERT JUMPDEST POP PUSH1 0x4 CALLDATASIZE LT PUSH2 0x9D JUMPI PUSH1 0x0 CALLDATALOAD PUSH1 0xE0 SHR DUP1 PUSH4 0x8C468CD4 GT PUSH2 0x66 JUMPI DUP1 PUSH4 0x8C468CD4 EQ PUSH2 0x144 JUMPI DUP1 PUSH4 0xB672BDCB EQ PUSH2 0x174 JUMPI DUP1 PUSH4 0xD9A87535 EQ PUSH2 0x1A4 JUMPI DUP1 PUSH4 0xF6EC9738 EQ PUSH2 0x1D4 JUMPI DUP1 PUSH4 0xFD591902 EQ PUSH2 0x1F0 JUMPI PUSH2 0x9D JUMP JUMPDEST DUP1 PUSH3 0xAD808F EQ PUSH2 0xA2 JUMPI DUP1 PUSH4 0x1292A282 EQ PUSH2 0xD2 JUMPI DUP1 PUSH4 0x273F868E EQ PUSH2 0xEE JUMPI DUP1 PUSH4 0x28F4694C EQ PUSH2 0x10A JUMPI DUP1 PUSH4 0x455772D2 EQ PUSH2 0x126 JUMPI JUMPDEST PUSH1 0x0 DUP1 REVERT JUMPDEST PUSH2 0xBC PUSH1 0x4 DUP1 CALLDATASIZE SUB DUP2 ADD SWAP1 PUSH2 0xB7 SWAP2 SWAP1 PUSH2 0x13E4 JUMP JUMPDEST PUSH2 0x20C JUMP JUMPDEST PUSH1 0x40 MLOAD PUSH2 0xC9 SWAP2 SWAP1 PUSH2 0x14A1 JUMP JUMPDEST PUSH1 0x40 MLOAD DUP1 SWAP2 SUB SWAP1 RETURN JUMPDEST PUSH2 0xEC PUSH1 0x4 DUP1 CALLDATASIZE SUB DUP2 ADD SWAP1 PUSH2 0xE7 SWAP2 SWAP1 PUSH2 0x13E4 JUMP JUMPDEST PUSH2 0x3DE JUMP JUMPDEST STOP JUMPDEST PUSH2 0x108 PUSH1 0x4 DUP1 CALLDATASIZE SUB DUP2 ADD SWAP1 PUSH2 0x103 SWAP2 SWAP1 PUSH2 0x13E4 JUMP JUMPDEST PUSH2 0x5D2 JUMP JUMPDEST STOP JUMPDEST PUSH2 0x124 PUSH1 0x4 DUP1 CALLDATASIZE SUB DUP2 ADD SWAP1 PUSH2 0x11F SWAP2 SWAP1 PUSH2 0x13E4 JUMP JUMPDEST PUSH2 0x7F6 JUMP JUMPDEST STOP JUMPDEST PUSH2 0x12E PUSH2 0xBD4 JUMP JUMPDEST PUSH1 0x40 MLOAD PUSH2 0x13B SWAP2 SWAP1 PUSH2 0x1581 JUMP JUMPDEST PUSH1 0x40 MLOAD DUP1 SWAP2 SUB SWAP1 RETURN JUMPDEST PUSH2 0x15E PUSH1 0x4 DUP1 CALLDATASIZE SUB DUP2 ADD SWAP1 PUSH2 0x159 SWAP2 SWAP1 PUSH2 0x15D9 JUMP JUMPDEST PUSH2 0xD63 JUMP JUMPDEST PUSH1 0x40 MLOAD PUSH2 0x16B SWAP2 SWAP1 PUSH2 0x1615 JUMP JUMPDEST PUSH1 0x40 MLOAD DUP1 SWAP2 SUB SWAP1 RETURN JUMPDEST PUSH2 0x18E PUSH1 0x4 DUP1 CALLDATASIZE SUB DUP2 ADD SWAP1 PUSH2 0x189 SWAP2 SWAP1 PUSH2 0x13E4 JUMP JUMPDEST PUSH2 0xDA2 JUMP JUMPDEST PUSH1 0x40 MLOAD PUSH2 0x19B SWAP2 SWAP1 PUSH2 0x163F JUMP JUMPDEST PUSH1 0x40 MLOAD DUP1 SWAP2 SUB SWAP1 RETURN JUMPDEST PUSH2 0x1BE PUSH1 0x4 DUP1 CALLDATASIZE SUB DUP2 ADD SWAP1 PUSH2 0x1B9 SWAP2 SWAP1 PUSH2 0x13E4 JUMP JUMPDEST PUSH2 0xDEB JUMP JUMPDEST PUSH1 0x40 MLOAD PUSH2 0x1CB SWAP2 SWAP1 PUSH2 0x163F JUMP JUMPDEST PUSH1 0x40 MLOAD DUP1 SWAP2 SUB SWAP1 RETURN JUMPDEST PUSH2 0x1EE PUSH1 0x4 DUP1 CALLDATASIZE SUB DUP2 ADD SWAP1 PUSH2 0x1E9 SWAP2 SWAP1 PUSH2 0x13E4 JUMP JUMPDEST PUSH2 0xE37 JUMP JUMPDEST STOP JUMPDEST PUSH2 0x20A PUSH1 0x4 DUP1 CALLDATASIZE SUB DUP2 ADD SWAP1 PUSH2 0x205 SWAP2 SWAP1 PUSH2 0x16BF JUMP JUMPDEST PUSH2 0xE7B JUMP JUMPDEST STOP JUMPDEST PUSH1 0x60 CALLER PUSH1 0x6 PUSH1 0x0 SWAP1 SLOAD SWAP1 PUSH2 0x100 EXP SWAP1 DIV PUSH20 0xFFFFFFFFFFFFFFFFFFFFFFFFFFFFFFFFFFFFFFFF AND PUSH20 0xFFFFFFFFFFFFFFFFFFFFFFFFFFFFFFFFFFFFFFFF AND PUSH4 0x39AC7A08 DUP3 PUSH1 0x7 PUSH1 0x0 SWAP1 SLOAD SWAP1 PUSH2 0x100 EXP SWAP1 DIV PUSH20 0xFFFFFFFFFFFFFFFFFFFFFFFFFFFFFFFFFFFFFFFF AND PUSH1 0x40 MLOAD DUP4 PUSH4 0xFFFFFFFF AND PUSH1 0xE0 SHL DUP2 MSTORE PUSH1 0x4 ADD PUSH2 0x28E SWAP3 SWAP2 SWAP1 PUSH2 0x170C JUMP JUMPDEST PUSH1 0x20 PUSH1 0x40 MLOAD DUP1 DUP4 SUB DUP2 DUP7 GAS STATICCALL ISZERO DUP1 ISZERO PUSH2 0x2AB JUMPI RETURNDATASIZE PUSH1 0x0 DUP1 RETURNDATACOPY RETURNDATASIZE PUSH1 0x0 REVERT JUMPDEST POP POP POP POP PUSH1 0x40 MLOAD RETURNDATASIZE PUSH1 0x1F NOT PUSH1 0x1F DUP3 ADD AND DUP3 ADD DUP1 PUSH1 0x40 MSTORE POP DUP2 ADD SWAP1 PUSH2 0x2CF SWAP2 SWAP1 PUSH2 0x176D JUMP JUMPDEST PUSH2 0x30E JUMPI PUSH1 0x40 MLOAD PUSH32 0x8C379A000000000000000000000000000000000000000000000000000000000 DUP2 MSTORE PUSH1 0x4 ADD PUSH2 0x305 SWAP1 PUSH2 0x17E6 JUMP JUMPDEST PUSH1 0x40 MLOAD DUP1 SWAP2 SUB SWAP1 REVERT JUMPDEST PUSH1 0x4 PUSH1 0x0 DUP5 PUSH20 0xFFFFFFFFFFFFFFFFFFFFFFFFFFFFFFFFFFFFFFFF AND PUSH20 0xFFFFFFFFFFFFFFFFFFFFFFFFFFFFFFFFFFFFFFFF AND DUP2 MSTORE PUSH1 0x20 ADD SWAP1 DUP2 MSTORE PUSH1 0x20 ADD PUSH1 0x0 KECCAK256 DUP1 SLOAD PUSH2 0x358 SWAP1 PUSH2 0x1835 JUMP JUMPDEST DUP1 PUSH1 0x1F ADD PUSH1 0x20 DUP1 SWAP2 DIV MUL PUSH1 0x20 ADD PUSH1 0x40 MLOAD SWAP1 DUP2 ADD PUSH1 0x40 MSTORE DUP1 SWAP3 SWAP2 SWAP1 DUP2 DUP2 MSTORE PUSH1 0x20 ADD DUP3 DUP1 SLOAD PUSH2 0x384 SWAP1 PUSH2 0x1835 JUMP JUMPDEST DUP1 ISZERO PUSH2 0x3D1 JUMPI DUP1 PUSH1 0x1F LT PUSH2 0x3A6 JUMPI PUSH2 0x100 DUP1 DUP4 SLOAD DIV MUL DUP4 MSTORE SWAP2 PUSH1 0x20 ADD SWAP2 PUSH2 0x3D1 JUMP JUMPDEST DUP3 ADD SWAP2 SWAP1 PUSH1 0x0 MSTORE PUSH1 0x20 PUSH1 0x0 KECCAK256 SWAP1 JUMPDEST DUP2 SLOAD DUP2 MSTORE SWAP1 PUSH1 0x1 ADD SWAP1 PUSH1 0x20 ADD DUP1 DUP4 GT PUSH2 0x3B4 JUMPI DUP3 SWAP1 SUB PUSH1 0x1F AND DUP3 ADD SWAP2 JUMPDEST POP POP POP POP POP SWAP2 POP POP SWAP2 SWAP1 POP JUMP JUMPDEST CALLER PUSH1 0x7 PUSH1 0x0 SWAP1 SLOAD SWAP1 PUSH2 0x100 EXP SWAP1 DIV PUSH20 0xFFFFFFFFFFFFFFFFFFFFFFFFFFFFFFFFFFFFFFFF AND PUSH20 0xFFFFFFFFFFFFFFFFFFFFFFFFFFFFFFFFFFFFFFFF AND DUP2 PUSH20 0xFFFFFFFFFFFFFFFFFFFFFFFFFFFFFFFFFFFFFFFF AND EQ PUSH2 0x46F JUMPI PUSH1 0x40 MLOAD PUSH32 0x8C379A000000000000000000000000000000000000000000000000000000000 DUP2 MSTORE PUSH1 0x4 ADD PUSH2 0x466 SWAP1 PUSH2 0x18B2 JUMP JUMPDEST PUSH1 0x40 MLOAD DUP1 SWAP2 SUB SWAP1 REVERT JUMPDEST PUSH1 0x7 PUSH1 0x0 SWAP1 SLOAD SWAP1 PUSH2 0x100 EXP SWAP1 DIV PUSH20 0xFFFFFFFFFFFFFFFFFFFFFFFFFFFFFFFFFFFFFFFF AND PUSH20 0xFFFFFFFFFFFFFFFFFFFFFFFFFFFFFFFFFFFFFFFF AND CALLER PUSH20 0xFFFFFFFFFFFFFFFFFFFFFFFFFFFFFFFFFFFFFFFF AND EQ PUSH2 0x4C9 JUMPI PUSH1 0x0 DUP1 REVERT JUMPDEST PUSH1 0x6 PUSH1 0x0 SWAP1 SLOAD SWAP1 PUSH2 0x100 EXP SWAP1 DIV PUSH20 0xFFFFFFFFFFFFFFFFFFFFFFFFFFFFFFFFFFFFFFFF AND PUSH20 0xFFFFFFFFFFFFFFFFFFFFFFFFFFFFFFFFFFFFFFFF AND PUSH4 0x9D58B15D PUSH1 0x7 PUSH1 0x0 SWAP1 SLOAD SWAP1 PUSH2 0x100 EXP SWAP1 DIV PUSH20 0xFFFFFFFFFFFFFFFFFFFFFFFFFFFFFFFFFFFFFFFF AND DUP5 PUSH1 0x40 MLOAD DUP4 PUSH4 0xFFFFFFFF AND PUSH1 0xE0 SHL DUP2 MSTORE PUSH1 0x4 ADD PUSH2 0x548 SWAP3 SWAP2 SWAP1 PUSH2 0x170C JUMP JUMPDEST PUSH1 0x0 PUSH1 0x40 MLOAD DUP1 DUP4 SUB DUP2 PUSH1 0x0 DUP8 DUP1 EXTCODESIZE ISZERO DUP1 ISZERO PUSH2 0x562 JUMPI PUSH1 0x0 DUP1 REVERT JUMPDEST POP GAS CALL ISZERO DUP1 ISZERO PUSH2 0x576 JUMPI RETURNDATASIZE PUSH1 0x0 DUP1 RETURNDATACOPY RETURNDATASIZE PUSH1 0x0 REVERT JUMPDEST POP POP POP POP PUSH2 0x583 DUP3 PUSH2 0x11B2 JUMP JUMPDEST PUSH1 0x1 PUSH1 0x0 CALLER PUSH20 0xFFFFFFFFFFFFFFFFFFFFFFFFFFFFFFFFFFFFFFFF AND PUSH20 0xFFFFFFFFFFFFFFFFFFFFFFFFFFFFFFFFFFFFFFFF AND DUP2 MSTORE PUSH1 0x20 ADD SWAP1 DUP2 MSTORE PUSH1 0x20 ADD PUSH1 0x0 KECCAK256 PUSH1 0x0 PUSH2 0x5CE SWAP2 SWAP1 PUSH2 0x133E JUMP JUMPDEST POP POP JUMP JUMPDEST CALLER PUSH1 0x7 PUSH1 0x0 SWAP1 SLOAD SWAP1 PUSH2 0x100 EXP SWAP1 DIV PUSH20 0xFFFFFFFFFFFFFFFFFFFFFFFFFFFFFFFFFFFFFFFF AND PUSH20 0xFFFFFFFFFFFFFFFFFFFFFFFFFFFFFFFFFFFFFFFF AND DUP2 PUSH20 0xFFFFFFFFFFFFFFFFFFFFFFFFFFFFFFFFFFFFFFFF AND EQ PUSH2 0x663 JUMPI PUSH1 0x40 MLOAD PUSH32 0x8C379A000000000000000000000000000000000000000000000000000000000 DUP2 MSTORE PUSH1 0x4 ADD PUSH2 0x65A SWAP1 PUSH2 0x18B2 JUMP JUMPDEST PUSH1 0x40 MLOAD DUP1 SWAP2 SUB SWAP1 REVERT JUMPDEST PUSH1 0x3 PUSH1 0x0 DUP4 PUSH20 0xFFFFFFFFFFFFFFFFFFFFFFFFFFFFFFFFFFFFFFFF AND PUSH20 0xFFFFFFFFFFFFFFFFFFFFFFFFFFFFFFFFFFFFFFFF AND DUP2 MSTORE PUSH1 0x20 ADD SWAP1 DUP2 MSTORE PUSH1 0x20 ADD PUSH1 0x0 KECCAK256 PUSH1 0x0 SWAP1 SLOAD SWAP1 PUSH2 0x100 EXP SWAP1 DIV PUSH1 0xFF AND PUSH2 0x6EF JUMPI PUSH1 0x40 MLOAD PUSH32 0x8C379A000000000000000000000000000000000000000000000000000000000 DUP2 MSTORE PUSH1 0x4 ADD PUSH2 0x6E6 SWAP1 PUSH2 0x191E JUMP JUMPDEST PUSH1 0x40 MLOAD DUP1 SWAP2 SUB SWAP1 REVERT JUMPDEST PUSH1 0x0 PUSH1 0x3 PUSH1 0x0 DUP5 PUSH20 0xFFFFFFFFFFFFFFFFFFFFFFFFFFFFFFFFFFFFFFFF AND PUSH20 0xFFFFFFFFFFFFFFFFFFFFFFFFFFFFFFFFFFFFFFFF AND DUP2 MSTORE PUSH1 0x20 ADD SWAP1 DUP2 MSTORE PUSH1 0x20 ADD PUSH1 0x0 KECCAK256 PUSH1 0x0 PUSH2 0x100 EXP DUP2 SLOAD DUP2 PUSH1 0xFF MUL NOT AND SWAP1 DUP4 ISZERO ISZERO MUL OR SWAP1 SSTORE POP PUSH1 0x1 PUSH1 0x2 PUSH1 0x0 CALLER PUSH20 0xFFFFFFFFFFFFFFFFFFFFFFFFFFFFFFFFFFFFFFFF AND PUSH20 0xFFFFFFFFFFFFFFFFFFFFFFFFFFFFFFFFFFFFFFFF AND DUP2 MSTORE PUSH1 0x20 ADD SWAP1 DUP2 MSTORE PUSH1 0x20 ADD PUSH1 0x0 KECCAK256 PUSH1 0x0 DUP3 DUP3 SLOAD PUSH2 0x797 SWAP2 SWAP1 PUSH2 0x1977 JUMP JUMPDEST SWAP3 POP POP DUP2 SWAP1 SSTORE POP PUSH2 0x7A7 DUP3 PUSH2 0x11B2 JUMP JUMPDEST PUSH1 0x1 PUSH1 0x0 CALLER PUSH20 0xFFFFFFFFFFFFFFFFFFFFFFFFFFFFFFFFFFFFFFFF AND PUSH20 0xFFFFFFFFFFFFFFFFFFFFFFFFFFFFFFFFFFFFFFFF AND DUP2 MSTORE PUSH1 0x20 ADD SWAP1 DUP2 MSTORE PUSH1 0x20 ADD PUSH1 0x0 KECCAK256 PUSH1 0x0 PUSH2 0x7F2 SWAP2 SWAP1 PUSH2 0x133E JUMP JUMPDEST POP POP JUMP JUMPDEST CALLER PUSH1 0x6 PUSH1 0x0 SWAP1 SLOAD SWAP1 PUSH2 0x100 EXP SWAP1 DIV PUSH20 0xFFFFFFFFFFFFFFFFFFFFFFFFFFFFFFFFFFFFFFFF AND PUSH20 0xFFFFFFFFFFFFFFFFFFFFFFFFFFFFFFFFFFFFFFFF AND PUSH4 0x39AC7A08 DUP3 PUSH1 0x7 PUSH1 0x0 SWAP1 SLOAD SWAP1 PUSH2 0x100 EXP SWAP1 DIV PUSH20 0xFFFFFFFFFFFFFFFFFFFFFFFFFFFFFFFFFFFFFFFF AND PUSH1 0x40 MLOAD DUP4 PUSH4 0xFFFFFFFF AND PUSH1 0xE0 SHL DUP2 MSTORE PUSH1 0x4 ADD PUSH2 0x876 SWAP3 SWAP2 SWAP1 PUSH2 0x170C JUMP JUMPDEST PUSH1 0x20 PUSH1 0x40 MLOAD DUP1 DUP4 SUB DUP2 DUP7 GAS STATICCALL ISZERO DUP1 ISZERO PUSH2 0x893 JUMPI RETURNDATASIZE PUSH1 0x0 DUP1 RETURNDATACOPY RETURNDATASIZE PUSH1 0x0 REVERT JUMPDEST POP POP POP POP PUSH1 0x40 MLOAD RETURNDATASIZE PUSH1 0x1F NOT PUSH1 0x1F DUP3 ADD AND DUP3 ADD DUP1 PUSH1 0x40 MSTORE POP DUP2 ADD SWAP1 PUSH2 0x8B7 SWAP2 SWAP1 PUSH2 0x176D JUMP JUMPDEST PUSH2 0x8F6 JUMPI PUSH1 0x40 MLOAD PUSH32 0x8C379A000000000000000000000000000000000000000000000000000000000 DUP2 MSTORE PUSH1 0x4 ADD PUSH2 0x8ED SWAP1 PUSH2 0x17E6 JUMP JUMPDEST PUSH1 0x40 MLOAD DUP1 SWAP2 SUB SWAP1 REVERT JUMPDEST PUSH1 0x3 PUSH1 0x0 DUP4 PUSH20 0xFFFFFFFFFFFFFFFFFFFFFFFFFFFFFFFFFFFFFFFF AND PUSH20 0xFFFFFFFFFFFFFFFFFFFFFFFFFFFFFFFFFFFFFFFF AND DUP2 MSTORE PUSH1 0x20 ADD SWAP1 DUP2 MSTORE PUSH1 0x20 ADD PUSH1 0x0 KECCAK256 PUSH1 0x0 SWAP1 SLOAD SWAP1 PUSH2 0x100 EXP SWAP1 DIV PUSH1 0xFF AND PUSH2 0x982 JUMPI PUSH1 0x40 MLOAD PUSH32 0x8C379A000000000000000000000000000000000000000000000000000000000 DUP2 MSTORE PUSH1 0x4 ADD PUSH2 0x979 SWAP1 PUSH2 0x1A06 JUMP JUMPDEST PUSH1 0x40 MLOAD DUP1 SWAP2 SUB SWAP1 REVERT JUMPDEST PUSH1 0x0 DUP1 JUMPDEST PUSH1 0x1 PUSH1 0x0 DUP6 PUSH20 0xFFFFFFFFFFFFFFFFFFFFFFFFFFFFFFFFFFFFFFFF AND PUSH20 0xFFFFFFFFFFFFFFFFFFFFFFFFFFFFFFFFFFFFFFFF AND DUP2 MSTORE PUSH1 0x20 ADD SWAP1 DUP2 MSTORE PUSH1 0x20 ADD PUSH1 0x0 KECCAK256 DUP1 SLOAD SWAP1 POP DUP2 LT ISZERO PUSH2 0xA96 JUMPI CALLER PUSH20 0xFFFFFFFFFFFFFFFFFFFFFFFFFFFFFFFFFFFFFFFF AND PUSH1 0x1 PUSH1 0x0 DUP7 PUSH20 0xFFFFFFFFFFFFFFFFFFFFFFFFFFFFFFFFFFFFFFFF AND PUSH20 0xFFFFFFFFFFFFFFFFFFFFFFFFFFFFFFFFFFFFFFFF AND DUP2 MSTORE PUSH1 0x20 ADD SWAP1 DUP2 MSTORE PUSH1 0x20 ADD PUSH1 0x0 KECCAK256 DUP3 DUP2 SLOAD DUP2 LT PUSH2 0xA38 JUMPI PUSH2 0xA37 PUSH2 0x1A26 JUMP JUMPDEST JUMPDEST SWAP1 PUSH1 0x0 MSTORE PUSH1 0x20 PUSH1 0x0 KECCAK256 ADD PUSH1 0x0 SWAP1 SLOAD SWAP1 PUSH2 0x100 EXP SWAP1 DIV PUSH20 0xFFFFFFFFFFFFFFFFFFFFFFFFFFFFFFFFFFFFFFFF AND PUSH20 0xFFFFFFFFFFFFFFFFFFFFFFFFFFFFFFFFFFFFFFFF AND SUB PUSH2 0xA83 JUMPI PUSH1 0x1 SWAP2 POP JUMPDEST DUP1 DUP1 PUSH2 0xA8E SWAP1 PUSH2 0x1A55 JUMP JUMPDEST SWAP2 POP POP PUSH2 0x986 JUMP JUMPDEST POP DUP1 ISZERO PUSH2 0xAD8 JUMPI PUSH1 0x40 MLOAD PUSH32 0x8C379A000000000000000000000000000000000000000000000000000000000 DUP2 MSTORE PUSH1 0x4 ADD PUSH2 0xACF SWAP1 PUSH2 0x1AE9 JUMP JUMPDEST PUSH1 0x40 MLOAD DUP1 SWAP2 SUB SWAP1 REVERT JUMPDEST PUSH1 0x1 PUSH1 0x0 DUP5 PUSH20 0xFFFFFFFFFFFFFFFFFFFFFFFFFFFFFFFFFFFFFFFF AND PUSH20 0xFFFFFFFFFFFFFFFFFFFFFFFFFFFFFFFFFFFFFFFF AND DUP2 MSTORE PUSH1 0x20 ADD SWAP1 DUP2 MSTORE PUSH1 0x20 ADD PUSH1 0x0 KECCAK256 CALLER SWAP1 DUP1 PUSH1 0x1 DUP2 SLOAD ADD DUP1 DUP3 SSTORE DUP1 SWAP2 POP POP PUSH1 0x1 SWAP1 SUB SWAP1 PUSH1 0x0 MSTORE PUSH1 0x20 PUSH1 0x0 KECCAK256 ADD PUSH1 0x0 SWAP1 SWAP2 SWAP1 SWAP2 SWAP1 SWAP2 PUSH2 0x100 EXP DUP2 SLOAD DUP2 PUSH20 0xFFFFFFFFFFFFFFFFFFFFFFFFFFFFFFFFFFFFFFFF MUL NOT AND SWAP1 DUP4 PUSH20 0xFFFFFFFFFFFFFFFFFFFFFFFFFFFFFFFFFFFFFFFF AND MUL OR SWAP1 SSTORE POP PUSH1 0x1 PUSH1 0x2 PUSH1 0x0 DUP6 PUSH20 0xFFFFFFFFFFFFFFFFFFFFFFFFFFFFFFFFFFFFFFFF AND PUSH20 0xFFFFFFFFFFFFFFFFFFFFFFFFFFFFFFFFFFFFFFFF AND DUP2 MSTORE PUSH1 0x20 ADD SWAP1 DUP2 MSTORE PUSH1 0x20 ADD PUSH1 0x0 KECCAK256 PUSH1 0x0 DUP3 DUP3 SLOAD PUSH2 0xBC8 SWAP2 SWAP1 PUSH2 0x1B09 JUMP JUMPDEST SWAP3 POP POP DUP2 SWAP1 SSTORE POP POP POP POP JUMP JUMPDEST PUSH1 0x60 CALLER PUSH1 0x6 PUSH1 0x0 SWAP1 SLOAD SWAP1 PUSH2 0x100 EXP SWAP1 DIV PUSH20 0xFFFFFFFFFFFFFFFFFFFFFFFFFFFFFFFFFFFFFFFF AND PUSH20 0xFFFFFFFFFFFFFFFFFFFFFFFFFFFFFFFFFFFFFFFF AND PUSH4 0x39AC7A08 DUP3 PUSH1 0x7 PUSH1 0x0 SWAP1 SLOAD SWAP1 PUSH2 0x100 EXP SWAP1 DIV PUSH20 0xFFFFFFFFFFFFFFFFFFFFFFFFFFFFFFFFFFFFFFFF AND PUSH1 0x40 MLOAD DUP4 PUSH4 0xFFFFFFFF AND PUSH1 0xE0 SHL DUP2 MSTORE PUSH1 0x4 ADD PUSH2 0xC56 SWAP3 SWAP2 SWAP1 PUSH2 0x170C JUMP JUMPDEST PUSH1 0x20 PUSH1 0x40 MLOAD DUP1 DUP4 SUB DUP2 DUP7 GAS STATICCALL ISZERO DUP1 ISZERO PUSH2 0xC73 JUMPI RETURNDATASIZE PUSH1 0x0 DUP1 RETURNDATACOPY RETURNDATASIZE PUSH1 0x0 REVERT JUMPDEST POP POP POP POP PUSH1 0x40 MLOAD RETURNDATASIZE PUSH1 0x1F NOT PUSH1 0x1F DUP3 ADD AND DUP3 ADD DUP1 PUSH1 0x40 MSTORE POP DUP2 ADD SWAP1 PUSH2 0xC97 SWAP2 SWAP1 PUSH2 0x176D JUMP JUMPDEST PUSH2 0xCD6 JUMPI PUSH1 0x40 MLOAD PUSH32 0x8C379A000000000000000000000000000000000000000000000000000000000 DUP2 MSTORE PUSH1 0x4 ADD PUSH2 0xCCD SWAP1 PUSH2 0x17E6 JUMP JUMPDEST PUSH1 0x40 MLOAD DUP1 SWAP2 SUB SWAP1 REVERT JUMPDEST PUSH1 0x0 DUP1 SLOAD DUP1 PUSH1 0x20 MUL PUSH1 0x20 ADD PUSH1 0x40 MLOAD SWAP1 DUP2 ADD PUSH1 0x40 MSTORE DUP1 SWAP3 SWAP2 SWAP1 DUP2 DUP2 MSTORE PUSH1 0x20 ADD DUP3 DUP1 SLOAD DUP1 ISZERO PUSH2 0xD58 JUMPI PUSH1 0x20 MUL DUP3 ADD SWAP2 SWAP1 PUSH1 0x0 MSTORE PUSH1 0x20 PUSH1 0x0 KECCAK256 SWAP1 JUMPDEST DUP2 PUSH1 0x0 SWAP1 SLOAD SWAP1 PUSH2 0x100 EXP SWAP1 DIV PUSH20 0xFFFFFFFFFFFFFFFFFFFFFFFFFFFFFFFFFFFFFFFF AND PUSH20 0xFFFFFFFFFFFFFFFFFFFFFFFFFFFFFFFFFFFFFFFF AND DUP2 MSTORE PUSH1 0x20 ADD SWAP1 PUSH1 0x1 ADD SWAP1 DUP1 DUP4 GT PUSH2 0xD0E JUMPI JUMPDEST POP POP POP POP POP SWAP2 POP POP SWAP1 JUMP JUMPDEST PUSH1 0x0 DUP2 DUP2 SLOAD DUP2 LT PUSH2 0xD73 JUMPI PUSH1 0x0 DUP1 REVERT JUMPDEST SWAP1 PUSH1 0x0 MSTORE PUSH1 0x20 PUSH1 0x0 KECCAK256 ADD PUSH1 0x0 SWAP2 POP SLOAD SWAP1 PUSH2 0x100 EXP SWAP1 DIV PUSH20 0xFFFFFFFFFFFFFFFFFFFFFFFFFFFFFFFFFFFFFFFF AND DUP2 JUMP JUMPDEST PUSH1 0x0 PUSH1 0x5 PUSH1 0x0 DUP4 PUSH20 0xFFFFFFFFFFFFFFFFFFFFFFFFFFFFFFFFFFFFFFFF AND PUSH20 0xFFFFFFFFFFFFFFFFFFFFFFFFFFFFFFFFFFFFFFFF AND DUP2 MSTORE PUSH1 0x20 ADD SWAP1 DUP2 MSTORE PUSH1 0x20 ADD PUSH1 0x0 KECCAK256 SLOAD SWAP1 POP SWAP2 SWAP1 POP JUMP JUMPDEST PUSH1 0x0 PUSH1 0x1 PUSH1 0x0 DUP4 PUSH20 0xFFFFFFFFFFFFFFFFFFFFFFFFFFFFFFFFFFFFFFFF AND PUSH20 0xFFFFFFFFFFFFFFFFFFFFFFFFFFFFFFFFFFFFFFFF AND DUP2 MSTORE PUSH1 0x20 ADD SWAP1 DUP2 MSTORE PUSH1 0x20 ADD PUSH1 0x0 KECCAK256 DUP1 SLOAD SWAP1 POP SWAP1 POP SWAP2 SWAP1 POP JUMP JUMPDEST DUP1 PUSH1 0x7 PUSH1 0x0 PUSH2 0x100 EXP DUP2 SLOAD DUP2 PUSH20 0xFFFFFFFFFFFFFFFFFFFFFFFFFFFFFFFFFFFFFFFF MUL NOT AND SWAP1 DUP4 PUSH20 0xFFFFFFFFFFFFFFFFFFFFFFFFFFFFFFFFFFFFFFFF AND MUL OR SWAP1 SSTORE POP POP JUMP JUMPDEST PUSH1 0x6 PUSH1 0x0 SWAP1 SLOAD SWAP1 PUSH2 0x100 EXP SWAP1 DIV PUSH20 0xFFFFFFFFFFFFFFFFFFFFFFFFFFFFFFFFFFFFFFFF AND PUSH20 0xFFFFFFFFFFFFFFFFFFFFFFFFFFFFFFFFFFFFFFFF AND PUSH4 0x39AC7A08 CALLER PUSH1 0x7 PUSH1 0x0 SWAP1 SLOAD SWAP1 PUSH2 0x100 EXP SWAP1 DIV PUSH20 0xFFFFFFFFFFFFFFFFFFFFFFFFFFFFFFFFFFFFFFFF AND PUSH1 0x40 MLOAD DUP4 PUSH4 0xFFFFFFFF AND PUSH1 0xE0 SHL DUP2 MSTORE PUSH1 0x4 ADD PUSH2 0xEFA SWAP3 SWAP2 SWAP1 PUSH2 0x170C JUMP JUMPDEST PUSH1 0x20 PUSH1 0x40 MLOAD DUP1 DUP4 SUB DUP2 DUP7 GAS STATICCALL ISZERO DUP1 ISZERO PUSH2 0xF17 JUMPI RETURNDATASIZE PUSH1 0x0 DUP1 RETURNDATACOPY RETURNDATASIZE PUSH1 0x0 REVERT JUMPDEST POP POP POP POP PUSH1 0x40 MLOAD RETURNDATASIZE PUSH1 0x1F NOT PUSH1 0x1F DUP3 ADD AND DUP3 ADD DUP1 PUSH1 0x40 MSTORE POP DUP2 ADD SWAP1 PUSH2 0xF3B SWAP2 SWAP1 PUSH2 0x176D JUMP JUMPDEST ISZERO PUSH2 0xF7B JUMPI PUSH1 0x40 MLOAD PUSH32 0x8C379A000000000000000000000000000000000000000000000000000000000 DUP2 MSTORE PUSH1 0x4 ADD PUSH2 0xF72 SWAP1 PUSH2 0x1B99 JUMP JUMPDEST PUSH1 0x40 MLOAD DUP1 SWAP2 SUB SWAP1 REVERT JUMPDEST PUSH1 0x3 PUSH1 0x0 CALLER PUSH20 0xFFFFFFFFFFFFFFFFFFFFFFFFFFFFFFFFFFFFFFFF AND PUSH20 0xFFFFFFFFFFFFFFFFFFFFFFFFFFFFFFFFFFFFFFFF AND DUP2 MSTORE PUSH1 0x20 ADD SWAP1 DUP2 MSTORE PUSH1 0x20 ADD PUSH1 0x0 KECCAK256 PUSH1 0x0 SWAP1 SLOAD SWAP1 PUSH2 0x100 EXP SWAP1 DIV PUSH1 0xFF AND ISZERO PUSH2 0x1008 JUMPI PUSH1 0x40 MLOAD PUSH32 0x8C379A000000000000000000000000000000000000000000000000000000000 DUP2 MSTORE PUSH1 0x4 ADD PUSH2 0xFFF SWAP1 PUSH2 0x1C05 JUMP JUMPDEST PUSH1 0x40 MLOAD DUP1 SWAP2 SUB SWAP1 REVERT JUMPDEST PUSH32 0xFFFFFFFFFFFFFFFFFFFFFFFFFFFFFFFFFFFFFFFFFFFFFFFFFFFFFFFFFFFFFFFD PUSH1 0x2 PUSH1 0x0 CALLER PUSH20 0xFFFFFFFFFFFFFFFFFFFFFFFFFFFFFFFFFFFFFFFF AND PUSH20 0xFFFFFFFFFFFFFFFFFFFFFFFFFFFFFFFFFFFFFFFF AND DUP2 MSTORE PUSH1 0x20 ADD SWAP1 DUP2 MSTORE PUSH1 0x20 ADD PUSH1 0x0 KECCAK256 SLOAD SGT PUSH2 0x10A9 JUMPI PUSH1 0x40 MLOAD PUSH32 0x8C379A000000000000000000000000000000000000000000000000000000000 DUP2 MSTORE PUSH1 0x4 ADD PUSH2 0x10A0 SWAP1 PUSH2 0x1C71 JUMP JUMPDEST PUSH1 0x40 MLOAD DUP1 SWAP2 SUB SWAP1 REVERT JUMPDEST DUP2 DUP2 PUSH1 0x4 PUSH1 0x0 CALLER PUSH20 0xFFFFFFFFFFFFFFFFFFFFFFFFFFFFFFFFFFFFFFFF AND PUSH20 0xFFFFFFFFFFFFFFFFFFFFFFFFFFFFFFFFFFFFFFFF AND DUP2 MSTORE PUSH1 0x20 ADD SWAP1 DUP2 MSTORE PUSH1 0x20 ADD PUSH1 0x0 KECCAK256 SWAP2 DUP3 PUSH2 0x10F7 SWAP3 SWAP2 SWAP1 PUSH2 0x1E77 JUMP JUMPDEST POP PUSH1 0x0 CALLER SWAP1 DUP1 PUSH1 0x1 DUP2 SLOAD ADD DUP1 DUP3 SSTORE DUP1 SWAP2 POP POP PUSH1 0x1 SWAP1 SUB SWAP1 PUSH1 0x0 MSTORE PUSH1 0x20 PUSH1 0x0 KECCAK256 ADD PUSH1 0x0 SWAP1 SWAP2 SWAP1 SWAP2 SWAP1 SWAP2 PUSH2 0x100 EXP DUP2 SLOAD DUP2 PUSH20 0xFFFFFFFFFFFFFFFFFFFFFFFFFFFFFFFFFFFFFFFF MUL NOT AND SWAP1 DUP4 PUSH20 0xFFFFFFFFFFFFFFFFFFFFFFFFFFFFFFFFFFFFFFFF AND MUL OR SWAP1 SSTORE POP PUSH4 0xF731400 TIMESTAMP PUSH2 0x116B SWAP2 SWAP1 PUSH2 0x1F47 JUMP JUMPDEST PUSH1 0x5 PUSH1 0x0 CALLER PUSH20 0xFFFFFFFFFFFFFFFFFFFFFFFFFFFFFFFFFFFFFFFF AND PUSH20 0xFFFFFFFFFFFFFFFFFFFFFFFFFFFFFFFFFFFFFFFF AND DUP2 MSTORE PUSH1 0x20 ADD SWAP1 DUP2 MSTORE PUSH1 0x20 ADD PUSH1 0x0 KECCAK256 DUP2 SWAP1 SSTORE POP POP POP JUMP JUMPDEST PUSH1 0x0 JUMPDEST PUSH1 0x0 DUP1 SLOAD SWAP1 POP DUP2 LT ISZERO PUSH2 0x1247 JUMPI DUP2 PUSH20 0xFFFFFFFFFFFFFFFFFFFFFFFFFFFFFFFFFFFFFFFF AND PUSH1 0x0 DUP3 DUP2 SLOAD DUP2 LT PUSH2 0x11ED JUMPI PUSH2 0x11EC PUSH2 0x1A26 JUMP JUMPDEST JUMPDEST SWAP1 PUSH1 0x0 MSTORE PUSH1 0x20 PUSH1 0x0 KECCAK256 ADD PUSH1 0x0 SWAP1 SLOAD SWAP1 PUSH2 0x100 EXP SWAP1 DIV PUSH20 0xFFFFFFFFFFFFFFFFFFFFFFFFFFFFFFFFFFFFFFFF AND PUSH20 0xFFFFFFFFFFFFFFFFFFFFFFFFFFFFFFFFFFFFFFFF AND SUB ISZERO PUSH2 0x1247 JUMPI DUP1 DUP1 PUSH2 0x123F SWAP1 PUSH2 0x1A55 JUMP JUMPDEST SWAP2 POP POP PUSH2 0x11B5 JUMP JUMPDEST PUSH1 0x0 PUSH1 0x1 PUSH1 0x0 DUP1 SLOAD SWAP1 POP PUSH2 0x125B SWAP2 SWAP1 PUSH2 0x1F7B JUMP JUMPDEST DUP2 SLOAD DUP2 LT PUSH2 0x126C JUMPI PUSH2 0x126B PUSH2 0x1A26 JUMP JUMPDEST JUMPDEST SWAP1 PUSH1 0x0 MSTORE PUSH1 0x20 PUSH1 0x0 KECCAK256 ADD PUSH1 0x0 SWAP1 SLOAD SWAP1 PUSH2 0x100 EXP SWAP1 DIV PUSH20 0xFFFFFFFFFFFFFFFFFFFFFFFFFFFFFFFFFFFFFFFF AND PUSH1 0x0 DUP3 DUP2 SLOAD DUP2 LT PUSH2 0x12AB JUMPI PUSH2 0x12AA PUSH2 0x1A26 JUMP JUMPDEST JUMPDEST SWAP1 PUSH1 0x0 MSTORE PUSH1 0x20 PUSH1 0x0 KECCAK256 ADD PUSH1 0x0 PUSH2 0x100 EXP DUP2 SLOAD DUP2 PUSH20 0xFFFFFFFFFFFFFFFFFFFFFFFFFFFFFFFFFFFFFFFF MUL NOT AND SWAP1 DUP4 PUSH20 0xFFFFFFFFFFFFFFFFFFFFFFFFFFFFFFFFFFFFFFFF AND MUL OR SWAP1 SSTORE POP PUSH1 0x0 DUP1 SLOAD DUP1 PUSH2 0x1305 JUMPI PUSH2 0x1304 PUSH2 0x1FAF JUMP JUMPDEST JUMPDEST PUSH1 0x1 SWAP1 SUB DUP2 DUP2 SWAP1 PUSH1 0x0 MSTORE PUSH1 0x20 PUSH1 0x0 KECCAK256 ADD PUSH1 0x0 PUSH2 0x100 EXP DUP2 SLOAD SWAP1 PUSH20 0xFFFFFFFFFFFFFFFFFFFFFFFFFFFFFFFFFFFFFFFF MUL NOT AND SWAP1 SSTORE SWAP1 SSTORE POP POP JUMP JUMPDEST POP DUP1 SLOAD PUSH1 0x0 DUP3 SSTORE SWAP1 PUSH1 0x0 MSTORE PUSH1 0x20 PUSH1 0x0 KECCAK256 SWAP1 DUP2 ADD SWAP1 PUSH2 0x135C SWAP2 SWAP1 PUSH2 0x135F JUMP JUMPDEST POP JUMP JUMPDEST JUMPDEST DUP1 DUP3 GT ISZERO PUSH2 0x1378 JUMPI PUSH1 0x0 DUP2 PUSH1 0x0 SWAP1 SSTORE POP PUSH1 0x1 ADD PUSH2 0x1360 JUMP JUMPDEST POP SWAP1 JUMP JUMPDEST PUSH1 0x0 DUP1 REVERT JUMPDEST PUSH1 0x0 DUP1 REVERT JUMPDEST PUSH1 0x0 PUSH20 0xFFFFFFFFFFFFFFFFFFFFFFFFFFFFFFFFFFFFFFFF DUP3 AND SWAP1 POP SWAP2 SWAP1 POP JUMP JUMPDEST PUSH1 0x0 PUSH2 0x13B1 DUP3 PUSH2 0x1386 JUMP JUMPDEST SWAP1 POP SWAP2 SWAP1 POP JUMP JUMPDEST PUSH2 0x13C1 DUP2 PUSH2 0x13A6 JUMP JUMPDEST DUP2 EQ PUSH2 0x13CC JUMPI PUSH1 0x0 DUP1 REVERT JUMPDEST POP JUMP JUMPDEST PUSH1 0x0 DUP2 CALLDATALOAD SWAP1 POP PUSH2 0x13DE DUP2 PUSH2 0x13B8 JUMP JUMPDEST SWAP3 SWAP2 POP POP JUMP JUMPDEST PUSH1 0x0 PUSH1 0x20 DUP3 DUP5 SUB SLT ISZERO PUSH2 0x13FA JUMPI PUSH2 0x13F9 PUSH2 0x137C JUMP JUMPDEST JUMPDEST PUSH1 0x0 PUSH2 0x1408 DUP5 DUP3 DUP6 ADD PUSH2 0x13CF JUMP JUMPDEST SWAP2 POP POP SWAP3 SWAP2 POP POP JUMP JUMPDEST PUSH1 0x0 DUP2 MLOAD SWAP1 POP SWAP2 SWAP1 POP JUMP JUMPDEST PUSH1 0x0 DUP3 DUP3 MSTORE PUSH1 0x20 DUP3 ADD SWAP1 POP SWAP3 SWAP2 POP POP JUMP JUMPDEST PUSH1 0x0 JUMPDEST DUP4 DUP2 LT ISZERO PUSH2 0x144B JUMPI DUP1 DUP3 ADD MLOAD DUP2 DUP5 ADD MSTORE PUSH1 0x20 DUP2 ADD SWAP1 POP PUSH2 0x1430 JUMP JUMPDEST PUSH1 0x0 DUP5 DUP5 ADD MSTORE POP POP POP POP JUMP JUMPDEST PUSH1 0x0 PUSH1 0x1F NOT PUSH1 0x1F DUP4 ADD AND SWAP1 POP SWAP2 SWAP1 POP JUMP JUMPDEST PUSH1 0x0 PUSH2 0x1473 DUP3 PUSH2 0x1411 JUMP JUMPDEST PUSH2 0x147D DUP2 DUP6 PUSH2 0x141C JUMP JUMPDEST SWAP4 POP PUSH2 0x148D DUP2 DUP6 PUSH1 0x20 DUP7 ADD PUSH2 0x142D JUMP JUMPDEST PUSH2 0x1496 DUP2 PUSH2 0x1457 JUMP JUMPDEST DUP5 ADD SWAP2 POP POP SWAP3 SWAP2 POP POP JUMP JUMPDEST PUSH1 0x0 PUSH1 0x20 DUP3 ADD SWAP1 POP DUP2 DUP2 SUB PUSH1 0x0 DUP4 ADD MSTORE PUSH2 0x14BB DUP2 DUP5 PUSH2 0x1468 JUMP JUMPDEST SWAP1 POP SWAP3 SWAP2 POP POP JUMP JUMPDEST PUSH1 0x0 DUP2 MLOAD SWAP1 POP SWAP2 SWAP1 POP JUMP JUMPDEST PUSH1 0x0 DUP3 DUP3 MSTORE PUSH1 0x20 DUP3 ADD SWAP1 POP SWAP3 SWAP2 POP POP JUMP JUMPDEST PUSH1 0x0 DUP2 SWAP1 POP PUSH1 0x20 DUP3 ADD SWAP1 POP SWAP2 SWAP1 POP JUMP JUMPDEST PUSH2 0x14F8 DUP2 PUSH2 0x13A6 JUMP JUMPDEST DUP3 MSTORE POP POP JUMP JUMPDEST PUSH1 0x0 PUSH2 0x150A DUP4 DUP4 PUSH2 0x14EF JUMP JUMPDEST PUSH1 0x20 DUP4 ADD SWAP1 POP SWAP3 SWAP2 POP POP JUMP JUMPDEST PUSH1 0x0 PUSH1 0x20 DUP3 ADD SWAP1 POP SWAP2 SWAP1 POP JUMP JUMPDEST PUSH1 0x0 PUSH2 0x152E DUP3 PUSH2 0x14C3 JUMP JUMPDEST PUSH2 0x1538 DUP2 DUP6 PUSH2 0x14CE JUMP JUMPDEST SWAP4 POP PUSH2 0x1543 DUP4 PUSH2 0x14DF JUMP JUMPDEST DUP1 PUSH1 0x0 JUMPDEST DUP4 DUP2 LT ISZERO PUSH2 0x1574 JUMPI DUP2 MLOAD PUSH2 0x155B DUP9 DUP3 PUSH2 0x14FE JUMP JUMPDEST SWAP8 POP PUSH2 0x1566 DUP4 PUSH2 0x1516 JUMP JUMPDEST SWAP3 POP POP PUSH1 0x1 DUP2 ADD SWAP1 POP PUSH2 0x1547 JUMP JUMPDEST POP DUP6 SWAP4 POP POP POP POP SWAP3 SWAP2 POP POP JUMP JUMPDEST PUSH1 0x0 PUSH1 0x20 DUP3 ADD SWAP1 POP DUP2 DUP2 SUB PUSH1 0x0 DUP4 ADD MSTORE PUSH2 0x159B DUP2 DUP5 PUSH2 0x1523 JUMP JUMPDEST SWAP1 POP SWAP3 SWAP2 POP POP JUMP JUMPDEST PUSH1 0x0 DUP2 SWAP1 POP SWAP2 SWAP1 POP JUMP JUMPDEST PUSH2 0x15B6 DUP2 PUSH2 0x15A3 JUMP JUMPDEST DUP2 EQ PUSH2 0x15C1 JUMPI PUSH1 0x0 DUP1 REVERT JUMPDEST POP JUMP JUMPDEST PUSH1 0x0 DUP2 CALLDATALOAD SWAP1 POP PUSH2 0x15D3 DUP2 PUSH2 0x15AD JUMP JUMPDEST SWAP3 SWAP2 POP POP JUMP JUMPDEST PUSH1 0x0 PUSH1 0x20 DUP3 DUP5 SUB SLT ISZERO PUSH2 0x15EF JUMPI PUSH2 0x15EE PUSH2 0x137C JUMP JUMPDEST JUMPDEST PUSH1 0x0 PUSH2 0x15FD DUP5 DUP3 DUP6 ADD PUSH2 0x15C4 JUMP JUMPDEST SWAP2 POP POP SWAP3 SWAP2 POP POP JUMP JUMPDEST PUSH2 0x160F DUP2 PUSH2 0x13A6 JUMP JUMPDEST DUP3 MSTORE POP POP JUMP JUMPDEST PUSH1 0x0 PUSH1 0x20 DUP3 ADD SWAP1 POP PUSH2 0x162A PUSH1 0x0 DUP4 ADD DUP5 PUSH2 0x1606 JUMP JUMPDEST SWAP3 SWAP2 POP POP JUMP JUMPDEST PUSH2 0x1639 DUP2 PUSH2 0x15A3 JUMP JUMPDEST DUP3 MSTORE POP POP JUMP JUMPDEST PUSH1 0x0 PUSH1 0x20 DUP3 ADD SWAP1 POP PUSH2 0x1654 PUSH1 0x0 DUP4 ADD DUP5 PUSH2 0x1630 JUMP JUMPDEST SWAP3 SWAP2 POP POP JUMP JUMPDEST PUSH1 0x0 DUP1 REVERT JUMPDEST PUSH1 0x0 DUP1 REVERT JUMPDEST PUSH1 0x0 DUP1 REVERT JUMPDEST PUSH1 0x0 DUP1 DUP4 PUSH1 0x1F DUP5 ADD SLT PUSH2 0x167F JUMPI PUSH2 0x167E PUSH2 0x165A JUMP JUMPDEST JUMPDEST DUP3 CALLDATALOAD SWAP1 POP PUSH8 0xFFFFFFFFFFFFFFFF DUP2 GT ISZERO PUSH2 0x169C JUMPI PUSH2 0x169B PUSH2 0x165F JUMP JUMPDEST JUMPDEST PUSH1 0x20 DUP4 ADD SWAP2 POP DUP4 PUSH1 0x1 DUP3 MUL DUP4 ADD GT ISZERO PUSH2 0x16B8 JUMPI PUSH2 0x16B7 PUSH2 0x1664 JUMP JUMPDEST JUMPDEST SWAP3 POP SWAP3 SWAP1 POP JUMP JUMPDEST PUSH1 0x0 DUP1 PUSH1 0x20 DUP4 DUP6 SUB SLT ISZERO PUSH2 0x16D6 JUMPI PUSH2 0x16D5 PUSH2 0x137C JUMP JUMPDEST JUMPDEST PUSH1 0x0 DUP4 ADD CALLDATALOAD PUSH8 0xFFFFFFFFFFFFFFFF DUP2 GT ISZERO PUSH2 0x16F4 JUMPI PUSH2 0x16F3 PUSH2 0x1381 JUMP JUMPDEST JUMPDEST PUSH2 0x1700 DUP6 DUP3 DUP7 ADD PUSH2 0x1669 JUMP JUMPDEST SWAP3 POP SWAP3 POP POP SWAP3 POP SWAP3 SWAP1 POP JUMP JUMPDEST PUSH1 0x0 PUSH1 0x40 DUP3 ADD SWAP1 POP PUSH2 0x1721 PUSH1 0x0 DUP4 ADD DUP6 PUSH2 0x1606 JUMP JUMPDEST PUSH2 0x172E PUSH1 0x20 DUP4 ADD DUP5 PUSH2 0x1606 JUMP JUMPDEST SWAP4 SWAP3 POP POP POP JUMP JUMPDEST PUSH1 0x0 DUP2 ISZERO ISZERO SWAP1 POP SWAP2 SWAP1 POP JUMP JUMPDEST PUSH2 0x174A DUP2 PUSH2 0x1735 JUMP JUMPDEST DUP2 EQ PUSH2 0x1755 JUMPI PUSH1 0x0 DUP1 REVERT JUMPDEST POP JUMP JUMPDEST PUSH1 0x0 DUP2 MLOAD SWAP1 POP PUSH2 0x1767 DUP2 PUSH2 0x1741 JUMP JUMPDEST SWAP3 SWAP2 POP POP JUMP JUMPDEST PUSH1 0x0 PUSH1 0x20 DUP3 DUP5 SUB SLT ISZERO PUSH2 0x1783 JUMPI PUSH2 0x1782 PUSH2 0x137C JUMP JUMPDEST JUMPDEST PUSH1 0x0 PUSH2 0x1791 DUP5 DUP3 DUP6 ADD PUSH2 0x1758 JUMP JUMPDEST SWAP2 POP POP SWAP3 SWAP2 POP POP JUMP JUMPDEST PUSH32 0x526571756972656420746F2062652061206D656D656265720000000000000000 PUSH1 0x0 DUP3 ADD MSTORE POP JUMP JUMPDEST PUSH1 0x0 PUSH2 0x17D0 PUSH1 0x18 DUP4 PUSH2 0x141C JUMP JUMPDEST SWAP2 POP PUSH2 0x17DB DUP3 PUSH2 0x179A JUMP JUMPDEST PUSH1 0x20 DUP3 ADD SWAP1 POP SWAP2 SWAP1 POP JUMP JUMPDEST PUSH1 0x0 PUSH1 0x20 DUP3 ADD SWAP1 POP DUP2 DUP2 SUB PUSH1 0x0 DUP4 ADD MSTORE PUSH2 0x17FF DUP2 PUSH2 0x17C3 JUMP JUMPDEST SWAP1 POP SWAP2 SWAP1 POP JUMP JUMPDEST PUSH32 0x4E487B7100000000000000000000000000000000000000000000000000000000 PUSH1 0x0 MSTORE PUSH1 0x22 PUSH1 0x4 MSTORE PUSH1 0x24 PUSH1 0x0 REVERT JUMPDEST PUSH1 0x0 PUSH1 0x2 DUP3 DIV SWAP1 POP PUSH1 0x1 DUP3 AND DUP1 PUSH2 0x184D JUMPI PUSH1 0x7F DUP3 AND SWAP2 POP JUMPDEST PUSH1 0x20 DUP3 LT DUP2 SUB PUSH2 0x1860 JUMPI PUSH2 0x185F PUSH2 0x1806 JUMP JUMPDEST JUMPDEST POP SWAP2 SWAP1 POP JUMP JUMPDEST PUSH32 0x4163636573732044656E69656400000000000000000000000000000000000000 PUSH1 0x0 DUP3 ADD MSTORE POP JUMP JUMPDEST PUSH1 0x0 PUSH2 0x189C PUSH1 0xD DUP4 PUSH2 0x141C JUMP JUMPDEST SWAP2 POP PUSH2 0x18A7 DUP3 PUSH2 0x1866 JUMP JUMPDEST PUSH1 0x20 DUP3 ADD SWAP1 POP SWAP2 SWAP1 POP JUMP JUMPDEST PUSH1 0x0 PUSH1 0x20 DUP3 ADD SWAP1 POP DUP2 DUP2 SUB PUSH1 0x0 DUP4 ADD MSTORE PUSH2 0x18CB DUP2 PUSH2 0x188F JUMP JUMPDEST SWAP1 POP SWAP2 SWAP1 POP JUMP JUMPDEST PUSH32 0x496E76616C6964206170706C6963616E74206164647265737300000000000000 PUSH1 0x0 DUP3 ADD MSTORE POP JUMP JUMPDEST PUSH1 0x0 PUSH2 0x1908 PUSH1 0x19 DUP4 PUSH2 0x141C JUMP JUMPDEST SWAP2 POP PUSH2 0x1913 DUP3 PUSH2 0x18D2 JUMP JUMPDEST PUSH1 0x20 DUP3 ADD SWAP1 POP SWAP2 SWAP1 POP JUMP JUMPDEST PUSH1 0x0 PUSH1 0x20 DUP3 ADD SWAP1 POP DUP2 DUP2 SUB PUSH1 0x0 DUP4 ADD MSTORE PUSH2 0x1937 DUP2 PUSH2 0x18FB JUMP JUMPDEST SWAP1 POP SWAP2 SWAP1 POP JUMP JUMPDEST PUSH1 0x0 DUP2 SWAP1 POP SWAP2 SWAP1 POP JUMP JUMPDEST PUSH32 0x4E487B7100000000000000000000000000000000000000000000000000000000 PUSH1 0x0 MSTORE PUSH1 0x11 PUSH1 0x4 MSTORE PUSH1 0x24 PUSH1 0x0 REVERT JUMPDEST PUSH1 0x0 PUSH2 0x1982 DUP3 PUSH2 0x193E JUMP JUMPDEST SWAP2 POP PUSH2 0x198D DUP4 PUSH2 0x193E JUMP JUMPDEST SWAP3 POP DUP3 DUP3 SUB SWAP1 POP DUP2 DUP2 SLT PUSH1 0x0 DUP5 SLT AND DUP3 DUP3 SGT PUSH1 0x0 DUP6 SLT ISZERO AND OR ISZERO PUSH2 0x19B4 JUMPI PUSH2 0x19B3 PUSH2 0x1948 JUMP JUMPDEST JUMPDEST SWAP3 SWAP2 POP POP JUMP JUMPDEST PUSH32 0x4E6F742061206170706C6963616E740000000000000000000000000000000000 PUSH1 0x0 DUP3 ADD MSTORE POP JUMP JUMPDEST PUSH1 0x0 PUSH2 0x19F0 PUSH1 0xF DUP4 PUSH2 0x141C JUMP JUMPDEST SWAP2 POP PUSH2 0x19FB DUP3 PUSH2 0x19BA JUMP JUMPDEST PUSH1 0x20 DUP3 ADD SWAP1 POP SWAP2 SWAP1 POP JUMP JUMPDEST PUSH1 0x0 PUSH1 0x20 DUP3 ADD SWAP1 POP DUP2 DUP2 SUB PUSH1 0x0 DUP4 ADD MSTORE PUSH2 0x1A1F DUP2 PUSH2 0x19E3 JUMP JUMPDEST SWAP1 POP SWAP2 SWAP1 POP JUMP JUMPDEST PUSH32 0x4E487B7100000000000000000000000000000000000000000000000000000000 PUSH1 0x0 MSTORE PUSH1 0x32 PUSH1 0x4 MSTORE PUSH1 0x24 PUSH1 0x0 REVERT JUMPDEST PUSH1 0x0 PUSH2 0x1A60 DUP3 PUSH2 0x15A3 JUMP JUMPDEST SWAP2 POP PUSH32 0xFFFFFFFFFFFFFFFFFFFFFFFFFFFFFFFFFFFFFFFFFFFFFFFFFFFFFFFFFFFFFFFF DUP3 SUB PUSH2 0x1A92 JUMPI PUSH2 0x1A91 PUSH2 0x1948 JUMP JUMPDEST JUMPDEST PUSH1 0x1 DUP3 ADD SWAP1 POP SWAP2 SWAP1 POP JUMP JUMPDEST PUSH32 0x53656E64657220616C726561647920766F746564000000000000000000000000 PUSH1 0x0 DUP3 ADD MSTORE POP JUMP JUMPDEST PUSH1 0x0 PUSH2 0x1AD3 PUSH1 0x14 DUP4 PUSH2 0x141C JUMP JUMPDEST SWAP2 POP PUSH2 0x1ADE DUP3 PUSH2 0x1A9D JUMP JUMPDEST PUSH1 0x20 DUP3 ADD SWAP1 POP SWAP2 SWAP1 POP JUMP JUMPDEST PUSH1 0x0 PUSH1 0x20 DUP3 ADD SWAP1 POP DUP2 DUP2 SUB PUSH1 0x0 DUP4 ADD MSTORE PUSH2 0x1B02 DUP2 PUSH2 0x1AC6 JUMP JUMPDEST SWAP1 POP SWAP2 SWAP1 POP JUMP JUMPDEST PUSH1 0x0 PUSH2 0x1B14 DUP3 PUSH2 0x193E JUMP JUMPDEST SWAP2 POP PUSH2 0x1B1F DUP4 PUSH2 0x193E JUMP JUMPDEST SWAP3 POP DUP3 DUP3 ADD SWAP1 POP DUP3 DUP2 SLT ISZERO PUSH1 0x0 DUP4 SLT AND DUP4 DUP3 SLT PUSH1 0x0 DUP5 SLT ISZERO AND OR ISZERO PUSH2 0x1B47 JUMPI PUSH2 0x1B46 PUSH2 0x1948 JUMP JUMPDEST JUMPDEST SWAP3 SWAP2 POP POP JUMP JUMPDEST PUSH32 0x416C726561647920616374697665206D656D6265720000000000000000000000 PUSH1 0x0 DUP3 ADD MSTORE POP JUMP JUMPDEST PUSH1 0x0 PUSH2 0x1B83 PUSH1 0x15 DUP4 PUSH2 0x141C JUMP JUMPDEST SWAP2 POP PUSH2 0x1B8E DUP3 PUSH2 0x1B4D JUMP JUMPDEST PUSH1 0x20 DUP3 ADD SWAP1 POP SWAP2 SWAP1 POP JUMP JUMPDEST PUSH1 0x0 PUSH1 0x20 DUP3 ADD SWAP1 POP DUP2 DUP2 SUB PUSH1 0x0 DUP4 ADD MSTORE PUSH2 0x1BB2 DUP2 PUSH2 0x1B76 JUMP JUMPDEST SWAP1 POP SWAP2 SWAP1 POP JUMP JUMPDEST PUSH32 0x416C726561647920616374697665206170706C6963616E740000000000000000 PUSH1 0x0 DUP3 ADD MSTORE POP JUMP JUMPDEST PUSH1 0x0 PUSH2 0x1BEF PUSH1 0x18 DUP4 PUSH2 0x141C JUMP JUMPDEST SWAP2 POP PUSH2 0x1BFA DUP3 PUSH2 0x1BB9 JUMP JUMPDEST PUSH1 0x20 DUP3 ADD SWAP1 POP SWAP2 SWAP1 POP JUMP JUMPDEST PUSH1 0x0 PUSH1 0x20 DUP3 ADD SWAP1 POP DUP2 DUP2 SUB PUSH1 0x0 DUP4 ADD MSTORE PUSH2 0x1C1E DUP2 PUSH2 0x1BE2 JUMP JUMPDEST SWAP1 POP SWAP2 SWAP1 POP JUMP JUMPDEST PUSH32 0x6163636F756E742072656A656374656400000000000000000000000000000000 PUSH1 0x0 DUP3 ADD MSTORE POP JUMP JUMPDEST PUSH1 0x0 PUSH2 0x1C5B PUSH1 0x10 DUP4 PUSH2 0x141C JUMP JUMPDEST SWAP2 POP PUSH2 0x1C66 DUP3 PUSH2 0x1C25 JUMP JUMPDEST PUSH1 0x20 DUP3 ADD SWAP1 POP SWAP2 SWAP1 POP JUMP JUMPDEST PUSH1 0x0 PUSH1 0x20 DUP3 ADD SWAP1 POP DUP2 DUP2 SUB PUSH1 0x0 DUP4 ADD MSTORE PUSH2 0x1C8A DUP2 PUSH2 0x1C4E JUMP JUMPDEST SWAP1 POP SWAP2 SWAP1 POP JUMP JUMPDEST PUSH1 0x0 DUP3 SWAP1 POP SWAP3 SWAP2 POP POP JUMP JUMPDEST PUSH32 0x4E487B7100000000000000000000000000000000000000000000000000000000 PUSH1 0x0 MSTORE PUSH1 0x41 PUSH1 0x4 MSTORE PUSH1 0x24 PUSH1 0x0 REVERT JUMPDEST PUSH1 0x0 DUP2 SWAP1 POP DUP2 PUSH1 0x0 MSTORE PUSH1 0x20 PUSH1 0x0 KECCAK256 SWAP1 POP SWAP2 SWAP1 POP JUMP JUMPDEST PUSH1 0x0 PUSH1 0x20 PUSH1 0x1F DUP4 ADD DIV SWAP1 POP SWAP2 SWAP1 POP JUMP JUMPDEST PUSH1 0x0 DUP3 DUP3 SHL SWAP1 POP SWAP3 SWAP2 POP POP JUMP JUMPDEST PUSH1 0x0 PUSH1 0x8 DUP4 MUL PUSH2 0x1D2D PUSH32 0xFFFFFFFFFFFFFFFFFFFFFFFFFFFFFFFFFFFFFFFFFFFFFFFFFFFFFFFFFFFFFFFF DUP3 PUSH2 0x1CF0 JUMP JUMPDEST PUSH2 0x1D37 DUP7 DUP4 PUSH2 0x1CF0 JUMP JUMPDEST SWAP6 POP DUP1 NOT DUP5 AND SWAP4 POP DUP1 DUP7 AND DUP5 OR SWAP3 POP POP POP SWAP4 SWAP3 POP POP POP JUMP JUMPDEST PUSH1 0x0 DUP2 SWAP1 POP SWAP2 SWAP1 POP JUMP JUMPDEST PUSH1 0x0 PUSH2 0x1D74 PUSH2 0x1D6F PUSH2 0x1D6A DUP5 PUSH2 0x15A3 JUMP JUMPDEST PUSH2 0x1D4F JUMP JUMPDEST PUSH2 0x15A3 JUMP JUMPDEST SWAP1 POP SWAP2 SWAP1 POP JUMP JUMPDEST PUSH1 0x0 DUP2 SWAP1 POP SWAP2 SWAP1 POP JUMP JUMPDEST PUSH2 0x1D8E DUP4 PUSH2 0x1D59 JUMP JUMPDEST PUSH2 0x1DA2 PUSH2 0x1D9A DUP3 PUSH2 0x1D7B JUMP JUMPDEST DUP5 DUP5 SLOAD PUSH2 0x1CFD JUMP JUMPDEST DUP3 SSTORE POP POP POP POP JUMP JUMPDEST PUSH1 0x0 SWAP1 JUMP JUMPDEST PUSH2 0x1DB7 PUSH2 0x1DAA JUMP JUMPDEST PUSH2 0x1DC2 DUP2 DUP5 DUP5 PUSH2 0x1D85 JUMP JUMPDEST POP POP POP JUMP JUMPDEST JUMPDEST DUP2 DUP2 LT ISZERO PUSH2 0x1DE6 JUMPI PUSH2 0x1DDB PUSH1 0x0 DUP3 PUSH2 0x1DAF JUMP JUMPDEST PUSH1 0x1 DUP2 ADD SWAP1 POP PUSH2 0x1DC8 JUMP JUMPDEST POP POP JUMP JUMPDEST PUSH1 0x1F DUP3 GT ISZERO PUSH2 0x1E2B JUMPI PUSH2 0x1DFC DUP2 PUSH2 0x1CCB JUMP JUMPDEST PUSH2 0x1E05 DUP5 PUSH2 0x1CE0 JUMP JUMPDEST DUP2 ADD PUSH1 0x20 DUP6 LT ISZERO PUSH2 0x1E14 JUMPI DUP2 SWAP1 POP JUMPDEST PUSH2 0x1E28 PUSH2 0x1E20 DUP6 PUSH2 0x1CE0 JUMP JUMPDEST DUP4 ADD DUP3 PUSH2 0x1DC7 JUMP JUMPDEST POP POP JUMPDEST POP POP POP JUMP JUMPDEST PUSH1 0x0 DUP3 DUP3 SHR SWAP1 POP SWAP3 SWAP2 POP POP JUMP JUMPDEST PUSH1 0x0 PUSH2 0x1E4E PUSH1 0x0 NOT DUP5 PUSH1 0x8 MUL PUSH2 0x1E30 JUMP JUMPDEST NOT DUP1 DUP4 AND SWAP2 POP POP SWAP3 SWAP2 POP POP JUMP JUMPDEST PUSH1 0x0 PUSH2 0x1E67 DUP4 DUP4 PUSH2 0x1E3D JUMP JUMPDEST SWAP2 POP DUP3 PUSH1 0x2 MUL DUP3 OR SWAP1 POP SWAP3 SWAP2 POP POP JUMP JUMPDEST PUSH2 0x1E81 DUP4 DUP4 PUSH2 0x1C91 JUMP JUMPDEST PUSH8 0xFFFFFFFFFFFFFFFF DUP2 GT ISZERO PUSH2 0x1E9A JUMPI PUSH2 0x1E99 PUSH2 0x1C9C JUMP JUMPDEST JUMPDEST PUSH2 0x1EA4 DUP3 SLOAD PUSH2 0x1835 JUMP JUMPDEST PUSH2 0x1EAF DUP3 DUP3 DUP6 PUSH2 0x1DEA JUMP JUMPDEST PUSH1 0x0 PUSH1 0x1F DUP4 GT PUSH1 0x1 DUP2 EQ PUSH2 0x1EDE JUMPI PUSH1 0x0 DUP5 ISZERO PUSH2 0x1ECC JUMPI DUP3 DUP8 ADD CALLDATALOAD SWAP1 POP JUMPDEST PUSH2 0x1ED6 DUP6 DUP3 PUSH2 0x1E5B JUMP JUMPDEST DUP7 SSTORE POP PUSH2 0x1F3E JUMP JUMPDEST PUSH1 0x1F NOT DUP5 AND PUSH2 0x1EEC DUP7 PUSH2 0x1CCB JUMP JUMPDEST PUSH1 0x0 JUMPDEST DUP3 DUP2 LT ISZERO PUSH2 0x1F14 JUMPI DUP5 DUP10 ADD CALLDATALOAD DUP3 SSTORE PUSH1 0x1 DUP3 ADD SWAP2 POP PUSH1 0x20 DUP6 ADD SWAP5 POP PUSH1 0x20 DUP2 ADD SWAP1 POP PUSH2 0x1EEF JUMP JUMPDEST DUP7 DUP4 LT ISZERO PUSH2 0x1F31 JUMPI DUP5 DUP10 ADD CALLDATALOAD PUSH2 0x1F2D PUSH1 0x1F DUP10 AND DUP3 PUSH2 0x1E3D JUMP JUMPDEST DUP4 SSTORE POP JUMPDEST PUSH1 0x1 PUSH1 0x2 DUP9 MUL ADD DUP9 SSTORE POP POP POP JUMPDEST POP POP POP POP POP POP POP JUMP JUMPDEST PUSH1 0x0 PUSH2 0x1F52 DUP3 PUSH2 0x15A3 JUMP JUMPDEST SWAP2 POP PUSH2 0x1F5D DUP4 PUSH2 0x15A3 JUMP JUMPDEST SWAP3 POP DUP3 DUP3 ADD SWAP1 POP DUP1 DUP3 GT ISZERO PUSH2 0x1F75 JUMPI PUSH2 0x1F74 PUSH2 0x1948 JUMP JUMPDEST JUMPDEST SWAP3 SWAP2 POP POP JUMP JUMPDEST PUSH1 0x0 PUSH2 0x1F86 DUP3 PUSH2 0x15A3 JUMP JUMPDEST SWAP2 POP PUSH2 0x1F91 DUP4 PUSH2 0x15A3 JUMP JUMPDEST SWAP3 POP DUP3 DUP3 SUB SWAP1 POP DUP2 DUP2 GT ISZERO PUSH2 0x1FA9 JUMPI PUSH2 0x1FA8 PUSH2 0x1948 JUMP JUMPDEST JUMPDEST SWAP3 SWAP2 POP POP JUMP JUMPDEST PUSH32 0x4E487B7100000000000000000000000000000000000000000000000000000000 PUSH1 0x0 MSTORE PUSH1 0x31 PUSH1 0x4 MSTORE PUSH1 0x24 PUSH1 0x0 REVERT INVALID LOG2 PUSH5 0x6970667358 0x22 SLT KECCAK256 INVALID CALLVALUE INVALID ORIGIN 0xBA PUSH1 0xF PUSH14 0xA0DAF1DEE0179876BD98BC057D65 DIV 0x5E SIGNEXTEND CALLDATALOAD DUP7 PUSH1 0x4A 0x4D 0xAD 0xBA PUSH5 0x736F6C6343 STOP ADDMOD GT STOP CALLER "},"gasEstimates":{"creation":{"codeDepositCost":"1642400","executionCost":"infinite","totalCost":"infinite"},"external":{"applicantList(uint256)":"4956","approveApplicant(address)":"infinite","createApplicant(string)":"infinite","getApplicantVoteCount(address)":"2893","getApplicantVoteEndDate(address)":"2863","getApplicantWords(address)":"infinite","getApplicants()":"infinite","rejectApplicant(address)":"infinite","setMemberPoolAddress(address)":"24788","voteForApplicant(address)":"infinite"},"internal":{"_burnApplicant(address)":"infinite"}},"methodIdentifiers":{"applicantList(uint256)":"8c468cd4","approveApplicant(address)":"1292a282","createApplicant(string)":"fd591902","getApplicantVoteCount(address)":"d9a87535","getApplicantVoteEndDate(address)":"b672bdcb","getApplicantWords(address)":"00ad808f","getApplicants()":"455772d2","rejectApplicant(address)":"273f868e","setMemberPoolAddress(address)":"f6ec9738","voteForApplicant(address)":"28f4694c"}},"storageLayout":{"storage":[{"astId":18,"contract":"ApplicantPool.sol:ApplicantPool","label":"applicantList","offset":0,"slot":"0","type":"t_array(t_address)dyn_storage"},{"astId":23,"contract":"ApplicantPool.sol:ApplicantPool","label":"applicantVotes","offset":0,"slot":"1","type":"t_mapping(t_address,t_array(t_address)dyn_storage)"},{"astId":27,"contract":"ApplicantPool.sol:ApplicantPool","label":"applicantPoints","offset":0,"slot":"2","type":"t_mapping(t_address,t_int256)"},{"astId":31,"contract":"ApplicantPool.sol:ApplicantPool","label":"activeApplicants","offset":0,"slot":"3","type":"t_mapping(t_address,t_bool)"},{"astId":35,"contract":"ApplicantPool.sol:ApplicantPool","label":"applicantWords","offset":0,"slot":"4","type":"t_mapping(t_address,t_string_storage)"},{"astId":39,"contract":"ApplicantPool.sol:ApplicantPool","label":"voteEndTime","offset":0,"slot":"5","type":"t_mapping(t_address,t_uint256)"},{"astId":42,"contract":"ApplicantPool.sol:ApplicantPool","label":"map","offset":0,"slot":"6","type":"t_contract(MemberMap)732"},{"astId":48,"contract":"ApplicantPool.sol:ApplicantPool","label":"memberPoolAddress","offset":0,"slot":"7","type":"t_address"}],"types":{"t_address":{"encoding":"inplace","label":"address","numberOfBytes":"20"},"t_array(t_address)dyn_storage":{"base":"t_address","encoding":"dynamic_array","label":"address[]","numberOfBytes":"32"},"t_bool":{"encoding":"inplace","label":"bool","numberOfBytes":"1"},"t_contract(MemberMap)732":{"encoding":"inplace","label":"contract MemberMap","numberOfBytes":"20"},"t_int256":{"encoding":"inplace","label":"int256","numberOfBytes":"32"},"t_mapping(t_address,t_array(t_address)dyn_storage)":{"encoding":"mapping","key":"t_address","label":"mapping(address => address[])","numberOfBytes":"32","value":"t_array(t_address)dyn_storage"},"t_mapping(t_address,t_bool)":{"encoding":"mapping","key":"t_address","label":"mapping(address => bool)","numberOfBytes":"32","value":"t_bool"},"t_mapping(t_address,t_int256)":{"encoding":"mapping","key":"t_address","label":"mapping(address => int256)","numberOfBytes":"32","value":"t_int256"},"t_mapping(t_address,t_string_storage)":{"encoding":"mapping","key":"t_address","label":"mapping(address => string)","numberOfBytes":"32","value":"t_string_storage"},"t_mapping(t_address,t_uint256)":{"encoding":"mapping","key":"t_address","label":"mapping(address => uint256)","numberOfBytes":"32","value":"t_uint256"},"t_string_storage":{"encoding":"bytes","label":"string","numberOfBytes":"32"},"t_uint256":{"encoding":"inplace","label":"uint256","numberOfBytes":"32"}}},"userdoc":{"kind":"user","methods":{},"version":1}}