{"abi":[{"inputs":[{"internalType":"address","name":"memberMap","type":"address"},{"internalType":"address","name":"_memberPoolAddress","type":"address"}],"stateMutability":"nonpayable","type":"constructor"},{"anonymous":false,"inputs":[{"indexed":false,"internalType":"address","name":"sender","type":"address"}],"name":"ApplicantCreated","type":"event"},{"anonymous":false,"inputs":[],"name":"ApplicantVote","type":"event"},{"anonymous":false,"inputs":[{"indexed":false,"internalType":"address","name":"applicant","type":"address"}],"name":"ApplicantVoteEnd","type":"event"},{"anonymous":false,"inputs":[],"name":"CreateApplicant","type":"event"},{"inputs":[],"name":"applicantFeeAmount","outputs":[{"internalType":"uint256","name":"","type":"uint256"}],"stateMutability":"view","type":"function"},{"inputs":[{"internalType":"uint256","name":"","type":"uint256"}],"name":"applicantList","outputs":[{"internalType":"address","name":"","type":"address"}],"stateMutability":"view","type":"function"},{"inputs":[{"internalType":"address","name":"applicant","type":"address"}],"name":"approveApplicant","outputs":[],"stateMutability":"nonpayable","type":"function"},{"inputs":[],"name":"balance","outputs":[{"internalType":"uint256","name":"","type":"uint256"}],"stateMutability":"view","type":"function"},{"inputs":[{"internalType":"string","name":"reason","type":"string"}],"name":"createApplicant","outputs":[],"stateMutability":"payable","type":"function"},{"inputs":[{"internalType":"address","name":"applicant","type":"address"}],"name":"getApplicantVoteCount","outputs":[{"internalType":"uint256","name":"","type":"uint256"}],"stateMutability":"view","type":"function"},{"inputs":[{"internalType":"address","name":"applicant","type":"address"}],"name":"getApplicantVoteEndDate","outputs":[{"internalType":"uint256","name":"","type":"uint256"}],"stateMutability":"view","type":"function"},{"inputs":[{"internalType":"address","name":"applicant","type":"address"}],"name":"getApplicantWords","outputs":[{"internalType":"string","name":"","type":"string"}],"stateMutability":"view","type":"function"},{"inputs":[],"name":"getApplicants","outputs":[{"internalType":"address[]","name":"","type":"address[]"}],"stateMutability":"view","type":"function"},{"inputs":[],"name":"memberPoolAddress","outputs":[{"internalType":"address","name":"","type":"address"}],"stateMutability":"view","type":"function"},{"inputs":[{"internalType":"address","name":"applicant","type":"address"}],"name":"rejectApplicant","outputs":[],"stateMutability":"nonpayable","type":"function"},{"inputs":[{"internalType":"address","name":"applicant","type":"address"}],"name":"voteForApplicant","outputs":[],"stateMutability":"nonpayable","type":"function"}],"devdoc":{"kind":"dev","methods":{},"version":1},"evm":{"assembly":"    /* \"ApplicantPool.sol\":90:4186  contract ApplicantPool {... */\n  mstore(0x40, 0x80)\n    /* \"ApplicantPool.sol\":676:683  1000000 */\n  0x0f4240\n    /* \"ApplicantPool.sol\":640:683  uint256 public applicantFeeAmount = 1000000 */\n  0x09\n  sstore\n    /* \"ApplicantPool.sol\":692:845  constructor(address memberMap, address _memberPoolAddress) {... */\n  callvalue\n  dup1\n  iszero\n  tag_1\n  jumpi\n  0x00\n  dup1\n  revert\ntag_1:\n  pop\n  mload(0x40)\n  sub(codesize, bytecodeSize)\n  dup1\n  bytecodeSize\n  dup4\n  codecopy\n  dup2\n  dup2\n  add\n  0x40\n  mstore\n  dup2\n  add\n  swap1\n  tag_2\n  swap2\n  swap1\n  tag_3\n  jump\t// in\ntag_2:\n    /* \"ApplicantPool.sol\":778:787  memberMap */\n  dup2\n    /* \"ApplicantPool.sol\":762:765  map */\n  0x06\n  0x00\n    /* \"ApplicantPool.sol\":762:788  map = MemberMap(memberMap) */\n  0x0100\n  exp\n  dup2\n  sload\n  dup2\n  0xffffffffffffffffffffffffffffffffffffffff\n  mul\n  not\n  and\n  swap1\n  dup4\n  0xffffffffffffffffffffffffffffffffffffffff\n  and\n  mul\n  or\n  swap1\n  sstore\n  pop\n    /* \"ApplicantPool.sol\":819:837  _memberPoolAddress */\n  dup1\n    /* \"ApplicantPool.sol\":799:816  memberPoolAddress */\n  0x07\n  0x00\n    /* \"ApplicantPool.sol\":799:837  memberPoolAddress = _memberPoolAddress */\n  0x0100\n  exp\n  dup2\n  sload\n  dup2\n  0xffffffffffffffffffffffffffffffffffffffff\n  mul\n  not\n  and\n  swap1\n  dup4\n  0xffffffffffffffffffffffffffffffffffffffff\n  and\n  mul\n  or\n  swap1\n  sstore\n  pop\n    /* \"ApplicantPool.sol\":692:845  constructor(address memberMap, address _memberPoolAddress) {... */\n  pop\n  pop\n    /* \"ApplicantPool.sol\":90:4186  contract ApplicantPool {... */\n  jump(tag_6)\n    /* \"#utility.yul\":88:205   */\ntag_8:\n    /* \"#utility.yul\":197:198   */\n  0x00\n    /* \"#utility.yul\":194:195   */\n  dup1\n    /* \"#utility.yul\":187:199   */\n  revert\n    /* \"#utility.yul\":334:460   */\ntag_10:\n    /* \"#utility.yul\":371:378   */\n  0x00\n    /* \"#utility.yul\":411:453   */\n  0xffffffffffffffffffffffffffffffffffffffff\n    /* \"#utility.yul\":404:409   */\n  dup3\n    /* \"#utility.yul\":400:454   */\n  and\n    /* \"#utility.yul\":389:454   */\n  swap1\n  pop\n    /* \"#utility.yul\":334:460   */\n  swap2\n  swap1\n  pop\n  jump\t// out\n    /* \"#utility.yul\":466:562   */\ntag_11:\n    /* \"#utility.yul\":503:510   */\n  0x00\n    /* \"#utility.yul\":532:556   */\n  tag_20\n    /* \"#utility.yul\":550:555   */\n  dup3\n    /* \"#utility.yul\":532:556   */\n  tag_10\n  jump\t// in\ntag_20:\n    /* \"#utility.yul\":521:556   */\n  swap1\n  pop\n    /* \"#utility.yul\":466:562   */\n  swap2\n  swap1\n  pop\n  jump\t// out\n    /* \"#utility.yul\":568:690   */\ntag_12:\n    /* \"#utility.yul\":641:665   */\n  tag_22\n    /* \"#utility.yul\":659:664   */\n  dup2\n    /* \"#utility.yul\":641:665   */\n  tag_11\n  jump\t// in\ntag_22:\n    /* \"#utility.yul\":634:639   */\n  dup2\n    /* \"#utility.yul\":631:666   */\n  eq\n    /* \"#utility.yul\":621:684   */\n  tag_23\n  jumpi\n    /* \"#utility.yul\":680:681   */\n  0x00\n    /* \"#utility.yul\":677:678   */\n  dup1\n    /* \"#utility.yul\":670:682   */\n  revert\n    /* \"#utility.yul\":621:684   */\ntag_23:\n    /* \"#utility.yul\":568:690   */\n  pop\n  jump\t// out\n    /* \"#utility.yul\":696:839   */\ntag_13:\n    /* \"#utility.yul\":753:758   */\n  0x00\n    /* \"#utility.yul\":784:790   */\n  dup2\n    /* \"#utility.yul\":778:791   */\n  mload\n    /* \"#utility.yul\":769:791   */\n  swap1\n  pop\n    /* \"#utility.yul\":800:833   */\n  tag_25\n    /* \"#utility.yul\":827:832   */\n  dup2\n    /* \"#utility.yul\":800:833   */\n  tag_12\n  jump\t// in\ntag_25:\n    /* \"#utility.yul\":696:839   */\n  swap3\n  swap2\n  pop\n  pop\n  jump\t// out\n    /* \"#utility.yul\":845:1352   */\ntag_3:\n    /* \"#utility.yul\":924:930   */\n  0x00\n    /* \"#utility.yul\":932:938   */\n  dup1\n    /* \"#utility.yul\":981:983   */\n  0x40\n    /* \"#utility.yul\":969:978   */\n  dup4\n    /* \"#utility.yul\":960:967   */\n  dup6\n    /* \"#utility.yul\":956:979   */\n  sub\n    /* \"#utility.yul\":952:984   */\n  slt\n    /* \"#utility.yul\":949:1068   */\n  iszero\n  tag_27\n  jumpi\n    /* \"#utility.yul\":987:1066   */\n  tag_28\n  tag_8\n  jump\t// in\ntag_28:\n    /* \"#utility.yul\":949:1068   */\ntag_27:\n    /* \"#utility.yul\":1107:1108   */\n  0x00\n    /* \"#utility.yul\":1132:1196   */\n  tag_29\n    /* \"#utility.yul\":1188:1195   */\n  dup6\n    /* \"#utility.yul\":1179:1185   */\n  dup3\n    /* \"#utility.yul\":1168:1177   */\n  dup7\n    /* \"#utility.yul\":1164:1186   */\n  add\n    /* \"#utility.yul\":1132:1196   */\n  tag_13\n  jump\t// in\ntag_29:\n    /* \"#utility.yul\":1122:1196   */\n  swap3\n  pop\n    /* \"#utility.yul\":1078:1206   */\n  pop\n    /* \"#utility.yul\":1245:1247   */\n  0x20\n    /* \"#utility.yul\":1271:1335   */\n  tag_30\n    /* \"#utility.yul\":1327:1334   */\n  dup6\n    /* \"#utility.yul\":1318:1324   */\n  dup3\n    /* \"#utility.yul\":1307:1316   */\n  dup7\n    /* \"#utility.yul\":1303:1325   */\n  add\n    /* \"#utility.yul\":1271:1335   */\n  tag_13\n  jump\t// in\ntag_30:\n    /* \"#utility.yul\":1261:1335   */\n  swap2\n  pop\n    /* \"#utility.yul\":1216:1345   */\n  pop\n    /* \"#utility.yul\":845:1352   */\n  swap3\n  pop\n  swap3\n  swap1\n  pop\n  jump\t// out\n    /* \"ApplicantPool.sol\":90:4186  contract ApplicantPool {... */\ntag_6:\n  dataSize(sub_0)\n  dup1\n  dataOffset(sub_0)\n  0x00\n  codecopy\n  0x00\n  return\nstop\n\nsub_0: assembly {\n        /* \"ApplicantPool.sol\":90:4186  contract ApplicantPool {... */\n      mstore(0x40, 0x80)\n      jumpi(tag_1, lt(calldatasize, 0x04))\n      shr(0xe0, calldataload(0x00))\n      dup1\n      0x930235b4\n      gt\n      tag_14\n      jumpi\n      dup1\n      0x930235b4\n      eq\n      tag_8\n      jumpi\n      dup1\n      0xa10c8a97\n      eq\n      tag_9\n      jumpi\n      dup1\n      0xb672bdcb\n      eq\n      tag_10\n      jumpi\n      dup1\n      0xb69ef8a8\n      eq\n      tag_11\n      jumpi\n      dup1\n      0xd9a87535\n      eq\n      tag_12\n      jumpi\n      dup1\n      0xfd591902\n      eq\n      tag_13\n      jumpi\n      jump(tag_1)\n    tag_14:\n      dup1\n      0xad808f\n      eq\n      tag_2\n      jumpi\n      dup1\n      0x1292a282\n      eq\n      tag_3\n      jumpi\n      dup1\n      0x273f868e\n      eq\n      tag_4\n      jumpi\n      dup1\n      0x28f4694c\n      eq\n      tag_5\n      jumpi\n      dup1\n      0x455772d2\n      eq\n      tag_6\n      jumpi\n      dup1\n      0x8c468cd4\n      eq\n      tag_7\n      jumpi\n    tag_1:\n      0x00\n      dup1\n      revert\n        /* \"ApplicantPool.sol\":2696:2893  function getApplicantWords(address applicant)... */\n    tag_2:\n      callvalue\n      dup1\n      iszero\n      tag_15\n      jumpi\n      0x00\n      dup1\n      revert\n    tag_15:\n      pop\n      tag_16\n      0x04\n      dup1\n      calldatasize\n      sub\n      dup2\n      add\n      swap1\n      tag_17\n      swap2\n      swap1\n      tag_18\n      jump\t// in\n    tag_17:\n      tag_19\n      jump\t// in\n    tag_16:\n      mload(0x40)\n      tag_20\n      swap2\n      swap1\n      tag_21\n      jump\t// in\n    tag_20:\n      mload(0x40)\n      dup1\n      swap2\n      sub\n      swap1\n      return\n        /* \"ApplicantPool.sol\":3081:3452  function approveApplicant(address applicant)... */\n    tag_3:\n      callvalue\n      dup1\n      iszero\n      tag_22\n      jumpi\n      0x00\n      dup1\n      revert\n    tag_22:\n      pop\n      tag_23\n      0x04\n      dup1\n      calldatasize\n      sub\n      dup2\n      add\n      swap1\n      tag_24\n      swap2\n      swap1\n      tag_18\n      jump\t// in\n    tag_24:\n      tag_25\n      jump\t// in\n    tag_23:\n      stop\n        /* \"ApplicantPool.sol\":3460:3814  function rejectApplicant(address applicant)... */\n    tag_4:\n      callvalue\n      dup1\n      iszero\n      tag_26\n      jumpi\n      0x00\n      dup1\n      revert\n    tag_26:\n      pop\n      tag_27\n      0x04\n      dup1\n      calldatasize\n      sub\n      dup2\n      add\n      swap1\n      tag_28\n      swap2\n      swap1\n      tag_18\n      jump\t// in\n    tag_28:\n      tag_29\n      jump\t// in\n    tag_27:\n      stop\n        /* \"ApplicantPool.sol\":1995:2518  function voteForApplicant(address applicant) public memberOnly(msg.sender) {... */\n    tag_5:\n      callvalue\n      dup1\n      iszero\n      tag_30\n      jumpi\n      0x00\n      dup1\n      revert\n    tag_30:\n      pop\n      tag_31\n      0x04\n      dup1\n      calldatasize\n      sub\n      dup2\n      add\n      swap1\n      tag_32\n      swap2\n      swap1\n      tag_18\n      jump\t// in\n    tag_32:\n      tag_33\n      jump\t// in\n    tag_31:\n      stop\n        /* \"ApplicantPool.sol\":1173:1344  function getApplicants()... */\n    tag_6:\n      callvalue\n      dup1\n      iszero\n      tag_34\n      jumpi\n      0x00\n      dup1\n      revert\n    tag_34:\n      pop\n      tag_35\n      tag_36\n      jump\t// in\n    tag_35:\n      mload(0x40)\n      tag_37\n      swap2\n      swap1\n      tag_38\n      jump\t// in\n    tag_37:\n      mload(0x40)\n      dup1\n      swap2\n      sub\n      swap1\n      return\n        /* \"ApplicantPool.sol\":273:303  address[] public applicantList */\n    tag_7:\n      callvalue\n      dup1\n      iszero\n      tag_39\n      jumpi\n      0x00\n      dup1\n      revert\n    tag_39:\n      pop\n      tag_40\n      0x04\n      dup1\n      calldatasize\n      sub\n      dup2\n      add\n      swap1\n      tag_41\n      swap2\n      swap1\n      tag_42\n      jump\t// in\n    tag_41:\n      tag_43\n      jump\t// in\n    tag_40:\n      mload(0x40)\n      tag_44\n      swap2\n      swap1\n      tag_45\n      jump\t// in\n    tag_44:\n      mload(0x40)\n      dup1\n      swap2\n      sub\n      swap1\n      return\n        /* \"ApplicantPool.sol\":572:604  address public memberPoolAddress */\n    tag_8:\n      callvalue\n      dup1\n      iszero\n      tag_46\n      jumpi\n      0x00\n      dup1\n      revert\n    tag_46:\n      pop\n      tag_47\n      tag_48\n      jump\t// in\n    tag_47:\n      mload(0x40)\n      tag_49\n      swap2\n      swap1\n      tag_45\n      jump\t// in\n    tag_49:\n      mload(0x40)\n      dup1\n      swap2\n      sub\n      swap1\n      return\n        /* \"ApplicantPool.sol\":640:683  uint256 public applicantFeeAmount = 1000000 */\n    tag_9:\n      callvalue\n      dup1\n      iszero\n      tag_50\n      jumpi\n      0x00\n      dup1\n      revert\n    tag_50:\n      pop\n      tag_51\n      tag_52\n      jump\t// in\n    tag_51:\n      mload(0x40)\n      tag_53\n      swap2\n      swap1\n      tag_54\n      jump\t// in\n    tag_53:\n      mload(0x40)\n      dup1\n      swap2\n      sub\n      swap1\n      return\n        /* \"ApplicantPool.sol\":2526:2688  function getApplicantVoteEndDate(address applicant)... */\n    tag_10:\n      callvalue\n      dup1\n      iszero\n      tag_55\n      jumpi\n      0x00\n      dup1\n      revert\n    tag_55:\n      pop\n      tag_56\n      0x04\n      dup1\n      calldatasize\n      sub\n      dup2\n      add\n      swap1\n      tag_57\n      swap2\n      swap1\n      tag_18\n      jump\t// in\n    tag_57:\n      tag_58\n      jump\t// in\n    tag_56:\n      mload(0x40)\n      tag_59\n      swap2\n      swap1\n      tag_54\n      jump\t// in\n    tag_59:\n      mload(0x40)\n      dup1\n      swap2\n      sub\n      swap1\n      return\n        /* \"ApplicantPool.sol\":611:633  uint256 public balance */\n    tag_11:\n      callvalue\n      dup1\n      iszero\n      tag_60\n      jumpi\n      0x00\n      dup1\n      revert\n    tag_60:\n      pop\n      tag_61\n      tag_62\n      jump\t// in\n    tag_61:\n      mload(0x40)\n      tag_63\n      swap2\n      swap1\n      tag_54\n      jump\t// in\n    tag_63:\n      mload(0x40)\n      dup1\n      swap2\n      sub\n      swap1\n      return\n        /* \"ApplicantPool.sol\":2901:3073  function getApplicantVoteCount(address applicant)... */\n    tag_12:\n      callvalue\n      dup1\n      iszero\n      tag_64\n      jumpi\n      0x00\n      dup1\n      revert\n    tag_64:\n      pop\n      tag_65\n      0x04\n      dup1\n      calldatasize\n      sub\n      dup2\n      add\n      swap1\n      tag_66\n      swap2\n      swap1\n      tag_18\n      jump\t// in\n    tag_66:\n      tag_67\n      jump\t// in\n    tag_65:\n      mload(0x40)\n      tag_68\n      swap2\n      swap1\n      tag_54\n      jump\t// in\n    tag_68:\n      mload(0x40)\n      dup1\n      swap2\n      sub\n      swap1\n      return\n        /* \"ApplicantPool.sol\":1352:1987  function createApplicant(string calldata reason) public payable {... */\n    tag_13:\n      tag_69\n      0x04\n      dup1\n      calldatasize\n      sub\n      dup2\n      add\n      swap1\n      tag_70\n      swap2\n      swap1\n      tag_71\n      jump\t// in\n    tag_70:\n      tag_72\n      jump\t// in\n    tag_69:\n      stop\n        /* \"ApplicantPool.sol\":2696:2893  function getApplicantWords(address applicant)... */\n    tag_19:\n        /* \"ApplicantPool.sol\":2822:2835  string memory */\n      0x60\n        /* \"ApplicantPool.sol\":2792:2802  msg.sender */\n      caller\n        /* \"ApplicantPool.sol\":922:925  map */\n      0x06\n      0x00\n      swap1\n      sload\n      swap1\n      0x0100\n      exp\n      swap1\n      div\n      0xffffffffffffffffffffffffffffffffffffffff\n      and\n        /* \"ApplicantPool.sol\":922:934  map.isMember */\n      0xffffffffffffffffffffffffffffffffffffffff\n      and\n      0x39ac7a08\n        /* \"ApplicantPool.sol\":935:941  sender */\n      dup3\n        /* \"ApplicantPool.sol\":943:960  memberPoolAddress */\n      0x07\n      0x00\n      swap1\n      sload\n      swap1\n      0x0100\n      exp\n      swap1\n      div\n      0xffffffffffffffffffffffffffffffffffffffff\n      and\n        /* \"ApplicantPool.sol\":922:961  map.isMember(sender, memberPoolAddress) */\n      mload(0x40)\n      dup4\n      0xffffffff\n      and\n      0xe0\n      shl\n      dup2\n      mstore\n      0x04\n      add\n      tag_74\n      swap3\n      swap2\n      swap1\n      tag_75\n      jump\t// in\n    tag_74:\n      0x20\n      mload(0x40)\n      dup1\n      dup4\n      sub\n      dup2\n      dup7\n      gas\n      staticcall\n      iszero\n      dup1\n      iszero\n      tag_77\n      jumpi\n      returndatasize\n      0x00\n      dup1\n      returndatacopy\n      revert(0x00, returndatasize)\n    tag_77:\n      pop\n      pop\n      pop\n      pop\n      mload(0x40)\n      returndatasize\n      not(0x1f)\n      0x1f\n      dup3\n      add\n      and\n      dup3\n      add\n      dup1\n      0x40\n      mstore\n      pop\n      dup2\n      add\n      swap1\n      tag_78\n      swap2\n      swap1\n      tag_79\n      jump\t// in\n    tag_78:\n        /* \"ApplicantPool.sol\":900:1013  require(... */\n      tag_80\n      jumpi\n      mload(0x40)\n      0x08c379a000000000000000000000000000000000000000000000000000000000\n      dup2\n      mstore\n      0x04\n      add\n      tag_81\n      swap1\n      tag_82\n      jump\t// in\n    tag_81:\n      mload(0x40)\n      dup1\n      swap2\n      sub\n      swap1\n      revert\n    tag_80:\n        /* \"ApplicantPool.sol\":2860:2874  applicantWords */\n      0x04\n        /* \"ApplicantPool.sol\":2860:2885  applicantWords[applicant] */\n      0x00\n        /* \"ApplicantPool.sol\":2875:2884  applicant */\n      dup5\n        /* \"ApplicantPool.sol\":2860:2885  applicantWords[applicant] */\n      0xffffffffffffffffffffffffffffffffffffffff\n      and\n      0xffffffffffffffffffffffffffffffffffffffff\n      and\n      dup2\n      mstore\n      0x20\n      add\n      swap1\n      dup2\n      mstore\n      0x20\n      add\n      0x00\n      keccak256\n        /* \"ApplicantPool.sol\":2853:2885  return applicantWords[applicant] */\n      dup1\n      sload\n      tag_84\n      swap1\n      tag_85\n      jump\t// in\n    tag_84:\n      dup1\n      0x1f\n      add\n      0x20\n      dup1\n      swap2\n      div\n      mul\n      0x20\n      add\n      mload(0x40)\n      swap1\n      dup2\n      add\n      0x40\n      mstore\n      dup1\n      swap3\n      swap2\n      swap1\n      dup2\n      dup2\n      mstore\n      0x20\n      add\n      dup3\n      dup1\n      sload\n      tag_86\n      swap1\n      tag_85\n      jump\t// in\n    tag_86:\n      dup1\n      iszero\n      tag_87\n      jumpi\n      dup1\n      0x1f\n      lt\n      tag_88\n      jumpi\n      0x0100\n      dup1\n      dup4\n      sload\n      div\n      mul\n      dup4\n      mstore\n      swap2\n      0x20\n      add\n      swap2\n      jump(tag_87)\n    tag_88:\n      dup3\n      add\n      swap2\n      swap1\n      0x00\n      mstore\n      keccak256(0x00, 0x20)\n      swap1\n    tag_89:\n      dup2\n      sload\n      dup2\n      mstore\n      swap1\n      0x01\n      add\n      swap1\n      0x20\n      add\n      dup1\n      dup4\n      gt\n      tag_89\n      jumpi\n      dup3\n      swap1\n      sub\n      0x1f\n      and\n      dup3\n      add\n      swap2\n    tag_87:\n      pop\n      pop\n      pop\n      pop\n      pop\n      swap2\n      pop\n        /* \"ApplicantPool.sol\":2696:2893  function getApplicantWords(address applicant)... */\n      pop\n      swap2\n      swap1\n      pop\n      jump\t// out\n        /* \"ApplicantPool.sol\":3081:3452  function approveApplicant(address applicant)... */\n    tag_25:\n        /* \"ApplicantPool.sol\":3166:3176  msg.sender */\n      caller\n        /* \"ApplicantPool.sol\":1110:1127  memberPoolAddress */\n      0x07\n      0x00\n      swap1\n      sload\n      swap1\n      0x0100\n      exp\n      swap1\n      div\n      0xffffffffffffffffffffffffffffffffffffffff\n      and\n        /* \"ApplicantPool.sol\":1100:1127  sender == memberPoolAddress */\n      0xffffffffffffffffffffffffffffffffffffffff\n      and\n        /* \"ApplicantPool.sol\":1100:1106  sender */\n      dup2\n        /* \"ApplicantPool.sol\":1100:1127  sender == memberPoolAddress */\n      0xffffffffffffffffffffffffffffffffffffffff\n      and\n      eq\n        /* \"ApplicantPool.sol\":1092:1145  require(sender == memberPoolAddress, \"Access Denied\") */\n      tag_91\n      jumpi\n      mload(0x40)\n      0x08c379a000000000000000000000000000000000000000000000000000000000\n      dup2\n      mstore\n      0x04\n      add\n      tag_92\n      swap1\n      tag_93\n      jump\t// in\n    tag_92:\n      mload(0x40)\n      dup1\n      swap2\n      sub\n      swap1\n      revert\n    tag_91:\n        /* \"ApplicantPool.sol\":3230:3247  memberPoolAddress */\n      0x07\n      0x00\n      swap1\n      sload\n      swap1\n      0x0100\n      exp\n      swap1\n      div\n      0xffffffffffffffffffffffffffffffffffffffff\n      and\n        /* \"ApplicantPool.sol\":3216:3247  msg.sender == memberPoolAddress */\n      0xffffffffffffffffffffffffffffffffffffffff\n      and\n        /* \"ApplicantPool.sol\":3216:3226  msg.sender */\n      caller\n        /* \"ApplicantPool.sol\":3216:3247  msg.sender == memberPoolAddress */\n      0xffffffffffffffffffffffffffffffffffffffff\n      and\n      eq\n        /* \"ApplicantPool.sol\":3194:3310  require(... */\n      tag_95\n      jumpi\n      mload(0x40)\n      0x08c379a000000000000000000000000000000000000000000000000000000000\n      dup2\n      mstore\n      0x04\n      add\n      tag_96\n      swap1\n      tag_97\n      jump\t// in\n    tag_96:\n      mload(0x40)\n      dup1\n      swap2\n      sub\n      swap1\n      revert\n    tag_95:\n        /* \"ApplicantPool.sol\":3321:3324  map */\n      0x06\n      0x00\n      swap1\n      sload\n      swap1\n      0x0100\n      exp\n      swap1\n      div\n      0xffffffffffffffffffffffffffffffffffffffff\n      and\n        /* \"ApplicantPool.sol\":3321:3334  map.addMember */\n      0xffffffffffffffffffffffffffffffffffffffff\n      and\n      0x9d58b15d\n        /* \"ApplicantPool.sol\":3335:3352  memberPoolAddress */\n      0x07\n      0x00\n      swap1\n      sload\n      swap1\n      0x0100\n      exp\n      swap1\n      div\n      0xffffffffffffffffffffffffffffffffffffffff\n      and\n        /* \"ApplicantPool.sol\":3354:3363  applicant */\n      dup5\n        /* \"ApplicantPool.sol\":3321:3364  map.addMember(memberPoolAddress, applicant) */\n      mload(0x40)\n      dup4\n      0xffffffff\n      and\n      0xe0\n      shl\n      dup2\n      mstore\n      0x04\n      add\n      tag_98\n      swap3\n      swap2\n      swap1\n      tag_75\n      jump\t// in\n    tag_98:\n      0x00\n      mload(0x40)\n      dup1\n      dup4\n      sub\n      dup2\n      0x00\n      dup8\n      dup1\n      extcodesize\n      iszero\n      dup1\n      iszero\n      tag_99\n      jumpi\n      0x00\n      dup1\n      revert\n    tag_99:\n      pop\n      gas\n      call\n      iszero\n      dup1\n      iszero\n      tag_101\n      jumpi\n      returndatasize\n      0x00\n      dup1\n      returndatacopy\n      revert(0x00, returndatasize)\n    tag_101:\n      pop\n      pop\n      pop\n      pop\n        /* \"ApplicantPool.sol\":3375:3400  _burnApplicant(applicant) */\n      tag_102\n        /* \"ApplicantPool.sol\":3390:3399  applicant */\n      dup3\n        /* \"ApplicantPool.sol\":3375:3389  _burnApplicant */\n      tag_103\n        /* \"ApplicantPool.sol\":3375:3400  _burnApplicant(applicant) */\n      jump\t// in\n    tag_102:\n        /* \"ApplicantPool.sol\":3418:3432  applicantVotes */\n      0x01\n        /* \"ApplicantPool.sol\":3418:3444  applicantVotes[msg.sender] */\n      0x00\n        /* \"ApplicantPool.sol\":3433:3443  msg.sender */\n      caller\n        /* \"ApplicantPool.sol\":3418:3444  applicantVotes[msg.sender] */\n      0xffffffffffffffffffffffffffffffffffffffff\n      and\n      0xffffffffffffffffffffffffffffffffffffffff\n      and\n      dup2\n      mstore\n      0x20\n      add\n      swap1\n      dup2\n      mstore\n      0x20\n      add\n      0x00\n      keccak256\n      0x00\n        /* \"ApplicantPool.sol\":3411:3444  delete applicantVotes[msg.sender] */\n      tag_104\n      swap2\n      swap1\n      tag_105\n      jump\t// in\n    tag_104:\n        /* \"ApplicantPool.sol\":3081:3452  function approveApplicant(address applicant)... */\n      pop\n      pop\n      jump\t// out\n        /* \"ApplicantPool.sol\":3460:3814  function rejectApplicant(address applicant)... */\n    tag_29:\n        /* \"ApplicantPool.sol\":3544:3554  msg.sender */\n      caller\n        /* \"ApplicantPool.sol\":1110:1127  memberPoolAddress */\n      0x07\n      0x00\n      swap1\n      sload\n      swap1\n      0x0100\n      exp\n      swap1\n      div\n      0xffffffffffffffffffffffffffffffffffffffff\n      and\n        /* \"ApplicantPool.sol\":1100:1127  sender == memberPoolAddress */\n      0xffffffffffffffffffffffffffffffffffffffff\n      and\n        /* \"ApplicantPool.sol\":1100:1106  sender */\n      dup2\n        /* \"ApplicantPool.sol\":1100:1127  sender == memberPoolAddress */\n      0xffffffffffffffffffffffffffffffffffffffff\n      and\n      eq\n        /* \"ApplicantPool.sol\":1092:1145  require(sender == memberPoolAddress, \"Access Denied\") */\n      tag_107\n      jumpi\n      mload(0x40)\n      0x08c379a000000000000000000000000000000000000000000000000000000000\n      dup2\n      mstore\n      0x04\n      add\n      tag_108\n      swap1\n      tag_93\n      jump\t// in\n    tag_108:\n      mload(0x40)\n      dup1\n      swap2\n      sub\n      swap1\n      revert\n    tag_107:\n        /* \"ApplicantPool.sol\":3580:3596  activeApplicants */\n      0x03\n        /* \"ApplicantPool.sol\":3580:3607  activeApplicants[applicant] */\n      0x00\n        /* \"ApplicantPool.sol\":3597:3606  applicant */\n      dup4\n        /* \"ApplicantPool.sol\":3580:3607  activeApplicants[applicant] */\n      0xffffffffffffffffffffffffffffffffffffffff\n      and\n      0xffffffffffffffffffffffffffffffffffffffff\n      and\n      dup2\n      mstore\n      0x20\n      add\n      swap1\n      dup2\n      mstore\n      0x20\n      add\n      0x00\n      keccak256\n      0x00\n      swap1\n      sload\n      swap1\n      0x0100\n      exp\n      swap1\n      div\n      0xff\n      and\n        /* \"ApplicantPool.sol\":3572:3637  require(activeApplicants[applicant], \"Invalid applicant address\") */\n      tag_110\n      jumpi\n      mload(0x40)\n      0x08c379a000000000000000000000000000000000000000000000000000000000\n      dup2\n      mstore\n      0x04\n      add\n      tag_111\n      swap1\n      tag_112\n      jump\t// in\n    tag_111:\n      mload(0x40)\n      dup1\n      swap2\n      sub\n      swap1\n      revert\n    tag_110:\n        /* \"ApplicantPool.sol\":3678:3683  false */\n      0x00\n        /* \"ApplicantPool.sol\":3648:3664  activeApplicants */\n      0x03\n        /* \"ApplicantPool.sol\":3648:3675  activeApplicants[applicant] */\n      0x00\n        /* \"ApplicantPool.sol\":3665:3674  applicant */\n      dup5\n        /* \"ApplicantPool.sol\":3648:3675  activeApplicants[applicant] */\n      0xffffffffffffffffffffffffffffffffffffffff\n      and\n      0xffffffffffffffffffffffffffffffffffffffff\n      and\n      dup2\n      mstore\n      0x20\n      add\n      swap1\n      dup2\n      mstore\n      0x20\n      add\n      0x00\n      keccak256\n      0x00\n        /* \"ApplicantPool.sol\":3648:3683  activeApplicants[applicant] = false */\n      0x0100\n      exp\n      dup2\n      sload\n      dup2\n      0xff\n      mul\n      not\n      and\n      swap1\n      dup4\n      iszero\n      iszero\n      mul\n      or\n      swap1\n      sstore\n      pop\n        /* \"ApplicantPool.sol\":3725:3726  1 */\n      0x01\n        /* \"ApplicantPool.sol\":3694:3709  applicantPoints */\n      0x02\n        /* \"ApplicantPool.sol\":3694:3721  applicantPoints[msg.sender] */\n      0x00\n        /* \"ApplicantPool.sol\":3710:3720  msg.sender */\n      caller\n        /* \"ApplicantPool.sol\":3694:3721  applicantPoints[msg.sender] */\n      0xffffffffffffffffffffffffffffffffffffffff\n      and\n      0xffffffffffffffffffffffffffffffffffffffff\n      and\n      dup2\n      mstore\n      0x20\n      add\n      swap1\n      dup2\n      mstore\n      0x20\n      add\n      0x00\n      keccak256\n      0x00\n        /* \"ApplicantPool.sol\":3694:3726  applicantPoints[msg.sender] -= 1 */\n      dup3\n      dup3\n      sload\n      tag_113\n      swap2\n      swap1\n      tag_114\n      jump\t// in\n    tag_113:\n      swap3\n      pop\n      pop\n      dup2\n      swap1\n      sstore\n      pop\n        /* \"ApplicantPool.sol\":3737:3762  _burnApplicant(applicant) */\n      tag_115\n        /* \"ApplicantPool.sol\":3752:3761  applicant */\n      dup3\n        /* \"ApplicantPool.sol\":3737:3751  _burnApplicant */\n      tag_103\n        /* \"ApplicantPool.sol\":3737:3762  _burnApplicant(applicant) */\n      jump\t// in\n    tag_115:\n        /* \"ApplicantPool.sol\":3780:3794  applicantVotes */\n      0x01\n        /* \"ApplicantPool.sol\":3780:3806  applicantVotes[msg.sender] */\n      0x00\n        /* \"ApplicantPool.sol\":3795:3805  msg.sender */\n      caller\n        /* \"ApplicantPool.sol\":3780:3806  applicantVotes[msg.sender] */\n      0xffffffffffffffffffffffffffffffffffffffff\n      and\n      0xffffffffffffffffffffffffffffffffffffffff\n      and\n      dup2\n      mstore\n      0x20\n      add\n      swap1\n      dup2\n      mstore\n      0x20\n      add\n      0x00\n      keccak256\n      0x00\n        /* \"ApplicantPool.sol\":3773:3806  delete applicantVotes[msg.sender] */\n      tag_116\n      swap2\n      swap1\n      tag_105\n      jump\t// in\n    tag_116:\n        /* \"ApplicantPool.sol\":3460:3814  function rejectApplicant(address applicant)... */\n      pop\n      pop\n      jump\t// out\n        /* \"ApplicantPool.sol\":1995:2518  function voteForApplicant(address applicant) public memberOnly(msg.sender) {... */\n    tag_33:\n        /* \"ApplicantPool.sol\":2058:2068  msg.sender */\n      caller\n        /* \"ApplicantPool.sol\":922:925  map */\n      0x06\n      0x00\n      swap1\n      sload\n      swap1\n      0x0100\n      exp\n      swap1\n      div\n      0xffffffffffffffffffffffffffffffffffffffff\n      and\n        /* \"ApplicantPool.sol\":922:934  map.isMember */\n      0xffffffffffffffffffffffffffffffffffffffff\n      and\n      0x39ac7a08\n        /* \"ApplicantPool.sol\":935:941  sender */\n      dup3\n        /* \"ApplicantPool.sol\":943:960  memberPoolAddress */\n      0x07\n      0x00\n      swap1\n      sload\n      swap1\n      0x0100\n      exp\n      swap1\n      div\n      0xffffffffffffffffffffffffffffffffffffffff\n      and\n        /* \"ApplicantPool.sol\":922:961  map.isMember(sender, memberPoolAddress) */\n      mload(0x40)\n      dup4\n      0xffffffff\n      and\n      0xe0\n      shl\n      dup2\n      mstore\n      0x04\n      add\n      tag_118\n      swap3\n      swap2\n      swap1\n      tag_75\n      jump\t// in\n    tag_118:\n      0x20\n      mload(0x40)\n      dup1\n      dup4\n      sub\n      dup2\n      dup7\n      gas\n      staticcall\n      iszero\n      dup1\n      iszero\n      tag_120\n      jumpi\n      returndatasize\n      0x00\n      dup1\n      returndatacopy\n      revert(0x00, returndatasize)\n    tag_120:\n      pop\n      pop\n      pop\n      pop\n      mload(0x40)\n      returndatasize\n      not(0x1f)\n      0x1f\n      dup3\n      add\n      and\n      dup3\n      add\n      dup1\n      0x40\n      mstore\n      pop\n      dup2\n      add\n      swap1\n      tag_121\n      swap2\n      swap1\n      tag_79\n      jump\t// in\n    tag_121:\n        /* \"ApplicantPool.sol\":900:1013  require(... */\n      tag_122\n      jumpi\n      mload(0x40)\n      0x08c379a000000000000000000000000000000000000000000000000000000000\n      dup2\n      mstore\n      0x04\n      add\n      tag_123\n      swap1\n      tag_82\n      jump\t// in\n    tag_123:\n      mload(0x40)\n      dup1\n      swap2\n      sub\n      swap1\n      revert\n    tag_122:\n        /* \"ApplicantPool.sol\":2089:2105  activeApplicants */\n      0x03\n        /* \"ApplicantPool.sol\":2089:2116  activeApplicants[applicant] */\n      0x00\n        /* \"ApplicantPool.sol\":2106:2115  applicant */\n      dup4\n        /* \"ApplicantPool.sol\":2089:2116  activeApplicants[applicant] */\n      0xffffffffffffffffffffffffffffffffffffffff\n      and\n      0xffffffffffffffffffffffffffffffffffffffff\n      and\n      dup2\n      mstore\n      0x20\n      add\n      swap1\n      dup2\n      mstore\n      0x20\n      add\n      0x00\n      keccak256\n      0x00\n      swap1\n      sload\n      swap1\n      0x0100\n      exp\n      swap1\n      div\n      0xff\n      and\n        /* \"ApplicantPool.sol\":2081:2136  require(activeApplicants[applicant], \"Not a applicant\") */\n      tag_125\n      jumpi\n      mload(0x40)\n      0x08c379a000000000000000000000000000000000000000000000000000000000\n      dup2\n      mstore\n      0x04\n      add\n      tag_126\n      swap1\n      tag_127\n      jump\t// in\n    tag_126:\n      mload(0x40)\n      dup1\n      swap2\n      sub\n      swap1\n      revert\n    tag_125:\n        /* \"ApplicantPool.sol\":2147:2159  bool didVote */\n      0x00\n        /* \"ApplicantPool.sol\":2183:2192  uint256 i */\n      dup1\n        /* \"ApplicantPool.sol\":2178:2364  for (uint256 i = 0; i < applicantVotes[applicant].length; i++) {... */\n    tag_128:\n        /* \"ApplicantPool.sol\":2202:2216  applicantVotes */\n      0x01\n        /* \"ApplicantPool.sol\":2202:2227  applicantVotes[applicant] */\n      0x00\n        /* \"ApplicantPool.sol\":2217:2226  applicant */\n      dup6\n        /* \"ApplicantPool.sol\":2202:2227  applicantVotes[applicant] */\n      0xffffffffffffffffffffffffffffffffffffffff\n      and\n      0xffffffffffffffffffffffffffffffffffffffff\n      and\n      dup2\n      mstore\n      0x20\n      add\n      swap1\n      dup2\n      mstore\n      0x20\n      add\n      0x00\n      keccak256\n        /* \"ApplicantPool.sol\":2202:2234  applicantVotes[applicant].length */\n      dup1\n      sload\n      swap1\n      pop\n        /* \"ApplicantPool.sol\":2198:2199  i */\n      dup2\n        /* \"ApplicantPool.sol\":2198:2234  i < applicantVotes[applicant].length */\n      lt\n        /* \"ApplicantPool.sol\":2178:2364  for (uint256 i = 0; i < applicantVotes[applicant].length; i++) {... */\n      iszero\n      tag_129\n      jumpi\n        /* \"ApplicantPool.sol\":2292:2302  msg.sender */\n      caller\n        /* \"ApplicantPool.sol\":2260:2302  applicantVotes[applicant][i] == msg.sender */\n      0xffffffffffffffffffffffffffffffffffffffff\n      and\n        /* \"ApplicantPool.sol\":2260:2274  applicantVotes */\n      0x01\n        /* \"ApplicantPool.sol\":2260:2285  applicantVotes[applicant] */\n      0x00\n        /* \"ApplicantPool.sol\":2275:2284  applicant */\n      dup7\n        /* \"ApplicantPool.sol\":2260:2285  applicantVotes[applicant] */\n      0xffffffffffffffffffffffffffffffffffffffff\n      and\n      0xffffffffffffffffffffffffffffffffffffffff\n      and\n      dup2\n      mstore\n      0x20\n      add\n      swap1\n      dup2\n      mstore\n      0x20\n      add\n      0x00\n      keccak256\n        /* \"ApplicantPool.sol\":2286:2287  i */\n      dup3\n        /* \"ApplicantPool.sol\":2260:2288  applicantVotes[applicant][i] */\n      dup2\n      sload\n      dup2\n      lt\n      tag_131\n      jumpi\n      tag_132\n      tag_133\n      jump\t// in\n    tag_132:\n    tag_131:\n      swap1\n      0x00\n      mstore\n      keccak256(0x00, 0x20)\n      add\n      0x00\n      swap1\n      sload\n      swap1\n      0x0100\n      exp\n      swap1\n      div\n      0xffffffffffffffffffffffffffffffffffffffff\n      and\n        /* \"ApplicantPool.sol\":2260:2302  applicantVotes[applicant][i] == msg.sender */\n      0xffffffffffffffffffffffffffffffffffffffff\n      and\n      sub\n        /* \"ApplicantPool.sol\":2256:2353  if (applicantVotes[applicant][i] == msg.sender) {... */\n      tag_135\n      jumpi\n        /* \"ApplicantPool.sol\":2333:2337  true */\n      0x01\n        /* \"ApplicantPool.sol\":2323:2337  didVote = true */\n      swap2\n      pop\n        /* \"ApplicantPool.sol\":2256:2353  if (applicantVotes[applicant][i] == msg.sender) {... */\n    tag_135:\n        /* \"ApplicantPool.sol\":2236:2239  i++ */\n      dup1\n      dup1\n      tag_136\n      swap1\n      tag_137\n      jump\t// in\n    tag_136:\n      swap2\n      pop\n      pop\n        /* \"ApplicantPool.sol\":2178:2364  for (uint256 i = 0; i < applicantVotes[applicant].length; i++) {... */\n      jump(tag_128)\n    tag_129:\n      pop\n        /* \"ApplicantPool.sol\":2383:2390  didVote */\n      dup1\n        /* \"ApplicantPool.sol\":2382:2390  !didVote */\n      iszero\n        /* \"ApplicantPool.sol\":2374:2415  require(!didVote, \"Sender already voted\") */\n      tag_138\n      jumpi\n      mload(0x40)\n      0x08c379a000000000000000000000000000000000000000000000000000000000\n      dup2\n      mstore\n      0x04\n      add\n      tag_139\n      swap1\n      tag_140\n      jump\t// in\n    tag_139:\n      mload(0x40)\n      dup1\n      swap2\n      sub\n      swap1\n      revert\n    tag_138:\n        /* \"ApplicantPool.sol\":2426:2440  applicantVotes */\n      0x01\n        /* \"ApplicantPool.sol\":2426:2451  applicantVotes[applicant] */\n      0x00\n        /* \"ApplicantPool.sol\":2441:2450  applicant */\n      dup5\n        /* \"ApplicantPool.sol\":2426:2451  applicantVotes[applicant] */\n      0xffffffffffffffffffffffffffffffffffffffff\n      and\n      0xffffffffffffffffffffffffffffffffffffffff\n      and\n      dup2\n      mstore\n      0x20\n      add\n      swap1\n      dup2\n      mstore\n      0x20\n      add\n      0x00\n      keccak256\n        /* \"ApplicantPool.sol\":2457:2467  msg.sender */\n      caller\n        /* \"ApplicantPool.sol\":2426:2468  applicantVotes[applicant].push(msg.sender) */\n      swap1\n      dup1\n      0x01\n      dup2\n      sload\n      add\n      dup1\n      dup3\n      sstore\n      dup1\n      swap2\n      pop\n      pop\n      0x01\n      swap1\n      sub\n      swap1\n      0x00\n      mstore\n      keccak256(0x00, 0x20)\n      add\n      0x00\n      swap1\n      swap2\n      swap1\n      swap2\n      swap1\n      swap2\n      0x0100\n      exp\n      dup2\n      sload\n      dup2\n      0xffffffffffffffffffffffffffffffffffffffff\n      mul\n      not\n      and\n      swap1\n      dup4\n      0xffffffffffffffffffffffffffffffffffffffff\n      and\n      mul\n      or\n      swap1\n      sstore\n      pop\n        /* \"ApplicantPool.sol\":2509:2510  1 */\n      0x01\n        /* \"ApplicantPool.sol\":2479:2494  applicantPoints */\n      0x02\n        /* \"ApplicantPool.sol\":2479:2505  applicantPoints[applicant] */\n      0x00\n        /* \"ApplicantPool.sol\":2495:2504  applicant */\n      dup6\n        /* \"ApplicantPool.sol\":2479:2505  applicantPoints[applicant] */\n      0xffffffffffffffffffffffffffffffffffffffff\n      and\n      0xffffffffffffffffffffffffffffffffffffffff\n      and\n      dup2\n      mstore\n      0x20\n      add\n      swap1\n      dup2\n      mstore\n      0x20\n      add\n      0x00\n      keccak256\n      0x00\n        /* \"ApplicantPool.sol\":2479:2510  applicantPoints[applicant] += 1 */\n      dup3\n      dup3\n      sload\n      tag_142\n      swap2\n      swap1\n      tag_143\n      jump\t// in\n    tag_142:\n      swap3\n      pop\n      pop\n      dup2\n      swap1\n      sstore\n      pop\n        /* \"ApplicantPool.sol\":2070:2518  {... */\n      pop\n        /* \"ApplicantPool.sol\":1995:2518  function voteForApplicant(address applicant) public memberOnly(msg.sender) {... */\n      pop\n      pop\n      jump\t// out\n        /* \"ApplicantPool.sol\":1173:1344  function getApplicants()... */\n    tag_36:\n        /* \"ApplicantPool.sol\":1282:1298  address[] memory */\n      0x60\n        /* \"ApplicantPool.sol\":1252:1262  msg.sender */\n      caller\n        /* \"ApplicantPool.sol\":1110:1127  memberPoolAddress */\n      0x07\n      0x00\n      swap1\n      sload\n      swap1\n      0x0100\n      exp\n      swap1\n      div\n      0xffffffffffffffffffffffffffffffffffffffff\n      and\n        /* \"ApplicantPool.sol\":1100:1127  sender == memberPoolAddress */\n      0xffffffffffffffffffffffffffffffffffffffff\n      and\n        /* \"ApplicantPool.sol\":1100:1106  sender */\n      dup2\n        /* \"ApplicantPool.sol\":1100:1127  sender == memberPoolAddress */\n      0xffffffffffffffffffffffffffffffffffffffff\n      and\n      eq\n        /* \"ApplicantPool.sol\":1092:1145  require(sender == memberPoolAddress, \"Access Denied\") */\n      tag_145\n      jumpi\n      mload(0x40)\n      0x08c379a000000000000000000000000000000000000000000000000000000000\n      dup2\n      mstore\n      0x04\n      add\n      tag_146\n      swap1\n      tag_93\n      jump\t// in\n    tag_146:\n      mload(0x40)\n      dup1\n      swap2\n      sub\n      swap1\n      revert\n    tag_145:\n        /* \"ApplicantPool.sol\":1323:1336  applicantList */\n      0x00\n        /* \"ApplicantPool.sol\":1316:1336  return applicantList */\n      dup1\n      sload\n      dup1\n      0x20\n      mul\n      0x20\n      add\n      mload(0x40)\n      swap1\n      dup2\n      add\n      0x40\n      mstore\n      dup1\n      swap3\n      swap2\n      swap1\n      dup2\n      dup2\n      mstore\n      0x20\n      add\n      dup3\n      dup1\n      sload\n      dup1\n      iszero\n      tag_148\n      jumpi\n      0x20\n      mul\n      dup3\n      add\n      swap2\n      swap1\n      0x00\n      mstore\n      keccak256(0x00, 0x20)\n      swap1\n    tag_149:\n      dup2\n      0x00\n      swap1\n      sload\n      swap1\n      0x0100\n      exp\n      swap1\n      div\n      0xffffffffffffffffffffffffffffffffffffffff\n      and\n      0xffffffffffffffffffffffffffffffffffffffff\n      and\n      dup2\n      mstore\n      0x20\n      add\n      swap1\n      0x01\n      add\n      swap1\n      dup1\n      dup4\n      gt\n      tag_149\n      jumpi\n    tag_148:\n      pop\n      pop\n      pop\n      pop\n      pop\n      swap2\n      pop\n        /* \"ApplicantPool.sol\":1173:1344  function getApplicants()... */\n      pop\n      swap1\n      jump\t// out\n        /* \"ApplicantPool.sol\":273:303  address[] public applicantList */\n    tag_43:\n      0x00\n      dup2\n      dup2\n      sload\n      dup2\n      lt\n      tag_150\n      jumpi\n      0x00\n      dup1\n      revert\n    tag_150:\n      swap1\n      0x00\n      mstore\n      keccak256(0x00, 0x20)\n      add\n      0x00\n      swap2\n      pop\n      sload\n      swap1\n      0x0100\n      exp\n      swap1\n      div\n      0xffffffffffffffffffffffffffffffffffffffff\n      and\n      dup2\n      jump\t// out\n        /* \"ApplicantPool.sol\":572:604  address public memberPoolAddress */\n    tag_48:\n      0x07\n      0x00\n      swap1\n      sload\n      swap1\n      0x0100\n      exp\n      swap1\n      div\n      0xffffffffffffffffffffffffffffffffffffffff\n      and\n      dup2\n      jump\t// out\n        /* \"ApplicantPool.sol\":640:683  uint256 public applicantFeeAmount = 1000000 */\n    tag_52:\n      sload(0x09)\n      dup2\n      jump\t// out\n        /* \"ApplicantPool.sol\":2526:2688  function getApplicantVoteEndDate(address applicant)... */\n    tag_58:\n        /* \"ApplicantPool.sol\":2626:2633  uint256 */\n      0x00\n        /* \"ApplicantPool.sol\":2658:2669  voteEndTime */\n      0x05\n        /* \"ApplicantPool.sol\":2658:2680  voteEndTime[applicant] */\n      0x00\n        /* \"ApplicantPool.sol\":2670:2679  applicant */\n      dup4\n        /* \"ApplicantPool.sol\":2658:2680  voteEndTime[applicant] */\n      0xffffffffffffffffffffffffffffffffffffffff\n      and\n      0xffffffffffffffffffffffffffffffffffffffff\n      and\n      dup2\n      mstore\n      0x20\n      add\n      swap1\n      dup2\n      mstore\n      0x20\n      add\n      0x00\n      keccak256\n      sload\n        /* \"ApplicantPool.sol\":2651:2680  return voteEndTime[applicant] */\n      swap1\n      pop\n        /* \"ApplicantPool.sol\":2526:2688  function getApplicantVoteEndDate(address applicant)... */\n      swap2\n      swap1\n      pop\n      jump\t// out\n        /* \"ApplicantPool.sol\":611:633  uint256 public balance */\n    tag_62:\n      sload(0x08)\n      dup2\n      jump\t// out\n        /* \"ApplicantPool.sol\":2901:3073  function getApplicantVoteCount(address applicant)... */\n    tag_67:\n        /* \"ApplicantPool.sol\":3001:3008  uint256 */\n      0x00\n        /* \"ApplicantPool.sol\":3033:3047  applicantVotes */\n      0x01\n        /* \"ApplicantPool.sol\":3033:3058  applicantVotes[applicant] */\n      0x00\n        /* \"ApplicantPool.sol\":3048:3057  applicant */\n      dup4\n        /* \"ApplicantPool.sol\":3033:3058  applicantVotes[applicant] */\n      0xffffffffffffffffffffffffffffffffffffffff\n      and\n      0xffffffffffffffffffffffffffffffffffffffff\n      and\n      dup2\n      mstore\n      0x20\n      add\n      swap1\n      dup2\n      mstore\n      0x20\n      add\n      0x00\n      keccak256\n        /* \"ApplicantPool.sol\":3033:3065  applicantVotes[applicant].length */\n      dup1\n      sload\n      swap1\n      pop\n        /* \"ApplicantPool.sol\":3026:3065  return applicantVotes[applicant].length */\n      swap1\n      pop\n        /* \"ApplicantPool.sol\":2901:3073  function getApplicantVoteCount(address applicant)... */\n      swap2\n      swap1\n      pop\n      jump\t// out\n        /* \"ApplicantPool.sol\":1352:1987  function createApplicant(string calldata reason) public payable {... */\n    tag_72:\n        /* \"ApplicantPool.sol\":1450:1453  map */\n      0x06\n      0x00\n      swap1\n      sload\n      swap1\n      0x0100\n      exp\n      swap1\n      div\n      0xffffffffffffffffffffffffffffffffffffffff\n      and\n        /* \"ApplicantPool.sol\":1450:1462  map.isMember */\n      0xffffffffffffffffffffffffffffffffffffffff\n      and\n      0x39ac7a08\n        /* \"ApplicantPool.sol\":1463:1473  msg.sender */\n      caller\n        /* \"ApplicantPool.sol\":1475:1492  memberPoolAddress */\n      0x07\n      0x00\n      swap1\n      sload\n      swap1\n      0x0100\n      exp\n      swap1\n      div\n      0xffffffffffffffffffffffffffffffffffffffff\n      and\n        /* \"ApplicantPool.sol\":1450:1493  map.isMember(msg.sender, memberPoolAddress) */\n      mload(0x40)\n      dup4\n      0xffffffff\n      and\n      0xe0\n      shl\n      dup2\n      mstore\n      0x04\n      add\n      tag_155\n      swap3\n      swap2\n      swap1\n      tag_75\n      jump\t// in\n    tag_155:\n      0x20\n      mload(0x40)\n      dup1\n      dup4\n      sub\n      dup2\n      dup7\n      gas\n      staticcall\n      iszero\n      dup1\n      iszero\n      tag_157\n      jumpi\n      returndatasize\n      0x00\n      dup1\n      returndatacopy\n      revert(0x00, returndatasize)\n    tag_157:\n      pop\n      pop\n      pop\n      pop\n      mload(0x40)\n      returndatasize\n      not(0x1f)\n      0x1f\n      dup3\n      add\n      and\n      dup3\n      add\n      dup1\n      0x40\n      mstore\n      pop\n      dup2\n      add\n      swap1\n      tag_158\n      swap2\n      swap1\n      tag_79\n      jump\t// in\n    tag_158:\n        /* \"ApplicantPool.sol\":1449:1493  !map.isMember(msg.sender, memberPoolAddress) */\n      iszero\n        /* \"ApplicantPool.sol\":1427:1542  require(... */\n      tag_159\n      jumpi\n      mload(0x40)\n      0x08c379a000000000000000000000000000000000000000000000000000000000\n      dup2\n      mstore\n      0x04\n      add\n      tag_160\n      swap1\n      tag_161\n      jump\t// in\n    tag_160:\n      mload(0x40)\n      dup1\n      swap2\n      sub\n      swap1\n      revert\n    tag_159:\n        /* \"ApplicantPool.sol\":1562:1578  activeApplicants */\n      0x03\n        /* \"ApplicantPool.sol\":1562:1590  activeApplicants[msg.sender] */\n      0x00\n        /* \"ApplicantPool.sol\":1579:1589  msg.sender */\n      caller\n        /* \"ApplicantPool.sol\":1562:1590  activeApplicants[msg.sender] */\n      0xffffffffffffffffffffffffffffffffffffffff\n      and\n      0xffffffffffffffffffffffffffffffffffffffff\n      and\n      dup2\n      mstore\n      0x20\n      add\n      swap1\n      dup2\n      mstore\n      0x20\n      add\n      0x00\n      keccak256\n      0x00\n      swap1\n      sload\n      swap1\n      0x0100\n      exp\n      swap1\n      div\n      0xff\n      and\n        /* \"ApplicantPool.sol\":1561:1590  !activeApplicants[msg.sender] */\n      iszero\n        /* \"ApplicantPool.sol\":1553:1619  require(!activeApplicants[msg.sender], \"Already active applicant\") */\n      tag_162\n      jumpi\n      mload(0x40)\n      0x08c379a000000000000000000000000000000000000000000000000000000000\n      dup2\n      mstore\n      0x04\n      add\n      tag_163\n      swap1\n      tag_164\n      jump\t// in\n    tag_163:\n      mload(0x40)\n      dup1\n      swap2\n      sub\n      swap1\n      revert\n    tag_162:\n        /* \"ApplicantPool.sol\":1668:1670  -3 */\n      0xfffffffffffffffffffffffffffffffffffffffffffffffffffffffffffffffd\n        /* \"ApplicantPool.sol\":1638:1653  applicantPoints */\n      0x02\n        /* \"ApplicantPool.sol\":1638:1665  applicantPoints[msg.sender] */\n      0x00\n        /* \"ApplicantPool.sol\":1654:1664  msg.sender */\n      caller\n        /* \"ApplicantPool.sol\":1638:1665  applicantPoints[msg.sender] */\n      0xffffffffffffffffffffffffffffffffffffffff\n      and\n      0xffffffffffffffffffffffffffffffffffffffff\n      and\n      dup2\n      mstore\n      0x20\n      add\n      swap1\n      dup2\n      mstore\n      0x20\n      add\n      0x00\n      keccak256\n      sload\n        /* \"ApplicantPool.sol\":1638:1670  applicantPoints[msg.sender] > -3 */\n      sgt\n        /* \"ApplicantPool.sol\":1630:1691  require(applicantPoints[msg.sender] > -3, \"account rejected\") */\n      tag_165\n      jumpi\n      mload(0x40)\n      0x08c379a000000000000000000000000000000000000000000000000000000000\n      dup2\n      mstore\n      0x04\n      add\n      tag_166\n      swap1\n      tag_167\n      jump\t// in\n    tag_166:\n      mload(0x40)\n      dup1\n      swap2\n      sub\n      swap1\n      revert\n    tag_165:\n        /* \"ApplicantPool.sol\":1723:1741  applicantFeeAmount */\n      sload(0x09)\n        /* \"ApplicantPool.sol\":1710:1719  msg.value */\n      callvalue\n        /* \"ApplicantPool.sol\":1710:1741  msg.value >= applicantFeeAmount */\n      lt\n      iszero\n        /* \"ApplicantPool.sol\":1702:1742  require(msg.value >= applicantFeeAmount) */\n      tag_168\n      jumpi\n      0x00\n      dup1\n      revert\n    tag_168:\n        /* \"ApplicantPool.sol\":1764:1773  msg.value */\n      callvalue\n        /* \"ApplicantPool.sol\":1753:1760  balance */\n      0x08\n      0x00\n        /* \"ApplicantPool.sol\":1753:1773  balance += msg.value */\n      dup3\n      dup3\n      sload\n      tag_169\n      swap2\n      swap1\n      tag_170\n      jump\t// in\n    tag_169:\n      swap3\n      pop\n      pop\n      dup2\n      swap1\n      sstore\n      pop\n        /* \"ApplicantPool.sol\":1813:1819  reason */\n      dup2\n      dup2\n        /* \"ApplicantPool.sol\":1784:1798  applicantWords */\n      0x04\n        /* \"ApplicantPool.sol\":1784:1810  applicantWords[msg.sender] */\n      0x00\n        /* \"ApplicantPool.sol\":1799:1809  msg.sender */\n      caller\n        /* \"ApplicantPool.sol\":1784:1810  applicantWords[msg.sender] */\n      0xffffffffffffffffffffffffffffffffffffffff\n      and\n      0xffffffffffffffffffffffffffffffffffffffff\n      and\n      dup2\n      mstore\n      0x20\n      add\n      swap1\n      dup2\n      mstore\n      0x20\n      add\n      0x00\n      keccak256\n        /* \"ApplicantPool.sol\":1784:1819  applicantWords[msg.sender] = reason */\n      swap2\n      dup3\n      tag_171\n      swap3\n      swap2\n      swap1\n      tag_172\n      jump\t// in\n    tag_171:\n      pop\n        /* \"ApplicantPool.sol\":1861:1865  true */\n      0x01\n        /* \"ApplicantPool.sol\":1830:1846  activeApplicants */\n      0x03\n        /* \"ApplicantPool.sol\":1830:1858  activeApplicants[msg.sender] */\n      0x00\n        /* \"ApplicantPool.sol\":1847:1857  msg.sender */\n      caller\n        /* \"ApplicantPool.sol\":1830:1858  activeApplicants[msg.sender] */\n      0xffffffffffffffffffffffffffffffffffffffff\n      and\n      0xffffffffffffffffffffffffffffffffffffffff\n      and\n      dup2\n      mstore\n      0x20\n      add\n      swap1\n      dup2\n      mstore\n      0x20\n      add\n      0x00\n      keccak256\n      0x00\n        /* \"ApplicantPool.sol\":1830:1865  activeApplicants[msg.sender] = true */\n      0x0100\n      exp\n      dup2\n      sload\n      dup2\n      0xff\n      mul\n      not\n      and\n      swap1\n      dup4\n      iszero\n      iszero\n      mul\n      or\n      swap1\n      sstore\n      pop\n        /* \"ApplicantPool.sol\":1876:1889  applicantList */\n      0x00\n        /* \"ApplicantPool.sol\":1895:1905  msg.sender */\n      caller\n        /* \"ApplicantPool.sol\":1876:1906  applicantList.push(msg.sender) */\n      swap1\n      dup1\n      0x01\n      dup2\n      sload\n      add\n      dup1\n      dup3\n      sstore\n      dup1\n      swap2\n      pop\n      pop\n      0x01\n      swap1\n      sub\n      swap1\n      0x00\n      mstore\n      keccak256(0x00, 0x20)\n      add\n      0x00\n      swap1\n      swap2\n      swap1\n      swap2\n      swap1\n      swap2\n      0x0100\n      exp\n      dup2\n      sload\n      dup2\n      0xffffffffffffffffffffffffffffffffffffffff\n      mul\n      not\n      and\n      swap1\n      dup4\n      0xffffffffffffffffffffffffffffffffffffffff\n      and\n      mul\n      or\n      swap1\n      sstore\n      pop\n        /* \"ApplicantPool.sol\":1961:1970  259200000 */\n      0x0f731400\n        /* \"ApplicantPool.sol\":1943:1958  block.timestamp */\n      timestamp\n        /* \"ApplicantPool.sol\":1943:1970  block.timestamp + 259200000 */\n      tag_174\n      swap2\n      swap1\n      tag_170\n      jump\t// in\n    tag_174:\n        /* \"ApplicantPool.sol\":1917:1928  voteEndTime */\n      0x05\n        /* \"ApplicantPool.sol\":1917:1940  voteEndTime[msg.sender] */\n      0x00\n        /* \"ApplicantPool.sol\":1929:1939  msg.sender */\n      caller\n        /* \"ApplicantPool.sol\":1917:1940  voteEndTime[msg.sender] */\n      0xffffffffffffffffffffffffffffffffffffffff\n      and\n      0xffffffffffffffffffffffffffffffffffffffff\n      and\n      dup2\n      mstore\n      0x20\n      add\n      swap1\n      dup2\n      mstore\n      0x20\n      add\n      0x00\n      keccak256\n        /* \"ApplicantPool.sol\":1917:1970  voteEndTime[msg.sender] = block.timestamp + 259200000 */\n      dup2\n      swap1\n      sstore\n      pop\n        /* \"ApplicantPool.sol\":1352:1987  function createApplicant(string calldata reason) public payable {... */\n      pop\n      pop\n      jump\t// out\n        /* \"ApplicantPool.sol\":3822:4183  function _burnApplicant(address applicant) internal {... */\n    tag_103:\n        /* \"ApplicantPool.sol\":3885:3898  uint256 index */\n      0x00\n        /* \"ApplicantPool.sol\":3913:4073  for (index = 0; index < applicantList.length; index++) {... */\n    tag_176:\n        /* \"ApplicantPool.sol\":3937:3950  applicantList */\n      0x00\n        /* \"ApplicantPool.sol\":3937:3957  applicantList.length */\n      dup1\n      sload\n      swap1\n      pop\n        /* \"ApplicantPool.sol\":3929:3934  index */\n      dup2\n        /* \"ApplicantPool.sol\":3929:3957  index < applicantList.length */\n      lt\n        /* \"ApplicantPool.sol\":3913:4073  for (index = 0; index < applicantList.length; index++) {... */\n      iszero\n      tag_177\n      jumpi\n        /* \"ApplicantPool.sol\":4011:4020  applicant */\n      dup2\n        /* \"ApplicantPool.sol\":3987:4020  applicantList[index] == applicant */\n      0xffffffffffffffffffffffffffffffffffffffff\n      and\n        /* \"ApplicantPool.sol\":3987:4000  applicantList */\n      0x00\n        /* \"ApplicantPool.sol\":4001:4006  index */\n      dup3\n        /* \"ApplicantPool.sol\":3987:4007  applicantList[index] */\n      dup2\n      sload\n      dup2\n      lt\n      tag_179\n      jumpi\n      tag_180\n      tag_133\n      jump\t// in\n    tag_180:\n    tag_179:\n      swap1\n      0x00\n      mstore\n      keccak256(0x00, 0x20)\n      add\n      0x00\n      swap1\n      sload\n      swap1\n      0x0100\n      exp\n      swap1\n      div\n      0xffffffffffffffffffffffffffffffffffffffff\n      and\n        /* \"ApplicantPool.sol\":3987:4020  applicantList[index] == applicant */\n      0xffffffffffffffffffffffffffffffffffffffff\n      and\n      sub\n        /* \"ApplicantPool.sol\":3983:4062  if (applicantList[index] == applicant) {... */\n      iszero\n        /* \"ApplicantPool.sol\":4041:4046  break */\n      tag_177\n        /* \"ApplicantPool.sol\":3983:4062  if (applicantList[index] == applicant) {... */\n      jumpi\n        /* \"ApplicantPool.sol\":3959:3966  index++ */\n      dup1\n      dup1\n      tag_183\n      swap1\n      tag_137\n      jump\t// in\n    tag_183:\n      swap2\n      pop\n      pop\n        /* \"ApplicantPool.sol\":3913:4073  for (index = 0; index < applicantList.length; index++) {... */\n      jump(tag_176)\n    tag_177:\n        /* \"ApplicantPool.sol\":4106:4119  applicantList */\n      0x00\n        /* \"ApplicantPool.sol\":4143:4144  1 */\n      0x01\n        /* \"ApplicantPool.sol\":4120:4133  applicantList */\n      0x00\n        /* \"ApplicantPool.sol\":4120:4140  applicantList.length */\n      dup1\n      sload\n      swap1\n      pop\n        /* \"ApplicantPool.sol\":4120:4144  applicantList.length - 1 */\n      tag_184\n      swap2\n      swap1\n      tag_185\n      jump\t// in\n    tag_184:\n        /* \"ApplicantPool.sol\":4106:4145  applicantList[applicantList.length - 1] */\n      dup2\n      sload\n      dup2\n      lt\n      tag_186\n      jumpi\n      tag_187\n      tag_133\n      jump\t// in\n    tag_187:\n    tag_186:\n      swap1\n      0x00\n      mstore\n      keccak256(0x00, 0x20)\n      add\n      0x00\n      swap1\n      sload\n      swap1\n      0x0100\n      exp\n      swap1\n      div\n      0xffffffffffffffffffffffffffffffffffffffff\n      and\n        /* \"ApplicantPool.sol\":4083:4096  applicantList */\n      0x00\n        /* \"ApplicantPool.sol\":4097:4102  index */\n      dup3\n        /* \"ApplicantPool.sol\":4083:4103  applicantList[index] */\n      dup2\n      sload\n      dup2\n      lt\n      tag_189\n      jumpi\n      tag_190\n      tag_133\n      jump\t// in\n    tag_190:\n    tag_189:\n      swap1\n      0x00\n      mstore\n      keccak256(0x00, 0x20)\n      add\n      0x00\n        /* \"ApplicantPool.sol\":4083:4145  applicantList[index] = applicantList[applicantList.length - 1] */\n      0x0100\n      exp\n      dup2\n      sload\n      dup2\n      0xffffffffffffffffffffffffffffffffffffffff\n      mul\n      not\n      and\n      swap1\n      dup4\n      0xffffffffffffffffffffffffffffffffffffffff\n      and\n      mul\n      or\n      swap1\n      sstore\n      pop\n        /* \"ApplicantPool.sol\":4156:4169  applicantList */\n      0x00\n        /* \"ApplicantPool.sol\":4156:4175  applicantList.pop() */\n      dup1\n      sload\n      dup1\n      tag_192\n      jumpi\n      tag_193\n      tag_194\n      jump\t// in\n    tag_193:\n    tag_192:\n      0x01\n      swap1\n      sub\n      dup2\n      dup2\n      swap1\n      0x00\n      mstore\n      keccak256(0x00, 0x20)\n      add\n      exp(0x0100, 0x00)\n      dup2\n      sload\n      swap1\n      0xffffffffffffffffffffffffffffffffffffffff\n      mul\n      not\n      and\n      swap1\n      sstore\n      swap1\n      sstore\n        /* \"ApplicantPool.sol\":3874:4183  {... */\n      pop\n        /* \"ApplicantPool.sol\":3822:4183  function _burnApplicant(address applicant) internal {... */\n      pop\n      jump\t// out\n    tag_105:\n      pop\n      dup1\n      sload\n      0x00\n      dup3\n      sstore\n      swap1\n      0x00\n      mstore\n      keccak256(0x00, 0x20)\n      swap1\n      dup2\n      add\n      swap1\n      tag_197\n      swap2\n      swap1\n      tag_198\n      jump\t// in\n    tag_197:\n      pop\n      jump\t// out\n    tag_198:\n    tag_199:\n      dup1\n      dup3\n      gt\n      iszero\n      tag_200\n      jumpi\n      0x00\n      dup2\n      0x00\n      swap1\n      sstore\n      pop\n      0x01\n      add\n      jump(tag_199)\n    tag_200:\n      pop\n      swap1\n      jump\t// out\n        /* \"#utility.yul\":88:205   */\n    tag_202:\n        /* \"#utility.yul\":197:198   */\n      0x00\n        /* \"#utility.yul\":194:195   */\n      dup1\n        /* \"#utility.yul\":187:199   */\n      revert\n        /* \"#utility.yul\":211:328   */\n    tag_203:\n        /* \"#utility.yul\":320:321   */\n      0x00\n        /* \"#utility.yul\":317:318   */\n      dup1\n        /* \"#utility.yul\":310:322   */\n      revert\n        /* \"#utility.yul\":334:460   */\n    tag_204:\n        /* \"#utility.yul\":371:378   */\n      0x00\n        /* \"#utility.yul\":411:453   */\n      0xffffffffffffffffffffffffffffffffffffffff\n        /* \"#utility.yul\":404:409   */\n      dup3\n        /* \"#utility.yul\":400:454   */\n      and\n        /* \"#utility.yul\":389:454   */\n      swap1\n      pop\n        /* \"#utility.yul\":334:460   */\n      swap2\n      swap1\n      pop\n      jump\t// out\n        /* \"#utility.yul\":466:562   */\n    tag_205:\n        /* \"#utility.yul\":503:510   */\n      0x00\n        /* \"#utility.yul\":532:556   */\n      tag_276\n        /* \"#utility.yul\":550:555   */\n      dup3\n        /* \"#utility.yul\":532:556   */\n      tag_204\n      jump\t// in\n    tag_276:\n        /* \"#utility.yul\":521:556   */\n      swap1\n      pop\n        /* \"#utility.yul\":466:562   */\n      swap2\n      swap1\n      pop\n      jump\t// out\n        /* \"#utility.yul\":568:690   */\n    tag_206:\n        /* \"#utility.yul\":641:665   */\n      tag_278\n        /* \"#utility.yul\":659:664   */\n      dup2\n        /* \"#utility.yul\":641:665   */\n      tag_205\n      jump\t// in\n    tag_278:\n        /* \"#utility.yul\":634:639   */\n      dup2\n        /* \"#utility.yul\":631:666   */\n      eq\n        /* \"#utility.yul\":621:684   */\n      tag_279\n      jumpi\n        /* \"#utility.yul\":680:681   */\n      0x00\n        /* \"#utility.yul\":677:678   */\n      dup1\n        /* \"#utility.yul\":670:682   */\n      revert\n        /* \"#utility.yul\":621:684   */\n    tag_279:\n        /* \"#utility.yul\":568:690   */\n      pop\n      jump\t// out\n        /* \"#utility.yul\":696:835   */\n    tag_207:\n        /* \"#utility.yul\":742:747   */\n      0x00\n        /* \"#utility.yul\":780:786   */\n      dup2\n        /* \"#utility.yul\":767:787   */\n      calldataload\n        /* \"#utility.yul\":758:787   */\n      swap1\n      pop\n        /* \"#utility.yul\":796:829   */\n      tag_281\n        /* \"#utility.yul\":823:828   */\n      dup2\n        /* \"#utility.yul\":796:829   */\n      tag_206\n      jump\t// in\n    tag_281:\n        /* \"#utility.yul\":696:835   */\n      swap3\n      swap2\n      pop\n      pop\n      jump\t// out\n        /* \"#utility.yul\":841:1170   */\n    tag_18:\n        /* \"#utility.yul\":900:906   */\n      0x00\n        /* \"#utility.yul\":949:951   */\n      0x20\n        /* \"#utility.yul\":937:946   */\n      dup3\n        /* \"#utility.yul\":928:935   */\n      dup5\n        /* \"#utility.yul\":924:947   */\n      sub\n        /* \"#utility.yul\":920:952   */\n      slt\n        /* \"#utility.yul\":917:1036   */\n      iszero\n      tag_283\n      jumpi\n        /* \"#utility.yul\":955:1034   */\n      tag_284\n      tag_202\n      jump\t// in\n    tag_284:\n        /* \"#utility.yul\":917:1036   */\n    tag_283:\n        /* \"#utility.yul\":1075:1076   */\n      0x00\n        /* \"#utility.yul\":1100:1153   */\n      tag_285\n        /* \"#utility.yul\":1145:1152   */\n      dup5\n        /* \"#utility.yul\":1136:1142   */\n      dup3\n        /* \"#utility.yul\":1125:1134   */\n      dup6\n        /* \"#utility.yul\":1121:1143   */\n      add\n        /* \"#utility.yul\":1100:1153   */\n      tag_207\n      jump\t// in\n    tag_285:\n        /* \"#utility.yul\":1090:1153   */\n      swap2\n      pop\n        /* \"#utility.yul\":1046:1163   */\n      pop\n        /* \"#utility.yul\":841:1170   */\n      swap3\n      swap2\n      pop\n      pop\n      jump\t// out\n        /* \"#utility.yul\":1176:1275   */\n    tag_208:\n        /* \"#utility.yul\":1228:1234   */\n      0x00\n        /* \"#utility.yul\":1262:1267   */\n      dup2\n        /* \"#utility.yul\":1256:1268   */\n      mload\n        /* \"#utility.yul\":1246:1268   */\n      swap1\n      pop\n        /* \"#utility.yul\":1176:1275   */\n      swap2\n      swap1\n      pop\n      jump\t// out\n        /* \"#utility.yul\":1281:1450   */\n    tag_209:\n        /* \"#utility.yul\":1365:1376   */\n      0x00\n        /* \"#utility.yul\":1399:1405   */\n      dup3\n        /* \"#utility.yul\":1394:1397   */\n      dup3\n        /* \"#utility.yul\":1387:1406   */\n      mstore\n        /* \"#utility.yul\":1439:1443   */\n      0x20\n        /* \"#utility.yul\":1434:1437   */\n      dup3\n        /* \"#utility.yul\":1430:1444   */\n      add\n        /* \"#utility.yul\":1415:1444   */\n      swap1\n      pop\n        /* \"#utility.yul\":1281:1450   */\n      swap3\n      swap2\n      pop\n      pop\n      jump\t// out\n        /* \"#utility.yul\":1456:1702   */\n    tag_210:\n        /* \"#utility.yul\":1537:1538   */\n      0x00\n        /* \"#utility.yul\":1547:1660   */\n    tag_289:\n        /* \"#utility.yul\":1561:1567   */\n      dup4\n        /* \"#utility.yul\":1558:1559   */\n      dup2\n        /* \"#utility.yul\":1555:1568   */\n      lt\n        /* \"#utility.yul\":1547:1660   */\n      iszero\n      tag_291\n      jumpi\n        /* \"#utility.yul\":1646:1647   */\n      dup1\n        /* \"#utility.yul\":1641:1644   */\n      dup3\n        /* \"#utility.yul\":1637:1648   */\n      add\n        /* \"#utility.yul\":1631:1649   */\n      mload\n        /* \"#utility.yul\":1627:1628   */\n      dup2\n        /* \"#utility.yul\":1622:1625   */\n      dup5\n        /* \"#utility.yul\":1618:1629   */\n      add\n        /* \"#utility.yul\":1611:1650   */\n      mstore\n        /* \"#utility.yul\":1583:1585   */\n      0x20\n        /* \"#utility.yul\":1580:1581   */\n      dup2\n        /* \"#utility.yul\":1576:1586   */\n      add\n        /* \"#utility.yul\":1571:1586   */\n      swap1\n      pop\n        /* \"#utility.yul\":1547:1660   */\n      jump(tag_289)\n    tag_291:\n        /* \"#utility.yul\":1694:1695   */\n      0x00\n        /* \"#utility.yul\":1685:1691   */\n      dup5\n        /* \"#utility.yul\":1680:1683   */\n      dup5\n        /* \"#utility.yul\":1676:1692   */\n      add\n        /* \"#utility.yul\":1669:1696   */\n      mstore\n        /* \"#utility.yul\":1518:1702   */\n      pop\n        /* \"#utility.yul\":1456:1702   */\n      pop\n      pop\n      pop\n      jump\t// out\n        /* \"#utility.yul\":1708:1810   */\n    tag_211:\n        /* \"#utility.yul\":1749:1755   */\n      0x00\n        /* \"#utility.yul\":1800:1802   */\n      0x1f\n        /* \"#utility.yul\":1796:1803   */\n      not\n        /* \"#utility.yul\":1791:1793   */\n      0x1f\n        /* \"#utility.yul\":1784:1789   */\n      dup4\n        /* \"#utility.yul\":1780:1794   */\n      add\n        /* \"#utility.yul\":1776:1804   */\n      and\n        /* \"#utility.yul\":1766:1804   */\n      swap1\n      pop\n        /* \"#utility.yul\":1708:1810   */\n      swap2\n      swap1\n      pop\n      jump\t// out\n        /* \"#utility.yul\":1816:2193   */\n    tag_212:\n        /* \"#utility.yul\":1904:1907   */\n      0x00\n        /* \"#utility.yul\":1932:1971   */\n      tag_294\n        /* \"#utility.yul\":1965:1970   */\n      dup3\n        /* \"#utility.yul\":1932:1971   */\n      tag_208\n      jump\t// in\n    tag_294:\n        /* \"#utility.yul\":1987:2058   */\n      tag_295\n        /* \"#utility.yul\":2051:2057   */\n      dup2\n        /* \"#utility.yul\":2046:2049   */\n      dup6\n        /* \"#utility.yul\":1987:2058   */\n      tag_209\n      jump\t// in\n    tag_295:\n        /* \"#utility.yul\":1980:2058   */\n      swap4\n      pop\n        /* \"#utility.yul\":2067:2132   */\n      tag_296\n        /* \"#utility.yul\":2125:2131   */\n      dup2\n        /* \"#utility.yul\":2120:2123   */\n      dup6\n        /* \"#utility.yul\":2113:2117   */\n      0x20\n        /* \"#utility.yul\":2106:2111   */\n      dup7\n        /* \"#utility.yul\":2102:2118   */\n      add\n        /* \"#utility.yul\":2067:2132   */\n      tag_210\n      jump\t// in\n    tag_296:\n        /* \"#utility.yul\":2157:2186   */\n      tag_297\n        /* \"#utility.yul\":2179:2185   */\n      dup2\n        /* \"#utility.yul\":2157:2186   */\n      tag_211\n      jump\t// in\n    tag_297:\n        /* \"#utility.yul\":2152:2155   */\n      dup5\n        /* \"#utility.yul\":2148:2187   */\n      add\n        /* \"#utility.yul\":2141:2187   */\n      swap2\n      pop\n        /* \"#utility.yul\":1908:2193   */\n      pop\n        /* \"#utility.yul\":1816:2193   */\n      swap3\n      swap2\n      pop\n      pop\n      jump\t// out\n        /* \"#utility.yul\":2199:2512   */\n    tag_21:\n        /* \"#utility.yul\":2312:2316   */\n      0x00\n        /* \"#utility.yul\":2350:2352   */\n      0x20\n        /* \"#utility.yul\":2339:2348   */\n      dup3\n        /* \"#utility.yul\":2335:2353   */\n      add\n        /* \"#utility.yul\":2327:2353   */\n      swap1\n      pop\n        /* \"#utility.yul\":2399:2408   */\n      dup2\n        /* \"#utility.yul\":2393:2397   */\n      dup2\n        /* \"#utility.yul\":2389:2409   */\n      sub\n        /* \"#utility.yul\":2385:2386   */\n      0x00\n        /* \"#utility.yul\":2374:2383   */\n      dup4\n        /* \"#utility.yul\":2370:2387   */\n      add\n        /* \"#utility.yul\":2363:2410   */\n      mstore\n        /* \"#utility.yul\":2427:2505   */\n      tag_299\n        /* \"#utility.yul\":2500:2504   */\n      dup2\n        /* \"#utility.yul\":2491:2497   */\n      dup5\n        /* \"#utility.yul\":2427:2505   */\n      tag_212\n      jump\t// in\n    tag_299:\n        /* \"#utility.yul\":2419:2505   */\n      swap1\n      pop\n        /* \"#utility.yul\":2199:2512   */\n      swap3\n      swap2\n      pop\n      pop\n      jump\t// out\n        /* \"#utility.yul\":2518:2632   */\n    tag_213:\n        /* \"#utility.yul\":2585:2591   */\n      0x00\n        /* \"#utility.yul\":2619:2624   */\n      dup2\n        /* \"#utility.yul\":2613:2625   */\n      mload\n        /* \"#utility.yul\":2603:2625   */\n      swap1\n      pop\n        /* \"#utility.yul\":2518:2632   */\n      swap2\n      swap1\n      pop\n      jump\t// out\n        /* \"#utility.yul\":2638:2822   */\n    tag_214:\n        /* \"#utility.yul\":2737:2748   */\n      0x00\n        /* \"#utility.yul\":2771:2777   */\n      dup3\n        /* \"#utility.yul\":2766:2769   */\n      dup3\n        /* \"#utility.yul\":2759:2778   */\n      mstore\n        /* \"#utility.yul\":2811:2815   */\n      0x20\n        /* \"#utility.yul\":2806:2809   */\n      dup3\n        /* \"#utility.yul\":2802:2816   */\n      add\n        /* \"#utility.yul\":2787:2816   */\n      swap1\n      pop\n        /* \"#utility.yul\":2638:2822   */\n      swap3\n      swap2\n      pop\n      pop\n      jump\t// out\n        /* \"#utility.yul\":2828:2960   */\n    tag_215:\n        /* \"#utility.yul\":2895:2899   */\n      0x00\n        /* \"#utility.yul\":2918:2921   */\n      dup2\n        /* \"#utility.yul\":2910:2921   */\n      swap1\n      pop\n        /* \"#utility.yul\":2948:2952   */\n      0x20\n        /* \"#utility.yul\":2943:2946   */\n      dup3\n        /* \"#utility.yul\":2939:2953   */\n      add\n        /* \"#utility.yul\":2931:2953   */\n      swap1\n      pop\n        /* \"#utility.yul\":2828:2960   */\n      swap2\n      swap1\n      pop\n      jump\t// out\n        /* \"#utility.yul\":2966:3074   */\n    tag_216:\n        /* \"#utility.yul\":3043:3067   */\n      tag_304\n        /* \"#utility.yul\":3061:3066   */\n      dup2\n        /* \"#utility.yul\":3043:3067   */\n      tag_205\n      jump\t// in\n    tag_304:\n        /* \"#utility.yul\":3038:3041   */\n      dup3\n        /* \"#utility.yul\":3031:3068   */\n      mstore\n        /* \"#utility.yul\":2966:3074   */\n      pop\n      pop\n      jump\t// out\n        /* \"#utility.yul\":3080:3259   */\n    tag_217:\n        /* \"#utility.yul\":3149:3159   */\n      0x00\n        /* \"#utility.yul\":3170:3216   */\n      tag_306\n        /* \"#utility.yul\":3212:3215   */\n      dup4\n        /* \"#utility.yul\":3204:3210   */\n      dup4\n        /* \"#utility.yul\":3170:3216   */\n      tag_216\n      jump\t// in\n    tag_306:\n        /* \"#utility.yul\":3248:3252   */\n      0x20\n        /* \"#utility.yul\":3243:3246   */\n      dup4\n        /* \"#utility.yul\":3239:3253   */\n      add\n        /* \"#utility.yul\":3225:3253   */\n      swap1\n      pop\n        /* \"#utility.yul\":3080:3259   */\n      swap3\n      swap2\n      pop\n      pop\n      jump\t// out\n        /* \"#utility.yul\":3265:3378   */\n    tag_218:\n        /* \"#utility.yul\":3335:3339   */\n      0x00\n        /* \"#utility.yul\":3367:3371   */\n      0x20\n        /* \"#utility.yul\":3362:3365   */\n      dup3\n        /* \"#utility.yul\":3358:3372   */\n      add\n        /* \"#utility.yul\":3350:3372   */\n      swap1\n      pop\n        /* \"#utility.yul\":3265:3378   */\n      swap2\n      swap1\n      pop\n      jump\t// out\n        /* \"#utility.yul\":3414:4146   */\n    tag_219:\n        /* \"#utility.yul\":3533:3536   */\n      0x00\n        /* \"#utility.yul\":3562:3616   */\n      tag_309\n        /* \"#utility.yul\":3610:3615   */\n      dup3\n        /* \"#utility.yul\":3562:3616   */\n      tag_213\n      jump\t// in\n    tag_309:\n        /* \"#utility.yul\":3632:3718   */\n      tag_310\n        /* \"#utility.yul\":3711:3717   */\n      dup2\n        /* \"#utility.yul\":3706:3709   */\n      dup6\n        /* \"#utility.yul\":3632:3718   */\n      tag_214\n      jump\t// in\n    tag_310:\n        /* \"#utility.yul\":3625:3718   */\n      swap4\n      pop\n        /* \"#utility.yul\":3742:3798   */\n      tag_311\n        /* \"#utility.yul\":3792:3797   */\n      dup4\n        /* \"#utility.yul\":3742:3798   */\n      tag_215\n      jump\t// in\n    tag_311:\n        /* \"#utility.yul\":3821:3828   */\n      dup1\n        /* \"#utility.yul\":3852:3853   */\n      0x00\n        /* \"#utility.yul\":3837:4121   */\n    tag_312:\n        /* \"#utility.yul\":3862:3868   */\n      dup4\n        /* \"#utility.yul\":3859:3860   */\n      dup2\n        /* \"#utility.yul\":3856:3869   */\n      lt\n        /* \"#utility.yul\":3837:4121   */\n      iszero\n      tag_314\n      jumpi\n        /* \"#utility.yul\":3938:3944   */\n      dup2\n        /* \"#utility.yul\":3932:3945   */\n      mload\n        /* \"#utility.yul\":3965:4028   */\n      tag_315\n        /* \"#utility.yul\":4024:4027   */\n      dup9\n        /* \"#utility.yul\":4009:4022   */\n      dup3\n        /* \"#utility.yul\":3965:4028   */\n      tag_217\n      jump\t// in\n    tag_315:\n        /* \"#utility.yul\":3958:4028   */\n      swap8\n      pop\n        /* \"#utility.yul\":4051:4111   */\n      tag_316\n        /* \"#utility.yul\":4104:4110   */\n      dup4\n        /* \"#utility.yul\":4051:4111   */\n      tag_218\n      jump\t// in\n    tag_316:\n        /* \"#utility.yul\":4041:4111   */\n      swap3\n      pop\n        /* \"#utility.yul\":3897:4121   */\n      pop\n        /* \"#utility.yul\":3884:3885   */\n      0x01\n        /* \"#utility.yul\":3881:3882   */\n      dup2\n        /* \"#utility.yul\":3877:3886   */\n      add\n        /* \"#utility.yul\":3872:3886   */\n      swap1\n      pop\n        /* \"#utility.yul\":3837:4121   */\n      jump(tag_312)\n    tag_314:\n        /* \"#utility.yul\":3841:3855   */\n      pop\n        /* \"#utility.yul\":4137:4140   */\n      dup6\n        /* \"#utility.yul\":4130:4140   */\n      swap4\n      pop\n        /* \"#utility.yul\":3538:4146   */\n      pop\n      pop\n      pop\n        /* \"#utility.yul\":3414:4146   */\n      swap3\n      swap2\n      pop\n      pop\n      jump\t// out\n        /* \"#utility.yul\":4152:4525   */\n    tag_38:\n        /* \"#utility.yul\":4295:4299   */\n      0x00\n        /* \"#utility.yul\":4333:4335   */\n      0x20\n        /* \"#utility.yul\":4322:4331   */\n      dup3\n        /* \"#utility.yul\":4318:4336   */\n      add\n        /* \"#utility.yul\":4310:4336   */\n      swap1\n      pop\n        /* \"#utility.yul\":4382:4391   */\n      dup2\n        /* \"#utility.yul\":4376:4380   */\n      dup2\n        /* \"#utility.yul\":4372:4392   */\n      sub\n        /* \"#utility.yul\":4368:4369   */\n      0x00\n        /* \"#utility.yul\":4357:4366   */\n      dup4\n        /* \"#utility.yul\":4353:4370   */\n      add\n        /* \"#utility.yul\":4346:4393   */\n      mstore\n        /* \"#utility.yul\":4410:4518   */\n      tag_318\n        /* \"#utility.yul\":4513:4517   */\n      dup2\n        /* \"#utility.yul\":4504:4510   */\n      dup5\n        /* \"#utility.yul\":4410:4518   */\n      tag_219\n      jump\t// in\n    tag_318:\n        /* \"#utility.yul\":4402:4518   */\n      swap1\n      pop\n        /* \"#utility.yul\":4152:4525   */\n      swap3\n      swap2\n      pop\n      pop\n      jump\t// out\n        /* \"#utility.yul\":4531:4608   */\n    tag_220:\n        /* \"#utility.yul\":4568:4575   */\n      0x00\n        /* \"#utility.yul\":4597:4602   */\n      dup2\n        /* \"#utility.yul\":4586:4602   */\n      swap1\n      pop\n        /* \"#utility.yul\":4531:4608   */\n      swap2\n      swap1\n      pop\n      jump\t// out\n        /* \"#utility.yul\":4614:4736   */\n    tag_221:\n        /* \"#utility.yul\":4687:4711   */\n      tag_321\n        /* \"#utility.yul\":4705:4710   */\n      dup2\n        /* \"#utility.yul\":4687:4711   */\n      tag_220\n      jump\t// in\n    tag_321:\n        /* \"#utility.yul\":4680:4685   */\n      dup2\n        /* \"#utility.yul\":4677:4712   */\n      eq\n        /* \"#utility.yul\":4667:4730   */\n      tag_322\n      jumpi\n        /* \"#utility.yul\":4726:4727   */\n      0x00\n        /* \"#utility.yul\":4723:4724   */\n      dup1\n        /* \"#utility.yul\":4716:4728   */\n      revert\n        /* \"#utility.yul\":4667:4730   */\n    tag_322:\n        /* \"#utility.yul\":4614:4736   */\n      pop\n      jump\t// out\n        /* \"#utility.yul\":4742:4881   */\n    tag_222:\n        /* \"#utility.yul\":4788:4793   */\n      0x00\n        /* \"#utility.yul\":4826:4832   */\n      dup2\n        /* \"#utility.yul\":4813:4833   */\n      calldataload\n        /* \"#utility.yul\":4804:4833   */\n      swap1\n      pop\n        /* \"#utility.yul\":4842:4875   */\n      tag_324\n        /* \"#utility.yul\":4869:4874   */\n      dup2\n        /* \"#utility.yul\":4842:4875   */\n      tag_221\n      jump\t// in\n    tag_324:\n        /* \"#utility.yul\":4742:4881   */\n      swap3\n      swap2\n      pop\n      pop\n      jump\t// out\n        /* \"#utility.yul\":4887:5216   */\n    tag_42:\n        /* \"#utility.yul\":4946:4952   */\n      0x00\n        /* \"#utility.yul\":4995:4997   */\n      0x20\n        /* \"#utility.yul\":4983:4992   */\n      dup3\n        /* \"#utility.yul\":4974:4981   */\n      dup5\n        /* \"#utility.yul\":4970:4993   */\n      sub\n        /* \"#utility.yul\":4966:4998   */\n      slt\n        /* \"#utility.yul\":4963:5082   */\n      iszero\n      tag_326\n      jumpi\n        /* \"#utility.yul\":5001:5080   */\n      tag_327\n      tag_202\n      jump\t// in\n    tag_327:\n        /* \"#utility.yul\":4963:5082   */\n    tag_326:\n        /* \"#utility.yul\":5121:5122   */\n      0x00\n        /* \"#utility.yul\":5146:5199   */\n      tag_328\n        /* \"#utility.yul\":5191:5198   */\n      dup5\n        /* \"#utility.yul\":5182:5188   */\n      dup3\n        /* \"#utility.yul\":5171:5180   */\n      dup6\n        /* \"#utility.yul\":5167:5189   */\n      add\n        /* \"#utility.yul\":5146:5199   */\n      tag_222\n      jump\t// in\n    tag_328:\n        /* \"#utility.yul\":5136:5199   */\n      swap2\n      pop\n        /* \"#utility.yul\":5092:5209   */\n      pop\n        /* \"#utility.yul\":4887:5216   */\n      swap3\n      swap2\n      pop\n      pop\n      jump\t// out\n        /* \"#utility.yul\":5222:5340   */\n    tag_223:\n        /* \"#utility.yul\":5309:5333   */\n      tag_330\n        /* \"#utility.yul\":5327:5332   */\n      dup2\n        /* \"#utility.yul\":5309:5333   */\n      tag_205\n      jump\t// in\n    tag_330:\n        /* \"#utility.yul\":5304:5307   */\n      dup3\n        /* \"#utility.yul\":5297:5334   */\n      mstore\n        /* \"#utility.yul\":5222:5340   */\n      pop\n      pop\n      jump\t// out\n        /* \"#utility.yul\":5346:5568   */\n    tag_45:\n        /* \"#utility.yul\":5439:5443   */\n      0x00\n        /* \"#utility.yul\":5477:5479   */\n      0x20\n        /* \"#utility.yul\":5466:5475   */\n      dup3\n        /* \"#utility.yul\":5462:5480   */\n      add\n        /* \"#utility.yul\":5454:5480   */\n      swap1\n      pop\n        /* \"#utility.yul\":5490:5561   */\n      tag_332\n        /* \"#utility.yul\":5558:5559   */\n      0x00\n        /* \"#utility.yul\":5547:5556   */\n      dup4\n        /* \"#utility.yul\":5543:5560   */\n      add\n        /* \"#utility.yul\":5534:5540   */\n      dup5\n        /* \"#utility.yul\":5490:5561   */\n      tag_223\n      jump\t// in\n    tag_332:\n        /* \"#utility.yul\":5346:5568   */\n      swap3\n      swap2\n      pop\n      pop\n      jump\t// out\n        /* \"#utility.yul\":5574:5692   */\n    tag_224:\n        /* \"#utility.yul\":5661:5685   */\n      tag_334\n        /* \"#utility.yul\":5679:5684   */\n      dup2\n        /* \"#utility.yul\":5661:5685   */\n      tag_220\n      jump\t// in\n    tag_334:\n        /* \"#utility.yul\":5656:5659   */\n      dup3\n        /* \"#utility.yul\":5649:5686   */\n      mstore\n        /* \"#utility.yul\":5574:5692   */\n      pop\n      pop\n      jump\t// out\n        /* \"#utility.yul\":5698:5920   */\n    tag_54:\n        /* \"#utility.yul\":5791:5795   */\n      0x00\n        /* \"#utility.yul\":5829:5831   */\n      0x20\n        /* \"#utility.yul\":5818:5827   */\n      dup3\n        /* \"#utility.yul\":5814:5832   */\n      add\n        /* \"#utility.yul\":5806:5832   */\n      swap1\n      pop\n        /* \"#utility.yul\":5842:5913   */\n      tag_336\n        /* \"#utility.yul\":5910:5911   */\n      0x00\n        /* \"#utility.yul\":5899:5908   */\n      dup4\n        /* \"#utility.yul\":5895:5912   */\n      add\n        /* \"#utility.yul\":5886:5892   */\n      dup5\n        /* \"#utility.yul\":5842:5913   */\n      tag_224\n      jump\t// in\n    tag_336:\n        /* \"#utility.yul\":5698:5920   */\n      swap3\n      swap2\n      pop\n      pop\n      jump\t// out\n        /* \"#utility.yul\":5926:6043   */\n    tag_225:\n        /* \"#utility.yul\":6035:6036   */\n      0x00\n        /* \"#utility.yul\":6032:6033   */\n      dup1\n        /* \"#utility.yul\":6025:6037   */\n      revert\n        /* \"#utility.yul\":6049:6166   */\n    tag_226:\n        /* \"#utility.yul\":6158:6159   */\n      0x00\n        /* \"#utility.yul\":6155:6156   */\n      dup1\n        /* \"#utility.yul\":6148:6160   */\n      revert\n        /* \"#utility.yul\":6172:6289   */\n    tag_227:\n        /* \"#utility.yul\":6281:6282   */\n      0x00\n        /* \"#utility.yul\":6278:6279   */\n      dup1\n        /* \"#utility.yul\":6271:6283   */\n      revert\n        /* \"#utility.yul\":6309:6862   */\n    tag_228:\n        /* \"#utility.yul\":6367:6375   */\n      0x00\n        /* \"#utility.yul\":6377:6383   */\n      dup1\n        /* \"#utility.yul\":6427:6430   */\n      dup4\n        /* \"#utility.yul\":6420:6424   */\n      0x1f\n        /* \"#utility.yul\":6412:6418   */\n      dup5\n        /* \"#utility.yul\":6408:6425   */\n      add\n        /* \"#utility.yul\":6404:6431   */\n      slt\n        /* \"#utility.yul\":6394:6516   */\n      tag_341\n      jumpi\n        /* \"#utility.yul\":6435:6514   */\n      tag_342\n      tag_225\n      jump\t// in\n    tag_342:\n        /* \"#utility.yul\":6394:6516   */\n    tag_341:\n        /* \"#utility.yul\":6548:6554   */\n      dup3\n        /* \"#utility.yul\":6535:6555   */\n      calldataload\n        /* \"#utility.yul\":6525:6555   */\n      swap1\n      pop\n        /* \"#utility.yul\":6578:6596   */\n      0xffffffffffffffff\n        /* \"#utility.yul\":6570:6576   */\n      dup2\n        /* \"#utility.yul\":6567:6597   */\n      gt\n        /* \"#utility.yul\":6564:6681   */\n      iszero\n      tag_343\n      jumpi\n        /* \"#utility.yul\":6600:6679   */\n      tag_344\n      tag_226\n      jump\t// in\n    tag_344:\n        /* \"#utility.yul\":6564:6681   */\n    tag_343:\n        /* \"#utility.yul\":6714:6718   */\n      0x20\n        /* \"#utility.yul\":6706:6712   */\n      dup4\n        /* \"#utility.yul\":6702:6719   */\n      add\n        /* \"#utility.yul\":6690:6719   */\n      swap2\n      pop\n        /* \"#utility.yul\":6768:6771   */\n      dup4\n        /* \"#utility.yul\":6760:6764   */\n      0x01\n        /* \"#utility.yul\":6752:6758   */\n      dup3\n        /* \"#utility.yul\":6748:6765   */\n      mul\n        /* \"#utility.yul\":6738:6746   */\n      dup4\n        /* \"#utility.yul\":6734:6766   */\n      add\n        /* \"#utility.yul\":6731:6772   */\n      gt\n        /* \"#utility.yul\":6728:6856   */\n      iszero\n      tag_345\n      jumpi\n        /* \"#utility.yul\":6775:6854   */\n      tag_346\n      tag_227\n      jump\t// in\n    tag_346:\n        /* \"#utility.yul\":6728:6856   */\n    tag_345:\n        /* \"#utility.yul\":6309:6862   */\n      swap3\n      pop\n      swap3\n      swap1\n      pop\n      jump\t// out\n        /* \"#utility.yul\":6868:7397   */\n    tag_71:\n        /* \"#utility.yul\":6939:6945   */\n      0x00\n        /* \"#utility.yul\":6947:6953   */\n      dup1\n        /* \"#utility.yul\":6996:6998   */\n      0x20\n        /* \"#utility.yul\":6984:6993   */\n      dup4\n        /* \"#utility.yul\":6975:6982   */\n      dup6\n        /* \"#utility.yul\":6971:6994   */\n      sub\n        /* \"#utility.yul\":6967:6999   */\n      slt\n        /* \"#utility.yul\":6964:7083   */\n      iszero\n      tag_348\n      jumpi\n        /* \"#utility.yul\":7002:7081   */\n      tag_349\n      tag_202\n      jump\t// in\n    tag_349:\n        /* \"#utility.yul\":6964:7083   */\n    tag_348:\n        /* \"#utility.yul\":7150:7151   */\n      0x00\n        /* \"#utility.yul\":7139:7148   */\n      dup4\n        /* \"#utility.yul\":7135:7152   */\n      add\n        /* \"#utility.yul\":7122:7153   */\n      calldataload\n        /* \"#utility.yul\":7180:7198   */\n      0xffffffffffffffff\n        /* \"#utility.yul\":7172:7178   */\n      dup2\n        /* \"#utility.yul\":7169:7199   */\n      gt\n        /* \"#utility.yul\":7166:7283   */\n      iszero\n      tag_350\n      jumpi\n        /* \"#utility.yul\":7202:7281   */\n      tag_351\n      tag_203\n      jump\t// in\n    tag_351:\n        /* \"#utility.yul\":7166:7283   */\n    tag_350:\n        /* \"#utility.yul\":7315:7380   */\n      tag_352\n        /* \"#utility.yul\":7372:7379   */\n      dup6\n        /* \"#utility.yul\":7363:7369   */\n      dup3\n        /* \"#utility.yul\":7352:7361   */\n      dup7\n        /* \"#utility.yul\":7348:7370   */\n      add\n        /* \"#utility.yul\":7315:7380   */\n      tag_228\n      jump\t// in\n    tag_352:\n        /* \"#utility.yul\":7297:7380   */\n      swap3\n      pop\n      swap3\n      pop\n        /* \"#utility.yul\":7093:7390   */\n      pop\n        /* \"#utility.yul\":6868:7397   */\n      swap3\n      pop\n      swap3\n      swap1\n      pop\n      jump\t// out\n        /* \"#utility.yul\":7403:7735   */\n    tag_75:\n        /* \"#utility.yul\":7524:7528   */\n      0x00\n        /* \"#utility.yul\":7562:7564   */\n      0x40\n        /* \"#utility.yul\":7551:7560   */\n      dup3\n        /* \"#utility.yul\":7547:7565   */\n      add\n        /* \"#utility.yul\":7539:7565   */\n      swap1\n      pop\n        /* \"#utility.yul\":7575:7646   */\n      tag_354\n        /* \"#utility.yul\":7643:7644   */\n      0x00\n        /* \"#utility.yul\":7632:7641   */\n      dup4\n        /* \"#utility.yul\":7628:7645   */\n      add\n        /* \"#utility.yul\":7619:7625   */\n      dup6\n        /* \"#utility.yul\":7575:7646   */\n      tag_223\n      jump\t// in\n    tag_354:\n        /* \"#utility.yul\":7656:7728   */\n      tag_355\n        /* \"#utility.yul\":7724:7726   */\n      0x20\n        /* \"#utility.yul\":7713:7722   */\n      dup4\n        /* \"#utility.yul\":7709:7727   */\n      add\n        /* \"#utility.yul\":7700:7706   */\n      dup5\n        /* \"#utility.yul\":7656:7728   */\n      tag_223\n      jump\t// in\n    tag_355:\n        /* \"#utility.yul\":7403:7735   */\n      swap4\n      swap3\n      pop\n      pop\n      pop\n      jump\t// out\n        /* \"#utility.yul\":7741:7831   */\n    tag_229:\n        /* \"#utility.yul\":7775:7782   */\n      0x00\n        /* \"#utility.yul\":7818:7823   */\n      dup2\n        /* \"#utility.yul\":7811:7824   */\n      iszero\n        /* \"#utility.yul\":7804:7825   */\n      iszero\n        /* \"#utility.yul\":7793:7825   */\n      swap1\n      pop\n        /* \"#utility.yul\":7741:7831   */\n      swap2\n      swap1\n      pop\n      jump\t// out\n        /* \"#utility.yul\":7837:7953   */\n    tag_230:\n        /* \"#utility.yul\":7907:7928   */\n      tag_358\n        /* \"#utility.yul\":7922:7927   */\n      dup2\n        /* \"#utility.yul\":7907:7928   */\n      tag_229\n      jump\t// in\n    tag_358:\n        /* \"#utility.yul\":7900:7905   */\n      dup2\n        /* \"#utility.yul\":7897:7929   */\n      eq\n        /* \"#utility.yul\":7887:7947   */\n      tag_359\n      jumpi\n        /* \"#utility.yul\":7943:7944   */\n      0x00\n        /* \"#utility.yul\":7940:7941   */\n      dup1\n        /* \"#utility.yul\":7933:7945   */\n      revert\n        /* \"#utility.yul\":7887:7947   */\n    tag_359:\n        /* \"#utility.yul\":7837:7953   */\n      pop\n      jump\t// out\n        /* \"#utility.yul\":7959:8096   */\n    tag_231:\n        /* \"#utility.yul\":8013:8018   */\n      0x00\n        /* \"#utility.yul\":8044:8050   */\n      dup2\n        /* \"#utility.yul\":8038:8051   */\n      mload\n        /* \"#utility.yul\":8029:8051   */\n      swap1\n      pop\n        /* \"#utility.yul\":8060:8090   */\n      tag_361\n        /* \"#utility.yul\":8084:8089   */\n      dup2\n        /* \"#utility.yul\":8060:8090   */\n      tag_230\n      jump\t// in\n    tag_361:\n        /* \"#utility.yul\":7959:8096   */\n      swap3\n      swap2\n      pop\n      pop\n      jump\t// out\n        /* \"#utility.yul\":8102:8447   */\n    tag_79:\n        /* \"#utility.yul\":8169:8175   */\n      0x00\n        /* \"#utility.yul\":8218:8220   */\n      0x20\n        /* \"#utility.yul\":8206:8215   */\n      dup3\n        /* \"#utility.yul\":8197:8204   */\n      dup5\n        /* \"#utility.yul\":8193:8216   */\n      sub\n        /* \"#utility.yul\":8189:8221   */\n      slt\n        /* \"#utility.yul\":8186:8305   */\n      iszero\n      tag_363\n      jumpi\n        /* \"#utility.yul\":8224:8303   */\n      tag_364\n      tag_202\n      jump\t// in\n    tag_364:\n        /* \"#utility.yul\":8186:8305   */\n    tag_363:\n        /* \"#utility.yul\":8344:8345   */\n      0x00\n        /* \"#utility.yul\":8369:8430   */\n      tag_365\n        /* \"#utility.yul\":8422:8429   */\n      dup5\n        /* \"#utility.yul\":8413:8419   */\n      dup3\n        /* \"#utility.yul\":8402:8411   */\n      dup6\n        /* \"#utility.yul\":8398:8420   */\n      add\n        /* \"#utility.yul\":8369:8430   */\n      tag_231\n      jump\t// in\n    tag_365:\n        /* \"#utility.yul\":8359:8430   */\n      swap2\n      pop\n        /* \"#utility.yul\":8315:8440   */\n      pop\n        /* \"#utility.yul\":8102:8447   */\n      swap3\n      swap2\n      pop\n      pop\n      jump\t// out\n        /* \"#utility.yul\":8453:8627   */\n    tag_232:\n        /* \"#utility.yul\":8593:8619   */\n      0x526571756972656420746f2062652061206d656d656265720000000000000000\n        /* \"#utility.yul\":8589:8590   */\n      0x00\n        /* \"#utility.yul\":8581:8587   */\n      dup3\n        /* \"#utility.yul\":8577:8591   */\n      add\n        /* \"#utility.yul\":8570:8620   */\n      mstore\n        /* \"#utility.yul\":8453:8627   */\n      pop\n      jump\t// out\n        /* \"#utility.yul\":8633:8999   */\n    tag_233:\n        /* \"#utility.yul\":8775:8778   */\n      0x00\n        /* \"#utility.yul\":8796:8863   */\n      tag_368\n        /* \"#utility.yul\":8860:8862   */\n      0x18\n        /* \"#utility.yul\":8855:8858   */\n      dup4\n        /* \"#utility.yul\":8796:8863   */\n      tag_209\n      jump\t// in\n    tag_368:\n        /* \"#utility.yul\":8789:8863   */\n      swap2\n      pop\n        /* \"#utility.yul\":8872:8965   */\n      tag_369\n        /* \"#utility.yul\":8961:8964   */\n      dup3\n        /* \"#utility.yul\":8872:8965   */\n      tag_232\n      jump\t// in\n    tag_369:\n        /* \"#utility.yul\":8990:8992   */\n      0x20\n        /* \"#utility.yul\":8985:8988   */\n      dup3\n        /* \"#utility.yul\":8981:8993   */\n      add\n        /* \"#utility.yul\":8974:8993   */\n      swap1\n      pop\n        /* \"#utility.yul\":8633:8999   */\n      swap2\n      swap1\n      pop\n      jump\t// out\n        /* \"#utility.yul\":9005:9424   */\n    tag_82:\n        /* \"#utility.yul\":9171:9175   */\n      0x00\n        /* \"#utility.yul\":9209:9211   */\n      0x20\n        /* \"#utility.yul\":9198:9207   */\n      dup3\n        /* \"#utility.yul\":9194:9212   */\n      add\n        /* \"#utility.yul\":9186:9212   */\n      swap1\n      pop\n        /* \"#utility.yul\":9258:9267   */\n      dup2\n        /* \"#utility.yul\":9252:9256   */\n      dup2\n        /* \"#utility.yul\":9248:9268   */\n      sub\n        /* \"#utility.yul\":9244:9245   */\n      0x00\n        /* \"#utility.yul\":9233:9242   */\n      dup4\n        /* \"#utility.yul\":9229:9246   */\n      add\n        /* \"#utility.yul\":9222:9269   */\n      mstore\n        /* \"#utility.yul\":9286:9417   */\n      tag_371\n        /* \"#utility.yul\":9412:9416   */\n      dup2\n        /* \"#utility.yul\":9286:9417   */\n      tag_233\n      jump\t// in\n    tag_371:\n        /* \"#utility.yul\":9278:9417   */\n      swap1\n      pop\n        /* \"#utility.yul\":9005:9424   */\n      swap2\n      swap1\n      pop\n      jump\t// out\n        /* \"#utility.yul\":9430:9610   */\n    tag_234:\n        /* \"#utility.yul\":9478:9555   */\n      0x4e487b7100000000000000000000000000000000000000000000000000000000\n        /* \"#utility.yul\":9475:9476   */\n      0x00\n        /* \"#utility.yul\":9468:9556   */\n      mstore\n        /* \"#utility.yul\":9575:9579   */\n      0x22\n        /* \"#utility.yul\":9572:9573   */\n      0x04\n        /* \"#utility.yul\":9565:9580   */\n      mstore\n        /* \"#utility.yul\":9599:9603   */\n      0x24\n        /* \"#utility.yul\":9596:9597   */\n      0x00\n        /* \"#utility.yul\":9589:9604   */\n      revert\n        /* \"#utility.yul\":9616:9936   */\n    tag_85:\n        /* \"#utility.yul\":9660:9666   */\n      0x00\n        /* \"#utility.yul\":9697:9698   */\n      0x02\n        /* \"#utility.yul\":9691:9695   */\n      dup3\n        /* \"#utility.yul\":9687:9699   */\n      div\n        /* \"#utility.yul\":9677:9699   */\n      swap1\n      pop\n        /* \"#utility.yul\":9744:9745   */\n      0x01\n        /* \"#utility.yul\":9738:9742   */\n      dup3\n        /* \"#utility.yul\":9734:9746   */\n      and\n        /* \"#utility.yul\":9765:9783   */\n      dup1\n        /* \"#utility.yul\":9755:9836   */\n      tag_374\n      jumpi\n        /* \"#utility.yul\":9821:9825   */\n      0x7f\n        /* \"#utility.yul\":9813:9819   */\n      dup3\n        /* \"#utility.yul\":9809:9826   */\n      and\n        /* \"#utility.yul\":9799:9826   */\n      swap2\n      pop\n        /* \"#utility.yul\":9755:9836   */\n    tag_374:\n        /* \"#utility.yul\":9883:9885   */\n      0x20\n        /* \"#utility.yul\":9875:9881   */\n      dup3\n        /* \"#utility.yul\":9872:9886   */\n      lt\n        /* \"#utility.yul\":9852:9870   */\n      dup2\n        /* \"#utility.yul\":9849:9887   */\n      sub\n        /* \"#utility.yul\":9846:9930   */\n      tag_375\n      jumpi\n        /* \"#utility.yul\":9902:9920   */\n      tag_376\n      tag_234\n      jump\t// in\n    tag_376:\n        /* \"#utility.yul\":9846:9930   */\n    tag_375:\n        /* \"#utility.yul\":9667:9936   */\n      pop\n        /* \"#utility.yul\":9616:9936   */\n      swap2\n      swap1\n      pop\n      jump\t// out\n        /* \"#utility.yul\":9942:10105   */\n    tag_235:\n        /* \"#utility.yul\":10082:10097   */\n      0x4163636573732044656e69656400000000000000000000000000000000000000\n        /* \"#utility.yul\":10078:10079   */\n      0x00\n        /* \"#utility.yul\":10070:10076   */\n      dup3\n        /* \"#utility.yul\":10066:10080   */\n      add\n        /* \"#utility.yul\":10059:10098   */\n      mstore\n        /* \"#utility.yul\":9942:10105   */\n      pop\n      jump\t// out\n        /* \"#utility.yul\":10111:10477   */\n    tag_236:\n        /* \"#utility.yul\":10253:10256   */\n      0x00\n        /* \"#utility.yul\":10274:10341   */\n      tag_379\n        /* \"#utility.yul\":10338:10340   */\n      0x0d\n        /* \"#utility.yul\":10333:10336   */\n      dup4\n        /* \"#utility.yul\":10274:10341   */\n      tag_209\n      jump\t// in\n    tag_379:\n        /* \"#utility.yul\":10267:10341   */\n      swap2\n      pop\n        /* \"#utility.yul\":10350:10443   */\n      tag_380\n        /* \"#utility.yul\":10439:10442   */\n      dup3\n        /* \"#utility.yul\":10350:10443   */\n      tag_235\n      jump\t// in\n    tag_380:\n        /* \"#utility.yul\":10468:10470   */\n      0x20\n        /* \"#utility.yul\":10463:10466   */\n      dup3\n        /* \"#utility.yul\":10459:10471   */\n      add\n        /* \"#utility.yul\":10452:10471   */\n      swap1\n      pop\n        /* \"#utility.yul\":10111:10477   */\n      swap2\n      swap1\n      pop\n      jump\t// out\n        /* \"#utility.yul\":10483:10902   */\n    tag_93:\n        /* \"#utility.yul\":10649:10653   */\n      0x00\n        /* \"#utility.yul\":10687:10689   */\n      0x20\n        /* \"#utility.yul\":10676:10685   */\n      dup3\n        /* \"#utility.yul\":10672:10690   */\n      add\n        /* \"#utility.yul\":10664:10690   */\n      swap1\n      pop\n        /* \"#utility.yul\":10736:10745   */\n      dup2\n        /* \"#utility.yul\":10730:10734   */\n      dup2\n        /* \"#utility.yul\":10726:10746   */\n      sub\n        /* \"#utility.yul\":10722:10723   */\n      0x00\n        /* \"#utility.yul\":10711:10720   */\n      dup4\n        /* \"#utility.yul\":10707:10724   */\n      add\n        /* \"#utility.yul\":10700:10747   */\n      mstore\n        /* \"#utility.yul\":10764:10895   */\n      tag_382\n        /* \"#utility.yul\":10890:10894   */\n      dup2\n        /* \"#utility.yul\":10764:10895   */\n      tag_236\n      jump\t// in\n    tag_382:\n        /* \"#utility.yul\":10756:10895   */\n      swap1\n      pop\n        /* \"#utility.yul\":10483:10902   */\n      swap2\n      swap1\n      pop\n      jump\t// out\n        /* \"#utility.yul\":10908:11130   */\n    tag_237:\n        /* \"#utility.yul\":11048:11082   */\n      0x54686973206973206e6f7420746865206d656d62657220506f6f6c2041646472\n        /* \"#utility.yul\":11044:11045   */\n      0x00\n        /* \"#utility.yul\":11036:11042   */\n      dup3\n        /* \"#utility.yul\":11032:11046   */\n      add\n        /* \"#utility.yul\":11025:11083   */\n      mstore\n        /* \"#utility.yul\":11117:11122   */\n      0x6573730000000000000000000000000000000000000000000000000000000000\n        /* \"#utility.yul\":11112:11114   */\n      0x20\n        /* \"#utility.yul\":11104:11110   */\n      dup3\n        /* \"#utility.yul\":11100:11115   */\n      add\n        /* \"#utility.yul\":11093:11123   */\n      mstore\n        /* \"#utility.yul\":10908:11130   */\n      pop\n      jump\t// out\n        /* \"#utility.yul\":11136:11502   */\n    tag_238:\n        /* \"#utility.yul\":11278:11281   */\n      0x00\n        /* \"#utility.yul\":11299:11366   */\n      tag_385\n        /* \"#utility.yul\":11363:11365   */\n      0x23\n        /* \"#utility.yul\":11358:11361   */\n      dup4\n        /* \"#utility.yul\":11299:11366   */\n      tag_209\n      jump\t// in\n    tag_385:\n        /* \"#utility.yul\":11292:11366   */\n      swap2\n      pop\n        /* \"#utility.yul\":11375:11468   */\n      tag_386\n        /* \"#utility.yul\":11464:11467   */\n      dup3\n        /* \"#utility.yul\":11375:11468   */\n      tag_237\n      jump\t// in\n    tag_386:\n        /* \"#utility.yul\":11493:11495   */\n      0x40\n        /* \"#utility.yul\":11488:11491   */\n      dup3\n        /* \"#utility.yul\":11484:11496   */\n      add\n        /* \"#utility.yul\":11477:11496   */\n      swap1\n      pop\n        /* \"#utility.yul\":11136:11502   */\n      swap2\n      swap1\n      pop\n      jump\t// out\n        /* \"#utility.yul\":11508:11927   */\n    tag_97:\n        /* \"#utility.yul\":11674:11678   */\n      0x00\n        /* \"#utility.yul\":11712:11714   */\n      0x20\n        /* \"#utility.yul\":11701:11710   */\n      dup3\n        /* \"#utility.yul\":11697:11715   */\n      add\n        /* \"#utility.yul\":11689:11715   */\n      swap1\n      pop\n        /* \"#utility.yul\":11761:11770   */\n      dup2\n        /* \"#utility.yul\":11755:11759   */\n      dup2\n        /* \"#utility.yul\":11751:11771   */\n      sub\n        /* \"#utility.yul\":11747:11748   */\n      0x00\n        /* \"#utility.yul\":11736:11745   */\n      dup4\n        /* \"#utility.yul\":11732:11749   */\n      add\n        /* \"#utility.yul\":11725:11772   */\n      mstore\n        /* \"#utility.yul\":11789:11920   */\n      tag_388\n        /* \"#utility.yul\":11915:11919   */\n      dup2\n        /* \"#utility.yul\":11789:11920   */\n      tag_238\n      jump\t// in\n    tag_388:\n        /* \"#utility.yul\":11781:11920   */\n      swap1\n      pop\n        /* \"#utility.yul\":11508:11927   */\n      swap2\n      swap1\n      pop\n      jump\t// out\n        /* \"#utility.yul\":11933:12108   */\n    tag_239:\n        /* \"#utility.yul\":12073:12100   */\n      0x496e76616c6964206170706c6963616e74206164647265737300000000000000\n        /* \"#utility.yul\":12069:12070   */\n      0x00\n        /* \"#utility.yul\":12061:12067   */\n      dup3\n        /* \"#utility.yul\":12057:12071   */\n      add\n        /* \"#utility.yul\":12050:12101   */\n      mstore\n        /* \"#utility.yul\":11933:12108   */\n      pop\n      jump\t// out\n        /* \"#utility.yul\":12114:12480   */\n    tag_240:\n        /* \"#utility.yul\":12256:12259   */\n      0x00\n        /* \"#utility.yul\":12277:12344   */\n      tag_391\n        /* \"#utility.yul\":12341:12343   */\n      0x19\n        /* \"#utility.yul\":12336:12339   */\n      dup4\n        /* \"#utility.yul\":12277:12344   */\n      tag_209\n      jump\t// in\n    tag_391:\n        /* \"#utility.yul\":12270:12344   */\n      swap2\n      pop\n        /* \"#utility.yul\":12353:12446   */\n      tag_392\n        /* \"#utility.yul\":12442:12445   */\n      dup3\n        /* \"#utility.yul\":12353:12446   */\n      tag_239\n      jump\t// in\n    tag_392:\n        /* \"#utility.yul\":12471:12473   */\n      0x20\n        /* \"#utility.yul\":12466:12469   */\n      dup3\n        /* \"#utility.yul\":12462:12474   */\n      add\n        /* \"#utility.yul\":12455:12474   */\n      swap1\n      pop\n        /* \"#utility.yul\":12114:12480   */\n      swap2\n      swap1\n      pop\n      jump\t// out\n        /* \"#utility.yul\":12486:12905   */\n    tag_112:\n        /* \"#utility.yul\":12652:12656   */\n      0x00\n        /* \"#utility.yul\":12690:12692   */\n      0x20\n        /* \"#utility.yul\":12679:12688   */\n      dup3\n        /* \"#utility.yul\":12675:12693   */\n      add\n        /* \"#utility.yul\":12667:12693   */\n      swap1\n      pop\n        /* \"#utility.yul\":12739:12748   */\n      dup2\n        /* \"#utility.yul\":12733:12737   */\n      dup2\n        /* \"#utility.yul\":12729:12749   */\n      sub\n        /* \"#utility.yul\":12725:12726   */\n      0x00\n        /* \"#utility.yul\":12714:12723   */\n      dup4\n        /* \"#utility.yul\":12710:12727   */\n      add\n        /* \"#utility.yul\":12703:12750   */\n      mstore\n        /* \"#utility.yul\":12767:12898   */\n      tag_394\n        /* \"#utility.yul\":12893:12897   */\n      dup2\n        /* \"#utility.yul\":12767:12898   */\n      tag_240\n      jump\t// in\n    tag_394:\n        /* \"#utility.yul\":12759:12898   */\n      swap1\n      pop\n        /* \"#utility.yul\":12486:12905   */\n      swap2\n      swap1\n      pop\n      jump\t// out\n        /* \"#utility.yul\":12911:12987   */\n    tag_241:\n        /* \"#utility.yul\":12947:12954   */\n      0x00\n        /* \"#utility.yul\":12976:12981   */\n      dup2\n        /* \"#utility.yul\":12965:12981   */\n      swap1\n      pop\n        /* \"#utility.yul\":12911:12987   */\n      swap2\n      swap1\n      pop\n      jump\t// out\n        /* \"#utility.yul\":12993:13173   */\n    tag_242:\n        /* \"#utility.yul\":13041:13118   */\n      0x4e487b7100000000000000000000000000000000000000000000000000000000\n        /* \"#utility.yul\":13038:13039   */\n      0x00\n        /* \"#utility.yul\":13031:13119   */\n      mstore\n        /* \"#utility.yul\":13138:13142   */\n      0x11\n        /* \"#utility.yul\":13135:13136   */\n      0x04\n        /* \"#utility.yul\":13128:13143   */\n      mstore\n        /* \"#utility.yul\":13162:13166   */\n      0x24\n        /* \"#utility.yul\":13159:13160   */\n      0x00\n        /* \"#utility.yul\":13152:13167   */\n      revert\n        /* \"#utility.yul\":13179:13551   */\n    tag_114:\n        /* \"#utility.yul\":13218:13222   */\n      0x00\n        /* \"#utility.yul\":13238:13257   */\n      tag_398\n        /* \"#utility.yul\":13255:13256   */\n      dup3\n        /* \"#utility.yul\":13238:13257   */\n      tag_241\n      jump\t// in\n    tag_398:\n        /* \"#utility.yul\":13233:13257   */\n      swap2\n      pop\n        /* \"#utility.yul\":13271:13290   */\n      tag_399\n        /* \"#utility.yul\":13288:13289   */\n      dup4\n        /* \"#utility.yul\":13271:13290   */\n      tag_241\n      jump\t// in\n    tag_399:\n        /* \"#utility.yul\":13266:13290   */\n      swap3\n      pop\n        /* \"#utility.yul\":13314:13315   */\n      dup3\n        /* \"#utility.yul\":13311:13312   */\n      dup3\n        /* \"#utility.yul\":13307:13316   */\n      sub\n        /* \"#utility.yul\":13299:13316   */\n      swap1\n      pop\n        /* \"#utility.yul\":13508:13509   */\n      dup2\n        /* \"#utility.yul\":13502:13506   */\n      dup2\n        /* \"#utility.yul\":13498:13510   */\n      slt\n        /* \"#utility.yul\":13494:13495   */\n      0x00\n        /* \"#utility.yul\":13491:13492   */\n      dup5\n        /* \"#utility.yul\":13487:13496   */\n      slt\n        /* \"#utility.yul\":13483:13511   */\n      and\n        /* \"#utility.yul\":13466:13467   */\n      dup3\n        /* \"#utility.yul\":13460:13464   */\n      dup3\n        /* \"#utility.yul\":13456:13468   */\n      sgt\n        /* \"#utility.yul\":13451:13452   */\n      0x00\n        /* \"#utility.yul\":13448:13449   */\n      dup6\n        /* \"#utility.yul\":13444:13453   */\n      slt\n        /* \"#utility.yul\":13437:13454   */\n      iszero\n        /* \"#utility.yul\":13433:13469   */\n      and\n        /* \"#utility.yul\":13417:13521   */\n      or\n        /* \"#utility.yul\":13414:13544   */\n      iszero\n      tag_400\n      jumpi\n        /* \"#utility.yul\":13524:13542   */\n      tag_401\n      tag_242\n      jump\t// in\n    tag_401:\n        /* \"#utility.yul\":13414:13544   */\n    tag_400:\n        /* \"#utility.yul\":13179:13551   */\n      swap3\n      swap2\n      pop\n      pop\n      jump\t// out\n        /* \"#utility.yul\":13557:13722   */\n    tag_243:\n        /* \"#utility.yul\":13697:13714   */\n      0x4e6f742061206170706c6963616e740000000000000000000000000000000000\n        /* \"#utility.yul\":13693:13694   */\n      0x00\n        /* \"#utility.yul\":13685:13691   */\n      dup3\n        /* \"#utility.yul\":13681:13695   */\n      add\n        /* \"#utility.yul\":13674:13715   */\n      mstore\n        /* \"#utility.yul\":13557:13722   */\n      pop\n      jump\t// out\n        /* \"#utility.yul\":13728:14094   */\n    tag_244:\n        /* \"#utility.yul\":13870:13873   */\n      0x00\n        /* \"#utility.yul\":13891:13958   */\n      tag_404\n        /* \"#utility.yul\":13955:13957   */\n      0x0f\n        /* \"#utility.yul\":13950:13953   */\n      dup4\n        /* \"#utility.yul\":13891:13958   */\n      tag_209\n      jump\t// in\n    tag_404:\n        /* \"#utility.yul\":13884:13958   */\n      swap2\n      pop\n        /* \"#utility.yul\":13967:14060   */\n      tag_405\n        /* \"#utility.yul\":14056:14059   */\n      dup3\n        /* \"#utility.yul\":13967:14060   */\n      tag_243\n      jump\t// in\n    tag_405:\n        /* \"#utility.yul\":14085:14087   */\n      0x20\n        /* \"#utility.yul\":14080:14083   */\n      dup3\n        /* \"#utility.yul\":14076:14088   */\n      add\n        /* \"#utility.yul\":14069:14088   */\n      swap1\n      pop\n        /* \"#utility.yul\":13728:14094   */\n      swap2\n      swap1\n      pop\n      jump\t// out\n        /* \"#utility.yul\":14100:14519   */\n    tag_127:\n        /* \"#utility.yul\":14266:14270   */\n      0x00\n        /* \"#utility.yul\":14304:14306   */\n      0x20\n        /* \"#utility.yul\":14293:14302   */\n      dup3\n        /* \"#utility.yul\":14289:14307   */\n      add\n        /* \"#utility.yul\":14281:14307   */\n      swap1\n      pop\n        /* \"#utility.yul\":14353:14362   */\n      dup2\n        /* \"#utility.yul\":14347:14351   */\n      dup2\n        /* \"#utility.yul\":14343:14363   */\n      sub\n        /* \"#utility.yul\":14339:14340   */\n      0x00\n        /* \"#utility.yul\":14328:14337   */\n      dup4\n        /* \"#utility.yul\":14324:14341   */\n      add\n        /* \"#utility.yul\":14317:14364   */\n      mstore\n        /* \"#utility.yul\":14381:14512   */\n      tag_407\n        /* \"#utility.yul\":14507:14511   */\n      dup2\n        /* \"#utility.yul\":14381:14512   */\n      tag_244\n      jump\t// in\n    tag_407:\n        /* \"#utility.yul\":14373:14512   */\n      swap1\n      pop\n        /* \"#utility.yul\":14100:14519   */\n      swap2\n      swap1\n      pop\n      jump\t// out\n        /* \"#utility.yul\":14525:14705   */\n    tag_133:\n        /* \"#utility.yul\":14573:14650   */\n      0x4e487b7100000000000000000000000000000000000000000000000000000000\n        /* \"#utility.yul\":14570:14571   */\n      0x00\n        /* \"#utility.yul\":14563:14651   */\n      mstore\n        /* \"#utility.yul\":14670:14674   */\n      0x32\n        /* \"#utility.yul\":14667:14668   */\n      0x04\n        /* \"#utility.yul\":14660:14675   */\n      mstore\n        /* \"#utility.yul\":14694:14698   */\n      0x24\n        /* \"#utility.yul\":14691:14692   */\n      0x00\n        /* \"#utility.yul\":14684:14699   */\n      revert\n        /* \"#utility.yul\":14711:14944   */\n    tag_137:\n        /* \"#utility.yul\":14750:14753   */\n      0x00\n        /* \"#utility.yul\":14773:14797   */\n      tag_410\n        /* \"#utility.yul\":14791:14796   */\n      dup3\n        /* \"#utility.yul\":14773:14797   */\n      tag_220\n      jump\t// in\n    tag_410:\n        /* \"#utility.yul\":14764:14797   */\n      swap2\n      pop\n        /* \"#utility.yul\":14819:14885   */\n      0xffffffffffffffffffffffffffffffffffffffffffffffffffffffffffffffff\n        /* \"#utility.yul\":14812:14817   */\n      dup3\n        /* \"#utility.yul\":14809:14886   */\n      sub\n        /* \"#utility.yul\":14806:14909   */\n      tag_411\n      jumpi\n        /* \"#utility.yul\":14889:14907   */\n      tag_412\n      tag_242\n      jump\t// in\n    tag_412:\n        /* \"#utility.yul\":14806:14909   */\n    tag_411:\n        /* \"#utility.yul\":14936:14937   */\n      0x01\n        /* \"#utility.yul\":14929:14934   */\n      dup3\n        /* \"#utility.yul\":14925:14938   */\n      add\n        /* \"#utility.yul\":14918:14938   */\n      swap1\n      pop\n        /* \"#utility.yul\":14711:14944   */\n      swap2\n      swap1\n      pop\n      jump\t// out\n        /* \"#utility.yul\":14950:15120   */\n    tag_245:\n        /* \"#utility.yul\":15090:15112   */\n      0x53656e64657220616c726561647920766f746564000000000000000000000000\n        /* \"#utility.yul\":15086:15087   */\n      0x00\n        /* \"#utility.yul\":15078:15084   */\n      dup3\n        /* \"#utility.yul\":15074:15088   */\n      add\n        /* \"#utility.yul\":15067:15113   */\n      mstore\n        /* \"#utility.yul\":14950:15120   */\n      pop\n      jump\t// out\n        /* \"#utility.yul\":15126:15492   */\n    tag_246:\n        /* \"#utility.yul\":15268:15271   */\n      0x00\n        /* \"#utility.yul\":15289:15356   */\n      tag_415\n        /* \"#utility.yul\":15353:15355   */\n      0x14\n        /* \"#utility.yul\":15348:15351   */\n      dup4\n        /* \"#utility.yul\":15289:15356   */\n      tag_209\n      jump\t// in\n    tag_415:\n        /* \"#utility.yul\":15282:15356   */\n      swap2\n      pop\n        /* \"#utility.yul\":15365:15458   */\n      tag_416\n        /* \"#utility.yul\":15454:15457   */\n      dup3\n        /* \"#utility.yul\":15365:15458   */\n      tag_245\n      jump\t// in\n    tag_416:\n        /* \"#utility.yul\":15483:15485   */\n      0x20\n        /* \"#utility.yul\":15478:15481   */\n      dup3\n        /* \"#utility.yul\":15474:15486   */\n      add\n        /* \"#utility.yul\":15467:15486   */\n      swap1\n      pop\n        /* \"#utility.yul\":15126:15492   */\n      swap2\n      swap1\n      pop\n      jump\t// out\n        /* \"#utility.yul\":15498:15917   */\n    tag_140:\n        /* \"#utility.yul\":15664:15668   */\n      0x00\n        /* \"#utility.yul\":15702:15704   */\n      0x20\n        /* \"#utility.yul\":15691:15700   */\n      dup3\n        /* \"#utility.yul\":15687:15705   */\n      add\n        /* \"#utility.yul\":15679:15705   */\n      swap1\n      pop\n        /* \"#utility.yul\":15751:15760   */\n      dup2\n        /* \"#utility.yul\":15745:15749   */\n      dup2\n        /* \"#utility.yul\":15741:15761   */\n      sub\n        /* \"#utility.yul\":15737:15738   */\n      0x00\n        /* \"#utility.yul\":15726:15735   */\n      dup4\n        /* \"#utility.yul\":15722:15739   */\n      add\n        /* \"#utility.yul\":15715:15762   */\n      mstore\n        /* \"#utility.yul\":15779:15910   */\n      tag_418\n        /* \"#utility.yul\":15905:15909   */\n      dup2\n        /* \"#utility.yul\":15779:15910   */\n      tag_246\n      jump\t// in\n    tag_418:\n        /* \"#utility.yul\":15771:15910   */\n      swap1\n      pop\n        /* \"#utility.yul\":15498:15917   */\n      swap2\n      swap1\n      pop\n      jump\t// out\n        /* \"#utility.yul\":15923:16298   */\n    tag_143:\n        /* \"#utility.yul\":15962:15965   */\n      0x00\n        /* \"#utility.yul\":15981:16000   */\n      tag_420\n        /* \"#utility.yul\":15998:15999   */\n      dup3\n        /* \"#utility.yul\":15981:16000   */\n      tag_241\n      jump\t// in\n    tag_420:\n        /* \"#utility.yul\":15976:16000   */\n      swap2\n      pop\n        /* \"#utility.yul\":16014:16033   */\n      tag_421\n        /* \"#utility.yul\":16031:16032   */\n      dup4\n        /* \"#utility.yul\":16014:16033   */\n      tag_241\n      jump\t// in\n    tag_421:\n        /* \"#utility.yul\":16009:16033   */\n      swap3\n      pop\n        /* \"#utility.yul\":16056:16057   */\n      dup3\n        /* \"#utility.yul\":16053:16054   */\n      dup3\n        /* \"#utility.yul\":16049:16058   */\n      add\n        /* \"#utility.yul\":16042:16058   */\n      swap1\n      pop\n        /* \"#utility.yul\":16254:16255   */\n      dup3\n        /* \"#utility.yul\":16249:16252   */\n      dup2\n        /* \"#utility.yul\":16245:16256   */\n      slt\n        /* \"#utility.yul\":16238:16257   */\n      iszero\n        /* \"#utility.yul\":16234:16235   */\n      0x00\n        /* \"#utility.yul\":16231:16232   */\n      dup4\n        /* \"#utility.yul\":16227:16236   */\n      slt\n        /* \"#utility.yul\":16223:16258   */\n      and\n        /* \"#utility.yul\":16206:16207   */\n      dup4\n        /* \"#utility.yul\":16201:16204   */\n      dup3\n        /* \"#utility.yul\":16197:16208   */\n      slt\n        /* \"#utility.yul\":16192:16193   */\n      0x00\n        /* \"#utility.yul\":16189:16190   */\n      dup5\n        /* \"#utility.yul\":16185:16194   */\n      slt\n        /* \"#utility.yul\":16178:16195   */\n      iszero\n        /* \"#utility.yul\":16174:16209   */\n      and\n        /* \"#utility.yul\":16158:16268   */\n      or\n        /* \"#utility.yul\":16155:16291   */\n      iszero\n      tag_422\n      jumpi\n        /* \"#utility.yul\":16271:16289   */\n      tag_423\n      tag_242\n      jump\t// in\n    tag_423:\n        /* \"#utility.yul\":16155:16291   */\n    tag_422:\n        /* \"#utility.yul\":15923:16298   */\n      swap3\n      swap2\n      pop\n      pop\n      jump\t// out\n        /* \"#utility.yul\":16304:16475   */\n    tag_247:\n        /* \"#utility.yul\":16444:16467   */\n      0x416c726561647920616374697665206d656d6265720000000000000000000000\n        /* \"#utility.yul\":16440:16441   */\n      0x00\n        /* \"#utility.yul\":16432:16438   */\n      dup3\n        /* \"#utility.yul\":16428:16442   */\n      add\n        /* \"#utility.yul\":16421:16468   */\n      mstore\n        /* \"#utility.yul\":16304:16475   */\n      pop\n      jump\t// out\n        /* \"#utility.yul\":16481:16847   */\n    tag_248:\n        /* \"#utility.yul\":16623:16626   */\n      0x00\n        /* \"#utility.yul\":16644:16711   */\n      tag_426\n        /* \"#utility.yul\":16708:16710   */\n      0x15\n        /* \"#utility.yul\":16703:16706   */\n      dup4\n        /* \"#utility.yul\":16644:16711   */\n      tag_209\n      jump\t// in\n    tag_426:\n        /* \"#utility.yul\":16637:16711   */\n      swap2\n      pop\n        /* \"#utility.yul\":16720:16813   */\n      tag_427\n        /* \"#utility.yul\":16809:16812   */\n      dup3\n        /* \"#utility.yul\":16720:16813   */\n      tag_247\n      jump\t// in\n    tag_427:\n        /* \"#utility.yul\":16838:16840   */\n      0x20\n        /* \"#utility.yul\":16833:16836   */\n      dup3\n        /* \"#utility.yul\":16829:16841   */\n      add\n        /* \"#utility.yul\":16822:16841   */\n      swap1\n      pop\n        /* \"#utility.yul\":16481:16847   */\n      swap2\n      swap1\n      pop\n      jump\t// out\n        /* \"#utility.yul\":16853:17272   */\n    tag_161:\n        /* \"#utility.yul\":17019:17023   */\n      0x00\n        /* \"#utility.yul\":17057:17059   */\n      0x20\n        /* \"#utility.yul\":17046:17055   */\n      dup3\n        /* \"#utility.yul\":17042:17060   */\n      add\n        /* \"#utility.yul\":17034:17060   */\n      swap1\n      pop\n        /* \"#utility.yul\":17106:17115   */\n      dup2\n        /* \"#utility.yul\":17100:17104   */\n      dup2\n        /* \"#utility.yul\":17096:17116   */\n      sub\n        /* \"#utility.yul\":17092:17093   */\n      0x00\n        /* \"#utility.yul\":17081:17090   */\n      dup4\n        /* \"#utility.yul\":17077:17094   */\n      add\n        /* \"#utility.yul\":17070:17117   */\n      mstore\n        /* \"#utility.yul\":17134:17265   */\n      tag_429\n        /* \"#utility.yul\":17260:17264   */\n      dup2\n        /* \"#utility.yul\":17134:17265   */\n      tag_248\n      jump\t// in\n    tag_429:\n        /* \"#utility.yul\":17126:17265   */\n      swap1\n      pop\n        /* \"#utility.yul\":16853:17272   */\n      swap2\n      swap1\n      pop\n      jump\t// out\n        /* \"#utility.yul\":17278:17452   */\n    tag_249:\n        /* \"#utility.yul\":17418:17444   */\n      0x416c726561647920616374697665206170706c6963616e740000000000000000\n        /* \"#utility.yul\":17414:17415   */\n      0x00\n        /* \"#utility.yul\":17406:17412   */\n      dup3\n        /* \"#utility.yul\":17402:17416   */\n      add\n        /* \"#utility.yul\":17395:17445   */\n      mstore\n        /* \"#utility.yul\":17278:17452   */\n      pop\n      jump\t// out\n        /* \"#utility.yul\":17458:17824   */\n    tag_250:\n        /* \"#utility.yul\":17600:17603   */\n      0x00\n        /* \"#utility.yul\":17621:17688   */\n      tag_432\n        /* \"#utility.yul\":17685:17687   */\n      0x18\n        /* \"#utility.yul\":17680:17683   */\n      dup4\n        /* \"#utility.yul\":17621:17688   */\n      tag_209\n      jump\t// in\n    tag_432:\n        /* \"#utility.yul\":17614:17688   */\n      swap2\n      pop\n        /* \"#utility.yul\":17697:17790   */\n      tag_433\n        /* \"#utility.yul\":17786:17789   */\n      dup3\n        /* \"#utility.yul\":17697:17790   */\n      tag_249\n      jump\t// in\n    tag_433:\n        /* \"#utility.yul\":17815:17817   */\n      0x20\n        /* \"#utility.yul\":17810:17813   */\n      dup3\n        /* \"#utility.yul\":17806:17818   */\n      add\n        /* \"#utility.yul\":17799:17818   */\n      swap1\n      pop\n        /* \"#utility.yul\":17458:17824   */\n      swap2\n      swap1\n      pop\n      jump\t// out\n        /* \"#utility.yul\":17830:18249   */\n    tag_164:\n        /* \"#utility.yul\":17996:18000   */\n      0x00\n        /* \"#utility.yul\":18034:18036   */\n      0x20\n        /* \"#utility.yul\":18023:18032   */\n      dup3\n        /* \"#utility.yul\":18019:18037   */\n      add\n        /* \"#utility.yul\":18011:18037   */\n      swap1\n      pop\n        /* \"#utility.yul\":18083:18092   */\n      dup2\n        /* \"#utility.yul\":18077:18081   */\n      dup2\n        /* \"#utility.yul\":18073:18093   */\n      sub\n        /* \"#utility.yul\":18069:18070   */\n      0x00\n        /* \"#utility.yul\":18058:18067   */\n      dup4\n        /* \"#utility.yul\":18054:18071   */\n      add\n        /* \"#utility.yul\":18047:18094   */\n      mstore\n        /* \"#utility.yul\":18111:18242   */\n      tag_435\n        /* \"#utility.yul\":18237:18241   */\n      dup2\n        /* \"#utility.yul\":18111:18242   */\n      tag_250\n      jump\t// in\n    tag_435:\n        /* \"#utility.yul\":18103:18242   */\n      swap1\n      pop\n        /* \"#utility.yul\":17830:18249   */\n      swap2\n      swap1\n      pop\n      jump\t// out\n        /* \"#utility.yul\":18255:18421   */\n    tag_251:\n        /* \"#utility.yul\":18395:18413   */\n      0x6163636f756e742072656a656374656400000000000000000000000000000000\n        /* \"#utility.yul\":18391:18392   */\n      0x00\n        /* \"#utility.yul\":18383:18389   */\n      dup3\n        /* \"#utility.yul\":18379:18393   */\n      add\n        /* \"#utility.yul\":18372:18414   */\n      mstore\n        /* \"#utility.yul\":18255:18421   */\n      pop\n      jump\t// out\n        /* \"#utility.yul\":18427:18793   */\n    tag_252:\n        /* \"#utility.yul\":18569:18572   */\n      0x00\n        /* \"#utility.yul\":18590:18657   */\n      tag_438\n        /* \"#utility.yul\":18654:18656   */\n      0x10\n        /* \"#utility.yul\":18649:18652   */\n      dup4\n        /* \"#utility.yul\":18590:18657   */\n      tag_209\n      jump\t// in\n    tag_438:\n        /* \"#utility.yul\":18583:18657   */\n      swap2\n      pop\n        /* \"#utility.yul\":18666:18759   */\n      tag_439\n        /* \"#utility.yul\":18755:18758   */\n      dup3\n        /* \"#utility.yul\":18666:18759   */\n      tag_251\n      jump\t// in\n    tag_439:\n        /* \"#utility.yul\":18784:18786   */\n      0x20\n        /* \"#utility.yul\":18779:18782   */\n      dup3\n        /* \"#utility.yul\":18775:18787   */\n      add\n        /* \"#utility.yul\":18768:18787   */\n      swap1\n      pop\n        /* \"#utility.yul\":18427:18793   */\n      swap2\n      swap1\n      pop\n      jump\t// out\n        /* \"#utility.yul\":18799:19218   */\n    tag_167:\n        /* \"#utility.yul\":18965:18969   */\n      0x00\n        /* \"#utility.yul\":19003:19005   */\n      0x20\n        /* \"#utility.yul\":18992:19001   */\n      dup3\n        /* \"#utility.yul\":18988:19006   */\n      add\n        /* \"#utility.yul\":18980:19006   */\n      swap1\n      pop\n        /* \"#utility.yul\":19052:19061   */\n      dup2\n        /* \"#utility.yul\":19046:19050   */\n      dup2\n        /* \"#utility.yul\":19042:19062   */\n      sub\n        /* \"#utility.yul\":19038:19039   */\n      0x00\n        /* \"#utility.yul\":19027:19036   */\n      dup4\n        /* \"#utility.yul\":19023:19040   */\n      add\n        /* \"#utility.yul\":19016:19063   */\n      mstore\n        /* \"#utility.yul\":19080:19211   */\n      tag_441\n        /* \"#utility.yul\":19206:19210   */\n      dup2\n        /* \"#utility.yul\":19080:19211   */\n      tag_252\n      jump\t// in\n    tag_441:\n        /* \"#utility.yul\":19072:19211   */\n      swap1\n      pop\n        /* \"#utility.yul\":18799:19218   */\n      swap2\n      swap1\n      pop\n      jump\t// out\n        /* \"#utility.yul\":19224:19415   */\n    tag_170:\n        /* \"#utility.yul\":19264:19267   */\n      0x00\n        /* \"#utility.yul\":19283:19303   */\n      tag_443\n        /* \"#utility.yul\":19301:19302   */\n      dup3\n        /* \"#utility.yul\":19283:19303   */\n      tag_220\n      jump\t// in\n    tag_443:\n        /* \"#utility.yul\":19278:19303   */\n      swap2\n      pop\n        /* \"#utility.yul\":19317:19337   */\n      tag_444\n        /* \"#utility.yul\":19335:19336   */\n      dup4\n        /* \"#utility.yul\":19317:19337   */\n      tag_220\n      jump\t// in\n    tag_444:\n        /* \"#utility.yul\":19312:19337   */\n      swap3\n      pop\n        /* \"#utility.yul\":19360:19361   */\n      dup3\n        /* \"#utility.yul\":19357:19358   */\n      dup3\n        /* \"#utility.yul\":19353:19362   */\n      add\n        /* \"#utility.yul\":19346:19362   */\n      swap1\n      pop\n        /* \"#utility.yul\":19381:19384   */\n      dup1\n        /* \"#utility.yul\":19378:19379   */\n      dup3\n        /* \"#utility.yul\":19375:19385   */\n      gt\n        /* \"#utility.yul\":19372:19408   */\n      iszero\n      tag_445\n      jumpi\n        /* \"#utility.yul\":19388:19406   */\n      tag_446\n      tag_242\n      jump\t// in\n    tag_446:\n        /* \"#utility.yul\":19372:19408   */\n    tag_445:\n        /* \"#utility.yul\":19224:19415   */\n      swap3\n      swap2\n      pop\n      pop\n      jump\t// out\n        /* \"#utility.yul\":19421:19518   */\n    tag_253:\n        /* \"#utility.yul\":19480:19486   */\n      0x00\n        /* \"#utility.yul\":19508:19511   */\n      dup3\n        /* \"#utility.yul\":19498:19511   */\n      swap1\n      pop\n        /* \"#utility.yul\":19421:19518   */\n      swap3\n      swap2\n      pop\n      pop\n      jump\t// out\n        /* \"#utility.yul\":19524:19704   */\n    tag_254:\n        /* \"#utility.yul\":19572:19649   */\n      0x4e487b7100000000000000000000000000000000000000000000000000000000\n        /* \"#utility.yul\":19569:19570   */\n      0x00\n        /* \"#utility.yul\":19562:19650   */\n      mstore\n        /* \"#utility.yul\":19669:19673   */\n      0x41\n        /* \"#utility.yul\":19666:19667   */\n      0x04\n        /* \"#utility.yul\":19659:19674   */\n      mstore\n        /* \"#utility.yul\":19693:19697   */\n      0x24\n        /* \"#utility.yul\":19690:19691   */\n      0x00\n        /* \"#utility.yul\":19683:19698   */\n      revert\n        /* \"#utility.yul\":19710:19851   */\n    tag_255:\n        /* \"#utility.yul\":19759:19763   */\n      0x00\n        /* \"#utility.yul\":19782:19785   */\n      dup2\n        /* \"#utility.yul\":19774:19785   */\n      swap1\n      pop\n        /* \"#utility.yul\":19805:19808   */\n      dup2\n        /* \"#utility.yul\":19802:19803   */\n      0x00\n        /* \"#utility.yul\":19795:19809   */\n      mstore\n        /* \"#utility.yul\":19839:19843   */\n      0x20\n        /* \"#utility.yul\":19836:19837   */\n      0x00\n        /* \"#utility.yul\":19826:19844   */\n      keccak256\n        /* \"#utility.yul\":19818:19844   */\n      swap1\n      pop\n        /* \"#utility.yul\":19710:19851   */\n      swap2\n      swap1\n      pop\n      jump\t// out\n        /* \"#utility.yul\":19857:19950   */\n    tag_256:\n        /* \"#utility.yul\":19894:19900   */\n      0x00\n        /* \"#utility.yul\":19941:19943   */\n      0x20\n        /* \"#utility.yul\":19936:19938   */\n      0x1f\n        /* \"#utility.yul\":19929:19934   */\n      dup4\n        /* \"#utility.yul\":19925:19939   */\n      add\n        /* \"#utility.yul\":19921:19944   */\n      div\n        /* \"#utility.yul\":19911:19944   */\n      swap1\n      pop\n        /* \"#utility.yul\":19857:19950   */\n      swap2\n      swap1\n      pop\n      jump\t// out\n        /* \"#utility.yul\":19956:20063   */\n    tag_257:\n        /* \"#utility.yul\":20000:20008   */\n      0x00\n        /* \"#utility.yul\":20050:20055   */\n      dup3\n        /* \"#utility.yul\":20044:20048   */\n      dup3\n        /* \"#utility.yul\":20040:20056   */\n      shl\n        /* \"#utility.yul\":20019:20056   */\n      swap1\n      pop\n        /* \"#utility.yul\":19956:20063   */\n      swap3\n      swap2\n      pop\n      pop\n      jump\t// out\n        /* \"#utility.yul\":20069:20462   */\n    tag_258:\n        /* \"#utility.yul\":20138:20144   */\n      0x00\n        /* \"#utility.yul\":20188:20189   */\n      0x08\n        /* \"#utility.yul\":20176:20186   */\n      dup4\n        /* \"#utility.yul\":20172:20190   */\n      mul\n        /* \"#utility.yul\":20211:20308   */\n      tag_453\n        /* \"#utility.yul\":20241:20307   */\n      0xffffffffffffffffffffffffffffffffffffffffffffffffffffffffffffffff\n        /* \"#utility.yul\":20230:20239   */\n      dup3\n        /* \"#utility.yul\":20211:20308   */\n      tag_257\n      jump\t// in\n    tag_453:\n        /* \"#utility.yul\":20329:20368   */\n      tag_454\n        /* \"#utility.yul\":20359:20367   */\n      dup7\n        /* \"#utility.yul\":20348:20357   */\n      dup4\n        /* \"#utility.yul\":20329:20368   */\n      tag_257\n      jump\t// in\n    tag_454:\n        /* \"#utility.yul\":20317:20368   */\n      swap6\n      pop\n        /* \"#utility.yul\":20401:20405   */\n      dup1\n        /* \"#utility.yul\":20397:20406   */\n      not\n        /* \"#utility.yul\":20390:20395   */\n      dup5\n        /* \"#utility.yul\":20386:20407   */\n      and\n        /* \"#utility.yul\":20377:20407   */\n      swap4\n      pop\n        /* \"#utility.yul\":20450:20454   */\n      dup1\n        /* \"#utility.yul\":20440:20448   */\n      dup7\n        /* \"#utility.yul\":20436:20455   */\n      and\n        /* \"#utility.yul\":20429:20434   */\n      dup5\n        /* \"#utility.yul\":20426:20456   */\n      or\n        /* \"#utility.yul\":20416:20456   */\n      swap3\n      pop\n        /* \"#utility.yul\":20145:20462   */\n      pop\n      pop\n        /* \"#utility.yul\":20069:20462   */\n      swap4\n      swap3\n      pop\n      pop\n      pop\n      jump\t// out\n        /* \"#utility.yul\":20468:20528   */\n    tag_259:\n        /* \"#utility.yul\":20496:20499   */\n      0x00\n        /* \"#utility.yul\":20517:20522   */\n      dup2\n        /* \"#utility.yul\":20510:20522   */\n      swap1\n      pop\n        /* \"#utility.yul\":20468:20528   */\n      swap2\n      swap1\n      pop\n      jump\t// out\n        /* \"#utility.yul\":20534:20676   */\n    tag_260:\n        /* \"#utility.yul\":20584:20593   */\n      0x00\n        /* \"#utility.yul\":20617:20670   */\n      tag_457\n        /* \"#utility.yul\":20635:20669   */\n      tag_458\n        /* \"#utility.yul\":20644:20668   */\n      tag_459\n        /* \"#utility.yul\":20662:20667   */\n      dup5\n        /* \"#utility.yul\":20644:20668   */\n      tag_220\n      jump\t// in\n    tag_459:\n        /* \"#utility.yul\":20635:20669   */\n      tag_259\n      jump\t// in\n    tag_458:\n        /* \"#utility.yul\":20617:20670   */\n      tag_220\n      jump\t// in\n    tag_457:\n        /* \"#utility.yul\":20604:20670   */\n      swap1\n      pop\n        /* \"#utility.yul\":20534:20676   */\n      swap2\n      swap1\n      pop\n      jump\t// out\n        /* \"#utility.yul\":20682:20757   */\n    tag_261:\n        /* \"#utility.yul\":20725:20728   */\n      0x00\n        /* \"#utility.yul\":20746:20751   */\n      dup2\n        /* \"#utility.yul\":20739:20751   */\n      swap1\n      pop\n        /* \"#utility.yul\":20682:20757   */\n      swap2\n      swap1\n      pop\n      jump\t// out\n        /* \"#utility.yul\":20763:21032   */\n    tag_262:\n        /* \"#utility.yul\":20873:20912   */\n      tag_462\n        /* \"#utility.yul\":20904:20911   */\n      dup4\n        /* \"#utility.yul\":20873:20912   */\n      tag_260\n      jump\t// in\n    tag_462:\n        /* \"#utility.yul\":20934:21025   */\n      tag_463\n        /* \"#utility.yul\":20983:21024   */\n      tag_464\n        /* \"#utility.yul\":21007:21023   */\n      dup3\n        /* \"#utility.yul\":20983:21024   */\n      tag_261\n      jump\t// in\n    tag_464:\n        /* \"#utility.yul\":20975:20981   */\n      dup5\n        /* \"#utility.yul\":20968:20972   */\n      dup5\n        /* \"#utility.yul\":20962:20973   */\n      sload\n        /* \"#utility.yul\":20934:21025   */\n      tag_258\n      jump\t// in\n    tag_463:\n        /* \"#utility.yul\":20928:20932   */\n      dup3\n        /* \"#utility.yul\":20921:21026   */\n      sstore\n        /* \"#utility.yul\":20839:21032   */\n      pop\n        /* \"#utility.yul\":20763:21032   */\n      pop\n      pop\n      pop\n      jump\t// out\n        /* \"#utility.yul\":21038:21111   */\n    tag_263:\n        /* \"#utility.yul\":21083:21086   */\n      0x00\n        /* \"#utility.yul\":21038:21111   */\n      swap1\n      jump\t// out\n        /* \"#utility.yul\":21117:21306   */\n    tag_264:\n        /* \"#utility.yul\":21194:21226   */\n      tag_467\n      tag_263\n      jump\t// in\n    tag_467:\n        /* \"#utility.yul\":21235:21300   */\n      tag_468\n        /* \"#utility.yul\":21293:21299   */\n      dup2\n        /* \"#utility.yul\":21285:21291   */\n      dup5\n        /* \"#utility.yul\":21279:21283   */\n      dup5\n        /* \"#utility.yul\":21235:21300   */\n      tag_262\n      jump\t// in\n    tag_468:\n        /* \"#utility.yul\":21170:21306   */\n      pop\n        /* \"#utility.yul\":21117:21306   */\n      pop\n      pop\n      jump\t// out\n        /* \"#utility.yul\":21312:21498   */\n    tag_265:\n        /* \"#utility.yul\":21372:21492   */\n    tag_470:\n        /* \"#utility.yul\":21389:21392   */\n      dup2\n        /* \"#utility.yul\":21382:21387   */\n      dup2\n        /* \"#utility.yul\":21379:21393   */\n      lt\n        /* \"#utility.yul\":21372:21492   */\n      iszero\n      tag_472\n      jumpi\n        /* \"#utility.yul\":21443:21482   */\n      tag_473\n        /* \"#utility.yul\":21480:21481   */\n      0x00\n        /* \"#utility.yul\":21473:21478   */\n      dup3\n        /* \"#utility.yul\":21443:21482   */\n      tag_264\n      jump\t// in\n    tag_473:\n        /* \"#utility.yul\":21416:21417   */\n      0x01\n        /* \"#utility.yul\":21409:21414   */\n      dup2\n        /* \"#utility.yul\":21405:21418   */\n      add\n        /* \"#utility.yul\":21396:21418   */\n      swap1\n      pop\n        /* \"#utility.yul\":21372:21492   */\n      jump(tag_470)\n    tag_472:\n        /* \"#utility.yul\":21312:21498   */\n      pop\n      pop\n      jump\t// out\n        /* \"#utility.yul\":21504:22047   */\n    tag_266:\n        /* \"#utility.yul\":21605:21607   */\n      0x1f\n        /* \"#utility.yul\":21600:21603   */\n      dup3\n        /* \"#utility.yul\":21597:21608   */\n      gt\n        /* \"#utility.yul\":21594:22040   */\n      iszero\n      tag_475\n      jumpi\n        /* \"#utility.yul\":21639:21677   */\n      tag_476\n        /* \"#utility.yul\":21671:21676   */\n      dup2\n        /* \"#utility.yul\":21639:21677   */\n      tag_255\n      jump\t// in\n    tag_476:\n        /* \"#utility.yul\":21723:21752   */\n      tag_477\n        /* \"#utility.yul\":21741:21751   */\n      dup5\n        /* \"#utility.yul\":21723:21752   */\n      tag_256\n      jump\t// in\n    tag_477:\n        /* \"#utility.yul\":21713:21721   */\n      dup2\n        /* \"#utility.yul\":21709:21753   */\n      add\n        /* \"#utility.yul\":21906:21908   */\n      0x20\n        /* \"#utility.yul\":21894:21904   */\n      dup6\n        /* \"#utility.yul\":21891:21909   */\n      lt\n        /* \"#utility.yul\":21888:21937   */\n      iszero\n      tag_478\n      jumpi\n        /* \"#utility.yul\":21927:21935   */\n      dup2\n        /* \"#utility.yul\":21912:21935   */\n      swap1\n      pop\n        /* \"#utility.yul\":21888:21937   */\n    tag_478:\n        /* \"#utility.yul\":21950:22030   */\n      tag_479\n        /* \"#utility.yul\":22006:22028   */\n      tag_480\n        /* \"#utility.yul\":22024:22027   */\n      dup6\n        /* \"#utility.yul\":22006:22028   */\n      tag_256\n      jump\t// in\n    tag_480:\n        /* \"#utility.yul\":21996:22004   */\n      dup4\n        /* \"#utility.yul\":21992:22029   */\n      add\n        /* \"#utility.yul\":21979:21990   */\n      dup3\n        /* \"#utility.yul\":21950:22030   */\n      tag_265\n      jump\t// in\n    tag_479:\n        /* \"#utility.yul\":21609:22040   */\n      pop\n      pop\n        /* \"#utility.yul\":21594:22040   */\n    tag_475:\n        /* \"#utility.yul\":21504:22047   */\n      pop\n      pop\n      pop\n      jump\t// out\n        /* \"#utility.yul\":22053:22170   */\n    tag_267:\n        /* \"#utility.yul\":22107:22115   */\n      0x00\n        /* \"#utility.yul\":22157:22162   */\n      dup3\n        /* \"#utility.yul\":22151:22155   */\n      dup3\n        /* \"#utility.yul\":22147:22163   */\n      shr\n        /* \"#utility.yul\":22126:22163   */\n      swap1\n      pop\n        /* \"#utility.yul\":22053:22170   */\n      swap3\n      swap2\n      pop\n      pop\n      jump\t// out\n        /* \"#utility.yul\":22176:22345   */\n    tag_268:\n        /* \"#utility.yul\":22220:22226   */\n      0x00\n        /* \"#utility.yul\":22253:22304   */\n      tag_483\n        /* \"#utility.yul\":22301:22302   */\n      0x00\n        /* \"#utility.yul\":22297:22303   */\n      not\n        /* \"#utility.yul\":22289:22294   */\n      dup5\n        /* \"#utility.yul\":22286:22287   */\n      0x08\n        /* \"#utility.yul\":22282:22295   */\n      mul\n        /* \"#utility.yul\":22253:22304   */\n      tag_267\n      jump\t// in\n    tag_483:\n        /* \"#utility.yul\":22249:22305   */\n      not\n        /* \"#utility.yul\":22334:22338   */\n      dup1\n        /* \"#utility.yul\":22328:22332   */\n      dup4\n        /* \"#utility.yul\":22324:22339   */\n      and\n        /* \"#utility.yul\":22314:22339   */\n      swap2\n      pop\n        /* \"#utility.yul\":22227:22345   */\n      pop\n        /* \"#utility.yul\":22176:22345   */\n      swap3\n      swap2\n      pop\n      pop\n      jump\t// out\n        /* \"#utility.yul\":22350:22645   */\n    tag_269:\n        /* \"#utility.yul\":22426:22430   */\n      0x00\n        /* \"#utility.yul\":22572:22601   */\n      tag_485\n        /* \"#utility.yul\":22597:22600   */\n      dup4\n        /* \"#utility.yul\":22591:22595   */\n      dup4\n        /* \"#utility.yul\":22572:22601   */\n      tag_268\n      jump\t// in\n    tag_485:\n        /* \"#utility.yul\":22564:22601   */\n      swap2\n      pop\n        /* \"#utility.yul\":22634:22637   */\n      dup3\n        /* \"#utility.yul\":22631:22632   */\n      0x02\n        /* \"#utility.yul\":22627:22638   */\n      mul\n        /* \"#utility.yul\":22621:22625   */\n      dup3\n        /* \"#utility.yul\":22618:22639   */\n      or\n        /* \"#utility.yul\":22610:22639   */\n      swap1\n      pop\n        /* \"#utility.yul\":22350:22645   */\n      swap3\n      swap2\n      pop\n      pop\n      jump\t// out\n        /* \"#utility.yul\":22650:24053   */\n    tag_172:\n        /* \"#utility.yul\":22774:22818   */\n      tag_487\n        /* \"#utility.yul\":22814:22817   */\n      dup4\n        /* \"#utility.yul\":22809:22812   */\n      dup4\n        /* \"#utility.yul\":22774:22818   */\n      tag_253\n      jump\t// in\n    tag_487:\n        /* \"#utility.yul\":22883:22901   */\n      0xffffffffffffffff\n        /* \"#utility.yul\":22875:22881   */\n      dup2\n        /* \"#utility.yul\":22872:22902   */\n      gt\n        /* \"#utility.yul\":22869:22925   */\n      iszero\n      tag_488\n      jumpi\n        /* \"#utility.yul\":22905:22923   */\n      tag_489\n      tag_254\n      jump\t// in\n    tag_489:\n        /* \"#utility.yul\":22869:22925   */\n    tag_488:\n        /* \"#utility.yul\":22949:22987   */\n      tag_490\n        /* \"#utility.yul\":22981:22985   */\n      dup3\n        /* \"#utility.yul\":22975:22986   */\n      sload\n        /* \"#utility.yul\":22949:22987   */\n      tag_85\n      jump\t// in\n    tag_490:\n        /* \"#utility.yul\":23034:23101   */\n      tag_491\n        /* \"#utility.yul\":23094:23100   */\n      dup3\n        /* \"#utility.yul\":23086:23092   */\n      dup3\n        /* \"#utility.yul\":23080:23084   */\n      dup6\n        /* \"#utility.yul\":23034:23101   */\n      tag_266\n      jump\t// in\n    tag_491:\n        /* \"#utility.yul\":23128:23129   */\n      0x00\n        /* \"#utility.yul\":23157:23159   */\n      0x1f\n        /* \"#utility.yul\":23149:23155   */\n      dup4\n        /* \"#utility.yul\":23146:23160   */\n      gt\n        /* \"#utility.yul\":23174:23175   */\n      0x01\n        /* \"#utility.yul\":23169:23801   */\n      dup2\n      eq\n      tag_493\n      jumpi\n        /* \"#utility.yul\":23845:23846   */\n      0x00\n        /* \"#utility.yul\":23862:23868   */\n      dup5\n        /* \"#utility.yul\":23859:23943   */\n      iszero\n      tag_494\n      jumpi\n        /* \"#utility.yul\":23918:23927   */\n      dup3\n        /* \"#utility.yul\":23913:23916   */\n      dup8\n        /* \"#utility.yul\":23909:23928   */\n      add\n        /* \"#utility.yul\":23896:23929   */\n      calldataload\n        /* \"#utility.yul\":23887:23929   */\n      swap1\n      pop\n        /* \"#utility.yul\":23859:23943   */\n    tag_494:\n        /* \"#utility.yul\":23969:24036   */\n      tag_495\n        /* \"#utility.yul\":24029:24035   */\n      dup6\n        /* \"#utility.yul\":24022:24027   */\n      dup3\n        /* \"#utility.yul\":23969:24036   */\n      tag_269\n      jump\t// in\n    tag_495:\n        /* \"#utility.yul\":23963:23967   */\n      dup7\n        /* \"#utility.yul\":23956:24037   */\n      sstore\n        /* \"#utility.yul\":23818:24047   */\n      pop\n        /* \"#utility.yul\":23139:24047   */\n      jump(tag_492)\n        /* \"#utility.yul\":23169:23801   */\n    tag_493:\n        /* \"#utility.yul\":23221:23225   */\n      0x1f\n        /* \"#utility.yul\":23217:23226   */\n      not\n        /* \"#utility.yul\":23209:23215   */\n      dup5\n        /* \"#utility.yul\":23205:23227   */\n      and\n        /* \"#utility.yul\":23255:23292   */\n      tag_496\n        /* \"#utility.yul\":23287:23291   */\n      dup7\n        /* \"#utility.yul\":23255:23292   */\n      tag_255\n      jump\t// in\n    tag_496:\n        /* \"#utility.yul\":23314:23315   */\n      0x00\n        /* \"#utility.yul\":23328:23543   */\n    tag_497:\n        /* \"#utility.yul\":23342:23349   */\n      dup3\n        /* \"#utility.yul\":23339:23340   */\n      dup2\n        /* \"#utility.yul\":23336:23350   */\n      lt\n        /* \"#utility.yul\":23328:23543   */\n      iszero\n      tag_499\n      jumpi\n        /* \"#utility.yul\":23428:23437   */\n      dup5\n        /* \"#utility.yul\":23423:23426   */\n      dup10\n        /* \"#utility.yul\":23419:23438   */\n      add\n        /* \"#utility.yul\":23406:23439   */\n      calldataload\n        /* \"#utility.yul\":23398:23404   */\n      dup3\n        /* \"#utility.yul\":23391:23440   */\n      sstore\n        /* \"#utility.yul\":23479:23480   */\n      0x01\n        /* \"#utility.yul\":23471:23477   */\n      dup3\n        /* \"#utility.yul\":23467:23481   */\n      add\n        /* \"#utility.yul\":23457:23481   */\n      swap2\n      pop\n        /* \"#utility.yul\":23526:23528   */\n      0x20\n        /* \"#utility.yul\":23515:23524   */\n      dup6\n        /* \"#utility.yul\":23511:23529   */\n      add\n        /* \"#utility.yul\":23498:23529   */\n      swap5\n      pop\n        /* \"#utility.yul\":23365:23369   */\n      0x20\n        /* \"#utility.yul\":23362:23363   */\n      dup2\n        /* \"#utility.yul\":23358:23370   */\n      add\n        /* \"#utility.yul\":23353:23370   */\n      swap1\n      pop\n        /* \"#utility.yul\":23328:23543   */\n      jump(tag_497)\n    tag_499:\n        /* \"#utility.yul\":23571:23577   */\n      dup7\n        /* \"#utility.yul\":23562:23569   */\n      dup4\n        /* \"#utility.yul\":23559:23578   */\n      lt\n        /* \"#utility.yul\":23556:23742   */\n      iszero\n      tag_500\n      jumpi\n        /* \"#utility.yul\":23636:23645   */\n      dup5\n        /* \"#utility.yul\":23631:23634   */\n      dup10\n        /* \"#utility.yul\":23627:23646   */\n      add\n        /* \"#utility.yul\":23614:23647   */\n      calldataload\n        /* \"#utility.yul\":23679:23727   */\n      tag_501\n        /* \"#utility.yul\":23721:23725   */\n      0x1f\n        /* \"#utility.yul\":23713:23719   */\n      dup10\n        /* \"#utility.yul\":23709:23726   */\n      and\n        /* \"#utility.yul\":23698:23707   */\n      dup3\n        /* \"#utility.yul\":23679:23727   */\n      tag_268\n      jump\t// in\n    tag_501:\n        /* \"#utility.yul\":23671:23677   */\n      dup4\n        /* \"#utility.yul\":23664:23728   */\n      sstore\n        /* \"#utility.yul\":23579:23742   */\n      pop\n        /* \"#utility.yul\":23556:23742   */\n    tag_500:\n        /* \"#utility.yul\":23788:23789   */\n      0x01\n        /* \"#utility.yul\":23784:23785   */\n      0x02\n        /* \"#utility.yul\":23776:23782   */\n      dup9\n        /* \"#utility.yul\":23772:23786   */\n      mul\n        /* \"#utility.yul\":23768:23790   */\n      add\n        /* \"#utility.yul\":23762:23766   */\n      dup9\n        /* \"#utility.yul\":23755:23791   */\n      sstore\n        /* \"#utility.yul\":23176:23801   */\n      pop\n      pop\n      pop\n        /* \"#utility.yul\":23139:24047   */\n    tag_492:\n      pop\n        /* \"#utility.yul\":22749:24053   */\n      pop\n      pop\n      pop\n        /* \"#utility.yul\":22650:24053   */\n      pop\n      pop\n      pop\n      jump\t// out\n        /* \"#utility.yul\":24059:24253   */\n    tag_185:\n        /* \"#utility.yul\":24099:24103   */\n      0x00\n        /* \"#utility.yul\":24119:24139   */\n      tag_503\n        /* \"#utility.yul\":24137:24138   */\n      dup3\n        /* \"#utility.yul\":24119:24139   */\n      tag_220\n      jump\t// in\n    tag_503:\n        /* \"#utility.yul\":24114:24139   */\n      swap2\n      pop\n        /* \"#utility.yul\":24153:24173   */\n      tag_504\n        /* \"#utility.yul\":24171:24172   */\n      dup4\n        /* \"#utility.yul\":24153:24173   */\n      tag_220\n      jump\t// in\n    tag_504:\n        /* \"#utility.yul\":24148:24173   */\n      swap3\n      pop\n        /* \"#utility.yul\":24197:24198   */\n      dup3\n        /* \"#utility.yul\":24194:24195   */\n      dup3\n        /* \"#utility.yul\":24190:24199   */\n      sub\n        /* \"#utility.yul\":24182:24199   */\n      swap1\n      pop\n        /* \"#utility.yul\":24221:24222   */\n      dup2\n        /* \"#utility.yul\":24215:24219   */\n      dup2\n        /* \"#utility.yul\":24212:24223   */\n      gt\n        /* \"#utility.yul\":24209:24246   */\n      iszero\n      tag_505\n      jumpi\n        /* \"#utility.yul\":24226:24244   */\n      tag_506\n      tag_242\n      jump\t// in\n    tag_506:\n        /* \"#utility.yul\":24209:24246   */\n    tag_505:\n        /* \"#utility.yul\":24059:24253   */\n      swap3\n      swap2\n      pop\n      pop\n      jump\t// out\n        /* \"#utility.yul\":24259:24439   */\n    tag_194:\n        /* \"#utility.yul\":24307:24384   */\n      0x4e487b7100000000000000000000000000000000000000000000000000000000\n        /* \"#utility.yul\":24304:24305   */\n      0x00\n        /* \"#utility.yul\":24297:24385   */\n      mstore\n        /* \"#utility.yul\":24404:24408   */\n      0x31\n        /* \"#utility.yul\":24401:24402   */\n      0x04\n        /* \"#utility.yul\":24394:24409   */\n      mstore\n        /* \"#utility.yul\":24428:24432   */\n      0x24\n        /* \"#utility.yul\":24425:24426   */\n      0x00\n        /* \"#utility.yul\":24418:24433   */\n      revert\n\n    auxdata: 0xa2646970667358221220f4bf0d28c0f5e9041d506e8d7f2afb55816294bc34846f4881144c13f652670264736f6c63430008110033\n}\n","bytecode":{"linkReferences":{},"object":"6080604052620f42406009553480156200001857600080fd5b506040516200233a3803806200233a83398181016040528101906200003e919062000132565b81600660006101000a81548173ffffffffffffffffffffffffffffffffffffffff021916908373ffffffffffffffffffffffffffffffffffffffff16021790555080600760006101000a81548173ffffffffffffffffffffffffffffffffffffffff021916908373ffffffffffffffffffffffffffffffffffffffff160217905550505062000179565b600080fd5b600073ffffffffffffffffffffffffffffffffffffffff82169050919050565b6000620000fa82620000cd565b9050919050565b6200010c81620000ed565b81146200011857600080fd5b50565b6000815190506200012c8162000101565b92915050565b600080604083850312156200014c576200014b620000c8565b5b60006200015c858286016200011b565b92505060206200016f858286016200011b565b9150509250929050565b6121b180620001896000396000f3fe6080604052600436106100a65760003560e01c8063930235b411610064578063930235b4146101cb578063a10c8a97146101f6578063b672bdcb14610221578063b69ef8a81461025e578063d9a8753514610289578063fd591902146102c6576100a6565b8062ad808f146100ab5780631292a282146100e8578063273f868e1461011157806328f4694c1461013a578063455772d2146101635780638c468cd41461018e575b600080fd5b3480156100b757600080fd5b506100d260048036038101906100cd91906114ef565b6102e2565b6040516100df91906115ac565b60405180910390f35b3480156100f457600080fd5b5061010f600480360381019061010a91906114ef565b6104b4565b005b34801561011d57600080fd5b50610138600480360381019061013391906114ef565b6106de565b005b34801561014657600080fd5b50610161600480360381019061015c91906114ef565b610902565b005b34801561016f57600080fd5b50610178610ce0565b604051610185919061168c565b60405180910390f35b34801561019a57600080fd5b506101b560048036038101906101b091906116e4565b610e00565b6040516101c29190611720565b60405180910390f35b3480156101d757600080fd5b506101e0610e3f565b6040516101ed9190611720565b60405180910390f35b34801561020257600080fd5b5061020b610e65565b604051610218919061174a565b60405180910390f35b34801561022d57600080fd5b50610248600480360381019061024391906114ef565b610e6b565b604051610255919061174a565b60405180910390f35b34801561026a57600080fd5b50610273610eb4565b604051610280919061174a565b60405180910390f35b34801561029557600080fd5b506102b060048036038101906102ab91906114ef565b610eba565b6040516102bd919061174a565b60405180910390f35b6102e060048036038101906102db91906117ca565b610f06565b005b606033600660009054906101000a900473ffffffffffffffffffffffffffffffffffffffff1673ffffffffffffffffffffffffffffffffffffffff166339ac7a0882600760009054906101000a900473ffffffffffffffffffffffffffffffffffffffff166040518363ffffffff1660e01b8152600401610364929190611817565b602060405180830381865afa158015610381573d6000803e3d6000fd5b505050506040513d601f19601f820116820180604052508101906103a59190611878565b6103e4576040517f08c379a00000000000000000000000000000000000000000000000000000000081526004016103db906118f1565b60405180910390fd5b600460008473ffffffffffffffffffffffffffffffffffffffff1673ffffffffffffffffffffffffffffffffffffffff168152602001908152602001600020805461042e90611940565b80601f016020809104026020016040519081016040528092919081815260200182805461045a90611940565b80156104a75780601f1061047c576101008083540402835291602001916104a7565b820191906000526020600020905b81548152906001019060200180831161048a57829003601f168201915b5050505050915050919050565b33600760009054906101000a900473ffffffffffffffffffffffffffffffffffffffff1673ffffffffffffffffffffffffffffffffffffffff168173ffffffffffffffffffffffffffffffffffffffff1614610545576040517f08c379a000000000000000000000000000000000000000000000000000000000815260040161053c906119bd565b60405180910390fd5b600760009054906101000a900473ffffffffffffffffffffffffffffffffffffffff1673ffffffffffffffffffffffffffffffffffffffff163373ffffffffffffffffffffffffffffffffffffffff16146105d5576040517f08c379a00000000000000000000000000000000000000000000000000000000081526004016105cc90611a4f565b60405180910390fd5b600660009054906101000a900473ffffffffffffffffffffffffffffffffffffffff1673ffffffffffffffffffffffffffffffffffffffff16639d58b15d600760009054906101000a900473ffffffffffffffffffffffffffffffffffffffff16846040518363ffffffff1660e01b8152600401610654929190611817565b600060405180830381600087803b15801561066e57600080fd5b505af1158015610682573d6000803e3d6000fd5b5050505061068f826112bd565b600160003373ffffffffffffffffffffffffffffffffffffffff1673ffffffffffffffffffffffffffffffffffffffff16815260200190815260200160002060006106da9190611449565b5050565b33600760009054906101000a900473ffffffffffffffffffffffffffffffffffffffff1673ffffffffffffffffffffffffffffffffffffffff168173ffffffffffffffffffffffffffffffffffffffff161461076f576040517f08c379a0000000000000000000000000000000000000000000000000000000008152600401610766906119bd565b60405180910390fd5b600360008373ffffffffffffffffffffffffffffffffffffffff1673ffffffffffffffffffffffffffffffffffffffff16815260200190815260200160002060009054906101000a900460ff166107fb576040517f08c379a00000000000000000000000000000000000000000000000000000000081526004016107f290611abb565b60405180910390fd5b6000600360008473ffffffffffffffffffffffffffffffffffffffff1673ffffffffffffffffffffffffffffffffffffffff16815260200190815260200160002060006101000a81548160ff0219169083151502179055506001600260003373ffffffffffffffffffffffffffffffffffffffff1673ffffffffffffffffffffffffffffffffffffffff16815260200190815260200160002060008282546108a39190611b14565b925050819055506108b3826112bd565b600160003373ffffffffffffffffffffffffffffffffffffffff1673ffffffffffffffffffffffffffffffffffffffff16815260200190815260200160002060006108fe9190611449565b5050565b33600660009054906101000a900473ffffffffffffffffffffffffffffffffffffffff1673ffffffffffffffffffffffffffffffffffffffff166339ac7a0882600760009054906101000a900473ffffffffffffffffffffffffffffffffffffffff166040518363ffffffff1660e01b8152600401610982929190611817565b602060405180830381865afa15801561099f573d6000803e3d6000fd5b505050506040513d601f19601f820116820180604052508101906109c39190611878565b610a02576040517f08c379a00000000000000000000000000000000000000000000000000000000081526004016109f9906118f1565b60405180910390fd5b600360008373ffffffffffffffffffffffffffffffffffffffff1673ffffffffffffffffffffffffffffffffffffffff16815260200190815260200160002060009054906101000a900460ff16610a8e576040517f08c379a0000000000000000000000000000000000000000000000000000000008152600401610a8590611ba3565b60405180910390fd5b6000805b600160008573ffffffffffffffffffffffffffffffffffffffff1673ffffffffffffffffffffffffffffffffffffffff16815260200190815260200160002080549050811015610ba2573373ffffffffffffffffffffffffffffffffffffffff16600160008673ffffffffffffffffffffffffffffffffffffffff1673ffffffffffffffffffffffffffffffffffffffff1681526020019081526020016000208281548110610b4457610b43611bc3565b5b9060005260206000200160009054906101000a900473ffffffffffffffffffffffffffffffffffffffff1673ffffffffffffffffffffffffffffffffffffffff1603610b8f57600191505b8080610b9a90611bf2565b915050610a92565b508015610be4576040517f08c379a0000000000000000000000000000000000000000000000000000000008152600401610bdb90611c86565b60405180910390fd5b600160008473ffffffffffffffffffffffffffffffffffffffff1673ffffffffffffffffffffffffffffffffffffffff168152602001908152602001600020339080600181540180825580915050600190039060005260206000200160009091909190916101000a81548173ffffffffffffffffffffffffffffffffffffffff021916908373ffffffffffffffffffffffffffffffffffffffff1602179055506001600260008573ffffffffffffffffffffffffffffffffffffffff1673ffffffffffffffffffffffffffffffffffffffff1681526020019081526020016000206000828254610cd49190611ca6565b92505081905550505050565b606033600760009054906101000a900473ffffffffffffffffffffffffffffffffffffffff1673ffffffffffffffffffffffffffffffffffffffff168173ffffffffffffffffffffffffffffffffffffffff1614610d73576040517f08c379a0000000000000000000000000000000000000000000000000000000008152600401610d6a906119bd565b60405180910390fd5b6000805480602002602001604051908101604052809291908181526020018280548015610df557602002820191906000526020600020905b8160009054906101000a900473ffffffffffffffffffffffffffffffffffffffff1673ffffffffffffffffffffffffffffffffffffffff1681526020019060010190808311610dab575b505050505091505090565b60008181548110610e1057600080fd5b906000526020600020016000915054906101000a900473ffffffffffffffffffffffffffffffffffffffff1681565b600760009054906101000a900473ffffffffffffffffffffffffffffffffffffffff1681565b60095481565b6000600560008373ffffffffffffffffffffffffffffffffffffffff1673ffffffffffffffffffffffffffffffffffffffff168152602001908152602001600020549050919050565b60085481565b6000600160008373ffffffffffffffffffffffffffffffffffffffff1673ffffffffffffffffffffffffffffffffffffffff168152602001908152602001600020805490509050919050565b600660009054906101000a900473ffffffffffffffffffffffffffffffffffffffff1673ffffffffffffffffffffffffffffffffffffffff166339ac7a0833600760009054906101000a900473ffffffffffffffffffffffffffffffffffffffff166040518363ffffffff1660e01b8152600401610f85929190611817565b602060405180830381865afa158015610fa2573d6000803e3d6000fd5b505050506040513d601f19601f82011682018060405250810190610fc69190611878565b15611006576040517f08c379a0000000000000000000000000000000000000000000000000000000008152600401610ffd90611d36565b60405180910390fd5b600360003373ffffffffffffffffffffffffffffffffffffffff1673ffffffffffffffffffffffffffffffffffffffff16815260200190815260200160002060009054906101000a900460ff1615611093576040517f08c379a000000000000000000000000000000000000000000000000000000000815260040161108a90611da2565b60405180910390fd5b7ffffffffffffffffffffffffffffffffffffffffffffffffffffffffffffffffd600260003373ffffffffffffffffffffffffffffffffffffffff1673ffffffffffffffffffffffffffffffffffffffff1681526020019081526020016000205413611134576040517f08c379a000000000000000000000000000000000000000000000000000000000815260040161112b90611e0e565b60405180910390fd5b60095434101561114357600080fd5b34600860008282546111559190611e2e565b925050819055508181600460003373ffffffffffffffffffffffffffffffffffffffff1673ffffffffffffffffffffffffffffffffffffffff16815260200190815260200160002091826111aa929190612048565b506001600360003373ffffffffffffffffffffffffffffffffffffffff1673ffffffffffffffffffffffffffffffffffffffff16815260200190815260200160002060006101000a81548160ff0219169083151502179055506000339080600181540180825580915050600190039060005260206000200160009091909190916101000a81548173ffffffffffffffffffffffffffffffffffffffff021916908373ffffffffffffffffffffffffffffffffffffffff160217905550630f731400426112769190611e2e565b600560003373ffffffffffffffffffffffffffffffffffffffff1673ffffffffffffffffffffffffffffffffffffffff168152602001908152602001600020819055505050565b60005b600080549050811015611352578173ffffffffffffffffffffffffffffffffffffffff16600082815481106112f8576112f7611bc3565b5b9060005260206000200160009054906101000a900473ffffffffffffffffffffffffffffffffffffffff1673ffffffffffffffffffffffffffffffffffffffff16031561135257808061134a90611bf2565b9150506112c0565b600060016000805490506113669190612118565b8154811061137757611376611bc3565b5b9060005260206000200160009054906101000a900473ffffffffffffffffffffffffffffffffffffffff16600082815481106113b6576113b5611bc3565b5b9060005260206000200160006101000a81548173ffffffffffffffffffffffffffffffffffffffff021916908373ffffffffffffffffffffffffffffffffffffffff16021790555060008054806114105761140f61214c565b5b6001900381819060005260206000200160006101000a81549073ffffffffffffffffffffffffffffffffffffffff021916905590555050565b5080546000825590600052602060002090810190611467919061146a565b50565b5b8082111561148357600081600090555060010161146b565b5090565b600080fd5b600080fd5b600073ffffffffffffffffffffffffffffffffffffffff82169050919050565b60006114bc82611491565b9050919050565b6114cc816114b1565b81146114d757600080fd5b50565b6000813590506114e9816114c3565b92915050565b60006020828403121561150557611504611487565b5b6000611513848285016114da565b91505092915050565b600081519050919050565b600082825260208201905092915050565b60005b8381101561155657808201518184015260208101905061153b565b60008484015250505050565b6000601f19601f8301169050919050565b600061157e8261151c565b6115888185611527565b9350611598818560208601611538565b6115a181611562565b840191505092915050565b600060208201905081810360008301526115c68184611573565b905092915050565b600081519050919050565b600082825260208201905092915050565b6000819050602082019050919050565b611603816114b1565b82525050565b600061161583836115fa565b60208301905092915050565b6000602082019050919050565b6000611639826115ce565b61164381856115d9565b935061164e836115ea565b8060005b8381101561167f5781516116668882611609565b975061167183611621565b925050600181019050611652565b5085935050505092915050565b600060208201905081810360008301526116a6818461162e565b905092915050565b6000819050919050565b6116c1816116ae565b81146116cc57600080fd5b50565b6000813590506116de816116b8565b92915050565b6000602082840312156116fa576116f9611487565b5b6000611708848285016116cf565b91505092915050565b61171a816114b1565b82525050565b60006020820190506117356000830184611711565b92915050565b611744816116ae565b82525050565b600060208201905061175f600083018461173b565b92915050565b600080fd5b600080fd5b600080fd5b60008083601f84011261178a57611789611765565b5b8235905067ffffffffffffffff8111156117a7576117a661176a565b5b6020830191508360018202830111156117c3576117c261176f565b5b9250929050565b600080602083850312156117e1576117e0611487565b5b600083013567ffffffffffffffff8111156117ff576117fe61148c565b5b61180b85828601611774565b92509250509250929050565b600060408201905061182c6000830185611711565b6118396020830184611711565b9392505050565b60008115159050919050565b61185581611840565b811461186057600080fd5b50565b6000815190506118728161184c565b92915050565b60006020828403121561188e5761188d611487565b5b600061189c84828501611863565b91505092915050565b7f526571756972656420746f2062652061206d656d656265720000000000000000600082015250565b60006118db601883611527565b91506118e6826118a5565b602082019050919050565b6000602082019050818103600083015261190a816118ce565b9050919050565b7f4e487b7100000000000000000000000000000000000000000000000000000000600052602260045260246000fd5b6000600282049050600182168061195857607f821691505b60208210810361196b5761196a611911565b5b50919050565b7f4163636573732044656e69656400000000000000000000000000000000000000600082015250565b60006119a7600d83611527565b91506119b282611971565b602082019050919050565b600060208201905081810360008301526119d68161199a565b9050919050565b7f54686973206973206e6f7420746865206d656d62657220506f6f6c204164647260008201527f6573730000000000000000000000000000000000000000000000000000000000602082015250565b6000611a39602383611527565b9150611a44826119dd565b604082019050919050565b60006020820190508181036000830152611a6881611a2c565b9050919050565b7f496e76616c6964206170706c6963616e74206164647265737300000000000000600082015250565b6000611aa5601983611527565b9150611ab082611a6f565b602082019050919050565b60006020820190508181036000830152611ad481611a98565b9050919050565b6000819050919050565b7f4e487b7100000000000000000000000000000000000000000000000000000000600052601160045260246000fd5b6000611b1f82611adb565b9150611b2a83611adb565b9250828203905081811260008412168282136000851215161715611b5157611b50611ae5565b5b92915050565b7f4e6f742061206170706c6963616e740000000000000000000000000000000000600082015250565b6000611b8d600f83611527565b9150611b9882611b57565b602082019050919050565b60006020820190508181036000830152611bbc81611b80565b9050919050565b7f4e487b7100000000000000000000000000000000000000000000000000000000600052603260045260246000fd5b6000611bfd826116ae565b91507fffffffffffffffffffffffffffffffffffffffffffffffffffffffffffffffff8203611c2f57611c2e611ae5565b5b600182019050919050565b7f53656e64657220616c726561647920766f746564000000000000000000000000600082015250565b6000611c70601483611527565b9150611c7b82611c3a565b602082019050919050565b60006020820190508181036000830152611c9f81611c63565b9050919050565b6000611cb182611adb565b9150611cbc83611adb565b925082820190508281121560008312168382126000841215161715611ce457611ce3611ae5565b5b92915050565b7f416c726561647920616374697665206d656d6265720000000000000000000000600082015250565b6000611d20601583611527565b9150611d2b82611cea565b602082019050919050565b60006020820190508181036000830152611d4f81611d13565b9050919050565b7f416c726561647920616374697665206170706c6963616e740000000000000000600082015250565b6000611d8c601883611527565b9150611d9782611d56565b602082019050919050565b60006020820190508181036000830152611dbb81611d7f565b9050919050565b7f6163636f756e742072656a656374656400000000000000000000000000000000600082015250565b6000611df8601083611527565b9150611e0382611dc2565b602082019050919050565b60006020820190508181036000830152611e2781611deb565b9050919050565b6000611e39826116ae565b9150611e44836116ae565b9250828201905080821115611e5c57611e5b611ae5565b5b92915050565b600082905092915050565b7f4e487b7100000000000000000000000000000000000000000000000000000000600052604160045260246000fd5b60008190508160005260206000209050919050565b60006020601f8301049050919050565b600082821b905092915050565b600060088302611efe7fffffffffffffffffffffffffffffffffffffffffffffffffffffffffffffffff82611ec1565b611f088683611ec1565b95508019841693508086168417925050509392505050565b6000819050919050565b6000611f45611f40611f3b846116ae565b611f20565b6116ae565b9050919050565b6000819050919050565b611f5f83611f2a565b611f73611f6b82611f4c565b848454611ece565b825550505050565b600090565b611f88611f7b565b611f93818484611f56565b505050565b5b81811015611fb757611fac600082611f80565b600181019050611f99565b5050565b601f821115611ffc57611fcd81611e9c565b611fd684611eb1565b81016020851015611fe5578190505b611ff9611ff185611eb1565b830182611f98565b50505b505050565b600082821c905092915050565b600061201f60001984600802612001565b1980831691505092915050565b6000612038838361200e565b9150826002028217905092915050565b6120528383611e62565b67ffffffffffffffff81111561206b5761206a611e6d565b5b6120758254611940565b612080828285611fbb565b6000601f8311600181146120af576000841561209d578287013590505b6120a7858261202c565b86555061210f565b601f1984166120bd86611e9c565b60005b828110156120e5578489013582556001820191506020850194506020810190506120c0565b8683101561210257848901356120fe601f89168261200e565b8355505b6001600288020188555050505b50505050505050565b6000612123826116ae565b915061212e836116ae565b925082820390508181111561214657612145611ae5565b5b92915050565b7f4e487b7100000000000000000000000000000000000000000000000000000000600052603160045260246000fdfea2646970667358221220f4bf0d28c0f5e9041d506e8d7f2afb55816294bc34846f4881144c13f652670264736f6c63430008110033","opcodes":"PUSH1 0x80 PUSH1 0x40 MSTORE PUSH3 0xF4240 PUSH1 0x9 SSTORE CALLVALUE DUP1 ISZERO PUSH3 0x18 JUMPI PUSH1 0x0 DUP1 REVERT JUMPDEST POP PUSH1 0x40 MLOAD PUSH3 0x233A CODESIZE SUB DUP1 PUSH3 0x233A DUP4 CODECOPY DUP2 DUP2 ADD PUSH1 0x40 MSTORE DUP2 ADD SWAP1 PUSH3 0x3E SWAP2 SWAP1 PUSH3 0x132 JUMP JUMPDEST DUP2 PUSH1 0x6 PUSH1 0x0 PUSH2 0x100 EXP DUP2 SLOAD DUP2 PUSH20 0xFFFFFFFFFFFFFFFFFFFFFFFFFFFFFFFFFFFFFFFF MUL NOT AND SWAP1 DUP4 PUSH20 0xFFFFFFFFFFFFFFFFFFFFFFFFFFFFFFFFFFFFFFFF AND MUL OR SWAP1 SSTORE POP DUP1 PUSH1 0x7 PUSH1 0x0 PUSH2 0x100 EXP DUP2 SLOAD DUP2 PUSH20 0xFFFFFFFFFFFFFFFFFFFFFFFFFFFFFFFFFFFFFFFF MUL NOT AND SWAP1 DUP4 PUSH20 0xFFFFFFFFFFFFFFFFFFFFFFFFFFFFFFFFFFFFFFFF AND MUL OR SWAP1 SSTORE POP POP POP PUSH3 0x179 JUMP JUMPDEST PUSH1 0x0 DUP1 REVERT JUMPDEST PUSH1 0x0 PUSH20 0xFFFFFFFFFFFFFFFFFFFFFFFFFFFFFFFFFFFFFFFF DUP3 AND SWAP1 POP SWAP2 SWAP1 POP JUMP JUMPDEST PUSH1 0x0 PUSH3 0xFA DUP3 PUSH3 0xCD JUMP JUMPDEST SWAP1 POP SWAP2 SWAP1 POP JUMP JUMPDEST PUSH3 0x10C DUP2 PUSH3 0xED JUMP JUMPDEST DUP2 EQ PUSH3 0x118 JUMPI PUSH1 0x0 DUP1 REVERT JUMPDEST POP JUMP JUMPDEST PUSH1 0x0 DUP2 MLOAD SWAP1 POP PUSH3 0x12C DUP2 PUSH3 0x101 JUMP JUMPDEST SWAP3 SWAP2 POP POP JUMP JUMPDEST PUSH1 0x0 DUP1 PUSH1 0x40 DUP4 DUP6 SUB SLT ISZERO PUSH3 0x14C JUMPI PUSH3 0x14B PUSH3 0xC8 JUMP JUMPDEST JUMPDEST PUSH1 0x0 PUSH3 0x15C DUP6 DUP3 DUP7 ADD PUSH3 0x11B JUMP JUMPDEST SWAP3 POP POP PUSH1 0x20 PUSH3 0x16F DUP6 DUP3 DUP7 ADD PUSH3 0x11B JUMP JUMPDEST SWAP2 POP POP SWAP3 POP SWAP3 SWAP1 POP JUMP JUMPDEST PUSH2 0x21B1 DUP1 PUSH3 0x189 PUSH1 0x0 CODECOPY PUSH1 0x0 RETURN INVALID PUSH1 0x80 PUSH1 0x40 MSTORE PUSH1 0x4 CALLDATASIZE LT PUSH2 0xA6 JUMPI PUSH1 0x0 CALLDATALOAD PUSH1 0xE0 SHR DUP1 PUSH4 0x930235B4 GT PUSH2 0x64 JUMPI DUP1 PUSH4 0x930235B4 EQ PUSH2 0x1CB JUMPI DUP1 PUSH4 0xA10C8A97 EQ PUSH2 0x1F6 JUMPI DUP1 PUSH4 0xB672BDCB EQ PUSH2 0x221 JUMPI DUP1 PUSH4 0xB69EF8A8 EQ PUSH2 0x25E JUMPI DUP1 PUSH4 0xD9A87535 EQ PUSH2 0x289 JUMPI DUP1 PUSH4 0xFD591902 EQ PUSH2 0x2C6 JUMPI PUSH2 0xA6 JUMP JUMPDEST DUP1 PUSH3 0xAD808F EQ PUSH2 0xAB JUMPI DUP1 PUSH4 0x1292A282 EQ PUSH2 0xE8 JUMPI DUP1 PUSH4 0x273F868E EQ PUSH2 0x111 JUMPI DUP1 PUSH4 0x28F4694C EQ PUSH2 0x13A JUMPI DUP1 PUSH4 0x455772D2 EQ PUSH2 0x163 JUMPI DUP1 PUSH4 0x8C468CD4 EQ PUSH2 0x18E JUMPI JUMPDEST PUSH1 0x0 DUP1 REVERT JUMPDEST CALLVALUE DUP1 ISZERO PUSH2 0xB7 JUMPI PUSH1 0x0 DUP1 REVERT JUMPDEST POP PUSH2 0xD2 PUSH1 0x4 DUP1 CALLDATASIZE SUB DUP2 ADD SWAP1 PUSH2 0xCD SWAP2 SWAP1 PUSH2 0x14EF JUMP JUMPDEST PUSH2 0x2E2 JUMP JUMPDEST PUSH1 0x40 MLOAD PUSH2 0xDF SWAP2 SWAP1 PUSH2 0x15AC JUMP JUMPDEST PUSH1 0x40 MLOAD DUP1 SWAP2 SUB SWAP1 RETURN JUMPDEST CALLVALUE DUP1 ISZERO PUSH2 0xF4 JUMPI PUSH1 0x0 DUP1 REVERT JUMPDEST POP PUSH2 0x10F PUSH1 0x4 DUP1 CALLDATASIZE SUB DUP2 ADD SWAP1 PUSH2 0x10A SWAP2 SWAP1 PUSH2 0x14EF JUMP JUMPDEST PUSH2 0x4B4 JUMP JUMPDEST STOP JUMPDEST CALLVALUE DUP1 ISZERO PUSH2 0x11D JUMPI PUSH1 0x0 DUP1 REVERT JUMPDEST POP PUSH2 0x138 PUSH1 0x4 DUP1 CALLDATASIZE SUB DUP2 ADD SWAP1 PUSH2 0x133 SWAP2 SWAP1 PUSH2 0x14EF JUMP JUMPDEST PUSH2 0x6DE JUMP JUMPDEST STOP JUMPDEST CALLVALUE DUP1 ISZERO PUSH2 0x146 JUMPI PUSH1 0x0 DUP1 REVERT JUMPDEST POP PUSH2 0x161 PUSH1 0x4 DUP1 CALLDATASIZE SUB DUP2 ADD SWAP1 PUSH2 0x15C SWAP2 SWAP1 PUSH2 0x14EF JUMP JUMPDEST PUSH2 0x902 JUMP JUMPDEST STOP JUMPDEST CALLVALUE DUP1 ISZERO PUSH2 0x16F JUMPI PUSH1 0x0 DUP1 REVERT JUMPDEST POP PUSH2 0x178 PUSH2 0xCE0 JUMP JUMPDEST PUSH1 0x40 MLOAD PUSH2 0x185 SWAP2 SWAP1 PUSH2 0x168C JUMP JUMPDEST PUSH1 0x40 MLOAD DUP1 SWAP2 SUB SWAP1 RETURN JUMPDEST CALLVALUE DUP1 ISZERO PUSH2 0x19A JUMPI PUSH1 0x0 DUP1 REVERT JUMPDEST POP PUSH2 0x1B5 PUSH1 0x4 DUP1 CALLDATASIZE SUB DUP2 ADD SWAP1 PUSH2 0x1B0 SWAP2 SWAP1 PUSH2 0x16E4 JUMP JUMPDEST PUSH2 0xE00 JUMP JUMPDEST PUSH1 0x40 MLOAD PUSH2 0x1C2 SWAP2 SWAP1 PUSH2 0x1720 JUMP JUMPDEST PUSH1 0x40 MLOAD DUP1 SWAP2 SUB SWAP1 RETURN JUMPDEST CALLVALUE DUP1 ISZERO PUSH2 0x1D7 JUMPI PUSH1 0x0 DUP1 REVERT JUMPDEST POP PUSH2 0x1E0 PUSH2 0xE3F JUMP JUMPDEST PUSH1 0x40 MLOAD PUSH2 0x1ED SWAP2 SWAP1 PUSH2 0x1720 JUMP JUMPDEST PUSH1 0x40 MLOAD DUP1 SWAP2 SUB SWAP1 RETURN JUMPDEST CALLVALUE DUP1 ISZERO PUSH2 0x202 JUMPI PUSH1 0x0 DUP1 REVERT JUMPDEST POP PUSH2 0x20B PUSH2 0xE65 JUMP JUMPDEST PUSH1 0x40 MLOAD PUSH2 0x218 SWAP2 SWAP1 PUSH2 0x174A JUMP JUMPDEST PUSH1 0x40 MLOAD DUP1 SWAP2 SUB SWAP1 RETURN JUMPDEST CALLVALUE DUP1 ISZERO PUSH2 0x22D JUMPI PUSH1 0x0 DUP1 REVERT JUMPDEST POP PUSH2 0x248 PUSH1 0x4 DUP1 CALLDATASIZE SUB DUP2 ADD SWAP1 PUSH2 0x243 SWAP2 SWAP1 PUSH2 0x14EF JUMP JUMPDEST PUSH2 0xE6B JUMP JUMPDEST PUSH1 0x40 MLOAD PUSH2 0x255 SWAP2 SWAP1 PUSH2 0x174A JUMP JUMPDEST PUSH1 0x40 MLOAD DUP1 SWAP2 SUB SWAP1 RETURN JUMPDEST CALLVALUE DUP1 ISZERO PUSH2 0x26A JUMPI PUSH1 0x0 DUP1 REVERT JUMPDEST POP PUSH2 0x273 PUSH2 0xEB4 JUMP JUMPDEST PUSH1 0x40 MLOAD PUSH2 0x280 SWAP2 SWAP1 PUSH2 0x174A JUMP JUMPDEST PUSH1 0x40 MLOAD DUP1 SWAP2 SUB SWAP1 RETURN JUMPDEST CALLVALUE DUP1 ISZERO PUSH2 0x295 JUMPI PUSH1 0x0 DUP1 REVERT JUMPDEST POP PUSH2 0x2B0 PUSH1 0x4 DUP1 CALLDATASIZE SUB DUP2 ADD SWAP1 PUSH2 0x2AB SWAP2 SWAP1 PUSH2 0x14EF JUMP JUMPDEST PUSH2 0xEBA JUMP JUMPDEST PUSH1 0x40 MLOAD PUSH2 0x2BD SWAP2 SWAP1 PUSH2 0x174A JUMP JUMPDEST PUSH1 0x40 MLOAD DUP1 SWAP2 SUB SWAP1 RETURN JUMPDEST PUSH2 0x2E0 PUSH1 0x4 DUP1 CALLDATASIZE SUB DUP2 ADD SWAP1 PUSH2 0x2DB SWAP2 SWAP1 PUSH2 0x17CA JUMP JUMPDEST PUSH2 0xF06 JUMP JUMPDEST STOP JUMPDEST PUSH1 0x60 CALLER PUSH1 0x6 PUSH1 0x0 SWAP1 SLOAD SWAP1 PUSH2 0x100 EXP SWAP1 DIV PUSH20 0xFFFFFFFFFFFFFFFFFFFFFFFFFFFFFFFFFFFFFFFF AND PUSH20 0xFFFFFFFFFFFFFFFFFFFFFFFFFFFFFFFFFFFFFFFF AND PUSH4 0x39AC7A08 DUP3 PUSH1 0x7 PUSH1 0x0 SWAP1 SLOAD SWAP1 PUSH2 0x100 EXP SWAP1 DIV PUSH20 0xFFFFFFFFFFFFFFFFFFFFFFFFFFFFFFFFFFFFFFFF AND PUSH1 0x40 MLOAD DUP4 PUSH4 0xFFFFFFFF AND PUSH1 0xE0 SHL DUP2 MSTORE PUSH1 0x4 ADD PUSH2 0x364 SWAP3 SWAP2 SWAP1 PUSH2 0x1817 JUMP JUMPDEST PUSH1 0x20 PUSH1 0x40 MLOAD DUP1 DUP4 SUB DUP2 DUP7 GAS STATICCALL ISZERO DUP1 ISZERO PUSH2 0x381 JUMPI RETURNDATASIZE PUSH1 0x0 DUP1 RETURNDATACOPY RETURNDATASIZE PUSH1 0x0 REVERT JUMPDEST POP POP POP POP PUSH1 0x40 MLOAD RETURNDATASIZE PUSH1 0x1F NOT PUSH1 0x1F DUP3 ADD AND DUP3 ADD DUP1 PUSH1 0x40 MSTORE POP DUP2 ADD SWAP1 PUSH2 0x3A5 SWAP2 SWAP1 PUSH2 0x1878 JUMP JUMPDEST PUSH2 0x3E4 JUMPI PUSH1 0x40 MLOAD PUSH32 0x8C379A000000000000000000000000000000000000000000000000000000000 DUP2 MSTORE PUSH1 0x4 ADD PUSH2 0x3DB SWAP1 PUSH2 0x18F1 JUMP JUMPDEST PUSH1 0x40 MLOAD DUP1 SWAP2 SUB SWAP1 REVERT JUMPDEST PUSH1 0x4 PUSH1 0x0 DUP5 PUSH20 0xFFFFFFFFFFFFFFFFFFFFFFFFFFFFFFFFFFFFFFFF AND PUSH20 0xFFFFFFFFFFFFFFFFFFFFFFFFFFFFFFFFFFFFFFFF AND DUP2 MSTORE PUSH1 0x20 ADD SWAP1 DUP2 MSTORE PUSH1 0x20 ADD PUSH1 0x0 KECCAK256 DUP1 SLOAD PUSH2 0x42E SWAP1 PUSH2 0x1940 JUMP JUMPDEST DUP1 PUSH1 0x1F ADD PUSH1 0x20 DUP1 SWAP2 DIV MUL PUSH1 0x20 ADD PUSH1 0x40 MLOAD SWAP1 DUP2 ADD PUSH1 0x40 MSTORE DUP1 SWAP3 SWAP2 SWAP1 DUP2 DUP2 MSTORE PUSH1 0x20 ADD DUP3 DUP1 SLOAD PUSH2 0x45A SWAP1 PUSH2 0x1940 JUMP JUMPDEST DUP1 ISZERO PUSH2 0x4A7 JUMPI DUP1 PUSH1 0x1F LT PUSH2 0x47C JUMPI PUSH2 0x100 DUP1 DUP4 SLOAD DIV MUL DUP4 MSTORE SWAP2 PUSH1 0x20 ADD SWAP2 PUSH2 0x4A7 JUMP JUMPDEST DUP3 ADD SWAP2 SWAP1 PUSH1 0x0 MSTORE PUSH1 0x20 PUSH1 0x0 KECCAK256 SWAP1 JUMPDEST DUP2 SLOAD DUP2 MSTORE SWAP1 PUSH1 0x1 ADD SWAP1 PUSH1 0x20 ADD DUP1 DUP4 GT PUSH2 0x48A JUMPI DUP3 SWAP1 SUB PUSH1 0x1F AND DUP3 ADD SWAP2 JUMPDEST POP POP POP POP POP SWAP2 POP POP SWAP2 SWAP1 POP JUMP JUMPDEST CALLER PUSH1 0x7 PUSH1 0x0 SWAP1 SLOAD SWAP1 PUSH2 0x100 EXP SWAP1 DIV PUSH20 0xFFFFFFFFFFFFFFFFFFFFFFFFFFFFFFFFFFFFFFFF AND PUSH20 0xFFFFFFFFFFFFFFFFFFFFFFFFFFFFFFFFFFFFFFFF AND DUP2 PUSH20 0xFFFFFFFFFFFFFFFFFFFFFFFFFFFFFFFFFFFFFFFF AND EQ PUSH2 0x545 JUMPI PUSH1 0x40 MLOAD PUSH32 0x8C379A000000000000000000000000000000000000000000000000000000000 DUP2 MSTORE PUSH1 0x4 ADD PUSH2 0x53C SWAP1 PUSH2 0x19BD JUMP JUMPDEST PUSH1 0x40 MLOAD DUP1 SWAP2 SUB SWAP1 REVERT JUMPDEST PUSH1 0x7 PUSH1 0x0 SWAP1 SLOAD SWAP1 PUSH2 0x100 EXP SWAP1 DIV PUSH20 0xFFFFFFFFFFFFFFFFFFFFFFFFFFFFFFFFFFFFFFFF AND PUSH20 0xFFFFFFFFFFFFFFFFFFFFFFFFFFFFFFFFFFFFFFFF AND CALLER PUSH20 0xFFFFFFFFFFFFFFFFFFFFFFFFFFFFFFFFFFFFFFFF AND EQ PUSH2 0x5D5 JUMPI PUSH1 0x40 MLOAD PUSH32 0x8C379A000000000000000000000000000000000000000000000000000000000 DUP2 MSTORE PUSH1 0x4 ADD PUSH2 0x5CC SWAP1 PUSH2 0x1A4F JUMP JUMPDEST PUSH1 0x40 MLOAD DUP1 SWAP2 SUB SWAP1 REVERT JUMPDEST PUSH1 0x6 PUSH1 0x0 SWAP1 SLOAD SWAP1 PUSH2 0x100 EXP SWAP1 DIV PUSH20 0xFFFFFFFFFFFFFFFFFFFFFFFFFFFFFFFFFFFFFFFF AND PUSH20 0xFFFFFFFFFFFFFFFFFFFFFFFFFFFFFFFFFFFFFFFF AND PUSH4 0x9D58B15D PUSH1 0x7 PUSH1 0x0 SWAP1 SLOAD SWAP1 PUSH2 0x100 EXP SWAP1 DIV PUSH20 0xFFFFFFFFFFFFFFFFFFFFFFFFFFFFFFFFFFFFFFFF AND DUP5 PUSH1 0x40 MLOAD DUP4 PUSH4 0xFFFFFFFF AND PUSH1 0xE0 SHL DUP2 MSTORE PUSH1 0x4 ADD PUSH2 0x654 SWAP3 SWAP2 SWAP1 PUSH2 0x1817 JUMP JUMPDEST PUSH1 0x0 PUSH1 0x40 MLOAD DUP1 DUP4 SUB DUP2 PUSH1 0x0 DUP8 DUP1 EXTCODESIZE ISZERO DUP1 ISZERO PUSH2 0x66E JUMPI PUSH1 0x0 DUP1 REVERT JUMPDEST POP GAS CALL ISZERO DUP1 ISZERO PUSH2 0x682 JUMPI RETURNDATASIZE PUSH1 0x0 DUP1 RETURNDATACOPY RETURNDATASIZE PUSH1 0x0 REVERT JUMPDEST POP POP POP POP PUSH2 0x68F DUP3 PUSH2 0x12BD JUMP JUMPDEST PUSH1 0x1 PUSH1 0x0 CALLER PUSH20 0xFFFFFFFFFFFFFFFFFFFFFFFFFFFFFFFFFFFFFFFF AND PUSH20 0xFFFFFFFFFFFFFFFFFFFFFFFFFFFFFFFFFFFFFFFF AND DUP2 MSTORE PUSH1 0x20 ADD SWAP1 DUP2 MSTORE PUSH1 0x20 ADD PUSH1 0x0 KECCAK256 PUSH1 0x0 PUSH2 0x6DA SWAP2 SWAP1 PUSH2 0x1449 JUMP JUMPDEST POP POP JUMP JUMPDEST CALLER PUSH1 0x7 PUSH1 0x0 SWAP1 SLOAD SWAP1 PUSH2 0x100 EXP SWAP1 DIV PUSH20 0xFFFFFFFFFFFFFFFFFFFFFFFFFFFFFFFFFFFFFFFF AND PUSH20 0xFFFFFFFFFFFFFFFFFFFFFFFFFFFFFFFFFFFFFFFF AND DUP2 PUSH20 0xFFFFFFFFFFFFFFFFFFFFFFFFFFFFFFFFFFFFFFFF AND EQ PUSH2 0x76F JUMPI PUSH1 0x40 MLOAD PUSH32 0x8C379A000000000000000000000000000000000000000000000000000000000 DUP2 MSTORE PUSH1 0x4 ADD PUSH2 0x766 SWAP1 PUSH2 0x19BD JUMP JUMPDEST PUSH1 0x40 MLOAD DUP1 SWAP2 SUB SWAP1 REVERT JUMPDEST PUSH1 0x3 PUSH1 0x0 DUP4 PUSH20 0xFFFFFFFFFFFFFFFFFFFFFFFFFFFFFFFFFFFFFFFF AND PUSH20 0xFFFFFFFFFFFFFFFFFFFFFFFFFFFFFFFFFFFFFFFF AND DUP2 MSTORE PUSH1 0x20 ADD SWAP1 DUP2 MSTORE PUSH1 0x20 ADD PUSH1 0x0 KECCAK256 PUSH1 0x0 SWAP1 SLOAD SWAP1 PUSH2 0x100 EXP SWAP1 DIV PUSH1 0xFF AND PUSH2 0x7FB JUMPI PUSH1 0x40 MLOAD PUSH32 0x8C379A000000000000000000000000000000000000000000000000000000000 DUP2 MSTORE PUSH1 0x4 ADD PUSH2 0x7F2 SWAP1 PUSH2 0x1ABB JUMP JUMPDEST PUSH1 0x40 MLOAD DUP1 SWAP2 SUB SWAP1 REVERT JUMPDEST PUSH1 0x0 PUSH1 0x3 PUSH1 0x0 DUP5 PUSH20 0xFFFFFFFFFFFFFFFFFFFFFFFFFFFFFFFFFFFFFFFF AND PUSH20 0xFFFFFFFFFFFFFFFFFFFFFFFFFFFFFFFFFFFFFFFF AND DUP2 MSTORE PUSH1 0x20 ADD SWAP1 DUP2 MSTORE PUSH1 0x20 ADD PUSH1 0x0 KECCAK256 PUSH1 0x0 PUSH2 0x100 EXP DUP2 SLOAD DUP2 PUSH1 0xFF MUL NOT AND SWAP1 DUP4 ISZERO ISZERO MUL OR SWAP1 SSTORE POP PUSH1 0x1 PUSH1 0x2 PUSH1 0x0 CALLER PUSH20 0xFFFFFFFFFFFFFFFFFFFFFFFFFFFFFFFFFFFFFFFF AND PUSH20 0xFFFFFFFFFFFFFFFFFFFFFFFFFFFFFFFFFFFFFFFF AND DUP2 MSTORE PUSH1 0x20 ADD SWAP1 DUP2 MSTORE PUSH1 0x20 ADD PUSH1 0x0 KECCAK256 PUSH1 0x0 DUP3 DUP3 SLOAD PUSH2 0x8A3 SWAP2 SWAP1 PUSH2 0x1B14 JUMP JUMPDEST SWAP3 POP POP DUP2 SWAP1 SSTORE POP PUSH2 0x8B3 DUP3 PUSH2 0x12BD JUMP JUMPDEST PUSH1 0x1 PUSH1 0x0 CALLER PUSH20 0xFFFFFFFFFFFFFFFFFFFFFFFFFFFFFFFFFFFFFFFF AND PUSH20 0xFFFFFFFFFFFFFFFFFFFFFFFFFFFFFFFFFFFFFFFF AND DUP2 MSTORE PUSH1 0x20 ADD SWAP1 DUP2 MSTORE PUSH1 0x20 ADD PUSH1 0x0 KECCAK256 PUSH1 0x0 PUSH2 0x8FE SWAP2 SWAP1 PUSH2 0x1449 JUMP JUMPDEST POP POP JUMP JUMPDEST CALLER PUSH1 0x6 PUSH1 0x0 SWAP1 SLOAD SWAP1 PUSH2 0x100 EXP SWAP1 DIV PUSH20 0xFFFFFFFFFFFFFFFFFFFFFFFFFFFFFFFFFFFFFFFF AND PUSH20 0xFFFFFFFFFFFFFFFFFFFFFFFFFFFFFFFFFFFFFFFF AND PUSH4 0x39AC7A08 DUP3 PUSH1 0x7 PUSH1 0x0 SWAP1 SLOAD SWAP1 PUSH2 0x100 EXP SWAP1 DIV PUSH20 0xFFFFFFFFFFFFFFFFFFFFFFFFFFFFFFFFFFFFFFFF AND PUSH1 0x40 MLOAD DUP4 PUSH4 0xFFFFFFFF AND PUSH1 0xE0 SHL DUP2 MSTORE PUSH1 0x4 ADD PUSH2 0x982 SWAP3 SWAP2 SWAP1 PUSH2 0x1817 JUMP JUMPDEST PUSH1 0x20 PUSH1 0x40 MLOAD DUP1 DUP4 SUB DUP2 DUP7 GAS STATICCALL ISZERO DUP1 ISZERO PUSH2 0x99F JUMPI RETURNDATASIZE PUSH1 0x0 DUP1 RETURNDATACOPY RETURNDATASIZE PUSH1 0x0 REVERT JUMPDEST POP POP POP POP PUSH1 0x40 MLOAD RETURNDATASIZE PUSH1 0x1F NOT PUSH1 0x1F DUP3 ADD AND DUP3 ADD DUP1 PUSH1 0x40 MSTORE POP DUP2 ADD SWAP1 PUSH2 0x9C3 SWAP2 SWAP1 PUSH2 0x1878 JUMP JUMPDEST PUSH2 0xA02 JUMPI PUSH1 0x40 MLOAD PUSH32 0x8C379A000000000000000000000000000000000000000000000000000000000 DUP2 MSTORE PUSH1 0x4 ADD PUSH2 0x9F9 SWAP1 PUSH2 0x18F1 JUMP JUMPDEST PUSH1 0x40 MLOAD DUP1 SWAP2 SUB SWAP1 REVERT JUMPDEST PUSH1 0x3 PUSH1 0x0 DUP4 PUSH20 0xFFFFFFFFFFFFFFFFFFFFFFFFFFFFFFFFFFFFFFFF AND PUSH20 0xFFFFFFFFFFFFFFFFFFFFFFFFFFFFFFFFFFFFFFFF AND DUP2 MSTORE PUSH1 0x20 ADD SWAP1 DUP2 MSTORE PUSH1 0x20 ADD PUSH1 0x0 KECCAK256 PUSH1 0x0 SWAP1 SLOAD SWAP1 PUSH2 0x100 EXP SWAP1 DIV PUSH1 0xFF AND PUSH2 0xA8E JUMPI PUSH1 0x40 MLOAD PUSH32 0x8C379A000000000000000000000000000000000000000000000000000000000 DUP2 MSTORE PUSH1 0x4 ADD PUSH2 0xA85 SWAP1 PUSH2 0x1BA3 JUMP JUMPDEST PUSH1 0x40 MLOAD DUP1 SWAP2 SUB SWAP1 REVERT JUMPDEST PUSH1 0x0 DUP1 JUMPDEST PUSH1 0x1 PUSH1 0x0 DUP6 PUSH20 0xFFFFFFFFFFFFFFFFFFFFFFFFFFFFFFFFFFFFFFFF AND PUSH20 0xFFFFFFFFFFFFFFFFFFFFFFFFFFFFFFFFFFFFFFFF AND DUP2 MSTORE PUSH1 0x20 ADD SWAP1 DUP2 MSTORE PUSH1 0x20 ADD PUSH1 0x0 KECCAK256 DUP1 SLOAD SWAP1 POP DUP2 LT ISZERO PUSH2 0xBA2 JUMPI CALLER PUSH20 0xFFFFFFFFFFFFFFFFFFFFFFFFFFFFFFFFFFFFFFFF AND PUSH1 0x1 PUSH1 0x0 DUP7 PUSH20 0xFFFFFFFFFFFFFFFFFFFFFFFFFFFFFFFFFFFFFFFF AND PUSH20 0xFFFFFFFFFFFFFFFFFFFFFFFFFFFFFFFFFFFFFFFF AND DUP2 MSTORE PUSH1 0x20 ADD SWAP1 DUP2 MSTORE PUSH1 0x20 ADD PUSH1 0x0 KECCAK256 DUP3 DUP2 SLOAD DUP2 LT PUSH2 0xB44 JUMPI PUSH2 0xB43 PUSH2 0x1BC3 JUMP JUMPDEST JUMPDEST SWAP1 PUSH1 0x0 MSTORE PUSH1 0x20 PUSH1 0x0 KECCAK256 ADD PUSH1 0x0 SWAP1 SLOAD SWAP1 PUSH2 0x100 EXP SWAP1 DIV PUSH20 0xFFFFFFFFFFFFFFFFFFFFFFFFFFFFFFFFFFFFFFFF AND PUSH20 0xFFFFFFFFFFFFFFFFFFFFFFFFFFFFFFFFFFFFFFFF AND SUB PUSH2 0xB8F JUMPI PUSH1 0x1 SWAP2 POP JUMPDEST DUP1 DUP1 PUSH2 0xB9A SWAP1 PUSH2 0x1BF2 JUMP JUMPDEST SWAP2 POP POP PUSH2 0xA92 JUMP JUMPDEST POP DUP1 ISZERO PUSH2 0xBE4 JUMPI PUSH1 0x40 MLOAD PUSH32 0x8C379A000000000000000000000000000000000000000000000000000000000 DUP2 MSTORE PUSH1 0x4 ADD PUSH2 0xBDB SWAP1 PUSH2 0x1C86 JUMP JUMPDEST PUSH1 0x40 MLOAD DUP1 SWAP2 SUB SWAP1 REVERT JUMPDEST PUSH1 0x1 PUSH1 0x0 DUP5 PUSH20 0xFFFFFFFFFFFFFFFFFFFFFFFFFFFFFFFFFFFFFFFF AND PUSH20 0xFFFFFFFFFFFFFFFFFFFFFFFFFFFFFFFFFFFFFFFF AND DUP2 MSTORE PUSH1 0x20 ADD SWAP1 DUP2 MSTORE PUSH1 0x20 ADD PUSH1 0x0 KECCAK256 CALLER SWAP1 DUP1 PUSH1 0x1 DUP2 SLOAD ADD DUP1 DUP3 SSTORE DUP1 SWAP2 POP POP PUSH1 0x1 SWAP1 SUB SWAP1 PUSH1 0x0 MSTORE PUSH1 0x20 PUSH1 0x0 KECCAK256 ADD PUSH1 0x0 SWAP1 SWAP2 SWAP1 SWAP2 SWAP1 SWAP2 PUSH2 0x100 EXP DUP2 SLOAD DUP2 PUSH20 0xFFFFFFFFFFFFFFFFFFFFFFFFFFFFFFFFFFFFFFFF MUL NOT AND SWAP1 DUP4 PUSH20 0xFFFFFFFFFFFFFFFFFFFFFFFFFFFFFFFFFFFFFFFF AND MUL OR SWAP1 SSTORE POP PUSH1 0x1 PUSH1 0x2 PUSH1 0x0 DUP6 PUSH20 0xFFFFFFFFFFFFFFFFFFFFFFFFFFFFFFFFFFFFFFFF AND PUSH20 0xFFFFFFFFFFFFFFFFFFFFFFFFFFFFFFFFFFFFFFFF AND DUP2 MSTORE PUSH1 0x20 ADD SWAP1 DUP2 MSTORE PUSH1 0x20 ADD PUSH1 0x0 KECCAK256 PUSH1 0x0 DUP3 DUP3 SLOAD PUSH2 0xCD4 SWAP2 SWAP1 PUSH2 0x1CA6 JUMP JUMPDEST SWAP3 POP POP DUP2 SWAP1 SSTORE POP POP POP POP JUMP JUMPDEST PUSH1 0x60 CALLER PUSH1 0x7 PUSH1 0x0 SWAP1 SLOAD SWAP1 PUSH2 0x100 EXP SWAP1 DIV PUSH20 0xFFFFFFFFFFFFFFFFFFFFFFFFFFFFFFFFFFFFFFFF AND PUSH20 0xFFFFFFFFFFFFFFFFFFFFFFFFFFFFFFFFFFFFFFFF AND DUP2 PUSH20 0xFFFFFFFFFFFFFFFFFFFFFFFFFFFFFFFFFFFFFFFF AND EQ PUSH2 0xD73 JUMPI PUSH1 0x40 MLOAD PUSH32 0x8C379A000000000000000000000000000000000000000000000000000000000 DUP2 MSTORE PUSH1 0x4 ADD PUSH2 0xD6A SWAP1 PUSH2 0x19BD JUMP JUMPDEST PUSH1 0x40 MLOAD DUP1 SWAP2 SUB SWAP1 REVERT JUMPDEST PUSH1 0x0 DUP1 SLOAD DUP1 PUSH1 0x20 MUL PUSH1 0x20 ADD PUSH1 0x40 MLOAD SWAP1 DUP2 ADD PUSH1 0x40 MSTORE DUP1 SWAP3 SWAP2 SWAP1 DUP2 DUP2 MSTORE PUSH1 0x20 ADD DUP3 DUP1 SLOAD DUP1 ISZERO PUSH2 0xDF5 JUMPI PUSH1 0x20 MUL DUP3 ADD SWAP2 SWAP1 PUSH1 0x0 MSTORE PUSH1 0x20 PUSH1 0x0 KECCAK256 SWAP1 JUMPDEST DUP2 PUSH1 0x0 SWAP1 SLOAD SWAP1 PUSH2 0x100 EXP SWAP1 DIV PUSH20 0xFFFFFFFFFFFFFFFFFFFFFFFFFFFFFFFFFFFFFFFF AND PUSH20 0xFFFFFFFFFFFFFFFFFFFFFFFFFFFFFFFFFFFFFFFF AND DUP2 MSTORE PUSH1 0x20 ADD SWAP1 PUSH1 0x1 ADD SWAP1 DUP1 DUP4 GT PUSH2 0xDAB JUMPI JUMPDEST POP POP POP POP POP SWAP2 POP POP SWAP1 JUMP JUMPDEST PUSH1 0x0 DUP2 DUP2 SLOAD DUP2 LT PUSH2 0xE10 JUMPI PUSH1 0x0 DUP1 REVERT JUMPDEST SWAP1 PUSH1 0x0 MSTORE PUSH1 0x20 PUSH1 0x0 KECCAK256 ADD PUSH1 0x0 SWAP2 POP SLOAD SWAP1 PUSH2 0x100 EXP SWAP1 DIV PUSH20 0xFFFFFFFFFFFFFFFFFFFFFFFFFFFFFFFFFFFFFFFF AND DUP2 JUMP JUMPDEST PUSH1 0x7 PUSH1 0x0 SWAP1 SLOAD SWAP1 PUSH2 0x100 EXP SWAP1 DIV PUSH20 0xFFFFFFFFFFFFFFFFFFFFFFFFFFFFFFFFFFFFFFFF AND DUP2 JUMP JUMPDEST PUSH1 0x9 SLOAD DUP2 JUMP JUMPDEST PUSH1 0x0 PUSH1 0x5 PUSH1 0x0 DUP4 PUSH20 0xFFFFFFFFFFFFFFFFFFFFFFFFFFFFFFFFFFFFFFFF AND PUSH20 0xFFFFFFFFFFFFFFFFFFFFFFFFFFFFFFFFFFFFFFFF AND DUP2 MSTORE PUSH1 0x20 ADD SWAP1 DUP2 MSTORE PUSH1 0x20 ADD PUSH1 0x0 KECCAK256 SLOAD SWAP1 POP SWAP2 SWAP1 POP JUMP JUMPDEST PUSH1 0x8 SLOAD DUP2 JUMP JUMPDEST PUSH1 0x0 PUSH1 0x1 PUSH1 0x0 DUP4 PUSH20 0xFFFFFFFFFFFFFFFFFFFFFFFFFFFFFFFFFFFFFFFF AND PUSH20 0xFFFFFFFFFFFFFFFFFFFFFFFFFFFFFFFFFFFFFFFF AND DUP2 MSTORE PUSH1 0x20 ADD SWAP1 DUP2 MSTORE PUSH1 0x20 ADD PUSH1 0x0 KECCAK256 DUP1 SLOAD SWAP1 POP SWAP1 POP SWAP2 SWAP1 POP JUMP JUMPDEST PUSH1 0x6 PUSH1 0x0 SWAP1 SLOAD SWAP1 PUSH2 0x100 EXP SWAP1 DIV PUSH20 0xFFFFFFFFFFFFFFFFFFFFFFFFFFFFFFFFFFFFFFFF AND PUSH20 0xFFFFFFFFFFFFFFFFFFFFFFFFFFFFFFFFFFFFFFFF AND PUSH4 0x39AC7A08 CALLER PUSH1 0x7 PUSH1 0x0 SWAP1 SLOAD SWAP1 PUSH2 0x100 EXP SWAP1 DIV PUSH20 0xFFFFFFFFFFFFFFFFFFFFFFFFFFFFFFFFFFFFFFFF AND PUSH1 0x40 MLOAD DUP4 PUSH4 0xFFFFFFFF AND PUSH1 0xE0 SHL DUP2 MSTORE PUSH1 0x4 ADD PUSH2 0xF85 SWAP3 SWAP2 SWAP1 PUSH2 0x1817 JUMP JUMPDEST PUSH1 0x20 PUSH1 0x40 MLOAD DUP1 DUP4 SUB DUP2 DUP7 GAS STATICCALL ISZERO DUP1 ISZERO PUSH2 0xFA2 JUMPI RETURNDATASIZE PUSH1 0x0 DUP1 RETURNDATACOPY RETURNDATASIZE PUSH1 0x0 REVERT JUMPDEST POP POP POP POP PUSH1 0x40 MLOAD RETURNDATASIZE PUSH1 0x1F NOT PUSH1 0x1F DUP3 ADD AND DUP3 ADD DUP1 PUSH1 0x40 MSTORE POP DUP2 ADD SWAP1 PUSH2 0xFC6 SWAP2 SWAP1 PUSH2 0x1878 JUMP JUMPDEST ISZERO PUSH2 0x1006 JUMPI PUSH1 0x40 MLOAD PUSH32 0x8C379A000000000000000000000000000000000000000000000000000000000 DUP2 MSTORE PUSH1 0x4 ADD PUSH2 0xFFD SWAP1 PUSH2 0x1D36 JUMP JUMPDEST PUSH1 0x40 MLOAD DUP1 SWAP2 SUB SWAP1 REVERT JUMPDEST PUSH1 0x3 PUSH1 0x0 CALLER PUSH20 0xFFFFFFFFFFFFFFFFFFFFFFFFFFFFFFFFFFFFFFFF AND PUSH20 0xFFFFFFFFFFFFFFFFFFFFFFFFFFFFFFFFFFFFFFFF AND DUP2 MSTORE PUSH1 0x20 ADD SWAP1 DUP2 MSTORE PUSH1 0x20 ADD PUSH1 0x0 KECCAK256 PUSH1 0x0 SWAP1 SLOAD SWAP1 PUSH2 0x100 EXP SWAP1 DIV PUSH1 0xFF AND ISZERO PUSH2 0x1093 JUMPI PUSH1 0x40 MLOAD PUSH32 0x8C379A000000000000000000000000000000000000000000000000000000000 DUP2 MSTORE PUSH1 0x4 ADD PUSH2 0x108A SWAP1 PUSH2 0x1DA2 JUMP JUMPDEST PUSH1 0x40 MLOAD DUP1 SWAP2 SUB SWAP1 REVERT JUMPDEST PUSH32 0xFFFFFFFFFFFFFFFFFFFFFFFFFFFFFFFFFFFFFFFFFFFFFFFFFFFFFFFFFFFFFFFD PUSH1 0x2 PUSH1 0x0 CALLER PUSH20 0xFFFFFFFFFFFFFFFFFFFFFFFFFFFFFFFFFFFFFFFF AND PUSH20 0xFFFFFFFFFFFFFFFFFFFFFFFFFFFFFFFFFFFFFFFF AND DUP2 MSTORE PUSH1 0x20 ADD SWAP1 DUP2 MSTORE PUSH1 0x20 ADD PUSH1 0x0 KECCAK256 SLOAD SGT PUSH2 0x1134 JUMPI PUSH1 0x40 MLOAD PUSH32 0x8C379A000000000000000000000000000000000000000000000000000000000 DUP2 MSTORE PUSH1 0x4 ADD PUSH2 0x112B SWAP1 PUSH2 0x1E0E JUMP JUMPDEST PUSH1 0x40 MLOAD DUP1 SWAP2 SUB SWAP1 REVERT JUMPDEST PUSH1 0x9 SLOAD CALLVALUE LT ISZERO PUSH2 0x1143 JUMPI PUSH1 0x0 DUP1 REVERT JUMPDEST CALLVALUE PUSH1 0x8 PUSH1 0x0 DUP3 DUP3 SLOAD PUSH2 0x1155 SWAP2 SWAP1 PUSH2 0x1E2E JUMP JUMPDEST SWAP3 POP POP DUP2 SWAP1 SSTORE POP DUP2 DUP2 PUSH1 0x4 PUSH1 0x0 CALLER PUSH20 0xFFFFFFFFFFFFFFFFFFFFFFFFFFFFFFFFFFFFFFFF AND PUSH20 0xFFFFFFFFFFFFFFFFFFFFFFFFFFFFFFFFFFFFFFFF AND DUP2 MSTORE PUSH1 0x20 ADD SWAP1 DUP2 MSTORE PUSH1 0x20 ADD PUSH1 0x0 KECCAK256 SWAP2 DUP3 PUSH2 0x11AA SWAP3 SWAP2 SWAP1 PUSH2 0x2048 JUMP JUMPDEST POP PUSH1 0x1 PUSH1 0x3 PUSH1 0x0 CALLER PUSH20 0xFFFFFFFFFFFFFFFFFFFFFFFFFFFFFFFFFFFFFFFF AND PUSH20 0xFFFFFFFFFFFFFFFFFFFFFFFFFFFFFFFFFFFFFFFF AND DUP2 MSTORE PUSH1 0x20 ADD SWAP1 DUP2 MSTORE PUSH1 0x20 ADD PUSH1 0x0 KECCAK256 PUSH1 0x0 PUSH2 0x100 EXP DUP2 SLOAD DUP2 PUSH1 0xFF MUL NOT AND SWAP1 DUP4 ISZERO ISZERO MUL OR SWAP1 SSTORE POP PUSH1 0x0 CALLER SWAP1 DUP1 PUSH1 0x1 DUP2 SLOAD ADD DUP1 DUP3 SSTORE DUP1 SWAP2 POP POP PUSH1 0x1 SWAP1 SUB SWAP1 PUSH1 0x0 MSTORE PUSH1 0x20 PUSH1 0x0 KECCAK256 ADD PUSH1 0x0 SWAP1 SWAP2 SWAP1 SWAP2 SWAP1 SWAP2 PUSH2 0x100 EXP DUP2 SLOAD DUP2 PUSH20 0xFFFFFFFFFFFFFFFFFFFFFFFFFFFFFFFFFFFFFFFF MUL NOT AND SWAP1 DUP4 PUSH20 0xFFFFFFFFFFFFFFFFFFFFFFFFFFFFFFFFFFFFFFFF AND MUL OR SWAP1 SSTORE POP PUSH4 0xF731400 TIMESTAMP PUSH2 0x1276 SWAP2 SWAP1 PUSH2 0x1E2E JUMP JUMPDEST PUSH1 0x5 PUSH1 0x0 CALLER PUSH20 0xFFFFFFFFFFFFFFFFFFFFFFFFFFFFFFFFFFFFFFFF AND PUSH20 0xFFFFFFFFFFFFFFFFFFFFFFFFFFFFFFFFFFFFFFFF AND DUP2 MSTORE PUSH1 0x20 ADD SWAP1 DUP2 MSTORE PUSH1 0x20 ADD PUSH1 0x0 KECCAK256 DUP2 SWAP1 SSTORE POP POP POP JUMP JUMPDEST PUSH1 0x0 JUMPDEST PUSH1 0x0 DUP1 SLOAD SWAP1 POP DUP2 LT ISZERO PUSH2 0x1352 JUMPI DUP2 PUSH20 0xFFFFFFFFFFFFFFFFFFFFFFFFFFFFFFFFFFFFFFFF AND PUSH1 0x0 DUP3 DUP2 SLOAD DUP2 LT PUSH2 0x12F8 JUMPI PUSH2 0x12F7 PUSH2 0x1BC3 JUMP JUMPDEST JUMPDEST SWAP1 PUSH1 0x0 MSTORE PUSH1 0x20 PUSH1 0x0 KECCAK256 ADD PUSH1 0x0 SWAP1 SLOAD SWAP1 PUSH2 0x100 EXP SWAP1 DIV PUSH20 0xFFFFFFFFFFFFFFFFFFFFFFFFFFFFFFFFFFFFFFFF AND PUSH20 0xFFFFFFFFFFFFFFFFFFFFFFFFFFFFFFFFFFFFFFFF AND SUB ISZERO PUSH2 0x1352 JUMPI DUP1 DUP1 PUSH2 0x134A SWAP1 PUSH2 0x1BF2 JUMP JUMPDEST SWAP2 POP POP PUSH2 0x12C0 JUMP JUMPDEST PUSH1 0x0 PUSH1 0x1 PUSH1 0x0 DUP1 SLOAD SWAP1 POP PUSH2 0x1366 SWAP2 SWAP1 PUSH2 0x2118 JUMP JUMPDEST DUP2 SLOAD DUP2 LT PUSH2 0x1377 JUMPI PUSH2 0x1376 PUSH2 0x1BC3 JUMP JUMPDEST JUMPDEST SWAP1 PUSH1 0x0 MSTORE PUSH1 0x20 PUSH1 0x0 KECCAK256 ADD PUSH1 0x0 SWAP1 SLOAD SWAP1 PUSH2 0x100 EXP SWAP1 DIV PUSH20 0xFFFFFFFFFFFFFFFFFFFFFFFFFFFFFFFFFFFFFFFF AND PUSH1 0x0 DUP3 DUP2 SLOAD DUP2 LT PUSH2 0x13B6 JUMPI PUSH2 0x13B5 PUSH2 0x1BC3 JUMP JUMPDEST JUMPDEST SWAP1 PUSH1 0x0 MSTORE PUSH1 0x20 PUSH1 0x0 KECCAK256 ADD PUSH1 0x0 PUSH2 0x100 EXP DUP2 SLOAD DUP2 PUSH20 0xFFFFFFFFFFFFFFFFFFFFFFFFFFFFFFFFFFFFFFFF MUL NOT AND SWAP1 DUP4 PUSH20 0xFFFFFFFFFFFFFFFFFFFFFFFFFFFFFFFFFFFFFFFF AND MUL OR SWAP1 SSTORE POP PUSH1 0x0 DUP1 SLOAD DUP1 PUSH2 0x1410 JUMPI PUSH2 0x140F PUSH2 0x214C JUMP JUMPDEST JUMPDEST PUSH1 0x1 SWAP1 SUB DUP2 DUP2 SWAP1 PUSH1 0x0 MSTORE PUSH1 0x20 PUSH1 0x0 KECCAK256 ADD PUSH1 0x0 PUSH2 0x100 EXP DUP2 SLOAD SWAP1 PUSH20 0xFFFFFFFFFFFFFFFFFFFFFFFFFFFFFFFFFFFFFFFF MUL NOT AND SWAP1 SSTORE SWAP1 SSTORE POP POP JUMP JUMPDEST POP DUP1 SLOAD PUSH1 0x0 DUP3 SSTORE SWAP1 PUSH1 0x0 MSTORE PUSH1 0x20 PUSH1 0x0 KECCAK256 SWAP1 DUP2 ADD SWAP1 PUSH2 0x1467 SWAP2 SWAP1 PUSH2 0x146A JUMP JUMPDEST POP JUMP JUMPDEST JUMPDEST DUP1 DUP3 GT ISZERO PUSH2 0x1483 JUMPI PUSH1 0x0 DUP2 PUSH1 0x0 SWAP1 SSTORE POP PUSH1 0x1 ADD PUSH2 0x146B JUMP JUMPDEST POP SWAP1 JUMP JUMPDEST PUSH1 0x0 DUP1 REVERT JUMPDEST PUSH1 0x0 DUP1 REVERT JUMPDEST PUSH1 0x0 PUSH20 0xFFFFFFFFFFFFFFFFFFFFFFFFFFFFFFFFFFFFFFFF DUP3 AND SWAP1 POP SWAP2 SWAP1 POP JUMP JUMPDEST PUSH1 0x0 PUSH2 0x14BC DUP3 PUSH2 0x1491 JUMP JUMPDEST SWAP1 POP SWAP2 SWAP1 POP JUMP JUMPDEST PUSH2 0x14CC DUP2 PUSH2 0x14B1 JUMP JUMPDEST DUP2 EQ PUSH2 0x14D7 JUMPI PUSH1 0x0 DUP1 REVERT JUMPDEST POP JUMP JUMPDEST PUSH1 0x0 DUP2 CALLDATALOAD SWAP1 POP PUSH2 0x14E9 DUP2 PUSH2 0x14C3 JUMP JUMPDEST SWAP3 SWAP2 POP POP JUMP JUMPDEST PUSH1 0x0 PUSH1 0x20 DUP3 DUP5 SUB SLT ISZERO PUSH2 0x1505 JUMPI PUSH2 0x1504 PUSH2 0x1487 JUMP JUMPDEST JUMPDEST PUSH1 0x0 PUSH2 0x1513 DUP5 DUP3 DUP6 ADD PUSH2 0x14DA JUMP JUMPDEST SWAP2 POP POP SWAP3 SWAP2 POP POP JUMP JUMPDEST PUSH1 0x0 DUP2 MLOAD SWAP1 POP SWAP2 SWAP1 POP JUMP JUMPDEST PUSH1 0x0 DUP3 DUP3 MSTORE PUSH1 0x20 DUP3 ADD SWAP1 POP SWAP3 SWAP2 POP POP JUMP JUMPDEST PUSH1 0x0 JUMPDEST DUP4 DUP2 LT ISZERO PUSH2 0x1556 JUMPI DUP1 DUP3 ADD MLOAD DUP2 DUP5 ADD MSTORE PUSH1 0x20 DUP2 ADD SWAP1 POP PUSH2 0x153B JUMP JUMPDEST PUSH1 0x0 DUP5 DUP5 ADD MSTORE POP POP POP POP JUMP JUMPDEST PUSH1 0x0 PUSH1 0x1F NOT PUSH1 0x1F DUP4 ADD AND SWAP1 POP SWAP2 SWAP1 POP JUMP JUMPDEST PUSH1 0x0 PUSH2 0x157E DUP3 PUSH2 0x151C JUMP JUMPDEST PUSH2 0x1588 DUP2 DUP6 PUSH2 0x1527 JUMP JUMPDEST SWAP4 POP PUSH2 0x1598 DUP2 DUP6 PUSH1 0x20 DUP7 ADD PUSH2 0x1538 JUMP JUMPDEST PUSH2 0x15A1 DUP2 PUSH2 0x1562 JUMP JUMPDEST DUP5 ADD SWAP2 POP POP SWAP3 SWAP2 POP POP JUMP JUMPDEST PUSH1 0x0 PUSH1 0x20 DUP3 ADD SWAP1 POP DUP2 DUP2 SUB PUSH1 0x0 DUP4 ADD MSTORE PUSH2 0x15C6 DUP2 DUP5 PUSH2 0x1573 JUMP JUMPDEST SWAP1 POP SWAP3 SWAP2 POP POP JUMP JUMPDEST PUSH1 0x0 DUP2 MLOAD SWAP1 POP SWAP2 SWAP1 POP JUMP JUMPDEST PUSH1 0x0 DUP3 DUP3 MSTORE PUSH1 0x20 DUP3 ADD SWAP1 POP SWAP3 SWAP2 POP POP JUMP JUMPDEST PUSH1 0x0 DUP2 SWAP1 POP PUSH1 0x20 DUP3 ADD SWAP1 POP SWAP2 SWAP1 POP JUMP JUMPDEST PUSH2 0x1603 DUP2 PUSH2 0x14B1 JUMP JUMPDEST DUP3 MSTORE POP POP JUMP JUMPDEST PUSH1 0x0 PUSH2 0x1615 DUP4 DUP4 PUSH2 0x15FA JUMP JUMPDEST PUSH1 0x20 DUP4 ADD SWAP1 POP SWAP3 SWAP2 POP POP JUMP JUMPDEST PUSH1 0x0 PUSH1 0x20 DUP3 ADD SWAP1 POP SWAP2 SWAP1 POP JUMP JUMPDEST PUSH1 0x0 PUSH2 0x1639 DUP3 PUSH2 0x15CE JUMP JUMPDEST PUSH2 0x1643 DUP2 DUP6 PUSH2 0x15D9 JUMP JUMPDEST SWAP4 POP PUSH2 0x164E DUP4 PUSH2 0x15EA JUMP JUMPDEST DUP1 PUSH1 0x0 JUMPDEST DUP4 DUP2 LT ISZERO PUSH2 0x167F JUMPI DUP2 MLOAD PUSH2 0x1666 DUP9 DUP3 PUSH2 0x1609 JUMP JUMPDEST SWAP8 POP PUSH2 0x1671 DUP4 PUSH2 0x1621 JUMP JUMPDEST SWAP3 POP POP PUSH1 0x1 DUP2 ADD SWAP1 POP PUSH2 0x1652 JUMP JUMPDEST POP DUP6 SWAP4 POP POP POP POP SWAP3 SWAP2 POP POP JUMP JUMPDEST PUSH1 0x0 PUSH1 0x20 DUP3 ADD SWAP1 POP DUP2 DUP2 SUB PUSH1 0x0 DUP4 ADD MSTORE PUSH2 0x16A6 DUP2 DUP5 PUSH2 0x162E JUMP JUMPDEST SWAP1 POP SWAP3 SWAP2 POP POP JUMP JUMPDEST PUSH1 0x0 DUP2 SWAP1 POP SWAP2 SWAP1 POP JUMP JUMPDEST PUSH2 0x16C1 DUP2 PUSH2 0x16AE JUMP JUMPDEST DUP2 EQ PUSH2 0x16CC JUMPI PUSH1 0x0 DUP1 REVERT JUMPDEST POP JUMP JUMPDEST PUSH1 0x0 DUP2 CALLDATALOAD SWAP1 POP PUSH2 0x16DE DUP2 PUSH2 0x16B8 JUMP JUMPDEST SWAP3 SWAP2 POP POP JUMP JUMPDEST PUSH1 0x0 PUSH1 0x20 DUP3 DUP5 SUB SLT ISZERO PUSH2 0x16FA JUMPI PUSH2 0x16F9 PUSH2 0x1487 JUMP JUMPDEST JUMPDEST PUSH1 0x0 PUSH2 0x1708 DUP5 DUP3 DUP6 ADD PUSH2 0x16CF JUMP JUMPDEST SWAP2 POP POP SWAP3 SWAP2 POP POP JUMP JUMPDEST PUSH2 0x171A DUP2 PUSH2 0x14B1 JUMP JUMPDEST DUP3 MSTORE POP POP JUMP JUMPDEST PUSH1 0x0 PUSH1 0x20 DUP3 ADD SWAP1 POP PUSH2 0x1735 PUSH1 0x0 DUP4 ADD DUP5 PUSH2 0x1711 JUMP JUMPDEST SWAP3 SWAP2 POP POP JUMP JUMPDEST PUSH2 0x1744 DUP2 PUSH2 0x16AE JUMP JUMPDEST DUP3 MSTORE POP POP JUMP JUMPDEST PUSH1 0x0 PUSH1 0x20 DUP3 ADD SWAP1 POP PUSH2 0x175F PUSH1 0x0 DUP4 ADD DUP5 PUSH2 0x173B JUMP JUMPDEST SWAP3 SWAP2 POP POP JUMP JUMPDEST PUSH1 0x0 DUP1 REVERT JUMPDEST PUSH1 0x0 DUP1 REVERT JUMPDEST PUSH1 0x0 DUP1 REVERT JUMPDEST PUSH1 0x0 DUP1 DUP4 PUSH1 0x1F DUP5 ADD SLT PUSH2 0x178A JUMPI PUSH2 0x1789 PUSH2 0x1765 JUMP JUMPDEST JUMPDEST DUP3 CALLDATALOAD SWAP1 POP PUSH8 0xFFFFFFFFFFFFFFFF DUP2 GT ISZERO PUSH2 0x17A7 JUMPI PUSH2 0x17A6 PUSH2 0x176A JUMP JUMPDEST JUMPDEST PUSH1 0x20 DUP4 ADD SWAP2 POP DUP4 PUSH1 0x1 DUP3 MUL DUP4 ADD GT ISZERO PUSH2 0x17C3 JUMPI PUSH2 0x17C2 PUSH2 0x176F JUMP JUMPDEST JUMPDEST SWAP3 POP SWAP3 SWAP1 POP JUMP JUMPDEST PUSH1 0x0 DUP1 PUSH1 0x20 DUP4 DUP6 SUB SLT ISZERO PUSH2 0x17E1 JUMPI PUSH2 0x17E0 PUSH2 0x1487 JUMP JUMPDEST JUMPDEST PUSH1 0x0 DUP4 ADD CALLDATALOAD PUSH8 0xFFFFFFFFFFFFFFFF DUP2 GT ISZERO PUSH2 0x17FF JUMPI PUSH2 0x17FE PUSH2 0x148C JUMP JUMPDEST JUMPDEST PUSH2 0x180B DUP6 DUP3 DUP7 ADD PUSH2 0x1774 JUMP JUMPDEST SWAP3 POP SWAP3 POP POP SWAP3 POP SWAP3 SWAP1 POP JUMP JUMPDEST PUSH1 0x0 PUSH1 0x40 DUP3 ADD SWAP1 POP PUSH2 0x182C PUSH1 0x0 DUP4 ADD DUP6 PUSH2 0x1711 JUMP JUMPDEST PUSH2 0x1839 PUSH1 0x20 DUP4 ADD DUP5 PUSH2 0x1711 JUMP JUMPDEST SWAP4 SWAP3 POP POP POP JUMP JUMPDEST PUSH1 0x0 DUP2 ISZERO ISZERO SWAP1 POP SWAP2 SWAP1 POP JUMP JUMPDEST PUSH2 0x1855 DUP2 PUSH2 0x1840 JUMP JUMPDEST DUP2 EQ PUSH2 0x1860 JUMPI PUSH1 0x0 DUP1 REVERT JUMPDEST POP JUMP JUMPDEST PUSH1 0x0 DUP2 MLOAD SWAP1 POP PUSH2 0x1872 DUP2 PUSH2 0x184C JUMP JUMPDEST SWAP3 SWAP2 POP POP JUMP JUMPDEST PUSH1 0x0 PUSH1 0x20 DUP3 DUP5 SUB SLT ISZERO PUSH2 0x188E JUMPI PUSH2 0x188D PUSH2 0x1487 JUMP JUMPDEST JUMPDEST PUSH1 0x0 PUSH2 0x189C DUP5 DUP3 DUP6 ADD PUSH2 0x1863 JUMP JUMPDEST SWAP2 POP POP SWAP3 SWAP2 POP POP JUMP JUMPDEST PUSH32 0x526571756972656420746F2062652061206D656D656265720000000000000000 PUSH1 0x0 DUP3 ADD MSTORE POP JUMP JUMPDEST PUSH1 0x0 PUSH2 0x18DB PUSH1 0x18 DUP4 PUSH2 0x1527 JUMP JUMPDEST SWAP2 POP PUSH2 0x18E6 DUP3 PUSH2 0x18A5 JUMP JUMPDEST PUSH1 0x20 DUP3 ADD SWAP1 POP SWAP2 SWAP1 POP JUMP JUMPDEST PUSH1 0x0 PUSH1 0x20 DUP3 ADD SWAP1 POP DUP2 DUP2 SUB PUSH1 0x0 DUP4 ADD MSTORE PUSH2 0x190A DUP2 PUSH2 0x18CE JUMP JUMPDEST SWAP1 POP SWAP2 SWAP1 POP JUMP JUMPDEST PUSH32 0x4E487B7100000000000000000000000000000000000000000000000000000000 PUSH1 0x0 MSTORE PUSH1 0x22 PUSH1 0x4 MSTORE PUSH1 0x24 PUSH1 0x0 REVERT JUMPDEST PUSH1 0x0 PUSH1 0x2 DUP3 DIV SWAP1 POP PUSH1 0x1 DUP3 AND DUP1 PUSH2 0x1958 JUMPI PUSH1 0x7F DUP3 AND SWAP2 POP JUMPDEST PUSH1 0x20 DUP3 LT DUP2 SUB PUSH2 0x196B JUMPI PUSH2 0x196A PUSH2 0x1911 JUMP JUMPDEST JUMPDEST POP SWAP2 SWAP1 POP JUMP JUMPDEST PUSH32 0x4163636573732044656E69656400000000000000000000000000000000000000 PUSH1 0x0 DUP3 ADD MSTORE POP JUMP JUMPDEST PUSH1 0x0 PUSH2 0x19A7 PUSH1 0xD DUP4 PUSH2 0x1527 JUMP JUMPDEST SWAP2 POP PUSH2 0x19B2 DUP3 PUSH2 0x1971 JUMP JUMPDEST PUSH1 0x20 DUP3 ADD SWAP1 POP SWAP2 SWAP1 POP JUMP JUMPDEST PUSH1 0x0 PUSH1 0x20 DUP3 ADD SWAP1 POP DUP2 DUP2 SUB PUSH1 0x0 DUP4 ADD MSTORE PUSH2 0x19D6 DUP2 PUSH2 0x199A JUMP JUMPDEST SWAP1 POP SWAP2 SWAP1 POP JUMP JUMPDEST PUSH32 0x54686973206973206E6F7420746865206D656D62657220506F6F6C2041646472 PUSH1 0x0 DUP3 ADD MSTORE PUSH32 0x6573730000000000000000000000000000000000000000000000000000000000 PUSH1 0x20 DUP3 ADD MSTORE POP JUMP JUMPDEST PUSH1 0x0 PUSH2 0x1A39 PUSH1 0x23 DUP4 PUSH2 0x1527 JUMP JUMPDEST SWAP2 POP PUSH2 0x1A44 DUP3 PUSH2 0x19DD JUMP JUMPDEST PUSH1 0x40 DUP3 ADD SWAP1 POP SWAP2 SWAP1 POP JUMP JUMPDEST PUSH1 0x0 PUSH1 0x20 DUP3 ADD SWAP1 POP DUP2 DUP2 SUB PUSH1 0x0 DUP4 ADD MSTORE PUSH2 0x1A68 DUP2 PUSH2 0x1A2C JUMP JUMPDEST SWAP1 POP SWAP2 SWAP1 POP JUMP JUMPDEST PUSH32 0x496E76616C6964206170706C6963616E74206164647265737300000000000000 PUSH1 0x0 DUP3 ADD MSTORE POP JUMP JUMPDEST PUSH1 0x0 PUSH2 0x1AA5 PUSH1 0x19 DUP4 PUSH2 0x1527 JUMP JUMPDEST SWAP2 POP PUSH2 0x1AB0 DUP3 PUSH2 0x1A6F JUMP JUMPDEST PUSH1 0x20 DUP3 ADD SWAP1 POP SWAP2 SWAP1 POP JUMP JUMPDEST PUSH1 0x0 PUSH1 0x20 DUP3 ADD SWAP1 POP DUP2 DUP2 SUB PUSH1 0x0 DUP4 ADD MSTORE PUSH2 0x1AD4 DUP2 PUSH2 0x1A98 JUMP JUMPDEST SWAP1 POP SWAP2 SWAP1 POP JUMP JUMPDEST PUSH1 0x0 DUP2 SWAP1 POP SWAP2 SWAP1 POP JUMP JUMPDEST PUSH32 0x4E487B7100000000000000000000000000000000000000000000000000000000 PUSH1 0x0 MSTORE PUSH1 0x11 PUSH1 0x4 MSTORE PUSH1 0x24 PUSH1 0x0 REVERT JUMPDEST PUSH1 0x0 PUSH2 0x1B1F DUP3 PUSH2 0x1ADB JUMP JUMPDEST SWAP2 POP PUSH2 0x1B2A DUP4 PUSH2 0x1ADB JUMP JUMPDEST SWAP3 POP DUP3 DUP3 SUB SWAP1 POP DUP2 DUP2 SLT PUSH1 0x0 DUP5 SLT AND DUP3 DUP3 SGT PUSH1 0x0 DUP6 SLT ISZERO AND OR ISZERO PUSH2 0x1B51 JUMPI PUSH2 0x1B50 PUSH2 0x1AE5 JUMP JUMPDEST JUMPDEST SWAP3 SWAP2 POP POP JUMP JUMPDEST PUSH32 0x4E6F742061206170706C6963616E740000000000000000000000000000000000 PUSH1 0x0 DUP3 ADD MSTORE POP JUMP JUMPDEST PUSH1 0x0 PUSH2 0x1B8D PUSH1 0xF DUP4 PUSH2 0x1527 JUMP JUMPDEST SWAP2 POP PUSH2 0x1B98 DUP3 PUSH2 0x1B57 JUMP JUMPDEST PUSH1 0x20 DUP3 ADD SWAP1 POP SWAP2 SWAP1 POP JUMP JUMPDEST PUSH1 0x0 PUSH1 0x20 DUP3 ADD SWAP1 POP DUP2 DUP2 SUB PUSH1 0x0 DUP4 ADD MSTORE PUSH2 0x1BBC DUP2 PUSH2 0x1B80 JUMP JUMPDEST SWAP1 POP SWAP2 SWAP1 POP JUMP JUMPDEST PUSH32 0x4E487B7100000000000000000000000000000000000000000000000000000000 PUSH1 0x0 MSTORE PUSH1 0x32 PUSH1 0x4 MSTORE PUSH1 0x24 PUSH1 0x0 REVERT JUMPDEST PUSH1 0x0 PUSH2 0x1BFD DUP3 PUSH2 0x16AE JUMP JUMPDEST SWAP2 POP PUSH32 0xFFFFFFFFFFFFFFFFFFFFFFFFFFFFFFFFFFFFFFFFFFFFFFFFFFFFFFFFFFFFFFFF DUP3 SUB PUSH2 0x1C2F JUMPI PUSH2 0x1C2E PUSH2 0x1AE5 JUMP JUMPDEST JUMPDEST PUSH1 0x1 DUP3 ADD SWAP1 POP SWAP2 SWAP1 POP JUMP JUMPDEST PUSH32 0x53656E64657220616C726561647920766F746564000000000000000000000000 PUSH1 0x0 DUP3 ADD MSTORE POP JUMP JUMPDEST PUSH1 0x0 PUSH2 0x1C70 PUSH1 0x14 DUP4 PUSH2 0x1527 JUMP JUMPDEST SWAP2 POP PUSH2 0x1C7B DUP3 PUSH2 0x1C3A JUMP JUMPDEST PUSH1 0x20 DUP3 ADD SWAP1 POP SWAP2 SWAP1 POP JUMP JUMPDEST PUSH1 0x0 PUSH1 0x20 DUP3 ADD SWAP1 POP DUP2 DUP2 SUB PUSH1 0x0 DUP4 ADD MSTORE PUSH2 0x1C9F DUP2 PUSH2 0x1C63 JUMP JUMPDEST SWAP1 POP SWAP2 SWAP1 POP JUMP JUMPDEST PUSH1 0x0 PUSH2 0x1CB1 DUP3 PUSH2 0x1ADB JUMP JUMPDEST SWAP2 POP PUSH2 0x1CBC DUP4 PUSH2 0x1ADB JUMP JUMPDEST SWAP3 POP DUP3 DUP3 ADD SWAP1 POP DUP3 DUP2 SLT ISZERO PUSH1 0x0 DUP4 SLT AND DUP4 DUP3 SLT PUSH1 0x0 DUP5 SLT ISZERO AND OR ISZERO PUSH2 0x1CE4 JUMPI PUSH2 0x1CE3 PUSH2 0x1AE5 JUMP JUMPDEST JUMPDEST SWAP3 SWAP2 POP POP JUMP JUMPDEST PUSH32 0x416C726561647920616374697665206D656D6265720000000000000000000000 PUSH1 0x0 DUP3 ADD MSTORE POP JUMP JUMPDEST PUSH1 0x0 PUSH2 0x1D20 PUSH1 0x15 DUP4 PUSH2 0x1527 JUMP JUMPDEST SWAP2 POP PUSH2 0x1D2B DUP3 PUSH2 0x1CEA JUMP JUMPDEST PUSH1 0x20 DUP3 ADD SWAP1 POP SWAP2 SWAP1 POP JUMP JUMPDEST PUSH1 0x0 PUSH1 0x20 DUP3 ADD SWAP1 POP DUP2 DUP2 SUB PUSH1 0x0 DUP4 ADD MSTORE PUSH2 0x1D4F DUP2 PUSH2 0x1D13 JUMP JUMPDEST SWAP1 POP SWAP2 SWAP1 POP JUMP JUMPDEST PUSH32 0x416C726561647920616374697665206170706C6963616E740000000000000000 PUSH1 0x0 DUP3 ADD MSTORE POP JUMP JUMPDEST PUSH1 0x0 PUSH2 0x1D8C PUSH1 0x18 DUP4 PUSH2 0x1527 JUMP JUMPDEST SWAP2 POP PUSH2 0x1D97 DUP3 PUSH2 0x1D56 JUMP JUMPDEST PUSH1 0x20 DUP3 ADD SWAP1 POP SWAP2 SWAP1 POP JUMP JUMPDEST PUSH1 0x0 PUSH1 0x20 DUP3 ADD SWAP1 POP DUP2 DUP2 SUB PUSH1 0x0 DUP4 ADD MSTORE PUSH2 0x1DBB DUP2 PUSH2 0x1D7F JUMP JUMPDEST SWAP1 POP SWAP2 SWAP1 POP JUMP JUMPDEST PUSH32 0x6163636F756E742072656A656374656400000000000000000000000000000000 PUSH1 0x0 DUP3 ADD MSTORE POP JUMP JUMPDEST PUSH1 0x0 PUSH2 0x1DF8 PUSH1 0x10 DUP4 PUSH2 0x1527 JUMP JUMPDEST SWAP2 POP PUSH2 0x1E03 DUP3 PUSH2 0x1DC2 JUMP JUMPDEST PUSH1 0x20 DUP3 ADD SWAP1 POP SWAP2 SWAP1 POP JUMP JUMPDEST PUSH1 0x0 PUSH1 0x20 DUP3 ADD SWAP1 POP DUP2 DUP2 SUB PUSH1 0x0 DUP4 ADD MSTORE PUSH2 0x1E27 DUP2 PUSH2 0x1DEB JUMP JUMPDEST SWAP1 POP SWAP2 SWAP1 POP JUMP JUMPDEST PUSH1 0x0 PUSH2 0x1E39 DUP3 PUSH2 0x16AE JUMP JUMPDEST SWAP2 POP PUSH2 0x1E44 DUP4 PUSH2 0x16AE JUMP JUMPDEST SWAP3 POP DUP3 DUP3 ADD SWAP1 POP DUP1 DUP3 GT ISZERO PUSH2 0x1E5C JUMPI PUSH2 0x1E5B PUSH2 0x1AE5 JUMP JUMPDEST JUMPDEST SWAP3 SWAP2 POP POP JUMP JUMPDEST PUSH1 0x0 DUP3 SWAP1 POP SWAP3 SWAP2 POP POP JUMP JUMPDEST PUSH32 0x4E487B7100000000000000000000000000000000000000000000000000000000 PUSH1 0x0 MSTORE PUSH1 0x41 PUSH1 0x4 MSTORE PUSH1 0x24 PUSH1 0x0 REVERT JUMPDEST PUSH1 0x0 DUP2 SWAP1 POP DUP2 PUSH1 0x0 MSTORE PUSH1 0x20 PUSH1 0x0 KECCAK256 SWAP1 POP SWAP2 SWAP1 POP JUMP JUMPDEST PUSH1 0x0 PUSH1 0x20 PUSH1 0x1F DUP4 ADD DIV SWAP1 POP SWAP2 SWAP1 POP JUMP JUMPDEST PUSH1 0x0 DUP3 DUP3 SHL SWAP1 POP SWAP3 SWAP2 POP POP JUMP JUMPDEST PUSH1 0x0 PUSH1 0x8 DUP4 MUL PUSH2 0x1EFE PUSH32 0xFFFFFFFFFFFFFFFFFFFFFFFFFFFFFFFFFFFFFFFFFFFFFFFFFFFFFFFFFFFFFFFF DUP3 PUSH2 0x1EC1 JUMP JUMPDEST PUSH2 0x1F08 DUP7 DUP4 PUSH2 0x1EC1 JUMP JUMPDEST SWAP6 POP DUP1 NOT DUP5 AND SWAP4 POP DUP1 DUP7 AND DUP5 OR SWAP3 POP POP POP SWAP4 SWAP3 POP POP POP JUMP JUMPDEST PUSH1 0x0 DUP2 SWAP1 POP SWAP2 SWAP1 POP JUMP JUMPDEST PUSH1 0x0 PUSH2 0x1F45 PUSH2 0x1F40 PUSH2 0x1F3B DUP5 PUSH2 0x16AE JUMP JUMPDEST PUSH2 0x1F20 JUMP JUMPDEST PUSH2 0x16AE JUMP JUMPDEST SWAP1 POP SWAP2 SWAP1 POP JUMP JUMPDEST PUSH1 0x0 DUP2 SWAP1 POP SWAP2 SWAP1 POP JUMP JUMPDEST PUSH2 0x1F5F DUP4 PUSH2 0x1F2A JUMP JUMPDEST PUSH2 0x1F73 PUSH2 0x1F6B DUP3 PUSH2 0x1F4C JUMP JUMPDEST DUP5 DUP5 SLOAD PUSH2 0x1ECE JUMP JUMPDEST DUP3 SSTORE POP POP POP POP JUMP JUMPDEST PUSH1 0x0 SWAP1 JUMP JUMPDEST PUSH2 0x1F88 PUSH2 0x1F7B JUMP JUMPDEST PUSH2 0x1F93 DUP2 DUP5 DUP5 PUSH2 0x1F56 JUMP JUMPDEST POP POP POP JUMP JUMPDEST JUMPDEST DUP2 DUP2 LT ISZERO PUSH2 0x1FB7 JUMPI PUSH2 0x1FAC PUSH1 0x0 DUP3 PUSH2 0x1F80 JUMP JUMPDEST PUSH1 0x1 DUP2 ADD SWAP1 POP PUSH2 0x1F99 JUMP JUMPDEST POP POP JUMP JUMPDEST PUSH1 0x1F DUP3 GT ISZERO PUSH2 0x1FFC JUMPI PUSH2 0x1FCD DUP2 PUSH2 0x1E9C JUMP JUMPDEST PUSH2 0x1FD6 DUP5 PUSH2 0x1EB1 JUMP JUMPDEST DUP2 ADD PUSH1 0x20 DUP6 LT ISZERO PUSH2 0x1FE5 JUMPI DUP2 SWAP1 POP JUMPDEST PUSH2 0x1FF9 PUSH2 0x1FF1 DUP6 PUSH2 0x1EB1 JUMP JUMPDEST DUP4 ADD DUP3 PUSH2 0x1F98 JUMP JUMPDEST POP POP JUMPDEST POP POP POP JUMP JUMPDEST PUSH1 0x0 DUP3 DUP3 SHR SWAP1 POP SWAP3 SWAP2 POP POP JUMP JUMPDEST PUSH1 0x0 PUSH2 0x201F PUSH1 0x0 NOT DUP5 PUSH1 0x8 MUL PUSH2 0x2001 JUMP JUMPDEST NOT DUP1 DUP4 AND SWAP2 POP POP SWAP3 SWAP2 POP POP JUMP JUMPDEST PUSH1 0x0 PUSH2 0x2038 DUP4 DUP4 PUSH2 0x200E JUMP JUMPDEST SWAP2 POP DUP3 PUSH1 0x2 MUL DUP3 OR SWAP1 POP SWAP3 SWAP2 POP POP JUMP JUMPDEST PUSH2 0x2052 DUP4 DUP4 PUSH2 0x1E62 JUMP JUMPDEST PUSH8 0xFFFFFFFFFFFFFFFF DUP2 GT ISZERO PUSH2 0x206B JUMPI PUSH2 0x206A PUSH2 0x1E6D JUMP JUMPDEST JUMPDEST PUSH2 0x2075 DUP3 SLOAD PUSH2 0x1940 JUMP JUMPDEST PUSH2 0x2080 DUP3 DUP3 DUP6 PUSH2 0x1FBB JUMP JUMPDEST PUSH1 0x0 PUSH1 0x1F DUP4 GT PUSH1 0x1 DUP2 EQ PUSH2 0x20AF JUMPI PUSH1 0x0 DUP5 ISZERO PUSH2 0x209D JUMPI DUP3 DUP8 ADD CALLDATALOAD SWAP1 POP JUMPDEST PUSH2 0x20A7 DUP6 DUP3 PUSH2 0x202C JUMP JUMPDEST DUP7 SSTORE POP PUSH2 0x210F JUMP JUMPDEST PUSH1 0x1F NOT DUP5 AND PUSH2 0x20BD DUP7 PUSH2 0x1E9C JUMP JUMPDEST PUSH1 0x0 JUMPDEST DUP3 DUP2 LT ISZERO PUSH2 0x20E5 JUMPI DUP5 DUP10 ADD CALLDATALOAD DUP3 SSTORE PUSH1 0x1 DUP3 ADD SWAP2 POP PUSH1 0x20 DUP6 ADD SWAP5 POP PUSH1 0x20 DUP2 ADD SWAP1 POP PUSH2 0x20C0 JUMP JUMPDEST DUP7 DUP4 LT ISZERO PUSH2 0x2102 JUMPI DUP5 DUP10 ADD CALLDATALOAD PUSH2 0x20FE PUSH1 0x1F DUP10 AND DUP3 PUSH2 0x200E JUMP JUMPDEST DUP4 SSTORE POP JUMPDEST PUSH1 0x1 PUSH1 0x2 DUP9 MUL ADD DUP9 SSTORE POP POP POP JUMPDEST POP POP POP POP POP POP POP JUMP JUMPDEST PUSH1 0x0 PUSH2 0x2123 DUP3 PUSH2 0x16AE JUMP JUMPDEST SWAP2 POP PUSH2 0x212E DUP4 PUSH2 0x16AE JUMP JUMPDEST SWAP3 POP DUP3 DUP3 SUB SWAP1 POP DUP2 DUP2 GT ISZERO PUSH2 0x2146 JUMPI PUSH2 0x2145 PUSH2 0x1AE5 JUMP JUMPDEST JUMPDEST SWAP3 SWAP2 POP POP JUMP JUMPDEST PUSH32 0x4E487B7100000000000000000000000000000000000000000000000000000000 PUSH1 0x0 MSTORE PUSH1 0x31 PUSH1 0x4 MSTORE PUSH1 0x24 PUSH1 0x0 REVERT INVALID LOG2 PUSH5 0x6970667358 0x22 SLT KECCAK256 DELEGATECALL 0xBF 0xD 0x28 0xC0 CREATE2 0xE9 DIV SAR POP PUSH15 0x8D7F2AFB55816294BC34846F488114 0x4C SGT 0xF6 MSTORE PUSH8 0x264736F6C634300 ADDMOD GT STOP CALLER "},"gasEstimates":{"creation":{"codeDepositCost":"1725000","executionCost":"infinite","totalCost":"infinite"},"external":{"applicantFeeAmount()":"2451","applicantList(uint256)":"5067","approveApplicant(address)":"infinite","balance()":"2495","createApplicant(string)":"infinite","getApplicantVoteCount(address)":"2937","getApplicantVoteEndDate(address)":"2885","getApplicantWords(address)":"infinite","getApplicants()":"infinite","memberPoolAddress()":"2514","rejectApplicant(address)":"infinite","voteForApplicant(address)":"infinite"},"internal":{"_burnApplicant(address)":"infinite"}},"methodIdentifiers":{"applicantFeeAmount()":"a10c8a97","applicantList(uint256)":"8c468cd4","approveApplicant(address)":"1292a282","balance()":"b69ef8a8","createApplicant(string)":"fd591902","getApplicantVoteCount(address)":"d9a87535","getApplicantVoteEndDate(address)":"b672bdcb","getApplicantWords(address)":"00ad808f","getApplicants()":"455772d2","memberPoolAddress()":"930235b4","rejectApplicant(address)":"273f868e","voteForApplicant(address)":"28f4694c"}},"storageLayout":{"storage":[{"astId":17,"contract":"ApplicantPool.sol:ApplicantPool","label":"applicantList","offset":0,"slot":"0","type":"t_array(t_address)dyn_storage"},{"astId":22,"contract":"ApplicantPool.sol:ApplicantPool","label":"applicantVotes","offset":0,"slot":"1","type":"t_mapping(t_address,t_array(t_address)dyn_storage)"},{"astId":26,"contract":"ApplicantPool.sol:ApplicantPool","label":"applicantPoints","offset":0,"slot":"2","type":"t_mapping(t_address,t_int256)"},{"astId":30,"contract":"ApplicantPool.sol:ApplicantPool","label":"activeApplicants","offset":0,"slot":"3","type":"t_mapping(t_address,t_bool)"},{"astId":34,"contract":"ApplicantPool.sol:ApplicantPool","label":"applicantWords","offset":0,"slot":"4","type":"t_mapping(t_address,t_string_storage)"},{"astId":38,"contract":"ApplicantPool.sol:ApplicantPool","label":"voteEndTime","offset":0,"slot":"5","type":"t_mapping(t_address,t_uint256)"},{"astId":41,"contract":"ApplicantPool.sol:ApplicantPool","label":"map","offset":0,"slot":"6","type":"t_contract(MemberMap)736"},{"astId":43,"contract":"ApplicantPool.sol:ApplicantPool","label":"memberPoolAddress","offset":0,"slot":"7","type":"t_address"},{"astId":45,"contract":"ApplicantPool.sol:ApplicantPool","label":"balance","offset":0,"slot":"8","type":"t_uint256"},{"astId":48,"contract":"ApplicantPool.sol:ApplicantPool","label":"applicantFeeAmount","offset":0,"slot":"9","type":"t_uint256"}],"types":{"t_address":{"encoding":"inplace","label":"address","numberOfBytes":"20"},"t_array(t_address)dyn_storage":{"base":"t_address","encoding":"dynamic_array","label":"address[]","numberOfBytes":"32"},"t_bool":{"encoding":"inplace","label":"bool","numberOfBytes":"1"},"t_contract(MemberMap)736":{"encoding":"inplace","label":"contract MemberMap","numberOfBytes":"20"},"t_int256":{"encoding":"inplace","label":"int256","numberOfBytes":"32"},"t_mapping(t_address,t_array(t_address)dyn_storage)":{"encoding":"mapping","key":"t_address","label":"mapping(address => address[])","numberOfBytes":"32","value":"t_array(t_address)dyn_storage"},"t_mapping(t_address,t_bool)":{"encoding":"mapping","key":"t_address","label":"mapping(address => bool)","numberOfBytes":"32","value":"t_bool"},"t_mapping(t_address,t_int256)":{"encoding":"mapping","key":"t_address","label":"mapping(address => int256)","numberOfBytes":"32","value":"t_int256"},"t_mapping(t_address,t_string_storage)":{"encoding":"mapping","key":"t_address","label":"mapping(address => string)","numberOfBytes":"32","value":"t_string_storage"},"t_mapping(t_address,t_uint256)":{"encoding":"mapping","key":"t_address","label":"mapping(address => uint256)","numberOfBytes":"32","value":"t_uint256"},"t_string_storage":{"encoding":"bytes","label":"string","numberOfBytes":"32"},"t_uint256":{"encoding":"inplace","label":"uint256","numberOfBytes":"32"}}},"userdoc":{"kind":"user","methods":{},"version":1}}