{"abi":[{"inputs":[{"internalType":"address","name":"memberMap","type":"address"},{"internalType":"address","name":"_parentFactory","type":"address"},{"internalType":"address","name":"_treasuryAddress","type":"address"}],"stateMutability":"nonpayable","type":"constructor"},{"anonymous":false,"inputs":[{"indexed":false,"internalType":"address","name":"sender","type":"address"}],"name":"ApplicantCreated","type":"event"},{"anonymous":false,"inputs":[],"name":"ApplicantVote","type":"event"},{"anonymous":false,"inputs":[{"indexed":false,"internalType":"address","name":"applicant","type":"address"}],"name":"ApplicantVoteEnd","type":"event"},{"anonymous":false,"inputs":[],"name":"CreateApplicant","type":"event"},{"inputs":[{"internalType":"uint256","name":"","type":"uint256"}],"name":"applicantList","outputs":[{"internalType":"address","name":"","type":"address"}],"stateMutability":"view","type":"function"},{"inputs":[{"internalType":"address","name":"applicant","type":"address"}],"name":"approveApplicant","outputs":[],"stateMutability":"nonpayable","type":"function"},{"inputs":[{"internalType":"string","name":"reason","type":"string"}],"name":"createApplicant","outputs":[],"stateMutability":"payable","type":"function"},{"inputs":[{"internalType":"address","name":"applicant","type":"address"}],"name":"getApplicantVoteCount","outputs":[{"internalType":"uint256","name":"","type":"uint256"}],"stateMutability":"view","type":"function"},{"inputs":[{"internalType":"address","name":"applicant","type":"address"}],"name":"getApplicantVoteEndDate","outputs":[{"internalType":"uint256","name":"","type":"uint256"}],"stateMutability":"view","type":"function"},{"inputs":[{"internalType":"address","name":"applicant","type":"address"}],"name":"getApplicantWords","outputs":[{"internalType":"string","name":"","type":"string"}],"stateMutability":"view","type":"function"},{"inputs":[],"name":"getApplicants","outputs":[{"internalType":"address[]","name":"","type":"address[]"}],"stateMutability":"view","type":"function"},{"inputs":[{"internalType":"address","name":"applicant","type":"address"}],"name":"rejectApplicant","outputs":[],"stateMutability":"nonpayable","type":"function"},{"inputs":[{"internalType":"address","name":"_memberPoolAddress","type":"address"}],"name":"setMemberPoolAddress","outputs":[],"stateMutability":"nonpayable","type":"function"},{"inputs":[{"internalType":"address","name":"applicant","type":"address"}],"name":"voteForApplicant","outputs":[],"stateMutability":"nonpayable","type":"function"}],"devdoc":{"kind":"dev","methods":{},"version":1},"evm":{"assembly":"    /* \"ApplicantPool.sol\":117:4384  contract ApplicantPool {... */\n  mstore(0x40, 0xc0)\n    /* \"ApplicantPool.sol\":719:965  constructor(... */\n  callvalue\n  dup1\n  iszero\n  tag_1\n  jumpi\n  0x00\n  dup1\n  revert\ntag_1:\n  pop\n  mload(0x40)\n  sub(codesize, bytecodeSize)\n  dup1\n  bytecodeSize\n  dup4\n  codecopy\n  dup2\n  dup2\n  add\n  0x40\n  mstore\n  dup2\n  add\n  swap1\n  tag_2\n  swap2\n  swap1\n  tag_3\n  jump\t// in\ntag_2:\n    /* \"ApplicantPool.sol\":861:870  memberMap */\n  dup3\n    /* \"ApplicantPool.sol\":845:848  map */\n  0x06\n  0x00\n    /* \"ApplicantPool.sol\":845:871  map = MemberMap(memberMap) */\n  0x0100\n  exp\n  dup2\n  sload\n  dup2\n  0xffffffffffffffffffffffffffffffffffffffff\n  mul\n  not\n  and\n  swap1\n  dup4\n  0xffffffffffffffffffffffffffffffffffffffff\n  and\n  mul\n  or\n  swap1\n  sstore\n  pop\n    /* \"ApplicantPool.sol\":898:912  _parentFactory */\n  dup2\n    /* \"ApplicantPool.sol\":882:912  parentFactory = _parentFactory */\n  0xffffffffffffffffffffffffffffffffffffffff\n  and\n  0x80\n  dup2\n  0xffffffffffffffffffffffffffffffffffffffff\n  and\n  dup2\n  mstore\n  pop\n  pop\n    /* \"ApplicantPool.sol\":941:957  _treasuryAddress */\n  dup1\n    /* \"ApplicantPool.sol\":923:957  treasuryAddress = _treasuryAddress */\n  0xffffffffffffffffffffffffffffffffffffffff\n  and\n  0xa0\n  dup2\n  0xffffffffffffffffffffffffffffffffffffffff\n  and\n  dup2\n  mstore\n  pop\n  pop\n    /* \"ApplicantPool.sol\":719:965  constructor(... */\n  pop\n  pop\n  pop\n    /* \"ApplicantPool.sol\":117:4384  contract ApplicantPool {... */\n  jump(tag_6)\n    /* \"#utility.yul\":88:205   */\ntag_8:\n    /* \"#utility.yul\":197:198   */\n  0x00\n    /* \"#utility.yul\":194:195   */\n  dup1\n    /* \"#utility.yul\":187:199   */\n  revert\n    /* \"#utility.yul\":334:460   */\ntag_10:\n    /* \"#utility.yul\":371:378   */\n  0x00\n    /* \"#utility.yul\":411:453   */\n  0xffffffffffffffffffffffffffffffffffffffff\n    /* \"#utility.yul\":404:409   */\n  dup3\n    /* \"#utility.yul\":400:454   */\n  and\n    /* \"#utility.yul\":389:454   */\n  swap1\n  pop\n    /* \"#utility.yul\":334:460   */\n  swap2\n  swap1\n  pop\n  jump\t// out\n    /* \"#utility.yul\":466:562   */\ntag_11:\n    /* \"#utility.yul\":503:510   */\n  0x00\n    /* \"#utility.yul\":532:556   */\n  tag_20\n    /* \"#utility.yul\":550:555   */\n  dup3\n    /* \"#utility.yul\":532:556   */\n  tag_10\n  jump\t// in\ntag_20:\n    /* \"#utility.yul\":521:556   */\n  swap1\n  pop\n    /* \"#utility.yul\":466:562   */\n  swap2\n  swap1\n  pop\n  jump\t// out\n    /* \"#utility.yul\":568:690   */\ntag_12:\n    /* \"#utility.yul\":641:665   */\n  tag_22\n    /* \"#utility.yul\":659:664   */\n  dup2\n    /* \"#utility.yul\":641:665   */\n  tag_11\n  jump\t// in\ntag_22:\n    /* \"#utility.yul\":634:639   */\n  dup2\n    /* \"#utility.yul\":631:666   */\n  eq\n    /* \"#utility.yul\":621:684   */\n  tag_23\n  jumpi\n    /* \"#utility.yul\":680:681   */\n  0x00\n    /* \"#utility.yul\":677:678   */\n  dup1\n    /* \"#utility.yul\":670:682   */\n  revert\n    /* \"#utility.yul\":621:684   */\ntag_23:\n    /* \"#utility.yul\":568:690   */\n  pop\n  jump\t// out\n    /* \"#utility.yul\":696:839   */\ntag_13:\n    /* \"#utility.yul\":753:758   */\n  0x00\n    /* \"#utility.yul\":784:790   */\n  dup2\n    /* \"#utility.yul\":778:791   */\n  mload\n    /* \"#utility.yul\":769:791   */\n  swap1\n  pop\n    /* \"#utility.yul\":800:833   */\n  tag_25\n    /* \"#utility.yul\":827:832   */\n  dup2\n    /* \"#utility.yul\":800:833   */\n  tag_12\n  jump\t// in\ntag_25:\n    /* \"#utility.yul\":696:839   */\n  swap3\n  swap2\n  pop\n  pop\n  jump\t// out\n    /* \"#utility.yul\":845:1508   */\ntag_3:\n    /* \"#utility.yul\":933:939   */\n  0x00\n    /* \"#utility.yul\":941:947   */\n  dup1\n    /* \"#utility.yul\":949:955   */\n  0x00\n    /* \"#utility.yul\":998:1000   */\n  0x60\n    /* \"#utility.yul\":986:995   */\n  dup5\n    /* \"#utility.yul\":977:984   */\n  dup7\n    /* \"#utility.yul\":973:996   */\n  sub\n    /* \"#utility.yul\":969:1001   */\n  slt\n    /* \"#utility.yul\":966:1085   */\n  iszero\n  tag_27\n  jumpi\n    /* \"#utility.yul\":1004:1083   */\n  tag_28\n  tag_8\n  jump\t// in\ntag_28:\n    /* \"#utility.yul\":966:1085   */\ntag_27:\n    /* \"#utility.yul\":1124:1125   */\n  0x00\n    /* \"#utility.yul\":1149:1213   */\n  tag_29\n    /* \"#utility.yul\":1205:1212   */\n  dup7\n    /* \"#utility.yul\":1196:1202   */\n  dup3\n    /* \"#utility.yul\":1185:1194   */\n  dup8\n    /* \"#utility.yul\":1181:1203   */\n  add\n    /* \"#utility.yul\":1149:1213   */\n  tag_13\n  jump\t// in\ntag_29:\n    /* \"#utility.yul\":1139:1213   */\n  swap4\n  pop\n    /* \"#utility.yul\":1095:1223   */\n  pop\n    /* \"#utility.yul\":1262:1264   */\n  0x20\n    /* \"#utility.yul\":1288:1352   */\n  tag_30\n    /* \"#utility.yul\":1344:1351   */\n  dup7\n    /* \"#utility.yul\":1335:1341   */\n  dup3\n    /* \"#utility.yul\":1324:1333   */\n  dup8\n    /* \"#utility.yul\":1320:1342   */\n  add\n    /* \"#utility.yul\":1288:1352   */\n  tag_13\n  jump\t// in\ntag_30:\n    /* \"#utility.yul\":1278:1352   */\n  swap3\n  pop\n    /* \"#utility.yul\":1233:1362   */\n  pop\n    /* \"#utility.yul\":1401:1403   */\n  0x40\n    /* \"#utility.yul\":1427:1491   */\n  tag_31\n    /* \"#utility.yul\":1483:1490   */\n  dup7\n    /* \"#utility.yul\":1474:1480   */\n  dup3\n    /* \"#utility.yul\":1463:1472   */\n  dup8\n    /* \"#utility.yul\":1459:1481   */\n  add\n    /* \"#utility.yul\":1427:1491   */\n  tag_13\n  jump\t// in\ntag_31:\n    /* \"#utility.yul\":1417:1491   */\n  swap2\n  pop\n    /* \"#utility.yul\":1372:1501   */\n  pop\n    /* \"#utility.yul\":845:1508   */\n  swap3\n  pop\n  swap3\n  pop\n  swap3\n  jump\t// out\n    /* \"ApplicantPool.sol\":117:4384  contract ApplicantPool {... */\ntag_6:\n  mload(0x80)\n  mload(0xa0)\n  codecopy(0x00, dataOffset(sub_0), dataSize(sub_0))\n  0x00\n  assignImmutable(\"0xc47ece0ffae697632ce145a7086cbcf260f7fa60876ff2606761ea2b7581ee76\")\n  0x00\n  assignImmutable(\"0x2e9b7c94e032d8b3b8b30bd825717a5ac74958b53e7c37a892a4fd7dc56e4975\")\n  return(0x00, dataSize(sub_0))\nstop\n\nsub_0: assembly {\n        /* \"ApplicantPool.sol\":117:4384  contract ApplicantPool {... */\n      mstore(0x40, 0x80)\n      jumpi(tag_1, lt(calldatasize, 0x04))\n      shr(0xe0, calldataload(0x00))\n      dup1\n      0x8c468cd4\n      gt\n      tag_12\n      jumpi\n      dup1\n      0x8c468cd4\n      eq\n      tag_7\n      jumpi\n      dup1\n      0xb672bdcb\n      eq\n      tag_8\n      jumpi\n      dup1\n      0xd9a87535\n      eq\n      tag_9\n      jumpi\n      dup1\n      0xf6ec9738\n      eq\n      tag_10\n      jumpi\n      dup1\n      0xfd591902\n      eq\n      tag_11\n      jumpi\n      jump(tag_1)\n    tag_12:\n      dup1\n      0xad808f\n      eq\n      tag_2\n      jumpi\n      dup1\n      0x1292a282\n      eq\n      tag_3\n      jumpi\n      dup1\n      0x273f868e\n      eq\n      tag_4\n      jumpi\n      dup1\n      0x28f4694c\n      eq\n      tag_5\n      jumpi\n      dup1\n      0x455772d2\n      eq\n      tag_6\n      jumpi\n    tag_1:\n      0x00\n      dup1\n      revert\n        /* \"ApplicantPool.sol\":2840:3037  function getApplicantWords(address applicant)... */\n    tag_2:\n      callvalue\n      dup1\n      iszero\n      tag_13\n      jumpi\n      0x00\n      dup1\n      revert\n    tag_13:\n      pop\n      tag_14\n      0x04\n      dup1\n      calldatasize\n      sub\n      dup2\n      add\n      swap1\n      tag_15\n      swap2\n      swap1\n      tag_16\n      jump\t// in\n    tag_15:\n      tag_17\n      jump\t// in\n    tag_14:\n      mload(0x40)\n      tag_18\n      swap2\n      swap1\n      tag_19\n      jump\t// in\n    tag_18:\n      mload(0x40)\n      dup1\n      swap2\n      sub\n      swap1\n      return\n        /* \"ApplicantPool.sol\":3225:3520  function approveApplicant(address applicant)... */\n    tag_3:\n      callvalue\n      dup1\n      iszero\n      tag_20\n      jumpi\n      0x00\n      dup1\n      revert\n    tag_20:\n      pop\n      tag_21\n      0x04\n      dup1\n      calldatasize\n      sub\n      dup2\n      add\n      swap1\n      tag_22\n      swap2\n      swap1\n      tag_16\n      jump\t// in\n    tag_22:\n      tag_23\n      jump\t// in\n    tag_21:\n      stop\n        /* \"ApplicantPool.sol\":3528:3882  function rejectApplicant(address applicant)... */\n    tag_4:\n      callvalue\n      dup1\n      iszero\n      tag_24\n      jumpi\n      0x00\n      dup1\n      revert\n    tag_24:\n      pop\n      tag_25\n      0x04\n      dup1\n      calldatasize\n      sub\n      dup2\n      add\n      swap1\n      tag_26\n      swap2\n      swap1\n      tag_16\n      jump\t// in\n    tag_26:\n      tag_27\n      jump\t// in\n    tag_25:\n      stop\n        /* \"ApplicantPool.sol\":2139:2662  function voteForApplicant(address applicant) public memberOnly(msg.sender) {... */\n    tag_5:\n      callvalue\n      dup1\n      iszero\n      tag_28\n      jumpi\n      0x00\n      dup1\n      revert\n    tag_28:\n      pop\n      tag_29\n      0x04\n      dup1\n      calldatasize\n      sub\n      dup2\n      add\n      swap1\n      tag_30\n      swap2\n      swap1\n      tag_16\n      jump\t// in\n    tag_30:\n      tag_31\n      jump\t// in\n    tag_29:\n      stop\n        /* \"ApplicantPool.sol\":1293:1460  function getApplicants()... */\n    tag_6:\n      callvalue\n      dup1\n      iszero\n      tag_32\n      jumpi\n      0x00\n      dup1\n      revert\n    tag_32:\n      pop\n      tag_33\n      tag_34\n      jump\t// in\n    tag_33:\n      mload(0x40)\n      tag_35\n      swap2\n      swap1\n      tag_36\n      jump\t// in\n    tag_35:\n      mload(0x40)\n      dup1\n      swap2\n      sub\n      swap1\n      return\n        /* \"ApplicantPool.sol\":300:330  address[] public applicantList */\n    tag_7:\n      callvalue\n      dup1\n      iszero\n      tag_37\n      jumpi\n      0x00\n      dup1\n      revert\n    tag_37:\n      pop\n      tag_38\n      0x04\n      dup1\n      calldatasize\n      sub\n      dup2\n      add\n      swap1\n      tag_39\n      swap2\n      swap1\n      tag_40\n      jump\t// in\n    tag_39:\n      tag_41\n      jump\t// in\n    tag_38:\n      mload(0x40)\n      tag_42\n      swap2\n      swap1\n      tag_43\n      jump\t// in\n    tag_42:\n      mload(0x40)\n      dup1\n      swap2\n      sub\n      swap1\n      return\n        /* \"ApplicantPool.sol\":2670:2832  function getApplicantVoteEndDate(address applicant)... */\n    tag_8:\n      callvalue\n      dup1\n      iszero\n      tag_44\n      jumpi\n      0x00\n      dup1\n      revert\n    tag_44:\n      pop\n      tag_45\n      0x04\n      dup1\n      calldatasize\n      sub\n      dup2\n      add\n      swap1\n      tag_46\n      swap2\n      swap1\n      tag_16\n      jump\t// in\n    tag_46:\n      tag_47\n      jump\t// in\n    tag_45:\n      mload(0x40)\n      tag_48\n      swap2\n      swap1\n      tag_49\n      jump\t// in\n    tag_48:\n      mload(0x40)\n      dup1\n      swap2\n      sub\n      swap1\n      return\n        /* \"ApplicantPool.sol\":3045:3217  function getApplicantVoteCount(address applicant)... */\n    tag_9:\n      callvalue\n      dup1\n      iszero\n      tag_50\n      jumpi\n      0x00\n      dup1\n      revert\n    tag_50:\n      pop\n      tag_51\n      0x04\n      dup1\n      calldatasize\n      sub\n      dup2\n      add\n      swap1\n      tag_52\n      swap2\n      swap1\n      tag_16\n      jump\t// in\n    tag_52:\n      tag_53\n      jump\t// in\n    tag_51:\n      mload(0x40)\n      tag_54\n      swap2\n      swap1\n      tag_49\n      jump\t// in\n    tag_54:\n      mload(0x40)\n      dup1\n      swap2\n      sub\n      swap1\n      return\n        /* \"ApplicantPool.sol\":4259:4381  function setMemberPoolAddress(address _memberPoolAddress) public {... */\n    tag_10:\n      callvalue\n      dup1\n      iszero\n      tag_55\n      jumpi\n      0x00\n      dup1\n      revert\n    tag_55:\n      pop\n      tag_56\n      0x04\n      dup1\n      calldatasize\n      sub\n      dup2\n      add\n      swap1\n      tag_57\n      swap2\n      swap1\n      tag_16\n      jump\t// in\n    tag_57:\n      tag_58\n      jump\t// in\n    tag_56:\n      stop\n        /* \"ApplicantPool.sol\":1468:2131  function createApplicant(string calldata reason) public payable {... */\n    tag_11:\n      tag_59\n      0x04\n      dup1\n      calldatasize\n      sub\n      dup2\n      add\n      swap1\n      tag_60\n      swap2\n      swap1\n      tag_61\n      jump\t// in\n    tag_60:\n      tag_62\n      jump\t// in\n    tag_59:\n      stop\n        /* \"ApplicantPool.sol\":2840:3037  function getApplicantWords(address applicant)... */\n    tag_17:\n        /* \"ApplicantPool.sol\":2966:2979  string memory */\n      0x60\n        /* \"ApplicantPool.sol\":2936:2946  msg.sender */\n      caller\n        /* \"ApplicantPool.sol\":1042:1045  map */\n      0x06\n      0x00\n      swap1\n      sload\n      swap1\n      0x0100\n      exp\n      swap1\n      div\n      0xffffffffffffffffffffffffffffffffffffffff\n      and\n        /* \"ApplicantPool.sol\":1042:1054  map.isMember */\n      0xffffffffffffffffffffffffffffffffffffffff\n      and\n      0x39ac7a08\n        /* \"ApplicantPool.sol\":1055:1061  sender */\n      dup3\n        /* \"ApplicantPool.sol\":1063:1080  memberPoolAddress */\n      0x07\n      0x00\n      swap1\n      sload\n      swap1\n      0x0100\n      exp\n      swap1\n      div\n      0xffffffffffffffffffffffffffffffffffffffff\n      and\n        /* \"ApplicantPool.sol\":1042:1081  map.isMember(sender, memberPoolAddress) */\n      mload(0x40)\n      dup4\n      0xffffffff\n      and\n      0xe0\n      shl\n      dup2\n      mstore\n      0x04\n      add\n      tag_64\n      swap3\n      swap2\n      swap1\n      tag_65\n      jump\t// in\n    tag_64:\n      0x20\n      mload(0x40)\n      dup1\n      dup4\n      sub\n      dup2\n      dup7\n      gas\n      staticcall\n      iszero\n      dup1\n      iszero\n      tag_67\n      jumpi\n      returndatasize\n      0x00\n      dup1\n      returndatacopy\n      revert(0x00, returndatasize)\n    tag_67:\n      pop\n      pop\n      pop\n      pop\n      mload(0x40)\n      returndatasize\n      not(0x1f)\n      0x1f\n      dup3\n      add\n      and\n      dup3\n      add\n      dup1\n      0x40\n      mstore\n      pop\n      dup2\n      add\n      swap1\n      tag_68\n      swap2\n      swap1\n      tag_69\n      jump\t// in\n    tag_68:\n        /* \"ApplicantPool.sol\":1020:1133  require(... */\n      tag_70\n      jumpi\n      mload(0x40)\n      0x08c379a000000000000000000000000000000000000000000000000000000000\n      dup2\n      mstore\n      0x04\n      add\n      tag_71\n      swap1\n      tag_72\n      jump\t// in\n    tag_71:\n      mload(0x40)\n      dup1\n      swap2\n      sub\n      swap1\n      revert\n    tag_70:\n        /* \"ApplicantPool.sol\":3004:3018  applicantWords */\n      0x04\n        /* \"ApplicantPool.sol\":3004:3029  applicantWords[applicant] */\n      0x00\n        /* \"ApplicantPool.sol\":3019:3028  applicant */\n      dup5\n        /* \"ApplicantPool.sol\":3004:3029  applicantWords[applicant] */\n      0xffffffffffffffffffffffffffffffffffffffff\n      and\n      0xffffffffffffffffffffffffffffffffffffffff\n      and\n      dup2\n      mstore\n      0x20\n      add\n      swap1\n      dup2\n      mstore\n      0x20\n      add\n      0x00\n      keccak256\n        /* \"ApplicantPool.sol\":2997:3029  return applicantWords[applicant] */\n      dup1\n      sload\n      tag_74\n      swap1\n      tag_75\n      jump\t// in\n    tag_74:\n      dup1\n      0x1f\n      add\n      0x20\n      dup1\n      swap2\n      div\n      mul\n      0x20\n      add\n      mload(0x40)\n      swap1\n      dup2\n      add\n      0x40\n      mstore\n      dup1\n      swap3\n      swap2\n      swap1\n      dup2\n      dup2\n      mstore\n      0x20\n      add\n      dup3\n      dup1\n      sload\n      tag_76\n      swap1\n      tag_75\n      jump\t// in\n    tag_76:\n      dup1\n      iszero\n      tag_77\n      jumpi\n      dup1\n      0x1f\n      lt\n      tag_78\n      jumpi\n      0x0100\n      dup1\n      dup4\n      sload\n      div\n      mul\n      dup4\n      mstore\n      swap2\n      0x20\n      add\n      swap2\n      jump(tag_77)\n    tag_78:\n      dup3\n      add\n      swap2\n      swap1\n      0x00\n      mstore\n      keccak256(0x00, 0x20)\n      swap1\n    tag_79:\n      dup2\n      sload\n      dup2\n      mstore\n      swap1\n      0x01\n      add\n      swap1\n      0x20\n      add\n      dup1\n      dup4\n      gt\n      tag_79\n      jumpi\n      dup3\n      swap1\n      sub\n      0x1f\n      and\n      dup3\n      add\n      swap2\n    tag_77:\n      pop\n      pop\n      pop\n      pop\n      pop\n      swap2\n      pop\n        /* \"ApplicantPool.sol\":2840:3037  function getApplicantWords(address applicant)... */\n      pop\n      swap2\n      swap1\n      pop\n      jump\t// out\n        /* \"ApplicantPool.sol\":3225:3520  function approveApplicant(address applicant)... */\n    tag_23:\n        /* \"ApplicantPool.sol\":3310:3320  msg.sender */\n      caller\n        /* \"ApplicantPool.sol\":1230:1247  memberPoolAddress */\n      0x07\n      0x00\n      swap1\n      sload\n      swap1\n      0x0100\n      exp\n      swap1\n      div\n      0xffffffffffffffffffffffffffffffffffffffff\n      and\n        /* \"ApplicantPool.sol\":1220:1247  sender == memberPoolAddress */\n      0xffffffffffffffffffffffffffffffffffffffff\n      and\n        /* \"ApplicantPool.sol\":1220:1226  sender */\n      dup2\n        /* \"ApplicantPool.sol\":1220:1247  sender == memberPoolAddress */\n      0xffffffffffffffffffffffffffffffffffffffff\n      and\n      eq\n        /* \"ApplicantPool.sol\":1212:1265  require(sender == memberPoolAddress, \"Access Denied\") */\n      tag_81\n      jumpi\n      mload(0x40)\n      0x08c379a000000000000000000000000000000000000000000000000000000000\n      dup2\n      mstore\n      0x04\n      add\n      tag_82\n      swap1\n      tag_83\n      jump\t// in\n    tag_82:\n      mload(0x40)\n      dup1\n      swap2\n      sub\n      swap1\n      revert\n    tag_81:\n        /* \"ApplicantPool.sol\":3360:3377  memberPoolAddress */\n      0x07\n      0x00\n      swap1\n      sload\n      swap1\n      0x0100\n      exp\n      swap1\n      div\n      0xffffffffffffffffffffffffffffffffffffffff\n      and\n        /* \"ApplicantPool.sol\":3346:3377  msg.sender == memberPoolAddress */\n      0xffffffffffffffffffffffffffffffffffffffff\n      and\n        /* \"ApplicantPool.sol\":3346:3356  msg.sender */\n      caller\n        /* \"ApplicantPool.sol\":3346:3377  msg.sender == memberPoolAddress */\n      0xffffffffffffffffffffffffffffffffffffffff\n      and\n      eq\n        /* \"ApplicantPool.sol\":3338:3378  require(msg.sender == memberPoolAddress) */\n      tag_85\n      jumpi\n      0x00\n      dup1\n      revert\n    tag_85:\n        /* \"ApplicantPool.sol\":3389:3392  map */\n      0x06\n      0x00\n      swap1\n      sload\n      swap1\n      0x0100\n      exp\n      swap1\n      div\n      0xffffffffffffffffffffffffffffffffffffffff\n      and\n        /* \"ApplicantPool.sol\":3389:3402  map.addMember */\n      0xffffffffffffffffffffffffffffffffffffffff\n      and\n      0x9d58b15d\n        /* \"ApplicantPool.sol\":3403:3420  memberPoolAddress */\n      0x07\n      0x00\n      swap1\n      sload\n      swap1\n      0x0100\n      exp\n      swap1\n      div\n      0xffffffffffffffffffffffffffffffffffffffff\n      and\n        /* \"ApplicantPool.sol\":3422:3431  applicant */\n      dup5\n        /* \"ApplicantPool.sol\":3389:3432  map.addMember(memberPoolAddress, applicant) */\n      mload(0x40)\n      dup4\n      0xffffffff\n      and\n      0xe0\n      shl\n      dup2\n      mstore\n      0x04\n      add\n      tag_86\n      swap3\n      swap2\n      swap1\n      tag_65\n      jump\t// in\n    tag_86:\n      0x00\n      mload(0x40)\n      dup1\n      dup4\n      sub\n      dup2\n      0x00\n      dup8\n      dup1\n      extcodesize\n      iszero\n      dup1\n      iszero\n      tag_87\n      jumpi\n      0x00\n      dup1\n      revert\n    tag_87:\n      pop\n      gas\n      call\n      iszero\n      dup1\n      iszero\n      tag_89\n      jumpi\n      returndatasize\n      0x00\n      dup1\n      returndatacopy\n      revert(0x00, returndatasize)\n    tag_89:\n      pop\n      pop\n      pop\n      pop\n        /* \"ApplicantPool.sol\":3443:3468  _burnApplicant(applicant) */\n      tag_90\n        /* \"ApplicantPool.sol\":3458:3467  applicant */\n      dup3\n        /* \"ApplicantPool.sol\":3443:3457  _burnApplicant */\n      tag_91\n        /* \"ApplicantPool.sol\":3443:3468  _burnApplicant(applicant) */\n      jump\t// in\n    tag_90:\n        /* \"ApplicantPool.sol\":3486:3500  applicantVotes */\n      0x01\n        /* \"ApplicantPool.sol\":3486:3512  applicantVotes[msg.sender] */\n      0x00\n        /* \"ApplicantPool.sol\":3501:3511  msg.sender */\n      caller\n        /* \"ApplicantPool.sol\":3486:3512  applicantVotes[msg.sender] */\n      0xffffffffffffffffffffffffffffffffffffffff\n      and\n      0xffffffffffffffffffffffffffffffffffffffff\n      and\n      dup2\n      mstore\n      0x20\n      add\n      swap1\n      dup2\n      mstore\n      0x20\n      add\n      0x00\n      keccak256\n      0x00\n        /* \"ApplicantPool.sol\":3479:3512  delete applicantVotes[msg.sender] */\n      tag_92\n      swap2\n      swap1\n      tag_93\n      jump\t// in\n    tag_92:\n        /* \"ApplicantPool.sol\":3225:3520  function approveApplicant(address applicant)... */\n      pop\n      pop\n      jump\t// out\n        /* \"ApplicantPool.sol\":3528:3882  function rejectApplicant(address applicant)... */\n    tag_27:\n        /* \"ApplicantPool.sol\":3612:3622  msg.sender */\n      caller\n        /* \"ApplicantPool.sol\":1230:1247  memberPoolAddress */\n      0x07\n      0x00\n      swap1\n      sload\n      swap1\n      0x0100\n      exp\n      swap1\n      div\n      0xffffffffffffffffffffffffffffffffffffffff\n      and\n        /* \"ApplicantPool.sol\":1220:1247  sender == memberPoolAddress */\n      0xffffffffffffffffffffffffffffffffffffffff\n      and\n        /* \"ApplicantPool.sol\":1220:1226  sender */\n      dup2\n        /* \"ApplicantPool.sol\":1220:1247  sender == memberPoolAddress */\n      0xffffffffffffffffffffffffffffffffffffffff\n      and\n      eq\n        /* \"ApplicantPool.sol\":1212:1265  require(sender == memberPoolAddress, \"Access Denied\") */\n      tag_95\n      jumpi\n      mload(0x40)\n      0x08c379a000000000000000000000000000000000000000000000000000000000\n      dup2\n      mstore\n      0x04\n      add\n      tag_96\n      swap1\n      tag_83\n      jump\t// in\n    tag_96:\n      mload(0x40)\n      dup1\n      swap2\n      sub\n      swap1\n      revert\n    tag_95:\n        /* \"ApplicantPool.sol\":3648:3664  activeApplicants */\n      0x03\n        /* \"ApplicantPool.sol\":3648:3675  activeApplicants[applicant] */\n      0x00\n        /* \"ApplicantPool.sol\":3665:3674  applicant */\n      dup4\n        /* \"ApplicantPool.sol\":3648:3675  activeApplicants[applicant] */\n      0xffffffffffffffffffffffffffffffffffffffff\n      and\n      0xffffffffffffffffffffffffffffffffffffffff\n      and\n      dup2\n      mstore\n      0x20\n      add\n      swap1\n      dup2\n      mstore\n      0x20\n      add\n      0x00\n      keccak256\n      0x00\n      swap1\n      sload\n      swap1\n      0x0100\n      exp\n      swap1\n      div\n      0xff\n      and\n        /* \"ApplicantPool.sol\":3640:3705  require(activeApplicants[applicant], \"Invalid applicant address\") */\n      tag_98\n      jumpi\n      mload(0x40)\n      0x08c379a000000000000000000000000000000000000000000000000000000000\n      dup2\n      mstore\n      0x04\n      add\n      tag_99\n      swap1\n      tag_100\n      jump\t// in\n    tag_99:\n      mload(0x40)\n      dup1\n      swap2\n      sub\n      swap1\n      revert\n    tag_98:\n        /* \"ApplicantPool.sol\":3746:3751  false */\n      0x00\n        /* \"ApplicantPool.sol\":3716:3732  activeApplicants */\n      0x03\n        /* \"ApplicantPool.sol\":3716:3743  activeApplicants[applicant] */\n      0x00\n        /* \"ApplicantPool.sol\":3733:3742  applicant */\n      dup5\n        /* \"ApplicantPool.sol\":3716:3743  activeApplicants[applicant] */\n      0xffffffffffffffffffffffffffffffffffffffff\n      and\n      0xffffffffffffffffffffffffffffffffffffffff\n      and\n      dup2\n      mstore\n      0x20\n      add\n      swap1\n      dup2\n      mstore\n      0x20\n      add\n      0x00\n      keccak256\n      0x00\n        /* \"ApplicantPool.sol\":3716:3751  activeApplicants[applicant] = false */\n      0x0100\n      exp\n      dup2\n      sload\n      dup2\n      0xff\n      mul\n      not\n      and\n      swap1\n      dup4\n      iszero\n      iszero\n      mul\n      or\n      swap1\n      sstore\n      pop\n        /* \"ApplicantPool.sol\":3793:3794  1 */\n      0x01\n        /* \"ApplicantPool.sol\":3762:3777  applicantPoints */\n      0x02\n        /* \"ApplicantPool.sol\":3762:3789  applicantPoints[msg.sender] */\n      0x00\n        /* \"ApplicantPool.sol\":3778:3788  msg.sender */\n      caller\n        /* \"ApplicantPool.sol\":3762:3789  applicantPoints[msg.sender] */\n      0xffffffffffffffffffffffffffffffffffffffff\n      and\n      0xffffffffffffffffffffffffffffffffffffffff\n      and\n      dup2\n      mstore\n      0x20\n      add\n      swap1\n      dup2\n      mstore\n      0x20\n      add\n      0x00\n      keccak256\n      0x00\n        /* \"ApplicantPool.sol\":3762:3794  applicantPoints[msg.sender] -= 1 */\n      dup3\n      dup3\n      sload\n      tag_101\n      swap2\n      swap1\n      tag_102\n      jump\t// in\n    tag_101:\n      swap3\n      pop\n      pop\n      dup2\n      swap1\n      sstore\n      pop\n        /* \"ApplicantPool.sol\":3805:3830  _burnApplicant(applicant) */\n      tag_103\n        /* \"ApplicantPool.sol\":3820:3829  applicant */\n      dup3\n        /* \"ApplicantPool.sol\":3805:3819  _burnApplicant */\n      tag_91\n        /* \"ApplicantPool.sol\":3805:3830  _burnApplicant(applicant) */\n      jump\t// in\n    tag_103:\n        /* \"ApplicantPool.sol\":3848:3862  applicantVotes */\n      0x01\n        /* \"ApplicantPool.sol\":3848:3874  applicantVotes[msg.sender] */\n      0x00\n        /* \"ApplicantPool.sol\":3863:3873  msg.sender */\n      caller\n        /* \"ApplicantPool.sol\":3848:3874  applicantVotes[msg.sender] */\n      0xffffffffffffffffffffffffffffffffffffffff\n      and\n      0xffffffffffffffffffffffffffffffffffffffff\n      and\n      dup2\n      mstore\n      0x20\n      add\n      swap1\n      dup2\n      mstore\n      0x20\n      add\n      0x00\n      keccak256\n      0x00\n        /* \"ApplicantPool.sol\":3841:3874  delete applicantVotes[msg.sender] */\n      tag_104\n      swap2\n      swap1\n      tag_93\n      jump\t// in\n    tag_104:\n        /* \"ApplicantPool.sol\":3528:3882  function rejectApplicant(address applicant)... */\n      pop\n      pop\n      jump\t// out\n        /* \"ApplicantPool.sol\":2139:2662  function voteForApplicant(address applicant) public memberOnly(msg.sender) {... */\n    tag_31:\n        /* \"ApplicantPool.sol\":2202:2212  msg.sender */\n      caller\n        /* \"ApplicantPool.sol\":1042:1045  map */\n      0x06\n      0x00\n      swap1\n      sload\n      swap1\n      0x0100\n      exp\n      swap1\n      div\n      0xffffffffffffffffffffffffffffffffffffffff\n      and\n        /* \"ApplicantPool.sol\":1042:1054  map.isMember */\n      0xffffffffffffffffffffffffffffffffffffffff\n      and\n      0x39ac7a08\n        /* \"ApplicantPool.sol\":1055:1061  sender */\n      dup3\n        /* \"ApplicantPool.sol\":1063:1080  memberPoolAddress */\n      0x07\n      0x00\n      swap1\n      sload\n      swap1\n      0x0100\n      exp\n      swap1\n      div\n      0xffffffffffffffffffffffffffffffffffffffff\n      and\n        /* \"ApplicantPool.sol\":1042:1081  map.isMember(sender, memberPoolAddress) */\n      mload(0x40)\n      dup4\n      0xffffffff\n      and\n      0xe0\n      shl\n      dup2\n      mstore\n      0x04\n      add\n      tag_106\n      swap3\n      swap2\n      swap1\n      tag_65\n      jump\t// in\n    tag_106:\n      0x20\n      mload(0x40)\n      dup1\n      dup4\n      sub\n      dup2\n      dup7\n      gas\n      staticcall\n      iszero\n      dup1\n      iszero\n      tag_108\n      jumpi\n      returndatasize\n      0x00\n      dup1\n      returndatacopy\n      revert(0x00, returndatasize)\n    tag_108:\n      pop\n      pop\n      pop\n      pop\n      mload(0x40)\n      returndatasize\n      not(0x1f)\n      0x1f\n      dup3\n      add\n      and\n      dup3\n      add\n      dup1\n      0x40\n      mstore\n      pop\n      dup2\n      add\n      swap1\n      tag_109\n      swap2\n      swap1\n      tag_69\n      jump\t// in\n    tag_109:\n        /* \"ApplicantPool.sol\":1020:1133  require(... */\n      tag_110\n      jumpi\n      mload(0x40)\n      0x08c379a000000000000000000000000000000000000000000000000000000000\n      dup2\n      mstore\n      0x04\n      add\n      tag_111\n      swap1\n      tag_72\n      jump\t// in\n    tag_111:\n      mload(0x40)\n      dup1\n      swap2\n      sub\n      swap1\n      revert\n    tag_110:\n        /* \"ApplicantPool.sol\":2233:2249  activeApplicants */\n      0x03\n        /* \"ApplicantPool.sol\":2233:2260  activeApplicants[applicant] */\n      0x00\n        /* \"ApplicantPool.sol\":2250:2259  applicant */\n      dup4\n        /* \"ApplicantPool.sol\":2233:2260  activeApplicants[applicant] */\n      0xffffffffffffffffffffffffffffffffffffffff\n      and\n      0xffffffffffffffffffffffffffffffffffffffff\n      and\n      dup2\n      mstore\n      0x20\n      add\n      swap1\n      dup2\n      mstore\n      0x20\n      add\n      0x00\n      keccak256\n      0x00\n      swap1\n      sload\n      swap1\n      0x0100\n      exp\n      swap1\n      div\n      0xff\n      and\n        /* \"ApplicantPool.sol\":2225:2280  require(activeApplicants[applicant], \"Not a applicant\") */\n      tag_113\n      jumpi\n      mload(0x40)\n      0x08c379a000000000000000000000000000000000000000000000000000000000\n      dup2\n      mstore\n      0x04\n      add\n      tag_114\n      swap1\n      tag_115\n      jump\t// in\n    tag_114:\n      mload(0x40)\n      dup1\n      swap2\n      sub\n      swap1\n      revert\n    tag_113:\n        /* \"ApplicantPool.sol\":2291:2303  bool didVote */\n      0x00\n        /* \"ApplicantPool.sol\":2327:2336  uint256 i */\n      dup1\n        /* \"ApplicantPool.sol\":2322:2508  for (uint256 i = 0; i < applicantVotes[applicant].length; i++) {... */\n    tag_116:\n        /* \"ApplicantPool.sol\":2346:2360  applicantVotes */\n      0x01\n        /* \"ApplicantPool.sol\":2346:2371  applicantVotes[applicant] */\n      0x00\n        /* \"ApplicantPool.sol\":2361:2370  applicant */\n      dup6\n        /* \"ApplicantPool.sol\":2346:2371  applicantVotes[applicant] */\n      0xffffffffffffffffffffffffffffffffffffffff\n      and\n      0xffffffffffffffffffffffffffffffffffffffff\n      and\n      dup2\n      mstore\n      0x20\n      add\n      swap1\n      dup2\n      mstore\n      0x20\n      add\n      0x00\n      keccak256\n        /* \"ApplicantPool.sol\":2346:2378  applicantVotes[applicant].length */\n      dup1\n      sload\n      swap1\n      pop\n        /* \"ApplicantPool.sol\":2342:2343  i */\n      dup2\n        /* \"ApplicantPool.sol\":2342:2378  i < applicantVotes[applicant].length */\n      lt\n        /* \"ApplicantPool.sol\":2322:2508  for (uint256 i = 0; i < applicantVotes[applicant].length; i++) {... */\n      iszero\n      tag_117\n      jumpi\n        /* \"ApplicantPool.sol\":2436:2446  msg.sender */\n      caller\n        /* \"ApplicantPool.sol\":2404:2446  applicantVotes[applicant][i] == msg.sender */\n      0xffffffffffffffffffffffffffffffffffffffff\n      and\n        /* \"ApplicantPool.sol\":2404:2418  applicantVotes */\n      0x01\n        /* \"ApplicantPool.sol\":2404:2429  applicantVotes[applicant] */\n      0x00\n        /* \"ApplicantPool.sol\":2419:2428  applicant */\n      dup7\n        /* \"ApplicantPool.sol\":2404:2429  applicantVotes[applicant] */\n      0xffffffffffffffffffffffffffffffffffffffff\n      and\n      0xffffffffffffffffffffffffffffffffffffffff\n      and\n      dup2\n      mstore\n      0x20\n      add\n      swap1\n      dup2\n      mstore\n      0x20\n      add\n      0x00\n      keccak256\n        /* \"ApplicantPool.sol\":2430:2431  i */\n      dup3\n        /* \"ApplicantPool.sol\":2404:2432  applicantVotes[applicant][i] */\n      dup2\n      sload\n      dup2\n      lt\n      tag_119\n      jumpi\n      tag_120\n      tag_121\n      jump\t// in\n    tag_120:\n    tag_119:\n      swap1\n      0x00\n      mstore\n      keccak256(0x00, 0x20)\n      add\n      0x00\n      swap1\n      sload\n      swap1\n      0x0100\n      exp\n      swap1\n      div\n      0xffffffffffffffffffffffffffffffffffffffff\n      and\n        /* \"ApplicantPool.sol\":2404:2446  applicantVotes[applicant][i] == msg.sender */\n      0xffffffffffffffffffffffffffffffffffffffff\n      and\n      sub\n        /* \"ApplicantPool.sol\":2400:2497  if (applicantVotes[applicant][i] == msg.sender) {... */\n      tag_123\n      jumpi\n        /* \"ApplicantPool.sol\":2477:2481  true */\n      0x01\n        /* \"ApplicantPool.sol\":2467:2481  didVote = true */\n      swap2\n      pop\n        /* \"ApplicantPool.sol\":2400:2497  if (applicantVotes[applicant][i] == msg.sender) {... */\n    tag_123:\n        /* \"ApplicantPool.sol\":2380:2383  i++ */\n      dup1\n      dup1\n      tag_124\n      swap1\n      tag_125\n      jump\t// in\n    tag_124:\n      swap2\n      pop\n      pop\n        /* \"ApplicantPool.sol\":2322:2508  for (uint256 i = 0; i < applicantVotes[applicant].length; i++) {... */\n      jump(tag_116)\n    tag_117:\n      pop\n        /* \"ApplicantPool.sol\":2527:2534  didVote */\n      dup1\n        /* \"ApplicantPool.sol\":2526:2534  !didVote */\n      iszero\n        /* \"ApplicantPool.sol\":2518:2559  require(!didVote, \"Sender already voted\") */\n      tag_126\n      jumpi\n      mload(0x40)\n      0x08c379a000000000000000000000000000000000000000000000000000000000\n      dup2\n      mstore\n      0x04\n      add\n      tag_127\n      swap1\n      tag_128\n      jump\t// in\n    tag_127:\n      mload(0x40)\n      dup1\n      swap2\n      sub\n      swap1\n      revert\n    tag_126:\n        /* \"ApplicantPool.sol\":2570:2584  applicantVotes */\n      0x01\n        /* \"ApplicantPool.sol\":2570:2595  applicantVotes[applicant] */\n      0x00\n        /* \"ApplicantPool.sol\":2585:2594  applicant */\n      dup5\n        /* \"ApplicantPool.sol\":2570:2595  applicantVotes[applicant] */\n      0xffffffffffffffffffffffffffffffffffffffff\n      and\n      0xffffffffffffffffffffffffffffffffffffffff\n      and\n      dup2\n      mstore\n      0x20\n      add\n      swap1\n      dup2\n      mstore\n      0x20\n      add\n      0x00\n      keccak256\n        /* \"ApplicantPool.sol\":2601:2611  msg.sender */\n      caller\n        /* \"ApplicantPool.sol\":2570:2612  applicantVotes[applicant].push(msg.sender) */\n      swap1\n      dup1\n      0x01\n      dup2\n      sload\n      add\n      dup1\n      dup3\n      sstore\n      dup1\n      swap2\n      pop\n      pop\n      0x01\n      swap1\n      sub\n      swap1\n      0x00\n      mstore\n      keccak256(0x00, 0x20)\n      add\n      0x00\n      swap1\n      swap2\n      swap1\n      swap2\n      swap1\n      swap2\n      0x0100\n      exp\n      dup2\n      sload\n      dup2\n      0xffffffffffffffffffffffffffffffffffffffff\n      mul\n      not\n      and\n      swap1\n      dup4\n      0xffffffffffffffffffffffffffffffffffffffff\n      and\n      mul\n      or\n      swap1\n      sstore\n      pop\n        /* \"ApplicantPool.sol\":2653:2654  1 */\n      0x01\n        /* \"ApplicantPool.sol\":2623:2638  applicantPoints */\n      0x02\n        /* \"ApplicantPool.sol\":2623:2649  applicantPoints[applicant] */\n      0x00\n        /* \"ApplicantPool.sol\":2639:2648  applicant */\n      dup6\n        /* \"ApplicantPool.sol\":2623:2649  applicantPoints[applicant] */\n      0xffffffffffffffffffffffffffffffffffffffff\n      and\n      0xffffffffffffffffffffffffffffffffffffffff\n      and\n      dup2\n      mstore\n      0x20\n      add\n      swap1\n      dup2\n      mstore\n      0x20\n      add\n      0x00\n      keccak256\n      0x00\n        /* \"ApplicantPool.sol\":2623:2654  applicantPoints[applicant] += 1 */\n      dup3\n      dup3\n      sload\n      tag_130\n      swap2\n      swap1\n      tag_131\n      jump\t// in\n    tag_130:\n      swap3\n      pop\n      pop\n      dup2\n      swap1\n      sstore\n      pop\n        /* \"ApplicantPool.sol\":2214:2662  {... */\n      pop\n        /* \"ApplicantPool.sol\":2139:2662  function voteForApplicant(address applicant) public memberOnly(msg.sender) {... */\n      pop\n      pop\n      jump\t// out\n        /* \"ApplicantPool.sol\":1293:1460  function getApplicants()... */\n    tag_34:\n        /* \"ApplicantPool.sol\":1398:1414  address[] memory */\n      0x60\n        /* \"ApplicantPool.sol\":1368:1378  msg.sender */\n      caller\n        /* \"ApplicantPool.sol\":1042:1045  map */\n      0x06\n      0x00\n      swap1\n      sload\n      swap1\n      0x0100\n      exp\n      swap1\n      div\n      0xffffffffffffffffffffffffffffffffffffffff\n      and\n        /* \"ApplicantPool.sol\":1042:1054  map.isMember */\n      0xffffffffffffffffffffffffffffffffffffffff\n      and\n      0x39ac7a08\n        /* \"ApplicantPool.sol\":1055:1061  sender */\n      dup3\n        /* \"ApplicantPool.sol\":1063:1080  memberPoolAddress */\n      0x07\n      0x00\n      swap1\n      sload\n      swap1\n      0x0100\n      exp\n      swap1\n      div\n      0xffffffffffffffffffffffffffffffffffffffff\n      and\n        /* \"ApplicantPool.sol\":1042:1081  map.isMember(sender, memberPoolAddress) */\n      mload(0x40)\n      dup4\n      0xffffffff\n      and\n      0xe0\n      shl\n      dup2\n      mstore\n      0x04\n      add\n      tag_133\n      swap3\n      swap2\n      swap1\n      tag_65\n      jump\t// in\n    tag_133:\n      0x20\n      mload(0x40)\n      dup1\n      dup4\n      sub\n      dup2\n      dup7\n      gas\n      staticcall\n      iszero\n      dup1\n      iszero\n      tag_135\n      jumpi\n      returndatasize\n      0x00\n      dup1\n      returndatacopy\n      revert(0x00, returndatasize)\n    tag_135:\n      pop\n      pop\n      pop\n      pop\n      mload(0x40)\n      returndatasize\n      not(0x1f)\n      0x1f\n      dup3\n      add\n      and\n      dup3\n      add\n      dup1\n      0x40\n      mstore\n      pop\n      dup2\n      add\n      swap1\n      tag_136\n      swap2\n      swap1\n      tag_69\n      jump\t// in\n    tag_136:\n        /* \"ApplicantPool.sol\":1020:1133  require(... */\n      tag_137\n      jumpi\n      mload(0x40)\n      0x08c379a000000000000000000000000000000000000000000000000000000000\n      dup2\n      mstore\n      0x04\n      add\n      tag_138\n      swap1\n      tag_72\n      jump\t// in\n    tag_138:\n      mload(0x40)\n      dup1\n      swap2\n      sub\n      swap1\n      revert\n    tag_137:\n        /* \"ApplicantPool.sol\":1439:1452  applicantList */\n      0x00\n        /* \"ApplicantPool.sol\":1432:1452  return applicantList */\n      dup1\n      sload\n      dup1\n      0x20\n      mul\n      0x20\n      add\n      mload(0x40)\n      swap1\n      dup2\n      add\n      0x40\n      mstore\n      dup1\n      swap3\n      swap2\n      swap1\n      dup2\n      dup2\n      mstore\n      0x20\n      add\n      dup3\n      dup1\n      sload\n      dup1\n      iszero\n      tag_140\n      jumpi\n      0x20\n      mul\n      dup3\n      add\n      swap2\n      swap1\n      0x00\n      mstore\n      keccak256(0x00, 0x20)\n      swap1\n    tag_141:\n      dup2\n      0x00\n      swap1\n      sload\n      swap1\n      0x0100\n      exp\n      swap1\n      div\n      0xffffffffffffffffffffffffffffffffffffffff\n      and\n      0xffffffffffffffffffffffffffffffffffffffff\n      and\n      dup2\n      mstore\n      0x20\n      add\n      swap1\n      0x01\n      add\n      swap1\n      dup1\n      dup4\n      gt\n      tag_141\n      jumpi\n    tag_140:\n      pop\n      pop\n      pop\n      pop\n      pop\n      swap2\n      pop\n        /* \"ApplicantPool.sol\":1293:1460  function getApplicants()... */\n      pop\n      swap1\n      jump\t// out\n        /* \"ApplicantPool.sol\":300:330  address[] public applicantList */\n    tag_41:\n      0x00\n      dup2\n      dup2\n      sload\n      dup2\n      lt\n      tag_142\n      jumpi\n      0x00\n      dup1\n      revert\n    tag_142:\n      swap1\n      0x00\n      mstore\n      keccak256(0x00, 0x20)\n      add\n      0x00\n      swap2\n      pop\n      sload\n      swap1\n      0x0100\n      exp\n      swap1\n      div\n      0xffffffffffffffffffffffffffffffffffffffff\n      and\n      dup2\n      jump\t// out\n        /* \"ApplicantPool.sol\":2670:2832  function getApplicantVoteEndDate(address applicant)... */\n    tag_47:\n        /* \"ApplicantPool.sol\":2770:2777  uint256 */\n      0x00\n        /* \"ApplicantPool.sol\":2802:2813  voteEndTime */\n      0x05\n        /* \"ApplicantPool.sol\":2802:2824  voteEndTime[applicant] */\n      0x00\n        /* \"ApplicantPool.sol\":2814:2823  applicant */\n      dup4\n        /* \"ApplicantPool.sol\":2802:2824  voteEndTime[applicant] */\n      0xffffffffffffffffffffffffffffffffffffffff\n      and\n      0xffffffffffffffffffffffffffffffffffffffff\n      and\n      dup2\n      mstore\n      0x20\n      add\n      swap1\n      dup2\n      mstore\n      0x20\n      add\n      0x00\n      keccak256\n      sload\n        /* \"ApplicantPool.sol\":2795:2824  return voteEndTime[applicant] */\n      swap1\n      pop\n        /* \"ApplicantPool.sol\":2670:2832  function getApplicantVoteEndDate(address applicant)... */\n      swap2\n      swap1\n      pop\n      jump\t// out\n        /* \"ApplicantPool.sol\":3045:3217  function getApplicantVoteCount(address applicant)... */\n    tag_53:\n        /* \"ApplicantPool.sol\":3145:3152  uint256 */\n      0x00\n        /* \"ApplicantPool.sol\":3177:3191  applicantVotes */\n      0x01\n        /* \"ApplicantPool.sol\":3177:3202  applicantVotes[applicant] */\n      0x00\n        /* \"ApplicantPool.sol\":3192:3201  applicant */\n      dup4\n        /* \"ApplicantPool.sol\":3177:3202  applicantVotes[applicant] */\n      0xffffffffffffffffffffffffffffffffffffffff\n      and\n      0xffffffffffffffffffffffffffffffffffffffff\n      and\n      dup2\n      mstore\n      0x20\n      add\n      swap1\n      dup2\n      mstore\n      0x20\n      add\n      0x00\n      keccak256\n        /* \"ApplicantPool.sol\":3177:3209  applicantVotes[applicant].length */\n      dup1\n      sload\n      swap1\n      pop\n        /* \"ApplicantPool.sol\":3170:3209  return applicantVotes[applicant].length */\n      swap1\n      pop\n        /* \"ApplicantPool.sol\":3045:3217  function getApplicantVoteCount(address applicant)... */\n      swap2\n      swap1\n      pop\n      jump\t// out\n        /* \"ApplicantPool.sol\":4259:4381  function setMemberPoolAddress(address _memberPoolAddress) public {... */\n    tag_58:\n        /* \"ApplicantPool.sol\":4355:4373  _memberPoolAddress */\n      dup1\n        /* \"ApplicantPool.sol\":4335:4352  memberPoolAddress */\n      0x07\n      0x00\n        /* \"ApplicantPool.sol\":4335:4373  memberPoolAddress = _memberPoolAddress */\n      0x0100\n      exp\n      dup2\n      sload\n      dup2\n      0xffffffffffffffffffffffffffffffffffffffff\n      mul\n      not\n      and\n      swap1\n      dup4\n      0xffffffffffffffffffffffffffffffffffffffff\n      and\n      mul\n      or\n      swap1\n      sstore\n      pop\n        /* \"ApplicantPool.sol\":4259:4381  function setMemberPoolAddress(address _memberPoolAddress) public {... */\n      pop\n      jump\t// out\n        /* \"ApplicantPool.sol\":1468:2131  function createApplicant(string calldata reason) public payable {... */\n    tag_62:\n        /* \"ApplicantPool.sol\":1566:1569  map */\n      0x06\n      0x00\n      swap1\n      sload\n      swap1\n      0x0100\n      exp\n      swap1\n      div\n      0xffffffffffffffffffffffffffffffffffffffff\n      and\n        /* \"ApplicantPool.sol\":1566:1578  map.isMember */\n      0xffffffffffffffffffffffffffffffffffffffff\n      and\n      0x39ac7a08\n        /* \"ApplicantPool.sol\":1579:1589  msg.sender */\n      caller\n        /* \"ApplicantPool.sol\":1591:1608  memberPoolAddress */\n      0x07\n      0x00\n      swap1\n      sload\n      swap1\n      0x0100\n      exp\n      swap1\n      div\n      0xffffffffffffffffffffffffffffffffffffffff\n      and\n        /* \"ApplicantPool.sol\":1566:1609  map.isMember(msg.sender, memberPoolAddress) */\n      mload(0x40)\n      dup4\n      0xffffffff\n      and\n      0xe0\n      shl\n      dup2\n      mstore\n      0x04\n      add\n      tag_148\n      swap3\n      swap2\n      swap1\n      tag_65\n      jump\t// in\n    tag_148:\n      0x20\n      mload(0x40)\n      dup1\n      dup4\n      sub\n      dup2\n      dup7\n      gas\n      staticcall\n      iszero\n      dup1\n      iszero\n      tag_150\n      jumpi\n      returndatasize\n      0x00\n      dup1\n      returndatacopy\n      revert(0x00, returndatasize)\n    tag_150:\n      pop\n      pop\n      pop\n      pop\n      mload(0x40)\n      returndatasize\n      not(0x1f)\n      0x1f\n      dup3\n      add\n      and\n      dup3\n      add\n      dup1\n      0x40\n      mstore\n      pop\n      dup2\n      add\n      swap1\n      tag_151\n      swap2\n      swap1\n      tag_69\n      jump\t// in\n    tag_151:\n        /* \"ApplicantPool.sol\":1565:1609  !map.isMember(msg.sender, memberPoolAddress) */\n      iszero\n        /* \"ApplicantPool.sol\":1543:1658  require(... */\n      tag_152\n      jumpi\n      mload(0x40)\n      0x08c379a000000000000000000000000000000000000000000000000000000000\n      dup2\n      mstore\n      0x04\n      add\n      tag_153\n      swap1\n      tag_154\n      jump\t// in\n    tag_153:\n      mload(0x40)\n      dup1\n      swap2\n      sub\n      swap1\n      revert\n    tag_152:\n        /* \"ApplicantPool.sol\":1669:1679  Treasury t */\n      0x00\n        /* \"ApplicantPool.sol\":1691:1706  treasuryAddress */\n      immutable(\"0xc47ece0ffae697632ce145a7086cbcf260f7fa60876ff2606761ea2b7581ee76\")\n        /* \"ApplicantPool.sol\":1669:1707  Treasury t = Treasury(treasuryAddress) */\n      swap1\n      pop\n        /* \"ApplicantPool.sol\":1718:1726  uint fee */\n      0x00\n        /* \"ApplicantPool.sol\":1729:1730  t */\n      dup2\n        /* \"ApplicantPool.sol\":1729:1746  t.newApplicantFee */\n      0xffffffffffffffffffffffffffffffffffffffff\n      and\n      0x4d10dcbb\n        /* \"ApplicantPool.sol\":1729:1748  t.newApplicantFee() */\n      mload(0x40)\n      dup2\n      0xffffffff\n      and\n      0xe0\n      shl\n      dup2\n      mstore\n      0x04\n      add\n      0x20\n      mload(0x40)\n      dup1\n      dup4\n      sub\n      dup2\n      dup7\n      gas\n      staticcall\n      iszero\n      dup1\n      iszero\n      tag_156\n      jumpi\n      returndatasize\n      0x00\n      dup1\n      returndatacopy\n      revert(0x00, returndatasize)\n    tag_156:\n      pop\n      pop\n      pop\n      pop\n      mload(0x40)\n      returndatasize\n      not(0x1f)\n      0x1f\n      dup3\n      add\n      and\n      dup3\n      add\n      dup1\n      0x40\n      mstore\n      pop\n      dup2\n      add\n      swap1\n      tag_157\n      swap2\n      swap1\n      tag_158\n      jump\t// in\n    tag_157:\n        /* \"ApplicantPool.sol\":1718:1748  uint fee = t.newApplicantFee() */\n      swap1\n      pop\n        /* \"ApplicantPool.sol\":1780:1783  fee */\n      dup1\n        /* \"ApplicantPool.sol\":1767:1776  msg.value */\n      callvalue\n        /* \"ApplicantPool.sol\":1767:1783  msg.value >= fee */\n      lt\n      iszero\n        /* \"ApplicantPool.sol\":1759:1814  require(msg.value >= fee, \"New Applicant Fee Required\") */\n      tag_159\n      jumpi\n      mload(0x40)\n      0x08c379a000000000000000000000000000000000000000000000000000000000\n      dup2\n      mstore\n      0x04\n      add\n      tag_160\n      swap1\n      tag_161\n      jump\t// in\n    tag_160:\n      mload(0x40)\n      dup1\n      swap2\n      sub\n      swap1\n      revert\n    tag_159:\n        /* \"ApplicantPool.sol\":1834:1850  activeApplicants */\n      0x03\n        /* \"ApplicantPool.sol\":1834:1862  activeApplicants[msg.sender] */\n      0x00\n        /* \"ApplicantPool.sol\":1851:1861  msg.sender */\n      caller\n        /* \"ApplicantPool.sol\":1834:1862  activeApplicants[msg.sender] */\n      0xffffffffffffffffffffffffffffffffffffffff\n      and\n      0xffffffffffffffffffffffffffffffffffffffff\n      and\n      dup2\n      mstore\n      0x20\n      add\n      swap1\n      dup2\n      mstore\n      0x20\n      add\n      0x00\n      keccak256\n      0x00\n      swap1\n      sload\n      swap1\n      0x0100\n      exp\n      swap1\n      div\n      0xff\n      and\n        /* \"ApplicantPool.sol\":1833:1862  !activeApplicants[msg.sender] */\n      iszero\n        /* \"ApplicantPool.sol\":1825:1891  require(!activeApplicants[msg.sender], \"Already active applicant\") */\n      tag_162\n      jumpi\n      mload(0x40)\n      0x08c379a000000000000000000000000000000000000000000000000000000000\n      dup2\n      mstore\n      0x04\n      add\n      tag_163\n      swap1\n      tag_164\n      jump\t// in\n    tag_163:\n      mload(0x40)\n      dup1\n      swap2\n      sub\n      swap1\n      revert\n    tag_162:\n        /* \"ApplicantPool.sol\":1940:1942  -3 */\n      0xfffffffffffffffffffffffffffffffffffffffffffffffffffffffffffffffd\n        /* \"ApplicantPool.sol\":1910:1925  applicantPoints */\n      0x02\n        /* \"ApplicantPool.sol\":1910:1937  applicantPoints[msg.sender] */\n      0x00\n        /* \"ApplicantPool.sol\":1926:1936  msg.sender */\n      caller\n        /* \"ApplicantPool.sol\":1910:1937  applicantPoints[msg.sender] */\n      0xffffffffffffffffffffffffffffffffffffffff\n      and\n      0xffffffffffffffffffffffffffffffffffffffff\n      and\n      dup2\n      mstore\n      0x20\n      add\n      swap1\n      dup2\n      mstore\n      0x20\n      add\n      0x00\n      keccak256\n      sload\n        /* \"ApplicantPool.sol\":1910:1942  applicantPoints[msg.sender] > -3 */\n      sgt\n        /* \"ApplicantPool.sol\":1902:1963  require(applicantPoints[msg.sender] > -3, \"account rejected\") */\n      tag_165\n      jumpi\n      mload(0x40)\n      0x08c379a000000000000000000000000000000000000000000000000000000000\n      dup2\n      mstore\n      0x04\n      add\n      tag_166\n      swap1\n      tag_167\n      jump\t// in\n    tag_166:\n      mload(0x40)\n      dup1\n      swap2\n      sub\n      swap1\n      revert\n    tag_165:\n        /* \"ApplicantPool.sol\":2003:2009  reason */\n      dup4\n      dup4\n        /* \"ApplicantPool.sol\":1974:1988  applicantWords */\n      0x04\n        /* \"ApplicantPool.sol\":1974:2000  applicantWords[msg.sender] */\n      0x00\n        /* \"ApplicantPool.sol\":1989:1999  msg.sender */\n      caller\n        /* \"ApplicantPool.sol\":1974:2000  applicantWords[msg.sender] */\n      0xffffffffffffffffffffffffffffffffffffffff\n      and\n      0xffffffffffffffffffffffffffffffffffffffff\n      and\n      dup2\n      mstore\n      0x20\n      add\n      swap1\n      dup2\n      mstore\n      0x20\n      add\n      0x00\n      keccak256\n        /* \"ApplicantPool.sol\":1974:2009  applicantWords[msg.sender] = reason */\n      swap2\n      dup3\n      tag_168\n      swap3\n      swap2\n      swap1\n      tag_169\n      jump\t// in\n    tag_168:\n      pop\n        /* \"ApplicantPool.sol\":2020:2033  applicantList */\n      0x00\n        /* \"ApplicantPool.sol\":2039:2049  msg.sender */\n      caller\n        /* \"ApplicantPool.sol\":2020:2050  applicantList.push(msg.sender) */\n      swap1\n      dup1\n      0x01\n      dup2\n      sload\n      add\n      dup1\n      dup3\n      sstore\n      dup1\n      swap2\n      pop\n      pop\n      0x01\n      swap1\n      sub\n      swap1\n      0x00\n      mstore\n      keccak256(0x00, 0x20)\n      add\n      0x00\n      swap1\n      swap2\n      swap1\n      swap2\n      swap1\n      swap2\n      0x0100\n      exp\n      dup2\n      sload\n      dup2\n      0xffffffffffffffffffffffffffffffffffffffff\n      mul\n      not\n      and\n      swap1\n      dup4\n      0xffffffffffffffffffffffffffffffffffffffff\n      and\n      mul\n      or\n      swap1\n      sstore\n      pop\n        /* \"ApplicantPool.sol\":2105:2114  259200000 */\n      0x0f731400\n        /* \"ApplicantPool.sol\":2087:2102  block.timestamp */\n      timestamp\n        /* \"ApplicantPool.sol\":2087:2114  block.timestamp + 259200000 */\n      tag_171\n      swap2\n      swap1\n      tag_172\n      jump\t// in\n    tag_171:\n        /* \"ApplicantPool.sol\":2061:2072  voteEndTime */\n      0x05\n        /* \"ApplicantPool.sol\":2061:2084  voteEndTime[msg.sender] */\n      0x00\n        /* \"ApplicantPool.sol\":2073:2083  msg.sender */\n      caller\n        /* \"ApplicantPool.sol\":2061:2084  voteEndTime[msg.sender] */\n      0xffffffffffffffffffffffffffffffffffffffff\n      and\n      0xffffffffffffffffffffffffffffffffffffffff\n      and\n      dup2\n      mstore\n      0x20\n      add\n      swap1\n      dup2\n      mstore\n      0x20\n      add\n      0x00\n      keccak256\n        /* \"ApplicantPool.sol\":2061:2114  voteEndTime[msg.sender] = block.timestamp + 259200000 */\n      dup2\n      swap1\n      sstore\n      pop\n        /* \"ApplicantPool.sol\":1532:2131  {... */\n      pop\n      pop\n        /* \"ApplicantPool.sol\":1468:2131  function createApplicant(string calldata reason) public payable {... */\n      pop\n      pop\n      jump\t// out\n        /* \"ApplicantPool.sol\":3890:4251  function _burnApplicant(address applicant) internal {... */\n    tag_91:\n        /* \"ApplicantPool.sol\":3953:3966  uint256 index */\n      0x00\n        /* \"ApplicantPool.sol\":3981:4141  for (index = 0; index < applicantList.length; index++) {... */\n    tag_174:\n        /* \"ApplicantPool.sol\":4005:4018  applicantList */\n      0x00\n        /* \"ApplicantPool.sol\":4005:4025  applicantList.length */\n      dup1\n      sload\n      swap1\n      pop\n        /* \"ApplicantPool.sol\":3997:4002  index */\n      dup2\n        /* \"ApplicantPool.sol\":3997:4025  index < applicantList.length */\n      lt\n        /* \"ApplicantPool.sol\":3981:4141  for (index = 0; index < applicantList.length; index++) {... */\n      iszero\n      tag_175\n      jumpi\n        /* \"ApplicantPool.sol\":4079:4088  applicant */\n      dup2\n        /* \"ApplicantPool.sol\":4055:4088  applicantList[index] == applicant */\n      0xffffffffffffffffffffffffffffffffffffffff\n      and\n        /* \"ApplicantPool.sol\":4055:4068  applicantList */\n      0x00\n        /* \"ApplicantPool.sol\":4069:4074  index */\n      dup3\n        /* \"ApplicantPool.sol\":4055:4075  applicantList[index] */\n      dup2\n      sload\n      dup2\n      lt\n      tag_177\n      jumpi\n      tag_178\n      tag_121\n      jump\t// in\n    tag_178:\n    tag_177:\n      swap1\n      0x00\n      mstore\n      keccak256(0x00, 0x20)\n      add\n      0x00\n      swap1\n      sload\n      swap1\n      0x0100\n      exp\n      swap1\n      div\n      0xffffffffffffffffffffffffffffffffffffffff\n      and\n        /* \"ApplicantPool.sol\":4055:4088  applicantList[index] == applicant */\n      0xffffffffffffffffffffffffffffffffffffffff\n      and\n      sub\n        /* \"ApplicantPool.sol\":4051:4130  if (applicantList[index] == applicant) {... */\n      iszero\n        /* \"ApplicantPool.sol\":4109:4114  break */\n      tag_175\n        /* \"ApplicantPool.sol\":4051:4130  if (applicantList[index] == applicant) {... */\n      jumpi\n        /* \"ApplicantPool.sol\":4027:4034  index++ */\n      dup1\n      dup1\n      tag_181\n      swap1\n      tag_125\n      jump\t// in\n    tag_181:\n      swap2\n      pop\n      pop\n        /* \"ApplicantPool.sol\":3981:4141  for (index = 0; index < applicantList.length; index++) {... */\n      jump(tag_174)\n    tag_175:\n        /* \"ApplicantPool.sol\":4174:4187  applicantList */\n      0x00\n        /* \"ApplicantPool.sol\":4211:4212  1 */\n      0x01\n        /* \"ApplicantPool.sol\":4188:4201  applicantList */\n      0x00\n        /* \"ApplicantPool.sol\":4188:4208  applicantList.length */\n      dup1\n      sload\n      swap1\n      pop\n        /* \"ApplicantPool.sol\":4188:4212  applicantList.length - 1 */\n      tag_182\n      swap2\n      swap1\n      tag_183\n      jump\t// in\n    tag_182:\n        /* \"ApplicantPool.sol\":4174:4213  applicantList[applicantList.length - 1] */\n      dup2\n      sload\n      dup2\n      lt\n      tag_184\n      jumpi\n      tag_185\n      tag_121\n      jump\t// in\n    tag_185:\n    tag_184:\n      swap1\n      0x00\n      mstore\n      keccak256(0x00, 0x20)\n      add\n      0x00\n      swap1\n      sload\n      swap1\n      0x0100\n      exp\n      swap1\n      div\n      0xffffffffffffffffffffffffffffffffffffffff\n      and\n        /* \"ApplicantPool.sol\":4151:4164  applicantList */\n      0x00\n        /* \"ApplicantPool.sol\":4165:4170  index */\n      dup3\n        /* \"ApplicantPool.sol\":4151:4171  applicantList[index] */\n      dup2\n      sload\n      dup2\n      lt\n      tag_187\n      jumpi\n      tag_188\n      tag_121\n      jump\t// in\n    tag_188:\n    tag_187:\n      swap1\n      0x00\n      mstore\n      keccak256(0x00, 0x20)\n      add\n      0x00\n        /* \"ApplicantPool.sol\":4151:4213  applicantList[index] = applicantList[applicantList.length - 1] */\n      0x0100\n      exp\n      dup2\n      sload\n      dup2\n      0xffffffffffffffffffffffffffffffffffffffff\n      mul\n      not\n      and\n      swap1\n      dup4\n      0xffffffffffffffffffffffffffffffffffffffff\n      and\n      mul\n      or\n      swap1\n      sstore\n      pop\n        /* \"ApplicantPool.sol\":4224:4237  applicantList */\n      0x00\n        /* \"ApplicantPool.sol\":4224:4243  applicantList.pop() */\n      dup1\n      sload\n      dup1\n      tag_190\n      jumpi\n      tag_191\n      tag_192\n      jump\t// in\n    tag_191:\n    tag_190:\n      0x01\n      swap1\n      sub\n      dup2\n      dup2\n      swap1\n      0x00\n      mstore\n      keccak256(0x00, 0x20)\n      add\n      exp(0x0100, 0x00)\n      dup2\n      sload\n      swap1\n      0xffffffffffffffffffffffffffffffffffffffff\n      mul\n      not\n      and\n      swap1\n      sstore\n      swap1\n      sstore\n        /* \"ApplicantPool.sol\":3942:4251  {... */\n      pop\n        /* \"ApplicantPool.sol\":3890:4251  function _burnApplicant(address applicant) internal {... */\n      pop\n      jump\t// out\n    tag_93:\n      pop\n      dup1\n      sload\n      0x00\n      dup3\n      sstore\n      swap1\n      0x00\n      mstore\n      keccak256(0x00, 0x20)\n      swap1\n      dup2\n      add\n      swap1\n      tag_195\n      swap2\n      swap1\n      tag_196\n      jump\t// in\n    tag_195:\n      pop\n      jump\t// out\n    tag_196:\n    tag_197:\n      dup1\n      dup3\n      gt\n      iszero\n      tag_198\n      jumpi\n      0x00\n      dup2\n      0x00\n      swap1\n      sstore\n      pop\n      0x01\n      add\n      jump(tag_197)\n    tag_198:\n      pop\n      swap1\n      jump\t// out\n        /* \"#utility.yul\":88:205   */\n    tag_200:\n        /* \"#utility.yul\":197:198   */\n      0x00\n        /* \"#utility.yul\":194:195   */\n      dup1\n        /* \"#utility.yul\":187:199   */\n      revert\n        /* \"#utility.yul\":211:328   */\n    tag_201:\n        /* \"#utility.yul\":320:321   */\n      0x00\n        /* \"#utility.yul\":317:318   */\n      dup1\n        /* \"#utility.yul\":310:322   */\n      revert\n        /* \"#utility.yul\":334:460   */\n    tag_202:\n        /* \"#utility.yul\":371:378   */\n      0x00\n        /* \"#utility.yul\":411:453   */\n      0xffffffffffffffffffffffffffffffffffffffff\n        /* \"#utility.yul\":404:409   */\n      dup3\n        /* \"#utility.yul\":400:454   */\n      and\n        /* \"#utility.yul\":389:454   */\n      swap1\n      pop\n        /* \"#utility.yul\":334:460   */\n      swap2\n      swap1\n      pop\n      jump\t// out\n        /* \"#utility.yul\":466:562   */\n    tag_203:\n        /* \"#utility.yul\":503:510   */\n      0x00\n        /* \"#utility.yul\":532:556   */\n      tag_275\n        /* \"#utility.yul\":550:555   */\n      dup3\n        /* \"#utility.yul\":532:556   */\n      tag_202\n      jump\t// in\n    tag_275:\n        /* \"#utility.yul\":521:556   */\n      swap1\n      pop\n        /* \"#utility.yul\":466:562   */\n      swap2\n      swap1\n      pop\n      jump\t// out\n        /* \"#utility.yul\":568:690   */\n    tag_204:\n        /* \"#utility.yul\":641:665   */\n      tag_277\n        /* \"#utility.yul\":659:664   */\n      dup2\n        /* \"#utility.yul\":641:665   */\n      tag_203\n      jump\t// in\n    tag_277:\n        /* \"#utility.yul\":634:639   */\n      dup2\n        /* \"#utility.yul\":631:666   */\n      eq\n        /* \"#utility.yul\":621:684   */\n      tag_278\n      jumpi\n        /* \"#utility.yul\":680:681   */\n      0x00\n        /* \"#utility.yul\":677:678   */\n      dup1\n        /* \"#utility.yul\":670:682   */\n      revert\n        /* \"#utility.yul\":621:684   */\n    tag_278:\n        /* \"#utility.yul\":568:690   */\n      pop\n      jump\t// out\n        /* \"#utility.yul\":696:835   */\n    tag_205:\n        /* \"#utility.yul\":742:747   */\n      0x00\n        /* \"#utility.yul\":780:786   */\n      dup2\n        /* \"#utility.yul\":767:787   */\n      calldataload\n        /* \"#utility.yul\":758:787   */\n      swap1\n      pop\n        /* \"#utility.yul\":796:829   */\n      tag_280\n        /* \"#utility.yul\":823:828   */\n      dup2\n        /* \"#utility.yul\":796:829   */\n      tag_204\n      jump\t// in\n    tag_280:\n        /* \"#utility.yul\":696:835   */\n      swap3\n      swap2\n      pop\n      pop\n      jump\t// out\n        /* \"#utility.yul\":841:1170   */\n    tag_16:\n        /* \"#utility.yul\":900:906   */\n      0x00\n        /* \"#utility.yul\":949:951   */\n      0x20\n        /* \"#utility.yul\":937:946   */\n      dup3\n        /* \"#utility.yul\":928:935   */\n      dup5\n        /* \"#utility.yul\":924:947   */\n      sub\n        /* \"#utility.yul\":920:952   */\n      slt\n        /* \"#utility.yul\":917:1036   */\n      iszero\n      tag_282\n      jumpi\n        /* \"#utility.yul\":955:1034   */\n      tag_283\n      tag_200\n      jump\t// in\n    tag_283:\n        /* \"#utility.yul\":917:1036   */\n    tag_282:\n        /* \"#utility.yul\":1075:1076   */\n      0x00\n        /* \"#utility.yul\":1100:1153   */\n      tag_284\n        /* \"#utility.yul\":1145:1152   */\n      dup5\n        /* \"#utility.yul\":1136:1142   */\n      dup3\n        /* \"#utility.yul\":1125:1134   */\n      dup6\n        /* \"#utility.yul\":1121:1143   */\n      add\n        /* \"#utility.yul\":1100:1153   */\n      tag_205\n      jump\t// in\n    tag_284:\n        /* \"#utility.yul\":1090:1153   */\n      swap2\n      pop\n        /* \"#utility.yul\":1046:1163   */\n      pop\n        /* \"#utility.yul\":841:1170   */\n      swap3\n      swap2\n      pop\n      pop\n      jump\t// out\n        /* \"#utility.yul\":1176:1275   */\n    tag_206:\n        /* \"#utility.yul\":1228:1234   */\n      0x00\n        /* \"#utility.yul\":1262:1267   */\n      dup2\n        /* \"#utility.yul\":1256:1268   */\n      mload\n        /* \"#utility.yul\":1246:1268   */\n      swap1\n      pop\n        /* \"#utility.yul\":1176:1275   */\n      swap2\n      swap1\n      pop\n      jump\t// out\n        /* \"#utility.yul\":1281:1450   */\n    tag_207:\n        /* \"#utility.yul\":1365:1376   */\n      0x00\n        /* \"#utility.yul\":1399:1405   */\n      dup3\n        /* \"#utility.yul\":1394:1397   */\n      dup3\n        /* \"#utility.yul\":1387:1406   */\n      mstore\n        /* \"#utility.yul\":1439:1443   */\n      0x20\n        /* \"#utility.yul\":1434:1437   */\n      dup3\n        /* \"#utility.yul\":1430:1444   */\n      add\n        /* \"#utility.yul\":1415:1444   */\n      swap1\n      pop\n        /* \"#utility.yul\":1281:1450   */\n      swap3\n      swap2\n      pop\n      pop\n      jump\t// out\n        /* \"#utility.yul\":1456:1702   */\n    tag_208:\n        /* \"#utility.yul\":1537:1538   */\n      0x00\n        /* \"#utility.yul\":1547:1660   */\n    tag_288:\n        /* \"#utility.yul\":1561:1567   */\n      dup4\n        /* \"#utility.yul\":1558:1559   */\n      dup2\n        /* \"#utility.yul\":1555:1568   */\n      lt\n        /* \"#utility.yul\":1547:1660   */\n      iszero\n      tag_290\n      jumpi\n        /* \"#utility.yul\":1646:1647   */\n      dup1\n        /* \"#utility.yul\":1641:1644   */\n      dup3\n        /* \"#utility.yul\":1637:1648   */\n      add\n        /* \"#utility.yul\":1631:1649   */\n      mload\n        /* \"#utility.yul\":1627:1628   */\n      dup2\n        /* \"#utility.yul\":1622:1625   */\n      dup5\n        /* \"#utility.yul\":1618:1629   */\n      add\n        /* \"#utility.yul\":1611:1650   */\n      mstore\n        /* \"#utility.yul\":1583:1585   */\n      0x20\n        /* \"#utility.yul\":1580:1581   */\n      dup2\n        /* \"#utility.yul\":1576:1586   */\n      add\n        /* \"#utility.yul\":1571:1586   */\n      swap1\n      pop\n        /* \"#utility.yul\":1547:1660   */\n      jump(tag_288)\n    tag_290:\n        /* \"#utility.yul\":1694:1695   */\n      0x00\n        /* \"#utility.yul\":1685:1691   */\n      dup5\n        /* \"#utility.yul\":1680:1683   */\n      dup5\n        /* \"#utility.yul\":1676:1692   */\n      add\n        /* \"#utility.yul\":1669:1696   */\n      mstore\n        /* \"#utility.yul\":1518:1702   */\n      pop\n        /* \"#utility.yul\":1456:1702   */\n      pop\n      pop\n      pop\n      jump\t// out\n        /* \"#utility.yul\":1708:1810   */\n    tag_209:\n        /* \"#utility.yul\":1749:1755   */\n      0x00\n        /* \"#utility.yul\":1800:1802   */\n      0x1f\n        /* \"#utility.yul\":1796:1803   */\n      not\n        /* \"#utility.yul\":1791:1793   */\n      0x1f\n        /* \"#utility.yul\":1784:1789   */\n      dup4\n        /* \"#utility.yul\":1780:1794   */\n      add\n        /* \"#utility.yul\":1776:1804   */\n      and\n        /* \"#utility.yul\":1766:1804   */\n      swap1\n      pop\n        /* \"#utility.yul\":1708:1810   */\n      swap2\n      swap1\n      pop\n      jump\t// out\n        /* \"#utility.yul\":1816:2193   */\n    tag_210:\n        /* \"#utility.yul\":1904:1907   */\n      0x00\n        /* \"#utility.yul\":1932:1971   */\n      tag_293\n        /* \"#utility.yul\":1965:1970   */\n      dup3\n        /* \"#utility.yul\":1932:1971   */\n      tag_206\n      jump\t// in\n    tag_293:\n        /* \"#utility.yul\":1987:2058   */\n      tag_294\n        /* \"#utility.yul\":2051:2057   */\n      dup2\n        /* \"#utility.yul\":2046:2049   */\n      dup6\n        /* \"#utility.yul\":1987:2058   */\n      tag_207\n      jump\t// in\n    tag_294:\n        /* \"#utility.yul\":1980:2058   */\n      swap4\n      pop\n        /* \"#utility.yul\":2067:2132   */\n      tag_295\n        /* \"#utility.yul\":2125:2131   */\n      dup2\n        /* \"#utility.yul\":2120:2123   */\n      dup6\n        /* \"#utility.yul\":2113:2117   */\n      0x20\n        /* \"#utility.yul\":2106:2111   */\n      dup7\n        /* \"#utility.yul\":2102:2118   */\n      add\n        /* \"#utility.yul\":2067:2132   */\n      tag_208\n      jump\t// in\n    tag_295:\n        /* \"#utility.yul\":2157:2186   */\n      tag_296\n        /* \"#utility.yul\":2179:2185   */\n      dup2\n        /* \"#utility.yul\":2157:2186   */\n      tag_209\n      jump\t// in\n    tag_296:\n        /* \"#utility.yul\":2152:2155   */\n      dup5\n        /* \"#utility.yul\":2148:2187   */\n      add\n        /* \"#utility.yul\":2141:2187   */\n      swap2\n      pop\n        /* \"#utility.yul\":1908:2193   */\n      pop\n        /* \"#utility.yul\":1816:2193   */\n      swap3\n      swap2\n      pop\n      pop\n      jump\t// out\n        /* \"#utility.yul\":2199:2512   */\n    tag_19:\n        /* \"#utility.yul\":2312:2316   */\n      0x00\n        /* \"#utility.yul\":2350:2352   */\n      0x20\n        /* \"#utility.yul\":2339:2348   */\n      dup3\n        /* \"#utility.yul\":2335:2353   */\n      add\n        /* \"#utility.yul\":2327:2353   */\n      swap1\n      pop\n        /* \"#utility.yul\":2399:2408   */\n      dup2\n        /* \"#utility.yul\":2393:2397   */\n      dup2\n        /* \"#utility.yul\":2389:2409   */\n      sub\n        /* \"#utility.yul\":2385:2386   */\n      0x00\n        /* \"#utility.yul\":2374:2383   */\n      dup4\n        /* \"#utility.yul\":2370:2387   */\n      add\n        /* \"#utility.yul\":2363:2410   */\n      mstore\n        /* \"#utility.yul\":2427:2505   */\n      tag_298\n        /* \"#utility.yul\":2500:2504   */\n      dup2\n        /* \"#utility.yul\":2491:2497   */\n      dup5\n        /* \"#utility.yul\":2427:2505   */\n      tag_210\n      jump\t// in\n    tag_298:\n        /* \"#utility.yul\":2419:2505   */\n      swap1\n      pop\n        /* \"#utility.yul\":2199:2512   */\n      swap3\n      swap2\n      pop\n      pop\n      jump\t// out\n        /* \"#utility.yul\":2518:2632   */\n    tag_211:\n        /* \"#utility.yul\":2585:2591   */\n      0x00\n        /* \"#utility.yul\":2619:2624   */\n      dup2\n        /* \"#utility.yul\":2613:2625   */\n      mload\n        /* \"#utility.yul\":2603:2625   */\n      swap1\n      pop\n        /* \"#utility.yul\":2518:2632   */\n      swap2\n      swap1\n      pop\n      jump\t// out\n        /* \"#utility.yul\":2638:2822   */\n    tag_212:\n        /* \"#utility.yul\":2737:2748   */\n      0x00\n        /* \"#utility.yul\":2771:2777   */\n      dup3\n        /* \"#utility.yul\":2766:2769   */\n      dup3\n        /* \"#utility.yul\":2759:2778   */\n      mstore\n        /* \"#utility.yul\":2811:2815   */\n      0x20\n        /* \"#utility.yul\":2806:2809   */\n      dup3\n        /* \"#utility.yul\":2802:2816   */\n      add\n        /* \"#utility.yul\":2787:2816   */\n      swap1\n      pop\n        /* \"#utility.yul\":2638:2822   */\n      swap3\n      swap2\n      pop\n      pop\n      jump\t// out\n        /* \"#utility.yul\":2828:2960   */\n    tag_213:\n        /* \"#utility.yul\":2895:2899   */\n      0x00\n        /* \"#utility.yul\":2918:2921   */\n      dup2\n        /* \"#utility.yul\":2910:2921   */\n      swap1\n      pop\n        /* \"#utility.yul\":2948:2952   */\n      0x20\n        /* \"#utility.yul\":2943:2946   */\n      dup3\n        /* \"#utility.yul\":2939:2953   */\n      add\n        /* \"#utility.yul\":2931:2953   */\n      swap1\n      pop\n        /* \"#utility.yul\":2828:2960   */\n      swap2\n      swap1\n      pop\n      jump\t// out\n        /* \"#utility.yul\":2966:3074   */\n    tag_214:\n        /* \"#utility.yul\":3043:3067   */\n      tag_303\n        /* \"#utility.yul\":3061:3066   */\n      dup2\n        /* \"#utility.yul\":3043:3067   */\n      tag_203\n      jump\t// in\n    tag_303:\n        /* \"#utility.yul\":3038:3041   */\n      dup3\n        /* \"#utility.yul\":3031:3068   */\n      mstore\n        /* \"#utility.yul\":2966:3074   */\n      pop\n      pop\n      jump\t// out\n        /* \"#utility.yul\":3080:3259   */\n    tag_215:\n        /* \"#utility.yul\":3149:3159   */\n      0x00\n        /* \"#utility.yul\":3170:3216   */\n      tag_305\n        /* \"#utility.yul\":3212:3215   */\n      dup4\n        /* \"#utility.yul\":3204:3210   */\n      dup4\n        /* \"#utility.yul\":3170:3216   */\n      tag_214\n      jump\t// in\n    tag_305:\n        /* \"#utility.yul\":3248:3252   */\n      0x20\n        /* \"#utility.yul\":3243:3246   */\n      dup4\n        /* \"#utility.yul\":3239:3253   */\n      add\n        /* \"#utility.yul\":3225:3253   */\n      swap1\n      pop\n        /* \"#utility.yul\":3080:3259   */\n      swap3\n      swap2\n      pop\n      pop\n      jump\t// out\n        /* \"#utility.yul\":3265:3378   */\n    tag_216:\n        /* \"#utility.yul\":3335:3339   */\n      0x00\n        /* \"#utility.yul\":3367:3371   */\n      0x20\n        /* \"#utility.yul\":3362:3365   */\n      dup3\n        /* \"#utility.yul\":3358:3372   */\n      add\n        /* \"#utility.yul\":3350:3372   */\n      swap1\n      pop\n        /* \"#utility.yul\":3265:3378   */\n      swap2\n      swap1\n      pop\n      jump\t// out\n        /* \"#utility.yul\":3414:4146   */\n    tag_217:\n        /* \"#utility.yul\":3533:3536   */\n      0x00\n        /* \"#utility.yul\":3562:3616   */\n      tag_308\n        /* \"#utility.yul\":3610:3615   */\n      dup3\n        /* \"#utility.yul\":3562:3616   */\n      tag_211\n      jump\t// in\n    tag_308:\n        /* \"#utility.yul\":3632:3718   */\n      tag_309\n        /* \"#utility.yul\":3711:3717   */\n      dup2\n        /* \"#utility.yul\":3706:3709   */\n      dup6\n        /* \"#utility.yul\":3632:3718   */\n      tag_212\n      jump\t// in\n    tag_309:\n        /* \"#utility.yul\":3625:3718   */\n      swap4\n      pop\n        /* \"#utility.yul\":3742:3798   */\n      tag_310\n        /* \"#utility.yul\":3792:3797   */\n      dup4\n        /* \"#utility.yul\":3742:3798   */\n      tag_213\n      jump\t// in\n    tag_310:\n        /* \"#utility.yul\":3821:3828   */\n      dup1\n        /* \"#utility.yul\":3852:3853   */\n      0x00\n        /* \"#utility.yul\":3837:4121   */\n    tag_311:\n        /* \"#utility.yul\":3862:3868   */\n      dup4\n        /* \"#utility.yul\":3859:3860   */\n      dup2\n        /* \"#utility.yul\":3856:3869   */\n      lt\n        /* \"#utility.yul\":3837:4121   */\n      iszero\n      tag_313\n      jumpi\n        /* \"#utility.yul\":3938:3944   */\n      dup2\n        /* \"#utility.yul\":3932:3945   */\n      mload\n        /* \"#utility.yul\":3965:4028   */\n      tag_314\n        /* \"#utility.yul\":4024:4027   */\n      dup9\n        /* \"#utility.yul\":4009:4022   */\n      dup3\n        /* \"#utility.yul\":3965:4028   */\n      tag_215\n      jump\t// in\n    tag_314:\n        /* \"#utility.yul\":3958:4028   */\n      swap8\n      pop\n        /* \"#utility.yul\":4051:4111   */\n      tag_315\n        /* \"#utility.yul\":4104:4110   */\n      dup4\n        /* \"#utility.yul\":4051:4111   */\n      tag_216\n      jump\t// in\n    tag_315:\n        /* \"#utility.yul\":4041:4111   */\n      swap3\n      pop\n        /* \"#utility.yul\":3897:4121   */\n      pop\n        /* \"#utility.yul\":3884:3885   */\n      0x01\n        /* \"#utility.yul\":3881:3882   */\n      dup2\n        /* \"#utility.yul\":3877:3886   */\n      add\n        /* \"#utility.yul\":3872:3886   */\n      swap1\n      pop\n        /* \"#utility.yul\":3837:4121   */\n      jump(tag_311)\n    tag_313:\n        /* \"#utility.yul\":3841:3855   */\n      pop\n        /* \"#utility.yul\":4137:4140   */\n      dup6\n        /* \"#utility.yul\":4130:4140   */\n      swap4\n      pop\n        /* \"#utility.yul\":3538:4146   */\n      pop\n      pop\n      pop\n        /* \"#utility.yul\":3414:4146   */\n      swap3\n      swap2\n      pop\n      pop\n      jump\t// out\n        /* \"#utility.yul\":4152:4525   */\n    tag_36:\n        /* \"#utility.yul\":4295:4299   */\n      0x00\n        /* \"#utility.yul\":4333:4335   */\n      0x20\n        /* \"#utility.yul\":4322:4331   */\n      dup3\n        /* \"#utility.yul\":4318:4336   */\n      add\n        /* \"#utility.yul\":4310:4336   */\n      swap1\n      pop\n        /* \"#utility.yul\":4382:4391   */\n      dup2\n        /* \"#utility.yul\":4376:4380   */\n      dup2\n        /* \"#utility.yul\":4372:4392   */\n      sub\n        /* \"#utility.yul\":4368:4369   */\n      0x00\n        /* \"#utility.yul\":4357:4366   */\n      dup4\n        /* \"#utility.yul\":4353:4370   */\n      add\n        /* \"#utility.yul\":4346:4393   */\n      mstore\n        /* \"#utility.yul\":4410:4518   */\n      tag_317\n        /* \"#utility.yul\":4513:4517   */\n      dup2\n        /* \"#utility.yul\":4504:4510   */\n      dup5\n        /* \"#utility.yul\":4410:4518   */\n      tag_217\n      jump\t// in\n    tag_317:\n        /* \"#utility.yul\":4402:4518   */\n      swap1\n      pop\n        /* \"#utility.yul\":4152:4525   */\n      swap3\n      swap2\n      pop\n      pop\n      jump\t// out\n        /* \"#utility.yul\":4531:4608   */\n    tag_218:\n        /* \"#utility.yul\":4568:4575   */\n      0x00\n        /* \"#utility.yul\":4597:4602   */\n      dup2\n        /* \"#utility.yul\":4586:4602   */\n      swap1\n      pop\n        /* \"#utility.yul\":4531:4608   */\n      swap2\n      swap1\n      pop\n      jump\t// out\n        /* \"#utility.yul\":4614:4736   */\n    tag_219:\n        /* \"#utility.yul\":4687:4711   */\n      tag_320\n        /* \"#utility.yul\":4705:4710   */\n      dup2\n        /* \"#utility.yul\":4687:4711   */\n      tag_218\n      jump\t// in\n    tag_320:\n        /* \"#utility.yul\":4680:4685   */\n      dup2\n        /* \"#utility.yul\":4677:4712   */\n      eq\n        /* \"#utility.yul\":4667:4730   */\n      tag_321\n      jumpi\n        /* \"#utility.yul\":4726:4727   */\n      0x00\n        /* \"#utility.yul\":4723:4724   */\n      dup1\n        /* \"#utility.yul\":4716:4728   */\n      revert\n        /* \"#utility.yul\":4667:4730   */\n    tag_321:\n        /* \"#utility.yul\":4614:4736   */\n      pop\n      jump\t// out\n        /* \"#utility.yul\":4742:4881   */\n    tag_220:\n        /* \"#utility.yul\":4788:4793   */\n      0x00\n        /* \"#utility.yul\":4826:4832   */\n      dup2\n        /* \"#utility.yul\":4813:4833   */\n      calldataload\n        /* \"#utility.yul\":4804:4833   */\n      swap1\n      pop\n        /* \"#utility.yul\":4842:4875   */\n      tag_323\n        /* \"#utility.yul\":4869:4874   */\n      dup2\n        /* \"#utility.yul\":4842:4875   */\n      tag_219\n      jump\t// in\n    tag_323:\n        /* \"#utility.yul\":4742:4881   */\n      swap3\n      swap2\n      pop\n      pop\n      jump\t// out\n        /* \"#utility.yul\":4887:5216   */\n    tag_40:\n        /* \"#utility.yul\":4946:4952   */\n      0x00\n        /* \"#utility.yul\":4995:4997   */\n      0x20\n        /* \"#utility.yul\":4983:4992   */\n      dup3\n        /* \"#utility.yul\":4974:4981   */\n      dup5\n        /* \"#utility.yul\":4970:4993   */\n      sub\n        /* \"#utility.yul\":4966:4998   */\n      slt\n        /* \"#utility.yul\":4963:5082   */\n      iszero\n      tag_325\n      jumpi\n        /* \"#utility.yul\":5001:5080   */\n      tag_326\n      tag_200\n      jump\t// in\n    tag_326:\n        /* \"#utility.yul\":4963:5082   */\n    tag_325:\n        /* \"#utility.yul\":5121:5122   */\n      0x00\n        /* \"#utility.yul\":5146:5199   */\n      tag_327\n        /* \"#utility.yul\":5191:5198   */\n      dup5\n        /* \"#utility.yul\":5182:5188   */\n      dup3\n        /* \"#utility.yul\":5171:5180   */\n      dup6\n        /* \"#utility.yul\":5167:5189   */\n      add\n        /* \"#utility.yul\":5146:5199   */\n      tag_220\n      jump\t// in\n    tag_327:\n        /* \"#utility.yul\":5136:5199   */\n      swap2\n      pop\n        /* \"#utility.yul\":5092:5209   */\n      pop\n        /* \"#utility.yul\":4887:5216   */\n      swap3\n      swap2\n      pop\n      pop\n      jump\t// out\n        /* \"#utility.yul\":5222:5340   */\n    tag_221:\n        /* \"#utility.yul\":5309:5333   */\n      tag_329\n        /* \"#utility.yul\":5327:5332   */\n      dup2\n        /* \"#utility.yul\":5309:5333   */\n      tag_203\n      jump\t// in\n    tag_329:\n        /* \"#utility.yul\":5304:5307   */\n      dup3\n        /* \"#utility.yul\":5297:5334   */\n      mstore\n        /* \"#utility.yul\":5222:5340   */\n      pop\n      pop\n      jump\t// out\n        /* \"#utility.yul\":5346:5568   */\n    tag_43:\n        /* \"#utility.yul\":5439:5443   */\n      0x00\n        /* \"#utility.yul\":5477:5479   */\n      0x20\n        /* \"#utility.yul\":5466:5475   */\n      dup3\n        /* \"#utility.yul\":5462:5480   */\n      add\n        /* \"#utility.yul\":5454:5480   */\n      swap1\n      pop\n        /* \"#utility.yul\":5490:5561   */\n      tag_331\n        /* \"#utility.yul\":5558:5559   */\n      0x00\n        /* \"#utility.yul\":5547:5556   */\n      dup4\n        /* \"#utility.yul\":5543:5560   */\n      add\n        /* \"#utility.yul\":5534:5540   */\n      dup5\n        /* \"#utility.yul\":5490:5561   */\n      tag_221\n      jump\t// in\n    tag_331:\n        /* \"#utility.yul\":5346:5568   */\n      swap3\n      swap2\n      pop\n      pop\n      jump\t// out\n        /* \"#utility.yul\":5574:5692   */\n    tag_222:\n        /* \"#utility.yul\":5661:5685   */\n      tag_333\n        /* \"#utility.yul\":5679:5684   */\n      dup2\n        /* \"#utility.yul\":5661:5685   */\n      tag_218\n      jump\t// in\n    tag_333:\n        /* \"#utility.yul\":5656:5659   */\n      dup3\n        /* \"#utility.yul\":5649:5686   */\n      mstore\n        /* \"#utility.yul\":5574:5692   */\n      pop\n      pop\n      jump\t// out\n        /* \"#utility.yul\":5698:5920   */\n    tag_49:\n        /* \"#utility.yul\":5791:5795   */\n      0x00\n        /* \"#utility.yul\":5829:5831   */\n      0x20\n        /* \"#utility.yul\":5818:5827   */\n      dup3\n        /* \"#utility.yul\":5814:5832   */\n      add\n        /* \"#utility.yul\":5806:5832   */\n      swap1\n      pop\n        /* \"#utility.yul\":5842:5913   */\n      tag_335\n        /* \"#utility.yul\":5910:5911   */\n      0x00\n        /* \"#utility.yul\":5899:5908   */\n      dup4\n        /* \"#utility.yul\":5895:5912   */\n      add\n        /* \"#utility.yul\":5886:5892   */\n      dup5\n        /* \"#utility.yul\":5842:5913   */\n      tag_222\n      jump\t// in\n    tag_335:\n        /* \"#utility.yul\":5698:5920   */\n      swap3\n      swap2\n      pop\n      pop\n      jump\t// out\n        /* \"#utility.yul\":5926:6043   */\n    tag_223:\n        /* \"#utility.yul\":6035:6036   */\n      0x00\n        /* \"#utility.yul\":6032:6033   */\n      dup1\n        /* \"#utility.yul\":6025:6037   */\n      revert\n        /* \"#utility.yul\":6049:6166   */\n    tag_224:\n        /* \"#utility.yul\":6158:6159   */\n      0x00\n        /* \"#utility.yul\":6155:6156   */\n      dup1\n        /* \"#utility.yul\":6148:6160   */\n      revert\n        /* \"#utility.yul\":6172:6289   */\n    tag_225:\n        /* \"#utility.yul\":6281:6282   */\n      0x00\n        /* \"#utility.yul\":6278:6279   */\n      dup1\n        /* \"#utility.yul\":6271:6283   */\n      revert\n        /* \"#utility.yul\":6309:6862   */\n    tag_226:\n        /* \"#utility.yul\":6367:6375   */\n      0x00\n        /* \"#utility.yul\":6377:6383   */\n      dup1\n        /* \"#utility.yul\":6427:6430   */\n      dup4\n        /* \"#utility.yul\":6420:6424   */\n      0x1f\n        /* \"#utility.yul\":6412:6418   */\n      dup5\n        /* \"#utility.yul\":6408:6425   */\n      add\n        /* \"#utility.yul\":6404:6431   */\n      slt\n        /* \"#utility.yul\":6394:6516   */\n      tag_340\n      jumpi\n        /* \"#utility.yul\":6435:6514   */\n      tag_341\n      tag_223\n      jump\t// in\n    tag_341:\n        /* \"#utility.yul\":6394:6516   */\n    tag_340:\n        /* \"#utility.yul\":6548:6554   */\n      dup3\n        /* \"#utility.yul\":6535:6555   */\n      calldataload\n        /* \"#utility.yul\":6525:6555   */\n      swap1\n      pop\n        /* \"#utility.yul\":6578:6596   */\n      0xffffffffffffffff\n        /* \"#utility.yul\":6570:6576   */\n      dup2\n        /* \"#utility.yul\":6567:6597   */\n      gt\n        /* \"#utility.yul\":6564:6681   */\n      iszero\n      tag_342\n      jumpi\n        /* \"#utility.yul\":6600:6679   */\n      tag_343\n      tag_224\n      jump\t// in\n    tag_343:\n        /* \"#utility.yul\":6564:6681   */\n    tag_342:\n        /* \"#utility.yul\":6714:6718   */\n      0x20\n        /* \"#utility.yul\":6706:6712   */\n      dup4\n        /* \"#utility.yul\":6702:6719   */\n      add\n        /* \"#utility.yul\":6690:6719   */\n      swap2\n      pop\n        /* \"#utility.yul\":6768:6771   */\n      dup4\n        /* \"#utility.yul\":6760:6764   */\n      0x01\n        /* \"#utility.yul\":6752:6758   */\n      dup3\n        /* \"#utility.yul\":6748:6765   */\n      mul\n        /* \"#utility.yul\":6738:6746   */\n      dup4\n        /* \"#utility.yul\":6734:6766   */\n      add\n        /* \"#utility.yul\":6731:6772   */\n      gt\n        /* \"#utility.yul\":6728:6856   */\n      iszero\n      tag_344\n      jumpi\n        /* \"#utility.yul\":6775:6854   */\n      tag_345\n      tag_225\n      jump\t// in\n    tag_345:\n        /* \"#utility.yul\":6728:6856   */\n    tag_344:\n        /* \"#utility.yul\":6309:6862   */\n      swap3\n      pop\n      swap3\n      swap1\n      pop\n      jump\t// out\n        /* \"#utility.yul\":6868:7397   */\n    tag_61:\n        /* \"#utility.yul\":6939:6945   */\n      0x00\n        /* \"#utility.yul\":6947:6953   */\n      dup1\n        /* \"#utility.yul\":6996:6998   */\n      0x20\n        /* \"#utility.yul\":6984:6993   */\n      dup4\n        /* \"#utility.yul\":6975:6982   */\n      dup6\n        /* \"#utility.yul\":6971:6994   */\n      sub\n        /* \"#utility.yul\":6967:6999   */\n      slt\n        /* \"#utility.yul\":6964:7083   */\n      iszero\n      tag_347\n      jumpi\n        /* \"#utility.yul\":7002:7081   */\n      tag_348\n      tag_200\n      jump\t// in\n    tag_348:\n        /* \"#utility.yul\":6964:7083   */\n    tag_347:\n        /* \"#utility.yul\":7150:7151   */\n      0x00\n        /* \"#utility.yul\":7139:7148   */\n      dup4\n        /* \"#utility.yul\":7135:7152   */\n      add\n        /* \"#utility.yul\":7122:7153   */\n      calldataload\n        /* \"#utility.yul\":7180:7198   */\n      0xffffffffffffffff\n        /* \"#utility.yul\":7172:7178   */\n      dup2\n        /* \"#utility.yul\":7169:7199   */\n      gt\n        /* \"#utility.yul\":7166:7283   */\n      iszero\n      tag_349\n      jumpi\n        /* \"#utility.yul\":7202:7281   */\n      tag_350\n      tag_201\n      jump\t// in\n    tag_350:\n        /* \"#utility.yul\":7166:7283   */\n    tag_349:\n        /* \"#utility.yul\":7315:7380   */\n      tag_351\n        /* \"#utility.yul\":7372:7379   */\n      dup6\n        /* \"#utility.yul\":7363:7369   */\n      dup3\n        /* \"#utility.yul\":7352:7361   */\n      dup7\n        /* \"#utility.yul\":7348:7370   */\n      add\n        /* \"#utility.yul\":7315:7380   */\n      tag_226\n      jump\t// in\n    tag_351:\n        /* \"#utility.yul\":7297:7380   */\n      swap3\n      pop\n      swap3\n      pop\n        /* \"#utility.yul\":7093:7390   */\n      pop\n        /* \"#utility.yul\":6868:7397   */\n      swap3\n      pop\n      swap3\n      swap1\n      pop\n      jump\t// out\n        /* \"#utility.yul\":7403:7735   */\n    tag_65:\n        /* \"#utility.yul\":7524:7528   */\n      0x00\n        /* \"#utility.yul\":7562:7564   */\n      0x40\n        /* \"#utility.yul\":7551:7560   */\n      dup3\n        /* \"#utility.yul\":7547:7565   */\n      add\n        /* \"#utility.yul\":7539:7565   */\n      swap1\n      pop\n        /* \"#utility.yul\":7575:7646   */\n      tag_353\n        /* \"#utility.yul\":7643:7644   */\n      0x00\n        /* \"#utility.yul\":7632:7641   */\n      dup4\n        /* \"#utility.yul\":7628:7645   */\n      add\n        /* \"#utility.yul\":7619:7625   */\n      dup6\n        /* \"#utility.yul\":7575:7646   */\n      tag_221\n      jump\t// in\n    tag_353:\n        /* \"#utility.yul\":7656:7728   */\n      tag_354\n        /* \"#utility.yul\":7724:7726   */\n      0x20\n        /* \"#utility.yul\":7713:7722   */\n      dup4\n        /* \"#utility.yul\":7709:7727   */\n      add\n        /* \"#utility.yul\":7700:7706   */\n      dup5\n        /* \"#utility.yul\":7656:7728   */\n      tag_221\n      jump\t// in\n    tag_354:\n        /* \"#utility.yul\":7403:7735   */\n      swap4\n      swap3\n      pop\n      pop\n      pop\n      jump\t// out\n        /* \"#utility.yul\":7741:7831   */\n    tag_227:\n        /* \"#utility.yul\":7775:7782   */\n      0x00\n        /* \"#utility.yul\":7818:7823   */\n      dup2\n        /* \"#utility.yul\":7811:7824   */\n      iszero\n        /* \"#utility.yul\":7804:7825   */\n      iszero\n        /* \"#utility.yul\":7793:7825   */\n      swap1\n      pop\n        /* \"#utility.yul\":7741:7831   */\n      swap2\n      swap1\n      pop\n      jump\t// out\n        /* \"#utility.yul\":7837:7953   */\n    tag_228:\n        /* \"#utility.yul\":7907:7928   */\n      tag_357\n        /* \"#utility.yul\":7922:7927   */\n      dup2\n        /* \"#utility.yul\":7907:7928   */\n      tag_227\n      jump\t// in\n    tag_357:\n        /* \"#utility.yul\":7900:7905   */\n      dup2\n        /* \"#utility.yul\":7897:7929   */\n      eq\n        /* \"#utility.yul\":7887:7947   */\n      tag_358\n      jumpi\n        /* \"#utility.yul\":7943:7944   */\n      0x00\n        /* \"#utility.yul\":7940:7941   */\n      dup1\n        /* \"#utility.yul\":7933:7945   */\n      revert\n        /* \"#utility.yul\":7887:7947   */\n    tag_358:\n        /* \"#utility.yul\":7837:7953   */\n      pop\n      jump\t// out\n        /* \"#utility.yul\":7959:8096   */\n    tag_229:\n        /* \"#utility.yul\":8013:8018   */\n      0x00\n        /* \"#utility.yul\":8044:8050   */\n      dup2\n        /* \"#utility.yul\":8038:8051   */\n      mload\n        /* \"#utility.yul\":8029:8051   */\n      swap1\n      pop\n        /* \"#utility.yul\":8060:8090   */\n      tag_360\n        /* \"#utility.yul\":8084:8089   */\n      dup2\n        /* \"#utility.yul\":8060:8090   */\n      tag_228\n      jump\t// in\n    tag_360:\n        /* \"#utility.yul\":7959:8096   */\n      swap3\n      swap2\n      pop\n      pop\n      jump\t// out\n        /* \"#utility.yul\":8102:8447   */\n    tag_69:\n        /* \"#utility.yul\":8169:8175   */\n      0x00\n        /* \"#utility.yul\":8218:8220   */\n      0x20\n        /* \"#utility.yul\":8206:8215   */\n      dup3\n        /* \"#utility.yul\":8197:8204   */\n      dup5\n        /* \"#utility.yul\":8193:8216   */\n      sub\n        /* \"#utility.yul\":8189:8221   */\n      slt\n        /* \"#utility.yul\":8186:8305   */\n      iszero\n      tag_362\n      jumpi\n        /* \"#utility.yul\":8224:8303   */\n      tag_363\n      tag_200\n      jump\t// in\n    tag_363:\n        /* \"#utility.yul\":8186:8305   */\n    tag_362:\n        /* \"#utility.yul\":8344:8345   */\n      0x00\n        /* \"#utility.yul\":8369:8430   */\n      tag_364\n        /* \"#utility.yul\":8422:8429   */\n      dup5\n        /* \"#utility.yul\":8413:8419   */\n      dup3\n        /* \"#utility.yul\":8402:8411   */\n      dup6\n        /* \"#utility.yul\":8398:8420   */\n      add\n        /* \"#utility.yul\":8369:8430   */\n      tag_229\n      jump\t// in\n    tag_364:\n        /* \"#utility.yul\":8359:8430   */\n      swap2\n      pop\n        /* \"#utility.yul\":8315:8440   */\n      pop\n        /* \"#utility.yul\":8102:8447   */\n      swap3\n      swap2\n      pop\n      pop\n      jump\t// out\n        /* \"#utility.yul\":8453:8627   */\n    tag_230:\n        /* \"#utility.yul\":8593:8619   */\n      0x526571756972656420746f2062652061206d656d656265720000000000000000\n        /* \"#utility.yul\":8589:8590   */\n      0x00\n        /* \"#utility.yul\":8581:8587   */\n      dup3\n        /* \"#utility.yul\":8577:8591   */\n      add\n        /* \"#utility.yul\":8570:8620   */\n      mstore\n        /* \"#utility.yul\":8453:8627   */\n      pop\n      jump\t// out\n        /* \"#utility.yul\":8633:8999   */\n    tag_231:\n        /* \"#utility.yul\":8775:8778   */\n      0x00\n        /* \"#utility.yul\":8796:8863   */\n      tag_367\n        /* \"#utility.yul\":8860:8862   */\n      0x18\n        /* \"#utility.yul\":8855:8858   */\n      dup4\n        /* \"#utility.yul\":8796:8863   */\n      tag_207\n      jump\t// in\n    tag_367:\n        /* \"#utility.yul\":8789:8863   */\n      swap2\n      pop\n        /* \"#utility.yul\":8872:8965   */\n      tag_368\n        /* \"#utility.yul\":8961:8964   */\n      dup3\n        /* \"#utility.yul\":8872:8965   */\n      tag_230\n      jump\t// in\n    tag_368:\n        /* \"#utility.yul\":8990:8992   */\n      0x20\n        /* \"#utility.yul\":8985:8988   */\n      dup3\n        /* \"#utility.yul\":8981:8993   */\n      add\n        /* \"#utility.yul\":8974:8993   */\n      swap1\n      pop\n        /* \"#utility.yul\":8633:8999   */\n      swap2\n      swap1\n      pop\n      jump\t// out\n        /* \"#utility.yul\":9005:9424   */\n    tag_72:\n        /* \"#utility.yul\":9171:9175   */\n      0x00\n        /* \"#utility.yul\":9209:9211   */\n      0x20\n        /* \"#utility.yul\":9198:9207   */\n      dup3\n        /* \"#utility.yul\":9194:9212   */\n      add\n        /* \"#utility.yul\":9186:9212   */\n      swap1\n      pop\n        /* \"#utility.yul\":9258:9267   */\n      dup2\n        /* \"#utility.yul\":9252:9256   */\n      dup2\n        /* \"#utility.yul\":9248:9268   */\n      sub\n        /* \"#utility.yul\":9244:9245   */\n      0x00\n        /* \"#utility.yul\":9233:9242   */\n      dup4\n        /* \"#utility.yul\":9229:9246   */\n      add\n        /* \"#utility.yul\":9222:9269   */\n      mstore\n        /* \"#utility.yul\":9286:9417   */\n      tag_370\n        /* \"#utility.yul\":9412:9416   */\n      dup2\n        /* \"#utility.yul\":9286:9417   */\n      tag_231\n      jump\t// in\n    tag_370:\n        /* \"#utility.yul\":9278:9417   */\n      swap1\n      pop\n        /* \"#utility.yul\":9005:9424   */\n      swap2\n      swap1\n      pop\n      jump\t// out\n        /* \"#utility.yul\":9430:9610   */\n    tag_232:\n        /* \"#utility.yul\":9478:9555   */\n      0x4e487b7100000000000000000000000000000000000000000000000000000000\n        /* \"#utility.yul\":9475:9476   */\n      0x00\n        /* \"#utility.yul\":9468:9556   */\n      mstore\n        /* \"#utility.yul\":9575:9579   */\n      0x22\n        /* \"#utility.yul\":9572:9573   */\n      0x04\n        /* \"#utility.yul\":9565:9580   */\n      mstore\n        /* \"#utility.yul\":9599:9603   */\n      0x24\n        /* \"#utility.yul\":9596:9597   */\n      0x00\n        /* \"#utility.yul\":9589:9604   */\n      revert\n        /* \"#utility.yul\":9616:9936   */\n    tag_75:\n        /* \"#utility.yul\":9660:9666   */\n      0x00\n        /* \"#utility.yul\":9697:9698   */\n      0x02\n        /* \"#utility.yul\":9691:9695   */\n      dup3\n        /* \"#utility.yul\":9687:9699   */\n      div\n        /* \"#utility.yul\":9677:9699   */\n      swap1\n      pop\n        /* \"#utility.yul\":9744:9745   */\n      0x01\n        /* \"#utility.yul\":9738:9742   */\n      dup3\n        /* \"#utility.yul\":9734:9746   */\n      and\n        /* \"#utility.yul\":9765:9783   */\n      dup1\n        /* \"#utility.yul\":9755:9836   */\n      tag_373\n      jumpi\n        /* \"#utility.yul\":9821:9825   */\n      0x7f\n        /* \"#utility.yul\":9813:9819   */\n      dup3\n        /* \"#utility.yul\":9809:9826   */\n      and\n        /* \"#utility.yul\":9799:9826   */\n      swap2\n      pop\n        /* \"#utility.yul\":9755:9836   */\n    tag_373:\n        /* \"#utility.yul\":9883:9885   */\n      0x20\n        /* \"#utility.yul\":9875:9881   */\n      dup3\n        /* \"#utility.yul\":9872:9886   */\n      lt\n        /* \"#utility.yul\":9852:9870   */\n      dup2\n        /* \"#utility.yul\":9849:9887   */\n      sub\n        /* \"#utility.yul\":9846:9930   */\n      tag_374\n      jumpi\n        /* \"#utility.yul\":9902:9920   */\n      tag_375\n      tag_232\n      jump\t// in\n    tag_375:\n        /* \"#utility.yul\":9846:9930   */\n    tag_374:\n        /* \"#utility.yul\":9667:9936   */\n      pop\n        /* \"#utility.yul\":9616:9936   */\n      swap2\n      swap1\n      pop\n      jump\t// out\n        /* \"#utility.yul\":9942:10105   */\n    tag_233:\n        /* \"#utility.yul\":10082:10097   */\n      0x4163636573732044656e69656400000000000000000000000000000000000000\n        /* \"#utility.yul\":10078:10079   */\n      0x00\n        /* \"#utility.yul\":10070:10076   */\n      dup3\n        /* \"#utility.yul\":10066:10080   */\n      add\n        /* \"#utility.yul\":10059:10098   */\n      mstore\n        /* \"#utility.yul\":9942:10105   */\n      pop\n      jump\t// out\n        /* \"#utility.yul\":10111:10477   */\n    tag_234:\n        /* \"#utility.yul\":10253:10256   */\n      0x00\n        /* \"#utility.yul\":10274:10341   */\n      tag_378\n        /* \"#utility.yul\":10338:10340   */\n      0x0d\n        /* \"#utility.yul\":10333:10336   */\n      dup4\n        /* \"#utility.yul\":10274:10341   */\n      tag_207\n      jump\t// in\n    tag_378:\n        /* \"#utility.yul\":10267:10341   */\n      swap2\n      pop\n        /* \"#utility.yul\":10350:10443   */\n      tag_379\n        /* \"#utility.yul\":10439:10442   */\n      dup3\n        /* \"#utility.yul\":10350:10443   */\n      tag_233\n      jump\t// in\n    tag_379:\n        /* \"#utility.yul\":10468:10470   */\n      0x20\n        /* \"#utility.yul\":10463:10466   */\n      dup3\n        /* \"#utility.yul\":10459:10471   */\n      add\n        /* \"#utility.yul\":10452:10471   */\n      swap1\n      pop\n        /* \"#utility.yul\":10111:10477   */\n      swap2\n      swap1\n      pop\n      jump\t// out\n        /* \"#utility.yul\":10483:10902   */\n    tag_83:\n        /* \"#utility.yul\":10649:10653   */\n      0x00\n        /* \"#utility.yul\":10687:10689   */\n      0x20\n        /* \"#utility.yul\":10676:10685   */\n      dup3\n        /* \"#utility.yul\":10672:10690   */\n      add\n        /* \"#utility.yul\":10664:10690   */\n      swap1\n      pop\n        /* \"#utility.yul\":10736:10745   */\n      dup2\n        /* \"#utility.yul\":10730:10734   */\n      dup2\n        /* \"#utility.yul\":10726:10746   */\n      sub\n        /* \"#utility.yul\":10722:10723   */\n      0x00\n        /* \"#utility.yul\":10711:10720   */\n      dup4\n        /* \"#utility.yul\":10707:10724   */\n      add\n        /* \"#utility.yul\":10700:10747   */\n      mstore\n        /* \"#utility.yul\":10764:10895   */\n      tag_381\n        /* \"#utility.yul\":10890:10894   */\n      dup2\n        /* \"#utility.yul\":10764:10895   */\n      tag_234\n      jump\t// in\n    tag_381:\n        /* \"#utility.yul\":10756:10895   */\n      swap1\n      pop\n        /* \"#utility.yul\":10483:10902   */\n      swap2\n      swap1\n      pop\n      jump\t// out\n        /* \"#utility.yul\":10908:11083   */\n    tag_235:\n        /* \"#utility.yul\":11048:11075   */\n      0x496e76616c6964206170706c6963616e74206164647265737300000000000000\n        /* \"#utility.yul\":11044:11045   */\n      0x00\n        /* \"#utility.yul\":11036:11042   */\n      dup3\n        /* \"#utility.yul\":11032:11046   */\n      add\n        /* \"#utility.yul\":11025:11076   */\n      mstore\n        /* \"#utility.yul\":10908:11083   */\n      pop\n      jump\t// out\n        /* \"#utility.yul\":11089:11455   */\n    tag_236:\n        /* \"#utility.yul\":11231:11234   */\n      0x00\n        /* \"#utility.yul\":11252:11319   */\n      tag_384\n        /* \"#utility.yul\":11316:11318   */\n      0x19\n        /* \"#utility.yul\":11311:11314   */\n      dup4\n        /* \"#utility.yul\":11252:11319   */\n      tag_207\n      jump\t// in\n    tag_384:\n        /* \"#utility.yul\":11245:11319   */\n      swap2\n      pop\n        /* \"#utility.yul\":11328:11421   */\n      tag_385\n        /* \"#utility.yul\":11417:11420   */\n      dup3\n        /* \"#utility.yul\":11328:11421   */\n      tag_235\n      jump\t// in\n    tag_385:\n        /* \"#utility.yul\":11446:11448   */\n      0x20\n        /* \"#utility.yul\":11441:11444   */\n      dup3\n        /* \"#utility.yul\":11437:11449   */\n      add\n        /* \"#utility.yul\":11430:11449   */\n      swap1\n      pop\n        /* \"#utility.yul\":11089:11455   */\n      swap2\n      swap1\n      pop\n      jump\t// out\n        /* \"#utility.yul\":11461:11880   */\n    tag_100:\n        /* \"#utility.yul\":11627:11631   */\n      0x00\n        /* \"#utility.yul\":11665:11667   */\n      0x20\n        /* \"#utility.yul\":11654:11663   */\n      dup3\n        /* \"#utility.yul\":11650:11668   */\n      add\n        /* \"#utility.yul\":11642:11668   */\n      swap1\n      pop\n        /* \"#utility.yul\":11714:11723   */\n      dup2\n        /* \"#utility.yul\":11708:11712   */\n      dup2\n        /* \"#utility.yul\":11704:11724   */\n      sub\n        /* \"#utility.yul\":11700:11701   */\n      0x00\n        /* \"#utility.yul\":11689:11698   */\n      dup4\n        /* \"#utility.yul\":11685:11702   */\n      add\n        /* \"#utility.yul\":11678:11725   */\n      mstore\n        /* \"#utility.yul\":11742:11873   */\n      tag_387\n        /* \"#utility.yul\":11868:11872   */\n      dup2\n        /* \"#utility.yul\":11742:11873   */\n      tag_236\n      jump\t// in\n    tag_387:\n        /* \"#utility.yul\":11734:11873   */\n      swap1\n      pop\n        /* \"#utility.yul\":11461:11880   */\n      swap2\n      swap1\n      pop\n      jump\t// out\n        /* \"#utility.yul\":11886:11962   */\n    tag_237:\n        /* \"#utility.yul\":11922:11929   */\n      0x00\n        /* \"#utility.yul\":11951:11956   */\n      dup2\n        /* \"#utility.yul\":11940:11956   */\n      swap1\n      pop\n        /* \"#utility.yul\":11886:11962   */\n      swap2\n      swap1\n      pop\n      jump\t// out\n        /* \"#utility.yul\":11968:12148   */\n    tag_238:\n        /* \"#utility.yul\":12016:12093   */\n      0x4e487b7100000000000000000000000000000000000000000000000000000000\n        /* \"#utility.yul\":12013:12014   */\n      0x00\n        /* \"#utility.yul\":12006:12094   */\n      mstore\n        /* \"#utility.yul\":12113:12117   */\n      0x11\n        /* \"#utility.yul\":12110:12111   */\n      0x04\n        /* \"#utility.yul\":12103:12118   */\n      mstore\n        /* \"#utility.yul\":12137:12141   */\n      0x24\n        /* \"#utility.yul\":12134:12135   */\n      0x00\n        /* \"#utility.yul\":12127:12142   */\n      revert\n        /* \"#utility.yul\":12154:12526   */\n    tag_102:\n        /* \"#utility.yul\":12193:12197   */\n      0x00\n        /* \"#utility.yul\":12213:12232   */\n      tag_391\n        /* \"#utility.yul\":12230:12231   */\n      dup3\n        /* \"#utility.yul\":12213:12232   */\n      tag_237\n      jump\t// in\n    tag_391:\n        /* \"#utility.yul\":12208:12232   */\n      swap2\n      pop\n        /* \"#utility.yul\":12246:12265   */\n      tag_392\n        /* \"#utility.yul\":12263:12264   */\n      dup4\n        /* \"#utility.yul\":12246:12265   */\n      tag_237\n      jump\t// in\n    tag_392:\n        /* \"#utility.yul\":12241:12265   */\n      swap3\n      pop\n        /* \"#utility.yul\":12289:12290   */\n      dup3\n        /* \"#utility.yul\":12286:12287   */\n      dup3\n        /* \"#utility.yul\":12282:12291   */\n      sub\n        /* \"#utility.yul\":12274:12291   */\n      swap1\n      pop\n        /* \"#utility.yul\":12483:12484   */\n      dup2\n        /* \"#utility.yul\":12477:12481   */\n      dup2\n        /* \"#utility.yul\":12473:12485   */\n      slt\n        /* \"#utility.yul\":12469:12470   */\n      0x00\n        /* \"#utility.yul\":12466:12467   */\n      dup5\n        /* \"#utility.yul\":12462:12471   */\n      slt\n        /* \"#utility.yul\":12458:12486   */\n      and\n        /* \"#utility.yul\":12441:12442   */\n      dup3\n        /* \"#utility.yul\":12435:12439   */\n      dup3\n        /* \"#utility.yul\":12431:12443   */\n      sgt\n        /* \"#utility.yul\":12426:12427   */\n      0x00\n        /* \"#utility.yul\":12423:12424   */\n      dup6\n        /* \"#utility.yul\":12419:12428   */\n      slt\n        /* \"#utility.yul\":12412:12429   */\n      iszero\n        /* \"#utility.yul\":12408:12444   */\n      and\n        /* \"#utility.yul\":12392:12496   */\n      or\n        /* \"#utility.yul\":12389:12519   */\n      iszero\n      tag_393\n      jumpi\n        /* \"#utility.yul\":12499:12517   */\n      tag_394\n      tag_238\n      jump\t// in\n    tag_394:\n        /* \"#utility.yul\":12389:12519   */\n    tag_393:\n        /* \"#utility.yul\":12154:12526   */\n      swap3\n      swap2\n      pop\n      pop\n      jump\t// out\n        /* \"#utility.yul\":12532:12697   */\n    tag_239:\n        /* \"#utility.yul\":12672:12689   */\n      0x4e6f742061206170706c6963616e740000000000000000000000000000000000\n        /* \"#utility.yul\":12668:12669   */\n      0x00\n        /* \"#utility.yul\":12660:12666   */\n      dup3\n        /* \"#utility.yul\":12656:12670   */\n      add\n        /* \"#utility.yul\":12649:12690   */\n      mstore\n        /* \"#utility.yul\":12532:12697   */\n      pop\n      jump\t// out\n        /* \"#utility.yul\":12703:13069   */\n    tag_240:\n        /* \"#utility.yul\":12845:12848   */\n      0x00\n        /* \"#utility.yul\":12866:12933   */\n      tag_397\n        /* \"#utility.yul\":12930:12932   */\n      0x0f\n        /* \"#utility.yul\":12925:12928   */\n      dup4\n        /* \"#utility.yul\":12866:12933   */\n      tag_207\n      jump\t// in\n    tag_397:\n        /* \"#utility.yul\":12859:12933   */\n      swap2\n      pop\n        /* \"#utility.yul\":12942:13035   */\n      tag_398\n        /* \"#utility.yul\":13031:13034   */\n      dup3\n        /* \"#utility.yul\":12942:13035   */\n      tag_239\n      jump\t// in\n    tag_398:\n        /* \"#utility.yul\":13060:13062   */\n      0x20\n        /* \"#utility.yul\":13055:13058   */\n      dup3\n        /* \"#utility.yul\":13051:13063   */\n      add\n        /* \"#utility.yul\":13044:13063   */\n      swap1\n      pop\n        /* \"#utility.yul\":12703:13069   */\n      swap2\n      swap1\n      pop\n      jump\t// out\n        /* \"#utility.yul\":13075:13494   */\n    tag_115:\n        /* \"#utility.yul\":13241:13245   */\n      0x00\n        /* \"#utility.yul\":13279:13281   */\n      0x20\n        /* \"#utility.yul\":13268:13277   */\n      dup3\n        /* \"#utility.yul\":13264:13282   */\n      add\n        /* \"#utility.yul\":13256:13282   */\n      swap1\n      pop\n        /* \"#utility.yul\":13328:13337   */\n      dup2\n        /* \"#utility.yul\":13322:13326   */\n      dup2\n        /* \"#utility.yul\":13318:13338   */\n      sub\n        /* \"#utility.yul\":13314:13315   */\n      0x00\n        /* \"#utility.yul\":13303:13312   */\n      dup4\n        /* \"#utility.yul\":13299:13316   */\n      add\n        /* \"#utility.yul\":13292:13339   */\n      mstore\n        /* \"#utility.yul\":13356:13487   */\n      tag_400\n        /* \"#utility.yul\":13482:13486   */\n      dup2\n        /* \"#utility.yul\":13356:13487   */\n      tag_240\n      jump\t// in\n    tag_400:\n        /* \"#utility.yul\":13348:13487   */\n      swap1\n      pop\n        /* \"#utility.yul\":13075:13494   */\n      swap2\n      swap1\n      pop\n      jump\t// out\n        /* \"#utility.yul\":13500:13680   */\n    tag_121:\n        /* \"#utility.yul\":13548:13625   */\n      0x4e487b7100000000000000000000000000000000000000000000000000000000\n        /* \"#utility.yul\":13545:13546   */\n      0x00\n        /* \"#utility.yul\":13538:13626   */\n      mstore\n        /* \"#utility.yul\":13645:13649   */\n      0x32\n        /* \"#utility.yul\":13642:13643   */\n      0x04\n        /* \"#utility.yul\":13635:13650   */\n      mstore\n        /* \"#utility.yul\":13669:13673   */\n      0x24\n        /* \"#utility.yul\":13666:13667   */\n      0x00\n        /* \"#utility.yul\":13659:13674   */\n      revert\n        /* \"#utility.yul\":13686:13919   */\n    tag_125:\n        /* \"#utility.yul\":13725:13728   */\n      0x00\n        /* \"#utility.yul\":13748:13772   */\n      tag_403\n        /* \"#utility.yul\":13766:13771   */\n      dup3\n        /* \"#utility.yul\":13748:13772   */\n      tag_218\n      jump\t// in\n    tag_403:\n        /* \"#utility.yul\":13739:13772   */\n      swap2\n      pop\n        /* \"#utility.yul\":13794:13860   */\n      0xffffffffffffffffffffffffffffffffffffffffffffffffffffffffffffffff\n        /* \"#utility.yul\":13787:13792   */\n      dup3\n        /* \"#utility.yul\":13784:13861   */\n      sub\n        /* \"#utility.yul\":13781:13884   */\n      tag_404\n      jumpi\n        /* \"#utility.yul\":13864:13882   */\n      tag_405\n      tag_238\n      jump\t// in\n    tag_405:\n        /* \"#utility.yul\":13781:13884   */\n    tag_404:\n        /* \"#utility.yul\":13911:13912   */\n      0x01\n        /* \"#utility.yul\":13904:13909   */\n      dup3\n        /* \"#utility.yul\":13900:13913   */\n      add\n        /* \"#utility.yul\":13893:13913   */\n      swap1\n      pop\n        /* \"#utility.yul\":13686:13919   */\n      swap2\n      swap1\n      pop\n      jump\t// out\n        /* \"#utility.yul\":13925:14095   */\n    tag_241:\n        /* \"#utility.yul\":14065:14087   */\n      0x53656e64657220616c726561647920766f746564000000000000000000000000\n        /* \"#utility.yul\":14061:14062   */\n      0x00\n        /* \"#utility.yul\":14053:14059   */\n      dup3\n        /* \"#utility.yul\":14049:14063   */\n      add\n        /* \"#utility.yul\":14042:14088   */\n      mstore\n        /* \"#utility.yul\":13925:14095   */\n      pop\n      jump\t// out\n        /* \"#utility.yul\":14101:14467   */\n    tag_242:\n        /* \"#utility.yul\":14243:14246   */\n      0x00\n        /* \"#utility.yul\":14264:14331   */\n      tag_408\n        /* \"#utility.yul\":14328:14330   */\n      0x14\n        /* \"#utility.yul\":14323:14326   */\n      dup4\n        /* \"#utility.yul\":14264:14331   */\n      tag_207\n      jump\t// in\n    tag_408:\n        /* \"#utility.yul\":14257:14331   */\n      swap2\n      pop\n        /* \"#utility.yul\":14340:14433   */\n      tag_409\n        /* \"#utility.yul\":14429:14432   */\n      dup3\n        /* \"#utility.yul\":14340:14433   */\n      tag_241\n      jump\t// in\n    tag_409:\n        /* \"#utility.yul\":14458:14460   */\n      0x20\n        /* \"#utility.yul\":14453:14456   */\n      dup3\n        /* \"#utility.yul\":14449:14461   */\n      add\n        /* \"#utility.yul\":14442:14461   */\n      swap1\n      pop\n        /* \"#utility.yul\":14101:14467   */\n      swap2\n      swap1\n      pop\n      jump\t// out\n        /* \"#utility.yul\":14473:14892   */\n    tag_128:\n        /* \"#utility.yul\":14639:14643   */\n      0x00\n        /* \"#utility.yul\":14677:14679   */\n      0x20\n        /* \"#utility.yul\":14666:14675   */\n      dup3\n        /* \"#utility.yul\":14662:14680   */\n      add\n        /* \"#utility.yul\":14654:14680   */\n      swap1\n      pop\n        /* \"#utility.yul\":14726:14735   */\n      dup2\n        /* \"#utility.yul\":14720:14724   */\n      dup2\n        /* \"#utility.yul\":14716:14736   */\n      sub\n        /* \"#utility.yul\":14712:14713   */\n      0x00\n        /* \"#utility.yul\":14701:14710   */\n      dup4\n        /* \"#utility.yul\":14697:14714   */\n      add\n        /* \"#utility.yul\":14690:14737   */\n      mstore\n        /* \"#utility.yul\":14754:14885   */\n      tag_411\n        /* \"#utility.yul\":14880:14884   */\n      dup2\n        /* \"#utility.yul\":14754:14885   */\n      tag_242\n      jump\t// in\n    tag_411:\n        /* \"#utility.yul\":14746:14885   */\n      swap1\n      pop\n        /* \"#utility.yul\":14473:14892   */\n      swap2\n      swap1\n      pop\n      jump\t// out\n        /* \"#utility.yul\":14898:15273   */\n    tag_131:\n        /* \"#utility.yul\":14937:14940   */\n      0x00\n        /* \"#utility.yul\":14956:14975   */\n      tag_413\n        /* \"#utility.yul\":14973:14974   */\n      dup3\n        /* \"#utility.yul\":14956:14975   */\n      tag_237\n      jump\t// in\n    tag_413:\n        /* \"#utility.yul\":14951:14975   */\n      swap2\n      pop\n        /* \"#utility.yul\":14989:15008   */\n      tag_414\n        /* \"#utility.yul\":15006:15007   */\n      dup4\n        /* \"#utility.yul\":14989:15008   */\n      tag_237\n      jump\t// in\n    tag_414:\n        /* \"#utility.yul\":14984:15008   */\n      swap3\n      pop\n        /* \"#utility.yul\":15031:15032   */\n      dup3\n        /* \"#utility.yul\":15028:15029   */\n      dup3\n        /* \"#utility.yul\":15024:15033   */\n      add\n        /* \"#utility.yul\":15017:15033   */\n      swap1\n      pop\n        /* \"#utility.yul\":15229:15230   */\n      dup3\n        /* \"#utility.yul\":15224:15227   */\n      dup2\n        /* \"#utility.yul\":15220:15231   */\n      slt\n        /* \"#utility.yul\":15213:15232   */\n      iszero\n        /* \"#utility.yul\":15209:15210   */\n      0x00\n        /* \"#utility.yul\":15206:15207   */\n      dup4\n        /* \"#utility.yul\":15202:15211   */\n      slt\n        /* \"#utility.yul\":15198:15233   */\n      and\n        /* \"#utility.yul\":15181:15182   */\n      dup4\n        /* \"#utility.yul\":15176:15179   */\n      dup3\n        /* \"#utility.yul\":15172:15183   */\n      slt\n        /* \"#utility.yul\":15167:15168   */\n      0x00\n        /* \"#utility.yul\":15164:15165   */\n      dup5\n        /* \"#utility.yul\":15160:15169   */\n      slt\n        /* \"#utility.yul\":15153:15170   */\n      iszero\n        /* \"#utility.yul\":15149:15184   */\n      and\n        /* \"#utility.yul\":15133:15243   */\n      or\n        /* \"#utility.yul\":15130:15266   */\n      iszero\n      tag_415\n      jumpi\n        /* \"#utility.yul\":15246:15264   */\n      tag_416\n      tag_238\n      jump\t// in\n    tag_416:\n        /* \"#utility.yul\":15130:15266   */\n    tag_415:\n        /* \"#utility.yul\":14898:15273   */\n      swap3\n      swap2\n      pop\n      pop\n      jump\t// out\n        /* \"#utility.yul\":15279:15450   */\n    tag_243:\n        /* \"#utility.yul\":15419:15442   */\n      0x416c726561647920616374697665206d656d6265720000000000000000000000\n        /* \"#utility.yul\":15415:15416   */\n      0x00\n        /* \"#utility.yul\":15407:15413   */\n      dup3\n        /* \"#utility.yul\":15403:15417   */\n      add\n        /* \"#utility.yul\":15396:15443   */\n      mstore\n        /* \"#utility.yul\":15279:15450   */\n      pop\n      jump\t// out\n        /* \"#utility.yul\":15456:15822   */\n    tag_244:\n        /* \"#utility.yul\":15598:15601   */\n      0x00\n        /* \"#utility.yul\":15619:15686   */\n      tag_419\n        /* \"#utility.yul\":15683:15685   */\n      0x15\n        /* \"#utility.yul\":15678:15681   */\n      dup4\n        /* \"#utility.yul\":15619:15686   */\n      tag_207\n      jump\t// in\n    tag_419:\n        /* \"#utility.yul\":15612:15686   */\n      swap2\n      pop\n        /* \"#utility.yul\":15695:15788   */\n      tag_420\n        /* \"#utility.yul\":15784:15787   */\n      dup3\n        /* \"#utility.yul\":15695:15788   */\n      tag_243\n      jump\t// in\n    tag_420:\n        /* \"#utility.yul\":15813:15815   */\n      0x20\n        /* \"#utility.yul\":15808:15811   */\n      dup3\n        /* \"#utility.yul\":15804:15816   */\n      add\n        /* \"#utility.yul\":15797:15816   */\n      swap1\n      pop\n        /* \"#utility.yul\":15456:15822   */\n      swap2\n      swap1\n      pop\n      jump\t// out\n        /* \"#utility.yul\":15828:16247   */\n    tag_154:\n        /* \"#utility.yul\":15994:15998   */\n      0x00\n        /* \"#utility.yul\":16032:16034   */\n      0x20\n        /* \"#utility.yul\":16021:16030   */\n      dup3\n        /* \"#utility.yul\":16017:16035   */\n      add\n        /* \"#utility.yul\":16009:16035   */\n      swap1\n      pop\n        /* \"#utility.yul\":16081:16090   */\n      dup2\n        /* \"#utility.yul\":16075:16079   */\n      dup2\n        /* \"#utility.yul\":16071:16091   */\n      sub\n        /* \"#utility.yul\":16067:16068   */\n      0x00\n        /* \"#utility.yul\":16056:16065   */\n      dup4\n        /* \"#utility.yul\":16052:16069   */\n      add\n        /* \"#utility.yul\":16045:16092   */\n      mstore\n        /* \"#utility.yul\":16109:16240   */\n      tag_422\n        /* \"#utility.yul\":16235:16239   */\n      dup2\n        /* \"#utility.yul\":16109:16240   */\n      tag_244\n      jump\t// in\n    tag_422:\n        /* \"#utility.yul\":16101:16240   */\n      swap1\n      pop\n        /* \"#utility.yul\":15828:16247   */\n      swap2\n      swap1\n      pop\n      jump\t// out\n        /* \"#utility.yul\":16253:16396   */\n    tag_245:\n        /* \"#utility.yul\":16310:16315   */\n      0x00\n        /* \"#utility.yul\":16341:16347   */\n      dup2\n        /* \"#utility.yul\":16335:16348   */\n      mload\n        /* \"#utility.yul\":16326:16348   */\n      swap1\n      pop\n        /* \"#utility.yul\":16357:16390   */\n      tag_424\n        /* \"#utility.yul\":16384:16389   */\n      dup2\n        /* \"#utility.yul\":16357:16390   */\n      tag_219\n      jump\t// in\n    tag_424:\n        /* \"#utility.yul\":16253:16396   */\n      swap3\n      swap2\n      pop\n      pop\n      jump\t// out\n        /* \"#utility.yul\":16402:16753   */\n    tag_158:\n        /* \"#utility.yul\":16472:16478   */\n      0x00\n        /* \"#utility.yul\":16521:16523   */\n      0x20\n        /* \"#utility.yul\":16509:16518   */\n      dup3\n        /* \"#utility.yul\":16500:16507   */\n      dup5\n        /* \"#utility.yul\":16496:16519   */\n      sub\n        /* \"#utility.yul\":16492:16524   */\n      slt\n        /* \"#utility.yul\":16489:16608   */\n      iszero\n      tag_426\n      jumpi\n        /* \"#utility.yul\":16527:16606   */\n      tag_427\n      tag_200\n      jump\t// in\n    tag_427:\n        /* \"#utility.yul\":16489:16608   */\n    tag_426:\n        /* \"#utility.yul\":16647:16648   */\n      0x00\n        /* \"#utility.yul\":16672:16736   */\n      tag_428\n        /* \"#utility.yul\":16728:16735   */\n      dup5\n        /* \"#utility.yul\":16719:16725   */\n      dup3\n        /* \"#utility.yul\":16708:16717   */\n      dup6\n        /* \"#utility.yul\":16704:16726   */\n      add\n        /* \"#utility.yul\":16672:16736   */\n      tag_245\n      jump\t// in\n    tag_428:\n        /* \"#utility.yul\":16662:16736   */\n      swap2\n      pop\n        /* \"#utility.yul\":16618:16746   */\n      pop\n        /* \"#utility.yul\":16402:16753   */\n      swap3\n      swap2\n      pop\n      pop\n      jump\t// out\n        /* \"#utility.yul\":16759:16935   */\n    tag_246:\n        /* \"#utility.yul\":16899:16927   */\n      0x4e6577204170706c6963616e7420466565205265717569726564000000000000\n        /* \"#utility.yul\":16895:16896   */\n      0x00\n        /* \"#utility.yul\":16887:16893   */\n      dup3\n        /* \"#utility.yul\":16883:16897   */\n      add\n        /* \"#utility.yul\":16876:16928   */\n      mstore\n        /* \"#utility.yul\":16759:16935   */\n      pop\n      jump\t// out\n        /* \"#utility.yul\":16941:17307   */\n    tag_247:\n        /* \"#utility.yul\":17083:17086   */\n      0x00\n        /* \"#utility.yul\":17104:17171   */\n      tag_431\n        /* \"#utility.yul\":17168:17170   */\n      0x1a\n        /* \"#utility.yul\":17163:17166   */\n      dup4\n        /* \"#utility.yul\":17104:17171   */\n      tag_207\n      jump\t// in\n    tag_431:\n        /* \"#utility.yul\":17097:17171   */\n      swap2\n      pop\n        /* \"#utility.yul\":17180:17273   */\n      tag_432\n        /* \"#utility.yul\":17269:17272   */\n      dup3\n        /* \"#utility.yul\":17180:17273   */\n      tag_246\n      jump\t// in\n    tag_432:\n        /* \"#utility.yul\":17298:17300   */\n      0x20\n        /* \"#utility.yul\":17293:17296   */\n      dup3\n        /* \"#utility.yul\":17289:17301   */\n      add\n        /* \"#utility.yul\":17282:17301   */\n      swap1\n      pop\n        /* \"#utility.yul\":16941:17307   */\n      swap2\n      swap1\n      pop\n      jump\t// out\n        /* \"#utility.yul\":17313:17732   */\n    tag_161:\n        /* \"#utility.yul\":17479:17483   */\n      0x00\n        /* \"#utility.yul\":17517:17519   */\n      0x20\n        /* \"#utility.yul\":17506:17515   */\n      dup3\n        /* \"#utility.yul\":17502:17520   */\n      add\n        /* \"#utility.yul\":17494:17520   */\n      swap1\n      pop\n        /* \"#utility.yul\":17566:17575   */\n      dup2\n        /* \"#utility.yul\":17560:17564   */\n      dup2\n        /* \"#utility.yul\":17556:17576   */\n      sub\n        /* \"#utility.yul\":17552:17553   */\n      0x00\n        /* \"#utility.yul\":17541:17550   */\n      dup4\n        /* \"#utility.yul\":17537:17554   */\n      add\n        /* \"#utility.yul\":17530:17577   */\n      mstore\n        /* \"#utility.yul\":17594:17725   */\n      tag_434\n        /* \"#utility.yul\":17720:17724   */\n      dup2\n        /* \"#utility.yul\":17594:17725   */\n      tag_247\n      jump\t// in\n    tag_434:\n        /* \"#utility.yul\":17586:17725   */\n      swap1\n      pop\n        /* \"#utility.yul\":17313:17732   */\n      swap2\n      swap1\n      pop\n      jump\t// out\n        /* \"#utility.yul\":17738:17912   */\n    tag_248:\n        /* \"#utility.yul\":17878:17904   */\n      0x416c726561647920616374697665206170706c6963616e740000000000000000\n        /* \"#utility.yul\":17874:17875   */\n      0x00\n        /* \"#utility.yul\":17866:17872   */\n      dup3\n        /* \"#utility.yul\":17862:17876   */\n      add\n        /* \"#utility.yul\":17855:17905   */\n      mstore\n        /* \"#utility.yul\":17738:17912   */\n      pop\n      jump\t// out\n        /* \"#utility.yul\":17918:18284   */\n    tag_249:\n        /* \"#utility.yul\":18060:18063   */\n      0x00\n        /* \"#utility.yul\":18081:18148   */\n      tag_437\n        /* \"#utility.yul\":18145:18147   */\n      0x18\n        /* \"#utility.yul\":18140:18143   */\n      dup4\n        /* \"#utility.yul\":18081:18148   */\n      tag_207\n      jump\t// in\n    tag_437:\n        /* \"#utility.yul\":18074:18148   */\n      swap2\n      pop\n        /* \"#utility.yul\":18157:18250   */\n      tag_438\n        /* \"#utility.yul\":18246:18249   */\n      dup3\n        /* \"#utility.yul\":18157:18250   */\n      tag_248\n      jump\t// in\n    tag_438:\n        /* \"#utility.yul\":18275:18277   */\n      0x20\n        /* \"#utility.yul\":18270:18273   */\n      dup3\n        /* \"#utility.yul\":18266:18278   */\n      add\n        /* \"#utility.yul\":18259:18278   */\n      swap1\n      pop\n        /* \"#utility.yul\":17918:18284   */\n      swap2\n      swap1\n      pop\n      jump\t// out\n        /* \"#utility.yul\":18290:18709   */\n    tag_164:\n        /* \"#utility.yul\":18456:18460   */\n      0x00\n        /* \"#utility.yul\":18494:18496   */\n      0x20\n        /* \"#utility.yul\":18483:18492   */\n      dup3\n        /* \"#utility.yul\":18479:18497   */\n      add\n        /* \"#utility.yul\":18471:18497   */\n      swap1\n      pop\n        /* \"#utility.yul\":18543:18552   */\n      dup2\n        /* \"#utility.yul\":18537:18541   */\n      dup2\n        /* \"#utility.yul\":18533:18553   */\n      sub\n        /* \"#utility.yul\":18529:18530   */\n      0x00\n        /* \"#utility.yul\":18518:18527   */\n      dup4\n        /* \"#utility.yul\":18514:18531   */\n      add\n        /* \"#utility.yul\":18507:18554   */\n      mstore\n        /* \"#utility.yul\":18571:18702   */\n      tag_440\n        /* \"#utility.yul\":18697:18701   */\n      dup2\n        /* \"#utility.yul\":18571:18702   */\n      tag_249\n      jump\t// in\n    tag_440:\n        /* \"#utility.yul\":18563:18702   */\n      swap1\n      pop\n        /* \"#utility.yul\":18290:18709   */\n      swap2\n      swap1\n      pop\n      jump\t// out\n        /* \"#utility.yul\":18715:18881   */\n    tag_250:\n        /* \"#utility.yul\":18855:18873   */\n      0x6163636f756e742072656a656374656400000000000000000000000000000000\n        /* \"#utility.yul\":18851:18852   */\n      0x00\n        /* \"#utility.yul\":18843:18849   */\n      dup3\n        /* \"#utility.yul\":18839:18853   */\n      add\n        /* \"#utility.yul\":18832:18874   */\n      mstore\n        /* \"#utility.yul\":18715:18881   */\n      pop\n      jump\t// out\n        /* \"#utility.yul\":18887:19253   */\n    tag_251:\n        /* \"#utility.yul\":19029:19032   */\n      0x00\n        /* \"#utility.yul\":19050:19117   */\n      tag_443\n        /* \"#utility.yul\":19114:19116   */\n      0x10\n        /* \"#utility.yul\":19109:19112   */\n      dup4\n        /* \"#utility.yul\":19050:19117   */\n      tag_207\n      jump\t// in\n    tag_443:\n        /* \"#utility.yul\":19043:19117   */\n      swap2\n      pop\n        /* \"#utility.yul\":19126:19219   */\n      tag_444\n        /* \"#utility.yul\":19215:19218   */\n      dup3\n        /* \"#utility.yul\":19126:19219   */\n      tag_250\n      jump\t// in\n    tag_444:\n        /* \"#utility.yul\":19244:19246   */\n      0x20\n        /* \"#utility.yul\":19239:19242   */\n      dup3\n        /* \"#utility.yul\":19235:19247   */\n      add\n        /* \"#utility.yul\":19228:19247   */\n      swap1\n      pop\n        /* \"#utility.yul\":18887:19253   */\n      swap2\n      swap1\n      pop\n      jump\t// out\n        /* \"#utility.yul\":19259:19678   */\n    tag_167:\n        /* \"#utility.yul\":19425:19429   */\n      0x00\n        /* \"#utility.yul\":19463:19465   */\n      0x20\n        /* \"#utility.yul\":19452:19461   */\n      dup3\n        /* \"#utility.yul\":19448:19466   */\n      add\n        /* \"#utility.yul\":19440:19466   */\n      swap1\n      pop\n        /* \"#utility.yul\":19512:19521   */\n      dup2\n        /* \"#utility.yul\":19506:19510   */\n      dup2\n        /* \"#utility.yul\":19502:19522   */\n      sub\n        /* \"#utility.yul\":19498:19499   */\n      0x00\n        /* \"#utility.yul\":19487:19496   */\n      dup4\n        /* \"#utility.yul\":19483:19500   */\n      add\n        /* \"#utility.yul\":19476:19523   */\n      mstore\n        /* \"#utility.yul\":19540:19671   */\n      tag_446\n        /* \"#utility.yul\":19666:19670   */\n      dup2\n        /* \"#utility.yul\":19540:19671   */\n      tag_251\n      jump\t// in\n    tag_446:\n        /* \"#utility.yul\":19532:19671   */\n      swap1\n      pop\n        /* \"#utility.yul\":19259:19678   */\n      swap2\n      swap1\n      pop\n      jump\t// out\n        /* \"#utility.yul\":19684:19781   */\n    tag_252:\n        /* \"#utility.yul\":19743:19749   */\n      0x00\n        /* \"#utility.yul\":19771:19774   */\n      dup3\n        /* \"#utility.yul\":19761:19774   */\n      swap1\n      pop\n        /* \"#utility.yul\":19684:19781   */\n      swap3\n      swap2\n      pop\n      pop\n      jump\t// out\n        /* \"#utility.yul\":19787:19967   */\n    tag_253:\n        /* \"#utility.yul\":19835:19912   */\n      0x4e487b7100000000000000000000000000000000000000000000000000000000\n        /* \"#utility.yul\":19832:19833   */\n      0x00\n        /* \"#utility.yul\":19825:19913   */\n      mstore\n        /* \"#utility.yul\":19932:19936   */\n      0x41\n        /* \"#utility.yul\":19929:19930   */\n      0x04\n        /* \"#utility.yul\":19922:19937   */\n      mstore\n        /* \"#utility.yul\":19956:19960   */\n      0x24\n        /* \"#utility.yul\":19953:19954   */\n      0x00\n        /* \"#utility.yul\":19946:19961   */\n      revert\n        /* \"#utility.yul\":19973:20114   */\n    tag_254:\n        /* \"#utility.yul\":20022:20026   */\n      0x00\n        /* \"#utility.yul\":20045:20048   */\n      dup2\n        /* \"#utility.yul\":20037:20048   */\n      swap1\n      pop\n        /* \"#utility.yul\":20068:20071   */\n      dup2\n        /* \"#utility.yul\":20065:20066   */\n      0x00\n        /* \"#utility.yul\":20058:20072   */\n      mstore\n        /* \"#utility.yul\":20102:20106   */\n      0x20\n        /* \"#utility.yul\":20099:20100   */\n      0x00\n        /* \"#utility.yul\":20089:20107   */\n      keccak256\n        /* \"#utility.yul\":20081:20107   */\n      swap1\n      pop\n        /* \"#utility.yul\":19973:20114   */\n      swap2\n      swap1\n      pop\n      jump\t// out\n        /* \"#utility.yul\":20120:20213   */\n    tag_255:\n        /* \"#utility.yul\":20157:20163   */\n      0x00\n        /* \"#utility.yul\":20204:20206   */\n      0x20\n        /* \"#utility.yul\":20199:20201   */\n      0x1f\n        /* \"#utility.yul\":20192:20197   */\n      dup4\n        /* \"#utility.yul\":20188:20202   */\n      add\n        /* \"#utility.yul\":20184:20207   */\n      div\n        /* \"#utility.yul\":20174:20207   */\n      swap1\n      pop\n        /* \"#utility.yul\":20120:20213   */\n      swap2\n      swap1\n      pop\n      jump\t// out\n        /* \"#utility.yul\":20219:20326   */\n    tag_256:\n        /* \"#utility.yul\":20263:20271   */\n      0x00\n        /* \"#utility.yul\":20313:20318   */\n      dup3\n        /* \"#utility.yul\":20307:20311   */\n      dup3\n        /* \"#utility.yul\":20303:20319   */\n      shl\n        /* \"#utility.yul\":20282:20319   */\n      swap1\n      pop\n        /* \"#utility.yul\":20219:20326   */\n      swap3\n      swap2\n      pop\n      pop\n      jump\t// out\n        /* \"#utility.yul\":20332:20725   */\n    tag_257:\n        /* \"#utility.yul\":20401:20407   */\n      0x00\n        /* \"#utility.yul\":20451:20452   */\n      0x08\n        /* \"#utility.yul\":20439:20449   */\n      dup4\n        /* \"#utility.yul\":20435:20453   */\n      mul\n        /* \"#utility.yul\":20474:20571   */\n      tag_453\n        /* \"#utility.yul\":20504:20570   */\n      0xffffffffffffffffffffffffffffffffffffffffffffffffffffffffffffffff\n        /* \"#utility.yul\":20493:20502   */\n      dup3\n        /* \"#utility.yul\":20474:20571   */\n      tag_256\n      jump\t// in\n    tag_453:\n        /* \"#utility.yul\":20592:20631   */\n      tag_454\n        /* \"#utility.yul\":20622:20630   */\n      dup7\n        /* \"#utility.yul\":20611:20620   */\n      dup4\n        /* \"#utility.yul\":20592:20631   */\n      tag_256\n      jump\t// in\n    tag_454:\n        /* \"#utility.yul\":20580:20631   */\n      swap6\n      pop\n        /* \"#utility.yul\":20664:20668   */\n      dup1\n        /* \"#utility.yul\":20660:20669   */\n      not\n        /* \"#utility.yul\":20653:20658   */\n      dup5\n        /* \"#utility.yul\":20649:20670   */\n      and\n        /* \"#utility.yul\":20640:20670   */\n      swap4\n      pop\n        /* \"#utility.yul\":20713:20717   */\n      dup1\n        /* \"#utility.yul\":20703:20711   */\n      dup7\n        /* \"#utility.yul\":20699:20718   */\n      and\n        /* \"#utility.yul\":20692:20697   */\n      dup5\n        /* \"#utility.yul\":20689:20719   */\n      or\n        /* \"#utility.yul\":20679:20719   */\n      swap3\n      pop\n        /* \"#utility.yul\":20408:20725   */\n      pop\n      pop\n        /* \"#utility.yul\":20332:20725   */\n      swap4\n      swap3\n      pop\n      pop\n      pop\n      jump\t// out\n        /* \"#utility.yul\":20731:20791   */\n    tag_258:\n        /* \"#utility.yul\":20759:20762   */\n      0x00\n        /* \"#utility.yul\":20780:20785   */\n      dup2\n        /* \"#utility.yul\":20773:20785   */\n      swap1\n      pop\n        /* \"#utility.yul\":20731:20791   */\n      swap2\n      swap1\n      pop\n      jump\t// out\n        /* \"#utility.yul\":20797:20939   */\n    tag_259:\n        /* \"#utility.yul\":20847:20856   */\n      0x00\n        /* \"#utility.yul\":20880:20933   */\n      tag_457\n        /* \"#utility.yul\":20898:20932   */\n      tag_458\n        /* \"#utility.yul\":20907:20931   */\n      tag_459\n        /* \"#utility.yul\":20925:20930   */\n      dup5\n        /* \"#utility.yul\":20907:20931   */\n      tag_218\n      jump\t// in\n    tag_459:\n        /* \"#utility.yul\":20898:20932   */\n      tag_258\n      jump\t// in\n    tag_458:\n        /* \"#utility.yul\":20880:20933   */\n      tag_218\n      jump\t// in\n    tag_457:\n        /* \"#utility.yul\":20867:20933   */\n      swap1\n      pop\n        /* \"#utility.yul\":20797:20939   */\n      swap2\n      swap1\n      pop\n      jump\t// out\n        /* \"#utility.yul\":20945:21020   */\n    tag_260:\n        /* \"#utility.yul\":20988:20991   */\n      0x00\n        /* \"#utility.yul\":21009:21014   */\n      dup2\n        /* \"#utility.yul\":21002:21014   */\n      swap1\n      pop\n        /* \"#utility.yul\":20945:21020   */\n      swap2\n      swap1\n      pop\n      jump\t// out\n        /* \"#utility.yul\":21026:21295   */\n    tag_261:\n        /* \"#utility.yul\":21136:21175   */\n      tag_462\n        /* \"#utility.yul\":21167:21174   */\n      dup4\n        /* \"#utility.yul\":21136:21175   */\n      tag_259\n      jump\t// in\n    tag_462:\n        /* \"#utility.yul\":21197:21288   */\n      tag_463\n        /* \"#utility.yul\":21246:21287   */\n      tag_464\n        /* \"#utility.yul\":21270:21286   */\n      dup3\n        /* \"#utility.yul\":21246:21287   */\n      tag_260\n      jump\t// in\n    tag_464:\n        /* \"#utility.yul\":21238:21244   */\n      dup5\n        /* \"#utility.yul\":21231:21235   */\n      dup5\n        /* \"#utility.yul\":21225:21236   */\n      sload\n        /* \"#utility.yul\":21197:21288   */\n      tag_257\n      jump\t// in\n    tag_463:\n        /* \"#utility.yul\":21191:21195   */\n      dup3\n        /* \"#utility.yul\":21184:21289   */\n      sstore\n        /* \"#utility.yul\":21102:21295   */\n      pop\n        /* \"#utility.yul\":21026:21295   */\n      pop\n      pop\n      pop\n      jump\t// out\n        /* \"#utility.yul\":21301:21374   */\n    tag_262:\n        /* \"#utility.yul\":21346:21349   */\n      0x00\n        /* \"#utility.yul\":21301:21374   */\n      swap1\n      jump\t// out\n        /* \"#utility.yul\":21380:21569   */\n    tag_263:\n        /* \"#utility.yul\":21457:21489   */\n      tag_467\n      tag_262\n      jump\t// in\n    tag_467:\n        /* \"#utility.yul\":21498:21563   */\n      tag_468\n        /* \"#utility.yul\":21556:21562   */\n      dup2\n        /* \"#utility.yul\":21548:21554   */\n      dup5\n        /* \"#utility.yul\":21542:21546   */\n      dup5\n        /* \"#utility.yul\":21498:21563   */\n      tag_261\n      jump\t// in\n    tag_468:\n        /* \"#utility.yul\":21433:21569   */\n      pop\n        /* \"#utility.yul\":21380:21569   */\n      pop\n      pop\n      jump\t// out\n        /* \"#utility.yul\":21575:21761   */\n    tag_264:\n        /* \"#utility.yul\":21635:21755   */\n    tag_470:\n        /* \"#utility.yul\":21652:21655   */\n      dup2\n        /* \"#utility.yul\":21645:21650   */\n      dup2\n        /* \"#utility.yul\":21642:21656   */\n      lt\n        /* \"#utility.yul\":21635:21755   */\n      iszero\n      tag_472\n      jumpi\n        /* \"#utility.yul\":21706:21745   */\n      tag_473\n        /* \"#utility.yul\":21743:21744   */\n      0x00\n        /* \"#utility.yul\":21736:21741   */\n      dup3\n        /* \"#utility.yul\":21706:21745   */\n      tag_263\n      jump\t// in\n    tag_473:\n        /* \"#utility.yul\":21679:21680   */\n      0x01\n        /* \"#utility.yul\":21672:21677   */\n      dup2\n        /* \"#utility.yul\":21668:21681   */\n      add\n        /* \"#utility.yul\":21659:21681   */\n      swap1\n      pop\n        /* \"#utility.yul\":21635:21755   */\n      jump(tag_470)\n    tag_472:\n        /* \"#utility.yul\":21575:21761   */\n      pop\n      pop\n      jump\t// out\n        /* \"#utility.yul\":21767:22310   */\n    tag_265:\n        /* \"#utility.yul\":21868:21870   */\n      0x1f\n        /* \"#utility.yul\":21863:21866   */\n      dup3\n        /* \"#utility.yul\":21860:21871   */\n      gt\n        /* \"#utility.yul\":21857:22303   */\n      iszero\n      tag_475\n      jumpi\n        /* \"#utility.yul\":21902:21940   */\n      tag_476\n        /* \"#utility.yul\":21934:21939   */\n      dup2\n        /* \"#utility.yul\":21902:21940   */\n      tag_254\n      jump\t// in\n    tag_476:\n        /* \"#utility.yul\":21986:22015   */\n      tag_477\n        /* \"#utility.yul\":22004:22014   */\n      dup5\n        /* \"#utility.yul\":21986:22015   */\n      tag_255\n      jump\t// in\n    tag_477:\n        /* \"#utility.yul\":21976:21984   */\n      dup2\n        /* \"#utility.yul\":21972:22016   */\n      add\n        /* \"#utility.yul\":22169:22171   */\n      0x20\n        /* \"#utility.yul\":22157:22167   */\n      dup6\n        /* \"#utility.yul\":22154:22172   */\n      lt\n        /* \"#utility.yul\":22151:22200   */\n      iszero\n      tag_478\n      jumpi\n        /* \"#utility.yul\":22190:22198   */\n      dup2\n        /* \"#utility.yul\":22175:22198   */\n      swap1\n      pop\n        /* \"#utility.yul\":22151:22200   */\n    tag_478:\n        /* \"#utility.yul\":22213:22293   */\n      tag_479\n        /* \"#utility.yul\":22269:22291   */\n      tag_480\n        /* \"#utility.yul\":22287:22290   */\n      dup6\n        /* \"#utility.yul\":22269:22291   */\n      tag_255\n      jump\t// in\n    tag_480:\n        /* \"#utility.yul\":22259:22267   */\n      dup4\n        /* \"#utility.yul\":22255:22292   */\n      add\n        /* \"#utility.yul\":22242:22253   */\n      dup3\n        /* \"#utility.yul\":22213:22293   */\n      tag_264\n      jump\t// in\n    tag_479:\n        /* \"#utility.yul\":21872:22303   */\n      pop\n      pop\n        /* \"#utility.yul\":21857:22303   */\n    tag_475:\n        /* \"#utility.yul\":21767:22310   */\n      pop\n      pop\n      pop\n      jump\t// out\n        /* \"#utility.yul\":22316:22433   */\n    tag_266:\n        /* \"#utility.yul\":22370:22378   */\n      0x00\n        /* \"#utility.yul\":22420:22425   */\n      dup3\n        /* \"#utility.yul\":22414:22418   */\n      dup3\n        /* \"#utility.yul\":22410:22426   */\n      shr\n        /* \"#utility.yul\":22389:22426   */\n      swap1\n      pop\n        /* \"#utility.yul\":22316:22433   */\n      swap3\n      swap2\n      pop\n      pop\n      jump\t// out\n        /* \"#utility.yul\":22439:22608   */\n    tag_267:\n        /* \"#utility.yul\":22483:22489   */\n      0x00\n        /* \"#utility.yul\":22516:22567   */\n      tag_483\n        /* \"#utility.yul\":22564:22565   */\n      0x00\n        /* \"#utility.yul\":22560:22566   */\n      not\n        /* \"#utility.yul\":22552:22557   */\n      dup5\n        /* \"#utility.yul\":22549:22550   */\n      0x08\n        /* \"#utility.yul\":22545:22558   */\n      mul\n        /* \"#utility.yul\":22516:22567   */\n      tag_266\n      jump\t// in\n    tag_483:\n        /* \"#utility.yul\":22512:22568   */\n      not\n        /* \"#utility.yul\":22597:22601   */\n      dup1\n        /* \"#utility.yul\":22591:22595   */\n      dup4\n        /* \"#utility.yul\":22587:22602   */\n      and\n        /* \"#utility.yul\":22577:22602   */\n      swap2\n      pop\n        /* \"#utility.yul\":22490:22608   */\n      pop\n        /* \"#utility.yul\":22439:22608   */\n      swap3\n      swap2\n      pop\n      pop\n      jump\t// out\n        /* \"#utility.yul\":22613:22908   */\n    tag_268:\n        /* \"#utility.yul\":22689:22693   */\n      0x00\n        /* \"#utility.yul\":22835:22864   */\n      tag_485\n        /* \"#utility.yul\":22860:22863   */\n      dup4\n        /* \"#utility.yul\":22854:22858   */\n      dup4\n        /* \"#utility.yul\":22835:22864   */\n      tag_267\n      jump\t// in\n    tag_485:\n        /* \"#utility.yul\":22827:22864   */\n      swap2\n      pop\n        /* \"#utility.yul\":22897:22900   */\n      dup3\n        /* \"#utility.yul\":22894:22895   */\n      0x02\n        /* \"#utility.yul\":22890:22901   */\n      mul\n        /* \"#utility.yul\":22884:22888   */\n      dup3\n        /* \"#utility.yul\":22881:22902   */\n      or\n        /* \"#utility.yul\":22873:22902   */\n      swap1\n      pop\n        /* \"#utility.yul\":22613:22908   */\n      swap3\n      swap2\n      pop\n      pop\n      jump\t// out\n        /* \"#utility.yul\":22913:24316   */\n    tag_169:\n        /* \"#utility.yul\":23037:23081   */\n      tag_487\n        /* \"#utility.yul\":23077:23080   */\n      dup4\n        /* \"#utility.yul\":23072:23075   */\n      dup4\n        /* \"#utility.yul\":23037:23081   */\n      tag_252\n      jump\t// in\n    tag_487:\n        /* \"#utility.yul\":23146:23164   */\n      0xffffffffffffffff\n        /* \"#utility.yul\":23138:23144   */\n      dup2\n        /* \"#utility.yul\":23135:23165   */\n      gt\n        /* \"#utility.yul\":23132:23188   */\n      iszero\n      tag_488\n      jumpi\n        /* \"#utility.yul\":23168:23186   */\n      tag_489\n      tag_253\n      jump\t// in\n    tag_489:\n        /* \"#utility.yul\":23132:23188   */\n    tag_488:\n        /* \"#utility.yul\":23212:23250   */\n      tag_490\n        /* \"#utility.yul\":23244:23248   */\n      dup3\n        /* \"#utility.yul\":23238:23249   */\n      sload\n        /* \"#utility.yul\":23212:23250   */\n      tag_75\n      jump\t// in\n    tag_490:\n        /* \"#utility.yul\":23297:23364   */\n      tag_491\n        /* \"#utility.yul\":23357:23363   */\n      dup3\n        /* \"#utility.yul\":23349:23355   */\n      dup3\n        /* \"#utility.yul\":23343:23347   */\n      dup6\n        /* \"#utility.yul\":23297:23364   */\n      tag_265\n      jump\t// in\n    tag_491:\n        /* \"#utility.yul\":23391:23392   */\n      0x00\n        /* \"#utility.yul\":23420:23422   */\n      0x1f\n        /* \"#utility.yul\":23412:23418   */\n      dup4\n        /* \"#utility.yul\":23409:23423   */\n      gt\n        /* \"#utility.yul\":23437:23438   */\n      0x01\n        /* \"#utility.yul\":23432:24064   */\n      dup2\n      eq\n      tag_493\n      jumpi\n        /* \"#utility.yul\":24108:24109   */\n      0x00\n        /* \"#utility.yul\":24125:24131   */\n      dup5\n        /* \"#utility.yul\":24122:24206   */\n      iszero\n      tag_494\n      jumpi\n        /* \"#utility.yul\":24181:24190   */\n      dup3\n        /* \"#utility.yul\":24176:24179   */\n      dup8\n        /* \"#utility.yul\":24172:24191   */\n      add\n        /* \"#utility.yul\":24159:24192   */\n      calldataload\n        /* \"#utility.yul\":24150:24192   */\n      swap1\n      pop\n        /* \"#utility.yul\":24122:24206   */\n    tag_494:\n        /* \"#utility.yul\":24232:24299   */\n      tag_495\n        /* \"#utility.yul\":24292:24298   */\n      dup6\n        /* \"#utility.yul\":24285:24290   */\n      dup3\n        /* \"#utility.yul\":24232:24299   */\n      tag_268\n      jump\t// in\n    tag_495:\n        /* \"#utility.yul\":24226:24230   */\n      dup7\n        /* \"#utility.yul\":24219:24300   */\n      sstore\n        /* \"#utility.yul\":24081:24310   */\n      pop\n        /* \"#utility.yul\":23402:24310   */\n      jump(tag_492)\n        /* \"#utility.yul\":23432:24064   */\n    tag_493:\n        /* \"#utility.yul\":23484:23488   */\n      0x1f\n        /* \"#utility.yul\":23480:23489   */\n      not\n        /* \"#utility.yul\":23472:23478   */\n      dup5\n        /* \"#utility.yul\":23468:23490   */\n      and\n        /* \"#utility.yul\":23518:23555   */\n      tag_496\n        /* \"#utility.yul\":23550:23554   */\n      dup7\n        /* \"#utility.yul\":23518:23555   */\n      tag_254\n      jump\t// in\n    tag_496:\n        /* \"#utility.yul\":23577:23578   */\n      0x00\n        /* \"#utility.yul\":23591:23806   */\n    tag_497:\n        /* \"#utility.yul\":23605:23612   */\n      dup3\n        /* \"#utility.yul\":23602:23603   */\n      dup2\n        /* \"#utility.yul\":23599:23613   */\n      lt\n        /* \"#utility.yul\":23591:23806   */\n      iszero\n      tag_499\n      jumpi\n        /* \"#utility.yul\":23691:23700   */\n      dup5\n        /* \"#utility.yul\":23686:23689   */\n      dup10\n        /* \"#utility.yul\":23682:23701   */\n      add\n        /* \"#utility.yul\":23669:23702   */\n      calldataload\n        /* \"#utility.yul\":23661:23667   */\n      dup3\n        /* \"#utility.yul\":23654:23703   */\n      sstore\n        /* \"#utility.yul\":23742:23743   */\n      0x01\n        /* \"#utility.yul\":23734:23740   */\n      dup3\n        /* \"#utility.yul\":23730:23744   */\n      add\n        /* \"#utility.yul\":23720:23744   */\n      swap2\n      pop\n        /* \"#utility.yul\":23789:23791   */\n      0x20\n        /* \"#utility.yul\":23778:23787   */\n      dup6\n        /* \"#utility.yul\":23774:23792   */\n      add\n        /* \"#utility.yul\":23761:23792   */\n      swap5\n      pop\n        /* \"#utility.yul\":23628:23632   */\n      0x20\n        /* \"#utility.yul\":23625:23626   */\n      dup2\n        /* \"#utility.yul\":23621:23633   */\n      add\n        /* \"#utility.yul\":23616:23633   */\n      swap1\n      pop\n        /* \"#utility.yul\":23591:23806   */\n      jump(tag_497)\n    tag_499:\n        /* \"#utility.yul\":23834:23840   */\n      dup7\n        /* \"#utility.yul\":23825:23832   */\n      dup4\n        /* \"#utility.yul\":23822:23841   */\n      lt\n        /* \"#utility.yul\":23819:24005   */\n      iszero\n      tag_500\n      jumpi\n        /* \"#utility.yul\":23899:23908   */\n      dup5\n        /* \"#utility.yul\":23894:23897   */\n      dup10\n        /* \"#utility.yul\":23890:23909   */\n      add\n        /* \"#utility.yul\":23877:23910   */\n      calldataload\n        /* \"#utility.yul\":23942:23990   */\n      tag_501\n        /* \"#utility.yul\":23984:23988   */\n      0x1f\n        /* \"#utility.yul\":23976:23982   */\n      dup10\n        /* \"#utility.yul\":23972:23989   */\n      and\n        /* \"#utility.yul\":23961:23970   */\n      dup3\n        /* \"#utility.yul\":23942:23990   */\n      tag_267\n      jump\t// in\n    tag_501:\n        /* \"#utility.yul\":23934:23940   */\n      dup4\n        /* \"#utility.yul\":23927:23991   */\n      sstore\n        /* \"#utility.yul\":23842:24005   */\n      pop\n        /* \"#utility.yul\":23819:24005   */\n    tag_500:\n        /* \"#utility.yul\":24051:24052   */\n      0x01\n        /* \"#utility.yul\":24047:24048   */\n      0x02\n        /* \"#utility.yul\":24039:24045   */\n      dup9\n        /* \"#utility.yul\":24035:24049   */\n      mul\n        /* \"#utility.yul\":24031:24053   */\n      add\n        /* \"#utility.yul\":24025:24029   */\n      dup9\n        /* \"#utility.yul\":24018:24054   */\n      sstore\n        /* \"#utility.yul\":23439:24064   */\n      pop\n      pop\n      pop\n        /* \"#utility.yul\":23402:24310   */\n    tag_492:\n      pop\n        /* \"#utility.yul\":23012:24316   */\n      pop\n      pop\n      pop\n        /* \"#utility.yul\":22913:24316   */\n      pop\n      pop\n      pop\n      jump\t// out\n        /* \"#utility.yul\":24322:24513   */\n    tag_172:\n        /* \"#utility.yul\":24362:24365   */\n      0x00\n        /* \"#utility.yul\":24381:24401   */\n      tag_503\n        /* \"#utility.yul\":24399:24400   */\n      dup3\n        /* \"#utility.yul\":24381:24401   */\n      tag_218\n      jump\t// in\n    tag_503:\n        /* \"#utility.yul\":24376:24401   */\n      swap2\n      pop\n        /* \"#utility.yul\":24415:24435   */\n      tag_504\n        /* \"#utility.yul\":24433:24434   */\n      dup4\n        /* \"#utility.yul\":24415:24435   */\n      tag_218\n      jump\t// in\n    tag_504:\n        /* \"#utility.yul\":24410:24435   */\n      swap3\n      pop\n        /* \"#utility.yul\":24458:24459   */\n      dup3\n        /* \"#utility.yul\":24455:24456   */\n      dup3\n        /* \"#utility.yul\":24451:24460   */\n      add\n        /* \"#utility.yul\":24444:24460   */\n      swap1\n      pop\n        /* \"#utility.yul\":24479:24482   */\n      dup1\n        /* \"#utility.yul\":24476:24477   */\n      dup3\n        /* \"#utility.yul\":24473:24483   */\n      gt\n        /* \"#utility.yul\":24470:24506   */\n      iszero\n      tag_505\n      jumpi\n        /* \"#utility.yul\":24486:24504   */\n      tag_506\n      tag_238\n      jump\t// in\n    tag_506:\n        /* \"#utility.yul\":24470:24506   */\n    tag_505:\n        /* \"#utility.yul\":24322:24513   */\n      swap3\n      swap2\n      pop\n      pop\n      jump\t// out\n        /* \"#utility.yul\":24519:24713   */\n    tag_183:\n        /* \"#utility.yul\":24559:24563   */\n      0x00\n        /* \"#utility.yul\":24579:24599   */\n      tag_508\n        /* \"#utility.yul\":24597:24598   */\n      dup3\n        /* \"#utility.yul\":24579:24599   */\n      tag_218\n      jump\t// in\n    tag_508:\n        /* \"#utility.yul\":24574:24599   */\n      swap2\n      pop\n        /* \"#utility.yul\":24613:24633   */\n      tag_509\n        /* \"#utility.yul\":24631:24632   */\n      dup4\n        /* \"#utility.yul\":24613:24633   */\n      tag_218\n      jump\t// in\n    tag_509:\n        /* \"#utility.yul\":24608:24633   */\n      swap3\n      pop\n        /* \"#utility.yul\":24657:24658   */\n      dup3\n        /* \"#utility.yul\":24654:24655   */\n      dup3\n        /* \"#utility.yul\":24650:24659   */\n      sub\n        /* \"#utility.yul\":24642:24659   */\n      swap1\n      pop\n        /* \"#utility.yul\":24681:24682   */\n      dup2\n        /* \"#utility.yul\":24675:24679   */\n      dup2\n        /* \"#utility.yul\":24672:24683   */\n      gt\n        /* \"#utility.yul\":24669:24706   */\n      iszero\n      tag_510\n      jumpi\n        /* \"#utility.yul\":24686:24704   */\n      tag_511\n      tag_238\n      jump\t// in\n    tag_511:\n        /* \"#utility.yul\":24669:24706   */\n    tag_510:\n        /* \"#utility.yul\":24519:24713   */\n      swap3\n      swap2\n      pop\n      pop\n      jump\t// out\n        /* \"#utility.yul\":24719:24899   */\n    tag_192:\n        /* \"#utility.yul\":24767:24844   */\n      0x4e487b7100000000000000000000000000000000000000000000000000000000\n        /* \"#utility.yul\":24764:24765   */\n      0x00\n        /* \"#utility.yul\":24757:24845   */\n      mstore\n        /* \"#utility.yul\":24864:24868   */\n      0x31\n        /* \"#utility.yul\":24861:24862   */\n      0x04\n        /* \"#utility.yul\":24854:24869   */\n      mstore\n        /* \"#utility.yul\":24888:24892   */\n      0x24\n        /* \"#utility.yul\":24885:24886   */\n      0x00\n        /* \"#utility.yul\":24878:24893   */\n      revert\n\n    auxdata: 0xa2646970667358221220ac9bbf639f2303451360928fe07474509c587a17432ac5eb32254c265706a1bf64736f6c63430008110033\n}\n","bytecode":{"linkReferences":{},"object":"60c06040523480156200001157600080fd5b50604051620023d9380380620023d9833981810160405281019062000037919062000153565b82600660006101000a81548173ffffffffffffffffffffffffffffffffffffffff021916908373ffffffffffffffffffffffffffffffffffffffff1602179055508173ffffffffffffffffffffffffffffffffffffffff1660808173ffffffffffffffffffffffffffffffffffffffff16815250508073ffffffffffffffffffffffffffffffffffffffff1660a08173ffffffffffffffffffffffffffffffffffffffff1681525050505050620001af565b600080fd5b600073ffffffffffffffffffffffffffffffffffffffff82169050919050565b60006200011b82620000ee565b9050919050565b6200012d816200010e565b81146200013957600080fd5b50565b6000815190506200014d8162000122565b92915050565b6000806000606084860312156200016f576200016e620000e9565b5b60006200017f868287016200013c565b935050602062000192868287016200013c565b9250506040620001a5868287016200013c565b9150509250925092565b60805160a051612207620001d26000396000610fe70152600050506122076000f3fe6080604052600436106100905760003560e01c80638c468cd4116100595780638c468cd414610178578063b672bdcb146101b5578063d9a87535146101f2578063f6ec97381461022f578063fd5919021461025857610090565b8062ad808f146100955780631292a282146100d2578063273f868e146100fb57806328f4694c14610124578063455772d21461014d575b600080fd5b3480156100a157600080fd5b506100bc60048036038101906100b79190611529565b610274565b6040516100c991906115e6565b60405180910390f35b3480156100de57600080fd5b506100f960048036038101906100f49190611529565b610446565b005b34801561010757600080fd5b50610122600480360381019061011d9190611529565b61063a565b005b34801561013057600080fd5b5061014b60048036038101906101469190611529565b61085e565b005b34801561015957600080fd5b50610162610c3c565b60405161016f91906116c6565b60405180910390f35b34801561018457600080fd5b5061019f600480360381019061019a919061171e565b610dcb565b6040516101ac919061175a565b60405180910390f35b3480156101c157600080fd5b506101dc60048036038101906101d79190611529565b610e0a565b6040516101e99190611784565b60405180910390f35b3480156101fe57600080fd5b5061021960048036038101906102149190611529565b610e53565b6040516102269190611784565b60405180910390f35b34801561023b57600080fd5b5061025660048036038101906102519190611529565b610e9f565b005b610272600480360381019061026d9190611804565b610ee3565b005b606033600660009054906101000a900473ffffffffffffffffffffffffffffffffffffffff1673ffffffffffffffffffffffffffffffffffffffff166339ac7a0882600760009054906101000a900473ffffffffffffffffffffffffffffffffffffffff166040518363ffffffff1660e01b81526004016102f6929190611851565b602060405180830381865afa158015610313573d6000803e3d6000fd5b505050506040513d601f19601f8201168201806040525081019061033791906118b2565b610376576040517f08c379a000000000000000000000000000000000000000000000000000000000815260040161036d9061192b565b60405180910390fd5b600460008473ffffffffffffffffffffffffffffffffffffffff1673ffffffffffffffffffffffffffffffffffffffff16815260200190815260200160002080546103c09061197a565b80601f01602080910402602001604051908101604052809291908181526020018280546103ec9061197a565b80156104395780601f1061040e57610100808354040283529160200191610439565b820191906000526020600020905b81548152906001019060200180831161041c57829003601f168201915b5050505050915050919050565b33600760009054906101000a900473ffffffffffffffffffffffffffffffffffffffff1673ffffffffffffffffffffffffffffffffffffffff168173ffffffffffffffffffffffffffffffffffffffff16146104d7576040517f08c379a00000000000000000000000000000000000000000000000000000000081526004016104ce906119f7565b60405180910390fd5b600760009054906101000a900473ffffffffffffffffffffffffffffffffffffffff1673ffffffffffffffffffffffffffffffffffffffff163373ffffffffffffffffffffffffffffffffffffffff161461053157600080fd5b600660009054906101000a900473ffffffffffffffffffffffffffffffffffffffff1673ffffffffffffffffffffffffffffffffffffffff16639d58b15d600760009054906101000a900473ffffffffffffffffffffffffffffffffffffffff16846040518363ffffffff1660e01b81526004016105b0929190611851565b600060405180830381600087803b1580156105ca57600080fd5b505af11580156105de573d6000803e3d6000fd5b505050506105eb826112f7565b600160003373ffffffffffffffffffffffffffffffffffffffff1673ffffffffffffffffffffffffffffffffffffffff16815260200190815260200160002060006106369190611483565b5050565b33600760009054906101000a900473ffffffffffffffffffffffffffffffffffffffff1673ffffffffffffffffffffffffffffffffffffffff168173ffffffffffffffffffffffffffffffffffffffff16146106cb576040517f08c379a00000000000000000000000000000000000000000000000000000000081526004016106c2906119f7565b60405180910390fd5b600360008373ffffffffffffffffffffffffffffffffffffffff1673ffffffffffffffffffffffffffffffffffffffff16815260200190815260200160002060009054906101000a900460ff16610757576040517f08c379a000000000000000000000000000000000000000000000000000000000815260040161074e90611a63565b60405180910390fd5b6000600360008473ffffffffffffffffffffffffffffffffffffffff1673ffffffffffffffffffffffffffffffffffffffff16815260200190815260200160002060006101000a81548160ff0219169083151502179055506001600260003373ffffffffffffffffffffffffffffffffffffffff1673ffffffffffffffffffffffffffffffffffffffff16815260200190815260200160002060008282546107ff9190611abc565b9250508190555061080f826112f7565b600160003373ffffffffffffffffffffffffffffffffffffffff1673ffffffffffffffffffffffffffffffffffffffff168152602001908152602001600020600061085a9190611483565b5050565b33600660009054906101000a900473ffffffffffffffffffffffffffffffffffffffff1673ffffffffffffffffffffffffffffffffffffffff166339ac7a0882600760009054906101000a900473ffffffffffffffffffffffffffffffffffffffff166040518363ffffffff1660e01b81526004016108de929190611851565b602060405180830381865afa1580156108fb573d6000803e3d6000fd5b505050506040513d601f19601f8201168201806040525081019061091f91906118b2565b61095e576040517f08c379a00000000000000000000000000000000000000000000000000000000081526004016109559061192b565b60405180910390fd5b600360008373ffffffffffffffffffffffffffffffffffffffff1673ffffffffffffffffffffffffffffffffffffffff16815260200190815260200160002060009054906101000a900460ff166109ea576040517f08c379a00000000000000000000000000000000000000000000000000000000081526004016109e190611b4b565b60405180910390fd5b6000805b600160008573ffffffffffffffffffffffffffffffffffffffff1673ffffffffffffffffffffffffffffffffffffffff16815260200190815260200160002080549050811015610afe573373ffffffffffffffffffffffffffffffffffffffff16600160008673ffffffffffffffffffffffffffffffffffffffff1673ffffffffffffffffffffffffffffffffffffffff1681526020019081526020016000208281548110610aa057610a9f611b6b565b5b9060005260206000200160009054906101000a900473ffffffffffffffffffffffffffffffffffffffff1673ffffffffffffffffffffffffffffffffffffffff1603610aeb57600191505b8080610af690611b9a565b9150506109ee565b508015610b40576040517f08c379a0000000000000000000000000000000000000000000000000000000008152600401610b3790611c2e565b60405180910390fd5b600160008473ffffffffffffffffffffffffffffffffffffffff1673ffffffffffffffffffffffffffffffffffffffff168152602001908152602001600020339080600181540180825580915050600190039060005260206000200160009091909190916101000a81548173ffffffffffffffffffffffffffffffffffffffff021916908373ffffffffffffffffffffffffffffffffffffffff1602179055506001600260008573ffffffffffffffffffffffffffffffffffffffff1673ffffffffffffffffffffffffffffffffffffffff1681526020019081526020016000206000828254610c309190611c4e565b92505081905550505050565b606033600660009054906101000a900473ffffffffffffffffffffffffffffffffffffffff1673ffffffffffffffffffffffffffffffffffffffff166339ac7a0882600760009054906101000a900473ffffffffffffffffffffffffffffffffffffffff166040518363ffffffff1660e01b8152600401610cbe929190611851565b602060405180830381865afa158015610cdb573d6000803e3d6000fd5b505050506040513d601f19601f82011682018060405250810190610cff91906118b2565b610d3e576040517f08c379a0000000000000000000000000000000000000000000000000000000008152600401610d359061192b565b60405180910390fd5b6000805480602002602001604051908101604052809291908181526020018280548015610dc057602002820191906000526020600020905b8160009054906101000a900473ffffffffffffffffffffffffffffffffffffffff1673ffffffffffffffffffffffffffffffffffffffff1681526020019060010190808311610d76575b505050505091505090565b60008181548110610ddb57600080fd5b906000526020600020016000915054906101000a900473ffffffffffffffffffffffffffffffffffffffff1681565b6000600560008373ffffffffffffffffffffffffffffffffffffffff1673ffffffffffffffffffffffffffffffffffffffff168152602001908152602001600020549050919050565b6000600160008373ffffffffffffffffffffffffffffffffffffffff1673ffffffffffffffffffffffffffffffffffffffff168152602001908152602001600020805490509050919050565b80600760006101000a81548173ffffffffffffffffffffffffffffffffffffffff021916908373ffffffffffffffffffffffffffffffffffffffff16021790555050565b600660009054906101000a900473ffffffffffffffffffffffffffffffffffffffff1673ffffffffffffffffffffffffffffffffffffffff166339ac7a0833600760009054906101000a900473ffffffffffffffffffffffffffffffffffffffff166040518363ffffffff1660e01b8152600401610f62929190611851565b602060405180830381865afa158015610f7f573d6000803e3d6000fd5b505050506040513d601f19601f82011682018060405250810190610fa391906118b2565b15610fe3576040517f08c379a0000000000000000000000000000000000000000000000000000000008152600401610fda90611cde565b60405180910390fd5b60007f0000000000000000000000000000000000000000000000000000000000000000905060008173ffffffffffffffffffffffffffffffffffffffff16634d10dcbb6040518163ffffffff1660e01b8152600401602060405180830381865afa158015611055573d6000803e3d6000fd5b505050506040513d601f19601f820116820180604052508101906110799190611d13565b9050803410156110be576040517f08c379a00000000000000000000000000000000000000000000000000000000081526004016110b590611d8c565b60405180910390fd5b600360003373ffffffffffffffffffffffffffffffffffffffff1673ffffffffffffffffffffffffffffffffffffffff16815260200190815260200160002060009054906101000a900460ff161561114b576040517f08c379a000000000000000000000000000000000000000000000000000000000815260040161114290611df8565b60405180910390fd5b7ffffffffffffffffffffffffffffffffffffffffffffffffffffffffffffffffd600260003373ffffffffffffffffffffffffffffffffffffffff1673ffffffffffffffffffffffffffffffffffffffff16815260200190815260200160002054136111ec576040517f08c379a00000000000000000000000000000000000000000000000000000000081526004016111e390611e64565b60405180910390fd5b8383600460003373ffffffffffffffffffffffffffffffffffffffff1673ffffffffffffffffffffffffffffffffffffffff168152602001908152602001600020918261123a92919061206a565b506000339080600181540180825580915050600190039060005260206000200160009091909190916101000a81548173ffffffffffffffffffffffffffffffffffffffff021916908373ffffffffffffffffffffffffffffffffffffffff160217905550630f731400426112ae919061213a565b600560003373ffffffffffffffffffffffffffffffffffffffff1673ffffffffffffffffffffffffffffffffffffffff1681526020019081526020016000208190555050505050565b60005b60008054905081101561138c578173ffffffffffffffffffffffffffffffffffffffff166000828154811061133257611331611b6b565b5b9060005260206000200160009054906101000a900473ffffffffffffffffffffffffffffffffffffffff1673ffffffffffffffffffffffffffffffffffffffff16031561138c57808061138490611b9a565b9150506112fa565b600060016000805490506113a0919061216e565b815481106113b1576113b0611b6b565b5b9060005260206000200160009054906101000a900473ffffffffffffffffffffffffffffffffffffffff16600082815481106113f0576113ef611b6b565b5b9060005260206000200160006101000a81548173ffffffffffffffffffffffffffffffffffffffff021916908373ffffffffffffffffffffffffffffffffffffffff160217905550600080548061144a576114496121a2565b5b6001900381819060005260206000200160006101000a81549073ffffffffffffffffffffffffffffffffffffffff021916905590555050565b50805460008255906000526020600020908101906114a191906114a4565b50565b5b808211156114bd5760008160009055506001016114a5565b5090565b600080fd5b600080fd5b600073ffffffffffffffffffffffffffffffffffffffff82169050919050565b60006114f6826114cb565b9050919050565b611506816114eb565b811461151157600080fd5b50565b600081359050611523816114fd565b92915050565b60006020828403121561153f5761153e6114c1565b5b600061154d84828501611514565b91505092915050565b600081519050919050565b600082825260208201905092915050565b60005b83811015611590578082015181840152602081019050611575565b60008484015250505050565b6000601f19601f8301169050919050565b60006115b882611556565b6115c28185611561565b93506115d2818560208601611572565b6115db8161159c565b840191505092915050565b6000602082019050818103600083015261160081846115ad565b905092915050565b600081519050919050565b600082825260208201905092915050565b6000819050602082019050919050565b61163d816114eb565b82525050565b600061164f8383611634565b60208301905092915050565b6000602082019050919050565b600061167382611608565b61167d8185611613565b935061168883611624565b8060005b838110156116b95781516116a08882611643565b97506116ab8361165b565b92505060018101905061168c565b5085935050505092915050565b600060208201905081810360008301526116e08184611668565b905092915050565b6000819050919050565b6116fb816116e8565b811461170657600080fd5b50565b600081359050611718816116f2565b92915050565b600060208284031215611734576117336114c1565b5b600061174284828501611709565b91505092915050565b611754816114eb565b82525050565b600060208201905061176f600083018461174b565b92915050565b61177e816116e8565b82525050565b60006020820190506117996000830184611775565b92915050565b600080fd5b600080fd5b600080fd5b60008083601f8401126117c4576117c361179f565b5b8235905067ffffffffffffffff8111156117e1576117e06117a4565b5b6020830191508360018202830111156117fd576117fc6117a9565b5b9250929050565b6000806020838503121561181b5761181a6114c1565b5b600083013567ffffffffffffffff811115611839576118386114c6565b5b611845858286016117ae565b92509250509250929050565b6000604082019050611866600083018561174b565b611873602083018461174b565b9392505050565b60008115159050919050565b61188f8161187a565b811461189a57600080fd5b50565b6000815190506118ac81611886565b92915050565b6000602082840312156118c8576118c76114c1565b5b60006118d68482850161189d565b91505092915050565b7f526571756972656420746f2062652061206d656d656265720000000000000000600082015250565b6000611915601883611561565b9150611920826118df565b602082019050919050565b6000602082019050818103600083015261194481611908565b9050919050565b7f4e487b7100000000000000000000000000000000000000000000000000000000600052602260045260246000fd5b6000600282049050600182168061199257607f821691505b6020821081036119a5576119a461194b565b5b50919050565b7f4163636573732044656e69656400000000000000000000000000000000000000600082015250565b60006119e1600d83611561565b91506119ec826119ab565b602082019050919050565b60006020820190508181036000830152611a10816119d4565b9050919050565b7f496e76616c6964206170706c6963616e74206164647265737300000000000000600082015250565b6000611a4d601983611561565b9150611a5882611a17565b602082019050919050565b60006020820190508181036000830152611a7c81611a40565b9050919050565b6000819050919050565b7f4e487b7100000000000000000000000000000000000000000000000000000000600052601160045260246000fd5b6000611ac782611a83565b9150611ad283611a83565b9250828203905081811260008412168282136000851215161715611af957611af8611a8d565b5b92915050565b7f4e6f742061206170706c6963616e740000000000000000000000000000000000600082015250565b6000611b35600f83611561565b9150611b4082611aff565b602082019050919050565b60006020820190508181036000830152611b6481611b28565b9050919050565b7f4e487b7100000000000000000000000000000000000000000000000000000000600052603260045260246000fd5b6000611ba5826116e8565b91507fffffffffffffffffffffffffffffffffffffffffffffffffffffffffffffffff8203611bd757611bd6611a8d565b5b600182019050919050565b7f53656e64657220616c726561647920766f746564000000000000000000000000600082015250565b6000611c18601483611561565b9150611c2382611be2565b602082019050919050565b60006020820190508181036000830152611c4781611c0b565b9050919050565b6000611c5982611a83565b9150611c6483611a83565b925082820190508281121560008312168382126000841215161715611c8c57611c8b611a8d565b5b92915050565b7f416c726561647920616374697665206d656d6265720000000000000000000000600082015250565b6000611cc8601583611561565b9150611cd382611c92565b602082019050919050565b60006020820190508181036000830152611cf781611cbb565b9050919050565b600081519050611d0d816116f2565b92915050565b600060208284031215611d2957611d286114c1565b5b6000611d3784828501611cfe565b91505092915050565b7f4e6577204170706c6963616e7420466565205265717569726564000000000000600082015250565b6000611d76601a83611561565b9150611d8182611d40565b602082019050919050565b60006020820190508181036000830152611da581611d69565b9050919050565b7f416c726561647920616374697665206170706c6963616e740000000000000000600082015250565b6000611de2601883611561565b9150611ded82611dac565b602082019050919050565b60006020820190508181036000830152611e1181611dd5565b9050919050565b7f6163636f756e742072656a656374656400000000000000000000000000000000600082015250565b6000611e4e601083611561565b9150611e5982611e18565b602082019050919050565b60006020820190508181036000830152611e7d81611e41565b9050919050565b600082905092915050565b7f4e487b7100000000000000000000000000000000000000000000000000000000600052604160045260246000fd5b60008190508160005260206000209050919050565b60006020601f8301049050919050565b600082821b905092915050565b600060088302611f207fffffffffffffffffffffffffffffffffffffffffffffffffffffffffffffffff82611ee3565b611f2a8683611ee3565b95508019841693508086168417925050509392505050565b6000819050919050565b6000611f67611f62611f5d846116e8565b611f42565b6116e8565b9050919050565b6000819050919050565b611f8183611f4c565b611f95611f8d82611f6e565b848454611ef0565b825550505050565b600090565b611faa611f9d565b611fb5818484611f78565b505050565b5b81811015611fd957611fce600082611fa2565b600181019050611fbb565b5050565b601f82111561201e57611fef81611ebe565b611ff884611ed3565b81016020851015612007578190505b61201b61201385611ed3565b830182611fba565b50505b505050565b600082821c905092915050565b600061204160001984600802612023565b1980831691505092915050565b600061205a8383612030565b9150826002028217905092915050565b6120748383611e84565b67ffffffffffffffff81111561208d5761208c611e8f565b5b612097825461197a565b6120a2828285611fdd565b6000601f8311600181146120d157600084156120bf578287013590505b6120c9858261204e565b865550612131565b601f1984166120df86611ebe565b60005b82811015612107578489013582556001820191506020850194506020810190506120e2565b868310156121245784890135612120601f891682612030565b8355505b6001600288020188555050505b50505050505050565b6000612145826116e8565b9150612150836116e8565b925082820190508082111561216857612167611a8d565b5b92915050565b6000612179826116e8565b9150612184836116e8565b925082820390508181111561219c5761219b611a8d565b5b92915050565b7f4e487b7100000000000000000000000000000000000000000000000000000000600052603160045260246000fdfea2646970667358221220ac9bbf639f2303451360928fe07474509c587a17432ac5eb32254c265706a1bf64736f6c63430008110033","opcodes":"PUSH1 0xC0 PUSH1 0x40 MSTORE CALLVALUE DUP1 ISZERO PUSH3 0x11 JUMPI PUSH1 0x0 DUP1 REVERT JUMPDEST POP PUSH1 0x40 MLOAD PUSH3 0x23D9 CODESIZE SUB DUP1 PUSH3 0x23D9 DUP4 CODECOPY DUP2 DUP2 ADD PUSH1 0x40 MSTORE DUP2 ADD SWAP1 PUSH3 0x37 SWAP2 SWAP1 PUSH3 0x153 JUMP JUMPDEST DUP3 PUSH1 0x6 PUSH1 0x0 PUSH2 0x100 EXP DUP2 SLOAD DUP2 PUSH20 0xFFFFFFFFFFFFFFFFFFFFFFFFFFFFFFFFFFFFFFFF MUL NOT AND SWAP1 DUP4 PUSH20 0xFFFFFFFFFFFFFFFFFFFFFFFFFFFFFFFFFFFFFFFF AND MUL OR SWAP1 SSTORE POP DUP2 PUSH20 0xFFFFFFFFFFFFFFFFFFFFFFFFFFFFFFFFFFFFFFFF AND PUSH1 0x80 DUP2 PUSH20 0xFFFFFFFFFFFFFFFFFFFFFFFFFFFFFFFFFFFFFFFF AND DUP2 MSTORE POP POP DUP1 PUSH20 0xFFFFFFFFFFFFFFFFFFFFFFFFFFFFFFFFFFFFFFFF AND PUSH1 0xA0 DUP2 PUSH20 0xFFFFFFFFFFFFFFFFFFFFFFFFFFFFFFFFFFFFFFFF AND DUP2 MSTORE POP POP POP POP POP PUSH3 0x1AF JUMP JUMPDEST PUSH1 0x0 DUP1 REVERT JUMPDEST PUSH1 0x0 PUSH20 0xFFFFFFFFFFFFFFFFFFFFFFFFFFFFFFFFFFFFFFFF DUP3 AND SWAP1 POP SWAP2 SWAP1 POP JUMP JUMPDEST PUSH1 0x0 PUSH3 0x11B DUP3 PUSH3 0xEE JUMP JUMPDEST SWAP1 POP SWAP2 SWAP1 POP JUMP JUMPDEST PUSH3 0x12D DUP2 PUSH3 0x10E JUMP JUMPDEST DUP2 EQ PUSH3 0x139 JUMPI PUSH1 0x0 DUP1 REVERT JUMPDEST POP JUMP JUMPDEST PUSH1 0x0 DUP2 MLOAD SWAP1 POP PUSH3 0x14D DUP2 PUSH3 0x122 JUMP JUMPDEST SWAP3 SWAP2 POP POP JUMP JUMPDEST PUSH1 0x0 DUP1 PUSH1 0x0 PUSH1 0x60 DUP5 DUP7 SUB SLT ISZERO PUSH3 0x16F JUMPI PUSH3 0x16E PUSH3 0xE9 JUMP JUMPDEST JUMPDEST PUSH1 0x0 PUSH3 0x17F DUP7 DUP3 DUP8 ADD PUSH3 0x13C JUMP JUMPDEST SWAP4 POP POP PUSH1 0x20 PUSH3 0x192 DUP7 DUP3 DUP8 ADD PUSH3 0x13C JUMP JUMPDEST SWAP3 POP POP PUSH1 0x40 PUSH3 0x1A5 DUP7 DUP3 DUP8 ADD PUSH3 0x13C JUMP JUMPDEST SWAP2 POP POP SWAP3 POP SWAP3 POP SWAP3 JUMP JUMPDEST PUSH1 0x80 MLOAD PUSH1 0xA0 MLOAD PUSH2 0x2207 PUSH3 0x1D2 PUSH1 0x0 CODECOPY PUSH1 0x0 PUSH2 0xFE7 ADD MSTORE PUSH1 0x0 POP POP PUSH2 0x2207 PUSH1 0x0 RETURN INVALID PUSH1 0x80 PUSH1 0x40 MSTORE PUSH1 0x4 CALLDATASIZE LT PUSH2 0x90 JUMPI PUSH1 0x0 CALLDATALOAD PUSH1 0xE0 SHR DUP1 PUSH4 0x8C468CD4 GT PUSH2 0x59 JUMPI DUP1 PUSH4 0x8C468CD4 EQ PUSH2 0x178 JUMPI DUP1 PUSH4 0xB672BDCB EQ PUSH2 0x1B5 JUMPI DUP1 PUSH4 0xD9A87535 EQ PUSH2 0x1F2 JUMPI DUP1 PUSH4 0xF6EC9738 EQ PUSH2 0x22F JUMPI DUP1 PUSH4 0xFD591902 EQ PUSH2 0x258 JUMPI PUSH2 0x90 JUMP JUMPDEST DUP1 PUSH3 0xAD808F EQ PUSH2 0x95 JUMPI DUP1 PUSH4 0x1292A282 EQ PUSH2 0xD2 JUMPI DUP1 PUSH4 0x273F868E EQ PUSH2 0xFB JUMPI DUP1 PUSH4 0x28F4694C EQ PUSH2 0x124 JUMPI DUP1 PUSH4 0x455772D2 EQ PUSH2 0x14D JUMPI JUMPDEST PUSH1 0x0 DUP1 REVERT JUMPDEST CALLVALUE DUP1 ISZERO PUSH2 0xA1 JUMPI PUSH1 0x0 DUP1 REVERT JUMPDEST POP PUSH2 0xBC PUSH1 0x4 DUP1 CALLDATASIZE SUB DUP2 ADD SWAP1 PUSH2 0xB7 SWAP2 SWAP1 PUSH2 0x1529 JUMP JUMPDEST PUSH2 0x274 JUMP JUMPDEST PUSH1 0x40 MLOAD PUSH2 0xC9 SWAP2 SWAP1 PUSH2 0x15E6 JUMP JUMPDEST PUSH1 0x40 MLOAD DUP1 SWAP2 SUB SWAP1 RETURN JUMPDEST CALLVALUE DUP1 ISZERO PUSH2 0xDE JUMPI PUSH1 0x0 DUP1 REVERT JUMPDEST POP PUSH2 0xF9 PUSH1 0x4 DUP1 CALLDATASIZE SUB DUP2 ADD SWAP1 PUSH2 0xF4 SWAP2 SWAP1 PUSH2 0x1529 JUMP JUMPDEST PUSH2 0x446 JUMP JUMPDEST STOP JUMPDEST CALLVALUE DUP1 ISZERO PUSH2 0x107 JUMPI PUSH1 0x0 DUP1 REVERT JUMPDEST POP PUSH2 0x122 PUSH1 0x4 DUP1 CALLDATASIZE SUB DUP2 ADD SWAP1 PUSH2 0x11D SWAP2 SWAP1 PUSH2 0x1529 JUMP JUMPDEST PUSH2 0x63A JUMP JUMPDEST STOP JUMPDEST CALLVALUE DUP1 ISZERO PUSH2 0x130 JUMPI PUSH1 0x0 DUP1 REVERT JUMPDEST POP PUSH2 0x14B PUSH1 0x4 DUP1 CALLDATASIZE SUB DUP2 ADD SWAP1 PUSH2 0x146 SWAP2 SWAP1 PUSH2 0x1529 JUMP JUMPDEST PUSH2 0x85E JUMP JUMPDEST STOP JUMPDEST CALLVALUE DUP1 ISZERO PUSH2 0x159 JUMPI PUSH1 0x0 DUP1 REVERT JUMPDEST POP PUSH2 0x162 PUSH2 0xC3C JUMP JUMPDEST PUSH1 0x40 MLOAD PUSH2 0x16F SWAP2 SWAP1 PUSH2 0x16C6 JUMP JUMPDEST PUSH1 0x40 MLOAD DUP1 SWAP2 SUB SWAP1 RETURN JUMPDEST CALLVALUE DUP1 ISZERO PUSH2 0x184 JUMPI PUSH1 0x0 DUP1 REVERT JUMPDEST POP PUSH2 0x19F PUSH1 0x4 DUP1 CALLDATASIZE SUB DUP2 ADD SWAP1 PUSH2 0x19A SWAP2 SWAP1 PUSH2 0x171E JUMP JUMPDEST PUSH2 0xDCB JUMP JUMPDEST PUSH1 0x40 MLOAD PUSH2 0x1AC SWAP2 SWAP1 PUSH2 0x175A JUMP JUMPDEST PUSH1 0x40 MLOAD DUP1 SWAP2 SUB SWAP1 RETURN JUMPDEST CALLVALUE DUP1 ISZERO PUSH2 0x1C1 JUMPI PUSH1 0x0 DUP1 REVERT JUMPDEST POP PUSH2 0x1DC PUSH1 0x4 DUP1 CALLDATASIZE SUB DUP2 ADD SWAP1 PUSH2 0x1D7 SWAP2 SWAP1 PUSH2 0x1529 JUMP JUMPDEST PUSH2 0xE0A JUMP JUMPDEST PUSH1 0x40 MLOAD PUSH2 0x1E9 SWAP2 SWAP1 PUSH2 0x1784 JUMP JUMPDEST PUSH1 0x40 MLOAD DUP1 SWAP2 SUB SWAP1 RETURN JUMPDEST CALLVALUE DUP1 ISZERO PUSH2 0x1FE JUMPI PUSH1 0x0 DUP1 REVERT JUMPDEST POP PUSH2 0x219 PUSH1 0x4 DUP1 CALLDATASIZE SUB DUP2 ADD SWAP1 PUSH2 0x214 SWAP2 SWAP1 PUSH2 0x1529 JUMP JUMPDEST PUSH2 0xE53 JUMP JUMPDEST PUSH1 0x40 MLOAD PUSH2 0x226 SWAP2 SWAP1 PUSH2 0x1784 JUMP JUMPDEST PUSH1 0x40 MLOAD DUP1 SWAP2 SUB SWAP1 RETURN JUMPDEST CALLVALUE DUP1 ISZERO PUSH2 0x23B JUMPI PUSH1 0x0 DUP1 REVERT JUMPDEST POP PUSH2 0x256 PUSH1 0x4 DUP1 CALLDATASIZE SUB DUP2 ADD SWAP1 PUSH2 0x251 SWAP2 SWAP1 PUSH2 0x1529 JUMP JUMPDEST PUSH2 0xE9F JUMP JUMPDEST STOP JUMPDEST PUSH2 0x272 PUSH1 0x4 DUP1 CALLDATASIZE SUB DUP2 ADD SWAP1 PUSH2 0x26D SWAP2 SWAP1 PUSH2 0x1804 JUMP JUMPDEST PUSH2 0xEE3 JUMP JUMPDEST STOP JUMPDEST PUSH1 0x60 CALLER PUSH1 0x6 PUSH1 0x0 SWAP1 SLOAD SWAP1 PUSH2 0x100 EXP SWAP1 DIV PUSH20 0xFFFFFFFFFFFFFFFFFFFFFFFFFFFFFFFFFFFFFFFF AND PUSH20 0xFFFFFFFFFFFFFFFFFFFFFFFFFFFFFFFFFFFFFFFF AND PUSH4 0x39AC7A08 DUP3 PUSH1 0x7 PUSH1 0x0 SWAP1 SLOAD SWAP1 PUSH2 0x100 EXP SWAP1 DIV PUSH20 0xFFFFFFFFFFFFFFFFFFFFFFFFFFFFFFFFFFFFFFFF AND PUSH1 0x40 MLOAD DUP4 PUSH4 0xFFFFFFFF AND PUSH1 0xE0 SHL DUP2 MSTORE PUSH1 0x4 ADD PUSH2 0x2F6 SWAP3 SWAP2 SWAP1 PUSH2 0x1851 JUMP JUMPDEST PUSH1 0x20 PUSH1 0x40 MLOAD DUP1 DUP4 SUB DUP2 DUP7 GAS STATICCALL ISZERO DUP1 ISZERO PUSH2 0x313 JUMPI RETURNDATASIZE PUSH1 0x0 DUP1 RETURNDATACOPY RETURNDATASIZE PUSH1 0x0 REVERT JUMPDEST POP POP POP POP PUSH1 0x40 MLOAD RETURNDATASIZE PUSH1 0x1F NOT PUSH1 0x1F DUP3 ADD AND DUP3 ADD DUP1 PUSH1 0x40 MSTORE POP DUP2 ADD SWAP1 PUSH2 0x337 SWAP2 SWAP1 PUSH2 0x18B2 JUMP JUMPDEST PUSH2 0x376 JUMPI PUSH1 0x40 MLOAD PUSH32 0x8C379A000000000000000000000000000000000000000000000000000000000 DUP2 MSTORE PUSH1 0x4 ADD PUSH2 0x36D SWAP1 PUSH2 0x192B JUMP JUMPDEST PUSH1 0x40 MLOAD DUP1 SWAP2 SUB SWAP1 REVERT JUMPDEST PUSH1 0x4 PUSH1 0x0 DUP5 PUSH20 0xFFFFFFFFFFFFFFFFFFFFFFFFFFFFFFFFFFFFFFFF AND PUSH20 0xFFFFFFFFFFFFFFFFFFFFFFFFFFFFFFFFFFFFFFFF AND DUP2 MSTORE PUSH1 0x20 ADD SWAP1 DUP2 MSTORE PUSH1 0x20 ADD PUSH1 0x0 KECCAK256 DUP1 SLOAD PUSH2 0x3C0 SWAP1 PUSH2 0x197A JUMP JUMPDEST DUP1 PUSH1 0x1F ADD PUSH1 0x20 DUP1 SWAP2 DIV MUL PUSH1 0x20 ADD PUSH1 0x40 MLOAD SWAP1 DUP2 ADD PUSH1 0x40 MSTORE DUP1 SWAP3 SWAP2 SWAP1 DUP2 DUP2 MSTORE PUSH1 0x20 ADD DUP3 DUP1 SLOAD PUSH2 0x3EC SWAP1 PUSH2 0x197A JUMP JUMPDEST DUP1 ISZERO PUSH2 0x439 JUMPI DUP1 PUSH1 0x1F LT PUSH2 0x40E JUMPI PUSH2 0x100 DUP1 DUP4 SLOAD DIV MUL DUP4 MSTORE SWAP2 PUSH1 0x20 ADD SWAP2 PUSH2 0x439 JUMP JUMPDEST DUP3 ADD SWAP2 SWAP1 PUSH1 0x0 MSTORE PUSH1 0x20 PUSH1 0x0 KECCAK256 SWAP1 JUMPDEST DUP2 SLOAD DUP2 MSTORE SWAP1 PUSH1 0x1 ADD SWAP1 PUSH1 0x20 ADD DUP1 DUP4 GT PUSH2 0x41C JUMPI DUP3 SWAP1 SUB PUSH1 0x1F AND DUP3 ADD SWAP2 JUMPDEST POP POP POP POP POP SWAP2 POP POP SWAP2 SWAP1 POP JUMP JUMPDEST CALLER PUSH1 0x7 PUSH1 0x0 SWAP1 SLOAD SWAP1 PUSH2 0x100 EXP SWAP1 DIV PUSH20 0xFFFFFFFFFFFFFFFFFFFFFFFFFFFFFFFFFFFFFFFF AND PUSH20 0xFFFFFFFFFFFFFFFFFFFFFFFFFFFFFFFFFFFFFFFF AND DUP2 PUSH20 0xFFFFFFFFFFFFFFFFFFFFFFFFFFFFFFFFFFFFFFFF AND EQ PUSH2 0x4D7 JUMPI PUSH1 0x40 MLOAD PUSH32 0x8C379A000000000000000000000000000000000000000000000000000000000 DUP2 MSTORE PUSH1 0x4 ADD PUSH2 0x4CE SWAP1 PUSH2 0x19F7 JUMP JUMPDEST PUSH1 0x40 MLOAD DUP1 SWAP2 SUB SWAP1 REVERT JUMPDEST PUSH1 0x7 PUSH1 0x0 SWAP1 SLOAD SWAP1 PUSH2 0x100 EXP SWAP1 DIV PUSH20 0xFFFFFFFFFFFFFFFFFFFFFFFFFFFFFFFFFFFFFFFF AND PUSH20 0xFFFFFFFFFFFFFFFFFFFFFFFFFFFFFFFFFFFFFFFF AND CALLER PUSH20 0xFFFFFFFFFFFFFFFFFFFFFFFFFFFFFFFFFFFFFFFF AND EQ PUSH2 0x531 JUMPI PUSH1 0x0 DUP1 REVERT JUMPDEST PUSH1 0x6 PUSH1 0x0 SWAP1 SLOAD SWAP1 PUSH2 0x100 EXP SWAP1 DIV PUSH20 0xFFFFFFFFFFFFFFFFFFFFFFFFFFFFFFFFFFFFFFFF AND PUSH20 0xFFFFFFFFFFFFFFFFFFFFFFFFFFFFFFFFFFFFFFFF AND PUSH4 0x9D58B15D PUSH1 0x7 PUSH1 0x0 SWAP1 SLOAD SWAP1 PUSH2 0x100 EXP SWAP1 DIV PUSH20 0xFFFFFFFFFFFFFFFFFFFFFFFFFFFFFFFFFFFFFFFF AND DUP5 PUSH1 0x40 MLOAD DUP4 PUSH4 0xFFFFFFFF AND PUSH1 0xE0 SHL DUP2 MSTORE PUSH1 0x4 ADD PUSH2 0x5B0 SWAP3 SWAP2 SWAP1 PUSH2 0x1851 JUMP JUMPDEST PUSH1 0x0 PUSH1 0x40 MLOAD DUP1 DUP4 SUB DUP2 PUSH1 0x0 DUP8 DUP1 EXTCODESIZE ISZERO DUP1 ISZERO PUSH2 0x5CA JUMPI PUSH1 0x0 DUP1 REVERT JUMPDEST POP GAS CALL ISZERO DUP1 ISZERO PUSH2 0x5DE JUMPI RETURNDATASIZE PUSH1 0x0 DUP1 RETURNDATACOPY RETURNDATASIZE PUSH1 0x0 REVERT JUMPDEST POP POP POP POP PUSH2 0x5EB DUP3 PUSH2 0x12F7 JUMP JUMPDEST PUSH1 0x1 PUSH1 0x0 CALLER PUSH20 0xFFFFFFFFFFFFFFFFFFFFFFFFFFFFFFFFFFFFFFFF AND PUSH20 0xFFFFFFFFFFFFFFFFFFFFFFFFFFFFFFFFFFFFFFFF AND DUP2 MSTORE PUSH1 0x20 ADD SWAP1 DUP2 MSTORE PUSH1 0x20 ADD PUSH1 0x0 KECCAK256 PUSH1 0x0 PUSH2 0x636 SWAP2 SWAP1 PUSH2 0x1483 JUMP JUMPDEST POP POP JUMP JUMPDEST CALLER PUSH1 0x7 PUSH1 0x0 SWAP1 SLOAD SWAP1 PUSH2 0x100 EXP SWAP1 DIV PUSH20 0xFFFFFFFFFFFFFFFFFFFFFFFFFFFFFFFFFFFFFFFF AND PUSH20 0xFFFFFFFFFFFFFFFFFFFFFFFFFFFFFFFFFFFFFFFF AND DUP2 PUSH20 0xFFFFFFFFFFFFFFFFFFFFFFFFFFFFFFFFFFFFFFFF AND EQ PUSH2 0x6CB JUMPI PUSH1 0x40 MLOAD PUSH32 0x8C379A000000000000000000000000000000000000000000000000000000000 DUP2 MSTORE PUSH1 0x4 ADD PUSH2 0x6C2 SWAP1 PUSH2 0x19F7 JUMP JUMPDEST PUSH1 0x40 MLOAD DUP1 SWAP2 SUB SWAP1 REVERT JUMPDEST PUSH1 0x3 PUSH1 0x0 DUP4 PUSH20 0xFFFFFFFFFFFFFFFFFFFFFFFFFFFFFFFFFFFFFFFF AND PUSH20 0xFFFFFFFFFFFFFFFFFFFFFFFFFFFFFFFFFFFFFFFF AND DUP2 MSTORE PUSH1 0x20 ADD SWAP1 DUP2 MSTORE PUSH1 0x20 ADD PUSH1 0x0 KECCAK256 PUSH1 0x0 SWAP1 SLOAD SWAP1 PUSH2 0x100 EXP SWAP1 DIV PUSH1 0xFF AND PUSH2 0x757 JUMPI PUSH1 0x40 MLOAD PUSH32 0x8C379A000000000000000000000000000000000000000000000000000000000 DUP2 MSTORE PUSH1 0x4 ADD PUSH2 0x74E SWAP1 PUSH2 0x1A63 JUMP JUMPDEST PUSH1 0x40 MLOAD DUP1 SWAP2 SUB SWAP1 REVERT JUMPDEST PUSH1 0x0 PUSH1 0x3 PUSH1 0x0 DUP5 PUSH20 0xFFFFFFFFFFFFFFFFFFFFFFFFFFFFFFFFFFFFFFFF AND PUSH20 0xFFFFFFFFFFFFFFFFFFFFFFFFFFFFFFFFFFFFFFFF AND DUP2 MSTORE PUSH1 0x20 ADD SWAP1 DUP2 MSTORE PUSH1 0x20 ADD PUSH1 0x0 KECCAK256 PUSH1 0x0 PUSH2 0x100 EXP DUP2 SLOAD DUP2 PUSH1 0xFF MUL NOT AND SWAP1 DUP4 ISZERO ISZERO MUL OR SWAP1 SSTORE POP PUSH1 0x1 PUSH1 0x2 PUSH1 0x0 CALLER PUSH20 0xFFFFFFFFFFFFFFFFFFFFFFFFFFFFFFFFFFFFFFFF AND PUSH20 0xFFFFFFFFFFFFFFFFFFFFFFFFFFFFFFFFFFFFFFFF AND DUP2 MSTORE PUSH1 0x20 ADD SWAP1 DUP2 MSTORE PUSH1 0x20 ADD PUSH1 0x0 KECCAK256 PUSH1 0x0 DUP3 DUP3 SLOAD PUSH2 0x7FF SWAP2 SWAP1 PUSH2 0x1ABC JUMP JUMPDEST SWAP3 POP POP DUP2 SWAP1 SSTORE POP PUSH2 0x80F DUP3 PUSH2 0x12F7 JUMP JUMPDEST PUSH1 0x1 PUSH1 0x0 CALLER PUSH20 0xFFFFFFFFFFFFFFFFFFFFFFFFFFFFFFFFFFFFFFFF AND PUSH20 0xFFFFFFFFFFFFFFFFFFFFFFFFFFFFFFFFFFFFFFFF AND DUP2 MSTORE PUSH1 0x20 ADD SWAP1 DUP2 MSTORE PUSH1 0x20 ADD PUSH1 0x0 KECCAK256 PUSH1 0x0 PUSH2 0x85A SWAP2 SWAP1 PUSH2 0x1483 JUMP JUMPDEST POP POP JUMP JUMPDEST CALLER PUSH1 0x6 PUSH1 0x0 SWAP1 SLOAD SWAP1 PUSH2 0x100 EXP SWAP1 DIV PUSH20 0xFFFFFFFFFFFFFFFFFFFFFFFFFFFFFFFFFFFFFFFF AND PUSH20 0xFFFFFFFFFFFFFFFFFFFFFFFFFFFFFFFFFFFFFFFF AND PUSH4 0x39AC7A08 DUP3 PUSH1 0x7 PUSH1 0x0 SWAP1 SLOAD SWAP1 PUSH2 0x100 EXP SWAP1 DIV PUSH20 0xFFFFFFFFFFFFFFFFFFFFFFFFFFFFFFFFFFFFFFFF AND PUSH1 0x40 MLOAD DUP4 PUSH4 0xFFFFFFFF AND PUSH1 0xE0 SHL DUP2 MSTORE PUSH1 0x4 ADD PUSH2 0x8DE SWAP3 SWAP2 SWAP1 PUSH2 0x1851 JUMP JUMPDEST PUSH1 0x20 PUSH1 0x40 MLOAD DUP1 DUP4 SUB DUP2 DUP7 GAS STATICCALL ISZERO DUP1 ISZERO PUSH2 0x8FB JUMPI RETURNDATASIZE PUSH1 0x0 DUP1 RETURNDATACOPY RETURNDATASIZE PUSH1 0x0 REVERT JUMPDEST POP POP POP POP PUSH1 0x40 MLOAD RETURNDATASIZE PUSH1 0x1F NOT PUSH1 0x1F DUP3 ADD AND DUP3 ADD DUP1 PUSH1 0x40 MSTORE POP DUP2 ADD SWAP1 PUSH2 0x91F SWAP2 SWAP1 PUSH2 0x18B2 JUMP JUMPDEST PUSH2 0x95E JUMPI PUSH1 0x40 MLOAD PUSH32 0x8C379A000000000000000000000000000000000000000000000000000000000 DUP2 MSTORE PUSH1 0x4 ADD PUSH2 0x955 SWAP1 PUSH2 0x192B JUMP JUMPDEST PUSH1 0x40 MLOAD DUP1 SWAP2 SUB SWAP1 REVERT JUMPDEST PUSH1 0x3 PUSH1 0x0 DUP4 PUSH20 0xFFFFFFFFFFFFFFFFFFFFFFFFFFFFFFFFFFFFFFFF AND PUSH20 0xFFFFFFFFFFFFFFFFFFFFFFFFFFFFFFFFFFFFFFFF AND DUP2 MSTORE PUSH1 0x20 ADD SWAP1 DUP2 MSTORE PUSH1 0x20 ADD PUSH1 0x0 KECCAK256 PUSH1 0x0 SWAP1 SLOAD SWAP1 PUSH2 0x100 EXP SWAP1 DIV PUSH1 0xFF AND PUSH2 0x9EA JUMPI PUSH1 0x40 MLOAD PUSH32 0x8C379A000000000000000000000000000000000000000000000000000000000 DUP2 MSTORE PUSH1 0x4 ADD PUSH2 0x9E1 SWAP1 PUSH2 0x1B4B JUMP JUMPDEST PUSH1 0x40 MLOAD DUP1 SWAP2 SUB SWAP1 REVERT JUMPDEST PUSH1 0x0 DUP1 JUMPDEST PUSH1 0x1 PUSH1 0x0 DUP6 PUSH20 0xFFFFFFFFFFFFFFFFFFFFFFFFFFFFFFFFFFFFFFFF AND PUSH20 0xFFFFFFFFFFFFFFFFFFFFFFFFFFFFFFFFFFFFFFFF AND DUP2 MSTORE PUSH1 0x20 ADD SWAP1 DUP2 MSTORE PUSH1 0x20 ADD PUSH1 0x0 KECCAK256 DUP1 SLOAD SWAP1 POP DUP2 LT ISZERO PUSH2 0xAFE JUMPI CALLER PUSH20 0xFFFFFFFFFFFFFFFFFFFFFFFFFFFFFFFFFFFFFFFF AND PUSH1 0x1 PUSH1 0x0 DUP7 PUSH20 0xFFFFFFFFFFFFFFFFFFFFFFFFFFFFFFFFFFFFFFFF AND PUSH20 0xFFFFFFFFFFFFFFFFFFFFFFFFFFFFFFFFFFFFFFFF AND DUP2 MSTORE PUSH1 0x20 ADD SWAP1 DUP2 MSTORE PUSH1 0x20 ADD PUSH1 0x0 KECCAK256 DUP3 DUP2 SLOAD DUP2 LT PUSH2 0xAA0 JUMPI PUSH2 0xA9F PUSH2 0x1B6B JUMP JUMPDEST JUMPDEST SWAP1 PUSH1 0x0 MSTORE PUSH1 0x20 PUSH1 0x0 KECCAK256 ADD PUSH1 0x0 SWAP1 SLOAD SWAP1 PUSH2 0x100 EXP SWAP1 DIV PUSH20 0xFFFFFFFFFFFFFFFFFFFFFFFFFFFFFFFFFFFFFFFF AND PUSH20 0xFFFFFFFFFFFFFFFFFFFFFFFFFFFFFFFFFFFFFFFF AND SUB PUSH2 0xAEB JUMPI PUSH1 0x1 SWAP2 POP JUMPDEST DUP1 DUP1 PUSH2 0xAF6 SWAP1 PUSH2 0x1B9A JUMP JUMPDEST SWAP2 POP POP PUSH2 0x9EE JUMP JUMPDEST POP DUP1 ISZERO PUSH2 0xB40 JUMPI PUSH1 0x40 MLOAD PUSH32 0x8C379A000000000000000000000000000000000000000000000000000000000 DUP2 MSTORE PUSH1 0x4 ADD PUSH2 0xB37 SWAP1 PUSH2 0x1C2E JUMP JUMPDEST PUSH1 0x40 MLOAD DUP1 SWAP2 SUB SWAP1 REVERT JUMPDEST PUSH1 0x1 PUSH1 0x0 DUP5 PUSH20 0xFFFFFFFFFFFFFFFFFFFFFFFFFFFFFFFFFFFFFFFF AND PUSH20 0xFFFFFFFFFFFFFFFFFFFFFFFFFFFFFFFFFFFFFFFF AND DUP2 MSTORE PUSH1 0x20 ADD SWAP1 DUP2 MSTORE PUSH1 0x20 ADD PUSH1 0x0 KECCAK256 CALLER SWAP1 DUP1 PUSH1 0x1 DUP2 SLOAD ADD DUP1 DUP3 SSTORE DUP1 SWAP2 POP POP PUSH1 0x1 SWAP1 SUB SWAP1 PUSH1 0x0 MSTORE PUSH1 0x20 PUSH1 0x0 KECCAK256 ADD PUSH1 0x0 SWAP1 SWAP2 SWAP1 SWAP2 SWAP1 SWAP2 PUSH2 0x100 EXP DUP2 SLOAD DUP2 PUSH20 0xFFFFFFFFFFFFFFFFFFFFFFFFFFFFFFFFFFFFFFFF MUL NOT AND SWAP1 DUP4 PUSH20 0xFFFFFFFFFFFFFFFFFFFFFFFFFFFFFFFFFFFFFFFF AND MUL OR SWAP1 SSTORE POP PUSH1 0x1 PUSH1 0x2 PUSH1 0x0 DUP6 PUSH20 0xFFFFFFFFFFFFFFFFFFFFFFFFFFFFFFFFFFFFFFFF AND PUSH20 0xFFFFFFFFFFFFFFFFFFFFFFFFFFFFFFFFFFFFFFFF AND DUP2 MSTORE PUSH1 0x20 ADD SWAP1 DUP2 MSTORE PUSH1 0x20 ADD PUSH1 0x0 KECCAK256 PUSH1 0x0 DUP3 DUP3 SLOAD PUSH2 0xC30 SWAP2 SWAP1 PUSH2 0x1C4E JUMP JUMPDEST SWAP3 POP POP DUP2 SWAP1 SSTORE POP POP POP POP JUMP JUMPDEST PUSH1 0x60 CALLER PUSH1 0x6 PUSH1 0x0 SWAP1 SLOAD SWAP1 PUSH2 0x100 EXP SWAP1 DIV PUSH20 0xFFFFFFFFFFFFFFFFFFFFFFFFFFFFFFFFFFFFFFFF AND PUSH20 0xFFFFFFFFFFFFFFFFFFFFFFFFFFFFFFFFFFFFFFFF AND PUSH4 0x39AC7A08 DUP3 PUSH1 0x7 PUSH1 0x0 SWAP1 SLOAD SWAP1 PUSH2 0x100 EXP SWAP1 DIV PUSH20 0xFFFFFFFFFFFFFFFFFFFFFFFFFFFFFFFFFFFFFFFF AND PUSH1 0x40 MLOAD DUP4 PUSH4 0xFFFFFFFF AND PUSH1 0xE0 SHL DUP2 MSTORE PUSH1 0x4 ADD PUSH2 0xCBE SWAP3 SWAP2 SWAP1 PUSH2 0x1851 JUMP JUMPDEST PUSH1 0x20 PUSH1 0x40 MLOAD DUP1 DUP4 SUB DUP2 DUP7 GAS STATICCALL ISZERO DUP1 ISZERO PUSH2 0xCDB JUMPI RETURNDATASIZE PUSH1 0x0 DUP1 RETURNDATACOPY RETURNDATASIZE PUSH1 0x0 REVERT JUMPDEST POP POP POP POP PUSH1 0x40 MLOAD RETURNDATASIZE PUSH1 0x1F NOT PUSH1 0x1F DUP3 ADD AND DUP3 ADD DUP1 PUSH1 0x40 MSTORE POP DUP2 ADD SWAP1 PUSH2 0xCFF SWAP2 SWAP1 PUSH2 0x18B2 JUMP JUMPDEST PUSH2 0xD3E JUMPI PUSH1 0x40 MLOAD PUSH32 0x8C379A000000000000000000000000000000000000000000000000000000000 DUP2 MSTORE PUSH1 0x4 ADD PUSH2 0xD35 SWAP1 PUSH2 0x192B JUMP JUMPDEST PUSH1 0x40 MLOAD DUP1 SWAP2 SUB SWAP1 REVERT JUMPDEST PUSH1 0x0 DUP1 SLOAD DUP1 PUSH1 0x20 MUL PUSH1 0x20 ADD PUSH1 0x40 MLOAD SWAP1 DUP2 ADD PUSH1 0x40 MSTORE DUP1 SWAP3 SWAP2 SWAP1 DUP2 DUP2 MSTORE PUSH1 0x20 ADD DUP3 DUP1 SLOAD DUP1 ISZERO PUSH2 0xDC0 JUMPI PUSH1 0x20 MUL DUP3 ADD SWAP2 SWAP1 PUSH1 0x0 MSTORE PUSH1 0x20 PUSH1 0x0 KECCAK256 SWAP1 JUMPDEST DUP2 PUSH1 0x0 SWAP1 SLOAD SWAP1 PUSH2 0x100 EXP SWAP1 DIV PUSH20 0xFFFFFFFFFFFFFFFFFFFFFFFFFFFFFFFFFFFFFFFF AND PUSH20 0xFFFFFFFFFFFFFFFFFFFFFFFFFFFFFFFFFFFFFFFF AND DUP2 MSTORE PUSH1 0x20 ADD SWAP1 PUSH1 0x1 ADD SWAP1 DUP1 DUP4 GT PUSH2 0xD76 JUMPI JUMPDEST POP POP POP POP POP SWAP2 POP POP SWAP1 JUMP JUMPDEST PUSH1 0x0 DUP2 DUP2 SLOAD DUP2 LT PUSH2 0xDDB JUMPI PUSH1 0x0 DUP1 REVERT JUMPDEST SWAP1 PUSH1 0x0 MSTORE PUSH1 0x20 PUSH1 0x0 KECCAK256 ADD PUSH1 0x0 SWAP2 POP SLOAD SWAP1 PUSH2 0x100 EXP SWAP1 DIV PUSH20 0xFFFFFFFFFFFFFFFFFFFFFFFFFFFFFFFFFFFFFFFF AND DUP2 JUMP JUMPDEST PUSH1 0x0 PUSH1 0x5 PUSH1 0x0 DUP4 PUSH20 0xFFFFFFFFFFFFFFFFFFFFFFFFFFFFFFFFFFFFFFFF AND PUSH20 0xFFFFFFFFFFFFFFFFFFFFFFFFFFFFFFFFFFFFFFFF AND DUP2 MSTORE PUSH1 0x20 ADD SWAP1 DUP2 MSTORE PUSH1 0x20 ADD PUSH1 0x0 KECCAK256 SLOAD SWAP1 POP SWAP2 SWAP1 POP JUMP JUMPDEST PUSH1 0x0 PUSH1 0x1 PUSH1 0x0 DUP4 PUSH20 0xFFFFFFFFFFFFFFFFFFFFFFFFFFFFFFFFFFFFFFFF AND PUSH20 0xFFFFFFFFFFFFFFFFFFFFFFFFFFFFFFFFFFFFFFFF AND DUP2 MSTORE PUSH1 0x20 ADD SWAP1 DUP2 MSTORE PUSH1 0x20 ADD PUSH1 0x0 KECCAK256 DUP1 SLOAD SWAP1 POP SWAP1 POP SWAP2 SWAP1 POP JUMP JUMPDEST DUP1 PUSH1 0x7 PUSH1 0x0 PUSH2 0x100 EXP DUP2 SLOAD DUP2 PUSH20 0xFFFFFFFFFFFFFFFFFFFFFFFFFFFFFFFFFFFFFFFF MUL NOT AND SWAP1 DUP4 PUSH20 0xFFFFFFFFFFFFFFFFFFFFFFFFFFFFFFFFFFFFFFFF AND MUL OR SWAP1 SSTORE POP POP JUMP JUMPDEST PUSH1 0x6 PUSH1 0x0 SWAP1 SLOAD SWAP1 PUSH2 0x100 EXP SWAP1 DIV PUSH20 0xFFFFFFFFFFFFFFFFFFFFFFFFFFFFFFFFFFFFFFFF AND PUSH20 0xFFFFFFFFFFFFFFFFFFFFFFFFFFFFFFFFFFFFFFFF AND PUSH4 0x39AC7A08 CALLER PUSH1 0x7 PUSH1 0x0 SWAP1 SLOAD SWAP1 PUSH2 0x100 EXP SWAP1 DIV PUSH20 0xFFFFFFFFFFFFFFFFFFFFFFFFFFFFFFFFFFFFFFFF AND PUSH1 0x40 MLOAD DUP4 PUSH4 0xFFFFFFFF AND PUSH1 0xE0 SHL DUP2 MSTORE PUSH1 0x4 ADD PUSH2 0xF62 SWAP3 SWAP2 SWAP1 PUSH2 0x1851 JUMP JUMPDEST PUSH1 0x20 PUSH1 0x40 MLOAD DUP1 DUP4 SUB DUP2 DUP7 GAS STATICCALL ISZERO DUP1 ISZERO PUSH2 0xF7F JUMPI RETURNDATASIZE PUSH1 0x0 DUP1 RETURNDATACOPY RETURNDATASIZE PUSH1 0x0 REVERT JUMPDEST POP POP POP POP PUSH1 0x40 MLOAD RETURNDATASIZE PUSH1 0x1F NOT PUSH1 0x1F DUP3 ADD AND DUP3 ADD DUP1 PUSH1 0x40 MSTORE POP DUP2 ADD SWAP1 PUSH2 0xFA3 SWAP2 SWAP1 PUSH2 0x18B2 JUMP JUMPDEST ISZERO PUSH2 0xFE3 JUMPI PUSH1 0x40 MLOAD PUSH32 0x8C379A000000000000000000000000000000000000000000000000000000000 DUP2 MSTORE PUSH1 0x4 ADD PUSH2 0xFDA SWAP1 PUSH2 0x1CDE JUMP JUMPDEST PUSH1 0x40 MLOAD DUP1 SWAP2 SUB SWAP1 REVERT JUMPDEST PUSH1 0x0 PUSH32 0x0 SWAP1 POP PUSH1 0x0 DUP2 PUSH20 0xFFFFFFFFFFFFFFFFFFFFFFFFFFFFFFFFFFFFFFFF AND PUSH4 0x4D10DCBB PUSH1 0x40 MLOAD DUP2 PUSH4 0xFFFFFFFF AND PUSH1 0xE0 SHL DUP2 MSTORE PUSH1 0x4 ADD PUSH1 0x20 PUSH1 0x40 MLOAD DUP1 DUP4 SUB DUP2 DUP7 GAS STATICCALL ISZERO DUP1 ISZERO PUSH2 0x1055 JUMPI RETURNDATASIZE PUSH1 0x0 DUP1 RETURNDATACOPY RETURNDATASIZE PUSH1 0x0 REVERT JUMPDEST POP POP POP POP PUSH1 0x40 MLOAD RETURNDATASIZE PUSH1 0x1F NOT PUSH1 0x1F DUP3 ADD AND DUP3 ADD DUP1 PUSH1 0x40 MSTORE POP DUP2 ADD SWAP1 PUSH2 0x1079 SWAP2 SWAP1 PUSH2 0x1D13 JUMP JUMPDEST SWAP1 POP DUP1 CALLVALUE LT ISZERO PUSH2 0x10BE JUMPI PUSH1 0x40 MLOAD PUSH32 0x8C379A000000000000000000000000000000000000000000000000000000000 DUP2 MSTORE PUSH1 0x4 ADD PUSH2 0x10B5 SWAP1 PUSH2 0x1D8C JUMP JUMPDEST PUSH1 0x40 MLOAD DUP1 SWAP2 SUB SWAP1 REVERT JUMPDEST PUSH1 0x3 PUSH1 0x0 CALLER PUSH20 0xFFFFFFFFFFFFFFFFFFFFFFFFFFFFFFFFFFFFFFFF AND PUSH20 0xFFFFFFFFFFFFFFFFFFFFFFFFFFFFFFFFFFFFFFFF AND DUP2 MSTORE PUSH1 0x20 ADD SWAP1 DUP2 MSTORE PUSH1 0x20 ADD PUSH1 0x0 KECCAK256 PUSH1 0x0 SWAP1 SLOAD SWAP1 PUSH2 0x100 EXP SWAP1 DIV PUSH1 0xFF AND ISZERO PUSH2 0x114B JUMPI PUSH1 0x40 MLOAD PUSH32 0x8C379A000000000000000000000000000000000000000000000000000000000 DUP2 MSTORE PUSH1 0x4 ADD PUSH2 0x1142 SWAP1 PUSH2 0x1DF8 JUMP JUMPDEST PUSH1 0x40 MLOAD DUP1 SWAP2 SUB SWAP1 REVERT JUMPDEST PUSH32 0xFFFFFFFFFFFFFFFFFFFFFFFFFFFFFFFFFFFFFFFFFFFFFFFFFFFFFFFFFFFFFFFD PUSH1 0x2 PUSH1 0x0 CALLER PUSH20 0xFFFFFFFFFFFFFFFFFFFFFFFFFFFFFFFFFFFFFFFF AND PUSH20 0xFFFFFFFFFFFFFFFFFFFFFFFFFFFFFFFFFFFFFFFF AND DUP2 MSTORE PUSH1 0x20 ADD SWAP1 DUP2 MSTORE PUSH1 0x20 ADD PUSH1 0x0 KECCAK256 SLOAD SGT PUSH2 0x11EC JUMPI PUSH1 0x40 MLOAD PUSH32 0x8C379A000000000000000000000000000000000000000000000000000000000 DUP2 MSTORE PUSH1 0x4 ADD PUSH2 0x11E3 SWAP1 PUSH2 0x1E64 JUMP JUMPDEST PUSH1 0x40 MLOAD DUP1 SWAP2 SUB SWAP1 REVERT JUMPDEST DUP4 DUP4 PUSH1 0x4 PUSH1 0x0 CALLER PUSH20 0xFFFFFFFFFFFFFFFFFFFFFFFFFFFFFFFFFFFFFFFF AND PUSH20 0xFFFFFFFFFFFFFFFFFFFFFFFFFFFFFFFFFFFFFFFF AND DUP2 MSTORE PUSH1 0x20 ADD SWAP1 DUP2 MSTORE PUSH1 0x20 ADD PUSH1 0x0 KECCAK256 SWAP2 DUP3 PUSH2 0x123A SWAP3 SWAP2 SWAP1 PUSH2 0x206A JUMP JUMPDEST POP PUSH1 0x0 CALLER SWAP1 DUP1 PUSH1 0x1 DUP2 SLOAD ADD DUP1 DUP3 SSTORE DUP1 SWAP2 POP POP PUSH1 0x1 SWAP1 SUB SWAP1 PUSH1 0x0 MSTORE PUSH1 0x20 PUSH1 0x0 KECCAK256 ADD PUSH1 0x0 SWAP1 SWAP2 SWAP1 SWAP2 SWAP1 SWAP2 PUSH2 0x100 EXP DUP2 SLOAD DUP2 PUSH20 0xFFFFFFFFFFFFFFFFFFFFFFFFFFFFFFFFFFFFFFFF MUL NOT AND SWAP1 DUP4 PUSH20 0xFFFFFFFFFFFFFFFFFFFFFFFFFFFFFFFFFFFFFFFF AND MUL OR SWAP1 SSTORE POP PUSH4 0xF731400 TIMESTAMP PUSH2 0x12AE SWAP2 SWAP1 PUSH2 0x213A JUMP JUMPDEST PUSH1 0x5 PUSH1 0x0 CALLER PUSH20 0xFFFFFFFFFFFFFFFFFFFFFFFFFFFFFFFFFFFFFFFF AND PUSH20 0xFFFFFFFFFFFFFFFFFFFFFFFFFFFFFFFFFFFFFFFF AND DUP2 MSTORE PUSH1 0x20 ADD SWAP1 DUP2 MSTORE PUSH1 0x20 ADD PUSH1 0x0 KECCAK256 DUP2 SWAP1 SSTORE POP POP POP POP POP JUMP JUMPDEST PUSH1 0x0 JUMPDEST PUSH1 0x0 DUP1 SLOAD SWAP1 POP DUP2 LT ISZERO PUSH2 0x138C JUMPI DUP2 PUSH20 0xFFFFFFFFFFFFFFFFFFFFFFFFFFFFFFFFFFFFFFFF AND PUSH1 0x0 DUP3 DUP2 SLOAD DUP2 LT PUSH2 0x1332 JUMPI PUSH2 0x1331 PUSH2 0x1B6B JUMP JUMPDEST JUMPDEST SWAP1 PUSH1 0x0 MSTORE PUSH1 0x20 PUSH1 0x0 KECCAK256 ADD PUSH1 0x0 SWAP1 SLOAD SWAP1 PUSH2 0x100 EXP SWAP1 DIV PUSH20 0xFFFFFFFFFFFFFFFFFFFFFFFFFFFFFFFFFFFFFFFF AND PUSH20 0xFFFFFFFFFFFFFFFFFFFFFFFFFFFFFFFFFFFFFFFF AND SUB ISZERO PUSH2 0x138C JUMPI DUP1 DUP1 PUSH2 0x1384 SWAP1 PUSH2 0x1B9A JUMP JUMPDEST SWAP2 POP POP PUSH2 0x12FA JUMP JUMPDEST PUSH1 0x0 PUSH1 0x1 PUSH1 0x0 DUP1 SLOAD SWAP1 POP PUSH2 0x13A0 SWAP2 SWAP1 PUSH2 0x216E JUMP JUMPDEST DUP2 SLOAD DUP2 LT PUSH2 0x13B1 JUMPI PUSH2 0x13B0 PUSH2 0x1B6B JUMP JUMPDEST JUMPDEST SWAP1 PUSH1 0x0 MSTORE PUSH1 0x20 PUSH1 0x0 KECCAK256 ADD PUSH1 0x0 SWAP1 SLOAD SWAP1 PUSH2 0x100 EXP SWAP1 DIV PUSH20 0xFFFFFFFFFFFFFFFFFFFFFFFFFFFFFFFFFFFFFFFF AND PUSH1 0x0 DUP3 DUP2 SLOAD DUP2 LT PUSH2 0x13F0 JUMPI PUSH2 0x13EF PUSH2 0x1B6B JUMP JUMPDEST JUMPDEST SWAP1 PUSH1 0x0 MSTORE PUSH1 0x20 PUSH1 0x0 KECCAK256 ADD PUSH1 0x0 PUSH2 0x100 EXP DUP2 SLOAD DUP2 PUSH20 0xFFFFFFFFFFFFFFFFFFFFFFFFFFFFFFFFFFFFFFFF MUL NOT AND SWAP1 DUP4 PUSH20 0xFFFFFFFFFFFFFFFFFFFFFFFFFFFFFFFFFFFFFFFF AND MUL OR SWAP1 SSTORE POP PUSH1 0x0 DUP1 SLOAD DUP1 PUSH2 0x144A JUMPI PUSH2 0x1449 PUSH2 0x21A2 JUMP JUMPDEST JUMPDEST PUSH1 0x1 SWAP1 SUB DUP2 DUP2 SWAP1 PUSH1 0x0 MSTORE PUSH1 0x20 PUSH1 0x0 KECCAK256 ADD PUSH1 0x0 PUSH2 0x100 EXP DUP2 SLOAD SWAP1 PUSH20 0xFFFFFFFFFFFFFFFFFFFFFFFFFFFFFFFFFFFFFFFF MUL NOT AND SWAP1 SSTORE SWAP1 SSTORE POP POP JUMP JUMPDEST POP DUP1 SLOAD PUSH1 0x0 DUP3 SSTORE SWAP1 PUSH1 0x0 MSTORE PUSH1 0x20 PUSH1 0x0 KECCAK256 SWAP1 DUP2 ADD SWAP1 PUSH2 0x14A1 SWAP2 SWAP1 PUSH2 0x14A4 JUMP JUMPDEST POP JUMP JUMPDEST JUMPDEST DUP1 DUP3 GT ISZERO PUSH2 0x14BD JUMPI PUSH1 0x0 DUP2 PUSH1 0x0 SWAP1 SSTORE POP PUSH1 0x1 ADD PUSH2 0x14A5 JUMP JUMPDEST POP SWAP1 JUMP JUMPDEST PUSH1 0x0 DUP1 REVERT JUMPDEST PUSH1 0x0 DUP1 REVERT JUMPDEST PUSH1 0x0 PUSH20 0xFFFFFFFFFFFFFFFFFFFFFFFFFFFFFFFFFFFFFFFF DUP3 AND SWAP1 POP SWAP2 SWAP1 POP JUMP JUMPDEST PUSH1 0x0 PUSH2 0x14F6 DUP3 PUSH2 0x14CB JUMP JUMPDEST SWAP1 POP SWAP2 SWAP1 POP JUMP JUMPDEST PUSH2 0x1506 DUP2 PUSH2 0x14EB JUMP JUMPDEST DUP2 EQ PUSH2 0x1511 JUMPI PUSH1 0x0 DUP1 REVERT JUMPDEST POP JUMP JUMPDEST PUSH1 0x0 DUP2 CALLDATALOAD SWAP1 POP PUSH2 0x1523 DUP2 PUSH2 0x14FD JUMP JUMPDEST SWAP3 SWAP2 POP POP JUMP JUMPDEST PUSH1 0x0 PUSH1 0x20 DUP3 DUP5 SUB SLT ISZERO PUSH2 0x153F JUMPI PUSH2 0x153E PUSH2 0x14C1 JUMP JUMPDEST JUMPDEST PUSH1 0x0 PUSH2 0x154D DUP5 DUP3 DUP6 ADD PUSH2 0x1514 JUMP JUMPDEST SWAP2 POP POP SWAP3 SWAP2 POP POP JUMP JUMPDEST PUSH1 0x0 DUP2 MLOAD SWAP1 POP SWAP2 SWAP1 POP JUMP JUMPDEST PUSH1 0x0 DUP3 DUP3 MSTORE PUSH1 0x20 DUP3 ADD SWAP1 POP SWAP3 SWAP2 POP POP JUMP JUMPDEST PUSH1 0x0 JUMPDEST DUP4 DUP2 LT ISZERO PUSH2 0x1590 JUMPI DUP1 DUP3 ADD MLOAD DUP2 DUP5 ADD MSTORE PUSH1 0x20 DUP2 ADD SWAP1 POP PUSH2 0x1575 JUMP JUMPDEST PUSH1 0x0 DUP5 DUP5 ADD MSTORE POP POP POP POP JUMP JUMPDEST PUSH1 0x0 PUSH1 0x1F NOT PUSH1 0x1F DUP4 ADD AND SWAP1 POP SWAP2 SWAP1 POP JUMP JUMPDEST PUSH1 0x0 PUSH2 0x15B8 DUP3 PUSH2 0x1556 JUMP JUMPDEST PUSH2 0x15C2 DUP2 DUP6 PUSH2 0x1561 JUMP JUMPDEST SWAP4 POP PUSH2 0x15D2 DUP2 DUP6 PUSH1 0x20 DUP7 ADD PUSH2 0x1572 JUMP JUMPDEST PUSH2 0x15DB DUP2 PUSH2 0x159C JUMP JUMPDEST DUP5 ADD SWAP2 POP POP SWAP3 SWAP2 POP POP JUMP JUMPDEST PUSH1 0x0 PUSH1 0x20 DUP3 ADD SWAP1 POP DUP2 DUP2 SUB PUSH1 0x0 DUP4 ADD MSTORE PUSH2 0x1600 DUP2 DUP5 PUSH2 0x15AD JUMP JUMPDEST SWAP1 POP SWAP3 SWAP2 POP POP JUMP JUMPDEST PUSH1 0x0 DUP2 MLOAD SWAP1 POP SWAP2 SWAP1 POP JUMP JUMPDEST PUSH1 0x0 DUP3 DUP3 MSTORE PUSH1 0x20 DUP3 ADD SWAP1 POP SWAP3 SWAP2 POP POP JUMP JUMPDEST PUSH1 0x0 DUP2 SWAP1 POP PUSH1 0x20 DUP3 ADD SWAP1 POP SWAP2 SWAP1 POP JUMP JUMPDEST PUSH2 0x163D DUP2 PUSH2 0x14EB JUMP JUMPDEST DUP3 MSTORE POP POP JUMP JUMPDEST PUSH1 0x0 PUSH2 0x164F DUP4 DUP4 PUSH2 0x1634 JUMP JUMPDEST PUSH1 0x20 DUP4 ADD SWAP1 POP SWAP3 SWAP2 POP POP JUMP JUMPDEST PUSH1 0x0 PUSH1 0x20 DUP3 ADD SWAP1 POP SWAP2 SWAP1 POP JUMP JUMPDEST PUSH1 0x0 PUSH2 0x1673 DUP3 PUSH2 0x1608 JUMP JUMPDEST PUSH2 0x167D DUP2 DUP6 PUSH2 0x1613 JUMP JUMPDEST SWAP4 POP PUSH2 0x1688 DUP4 PUSH2 0x1624 JUMP JUMPDEST DUP1 PUSH1 0x0 JUMPDEST DUP4 DUP2 LT ISZERO PUSH2 0x16B9 JUMPI DUP2 MLOAD PUSH2 0x16A0 DUP9 DUP3 PUSH2 0x1643 JUMP JUMPDEST SWAP8 POP PUSH2 0x16AB DUP4 PUSH2 0x165B JUMP JUMPDEST SWAP3 POP POP PUSH1 0x1 DUP2 ADD SWAP1 POP PUSH2 0x168C JUMP JUMPDEST POP DUP6 SWAP4 POP POP POP POP SWAP3 SWAP2 POP POP JUMP JUMPDEST PUSH1 0x0 PUSH1 0x20 DUP3 ADD SWAP1 POP DUP2 DUP2 SUB PUSH1 0x0 DUP4 ADD MSTORE PUSH2 0x16E0 DUP2 DUP5 PUSH2 0x1668 JUMP JUMPDEST SWAP1 POP SWAP3 SWAP2 POP POP JUMP JUMPDEST PUSH1 0x0 DUP2 SWAP1 POP SWAP2 SWAP1 POP JUMP JUMPDEST PUSH2 0x16FB DUP2 PUSH2 0x16E8 JUMP JUMPDEST DUP2 EQ PUSH2 0x1706 JUMPI PUSH1 0x0 DUP1 REVERT JUMPDEST POP JUMP JUMPDEST PUSH1 0x0 DUP2 CALLDATALOAD SWAP1 POP PUSH2 0x1718 DUP2 PUSH2 0x16F2 JUMP JUMPDEST SWAP3 SWAP2 POP POP JUMP JUMPDEST PUSH1 0x0 PUSH1 0x20 DUP3 DUP5 SUB SLT ISZERO PUSH2 0x1734 JUMPI PUSH2 0x1733 PUSH2 0x14C1 JUMP JUMPDEST JUMPDEST PUSH1 0x0 PUSH2 0x1742 DUP5 DUP3 DUP6 ADD PUSH2 0x1709 JUMP JUMPDEST SWAP2 POP POP SWAP3 SWAP2 POP POP JUMP JUMPDEST PUSH2 0x1754 DUP2 PUSH2 0x14EB JUMP JUMPDEST DUP3 MSTORE POP POP JUMP JUMPDEST PUSH1 0x0 PUSH1 0x20 DUP3 ADD SWAP1 POP PUSH2 0x176F PUSH1 0x0 DUP4 ADD DUP5 PUSH2 0x174B JUMP JUMPDEST SWAP3 SWAP2 POP POP JUMP JUMPDEST PUSH2 0x177E DUP2 PUSH2 0x16E8 JUMP JUMPDEST DUP3 MSTORE POP POP JUMP JUMPDEST PUSH1 0x0 PUSH1 0x20 DUP3 ADD SWAP1 POP PUSH2 0x1799 PUSH1 0x0 DUP4 ADD DUP5 PUSH2 0x1775 JUMP JUMPDEST SWAP3 SWAP2 POP POP JUMP JUMPDEST PUSH1 0x0 DUP1 REVERT JUMPDEST PUSH1 0x0 DUP1 REVERT JUMPDEST PUSH1 0x0 DUP1 REVERT JUMPDEST PUSH1 0x0 DUP1 DUP4 PUSH1 0x1F DUP5 ADD SLT PUSH2 0x17C4 JUMPI PUSH2 0x17C3 PUSH2 0x179F JUMP JUMPDEST JUMPDEST DUP3 CALLDATALOAD SWAP1 POP PUSH8 0xFFFFFFFFFFFFFFFF DUP2 GT ISZERO PUSH2 0x17E1 JUMPI PUSH2 0x17E0 PUSH2 0x17A4 JUMP JUMPDEST JUMPDEST PUSH1 0x20 DUP4 ADD SWAP2 POP DUP4 PUSH1 0x1 DUP3 MUL DUP4 ADD GT ISZERO PUSH2 0x17FD JUMPI PUSH2 0x17FC PUSH2 0x17A9 JUMP JUMPDEST JUMPDEST SWAP3 POP SWAP3 SWAP1 POP JUMP JUMPDEST PUSH1 0x0 DUP1 PUSH1 0x20 DUP4 DUP6 SUB SLT ISZERO PUSH2 0x181B JUMPI PUSH2 0x181A PUSH2 0x14C1 JUMP JUMPDEST JUMPDEST PUSH1 0x0 DUP4 ADD CALLDATALOAD PUSH8 0xFFFFFFFFFFFFFFFF DUP2 GT ISZERO PUSH2 0x1839 JUMPI PUSH2 0x1838 PUSH2 0x14C6 JUMP JUMPDEST JUMPDEST PUSH2 0x1845 DUP6 DUP3 DUP7 ADD PUSH2 0x17AE JUMP JUMPDEST SWAP3 POP SWAP3 POP POP SWAP3 POP SWAP3 SWAP1 POP JUMP JUMPDEST PUSH1 0x0 PUSH1 0x40 DUP3 ADD SWAP1 POP PUSH2 0x1866 PUSH1 0x0 DUP4 ADD DUP6 PUSH2 0x174B JUMP JUMPDEST PUSH2 0x1873 PUSH1 0x20 DUP4 ADD DUP5 PUSH2 0x174B JUMP JUMPDEST SWAP4 SWAP3 POP POP POP JUMP JUMPDEST PUSH1 0x0 DUP2 ISZERO ISZERO SWAP1 POP SWAP2 SWAP1 POP JUMP JUMPDEST PUSH2 0x188F DUP2 PUSH2 0x187A JUMP JUMPDEST DUP2 EQ PUSH2 0x189A JUMPI PUSH1 0x0 DUP1 REVERT JUMPDEST POP JUMP JUMPDEST PUSH1 0x0 DUP2 MLOAD SWAP1 POP PUSH2 0x18AC DUP2 PUSH2 0x1886 JUMP JUMPDEST SWAP3 SWAP2 POP POP JUMP JUMPDEST PUSH1 0x0 PUSH1 0x20 DUP3 DUP5 SUB SLT ISZERO PUSH2 0x18C8 JUMPI PUSH2 0x18C7 PUSH2 0x14C1 JUMP JUMPDEST JUMPDEST PUSH1 0x0 PUSH2 0x18D6 DUP5 DUP3 DUP6 ADD PUSH2 0x189D JUMP JUMPDEST SWAP2 POP POP SWAP3 SWAP2 POP POP JUMP JUMPDEST PUSH32 0x526571756972656420746F2062652061206D656D656265720000000000000000 PUSH1 0x0 DUP3 ADD MSTORE POP JUMP JUMPDEST PUSH1 0x0 PUSH2 0x1915 PUSH1 0x18 DUP4 PUSH2 0x1561 JUMP JUMPDEST SWAP2 POP PUSH2 0x1920 DUP3 PUSH2 0x18DF JUMP JUMPDEST PUSH1 0x20 DUP3 ADD SWAP1 POP SWAP2 SWAP1 POP JUMP JUMPDEST PUSH1 0x0 PUSH1 0x20 DUP3 ADD SWAP1 POP DUP2 DUP2 SUB PUSH1 0x0 DUP4 ADD MSTORE PUSH2 0x1944 DUP2 PUSH2 0x1908 JUMP JUMPDEST SWAP1 POP SWAP2 SWAP1 POP JUMP JUMPDEST PUSH32 0x4E487B7100000000000000000000000000000000000000000000000000000000 PUSH1 0x0 MSTORE PUSH1 0x22 PUSH1 0x4 MSTORE PUSH1 0x24 PUSH1 0x0 REVERT JUMPDEST PUSH1 0x0 PUSH1 0x2 DUP3 DIV SWAP1 POP PUSH1 0x1 DUP3 AND DUP1 PUSH2 0x1992 JUMPI PUSH1 0x7F DUP3 AND SWAP2 POP JUMPDEST PUSH1 0x20 DUP3 LT DUP2 SUB PUSH2 0x19A5 JUMPI PUSH2 0x19A4 PUSH2 0x194B JUMP JUMPDEST JUMPDEST POP SWAP2 SWAP1 POP JUMP JUMPDEST PUSH32 0x4163636573732044656E69656400000000000000000000000000000000000000 PUSH1 0x0 DUP3 ADD MSTORE POP JUMP JUMPDEST PUSH1 0x0 PUSH2 0x19E1 PUSH1 0xD DUP4 PUSH2 0x1561 JUMP JUMPDEST SWAP2 POP PUSH2 0x19EC DUP3 PUSH2 0x19AB JUMP JUMPDEST PUSH1 0x20 DUP3 ADD SWAP1 POP SWAP2 SWAP1 POP JUMP JUMPDEST PUSH1 0x0 PUSH1 0x20 DUP3 ADD SWAP1 POP DUP2 DUP2 SUB PUSH1 0x0 DUP4 ADD MSTORE PUSH2 0x1A10 DUP2 PUSH2 0x19D4 JUMP JUMPDEST SWAP1 POP SWAP2 SWAP1 POP JUMP JUMPDEST PUSH32 0x496E76616C6964206170706C6963616E74206164647265737300000000000000 PUSH1 0x0 DUP3 ADD MSTORE POP JUMP JUMPDEST PUSH1 0x0 PUSH2 0x1A4D PUSH1 0x19 DUP4 PUSH2 0x1561 JUMP JUMPDEST SWAP2 POP PUSH2 0x1A58 DUP3 PUSH2 0x1A17 JUMP JUMPDEST PUSH1 0x20 DUP3 ADD SWAP1 POP SWAP2 SWAP1 POP JUMP JUMPDEST PUSH1 0x0 PUSH1 0x20 DUP3 ADD SWAP1 POP DUP2 DUP2 SUB PUSH1 0x0 DUP4 ADD MSTORE PUSH2 0x1A7C DUP2 PUSH2 0x1A40 JUMP JUMPDEST SWAP1 POP SWAP2 SWAP1 POP JUMP JUMPDEST PUSH1 0x0 DUP2 SWAP1 POP SWAP2 SWAP1 POP JUMP JUMPDEST PUSH32 0x4E487B7100000000000000000000000000000000000000000000000000000000 PUSH1 0x0 MSTORE PUSH1 0x11 PUSH1 0x4 MSTORE PUSH1 0x24 PUSH1 0x0 REVERT JUMPDEST PUSH1 0x0 PUSH2 0x1AC7 DUP3 PUSH2 0x1A83 JUMP JUMPDEST SWAP2 POP PUSH2 0x1AD2 DUP4 PUSH2 0x1A83 JUMP JUMPDEST SWAP3 POP DUP3 DUP3 SUB SWAP1 POP DUP2 DUP2 SLT PUSH1 0x0 DUP5 SLT AND DUP3 DUP3 SGT PUSH1 0x0 DUP6 SLT ISZERO AND OR ISZERO PUSH2 0x1AF9 JUMPI PUSH2 0x1AF8 PUSH2 0x1A8D JUMP JUMPDEST JUMPDEST SWAP3 SWAP2 POP POP JUMP JUMPDEST PUSH32 0x4E6F742061206170706C6963616E740000000000000000000000000000000000 PUSH1 0x0 DUP3 ADD MSTORE POP JUMP JUMPDEST PUSH1 0x0 PUSH2 0x1B35 PUSH1 0xF DUP4 PUSH2 0x1561 JUMP JUMPDEST SWAP2 POP PUSH2 0x1B40 DUP3 PUSH2 0x1AFF JUMP JUMPDEST PUSH1 0x20 DUP3 ADD SWAP1 POP SWAP2 SWAP1 POP JUMP JUMPDEST PUSH1 0x0 PUSH1 0x20 DUP3 ADD SWAP1 POP DUP2 DUP2 SUB PUSH1 0x0 DUP4 ADD MSTORE PUSH2 0x1B64 DUP2 PUSH2 0x1B28 JUMP JUMPDEST SWAP1 POP SWAP2 SWAP1 POP JUMP JUMPDEST PUSH32 0x4E487B7100000000000000000000000000000000000000000000000000000000 PUSH1 0x0 MSTORE PUSH1 0x32 PUSH1 0x4 MSTORE PUSH1 0x24 PUSH1 0x0 REVERT JUMPDEST PUSH1 0x0 PUSH2 0x1BA5 DUP3 PUSH2 0x16E8 JUMP JUMPDEST SWAP2 POP PUSH32 0xFFFFFFFFFFFFFFFFFFFFFFFFFFFFFFFFFFFFFFFFFFFFFFFFFFFFFFFFFFFFFFFF DUP3 SUB PUSH2 0x1BD7 JUMPI PUSH2 0x1BD6 PUSH2 0x1A8D JUMP JUMPDEST JUMPDEST PUSH1 0x1 DUP3 ADD SWAP1 POP SWAP2 SWAP1 POP JUMP JUMPDEST PUSH32 0x53656E64657220616C726561647920766F746564000000000000000000000000 PUSH1 0x0 DUP3 ADD MSTORE POP JUMP JUMPDEST PUSH1 0x0 PUSH2 0x1C18 PUSH1 0x14 DUP4 PUSH2 0x1561 JUMP JUMPDEST SWAP2 POP PUSH2 0x1C23 DUP3 PUSH2 0x1BE2 JUMP JUMPDEST PUSH1 0x20 DUP3 ADD SWAP1 POP SWAP2 SWAP1 POP JUMP JUMPDEST PUSH1 0x0 PUSH1 0x20 DUP3 ADD SWAP1 POP DUP2 DUP2 SUB PUSH1 0x0 DUP4 ADD MSTORE PUSH2 0x1C47 DUP2 PUSH2 0x1C0B JUMP JUMPDEST SWAP1 POP SWAP2 SWAP1 POP JUMP JUMPDEST PUSH1 0x0 PUSH2 0x1C59 DUP3 PUSH2 0x1A83 JUMP JUMPDEST SWAP2 POP PUSH2 0x1C64 DUP4 PUSH2 0x1A83 JUMP JUMPDEST SWAP3 POP DUP3 DUP3 ADD SWAP1 POP DUP3 DUP2 SLT ISZERO PUSH1 0x0 DUP4 SLT AND DUP4 DUP3 SLT PUSH1 0x0 DUP5 SLT ISZERO AND OR ISZERO PUSH2 0x1C8C JUMPI PUSH2 0x1C8B PUSH2 0x1A8D JUMP JUMPDEST JUMPDEST SWAP3 SWAP2 POP POP JUMP JUMPDEST PUSH32 0x416C726561647920616374697665206D656D6265720000000000000000000000 PUSH1 0x0 DUP3 ADD MSTORE POP JUMP JUMPDEST PUSH1 0x0 PUSH2 0x1CC8 PUSH1 0x15 DUP4 PUSH2 0x1561 JUMP JUMPDEST SWAP2 POP PUSH2 0x1CD3 DUP3 PUSH2 0x1C92 JUMP JUMPDEST PUSH1 0x20 DUP3 ADD SWAP1 POP SWAP2 SWAP1 POP JUMP JUMPDEST PUSH1 0x0 PUSH1 0x20 DUP3 ADD SWAP1 POP DUP2 DUP2 SUB PUSH1 0x0 DUP4 ADD MSTORE PUSH2 0x1CF7 DUP2 PUSH2 0x1CBB JUMP JUMPDEST SWAP1 POP SWAP2 SWAP1 POP JUMP JUMPDEST PUSH1 0x0 DUP2 MLOAD SWAP1 POP PUSH2 0x1D0D DUP2 PUSH2 0x16F2 JUMP JUMPDEST SWAP3 SWAP2 POP POP JUMP JUMPDEST PUSH1 0x0 PUSH1 0x20 DUP3 DUP5 SUB SLT ISZERO PUSH2 0x1D29 JUMPI PUSH2 0x1D28 PUSH2 0x14C1 JUMP JUMPDEST JUMPDEST PUSH1 0x0 PUSH2 0x1D37 DUP5 DUP3 DUP6 ADD PUSH2 0x1CFE JUMP JUMPDEST SWAP2 POP POP SWAP3 SWAP2 POP POP JUMP JUMPDEST PUSH32 0x4E6577204170706C6963616E7420466565205265717569726564000000000000 PUSH1 0x0 DUP3 ADD MSTORE POP JUMP JUMPDEST PUSH1 0x0 PUSH2 0x1D76 PUSH1 0x1A DUP4 PUSH2 0x1561 JUMP JUMPDEST SWAP2 POP PUSH2 0x1D81 DUP3 PUSH2 0x1D40 JUMP JUMPDEST PUSH1 0x20 DUP3 ADD SWAP1 POP SWAP2 SWAP1 POP JUMP JUMPDEST PUSH1 0x0 PUSH1 0x20 DUP3 ADD SWAP1 POP DUP2 DUP2 SUB PUSH1 0x0 DUP4 ADD MSTORE PUSH2 0x1DA5 DUP2 PUSH2 0x1D69 JUMP JUMPDEST SWAP1 POP SWAP2 SWAP1 POP JUMP JUMPDEST PUSH32 0x416C726561647920616374697665206170706C6963616E740000000000000000 PUSH1 0x0 DUP3 ADD MSTORE POP JUMP JUMPDEST PUSH1 0x0 PUSH2 0x1DE2 PUSH1 0x18 DUP4 PUSH2 0x1561 JUMP JUMPDEST SWAP2 POP PUSH2 0x1DED DUP3 PUSH2 0x1DAC JUMP JUMPDEST PUSH1 0x20 DUP3 ADD SWAP1 POP SWAP2 SWAP1 POP JUMP JUMPDEST PUSH1 0x0 PUSH1 0x20 DUP3 ADD SWAP1 POP DUP2 DUP2 SUB PUSH1 0x0 DUP4 ADD MSTORE PUSH2 0x1E11 DUP2 PUSH2 0x1DD5 JUMP JUMPDEST SWAP1 POP SWAP2 SWAP1 POP JUMP JUMPDEST PUSH32 0x6163636F756E742072656A656374656400000000000000000000000000000000 PUSH1 0x0 DUP3 ADD MSTORE POP JUMP JUMPDEST PUSH1 0x0 PUSH2 0x1E4E PUSH1 0x10 DUP4 PUSH2 0x1561 JUMP JUMPDEST SWAP2 POP PUSH2 0x1E59 DUP3 PUSH2 0x1E18 JUMP JUMPDEST PUSH1 0x20 DUP3 ADD SWAP1 POP SWAP2 SWAP1 POP JUMP JUMPDEST PUSH1 0x0 PUSH1 0x20 DUP3 ADD SWAP1 POP DUP2 DUP2 SUB PUSH1 0x0 DUP4 ADD MSTORE PUSH2 0x1E7D DUP2 PUSH2 0x1E41 JUMP JUMPDEST SWAP1 POP SWAP2 SWAP1 POP JUMP JUMPDEST PUSH1 0x0 DUP3 SWAP1 POP SWAP3 SWAP2 POP POP JUMP JUMPDEST PUSH32 0x4E487B7100000000000000000000000000000000000000000000000000000000 PUSH1 0x0 MSTORE PUSH1 0x41 PUSH1 0x4 MSTORE PUSH1 0x24 PUSH1 0x0 REVERT JUMPDEST PUSH1 0x0 DUP2 SWAP1 POP DUP2 PUSH1 0x0 MSTORE PUSH1 0x20 PUSH1 0x0 KECCAK256 SWAP1 POP SWAP2 SWAP1 POP JUMP JUMPDEST PUSH1 0x0 PUSH1 0x20 PUSH1 0x1F DUP4 ADD DIV SWAP1 POP SWAP2 SWAP1 POP JUMP JUMPDEST PUSH1 0x0 DUP3 DUP3 SHL SWAP1 POP SWAP3 SWAP2 POP POP JUMP JUMPDEST PUSH1 0x0 PUSH1 0x8 DUP4 MUL PUSH2 0x1F20 PUSH32 0xFFFFFFFFFFFFFFFFFFFFFFFFFFFFFFFFFFFFFFFFFFFFFFFFFFFFFFFFFFFFFFFF DUP3 PUSH2 0x1EE3 JUMP JUMPDEST PUSH2 0x1F2A DUP7 DUP4 PUSH2 0x1EE3 JUMP JUMPDEST SWAP6 POP DUP1 NOT DUP5 AND SWAP4 POP DUP1 DUP7 AND DUP5 OR SWAP3 POP POP POP SWAP4 SWAP3 POP POP POP JUMP JUMPDEST PUSH1 0x0 DUP2 SWAP1 POP SWAP2 SWAP1 POP JUMP JUMPDEST PUSH1 0x0 PUSH2 0x1F67 PUSH2 0x1F62 PUSH2 0x1F5D DUP5 PUSH2 0x16E8 JUMP JUMPDEST PUSH2 0x1F42 JUMP JUMPDEST PUSH2 0x16E8 JUMP JUMPDEST SWAP1 POP SWAP2 SWAP1 POP JUMP JUMPDEST PUSH1 0x0 DUP2 SWAP1 POP SWAP2 SWAP1 POP JUMP JUMPDEST PUSH2 0x1F81 DUP4 PUSH2 0x1F4C JUMP JUMPDEST PUSH2 0x1F95 PUSH2 0x1F8D DUP3 PUSH2 0x1F6E JUMP JUMPDEST DUP5 DUP5 SLOAD PUSH2 0x1EF0 JUMP JUMPDEST DUP3 SSTORE POP POP POP POP JUMP JUMPDEST PUSH1 0x0 SWAP1 JUMP JUMPDEST PUSH2 0x1FAA PUSH2 0x1F9D JUMP JUMPDEST PUSH2 0x1FB5 DUP2 DUP5 DUP5 PUSH2 0x1F78 JUMP JUMPDEST POP POP POP JUMP JUMPDEST JUMPDEST DUP2 DUP2 LT ISZERO PUSH2 0x1FD9 JUMPI PUSH2 0x1FCE PUSH1 0x0 DUP3 PUSH2 0x1FA2 JUMP JUMPDEST PUSH1 0x1 DUP2 ADD SWAP1 POP PUSH2 0x1FBB JUMP JUMPDEST POP POP JUMP JUMPDEST PUSH1 0x1F DUP3 GT ISZERO PUSH2 0x201E JUMPI PUSH2 0x1FEF DUP2 PUSH2 0x1EBE JUMP JUMPDEST PUSH2 0x1FF8 DUP5 PUSH2 0x1ED3 JUMP JUMPDEST DUP2 ADD PUSH1 0x20 DUP6 LT ISZERO PUSH2 0x2007 JUMPI DUP2 SWAP1 POP JUMPDEST PUSH2 0x201B PUSH2 0x2013 DUP6 PUSH2 0x1ED3 JUMP JUMPDEST DUP4 ADD DUP3 PUSH2 0x1FBA JUMP JUMPDEST POP POP JUMPDEST POP POP POP JUMP JUMPDEST PUSH1 0x0 DUP3 DUP3 SHR SWAP1 POP SWAP3 SWAP2 POP POP JUMP JUMPDEST PUSH1 0x0 PUSH2 0x2041 PUSH1 0x0 NOT DUP5 PUSH1 0x8 MUL PUSH2 0x2023 JUMP JUMPDEST NOT DUP1 DUP4 AND SWAP2 POP POP SWAP3 SWAP2 POP POP JUMP JUMPDEST PUSH1 0x0 PUSH2 0x205A DUP4 DUP4 PUSH2 0x2030 JUMP JUMPDEST SWAP2 POP DUP3 PUSH1 0x2 MUL DUP3 OR SWAP1 POP SWAP3 SWAP2 POP POP JUMP JUMPDEST PUSH2 0x2074 DUP4 DUP4 PUSH2 0x1E84 JUMP JUMPDEST PUSH8 0xFFFFFFFFFFFFFFFF DUP2 GT ISZERO PUSH2 0x208D JUMPI PUSH2 0x208C PUSH2 0x1E8F JUMP JUMPDEST JUMPDEST PUSH2 0x2097 DUP3 SLOAD PUSH2 0x197A JUMP JUMPDEST PUSH2 0x20A2 DUP3 DUP3 DUP6 PUSH2 0x1FDD JUMP JUMPDEST PUSH1 0x0 PUSH1 0x1F DUP4 GT PUSH1 0x1 DUP2 EQ PUSH2 0x20D1 JUMPI PUSH1 0x0 DUP5 ISZERO PUSH2 0x20BF JUMPI DUP3 DUP8 ADD CALLDATALOAD SWAP1 POP JUMPDEST PUSH2 0x20C9 DUP6 DUP3 PUSH2 0x204E JUMP JUMPDEST DUP7 SSTORE POP PUSH2 0x2131 JUMP JUMPDEST PUSH1 0x1F NOT DUP5 AND PUSH2 0x20DF DUP7 PUSH2 0x1EBE JUMP JUMPDEST PUSH1 0x0 JUMPDEST DUP3 DUP2 LT ISZERO PUSH2 0x2107 JUMPI DUP5 DUP10 ADD CALLDATALOAD DUP3 SSTORE PUSH1 0x1 DUP3 ADD SWAP2 POP PUSH1 0x20 DUP6 ADD SWAP5 POP PUSH1 0x20 DUP2 ADD SWAP1 POP PUSH2 0x20E2 JUMP JUMPDEST DUP7 DUP4 LT ISZERO PUSH2 0x2124 JUMPI DUP5 DUP10 ADD CALLDATALOAD PUSH2 0x2120 PUSH1 0x1F DUP10 AND DUP3 PUSH2 0x2030 JUMP JUMPDEST DUP4 SSTORE POP JUMPDEST PUSH1 0x1 PUSH1 0x2 DUP9 MUL ADD DUP9 SSTORE POP POP POP JUMPDEST POP POP POP POP POP POP POP JUMP JUMPDEST PUSH1 0x0 PUSH2 0x2145 DUP3 PUSH2 0x16E8 JUMP JUMPDEST SWAP2 POP PUSH2 0x2150 DUP4 PUSH2 0x16E8 JUMP JUMPDEST SWAP3 POP DUP3 DUP3 ADD SWAP1 POP DUP1 DUP3 GT ISZERO PUSH2 0x2168 JUMPI PUSH2 0x2167 PUSH2 0x1A8D JUMP JUMPDEST JUMPDEST SWAP3 SWAP2 POP POP JUMP JUMPDEST PUSH1 0x0 PUSH2 0x2179 DUP3 PUSH2 0x16E8 JUMP JUMPDEST SWAP2 POP PUSH2 0x2184 DUP4 PUSH2 0x16E8 JUMP JUMPDEST SWAP3 POP DUP3 DUP3 SUB SWAP1 POP DUP2 DUP2 GT ISZERO PUSH2 0x219C JUMPI PUSH2 0x219B PUSH2 0x1A8D JUMP JUMPDEST JUMPDEST SWAP3 SWAP2 POP POP JUMP JUMPDEST PUSH32 0x4E487B7100000000000000000000000000000000000000000000000000000000 PUSH1 0x0 MSTORE PUSH1 0x31 PUSH1 0x4 MSTORE PUSH1 0x24 PUSH1 0x0 REVERT INVALID LOG2 PUSH5 0x6970667358 0x22 SLT KECCAK256 0xAC SWAP12 0xBF PUSH4 0x9F230345 SGT PUSH1 0x92 DUP16 0xE0 PUSH21 0x74509C587A17432AC5EB32254C265706A1BF64736F PUSH13 0x63430008110033000000000000 "},"gasEstimates":{"creation":{"codeDepositCost":"1742200","executionCost":"infinite","totalCost":"infinite"},"external":{"applicantList(uint256)":"4956","approveApplicant(address)":"infinite","createApplicant(string)":"infinite","getApplicantVoteCount(address)":"2893","getApplicantVoteEndDate(address)":"2863","getApplicantWords(address)":"infinite","getApplicants()":"infinite","rejectApplicant(address)":"infinite","setMemberPoolAddress(address)":"24788","voteForApplicant(address)":"infinite"},"internal":{"_burnApplicant(address)":"infinite"}},"methodIdentifiers":{"applicantList(uint256)":"8c468cd4","approveApplicant(address)":"1292a282","createApplicant(string)":"fd591902","getApplicantVoteCount(address)":"d9a87535","getApplicantVoteEndDate(address)":"b672bdcb","getApplicantWords(address)":"00ad808f","getApplicants()":"455772d2","rejectApplicant(address)":"273f868e","setMemberPoolAddress(address)":"f6ec9738","voteForApplicant(address)":"28f4694c"}},"storageLayout":{"storage":[{"astId":18,"contract":"ApplicantPool.sol:ApplicantPool","label":"applicantList","offset":0,"slot":"0","type":"t_array(t_address)dyn_storage"},{"astId":23,"contract":"ApplicantPool.sol:ApplicantPool","label":"applicantVotes","offset":0,"slot":"1","type":"t_mapping(t_address,t_array(t_address)dyn_storage)"},{"astId":27,"contract":"ApplicantPool.sol:ApplicantPool","label":"applicantPoints","offset":0,"slot":"2","type":"t_mapping(t_address,t_int256)"},{"astId":31,"contract":"ApplicantPool.sol:ApplicantPool","label":"activeApplicants","offset":0,"slot":"3","type":"t_mapping(t_address,t_bool)"},{"astId":35,"contract":"ApplicantPool.sol:ApplicantPool","label":"applicantWords","offset":0,"slot":"4","type":"t_mapping(t_address,t_string_storage)"},{"astId":39,"contract":"ApplicantPool.sol:ApplicantPool","label":"voteEndTime","offset":0,"slot":"5","type":"t_mapping(t_address,t_uint256)"},{"astId":42,"contract":"ApplicantPool.sol:ApplicantPool","label":"map","offset":0,"slot":"6","type":"t_contract(MemberMap)753"},{"astId":48,"contract":"ApplicantPool.sol:ApplicantPool","label":"memberPoolAddress","offset":0,"slot":"7","type":"t_address"}],"types":{"t_address":{"encoding":"inplace","label":"address","numberOfBytes":"20"},"t_array(t_address)dyn_storage":{"base":"t_address","encoding":"dynamic_array","label":"address[]","numberOfBytes":"32"},"t_bool":{"encoding":"inplace","label":"bool","numberOfBytes":"1"},"t_contract(MemberMap)753":{"encoding":"inplace","label":"contract MemberMap","numberOfBytes":"20"},"t_int256":{"encoding":"inplace","label":"int256","numberOfBytes":"32"},"t_mapping(t_address,t_array(t_address)dyn_storage)":{"encoding":"mapping","key":"t_address","label":"mapping(address => address[])","numberOfBytes":"32","value":"t_array(t_address)dyn_storage"},"t_mapping(t_address,t_bool)":{"encoding":"mapping","key":"t_address","label":"mapping(address => bool)","numberOfBytes":"32","value":"t_bool"},"t_mapping(t_address,t_int256)":{"encoding":"mapping","key":"t_address","label":"mapping(address => int256)","numberOfBytes":"32","value":"t_int256"},"t_mapping(t_address,t_string_storage)":{"encoding":"mapping","key":"t_address","label":"mapping(address => string)","numberOfBytes":"32","value":"t_string_storage"},"t_mapping(t_address,t_uint256)":{"encoding":"mapping","key":"t_address","label":"mapping(address => uint256)","numberOfBytes":"32","value":"t_uint256"},"t_string_storage":{"encoding":"bytes","label":"string","numberOfBytes":"32"},"t_uint256":{"encoding":"inplace","label":"uint256","numberOfBytes":"32"}}},"userdoc":{"kind":"user","methods":{},"version":1}}