{"abi":[{"inputs":[{"internalType":"address","name":"memberMap","type":"address"},{"internalType":"address","name":"_treasuryAddress","type":"address"},{"internalType":"address","name":"_memberPoolAddress","type":"address"}],"stateMutability":"nonpayable","type":"constructor"},{"anonymous":false,"inputs":[{"indexed":false,"internalType":"address","name":"sender","type":"address"}],"name":"ApplicantCreated","type":"event"},{"anonymous":false,"inputs":[],"name":"ApplicantVote","type":"event"},{"anonymous":false,"inputs":[{"indexed":false,"internalType":"address","name":"applicant","type":"address"}],"name":"ApplicantVoteEnd","type":"event"},{"anonymous":false,"inputs":[],"name":"CreateApplicant","type":"event"},{"inputs":[{"internalType":"uint256","name":"","type":"uint256"}],"name":"applicantList","outputs":[{"internalType":"address","name":"","type":"address"}],"stateMutability":"view","type":"function"},{"inputs":[{"internalType":"address","name":"applicant","type":"address"}],"name":"approveApplicant","outputs":[],"stateMutability":"nonpayable","type":"function"},{"inputs":[{"internalType":"string","name":"reason","type":"string"}],"name":"createApplicant","outputs":[],"stateMutability":"payable","type":"function"},{"inputs":[{"internalType":"address","name":"applicant","type":"address"}],"name":"getApplicantVoteCount","outputs":[{"internalType":"uint256","name":"","type":"uint256"}],"stateMutability":"view","type":"function"},{"inputs":[{"internalType":"address","name":"applicant","type":"address"}],"name":"getApplicantVoteEndDate","outputs":[{"internalType":"uint256","name":"","type":"uint256"}],"stateMutability":"view","type":"function"},{"inputs":[{"internalType":"address","name":"applicant","type":"address"}],"name":"getApplicantWords","outputs":[{"internalType":"string","name":"","type":"string"}],"stateMutability":"view","type":"function"},{"inputs":[],"name":"getApplicants","outputs":[{"internalType":"address[]","name":"","type":"address[]"}],"stateMutability":"view","type":"function"},{"inputs":[],"name":"memberPoolAddress","outputs":[{"internalType":"address","name":"","type":"address"}],"stateMutability":"view","type":"function"},{"inputs":[{"internalType":"address","name":"applicant","type":"address"}],"name":"rejectApplicant","outputs":[],"stateMutability":"nonpayable","type":"function"},{"inputs":[{"internalType":"address","name":"applicant","type":"address"}],"name":"voteForApplicant","outputs":[],"stateMutability":"nonpayable","type":"function"}],"devdoc":{"kind":"dev","methods":{},"version":1},"evm":{"assembly":"    /* \"ApplicantPool.sol\":117:4272  contract ApplicantPool {... */\n  mstore(0x40, 0xa0)\n    /* \"ApplicantPool.sol\":680:938  constructor(... */\n  callvalue\n  dup1\n  iszero\n  tag_1\n  jumpi\n  0x00\n  dup1\n  revert\ntag_1:\n  pop\n  mload(0x40)\n  sub(codesize, bytecodeSize)\n  dup1\n  bytecodeSize\n  dup4\n  codecopy\n  dup2\n  dup2\n  add\n  0x40\n  mstore\n  dup2\n  add\n  swap1\n  tag_2\n  swap2\n  swap1\n  tag_3\n  jump\t// in\ntag_2:\n    /* \"ApplicantPool.sol\":826:835  memberMap */\n  dup3\n    /* \"ApplicantPool.sol\":810:813  map */\n  0x06\n  0x00\n    /* \"ApplicantPool.sol\":810:836  map = MemberMap(memberMap) */\n  0x0100\n  exp\n  dup2\n  sload\n  dup2\n  0xffffffffffffffffffffffffffffffffffffffff\n  mul\n  not\n  and\n  swap1\n  dup4\n  0xffffffffffffffffffffffffffffffffffffffff\n  and\n  mul\n  or\n  swap1\n  sstore\n  pop\n    /* \"ApplicantPool.sol\":865:881  _treasuryAddress */\n  dup2\n    /* \"ApplicantPool.sol\":847:881  treasuryAddress = _treasuryAddress */\n  0xffffffffffffffffffffffffffffffffffffffff\n  and\n  0x80\n  dup2\n  0xffffffffffffffffffffffffffffffffffffffff\n  and\n  dup2\n  mstore\n  pop\n  pop\n    /* \"ApplicantPool.sol\":912:930  _memberPoolAddress */\n  dup1\n    /* \"ApplicantPool.sol\":892:909  memberPoolAddress */\n  0x07\n  0x00\n    /* \"ApplicantPool.sol\":892:930  memberPoolAddress = _memberPoolAddress */\n  0x0100\n  exp\n  dup2\n  sload\n  dup2\n  0xffffffffffffffffffffffffffffffffffffffff\n  mul\n  not\n  and\n  swap1\n  dup4\n  0xffffffffffffffffffffffffffffffffffffffff\n  and\n  mul\n  or\n  swap1\n  sstore\n  pop\n    /* \"ApplicantPool.sol\":680:938  constructor(... */\n  pop\n  pop\n  pop\n    /* \"ApplicantPool.sol\":117:4272  contract ApplicantPool {... */\n  jump(tag_6)\n    /* \"#utility.yul\":88:205   */\ntag_8:\n    /* \"#utility.yul\":197:198   */\n  0x00\n    /* \"#utility.yul\":194:195   */\n  dup1\n    /* \"#utility.yul\":187:199   */\n  revert\n    /* \"#utility.yul\":334:460   */\ntag_10:\n    /* \"#utility.yul\":371:378   */\n  0x00\n    /* \"#utility.yul\":411:453   */\n  0xffffffffffffffffffffffffffffffffffffffff\n    /* \"#utility.yul\":404:409   */\n  dup3\n    /* \"#utility.yul\":400:454   */\n  and\n    /* \"#utility.yul\":389:454   */\n  swap1\n  pop\n    /* \"#utility.yul\":334:460   */\n  swap2\n  swap1\n  pop\n  jump\t// out\n    /* \"#utility.yul\":466:562   */\ntag_11:\n    /* \"#utility.yul\":503:510   */\n  0x00\n    /* \"#utility.yul\":532:556   */\n  tag_20\n    /* \"#utility.yul\":550:555   */\n  dup3\n    /* \"#utility.yul\":532:556   */\n  tag_10\n  jump\t// in\ntag_20:\n    /* \"#utility.yul\":521:556   */\n  swap1\n  pop\n    /* \"#utility.yul\":466:562   */\n  swap2\n  swap1\n  pop\n  jump\t// out\n    /* \"#utility.yul\":568:690   */\ntag_12:\n    /* \"#utility.yul\":641:665   */\n  tag_22\n    /* \"#utility.yul\":659:664   */\n  dup2\n    /* \"#utility.yul\":641:665   */\n  tag_11\n  jump\t// in\ntag_22:\n    /* \"#utility.yul\":634:639   */\n  dup2\n    /* \"#utility.yul\":631:666   */\n  eq\n    /* \"#utility.yul\":621:684   */\n  tag_23\n  jumpi\n    /* \"#utility.yul\":680:681   */\n  0x00\n    /* \"#utility.yul\":677:678   */\n  dup1\n    /* \"#utility.yul\":670:682   */\n  revert\n    /* \"#utility.yul\":621:684   */\ntag_23:\n    /* \"#utility.yul\":568:690   */\n  pop\n  jump\t// out\n    /* \"#utility.yul\":696:839   */\ntag_13:\n    /* \"#utility.yul\":753:758   */\n  0x00\n    /* \"#utility.yul\":784:790   */\n  dup2\n    /* \"#utility.yul\":778:791   */\n  mload\n    /* \"#utility.yul\":769:791   */\n  swap1\n  pop\n    /* \"#utility.yul\":800:833   */\n  tag_25\n    /* \"#utility.yul\":827:832   */\n  dup2\n    /* \"#utility.yul\":800:833   */\n  tag_12\n  jump\t// in\ntag_25:\n    /* \"#utility.yul\":696:839   */\n  swap3\n  swap2\n  pop\n  pop\n  jump\t// out\n    /* \"#utility.yul\":845:1508   */\ntag_3:\n    /* \"#utility.yul\":933:939   */\n  0x00\n    /* \"#utility.yul\":941:947   */\n  dup1\n    /* \"#utility.yul\":949:955   */\n  0x00\n    /* \"#utility.yul\":998:1000   */\n  0x60\n    /* \"#utility.yul\":986:995   */\n  dup5\n    /* \"#utility.yul\":977:984   */\n  dup7\n    /* \"#utility.yul\":973:996   */\n  sub\n    /* \"#utility.yul\":969:1001   */\n  slt\n    /* \"#utility.yul\":966:1085   */\n  iszero\n  tag_27\n  jumpi\n    /* \"#utility.yul\":1004:1083   */\n  tag_28\n  tag_8\n  jump\t// in\ntag_28:\n    /* \"#utility.yul\":966:1085   */\ntag_27:\n    /* \"#utility.yul\":1124:1125   */\n  0x00\n    /* \"#utility.yul\":1149:1213   */\n  tag_29\n    /* \"#utility.yul\":1205:1212   */\n  dup7\n    /* \"#utility.yul\":1196:1202   */\n  dup3\n    /* \"#utility.yul\":1185:1194   */\n  dup8\n    /* \"#utility.yul\":1181:1203   */\n  add\n    /* \"#utility.yul\":1149:1213   */\n  tag_13\n  jump\t// in\ntag_29:\n    /* \"#utility.yul\":1139:1213   */\n  swap4\n  pop\n    /* \"#utility.yul\":1095:1223   */\n  pop\n    /* \"#utility.yul\":1262:1264   */\n  0x20\n    /* \"#utility.yul\":1288:1352   */\n  tag_30\n    /* \"#utility.yul\":1344:1351   */\n  dup7\n    /* \"#utility.yul\":1335:1341   */\n  dup3\n    /* \"#utility.yul\":1324:1333   */\n  dup8\n    /* \"#utility.yul\":1320:1342   */\n  add\n    /* \"#utility.yul\":1288:1352   */\n  tag_13\n  jump\t// in\ntag_30:\n    /* \"#utility.yul\":1278:1352   */\n  swap3\n  pop\n    /* \"#utility.yul\":1233:1362   */\n  pop\n    /* \"#utility.yul\":1401:1403   */\n  0x40\n    /* \"#utility.yul\":1427:1491   */\n  tag_31\n    /* \"#utility.yul\":1483:1490   */\n  dup7\n    /* \"#utility.yul\":1474:1480   */\n  dup3\n    /* \"#utility.yul\":1463:1472   */\n  dup8\n    /* \"#utility.yul\":1459:1481   */\n  add\n    /* \"#utility.yul\":1427:1491   */\n  tag_13\n  jump\t// in\ntag_31:\n    /* \"#utility.yul\":1417:1491   */\n  swap2\n  pop\n    /* \"#utility.yul\":1372:1501   */\n  pop\n    /* \"#utility.yul\":845:1508   */\n  swap3\n  pop\n  swap3\n  pop\n  swap3\n  jump\t// out\n    /* \"ApplicantPool.sol\":117:4272  contract ApplicantPool {... */\ntag_6:\n  mload(0x80)\n  codecopy(0x00, dataOffset(sub_0), dataSize(sub_0))\n  0x00\n  assignImmutable(\"0x2e9b7c94e032d8b3b8b30bd825717a5ac74958b53e7c37a892a4fd7dc56e4975\")\n  return(0x00, dataSize(sub_0))\nstop\n\nsub_0: assembly {\n        /* \"ApplicantPool.sol\":117:4272  contract ApplicantPool {... */\n      mstore(0x40, 0x80)\n      jumpi(tag_1, lt(calldatasize, 0x04))\n      shr(0xe0, calldataload(0x00))\n      dup1\n      0x8c468cd4\n      gt\n      tag_12\n      jumpi\n      dup1\n      0x8c468cd4\n      eq\n      tag_7\n      jumpi\n      dup1\n      0x930235b4\n      eq\n      tag_8\n      jumpi\n      dup1\n      0xb672bdcb\n      eq\n      tag_9\n      jumpi\n      dup1\n      0xd9a87535\n      eq\n      tag_10\n      jumpi\n      dup1\n      0xfd591902\n      eq\n      tag_11\n      jumpi\n      jump(tag_1)\n    tag_12:\n      dup1\n      0xad808f\n      eq\n      tag_2\n      jumpi\n      dup1\n      0x1292a282\n      eq\n      tag_3\n      jumpi\n      dup1\n      0x273f868e\n      eq\n      tag_4\n      jumpi\n      dup1\n      0x28f4694c\n      eq\n      tag_5\n      jumpi\n      dup1\n      0x455772d2\n      eq\n      tag_6\n      jumpi\n    tag_1:\n      0x00\n      dup1\n      revert\n        /* \"ApplicantPool.sol\":2858:3055  function getApplicantWords(address applicant)... */\n    tag_2:\n      callvalue\n      dup1\n      iszero\n      tag_13\n      jumpi\n      0x00\n      dup1\n      revert\n    tag_13:\n      pop\n      tag_14\n      0x04\n      dup1\n      calldatasize\n      sub\n      dup2\n      add\n      swap1\n      tag_15\n      swap2\n      swap1\n      tag_16\n      jump\t// in\n    tag_15:\n      tag_17\n      jump\t// in\n    tag_14:\n      mload(0x40)\n      tag_18\n      swap2\n      swap1\n      tag_19\n      jump\t// in\n    tag_18:\n      mload(0x40)\n      dup1\n      swap2\n      sub\n      swap1\n      return\n        /* \"ApplicantPool.sol\":3243:3538  function approveApplicant(address applicant)... */\n    tag_3:\n      callvalue\n      dup1\n      iszero\n      tag_20\n      jumpi\n      0x00\n      dup1\n      revert\n    tag_20:\n      pop\n      tag_21\n      0x04\n      dup1\n      calldatasize\n      sub\n      dup2\n      add\n      swap1\n      tag_22\n      swap2\n      swap1\n      tag_16\n      jump\t// in\n    tag_22:\n      tag_23\n      jump\t// in\n    tag_21:\n      stop\n        /* \"ApplicantPool.sol\":3546:3900  function rejectApplicant(address applicant)... */\n    tag_4:\n      callvalue\n      dup1\n      iszero\n      tag_24\n      jumpi\n      0x00\n      dup1\n      revert\n    tag_24:\n      pop\n      tag_25\n      0x04\n      dup1\n      calldatasize\n      sub\n      dup2\n      add\n      swap1\n      tag_26\n      swap2\n      swap1\n      tag_16\n      jump\t// in\n    tag_26:\n      tag_27\n      jump\t// in\n    tag_25:\n      stop\n        /* \"ApplicantPool.sol\":2157:2680  function voteForApplicant(address applicant) public memberOnly(msg.sender) {... */\n    tag_5:\n      callvalue\n      dup1\n      iszero\n      tag_28\n      jumpi\n      0x00\n      dup1\n      revert\n    tag_28:\n      pop\n      tag_29\n      0x04\n      dup1\n      calldatasize\n      sub\n      dup2\n      add\n      swap1\n      tag_30\n      swap2\n      swap1\n      tag_16\n      jump\t// in\n    tag_30:\n      tag_31\n      jump\t// in\n    tag_29:\n      stop\n        /* \"ApplicantPool.sol\":1266:1433  function getApplicants()... */\n    tag_6:\n      callvalue\n      dup1\n      iszero\n      tag_32\n      jumpi\n      0x00\n      dup1\n      revert\n    tag_32:\n      pop\n      tag_33\n      tag_34\n      jump\t// in\n    tag_33:\n      mload(0x40)\n      tag_35\n      swap2\n      swap1\n      tag_36\n      jump\t// in\n    tag_35:\n      mload(0x40)\n      dup1\n      swap2\n      sub\n      swap1\n      return\n        /* \"ApplicantPool.sol\":300:330  address[] public applicantList */\n    tag_7:\n      callvalue\n      dup1\n      iszero\n      tag_37\n      jumpi\n      0x00\n      dup1\n      revert\n    tag_37:\n      pop\n      tag_38\n      0x04\n      dup1\n      calldatasize\n      sub\n      dup2\n      add\n      swap1\n      tag_39\n      swap2\n      swap1\n      tag_40\n      jump\t// in\n    tag_39:\n      tag_41\n      jump\t// in\n    tag_38:\n      mload(0x40)\n      tag_42\n      swap2\n      swap1\n      tag_43\n      jump\t// in\n    tag_42:\n      mload(0x40)\n      dup1\n      swap2\n      sub\n      swap1\n      return\n        /* \"ApplicantPool.sol\":639:671  address public memberPoolAddress */\n    tag_8:\n      callvalue\n      dup1\n      iszero\n      tag_44\n      jumpi\n      0x00\n      dup1\n      revert\n    tag_44:\n      pop\n      tag_45\n      tag_46\n      jump\t// in\n    tag_45:\n      mload(0x40)\n      tag_47\n      swap2\n      swap1\n      tag_43\n      jump\t// in\n    tag_47:\n      mload(0x40)\n      dup1\n      swap2\n      sub\n      swap1\n      return\n        /* \"ApplicantPool.sol\":2688:2850  function getApplicantVoteEndDate(address applicant)... */\n    tag_9:\n      callvalue\n      dup1\n      iszero\n      tag_48\n      jumpi\n      0x00\n      dup1\n      revert\n    tag_48:\n      pop\n      tag_49\n      0x04\n      dup1\n      calldatasize\n      sub\n      dup2\n      add\n      swap1\n      tag_50\n      swap2\n      swap1\n      tag_16\n      jump\t// in\n    tag_50:\n      tag_51\n      jump\t// in\n    tag_49:\n      mload(0x40)\n      tag_52\n      swap2\n      swap1\n      tag_53\n      jump\t// in\n    tag_52:\n      mload(0x40)\n      dup1\n      swap2\n      sub\n      swap1\n      return\n        /* \"ApplicantPool.sol\":3063:3235  function getApplicantVoteCount(address applicant)... */\n    tag_10:\n      callvalue\n      dup1\n      iszero\n      tag_54\n      jumpi\n      0x00\n      dup1\n      revert\n    tag_54:\n      pop\n      tag_55\n      0x04\n      dup1\n      calldatasize\n      sub\n      dup2\n      add\n      swap1\n      tag_56\n      swap2\n      swap1\n      tag_16\n      jump\t// in\n    tag_56:\n      tag_57\n      jump\t// in\n    tag_55:\n      mload(0x40)\n      tag_58\n      swap2\n      swap1\n      tag_53\n      jump\t// in\n    tag_58:\n      mload(0x40)\n      dup1\n      swap2\n      sub\n      swap1\n      return\n        /* \"ApplicantPool.sol\":1441:2149  function createApplicant(string calldata reason) public payable {... */\n    tag_11:\n      tag_59\n      0x04\n      dup1\n      calldatasize\n      sub\n      dup2\n      add\n      swap1\n      tag_60\n      swap2\n      swap1\n      tag_61\n      jump\t// in\n    tag_60:\n      tag_62\n      jump\t// in\n    tag_59:\n      stop\n        /* \"ApplicantPool.sol\":2858:3055  function getApplicantWords(address applicant)... */\n    tag_17:\n        /* \"ApplicantPool.sol\":2984:2997  string memory */\n      0x60\n        /* \"ApplicantPool.sol\":2954:2964  msg.sender */\n      caller\n        /* \"ApplicantPool.sol\":1015:1018  map */\n      0x06\n      0x00\n      swap1\n      sload\n      swap1\n      0x0100\n      exp\n      swap1\n      div\n      0xffffffffffffffffffffffffffffffffffffffff\n      and\n        /* \"ApplicantPool.sol\":1015:1027  map.isMember */\n      0xffffffffffffffffffffffffffffffffffffffff\n      and\n      0x39ac7a08\n        /* \"ApplicantPool.sol\":1028:1034  sender */\n      dup3\n        /* \"ApplicantPool.sol\":1036:1053  memberPoolAddress */\n      0x07\n      0x00\n      swap1\n      sload\n      swap1\n      0x0100\n      exp\n      swap1\n      div\n      0xffffffffffffffffffffffffffffffffffffffff\n      and\n        /* \"ApplicantPool.sol\":1015:1054  map.isMember(sender, memberPoolAddress) */\n      mload(0x40)\n      dup4\n      0xffffffff\n      and\n      0xe0\n      shl\n      dup2\n      mstore\n      0x04\n      add\n      tag_64\n      swap3\n      swap2\n      swap1\n      tag_65\n      jump\t// in\n    tag_64:\n      0x20\n      mload(0x40)\n      dup1\n      dup4\n      sub\n      dup2\n      dup7\n      gas\n      staticcall\n      iszero\n      dup1\n      iszero\n      tag_67\n      jumpi\n      returndatasize\n      0x00\n      dup1\n      returndatacopy\n      revert(0x00, returndatasize)\n    tag_67:\n      pop\n      pop\n      pop\n      pop\n      mload(0x40)\n      returndatasize\n      not(0x1f)\n      0x1f\n      dup3\n      add\n      and\n      dup3\n      add\n      dup1\n      0x40\n      mstore\n      pop\n      dup2\n      add\n      swap1\n      tag_68\n      swap2\n      swap1\n      tag_69\n      jump\t// in\n    tag_68:\n        /* \"ApplicantPool.sol\":993:1106  require(... */\n      tag_70\n      jumpi\n      mload(0x40)\n      0x08c379a000000000000000000000000000000000000000000000000000000000\n      dup2\n      mstore\n      0x04\n      add\n      tag_71\n      swap1\n      tag_72\n      jump\t// in\n    tag_71:\n      mload(0x40)\n      dup1\n      swap2\n      sub\n      swap1\n      revert\n    tag_70:\n        /* \"ApplicantPool.sol\":3022:3036  applicantWords */\n      0x04\n        /* \"ApplicantPool.sol\":3022:3047  applicantWords[applicant] */\n      0x00\n        /* \"ApplicantPool.sol\":3037:3046  applicant */\n      dup5\n        /* \"ApplicantPool.sol\":3022:3047  applicantWords[applicant] */\n      0xffffffffffffffffffffffffffffffffffffffff\n      and\n      0xffffffffffffffffffffffffffffffffffffffff\n      and\n      dup2\n      mstore\n      0x20\n      add\n      swap1\n      dup2\n      mstore\n      0x20\n      add\n      0x00\n      keccak256\n        /* \"ApplicantPool.sol\":3015:3047  return applicantWords[applicant] */\n      dup1\n      sload\n      tag_74\n      swap1\n      tag_75\n      jump\t// in\n    tag_74:\n      dup1\n      0x1f\n      add\n      0x20\n      dup1\n      swap2\n      div\n      mul\n      0x20\n      add\n      mload(0x40)\n      swap1\n      dup2\n      add\n      0x40\n      mstore\n      dup1\n      swap3\n      swap2\n      swap1\n      dup2\n      dup2\n      mstore\n      0x20\n      add\n      dup3\n      dup1\n      sload\n      tag_76\n      swap1\n      tag_75\n      jump\t// in\n    tag_76:\n      dup1\n      iszero\n      tag_77\n      jumpi\n      dup1\n      0x1f\n      lt\n      tag_78\n      jumpi\n      0x0100\n      dup1\n      dup4\n      sload\n      div\n      mul\n      dup4\n      mstore\n      swap2\n      0x20\n      add\n      swap2\n      jump(tag_77)\n    tag_78:\n      dup3\n      add\n      swap2\n      swap1\n      0x00\n      mstore\n      keccak256(0x00, 0x20)\n      swap1\n    tag_79:\n      dup2\n      sload\n      dup2\n      mstore\n      swap1\n      0x01\n      add\n      swap1\n      0x20\n      add\n      dup1\n      dup4\n      gt\n      tag_79\n      jumpi\n      dup3\n      swap1\n      sub\n      0x1f\n      and\n      dup3\n      add\n      swap2\n    tag_77:\n      pop\n      pop\n      pop\n      pop\n      pop\n      swap2\n      pop\n        /* \"ApplicantPool.sol\":2858:3055  function getApplicantWords(address applicant)... */\n      pop\n      swap2\n      swap1\n      pop\n      jump\t// out\n        /* \"ApplicantPool.sol\":3243:3538  function approveApplicant(address applicant)... */\n    tag_23:\n        /* \"ApplicantPool.sol\":3328:3338  msg.sender */\n      caller\n        /* \"ApplicantPool.sol\":1203:1220  memberPoolAddress */\n      0x07\n      0x00\n      swap1\n      sload\n      swap1\n      0x0100\n      exp\n      swap1\n      div\n      0xffffffffffffffffffffffffffffffffffffffff\n      and\n        /* \"ApplicantPool.sol\":1193:1220  sender == memberPoolAddress */\n      0xffffffffffffffffffffffffffffffffffffffff\n      and\n        /* \"ApplicantPool.sol\":1193:1199  sender */\n      dup2\n        /* \"ApplicantPool.sol\":1193:1220  sender == memberPoolAddress */\n      0xffffffffffffffffffffffffffffffffffffffff\n      and\n      eq\n        /* \"ApplicantPool.sol\":1185:1238  require(sender == memberPoolAddress, \"Access Denied\") */\n      tag_81\n      jumpi\n      mload(0x40)\n      0x08c379a000000000000000000000000000000000000000000000000000000000\n      dup2\n      mstore\n      0x04\n      add\n      tag_82\n      swap1\n      tag_83\n      jump\t// in\n    tag_82:\n      mload(0x40)\n      dup1\n      swap2\n      sub\n      swap1\n      revert\n    tag_81:\n        /* \"ApplicantPool.sol\":3378:3395  memberPoolAddress */\n      0x07\n      0x00\n      swap1\n      sload\n      swap1\n      0x0100\n      exp\n      swap1\n      div\n      0xffffffffffffffffffffffffffffffffffffffff\n      and\n        /* \"ApplicantPool.sol\":3364:3395  msg.sender == memberPoolAddress */\n      0xffffffffffffffffffffffffffffffffffffffff\n      and\n        /* \"ApplicantPool.sol\":3364:3374  msg.sender */\n      caller\n        /* \"ApplicantPool.sol\":3364:3395  msg.sender == memberPoolAddress */\n      0xffffffffffffffffffffffffffffffffffffffff\n      and\n      eq\n        /* \"ApplicantPool.sol\":3356:3396  require(msg.sender == memberPoolAddress) */\n      tag_85\n      jumpi\n      0x00\n      dup1\n      revert\n    tag_85:\n        /* \"ApplicantPool.sol\":3407:3410  map */\n      0x06\n      0x00\n      swap1\n      sload\n      swap1\n      0x0100\n      exp\n      swap1\n      div\n      0xffffffffffffffffffffffffffffffffffffffff\n      and\n        /* \"ApplicantPool.sol\":3407:3420  map.addMember */\n      0xffffffffffffffffffffffffffffffffffffffff\n      and\n      0x9d58b15d\n        /* \"ApplicantPool.sol\":3421:3438  memberPoolAddress */\n      0x07\n      0x00\n      swap1\n      sload\n      swap1\n      0x0100\n      exp\n      swap1\n      div\n      0xffffffffffffffffffffffffffffffffffffffff\n      and\n        /* \"ApplicantPool.sol\":3440:3449  applicant */\n      dup5\n        /* \"ApplicantPool.sol\":3407:3450  map.addMember(memberPoolAddress, applicant) */\n      mload(0x40)\n      dup4\n      0xffffffff\n      and\n      0xe0\n      shl\n      dup2\n      mstore\n      0x04\n      add\n      tag_86\n      swap3\n      swap2\n      swap1\n      tag_65\n      jump\t// in\n    tag_86:\n      0x00\n      mload(0x40)\n      dup1\n      dup4\n      sub\n      dup2\n      0x00\n      dup8\n      dup1\n      extcodesize\n      iszero\n      dup1\n      iszero\n      tag_87\n      jumpi\n      0x00\n      dup1\n      revert\n    tag_87:\n      pop\n      gas\n      call\n      iszero\n      dup1\n      iszero\n      tag_89\n      jumpi\n      returndatasize\n      0x00\n      dup1\n      returndatacopy\n      revert(0x00, returndatasize)\n    tag_89:\n      pop\n      pop\n      pop\n      pop\n        /* \"ApplicantPool.sol\":3461:3486  _burnApplicant(applicant) */\n      tag_90\n        /* \"ApplicantPool.sol\":3476:3485  applicant */\n      dup3\n        /* \"ApplicantPool.sol\":3461:3475  _burnApplicant */\n      tag_91\n        /* \"ApplicantPool.sol\":3461:3486  _burnApplicant(applicant) */\n      jump\t// in\n    tag_90:\n        /* \"ApplicantPool.sol\":3504:3518  applicantVotes */\n      0x01\n        /* \"ApplicantPool.sol\":3504:3530  applicantVotes[msg.sender] */\n      0x00\n        /* \"ApplicantPool.sol\":3519:3529  msg.sender */\n      caller\n        /* \"ApplicantPool.sol\":3504:3530  applicantVotes[msg.sender] */\n      0xffffffffffffffffffffffffffffffffffffffff\n      and\n      0xffffffffffffffffffffffffffffffffffffffff\n      and\n      dup2\n      mstore\n      0x20\n      add\n      swap1\n      dup2\n      mstore\n      0x20\n      add\n      0x00\n      keccak256\n      0x00\n        /* \"ApplicantPool.sol\":3497:3530  delete applicantVotes[msg.sender] */\n      tag_92\n      swap2\n      swap1\n      tag_93\n      jump\t// in\n    tag_92:\n        /* \"ApplicantPool.sol\":3243:3538  function approveApplicant(address applicant)... */\n      pop\n      pop\n      jump\t// out\n        /* \"ApplicantPool.sol\":3546:3900  function rejectApplicant(address applicant)... */\n    tag_27:\n        /* \"ApplicantPool.sol\":3630:3640  msg.sender */\n      caller\n        /* \"ApplicantPool.sol\":1203:1220  memberPoolAddress */\n      0x07\n      0x00\n      swap1\n      sload\n      swap1\n      0x0100\n      exp\n      swap1\n      div\n      0xffffffffffffffffffffffffffffffffffffffff\n      and\n        /* \"ApplicantPool.sol\":1193:1220  sender == memberPoolAddress */\n      0xffffffffffffffffffffffffffffffffffffffff\n      and\n        /* \"ApplicantPool.sol\":1193:1199  sender */\n      dup2\n        /* \"ApplicantPool.sol\":1193:1220  sender == memberPoolAddress */\n      0xffffffffffffffffffffffffffffffffffffffff\n      and\n      eq\n        /* \"ApplicantPool.sol\":1185:1238  require(sender == memberPoolAddress, \"Access Denied\") */\n      tag_95\n      jumpi\n      mload(0x40)\n      0x08c379a000000000000000000000000000000000000000000000000000000000\n      dup2\n      mstore\n      0x04\n      add\n      tag_96\n      swap1\n      tag_83\n      jump\t// in\n    tag_96:\n      mload(0x40)\n      dup1\n      swap2\n      sub\n      swap1\n      revert\n    tag_95:\n        /* \"ApplicantPool.sol\":3666:3682  activeApplicants */\n      0x03\n        /* \"ApplicantPool.sol\":3666:3693  activeApplicants[applicant] */\n      0x00\n        /* \"ApplicantPool.sol\":3683:3692  applicant */\n      dup4\n        /* \"ApplicantPool.sol\":3666:3693  activeApplicants[applicant] */\n      0xffffffffffffffffffffffffffffffffffffffff\n      and\n      0xffffffffffffffffffffffffffffffffffffffff\n      and\n      dup2\n      mstore\n      0x20\n      add\n      swap1\n      dup2\n      mstore\n      0x20\n      add\n      0x00\n      keccak256\n      0x00\n      swap1\n      sload\n      swap1\n      0x0100\n      exp\n      swap1\n      div\n      0xff\n      and\n        /* \"ApplicantPool.sol\":3658:3723  require(activeApplicants[applicant], \"Invalid applicant address\") */\n      tag_98\n      jumpi\n      mload(0x40)\n      0x08c379a000000000000000000000000000000000000000000000000000000000\n      dup2\n      mstore\n      0x04\n      add\n      tag_99\n      swap1\n      tag_100\n      jump\t// in\n    tag_99:\n      mload(0x40)\n      dup1\n      swap2\n      sub\n      swap1\n      revert\n    tag_98:\n        /* \"ApplicantPool.sol\":3764:3769  false */\n      0x00\n        /* \"ApplicantPool.sol\":3734:3750  activeApplicants */\n      0x03\n        /* \"ApplicantPool.sol\":3734:3761  activeApplicants[applicant] */\n      0x00\n        /* \"ApplicantPool.sol\":3751:3760  applicant */\n      dup5\n        /* \"ApplicantPool.sol\":3734:3761  activeApplicants[applicant] */\n      0xffffffffffffffffffffffffffffffffffffffff\n      and\n      0xffffffffffffffffffffffffffffffffffffffff\n      and\n      dup2\n      mstore\n      0x20\n      add\n      swap1\n      dup2\n      mstore\n      0x20\n      add\n      0x00\n      keccak256\n      0x00\n        /* \"ApplicantPool.sol\":3734:3769  activeApplicants[applicant] = false */\n      0x0100\n      exp\n      dup2\n      sload\n      dup2\n      0xff\n      mul\n      not\n      and\n      swap1\n      dup4\n      iszero\n      iszero\n      mul\n      or\n      swap1\n      sstore\n      pop\n        /* \"ApplicantPool.sol\":3811:3812  1 */\n      0x01\n        /* \"ApplicantPool.sol\":3780:3795  applicantPoints */\n      0x02\n        /* \"ApplicantPool.sol\":3780:3807  applicantPoints[msg.sender] */\n      0x00\n        /* \"ApplicantPool.sol\":3796:3806  msg.sender */\n      caller\n        /* \"ApplicantPool.sol\":3780:3807  applicantPoints[msg.sender] */\n      0xffffffffffffffffffffffffffffffffffffffff\n      and\n      0xffffffffffffffffffffffffffffffffffffffff\n      and\n      dup2\n      mstore\n      0x20\n      add\n      swap1\n      dup2\n      mstore\n      0x20\n      add\n      0x00\n      keccak256\n      0x00\n        /* \"ApplicantPool.sol\":3780:3812  applicantPoints[msg.sender] -= 1 */\n      dup3\n      dup3\n      sload\n      tag_101\n      swap2\n      swap1\n      tag_102\n      jump\t// in\n    tag_101:\n      swap3\n      pop\n      pop\n      dup2\n      swap1\n      sstore\n      pop\n        /* \"ApplicantPool.sol\":3823:3848  _burnApplicant(applicant) */\n      tag_103\n        /* \"ApplicantPool.sol\":3838:3847  applicant */\n      dup3\n        /* \"ApplicantPool.sol\":3823:3837  _burnApplicant */\n      tag_91\n        /* \"ApplicantPool.sol\":3823:3848  _burnApplicant(applicant) */\n      jump\t// in\n    tag_103:\n        /* \"ApplicantPool.sol\":3866:3880  applicantVotes */\n      0x01\n        /* \"ApplicantPool.sol\":3866:3892  applicantVotes[msg.sender] */\n      0x00\n        /* \"ApplicantPool.sol\":3881:3891  msg.sender */\n      caller\n        /* \"ApplicantPool.sol\":3866:3892  applicantVotes[msg.sender] */\n      0xffffffffffffffffffffffffffffffffffffffff\n      and\n      0xffffffffffffffffffffffffffffffffffffffff\n      and\n      dup2\n      mstore\n      0x20\n      add\n      swap1\n      dup2\n      mstore\n      0x20\n      add\n      0x00\n      keccak256\n      0x00\n        /* \"ApplicantPool.sol\":3859:3892  delete applicantVotes[msg.sender] */\n      tag_104\n      swap2\n      swap1\n      tag_93\n      jump\t// in\n    tag_104:\n        /* \"ApplicantPool.sol\":3546:3900  function rejectApplicant(address applicant)... */\n      pop\n      pop\n      jump\t// out\n        /* \"ApplicantPool.sol\":2157:2680  function voteForApplicant(address applicant) public memberOnly(msg.sender) {... */\n    tag_31:\n        /* \"ApplicantPool.sol\":2220:2230  msg.sender */\n      caller\n        /* \"ApplicantPool.sol\":1015:1018  map */\n      0x06\n      0x00\n      swap1\n      sload\n      swap1\n      0x0100\n      exp\n      swap1\n      div\n      0xffffffffffffffffffffffffffffffffffffffff\n      and\n        /* \"ApplicantPool.sol\":1015:1027  map.isMember */\n      0xffffffffffffffffffffffffffffffffffffffff\n      and\n      0x39ac7a08\n        /* \"ApplicantPool.sol\":1028:1034  sender */\n      dup3\n        /* \"ApplicantPool.sol\":1036:1053  memberPoolAddress */\n      0x07\n      0x00\n      swap1\n      sload\n      swap1\n      0x0100\n      exp\n      swap1\n      div\n      0xffffffffffffffffffffffffffffffffffffffff\n      and\n        /* \"ApplicantPool.sol\":1015:1054  map.isMember(sender, memberPoolAddress) */\n      mload(0x40)\n      dup4\n      0xffffffff\n      and\n      0xe0\n      shl\n      dup2\n      mstore\n      0x04\n      add\n      tag_106\n      swap3\n      swap2\n      swap1\n      tag_65\n      jump\t// in\n    tag_106:\n      0x20\n      mload(0x40)\n      dup1\n      dup4\n      sub\n      dup2\n      dup7\n      gas\n      staticcall\n      iszero\n      dup1\n      iszero\n      tag_108\n      jumpi\n      returndatasize\n      0x00\n      dup1\n      returndatacopy\n      revert(0x00, returndatasize)\n    tag_108:\n      pop\n      pop\n      pop\n      pop\n      mload(0x40)\n      returndatasize\n      not(0x1f)\n      0x1f\n      dup3\n      add\n      and\n      dup3\n      add\n      dup1\n      0x40\n      mstore\n      pop\n      dup2\n      add\n      swap1\n      tag_109\n      swap2\n      swap1\n      tag_69\n      jump\t// in\n    tag_109:\n        /* \"ApplicantPool.sol\":993:1106  require(... */\n      tag_110\n      jumpi\n      mload(0x40)\n      0x08c379a000000000000000000000000000000000000000000000000000000000\n      dup2\n      mstore\n      0x04\n      add\n      tag_111\n      swap1\n      tag_72\n      jump\t// in\n    tag_111:\n      mload(0x40)\n      dup1\n      swap2\n      sub\n      swap1\n      revert\n    tag_110:\n        /* \"ApplicantPool.sol\":2251:2267  activeApplicants */\n      0x03\n        /* \"ApplicantPool.sol\":2251:2278  activeApplicants[applicant] */\n      0x00\n        /* \"ApplicantPool.sol\":2268:2277  applicant */\n      dup4\n        /* \"ApplicantPool.sol\":2251:2278  activeApplicants[applicant] */\n      0xffffffffffffffffffffffffffffffffffffffff\n      and\n      0xffffffffffffffffffffffffffffffffffffffff\n      and\n      dup2\n      mstore\n      0x20\n      add\n      swap1\n      dup2\n      mstore\n      0x20\n      add\n      0x00\n      keccak256\n      0x00\n      swap1\n      sload\n      swap1\n      0x0100\n      exp\n      swap1\n      div\n      0xff\n      and\n        /* \"ApplicantPool.sol\":2243:2298  require(activeApplicants[applicant], \"Not a applicant\") */\n      tag_113\n      jumpi\n      mload(0x40)\n      0x08c379a000000000000000000000000000000000000000000000000000000000\n      dup2\n      mstore\n      0x04\n      add\n      tag_114\n      swap1\n      tag_115\n      jump\t// in\n    tag_114:\n      mload(0x40)\n      dup1\n      swap2\n      sub\n      swap1\n      revert\n    tag_113:\n        /* \"ApplicantPool.sol\":2309:2321  bool didVote */\n      0x00\n        /* \"ApplicantPool.sol\":2345:2354  uint256 i */\n      dup1\n        /* \"ApplicantPool.sol\":2340:2526  for (uint256 i = 0; i < applicantVotes[applicant].length; i++) {... */\n    tag_116:\n        /* \"ApplicantPool.sol\":2364:2378  applicantVotes */\n      0x01\n        /* \"ApplicantPool.sol\":2364:2389  applicantVotes[applicant] */\n      0x00\n        /* \"ApplicantPool.sol\":2379:2388  applicant */\n      dup6\n        /* \"ApplicantPool.sol\":2364:2389  applicantVotes[applicant] */\n      0xffffffffffffffffffffffffffffffffffffffff\n      and\n      0xffffffffffffffffffffffffffffffffffffffff\n      and\n      dup2\n      mstore\n      0x20\n      add\n      swap1\n      dup2\n      mstore\n      0x20\n      add\n      0x00\n      keccak256\n        /* \"ApplicantPool.sol\":2364:2396  applicantVotes[applicant].length */\n      dup1\n      sload\n      swap1\n      pop\n        /* \"ApplicantPool.sol\":2360:2361  i */\n      dup2\n        /* \"ApplicantPool.sol\":2360:2396  i < applicantVotes[applicant].length */\n      lt\n        /* \"ApplicantPool.sol\":2340:2526  for (uint256 i = 0; i < applicantVotes[applicant].length; i++) {... */\n      iszero\n      tag_117\n      jumpi\n        /* \"ApplicantPool.sol\":2454:2464  msg.sender */\n      caller\n        /* \"ApplicantPool.sol\":2422:2464  applicantVotes[applicant][i] == msg.sender */\n      0xffffffffffffffffffffffffffffffffffffffff\n      and\n        /* \"ApplicantPool.sol\":2422:2436  applicantVotes */\n      0x01\n        /* \"ApplicantPool.sol\":2422:2447  applicantVotes[applicant] */\n      0x00\n        /* \"ApplicantPool.sol\":2437:2446  applicant */\n      dup7\n        /* \"ApplicantPool.sol\":2422:2447  applicantVotes[applicant] */\n      0xffffffffffffffffffffffffffffffffffffffff\n      and\n      0xffffffffffffffffffffffffffffffffffffffff\n      and\n      dup2\n      mstore\n      0x20\n      add\n      swap1\n      dup2\n      mstore\n      0x20\n      add\n      0x00\n      keccak256\n        /* \"ApplicantPool.sol\":2448:2449  i */\n      dup3\n        /* \"ApplicantPool.sol\":2422:2450  applicantVotes[applicant][i] */\n      dup2\n      sload\n      dup2\n      lt\n      tag_119\n      jumpi\n      tag_120\n      tag_121\n      jump\t// in\n    tag_120:\n    tag_119:\n      swap1\n      0x00\n      mstore\n      keccak256(0x00, 0x20)\n      add\n      0x00\n      swap1\n      sload\n      swap1\n      0x0100\n      exp\n      swap1\n      div\n      0xffffffffffffffffffffffffffffffffffffffff\n      and\n        /* \"ApplicantPool.sol\":2422:2464  applicantVotes[applicant][i] == msg.sender */\n      0xffffffffffffffffffffffffffffffffffffffff\n      and\n      sub\n        /* \"ApplicantPool.sol\":2418:2515  if (applicantVotes[applicant][i] == msg.sender) {... */\n      tag_123\n      jumpi\n        /* \"ApplicantPool.sol\":2495:2499  true */\n      0x01\n        /* \"ApplicantPool.sol\":2485:2499  didVote = true */\n      swap2\n      pop\n        /* \"ApplicantPool.sol\":2418:2515  if (applicantVotes[applicant][i] == msg.sender) {... */\n    tag_123:\n        /* \"ApplicantPool.sol\":2398:2401  i++ */\n      dup1\n      dup1\n      tag_124\n      swap1\n      tag_125\n      jump\t// in\n    tag_124:\n      swap2\n      pop\n      pop\n        /* \"ApplicantPool.sol\":2340:2526  for (uint256 i = 0; i < applicantVotes[applicant].length; i++) {... */\n      jump(tag_116)\n    tag_117:\n      pop\n        /* \"ApplicantPool.sol\":2545:2552  didVote */\n      dup1\n        /* \"ApplicantPool.sol\":2544:2552  !didVote */\n      iszero\n        /* \"ApplicantPool.sol\":2536:2577  require(!didVote, \"Sender already voted\") */\n      tag_126\n      jumpi\n      mload(0x40)\n      0x08c379a000000000000000000000000000000000000000000000000000000000\n      dup2\n      mstore\n      0x04\n      add\n      tag_127\n      swap1\n      tag_128\n      jump\t// in\n    tag_127:\n      mload(0x40)\n      dup1\n      swap2\n      sub\n      swap1\n      revert\n    tag_126:\n        /* \"ApplicantPool.sol\":2588:2602  applicantVotes */\n      0x01\n        /* \"ApplicantPool.sol\":2588:2613  applicantVotes[applicant] */\n      0x00\n        /* \"ApplicantPool.sol\":2603:2612  applicant */\n      dup5\n        /* \"ApplicantPool.sol\":2588:2613  applicantVotes[applicant] */\n      0xffffffffffffffffffffffffffffffffffffffff\n      and\n      0xffffffffffffffffffffffffffffffffffffffff\n      and\n      dup2\n      mstore\n      0x20\n      add\n      swap1\n      dup2\n      mstore\n      0x20\n      add\n      0x00\n      keccak256\n        /* \"ApplicantPool.sol\":2619:2629  msg.sender */\n      caller\n        /* \"ApplicantPool.sol\":2588:2630  applicantVotes[applicant].push(msg.sender) */\n      swap1\n      dup1\n      0x01\n      dup2\n      sload\n      add\n      dup1\n      dup3\n      sstore\n      dup1\n      swap2\n      pop\n      pop\n      0x01\n      swap1\n      sub\n      swap1\n      0x00\n      mstore\n      keccak256(0x00, 0x20)\n      add\n      0x00\n      swap1\n      swap2\n      swap1\n      swap2\n      swap1\n      swap2\n      0x0100\n      exp\n      dup2\n      sload\n      dup2\n      0xffffffffffffffffffffffffffffffffffffffff\n      mul\n      not\n      and\n      swap1\n      dup4\n      0xffffffffffffffffffffffffffffffffffffffff\n      and\n      mul\n      or\n      swap1\n      sstore\n      pop\n        /* \"ApplicantPool.sol\":2671:2672  1 */\n      0x01\n        /* \"ApplicantPool.sol\":2641:2656  applicantPoints */\n      0x02\n        /* \"ApplicantPool.sol\":2641:2667  applicantPoints[applicant] */\n      0x00\n        /* \"ApplicantPool.sol\":2657:2666  applicant */\n      dup6\n        /* \"ApplicantPool.sol\":2641:2667  applicantPoints[applicant] */\n      0xffffffffffffffffffffffffffffffffffffffff\n      and\n      0xffffffffffffffffffffffffffffffffffffffff\n      and\n      dup2\n      mstore\n      0x20\n      add\n      swap1\n      dup2\n      mstore\n      0x20\n      add\n      0x00\n      keccak256\n      0x00\n        /* \"ApplicantPool.sol\":2641:2672  applicantPoints[applicant] += 1 */\n      dup3\n      dup3\n      sload\n      tag_130\n      swap2\n      swap1\n      tag_131\n      jump\t// in\n    tag_130:\n      swap3\n      pop\n      pop\n      dup2\n      swap1\n      sstore\n      pop\n        /* \"ApplicantPool.sol\":2232:2680  {... */\n      pop\n        /* \"ApplicantPool.sol\":2157:2680  function voteForApplicant(address applicant) public memberOnly(msg.sender) {... */\n      pop\n      pop\n      jump\t// out\n        /* \"ApplicantPool.sol\":1266:1433  function getApplicants()... */\n    tag_34:\n        /* \"ApplicantPool.sol\":1371:1387  address[] memory */\n      0x60\n        /* \"ApplicantPool.sol\":1341:1351  msg.sender */\n      caller\n        /* \"ApplicantPool.sol\":1015:1018  map */\n      0x06\n      0x00\n      swap1\n      sload\n      swap1\n      0x0100\n      exp\n      swap1\n      div\n      0xffffffffffffffffffffffffffffffffffffffff\n      and\n        /* \"ApplicantPool.sol\":1015:1027  map.isMember */\n      0xffffffffffffffffffffffffffffffffffffffff\n      and\n      0x39ac7a08\n        /* \"ApplicantPool.sol\":1028:1034  sender */\n      dup3\n        /* \"ApplicantPool.sol\":1036:1053  memberPoolAddress */\n      0x07\n      0x00\n      swap1\n      sload\n      swap1\n      0x0100\n      exp\n      swap1\n      div\n      0xffffffffffffffffffffffffffffffffffffffff\n      and\n        /* \"ApplicantPool.sol\":1015:1054  map.isMember(sender, memberPoolAddress) */\n      mload(0x40)\n      dup4\n      0xffffffff\n      and\n      0xe0\n      shl\n      dup2\n      mstore\n      0x04\n      add\n      tag_133\n      swap3\n      swap2\n      swap1\n      tag_65\n      jump\t// in\n    tag_133:\n      0x20\n      mload(0x40)\n      dup1\n      dup4\n      sub\n      dup2\n      dup7\n      gas\n      staticcall\n      iszero\n      dup1\n      iszero\n      tag_135\n      jumpi\n      returndatasize\n      0x00\n      dup1\n      returndatacopy\n      revert(0x00, returndatasize)\n    tag_135:\n      pop\n      pop\n      pop\n      pop\n      mload(0x40)\n      returndatasize\n      not(0x1f)\n      0x1f\n      dup3\n      add\n      and\n      dup3\n      add\n      dup1\n      0x40\n      mstore\n      pop\n      dup2\n      add\n      swap1\n      tag_136\n      swap2\n      swap1\n      tag_69\n      jump\t// in\n    tag_136:\n        /* \"ApplicantPool.sol\":993:1106  require(... */\n      tag_137\n      jumpi\n      mload(0x40)\n      0x08c379a000000000000000000000000000000000000000000000000000000000\n      dup2\n      mstore\n      0x04\n      add\n      tag_138\n      swap1\n      tag_72\n      jump\t// in\n    tag_138:\n      mload(0x40)\n      dup1\n      swap2\n      sub\n      swap1\n      revert\n    tag_137:\n        /* \"ApplicantPool.sol\":1412:1425  applicantList */\n      0x00\n        /* \"ApplicantPool.sol\":1405:1425  return applicantList */\n      dup1\n      sload\n      dup1\n      0x20\n      mul\n      0x20\n      add\n      mload(0x40)\n      swap1\n      dup2\n      add\n      0x40\n      mstore\n      dup1\n      swap3\n      swap2\n      swap1\n      dup2\n      dup2\n      mstore\n      0x20\n      add\n      dup3\n      dup1\n      sload\n      dup1\n      iszero\n      tag_140\n      jumpi\n      0x20\n      mul\n      dup3\n      add\n      swap2\n      swap1\n      0x00\n      mstore\n      keccak256(0x00, 0x20)\n      swap1\n    tag_141:\n      dup2\n      0x00\n      swap1\n      sload\n      swap1\n      0x0100\n      exp\n      swap1\n      div\n      0xffffffffffffffffffffffffffffffffffffffff\n      and\n      0xffffffffffffffffffffffffffffffffffffffff\n      and\n      dup2\n      mstore\n      0x20\n      add\n      swap1\n      0x01\n      add\n      swap1\n      dup1\n      dup4\n      gt\n      tag_141\n      jumpi\n    tag_140:\n      pop\n      pop\n      pop\n      pop\n      pop\n      swap2\n      pop\n        /* \"ApplicantPool.sol\":1266:1433  function getApplicants()... */\n      pop\n      swap1\n      jump\t// out\n        /* \"ApplicantPool.sol\":300:330  address[] public applicantList */\n    tag_41:\n      0x00\n      dup2\n      dup2\n      sload\n      dup2\n      lt\n      tag_142\n      jumpi\n      0x00\n      dup1\n      revert\n    tag_142:\n      swap1\n      0x00\n      mstore\n      keccak256(0x00, 0x20)\n      add\n      0x00\n      swap2\n      pop\n      sload\n      swap1\n      0x0100\n      exp\n      swap1\n      div\n      0xffffffffffffffffffffffffffffffffffffffff\n      and\n      dup2\n      jump\t// out\n        /* \"ApplicantPool.sol\":639:671  address public memberPoolAddress */\n    tag_46:\n      0x07\n      0x00\n      swap1\n      sload\n      swap1\n      0x0100\n      exp\n      swap1\n      div\n      0xffffffffffffffffffffffffffffffffffffffff\n      and\n      dup2\n      jump\t// out\n        /* \"ApplicantPool.sol\":2688:2850  function getApplicantVoteEndDate(address applicant)... */\n    tag_51:\n        /* \"ApplicantPool.sol\":2788:2795  uint256 */\n      0x00\n        /* \"ApplicantPool.sol\":2820:2831  voteEndTime */\n      0x05\n        /* \"ApplicantPool.sol\":2820:2842  voteEndTime[applicant] */\n      0x00\n        /* \"ApplicantPool.sol\":2832:2841  applicant */\n      dup4\n        /* \"ApplicantPool.sol\":2820:2842  voteEndTime[applicant] */\n      0xffffffffffffffffffffffffffffffffffffffff\n      and\n      0xffffffffffffffffffffffffffffffffffffffff\n      and\n      dup2\n      mstore\n      0x20\n      add\n      swap1\n      dup2\n      mstore\n      0x20\n      add\n      0x00\n      keccak256\n      sload\n        /* \"ApplicantPool.sol\":2813:2842  return voteEndTime[applicant] */\n      swap1\n      pop\n        /* \"ApplicantPool.sol\":2688:2850  function getApplicantVoteEndDate(address applicant)... */\n      swap2\n      swap1\n      pop\n      jump\t// out\n        /* \"ApplicantPool.sol\":3063:3235  function getApplicantVoteCount(address applicant)... */\n    tag_57:\n        /* \"ApplicantPool.sol\":3163:3170  uint256 */\n      0x00\n        /* \"ApplicantPool.sol\":3195:3209  applicantVotes */\n      0x01\n        /* \"ApplicantPool.sol\":3195:3220  applicantVotes[applicant] */\n      0x00\n        /* \"ApplicantPool.sol\":3210:3219  applicant */\n      dup4\n        /* \"ApplicantPool.sol\":3195:3220  applicantVotes[applicant] */\n      0xffffffffffffffffffffffffffffffffffffffff\n      and\n      0xffffffffffffffffffffffffffffffffffffffff\n      and\n      dup2\n      mstore\n      0x20\n      add\n      swap1\n      dup2\n      mstore\n      0x20\n      add\n      0x00\n      keccak256\n        /* \"ApplicantPool.sol\":3195:3227  applicantVotes[applicant].length */\n      dup1\n      sload\n      swap1\n      pop\n        /* \"ApplicantPool.sol\":3188:3227  return applicantVotes[applicant].length */\n      swap1\n      pop\n        /* \"ApplicantPool.sol\":3063:3235  function getApplicantVoteCount(address applicant)... */\n      swap2\n      swap1\n      pop\n      jump\t// out\n        /* \"ApplicantPool.sol\":1441:2149  function createApplicant(string calldata reason) public payable {... */\n    tag_62:\n        /* \"ApplicantPool.sol\":1539:1542  map */\n      0x06\n      0x00\n      swap1\n      sload\n      swap1\n      0x0100\n      exp\n      swap1\n      div\n      0xffffffffffffffffffffffffffffffffffffffff\n      and\n        /* \"ApplicantPool.sol\":1539:1551  map.isMember */\n      0xffffffffffffffffffffffffffffffffffffffff\n      and\n      0x39ac7a08\n        /* \"ApplicantPool.sol\":1552:1562  msg.sender */\n      caller\n        /* \"ApplicantPool.sol\":1564:1581  memberPoolAddress */\n      0x07\n      0x00\n      swap1\n      sload\n      swap1\n      0x0100\n      exp\n      swap1\n      div\n      0xffffffffffffffffffffffffffffffffffffffff\n      and\n        /* \"ApplicantPool.sol\":1539:1582  map.isMember(msg.sender, memberPoolAddress) */\n      mload(0x40)\n      dup4\n      0xffffffff\n      and\n      0xe0\n      shl\n      dup2\n      mstore\n      0x04\n      add\n      tag_147\n      swap3\n      swap2\n      swap1\n      tag_65\n      jump\t// in\n    tag_147:\n      0x20\n      mload(0x40)\n      dup1\n      dup4\n      sub\n      dup2\n      dup7\n      gas\n      staticcall\n      iszero\n      dup1\n      iszero\n      tag_149\n      jumpi\n      returndatasize\n      0x00\n      dup1\n      returndatacopy\n      revert(0x00, returndatasize)\n    tag_149:\n      pop\n      pop\n      pop\n      pop\n      mload(0x40)\n      returndatasize\n      not(0x1f)\n      0x1f\n      dup3\n      add\n      and\n      dup3\n      add\n      dup1\n      0x40\n      mstore\n      pop\n      dup2\n      add\n      swap1\n      tag_150\n      swap2\n      swap1\n      tag_69\n      jump\t// in\n    tag_150:\n        /* \"ApplicantPool.sol\":1538:1582  !map.isMember(msg.sender, memberPoolAddress) */\n      iszero\n        /* \"ApplicantPool.sol\":1516:1631  require(... */\n      tag_151\n      jumpi\n      mload(0x40)\n      0x08c379a000000000000000000000000000000000000000000000000000000000\n      dup2\n      mstore\n      0x04\n      add\n      tag_152\n      swap1\n      tag_153\n      jump\t// in\n    tag_152:\n      mload(0x40)\n      dup1\n      swap2\n      sub\n      swap1\n      revert\n    tag_151:\n        /* \"ApplicantPool.sol\":1644:1654  Treasury t */\n      0x00\n        /* \"ApplicantPool.sol\":1666:1681  treasuryAddress */\n      immutable(\"0x2e9b7c94e032d8b3b8b30bd825717a5ac74958b53e7c37a892a4fd7dc56e4975\")\n        /* \"ApplicantPool.sol\":1644:1682  Treasury t = Treasury(treasuryAddress) */\n      swap1\n      pop\n        /* \"ApplicantPool.sol\":1693:1707  bool didPayFee */\n      0x00\n        /* \"ApplicantPool.sol\":1710:1711  t */\n      dup2\n        /* \"ApplicantPool.sol\":1710:1730  t.didPayApplicantFee */\n      0xffffffffffffffffffffffffffffffffffffffff\n      and\n      0x8387271c\n        /* \"ApplicantPool.sol\":1731:1741  msg.sender */\n      caller\n        /* \"ApplicantPool.sol\":1743:1760  memberPoolAddress */\n      0x07\n      0x00\n      swap1\n      sload\n      swap1\n      0x0100\n      exp\n      swap1\n      div\n      0xffffffffffffffffffffffffffffffffffffffff\n      and\n        /* \"ApplicantPool.sol\":1710:1761  t.didPayApplicantFee(msg.sender, memberPoolAddress) */\n      mload(0x40)\n      dup4\n      0xffffffff\n      and\n      0xe0\n      shl\n      dup2\n      mstore\n      0x04\n      add\n      tag_154\n      swap3\n      swap2\n      swap1\n      tag_65\n      jump\t// in\n    tag_154:\n      0x20\n      mload(0x40)\n      dup1\n      dup4\n      sub\n      dup2\n      dup7\n      gas\n      staticcall\n      iszero\n      dup1\n      iszero\n      tag_156\n      jumpi\n      returndatasize\n      0x00\n      dup1\n      returndatacopy\n      revert(0x00, returndatasize)\n    tag_156:\n      pop\n      pop\n      pop\n      pop\n      mload(0x40)\n      returndatasize\n      not(0x1f)\n      0x1f\n      dup3\n      add\n      and\n      dup3\n      add\n      dup1\n      0x40\n      mstore\n      pop\n      dup2\n      add\n      swap1\n      tag_157\n      swap2\n      swap1\n      tag_69\n      jump\t// in\n    tag_157:\n        /* \"ApplicantPool.sol\":1693:1761  bool didPayFee = t.didPayApplicantFee(msg.sender, memberPoolAddress) */\n      swap1\n      pop\n        /* \"ApplicantPool.sol\":1795:1799  true */\n      0x01\n        /* \"ApplicantPool.sol\":1782:1799  didPayFee == true */\n      iszero\n      iszero\n        /* \"ApplicantPool.sol\":1782:1791  didPayFee */\n      dup2\n        /* \"ApplicantPool.sol\":1782:1799  didPayFee == true */\n      iszero\n      iszero\n      eq\n        /* \"ApplicantPool.sol\":1774:1830  require(didPayFee == true, \"New Applicant Fee Required\") */\n      tag_158\n      jumpi\n      mload(0x40)\n      0x08c379a000000000000000000000000000000000000000000000000000000000\n      dup2\n      mstore\n      0x04\n      add\n      tag_159\n      swap1\n      tag_160\n      jump\t// in\n    tag_159:\n      mload(0x40)\n      dup1\n      swap2\n      sub\n      swap1\n      revert\n    tag_158:\n        /* \"ApplicantPool.sol\":1850:1866  activeApplicants */\n      0x03\n        /* \"ApplicantPool.sol\":1850:1878  activeApplicants[msg.sender] */\n      0x00\n        /* \"ApplicantPool.sol\":1867:1877  msg.sender */\n      caller\n        /* \"ApplicantPool.sol\":1850:1878  activeApplicants[msg.sender] */\n      0xffffffffffffffffffffffffffffffffffffffff\n      and\n      0xffffffffffffffffffffffffffffffffffffffff\n      and\n      dup2\n      mstore\n      0x20\n      add\n      swap1\n      dup2\n      mstore\n      0x20\n      add\n      0x00\n      keccak256\n      0x00\n      swap1\n      sload\n      swap1\n      0x0100\n      exp\n      swap1\n      div\n      0xff\n      and\n        /* \"ApplicantPool.sol\":1849:1878  !activeApplicants[msg.sender] */\n      iszero\n        /* \"ApplicantPool.sol\":1841:1907  require(!activeApplicants[msg.sender], \"Already active applicant\") */\n      tag_161\n      jumpi\n      mload(0x40)\n      0x08c379a000000000000000000000000000000000000000000000000000000000\n      dup2\n      mstore\n      0x04\n      add\n      tag_162\n      swap1\n      tag_163\n      jump\t// in\n    tag_162:\n      mload(0x40)\n      dup1\n      swap2\n      sub\n      swap1\n      revert\n    tag_161:\n        /* \"ApplicantPool.sol\":1956:1958  -3 */\n      0xfffffffffffffffffffffffffffffffffffffffffffffffffffffffffffffffd\n        /* \"ApplicantPool.sol\":1926:1941  applicantPoints */\n      0x02\n        /* \"ApplicantPool.sol\":1926:1953  applicantPoints[msg.sender] */\n      0x00\n        /* \"ApplicantPool.sol\":1942:1952  msg.sender */\n      caller\n        /* \"ApplicantPool.sol\":1926:1953  applicantPoints[msg.sender] */\n      0xffffffffffffffffffffffffffffffffffffffff\n      and\n      0xffffffffffffffffffffffffffffffffffffffff\n      and\n      dup2\n      mstore\n      0x20\n      add\n      swap1\n      dup2\n      mstore\n      0x20\n      add\n      0x00\n      keccak256\n      sload\n        /* \"ApplicantPool.sol\":1926:1958  applicantPoints[msg.sender] > -3 */\n      sgt\n        /* \"ApplicantPool.sol\":1918:1979  require(applicantPoints[msg.sender] > -3, \"account rejected\") */\n      tag_164\n      jumpi\n      mload(0x40)\n      0x08c379a000000000000000000000000000000000000000000000000000000000\n      dup2\n      mstore\n      0x04\n      add\n      tag_165\n      swap1\n      tag_166\n      jump\t// in\n    tag_165:\n      mload(0x40)\n      dup1\n      swap2\n      sub\n      swap1\n      revert\n    tag_164:\n        /* \"ApplicantPool.sol\":2021:2027  reason */\n      dup4\n      dup4\n        /* \"ApplicantPool.sol\":1992:2006  applicantWords */\n      0x04\n        /* \"ApplicantPool.sol\":1992:2018  applicantWords[msg.sender] */\n      0x00\n        /* \"ApplicantPool.sol\":2007:2017  msg.sender */\n      caller\n        /* \"ApplicantPool.sol\":1992:2018  applicantWords[msg.sender] */\n      0xffffffffffffffffffffffffffffffffffffffff\n      and\n      0xffffffffffffffffffffffffffffffffffffffff\n      and\n      dup2\n      mstore\n      0x20\n      add\n      swap1\n      dup2\n      mstore\n      0x20\n      add\n      0x00\n      keccak256\n        /* \"ApplicantPool.sol\":1992:2027  applicantWords[msg.sender] = reason */\n      swap2\n      dup3\n      tag_167\n      swap3\n      swap2\n      swap1\n      tag_168\n      jump\t// in\n    tag_167:\n      pop\n        /* \"ApplicantPool.sol\":2038:2051  applicantList */\n      0x00\n        /* \"ApplicantPool.sol\":2057:2067  msg.sender */\n      caller\n        /* \"ApplicantPool.sol\":2038:2068  applicantList.push(msg.sender) */\n      swap1\n      dup1\n      0x01\n      dup2\n      sload\n      add\n      dup1\n      dup3\n      sstore\n      dup1\n      swap2\n      pop\n      pop\n      0x01\n      swap1\n      sub\n      swap1\n      0x00\n      mstore\n      keccak256(0x00, 0x20)\n      add\n      0x00\n      swap1\n      swap2\n      swap1\n      swap2\n      swap1\n      swap2\n      0x0100\n      exp\n      dup2\n      sload\n      dup2\n      0xffffffffffffffffffffffffffffffffffffffff\n      mul\n      not\n      and\n      swap1\n      dup4\n      0xffffffffffffffffffffffffffffffffffffffff\n      and\n      mul\n      or\n      swap1\n      sstore\n      pop\n        /* \"ApplicantPool.sol\":2123:2132  259200000 */\n      0x0f731400\n        /* \"ApplicantPool.sol\":2105:2120  block.timestamp */\n      timestamp\n        /* \"ApplicantPool.sol\":2105:2132  block.timestamp + 259200000 */\n      tag_170\n      swap2\n      swap1\n      tag_171\n      jump\t// in\n    tag_170:\n        /* \"ApplicantPool.sol\":2079:2090  voteEndTime */\n      0x05\n        /* \"ApplicantPool.sol\":2079:2102  voteEndTime[msg.sender] */\n      0x00\n        /* \"ApplicantPool.sol\":2091:2101  msg.sender */\n      caller\n        /* \"ApplicantPool.sol\":2079:2102  voteEndTime[msg.sender] */\n      0xffffffffffffffffffffffffffffffffffffffff\n      and\n      0xffffffffffffffffffffffffffffffffffffffff\n      and\n      dup2\n      mstore\n      0x20\n      add\n      swap1\n      dup2\n      mstore\n      0x20\n      add\n      0x00\n      keccak256\n        /* \"ApplicantPool.sol\":2079:2132  voteEndTime[msg.sender] = block.timestamp + 259200000 */\n      dup2\n      swap1\n      sstore\n      pop\n        /* \"ApplicantPool.sol\":1505:2149  {... */\n      pop\n      pop\n        /* \"ApplicantPool.sol\":1441:2149  function createApplicant(string calldata reason) public payable {... */\n      pop\n      pop\n      jump\t// out\n        /* \"ApplicantPool.sol\":3908:4269  function _burnApplicant(address applicant) internal {... */\n    tag_91:\n        /* \"ApplicantPool.sol\":3971:3984  uint256 index */\n      0x00\n        /* \"ApplicantPool.sol\":3999:4159  for (index = 0; index < applicantList.length; index++) {... */\n    tag_173:\n        /* \"ApplicantPool.sol\":4023:4036  applicantList */\n      0x00\n        /* \"ApplicantPool.sol\":4023:4043  applicantList.length */\n      dup1\n      sload\n      swap1\n      pop\n        /* \"ApplicantPool.sol\":4015:4020  index */\n      dup2\n        /* \"ApplicantPool.sol\":4015:4043  index < applicantList.length */\n      lt\n        /* \"ApplicantPool.sol\":3999:4159  for (index = 0; index < applicantList.length; index++) {... */\n      iszero\n      tag_174\n      jumpi\n        /* \"ApplicantPool.sol\":4097:4106  applicant */\n      dup2\n        /* \"ApplicantPool.sol\":4073:4106  applicantList[index] == applicant */\n      0xffffffffffffffffffffffffffffffffffffffff\n      and\n        /* \"ApplicantPool.sol\":4073:4086  applicantList */\n      0x00\n        /* \"ApplicantPool.sol\":4087:4092  index */\n      dup3\n        /* \"ApplicantPool.sol\":4073:4093  applicantList[index] */\n      dup2\n      sload\n      dup2\n      lt\n      tag_176\n      jumpi\n      tag_177\n      tag_121\n      jump\t// in\n    tag_177:\n    tag_176:\n      swap1\n      0x00\n      mstore\n      keccak256(0x00, 0x20)\n      add\n      0x00\n      swap1\n      sload\n      swap1\n      0x0100\n      exp\n      swap1\n      div\n      0xffffffffffffffffffffffffffffffffffffffff\n      and\n        /* \"ApplicantPool.sol\":4073:4106  applicantList[index] == applicant */\n      0xffffffffffffffffffffffffffffffffffffffff\n      and\n      sub\n        /* \"ApplicantPool.sol\":4069:4148  if (applicantList[index] == applicant) {... */\n      iszero\n        /* \"ApplicantPool.sol\":4127:4132  break */\n      tag_174\n        /* \"ApplicantPool.sol\":4069:4148  if (applicantList[index] == applicant) {... */\n      jumpi\n        /* \"ApplicantPool.sol\":4045:4052  index++ */\n      dup1\n      dup1\n      tag_180\n      swap1\n      tag_125\n      jump\t// in\n    tag_180:\n      swap2\n      pop\n      pop\n        /* \"ApplicantPool.sol\":3999:4159  for (index = 0; index < applicantList.length; index++) {... */\n      jump(tag_173)\n    tag_174:\n        /* \"ApplicantPool.sol\":4192:4205  applicantList */\n      0x00\n        /* \"ApplicantPool.sol\":4229:4230  1 */\n      0x01\n        /* \"ApplicantPool.sol\":4206:4219  applicantList */\n      0x00\n        /* \"ApplicantPool.sol\":4206:4226  applicantList.length */\n      dup1\n      sload\n      swap1\n      pop\n        /* \"ApplicantPool.sol\":4206:4230  applicantList.length - 1 */\n      tag_181\n      swap2\n      swap1\n      tag_182\n      jump\t// in\n    tag_181:\n        /* \"ApplicantPool.sol\":4192:4231  applicantList[applicantList.length - 1] */\n      dup2\n      sload\n      dup2\n      lt\n      tag_183\n      jumpi\n      tag_184\n      tag_121\n      jump\t// in\n    tag_184:\n    tag_183:\n      swap1\n      0x00\n      mstore\n      keccak256(0x00, 0x20)\n      add\n      0x00\n      swap1\n      sload\n      swap1\n      0x0100\n      exp\n      swap1\n      div\n      0xffffffffffffffffffffffffffffffffffffffff\n      and\n        /* \"ApplicantPool.sol\":4169:4182  applicantList */\n      0x00\n        /* \"ApplicantPool.sol\":4183:4188  index */\n      dup3\n        /* \"ApplicantPool.sol\":4169:4189  applicantList[index] */\n      dup2\n      sload\n      dup2\n      lt\n      tag_186\n      jumpi\n      tag_187\n      tag_121\n      jump\t// in\n    tag_187:\n    tag_186:\n      swap1\n      0x00\n      mstore\n      keccak256(0x00, 0x20)\n      add\n      0x00\n        /* \"ApplicantPool.sol\":4169:4231  applicantList[index] = applicantList[applicantList.length - 1] */\n      0x0100\n      exp\n      dup2\n      sload\n      dup2\n      0xffffffffffffffffffffffffffffffffffffffff\n      mul\n      not\n      and\n      swap1\n      dup4\n      0xffffffffffffffffffffffffffffffffffffffff\n      and\n      mul\n      or\n      swap1\n      sstore\n      pop\n        /* \"ApplicantPool.sol\":4242:4255  applicantList */\n      0x00\n        /* \"ApplicantPool.sol\":4242:4261  applicantList.pop() */\n      dup1\n      sload\n      dup1\n      tag_189\n      jumpi\n      tag_190\n      tag_191\n      jump\t// in\n    tag_190:\n    tag_189:\n      0x01\n      swap1\n      sub\n      dup2\n      dup2\n      swap1\n      0x00\n      mstore\n      keccak256(0x00, 0x20)\n      add\n      exp(0x0100, 0x00)\n      dup2\n      sload\n      swap1\n      0xffffffffffffffffffffffffffffffffffffffff\n      mul\n      not\n      and\n      swap1\n      sstore\n      swap1\n      sstore\n        /* \"ApplicantPool.sol\":3960:4269  {... */\n      pop\n        /* \"ApplicantPool.sol\":3908:4269  function _burnApplicant(address applicant) internal {... */\n      pop\n      jump\t// out\n    tag_93:\n      pop\n      dup1\n      sload\n      0x00\n      dup3\n      sstore\n      swap1\n      0x00\n      mstore\n      keccak256(0x00, 0x20)\n      swap1\n      dup2\n      add\n      swap1\n      tag_194\n      swap2\n      swap1\n      tag_195\n      jump\t// in\n    tag_194:\n      pop\n      jump\t// out\n    tag_195:\n    tag_196:\n      dup1\n      dup3\n      gt\n      iszero\n      tag_197\n      jumpi\n      0x00\n      dup2\n      0x00\n      swap1\n      sstore\n      pop\n      0x01\n      add\n      jump(tag_196)\n    tag_197:\n      pop\n      swap1\n      jump\t// out\n        /* \"#utility.yul\":88:205   */\n    tag_199:\n        /* \"#utility.yul\":197:198   */\n      0x00\n        /* \"#utility.yul\":194:195   */\n      dup1\n        /* \"#utility.yul\":187:199   */\n      revert\n        /* \"#utility.yul\":211:328   */\n    tag_200:\n        /* \"#utility.yul\":320:321   */\n      0x00\n        /* \"#utility.yul\":317:318   */\n      dup1\n        /* \"#utility.yul\":310:322   */\n      revert\n        /* \"#utility.yul\":334:460   */\n    tag_201:\n        /* \"#utility.yul\":371:378   */\n      0x00\n        /* \"#utility.yul\":411:453   */\n      0xffffffffffffffffffffffffffffffffffffffff\n        /* \"#utility.yul\":404:409   */\n      dup3\n        /* \"#utility.yul\":400:454   */\n      and\n        /* \"#utility.yul\":389:454   */\n      swap1\n      pop\n        /* \"#utility.yul\":334:460   */\n      swap2\n      swap1\n      pop\n      jump\t// out\n        /* \"#utility.yul\":466:562   */\n    tag_202:\n        /* \"#utility.yul\":503:510   */\n      0x00\n        /* \"#utility.yul\":532:556   */\n      tag_273\n        /* \"#utility.yul\":550:555   */\n      dup3\n        /* \"#utility.yul\":532:556   */\n      tag_201\n      jump\t// in\n    tag_273:\n        /* \"#utility.yul\":521:556   */\n      swap1\n      pop\n        /* \"#utility.yul\":466:562   */\n      swap2\n      swap1\n      pop\n      jump\t// out\n        /* \"#utility.yul\":568:690   */\n    tag_203:\n        /* \"#utility.yul\":641:665   */\n      tag_275\n        /* \"#utility.yul\":659:664   */\n      dup2\n        /* \"#utility.yul\":641:665   */\n      tag_202\n      jump\t// in\n    tag_275:\n        /* \"#utility.yul\":634:639   */\n      dup2\n        /* \"#utility.yul\":631:666   */\n      eq\n        /* \"#utility.yul\":621:684   */\n      tag_276\n      jumpi\n        /* \"#utility.yul\":680:681   */\n      0x00\n        /* \"#utility.yul\":677:678   */\n      dup1\n        /* \"#utility.yul\":670:682   */\n      revert\n        /* \"#utility.yul\":621:684   */\n    tag_276:\n        /* \"#utility.yul\":568:690   */\n      pop\n      jump\t// out\n        /* \"#utility.yul\":696:835   */\n    tag_204:\n        /* \"#utility.yul\":742:747   */\n      0x00\n        /* \"#utility.yul\":780:786   */\n      dup2\n        /* \"#utility.yul\":767:787   */\n      calldataload\n        /* \"#utility.yul\":758:787   */\n      swap1\n      pop\n        /* \"#utility.yul\":796:829   */\n      tag_278\n        /* \"#utility.yul\":823:828   */\n      dup2\n        /* \"#utility.yul\":796:829   */\n      tag_203\n      jump\t// in\n    tag_278:\n        /* \"#utility.yul\":696:835   */\n      swap3\n      swap2\n      pop\n      pop\n      jump\t// out\n        /* \"#utility.yul\":841:1170   */\n    tag_16:\n        /* \"#utility.yul\":900:906   */\n      0x00\n        /* \"#utility.yul\":949:951   */\n      0x20\n        /* \"#utility.yul\":937:946   */\n      dup3\n        /* \"#utility.yul\":928:935   */\n      dup5\n        /* \"#utility.yul\":924:947   */\n      sub\n        /* \"#utility.yul\":920:952   */\n      slt\n        /* \"#utility.yul\":917:1036   */\n      iszero\n      tag_280\n      jumpi\n        /* \"#utility.yul\":955:1034   */\n      tag_281\n      tag_199\n      jump\t// in\n    tag_281:\n        /* \"#utility.yul\":917:1036   */\n    tag_280:\n        /* \"#utility.yul\":1075:1076   */\n      0x00\n        /* \"#utility.yul\":1100:1153   */\n      tag_282\n        /* \"#utility.yul\":1145:1152   */\n      dup5\n        /* \"#utility.yul\":1136:1142   */\n      dup3\n        /* \"#utility.yul\":1125:1134   */\n      dup6\n        /* \"#utility.yul\":1121:1143   */\n      add\n        /* \"#utility.yul\":1100:1153   */\n      tag_204\n      jump\t// in\n    tag_282:\n        /* \"#utility.yul\":1090:1153   */\n      swap2\n      pop\n        /* \"#utility.yul\":1046:1163   */\n      pop\n        /* \"#utility.yul\":841:1170   */\n      swap3\n      swap2\n      pop\n      pop\n      jump\t// out\n        /* \"#utility.yul\":1176:1275   */\n    tag_205:\n        /* \"#utility.yul\":1228:1234   */\n      0x00\n        /* \"#utility.yul\":1262:1267   */\n      dup2\n        /* \"#utility.yul\":1256:1268   */\n      mload\n        /* \"#utility.yul\":1246:1268   */\n      swap1\n      pop\n        /* \"#utility.yul\":1176:1275   */\n      swap2\n      swap1\n      pop\n      jump\t// out\n        /* \"#utility.yul\":1281:1450   */\n    tag_206:\n        /* \"#utility.yul\":1365:1376   */\n      0x00\n        /* \"#utility.yul\":1399:1405   */\n      dup3\n        /* \"#utility.yul\":1394:1397   */\n      dup3\n        /* \"#utility.yul\":1387:1406   */\n      mstore\n        /* \"#utility.yul\":1439:1443   */\n      0x20\n        /* \"#utility.yul\":1434:1437   */\n      dup3\n        /* \"#utility.yul\":1430:1444   */\n      add\n        /* \"#utility.yul\":1415:1444   */\n      swap1\n      pop\n        /* \"#utility.yul\":1281:1450   */\n      swap3\n      swap2\n      pop\n      pop\n      jump\t// out\n        /* \"#utility.yul\":1456:1702   */\n    tag_207:\n        /* \"#utility.yul\":1537:1538   */\n      0x00\n        /* \"#utility.yul\":1547:1660   */\n    tag_286:\n        /* \"#utility.yul\":1561:1567   */\n      dup4\n        /* \"#utility.yul\":1558:1559   */\n      dup2\n        /* \"#utility.yul\":1555:1568   */\n      lt\n        /* \"#utility.yul\":1547:1660   */\n      iszero\n      tag_288\n      jumpi\n        /* \"#utility.yul\":1646:1647   */\n      dup1\n        /* \"#utility.yul\":1641:1644   */\n      dup3\n        /* \"#utility.yul\":1637:1648   */\n      add\n        /* \"#utility.yul\":1631:1649   */\n      mload\n        /* \"#utility.yul\":1627:1628   */\n      dup2\n        /* \"#utility.yul\":1622:1625   */\n      dup5\n        /* \"#utility.yul\":1618:1629   */\n      add\n        /* \"#utility.yul\":1611:1650   */\n      mstore\n        /* \"#utility.yul\":1583:1585   */\n      0x20\n        /* \"#utility.yul\":1580:1581   */\n      dup2\n        /* \"#utility.yul\":1576:1586   */\n      add\n        /* \"#utility.yul\":1571:1586   */\n      swap1\n      pop\n        /* \"#utility.yul\":1547:1660   */\n      jump(tag_286)\n    tag_288:\n        /* \"#utility.yul\":1694:1695   */\n      0x00\n        /* \"#utility.yul\":1685:1691   */\n      dup5\n        /* \"#utility.yul\":1680:1683   */\n      dup5\n        /* \"#utility.yul\":1676:1692   */\n      add\n        /* \"#utility.yul\":1669:1696   */\n      mstore\n        /* \"#utility.yul\":1518:1702   */\n      pop\n        /* \"#utility.yul\":1456:1702   */\n      pop\n      pop\n      pop\n      jump\t// out\n        /* \"#utility.yul\":1708:1810   */\n    tag_208:\n        /* \"#utility.yul\":1749:1755   */\n      0x00\n        /* \"#utility.yul\":1800:1802   */\n      0x1f\n        /* \"#utility.yul\":1796:1803   */\n      not\n        /* \"#utility.yul\":1791:1793   */\n      0x1f\n        /* \"#utility.yul\":1784:1789   */\n      dup4\n        /* \"#utility.yul\":1780:1794   */\n      add\n        /* \"#utility.yul\":1776:1804   */\n      and\n        /* \"#utility.yul\":1766:1804   */\n      swap1\n      pop\n        /* \"#utility.yul\":1708:1810   */\n      swap2\n      swap1\n      pop\n      jump\t// out\n        /* \"#utility.yul\":1816:2193   */\n    tag_209:\n        /* \"#utility.yul\":1904:1907   */\n      0x00\n        /* \"#utility.yul\":1932:1971   */\n      tag_291\n        /* \"#utility.yul\":1965:1970   */\n      dup3\n        /* \"#utility.yul\":1932:1971   */\n      tag_205\n      jump\t// in\n    tag_291:\n        /* \"#utility.yul\":1987:2058   */\n      tag_292\n        /* \"#utility.yul\":2051:2057   */\n      dup2\n        /* \"#utility.yul\":2046:2049   */\n      dup6\n        /* \"#utility.yul\":1987:2058   */\n      tag_206\n      jump\t// in\n    tag_292:\n        /* \"#utility.yul\":1980:2058   */\n      swap4\n      pop\n        /* \"#utility.yul\":2067:2132   */\n      tag_293\n        /* \"#utility.yul\":2125:2131   */\n      dup2\n        /* \"#utility.yul\":2120:2123   */\n      dup6\n        /* \"#utility.yul\":2113:2117   */\n      0x20\n        /* \"#utility.yul\":2106:2111   */\n      dup7\n        /* \"#utility.yul\":2102:2118   */\n      add\n        /* \"#utility.yul\":2067:2132   */\n      tag_207\n      jump\t// in\n    tag_293:\n        /* \"#utility.yul\":2157:2186   */\n      tag_294\n        /* \"#utility.yul\":2179:2185   */\n      dup2\n        /* \"#utility.yul\":2157:2186   */\n      tag_208\n      jump\t// in\n    tag_294:\n        /* \"#utility.yul\":2152:2155   */\n      dup5\n        /* \"#utility.yul\":2148:2187   */\n      add\n        /* \"#utility.yul\":2141:2187   */\n      swap2\n      pop\n        /* \"#utility.yul\":1908:2193   */\n      pop\n        /* \"#utility.yul\":1816:2193   */\n      swap3\n      swap2\n      pop\n      pop\n      jump\t// out\n        /* \"#utility.yul\":2199:2512   */\n    tag_19:\n        /* \"#utility.yul\":2312:2316   */\n      0x00\n        /* \"#utility.yul\":2350:2352   */\n      0x20\n        /* \"#utility.yul\":2339:2348   */\n      dup3\n        /* \"#utility.yul\":2335:2353   */\n      add\n        /* \"#utility.yul\":2327:2353   */\n      swap1\n      pop\n        /* \"#utility.yul\":2399:2408   */\n      dup2\n        /* \"#utility.yul\":2393:2397   */\n      dup2\n        /* \"#utility.yul\":2389:2409   */\n      sub\n        /* \"#utility.yul\":2385:2386   */\n      0x00\n        /* \"#utility.yul\":2374:2383   */\n      dup4\n        /* \"#utility.yul\":2370:2387   */\n      add\n        /* \"#utility.yul\":2363:2410   */\n      mstore\n        /* \"#utility.yul\":2427:2505   */\n      tag_296\n        /* \"#utility.yul\":2500:2504   */\n      dup2\n        /* \"#utility.yul\":2491:2497   */\n      dup5\n        /* \"#utility.yul\":2427:2505   */\n      tag_209\n      jump\t// in\n    tag_296:\n        /* \"#utility.yul\":2419:2505   */\n      swap1\n      pop\n        /* \"#utility.yul\":2199:2512   */\n      swap3\n      swap2\n      pop\n      pop\n      jump\t// out\n        /* \"#utility.yul\":2518:2632   */\n    tag_210:\n        /* \"#utility.yul\":2585:2591   */\n      0x00\n        /* \"#utility.yul\":2619:2624   */\n      dup2\n        /* \"#utility.yul\":2613:2625   */\n      mload\n        /* \"#utility.yul\":2603:2625   */\n      swap1\n      pop\n        /* \"#utility.yul\":2518:2632   */\n      swap2\n      swap1\n      pop\n      jump\t// out\n        /* \"#utility.yul\":2638:2822   */\n    tag_211:\n        /* \"#utility.yul\":2737:2748   */\n      0x00\n        /* \"#utility.yul\":2771:2777   */\n      dup3\n        /* \"#utility.yul\":2766:2769   */\n      dup3\n        /* \"#utility.yul\":2759:2778   */\n      mstore\n        /* \"#utility.yul\":2811:2815   */\n      0x20\n        /* \"#utility.yul\":2806:2809   */\n      dup3\n        /* \"#utility.yul\":2802:2816   */\n      add\n        /* \"#utility.yul\":2787:2816   */\n      swap1\n      pop\n        /* \"#utility.yul\":2638:2822   */\n      swap3\n      swap2\n      pop\n      pop\n      jump\t// out\n        /* \"#utility.yul\":2828:2960   */\n    tag_212:\n        /* \"#utility.yul\":2895:2899   */\n      0x00\n        /* \"#utility.yul\":2918:2921   */\n      dup2\n        /* \"#utility.yul\":2910:2921   */\n      swap1\n      pop\n        /* \"#utility.yul\":2948:2952   */\n      0x20\n        /* \"#utility.yul\":2943:2946   */\n      dup3\n        /* \"#utility.yul\":2939:2953   */\n      add\n        /* \"#utility.yul\":2931:2953   */\n      swap1\n      pop\n        /* \"#utility.yul\":2828:2960   */\n      swap2\n      swap1\n      pop\n      jump\t// out\n        /* \"#utility.yul\":2966:3074   */\n    tag_213:\n        /* \"#utility.yul\":3043:3067   */\n      tag_301\n        /* \"#utility.yul\":3061:3066   */\n      dup2\n        /* \"#utility.yul\":3043:3067   */\n      tag_202\n      jump\t// in\n    tag_301:\n        /* \"#utility.yul\":3038:3041   */\n      dup3\n        /* \"#utility.yul\":3031:3068   */\n      mstore\n        /* \"#utility.yul\":2966:3074   */\n      pop\n      pop\n      jump\t// out\n        /* \"#utility.yul\":3080:3259   */\n    tag_214:\n        /* \"#utility.yul\":3149:3159   */\n      0x00\n        /* \"#utility.yul\":3170:3216   */\n      tag_303\n        /* \"#utility.yul\":3212:3215   */\n      dup4\n        /* \"#utility.yul\":3204:3210   */\n      dup4\n        /* \"#utility.yul\":3170:3216   */\n      tag_213\n      jump\t// in\n    tag_303:\n        /* \"#utility.yul\":3248:3252   */\n      0x20\n        /* \"#utility.yul\":3243:3246   */\n      dup4\n        /* \"#utility.yul\":3239:3253   */\n      add\n        /* \"#utility.yul\":3225:3253   */\n      swap1\n      pop\n        /* \"#utility.yul\":3080:3259   */\n      swap3\n      swap2\n      pop\n      pop\n      jump\t// out\n        /* \"#utility.yul\":3265:3378   */\n    tag_215:\n        /* \"#utility.yul\":3335:3339   */\n      0x00\n        /* \"#utility.yul\":3367:3371   */\n      0x20\n        /* \"#utility.yul\":3362:3365   */\n      dup3\n        /* \"#utility.yul\":3358:3372   */\n      add\n        /* \"#utility.yul\":3350:3372   */\n      swap1\n      pop\n        /* \"#utility.yul\":3265:3378   */\n      swap2\n      swap1\n      pop\n      jump\t// out\n        /* \"#utility.yul\":3414:4146   */\n    tag_216:\n        /* \"#utility.yul\":3533:3536   */\n      0x00\n        /* \"#utility.yul\":3562:3616   */\n      tag_306\n        /* \"#utility.yul\":3610:3615   */\n      dup3\n        /* \"#utility.yul\":3562:3616   */\n      tag_210\n      jump\t// in\n    tag_306:\n        /* \"#utility.yul\":3632:3718   */\n      tag_307\n        /* \"#utility.yul\":3711:3717   */\n      dup2\n        /* \"#utility.yul\":3706:3709   */\n      dup6\n        /* \"#utility.yul\":3632:3718   */\n      tag_211\n      jump\t// in\n    tag_307:\n        /* \"#utility.yul\":3625:3718   */\n      swap4\n      pop\n        /* \"#utility.yul\":3742:3798   */\n      tag_308\n        /* \"#utility.yul\":3792:3797   */\n      dup4\n        /* \"#utility.yul\":3742:3798   */\n      tag_212\n      jump\t// in\n    tag_308:\n        /* \"#utility.yul\":3821:3828   */\n      dup1\n        /* \"#utility.yul\":3852:3853   */\n      0x00\n        /* \"#utility.yul\":3837:4121   */\n    tag_309:\n        /* \"#utility.yul\":3862:3868   */\n      dup4\n        /* \"#utility.yul\":3859:3860   */\n      dup2\n        /* \"#utility.yul\":3856:3869   */\n      lt\n        /* \"#utility.yul\":3837:4121   */\n      iszero\n      tag_311\n      jumpi\n        /* \"#utility.yul\":3938:3944   */\n      dup2\n        /* \"#utility.yul\":3932:3945   */\n      mload\n        /* \"#utility.yul\":3965:4028   */\n      tag_312\n        /* \"#utility.yul\":4024:4027   */\n      dup9\n        /* \"#utility.yul\":4009:4022   */\n      dup3\n        /* \"#utility.yul\":3965:4028   */\n      tag_214\n      jump\t// in\n    tag_312:\n        /* \"#utility.yul\":3958:4028   */\n      swap8\n      pop\n        /* \"#utility.yul\":4051:4111   */\n      tag_313\n        /* \"#utility.yul\":4104:4110   */\n      dup4\n        /* \"#utility.yul\":4051:4111   */\n      tag_215\n      jump\t// in\n    tag_313:\n        /* \"#utility.yul\":4041:4111   */\n      swap3\n      pop\n        /* \"#utility.yul\":3897:4121   */\n      pop\n        /* \"#utility.yul\":3884:3885   */\n      0x01\n        /* \"#utility.yul\":3881:3882   */\n      dup2\n        /* \"#utility.yul\":3877:3886   */\n      add\n        /* \"#utility.yul\":3872:3886   */\n      swap1\n      pop\n        /* \"#utility.yul\":3837:4121   */\n      jump(tag_309)\n    tag_311:\n        /* \"#utility.yul\":3841:3855   */\n      pop\n        /* \"#utility.yul\":4137:4140   */\n      dup6\n        /* \"#utility.yul\":4130:4140   */\n      swap4\n      pop\n        /* \"#utility.yul\":3538:4146   */\n      pop\n      pop\n      pop\n        /* \"#utility.yul\":3414:4146   */\n      swap3\n      swap2\n      pop\n      pop\n      jump\t// out\n        /* \"#utility.yul\":4152:4525   */\n    tag_36:\n        /* \"#utility.yul\":4295:4299   */\n      0x00\n        /* \"#utility.yul\":4333:4335   */\n      0x20\n        /* \"#utility.yul\":4322:4331   */\n      dup3\n        /* \"#utility.yul\":4318:4336   */\n      add\n        /* \"#utility.yul\":4310:4336   */\n      swap1\n      pop\n        /* \"#utility.yul\":4382:4391   */\n      dup2\n        /* \"#utility.yul\":4376:4380   */\n      dup2\n        /* \"#utility.yul\":4372:4392   */\n      sub\n        /* \"#utility.yul\":4368:4369   */\n      0x00\n        /* \"#utility.yul\":4357:4366   */\n      dup4\n        /* \"#utility.yul\":4353:4370   */\n      add\n        /* \"#utility.yul\":4346:4393   */\n      mstore\n        /* \"#utility.yul\":4410:4518   */\n      tag_315\n        /* \"#utility.yul\":4513:4517   */\n      dup2\n        /* \"#utility.yul\":4504:4510   */\n      dup5\n        /* \"#utility.yul\":4410:4518   */\n      tag_216\n      jump\t// in\n    tag_315:\n        /* \"#utility.yul\":4402:4518   */\n      swap1\n      pop\n        /* \"#utility.yul\":4152:4525   */\n      swap3\n      swap2\n      pop\n      pop\n      jump\t// out\n        /* \"#utility.yul\":4531:4608   */\n    tag_217:\n        /* \"#utility.yul\":4568:4575   */\n      0x00\n        /* \"#utility.yul\":4597:4602   */\n      dup2\n        /* \"#utility.yul\":4586:4602   */\n      swap1\n      pop\n        /* \"#utility.yul\":4531:4608   */\n      swap2\n      swap1\n      pop\n      jump\t// out\n        /* \"#utility.yul\":4614:4736   */\n    tag_218:\n        /* \"#utility.yul\":4687:4711   */\n      tag_318\n        /* \"#utility.yul\":4705:4710   */\n      dup2\n        /* \"#utility.yul\":4687:4711   */\n      tag_217\n      jump\t// in\n    tag_318:\n        /* \"#utility.yul\":4680:4685   */\n      dup2\n        /* \"#utility.yul\":4677:4712   */\n      eq\n        /* \"#utility.yul\":4667:4730   */\n      tag_319\n      jumpi\n        /* \"#utility.yul\":4726:4727   */\n      0x00\n        /* \"#utility.yul\":4723:4724   */\n      dup1\n        /* \"#utility.yul\":4716:4728   */\n      revert\n        /* \"#utility.yul\":4667:4730   */\n    tag_319:\n        /* \"#utility.yul\":4614:4736   */\n      pop\n      jump\t// out\n        /* \"#utility.yul\":4742:4881   */\n    tag_219:\n        /* \"#utility.yul\":4788:4793   */\n      0x00\n        /* \"#utility.yul\":4826:4832   */\n      dup2\n        /* \"#utility.yul\":4813:4833   */\n      calldataload\n        /* \"#utility.yul\":4804:4833   */\n      swap1\n      pop\n        /* \"#utility.yul\":4842:4875   */\n      tag_321\n        /* \"#utility.yul\":4869:4874   */\n      dup2\n        /* \"#utility.yul\":4842:4875   */\n      tag_218\n      jump\t// in\n    tag_321:\n        /* \"#utility.yul\":4742:4881   */\n      swap3\n      swap2\n      pop\n      pop\n      jump\t// out\n        /* \"#utility.yul\":4887:5216   */\n    tag_40:\n        /* \"#utility.yul\":4946:4952   */\n      0x00\n        /* \"#utility.yul\":4995:4997   */\n      0x20\n        /* \"#utility.yul\":4983:4992   */\n      dup3\n        /* \"#utility.yul\":4974:4981   */\n      dup5\n        /* \"#utility.yul\":4970:4993   */\n      sub\n        /* \"#utility.yul\":4966:4998   */\n      slt\n        /* \"#utility.yul\":4963:5082   */\n      iszero\n      tag_323\n      jumpi\n        /* \"#utility.yul\":5001:5080   */\n      tag_324\n      tag_199\n      jump\t// in\n    tag_324:\n        /* \"#utility.yul\":4963:5082   */\n    tag_323:\n        /* \"#utility.yul\":5121:5122   */\n      0x00\n        /* \"#utility.yul\":5146:5199   */\n      tag_325\n        /* \"#utility.yul\":5191:5198   */\n      dup5\n        /* \"#utility.yul\":5182:5188   */\n      dup3\n        /* \"#utility.yul\":5171:5180   */\n      dup6\n        /* \"#utility.yul\":5167:5189   */\n      add\n        /* \"#utility.yul\":5146:5199   */\n      tag_219\n      jump\t// in\n    tag_325:\n        /* \"#utility.yul\":5136:5199   */\n      swap2\n      pop\n        /* \"#utility.yul\":5092:5209   */\n      pop\n        /* \"#utility.yul\":4887:5216   */\n      swap3\n      swap2\n      pop\n      pop\n      jump\t// out\n        /* \"#utility.yul\":5222:5340   */\n    tag_220:\n        /* \"#utility.yul\":5309:5333   */\n      tag_327\n        /* \"#utility.yul\":5327:5332   */\n      dup2\n        /* \"#utility.yul\":5309:5333   */\n      tag_202\n      jump\t// in\n    tag_327:\n        /* \"#utility.yul\":5304:5307   */\n      dup3\n        /* \"#utility.yul\":5297:5334   */\n      mstore\n        /* \"#utility.yul\":5222:5340   */\n      pop\n      pop\n      jump\t// out\n        /* \"#utility.yul\":5346:5568   */\n    tag_43:\n        /* \"#utility.yul\":5439:5443   */\n      0x00\n        /* \"#utility.yul\":5477:5479   */\n      0x20\n        /* \"#utility.yul\":5466:5475   */\n      dup3\n        /* \"#utility.yul\":5462:5480   */\n      add\n        /* \"#utility.yul\":5454:5480   */\n      swap1\n      pop\n        /* \"#utility.yul\":5490:5561   */\n      tag_329\n        /* \"#utility.yul\":5558:5559   */\n      0x00\n        /* \"#utility.yul\":5547:5556   */\n      dup4\n        /* \"#utility.yul\":5543:5560   */\n      add\n        /* \"#utility.yul\":5534:5540   */\n      dup5\n        /* \"#utility.yul\":5490:5561   */\n      tag_220\n      jump\t// in\n    tag_329:\n        /* \"#utility.yul\":5346:5568   */\n      swap3\n      swap2\n      pop\n      pop\n      jump\t// out\n        /* \"#utility.yul\":5574:5692   */\n    tag_221:\n        /* \"#utility.yul\":5661:5685   */\n      tag_331\n        /* \"#utility.yul\":5679:5684   */\n      dup2\n        /* \"#utility.yul\":5661:5685   */\n      tag_217\n      jump\t// in\n    tag_331:\n        /* \"#utility.yul\":5656:5659   */\n      dup3\n        /* \"#utility.yul\":5649:5686   */\n      mstore\n        /* \"#utility.yul\":5574:5692   */\n      pop\n      pop\n      jump\t// out\n        /* \"#utility.yul\":5698:5920   */\n    tag_53:\n        /* \"#utility.yul\":5791:5795   */\n      0x00\n        /* \"#utility.yul\":5829:5831   */\n      0x20\n        /* \"#utility.yul\":5818:5827   */\n      dup3\n        /* \"#utility.yul\":5814:5832   */\n      add\n        /* \"#utility.yul\":5806:5832   */\n      swap1\n      pop\n        /* \"#utility.yul\":5842:5913   */\n      tag_333\n        /* \"#utility.yul\":5910:5911   */\n      0x00\n        /* \"#utility.yul\":5899:5908   */\n      dup4\n        /* \"#utility.yul\":5895:5912   */\n      add\n        /* \"#utility.yul\":5886:5892   */\n      dup5\n        /* \"#utility.yul\":5842:5913   */\n      tag_221\n      jump\t// in\n    tag_333:\n        /* \"#utility.yul\":5698:5920   */\n      swap3\n      swap2\n      pop\n      pop\n      jump\t// out\n        /* \"#utility.yul\":5926:6043   */\n    tag_222:\n        /* \"#utility.yul\":6035:6036   */\n      0x00\n        /* \"#utility.yul\":6032:6033   */\n      dup1\n        /* \"#utility.yul\":6025:6037   */\n      revert\n        /* \"#utility.yul\":6049:6166   */\n    tag_223:\n        /* \"#utility.yul\":6158:6159   */\n      0x00\n        /* \"#utility.yul\":6155:6156   */\n      dup1\n        /* \"#utility.yul\":6148:6160   */\n      revert\n        /* \"#utility.yul\":6172:6289   */\n    tag_224:\n        /* \"#utility.yul\":6281:6282   */\n      0x00\n        /* \"#utility.yul\":6278:6279   */\n      dup1\n        /* \"#utility.yul\":6271:6283   */\n      revert\n        /* \"#utility.yul\":6309:6862   */\n    tag_225:\n        /* \"#utility.yul\":6367:6375   */\n      0x00\n        /* \"#utility.yul\":6377:6383   */\n      dup1\n        /* \"#utility.yul\":6427:6430   */\n      dup4\n        /* \"#utility.yul\":6420:6424   */\n      0x1f\n        /* \"#utility.yul\":6412:6418   */\n      dup5\n        /* \"#utility.yul\":6408:6425   */\n      add\n        /* \"#utility.yul\":6404:6431   */\n      slt\n        /* \"#utility.yul\":6394:6516   */\n      tag_338\n      jumpi\n        /* \"#utility.yul\":6435:6514   */\n      tag_339\n      tag_222\n      jump\t// in\n    tag_339:\n        /* \"#utility.yul\":6394:6516   */\n    tag_338:\n        /* \"#utility.yul\":6548:6554   */\n      dup3\n        /* \"#utility.yul\":6535:6555   */\n      calldataload\n        /* \"#utility.yul\":6525:6555   */\n      swap1\n      pop\n        /* \"#utility.yul\":6578:6596   */\n      0xffffffffffffffff\n        /* \"#utility.yul\":6570:6576   */\n      dup2\n        /* \"#utility.yul\":6567:6597   */\n      gt\n        /* \"#utility.yul\":6564:6681   */\n      iszero\n      tag_340\n      jumpi\n        /* \"#utility.yul\":6600:6679   */\n      tag_341\n      tag_223\n      jump\t// in\n    tag_341:\n        /* \"#utility.yul\":6564:6681   */\n    tag_340:\n        /* \"#utility.yul\":6714:6718   */\n      0x20\n        /* \"#utility.yul\":6706:6712   */\n      dup4\n        /* \"#utility.yul\":6702:6719   */\n      add\n        /* \"#utility.yul\":6690:6719   */\n      swap2\n      pop\n        /* \"#utility.yul\":6768:6771   */\n      dup4\n        /* \"#utility.yul\":6760:6764   */\n      0x01\n        /* \"#utility.yul\":6752:6758   */\n      dup3\n        /* \"#utility.yul\":6748:6765   */\n      mul\n        /* \"#utility.yul\":6738:6746   */\n      dup4\n        /* \"#utility.yul\":6734:6766   */\n      add\n        /* \"#utility.yul\":6731:6772   */\n      gt\n        /* \"#utility.yul\":6728:6856   */\n      iszero\n      tag_342\n      jumpi\n        /* \"#utility.yul\":6775:6854   */\n      tag_343\n      tag_224\n      jump\t// in\n    tag_343:\n        /* \"#utility.yul\":6728:6856   */\n    tag_342:\n        /* \"#utility.yul\":6309:6862   */\n      swap3\n      pop\n      swap3\n      swap1\n      pop\n      jump\t// out\n        /* \"#utility.yul\":6868:7397   */\n    tag_61:\n        /* \"#utility.yul\":6939:6945   */\n      0x00\n        /* \"#utility.yul\":6947:6953   */\n      dup1\n        /* \"#utility.yul\":6996:6998   */\n      0x20\n        /* \"#utility.yul\":6984:6993   */\n      dup4\n        /* \"#utility.yul\":6975:6982   */\n      dup6\n        /* \"#utility.yul\":6971:6994   */\n      sub\n        /* \"#utility.yul\":6967:6999   */\n      slt\n        /* \"#utility.yul\":6964:7083   */\n      iszero\n      tag_345\n      jumpi\n        /* \"#utility.yul\":7002:7081   */\n      tag_346\n      tag_199\n      jump\t// in\n    tag_346:\n        /* \"#utility.yul\":6964:7083   */\n    tag_345:\n        /* \"#utility.yul\":7150:7151   */\n      0x00\n        /* \"#utility.yul\":7139:7148   */\n      dup4\n        /* \"#utility.yul\":7135:7152   */\n      add\n        /* \"#utility.yul\":7122:7153   */\n      calldataload\n        /* \"#utility.yul\":7180:7198   */\n      0xffffffffffffffff\n        /* \"#utility.yul\":7172:7178   */\n      dup2\n        /* \"#utility.yul\":7169:7199   */\n      gt\n        /* \"#utility.yul\":7166:7283   */\n      iszero\n      tag_347\n      jumpi\n        /* \"#utility.yul\":7202:7281   */\n      tag_348\n      tag_200\n      jump\t// in\n    tag_348:\n        /* \"#utility.yul\":7166:7283   */\n    tag_347:\n        /* \"#utility.yul\":7315:7380   */\n      tag_349\n        /* \"#utility.yul\":7372:7379   */\n      dup6\n        /* \"#utility.yul\":7363:7369   */\n      dup3\n        /* \"#utility.yul\":7352:7361   */\n      dup7\n        /* \"#utility.yul\":7348:7370   */\n      add\n        /* \"#utility.yul\":7315:7380   */\n      tag_225\n      jump\t// in\n    tag_349:\n        /* \"#utility.yul\":7297:7380   */\n      swap3\n      pop\n      swap3\n      pop\n        /* \"#utility.yul\":7093:7390   */\n      pop\n        /* \"#utility.yul\":6868:7397   */\n      swap3\n      pop\n      swap3\n      swap1\n      pop\n      jump\t// out\n        /* \"#utility.yul\":7403:7735   */\n    tag_65:\n        /* \"#utility.yul\":7524:7528   */\n      0x00\n        /* \"#utility.yul\":7562:7564   */\n      0x40\n        /* \"#utility.yul\":7551:7560   */\n      dup3\n        /* \"#utility.yul\":7547:7565   */\n      add\n        /* \"#utility.yul\":7539:7565   */\n      swap1\n      pop\n        /* \"#utility.yul\":7575:7646   */\n      tag_351\n        /* \"#utility.yul\":7643:7644   */\n      0x00\n        /* \"#utility.yul\":7632:7641   */\n      dup4\n        /* \"#utility.yul\":7628:7645   */\n      add\n        /* \"#utility.yul\":7619:7625   */\n      dup6\n        /* \"#utility.yul\":7575:7646   */\n      tag_220\n      jump\t// in\n    tag_351:\n        /* \"#utility.yul\":7656:7728   */\n      tag_352\n        /* \"#utility.yul\":7724:7726   */\n      0x20\n        /* \"#utility.yul\":7713:7722   */\n      dup4\n        /* \"#utility.yul\":7709:7727   */\n      add\n        /* \"#utility.yul\":7700:7706   */\n      dup5\n        /* \"#utility.yul\":7656:7728   */\n      tag_220\n      jump\t// in\n    tag_352:\n        /* \"#utility.yul\":7403:7735   */\n      swap4\n      swap3\n      pop\n      pop\n      pop\n      jump\t// out\n        /* \"#utility.yul\":7741:7831   */\n    tag_226:\n        /* \"#utility.yul\":7775:7782   */\n      0x00\n        /* \"#utility.yul\":7818:7823   */\n      dup2\n        /* \"#utility.yul\":7811:7824   */\n      iszero\n        /* \"#utility.yul\":7804:7825   */\n      iszero\n        /* \"#utility.yul\":7793:7825   */\n      swap1\n      pop\n        /* \"#utility.yul\":7741:7831   */\n      swap2\n      swap1\n      pop\n      jump\t// out\n        /* \"#utility.yul\":7837:7953   */\n    tag_227:\n        /* \"#utility.yul\":7907:7928   */\n      tag_355\n        /* \"#utility.yul\":7922:7927   */\n      dup2\n        /* \"#utility.yul\":7907:7928   */\n      tag_226\n      jump\t// in\n    tag_355:\n        /* \"#utility.yul\":7900:7905   */\n      dup2\n        /* \"#utility.yul\":7897:7929   */\n      eq\n        /* \"#utility.yul\":7887:7947   */\n      tag_356\n      jumpi\n        /* \"#utility.yul\":7943:7944   */\n      0x00\n        /* \"#utility.yul\":7940:7941   */\n      dup1\n        /* \"#utility.yul\":7933:7945   */\n      revert\n        /* \"#utility.yul\":7887:7947   */\n    tag_356:\n        /* \"#utility.yul\":7837:7953   */\n      pop\n      jump\t// out\n        /* \"#utility.yul\":7959:8096   */\n    tag_228:\n        /* \"#utility.yul\":8013:8018   */\n      0x00\n        /* \"#utility.yul\":8044:8050   */\n      dup2\n        /* \"#utility.yul\":8038:8051   */\n      mload\n        /* \"#utility.yul\":8029:8051   */\n      swap1\n      pop\n        /* \"#utility.yul\":8060:8090   */\n      tag_358\n        /* \"#utility.yul\":8084:8089   */\n      dup2\n        /* \"#utility.yul\":8060:8090   */\n      tag_227\n      jump\t// in\n    tag_358:\n        /* \"#utility.yul\":7959:8096   */\n      swap3\n      swap2\n      pop\n      pop\n      jump\t// out\n        /* \"#utility.yul\":8102:8447   */\n    tag_69:\n        /* \"#utility.yul\":8169:8175   */\n      0x00\n        /* \"#utility.yul\":8218:8220   */\n      0x20\n        /* \"#utility.yul\":8206:8215   */\n      dup3\n        /* \"#utility.yul\":8197:8204   */\n      dup5\n        /* \"#utility.yul\":8193:8216   */\n      sub\n        /* \"#utility.yul\":8189:8221   */\n      slt\n        /* \"#utility.yul\":8186:8305   */\n      iszero\n      tag_360\n      jumpi\n        /* \"#utility.yul\":8224:8303   */\n      tag_361\n      tag_199\n      jump\t// in\n    tag_361:\n        /* \"#utility.yul\":8186:8305   */\n    tag_360:\n        /* \"#utility.yul\":8344:8345   */\n      0x00\n        /* \"#utility.yul\":8369:8430   */\n      tag_362\n        /* \"#utility.yul\":8422:8429   */\n      dup5\n        /* \"#utility.yul\":8413:8419   */\n      dup3\n        /* \"#utility.yul\":8402:8411   */\n      dup6\n        /* \"#utility.yul\":8398:8420   */\n      add\n        /* \"#utility.yul\":8369:8430   */\n      tag_228\n      jump\t// in\n    tag_362:\n        /* \"#utility.yul\":8359:8430   */\n      swap2\n      pop\n        /* \"#utility.yul\":8315:8440   */\n      pop\n        /* \"#utility.yul\":8102:8447   */\n      swap3\n      swap2\n      pop\n      pop\n      jump\t// out\n        /* \"#utility.yul\":8453:8627   */\n    tag_229:\n        /* \"#utility.yul\":8593:8619   */\n      0x526571756972656420746f2062652061206d656d656265720000000000000000\n        /* \"#utility.yul\":8589:8590   */\n      0x00\n        /* \"#utility.yul\":8581:8587   */\n      dup3\n        /* \"#utility.yul\":8577:8591   */\n      add\n        /* \"#utility.yul\":8570:8620   */\n      mstore\n        /* \"#utility.yul\":8453:8627   */\n      pop\n      jump\t// out\n        /* \"#utility.yul\":8633:8999   */\n    tag_230:\n        /* \"#utility.yul\":8775:8778   */\n      0x00\n        /* \"#utility.yul\":8796:8863   */\n      tag_365\n        /* \"#utility.yul\":8860:8862   */\n      0x18\n        /* \"#utility.yul\":8855:8858   */\n      dup4\n        /* \"#utility.yul\":8796:8863   */\n      tag_206\n      jump\t// in\n    tag_365:\n        /* \"#utility.yul\":8789:8863   */\n      swap2\n      pop\n        /* \"#utility.yul\":8872:8965   */\n      tag_366\n        /* \"#utility.yul\":8961:8964   */\n      dup3\n        /* \"#utility.yul\":8872:8965   */\n      tag_229\n      jump\t// in\n    tag_366:\n        /* \"#utility.yul\":8990:8992   */\n      0x20\n        /* \"#utility.yul\":8985:8988   */\n      dup3\n        /* \"#utility.yul\":8981:8993   */\n      add\n        /* \"#utility.yul\":8974:8993   */\n      swap1\n      pop\n        /* \"#utility.yul\":8633:8999   */\n      swap2\n      swap1\n      pop\n      jump\t// out\n        /* \"#utility.yul\":9005:9424   */\n    tag_72:\n        /* \"#utility.yul\":9171:9175   */\n      0x00\n        /* \"#utility.yul\":9209:9211   */\n      0x20\n        /* \"#utility.yul\":9198:9207   */\n      dup3\n        /* \"#utility.yul\":9194:9212   */\n      add\n        /* \"#utility.yul\":9186:9212   */\n      swap1\n      pop\n        /* \"#utility.yul\":9258:9267   */\n      dup2\n        /* \"#utility.yul\":9252:9256   */\n      dup2\n        /* \"#utility.yul\":9248:9268   */\n      sub\n        /* \"#utility.yul\":9244:9245   */\n      0x00\n        /* \"#utility.yul\":9233:9242   */\n      dup4\n        /* \"#utility.yul\":9229:9246   */\n      add\n        /* \"#utility.yul\":9222:9269   */\n      mstore\n        /* \"#utility.yul\":9286:9417   */\n      tag_368\n        /* \"#utility.yul\":9412:9416   */\n      dup2\n        /* \"#utility.yul\":9286:9417   */\n      tag_230\n      jump\t// in\n    tag_368:\n        /* \"#utility.yul\":9278:9417   */\n      swap1\n      pop\n        /* \"#utility.yul\":9005:9424   */\n      swap2\n      swap1\n      pop\n      jump\t// out\n        /* \"#utility.yul\":9430:9610   */\n    tag_231:\n        /* \"#utility.yul\":9478:9555   */\n      0x4e487b7100000000000000000000000000000000000000000000000000000000\n        /* \"#utility.yul\":9475:9476   */\n      0x00\n        /* \"#utility.yul\":9468:9556   */\n      mstore\n        /* \"#utility.yul\":9575:9579   */\n      0x22\n        /* \"#utility.yul\":9572:9573   */\n      0x04\n        /* \"#utility.yul\":9565:9580   */\n      mstore\n        /* \"#utility.yul\":9599:9603   */\n      0x24\n        /* \"#utility.yul\":9596:9597   */\n      0x00\n        /* \"#utility.yul\":9589:9604   */\n      revert\n        /* \"#utility.yul\":9616:9936   */\n    tag_75:\n        /* \"#utility.yul\":9660:9666   */\n      0x00\n        /* \"#utility.yul\":9697:9698   */\n      0x02\n        /* \"#utility.yul\":9691:9695   */\n      dup3\n        /* \"#utility.yul\":9687:9699   */\n      div\n        /* \"#utility.yul\":9677:9699   */\n      swap1\n      pop\n        /* \"#utility.yul\":9744:9745   */\n      0x01\n        /* \"#utility.yul\":9738:9742   */\n      dup3\n        /* \"#utility.yul\":9734:9746   */\n      and\n        /* \"#utility.yul\":9765:9783   */\n      dup1\n        /* \"#utility.yul\":9755:9836   */\n      tag_371\n      jumpi\n        /* \"#utility.yul\":9821:9825   */\n      0x7f\n        /* \"#utility.yul\":9813:9819   */\n      dup3\n        /* \"#utility.yul\":9809:9826   */\n      and\n        /* \"#utility.yul\":9799:9826   */\n      swap2\n      pop\n        /* \"#utility.yul\":9755:9836   */\n    tag_371:\n        /* \"#utility.yul\":9883:9885   */\n      0x20\n        /* \"#utility.yul\":9875:9881   */\n      dup3\n        /* \"#utility.yul\":9872:9886   */\n      lt\n        /* \"#utility.yul\":9852:9870   */\n      dup2\n        /* \"#utility.yul\":9849:9887   */\n      sub\n        /* \"#utility.yul\":9846:9930   */\n      tag_372\n      jumpi\n        /* \"#utility.yul\":9902:9920   */\n      tag_373\n      tag_231\n      jump\t// in\n    tag_373:\n        /* \"#utility.yul\":9846:9930   */\n    tag_372:\n        /* \"#utility.yul\":9667:9936   */\n      pop\n        /* \"#utility.yul\":9616:9936   */\n      swap2\n      swap1\n      pop\n      jump\t// out\n        /* \"#utility.yul\":9942:10105   */\n    tag_232:\n        /* \"#utility.yul\":10082:10097   */\n      0x4163636573732044656e69656400000000000000000000000000000000000000\n        /* \"#utility.yul\":10078:10079   */\n      0x00\n        /* \"#utility.yul\":10070:10076   */\n      dup3\n        /* \"#utility.yul\":10066:10080   */\n      add\n        /* \"#utility.yul\":10059:10098   */\n      mstore\n        /* \"#utility.yul\":9942:10105   */\n      pop\n      jump\t// out\n        /* \"#utility.yul\":10111:10477   */\n    tag_233:\n        /* \"#utility.yul\":10253:10256   */\n      0x00\n        /* \"#utility.yul\":10274:10341   */\n      tag_376\n        /* \"#utility.yul\":10338:10340   */\n      0x0d\n        /* \"#utility.yul\":10333:10336   */\n      dup4\n        /* \"#utility.yul\":10274:10341   */\n      tag_206\n      jump\t// in\n    tag_376:\n        /* \"#utility.yul\":10267:10341   */\n      swap2\n      pop\n        /* \"#utility.yul\":10350:10443   */\n      tag_377\n        /* \"#utility.yul\":10439:10442   */\n      dup3\n        /* \"#utility.yul\":10350:10443   */\n      tag_232\n      jump\t// in\n    tag_377:\n        /* \"#utility.yul\":10468:10470   */\n      0x20\n        /* \"#utility.yul\":10463:10466   */\n      dup3\n        /* \"#utility.yul\":10459:10471   */\n      add\n        /* \"#utility.yul\":10452:10471   */\n      swap1\n      pop\n        /* \"#utility.yul\":10111:10477   */\n      swap2\n      swap1\n      pop\n      jump\t// out\n        /* \"#utility.yul\":10483:10902   */\n    tag_83:\n        /* \"#utility.yul\":10649:10653   */\n      0x00\n        /* \"#utility.yul\":10687:10689   */\n      0x20\n        /* \"#utility.yul\":10676:10685   */\n      dup3\n        /* \"#utility.yul\":10672:10690   */\n      add\n        /* \"#utility.yul\":10664:10690   */\n      swap1\n      pop\n        /* \"#utility.yul\":10736:10745   */\n      dup2\n        /* \"#utility.yul\":10730:10734   */\n      dup2\n        /* \"#utility.yul\":10726:10746   */\n      sub\n        /* \"#utility.yul\":10722:10723   */\n      0x00\n        /* \"#utility.yul\":10711:10720   */\n      dup4\n        /* \"#utility.yul\":10707:10724   */\n      add\n        /* \"#utility.yul\":10700:10747   */\n      mstore\n        /* \"#utility.yul\":10764:10895   */\n      tag_379\n        /* \"#utility.yul\":10890:10894   */\n      dup2\n        /* \"#utility.yul\":10764:10895   */\n      tag_233\n      jump\t// in\n    tag_379:\n        /* \"#utility.yul\":10756:10895   */\n      swap1\n      pop\n        /* \"#utility.yul\":10483:10902   */\n      swap2\n      swap1\n      pop\n      jump\t// out\n        /* \"#utility.yul\":10908:11083   */\n    tag_234:\n        /* \"#utility.yul\":11048:11075   */\n      0x496e76616c6964206170706c6963616e74206164647265737300000000000000\n        /* \"#utility.yul\":11044:11045   */\n      0x00\n        /* \"#utility.yul\":11036:11042   */\n      dup3\n        /* \"#utility.yul\":11032:11046   */\n      add\n        /* \"#utility.yul\":11025:11076   */\n      mstore\n        /* \"#utility.yul\":10908:11083   */\n      pop\n      jump\t// out\n        /* \"#utility.yul\":11089:11455   */\n    tag_235:\n        /* \"#utility.yul\":11231:11234   */\n      0x00\n        /* \"#utility.yul\":11252:11319   */\n      tag_382\n        /* \"#utility.yul\":11316:11318   */\n      0x19\n        /* \"#utility.yul\":11311:11314   */\n      dup4\n        /* \"#utility.yul\":11252:11319   */\n      tag_206\n      jump\t// in\n    tag_382:\n        /* \"#utility.yul\":11245:11319   */\n      swap2\n      pop\n        /* \"#utility.yul\":11328:11421   */\n      tag_383\n        /* \"#utility.yul\":11417:11420   */\n      dup3\n        /* \"#utility.yul\":11328:11421   */\n      tag_234\n      jump\t// in\n    tag_383:\n        /* \"#utility.yul\":11446:11448   */\n      0x20\n        /* \"#utility.yul\":11441:11444   */\n      dup3\n        /* \"#utility.yul\":11437:11449   */\n      add\n        /* \"#utility.yul\":11430:11449   */\n      swap1\n      pop\n        /* \"#utility.yul\":11089:11455   */\n      swap2\n      swap1\n      pop\n      jump\t// out\n        /* \"#utility.yul\":11461:11880   */\n    tag_100:\n        /* \"#utility.yul\":11627:11631   */\n      0x00\n        /* \"#utility.yul\":11665:11667   */\n      0x20\n        /* \"#utility.yul\":11654:11663   */\n      dup3\n        /* \"#utility.yul\":11650:11668   */\n      add\n        /* \"#utility.yul\":11642:11668   */\n      swap1\n      pop\n        /* \"#utility.yul\":11714:11723   */\n      dup2\n        /* \"#utility.yul\":11708:11712   */\n      dup2\n        /* \"#utility.yul\":11704:11724   */\n      sub\n        /* \"#utility.yul\":11700:11701   */\n      0x00\n        /* \"#utility.yul\":11689:11698   */\n      dup4\n        /* \"#utility.yul\":11685:11702   */\n      add\n        /* \"#utility.yul\":11678:11725   */\n      mstore\n        /* \"#utility.yul\":11742:11873   */\n      tag_385\n        /* \"#utility.yul\":11868:11872   */\n      dup2\n        /* \"#utility.yul\":11742:11873   */\n      tag_235\n      jump\t// in\n    tag_385:\n        /* \"#utility.yul\":11734:11873   */\n      swap1\n      pop\n        /* \"#utility.yul\":11461:11880   */\n      swap2\n      swap1\n      pop\n      jump\t// out\n        /* \"#utility.yul\":11886:11962   */\n    tag_236:\n        /* \"#utility.yul\":11922:11929   */\n      0x00\n        /* \"#utility.yul\":11951:11956   */\n      dup2\n        /* \"#utility.yul\":11940:11956   */\n      swap1\n      pop\n        /* \"#utility.yul\":11886:11962   */\n      swap2\n      swap1\n      pop\n      jump\t// out\n        /* \"#utility.yul\":11968:12148   */\n    tag_237:\n        /* \"#utility.yul\":12016:12093   */\n      0x4e487b7100000000000000000000000000000000000000000000000000000000\n        /* \"#utility.yul\":12013:12014   */\n      0x00\n        /* \"#utility.yul\":12006:12094   */\n      mstore\n        /* \"#utility.yul\":12113:12117   */\n      0x11\n        /* \"#utility.yul\":12110:12111   */\n      0x04\n        /* \"#utility.yul\":12103:12118   */\n      mstore\n        /* \"#utility.yul\":12137:12141   */\n      0x24\n        /* \"#utility.yul\":12134:12135   */\n      0x00\n        /* \"#utility.yul\":12127:12142   */\n      revert\n        /* \"#utility.yul\":12154:12526   */\n    tag_102:\n        /* \"#utility.yul\":12193:12197   */\n      0x00\n        /* \"#utility.yul\":12213:12232   */\n      tag_389\n        /* \"#utility.yul\":12230:12231   */\n      dup3\n        /* \"#utility.yul\":12213:12232   */\n      tag_236\n      jump\t// in\n    tag_389:\n        /* \"#utility.yul\":12208:12232   */\n      swap2\n      pop\n        /* \"#utility.yul\":12246:12265   */\n      tag_390\n        /* \"#utility.yul\":12263:12264   */\n      dup4\n        /* \"#utility.yul\":12246:12265   */\n      tag_236\n      jump\t// in\n    tag_390:\n        /* \"#utility.yul\":12241:12265   */\n      swap3\n      pop\n        /* \"#utility.yul\":12289:12290   */\n      dup3\n        /* \"#utility.yul\":12286:12287   */\n      dup3\n        /* \"#utility.yul\":12282:12291   */\n      sub\n        /* \"#utility.yul\":12274:12291   */\n      swap1\n      pop\n        /* \"#utility.yul\":12483:12484   */\n      dup2\n        /* \"#utility.yul\":12477:12481   */\n      dup2\n        /* \"#utility.yul\":12473:12485   */\n      slt\n        /* \"#utility.yul\":12469:12470   */\n      0x00\n        /* \"#utility.yul\":12466:12467   */\n      dup5\n        /* \"#utility.yul\":12462:12471   */\n      slt\n        /* \"#utility.yul\":12458:12486   */\n      and\n        /* \"#utility.yul\":12441:12442   */\n      dup3\n        /* \"#utility.yul\":12435:12439   */\n      dup3\n        /* \"#utility.yul\":12431:12443   */\n      sgt\n        /* \"#utility.yul\":12426:12427   */\n      0x00\n        /* \"#utility.yul\":12423:12424   */\n      dup6\n        /* \"#utility.yul\":12419:12428   */\n      slt\n        /* \"#utility.yul\":12412:12429   */\n      iszero\n        /* \"#utility.yul\":12408:12444   */\n      and\n        /* \"#utility.yul\":12392:12496   */\n      or\n        /* \"#utility.yul\":12389:12519   */\n      iszero\n      tag_391\n      jumpi\n        /* \"#utility.yul\":12499:12517   */\n      tag_392\n      tag_237\n      jump\t// in\n    tag_392:\n        /* \"#utility.yul\":12389:12519   */\n    tag_391:\n        /* \"#utility.yul\":12154:12526   */\n      swap3\n      swap2\n      pop\n      pop\n      jump\t// out\n        /* \"#utility.yul\":12532:12697   */\n    tag_238:\n        /* \"#utility.yul\":12672:12689   */\n      0x4e6f742061206170706c6963616e740000000000000000000000000000000000\n        /* \"#utility.yul\":12668:12669   */\n      0x00\n        /* \"#utility.yul\":12660:12666   */\n      dup3\n        /* \"#utility.yul\":12656:12670   */\n      add\n        /* \"#utility.yul\":12649:12690   */\n      mstore\n        /* \"#utility.yul\":12532:12697   */\n      pop\n      jump\t// out\n        /* \"#utility.yul\":12703:13069   */\n    tag_239:\n        /* \"#utility.yul\":12845:12848   */\n      0x00\n        /* \"#utility.yul\":12866:12933   */\n      tag_395\n        /* \"#utility.yul\":12930:12932   */\n      0x0f\n        /* \"#utility.yul\":12925:12928   */\n      dup4\n        /* \"#utility.yul\":12866:12933   */\n      tag_206\n      jump\t// in\n    tag_395:\n        /* \"#utility.yul\":12859:12933   */\n      swap2\n      pop\n        /* \"#utility.yul\":12942:13035   */\n      tag_396\n        /* \"#utility.yul\":13031:13034   */\n      dup3\n        /* \"#utility.yul\":12942:13035   */\n      tag_238\n      jump\t// in\n    tag_396:\n        /* \"#utility.yul\":13060:13062   */\n      0x20\n        /* \"#utility.yul\":13055:13058   */\n      dup3\n        /* \"#utility.yul\":13051:13063   */\n      add\n        /* \"#utility.yul\":13044:13063   */\n      swap1\n      pop\n        /* \"#utility.yul\":12703:13069   */\n      swap2\n      swap1\n      pop\n      jump\t// out\n        /* \"#utility.yul\":13075:13494   */\n    tag_115:\n        /* \"#utility.yul\":13241:13245   */\n      0x00\n        /* \"#utility.yul\":13279:13281   */\n      0x20\n        /* \"#utility.yul\":13268:13277   */\n      dup3\n        /* \"#utility.yul\":13264:13282   */\n      add\n        /* \"#utility.yul\":13256:13282   */\n      swap1\n      pop\n        /* \"#utility.yul\":13328:13337   */\n      dup2\n        /* \"#utility.yul\":13322:13326   */\n      dup2\n        /* \"#utility.yul\":13318:13338   */\n      sub\n        /* \"#utility.yul\":13314:13315   */\n      0x00\n        /* \"#utility.yul\":13303:13312   */\n      dup4\n        /* \"#utility.yul\":13299:13316   */\n      add\n        /* \"#utility.yul\":13292:13339   */\n      mstore\n        /* \"#utility.yul\":13356:13487   */\n      tag_398\n        /* \"#utility.yul\":13482:13486   */\n      dup2\n        /* \"#utility.yul\":13356:13487   */\n      tag_239\n      jump\t// in\n    tag_398:\n        /* \"#utility.yul\":13348:13487   */\n      swap1\n      pop\n        /* \"#utility.yul\":13075:13494   */\n      swap2\n      swap1\n      pop\n      jump\t// out\n        /* \"#utility.yul\":13500:13680   */\n    tag_121:\n        /* \"#utility.yul\":13548:13625   */\n      0x4e487b7100000000000000000000000000000000000000000000000000000000\n        /* \"#utility.yul\":13545:13546   */\n      0x00\n        /* \"#utility.yul\":13538:13626   */\n      mstore\n        /* \"#utility.yul\":13645:13649   */\n      0x32\n        /* \"#utility.yul\":13642:13643   */\n      0x04\n        /* \"#utility.yul\":13635:13650   */\n      mstore\n        /* \"#utility.yul\":13669:13673   */\n      0x24\n        /* \"#utility.yul\":13666:13667   */\n      0x00\n        /* \"#utility.yul\":13659:13674   */\n      revert\n        /* \"#utility.yul\":13686:13919   */\n    tag_125:\n        /* \"#utility.yul\":13725:13728   */\n      0x00\n        /* \"#utility.yul\":13748:13772   */\n      tag_401\n        /* \"#utility.yul\":13766:13771   */\n      dup3\n        /* \"#utility.yul\":13748:13772   */\n      tag_217\n      jump\t// in\n    tag_401:\n        /* \"#utility.yul\":13739:13772   */\n      swap2\n      pop\n        /* \"#utility.yul\":13794:13860   */\n      0xffffffffffffffffffffffffffffffffffffffffffffffffffffffffffffffff\n        /* \"#utility.yul\":13787:13792   */\n      dup3\n        /* \"#utility.yul\":13784:13861   */\n      sub\n        /* \"#utility.yul\":13781:13884   */\n      tag_402\n      jumpi\n        /* \"#utility.yul\":13864:13882   */\n      tag_403\n      tag_237\n      jump\t// in\n    tag_403:\n        /* \"#utility.yul\":13781:13884   */\n    tag_402:\n        /* \"#utility.yul\":13911:13912   */\n      0x01\n        /* \"#utility.yul\":13904:13909   */\n      dup3\n        /* \"#utility.yul\":13900:13913   */\n      add\n        /* \"#utility.yul\":13893:13913   */\n      swap1\n      pop\n        /* \"#utility.yul\":13686:13919   */\n      swap2\n      swap1\n      pop\n      jump\t// out\n        /* \"#utility.yul\":13925:14095   */\n    tag_240:\n        /* \"#utility.yul\":14065:14087   */\n      0x53656e64657220616c726561647920766f746564000000000000000000000000\n        /* \"#utility.yul\":14061:14062   */\n      0x00\n        /* \"#utility.yul\":14053:14059   */\n      dup3\n        /* \"#utility.yul\":14049:14063   */\n      add\n        /* \"#utility.yul\":14042:14088   */\n      mstore\n        /* \"#utility.yul\":13925:14095   */\n      pop\n      jump\t// out\n        /* \"#utility.yul\":14101:14467   */\n    tag_241:\n        /* \"#utility.yul\":14243:14246   */\n      0x00\n        /* \"#utility.yul\":14264:14331   */\n      tag_406\n        /* \"#utility.yul\":14328:14330   */\n      0x14\n        /* \"#utility.yul\":14323:14326   */\n      dup4\n        /* \"#utility.yul\":14264:14331   */\n      tag_206\n      jump\t// in\n    tag_406:\n        /* \"#utility.yul\":14257:14331   */\n      swap2\n      pop\n        /* \"#utility.yul\":14340:14433   */\n      tag_407\n        /* \"#utility.yul\":14429:14432   */\n      dup3\n        /* \"#utility.yul\":14340:14433   */\n      tag_240\n      jump\t// in\n    tag_407:\n        /* \"#utility.yul\":14458:14460   */\n      0x20\n        /* \"#utility.yul\":14453:14456   */\n      dup3\n        /* \"#utility.yul\":14449:14461   */\n      add\n        /* \"#utility.yul\":14442:14461   */\n      swap1\n      pop\n        /* \"#utility.yul\":14101:14467   */\n      swap2\n      swap1\n      pop\n      jump\t// out\n        /* \"#utility.yul\":14473:14892   */\n    tag_128:\n        /* \"#utility.yul\":14639:14643   */\n      0x00\n        /* \"#utility.yul\":14677:14679   */\n      0x20\n        /* \"#utility.yul\":14666:14675   */\n      dup3\n        /* \"#utility.yul\":14662:14680   */\n      add\n        /* \"#utility.yul\":14654:14680   */\n      swap1\n      pop\n        /* \"#utility.yul\":14726:14735   */\n      dup2\n        /* \"#utility.yul\":14720:14724   */\n      dup2\n        /* \"#utility.yul\":14716:14736   */\n      sub\n        /* \"#utility.yul\":14712:14713   */\n      0x00\n        /* \"#utility.yul\":14701:14710   */\n      dup4\n        /* \"#utility.yul\":14697:14714   */\n      add\n        /* \"#utility.yul\":14690:14737   */\n      mstore\n        /* \"#utility.yul\":14754:14885   */\n      tag_409\n        /* \"#utility.yul\":14880:14884   */\n      dup2\n        /* \"#utility.yul\":14754:14885   */\n      tag_241\n      jump\t// in\n    tag_409:\n        /* \"#utility.yul\":14746:14885   */\n      swap1\n      pop\n        /* \"#utility.yul\":14473:14892   */\n      swap2\n      swap1\n      pop\n      jump\t// out\n        /* \"#utility.yul\":14898:15273   */\n    tag_131:\n        /* \"#utility.yul\":14937:14940   */\n      0x00\n        /* \"#utility.yul\":14956:14975   */\n      tag_411\n        /* \"#utility.yul\":14973:14974   */\n      dup3\n        /* \"#utility.yul\":14956:14975   */\n      tag_236\n      jump\t// in\n    tag_411:\n        /* \"#utility.yul\":14951:14975   */\n      swap2\n      pop\n        /* \"#utility.yul\":14989:15008   */\n      tag_412\n        /* \"#utility.yul\":15006:15007   */\n      dup4\n        /* \"#utility.yul\":14989:15008   */\n      tag_236\n      jump\t// in\n    tag_412:\n        /* \"#utility.yul\":14984:15008   */\n      swap3\n      pop\n        /* \"#utility.yul\":15031:15032   */\n      dup3\n        /* \"#utility.yul\":15028:15029   */\n      dup3\n        /* \"#utility.yul\":15024:15033   */\n      add\n        /* \"#utility.yul\":15017:15033   */\n      swap1\n      pop\n        /* \"#utility.yul\":15229:15230   */\n      dup3\n        /* \"#utility.yul\":15224:15227   */\n      dup2\n        /* \"#utility.yul\":15220:15231   */\n      slt\n        /* \"#utility.yul\":15213:15232   */\n      iszero\n        /* \"#utility.yul\":15209:15210   */\n      0x00\n        /* \"#utility.yul\":15206:15207   */\n      dup4\n        /* \"#utility.yul\":15202:15211   */\n      slt\n        /* \"#utility.yul\":15198:15233   */\n      and\n        /* \"#utility.yul\":15181:15182   */\n      dup4\n        /* \"#utility.yul\":15176:15179   */\n      dup3\n        /* \"#utility.yul\":15172:15183   */\n      slt\n        /* \"#utility.yul\":15167:15168   */\n      0x00\n        /* \"#utility.yul\":15164:15165   */\n      dup5\n        /* \"#utility.yul\":15160:15169   */\n      slt\n        /* \"#utility.yul\":15153:15170   */\n      iszero\n        /* \"#utility.yul\":15149:15184   */\n      and\n        /* \"#utility.yul\":15133:15243   */\n      or\n        /* \"#utility.yul\":15130:15266   */\n      iszero\n      tag_413\n      jumpi\n        /* \"#utility.yul\":15246:15264   */\n      tag_414\n      tag_237\n      jump\t// in\n    tag_414:\n        /* \"#utility.yul\":15130:15266   */\n    tag_413:\n        /* \"#utility.yul\":14898:15273   */\n      swap3\n      swap2\n      pop\n      pop\n      jump\t// out\n        /* \"#utility.yul\":15279:15450   */\n    tag_242:\n        /* \"#utility.yul\":15419:15442   */\n      0x416c726561647920616374697665206d656d6265720000000000000000000000\n        /* \"#utility.yul\":15415:15416   */\n      0x00\n        /* \"#utility.yul\":15407:15413   */\n      dup3\n        /* \"#utility.yul\":15403:15417   */\n      add\n        /* \"#utility.yul\":15396:15443   */\n      mstore\n        /* \"#utility.yul\":15279:15450   */\n      pop\n      jump\t// out\n        /* \"#utility.yul\":15456:15822   */\n    tag_243:\n        /* \"#utility.yul\":15598:15601   */\n      0x00\n        /* \"#utility.yul\":15619:15686   */\n      tag_417\n        /* \"#utility.yul\":15683:15685   */\n      0x15\n        /* \"#utility.yul\":15678:15681   */\n      dup4\n        /* \"#utility.yul\":15619:15686   */\n      tag_206\n      jump\t// in\n    tag_417:\n        /* \"#utility.yul\":15612:15686   */\n      swap2\n      pop\n        /* \"#utility.yul\":15695:15788   */\n      tag_418\n        /* \"#utility.yul\":15784:15787   */\n      dup3\n        /* \"#utility.yul\":15695:15788   */\n      tag_242\n      jump\t// in\n    tag_418:\n        /* \"#utility.yul\":15813:15815   */\n      0x20\n        /* \"#utility.yul\":15808:15811   */\n      dup3\n        /* \"#utility.yul\":15804:15816   */\n      add\n        /* \"#utility.yul\":15797:15816   */\n      swap1\n      pop\n        /* \"#utility.yul\":15456:15822   */\n      swap2\n      swap1\n      pop\n      jump\t// out\n        /* \"#utility.yul\":15828:16247   */\n    tag_153:\n        /* \"#utility.yul\":15994:15998   */\n      0x00\n        /* \"#utility.yul\":16032:16034   */\n      0x20\n        /* \"#utility.yul\":16021:16030   */\n      dup3\n        /* \"#utility.yul\":16017:16035   */\n      add\n        /* \"#utility.yul\":16009:16035   */\n      swap1\n      pop\n        /* \"#utility.yul\":16081:16090   */\n      dup2\n        /* \"#utility.yul\":16075:16079   */\n      dup2\n        /* \"#utility.yul\":16071:16091   */\n      sub\n        /* \"#utility.yul\":16067:16068   */\n      0x00\n        /* \"#utility.yul\":16056:16065   */\n      dup4\n        /* \"#utility.yul\":16052:16069   */\n      add\n        /* \"#utility.yul\":16045:16092   */\n      mstore\n        /* \"#utility.yul\":16109:16240   */\n      tag_420\n        /* \"#utility.yul\":16235:16239   */\n      dup2\n        /* \"#utility.yul\":16109:16240   */\n      tag_243\n      jump\t// in\n    tag_420:\n        /* \"#utility.yul\":16101:16240   */\n      swap1\n      pop\n        /* \"#utility.yul\":15828:16247   */\n      swap2\n      swap1\n      pop\n      jump\t// out\n        /* \"#utility.yul\":16253:16429   */\n    tag_244:\n        /* \"#utility.yul\":16393:16421   */\n      0x4e6577204170706c6963616e7420466565205265717569726564000000000000\n        /* \"#utility.yul\":16389:16390   */\n      0x00\n        /* \"#utility.yul\":16381:16387   */\n      dup3\n        /* \"#utility.yul\":16377:16391   */\n      add\n        /* \"#utility.yul\":16370:16422   */\n      mstore\n        /* \"#utility.yul\":16253:16429   */\n      pop\n      jump\t// out\n        /* \"#utility.yul\":16435:16801   */\n    tag_245:\n        /* \"#utility.yul\":16577:16580   */\n      0x00\n        /* \"#utility.yul\":16598:16665   */\n      tag_423\n        /* \"#utility.yul\":16662:16664   */\n      0x1a\n        /* \"#utility.yul\":16657:16660   */\n      dup4\n        /* \"#utility.yul\":16598:16665   */\n      tag_206\n      jump\t// in\n    tag_423:\n        /* \"#utility.yul\":16591:16665   */\n      swap2\n      pop\n        /* \"#utility.yul\":16674:16767   */\n      tag_424\n        /* \"#utility.yul\":16763:16766   */\n      dup3\n        /* \"#utility.yul\":16674:16767   */\n      tag_244\n      jump\t// in\n    tag_424:\n        /* \"#utility.yul\":16792:16794   */\n      0x20\n        /* \"#utility.yul\":16787:16790   */\n      dup3\n        /* \"#utility.yul\":16783:16795   */\n      add\n        /* \"#utility.yul\":16776:16795   */\n      swap1\n      pop\n        /* \"#utility.yul\":16435:16801   */\n      swap2\n      swap1\n      pop\n      jump\t// out\n        /* \"#utility.yul\":16807:17226   */\n    tag_160:\n        /* \"#utility.yul\":16973:16977   */\n      0x00\n        /* \"#utility.yul\":17011:17013   */\n      0x20\n        /* \"#utility.yul\":17000:17009   */\n      dup3\n        /* \"#utility.yul\":16996:17014   */\n      add\n        /* \"#utility.yul\":16988:17014   */\n      swap1\n      pop\n        /* \"#utility.yul\":17060:17069   */\n      dup2\n        /* \"#utility.yul\":17054:17058   */\n      dup2\n        /* \"#utility.yul\":17050:17070   */\n      sub\n        /* \"#utility.yul\":17046:17047   */\n      0x00\n        /* \"#utility.yul\":17035:17044   */\n      dup4\n        /* \"#utility.yul\":17031:17048   */\n      add\n        /* \"#utility.yul\":17024:17071   */\n      mstore\n        /* \"#utility.yul\":17088:17219   */\n      tag_426\n        /* \"#utility.yul\":17214:17218   */\n      dup2\n        /* \"#utility.yul\":17088:17219   */\n      tag_245\n      jump\t// in\n    tag_426:\n        /* \"#utility.yul\":17080:17219   */\n      swap1\n      pop\n        /* \"#utility.yul\":16807:17226   */\n      swap2\n      swap1\n      pop\n      jump\t// out\n        /* \"#utility.yul\":17232:17406   */\n    tag_246:\n        /* \"#utility.yul\":17372:17398   */\n      0x416c726561647920616374697665206170706c6963616e740000000000000000\n        /* \"#utility.yul\":17368:17369   */\n      0x00\n        /* \"#utility.yul\":17360:17366   */\n      dup3\n        /* \"#utility.yul\":17356:17370   */\n      add\n        /* \"#utility.yul\":17349:17399   */\n      mstore\n        /* \"#utility.yul\":17232:17406   */\n      pop\n      jump\t// out\n        /* \"#utility.yul\":17412:17778   */\n    tag_247:\n        /* \"#utility.yul\":17554:17557   */\n      0x00\n        /* \"#utility.yul\":17575:17642   */\n      tag_429\n        /* \"#utility.yul\":17639:17641   */\n      0x18\n        /* \"#utility.yul\":17634:17637   */\n      dup4\n        /* \"#utility.yul\":17575:17642   */\n      tag_206\n      jump\t// in\n    tag_429:\n        /* \"#utility.yul\":17568:17642   */\n      swap2\n      pop\n        /* \"#utility.yul\":17651:17744   */\n      tag_430\n        /* \"#utility.yul\":17740:17743   */\n      dup3\n        /* \"#utility.yul\":17651:17744   */\n      tag_246\n      jump\t// in\n    tag_430:\n        /* \"#utility.yul\":17769:17771   */\n      0x20\n        /* \"#utility.yul\":17764:17767   */\n      dup3\n        /* \"#utility.yul\":17760:17772   */\n      add\n        /* \"#utility.yul\":17753:17772   */\n      swap1\n      pop\n        /* \"#utility.yul\":17412:17778   */\n      swap2\n      swap1\n      pop\n      jump\t// out\n        /* \"#utility.yul\":17784:18203   */\n    tag_163:\n        /* \"#utility.yul\":17950:17954   */\n      0x00\n        /* \"#utility.yul\":17988:17990   */\n      0x20\n        /* \"#utility.yul\":17977:17986   */\n      dup3\n        /* \"#utility.yul\":17973:17991   */\n      add\n        /* \"#utility.yul\":17965:17991   */\n      swap1\n      pop\n        /* \"#utility.yul\":18037:18046   */\n      dup2\n        /* \"#utility.yul\":18031:18035   */\n      dup2\n        /* \"#utility.yul\":18027:18047   */\n      sub\n        /* \"#utility.yul\":18023:18024   */\n      0x00\n        /* \"#utility.yul\":18012:18021   */\n      dup4\n        /* \"#utility.yul\":18008:18025   */\n      add\n        /* \"#utility.yul\":18001:18048   */\n      mstore\n        /* \"#utility.yul\":18065:18196   */\n      tag_432\n        /* \"#utility.yul\":18191:18195   */\n      dup2\n        /* \"#utility.yul\":18065:18196   */\n      tag_247\n      jump\t// in\n    tag_432:\n        /* \"#utility.yul\":18057:18196   */\n      swap1\n      pop\n        /* \"#utility.yul\":17784:18203   */\n      swap2\n      swap1\n      pop\n      jump\t// out\n        /* \"#utility.yul\":18209:18375   */\n    tag_248:\n        /* \"#utility.yul\":18349:18367   */\n      0x6163636f756e742072656a656374656400000000000000000000000000000000\n        /* \"#utility.yul\":18345:18346   */\n      0x00\n        /* \"#utility.yul\":18337:18343   */\n      dup3\n        /* \"#utility.yul\":18333:18347   */\n      add\n        /* \"#utility.yul\":18326:18368   */\n      mstore\n        /* \"#utility.yul\":18209:18375   */\n      pop\n      jump\t// out\n        /* \"#utility.yul\":18381:18747   */\n    tag_249:\n        /* \"#utility.yul\":18523:18526   */\n      0x00\n        /* \"#utility.yul\":18544:18611   */\n      tag_435\n        /* \"#utility.yul\":18608:18610   */\n      0x10\n        /* \"#utility.yul\":18603:18606   */\n      dup4\n        /* \"#utility.yul\":18544:18611   */\n      tag_206\n      jump\t// in\n    tag_435:\n        /* \"#utility.yul\":18537:18611   */\n      swap2\n      pop\n        /* \"#utility.yul\":18620:18713   */\n      tag_436\n        /* \"#utility.yul\":18709:18712   */\n      dup3\n        /* \"#utility.yul\":18620:18713   */\n      tag_248\n      jump\t// in\n    tag_436:\n        /* \"#utility.yul\":18738:18740   */\n      0x20\n        /* \"#utility.yul\":18733:18736   */\n      dup3\n        /* \"#utility.yul\":18729:18741   */\n      add\n        /* \"#utility.yul\":18722:18741   */\n      swap1\n      pop\n        /* \"#utility.yul\":18381:18747   */\n      swap2\n      swap1\n      pop\n      jump\t// out\n        /* \"#utility.yul\":18753:19172   */\n    tag_166:\n        /* \"#utility.yul\":18919:18923   */\n      0x00\n        /* \"#utility.yul\":18957:18959   */\n      0x20\n        /* \"#utility.yul\":18946:18955   */\n      dup3\n        /* \"#utility.yul\":18942:18960   */\n      add\n        /* \"#utility.yul\":18934:18960   */\n      swap1\n      pop\n        /* \"#utility.yul\":19006:19015   */\n      dup2\n        /* \"#utility.yul\":19000:19004   */\n      dup2\n        /* \"#utility.yul\":18996:19016   */\n      sub\n        /* \"#utility.yul\":18992:18993   */\n      0x00\n        /* \"#utility.yul\":18981:18990   */\n      dup4\n        /* \"#utility.yul\":18977:18994   */\n      add\n        /* \"#utility.yul\":18970:19017   */\n      mstore\n        /* \"#utility.yul\":19034:19165   */\n      tag_438\n        /* \"#utility.yul\":19160:19164   */\n      dup2\n        /* \"#utility.yul\":19034:19165   */\n      tag_249\n      jump\t// in\n    tag_438:\n        /* \"#utility.yul\":19026:19165   */\n      swap1\n      pop\n        /* \"#utility.yul\":18753:19172   */\n      swap2\n      swap1\n      pop\n      jump\t// out\n        /* \"#utility.yul\":19178:19275   */\n    tag_250:\n        /* \"#utility.yul\":19237:19243   */\n      0x00\n        /* \"#utility.yul\":19265:19268   */\n      dup3\n        /* \"#utility.yul\":19255:19268   */\n      swap1\n      pop\n        /* \"#utility.yul\":19178:19275   */\n      swap3\n      swap2\n      pop\n      pop\n      jump\t// out\n        /* \"#utility.yul\":19281:19461   */\n    tag_251:\n        /* \"#utility.yul\":19329:19406   */\n      0x4e487b7100000000000000000000000000000000000000000000000000000000\n        /* \"#utility.yul\":19326:19327   */\n      0x00\n        /* \"#utility.yul\":19319:19407   */\n      mstore\n        /* \"#utility.yul\":19426:19430   */\n      0x41\n        /* \"#utility.yul\":19423:19424   */\n      0x04\n        /* \"#utility.yul\":19416:19431   */\n      mstore\n        /* \"#utility.yul\":19450:19454   */\n      0x24\n        /* \"#utility.yul\":19447:19448   */\n      0x00\n        /* \"#utility.yul\":19440:19455   */\n      revert\n        /* \"#utility.yul\":19467:19608   */\n    tag_252:\n        /* \"#utility.yul\":19516:19520   */\n      0x00\n        /* \"#utility.yul\":19539:19542   */\n      dup2\n        /* \"#utility.yul\":19531:19542   */\n      swap1\n      pop\n        /* \"#utility.yul\":19562:19565   */\n      dup2\n        /* \"#utility.yul\":19559:19560   */\n      0x00\n        /* \"#utility.yul\":19552:19566   */\n      mstore\n        /* \"#utility.yul\":19596:19600   */\n      0x20\n        /* \"#utility.yul\":19593:19594   */\n      0x00\n        /* \"#utility.yul\":19583:19601   */\n      keccak256\n        /* \"#utility.yul\":19575:19601   */\n      swap1\n      pop\n        /* \"#utility.yul\":19467:19608   */\n      swap2\n      swap1\n      pop\n      jump\t// out\n        /* \"#utility.yul\":19614:19707   */\n    tag_253:\n        /* \"#utility.yul\":19651:19657   */\n      0x00\n        /* \"#utility.yul\":19698:19700   */\n      0x20\n        /* \"#utility.yul\":19693:19695   */\n      0x1f\n        /* \"#utility.yul\":19686:19691   */\n      dup4\n        /* \"#utility.yul\":19682:19696   */\n      add\n        /* \"#utility.yul\":19678:19701   */\n      div\n        /* \"#utility.yul\":19668:19701   */\n      swap1\n      pop\n        /* \"#utility.yul\":19614:19707   */\n      swap2\n      swap1\n      pop\n      jump\t// out\n        /* \"#utility.yul\":19713:19820   */\n    tag_254:\n        /* \"#utility.yul\":19757:19765   */\n      0x00\n        /* \"#utility.yul\":19807:19812   */\n      dup3\n        /* \"#utility.yul\":19801:19805   */\n      dup3\n        /* \"#utility.yul\":19797:19813   */\n      shl\n        /* \"#utility.yul\":19776:19813   */\n      swap1\n      pop\n        /* \"#utility.yul\":19713:19820   */\n      swap3\n      swap2\n      pop\n      pop\n      jump\t// out\n        /* \"#utility.yul\":19826:20219   */\n    tag_255:\n        /* \"#utility.yul\":19895:19901   */\n      0x00\n        /* \"#utility.yul\":19945:19946   */\n      0x08\n        /* \"#utility.yul\":19933:19943   */\n      dup4\n        /* \"#utility.yul\":19929:19947   */\n      mul\n        /* \"#utility.yul\":19968:20065   */\n      tag_445\n        /* \"#utility.yul\":19998:20064   */\n      0xffffffffffffffffffffffffffffffffffffffffffffffffffffffffffffffff\n        /* \"#utility.yul\":19987:19996   */\n      dup3\n        /* \"#utility.yul\":19968:20065   */\n      tag_254\n      jump\t// in\n    tag_445:\n        /* \"#utility.yul\":20086:20125   */\n      tag_446\n        /* \"#utility.yul\":20116:20124   */\n      dup7\n        /* \"#utility.yul\":20105:20114   */\n      dup4\n        /* \"#utility.yul\":20086:20125   */\n      tag_254\n      jump\t// in\n    tag_446:\n        /* \"#utility.yul\":20074:20125   */\n      swap6\n      pop\n        /* \"#utility.yul\":20158:20162   */\n      dup1\n        /* \"#utility.yul\":20154:20163   */\n      not\n        /* \"#utility.yul\":20147:20152   */\n      dup5\n        /* \"#utility.yul\":20143:20164   */\n      and\n        /* \"#utility.yul\":20134:20164   */\n      swap4\n      pop\n        /* \"#utility.yul\":20207:20211   */\n      dup1\n        /* \"#utility.yul\":20197:20205   */\n      dup7\n        /* \"#utility.yul\":20193:20212   */\n      and\n        /* \"#utility.yul\":20186:20191   */\n      dup5\n        /* \"#utility.yul\":20183:20213   */\n      or\n        /* \"#utility.yul\":20173:20213   */\n      swap3\n      pop\n        /* \"#utility.yul\":19902:20219   */\n      pop\n      pop\n        /* \"#utility.yul\":19826:20219   */\n      swap4\n      swap3\n      pop\n      pop\n      pop\n      jump\t// out\n        /* \"#utility.yul\":20225:20285   */\n    tag_256:\n        /* \"#utility.yul\":20253:20256   */\n      0x00\n        /* \"#utility.yul\":20274:20279   */\n      dup2\n        /* \"#utility.yul\":20267:20279   */\n      swap1\n      pop\n        /* \"#utility.yul\":20225:20285   */\n      swap2\n      swap1\n      pop\n      jump\t// out\n        /* \"#utility.yul\":20291:20433   */\n    tag_257:\n        /* \"#utility.yul\":20341:20350   */\n      0x00\n        /* \"#utility.yul\":20374:20427   */\n      tag_449\n        /* \"#utility.yul\":20392:20426   */\n      tag_450\n        /* \"#utility.yul\":20401:20425   */\n      tag_451\n        /* \"#utility.yul\":20419:20424   */\n      dup5\n        /* \"#utility.yul\":20401:20425   */\n      tag_217\n      jump\t// in\n    tag_451:\n        /* \"#utility.yul\":20392:20426   */\n      tag_256\n      jump\t// in\n    tag_450:\n        /* \"#utility.yul\":20374:20427   */\n      tag_217\n      jump\t// in\n    tag_449:\n        /* \"#utility.yul\":20361:20427   */\n      swap1\n      pop\n        /* \"#utility.yul\":20291:20433   */\n      swap2\n      swap1\n      pop\n      jump\t// out\n        /* \"#utility.yul\":20439:20514   */\n    tag_258:\n        /* \"#utility.yul\":20482:20485   */\n      0x00\n        /* \"#utility.yul\":20503:20508   */\n      dup2\n        /* \"#utility.yul\":20496:20508   */\n      swap1\n      pop\n        /* \"#utility.yul\":20439:20514   */\n      swap2\n      swap1\n      pop\n      jump\t// out\n        /* \"#utility.yul\":20520:20789   */\n    tag_259:\n        /* \"#utility.yul\":20630:20669   */\n      tag_454\n        /* \"#utility.yul\":20661:20668   */\n      dup4\n        /* \"#utility.yul\":20630:20669   */\n      tag_257\n      jump\t// in\n    tag_454:\n        /* \"#utility.yul\":20691:20782   */\n      tag_455\n        /* \"#utility.yul\":20740:20781   */\n      tag_456\n        /* \"#utility.yul\":20764:20780   */\n      dup3\n        /* \"#utility.yul\":20740:20781   */\n      tag_258\n      jump\t// in\n    tag_456:\n        /* \"#utility.yul\":20732:20738   */\n      dup5\n        /* \"#utility.yul\":20725:20729   */\n      dup5\n        /* \"#utility.yul\":20719:20730   */\n      sload\n        /* \"#utility.yul\":20691:20782   */\n      tag_255\n      jump\t// in\n    tag_455:\n        /* \"#utility.yul\":20685:20689   */\n      dup3\n        /* \"#utility.yul\":20678:20783   */\n      sstore\n        /* \"#utility.yul\":20596:20789   */\n      pop\n        /* \"#utility.yul\":20520:20789   */\n      pop\n      pop\n      pop\n      jump\t// out\n        /* \"#utility.yul\":20795:20868   */\n    tag_260:\n        /* \"#utility.yul\":20840:20843   */\n      0x00\n        /* \"#utility.yul\":20795:20868   */\n      swap1\n      jump\t// out\n        /* \"#utility.yul\":20874:21063   */\n    tag_261:\n        /* \"#utility.yul\":20951:20983   */\n      tag_459\n      tag_260\n      jump\t// in\n    tag_459:\n        /* \"#utility.yul\":20992:21057   */\n      tag_460\n        /* \"#utility.yul\":21050:21056   */\n      dup2\n        /* \"#utility.yul\":21042:21048   */\n      dup5\n        /* \"#utility.yul\":21036:21040   */\n      dup5\n        /* \"#utility.yul\":20992:21057   */\n      tag_259\n      jump\t// in\n    tag_460:\n        /* \"#utility.yul\":20927:21063   */\n      pop\n        /* \"#utility.yul\":20874:21063   */\n      pop\n      pop\n      jump\t// out\n        /* \"#utility.yul\":21069:21255   */\n    tag_262:\n        /* \"#utility.yul\":21129:21249   */\n    tag_462:\n        /* \"#utility.yul\":21146:21149   */\n      dup2\n        /* \"#utility.yul\":21139:21144   */\n      dup2\n        /* \"#utility.yul\":21136:21150   */\n      lt\n        /* \"#utility.yul\":21129:21249   */\n      iszero\n      tag_464\n      jumpi\n        /* \"#utility.yul\":21200:21239   */\n      tag_465\n        /* \"#utility.yul\":21237:21238   */\n      0x00\n        /* \"#utility.yul\":21230:21235   */\n      dup3\n        /* \"#utility.yul\":21200:21239   */\n      tag_261\n      jump\t// in\n    tag_465:\n        /* \"#utility.yul\":21173:21174   */\n      0x01\n        /* \"#utility.yul\":21166:21171   */\n      dup2\n        /* \"#utility.yul\":21162:21175   */\n      add\n        /* \"#utility.yul\":21153:21175   */\n      swap1\n      pop\n        /* \"#utility.yul\":21129:21249   */\n      jump(tag_462)\n    tag_464:\n        /* \"#utility.yul\":21069:21255   */\n      pop\n      pop\n      jump\t// out\n        /* \"#utility.yul\":21261:21804   */\n    tag_263:\n        /* \"#utility.yul\":21362:21364   */\n      0x1f\n        /* \"#utility.yul\":21357:21360   */\n      dup3\n        /* \"#utility.yul\":21354:21365   */\n      gt\n        /* \"#utility.yul\":21351:21797   */\n      iszero\n      tag_467\n      jumpi\n        /* \"#utility.yul\":21396:21434   */\n      tag_468\n        /* \"#utility.yul\":21428:21433   */\n      dup2\n        /* \"#utility.yul\":21396:21434   */\n      tag_252\n      jump\t// in\n    tag_468:\n        /* \"#utility.yul\":21480:21509   */\n      tag_469\n        /* \"#utility.yul\":21498:21508   */\n      dup5\n        /* \"#utility.yul\":21480:21509   */\n      tag_253\n      jump\t// in\n    tag_469:\n        /* \"#utility.yul\":21470:21478   */\n      dup2\n        /* \"#utility.yul\":21466:21510   */\n      add\n        /* \"#utility.yul\":21663:21665   */\n      0x20\n        /* \"#utility.yul\":21651:21661   */\n      dup6\n        /* \"#utility.yul\":21648:21666   */\n      lt\n        /* \"#utility.yul\":21645:21694   */\n      iszero\n      tag_470\n      jumpi\n        /* \"#utility.yul\":21684:21692   */\n      dup2\n        /* \"#utility.yul\":21669:21692   */\n      swap1\n      pop\n        /* \"#utility.yul\":21645:21694   */\n    tag_470:\n        /* \"#utility.yul\":21707:21787   */\n      tag_471\n        /* \"#utility.yul\":21763:21785   */\n      tag_472\n        /* \"#utility.yul\":21781:21784   */\n      dup6\n        /* \"#utility.yul\":21763:21785   */\n      tag_253\n      jump\t// in\n    tag_472:\n        /* \"#utility.yul\":21753:21761   */\n      dup4\n        /* \"#utility.yul\":21749:21786   */\n      add\n        /* \"#utility.yul\":21736:21747   */\n      dup3\n        /* \"#utility.yul\":21707:21787   */\n      tag_262\n      jump\t// in\n    tag_471:\n        /* \"#utility.yul\":21366:21797   */\n      pop\n      pop\n        /* \"#utility.yul\":21351:21797   */\n    tag_467:\n        /* \"#utility.yul\":21261:21804   */\n      pop\n      pop\n      pop\n      jump\t// out\n        /* \"#utility.yul\":21810:21927   */\n    tag_264:\n        /* \"#utility.yul\":21864:21872   */\n      0x00\n        /* \"#utility.yul\":21914:21919   */\n      dup3\n        /* \"#utility.yul\":21908:21912   */\n      dup3\n        /* \"#utility.yul\":21904:21920   */\n      shr\n        /* \"#utility.yul\":21883:21920   */\n      swap1\n      pop\n        /* \"#utility.yul\":21810:21927   */\n      swap3\n      swap2\n      pop\n      pop\n      jump\t// out\n        /* \"#utility.yul\":21933:22102   */\n    tag_265:\n        /* \"#utility.yul\":21977:21983   */\n      0x00\n        /* \"#utility.yul\":22010:22061   */\n      tag_475\n        /* \"#utility.yul\":22058:22059   */\n      0x00\n        /* \"#utility.yul\":22054:22060   */\n      not\n        /* \"#utility.yul\":22046:22051   */\n      dup5\n        /* \"#utility.yul\":22043:22044   */\n      0x08\n        /* \"#utility.yul\":22039:22052   */\n      mul\n        /* \"#utility.yul\":22010:22061   */\n      tag_264\n      jump\t// in\n    tag_475:\n        /* \"#utility.yul\":22006:22062   */\n      not\n        /* \"#utility.yul\":22091:22095   */\n      dup1\n        /* \"#utility.yul\":22085:22089   */\n      dup4\n        /* \"#utility.yul\":22081:22096   */\n      and\n        /* \"#utility.yul\":22071:22096   */\n      swap2\n      pop\n        /* \"#utility.yul\":21984:22102   */\n      pop\n        /* \"#utility.yul\":21933:22102   */\n      swap3\n      swap2\n      pop\n      pop\n      jump\t// out\n        /* \"#utility.yul\":22107:22402   */\n    tag_266:\n        /* \"#utility.yul\":22183:22187   */\n      0x00\n        /* \"#utility.yul\":22329:22358   */\n      tag_477\n        /* \"#utility.yul\":22354:22357   */\n      dup4\n        /* \"#utility.yul\":22348:22352   */\n      dup4\n        /* \"#utility.yul\":22329:22358   */\n      tag_265\n      jump\t// in\n    tag_477:\n        /* \"#utility.yul\":22321:22358   */\n      swap2\n      pop\n        /* \"#utility.yul\":22391:22394   */\n      dup3\n        /* \"#utility.yul\":22388:22389   */\n      0x02\n        /* \"#utility.yul\":22384:22395   */\n      mul\n        /* \"#utility.yul\":22378:22382   */\n      dup3\n        /* \"#utility.yul\":22375:22396   */\n      or\n        /* \"#utility.yul\":22367:22396   */\n      swap1\n      pop\n        /* \"#utility.yul\":22107:22402   */\n      swap3\n      swap2\n      pop\n      pop\n      jump\t// out\n        /* \"#utility.yul\":22407:23810   */\n    tag_168:\n        /* \"#utility.yul\":22531:22575   */\n      tag_479\n        /* \"#utility.yul\":22571:22574   */\n      dup4\n        /* \"#utility.yul\":22566:22569   */\n      dup4\n        /* \"#utility.yul\":22531:22575   */\n      tag_250\n      jump\t// in\n    tag_479:\n        /* \"#utility.yul\":22640:22658   */\n      0xffffffffffffffff\n        /* \"#utility.yul\":22632:22638   */\n      dup2\n        /* \"#utility.yul\":22629:22659   */\n      gt\n        /* \"#utility.yul\":22626:22682   */\n      iszero\n      tag_480\n      jumpi\n        /* \"#utility.yul\":22662:22680   */\n      tag_481\n      tag_251\n      jump\t// in\n    tag_481:\n        /* \"#utility.yul\":22626:22682   */\n    tag_480:\n        /* \"#utility.yul\":22706:22744   */\n      tag_482\n        /* \"#utility.yul\":22738:22742   */\n      dup3\n        /* \"#utility.yul\":22732:22743   */\n      sload\n        /* \"#utility.yul\":22706:22744   */\n      tag_75\n      jump\t// in\n    tag_482:\n        /* \"#utility.yul\":22791:22858   */\n      tag_483\n        /* \"#utility.yul\":22851:22857   */\n      dup3\n        /* \"#utility.yul\":22843:22849   */\n      dup3\n        /* \"#utility.yul\":22837:22841   */\n      dup6\n        /* \"#utility.yul\":22791:22858   */\n      tag_263\n      jump\t// in\n    tag_483:\n        /* \"#utility.yul\":22885:22886   */\n      0x00\n        /* \"#utility.yul\":22914:22916   */\n      0x1f\n        /* \"#utility.yul\":22906:22912   */\n      dup4\n        /* \"#utility.yul\":22903:22917   */\n      gt\n        /* \"#utility.yul\":22931:22932   */\n      0x01\n        /* \"#utility.yul\":22926:23558   */\n      dup2\n      eq\n      tag_485\n      jumpi\n        /* \"#utility.yul\":23602:23603   */\n      0x00\n        /* \"#utility.yul\":23619:23625   */\n      dup5\n        /* \"#utility.yul\":23616:23700   */\n      iszero\n      tag_486\n      jumpi\n        /* \"#utility.yul\":23675:23684   */\n      dup3\n        /* \"#utility.yul\":23670:23673   */\n      dup8\n        /* \"#utility.yul\":23666:23685   */\n      add\n        /* \"#utility.yul\":23653:23686   */\n      calldataload\n        /* \"#utility.yul\":23644:23686   */\n      swap1\n      pop\n        /* \"#utility.yul\":23616:23700   */\n    tag_486:\n        /* \"#utility.yul\":23726:23793   */\n      tag_487\n        /* \"#utility.yul\":23786:23792   */\n      dup6\n        /* \"#utility.yul\":23779:23784   */\n      dup3\n        /* \"#utility.yul\":23726:23793   */\n      tag_266\n      jump\t// in\n    tag_487:\n        /* \"#utility.yul\":23720:23724   */\n      dup7\n        /* \"#utility.yul\":23713:23794   */\n      sstore\n        /* \"#utility.yul\":23575:23804   */\n      pop\n        /* \"#utility.yul\":22896:23804   */\n      jump(tag_484)\n        /* \"#utility.yul\":22926:23558   */\n    tag_485:\n        /* \"#utility.yul\":22978:22982   */\n      0x1f\n        /* \"#utility.yul\":22974:22983   */\n      not\n        /* \"#utility.yul\":22966:22972   */\n      dup5\n        /* \"#utility.yul\":22962:22984   */\n      and\n        /* \"#utility.yul\":23012:23049   */\n      tag_488\n        /* \"#utility.yul\":23044:23048   */\n      dup7\n        /* \"#utility.yul\":23012:23049   */\n      tag_252\n      jump\t// in\n    tag_488:\n        /* \"#utility.yul\":23071:23072   */\n      0x00\n        /* \"#utility.yul\":23085:23300   */\n    tag_489:\n        /* \"#utility.yul\":23099:23106   */\n      dup3\n        /* \"#utility.yul\":23096:23097   */\n      dup2\n        /* \"#utility.yul\":23093:23107   */\n      lt\n        /* \"#utility.yul\":23085:23300   */\n      iszero\n      tag_491\n      jumpi\n        /* \"#utility.yul\":23185:23194   */\n      dup5\n        /* \"#utility.yul\":23180:23183   */\n      dup10\n        /* \"#utility.yul\":23176:23195   */\n      add\n        /* \"#utility.yul\":23163:23196   */\n      calldataload\n        /* \"#utility.yul\":23155:23161   */\n      dup3\n        /* \"#utility.yul\":23148:23197   */\n      sstore\n        /* \"#utility.yul\":23236:23237   */\n      0x01\n        /* \"#utility.yul\":23228:23234   */\n      dup3\n        /* \"#utility.yul\":23224:23238   */\n      add\n        /* \"#utility.yul\":23214:23238   */\n      swap2\n      pop\n        /* \"#utility.yul\":23283:23285   */\n      0x20\n        /* \"#utility.yul\":23272:23281   */\n      dup6\n        /* \"#utility.yul\":23268:23286   */\n      add\n        /* \"#utility.yul\":23255:23286   */\n      swap5\n      pop\n        /* \"#utility.yul\":23122:23126   */\n      0x20\n        /* \"#utility.yul\":23119:23120   */\n      dup2\n        /* \"#utility.yul\":23115:23127   */\n      add\n        /* \"#utility.yul\":23110:23127   */\n      swap1\n      pop\n        /* \"#utility.yul\":23085:23300   */\n      jump(tag_489)\n    tag_491:\n        /* \"#utility.yul\":23328:23334   */\n      dup7\n        /* \"#utility.yul\":23319:23326   */\n      dup4\n        /* \"#utility.yul\":23316:23335   */\n      lt\n        /* \"#utility.yul\":23313:23499   */\n      iszero\n      tag_492\n      jumpi\n        /* \"#utility.yul\":23393:23402   */\n      dup5\n        /* \"#utility.yul\":23388:23391   */\n      dup10\n        /* \"#utility.yul\":23384:23403   */\n      add\n        /* \"#utility.yul\":23371:23404   */\n      calldataload\n        /* \"#utility.yul\":23436:23484   */\n      tag_493\n        /* \"#utility.yul\":23478:23482   */\n      0x1f\n        /* \"#utility.yul\":23470:23476   */\n      dup10\n        /* \"#utility.yul\":23466:23483   */\n      and\n        /* \"#utility.yul\":23455:23464   */\n      dup3\n        /* \"#utility.yul\":23436:23484   */\n      tag_265\n      jump\t// in\n    tag_493:\n        /* \"#utility.yul\":23428:23434   */\n      dup4\n        /* \"#utility.yul\":23421:23485   */\n      sstore\n        /* \"#utility.yul\":23336:23499   */\n      pop\n        /* \"#utility.yul\":23313:23499   */\n    tag_492:\n        /* \"#utility.yul\":23545:23546   */\n      0x01\n        /* \"#utility.yul\":23541:23542   */\n      0x02\n        /* \"#utility.yul\":23533:23539   */\n      dup9\n        /* \"#utility.yul\":23529:23543   */\n      mul\n        /* \"#utility.yul\":23525:23547   */\n      add\n        /* \"#utility.yul\":23519:23523   */\n      dup9\n        /* \"#utility.yul\":23512:23548   */\n      sstore\n        /* \"#utility.yul\":22933:23558   */\n      pop\n      pop\n      pop\n        /* \"#utility.yul\":22896:23804   */\n    tag_484:\n      pop\n        /* \"#utility.yul\":22506:23810   */\n      pop\n      pop\n      pop\n        /* \"#utility.yul\":22407:23810   */\n      pop\n      pop\n      pop\n      jump\t// out\n        /* \"#utility.yul\":23816:24007   */\n    tag_171:\n        /* \"#utility.yul\":23856:23859   */\n      0x00\n        /* \"#utility.yul\":23875:23895   */\n      tag_495\n        /* \"#utility.yul\":23893:23894   */\n      dup3\n        /* \"#utility.yul\":23875:23895   */\n      tag_217\n      jump\t// in\n    tag_495:\n        /* \"#utility.yul\":23870:23895   */\n      swap2\n      pop\n        /* \"#utility.yul\":23909:23929   */\n      tag_496\n        /* \"#utility.yul\":23927:23928   */\n      dup4\n        /* \"#utility.yul\":23909:23929   */\n      tag_217\n      jump\t// in\n    tag_496:\n        /* \"#utility.yul\":23904:23929   */\n      swap3\n      pop\n        /* \"#utility.yul\":23952:23953   */\n      dup3\n        /* \"#utility.yul\":23949:23950   */\n      dup3\n        /* \"#utility.yul\":23945:23954   */\n      add\n        /* \"#utility.yul\":23938:23954   */\n      swap1\n      pop\n        /* \"#utility.yul\":23973:23976   */\n      dup1\n        /* \"#utility.yul\":23970:23971   */\n      dup3\n        /* \"#utility.yul\":23967:23977   */\n      gt\n        /* \"#utility.yul\":23964:24000   */\n      iszero\n      tag_497\n      jumpi\n        /* \"#utility.yul\":23980:23998   */\n      tag_498\n      tag_237\n      jump\t// in\n    tag_498:\n        /* \"#utility.yul\":23964:24000   */\n    tag_497:\n        /* \"#utility.yul\":23816:24007   */\n      swap3\n      swap2\n      pop\n      pop\n      jump\t// out\n        /* \"#utility.yul\":24013:24207   */\n    tag_182:\n        /* \"#utility.yul\":24053:24057   */\n      0x00\n        /* \"#utility.yul\":24073:24093   */\n      tag_500\n        /* \"#utility.yul\":24091:24092   */\n      dup3\n        /* \"#utility.yul\":24073:24093   */\n      tag_217\n      jump\t// in\n    tag_500:\n        /* \"#utility.yul\":24068:24093   */\n      swap2\n      pop\n        /* \"#utility.yul\":24107:24127   */\n      tag_501\n        /* \"#utility.yul\":24125:24126   */\n      dup4\n        /* \"#utility.yul\":24107:24127   */\n      tag_217\n      jump\t// in\n    tag_501:\n        /* \"#utility.yul\":24102:24127   */\n      swap3\n      pop\n        /* \"#utility.yul\":24151:24152   */\n      dup3\n        /* \"#utility.yul\":24148:24149   */\n      dup3\n        /* \"#utility.yul\":24144:24153   */\n      sub\n        /* \"#utility.yul\":24136:24153   */\n      swap1\n      pop\n        /* \"#utility.yul\":24175:24176   */\n      dup2\n        /* \"#utility.yul\":24169:24173   */\n      dup2\n        /* \"#utility.yul\":24166:24177   */\n      gt\n        /* \"#utility.yul\":24163:24200   */\n      iszero\n      tag_502\n      jumpi\n        /* \"#utility.yul\":24180:24198   */\n      tag_503\n      tag_237\n      jump\t// in\n    tag_503:\n        /* \"#utility.yul\":24163:24200   */\n    tag_502:\n        /* \"#utility.yul\":24013:24207   */\n      swap3\n      swap2\n      pop\n      pop\n      jump\t// out\n        /* \"#utility.yul\":24213:24393   */\n    tag_191:\n        /* \"#utility.yul\":24261:24338   */\n      0x4e487b7100000000000000000000000000000000000000000000000000000000\n        /* \"#utility.yul\":24258:24259   */\n      0x00\n        /* \"#utility.yul\":24251:24339   */\n      mstore\n        /* \"#utility.yul\":24358:24362   */\n      0x31\n        /* \"#utility.yul\":24355:24356   */\n      0x04\n        /* \"#utility.yul\":24348:24363   */\n      mstore\n        /* \"#utility.yul\":24382:24386   */\n      0x24\n        /* \"#utility.yul\":24379:24380   */\n      0x00\n        /* \"#utility.yul\":24372:24387   */\n      revert\n\n    auxdata: 0xa2646970667358221220d464dd6bdc23155d705a76f87ec24b4d9f3bd727767c6a4860818427e9db674a64736f6c63430008110033\n}\n","bytecode":{"linkReferences":{},"object":"60a06040523480156200001157600080fd5b50604051620023b4380380620023b4833981810160405281019062000037919062000160565b82600660006101000a81548173ffffffffffffffffffffffffffffffffffffffff021916908373ffffffffffffffffffffffffffffffffffffffff1602179055508173ffffffffffffffffffffffffffffffffffffffff1660808173ffffffffffffffffffffffffffffffffffffffff168152505080600760006101000a81548173ffffffffffffffffffffffffffffffffffffffff021916908373ffffffffffffffffffffffffffffffffffffffff160217905550505050620001bc565b600080fd5b600073ffffffffffffffffffffffffffffffffffffffff82169050919050565b60006200012882620000fb565b9050919050565b6200013a816200011b565b81146200014657600080fd5b50565b6000815190506200015a816200012f565b92915050565b6000806000606084860312156200017c576200017b620000f6565b5b60006200018c8682870162000149565b93505060206200019f8682870162000149565b9250506040620001b28682870162000149565b9150509250925092565b6080516121dc620001d86000396000610fcb01526121dc6000f3fe6080604052600436106100905760003560e01c80638c468cd4116100595780638c468cd414610178578063930235b4146101b5578063b672bdcb146101e0578063d9a875351461021d578063fd5919021461025a57610090565b8062ad808f146100955780631292a282146100d2578063273f868e146100fb57806328f4694c14610124578063455772d21461014d575b600080fd5b3480156100a157600080fd5b506100bc60048036038101906100b79190611540565b610276565b6040516100c991906115fd565b60405180910390f35b3480156100de57600080fd5b506100f960048036038101906100f49190611540565b610448565b005b34801561010757600080fd5b50610122600480360381019061011d9190611540565b61063c565b005b34801561013057600080fd5b5061014b60048036038101906101469190611540565b610860565b005b34801561015957600080fd5b50610162610c3e565b60405161016f91906116dd565b60405180910390f35b34801561018457600080fd5b5061019f600480360381019061019a9190611735565b610dcd565b6040516101ac9190611771565b60405180910390f35b3480156101c157600080fd5b506101ca610e0c565b6040516101d79190611771565b60405180910390f35b3480156101ec57600080fd5b5061020760048036038101906102029190611540565b610e32565b604051610214919061179b565b60405180910390f35b34801561022957600080fd5b50610244600480360381019061023f9190611540565b610e7b565b604051610251919061179b565b60405180910390f35b610274600480360381019061026f919061181b565b610ec7565b005b606033600660009054906101000a900473ffffffffffffffffffffffffffffffffffffffff1673ffffffffffffffffffffffffffffffffffffffff166339ac7a0882600760009054906101000a900473ffffffffffffffffffffffffffffffffffffffff166040518363ffffffff1660e01b81526004016102f8929190611868565b602060405180830381865afa158015610315573d6000803e3d6000fd5b505050506040513d601f19601f8201168201806040525081019061033991906118c9565b610378576040517f08c379a000000000000000000000000000000000000000000000000000000000815260040161036f90611942565b60405180910390fd5b600460008473ffffffffffffffffffffffffffffffffffffffff1673ffffffffffffffffffffffffffffffffffffffff16815260200190815260200160002080546103c290611991565b80601f01602080910402602001604051908101604052809291908181526020018280546103ee90611991565b801561043b5780601f106104105761010080835404028352916020019161043b565b820191906000526020600020905b81548152906001019060200180831161041e57829003601f168201915b5050505050915050919050565b33600760009054906101000a900473ffffffffffffffffffffffffffffffffffffffff1673ffffffffffffffffffffffffffffffffffffffff168173ffffffffffffffffffffffffffffffffffffffff16146104d9576040517f08c379a00000000000000000000000000000000000000000000000000000000081526004016104d090611a0e565b60405180910390fd5b600760009054906101000a900473ffffffffffffffffffffffffffffffffffffffff1673ffffffffffffffffffffffffffffffffffffffff163373ffffffffffffffffffffffffffffffffffffffff161461053357600080fd5b600660009054906101000a900473ffffffffffffffffffffffffffffffffffffffff1673ffffffffffffffffffffffffffffffffffffffff16639d58b15d600760009054906101000a900473ffffffffffffffffffffffffffffffffffffffff16846040518363ffffffff1660e01b81526004016105b2929190611868565b600060405180830381600087803b1580156105cc57600080fd5b505af11580156105e0573d6000803e3d6000fd5b505050506105ed8261130e565b600160003373ffffffffffffffffffffffffffffffffffffffff1673ffffffffffffffffffffffffffffffffffffffff1681526020019081526020016000206000610638919061149a565b5050565b33600760009054906101000a900473ffffffffffffffffffffffffffffffffffffffff1673ffffffffffffffffffffffffffffffffffffffff168173ffffffffffffffffffffffffffffffffffffffff16146106cd576040517f08c379a00000000000000000000000000000000000000000000000000000000081526004016106c490611a0e565b60405180910390fd5b600360008373ffffffffffffffffffffffffffffffffffffffff1673ffffffffffffffffffffffffffffffffffffffff16815260200190815260200160002060009054906101000a900460ff16610759576040517f08c379a000000000000000000000000000000000000000000000000000000000815260040161075090611a7a565b60405180910390fd5b6000600360008473ffffffffffffffffffffffffffffffffffffffff1673ffffffffffffffffffffffffffffffffffffffff16815260200190815260200160002060006101000a81548160ff0219169083151502179055506001600260003373ffffffffffffffffffffffffffffffffffffffff1673ffffffffffffffffffffffffffffffffffffffff16815260200190815260200160002060008282546108019190611ad3565b925050819055506108118261130e565b600160003373ffffffffffffffffffffffffffffffffffffffff1673ffffffffffffffffffffffffffffffffffffffff168152602001908152602001600020600061085c919061149a565b5050565b33600660009054906101000a900473ffffffffffffffffffffffffffffffffffffffff1673ffffffffffffffffffffffffffffffffffffffff166339ac7a0882600760009054906101000a900473ffffffffffffffffffffffffffffffffffffffff166040518363ffffffff1660e01b81526004016108e0929190611868565b602060405180830381865afa1580156108fd573d6000803e3d6000fd5b505050506040513d601f19601f8201168201806040525081019061092191906118c9565b610960576040517f08c379a000000000000000000000000000000000000000000000000000000000815260040161095790611942565b60405180910390fd5b600360008373ffffffffffffffffffffffffffffffffffffffff1673ffffffffffffffffffffffffffffffffffffffff16815260200190815260200160002060009054906101000a900460ff166109ec576040517f08c379a00000000000000000000000000000000000000000000000000000000081526004016109e390611b62565b60405180910390fd5b6000805b600160008573ffffffffffffffffffffffffffffffffffffffff1673ffffffffffffffffffffffffffffffffffffffff16815260200190815260200160002080549050811015610b00573373ffffffffffffffffffffffffffffffffffffffff16600160008673ffffffffffffffffffffffffffffffffffffffff1673ffffffffffffffffffffffffffffffffffffffff1681526020019081526020016000208281548110610aa257610aa1611b82565b5b9060005260206000200160009054906101000a900473ffffffffffffffffffffffffffffffffffffffff1673ffffffffffffffffffffffffffffffffffffffff1603610aed57600191505b8080610af890611bb1565b9150506109f0565b508015610b42576040517f08c379a0000000000000000000000000000000000000000000000000000000008152600401610b3990611c45565b60405180910390fd5b600160008473ffffffffffffffffffffffffffffffffffffffff1673ffffffffffffffffffffffffffffffffffffffff168152602001908152602001600020339080600181540180825580915050600190039060005260206000200160009091909190916101000a81548173ffffffffffffffffffffffffffffffffffffffff021916908373ffffffffffffffffffffffffffffffffffffffff1602179055506001600260008573ffffffffffffffffffffffffffffffffffffffff1673ffffffffffffffffffffffffffffffffffffffff1681526020019081526020016000206000828254610c329190611c65565b92505081905550505050565b606033600660009054906101000a900473ffffffffffffffffffffffffffffffffffffffff1673ffffffffffffffffffffffffffffffffffffffff166339ac7a0882600760009054906101000a900473ffffffffffffffffffffffffffffffffffffffff166040518363ffffffff1660e01b8152600401610cc0929190611868565b602060405180830381865afa158015610cdd573d6000803e3d6000fd5b505050506040513d601f19601f82011682018060405250810190610d0191906118c9565b610d40576040517f08c379a0000000000000000000000000000000000000000000000000000000008152600401610d3790611942565b60405180910390fd5b6000805480602002602001604051908101604052809291908181526020018280548015610dc257602002820191906000526020600020905b8160009054906101000a900473ffffffffffffffffffffffffffffffffffffffff1673ffffffffffffffffffffffffffffffffffffffff1681526020019060010190808311610d78575b505050505091505090565b60008181548110610ddd57600080fd5b906000526020600020016000915054906101000a900473ffffffffffffffffffffffffffffffffffffffff1681565b600760009054906101000a900473ffffffffffffffffffffffffffffffffffffffff1681565b6000600560008373ffffffffffffffffffffffffffffffffffffffff1673ffffffffffffffffffffffffffffffffffffffff168152602001908152602001600020549050919050565b6000600160008373ffffffffffffffffffffffffffffffffffffffff1673ffffffffffffffffffffffffffffffffffffffff168152602001908152602001600020805490509050919050565b600660009054906101000a900473ffffffffffffffffffffffffffffffffffffffff1673ffffffffffffffffffffffffffffffffffffffff166339ac7a0833600760009054906101000a900473ffffffffffffffffffffffffffffffffffffffff166040518363ffffffff1660e01b8152600401610f46929190611868565b602060405180830381865afa158015610f63573d6000803e3d6000fd5b505050506040513d601f19601f82011682018060405250810190610f8791906118c9565b15610fc7576040517f08c379a0000000000000000000000000000000000000000000000000000000008152600401610fbe90611cf5565b60405180910390fd5b60007f0000000000000000000000000000000000000000000000000000000000000000905060008173ffffffffffffffffffffffffffffffffffffffff16638387271c33600760009054906101000a900473ffffffffffffffffffffffffffffffffffffffff166040518363ffffffff1660e01b815260040161104b929190611868565b602060405180830381865afa158015611068573d6000803e3d6000fd5b505050506040513d601f19601f8201168201806040525081019061108c91906118c9565b905060011515811515146110d5576040517f08c379a00000000000000000000000000000000000000000000000000000000081526004016110cc90611d61565b60405180910390fd5b600360003373ffffffffffffffffffffffffffffffffffffffff1673ffffffffffffffffffffffffffffffffffffffff16815260200190815260200160002060009054906101000a900460ff1615611162576040517f08c379a000000000000000000000000000000000000000000000000000000000815260040161115990611dcd565b60405180910390fd5b7ffffffffffffffffffffffffffffffffffffffffffffffffffffffffffffffffd600260003373ffffffffffffffffffffffffffffffffffffffff1673ffffffffffffffffffffffffffffffffffffffff1681526020019081526020016000205413611203576040517f08c379a00000000000000000000000000000000000000000000000000000000081526004016111fa90611e39565b60405180910390fd5b8383600460003373ffffffffffffffffffffffffffffffffffffffff1673ffffffffffffffffffffffffffffffffffffffff168152602001908152602001600020918261125192919061203f565b506000339080600181540180825580915050600190039060005260206000200160009091909190916101000a81548173ffffffffffffffffffffffffffffffffffffffff021916908373ffffffffffffffffffffffffffffffffffffffff160217905550630f731400426112c5919061210f565b600560003373ffffffffffffffffffffffffffffffffffffffff1673ffffffffffffffffffffffffffffffffffffffff1681526020019081526020016000208190555050505050565b60005b6000805490508110156113a3578173ffffffffffffffffffffffffffffffffffffffff166000828154811061134957611348611b82565b5b9060005260206000200160009054906101000a900473ffffffffffffffffffffffffffffffffffffffff1673ffffffffffffffffffffffffffffffffffffffff1603156113a357808061139b90611bb1565b915050611311565b600060016000805490506113b79190612143565b815481106113c8576113c7611b82565b5b9060005260206000200160009054906101000a900473ffffffffffffffffffffffffffffffffffffffff166000828154811061140757611406611b82565b5b9060005260206000200160006101000a81548173ffffffffffffffffffffffffffffffffffffffff021916908373ffffffffffffffffffffffffffffffffffffffff160217905550600080548061146157611460612177565b5b6001900381819060005260206000200160006101000a81549073ffffffffffffffffffffffffffffffffffffffff021916905590555050565b50805460008255906000526020600020908101906114b891906114bb565b50565b5b808211156114d45760008160009055506001016114bc565b5090565b600080fd5b600080fd5b600073ffffffffffffffffffffffffffffffffffffffff82169050919050565b600061150d826114e2565b9050919050565b61151d81611502565b811461152857600080fd5b50565b60008135905061153a81611514565b92915050565b600060208284031215611556576115556114d8565b5b60006115648482850161152b565b91505092915050565b600081519050919050565b600082825260208201905092915050565b60005b838110156115a757808201518184015260208101905061158c565b60008484015250505050565b6000601f19601f8301169050919050565b60006115cf8261156d565b6115d98185611578565b93506115e9818560208601611589565b6115f2816115b3565b840191505092915050565b6000602082019050818103600083015261161781846115c4565b905092915050565b600081519050919050565b600082825260208201905092915050565b6000819050602082019050919050565b61165481611502565b82525050565b6000611666838361164b565b60208301905092915050565b6000602082019050919050565b600061168a8261161f565b611694818561162a565b935061169f8361163b565b8060005b838110156116d05781516116b7888261165a565b97506116c283611672565b9250506001810190506116a3565b5085935050505092915050565b600060208201905081810360008301526116f7818461167f565b905092915050565b6000819050919050565b611712816116ff565b811461171d57600080fd5b50565b60008135905061172f81611709565b92915050565b60006020828403121561174b5761174a6114d8565b5b600061175984828501611720565b91505092915050565b61176b81611502565b82525050565b60006020820190506117866000830184611762565b92915050565b611795816116ff565b82525050565b60006020820190506117b0600083018461178c565b92915050565b600080fd5b600080fd5b600080fd5b60008083601f8401126117db576117da6117b6565b5b8235905067ffffffffffffffff8111156117f8576117f76117bb565b5b602083019150836001820283011115611814576118136117c0565b5b9250929050565b60008060208385031215611832576118316114d8565b5b600083013567ffffffffffffffff8111156118505761184f6114dd565b5b61185c858286016117c5565b92509250509250929050565b600060408201905061187d6000830185611762565b61188a6020830184611762565b9392505050565b60008115159050919050565b6118a681611891565b81146118b157600080fd5b50565b6000815190506118c38161189d565b92915050565b6000602082840312156118df576118de6114d8565b5b60006118ed848285016118b4565b91505092915050565b7f526571756972656420746f2062652061206d656d656265720000000000000000600082015250565b600061192c601883611578565b9150611937826118f6565b602082019050919050565b6000602082019050818103600083015261195b8161191f565b9050919050565b7f4e487b7100000000000000000000000000000000000000000000000000000000600052602260045260246000fd5b600060028204905060018216806119a957607f821691505b6020821081036119bc576119bb611962565b5b50919050565b7f4163636573732044656e69656400000000000000000000000000000000000000600082015250565b60006119f8600d83611578565b9150611a03826119c2565b602082019050919050565b60006020820190508181036000830152611a27816119eb565b9050919050565b7f496e76616c6964206170706c6963616e74206164647265737300000000000000600082015250565b6000611a64601983611578565b9150611a6f82611a2e565b602082019050919050565b60006020820190508181036000830152611a9381611a57565b9050919050565b6000819050919050565b7f4e487b7100000000000000000000000000000000000000000000000000000000600052601160045260246000fd5b6000611ade82611a9a565b9150611ae983611a9a565b9250828203905081811260008412168282136000851215161715611b1057611b0f611aa4565b5b92915050565b7f4e6f742061206170706c6963616e740000000000000000000000000000000000600082015250565b6000611b4c600f83611578565b9150611b5782611b16565b602082019050919050565b60006020820190508181036000830152611b7b81611b3f565b9050919050565b7f4e487b7100000000000000000000000000000000000000000000000000000000600052603260045260246000fd5b6000611bbc826116ff565b91507fffffffffffffffffffffffffffffffffffffffffffffffffffffffffffffffff8203611bee57611bed611aa4565b5b600182019050919050565b7f53656e64657220616c726561647920766f746564000000000000000000000000600082015250565b6000611c2f601483611578565b9150611c3a82611bf9565b602082019050919050565b60006020820190508181036000830152611c5e81611c22565b9050919050565b6000611c7082611a9a565b9150611c7b83611a9a565b925082820190508281121560008312168382126000841215161715611ca357611ca2611aa4565b5b92915050565b7f416c726561647920616374697665206d656d6265720000000000000000000000600082015250565b6000611cdf601583611578565b9150611cea82611ca9565b602082019050919050565b60006020820190508181036000830152611d0e81611cd2565b9050919050565b7f4e6577204170706c6963616e7420466565205265717569726564000000000000600082015250565b6000611d4b601a83611578565b9150611d5682611d15565b602082019050919050565b60006020820190508181036000830152611d7a81611d3e565b9050919050565b7f416c726561647920616374697665206170706c6963616e740000000000000000600082015250565b6000611db7601883611578565b9150611dc282611d81565b602082019050919050565b60006020820190508181036000830152611de681611daa565b9050919050565b7f6163636f756e742072656a656374656400000000000000000000000000000000600082015250565b6000611e23601083611578565b9150611e2e82611ded565b602082019050919050565b60006020820190508181036000830152611e5281611e16565b9050919050565b600082905092915050565b7f4e487b7100000000000000000000000000000000000000000000000000000000600052604160045260246000fd5b60008190508160005260206000209050919050565b60006020601f8301049050919050565b600082821b905092915050565b600060088302611ef57fffffffffffffffffffffffffffffffffffffffffffffffffffffffffffffffff82611eb8565b611eff8683611eb8565b95508019841693508086168417925050509392505050565b6000819050919050565b6000611f3c611f37611f32846116ff565b611f17565b6116ff565b9050919050565b6000819050919050565b611f5683611f21565b611f6a611f6282611f43565b848454611ec5565b825550505050565b600090565b611f7f611f72565b611f8a818484611f4d565b505050565b5b81811015611fae57611fa3600082611f77565b600181019050611f90565b5050565b601f821115611ff357611fc481611e93565b611fcd84611ea8565b81016020851015611fdc578190505b611ff0611fe885611ea8565b830182611f8f565b50505b505050565b600082821c905092915050565b600061201660001984600802611ff8565b1980831691505092915050565b600061202f8383612005565b9150826002028217905092915050565b6120498383611e59565b67ffffffffffffffff81111561206257612061611e64565b5b61206c8254611991565b612077828285611fb2565b6000601f8311600181146120a65760008415612094578287013590505b61209e8582612023565b865550612106565b601f1984166120b486611e93565b60005b828110156120dc578489013582556001820191506020850194506020810190506120b7565b868310156120f957848901356120f5601f891682612005565b8355505b6001600288020188555050505b50505050505050565b600061211a826116ff565b9150612125836116ff565b925082820190508082111561213d5761213c611aa4565b5b92915050565b600061214e826116ff565b9150612159836116ff565b925082820390508181111561217157612170611aa4565b5b92915050565b7f4e487b7100000000000000000000000000000000000000000000000000000000600052603160045260246000fdfea2646970667358221220d464dd6bdc23155d705a76f87ec24b4d9f3bd727767c6a4860818427e9db674a64736f6c63430008110033","opcodes":"PUSH1 0xA0 PUSH1 0x40 MSTORE CALLVALUE DUP1 ISZERO PUSH3 0x11 JUMPI PUSH1 0x0 DUP1 REVERT JUMPDEST POP PUSH1 0x40 MLOAD PUSH3 0x23B4 CODESIZE SUB DUP1 PUSH3 0x23B4 DUP4 CODECOPY DUP2 DUP2 ADD PUSH1 0x40 MSTORE DUP2 ADD SWAP1 PUSH3 0x37 SWAP2 SWAP1 PUSH3 0x160 JUMP JUMPDEST DUP3 PUSH1 0x6 PUSH1 0x0 PUSH2 0x100 EXP DUP2 SLOAD DUP2 PUSH20 0xFFFFFFFFFFFFFFFFFFFFFFFFFFFFFFFFFFFFFFFF MUL NOT AND SWAP1 DUP4 PUSH20 0xFFFFFFFFFFFFFFFFFFFFFFFFFFFFFFFFFFFFFFFF AND MUL OR SWAP1 SSTORE POP DUP2 PUSH20 0xFFFFFFFFFFFFFFFFFFFFFFFFFFFFFFFFFFFFFFFF AND PUSH1 0x80 DUP2 PUSH20 0xFFFFFFFFFFFFFFFFFFFFFFFFFFFFFFFFFFFFFFFF AND DUP2 MSTORE POP POP DUP1 PUSH1 0x7 PUSH1 0x0 PUSH2 0x100 EXP DUP2 SLOAD DUP2 PUSH20 0xFFFFFFFFFFFFFFFFFFFFFFFFFFFFFFFFFFFFFFFF MUL NOT AND SWAP1 DUP4 PUSH20 0xFFFFFFFFFFFFFFFFFFFFFFFFFFFFFFFFFFFFFFFF AND MUL OR SWAP1 SSTORE POP POP POP POP PUSH3 0x1BC JUMP JUMPDEST PUSH1 0x0 DUP1 REVERT JUMPDEST PUSH1 0x0 PUSH20 0xFFFFFFFFFFFFFFFFFFFFFFFFFFFFFFFFFFFFFFFF DUP3 AND SWAP1 POP SWAP2 SWAP1 POP JUMP JUMPDEST PUSH1 0x0 PUSH3 0x128 DUP3 PUSH3 0xFB JUMP JUMPDEST SWAP1 POP SWAP2 SWAP1 POP JUMP JUMPDEST PUSH3 0x13A DUP2 PUSH3 0x11B JUMP JUMPDEST DUP2 EQ PUSH3 0x146 JUMPI PUSH1 0x0 DUP1 REVERT JUMPDEST POP JUMP JUMPDEST PUSH1 0x0 DUP2 MLOAD SWAP1 POP PUSH3 0x15A DUP2 PUSH3 0x12F JUMP JUMPDEST SWAP3 SWAP2 POP POP JUMP JUMPDEST PUSH1 0x0 DUP1 PUSH1 0x0 PUSH1 0x60 DUP5 DUP7 SUB SLT ISZERO PUSH3 0x17C JUMPI PUSH3 0x17B PUSH3 0xF6 JUMP JUMPDEST JUMPDEST PUSH1 0x0 PUSH3 0x18C DUP7 DUP3 DUP8 ADD PUSH3 0x149 JUMP JUMPDEST SWAP4 POP POP PUSH1 0x20 PUSH3 0x19F DUP7 DUP3 DUP8 ADD PUSH3 0x149 JUMP JUMPDEST SWAP3 POP POP PUSH1 0x40 PUSH3 0x1B2 DUP7 DUP3 DUP8 ADD PUSH3 0x149 JUMP JUMPDEST SWAP2 POP POP SWAP3 POP SWAP3 POP SWAP3 JUMP JUMPDEST PUSH1 0x80 MLOAD PUSH2 0x21DC PUSH3 0x1D8 PUSH1 0x0 CODECOPY PUSH1 0x0 PUSH2 0xFCB ADD MSTORE PUSH2 0x21DC PUSH1 0x0 RETURN INVALID PUSH1 0x80 PUSH1 0x40 MSTORE PUSH1 0x4 CALLDATASIZE LT PUSH2 0x90 JUMPI PUSH1 0x0 CALLDATALOAD PUSH1 0xE0 SHR DUP1 PUSH4 0x8C468CD4 GT PUSH2 0x59 JUMPI DUP1 PUSH4 0x8C468CD4 EQ PUSH2 0x178 JUMPI DUP1 PUSH4 0x930235B4 EQ PUSH2 0x1B5 JUMPI DUP1 PUSH4 0xB672BDCB EQ PUSH2 0x1E0 JUMPI DUP1 PUSH4 0xD9A87535 EQ PUSH2 0x21D JUMPI DUP1 PUSH4 0xFD591902 EQ PUSH2 0x25A JUMPI PUSH2 0x90 JUMP JUMPDEST DUP1 PUSH3 0xAD808F EQ PUSH2 0x95 JUMPI DUP1 PUSH4 0x1292A282 EQ PUSH2 0xD2 JUMPI DUP1 PUSH4 0x273F868E EQ PUSH2 0xFB JUMPI DUP1 PUSH4 0x28F4694C EQ PUSH2 0x124 JUMPI DUP1 PUSH4 0x455772D2 EQ PUSH2 0x14D JUMPI JUMPDEST PUSH1 0x0 DUP1 REVERT JUMPDEST CALLVALUE DUP1 ISZERO PUSH2 0xA1 JUMPI PUSH1 0x0 DUP1 REVERT JUMPDEST POP PUSH2 0xBC PUSH1 0x4 DUP1 CALLDATASIZE SUB DUP2 ADD SWAP1 PUSH2 0xB7 SWAP2 SWAP1 PUSH2 0x1540 JUMP JUMPDEST PUSH2 0x276 JUMP JUMPDEST PUSH1 0x40 MLOAD PUSH2 0xC9 SWAP2 SWAP1 PUSH2 0x15FD JUMP JUMPDEST PUSH1 0x40 MLOAD DUP1 SWAP2 SUB SWAP1 RETURN JUMPDEST CALLVALUE DUP1 ISZERO PUSH2 0xDE JUMPI PUSH1 0x0 DUP1 REVERT JUMPDEST POP PUSH2 0xF9 PUSH1 0x4 DUP1 CALLDATASIZE SUB DUP2 ADD SWAP1 PUSH2 0xF4 SWAP2 SWAP1 PUSH2 0x1540 JUMP JUMPDEST PUSH2 0x448 JUMP JUMPDEST STOP JUMPDEST CALLVALUE DUP1 ISZERO PUSH2 0x107 JUMPI PUSH1 0x0 DUP1 REVERT JUMPDEST POP PUSH2 0x122 PUSH1 0x4 DUP1 CALLDATASIZE SUB DUP2 ADD SWAP1 PUSH2 0x11D SWAP2 SWAP1 PUSH2 0x1540 JUMP JUMPDEST PUSH2 0x63C JUMP JUMPDEST STOP JUMPDEST CALLVALUE DUP1 ISZERO PUSH2 0x130 JUMPI PUSH1 0x0 DUP1 REVERT JUMPDEST POP PUSH2 0x14B PUSH1 0x4 DUP1 CALLDATASIZE SUB DUP2 ADD SWAP1 PUSH2 0x146 SWAP2 SWAP1 PUSH2 0x1540 JUMP JUMPDEST PUSH2 0x860 JUMP JUMPDEST STOP JUMPDEST CALLVALUE DUP1 ISZERO PUSH2 0x159 JUMPI PUSH1 0x0 DUP1 REVERT JUMPDEST POP PUSH2 0x162 PUSH2 0xC3E JUMP JUMPDEST PUSH1 0x40 MLOAD PUSH2 0x16F SWAP2 SWAP1 PUSH2 0x16DD JUMP JUMPDEST PUSH1 0x40 MLOAD DUP1 SWAP2 SUB SWAP1 RETURN JUMPDEST CALLVALUE DUP1 ISZERO PUSH2 0x184 JUMPI PUSH1 0x0 DUP1 REVERT JUMPDEST POP PUSH2 0x19F PUSH1 0x4 DUP1 CALLDATASIZE SUB DUP2 ADD SWAP1 PUSH2 0x19A SWAP2 SWAP1 PUSH2 0x1735 JUMP JUMPDEST PUSH2 0xDCD JUMP JUMPDEST PUSH1 0x40 MLOAD PUSH2 0x1AC SWAP2 SWAP1 PUSH2 0x1771 JUMP JUMPDEST PUSH1 0x40 MLOAD DUP1 SWAP2 SUB SWAP1 RETURN JUMPDEST CALLVALUE DUP1 ISZERO PUSH2 0x1C1 JUMPI PUSH1 0x0 DUP1 REVERT JUMPDEST POP PUSH2 0x1CA PUSH2 0xE0C JUMP JUMPDEST PUSH1 0x40 MLOAD PUSH2 0x1D7 SWAP2 SWAP1 PUSH2 0x1771 JUMP JUMPDEST PUSH1 0x40 MLOAD DUP1 SWAP2 SUB SWAP1 RETURN JUMPDEST CALLVALUE DUP1 ISZERO PUSH2 0x1EC JUMPI PUSH1 0x0 DUP1 REVERT JUMPDEST POP PUSH2 0x207 PUSH1 0x4 DUP1 CALLDATASIZE SUB DUP2 ADD SWAP1 PUSH2 0x202 SWAP2 SWAP1 PUSH2 0x1540 JUMP JUMPDEST PUSH2 0xE32 JUMP JUMPDEST PUSH1 0x40 MLOAD PUSH2 0x214 SWAP2 SWAP1 PUSH2 0x179B JUMP JUMPDEST PUSH1 0x40 MLOAD DUP1 SWAP2 SUB SWAP1 RETURN JUMPDEST CALLVALUE DUP1 ISZERO PUSH2 0x229 JUMPI PUSH1 0x0 DUP1 REVERT JUMPDEST POP PUSH2 0x244 PUSH1 0x4 DUP1 CALLDATASIZE SUB DUP2 ADD SWAP1 PUSH2 0x23F SWAP2 SWAP1 PUSH2 0x1540 JUMP JUMPDEST PUSH2 0xE7B JUMP JUMPDEST PUSH1 0x40 MLOAD PUSH2 0x251 SWAP2 SWAP1 PUSH2 0x179B JUMP JUMPDEST PUSH1 0x40 MLOAD DUP1 SWAP2 SUB SWAP1 RETURN JUMPDEST PUSH2 0x274 PUSH1 0x4 DUP1 CALLDATASIZE SUB DUP2 ADD SWAP1 PUSH2 0x26F SWAP2 SWAP1 PUSH2 0x181B JUMP JUMPDEST PUSH2 0xEC7 JUMP JUMPDEST STOP JUMPDEST PUSH1 0x60 CALLER PUSH1 0x6 PUSH1 0x0 SWAP1 SLOAD SWAP1 PUSH2 0x100 EXP SWAP1 DIV PUSH20 0xFFFFFFFFFFFFFFFFFFFFFFFFFFFFFFFFFFFFFFFF AND PUSH20 0xFFFFFFFFFFFFFFFFFFFFFFFFFFFFFFFFFFFFFFFF AND PUSH4 0x39AC7A08 DUP3 PUSH1 0x7 PUSH1 0x0 SWAP1 SLOAD SWAP1 PUSH2 0x100 EXP SWAP1 DIV PUSH20 0xFFFFFFFFFFFFFFFFFFFFFFFFFFFFFFFFFFFFFFFF AND PUSH1 0x40 MLOAD DUP4 PUSH4 0xFFFFFFFF AND PUSH1 0xE0 SHL DUP2 MSTORE PUSH1 0x4 ADD PUSH2 0x2F8 SWAP3 SWAP2 SWAP1 PUSH2 0x1868 JUMP JUMPDEST PUSH1 0x20 PUSH1 0x40 MLOAD DUP1 DUP4 SUB DUP2 DUP7 GAS STATICCALL ISZERO DUP1 ISZERO PUSH2 0x315 JUMPI RETURNDATASIZE PUSH1 0x0 DUP1 RETURNDATACOPY RETURNDATASIZE PUSH1 0x0 REVERT JUMPDEST POP POP POP POP PUSH1 0x40 MLOAD RETURNDATASIZE PUSH1 0x1F NOT PUSH1 0x1F DUP3 ADD AND DUP3 ADD DUP1 PUSH1 0x40 MSTORE POP DUP2 ADD SWAP1 PUSH2 0x339 SWAP2 SWAP1 PUSH2 0x18C9 JUMP JUMPDEST PUSH2 0x378 JUMPI PUSH1 0x40 MLOAD PUSH32 0x8C379A000000000000000000000000000000000000000000000000000000000 DUP2 MSTORE PUSH1 0x4 ADD PUSH2 0x36F SWAP1 PUSH2 0x1942 JUMP JUMPDEST PUSH1 0x40 MLOAD DUP1 SWAP2 SUB SWAP1 REVERT JUMPDEST PUSH1 0x4 PUSH1 0x0 DUP5 PUSH20 0xFFFFFFFFFFFFFFFFFFFFFFFFFFFFFFFFFFFFFFFF AND PUSH20 0xFFFFFFFFFFFFFFFFFFFFFFFFFFFFFFFFFFFFFFFF AND DUP2 MSTORE PUSH1 0x20 ADD SWAP1 DUP2 MSTORE PUSH1 0x20 ADD PUSH1 0x0 KECCAK256 DUP1 SLOAD PUSH2 0x3C2 SWAP1 PUSH2 0x1991 JUMP JUMPDEST DUP1 PUSH1 0x1F ADD PUSH1 0x20 DUP1 SWAP2 DIV MUL PUSH1 0x20 ADD PUSH1 0x40 MLOAD SWAP1 DUP2 ADD PUSH1 0x40 MSTORE DUP1 SWAP3 SWAP2 SWAP1 DUP2 DUP2 MSTORE PUSH1 0x20 ADD DUP3 DUP1 SLOAD PUSH2 0x3EE SWAP1 PUSH2 0x1991 JUMP JUMPDEST DUP1 ISZERO PUSH2 0x43B JUMPI DUP1 PUSH1 0x1F LT PUSH2 0x410 JUMPI PUSH2 0x100 DUP1 DUP4 SLOAD DIV MUL DUP4 MSTORE SWAP2 PUSH1 0x20 ADD SWAP2 PUSH2 0x43B JUMP JUMPDEST DUP3 ADD SWAP2 SWAP1 PUSH1 0x0 MSTORE PUSH1 0x20 PUSH1 0x0 KECCAK256 SWAP1 JUMPDEST DUP2 SLOAD DUP2 MSTORE SWAP1 PUSH1 0x1 ADD SWAP1 PUSH1 0x20 ADD DUP1 DUP4 GT PUSH2 0x41E JUMPI DUP3 SWAP1 SUB PUSH1 0x1F AND DUP3 ADD SWAP2 JUMPDEST POP POP POP POP POP SWAP2 POP POP SWAP2 SWAP1 POP JUMP JUMPDEST CALLER PUSH1 0x7 PUSH1 0x0 SWAP1 SLOAD SWAP1 PUSH2 0x100 EXP SWAP1 DIV PUSH20 0xFFFFFFFFFFFFFFFFFFFFFFFFFFFFFFFFFFFFFFFF AND PUSH20 0xFFFFFFFFFFFFFFFFFFFFFFFFFFFFFFFFFFFFFFFF AND DUP2 PUSH20 0xFFFFFFFFFFFFFFFFFFFFFFFFFFFFFFFFFFFFFFFF AND EQ PUSH2 0x4D9 JUMPI PUSH1 0x40 MLOAD PUSH32 0x8C379A000000000000000000000000000000000000000000000000000000000 DUP2 MSTORE PUSH1 0x4 ADD PUSH2 0x4D0 SWAP1 PUSH2 0x1A0E JUMP JUMPDEST PUSH1 0x40 MLOAD DUP1 SWAP2 SUB SWAP1 REVERT JUMPDEST PUSH1 0x7 PUSH1 0x0 SWAP1 SLOAD SWAP1 PUSH2 0x100 EXP SWAP1 DIV PUSH20 0xFFFFFFFFFFFFFFFFFFFFFFFFFFFFFFFFFFFFFFFF AND PUSH20 0xFFFFFFFFFFFFFFFFFFFFFFFFFFFFFFFFFFFFFFFF AND CALLER PUSH20 0xFFFFFFFFFFFFFFFFFFFFFFFFFFFFFFFFFFFFFFFF AND EQ PUSH2 0x533 JUMPI PUSH1 0x0 DUP1 REVERT JUMPDEST PUSH1 0x6 PUSH1 0x0 SWAP1 SLOAD SWAP1 PUSH2 0x100 EXP SWAP1 DIV PUSH20 0xFFFFFFFFFFFFFFFFFFFFFFFFFFFFFFFFFFFFFFFF AND PUSH20 0xFFFFFFFFFFFFFFFFFFFFFFFFFFFFFFFFFFFFFFFF AND PUSH4 0x9D58B15D PUSH1 0x7 PUSH1 0x0 SWAP1 SLOAD SWAP1 PUSH2 0x100 EXP SWAP1 DIV PUSH20 0xFFFFFFFFFFFFFFFFFFFFFFFFFFFFFFFFFFFFFFFF AND DUP5 PUSH1 0x40 MLOAD DUP4 PUSH4 0xFFFFFFFF AND PUSH1 0xE0 SHL DUP2 MSTORE PUSH1 0x4 ADD PUSH2 0x5B2 SWAP3 SWAP2 SWAP1 PUSH2 0x1868 JUMP JUMPDEST PUSH1 0x0 PUSH1 0x40 MLOAD DUP1 DUP4 SUB DUP2 PUSH1 0x0 DUP8 DUP1 EXTCODESIZE ISZERO DUP1 ISZERO PUSH2 0x5CC JUMPI PUSH1 0x0 DUP1 REVERT JUMPDEST POP GAS CALL ISZERO DUP1 ISZERO PUSH2 0x5E0 JUMPI RETURNDATASIZE PUSH1 0x0 DUP1 RETURNDATACOPY RETURNDATASIZE PUSH1 0x0 REVERT JUMPDEST POP POP POP POP PUSH2 0x5ED DUP3 PUSH2 0x130E JUMP JUMPDEST PUSH1 0x1 PUSH1 0x0 CALLER PUSH20 0xFFFFFFFFFFFFFFFFFFFFFFFFFFFFFFFFFFFFFFFF AND PUSH20 0xFFFFFFFFFFFFFFFFFFFFFFFFFFFFFFFFFFFFFFFF AND DUP2 MSTORE PUSH1 0x20 ADD SWAP1 DUP2 MSTORE PUSH1 0x20 ADD PUSH1 0x0 KECCAK256 PUSH1 0x0 PUSH2 0x638 SWAP2 SWAP1 PUSH2 0x149A JUMP JUMPDEST POP POP JUMP JUMPDEST CALLER PUSH1 0x7 PUSH1 0x0 SWAP1 SLOAD SWAP1 PUSH2 0x100 EXP SWAP1 DIV PUSH20 0xFFFFFFFFFFFFFFFFFFFFFFFFFFFFFFFFFFFFFFFF AND PUSH20 0xFFFFFFFFFFFFFFFFFFFFFFFFFFFFFFFFFFFFFFFF AND DUP2 PUSH20 0xFFFFFFFFFFFFFFFFFFFFFFFFFFFFFFFFFFFFFFFF AND EQ PUSH2 0x6CD JUMPI PUSH1 0x40 MLOAD PUSH32 0x8C379A000000000000000000000000000000000000000000000000000000000 DUP2 MSTORE PUSH1 0x4 ADD PUSH2 0x6C4 SWAP1 PUSH2 0x1A0E JUMP JUMPDEST PUSH1 0x40 MLOAD DUP1 SWAP2 SUB SWAP1 REVERT JUMPDEST PUSH1 0x3 PUSH1 0x0 DUP4 PUSH20 0xFFFFFFFFFFFFFFFFFFFFFFFFFFFFFFFFFFFFFFFF AND PUSH20 0xFFFFFFFFFFFFFFFFFFFFFFFFFFFFFFFFFFFFFFFF AND DUP2 MSTORE PUSH1 0x20 ADD SWAP1 DUP2 MSTORE PUSH1 0x20 ADD PUSH1 0x0 KECCAK256 PUSH1 0x0 SWAP1 SLOAD SWAP1 PUSH2 0x100 EXP SWAP1 DIV PUSH1 0xFF AND PUSH2 0x759 JUMPI PUSH1 0x40 MLOAD PUSH32 0x8C379A000000000000000000000000000000000000000000000000000000000 DUP2 MSTORE PUSH1 0x4 ADD PUSH2 0x750 SWAP1 PUSH2 0x1A7A JUMP JUMPDEST PUSH1 0x40 MLOAD DUP1 SWAP2 SUB SWAP1 REVERT JUMPDEST PUSH1 0x0 PUSH1 0x3 PUSH1 0x0 DUP5 PUSH20 0xFFFFFFFFFFFFFFFFFFFFFFFFFFFFFFFFFFFFFFFF AND PUSH20 0xFFFFFFFFFFFFFFFFFFFFFFFFFFFFFFFFFFFFFFFF AND DUP2 MSTORE PUSH1 0x20 ADD SWAP1 DUP2 MSTORE PUSH1 0x20 ADD PUSH1 0x0 KECCAK256 PUSH1 0x0 PUSH2 0x100 EXP DUP2 SLOAD DUP2 PUSH1 0xFF MUL NOT AND SWAP1 DUP4 ISZERO ISZERO MUL OR SWAP1 SSTORE POP PUSH1 0x1 PUSH1 0x2 PUSH1 0x0 CALLER PUSH20 0xFFFFFFFFFFFFFFFFFFFFFFFFFFFFFFFFFFFFFFFF AND PUSH20 0xFFFFFFFFFFFFFFFFFFFFFFFFFFFFFFFFFFFFFFFF AND DUP2 MSTORE PUSH1 0x20 ADD SWAP1 DUP2 MSTORE PUSH1 0x20 ADD PUSH1 0x0 KECCAK256 PUSH1 0x0 DUP3 DUP3 SLOAD PUSH2 0x801 SWAP2 SWAP1 PUSH2 0x1AD3 JUMP JUMPDEST SWAP3 POP POP DUP2 SWAP1 SSTORE POP PUSH2 0x811 DUP3 PUSH2 0x130E JUMP JUMPDEST PUSH1 0x1 PUSH1 0x0 CALLER PUSH20 0xFFFFFFFFFFFFFFFFFFFFFFFFFFFFFFFFFFFFFFFF AND PUSH20 0xFFFFFFFFFFFFFFFFFFFFFFFFFFFFFFFFFFFFFFFF AND DUP2 MSTORE PUSH1 0x20 ADD SWAP1 DUP2 MSTORE PUSH1 0x20 ADD PUSH1 0x0 KECCAK256 PUSH1 0x0 PUSH2 0x85C SWAP2 SWAP1 PUSH2 0x149A JUMP JUMPDEST POP POP JUMP JUMPDEST CALLER PUSH1 0x6 PUSH1 0x0 SWAP1 SLOAD SWAP1 PUSH2 0x100 EXP SWAP1 DIV PUSH20 0xFFFFFFFFFFFFFFFFFFFFFFFFFFFFFFFFFFFFFFFF AND PUSH20 0xFFFFFFFFFFFFFFFFFFFFFFFFFFFFFFFFFFFFFFFF AND PUSH4 0x39AC7A08 DUP3 PUSH1 0x7 PUSH1 0x0 SWAP1 SLOAD SWAP1 PUSH2 0x100 EXP SWAP1 DIV PUSH20 0xFFFFFFFFFFFFFFFFFFFFFFFFFFFFFFFFFFFFFFFF AND PUSH1 0x40 MLOAD DUP4 PUSH4 0xFFFFFFFF AND PUSH1 0xE0 SHL DUP2 MSTORE PUSH1 0x4 ADD PUSH2 0x8E0 SWAP3 SWAP2 SWAP1 PUSH2 0x1868 JUMP JUMPDEST PUSH1 0x20 PUSH1 0x40 MLOAD DUP1 DUP4 SUB DUP2 DUP7 GAS STATICCALL ISZERO DUP1 ISZERO PUSH2 0x8FD JUMPI RETURNDATASIZE PUSH1 0x0 DUP1 RETURNDATACOPY RETURNDATASIZE PUSH1 0x0 REVERT JUMPDEST POP POP POP POP PUSH1 0x40 MLOAD RETURNDATASIZE PUSH1 0x1F NOT PUSH1 0x1F DUP3 ADD AND DUP3 ADD DUP1 PUSH1 0x40 MSTORE POP DUP2 ADD SWAP1 PUSH2 0x921 SWAP2 SWAP1 PUSH2 0x18C9 JUMP JUMPDEST PUSH2 0x960 JUMPI PUSH1 0x40 MLOAD PUSH32 0x8C379A000000000000000000000000000000000000000000000000000000000 DUP2 MSTORE PUSH1 0x4 ADD PUSH2 0x957 SWAP1 PUSH2 0x1942 JUMP JUMPDEST PUSH1 0x40 MLOAD DUP1 SWAP2 SUB SWAP1 REVERT JUMPDEST PUSH1 0x3 PUSH1 0x0 DUP4 PUSH20 0xFFFFFFFFFFFFFFFFFFFFFFFFFFFFFFFFFFFFFFFF AND PUSH20 0xFFFFFFFFFFFFFFFFFFFFFFFFFFFFFFFFFFFFFFFF AND DUP2 MSTORE PUSH1 0x20 ADD SWAP1 DUP2 MSTORE PUSH1 0x20 ADD PUSH1 0x0 KECCAK256 PUSH1 0x0 SWAP1 SLOAD SWAP1 PUSH2 0x100 EXP SWAP1 DIV PUSH1 0xFF AND PUSH2 0x9EC JUMPI PUSH1 0x40 MLOAD PUSH32 0x8C379A000000000000000000000000000000000000000000000000000000000 DUP2 MSTORE PUSH1 0x4 ADD PUSH2 0x9E3 SWAP1 PUSH2 0x1B62 JUMP JUMPDEST PUSH1 0x40 MLOAD DUP1 SWAP2 SUB SWAP1 REVERT JUMPDEST PUSH1 0x0 DUP1 JUMPDEST PUSH1 0x1 PUSH1 0x0 DUP6 PUSH20 0xFFFFFFFFFFFFFFFFFFFFFFFFFFFFFFFFFFFFFFFF AND PUSH20 0xFFFFFFFFFFFFFFFFFFFFFFFFFFFFFFFFFFFFFFFF AND DUP2 MSTORE PUSH1 0x20 ADD SWAP1 DUP2 MSTORE PUSH1 0x20 ADD PUSH1 0x0 KECCAK256 DUP1 SLOAD SWAP1 POP DUP2 LT ISZERO PUSH2 0xB00 JUMPI CALLER PUSH20 0xFFFFFFFFFFFFFFFFFFFFFFFFFFFFFFFFFFFFFFFF AND PUSH1 0x1 PUSH1 0x0 DUP7 PUSH20 0xFFFFFFFFFFFFFFFFFFFFFFFFFFFFFFFFFFFFFFFF AND PUSH20 0xFFFFFFFFFFFFFFFFFFFFFFFFFFFFFFFFFFFFFFFF AND DUP2 MSTORE PUSH1 0x20 ADD SWAP1 DUP2 MSTORE PUSH1 0x20 ADD PUSH1 0x0 KECCAK256 DUP3 DUP2 SLOAD DUP2 LT PUSH2 0xAA2 JUMPI PUSH2 0xAA1 PUSH2 0x1B82 JUMP JUMPDEST JUMPDEST SWAP1 PUSH1 0x0 MSTORE PUSH1 0x20 PUSH1 0x0 KECCAK256 ADD PUSH1 0x0 SWAP1 SLOAD SWAP1 PUSH2 0x100 EXP SWAP1 DIV PUSH20 0xFFFFFFFFFFFFFFFFFFFFFFFFFFFFFFFFFFFFFFFF AND PUSH20 0xFFFFFFFFFFFFFFFFFFFFFFFFFFFFFFFFFFFFFFFF AND SUB PUSH2 0xAED JUMPI PUSH1 0x1 SWAP2 POP JUMPDEST DUP1 DUP1 PUSH2 0xAF8 SWAP1 PUSH2 0x1BB1 JUMP JUMPDEST SWAP2 POP POP PUSH2 0x9F0 JUMP JUMPDEST POP DUP1 ISZERO PUSH2 0xB42 JUMPI PUSH1 0x40 MLOAD PUSH32 0x8C379A000000000000000000000000000000000000000000000000000000000 DUP2 MSTORE PUSH1 0x4 ADD PUSH2 0xB39 SWAP1 PUSH2 0x1C45 JUMP JUMPDEST PUSH1 0x40 MLOAD DUP1 SWAP2 SUB SWAP1 REVERT JUMPDEST PUSH1 0x1 PUSH1 0x0 DUP5 PUSH20 0xFFFFFFFFFFFFFFFFFFFFFFFFFFFFFFFFFFFFFFFF AND PUSH20 0xFFFFFFFFFFFFFFFFFFFFFFFFFFFFFFFFFFFFFFFF AND DUP2 MSTORE PUSH1 0x20 ADD SWAP1 DUP2 MSTORE PUSH1 0x20 ADD PUSH1 0x0 KECCAK256 CALLER SWAP1 DUP1 PUSH1 0x1 DUP2 SLOAD ADD DUP1 DUP3 SSTORE DUP1 SWAP2 POP POP PUSH1 0x1 SWAP1 SUB SWAP1 PUSH1 0x0 MSTORE PUSH1 0x20 PUSH1 0x0 KECCAK256 ADD PUSH1 0x0 SWAP1 SWAP2 SWAP1 SWAP2 SWAP1 SWAP2 PUSH2 0x100 EXP DUP2 SLOAD DUP2 PUSH20 0xFFFFFFFFFFFFFFFFFFFFFFFFFFFFFFFFFFFFFFFF MUL NOT AND SWAP1 DUP4 PUSH20 0xFFFFFFFFFFFFFFFFFFFFFFFFFFFFFFFFFFFFFFFF AND MUL OR SWAP1 SSTORE POP PUSH1 0x1 PUSH1 0x2 PUSH1 0x0 DUP6 PUSH20 0xFFFFFFFFFFFFFFFFFFFFFFFFFFFFFFFFFFFFFFFF AND PUSH20 0xFFFFFFFFFFFFFFFFFFFFFFFFFFFFFFFFFFFFFFFF AND DUP2 MSTORE PUSH1 0x20 ADD SWAP1 DUP2 MSTORE PUSH1 0x20 ADD PUSH1 0x0 KECCAK256 PUSH1 0x0 DUP3 DUP3 SLOAD PUSH2 0xC32 SWAP2 SWAP1 PUSH2 0x1C65 JUMP JUMPDEST SWAP3 POP POP DUP2 SWAP1 SSTORE POP POP POP POP JUMP JUMPDEST PUSH1 0x60 CALLER PUSH1 0x6 PUSH1 0x0 SWAP1 SLOAD SWAP1 PUSH2 0x100 EXP SWAP1 DIV PUSH20 0xFFFFFFFFFFFFFFFFFFFFFFFFFFFFFFFFFFFFFFFF AND PUSH20 0xFFFFFFFFFFFFFFFFFFFFFFFFFFFFFFFFFFFFFFFF AND PUSH4 0x39AC7A08 DUP3 PUSH1 0x7 PUSH1 0x0 SWAP1 SLOAD SWAP1 PUSH2 0x100 EXP SWAP1 DIV PUSH20 0xFFFFFFFFFFFFFFFFFFFFFFFFFFFFFFFFFFFFFFFF AND PUSH1 0x40 MLOAD DUP4 PUSH4 0xFFFFFFFF AND PUSH1 0xE0 SHL DUP2 MSTORE PUSH1 0x4 ADD PUSH2 0xCC0 SWAP3 SWAP2 SWAP1 PUSH2 0x1868 JUMP JUMPDEST PUSH1 0x20 PUSH1 0x40 MLOAD DUP1 DUP4 SUB DUP2 DUP7 GAS STATICCALL ISZERO DUP1 ISZERO PUSH2 0xCDD JUMPI RETURNDATASIZE PUSH1 0x0 DUP1 RETURNDATACOPY RETURNDATASIZE PUSH1 0x0 REVERT JUMPDEST POP POP POP POP PUSH1 0x40 MLOAD RETURNDATASIZE PUSH1 0x1F NOT PUSH1 0x1F DUP3 ADD AND DUP3 ADD DUP1 PUSH1 0x40 MSTORE POP DUP2 ADD SWAP1 PUSH2 0xD01 SWAP2 SWAP1 PUSH2 0x18C9 JUMP JUMPDEST PUSH2 0xD40 JUMPI PUSH1 0x40 MLOAD PUSH32 0x8C379A000000000000000000000000000000000000000000000000000000000 DUP2 MSTORE PUSH1 0x4 ADD PUSH2 0xD37 SWAP1 PUSH2 0x1942 JUMP JUMPDEST PUSH1 0x40 MLOAD DUP1 SWAP2 SUB SWAP1 REVERT JUMPDEST PUSH1 0x0 DUP1 SLOAD DUP1 PUSH1 0x20 MUL PUSH1 0x20 ADD PUSH1 0x40 MLOAD SWAP1 DUP2 ADD PUSH1 0x40 MSTORE DUP1 SWAP3 SWAP2 SWAP1 DUP2 DUP2 MSTORE PUSH1 0x20 ADD DUP3 DUP1 SLOAD DUP1 ISZERO PUSH2 0xDC2 JUMPI PUSH1 0x20 MUL DUP3 ADD SWAP2 SWAP1 PUSH1 0x0 MSTORE PUSH1 0x20 PUSH1 0x0 KECCAK256 SWAP1 JUMPDEST DUP2 PUSH1 0x0 SWAP1 SLOAD SWAP1 PUSH2 0x100 EXP SWAP1 DIV PUSH20 0xFFFFFFFFFFFFFFFFFFFFFFFFFFFFFFFFFFFFFFFF AND PUSH20 0xFFFFFFFFFFFFFFFFFFFFFFFFFFFFFFFFFFFFFFFF AND DUP2 MSTORE PUSH1 0x20 ADD SWAP1 PUSH1 0x1 ADD SWAP1 DUP1 DUP4 GT PUSH2 0xD78 JUMPI JUMPDEST POP POP POP POP POP SWAP2 POP POP SWAP1 JUMP JUMPDEST PUSH1 0x0 DUP2 DUP2 SLOAD DUP2 LT PUSH2 0xDDD JUMPI PUSH1 0x0 DUP1 REVERT JUMPDEST SWAP1 PUSH1 0x0 MSTORE PUSH1 0x20 PUSH1 0x0 KECCAK256 ADD PUSH1 0x0 SWAP2 POP SLOAD SWAP1 PUSH2 0x100 EXP SWAP1 DIV PUSH20 0xFFFFFFFFFFFFFFFFFFFFFFFFFFFFFFFFFFFFFFFF AND DUP2 JUMP JUMPDEST PUSH1 0x7 PUSH1 0x0 SWAP1 SLOAD SWAP1 PUSH2 0x100 EXP SWAP1 DIV PUSH20 0xFFFFFFFFFFFFFFFFFFFFFFFFFFFFFFFFFFFFFFFF AND DUP2 JUMP JUMPDEST PUSH1 0x0 PUSH1 0x5 PUSH1 0x0 DUP4 PUSH20 0xFFFFFFFFFFFFFFFFFFFFFFFFFFFFFFFFFFFFFFFF AND PUSH20 0xFFFFFFFFFFFFFFFFFFFFFFFFFFFFFFFFFFFFFFFF AND DUP2 MSTORE PUSH1 0x20 ADD SWAP1 DUP2 MSTORE PUSH1 0x20 ADD PUSH1 0x0 KECCAK256 SLOAD SWAP1 POP SWAP2 SWAP1 POP JUMP JUMPDEST PUSH1 0x0 PUSH1 0x1 PUSH1 0x0 DUP4 PUSH20 0xFFFFFFFFFFFFFFFFFFFFFFFFFFFFFFFFFFFFFFFF AND PUSH20 0xFFFFFFFFFFFFFFFFFFFFFFFFFFFFFFFFFFFFFFFF AND DUP2 MSTORE PUSH1 0x20 ADD SWAP1 DUP2 MSTORE PUSH1 0x20 ADD PUSH1 0x0 KECCAK256 DUP1 SLOAD SWAP1 POP SWAP1 POP SWAP2 SWAP1 POP JUMP JUMPDEST PUSH1 0x6 PUSH1 0x0 SWAP1 SLOAD SWAP1 PUSH2 0x100 EXP SWAP1 DIV PUSH20 0xFFFFFFFFFFFFFFFFFFFFFFFFFFFFFFFFFFFFFFFF AND PUSH20 0xFFFFFFFFFFFFFFFFFFFFFFFFFFFFFFFFFFFFFFFF AND PUSH4 0x39AC7A08 CALLER PUSH1 0x7 PUSH1 0x0 SWAP1 SLOAD SWAP1 PUSH2 0x100 EXP SWAP1 DIV PUSH20 0xFFFFFFFFFFFFFFFFFFFFFFFFFFFFFFFFFFFFFFFF AND PUSH1 0x40 MLOAD DUP4 PUSH4 0xFFFFFFFF AND PUSH1 0xE0 SHL DUP2 MSTORE PUSH1 0x4 ADD PUSH2 0xF46 SWAP3 SWAP2 SWAP1 PUSH2 0x1868 JUMP JUMPDEST PUSH1 0x20 PUSH1 0x40 MLOAD DUP1 DUP4 SUB DUP2 DUP7 GAS STATICCALL ISZERO DUP1 ISZERO PUSH2 0xF63 JUMPI RETURNDATASIZE PUSH1 0x0 DUP1 RETURNDATACOPY RETURNDATASIZE PUSH1 0x0 REVERT JUMPDEST POP POP POP POP PUSH1 0x40 MLOAD RETURNDATASIZE PUSH1 0x1F NOT PUSH1 0x1F DUP3 ADD AND DUP3 ADD DUP1 PUSH1 0x40 MSTORE POP DUP2 ADD SWAP1 PUSH2 0xF87 SWAP2 SWAP1 PUSH2 0x18C9 JUMP JUMPDEST ISZERO PUSH2 0xFC7 JUMPI PUSH1 0x40 MLOAD PUSH32 0x8C379A000000000000000000000000000000000000000000000000000000000 DUP2 MSTORE PUSH1 0x4 ADD PUSH2 0xFBE SWAP1 PUSH2 0x1CF5 JUMP JUMPDEST PUSH1 0x40 MLOAD DUP1 SWAP2 SUB SWAP1 REVERT JUMPDEST PUSH1 0x0 PUSH32 0x0 SWAP1 POP PUSH1 0x0 DUP2 PUSH20 0xFFFFFFFFFFFFFFFFFFFFFFFFFFFFFFFFFFFFFFFF AND PUSH4 0x8387271C CALLER PUSH1 0x7 PUSH1 0x0 SWAP1 SLOAD SWAP1 PUSH2 0x100 EXP SWAP1 DIV PUSH20 0xFFFFFFFFFFFFFFFFFFFFFFFFFFFFFFFFFFFFFFFF AND PUSH1 0x40 MLOAD DUP4 PUSH4 0xFFFFFFFF AND PUSH1 0xE0 SHL DUP2 MSTORE PUSH1 0x4 ADD PUSH2 0x104B SWAP3 SWAP2 SWAP1 PUSH2 0x1868 JUMP JUMPDEST PUSH1 0x20 PUSH1 0x40 MLOAD DUP1 DUP4 SUB DUP2 DUP7 GAS STATICCALL ISZERO DUP1 ISZERO PUSH2 0x1068 JUMPI RETURNDATASIZE PUSH1 0x0 DUP1 RETURNDATACOPY RETURNDATASIZE PUSH1 0x0 REVERT JUMPDEST POP POP POP POP PUSH1 0x40 MLOAD RETURNDATASIZE PUSH1 0x1F NOT PUSH1 0x1F DUP3 ADD AND DUP3 ADD DUP1 PUSH1 0x40 MSTORE POP DUP2 ADD SWAP1 PUSH2 0x108C SWAP2 SWAP1 PUSH2 0x18C9 JUMP JUMPDEST SWAP1 POP PUSH1 0x1 ISZERO ISZERO DUP2 ISZERO ISZERO EQ PUSH2 0x10D5 JUMPI PUSH1 0x40 MLOAD PUSH32 0x8C379A000000000000000000000000000000000000000000000000000000000 DUP2 MSTORE PUSH1 0x4 ADD PUSH2 0x10CC SWAP1 PUSH2 0x1D61 JUMP JUMPDEST PUSH1 0x40 MLOAD DUP1 SWAP2 SUB SWAP1 REVERT JUMPDEST PUSH1 0x3 PUSH1 0x0 CALLER PUSH20 0xFFFFFFFFFFFFFFFFFFFFFFFFFFFFFFFFFFFFFFFF AND PUSH20 0xFFFFFFFFFFFFFFFFFFFFFFFFFFFFFFFFFFFFFFFF AND DUP2 MSTORE PUSH1 0x20 ADD SWAP1 DUP2 MSTORE PUSH1 0x20 ADD PUSH1 0x0 KECCAK256 PUSH1 0x0 SWAP1 SLOAD SWAP1 PUSH2 0x100 EXP SWAP1 DIV PUSH1 0xFF AND ISZERO PUSH2 0x1162 JUMPI PUSH1 0x40 MLOAD PUSH32 0x8C379A000000000000000000000000000000000000000000000000000000000 DUP2 MSTORE PUSH1 0x4 ADD PUSH2 0x1159 SWAP1 PUSH2 0x1DCD JUMP JUMPDEST PUSH1 0x40 MLOAD DUP1 SWAP2 SUB SWAP1 REVERT JUMPDEST PUSH32 0xFFFFFFFFFFFFFFFFFFFFFFFFFFFFFFFFFFFFFFFFFFFFFFFFFFFFFFFFFFFFFFFD PUSH1 0x2 PUSH1 0x0 CALLER PUSH20 0xFFFFFFFFFFFFFFFFFFFFFFFFFFFFFFFFFFFFFFFF AND PUSH20 0xFFFFFFFFFFFFFFFFFFFFFFFFFFFFFFFFFFFFFFFF AND DUP2 MSTORE PUSH1 0x20 ADD SWAP1 DUP2 MSTORE PUSH1 0x20 ADD PUSH1 0x0 KECCAK256 SLOAD SGT PUSH2 0x1203 JUMPI PUSH1 0x40 MLOAD PUSH32 0x8C379A000000000000000000000000000000000000000000000000000000000 DUP2 MSTORE PUSH1 0x4 ADD PUSH2 0x11FA SWAP1 PUSH2 0x1E39 JUMP JUMPDEST PUSH1 0x40 MLOAD DUP1 SWAP2 SUB SWAP1 REVERT JUMPDEST DUP4 DUP4 PUSH1 0x4 PUSH1 0x0 CALLER PUSH20 0xFFFFFFFFFFFFFFFFFFFFFFFFFFFFFFFFFFFFFFFF AND PUSH20 0xFFFFFFFFFFFFFFFFFFFFFFFFFFFFFFFFFFFFFFFF AND DUP2 MSTORE PUSH1 0x20 ADD SWAP1 DUP2 MSTORE PUSH1 0x20 ADD PUSH1 0x0 KECCAK256 SWAP2 DUP3 PUSH2 0x1251 SWAP3 SWAP2 SWAP1 PUSH2 0x203F JUMP JUMPDEST POP PUSH1 0x0 CALLER SWAP1 DUP1 PUSH1 0x1 DUP2 SLOAD ADD DUP1 DUP3 SSTORE DUP1 SWAP2 POP POP PUSH1 0x1 SWAP1 SUB SWAP1 PUSH1 0x0 MSTORE PUSH1 0x20 PUSH1 0x0 KECCAK256 ADD PUSH1 0x0 SWAP1 SWAP2 SWAP1 SWAP2 SWAP1 SWAP2 PUSH2 0x100 EXP DUP2 SLOAD DUP2 PUSH20 0xFFFFFFFFFFFFFFFFFFFFFFFFFFFFFFFFFFFFFFFF MUL NOT AND SWAP1 DUP4 PUSH20 0xFFFFFFFFFFFFFFFFFFFFFFFFFFFFFFFFFFFFFFFF AND MUL OR SWAP1 SSTORE POP PUSH4 0xF731400 TIMESTAMP PUSH2 0x12C5 SWAP2 SWAP1 PUSH2 0x210F JUMP JUMPDEST PUSH1 0x5 PUSH1 0x0 CALLER PUSH20 0xFFFFFFFFFFFFFFFFFFFFFFFFFFFFFFFFFFFFFFFF AND PUSH20 0xFFFFFFFFFFFFFFFFFFFFFFFFFFFFFFFFFFFFFFFF AND DUP2 MSTORE PUSH1 0x20 ADD SWAP1 DUP2 MSTORE PUSH1 0x20 ADD PUSH1 0x0 KECCAK256 DUP2 SWAP1 SSTORE POP POP POP POP POP JUMP JUMPDEST PUSH1 0x0 JUMPDEST PUSH1 0x0 DUP1 SLOAD SWAP1 POP DUP2 LT ISZERO PUSH2 0x13A3 JUMPI DUP2 PUSH20 0xFFFFFFFFFFFFFFFFFFFFFFFFFFFFFFFFFFFFFFFF AND PUSH1 0x0 DUP3 DUP2 SLOAD DUP2 LT PUSH2 0x1349 JUMPI PUSH2 0x1348 PUSH2 0x1B82 JUMP JUMPDEST JUMPDEST SWAP1 PUSH1 0x0 MSTORE PUSH1 0x20 PUSH1 0x0 KECCAK256 ADD PUSH1 0x0 SWAP1 SLOAD SWAP1 PUSH2 0x100 EXP SWAP1 DIV PUSH20 0xFFFFFFFFFFFFFFFFFFFFFFFFFFFFFFFFFFFFFFFF AND PUSH20 0xFFFFFFFFFFFFFFFFFFFFFFFFFFFFFFFFFFFFFFFF AND SUB ISZERO PUSH2 0x13A3 JUMPI DUP1 DUP1 PUSH2 0x139B SWAP1 PUSH2 0x1BB1 JUMP JUMPDEST SWAP2 POP POP PUSH2 0x1311 JUMP JUMPDEST PUSH1 0x0 PUSH1 0x1 PUSH1 0x0 DUP1 SLOAD SWAP1 POP PUSH2 0x13B7 SWAP2 SWAP1 PUSH2 0x2143 JUMP JUMPDEST DUP2 SLOAD DUP2 LT PUSH2 0x13C8 JUMPI PUSH2 0x13C7 PUSH2 0x1B82 JUMP JUMPDEST JUMPDEST SWAP1 PUSH1 0x0 MSTORE PUSH1 0x20 PUSH1 0x0 KECCAK256 ADD PUSH1 0x0 SWAP1 SLOAD SWAP1 PUSH2 0x100 EXP SWAP1 DIV PUSH20 0xFFFFFFFFFFFFFFFFFFFFFFFFFFFFFFFFFFFFFFFF AND PUSH1 0x0 DUP3 DUP2 SLOAD DUP2 LT PUSH2 0x1407 JUMPI PUSH2 0x1406 PUSH2 0x1B82 JUMP JUMPDEST JUMPDEST SWAP1 PUSH1 0x0 MSTORE PUSH1 0x20 PUSH1 0x0 KECCAK256 ADD PUSH1 0x0 PUSH2 0x100 EXP DUP2 SLOAD DUP2 PUSH20 0xFFFFFFFFFFFFFFFFFFFFFFFFFFFFFFFFFFFFFFFF MUL NOT AND SWAP1 DUP4 PUSH20 0xFFFFFFFFFFFFFFFFFFFFFFFFFFFFFFFFFFFFFFFF AND MUL OR SWAP1 SSTORE POP PUSH1 0x0 DUP1 SLOAD DUP1 PUSH2 0x1461 JUMPI PUSH2 0x1460 PUSH2 0x2177 JUMP JUMPDEST JUMPDEST PUSH1 0x1 SWAP1 SUB DUP2 DUP2 SWAP1 PUSH1 0x0 MSTORE PUSH1 0x20 PUSH1 0x0 KECCAK256 ADD PUSH1 0x0 PUSH2 0x100 EXP DUP2 SLOAD SWAP1 PUSH20 0xFFFFFFFFFFFFFFFFFFFFFFFFFFFFFFFFFFFFFFFF MUL NOT AND SWAP1 SSTORE SWAP1 SSTORE POP POP JUMP JUMPDEST POP DUP1 SLOAD PUSH1 0x0 DUP3 SSTORE SWAP1 PUSH1 0x0 MSTORE PUSH1 0x20 PUSH1 0x0 KECCAK256 SWAP1 DUP2 ADD SWAP1 PUSH2 0x14B8 SWAP2 SWAP1 PUSH2 0x14BB JUMP JUMPDEST POP JUMP JUMPDEST JUMPDEST DUP1 DUP3 GT ISZERO PUSH2 0x14D4 JUMPI PUSH1 0x0 DUP2 PUSH1 0x0 SWAP1 SSTORE POP PUSH1 0x1 ADD PUSH2 0x14BC JUMP JUMPDEST POP SWAP1 JUMP JUMPDEST PUSH1 0x0 DUP1 REVERT JUMPDEST PUSH1 0x0 DUP1 REVERT JUMPDEST PUSH1 0x0 PUSH20 0xFFFFFFFFFFFFFFFFFFFFFFFFFFFFFFFFFFFFFFFF DUP3 AND SWAP1 POP SWAP2 SWAP1 POP JUMP JUMPDEST PUSH1 0x0 PUSH2 0x150D DUP3 PUSH2 0x14E2 JUMP JUMPDEST SWAP1 POP SWAP2 SWAP1 POP JUMP JUMPDEST PUSH2 0x151D DUP2 PUSH2 0x1502 JUMP JUMPDEST DUP2 EQ PUSH2 0x1528 JUMPI PUSH1 0x0 DUP1 REVERT JUMPDEST POP JUMP JUMPDEST PUSH1 0x0 DUP2 CALLDATALOAD SWAP1 POP PUSH2 0x153A DUP2 PUSH2 0x1514 JUMP JUMPDEST SWAP3 SWAP2 POP POP JUMP JUMPDEST PUSH1 0x0 PUSH1 0x20 DUP3 DUP5 SUB SLT ISZERO PUSH2 0x1556 JUMPI PUSH2 0x1555 PUSH2 0x14D8 JUMP JUMPDEST JUMPDEST PUSH1 0x0 PUSH2 0x1564 DUP5 DUP3 DUP6 ADD PUSH2 0x152B JUMP JUMPDEST SWAP2 POP POP SWAP3 SWAP2 POP POP JUMP JUMPDEST PUSH1 0x0 DUP2 MLOAD SWAP1 POP SWAP2 SWAP1 POP JUMP JUMPDEST PUSH1 0x0 DUP3 DUP3 MSTORE PUSH1 0x20 DUP3 ADD SWAP1 POP SWAP3 SWAP2 POP POP JUMP JUMPDEST PUSH1 0x0 JUMPDEST DUP4 DUP2 LT ISZERO PUSH2 0x15A7 JUMPI DUP1 DUP3 ADD MLOAD DUP2 DUP5 ADD MSTORE PUSH1 0x20 DUP2 ADD SWAP1 POP PUSH2 0x158C JUMP JUMPDEST PUSH1 0x0 DUP5 DUP5 ADD MSTORE POP POP POP POP JUMP JUMPDEST PUSH1 0x0 PUSH1 0x1F NOT PUSH1 0x1F DUP4 ADD AND SWAP1 POP SWAP2 SWAP1 POP JUMP JUMPDEST PUSH1 0x0 PUSH2 0x15CF DUP3 PUSH2 0x156D JUMP JUMPDEST PUSH2 0x15D9 DUP2 DUP6 PUSH2 0x1578 JUMP JUMPDEST SWAP4 POP PUSH2 0x15E9 DUP2 DUP6 PUSH1 0x20 DUP7 ADD PUSH2 0x1589 JUMP JUMPDEST PUSH2 0x15F2 DUP2 PUSH2 0x15B3 JUMP JUMPDEST DUP5 ADD SWAP2 POP POP SWAP3 SWAP2 POP POP JUMP JUMPDEST PUSH1 0x0 PUSH1 0x20 DUP3 ADD SWAP1 POP DUP2 DUP2 SUB PUSH1 0x0 DUP4 ADD MSTORE PUSH2 0x1617 DUP2 DUP5 PUSH2 0x15C4 JUMP JUMPDEST SWAP1 POP SWAP3 SWAP2 POP POP JUMP JUMPDEST PUSH1 0x0 DUP2 MLOAD SWAP1 POP SWAP2 SWAP1 POP JUMP JUMPDEST PUSH1 0x0 DUP3 DUP3 MSTORE PUSH1 0x20 DUP3 ADD SWAP1 POP SWAP3 SWAP2 POP POP JUMP JUMPDEST PUSH1 0x0 DUP2 SWAP1 POP PUSH1 0x20 DUP3 ADD SWAP1 POP SWAP2 SWAP1 POP JUMP JUMPDEST PUSH2 0x1654 DUP2 PUSH2 0x1502 JUMP JUMPDEST DUP3 MSTORE POP POP JUMP JUMPDEST PUSH1 0x0 PUSH2 0x1666 DUP4 DUP4 PUSH2 0x164B JUMP JUMPDEST PUSH1 0x20 DUP4 ADD SWAP1 POP SWAP3 SWAP2 POP POP JUMP JUMPDEST PUSH1 0x0 PUSH1 0x20 DUP3 ADD SWAP1 POP SWAP2 SWAP1 POP JUMP JUMPDEST PUSH1 0x0 PUSH2 0x168A DUP3 PUSH2 0x161F JUMP JUMPDEST PUSH2 0x1694 DUP2 DUP6 PUSH2 0x162A JUMP JUMPDEST SWAP4 POP PUSH2 0x169F DUP4 PUSH2 0x163B JUMP JUMPDEST DUP1 PUSH1 0x0 JUMPDEST DUP4 DUP2 LT ISZERO PUSH2 0x16D0 JUMPI DUP2 MLOAD PUSH2 0x16B7 DUP9 DUP3 PUSH2 0x165A JUMP JUMPDEST SWAP8 POP PUSH2 0x16C2 DUP4 PUSH2 0x1672 JUMP JUMPDEST SWAP3 POP POP PUSH1 0x1 DUP2 ADD SWAP1 POP PUSH2 0x16A3 JUMP JUMPDEST POP DUP6 SWAP4 POP POP POP POP SWAP3 SWAP2 POP POP JUMP JUMPDEST PUSH1 0x0 PUSH1 0x20 DUP3 ADD SWAP1 POP DUP2 DUP2 SUB PUSH1 0x0 DUP4 ADD MSTORE PUSH2 0x16F7 DUP2 DUP5 PUSH2 0x167F JUMP JUMPDEST SWAP1 POP SWAP3 SWAP2 POP POP JUMP JUMPDEST PUSH1 0x0 DUP2 SWAP1 POP SWAP2 SWAP1 POP JUMP JUMPDEST PUSH2 0x1712 DUP2 PUSH2 0x16FF JUMP JUMPDEST DUP2 EQ PUSH2 0x171D JUMPI PUSH1 0x0 DUP1 REVERT JUMPDEST POP JUMP JUMPDEST PUSH1 0x0 DUP2 CALLDATALOAD SWAP1 POP PUSH2 0x172F DUP2 PUSH2 0x1709 JUMP JUMPDEST SWAP3 SWAP2 POP POP JUMP JUMPDEST PUSH1 0x0 PUSH1 0x20 DUP3 DUP5 SUB SLT ISZERO PUSH2 0x174B JUMPI PUSH2 0x174A PUSH2 0x14D8 JUMP JUMPDEST JUMPDEST PUSH1 0x0 PUSH2 0x1759 DUP5 DUP3 DUP6 ADD PUSH2 0x1720 JUMP JUMPDEST SWAP2 POP POP SWAP3 SWAP2 POP POP JUMP JUMPDEST PUSH2 0x176B DUP2 PUSH2 0x1502 JUMP JUMPDEST DUP3 MSTORE POP POP JUMP JUMPDEST PUSH1 0x0 PUSH1 0x20 DUP3 ADD SWAP1 POP PUSH2 0x1786 PUSH1 0x0 DUP4 ADD DUP5 PUSH2 0x1762 JUMP JUMPDEST SWAP3 SWAP2 POP POP JUMP JUMPDEST PUSH2 0x1795 DUP2 PUSH2 0x16FF JUMP JUMPDEST DUP3 MSTORE POP POP JUMP JUMPDEST PUSH1 0x0 PUSH1 0x20 DUP3 ADD SWAP1 POP PUSH2 0x17B0 PUSH1 0x0 DUP4 ADD DUP5 PUSH2 0x178C JUMP JUMPDEST SWAP3 SWAP2 POP POP JUMP JUMPDEST PUSH1 0x0 DUP1 REVERT JUMPDEST PUSH1 0x0 DUP1 REVERT JUMPDEST PUSH1 0x0 DUP1 REVERT JUMPDEST PUSH1 0x0 DUP1 DUP4 PUSH1 0x1F DUP5 ADD SLT PUSH2 0x17DB JUMPI PUSH2 0x17DA PUSH2 0x17B6 JUMP JUMPDEST JUMPDEST DUP3 CALLDATALOAD SWAP1 POP PUSH8 0xFFFFFFFFFFFFFFFF DUP2 GT ISZERO PUSH2 0x17F8 JUMPI PUSH2 0x17F7 PUSH2 0x17BB JUMP JUMPDEST JUMPDEST PUSH1 0x20 DUP4 ADD SWAP2 POP DUP4 PUSH1 0x1 DUP3 MUL DUP4 ADD GT ISZERO PUSH2 0x1814 JUMPI PUSH2 0x1813 PUSH2 0x17C0 JUMP JUMPDEST JUMPDEST SWAP3 POP SWAP3 SWAP1 POP JUMP JUMPDEST PUSH1 0x0 DUP1 PUSH1 0x20 DUP4 DUP6 SUB SLT ISZERO PUSH2 0x1832 JUMPI PUSH2 0x1831 PUSH2 0x14D8 JUMP JUMPDEST JUMPDEST PUSH1 0x0 DUP4 ADD CALLDATALOAD PUSH8 0xFFFFFFFFFFFFFFFF DUP2 GT ISZERO PUSH2 0x1850 JUMPI PUSH2 0x184F PUSH2 0x14DD JUMP JUMPDEST JUMPDEST PUSH2 0x185C DUP6 DUP3 DUP7 ADD PUSH2 0x17C5 JUMP JUMPDEST SWAP3 POP SWAP3 POP POP SWAP3 POP SWAP3 SWAP1 POP JUMP JUMPDEST PUSH1 0x0 PUSH1 0x40 DUP3 ADD SWAP1 POP PUSH2 0x187D PUSH1 0x0 DUP4 ADD DUP6 PUSH2 0x1762 JUMP JUMPDEST PUSH2 0x188A PUSH1 0x20 DUP4 ADD DUP5 PUSH2 0x1762 JUMP JUMPDEST SWAP4 SWAP3 POP POP POP JUMP JUMPDEST PUSH1 0x0 DUP2 ISZERO ISZERO SWAP1 POP SWAP2 SWAP1 POP JUMP JUMPDEST PUSH2 0x18A6 DUP2 PUSH2 0x1891 JUMP JUMPDEST DUP2 EQ PUSH2 0x18B1 JUMPI PUSH1 0x0 DUP1 REVERT JUMPDEST POP JUMP JUMPDEST PUSH1 0x0 DUP2 MLOAD SWAP1 POP PUSH2 0x18C3 DUP2 PUSH2 0x189D JUMP JUMPDEST SWAP3 SWAP2 POP POP JUMP JUMPDEST PUSH1 0x0 PUSH1 0x20 DUP3 DUP5 SUB SLT ISZERO PUSH2 0x18DF JUMPI PUSH2 0x18DE PUSH2 0x14D8 JUMP JUMPDEST JUMPDEST PUSH1 0x0 PUSH2 0x18ED DUP5 DUP3 DUP6 ADD PUSH2 0x18B4 JUMP JUMPDEST SWAP2 POP POP SWAP3 SWAP2 POP POP JUMP JUMPDEST PUSH32 0x526571756972656420746F2062652061206D656D656265720000000000000000 PUSH1 0x0 DUP3 ADD MSTORE POP JUMP JUMPDEST PUSH1 0x0 PUSH2 0x192C PUSH1 0x18 DUP4 PUSH2 0x1578 JUMP JUMPDEST SWAP2 POP PUSH2 0x1937 DUP3 PUSH2 0x18F6 JUMP JUMPDEST PUSH1 0x20 DUP3 ADD SWAP1 POP SWAP2 SWAP1 POP JUMP JUMPDEST PUSH1 0x0 PUSH1 0x20 DUP3 ADD SWAP1 POP DUP2 DUP2 SUB PUSH1 0x0 DUP4 ADD MSTORE PUSH2 0x195B DUP2 PUSH2 0x191F JUMP JUMPDEST SWAP1 POP SWAP2 SWAP1 POP JUMP JUMPDEST PUSH32 0x4E487B7100000000000000000000000000000000000000000000000000000000 PUSH1 0x0 MSTORE PUSH1 0x22 PUSH1 0x4 MSTORE PUSH1 0x24 PUSH1 0x0 REVERT JUMPDEST PUSH1 0x0 PUSH1 0x2 DUP3 DIV SWAP1 POP PUSH1 0x1 DUP3 AND DUP1 PUSH2 0x19A9 JUMPI PUSH1 0x7F DUP3 AND SWAP2 POP JUMPDEST PUSH1 0x20 DUP3 LT DUP2 SUB PUSH2 0x19BC JUMPI PUSH2 0x19BB PUSH2 0x1962 JUMP JUMPDEST JUMPDEST POP SWAP2 SWAP1 POP JUMP JUMPDEST PUSH32 0x4163636573732044656E69656400000000000000000000000000000000000000 PUSH1 0x0 DUP3 ADD MSTORE POP JUMP JUMPDEST PUSH1 0x0 PUSH2 0x19F8 PUSH1 0xD DUP4 PUSH2 0x1578 JUMP JUMPDEST SWAP2 POP PUSH2 0x1A03 DUP3 PUSH2 0x19C2 JUMP JUMPDEST PUSH1 0x20 DUP3 ADD SWAP1 POP SWAP2 SWAP1 POP JUMP JUMPDEST PUSH1 0x0 PUSH1 0x20 DUP3 ADD SWAP1 POP DUP2 DUP2 SUB PUSH1 0x0 DUP4 ADD MSTORE PUSH2 0x1A27 DUP2 PUSH2 0x19EB JUMP JUMPDEST SWAP1 POP SWAP2 SWAP1 POP JUMP JUMPDEST PUSH32 0x496E76616C6964206170706C6963616E74206164647265737300000000000000 PUSH1 0x0 DUP3 ADD MSTORE POP JUMP JUMPDEST PUSH1 0x0 PUSH2 0x1A64 PUSH1 0x19 DUP4 PUSH2 0x1578 JUMP JUMPDEST SWAP2 POP PUSH2 0x1A6F DUP3 PUSH2 0x1A2E JUMP JUMPDEST PUSH1 0x20 DUP3 ADD SWAP1 POP SWAP2 SWAP1 POP JUMP JUMPDEST PUSH1 0x0 PUSH1 0x20 DUP3 ADD SWAP1 POP DUP2 DUP2 SUB PUSH1 0x0 DUP4 ADD MSTORE PUSH2 0x1A93 DUP2 PUSH2 0x1A57 JUMP JUMPDEST SWAP1 POP SWAP2 SWAP1 POP JUMP JUMPDEST PUSH1 0x0 DUP2 SWAP1 POP SWAP2 SWAP1 POP JUMP JUMPDEST PUSH32 0x4E487B7100000000000000000000000000000000000000000000000000000000 PUSH1 0x0 MSTORE PUSH1 0x11 PUSH1 0x4 MSTORE PUSH1 0x24 PUSH1 0x0 REVERT JUMPDEST PUSH1 0x0 PUSH2 0x1ADE DUP3 PUSH2 0x1A9A JUMP JUMPDEST SWAP2 POP PUSH2 0x1AE9 DUP4 PUSH2 0x1A9A JUMP JUMPDEST SWAP3 POP DUP3 DUP3 SUB SWAP1 POP DUP2 DUP2 SLT PUSH1 0x0 DUP5 SLT AND DUP3 DUP3 SGT PUSH1 0x0 DUP6 SLT ISZERO AND OR ISZERO PUSH2 0x1B10 JUMPI PUSH2 0x1B0F PUSH2 0x1AA4 JUMP JUMPDEST JUMPDEST SWAP3 SWAP2 POP POP JUMP JUMPDEST PUSH32 0x4E6F742061206170706C6963616E740000000000000000000000000000000000 PUSH1 0x0 DUP3 ADD MSTORE POP JUMP JUMPDEST PUSH1 0x0 PUSH2 0x1B4C PUSH1 0xF DUP4 PUSH2 0x1578 JUMP JUMPDEST SWAP2 POP PUSH2 0x1B57 DUP3 PUSH2 0x1B16 JUMP JUMPDEST PUSH1 0x20 DUP3 ADD SWAP1 POP SWAP2 SWAP1 POP JUMP JUMPDEST PUSH1 0x0 PUSH1 0x20 DUP3 ADD SWAP1 POP DUP2 DUP2 SUB PUSH1 0x0 DUP4 ADD MSTORE PUSH2 0x1B7B DUP2 PUSH2 0x1B3F JUMP JUMPDEST SWAP1 POP SWAP2 SWAP1 POP JUMP JUMPDEST PUSH32 0x4E487B7100000000000000000000000000000000000000000000000000000000 PUSH1 0x0 MSTORE PUSH1 0x32 PUSH1 0x4 MSTORE PUSH1 0x24 PUSH1 0x0 REVERT JUMPDEST PUSH1 0x0 PUSH2 0x1BBC DUP3 PUSH2 0x16FF JUMP JUMPDEST SWAP2 POP PUSH32 0xFFFFFFFFFFFFFFFFFFFFFFFFFFFFFFFFFFFFFFFFFFFFFFFFFFFFFFFFFFFFFFFF DUP3 SUB PUSH2 0x1BEE JUMPI PUSH2 0x1BED PUSH2 0x1AA4 JUMP JUMPDEST JUMPDEST PUSH1 0x1 DUP3 ADD SWAP1 POP SWAP2 SWAP1 POP JUMP JUMPDEST PUSH32 0x53656E64657220616C726561647920766F746564000000000000000000000000 PUSH1 0x0 DUP3 ADD MSTORE POP JUMP JUMPDEST PUSH1 0x0 PUSH2 0x1C2F PUSH1 0x14 DUP4 PUSH2 0x1578 JUMP JUMPDEST SWAP2 POP PUSH2 0x1C3A DUP3 PUSH2 0x1BF9 JUMP JUMPDEST PUSH1 0x20 DUP3 ADD SWAP1 POP SWAP2 SWAP1 POP JUMP JUMPDEST PUSH1 0x0 PUSH1 0x20 DUP3 ADD SWAP1 POP DUP2 DUP2 SUB PUSH1 0x0 DUP4 ADD MSTORE PUSH2 0x1C5E DUP2 PUSH2 0x1C22 JUMP JUMPDEST SWAP1 POP SWAP2 SWAP1 POP JUMP JUMPDEST PUSH1 0x0 PUSH2 0x1C70 DUP3 PUSH2 0x1A9A JUMP JUMPDEST SWAP2 POP PUSH2 0x1C7B DUP4 PUSH2 0x1A9A JUMP JUMPDEST SWAP3 POP DUP3 DUP3 ADD SWAP1 POP DUP3 DUP2 SLT ISZERO PUSH1 0x0 DUP4 SLT AND DUP4 DUP3 SLT PUSH1 0x0 DUP5 SLT ISZERO AND OR ISZERO PUSH2 0x1CA3 JUMPI PUSH2 0x1CA2 PUSH2 0x1AA4 JUMP JUMPDEST JUMPDEST SWAP3 SWAP2 POP POP JUMP JUMPDEST PUSH32 0x416C726561647920616374697665206D656D6265720000000000000000000000 PUSH1 0x0 DUP3 ADD MSTORE POP JUMP JUMPDEST PUSH1 0x0 PUSH2 0x1CDF PUSH1 0x15 DUP4 PUSH2 0x1578 JUMP JUMPDEST SWAP2 POP PUSH2 0x1CEA DUP3 PUSH2 0x1CA9 JUMP JUMPDEST PUSH1 0x20 DUP3 ADD SWAP1 POP SWAP2 SWAP1 POP JUMP JUMPDEST PUSH1 0x0 PUSH1 0x20 DUP3 ADD SWAP1 POP DUP2 DUP2 SUB PUSH1 0x0 DUP4 ADD MSTORE PUSH2 0x1D0E DUP2 PUSH2 0x1CD2 JUMP JUMPDEST SWAP1 POP SWAP2 SWAP1 POP JUMP JUMPDEST PUSH32 0x4E6577204170706C6963616E7420466565205265717569726564000000000000 PUSH1 0x0 DUP3 ADD MSTORE POP JUMP JUMPDEST PUSH1 0x0 PUSH2 0x1D4B PUSH1 0x1A DUP4 PUSH2 0x1578 JUMP JUMPDEST SWAP2 POP PUSH2 0x1D56 DUP3 PUSH2 0x1D15 JUMP JUMPDEST PUSH1 0x20 DUP3 ADD SWAP1 POP SWAP2 SWAP1 POP JUMP JUMPDEST PUSH1 0x0 PUSH1 0x20 DUP3 ADD SWAP1 POP DUP2 DUP2 SUB PUSH1 0x0 DUP4 ADD MSTORE PUSH2 0x1D7A DUP2 PUSH2 0x1D3E JUMP JUMPDEST SWAP1 POP SWAP2 SWAP1 POP JUMP JUMPDEST PUSH32 0x416C726561647920616374697665206170706C6963616E740000000000000000 PUSH1 0x0 DUP3 ADD MSTORE POP JUMP JUMPDEST PUSH1 0x0 PUSH2 0x1DB7 PUSH1 0x18 DUP4 PUSH2 0x1578 JUMP JUMPDEST SWAP2 POP PUSH2 0x1DC2 DUP3 PUSH2 0x1D81 JUMP JUMPDEST PUSH1 0x20 DUP3 ADD SWAP1 POP SWAP2 SWAP1 POP JUMP JUMPDEST PUSH1 0x0 PUSH1 0x20 DUP3 ADD SWAP1 POP DUP2 DUP2 SUB PUSH1 0x0 DUP4 ADD MSTORE PUSH2 0x1DE6 DUP2 PUSH2 0x1DAA JUMP JUMPDEST SWAP1 POP SWAP2 SWAP1 POP JUMP JUMPDEST PUSH32 0x6163636F756E742072656A656374656400000000000000000000000000000000 PUSH1 0x0 DUP3 ADD MSTORE POP JUMP JUMPDEST PUSH1 0x0 PUSH2 0x1E23 PUSH1 0x10 DUP4 PUSH2 0x1578 JUMP JUMPDEST SWAP2 POP PUSH2 0x1E2E DUP3 PUSH2 0x1DED JUMP JUMPDEST PUSH1 0x20 DUP3 ADD SWAP1 POP SWAP2 SWAP1 POP JUMP JUMPDEST PUSH1 0x0 PUSH1 0x20 DUP3 ADD SWAP1 POP DUP2 DUP2 SUB PUSH1 0x0 DUP4 ADD MSTORE PUSH2 0x1E52 DUP2 PUSH2 0x1E16 JUMP JUMPDEST SWAP1 POP SWAP2 SWAP1 POP JUMP JUMPDEST PUSH1 0x0 DUP3 SWAP1 POP SWAP3 SWAP2 POP POP JUMP JUMPDEST PUSH32 0x4E487B7100000000000000000000000000000000000000000000000000000000 PUSH1 0x0 MSTORE PUSH1 0x41 PUSH1 0x4 MSTORE PUSH1 0x24 PUSH1 0x0 REVERT JUMPDEST PUSH1 0x0 DUP2 SWAP1 POP DUP2 PUSH1 0x0 MSTORE PUSH1 0x20 PUSH1 0x0 KECCAK256 SWAP1 POP SWAP2 SWAP1 POP JUMP JUMPDEST PUSH1 0x0 PUSH1 0x20 PUSH1 0x1F DUP4 ADD DIV SWAP1 POP SWAP2 SWAP1 POP JUMP JUMPDEST PUSH1 0x0 DUP3 DUP3 SHL SWAP1 POP SWAP3 SWAP2 POP POP JUMP JUMPDEST PUSH1 0x0 PUSH1 0x8 DUP4 MUL PUSH2 0x1EF5 PUSH32 0xFFFFFFFFFFFFFFFFFFFFFFFFFFFFFFFFFFFFFFFFFFFFFFFFFFFFFFFFFFFFFFFF DUP3 PUSH2 0x1EB8 JUMP JUMPDEST PUSH2 0x1EFF DUP7 DUP4 PUSH2 0x1EB8 JUMP JUMPDEST SWAP6 POP DUP1 NOT DUP5 AND SWAP4 POP DUP1 DUP7 AND DUP5 OR SWAP3 POP POP POP SWAP4 SWAP3 POP POP POP JUMP JUMPDEST PUSH1 0x0 DUP2 SWAP1 POP SWAP2 SWAP1 POP JUMP JUMPDEST PUSH1 0x0 PUSH2 0x1F3C PUSH2 0x1F37 PUSH2 0x1F32 DUP5 PUSH2 0x16FF JUMP JUMPDEST PUSH2 0x1F17 JUMP JUMPDEST PUSH2 0x16FF JUMP JUMPDEST SWAP1 POP SWAP2 SWAP1 POP JUMP JUMPDEST PUSH1 0x0 DUP2 SWAP1 POP SWAP2 SWAP1 POP JUMP JUMPDEST PUSH2 0x1F56 DUP4 PUSH2 0x1F21 JUMP JUMPDEST PUSH2 0x1F6A PUSH2 0x1F62 DUP3 PUSH2 0x1F43 JUMP JUMPDEST DUP5 DUP5 SLOAD PUSH2 0x1EC5 JUMP JUMPDEST DUP3 SSTORE POP POP POP POP JUMP JUMPDEST PUSH1 0x0 SWAP1 JUMP JUMPDEST PUSH2 0x1F7F PUSH2 0x1F72 JUMP JUMPDEST PUSH2 0x1F8A DUP2 DUP5 DUP5 PUSH2 0x1F4D JUMP JUMPDEST POP POP POP JUMP JUMPDEST JUMPDEST DUP2 DUP2 LT ISZERO PUSH2 0x1FAE JUMPI PUSH2 0x1FA3 PUSH1 0x0 DUP3 PUSH2 0x1F77 JUMP JUMPDEST PUSH1 0x1 DUP2 ADD SWAP1 POP PUSH2 0x1F90 JUMP JUMPDEST POP POP JUMP JUMPDEST PUSH1 0x1F DUP3 GT ISZERO PUSH2 0x1FF3 JUMPI PUSH2 0x1FC4 DUP2 PUSH2 0x1E93 JUMP JUMPDEST PUSH2 0x1FCD DUP5 PUSH2 0x1EA8 JUMP JUMPDEST DUP2 ADD PUSH1 0x20 DUP6 LT ISZERO PUSH2 0x1FDC JUMPI DUP2 SWAP1 POP JUMPDEST PUSH2 0x1FF0 PUSH2 0x1FE8 DUP6 PUSH2 0x1EA8 JUMP JUMPDEST DUP4 ADD DUP3 PUSH2 0x1F8F JUMP JUMPDEST POP POP JUMPDEST POP POP POP JUMP JUMPDEST PUSH1 0x0 DUP3 DUP3 SHR SWAP1 POP SWAP3 SWAP2 POP POP JUMP JUMPDEST PUSH1 0x0 PUSH2 0x2016 PUSH1 0x0 NOT DUP5 PUSH1 0x8 MUL PUSH2 0x1FF8 JUMP JUMPDEST NOT DUP1 DUP4 AND SWAP2 POP POP SWAP3 SWAP2 POP POP JUMP JUMPDEST PUSH1 0x0 PUSH2 0x202F DUP4 DUP4 PUSH2 0x2005 JUMP JUMPDEST SWAP2 POP DUP3 PUSH1 0x2 MUL DUP3 OR SWAP1 POP SWAP3 SWAP2 POP POP JUMP JUMPDEST PUSH2 0x2049 DUP4 DUP4 PUSH2 0x1E59 JUMP JUMPDEST PUSH8 0xFFFFFFFFFFFFFFFF DUP2 GT ISZERO PUSH2 0x2062 JUMPI PUSH2 0x2061 PUSH2 0x1E64 JUMP JUMPDEST JUMPDEST PUSH2 0x206C DUP3 SLOAD PUSH2 0x1991 JUMP JUMPDEST PUSH2 0x2077 DUP3 DUP3 DUP6 PUSH2 0x1FB2 JUMP JUMPDEST PUSH1 0x0 PUSH1 0x1F DUP4 GT PUSH1 0x1 DUP2 EQ PUSH2 0x20A6 JUMPI PUSH1 0x0 DUP5 ISZERO PUSH2 0x2094 JUMPI DUP3 DUP8 ADD CALLDATALOAD SWAP1 POP JUMPDEST PUSH2 0x209E DUP6 DUP3 PUSH2 0x2023 JUMP JUMPDEST DUP7 SSTORE POP PUSH2 0x2106 JUMP JUMPDEST PUSH1 0x1F NOT DUP5 AND PUSH2 0x20B4 DUP7 PUSH2 0x1E93 JUMP JUMPDEST PUSH1 0x0 JUMPDEST DUP3 DUP2 LT ISZERO PUSH2 0x20DC JUMPI DUP5 DUP10 ADD CALLDATALOAD DUP3 SSTORE PUSH1 0x1 DUP3 ADD SWAP2 POP PUSH1 0x20 DUP6 ADD SWAP5 POP PUSH1 0x20 DUP2 ADD SWAP1 POP PUSH2 0x20B7 JUMP JUMPDEST DUP7 DUP4 LT ISZERO PUSH2 0x20F9 JUMPI DUP5 DUP10 ADD CALLDATALOAD PUSH2 0x20F5 PUSH1 0x1F DUP10 AND DUP3 PUSH2 0x2005 JUMP JUMPDEST DUP4 SSTORE POP JUMPDEST PUSH1 0x1 PUSH1 0x2 DUP9 MUL ADD DUP9 SSTORE POP POP POP JUMPDEST POP POP POP POP POP POP POP JUMP JUMPDEST PUSH1 0x0 PUSH2 0x211A DUP3 PUSH2 0x16FF JUMP JUMPDEST SWAP2 POP PUSH2 0x2125 DUP4 PUSH2 0x16FF JUMP JUMPDEST SWAP3 POP DUP3 DUP3 ADD SWAP1 POP DUP1 DUP3 GT ISZERO PUSH2 0x213D JUMPI PUSH2 0x213C PUSH2 0x1AA4 JUMP JUMPDEST JUMPDEST SWAP3 SWAP2 POP POP JUMP JUMPDEST PUSH1 0x0 PUSH2 0x214E DUP3 PUSH2 0x16FF JUMP JUMPDEST SWAP2 POP PUSH2 0x2159 DUP4 PUSH2 0x16FF JUMP JUMPDEST SWAP3 POP DUP3 DUP3 SUB SWAP1 POP DUP2 DUP2 GT ISZERO PUSH2 0x2171 JUMPI PUSH2 0x2170 PUSH2 0x1AA4 JUMP JUMPDEST JUMPDEST SWAP3 SWAP2 POP POP JUMP JUMPDEST PUSH32 0x4E487B7100000000000000000000000000000000000000000000000000000000 PUSH1 0x0 MSTORE PUSH1 0x31 PUSH1 0x4 MSTORE PUSH1 0x24 PUSH1 0x0 REVERT INVALID LOG2 PUSH5 0x6970667358 0x22 SLT KECCAK256 0xD4 PUSH5 0xDD6BDC2315 0x5D PUSH17 0x5A76F87EC24B4D9F3BD727767C6A486081 DUP5 0x27 0xE9 0xDB PUSH8 0x4A64736F6C634300 ADDMOD GT STOP CALLER "},"gasEstimates":{"creation":{"codeDepositCost":"1733600","executionCost":"infinite","totalCost":"infinite"},"external":{"applicantList(uint256)":"4956","approveApplicant(address)":"infinite","createApplicant(string)":"infinite","getApplicantVoteCount(address)":"2915","getApplicantVoteEndDate(address)":"2885","getApplicantWords(address)":"infinite","getApplicants()":"infinite","memberPoolAddress()":"2536","rejectApplicant(address)":"infinite","voteForApplicant(address)":"infinite"},"internal":{"_burnApplicant(address)":"infinite"}},"methodIdentifiers":{"applicantList(uint256)":"8c468cd4","approveApplicant(address)":"1292a282","createApplicant(string)":"fd591902","getApplicantVoteCount(address)":"d9a87535","getApplicantVoteEndDate(address)":"b672bdcb","getApplicantWords(address)":"00ad808f","getApplicants()":"455772d2","memberPoolAddress()":"930235b4","rejectApplicant(address)":"273f868e","voteForApplicant(address)":"28f4694c"}},"storageLayout":{"storage":[{"astId":18,"contract":"ApplicantPool.sol:ApplicantPool","label":"applicantList","offset":0,"slot":"0","type":"t_array(t_address)dyn_storage"},{"astId":23,"contract":"ApplicantPool.sol:ApplicantPool","label":"applicantVotes","offset":0,"slot":"1","type":"t_mapping(t_address,t_array(t_address)dyn_storage)"},{"astId":27,"contract":"ApplicantPool.sol:ApplicantPool","label":"applicantPoints","offset":0,"slot":"2","type":"t_mapping(t_address,t_int256)"},{"astId":31,"contract":"ApplicantPool.sol:ApplicantPool","label":"activeApplicants","offset":0,"slot":"3","type":"t_mapping(t_address,t_bool)"},{"astId":35,"contract":"ApplicantPool.sol:ApplicantPool","label":"applicantWords","offset":0,"slot":"4","type":"t_mapping(t_address,t_string_storage)"},{"astId":39,"contract":"ApplicantPool.sol:ApplicantPool","label":"voteEndTime","offset":0,"slot":"5","type":"t_mapping(t_address,t_uint256)"},{"astId":42,"contract":"ApplicantPool.sol:ApplicantPool","label":"map","offset":0,"slot":"6","type":"t_contract(MemberMap)743"},{"astId":46,"contract":"ApplicantPool.sol:ApplicantPool","label":"memberPoolAddress","offset":0,"slot":"7","type":"t_address"}],"types":{"t_address":{"encoding":"inplace","label":"address","numberOfBytes":"20"},"t_array(t_address)dyn_storage":{"base":"t_address","encoding":"dynamic_array","label":"address[]","numberOfBytes":"32"},"t_bool":{"encoding":"inplace","label":"bool","numberOfBytes":"1"},"t_contract(MemberMap)743":{"encoding":"inplace","label":"contract MemberMap","numberOfBytes":"20"},"t_int256":{"encoding":"inplace","label":"int256","numberOfBytes":"32"},"t_mapping(t_address,t_array(t_address)dyn_storage)":{"encoding":"mapping","key":"t_address","label":"mapping(address => address[])","numberOfBytes":"32","value":"t_array(t_address)dyn_storage"},"t_mapping(t_address,t_bool)":{"encoding":"mapping","key":"t_address","label":"mapping(address => bool)","numberOfBytes":"32","value":"t_bool"},"t_mapping(t_address,t_int256)":{"encoding":"mapping","key":"t_address","label":"mapping(address => int256)","numberOfBytes":"32","value":"t_int256"},"t_mapping(t_address,t_string_storage)":{"encoding":"mapping","key":"t_address","label":"mapping(address => string)","numberOfBytes":"32","value":"t_string_storage"},"t_mapping(t_address,t_uint256)":{"encoding":"mapping","key":"t_address","label":"mapping(address => uint256)","numberOfBytes":"32","value":"t_uint256"},"t_string_storage":{"encoding":"bytes","label":"string","numberOfBytes":"32"},"t_uint256":{"encoding":"inplace","label":"uint256","numberOfBytes":"32"}}},"userdoc":{"kind":"user","methods":{},"version":1}}