{"abi":[{"inputs":[{"internalType":"address","name":"_applicantPoolAddress","type":"address"},{"internalType":"address","name":"_creator","type":"address"},{"internalType":"string","name":"_name","type":"string"}],"stateMutability":"nonpayable","type":"constructor"},{"anonymous":false,"inputs":[{"indexed":false,"internalType":"address","name":"sender","type":"address"}],"name":"MemberCreated","type":"event"},{"anonymous":false,"inputs":[{"indexed":false,"internalType":"address","name":"sender","type":"address"}],"name":"MemberPunished","type":"event"},{"anonymous":false,"inputs":[{"indexed":false,"internalType":"address","name":"member","type":"address"}],"name":"MemberReportUpdate","type":"event"},{"anonymous":false,"inputs":[{"indexed":false,"internalType":"address","name":"sender","type":"address"}],"name":"MemberRewarded","type":"event"},{"anonymous":false,"inputs":[{"indexed":false,"internalType":"address","name":"sender","type":"address"}],"name":"VoteAgainstMemberEnd","type":"event"},{"anonymous":false,"inputs":[{"indexed":false,"internalType":"address","name":"sender","type":"address"}],"name":"VoteAgainstMemberStart","type":"event"},{"inputs":[{"internalType":"address","name":"applicant","type":"address"}],"name":"admitApplicant","outputs":[],"stateMutability":"nonpayable","type":"function"},{"inputs":[],"name":"applicantPoolAddress","outputs":[{"internalType":"address","name":"","type":"address"}],"stateMutability":"view","type":"function"},{"inputs":[{"internalType":"address","name":"member","type":"address"}],"name":"dismissMemberReport","outputs":[],"stateMutability":"nonpayable","type":"function"},{"inputs":[],"name":"getApplicants","outputs":[{"internalType":"address[]","name":"","type":"address[]"}],"stateMutability":"view","type":"function"},{"inputs":[],"name":"getMemberCount","outputs":[{"internalType":"uint256","name":"","type":"uint256"}],"stateMutability":"view","type":"function"},{"inputs":[{"internalType":"address","name":"member","type":"address"}],"name":"getMemberRep","outputs":[{"internalType":"int32","name":"","type":"int32"}],"stateMutability":"view","type":"function"},{"inputs":[{"internalType":"address","name":"member","type":"address"}],"name":"getMemberReports","outputs":[{"internalType":"string[]","name":"","type":"string[]"}],"stateMutability":"view","type":"function"},{"inputs":[],"name":"getMembers","outputs":[{"internalType":"address[]","name":"","type":"address[]"}],"stateMutability":"view","type":"function"},{"inputs":[{"internalType":"address","name":"member","type":"address"},{"internalType":"string","name":"comment","type":"string"}],"name":"highlightReport","outputs":[],"stateMutability":"nonpayable","type":"function"},{"inputs":[{"internalType":"address","name":"member","type":"address"}],"name":"increaseMemberRep","outputs":[],"stateMutability":"nonpayable","type":"function"},{"inputs":[{"internalType":"address","name":"id","type":"address"}],"name":"isMember","outputs":[{"internalType":"bool","name":"","type":"bool"}],"stateMutability":"view","type":"function"},{"inputs":[],"name":"longSummary","outputs":[{"internalType":"string","name":"","type":"string"}],"stateMutability":"view","type":"function"},{"inputs":[{"internalType":"uint256","name":"","type":"uint256"}],"name":"members","outputs":[{"internalType":"address","name":"","type":"address"}],"stateMutability":"view","type":"function"},{"inputs":[],"name":"name","outputs":[{"internalType":"string","name":"","type":"string"}],"stateMutability":"view","type":"function"},{"inputs":[{"internalType":"address","name":"member","type":"address"},{"internalType":"string","name":"report","type":"string"}],"name":"reportMember","outputs":[{"internalType":"uint32","name":"","type":"uint32"}],"stateMutability":"view","type":"function"},{"inputs":[],"name":"shortSummary","outputs":[{"internalType":"string","name":"","type":"string"}],"stateMutability":"view","type":"function"}],"devdoc":{"kind":"dev","methods":{},"version":1},"evm":{"assembly":"    /* \"MemberPool.sol\":94:3385  contract MemberPool {... */\n  mstore(0x40, 0xa0)\n    /* \"MemberPool.sol\":782:1013  constructor(... */\n  callvalue\n  dup1\n  iszero\n  tag_1\n  jumpi\n  0x00\n  dup1\n  revert\ntag_1:\n  pop\n  mload(0x40)\n  sub(codesize, bytecodeSize)\n  dup1\n  bytecodeSize\n  dup4\n  codecopy\n  dup2\n  dup2\n  add\n  0x40\n  mstore\n  dup2\n  add\n  swap1\n  tag_2\n  swap2\n  swap1\n  tag_3\n  jump\t// in\ntag_2:\n    /* \"MemberPool.sol\":932:953  _applicantPoolAddress */\n  dup3\n    /* \"MemberPool.sol\":909:929  applicantPoolAddress */\n  0x08\n  0x00\n    /* \"MemberPool.sol\":909:953  applicantPoolAddress = _applicantPoolAddress */\n  0x0100\n  exp\n  dup2\n  sload\n  dup2\n  0xffffffffffffffffffffffffffffffffffffffff\n  mul\n  not\n  and\n  swap1\n  dup4\n  0xffffffffffffffffffffffffffffffffffffffff\n  and\n  mul\n  or\n  swap1\n  sstore\n  pop\n    /* \"MemberPool.sol\":974:982  _creator */\n  dup2\n    /* \"MemberPool.sol\":964:982  creator = _creator */\n  0xffffffffffffffffffffffffffffffffffffffff\n  and\n  0x80\n  dup2\n  0xffffffffffffffffffffffffffffffffffffffff\n  and\n  dup2\n  mstore\n  pop\n  pop\n    /* \"MemberPool.sol\":1000:1005  _name */\n  dup1\n    /* \"MemberPool.sol\":993:997  name */\n  0x00\n    /* \"MemberPool.sol\":993:1005  name = _name */\n  swap1\n  dup2\n  tag_6\n  swap2\n  swap1\n  tag_7\n  jump\t// in\ntag_6:\n  pop\n    /* \"MemberPool.sol\":782:1013  constructor(... */\n  pop\n  pop\n  pop\n    /* \"MemberPool.sol\":94:3385  contract MemberPool {... */\n  jump(tag_8)\n    /* \"#utility.yul\":7:82   */\ntag_9:\n    /* \"#utility.yul\":40:46   */\n  0x00\n    /* \"#utility.yul\":73:75   */\n  0x40\n    /* \"#utility.yul\":67:76   */\n  mload\n    /* \"#utility.yul\":57:76   */\n  swap1\n  pop\n    /* \"#utility.yul\":7:82   */\n  swap1\n  jump\t// out\n    /* \"#utility.yul\":88:205   */\ntag_10:\n    /* \"#utility.yul\":197:198   */\n  0x00\n    /* \"#utility.yul\":194:195   */\n  dup1\n    /* \"#utility.yul\":187:199   */\n  revert\n    /* \"#utility.yul\":211:328   */\ntag_11:\n    /* \"#utility.yul\":320:321   */\n  0x00\n    /* \"#utility.yul\":317:318   */\n  dup1\n    /* \"#utility.yul\":310:322   */\n  revert\n    /* \"#utility.yul\":334:460   */\ntag_12:\n    /* \"#utility.yul\":371:378   */\n  0x00\n    /* \"#utility.yul\":411:453   */\n  0xffffffffffffffffffffffffffffffffffffffff\n    /* \"#utility.yul\":404:409   */\n  dup3\n    /* \"#utility.yul\":400:454   */\n  and\n    /* \"#utility.yul\":389:454   */\n  swap1\n  pop\n    /* \"#utility.yul\":334:460   */\n  swap2\n  swap1\n  pop\n  jump\t// out\n    /* \"#utility.yul\":466:562   */\ntag_13:\n    /* \"#utility.yul\":503:510   */\n  0x00\n    /* \"#utility.yul\":532:556   */\n  tag_51\n    /* \"#utility.yul\":550:555   */\n  dup3\n    /* \"#utility.yul\":532:556   */\n  tag_12\n  jump\t// in\ntag_51:\n    /* \"#utility.yul\":521:556   */\n  swap1\n  pop\n    /* \"#utility.yul\":466:562   */\n  swap2\n  swap1\n  pop\n  jump\t// out\n    /* \"#utility.yul\":568:690   */\ntag_14:\n    /* \"#utility.yul\":641:665   */\n  tag_53\n    /* \"#utility.yul\":659:664   */\n  dup2\n    /* \"#utility.yul\":641:665   */\n  tag_13\n  jump\t// in\ntag_53:\n    /* \"#utility.yul\":634:639   */\n  dup2\n    /* \"#utility.yul\":631:666   */\n  eq\n    /* \"#utility.yul\":621:684   */\n  tag_54\n  jumpi\n    /* \"#utility.yul\":680:681   */\n  0x00\n    /* \"#utility.yul\":677:678   */\n  dup1\n    /* \"#utility.yul\":670:682   */\n  revert\n    /* \"#utility.yul\":621:684   */\ntag_54:\n    /* \"#utility.yul\":568:690   */\n  pop\n  jump\t// out\n    /* \"#utility.yul\":696:839   */\ntag_15:\n    /* \"#utility.yul\":753:758   */\n  0x00\n    /* \"#utility.yul\":784:790   */\n  dup2\n    /* \"#utility.yul\":778:791   */\n  mload\n    /* \"#utility.yul\":769:791   */\n  swap1\n  pop\n    /* \"#utility.yul\":800:833   */\n  tag_56\n    /* \"#utility.yul\":827:832   */\n  dup2\n    /* \"#utility.yul\":800:833   */\n  tag_14\n  jump\t// in\ntag_56:\n    /* \"#utility.yul\":696:839   */\n  swap3\n  swap2\n  pop\n  pop\n  jump\t// out\n    /* \"#utility.yul\":845:962   */\ntag_16:\n    /* \"#utility.yul\":954:955   */\n  0x00\n    /* \"#utility.yul\":951:952   */\n  dup1\n    /* \"#utility.yul\":944:956   */\n  revert\n    /* \"#utility.yul\":968:1085   */\ntag_17:\n    /* \"#utility.yul\":1077:1078   */\n  0x00\n    /* \"#utility.yul\":1074:1075   */\n  dup1\n    /* \"#utility.yul\":1067:1079   */\n  revert\n    /* \"#utility.yul\":1091:1193   */\ntag_18:\n    /* \"#utility.yul\":1132:1138   */\n  0x00\n    /* \"#utility.yul\":1183:1185   */\n  0x1f\n    /* \"#utility.yul\":1179:1186   */\n  not\n    /* \"#utility.yul\":1174:1176   */\n  0x1f\n    /* \"#utility.yul\":1167:1172   */\n  dup4\n    /* \"#utility.yul\":1163:1177   */\n  add\n    /* \"#utility.yul\":1159:1187   */\n  and\n    /* \"#utility.yul\":1149:1187   */\n  swap1\n  pop\n    /* \"#utility.yul\":1091:1193   */\n  swap2\n  swap1\n  pop\n  jump\t// out\n    /* \"#utility.yul\":1199:1379   */\ntag_19:\n    /* \"#utility.yul\":1247:1324   */\n  0x4e487b7100000000000000000000000000000000000000000000000000000000\n    /* \"#utility.yul\":1244:1245   */\n  0x00\n    /* \"#utility.yul\":1237:1325   */\n  mstore\n    /* \"#utility.yul\":1344:1348   */\n  0x41\n    /* \"#utility.yul\":1341:1342   */\n  0x04\n    /* \"#utility.yul\":1334:1349   */\n  mstore\n    /* \"#utility.yul\":1368:1372   */\n  0x24\n    /* \"#utility.yul\":1365:1366   */\n  0x00\n    /* \"#utility.yul\":1358:1373   */\n  revert\n    /* \"#utility.yul\":1385:1666   */\ntag_20:\n    /* \"#utility.yul\":1468:1495   */\n  tag_62\n    /* \"#utility.yul\":1490:1494   */\n  dup3\n    /* \"#utility.yul\":1468:1495   */\n  tag_18\n  jump\t// in\ntag_62:\n    /* \"#utility.yul\":1460:1466   */\n  dup2\n    /* \"#utility.yul\":1456:1496   */\n  add\n    /* \"#utility.yul\":1598:1604   */\n  dup2\n    /* \"#utility.yul\":1586:1596   */\n  dup2\n    /* \"#utility.yul\":1583:1605   */\n  lt\n    /* \"#utility.yul\":1562:1580   */\n  0xffffffffffffffff\n    /* \"#utility.yul\":1550:1560   */\n  dup3\n    /* \"#utility.yul\":1547:1581   */\n  gt\n    /* \"#utility.yul\":1544:1606   */\n  or\n    /* \"#utility.yul\":1541:1629   */\n  iszero\n  tag_63\n  jumpi\n    /* \"#utility.yul\":1609:1627   */\n  tag_64\n  tag_19\n  jump\t// in\ntag_64:\n    /* \"#utility.yul\":1541:1629   */\ntag_63:\n    /* \"#utility.yul\":1649:1659   */\n  dup1\n    /* \"#utility.yul\":1645:1647   */\n  0x40\n    /* \"#utility.yul\":1638:1660   */\n  mstore\n    /* \"#utility.yul\":1428:1666   */\n  pop\n    /* \"#utility.yul\":1385:1666   */\n  pop\n  pop\n  jump\t// out\n    /* \"#utility.yul\":1672:1801   */\ntag_21:\n    /* \"#utility.yul\":1706:1712   */\n  0x00\n    /* \"#utility.yul\":1733:1753   */\n  tag_66\n  tag_9\n  jump\t// in\ntag_66:\n    /* \"#utility.yul\":1723:1753   */\n  swap1\n  pop\n    /* \"#utility.yul\":1762:1795   */\n  tag_67\n    /* \"#utility.yul\":1790:1794   */\n  dup3\n    /* \"#utility.yul\":1782:1788   */\n  dup3\n    /* \"#utility.yul\":1762:1795   */\n  tag_20\n  jump\t// in\ntag_67:\n    /* \"#utility.yul\":1672:1801   */\n  swap2\n  swap1\n  pop\n  jump\t// out\n    /* \"#utility.yul\":1807:2115   */\ntag_22:\n    /* \"#utility.yul\":1869:1873   */\n  0x00\n    /* \"#utility.yul\":1959:1977   */\n  0xffffffffffffffff\n    /* \"#utility.yul\":1951:1957   */\n  dup3\n    /* \"#utility.yul\":1948:1978   */\n  gt\n    /* \"#utility.yul\":1945:2001   */\n  iszero\n  tag_69\n  jumpi\n    /* \"#utility.yul\":1981:1999   */\n  tag_70\n  tag_19\n  jump\t// in\ntag_70:\n    /* \"#utility.yul\":1945:2001   */\ntag_69:\n    /* \"#utility.yul\":2019:2048   */\n  tag_71\n    /* \"#utility.yul\":2041:2047   */\n  dup3\n    /* \"#utility.yul\":2019:2048   */\n  tag_18\n  jump\t// in\ntag_71:\n    /* \"#utility.yul\":2011:2048   */\n  swap1\n  pop\n    /* \"#utility.yul\":2103:2107   */\n  0x20\n    /* \"#utility.yul\":2097:2101   */\n  dup2\n    /* \"#utility.yul\":2093:2108   */\n  add\n    /* \"#utility.yul\":2085:2108   */\n  swap1\n  pop\n    /* \"#utility.yul\":1807:2115   */\n  swap2\n  swap1\n  pop\n  jump\t// out\n    /* \"#utility.yul\":2121:2367   */\ntag_23:\n    /* \"#utility.yul\":2202:2203   */\n  0x00\n    /* \"#utility.yul\":2212:2325   */\ntag_73:\n    /* \"#utility.yul\":2226:2232   */\n  dup4\n    /* \"#utility.yul\":2223:2224   */\n  dup2\n    /* \"#utility.yul\":2220:2233   */\n  lt\n    /* \"#utility.yul\":2212:2325   */\n  iszero\n  tag_75\n  jumpi\n    /* \"#utility.yul\":2311:2312   */\n  dup1\n    /* \"#utility.yul\":2306:2309   */\n  dup3\n    /* \"#utility.yul\":2302:2313   */\n  add\n    /* \"#utility.yul\":2296:2314   */\n  mload\n    /* \"#utility.yul\":2292:2293   */\n  dup2\n    /* \"#utility.yul\":2287:2290   */\n  dup5\n    /* \"#utility.yul\":2283:2294   */\n  add\n    /* \"#utility.yul\":2276:2315   */\n  mstore\n    /* \"#utility.yul\":2248:2250   */\n  0x20\n    /* \"#utility.yul\":2245:2246   */\n  dup2\n    /* \"#utility.yul\":2241:2251   */\n  add\n    /* \"#utility.yul\":2236:2251   */\n  swap1\n  pop\n    /* \"#utility.yul\":2212:2325   */\n  jump(tag_73)\ntag_75:\n    /* \"#utility.yul\":2359:2360   */\n  0x00\n    /* \"#utility.yul\":2350:2356   */\n  dup5\n    /* \"#utility.yul\":2345:2348   */\n  dup5\n    /* \"#utility.yul\":2341:2357   */\n  add\n    /* \"#utility.yul\":2334:2361   */\n  mstore\n    /* \"#utility.yul\":2183:2367   */\n  pop\n    /* \"#utility.yul\":2121:2367   */\n  pop\n  pop\n  pop\n  jump\t// out\n    /* \"#utility.yul\":2373:2807   */\ntag_24:\n    /* \"#utility.yul\":2462:2467   */\n  0x00\n    /* \"#utility.yul\":2487:2553   */\n  tag_77\n    /* \"#utility.yul\":2503:2552   */\n  tag_78\n    /* \"#utility.yul\":2545:2551   */\n  dup5\n    /* \"#utility.yul\":2503:2552   */\n  tag_22\n  jump\t// in\ntag_78:\n    /* \"#utility.yul\":2487:2553   */\n  tag_21\n  jump\t// in\ntag_77:\n    /* \"#utility.yul\":2478:2553   */\n  swap1\n  pop\n    /* \"#utility.yul\":2576:2582   */\n  dup3\n    /* \"#utility.yul\":2569:2574   */\n  dup2\n    /* \"#utility.yul\":2562:2583   */\n  mstore\n    /* \"#utility.yul\":2614:2618   */\n  0x20\n    /* \"#utility.yul\":2607:2612   */\n  dup2\n    /* \"#utility.yul\":2603:2619   */\n  add\n    /* \"#utility.yul\":2652:2655   */\n  dup5\n    /* \"#utility.yul\":2643:2649   */\n  dup5\n    /* \"#utility.yul\":2638:2641   */\n  dup5\n    /* \"#utility.yul\":2634:2650   */\n  add\n    /* \"#utility.yul\":2631:2656   */\n  gt\n    /* \"#utility.yul\":2628:2740   */\n  iszero\n  tag_79\n  jumpi\n    /* \"#utility.yul\":2659:2738   */\n  tag_80\n  tag_17\n  jump\t// in\ntag_80:\n    /* \"#utility.yul\":2628:2740   */\ntag_79:\n    /* \"#utility.yul\":2749:2801   */\n  tag_81\n    /* \"#utility.yul\":2794:2800   */\n  dup5\n    /* \"#utility.yul\":2789:2792   */\n  dup3\n    /* \"#utility.yul\":2784:2787   */\n  dup6\n    /* \"#utility.yul\":2749:2801   */\n  tag_23\n  jump\t// in\ntag_81:\n    /* \"#utility.yul\":2468:2807   */\n  pop\n    /* \"#utility.yul\":2373:2807   */\n  swap4\n  swap3\n  pop\n  pop\n  pop\n  jump\t// out\n    /* \"#utility.yul\":2827:3182   */\ntag_25:\n    /* \"#utility.yul\":2894:2899   */\n  0x00\n    /* \"#utility.yul\":2943:2946   */\n  dup3\n    /* \"#utility.yul\":2936:2940   */\n  0x1f\n    /* \"#utility.yul\":2928:2934   */\n  dup4\n    /* \"#utility.yul\":2924:2941   */\n  add\n    /* \"#utility.yul\":2920:2947   */\n  slt\n    /* \"#utility.yul\":2910:3032   */\n  tag_83\n  jumpi\n    /* \"#utility.yul\":2951:3030   */\n  tag_84\n  tag_16\n  jump\t// in\ntag_84:\n    /* \"#utility.yul\":2910:3032   */\ntag_83:\n    /* \"#utility.yul\":3061:3067   */\n  dup2\n    /* \"#utility.yul\":3055:3068   */\n  mload\n    /* \"#utility.yul\":3086:3176   */\n  tag_85\n    /* \"#utility.yul\":3172:3175   */\n  dup5\n    /* \"#utility.yul\":3164:3170   */\n  dup3\n    /* \"#utility.yul\":3157:3161   */\n  0x20\n    /* \"#utility.yul\":3149:3155   */\n  dup7\n    /* \"#utility.yul\":3145:3162   */\n  add\n    /* \"#utility.yul\":3086:3176   */\n  tag_24\n  jump\t// in\ntag_85:\n    /* \"#utility.yul\":3077:3176   */\n  swap2\n  pop\n    /* \"#utility.yul\":2900:3182   */\n  pop\n    /* \"#utility.yul\":2827:3182   */\n  swap3\n  swap2\n  pop\n  pop\n  jump\t// out\n    /* \"#utility.yul\":3188:4024   */\ntag_3:\n    /* \"#utility.yul\":3286:3292   */\n  0x00\n    /* \"#utility.yul\":3294:3300   */\n  dup1\n    /* \"#utility.yul\":3302:3308   */\n  0x00\n    /* \"#utility.yul\":3351:3353   */\n  0x60\n    /* \"#utility.yul\":3339:3348   */\n  dup5\n    /* \"#utility.yul\":3330:3337   */\n  dup7\n    /* \"#utility.yul\":3326:3349   */\n  sub\n    /* \"#utility.yul\":3322:3354   */\n  slt\n    /* \"#utility.yul\":3319:3438   */\n  iszero\n  tag_87\n  jumpi\n    /* \"#utility.yul\":3357:3436   */\n  tag_88\n  tag_10\n  jump\t// in\ntag_88:\n    /* \"#utility.yul\":3319:3438   */\ntag_87:\n    /* \"#utility.yul\":3477:3478   */\n  0x00\n    /* \"#utility.yul\":3502:3566   */\n  tag_89\n    /* \"#utility.yul\":3558:3565   */\n  dup7\n    /* \"#utility.yul\":3549:3555   */\n  dup3\n    /* \"#utility.yul\":3538:3547   */\n  dup8\n    /* \"#utility.yul\":3534:3556   */\n  add\n    /* \"#utility.yul\":3502:3566   */\n  tag_15\n  jump\t// in\ntag_89:\n    /* \"#utility.yul\":3492:3566   */\n  swap4\n  pop\n    /* \"#utility.yul\":3448:3576   */\n  pop\n    /* \"#utility.yul\":3615:3617   */\n  0x20\n    /* \"#utility.yul\":3641:3705   */\n  tag_90\n    /* \"#utility.yul\":3697:3704   */\n  dup7\n    /* \"#utility.yul\":3688:3694   */\n  dup3\n    /* \"#utility.yul\":3677:3686   */\n  dup8\n    /* \"#utility.yul\":3673:3695   */\n  add\n    /* \"#utility.yul\":3641:3705   */\n  tag_15\n  jump\t// in\ntag_90:\n    /* \"#utility.yul\":3631:3705   */\n  swap3\n  pop\n    /* \"#utility.yul\":3586:3715   */\n  pop\n    /* \"#utility.yul\":3775:3777   */\n  0x40\n    /* \"#utility.yul\":3764:3773   */\n  dup5\n    /* \"#utility.yul\":3760:3778   */\n  add\n    /* \"#utility.yul\":3754:3779   */\n  mload\n    /* \"#utility.yul\":3806:3824   */\n  0xffffffffffffffff\n    /* \"#utility.yul\":3798:3804   */\n  dup2\n    /* \"#utility.yul\":3795:3825   */\n  gt\n    /* \"#utility.yul\":3792:3909   */\n  iszero\n  tag_91\n  jumpi\n    /* \"#utility.yul\":3828:3907   */\n  tag_92\n  tag_11\n  jump\t// in\ntag_92:\n    /* \"#utility.yul\":3792:3909   */\ntag_91:\n    /* \"#utility.yul\":3933:4007   */\n  tag_93\n    /* \"#utility.yul\":3999:4006   */\n  dup7\n    /* \"#utility.yul\":3990:3996   */\n  dup3\n    /* \"#utility.yul\":3979:3988   */\n  dup8\n    /* \"#utility.yul\":3975:3997   */\n  add\n    /* \"#utility.yul\":3933:4007   */\n  tag_25\n  jump\t// in\ntag_93:\n    /* \"#utility.yul\":3923:4007   */\n  swap2\n  pop\n    /* \"#utility.yul\":3725:4017   */\n  pop\n    /* \"#utility.yul\":3188:4024   */\n  swap3\n  pop\n  swap3\n  pop\n  swap3\n  jump\t// out\n    /* \"#utility.yul\":4030:4129   */\ntag_26:\n    /* \"#utility.yul\":4082:4088   */\n  0x00\n    /* \"#utility.yul\":4116:4121   */\n  dup2\n    /* \"#utility.yul\":4110:4122   */\n  mload\n    /* \"#utility.yul\":4100:4122   */\n  swap1\n  pop\n    /* \"#utility.yul\":4030:4129   */\n  swap2\n  swap1\n  pop\n  jump\t// out\n    /* \"#utility.yul\":4135:4315   */\ntag_27:\n    /* \"#utility.yul\":4183:4260   */\n  0x4e487b7100000000000000000000000000000000000000000000000000000000\n    /* \"#utility.yul\":4180:4181   */\n  0x00\n    /* \"#utility.yul\":4173:4261   */\n  mstore\n    /* \"#utility.yul\":4280:4284   */\n  0x22\n    /* \"#utility.yul\":4277:4278   */\n  0x04\n    /* \"#utility.yul\":4270:4285   */\n  mstore\n    /* \"#utility.yul\":4304:4308   */\n  0x24\n    /* \"#utility.yul\":4301:4302   */\n  0x00\n    /* \"#utility.yul\":4294:4309   */\n  revert\n    /* \"#utility.yul\":4321:4641   */\ntag_28:\n    /* \"#utility.yul\":4365:4371   */\n  0x00\n    /* \"#utility.yul\":4402:4403   */\n  0x02\n    /* \"#utility.yul\":4396:4400   */\n  dup3\n    /* \"#utility.yul\":4392:4404   */\n  div\n    /* \"#utility.yul\":4382:4404   */\n  swap1\n  pop\n    /* \"#utility.yul\":4449:4450   */\n  0x01\n    /* \"#utility.yul\":4443:4447   */\n  dup3\n    /* \"#utility.yul\":4439:4451   */\n  and\n    /* \"#utility.yul\":4470:4488   */\n  dup1\n    /* \"#utility.yul\":4460:4541   */\n  tag_97\n  jumpi\n    /* \"#utility.yul\":4526:4530   */\n  0x7f\n    /* \"#utility.yul\":4518:4524   */\n  dup3\n    /* \"#utility.yul\":4514:4531   */\n  and\n    /* \"#utility.yul\":4504:4531   */\n  swap2\n  pop\n    /* \"#utility.yul\":4460:4541   */\ntag_97:\n    /* \"#utility.yul\":4588:4590   */\n  0x20\n    /* \"#utility.yul\":4580:4586   */\n  dup3\n    /* \"#utility.yul\":4577:4591   */\n  lt\n    /* \"#utility.yul\":4557:4575   */\n  dup2\n    /* \"#utility.yul\":4554:4592   */\n  sub\n    /* \"#utility.yul\":4551:4635   */\n  tag_98\n  jumpi\n    /* \"#utility.yul\":4607:4625   */\n  tag_99\n  tag_27\n  jump\t// in\ntag_99:\n    /* \"#utility.yul\":4551:4635   */\ntag_98:\n    /* \"#utility.yul\":4372:4641   */\n  pop\n    /* \"#utility.yul\":4321:4641   */\n  swap2\n  swap1\n  pop\n  jump\t// out\n    /* \"#utility.yul\":4647:4788   */\ntag_29:\n    /* \"#utility.yul\":4696:4700   */\n  0x00\n    /* \"#utility.yul\":4719:4722   */\n  dup2\n    /* \"#utility.yul\":4711:4722   */\n  swap1\n  pop\n    /* \"#utility.yul\":4742:4745   */\n  dup2\n    /* \"#utility.yul\":4739:4740   */\n  0x00\n    /* \"#utility.yul\":4732:4746   */\n  mstore\n    /* \"#utility.yul\":4776:4780   */\n  0x20\n    /* \"#utility.yul\":4773:4774   */\n  0x00\n    /* \"#utility.yul\":4763:4781   */\n  keccak256\n    /* \"#utility.yul\":4755:4781   */\n  swap1\n  pop\n    /* \"#utility.yul\":4647:4788   */\n  swap2\n  swap1\n  pop\n  jump\t// out\n    /* \"#utility.yul\":4794:4887   */\ntag_30:\n    /* \"#utility.yul\":4831:4837   */\n  0x00\n    /* \"#utility.yul\":4878:4880   */\n  0x20\n    /* \"#utility.yul\":4873:4875   */\n  0x1f\n    /* \"#utility.yul\":4866:4871   */\n  dup4\n    /* \"#utility.yul\":4862:4876   */\n  add\n    /* \"#utility.yul\":4858:4881   */\n  div\n    /* \"#utility.yul\":4848:4881   */\n  swap1\n  pop\n    /* \"#utility.yul\":4794:4887   */\n  swap2\n  swap1\n  pop\n  jump\t// out\n    /* \"#utility.yul\":4893:5000   */\ntag_31:\n    /* \"#utility.yul\":4937:4945   */\n  0x00\n    /* \"#utility.yul\":4987:4992   */\n  dup3\n    /* \"#utility.yul\":4981:4985   */\n  dup3\n    /* \"#utility.yul\":4977:4993   */\n  shl\n    /* \"#utility.yul\":4956:4993   */\n  swap1\n  pop\n    /* \"#utility.yul\":4893:5000   */\n  swap3\n  swap2\n  pop\n  pop\n  jump\t// out\n    /* \"#utility.yul\":5006:5399   */\ntag_32:\n    /* \"#utility.yul\":5075:5081   */\n  0x00\n    /* \"#utility.yul\":5125:5126   */\n  0x08\n    /* \"#utility.yul\":5113:5123   */\n  dup4\n    /* \"#utility.yul\":5109:5127   */\n  mul\n    /* \"#utility.yul\":5148:5245   */\n  tag_104\n    /* \"#utility.yul\":5178:5244   */\n  0xffffffffffffffffffffffffffffffffffffffffffffffffffffffffffffffff\n    /* \"#utility.yul\":5167:5176   */\n  dup3\n    /* \"#utility.yul\":5148:5245   */\n  tag_31\n  jump\t// in\ntag_104:\n    /* \"#utility.yul\":5266:5305   */\n  tag_105\n    /* \"#utility.yul\":5296:5304   */\n  dup7\n    /* \"#utility.yul\":5285:5294   */\n  dup4\n    /* \"#utility.yul\":5266:5305   */\n  tag_31\n  jump\t// in\ntag_105:\n    /* \"#utility.yul\":5254:5305   */\n  swap6\n  pop\n    /* \"#utility.yul\":5338:5342   */\n  dup1\n    /* \"#utility.yul\":5334:5343   */\n  not\n    /* \"#utility.yul\":5327:5332   */\n  dup5\n    /* \"#utility.yul\":5323:5344   */\n  and\n    /* \"#utility.yul\":5314:5344   */\n  swap4\n  pop\n    /* \"#utility.yul\":5387:5391   */\n  dup1\n    /* \"#utility.yul\":5377:5385   */\n  dup7\n    /* \"#utility.yul\":5373:5392   */\n  and\n    /* \"#utility.yul\":5366:5371   */\n  dup5\n    /* \"#utility.yul\":5363:5393   */\n  or\n    /* \"#utility.yul\":5353:5393   */\n  swap3\n  pop\n    /* \"#utility.yul\":5082:5399   */\n  pop\n  pop\n    /* \"#utility.yul\":5006:5399   */\n  swap4\n  swap3\n  pop\n  pop\n  pop\n  jump\t// out\n    /* \"#utility.yul\":5405:5482   */\ntag_33:\n    /* \"#utility.yul\":5442:5449   */\n  0x00\n    /* \"#utility.yul\":5471:5476   */\n  dup2\n    /* \"#utility.yul\":5460:5476   */\n  swap1\n  pop\n    /* \"#utility.yul\":5405:5482   */\n  swap2\n  swap1\n  pop\n  jump\t// out\n    /* \"#utility.yul\":5488:5548   */\ntag_34:\n    /* \"#utility.yul\":5516:5519   */\n  0x00\n    /* \"#utility.yul\":5537:5542   */\n  dup2\n    /* \"#utility.yul\":5530:5542   */\n  swap1\n  pop\n    /* \"#utility.yul\":5488:5548   */\n  swap2\n  swap1\n  pop\n  jump\t// out\n    /* \"#utility.yul\":5554:5696   */\ntag_35:\n    /* \"#utility.yul\":5604:5613   */\n  0x00\n    /* \"#utility.yul\":5637:5690   */\n  tag_109\n    /* \"#utility.yul\":5655:5689   */\n  tag_110\n    /* \"#utility.yul\":5664:5688   */\n  tag_111\n    /* \"#utility.yul\":5682:5687   */\n  dup5\n    /* \"#utility.yul\":5664:5688   */\n  tag_33\n  jump\t// in\ntag_111:\n    /* \"#utility.yul\":5655:5689   */\n  tag_34\n  jump\t// in\ntag_110:\n    /* \"#utility.yul\":5637:5690   */\n  tag_33\n  jump\t// in\ntag_109:\n    /* \"#utility.yul\":5624:5690   */\n  swap1\n  pop\n    /* \"#utility.yul\":5554:5696   */\n  swap2\n  swap1\n  pop\n  jump\t// out\n    /* \"#utility.yul\":5702:5777   */\ntag_36:\n    /* \"#utility.yul\":5745:5748   */\n  0x00\n    /* \"#utility.yul\":5766:5771   */\n  dup2\n    /* \"#utility.yul\":5759:5771   */\n  swap1\n  pop\n    /* \"#utility.yul\":5702:5777   */\n  swap2\n  swap1\n  pop\n  jump\t// out\n    /* \"#utility.yul\":5783:6052   */\ntag_37:\n    /* \"#utility.yul\":5893:5932   */\n  tag_114\n    /* \"#utility.yul\":5924:5931   */\n  dup4\n    /* \"#utility.yul\":5893:5932   */\n  tag_35\n  jump\t// in\ntag_114:\n    /* \"#utility.yul\":5954:6045   */\n  tag_115\n    /* \"#utility.yul\":6003:6044   */\n  tag_116\n    /* \"#utility.yul\":6027:6043   */\n  dup3\n    /* \"#utility.yul\":6003:6044   */\n  tag_36\n  jump\t// in\ntag_116:\n    /* \"#utility.yul\":5995:6001   */\n  dup5\n    /* \"#utility.yul\":5988:5992   */\n  dup5\n    /* \"#utility.yul\":5982:5993   */\n  sload\n    /* \"#utility.yul\":5954:6045   */\n  tag_32\n  jump\t// in\ntag_115:\n    /* \"#utility.yul\":5948:5952   */\n  dup3\n    /* \"#utility.yul\":5941:6046   */\n  sstore\n    /* \"#utility.yul\":5859:6052   */\n  pop\n    /* \"#utility.yul\":5783:6052   */\n  pop\n  pop\n  pop\n  jump\t// out\n    /* \"#utility.yul\":6058:6131   */\ntag_38:\n    /* \"#utility.yul\":6103:6106   */\n  0x00\n    /* \"#utility.yul\":6058:6131   */\n  swap1\n  jump\t// out\n    /* \"#utility.yul\":6137:6326   */\ntag_39:\n    /* \"#utility.yul\":6214:6246   */\n  tag_119\n  tag_38\n  jump\t// in\ntag_119:\n    /* \"#utility.yul\":6255:6320   */\n  tag_120\n    /* \"#utility.yul\":6313:6319   */\n  dup2\n    /* \"#utility.yul\":6305:6311   */\n  dup5\n    /* \"#utility.yul\":6299:6303   */\n  dup5\n    /* \"#utility.yul\":6255:6320   */\n  tag_37\n  jump\t// in\ntag_120:\n    /* \"#utility.yul\":6190:6326   */\n  pop\n    /* \"#utility.yul\":6137:6326   */\n  pop\n  pop\n  jump\t// out\n    /* \"#utility.yul\":6332:6518   */\ntag_40:\n    /* \"#utility.yul\":6392:6512   */\ntag_122:\n    /* \"#utility.yul\":6409:6412   */\n  dup2\n    /* \"#utility.yul\":6402:6407   */\n  dup2\n    /* \"#utility.yul\":6399:6413   */\n  lt\n    /* \"#utility.yul\":6392:6512   */\n  iszero\n  tag_124\n  jumpi\n    /* \"#utility.yul\":6463:6502   */\n  tag_125\n    /* \"#utility.yul\":6500:6501   */\n  0x00\n    /* \"#utility.yul\":6493:6498   */\n  dup3\n    /* \"#utility.yul\":6463:6502   */\n  tag_39\n  jump\t// in\ntag_125:\n    /* \"#utility.yul\":6436:6437   */\n  0x01\n    /* \"#utility.yul\":6429:6434   */\n  dup2\n    /* \"#utility.yul\":6425:6438   */\n  add\n    /* \"#utility.yul\":6416:6438   */\n  swap1\n  pop\n    /* \"#utility.yul\":6392:6512   */\n  jump(tag_122)\ntag_124:\n    /* \"#utility.yul\":6332:6518   */\n  pop\n  pop\n  jump\t// out\n    /* \"#utility.yul\":6524:7067   */\ntag_41:\n    /* \"#utility.yul\":6625:6627   */\n  0x1f\n    /* \"#utility.yul\":6620:6623   */\n  dup3\n    /* \"#utility.yul\":6617:6628   */\n  gt\n    /* \"#utility.yul\":6614:7060   */\n  iszero\n  tag_127\n  jumpi\n    /* \"#utility.yul\":6659:6697   */\n  tag_128\n    /* \"#utility.yul\":6691:6696   */\n  dup2\n    /* \"#utility.yul\":6659:6697   */\n  tag_29\n  jump\t// in\ntag_128:\n    /* \"#utility.yul\":6743:6772   */\n  tag_129\n    /* \"#utility.yul\":6761:6771   */\n  dup5\n    /* \"#utility.yul\":6743:6772   */\n  tag_30\n  jump\t// in\ntag_129:\n    /* \"#utility.yul\":6733:6741   */\n  dup2\n    /* \"#utility.yul\":6729:6773   */\n  add\n    /* \"#utility.yul\":6926:6928   */\n  0x20\n    /* \"#utility.yul\":6914:6924   */\n  dup6\n    /* \"#utility.yul\":6911:6929   */\n  lt\n    /* \"#utility.yul\":6908:6957   */\n  iszero\n  tag_130\n  jumpi\n    /* \"#utility.yul\":6947:6955   */\n  dup2\n    /* \"#utility.yul\":6932:6955   */\n  swap1\n  pop\n    /* \"#utility.yul\":6908:6957   */\ntag_130:\n    /* \"#utility.yul\":6970:7050   */\n  tag_131\n    /* \"#utility.yul\":7026:7048   */\n  tag_132\n    /* \"#utility.yul\":7044:7047   */\n  dup6\n    /* \"#utility.yul\":7026:7048   */\n  tag_30\n  jump\t// in\ntag_132:\n    /* \"#utility.yul\":7016:7024   */\n  dup4\n    /* \"#utility.yul\":7012:7049   */\n  add\n    /* \"#utility.yul\":6999:7010   */\n  dup3\n    /* \"#utility.yul\":6970:7050   */\n  tag_40\n  jump\t// in\ntag_131:\n    /* \"#utility.yul\":6629:7060   */\n  pop\n  pop\n    /* \"#utility.yul\":6614:7060   */\ntag_127:\n    /* \"#utility.yul\":6524:7067   */\n  pop\n  pop\n  pop\n  jump\t// out\n    /* \"#utility.yul\":7073:7190   */\ntag_42:\n    /* \"#utility.yul\":7127:7135   */\n  0x00\n    /* \"#utility.yul\":7177:7182   */\n  dup3\n    /* \"#utility.yul\":7171:7175   */\n  dup3\n    /* \"#utility.yul\":7167:7183   */\n  shr\n    /* \"#utility.yul\":7146:7183   */\n  swap1\n  pop\n    /* \"#utility.yul\":7073:7190   */\n  swap3\n  swap2\n  pop\n  pop\n  jump\t// out\n    /* \"#utility.yul\":7196:7365   */\ntag_43:\n    /* \"#utility.yul\":7240:7246   */\n  0x00\n    /* \"#utility.yul\":7273:7324   */\n  tag_135\n    /* \"#utility.yul\":7321:7322   */\n  0x00\n    /* \"#utility.yul\":7317:7323   */\n  not\n    /* \"#utility.yul\":7309:7314   */\n  dup5\n    /* \"#utility.yul\":7306:7307   */\n  0x08\n    /* \"#utility.yul\":7302:7315   */\n  mul\n    /* \"#utility.yul\":7273:7324   */\n  tag_42\n  jump\t// in\ntag_135:\n    /* \"#utility.yul\":7269:7325   */\n  not\n    /* \"#utility.yul\":7354:7358   */\n  dup1\n    /* \"#utility.yul\":7348:7352   */\n  dup4\n    /* \"#utility.yul\":7344:7359   */\n  and\n    /* \"#utility.yul\":7334:7359   */\n  swap2\n  pop\n    /* \"#utility.yul\":7247:7365   */\n  pop\n    /* \"#utility.yul\":7196:7365   */\n  swap3\n  swap2\n  pop\n  pop\n  jump\t// out\n    /* \"#utility.yul\":7370:7665   */\ntag_44:\n    /* \"#utility.yul\":7446:7450   */\n  0x00\n    /* \"#utility.yul\":7592:7621   */\n  tag_137\n    /* \"#utility.yul\":7617:7620   */\n  dup4\n    /* \"#utility.yul\":7611:7615   */\n  dup4\n    /* \"#utility.yul\":7592:7621   */\n  tag_43\n  jump\t// in\ntag_137:\n    /* \"#utility.yul\":7584:7621   */\n  swap2\n  pop\n    /* \"#utility.yul\":7654:7657   */\n  dup3\n    /* \"#utility.yul\":7651:7652   */\n  0x02\n    /* \"#utility.yul\":7647:7658   */\n  mul\n    /* \"#utility.yul\":7641:7645   */\n  dup3\n    /* \"#utility.yul\":7638:7659   */\n  or\n    /* \"#utility.yul\":7630:7659   */\n  swap1\n  pop\n    /* \"#utility.yul\":7370:7665   */\n  swap3\n  swap2\n  pop\n  pop\n  jump\t// out\n    /* \"#utility.yul\":7670:9065   */\ntag_7:\n    /* \"#utility.yul\":7787:7824   */\n  tag_139\n    /* \"#utility.yul\":7820:7823   */\n  dup3\n    /* \"#utility.yul\":7787:7824   */\n  tag_26\n  jump\t// in\ntag_139:\n    /* \"#utility.yul\":7889:7907   */\n  0xffffffffffffffff\n    /* \"#utility.yul\":7881:7887   */\n  dup2\n    /* \"#utility.yul\":7878:7908   */\n  gt\n    /* \"#utility.yul\":7875:7931   */\n  iszero\n  tag_140\n  jumpi\n    /* \"#utility.yul\":7911:7929   */\n  tag_141\n  tag_19\n  jump\t// in\ntag_141:\n    /* \"#utility.yul\":7875:7931   */\ntag_140:\n    /* \"#utility.yul\":7955:7993   */\n  tag_142\n    /* \"#utility.yul\":7987:7991   */\n  dup3\n    /* \"#utility.yul\":7981:7992   */\n  sload\n    /* \"#utility.yul\":7955:7993   */\n  tag_28\n  jump\t// in\ntag_142:\n    /* \"#utility.yul\":8040:8107   */\n  tag_143\n    /* \"#utility.yul\":8100:8106   */\n  dup3\n    /* \"#utility.yul\":8092:8098   */\n  dup3\n    /* \"#utility.yul\":8086:8090   */\n  dup6\n    /* \"#utility.yul\":8040:8107   */\n  tag_41\n  jump\t// in\ntag_143:\n    /* \"#utility.yul\":8134:8135   */\n  0x00\n    /* \"#utility.yul\":8158:8162   */\n  0x20\n    /* \"#utility.yul\":8145:8162   */\n  swap1\n  pop\n    /* \"#utility.yul\":8190:8192   */\n  0x1f\n    /* \"#utility.yul\":8182:8188   */\n  dup4\n    /* \"#utility.yul\":8179:8193   */\n  gt\n    /* \"#utility.yul\":8207:8208   */\n  0x01\n    /* \"#utility.yul\":8202:8820   */\n  dup2\n  eq\n  tag_145\n  jumpi\n    /* \"#utility.yul\":8864:8865   */\n  0x00\n    /* \"#utility.yul\":8881:8887   */\n  dup5\n    /* \"#utility.yul\":8878:8955   */\n  iszero\n  tag_146\n  jumpi\n    /* \"#utility.yul\":8930:8939   */\n  dup3\n    /* \"#utility.yul\":8925:8928   */\n  dup8\n    /* \"#utility.yul\":8921:8940   */\n  add\n    /* \"#utility.yul\":8915:8941   */\n  mload\n    /* \"#utility.yul\":8906:8941   */\n  swap1\n  pop\n    /* \"#utility.yul\":8878:8955   */\ntag_146:\n    /* \"#utility.yul\":8981:9048   */\n  tag_147\n    /* \"#utility.yul\":9041:9047   */\n  dup6\n    /* \"#utility.yul\":9034:9039   */\n  dup3\n    /* \"#utility.yul\":8981:9048   */\n  tag_44\n  jump\t// in\ntag_147:\n    /* \"#utility.yul\":8975:8979   */\n  dup7\n    /* \"#utility.yul\":8968:9049   */\n  sstore\n    /* \"#utility.yul\":8837:9059   */\n  pop\n    /* \"#utility.yul\":8172:9059   */\n  jump(tag_144)\n    /* \"#utility.yul\":8202:8820   */\ntag_145:\n    /* \"#utility.yul\":8254:8258   */\n  0x1f\n    /* \"#utility.yul\":8250:8259   */\n  not\n    /* \"#utility.yul\":8242:8248   */\n  dup5\n    /* \"#utility.yul\":8238:8260   */\n  and\n    /* \"#utility.yul\":8288:8325   */\n  tag_148\n    /* \"#utility.yul\":8320:8324   */\n  dup7\n    /* \"#utility.yul\":8288:8325   */\n  tag_29\n  jump\t// in\ntag_148:\n    /* \"#utility.yul\":8347:8348   */\n  0x00\n    /* \"#utility.yul\":8361:8569   */\ntag_149:\n    /* \"#utility.yul\":8375:8382   */\n  dup3\n    /* \"#utility.yul\":8372:8373   */\n  dup2\n    /* \"#utility.yul\":8369:8383   */\n  lt\n    /* \"#utility.yul\":8361:8569   */\n  iszero\n  tag_151\n  jumpi\n    /* \"#utility.yul\":8454:8463   */\n  dup5\n    /* \"#utility.yul\":8449:8452   */\n  dup10\n    /* \"#utility.yul\":8445:8464   */\n  add\n    /* \"#utility.yul\":8439:8465   */\n  mload\n    /* \"#utility.yul\":8431:8437   */\n  dup3\n    /* \"#utility.yul\":8424:8466   */\n  sstore\n    /* \"#utility.yul\":8505:8506   */\n  0x01\n    /* \"#utility.yul\":8497:8503   */\n  dup3\n    /* \"#utility.yul\":8493:8507   */\n  add\n    /* \"#utility.yul\":8483:8507   */\n  swap2\n  pop\n    /* \"#utility.yul\":8552:8554   */\n  0x20\n    /* \"#utility.yul\":8541:8550   */\n  dup6\n    /* \"#utility.yul\":8537:8555   */\n  add\n    /* \"#utility.yul\":8524:8555   */\n  swap5\n  pop\n    /* \"#utility.yul\":8398:8402   */\n  0x20\n    /* \"#utility.yul\":8395:8396   */\n  dup2\n    /* \"#utility.yul\":8391:8403   */\n  add\n    /* \"#utility.yul\":8386:8403   */\n  swap1\n  pop\n    /* \"#utility.yul\":8361:8569   */\n  jump(tag_149)\ntag_151:\n    /* \"#utility.yul\":8597:8603   */\n  dup7\n    /* \"#utility.yul\":8588:8595   */\n  dup4\n    /* \"#utility.yul\":8585:8604   */\n  lt\n    /* \"#utility.yul\":8582:8761   */\n  iszero\n  tag_152\n  jumpi\n    /* \"#utility.yul\":8655:8664   */\n  dup5\n    /* \"#utility.yul\":8650:8653   */\n  dup10\n    /* \"#utility.yul\":8646:8665   */\n  add\n    /* \"#utility.yul\":8640:8666   */\n  mload\n    /* \"#utility.yul\":8698:8746   */\n  tag_153\n    /* \"#utility.yul\":8740:8744   */\n  0x1f\n    /* \"#utility.yul\":8732:8738   */\n  dup10\n    /* \"#utility.yul\":8728:8745   */\n  and\n    /* \"#utility.yul\":8717:8726   */\n  dup3\n    /* \"#utility.yul\":8698:8746   */\n  tag_43\n  jump\t// in\ntag_153:\n    /* \"#utility.yul\":8690:8696   */\n  dup4\n    /* \"#utility.yul\":8683:8747   */\n  sstore\n    /* \"#utility.yul\":8605:8761   */\n  pop\n    /* \"#utility.yul\":8582:8761   */\ntag_152:\n    /* \"#utility.yul\":8807:8808   */\n  0x01\n    /* \"#utility.yul\":8803:8804   */\n  0x02\n    /* \"#utility.yul\":8795:8801   */\n  dup9\n    /* \"#utility.yul\":8791:8805   */\n  mul\n    /* \"#utility.yul\":8787:8809   */\n  add\n    /* \"#utility.yul\":8781:8785   */\n  dup9\n    /* \"#utility.yul\":8774:8810   */\n  sstore\n    /* \"#utility.yul\":8209:8820   */\n  pop\n  pop\n  pop\n    /* \"#utility.yul\":8172:9059   */\ntag_144:\n  pop\n    /* \"#utility.yul\":7762:9065   */\n  pop\n  pop\n  pop\n    /* \"#utility.yul\":7670:9065   */\n  pop\n  pop\n  jump\t// out\n    /* \"MemberPool.sol\":94:3385  contract MemberPool {... */\ntag_8:\n  mload(0x80)\n  codecopy(0x00, dataOffset(sub_0), dataSize(sub_0))\n  0x00\n  assignImmutable(\"0xeae3a40291c102cf85748609ff9046ea32530afca3ce058bd94a667258369fd6\")\n  return(0x00, dataSize(sub_0))\nstop\n\nsub_0: assembly {\n        /* \"MemberPool.sol\":94:3385  contract MemberPool {... */\n      mstore(0x40, 0x80)\n      callvalue\n      dup1\n      iszero\n      tag_1\n      jumpi\n      0x00\n      dup1\n      revert\n    tag_1:\n      pop\n      jumpi(tag_2, lt(calldatasize, 0x04))\n      shr(0xe0, calldataload(0x00))\n      dup1\n      0x9a4d383e\n      gt\n      tag_19\n      jumpi\n      dup1\n      0xa230c524\n      gt\n      tag_20\n      jumpi\n      dup1\n      0xa230c524\n      eq\n      tag_15\n      jumpi\n      dup1\n      0xaf1fca09\n      eq\n      tag_16\n      jumpi\n      dup1\n      0xca505a5b\n      eq\n      tag_17\n      jumpi\n      dup1\n      0xcef025ac\n      eq\n      tag_18\n      jumpi\n      jump(tag_2)\n    tag_20:\n      dup1\n      0x9a4d383e\n      eq\n      tag_11\n      jumpi\n      dup1\n      0x9c0ab105\n      eq\n      tag_12\n      jumpi\n      dup1\n      0x9e5f59f9\n      eq\n      tag_13\n      jumpi\n      dup1\n      0x9eab5253\n      eq\n      tag_14\n      jumpi\n      jump(tag_2)\n    tag_19:\n      dup1\n      0x455772d2\n      gt\n      tag_21\n      jumpi\n      dup1\n      0x455772d2\n      eq\n      tag_7\n      jumpi\n      dup1\n      0x5daf08ca\n      eq\n      tag_8\n      jumpi\n      dup1\n      0x70586013\n      eq\n      tag_9\n      jumpi\n      dup1\n      0x997072f7\n      eq\n      tag_10\n      jumpi\n      jump(tag_2)\n    tag_21:\n      dup1\n      0x06fdde03\n      eq\n      tag_3\n      jumpi\n      dup1\n      0x146b551d\n      eq\n      tag_4\n      jumpi\n      dup1\n      0x15866836\n      eq\n      tag_5\n      jumpi\n      dup1\n      0x1ee503fd\n      eq\n      tag_6\n      jumpi\n    tag_2:\n      0x00\n      dup1\n      revert\n        /* \"MemberPool.sol\":396:414  string public name */\n    tag_3:\n      tag_22\n      tag_23\n      jump\t// in\n    tag_22:\n      mload(0x40)\n      tag_24\n      swap2\n      swap1\n      tag_25\n      jump\t// in\n    tag_24:\n      mload(0x40)\n      dup1\n      swap2\n      sub\n      swap1\n      return\n        /* \"MemberPool.sol\":1288:1356  function getMemberRep(address member) public view returns (int32) {} */\n    tag_4:\n      tag_26\n      0x04\n      dup1\n      calldatasize\n      sub\n      dup2\n      add\n      swap1\n      tag_27\n      swap2\n      swap1\n      tag_28\n      jump\t// in\n    tag_27:\n      tag_29\n      jump\t// in\n    tag_26:\n      mload(0x40)\n      tag_30\n      swap2\n      swap1\n      tag_31\n      jump\t// in\n    tag_30:\n      mload(0x40)\n      dup1\n      swap2\n      sub\n      swap1\n      return\n        /* \"MemberPool.sol\":2131:2252  function highlightReport(address member, string calldata comment)... */\n    tag_5:\n      tag_32\n      0x04\n      dup1\n      calldatasize\n      sub\n      dup2\n      add\n      swap1\n      tag_33\n      swap2\n      swap1\n      tag_34\n      jump\t// in\n    tag_33:\n      tag_35\n      jump\t// in\n    tag_32:\n      stop\n        /* \"MemberPool.sol\":2260:3029  function admitApplicant(address applicant) public memberOnly(msg.sender) {... */\n    tag_6:\n      tag_36\n      0x04\n      dup1\n      calldatasize\n      sub\n      dup2\n      add\n      swap1\n      tag_37\n      swap2\n      swap1\n      tag_28\n      jump\t// in\n    tag_37:\n      tag_38\n      jump\t// in\n    tag_36:\n      stop\n        /* \"MemberPool.sol\":3141:3382  function getApplicants()... */\n    tag_7:\n      tag_39\n      tag_40\n      jump\t// in\n    tag_39:\n      mload(0x40)\n      tag_41\n      swap2\n      swap1\n      tag_42\n      jump\t// in\n    tag_41:\n      mload(0x40)\n      dup1\n      swap2\n      sub\n      swap1\n      return\n        /* \"MemberPool.sol\":486:510  address[] public members */\n    tag_8:\n      tag_43\n      0x04\n      dup1\n      calldatasize\n      sub\n      dup2\n      add\n      swap1\n      tag_44\n      swap2\n      swap1\n      tag_45\n      jump\t// in\n    tag_44:\n      tag_46\n      jump\t// in\n    tag_43:\n      mload(0x40)\n      tag_47\n      swap2\n      swap1\n      tag_48\n      jump\t// in\n    tag_47:\n      mload(0x40)\n      dup1\n      swap2\n      sub\n      swap1\n      return\n        /* \"MemberPool.sol\":1768:1893  function reportMember(address member, string calldata report)... */\n    tag_9:\n      tag_49\n      0x04\n      dup1\n      calldatasize\n      sub\n      dup2\n      add\n      swap1\n      tag_50\n      swap2\n      swap1\n      tag_34\n      jump\t// in\n    tag_50:\n      tag_51\n      jump\t// in\n    tag_49:\n      mload(0x40)\n      tag_52\n      swap2\n      swap1\n      tag_53\n      jump\t// in\n    tag_52:\n      mload(0x40)\n      dup1\n      swap2\n      sub\n      swap1\n      return\n        /* \"MemberPool.sol\":3037:3133  function getMemberCount() public view returns (uint256) {... */\n    tag_10:\n      tag_54\n      tag_55\n      jump\t// in\n    tag_54:\n      mload(0x40)\n      tag_56\n      swap2\n      swap1\n      tag_57\n      jump\t// in\n    tag_56:\n      mload(0x40)\n      dup1\n      swap2\n      sub\n      swap1\n      return\n        /* \"MemberPool.sol\":1471:1760  function increaseMemberRep(address member) public {... */\n    tag_11:\n      tag_58\n      0x04\n      dup1\n      calldatasize\n      sub\n      dup2\n      add\n      swap1\n      tag_59\n      swap2\n      swap1\n      tag_28\n      jump\t// in\n    tag_59:\n      tag_60\n      jump\t// in\n    tag_58:\n      stop\n        /* \"MemberPool.sol\":454:479  string public longSummary */\n    tag_12:\n      tag_61\n      tag_62\n      jump\t// in\n    tag_61:\n      mload(0x40)\n      tag_63\n      swap2\n      swap1\n      tag_25\n      jump\t// in\n    tag_63:\n      mload(0x40)\n      dup1\n      swap2\n      sub\n      swap1\n      return\n        /* \"MemberPool.sol\":1901:2015  function getMemberReports(address member)... */\n    tag_13:\n      tag_64\n      0x04\n      dup1\n      calldatasize\n      sub\n      dup2\n      add\n      swap1\n      tag_65\n      swap2\n      swap1\n      tag_28\n      jump\t// in\n    tag_65:\n      tag_66\n      jump\t// in\n    tag_64:\n      mload(0x40)\n      tag_67\n      swap2\n      swap1\n      tag_68\n      jump\t// in\n    tag_67:\n      mload(0x40)\n      dup1\n      swap2\n      sub\n      swap1\n      return\n        /* \"MemberPool.sol\":1153:1280  function getMembers()... */\n    tag_14:\n      tag_69\n      tag_70\n      jump\t// in\n    tag_69:\n      mload(0x40)\n      tag_71\n      swap2\n      swap1\n      tag_42\n      jump\t// in\n    tag_71:\n      mload(0x40)\n      dup1\n      swap2\n      sub\n      swap1\n      return\n        /* \"MemberPool.sol\":1364:1463  function isMember(address id) public view returns (bool) {... */\n    tag_15:\n      tag_72\n      0x04\n      dup1\n      calldatasize\n      sub\n      dup2\n      add\n      swap1\n      tag_73\n      swap2\n      swap1\n      tag_28\n      jump\t// in\n    tag_73:\n      tag_74\n      jump\t// in\n    tag_72:\n      mload(0x40)\n      tag_75\n      swap2\n      swap1\n      tag_76\n      jump\t// in\n    tag_75:\n      mload(0x40)\n      dup1\n      swap2\n      sub\n      swap1\n      return\n        /* \"MemberPool.sol\":706:741  address public applicantPoolAddress */\n    tag_16:\n      tag_77\n      tag_78\n      jump\t// in\n    tag_77:\n      mload(0x40)\n      tag_79\n      swap2\n      swap1\n      tag_48\n      jump\t// in\n    tag_79:\n      mload(0x40)\n      dup1\n      swap2\n      sub\n      swap1\n      return\n        /* \"MemberPool.sol\":421:447  string public shortSummary */\n    tag_17:\n      tag_80\n      tag_81\n      jump\t// in\n    tag_80:\n      mload(0x40)\n      tag_82\n      swap2\n      swap1\n      tag_25\n      jump\t// in\n    tag_82:\n      mload(0x40)\n      dup1\n      swap2\n      sub\n      swap1\n      return\n        /* \"MemberPool.sol\":2023:2123  function dismissMemberReport(address member)... */\n    tag_18:\n      tag_83\n      0x04\n      dup1\n      calldatasize\n      sub\n      dup2\n      add\n      swap1\n      tag_84\n      swap2\n      swap1\n      tag_28\n      jump\t// in\n    tag_84:\n      tag_85\n      jump\t// in\n    tag_83:\n      stop\n        /* \"MemberPool.sol\":396:414  string public name */\n    tag_23:\n      0x00\n      dup1\n      sload\n      tag_86\n      swap1\n      tag_87\n      jump\t// in\n    tag_86:\n      dup1\n      0x1f\n      add\n      0x20\n      dup1\n      swap2\n      div\n      mul\n      0x20\n      add\n      mload(0x40)\n      swap1\n      dup2\n      add\n      0x40\n      mstore\n      dup1\n      swap3\n      swap2\n      swap1\n      dup2\n      dup2\n      mstore\n      0x20\n      add\n      dup3\n      dup1\n      sload\n      tag_88\n      swap1\n      tag_87\n      jump\t// in\n    tag_88:\n      dup1\n      iszero\n      tag_89\n      jumpi\n      dup1\n      0x1f\n      lt\n      tag_90\n      jumpi\n      0x0100\n      dup1\n      dup4\n      sload\n      div\n      mul\n      dup4\n      mstore\n      swap2\n      0x20\n      add\n      swap2\n      jump(tag_89)\n    tag_90:\n      dup3\n      add\n      swap2\n      swap1\n      0x00\n      mstore\n      keccak256(0x00, 0x20)\n      swap1\n    tag_91:\n      dup2\n      sload\n      dup2\n      mstore\n      swap1\n      0x01\n      add\n      swap1\n      0x20\n      add\n      dup1\n      dup4\n      gt\n      tag_91\n      jumpi\n      dup3\n      swap1\n      sub\n      0x1f\n      and\n      dup3\n      add\n      swap2\n    tag_89:\n      pop\n      pop\n      pop\n      pop\n      pop\n      dup2\n      jump\t// out\n        /* \"MemberPool.sol\":1288:1356  function getMemberRep(address member) public view returns (int32) {} */\n    tag_29:\n        /* \"MemberPool.sol\":1347:1352  int32 */\n      0x00\n        /* \"MemberPool.sol\":1288:1356  function getMemberRep(address member) public view returns (int32) {} */\n      swap2\n      swap1\n      pop\n      jump\t// out\n        /* \"MemberPool.sol\":2131:2252  function highlightReport(address member, string calldata comment)... */\n    tag_35:\n        /* \"MemberPool.sol\":2233:2243  msg.sender */\n      caller\n        /* \"MemberPool.sol\":1076:1088  memberActive */\n      0x04\n        /* \"MemberPool.sol\":1076:1096  memberActive[sender] */\n      0x00\n        /* \"MemberPool.sol\":1089:1095  sender */\n      dup3\n        /* \"MemberPool.sol\":1076:1096  memberActive[sender] */\n      0xffffffffffffffffffffffffffffffffffffffff\n      and\n      0xffffffffffffffffffffffffffffffffffffffff\n      and\n      dup2\n      mstore\n      0x20\n      add\n      swap1\n      dup2\n      mstore\n      0x20\n      add\n      0x00\n      keccak256\n      0x00\n      swap1\n      sload\n      swap1\n      0x0100\n      exp\n      swap1\n      div\n      0xff\n      and\n        /* \"MemberPool.sol\":1068:1125  require(memberActive[sender], \"Required to be a memeber\") */\n      tag_94\n      jumpi\n      mload(0x40)\n      0x08c379a000000000000000000000000000000000000000000000000000000000\n      dup2\n      mstore\n      0x04\n      add\n      tag_95\n      swap1\n      tag_96\n      jump\t// in\n    tag_95:\n      mload(0x40)\n      dup1\n      swap2\n      sub\n      swap1\n      revert\n    tag_94:\n        /* \"MemberPool.sol\":2131:2252  function highlightReport(address member, string calldata comment)... */\n      pop\n      pop\n      pop\n      pop\n      jump\t// out\n        /* \"MemberPool.sol\":2260:3029  function admitApplicant(address applicant) public memberOnly(msg.sender) {... */\n    tag_38:\n        /* \"MemberPool.sol\":2321:2331  msg.sender */\n      caller\n        /* \"MemberPool.sol\":1076:1088  memberActive */\n      0x04\n        /* \"MemberPool.sol\":1076:1096  memberActive[sender] */\n      0x00\n        /* \"MemberPool.sol\":1089:1095  sender */\n      dup3\n        /* \"MemberPool.sol\":1076:1096  memberActive[sender] */\n      0xffffffffffffffffffffffffffffffffffffffff\n      and\n      0xffffffffffffffffffffffffffffffffffffffff\n      and\n      dup2\n      mstore\n      0x20\n      add\n      swap1\n      dup2\n      mstore\n      0x20\n      add\n      0x00\n      keccak256\n      0x00\n      swap1\n      sload\n      swap1\n      0x0100\n      exp\n      swap1\n      div\n      0xff\n      and\n        /* \"MemberPool.sol\":1068:1125  require(memberActive[sender], \"Required to be a memeber\") */\n      tag_99\n      jumpi\n      mload(0x40)\n      0x08c379a000000000000000000000000000000000000000000000000000000000\n      dup2\n      mstore\n      0x04\n      add\n      tag_100\n      swap1\n      tag_96\n      jump\t// in\n    tag_100:\n      mload(0x40)\n      dup1\n      swap2\n      sub\n      swap1\n      revert\n    tag_99:\n        /* \"MemberPool.sol\":2373:2374  0 */\n      0x00\n        /* \"MemberPool.sol\":2352:2375  applicant != address(0) */\n      0xffffffffffffffffffffffffffffffffffffffff\n      and\n        /* \"MemberPool.sol\":2352:2361  applicant */\n      dup3\n        /* \"MemberPool.sol\":2352:2375  applicant != address(0) */\n      0xffffffffffffffffffffffffffffffffffffffff\n      and\n      sub\n        /* \"MemberPool.sol\":2344:2376  require(applicant != address(0)) */\n      tag_102\n      jumpi\n      0x00\n      dup1\n      revert\n    tag_102:\n        /* \"MemberPool.sol\":2387:2405  ApplicantPool pool */\n      0x00\n        /* \"MemberPool.sol\":2422:2442  applicantPoolAddress */\n      0x08\n      0x00\n      swap1\n      sload\n      swap1\n      0x0100\n      exp\n      swap1\n      div\n      0xffffffffffffffffffffffffffffffffffffffff\n      and\n        /* \"MemberPool.sol\":2387:2443  ApplicantPool pool = ApplicantPool(applicantPoolAddress) */\n      swap1\n      pop\n        /* \"MemberPool.sol\":2454:2473  uint256 voteEndTime */\n      0x00\n        /* \"MemberPool.sol\":2476:2480  pool */\n      dup2\n        /* \"MemberPool.sol\":2476:2504  pool.getApplicantVoteEndDate */\n      0xffffffffffffffffffffffffffffffffffffffff\n      and\n      0xb672bdcb\n        /* \"MemberPool.sol\":2505:2514  applicant */\n      dup6\n        /* \"MemberPool.sol\":2476:2515  pool.getApplicantVoteEndDate(applicant) */\n      mload(0x40)\n      dup3\n      0xffffffff\n      and\n      0xe0\n      shl\n      dup2\n      mstore\n      0x04\n      add\n      tag_103\n      swap2\n      swap1\n      tag_48\n      jump\t// in\n    tag_103:\n      0x20\n      mload(0x40)\n      dup1\n      dup4\n      sub\n      dup2\n      dup7\n      gas\n      staticcall\n      iszero\n      dup1\n      iszero\n      tag_105\n      jumpi\n      returndatasize\n      0x00\n      dup1\n      returndatacopy\n      revert(0x00, returndatasize)\n    tag_105:\n      pop\n      pop\n      pop\n      pop\n      mload(0x40)\n      returndatasize\n      not(0x1f)\n      0x1f\n      dup3\n      add\n      and\n      dup3\n      add\n      dup1\n      0x40\n      mstore\n      pop\n      dup2\n      add\n      swap1\n      tag_106\n      swap2\n      swap1\n      tag_107\n      jump\t// in\n    tag_106:\n        /* \"MemberPool.sol\":2454:2515  uint256 voteEndTime = pool.getApplicantVoteEndDate(applicant) */\n      swap1\n      pop\n        /* \"MemberPool.sol\":2548:2563  block.timestamp */\n      timestamp\n        /* \"MemberPool.sol\":2534:2545  voteEndTime */\n      dup2\n        /* \"MemberPool.sol\":2534:2563  voteEndTime > block.timestamp */\n      gt\n        /* \"MemberPool.sol\":2526:2587  require(voteEndTime > block.timestamp, \"To soon to end vote\") */\n      tag_108\n      jumpi\n      mload(0x40)\n      0x08c379a000000000000000000000000000000000000000000000000000000000\n      dup2\n      mstore\n      0x04\n      add\n      tag_109\n      swap1\n      tag_110\n      jump\t// in\n    tag_109:\n      mload(0x40)\n      dup1\n      swap2\n      sub\n      swap1\n      revert\n    tag_108:\n        /* \"MemberPool.sol\":2600:2619  uint256 memberCount */\n      0x00\n        /* \"MemberPool.sol\":2622:2638  getMemberCount() */\n      tag_111\n        /* \"MemberPool.sol\":2622:2636  getMemberCount */\n      tag_55\n        /* \"MemberPool.sol\":2622:2638  getMemberCount() */\n      jump\t// in\n    tag_111:\n        /* \"MemberPool.sol\":2600:2638  uint256 memberCount = getMemberCount() */\n      swap1\n      pop\n        /* \"MemberPool.sol\":2649:2666  uint256 voteCount */\n      0x00\n        /* \"MemberPool.sol\":2669:2673  pool */\n      dup4\n        /* \"MemberPool.sol\":2669:2695  pool.getApplicantVoteCount */\n      0xffffffffffffffffffffffffffffffffffffffff\n      and\n      0xd9a87535\n        /* \"MemberPool.sol\":2696:2705  applicant */\n      dup8\n        /* \"MemberPool.sol\":2669:2706  pool.getApplicantVoteCount(applicant) */\n      mload(0x40)\n      dup3\n      0xffffffff\n      and\n      0xe0\n      shl\n      dup2\n      mstore\n      0x04\n      add\n      tag_112\n      swap2\n      swap1\n      tag_48\n      jump\t// in\n    tag_112:\n      0x20\n      mload(0x40)\n      dup1\n      dup4\n      sub\n      dup2\n      dup7\n      gas\n      staticcall\n      iszero\n      dup1\n      iszero\n      tag_114\n      jumpi\n      returndatasize\n      0x00\n      dup1\n      returndatacopy\n      revert(0x00, returndatasize)\n    tag_114:\n      pop\n      pop\n      pop\n      pop\n      mload(0x40)\n      returndatasize\n      not(0x1f)\n      0x1f\n      dup3\n      add\n      and\n      dup3\n      add\n      dup1\n      0x40\n      mstore\n      pop\n      dup2\n      add\n      swap1\n      tag_115\n      swap2\n      swap1\n      tag_107\n      jump\t// in\n    tag_115:\n        /* \"MemberPool.sol\":2649:2706  uint256 voteCount = pool.getApplicantVoteCount(applicant) */\n      swap1\n      pop\n        /* \"MemberPool.sol\":2834:2835  5 */\n      0x05\n        /* \"MemberPool.sol\":2827:2830  100 */\n      0x64\n        /* \"MemberPool.sol\":2812:2823  memberCount */\n      dup4\n        /* \"MemberPool.sol\":2800:2809  voteCount */\n      dup4\n        /* \"MemberPool.sol\":2800:2823  voteCount / memberCount */\n      tag_116\n      swap2\n      swap1\n      tag_117\n      jump\t// in\n    tag_116:\n        /* \"MemberPool.sol\":2799:2830  (voteCount / memberCount) * 100 */\n      tag_118\n      swap2\n      swap1\n      tag_119\n      jump\t// in\n    tag_118:\n        /* \"MemberPool.sol\":2798:2835  ((voteCount / memberCount) * 100) > 5 */\n      gt\n        /* \"MemberPool.sol\":2775:2899  require(... */\n      tag_120\n      jumpi\n      mload(0x40)\n      0x08c379a000000000000000000000000000000000000000000000000000000000\n      dup2\n      mstore\n      0x04\n      add\n      tag_121\n      swap1\n      tag_122\n      jump\t// in\n    tag_121:\n      mload(0x40)\n      dup1\n      swap2\n      sub\n      swap1\n      revert\n    tag_120:\n        /* \"MemberPool.sol\":2912:2916  pool */\n      dup4\n        /* \"MemberPool.sol\":2912:2933  pool.approveApplicant */\n      0xffffffffffffffffffffffffffffffffffffffff\n      and\n      0x1292a282\n        /* \"MemberPool.sol\":2934:2943  applicant */\n      dup8\n        /* \"MemberPool.sol\":2912:2944  pool.approveApplicant(applicant) */\n      mload(0x40)\n      dup3\n      0xffffffff\n      and\n      0xe0\n      shl\n      dup2\n      mstore\n      0x04\n      add\n      tag_123\n      swap2\n      swap1\n      tag_48\n      jump\t// in\n    tag_123:\n      0x00\n      mload(0x40)\n      dup1\n      dup4\n      sub\n      dup2\n      0x00\n      dup8\n      dup1\n      extcodesize\n      iszero\n      dup1\n      iszero\n      tag_124\n      jumpi\n      0x00\n      dup1\n      revert\n    tag_124:\n      pop\n      gas\n      call\n      iszero\n      dup1\n      iszero\n      tag_126\n      jumpi\n      returndatasize\n      0x00\n      dup1\n      returndatacopy\n      revert(0x00, returndatasize)\n    tag_126:\n      pop\n      pop\n      pop\n      pop\n        /* \"MemberPool.sol\":2957:2964  members */\n      0x03\n        /* \"MemberPool.sol\":2970:2979  applicant */\n      dup7\n        /* \"MemberPool.sol\":2957:2980  members.push(applicant) */\n      swap1\n      dup1\n      0x01\n      dup2\n      sload\n      add\n      dup1\n      dup3\n      sstore\n      dup1\n      swap2\n      pop\n      pop\n      0x01\n      swap1\n      sub\n      swap1\n      0x00\n      mstore\n      keccak256(0x00, 0x20)\n      add\n      0x00\n      swap1\n      swap2\n      swap1\n      swap2\n      swap1\n      swap2\n      0x0100\n      exp\n      dup2\n      sload\n      dup2\n      0xffffffffffffffffffffffffffffffffffffffff\n      mul\n      not\n      and\n      swap1\n      dup4\n      0xffffffffffffffffffffffffffffffffffffffff\n      and\n      mul\n      or\n      swap1\n      sstore\n      pop\n        /* \"MemberPool.sol\":3017:3021  true */\n      0x01\n        /* \"MemberPool.sol\":2991:3003  memberActive */\n      0x04\n        /* \"MemberPool.sol\":2991:3014  memberActive[applicant] */\n      0x00\n        /* \"MemberPool.sol\":3004:3013  applicant */\n      dup9\n        /* \"MemberPool.sol\":2991:3014  memberActive[applicant] */\n      0xffffffffffffffffffffffffffffffffffffffff\n      and\n      0xffffffffffffffffffffffffffffffffffffffff\n      and\n      dup2\n      mstore\n      0x20\n      add\n      swap1\n      dup2\n      mstore\n      0x20\n      add\n      0x00\n      keccak256\n      0x00\n        /* \"MemberPool.sol\":2991:3021  memberActive[applicant] = true */\n      0x0100\n      exp\n      dup2\n      sload\n      dup2\n      0xff\n      mul\n      not\n      and\n      swap1\n      dup4\n      iszero\n      iszero\n      mul\n      or\n      swap1\n      sstore\n      pop\n        /* \"MemberPool.sol\":2333:3029  {... */\n      pop\n      pop\n      pop\n      pop\n        /* \"MemberPool.sol\":2260:3029  function admitApplicant(address applicant) public memberOnly(msg.sender) {... */\n      pop\n      pop\n      jump\t// out\n        /* \"MemberPool.sol\":3141:3382  function getApplicants()... */\n    tag_40:\n        /* \"MemberPool.sol\":3246:3262  address[] memory */\n      0x60\n        /* \"MemberPool.sol\":3216:3226  msg.sender */\n      caller\n        /* \"MemberPool.sol\":1076:1088  memberActive */\n      0x04\n        /* \"MemberPool.sol\":1076:1096  memberActive[sender] */\n      0x00\n        /* \"MemberPool.sol\":1089:1095  sender */\n      dup3\n        /* \"MemberPool.sol\":1076:1096  memberActive[sender] */\n      0xffffffffffffffffffffffffffffffffffffffff\n      and\n      0xffffffffffffffffffffffffffffffffffffffff\n      and\n      dup2\n      mstore\n      0x20\n      add\n      swap1\n      dup2\n      mstore\n      0x20\n      add\n      0x00\n      keccak256\n      0x00\n      swap1\n      sload\n      swap1\n      0x0100\n      exp\n      swap1\n      div\n      0xff\n      and\n        /* \"MemberPool.sol\":1068:1125  require(memberActive[sender], \"Required to be a memeber\") */\n      tag_129\n      jumpi\n      mload(0x40)\n      0x08c379a000000000000000000000000000000000000000000000000000000000\n      dup2\n      mstore\n      0x04\n      add\n      tag_130\n      swap1\n      tag_96\n      jump\t// in\n    tag_130:\n      mload(0x40)\n      dup1\n      swap2\n      sub\n      swap1\n      revert\n    tag_129:\n        /* \"MemberPool.sol\":3280:3298  ApplicantPool pool */\n      0x00\n        /* \"MemberPool.sol\":3315:3335  applicantPoolAddress */\n      0x08\n      0x00\n      swap1\n      sload\n      swap1\n      0x0100\n      exp\n      swap1\n      div\n      0xffffffffffffffffffffffffffffffffffffffff\n      and\n        /* \"MemberPool.sol\":3280:3336  ApplicantPool pool = ApplicantPool(applicantPoolAddress) */\n      swap1\n      pop\n        /* \"MemberPool.sol\":3354:3358  pool */\n      dup1\n        /* \"MemberPool.sol\":3354:3372  pool.getApplicants */\n      0xffffffffffffffffffffffffffffffffffffffff\n      and\n      0x455772d2\n        /* \"MemberPool.sol\":3354:3374  pool.getApplicants() */\n      mload(0x40)\n      dup2\n      0xffffffff\n      and\n      0xe0\n      shl\n      dup2\n      mstore\n      0x04\n      add\n      0x00\n      mload(0x40)\n      dup1\n      dup4\n      sub\n      dup2\n      dup7\n      gas\n      staticcall\n      iszero\n      dup1\n      iszero\n      tag_133\n      jumpi\n      returndatasize\n      0x00\n      dup1\n      returndatacopy\n      revert(0x00, returndatasize)\n    tag_133:\n      pop\n      pop\n      pop\n      pop\n      mload(0x40)\n      returndatasize\n      0x00\n      dup3\n      returndatacopy\n      returndatasize\n      not(0x1f)\n      0x1f\n      dup3\n      add\n      and\n      dup3\n      add\n      dup1\n      0x40\n      mstore\n      pop\n      dup2\n      add\n      swap1\n      tag_134\n      swap2\n      swap1\n      tag_135\n      jump\t// in\n    tag_134:\n        /* \"MemberPool.sol\":3347:3374  return pool.getApplicants() */\n      swap3\n      pop\n      pop\n        /* \"MemberPool.sol\":3141:3382  function getApplicants()... */\n      pop\n      swap1\n      jump\t// out\n        /* \"MemberPool.sol\":486:510  address[] public members */\n    tag_46:\n      0x03\n      dup2\n      dup2\n      sload\n      dup2\n      lt\n      tag_136\n      jumpi\n      0x00\n      dup1\n      revert\n    tag_136:\n      swap1\n      0x00\n      mstore\n      keccak256(0x00, 0x20)\n      add\n      0x00\n      swap2\n      pop\n      sload\n      swap1\n      0x0100\n      exp\n      swap1\n      div\n      0xffffffffffffffffffffffffffffffffffffffff\n      and\n      dup2\n      jump\t// out\n        /* \"MemberPool.sol\":1768:1893  function reportMember(address member, string calldata report)... */\n    tag_51:\n        /* \"MemberPool.sol\":1878:1884  uint32 */\n      0x00\n        /* \"MemberPool.sol\":1768:1893  function reportMember(address member, string calldata report)... */\n      swap4\n      swap3\n      pop\n      pop\n      pop\n      jump\t// out\n        /* \"MemberPool.sol\":3037:3133  function getMemberCount() public view returns (uint256) {... */\n    tag_55:\n        /* \"MemberPool.sol\":3084:3091  uint256 */\n      0x00\n        /* \"MemberPool.sol\":3111:3118  members */\n      0x03\n        /* \"MemberPool.sol\":3111:3125  members.length */\n      dup1\n      sload\n      swap1\n      pop\n        /* \"MemberPool.sol\":3104:3125  return members.length */\n      swap1\n      pop\n        /* \"MemberPool.sol\":3037:3133  function getMemberCount() public view returns (uint256) {... */\n      swap1\n      jump\t// out\n        /* \"MemberPool.sol\":1471:1760  function increaseMemberRep(address member) public {... */\n    tag_60:\n        /* \"MemberPool.sol\":1532:1546  address caller */\n      0x00\n        /* \"MemberPool.sol\":1549:1563  userToMemberUp */\n      0x06\n        /* \"MemberPool.sol\":1549:1575  userToMemberUp[msg.sender] */\n      0x00\n        /* \"MemberPool.sol\":1564:1574  msg.sender */\n      caller\n        /* \"MemberPool.sol\":1549:1575  userToMemberUp[msg.sender] */\n      0xffffffffffffffffffffffffffffffffffffffff\n      and\n      0xffffffffffffffffffffffffffffffffffffffff\n      and\n      dup2\n      mstore\n      0x20\n      add\n      swap1\n      dup2\n      mstore\n      0x20\n      add\n      0x00\n      keccak256\n      0x00\n      swap1\n      sload\n      swap1\n      0x0100\n      exp\n      swap1\n      div\n      0xffffffffffffffffffffffffffffffffffffffff\n      and\n        /* \"MemberPool.sol\":1532:1575  address caller = userToMemberUp[msg.sender] */\n      swap1\n      pop\n        /* \"MemberPool.sol\":1604:1610  caller */\n      dup1\n        /* \"MemberPool.sol\":1594:1610  member != caller */\n      0xffffffffffffffffffffffffffffffffffffffff\n      and\n        /* \"MemberPool.sol\":1594:1600  member */\n      dup3\n        /* \"MemberPool.sol\":1594:1610  member != caller */\n      0xffffffffffffffffffffffffffffffffffffffff\n      and\n      sub\n        /* \"MemberPool.sol\":1586:1628  require(member != caller, \"Already voted\") */\n      tag_141\n      jumpi\n      mload(0x40)\n      0x08c379a000000000000000000000000000000000000000000000000000000000\n      dup2\n      mstore\n      0x04\n      add\n      tag_142\n      swap1\n      tag_143\n      jump\t// in\n    tag_142:\n      mload(0x40)\n      dup1\n      swap2\n      sub\n      swap1\n      revert\n    tag_141:\n        /* \"MemberPool.sol\":1663:1664  1 */\n      0x01\n        /* \"MemberPool.sol\":1639:1651  memberPoints */\n      0x07\n        /* \"MemberPool.sol\":1639:1659  memberPoints[member] */\n      0x00\n        /* \"MemberPool.sol\":1652:1658  member */\n      dup5\n        /* \"MemberPool.sol\":1639:1659  memberPoints[member] */\n      0xffffffffffffffffffffffffffffffffffffffff\n      and\n      0xffffffffffffffffffffffffffffffffffffffff\n      and\n      dup2\n      mstore\n      0x20\n      add\n      swap1\n      dup2\n      mstore\n      0x20\n      add\n      0x00\n      keccak256\n      0x00\n        /* \"MemberPool.sol\":1639:1664  memberPoints[member] += 1 */\n      dup3\n      dup3\n      sload\n      tag_144\n      swap2\n      swap1\n      tag_145\n      jump\t// in\n    tag_144:\n      swap3\n      pop\n      pop\n      dup2\n      swap1\n      sstore\n      pop\n        /* \"MemberPool.sol\":1704:1710  member */\n      dup2\n        /* \"MemberPool.sol\":1675:1689  userToMemberUp */\n      0x06\n        /* \"MemberPool.sol\":1675:1701  userToMemberUp[msg.sender] */\n      0x00\n        /* \"MemberPool.sol\":1690:1700  msg.sender */\n      caller\n        /* \"MemberPool.sol\":1675:1701  userToMemberUp[msg.sender] */\n      0xffffffffffffffffffffffffffffffffffffffff\n      and\n      0xffffffffffffffffffffffffffffffffffffffff\n      and\n      dup2\n      mstore\n      0x20\n      add\n      swap1\n      dup2\n      mstore\n      0x20\n      add\n      0x00\n      keccak256\n      0x00\n        /* \"MemberPool.sol\":1675:1710  userToMemberUp[msg.sender] = member */\n      0x0100\n      exp\n      dup2\n      sload\n      dup2\n      0xffffffffffffffffffffffffffffffffffffffff\n      mul\n      not\n      and\n      swap1\n      dup4\n      0xffffffffffffffffffffffffffffffffffffffff\n      and\n      mul\n      or\n      swap1\n      sstore\n      pop\n        /* \"MemberPool.sol\":1726:1752  MemberRewarded(msg.sender) */\n      0xe8ddfec65826b66ec8b03b89152bb70528fa2da92e9775cc99671b1fc7bcb0f4\n        /* \"MemberPool.sol\":1741:1751  msg.sender */\n      caller\n        /* \"MemberPool.sol\":1726:1752  MemberRewarded(msg.sender) */\n      mload(0x40)\n      tag_146\n      swap2\n      swap1\n      tag_48\n      jump\t// in\n    tag_146:\n      mload(0x40)\n      dup1\n      swap2\n      sub\n      swap1\n      log1\n        /* \"MemberPool.sol\":1521:1760  {... */\n      pop\n        /* \"MemberPool.sol\":1471:1760  function increaseMemberRep(address member) public {... */\n      pop\n      jump\t// out\n        /* \"MemberPool.sol\":454:479  string public longSummary */\n    tag_62:\n      0x02\n      dup1\n      sload\n      tag_147\n      swap1\n      tag_87\n      jump\t// in\n    tag_147:\n      dup1\n      0x1f\n      add\n      0x20\n      dup1\n      swap2\n      div\n      mul\n      0x20\n      add\n      mload(0x40)\n      swap1\n      dup2\n      add\n      0x40\n      mstore\n      dup1\n      swap3\n      swap2\n      swap1\n      dup2\n      dup2\n      mstore\n      0x20\n      add\n      dup3\n      dup1\n      sload\n      tag_148\n      swap1\n      tag_87\n      jump\t// in\n    tag_148:\n      dup1\n      iszero\n      tag_149\n      jumpi\n      dup1\n      0x1f\n      lt\n      tag_150\n      jumpi\n      0x0100\n      dup1\n      dup4\n      sload\n      div\n      mul\n      dup4\n      mstore\n      swap2\n      0x20\n      add\n      swap2\n      jump(tag_149)\n    tag_150:\n      dup3\n      add\n      swap2\n      swap1\n      0x00\n      mstore\n      keccak256(0x00, 0x20)\n      swap1\n    tag_151:\n      dup2\n      sload\n      dup2\n      mstore\n      swap1\n      0x01\n      add\n      swap1\n      0x20\n      add\n      dup1\n      dup4\n      gt\n      tag_151\n      jumpi\n      dup3\n      swap1\n      sub\n      0x1f\n      and\n      dup3\n      add\n      swap2\n    tag_149:\n      pop\n      pop\n      pop\n      pop\n      pop\n      dup2\n      jump\t// out\n        /* \"MemberPool.sol\":1901:2015  function getMemberReports(address member)... */\n    tag_66:\n        /* \"MemberPool.sol\":1991:2006  string[] memory */\n      0x60\n        /* \"MemberPool.sol\":1901:2015  function getMemberReports(address member)... */\n      swap2\n      swap1\n      pop\n      jump\t// out\n        /* \"MemberPool.sol\":1153:1280  function getMembers()... */\n    tag_70:\n        /* \"MemberPool.sol\":1255:1271  address[] memory */\n      0x60\n        /* \"MemberPool.sol\":1225:1235  msg.sender */\n      caller\n        /* \"MemberPool.sol\":1076:1088  memberActive */\n      0x04\n        /* \"MemberPool.sol\":1076:1096  memberActive[sender] */\n      0x00\n        /* \"MemberPool.sol\":1089:1095  sender */\n      dup3\n        /* \"MemberPool.sol\":1076:1096  memberActive[sender] */\n      0xffffffffffffffffffffffffffffffffffffffff\n      and\n      0xffffffffffffffffffffffffffffffffffffffff\n      and\n      dup2\n      mstore\n      0x20\n      add\n      swap1\n      dup2\n      mstore\n      0x20\n      add\n      0x00\n      keccak256\n      0x00\n      swap1\n      sload\n      swap1\n      0x0100\n      exp\n      swap1\n      div\n      0xff\n      and\n        /* \"MemberPool.sol\":1068:1125  require(memberActive[sender], \"Required to be a memeber\") */\n      tag_154\n      jumpi\n      mload(0x40)\n      0x08c379a000000000000000000000000000000000000000000000000000000000\n      dup2\n      mstore\n      0x04\n      add\n      tag_155\n      swap1\n      tag_96\n      jump\t// in\n    tag_155:\n      mload(0x40)\n      dup1\n      swap2\n      sub\n      swap1\n      revert\n    tag_154:\n        /* \"MemberPool.sol\":1153:1280  function getMembers()... */\n      pop\n      swap1\n      jump\t// out\n        /* \"MemberPool.sol\":1364:1463  function isMember(address id) public view returns (bool) {... */\n    tag_74:\n        /* \"MemberPool.sol\":1415:1419  bool */\n      0x00\n        /* \"MemberPool.sol\":1439:1451  memberActive */\n      0x04\n        /* \"MemberPool.sol\":1439:1455  memberActive[id] */\n      0x00\n        /* \"MemberPool.sol\":1452:1454  id */\n      dup4\n        /* \"MemberPool.sol\":1439:1455  memberActive[id] */\n      0xffffffffffffffffffffffffffffffffffffffff\n      and\n      0xffffffffffffffffffffffffffffffffffffffff\n      and\n      dup2\n      mstore\n      0x20\n      add\n      swap1\n      dup2\n      mstore\n      0x20\n      add\n      0x00\n      keccak256\n      0x00\n      swap1\n      sload\n      swap1\n      0x0100\n      exp\n      swap1\n      div\n      0xff\n      and\n        /* \"MemberPool.sol\":1432:1455  return memberActive[id] */\n      swap1\n      pop\n        /* \"MemberPool.sol\":1364:1463  function isMember(address id) public view returns (bool) {... */\n      swap2\n      swap1\n      pop\n      jump\t// out\n        /* \"MemberPool.sol\":706:741  address public applicantPoolAddress */\n    tag_78:\n      0x08\n      0x00\n      swap1\n      sload\n      swap1\n      0x0100\n      exp\n      swap1\n      div\n      0xffffffffffffffffffffffffffffffffffffffff\n      and\n      dup2\n      jump\t// out\n        /* \"MemberPool.sol\":421:447  string public shortSummary */\n    tag_81:\n      0x01\n      dup1\n      sload\n      tag_158\n      swap1\n      tag_87\n      jump\t// in\n    tag_158:\n      dup1\n      0x1f\n      add\n      0x20\n      dup1\n      swap2\n      div\n      mul\n      0x20\n      add\n      mload(0x40)\n      swap1\n      dup2\n      add\n      0x40\n      mstore\n      dup1\n      swap3\n      swap2\n      swap1\n      dup2\n      dup2\n      mstore\n      0x20\n      add\n      dup3\n      dup1\n      sload\n      tag_159\n      swap1\n      tag_87\n      jump\t// in\n    tag_159:\n      dup1\n      iszero\n      tag_160\n      jumpi\n      dup1\n      0x1f\n      lt\n      tag_161\n      jumpi\n      0x0100\n      dup1\n      dup4\n      sload\n      div\n      mul\n      dup4\n      mstore\n      swap2\n      0x20\n      add\n      swap2\n      jump(tag_160)\n    tag_161:\n      dup3\n      add\n      swap2\n      swap1\n      0x00\n      mstore\n      keccak256(0x00, 0x20)\n      swap1\n    tag_162:\n      dup2\n      sload\n      dup2\n      mstore\n      swap1\n      0x01\n      add\n      swap1\n      0x20\n      add\n      dup1\n      dup4\n      gt\n      tag_162\n      jumpi\n      dup3\n      swap1\n      sub\n      0x1f\n      and\n      dup3\n      add\n      swap2\n    tag_160:\n      pop\n      pop\n      pop\n      pop\n      pop\n      dup2\n      jump\t// out\n        /* \"MemberPool.sol\":2023:2123  function dismissMemberReport(address member)... */\n    tag_85:\n        /* \"MemberPool.sol\":2104:2114  msg.sender */\n      caller\n        /* \"MemberPool.sol\":1076:1088  memberActive */\n      0x04\n        /* \"MemberPool.sol\":1076:1096  memberActive[sender] */\n      0x00\n        /* \"MemberPool.sol\":1089:1095  sender */\n      dup3\n        /* \"MemberPool.sol\":1076:1096  memberActive[sender] */\n      0xffffffffffffffffffffffffffffffffffffffff\n      and\n      0xffffffffffffffffffffffffffffffffffffffff\n      and\n      dup2\n      mstore\n      0x20\n      add\n      swap1\n      dup2\n      mstore\n      0x20\n      add\n      0x00\n      keccak256\n      0x00\n      swap1\n      sload\n      swap1\n      0x0100\n      exp\n      swap1\n      div\n      0xff\n      and\n        /* \"MemberPool.sol\":1068:1125  require(memberActive[sender], \"Required to be a memeber\") */\n      tag_164\n      jumpi\n      mload(0x40)\n      0x08c379a000000000000000000000000000000000000000000000000000000000\n      dup2\n      mstore\n      0x04\n      add\n      tag_165\n      swap1\n      tag_96\n      jump\t// in\n    tag_165:\n      mload(0x40)\n      dup1\n      swap2\n      sub\n      swap1\n      revert\n    tag_164:\n        /* \"MemberPool.sol\":2023:2123  function dismissMemberReport(address member)... */\n      pop\n      pop\n      jump\t// out\n        /* \"#utility.yul\":7:106   */\n    tag_167:\n        /* \"#utility.yul\":59:65   */\n      0x00\n        /* \"#utility.yul\":93:98   */\n      dup2\n        /* \"#utility.yul\":87:99   */\n      mload\n        /* \"#utility.yul\":77:99   */\n      swap1\n      pop\n        /* \"#utility.yul\":7:106   */\n      swap2\n      swap1\n      pop\n      jump\t// out\n        /* \"#utility.yul\":112:281   */\n    tag_168:\n        /* \"#utility.yul\":196:207   */\n      0x00\n        /* \"#utility.yul\":230:236   */\n      dup3\n        /* \"#utility.yul\":225:228   */\n      dup3\n        /* \"#utility.yul\":218:237   */\n      mstore\n        /* \"#utility.yul\":270:274   */\n      0x20\n        /* \"#utility.yul\":265:268   */\n      dup3\n        /* \"#utility.yul\":261:275   */\n      add\n        /* \"#utility.yul\":246:275   */\n      swap1\n      pop\n        /* \"#utility.yul\":112:281   */\n      swap3\n      swap2\n      pop\n      pop\n      jump\t// out\n        /* \"#utility.yul\":287:533   */\n    tag_169:\n        /* \"#utility.yul\":368:369   */\n      0x00\n        /* \"#utility.yul\":378:491   */\n    tag_233:\n        /* \"#utility.yul\":392:398   */\n      dup4\n        /* \"#utility.yul\":389:390   */\n      dup2\n        /* \"#utility.yul\":386:399   */\n      lt\n        /* \"#utility.yul\":378:491   */\n      iszero\n      tag_235\n      jumpi\n        /* \"#utility.yul\":477:478   */\n      dup1\n        /* \"#utility.yul\":472:475   */\n      dup3\n        /* \"#utility.yul\":468:479   */\n      add\n        /* \"#utility.yul\":462:480   */\n      mload\n        /* \"#utility.yul\":458:459   */\n      dup2\n        /* \"#utility.yul\":453:456   */\n      dup5\n        /* \"#utility.yul\":449:460   */\n      add\n        /* \"#utility.yul\":442:481   */\n      mstore\n        /* \"#utility.yul\":414:416   */\n      0x20\n        /* \"#utility.yul\":411:412   */\n      dup2\n        /* \"#utility.yul\":407:417   */\n      add\n        /* \"#utility.yul\":402:417   */\n      swap1\n      pop\n        /* \"#utility.yul\":378:491   */\n      jump(tag_233)\n    tag_235:\n        /* \"#utility.yul\":525:526   */\n      0x00\n        /* \"#utility.yul\":516:522   */\n      dup5\n        /* \"#utility.yul\":511:514   */\n      dup5\n        /* \"#utility.yul\":507:523   */\n      add\n        /* \"#utility.yul\":500:527   */\n      mstore\n        /* \"#utility.yul\":349:533   */\n      pop\n        /* \"#utility.yul\":287:533   */\n      pop\n      pop\n      pop\n      jump\t// out\n        /* \"#utility.yul\":539:641   */\n    tag_170:\n        /* \"#utility.yul\":580:586   */\n      0x00\n        /* \"#utility.yul\":631:633   */\n      0x1f\n        /* \"#utility.yul\":627:634   */\n      not\n        /* \"#utility.yul\":622:624   */\n      0x1f\n        /* \"#utility.yul\":615:620   */\n      dup4\n        /* \"#utility.yul\":611:625   */\n      add\n        /* \"#utility.yul\":607:635   */\n      and\n        /* \"#utility.yul\":597:635   */\n      swap1\n      pop\n        /* \"#utility.yul\":539:641   */\n      swap2\n      swap1\n      pop\n      jump\t// out\n        /* \"#utility.yul\":647:1024   */\n    tag_171:\n        /* \"#utility.yul\":735:738   */\n      0x00\n        /* \"#utility.yul\":763:802   */\n      tag_238\n        /* \"#utility.yul\":796:801   */\n      dup3\n        /* \"#utility.yul\":763:802   */\n      tag_167\n      jump\t// in\n    tag_238:\n        /* \"#utility.yul\":818:889   */\n      tag_239\n        /* \"#utility.yul\":882:888   */\n      dup2\n        /* \"#utility.yul\":877:880   */\n      dup6\n        /* \"#utility.yul\":818:889   */\n      tag_168\n      jump\t// in\n    tag_239:\n        /* \"#utility.yul\":811:889   */\n      swap4\n      pop\n        /* \"#utility.yul\":898:963   */\n      tag_240\n        /* \"#utility.yul\":956:962   */\n      dup2\n        /* \"#utility.yul\":951:954   */\n      dup6\n        /* \"#utility.yul\":944:948   */\n      0x20\n        /* \"#utility.yul\":937:942   */\n      dup7\n        /* \"#utility.yul\":933:949   */\n      add\n        /* \"#utility.yul\":898:963   */\n      tag_169\n      jump\t// in\n    tag_240:\n        /* \"#utility.yul\":988:1017   */\n      tag_241\n        /* \"#utility.yul\":1010:1016   */\n      dup2\n        /* \"#utility.yul\":988:1017   */\n      tag_170\n      jump\t// in\n    tag_241:\n        /* \"#utility.yul\":983:986   */\n      dup5\n        /* \"#utility.yul\":979:1018   */\n      add\n        /* \"#utility.yul\":972:1018   */\n      swap2\n      pop\n        /* \"#utility.yul\":739:1024   */\n      pop\n        /* \"#utility.yul\":647:1024   */\n      swap3\n      swap2\n      pop\n      pop\n      jump\t// out\n        /* \"#utility.yul\":1030:1343   */\n    tag_25:\n        /* \"#utility.yul\":1143:1147   */\n      0x00\n        /* \"#utility.yul\":1181:1183   */\n      0x20\n        /* \"#utility.yul\":1170:1179   */\n      dup3\n        /* \"#utility.yul\":1166:1184   */\n      add\n        /* \"#utility.yul\":1158:1184   */\n      swap1\n      pop\n        /* \"#utility.yul\":1230:1239   */\n      dup2\n        /* \"#utility.yul\":1224:1228   */\n      dup2\n        /* \"#utility.yul\":1220:1240   */\n      sub\n        /* \"#utility.yul\":1216:1217   */\n      0x00\n        /* \"#utility.yul\":1205:1214   */\n      dup4\n        /* \"#utility.yul\":1201:1218   */\n      add\n        /* \"#utility.yul\":1194:1241   */\n      mstore\n        /* \"#utility.yul\":1258:1336   */\n      tag_243\n        /* \"#utility.yul\":1331:1335   */\n      dup2\n        /* \"#utility.yul\":1322:1328   */\n      dup5\n        /* \"#utility.yul\":1258:1336   */\n      tag_171\n      jump\t// in\n    tag_243:\n        /* \"#utility.yul\":1250:1336   */\n      swap1\n      pop\n        /* \"#utility.yul\":1030:1343   */\n      swap3\n      swap2\n      pop\n      pop\n      jump\t// out\n        /* \"#utility.yul\":1349:1424   */\n    tag_172:\n        /* \"#utility.yul\":1382:1388   */\n      0x00\n        /* \"#utility.yul\":1415:1417   */\n      0x40\n        /* \"#utility.yul\":1409:1418   */\n      mload\n        /* \"#utility.yul\":1399:1418   */\n      swap1\n      pop\n        /* \"#utility.yul\":1349:1424   */\n      swap1\n      jump\t// out\n        /* \"#utility.yul\":1430:1547   */\n    tag_173:\n        /* \"#utility.yul\":1539:1540   */\n      0x00\n        /* \"#utility.yul\":1536:1537   */\n      dup1\n        /* \"#utility.yul\":1529:1541   */\n      revert\n        /* \"#utility.yul\":1553:1670   */\n    tag_174:\n        /* \"#utility.yul\":1662:1663   */\n      0x00\n        /* \"#utility.yul\":1659:1660   */\n      dup1\n        /* \"#utility.yul\":1652:1664   */\n      revert\n        /* \"#utility.yul\":1676:1802   */\n    tag_175:\n        /* \"#utility.yul\":1713:1720   */\n      0x00\n        /* \"#utility.yul\":1753:1795   */\n      0xffffffffffffffffffffffffffffffffffffffff\n        /* \"#utility.yul\":1746:1751   */\n      dup3\n        /* \"#utility.yul\":1742:1796   */\n      and\n        /* \"#utility.yul\":1731:1796   */\n      swap1\n      pop\n        /* \"#utility.yul\":1676:1802   */\n      swap2\n      swap1\n      pop\n      jump\t// out\n        /* \"#utility.yul\":1808:1904   */\n    tag_176:\n        /* \"#utility.yul\":1845:1852   */\n      0x00\n        /* \"#utility.yul\":1874:1898   */\n      tag_249\n        /* \"#utility.yul\":1892:1897   */\n      dup3\n        /* \"#utility.yul\":1874:1898   */\n      tag_175\n      jump\t// in\n    tag_249:\n        /* \"#utility.yul\":1863:1898   */\n      swap1\n      pop\n        /* \"#utility.yul\":1808:1904   */\n      swap2\n      swap1\n      pop\n      jump\t// out\n        /* \"#utility.yul\":1910:2032   */\n    tag_177:\n        /* \"#utility.yul\":1983:2007   */\n      tag_251\n        /* \"#utility.yul\":2001:2006   */\n      dup2\n        /* \"#utility.yul\":1983:2007   */\n      tag_176\n      jump\t// in\n    tag_251:\n        /* \"#utility.yul\":1976:1981   */\n      dup2\n        /* \"#utility.yul\":1973:2008   */\n      eq\n        /* \"#utility.yul\":1963:2026   */\n      tag_252\n      jumpi\n        /* \"#utility.yul\":2022:2023   */\n      0x00\n        /* \"#utility.yul\":2019:2020   */\n      dup1\n        /* \"#utility.yul\":2012:2024   */\n      revert\n        /* \"#utility.yul\":1963:2026   */\n    tag_252:\n        /* \"#utility.yul\":1910:2032   */\n      pop\n      jump\t// out\n        /* \"#utility.yul\":2038:2177   */\n    tag_178:\n        /* \"#utility.yul\":2084:2089   */\n      0x00\n        /* \"#utility.yul\":2122:2128   */\n      dup2\n        /* \"#utility.yul\":2109:2129   */\n      calldataload\n        /* \"#utility.yul\":2100:2129   */\n      swap1\n      pop\n        /* \"#utility.yul\":2138:2171   */\n      tag_254\n        /* \"#utility.yul\":2165:2170   */\n      dup2\n        /* \"#utility.yul\":2138:2171   */\n      tag_177\n      jump\t// in\n    tag_254:\n        /* \"#utility.yul\":2038:2177   */\n      swap3\n      swap2\n      pop\n      pop\n      jump\t// out\n        /* \"#utility.yul\":2183:2512   */\n    tag_28:\n        /* \"#utility.yul\":2242:2248   */\n      0x00\n        /* \"#utility.yul\":2291:2293   */\n      0x20\n        /* \"#utility.yul\":2279:2288   */\n      dup3\n        /* \"#utility.yul\":2270:2277   */\n      dup5\n        /* \"#utility.yul\":2266:2289   */\n      sub\n        /* \"#utility.yul\":2262:2294   */\n      slt\n        /* \"#utility.yul\":2259:2378   */\n      iszero\n      tag_256\n      jumpi\n        /* \"#utility.yul\":2297:2376   */\n      tag_257\n      tag_173\n      jump\t// in\n    tag_257:\n        /* \"#utility.yul\":2259:2378   */\n    tag_256:\n        /* \"#utility.yul\":2417:2418   */\n      0x00\n        /* \"#utility.yul\":2442:2495   */\n      tag_258\n        /* \"#utility.yul\":2487:2494   */\n      dup5\n        /* \"#utility.yul\":2478:2484   */\n      dup3\n        /* \"#utility.yul\":2467:2476   */\n      dup6\n        /* \"#utility.yul\":2463:2485   */\n      add\n        /* \"#utility.yul\":2442:2495   */\n      tag_178\n      jump\t// in\n    tag_258:\n        /* \"#utility.yul\":2432:2495   */\n      swap2\n      pop\n        /* \"#utility.yul\":2388:2505   */\n      pop\n        /* \"#utility.yul\":2183:2512   */\n      swap3\n      swap2\n      pop\n      pop\n      jump\t// out\n        /* \"#utility.yul\":2518:2608   */\n    tag_179:\n        /* \"#utility.yul\":2553:2560   */\n      0x00\n        /* \"#utility.yul\":2596:2601   */\n      dup2\n        /* \"#utility.yul\":2593:2594   */\n      0x03\n        /* \"#utility.yul\":2582:2602   */\n      signextend\n        /* \"#utility.yul\":2571:2602   */\n      swap1\n      pop\n        /* \"#utility.yul\":2518:2608   */\n      swap2\n      swap1\n      pop\n      jump\t// out\n        /* \"#utility.yul\":2614:2726   */\n    tag_180:\n        /* \"#utility.yul\":2697:2719   */\n      tag_261\n        /* \"#utility.yul\":2713:2718   */\n      dup2\n        /* \"#utility.yul\":2697:2719   */\n      tag_179\n      jump\t// in\n    tag_261:\n        /* \"#utility.yul\":2692:2695   */\n      dup3\n        /* \"#utility.yul\":2685:2720   */\n      mstore\n        /* \"#utility.yul\":2614:2726   */\n      pop\n      pop\n      jump\t// out\n        /* \"#utility.yul\":2732:2946   */\n    tag_31:\n        /* \"#utility.yul\":2821:2825   */\n      0x00\n        /* \"#utility.yul\":2859:2861   */\n      0x20\n        /* \"#utility.yul\":2848:2857   */\n      dup3\n        /* \"#utility.yul\":2844:2862   */\n      add\n        /* \"#utility.yul\":2836:2862   */\n      swap1\n      pop\n        /* \"#utility.yul\":2872:2939   */\n      tag_263\n        /* \"#utility.yul\":2936:2937   */\n      0x00\n        /* \"#utility.yul\":2925:2934   */\n      dup4\n        /* \"#utility.yul\":2921:2938   */\n      add\n        /* \"#utility.yul\":2912:2918   */\n      dup5\n        /* \"#utility.yul\":2872:2939   */\n      tag_180\n      jump\t// in\n    tag_263:\n        /* \"#utility.yul\":2732:2946   */\n      swap3\n      swap2\n      pop\n      pop\n      jump\t// out\n        /* \"#utility.yul\":2952:3069   */\n    tag_181:\n        /* \"#utility.yul\":3061:3062   */\n      0x00\n        /* \"#utility.yul\":3058:3059   */\n      dup1\n        /* \"#utility.yul\":3051:3063   */\n      revert\n        /* \"#utility.yul\":3075:3192   */\n    tag_182:\n        /* \"#utility.yul\":3184:3185   */\n      0x00\n        /* \"#utility.yul\":3181:3182   */\n      dup1\n        /* \"#utility.yul\":3174:3186   */\n      revert\n        /* \"#utility.yul\":3198:3315   */\n    tag_183:\n        /* \"#utility.yul\":3307:3308   */\n      0x00\n        /* \"#utility.yul\":3304:3305   */\n      dup1\n        /* \"#utility.yul\":3297:3309   */\n      revert\n        /* \"#utility.yul\":3335:3888   */\n    tag_184:\n        /* \"#utility.yul\":3393:3401   */\n      0x00\n        /* \"#utility.yul\":3403:3409   */\n      dup1\n        /* \"#utility.yul\":3453:3456   */\n      dup4\n        /* \"#utility.yul\":3446:3450   */\n      0x1f\n        /* \"#utility.yul\":3438:3444   */\n      dup5\n        /* \"#utility.yul\":3434:3451   */\n      add\n        /* \"#utility.yul\":3430:3457   */\n      slt\n        /* \"#utility.yul\":3420:3542   */\n      tag_268\n      jumpi\n        /* \"#utility.yul\":3461:3540   */\n      tag_269\n      tag_181\n      jump\t// in\n    tag_269:\n        /* \"#utility.yul\":3420:3542   */\n    tag_268:\n        /* \"#utility.yul\":3574:3580   */\n      dup3\n        /* \"#utility.yul\":3561:3581   */\n      calldataload\n        /* \"#utility.yul\":3551:3581   */\n      swap1\n      pop\n        /* \"#utility.yul\":3604:3622   */\n      0xffffffffffffffff\n        /* \"#utility.yul\":3596:3602   */\n      dup2\n        /* \"#utility.yul\":3593:3623   */\n      gt\n        /* \"#utility.yul\":3590:3707   */\n      iszero\n      tag_270\n      jumpi\n        /* \"#utility.yul\":3626:3705   */\n      tag_271\n      tag_182\n      jump\t// in\n    tag_271:\n        /* \"#utility.yul\":3590:3707   */\n    tag_270:\n        /* \"#utility.yul\":3740:3744   */\n      0x20\n        /* \"#utility.yul\":3732:3738   */\n      dup4\n        /* \"#utility.yul\":3728:3745   */\n      add\n        /* \"#utility.yul\":3716:3745   */\n      swap2\n      pop\n        /* \"#utility.yul\":3794:3797   */\n      dup4\n        /* \"#utility.yul\":3786:3790   */\n      0x01\n        /* \"#utility.yul\":3778:3784   */\n      dup3\n        /* \"#utility.yul\":3774:3791   */\n      mul\n        /* \"#utility.yul\":3764:3772   */\n      dup4\n        /* \"#utility.yul\":3760:3792   */\n      add\n        /* \"#utility.yul\":3757:3798   */\n      gt\n        /* \"#utility.yul\":3754:3882   */\n      iszero\n      tag_272\n      jumpi\n        /* \"#utility.yul\":3801:3880   */\n      tag_273\n      tag_183\n      jump\t// in\n    tag_273:\n        /* \"#utility.yul\":3754:3882   */\n    tag_272:\n        /* \"#utility.yul\":3335:3888   */\n      swap3\n      pop\n      swap3\n      swap1\n      pop\n      jump\t// out\n        /* \"#utility.yul\":3894:4568   */\n    tag_34:\n        /* \"#utility.yul\":3974:3980   */\n      0x00\n        /* \"#utility.yul\":3982:3988   */\n      dup1\n        /* \"#utility.yul\":3990:3996   */\n      0x00\n        /* \"#utility.yul\":4039:4041   */\n      0x40\n        /* \"#utility.yul\":4027:4036   */\n      dup5\n        /* \"#utility.yul\":4018:4025   */\n      dup7\n        /* \"#utility.yul\":4014:4037   */\n      sub\n        /* \"#utility.yul\":4010:4042   */\n      slt\n        /* \"#utility.yul\":4007:4126   */\n      iszero\n      tag_275\n      jumpi\n        /* \"#utility.yul\":4045:4124   */\n      tag_276\n      tag_173\n      jump\t// in\n    tag_276:\n        /* \"#utility.yul\":4007:4126   */\n    tag_275:\n        /* \"#utility.yul\":4165:4166   */\n      0x00\n        /* \"#utility.yul\":4190:4243   */\n      tag_277\n        /* \"#utility.yul\":4235:4242   */\n      dup7\n        /* \"#utility.yul\":4226:4232   */\n      dup3\n        /* \"#utility.yul\":4215:4224   */\n      dup8\n        /* \"#utility.yul\":4211:4233   */\n      add\n        /* \"#utility.yul\":4190:4243   */\n      tag_178\n      jump\t// in\n    tag_277:\n        /* \"#utility.yul\":4180:4243   */\n      swap4\n      pop\n        /* \"#utility.yul\":4136:4253   */\n      pop\n        /* \"#utility.yul\":4320:4322   */\n      0x20\n        /* \"#utility.yul\":4309:4318   */\n      dup5\n        /* \"#utility.yul\":4305:4323   */\n      add\n        /* \"#utility.yul\":4292:4324   */\n      calldataload\n        /* \"#utility.yul\":4351:4369   */\n      0xffffffffffffffff\n        /* \"#utility.yul\":4343:4349   */\n      dup2\n        /* \"#utility.yul\":4340:4370   */\n      gt\n        /* \"#utility.yul\":4337:4454   */\n      iszero\n      tag_278\n      jumpi\n        /* \"#utility.yul\":4373:4452   */\n      tag_279\n      tag_174\n      jump\t// in\n    tag_279:\n        /* \"#utility.yul\":4337:4454   */\n    tag_278:\n        /* \"#utility.yul\":4486:4551   */\n      tag_280\n        /* \"#utility.yul\":4543:4550   */\n      dup7\n        /* \"#utility.yul\":4534:4540   */\n      dup3\n        /* \"#utility.yul\":4523:4532   */\n      dup8\n        /* \"#utility.yul\":4519:4541   */\n      add\n        /* \"#utility.yul\":4486:4551   */\n      tag_184\n      jump\t// in\n    tag_280:\n        /* \"#utility.yul\":4468:4551   */\n      swap3\n      pop\n      swap3\n      pop\n        /* \"#utility.yul\":4263:4561   */\n      pop\n        /* \"#utility.yul\":3894:4568   */\n      swap3\n      pop\n      swap3\n      pop\n      swap3\n      jump\t// out\n        /* \"#utility.yul\":4574:4688   */\n    tag_185:\n        /* \"#utility.yul\":4641:4647   */\n      0x00\n        /* \"#utility.yul\":4675:4680   */\n      dup2\n        /* \"#utility.yul\":4669:4681   */\n      mload\n        /* \"#utility.yul\":4659:4681   */\n      swap1\n      pop\n        /* \"#utility.yul\":4574:4688   */\n      swap2\n      swap1\n      pop\n      jump\t// out\n        /* \"#utility.yul\":4694:4878   */\n    tag_186:\n        /* \"#utility.yul\":4793:4804   */\n      0x00\n        /* \"#utility.yul\":4827:4833   */\n      dup3\n        /* \"#utility.yul\":4822:4825   */\n      dup3\n        /* \"#utility.yul\":4815:4834   */\n      mstore\n        /* \"#utility.yul\":4867:4871   */\n      0x20\n        /* \"#utility.yul\":4862:4865   */\n      dup3\n        /* \"#utility.yul\":4858:4872   */\n      add\n        /* \"#utility.yul\":4843:4872   */\n      swap1\n      pop\n        /* \"#utility.yul\":4694:4878   */\n      swap3\n      swap2\n      pop\n      pop\n      jump\t// out\n        /* \"#utility.yul\":4884:5016   */\n    tag_187:\n        /* \"#utility.yul\":4951:4955   */\n      0x00\n        /* \"#utility.yul\":4974:4977   */\n      dup2\n        /* \"#utility.yul\":4966:4977   */\n      swap1\n      pop\n        /* \"#utility.yul\":5004:5008   */\n      0x20\n        /* \"#utility.yul\":4999:5002   */\n      dup3\n        /* \"#utility.yul\":4995:5009   */\n      add\n        /* \"#utility.yul\":4987:5009   */\n      swap1\n      pop\n        /* \"#utility.yul\":4884:5016   */\n      swap2\n      swap1\n      pop\n      jump\t// out\n        /* \"#utility.yul\":5022:5130   */\n    tag_188:\n        /* \"#utility.yul\":5099:5123   */\n      tag_285\n        /* \"#utility.yul\":5117:5122   */\n      dup2\n        /* \"#utility.yul\":5099:5123   */\n      tag_176\n      jump\t// in\n    tag_285:\n        /* \"#utility.yul\":5094:5097   */\n      dup3\n        /* \"#utility.yul\":5087:5124   */\n      mstore\n        /* \"#utility.yul\":5022:5130   */\n      pop\n      pop\n      jump\t// out\n        /* \"#utility.yul\":5136:5315   */\n    tag_189:\n        /* \"#utility.yul\":5205:5215   */\n      0x00\n        /* \"#utility.yul\":5226:5272   */\n      tag_287\n        /* \"#utility.yul\":5268:5271   */\n      dup4\n        /* \"#utility.yul\":5260:5266   */\n      dup4\n        /* \"#utility.yul\":5226:5272   */\n      tag_188\n      jump\t// in\n    tag_287:\n        /* \"#utility.yul\":5304:5308   */\n      0x20\n        /* \"#utility.yul\":5299:5302   */\n      dup4\n        /* \"#utility.yul\":5295:5309   */\n      add\n        /* \"#utility.yul\":5281:5309   */\n      swap1\n      pop\n        /* \"#utility.yul\":5136:5315   */\n      swap3\n      swap2\n      pop\n      pop\n      jump\t// out\n        /* \"#utility.yul\":5321:5434   */\n    tag_190:\n        /* \"#utility.yul\":5391:5395   */\n      0x00\n        /* \"#utility.yul\":5423:5427   */\n      0x20\n        /* \"#utility.yul\":5418:5421   */\n      dup3\n        /* \"#utility.yul\":5414:5428   */\n      add\n        /* \"#utility.yul\":5406:5428   */\n      swap1\n      pop\n        /* \"#utility.yul\":5321:5434   */\n      swap2\n      swap1\n      pop\n      jump\t// out\n        /* \"#utility.yul\":5470:6202   */\n    tag_191:\n        /* \"#utility.yul\":5589:5592   */\n      0x00\n        /* \"#utility.yul\":5618:5672   */\n      tag_290\n        /* \"#utility.yul\":5666:5671   */\n      dup3\n        /* \"#utility.yul\":5618:5672   */\n      tag_185\n      jump\t// in\n    tag_290:\n        /* \"#utility.yul\":5688:5774   */\n      tag_291\n        /* \"#utility.yul\":5767:5773   */\n      dup2\n        /* \"#utility.yul\":5762:5765   */\n      dup6\n        /* \"#utility.yul\":5688:5774   */\n      tag_186\n      jump\t// in\n    tag_291:\n        /* \"#utility.yul\":5681:5774   */\n      swap4\n      pop\n        /* \"#utility.yul\":5798:5854   */\n      tag_292\n        /* \"#utility.yul\":5848:5853   */\n      dup4\n        /* \"#utility.yul\":5798:5854   */\n      tag_187\n      jump\t// in\n    tag_292:\n        /* \"#utility.yul\":5877:5884   */\n      dup1\n        /* \"#utility.yul\":5908:5909   */\n      0x00\n        /* \"#utility.yul\":5893:6177   */\n    tag_293:\n        /* \"#utility.yul\":5918:5924   */\n      dup4\n        /* \"#utility.yul\":5915:5916   */\n      dup2\n        /* \"#utility.yul\":5912:5925   */\n      lt\n        /* \"#utility.yul\":5893:6177   */\n      iszero\n      tag_295\n      jumpi\n        /* \"#utility.yul\":5994:6000   */\n      dup2\n        /* \"#utility.yul\":5988:6001   */\n      mload\n        /* \"#utility.yul\":6021:6084   */\n      tag_296\n        /* \"#utility.yul\":6080:6083   */\n      dup9\n        /* \"#utility.yul\":6065:6078   */\n      dup3\n        /* \"#utility.yul\":6021:6084   */\n      tag_189\n      jump\t// in\n    tag_296:\n        /* \"#utility.yul\":6014:6084   */\n      swap8\n      pop\n        /* \"#utility.yul\":6107:6167   */\n      tag_297\n        /* \"#utility.yul\":6160:6166   */\n      dup4\n        /* \"#utility.yul\":6107:6167   */\n      tag_190\n      jump\t// in\n    tag_297:\n        /* \"#utility.yul\":6097:6167   */\n      swap3\n      pop\n        /* \"#utility.yul\":5953:6177   */\n      pop\n        /* \"#utility.yul\":5940:5941   */\n      0x01\n        /* \"#utility.yul\":5937:5938   */\n      dup2\n        /* \"#utility.yul\":5933:5942   */\n      add\n        /* \"#utility.yul\":5928:5942   */\n      swap1\n      pop\n        /* \"#utility.yul\":5893:6177   */\n      jump(tag_293)\n    tag_295:\n        /* \"#utility.yul\":5897:5911   */\n      pop\n        /* \"#utility.yul\":6193:6196   */\n      dup6\n        /* \"#utility.yul\":6186:6196   */\n      swap4\n      pop\n        /* \"#utility.yul\":5594:6202   */\n      pop\n      pop\n      pop\n        /* \"#utility.yul\":5470:6202   */\n      swap3\n      swap2\n      pop\n      pop\n      jump\t// out\n        /* \"#utility.yul\":6208:6581   */\n    tag_42:\n        /* \"#utility.yul\":6351:6355   */\n      0x00\n        /* \"#utility.yul\":6389:6391   */\n      0x20\n        /* \"#utility.yul\":6378:6387   */\n      dup3\n        /* \"#utility.yul\":6374:6392   */\n      add\n        /* \"#utility.yul\":6366:6392   */\n      swap1\n      pop\n        /* \"#utility.yul\":6438:6447   */\n      dup2\n        /* \"#utility.yul\":6432:6436   */\n      dup2\n        /* \"#utility.yul\":6428:6448   */\n      sub\n        /* \"#utility.yul\":6424:6425   */\n      0x00\n        /* \"#utility.yul\":6413:6422   */\n      dup4\n        /* \"#utility.yul\":6409:6426   */\n      add\n        /* \"#utility.yul\":6402:6449   */\n      mstore\n        /* \"#utility.yul\":6466:6574   */\n      tag_299\n        /* \"#utility.yul\":6569:6573   */\n      dup2\n        /* \"#utility.yul\":6560:6566   */\n      dup5\n        /* \"#utility.yul\":6466:6574   */\n      tag_191\n      jump\t// in\n    tag_299:\n        /* \"#utility.yul\":6458:6574   */\n      swap1\n      pop\n        /* \"#utility.yul\":6208:6581   */\n      swap3\n      swap2\n      pop\n      pop\n      jump\t// out\n        /* \"#utility.yul\":6587:6664   */\n    tag_192:\n        /* \"#utility.yul\":6624:6631   */\n      0x00\n        /* \"#utility.yul\":6653:6658   */\n      dup2\n        /* \"#utility.yul\":6642:6658   */\n      swap1\n      pop\n        /* \"#utility.yul\":6587:6664   */\n      swap2\n      swap1\n      pop\n      jump\t// out\n        /* \"#utility.yul\":6670:6792   */\n    tag_193:\n        /* \"#utility.yul\":6743:6767   */\n      tag_302\n        /* \"#utility.yul\":6761:6766   */\n      dup2\n        /* \"#utility.yul\":6743:6767   */\n      tag_192\n      jump\t// in\n    tag_302:\n        /* \"#utility.yul\":6736:6741   */\n      dup2\n        /* \"#utility.yul\":6733:6768   */\n      eq\n        /* \"#utility.yul\":6723:6786   */\n      tag_303\n      jumpi\n        /* \"#utility.yul\":6782:6783   */\n      0x00\n        /* \"#utility.yul\":6779:6780   */\n      dup1\n        /* \"#utility.yul\":6772:6784   */\n      revert\n        /* \"#utility.yul\":6723:6786   */\n    tag_303:\n        /* \"#utility.yul\":6670:6792   */\n      pop\n      jump\t// out\n        /* \"#utility.yul\":6798:6937   */\n    tag_194:\n        /* \"#utility.yul\":6844:6849   */\n      0x00\n        /* \"#utility.yul\":6882:6888   */\n      dup2\n        /* \"#utility.yul\":6869:6889   */\n      calldataload\n        /* \"#utility.yul\":6860:6889   */\n      swap1\n      pop\n        /* \"#utility.yul\":6898:6931   */\n      tag_305\n        /* \"#utility.yul\":6925:6930   */\n      dup2\n        /* \"#utility.yul\":6898:6931   */\n      tag_193\n      jump\t// in\n    tag_305:\n        /* \"#utility.yul\":6798:6937   */\n      swap3\n      swap2\n      pop\n      pop\n      jump\t// out\n        /* \"#utility.yul\":6943:7272   */\n    tag_45:\n        /* \"#utility.yul\":7002:7008   */\n      0x00\n        /* \"#utility.yul\":7051:7053   */\n      0x20\n        /* \"#utility.yul\":7039:7048   */\n      dup3\n        /* \"#utility.yul\":7030:7037   */\n      dup5\n        /* \"#utility.yul\":7026:7049   */\n      sub\n        /* \"#utility.yul\":7022:7054   */\n      slt\n        /* \"#utility.yul\":7019:7138   */\n      iszero\n      tag_307\n      jumpi\n        /* \"#utility.yul\":7057:7136   */\n      tag_308\n      tag_173\n      jump\t// in\n    tag_308:\n        /* \"#utility.yul\":7019:7138   */\n    tag_307:\n        /* \"#utility.yul\":7177:7178   */\n      0x00\n        /* \"#utility.yul\":7202:7255   */\n      tag_309\n        /* \"#utility.yul\":7247:7254   */\n      dup5\n        /* \"#utility.yul\":7238:7244   */\n      dup3\n        /* \"#utility.yul\":7227:7236   */\n      dup6\n        /* \"#utility.yul\":7223:7245   */\n      add\n        /* \"#utility.yul\":7202:7255   */\n      tag_194\n      jump\t// in\n    tag_309:\n        /* \"#utility.yul\":7192:7255   */\n      swap2\n      pop\n        /* \"#utility.yul\":7148:7265   */\n      pop\n        /* \"#utility.yul\":6943:7272   */\n      swap3\n      swap2\n      pop\n      pop\n      jump\t// out\n        /* \"#utility.yul\":7278:7396   */\n    tag_195:\n        /* \"#utility.yul\":7365:7389   */\n      tag_311\n        /* \"#utility.yul\":7383:7388   */\n      dup2\n        /* \"#utility.yul\":7365:7389   */\n      tag_176\n      jump\t// in\n    tag_311:\n        /* \"#utility.yul\":7360:7363   */\n      dup3\n        /* \"#utility.yul\":7353:7390   */\n      mstore\n        /* \"#utility.yul\":7278:7396   */\n      pop\n      pop\n      jump\t// out\n        /* \"#utility.yul\":7402:7624   */\n    tag_48:\n        /* \"#utility.yul\":7495:7499   */\n      0x00\n        /* \"#utility.yul\":7533:7535   */\n      0x20\n        /* \"#utility.yul\":7522:7531   */\n      dup3\n        /* \"#utility.yul\":7518:7536   */\n      add\n        /* \"#utility.yul\":7510:7536   */\n      swap1\n      pop\n        /* \"#utility.yul\":7546:7617   */\n      tag_313\n        /* \"#utility.yul\":7614:7615   */\n      0x00\n        /* \"#utility.yul\":7603:7612   */\n      dup4\n        /* \"#utility.yul\":7599:7616   */\n      add\n        /* \"#utility.yul\":7590:7596   */\n      dup5\n        /* \"#utility.yul\":7546:7617   */\n      tag_195\n      jump\t// in\n    tag_313:\n        /* \"#utility.yul\":7402:7624   */\n      swap3\n      swap2\n      pop\n      pop\n      jump\t// out\n        /* \"#utility.yul\":7630:7723   */\n    tag_196:\n        /* \"#utility.yul\":7666:7673   */\n      0x00\n        /* \"#utility.yul\":7706:7716   */\n      0xffffffff\n        /* \"#utility.yul\":7699:7704   */\n      dup3\n        /* \"#utility.yul\":7695:7717   */\n      and\n        /* \"#utility.yul\":7684:7717   */\n      swap1\n      pop\n        /* \"#utility.yul\":7630:7723   */\n      swap2\n      swap1\n      pop\n      jump\t// out\n        /* \"#utility.yul\":7729:7844   */\n    tag_197:\n        /* \"#utility.yul\":7814:7837   */\n      tag_316\n        /* \"#utility.yul\":7831:7836   */\n      dup2\n        /* \"#utility.yul\":7814:7837   */\n      tag_196\n      jump\t// in\n    tag_316:\n        /* \"#utility.yul\":7809:7812   */\n      dup3\n        /* \"#utility.yul\":7802:7838   */\n      mstore\n        /* \"#utility.yul\":7729:7844   */\n      pop\n      pop\n      jump\t// out\n        /* \"#utility.yul\":7850:8068   */\n    tag_53:\n        /* \"#utility.yul\":7941:7945   */\n      0x00\n        /* \"#utility.yul\":7979:7981   */\n      0x20\n        /* \"#utility.yul\":7968:7977   */\n      dup3\n        /* \"#utility.yul\":7964:7982   */\n      add\n        /* \"#utility.yul\":7956:7982   */\n      swap1\n      pop\n        /* \"#utility.yul\":7992:8061   */\n      tag_318\n        /* \"#utility.yul\":8058:8059   */\n      0x00\n        /* \"#utility.yul\":8047:8056   */\n      dup4\n        /* \"#utility.yul\":8043:8060   */\n      add\n        /* \"#utility.yul\":8034:8040   */\n      dup5\n        /* \"#utility.yul\":7992:8061   */\n      tag_197\n      jump\t// in\n    tag_318:\n        /* \"#utility.yul\":7850:8068   */\n      swap3\n      swap2\n      pop\n      pop\n      jump\t// out\n        /* \"#utility.yul\":8074:8192   */\n    tag_198:\n        /* \"#utility.yul\":8161:8185   */\n      tag_320\n        /* \"#utility.yul\":8179:8184   */\n      dup2\n        /* \"#utility.yul\":8161:8185   */\n      tag_192\n      jump\t// in\n    tag_320:\n        /* \"#utility.yul\":8156:8159   */\n      dup3\n        /* \"#utility.yul\":8149:8186   */\n      mstore\n        /* \"#utility.yul\":8074:8192   */\n      pop\n      pop\n      jump\t// out\n        /* \"#utility.yul\":8198:8420   */\n    tag_57:\n        /* \"#utility.yul\":8291:8295   */\n      0x00\n        /* \"#utility.yul\":8329:8331   */\n      0x20\n        /* \"#utility.yul\":8318:8327   */\n      dup3\n        /* \"#utility.yul\":8314:8332   */\n      add\n        /* \"#utility.yul\":8306:8332   */\n      swap1\n      pop\n        /* \"#utility.yul\":8342:8413   */\n      tag_322\n        /* \"#utility.yul\":8410:8411   */\n      0x00\n        /* \"#utility.yul\":8399:8408   */\n      dup4\n        /* \"#utility.yul\":8395:8412   */\n      add\n        /* \"#utility.yul\":8386:8392   */\n      dup5\n        /* \"#utility.yul\":8342:8413   */\n      tag_198\n      jump\t// in\n    tag_322:\n        /* \"#utility.yul\":8198:8420   */\n      swap3\n      swap2\n      pop\n      pop\n      jump\t// out\n        /* \"#utility.yul\":8426:8550   */\n    tag_199:\n        /* \"#utility.yul\":8503:8509   */\n      0x00\n        /* \"#utility.yul\":8537:8542   */\n      dup2\n        /* \"#utility.yul\":8531:8543   */\n      mload\n        /* \"#utility.yul\":8521:8543   */\n      swap1\n      pop\n        /* \"#utility.yul\":8426:8550   */\n      swap2\n      swap1\n      pop\n      jump\t// out\n        /* \"#utility.yul\":8556:8750   */\n    tag_200:\n        /* \"#utility.yul\":8665:8676   */\n      0x00\n        /* \"#utility.yul\":8699:8705   */\n      dup3\n        /* \"#utility.yul\":8694:8697   */\n      dup3\n        /* \"#utility.yul\":8687:8706   */\n      mstore\n        /* \"#utility.yul\":8739:8743   */\n      0x20\n        /* \"#utility.yul\":8734:8737   */\n      dup3\n        /* \"#utility.yul\":8730:8744   */\n      add\n        /* \"#utility.yul\":8715:8744   */\n      swap1\n      pop\n        /* \"#utility.yul\":8556:8750   */\n      swap3\n      swap2\n      pop\n      pop\n      jump\t// out\n        /* \"#utility.yul\":8756:8898   */\n    tag_201:\n        /* \"#utility.yul\":8833:8837   */\n      0x00\n        /* \"#utility.yul\":8856:8859   */\n      dup2\n        /* \"#utility.yul\":8848:8859   */\n      swap1\n      pop\n        /* \"#utility.yul\":8886:8890   */\n      0x20\n        /* \"#utility.yul\":8881:8884   */\n      dup3\n        /* \"#utility.yul\":8877:8891   */\n      add\n        /* \"#utility.yul\":8869:8891   */\n      swap1\n      pop\n        /* \"#utility.yul\":8756:8898   */\n      swap2\n      swap1\n      pop\n      jump\t// out\n        /* \"#utility.yul\":8904:9063   */\n    tag_202:\n        /* \"#utility.yul\":8978:8989   */\n      0x00\n        /* \"#utility.yul\":9012:9018   */\n      dup3\n        /* \"#utility.yul\":9007:9010   */\n      dup3\n        /* \"#utility.yul\":9000:9019   */\n      mstore\n        /* \"#utility.yul\":9052:9056   */\n      0x20\n        /* \"#utility.yul\":9047:9050   */\n      dup3\n        /* \"#utility.yul\":9043:9057   */\n      add\n        /* \"#utility.yul\":9028:9057   */\n      swap1\n      pop\n        /* \"#utility.yul\":8904:9063   */\n      swap3\n      swap2\n      pop\n      pop\n      jump\t// out\n        /* \"#utility.yul\":9069:9426   */\n    tag_203:\n        /* \"#utility.yul\":9147:9150   */\n      0x00\n        /* \"#utility.yul\":9175:9214   */\n      tag_328\n        /* \"#utility.yul\":9208:9213   */\n      dup3\n        /* \"#utility.yul\":9175:9214   */\n      tag_167\n      jump\t// in\n    tag_328:\n        /* \"#utility.yul\":9230:9291   */\n      tag_329\n        /* \"#utility.yul\":9284:9290   */\n      dup2\n        /* \"#utility.yul\":9279:9282   */\n      dup6\n        /* \"#utility.yul\":9230:9291   */\n      tag_202\n      jump\t// in\n    tag_329:\n        /* \"#utility.yul\":9223:9291   */\n      swap4\n      pop\n        /* \"#utility.yul\":9300:9365   */\n      tag_330\n        /* \"#utility.yul\":9358:9364   */\n      dup2\n        /* \"#utility.yul\":9353:9356   */\n      dup6\n        /* \"#utility.yul\":9346:9350   */\n      0x20\n        /* \"#utility.yul\":9339:9344   */\n      dup7\n        /* \"#utility.yul\":9335:9351   */\n      add\n        /* \"#utility.yul\":9300:9365   */\n      tag_169\n      jump\t// in\n    tag_330:\n        /* \"#utility.yul\":9390:9419   */\n      tag_331\n        /* \"#utility.yul\":9412:9418   */\n      dup2\n        /* \"#utility.yul\":9390:9419   */\n      tag_170\n      jump\t// in\n    tag_331:\n        /* \"#utility.yul\":9385:9388   */\n      dup5\n        /* \"#utility.yul\":9381:9420   */\n      add\n        /* \"#utility.yul\":9374:9420   */\n      swap2\n      pop\n        /* \"#utility.yul\":9151:9426   */\n      pop\n        /* \"#utility.yul\":9069:9426   */\n      swap3\n      swap2\n      pop\n      pop\n      jump\t// out\n        /* \"#utility.yul\":9432:9628   */\n    tag_204:\n        /* \"#utility.yul\":9521:9531   */\n      0x00\n        /* \"#utility.yul\":9556:9622   */\n      tag_333\n        /* \"#utility.yul\":9618:9621   */\n      dup4\n        /* \"#utility.yul\":9610:9616   */\n      dup4\n        /* \"#utility.yul\":9556:9622   */\n      tag_203\n      jump\t// in\n    tag_333:\n        /* \"#utility.yul\":9542:9622   */\n      swap1\n      pop\n        /* \"#utility.yul\":9432:9628   */\n      swap3\n      swap2\n      pop\n      pop\n      jump\t// out\n        /* \"#utility.yul\":9634:9757   */\n    tag_205:\n        /* \"#utility.yul\":9714:9718   */\n      0x00\n        /* \"#utility.yul\":9746:9750   */\n      0x20\n        /* \"#utility.yul\":9741:9744   */\n      dup3\n        /* \"#utility.yul\":9737:9751   */\n      add\n        /* \"#utility.yul\":9729:9751   */\n      swap1\n      pop\n        /* \"#utility.yul\":9634:9757   */\n      swap2\n      swap1\n      pop\n      jump\t// out\n        /* \"#utility.yul\":9791:10782   */\n    tag_206:\n        /* \"#utility.yul\":9930:9933   */\n      0x00\n        /* \"#utility.yul\":9959:10023   */\n      tag_336\n        /* \"#utility.yul\":10017:10022   */\n      dup3\n        /* \"#utility.yul\":9959:10023   */\n      tag_199\n      jump\t// in\n    tag_336:\n        /* \"#utility.yul\":10039:10135   */\n      tag_337\n        /* \"#utility.yul\":10128:10134   */\n      dup2\n        /* \"#utility.yul\":10123:10126   */\n      dup6\n        /* \"#utility.yul\":10039:10135   */\n      tag_200\n      jump\t// in\n    tag_337:\n        /* \"#utility.yul\":10032:10135   */\n      swap4\n      pop\n        /* \"#utility.yul\":10161:10164   */\n      dup4\n        /* \"#utility.yul\":10206:10210   */\n      0x20\n        /* \"#utility.yul\":10198:10204   */\n      dup3\n        /* \"#utility.yul\":10194:10211   */\n      mul\n        /* \"#utility.yul\":10189:10192   */\n      dup6\n        /* \"#utility.yul\":10185:10212   */\n      add\n        /* \"#utility.yul\":10236:10302   */\n      tag_338\n        /* \"#utility.yul\":10296:10301   */\n      dup6\n        /* \"#utility.yul\":10236:10302   */\n      tag_201\n      jump\t// in\n    tag_338:\n        /* \"#utility.yul\":10325:10332   */\n      dup1\n        /* \"#utility.yul\":10356:10357   */\n      0x00\n        /* \"#utility.yul\":10341:10737   */\n    tag_339:\n        /* \"#utility.yul\":10366:10372   */\n      dup6\n        /* \"#utility.yul\":10363:10364   */\n      dup2\n        /* \"#utility.yul\":10360:10373   */\n      lt\n        /* \"#utility.yul\":10341:10737   */\n      iszero\n      tag_341\n      jumpi\n        /* \"#utility.yul\":10437:10446   */\n      dup5\n        /* \"#utility.yul\":10431:10435   */\n      dup5\n        /* \"#utility.yul\":10427:10447   */\n      sub\n        /* \"#utility.yul\":10422:10425   */\n      dup10\n        /* \"#utility.yul\":10415:10448   */\n      mstore\n        /* \"#utility.yul\":10488:10494   */\n      dup2\n        /* \"#utility.yul\":10482:10495   */\n      mload\n        /* \"#utility.yul\":10516:10600   */\n      tag_342\n        /* \"#utility.yul\":10595:10599   */\n      dup6\n        /* \"#utility.yul\":10580:10593   */\n      dup3\n        /* \"#utility.yul\":10516:10600   */\n      tag_204\n      jump\t// in\n    tag_342:\n        /* \"#utility.yul\":10508:10600   */\n      swap5\n      pop\n        /* \"#utility.yul\":10623:10693   */\n      tag_343\n        /* \"#utility.yul\":10686:10692   */\n      dup4\n        /* \"#utility.yul\":10623:10693   */\n      tag_205\n      jump\t// in\n    tag_343:\n        /* \"#utility.yul\":10613:10693   */\n      swap3\n      pop\n        /* \"#utility.yul\":10722:10726   */\n      0x20\n        /* \"#utility.yul\":10717:10720   */\n      dup11\n        /* \"#utility.yul\":10713:10727   */\n      add\n        /* \"#utility.yul\":10706:10727   */\n      swap10\n      pop\n        /* \"#utility.yul\":10401:10737   */\n      pop\n        /* \"#utility.yul\":10388:10389   */\n      0x01\n        /* \"#utility.yul\":10385:10386   */\n      dup2\n        /* \"#utility.yul\":10381:10390   */\n      add\n        /* \"#utility.yul\":10376:10390   */\n      swap1\n      pop\n        /* \"#utility.yul\":10341:10737   */\n      jump(tag_339)\n    tag_341:\n        /* \"#utility.yul\":10345:10359   */\n      pop\n        /* \"#utility.yul\":10753:10757   */\n      dup3\n        /* \"#utility.yul\":10746:10757   */\n      swap8\n      pop\n        /* \"#utility.yul\":10773:10776   */\n      dup8\n        /* \"#utility.yul\":10766:10776   */\n      swap6\n      pop\n        /* \"#utility.yul\":9935:10782   */\n      pop\n      pop\n      pop\n      pop\n      pop\n        /* \"#utility.yul\":9791:10782   */\n      swap3\n      swap2\n      pop\n      pop\n      jump\t// out\n        /* \"#utility.yul\":10788:11201   */\n    tag_68:\n        /* \"#utility.yul\":10951:10955   */\n      0x00\n        /* \"#utility.yul\":10989:10991   */\n      0x20\n        /* \"#utility.yul\":10978:10987   */\n      dup3\n        /* \"#utility.yul\":10974:10992   */\n      add\n        /* \"#utility.yul\":10966:10992   */\n      swap1\n      pop\n        /* \"#utility.yul\":11038:11047   */\n      dup2\n        /* \"#utility.yul\":11032:11036   */\n      dup2\n        /* \"#utility.yul\":11028:11048   */\n      sub\n        /* \"#utility.yul\":11024:11025   */\n      0x00\n        /* \"#utility.yul\":11013:11022   */\n      dup4\n        /* \"#utility.yul\":11009:11026   */\n      add\n        /* \"#utility.yul\":11002:11049   */\n      mstore\n        /* \"#utility.yul\":11066:11194   */\n      tag_345\n        /* \"#utility.yul\":11189:11193   */\n      dup2\n        /* \"#utility.yul\":11180:11186   */\n      dup5\n        /* \"#utility.yul\":11066:11194   */\n      tag_206\n      jump\t// in\n    tag_345:\n        /* \"#utility.yul\":11058:11194   */\n      swap1\n      pop\n        /* \"#utility.yul\":10788:11201   */\n      swap3\n      swap2\n      pop\n      pop\n      jump\t// out\n        /* \"#utility.yul\":11207:11297   */\n    tag_207:\n        /* \"#utility.yul\":11241:11248   */\n      0x00\n        /* \"#utility.yul\":11284:11289   */\n      dup2\n        /* \"#utility.yul\":11277:11290   */\n      iszero\n        /* \"#utility.yul\":11270:11291   */\n      iszero\n        /* \"#utility.yul\":11259:11291   */\n      swap1\n      pop\n        /* \"#utility.yul\":11207:11297   */\n      swap2\n      swap1\n      pop\n      jump\t// out\n        /* \"#utility.yul\":11303:11412   */\n    tag_208:\n        /* \"#utility.yul\":11384:11405   */\n      tag_348\n        /* \"#utility.yul\":11399:11404   */\n      dup2\n        /* \"#utility.yul\":11384:11405   */\n      tag_207\n      jump\t// in\n    tag_348:\n        /* \"#utility.yul\":11379:11382   */\n      dup3\n        /* \"#utility.yul\":11372:11406   */\n      mstore\n        /* \"#utility.yul\":11303:11412   */\n      pop\n      pop\n      jump\t// out\n        /* \"#utility.yul\":11418:11628   */\n    tag_76:\n        /* \"#utility.yul\":11505:11509   */\n      0x00\n        /* \"#utility.yul\":11543:11545   */\n      0x20\n        /* \"#utility.yul\":11532:11541   */\n      dup3\n        /* \"#utility.yul\":11528:11546   */\n      add\n        /* \"#utility.yul\":11520:11546   */\n      swap1\n      pop\n        /* \"#utility.yul\":11556:11621   */\n      tag_350\n        /* \"#utility.yul\":11618:11619   */\n      0x00\n        /* \"#utility.yul\":11607:11616   */\n      dup4\n        /* \"#utility.yul\":11603:11620   */\n      add\n        /* \"#utility.yul\":11594:11600   */\n      dup5\n        /* \"#utility.yul\":11556:11621   */\n      tag_208\n      jump\t// in\n    tag_350:\n        /* \"#utility.yul\":11418:11628   */\n      swap3\n      swap2\n      pop\n      pop\n      jump\t// out\n        /* \"#utility.yul\":11634:11814   */\n    tag_209:\n        /* \"#utility.yul\":11682:11759   */\n      0x4e487b7100000000000000000000000000000000000000000000000000000000\n        /* \"#utility.yul\":11679:11680   */\n      0x00\n        /* \"#utility.yul\":11672:11760   */\n      mstore\n        /* \"#utility.yul\":11779:11783   */\n      0x22\n        /* \"#utility.yul\":11776:11777   */\n      0x04\n        /* \"#utility.yul\":11769:11784   */\n      mstore\n        /* \"#utility.yul\":11803:11807   */\n      0x24\n        /* \"#utility.yul\":11800:11801   */\n      0x00\n        /* \"#utility.yul\":11793:11808   */\n      revert\n        /* \"#utility.yul\":11820:12140   */\n    tag_87:\n        /* \"#utility.yul\":11864:11870   */\n      0x00\n        /* \"#utility.yul\":11901:11902   */\n      0x02\n        /* \"#utility.yul\":11895:11899   */\n      dup3\n        /* \"#utility.yul\":11891:11903   */\n      div\n        /* \"#utility.yul\":11881:11903   */\n      swap1\n      pop\n        /* \"#utility.yul\":11948:11949   */\n      0x01\n        /* \"#utility.yul\":11942:11946   */\n      dup3\n        /* \"#utility.yul\":11938:11950   */\n      and\n        /* \"#utility.yul\":11969:11987   */\n      dup1\n        /* \"#utility.yul\":11959:12040   */\n      tag_353\n      jumpi\n        /* \"#utility.yul\":12025:12029   */\n      0x7f\n        /* \"#utility.yul\":12017:12023   */\n      dup3\n        /* \"#utility.yul\":12013:12030   */\n      and\n        /* \"#utility.yul\":12003:12030   */\n      swap2\n      pop\n        /* \"#utility.yul\":11959:12040   */\n    tag_353:\n        /* \"#utility.yul\":12087:12089   */\n      0x20\n        /* \"#utility.yul\":12079:12085   */\n      dup3\n        /* \"#utility.yul\":12076:12090   */\n      lt\n        /* \"#utility.yul\":12056:12074   */\n      dup2\n        /* \"#utility.yul\":12053:12091   */\n      sub\n        /* \"#utility.yul\":12050:12134   */\n      tag_354\n      jumpi\n        /* \"#utility.yul\":12106:12124   */\n      tag_355\n      tag_209\n      jump\t// in\n    tag_355:\n        /* \"#utility.yul\":12050:12134   */\n    tag_354:\n        /* \"#utility.yul\":11871:12140   */\n      pop\n        /* \"#utility.yul\":11820:12140   */\n      swap2\n      swap1\n      pop\n      jump\t// out\n        /* \"#utility.yul\":12146:12320   */\n    tag_210:\n        /* \"#utility.yul\":12286:12312   */\n      0x526571756972656420746f2062652061206d656d656265720000000000000000\n        /* \"#utility.yul\":12282:12283   */\n      0x00\n        /* \"#utility.yul\":12274:12280   */\n      dup3\n        /* \"#utility.yul\":12270:12284   */\n      add\n        /* \"#utility.yul\":12263:12313   */\n      mstore\n        /* \"#utility.yul\":12146:12320   */\n      pop\n      jump\t// out\n        /* \"#utility.yul\":12326:12692   */\n    tag_211:\n        /* \"#utility.yul\":12468:12471   */\n      0x00\n        /* \"#utility.yul\":12489:12556   */\n      tag_358\n        /* \"#utility.yul\":12553:12555   */\n      0x18\n        /* \"#utility.yul\":12548:12551   */\n      dup4\n        /* \"#utility.yul\":12489:12556   */\n      tag_168\n      jump\t// in\n    tag_358:\n        /* \"#utility.yul\":12482:12556   */\n      swap2\n      pop\n        /* \"#utility.yul\":12565:12658   */\n      tag_359\n        /* \"#utility.yul\":12654:12657   */\n      dup3\n        /* \"#utility.yul\":12565:12658   */\n      tag_210\n      jump\t// in\n    tag_359:\n        /* \"#utility.yul\":12683:12685   */\n      0x20\n        /* \"#utility.yul\":12678:12681   */\n      dup3\n        /* \"#utility.yul\":12674:12686   */\n      add\n        /* \"#utility.yul\":12667:12686   */\n      swap1\n      pop\n        /* \"#utility.yul\":12326:12692   */\n      swap2\n      swap1\n      pop\n      jump\t// out\n        /* \"#utility.yul\":12698:13117   */\n    tag_96:\n        /* \"#utility.yul\":12864:12868   */\n      0x00\n        /* \"#utility.yul\":12902:12904   */\n      0x20\n        /* \"#utility.yul\":12891:12900   */\n      dup3\n        /* \"#utility.yul\":12887:12905   */\n      add\n        /* \"#utility.yul\":12879:12905   */\n      swap1\n      pop\n        /* \"#utility.yul\":12951:12960   */\n      dup2\n        /* \"#utility.yul\":12945:12949   */\n      dup2\n        /* \"#utility.yul\":12941:12961   */\n      sub\n        /* \"#utility.yul\":12937:12938   */\n      0x00\n        /* \"#utility.yul\":12926:12935   */\n      dup4\n        /* \"#utility.yul\":12922:12939   */\n      add\n        /* \"#utility.yul\":12915:12962   */\n      mstore\n        /* \"#utility.yul\":12979:13110   */\n      tag_361\n        /* \"#utility.yul\":13105:13109   */\n      dup2\n        /* \"#utility.yul\":12979:13110   */\n      tag_211\n      jump\t// in\n    tag_361:\n        /* \"#utility.yul\":12971:13110   */\n      swap1\n      pop\n        /* \"#utility.yul\":12698:13117   */\n      swap2\n      swap1\n      pop\n      jump\t// out\n        /* \"#utility.yul\":13123:13266   */\n    tag_212:\n        /* \"#utility.yul\":13180:13185   */\n      0x00\n        /* \"#utility.yul\":13211:13217   */\n      dup2\n        /* \"#utility.yul\":13205:13218   */\n      mload\n        /* \"#utility.yul\":13196:13218   */\n      swap1\n      pop\n        /* \"#utility.yul\":13227:13260   */\n      tag_363\n        /* \"#utility.yul\":13254:13259   */\n      dup2\n        /* \"#utility.yul\":13227:13260   */\n      tag_193\n      jump\t// in\n    tag_363:\n        /* \"#utility.yul\":13123:13266   */\n      swap3\n      swap2\n      pop\n      pop\n      jump\t// out\n        /* \"#utility.yul\":13272:13623   */\n    tag_107:\n        /* \"#utility.yul\":13342:13348   */\n      0x00\n        /* \"#utility.yul\":13391:13393   */\n      0x20\n        /* \"#utility.yul\":13379:13388   */\n      dup3\n        /* \"#utility.yul\":13370:13377   */\n      dup5\n        /* \"#utility.yul\":13366:13389   */\n      sub\n        /* \"#utility.yul\":13362:13394   */\n      slt\n        /* \"#utility.yul\":13359:13478   */\n      iszero\n      tag_365\n      jumpi\n        /* \"#utility.yul\":13397:13476   */\n      tag_366\n      tag_173\n      jump\t// in\n    tag_366:\n        /* \"#utility.yul\":13359:13478   */\n    tag_365:\n        /* \"#utility.yul\":13517:13518   */\n      0x00\n        /* \"#utility.yul\":13542:13606   */\n      tag_367\n        /* \"#utility.yul\":13598:13605   */\n      dup5\n        /* \"#utility.yul\":13589:13595   */\n      dup3\n        /* \"#utility.yul\":13578:13587   */\n      dup6\n        /* \"#utility.yul\":13574:13596   */\n      add\n        /* \"#utility.yul\":13542:13606   */\n      tag_212\n      jump\t// in\n    tag_367:\n        /* \"#utility.yul\":13532:13606   */\n      swap2\n      pop\n        /* \"#utility.yul\":13488:13616   */\n      pop\n        /* \"#utility.yul\":13272:13623   */\n      swap3\n      swap2\n      pop\n      pop\n      jump\t// out\n        /* \"#utility.yul\":13629:13798   */\n    tag_213:\n        /* \"#utility.yul\":13769:13790   */\n      0x546f20736f6f6e20746f20656e6420766f746500000000000000000000000000\n        /* \"#utility.yul\":13765:13766   */\n      0x00\n        /* \"#utility.yul\":13757:13763   */\n      dup3\n        /* \"#utility.yul\":13753:13767   */\n      add\n        /* \"#utility.yul\":13746:13791   */\n      mstore\n        /* \"#utility.yul\":13629:13798   */\n      pop\n      jump\t// out\n        /* \"#utility.yul\":13804:14170   */\n    tag_214:\n        /* \"#utility.yul\":13946:13949   */\n      0x00\n        /* \"#utility.yul\":13967:14034   */\n      tag_370\n        /* \"#utility.yul\":14031:14033   */\n      0x13\n        /* \"#utility.yul\":14026:14029   */\n      dup4\n        /* \"#utility.yul\":13967:14034   */\n      tag_168\n      jump\t// in\n    tag_370:\n        /* \"#utility.yul\":13960:14034   */\n      swap2\n      pop\n        /* \"#utility.yul\":14043:14136   */\n      tag_371\n        /* \"#utility.yul\":14132:14135   */\n      dup3\n        /* \"#utility.yul\":14043:14136   */\n      tag_213\n      jump\t// in\n    tag_371:\n        /* \"#utility.yul\":14161:14163   */\n      0x20\n        /* \"#utility.yul\":14156:14159   */\n      dup3\n        /* \"#utility.yul\":14152:14164   */\n      add\n        /* \"#utility.yul\":14145:14164   */\n      swap1\n      pop\n        /* \"#utility.yul\":13804:14170   */\n      swap2\n      swap1\n      pop\n      jump\t// out\n        /* \"#utility.yul\":14176:14595   */\n    tag_110:\n        /* \"#utility.yul\":14342:14346   */\n      0x00\n        /* \"#utility.yul\":14380:14382   */\n      0x20\n        /* \"#utility.yul\":14369:14378   */\n      dup3\n        /* \"#utility.yul\":14365:14383   */\n      add\n        /* \"#utility.yul\":14357:14383   */\n      swap1\n      pop\n        /* \"#utility.yul\":14429:14438   */\n      dup2\n        /* \"#utility.yul\":14423:14427   */\n      dup2\n        /* \"#utility.yul\":14419:14439   */\n      sub\n        /* \"#utility.yul\":14415:14416   */\n      0x00\n        /* \"#utility.yul\":14404:14413   */\n      dup4\n        /* \"#utility.yul\":14400:14417   */\n      add\n        /* \"#utility.yul\":14393:14440   */\n      mstore\n        /* \"#utility.yul\":14457:14588   */\n      tag_373\n        /* \"#utility.yul\":14583:14587   */\n      dup2\n        /* \"#utility.yul\":14457:14588   */\n      tag_214\n      jump\t// in\n    tag_373:\n        /* \"#utility.yul\":14449:14588   */\n      swap1\n      pop\n        /* \"#utility.yul\":14176:14595   */\n      swap2\n      swap1\n      pop\n      jump\t// out\n        /* \"#utility.yul\":14601:14781   */\n    tag_215:\n        /* \"#utility.yul\":14649:14726   */\n      0x4e487b7100000000000000000000000000000000000000000000000000000000\n        /* \"#utility.yul\":14646:14647   */\n      0x00\n        /* \"#utility.yul\":14639:14727   */\n      mstore\n        /* \"#utility.yul\":14746:14750   */\n      0x12\n        /* \"#utility.yul\":14743:14744   */\n      0x04\n        /* \"#utility.yul\":14736:14751   */\n      mstore\n        /* \"#utility.yul\":14770:14774   */\n      0x24\n        /* \"#utility.yul\":14767:14768   */\n      0x00\n        /* \"#utility.yul\":14760:14775   */\n      revert\n        /* \"#utility.yul\":14787:14967   */\n    tag_216:\n        /* \"#utility.yul\":14835:14912   */\n      0x4e487b7100000000000000000000000000000000000000000000000000000000\n        /* \"#utility.yul\":14832:14833   */\n      0x00\n        /* \"#utility.yul\":14825:14913   */\n      mstore\n        /* \"#utility.yul\":14932:14936   */\n      0x11\n        /* \"#utility.yul\":14929:14930   */\n      0x04\n        /* \"#utility.yul\":14922:14937   */\n      mstore\n        /* \"#utility.yul\":14956:14960   */\n      0x24\n        /* \"#utility.yul\":14953:14954   */\n      0x00\n        /* \"#utility.yul\":14946:14961   */\n      revert\n        /* \"#utility.yul\":14973:15158   */\n    tag_117:\n        /* \"#utility.yul\":15013:15014   */\n      0x00\n        /* \"#utility.yul\":15030:15050   */\n      tag_377\n        /* \"#utility.yul\":15048:15049   */\n      dup3\n        /* \"#utility.yul\":15030:15050   */\n      tag_192\n      jump\t// in\n    tag_377:\n        /* \"#utility.yul\":15025:15050   */\n      swap2\n      pop\n        /* \"#utility.yul\":15064:15084   */\n      tag_378\n        /* \"#utility.yul\":15082:15083   */\n      dup4\n        /* \"#utility.yul\":15064:15084   */\n      tag_192\n      jump\t// in\n    tag_378:\n        /* \"#utility.yul\":15059:15084   */\n      swap3\n      pop\n        /* \"#utility.yul\":15103:15104   */\n      dup3\n        /* \"#utility.yul\":15093:15128   */\n      tag_379\n      jumpi\n        /* \"#utility.yul\":15108:15126   */\n      tag_380\n      tag_215\n      jump\t// in\n    tag_380:\n        /* \"#utility.yul\":15093:15128   */\n    tag_379:\n        /* \"#utility.yul\":15150:15151   */\n      dup3\n        /* \"#utility.yul\":15147:15148   */\n      dup3\n        /* \"#utility.yul\":15143:15152   */\n      div\n        /* \"#utility.yul\":15138:15152   */\n      swap1\n      pop\n        /* \"#utility.yul\":14973:15158   */\n      swap3\n      swap2\n      pop\n      pop\n      jump\t// out\n        /* \"#utility.yul\":15164:15574   */\n    tag_119:\n        /* \"#utility.yul\":15204:15211   */\n      0x00\n        /* \"#utility.yul\":15227:15247   */\n      tag_382\n        /* \"#utility.yul\":15245:15246   */\n      dup3\n        /* \"#utility.yul\":15227:15247   */\n      tag_192\n      jump\t// in\n    tag_382:\n        /* \"#utility.yul\":15222:15247   */\n      swap2\n      pop\n        /* \"#utility.yul\":15261:15281   */\n      tag_383\n        /* \"#utility.yul\":15279:15280   */\n      dup4\n        /* \"#utility.yul\":15261:15281   */\n      tag_192\n      jump\t// in\n    tag_383:\n        /* \"#utility.yul\":15256:15281   */\n      swap3\n      pop\n        /* \"#utility.yul\":15316:15317   */\n      dup3\n        /* \"#utility.yul\":15313:15314   */\n      dup3\n        /* \"#utility.yul\":15309:15318   */\n      mul\n        /* \"#utility.yul\":15338:15368   */\n      tag_384\n        /* \"#utility.yul\":15356:15367   */\n      dup2\n        /* \"#utility.yul\":15338:15368   */\n      tag_192\n      jump\t// in\n    tag_384:\n        /* \"#utility.yul\":15327:15368   */\n      swap2\n      pop\n        /* \"#utility.yul\":15517:15518   */\n      dup3\n        /* \"#utility.yul\":15508:15515   */\n      dup3\n        /* \"#utility.yul\":15504:15519   */\n      div\n        /* \"#utility.yul\":15501:15502   */\n      dup5\n        /* \"#utility.yul\":15498:15520   */\n      eq\n        /* \"#utility.yul\":15478:15479   */\n      dup4\n        /* \"#utility.yul\":15471:15480   */\n      iszero\n        /* \"#utility.yul\":15451:15534   */\n      or\n        /* \"#utility.yul\":15428:15567   */\n      tag_385\n      jumpi\n        /* \"#utility.yul\":15547:15565   */\n      tag_386\n      tag_216\n      jump\t// in\n    tag_386:\n        /* \"#utility.yul\":15428:15567   */\n    tag_385:\n        /* \"#utility.yul\":15212:15574   */\n      pop\n        /* \"#utility.yul\":15164:15574   */\n      swap3\n      swap2\n      pop\n      pop\n      jump\t// out\n        /* \"#utility.yul\":15580:15802   */\n    tag_217:\n        /* \"#utility.yul\":15720:15754   */\n      0x496e76616c6964206e756d626572206f6620766f746573206f722070726f6365\n        /* \"#utility.yul\":15716:15717   */\n      0x00\n        /* \"#utility.yul\":15708:15714   */\n      dup3\n        /* \"#utility.yul\":15704:15718   */\n      add\n        /* \"#utility.yul\":15697:15755   */\n      mstore\n        /* \"#utility.yul\":15789:15794   */\n      0x65642e0000000000000000000000000000000000000000000000000000000000\n        /* \"#utility.yul\":15784:15786   */\n      0x20\n        /* \"#utility.yul\":15776:15782   */\n      dup3\n        /* \"#utility.yul\":15772:15787   */\n      add\n        /* \"#utility.yul\":15765:15795   */\n      mstore\n        /* \"#utility.yul\":15580:15802   */\n      pop\n      jump\t// out\n        /* \"#utility.yul\":15808:16174   */\n    tag_218:\n        /* \"#utility.yul\":15950:15953   */\n      0x00\n        /* \"#utility.yul\":15971:16038   */\n      tag_389\n        /* \"#utility.yul\":16035:16037   */\n      0x23\n        /* \"#utility.yul\":16030:16033   */\n      dup4\n        /* \"#utility.yul\":15971:16038   */\n      tag_168\n      jump\t// in\n    tag_389:\n        /* \"#utility.yul\":15964:16038   */\n      swap2\n      pop\n        /* \"#utility.yul\":16047:16140   */\n      tag_390\n        /* \"#utility.yul\":16136:16139   */\n      dup3\n        /* \"#utility.yul\":16047:16140   */\n      tag_217\n      jump\t// in\n    tag_390:\n        /* \"#utility.yul\":16165:16167   */\n      0x40\n        /* \"#utility.yul\":16160:16163   */\n      dup3\n        /* \"#utility.yul\":16156:16168   */\n      add\n        /* \"#utility.yul\":16149:16168   */\n      swap1\n      pop\n        /* \"#utility.yul\":15808:16174   */\n      swap2\n      swap1\n      pop\n      jump\t// out\n        /* \"#utility.yul\":16180:16599   */\n    tag_122:\n        /* \"#utility.yul\":16346:16350   */\n      0x00\n        /* \"#utility.yul\":16384:16386   */\n      0x20\n        /* \"#utility.yul\":16373:16382   */\n      dup3\n        /* \"#utility.yul\":16369:16387   */\n      add\n        /* \"#utility.yul\":16361:16387   */\n      swap1\n      pop\n        /* \"#utility.yul\":16433:16442   */\n      dup2\n        /* \"#utility.yul\":16427:16431   */\n      dup2\n        /* \"#utility.yul\":16423:16443   */\n      sub\n        /* \"#utility.yul\":16419:16420   */\n      0x00\n        /* \"#utility.yul\":16408:16417   */\n      dup4\n        /* \"#utility.yul\":16404:16421   */\n      add\n        /* \"#utility.yul\":16397:16444   */\n      mstore\n        /* \"#utility.yul\":16461:16592   */\n      tag_392\n        /* \"#utility.yul\":16587:16591   */\n      dup2\n        /* \"#utility.yul\":16461:16592   */\n      tag_218\n      jump\t// in\n    tag_392:\n        /* \"#utility.yul\":16453:16592   */\n      swap1\n      pop\n        /* \"#utility.yul\":16180:16599   */\n      swap2\n      swap1\n      pop\n      jump\t// out\n        /* \"#utility.yul\":16605:16785   */\n    tag_219:\n        /* \"#utility.yul\":16653:16730   */\n      0x4e487b7100000000000000000000000000000000000000000000000000000000\n        /* \"#utility.yul\":16650:16651   */\n      0x00\n        /* \"#utility.yul\":16643:16731   */\n      mstore\n        /* \"#utility.yul\":16750:16754   */\n      0x41\n        /* \"#utility.yul\":16747:16748   */\n      0x04\n        /* \"#utility.yul\":16740:16755   */\n      mstore\n        /* \"#utility.yul\":16774:16778   */\n      0x24\n        /* \"#utility.yul\":16771:16772   */\n      0x00\n        /* \"#utility.yul\":16764:16779   */\n      revert\n        /* \"#utility.yul\":16791:17072   */\n    tag_220:\n        /* \"#utility.yul\":16874:16901   */\n      tag_395\n        /* \"#utility.yul\":16896:16900   */\n      dup3\n        /* \"#utility.yul\":16874:16901   */\n      tag_170\n      jump\t// in\n    tag_395:\n        /* \"#utility.yul\":16866:16872   */\n      dup2\n        /* \"#utility.yul\":16862:16902   */\n      add\n        /* \"#utility.yul\":17004:17010   */\n      dup2\n        /* \"#utility.yul\":16992:17002   */\n      dup2\n        /* \"#utility.yul\":16989:17011   */\n      lt\n        /* \"#utility.yul\":16968:16986   */\n      0xffffffffffffffff\n        /* \"#utility.yul\":16956:16966   */\n      dup3\n        /* \"#utility.yul\":16953:16987   */\n      gt\n        /* \"#utility.yul\":16950:17012   */\n      or\n        /* \"#utility.yul\":16947:17035   */\n      iszero\n      tag_396\n      jumpi\n        /* \"#utility.yul\":17015:17033   */\n      tag_397\n      tag_219\n      jump\t// in\n    tag_397:\n        /* \"#utility.yul\":16947:17035   */\n    tag_396:\n        /* \"#utility.yul\":17055:17065   */\n      dup1\n        /* \"#utility.yul\":17051:17053   */\n      0x40\n        /* \"#utility.yul\":17044:17066   */\n      mstore\n        /* \"#utility.yul\":16834:17072   */\n      pop\n        /* \"#utility.yul\":16791:17072   */\n      pop\n      pop\n      jump\t// out\n        /* \"#utility.yul\":17078:17207   */\n    tag_221:\n        /* \"#utility.yul\":17112:17118   */\n      0x00\n        /* \"#utility.yul\":17139:17159   */\n      tag_399\n      tag_172\n      jump\t// in\n    tag_399:\n        /* \"#utility.yul\":17129:17159   */\n      swap1\n      pop\n        /* \"#utility.yul\":17168:17201   */\n      tag_400\n        /* \"#utility.yul\":17196:17200   */\n      dup3\n        /* \"#utility.yul\":17188:17194   */\n      dup3\n        /* \"#utility.yul\":17168:17201   */\n      tag_220\n      jump\t// in\n    tag_400:\n        /* \"#utility.yul\":17078:17207   */\n      swap2\n      swap1\n      pop\n      jump\t// out\n        /* \"#utility.yul\":17213:17524   */\n    tag_222:\n        /* \"#utility.yul\":17290:17294   */\n      0x00\n        /* \"#utility.yul\":17380:17398   */\n      0xffffffffffffffff\n        /* \"#utility.yul\":17372:17378   */\n      dup3\n        /* \"#utility.yul\":17369:17399   */\n      gt\n        /* \"#utility.yul\":17366:17422   */\n      iszero\n      tag_402\n      jumpi\n        /* \"#utility.yul\":17402:17420   */\n      tag_403\n      tag_219\n      jump\t// in\n    tag_403:\n        /* \"#utility.yul\":17366:17422   */\n    tag_402:\n        /* \"#utility.yul\":17452:17456   */\n      0x20\n        /* \"#utility.yul\":17444:17450   */\n      dup3\n        /* \"#utility.yul\":17440:17457   */\n      mul\n        /* \"#utility.yul\":17432:17457   */\n      swap1\n      pop\n        /* \"#utility.yul\":17512:17516   */\n      0x20\n        /* \"#utility.yul\":17506:17510   */\n      dup2\n        /* \"#utility.yul\":17502:17517   */\n      add\n        /* \"#utility.yul\":17494:17517   */\n      swap1\n      pop\n        /* \"#utility.yul\":17213:17524   */\n      swap2\n      swap1\n      pop\n      jump\t// out\n        /* \"#utility.yul\":17530:17673   */\n    tag_223:\n        /* \"#utility.yul\":17587:17592   */\n      0x00\n        /* \"#utility.yul\":17618:17624   */\n      dup2\n        /* \"#utility.yul\":17612:17625   */\n      mload\n        /* \"#utility.yul\":17603:17625   */\n      swap1\n      pop\n        /* \"#utility.yul\":17634:17667   */\n      tag_405\n        /* \"#utility.yul\":17661:17666   */\n      dup2\n        /* \"#utility.yul\":17634:17667   */\n      tag_177\n      jump\t// in\n    tag_405:\n        /* \"#utility.yul\":17530:17673   */\n      swap3\n      swap2\n      pop\n      pop\n      jump\t// out\n        /* \"#utility.yul\":17696:18428   */\n    tag_224:\n        /* \"#utility.yul\":17803:17808   */\n      0x00\n        /* \"#utility.yul\":17828:17909   */\n      tag_407\n        /* \"#utility.yul\":17844:17908   */\n      tag_408\n        /* \"#utility.yul\":17901:17907   */\n      dup5\n        /* \"#utility.yul\":17844:17908   */\n      tag_222\n      jump\t// in\n    tag_408:\n        /* \"#utility.yul\":17828:17909   */\n      tag_221\n      jump\t// in\n    tag_407:\n        /* \"#utility.yul\":17819:17909   */\n      swap1\n      pop\n        /* \"#utility.yul\":17929:17934   */\n      dup1\n        /* \"#utility.yul\":17958:17964   */\n      dup4\n        /* \"#utility.yul\":17951:17956   */\n      dup3\n        /* \"#utility.yul\":17944:17965   */\n      mstore\n        /* \"#utility.yul\":17992:17996   */\n      0x20\n        /* \"#utility.yul\":17985:17990   */\n      dup3\n        /* \"#utility.yul\":17981:17997   */\n      add\n        /* \"#utility.yul\":17974:17997   */\n      swap1\n      pop\n        /* \"#utility.yul\":18045:18049   */\n      0x20\n        /* \"#utility.yul\":18037:18043   */\n      dup5\n        /* \"#utility.yul\":18033:18050   */\n      mul\n        /* \"#utility.yul\":18025:18031   */\n      dup4\n        /* \"#utility.yul\":18021:18051   */\n      add\n        /* \"#utility.yul\":18074:18077   */\n      dup6\n        /* \"#utility.yul\":18066:18072   */\n      dup2\n        /* \"#utility.yul\":18063:18078   */\n      gt\n        /* \"#utility.yul\":18060:18182   */\n      iszero\n      tag_409\n      jumpi\n        /* \"#utility.yul\":18093:18172   */\n      tag_410\n      tag_183\n      jump\t// in\n    tag_410:\n        /* \"#utility.yul\":18060:18182   */\n    tag_409:\n        /* \"#utility.yul\":18208:18214   */\n      dup4\n        /* \"#utility.yul\":18191:18422   */\n    tag_411:\n        /* \"#utility.yul\":18225:18231   */\n      dup2\n        /* \"#utility.yul\":18220:18223   */\n      dup2\n        /* \"#utility.yul\":18217:18232   */\n      lt\n        /* \"#utility.yul\":18191:18422   */\n      iszero\n      tag_413\n      jumpi\n        /* \"#utility.yul\":18300:18303   */\n      dup1\n        /* \"#utility.yul\":18329:18377   */\n      tag_414\n        /* \"#utility.yul\":18373:18376   */\n      dup9\n        /* \"#utility.yul\":18361:18371   */\n      dup3\n        /* \"#utility.yul\":18329:18377   */\n      tag_223\n      jump\t// in\n    tag_414:\n        /* \"#utility.yul\":18324:18327   */\n      dup5\n        /* \"#utility.yul\":18317:18378   */\n      mstore\n        /* \"#utility.yul\":18407:18411   */\n      0x20\n        /* \"#utility.yul\":18402:18405   */\n      dup5\n        /* \"#utility.yul\":18398:18412   */\n      add\n        /* \"#utility.yul\":18391:18412   */\n      swap4\n      pop\n        /* \"#utility.yul\":18267:18422   */\n      pop\n        /* \"#utility.yul\":18251:18255   */\n      0x20\n        /* \"#utility.yul\":18246:18249   */\n      dup2\n        /* \"#utility.yul\":18242:18256   */\n      add\n        /* \"#utility.yul\":18235:18256   */\n      swap1\n      pop\n        /* \"#utility.yul\":18191:18422   */\n      jump(tag_411)\n    tag_413:\n        /* \"#utility.yul\":18195:18216   */\n      pop\n        /* \"#utility.yul\":17809:18428   */\n      pop\n      pop\n        /* \"#utility.yul\":17696:18428   */\n      swap4\n      swap3\n      pop\n      pop\n      pop\n      jump\t// out\n        /* \"#utility.yul\":18451:18836   */\n    tag_225:\n        /* \"#utility.yul\":18533:18538   */\n      0x00\n        /* \"#utility.yul\":18582:18585   */\n      dup3\n        /* \"#utility.yul\":18575:18579   */\n      0x1f\n        /* \"#utility.yul\":18567:18573   */\n      dup4\n        /* \"#utility.yul\":18563:18580   */\n      add\n        /* \"#utility.yul\":18559:18586   */\n      slt\n        /* \"#utility.yul\":18549:18671   */\n      tag_416\n      jumpi\n        /* \"#utility.yul\":18590:18669   */\n      tag_417\n      tag_181\n      jump\t// in\n    tag_417:\n        /* \"#utility.yul\":18549:18671   */\n    tag_416:\n        /* \"#utility.yul\":18700:18706   */\n      dup2\n        /* \"#utility.yul\":18694:18707   */\n      mload\n        /* \"#utility.yul\":18725:18830   */\n      tag_418\n        /* \"#utility.yul\":18826:18829   */\n      dup5\n        /* \"#utility.yul\":18818:18824   */\n      dup3\n        /* \"#utility.yul\":18811:18815   */\n      0x20\n        /* \"#utility.yul\":18803:18809   */\n      dup7\n        /* \"#utility.yul\":18799:18816   */\n      add\n        /* \"#utility.yul\":18725:18830   */\n      tag_224\n      jump\t// in\n    tag_418:\n        /* \"#utility.yul\":18716:18830   */\n      swap2\n      pop\n        /* \"#utility.yul\":18539:18836   */\n      pop\n        /* \"#utility.yul\":18451:18836   */\n      swap3\n      swap2\n      pop\n      pop\n      jump\t// out\n        /* \"#utility.yul\":18842:19396   */\n    tag_135:\n        /* \"#utility.yul\":18937:18943   */\n      0x00\n        /* \"#utility.yul\":18986:18988   */\n      0x20\n        /* \"#utility.yul\":18974:18983   */\n      dup3\n        /* \"#utility.yul\":18965:18972   */\n      dup5\n        /* \"#utility.yul\":18961:18984   */\n      sub\n        /* \"#utility.yul\":18957:18989   */\n      slt\n        /* \"#utility.yul\":18954:19073   */\n      iszero\n      tag_420\n      jumpi\n        /* \"#utility.yul\":18992:19071   */\n      tag_421\n      tag_173\n      jump\t// in\n    tag_421:\n        /* \"#utility.yul\":18954:19073   */\n    tag_420:\n        /* \"#utility.yul\":19133:19134   */\n      0x00\n        /* \"#utility.yul\":19122:19131   */\n      dup3\n        /* \"#utility.yul\":19118:19135   */\n      add\n        /* \"#utility.yul\":19112:19136   */\n      mload\n        /* \"#utility.yul\":19163:19181   */\n      0xffffffffffffffff\n        /* \"#utility.yul\":19155:19161   */\n      dup2\n        /* \"#utility.yul\":19152:19182   */\n      gt\n        /* \"#utility.yul\":19149:19266   */\n      iszero\n      tag_422\n      jumpi\n        /* \"#utility.yul\":19185:19264   */\n      tag_423\n      tag_174\n      jump\t// in\n    tag_423:\n        /* \"#utility.yul\":19149:19266   */\n    tag_422:\n        /* \"#utility.yul\":19290:19379   */\n      tag_424\n        /* \"#utility.yul\":19371:19378   */\n      dup5\n        /* \"#utility.yul\":19362:19368   */\n      dup3\n        /* \"#utility.yul\":19351:19360   */\n      dup6\n        /* \"#utility.yul\":19347:19369   */\n      add\n        /* \"#utility.yul\":19290:19379   */\n      tag_225\n      jump\t// in\n    tag_424:\n        /* \"#utility.yul\":19280:19379   */\n      swap2\n      pop\n        /* \"#utility.yul\":19083:19389   */\n      pop\n        /* \"#utility.yul\":18842:19396   */\n      swap3\n      swap2\n      pop\n      pop\n      jump\t// out\n        /* \"#utility.yul\":19402:19565   */\n    tag_226:\n        /* \"#utility.yul\":19542:19557   */\n      0x416c726561647920766f74656400000000000000000000000000000000000000\n        /* \"#utility.yul\":19538:19539   */\n      0x00\n        /* \"#utility.yul\":19530:19536   */\n      dup3\n        /* \"#utility.yul\":19526:19540   */\n      add\n        /* \"#utility.yul\":19519:19558   */\n      mstore\n        /* \"#utility.yul\":19402:19565   */\n      pop\n      jump\t// out\n        /* \"#utility.yul\":19571:19937   */\n    tag_227:\n        /* \"#utility.yul\":19713:19716   */\n      0x00\n        /* \"#utility.yul\":19734:19801   */\n      tag_427\n        /* \"#utility.yul\":19798:19800   */\n      0x0d\n        /* \"#utility.yul\":19793:19796   */\n      dup4\n        /* \"#utility.yul\":19734:19801   */\n      tag_168\n      jump\t// in\n    tag_427:\n        /* \"#utility.yul\":19727:19801   */\n      swap2\n      pop\n        /* \"#utility.yul\":19810:19903   */\n      tag_428\n        /* \"#utility.yul\":19899:19902   */\n      dup3\n        /* \"#utility.yul\":19810:19903   */\n      tag_226\n      jump\t// in\n    tag_428:\n        /* \"#utility.yul\":19928:19930   */\n      0x20\n        /* \"#utility.yul\":19923:19926   */\n      dup3\n        /* \"#utility.yul\":19919:19931   */\n      add\n        /* \"#utility.yul\":19912:19931   */\n      swap1\n      pop\n        /* \"#utility.yul\":19571:19937   */\n      swap2\n      swap1\n      pop\n      jump\t// out\n        /* \"#utility.yul\":19943:20362   */\n    tag_143:\n        /* \"#utility.yul\":20109:20113   */\n      0x00\n        /* \"#utility.yul\":20147:20149   */\n      0x20\n        /* \"#utility.yul\":20136:20145   */\n      dup3\n        /* \"#utility.yul\":20132:20150   */\n      add\n        /* \"#utility.yul\":20124:20150   */\n      swap1\n      pop\n        /* \"#utility.yul\":20196:20205   */\n      dup2\n        /* \"#utility.yul\":20190:20194   */\n      dup2\n        /* \"#utility.yul\":20186:20206   */\n      sub\n        /* \"#utility.yul\":20182:20183   */\n      0x00\n        /* \"#utility.yul\":20171:20180   */\n      dup4\n        /* \"#utility.yul\":20167:20184   */\n      add\n        /* \"#utility.yul\":20160:20207   */\n      mstore\n        /* \"#utility.yul\":20224:20355   */\n      tag_430\n        /* \"#utility.yul\":20350:20354   */\n      dup2\n        /* \"#utility.yul\":20224:20355   */\n      tag_227\n      jump\t// in\n    tag_430:\n        /* \"#utility.yul\":20216:20355   */\n      swap1\n      pop\n        /* \"#utility.yul\":19943:20362   */\n      swap2\n      swap1\n      pop\n      jump\t// out\n        /* \"#utility.yul\":20368:20444   */\n    tag_228:\n        /* \"#utility.yul\":20404:20411   */\n      0x00\n        /* \"#utility.yul\":20433:20438   */\n      dup2\n        /* \"#utility.yul\":20422:20438   */\n      swap1\n      pop\n        /* \"#utility.yul\":20368:20444   */\n      swap2\n      swap1\n      pop\n      jump\t// out\n        /* \"#utility.yul\":20450:20825   */\n    tag_145:\n        /* \"#utility.yul\":20489:20492   */\n      0x00\n        /* \"#utility.yul\":20508:20527   */\n      tag_433\n        /* \"#utility.yul\":20525:20526   */\n      dup3\n        /* \"#utility.yul\":20508:20527   */\n      tag_228\n      jump\t// in\n    tag_433:\n        /* \"#utility.yul\":20503:20527   */\n      swap2\n      pop\n        /* \"#utility.yul\":20541:20560   */\n      tag_434\n        /* \"#utility.yul\":20558:20559   */\n      dup4\n        /* \"#utility.yul\":20541:20560   */\n      tag_228\n      jump\t// in\n    tag_434:\n        /* \"#utility.yul\":20536:20560   */\n      swap3\n      pop\n        /* \"#utility.yul\":20583:20584   */\n      dup3\n        /* \"#utility.yul\":20580:20581   */\n      dup3\n        /* \"#utility.yul\":20576:20585   */\n      add\n        /* \"#utility.yul\":20569:20585   */\n      swap1\n      pop\n        /* \"#utility.yul\":20781:20782   */\n      dup3\n        /* \"#utility.yul\":20776:20779   */\n      dup2\n        /* \"#utility.yul\":20772:20783   */\n      slt\n        /* \"#utility.yul\":20765:20784   */\n      iszero\n        /* \"#utility.yul\":20761:20762   */\n      0x00\n        /* \"#utility.yul\":20758:20759   */\n      dup4\n        /* \"#utility.yul\":20754:20763   */\n      slt\n        /* \"#utility.yul\":20750:20785   */\n      and\n        /* \"#utility.yul\":20733:20734   */\n      dup4\n        /* \"#utility.yul\":20728:20731   */\n      dup3\n        /* \"#utility.yul\":20724:20735   */\n      slt\n        /* \"#utility.yul\":20719:20720   */\n      0x00\n        /* \"#utility.yul\":20716:20717   */\n      dup5\n        /* \"#utility.yul\":20712:20721   */\n      slt\n        /* \"#utility.yul\":20705:20722   */\n      iszero\n        /* \"#utility.yul\":20701:20736   */\n      and\n        /* \"#utility.yul\":20685:20795   */\n      or\n        /* \"#utility.yul\":20682:20818   */\n      iszero\n      tag_435\n      jumpi\n        /* \"#utility.yul\":20798:20816   */\n      tag_436\n      tag_216\n      jump\t// in\n    tag_436:\n        /* \"#utility.yul\":20682:20818   */\n    tag_435:\n        /* \"#utility.yul\":20450:20825   */\n      swap3\n      swap2\n      pop\n      pop\n      jump\t// out\n\n    auxdata: 0xa26469706673582212201f409243839be7cdce41139acccc603d0d7f0dafda49fbf4588df2900c340a4064736f6c63430008110033\n}\n","bytecode":{"linkReferences":{},"object":"60a06040523480156200001157600080fd5b5060405162001fb938038062001fb98339818101604052810190620000379190620002bf565b82600860006101000a81548173ffffffffffffffffffffffffffffffffffffffff021916908373ffffffffffffffffffffffffffffffffffffffff1602179055508173ffffffffffffffffffffffffffffffffffffffff1660808173ffffffffffffffffffffffffffffffffffffffff16815250508060009081620000bd919062000585565b505050506200066c565b6000604051905090565b600080fd5b600080fd5b600073ffffffffffffffffffffffffffffffffffffffff82169050919050565b60006200010882620000db565b9050919050565b6200011a81620000fb565b81146200012657600080fd5b50565b6000815190506200013a816200010f565b92915050565b600080fd5b600080fd5b6000601f19601f8301169050919050565b7f4e487b7100000000000000000000000000000000000000000000000000000000600052604160045260246000fd5b62000195826200014a565b810181811067ffffffffffffffff82111715620001b757620001b66200015b565b5b80604052505050565b6000620001cc620000c7565b9050620001da82826200018a565b919050565b600067ffffffffffffffff821115620001fd57620001fc6200015b565b5b62000208826200014a565b9050602081019050919050565b60005b838110156200023557808201518184015260208101905062000218565b60008484015250505050565b6000620002586200025284620001df565b620001c0565b90508281526020810184848401111562000277576200027662000145565b5b6200028484828562000215565b509392505050565b600082601f830112620002a457620002a362000140565b5b8151620002b684826020860162000241565b91505092915050565b600080600060608486031215620002db57620002da620000d1565b5b6000620002eb8682870162000129565b9350506020620002fe8682870162000129565b925050604084015167ffffffffffffffff811115620003225762000321620000d6565b5b62000330868287016200028c565b9150509250925092565b600081519050919050565b7f4e487b7100000000000000000000000000000000000000000000000000000000600052602260045260246000fd5b600060028204905060018216806200038d57607f821691505b602082108103620003a357620003a262000345565b5b50919050565b60008190508160005260206000209050919050565b60006020601f8301049050919050565b600082821b905092915050565b6000600883026200040d7fffffffffffffffffffffffffffffffffffffffffffffffffffffffffffffffff82620003ce565b620004198683620003ce565b95508019841693508086168417925050509392505050565b6000819050919050565b6000819050919050565b600062000466620004606200045a8462000431565b6200043b565b62000431565b9050919050565b6000819050919050565b620004828362000445565b6200049a62000491826200046d565b848454620003db565b825550505050565b600090565b620004b1620004a2565b620004be81848462000477565b505050565b5b81811015620004e657620004da600082620004a7565b600181019050620004c4565b5050565b601f8211156200053557620004ff81620003a9565b6200050a84620003be565b810160208510156200051a578190505b620005326200052985620003be565b830182620004c3565b50505b505050565b600082821c905092915050565b60006200055a600019846008026200053a565b1980831691505092915050565b600062000575838362000547565b9150826002028217905092915050565b62000590826200033a565b67ffffffffffffffff811115620005ac57620005ab6200015b565b5b620005b8825462000374565b620005c5828285620004ea565b600060209050601f831160018114620005fd5760008415620005e8578287015190505b620005f4858262000567565b86555062000664565b601f1984166200060d86620003a9565b60005b82811015620006375784890151825560018201915060208501945060208101905062000610565b8683101562000657578489015162000653601f89168262000547565b8355505b6001600288020188555050505b505050505050565b60805161193462000685600039600050506119346000f3fe608060405234801561001057600080fd5b50600436106101005760003560e01c80639a4d383e11610097578063a230c52411610066578063a230c524146102af578063af1fca09146102df578063ca505a5b146102fd578063cef025ac1461031b57610100565b80639a4d383e146102275780639c0ab105146102435780639e5f59f9146102615780639eab52531461029157610100565b8063455772d2116100d3578063455772d21461018b5780635daf08ca146101a957806370586013146101d9578063997072f71461020957610100565b806306fdde0314610105578063146b551d1461012357806315866836146101535780631ee503fd1461016f575b600080fd5b61010d610337565b60405161011a9190610ed9565b60405180910390f35b61013d60048036038101906101389190610f6d565b6103c5565b60405161014a9190610fb6565b60405180910390f35b61016d60048036038101906101689190611036565b6103cc565b005b61018960048036038101906101849190610f6d565b61045f565b005b61019361081e565b6040516101a09190611154565b60405180910390f35b6101c360048036038101906101be91906111ac565b61094f565b6040516101d091906111e8565b60405180910390f35b6101f360048036038101906101ee9190611036565b61098e565b6040516102009190611222565b60405180910390f35b610211610997565b60405161021e919061124c565b60405180910390f35b610241600480360381019061023c9190610f6d565b6109a4565b005b61024b610b86565b6040516102589190610ed9565b60405180910390f35b61027b60048036038101906102769190610f6d565b610c14565b6040516102889190611373565b60405180910390f35b610299610c1b565b6040516102a69190611154565b60405180910390f35b6102c960048036038101906102c49190610f6d565b610cae565b6040516102d691906113b0565b60405180910390f35b6102e7610d04565b6040516102f491906111e8565b60405180910390f35b610305610d2a565b6040516103129190610ed9565b60405180910390f35b61033560048036038101906103309190610f6d565b610db8565b005b60008054610344906113fa565b80601f0160208091040260200160405190810160405280929190818152602001828054610370906113fa565b80156103bd5780601f10610392576101008083540402835291602001916103bd565b820191906000526020600020905b8154815290600101906020018083116103a057829003601f168201915b505050505081565b6000919050565b33600460008273ffffffffffffffffffffffffffffffffffffffff1673ffffffffffffffffffffffffffffffffffffffff16815260200190815260200160002060009054906101000a900460ff16610459576040517f08c379a000000000000000000000000000000000000000000000000000000000815260040161045090611477565b60405180910390fd5b50505050565b33600460008273ffffffffffffffffffffffffffffffffffffffff1673ffffffffffffffffffffffffffffffffffffffff16815260200190815260200160002060009054906101000a900460ff166104ec576040517f08c379a00000000000000000000000000000000000000000000000000000000081526004016104e390611477565b60405180910390fd5b600073ffffffffffffffffffffffffffffffffffffffff168273ffffffffffffffffffffffffffffffffffffffff160361052557600080fd5b6000600860009054906101000a900473ffffffffffffffffffffffffffffffffffffffff16905060008173ffffffffffffffffffffffffffffffffffffffff1663b672bdcb856040518263ffffffff1660e01b815260040161058791906111e8565b602060405180830381865afa1580156105a4573d6000803e3d6000fd5b505050506040513d601f19601f820116820180604052508101906105c891906114ac565b905042811161060c576040517f08c379a000000000000000000000000000000000000000000000000000000000815260040161060390611525565b60405180910390fd5b6000610616610997565b905060008373ffffffffffffffffffffffffffffffffffffffff1663d9a87535876040518263ffffffff1660e01b815260040161065391906111e8565b602060405180830381865afa158015610670573d6000803e3d6000fd5b505050506040513d601f19601f8201168201806040525081019061069491906114ac565b90506005606483836106a691906115a3565b6106b091906115d4565b116106f0576040517f08c379a00000000000000000000000000000000000000000000000000000000081526004016106e790611688565b60405180910390fd5b8373ffffffffffffffffffffffffffffffffffffffff16631292a282876040518263ffffffff1660e01b815260040161072991906111e8565b600060405180830381600087803b15801561074357600080fd5b505af1158015610757573d6000803e3d6000fd5b505050506003869080600181540180825580915050600190039060005260206000200160009091909190916101000a81548173ffffffffffffffffffffffffffffffffffffffff021916908373ffffffffffffffffffffffffffffffffffffffff1602179055506001600460008873ffffffffffffffffffffffffffffffffffffffff1673ffffffffffffffffffffffffffffffffffffffff16815260200190815260200160002060006101000a81548160ff021916908315150217905550505050505050565b606033600460008273ffffffffffffffffffffffffffffffffffffffff1673ffffffffffffffffffffffffffffffffffffffff16815260200190815260200160002060009054906101000a900460ff166108ad576040517f08c379a00000000000000000000000000000000000000000000000000000000081526004016108a490611477565b60405180910390fd5b6000600860009054906101000a900473ffffffffffffffffffffffffffffffffffffffff1690508073ffffffffffffffffffffffffffffffffffffffff1663455772d26040518163ffffffff1660e01b8152600401600060405180830381865afa15801561091f573d6000803e3d6000fd5b505050506040513d6000823e3d601f19601f8201168201806040525081019061094891906117fb565b9250505090565b6003818154811061095f57600080fd5b906000526020600020016000915054906101000a900473ffffffffffffffffffffffffffffffffffffffff1681565b60009392505050565b6000600380549050905090565b6000600660003373ffffffffffffffffffffffffffffffffffffffff1673ffffffffffffffffffffffffffffffffffffffff16815260200190815260200160002060009054906101000a900473ffffffffffffffffffffffffffffffffffffffff1690508073ffffffffffffffffffffffffffffffffffffffff168273ffffffffffffffffffffffffffffffffffffffff1603610a76576040517f08c379a0000000000000000000000000000000000000000000000000000000008152600401610a6d90611890565b60405180910390fd5b6001600760008473ffffffffffffffffffffffffffffffffffffffff1673ffffffffffffffffffffffffffffffffffffffff1681526020019081526020016000206000828254610ac691906118ba565b9250508190555081600660003373ffffffffffffffffffffffffffffffffffffffff1673ffffffffffffffffffffffffffffffffffffffff16815260200190815260200160002060006101000a81548173ffffffffffffffffffffffffffffffffffffffff021916908373ffffffffffffffffffffffffffffffffffffffff1602179055507fe8ddfec65826b66ec8b03b89152bb70528fa2da92e9775cc99671b1fc7bcb0f433604051610b7a91906111e8565b60405180910390a15050565b60028054610b93906113fa565b80601f0160208091040260200160405190810160405280929190818152602001828054610bbf906113fa565b8015610c0c5780601f10610be157610100808354040283529160200191610c0c565b820191906000526020600020905b815481529060010190602001808311610bef57829003601f168201915b505050505081565b6060919050565b606033600460008273ffffffffffffffffffffffffffffffffffffffff1673ffffffffffffffffffffffffffffffffffffffff16815260200190815260200160002060009054906101000a900460ff16610caa576040517f08c379a0000000000000000000000000000000000000000000000000000000008152600401610ca190611477565b60405180910390fd5b5090565b6000600460008373ffffffffffffffffffffffffffffffffffffffff1673ffffffffffffffffffffffffffffffffffffffff16815260200190815260200160002060009054906101000a900460ff169050919050565b600860009054906101000a900473ffffffffffffffffffffffffffffffffffffffff1681565b60018054610d37906113fa565b80601f0160208091040260200160405190810160405280929190818152602001828054610d63906113fa565b8015610db05780601f10610d8557610100808354040283529160200191610db0565b820191906000526020600020905b815481529060010190602001808311610d9357829003601f168201915b505050505081565b33600460008273ffffffffffffffffffffffffffffffffffffffff1673ffffffffffffffffffffffffffffffffffffffff16815260200190815260200160002060009054906101000a900460ff16610e45576040517f08c379a0000000000000000000000000000000000000000000000000000000008152600401610e3c90611477565b60405180910390fd5b5050565b600081519050919050565b600082825260208201905092915050565b60005b83811015610e83578082015181840152602081019050610e68565b60008484015250505050565b6000601f19601f8301169050919050565b6000610eab82610e49565b610eb58185610e54565b9350610ec5818560208601610e65565b610ece81610e8f565b840191505092915050565b60006020820190508181036000830152610ef38184610ea0565b905092915050565b6000604051905090565b600080fd5b600080fd5b600073ffffffffffffffffffffffffffffffffffffffff82169050919050565b6000610f3a82610f0f565b9050919050565b610f4a81610f2f565b8114610f5557600080fd5b50565b600081359050610f6781610f41565b92915050565b600060208284031215610f8357610f82610f05565b5b6000610f9184828501610f58565b91505092915050565b60008160030b9050919050565b610fb081610f9a565b82525050565b6000602082019050610fcb6000830184610fa7565b92915050565b600080fd5b600080fd5b600080fd5b60008083601f840112610ff657610ff5610fd1565b5b8235905067ffffffffffffffff81111561101357611012610fd6565b5b60208301915083600182028301111561102f5761102e610fdb565b5b9250929050565b60008060006040848603121561104f5761104e610f05565b5b600061105d86828701610f58565b935050602084013567ffffffffffffffff81111561107e5761107d610f0a565b5b61108a86828701610fe0565b92509250509250925092565b600081519050919050565b600082825260208201905092915050565b6000819050602082019050919050565b6110cb81610f2f565b82525050565b60006110dd83836110c2565b60208301905092915050565b6000602082019050919050565b600061110182611096565b61110b81856110a1565b9350611116836110b2565b8060005b8381101561114757815161112e88826110d1565b9750611139836110e9565b92505060018101905061111a565b5085935050505092915050565b6000602082019050818103600083015261116e81846110f6565b905092915050565b6000819050919050565b61118981611176565b811461119457600080fd5b50565b6000813590506111a681611180565b92915050565b6000602082840312156111c2576111c1610f05565b5b60006111d084828501611197565b91505092915050565b6111e281610f2f565b82525050565b60006020820190506111fd60008301846111d9565b92915050565b600063ffffffff82169050919050565b61121c81611203565b82525050565b60006020820190506112376000830184611213565b92915050565b61124681611176565b82525050565b6000602082019050611261600083018461123d565b92915050565b600081519050919050565b600082825260208201905092915050565b6000819050602082019050919050565b600082825260208201905092915050565b60006112af82610e49565b6112b98185611293565b93506112c9818560208601610e65565b6112d281610e8f565b840191505092915050565b60006112e983836112a4565b905092915050565b6000602082019050919050565b600061130982611267565b6113138185611272565b93508360208202850161132585611283565b8060005b85811015611361578484038952815161134285826112dd565b945061134d836112f1565b925060208a01995050600181019050611329565b50829750879550505050505092915050565b6000602082019050818103600083015261138d81846112fe565b905092915050565b60008115159050919050565b6113aa81611395565b82525050565b60006020820190506113c560008301846113a1565b92915050565b7f4e487b7100000000000000000000000000000000000000000000000000000000600052602260045260246000fd5b6000600282049050600182168061141257607f821691505b602082108103611425576114246113cb565b5b50919050565b7f526571756972656420746f2062652061206d656d656265720000000000000000600082015250565b6000611461601883610e54565b915061146c8261142b565b602082019050919050565b6000602082019050818103600083015261149081611454565b9050919050565b6000815190506114a681611180565b92915050565b6000602082840312156114c2576114c1610f05565b5b60006114d084828501611497565b91505092915050565b7f546f20736f6f6e20746f20656e6420766f746500000000000000000000000000600082015250565b600061150f601383610e54565b915061151a826114d9565b602082019050919050565b6000602082019050818103600083015261153e81611502565b9050919050565b7f4e487b7100000000000000000000000000000000000000000000000000000000600052601260045260246000fd5b7f4e487b7100000000000000000000000000000000000000000000000000000000600052601160045260246000fd5b60006115ae82611176565b91506115b983611176565b9250826115c9576115c8611545565b5b828204905092915050565b60006115df82611176565b91506115ea83611176565b92508282026115f881611176565b9150828204841483151761160f5761160e611574565b5b5092915050565b7f496e76616c6964206e756d626572206f6620766f746573206f722070726f636560008201527f65642e0000000000000000000000000000000000000000000000000000000000602082015250565b6000611672602383610e54565b915061167d82611616565b604082019050919050565b600060208201905081810360008301526116a181611665565b9050919050565b7f4e487b7100000000000000000000000000000000000000000000000000000000600052604160045260246000fd5b6116e082610e8f565b810181811067ffffffffffffffff821117156116ff576116fe6116a8565b5b80604052505050565b6000611712610efb565b905061171e82826116d7565b919050565b600067ffffffffffffffff82111561173e5761173d6116a8565b5b602082029050602081019050919050565b60008151905061175e81610f41565b92915050565b600061177761177284611723565b611708565b9050808382526020820190506020840283018581111561179a57611799610fdb565b5b835b818110156117c357806117af888261174f565b84526020840193505060208101905061179c565b5050509392505050565b600082601f8301126117e2576117e1610fd1565b5b81516117f2848260208601611764565b91505092915050565b60006020828403121561181157611810610f05565b5b600082015167ffffffffffffffff81111561182f5761182e610f0a565b5b61183b848285016117cd565b91505092915050565b7f416c726561647920766f74656400000000000000000000000000000000000000600082015250565b600061187a600d83610e54565b915061188582611844565b602082019050919050565b600060208201905081810360008301526118a98161186d565b9050919050565b6000819050919050565b60006118c5826118b0565b91506118d0836118b0565b9250828201905082811215600083121683821260008412151617156118f8576118f7611574565b5b9291505056fea26469706673582212201f409243839be7cdce41139acccc603d0d7f0dafda49fbf4588df2900c340a4064736f6c63430008110033","opcodes":"PUSH1 0xA0 PUSH1 0x40 MSTORE CALLVALUE DUP1 ISZERO PUSH3 0x11 JUMPI PUSH1 0x0 DUP1 REVERT JUMPDEST POP PUSH1 0x40 MLOAD PUSH3 0x1FB9 CODESIZE SUB DUP1 PUSH3 0x1FB9 DUP4 CODECOPY DUP2 DUP2 ADD PUSH1 0x40 MSTORE DUP2 ADD SWAP1 PUSH3 0x37 SWAP2 SWAP1 PUSH3 0x2BF JUMP JUMPDEST DUP3 PUSH1 0x8 PUSH1 0x0 PUSH2 0x100 EXP DUP2 SLOAD DUP2 PUSH20 0xFFFFFFFFFFFFFFFFFFFFFFFFFFFFFFFFFFFFFFFF MUL NOT AND SWAP1 DUP4 PUSH20 0xFFFFFFFFFFFFFFFFFFFFFFFFFFFFFFFFFFFFFFFF AND MUL OR SWAP1 SSTORE POP DUP2 PUSH20 0xFFFFFFFFFFFFFFFFFFFFFFFFFFFFFFFFFFFFFFFF AND PUSH1 0x80 DUP2 PUSH20 0xFFFFFFFFFFFFFFFFFFFFFFFFFFFFFFFFFFFFFFFF AND DUP2 MSTORE POP POP DUP1 PUSH1 0x0 SWAP1 DUP2 PUSH3 0xBD SWAP2 SWAP1 PUSH3 0x585 JUMP JUMPDEST POP POP POP POP PUSH3 0x66C JUMP JUMPDEST PUSH1 0x0 PUSH1 0x40 MLOAD SWAP1 POP SWAP1 JUMP JUMPDEST PUSH1 0x0 DUP1 REVERT JUMPDEST PUSH1 0x0 DUP1 REVERT JUMPDEST PUSH1 0x0 PUSH20 0xFFFFFFFFFFFFFFFFFFFFFFFFFFFFFFFFFFFFFFFF DUP3 AND SWAP1 POP SWAP2 SWAP1 POP JUMP JUMPDEST PUSH1 0x0 PUSH3 0x108 DUP3 PUSH3 0xDB JUMP JUMPDEST SWAP1 POP SWAP2 SWAP1 POP JUMP JUMPDEST PUSH3 0x11A DUP2 PUSH3 0xFB JUMP JUMPDEST DUP2 EQ PUSH3 0x126 JUMPI PUSH1 0x0 DUP1 REVERT JUMPDEST POP JUMP JUMPDEST PUSH1 0x0 DUP2 MLOAD SWAP1 POP PUSH3 0x13A DUP2 PUSH3 0x10F JUMP JUMPDEST SWAP3 SWAP2 POP POP JUMP JUMPDEST PUSH1 0x0 DUP1 REVERT JUMPDEST PUSH1 0x0 DUP1 REVERT JUMPDEST PUSH1 0x0 PUSH1 0x1F NOT PUSH1 0x1F DUP4 ADD AND SWAP1 POP SWAP2 SWAP1 POP JUMP JUMPDEST PUSH32 0x4E487B7100000000000000000000000000000000000000000000000000000000 PUSH1 0x0 MSTORE PUSH1 0x41 PUSH1 0x4 MSTORE PUSH1 0x24 PUSH1 0x0 REVERT JUMPDEST PUSH3 0x195 DUP3 PUSH3 0x14A JUMP JUMPDEST DUP2 ADD DUP2 DUP2 LT PUSH8 0xFFFFFFFFFFFFFFFF DUP3 GT OR ISZERO PUSH3 0x1B7 JUMPI PUSH3 0x1B6 PUSH3 0x15B JUMP JUMPDEST JUMPDEST DUP1 PUSH1 0x40 MSTORE POP POP POP JUMP JUMPDEST PUSH1 0x0 PUSH3 0x1CC PUSH3 0xC7 JUMP JUMPDEST SWAP1 POP PUSH3 0x1DA DUP3 DUP3 PUSH3 0x18A JUMP JUMPDEST SWAP2 SWAP1 POP JUMP JUMPDEST PUSH1 0x0 PUSH8 0xFFFFFFFFFFFFFFFF DUP3 GT ISZERO PUSH3 0x1FD JUMPI PUSH3 0x1FC PUSH3 0x15B JUMP JUMPDEST JUMPDEST PUSH3 0x208 DUP3 PUSH3 0x14A JUMP JUMPDEST SWAP1 POP PUSH1 0x20 DUP2 ADD SWAP1 POP SWAP2 SWAP1 POP JUMP JUMPDEST PUSH1 0x0 JUMPDEST DUP4 DUP2 LT ISZERO PUSH3 0x235 JUMPI DUP1 DUP3 ADD MLOAD DUP2 DUP5 ADD MSTORE PUSH1 0x20 DUP2 ADD SWAP1 POP PUSH3 0x218 JUMP JUMPDEST PUSH1 0x0 DUP5 DUP5 ADD MSTORE POP POP POP POP JUMP JUMPDEST PUSH1 0x0 PUSH3 0x258 PUSH3 0x252 DUP5 PUSH3 0x1DF JUMP JUMPDEST PUSH3 0x1C0 JUMP JUMPDEST SWAP1 POP DUP3 DUP2 MSTORE PUSH1 0x20 DUP2 ADD DUP5 DUP5 DUP5 ADD GT ISZERO PUSH3 0x277 JUMPI PUSH3 0x276 PUSH3 0x145 JUMP JUMPDEST JUMPDEST PUSH3 0x284 DUP5 DUP3 DUP6 PUSH3 0x215 JUMP JUMPDEST POP SWAP4 SWAP3 POP POP POP JUMP JUMPDEST PUSH1 0x0 DUP3 PUSH1 0x1F DUP4 ADD SLT PUSH3 0x2A4 JUMPI PUSH3 0x2A3 PUSH3 0x140 JUMP JUMPDEST JUMPDEST DUP2 MLOAD PUSH3 0x2B6 DUP5 DUP3 PUSH1 0x20 DUP7 ADD PUSH3 0x241 JUMP JUMPDEST SWAP2 POP POP SWAP3 SWAP2 POP POP JUMP JUMPDEST PUSH1 0x0 DUP1 PUSH1 0x0 PUSH1 0x60 DUP5 DUP7 SUB SLT ISZERO PUSH3 0x2DB JUMPI PUSH3 0x2DA PUSH3 0xD1 JUMP JUMPDEST JUMPDEST PUSH1 0x0 PUSH3 0x2EB DUP7 DUP3 DUP8 ADD PUSH3 0x129 JUMP JUMPDEST SWAP4 POP POP PUSH1 0x20 PUSH3 0x2FE DUP7 DUP3 DUP8 ADD PUSH3 0x129 JUMP JUMPDEST SWAP3 POP POP PUSH1 0x40 DUP5 ADD MLOAD PUSH8 0xFFFFFFFFFFFFFFFF DUP2 GT ISZERO PUSH3 0x322 JUMPI PUSH3 0x321 PUSH3 0xD6 JUMP JUMPDEST JUMPDEST PUSH3 0x330 DUP7 DUP3 DUP8 ADD PUSH3 0x28C JUMP JUMPDEST SWAP2 POP POP SWAP3 POP SWAP3 POP SWAP3 JUMP JUMPDEST PUSH1 0x0 DUP2 MLOAD SWAP1 POP SWAP2 SWAP1 POP JUMP JUMPDEST PUSH32 0x4E487B7100000000000000000000000000000000000000000000000000000000 PUSH1 0x0 MSTORE PUSH1 0x22 PUSH1 0x4 MSTORE PUSH1 0x24 PUSH1 0x0 REVERT JUMPDEST PUSH1 0x0 PUSH1 0x2 DUP3 DIV SWAP1 POP PUSH1 0x1 DUP3 AND DUP1 PUSH3 0x38D JUMPI PUSH1 0x7F DUP3 AND SWAP2 POP JUMPDEST PUSH1 0x20 DUP3 LT DUP2 SUB PUSH3 0x3A3 JUMPI PUSH3 0x3A2 PUSH3 0x345 JUMP JUMPDEST JUMPDEST POP SWAP2 SWAP1 POP JUMP JUMPDEST PUSH1 0x0 DUP2 SWAP1 POP DUP2 PUSH1 0x0 MSTORE PUSH1 0x20 PUSH1 0x0 KECCAK256 SWAP1 POP SWAP2 SWAP1 POP JUMP JUMPDEST PUSH1 0x0 PUSH1 0x20 PUSH1 0x1F DUP4 ADD DIV SWAP1 POP SWAP2 SWAP1 POP JUMP JUMPDEST PUSH1 0x0 DUP3 DUP3 SHL SWAP1 POP SWAP3 SWAP2 POP POP JUMP JUMPDEST PUSH1 0x0 PUSH1 0x8 DUP4 MUL PUSH3 0x40D PUSH32 0xFFFFFFFFFFFFFFFFFFFFFFFFFFFFFFFFFFFFFFFFFFFFFFFFFFFFFFFFFFFFFFFF DUP3 PUSH3 0x3CE JUMP JUMPDEST PUSH3 0x419 DUP7 DUP4 PUSH3 0x3CE JUMP JUMPDEST SWAP6 POP DUP1 NOT DUP5 AND SWAP4 POP DUP1 DUP7 AND DUP5 OR SWAP3 POP POP POP SWAP4 SWAP3 POP POP POP JUMP JUMPDEST PUSH1 0x0 DUP2 SWAP1 POP SWAP2 SWAP1 POP JUMP JUMPDEST PUSH1 0x0 DUP2 SWAP1 POP SWAP2 SWAP1 POP JUMP JUMPDEST PUSH1 0x0 PUSH3 0x466 PUSH3 0x460 PUSH3 0x45A DUP5 PUSH3 0x431 JUMP JUMPDEST PUSH3 0x43B JUMP JUMPDEST PUSH3 0x431 JUMP JUMPDEST SWAP1 POP SWAP2 SWAP1 POP JUMP JUMPDEST PUSH1 0x0 DUP2 SWAP1 POP SWAP2 SWAP1 POP JUMP JUMPDEST PUSH3 0x482 DUP4 PUSH3 0x445 JUMP JUMPDEST PUSH3 0x49A PUSH3 0x491 DUP3 PUSH3 0x46D JUMP JUMPDEST DUP5 DUP5 SLOAD PUSH3 0x3DB JUMP JUMPDEST DUP3 SSTORE POP POP POP POP JUMP JUMPDEST PUSH1 0x0 SWAP1 JUMP JUMPDEST PUSH3 0x4B1 PUSH3 0x4A2 JUMP JUMPDEST PUSH3 0x4BE DUP2 DUP5 DUP5 PUSH3 0x477 JUMP JUMPDEST POP POP POP JUMP JUMPDEST JUMPDEST DUP2 DUP2 LT ISZERO PUSH3 0x4E6 JUMPI PUSH3 0x4DA PUSH1 0x0 DUP3 PUSH3 0x4A7 JUMP JUMPDEST PUSH1 0x1 DUP2 ADD SWAP1 POP PUSH3 0x4C4 JUMP JUMPDEST POP POP JUMP JUMPDEST PUSH1 0x1F DUP3 GT ISZERO PUSH3 0x535 JUMPI PUSH3 0x4FF DUP2 PUSH3 0x3A9 JUMP JUMPDEST PUSH3 0x50A DUP5 PUSH3 0x3BE JUMP JUMPDEST DUP2 ADD PUSH1 0x20 DUP6 LT ISZERO PUSH3 0x51A JUMPI DUP2 SWAP1 POP JUMPDEST PUSH3 0x532 PUSH3 0x529 DUP6 PUSH3 0x3BE JUMP JUMPDEST DUP4 ADD DUP3 PUSH3 0x4C3 JUMP JUMPDEST POP POP JUMPDEST POP POP POP JUMP JUMPDEST PUSH1 0x0 DUP3 DUP3 SHR SWAP1 POP SWAP3 SWAP2 POP POP JUMP JUMPDEST PUSH1 0x0 PUSH3 0x55A PUSH1 0x0 NOT DUP5 PUSH1 0x8 MUL PUSH3 0x53A JUMP JUMPDEST NOT DUP1 DUP4 AND SWAP2 POP POP SWAP3 SWAP2 POP POP JUMP JUMPDEST PUSH1 0x0 PUSH3 0x575 DUP4 DUP4 PUSH3 0x547 JUMP JUMPDEST SWAP2 POP DUP3 PUSH1 0x2 MUL DUP3 OR SWAP1 POP SWAP3 SWAP2 POP POP JUMP JUMPDEST PUSH3 0x590 DUP3 PUSH3 0x33A JUMP JUMPDEST PUSH8 0xFFFFFFFFFFFFFFFF DUP2 GT ISZERO PUSH3 0x5AC JUMPI PUSH3 0x5AB PUSH3 0x15B JUMP JUMPDEST JUMPDEST PUSH3 0x5B8 DUP3 SLOAD PUSH3 0x374 JUMP JUMPDEST PUSH3 0x5C5 DUP3 DUP3 DUP6 PUSH3 0x4EA JUMP JUMPDEST PUSH1 0x0 PUSH1 0x20 SWAP1 POP PUSH1 0x1F DUP4 GT PUSH1 0x1 DUP2 EQ PUSH3 0x5FD JUMPI PUSH1 0x0 DUP5 ISZERO PUSH3 0x5E8 JUMPI DUP3 DUP8 ADD MLOAD SWAP1 POP JUMPDEST PUSH3 0x5F4 DUP6 DUP3 PUSH3 0x567 JUMP JUMPDEST DUP7 SSTORE POP PUSH3 0x664 JUMP JUMPDEST PUSH1 0x1F NOT DUP5 AND PUSH3 0x60D DUP7 PUSH3 0x3A9 JUMP JUMPDEST PUSH1 0x0 JUMPDEST DUP3 DUP2 LT ISZERO PUSH3 0x637 JUMPI DUP5 DUP10 ADD MLOAD DUP3 SSTORE PUSH1 0x1 DUP3 ADD SWAP2 POP PUSH1 0x20 DUP6 ADD SWAP5 POP PUSH1 0x20 DUP2 ADD SWAP1 POP PUSH3 0x610 JUMP JUMPDEST DUP7 DUP4 LT ISZERO PUSH3 0x657 JUMPI DUP5 DUP10 ADD MLOAD PUSH3 0x653 PUSH1 0x1F DUP10 AND DUP3 PUSH3 0x547 JUMP JUMPDEST DUP4 SSTORE POP JUMPDEST PUSH1 0x1 PUSH1 0x2 DUP9 MUL ADD DUP9 SSTORE POP POP POP JUMPDEST POP POP POP POP POP POP JUMP JUMPDEST PUSH1 0x80 MLOAD PUSH2 0x1934 PUSH3 0x685 PUSH1 0x0 CODECOPY PUSH1 0x0 POP POP PUSH2 0x1934 PUSH1 0x0 RETURN INVALID PUSH1 0x80 PUSH1 0x40 MSTORE CALLVALUE DUP1 ISZERO PUSH2 0x10 JUMPI PUSH1 0x0 DUP1 REVERT JUMPDEST POP PUSH1 0x4 CALLDATASIZE LT PUSH2 0x100 JUMPI PUSH1 0x0 CALLDATALOAD PUSH1 0xE0 SHR DUP1 PUSH4 0x9A4D383E GT PUSH2 0x97 JUMPI DUP1 PUSH4 0xA230C524 GT PUSH2 0x66 JUMPI DUP1 PUSH4 0xA230C524 EQ PUSH2 0x2AF JUMPI DUP1 PUSH4 0xAF1FCA09 EQ PUSH2 0x2DF JUMPI DUP1 PUSH4 0xCA505A5B EQ PUSH2 0x2FD JUMPI DUP1 PUSH4 0xCEF025AC EQ PUSH2 0x31B JUMPI PUSH2 0x100 JUMP JUMPDEST DUP1 PUSH4 0x9A4D383E EQ PUSH2 0x227 JUMPI DUP1 PUSH4 0x9C0AB105 EQ PUSH2 0x243 JUMPI DUP1 PUSH4 0x9E5F59F9 EQ PUSH2 0x261 JUMPI DUP1 PUSH4 0x9EAB5253 EQ PUSH2 0x291 JUMPI PUSH2 0x100 JUMP JUMPDEST DUP1 PUSH4 0x455772D2 GT PUSH2 0xD3 JUMPI DUP1 PUSH4 0x455772D2 EQ PUSH2 0x18B JUMPI DUP1 PUSH4 0x5DAF08CA EQ PUSH2 0x1A9 JUMPI DUP1 PUSH4 0x70586013 EQ PUSH2 0x1D9 JUMPI DUP1 PUSH4 0x997072F7 EQ PUSH2 0x209 JUMPI PUSH2 0x100 JUMP JUMPDEST DUP1 PUSH4 0x6FDDE03 EQ PUSH2 0x105 JUMPI DUP1 PUSH4 0x146B551D EQ PUSH2 0x123 JUMPI DUP1 PUSH4 0x15866836 EQ PUSH2 0x153 JUMPI DUP1 PUSH4 0x1EE503FD EQ PUSH2 0x16F JUMPI JUMPDEST PUSH1 0x0 DUP1 REVERT JUMPDEST PUSH2 0x10D PUSH2 0x337 JUMP JUMPDEST PUSH1 0x40 MLOAD PUSH2 0x11A SWAP2 SWAP1 PUSH2 0xED9 JUMP JUMPDEST PUSH1 0x40 MLOAD DUP1 SWAP2 SUB SWAP1 RETURN JUMPDEST PUSH2 0x13D PUSH1 0x4 DUP1 CALLDATASIZE SUB DUP2 ADD SWAP1 PUSH2 0x138 SWAP2 SWAP1 PUSH2 0xF6D JUMP JUMPDEST PUSH2 0x3C5 JUMP JUMPDEST PUSH1 0x40 MLOAD PUSH2 0x14A SWAP2 SWAP1 PUSH2 0xFB6 JUMP JUMPDEST PUSH1 0x40 MLOAD DUP1 SWAP2 SUB SWAP1 RETURN JUMPDEST PUSH2 0x16D PUSH1 0x4 DUP1 CALLDATASIZE SUB DUP2 ADD SWAP1 PUSH2 0x168 SWAP2 SWAP1 PUSH2 0x1036 JUMP JUMPDEST PUSH2 0x3CC JUMP JUMPDEST STOP JUMPDEST PUSH2 0x189 PUSH1 0x4 DUP1 CALLDATASIZE SUB DUP2 ADD SWAP1 PUSH2 0x184 SWAP2 SWAP1 PUSH2 0xF6D JUMP JUMPDEST PUSH2 0x45F JUMP JUMPDEST STOP JUMPDEST PUSH2 0x193 PUSH2 0x81E JUMP JUMPDEST PUSH1 0x40 MLOAD PUSH2 0x1A0 SWAP2 SWAP1 PUSH2 0x1154 JUMP JUMPDEST PUSH1 0x40 MLOAD DUP1 SWAP2 SUB SWAP1 RETURN JUMPDEST PUSH2 0x1C3 PUSH1 0x4 DUP1 CALLDATASIZE SUB DUP2 ADD SWAP1 PUSH2 0x1BE SWAP2 SWAP1 PUSH2 0x11AC JUMP JUMPDEST PUSH2 0x94F JUMP JUMPDEST PUSH1 0x40 MLOAD PUSH2 0x1D0 SWAP2 SWAP1 PUSH2 0x11E8 JUMP JUMPDEST PUSH1 0x40 MLOAD DUP1 SWAP2 SUB SWAP1 RETURN JUMPDEST PUSH2 0x1F3 PUSH1 0x4 DUP1 CALLDATASIZE SUB DUP2 ADD SWAP1 PUSH2 0x1EE SWAP2 SWAP1 PUSH2 0x1036 JUMP JUMPDEST PUSH2 0x98E JUMP JUMPDEST PUSH1 0x40 MLOAD PUSH2 0x200 SWAP2 SWAP1 PUSH2 0x1222 JUMP JUMPDEST PUSH1 0x40 MLOAD DUP1 SWAP2 SUB SWAP1 RETURN JUMPDEST PUSH2 0x211 PUSH2 0x997 JUMP JUMPDEST PUSH1 0x40 MLOAD PUSH2 0x21E SWAP2 SWAP1 PUSH2 0x124C JUMP JUMPDEST PUSH1 0x40 MLOAD DUP1 SWAP2 SUB SWAP1 RETURN JUMPDEST PUSH2 0x241 PUSH1 0x4 DUP1 CALLDATASIZE SUB DUP2 ADD SWAP1 PUSH2 0x23C SWAP2 SWAP1 PUSH2 0xF6D JUMP JUMPDEST PUSH2 0x9A4 JUMP JUMPDEST STOP JUMPDEST PUSH2 0x24B PUSH2 0xB86 JUMP JUMPDEST PUSH1 0x40 MLOAD PUSH2 0x258 SWAP2 SWAP1 PUSH2 0xED9 JUMP JUMPDEST PUSH1 0x40 MLOAD DUP1 SWAP2 SUB SWAP1 RETURN JUMPDEST PUSH2 0x27B PUSH1 0x4 DUP1 CALLDATASIZE SUB DUP2 ADD SWAP1 PUSH2 0x276 SWAP2 SWAP1 PUSH2 0xF6D JUMP JUMPDEST PUSH2 0xC14 JUMP JUMPDEST PUSH1 0x40 MLOAD PUSH2 0x288 SWAP2 SWAP1 PUSH2 0x1373 JUMP JUMPDEST PUSH1 0x40 MLOAD DUP1 SWAP2 SUB SWAP1 RETURN JUMPDEST PUSH2 0x299 PUSH2 0xC1B JUMP JUMPDEST PUSH1 0x40 MLOAD PUSH2 0x2A6 SWAP2 SWAP1 PUSH2 0x1154 JUMP JUMPDEST PUSH1 0x40 MLOAD DUP1 SWAP2 SUB SWAP1 RETURN JUMPDEST PUSH2 0x2C9 PUSH1 0x4 DUP1 CALLDATASIZE SUB DUP2 ADD SWAP1 PUSH2 0x2C4 SWAP2 SWAP1 PUSH2 0xF6D JUMP JUMPDEST PUSH2 0xCAE JUMP JUMPDEST PUSH1 0x40 MLOAD PUSH2 0x2D6 SWAP2 SWAP1 PUSH2 0x13B0 JUMP JUMPDEST PUSH1 0x40 MLOAD DUP1 SWAP2 SUB SWAP1 RETURN JUMPDEST PUSH2 0x2E7 PUSH2 0xD04 JUMP JUMPDEST PUSH1 0x40 MLOAD PUSH2 0x2F4 SWAP2 SWAP1 PUSH2 0x11E8 JUMP JUMPDEST PUSH1 0x40 MLOAD DUP1 SWAP2 SUB SWAP1 RETURN JUMPDEST PUSH2 0x305 PUSH2 0xD2A JUMP JUMPDEST PUSH1 0x40 MLOAD PUSH2 0x312 SWAP2 SWAP1 PUSH2 0xED9 JUMP JUMPDEST PUSH1 0x40 MLOAD DUP1 SWAP2 SUB SWAP1 RETURN JUMPDEST PUSH2 0x335 PUSH1 0x4 DUP1 CALLDATASIZE SUB DUP2 ADD SWAP1 PUSH2 0x330 SWAP2 SWAP1 PUSH2 0xF6D JUMP JUMPDEST PUSH2 0xDB8 JUMP JUMPDEST STOP JUMPDEST PUSH1 0x0 DUP1 SLOAD PUSH2 0x344 SWAP1 PUSH2 0x13FA JUMP JUMPDEST DUP1 PUSH1 0x1F ADD PUSH1 0x20 DUP1 SWAP2 DIV MUL PUSH1 0x20 ADD PUSH1 0x40 MLOAD SWAP1 DUP2 ADD PUSH1 0x40 MSTORE DUP1 SWAP3 SWAP2 SWAP1 DUP2 DUP2 MSTORE PUSH1 0x20 ADD DUP3 DUP1 SLOAD PUSH2 0x370 SWAP1 PUSH2 0x13FA JUMP JUMPDEST DUP1 ISZERO PUSH2 0x3BD JUMPI DUP1 PUSH1 0x1F LT PUSH2 0x392 JUMPI PUSH2 0x100 DUP1 DUP4 SLOAD DIV MUL DUP4 MSTORE SWAP2 PUSH1 0x20 ADD SWAP2 PUSH2 0x3BD JUMP JUMPDEST DUP3 ADD SWAP2 SWAP1 PUSH1 0x0 MSTORE PUSH1 0x20 PUSH1 0x0 KECCAK256 SWAP1 JUMPDEST DUP2 SLOAD DUP2 MSTORE SWAP1 PUSH1 0x1 ADD SWAP1 PUSH1 0x20 ADD DUP1 DUP4 GT PUSH2 0x3A0 JUMPI DUP3 SWAP1 SUB PUSH1 0x1F AND DUP3 ADD SWAP2 JUMPDEST POP POP POP POP POP DUP2 JUMP JUMPDEST PUSH1 0x0 SWAP2 SWAP1 POP JUMP JUMPDEST CALLER PUSH1 0x4 PUSH1 0x0 DUP3 PUSH20 0xFFFFFFFFFFFFFFFFFFFFFFFFFFFFFFFFFFFFFFFF AND PUSH20 0xFFFFFFFFFFFFFFFFFFFFFFFFFFFFFFFFFFFFFFFF AND DUP2 MSTORE PUSH1 0x20 ADD SWAP1 DUP2 MSTORE PUSH1 0x20 ADD PUSH1 0x0 KECCAK256 PUSH1 0x0 SWAP1 SLOAD SWAP1 PUSH2 0x100 EXP SWAP1 DIV PUSH1 0xFF AND PUSH2 0x459 JUMPI PUSH1 0x40 MLOAD PUSH32 0x8C379A000000000000000000000000000000000000000000000000000000000 DUP2 MSTORE PUSH1 0x4 ADD PUSH2 0x450 SWAP1 PUSH2 0x1477 JUMP JUMPDEST PUSH1 0x40 MLOAD DUP1 SWAP2 SUB SWAP1 REVERT JUMPDEST POP POP POP POP JUMP JUMPDEST CALLER PUSH1 0x4 PUSH1 0x0 DUP3 PUSH20 0xFFFFFFFFFFFFFFFFFFFFFFFFFFFFFFFFFFFFFFFF AND PUSH20 0xFFFFFFFFFFFFFFFFFFFFFFFFFFFFFFFFFFFFFFFF AND DUP2 MSTORE PUSH1 0x20 ADD SWAP1 DUP2 MSTORE PUSH1 0x20 ADD PUSH1 0x0 KECCAK256 PUSH1 0x0 SWAP1 SLOAD SWAP1 PUSH2 0x100 EXP SWAP1 DIV PUSH1 0xFF AND PUSH2 0x4EC JUMPI PUSH1 0x40 MLOAD PUSH32 0x8C379A000000000000000000000000000000000000000000000000000000000 DUP2 MSTORE PUSH1 0x4 ADD PUSH2 0x4E3 SWAP1 PUSH2 0x1477 JUMP JUMPDEST PUSH1 0x40 MLOAD DUP1 SWAP2 SUB SWAP1 REVERT JUMPDEST PUSH1 0x0 PUSH20 0xFFFFFFFFFFFFFFFFFFFFFFFFFFFFFFFFFFFFFFFF AND DUP3 PUSH20 0xFFFFFFFFFFFFFFFFFFFFFFFFFFFFFFFFFFFFFFFF AND SUB PUSH2 0x525 JUMPI PUSH1 0x0 DUP1 REVERT JUMPDEST PUSH1 0x0 PUSH1 0x8 PUSH1 0x0 SWAP1 SLOAD SWAP1 PUSH2 0x100 EXP SWAP1 DIV PUSH20 0xFFFFFFFFFFFFFFFFFFFFFFFFFFFFFFFFFFFFFFFF AND SWAP1 POP PUSH1 0x0 DUP2 PUSH20 0xFFFFFFFFFFFFFFFFFFFFFFFFFFFFFFFFFFFFFFFF AND PUSH4 0xB672BDCB DUP6 PUSH1 0x40 MLOAD DUP3 PUSH4 0xFFFFFFFF AND PUSH1 0xE0 SHL DUP2 MSTORE PUSH1 0x4 ADD PUSH2 0x587 SWAP2 SWAP1 PUSH2 0x11E8 JUMP JUMPDEST PUSH1 0x20 PUSH1 0x40 MLOAD DUP1 DUP4 SUB DUP2 DUP7 GAS STATICCALL ISZERO DUP1 ISZERO PUSH2 0x5A4 JUMPI RETURNDATASIZE PUSH1 0x0 DUP1 RETURNDATACOPY RETURNDATASIZE PUSH1 0x0 REVERT JUMPDEST POP POP POP POP PUSH1 0x40 MLOAD RETURNDATASIZE PUSH1 0x1F NOT PUSH1 0x1F DUP3 ADD AND DUP3 ADD DUP1 PUSH1 0x40 MSTORE POP DUP2 ADD SWAP1 PUSH2 0x5C8 SWAP2 SWAP1 PUSH2 0x14AC JUMP JUMPDEST SWAP1 POP TIMESTAMP DUP2 GT PUSH2 0x60C JUMPI PUSH1 0x40 MLOAD PUSH32 0x8C379A000000000000000000000000000000000000000000000000000000000 DUP2 MSTORE PUSH1 0x4 ADD PUSH2 0x603 SWAP1 PUSH2 0x1525 JUMP JUMPDEST PUSH1 0x40 MLOAD DUP1 SWAP2 SUB SWAP1 REVERT JUMPDEST PUSH1 0x0 PUSH2 0x616 PUSH2 0x997 JUMP JUMPDEST SWAP1 POP PUSH1 0x0 DUP4 PUSH20 0xFFFFFFFFFFFFFFFFFFFFFFFFFFFFFFFFFFFFFFFF AND PUSH4 0xD9A87535 DUP8 PUSH1 0x40 MLOAD DUP3 PUSH4 0xFFFFFFFF AND PUSH1 0xE0 SHL DUP2 MSTORE PUSH1 0x4 ADD PUSH2 0x653 SWAP2 SWAP1 PUSH2 0x11E8 JUMP JUMPDEST PUSH1 0x20 PUSH1 0x40 MLOAD DUP1 DUP4 SUB DUP2 DUP7 GAS STATICCALL ISZERO DUP1 ISZERO PUSH2 0x670 JUMPI RETURNDATASIZE PUSH1 0x0 DUP1 RETURNDATACOPY RETURNDATASIZE PUSH1 0x0 REVERT JUMPDEST POP POP POP POP PUSH1 0x40 MLOAD RETURNDATASIZE PUSH1 0x1F NOT PUSH1 0x1F DUP3 ADD AND DUP3 ADD DUP1 PUSH1 0x40 MSTORE POP DUP2 ADD SWAP1 PUSH2 0x694 SWAP2 SWAP1 PUSH2 0x14AC JUMP JUMPDEST SWAP1 POP PUSH1 0x5 PUSH1 0x64 DUP4 DUP4 PUSH2 0x6A6 SWAP2 SWAP1 PUSH2 0x15A3 JUMP JUMPDEST PUSH2 0x6B0 SWAP2 SWAP1 PUSH2 0x15D4 JUMP JUMPDEST GT PUSH2 0x6F0 JUMPI PUSH1 0x40 MLOAD PUSH32 0x8C379A000000000000000000000000000000000000000000000000000000000 DUP2 MSTORE PUSH1 0x4 ADD PUSH2 0x6E7 SWAP1 PUSH2 0x1688 JUMP JUMPDEST PUSH1 0x40 MLOAD DUP1 SWAP2 SUB SWAP1 REVERT JUMPDEST DUP4 PUSH20 0xFFFFFFFFFFFFFFFFFFFFFFFFFFFFFFFFFFFFFFFF AND PUSH4 0x1292A282 DUP8 PUSH1 0x40 MLOAD DUP3 PUSH4 0xFFFFFFFF AND PUSH1 0xE0 SHL DUP2 MSTORE PUSH1 0x4 ADD PUSH2 0x729 SWAP2 SWAP1 PUSH2 0x11E8 JUMP JUMPDEST PUSH1 0x0 PUSH1 0x40 MLOAD DUP1 DUP4 SUB DUP2 PUSH1 0x0 DUP8 DUP1 EXTCODESIZE ISZERO DUP1 ISZERO PUSH2 0x743 JUMPI PUSH1 0x0 DUP1 REVERT JUMPDEST POP GAS CALL ISZERO DUP1 ISZERO PUSH2 0x757 JUMPI RETURNDATASIZE PUSH1 0x0 DUP1 RETURNDATACOPY RETURNDATASIZE PUSH1 0x0 REVERT JUMPDEST POP POP POP POP PUSH1 0x3 DUP7 SWAP1 DUP1 PUSH1 0x1 DUP2 SLOAD ADD DUP1 DUP3 SSTORE DUP1 SWAP2 POP POP PUSH1 0x1 SWAP1 SUB SWAP1 PUSH1 0x0 MSTORE PUSH1 0x20 PUSH1 0x0 KECCAK256 ADD PUSH1 0x0 SWAP1 SWAP2 SWAP1 SWAP2 SWAP1 SWAP2 PUSH2 0x100 EXP DUP2 SLOAD DUP2 PUSH20 0xFFFFFFFFFFFFFFFFFFFFFFFFFFFFFFFFFFFFFFFF MUL NOT AND SWAP1 DUP4 PUSH20 0xFFFFFFFFFFFFFFFFFFFFFFFFFFFFFFFFFFFFFFFF AND MUL OR SWAP1 SSTORE POP PUSH1 0x1 PUSH1 0x4 PUSH1 0x0 DUP9 PUSH20 0xFFFFFFFFFFFFFFFFFFFFFFFFFFFFFFFFFFFFFFFF AND PUSH20 0xFFFFFFFFFFFFFFFFFFFFFFFFFFFFFFFFFFFFFFFF AND DUP2 MSTORE PUSH1 0x20 ADD SWAP1 DUP2 MSTORE PUSH1 0x20 ADD PUSH1 0x0 KECCAK256 PUSH1 0x0 PUSH2 0x100 EXP DUP2 SLOAD DUP2 PUSH1 0xFF MUL NOT AND SWAP1 DUP4 ISZERO ISZERO MUL OR SWAP1 SSTORE POP POP POP POP POP POP POP JUMP JUMPDEST PUSH1 0x60 CALLER PUSH1 0x4 PUSH1 0x0 DUP3 PUSH20 0xFFFFFFFFFFFFFFFFFFFFFFFFFFFFFFFFFFFFFFFF AND PUSH20 0xFFFFFFFFFFFFFFFFFFFFFFFFFFFFFFFFFFFFFFFF AND DUP2 MSTORE PUSH1 0x20 ADD SWAP1 DUP2 MSTORE PUSH1 0x20 ADD PUSH1 0x0 KECCAK256 PUSH1 0x0 SWAP1 SLOAD SWAP1 PUSH2 0x100 EXP SWAP1 DIV PUSH1 0xFF AND PUSH2 0x8AD JUMPI PUSH1 0x40 MLOAD PUSH32 0x8C379A000000000000000000000000000000000000000000000000000000000 DUP2 MSTORE PUSH1 0x4 ADD PUSH2 0x8A4 SWAP1 PUSH2 0x1477 JUMP JUMPDEST PUSH1 0x40 MLOAD DUP1 SWAP2 SUB SWAP1 REVERT JUMPDEST PUSH1 0x0 PUSH1 0x8 PUSH1 0x0 SWAP1 SLOAD SWAP1 PUSH2 0x100 EXP SWAP1 DIV PUSH20 0xFFFFFFFFFFFFFFFFFFFFFFFFFFFFFFFFFFFFFFFF AND SWAP1 POP DUP1 PUSH20 0xFFFFFFFFFFFFFFFFFFFFFFFFFFFFFFFFFFFFFFFF AND PUSH4 0x455772D2 PUSH1 0x40 MLOAD DUP2 PUSH4 0xFFFFFFFF AND PUSH1 0xE0 SHL DUP2 MSTORE PUSH1 0x4 ADD PUSH1 0x0 PUSH1 0x40 MLOAD DUP1 DUP4 SUB DUP2 DUP7 GAS STATICCALL ISZERO DUP1 ISZERO PUSH2 0x91F JUMPI RETURNDATASIZE PUSH1 0x0 DUP1 RETURNDATACOPY RETURNDATASIZE PUSH1 0x0 REVERT JUMPDEST POP POP POP POP PUSH1 0x40 MLOAD RETURNDATASIZE PUSH1 0x0 DUP3 RETURNDATACOPY RETURNDATASIZE PUSH1 0x1F NOT PUSH1 0x1F DUP3 ADD AND DUP3 ADD DUP1 PUSH1 0x40 MSTORE POP DUP2 ADD SWAP1 PUSH2 0x948 SWAP2 SWAP1 PUSH2 0x17FB JUMP JUMPDEST SWAP3 POP POP POP SWAP1 JUMP JUMPDEST PUSH1 0x3 DUP2 DUP2 SLOAD DUP2 LT PUSH2 0x95F JUMPI PUSH1 0x0 DUP1 REVERT JUMPDEST SWAP1 PUSH1 0x0 MSTORE PUSH1 0x20 PUSH1 0x0 KECCAK256 ADD PUSH1 0x0 SWAP2 POP SLOAD SWAP1 PUSH2 0x100 EXP SWAP1 DIV PUSH20 0xFFFFFFFFFFFFFFFFFFFFFFFFFFFFFFFFFFFFFFFF AND DUP2 JUMP JUMPDEST PUSH1 0x0 SWAP4 SWAP3 POP POP POP JUMP JUMPDEST PUSH1 0x0 PUSH1 0x3 DUP1 SLOAD SWAP1 POP SWAP1 POP SWAP1 JUMP JUMPDEST PUSH1 0x0 PUSH1 0x6 PUSH1 0x0 CALLER PUSH20 0xFFFFFFFFFFFFFFFFFFFFFFFFFFFFFFFFFFFFFFFF AND PUSH20 0xFFFFFFFFFFFFFFFFFFFFFFFFFFFFFFFFFFFFFFFF AND DUP2 MSTORE PUSH1 0x20 ADD SWAP1 DUP2 MSTORE PUSH1 0x20 ADD PUSH1 0x0 KECCAK256 PUSH1 0x0 SWAP1 SLOAD SWAP1 PUSH2 0x100 EXP SWAP1 DIV PUSH20 0xFFFFFFFFFFFFFFFFFFFFFFFFFFFFFFFFFFFFFFFF AND SWAP1 POP DUP1 PUSH20 0xFFFFFFFFFFFFFFFFFFFFFFFFFFFFFFFFFFFFFFFF AND DUP3 PUSH20 0xFFFFFFFFFFFFFFFFFFFFFFFFFFFFFFFFFFFFFFFF AND SUB PUSH2 0xA76 JUMPI PUSH1 0x40 MLOAD PUSH32 0x8C379A000000000000000000000000000000000000000000000000000000000 DUP2 MSTORE PUSH1 0x4 ADD PUSH2 0xA6D SWAP1 PUSH2 0x1890 JUMP JUMPDEST PUSH1 0x40 MLOAD DUP1 SWAP2 SUB SWAP1 REVERT JUMPDEST PUSH1 0x1 PUSH1 0x7 PUSH1 0x0 DUP5 PUSH20 0xFFFFFFFFFFFFFFFFFFFFFFFFFFFFFFFFFFFFFFFF AND PUSH20 0xFFFFFFFFFFFFFFFFFFFFFFFFFFFFFFFFFFFFFFFF AND DUP2 MSTORE PUSH1 0x20 ADD SWAP1 DUP2 MSTORE PUSH1 0x20 ADD PUSH1 0x0 KECCAK256 PUSH1 0x0 DUP3 DUP3 SLOAD PUSH2 0xAC6 SWAP2 SWAP1 PUSH2 0x18BA JUMP JUMPDEST SWAP3 POP POP DUP2 SWAP1 SSTORE POP DUP2 PUSH1 0x6 PUSH1 0x0 CALLER PUSH20 0xFFFFFFFFFFFFFFFFFFFFFFFFFFFFFFFFFFFFFFFF AND PUSH20 0xFFFFFFFFFFFFFFFFFFFFFFFFFFFFFFFFFFFFFFFF AND DUP2 MSTORE PUSH1 0x20 ADD SWAP1 DUP2 MSTORE PUSH1 0x20 ADD PUSH1 0x0 KECCAK256 PUSH1 0x0 PUSH2 0x100 EXP DUP2 SLOAD DUP2 PUSH20 0xFFFFFFFFFFFFFFFFFFFFFFFFFFFFFFFFFFFFFFFF MUL NOT AND SWAP1 DUP4 PUSH20 0xFFFFFFFFFFFFFFFFFFFFFFFFFFFFFFFFFFFFFFFF AND MUL OR SWAP1 SSTORE POP PUSH32 0xE8DDFEC65826B66EC8B03B89152BB70528FA2DA92E9775CC99671B1FC7BCB0F4 CALLER PUSH1 0x40 MLOAD PUSH2 0xB7A SWAP2 SWAP1 PUSH2 0x11E8 JUMP JUMPDEST PUSH1 0x40 MLOAD DUP1 SWAP2 SUB SWAP1 LOG1 POP POP JUMP JUMPDEST PUSH1 0x2 DUP1 SLOAD PUSH2 0xB93 SWAP1 PUSH2 0x13FA JUMP JUMPDEST DUP1 PUSH1 0x1F ADD PUSH1 0x20 DUP1 SWAP2 DIV MUL PUSH1 0x20 ADD PUSH1 0x40 MLOAD SWAP1 DUP2 ADD PUSH1 0x40 MSTORE DUP1 SWAP3 SWAP2 SWAP1 DUP2 DUP2 MSTORE PUSH1 0x20 ADD DUP3 DUP1 SLOAD PUSH2 0xBBF SWAP1 PUSH2 0x13FA JUMP JUMPDEST DUP1 ISZERO PUSH2 0xC0C JUMPI DUP1 PUSH1 0x1F LT PUSH2 0xBE1 JUMPI PUSH2 0x100 DUP1 DUP4 SLOAD DIV MUL DUP4 MSTORE SWAP2 PUSH1 0x20 ADD SWAP2 PUSH2 0xC0C JUMP JUMPDEST DUP3 ADD SWAP2 SWAP1 PUSH1 0x0 MSTORE PUSH1 0x20 PUSH1 0x0 KECCAK256 SWAP1 JUMPDEST DUP2 SLOAD DUP2 MSTORE SWAP1 PUSH1 0x1 ADD SWAP1 PUSH1 0x20 ADD DUP1 DUP4 GT PUSH2 0xBEF JUMPI DUP3 SWAP1 SUB PUSH1 0x1F AND DUP3 ADD SWAP2 JUMPDEST POP POP POP POP POP DUP2 JUMP JUMPDEST PUSH1 0x60 SWAP2 SWAP1 POP JUMP JUMPDEST PUSH1 0x60 CALLER PUSH1 0x4 PUSH1 0x0 DUP3 PUSH20 0xFFFFFFFFFFFFFFFFFFFFFFFFFFFFFFFFFFFFFFFF AND PUSH20 0xFFFFFFFFFFFFFFFFFFFFFFFFFFFFFFFFFFFFFFFF AND DUP2 MSTORE PUSH1 0x20 ADD SWAP1 DUP2 MSTORE PUSH1 0x20 ADD PUSH1 0x0 KECCAK256 PUSH1 0x0 SWAP1 SLOAD SWAP1 PUSH2 0x100 EXP SWAP1 DIV PUSH1 0xFF AND PUSH2 0xCAA JUMPI PUSH1 0x40 MLOAD PUSH32 0x8C379A000000000000000000000000000000000000000000000000000000000 DUP2 MSTORE PUSH1 0x4 ADD PUSH2 0xCA1 SWAP1 PUSH2 0x1477 JUMP JUMPDEST PUSH1 0x40 MLOAD DUP1 SWAP2 SUB SWAP1 REVERT JUMPDEST POP SWAP1 JUMP JUMPDEST PUSH1 0x0 PUSH1 0x4 PUSH1 0x0 DUP4 PUSH20 0xFFFFFFFFFFFFFFFFFFFFFFFFFFFFFFFFFFFFFFFF AND PUSH20 0xFFFFFFFFFFFFFFFFFFFFFFFFFFFFFFFFFFFFFFFF AND DUP2 MSTORE PUSH1 0x20 ADD SWAP1 DUP2 MSTORE PUSH1 0x20 ADD PUSH1 0x0 KECCAK256 PUSH1 0x0 SWAP1 SLOAD SWAP1 PUSH2 0x100 EXP SWAP1 DIV PUSH1 0xFF AND SWAP1 POP SWAP2 SWAP1 POP JUMP JUMPDEST PUSH1 0x8 PUSH1 0x0 SWAP1 SLOAD SWAP1 PUSH2 0x100 EXP SWAP1 DIV PUSH20 0xFFFFFFFFFFFFFFFFFFFFFFFFFFFFFFFFFFFFFFFF AND DUP2 JUMP JUMPDEST PUSH1 0x1 DUP1 SLOAD PUSH2 0xD37 SWAP1 PUSH2 0x13FA JUMP JUMPDEST DUP1 PUSH1 0x1F ADD PUSH1 0x20 DUP1 SWAP2 DIV MUL PUSH1 0x20 ADD PUSH1 0x40 MLOAD SWAP1 DUP2 ADD PUSH1 0x40 MSTORE DUP1 SWAP3 SWAP2 SWAP1 DUP2 DUP2 MSTORE PUSH1 0x20 ADD DUP3 DUP1 SLOAD PUSH2 0xD63 SWAP1 PUSH2 0x13FA JUMP JUMPDEST DUP1 ISZERO PUSH2 0xDB0 JUMPI DUP1 PUSH1 0x1F LT PUSH2 0xD85 JUMPI PUSH2 0x100 DUP1 DUP4 SLOAD DIV MUL DUP4 MSTORE SWAP2 PUSH1 0x20 ADD SWAP2 PUSH2 0xDB0 JUMP JUMPDEST DUP3 ADD SWAP2 SWAP1 PUSH1 0x0 MSTORE PUSH1 0x20 PUSH1 0x0 KECCAK256 SWAP1 JUMPDEST DUP2 SLOAD DUP2 MSTORE SWAP1 PUSH1 0x1 ADD SWAP1 PUSH1 0x20 ADD DUP1 DUP4 GT PUSH2 0xD93 JUMPI DUP3 SWAP1 SUB PUSH1 0x1F AND DUP3 ADD SWAP2 JUMPDEST POP POP POP POP POP DUP2 JUMP JUMPDEST CALLER PUSH1 0x4 PUSH1 0x0 DUP3 PUSH20 0xFFFFFFFFFFFFFFFFFFFFFFFFFFFFFFFFFFFFFFFF AND PUSH20 0xFFFFFFFFFFFFFFFFFFFFFFFFFFFFFFFFFFFFFFFF AND DUP2 MSTORE PUSH1 0x20 ADD SWAP1 DUP2 MSTORE PUSH1 0x20 ADD PUSH1 0x0 KECCAK256 PUSH1 0x0 SWAP1 SLOAD SWAP1 PUSH2 0x100 EXP SWAP1 DIV PUSH1 0xFF AND PUSH2 0xE45 JUMPI PUSH1 0x40 MLOAD PUSH32 0x8C379A000000000000000000000000000000000000000000000000000000000 DUP2 MSTORE PUSH1 0x4 ADD PUSH2 0xE3C SWAP1 PUSH2 0x1477 JUMP JUMPDEST PUSH1 0x40 MLOAD DUP1 SWAP2 SUB SWAP1 REVERT JUMPDEST POP POP JUMP JUMPDEST PUSH1 0x0 DUP2 MLOAD SWAP1 POP SWAP2 SWAP1 POP JUMP JUMPDEST PUSH1 0x0 DUP3 DUP3 MSTORE PUSH1 0x20 DUP3 ADD SWAP1 POP SWAP3 SWAP2 POP POP JUMP JUMPDEST PUSH1 0x0 JUMPDEST DUP4 DUP2 LT ISZERO PUSH2 0xE83 JUMPI DUP1 DUP3 ADD MLOAD DUP2 DUP5 ADD MSTORE PUSH1 0x20 DUP2 ADD SWAP1 POP PUSH2 0xE68 JUMP JUMPDEST PUSH1 0x0 DUP5 DUP5 ADD MSTORE POP POP POP POP JUMP JUMPDEST PUSH1 0x0 PUSH1 0x1F NOT PUSH1 0x1F DUP4 ADD AND SWAP1 POP SWAP2 SWAP1 POP JUMP JUMPDEST PUSH1 0x0 PUSH2 0xEAB DUP3 PUSH2 0xE49 JUMP JUMPDEST PUSH2 0xEB5 DUP2 DUP6 PUSH2 0xE54 JUMP JUMPDEST SWAP4 POP PUSH2 0xEC5 DUP2 DUP6 PUSH1 0x20 DUP7 ADD PUSH2 0xE65 JUMP JUMPDEST PUSH2 0xECE DUP2 PUSH2 0xE8F JUMP JUMPDEST DUP5 ADD SWAP2 POP POP SWAP3 SWAP2 POP POP JUMP JUMPDEST PUSH1 0x0 PUSH1 0x20 DUP3 ADD SWAP1 POP DUP2 DUP2 SUB PUSH1 0x0 DUP4 ADD MSTORE PUSH2 0xEF3 DUP2 DUP5 PUSH2 0xEA0 JUMP JUMPDEST SWAP1 POP SWAP3 SWAP2 POP POP JUMP JUMPDEST PUSH1 0x0 PUSH1 0x40 MLOAD SWAP1 POP SWAP1 JUMP JUMPDEST PUSH1 0x0 DUP1 REVERT JUMPDEST PUSH1 0x0 DUP1 REVERT JUMPDEST PUSH1 0x0 PUSH20 0xFFFFFFFFFFFFFFFFFFFFFFFFFFFFFFFFFFFFFFFF DUP3 AND SWAP1 POP SWAP2 SWAP1 POP JUMP JUMPDEST PUSH1 0x0 PUSH2 0xF3A DUP3 PUSH2 0xF0F JUMP JUMPDEST SWAP1 POP SWAP2 SWAP1 POP JUMP JUMPDEST PUSH2 0xF4A DUP2 PUSH2 0xF2F JUMP JUMPDEST DUP2 EQ PUSH2 0xF55 JUMPI PUSH1 0x0 DUP1 REVERT JUMPDEST POP JUMP JUMPDEST PUSH1 0x0 DUP2 CALLDATALOAD SWAP1 POP PUSH2 0xF67 DUP2 PUSH2 0xF41 JUMP JUMPDEST SWAP3 SWAP2 POP POP JUMP JUMPDEST PUSH1 0x0 PUSH1 0x20 DUP3 DUP5 SUB SLT ISZERO PUSH2 0xF83 JUMPI PUSH2 0xF82 PUSH2 0xF05 JUMP JUMPDEST JUMPDEST PUSH1 0x0 PUSH2 0xF91 DUP5 DUP3 DUP6 ADD PUSH2 0xF58 JUMP JUMPDEST SWAP2 POP POP SWAP3 SWAP2 POP POP JUMP JUMPDEST PUSH1 0x0 DUP2 PUSH1 0x3 SIGNEXTEND SWAP1 POP SWAP2 SWAP1 POP JUMP JUMPDEST PUSH2 0xFB0 DUP2 PUSH2 0xF9A JUMP JUMPDEST DUP3 MSTORE POP POP JUMP JUMPDEST PUSH1 0x0 PUSH1 0x20 DUP3 ADD SWAP1 POP PUSH2 0xFCB PUSH1 0x0 DUP4 ADD DUP5 PUSH2 0xFA7 JUMP JUMPDEST SWAP3 SWAP2 POP POP JUMP JUMPDEST PUSH1 0x0 DUP1 REVERT JUMPDEST PUSH1 0x0 DUP1 REVERT JUMPDEST PUSH1 0x0 DUP1 REVERT JUMPDEST PUSH1 0x0 DUP1 DUP4 PUSH1 0x1F DUP5 ADD SLT PUSH2 0xFF6 JUMPI PUSH2 0xFF5 PUSH2 0xFD1 JUMP JUMPDEST JUMPDEST DUP3 CALLDATALOAD SWAP1 POP PUSH8 0xFFFFFFFFFFFFFFFF DUP2 GT ISZERO PUSH2 0x1013 JUMPI PUSH2 0x1012 PUSH2 0xFD6 JUMP JUMPDEST JUMPDEST PUSH1 0x20 DUP4 ADD SWAP2 POP DUP4 PUSH1 0x1 DUP3 MUL DUP4 ADD GT ISZERO PUSH2 0x102F JUMPI PUSH2 0x102E PUSH2 0xFDB JUMP JUMPDEST JUMPDEST SWAP3 POP SWAP3 SWAP1 POP JUMP JUMPDEST PUSH1 0x0 DUP1 PUSH1 0x0 PUSH1 0x40 DUP5 DUP7 SUB SLT ISZERO PUSH2 0x104F JUMPI PUSH2 0x104E PUSH2 0xF05 JUMP JUMPDEST JUMPDEST PUSH1 0x0 PUSH2 0x105D DUP7 DUP3 DUP8 ADD PUSH2 0xF58 JUMP JUMPDEST SWAP4 POP POP PUSH1 0x20 DUP5 ADD CALLDATALOAD PUSH8 0xFFFFFFFFFFFFFFFF DUP2 GT ISZERO PUSH2 0x107E JUMPI PUSH2 0x107D PUSH2 0xF0A JUMP JUMPDEST JUMPDEST PUSH2 0x108A DUP7 DUP3 DUP8 ADD PUSH2 0xFE0 JUMP JUMPDEST SWAP3 POP SWAP3 POP POP SWAP3 POP SWAP3 POP SWAP3 JUMP JUMPDEST PUSH1 0x0 DUP2 MLOAD SWAP1 POP SWAP2 SWAP1 POP JUMP JUMPDEST PUSH1 0x0 DUP3 DUP3 MSTORE PUSH1 0x20 DUP3 ADD SWAP1 POP SWAP3 SWAP2 POP POP JUMP JUMPDEST PUSH1 0x0 DUP2 SWAP1 POP PUSH1 0x20 DUP3 ADD SWAP1 POP SWAP2 SWAP1 POP JUMP JUMPDEST PUSH2 0x10CB DUP2 PUSH2 0xF2F JUMP JUMPDEST DUP3 MSTORE POP POP JUMP JUMPDEST PUSH1 0x0 PUSH2 0x10DD DUP4 DUP4 PUSH2 0x10C2 JUMP JUMPDEST PUSH1 0x20 DUP4 ADD SWAP1 POP SWAP3 SWAP2 POP POP JUMP JUMPDEST PUSH1 0x0 PUSH1 0x20 DUP3 ADD SWAP1 POP SWAP2 SWAP1 POP JUMP JUMPDEST PUSH1 0x0 PUSH2 0x1101 DUP3 PUSH2 0x1096 JUMP JUMPDEST PUSH2 0x110B DUP2 DUP6 PUSH2 0x10A1 JUMP JUMPDEST SWAP4 POP PUSH2 0x1116 DUP4 PUSH2 0x10B2 JUMP JUMPDEST DUP1 PUSH1 0x0 JUMPDEST DUP4 DUP2 LT ISZERO PUSH2 0x1147 JUMPI DUP2 MLOAD PUSH2 0x112E DUP9 DUP3 PUSH2 0x10D1 JUMP JUMPDEST SWAP8 POP PUSH2 0x1139 DUP4 PUSH2 0x10E9 JUMP JUMPDEST SWAP3 POP POP PUSH1 0x1 DUP2 ADD SWAP1 POP PUSH2 0x111A JUMP JUMPDEST POP DUP6 SWAP4 POP POP POP POP SWAP3 SWAP2 POP POP JUMP JUMPDEST PUSH1 0x0 PUSH1 0x20 DUP3 ADD SWAP1 POP DUP2 DUP2 SUB PUSH1 0x0 DUP4 ADD MSTORE PUSH2 0x116E DUP2 DUP5 PUSH2 0x10F6 JUMP JUMPDEST SWAP1 POP SWAP3 SWAP2 POP POP JUMP JUMPDEST PUSH1 0x0 DUP2 SWAP1 POP SWAP2 SWAP1 POP JUMP JUMPDEST PUSH2 0x1189 DUP2 PUSH2 0x1176 JUMP JUMPDEST DUP2 EQ PUSH2 0x1194 JUMPI PUSH1 0x0 DUP1 REVERT JUMPDEST POP JUMP JUMPDEST PUSH1 0x0 DUP2 CALLDATALOAD SWAP1 POP PUSH2 0x11A6 DUP2 PUSH2 0x1180 JUMP JUMPDEST SWAP3 SWAP2 POP POP JUMP JUMPDEST PUSH1 0x0 PUSH1 0x20 DUP3 DUP5 SUB SLT ISZERO PUSH2 0x11C2 JUMPI PUSH2 0x11C1 PUSH2 0xF05 JUMP JUMPDEST JUMPDEST PUSH1 0x0 PUSH2 0x11D0 DUP5 DUP3 DUP6 ADD PUSH2 0x1197 JUMP JUMPDEST SWAP2 POP POP SWAP3 SWAP2 POP POP JUMP JUMPDEST PUSH2 0x11E2 DUP2 PUSH2 0xF2F JUMP JUMPDEST DUP3 MSTORE POP POP JUMP JUMPDEST PUSH1 0x0 PUSH1 0x20 DUP3 ADD SWAP1 POP PUSH2 0x11FD PUSH1 0x0 DUP4 ADD DUP5 PUSH2 0x11D9 JUMP JUMPDEST SWAP3 SWAP2 POP POP JUMP JUMPDEST PUSH1 0x0 PUSH4 0xFFFFFFFF DUP3 AND SWAP1 POP SWAP2 SWAP1 POP JUMP JUMPDEST PUSH2 0x121C DUP2 PUSH2 0x1203 JUMP JUMPDEST DUP3 MSTORE POP POP JUMP JUMPDEST PUSH1 0x0 PUSH1 0x20 DUP3 ADD SWAP1 POP PUSH2 0x1237 PUSH1 0x0 DUP4 ADD DUP5 PUSH2 0x1213 JUMP JUMPDEST SWAP3 SWAP2 POP POP JUMP JUMPDEST PUSH2 0x1246 DUP2 PUSH2 0x1176 JUMP JUMPDEST DUP3 MSTORE POP POP JUMP JUMPDEST PUSH1 0x0 PUSH1 0x20 DUP3 ADD SWAP1 POP PUSH2 0x1261 PUSH1 0x0 DUP4 ADD DUP5 PUSH2 0x123D JUMP JUMPDEST SWAP3 SWAP2 POP POP JUMP JUMPDEST PUSH1 0x0 DUP2 MLOAD SWAP1 POP SWAP2 SWAP1 POP JUMP JUMPDEST PUSH1 0x0 DUP3 DUP3 MSTORE PUSH1 0x20 DUP3 ADD SWAP1 POP SWAP3 SWAP2 POP POP JUMP JUMPDEST PUSH1 0x0 DUP2 SWAP1 POP PUSH1 0x20 DUP3 ADD SWAP1 POP SWAP2 SWAP1 POP JUMP JUMPDEST PUSH1 0x0 DUP3 DUP3 MSTORE PUSH1 0x20 DUP3 ADD SWAP1 POP SWAP3 SWAP2 POP POP JUMP JUMPDEST PUSH1 0x0 PUSH2 0x12AF DUP3 PUSH2 0xE49 JUMP JUMPDEST PUSH2 0x12B9 DUP2 DUP6 PUSH2 0x1293 JUMP JUMPDEST SWAP4 POP PUSH2 0x12C9 DUP2 DUP6 PUSH1 0x20 DUP7 ADD PUSH2 0xE65 JUMP JUMPDEST PUSH2 0x12D2 DUP2 PUSH2 0xE8F JUMP JUMPDEST DUP5 ADD SWAP2 POP POP SWAP3 SWAP2 POP POP JUMP JUMPDEST PUSH1 0x0 PUSH2 0x12E9 DUP4 DUP4 PUSH2 0x12A4 JUMP JUMPDEST SWAP1 POP SWAP3 SWAP2 POP POP JUMP JUMPDEST PUSH1 0x0 PUSH1 0x20 DUP3 ADD SWAP1 POP SWAP2 SWAP1 POP JUMP JUMPDEST PUSH1 0x0 PUSH2 0x1309 DUP3 PUSH2 0x1267 JUMP JUMPDEST PUSH2 0x1313 DUP2 DUP6 PUSH2 0x1272 JUMP JUMPDEST SWAP4 POP DUP4 PUSH1 0x20 DUP3 MUL DUP6 ADD PUSH2 0x1325 DUP6 PUSH2 0x1283 JUMP JUMPDEST DUP1 PUSH1 0x0 JUMPDEST DUP6 DUP2 LT ISZERO PUSH2 0x1361 JUMPI DUP5 DUP5 SUB DUP10 MSTORE DUP2 MLOAD PUSH2 0x1342 DUP6 DUP3 PUSH2 0x12DD JUMP JUMPDEST SWAP5 POP PUSH2 0x134D DUP4 PUSH2 0x12F1 JUMP JUMPDEST SWAP3 POP PUSH1 0x20 DUP11 ADD SWAP10 POP POP PUSH1 0x1 DUP2 ADD SWAP1 POP PUSH2 0x1329 JUMP JUMPDEST POP DUP3 SWAP8 POP DUP8 SWAP6 POP POP POP POP POP POP SWAP3 SWAP2 POP POP JUMP JUMPDEST PUSH1 0x0 PUSH1 0x20 DUP3 ADD SWAP1 POP DUP2 DUP2 SUB PUSH1 0x0 DUP4 ADD MSTORE PUSH2 0x138D DUP2 DUP5 PUSH2 0x12FE JUMP JUMPDEST SWAP1 POP SWAP3 SWAP2 POP POP JUMP JUMPDEST PUSH1 0x0 DUP2 ISZERO ISZERO SWAP1 POP SWAP2 SWAP1 POP JUMP JUMPDEST PUSH2 0x13AA DUP2 PUSH2 0x1395 JUMP JUMPDEST DUP3 MSTORE POP POP JUMP JUMPDEST PUSH1 0x0 PUSH1 0x20 DUP3 ADD SWAP1 POP PUSH2 0x13C5 PUSH1 0x0 DUP4 ADD DUP5 PUSH2 0x13A1 JUMP JUMPDEST SWAP3 SWAP2 POP POP JUMP JUMPDEST PUSH32 0x4E487B7100000000000000000000000000000000000000000000000000000000 PUSH1 0x0 MSTORE PUSH1 0x22 PUSH1 0x4 MSTORE PUSH1 0x24 PUSH1 0x0 REVERT JUMPDEST PUSH1 0x0 PUSH1 0x2 DUP3 DIV SWAP1 POP PUSH1 0x1 DUP3 AND DUP1 PUSH2 0x1412 JUMPI PUSH1 0x7F DUP3 AND SWAP2 POP JUMPDEST PUSH1 0x20 DUP3 LT DUP2 SUB PUSH2 0x1425 JUMPI PUSH2 0x1424 PUSH2 0x13CB JUMP JUMPDEST JUMPDEST POP SWAP2 SWAP1 POP JUMP JUMPDEST PUSH32 0x526571756972656420746F2062652061206D656D656265720000000000000000 PUSH1 0x0 DUP3 ADD MSTORE POP JUMP JUMPDEST PUSH1 0x0 PUSH2 0x1461 PUSH1 0x18 DUP4 PUSH2 0xE54 JUMP JUMPDEST SWAP2 POP PUSH2 0x146C DUP3 PUSH2 0x142B JUMP JUMPDEST PUSH1 0x20 DUP3 ADD SWAP1 POP SWAP2 SWAP1 POP JUMP JUMPDEST PUSH1 0x0 PUSH1 0x20 DUP3 ADD SWAP1 POP DUP2 DUP2 SUB PUSH1 0x0 DUP4 ADD MSTORE PUSH2 0x1490 DUP2 PUSH2 0x1454 JUMP JUMPDEST SWAP1 POP SWAP2 SWAP1 POP JUMP JUMPDEST PUSH1 0x0 DUP2 MLOAD SWAP1 POP PUSH2 0x14A6 DUP2 PUSH2 0x1180 JUMP JUMPDEST SWAP3 SWAP2 POP POP JUMP JUMPDEST PUSH1 0x0 PUSH1 0x20 DUP3 DUP5 SUB SLT ISZERO PUSH2 0x14C2 JUMPI PUSH2 0x14C1 PUSH2 0xF05 JUMP JUMPDEST JUMPDEST PUSH1 0x0 PUSH2 0x14D0 DUP5 DUP3 DUP6 ADD PUSH2 0x1497 JUMP JUMPDEST SWAP2 POP POP SWAP3 SWAP2 POP POP JUMP JUMPDEST PUSH32 0x546F20736F6F6E20746F20656E6420766F746500000000000000000000000000 PUSH1 0x0 DUP3 ADD MSTORE POP JUMP JUMPDEST PUSH1 0x0 PUSH2 0x150F PUSH1 0x13 DUP4 PUSH2 0xE54 JUMP JUMPDEST SWAP2 POP PUSH2 0x151A DUP3 PUSH2 0x14D9 JUMP JUMPDEST PUSH1 0x20 DUP3 ADD SWAP1 POP SWAP2 SWAP1 POP JUMP JUMPDEST PUSH1 0x0 PUSH1 0x20 DUP3 ADD SWAP1 POP DUP2 DUP2 SUB PUSH1 0x0 DUP4 ADD MSTORE PUSH2 0x153E DUP2 PUSH2 0x1502 JUMP JUMPDEST SWAP1 POP SWAP2 SWAP1 POP JUMP JUMPDEST PUSH32 0x4E487B7100000000000000000000000000000000000000000000000000000000 PUSH1 0x0 MSTORE PUSH1 0x12 PUSH1 0x4 MSTORE PUSH1 0x24 PUSH1 0x0 REVERT JUMPDEST PUSH32 0x4E487B7100000000000000000000000000000000000000000000000000000000 PUSH1 0x0 MSTORE PUSH1 0x11 PUSH1 0x4 MSTORE PUSH1 0x24 PUSH1 0x0 REVERT JUMPDEST PUSH1 0x0 PUSH2 0x15AE DUP3 PUSH2 0x1176 JUMP JUMPDEST SWAP2 POP PUSH2 0x15B9 DUP4 PUSH2 0x1176 JUMP JUMPDEST SWAP3 POP DUP3 PUSH2 0x15C9 JUMPI PUSH2 0x15C8 PUSH2 0x1545 JUMP JUMPDEST JUMPDEST DUP3 DUP3 DIV SWAP1 POP SWAP3 SWAP2 POP POP JUMP JUMPDEST PUSH1 0x0 PUSH2 0x15DF DUP3 PUSH2 0x1176 JUMP JUMPDEST SWAP2 POP PUSH2 0x15EA DUP4 PUSH2 0x1176 JUMP JUMPDEST SWAP3 POP DUP3 DUP3 MUL PUSH2 0x15F8 DUP2 PUSH2 0x1176 JUMP JUMPDEST SWAP2 POP DUP3 DUP3 DIV DUP5 EQ DUP4 ISZERO OR PUSH2 0x160F JUMPI PUSH2 0x160E PUSH2 0x1574 JUMP JUMPDEST JUMPDEST POP SWAP3 SWAP2 POP POP JUMP JUMPDEST PUSH32 0x496E76616C6964206E756D626572206F6620766F746573206F722070726F6365 PUSH1 0x0 DUP3 ADD MSTORE PUSH32 0x65642E0000000000000000000000000000000000000000000000000000000000 PUSH1 0x20 DUP3 ADD MSTORE POP JUMP JUMPDEST PUSH1 0x0 PUSH2 0x1672 PUSH1 0x23 DUP4 PUSH2 0xE54 JUMP JUMPDEST SWAP2 POP PUSH2 0x167D DUP3 PUSH2 0x1616 JUMP JUMPDEST PUSH1 0x40 DUP3 ADD SWAP1 POP SWAP2 SWAP1 POP JUMP JUMPDEST PUSH1 0x0 PUSH1 0x20 DUP3 ADD SWAP1 POP DUP2 DUP2 SUB PUSH1 0x0 DUP4 ADD MSTORE PUSH2 0x16A1 DUP2 PUSH2 0x1665 JUMP JUMPDEST SWAP1 POP SWAP2 SWAP1 POP JUMP JUMPDEST PUSH32 0x4E487B7100000000000000000000000000000000000000000000000000000000 PUSH1 0x0 MSTORE PUSH1 0x41 PUSH1 0x4 MSTORE PUSH1 0x24 PUSH1 0x0 REVERT JUMPDEST PUSH2 0x16E0 DUP3 PUSH2 0xE8F JUMP JUMPDEST DUP2 ADD DUP2 DUP2 LT PUSH8 0xFFFFFFFFFFFFFFFF DUP3 GT OR ISZERO PUSH2 0x16FF JUMPI PUSH2 0x16FE PUSH2 0x16A8 JUMP JUMPDEST JUMPDEST DUP1 PUSH1 0x40 MSTORE POP POP POP JUMP JUMPDEST PUSH1 0x0 PUSH2 0x1712 PUSH2 0xEFB JUMP JUMPDEST SWAP1 POP PUSH2 0x171E DUP3 DUP3 PUSH2 0x16D7 JUMP JUMPDEST SWAP2 SWAP1 POP JUMP JUMPDEST PUSH1 0x0 PUSH8 0xFFFFFFFFFFFFFFFF DUP3 GT ISZERO PUSH2 0x173E JUMPI PUSH2 0x173D PUSH2 0x16A8 JUMP JUMPDEST JUMPDEST PUSH1 0x20 DUP3 MUL SWAP1 POP PUSH1 0x20 DUP2 ADD SWAP1 POP SWAP2 SWAP1 POP JUMP JUMPDEST PUSH1 0x0 DUP2 MLOAD SWAP1 POP PUSH2 0x175E DUP2 PUSH2 0xF41 JUMP JUMPDEST SWAP3 SWAP2 POP POP JUMP JUMPDEST PUSH1 0x0 PUSH2 0x1777 PUSH2 0x1772 DUP5 PUSH2 0x1723 JUMP JUMPDEST PUSH2 0x1708 JUMP JUMPDEST SWAP1 POP DUP1 DUP4 DUP3 MSTORE PUSH1 0x20 DUP3 ADD SWAP1 POP PUSH1 0x20 DUP5 MUL DUP4 ADD DUP6 DUP2 GT ISZERO PUSH2 0x179A JUMPI PUSH2 0x1799 PUSH2 0xFDB JUMP JUMPDEST JUMPDEST DUP4 JUMPDEST DUP2 DUP2 LT ISZERO PUSH2 0x17C3 JUMPI DUP1 PUSH2 0x17AF DUP9 DUP3 PUSH2 0x174F JUMP JUMPDEST DUP5 MSTORE PUSH1 0x20 DUP5 ADD SWAP4 POP POP PUSH1 0x20 DUP2 ADD SWAP1 POP PUSH2 0x179C JUMP JUMPDEST POP POP POP SWAP4 SWAP3 POP POP POP JUMP JUMPDEST PUSH1 0x0 DUP3 PUSH1 0x1F DUP4 ADD SLT PUSH2 0x17E2 JUMPI PUSH2 0x17E1 PUSH2 0xFD1 JUMP JUMPDEST JUMPDEST DUP2 MLOAD PUSH2 0x17F2 DUP5 DUP3 PUSH1 0x20 DUP7 ADD PUSH2 0x1764 JUMP JUMPDEST SWAP2 POP POP SWAP3 SWAP2 POP POP JUMP JUMPDEST PUSH1 0x0 PUSH1 0x20 DUP3 DUP5 SUB SLT ISZERO PUSH2 0x1811 JUMPI PUSH2 0x1810 PUSH2 0xF05 JUMP JUMPDEST JUMPDEST PUSH1 0x0 DUP3 ADD MLOAD PUSH8 0xFFFFFFFFFFFFFFFF DUP2 GT ISZERO PUSH2 0x182F JUMPI PUSH2 0x182E PUSH2 0xF0A JUMP JUMPDEST JUMPDEST PUSH2 0x183B DUP5 DUP3 DUP6 ADD PUSH2 0x17CD JUMP JUMPDEST SWAP2 POP POP SWAP3 SWAP2 POP POP JUMP JUMPDEST PUSH32 0x416C726561647920766F74656400000000000000000000000000000000000000 PUSH1 0x0 DUP3 ADD MSTORE POP JUMP JUMPDEST PUSH1 0x0 PUSH2 0x187A PUSH1 0xD DUP4 PUSH2 0xE54 JUMP JUMPDEST SWAP2 POP PUSH2 0x1885 DUP3 PUSH2 0x1844 JUMP JUMPDEST PUSH1 0x20 DUP3 ADD SWAP1 POP SWAP2 SWAP1 POP JUMP JUMPDEST PUSH1 0x0 PUSH1 0x20 DUP3 ADD SWAP1 POP DUP2 DUP2 SUB PUSH1 0x0 DUP4 ADD MSTORE PUSH2 0x18A9 DUP2 PUSH2 0x186D JUMP JUMPDEST SWAP1 POP SWAP2 SWAP1 POP JUMP JUMPDEST PUSH1 0x0 DUP2 SWAP1 POP SWAP2 SWAP1 POP JUMP JUMPDEST PUSH1 0x0 PUSH2 0x18C5 DUP3 PUSH2 0x18B0 JUMP JUMPDEST SWAP2 POP PUSH2 0x18D0 DUP4 PUSH2 0x18B0 JUMP JUMPDEST SWAP3 POP DUP3 DUP3 ADD SWAP1 POP DUP3 DUP2 SLT ISZERO PUSH1 0x0 DUP4 SLT AND DUP4 DUP3 SLT PUSH1 0x0 DUP5 SLT ISZERO AND OR ISZERO PUSH2 0x18F8 JUMPI PUSH2 0x18F7 PUSH2 0x1574 JUMP JUMPDEST JUMPDEST SWAP3 SWAP2 POP POP JUMP INVALID LOG2 PUSH5 0x6970667358 0x22 SLT KECCAK256 0x1F BLOCKHASH SWAP3 NUMBER DUP4 SWAP12 0xE7 0xCD 0xCE COINBASE SGT SWAP11 0xCC 0xCC PUSH1 0x3D 0xD PUSH32 0xDAFDA49FBF4588DF2900C340A4064736F6C6343000811003300000000000000 "},"gasEstimates":{"creation":{"codeDepositCost":"1290400","executionCost":"infinite","totalCost":"infinite"},"external":{"admitApplicant(address)":"infinite","applicantPoolAddress()":"2558","dismissMemberReport(address)":"3075","getApplicants()":"infinite","getMemberCount()":"2534","getMemberRep(address)":"697","getMemberReports(address)":"infinite","getMembers()":"infinite","highlightReport(address,string)":"3289","increaseMemberRep(address)":"infinite","isMember(address)":"2905","longSummary()":"infinite","members(uint256)":"5001","name()":"infinite","reportMember(address,string)":"954","shortSummary()":"infinite"}},"methodIdentifiers":{"admitApplicant(address)":"1ee503fd","applicantPoolAddress()":"af1fca09","dismissMemberReport(address)":"cef025ac","getApplicants()":"455772d2","getMemberCount()":"997072f7","getMemberRep(address)":"146b551d","getMemberReports(address)":"9e5f59f9","getMembers()":"9eab5253","highlightReport(address,string)":"15866836","increaseMemberRep(address)":"9a4d383e","isMember(address)":"a230c524","longSummary()":"9c0ab105","members(uint256)":"5daf08ca","name()":"06fdde03","reportMember(address,string)":"70586013","shortSummary()":"ca505a5b"}},"storageLayout":{"storage":[{"astId":782,"contract":"MemberPool.sol:MemberPool","label":"name","offset":0,"slot":"0","type":"t_string_storage"},{"astId":784,"contract":"MemberPool.sol:MemberPool","label":"shortSummary","offset":0,"slot":"1","type":"t_string_storage"},{"astId":786,"contract":"MemberPool.sol:MemberPool","label":"longSummary","offset":0,"slot":"2","type":"t_string_storage"},{"astId":789,"contract":"MemberPool.sol:MemberPool","label":"members","offset":0,"slot":"3","type":"t_array(t_address)dyn_storage"},{"astId":793,"contract":"MemberPool.sol:MemberPool","label":"memberActive","offset":0,"slot":"4","type":"t_mapping(t_address,t_bool)"},{"astId":796,"contract":"MemberPool.sol:MemberPool","label":"projects","offset":0,"slot":"5","type":"t_array(t_address)dyn_storage"},{"astId":800,"contract":"MemberPool.sol:MemberPool","label":"userToMemberUp","offset":0,"slot":"6","type":"t_mapping(t_address,t_address)"},{"astId":804,"contract":"MemberPool.sol:MemberPool","label":"memberPoints","offset":0,"slot":"7","type":"t_mapping(t_address,t_int256)"},{"astId":806,"contract":"MemberPool.sol:MemberPool","label":"applicantPoolAddress","offset":0,"slot":"8","type":"t_address"}],"types":{"t_address":{"encoding":"inplace","label":"address","numberOfBytes":"20"},"t_array(t_address)dyn_storage":{"base":"t_address","encoding":"dynamic_array","label":"address[]","numberOfBytes":"32"},"t_bool":{"encoding":"inplace","label":"bool","numberOfBytes":"1"},"t_int256":{"encoding":"inplace","label":"int256","numberOfBytes":"32"},"t_mapping(t_address,t_address)":{"encoding":"mapping","key":"t_address","label":"mapping(address => address)","numberOfBytes":"32","value":"t_address"},"t_mapping(t_address,t_bool)":{"encoding":"mapping","key":"t_address","label":"mapping(address => bool)","numberOfBytes":"32","value":"t_bool"},"t_mapping(t_address,t_int256)":{"encoding":"mapping","key":"t_address","label":"mapping(address => int256)","numberOfBytes":"32","value":"t_int256"},"t_string_storage":{"encoding":"bytes","label":"string","numberOfBytes":"32"}}},"userdoc":{"kind":"user","methods":{},"version":1}}