{"abi":[{"inputs":[{"internalType":"address","name":"_creator","type":"address"},{"internalType":"string","name":"_name","type":"string"},{"internalType":"address","name":"memMap","type":"address"}],"stateMutability":"nonpayable","type":"constructor"},{"anonymous":false,"inputs":[{"indexed":false,"internalType":"address","name":"sender","type":"address"}],"name":"MemberCreated","type":"event"},{"anonymous":false,"inputs":[{"indexed":false,"internalType":"address","name":"sender","type":"address"}],"name":"MemberPunished","type":"event"},{"anonymous":false,"inputs":[{"indexed":false,"internalType":"address","name":"member","type":"address"}],"name":"MemberReportUpdate","type":"event"},{"anonymous":false,"inputs":[{"indexed":false,"internalType":"address","name":"sender","type":"address"}],"name":"MemberRewarded","type":"event"},{"anonymous":false,"inputs":[{"indexed":false,"internalType":"address","name":"sender","type":"address"}],"name":"VoteAgainstMemberEnd","type":"event"},{"anonymous":false,"inputs":[{"indexed":false,"internalType":"address","name":"sender","type":"address"}],"name":"VoteAgainstMemberStart","type":"event"},{"inputs":[{"internalType":"address","name":"applicant","type":"address"}],"name":"admitApplicant","outputs":[],"stateMutability":"nonpayable","type":"function"},{"inputs":[],"name":"applicantPoolAddress","outputs":[{"internalType":"address","name":"","type":"address"}],"stateMutability":"view","type":"function"},{"inputs":[],"name":"creator","outputs":[{"internalType":"address","name":"","type":"address"}],"stateMutability":"view","type":"function"},{"inputs":[{"internalType":"address","name":"member","type":"address"}],"name":"dismissMemberReport","outputs":[],"stateMutability":"nonpayable","type":"function"},{"inputs":[],"name":"getApplicants","outputs":[{"internalType":"address[]","name":"","type":"address[]"}],"stateMutability":"view","type":"function"},{"inputs":[],"name":"getMemberCount","outputs":[{"internalType":"uint256","name":"","type":"uint256"}],"stateMutability":"view","type":"function"},{"inputs":[{"internalType":"address","name":"member","type":"address"}],"name":"getMemberRep","outputs":[{"internalType":"int32","name":"","type":"int32"}],"stateMutability":"view","type":"function"},{"inputs":[{"internalType":"address","name":"member","type":"address"}],"name":"getMemberReports","outputs":[{"internalType":"string[]","name":"","type":"string[]"}],"stateMutability":"view","type":"function"},{"inputs":[],"name":"getMembers","outputs":[{"internalType":"address[]","name":"","type":"address[]"}],"stateMutability":"view","type":"function"},{"inputs":[{"internalType":"address","name":"member","type":"address"},{"internalType":"string","name":"comment","type":"string"}],"name":"highlightReport","outputs":[],"stateMutability":"nonpayable","type":"function"},{"inputs":[{"internalType":"address","name":"member","type":"address"}],"name":"increaseMemberRep","outputs":[],"stateMutability":"nonpayable","type":"function"},{"inputs":[{"internalType":"address","name":"id","type":"address"}],"name":"isMember","outputs":[{"internalType":"bool","name":"","type":"bool"}],"stateMutability":"view","type":"function"},{"inputs":[],"name":"longSummary","outputs":[{"internalType":"string","name":"","type":"string"}],"stateMutability":"view","type":"function"},{"inputs":[{"internalType":"address","name":"","type":"address"}],"name":"memberActive","outputs":[{"internalType":"bool","name":"","type":"bool"}],"stateMutability":"view","type":"function"},{"inputs":[],"name":"memberMapAddress","outputs":[{"internalType":"address","name":"","type":"address"}],"stateMutability":"view","type":"function"},{"inputs":[{"internalType":"address","name":"","type":"address"}],"name":"memberPoints","outputs":[{"internalType":"int256","name":"","type":"int256"}],"stateMutability":"view","type":"function"},{"inputs":[{"internalType":"uint256","name":"","type":"uint256"}],"name":"members","outputs":[{"internalType":"address","name":"","type":"address"}],"stateMutability":"view","type":"function"},{"inputs":[],"name":"name","outputs":[{"internalType":"string","name":"","type":"string"}],"stateMutability":"view","type":"function"},{"inputs":[{"internalType":"uint256","name":"","type":"uint256"}],"name":"projects","outputs":[{"internalType":"address","name":"","type":"address"}],"stateMutability":"view","type":"function"},{"inputs":[{"internalType":"address","name":"member","type":"address"},{"internalType":"string","name":"report","type":"string"}],"name":"reportMember","outputs":[{"internalType":"uint32","name":"","type":"uint32"}],"stateMutability":"view","type":"function"},{"inputs":[],"name":"shortSummary","outputs":[{"internalType":"string","name":"","type":"string"}],"stateMutability":"view","type":"function"},{"inputs":[{"internalType":"address","name":"","type":"address"}],"name":"userToMemberUp","outputs":[{"internalType":"address","name":"","type":"address"}],"stateMutability":"view","type":"function"}],"devdoc":{"kind":"dev","methods":{},"version":1},"evm":{"assembly":"    /* \"MemberPool.sol\":94:3316  contract MemberPool {... */\n  mstore(0x40, 0x80)\n    /* \"MemberPool.sol\":822:1197  constructor(... */\n  callvalue\n  dup1\n  iszero\n  tag_1\n  jumpi\n  0x00\n  dup1\n  revert\ntag_1:\n  pop\n  mload(0x40)\n  sub(codesize, bytecodeSize)\n  dup1\n  bytecodeSize\n  dup4\n  codecopy\n  dup2\n  dup2\n  add\n  0x40\n  mstore\n  dup2\n  add\n  swap1\n  tag_2\n  swap2\n  swap1\n  tag_3\n  jump\t// in\ntag_2:\n    /* \"MemberPool.sol\":944:952  _creator */\n  dup3\n    /* \"MemberPool.sol\":934:941  creator */\n  0x09\n  0x00\n    /* \"MemberPool.sol\":934:952  creator = _creator */\n  0x0100\n  exp\n  dup2\n  sload\n  dup2\n  0xffffffffffffffffffffffffffffffffffffffff\n  mul\n  not\n  and\n  swap1\n  dup4\n  0xffffffffffffffffffffffffffffffffffffffff\n  and\n  mul\n  or\n  swap1\n  sstore\n  pop\n    /* \"MemberPool.sol\":970:975  _name */\n  dup2\n    /* \"MemberPool.sol\":963:967  name */\n  0x00\n    /* \"MemberPool.sol\":963:975  name = _name */\n  swap1\n  dup2\n  tag_6\n  swap2\n  swap1\n  tag_7\n  jump\t// in\ntag_6:\n  pop\n    /* \"MemberPool.sol\":1049:1055  memMap */\n  dup1\n    /* \"MemberPool.sol\":1065:1069  this */\n  address\n    /* \"MemberPool.sol\":1031:1071  new ApplicantPool(memMap, address(this)) */\n  mload(0x40)\n  tag_8\n  swap1\n  tag_9\n  jump\t// in\ntag_8:\n  tag_10\n  swap3\n  swap2\n  swap1\n  tag_11\n  jump\t// in\ntag_10:\n  mload(0x40)\n  dup1\n  swap2\n  sub\n  swap1\n  0x00\n  create\n  dup1\n  iszero\n  dup1\n  iszero\n  tag_12\n  jumpi\n  returndatasize\n  0x00\n  dup1\n  returndatacopy\n  revert(0x00, returndatasize)\ntag_12:\n  pop\n    /* \"MemberPool.sol\":986:1006  applicantPoolAddress */\n  0x08\n  0x00\n    /* \"MemberPool.sol\":986:1082  applicantPoolAddress = address(... */\n  0x0100\n  exp\n  dup2\n  sload\n  dup2\n  0xffffffffffffffffffffffffffffffffffffffff\n  mul\n  not\n  and\n  swap1\n  dup4\n  0xffffffffffffffffffffffffffffffffffffffff\n  and\n  mul\n  or\n  swap1\n  sstore\n  pop\n    /* \"MemberPool.sol\":1117:1121  true */\n  0x01\n    /* \"MemberPool.sol\":1093:1105  memberActive */\n  0x04\n    /* \"MemberPool.sol\":1093:1114  memberActive[creator] */\n  0x00\n    /* \"MemberPool.sol\":1106:1113  creator */\n  0x09\n  0x00\n  swap1\n  sload\n  swap1\n  0x0100\n  exp\n  swap1\n  div\n  0xffffffffffffffffffffffffffffffffffffffff\n  and\n    /* \"MemberPool.sol\":1093:1114  memberActive[creator] */\n  0xffffffffffffffffffffffffffffffffffffffff\n  and\n  0xffffffffffffffffffffffffffffffffffffffff\n  and\n  dup2\n  mstore\n  0x20\n  add\n  swap1\n  dup2\n  mstore\n  0x20\n  add\n  0x00\n  keccak256\n  0x00\n    /* \"MemberPool.sol\":1093:1121  memberActive[creator] = true */\n  0x0100\n  exp\n  dup2\n  sload\n  dup2\n  0xff\n  mul\n  not\n  and\n  swap1\n  dup4\n  iszero\n  iszero\n  mul\n  or\n  swap1\n  sstore\n  pop\n    /* \"MemberPool.sol\":1132:1139  members */\n  0x03\n    /* \"MemberPool.sol\":1145:1152  creator */\n  0x09\n  0x00\n  swap1\n  sload\n  swap1\n  0x0100\n  exp\n  swap1\n  div\n  0xffffffffffffffffffffffffffffffffffffffff\n  and\n    /* \"MemberPool.sol\":1132:1153  members.push(creator) */\n  swap1\n  dup1\n  0x01\n  dup2\n  sload\n  add\n  dup1\n  dup3\n  sstore\n  dup1\n  swap2\n  pop\n  pop\n  0x01\n  swap1\n  sub\n  swap1\n  0x00\n  mstore\n  keccak256(0x00, 0x20)\n  add\n  0x00\n  swap1\n  swap2\n  swap1\n  swap2\n  swap1\n  swap2\n  0x0100\n  exp\n  dup2\n  sload\n  dup2\n  0xffffffffffffffffffffffffffffffffffffffff\n  mul\n  not\n  and\n  swap1\n  dup4\n  0xffffffffffffffffffffffffffffffffffffffff\n  and\n  mul\n  or\n  swap1\n  sstore\n  pop\n    /* \"MemberPool.sol\":1183:1189  memMap */\n  dup1\n    /* \"MemberPool.sol\":1164:1180  memberMapAddress */\n  0x0a\n  0x00\n    /* \"MemberPool.sol\":1164:1189  memberMapAddress = memMap */\n  0x0100\n  exp\n  dup2\n  sload\n  dup2\n  0xffffffffffffffffffffffffffffffffffffffff\n  mul\n  not\n  and\n  swap1\n  dup4\n  0xffffffffffffffffffffffffffffffffffffffff\n  and\n  mul\n  or\n  swap1\n  sstore\n  pop\n    /* \"MemberPool.sol\":822:1197  constructor(... */\n  pop\n  pop\n  pop\n    /* \"MemberPool.sol\":94:3316  contract MemberPool {... */\n  jump(tag_14)\ntag_9:\n  dataSize(sub_1)\n  dup1\n  dataOffset(sub_1)\n  dup4\n  codecopy\n  add\n  swap1\n  jump\t// out\n    /* \"#utility.yul\":7:82   */\ntag_15:\n    /* \"#utility.yul\":40:46   */\n  0x00\n    /* \"#utility.yul\":73:75   */\n  0x40\n    /* \"#utility.yul\":67:76   */\n  mload\n    /* \"#utility.yul\":57:76   */\n  swap1\n  pop\n    /* \"#utility.yul\":7:82   */\n  swap1\n  jump\t// out\n    /* \"#utility.yul\":88:205   */\ntag_16:\n    /* \"#utility.yul\":197:198   */\n  0x00\n    /* \"#utility.yul\":194:195   */\n  dup1\n    /* \"#utility.yul\":187:199   */\n  revert\n    /* \"#utility.yul\":211:328   */\ntag_17:\n    /* \"#utility.yul\":320:321   */\n  0x00\n    /* \"#utility.yul\":317:318   */\n  dup1\n    /* \"#utility.yul\":310:322   */\n  revert\n    /* \"#utility.yul\":334:460   */\ntag_18:\n    /* \"#utility.yul\":371:378   */\n  0x00\n    /* \"#utility.yul\":411:453   */\n  0xffffffffffffffffffffffffffffffffffffffff\n    /* \"#utility.yul\":404:409   */\n  dup3\n    /* \"#utility.yul\":400:454   */\n  and\n    /* \"#utility.yul\":389:454   */\n  swap1\n  pop\n    /* \"#utility.yul\":334:460   */\n  swap2\n  swap1\n  pop\n  jump\t// out\n    /* \"#utility.yul\":466:562   */\ntag_19:\n    /* \"#utility.yul\":503:510   */\n  0x00\n    /* \"#utility.yul\":532:556   */\n  tag_58\n    /* \"#utility.yul\":550:555   */\n  dup3\n    /* \"#utility.yul\":532:556   */\n  tag_18\n  jump\t// in\ntag_58:\n    /* \"#utility.yul\":521:556   */\n  swap1\n  pop\n    /* \"#utility.yul\":466:562   */\n  swap2\n  swap1\n  pop\n  jump\t// out\n    /* \"#utility.yul\":568:690   */\ntag_20:\n    /* \"#utility.yul\":641:665   */\n  tag_60\n    /* \"#utility.yul\":659:664   */\n  dup2\n    /* \"#utility.yul\":641:665   */\n  tag_19\n  jump\t// in\ntag_60:\n    /* \"#utility.yul\":634:639   */\n  dup2\n    /* \"#utility.yul\":631:666   */\n  eq\n    /* \"#utility.yul\":621:684   */\n  tag_61\n  jumpi\n    /* \"#utility.yul\":680:681   */\n  0x00\n    /* \"#utility.yul\":677:678   */\n  dup1\n    /* \"#utility.yul\":670:682   */\n  revert\n    /* \"#utility.yul\":621:684   */\ntag_61:\n    /* \"#utility.yul\":568:690   */\n  pop\n  jump\t// out\n    /* \"#utility.yul\":696:839   */\ntag_21:\n    /* \"#utility.yul\":753:758   */\n  0x00\n    /* \"#utility.yul\":784:790   */\n  dup2\n    /* \"#utility.yul\":778:791   */\n  mload\n    /* \"#utility.yul\":769:791   */\n  swap1\n  pop\n    /* \"#utility.yul\":800:833   */\n  tag_63\n    /* \"#utility.yul\":827:832   */\n  dup2\n    /* \"#utility.yul\":800:833   */\n  tag_20\n  jump\t// in\ntag_63:\n    /* \"#utility.yul\":696:839   */\n  swap3\n  swap2\n  pop\n  pop\n  jump\t// out\n    /* \"#utility.yul\":845:962   */\ntag_22:\n    /* \"#utility.yul\":954:955   */\n  0x00\n    /* \"#utility.yul\":951:952   */\n  dup1\n    /* \"#utility.yul\":944:956   */\n  revert\n    /* \"#utility.yul\":968:1085   */\ntag_23:\n    /* \"#utility.yul\":1077:1078   */\n  0x00\n    /* \"#utility.yul\":1074:1075   */\n  dup1\n    /* \"#utility.yul\":1067:1079   */\n  revert\n    /* \"#utility.yul\":1091:1193   */\ntag_24:\n    /* \"#utility.yul\":1132:1138   */\n  0x00\n    /* \"#utility.yul\":1183:1185   */\n  0x1f\n    /* \"#utility.yul\":1179:1186   */\n  not\n    /* \"#utility.yul\":1174:1176   */\n  0x1f\n    /* \"#utility.yul\":1167:1172   */\n  dup4\n    /* \"#utility.yul\":1163:1177   */\n  add\n    /* \"#utility.yul\":1159:1187   */\n  and\n    /* \"#utility.yul\":1149:1187   */\n  swap1\n  pop\n    /* \"#utility.yul\":1091:1193   */\n  swap2\n  swap1\n  pop\n  jump\t// out\n    /* \"#utility.yul\":1199:1379   */\ntag_25:\n    /* \"#utility.yul\":1247:1324   */\n  0x4e487b7100000000000000000000000000000000000000000000000000000000\n    /* \"#utility.yul\":1244:1245   */\n  0x00\n    /* \"#utility.yul\":1237:1325   */\n  mstore\n    /* \"#utility.yul\":1344:1348   */\n  0x41\n    /* \"#utility.yul\":1341:1342   */\n  0x04\n    /* \"#utility.yul\":1334:1349   */\n  mstore\n    /* \"#utility.yul\":1368:1372   */\n  0x24\n    /* \"#utility.yul\":1365:1366   */\n  0x00\n    /* \"#utility.yul\":1358:1373   */\n  revert\n    /* \"#utility.yul\":1385:1666   */\ntag_26:\n    /* \"#utility.yul\":1468:1495   */\n  tag_69\n    /* \"#utility.yul\":1490:1494   */\n  dup3\n    /* \"#utility.yul\":1468:1495   */\n  tag_24\n  jump\t// in\ntag_69:\n    /* \"#utility.yul\":1460:1466   */\n  dup2\n    /* \"#utility.yul\":1456:1496   */\n  add\n    /* \"#utility.yul\":1598:1604   */\n  dup2\n    /* \"#utility.yul\":1586:1596   */\n  dup2\n    /* \"#utility.yul\":1583:1605   */\n  lt\n    /* \"#utility.yul\":1562:1580   */\n  0xffffffffffffffff\n    /* \"#utility.yul\":1550:1560   */\n  dup3\n    /* \"#utility.yul\":1547:1581   */\n  gt\n    /* \"#utility.yul\":1544:1606   */\n  or\n    /* \"#utility.yul\":1541:1629   */\n  iszero\n  tag_70\n  jumpi\n    /* \"#utility.yul\":1609:1627   */\n  tag_71\n  tag_25\n  jump\t// in\ntag_71:\n    /* \"#utility.yul\":1541:1629   */\ntag_70:\n    /* \"#utility.yul\":1649:1659   */\n  dup1\n    /* \"#utility.yul\":1645:1647   */\n  0x40\n    /* \"#utility.yul\":1638:1660   */\n  mstore\n    /* \"#utility.yul\":1428:1666   */\n  pop\n    /* \"#utility.yul\":1385:1666   */\n  pop\n  pop\n  jump\t// out\n    /* \"#utility.yul\":1672:1801   */\ntag_27:\n    /* \"#utility.yul\":1706:1712   */\n  0x00\n    /* \"#utility.yul\":1733:1753   */\n  tag_73\n  tag_15\n  jump\t// in\ntag_73:\n    /* \"#utility.yul\":1723:1753   */\n  swap1\n  pop\n    /* \"#utility.yul\":1762:1795   */\n  tag_74\n    /* \"#utility.yul\":1790:1794   */\n  dup3\n    /* \"#utility.yul\":1782:1788   */\n  dup3\n    /* \"#utility.yul\":1762:1795   */\n  tag_26\n  jump\t// in\ntag_74:\n    /* \"#utility.yul\":1672:1801   */\n  swap2\n  swap1\n  pop\n  jump\t// out\n    /* \"#utility.yul\":1807:2115   */\ntag_28:\n    /* \"#utility.yul\":1869:1873   */\n  0x00\n    /* \"#utility.yul\":1959:1977   */\n  0xffffffffffffffff\n    /* \"#utility.yul\":1951:1957   */\n  dup3\n    /* \"#utility.yul\":1948:1978   */\n  gt\n    /* \"#utility.yul\":1945:2001   */\n  iszero\n  tag_76\n  jumpi\n    /* \"#utility.yul\":1981:1999   */\n  tag_77\n  tag_25\n  jump\t// in\ntag_77:\n    /* \"#utility.yul\":1945:2001   */\ntag_76:\n    /* \"#utility.yul\":2019:2048   */\n  tag_78\n    /* \"#utility.yul\":2041:2047   */\n  dup3\n    /* \"#utility.yul\":2019:2048   */\n  tag_24\n  jump\t// in\ntag_78:\n    /* \"#utility.yul\":2011:2048   */\n  swap1\n  pop\n    /* \"#utility.yul\":2103:2107   */\n  0x20\n    /* \"#utility.yul\":2097:2101   */\n  dup2\n    /* \"#utility.yul\":2093:2108   */\n  add\n    /* \"#utility.yul\":2085:2108   */\n  swap1\n  pop\n    /* \"#utility.yul\":1807:2115   */\n  swap2\n  swap1\n  pop\n  jump\t// out\n    /* \"#utility.yul\":2121:2367   */\ntag_29:\n    /* \"#utility.yul\":2202:2203   */\n  0x00\n    /* \"#utility.yul\":2212:2325   */\ntag_80:\n    /* \"#utility.yul\":2226:2232   */\n  dup4\n    /* \"#utility.yul\":2223:2224   */\n  dup2\n    /* \"#utility.yul\":2220:2233   */\n  lt\n    /* \"#utility.yul\":2212:2325   */\n  iszero\n  tag_82\n  jumpi\n    /* \"#utility.yul\":2311:2312   */\n  dup1\n    /* \"#utility.yul\":2306:2309   */\n  dup3\n    /* \"#utility.yul\":2302:2313   */\n  add\n    /* \"#utility.yul\":2296:2314   */\n  mload\n    /* \"#utility.yul\":2292:2293   */\n  dup2\n    /* \"#utility.yul\":2287:2290   */\n  dup5\n    /* \"#utility.yul\":2283:2294   */\n  add\n    /* \"#utility.yul\":2276:2315   */\n  mstore\n    /* \"#utility.yul\":2248:2250   */\n  0x20\n    /* \"#utility.yul\":2245:2246   */\n  dup2\n    /* \"#utility.yul\":2241:2251   */\n  add\n    /* \"#utility.yul\":2236:2251   */\n  swap1\n  pop\n    /* \"#utility.yul\":2212:2325   */\n  jump(tag_80)\ntag_82:\n    /* \"#utility.yul\":2359:2360   */\n  0x00\n    /* \"#utility.yul\":2350:2356   */\n  dup5\n    /* \"#utility.yul\":2345:2348   */\n  dup5\n    /* \"#utility.yul\":2341:2357   */\n  add\n    /* \"#utility.yul\":2334:2361   */\n  mstore\n    /* \"#utility.yul\":2183:2367   */\n  pop\n    /* \"#utility.yul\":2121:2367   */\n  pop\n  pop\n  pop\n  jump\t// out\n    /* \"#utility.yul\":2373:2807   */\ntag_30:\n    /* \"#utility.yul\":2462:2467   */\n  0x00\n    /* \"#utility.yul\":2487:2553   */\n  tag_84\n    /* \"#utility.yul\":2503:2552   */\n  tag_85\n    /* \"#utility.yul\":2545:2551   */\n  dup5\n    /* \"#utility.yul\":2503:2552   */\n  tag_28\n  jump\t// in\ntag_85:\n    /* \"#utility.yul\":2487:2553   */\n  tag_27\n  jump\t// in\ntag_84:\n    /* \"#utility.yul\":2478:2553   */\n  swap1\n  pop\n    /* \"#utility.yul\":2576:2582   */\n  dup3\n    /* \"#utility.yul\":2569:2574   */\n  dup2\n    /* \"#utility.yul\":2562:2583   */\n  mstore\n    /* \"#utility.yul\":2614:2618   */\n  0x20\n    /* \"#utility.yul\":2607:2612   */\n  dup2\n    /* \"#utility.yul\":2603:2619   */\n  add\n    /* \"#utility.yul\":2652:2655   */\n  dup5\n    /* \"#utility.yul\":2643:2649   */\n  dup5\n    /* \"#utility.yul\":2638:2641   */\n  dup5\n    /* \"#utility.yul\":2634:2650   */\n  add\n    /* \"#utility.yul\":2631:2656   */\n  gt\n    /* \"#utility.yul\":2628:2740   */\n  iszero\n  tag_86\n  jumpi\n    /* \"#utility.yul\":2659:2738   */\n  tag_87\n  tag_23\n  jump\t// in\ntag_87:\n    /* \"#utility.yul\":2628:2740   */\ntag_86:\n    /* \"#utility.yul\":2749:2801   */\n  tag_88\n    /* \"#utility.yul\":2794:2800   */\n  dup5\n    /* \"#utility.yul\":2789:2792   */\n  dup3\n    /* \"#utility.yul\":2784:2787   */\n  dup6\n    /* \"#utility.yul\":2749:2801   */\n  tag_29\n  jump\t// in\ntag_88:\n    /* \"#utility.yul\":2468:2807   */\n  pop\n    /* \"#utility.yul\":2373:2807   */\n  swap4\n  swap3\n  pop\n  pop\n  pop\n  jump\t// out\n    /* \"#utility.yul\":2827:3182   */\ntag_31:\n    /* \"#utility.yul\":2894:2899   */\n  0x00\n    /* \"#utility.yul\":2943:2946   */\n  dup3\n    /* \"#utility.yul\":2936:2940   */\n  0x1f\n    /* \"#utility.yul\":2928:2934   */\n  dup4\n    /* \"#utility.yul\":2924:2941   */\n  add\n    /* \"#utility.yul\":2920:2947   */\n  slt\n    /* \"#utility.yul\":2910:3032   */\n  tag_90\n  jumpi\n    /* \"#utility.yul\":2951:3030   */\n  tag_91\n  tag_22\n  jump\t// in\ntag_91:\n    /* \"#utility.yul\":2910:3032   */\ntag_90:\n    /* \"#utility.yul\":3061:3067   */\n  dup2\n    /* \"#utility.yul\":3055:3068   */\n  mload\n    /* \"#utility.yul\":3086:3176   */\n  tag_92\n    /* \"#utility.yul\":3172:3175   */\n  dup5\n    /* \"#utility.yul\":3164:3170   */\n  dup3\n    /* \"#utility.yul\":3157:3161   */\n  0x20\n    /* \"#utility.yul\":3149:3155   */\n  dup7\n    /* \"#utility.yul\":3145:3162   */\n  add\n    /* \"#utility.yul\":3086:3176   */\n  tag_30\n  jump\t// in\ntag_92:\n    /* \"#utility.yul\":3077:3176   */\n  swap2\n  pop\n    /* \"#utility.yul\":2900:3182   */\n  pop\n    /* \"#utility.yul\":2827:3182   */\n  swap3\n  swap2\n  pop\n  pop\n  jump\t// out\n    /* \"#utility.yul\":3188:4024   */\ntag_3:\n    /* \"#utility.yul\":3286:3292   */\n  0x00\n    /* \"#utility.yul\":3294:3300   */\n  dup1\n    /* \"#utility.yul\":3302:3308   */\n  0x00\n    /* \"#utility.yul\":3351:3353   */\n  0x60\n    /* \"#utility.yul\":3339:3348   */\n  dup5\n    /* \"#utility.yul\":3330:3337   */\n  dup7\n    /* \"#utility.yul\":3326:3349   */\n  sub\n    /* \"#utility.yul\":3322:3354   */\n  slt\n    /* \"#utility.yul\":3319:3438   */\n  iszero\n  tag_94\n  jumpi\n    /* \"#utility.yul\":3357:3436   */\n  tag_95\n  tag_16\n  jump\t// in\ntag_95:\n    /* \"#utility.yul\":3319:3438   */\ntag_94:\n    /* \"#utility.yul\":3477:3478   */\n  0x00\n    /* \"#utility.yul\":3502:3566   */\n  tag_96\n    /* \"#utility.yul\":3558:3565   */\n  dup7\n    /* \"#utility.yul\":3549:3555   */\n  dup3\n    /* \"#utility.yul\":3538:3547   */\n  dup8\n    /* \"#utility.yul\":3534:3556   */\n  add\n    /* \"#utility.yul\":3502:3566   */\n  tag_21\n  jump\t// in\ntag_96:\n    /* \"#utility.yul\":3492:3566   */\n  swap4\n  pop\n    /* \"#utility.yul\":3448:3576   */\n  pop\n    /* \"#utility.yul\":3636:3638   */\n  0x20\n    /* \"#utility.yul\":3625:3634   */\n  dup5\n    /* \"#utility.yul\":3621:3639   */\n  add\n    /* \"#utility.yul\":3615:3640   */\n  mload\n    /* \"#utility.yul\":3667:3685   */\n  0xffffffffffffffff\n    /* \"#utility.yul\":3659:3665   */\n  dup2\n    /* \"#utility.yul\":3656:3686   */\n  gt\n    /* \"#utility.yul\":3653:3770   */\n  iszero\n  tag_97\n  jumpi\n    /* \"#utility.yul\":3689:3768   */\n  tag_98\n  tag_17\n  jump\t// in\ntag_98:\n    /* \"#utility.yul\":3653:3770   */\ntag_97:\n    /* \"#utility.yul\":3794:3868   */\n  tag_99\n    /* \"#utility.yul\":3860:3867   */\n  dup7\n    /* \"#utility.yul\":3851:3857   */\n  dup3\n    /* \"#utility.yul\":3840:3849   */\n  dup8\n    /* \"#utility.yul\":3836:3858   */\n  add\n    /* \"#utility.yul\":3794:3868   */\n  tag_31\n  jump\t// in\ntag_99:\n    /* \"#utility.yul\":3784:3868   */\n  swap3\n  pop\n    /* \"#utility.yul\":3586:3878   */\n  pop\n    /* \"#utility.yul\":3917:3919   */\n  0x40\n    /* \"#utility.yul\":3943:4007   */\n  tag_100\n    /* \"#utility.yul\":3999:4006   */\n  dup7\n    /* \"#utility.yul\":3990:3996   */\n  dup3\n    /* \"#utility.yul\":3979:3988   */\n  dup8\n    /* \"#utility.yul\":3975:3997   */\n  add\n    /* \"#utility.yul\":3943:4007   */\n  tag_21\n  jump\t// in\ntag_100:\n    /* \"#utility.yul\":3933:4007   */\n  swap2\n  pop\n    /* \"#utility.yul\":3888:4017   */\n  pop\n    /* \"#utility.yul\":3188:4024   */\n  swap3\n  pop\n  swap3\n  pop\n  swap3\n  jump\t// out\n    /* \"#utility.yul\":4030:4129   */\ntag_32:\n    /* \"#utility.yul\":4082:4088   */\n  0x00\n    /* \"#utility.yul\":4116:4121   */\n  dup2\n    /* \"#utility.yul\":4110:4122   */\n  mload\n    /* \"#utility.yul\":4100:4122   */\n  swap1\n  pop\n    /* \"#utility.yul\":4030:4129   */\n  swap2\n  swap1\n  pop\n  jump\t// out\n    /* \"#utility.yul\":4135:4315   */\ntag_33:\n    /* \"#utility.yul\":4183:4260   */\n  0x4e487b7100000000000000000000000000000000000000000000000000000000\n    /* \"#utility.yul\":4180:4181   */\n  0x00\n    /* \"#utility.yul\":4173:4261   */\n  mstore\n    /* \"#utility.yul\":4280:4284   */\n  0x22\n    /* \"#utility.yul\":4277:4278   */\n  0x04\n    /* \"#utility.yul\":4270:4285   */\n  mstore\n    /* \"#utility.yul\":4304:4308   */\n  0x24\n    /* \"#utility.yul\":4301:4302   */\n  0x00\n    /* \"#utility.yul\":4294:4309   */\n  revert\n    /* \"#utility.yul\":4321:4641   */\ntag_34:\n    /* \"#utility.yul\":4365:4371   */\n  0x00\n    /* \"#utility.yul\":4402:4403   */\n  0x02\n    /* \"#utility.yul\":4396:4400   */\n  dup3\n    /* \"#utility.yul\":4392:4404   */\n  div\n    /* \"#utility.yul\":4382:4404   */\n  swap1\n  pop\n    /* \"#utility.yul\":4449:4450   */\n  0x01\n    /* \"#utility.yul\":4443:4447   */\n  dup3\n    /* \"#utility.yul\":4439:4451   */\n  and\n    /* \"#utility.yul\":4470:4488   */\n  dup1\n    /* \"#utility.yul\":4460:4541   */\n  tag_104\n  jumpi\n    /* \"#utility.yul\":4526:4530   */\n  0x7f\n    /* \"#utility.yul\":4518:4524   */\n  dup3\n    /* \"#utility.yul\":4514:4531   */\n  and\n    /* \"#utility.yul\":4504:4531   */\n  swap2\n  pop\n    /* \"#utility.yul\":4460:4541   */\ntag_104:\n    /* \"#utility.yul\":4588:4590   */\n  0x20\n    /* \"#utility.yul\":4580:4586   */\n  dup3\n    /* \"#utility.yul\":4577:4591   */\n  lt\n    /* \"#utility.yul\":4557:4575   */\n  dup2\n    /* \"#utility.yul\":4554:4592   */\n  sub\n    /* \"#utility.yul\":4551:4635   */\n  tag_105\n  jumpi\n    /* \"#utility.yul\":4607:4625   */\n  tag_106\n  tag_33\n  jump\t// in\ntag_106:\n    /* \"#utility.yul\":4551:4635   */\ntag_105:\n    /* \"#utility.yul\":4372:4641   */\n  pop\n    /* \"#utility.yul\":4321:4641   */\n  swap2\n  swap1\n  pop\n  jump\t// out\n    /* \"#utility.yul\":4647:4788   */\ntag_35:\n    /* \"#utility.yul\":4696:4700   */\n  0x00\n    /* \"#utility.yul\":4719:4722   */\n  dup2\n    /* \"#utility.yul\":4711:4722   */\n  swap1\n  pop\n    /* \"#utility.yul\":4742:4745   */\n  dup2\n    /* \"#utility.yul\":4739:4740   */\n  0x00\n    /* \"#utility.yul\":4732:4746   */\n  mstore\n    /* \"#utility.yul\":4776:4780   */\n  0x20\n    /* \"#utility.yul\":4773:4774   */\n  0x00\n    /* \"#utility.yul\":4763:4781   */\n  keccak256\n    /* \"#utility.yul\":4755:4781   */\n  swap1\n  pop\n    /* \"#utility.yul\":4647:4788   */\n  swap2\n  swap1\n  pop\n  jump\t// out\n    /* \"#utility.yul\":4794:4887   */\ntag_36:\n    /* \"#utility.yul\":4831:4837   */\n  0x00\n    /* \"#utility.yul\":4878:4880   */\n  0x20\n    /* \"#utility.yul\":4873:4875   */\n  0x1f\n    /* \"#utility.yul\":4866:4871   */\n  dup4\n    /* \"#utility.yul\":4862:4876   */\n  add\n    /* \"#utility.yul\":4858:4881   */\n  div\n    /* \"#utility.yul\":4848:4881   */\n  swap1\n  pop\n    /* \"#utility.yul\":4794:4887   */\n  swap2\n  swap1\n  pop\n  jump\t// out\n    /* \"#utility.yul\":4893:5000   */\ntag_37:\n    /* \"#utility.yul\":4937:4945   */\n  0x00\n    /* \"#utility.yul\":4987:4992   */\n  dup3\n    /* \"#utility.yul\":4981:4985   */\n  dup3\n    /* \"#utility.yul\":4977:4993   */\n  shl\n    /* \"#utility.yul\":4956:4993   */\n  swap1\n  pop\n    /* \"#utility.yul\":4893:5000   */\n  swap3\n  swap2\n  pop\n  pop\n  jump\t// out\n    /* \"#utility.yul\":5006:5399   */\ntag_38:\n    /* \"#utility.yul\":5075:5081   */\n  0x00\n    /* \"#utility.yul\":5125:5126   */\n  0x08\n    /* \"#utility.yul\":5113:5123   */\n  dup4\n    /* \"#utility.yul\":5109:5127   */\n  mul\n    /* \"#utility.yul\":5148:5245   */\n  tag_111\n    /* \"#utility.yul\":5178:5244   */\n  0xffffffffffffffffffffffffffffffffffffffffffffffffffffffffffffffff\n    /* \"#utility.yul\":5167:5176   */\n  dup3\n    /* \"#utility.yul\":5148:5245   */\n  tag_37\n  jump\t// in\ntag_111:\n    /* \"#utility.yul\":5266:5305   */\n  tag_112\n    /* \"#utility.yul\":5296:5304   */\n  dup7\n    /* \"#utility.yul\":5285:5294   */\n  dup4\n    /* \"#utility.yul\":5266:5305   */\n  tag_37\n  jump\t// in\ntag_112:\n    /* \"#utility.yul\":5254:5305   */\n  swap6\n  pop\n    /* \"#utility.yul\":5338:5342   */\n  dup1\n    /* \"#utility.yul\":5334:5343   */\n  not\n    /* \"#utility.yul\":5327:5332   */\n  dup5\n    /* \"#utility.yul\":5323:5344   */\n  and\n    /* \"#utility.yul\":5314:5344   */\n  swap4\n  pop\n    /* \"#utility.yul\":5387:5391   */\n  dup1\n    /* \"#utility.yul\":5377:5385   */\n  dup7\n    /* \"#utility.yul\":5373:5392   */\n  and\n    /* \"#utility.yul\":5366:5371   */\n  dup5\n    /* \"#utility.yul\":5363:5393   */\n  or\n    /* \"#utility.yul\":5353:5393   */\n  swap3\n  pop\n    /* \"#utility.yul\":5082:5399   */\n  pop\n  pop\n    /* \"#utility.yul\":5006:5399   */\n  swap4\n  swap3\n  pop\n  pop\n  pop\n  jump\t// out\n    /* \"#utility.yul\":5405:5482   */\ntag_39:\n    /* \"#utility.yul\":5442:5449   */\n  0x00\n    /* \"#utility.yul\":5471:5476   */\n  dup2\n    /* \"#utility.yul\":5460:5476   */\n  swap1\n  pop\n    /* \"#utility.yul\":5405:5482   */\n  swap2\n  swap1\n  pop\n  jump\t// out\n    /* \"#utility.yul\":5488:5548   */\ntag_40:\n    /* \"#utility.yul\":5516:5519   */\n  0x00\n    /* \"#utility.yul\":5537:5542   */\n  dup2\n    /* \"#utility.yul\":5530:5542   */\n  swap1\n  pop\n    /* \"#utility.yul\":5488:5548   */\n  swap2\n  swap1\n  pop\n  jump\t// out\n    /* \"#utility.yul\":5554:5696   */\ntag_41:\n    /* \"#utility.yul\":5604:5613   */\n  0x00\n    /* \"#utility.yul\":5637:5690   */\n  tag_116\n    /* \"#utility.yul\":5655:5689   */\n  tag_117\n    /* \"#utility.yul\":5664:5688   */\n  tag_118\n    /* \"#utility.yul\":5682:5687   */\n  dup5\n    /* \"#utility.yul\":5664:5688   */\n  tag_39\n  jump\t// in\ntag_118:\n    /* \"#utility.yul\":5655:5689   */\n  tag_40\n  jump\t// in\ntag_117:\n    /* \"#utility.yul\":5637:5690   */\n  tag_39\n  jump\t// in\ntag_116:\n    /* \"#utility.yul\":5624:5690   */\n  swap1\n  pop\n    /* \"#utility.yul\":5554:5696   */\n  swap2\n  swap1\n  pop\n  jump\t// out\n    /* \"#utility.yul\":5702:5777   */\ntag_42:\n    /* \"#utility.yul\":5745:5748   */\n  0x00\n    /* \"#utility.yul\":5766:5771   */\n  dup2\n    /* \"#utility.yul\":5759:5771   */\n  swap1\n  pop\n    /* \"#utility.yul\":5702:5777   */\n  swap2\n  swap1\n  pop\n  jump\t// out\n    /* \"#utility.yul\":5783:6052   */\ntag_43:\n    /* \"#utility.yul\":5893:5932   */\n  tag_121\n    /* \"#utility.yul\":5924:5931   */\n  dup4\n    /* \"#utility.yul\":5893:5932   */\n  tag_41\n  jump\t// in\ntag_121:\n    /* \"#utility.yul\":5954:6045   */\n  tag_122\n    /* \"#utility.yul\":6003:6044   */\n  tag_123\n    /* \"#utility.yul\":6027:6043   */\n  dup3\n    /* \"#utility.yul\":6003:6044   */\n  tag_42\n  jump\t// in\ntag_123:\n    /* \"#utility.yul\":5995:6001   */\n  dup5\n    /* \"#utility.yul\":5988:5992   */\n  dup5\n    /* \"#utility.yul\":5982:5993   */\n  sload\n    /* \"#utility.yul\":5954:6045   */\n  tag_38\n  jump\t// in\ntag_122:\n    /* \"#utility.yul\":5948:5952   */\n  dup3\n    /* \"#utility.yul\":5941:6046   */\n  sstore\n    /* \"#utility.yul\":5859:6052   */\n  pop\n    /* \"#utility.yul\":5783:6052   */\n  pop\n  pop\n  pop\n  jump\t// out\n    /* \"#utility.yul\":6058:6131   */\ntag_44:\n    /* \"#utility.yul\":6103:6106   */\n  0x00\n    /* \"#utility.yul\":6058:6131   */\n  swap1\n  jump\t// out\n    /* \"#utility.yul\":6137:6326   */\ntag_45:\n    /* \"#utility.yul\":6214:6246   */\n  tag_126\n  tag_44\n  jump\t// in\ntag_126:\n    /* \"#utility.yul\":6255:6320   */\n  tag_127\n    /* \"#utility.yul\":6313:6319   */\n  dup2\n    /* \"#utility.yul\":6305:6311   */\n  dup5\n    /* \"#utility.yul\":6299:6303   */\n  dup5\n    /* \"#utility.yul\":6255:6320   */\n  tag_43\n  jump\t// in\ntag_127:\n    /* \"#utility.yul\":6190:6326   */\n  pop\n    /* \"#utility.yul\":6137:6326   */\n  pop\n  pop\n  jump\t// out\n    /* \"#utility.yul\":6332:6518   */\ntag_46:\n    /* \"#utility.yul\":6392:6512   */\ntag_129:\n    /* \"#utility.yul\":6409:6412   */\n  dup2\n    /* \"#utility.yul\":6402:6407   */\n  dup2\n    /* \"#utility.yul\":6399:6413   */\n  lt\n    /* \"#utility.yul\":6392:6512   */\n  iszero\n  tag_131\n  jumpi\n    /* \"#utility.yul\":6463:6502   */\n  tag_132\n    /* \"#utility.yul\":6500:6501   */\n  0x00\n    /* \"#utility.yul\":6493:6498   */\n  dup3\n    /* \"#utility.yul\":6463:6502   */\n  tag_45\n  jump\t// in\ntag_132:\n    /* \"#utility.yul\":6436:6437   */\n  0x01\n    /* \"#utility.yul\":6429:6434   */\n  dup2\n    /* \"#utility.yul\":6425:6438   */\n  add\n    /* \"#utility.yul\":6416:6438   */\n  swap1\n  pop\n    /* \"#utility.yul\":6392:6512   */\n  jump(tag_129)\ntag_131:\n    /* \"#utility.yul\":6332:6518   */\n  pop\n  pop\n  jump\t// out\n    /* \"#utility.yul\":6524:7067   */\ntag_47:\n    /* \"#utility.yul\":6625:6627   */\n  0x1f\n    /* \"#utility.yul\":6620:6623   */\n  dup3\n    /* \"#utility.yul\":6617:6628   */\n  gt\n    /* \"#utility.yul\":6614:7060   */\n  iszero\n  tag_134\n  jumpi\n    /* \"#utility.yul\":6659:6697   */\n  tag_135\n    /* \"#utility.yul\":6691:6696   */\n  dup2\n    /* \"#utility.yul\":6659:6697   */\n  tag_35\n  jump\t// in\ntag_135:\n    /* \"#utility.yul\":6743:6772   */\n  tag_136\n    /* \"#utility.yul\":6761:6771   */\n  dup5\n    /* \"#utility.yul\":6743:6772   */\n  tag_36\n  jump\t// in\ntag_136:\n    /* \"#utility.yul\":6733:6741   */\n  dup2\n    /* \"#utility.yul\":6729:6773   */\n  add\n    /* \"#utility.yul\":6926:6928   */\n  0x20\n    /* \"#utility.yul\":6914:6924   */\n  dup6\n    /* \"#utility.yul\":6911:6929   */\n  lt\n    /* \"#utility.yul\":6908:6957   */\n  iszero\n  tag_137\n  jumpi\n    /* \"#utility.yul\":6947:6955   */\n  dup2\n    /* \"#utility.yul\":6932:6955   */\n  swap1\n  pop\n    /* \"#utility.yul\":6908:6957   */\ntag_137:\n    /* \"#utility.yul\":6970:7050   */\n  tag_138\n    /* \"#utility.yul\":7026:7048   */\n  tag_139\n    /* \"#utility.yul\":7044:7047   */\n  dup6\n    /* \"#utility.yul\":7026:7048   */\n  tag_36\n  jump\t// in\ntag_139:\n    /* \"#utility.yul\":7016:7024   */\n  dup4\n    /* \"#utility.yul\":7012:7049   */\n  add\n    /* \"#utility.yul\":6999:7010   */\n  dup3\n    /* \"#utility.yul\":6970:7050   */\n  tag_46\n  jump\t// in\ntag_138:\n    /* \"#utility.yul\":6629:7060   */\n  pop\n  pop\n    /* \"#utility.yul\":6614:7060   */\ntag_134:\n    /* \"#utility.yul\":6524:7067   */\n  pop\n  pop\n  pop\n  jump\t// out\n    /* \"#utility.yul\":7073:7190   */\ntag_48:\n    /* \"#utility.yul\":7127:7135   */\n  0x00\n    /* \"#utility.yul\":7177:7182   */\n  dup3\n    /* \"#utility.yul\":7171:7175   */\n  dup3\n    /* \"#utility.yul\":7167:7183   */\n  shr\n    /* \"#utility.yul\":7146:7183   */\n  swap1\n  pop\n    /* \"#utility.yul\":7073:7190   */\n  swap3\n  swap2\n  pop\n  pop\n  jump\t// out\n    /* \"#utility.yul\":7196:7365   */\ntag_49:\n    /* \"#utility.yul\":7240:7246   */\n  0x00\n    /* \"#utility.yul\":7273:7324   */\n  tag_142\n    /* \"#utility.yul\":7321:7322   */\n  0x00\n    /* \"#utility.yul\":7317:7323   */\n  not\n    /* \"#utility.yul\":7309:7314   */\n  dup5\n    /* \"#utility.yul\":7306:7307   */\n  0x08\n    /* \"#utility.yul\":7302:7315   */\n  mul\n    /* \"#utility.yul\":7273:7324   */\n  tag_48\n  jump\t// in\ntag_142:\n    /* \"#utility.yul\":7269:7325   */\n  not\n    /* \"#utility.yul\":7354:7358   */\n  dup1\n    /* \"#utility.yul\":7348:7352   */\n  dup4\n    /* \"#utility.yul\":7344:7359   */\n  and\n    /* \"#utility.yul\":7334:7359   */\n  swap2\n  pop\n    /* \"#utility.yul\":7247:7365   */\n  pop\n    /* \"#utility.yul\":7196:7365   */\n  swap3\n  swap2\n  pop\n  pop\n  jump\t// out\n    /* \"#utility.yul\":7370:7665   */\ntag_50:\n    /* \"#utility.yul\":7446:7450   */\n  0x00\n    /* \"#utility.yul\":7592:7621   */\n  tag_144\n    /* \"#utility.yul\":7617:7620   */\n  dup4\n    /* \"#utility.yul\":7611:7615   */\n  dup4\n    /* \"#utility.yul\":7592:7621   */\n  tag_49\n  jump\t// in\ntag_144:\n    /* \"#utility.yul\":7584:7621   */\n  swap2\n  pop\n    /* \"#utility.yul\":7654:7657   */\n  dup3\n    /* \"#utility.yul\":7651:7652   */\n  0x02\n    /* \"#utility.yul\":7647:7658   */\n  mul\n    /* \"#utility.yul\":7641:7645   */\n  dup3\n    /* \"#utility.yul\":7638:7659   */\n  or\n    /* \"#utility.yul\":7630:7659   */\n  swap1\n  pop\n    /* \"#utility.yul\":7370:7665   */\n  swap3\n  swap2\n  pop\n  pop\n  jump\t// out\n    /* \"#utility.yul\":7670:9065   */\ntag_7:\n    /* \"#utility.yul\":7787:7824   */\n  tag_146\n    /* \"#utility.yul\":7820:7823   */\n  dup3\n    /* \"#utility.yul\":7787:7824   */\n  tag_32\n  jump\t// in\ntag_146:\n    /* \"#utility.yul\":7889:7907   */\n  0xffffffffffffffff\n    /* \"#utility.yul\":7881:7887   */\n  dup2\n    /* \"#utility.yul\":7878:7908   */\n  gt\n    /* \"#utility.yul\":7875:7931   */\n  iszero\n  tag_147\n  jumpi\n    /* \"#utility.yul\":7911:7929   */\n  tag_148\n  tag_25\n  jump\t// in\ntag_148:\n    /* \"#utility.yul\":7875:7931   */\ntag_147:\n    /* \"#utility.yul\":7955:7993   */\n  tag_149\n    /* \"#utility.yul\":7987:7991   */\n  dup3\n    /* \"#utility.yul\":7981:7992   */\n  sload\n    /* \"#utility.yul\":7955:7993   */\n  tag_34\n  jump\t// in\ntag_149:\n    /* \"#utility.yul\":8040:8107   */\n  tag_150\n    /* \"#utility.yul\":8100:8106   */\n  dup3\n    /* \"#utility.yul\":8092:8098   */\n  dup3\n    /* \"#utility.yul\":8086:8090   */\n  dup6\n    /* \"#utility.yul\":8040:8107   */\n  tag_47\n  jump\t// in\ntag_150:\n    /* \"#utility.yul\":8134:8135   */\n  0x00\n    /* \"#utility.yul\":8158:8162   */\n  0x20\n    /* \"#utility.yul\":8145:8162   */\n  swap1\n  pop\n    /* \"#utility.yul\":8190:8192   */\n  0x1f\n    /* \"#utility.yul\":8182:8188   */\n  dup4\n    /* \"#utility.yul\":8179:8193   */\n  gt\n    /* \"#utility.yul\":8207:8208   */\n  0x01\n    /* \"#utility.yul\":8202:8820   */\n  dup2\n  eq\n  tag_152\n  jumpi\n    /* \"#utility.yul\":8864:8865   */\n  0x00\n    /* \"#utility.yul\":8881:8887   */\n  dup5\n    /* \"#utility.yul\":8878:8955   */\n  iszero\n  tag_153\n  jumpi\n    /* \"#utility.yul\":8930:8939   */\n  dup3\n    /* \"#utility.yul\":8925:8928   */\n  dup8\n    /* \"#utility.yul\":8921:8940   */\n  add\n    /* \"#utility.yul\":8915:8941   */\n  mload\n    /* \"#utility.yul\":8906:8941   */\n  swap1\n  pop\n    /* \"#utility.yul\":8878:8955   */\ntag_153:\n    /* \"#utility.yul\":8981:9048   */\n  tag_154\n    /* \"#utility.yul\":9041:9047   */\n  dup6\n    /* \"#utility.yul\":9034:9039   */\n  dup3\n    /* \"#utility.yul\":8981:9048   */\n  tag_50\n  jump\t// in\ntag_154:\n    /* \"#utility.yul\":8975:8979   */\n  dup7\n    /* \"#utility.yul\":8968:9049   */\n  sstore\n    /* \"#utility.yul\":8837:9059   */\n  pop\n    /* \"#utility.yul\":8172:9059   */\n  jump(tag_151)\n    /* \"#utility.yul\":8202:8820   */\ntag_152:\n    /* \"#utility.yul\":8254:8258   */\n  0x1f\n    /* \"#utility.yul\":8250:8259   */\n  not\n    /* \"#utility.yul\":8242:8248   */\n  dup5\n    /* \"#utility.yul\":8238:8260   */\n  and\n    /* \"#utility.yul\":8288:8325   */\n  tag_155\n    /* \"#utility.yul\":8320:8324   */\n  dup7\n    /* \"#utility.yul\":8288:8325   */\n  tag_35\n  jump\t// in\ntag_155:\n    /* \"#utility.yul\":8347:8348   */\n  0x00\n    /* \"#utility.yul\":8361:8569   */\ntag_156:\n    /* \"#utility.yul\":8375:8382   */\n  dup3\n    /* \"#utility.yul\":8372:8373   */\n  dup2\n    /* \"#utility.yul\":8369:8383   */\n  lt\n    /* \"#utility.yul\":8361:8569   */\n  iszero\n  tag_158\n  jumpi\n    /* \"#utility.yul\":8454:8463   */\n  dup5\n    /* \"#utility.yul\":8449:8452   */\n  dup10\n    /* \"#utility.yul\":8445:8464   */\n  add\n    /* \"#utility.yul\":8439:8465   */\n  mload\n    /* \"#utility.yul\":8431:8437   */\n  dup3\n    /* \"#utility.yul\":8424:8466   */\n  sstore\n    /* \"#utility.yul\":8505:8506   */\n  0x01\n    /* \"#utility.yul\":8497:8503   */\n  dup3\n    /* \"#utility.yul\":8493:8507   */\n  add\n    /* \"#utility.yul\":8483:8507   */\n  swap2\n  pop\n    /* \"#utility.yul\":8552:8554   */\n  0x20\n    /* \"#utility.yul\":8541:8550   */\n  dup6\n    /* \"#utility.yul\":8537:8555   */\n  add\n    /* \"#utility.yul\":8524:8555   */\n  swap5\n  pop\n    /* \"#utility.yul\":8398:8402   */\n  0x20\n    /* \"#utility.yul\":8395:8396   */\n  dup2\n    /* \"#utility.yul\":8391:8403   */\n  add\n    /* \"#utility.yul\":8386:8403   */\n  swap1\n  pop\n    /* \"#utility.yul\":8361:8569   */\n  jump(tag_156)\ntag_158:\n    /* \"#utility.yul\":8597:8603   */\n  dup7\n    /* \"#utility.yul\":8588:8595   */\n  dup4\n    /* \"#utility.yul\":8585:8604   */\n  lt\n    /* \"#utility.yul\":8582:8761   */\n  iszero\n  tag_159\n  jumpi\n    /* \"#utility.yul\":8655:8664   */\n  dup5\n    /* \"#utility.yul\":8650:8653   */\n  dup10\n    /* \"#utility.yul\":8646:8665   */\n  add\n    /* \"#utility.yul\":8640:8666   */\n  mload\n    /* \"#utility.yul\":8698:8746   */\n  tag_160\n    /* \"#utility.yul\":8740:8744   */\n  0x1f\n    /* \"#utility.yul\":8732:8738   */\n  dup10\n    /* \"#utility.yul\":8728:8745   */\n  and\n    /* \"#utility.yul\":8717:8726   */\n  dup3\n    /* \"#utility.yul\":8698:8746   */\n  tag_49\n  jump\t// in\ntag_160:\n    /* \"#utility.yul\":8690:8696   */\n  dup4\n    /* \"#utility.yul\":8683:8747   */\n  sstore\n    /* \"#utility.yul\":8605:8761   */\n  pop\n    /* \"#utility.yul\":8582:8761   */\ntag_159:\n    /* \"#utility.yul\":8807:8808   */\n  0x01\n    /* \"#utility.yul\":8803:8804   */\n  0x02\n    /* \"#utility.yul\":8795:8801   */\n  dup9\n    /* \"#utility.yul\":8791:8805   */\n  mul\n    /* \"#utility.yul\":8787:8809   */\n  add\n    /* \"#utility.yul\":8781:8785   */\n  dup9\n    /* \"#utility.yul\":8774:8810   */\n  sstore\n    /* \"#utility.yul\":8209:8820   */\n  pop\n  pop\n  pop\n    /* \"#utility.yul\":8172:9059   */\ntag_151:\n  pop\n    /* \"#utility.yul\":7762:9065   */\n  pop\n  pop\n  pop\n    /* \"#utility.yul\":7670:9065   */\n  pop\n  pop\n  jump\t// out\n    /* \"#utility.yul\":9071:9189   */\ntag_51:\n    /* \"#utility.yul\":9158:9182   */\n  tag_162\n    /* \"#utility.yul\":9176:9181   */\n  dup2\n    /* \"#utility.yul\":9158:9182   */\n  tag_19\n  jump\t// in\ntag_162:\n    /* \"#utility.yul\":9153:9156   */\n  dup3\n    /* \"#utility.yul\":9146:9183   */\n  mstore\n    /* \"#utility.yul\":9071:9189   */\n  pop\n  pop\n  jump\t// out\n    /* \"#utility.yul\":9195:9527   */\ntag_11:\n    /* \"#utility.yul\":9316:9320   */\n  0x00\n    /* \"#utility.yul\":9354:9356   */\n  0x40\n    /* \"#utility.yul\":9343:9352   */\n  dup3\n    /* \"#utility.yul\":9339:9357   */\n  add\n    /* \"#utility.yul\":9331:9357   */\n  swap1\n  pop\n    /* \"#utility.yul\":9367:9438   */\n  tag_164\n    /* \"#utility.yul\":9435:9436   */\n  0x00\n    /* \"#utility.yul\":9424:9433   */\n  dup4\n    /* \"#utility.yul\":9420:9437   */\n  add\n    /* \"#utility.yul\":9411:9417   */\n  dup6\n    /* \"#utility.yul\":9367:9438   */\n  tag_51\n  jump\t// in\ntag_164:\n    /* \"#utility.yul\":9448:9520   */\n  tag_165\n    /* \"#utility.yul\":9516:9518   */\n  0x20\n    /* \"#utility.yul\":9505:9514   */\n  dup4\n    /* \"#utility.yul\":9501:9519   */\n  add\n    /* \"#utility.yul\":9492:9498   */\n  dup5\n    /* \"#utility.yul\":9448:9520   */\n  tag_51\n  jump\t// in\ntag_165:\n    /* \"#utility.yul\":9195:9527   */\n  swap4\n  swap3\n  pop\n  pop\n  pop\n  jump\t// out\n    /* \"MemberPool.sol\":94:3316  contract MemberPool {... */\ntag_14:\n  dataSize(sub_0)\n  dup1\n  dataOffset(sub_0)\n  0x00\n  codecopy\n  0x00\n  return\nstop\n\nsub_0: assembly {\n        /* \"MemberPool.sol\":94:3316  contract MemberPool {... */\n      mstore(0x40, 0x80)\n      callvalue\n      dup1\n      iszero\n      tag_1\n      jumpi\n      0x00\n      dup1\n      revert\n    tag_1:\n      pop\n      jumpi(tag_2, lt(calldatasize, 0x04))\n      shr(0xe0, calldataload(0x00))\n      dup1\n      0x9a4d383e\n      gt\n      tag_25\n      jumpi\n      dup1\n      0xaf1fca09\n      gt\n      tag_26\n      jumpi\n      dup1\n      0xaf1fca09\n      eq\n      tag_19\n      jumpi\n      dup1\n      0xb3253f13\n      eq\n      tag_20\n      jumpi\n      dup1\n      0xc7662d93\n      eq\n      tag_21\n      jumpi\n      dup1\n      0xca505a5b\n      eq\n      tag_22\n      jumpi\n      dup1\n      0xcef025ac\n      eq\n      tag_23\n      jumpi\n      dup1\n      0xe1889876\n      eq\n      tag_24\n      jumpi\n      jump(tag_2)\n    tag_26:\n      dup1\n      0x9a4d383e\n      eq\n      tag_14\n      jumpi\n      dup1\n      0x9c0ab105\n      eq\n      tag_15\n      jumpi\n      dup1\n      0x9e5f59f9\n      eq\n      tag_16\n      jumpi\n      dup1\n      0x9eab5253\n      eq\n      tag_17\n      jumpi\n      dup1\n      0xa230c524\n      eq\n      tag_18\n      jumpi\n      jump(tag_2)\n    tag_25:\n      dup1\n      0x1ee503fd\n      gt\n      tag_27\n      jumpi\n      dup1\n      0x1ee503fd\n      eq\n      tag_8\n      jumpi\n      dup1\n      0x25ec527c\n      eq\n      tag_9\n      jumpi\n      dup1\n      0x455772d2\n      eq\n      tag_10\n      jumpi\n      dup1\n      0x5daf08ca\n      eq\n      tag_11\n      jumpi\n      dup1\n      0x70586013\n      eq\n      tag_12\n      jumpi\n      dup1\n      0x997072f7\n      eq\n      tag_13\n      jumpi\n      jump(tag_2)\n    tag_27:\n      dup1\n      0x02d05d3f\n      eq\n      tag_3\n      jumpi\n      dup1\n      0x06fdde03\n      eq\n      tag_4\n      jumpi\n      dup1\n      0x107046bd\n      eq\n      tag_5\n      jumpi\n      dup1\n      0x146b551d\n      eq\n      tag_6\n      jumpi\n      dup1\n      0x15866836\n      eq\n      tag_7\n      jumpi\n    tag_2:\n      0x00\n      dup1\n      revert\n        /* \"MemberPool.sol\":753:775  address public creator */\n    tag_3:\n      tag_28\n      tag_29\n      jump\t// in\n    tag_28:\n      mload(0x40)\n      tag_30\n      swap2\n      swap1\n      tag_31\n      jump\t// in\n    tag_30:\n      mload(0x40)\n      dup1\n      swap2\n      sub\n      swap1\n      return\n        /* \"MemberPool.sol\":398:416  string public name */\n    tag_4:\n      tag_32\n      tag_33\n      jump\t// in\n    tag_32:\n      mload(0x40)\n      tag_34\n      swap2\n      swap1\n      tag_35\n      jump\t// in\n    tag_34:\n      mload(0x40)\n      dup1\n      swap2\n      sub\n      swap1\n      return\n        /* \"MemberPool.sol\":570:595  address[] public projects */\n    tag_5:\n      tag_36\n      0x04\n      dup1\n      calldatasize\n      sub\n      dup2\n      add\n      swap1\n      tag_37\n      swap2\n      swap1\n      tag_38\n      jump\t// in\n    tag_37:\n      tag_39\n      jump\t// in\n    tag_36:\n      mload(0x40)\n      tag_40\n      swap2\n      swap1\n      tag_31\n      jump\t// in\n    tag_40:\n      mload(0x40)\n      dup1\n      swap2\n      sub\n      swap1\n      return\n        /* \"MemberPool.sol\":1472:1540  function getMemberRep(address member) public view returns (int32) {} */\n    tag_6:\n      tag_41\n      0x04\n      dup1\n      calldatasize\n      sub\n      dup2\n      add\n      swap1\n      tag_42\n      swap2\n      swap1\n      tag_43\n      jump\t// in\n    tag_42:\n      tag_44\n      jump\t// in\n    tag_41:\n      mload(0x40)\n      tag_45\n      swap2\n      swap1\n      tag_46\n      jump\t// in\n    tag_45:\n      mload(0x40)\n      dup1\n      swap2\n      sub\n      swap1\n      return\n        /* \"MemberPool.sol\":2315:2436  function highlightReport(address member, string calldata comment)... */\n    tag_7:\n      tag_47\n      0x04\n      dup1\n      calldatasize\n      sub\n      dup2\n      add\n      swap1\n      tag_48\n      swap2\n      swap1\n      tag_49\n      jump\t// in\n    tag_48:\n      tag_50\n      jump\t// in\n    tag_47:\n      stop\n        /* \"MemberPool.sol\":2444:2960  function admitApplicant(address applicant) public memberOnly(msg.sender) {... */\n    tag_8:\n      tag_51\n      0x04\n      dup1\n      calldatasize\n      sub\n      dup2\n      add\n      swap1\n      tag_52\n      swap2\n      swap1\n      tag_43\n      jump\t// in\n    tag_52:\n      tag_53\n      jump\t// in\n    tag_51:\n      stop\n        /* \"MemberPool.sol\":519:563  mapping(address => bool) public memberActive */\n    tag_9:\n      tag_54\n      0x04\n      dup1\n      calldatasize\n      sub\n      dup2\n      add\n      swap1\n      tag_55\n      swap2\n      swap1\n      tag_43\n      jump\t// in\n    tag_55:\n      tag_56\n      jump\t// in\n    tag_54:\n      mload(0x40)\n      tag_57\n      swap2\n      swap1\n      tag_58\n      jump\t// in\n    tag_57:\n      mload(0x40)\n      dup1\n      swap2\n      sub\n      swap1\n      return\n        /* \"MemberPool.sol\":3072:3313  function getApplicants()... */\n    tag_10:\n      tag_59\n      tag_60\n      jump\t// in\n    tag_59:\n      mload(0x40)\n      tag_61\n      swap2\n      swap1\n      tag_62\n      jump\t// in\n    tag_61:\n      mload(0x40)\n      dup1\n      swap2\n      sub\n      swap1\n      return\n        /* \"MemberPool.sol\":488:512  address[] public members */\n    tag_11:\n      tag_63\n      0x04\n      dup1\n      calldatasize\n      sub\n      dup2\n      add\n      swap1\n      tag_64\n      swap2\n      swap1\n      tag_38\n      jump\t// in\n    tag_64:\n      tag_65\n      jump\t// in\n    tag_63:\n      mload(0x40)\n      tag_66\n      swap2\n      swap1\n      tag_31\n      jump\t// in\n    tag_66:\n      mload(0x40)\n      dup1\n      swap2\n      sub\n      swap1\n      return\n        /* \"MemberPool.sol\":1952:2077  function reportMember(address member, string calldata report)... */\n    tag_12:\n      tag_67\n      0x04\n      dup1\n      calldatasize\n      sub\n      dup2\n      add\n      swap1\n      tag_68\n      swap2\n      swap1\n      tag_49\n      jump\t// in\n    tag_68:\n      tag_69\n      jump\t// in\n    tag_67:\n      mload(0x40)\n      tag_70\n      swap2\n      swap1\n      tag_71\n      jump\t// in\n    tag_70:\n      mload(0x40)\n      dup1\n      swap2\n      sub\n      swap1\n      return\n        /* \"MemberPool.sol\":2968:3064  function getMemberCount() public view returns (uint256) {... */\n    tag_13:\n      tag_72\n      tag_73\n      jump\t// in\n    tag_72:\n      mload(0x40)\n      tag_74\n      swap2\n      swap1\n      tag_75\n      jump\t// in\n    tag_74:\n      mload(0x40)\n      dup1\n      swap2\n      sub\n      swap1\n      return\n        /* \"MemberPool.sol\":1655:1944  function increaseMemberRep(address member) public {... */\n    tag_14:\n      tag_76\n      0x04\n      dup1\n      calldatasize\n      sub\n      dup2\n      add\n      swap1\n      tag_77\n      swap2\n      swap1\n      tag_43\n      jump\t// in\n    tag_77:\n      tag_78\n      jump\t// in\n    tag_76:\n      stop\n        /* \"MemberPool.sol\":456:481  string public longSummary */\n    tag_15:\n      tag_79\n      tag_80\n      jump\t// in\n    tag_79:\n      mload(0x40)\n      tag_81\n      swap2\n      swap1\n      tag_35\n      jump\t// in\n    tag_81:\n      mload(0x40)\n      dup1\n      swap2\n      sub\n      swap1\n      return\n        /* \"MemberPool.sol\":2085:2199  function getMemberReports(address member)... */\n    tag_16:\n      tag_82\n      0x04\n      dup1\n      calldatasize\n      sub\n      dup2\n      add\n      swap1\n      tag_83\n      swap2\n      swap1\n      tag_43\n      jump\t// in\n    tag_83:\n      tag_84\n      jump\t// in\n    tag_82:\n      mload(0x40)\n      tag_85\n      swap2\n      swap1\n      tag_86\n      jump\t// in\n    tag_85:\n      mload(0x40)\n      dup1\n      swap2\n      sub\n      swap1\n      return\n        /* \"MemberPool.sol\":1337:1464  function getMembers()... */\n    tag_17:\n      tag_87\n      tag_88\n      jump\t// in\n    tag_87:\n      mload(0x40)\n      tag_89\n      swap2\n      swap1\n      tag_62\n      jump\t// in\n    tag_89:\n      mload(0x40)\n      dup1\n      swap2\n      sub\n      swap1\n      return\n        /* \"MemberPool.sol\":1548:1647  function isMember(address id) public view returns (bool) {... */\n    tag_18:\n      tag_90\n      0x04\n      dup1\n      calldatasize\n      sub\n      dup2\n      add\n      swap1\n      tag_91\n      swap2\n      swap1\n      tag_43\n      jump\t// in\n    tag_91:\n      tag_92\n      jump\t// in\n    tag_90:\n      mload(0x40)\n      tag_93\n      swap2\n      swap1\n      tag_58\n      jump\t// in\n    tag_93:\n      mload(0x40)\n      dup1\n      swap2\n      sub\n      swap1\n      return\n        /* \"MemberPool.sol\":711:746  address public applicantPoolAddress */\n    tag_19:\n      tag_94\n      tag_95\n      jump\t// in\n    tag_94:\n      mload(0x40)\n      tag_96\n      swap2\n      swap1\n      tag_31\n      jump\t// in\n    tag_96:\n      mload(0x40)\n      dup1\n      swap2\n      sub\n      swap1\n      return\n        /* \"MemberPool.sol\":658:704  mapping(address => int256) public memberPoints */\n    tag_20:\n      tag_97\n      0x04\n      dup1\n      calldatasize\n      sub\n      dup2\n      add\n      swap1\n      tag_98\n      swap2\n      swap1\n      tag_43\n      jump\t// in\n    tag_98:\n      tag_99\n      jump\t// in\n    tag_97:\n      mload(0x40)\n      tag_100\n      swap2\n      swap1\n      tag_101\n      jump\t// in\n    tag_100:\n      mload(0x40)\n      dup1\n      swap2\n      sub\n      swap1\n      return\n        /* \"MemberPool.sol\":782:813  address public memberMapAddress */\n    tag_21:\n      tag_102\n      tag_103\n      jump\t// in\n    tag_102:\n      mload(0x40)\n      tag_104\n      swap2\n      swap1\n      tag_31\n      jump\t// in\n    tag_104:\n      mload(0x40)\n      dup1\n      swap2\n      sub\n      swap1\n      return\n        /* \"MemberPool.sol\":423:449  string public shortSummary */\n    tag_22:\n      tag_105\n      tag_106\n      jump\t// in\n    tag_105:\n      mload(0x40)\n      tag_107\n      swap2\n      swap1\n      tag_35\n      jump\t// in\n    tag_107:\n      mload(0x40)\n      dup1\n      swap2\n      sub\n      swap1\n      return\n        /* \"MemberPool.sol\":2207:2307  function dismissMemberReport(address member)... */\n    tag_23:\n      tag_108\n      0x04\n      dup1\n      calldatasize\n      sub\n      dup2\n      add\n      swap1\n      tag_109\n      swap2\n      swap1\n      tag_43\n      jump\t// in\n    tag_109:\n      tag_110\n      jump\t// in\n    tag_108:\n      stop\n        /* \"MemberPool.sol\":602:651  mapping(address => address) public userToMemberUp */\n    tag_24:\n      tag_111\n      0x04\n      dup1\n      calldatasize\n      sub\n      dup2\n      add\n      swap1\n      tag_112\n      swap2\n      swap1\n      tag_43\n      jump\t// in\n    tag_112:\n      tag_113\n      jump\t// in\n    tag_111:\n      mload(0x40)\n      tag_114\n      swap2\n      swap1\n      tag_31\n      jump\t// in\n    tag_114:\n      mload(0x40)\n      dup1\n      swap2\n      sub\n      swap1\n      return\n        /* \"MemberPool.sol\":753:775  address public creator */\n    tag_29:\n      0x09\n      0x00\n      swap1\n      sload\n      swap1\n      0x0100\n      exp\n      swap1\n      div\n      0xffffffffffffffffffffffffffffffffffffffff\n      and\n      dup2\n      jump\t// out\n        /* \"MemberPool.sol\":398:416  string public name */\n    tag_33:\n      0x00\n      dup1\n      sload\n      tag_115\n      swap1\n      tag_116\n      jump\t// in\n    tag_115:\n      dup1\n      0x1f\n      add\n      0x20\n      dup1\n      swap2\n      div\n      mul\n      0x20\n      add\n      mload(0x40)\n      swap1\n      dup2\n      add\n      0x40\n      mstore\n      dup1\n      swap3\n      swap2\n      swap1\n      dup2\n      dup2\n      mstore\n      0x20\n      add\n      dup3\n      dup1\n      sload\n      tag_117\n      swap1\n      tag_116\n      jump\t// in\n    tag_117:\n      dup1\n      iszero\n      tag_118\n      jumpi\n      dup1\n      0x1f\n      lt\n      tag_119\n      jumpi\n      0x0100\n      dup1\n      dup4\n      sload\n      div\n      mul\n      dup4\n      mstore\n      swap2\n      0x20\n      add\n      swap2\n      jump(tag_118)\n    tag_119:\n      dup3\n      add\n      swap2\n      swap1\n      0x00\n      mstore\n      keccak256(0x00, 0x20)\n      swap1\n    tag_120:\n      dup2\n      sload\n      dup2\n      mstore\n      swap1\n      0x01\n      add\n      swap1\n      0x20\n      add\n      dup1\n      dup4\n      gt\n      tag_120\n      jumpi\n      dup3\n      swap1\n      sub\n      0x1f\n      and\n      dup3\n      add\n      swap2\n    tag_118:\n      pop\n      pop\n      pop\n      pop\n      pop\n      dup2\n      jump\t// out\n        /* \"MemberPool.sol\":570:595  address[] public projects */\n    tag_39:\n      0x05\n      dup2\n      dup2\n      sload\n      dup2\n      lt\n      tag_121\n      jumpi\n      0x00\n      dup1\n      revert\n    tag_121:\n      swap1\n      0x00\n      mstore\n      keccak256(0x00, 0x20)\n      add\n      0x00\n      swap2\n      pop\n      sload\n      swap1\n      0x0100\n      exp\n      swap1\n      div\n      0xffffffffffffffffffffffffffffffffffffffff\n      and\n      dup2\n      jump\t// out\n        /* \"MemberPool.sol\":1472:1540  function getMemberRep(address member) public view returns (int32) {} */\n    tag_44:\n        /* \"MemberPool.sol\":1531:1536  int32 */\n      0x00\n        /* \"MemberPool.sol\":1472:1540  function getMemberRep(address member) public view returns (int32) {} */\n      swap2\n      swap1\n      pop\n      jump\t// out\n        /* \"MemberPool.sol\":2315:2436  function highlightReport(address member, string calldata comment)... */\n    tag_50:\n        /* \"MemberPool.sol\":2417:2427  msg.sender */\n      caller\n        /* \"MemberPool.sol\":1260:1272  memberActive */\n      0x04\n        /* \"MemberPool.sol\":1260:1280  memberActive[sender] */\n      0x00\n        /* \"MemberPool.sol\":1273:1279  sender */\n      dup3\n        /* \"MemberPool.sol\":1260:1280  memberActive[sender] */\n      0xffffffffffffffffffffffffffffffffffffffff\n      and\n      0xffffffffffffffffffffffffffffffffffffffff\n      and\n      dup2\n      mstore\n      0x20\n      add\n      swap1\n      dup2\n      mstore\n      0x20\n      add\n      0x00\n      keccak256\n      0x00\n      swap1\n      sload\n      swap1\n      0x0100\n      exp\n      swap1\n      div\n      0xff\n      and\n        /* \"MemberPool.sol\":1252:1309  require(memberActive[sender], \"Required to be a memeber\") */\n      tag_125\n      jumpi\n      mload(0x40)\n      0x08c379a000000000000000000000000000000000000000000000000000000000\n      dup2\n      mstore\n      0x04\n      add\n      tag_126\n      swap1\n      tag_127\n      jump\t// in\n    tag_126:\n      mload(0x40)\n      dup1\n      swap2\n      sub\n      swap1\n      revert\n    tag_125:\n        /* \"MemberPool.sol\":2315:2436  function highlightReport(address member, string calldata comment)... */\n      pop\n      pop\n      pop\n      pop\n      jump\t// out\n        /* \"MemberPool.sol\":2444:2960  function admitApplicant(address applicant) public memberOnly(msg.sender) {... */\n    tag_53:\n        /* \"MemberPool.sol\":2505:2515  msg.sender */\n      caller\n        /* \"MemberPool.sol\":1260:1272  memberActive */\n      0x04\n        /* \"MemberPool.sol\":1260:1280  memberActive[sender] */\n      0x00\n        /* \"MemberPool.sol\":1273:1279  sender */\n      dup3\n        /* \"MemberPool.sol\":1260:1280  memberActive[sender] */\n      0xffffffffffffffffffffffffffffffffffffffff\n      and\n      0xffffffffffffffffffffffffffffffffffffffff\n      and\n      dup2\n      mstore\n      0x20\n      add\n      swap1\n      dup2\n      mstore\n      0x20\n      add\n      0x00\n      keccak256\n      0x00\n      swap1\n      sload\n      swap1\n      0x0100\n      exp\n      swap1\n      div\n      0xff\n      and\n        /* \"MemberPool.sol\":1252:1309  require(memberActive[sender], \"Required to be a memeber\") */\n      tag_130\n      jumpi\n      mload(0x40)\n      0x08c379a000000000000000000000000000000000000000000000000000000000\n      dup2\n      mstore\n      0x04\n      add\n      tag_131\n      swap1\n      tag_127\n      jump\t// in\n    tag_131:\n      mload(0x40)\n      dup1\n      swap2\n      sub\n      swap1\n      revert\n    tag_130:\n        /* \"MemberPool.sol\":2528:2546  ApplicantPool pool */\n      0x00\n        /* \"MemberPool.sol\":2563:2583  applicantPoolAddress */\n      0x08\n      0x00\n      swap1\n      sload\n      swap1\n      0x0100\n      exp\n      swap1\n      div\n      0xffffffffffffffffffffffffffffffffffffffff\n      and\n        /* \"MemberPool.sol\":2528:2584  ApplicantPool pool = ApplicantPool(applicantPoolAddress) */\n      swap1\n      pop\n        /* \"MemberPool.sol\":2595:2612  uint256 voteCount */\n      0x00\n        /* \"MemberPool.sol\":2615:2619  pool */\n      dup2\n        /* \"MemberPool.sol\":2615:2641  pool.getApplicantVoteCount */\n      0xffffffffffffffffffffffffffffffffffffffff\n      and\n      0xd9a87535\n        /* \"MemberPool.sol\":2642:2651  applicant */\n      dup6\n        /* \"MemberPool.sol\":2615:2652  pool.getApplicantVoteCount(applicant) */\n      mload(0x40)\n      dup3\n      0xffffffff\n      and\n      0xe0\n      shl\n      dup2\n      mstore\n      0x04\n      add\n      tag_133\n      swap2\n      swap1\n      tag_31\n      jump\t// in\n    tag_133:\n      0x20\n      mload(0x40)\n      dup1\n      dup4\n      sub\n      dup2\n      dup7\n      gas\n      staticcall\n      iszero\n      dup1\n      iszero\n      tag_135\n      jumpi\n      returndatasize\n      0x00\n      dup1\n      returndatacopy\n      revert(0x00, returndatasize)\n    tag_135:\n      pop\n      pop\n      pop\n      pop\n      mload(0x40)\n      returndatasize\n      not(0x1f)\n      0x1f\n      dup3\n      add\n      and\n      dup3\n      add\n      dup1\n      0x40\n      mstore\n      pop\n      dup2\n      add\n      swap1\n      tag_136\n      swap2\n      swap1\n      tag_137\n      jump\t// in\n    tag_136:\n        /* \"MemberPool.sol\":2595:2652  uint256 voteCount = pool.getApplicantVoteCount(applicant) */\n      swap1\n      pop\n        /* \"MemberPool.sol\":2685:2686  1 */\n      0x01\n        /* \"MemberPool.sol\":2672:2681  voteCount */\n      dup2\n        /* \"MemberPool.sol\":2672:2686  voteCount >= 1 */\n      lt\n      iszero\n        /* \"MemberPool.sol\":2663:2727  require((voteCount >= 1), \"Invalid number of votes or proceed.\") */\n      tag_138\n      jumpi\n      mload(0x40)\n      0x08c379a000000000000000000000000000000000000000000000000000000000\n      dup2\n      mstore\n      0x04\n      add\n      tag_139\n      swap1\n      tag_140\n      jump\t// in\n    tag_139:\n      mload(0x40)\n      dup1\n      swap2\n      sub\n      swap1\n      revert\n    tag_138:\n        /* \"MemberPool.sol\":2738:2751  MemberMap map */\n      0x00\n        /* \"MemberPool.sol\":2764:2780  memberMapAddress */\n      0x0a\n      0x00\n      swap1\n      sload\n      swap1\n      0x0100\n      exp\n      swap1\n      div\n      0xffffffffffffffffffffffffffffffffffffffff\n      and\n        /* \"MemberPool.sol\":2738:2781  MemberMap map = MemberMap(memberMapAddress) */\n      swap1\n      pop\n        /* \"MemberPool.sol\":2792:2795  map */\n      dup1\n        /* \"MemberPool.sol\":2792:2805  map.addMember */\n      0xffffffffffffffffffffffffffffffffffffffff\n      and\n      0x9d58b15d\n        /* \"MemberPool.sol\":2806:2815  applicant */\n      dup7\n        /* \"MemberPool.sol\":2817:2833  memberMapAddress */\n      0x0a\n      0x00\n      swap1\n      sload\n      swap1\n      0x0100\n      exp\n      swap1\n      div\n      0xffffffffffffffffffffffffffffffffffffffff\n      and\n        /* \"MemberPool.sol\":2792:2834  map.addMember(applicant, memberMapAddress) */\n      mload(0x40)\n      dup4\n      0xffffffff\n      and\n      0xe0\n      shl\n      dup2\n      mstore\n      0x04\n      add\n      tag_141\n      swap3\n      swap2\n      swap1\n      tag_142\n      jump\t// in\n    tag_141:\n      0x00\n      mload(0x40)\n      dup1\n      dup4\n      sub\n      dup2\n      0x00\n      dup8\n      dup1\n      extcodesize\n      iszero\n      dup1\n      iszero\n      tag_143\n      jumpi\n      0x00\n      dup1\n      revert\n    tag_143:\n      pop\n      gas\n      call\n      iszero\n      dup1\n      iszero\n      tag_145\n      jumpi\n      returndatasize\n      0x00\n      dup1\n      returndatacopy\n      revert(0x00, returndatasize)\n    tag_145:\n      pop\n      pop\n      pop\n      pop\n        /* \"MemberPool.sol\":2845:2849  pool */\n      dup3\n        /* \"MemberPool.sol\":2845:2866  pool.approveApplicant */\n      0xffffffffffffffffffffffffffffffffffffffff\n      and\n      0x1292a282\n        /* \"MemberPool.sol\":2867:2876  applicant */\n      dup7\n        /* \"MemberPool.sol\":2845:2877  pool.approveApplicant(applicant) */\n      mload(0x40)\n      dup3\n      0xffffffff\n      and\n      0xe0\n      shl\n      dup2\n      mstore\n      0x04\n      add\n      tag_146\n      swap2\n      swap1\n      tag_31\n      jump\t// in\n    tag_146:\n      0x00\n      mload(0x40)\n      dup1\n      dup4\n      sub\n      dup2\n      0x00\n      dup8\n      dup1\n      extcodesize\n      iszero\n      dup1\n      iszero\n      tag_147\n      jumpi\n      0x00\n      dup1\n      revert\n    tag_147:\n      pop\n      gas\n      call\n      iszero\n      dup1\n      iszero\n      tag_149\n      jumpi\n      returndatasize\n      0x00\n      dup1\n      returndatacopy\n      revert(0x00, returndatasize)\n    tag_149:\n      pop\n      pop\n      pop\n      pop\n        /* \"MemberPool.sol\":2888:2895  members */\n      0x03\n        /* \"MemberPool.sol\":2901:2910  applicant */\n      dup6\n        /* \"MemberPool.sol\":2888:2911  members.push(applicant) */\n      swap1\n      dup1\n      0x01\n      dup2\n      sload\n      add\n      dup1\n      dup3\n      sstore\n      dup1\n      swap2\n      pop\n      pop\n      0x01\n      swap1\n      sub\n      swap1\n      0x00\n      mstore\n      keccak256(0x00, 0x20)\n      add\n      0x00\n      swap1\n      swap2\n      swap1\n      swap2\n      swap1\n      swap2\n      0x0100\n      exp\n      dup2\n      sload\n      dup2\n      0xffffffffffffffffffffffffffffffffffffffff\n      mul\n      not\n      and\n      swap1\n      dup4\n      0xffffffffffffffffffffffffffffffffffffffff\n      and\n      mul\n      or\n      swap1\n      sstore\n      pop\n        /* \"MemberPool.sol\":2948:2952  true */\n      0x01\n        /* \"MemberPool.sol\":2922:2934  memberActive */\n      0x04\n        /* \"MemberPool.sol\":2922:2945  memberActive[applicant] */\n      0x00\n        /* \"MemberPool.sol\":2935:2944  applicant */\n      dup8\n        /* \"MemberPool.sol\":2922:2945  memberActive[applicant] */\n      0xffffffffffffffffffffffffffffffffffffffff\n      and\n      0xffffffffffffffffffffffffffffffffffffffff\n      and\n      dup2\n      mstore\n      0x20\n      add\n      swap1\n      dup2\n      mstore\n      0x20\n      add\n      0x00\n      keccak256\n      0x00\n        /* \"MemberPool.sol\":2922:2952  memberActive[applicant] = true */\n      0x0100\n      exp\n      dup2\n      sload\n      dup2\n      0xff\n      mul\n      not\n      and\n      swap1\n      dup4\n      iszero\n      iszero\n      mul\n      or\n      swap1\n      sstore\n      pop\n        /* \"MemberPool.sol\":2517:2960  {... */\n      pop\n      pop\n      pop\n        /* \"MemberPool.sol\":2444:2960  function admitApplicant(address applicant) public memberOnly(msg.sender) {... */\n      pop\n      pop\n      jump\t// out\n        /* \"MemberPool.sol\":519:563  mapping(address => bool) public memberActive */\n    tag_56:\n      mstore(0x20, 0x04)\n      dup1\n      0x00\n      mstore\n      keccak256(0x00, 0x40)\n      0x00\n      swap2\n      pop\n      sload\n      swap1\n      0x0100\n      exp\n      swap1\n      div\n      0xff\n      and\n      dup2\n      jump\t// out\n        /* \"MemberPool.sol\":3072:3313  function getApplicants()... */\n    tag_60:\n        /* \"MemberPool.sol\":3177:3193  address[] memory */\n      0x60\n        /* \"MemberPool.sol\":3147:3157  msg.sender */\n      caller\n        /* \"MemberPool.sol\":1260:1272  memberActive */\n      0x04\n        /* \"MemberPool.sol\":1260:1280  memberActive[sender] */\n      0x00\n        /* \"MemberPool.sol\":1273:1279  sender */\n      dup3\n        /* \"MemberPool.sol\":1260:1280  memberActive[sender] */\n      0xffffffffffffffffffffffffffffffffffffffff\n      and\n      0xffffffffffffffffffffffffffffffffffffffff\n      and\n      dup2\n      mstore\n      0x20\n      add\n      swap1\n      dup2\n      mstore\n      0x20\n      add\n      0x00\n      keccak256\n      0x00\n      swap1\n      sload\n      swap1\n      0x0100\n      exp\n      swap1\n      div\n      0xff\n      and\n        /* \"MemberPool.sol\":1252:1309  require(memberActive[sender], \"Required to be a memeber\") */\n      tag_152\n      jumpi\n      mload(0x40)\n      0x08c379a000000000000000000000000000000000000000000000000000000000\n      dup2\n      mstore\n      0x04\n      add\n      tag_153\n      swap1\n      tag_127\n      jump\t// in\n    tag_153:\n      mload(0x40)\n      dup1\n      swap2\n      sub\n      swap1\n      revert\n    tag_152:\n        /* \"MemberPool.sol\":3211:3229  ApplicantPool pool */\n      0x00\n        /* \"MemberPool.sol\":3246:3266  applicantPoolAddress */\n      0x08\n      0x00\n      swap1\n      sload\n      swap1\n      0x0100\n      exp\n      swap1\n      div\n      0xffffffffffffffffffffffffffffffffffffffff\n      and\n        /* \"MemberPool.sol\":3211:3267  ApplicantPool pool = ApplicantPool(applicantPoolAddress) */\n      swap1\n      pop\n        /* \"MemberPool.sol\":3285:3289  pool */\n      dup1\n        /* \"MemberPool.sol\":3285:3303  pool.getApplicants */\n      0xffffffffffffffffffffffffffffffffffffffff\n      and\n      0x455772d2\n        /* \"MemberPool.sol\":3285:3305  pool.getApplicants() */\n      mload(0x40)\n      dup2\n      0xffffffff\n      and\n      0xe0\n      shl\n      dup2\n      mstore\n      0x04\n      add\n      0x00\n      mload(0x40)\n      dup1\n      dup4\n      sub\n      dup2\n      dup7\n      gas\n      staticcall\n      iszero\n      dup1\n      iszero\n      tag_156\n      jumpi\n      returndatasize\n      0x00\n      dup1\n      returndatacopy\n      revert(0x00, returndatasize)\n    tag_156:\n      pop\n      pop\n      pop\n      pop\n      mload(0x40)\n      returndatasize\n      0x00\n      dup3\n      returndatacopy\n      returndatasize\n      not(0x1f)\n      0x1f\n      dup3\n      add\n      and\n      dup3\n      add\n      dup1\n      0x40\n      mstore\n      pop\n      dup2\n      add\n      swap1\n      tag_157\n      swap2\n      swap1\n      tag_158\n      jump\t// in\n    tag_157:\n        /* \"MemberPool.sol\":3278:3305  return pool.getApplicants() */\n      swap3\n      pop\n      pop\n        /* \"MemberPool.sol\":3072:3313  function getApplicants()... */\n      pop\n      swap1\n      jump\t// out\n        /* \"MemberPool.sol\":488:512  address[] public members */\n    tag_65:\n      0x03\n      dup2\n      dup2\n      sload\n      dup2\n      lt\n      tag_159\n      jumpi\n      0x00\n      dup1\n      revert\n    tag_159:\n      swap1\n      0x00\n      mstore\n      keccak256(0x00, 0x20)\n      add\n      0x00\n      swap2\n      pop\n      sload\n      swap1\n      0x0100\n      exp\n      swap1\n      div\n      0xffffffffffffffffffffffffffffffffffffffff\n      and\n      dup2\n      jump\t// out\n        /* \"MemberPool.sol\":1952:2077  function reportMember(address member, string calldata report)... */\n    tag_69:\n        /* \"MemberPool.sol\":2062:2068  uint32 */\n      0x00\n        /* \"MemberPool.sol\":1952:2077  function reportMember(address member, string calldata report)... */\n      swap4\n      swap3\n      pop\n      pop\n      pop\n      jump\t// out\n        /* \"MemberPool.sol\":2968:3064  function getMemberCount() public view returns (uint256) {... */\n    tag_73:\n        /* \"MemberPool.sol\":3015:3022  uint256 */\n      0x00\n        /* \"MemberPool.sol\":3042:3049  members */\n      0x03\n        /* \"MemberPool.sol\":3042:3056  members.length */\n      dup1\n      sload\n      swap1\n      pop\n        /* \"MemberPool.sol\":3035:3056  return members.length */\n      swap1\n      pop\n        /* \"MemberPool.sol\":2968:3064  function getMemberCount() public view returns (uint256) {... */\n      swap1\n      jump\t// out\n        /* \"MemberPool.sol\":1655:1944  function increaseMemberRep(address member) public {... */\n    tag_78:\n        /* \"MemberPool.sol\":1716:1730  address caller */\n      0x00\n        /* \"MemberPool.sol\":1733:1747  userToMemberUp */\n      0x06\n        /* \"MemberPool.sol\":1733:1759  userToMemberUp[msg.sender] */\n      0x00\n        /* \"MemberPool.sol\":1748:1758  msg.sender */\n      caller\n        /* \"MemberPool.sol\":1733:1759  userToMemberUp[msg.sender] */\n      0xffffffffffffffffffffffffffffffffffffffff\n      and\n      0xffffffffffffffffffffffffffffffffffffffff\n      and\n      dup2\n      mstore\n      0x20\n      add\n      swap1\n      dup2\n      mstore\n      0x20\n      add\n      0x00\n      keccak256\n      0x00\n      swap1\n      sload\n      swap1\n      0x0100\n      exp\n      swap1\n      div\n      0xffffffffffffffffffffffffffffffffffffffff\n      and\n        /* \"MemberPool.sol\":1716:1759  address caller = userToMemberUp[msg.sender] */\n      swap1\n      pop\n        /* \"MemberPool.sol\":1788:1794  caller */\n      dup1\n        /* \"MemberPool.sol\":1778:1794  member != caller */\n      0xffffffffffffffffffffffffffffffffffffffff\n      and\n        /* \"MemberPool.sol\":1778:1784  member */\n      dup3\n        /* \"MemberPool.sol\":1778:1794  member != caller */\n      0xffffffffffffffffffffffffffffffffffffffff\n      and\n      sub\n        /* \"MemberPool.sol\":1770:1812  require(member != caller, \"Already voted\") */\n      tag_164\n      jumpi\n      mload(0x40)\n      0x08c379a000000000000000000000000000000000000000000000000000000000\n      dup2\n      mstore\n      0x04\n      add\n      tag_165\n      swap1\n      tag_166\n      jump\t// in\n    tag_165:\n      mload(0x40)\n      dup1\n      swap2\n      sub\n      swap1\n      revert\n    tag_164:\n        /* \"MemberPool.sol\":1847:1848  1 */\n      0x01\n        /* \"MemberPool.sol\":1823:1835  memberPoints */\n      0x07\n        /* \"MemberPool.sol\":1823:1843  memberPoints[member] */\n      0x00\n        /* \"MemberPool.sol\":1836:1842  member */\n      dup5\n        /* \"MemberPool.sol\":1823:1843  memberPoints[member] */\n      0xffffffffffffffffffffffffffffffffffffffff\n      and\n      0xffffffffffffffffffffffffffffffffffffffff\n      and\n      dup2\n      mstore\n      0x20\n      add\n      swap1\n      dup2\n      mstore\n      0x20\n      add\n      0x00\n      keccak256\n      0x00\n        /* \"MemberPool.sol\":1823:1848  memberPoints[member] += 1 */\n      dup3\n      dup3\n      sload\n      tag_167\n      swap2\n      swap1\n      tag_168\n      jump\t// in\n    tag_167:\n      swap3\n      pop\n      pop\n      dup2\n      swap1\n      sstore\n      pop\n        /* \"MemberPool.sol\":1888:1894  member */\n      dup2\n        /* \"MemberPool.sol\":1859:1873  userToMemberUp */\n      0x06\n        /* \"MemberPool.sol\":1859:1885  userToMemberUp[msg.sender] */\n      0x00\n        /* \"MemberPool.sol\":1874:1884  msg.sender */\n      caller\n        /* \"MemberPool.sol\":1859:1885  userToMemberUp[msg.sender] */\n      0xffffffffffffffffffffffffffffffffffffffff\n      and\n      0xffffffffffffffffffffffffffffffffffffffff\n      and\n      dup2\n      mstore\n      0x20\n      add\n      swap1\n      dup2\n      mstore\n      0x20\n      add\n      0x00\n      keccak256\n      0x00\n        /* \"MemberPool.sol\":1859:1894  userToMemberUp[msg.sender] = member */\n      0x0100\n      exp\n      dup2\n      sload\n      dup2\n      0xffffffffffffffffffffffffffffffffffffffff\n      mul\n      not\n      and\n      swap1\n      dup4\n      0xffffffffffffffffffffffffffffffffffffffff\n      and\n      mul\n      or\n      swap1\n      sstore\n      pop\n        /* \"MemberPool.sol\":1910:1936  MemberRewarded(msg.sender) */\n      0xe8ddfec65826b66ec8b03b89152bb70528fa2da92e9775cc99671b1fc7bcb0f4\n        /* \"MemberPool.sol\":1925:1935  msg.sender */\n      caller\n        /* \"MemberPool.sol\":1910:1936  MemberRewarded(msg.sender) */\n      mload(0x40)\n      tag_169\n      swap2\n      swap1\n      tag_31\n      jump\t// in\n    tag_169:\n      mload(0x40)\n      dup1\n      swap2\n      sub\n      swap1\n      log1\n        /* \"MemberPool.sol\":1705:1944  {... */\n      pop\n        /* \"MemberPool.sol\":1655:1944  function increaseMemberRep(address member) public {... */\n      pop\n      jump\t// out\n        /* \"MemberPool.sol\":456:481  string public longSummary */\n    tag_80:\n      0x02\n      dup1\n      sload\n      tag_170\n      swap1\n      tag_116\n      jump\t// in\n    tag_170:\n      dup1\n      0x1f\n      add\n      0x20\n      dup1\n      swap2\n      div\n      mul\n      0x20\n      add\n      mload(0x40)\n      swap1\n      dup2\n      add\n      0x40\n      mstore\n      dup1\n      swap3\n      swap2\n      swap1\n      dup2\n      dup2\n      mstore\n      0x20\n      add\n      dup3\n      dup1\n      sload\n      tag_171\n      swap1\n      tag_116\n      jump\t// in\n    tag_171:\n      dup1\n      iszero\n      tag_172\n      jumpi\n      dup1\n      0x1f\n      lt\n      tag_173\n      jumpi\n      0x0100\n      dup1\n      dup4\n      sload\n      div\n      mul\n      dup4\n      mstore\n      swap2\n      0x20\n      add\n      swap2\n      jump(tag_172)\n    tag_173:\n      dup3\n      add\n      swap2\n      swap1\n      0x00\n      mstore\n      keccak256(0x00, 0x20)\n      swap1\n    tag_174:\n      dup2\n      sload\n      dup2\n      mstore\n      swap1\n      0x01\n      add\n      swap1\n      0x20\n      add\n      dup1\n      dup4\n      gt\n      tag_174\n      jumpi\n      dup3\n      swap1\n      sub\n      0x1f\n      and\n      dup3\n      add\n      swap2\n    tag_172:\n      pop\n      pop\n      pop\n      pop\n      pop\n      dup2\n      jump\t// out\n        /* \"MemberPool.sol\":2085:2199  function getMemberReports(address member)... */\n    tag_84:\n        /* \"MemberPool.sol\":2175:2190  string[] memory */\n      0x60\n        /* \"MemberPool.sol\":2085:2199  function getMemberReports(address member)... */\n      swap2\n      swap1\n      pop\n      jump\t// out\n        /* \"MemberPool.sol\":1337:1464  function getMembers()... */\n    tag_88:\n        /* \"MemberPool.sol\":1439:1455  address[] memory */\n      0x60\n        /* \"MemberPool.sol\":1409:1419  msg.sender */\n      caller\n        /* \"MemberPool.sol\":1260:1272  memberActive */\n      0x04\n        /* \"MemberPool.sol\":1260:1280  memberActive[sender] */\n      0x00\n        /* \"MemberPool.sol\":1273:1279  sender */\n      dup3\n        /* \"MemberPool.sol\":1260:1280  memberActive[sender] */\n      0xffffffffffffffffffffffffffffffffffffffff\n      and\n      0xffffffffffffffffffffffffffffffffffffffff\n      and\n      dup2\n      mstore\n      0x20\n      add\n      swap1\n      dup2\n      mstore\n      0x20\n      add\n      0x00\n      keccak256\n      0x00\n      swap1\n      sload\n      swap1\n      0x0100\n      exp\n      swap1\n      div\n      0xff\n      and\n        /* \"MemberPool.sol\":1252:1309  require(memberActive[sender], \"Required to be a memeber\") */\n      tag_177\n      jumpi\n      mload(0x40)\n      0x08c379a000000000000000000000000000000000000000000000000000000000\n      dup2\n      mstore\n      0x04\n      add\n      tag_178\n      swap1\n      tag_127\n      jump\t// in\n    tag_178:\n      mload(0x40)\n      dup1\n      swap2\n      sub\n      swap1\n      revert\n    tag_177:\n        /* \"MemberPool.sol\":1337:1464  function getMembers()... */\n      pop\n      swap1\n      jump\t// out\n        /* \"MemberPool.sol\":1548:1647  function isMember(address id) public view returns (bool) {... */\n    tag_92:\n        /* \"MemberPool.sol\":1599:1603  bool */\n      0x00\n        /* \"MemberPool.sol\":1623:1635  memberActive */\n      0x04\n        /* \"MemberPool.sol\":1623:1639  memberActive[id] */\n      0x00\n        /* \"MemberPool.sol\":1636:1638  id */\n      dup4\n        /* \"MemberPool.sol\":1623:1639  memberActive[id] */\n      0xffffffffffffffffffffffffffffffffffffffff\n      and\n      0xffffffffffffffffffffffffffffffffffffffff\n      and\n      dup2\n      mstore\n      0x20\n      add\n      swap1\n      dup2\n      mstore\n      0x20\n      add\n      0x00\n      keccak256\n      0x00\n      swap1\n      sload\n      swap1\n      0x0100\n      exp\n      swap1\n      div\n      0xff\n      and\n        /* \"MemberPool.sol\":1616:1639  return memberActive[id] */\n      swap1\n      pop\n        /* \"MemberPool.sol\":1548:1647  function isMember(address id) public view returns (bool) {... */\n      swap2\n      swap1\n      pop\n      jump\t// out\n        /* \"MemberPool.sol\":711:746  address public applicantPoolAddress */\n    tag_95:\n      0x08\n      0x00\n      swap1\n      sload\n      swap1\n      0x0100\n      exp\n      swap1\n      div\n      0xffffffffffffffffffffffffffffffffffffffff\n      and\n      dup2\n      jump\t// out\n        /* \"MemberPool.sol\":658:704  mapping(address => int256) public memberPoints */\n    tag_99:\n      mstore(0x20, 0x07)\n      dup1\n      0x00\n      mstore\n      keccak256(0x00, 0x40)\n      0x00\n      swap2\n      pop\n      swap1\n      pop\n      sload\n      dup2\n      jump\t// out\n        /* \"MemberPool.sol\":782:813  address public memberMapAddress */\n    tag_103:\n      0x0a\n      0x00\n      swap1\n      sload\n      swap1\n      0x0100\n      exp\n      swap1\n      div\n      0xffffffffffffffffffffffffffffffffffffffff\n      and\n      dup2\n      jump\t// out\n        /* \"MemberPool.sol\":423:449  string public shortSummary */\n    tag_106:\n      0x01\n      dup1\n      sload\n      tag_181\n      swap1\n      tag_116\n      jump\t// in\n    tag_181:\n      dup1\n      0x1f\n      add\n      0x20\n      dup1\n      swap2\n      div\n      mul\n      0x20\n      add\n      mload(0x40)\n      swap1\n      dup2\n      add\n      0x40\n      mstore\n      dup1\n      swap3\n      swap2\n      swap1\n      dup2\n      dup2\n      mstore\n      0x20\n      add\n      dup3\n      dup1\n      sload\n      tag_182\n      swap1\n      tag_116\n      jump\t// in\n    tag_182:\n      dup1\n      iszero\n      tag_183\n      jumpi\n      dup1\n      0x1f\n      lt\n      tag_184\n      jumpi\n      0x0100\n      dup1\n      dup4\n      sload\n      div\n      mul\n      dup4\n      mstore\n      swap2\n      0x20\n      add\n      swap2\n      jump(tag_183)\n    tag_184:\n      dup3\n      add\n      swap2\n      swap1\n      0x00\n      mstore\n      keccak256(0x00, 0x20)\n      swap1\n    tag_185:\n      dup2\n      sload\n      dup2\n      mstore\n      swap1\n      0x01\n      add\n      swap1\n      0x20\n      add\n      dup1\n      dup4\n      gt\n      tag_185\n      jumpi\n      dup3\n      swap1\n      sub\n      0x1f\n      and\n      dup3\n      add\n      swap2\n    tag_183:\n      pop\n      pop\n      pop\n      pop\n      pop\n      dup2\n      jump\t// out\n        /* \"MemberPool.sol\":2207:2307  function dismissMemberReport(address member)... */\n    tag_110:\n        /* \"MemberPool.sol\":2288:2298  msg.sender */\n      caller\n        /* \"MemberPool.sol\":1260:1272  memberActive */\n      0x04\n        /* \"MemberPool.sol\":1260:1280  memberActive[sender] */\n      0x00\n        /* \"MemberPool.sol\":1273:1279  sender */\n      dup3\n        /* \"MemberPool.sol\":1260:1280  memberActive[sender] */\n      0xffffffffffffffffffffffffffffffffffffffff\n      and\n      0xffffffffffffffffffffffffffffffffffffffff\n      and\n      dup2\n      mstore\n      0x20\n      add\n      swap1\n      dup2\n      mstore\n      0x20\n      add\n      0x00\n      keccak256\n      0x00\n      swap1\n      sload\n      swap1\n      0x0100\n      exp\n      swap1\n      div\n      0xff\n      and\n        /* \"MemberPool.sol\":1252:1309  require(memberActive[sender], \"Required to be a memeber\") */\n      tag_187\n      jumpi\n      mload(0x40)\n      0x08c379a000000000000000000000000000000000000000000000000000000000\n      dup2\n      mstore\n      0x04\n      add\n      tag_188\n      swap1\n      tag_127\n      jump\t// in\n    tag_188:\n      mload(0x40)\n      dup1\n      swap2\n      sub\n      swap1\n      revert\n    tag_187:\n        /* \"MemberPool.sol\":2207:2307  function dismissMemberReport(address member)... */\n      pop\n      pop\n      jump\t// out\n        /* \"MemberPool.sol\":602:651  mapping(address => address) public userToMemberUp */\n    tag_113:\n      mstore(0x20, 0x06)\n      dup1\n      0x00\n      mstore\n      keccak256(0x00, 0x40)\n      0x00\n      swap2\n      pop\n      sload\n      swap1\n      0x0100\n      exp\n      swap1\n      div\n      0xffffffffffffffffffffffffffffffffffffffff\n      and\n      dup2\n      jump\t// out\n        /* \"#utility.yul\":7:133   */\n    tag_190:\n        /* \"#utility.yul\":44:51   */\n      0x00\n        /* \"#utility.yul\":84:126   */\n      0xffffffffffffffffffffffffffffffffffffffff\n        /* \"#utility.yul\":77:82   */\n      dup3\n        /* \"#utility.yul\":73:127   */\n      and\n        /* \"#utility.yul\":62:127   */\n      swap1\n      pop\n        /* \"#utility.yul\":7:133   */\n      swap2\n      swap1\n      pop\n      jump\t// out\n        /* \"#utility.yul\":139:235   */\n    tag_191:\n        /* \"#utility.yul\":176:183   */\n      0x00\n        /* \"#utility.yul\":205:229   */\n      tag_253\n        /* \"#utility.yul\":223:228   */\n      dup3\n        /* \"#utility.yul\":205:229   */\n      tag_190\n      jump\t// in\n    tag_253:\n        /* \"#utility.yul\":194:229   */\n      swap1\n      pop\n        /* \"#utility.yul\":139:235   */\n      swap2\n      swap1\n      pop\n      jump\t// out\n        /* \"#utility.yul\":241:359   */\n    tag_192:\n        /* \"#utility.yul\":328:352   */\n      tag_255\n        /* \"#utility.yul\":346:351   */\n      dup2\n        /* \"#utility.yul\":328:352   */\n      tag_191\n      jump\t// in\n    tag_255:\n        /* \"#utility.yul\":323:326   */\n      dup3\n        /* \"#utility.yul\":316:353   */\n      mstore\n        /* \"#utility.yul\":241:359   */\n      pop\n      pop\n      jump\t// out\n        /* \"#utility.yul\":365:587   */\n    tag_31:\n        /* \"#utility.yul\":458:462   */\n      0x00\n        /* \"#utility.yul\":496:498   */\n      0x20\n        /* \"#utility.yul\":485:494   */\n      dup3\n        /* \"#utility.yul\":481:499   */\n      add\n        /* \"#utility.yul\":473:499   */\n      swap1\n      pop\n        /* \"#utility.yul\":509:580   */\n      tag_257\n        /* \"#utility.yul\":577:578   */\n      0x00\n        /* \"#utility.yul\":566:575   */\n      dup4\n        /* \"#utility.yul\":562:579   */\n      add\n        /* \"#utility.yul\":553:559   */\n      dup5\n        /* \"#utility.yul\":509:580   */\n      tag_192\n      jump\t// in\n    tag_257:\n        /* \"#utility.yul\":365:587   */\n      swap3\n      swap2\n      pop\n      pop\n      jump\t// out\n        /* \"#utility.yul\":593:692   */\n    tag_193:\n        /* \"#utility.yul\":645:651   */\n      0x00\n        /* \"#utility.yul\":679:684   */\n      dup2\n        /* \"#utility.yul\":673:685   */\n      mload\n        /* \"#utility.yul\":663:685   */\n      swap1\n      pop\n        /* \"#utility.yul\":593:692   */\n      swap2\n      swap1\n      pop\n      jump\t// out\n        /* \"#utility.yul\":698:867   */\n    tag_194:\n        /* \"#utility.yul\":782:793   */\n      0x00\n        /* \"#utility.yul\":816:822   */\n      dup3\n        /* \"#utility.yul\":811:814   */\n      dup3\n        /* \"#utility.yul\":804:823   */\n      mstore\n        /* \"#utility.yul\":856:860   */\n      0x20\n        /* \"#utility.yul\":851:854   */\n      dup3\n        /* \"#utility.yul\":847:861   */\n      add\n        /* \"#utility.yul\":832:861   */\n      swap1\n      pop\n        /* \"#utility.yul\":698:867   */\n      swap3\n      swap2\n      pop\n      pop\n      jump\t// out\n        /* \"#utility.yul\":873:1119   */\n    tag_195:\n        /* \"#utility.yul\":954:955   */\n      0x00\n        /* \"#utility.yul\":964:1077   */\n    tag_261:\n        /* \"#utility.yul\":978:984   */\n      dup4\n        /* \"#utility.yul\":975:976   */\n      dup2\n        /* \"#utility.yul\":972:985   */\n      lt\n        /* \"#utility.yul\":964:1077   */\n      iszero\n      tag_263\n      jumpi\n        /* \"#utility.yul\":1063:1064   */\n      dup1\n        /* \"#utility.yul\":1058:1061   */\n      dup3\n        /* \"#utility.yul\":1054:1065   */\n      add\n        /* \"#utility.yul\":1048:1066   */\n      mload\n        /* \"#utility.yul\":1044:1045   */\n      dup2\n        /* \"#utility.yul\":1039:1042   */\n      dup5\n        /* \"#utility.yul\":1035:1046   */\n      add\n        /* \"#utility.yul\":1028:1067   */\n      mstore\n        /* \"#utility.yul\":1000:1002   */\n      0x20\n        /* \"#utility.yul\":997:998   */\n      dup2\n        /* \"#utility.yul\":993:1003   */\n      add\n        /* \"#utility.yul\":988:1003   */\n      swap1\n      pop\n        /* \"#utility.yul\":964:1077   */\n      jump(tag_261)\n    tag_263:\n        /* \"#utility.yul\":1111:1112   */\n      0x00\n        /* \"#utility.yul\":1102:1108   */\n      dup5\n        /* \"#utility.yul\":1097:1100   */\n      dup5\n        /* \"#utility.yul\":1093:1109   */\n      add\n        /* \"#utility.yul\":1086:1113   */\n      mstore\n        /* \"#utility.yul\":935:1119   */\n      pop\n        /* \"#utility.yul\":873:1119   */\n      pop\n      pop\n      pop\n      jump\t// out\n        /* \"#utility.yul\":1125:1227   */\n    tag_196:\n        /* \"#utility.yul\":1166:1172   */\n      0x00\n        /* \"#utility.yul\":1217:1219   */\n      0x1f\n        /* \"#utility.yul\":1213:1220   */\n      not\n        /* \"#utility.yul\":1208:1210   */\n      0x1f\n        /* \"#utility.yul\":1201:1206   */\n      dup4\n        /* \"#utility.yul\":1197:1211   */\n      add\n        /* \"#utility.yul\":1193:1221   */\n      and\n        /* \"#utility.yul\":1183:1221   */\n      swap1\n      pop\n        /* \"#utility.yul\":1125:1227   */\n      swap2\n      swap1\n      pop\n      jump\t// out\n        /* \"#utility.yul\":1233:1610   */\n    tag_197:\n        /* \"#utility.yul\":1321:1324   */\n      0x00\n        /* \"#utility.yul\":1349:1388   */\n      tag_266\n        /* \"#utility.yul\":1382:1387   */\n      dup3\n        /* \"#utility.yul\":1349:1388   */\n      tag_193\n      jump\t// in\n    tag_266:\n        /* \"#utility.yul\":1404:1475   */\n      tag_267\n        /* \"#utility.yul\":1468:1474   */\n      dup2\n        /* \"#utility.yul\":1463:1466   */\n      dup6\n        /* \"#utility.yul\":1404:1475   */\n      tag_194\n      jump\t// in\n    tag_267:\n        /* \"#utility.yul\":1397:1475   */\n      swap4\n      pop\n        /* \"#utility.yul\":1484:1549   */\n      tag_268\n        /* \"#utility.yul\":1542:1548   */\n      dup2\n        /* \"#utility.yul\":1537:1540   */\n      dup6\n        /* \"#utility.yul\":1530:1534   */\n      0x20\n        /* \"#utility.yul\":1523:1528   */\n      dup7\n        /* \"#utility.yul\":1519:1535   */\n      add\n        /* \"#utility.yul\":1484:1549   */\n      tag_195\n      jump\t// in\n    tag_268:\n        /* \"#utility.yul\":1574:1603   */\n      tag_269\n        /* \"#utility.yul\":1596:1602   */\n      dup2\n        /* \"#utility.yul\":1574:1603   */\n      tag_196\n      jump\t// in\n    tag_269:\n        /* \"#utility.yul\":1569:1572   */\n      dup5\n        /* \"#utility.yul\":1565:1604   */\n      add\n        /* \"#utility.yul\":1558:1604   */\n      swap2\n      pop\n        /* \"#utility.yul\":1325:1610   */\n      pop\n        /* \"#utility.yul\":1233:1610   */\n      swap3\n      swap2\n      pop\n      pop\n      jump\t// out\n        /* \"#utility.yul\":1616:1929   */\n    tag_35:\n        /* \"#utility.yul\":1729:1733   */\n      0x00\n        /* \"#utility.yul\":1767:1769   */\n      0x20\n        /* \"#utility.yul\":1756:1765   */\n      dup3\n        /* \"#utility.yul\":1752:1770   */\n      add\n        /* \"#utility.yul\":1744:1770   */\n      swap1\n      pop\n        /* \"#utility.yul\":1816:1825   */\n      dup2\n        /* \"#utility.yul\":1810:1814   */\n      dup2\n        /* \"#utility.yul\":1806:1826   */\n      sub\n        /* \"#utility.yul\":1802:1803   */\n      0x00\n        /* \"#utility.yul\":1791:1800   */\n      dup4\n        /* \"#utility.yul\":1787:1804   */\n      add\n        /* \"#utility.yul\":1780:1827   */\n      mstore\n        /* \"#utility.yul\":1844:1922   */\n      tag_271\n        /* \"#utility.yul\":1917:1921   */\n      dup2\n        /* \"#utility.yul\":1908:1914   */\n      dup5\n        /* \"#utility.yul\":1844:1922   */\n      tag_197\n      jump\t// in\n    tag_271:\n        /* \"#utility.yul\":1836:1922   */\n      swap1\n      pop\n        /* \"#utility.yul\":1616:1929   */\n      swap3\n      swap2\n      pop\n      pop\n      jump\t// out\n        /* \"#utility.yul\":1935:2010   */\n    tag_198:\n        /* \"#utility.yul\":1968:1974   */\n      0x00\n        /* \"#utility.yul\":2001:2003   */\n      0x40\n        /* \"#utility.yul\":1995:2004   */\n      mload\n        /* \"#utility.yul\":1985:2004   */\n      swap1\n      pop\n        /* \"#utility.yul\":1935:2010   */\n      swap1\n      jump\t// out\n        /* \"#utility.yul\":2016:2133   */\n    tag_199:\n        /* \"#utility.yul\":2125:2126   */\n      0x00\n        /* \"#utility.yul\":2122:2123   */\n      dup1\n        /* \"#utility.yul\":2115:2127   */\n      revert\n        /* \"#utility.yul\":2139:2256   */\n    tag_200:\n        /* \"#utility.yul\":2248:2249   */\n      0x00\n        /* \"#utility.yul\":2245:2246   */\n      dup1\n        /* \"#utility.yul\":2238:2250   */\n      revert\n        /* \"#utility.yul\":2262:2339   */\n    tag_201:\n        /* \"#utility.yul\":2299:2306   */\n      0x00\n        /* \"#utility.yul\":2328:2333   */\n      dup2\n        /* \"#utility.yul\":2317:2333   */\n      swap1\n      pop\n        /* \"#utility.yul\":2262:2339   */\n      swap2\n      swap1\n      pop\n      jump\t// out\n        /* \"#utility.yul\":2345:2467   */\n    tag_202:\n        /* \"#utility.yul\":2418:2442   */\n      tag_277\n        /* \"#utility.yul\":2436:2441   */\n      dup2\n        /* \"#utility.yul\":2418:2442   */\n      tag_201\n      jump\t// in\n    tag_277:\n        /* \"#utility.yul\":2411:2416   */\n      dup2\n        /* \"#utility.yul\":2408:2443   */\n      eq\n        /* \"#utility.yul\":2398:2461   */\n      tag_278\n      jumpi\n        /* \"#utility.yul\":2457:2458   */\n      0x00\n        /* \"#utility.yul\":2454:2455   */\n      dup1\n        /* \"#utility.yul\":2447:2459   */\n      revert\n        /* \"#utility.yul\":2398:2461   */\n    tag_278:\n        /* \"#utility.yul\":2345:2467   */\n      pop\n      jump\t// out\n        /* \"#utility.yul\":2473:2612   */\n    tag_203:\n        /* \"#utility.yul\":2519:2524   */\n      0x00\n        /* \"#utility.yul\":2557:2563   */\n      dup2\n        /* \"#utility.yul\":2544:2564   */\n      calldataload\n        /* \"#utility.yul\":2535:2564   */\n      swap1\n      pop\n        /* \"#utility.yul\":2573:2606   */\n      tag_280\n        /* \"#utility.yul\":2600:2605   */\n      dup2\n        /* \"#utility.yul\":2573:2606   */\n      tag_202\n      jump\t// in\n    tag_280:\n        /* \"#utility.yul\":2473:2612   */\n      swap3\n      swap2\n      pop\n      pop\n      jump\t// out\n        /* \"#utility.yul\":2618:2947   */\n    tag_38:\n        /* \"#utility.yul\":2677:2683   */\n      0x00\n        /* \"#utility.yul\":2726:2728   */\n      0x20\n        /* \"#utility.yul\":2714:2723   */\n      dup3\n        /* \"#utility.yul\":2705:2712   */\n      dup5\n        /* \"#utility.yul\":2701:2724   */\n      sub\n        /* \"#utility.yul\":2697:2729   */\n      slt\n        /* \"#utility.yul\":2694:2813   */\n      iszero\n      tag_282\n      jumpi\n        /* \"#utility.yul\":2732:2811   */\n      tag_283\n      tag_199\n      jump\t// in\n    tag_283:\n        /* \"#utility.yul\":2694:2813   */\n    tag_282:\n        /* \"#utility.yul\":2852:2853   */\n      0x00\n        /* \"#utility.yul\":2877:2930   */\n      tag_284\n        /* \"#utility.yul\":2922:2929   */\n      dup5\n        /* \"#utility.yul\":2913:2919   */\n      dup3\n        /* \"#utility.yul\":2902:2911   */\n      dup6\n        /* \"#utility.yul\":2898:2920   */\n      add\n        /* \"#utility.yul\":2877:2930   */\n      tag_203\n      jump\t// in\n    tag_284:\n        /* \"#utility.yul\":2867:2930   */\n      swap2\n      pop\n        /* \"#utility.yul\":2823:2940   */\n      pop\n        /* \"#utility.yul\":2618:2947   */\n      swap3\n      swap2\n      pop\n      pop\n      jump\t// out\n        /* \"#utility.yul\":2953:3075   */\n    tag_204:\n        /* \"#utility.yul\":3026:3050   */\n      tag_286\n        /* \"#utility.yul\":3044:3049   */\n      dup2\n        /* \"#utility.yul\":3026:3050   */\n      tag_191\n      jump\t// in\n    tag_286:\n        /* \"#utility.yul\":3019:3024   */\n      dup2\n        /* \"#utility.yul\":3016:3051   */\n      eq\n        /* \"#utility.yul\":3006:3069   */\n      tag_287\n      jumpi\n        /* \"#utility.yul\":3065:3066   */\n      0x00\n        /* \"#utility.yul\":3062:3063   */\n      dup1\n        /* \"#utility.yul\":3055:3067   */\n      revert\n        /* \"#utility.yul\":3006:3069   */\n    tag_287:\n        /* \"#utility.yul\":2953:3075   */\n      pop\n      jump\t// out\n        /* \"#utility.yul\":3081:3220   */\n    tag_205:\n        /* \"#utility.yul\":3127:3132   */\n      0x00\n        /* \"#utility.yul\":3165:3171   */\n      dup2\n        /* \"#utility.yul\":3152:3172   */\n      calldataload\n        /* \"#utility.yul\":3143:3172   */\n      swap1\n      pop\n        /* \"#utility.yul\":3181:3214   */\n      tag_289\n        /* \"#utility.yul\":3208:3213   */\n      dup2\n        /* \"#utility.yul\":3181:3214   */\n      tag_204\n      jump\t// in\n    tag_289:\n        /* \"#utility.yul\":3081:3220   */\n      swap3\n      swap2\n      pop\n      pop\n      jump\t// out\n        /* \"#utility.yul\":3226:3555   */\n    tag_43:\n        /* \"#utility.yul\":3285:3291   */\n      0x00\n        /* \"#utility.yul\":3334:3336   */\n      0x20\n        /* \"#utility.yul\":3322:3331   */\n      dup3\n        /* \"#utility.yul\":3313:3320   */\n      dup5\n        /* \"#utility.yul\":3309:3332   */\n      sub\n        /* \"#utility.yul\":3305:3337   */\n      slt\n        /* \"#utility.yul\":3302:3421   */\n      iszero\n      tag_291\n      jumpi\n        /* \"#utility.yul\":3340:3419   */\n      tag_292\n      tag_199\n      jump\t// in\n    tag_292:\n        /* \"#utility.yul\":3302:3421   */\n    tag_291:\n        /* \"#utility.yul\":3460:3461   */\n      0x00\n        /* \"#utility.yul\":3485:3538   */\n      tag_293\n        /* \"#utility.yul\":3530:3537   */\n      dup5\n        /* \"#utility.yul\":3521:3527   */\n      dup3\n        /* \"#utility.yul\":3510:3519   */\n      dup6\n        /* \"#utility.yul\":3506:3528   */\n      add\n        /* \"#utility.yul\":3485:3538   */\n      tag_205\n      jump\t// in\n    tag_293:\n        /* \"#utility.yul\":3475:3538   */\n      swap2\n      pop\n        /* \"#utility.yul\":3431:3548   */\n      pop\n        /* \"#utility.yul\":3226:3555   */\n      swap3\n      swap2\n      pop\n      pop\n      jump\t// out\n        /* \"#utility.yul\":3561:3651   */\n    tag_206:\n        /* \"#utility.yul\":3596:3603   */\n      0x00\n        /* \"#utility.yul\":3639:3644   */\n      dup2\n        /* \"#utility.yul\":3636:3637   */\n      0x03\n        /* \"#utility.yul\":3625:3645   */\n      signextend\n        /* \"#utility.yul\":3614:3645   */\n      swap1\n      pop\n        /* \"#utility.yul\":3561:3651   */\n      swap2\n      swap1\n      pop\n      jump\t// out\n        /* \"#utility.yul\":3657:3769   */\n    tag_207:\n        /* \"#utility.yul\":3740:3762   */\n      tag_296\n        /* \"#utility.yul\":3756:3761   */\n      dup2\n        /* \"#utility.yul\":3740:3762   */\n      tag_206\n      jump\t// in\n    tag_296:\n        /* \"#utility.yul\":3735:3738   */\n      dup3\n        /* \"#utility.yul\":3728:3763   */\n      mstore\n        /* \"#utility.yul\":3657:3769   */\n      pop\n      pop\n      jump\t// out\n        /* \"#utility.yul\":3775:3989   */\n    tag_46:\n        /* \"#utility.yul\":3864:3868   */\n      0x00\n        /* \"#utility.yul\":3902:3904   */\n      0x20\n        /* \"#utility.yul\":3891:3900   */\n      dup3\n        /* \"#utility.yul\":3887:3905   */\n      add\n        /* \"#utility.yul\":3879:3905   */\n      swap1\n      pop\n        /* \"#utility.yul\":3915:3982   */\n      tag_298\n        /* \"#utility.yul\":3979:3980   */\n      0x00\n        /* \"#utility.yul\":3968:3977   */\n      dup4\n        /* \"#utility.yul\":3964:3981   */\n      add\n        /* \"#utility.yul\":3955:3961   */\n      dup5\n        /* \"#utility.yul\":3915:3982   */\n      tag_207\n      jump\t// in\n    tag_298:\n        /* \"#utility.yul\":3775:3989   */\n      swap3\n      swap2\n      pop\n      pop\n      jump\t// out\n        /* \"#utility.yul\":3995:4112   */\n    tag_208:\n        /* \"#utility.yul\":4104:4105   */\n      0x00\n        /* \"#utility.yul\":4101:4102   */\n      dup1\n        /* \"#utility.yul\":4094:4106   */\n      revert\n        /* \"#utility.yul\":4118:4235   */\n    tag_209:\n        /* \"#utility.yul\":4227:4228   */\n      0x00\n        /* \"#utility.yul\":4224:4225   */\n      dup1\n        /* \"#utility.yul\":4217:4229   */\n      revert\n        /* \"#utility.yul\":4241:4358   */\n    tag_210:\n        /* \"#utility.yul\":4350:4351   */\n      0x00\n        /* \"#utility.yul\":4347:4348   */\n      dup1\n        /* \"#utility.yul\":4340:4352   */\n      revert\n        /* \"#utility.yul\":4378:4931   */\n    tag_211:\n        /* \"#utility.yul\":4436:4444   */\n      0x00\n        /* \"#utility.yul\":4446:4452   */\n      dup1\n        /* \"#utility.yul\":4496:4499   */\n      dup4\n        /* \"#utility.yul\":4489:4493   */\n      0x1f\n        /* \"#utility.yul\":4481:4487   */\n      dup5\n        /* \"#utility.yul\":4477:4494   */\n      add\n        /* \"#utility.yul\":4473:4500   */\n      slt\n        /* \"#utility.yul\":4463:4585   */\n      tag_303\n      jumpi\n        /* \"#utility.yul\":4504:4583   */\n      tag_304\n      tag_208\n      jump\t// in\n    tag_304:\n        /* \"#utility.yul\":4463:4585   */\n    tag_303:\n        /* \"#utility.yul\":4617:4623   */\n      dup3\n        /* \"#utility.yul\":4604:4624   */\n      calldataload\n        /* \"#utility.yul\":4594:4624   */\n      swap1\n      pop\n        /* \"#utility.yul\":4647:4665   */\n      0xffffffffffffffff\n        /* \"#utility.yul\":4639:4645   */\n      dup2\n        /* \"#utility.yul\":4636:4666   */\n      gt\n        /* \"#utility.yul\":4633:4750   */\n      iszero\n      tag_305\n      jumpi\n        /* \"#utility.yul\":4669:4748   */\n      tag_306\n      tag_209\n      jump\t// in\n    tag_306:\n        /* \"#utility.yul\":4633:4750   */\n    tag_305:\n        /* \"#utility.yul\":4783:4787   */\n      0x20\n        /* \"#utility.yul\":4775:4781   */\n      dup4\n        /* \"#utility.yul\":4771:4788   */\n      add\n        /* \"#utility.yul\":4759:4788   */\n      swap2\n      pop\n        /* \"#utility.yul\":4837:4840   */\n      dup4\n        /* \"#utility.yul\":4829:4833   */\n      0x01\n        /* \"#utility.yul\":4821:4827   */\n      dup3\n        /* \"#utility.yul\":4817:4834   */\n      mul\n        /* \"#utility.yul\":4807:4815   */\n      dup4\n        /* \"#utility.yul\":4803:4835   */\n      add\n        /* \"#utility.yul\":4800:4841   */\n      gt\n        /* \"#utility.yul\":4797:4925   */\n      iszero\n      tag_307\n      jumpi\n        /* \"#utility.yul\":4844:4923   */\n      tag_308\n      tag_210\n      jump\t// in\n    tag_308:\n        /* \"#utility.yul\":4797:4925   */\n    tag_307:\n        /* \"#utility.yul\":4378:4931   */\n      swap3\n      pop\n      swap3\n      swap1\n      pop\n      jump\t// out\n        /* \"#utility.yul\":4937:5611   */\n    tag_49:\n        /* \"#utility.yul\":5017:5023   */\n      0x00\n        /* \"#utility.yul\":5025:5031   */\n      dup1\n        /* \"#utility.yul\":5033:5039   */\n      0x00\n        /* \"#utility.yul\":5082:5084   */\n      0x40\n        /* \"#utility.yul\":5070:5079   */\n      dup5\n        /* \"#utility.yul\":5061:5068   */\n      dup7\n        /* \"#utility.yul\":5057:5080   */\n      sub\n        /* \"#utility.yul\":5053:5085   */\n      slt\n        /* \"#utility.yul\":5050:5169   */\n      iszero\n      tag_310\n      jumpi\n        /* \"#utility.yul\":5088:5167   */\n      tag_311\n      tag_199\n      jump\t// in\n    tag_311:\n        /* \"#utility.yul\":5050:5169   */\n    tag_310:\n        /* \"#utility.yul\":5208:5209   */\n      0x00\n        /* \"#utility.yul\":5233:5286   */\n      tag_312\n        /* \"#utility.yul\":5278:5285   */\n      dup7\n        /* \"#utility.yul\":5269:5275   */\n      dup3\n        /* \"#utility.yul\":5258:5267   */\n      dup8\n        /* \"#utility.yul\":5254:5276   */\n      add\n        /* \"#utility.yul\":5233:5286   */\n      tag_205\n      jump\t// in\n    tag_312:\n        /* \"#utility.yul\":5223:5286   */\n      swap4\n      pop\n        /* \"#utility.yul\":5179:5296   */\n      pop\n        /* \"#utility.yul\":5363:5365   */\n      0x20\n        /* \"#utility.yul\":5352:5361   */\n      dup5\n        /* \"#utility.yul\":5348:5366   */\n      add\n        /* \"#utility.yul\":5335:5367   */\n      calldataload\n        /* \"#utility.yul\":5394:5412   */\n      0xffffffffffffffff\n        /* \"#utility.yul\":5386:5392   */\n      dup2\n        /* \"#utility.yul\":5383:5413   */\n      gt\n        /* \"#utility.yul\":5380:5497   */\n      iszero\n      tag_313\n      jumpi\n        /* \"#utility.yul\":5416:5495   */\n      tag_314\n      tag_200\n      jump\t// in\n    tag_314:\n        /* \"#utility.yul\":5380:5497   */\n    tag_313:\n        /* \"#utility.yul\":5529:5594   */\n      tag_315\n        /* \"#utility.yul\":5586:5593   */\n      dup7\n        /* \"#utility.yul\":5577:5583   */\n      dup3\n        /* \"#utility.yul\":5566:5575   */\n      dup8\n        /* \"#utility.yul\":5562:5584   */\n      add\n        /* \"#utility.yul\":5529:5594   */\n      tag_211\n      jump\t// in\n    tag_315:\n        /* \"#utility.yul\":5511:5594   */\n      swap3\n      pop\n      swap3\n      pop\n        /* \"#utility.yul\":5306:5604   */\n      pop\n        /* \"#utility.yul\":4937:5611   */\n      swap3\n      pop\n      swap3\n      pop\n      swap3\n      jump\t// out\n        /* \"#utility.yul\":5617:5707   */\n    tag_212:\n        /* \"#utility.yul\":5651:5658   */\n      0x00\n        /* \"#utility.yul\":5694:5699   */\n      dup2\n        /* \"#utility.yul\":5687:5700   */\n      iszero\n        /* \"#utility.yul\":5680:5701   */\n      iszero\n        /* \"#utility.yul\":5669:5701   */\n      swap1\n      pop\n        /* \"#utility.yul\":5617:5707   */\n      swap2\n      swap1\n      pop\n      jump\t// out\n        /* \"#utility.yul\":5713:5822   */\n    tag_213:\n        /* \"#utility.yul\":5794:5815   */\n      tag_318\n        /* \"#utility.yul\":5809:5814   */\n      dup2\n        /* \"#utility.yul\":5794:5815   */\n      tag_212\n      jump\t// in\n    tag_318:\n        /* \"#utility.yul\":5789:5792   */\n      dup3\n        /* \"#utility.yul\":5782:5816   */\n      mstore\n        /* \"#utility.yul\":5713:5822   */\n      pop\n      pop\n      jump\t// out\n        /* \"#utility.yul\":5828:6038   */\n    tag_58:\n        /* \"#utility.yul\":5915:5919   */\n      0x00\n        /* \"#utility.yul\":5953:5955   */\n      0x20\n        /* \"#utility.yul\":5942:5951   */\n      dup3\n        /* \"#utility.yul\":5938:5956   */\n      add\n        /* \"#utility.yul\":5930:5956   */\n      swap1\n      pop\n        /* \"#utility.yul\":5966:6031   */\n      tag_320\n        /* \"#utility.yul\":6028:6029   */\n      0x00\n        /* \"#utility.yul\":6017:6026   */\n      dup4\n        /* \"#utility.yul\":6013:6030   */\n      add\n        /* \"#utility.yul\":6004:6010   */\n      dup5\n        /* \"#utility.yul\":5966:6031   */\n      tag_213\n      jump\t// in\n    tag_320:\n        /* \"#utility.yul\":5828:6038   */\n      swap3\n      swap2\n      pop\n      pop\n      jump\t// out\n        /* \"#utility.yul\":6044:6158   */\n    tag_214:\n        /* \"#utility.yul\":6111:6117   */\n      0x00\n        /* \"#utility.yul\":6145:6150   */\n      dup2\n        /* \"#utility.yul\":6139:6151   */\n      mload\n        /* \"#utility.yul\":6129:6151   */\n      swap1\n      pop\n        /* \"#utility.yul\":6044:6158   */\n      swap2\n      swap1\n      pop\n      jump\t// out\n        /* \"#utility.yul\":6164:6348   */\n    tag_215:\n        /* \"#utility.yul\":6263:6274   */\n      0x00\n        /* \"#utility.yul\":6297:6303   */\n      dup3\n        /* \"#utility.yul\":6292:6295   */\n      dup3\n        /* \"#utility.yul\":6285:6304   */\n      mstore\n        /* \"#utility.yul\":6337:6341   */\n      0x20\n        /* \"#utility.yul\":6332:6335   */\n      dup3\n        /* \"#utility.yul\":6328:6342   */\n      add\n        /* \"#utility.yul\":6313:6342   */\n      swap1\n      pop\n        /* \"#utility.yul\":6164:6348   */\n      swap3\n      swap2\n      pop\n      pop\n      jump\t// out\n        /* \"#utility.yul\":6354:6486   */\n    tag_216:\n        /* \"#utility.yul\":6421:6425   */\n      0x00\n        /* \"#utility.yul\":6444:6447   */\n      dup2\n        /* \"#utility.yul\":6436:6447   */\n      swap1\n      pop\n        /* \"#utility.yul\":6474:6478   */\n      0x20\n        /* \"#utility.yul\":6469:6472   */\n      dup3\n        /* \"#utility.yul\":6465:6479   */\n      add\n        /* \"#utility.yul\":6457:6479   */\n      swap1\n      pop\n        /* \"#utility.yul\":6354:6486   */\n      swap2\n      swap1\n      pop\n      jump\t// out\n        /* \"#utility.yul\":6492:6600   */\n    tag_217:\n        /* \"#utility.yul\":6569:6593   */\n      tag_325\n        /* \"#utility.yul\":6587:6592   */\n      dup2\n        /* \"#utility.yul\":6569:6593   */\n      tag_191\n      jump\t// in\n    tag_325:\n        /* \"#utility.yul\":6564:6567   */\n      dup3\n        /* \"#utility.yul\":6557:6594   */\n      mstore\n        /* \"#utility.yul\":6492:6600   */\n      pop\n      pop\n      jump\t// out\n        /* \"#utility.yul\":6606:6785   */\n    tag_218:\n        /* \"#utility.yul\":6675:6685   */\n      0x00\n        /* \"#utility.yul\":6696:6742   */\n      tag_327\n        /* \"#utility.yul\":6738:6741   */\n      dup4\n        /* \"#utility.yul\":6730:6736   */\n      dup4\n        /* \"#utility.yul\":6696:6742   */\n      tag_217\n      jump\t// in\n    tag_327:\n        /* \"#utility.yul\":6774:6778   */\n      0x20\n        /* \"#utility.yul\":6769:6772   */\n      dup4\n        /* \"#utility.yul\":6765:6779   */\n      add\n        /* \"#utility.yul\":6751:6779   */\n      swap1\n      pop\n        /* \"#utility.yul\":6606:6785   */\n      swap3\n      swap2\n      pop\n      pop\n      jump\t// out\n        /* \"#utility.yul\":6791:6904   */\n    tag_219:\n        /* \"#utility.yul\":6861:6865   */\n      0x00\n        /* \"#utility.yul\":6893:6897   */\n      0x20\n        /* \"#utility.yul\":6888:6891   */\n      dup3\n        /* \"#utility.yul\":6884:6898   */\n      add\n        /* \"#utility.yul\":6876:6898   */\n      swap1\n      pop\n        /* \"#utility.yul\":6791:6904   */\n      swap2\n      swap1\n      pop\n      jump\t// out\n        /* \"#utility.yul\":6940:7672   */\n    tag_220:\n        /* \"#utility.yul\":7059:7062   */\n      0x00\n        /* \"#utility.yul\":7088:7142   */\n      tag_330\n        /* \"#utility.yul\":7136:7141   */\n      dup3\n        /* \"#utility.yul\":7088:7142   */\n      tag_214\n      jump\t// in\n    tag_330:\n        /* \"#utility.yul\":7158:7244   */\n      tag_331\n        /* \"#utility.yul\":7237:7243   */\n      dup2\n        /* \"#utility.yul\":7232:7235   */\n      dup6\n        /* \"#utility.yul\":7158:7244   */\n      tag_215\n      jump\t// in\n    tag_331:\n        /* \"#utility.yul\":7151:7244   */\n      swap4\n      pop\n        /* \"#utility.yul\":7268:7324   */\n      tag_332\n        /* \"#utility.yul\":7318:7323   */\n      dup4\n        /* \"#utility.yul\":7268:7324   */\n      tag_216\n      jump\t// in\n    tag_332:\n        /* \"#utility.yul\":7347:7354   */\n      dup1\n        /* \"#utility.yul\":7378:7379   */\n      0x00\n        /* \"#utility.yul\":7363:7647   */\n    tag_333:\n        /* \"#utility.yul\":7388:7394   */\n      dup4\n        /* \"#utility.yul\":7385:7386   */\n      dup2\n        /* \"#utility.yul\":7382:7395   */\n      lt\n        /* \"#utility.yul\":7363:7647   */\n      iszero\n      tag_335\n      jumpi\n        /* \"#utility.yul\":7464:7470   */\n      dup2\n        /* \"#utility.yul\":7458:7471   */\n      mload\n        /* \"#utility.yul\":7491:7554   */\n      tag_336\n        /* \"#utility.yul\":7550:7553   */\n      dup9\n        /* \"#utility.yul\":7535:7548   */\n      dup3\n        /* \"#utility.yul\":7491:7554   */\n      tag_218\n      jump\t// in\n    tag_336:\n        /* \"#utility.yul\":7484:7554   */\n      swap8\n      pop\n        /* \"#utility.yul\":7577:7637   */\n      tag_337\n        /* \"#utility.yul\":7630:7636   */\n      dup4\n        /* \"#utility.yul\":7577:7637   */\n      tag_219\n      jump\t// in\n    tag_337:\n        /* \"#utility.yul\":7567:7637   */\n      swap3\n      pop\n        /* \"#utility.yul\":7423:7647   */\n      pop\n        /* \"#utility.yul\":7410:7411   */\n      0x01\n        /* \"#utility.yul\":7407:7408   */\n      dup2\n        /* \"#utility.yul\":7403:7412   */\n      add\n        /* \"#utility.yul\":7398:7412   */\n      swap1\n      pop\n        /* \"#utility.yul\":7363:7647   */\n      jump(tag_333)\n    tag_335:\n        /* \"#utility.yul\":7367:7381   */\n      pop\n        /* \"#utility.yul\":7663:7666   */\n      dup6\n        /* \"#utility.yul\":7656:7666   */\n      swap4\n      pop\n        /* \"#utility.yul\":7064:7672   */\n      pop\n      pop\n      pop\n        /* \"#utility.yul\":6940:7672   */\n      swap3\n      swap2\n      pop\n      pop\n      jump\t// out\n        /* \"#utility.yul\":7678:8051   */\n    tag_62:\n        /* \"#utility.yul\":7821:7825   */\n      0x00\n        /* \"#utility.yul\":7859:7861   */\n      0x20\n        /* \"#utility.yul\":7848:7857   */\n      dup3\n        /* \"#utility.yul\":7844:7862   */\n      add\n        /* \"#utility.yul\":7836:7862   */\n      swap1\n      pop\n        /* \"#utility.yul\":7908:7917   */\n      dup2\n        /* \"#utility.yul\":7902:7906   */\n      dup2\n        /* \"#utility.yul\":7898:7918   */\n      sub\n        /* \"#utility.yul\":7894:7895   */\n      0x00\n        /* \"#utility.yul\":7883:7892   */\n      dup4\n        /* \"#utility.yul\":7879:7896   */\n      add\n        /* \"#utility.yul\":7872:7919   */\n      mstore\n        /* \"#utility.yul\":7936:8044   */\n      tag_339\n        /* \"#utility.yul\":8039:8043   */\n      dup2\n        /* \"#utility.yul\":8030:8036   */\n      dup5\n        /* \"#utility.yul\":7936:8044   */\n      tag_220\n      jump\t// in\n    tag_339:\n        /* \"#utility.yul\":7928:8044   */\n      swap1\n      pop\n        /* \"#utility.yul\":7678:8051   */\n      swap3\n      swap2\n      pop\n      pop\n      jump\t// out\n        /* \"#utility.yul\":8057:8150   */\n    tag_221:\n        /* \"#utility.yul\":8093:8100   */\n      0x00\n        /* \"#utility.yul\":8133:8143   */\n      0xffffffff\n        /* \"#utility.yul\":8126:8131   */\n      dup3\n        /* \"#utility.yul\":8122:8144   */\n      and\n        /* \"#utility.yul\":8111:8144   */\n      swap1\n      pop\n        /* \"#utility.yul\":8057:8150   */\n      swap2\n      swap1\n      pop\n      jump\t// out\n        /* \"#utility.yul\":8156:8271   */\n    tag_222:\n        /* \"#utility.yul\":8241:8264   */\n      tag_342\n        /* \"#utility.yul\":8258:8263   */\n      dup2\n        /* \"#utility.yul\":8241:8264   */\n      tag_221\n      jump\t// in\n    tag_342:\n        /* \"#utility.yul\":8236:8239   */\n      dup3\n        /* \"#utility.yul\":8229:8265   */\n      mstore\n        /* \"#utility.yul\":8156:8271   */\n      pop\n      pop\n      jump\t// out\n        /* \"#utility.yul\":8277:8495   */\n    tag_71:\n        /* \"#utility.yul\":8368:8372   */\n      0x00\n        /* \"#utility.yul\":8406:8408   */\n      0x20\n        /* \"#utility.yul\":8395:8404   */\n      dup3\n        /* \"#utility.yul\":8391:8409   */\n      add\n        /* \"#utility.yul\":8383:8409   */\n      swap1\n      pop\n        /* \"#utility.yul\":8419:8488   */\n      tag_344\n        /* \"#utility.yul\":8485:8486   */\n      0x00\n        /* \"#utility.yul\":8474:8483   */\n      dup4\n        /* \"#utility.yul\":8470:8487   */\n      add\n        /* \"#utility.yul\":8461:8467   */\n      dup5\n        /* \"#utility.yul\":8419:8488   */\n      tag_222\n      jump\t// in\n    tag_344:\n        /* \"#utility.yul\":8277:8495   */\n      swap3\n      swap2\n      pop\n      pop\n      jump\t// out\n        /* \"#utility.yul\":8501:8619   */\n    tag_223:\n        /* \"#utility.yul\":8588:8612   */\n      tag_346\n        /* \"#utility.yul\":8606:8611   */\n      dup2\n        /* \"#utility.yul\":8588:8612   */\n      tag_201\n      jump\t// in\n    tag_346:\n        /* \"#utility.yul\":8583:8586   */\n      dup3\n        /* \"#utility.yul\":8576:8613   */\n      mstore\n        /* \"#utility.yul\":8501:8619   */\n      pop\n      pop\n      jump\t// out\n        /* \"#utility.yul\":8625:8847   */\n    tag_75:\n        /* \"#utility.yul\":8718:8722   */\n      0x00\n        /* \"#utility.yul\":8756:8758   */\n      0x20\n        /* \"#utility.yul\":8745:8754   */\n      dup3\n        /* \"#utility.yul\":8741:8759   */\n      add\n        /* \"#utility.yul\":8733:8759   */\n      swap1\n      pop\n        /* \"#utility.yul\":8769:8840   */\n      tag_348\n        /* \"#utility.yul\":8837:8838   */\n      0x00\n        /* \"#utility.yul\":8826:8835   */\n      dup4\n        /* \"#utility.yul\":8822:8839   */\n      add\n        /* \"#utility.yul\":8813:8819   */\n      dup5\n        /* \"#utility.yul\":8769:8840   */\n      tag_223\n      jump\t// in\n    tag_348:\n        /* \"#utility.yul\":8625:8847   */\n      swap3\n      swap2\n      pop\n      pop\n      jump\t// out\n        /* \"#utility.yul\":8853:8977   */\n    tag_224:\n        /* \"#utility.yul\":8930:8936   */\n      0x00\n        /* \"#utility.yul\":8964:8969   */\n      dup2\n        /* \"#utility.yul\":8958:8970   */\n      mload\n        /* \"#utility.yul\":8948:8970   */\n      swap1\n      pop\n        /* \"#utility.yul\":8853:8977   */\n      swap2\n      swap1\n      pop\n      jump\t// out\n        /* \"#utility.yul\":8983:9177   */\n    tag_225:\n        /* \"#utility.yul\":9092:9103   */\n      0x00\n        /* \"#utility.yul\":9126:9132   */\n      dup3\n        /* \"#utility.yul\":9121:9124   */\n      dup3\n        /* \"#utility.yul\":9114:9133   */\n      mstore\n        /* \"#utility.yul\":9166:9170   */\n      0x20\n        /* \"#utility.yul\":9161:9164   */\n      dup3\n        /* \"#utility.yul\":9157:9171   */\n      add\n        /* \"#utility.yul\":9142:9171   */\n      swap1\n      pop\n        /* \"#utility.yul\":8983:9177   */\n      swap3\n      swap2\n      pop\n      pop\n      jump\t// out\n        /* \"#utility.yul\":9183:9325   */\n    tag_226:\n        /* \"#utility.yul\":9260:9264   */\n      0x00\n        /* \"#utility.yul\":9283:9286   */\n      dup2\n        /* \"#utility.yul\":9275:9286   */\n      swap1\n      pop\n        /* \"#utility.yul\":9313:9317   */\n      0x20\n        /* \"#utility.yul\":9308:9311   */\n      dup3\n        /* \"#utility.yul\":9304:9318   */\n      add\n        /* \"#utility.yul\":9296:9318   */\n      swap1\n      pop\n        /* \"#utility.yul\":9183:9325   */\n      swap2\n      swap1\n      pop\n      jump\t// out\n        /* \"#utility.yul\":9331:9490   */\n    tag_227:\n        /* \"#utility.yul\":9405:9416   */\n      0x00\n        /* \"#utility.yul\":9439:9445   */\n      dup3\n        /* \"#utility.yul\":9434:9437   */\n      dup3\n        /* \"#utility.yul\":9427:9446   */\n      mstore\n        /* \"#utility.yul\":9479:9483   */\n      0x20\n        /* \"#utility.yul\":9474:9477   */\n      dup3\n        /* \"#utility.yul\":9470:9484   */\n      add\n        /* \"#utility.yul\":9455:9484   */\n      swap1\n      pop\n        /* \"#utility.yul\":9331:9490   */\n      swap3\n      swap2\n      pop\n      pop\n      jump\t// out\n        /* \"#utility.yul\":9496:9853   */\n    tag_228:\n        /* \"#utility.yul\":9574:9577   */\n      0x00\n        /* \"#utility.yul\":9602:9641   */\n      tag_354\n        /* \"#utility.yul\":9635:9640   */\n      dup3\n        /* \"#utility.yul\":9602:9641   */\n      tag_193\n      jump\t// in\n    tag_354:\n        /* \"#utility.yul\":9657:9718   */\n      tag_355\n        /* \"#utility.yul\":9711:9717   */\n      dup2\n        /* \"#utility.yul\":9706:9709   */\n      dup6\n        /* \"#utility.yul\":9657:9718   */\n      tag_227\n      jump\t// in\n    tag_355:\n        /* \"#utility.yul\":9650:9718   */\n      swap4\n      pop\n        /* \"#utility.yul\":9727:9792   */\n      tag_356\n        /* \"#utility.yul\":9785:9791   */\n      dup2\n        /* \"#utility.yul\":9780:9783   */\n      dup6\n        /* \"#utility.yul\":9773:9777   */\n      0x20\n        /* \"#utility.yul\":9766:9771   */\n      dup7\n        /* \"#utility.yul\":9762:9778   */\n      add\n        /* \"#utility.yul\":9727:9792   */\n      tag_195\n      jump\t// in\n    tag_356:\n        /* \"#utility.yul\":9817:9846   */\n      tag_357\n        /* \"#utility.yul\":9839:9845   */\n      dup2\n        /* \"#utility.yul\":9817:9846   */\n      tag_196\n      jump\t// in\n    tag_357:\n        /* \"#utility.yul\":9812:9815   */\n      dup5\n        /* \"#utility.yul\":9808:9847   */\n      add\n        /* \"#utility.yul\":9801:9847   */\n      swap2\n      pop\n        /* \"#utility.yul\":9578:9853   */\n      pop\n        /* \"#utility.yul\":9496:9853   */\n      swap3\n      swap2\n      pop\n      pop\n      jump\t// out\n        /* \"#utility.yul\":9859:10055   */\n    tag_229:\n        /* \"#utility.yul\":9948:9958   */\n      0x00\n        /* \"#utility.yul\":9983:10049   */\n      tag_359\n        /* \"#utility.yul\":10045:10048   */\n      dup4\n        /* \"#utility.yul\":10037:10043   */\n      dup4\n        /* \"#utility.yul\":9983:10049   */\n      tag_228\n      jump\t// in\n    tag_359:\n        /* \"#utility.yul\":9969:10049   */\n      swap1\n      pop\n        /* \"#utility.yul\":9859:10055   */\n      swap3\n      swap2\n      pop\n      pop\n      jump\t// out\n        /* \"#utility.yul\":10061:10184   */\n    tag_230:\n        /* \"#utility.yul\":10141:10145   */\n      0x00\n        /* \"#utility.yul\":10173:10177   */\n      0x20\n        /* \"#utility.yul\":10168:10171   */\n      dup3\n        /* \"#utility.yul\":10164:10178   */\n      add\n        /* \"#utility.yul\":10156:10178   */\n      swap1\n      pop\n        /* \"#utility.yul\":10061:10184   */\n      swap2\n      swap1\n      pop\n      jump\t// out\n        /* \"#utility.yul\":10218:11209   */\n    tag_231:\n        /* \"#utility.yul\":10357:10360   */\n      0x00\n        /* \"#utility.yul\":10386:10450   */\n      tag_362\n        /* \"#utility.yul\":10444:10449   */\n      dup3\n        /* \"#utility.yul\":10386:10450   */\n      tag_224\n      jump\t// in\n    tag_362:\n        /* \"#utility.yul\":10466:10562   */\n      tag_363\n        /* \"#utility.yul\":10555:10561   */\n      dup2\n        /* \"#utility.yul\":10550:10553   */\n      dup6\n        /* \"#utility.yul\":10466:10562   */\n      tag_225\n      jump\t// in\n    tag_363:\n        /* \"#utility.yul\":10459:10562   */\n      swap4\n      pop\n        /* \"#utility.yul\":10588:10591   */\n      dup4\n        /* \"#utility.yul\":10633:10637   */\n      0x20\n        /* \"#utility.yul\":10625:10631   */\n      dup3\n        /* \"#utility.yul\":10621:10638   */\n      mul\n        /* \"#utility.yul\":10616:10619   */\n      dup6\n        /* \"#utility.yul\":10612:10639   */\n      add\n        /* \"#utility.yul\":10663:10729   */\n      tag_364\n        /* \"#utility.yul\":10723:10728   */\n      dup6\n        /* \"#utility.yul\":10663:10729   */\n      tag_226\n      jump\t// in\n    tag_364:\n        /* \"#utility.yul\":10752:10759   */\n      dup1\n        /* \"#utility.yul\":10783:10784   */\n      0x00\n        /* \"#utility.yul\":10768:11164   */\n    tag_365:\n        /* \"#utility.yul\":10793:10799   */\n      dup6\n        /* \"#utility.yul\":10790:10791   */\n      dup2\n        /* \"#utility.yul\":10787:10800   */\n      lt\n        /* \"#utility.yul\":10768:11164   */\n      iszero\n      tag_367\n      jumpi\n        /* \"#utility.yul\":10864:10873   */\n      dup5\n        /* \"#utility.yul\":10858:10862   */\n      dup5\n        /* \"#utility.yul\":10854:10874   */\n      sub\n        /* \"#utility.yul\":10849:10852   */\n      dup10\n        /* \"#utility.yul\":10842:10875   */\n      mstore\n        /* \"#utility.yul\":10915:10921   */\n      dup2\n        /* \"#utility.yul\":10909:10922   */\n      mload\n        /* \"#utility.yul\":10943:11027   */\n      tag_368\n        /* \"#utility.yul\":11022:11026   */\n      dup6\n        /* \"#utility.yul\":11007:11020   */\n      dup3\n        /* \"#utility.yul\":10943:11027   */\n      tag_229\n      jump\t// in\n    tag_368:\n        /* \"#utility.yul\":10935:11027   */\n      swap5\n      pop\n        /* \"#utility.yul\":11050:11120   */\n      tag_369\n        /* \"#utility.yul\":11113:11119   */\n      dup4\n        /* \"#utility.yul\":11050:11120   */\n      tag_230\n      jump\t// in\n    tag_369:\n        /* \"#utility.yul\":11040:11120   */\n      swap3\n      pop\n        /* \"#utility.yul\":11149:11153   */\n      0x20\n        /* \"#utility.yul\":11144:11147   */\n      dup11\n        /* \"#utility.yul\":11140:11154   */\n      add\n        /* \"#utility.yul\":11133:11154   */\n      swap10\n      pop\n        /* \"#utility.yul\":10828:11164   */\n      pop\n        /* \"#utility.yul\":10815:10816   */\n      0x01\n        /* \"#utility.yul\":10812:10813   */\n      dup2\n        /* \"#utility.yul\":10808:10817   */\n      add\n        /* \"#utility.yul\":10803:10817   */\n      swap1\n      pop\n        /* \"#utility.yul\":10768:11164   */\n      jump(tag_365)\n    tag_367:\n        /* \"#utility.yul\":10772:10786   */\n      pop\n        /* \"#utility.yul\":11180:11184   */\n      dup3\n        /* \"#utility.yul\":11173:11184   */\n      swap8\n      pop\n        /* \"#utility.yul\":11200:11203   */\n      dup8\n        /* \"#utility.yul\":11193:11203   */\n      swap6\n      pop\n        /* \"#utility.yul\":10362:11209   */\n      pop\n      pop\n      pop\n      pop\n      pop\n        /* \"#utility.yul\":10218:11209   */\n      swap3\n      swap2\n      pop\n      pop\n      jump\t// out\n        /* \"#utility.yul\":11215:11628   */\n    tag_86:\n        /* \"#utility.yul\":11378:11382   */\n      0x00\n        /* \"#utility.yul\":11416:11418   */\n      0x20\n        /* \"#utility.yul\":11405:11414   */\n      dup3\n        /* \"#utility.yul\":11401:11419   */\n      add\n        /* \"#utility.yul\":11393:11419   */\n      swap1\n      pop\n        /* \"#utility.yul\":11465:11474   */\n      dup2\n        /* \"#utility.yul\":11459:11463   */\n      dup2\n        /* \"#utility.yul\":11455:11475   */\n      sub\n        /* \"#utility.yul\":11451:11452   */\n      0x00\n        /* \"#utility.yul\":11440:11449   */\n      dup4\n        /* \"#utility.yul\":11436:11453   */\n      add\n        /* \"#utility.yul\":11429:11476   */\n      mstore\n        /* \"#utility.yul\":11493:11621   */\n      tag_371\n        /* \"#utility.yul\":11616:11620   */\n      dup2\n        /* \"#utility.yul\":11607:11613   */\n      dup5\n        /* \"#utility.yul\":11493:11621   */\n      tag_231\n      jump\t// in\n    tag_371:\n        /* \"#utility.yul\":11485:11621   */\n      swap1\n      pop\n        /* \"#utility.yul\":11215:11628   */\n      swap3\n      swap2\n      pop\n      pop\n      jump\t// out\n        /* \"#utility.yul\":11634:11710   */\n    tag_232:\n        /* \"#utility.yul\":11670:11677   */\n      0x00\n        /* \"#utility.yul\":11699:11704   */\n      dup2\n        /* \"#utility.yul\":11688:11704   */\n      swap1\n      pop\n        /* \"#utility.yul\":11634:11710   */\n      swap2\n      swap1\n      pop\n      jump\t// out\n        /* \"#utility.yul\":11716:11831   */\n    tag_233:\n        /* \"#utility.yul\":11801:11824   */\n      tag_374\n        /* \"#utility.yul\":11818:11823   */\n      dup2\n        /* \"#utility.yul\":11801:11824   */\n      tag_232\n      jump\t// in\n    tag_374:\n        /* \"#utility.yul\":11796:11799   */\n      dup3\n        /* \"#utility.yul\":11789:11825   */\n      mstore\n        /* \"#utility.yul\":11716:11831   */\n      pop\n      pop\n      jump\t// out\n        /* \"#utility.yul\":11837:12055   */\n    tag_101:\n        /* \"#utility.yul\":11928:11932   */\n      0x00\n        /* \"#utility.yul\":11966:11968   */\n      0x20\n        /* \"#utility.yul\":11955:11964   */\n      dup3\n        /* \"#utility.yul\":11951:11969   */\n      add\n        /* \"#utility.yul\":11943:11969   */\n      swap1\n      pop\n        /* \"#utility.yul\":11979:12048   */\n      tag_376\n        /* \"#utility.yul\":12045:12046   */\n      0x00\n        /* \"#utility.yul\":12034:12043   */\n      dup4\n        /* \"#utility.yul\":12030:12047   */\n      add\n        /* \"#utility.yul\":12021:12027   */\n      dup5\n        /* \"#utility.yul\":11979:12048   */\n      tag_233\n      jump\t// in\n    tag_376:\n        /* \"#utility.yul\":11837:12055   */\n      swap3\n      swap2\n      pop\n      pop\n      jump\t// out\n        /* \"#utility.yul\":12061:12241   */\n    tag_234:\n        /* \"#utility.yul\":12109:12186   */\n      0x4e487b7100000000000000000000000000000000000000000000000000000000\n        /* \"#utility.yul\":12106:12107   */\n      0x00\n        /* \"#utility.yul\":12099:12187   */\n      mstore\n        /* \"#utility.yul\":12206:12210   */\n      0x22\n        /* \"#utility.yul\":12203:12204   */\n      0x04\n        /* \"#utility.yul\":12196:12211   */\n      mstore\n        /* \"#utility.yul\":12230:12234   */\n      0x24\n        /* \"#utility.yul\":12227:12228   */\n      0x00\n        /* \"#utility.yul\":12220:12235   */\n      revert\n        /* \"#utility.yul\":12247:12567   */\n    tag_116:\n        /* \"#utility.yul\":12291:12297   */\n      0x00\n        /* \"#utility.yul\":12328:12329   */\n      0x02\n        /* \"#utility.yul\":12322:12326   */\n      dup3\n        /* \"#utility.yul\":12318:12330   */\n      div\n        /* \"#utility.yul\":12308:12330   */\n      swap1\n      pop\n        /* \"#utility.yul\":12375:12376   */\n      0x01\n        /* \"#utility.yul\":12369:12373   */\n      dup3\n        /* \"#utility.yul\":12365:12377   */\n      and\n        /* \"#utility.yul\":12396:12414   */\n      dup1\n        /* \"#utility.yul\":12386:12467   */\n      tag_379\n      jumpi\n        /* \"#utility.yul\":12452:12456   */\n      0x7f\n        /* \"#utility.yul\":12444:12450   */\n      dup3\n        /* \"#utility.yul\":12440:12457   */\n      and\n        /* \"#utility.yul\":12430:12457   */\n      swap2\n      pop\n        /* \"#utility.yul\":12386:12467   */\n    tag_379:\n        /* \"#utility.yul\":12514:12516   */\n      0x20\n        /* \"#utility.yul\":12506:12512   */\n      dup3\n        /* \"#utility.yul\":12503:12517   */\n      lt\n        /* \"#utility.yul\":12483:12501   */\n      dup2\n        /* \"#utility.yul\":12480:12518   */\n      sub\n        /* \"#utility.yul\":12477:12561   */\n      tag_380\n      jumpi\n        /* \"#utility.yul\":12533:12551   */\n      tag_381\n      tag_234\n      jump\t// in\n    tag_381:\n        /* \"#utility.yul\":12477:12561   */\n    tag_380:\n        /* \"#utility.yul\":12298:12567   */\n      pop\n        /* \"#utility.yul\":12247:12567   */\n      swap2\n      swap1\n      pop\n      jump\t// out\n        /* \"#utility.yul\":12573:12747   */\n    tag_235:\n        /* \"#utility.yul\":12713:12739   */\n      0x526571756972656420746f2062652061206d656d656265720000000000000000\n        /* \"#utility.yul\":12709:12710   */\n      0x00\n        /* \"#utility.yul\":12701:12707   */\n      dup3\n        /* \"#utility.yul\":12697:12711   */\n      add\n        /* \"#utility.yul\":12690:12740   */\n      mstore\n        /* \"#utility.yul\":12573:12747   */\n      pop\n      jump\t// out\n        /* \"#utility.yul\":12753:13119   */\n    tag_236:\n        /* \"#utility.yul\":12895:12898   */\n      0x00\n        /* \"#utility.yul\":12916:12983   */\n      tag_384\n        /* \"#utility.yul\":12980:12982   */\n      0x18\n        /* \"#utility.yul\":12975:12978   */\n      dup4\n        /* \"#utility.yul\":12916:12983   */\n      tag_194\n      jump\t// in\n    tag_384:\n        /* \"#utility.yul\":12909:12983   */\n      swap2\n      pop\n        /* \"#utility.yul\":12992:13085   */\n      tag_385\n        /* \"#utility.yul\":13081:13084   */\n      dup3\n        /* \"#utility.yul\":12992:13085   */\n      tag_235\n      jump\t// in\n    tag_385:\n        /* \"#utility.yul\":13110:13112   */\n      0x20\n        /* \"#utility.yul\":13105:13108   */\n      dup3\n        /* \"#utility.yul\":13101:13113   */\n      add\n        /* \"#utility.yul\":13094:13113   */\n      swap1\n      pop\n        /* \"#utility.yul\":12753:13119   */\n      swap2\n      swap1\n      pop\n      jump\t// out\n        /* \"#utility.yul\":13125:13544   */\n    tag_127:\n        /* \"#utility.yul\":13291:13295   */\n      0x00\n        /* \"#utility.yul\":13329:13331   */\n      0x20\n        /* \"#utility.yul\":13318:13327   */\n      dup3\n        /* \"#utility.yul\":13314:13332   */\n      add\n        /* \"#utility.yul\":13306:13332   */\n      swap1\n      pop\n        /* \"#utility.yul\":13378:13387   */\n      dup2\n        /* \"#utility.yul\":13372:13376   */\n      dup2\n        /* \"#utility.yul\":13368:13388   */\n      sub\n        /* \"#utility.yul\":13364:13365   */\n      0x00\n        /* \"#utility.yul\":13353:13362   */\n      dup4\n        /* \"#utility.yul\":13349:13366   */\n      add\n        /* \"#utility.yul\":13342:13389   */\n      mstore\n        /* \"#utility.yul\":13406:13537   */\n      tag_387\n        /* \"#utility.yul\":13532:13536   */\n      dup2\n        /* \"#utility.yul\":13406:13537   */\n      tag_236\n      jump\t// in\n    tag_387:\n        /* \"#utility.yul\":13398:13537   */\n      swap1\n      pop\n        /* \"#utility.yul\":13125:13544   */\n      swap2\n      swap1\n      pop\n      jump\t// out\n        /* \"#utility.yul\":13550:13693   */\n    tag_237:\n        /* \"#utility.yul\":13607:13612   */\n      0x00\n        /* \"#utility.yul\":13638:13644   */\n      dup2\n        /* \"#utility.yul\":13632:13645   */\n      mload\n        /* \"#utility.yul\":13623:13645   */\n      swap1\n      pop\n        /* \"#utility.yul\":13654:13687   */\n      tag_389\n        /* \"#utility.yul\":13681:13686   */\n      dup2\n        /* \"#utility.yul\":13654:13687   */\n      tag_202\n      jump\t// in\n    tag_389:\n        /* \"#utility.yul\":13550:13693   */\n      swap3\n      swap2\n      pop\n      pop\n      jump\t// out\n        /* \"#utility.yul\":13699:14050   */\n    tag_137:\n        /* \"#utility.yul\":13769:13775   */\n      0x00\n        /* \"#utility.yul\":13818:13820   */\n      0x20\n        /* \"#utility.yul\":13806:13815   */\n      dup3\n        /* \"#utility.yul\":13797:13804   */\n      dup5\n        /* \"#utility.yul\":13793:13816   */\n      sub\n        /* \"#utility.yul\":13789:13821   */\n      slt\n        /* \"#utility.yul\":13786:13905   */\n      iszero\n      tag_391\n      jumpi\n        /* \"#utility.yul\":13824:13903   */\n      tag_392\n      tag_199\n      jump\t// in\n    tag_392:\n        /* \"#utility.yul\":13786:13905   */\n    tag_391:\n        /* \"#utility.yul\":13944:13945   */\n      0x00\n        /* \"#utility.yul\":13969:14033   */\n      tag_393\n        /* \"#utility.yul\":14025:14032   */\n      dup5\n        /* \"#utility.yul\":14016:14022   */\n      dup3\n        /* \"#utility.yul\":14005:14014   */\n      dup6\n        /* \"#utility.yul\":14001:14023   */\n      add\n        /* \"#utility.yul\":13969:14033   */\n      tag_237\n      jump\t// in\n    tag_393:\n        /* \"#utility.yul\":13959:14033   */\n      swap2\n      pop\n        /* \"#utility.yul\":13915:14043   */\n      pop\n        /* \"#utility.yul\":13699:14050   */\n      swap3\n      swap2\n      pop\n      pop\n      jump\t// out\n        /* \"#utility.yul\":14056:14278   */\n    tag_238:\n        /* \"#utility.yul\":14196:14230   */\n      0x496e76616c6964206e756d626572206f6620766f746573206f722070726f6365\n        /* \"#utility.yul\":14192:14193   */\n      0x00\n        /* \"#utility.yul\":14184:14190   */\n      dup3\n        /* \"#utility.yul\":14180:14194   */\n      add\n        /* \"#utility.yul\":14173:14231   */\n      mstore\n        /* \"#utility.yul\":14265:14270   */\n      0x65642e0000000000000000000000000000000000000000000000000000000000\n        /* \"#utility.yul\":14260:14262   */\n      0x20\n        /* \"#utility.yul\":14252:14258   */\n      dup3\n        /* \"#utility.yul\":14248:14263   */\n      add\n        /* \"#utility.yul\":14241:14271   */\n      mstore\n        /* \"#utility.yul\":14056:14278   */\n      pop\n      jump\t// out\n        /* \"#utility.yul\":14284:14650   */\n    tag_239:\n        /* \"#utility.yul\":14426:14429   */\n      0x00\n        /* \"#utility.yul\":14447:14514   */\n      tag_396\n        /* \"#utility.yul\":14511:14513   */\n      0x23\n        /* \"#utility.yul\":14506:14509   */\n      dup4\n        /* \"#utility.yul\":14447:14514   */\n      tag_194\n      jump\t// in\n    tag_396:\n        /* \"#utility.yul\":14440:14514   */\n      swap2\n      pop\n        /* \"#utility.yul\":14523:14616   */\n      tag_397\n        /* \"#utility.yul\":14612:14615   */\n      dup3\n        /* \"#utility.yul\":14523:14616   */\n      tag_238\n      jump\t// in\n    tag_397:\n        /* \"#utility.yul\":14641:14643   */\n      0x40\n        /* \"#utility.yul\":14636:14639   */\n      dup3\n        /* \"#utility.yul\":14632:14644   */\n      add\n        /* \"#utility.yul\":14625:14644   */\n      swap1\n      pop\n        /* \"#utility.yul\":14284:14650   */\n      swap2\n      swap1\n      pop\n      jump\t// out\n        /* \"#utility.yul\":14656:15075   */\n    tag_140:\n        /* \"#utility.yul\":14822:14826   */\n      0x00\n        /* \"#utility.yul\":14860:14862   */\n      0x20\n        /* \"#utility.yul\":14849:14858   */\n      dup3\n        /* \"#utility.yul\":14845:14863   */\n      add\n        /* \"#utility.yul\":14837:14863   */\n      swap1\n      pop\n        /* \"#utility.yul\":14909:14918   */\n      dup2\n        /* \"#utility.yul\":14903:14907   */\n      dup2\n        /* \"#utility.yul\":14899:14919   */\n      sub\n        /* \"#utility.yul\":14895:14896   */\n      0x00\n        /* \"#utility.yul\":14884:14893   */\n      dup4\n        /* \"#utility.yul\":14880:14897   */\n      add\n        /* \"#utility.yul\":14873:14920   */\n      mstore\n        /* \"#utility.yul\":14937:15068   */\n      tag_399\n        /* \"#utility.yul\":15063:15067   */\n      dup2\n        /* \"#utility.yul\":14937:15068   */\n      tag_239\n      jump\t// in\n    tag_399:\n        /* \"#utility.yul\":14929:15068   */\n      swap1\n      pop\n        /* \"#utility.yul\":14656:15075   */\n      swap2\n      swap1\n      pop\n      jump\t// out\n        /* \"#utility.yul\":15081:15413   */\n    tag_142:\n        /* \"#utility.yul\":15202:15206   */\n      0x00\n        /* \"#utility.yul\":15240:15242   */\n      0x40\n        /* \"#utility.yul\":15229:15238   */\n      dup3\n        /* \"#utility.yul\":15225:15243   */\n      add\n        /* \"#utility.yul\":15217:15243   */\n      swap1\n      pop\n        /* \"#utility.yul\":15253:15324   */\n      tag_401\n        /* \"#utility.yul\":15321:15322   */\n      0x00\n        /* \"#utility.yul\":15310:15319   */\n      dup4\n        /* \"#utility.yul\":15306:15323   */\n      add\n        /* \"#utility.yul\":15297:15303   */\n      dup6\n        /* \"#utility.yul\":15253:15324   */\n      tag_192\n      jump\t// in\n    tag_401:\n        /* \"#utility.yul\":15334:15406   */\n      tag_402\n        /* \"#utility.yul\":15402:15404   */\n      0x20\n        /* \"#utility.yul\":15391:15400   */\n      dup4\n        /* \"#utility.yul\":15387:15405   */\n      add\n        /* \"#utility.yul\":15378:15384   */\n      dup5\n        /* \"#utility.yul\":15334:15406   */\n      tag_192\n      jump\t// in\n    tag_402:\n        /* \"#utility.yul\":15081:15413   */\n      swap4\n      swap3\n      pop\n      pop\n      pop\n      jump\t// out\n        /* \"#utility.yul\":15419:15599   */\n    tag_240:\n        /* \"#utility.yul\":15467:15544   */\n      0x4e487b7100000000000000000000000000000000000000000000000000000000\n        /* \"#utility.yul\":15464:15465   */\n      0x00\n        /* \"#utility.yul\":15457:15545   */\n      mstore\n        /* \"#utility.yul\":15564:15568   */\n      0x41\n        /* \"#utility.yul\":15561:15562   */\n      0x04\n        /* \"#utility.yul\":15554:15569   */\n      mstore\n        /* \"#utility.yul\":15588:15592   */\n      0x24\n        /* \"#utility.yul\":15585:15586   */\n      0x00\n        /* \"#utility.yul\":15578:15593   */\n      revert\n        /* \"#utility.yul\":15605:15886   */\n    tag_241:\n        /* \"#utility.yul\":15688:15715   */\n      tag_405\n        /* \"#utility.yul\":15710:15714   */\n      dup3\n        /* \"#utility.yul\":15688:15715   */\n      tag_196\n      jump\t// in\n    tag_405:\n        /* \"#utility.yul\":15680:15686   */\n      dup2\n        /* \"#utility.yul\":15676:15716   */\n      add\n        /* \"#utility.yul\":15818:15824   */\n      dup2\n        /* \"#utility.yul\":15806:15816   */\n      dup2\n        /* \"#utility.yul\":15803:15825   */\n      lt\n        /* \"#utility.yul\":15782:15800   */\n      0xffffffffffffffff\n        /* \"#utility.yul\":15770:15780   */\n      dup3\n        /* \"#utility.yul\":15767:15801   */\n      gt\n        /* \"#utility.yul\":15764:15826   */\n      or\n        /* \"#utility.yul\":15761:15849   */\n      iszero\n      tag_406\n      jumpi\n        /* \"#utility.yul\":15829:15847   */\n      tag_407\n      tag_240\n      jump\t// in\n    tag_407:\n        /* \"#utility.yul\":15761:15849   */\n    tag_406:\n        /* \"#utility.yul\":15869:15879   */\n      dup1\n        /* \"#utility.yul\":15865:15867   */\n      0x40\n        /* \"#utility.yul\":15858:15880   */\n      mstore\n        /* \"#utility.yul\":15648:15886   */\n      pop\n        /* \"#utility.yul\":15605:15886   */\n      pop\n      pop\n      jump\t// out\n        /* \"#utility.yul\":15892:16021   */\n    tag_242:\n        /* \"#utility.yul\":15926:15932   */\n      0x00\n        /* \"#utility.yul\":15953:15973   */\n      tag_409\n      tag_198\n      jump\t// in\n    tag_409:\n        /* \"#utility.yul\":15943:15973   */\n      swap1\n      pop\n        /* \"#utility.yul\":15982:16015   */\n      tag_410\n        /* \"#utility.yul\":16010:16014   */\n      dup3\n        /* \"#utility.yul\":16002:16008   */\n      dup3\n        /* \"#utility.yul\":15982:16015   */\n      tag_241\n      jump\t// in\n    tag_410:\n        /* \"#utility.yul\":15892:16021   */\n      swap2\n      swap1\n      pop\n      jump\t// out\n        /* \"#utility.yul\":16027:16338   */\n    tag_243:\n        /* \"#utility.yul\":16104:16108   */\n      0x00\n        /* \"#utility.yul\":16194:16212   */\n      0xffffffffffffffff\n        /* \"#utility.yul\":16186:16192   */\n      dup3\n        /* \"#utility.yul\":16183:16213   */\n      gt\n        /* \"#utility.yul\":16180:16236   */\n      iszero\n      tag_412\n      jumpi\n        /* \"#utility.yul\":16216:16234   */\n      tag_413\n      tag_240\n      jump\t// in\n    tag_413:\n        /* \"#utility.yul\":16180:16236   */\n    tag_412:\n        /* \"#utility.yul\":16266:16270   */\n      0x20\n        /* \"#utility.yul\":16258:16264   */\n      dup3\n        /* \"#utility.yul\":16254:16271   */\n      mul\n        /* \"#utility.yul\":16246:16271   */\n      swap1\n      pop\n        /* \"#utility.yul\":16326:16330   */\n      0x20\n        /* \"#utility.yul\":16320:16324   */\n      dup2\n        /* \"#utility.yul\":16316:16331   */\n      add\n        /* \"#utility.yul\":16308:16331   */\n      swap1\n      pop\n        /* \"#utility.yul\":16027:16338   */\n      swap2\n      swap1\n      pop\n      jump\t// out\n        /* \"#utility.yul\":16344:16487   */\n    tag_244:\n        /* \"#utility.yul\":16401:16406   */\n      0x00\n        /* \"#utility.yul\":16432:16438   */\n      dup2\n        /* \"#utility.yul\":16426:16439   */\n      mload\n        /* \"#utility.yul\":16417:16439   */\n      swap1\n      pop\n        /* \"#utility.yul\":16448:16481   */\n      tag_415\n        /* \"#utility.yul\":16475:16480   */\n      dup2\n        /* \"#utility.yul\":16448:16481   */\n      tag_204\n      jump\t// in\n    tag_415:\n        /* \"#utility.yul\":16344:16487   */\n      swap3\n      swap2\n      pop\n      pop\n      jump\t// out\n        /* \"#utility.yul\":16510:17242   */\n    tag_245:\n        /* \"#utility.yul\":16617:16622   */\n      0x00\n        /* \"#utility.yul\":16642:16723   */\n      tag_417\n        /* \"#utility.yul\":16658:16722   */\n      tag_418\n        /* \"#utility.yul\":16715:16721   */\n      dup5\n        /* \"#utility.yul\":16658:16722   */\n      tag_243\n      jump\t// in\n    tag_418:\n        /* \"#utility.yul\":16642:16723   */\n      tag_242\n      jump\t// in\n    tag_417:\n        /* \"#utility.yul\":16633:16723   */\n      swap1\n      pop\n        /* \"#utility.yul\":16743:16748   */\n      dup1\n        /* \"#utility.yul\":16772:16778   */\n      dup4\n        /* \"#utility.yul\":16765:16770   */\n      dup3\n        /* \"#utility.yul\":16758:16779   */\n      mstore\n        /* \"#utility.yul\":16806:16810   */\n      0x20\n        /* \"#utility.yul\":16799:16804   */\n      dup3\n        /* \"#utility.yul\":16795:16811   */\n      add\n        /* \"#utility.yul\":16788:16811   */\n      swap1\n      pop\n        /* \"#utility.yul\":16859:16863   */\n      0x20\n        /* \"#utility.yul\":16851:16857   */\n      dup5\n        /* \"#utility.yul\":16847:16864   */\n      mul\n        /* \"#utility.yul\":16839:16845   */\n      dup4\n        /* \"#utility.yul\":16835:16865   */\n      add\n        /* \"#utility.yul\":16888:16891   */\n      dup6\n        /* \"#utility.yul\":16880:16886   */\n      dup2\n        /* \"#utility.yul\":16877:16892   */\n      gt\n        /* \"#utility.yul\":16874:16996   */\n      iszero\n      tag_419\n      jumpi\n        /* \"#utility.yul\":16907:16986   */\n      tag_420\n      tag_210\n      jump\t// in\n    tag_420:\n        /* \"#utility.yul\":16874:16996   */\n    tag_419:\n        /* \"#utility.yul\":17022:17028   */\n      dup4\n        /* \"#utility.yul\":17005:17236   */\n    tag_421:\n        /* \"#utility.yul\":17039:17045   */\n      dup2\n        /* \"#utility.yul\":17034:17037   */\n      dup2\n        /* \"#utility.yul\":17031:17046   */\n      lt\n        /* \"#utility.yul\":17005:17236   */\n      iszero\n      tag_423\n      jumpi\n        /* \"#utility.yul\":17114:17117   */\n      dup1\n        /* \"#utility.yul\":17143:17191   */\n      tag_424\n        /* \"#utility.yul\":17187:17190   */\n      dup9\n        /* \"#utility.yul\":17175:17185   */\n      dup3\n        /* \"#utility.yul\":17143:17191   */\n      tag_244\n      jump\t// in\n    tag_424:\n        /* \"#utility.yul\":17138:17141   */\n      dup5\n        /* \"#utility.yul\":17131:17192   */\n      mstore\n        /* \"#utility.yul\":17221:17225   */\n      0x20\n        /* \"#utility.yul\":17216:17219   */\n      dup5\n        /* \"#utility.yul\":17212:17226   */\n      add\n        /* \"#utility.yul\":17205:17226   */\n      swap4\n      pop\n        /* \"#utility.yul\":17081:17236   */\n      pop\n        /* \"#utility.yul\":17065:17069   */\n      0x20\n        /* \"#utility.yul\":17060:17063   */\n      dup2\n        /* \"#utility.yul\":17056:17070   */\n      add\n        /* \"#utility.yul\":17049:17070   */\n      swap1\n      pop\n        /* \"#utility.yul\":17005:17236   */\n      jump(tag_421)\n    tag_423:\n        /* \"#utility.yul\":17009:17030   */\n      pop\n        /* \"#utility.yul\":16623:17242   */\n      pop\n      pop\n        /* \"#utility.yul\":16510:17242   */\n      swap4\n      swap3\n      pop\n      pop\n      pop\n      jump\t// out\n        /* \"#utility.yul\":17265:17650   */\n    tag_246:\n        /* \"#utility.yul\":17347:17352   */\n      0x00\n        /* \"#utility.yul\":17396:17399   */\n      dup3\n        /* \"#utility.yul\":17389:17393   */\n      0x1f\n        /* \"#utility.yul\":17381:17387   */\n      dup4\n        /* \"#utility.yul\":17377:17394   */\n      add\n        /* \"#utility.yul\":17373:17400   */\n      slt\n        /* \"#utility.yul\":17363:17485   */\n      tag_426\n      jumpi\n        /* \"#utility.yul\":17404:17483   */\n      tag_427\n      tag_208\n      jump\t// in\n    tag_427:\n        /* \"#utility.yul\":17363:17485   */\n    tag_426:\n        /* \"#utility.yul\":17514:17520   */\n      dup2\n        /* \"#utility.yul\":17508:17521   */\n      mload\n        /* \"#utility.yul\":17539:17644   */\n      tag_428\n        /* \"#utility.yul\":17640:17643   */\n      dup5\n        /* \"#utility.yul\":17632:17638   */\n      dup3\n        /* \"#utility.yul\":17625:17629   */\n      0x20\n        /* \"#utility.yul\":17617:17623   */\n      dup7\n        /* \"#utility.yul\":17613:17630   */\n      add\n        /* \"#utility.yul\":17539:17644   */\n      tag_245\n      jump\t// in\n    tag_428:\n        /* \"#utility.yul\":17530:17644   */\n      swap2\n      pop\n        /* \"#utility.yul\":17353:17650   */\n      pop\n        /* \"#utility.yul\":17265:17650   */\n      swap3\n      swap2\n      pop\n      pop\n      jump\t// out\n        /* \"#utility.yul\":17656:18210   */\n    tag_158:\n        /* \"#utility.yul\":17751:17757   */\n      0x00\n        /* \"#utility.yul\":17800:17802   */\n      0x20\n        /* \"#utility.yul\":17788:17797   */\n      dup3\n        /* \"#utility.yul\":17779:17786   */\n      dup5\n        /* \"#utility.yul\":17775:17798   */\n      sub\n        /* \"#utility.yul\":17771:17803   */\n      slt\n        /* \"#utility.yul\":17768:17887   */\n      iszero\n      tag_430\n      jumpi\n        /* \"#utility.yul\":17806:17885   */\n      tag_431\n      tag_199\n      jump\t// in\n    tag_431:\n        /* \"#utility.yul\":17768:17887   */\n    tag_430:\n        /* \"#utility.yul\":17947:17948   */\n      0x00\n        /* \"#utility.yul\":17936:17945   */\n      dup3\n        /* \"#utility.yul\":17932:17949   */\n      add\n        /* \"#utility.yul\":17926:17950   */\n      mload\n        /* \"#utility.yul\":17977:17995   */\n      0xffffffffffffffff\n        /* \"#utility.yul\":17969:17975   */\n      dup2\n        /* \"#utility.yul\":17966:17996   */\n      gt\n        /* \"#utility.yul\":17963:18080   */\n      iszero\n      tag_432\n      jumpi\n        /* \"#utility.yul\":17999:18078   */\n      tag_433\n      tag_200\n      jump\t// in\n    tag_433:\n        /* \"#utility.yul\":17963:18080   */\n    tag_432:\n        /* \"#utility.yul\":18104:18193   */\n      tag_434\n        /* \"#utility.yul\":18185:18192   */\n      dup5\n        /* \"#utility.yul\":18176:18182   */\n      dup3\n        /* \"#utility.yul\":18165:18174   */\n      dup6\n        /* \"#utility.yul\":18161:18183   */\n      add\n        /* \"#utility.yul\":18104:18193   */\n      tag_246\n      jump\t// in\n    tag_434:\n        /* \"#utility.yul\":18094:18193   */\n      swap2\n      pop\n        /* \"#utility.yul\":17897:18203   */\n      pop\n        /* \"#utility.yul\":17656:18210   */\n      swap3\n      swap2\n      pop\n      pop\n      jump\t// out\n        /* \"#utility.yul\":18216:18379   */\n    tag_247:\n        /* \"#utility.yul\":18356:18371   */\n      0x416c726561647920766f74656400000000000000000000000000000000000000\n        /* \"#utility.yul\":18352:18353   */\n      0x00\n        /* \"#utility.yul\":18344:18350   */\n      dup3\n        /* \"#utility.yul\":18340:18354   */\n      add\n        /* \"#utility.yul\":18333:18372   */\n      mstore\n        /* \"#utility.yul\":18216:18379   */\n      pop\n      jump\t// out\n        /* \"#utility.yul\":18385:18751   */\n    tag_248:\n        /* \"#utility.yul\":18527:18530   */\n      0x00\n        /* \"#utility.yul\":18548:18615   */\n      tag_437\n        /* \"#utility.yul\":18612:18614   */\n      0x0d\n        /* \"#utility.yul\":18607:18610   */\n      dup4\n        /* \"#utility.yul\":18548:18615   */\n      tag_194\n      jump\t// in\n    tag_437:\n        /* \"#utility.yul\":18541:18615   */\n      swap2\n      pop\n        /* \"#utility.yul\":18624:18717   */\n      tag_438\n        /* \"#utility.yul\":18713:18716   */\n      dup3\n        /* \"#utility.yul\":18624:18717   */\n      tag_247\n      jump\t// in\n    tag_438:\n        /* \"#utility.yul\":18742:18744   */\n      0x20\n        /* \"#utility.yul\":18737:18740   */\n      dup3\n        /* \"#utility.yul\":18733:18745   */\n      add\n        /* \"#utility.yul\":18726:18745   */\n      swap1\n      pop\n        /* \"#utility.yul\":18385:18751   */\n      swap2\n      swap1\n      pop\n      jump\t// out\n        /* \"#utility.yul\":18757:19176   */\n    tag_166:\n        /* \"#utility.yul\":18923:18927   */\n      0x00\n        /* \"#utility.yul\":18961:18963   */\n      0x20\n        /* \"#utility.yul\":18950:18959   */\n      dup3\n        /* \"#utility.yul\":18946:18964   */\n      add\n        /* \"#utility.yul\":18938:18964   */\n      swap1\n      pop\n        /* \"#utility.yul\":19010:19019   */\n      dup2\n        /* \"#utility.yul\":19004:19008   */\n      dup2\n        /* \"#utility.yul\":19000:19020   */\n      sub\n        /* \"#utility.yul\":18996:18997   */\n      0x00\n        /* \"#utility.yul\":18985:18994   */\n      dup4\n        /* \"#utility.yul\":18981:18998   */\n      add\n        /* \"#utility.yul\":18974:19021   */\n      mstore\n        /* \"#utility.yul\":19038:19169   */\n      tag_440\n        /* \"#utility.yul\":19164:19168   */\n      dup2\n        /* \"#utility.yul\":19038:19169   */\n      tag_248\n      jump\t// in\n    tag_440:\n        /* \"#utility.yul\":19030:19169   */\n      swap1\n      pop\n        /* \"#utility.yul\":18757:19176   */\n      swap2\n      swap1\n      pop\n      jump\t// out\n        /* \"#utility.yul\":19182:19362   */\n    tag_249:\n        /* \"#utility.yul\":19230:19307   */\n      0x4e487b7100000000000000000000000000000000000000000000000000000000\n        /* \"#utility.yul\":19227:19228   */\n      0x00\n        /* \"#utility.yul\":19220:19308   */\n      mstore\n        /* \"#utility.yul\":19327:19331   */\n      0x11\n        /* \"#utility.yul\":19324:19325   */\n      0x04\n        /* \"#utility.yul\":19317:19332   */\n      mstore\n        /* \"#utility.yul\":19351:19355   */\n      0x24\n        /* \"#utility.yul\":19348:19349   */\n      0x00\n        /* \"#utility.yul\":19341:19356   */\n      revert\n        /* \"#utility.yul\":19368:19743   */\n    tag_168:\n        /* \"#utility.yul\":19407:19410   */\n      0x00\n        /* \"#utility.yul\":19426:19445   */\n      tag_443\n        /* \"#utility.yul\":19443:19444   */\n      dup3\n        /* \"#utility.yul\":19426:19445   */\n      tag_232\n      jump\t// in\n    tag_443:\n        /* \"#utility.yul\":19421:19445   */\n      swap2\n      pop\n        /* \"#utility.yul\":19459:19478   */\n      tag_444\n        /* \"#utility.yul\":19476:19477   */\n      dup4\n        /* \"#utility.yul\":19459:19478   */\n      tag_232\n      jump\t// in\n    tag_444:\n        /* \"#utility.yul\":19454:19478   */\n      swap3\n      pop\n        /* \"#utility.yul\":19501:19502   */\n      dup3\n        /* \"#utility.yul\":19498:19499   */\n      dup3\n        /* \"#utility.yul\":19494:19503   */\n      add\n        /* \"#utility.yul\":19487:19503   */\n      swap1\n      pop\n        /* \"#utility.yul\":19699:19700   */\n      dup3\n        /* \"#utility.yul\":19694:19697   */\n      dup2\n        /* \"#utility.yul\":19690:19701   */\n      slt\n        /* \"#utility.yul\":19683:19702   */\n      iszero\n        /* \"#utility.yul\":19679:19680   */\n      0x00\n        /* \"#utility.yul\":19676:19677   */\n      dup4\n        /* \"#utility.yul\":19672:19681   */\n      slt\n        /* \"#utility.yul\":19668:19703   */\n      and\n        /* \"#utility.yul\":19651:19652   */\n      dup4\n        /* \"#utility.yul\":19646:19649   */\n      dup3\n        /* \"#utility.yul\":19642:19653   */\n      slt\n        /* \"#utility.yul\":19637:19638   */\n      0x00\n        /* \"#utility.yul\":19634:19635   */\n      dup5\n        /* \"#utility.yul\":19630:19639   */\n      slt\n        /* \"#utility.yul\":19623:19640   */\n      iszero\n        /* \"#utility.yul\":19619:19654   */\n      and\n        /* \"#utility.yul\":19603:19713   */\n      or\n        /* \"#utility.yul\":19600:19736   */\n      iszero\n      tag_445\n      jumpi\n        /* \"#utility.yul\":19716:19734   */\n      tag_446\n      tag_249\n      jump\t// in\n    tag_446:\n        /* \"#utility.yul\":19600:19736   */\n    tag_445:\n        /* \"#utility.yul\":19368:19743   */\n      swap3\n      swap2\n      pop\n      pop\n      jump\t// out\n\n    auxdata: 0xa26469706673582212205cd0853e20fccf3046f334bdd6bc029a7e81dfd7e042c295aed2d9e1976a2c8864736f6c63430008110033\n}\n\nsub_1: assembly {\n        /* \"ApplicantPool.sol\":90:3714  contract ApplicantPool {... */\n      mstore(0x40, 0x80)\n        /* \"ApplicantPool.sol\":630:637  1000000 */\n      0x0f4240\n        /* \"ApplicantPool.sol\":594:637  uint256 public applicantFeeAmount = 1000000 */\n      0x08\n      sstore\n        /* \"ApplicantPool.sol\":646:799  constructor(address memberMap, address _memberPoolAddress) {... */\n      callvalue\n      dup1\n      iszero\n      tag_1\n      jumpi\n      0x00\n      dup1\n      revert\n    tag_1:\n      pop\n      mload(0x40)\n      sub(codesize, bytecodeSize)\n      dup1\n      bytecodeSize\n      dup4\n      codecopy\n      dup2\n      dup2\n      add\n      0x40\n      mstore\n      dup2\n      add\n      swap1\n      tag_2\n      swap2\n      swap1\n      tag_3\n      jump\t// in\n    tag_2:\n        /* \"ApplicantPool.sol\":732:741  memberMap */\n      dup2\n        /* \"ApplicantPool.sol\":716:719  map */\n      0x05\n      0x00\n        /* \"ApplicantPool.sol\":716:742  map = MemberMap(memberMap) */\n      0x0100\n      exp\n      dup2\n      sload\n      dup2\n      0xffffffffffffffffffffffffffffffffffffffff\n      mul\n      not\n      and\n      swap1\n      dup4\n      0xffffffffffffffffffffffffffffffffffffffff\n      and\n      mul\n      or\n      swap1\n      sstore\n      pop\n        /* \"ApplicantPool.sol\":773:791  _memberPoolAddress */\n      dup1\n        /* \"ApplicantPool.sol\":753:770  memberPoolAddress */\n      0x06\n      0x00\n        /* \"ApplicantPool.sol\":753:791  memberPoolAddress = _memberPoolAddress */\n      0x0100\n      exp\n      dup2\n      sload\n      dup2\n      0xffffffffffffffffffffffffffffffffffffffff\n      mul\n      not\n      and\n      swap1\n      dup4\n      0xffffffffffffffffffffffffffffffffffffffff\n      and\n      mul\n      or\n      swap1\n      sstore\n      pop\n        /* \"ApplicantPool.sol\":646:799  constructor(address memberMap, address _memberPoolAddress) {... */\n      pop\n      pop\n        /* \"ApplicantPool.sol\":90:3714  contract ApplicantPool {... */\n      jump(tag_6)\n        /* \"#utility.yul\":88:205   */\n    tag_8:\n        /* \"#utility.yul\":197:198   */\n      0x00\n        /* \"#utility.yul\":194:195   */\n      dup1\n        /* \"#utility.yul\":187:199   */\n      revert\n        /* \"#utility.yul\":334:460   */\n    tag_10:\n        /* \"#utility.yul\":371:378   */\n      0x00\n        /* \"#utility.yul\":411:453   */\n      0xffffffffffffffffffffffffffffffffffffffff\n        /* \"#utility.yul\":404:409   */\n      dup3\n        /* \"#utility.yul\":400:454   */\n      and\n        /* \"#utility.yul\":389:454   */\n      swap1\n      pop\n        /* \"#utility.yul\":334:460   */\n      swap2\n      swap1\n      pop\n      jump\t// out\n        /* \"#utility.yul\":466:562   */\n    tag_11:\n        /* \"#utility.yul\":503:510   */\n      0x00\n        /* \"#utility.yul\":532:556   */\n      tag_20\n        /* \"#utility.yul\":550:555   */\n      dup3\n        /* \"#utility.yul\":532:556   */\n      tag_10\n      jump\t// in\n    tag_20:\n        /* \"#utility.yul\":521:556   */\n      swap1\n      pop\n        /* \"#utility.yul\":466:562   */\n      swap2\n      swap1\n      pop\n      jump\t// out\n        /* \"#utility.yul\":568:690   */\n    tag_12:\n        /* \"#utility.yul\":641:665   */\n      tag_22\n        /* \"#utility.yul\":659:664   */\n      dup2\n        /* \"#utility.yul\":641:665   */\n      tag_11\n      jump\t// in\n    tag_22:\n        /* \"#utility.yul\":634:639   */\n      dup2\n        /* \"#utility.yul\":631:666   */\n      eq\n        /* \"#utility.yul\":621:684   */\n      tag_23\n      jumpi\n        /* \"#utility.yul\":680:681   */\n      0x00\n        /* \"#utility.yul\":677:678   */\n      dup1\n        /* \"#utility.yul\":670:682   */\n      revert\n        /* \"#utility.yul\":621:684   */\n    tag_23:\n        /* \"#utility.yul\":568:690   */\n      pop\n      jump\t// out\n        /* \"#utility.yul\":696:839   */\n    tag_13:\n        /* \"#utility.yul\":753:758   */\n      0x00\n        /* \"#utility.yul\":784:790   */\n      dup2\n        /* \"#utility.yul\":778:791   */\n      mload\n        /* \"#utility.yul\":769:791   */\n      swap1\n      pop\n        /* \"#utility.yul\":800:833   */\n      tag_25\n        /* \"#utility.yul\":827:832   */\n      dup2\n        /* \"#utility.yul\":800:833   */\n      tag_12\n      jump\t// in\n    tag_25:\n        /* \"#utility.yul\":696:839   */\n      swap3\n      swap2\n      pop\n      pop\n      jump\t// out\n        /* \"#utility.yul\":845:1352   */\n    tag_3:\n        /* \"#utility.yul\":924:930   */\n      0x00\n        /* \"#utility.yul\":932:938   */\n      dup1\n        /* \"#utility.yul\":981:983   */\n      0x40\n        /* \"#utility.yul\":969:978   */\n      dup4\n        /* \"#utility.yul\":960:967   */\n      dup6\n        /* \"#utility.yul\":956:979   */\n      sub\n        /* \"#utility.yul\":952:984   */\n      slt\n        /* \"#utility.yul\":949:1068   */\n      iszero\n      tag_27\n      jumpi\n        /* \"#utility.yul\":987:1066   */\n      tag_28\n      tag_8\n      jump\t// in\n    tag_28:\n        /* \"#utility.yul\":949:1068   */\n    tag_27:\n        /* \"#utility.yul\":1107:1108   */\n      0x00\n        /* \"#utility.yul\":1132:1196   */\n      tag_29\n        /* \"#utility.yul\":1188:1195   */\n      dup6\n        /* \"#utility.yul\":1179:1185   */\n      dup3\n        /* \"#utility.yul\":1168:1177   */\n      dup7\n        /* \"#utility.yul\":1164:1186   */\n      add\n        /* \"#utility.yul\":1132:1196   */\n      tag_13\n      jump\t// in\n    tag_29:\n        /* \"#utility.yul\":1122:1196   */\n      swap3\n      pop\n        /* \"#utility.yul\":1078:1206   */\n      pop\n        /* \"#utility.yul\":1245:1247   */\n      0x20\n        /* \"#utility.yul\":1271:1335   */\n      tag_30\n        /* \"#utility.yul\":1327:1334   */\n      dup6\n        /* \"#utility.yul\":1318:1324   */\n      dup3\n        /* \"#utility.yul\":1307:1316   */\n      dup7\n        /* \"#utility.yul\":1303:1325   */\n      add\n        /* \"#utility.yul\":1271:1335   */\n      tag_13\n      jump\t// in\n    tag_30:\n        /* \"#utility.yul\":1261:1335   */\n      swap2\n      pop\n        /* \"#utility.yul\":1216:1345   */\n      pop\n        /* \"#utility.yul\":845:1352   */\n      swap3\n      pop\n      swap3\n      swap1\n      pop\n      jump\t// out\n        /* \"ApplicantPool.sol\":90:3714  contract ApplicantPool {... */\n    tag_6:\n      dataSize(sub_0)\n      dup1\n      dataOffset(sub_0)\n      0x00\n      codecopy\n      0x00\n      return\n    stop\n\n    sub_0: assembly {\n            /* \"ApplicantPool.sol\":90:3714  contract ApplicantPool {... */\n          mstore(0x40, 0x80)\n          jumpi(tag_1, lt(calldatasize, 0x04))\n          shr(0xe0, calldataload(0x00))\n          dup1\n          0x8c468cd4\n          gt\n          tag_13\n          jumpi\n          dup1\n          0x8c468cd4\n          eq\n          tag_7\n          jumpi\n          dup1\n          0x930235b4\n          eq\n          tag_8\n          jumpi\n          dup1\n          0xa10c8a97\n          eq\n          tag_9\n          jumpi\n          dup1\n          0xb69ef8a8\n          eq\n          tag_10\n          jumpi\n          dup1\n          0xd9a87535\n          eq\n          tag_11\n          jumpi\n          dup1\n          0xfd591902\n          eq\n          tag_12\n          jumpi\n          jump(tag_1)\n        tag_13:\n          dup1\n          0xad808f\n          eq\n          tag_2\n          jumpi\n          dup1\n          0x1292a282\n          eq\n          tag_3\n          jumpi\n          dup1\n          0x273f868e\n          eq\n          tag_4\n          jumpi\n          dup1\n          0x28f4694c\n          eq\n          tag_5\n          jumpi\n          dup1\n          0x455772d2\n          eq\n          tag_6\n          jumpi\n        tag_1:\n          0x00\n          dup1\n          revert\n            /* \"ApplicantPool.sol\":2407:2604  function getApplicantWords(address applicant)... */\n        tag_2:\n          callvalue\n          dup1\n          iszero\n          tag_14\n          jumpi\n          0x00\n          dup1\n          revert\n        tag_14:\n          pop\n          tag_15\n          0x04\n          dup1\n          calldatasize\n          sub\n          dup2\n          add\n          swap1\n          tag_16\n          swap2\n          swap1\n          tag_17\n          jump\t// in\n        tag_16:\n          tag_18\n          jump\t// in\n        tag_15:\n          mload(0x40)\n          tag_19\n          swap2\n          swap1\n          tag_20\n          jump\t// in\n        tag_19:\n          mload(0x40)\n          dup1\n          swap2\n          sub\n          swap1\n          return\n            /* \"ApplicantPool.sol\":2790:2980  function approveApplicant(address applicant)... */\n        tag_3:\n          callvalue\n          dup1\n          iszero\n          tag_21\n          jumpi\n          0x00\n          dup1\n          revert\n        tag_21:\n          pop\n          tag_22\n          0x04\n          dup1\n          calldatasize\n          sub\n          dup2\n          add\n          swap1\n          tag_23\n          swap2\n          swap1\n          tag_17\n          jump\t// in\n        tag_23:\n          tag_24\n          jump\t// in\n        tag_22:\n          stop\n            /* \"ApplicantPool.sol\":2988:3342  function rejectApplicant(address applicant)... */\n        tag_4:\n          callvalue\n          dup1\n          iszero\n          tag_25\n          jumpi\n          0x00\n          dup1\n          revert\n        tag_25:\n          pop\n          tag_26\n          0x04\n          dup1\n          calldatasize\n          sub\n          dup2\n          add\n          swap1\n          tag_27\n          swap2\n          swap1\n          tag_17\n          jump\t// in\n        tag_27:\n          tag_28\n          jump\t// in\n        tag_26:\n          stop\n            /* \"ApplicantPool.sol\":1876:2399  function voteForApplicant(address applicant) public memberOnly(msg.sender) {... */\n        tag_5:\n          callvalue\n          dup1\n          iszero\n          tag_29\n          jumpi\n          0x00\n          dup1\n          revert\n        tag_29:\n          pop\n          tag_30\n          0x04\n          dup1\n          calldatasize\n          sub\n          dup2\n          add\n          swap1\n          tag_31\n          swap2\n          swap1\n          tag_17\n          jump\t// in\n        tag_31:\n          tag_32\n          jump\t// in\n        tag_30:\n          stop\n            /* \"ApplicantPool.sol\":1127:1298  function getApplicants()... */\n        tag_6:\n          callvalue\n          dup1\n          iszero\n          tag_33\n          jumpi\n          0x00\n          dup1\n          revert\n        tag_33:\n          pop\n          tag_34\n          tag_35\n          jump\t// in\n        tag_34:\n          mload(0x40)\n          tag_36\n          swap2\n          swap1\n          tag_37\n          jump\t// in\n        tag_36:\n          mload(0x40)\n          dup1\n          swap2\n          sub\n          swap1\n          return\n            /* \"ApplicantPool.sol\":273:303  address[] public applicantList */\n        tag_7:\n          callvalue\n          dup1\n          iszero\n          tag_38\n          jumpi\n          0x00\n          dup1\n          revert\n        tag_38:\n          pop\n          tag_39\n          0x04\n          dup1\n          calldatasize\n          sub\n          dup2\n          add\n          swap1\n          tag_40\n          swap2\n          swap1\n          tag_41\n          jump\t// in\n        tag_40:\n          tag_42\n          jump\t// in\n        tag_39:\n          mload(0x40)\n          tag_43\n          swap2\n          swap1\n          tag_44\n          jump\t// in\n        tag_43:\n          mload(0x40)\n          dup1\n          swap2\n          sub\n          swap1\n          return\n            /* \"ApplicantPool.sol\":526:558  address public memberPoolAddress */\n        tag_8:\n          callvalue\n          dup1\n          iszero\n          tag_45\n          jumpi\n          0x00\n          dup1\n          revert\n        tag_45:\n          pop\n          tag_46\n          tag_47\n          jump\t// in\n        tag_46:\n          mload(0x40)\n          tag_48\n          swap2\n          swap1\n          tag_44\n          jump\t// in\n        tag_48:\n          mload(0x40)\n          dup1\n          swap2\n          sub\n          swap1\n          return\n            /* \"ApplicantPool.sol\":594:637  uint256 public applicantFeeAmount = 1000000 */\n        tag_9:\n          callvalue\n          dup1\n          iszero\n          tag_49\n          jumpi\n          0x00\n          dup1\n          revert\n        tag_49:\n          pop\n          tag_50\n          tag_51\n          jump\t// in\n        tag_50:\n          mload(0x40)\n          tag_52\n          swap2\n          swap1\n          tag_53\n          jump\t// in\n        tag_52:\n          mload(0x40)\n          dup1\n          swap2\n          sub\n          swap1\n          return\n            /* \"ApplicantPool.sol\":565:587  uint256 public balance */\n        tag_10:\n          callvalue\n          dup1\n          iszero\n          tag_54\n          jumpi\n          0x00\n          dup1\n          revert\n        tag_54:\n          pop\n          tag_55\n          tag_56\n          jump\t// in\n        tag_55:\n          mload(0x40)\n          tag_57\n          swap2\n          swap1\n          tag_53\n          jump\t// in\n        tag_57:\n          mload(0x40)\n          dup1\n          swap2\n          sub\n          swap1\n          return\n            /* \"ApplicantPool.sol\":2612:2782  function getApplicantVoteCount(address applicant)... */\n        tag_11:\n          callvalue\n          dup1\n          iszero\n          tag_58\n          jumpi\n          0x00\n          dup1\n          revert\n        tag_58:\n          pop\n          tag_59\n          0x04\n          dup1\n          calldatasize\n          sub\n          dup2\n          add\n          swap1\n          tag_60\n          swap2\n          swap1\n          tag_17\n          jump\t// in\n        tag_60:\n          tag_61\n          jump\t// in\n        tag_59:\n          mload(0x40)\n          tag_62\n          swap2\n          swap1\n          tag_53\n          jump\t// in\n        tag_62:\n          mload(0x40)\n          dup1\n          swap2\n          sub\n          swap1\n          return\n            /* \"ApplicantPool.sol\":1306:1868  function createApplicant(string calldata reason) public payable {... */\n        tag_12:\n          tag_63\n          0x04\n          dup1\n          calldatasize\n          sub\n          dup2\n          add\n          swap1\n          tag_64\n          swap2\n          swap1\n          tag_65\n          jump\t// in\n        tag_64:\n          tag_66\n          jump\t// in\n        tag_63:\n          stop\n            /* \"ApplicantPool.sol\":2407:2604  function getApplicantWords(address applicant)... */\n        tag_18:\n            /* \"ApplicantPool.sol\":2533:2546  string memory */\n          0x60\n            /* \"ApplicantPool.sol\":2503:2513  msg.sender */\n          caller\n            /* \"ApplicantPool.sol\":876:879  map */\n          0x05\n          0x00\n          swap1\n          sload\n          swap1\n          0x0100\n          exp\n          swap1\n          div\n          0xffffffffffffffffffffffffffffffffffffffff\n          and\n            /* \"ApplicantPool.sol\":876:888  map.isMember */\n          0xffffffffffffffffffffffffffffffffffffffff\n          and\n          0x39ac7a08\n            /* \"ApplicantPool.sol\":889:895  sender */\n          dup3\n            /* \"ApplicantPool.sol\":897:914  memberPoolAddress */\n          0x06\n          0x00\n          swap1\n          sload\n          swap1\n          0x0100\n          exp\n          swap1\n          div\n          0xffffffffffffffffffffffffffffffffffffffff\n          and\n            /* \"ApplicantPool.sol\":876:915  map.isMember(sender, memberPoolAddress) */\n          mload(0x40)\n          dup4\n          0xffffffff\n          and\n          0xe0\n          shl\n          dup2\n          mstore\n          0x04\n          add\n          tag_68\n          swap3\n          swap2\n          swap1\n          tag_69\n          jump\t// in\n        tag_68:\n          0x20\n          mload(0x40)\n          dup1\n          dup4\n          sub\n          dup2\n          dup7\n          gas\n          staticcall\n          iszero\n          dup1\n          iszero\n          tag_71\n          jumpi\n          returndatasize\n          0x00\n          dup1\n          returndatacopy\n          revert(0x00, returndatasize)\n        tag_71:\n          pop\n          pop\n          pop\n          pop\n          mload(0x40)\n          returndatasize\n          not(0x1f)\n          0x1f\n          dup3\n          add\n          and\n          dup3\n          add\n          dup1\n          0x40\n          mstore\n          pop\n          dup2\n          add\n          swap1\n          tag_72\n          swap2\n          swap1\n          tag_73\n          jump\t// in\n        tag_72:\n            /* \"ApplicantPool.sol\":854:967  require(... */\n          tag_74\n          jumpi\n          mload(0x40)\n          0x08c379a000000000000000000000000000000000000000000000000000000000\n          dup2\n          mstore\n          0x04\n          add\n          tag_75\n          swap1\n          tag_76\n          jump\t// in\n        tag_75:\n          mload(0x40)\n          dup1\n          swap2\n          sub\n          swap1\n          revert\n        tag_74:\n            /* \"ApplicantPool.sol\":2571:2585  applicantWords */\n          0x04\n            /* \"ApplicantPool.sol\":2571:2596  applicantWords[applicant] */\n          0x00\n            /* \"ApplicantPool.sol\":2586:2595  applicant */\n          dup5\n            /* \"ApplicantPool.sol\":2571:2596  applicantWords[applicant] */\n          0xffffffffffffffffffffffffffffffffffffffff\n          and\n          0xffffffffffffffffffffffffffffffffffffffff\n          and\n          dup2\n          mstore\n          0x20\n          add\n          swap1\n          dup2\n          mstore\n          0x20\n          add\n          0x00\n          keccak256\n            /* \"ApplicantPool.sol\":2564:2596  return applicantWords[applicant] */\n          dup1\n          sload\n          tag_78\n          swap1\n          tag_79\n          jump\t// in\n        tag_78:\n          dup1\n          0x1f\n          add\n          0x20\n          dup1\n          swap2\n          div\n          mul\n          0x20\n          add\n          mload(0x40)\n          swap1\n          dup2\n          add\n          0x40\n          mstore\n          dup1\n          swap3\n          swap2\n          swap1\n          dup2\n          dup2\n          mstore\n          0x20\n          add\n          dup3\n          dup1\n          sload\n          tag_80\n          swap1\n          tag_79\n          jump\t// in\n        tag_80:\n          dup1\n          iszero\n          tag_81\n          jumpi\n          dup1\n          0x1f\n          lt\n          tag_82\n          jumpi\n          0x0100\n          dup1\n          dup4\n          sload\n          div\n          mul\n          dup4\n          mstore\n          swap2\n          0x20\n          add\n          swap2\n          jump(tag_81)\n        tag_82:\n          dup3\n          add\n          swap2\n          swap1\n          0x00\n          mstore\n          keccak256(0x00, 0x20)\n          swap1\n        tag_83:\n          dup2\n          sload\n          dup2\n          mstore\n          swap1\n          0x01\n          add\n          swap1\n          0x20\n          add\n          dup1\n          dup4\n          gt\n          tag_83\n          jumpi\n          dup3\n          swap1\n          sub\n          0x1f\n          and\n          dup3\n          add\n          swap2\n        tag_81:\n          pop\n          pop\n          pop\n          pop\n          pop\n          swap2\n          pop\n            /* \"ApplicantPool.sol\":2407:2604  function getApplicantWords(address applicant)... */\n          pop\n          swap2\n          swap1\n          pop\n          jump\t// out\n            /* \"ApplicantPool.sol\":2790:2980  function approveApplicant(address applicant)... */\n        tag_24:\n            /* \"ApplicantPool.sol\":2875:2885  msg.sender */\n          caller\n            /* \"ApplicantPool.sol\":1064:1081  memberPoolAddress */\n          0x06\n          0x00\n          swap1\n          sload\n          swap1\n          0x0100\n          exp\n          swap1\n          div\n          0xffffffffffffffffffffffffffffffffffffffff\n          and\n            /* \"ApplicantPool.sol\":1054:1081  sender == memberPoolAddress */\n          0xffffffffffffffffffffffffffffffffffffffff\n          and\n            /* \"ApplicantPool.sol\":1054:1060  sender */\n          dup2\n            /* \"ApplicantPool.sol\":1054:1081  sender == memberPoolAddress */\n          0xffffffffffffffffffffffffffffffffffffffff\n          and\n          eq\n            /* \"ApplicantPool.sol\":1046:1099  require(sender == memberPoolAddress, \"Access Denied\") */\n          tag_85\n          jumpi\n          mload(0x40)\n          0x08c379a000000000000000000000000000000000000000000000000000000000\n          dup2\n          mstore\n          0x04\n          add\n          tag_86\n          swap1\n          tag_87\n          jump\t// in\n        tag_86:\n          mload(0x40)\n          dup1\n          swap2\n          sub\n          swap1\n          revert\n        tag_85:\n            /* \"ApplicantPool.sol\":2903:2928  _burnApplicant(applicant) */\n          tag_89\n            /* \"ApplicantPool.sol\":2918:2927  applicant */\n          dup3\n            /* \"ApplicantPool.sol\":2903:2917  _burnApplicant */\n          tag_90\n            /* \"ApplicantPool.sol\":2903:2928  _burnApplicant(applicant) */\n          jump\t// in\n        tag_89:\n            /* \"ApplicantPool.sol\":2946:2960  applicantVotes */\n          0x01\n            /* \"ApplicantPool.sol\":2946:2972  applicantVotes[msg.sender] */\n          0x00\n            /* \"ApplicantPool.sol\":2961:2971  msg.sender */\n          caller\n            /* \"ApplicantPool.sol\":2946:2972  applicantVotes[msg.sender] */\n          0xffffffffffffffffffffffffffffffffffffffff\n          and\n          0xffffffffffffffffffffffffffffffffffffffff\n          and\n          dup2\n          mstore\n          0x20\n          add\n          swap1\n          dup2\n          mstore\n          0x20\n          add\n          0x00\n          keccak256\n          0x00\n            /* \"ApplicantPool.sol\":2939:2972  delete applicantVotes[msg.sender] */\n          tag_91\n          swap2\n          swap1\n          tag_92\n          jump\t// in\n        tag_91:\n            /* \"ApplicantPool.sol\":2790:2980  function approveApplicant(address applicant)... */\n          pop\n          pop\n          jump\t// out\n            /* \"ApplicantPool.sol\":2988:3342  function rejectApplicant(address applicant)... */\n        tag_28:\n            /* \"ApplicantPool.sol\":3072:3082  msg.sender */\n          caller\n            /* \"ApplicantPool.sol\":1064:1081  memberPoolAddress */\n          0x06\n          0x00\n          swap1\n          sload\n          swap1\n          0x0100\n          exp\n          swap1\n          div\n          0xffffffffffffffffffffffffffffffffffffffff\n          and\n            /* \"ApplicantPool.sol\":1054:1081  sender == memberPoolAddress */\n          0xffffffffffffffffffffffffffffffffffffffff\n          and\n            /* \"ApplicantPool.sol\":1054:1060  sender */\n          dup2\n            /* \"ApplicantPool.sol\":1054:1081  sender == memberPoolAddress */\n          0xffffffffffffffffffffffffffffffffffffffff\n          and\n          eq\n            /* \"ApplicantPool.sol\":1046:1099  require(sender == memberPoolAddress, \"Access Denied\") */\n          tag_94\n          jumpi\n          mload(0x40)\n          0x08c379a000000000000000000000000000000000000000000000000000000000\n          dup2\n          mstore\n          0x04\n          add\n          tag_95\n          swap1\n          tag_87\n          jump\t// in\n        tag_95:\n          mload(0x40)\n          dup1\n          swap2\n          sub\n          swap1\n          revert\n        tag_94:\n            /* \"ApplicantPool.sol\":3108:3124  activeApplicants */\n          0x03\n            /* \"ApplicantPool.sol\":3108:3135  activeApplicants[applicant] */\n          0x00\n            /* \"ApplicantPool.sol\":3125:3134  applicant */\n          dup4\n            /* \"ApplicantPool.sol\":3108:3135  activeApplicants[applicant] */\n          0xffffffffffffffffffffffffffffffffffffffff\n          and\n          0xffffffffffffffffffffffffffffffffffffffff\n          and\n          dup2\n          mstore\n          0x20\n          add\n          swap1\n          dup2\n          mstore\n          0x20\n          add\n          0x00\n          keccak256\n          0x00\n          swap1\n          sload\n          swap1\n          0x0100\n          exp\n          swap1\n          div\n          0xff\n          and\n            /* \"ApplicantPool.sol\":3100:3165  require(activeApplicants[applicant], \"Invalid applicant address\") */\n          tag_97\n          jumpi\n          mload(0x40)\n          0x08c379a000000000000000000000000000000000000000000000000000000000\n          dup2\n          mstore\n          0x04\n          add\n          tag_98\n          swap1\n          tag_99\n          jump\t// in\n        tag_98:\n          mload(0x40)\n          dup1\n          swap2\n          sub\n          swap1\n          revert\n        tag_97:\n            /* \"ApplicantPool.sol\":3206:3211  false */\n          0x00\n            /* \"ApplicantPool.sol\":3176:3192  activeApplicants */\n          0x03\n            /* \"ApplicantPool.sol\":3176:3203  activeApplicants[applicant] */\n          0x00\n            /* \"ApplicantPool.sol\":3193:3202  applicant */\n          dup5\n            /* \"ApplicantPool.sol\":3176:3203  activeApplicants[applicant] */\n          0xffffffffffffffffffffffffffffffffffffffff\n          and\n          0xffffffffffffffffffffffffffffffffffffffff\n          and\n          dup2\n          mstore\n          0x20\n          add\n          swap1\n          dup2\n          mstore\n          0x20\n          add\n          0x00\n          keccak256\n          0x00\n            /* \"ApplicantPool.sol\":3176:3211  activeApplicants[applicant] = false */\n          0x0100\n          exp\n          dup2\n          sload\n          dup2\n          0xff\n          mul\n          not\n          and\n          swap1\n          dup4\n          iszero\n          iszero\n          mul\n          or\n          swap1\n          sstore\n          pop\n            /* \"ApplicantPool.sol\":3253:3254  1 */\n          0x01\n            /* \"ApplicantPool.sol\":3222:3237  applicantPoints */\n          0x02\n            /* \"ApplicantPool.sol\":3222:3249  applicantPoints[msg.sender] */\n          0x00\n            /* \"ApplicantPool.sol\":3238:3248  msg.sender */\n          caller\n            /* \"ApplicantPool.sol\":3222:3249  applicantPoints[msg.sender] */\n          0xffffffffffffffffffffffffffffffffffffffff\n          and\n          0xffffffffffffffffffffffffffffffffffffffff\n          and\n          dup2\n          mstore\n          0x20\n          add\n          swap1\n          dup2\n          mstore\n          0x20\n          add\n          0x00\n          keccak256\n          0x00\n            /* \"ApplicantPool.sol\":3222:3254  applicantPoints[msg.sender] -= 1 */\n          dup3\n          dup3\n          sload\n          tag_100\n          swap2\n          swap1\n          tag_101\n          jump\t// in\n        tag_100:\n          swap3\n          pop\n          pop\n          dup2\n          swap1\n          sstore\n          pop\n            /* \"ApplicantPool.sol\":3265:3290  _burnApplicant(applicant) */\n          tag_102\n            /* \"ApplicantPool.sol\":3280:3289  applicant */\n          dup3\n            /* \"ApplicantPool.sol\":3265:3279  _burnApplicant */\n          tag_90\n            /* \"ApplicantPool.sol\":3265:3290  _burnApplicant(applicant) */\n          jump\t// in\n        tag_102:\n            /* \"ApplicantPool.sol\":3308:3322  applicantVotes */\n          0x01\n            /* \"ApplicantPool.sol\":3308:3334  applicantVotes[msg.sender] */\n          0x00\n            /* \"ApplicantPool.sol\":3323:3333  msg.sender */\n          caller\n            /* \"ApplicantPool.sol\":3308:3334  applicantVotes[msg.sender] */\n          0xffffffffffffffffffffffffffffffffffffffff\n          and\n          0xffffffffffffffffffffffffffffffffffffffff\n          and\n          dup2\n          mstore\n          0x20\n          add\n          swap1\n          dup2\n          mstore\n          0x20\n          add\n          0x00\n          keccak256\n          0x00\n            /* \"ApplicantPool.sol\":3301:3334  delete applicantVotes[msg.sender] */\n          tag_103\n          swap2\n          swap1\n          tag_92\n          jump\t// in\n        tag_103:\n            /* \"ApplicantPool.sol\":2988:3342  function rejectApplicant(address applicant)... */\n          pop\n          pop\n          jump\t// out\n            /* \"ApplicantPool.sol\":1876:2399  function voteForApplicant(address applicant) public memberOnly(msg.sender) {... */\n        tag_32:\n            /* \"ApplicantPool.sol\":1939:1949  msg.sender */\n          caller\n            /* \"ApplicantPool.sol\":876:879  map */\n          0x05\n          0x00\n          swap1\n          sload\n          swap1\n          0x0100\n          exp\n          swap1\n          div\n          0xffffffffffffffffffffffffffffffffffffffff\n          and\n            /* \"ApplicantPool.sol\":876:888  map.isMember */\n          0xffffffffffffffffffffffffffffffffffffffff\n          and\n          0x39ac7a08\n            /* \"ApplicantPool.sol\":889:895  sender */\n          dup3\n            /* \"ApplicantPool.sol\":897:914  memberPoolAddress */\n          0x06\n          0x00\n          swap1\n          sload\n          swap1\n          0x0100\n          exp\n          swap1\n          div\n          0xffffffffffffffffffffffffffffffffffffffff\n          and\n            /* \"ApplicantPool.sol\":876:915  map.isMember(sender, memberPoolAddress) */\n          mload(0x40)\n          dup4\n          0xffffffff\n          and\n          0xe0\n          shl\n          dup2\n          mstore\n          0x04\n          add\n          tag_105\n          swap3\n          swap2\n          swap1\n          tag_69\n          jump\t// in\n        tag_105:\n          0x20\n          mload(0x40)\n          dup1\n          dup4\n          sub\n          dup2\n          dup7\n          gas\n          staticcall\n          iszero\n          dup1\n          iszero\n          tag_107\n          jumpi\n          returndatasize\n          0x00\n          dup1\n          returndatacopy\n          revert(0x00, returndatasize)\n        tag_107:\n          pop\n          pop\n          pop\n          pop\n          mload(0x40)\n          returndatasize\n          not(0x1f)\n          0x1f\n          dup3\n          add\n          and\n          dup3\n          add\n          dup1\n          0x40\n          mstore\n          pop\n          dup2\n          add\n          swap1\n          tag_108\n          swap2\n          swap1\n          tag_73\n          jump\t// in\n        tag_108:\n            /* \"ApplicantPool.sol\":854:967  require(... */\n          tag_109\n          jumpi\n          mload(0x40)\n          0x08c379a000000000000000000000000000000000000000000000000000000000\n          dup2\n          mstore\n          0x04\n          add\n          tag_110\n          swap1\n          tag_76\n          jump\t// in\n        tag_110:\n          mload(0x40)\n          dup1\n          swap2\n          sub\n          swap1\n          revert\n        tag_109:\n            /* \"ApplicantPool.sol\":1970:1986  activeApplicants */\n          0x03\n            /* \"ApplicantPool.sol\":1970:1997  activeApplicants[applicant] */\n          0x00\n            /* \"ApplicantPool.sol\":1987:1996  applicant */\n          dup4\n            /* \"ApplicantPool.sol\":1970:1997  activeApplicants[applicant] */\n          0xffffffffffffffffffffffffffffffffffffffff\n          and\n          0xffffffffffffffffffffffffffffffffffffffff\n          and\n          dup2\n          mstore\n          0x20\n          add\n          swap1\n          dup2\n          mstore\n          0x20\n          add\n          0x00\n          keccak256\n          0x00\n          swap1\n          sload\n          swap1\n          0x0100\n          exp\n          swap1\n          div\n          0xff\n          and\n            /* \"ApplicantPool.sol\":1962:2017  require(activeApplicants[applicant], \"Not a applicant\") */\n          tag_112\n          jumpi\n          mload(0x40)\n          0x08c379a000000000000000000000000000000000000000000000000000000000\n          dup2\n          mstore\n          0x04\n          add\n          tag_113\n          swap1\n          tag_114\n          jump\t// in\n        tag_113:\n          mload(0x40)\n          dup1\n          swap2\n          sub\n          swap1\n          revert\n        tag_112:\n            /* \"ApplicantPool.sol\":2028:2040  bool didVote */\n          0x00\n            /* \"ApplicantPool.sol\":2064:2073  uint256 i */\n          dup1\n            /* \"ApplicantPool.sol\":2059:2245  for (uint256 i = 0; i < applicantVotes[applicant].length; i++) {... */\n        tag_115:\n            /* \"ApplicantPool.sol\":2083:2097  applicantVotes */\n          0x01\n            /* \"ApplicantPool.sol\":2083:2108  applicantVotes[applicant] */\n          0x00\n            /* \"ApplicantPool.sol\":2098:2107  applicant */\n          dup6\n            /* \"ApplicantPool.sol\":2083:2108  applicantVotes[applicant] */\n          0xffffffffffffffffffffffffffffffffffffffff\n          and\n          0xffffffffffffffffffffffffffffffffffffffff\n          and\n          dup2\n          mstore\n          0x20\n          add\n          swap1\n          dup2\n          mstore\n          0x20\n          add\n          0x00\n          keccak256\n            /* \"ApplicantPool.sol\":2083:2115  applicantVotes[applicant].length */\n          dup1\n          sload\n          swap1\n          pop\n            /* \"ApplicantPool.sol\":2079:2080  i */\n          dup2\n            /* \"ApplicantPool.sol\":2079:2115  i < applicantVotes[applicant].length */\n          lt\n            /* \"ApplicantPool.sol\":2059:2245  for (uint256 i = 0; i < applicantVotes[applicant].length; i++) {... */\n          iszero\n          tag_116\n          jumpi\n            /* \"ApplicantPool.sol\":2173:2183  msg.sender */\n          caller\n            /* \"ApplicantPool.sol\":2141:2183  applicantVotes[applicant][i] == msg.sender */\n          0xffffffffffffffffffffffffffffffffffffffff\n          and\n            /* \"ApplicantPool.sol\":2141:2155  applicantVotes */\n          0x01\n            /* \"ApplicantPool.sol\":2141:2166  applicantVotes[applicant] */\n          0x00\n            /* \"ApplicantPool.sol\":2156:2165  applicant */\n          dup7\n            /* \"ApplicantPool.sol\":2141:2166  applicantVotes[applicant] */\n          0xffffffffffffffffffffffffffffffffffffffff\n          and\n          0xffffffffffffffffffffffffffffffffffffffff\n          and\n          dup2\n          mstore\n          0x20\n          add\n          swap1\n          dup2\n          mstore\n          0x20\n          add\n          0x00\n          keccak256\n            /* \"ApplicantPool.sol\":2167:2168  i */\n          dup3\n            /* \"ApplicantPool.sol\":2141:2169  applicantVotes[applicant][i] */\n          dup2\n          sload\n          dup2\n          lt\n          tag_118\n          jumpi\n          tag_119\n          tag_120\n          jump\t// in\n        tag_119:\n        tag_118:\n          swap1\n          0x00\n          mstore\n          keccak256(0x00, 0x20)\n          add\n          0x00\n          swap1\n          sload\n          swap1\n          0x0100\n          exp\n          swap1\n          div\n          0xffffffffffffffffffffffffffffffffffffffff\n          and\n            /* \"ApplicantPool.sol\":2141:2183  applicantVotes[applicant][i] == msg.sender */\n          0xffffffffffffffffffffffffffffffffffffffff\n          and\n          sub\n            /* \"ApplicantPool.sol\":2137:2234  if (applicantVotes[applicant][i] == msg.sender) {... */\n          tag_122\n          jumpi\n            /* \"ApplicantPool.sol\":2214:2218  true */\n          0x01\n            /* \"ApplicantPool.sol\":2204:2218  didVote = true */\n          swap2\n          pop\n            /* \"ApplicantPool.sol\":2137:2234  if (applicantVotes[applicant][i] == msg.sender) {... */\n        tag_122:\n            /* \"ApplicantPool.sol\":2117:2120  i++ */\n          dup1\n          dup1\n          tag_123\n          swap1\n          tag_124\n          jump\t// in\n        tag_123:\n          swap2\n          pop\n          pop\n            /* \"ApplicantPool.sol\":2059:2245  for (uint256 i = 0; i < applicantVotes[applicant].length; i++) {... */\n          jump(tag_115)\n        tag_116:\n          pop\n            /* \"ApplicantPool.sol\":2264:2271  didVote */\n          dup1\n            /* \"ApplicantPool.sol\":2263:2271  !didVote */\n          iszero\n            /* \"ApplicantPool.sol\":2255:2296  require(!didVote, \"Sender already voted\") */\n          tag_125\n          jumpi\n          mload(0x40)\n          0x08c379a000000000000000000000000000000000000000000000000000000000\n          dup2\n          mstore\n          0x04\n          add\n          tag_126\n          swap1\n          tag_127\n          jump\t// in\n        tag_126:\n          mload(0x40)\n          dup1\n          swap2\n          sub\n          swap1\n          revert\n        tag_125:\n            /* \"ApplicantPool.sol\":2307:2321  applicantVotes */\n          0x01\n            /* \"ApplicantPool.sol\":2307:2332  applicantVotes[applicant] */\n          0x00\n            /* \"ApplicantPool.sol\":2322:2331  applicant */\n          dup5\n            /* \"ApplicantPool.sol\":2307:2332  applicantVotes[applicant] */\n          0xffffffffffffffffffffffffffffffffffffffff\n          and\n          0xffffffffffffffffffffffffffffffffffffffff\n          and\n          dup2\n          mstore\n          0x20\n          add\n          swap1\n          dup2\n          mstore\n          0x20\n          add\n          0x00\n          keccak256\n            /* \"ApplicantPool.sol\":2338:2348  msg.sender */\n          caller\n            /* \"ApplicantPool.sol\":2307:2349  applicantVotes[applicant].push(msg.sender) */\n          swap1\n          dup1\n          0x01\n          dup2\n          sload\n          add\n          dup1\n          dup3\n          sstore\n          dup1\n          swap2\n          pop\n          pop\n          0x01\n          swap1\n          sub\n          swap1\n          0x00\n          mstore\n          keccak256(0x00, 0x20)\n          add\n          0x00\n          swap1\n          swap2\n          swap1\n          swap2\n          swap1\n          swap2\n          0x0100\n          exp\n          dup2\n          sload\n          dup2\n          0xffffffffffffffffffffffffffffffffffffffff\n          mul\n          not\n          and\n          swap1\n          dup4\n          0xffffffffffffffffffffffffffffffffffffffff\n          and\n          mul\n          or\n          swap1\n          sstore\n          pop\n            /* \"ApplicantPool.sol\":2390:2391  1 */\n          0x01\n            /* \"ApplicantPool.sol\":2360:2375  applicantPoints */\n          0x02\n            /* \"ApplicantPool.sol\":2360:2386  applicantPoints[applicant] */\n          0x00\n            /* \"ApplicantPool.sol\":2376:2385  applicant */\n          dup6\n            /* \"ApplicantPool.sol\":2360:2386  applicantPoints[applicant] */\n          0xffffffffffffffffffffffffffffffffffffffff\n          and\n          0xffffffffffffffffffffffffffffffffffffffff\n          and\n          dup2\n          mstore\n          0x20\n          add\n          swap1\n          dup2\n          mstore\n          0x20\n          add\n          0x00\n          keccak256\n          0x00\n            /* \"ApplicantPool.sol\":2360:2391  applicantPoints[applicant] += 1 */\n          dup3\n          dup3\n          sload\n          tag_129\n          swap2\n          swap1\n          tag_130\n          jump\t// in\n        tag_129:\n          swap3\n          pop\n          pop\n          dup2\n          swap1\n          sstore\n          pop\n            /* \"ApplicantPool.sol\":1951:2399  {... */\n          pop\n            /* \"ApplicantPool.sol\":1876:2399  function voteForApplicant(address applicant) public memberOnly(msg.sender) {... */\n          pop\n          pop\n          jump\t// out\n            /* \"ApplicantPool.sol\":1127:1298  function getApplicants()... */\n        tag_35:\n            /* \"ApplicantPool.sol\":1236:1252  address[] memory */\n          0x60\n            /* \"ApplicantPool.sol\":1206:1216  msg.sender */\n          caller\n            /* \"ApplicantPool.sol\":1064:1081  memberPoolAddress */\n          0x06\n          0x00\n          swap1\n          sload\n          swap1\n          0x0100\n          exp\n          swap1\n          div\n          0xffffffffffffffffffffffffffffffffffffffff\n          and\n            /* \"ApplicantPool.sol\":1054:1081  sender == memberPoolAddress */\n          0xffffffffffffffffffffffffffffffffffffffff\n          and\n            /* \"ApplicantPool.sol\":1054:1060  sender */\n          dup2\n            /* \"ApplicantPool.sol\":1054:1081  sender == memberPoolAddress */\n          0xffffffffffffffffffffffffffffffffffffffff\n          and\n          eq\n            /* \"ApplicantPool.sol\":1046:1099  require(sender == memberPoolAddress, \"Access Denied\") */\n          tag_132\n          jumpi\n          mload(0x40)\n          0x08c379a000000000000000000000000000000000000000000000000000000000\n          dup2\n          mstore\n          0x04\n          add\n          tag_133\n          swap1\n          tag_87\n          jump\t// in\n        tag_133:\n          mload(0x40)\n          dup1\n          swap2\n          sub\n          swap1\n          revert\n        tag_132:\n            /* \"ApplicantPool.sol\":1277:1290  applicantList */\n          0x00\n            /* \"ApplicantPool.sol\":1270:1290  return applicantList */\n          dup1\n          sload\n          dup1\n          0x20\n          mul\n          0x20\n          add\n          mload(0x40)\n          swap1\n          dup2\n          add\n          0x40\n          mstore\n          dup1\n          swap3\n          swap2\n          swap1\n          dup2\n          dup2\n          mstore\n          0x20\n          add\n          dup3\n          dup1\n          sload\n          dup1\n          iszero\n          tag_135\n          jumpi\n          0x20\n          mul\n          dup3\n          add\n          swap2\n          swap1\n          0x00\n          mstore\n          keccak256(0x00, 0x20)\n          swap1\n        tag_136:\n          dup2\n          0x00\n          swap1\n          sload\n          swap1\n          0x0100\n          exp\n          swap1\n          div\n          0xffffffffffffffffffffffffffffffffffffffff\n          and\n          0xffffffffffffffffffffffffffffffffffffffff\n          and\n          dup2\n          mstore\n          0x20\n          add\n          swap1\n          0x01\n          add\n          swap1\n          dup1\n          dup4\n          gt\n          tag_136\n          jumpi\n        tag_135:\n          pop\n          pop\n          pop\n          pop\n          pop\n          swap2\n          pop\n            /* \"ApplicantPool.sol\":1127:1298  function getApplicants()... */\n          pop\n          swap1\n          jump\t// out\n            /* \"ApplicantPool.sol\":273:303  address[] public applicantList */\n        tag_42:\n          0x00\n          dup2\n          dup2\n          sload\n          dup2\n          lt\n          tag_137\n          jumpi\n          0x00\n          dup1\n          revert\n        tag_137:\n          swap1\n          0x00\n          mstore\n          keccak256(0x00, 0x20)\n          add\n          0x00\n          swap2\n          pop\n          sload\n          swap1\n          0x0100\n          exp\n          swap1\n          div\n          0xffffffffffffffffffffffffffffffffffffffff\n          and\n          dup2\n          jump\t// out\n            /* \"ApplicantPool.sol\":526:558  address public memberPoolAddress */\n        tag_47:\n          0x06\n          0x00\n          swap1\n          sload\n          swap1\n          0x0100\n          exp\n          swap1\n          div\n          0xffffffffffffffffffffffffffffffffffffffff\n          and\n          dup2\n          jump\t// out\n            /* \"ApplicantPool.sol\":594:637  uint256 public applicantFeeAmount = 1000000 */\n        tag_51:\n          sload(0x08)\n          dup2\n          jump\t// out\n            /* \"ApplicantPool.sol\":565:587  uint256 public balance */\n        tag_56:\n          sload(0x07)\n          dup2\n          jump\t// out\n            /* \"ApplicantPool.sol\":2612:2782  function getApplicantVoteCount(address applicant)... */\n        tag_61:\n            /* \"ApplicantPool.sol\":2710:2717  uint256 */\n          0x00\n            /* \"ApplicantPool.sol\":2742:2756  applicantVotes */\n          0x01\n            /* \"ApplicantPool.sol\":2742:2767  applicantVotes[applicant] */\n          0x00\n            /* \"ApplicantPool.sol\":2757:2766  applicant */\n          dup4\n            /* \"ApplicantPool.sol\":2742:2767  applicantVotes[applicant] */\n          0xffffffffffffffffffffffffffffffffffffffff\n          and\n          0xffffffffffffffffffffffffffffffffffffffff\n          and\n          dup2\n          mstore\n          0x20\n          add\n          swap1\n          dup2\n          mstore\n          0x20\n          add\n          0x00\n          keccak256\n            /* \"ApplicantPool.sol\":2742:2774  applicantVotes[applicant].length */\n          dup1\n          sload\n          swap1\n          pop\n            /* \"ApplicantPool.sol\":2735:2774  return applicantVotes[applicant].length */\n          swap1\n          pop\n            /* \"ApplicantPool.sol\":2612:2782  function getApplicantVoteCount(address applicant)... */\n          swap2\n          swap1\n          pop\n          jump\t// out\n            /* \"ApplicantPool.sol\":1306:1868  function createApplicant(string calldata reason) public payable {... */\n        tag_66:\n            /* \"ApplicantPool.sol\":1404:1407  map */\n          0x05\n          0x00\n          swap1\n          sload\n          swap1\n          0x0100\n          exp\n          swap1\n          div\n          0xffffffffffffffffffffffffffffffffffffffff\n          and\n            /* \"ApplicantPool.sol\":1404:1416  map.isMember */\n          0xffffffffffffffffffffffffffffffffffffffff\n          and\n          0x39ac7a08\n            /* \"ApplicantPool.sol\":1417:1427  msg.sender */\n          caller\n            /* \"ApplicantPool.sol\":1429:1446  memberPoolAddress */\n          0x06\n          0x00\n          swap1\n          sload\n          swap1\n          0x0100\n          exp\n          swap1\n          div\n          0xffffffffffffffffffffffffffffffffffffffff\n          and\n            /* \"ApplicantPool.sol\":1404:1447  map.isMember(msg.sender, memberPoolAddress) */\n          mload(0x40)\n          dup4\n          0xffffffff\n          and\n          0xe0\n          shl\n          dup2\n          mstore\n          0x04\n          add\n          tag_141\n          swap3\n          swap2\n          swap1\n          tag_69\n          jump\t// in\n        tag_141:\n          0x20\n          mload(0x40)\n          dup1\n          dup4\n          sub\n          dup2\n          dup7\n          gas\n          staticcall\n          iszero\n          dup1\n          iszero\n          tag_143\n          jumpi\n          returndatasize\n          0x00\n          dup1\n          returndatacopy\n          revert(0x00, returndatasize)\n        tag_143:\n          pop\n          pop\n          pop\n          pop\n          mload(0x40)\n          returndatasize\n          not(0x1f)\n          0x1f\n          dup3\n          add\n          and\n          dup3\n          add\n          dup1\n          0x40\n          mstore\n          pop\n          dup2\n          add\n          swap1\n          tag_144\n          swap2\n          swap1\n          tag_73\n          jump\t// in\n        tag_144:\n            /* \"ApplicantPool.sol\":1403:1447  !map.isMember(msg.sender, memberPoolAddress) */\n          iszero\n            /* \"ApplicantPool.sol\":1381:1496  require(... */\n          tag_145\n          jumpi\n          mload(0x40)\n          0x08c379a000000000000000000000000000000000000000000000000000000000\n          dup2\n          mstore\n          0x04\n          add\n          tag_146\n          swap1\n          tag_147\n          jump\t// in\n        tag_146:\n          mload(0x40)\n          dup1\n          swap2\n          sub\n          swap1\n          revert\n        tag_145:\n            /* \"ApplicantPool.sol\":1516:1532  activeApplicants */\n          0x03\n            /* \"ApplicantPool.sol\":1516:1544  activeApplicants[msg.sender] */\n          0x00\n            /* \"ApplicantPool.sol\":1533:1543  msg.sender */\n          caller\n            /* \"ApplicantPool.sol\":1516:1544  activeApplicants[msg.sender] */\n          0xffffffffffffffffffffffffffffffffffffffff\n          and\n          0xffffffffffffffffffffffffffffffffffffffff\n          and\n          dup2\n          mstore\n          0x20\n          add\n          swap1\n          dup2\n          mstore\n          0x20\n          add\n          0x00\n          keccak256\n          0x00\n          swap1\n          sload\n          swap1\n          0x0100\n          exp\n          swap1\n          div\n          0xff\n          and\n            /* \"ApplicantPool.sol\":1515:1544  !activeApplicants[msg.sender] */\n          iszero\n            /* \"ApplicantPool.sol\":1507:1573  require(!activeApplicants[msg.sender], \"Already active applicant\") */\n          tag_148\n          jumpi\n          mload(0x40)\n          0x08c379a000000000000000000000000000000000000000000000000000000000\n          dup2\n          mstore\n          0x04\n          add\n          tag_149\n          swap1\n          tag_150\n          jump\t// in\n        tag_149:\n          mload(0x40)\n          dup1\n          swap2\n          sub\n          swap1\n          revert\n        tag_148:\n            /* \"ApplicantPool.sol\":1622:1624  -3 */\n          0xfffffffffffffffffffffffffffffffffffffffffffffffffffffffffffffffd\n            /* \"ApplicantPool.sol\":1592:1607  applicantPoints */\n          0x02\n            /* \"ApplicantPool.sol\":1592:1619  applicantPoints[msg.sender] */\n          0x00\n            /* \"ApplicantPool.sol\":1608:1618  msg.sender */\n          caller\n            /* \"ApplicantPool.sol\":1592:1619  applicantPoints[msg.sender] */\n          0xffffffffffffffffffffffffffffffffffffffff\n          and\n          0xffffffffffffffffffffffffffffffffffffffff\n          and\n          dup2\n          mstore\n          0x20\n          add\n          swap1\n          dup2\n          mstore\n          0x20\n          add\n          0x00\n          keccak256\n          sload\n            /* \"ApplicantPool.sol\":1592:1624  applicantPoints[msg.sender] > -3 */\n          sgt\n            /* \"ApplicantPool.sol\":1584:1645  require(applicantPoints[msg.sender] > -3, \"account rejected\") */\n          tag_151\n          jumpi\n          mload(0x40)\n          0x08c379a000000000000000000000000000000000000000000000000000000000\n          dup2\n          mstore\n          0x04\n          add\n          tag_152\n          swap1\n          tag_153\n          jump\t// in\n        tag_152:\n          mload(0x40)\n          dup1\n          swap2\n          sub\n          swap1\n          revert\n        tag_151:\n            /* \"ApplicantPool.sol\":1677:1695  applicantFeeAmount */\n          sload(0x08)\n            /* \"ApplicantPool.sol\":1664:1673  msg.value */\n          callvalue\n            /* \"ApplicantPool.sol\":1664:1695  msg.value >= applicantFeeAmount */\n          lt\n          iszero\n            /* \"ApplicantPool.sol\":1656:1696  require(msg.value >= applicantFeeAmount) */\n          tag_154\n          jumpi\n          0x00\n          dup1\n          revert\n        tag_154:\n            /* \"ApplicantPool.sol\":1718:1727  msg.value */\n          callvalue\n            /* \"ApplicantPool.sol\":1707:1714  balance */\n          0x07\n          0x00\n            /* \"ApplicantPool.sol\":1707:1727  balance += msg.value */\n          dup3\n          dup3\n          sload\n          tag_155\n          swap2\n          swap1\n          tag_156\n          jump\t// in\n        tag_155:\n          swap3\n          pop\n          pop\n          dup2\n          swap1\n          sstore\n          pop\n            /* \"ApplicantPool.sol\":1767:1773  reason */\n          dup2\n          dup2\n            /* \"ApplicantPool.sol\":1738:1752  applicantWords */\n          0x04\n            /* \"ApplicantPool.sol\":1738:1764  applicantWords[msg.sender] */\n          0x00\n            /* \"ApplicantPool.sol\":1753:1763  msg.sender */\n          caller\n            /* \"ApplicantPool.sol\":1738:1764  applicantWords[msg.sender] */\n          0xffffffffffffffffffffffffffffffffffffffff\n          and\n          0xffffffffffffffffffffffffffffffffffffffff\n          and\n          dup2\n          mstore\n          0x20\n          add\n          swap1\n          dup2\n          mstore\n          0x20\n          add\n          0x00\n          keccak256\n            /* \"ApplicantPool.sol\":1738:1773  applicantWords[msg.sender] = reason */\n          swap2\n          dup3\n          tag_157\n          swap3\n          swap2\n          swap1\n          tag_158\n          jump\t// in\n        tag_157:\n          pop\n            /* \"ApplicantPool.sol\":1815:1819  true */\n          0x01\n            /* \"ApplicantPool.sol\":1784:1800  activeApplicants */\n          0x03\n            /* \"ApplicantPool.sol\":1784:1812  activeApplicants[msg.sender] */\n          0x00\n            /* \"ApplicantPool.sol\":1801:1811  msg.sender */\n          caller\n            /* \"ApplicantPool.sol\":1784:1812  activeApplicants[msg.sender] */\n          0xffffffffffffffffffffffffffffffffffffffff\n          and\n          0xffffffffffffffffffffffffffffffffffffffff\n          and\n          dup2\n          mstore\n          0x20\n          add\n          swap1\n          dup2\n          mstore\n          0x20\n          add\n          0x00\n          keccak256\n          0x00\n            /* \"ApplicantPool.sol\":1784:1819  activeApplicants[msg.sender] = true */\n          0x0100\n          exp\n          dup2\n          sload\n          dup2\n          0xff\n          mul\n          not\n          and\n          swap1\n          dup4\n          iszero\n          iszero\n          mul\n          or\n          swap1\n          sstore\n          pop\n            /* \"ApplicantPool.sol\":1830:1843  applicantList */\n          0x00\n            /* \"ApplicantPool.sol\":1849:1859  msg.sender */\n          caller\n            /* \"ApplicantPool.sol\":1830:1860  applicantList.push(msg.sender) */\n          swap1\n          dup1\n          0x01\n          dup2\n          sload\n          add\n          dup1\n          dup3\n          sstore\n          dup1\n          swap2\n          pop\n          pop\n          0x01\n          swap1\n          sub\n          swap1\n          0x00\n          mstore\n          keccak256(0x00, 0x20)\n          add\n          0x00\n          swap1\n          swap2\n          swap1\n          swap2\n          swap1\n          swap2\n          0x0100\n          exp\n          dup2\n          sload\n          dup2\n          0xffffffffffffffffffffffffffffffffffffffff\n          mul\n          not\n          and\n          swap1\n          dup4\n          0xffffffffffffffffffffffffffffffffffffffff\n          and\n          mul\n          or\n          swap1\n          sstore\n          pop\n            /* \"ApplicantPool.sol\":1306:1868  function createApplicant(string calldata reason) public payable {... */\n          pop\n          pop\n          jump\t// out\n            /* \"ApplicantPool.sol\":3350:3711  function _burnApplicant(address applicant) internal {... */\n        tag_90:\n            /* \"ApplicantPool.sol\":3413:3426  uint256 index */\n          0x00\n            /* \"ApplicantPool.sol\":3441:3601  for (index = 0; index < applicantList.length; index++) {... */\n        tag_161:\n            /* \"ApplicantPool.sol\":3465:3478  applicantList */\n          0x00\n            /* \"ApplicantPool.sol\":3465:3485  applicantList.length */\n          dup1\n          sload\n          swap1\n          pop\n            /* \"ApplicantPool.sol\":3457:3462  index */\n          dup2\n            /* \"ApplicantPool.sol\":3457:3485  index < applicantList.length */\n          lt\n            /* \"ApplicantPool.sol\":3441:3601  for (index = 0; index < applicantList.length; index++) {... */\n          iszero\n          tag_162\n          jumpi\n            /* \"ApplicantPool.sol\":3539:3548  applicant */\n          dup2\n            /* \"ApplicantPool.sol\":3515:3548  applicantList[index] == applicant */\n          0xffffffffffffffffffffffffffffffffffffffff\n          and\n            /* \"ApplicantPool.sol\":3515:3528  applicantList */\n          0x00\n            /* \"ApplicantPool.sol\":3529:3534  index */\n          dup3\n            /* \"ApplicantPool.sol\":3515:3535  applicantList[index] */\n          dup2\n          sload\n          dup2\n          lt\n          tag_164\n          jumpi\n          tag_165\n          tag_120\n          jump\t// in\n        tag_165:\n        tag_164:\n          swap1\n          0x00\n          mstore\n          keccak256(0x00, 0x20)\n          add\n          0x00\n          swap1\n          sload\n          swap1\n          0x0100\n          exp\n          swap1\n          div\n          0xffffffffffffffffffffffffffffffffffffffff\n          and\n            /* \"ApplicantPool.sol\":3515:3548  applicantList[index] == applicant */\n          0xffffffffffffffffffffffffffffffffffffffff\n          and\n          sub\n            /* \"ApplicantPool.sol\":3511:3590  if (applicantList[index] == applicant) {... */\n          iszero\n            /* \"ApplicantPool.sol\":3569:3574  break */\n          tag_162\n            /* \"ApplicantPool.sol\":3511:3590  if (applicantList[index] == applicant) {... */\n          jumpi\n            /* \"ApplicantPool.sol\":3487:3494  index++ */\n          dup1\n          dup1\n          tag_168\n          swap1\n          tag_124\n          jump\t// in\n        tag_168:\n          swap2\n          pop\n          pop\n            /* \"ApplicantPool.sol\":3441:3601  for (index = 0; index < applicantList.length; index++) {... */\n          jump(tag_161)\n        tag_162:\n            /* \"ApplicantPool.sol\":3634:3647  applicantList */\n          0x00\n            /* \"ApplicantPool.sol\":3671:3672  1 */\n          0x01\n            /* \"ApplicantPool.sol\":3648:3661  applicantList */\n          0x00\n            /* \"ApplicantPool.sol\":3648:3668  applicantList.length */\n          dup1\n          sload\n          swap1\n          pop\n            /* \"ApplicantPool.sol\":3648:3672  applicantList.length - 1 */\n          tag_169\n          swap2\n          swap1\n          tag_170\n          jump\t// in\n        tag_169:\n            /* \"ApplicantPool.sol\":3634:3673  applicantList[applicantList.length - 1] */\n          dup2\n          sload\n          dup2\n          lt\n          tag_171\n          jumpi\n          tag_172\n          tag_120\n          jump\t// in\n        tag_172:\n        tag_171:\n          swap1\n          0x00\n          mstore\n          keccak256(0x00, 0x20)\n          add\n          0x00\n          swap1\n          sload\n          swap1\n          0x0100\n          exp\n          swap1\n          div\n          0xffffffffffffffffffffffffffffffffffffffff\n          and\n            /* \"ApplicantPool.sol\":3611:3624  applicantList */\n          0x00\n            /* \"ApplicantPool.sol\":3625:3630  index */\n          dup3\n            /* \"ApplicantPool.sol\":3611:3631  applicantList[index] */\n          dup2\n          sload\n          dup2\n          lt\n          tag_174\n          jumpi\n          tag_175\n          tag_120\n          jump\t// in\n        tag_175:\n        tag_174:\n          swap1\n          0x00\n          mstore\n          keccak256(0x00, 0x20)\n          add\n          0x00\n            /* \"ApplicantPool.sol\":3611:3673  applicantList[index] = applicantList[applicantList.length - 1] */\n          0x0100\n          exp\n          dup2\n          sload\n          dup2\n          0xffffffffffffffffffffffffffffffffffffffff\n          mul\n          not\n          and\n          swap1\n          dup4\n          0xffffffffffffffffffffffffffffffffffffffff\n          and\n          mul\n          or\n          swap1\n          sstore\n          pop\n            /* \"ApplicantPool.sol\":3684:3697  applicantList */\n          0x00\n            /* \"ApplicantPool.sol\":3684:3703  applicantList.pop() */\n          dup1\n          sload\n          dup1\n          tag_177\n          jumpi\n          tag_178\n          tag_179\n          jump\t// in\n        tag_178:\n        tag_177:\n          0x01\n          swap1\n          sub\n          dup2\n          dup2\n          swap1\n          0x00\n          mstore\n          keccak256(0x00, 0x20)\n          add\n          exp(0x0100, 0x00)\n          dup2\n          sload\n          swap1\n          0xffffffffffffffffffffffffffffffffffffffff\n          mul\n          not\n          and\n          swap1\n          sstore\n          swap1\n          sstore\n            /* \"ApplicantPool.sol\":3402:3711  {... */\n          pop\n            /* \"ApplicantPool.sol\":3350:3711  function _burnApplicant(address applicant) internal {... */\n          pop\n          jump\t// out\n        tag_92:\n          pop\n          dup1\n          sload\n          0x00\n          dup3\n          sstore\n          swap1\n          0x00\n          mstore\n          keccak256(0x00, 0x20)\n          swap1\n          dup2\n          add\n          swap1\n          tag_182\n          swap2\n          swap1\n          tag_183\n          jump\t// in\n        tag_182:\n          pop\n          jump\t// out\n        tag_183:\n        tag_184:\n          dup1\n          dup3\n          gt\n          iszero\n          tag_185\n          jumpi\n          0x00\n          dup2\n          0x00\n          swap1\n          sstore\n          pop\n          0x01\n          add\n          jump(tag_184)\n        tag_185:\n          pop\n          swap1\n          jump\t// out\n            /* \"#utility.yul\":88:205   */\n        tag_187:\n            /* \"#utility.yul\":197:198   */\n          0x00\n            /* \"#utility.yul\":194:195   */\n          dup1\n            /* \"#utility.yul\":187:199   */\n          revert\n            /* \"#utility.yul\":211:328   */\n        tag_188:\n            /* \"#utility.yul\":320:321   */\n          0x00\n            /* \"#utility.yul\":317:318   */\n          dup1\n            /* \"#utility.yul\":310:322   */\n          revert\n            /* \"#utility.yul\":334:460   */\n        tag_189:\n            /* \"#utility.yul\":371:378   */\n          0x00\n            /* \"#utility.yul\":411:453   */\n          0xffffffffffffffffffffffffffffffffffffffff\n            /* \"#utility.yul\":404:409   */\n          dup3\n            /* \"#utility.yul\":400:454   */\n          and\n            /* \"#utility.yul\":389:454   */\n          swap1\n          pop\n            /* \"#utility.yul\":334:460   */\n          swap2\n          swap1\n          pop\n          jump\t// out\n            /* \"#utility.yul\":466:562   */\n        tag_190:\n            /* \"#utility.yul\":503:510   */\n          0x00\n            /* \"#utility.yul\":532:556   */\n          tag_259\n            /* \"#utility.yul\":550:555   */\n          dup3\n            /* \"#utility.yul\":532:556   */\n          tag_189\n          jump\t// in\n        tag_259:\n            /* \"#utility.yul\":521:556   */\n          swap1\n          pop\n            /* \"#utility.yul\":466:562   */\n          swap2\n          swap1\n          pop\n          jump\t// out\n            /* \"#utility.yul\":568:690   */\n        tag_191:\n            /* \"#utility.yul\":641:665   */\n          tag_261\n            /* \"#utility.yul\":659:664   */\n          dup2\n            /* \"#utility.yul\":641:665   */\n          tag_190\n          jump\t// in\n        tag_261:\n            /* \"#utility.yul\":634:639   */\n          dup2\n            /* \"#utility.yul\":631:666   */\n          eq\n            /* \"#utility.yul\":621:684   */\n          tag_262\n          jumpi\n            /* \"#utility.yul\":680:681   */\n          0x00\n            /* \"#utility.yul\":677:678   */\n          dup1\n            /* \"#utility.yul\":670:682   */\n          revert\n            /* \"#utility.yul\":621:684   */\n        tag_262:\n            /* \"#utility.yul\":568:690   */\n          pop\n          jump\t// out\n            /* \"#utility.yul\":696:835   */\n        tag_192:\n            /* \"#utility.yul\":742:747   */\n          0x00\n            /* \"#utility.yul\":780:786   */\n          dup2\n            /* \"#utility.yul\":767:787   */\n          calldataload\n            /* \"#utility.yul\":758:787   */\n          swap1\n          pop\n            /* \"#utility.yul\":796:829   */\n          tag_264\n            /* \"#utility.yul\":823:828   */\n          dup2\n            /* \"#utility.yul\":796:829   */\n          tag_191\n          jump\t// in\n        tag_264:\n            /* \"#utility.yul\":696:835   */\n          swap3\n          swap2\n          pop\n          pop\n          jump\t// out\n            /* \"#utility.yul\":841:1170   */\n        tag_17:\n            /* \"#utility.yul\":900:906   */\n          0x00\n            /* \"#utility.yul\":949:951   */\n          0x20\n            /* \"#utility.yul\":937:946   */\n          dup3\n            /* \"#utility.yul\":928:935   */\n          dup5\n            /* \"#utility.yul\":924:947   */\n          sub\n            /* \"#utility.yul\":920:952   */\n          slt\n            /* \"#utility.yul\":917:1036   */\n          iszero\n          tag_266\n          jumpi\n            /* \"#utility.yul\":955:1034   */\n          tag_267\n          tag_187\n          jump\t// in\n        tag_267:\n            /* \"#utility.yul\":917:1036   */\n        tag_266:\n            /* \"#utility.yul\":1075:1076   */\n          0x00\n            /* \"#utility.yul\":1100:1153   */\n          tag_268\n            /* \"#utility.yul\":1145:1152   */\n          dup5\n            /* \"#utility.yul\":1136:1142   */\n          dup3\n            /* \"#utility.yul\":1125:1134   */\n          dup6\n            /* \"#utility.yul\":1121:1143   */\n          add\n            /* \"#utility.yul\":1100:1153   */\n          tag_192\n          jump\t// in\n        tag_268:\n            /* \"#utility.yul\":1090:1153   */\n          swap2\n          pop\n            /* \"#utility.yul\":1046:1163   */\n          pop\n            /* \"#utility.yul\":841:1170   */\n          swap3\n          swap2\n          pop\n          pop\n          jump\t// out\n            /* \"#utility.yul\":1176:1275   */\n        tag_193:\n            /* \"#utility.yul\":1228:1234   */\n          0x00\n            /* \"#utility.yul\":1262:1267   */\n          dup2\n            /* \"#utility.yul\":1256:1268   */\n          mload\n            /* \"#utility.yul\":1246:1268   */\n          swap1\n          pop\n            /* \"#utility.yul\":1176:1275   */\n          swap2\n          swap1\n          pop\n          jump\t// out\n            /* \"#utility.yul\":1281:1450   */\n        tag_194:\n            /* \"#utility.yul\":1365:1376   */\n          0x00\n            /* \"#utility.yul\":1399:1405   */\n          dup3\n            /* \"#utility.yul\":1394:1397   */\n          dup3\n            /* \"#utility.yul\":1387:1406   */\n          mstore\n            /* \"#utility.yul\":1439:1443   */\n          0x20\n            /* \"#utility.yul\":1434:1437   */\n          dup3\n            /* \"#utility.yul\":1430:1444   */\n          add\n            /* \"#utility.yul\":1415:1444   */\n          swap1\n          pop\n            /* \"#utility.yul\":1281:1450   */\n          swap3\n          swap2\n          pop\n          pop\n          jump\t// out\n            /* \"#utility.yul\":1456:1702   */\n        tag_195:\n            /* \"#utility.yul\":1537:1538   */\n          0x00\n            /* \"#utility.yul\":1547:1660   */\n        tag_272:\n            /* \"#utility.yul\":1561:1567   */\n          dup4\n            /* \"#utility.yul\":1558:1559   */\n          dup2\n            /* \"#utility.yul\":1555:1568   */\n          lt\n            /* \"#utility.yul\":1547:1660   */\n          iszero\n          tag_274\n          jumpi\n            /* \"#utility.yul\":1646:1647   */\n          dup1\n            /* \"#utility.yul\":1641:1644   */\n          dup3\n            /* \"#utility.yul\":1637:1648   */\n          add\n            /* \"#utility.yul\":1631:1649   */\n          mload\n            /* \"#utility.yul\":1627:1628   */\n          dup2\n            /* \"#utility.yul\":1622:1625   */\n          dup5\n            /* \"#utility.yul\":1618:1629   */\n          add\n            /* \"#utility.yul\":1611:1650   */\n          mstore\n            /* \"#utility.yul\":1583:1585   */\n          0x20\n            /* \"#utility.yul\":1580:1581   */\n          dup2\n            /* \"#utility.yul\":1576:1586   */\n          add\n            /* \"#utility.yul\":1571:1586   */\n          swap1\n          pop\n            /* \"#utility.yul\":1547:1660   */\n          jump(tag_272)\n        tag_274:\n            /* \"#utility.yul\":1694:1695   */\n          0x00\n            /* \"#utility.yul\":1685:1691   */\n          dup5\n            /* \"#utility.yul\":1680:1683   */\n          dup5\n            /* \"#utility.yul\":1676:1692   */\n          add\n            /* \"#utility.yul\":1669:1696   */\n          mstore\n            /* \"#utility.yul\":1518:1702   */\n          pop\n            /* \"#utility.yul\":1456:1702   */\n          pop\n          pop\n          pop\n          jump\t// out\n            /* \"#utility.yul\":1708:1810   */\n        tag_196:\n            /* \"#utility.yul\":1749:1755   */\n          0x00\n            /* \"#utility.yul\":1800:1802   */\n          0x1f\n            /* \"#utility.yul\":1796:1803   */\n          not\n            /* \"#utility.yul\":1791:1793   */\n          0x1f\n            /* \"#utility.yul\":1784:1789   */\n          dup4\n            /* \"#utility.yul\":1780:1794   */\n          add\n            /* \"#utility.yul\":1776:1804   */\n          and\n            /* \"#utility.yul\":1766:1804   */\n          swap1\n          pop\n            /* \"#utility.yul\":1708:1810   */\n          swap2\n          swap1\n          pop\n          jump\t// out\n            /* \"#utility.yul\":1816:2193   */\n        tag_197:\n            /* \"#utility.yul\":1904:1907   */\n          0x00\n            /* \"#utility.yul\":1932:1971   */\n          tag_277\n            /* \"#utility.yul\":1965:1970   */\n          dup3\n            /* \"#utility.yul\":1932:1971   */\n          tag_193\n          jump\t// in\n        tag_277:\n            /* \"#utility.yul\":1987:2058   */\n          tag_278\n            /* \"#utility.yul\":2051:2057   */\n          dup2\n            /* \"#utility.yul\":2046:2049   */\n          dup6\n            /* \"#utility.yul\":1987:2058   */\n          tag_194\n          jump\t// in\n        tag_278:\n            /* \"#utility.yul\":1980:2058   */\n          swap4\n          pop\n            /* \"#utility.yul\":2067:2132   */\n          tag_279\n            /* \"#utility.yul\":2125:2131   */\n          dup2\n            /* \"#utility.yul\":2120:2123   */\n          dup6\n            /* \"#utility.yul\":2113:2117   */\n          0x20\n            /* \"#utility.yul\":2106:2111   */\n          dup7\n            /* \"#utility.yul\":2102:2118   */\n          add\n            /* \"#utility.yul\":2067:2132   */\n          tag_195\n          jump\t// in\n        tag_279:\n            /* \"#utility.yul\":2157:2186   */\n          tag_280\n            /* \"#utility.yul\":2179:2185   */\n          dup2\n            /* \"#utility.yul\":2157:2186   */\n          tag_196\n          jump\t// in\n        tag_280:\n            /* \"#utility.yul\":2152:2155   */\n          dup5\n            /* \"#utility.yul\":2148:2187   */\n          add\n            /* \"#utility.yul\":2141:2187   */\n          swap2\n          pop\n            /* \"#utility.yul\":1908:2193   */\n          pop\n            /* \"#utility.yul\":1816:2193   */\n          swap3\n          swap2\n          pop\n          pop\n          jump\t// out\n            /* \"#utility.yul\":2199:2512   */\n        tag_20:\n            /* \"#utility.yul\":2312:2316   */\n          0x00\n            /* \"#utility.yul\":2350:2352   */\n          0x20\n            /* \"#utility.yul\":2339:2348   */\n          dup3\n            /* \"#utility.yul\":2335:2353   */\n          add\n            /* \"#utility.yul\":2327:2353   */\n          swap1\n          pop\n            /* \"#utility.yul\":2399:2408   */\n          dup2\n            /* \"#utility.yul\":2393:2397   */\n          dup2\n            /* \"#utility.yul\":2389:2409   */\n          sub\n            /* \"#utility.yul\":2385:2386   */\n          0x00\n            /* \"#utility.yul\":2374:2383   */\n          dup4\n            /* \"#utility.yul\":2370:2387   */\n          add\n            /* \"#utility.yul\":2363:2410   */\n          mstore\n            /* \"#utility.yul\":2427:2505   */\n          tag_282\n            /* \"#utility.yul\":2500:2504   */\n          dup2\n            /* \"#utility.yul\":2491:2497   */\n          dup5\n            /* \"#utility.yul\":2427:2505   */\n          tag_197\n          jump\t// in\n        tag_282:\n            /* \"#utility.yul\":2419:2505   */\n          swap1\n          pop\n            /* \"#utility.yul\":2199:2512   */\n          swap3\n          swap2\n          pop\n          pop\n          jump\t// out\n            /* \"#utility.yul\":2518:2632   */\n        tag_198:\n            /* \"#utility.yul\":2585:2591   */\n          0x00\n            /* \"#utility.yul\":2619:2624   */\n          dup2\n            /* \"#utility.yul\":2613:2625   */\n          mload\n            /* \"#utility.yul\":2603:2625   */\n          swap1\n          pop\n            /* \"#utility.yul\":2518:2632   */\n          swap2\n          swap1\n          pop\n          jump\t// out\n            /* \"#utility.yul\":2638:2822   */\n        tag_199:\n            /* \"#utility.yul\":2737:2748   */\n          0x00\n            /* \"#utility.yul\":2771:2777   */\n          dup3\n            /* \"#utility.yul\":2766:2769   */\n          dup3\n            /* \"#utility.yul\":2759:2778   */\n          mstore\n            /* \"#utility.yul\":2811:2815   */\n          0x20\n            /* \"#utility.yul\":2806:2809   */\n          dup3\n            /* \"#utility.yul\":2802:2816   */\n          add\n            /* \"#utility.yul\":2787:2816   */\n          swap1\n          pop\n            /* \"#utility.yul\":2638:2822   */\n          swap3\n          swap2\n          pop\n          pop\n          jump\t// out\n            /* \"#utility.yul\":2828:2960   */\n        tag_200:\n            /* \"#utility.yul\":2895:2899   */\n          0x00\n            /* \"#utility.yul\":2918:2921   */\n          dup2\n            /* \"#utility.yul\":2910:2921   */\n          swap1\n          pop\n            /* \"#utility.yul\":2948:2952   */\n          0x20\n            /* \"#utility.yul\":2943:2946   */\n          dup3\n            /* \"#utility.yul\":2939:2953   */\n          add\n            /* \"#utility.yul\":2931:2953   */\n          swap1\n          pop\n            /* \"#utility.yul\":2828:2960   */\n          swap2\n          swap1\n          pop\n          jump\t// out\n            /* \"#utility.yul\":2966:3074   */\n        tag_201:\n            /* \"#utility.yul\":3043:3067   */\n          tag_287\n            /* \"#utility.yul\":3061:3066   */\n          dup2\n            /* \"#utility.yul\":3043:3067   */\n          tag_190\n          jump\t// in\n        tag_287:\n            /* \"#utility.yul\":3038:3041   */\n          dup3\n            /* \"#utility.yul\":3031:3068   */\n          mstore\n            /* \"#utility.yul\":2966:3074   */\n          pop\n          pop\n          jump\t// out\n            /* \"#utility.yul\":3080:3259   */\n        tag_202:\n            /* \"#utility.yul\":3149:3159   */\n          0x00\n            /* \"#utility.yul\":3170:3216   */\n          tag_289\n            /* \"#utility.yul\":3212:3215   */\n          dup4\n            /* \"#utility.yul\":3204:3210   */\n          dup4\n            /* \"#utility.yul\":3170:3216   */\n          tag_201\n          jump\t// in\n        tag_289:\n            /* \"#utility.yul\":3248:3252   */\n          0x20\n            /* \"#utility.yul\":3243:3246   */\n          dup4\n            /* \"#utility.yul\":3239:3253   */\n          add\n            /* \"#utility.yul\":3225:3253   */\n          swap1\n          pop\n            /* \"#utility.yul\":3080:3259   */\n          swap3\n          swap2\n          pop\n          pop\n          jump\t// out\n            /* \"#utility.yul\":3265:3378   */\n        tag_203:\n            /* \"#utility.yul\":3335:3339   */\n          0x00\n            /* \"#utility.yul\":3367:3371   */\n          0x20\n            /* \"#utility.yul\":3362:3365   */\n          dup3\n            /* \"#utility.yul\":3358:3372   */\n          add\n            /* \"#utility.yul\":3350:3372   */\n          swap1\n          pop\n            /* \"#utility.yul\":3265:3378   */\n          swap2\n          swap1\n          pop\n          jump\t// out\n            /* \"#utility.yul\":3414:4146   */\n        tag_204:\n            /* \"#utility.yul\":3533:3536   */\n          0x00\n            /* \"#utility.yul\":3562:3616   */\n          tag_292\n            /* \"#utility.yul\":3610:3615   */\n          dup3\n            /* \"#utility.yul\":3562:3616   */\n          tag_198\n          jump\t// in\n        tag_292:\n            /* \"#utility.yul\":3632:3718   */\n          tag_293\n            /* \"#utility.yul\":3711:3717   */\n          dup2\n            /* \"#utility.yul\":3706:3709   */\n          dup6\n            /* \"#utility.yul\":3632:3718   */\n          tag_199\n          jump\t// in\n        tag_293:\n            /* \"#utility.yul\":3625:3718   */\n          swap4\n          pop\n            /* \"#utility.yul\":3742:3798   */\n          tag_294\n            /* \"#utility.yul\":3792:3797   */\n          dup4\n            /* \"#utility.yul\":3742:3798   */\n          tag_200\n          jump\t// in\n        tag_294:\n            /* \"#utility.yul\":3821:3828   */\n          dup1\n            /* \"#utility.yul\":3852:3853   */\n          0x00\n            /* \"#utility.yul\":3837:4121   */\n        tag_295:\n            /* \"#utility.yul\":3862:3868   */\n          dup4\n            /* \"#utility.yul\":3859:3860   */\n          dup2\n            /* \"#utility.yul\":3856:3869   */\n          lt\n            /* \"#utility.yul\":3837:4121   */\n          iszero\n          tag_297\n          jumpi\n            /* \"#utility.yul\":3938:3944   */\n          dup2\n            /* \"#utility.yul\":3932:3945   */\n          mload\n            /* \"#utility.yul\":3965:4028   */\n          tag_298\n            /* \"#utility.yul\":4024:4027   */\n          dup9\n            /* \"#utility.yul\":4009:4022   */\n          dup3\n            /* \"#utility.yul\":3965:4028   */\n          tag_202\n          jump\t// in\n        tag_298:\n            /* \"#utility.yul\":3958:4028   */\n          swap8\n          pop\n            /* \"#utility.yul\":4051:4111   */\n          tag_299\n            /* \"#utility.yul\":4104:4110   */\n          dup4\n            /* \"#utility.yul\":4051:4111   */\n          tag_203\n          jump\t// in\n        tag_299:\n            /* \"#utility.yul\":4041:4111   */\n          swap3\n          pop\n            /* \"#utility.yul\":3897:4121   */\n          pop\n            /* \"#utility.yul\":3884:3885   */\n          0x01\n            /* \"#utility.yul\":3881:3882   */\n          dup2\n            /* \"#utility.yul\":3877:3886   */\n          add\n            /* \"#utility.yul\":3872:3886   */\n          swap1\n          pop\n            /* \"#utility.yul\":3837:4121   */\n          jump(tag_295)\n        tag_297:\n            /* \"#utility.yul\":3841:3855   */\n          pop\n            /* \"#utility.yul\":4137:4140   */\n          dup6\n            /* \"#utility.yul\":4130:4140   */\n          swap4\n          pop\n            /* \"#utility.yul\":3538:4146   */\n          pop\n          pop\n          pop\n            /* \"#utility.yul\":3414:4146   */\n          swap3\n          swap2\n          pop\n          pop\n          jump\t// out\n            /* \"#utility.yul\":4152:4525   */\n        tag_37:\n            /* \"#utility.yul\":4295:4299   */\n          0x00\n            /* \"#utility.yul\":4333:4335   */\n          0x20\n            /* \"#utility.yul\":4322:4331   */\n          dup3\n            /* \"#utility.yul\":4318:4336   */\n          add\n            /* \"#utility.yul\":4310:4336   */\n          swap1\n          pop\n            /* \"#utility.yul\":4382:4391   */\n          dup2\n            /* \"#utility.yul\":4376:4380   */\n          dup2\n            /* \"#utility.yul\":4372:4392   */\n          sub\n            /* \"#utility.yul\":4368:4369   */\n          0x00\n            /* \"#utility.yul\":4357:4366   */\n          dup4\n            /* \"#utility.yul\":4353:4370   */\n          add\n            /* \"#utility.yul\":4346:4393   */\n          mstore\n            /* \"#utility.yul\":4410:4518   */\n          tag_301\n            /* \"#utility.yul\":4513:4517   */\n          dup2\n            /* \"#utility.yul\":4504:4510   */\n          dup5\n            /* \"#utility.yul\":4410:4518   */\n          tag_204\n          jump\t// in\n        tag_301:\n            /* \"#utility.yul\":4402:4518   */\n          swap1\n          pop\n            /* \"#utility.yul\":4152:4525   */\n          swap3\n          swap2\n          pop\n          pop\n          jump\t// out\n            /* \"#utility.yul\":4531:4608   */\n        tag_205:\n            /* \"#utility.yul\":4568:4575   */\n          0x00\n            /* \"#utility.yul\":4597:4602   */\n          dup2\n            /* \"#utility.yul\":4586:4602   */\n          swap1\n          pop\n            /* \"#utility.yul\":4531:4608   */\n          swap2\n          swap1\n          pop\n          jump\t// out\n            /* \"#utility.yul\":4614:4736   */\n        tag_206:\n            /* \"#utility.yul\":4687:4711   */\n          tag_304\n            /* \"#utility.yul\":4705:4710   */\n          dup2\n            /* \"#utility.yul\":4687:4711   */\n          tag_205\n          jump\t// in\n        tag_304:\n            /* \"#utility.yul\":4680:4685   */\n          dup2\n            /* \"#utility.yul\":4677:4712   */\n          eq\n            /* \"#utility.yul\":4667:4730   */\n          tag_305\n          jumpi\n            /* \"#utility.yul\":4726:4727   */\n          0x00\n            /* \"#utility.yul\":4723:4724   */\n          dup1\n            /* \"#utility.yul\":4716:4728   */\n          revert\n            /* \"#utility.yul\":4667:4730   */\n        tag_305:\n            /* \"#utility.yul\":4614:4736   */\n          pop\n          jump\t// out\n            /* \"#utility.yul\":4742:4881   */\n        tag_207:\n            /* \"#utility.yul\":4788:4793   */\n          0x00\n            /* \"#utility.yul\":4826:4832   */\n          dup2\n            /* \"#utility.yul\":4813:4833   */\n          calldataload\n            /* \"#utility.yul\":4804:4833   */\n          swap1\n          pop\n            /* \"#utility.yul\":4842:4875   */\n          tag_307\n            /* \"#utility.yul\":4869:4874   */\n          dup2\n            /* \"#utility.yul\":4842:4875   */\n          tag_206\n          jump\t// in\n        tag_307:\n            /* \"#utility.yul\":4742:4881   */\n          swap3\n          swap2\n          pop\n          pop\n          jump\t// out\n            /* \"#utility.yul\":4887:5216   */\n        tag_41:\n            /* \"#utility.yul\":4946:4952   */\n          0x00\n            /* \"#utility.yul\":4995:4997   */\n          0x20\n            /* \"#utility.yul\":4983:4992   */\n          dup3\n            /* \"#utility.yul\":4974:4981   */\n          dup5\n            /* \"#utility.yul\":4970:4993   */\n          sub\n            /* \"#utility.yul\":4966:4998   */\n          slt\n            /* \"#utility.yul\":4963:5082   */\n          iszero\n          tag_309\n          jumpi\n            /* \"#utility.yul\":5001:5080   */\n          tag_310\n          tag_187\n          jump\t// in\n        tag_310:\n            /* \"#utility.yul\":4963:5082   */\n        tag_309:\n            /* \"#utility.yul\":5121:5122   */\n          0x00\n            /* \"#utility.yul\":5146:5199   */\n          tag_311\n            /* \"#utility.yul\":5191:5198   */\n          dup5\n            /* \"#utility.yul\":5182:5188   */\n          dup3\n            /* \"#utility.yul\":5171:5180   */\n          dup6\n            /* \"#utility.yul\":5167:5189   */\n          add\n            /* \"#utility.yul\":5146:5199   */\n          tag_207\n          jump\t// in\n        tag_311:\n            /* \"#utility.yul\":5136:5199   */\n          swap2\n          pop\n            /* \"#utility.yul\":5092:5209   */\n          pop\n            /* \"#utility.yul\":4887:5216   */\n          swap3\n          swap2\n          pop\n          pop\n          jump\t// out\n            /* \"#utility.yul\":5222:5340   */\n        tag_208:\n            /* \"#utility.yul\":5309:5333   */\n          tag_313\n            /* \"#utility.yul\":5327:5332   */\n          dup2\n            /* \"#utility.yul\":5309:5333   */\n          tag_190\n          jump\t// in\n        tag_313:\n            /* \"#utility.yul\":5304:5307   */\n          dup3\n            /* \"#utility.yul\":5297:5334   */\n          mstore\n            /* \"#utility.yul\":5222:5340   */\n          pop\n          pop\n          jump\t// out\n            /* \"#utility.yul\":5346:5568   */\n        tag_44:\n            /* \"#utility.yul\":5439:5443   */\n          0x00\n            /* \"#utility.yul\":5477:5479   */\n          0x20\n            /* \"#utility.yul\":5466:5475   */\n          dup3\n            /* \"#utility.yul\":5462:5480   */\n          add\n            /* \"#utility.yul\":5454:5480   */\n          swap1\n          pop\n            /* \"#utility.yul\":5490:5561   */\n          tag_315\n            /* \"#utility.yul\":5558:5559   */\n          0x00\n            /* \"#utility.yul\":5547:5556   */\n          dup4\n            /* \"#utility.yul\":5543:5560   */\n          add\n            /* \"#utility.yul\":5534:5540   */\n          dup5\n            /* \"#utility.yul\":5490:5561   */\n          tag_208\n          jump\t// in\n        tag_315:\n            /* \"#utility.yul\":5346:5568   */\n          swap3\n          swap2\n          pop\n          pop\n          jump\t// out\n            /* \"#utility.yul\":5574:5692   */\n        tag_209:\n            /* \"#utility.yul\":5661:5685   */\n          tag_317\n            /* \"#utility.yul\":5679:5684   */\n          dup2\n            /* \"#utility.yul\":5661:5685   */\n          tag_205\n          jump\t// in\n        tag_317:\n            /* \"#utility.yul\":5656:5659   */\n          dup3\n            /* \"#utility.yul\":5649:5686   */\n          mstore\n            /* \"#utility.yul\":5574:5692   */\n          pop\n          pop\n          jump\t// out\n            /* \"#utility.yul\":5698:5920   */\n        tag_53:\n            /* \"#utility.yul\":5791:5795   */\n          0x00\n            /* \"#utility.yul\":5829:5831   */\n          0x20\n            /* \"#utility.yul\":5818:5827   */\n          dup3\n            /* \"#utility.yul\":5814:5832   */\n          add\n            /* \"#utility.yul\":5806:5832   */\n          swap1\n          pop\n            /* \"#utility.yul\":5842:5913   */\n          tag_319\n            /* \"#utility.yul\":5910:5911   */\n          0x00\n            /* \"#utility.yul\":5899:5908   */\n          dup4\n            /* \"#utility.yul\":5895:5912   */\n          add\n            /* \"#utility.yul\":5886:5892   */\n          dup5\n            /* \"#utility.yul\":5842:5913   */\n          tag_209\n          jump\t// in\n        tag_319:\n            /* \"#utility.yul\":5698:5920   */\n          swap3\n          swap2\n          pop\n          pop\n          jump\t// out\n            /* \"#utility.yul\":5926:6043   */\n        tag_210:\n            /* \"#utility.yul\":6035:6036   */\n          0x00\n            /* \"#utility.yul\":6032:6033   */\n          dup1\n            /* \"#utility.yul\":6025:6037   */\n          revert\n            /* \"#utility.yul\":6049:6166   */\n        tag_211:\n            /* \"#utility.yul\":6158:6159   */\n          0x00\n            /* \"#utility.yul\":6155:6156   */\n          dup1\n            /* \"#utility.yul\":6148:6160   */\n          revert\n            /* \"#utility.yul\":6172:6289   */\n        tag_212:\n            /* \"#utility.yul\":6281:6282   */\n          0x00\n            /* \"#utility.yul\":6278:6279   */\n          dup1\n            /* \"#utility.yul\":6271:6283   */\n          revert\n            /* \"#utility.yul\":6309:6862   */\n        tag_213:\n            /* \"#utility.yul\":6367:6375   */\n          0x00\n            /* \"#utility.yul\":6377:6383   */\n          dup1\n            /* \"#utility.yul\":6427:6430   */\n          dup4\n            /* \"#utility.yul\":6420:6424   */\n          0x1f\n            /* \"#utility.yul\":6412:6418   */\n          dup5\n            /* \"#utility.yul\":6408:6425   */\n          add\n            /* \"#utility.yul\":6404:6431   */\n          slt\n            /* \"#utility.yul\":6394:6516   */\n          tag_324\n          jumpi\n            /* \"#utility.yul\":6435:6514   */\n          tag_325\n          tag_210\n          jump\t// in\n        tag_325:\n            /* \"#utility.yul\":6394:6516   */\n        tag_324:\n            /* \"#utility.yul\":6548:6554   */\n          dup3\n            /* \"#utility.yul\":6535:6555   */\n          calldataload\n            /* \"#utility.yul\":6525:6555   */\n          swap1\n          pop\n            /* \"#utility.yul\":6578:6596   */\n          0xffffffffffffffff\n            /* \"#utility.yul\":6570:6576   */\n          dup2\n            /* \"#utility.yul\":6567:6597   */\n          gt\n            /* \"#utility.yul\":6564:6681   */\n          iszero\n          tag_326\n          jumpi\n            /* \"#utility.yul\":6600:6679   */\n          tag_327\n          tag_211\n          jump\t// in\n        tag_327:\n            /* \"#utility.yul\":6564:6681   */\n        tag_326:\n            /* \"#utility.yul\":6714:6718   */\n          0x20\n            /* \"#utility.yul\":6706:6712   */\n          dup4\n            /* \"#utility.yul\":6702:6719   */\n          add\n            /* \"#utility.yul\":6690:6719   */\n          swap2\n          pop\n            /* \"#utility.yul\":6768:6771   */\n          dup4\n            /* \"#utility.yul\":6760:6764   */\n          0x01\n            /* \"#utility.yul\":6752:6758   */\n          dup3\n            /* \"#utility.yul\":6748:6765   */\n          mul\n            /* \"#utility.yul\":6738:6746   */\n          dup4\n            /* \"#utility.yul\":6734:6766   */\n          add\n            /* \"#utility.yul\":6731:6772   */\n          gt\n            /* \"#utility.yul\":6728:6856   */\n          iszero\n          tag_328\n          jumpi\n            /* \"#utility.yul\":6775:6854   */\n          tag_329\n          tag_212\n          jump\t// in\n        tag_329:\n            /* \"#utility.yul\":6728:6856   */\n        tag_328:\n            /* \"#utility.yul\":6309:6862   */\n          swap3\n          pop\n          swap3\n          swap1\n          pop\n          jump\t// out\n            /* \"#utility.yul\":6868:7397   */\n        tag_65:\n            /* \"#utility.yul\":6939:6945   */\n          0x00\n            /* \"#utility.yul\":6947:6953   */\n          dup1\n            /* \"#utility.yul\":6996:6998   */\n          0x20\n            /* \"#utility.yul\":6984:6993   */\n          dup4\n            /* \"#utility.yul\":6975:6982   */\n          dup6\n            /* \"#utility.yul\":6971:6994   */\n          sub\n            /* \"#utility.yul\":6967:6999   */\n          slt\n            /* \"#utility.yul\":6964:7083   */\n          iszero\n          tag_331\n          jumpi\n            /* \"#utility.yul\":7002:7081   */\n          tag_332\n          tag_187\n          jump\t// in\n        tag_332:\n            /* \"#utility.yul\":6964:7083   */\n        tag_331:\n            /* \"#utility.yul\":7150:7151   */\n          0x00\n            /* \"#utility.yul\":7139:7148   */\n          dup4\n            /* \"#utility.yul\":7135:7152   */\n          add\n            /* \"#utility.yul\":7122:7153   */\n          calldataload\n            /* \"#utility.yul\":7180:7198   */\n          0xffffffffffffffff\n            /* \"#utility.yul\":7172:7178   */\n          dup2\n            /* \"#utility.yul\":7169:7199   */\n          gt\n            /* \"#utility.yul\":7166:7283   */\n          iszero\n          tag_333\n          jumpi\n            /* \"#utility.yul\":7202:7281   */\n          tag_334\n          tag_188\n          jump\t// in\n        tag_334:\n            /* \"#utility.yul\":7166:7283   */\n        tag_333:\n            /* \"#utility.yul\":7315:7380   */\n          tag_335\n            /* \"#utility.yul\":7372:7379   */\n          dup6\n            /* \"#utility.yul\":7363:7369   */\n          dup3\n            /* \"#utility.yul\":7352:7361   */\n          dup7\n            /* \"#utility.yul\":7348:7370   */\n          add\n            /* \"#utility.yul\":7315:7380   */\n          tag_213\n          jump\t// in\n        tag_335:\n            /* \"#utility.yul\":7297:7380   */\n          swap3\n          pop\n          swap3\n          pop\n            /* \"#utility.yul\":7093:7390   */\n          pop\n            /* \"#utility.yul\":6868:7397   */\n          swap3\n          pop\n          swap3\n          swap1\n          pop\n          jump\t// out\n            /* \"#utility.yul\":7403:7735   */\n        tag_69:\n            /* \"#utility.yul\":7524:7528   */\n          0x00\n            /* \"#utility.yul\":7562:7564   */\n          0x40\n            /* \"#utility.yul\":7551:7560   */\n          dup3\n            /* \"#utility.yul\":7547:7565   */\n          add\n            /* \"#utility.yul\":7539:7565   */\n          swap1\n          pop\n            /* \"#utility.yul\":7575:7646   */\n          tag_337\n            /* \"#utility.yul\":7643:7644   */\n          0x00\n            /* \"#utility.yul\":7632:7641   */\n          dup4\n            /* \"#utility.yul\":7628:7645   */\n          add\n            /* \"#utility.yul\":7619:7625   */\n          dup6\n            /* \"#utility.yul\":7575:7646   */\n          tag_208\n          jump\t// in\n        tag_337:\n            /* \"#utility.yul\":7656:7728   */\n          tag_338\n            /* \"#utility.yul\":7724:7726   */\n          0x20\n            /* \"#utility.yul\":7713:7722   */\n          dup4\n            /* \"#utility.yul\":7709:7727   */\n          add\n            /* \"#utility.yul\":7700:7706   */\n          dup5\n            /* \"#utility.yul\":7656:7728   */\n          tag_208\n          jump\t// in\n        tag_338:\n            /* \"#utility.yul\":7403:7735   */\n          swap4\n          swap3\n          pop\n          pop\n          pop\n          jump\t// out\n            /* \"#utility.yul\":7741:7831   */\n        tag_214:\n            /* \"#utility.yul\":7775:7782   */\n          0x00\n            /* \"#utility.yul\":7818:7823   */\n          dup2\n            /* \"#utility.yul\":7811:7824   */\n          iszero\n            /* \"#utility.yul\":7804:7825   */\n          iszero\n            /* \"#utility.yul\":7793:7825   */\n          swap1\n          pop\n            /* \"#utility.yul\":7741:7831   */\n          swap2\n          swap1\n          pop\n          jump\t// out\n            /* \"#utility.yul\":7837:7953   */\n        tag_215:\n            /* \"#utility.yul\":7907:7928   */\n          tag_341\n            /* \"#utility.yul\":7922:7927   */\n          dup2\n            /* \"#utility.yul\":7907:7928   */\n          tag_214\n          jump\t// in\n        tag_341:\n            /* \"#utility.yul\":7900:7905   */\n          dup2\n            /* \"#utility.yul\":7897:7929   */\n          eq\n            /* \"#utility.yul\":7887:7947   */\n          tag_342\n          jumpi\n            /* \"#utility.yul\":7943:7944   */\n          0x00\n            /* \"#utility.yul\":7940:7941   */\n          dup1\n            /* \"#utility.yul\":7933:7945   */\n          revert\n            /* \"#utility.yul\":7887:7947   */\n        tag_342:\n            /* \"#utility.yul\":7837:7953   */\n          pop\n          jump\t// out\n            /* \"#utility.yul\":7959:8096   */\n        tag_216:\n            /* \"#utility.yul\":8013:8018   */\n          0x00\n            /* \"#utility.yul\":8044:8050   */\n          dup2\n            /* \"#utility.yul\":8038:8051   */\n          mload\n            /* \"#utility.yul\":8029:8051   */\n          swap1\n          pop\n            /* \"#utility.yul\":8060:8090   */\n          tag_344\n            /* \"#utility.yul\":8084:8089   */\n          dup2\n            /* \"#utility.yul\":8060:8090   */\n          tag_215\n          jump\t// in\n        tag_344:\n            /* \"#utility.yul\":7959:8096   */\n          swap3\n          swap2\n          pop\n          pop\n          jump\t// out\n            /* \"#utility.yul\":8102:8447   */\n        tag_73:\n            /* \"#utility.yul\":8169:8175   */\n          0x00\n            /* \"#utility.yul\":8218:8220   */\n          0x20\n            /* \"#utility.yul\":8206:8215   */\n          dup3\n            /* \"#utility.yul\":8197:8204   */\n          dup5\n            /* \"#utility.yul\":8193:8216   */\n          sub\n            /* \"#utility.yul\":8189:8221   */\n          slt\n            /* \"#utility.yul\":8186:8305   */\n          iszero\n          tag_346\n          jumpi\n            /* \"#utility.yul\":8224:8303   */\n          tag_347\n          tag_187\n          jump\t// in\n        tag_347:\n            /* \"#utility.yul\":8186:8305   */\n        tag_346:\n            /* \"#utility.yul\":8344:8345   */\n          0x00\n            /* \"#utility.yul\":8369:8430   */\n          tag_348\n            /* \"#utility.yul\":8422:8429   */\n          dup5\n            /* \"#utility.yul\":8413:8419   */\n          dup3\n            /* \"#utility.yul\":8402:8411   */\n          dup6\n            /* \"#utility.yul\":8398:8420   */\n          add\n            /* \"#utility.yul\":8369:8430   */\n          tag_216\n          jump\t// in\n        tag_348:\n            /* \"#utility.yul\":8359:8430   */\n          swap2\n          pop\n            /* \"#utility.yul\":8315:8440   */\n          pop\n            /* \"#utility.yul\":8102:8447   */\n          swap3\n          swap2\n          pop\n          pop\n          jump\t// out\n            /* \"#utility.yul\":8453:8627   */\n        tag_217:\n            /* \"#utility.yul\":8593:8619   */\n          0x526571756972656420746f2062652061206d656d656265720000000000000000\n            /* \"#utility.yul\":8589:8590   */\n          0x00\n            /* \"#utility.yul\":8581:8587   */\n          dup3\n            /* \"#utility.yul\":8577:8591   */\n          add\n            /* \"#utility.yul\":8570:8620   */\n          mstore\n            /* \"#utility.yul\":8453:8627   */\n          pop\n          jump\t// out\n            /* \"#utility.yul\":8633:8999   */\n        tag_218:\n            /* \"#utility.yul\":8775:8778   */\n          0x00\n            /* \"#utility.yul\":8796:8863   */\n          tag_351\n            /* \"#utility.yul\":8860:8862   */\n          0x18\n            /* \"#utility.yul\":8855:8858   */\n          dup4\n            /* \"#utility.yul\":8796:8863   */\n          tag_194\n          jump\t// in\n        tag_351:\n            /* \"#utility.yul\":8789:8863   */\n          swap2\n          pop\n            /* \"#utility.yul\":8872:8965   */\n          tag_352\n            /* \"#utility.yul\":8961:8964   */\n          dup3\n            /* \"#utility.yul\":8872:8965   */\n          tag_217\n          jump\t// in\n        tag_352:\n            /* \"#utility.yul\":8990:8992   */\n          0x20\n            /* \"#utility.yul\":8985:8988   */\n          dup3\n            /* \"#utility.yul\":8981:8993   */\n          add\n            /* \"#utility.yul\":8974:8993   */\n          swap1\n          pop\n            /* \"#utility.yul\":8633:8999   */\n          swap2\n          swap1\n          pop\n          jump\t// out\n            /* \"#utility.yul\":9005:9424   */\n        tag_76:\n            /* \"#utility.yul\":9171:9175   */\n          0x00\n            /* \"#utility.yul\":9209:9211   */\n          0x20\n            /* \"#utility.yul\":9198:9207   */\n          dup3\n            /* \"#utility.yul\":9194:9212   */\n          add\n            /* \"#utility.yul\":9186:9212   */\n          swap1\n          pop\n            /* \"#utility.yul\":9258:9267   */\n          dup2\n            /* \"#utility.yul\":9252:9256   */\n          dup2\n            /* \"#utility.yul\":9248:9268   */\n          sub\n            /* \"#utility.yul\":9244:9245   */\n          0x00\n            /* \"#utility.yul\":9233:9242   */\n          dup4\n            /* \"#utility.yul\":9229:9246   */\n          add\n            /* \"#utility.yul\":9222:9269   */\n          mstore\n            /* \"#utility.yul\":9286:9417   */\n          tag_354\n            /* \"#utility.yul\":9412:9416   */\n          dup2\n            /* \"#utility.yul\":9286:9417   */\n          tag_218\n          jump\t// in\n        tag_354:\n            /* \"#utility.yul\":9278:9417   */\n          swap1\n          pop\n            /* \"#utility.yul\":9005:9424   */\n          swap2\n          swap1\n          pop\n          jump\t// out\n            /* \"#utility.yul\":9430:9610   */\n        tag_219:\n            /* \"#utility.yul\":9478:9555   */\n          0x4e487b7100000000000000000000000000000000000000000000000000000000\n            /* \"#utility.yul\":9475:9476   */\n          0x00\n            /* \"#utility.yul\":9468:9556   */\n          mstore\n            /* \"#utility.yul\":9575:9579   */\n          0x22\n            /* \"#utility.yul\":9572:9573   */\n          0x04\n            /* \"#utility.yul\":9565:9580   */\n          mstore\n            /* \"#utility.yul\":9599:9603   */\n          0x24\n            /* \"#utility.yul\":9596:9597   */\n          0x00\n            /* \"#utility.yul\":9589:9604   */\n          revert\n            /* \"#utility.yul\":9616:9936   */\n        tag_79:\n            /* \"#utility.yul\":9660:9666   */\n          0x00\n            /* \"#utility.yul\":9697:9698   */\n          0x02\n            /* \"#utility.yul\":9691:9695   */\n          dup3\n            /* \"#utility.yul\":9687:9699   */\n          div\n            /* \"#utility.yul\":9677:9699   */\n          swap1\n          pop\n            /* \"#utility.yul\":9744:9745   */\n          0x01\n            /* \"#utility.yul\":9738:9742   */\n          dup3\n            /* \"#utility.yul\":9734:9746   */\n          and\n            /* \"#utility.yul\":9765:9783   */\n          dup1\n            /* \"#utility.yul\":9755:9836   */\n          tag_357\n          jumpi\n            /* \"#utility.yul\":9821:9825   */\n          0x7f\n            /* \"#utility.yul\":9813:9819   */\n          dup3\n            /* \"#utility.yul\":9809:9826   */\n          and\n            /* \"#utility.yul\":9799:9826   */\n          swap2\n          pop\n            /* \"#utility.yul\":9755:9836   */\n        tag_357:\n            /* \"#utility.yul\":9883:9885   */\n          0x20\n            /* \"#utility.yul\":9875:9881   */\n          dup3\n            /* \"#utility.yul\":9872:9886   */\n          lt\n            /* \"#utility.yul\":9852:9870   */\n          dup2\n            /* \"#utility.yul\":9849:9887   */\n          sub\n            /* \"#utility.yul\":9846:9930   */\n          tag_358\n          jumpi\n            /* \"#utility.yul\":9902:9920   */\n          tag_359\n          tag_219\n          jump\t// in\n        tag_359:\n            /* \"#utility.yul\":9846:9930   */\n        tag_358:\n            /* \"#utility.yul\":9667:9936   */\n          pop\n            /* \"#utility.yul\":9616:9936   */\n          swap2\n          swap1\n          pop\n          jump\t// out\n            /* \"#utility.yul\":9942:10105   */\n        tag_220:\n            /* \"#utility.yul\":10082:10097   */\n          0x4163636573732044656e69656400000000000000000000000000000000000000\n            /* \"#utility.yul\":10078:10079   */\n          0x00\n            /* \"#utility.yul\":10070:10076   */\n          dup3\n            /* \"#utility.yul\":10066:10080   */\n          add\n            /* \"#utility.yul\":10059:10098   */\n          mstore\n            /* \"#utility.yul\":9942:10105   */\n          pop\n          jump\t// out\n            /* \"#utility.yul\":10111:10477   */\n        tag_221:\n            /* \"#utility.yul\":10253:10256   */\n          0x00\n            /* \"#utility.yul\":10274:10341   */\n          tag_362\n            /* \"#utility.yul\":10338:10340   */\n          0x0d\n            /* \"#utility.yul\":10333:10336   */\n          dup4\n            /* \"#utility.yul\":10274:10341   */\n          tag_194\n          jump\t// in\n        tag_362:\n            /* \"#utility.yul\":10267:10341   */\n          swap2\n          pop\n            /* \"#utility.yul\":10350:10443   */\n          tag_363\n            /* \"#utility.yul\":10439:10442   */\n          dup3\n            /* \"#utility.yul\":10350:10443   */\n          tag_220\n          jump\t// in\n        tag_363:\n            /* \"#utility.yul\":10468:10470   */\n          0x20\n            /* \"#utility.yul\":10463:10466   */\n          dup3\n            /* \"#utility.yul\":10459:10471   */\n          add\n            /* \"#utility.yul\":10452:10471   */\n          swap1\n          pop\n            /* \"#utility.yul\":10111:10477   */\n          swap2\n          swap1\n          pop\n          jump\t// out\n            /* \"#utility.yul\":10483:10902   */\n        tag_87:\n            /* \"#utility.yul\":10649:10653   */\n          0x00\n            /* \"#utility.yul\":10687:10689   */\n          0x20\n            /* \"#utility.yul\":10676:10685   */\n          dup3\n            /* \"#utility.yul\":10672:10690   */\n          add\n            /* \"#utility.yul\":10664:10690   */\n          swap1\n          pop\n            /* \"#utility.yul\":10736:10745   */\n          dup2\n            /* \"#utility.yul\":10730:10734   */\n          dup2\n            /* \"#utility.yul\":10726:10746   */\n          sub\n            /* \"#utility.yul\":10722:10723   */\n          0x00\n            /* \"#utility.yul\":10711:10720   */\n          dup4\n            /* \"#utility.yul\":10707:10724   */\n          add\n            /* \"#utility.yul\":10700:10747   */\n          mstore\n            /* \"#utility.yul\":10764:10895   */\n          tag_365\n            /* \"#utility.yul\":10890:10894   */\n          dup2\n            /* \"#utility.yul\":10764:10895   */\n          tag_221\n          jump\t// in\n        tag_365:\n            /* \"#utility.yul\":10756:10895   */\n          swap1\n          pop\n            /* \"#utility.yul\":10483:10902   */\n          swap2\n          swap1\n          pop\n          jump\t// out\n            /* \"#utility.yul\":10908:11083   */\n        tag_222:\n            /* \"#utility.yul\":11048:11075   */\n          0x496e76616c6964206170706c6963616e74206164647265737300000000000000\n            /* \"#utility.yul\":11044:11045   */\n          0x00\n            /* \"#utility.yul\":11036:11042   */\n          dup3\n            /* \"#utility.yul\":11032:11046   */\n          add\n            /* \"#utility.yul\":11025:11076   */\n          mstore\n            /* \"#utility.yul\":10908:11083   */\n          pop\n          jump\t// out\n            /* \"#utility.yul\":11089:11455   */\n        tag_223:\n            /* \"#utility.yul\":11231:11234   */\n          0x00\n            /* \"#utility.yul\":11252:11319   */\n          tag_368\n            /* \"#utility.yul\":11316:11318   */\n          0x19\n            /* \"#utility.yul\":11311:11314   */\n          dup4\n            /* \"#utility.yul\":11252:11319   */\n          tag_194\n          jump\t// in\n        tag_368:\n            /* \"#utility.yul\":11245:11319   */\n          swap2\n          pop\n            /* \"#utility.yul\":11328:11421   */\n          tag_369\n            /* \"#utility.yul\":11417:11420   */\n          dup3\n            /* \"#utility.yul\":11328:11421   */\n          tag_222\n          jump\t// in\n        tag_369:\n            /* \"#utility.yul\":11446:11448   */\n          0x20\n            /* \"#utility.yul\":11441:11444   */\n          dup3\n            /* \"#utility.yul\":11437:11449   */\n          add\n            /* \"#utility.yul\":11430:11449   */\n          swap1\n          pop\n            /* \"#utility.yul\":11089:11455   */\n          swap2\n          swap1\n          pop\n          jump\t// out\n            /* \"#utility.yul\":11461:11880   */\n        tag_99:\n            /* \"#utility.yul\":11627:11631   */\n          0x00\n            /* \"#utility.yul\":11665:11667   */\n          0x20\n            /* \"#utility.yul\":11654:11663   */\n          dup3\n            /* \"#utility.yul\":11650:11668   */\n          add\n            /* \"#utility.yul\":11642:11668   */\n          swap1\n          pop\n            /* \"#utility.yul\":11714:11723   */\n          dup2\n            /* \"#utility.yul\":11708:11712   */\n          dup2\n            /* \"#utility.yul\":11704:11724   */\n          sub\n            /* \"#utility.yul\":11700:11701   */\n          0x00\n            /* \"#utility.yul\":11689:11698   */\n          dup4\n            /* \"#utility.yul\":11685:11702   */\n          add\n            /* \"#utility.yul\":11678:11725   */\n          mstore\n            /* \"#utility.yul\":11742:11873   */\n          tag_371\n            /* \"#utility.yul\":11868:11872   */\n          dup2\n            /* \"#utility.yul\":11742:11873   */\n          tag_223\n          jump\t// in\n        tag_371:\n            /* \"#utility.yul\":11734:11873   */\n          swap1\n          pop\n            /* \"#utility.yul\":11461:11880   */\n          swap2\n          swap1\n          pop\n          jump\t// out\n            /* \"#utility.yul\":11886:11962   */\n        tag_224:\n            /* \"#utility.yul\":11922:11929   */\n          0x00\n            /* \"#utility.yul\":11951:11956   */\n          dup2\n            /* \"#utility.yul\":11940:11956   */\n          swap1\n          pop\n            /* \"#utility.yul\":11886:11962   */\n          swap2\n          swap1\n          pop\n          jump\t// out\n            /* \"#utility.yul\":11968:12148   */\n        tag_225:\n            /* \"#utility.yul\":12016:12093   */\n          0x4e487b7100000000000000000000000000000000000000000000000000000000\n            /* \"#utility.yul\":12013:12014   */\n          0x00\n            /* \"#utility.yul\":12006:12094   */\n          mstore\n            /* \"#utility.yul\":12113:12117   */\n          0x11\n            /* \"#utility.yul\":12110:12111   */\n          0x04\n            /* \"#utility.yul\":12103:12118   */\n          mstore\n            /* \"#utility.yul\":12137:12141   */\n          0x24\n            /* \"#utility.yul\":12134:12135   */\n          0x00\n            /* \"#utility.yul\":12127:12142   */\n          revert\n            /* \"#utility.yul\":12154:12526   */\n        tag_101:\n            /* \"#utility.yul\":12193:12197   */\n          0x00\n            /* \"#utility.yul\":12213:12232   */\n          tag_375\n            /* \"#utility.yul\":12230:12231   */\n          dup3\n            /* \"#utility.yul\":12213:12232   */\n          tag_224\n          jump\t// in\n        tag_375:\n            /* \"#utility.yul\":12208:12232   */\n          swap2\n          pop\n            /* \"#utility.yul\":12246:12265   */\n          tag_376\n            /* \"#utility.yul\":12263:12264   */\n          dup4\n            /* \"#utility.yul\":12246:12265   */\n          tag_224\n          jump\t// in\n        tag_376:\n            /* \"#utility.yul\":12241:12265   */\n          swap3\n          pop\n            /* \"#utility.yul\":12289:12290   */\n          dup3\n            /* \"#utility.yul\":12286:12287   */\n          dup3\n            /* \"#utility.yul\":12282:12291   */\n          sub\n            /* \"#utility.yul\":12274:12291   */\n          swap1\n          pop\n            /* \"#utility.yul\":12483:12484   */\n          dup2\n            /* \"#utility.yul\":12477:12481   */\n          dup2\n            /* \"#utility.yul\":12473:12485   */\n          slt\n            /* \"#utility.yul\":12469:12470   */\n          0x00\n            /* \"#utility.yul\":12466:12467   */\n          dup5\n            /* \"#utility.yul\":12462:12471   */\n          slt\n            /* \"#utility.yul\":12458:12486   */\n          and\n            /* \"#utility.yul\":12441:12442   */\n          dup3\n            /* \"#utility.yul\":12435:12439   */\n          dup3\n            /* \"#utility.yul\":12431:12443   */\n          sgt\n            /* \"#utility.yul\":12426:12427   */\n          0x00\n            /* \"#utility.yul\":12423:12424   */\n          dup6\n            /* \"#utility.yul\":12419:12428   */\n          slt\n            /* \"#utility.yul\":12412:12429   */\n          iszero\n            /* \"#utility.yul\":12408:12444   */\n          and\n            /* \"#utility.yul\":12392:12496   */\n          or\n            /* \"#utility.yul\":12389:12519   */\n          iszero\n          tag_377\n          jumpi\n            /* \"#utility.yul\":12499:12517   */\n          tag_378\n          tag_225\n          jump\t// in\n        tag_378:\n            /* \"#utility.yul\":12389:12519   */\n        tag_377:\n            /* \"#utility.yul\":12154:12526   */\n          swap3\n          swap2\n          pop\n          pop\n          jump\t// out\n            /* \"#utility.yul\":12532:12697   */\n        tag_226:\n            /* \"#utility.yul\":12672:12689   */\n          0x4e6f742061206170706c6963616e740000000000000000000000000000000000\n            /* \"#utility.yul\":12668:12669   */\n          0x00\n            /* \"#utility.yul\":12660:12666   */\n          dup3\n            /* \"#utility.yul\":12656:12670   */\n          add\n            /* \"#utility.yul\":12649:12690   */\n          mstore\n            /* \"#utility.yul\":12532:12697   */\n          pop\n          jump\t// out\n            /* \"#utility.yul\":12703:13069   */\n        tag_227:\n            /* \"#utility.yul\":12845:12848   */\n          0x00\n            /* \"#utility.yul\":12866:12933   */\n          tag_381\n            /* \"#utility.yul\":12930:12932   */\n          0x0f\n            /* \"#utility.yul\":12925:12928   */\n          dup4\n            /* \"#utility.yul\":12866:12933   */\n          tag_194\n          jump\t// in\n        tag_381:\n            /* \"#utility.yul\":12859:12933   */\n          swap2\n          pop\n            /* \"#utility.yul\":12942:13035   */\n          tag_382\n            /* \"#utility.yul\":13031:13034   */\n          dup3\n            /* \"#utility.yul\":12942:13035   */\n          tag_226\n          jump\t// in\n        tag_382:\n            /* \"#utility.yul\":13060:13062   */\n          0x20\n            /* \"#utility.yul\":13055:13058   */\n          dup3\n            /* \"#utility.yul\":13051:13063   */\n          add\n            /* \"#utility.yul\":13044:13063   */\n          swap1\n          pop\n            /* \"#utility.yul\":12703:13069   */\n          swap2\n          swap1\n          pop\n          jump\t// out\n            /* \"#utility.yul\":13075:13494   */\n        tag_114:\n            /* \"#utility.yul\":13241:13245   */\n          0x00\n            /* \"#utility.yul\":13279:13281   */\n          0x20\n            /* \"#utility.yul\":13268:13277   */\n          dup3\n            /* \"#utility.yul\":13264:13282   */\n          add\n            /* \"#utility.yul\":13256:13282   */\n          swap1\n          pop\n            /* \"#utility.yul\":13328:13337   */\n          dup2\n            /* \"#utility.yul\":13322:13326   */\n          dup2\n            /* \"#utility.yul\":13318:13338   */\n          sub\n            /* \"#utility.yul\":13314:13315   */\n          0x00\n            /* \"#utility.yul\":13303:13312   */\n          dup4\n            /* \"#utility.yul\":13299:13316   */\n          add\n            /* \"#utility.yul\":13292:13339   */\n          mstore\n            /* \"#utility.yul\":13356:13487   */\n          tag_384\n            /* \"#utility.yul\":13482:13486   */\n          dup2\n            /* \"#utility.yul\":13356:13487   */\n          tag_227\n          jump\t// in\n        tag_384:\n            /* \"#utility.yul\":13348:13487   */\n          swap1\n          pop\n            /* \"#utility.yul\":13075:13494   */\n          swap2\n          swap1\n          pop\n          jump\t// out\n            /* \"#utility.yul\":13500:13680   */\n        tag_120:\n            /* \"#utility.yul\":13548:13625   */\n          0x4e487b7100000000000000000000000000000000000000000000000000000000\n            /* \"#utility.yul\":13545:13546   */\n          0x00\n            /* \"#utility.yul\":13538:13626   */\n          mstore\n            /* \"#utility.yul\":13645:13649   */\n          0x32\n            /* \"#utility.yul\":13642:13643   */\n          0x04\n            /* \"#utility.yul\":13635:13650   */\n          mstore\n            /* \"#utility.yul\":13669:13673   */\n          0x24\n            /* \"#utility.yul\":13666:13667   */\n          0x00\n            /* \"#utility.yul\":13659:13674   */\n          revert\n            /* \"#utility.yul\":13686:13919   */\n        tag_124:\n            /* \"#utility.yul\":13725:13728   */\n          0x00\n            /* \"#utility.yul\":13748:13772   */\n          tag_387\n            /* \"#utility.yul\":13766:13771   */\n          dup3\n            /* \"#utility.yul\":13748:13772   */\n          tag_205\n          jump\t// in\n        tag_387:\n            /* \"#utility.yul\":13739:13772   */\n          swap2\n          pop\n            /* \"#utility.yul\":13794:13860   */\n          0xffffffffffffffffffffffffffffffffffffffffffffffffffffffffffffffff\n            /* \"#utility.yul\":13787:13792   */\n          dup3\n            /* \"#utility.yul\":13784:13861   */\n          sub\n            /* \"#utility.yul\":13781:13884   */\n          tag_388\n          jumpi\n            /* \"#utility.yul\":13864:13882   */\n          tag_389\n          tag_225\n          jump\t// in\n        tag_389:\n            /* \"#utility.yul\":13781:13884   */\n        tag_388:\n            /* \"#utility.yul\":13911:13912   */\n          0x01\n            /* \"#utility.yul\":13904:13909   */\n          dup3\n            /* \"#utility.yul\":13900:13913   */\n          add\n            /* \"#utility.yul\":13893:13913   */\n          swap1\n          pop\n            /* \"#utility.yul\":13686:13919   */\n          swap2\n          swap1\n          pop\n          jump\t// out\n            /* \"#utility.yul\":13925:14095   */\n        tag_228:\n            /* \"#utility.yul\":14065:14087   */\n          0x53656e64657220616c726561647920766f746564000000000000000000000000\n            /* \"#utility.yul\":14061:14062   */\n          0x00\n            /* \"#utility.yul\":14053:14059   */\n          dup3\n            /* \"#utility.yul\":14049:14063   */\n          add\n            /* \"#utility.yul\":14042:14088   */\n          mstore\n            /* \"#utility.yul\":13925:14095   */\n          pop\n          jump\t// out\n            /* \"#utility.yul\":14101:14467   */\n        tag_229:\n            /* \"#utility.yul\":14243:14246   */\n          0x00\n            /* \"#utility.yul\":14264:14331   */\n          tag_392\n            /* \"#utility.yul\":14328:14330   */\n          0x14\n            /* \"#utility.yul\":14323:14326   */\n          dup4\n            /* \"#utility.yul\":14264:14331   */\n          tag_194\n          jump\t// in\n        tag_392:\n            /* \"#utility.yul\":14257:14331   */\n          swap2\n          pop\n            /* \"#utility.yul\":14340:14433   */\n          tag_393\n            /* \"#utility.yul\":14429:14432   */\n          dup3\n            /* \"#utility.yul\":14340:14433   */\n          tag_228\n          jump\t// in\n        tag_393:\n            /* \"#utility.yul\":14458:14460   */\n          0x20\n            /* \"#utility.yul\":14453:14456   */\n          dup3\n            /* \"#utility.yul\":14449:14461   */\n          add\n            /* \"#utility.yul\":14442:14461   */\n          swap1\n          pop\n            /* \"#utility.yul\":14101:14467   */\n          swap2\n          swap1\n          pop\n          jump\t// out\n            /* \"#utility.yul\":14473:14892   */\n        tag_127:\n            /* \"#utility.yul\":14639:14643   */\n          0x00\n            /* \"#utility.yul\":14677:14679   */\n          0x20\n            /* \"#utility.yul\":14666:14675   */\n          dup3\n            /* \"#utility.yul\":14662:14680   */\n          add\n            /* \"#utility.yul\":14654:14680   */\n          swap1\n          pop\n            /* \"#utility.yul\":14726:14735   */\n          dup2\n            /* \"#utility.yul\":14720:14724   */\n          dup2\n            /* \"#utility.yul\":14716:14736   */\n          sub\n            /* \"#utility.yul\":14712:14713   */\n          0x00\n            /* \"#utility.yul\":14701:14710   */\n          dup4\n            /* \"#utility.yul\":14697:14714   */\n          add\n            /* \"#utility.yul\":14690:14737   */\n          mstore\n            /* \"#utility.yul\":14754:14885   */\n          tag_395\n            /* \"#utility.yul\":14880:14884   */\n          dup2\n            /* \"#utility.yul\":14754:14885   */\n          tag_229\n          jump\t// in\n        tag_395:\n            /* \"#utility.yul\":14746:14885   */\n          swap1\n          pop\n            /* \"#utility.yul\":14473:14892   */\n          swap2\n          swap1\n          pop\n          jump\t// out\n            /* \"#utility.yul\":14898:15273   */\n        tag_130:\n            /* \"#utility.yul\":14937:14940   */\n          0x00\n            /* \"#utility.yul\":14956:14975   */\n          tag_397\n            /* \"#utility.yul\":14973:14974   */\n          dup3\n            /* \"#utility.yul\":14956:14975   */\n          tag_224\n          jump\t// in\n        tag_397:\n            /* \"#utility.yul\":14951:14975   */\n          swap2\n          pop\n            /* \"#utility.yul\":14989:15008   */\n          tag_398\n            /* \"#utility.yul\":15006:15007   */\n          dup4\n            /* \"#utility.yul\":14989:15008   */\n          tag_224\n          jump\t// in\n        tag_398:\n            /* \"#utility.yul\":14984:15008   */\n          swap3\n          pop\n            /* \"#utility.yul\":15031:15032   */\n          dup3\n            /* \"#utility.yul\":15028:15029   */\n          dup3\n            /* \"#utility.yul\":15024:15033   */\n          add\n            /* \"#utility.yul\":15017:15033   */\n          swap1\n          pop\n            /* \"#utility.yul\":15229:15230   */\n          dup3\n            /* \"#utility.yul\":15224:15227   */\n          dup2\n            /* \"#utility.yul\":15220:15231   */\n          slt\n            /* \"#utility.yul\":15213:15232   */\n          iszero\n            /* \"#utility.yul\":15209:15210   */\n          0x00\n            /* \"#utility.yul\":15206:15207   */\n          dup4\n            /* \"#utility.yul\":15202:15211   */\n          slt\n            /* \"#utility.yul\":15198:15233   */\n          and\n            /* \"#utility.yul\":15181:15182   */\n          dup4\n            /* \"#utility.yul\":15176:15179   */\n          dup3\n            /* \"#utility.yul\":15172:15183   */\n          slt\n            /* \"#utility.yul\":15167:15168   */\n          0x00\n            /* \"#utility.yul\":15164:15165   */\n          dup5\n            /* \"#utility.yul\":15160:15169   */\n          slt\n            /* \"#utility.yul\":15153:15170   */\n          iszero\n            /* \"#utility.yul\":15149:15184   */\n          and\n            /* \"#utility.yul\":15133:15243   */\n          or\n            /* \"#utility.yul\":15130:15266   */\n          iszero\n          tag_399\n          jumpi\n            /* \"#utility.yul\":15246:15264   */\n          tag_400\n          tag_225\n          jump\t// in\n        tag_400:\n            /* \"#utility.yul\":15130:15266   */\n        tag_399:\n            /* \"#utility.yul\":14898:15273   */\n          swap3\n          swap2\n          pop\n          pop\n          jump\t// out\n            /* \"#utility.yul\":15279:15450   */\n        tag_230:\n            /* \"#utility.yul\":15419:15442   */\n          0x416c726561647920616374697665206d656d6265720000000000000000000000\n            /* \"#utility.yul\":15415:15416   */\n          0x00\n            /* \"#utility.yul\":15407:15413   */\n          dup3\n            /* \"#utility.yul\":15403:15417   */\n          add\n            /* \"#utility.yul\":15396:15443   */\n          mstore\n            /* \"#utility.yul\":15279:15450   */\n          pop\n          jump\t// out\n            /* \"#utility.yul\":15456:15822   */\n        tag_231:\n            /* \"#utility.yul\":15598:15601   */\n          0x00\n            /* \"#utility.yul\":15619:15686   */\n          tag_403\n            /* \"#utility.yul\":15683:15685   */\n          0x15\n            /* \"#utility.yul\":15678:15681   */\n          dup4\n            /* \"#utility.yul\":15619:15686   */\n          tag_194\n          jump\t// in\n        tag_403:\n            /* \"#utility.yul\":15612:15686   */\n          swap2\n          pop\n            /* \"#utility.yul\":15695:15788   */\n          tag_404\n            /* \"#utility.yul\":15784:15787   */\n          dup3\n            /* \"#utility.yul\":15695:15788   */\n          tag_230\n          jump\t// in\n        tag_404:\n            /* \"#utility.yul\":15813:15815   */\n          0x20\n            /* \"#utility.yul\":15808:15811   */\n          dup3\n            /* \"#utility.yul\":15804:15816   */\n          add\n            /* \"#utility.yul\":15797:15816   */\n          swap1\n          pop\n            /* \"#utility.yul\":15456:15822   */\n          swap2\n          swap1\n          pop\n          jump\t// out\n            /* \"#utility.yul\":15828:16247   */\n        tag_147:\n            /* \"#utility.yul\":15994:15998   */\n          0x00\n            /* \"#utility.yul\":16032:16034   */\n          0x20\n            /* \"#utility.yul\":16021:16030   */\n          dup3\n            /* \"#utility.yul\":16017:16035   */\n          add\n            /* \"#utility.yul\":16009:16035   */\n          swap1\n          pop\n            /* \"#utility.yul\":16081:16090   */\n          dup2\n            /* \"#utility.yul\":16075:16079   */\n          dup2\n            /* \"#utility.yul\":16071:16091   */\n          sub\n            /* \"#utility.yul\":16067:16068   */\n          0x00\n            /* \"#utility.yul\":16056:16065   */\n          dup4\n            /* \"#utility.yul\":16052:16069   */\n          add\n            /* \"#utility.yul\":16045:16092   */\n          mstore\n            /* \"#utility.yul\":16109:16240   */\n          tag_406\n            /* \"#utility.yul\":16235:16239   */\n          dup2\n            /* \"#utility.yul\":16109:16240   */\n          tag_231\n          jump\t// in\n        tag_406:\n            /* \"#utility.yul\":16101:16240   */\n          swap1\n          pop\n            /* \"#utility.yul\":15828:16247   */\n          swap2\n          swap1\n          pop\n          jump\t// out\n            /* \"#utility.yul\":16253:16427   */\n        tag_232:\n            /* \"#utility.yul\":16393:16419   */\n          0x416c726561647920616374697665206170706c6963616e740000000000000000\n            /* \"#utility.yul\":16389:16390   */\n          0x00\n            /* \"#utility.yul\":16381:16387   */\n          dup3\n            /* \"#utility.yul\":16377:16391   */\n          add\n            /* \"#utility.yul\":16370:16420   */\n          mstore\n            /* \"#utility.yul\":16253:16427   */\n          pop\n          jump\t// out\n            /* \"#utility.yul\":16433:16799   */\n        tag_233:\n            /* \"#utility.yul\":16575:16578   */\n          0x00\n            /* \"#utility.yul\":16596:16663   */\n          tag_409\n            /* \"#utility.yul\":16660:16662   */\n          0x18\n            /* \"#utility.yul\":16655:16658   */\n          dup4\n            /* \"#utility.yul\":16596:16663   */\n          tag_194\n          jump\t// in\n        tag_409:\n            /* \"#utility.yul\":16589:16663   */\n          swap2\n          pop\n            /* \"#utility.yul\":16672:16765   */\n          tag_410\n            /* \"#utility.yul\":16761:16764   */\n          dup3\n            /* \"#utility.yul\":16672:16765   */\n          tag_232\n          jump\t// in\n        tag_410:\n            /* \"#utility.yul\":16790:16792   */\n          0x20\n            /* \"#utility.yul\":16785:16788   */\n          dup3\n            /* \"#utility.yul\":16781:16793   */\n          add\n            /* \"#utility.yul\":16774:16793   */\n          swap1\n          pop\n            /* \"#utility.yul\":16433:16799   */\n          swap2\n          swap1\n          pop\n          jump\t// out\n            /* \"#utility.yul\":16805:17224   */\n        tag_150:\n            /* \"#utility.yul\":16971:16975   */\n          0x00\n            /* \"#utility.yul\":17009:17011   */\n          0x20\n            /* \"#utility.yul\":16998:17007   */\n          dup3\n            /* \"#utility.yul\":16994:17012   */\n          add\n            /* \"#utility.yul\":16986:17012   */\n          swap1\n          pop\n            /* \"#utility.yul\":17058:17067   */\n          dup2\n            /* \"#utility.yul\":17052:17056   */\n          dup2\n            /* \"#utility.yul\":17048:17068   */\n          sub\n            /* \"#utility.yul\":17044:17045   */\n          0x00\n            /* \"#utility.yul\":17033:17042   */\n          dup4\n            /* \"#utility.yul\":17029:17046   */\n          add\n            /* \"#utility.yul\":17022:17069   */\n          mstore\n            /* \"#utility.yul\":17086:17217   */\n          tag_412\n            /* \"#utility.yul\":17212:17216   */\n          dup2\n            /* \"#utility.yul\":17086:17217   */\n          tag_233\n          jump\t// in\n        tag_412:\n            /* \"#utility.yul\":17078:17217   */\n          swap1\n          pop\n            /* \"#utility.yul\":16805:17224   */\n          swap2\n          swap1\n          pop\n          jump\t// out\n            /* \"#utility.yul\":17230:17396   */\n        tag_234:\n            /* \"#utility.yul\":17370:17388   */\n          0x6163636f756e742072656a656374656400000000000000000000000000000000\n            /* \"#utility.yul\":17366:17367   */\n          0x00\n            /* \"#utility.yul\":17358:17364   */\n          dup3\n            /* \"#utility.yul\":17354:17368   */\n          add\n            /* \"#utility.yul\":17347:17389   */\n          mstore\n            /* \"#utility.yul\":17230:17396   */\n          pop\n          jump\t// out\n            /* \"#utility.yul\":17402:17768   */\n        tag_235:\n            /* \"#utility.yul\":17544:17547   */\n          0x00\n            /* \"#utility.yul\":17565:17632   */\n          tag_415\n            /* \"#utility.yul\":17629:17631   */\n          0x10\n            /* \"#utility.yul\":17624:17627   */\n          dup4\n            /* \"#utility.yul\":17565:17632   */\n          tag_194\n          jump\t// in\n        tag_415:\n            /* \"#utility.yul\":17558:17632   */\n          swap2\n          pop\n            /* \"#utility.yul\":17641:17734   */\n          tag_416\n            /* \"#utility.yul\":17730:17733   */\n          dup3\n            /* \"#utility.yul\":17641:17734   */\n          tag_234\n          jump\t// in\n        tag_416:\n            /* \"#utility.yul\":17759:17761   */\n          0x20\n            /* \"#utility.yul\":17754:17757   */\n          dup3\n            /* \"#utility.yul\":17750:17762   */\n          add\n            /* \"#utility.yul\":17743:17762   */\n          swap1\n          pop\n            /* \"#utility.yul\":17402:17768   */\n          swap2\n          swap1\n          pop\n          jump\t// out\n            /* \"#utility.yul\":17774:18193   */\n        tag_153:\n            /* \"#utility.yul\":17940:17944   */\n          0x00\n            /* \"#utility.yul\":17978:17980   */\n          0x20\n            /* \"#utility.yul\":17967:17976   */\n          dup3\n            /* \"#utility.yul\":17963:17981   */\n          add\n            /* \"#utility.yul\":17955:17981   */\n          swap1\n          pop\n            /* \"#utility.yul\":18027:18036   */\n          dup2\n            /* \"#utility.yul\":18021:18025   */\n          dup2\n            /* \"#utility.yul\":18017:18037   */\n          sub\n            /* \"#utility.yul\":18013:18014   */\n          0x00\n            /* \"#utility.yul\":18002:18011   */\n          dup4\n            /* \"#utility.yul\":17998:18015   */\n          add\n            /* \"#utility.yul\":17991:18038   */\n          mstore\n            /* \"#utility.yul\":18055:18186   */\n          tag_418\n            /* \"#utility.yul\":18181:18185   */\n          dup2\n            /* \"#utility.yul\":18055:18186   */\n          tag_235\n          jump\t// in\n        tag_418:\n            /* \"#utility.yul\":18047:18186   */\n          swap1\n          pop\n            /* \"#utility.yul\":17774:18193   */\n          swap2\n          swap1\n          pop\n          jump\t// out\n            /* \"#utility.yul\":18199:18390   */\n        tag_156:\n            /* \"#utility.yul\":18239:18242   */\n          0x00\n            /* \"#utility.yul\":18258:18278   */\n          tag_420\n            /* \"#utility.yul\":18276:18277   */\n          dup3\n            /* \"#utility.yul\":18258:18278   */\n          tag_205\n          jump\t// in\n        tag_420:\n            /* \"#utility.yul\":18253:18278   */\n          swap2\n          pop\n            /* \"#utility.yul\":18292:18312   */\n          tag_421\n            /* \"#utility.yul\":18310:18311   */\n          dup4\n            /* \"#utility.yul\":18292:18312   */\n          tag_205\n          jump\t// in\n        tag_421:\n            /* \"#utility.yul\":18287:18312   */\n          swap3\n          pop\n            /* \"#utility.yul\":18335:18336   */\n          dup3\n            /* \"#utility.yul\":18332:18333   */\n          dup3\n            /* \"#utility.yul\":18328:18337   */\n          add\n            /* \"#utility.yul\":18321:18337   */\n          swap1\n          pop\n            /* \"#utility.yul\":18356:18359   */\n          dup1\n            /* \"#utility.yul\":18353:18354   */\n          dup3\n            /* \"#utility.yul\":18350:18360   */\n          gt\n            /* \"#utility.yul\":18347:18383   */\n          iszero\n          tag_422\n          jumpi\n            /* \"#utility.yul\":18363:18381   */\n          tag_423\n          tag_225\n          jump\t// in\n        tag_423:\n            /* \"#utility.yul\":18347:18383   */\n        tag_422:\n            /* \"#utility.yul\":18199:18390   */\n          swap3\n          swap2\n          pop\n          pop\n          jump\t// out\n            /* \"#utility.yul\":18396:18493   */\n        tag_236:\n            /* \"#utility.yul\":18455:18461   */\n          0x00\n            /* \"#utility.yul\":18483:18486   */\n          dup3\n            /* \"#utility.yul\":18473:18486   */\n          swap1\n          pop\n            /* \"#utility.yul\":18396:18493   */\n          swap3\n          swap2\n          pop\n          pop\n          jump\t// out\n            /* \"#utility.yul\":18499:18679   */\n        tag_237:\n            /* \"#utility.yul\":18547:18624   */\n          0x4e487b7100000000000000000000000000000000000000000000000000000000\n            /* \"#utility.yul\":18544:18545   */\n          0x00\n            /* \"#utility.yul\":18537:18625   */\n          mstore\n            /* \"#utility.yul\":18644:18648   */\n          0x41\n            /* \"#utility.yul\":18641:18642   */\n          0x04\n            /* \"#utility.yul\":18634:18649   */\n          mstore\n            /* \"#utility.yul\":18668:18672   */\n          0x24\n            /* \"#utility.yul\":18665:18666   */\n          0x00\n            /* \"#utility.yul\":18658:18673   */\n          revert\n            /* \"#utility.yul\":18685:18826   */\n        tag_238:\n            /* \"#utility.yul\":18734:18738   */\n          0x00\n            /* \"#utility.yul\":18757:18760   */\n          dup2\n            /* \"#utility.yul\":18749:18760   */\n          swap1\n          pop\n            /* \"#utility.yul\":18780:18783   */\n          dup2\n            /* \"#utility.yul\":18777:18778   */\n          0x00\n            /* \"#utility.yul\":18770:18784   */\n          mstore\n            /* \"#utility.yul\":18814:18818   */\n          0x20\n            /* \"#utility.yul\":18811:18812   */\n          0x00\n            /* \"#utility.yul\":18801:18819   */\n          keccak256\n            /* \"#utility.yul\":18793:18819   */\n          swap1\n          pop\n            /* \"#utility.yul\":18685:18826   */\n          swap2\n          swap1\n          pop\n          jump\t// out\n            /* \"#utility.yul\":18832:18925   */\n        tag_239:\n            /* \"#utility.yul\":18869:18875   */\n          0x00\n            /* \"#utility.yul\":18916:18918   */\n          0x20\n            /* \"#utility.yul\":18911:18913   */\n          0x1f\n            /* \"#utility.yul\":18904:18909   */\n          dup4\n            /* \"#utility.yul\":18900:18914   */\n          add\n            /* \"#utility.yul\":18896:18919   */\n          div\n            /* \"#utility.yul\":18886:18919   */\n          swap1\n          pop\n            /* \"#utility.yul\":18832:18925   */\n          swap2\n          swap1\n          pop\n          jump\t// out\n            /* \"#utility.yul\":18931:19038   */\n        tag_240:\n            /* \"#utility.yul\":18975:18983   */\n          0x00\n            /* \"#utility.yul\":19025:19030   */\n          dup3\n            /* \"#utility.yul\":19019:19023   */\n          dup3\n            /* \"#utility.yul\":19015:19031   */\n          shl\n            /* \"#utility.yul\":18994:19031   */\n          swap1\n          pop\n            /* \"#utility.yul\":18931:19038   */\n          swap3\n          swap2\n          pop\n          pop\n          jump\t// out\n            /* \"#utility.yul\":19044:19437   */\n        tag_241:\n            /* \"#utility.yul\":19113:19119   */\n          0x00\n            /* \"#utility.yul\":19163:19164   */\n          0x08\n            /* \"#utility.yul\":19151:19161   */\n          dup4\n            /* \"#utility.yul\":19147:19165   */\n          mul\n            /* \"#utility.yul\":19186:19283   */\n          tag_430\n            /* \"#utility.yul\":19216:19282   */\n          0xffffffffffffffffffffffffffffffffffffffffffffffffffffffffffffffff\n            /* \"#utility.yul\":19205:19214   */\n          dup3\n            /* \"#utility.yul\":19186:19283   */\n          tag_240\n          jump\t// in\n        tag_430:\n            /* \"#utility.yul\":19304:19343   */\n          tag_431\n            /* \"#utility.yul\":19334:19342   */\n          dup7\n            /* \"#utility.yul\":19323:19332   */\n          dup4\n            /* \"#utility.yul\":19304:19343   */\n          tag_240\n          jump\t// in\n        tag_431:\n            /* \"#utility.yul\":19292:19343   */\n          swap6\n          pop\n            /* \"#utility.yul\":19376:19380   */\n          dup1\n            /* \"#utility.yul\":19372:19381   */\n          not\n            /* \"#utility.yul\":19365:19370   */\n          dup5\n            /* \"#utility.yul\":19361:19382   */\n          and\n            /* \"#utility.yul\":19352:19382   */\n          swap4\n          pop\n            /* \"#utility.yul\":19425:19429   */\n          dup1\n            /* \"#utility.yul\":19415:19423   */\n          dup7\n            /* \"#utility.yul\":19411:19430   */\n          and\n            /* \"#utility.yul\":19404:19409   */\n          dup5\n            /* \"#utility.yul\":19401:19431   */\n          or\n            /* \"#utility.yul\":19391:19431   */\n          swap3\n          pop\n            /* \"#utility.yul\":19120:19437   */\n          pop\n          pop\n            /* \"#utility.yul\":19044:19437   */\n          swap4\n          swap3\n          pop\n          pop\n          pop\n          jump\t// out\n            /* \"#utility.yul\":19443:19503   */\n        tag_242:\n            /* \"#utility.yul\":19471:19474   */\n          0x00\n            /* \"#utility.yul\":19492:19497   */\n          dup2\n            /* \"#utility.yul\":19485:19497   */\n          swap1\n          pop\n            /* \"#utility.yul\":19443:19503   */\n          swap2\n          swap1\n          pop\n          jump\t// out\n            /* \"#utility.yul\":19509:19651   */\n        tag_243:\n            /* \"#utility.yul\":19559:19568   */\n          0x00\n            /* \"#utility.yul\":19592:19645   */\n          tag_434\n            /* \"#utility.yul\":19610:19644   */\n          tag_435\n            /* \"#utility.yul\":19619:19643   */\n          tag_436\n            /* \"#utility.yul\":19637:19642   */\n          dup5\n            /* \"#utility.yul\":19619:19643   */\n          tag_205\n          jump\t// in\n        tag_436:\n            /* \"#utility.yul\":19610:19644   */\n          tag_242\n          jump\t// in\n        tag_435:\n            /* \"#utility.yul\":19592:19645   */\n          tag_205\n          jump\t// in\n        tag_434:\n            /* \"#utility.yul\":19579:19645   */\n          swap1\n          pop\n            /* \"#utility.yul\":19509:19651   */\n          swap2\n          swap1\n          pop\n          jump\t// out\n            /* \"#utility.yul\":19657:19732   */\n        tag_244:\n            /* \"#utility.yul\":19700:19703   */\n          0x00\n            /* \"#utility.yul\":19721:19726   */\n          dup2\n            /* \"#utility.yul\":19714:19726   */\n          swap1\n          pop\n            /* \"#utility.yul\":19657:19732   */\n          swap2\n          swap1\n          pop\n          jump\t// out\n            /* \"#utility.yul\":19738:20007   */\n        tag_245:\n            /* \"#utility.yul\":19848:19887   */\n          tag_439\n            /* \"#utility.yul\":19879:19886   */\n          dup4\n            /* \"#utility.yul\":19848:19887   */\n          tag_243\n          jump\t// in\n        tag_439:\n            /* \"#utility.yul\":19909:20000   */\n          tag_440\n            /* \"#utility.yul\":19958:19999   */\n          tag_441\n            /* \"#utility.yul\":19982:19998   */\n          dup3\n            /* \"#utility.yul\":19958:19999   */\n          tag_244\n          jump\t// in\n        tag_441:\n            /* \"#utility.yul\":19950:19956   */\n          dup5\n            /* \"#utility.yul\":19943:19947   */\n          dup5\n            /* \"#utility.yul\":19937:19948   */\n          sload\n            /* \"#utility.yul\":19909:20000   */\n          tag_241\n          jump\t// in\n        tag_440:\n            /* \"#utility.yul\":19903:19907   */\n          dup3\n            /* \"#utility.yul\":19896:20001   */\n          sstore\n            /* \"#utility.yul\":19814:20007   */\n          pop\n            /* \"#utility.yul\":19738:20007   */\n          pop\n          pop\n          pop\n          jump\t// out\n            /* \"#utility.yul\":20013:20086   */\n        tag_246:\n            /* \"#utility.yul\":20058:20061   */\n          0x00\n            /* \"#utility.yul\":20013:20086   */\n          swap1\n          jump\t// out\n            /* \"#utility.yul\":20092:20281   */\n        tag_247:\n            /* \"#utility.yul\":20169:20201   */\n          tag_444\n          tag_246\n          jump\t// in\n        tag_444:\n            /* \"#utility.yul\":20210:20275   */\n          tag_445\n            /* \"#utility.yul\":20268:20274   */\n          dup2\n            /* \"#utility.yul\":20260:20266   */\n          dup5\n            /* \"#utility.yul\":20254:20258   */\n          dup5\n            /* \"#utility.yul\":20210:20275   */\n          tag_245\n          jump\t// in\n        tag_445:\n            /* \"#utility.yul\":20145:20281   */\n          pop\n            /* \"#utility.yul\":20092:20281   */\n          pop\n          pop\n          jump\t// out\n            /* \"#utility.yul\":20287:20473   */\n        tag_248:\n            /* \"#utility.yul\":20347:20467   */\n        tag_447:\n            /* \"#utility.yul\":20364:20367   */\n          dup2\n            /* \"#utility.yul\":20357:20362   */\n          dup2\n            /* \"#utility.yul\":20354:20368   */\n          lt\n            /* \"#utility.yul\":20347:20467   */\n          iszero\n          tag_449\n          jumpi\n            /* \"#utility.yul\":20418:20457   */\n          tag_450\n            /* \"#utility.yul\":20455:20456   */\n          0x00\n            /* \"#utility.yul\":20448:20453   */\n          dup3\n            /* \"#utility.yul\":20418:20457   */\n          tag_247\n          jump\t// in\n        tag_450:\n            /* \"#utility.yul\":20391:20392   */\n          0x01\n            /* \"#utility.yul\":20384:20389   */\n          dup2\n            /* \"#utility.yul\":20380:20393   */\n          add\n            /* \"#utility.yul\":20371:20393   */\n          swap1\n          pop\n            /* \"#utility.yul\":20347:20467   */\n          jump(tag_447)\n        tag_449:\n            /* \"#utility.yul\":20287:20473   */\n          pop\n          pop\n          jump\t// out\n            /* \"#utility.yul\":20479:21022   */\n        tag_249:\n            /* \"#utility.yul\":20580:20582   */\n          0x1f\n            /* \"#utility.yul\":20575:20578   */\n          dup3\n            /* \"#utility.yul\":20572:20583   */\n          gt\n            /* \"#utility.yul\":20569:21015   */\n          iszero\n          tag_452\n          jumpi\n            /* \"#utility.yul\":20614:20652   */\n          tag_453\n            /* \"#utility.yul\":20646:20651   */\n          dup2\n            /* \"#utility.yul\":20614:20652   */\n          tag_238\n          jump\t// in\n        tag_453:\n            /* \"#utility.yul\":20698:20727   */\n          tag_454\n            /* \"#utility.yul\":20716:20726   */\n          dup5\n            /* \"#utility.yul\":20698:20727   */\n          tag_239\n          jump\t// in\n        tag_454:\n            /* \"#utility.yul\":20688:20696   */\n          dup2\n            /* \"#utility.yul\":20684:20728   */\n          add\n            /* \"#utility.yul\":20881:20883   */\n          0x20\n            /* \"#utility.yul\":20869:20879   */\n          dup6\n            /* \"#utility.yul\":20866:20884   */\n          lt\n            /* \"#utility.yul\":20863:20912   */\n          iszero\n          tag_455\n          jumpi\n            /* \"#utility.yul\":20902:20910   */\n          dup2\n            /* \"#utility.yul\":20887:20910   */\n          swap1\n          pop\n            /* \"#utility.yul\":20863:20912   */\n        tag_455:\n            /* \"#utility.yul\":20925:21005   */\n          tag_456\n            /* \"#utility.yul\":20981:21003   */\n          tag_457\n            /* \"#utility.yul\":20999:21002   */\n          dup6\n            /* \"#utility.yul\":20981:21003   */\n          tag_239\n          jump\t// in\n        tag_457:\n            /* \"#utility.yul\":20971:20979   */\n          dup4\n            /* \"#utility.yul\":20967:21004   */\n          add\n            /* \"#utility.yul\":20954:20965   */\n          dup3\n            /* \"#utility.yul\":20925:21005   */\n          tag_248\n          jump\t// in\n        tag_456:\n            /* \"#utility.yul\":20584:21015   */\n          pop\n          pop\n            /* \"#utility.yul\":20569:21015   */\n        tag_452:\n            /* \"#utility.yul\":20479:21022   */\n          pop\n          pop\n          pop\n          jump\t// out\n            /* \"#utility.yul\":21028:21145   */\n        tag_250:\n            /* \"#utility.yul\":21082:21090   */\n          0x00\n            /* \"#utility.yul\":21132:21137   */\n          dup3\n            /* \"#utility.yul\":21126:21130   */\n          dup3\n            /* \"#utility.yul\":21122:21138   */\n          shr\n            /* \"#utility.yul\":21101:21138   */\n          swap1\n          pop\n            /* \"#utility.yul\":21028:21145   */\n          swap3\n          swap2\n          pop\n          pop\n          jump\t// out\n            /* \"#utility.yul\":21151:21320   */\n        tag_251:\n            /* \"#utility.yul\":21195:21201   */\n          0x00\n            /* \"#utility.yul\":21228:21279   */\n          tag_460\n            /* \"#utility.yul\":21276:21277   */\n          0x00\n            /* \"#utility.yul\":21272:21278   */\n          not\n            /* \"#utility.yul\":21264:21269   */\n          dup5\n            /* \"#utility.yul\":21261:21262   */\n          0x08\n            /* \"#utility.yul\":21257:21270   */\n          mul\n            /* \"#utility.yul\":21228:21279   */\n          tag_250\n          jump\t// in\n        tag_460:\n            /* \"#utility.yul\":21224:21280   */\n          not\n            /* \"#utility.yul\":21309:21313   */\n          dup1\n            /* \"#utility.yul\":21303:21307   */\n          dup4\n            /* \"#utility.yul\":21299:21314   */\n          and\n            /* \"#utility.yul\":21289:21314   */\n          swap2\n          pop\n            /* \"#utility.yul\":21202:21320   */\n          pop\n            /* \"#utility.yul\":21151:21320   */\n          swap3\n          swap2\n          pop\n          pop\n          jump\t// out\n            /* \"#utility.yul\":21325:21620   */\n        tag_252:\n            /* \"#utility.yul\":21401:21405   */\n          0x00\n            /* \"#utility.yul\":21547:21576   */\n          tag_462\n            /* \"#utility.yul\":21572:21575   */\n          dup4\n            /* \"#utility.yul\":21566:21570   */\n          dup4\n            /* \"#utility.yul\":21547:21576   */\n          tag_251\n          jump\t// in\n        tag_462:\n            /* \"#utility.yul\":21539:21576   */\n          swap2\n          pop\n            /* \"#utility.yul\":21609:21612   */\n          dup3\n            /* \"#utility.yul\":21606:21607   */\n          0x02\n            /* \"#utility.yul\":21602:21613   */\n          mul\n            /* \"#utility.yul\":21596:21600   */\n          dup3\n            /* \"#utility.yul\":21593:21614   */\n          or\n            /* \"#utility.yul\":21585:21614   */\n          swap1\n          pop\n            /* \"#utility.yul\":21325:21620   */\n          swap3\n          swap2\n          pop\n          pop\n          jump\t// out\n            /* \"#utility.yul\":21625:23028   */\n        tag_158:\n            /* \"#utility.yul\":21749:21793   */\n          tag_464\n            /* \"#utility.yul\":21789:21792   */\n          dup4\n            /* \"#utility.yul\":21784:21787   */\n          dup4\n            /* \"#utility.yul\":21749:21793   */\n          tag_236\n          jump\t// in\n        tag_464:\n            /* \"#utility.yul\":21858:21876   */\n          0xffffffffffffffff\n            /* \"#utility.yul\":21850:21856   */\n          dup2\n            /* \"#utility.yul\":21847:21877   */\n          gt\n            /* \"#utility.yul\":21844:21900   */\n          iszero\n          tag_465\n          jumpi\n            /* \"#utility.yul\":21880:21898   */\n          tag_466\n          tag_237\n          jump\t// in\n        tag_466:\n            /* \"#utility.yul\":21844:21900   */\n        tag_465:\n            /* \"#utility.yul\":21924:21962   */\n          tag_467\n            /* \"#utility.yul\":21956:21960   */\n          dup3\n            /* \"#utility.yul\":21950:21961   */\n          sload\n            /* \"#utility.yul\":21924:21962   */\n          tag_79\n          jump\t// in\n        tag_467:\n            /* \"#utility.yul\":22009:22076   */\n          tag_468\n            /* \"#utility.yul\":22069:22075   */\n          dup3\n            /* \"#utility.yul\":22061:22067   */\n          dup3\n            /* \"#utility.yul\":22055:22059   */\n          dup6\n            /* \"#utility.yul\":22009:22076   */\n          tag_249\n          jump\t// in\n        tag_468:\n            /* \"#utility.yul\":22103:22104   */\n          0x00\n            /* \"#utility.yul\":22132:22134   */\n          0x1f\n            /* \"#utility.yul\":22124:22130   */\n          dup4\n            /* \"#utility.yul\":22121:22135   */\n          gt\n            /* \"#utility.yul\":22149:22150   */\n          0x01\n            /* \"#utility.yul\":22144:22776   */\n          dup2\n          eq\n          tag_470\n          jumpi\n            /* \"#utility.yul\":22820:22821   */\n          0x00\n            /* \"#utility.yul\":22837:22843   */\n          dup5\n            /* \"#utility.yul\":22834:22918   */\n          iszero\n          tag_471\n          jumpi\n            /* \"#utility.yul\":22893:22902   */\n          dup3\n            /* \"#utility.yul\":22888:22891   */\n          dup8\n            /* \"#utility.yul\":22884:22903   */\n          add\n            /* \"#utility.yul\":22871:22904   */\n          calldataload\n            /* \"#utility.yul\":22862:22904   */\n          swap1\n          pop\n            /* \"#utility.yul\":22834:22918   */\n        tag_471:\n            /* \"#utility.yul\":22944:23011   */\n          tag_472\n            /* \"#utility.yul\":23004:23010   */\n          dup6\n            /* \"#utility.yul\":22997:23002   */\n          dup3\n            /* \"#utility.yul\":22944:23011   */\n          tag_252\n          jump\t// in\n        tag_472:\n            /* \"#utility.yul\":22938:22942   */\n          dup7\n            /* \"#utility.yul\":22931:23012   */\n          sstore\n            /* \"#utility.yul\":22793:23022   */\n          pop\n            /* \"#utility.yul\":22114:23022   */\n          jump(tag_469)\n            /* \"#utility.yul\":22144:22776   */\n        tag_470:\n            /* \"#utility.yul\":22196:22200   */\n          0x1f\n            /* \"#utility.yul\":22192:22201   */\n          not\n            /* \"#utility.yul\":22184:22190   */\n          dup5\n            /* \"#utility.yul\":22180:22202   */\n          and\n            /* \"#utility.yul\":22230:22267   */\n          tag_473\n            /* \"#utility.yul\":22262:22266   */\n          dup7\n            /* \"#utility.yul\":22230:22267   */\n          tag_238\n          jump\t// in\n        tag_473:\n            /* \"#utility.yul\":22289:22290   */\n          0x00\n            /* \"#utility.yul\":22303:22518   */\n        tag_474:\n            /* \"#utility.yul\":22317:22324   */\n          dup3\n            /* \"#utility.yul\":22314:22315   */\n          dup2\n            /* \"#utility.yul\":22311:22325   */\n          lt\n            /* \"#utility.yul\":22303:22518   */\n          iszero\n          tag_476\n          jumpi\n            /* \"#utility.yul\":22403:22412   */\n          dup5\n            /* \"#utility.yul\":22398:22401   */\n          dup10\n            /* \"#utility.yul\":22394:22413   */\n          add\n            /* \"#utility.yul\":22381:22414   */\n          calldataload\n            /* \"#utility.yul\":22373:22379   */\n          dup3\n            /* \"#utility.yul\":22366:22415   */\n          sstore\n            /* \"#utility.yul\":22454:22455   */\n          0x01\n            /* \"#utility.yul\":22446:22452   */\n          dup3\n            /* \"#utility.yul\":22442:22456   */\n          add\n            /* \"#utility.yul\":22432:22456   */\n          swap2\n          pop\n            /* \"#utility.yul\":22501:22503   */\n          0x20\n            /* \"#utility.yul\":22490:22499   */\n          dup6\n            /* \"#utility.yul\":22486:22504   */\n          add\n            /* \"#utility.yul\":22473:22504   */\n          swap5\n          pop\n            /* \"#utility.yul\":22340:22344   */\n          0x20\n            /* \"#utility.yul\":22337:22338   */\n          dup2\n            /* \"#utility.yul\":22333:22345   */\n          add\n            /* \"#utility.yul\":22328:22345   */\n          swap1\n          pop\n            /* \"#utility.yul\":22303:22518   */\n          jump(tag_474)\n        tag_476:\n            /* \"#utility.yul\":22546:22552   */\n          dup7\n            /* \"#utility.yul\":22537:22544   */\n          dup4\n            /* \"#utility.yul\":22534:22553   */\n          lt\n            /* \"#utility.yul\":22531:22717   */\n          iszero\n          tag_477\n          jumpi\n            /* \"#utility.yul\":22611:22620   */\n          dup5\n            /* \"#utility.yul\":22606:22609   */\n          dup10\n            /* \"#utility.yul\":22602:22621   */\n          add\n            /* \"#utility.yul\":22589:22622   */\n          calldataload\n            /* \"#utility.yul\":22654:22702   */\n          tag_478\n            /* \"#utility.yul\":22696:22700   */\n          0x1f\n            /* \"#utility.yul\":22688:22694   */\n          dup10\n            /* \"#utility.yul\":22684:22701   */\n          and\n            /* \"#utility.yul\":22673:22682   */\n          dup3\n            /* \"#utility.yul\":22654:22702   */\n          tag_251\n          jump\t// in\n        tag_478:\n            /* \"#utility.yul\":22646:22652   */\n          dup4\n            /* \"#utility.yul\":22639:22703   */\n          sstore\n            /* \"#utility.yul\":22554:22717   */\n          pop\n            /* \"#utility.yul\":22531:22717   */\n        tag_477:\n            /* \"#utility.yul\":22763:22764   */\n          0x01\n            /* \"#utility.yul\":22759:22760   */\n          0x02\n            /* \"#utility.yul\":22751:22757   */\n          dup9\n            /* \"#utility.yul\":22747:22761   */\n          mul\n            /* \"#utility.yul\":22743:22765   */\n          add\n            /* \"#utility.yul\":22737:22741   */\n          dup9\n            /* \"#utility.yul\":22730:22766   */\n          sstore\n            /* \"#utility.yul\":22151:22776   */\n          pop\n          pop\n          pop\n            /* \"#utility.yul\":22114:23022   */\n        tag_469:\n          pop\n            /* \"#utility.yul\":21724:23028   */\n          pop\n          pop\n          pop\n            /* \"#utility.yul\":21625:23028   */\n          pop\n          pop\n          pop\n          jump\t// out\n            /* \"#utility.yul\":23034:23228   */\n        tag_170:\n            /* \"#utility.yul\":23074:23078   */\n          0x00\n            /* \"#utility.yul\":23094:23114   */\n          tag_480\n            /* \"#utility.yul\":23112:23113   */\n          dup3\n            /* \"#utility.yul\":23094:23114   */\n          tag_205\n          jump\t// in\n        tag_480:\n            /* \"#utility.yul\":23089:23114   */\n          swap2\n          pop\n            /* \"#utility.yul\":23128:23148   */\n          tag_481\n            /* \"#utility.yul\":23146:23147   */\n          dup4\n            /* \"#utility.yul\":23128:23148   */\n          tag_205\n          jump\t// in\n        tag_481:\n            /* \"#utility.yul\":23123:23148   */\n          swap3\n          pop\n            /* \"#utility.yul\":23172:23173   */\n          dup3\n            /* \"#utility.yul\":23169:23170   */\n          dup3\n            /* \"#utility.yul\":23165:23174   */\n          sub\n            /* \"#utility.yul\":23157:23174   */\n          swap1\n          pop\n            /* \"#utility.yul\":23196:23197   */\n          dup2\n            /* \"#utility.yul\":23190:23194   */\n          dup2\n            /* \"#utility.yul\":23187:23198   */\n          gt\n            /* \"#utility.yul\":23184:23221   */\n          iszero\n          tag_482\n          jumpi\n            /* \"#utility.yul\":23201:23219   */\n          tag_483\n          tag_225\n          jump\t// in\n        tag_483:\n            /* \"#utility.yul\":23184:23221   */\n        tag_482:\n            /* \"#utility.yul\":23034:23228   */\n          swap3\n          swap2\n          pop\n          pop\n          jump\t// out\n            /* \"#utility.yul\":23234:23414   */\n        tag_179:\n            /* \"#utility.yul\":23282:23359   */\n          0x4e487b7100000000000000000000000000000000000000000000000000000000\n            /* \"#utility.yul\":23279:23280   */\n          0x00\n            /* \"#utility.yul\":23272:23360   */\n          mstore\n            /* \"#utility.yul\":23379:23383   */\n          0x31\n            /* \"#utility.yul\":23376:23377   */\n          0x04\n            /* \"#utility.yul\":23369:23384   */\n          mstore\n            /* \"#utility.yul\":23403:23407   */\n          0x24\n            /* \"#utility.yul\":23400:23401   */\n          0x00\n            /* \"#utility.yul\":23393:23408   */\n          revert\n\n        auxdata: 0xa264697066735822122012def43ba85031e34b2340c4af5eddcdd6aecc6ec2bdf3ed9887ade3fb20d86464736f6c63430008110033\n    }\n}\n","bytecode":{"linkReferences":{},"object":"60806040523480156200001157600080fd5b506040516200431938038062004319833981810160405281019062000037919062000454565b82600960006101000a81548173ffffffffffffffffffffffffffffffffffffffff021916908373ffffffffffffffffffffffffffffffffffffffff16021790555081600090816200008991906200071a565b5080306040516200009a906200024e565b620000a792919062000812565b604051809103906000f080158015620000c4573d6000803e3d6000fd5b50600860006101000a81548173ffffffffffffffffffffffffffffffffffffffff021916908373ffffffffffffffffffffffffffffffffffffffff160217905550600160046000600960009054906101000a900473ffffffffffffffffffffffffffffffffffffffff1673ffffffffffffffffffffffffffffffffffffffff1673ffffffffffffffffffffffffffffffffffffffff16815260200190815260200160002060006101000a81548160ff0219169083151502179055506003600960009054906101000a900473ffffffffffffffffffffffffffffffffffffffff169080600181540180825580915050600190039060005260206000200160009091909190916101000a81548173ffffffffffffffffffffffffffffffffffffffff021916908373ffffffffffffffffffffffffffffffffffffffff16021790555080600a60006101000a81548173ffffffffffffffffffffffffffffffffffffffff021916908373ffffffffffffffffffffffffffffffffffffffff1602179055505050506200083f565b612083806200229683390190565b6000604051905090565b600080fd5b600080fd5b600073ffffffffffffffffffffffffffffffffffffffff82169050919050565b60006200029d8262000270565b9050919050565b620002af8162000290565b8114620002bb57600080fd5b50565b600081519050620002cf81620002a4565b92915050565b600080fd5b600080fd5b6000601f19601f8301169050919050565b7f4e487b7100000000000000000000000000000000000000000000000000000000600052604160045260246000fd5b6200032a82620002df565b810181811067ffffffffffffffff821117156200034c576200034b620002f0565b5b80604052505050565b6000620003616200025c565b90506200036f82826200031f565b919050565b600067ffffffffffffffff821115620003925762000391620002f0565b5b6200039d82620002df565b9050602081019050919050565b60005b83811015620003ca578082015181840152602081019050620003ad565b60008484015250505050565b6000620003ed620003e78462000374565b62000355565b9050828152602081018484840111156200040c576200040b620002da565b5b62000419848285620003aa565b509392505050565b600082601f830112620004395762000438620002d5565b5b81516200044b848260208601620003d6565b91505092915050565b60008060006060848603121562000470576200046f62000266565b5b60006200048086828701620002be565b935050602084015167ffffffffffffffff811115620004a457620004a36200026b565b5b620004b28682870162000421565b9250506040620004c586828701620002be565b9150509250925092565b600081519050919050565b7f4e487b7100000000000000000000000000000000000000000000000000000000600052602260045260246000fd5b600060028204905060018216806200052257607f821691505b602082108103620005385762000537620004da565b5b50919050565b60008190508160005260206000209050919050565b60006020601f8301049050919050565b600082821b905092915050565b600060088302620005a27fffffffffffffffffffffffffffffffffffffffffffffffffffffffffffffffff8262000563565b620005ae868362000563565b95508019841693508086168417925050509392505050565b6000819050919050565b6000819050919050565b6000620005fb620005f5620005ef84620005c6565b620005d0565b620005c6565b9050919050565b6000819050919050565b6200061783620005da565b6200062f620006268262000602565b84845462000570565b825550505050565b600090565b6200064662000637565b620006538184846200060c565b505050565b5b818110156200067b576200066f6000826200063c565b60018101905062000659565b5050565b601f821115620006ca5762000694816200053e565b6200069f8462000553565b81016020851015620006af578190505b620006c7620006be8562000553565b83018262000658565b50505b505050565b600082821c905092915050565b6000620006ef60001984600802620006cf565b1980831691505092915050565b60006200070a8383620006dc565b9150826002028217905092915050565b6200072582620004cf565b67ffffffffffffffff811115620007415762000740620002f0565b5b6200074d825462000509565b6200075a8282856200067f565b600060209050601f8311600181146200079257600084156200077d578287015190505b620007898582620006fc565b865550620007f9565b601f198416620007a2866200053e565b60005b82811015620007cc57848901518255600182019150602085019450602081019050620007a5565b86831015620007ec5784890151620007e8601f891682620006dc565b8355505b6001600288020188555050505b505050505050565b6200080c8162000290565b82525050565b600060408201905062000829600083018562000801565b62000838602083018462000801565b9392505050565b611a47806200084f6000396000f3fe608060405234801561001057600080fd5b50600436106101425760003560e01c80639a4d383e116100b8578063af1fca091161007c578063af1fca091461039f578063b3253f13146103bd578063c7662d93146103ed578063ca505a5b1461040b578063cef025ac14610429578063e18898761461044557610142565b80639a4d383e146102e75780639c0ab105146103035780639e5f59f9146103215780639eab525314610351578063a230c5241461036f57610142565b80631ee503fd1161010a5780631ee503fd146101ff57806325ec527c1461021b578063455772d21461024b5780635daf08ca146102695780637058601314610299578063997072f7146102c957610142565b806302d05d3f1461014757806306fdde0314610165578063107046bd14610183578063146b551d146101b357806315866836146101e3575b600080fd5b61014f610475565b60405161015c9190611058565b60405180910390f35b61016d61049b565b60405161017a9190611103565b60405180910390f35b61019d6004803603810190610198919061116f565b610529565b6040516101aa9190611058565b60405180910390f35b6101cd60048036038101906101c891906111c8565b610568565b6040516101da9190611211565b60405180910390f35b6101fd60048036038101906101f89190611291565b61056f565b005b610219600480360381019061021491906111c8565b610602565b005b610235600480360381019061023091906111c8565b61095b565b604051610242919061130c565b60405180910390f35b61025361097b565b60405161026091906113e5565b60405180910390f35b610283600480360381019061027e919061116f565b610aac565b6040516102909190611058565b60405180910390f35b6102b360048036038101906102ae9190611291565b610aeb565b6040516102c09190611426565b60405180910390f35b6102d1610af4565b6040516102de9190611450565b60405180910390f35b61030160048036038101906102fc91906111c8565b610b01565b005b61030b610ce3565b6040516103189190611103565b60405180910390f35b61033b600480360381019061033691906111c8565b610d71565b6040516103489190611577565b60405180910390f35b610359610d78565b60405161036691906113e5565b60405180910390f35b610389600480360381019061038491906111c8565b610e0b565b604051610396919061130c565b60405180910390f35b6103a7610e61565b6040516103b49190611058565b60405180910390f35b6103d760048036038101906103d291906111c8565b610e87565b6040516103e491906115b2565b60405180910390f35b6103f5610e9f565b6040516104029190611058565b60405180910390f35b610413610ec5565b6040516104209190611103565b60405180910390f35b610443600480360381019061043e91906111c8565b610f53565b005b61045f600480360381019061045a91906111c8565b610fe4565b60405161046c9190611058565b60405180910390f35b600960009054906101000a900473ffffffffffffffffffffffffffffffffffffffff1681565b600080546104a8906115fc565b80601f01602080910402602001604051908101604052809291908181526020018280546104d4906115fc565b80156105215780601f106104f657610100808354040283529160200191610521565b820191906000526020600020905b81548152906001019060200180831161050457829003601f168201915b505050505081565b6005818154811061053957600080fd5b906000526020600020016000915054906101000a900473ffffffffffffffffffffffffffffffffffffffff1681565b6000919050565b33600460008273ffffffffffffffffffffffffffffffffffffffff1673ffffffffffffffffffffffffffffffffffffffff16815260200190815260200160002060009054906101000a900460ff166105fc576040517f08c379a00000000000000000000000000000000000000000000000000000000081526004016105f390611679565b60405180910390fd5b50505050565b33600460008273ffffffffffffffffffffffffffffffffffffffff1673ffffffffffffffffffffffffffffffffffffffff16815260200190815260200160002060009054906101000a900460ff1661068f576040517f08c379a000000000000000000000000000000000000000000000000000000000815260040161068690611679565b60405180910390fd5b6000600860009054906101000a900473ffffffffffffffffffffffffffffffffffffffff16905060008173ffffffffffffffffffffffffffffffffffffffff1663d9a87535856040518263ffffffff1660e01b81526004016106f19190611058565b602060405180830381865afa15801561070e573d6000803e3d6000fd5b505050506040513d601f19601f8201168201806040525081019061073291906116ae565b90506001811015610778576040517f08c379a000000000000000000000000000000000000000000000000000000000815260040161076f9061174d565b60405180910390fd5b6000600a60009054906101000a900473ffffffffffffffffffffffffffffffffffffffff1690508073ffffffffffffffffffffffffffffffffffffffff16639d58b15d86600a60009054906101000a900473ffffffffffffffffffffffffffffffffffffffff166040518363ffffffff1660e01b81526004016107fc92919061176d565b600060405180830381600087803b15801561081657600080fd5b505af115801561082a573d6000803e3d6000fd5b505050508273ffffffffffffffffffffffffffffffffffffffff16631292a282866040518263ffffffff1660e01b81526004016108679190611058565b600060405180830381600087803b15801561088157600080fd5b505af1158015610895573d6000803e3d6000fd5b505050506003859080600181540180825580915050600190039060005260206000200160009091909190916101000a81548173ffffffffffffffffffffffffffffffffffffffff021916908373ffffffffffffffffffffffffffffffffffffffff1602179055506001600460008773ffffffffffffffffffffffffffffffffffffffff1673ffffffffffffffffffffffffffffffffffffffff16815260200190815260200160002060006101000a81548160ff0219169083151502179055505050505050565b60046020528060005260406000206000915054906101000a900460ff1681565b606033600460008273ffffffffffffffffffffffffffffffffffffffff1673ffffffffffffffffffffffffffffffffffffffff16815260200190815260200160002060009054906101000a900460ff16610a0a576040517f08c379a0000000000000000000000000000000000000000000000000000000008152600401610a0190611679565b60405180910390fd5b6000600860009054906101000a900473ffffffffffffffffffffffffffffffffffffffff1690508073ffffffffffffffffffffffffffffffffffffffff1663455772d26040518163ffffffff1660e01b8152600401600060405180830381865afa158015610a7c573d6000803e3d6000fd5b505050506040513d6000823e3d601f19601f82011682018060405250810190610aa591906118e9565b9250505090565b60038181548110610abc57600080fd5b906000526020600020016000915054906101000a900473ffffffffffffffffffffffffffffffffffffffff1681565b60009392505050565b6000600380549050905090565b6000600660003373ffffffffffffffffffffffffffffffffffffffff1673ffffffffffffffffffffffffffffffffffffffff16815260200190815260200160002060009054906101000a900473ffffffffffffffffffffffffffffffffffffffff1690508073ffffffffffffffffffffffffffffffffffffffff168273ffffffffffffffffffffffffffffffffffffffff1603610bd3576040517f08c379a0000000000000000000000000000000000000000000000000000000008152600401610bca9061197e565b60405180910390fd5b6001600760008473ffffffffffffffffffffffffffffffffffffffff1673ffffffffffffffffffffffffffffffffffffffff1681526020019081526020016000206000828254610c2391906119cd565b9250508190555081600660003373ffffffffffffffffffffffffffffffffffffffff1673ffffffffffffffffffffffffffffffffffffffff16815260200190815260200160002060006101000a81548173ffffffffffffffffffffffffffffffffffffffff021916908373ffffffffffffffffffffffffffffffffffffffff1602179055507fe8ddfec65826b66ec8b03b89152bb70528fa2da92e9775cc99671b1fc7bcb0f433604051610cd79190611058565b60405180910390a15050565b60028054610cf0906115fc565b80601f0160208091040260200160405190810160405280929190818152602001828054610d1c906115fc565b8015610d695780601f10610d3e57610100808354040283529160200191610d69565b820191906000526020600020905b815481529060010190602001808311610d4c57829003601f168201915b505050505081565b6060919050565b606033600460008273ffffffffffffffffffffffffffffffffffffffff1673ffffffffffffffffffffffffffffffffffffffff16815260200190815260200160002060009054906101000a900460ff16610e07576040517f08c379a0000000000000000000000000000000000000000000000000000000008152600401610dfe90611679565b60405180910390fd5b5090565b6000600460008373ffffffffffffffffffffffffffffffffffffffff1673ffffffffffffffffffffffffffffffffffffffff16815260200190815260200160002060009054906101000a900460ff169050919050565b600860009054906101000a900473ffffffffffffffffffffffffffffffffffffffff1681565b60076020528060005260406000206000915090505481565b600a60009054906101000a900473ffffffffffffffffffffffffffffffffffffffff1681565b60018054610ed2906115fc565b80601f0160208091040260200160405190810160405280929190818152602001828054610efe906115fc565b8015610f4b5780601f10610f2057610100808354040283529160200191610f4b565b820191906000526020600020905b815481529060010190602001808311610f2e57829003601f168201915b505050505081565b33600460008273ffffffffffffffffffffffffffffffffffffffff1673ffffffffffffffffffffffffffffffffffffffff16815260200190815260200160002060009054906101000a900460ff16610fe0576040517f08c379a0000000000000000000000000000000000000000000000000000000008152600401610fd790611679565b60405180910390fd5b5050565b60066020528060005260406000206000915054906101000a900473ffffffffffffffffffffffffffffffffffffffff1681565b600073ffffffffffffffffffffffffffffffffffffffff82169050919050565b600061104282611017565b9050919050565b61105281611037565b82525050565b600060208201905061106d6000830184611049565b92915050565b600081519050919050565b600082825260208201905092915050565b60005b838110156110ad578082015181840152602081019050611092565b60008484015250505050565b6000601f19601f8301169050919050565b60006110d582611073565b6110df818561107e565b93506110ef81856020860161108f565b6110f8816110b9565b840191505092915050565b6000602082019050818103600083015261111d81846110ca565b905092915050565b6000604051905090565b600080fd5b600080fd5b6000819050919050565b61114c81611139565b811461115757600080fd5b50565b60008135905061116981611143565b92915050565b6000602082840312156111855761118461112f565b5b60006111938482850161115a565b91505092915050565b6111a581611037565b81146111b057600080fd5b50565b6000813590506111c28161119c565b92915050565b6000602082840312156111de576111dd61112f565b5b60006111ec848285016111b3565b91505092915050565b60008160030b9050919050565b61120b816111f5565b82525050565b60006020820190506112266000830184611202565b92915050565b600080fd5b600080fd5b600080fd5b60008083601f8401126112515761125061122c565b5b8235905067ffffffffffffffff81111561126e5761126d611231565b5b60208301915083600182028301111561128a57611289611236565b5b9250929050565b6000806000604084860312156112aa576112a961112f565b5b60006112b8868287016111b3565b935050602084013567ffffffffffffffff8111156112d9576112d8611134565b5b6112e58682870161123b565b92509250509250925092565b60008115159050919050565b611306816112f1565b82525050565b600060208201905061132160008301846112fd565b92915050565b600081519050919050565b600082825260208201905092915050565b6000819050602082019050919050565b61135c81611037565b82525050565b600061136e8383611353565b60208301905092915050565b6000602082019050919050565b600061139282611327565b61139c8185611332565b93506113a783611343565b8060005b838110156113d85781516113bf8882611362565b97506113ca8361137a565b9250506001810190506113ab565b5085935050505092915050565b600060208201905081810360008301526113ff8184611387565b905092915050565b600063ffffffff82169050919050565b61142081611407565b82525050565b600060208201905061143b6000830184611417565b92915050565b61144a81611139565b82525050565b60006020820190506114656000830184611441565b92915050565b600081519050919050565b600082825260208201905092915050565b6000819050602082019050919050565b600082825260208201905092915050565b60006114b382611073565b6114bd8185611497565b93506114cd81856020860161108f565b6114d6816110b9565b840191505092915050565b60006114ed83836114a8565b905092915050565b6000602082019050919050565b600061150d8261146b565b6115178185611476565b93508360208202850161152985611487565b8060005b85811015611565578484038952815161154685826114e1565b9450611551836114f5565b925060208a0199505060018101905061152d565b50829750879550505050505092915050565b600060208201905081810360008301526115918184611502565b905092915050565b6000819050919050565b6115ac81611599565b82525050565b60006020820190506115c760008301846115a3565b92915050565b7f4e487b7100000000000000000000000000000000000000000000000000000000600052602260045260246000fd5b6000600282049050600182168061161457607f821691505b602082108103611627576116266115cd565b5b50919050565b7f526571756972656420746f2062652061206d656d656265720000000000000000600082015250565b600061166360188361107e565b915061166e8261162d565b602082019050919050565b6000602082019050818103600083015261169281611656565b9050919050565b6000815190506116a881611143565b92915050565b6000602082840312156116c4576116c361112f565b5b60006116d284828501611699565b91505092915050565b7f496e76616c6964206e756d626572206f6620766f746573206f722070726f636560008201527f65642e0000000000000000000000000000000000000000000000000000000000602082015250565b600061173760238361107e565b9150611742826116db565b604082019050919050565b600060208201905081810360008301526117668161172a565b9050919050565b60006040820190506117826000830185611049565b61178f6020830184611049565b9392505050565b7f4e487b7100000000000000000000000000000000000000000000000000000000600052604160045260246000fd5b6117ce826110b9565b810181811067ffffffffffffffff821117156117ed576117ec611796565b5b80604052505050565b6000611800611125565b905061180c82826117c5565b919050565b600067ffffffffffffffff82111561182c5761182b611796565b5b602082029050602081019050919050565b60008151905061184c8161119c565b92915050565b600061186561186084611811565b6117f6565b9050808382526020820190506020840283018581111561188857611887611236565b5b835b818110156118b1578061189d888261183d565b84526020840193505060208101905061188a565b5050509392505050565b600082601f8301126118d0576118cf61122c565b5b81516118e0848260208601611852565b91505092915050565b6000602082840312156118ff576118fe61112f565b5b600082015167ffffffffffffffff81111561191d5761191c611134565b5b611929848285016118bb565b91505092915050565b7f416c726561647920766f74656400000000000000000000000000000000000000600082015250565b6000611968600d8361107e565b915061197382611932565b602082019050919050565b600060208201905081810360008301526119978161195b565b9050919050565b7f4e487b7100000000000000000000000000000000000000000000000000000000600052601160045260246000fd5b60006119d882611599565b91506119e383611599565b925082820190508281121560008312168382126000841215161715611a0b57611a0a61199e565b5b9291505056fea26469706673582212205cd0853e20fccf3046f334bdd6bc029a7e81dfd7e042c295aed2d9e1976a2c8864736f6c634300081100336080604052620f42406008553480156200001857600080fd5b50604051620020833803806200208383398181016040528101906200003e919062000132565b81600560006101000a81548173ffffffffffffffffffffffffffffffffffffffff021916908373ffffffffffffffffffffffffffffffffffffffff16021790555080600660006101000a81548173ffffffffffffffffffffffffffffffffffffffff021916908373ffffffffffffffffffffffffffffffffffffffff160217905550505062000179565b600080fd5b600073ffffffffffffffffffffffffffffffffffffffff82169050919050565b6000620000fa82620000cd565b9050919050565b6200010c81620000ed565b81146200011857600080fd5b50565b6000815190506200012c8162000101565b92915050565b600080604083850312156200014c576200014b620000c8565b5b60006200015c858286016200011b565b92505060206200016f858286016200011b565b9150509250929050565b611efa80620001896000396000f3fe60806040526004361061009b5760003560e01c80638c468cd4116100645780638c468cd414610183578063930235b4146101c0578063a10c8a97146101eb578063b69ef8a814610216578063d9a8753514610241578063fd5919021461027e5761009b565b8062ad808f146100a05780631292a282146100dd578063273f868e1461010657806328f4694c1461012f578063455772d214610158575b600080fd5b3480156100ac57600080fd5b506100c760048036038101906100c291906112ca565b61029a565b6040516100d49190611387565b60405180910390f35b3480156100e957600080fd5b5061010460048036038101906100ff91906112ca565b61046c565b005b34801561011257600080fd5b5061012d600480360381019061012891906112ca565b610555565b005b34801561013b57600080fd5b50610156600480360381019061015191906112ca565b610779565b005b34801561016457600080fd5b5061016d610b57565b60405161017a9190611467565b60405180910390f35b34801561018f57600080fd5b506101aa60048036038101906101a591906114bf565b610c77565b6040516101b791906114fb565b60405180910390f35b3480156101cc57600080fd5b506101d5610cb6565b6040516101e291906114fb565b60405180910390f35b3480156101f757600080fd5b50610200610cdc565b60405161020d9190611525565b60405180910390f35b34801561022257600080fd5b5061022b610ce2565b6040516102389190611525565b60405180910390f35b34801561024d57600080fd5b50610268600480360381019061026391906112ca565b610ce8565b6040516102759190611525565b60405180910390f35b610298600480360381019061029391906115a5565b610d34565b005b606033600560009054906101000a900473ffffffffffffffffffffffffffffffffffffffff1673ffffffffffffffffffffffffffffffffffffffff166339ac7a0882600660009054906101000a900473ffffffffffffffffffffffffffffffffffffffff166040518363ffffffff1660e01b815260040161031c9291906115f2565b602060405180830381865afa158015610339573d6000803e3d6000fd5b505050506040513d601f19601f8201168201806040525081019061035d9190611653565b61039c576040517f08c379a0000000000000000000000000000000000000000000000000000000008152600401610393906116cc565b60405180910390fd5b600460008473ffffffffffffffffffffffffffffffffffffffff1673ffffffffffffffffffffffffffffffffffffffff16815260200190815260200160002080546103e69061171b565b80601f01602080910402602001604051908101604052809291908181526020018280546104129061171b565b801561045f5780601f106104345761010080835404028352916020019161045f565b820191906000526020600020905b81548152906001019060200180831161044257829003601f168201915b5050505050915050919050565b33600660009054906101000a900473ffffffffffffffffffffffffffffffffffffffff1673ffffffffffffffffffffffffffffffffffffffff168173ffffffffffffffffffffffffffffffffffffffff16146104fd576040517f08c379a00000000000000000000000000000000000000000000000000000000081526004016104f490611798565b60405180910390fd5b61050682611098565b600160003373ffffffffffffffffffffffffffffffffffffffff1673ffffffffffffffffffffffffffffffffffffffff16815260200190815260200160002060006105519190611224565b5050565b33600660009054906101000a900473ffffffffffffffffffffffffffffffffffffffff1673ffffffffffffffffffffffffffffffffffffffff168173ffffffffffffffffffffffffffffffffffffffff16146105e6576040517f08c379a00000000000000000000000000000000000000000000000000000000081526004016105dd90611798565b60405180910390fd5b600360008373ffffffffffffffffffffffffffffffffffffffff1673ffffffffffffffffffffffffffffffffffffffff16815260200190815260200160002060009054906101000a900460ff16610672576040517f08c379a000000000000000000000000000000000000000000000000000000000815260040161066990611804565b60405180910390fd5b6000600360008473ffffffffffffffffffffffffffffffffffffffff1673ffffffffffffffffffffffffffffffffffffffff16815260200190815260200160002060006101000a81548160ff0219169083151502179055506001600260003373ffffffffffffffffffffffffffffffffffffffff1673ffffffffffffffffffffffffffffffffffffffff168152602001908152602001600020600082825461071a919061185d565b9250508190555061072a82611098565b600160003373ffffffffffffffffffffffffffffffffffffffff1673ffffffffffffffffffffffffffffffffffffffff16815260200190815260200160002060006107759190611224565b5050565b33600560009054906101000a900473ffffffffffffffffffffffffffffffffffffffff1673ffffffffffffffffffffffffffffffffffffffff166339ac7a0882600660009054906101000a900473ffffffffffffffffffffffffffffffffffffffff166040518363ffffffff1660e01b81526004016107f99291906115f2565b602060405180830381865afa158015610816573d6000803e3d6000fd5b505050506040513d601f19601f8201168201806040525081019061083a9190611653565b610879576040517f08c379a0000000000000000000000000000000000000000000000000000000008152600401610870906116cc565b60405180910390fd5b600360008373ffffffffffffffffffffffffffffffffffffffff1673ffffffffffffffffffffffffffffffffffffffff16815260200190815260200160002060009054906101000a900460ff16610905576040517f08c379a00000000000000000000000000000000000000000000000000000000081526004016108fc906118ec565b60405180910390fd5b6000805b600160008573ffffffffffffffffffffffffffffffffffffffff1673ffffffffffffffffffffffffffffffffffffffff16815260200190815260200160002080549050811015610a19573373ffffffffffffffffffffffffffffffffffffffff16600160008673ffffffffffffffffffffffffffffffffffffffff1673ffffffffffffffffffffffffffffffffffffffff16815260200190815260200160002082815481106109bb576109ba61190c565b5b9060005260206000200160009054906101000a900473ffffffffffffffffffffffffffffffffffffffff1673ffffffffffffffffffffffffffffffffffffffff1603610a0657600191505b8080610a119061193b565b915050610909565b508015610a5b576040517f08c379a0000000000000000000000000000000000000000000000000000000008152600401610a52906119cf565b60405180910390fd5b600160008473ffffffffffffffffffffffffffffffffffffffff1673ffffffffffffffffffffffffffffffffffffffff168152602001908152602001600020339080600181540180825580915050600190039060005260206000200160009091909190916101000a81548173ffffffffffffffffffffffffffffffffffffffff021916908373ffffffffffffffffffffffffffffffffffffffff1602179055506001600260008573ffffffffffffffffffffffffffffffffffffffff1673ffffffffffffffffffffffffffffffffffffffff1681526020019081526020016000206000828254610b4b91906119ef565b92505081905550505050565b606033600660009054906101000a900473ffffffffffffffffffffffffffffffffffffffff1673ffffffffffffffffffffffffffffffffffffffff168173ffffffffffffffffffffffffffffffffffffffff1614610bea576040517f08c379a0000000000000000000000000000000000000000000000000000000008152600401610be190611798565b60405180910390fd5b6000805480602002602001604051908101604052809291908181526020018280548015610c6c57602002820191906000526020600020905b8160009054906101000a900473ffffffffffffffffffffffffffffffffffffffff1673ffffffffffffffffffffffffffffffffffffffff1681526020019060010190808311610c22575b505050505091505090565b60008181548110610c8757600080fd5b906000526020600020016000915054906101000a900473ffffffffffffffffffffffffffffffffffffffff1681565b600660009054906101000a900473ffffffffffffffffffffffffffffffffffffffff1681565b60085481565b60075481565b6000600160008373ffffffffffffffffffffffffffffffffffffffff1673ffffffffffffffffffffffffffffffffffffffff168152602001908152602001600020805490509050919050565b600560009054906101000a900473ffffffffffffffffffffffffffffffffffffffff1673ffffffffffffffffffffffffffffffffffffffff166339ac7a0833600660009054906101000a900473ffffffffffffffffffffffffffffffffffffffff166040518363ffffffff1660e01b8152600401610db39291906115f2565b602060405180830381865afa158015610dd0573d6000803e3d6000fd5b505050506040513d601f19601f82011682018060405250810190610df49190611653565b15610e34576040517f08c379a0000000000000000000000000000000000000000000000000000000008152600401610e2b90611a7f565b60405180910390fd5b600360003373ffffffffffffffffffffffffffffffffffffffff1673ffffffffffffffffffffffffffffffffffffffff16815260200190815260200160002060009054906101000a900460ff1615610ec1576040517f08c379a0000000000000000000000000000000000000000000000000000000008152600401610eb890611aeb565b60405180910390fd5b7ffffffffffffffffffffffffffffffffffffffffffffffffffffffffffffffffd600260003373ffffffffffffffffffffffffffffffffffffffff1673ffffffffffffffffffffffffffffffffffffffff1681526020019081526020016000205413610f62576040517f08c379a0000000000000000000000000000000000000000000000000000000008152600401610f5990611b57565b60405180910390fd5b600854341015610f7157600080fd5b3460076000828254610f839190611b77565b925050819055508181600460003373ffffffffffffffffffffffffffffffffffffffff1673ffffffffffffffffffffffffffffffffffffffff1681526020019081526020016000209182610fd8929190611d91565b506001600360003373ffffffffffffffffffffffffffffffffffffffff1673ffffffffffffffffffffffffffffffffffffffff16815260200190815260200160002060006101000a81548160ff0219169083151502179055506000339080600181540180825580915050600190039060005260206000200160009091909190916101000a81548173ffffffffffffffffffffffffffffffffffffffff021916908373ffffffffffffffffffffffffffffffffffffffff1602179055505050565b60005b60008054905081101561112d578173ffffffffffffffffffffffffffffffffffffffff16600082815481106110d3576110d261190c565b5b9060005260206000200160009054906101000a900473ffffffffffffffffffffffffffffffffffffffff1673ffffffffffffffffffffffffffffffffffffffff16031561112d5780806111259061193b565b91505061109b565b600060016000805490506111419190611e61565b815481106111525761115161190c565b5b9060005260206000200160009054906101000a900473ffffffffffffffffffffffffffffffffffffffff16600082815481106111915761119061190c565b5b9060005260206000200160006101000a81548173ffffffffffffffffffffffffffffffffffffffff021916908373ffffffffffffffffffffffffffffffffffffffff16021790555060008054806111eb576111ea611e95565b5b6001900381819060005260206000200160006101000a81549073ffffffffffffffffffffffffffffffffffffffff021916905590555050565b50805460008255906000526020600020908101906112429190611245565b50565b5b8082111561125e576000816000905550600101611246565b5090565b600080fd5b600080fd5b600073ffffffffffffffffffffffffffffffffffffffff82169050919050565b60006112978261126c565b9050919050565b6112a78161128c565b81146112b257600080fd5b50565b6000813590506112c48161129e565b92915050565b6000602082840312156112e0576112df611262565b5b60006112ee848285016112b5565b91505092915050565b600081519050919050565b600082825260208201905092915050565b60005b83811015611331578082015181840152602081019050611316565b60008484015250505050565b6000601f19601f8301169050919050565b6000611359826112f7565b6113638185611302565b9350611373818560208601611313565b61137c8161133d565b840191505092915050565b600060208201905081810360008301526113a1818461134e565b905092915050565b600081519050919050565b600082825260208201905092915050565b6000819050602082019050919050565b6113de8161128c565b82525050565b60006113f083836113d5565b60208301905092915050565b6000602082019050919050565b6000611414826113a9565b61141e81856113b4565b9350611429836113c5565b8060005b8381101561145a57815161144188826113e4565b975061144c836113fc565b92505060018101905061142d565b5085935050505092915050565b600060208201905081810360008301526114818184611409565b905092915050565b6000819050919050565b61149c81611489565b81146114a757600080fd5b50565b6000813590506114b981611493565b92915050565b6000602082840312156114d5576114d4611262565b5b60006114e3848285016114aa565b91505092915050565b6114f58161128c565b82525050565b600060208201905061151060008301846114ec565b92915050565b61151f81611489565b82525050565b600060208201905061153a6000830184611516565b92915050565b600080fd5b600080fd5b600080fd5b60008083601f84011261156557611564611540565b5b8235905067ffffffffffffffff81111561158257611581611545565b5b60208301915083600182028301111561159e5761159d61154a565b5b9250929050565b600080602083850312156115bc576115bb611262565b5b600083013567ffffffffffffffff8111156115da576115d9611267565b5b6115e68582860161154f565b92509250509250929050565b600060408201905061160760008301856114ec565b61161460208301846114ec565b9392505050565b60008115159050919050565b6116308161161b565b811461163b57600080fd5b50565b60008151905061164d81611627565b92915050565b60006020828403121561166957611668611262565b5b60006116778482850161163e565b91505092915050565b7f526571756972656420746f2062652061206d656d656265720000000000000000600082015250565b60006116b6601883611302565b91506116c182611680565b602082019050919050565b600060208201905081810360008301526116e5816116a9565b9050919050565b7f4e487b7100000000000000000000000000000000000000000000000000000000600052602260045260246000fd5b6000600282049050600182168061173357607f821691505b602082108103611746576117456116ec565b5b50919050565b7f4163636573732044656e69656400000000000000000000000000000000000000600082015250565b6000611782600d83611302565b915061178d8261174c565b602082019050919050565b600060208201905081810360008301526117b181611775565b9050919050565b7f496e76616c6964206170706c6963616e74206164647265737300000000000000600082015250565b60006117ee601983611302565b91506117f9826117b8565b602082019050919050565b6000602082019050818103600083015261181d816117e1565b9050919050565b6000819050919050565b7f4e487b7100000000000000000000000000000000000000000000000000000000600052601160045260246000fd5b600061186882611824565b915061187383611824565b925082820390508181126000841216828213600085121516171561189a5761189961182e565b5b92915050565b7f4e6f742061206170706c6963616e740000000000000000000000000000000000600082015250565b60006118d6600f83611302565b91506118e1826118a0565b602082019050919050565b60006020820190508181036000830152611905816118c9565b9050919050565b7f4e487b7100000000000000000000000000000000000000000000000000000000600052603260045260246000fd5b600061194682611489565b91507fffffffffffffffffffffffffffffffffffffffffffffffffffffffffffffffff82036119785761197761182e565b5b600182019050919050565b7f53656e64657220616c726561647920766f746564000000000000000000000000600082015250565b60006119b9601483611302565b91506119c482611983565b602082019050919050565b600060208201905081810360008301526119e8816119ac565b9050919050565b60006119fa82611824565b9150611a0583611824565b925082820190508281121560008312168382126000841215161715611a2d57611a2c61182e565b5b92915050565b7f416c726561647920616374697665206d656d6265720000000000000000000000600082015250565b6000611a69601583611302565b9150611a7482611a33565b602082019050919050565b60006020820190508181036000830152611a9881611a5c565b9050919050565b7f416c726561647920616374697665206170706c6963616e740000000000000000600082015250565b6000611ad5601883611302565b9150611ae082611a9f565b602082019050919050565b60006020820190508181036000830152611b0481611ac8565b9050919050565b7f6163636f756e742072656a656374656400000000000000000000000000000000600082015250565b6000611b41601083611302565b9150611b4c82611b0b565b602082019050919050565b60006020820190508181036000830152611b7081611b34565b9050919050565b6000611b8282611489565b9150611b8d83611489565b9250828201905080821115611ba557611ba461182e565b5b92915050565b600082905092915050565b7f4e487b7100000000000000000000000000000000000000000000000000000000600052604160045260246000fd5b60008190508160005260206000209050919050565b60006020601f8301049050919050565b600082821b905092915050565b600060088302611c477fffffffffffffffffffffffffffffffffffffffffffffffffffffffffffffffff82611c0a565b611c518683611c0a565b95508019841693508086168417925050509392505050565b6000819050919050565b6000611c8e611c89611c8484611489565b611c69565b611489565b9050919050565b6000819050919050565b611ca883611c73565b611cbc611cb482611c95565b848454611c17565b825550505050565b600090565b611cd1611cc4565b611cdc818484611c9f565b505050565b5b81811015611d0057611cf5600082611cc9565b600181019050611ce2565b5050565b601f821115611d4557611d1681611be5565b611d1f84611bfa565b81016020851015611d2e578190505b611d42611d3a85611bfa565b830182611ce1565b50505b505050565b600082821c905092915050565b6000611d6860001984600802611d4a565b1980831691505092915050565b6000611d818383611d57565b9150826002028217905092915050565b611d9b8383611bab565b67ffffffffffffffff811115611db457611db3611bb6565b5b611dbe825461171b565b611dc9828285611d04565b6000601f831160018114611df85760008415611de6578287013590505b611df08582611d75565b865550611e58565b601f198416611e0686611be5565b60005b82811015611e2e57848901358255600182019150602085019450602081019050611e09565b86831015611e4b5784890135611e47601f891682611d57565b8355505b6001600288020188555050505b50505050505050565b6000611e6c82611489565b9150611e7783611489565b9250828203905081811115611e8f57611e8e61182e565b5b92915050565b7f4e487b7100000000000000000000000000000000000000000000000000000000600052603160045260246000fdfea264697066735822122012def43ba85031e34b2340c4af5eddcdd6aecc6ec2bdf3ed9887ade3fb20d86464736f6c63430008110033","opcodes":"PUSH1 0x80 PUSH1 0x40 MSTORE CALLVALUE DUP1 ISZERO PUSH3 0x11 JUMPI PUSH1 0x0 DUP1 REVERT JUMPDEST POP PUSH1 0x40 MLOAD PUSH3 0x4319 CODESIZE SUB DUP1 PUSH3 0x4319 DUP4 CODECOPY DUP2 DUP2 ADD PUSH1 0x40 MSTORE DUP2 ADD SWAP1 PUSH3 0x37 SWAP2 SWAP1 PUSH3 0x454 JUMP JUMPDEST DUP3 PUSH1 0x9 PUSH1 0x0 PUSH2 0x100 EXP DUP2 SLOAD DUP2 PUSH20 0xFFFFFFFFFFFFFFFFFFFFFFFFFFFFFFFFFFFFFFFF MUL NOT AND SWAP1 DUP4 PUSH20 0xFFFFFFFFFFFFFFFFFFFFFFFFFFFFFFFFFFFFFFFF AND MUL OR SWAP1 SSTORE POP DUP2 PUSH1 0x0 SWAP1 DUP2 PUSH3 0x89 SWAP2 SWAP1 PUSH3 0x71A JUMP JUMPDEST POP DUP1 ADDRESS PUSH1 0x40 MLOAD PUSH3 0x9A SWAP1 PUSH3 0x24E JUMP JUMPDEST PUSH3 0xA7 SWAP3 SWAP2 SWAP1 PUSH3 0x812 JUMP JUMPDEST PUSH1 0x40 MLOAD DUP1 SWAP2 SUB SWAP1 PUSH1 0x0 CREATE DUP1 ISZERO DUP1 ISZERO PUSH3 0xC4 JUMPI RETURNDATASIZE PUSH1 0x0 DUP1 RETURNDATACOPY RETURNDATASIZE PUSH1 0x0 REVERT JUMPDEST POP PUSH1 0x8 PUSH1 0x0 PUSH2 0x100 EXP DUP2 SLOAD DUP2 PUSH20 0xFFFFFFFFFFFFFFFFFFFFFFFFFFFFFFFFFFFFFFFF MUL NOT AND SWAP1 DUP4 PUSH20 0xFFFFFFFFFFFFFFFFFFFFFFFFFFFFFFFFFFFFFFFF AND MUL OR SWAP1 SSTORE POP PUSH1 0x1 PUSH1 0x4 PUSH1 0x0 PUSH1 0x9 PUSH1 0x0 SWAP1 SLOAD SWAP1 PUSH2 0x100 EXP SWAP1 DIV PUSH20 0xFFFFFFFFFFFFFFFFFFFFFFFFFFFFFFFFFFFFFFFF AND PUSH20 0xFFFFFFFFFFFFFFFFFFFFFFFFFFFFFFFFFFFFFFFF AND PUSH20 0xFFFFFFFFFFFFFFFFFFFFFFFFFFFFFFFFFFFFFFFF AND DUP2 MSTORE PUSH1 0x20 ADD SWAP1 DUP2 MSTORE PUSH1 0x20 ADD PUSH1 0x0 KECCAK256 PUSH1 0x0 PUSH2 0x100 EXP DUP2 SLOAD DUP2 PUSH1 0xFF MUL NOT AND SWAP1 DUP4 ISZERO ISZERO MUL OR SWAP1 SSTORE POP PUSH1 0x3 PUSH1 0x9 PUSH1 0x0 SWAP1 SLOAD SWAP1 PUSH2 0x100 EXP SWAP1 DIV PUSH20 0xFFFFFFFFFFFFFFFFFFFFFFFFFFFFFFFFFFFFFFFF AND SWAP1 DUP1 PUSH1 0x1 DUP2 SLOAD ADD DUP1 DUP3 SSTORE DUP1 SWAP2 POP POP PUSH1 0x1 SWAP1 SUB SWAP1 PUSH1 0x0 MSTORE PUSH1 0x20 PUSH1 0x0 KECCAK256 ADD PUSH1 0x0 SWAP1 SWAP2 SWAP1 SWAP2 SWAP1 SWAP2 PUSH2 0x100 EXP DUP2 SLOAD DUP2 PUSH20 0xFFFFFFFFFFFFFFFFFFFFFFFFFFFFFFFFFFFFFFFF MUL NOT AND SWAP1 DUP4 PUSH20 0xFFFFFFFFFFFFFFFFFFFFFFFFFFFFFFFFFFFFFFFF AND MUL OR SWAP1 SSTORE POP DUP1 PUSH1 0xA PUSH1 0x0 PUSH2 0x100 EXP DUP2 SLOAD DUP2 PUSH20 0xFFFFFFFFFFFFFFFFFFFFFFFFFFFFFFFFFFFFFFFF MUL NOT AND SWAP1 DUP4 PUSH20 0xFFFFFFFFFFFFFFFFFFFFFFFFFFFFFFFFFFFFFFFF AND MUL OR SWAP1 SSTORE POP POP POP POP PUSH3 0x83F JUMP JUMPDEST PUSH2 0x2083 DUP1 PUSH3 0x2296 DUP4 CODECOPY ADD SWAP1 JUMP JUMPDEST PUSH1 0x0 PUSH1 0x40 MLOAD SWAP1 POP SWAP1 JUMP JUMPDEST PUSH1 0x0 DUP1 REVERT JUMPDEST PUSH1 0x0 DUP1 REVERT JUMPDEST PUSH1 0x0 PUSH20 0xFFFFFFFFFFFFFFFFFFFFFFFFFFFFFFFFFFFFFFFF DUP3 AND SWAP1 POP SWAP2 SWAP1 POP JUMP JUMPDEST PUSH1 0x0 PUSH3 0x29D DUP3 PUSH3 0x270 JUMP JUMPDEST SWAP1 POP SWAP2 SWAP1 POP JUMP JUMPDEST PUSH3 0x2AF DUP2 PUSH3 0x290 JUMP JUMPDEST DUP2 EQ PUSH3 0x2BB JUMPI PUSH1 0x0 DUP1 REVERT JUMPDEST POP JUMP JUMPDEST PUSH1 0x0 DUP2 MLOAD SWAP1 POP PUSH3 0x2CF DUP2 PUSH3 0x2A4 JUMP JUMPDEST SWAP3 SWAP2 POP POP JUMP JUMPDEST PUSH1 0x0 DUP1 REVERT JUMPDEST PUSH1 0x0 DUP1 REVERT JUMPDEST PUSH1 0x0 PUSH1 0x1F NOT PUSH1 0x1F DUP4 ADD AND SWAP1 POP SWAP2 SWAP1 POP JUMP JUMPDEST PUSH32 0x4E487B7100000000000000000000000000000000000000000000000000000000 PUSH1 0x0 MSTORE PUSH1 0x41 PUSH1 0x4 MSTORE PUSH1 0x24 PUSH1 0x0 REVERT JUMPDEST PUSH3 0x32A DUP3 PUSH3 0x2DF JUMP JUMPDEST DUP2 ADD DUP2 DUP2 LT PUSH8 0xFFFFFFFFFFFFFFFF DUP3 GT OR ISZERO PUSH3 0x34C JUMPI PUSH3 0x34B PUSH3 0x2F0 JUMP JUMPDEST JUMPDEST DUP1 PUSH1 0x40 MSTORE POP POP POP JUMP JUMPDEST PUSH1 0x0 PUSH3 0x361 PUSH3 0x25C JUMP JUMPDEST SWAP1 POP PUSH3 0x36F DUP3 DUP3 PUSH3 0x31F JUMP JUMPDEST SWAP2 SWAP1 POP JUMP JUMPDEST PUSH1 0x0 PUSH8 0xFFFFFFFFFFFFFFFF DUP3 GT ISZERO PUSH3 0x392 JUMPI PUSH3 0x391 PUSH3 0x2F0 JUMP JUMPDEST JUMPDEST PUSH3 0x39D DUP3 PUSH3 0x2DF JUMP JUMPDEST SWAP1 POP PUSH1 0x20 DUP2 ADD SWAP1 POP SWAP2 SWAP1 POP JUMP JUMPDEST PUSH1 0x0 JUMPDEST DUP4 DUP2 LT ISZERO PUSH3 0x3CA JUMPI DUP1 DUP3 ADD MLOAD DUP2 DUP5 ADD MSTORE PUSH1 0x20 DUP2 ADD SWAP1 POP PUSH3 0x3AD JUMP JUMPDEST PUSH1 0x0 DUP5 DUP5 ADD MSTORE POP POP POP POP JUMP JUMPDEST PUSH1 0x0 PUSH3 0x3ED PUSH3 0x3E7 DUP5 PUSH3 0x374 JUMP JUMPDEST PUSH3 0x355 JUMP JUMPDEST SWAP1 POP DUP3 DUP2 MSTORE PUSH1 0x20 DUP2 ADD DUP5 DUP5 DUP5 ADD GT ISZERO PUSH3 0x40C JUMPI PUSH3 0x40B PUSH3 0x2DA JUMP JUMPDEST JUMPDEST PUSH3 0x419 DUP5 DUP3 DUP6 PUSH3 0x3AA JUMP JUMPDEST POP SWAP4 SWAP3 POP POP POP JUMP JUMPDEST PUSH1 0x0 DUP3 PUSH1 0x1F DUP4 ADD SLT PUSH3 0x439 JUMPI PUSH3 0x438 PUSH3 0x2D5 JUMP JUMPDEST JUMPDEST DUP2 MLOAD PUSH3 0x44B DUP5 DUP3 PUSH1 0x20 DUP7 ADD PUSH3 0x3D6 JUMP JUMPDEST SWAP2 POP POP SWAP3 SWAP2 POP POP JUMP JUMPDEST PUSH1 0x0 DUP1 PUSH1 0x0 PUSH1 0x60 DUP5 DUP7 SUB SLT ISZERO PUSH3 0x470 JUMPI PUSH3 0x46F PUSH3 0x266 JUMP JUMPDEST JUMPDEST PUSH1 0x0 PUSH3 0x480 DUP7 DUP3 DUP8 ADD PUSH3 0x2BE JUMP JUMPDEST SWAP4 POP POP PUSH1 0x20 DUP5 ADD MLOAD PUSH8 0xFFFFFFFFFFFFFFFF DUP2 GT ISZERO PUSH3 0x4A4 JUMPI PUSH3 0x4A3 PUSH3 0x26B JUMP JUMPDEST JUMPDEST PUSH3 0x4B2 DUP7 DUP3 DUP8 ADD PUSH3 0x421 JUMP JUMPDEST SWAP3 POP POP PUSH1 0x40 PUSH3 0x4C5 DUP7 DUP3 DUP8 ADD PUSH3 0x2BE JUMP JUMPDEST SWAP2 POP POP SWAP3 POP SWAP3 POP SWAP3 JUMP JUMPDEST PUSH1 0x0 DUP2 MLOAD SWAP1 POP SWAP2 SWAP1 POP JUMP JUMPDEST PUSH32 0x4E487B7100000000000000000000000000000000000000000000000000000000 PUSH1 0x0 MSTORE PUSH1 0x22 PUSH1 0x4 MSTORE PUSH1 0x24 PUSH1 0x0 REVERT JUMPDEST PUSH1 0x0 PUSH1 0x2 DUP3 DIV SWAP1 POP PUSH1 0x1 DUP3 AND DUP1 PUSH3 0x522 JUMPI PUSH1 0x7F DUP3 AND SWAP2 POP JUMPDEST PUSH1 0x20 DUP3 LT DUP2 SUB PUSH3 0x538 JUMPI PUSH3 0x537 PUSH3 0x4DA JUMP JUMPDEST JUMPDEST POP SWAP2 SWAP1 POP JUMP JUMPDEST PUSH1 0x0 DUP2 SWAP1 POP DUP2 PUSH1 0x0 MSTORE PUSH1 0x20 PUSH1 0x0 KECCAK256 SWAP1 POP SWAP2 SWAP1 POP JUMP JUMPDEST PUSH1 0x0 PUSH1 0x20 PUSH1 0x1F DUP4 ADD DIV SWAP1 POP SWAP2 SWAP1 POP JUMP JUMPDEST PUSH1 0x0 DUP3 DUP3 SHL SWAP1 POP SWAP3 SWAP2 POP POP JUMP JUMPDEST PUSH1 0x0 PUSH1 0x8 DUP4 MUL PUSH3 0x5A2 PUSH32 0xFFFFFFFFFFFFFFFFFFFFFFFFFFFFFFFFFFFFFFFFFFFFFFFFFFFFFFFFFFFFFFFF DUP3 PUSH3 0x563 JUMP JUMPDEST PUSH3 0x5AE DUP7 DUP4 PUSH3 0x563 JUMP JUMPDEST SWAP6 POP DUP1 NOT DUP5 AND SWAP4 POP DUP1 DUP7 AND DUP5 OR SWAP3 POP POP POP SWAP4 SWAP3 POP POP POP JUMP JUMPDEST PUSH1 0x0 DUP2 SWAP1 POP SWAP2 SWAP1 POP JUMP JUMPDEST PUSH1 0x0 DUP2 SWAP1 POP SWAP2 SWAP1 POP JUMP JUMPDEST PUSH1 0x0 PUSH3 0x5FB PUSH3 0x5F5 PUSH3 0x5EF DUP5 PUSH3 0x5C6 JUMP JUMPDEST PUSH3 0x5D0 JUMP JUMPDEST PUSH3 0x5C6 JUMP JUMPDEST SWAP1 POP SWAP2 SWAP1 POP JUMP JUMPDEST PUSH1 0x0 DUP2 SWAP1 POP SWAP2 SWAP1 POP JUMP JUMPDEST PUSH3 0x617 DUP4 PUSH3 0x5DA JUMP JUMPDEST PUSH3 0x62F PUSH3 0x626 DUP3 PUSH3 0x602 JUMP JUMPDEST DUP5 DUP5 SLOAD PUSH3 0x570 JUMP JUMPDEST DUP3 SSTORE POP POP POP POP JUMP JUMPDEST PUSH1 0x0 SWAP1 JUMP JUMPDEST PUSH3 0x646 PUSH3 0x637 JUMP JUMPDEST PUSH3 0x653 DUP2 DUP5 DUP5 PUSH3 0x60C JUMP JUMPDEST POP POP POP JUMP JUMPDEST JUMPDEST DUP2 DUP2 LT ISZERO PUSH3 0x67B JUMPI PUSH3 0x66F PUSH1 0x0 DUP3 PUSH3 0x63C JUMP JUMPDEST PUSH1 0x1 DUP2 ADD SWAP1 POP PUSH3 0x659 JUMP JUMPDEST POP POP JUMP JUMPDEST PUSH1 0x1F DUP3 GT ISZERO PUSH3 0x6CA JUMPI PUSH3 0x694 DUP2 PUSH3 0x53E JUMP JUMPDEST PUSH3 0x69F DUP5 PUSH3 0x553 JUMP JUMPDEST DUP2 ADD PUSH1 0x20 DUP6 LT ISZERO PUSH3 0x6AF JUMPI DUP2 SWAP1 POP JUMPDEST PUSH3 0x6C7 PUSH3 0x6BE DUP6 PUSH3 0x553 JUMP JUMPDEST DUP4 ADD DUP3 PUSH3 0x658 JUMP JUMPDEST POP POP JUMPDEST POP POP POP JUMP JUMPDEST PUSH1 0x0 DUP3 DUP3 SHR SWAP1 POP SWAP3 SWAP2 POP POP JUMP JUMPDEST PUSH1 0x0 PUSH3 0x6EF PUSH1 0x0 NOT DUP5 PUSH1 0x8 MUL PUSH3 0x6CF JUMP JUMPDEST NOT DUP1 DUP4 AND SWAP2 POP POP SWAP3 SWAP2 POP POP JUMP JUMPDEST PUSH1 0x0 PUSH3 0x70A DUP4 DUP4 PUSH3 0x6DC JUMP JUMPDEST SWAP2 POP DUP3 PUSH1 0x2 MUL DUP3 OR SWAP1 POP SWAP3 SWAP2 POP POP JUMP JUMPDEST PUSH3 0x725 DUP3 PUSH3 0x4CF JUMP JUMPDEST PUSH8 0xFFFFFFFFFFFFFFFF DUP2 GT ISZERO PUSH3 0x741 JUMPI PUSH3 0x740 PUSH3 0x2F0 JUMP JUMPDEST JUMPDEST PUSH3 0x74D DUP3 SLOAD PUSH3 0x509 JUMP JUMPDEST PUSH3 0x75A DUP3 DUP3 DUP6 PUSH3 0x67F JUMP JUMPDEST PUSH1 0x0 PUSH1 0x20 SWAP1 POP PUSH1 0x1F DUP4 GT PUSH1 0x1 DUP2 EQ PUSH3 0x792 JUMPI PUSH1 0x0 DUP5 ISZERO PUSH3 0x77D JUMPI DUP3 DUP8 ADD MLOAD SWAP1 POP JUMPDEST PUSH3 0x789 DUP6 DUP3 PUSH3 0x6FC JUMP JUMPDEST DUP7 SSTORE POP PUSH3 0x7F9 JUMP JUMPDEST PUSH1 0x1F NOT DUP5 AND PUSH3 0x7A2 DUP7 PUSH3 0x53E JUMP JUMPDEST PUSH1 0x0 JUMPDEST DUP3 DUP2 LT ISZERO PUSH3 0x7CC JUMPI DUP5 DUP10 ADD MLOAD DUP3 SSTORE PUSH1 0x1 DUP3 ADD SWAP2 POP PUSH1 0x20 DUP6 ADD SWAP5 POP PUSH1 0x20 DUP2 ADD SWAP1 POP PUSH3 0x7A5 JUMP JUMPDEST DUP7 DUP4 LT ISZERO PUSH3 0x7EC JUMPI DUP5 DUP10 ADD MLOAD PUSH3 0x7E8 PUSH1 0x1F DUP10 AND DUP3 PUSH3 0x6DC JUMP JUMPDEST DUP4 SSTORE POP JUMPDEST PUSH1 0x1 PUSH1 0x2 DUP9 MUL ADD DUP9 SSTORE POP POP POP JUMPDEST POP POP POP POP POP POP JUMP JUMPDEST PUSH3 0x80C DUP2 PUSH3 0x290 JUMP JUMPDEST DUP3 MSTORE POP POP JUMP JUMPDEST PUSH1 0x0 PUSH1 0x40 DUP3 ADD SWAP1 POP PUSH3 0x829 PUSH1 0x0 DUP4 ADD DUP6 PUSH3 0x801 JUMP JUMPDEST PUSH3 0x838 PUSH1 0x20 DUP4 ADD DUP5 PUSH3 0x801 JUMP JUMPDEST SWAP4 SWAP3 POP POP POP JUMP JUMPDEST PUSH2 0x1A47 DUP1 PUSH3 0x84F PUSH1 0x0 CODECOPY PUSH1 0x0 RETURN INVALID PUSH1 0x80 PUSH1 0x40 MSTORE CALLVALUE DUP1 ISZERO PUSH2 0x10 JUMPI PUSH1 0x0 DUP1 REVERT JUMPDEST POP PUSH1 0x4 CALLDATASIZE LT PUSH2 0x142 JUMPI PUSH1 0x0 CALLDATALOAD PUSH1 0xE0 SHR DUP1 PUSH4 0x9A4D383E GT PUSH2 0xB8 JUMPI DUP1 PUSH4 0xAF1FCA09 GT PUSH2 0x7C JUMPI DUP1 PUSH4 0xAF1FCA09 EQ PUSH2 0x39F JUMPI DUP1 PUSH4 0xB3253F13 EQ PUSH2 0x3BD JUMPI DUP1 PUSH4 0xC7662D93 EQ PUSH2 0x3ED JUMPI DUP1 PUSH4 0xCA505A5B EQ PUSH2 0x40B JUMPI DUP1 PUSH4 0xCEF025AC EQ PUSH2 0x429 JUMPI DUP1 PUSH4 0xE1889876 EQ PUSH2 0x445 JUMPI PUSH2 0x142 JUMP JUMPDEST DUP1 PUSH4 0x9A4D383E EQ PUSH2 0x2E7 JUMPI DUP1 PUSH4 0x9C0AB105 EQ PUSH2 0x303 JUMPI DUP1 PUSH4 0x9E5F59F9 EQ PUSH2 0x321 JUMPI DUP1 PUSH4 0x9EAB5253 EQ PUSH2 0x351 JUMPI DUP1 PUSH4 0xA230C524 EQ PUSH2 0x36F JUMPI PUSH2 0x142 JUMP JUMPDEST DUP1 PUSH4 0x1EE503FD GT PUSH2 0x10A JUMPI DUP1 PUSH4 0x1EE503FD EQ PUSH2 0x1FF JUMPI DUP1 PUSH4 0x25EC527C EQ PUSH2 0x21B JUMPI DUP1 PUSH4 0x455772D2 EQ PUSH2 0x24B JUMPI DUP1 PUSH4 0x5DAF08CA EQ PUSH2 0x269 JUMPI DUP1 PUSH4 0x70586013 EQ PUSH2 0x299 JUMPI DUP1 PUSH4 0x997072F7 EQ PUSH2 0x2C9 JUMPI PUSH2 0x142 JUMP JUMPDEST DUP1 PUSH4 0x2D05D3F EQ PUSH2 0x147 JUMPI DUP1 PUSH4 0x6FDDE03 EQ PUSH2 0x165 JUMPI DUP1 PUSH4 0x107046BD EQ PUSH2 0x183 JUMPI DUP1 PUSH4 0x146B551D EQ PUSH2 0x1B3 JUMPI DUP1 PUSH4 0x15866836 EQ PUSH2 0x1E3 JUMPI JUMPDEST PUSH1 0x0 DUP1 REVERT JUMPDEST PUSH2 0x14F PUSH2 0x475 JUMP JUMPDEST PUSH1 0x40 MLOAD PUSH2 0x15C SWAP2 SWAP1 PUSH2 0x1058 JUMP JUMPDEST PUSH1 0x40 MLOAD DUP1 SWAP2 SUB SWAP1 RETURN JUMPDEST PUSH2 0x16D PUSH2 0x49B JUMP JUMPDEST PUSH1 0x40 MLOAD PUSH2 0x17A SWAP2 SWAP1 PUSH2 0x1103 JUMP JUMPDEST PUSH1 0x40 MLOAD DUP1 SWAP2 SUB SWAP1 RETURN JUMPDEST PUSH2 0x19D PUSH1 0x4 DUP1 CALLDATASIZE SUB DUP2 ADD SWAP1 PUSH2 0x198 SWAP2 SWAP1 PUSH2 0x116F JUMP JUMPDEST PUSH2 0x529 JUMP JUMPDEST PUSH1 0x40 MLOAD PUSH2 0x1AA SWAP2 SWAP1 PUSH2 0x1058 JUMP JUMPDEST PUSH1 0x40 MLOAD DUP1 SWAP2 SUB SWAP1 RETURN JUMPDEST PUSH2 0x1CD PUSH1 0x4 DUP1 CALLDATASIZE SUB DUP2 ADD SWAP1 PUSH2 0x1C8 SWAP2 SWAP1 PUSH2 0x11C8 JUMP JUMPDEST PUSH2 0x568 JUMP JUMPDEST PUSH1 0x40 MLOAD PUSH2 0x1DA SWAP2 SWAP1 PUSH2 0x1211 JUMP JUMPDEST PUSH1 0x40 MLOAD DUP1 SWAP2 SUB SWAP1 RETURN JUMPDEST PUSH2 0x1FD PUSH1 0x4 DUP1 CALLDATASIZE SUB DUP2 ADD SWAP1 PUSH2 0x1F8 SWAP2 SWAP1 PUSH2 0x1291 JUMP JUMPDEST PUSH2 0x56F JUMP JUMPDEST STOP JUMPDEST PUSH2 0x219 PUSH1 0x4 DUP1 CALLDATASIZE SUB DUP2 ADD SWAP1 PUSH2 0x214 SWAP2 SWAP1 PUSH2 0x11C8 JUMP JUMPDEST PUSH2 0x602 JUMP JUMPDEST STOP JUMPDEST PUSH2 0x235 PUSH1 0x4 DUP1 CALLDATASIZE SUB DUP2 ADD SWAP1 PUSH2 0x230 SWAP2 SWAP1 PUSH2 0x11C8 JUMP JUMPDEST PUSH2 0x95B JUMP JUMPDEST PUSH1 0x40 MLOAD PUSH2 0x242 SWAP2 SWAP1 PUSH2 0x130C JUMP JUMPDEST PUSH1 0x40 MLOAD DUP1 SWAP2 SUB SWAP1 RETURN JUMPDEST PUSH2 0x253 PUSH2 0x97B JUMP JUMPDEST PUSH1 0x40 MLOAD PUSH2 0x260 SWAP2 SWAP1 PUSH2 0x13E5 JUMP JUMPDEST PUSH1 0x40 MLOAD DUP1 SWAP2 SUB SWAP1 RETURN JUMPDEST PUSH2 0x283 PUSH1 0x4 DUP1 CALLDATASIZE SUB DUP2 ADD SWAP1 PUSH2 0x27E SWAP2 SWAP1 PUSH2 0x116F JUMP JUMPDEST PUSH2 0xAAC JUMP JUMPDEST PUSH1 0x40 MLOAD PUSH2 0x290 SWAP2 SWAP1 PUSH2 0x1058 JUMP JUMPDEST PUSH1 0x40 MLOAD DUP1 SWAP2 SUB SWAP1 RETURN JUMPDEST PUSH2 0x2B3 PUSH1 0x4 DUP1 CALLDATASIZE SUB DUP2 ADD SWAP1 PUSH2 0x2AE SWAP2 SWAP1 PUSH2 0x1291 JUMP JUMPDEST PUSH2 0xAEB JUMP JUMPDEST PUSH1 0x40 MLOAD PUSH2 0x2C0 SWAP2 SWAP1 PUSH2 0x1426 JUMP JUMPDEST PUSH1 0x40 MLOAD DUP1 SWAP2 SUB SWAP1 RETURN JUMPDEST PUSH2 0x2D1 PUSH2 0xAF4 JUMP JUMPDEST PUSH1 0x40 MLOAD PUSH2 0x2DE SWAP2 SWAP1 PUSH2 0x1450 JUMP JUMPDEST PUSH1 0x40 MLOAD DUP1 SWAP2 SUB SWAP1 RETURN JUMPDEST PUSH2 0x301 PUSH1 0x4 DUP1 CALLDATASIZE SUB DUP2 ADD SWAP1 PUSH2 0x2FC SWAP2 SWAP1 PUSH2 0x11C8 JUMP JUMPDEST PUSH2 0xB01 JUMP JUMPDEST STOP JUMPDEST PUSH2 0x30B PUSH2 0xCE3 JUMP JUMPDEST PUSH1 0x40 MLOAD PUSH2 0x318 SWAP2 SWAP1 PUSH2 0x1103 JUMP JUMPDEST PUSH1 0x40 MLOAD DUP1 SWAP2 SUB SWAP1 RETURN JUMPDEST PUSH2 0x33B PUSH1 0x4 DUP1 CALLDATASIZE SUB DUP2 ADD SWAP1 PUSH2 0x336 SWAP2 SWAP1 PUSH2 0x11C8 JUMP JUMPDEST PUSH2 0xD71 JUMP JUMPDEST PUSH1 0x40 MLOAD PUSH2 0x348 SWAP2 SWAP1 PUSH2 0x1577 JUMP JUMPDEST PUSH1 0x40 MLOAD DUP1 SWAP2 SUB SWAP1 RETURN JUMPDEST PUSH2 0x359 PUSH2 0xD78 JUMP JUMPDEST PUSH1 0x40 MLOAD PUSH2 0x366 SWAP2 SWAP1 PUSH2 0x13E5 JUMP JUMPDEST PUSH1 0x40 MLOAD DUP1 SWAP2 SUB SWAP1 RETURN JUMPDEST PUSH2 0x389 PUSH1 0x4 DUP1 CALLDATASIZE SUB DUP2 ADD SWAP1 PUSH2 0x384 SWAP2 SWAP1 PUSH2 0x11C8 JUMP JUMPDEST PUSH2 0xE0B JUMP JUMPDEST PUSH1 0x40 MLOAD PUSH2 0x396 SWAP2 SWAP1 PUSH2 0x130C JUMP JUMPDEST PUSH1 0x40 MLOAD DUP1 SWAP2 SUB SWAP1 RETURN JUMPDEST PUSH2 0x3A7 PUSH2 0xE61 JUMP JUMPDEST PUSH1 0x40 MLOAD PUSH2 0x3B4 SWAP2 SWAP1 PUSH2 0x1058 JUMP JUMPDEST PUSH1 0x40 MLOAD DUP1 SWAP2 SUB SWAP1 RETURN JUMPDEST PUSH2 0x3D7 PUSH1 0x4 DUP1 CALLDATASIZE SUB DUP2 ADD SWAP1 PUSH2 0x3D2 SWAP2 SWAP1 PUSH2 0x11C8 JUMP JUMPDEST PUSH2 0xE87 JUMP JUMPDEST PUSH1 0x40 MLOAD PUSH2 0x3E4 SWAP2 SWAP1 PUSH2 0x15B2 JUMP JUMPDEST PUSH1 0x40 MLOAD DUP1 SWAP2 SUB SWAP1 RETURN JUMPDEST PUSH2 0x3F5 PUSH2 0xE9F JUMP JUMPDEST PUSH1 0x40 MLOAD PUSH2 0x402 SWAP2 SWAP1 PUSH2 0x1058 JUMP JUMPDEST PUSH1 0x40 MLOAD DUP1 SWAP2 SUB SWAP1 RETURN JUMPDEST PUSH2 0x413 PUSH2 0xEC5 JUMP JUMPDEST PUSH1 0x40 MLOAD PUSH2 0x420 SWAP2 SWAP1 PUSH2 0x1103 JUMP JUMPDEST PUSH1 0x40 MLOAD DUP1 SWAP2 SUB SWAP1 RETURN JUMPDEST PUSH2 0x443 PUSH1 0x4 DUP1 CALLDATASIZE SUB DUP2 ADD SWAP1 PUSH2 0x43E SWAP2 SWAP1 PUSH2 0x11C8 JUMP JUMPDEST PUSH2 0xF53 JUMP JUMPDEST STOP JUMPDEST PUSH2 0x45F PUSH1 0x4 DUP1 CALLDATASIZE SUB DUP2 ADD SWAP1 PUSH2 0x45A SWAP2 SWAP1 PUSH2 0x11C8 JUMP JUMPDEST PUSH2 0xFE4 JUMP JUMPDEST PUSH1 0x40 MLOAD PUSH2 0x46C SWAP2 SWAP1 PUSH2 0x1058 JUMP JUMPDEST PUSH1 0x40 MLOAD DUP1 SWAP2 SUB SWAP1 RETURN JUMPDEST PUSH1 0x9 PUSH1 0x0 SWAP1 SLOAD SWAP1 PUSH2 0x100 EXP SWAP1 DIV PUSH20 0xFFFFFFFFFFFFFFFFFFFFFFFFFFFFFFFFFFFFFFFF AND DUP2 JUMP JUMPDEST PUSH1 0x0 DUP1 SLOAD PUSH2 0x4A8 SWAP1 PUSH2 0x15FC JUMP JUMPDEST DUP1 PUSH1 0x1F ADD PUSH1 0x20 DUP1 SWAP2 DIV MUL PUSH1 0x20 ADD PUSH1 0x40 MLOAD SWAP1 DUP2 ADD PUSH1 0x40 MSTORE DUP1 SWAP3 SWAP2 SWAP1 DUP2 DUP2 MSTORE PUSH1 0x20 ADD DUP3 DUP1 SLOAD PUSH2 0x4D4 SWAP1 PUSH2 0x15FC JUMP JUMPDEST DUP1 ISZERO PUSH2 0x521 JUMPI DUP1 PUSH1 0x1F LT PUSH2 0x4F6 JUMPI PUSH2 0x100 DUP1 DUP4 SLOAD DIV MUL DUP4 MSTORE SWAP2 PUSH1 0x20 ADD SWAP2 PUSH2 0x521 JUMP JUMPDEST DUP3 ADD SWAP2 SWAP1 PUSH1 0x0 MSTORE PUSH1 0x20 PUSH1 0x0 KECCAK256 SWAP1 JUMPDEST DUP2 SLOAD DUP2 MSTORE SWAP1 PUSH1 0x1 ADD SWAP1 PUSH1 0x20 ADD DUP1 DUP4 GT PUSH2 0x504 JUMPI DUP3 SWAP1 SUB PUSH1 0x1F AND DUP3 ADD SWAP2 JUMPDEST POP POP POP POP POP DUP2 JUMP JUMPDEST PUSH1 0x5 DUP2 DUP2 SLOAD DUP2 LT PUSH2 0x539 JUMPI PUSH1 0x0 DUP1 REVERT JUMPDEST SWAP1 PUSH1 0x0 MSTORE PUSH1 0x20 PUSH1 0x0 KECCAK256 ADD PUSH1 0x0 SWAP2 POP SLOAD SWAP1 PUSH2 0x100 EXP SWAP1 DIV PUSH20 0xFFFFFFFFFFFFFFFFFFFFFFFFFFFFFFFFFFFFFFFF AND DUP2 JUMP JUMPDEST PUSH1 0x0 SWAP2 SWAP1 POP JUMP JUMPDEST CALLER PUSH1 0x4 PUSH1 0x0 DUP3 PUSH20 0xFFFFFFFFFFFFFFFFFFFFFFFFFFFFFFFFFFFFFFFF AND PUSH20 0xFFFFFFFFFFFFFFFFFFFFFFFFFFFFFFFFFFFFFFFF AND DUP2 MSTORE PUSH1 0x20 ADD SWAP1 DUP2 MSTORE PUSH1 0x20 ADD PUSH1 0x0 KECCAK256 PUSH1 0x0 SWAP1 SLOAD SWAP1 PUSH2 0x100 EXP SWAP1 DIV PUSH1 0xFF AND PUSH2 0x5FC JUMPI PUSH1 0x40 MLOAD PUSH32 0x8C379A000000000000000000000000000000000000000000000000000000000 DUP2 MSTORE PUSH1 0x4 ADD PUSH2 0x5F3 SWAP1 PUSH2 0x1679 JUMP JUMPDEST PUSH1 0x40 MLOAD DUP1 SWAP2 SUB SWAP1 REVERT JUMPDEST POP POP POP POP JUMP JUMPDEST CALLER PUSH1 0x4 PUSH1 0x0 DUP3 PUSH20 0xFFFFFFFFFFFFFFFFFFFFFFFFFFFFFFFFFFFFFFFF AND PUSH20 0xFFFFFFFFFFFFFFFFFFFFFFFFFFFFFFFFFFFFFFFF AND DUP2 MSTORE PUSH1 0x20 ADD SWAP1 DUP2 MSTORE PUSH1 0x20 ADD PUSH1 0x0 KECCAK256 PUSH1 0x0 SWAP1 SLOAD SWAP1 PUSH2 0x100 EXP SWAP1 DIV PUSH1 0xFF AND PUSH2 0x68F JUMPI PUSH1 0x40 MLOAD PUSH32 0x8C379A000000000000000000000000000000000000000000000000000000000 DUP2 MSTORE PUSH1 0x4 ADD PUSH2 0x686 SWAP1 PUSH2 0x1679 JUMP JUMPDEST PUSH1 0x40 MLOAD DUP1 SWAP2 SUB SWAP1 REVERT JUMPDEST PUSH1 0x0 PUSH1 0x8 PUSH1 0x0 SWAP1 SLOAD SWAP1 PUSH2 0x100 EXP SWAP1 DIV PUSH20 0xFFFFFFFFFFFFFFFFFFFFFFFFFFFFFFFFFFFFFFFF AND SWAP1 POP PUSH1 0x0 DUP2 PUSH20 0xFFFFFFFFFFFFFFFFFFFFFFFFFFFFFFFFFFFFFFFF AND PUSH4 0xD9A87535 DUP6 PUSH1 0x40 MLOAD DUP3 PUSH4 0xFFFFFFFF AND PUSH1 0xE0 SHL DUP2 MSTORE PUSH1 0x4 ADD PUSH2 0x6F1 SWAP2 SWAP1 PUSH2 0x1058 JUMP JUMPDEST PUSH1 0x20 PUSH1 0x40 MLOAD DUP1 DUP4 SUB DUP2 DUP7 GAS STATICCALL ISZERO DUP1 ISZERO PUSH2 0x70E JUMPI RETURNDATASIZE PUSH1 0x0 DUP1 RETURNDATACOPY RETURNDATASIZE PUSH1 0x0 REVERT JUMPDEST POP POP POP POP PUSH1 0x40 MLOAD RETURNDATASIZE PUSH1 0x1F NOT PUSH1 0x1F DUP3 ADD AND DUP3 ADD DUP1 PUSH1 0x40 MSTORE POP DUP2 ADD SWAP1 PUSH2 0x732 SWAP2 SWAP1 PUSH2 0x16AE JUMP JUMPDEST SWAP1 POP PUSH1 0x1 DUP2 LT ISZERO PUSH2 0x778 JUMPI PUSH1 0x40 MLOAD PUSH32 0x8C379A000000000000000000000000000000000000000000000000000000000 DUP2 MSTORE PUSH1 0x4 ADD PUSH2 0x76F SWAP1 PUSH2 0x174D JUMP JUMPDEST PUSH1 0x40 MLOAD DUP1 SWAP2 SUB SWAP1 REVERT JUMPDEST PUSH1 0x0 PUSH1 0xA PUSH1 0x0 SWAP1 SLOAD SWAP1 PUSH2 0x100 EXP SWAP1 DIV PUSH20 0xFFFFFFFFFFFFFFFFFFFFFFFFFFFFFFFFFFFFFFFF AND SWAP1 POP DUP1 PUSH20 0xFFFFFFFFFFFFFFFFFFFFFFFFFFFFFFFFFFFFFFFF AND PUSH4 0x9D58B15D DUP7 PUSH1 0xA PUSH1 0x0 SWAP1 SLOAD SWAP1 PUSH2 0x100 EXP SWAP1 DIV PUSH20 0xFFFFFFFFFFFFFFFFFFFFFFFFFFFFFFFFFFFFFFFF AND PUSH1 0x40 MLOAD DUP4 PUSH4 0xFFFFFFFF AND PUSH1 0xE0 SHL DUP2 MSTORE PUSH1 0x4 ADD PUSH2 0x7FC SWAP3 SWAP2 SWAP1 PUSH2 0x176D JUMP JUMPDEST PUSH1 0x0 PUSH1 0x40 MLOAD DUP1 DUP4 SUB DUP2 PUSH1 0x0 DUP8 DUP1 EXTCODESIZE ISZERO DUP1 ISZERO PUSH2 0x816 JUMPI PUSH1 0x0 DUP1 REVERT JUMPDEST POP GAS CALL ISZERO DUP1 ISZERO PUSH2 0x82A JUMPI RETURNDATASIZE PUSH1 0x0 DUP1 RETURNDATACOPY RETURNDATASIZE PUSH1 0x0 REVERT JUMPDEST POP POP POP POP DUP3 PUSH20 0xFFFFFFFFFFFFFFFFFFFFFFFFFFFFFFFFFFFFFFFF AND PUSH4 0x1292A282 DUP7 PUSH1 0x40 MLOAD DUP3 PUSH4 0xFFFFFFFF AND PUSH1 0xE0 SHL DUP2 MSTORE PUSH1 0x4 ADD PUSH2 0x867 SWAP2 SWAP1 PUSH2 0x1058 JUMP JUMPDEST PUSH1 0x0 PUSH1 0x40 MLOAD DUP1 DUP4 SUB DUP2 PUSH1 0x0 DUP8 DUP1 EXTCODESIZE ISZERO DUP1 ISZERO PUSH2 0x881 JUMPI PUSH1 0x0 DUP1 REVERT JUMPDEST POP GAS CALL ISZERO DUP1 ISZERO PUSH2 0x895 JUMPI RETURNDATASIZE PUSH1 0x0 DUP1 RETURNDATACOPY RETURNDATASIZE PUSH1 0x0 REVERT JUMPDEST POP POP POP POP PUSH1 0x3 DUP6 SWAP1 DUP1 PUSH1 0x1 DUP2 SLOAD ADD DUP1 DUP3 SSTORE DUP1 SWAP2 POP POP PUSH1 0x1 SWAP1 SUB SWAP1 PUSH1 0x0 MSTORE PUSH1 0x20 PUSH1 0x0 KECCAK256 ADD PUSH1 0x0 SWAP1 SWAP2 SWAP1 SWAP2 SWAP1 SWAP2 PUSH2 0x100 EXP DUP2 SLOAD DUP2 PUSH20 0xFFFFFFFFFFFFFFFFFFFFFFFFFFFFFFFFFFFFFFFF MUL NOT AND SWAP1 DUP4 PUSH20 0xFFFFFFFFFFFFFFFFFFFFFFFFFFFFFFFFFFFFFFFF AND MUL OR SWAP1 SSTORE POP PUSH1 0x1 PUSH1 0x4 PUSH1 0x0 DUP8 PUSH20 0xFFFFFFFFFFFFFFFFFFFFFFFFFFFFFFFFFFFFFFFF AND PUSH20 0xFFFFFFFFFFFFFFFFFFFFFFFFFFFFFFFFFFFFFFFF AND DUP2 MSTORE PUSH1 0x20 ADD SWAP1 DUP2 MSTORE PUSH1 0x20 ADD PUSH1 0x0 KECCAK256 PUSH1 0x0 PUSH2 0x100 EXP DUP2 SLOAD DUP2 PUSH1 0xFF MUL NOT AND SWAP1 DUP4 ISZERO ISZERO MUL OR SWAP1 SSTORE POP POP POP POP POP POP JUMP JUMPDEST PUSH1 0x4 PUSH1 0x20 MSTORE DUP1 PUSH1 0x0 MSTORE PUSH1 0x40 PUSH1 0x0 KECCAK256 PUSH1 0x0 SWAP2 POP SLOAD SWAP1 PUSH2 0x100 EXP SWAP1 DIV PUSH1 0xFF AND DUP2 JUMP JUMPDEST PUSH1 0x60 CALLER PUSH1 0x4 PUSH1 0x0 DUP3 PUSH20 0xFFFFFFFFFFFFFFFFFFFFFFFFFFFFFFFFFFFFFFFF AND PUSH20 0xFFFFFFFFFFFFFFFFFFFFFFFFFFFFFFFFFFFFFFFF AND DUP2 MSTORE PUSH1 0x20 ADD SWAP1 DUP2 MSTORE PUSH1 0x20 ADD PUSH1 0x0 KECCAK256 PUSH1 0x0 SWAP1 SLOAD SWAP1 PUSH2 0x100 EXP SWAP1 DIV PUSH1 0xFF AND PUSH2 0xA0A JUMPI PUSH1 0x40 MLOAD PUSH32 0x8C379A000000000000000000000000000000000000000000000000000000000 DUP2 MSTORE PUSH1 0x4 ADD PUSH2 0xA01 SWAP1 PUSH2 0x1679 JUMP JUMPDEST PUSH1 0x40 MLOAD DUP1 SWAP2 SUB SWAP1 REVERT JUMPDEST PUSH1 0x0 PUSH1 0x8 PUSH1 0x0 SWAP1 SLOAD SWAP1 PUSH2 0x100 EXP SWAP1 DIV PUSH20 0xFFFFFFFFFFFFFFFFFFFFFFFFFFFFFFFFFFFFFFFF AND SWAP1 POP DUP1 PUSH20 0xFFFFFFFFFFFFFFFFFFFFFFFFFFFFFFFFFFFFFFFF AND PUSH4 0x455772D2 PUSH1 0x40 MLOAD DUP2 PUSH4 0xFFFFFFFF AND PUSH1 0xE0 SHL DUP2 MSTORE PUSH1 0x4 ADD PUSH1 0x0 PUSH1 0x40 MLOAD DUP1 DUP4 SUB DUP2 DUP7 GAS STATICCALL ISZERO DUP1 ISZERO PUSH2 0xA7C JUMPI RETURNDATASIZE PUSH1 0x0 DUP1 RETURNDATACOPY RETURNDATASIZE PUSH1 0x0 REVERT JUMPDEST POP POP POP POP PUSH1 0x40 MLOAD RETURNDATASIZE PUSH1 0x0 DUP3 RETURNDATACOPY RETURNDATASIZE PUSH1 0x1F NOT PUSH1 0x1F DUP3 ADD AND DUP3 ADD DUP1 PUSH1 0x40 MSTORE POP DUP2 ADD SWAP1 PUSH2 0xAA5 SWAP2 SWAP1 PUSH2 0x18E9 JUMP JUMPDEST SWAP3 POP POP POP SWAP1 JUMP JUMPDEST PUSH1 0x3 DUP2 DUP2 SLOAD DUP2 LT PUSH2 0xABC JUMPI PUSH1 0x0 DUP1 REVERT JUMPDEST SWAP1 PUSH1 0x0 MSTORE PUSH1 0x20 PUSH1 0x0 KECCAK256 ADD PUSH1 0x0 SWAP2 POP SLOAD SWAP1 PUSH2 0x100 EXP SWAP1 DIV PUSH20 0xFFFFFFFFFFFFFFFFFFFFFFFFFFFFFFFFFFFFFFFF AND DUP2 JUMP JUMPDEST PUSH1 0x0 SWAP4 SWAP3 POP POP POP JUMP JUMPDEST PUSH1 0x0 PUSH1 0x3 DUP1 SLOAD SWAP1 POP SWAP1 POP SWAP1 JUMP JUMPDEST PUSH1 0x0 PUSH1 0x6 PUSH1 0x0 CALLER PUSH20 0xFFFFFFFFFFFFFFFFFFFFFFFFFFFFFFFFFFFFFFFF AND PUSH20 0xFFFFFFFFFFFFFFFFFFFFFFFFFFFFFFFFFFFFFFFF AND DUP2 MSTORE PUSH1 0x20 ADD SWAP1 DUP2 MSTORE PUSH1 0x20 ADD PUSH1 0x0 KECCAK256 PUSH1 0x0 SWAP1 SLOAD SWAP1 PUSH2 0x100 EXP SWAP1 DIV PUSH20 0xFFFFFFFFFFFFFFFFFFFFFFFFFFFFFFFFFFFFFFFF AND SWAP1 POP DUP1 PUSH20 0xFFFFFFFFFFFFFFFFFFFFFFFFFFFFFFFFFFFFFFFF AND DUP3 PUSH20 0xFFFFFFFFFFFFFFFFFFFFFFFFFFFFFFFFFFFFFFFF AND SUB PUSH2 0xBD3 JUMPI PUSH1 0x40 MLOAD PUSH32 0x8C379A000000000000000000000000000000000000000000000000000000000 DUP2 MSTORE PUSH1 0x4 ADD PUSH2 0xBCA SWAP1 PUSH2 0x197E JUMP JUMPDEST PUSH1 0x40 MLOAD DUP1 SWAP2 SUB SWAP1 REVERT JUMPDEST PUSH1 0x1 PUSH1 0x7 PUSH1 0x0 DUP5 PUSH20 0xFFFFFFFFFFFFFFFFFFFFFFFFFFFFFFFFFFFFFFFF AND PUSH20 0xFFFFFFFFFFFFFFFFFFFFFFFFFFFFFFFFFFFFFFFF AND DUP2 MSTORE PUSH1 0x20 ADD SWAP1 DUP2 MSTORE PUSH1 0x20 ADD PUSH1 0x0 KECCAK256 PUSH1 0x0 DUP3 DUP3 SLOAD PUSH2 0xC23 SWAP2 SWAP1 PUSH2 0x19CD JUMP JUMPDEST SWAP3 POP POP DUP2 SWAP1 SSTORE POP DUP2 PUSH1 0x6 PUSH1 0x0 CALLER PUSH20 0xFFFFFFFFFFFFFFFFFFFFFFFFFFFFFFFFFFFFFFFF AND PUSH20 0xFFFFFFFFFFFFFFFFFFFFFFFFFFFFFFFFFFFFFFFF AND DUP2 MSTORE PUSH1 0x20 ADD SWAP1 DUP2 MSTORE PUSH1 0x20 ADD PUSH1 0x0 KECCAK256 PUSH1 0x0 PUSH2 0x100 EXP DUP2 SLOAD DUP2 PUSH20 0xFFFFFFFFFFFFFFFFFFFFFFFFFFFFFFFFFFFFFFFF MUL NOT AND SWAP1 DUP4 PUSH20 0xFFFFFFFFFFFFFFFFFFFFFFFFFFFFFFFFFFFFFFFF AND MUL OR SWAP1 SSTORE POP PUSH32 0xE8DDFEC65826B66EC8B03B89152BB70528FA2DA92E9775CC99671B1FC7BCB0F4 CALLER PUSH1 0x40 MLOAD PUSH2 0xCD7 SWAP2 SWAP1 PUSH2 0x1058 JUMP JUMPDEST PUSH1 0x40 MLOAD DUP1 SWAP2 SUB SWAP1 LOG1 POP POP JUMP JUMPDEST PUSH1 0x2 DUP1 SLOAD PUSH2 0xCF0 SWAP1 PUSH2 0x15FC JUMP JUMPDEST DUP1 PUSH1 0x1F ADD PUSH1 0x20 DUP1 SWAP2 DIV MUL PUSH1 0x20 ADD PUSH1 0x40 MLOAD SWAP1 DUP2 ADD PUSH1 0x40 MSTORE DUP1 SWAP3 SWAP2 SWAP1 DUP2 DUP2 MSTORE PUSH1 0x20 ADD DUP3 DUP1 SLOAD PUSH2 0xD1C SWAP1 PUSH2 0x15FC JUMP JUMPDEST DUP1 ISZERO PUSH2 0xD69 JUMPI DUP1 PUSH1 0x1F LT PUSH2 0xD3E JUMPI PUSH2 0x100 DUP1 DUP4 SLOAD DIV MUL DUP4 MSTORE SWAP2 PUSH1 0x20 ADD SWAP2 PUSH2 0xD69 JUMP JUMPDEST DUP3 ADD SWAP2 SWAP1 PUSH1 0x0 MSTORE PUSH1 0x20 PUSH1 0x0 KECCAK256 SWAP1 JUMPDEST DUP2 SLOAD DUP2 MSTORE SWAP1 PUSH1 0x1 ADD SWAP1 PUSH1 0x20 ADD DUP1 DUP4 GT PUSH2 0xD4C JUMPI DUP3 SWAP1 SUB PUSH1 0x1F AND DUP3 ADD SWAP2 JUMPDEST POP POP POP POP POP DUP2 JUMP JUMPDEST PUSH1 0x60 SWAP2 SWAP1 POP JUMP JUMPDEST PUSH1 0x60 CALLER PUSH1 0x4 PUSH1 0x0 DUP3 PUSH20 0xFFFFFFFFFFFFFFFFFFFFFFFFFFFFFFFFFFFFFFFF AND PUSH20 0xFFFFFFFFFFFFFFFFFFFFFFFFFFFFFFFFFFFFFFFF AND DUP2 MSTORE PUSH1 0x20 ADD SWAP1 DUP2 MSTORE PUSH1 0x20 ADD PUSH1 0x0 KECCAK256 PUSH1 0x0 SWAP1 SLOAD SWAP1 PUSH2 0x100 EXP SWAP1 DIV PUSH1 0xFF AND PUSH2 0xE07 JUMPI PUSH1 0x40 MLOAD PUSH32 0x8C379A000000000000000000000000000000000000000000000000000000000 DUP2 MSTORE PUSH1 0x4 ADD PUSH2 0xDFE SWAP1 PUSH2 0x1679 JUMP JUMPDEST PUSH1 0x40 MLOAD DUP1 SWAP2 SUB SWAP1 REVERT JUMPDEST POP SWAP1 JUMP JUMPDEST PUSH1 0x0 PUSH1 0x4 PUSH1 0x0 DUP4 PUSH20 0xFFFFFFFFFFFFFFFFFFFFFFFFFFFFFFFFFFFFFFFF AND PUSH20 0xFFFFFFFFFFFFFFFFFFFFFFFFFFFFFFFFFFFFFFFF AND DUP2 MSTORE PUSH1 0x20 ADD SWAP1 DUP2 MSTORE PUSH1 0x20 ADD PUSH1 0x0 KECCAK256 PUSH1 0x0 SWAP1 SLOAD SWAP1 PUSH2 0x100 EXP SWAP1 DIV PUSH1 0xFF AND SWAP1 POP SWAP2 SWAP1 POP JUMP JUMPDEST PUSH1 0x8 PUSH1 0x0 SWAP1 SLOAD SWAP1 PUSH2 0x100 EXP SWAP1 DIV PUSH20 0xFFFFFFFFFFFFFFFFFFFFFFFFFFFFFFFFFFFFFFFF AND DUP2 JUMP JUMPDEST PUSH1 0x7 PUSH1 0x20 MSTORE DUP1 PUSH1 0x0 MSTORE PUSH1 0x40 PUSH1 0x0 KECCAK256 PUSH1 0x0 SWAP2 POP SWAP1 POP SLOAD DUP2 JUMP JUMPDEST PUSH1 0xA PUSH1 0x0 SWAP1 SLOAD SWAP1 PUSH2 0x100 EXP SWAP1 DIV PUSH20 0xFFFFFFFFFFFFFFFFFFFFFFFFFFFFFFFFFFFFFFFF AND DUP2 JUMP JUMPDEST PUSH1 0x1 DUP1 SLOAD PUSH2 0xED2 SWAP1 PUSH2 0x15FC JUMP JUMPDEST DUP1 PUSH1 0x1F ADD PUSH1 0x20 DUP1 SWAP2 DIV MUL PUSH1 0x20 ADD PUSH1 0x40 MLOAD SWAP1 DUP2 ADD PUSH1 0x40 MSTORE DUP1 SWAP3 SWAP2 SWAP1 DUP2 DUP2 MSTORE PUSH1 0x20 ADD DUP3 DUP1 SLOAD PUSH2 0xEFE SWAP1 PUSH2 0x15FC JUMP JUMPDEST DUP1 ISZERO PUSH2 0xF4B JUMPI DUP1 PUSH1 0x1F LT PUSH2 0xF20 JUMPI PUSH2 0x100 DUP1 DUP4 SLOAD DIV MUL DUP4 MSTORE SWAP2 PUSH1 0x20 ADD SWAP2 PUSH2 0xF4B JUMP JUMPDEST DUP3 ADD SWAP2 SWAP1 PUSH1 0x0 MSTORE PUSH1 0x20 PUSH1 0x0 KECCAK256 SWAP1 JUMPDEST DUP2 SLOAD DUP2 MSTORE SWAP1 PUSH1 0x1 ADD SWAP1 PUSH1 0x20 ADD DUP1 DUP4 GT PUSH2 0xF2E JUMPI DUP3 SWAP1 SUB PUSH1 0x1F AND DUP3 ADD SWAP2 JUMPDEST POP POP POP POP POP DUP2 JUMP JUMPDEST CALLER PUSH1 0x4 PUSH1 0x0 DUP3 PUSH20 0xFFFFFFFFFFFFFFFFFFFFFFFFFFFFFFFFFFFFFFFF AND PUSH20 0xFFFFFFFFFFFFFFFFFFFFFFFFFFFFFFFFFFFFFFFF AND DUP2 MSTORE PUSH1 0x20 ADD SWAP1 DUP2 MSTORE PUSH1 0x20 ADD PUSH1 0x0 KECCAK256 PUSH1 0x0 SWAP1 SLOAD SWAP1 PUSH2 0x100 EXP SWAP1 DIV PUSH1 0xFF AND PUSH2 0xFE0 JUMPI PUSH1 0x40 MLOAD PUSH32 0x8C379A000000000000000000000000000000000000000000000000000000000 DUP2 MSTORE PUSH1 0x4 ADD PUSH2 0xFD7 SWAP1 PUSH2 0x1679 JUMP JUMPDEST PUSH1 0x40 MLOAD DUP1 SWAP2 SUB SWAP1 REVERT JUMPDEST POP POP JUMP JUMPDEST PUSH1 0x6 PUSH1 0x20 MSTORE DUP1 PUSH1 0x0 MSTORE PUSH1 0x40 PUSH1 0x0 KECCAK256 PUSH1 0x0 SWAP2 POP SLOAD SWAP1 PUSH2 0x100 EXP SWAP1 DIV PUSH20 0xFFFFFFFFFFFFFFFFFFFFFFFFFFFFFFFFFFFFFFFF AND DUP2 JUMP JUMPDEST PUSH1 0x0 PUSH20 0xFFFFFFFFFFFFFFFFFFFFFFFFFFFFFFFFFFFFFFFF DUP3 AND SWAP1 POP SWAP2 SWAP1 POP JUMP JUMPDEST PUSH1 0x0 PUSH2 0x1042 DUP3 PUSH2 0x1017 JUMP JUMPDEST SWAP1 POP SWAP2 SWAP1 POP JUMP JUMPDEST PUSH2 0x1052 DUP2 PUSH2 0x1037 JUMP JUMPDEST DUP3 MSTORE POP POP JUMP JUMPDEST PUSH1 0x0 PUSH1 0x20 DUP3 ADD SWAP1 POP PUSH2 0x106D PUSH1 0x0 DUP4 ADD DUP5 PUSH2 0x1049 JUMP JUMPDEST SWAP3 SWAP2 POP POP JUMP JUMPDEST PUSH1 0x0 DUP2 MLOAD SWAP1 POP SWAP2 SWAP1 POP JUMP JUMPDEST PUSH1 0x0 DUP3 DUP3 MSTORE PUSH1 0x20 DUP3 ADD SWAP1 POP SWAP3 SWAP2 POP POP JUMP JUMPDEST PUSH1 0x0 JUMPDEST DUP4 DUP2 LT ISZERO PUSH2 0x10AD JUMPI DUP1 DUP3 ADD MLOAD DUP2 DUP5 ADD MSTORE PUSH1 0x20 DUP2 ADD SWAP1 POP PUSH2 0x1092 JUMP JUMPDEST PUSH1 0x0 DUP5 DUP5 ADD MSTORE POP POP POP POP JUMP JUMPDEST PUSH1 0x0 PUSH1 0x1F NOT PUSH1 0x1F DUP4 ADD AND SWAP1 POP SWAP2 SWAP1 POP JUMP JUMPDEST PUSH1 0x0 PUSH2 0x10D5 DUP3 PUSH2 0x1073 JUMP JUMPDEST PUSH2 0x10DF DUP2 DUP6 PUSH2 0x107E JUMP JUMPDEST SWAP4 POP PUSH2 0x10EF DUP2 DUP6 PUSH1 0x20 DUP7 ADD PUSH2 0x108F JUMP JUMPDEST PUSH2 0x10F8 DUP2 PUSH2 0x10B9 JUMP JUMPDEST DUP5 ADD SWAP2 POP POP SWAP3 SWAP2 POP POP JUMP JUMPDEST PUSH1 0x0 PUSH1 0x20 DUP3 ADD SWAP1 POP DUP2 DUP2 SUB PUSH1 0x0 DUP4 ADD MSTORE PUSH2 0x111D DUP2 DUP5 PUSH2 0x10CA JUMP JUMPDEST SWAP1 POP SWAP3 SWAP2 POP POP JUMP JUMPDEST PUSH1 0x0 PUSH1 0x40 MLOAD SWAP1 POP SWAP1 JUMP JUMPDEST PUSH1 0x0 DUP1 REVERT JUMPDEST PUSH1 0x0 DUP1 REVERT JUMPDEST PUSH1 0x0 DUP2 SWAP1 POP SWAP2 SWAP1 POP JUMP JUMPDEST PUSH2 0x114C DUP2 PUSH2 0x1139 JUMP JUMPDEST DUP2 EQ PUSH2 0x1157 JUMPI PUSH1 0x0 DUP1 REVERT JUMPDEST POP JUMP JUMPDEST PUSH1 0x0 DUP2 CALLDATALOAD SWAP1 POP PUSH2 0x1169 DUP2 PUSH2 0x1143 JUMP JUMPDEST SWAP3 SWAP2 POP POP JUMP JUMPDEST PUSH1 0x0 PUSH1 0x20 DUP3 DUP5 SUB SLT ISZERO PUSH2 0x1185 JUMPI PUSH2 0x1184 PUSH2 0x112F JUMP JUMPDEST JUMPDEST PUSH1 0x0 PUSH2 0x1193 DUP5 DUP3 DUP6 ADD PUSH2 0x115A JUMP JUMPDEST SWAP2 POP POP SWAP3 SWAP2 POP POP JUMP JUMPDEST PUSH2 0x11A5 DUP2 PUSH2 0x1037 JUMP JUMPDEST DUP2 EQ PUSH2 0x11B0 JUMPI PUSH1 0x0 DUP1 REVERT JUMPDEST POP JUMP JUMPDEST PUSH1 0x0 DUP2 CALLDATALOAD SWAP1 POP PUSH2 0x11C2 DUP2 PUSH2 0x119C JUMP JUMPDEST SWAP3 SWAP2 POP POP JUMP JUMPDEST PUSH1 0x0 PUSH1 0x20 DUP3 DUP5 SUB SLT ISZERO PUSH2 0x11DE JUMPI PUSH2 0x11DD PUSH2 0x112F JUMP JUMPDEST JUMPDEST PUSH1 0x0 PUSH2 0x11EC DUP5 DUP3 DUP6 ADD PUSH2 0x11B3 JUMP JUMPDEST SWAP2 POP POP SWAP3 SWAP2 POP POP JUMP JUMPDEST PUSH1 0x0 DUP2 PUSH1 0x3 SIGNEXTEND SWAP1 POP SWAP2 SWAP1 POP JUMP JUMPDEST PUSH2 0x120B DUP2 PUSH2 0x11F5 JUMP JUMPDEST DUP3 MSTORE POP POP JUMP JUMPDEST PUSH1 0x0 PUSH1 0x20 DUP3 ADD SWAP1 POP PUSH2 0x1226 PUSH1 0x0 DUP4 ADD DUP5 PUSH2 0x1202 JUMP JUMPDEST SWAP3 SWAP2 POP POP JUMP JUMPDEST PUSH1 0x0 DUP1 REVERT JUMPDEST PUSH1 0x0 DUP1 REVERT JUMPDEST PUSH1 0x0 DUP1 REVERT JUMPDEST PUSH1 0x0 DUP1 DUP4 PUSH1 0x1F DUP5 ADD SLT PUSH2 0x1251 JUMPI PUSH2 0x1250 PUSH2 0x122C JUMP JUMPDEST JUMPDEST DUP3 CALLDATALOAD SWAP1 POP PUSH8 0xFFFFFFFFFFFFFFFF DUP2 GT ISZERO PUSH2 0x126E JUMPI PUSH2 0x126D PUSH2 0x1231 JUMP JUMPDEST JUMPDEST PUSH1 0x20 DUP4 ADD SWAP2 POP DUP4 PUSH1 0x1 DUP3 MUL DUP4 ADD GT ISZERO PUSH2 0x128A JUMPI PUSH2 0x1289 PUSH2 0x1236 JUMP JUMPDEST JUMPDEST SWAP3 POP SWAP3 SWAP1 POP JUMP JUMPDEST PUSH1 0x0 DUP1 PUSH1 0x0 PUSH1 0x40 DUP5 DUP7 SUB SLT ISZERO PUSH2 0x12AA JUMPI PUSH2 0x12A9 PUSH2 0x112F JUMP JUMPDEST JUMPDEST PUSH1 0x0 PUSH2 0x12B8 DUP7 DUP3 DUP8 ADD PUSH2 0x11B3 JUMP JUMPDEST SWAP4 POP POP PUSH1 0x20 DUP5 ADD CALLDATALOAD PUSH8 0xFFFFFFFFFFFFFFFF DUP2 GT ISZERO PUSH2 0x12D9 JUMPI PUSH2 0x12D8 PUSH2 0x1134 JUMP JUMPDEST JUMPDEST PUSH2 0x12E5 DUP7 DUP3 DUP8 ADD PUSH2 0x123B JUMP JUMPDEST SWAP3 POP SWAP3 POP POP SWAP3 POP SWAP3 POP SWAP3 JUMP JUMPDEST PUSH1 0x0 DUP2 ISZERO ISZERO SWAP1 POP SWAP2 SWAP1 POP JUMP JUMPDEST PUSH2 0x1306 DUP2 PUSH2 0x12F1 JUMP JUMPDEST DUP3 MSTORE POP POP JUMP JUMPDEST PUSH1 0x0 PUSH1 0x20 DUP3 ADD SWAP1 POP PUSH2 0x1321 PUSH1 0x0 DUP4 ADD DUP5 PUSH2 0x12FD JUMP JUMPDEST SWAP3 SWAP2 POP POP JUMP JUMPDEST PUSH1 0x0 DUP2 MLOAD SWAP1 POP SWAP2 SWAP1 POP JUMP JUMPDEST PUSH1 0x0 DUP3 DUP3 MSTORE PUSH1 0x20 DUP3 ADD SWAP1 POP SWAP3 SWAP2 POP POP JUMP JUMPDEST PUSH1 0x0 DUP2 SWAP1 POP PUSH1 0x20 DUP3 ADD SWAP1 POP SWAP2 SWAP1 POP JUMP JUMPDEST PUSH2 0x135C DUP2 PUSH2 0x1037 JUMP JUMPDEST DUP3 MSTORE POP POP JUMP JUMPDEST PUSH1 0x0 PUSH2 0x136E DUP4 DUP4 PUSH2 0x1353 JUMP JUMPDEST PUSH1 0x20 DUP4 ADD SWAP1 POP SWAP3 SWAP2 POP POP JUMP JUMPDEST PUSH1 0x0 PUSH1 0x20 DUP3 ADD SWAP1 POP SWAP2 SWAP1 POP JUMP JUMPDEST PUSH1 0x0 PUSH2 0x1392 DUP3 PUSH2 0x1327 JUMP JUMPDEST PUSH2 0x139C DUP2 DUP6 PUSH2 0x1332 JUMP JUMPDEST SWAP4 POP PUSH2 0x13A7 DUP4 PUSH2 0x1343 JUMP JUMPDEST DUP1 PUSH1 0x0 JUMPDEST DUP4 DUP2 LT ISZERO PUSH2 0x13D8 JUMPI DUP2 MLOAD PUSH2 0x13BF DUP9 DUP3 PUSH2 0x1362 JUMP JUMPDEST SWAP8 POP PUSH2 0x13CA DUP4 PUSH2 0x137A JUMP JUMPDEST SWAP3 POP POP PUSH1 0x1 DUP2 ADD SWAP1 POP PUSH2 0x13AB JUMP JUMPDEST POP DUP6 SWAP4 POP POP POP POP SWAP3 SWAP2 POP POP JUMP JUMPDEST PUSH1 0x0 PUSH1 0x20 DUP3 ADD SWAP1 POP DUP2 DUP2 SUB PUSH1 0x0 DUP4 ADD MSTORE PUSH2 0x13FF DUP2 DUP5 PUSH2 0x1387 JUMP JUMPDEST SWAP1 POP SWAP3 SWAP2 POP POP JUMP JUMPDEST PUSH1 0x0 PUSH4 0xFFFFFFFF DUP3 AND SWAP1 POP SWAP2 SWAP1 POP JUMP JUMPDEST PUSH2 0x1420 DUP2 PUSH2 0x1407 JUMP JUMPDEST DUP3 MSTORE POP POP JUMP JUMPDEST PUSH1 0x0 PUSH1 0x20 DUP3 ADD SWAP1 POP PUSH2 0x143B PUSH1 0x0 DUP4 ADD DUP5 PUSH2 0x1417 JUMP JUMPDEST SWAP3 SWAP2 POP POP JUMP JUMPDEST PUSH2 0x144A DUP2 PUSH2 0x1139 JUMP JUMPDEST DUP3 MSTORE POP POP JUMP JUMPDEST PUSH1 0x0 PUSH1 0x20 DUP3 ADD SWAP1 POP PUSH2 0x1465 PUSH1 0x0 DUP4 ADD DUP5 PUSH2 0x1441 JUMP JUMPDEST SWAP3 SWAP2 POP POP JUMP JUMPDEST PUSH1 0x0 DUP2 MLOAD SWAP1 POP SWAP2 SWAP1 POP JUMP JUMPDEST PUSH1 0x0 DUP3 DUP3 MSTORE PUSH1 0x20 DUP3 ADD SWAP1 POP SWAP3 SWAP2 POP POP JUMP JUMPDEST PUSH1 0x0 DUP2 SWAP1 POP PUSH1 0x20 DUP3 ADD SWAP1 POP SWAP2 SWAP1 POP JUMP JUMPDEST PUSH1 0x0 DUP3 DUP3 MSTORE PUSH1 0x20 DUP3 ADD SWAP1 POP SWAP3 SWAP2 POP POP JUMP JUMPDEST PUSH1 0x0 PUSH2 0x14B3 DUP3 PUSH2 0x1073 JUMP JUMPDEST PUSH2 0x14BD DUP2 DUP6 PUSH2 0x1497 JUMP JUMPDEST SWAP4 POP PUSH2 0x14CD DUP2 DUP6 PUSH1 0x20 DUP7 ADD PUSH2 0x108F JUMP JUMPDEST PUSH2 0x14D6 DUP2 PUSH2 0x10B9 JUMP JUMPDEST DUP5 ADD SWAP2 POP POP SWAP3 SWAP2 POP POP JUMP JUMPDEST PUSH1 0x0 PUSH2 0x14ED DUP4 DUP4 PUSH2 0x14A8 JUMP JUMPDEST SWAP1 POP SWAP3 SWAP2 POP POP JUMP JUMPDEST PUSH1 0x0 PUSH1 0x20 DUP3 ADD SWAP1 POP SWAP2 SWAP1 POP JUMP JUMPDEST PUSH1 0x0 PUSH2 0x150D DUP3 PUSH2 0x146B JUMP JUMPDEST PUSH2 0x1517 DUP2 DUP6 PUSH2 0x1476 JUMP JUMPDEST SWAP4 POP DUP4 PUSH1 0x20 DUP3 MUL DUP6 ADD PUSH2 0x1529 DUP6 PUSH2 0x1487 JUMP JUMPDEST DUP1 PUSH1 0x0 JUMPDEST DUP6 DUP2 LT ISZERO PUSH2 0x1565 JUMPI DUP5 DUP5 SUB DUP10 MSTORE DUP2 MLOAD PUSH2 0x1546 DUP6 DUP3 PUSH2 0x14E1 JUMP JUMPDEST SWAP5 POP PUSH2 0x1551 DUP4 PUSH2 0x14F5 JUMP JUMPDEST SWAP3 POP PUSH1 0x20 DUP11 ADD SWAP10 POP POP PUSH1 0x1 DUP2 ADD SWAP1 POP PUSH2 0x152D JUMP JUMPDEST POP DUP3 SWAP8 POP DUP8 SWAP6 POP POP POP POP POP POP SWAP3 SWAP2 POP POP JUMP JUMPDEST PUSH1 0x0 PUSH1 0x20 DUP3 ADD SWAP1 POP DUP2 DUP2 SUB PUSH1 0x0 DUP4 ADD MSTORE PUSH2 0x1591 DUP2 DUP5 PUSH2 0x1502 JUMP JUMPDEST SWAP1 POP SWAP3 SWAP2 POP POP JUMP JUMPDEST PUSH1 0x0 DUP2 SWAP1 POP SWAP2 SWAP1 POP JUMP JUMPDEST PUSH2 0x15AC DUP2 PUSH2 0x1599 JUMP JUMPDEST DUP3 MSTORE POP POP JUMP JUMPDEST PUSH1 0x0 PUSH1 0x20 DUP3 ADD SWAP1 POP PUSH2 0x15C7 PUSH1 0x0 DUP4 ADD DUP5 PUSH2 0x15A3 JUMP JUMPDEST SWAP3 SWAP2 POP POP JUMP JUMPDEST PUSH32 0x4E487B7100000000000000000000000000000000000000000000000000000000 PUSH1 0x0 MSTORE PUSH1 0x22 PUSH1 0x4 MSTORE PUSH1 0x24 PUSH1 0x0 REVERT JUMPDEST PUSH1 0x0 PUSH1 0x2 DUP3 DIV SWAP1 POP PUSH1 0x1 DUP3 AND DUP1 PUSH2 0x1614 JUMPI PUSH1 0x7F DUP3 AND SWAP2 POP JUMPDEST PUSH1 0x20 DUP3 LT DUP2 SUB PUSH2 0x1627 JUMPI PUSH2 0x1626 PUSH2 0x15CD JUMP JUMPDEST JUMPDEST POP SWAP2 SWAP1 POP JUMP JUMPDEST PUSH32 0x526571756972656420746F2062652061206D656D656265720000000000000000 PUSH1 0x0 DUP3 ADD MSTORE POP JUMP JUMPDEST PUSH1 0x0 PUSH2 0x1663 PUSH1 0x18 DUP4 PUSH2 0x107E JUMP JUMPDEST SWAP2 POP PUSH2 0x166E DUP3 PUSH2 0x162D JUMP JUMPDEST PUSH1 0x20 DUP3 ADD SWAP1 POP SWAP2 SWAP1 POP JUMP JUMPDEST PUSH1 0x0 PUSH1 0x20 DUP3 ADD SWAP1 POP DUP2 DUP2 SUB PUSH1 0x0 DUP4 ADD MSTORE PUSH2 0x1692 DUP2 PUSH2 0x1656 JUMP JUMPDEST SWAP1 POP SWAP2 SWAP1 POP JUMP JUMPDEST PUSH1 0x0 DUP2 MLOAD SWAP1 POP PUSH2 0x16A8 DUP2 PUSH2 0x1143 JUMP JUMPDEST SWAP3 SWAP2 POP POP JUMP JUMPDEST PUSH1 0x0 PUSH1 0x20 DUP3 DUP5 SUB SLT ISZERO PUSH2 0x16C4 JUMPI PUSH2 0x16C3 PUSH2 0x112F JUMP JUMPDEST JUMPDEST PUSH1 0x0 PUSH2 0x16D2 DUP5 DUP3 DUP6 ADD PUSH2 0x1699 JUMP JUMPDEST SWAP2 POP POP SWAP3 SWAP2 POP POP JUMP JUMPDEST PUSH32 0x496E76616C6964206E756D626572206F6620766F746573206F722070726F6365 PUSH1 0x0 DUP3 ADD MSTORE PUSH32 0x65642E0000000000000000000000000000000000000000000000000000000000 PUSH1 0x20 DUP3 ADD MSTORE POP JUMP JUMPDEST PUSH1 0x0 PUSH2 0x1737 PUSH1 0x23 DUP4 PUSH2 0x107E JUMP JUMPDEST SWAP2 POP PUSH2 0x1742 DUP3 PUSH2 0x16DB JUMP JUMPDEST PUSH1 0x40 DUP3 ADD SWAP1 POP SWAP2 SWAP1 POP JUMP JUMPDEST PUSH1 0x0 PUSH1 0x20 DUP3 ADD SWAP1 POP DUP2 DUP2 SUB PUSH1 0x0 DUP4 ADD MSTORE PUSH2 0x1766 DUP2 PUSH2 0x172A JUMP JUMPDEST SWAP1 POP SWAP2 SWAP1 POP JUMP JUMPDEST PUSH1 0x0 PUSH1 0x40 DUP3 ADD SWAP1 POP PUSH2 0x1782 PUSH1 0x0 DUP4 ADD DUP6 PUSH2 0x1049 JUMP JUMPDEST PUSH2 0x178F PUSH1 0x20 DUP4 ADD DUP5 PUSH2 0x1049 JUMP JUMPDEST SWAP4 SWAP3 POP POP POP JUMP JUMPDEST PUSH32 0x4E487B7100000000000000000000000000000000000000000000000000000000 PUSH1 0x0 MSTORE PUSH1 0x41 PUSH1 0x4 MSTORE PUSH1 0x24 PUSH1 0x0 REVERT JUMPDEST PUSH2 0x17CE DUP3 PUSH2 0x10B9 JUMP JUMPDEST DUP2 ADD DUP2 DUP2 LT PUSH8 0xFFFFFFFFFFFFFFFF DUP3 GT OR ISZERO PUSH2 0x17ED JUMPI PUSH2 0x17EC PUSH2 0x1796 JUMP JUMPDEST JUMPDEST DUP1 PUSH1 0x40 MSTORE POP POP POP JUMP JUMPDEST PUSH1 0x0 PUSH2 0x1800 PUSH2 0x1125 JUMP JUMPDEST SWAP1 POP PUSH2 0x180C DUP3 DUP3 PUSH2 0x17C5 JUMP JUMPDEST SWAP2 SWAP1 POP JUMP JUMPDEST PUSH1 0x0 PUSH8 0xFFFFFFFFFFFFFFFF DUP3 GT ISZERO PUSH2 0x182C JUMPI PUSH2 0x182B PUSH2 0x1796 JUMP JUMPDEST JUMPDEST PUSH1 0x20 DUP3 MUL SWAP1 POP PUSH1 0x20 DUP2 ADD SWAP1 POP SWAP2 SWAP1 POP JUMP JUMPDEST PUSH1 0x0 DUP2 MLOAD SWAP1 POP PUSH2 0x184C DUP2 PUSH2 0x119C JUMP JUMPDEST SWAP3 SWAP2 POP POP JUMP JUMPDEST PUSH1 0x0 PUSH2 0x1865 PUSH2 0x1860 DUP5 PUSH2 0x1811 JUMP JUMPDEST PUSH2 0x17F6 JUMP JUMPDEST SWAP1 POP DUP1 DUP4 DUP3 MSTORE PUSH1 0x20 DUP3 ADD SWAP1 POP PUSH1 0x20 DUP5 MUL DUP4 ADD DUP6 DUP2 GT ISZERO PUSH2 0x1888 JUMPI PUSH2 0x1887 PUSH2 0x1236 JUMP JUMPDEST JUMPDEST DUP4 JUMPDEST DUP2 DUP2 LT ISZERO PUSH2 0x18B1 JUMPI DUP1 PUSH2 0x189D DUP9 DUP3 PUSH2 0x183D JUMP JUMPDEST DUP5 MSTORE PUSH1 0x20 DUP5 ADD SWAP4 POP POP PUSH1 0x20 DUP2 ADD SWAP1 POP PUSH2 0x188A JUMP JUMPDEST POP POP POP SWAP4 SWAP3 POP POP POP JUMP JUMPDEST PUSH1 0x0 DUP3 PUSH1 0x1F DUP4 ADD SLT PUSH2 0x18D0 JUMPI PUSH2 0x18CF PUSH2 0x122C JUMP JUMPDEST JUMPDEST DUP2 MLOAD PUSH2 0x18E0 DUP5 DUP3 PUSH1 0x20 DUP7 ADD PUSH2 0x1852 JUMP JUMPDEST SWAP2 POP POP SWAP3 SWAP2 POP POP JUMP JUMPDEST PUSH1 0x0 PUSH1 0x20 DUP3 DUP5 SUB SLT ISZERO PUSH2 0x18FF JUMPI PUSH2 0x18FE PUSH2 0x112F JUMP JUMPDEST JUMPDEST PUSH1 0x0 DUP3 ADD MLOAD PUSH8 0xFFFFFFFFFFFFFFFF DUP2 GT ISZERO PUSH2 0x191D JUMPI PUSH2 0x191C PUSH2 0x1134 JUMP JUMPDEST JUMPDEST PUSH2 0x1929 DUP5 DUP3 DUP6 ADD PUSH2 0x18BB JUMP JUMPDEST SWAP2 POP POP SWAP3 SWAP2 POP POP JUMP JUMPDEST PUSH32 0x416C726561647920766F74656400000000000000000000000000000000000000 PUSH1 0x0 DUP3 ADD MSTORE POP JUMP JUMPDEST PUSH1 0x0 PUSH2 0x1968 PUSH1 0xD DUP4 PUSH2 0x107E JUMP JUMPDEST SWAP2 POP PUSH2 0x1973 DUP3 PUSH2 0x1932 JUMP JUMPDEST PUSH1 0x20 DUP3 ADD SWAP1 POP SWAP2 SWAP1 POP JUMP JUMPDEST PUSH1 0x0 PUSH1 0x20 DUP3 ADD SWAP1 POP DUP2 DUP2 SUB PUSH1 0x0 DUP4 ADD MSTORE PUSH2 0x1997 DUP2 PUSH2 0x195B JUMP JUMPDEST SWAP1 POP SWAP2 SWAP1 POP JUMP JUMPDEST PUSH32 0x4E487B7100000000000000000000000000000000000000000000000000000000 PUSH1 0x0 MSTORE PUSH1 0x11 PUSH1 0x4 MSTORE PUSH1 0x24 PUSH1 0x0 REVERT JUMPDEST PUSH1 0x0 PUSH2 0x19D8 DUP3 PUSH2 0x1599 JUMP JUMPDEST SWAP2 POP PUSH2 0x19E3 DUP4 PUSH2 0x1599 JUMP JUMPDEST SWAP3 POP DUP3 DUP3 ADD SWAP1 POP DUP3 DUP2 SLT ISZERO PUSH1 0x0 DUP4 SLT AND DUP4 DUP3 SLT PUSH1 0x0 DUP5 SLT ISZERO AND OR ISZERO PUSH2 0x1A0B JUMPI PUSH2 0x1A0A PUSH2 0x199E JUMP JUMPDEST JUMPDEST SWAP3 SWAP2 POP POP JUMP INVALID LOG2 PUSH5 0x6970667358 0x22 SLT KECCAK256 0x5C 0xD0 DUP6 RETURNDATACOPY KECCAK256 0xFC 0xCF ADDRESS CHAINID RETURN CALLVALUE 0xBD 0xD6 0xBC MUL SWAP11 PUSH31 0x81DFD7E042C295AED2D9E1976A2C8864736F6C634300081100336080604052 PUSH3 0xF4240 PUSH1 0x8 SSTORE CALLVALUE DUP1 ISZERO PUSH3 0x18 JUMPI PUSH1 0x0 DUP1 REVERT JUMPDEST POP PUSH1 0x40 MLOAD PUSH3 0x2083 CODESIZE SUB DUP1 PUSH3 0x2083 DUP4 CODECOPY DUP2 DUP2 ADD PUSH1 0x40 MSTORE DUP2 ADD SWAP1 PUSH3 0x3E SWAP2 SWAP1 PUSH3 0x132 JUMP JUMPDEST DUP2 PUSH1 0x5 PUSH1 0x0 PUSH2 0x100 EXP DUP2 SLOAD DUP2 PUSH20 0xFFFFFFFFFFFFFFFFFFFFFFFFFFFFFFFFFFFFFFFF MUL NOT AND SWAP1 DUP4 PUSH20 0xFFFFFFFFFFFFFFFFFFFFFFFFFFFFFFFFFFFFFFFF AND MUL OR SWAP1 SSTORE POP DUP1 PUSH1 0x6 PUSH1 0x0 PUSH2 0x100 EXP DUP2 SLOAD DUP2 PUSH20 0xFFFFFFFFFFFFFFFFFFFFFFFFFFFFFFFFFFFFFFFF MUL NOT AND SWAP1 DUP4 PUSH20 0xFFFFFFFFFFFFFFFFFFFFFFFFFFFFFFFFFFFFFFFF AND MUL OR SWAP1 SSTORE POP POP POP PUSH3 0x179 JUMP JUMPDEST PUSH1 0x0 DUP1 REVERT JUMPDEST PUSH1 0x0 PUSH20 0xFFFFFFFFFFFFFFFFFFFFFFFFFFFFFFFFFFFFFFFF DUP3 AND SWAP1 POP SWAP2 SWAP1 POP JUMP JUMPDEST PUSH1 0x0 PUSH3 0xFA DUP3 PUSH3 0xCD JUMP JUMPDEST SWAP1 POP SWAP2 SWAP1 POP JUMP JUMPDEST PUSH3 0x10C DUP2 PUSH3 0xED JUMP JUMPDEST DUP2 EQ PUSH3 0x118 JUMPI PUSH1 0x0 DUP1 REVERT JUMPDEST POP JUMP JUMPDEST PUSH1 0x0 DUP2 MLOAD SWAP1 POP PUSH3 0x12C DUP2 PUSH3 0x101 JUMP JUMPDEST SWAP3 SWAP2 POP POP JUMP JUMPDEST PUSH1 0x0 DUP1 PUSH1 0x40 DUP4 DUP6 SUB SLT ISZERO PUSH3 0x14C JUMPI PUSH3 0x14B PUSH3 0xC8 JUMP JUMPDEST JUMPDEST PUSH1 0x0 PUSH3 0x15C DUP6 DUP3 DUP7 ADD PUSH3 0x11B JUMP JUMPDEST SWAP3 POP POP PUSH1 0x20 PUSH3 0x16F DUP6 DUP3 DUP7 ADD PUSH3 0x11B JUMP JUMPDEST SWAP2 POP POP SWAP3 POP SWAP3 SWAP1 POP JUMP JUMPDEST PUSH2 0x1EFA DUP1 PUSH3 0x189 PUSH1 0x0 CODECOPY PUSH1 0x0 RETURN INVALID PUSH1 0x80 PUSH1 0x40 MSTORE PUSH1 0x4 CALLDATASIZE LT PUSH2 0x9B JUMPI PUSH1 0x0 CALLDATALOAD PUSH1 0xE0 SHR DUP1 PUSH4 0x8C468CD4 GT PUSH2 0x64 JUMPI DUP1 PUSH4 0x8C468CD4 EQ PUSH2 0x183 JUMPI DUP1 PUSH4 0x930235B4 EQ PUSH2 0x1C0 JUMPI DUP1 PUSH4 0xA10C8A97 EQ PUSH2 0x1EB JUMPI DUP1 PUSH4 0xB69EF8A8 EQ PUSH2 0x216 JUMPI DUP1 PUSH4 0xD9A87535 EQ PUSH2 0x241 JUMPI DUP1 PUSH4 0xFD591902 EQ PUSH2 0x27E JUMPI PUSH2 0x9B JUMP JUMPDEST DUP1 PUSH3 0xAD808F EQ PUSH2 0xA0 JUMPI DUP1 PUSH4 0x1292A282 EQ PUSH2 0xDD JUMPI DUP1 PUSH4 0x273F868E EQ PUSH2 0x106 JUMPI DUP1 PUSH4 0x28F4694C EQ PUSH2 0x12F JUMPI DUP1 PUSH4 0x455772D2 EQ PUSH2 0x158 JUMPI JUMPDEST PUSH1 0x0 DUP1 REVERT JUMPDEST CALLVALUE DUP1 ISZERO PUSH2 0xAC JUMPI PUSH1 0x0 DUP1 REVERT JUMPDEST POP PUSH2 0xC7 PUSH1 0x4 DUP1 CALLDATASIZE SUB DUP2 ADD SWAP1 PUSH2 0xC2 SWAP2 SWAP1 PUSH2 0x12CA JUMP JUMPDEST PUSH2 0x29A JUMP JUMPDEST PUSH1 0x40 MLOAD PUSH2 0xD4 SWAP2 SWAP1 PUSH2 0x1387 JUMP JUMPDEST PUSH1 0x40 MLOAD DUP1 SWAP2 SUB SWAP1 RETURN JUMPDEST CALLVALUE DUP1 ISZERO PUSH2 0xE9 JUMPI PUSH1 0x0 DUP1 REVERT JUMPDEST POP PUSH2 0x104 PUSH1 0x4 DUP1 CALLDATASIZE SUB DUP2 ADD SWAP1 PUSH2 0xFF SWAP2 SWAP1 PUSH2 0x12CA JUMP JUMPDEST PUSH2 0x46C JUMP JUMPDEST STOP JUMPDEST CALLVALUE DUP1 ISZERO PUSH2 0x112 JUMPI PUSH1 0x0 DUP1 REVERT JUMPDEST POP PUSH2 0x12D PUSH1 0x4 DUP1 CALLDATASIZE SUB DUP2 ADD SWAP1 PUSH2 0x128 SWAP2 SWAP1 PUSH2 0x12CA JUMP JUMPDEST PUSH2 0x555 JUMP JUMPDEST STOP JUMPDEST CALLVALUE DUP1 ISZERO PUSH2 0x13B JUMPI PUSH1 0x0 DUP1 REVERT JUMPDEST POP PUSH2 0x156 PUSH1 0x4 DUP1 CALLDATASIZE SUB DUP2 ADD SWAP1 PUSH2 0x151 SWAP2 SWAP1 PUSH2 0x12CA JUMP JUMPDEST PUSH2 0x779 JUMP JUMPDEST STOP JUMPDEST CALLVALUE DUP1 ISZERO PUSH2 0x164 JUMPI PUSH1 0x0 DUP1 REVERT JUMPDEST POP PUSH2 0x16D PUSH2 0xB57 JUMP JUMPDEST PUSH1 0x40 MLOAD PUSH2 0x17A SWAP2 SWAP1 PUSH2 0x1467 JUMP JUMPDEST PUSH1 0x40 MLOAD DUP1 SWAP2 SUB SWAP1 RETURN JUMPDEST CALLVALUE DUP1 ISZERO PUSH2 0x18F JUMPI PUSH1 0x0 DUP1 REVERT JUMPDEST POP PUSH2 0x1AA PUSH1 0x4 DUP1 CALLDATASIZE SUB DUP2 ADD SWAP1 PUSH2 0x1A5 SWAP2 SWAP1 PUSH2 0x14BF JUMP JUMPDEST PUSH2 0xC77 JUMP JUMPDEST PUSH1 0x40 MLOAD PUSH2 0x1B7 SWAP2 SWAP1 PUSH2 0x14FB JUMP JUMPDEST PUSH1 0x40 MLOAD DUP1 SWAP2 SUB SWAP1 RETURN JUMPDEST CALLVALUE DUP1 ISZERO PUSH2 0x1CC JUMPI PUSH1 0x0 DUP1 REVERT JUMPDEST POP PUSH2 0x1D5 PUSH2 0xCB6 JUMP JUMPDEST PUSH1 0x40 MLOAD PUSH2 0x1E2 SWAP2 SWAP1 PUSH2 0x14FB JUMP JUMPDEST PUSH1 0x40 MLOAD DUP1 SWAP2 SUB SWAP1 RETURN JUMPDEST CALLVALUE DUP1 ISZERO PUSH2 0x1F7 JUMPI PUSH1 0x0 DUP1 REVERT JUMPDEST POP PUSH2 0x200 PUSH2 0xCDC JUMP JUMPDEST PUSH1 0x40 MLOAD PUSH2 0x20D SWAP2 SWAP1 PUSH2 0x1525 JUMP JUMPDEST PUSH1 0x40 MLOAD DUP1 SWAP2 SUB SWAP1 RETURN JUMPDEST CALLVALUE DUP1 ISZERO PUSH2 0x222 JUMPI PUSH1 0x0 DUP1 REVERT JUMPDEST POP PUSH2 0x22B PUSH2 0xCE2 JUMP JUMPDEST PUSH1 0x40 MLOAD PUSH2 0x238 SWAP2 SWAP1 PUSH2 0x1525 JUMP JUMPDEST PUSH1 0x40 MLOAD DUP1 SWAP2 SUB SWAP1 RETURN JUMPDEST CALLVALUE DUP1 ISZERO PUSH2 0x24D JUMPI PUSH1 0x0 DUP1 REVERT JUMPDEST POP PUSH2 0x268 PUSH1 0x4 DUP1 CALLDATASIZE SUB DUP2 ADD SWAP1 PUSH2 0x263 SWAP2 SWAP1 PUSH2 0x12CA JUMP JUMPDEST PUSH2 0xCE8 JUMP JUMPDEST PUSH1 0x40 MLOAD PUSH2 0x275 SWAP2 SWAP1 PUSH2 0x1525 JUMP JUMPDEST PUSH1 0x40 MLOAD DUP1 SWAP2 SUB SWAP1 RETURN JUMPDEST PUSH2 0x298 PUSH1 0x4 DUP1 CALLDATASIZE SUB DUP2 ADD SWAP1 PUSH2 0x293 SWAP2 SWAP1 PUSH2 0x15A5 JUMP JUMPDEST PUSH2 0xD34 JUMP JUMPDEST STOP JUMPDEST PUSH1 0x60 CALLER PUSH1 0x5 PUSH1 0x0 SWAP1 SLOAD SWAP1 PUSH2 0x100 EXP SWAP1 DIV PUSH20 0xFFFFFFFFFFFFFFFFFFFFFFFFFFFFFFFFFFFFFFFF AND PUSH20 0xFFFFFFFFFFFFFFFFFFFFFFFFFFFFFFFFFFFFFFFF AND PUSH4 0x39AC7A08 DUP3 PUSH1 0x6 PUSH1 0x0 SWAP1 SLOAD SWAP1 PUSH2 0x100 EXP SWAP1 DIV PUSH20 0xFFFFFFFFFFFFFFFFFFFFFFFFFFFFFFFFFFFFFFFF AND PUSH1 0x40 MLOAD DUP4 PUSH4 0xFFFFFFFF AND PUSH1 0xE0 SHL DUP2 MSTORE PUSH1 0x4 ADD PUSH2 0x31C SWAP3 SWAP2 SWAP1 PUSH2 0x15F2 JUMP JUMPDEST PUSH1 0x20 PUSH1 0x40 MLOAD DUP1 DUP4 SUB DUP2 DUP7 GAS STATICCALL ISZERO DUP1 ISZERO PUSH2 0x339 JUMPI RETURNDATASIZE PUSH1 0x0 DUP1 RETURNDATACOPY RETURNDATASIZE PUSH1 0x0 REVERT JUMPDEST POP POP POP POP PUSH1 0x40 MLOAD RETURNDATASIZE PUSH1 0x1F NOT PUSH1 0x1F DUP3 ADD AND DUP3 ADD DUP1 PUSH1 0x40 MSTORE POP DUP2 ADD SWAP1 PUSH2 0x35D SWAP2 SWAP1 PUSH2 0x1653 JUMP JUMPDEST PUSH2 0x39C JUMPI PUSH1 0x40 MLOAD PUSH32 0x8C379A000000000000000000000000000000000000000000000000000000000 DUP2 MSTORE PUSH1 0x4 ADD PUSH2 0x393 SWAP1 PUSH2 0x16CC JUMP JUMPDEST PUSH1 0x40 MLOAD DUP1 SWAP2 SUB SWAP1 REVERT JUMPDEST PUSH1 0x4 PUSH1 0x0 DUP5 PUSH20 0xFFFFFFFFFFFFFFFFFFFFFFFFFFFFFFFFFFFFFFFF AND PUSH20 0xFFFFFFFFFFFFFFFFFFFFFFFFFFFFFFFFFFFFFFFF AND DUP2 MSTORE PUSH1 0x20 ADD SWAP1 DUP2 MSTORE PUSH1 0x20 ADD PUSH1 0x0 KECCAK256 DUP1 SLOAD PUSH2 0x3E6 SWAP1 PUSH2 0x171B JUMP JUMPDEST DUP1 PUSH1 0x1F ADD PUSH1 0x20 DUP1 SWAP2 DIV MUL PUSH1 0x20 ADD PUSH1 0x40 MLOAD SWAP1 DUP2 ADD PUSH1 0x40 MSTORE DUP1 SWAP3 SWAP2 SWAP1 DUP2 DUP2 MSTORE PUSH1 0x20 ADD DUP3 DUP1 SLOAD PUSH2 0x412 SWAP1 PUSH2 0x171B JUMP JUMPDEST DUP1 ISZERO PUSH2 0x45F JUMPI DUP1 PUSH1 0x1F LT PUSH2 0x434 JUMPI PUSH2 0x100 DUP1 DUP4 SLOAD DIV MUL DUP4 MSTORE SWAP2 PUSH1 0x20 ADD SWAP2 PUSH2 0x45F JUMP JUMPDEST DUP3 ADD SWAP2 SWAP1 PUSH1 0x0 MSTORE PUSH1 0x20 PUSH1 0x0 KECCAK256 SWAP1 JUMPDEST DUP2 SLOAD DUP2 MSTORE SWAP1 PUSH1 0x1 ADD SWAP1 PUSH1 0x20 ADD DUP1 DUP4 GT PUSH2 0x442 JUMPI DUP3 SWAP1 SUB PUSH1 0x1F AND DUP3 ADD SWAP2 JUMPDEST POP POP POP POP POP SWAP2 POP POP SWAP2 SWAP1 POP JUMP JUMPDEST CALLER PUSH1 0x6 PUSH1 0x0 SWAP1 SLOAD SWAP1 PUSH2 0x100 EXP SWAP1 DIV PUSH20 0xFFFFFFFFFFFFFFFFFFFFFFFFFFFFFFFFFFFFFFFF AND PUSH20 0xFFFFFFFFFFFFFFFFFFFFFFFFFFFFFFFFFFFFFFFF AND DUP2 PUSH20 0xFFFFFFFFFFFFFFFFFFFFFFFFFFFFFFFFFFFFFFFF AND EQ PUSH2 0x4FD JUMPI PUSH1 0x40 MLOAD PUSH32 0x8C379A000000000000000000000000000000000000000000000000000000000 DUP2 MSTORE PUSH1 0x4 ADD PUSH2 0x4F4 SWAP1 PUSH2 0x1798 JUMP JUMPDEST PUSH1 0x40 MLOAD DUP1 SWAP2 SUB SWAP1 REVERT JUMPDEST PUSH2 0x506 DUP3 PUSH2 0x1098 JUMP JUMPDEST PUSH1 0x1 PUSH1 0x0 CALLER PUSH20 0xFFFFFFFFFFFFFFFFFFFFFFFFFFFFFFFFFFFFFFFF AND PUSH20 0xFFFFFFFFFFFFFFFFFFFFFFFFFFFFFFFFFFFFFFFF AND DUP2 MSTORE PUSH1 0x20 ADD SWAP1 DUP2 MSTORE PUSH1 0x20 ADD PUSH1 0x0 KECCAK256 PUSH1 0x0 PUSH2 0x551 SWAP2 SWAP1 PUSH2 0x1224 JUMP JUMPDEST POP POP JUMP JUMPDEST CALLER PUSH1 0x6 PUSH1 0x0 SWAP1 SLOAD SWAP1 PUSH2 0x100 EXP SWAP1 DIV PUSH20 0xFFFFFFFFFFFFFFFFFFFFFFFFFFFFFFFFFFFFFFFF AND PUSH20 0xFFFFFFFFFFFFFFFFFFFFFFFFFFFFFFFFFFFFFFFF AND DUP2 PUSH20 0xFFFFFFFFFFFFFFFFFFFFFFFFFFFFFFFFFFFFFFFF AND EQ PUSH2 0x5E6 JUMPI PUSH1 0x40 MLOAD PUSH32 0x8C379A000000000000000000000000000000000000000000000000000000000 DUP2 MSTORE PUSH1 0x4 ADD PUSH2 0x5DD SWAP1 PUSH2 0x1798 JUMP JUMPDEST PUSH1 0x40 MLOAD DUP1 SWAP2 SUB SWAP1 REVERT JUMPDEST PUSH1 0x3 PUSH1 0x0 DUP4 PUSH20 0xFFFFFFFFFFFFFFFFFFFFFFFFFFFFFFFFFFFFFFFF AND PUSH20 0xFFFFFFFFFFFFFFFFFFFFFFFFFFFFFFFFFFFFFFFF AND DUP2 MSTORE PUSH1 0x20 ADD SWAP1 DUP2 MSTORE PUSH1 0x20 ADD PUSH1 0x0 KECCAK256 PUSH1 0x0 SWAP1 SLOAD SWAP1 PUSH2 0x100 EXP SWAP1 DIV PUSH1 0xFF AND PUSH2 0x672 JUMPI PUSH1 0x40 MLOAD PUSH32 0x8C379A000000000000000000000000000000000000000000000000000000000 DUP2 MSTORE PUSH1 0x4 ADD PUSH2 0x669 SWAP1 PUSH2 0x1804 JUMP JUMPDEST PUSH1 0x40 MLOAD DUP1 SWAP2 SUB SWAP1 REVERT JUMPDEST PUSH1 0x0 PUSH1 0x3 PUSH1 0x0 DUP5 PUSH20 0xFFFFFFFFFFFFFFFFFFFFFFFFFFFFFFFFFFFFFFFF AND PUSH20 0xFFFFFFFFFFFFFFFFFFFFFFFFFFFFFFFFFFFFFFFF AND DUP2 MSTORE PUSH1 0x20 ADD SWAP1 DUP2 MSTORE PUSH1 0x20 ADD PUSH1 0x0 KECCAK256 PUSH1 0x0 PUSH2 0x100 EXP DUP2 SLOAD DUP2 PUSH1 0xFF MUL NOT AND SWAP1 DUP4 ISZERO ISZERO MUL OR SWAP1 SSTORE POP PUSH1 0x1 PUSH1 0x2 PUSH1 0x0 CALLER PUSH20 0xFFFFFFFFFFFFFFFFFFFFFFFFFFFFFFFFFFFFFFFF AND PUSH20 0xFFFFFFFFFFFFFFFFFFFFFFFFFFFFFFFFFFFFFFFF AND DUP2 MSTORE PUSH1 0x20 ADD SWAP1 DUP2 MSTORE PUSH1 0x20 ADD PUSH1 0x0 KECCAK256 PUSH1 0x0 DUP3 DUP3 SLOAD PUSH2 0x71A SWAP2 SWAP1 PUSH2 0x185D JUMP JUMPDEST SWAP3 POP POP DUP2 SWAP1 SSTORE POP PUSH2 0x72A DUP3 PUSH2 0x1098 JUMP JUMPDEST PUSH1 0x1 PUSH1 0x0 CALLER PUSH20 0xFFFFFFFFFFFFFFFFFFFFFFFFFFFFFFFFFFFFFFFF AND PUSH20 0xFFFFFFFFFFFFFFFFFFFFFFFFFFFFFFFFFFFFFFFF AND DUP2 MSTORE PUSH1 0x20 ADD SWAP1 DUP2 MSTORE PUSH1 0x20 ADD PUSH1 0x0 KECCAK256 PUSH1 0x0 PUSH2 0x775 SWAP2 SWAP1 PUSH2 0x1224 JUMP JUMPDEST POP POP JUMP JUMPDEST CALLER PUSH1 0x5 PUSH1 0x0 SWAP1 SLOAD SWAP1 PUSH2 0x100 EXP SWAP1 DIV PUSH20 0xFFFFFFFFFFFFFFFFFFFFFFFFFFFFFFFFFFFFFFFF AND PUSH20 0xFFFFFFFFFFFFFFFFFFFFFFFFFFFFFFFFFFFFFFFF AND PUSH4 0x39AC7A08 DUP3 PUSH1 0x6 PUSH1 0x0 SWAP1 SLOAD SWAP1 PUSH2 0x100 EXP SWAP1 DIV PUSH20 0xFFFFFFFFFFFFFFFFFFFFFFFFFFFFFFFFFFFFFFFF AND PUSH1 0x40 MLOAD DUP4 PUSH4 0xFFFFFFFF AND PUSH1 0xE0 SHL DUP2 MSTORE PUSH1 0x4 ADD PUSH2 0x7F9 SWAP3 SWAP2 SWAP1 PUSH2 0x15F2 JUMP JUMPDEST PUSH1 0x20 PUSH1 0x40 MLOAD DUP1 DUP4 SUB DUP2 DUP7 GAS STATICCALL ISZERO DUP1 ISZERO PUSH2 0x816 JUMPI RETURNDATASIZE PUSH1 0x0 DUP1 RETURNDATACOPY RETURNDATASIZE PUSH1 0x0 REVERT JUMPDEST POP POP POP POP PUSH1 0x40 MLOAD RETURNDATASIZE PUSH1 0x1F NOT PUSH1 0x1F DUP3 ADD AND DUP3 ADD DUP1 PUSH1 0x40 MSTORE POP DUP2 ADD SWAP1 PUSH2 0x83A SWAP2 SWAP1 PUSH2 0x1653 JUMP JUMPDEST PUSH2 0x879 JUMPI PUSH1 0x40 MLOAD PUSH32 0x8C379A000000000000000000000000000000000000000000000000000000000 DUP2 MSTORE PUSH1 0x4 ADD PUSH2 0x870 SWAP1 PUSH2 0x16CC JUMP JUMPDEST PUSH1 0x40 MLOAD DUP1 SWAP2 SUB SWAP1 REVERT JUMPDEST PUSH1 0x3 PUSH1 0x0 DUP4 PUSH20 0xFFFFFFFFFFFFFFFFFFFFFFFFFFFFFFFFFFFFFFFF AND PUSH20 0xFFFFFFFFFFFFFFFFFFFFFFFFFFFFFFFFFFFFFFFF AND DUP2 MSTORE PUSH1 0x20 ADD SWAP1 DUP2 MSTORE PUSH1 0x20 ADD PUSH1 0x0 KECCAK256 PUSH1 0x0 SWAP1 SLOAD SWAP1 PUSH2 0x100 EXP SWAP1 DIV PUSH1 0xFF AND PUSH2 0x905 JUMPI PUSH1 0x40 MLOAD PUSH32 0x8C379A000000000000000000000000000000000000000000000000000000000 DUP2 MSTORE PUSH1 0x4 ADD PUSH2 0x8FC SWAP1 PUSH2 0x18EC JUMP JUMPDEST PUSH1 0x40 MLOAD DUP1 SWAP2 SUB SWAP1 REVERT JUMPDEST PUSH1 0x0 DUP1 JUMPDEST PUSH1 0x1 PUSH1 0x0 DUP6 PUSH20 0xFFFFFFFFFFFFFFFFFFFFFFFFFFFFFFFFFFFFFFFF AND PUSH20 0xFFFFFFFFFFFFFFFFFFFFFFFFFFFFFFFFFFFFFFFF AND DUP2 MSTORE PUSH1 0x20 ADD SWAP1 DUP2 MSTORE PUSH1 0x20 ADD PUSH1 0x0 KECCAK256 DUP1 SLOAD SWAP1 POP DUP2 LT ISZERO PUSH2 0xA19 JUMPI CALLER PUSH20 0xFFFFFFFFFFFFFFFFFFFFFFFFFFFFFFFFFFFFFFFF AND PUSH1 0x1 PUSH1 0x0 DUP7 PUSH20 0xFFFFFFFFFFFFFFFFFFFFFFFFFFFFFFFFFFFFFFFF AND PUSH20 0xFFFFFFFFFFFFFFFFFFFFFFFFFFFFFFFFFFFFFFFF AND DUP2 MSTORE PUSH1 0x20 ADD SWAP1 DUP2 MSTORE PUSH1 0x20 ADD PUSH1 0x0 KECCAK256 DUP3 DUP2 SLOAD DUP2 LT PUSH2 0x9BB JUMPI PUSH2 0x9BA PUSH2 0x190C JUMP JUMPDEST JUMPDEST SWAP1 PUSH1 0x0 MSTORE PUSH1 0x20 PUSH1 0x0 KECCAK256 ADD PUSH1 0x0 SWAP1 SLOAD SWAP1 PUSH2 0x100 EXP SWAP1 DIV PUSH20 0xFFFFFFFFFFFFFFFFFFFFFFFFFFFFFFFFFFFFFFFF AND PUSH20 0xFFFFFFFFFFFFFFFFFFFFFFFFFFFFFFFFFFFFFFFF AND SUB PUSH2 0xA06 JUMPI PUSH1 0x1 SWAP2 POP JUMPDEST DUP1 DUP1 PUSH2 0xA11 SWAP1 PUSH2 0x193B JUMP JUMPDEST SWAP2 POP POP PUSH2 0x909 JUMP JUMPDEST POP DUP1 ISZERO PUSH2 0xA5B JUMPI PUSH1 0x40 MLOAD PUSH32 0x8C379A000000000000000000000000000000000000000000000000000000000 DUP2 MSTORE PUSH1 0x4 ADD PUSH2 0xA52 SWAP1 PUSH2 0x19CF JUMP JUMPDEST PUSH1 0x40 MLOAD DUP1 SWAP2 SUB SWAP1 REVERT JUMPDEST PUSH1 0x1 PUSH1 0x0 DUP5 PUSH20 0xFFFFFFFFFFFFFFFFFFFFFFFFFFFFFFFFFFFFFFFF AND PUSH20 0xFFFFFFFFFFFFFFFFFFFFFFFFFFFFFFFFFFFFFFFF AND DUP2 MSTORE PUSH1 0x20 ADD SWAP1 DUP2 MSTORE PUSH1 0x20 ADD PUSH1 0x0 KECCAK256 CALLER SWAP1 DUP1 PUSH1 0x1 DUP2 SLOAD ADD DUP1 DUP3 SSTORE DUP1 SWAP2 POP POP PUSH1 0x1 SWAP1 SUB SWAP1 PUSH1 0x0 MSTORE PUSH1 0x20 PUSH1 0x0 KECCAK256 ADD PUSH1 0x0 SWAP1 SWAP2 SWAP1 SWAP2 SWAP1 SWAP2 PUSH2 0x100 EXP DUP2 SLOAD DUP2 PUSH20 0xFFFFFFFFFFFFFFFFFFFFFFFFFFFFFFFFFFFFFFFF MUL NOT AND SWAP1 DUP4 PUSH20 0xFFFFFFFFFFFFFFFFFFFFFFFFFFFFFFFFFFFFFFFF AND MUL OR SWAP1 SSTORE POP PUSH1 0x1 PUSH1 0x2 PUSH1 0x0 DUP6 PUSH20 0xFFFFFFFFFFFFFFFFFFFFFFFFFFFFFFFFFFFFFFFF AND PUSH20 0xFFFFFFFFFFFFFFFFFFFFFFFFFFFFFFFFFFFFFFFF AND DUP2 MSTORE PUSH1 0x20 ADD SWAP1 DUP2 MSTORE PUSH1 0x20 ADD PUSH1 0x0 KECCAK256 PUSH1 0x0 DUP3 DUP3 SLOAD PUSH2 0xB4B SWAP2 SWAP1 PUSH2 0x19EF JUMP JUMPDEST SWAP3 POP POP DUP2 SWAP1 SSTORE POP POP POP POP JUMP JUMPDEST PUSH1 0x60 CALLER PUSH1 0x6 PUSH1 0x0 SWAP1 SLOAD SWAP1 PUSH2 0x100 EXP SWAP1 DIV PUSH20 0xFFFFFFFFFFFFFFFFFFFFFFFFFFFFFFFFFFFFFFFF AND PUSH20 0xFFFFFFFFFFFFFFFFFFFFFFFFFFFFFFFFFFFFFFFF AND DUP2 PUSH20 0xFFFFFFFFFFFFFFFFFFFFFFFFFFFFFFFFFFFFFFFF AND EQ PUSH2 0xBEA JUMPI PUSH1 0x40 MLOAD PUSH32 0x8C379A000000000000000000000000000000000000000000000000000000000 DUP2 MSTORE PUSH1 0x4 ADD PUSH2 0xBE1 SWAP1 PUSH2 0x1798 JUMP JUMPDEST PUSH1 0x40 MLOAD DUP1 SWAP2 SUB SWAP1 REVERT JUMPDEST PUSH1 0x0 DUP1 SLOAD DUP1 PUSH1 0x20 MUL PUSH1 0x20 ADD PUSH1 0x40 MLOAD SWAP1 DUP2 ADD PUSH1 0x40 MSTORE DUP1 SWAP3 SWAP2 SWAP1 DUP2 DUP2 MSTORE PUSH1 0x20 ADD DUP3 DUP1 SLOAD DUP1 ISZERO PUSH2 0xC6C JUMPI PUSH1 0x20 MUL DUP3 ADD SWAP2 SWAP1 PUSH1 0x0 MSTORE PUSH1 0x20 PUSH1 0x0 KECCAK256 SWAP1 JUMPDEST DUP2 PUSH1 0x0 SWAP1 SLOAD SWAP1 PUSH2 0x100 EXP SWAP1 DIV PUSH20 0xFFFFFFFFFFFFFFFFFFFFFFFFFFFFFFFFFFFFFFFF AND PUSH20 0xFFFFFFFFFFFFFFFFFFFFFFFFFFFFFFFFFFFFFFFF AND DUP2 MSTORE PUSH1 0x20 ADD SWAP1 PUSH1 0x1 ADD SWAP1 DUP1 DUP4 GT PUSH2 0xC22 JUMPI JUMPDEST POP POP POP POP POP SWAP2 POP POP SWAP1 JUMP JUMPDEST PUSH1 0x0 DUP2 DUP2 SLOAD DUP2 LT PUSH2 0xC87 JUMPI PUSH1 0x0 DUP1 REVERT JUMPDEST SWAP1 PUSH1 0x0 MSTORE PUSH1 0x20 PUSH1 0x0 KECCAK256 ADD PUSH1 0x0 SWAP2 POP SLOAD SWAP1 PUSH2 0x100 EXP SWAP1 DIV PUSH20 0xFFFFFFFFFFFFFFFFFFFFFFFFFFFFFFFFFFFFFFFF AND DUP2 JUMP JUMPDEST PUSH1 0x6 PUSH1 0x0 SWAP1 SLOAD SWAP1 PUSH2 0x100 EXP SWAP1 DIV PUSH20 0xFFFFFFFFFFFFFFFFFFFFFFFFFFFFFFFFFFFFFFFF AND DUP2 JUMP JUMPDEST PUSH1 0x8 SLOAD DUP2 JUMP JUMPDEST PUSH1 0x7 SLOAD DUP2 JUMP JUMPDEST PUSH1 0x0 PUSH1 0x1 PUSH1 0x0 DUP4 PUSH20 0xFFFFFFFFFFFFFFFFFFFFFFFFFFFFFFFFFFFFFFFF AND PUSH20 0xFFFFFFFFFFFFFFFFFFFFFFFFFFFFFFFFFFFFFFFF AND DUP2 MSTORE PUSH1 0x20 ADD SWAP1 DUP2 MSTORE PUSH1 0x20 ADD PUSH1 0x0 KECCAK256 DUP1 SLOAD SWAP1 POP SWAP1 POP SWAP2 SWAP1 POP JUMP JUMPDEST PUSH1 0x5 PUSH1 0x0 SWAP1 SLOAD SWAP1 PUSH2 0x100 EXP SWAP1 DIV PUSH20 0xFFFFFFFFFFFFFFFFFFFFFFFFFFFFFFFFFFFFFFFF AND PUSH20 0xFFFFFFFFFFFFFFFFFFFFFFFFFFFFFFFFFFFFFFFF AND PUSH4 0x39AC7A08 CALLER PUSH1 0x6 PUSH1 0x0 SWAP1 SLOAD SWAP1 PUSH2 0x100 EXP SWAP1 DIV PUSH20 0xFFFFFFFFFFFFFFFFFFFFFFFFFFFFFFFFFFFFFFFF AND PUSH1 0x40 MLOAD DUP4 PUSH4 0xFFFFFFFF AND PUSH1 0xE0 SHL DUP2 MSTORE PUSH1 0x4 ADD PUSH2 0xDB3 SWAP3 SWAP2 SWAP1 PUSH2 0x15F2 JUMP JUMPDEST PUSH1 0x20 PUSH1 0x40 MLOAD DUP1 DUP4 SUB DUP2 DUP7 GAS STATICCALL ISZERO DUP1 ISZERO PUSH2 0xDD0 JUMPI RETURNDATASIZE PUSH1 0x0 DUP1 RETURNDATACOPY RETURNDATASIZE PUSH1 0x0 REVERT JUMPDEST POP POP POP POP PUSH1 0x40 MLOAD RETURNDATASIZE PUSH1 0x1F NOT PUSH1 0x1F DUP3 ADD AND DUP3 ADD DUP1 PUSH1 0x40 MSTORE POP DUP2 ADD SWAP1 PUSH2 0xDF4 SWAP2 SWAP1 PUSH2 0x1653 JUMP JUMPDEST ISZERO PUSH2 0xE34 JUMPI PUSH1 0x40 MLOAD PUSH32 0x8C379A000000000000000000000000000000000000000000000000000000000 DUP2 MSTORE PUSH1 0x4 ADD PUSH2 0xE2B SWAP1 PUSH2 0x1A7F JUMP JUMPDEST PUSH1 0x40 MLOAD DUP1 SWAP2 SUB SWAP1 REVERT JUMPDEST PUSH1 0x3 PUSH1 0x0 CALLER PUSH20 0xFFFFFFFFFFFFFFFFFFFFFFFFFFFFFFFFFFFFFFFF AND PUSH20 0xFFFFFFFFFFFFFFFFFFFFFFFFFFFFFFFFFFFFFFFF AND DUP2 MSTORE PUSH1 0x20 ADD SWAP1 DUP2 MSTORE PUSH1 0x20 ADD PUSH1 0x0 KECCAK256 PUSH1 0x0 SWAP1 SLOAD SWAP1 PUSH2 0x100 EXP SWAP1 DIV PUSH1 0xFF AND ISZERO PUSH2 0xEC1 JUMPI PUSH1 0x40 MLOAD PUSH32 0x8C379A000000000000000000000000000000000000000000000000000000000 DUP2 MSTORE PUSH1 0x4 ADD PUSH2 0xEB8 SWAP1 PUSH2 0x1AEB JUMP JUMPDEST PUSH1 0x40 MLOAD DUP1 SWAP2 SUB SWAP1 REVERT JUMPDEST PUSH32 0xFFFFFFFFFFFFFFFFFFFFFFFFFFFFFFFFFFFFFFFFFFFFFFFFFFFFFFFFFFFFFFFD PUSH1 0x2 PUSH1 0x0 CALLER PUSH20 0xFFFFFFFFFFFFFFFFFFFFFFFFFFFFFFFFFFFFFFFF AND PUSH20 0xFFFFFFFFFFFFFFFFFFFFFFFFFFFFFFFFFFFFFFFF AND DUP2 MSTORE PUSH1 0x20 ADD SWAP1 DUP2 MSTORE PUSH1 0x20 ADD PUSH1 0x0 KECCAK256 SLOAD SGT PUSH2 0xF62 JUMPI PUSH1 0x40 MLOAD PUSH32 0x8C379A000000000000000000000000000000000000000000000000000000000 DUP2 MSTORE PUSH1 0x4 ADD PUSH2 0xF59 SWAP1 PUSH2 0x1B57 JUMP JUMPDEST PUSH1 0x40 MLOAD DUP1 SWAP2 SUB SWAP1 REVERT JUMPDEST PUSH1 0x8 SLOAD CALLVALUE LT ISZERO PUSH2 0xF71 JUMPI PUSH1 0x0 DUP1 REVERT JUMPDEST CALLVALUE PUSH1 0x7 PUSH1 0x0 DUP3 DUP3 SLOAD PUSH2 0xF83 SWAP2 SWAP1 PUSH2 0x1B77 JUMP JUMPDEST SWAP3 POP POP DUP2 SWAP1 SSTORE POP DUP2 DUP2 PUSH1 0x4 PUSH1 0x0 CALLER PUSH20 0xFFFFFFFFFFFFFFFFFFFFFFFFFFFFFFFFFFFFFFFF AND PUSH20 0xFFFFFFFFFFFFFFFFFFFFFFFFFFFFFFFFFFFFFFFF AND DUP2 MSTORE PUSH1 0x20 ADD SWAP1 DUP2 MSTORE PUSH1 0x20 ADD PUSH1 0x0 KECCAK256 SWAP2 DUP3 PUSH2 0xFD8 SWAP3 SWAP2 SWAP1 PUSH2 0x1D91 JUMP JUMPDEST POP PUSH1 0x1 PUSH1 0x3 PUSH1 0x0 CALLER PUSH20 0xFFFFFFFFFFFFFFFFFFFFFFFFFFFFFFFFFFFFFFFF AND PUSH20 0xFFFFFFFFFFFFFFFFFFFFFFFFFFFFFFFFFFFFFFFF AND DUP2 MSTORE PUSH1 0x20 ADD SWAP1 DUP2 MSTORE PUSH1 0x20 ADD PUSH1 0x0 KECCAK256 PUSH1 0x0 PUSH2 0x100 EXP DUP2 SLOAD DUP2 PUSH1 0xFF MUL NOT AND SWAP1 DUP4 ISZERO ISZERO MUL OR SWAP1 SSTORE POP PUSH1 0x0 CALLER SWAP1 DUP1 PUSH1 0x1 DUP2 SLOAD ADD DUP1 DUP3 SSTORE DUP1 SWAP2 POP POP PUSH1 0x1 SWAP1 SUB SWAP1 PUSH1 0x0 MSTORE PUSH1 0x20 PUSH1 0x0 KECCAK256 ADD PUSH1 0x0 SWAP1 SWAP2 SWAP1 SWAP2 SWAP1 SWAP2 PUSH2 0x100 EXP DUP2 SLOAD DUP2 PUSH20 0xFFFFFFFFFFFFFFFFFFFFFFFFFFFFFFFFFFFFFFFF MUL NOT AND SWAP1 DUP4 PUSH20 0xFFFFFFFFFFFFFFFFFFFFFFFFFFFFFFFFFFFFFFFF AND MUL OR SWAP1 SSTORE POP POP POP JUMP JUMPDEST PUSH1 0x0 JUMPDEST PUSH1 0x0 DUP1 SLOAD SWAP1 POP DUP2 LT ISZERO PUSH2 0x112D JUMPI DUP2 PUSH20 0xFFFFFFFFFFFFFFFFFFFFFFFFFFFFFFFFFFFFFFFF AND PUSH1 0x0 DUP3 DUP2 SLOAD DUP2 LT PUSH2 0x10D3 JUMPI PUSH2 0x10D2 PUSH2 0x190C JUMP JUMPDEST JUMPDEST SWAP1 PUSH1 0x0 MSTORE PUSH1 0x20 PUSH1 0x0 KECCAK256 ADD PUSH1 0x0 SWAP1 SLOAD SWAP1 PUSH2 0x100 EXP SWAP1 DIV PUSH20 0xFFFFFFFFFFFFFFFFFFFFFFFFFFFFFFFFFFFFFFFF AND PUSH20 0xFFFFFFFFFFFFFFFFFFFFFFFFFFFFFFFFFFFFFFFF AND SUB ISZERO PUSH2 0x112D JUMPI DUP1 DUP1 PUSH2 0x1125 SWAP1 PUSH2 0x193B JUMP JUMPDEST SWAP2 POP POP PUSH2 0x109B JUMP JUMPDEST PUSH1 0x0 PUSH1 0x1 PUSH1 0x0 DUP1 SLOAD SWAP1 POP PUSH2 0x1141 SWAP2 SWAP1 PUSH2 0x1E61 JUMP JUMPDEST DUP2 SLOAD DUP2 LT PUSH2 0x1152 JUMPI PUSH2 0x1151 PUSH2 0x190C JUMP JUMPDEST JUMPDEST SWAP1 PUSH1 0x0 MSTORE PUSH1 0x20 PUSH1 0x0 KECCAK256 ADD PUSH1 0x0 SWAP1 SLOAD SWAP1 PUSH2 0x100 EXP SWAP1 DIV PUSH20 0xFFFFFFFFFFFFFFFFFFFFFFFFFFFFFFFFFFFFFFFF AND PUSH1 0x0 DUP3 DUP2 SLOAD DUP2 LT PUSH2 0x1191 JUMPI PUSH2 0x1190 PUSH2 0x190C JUMP JUMPDEST JUMPDEST SWAP1 PUSH1 0x0 MSTORE PUSH1 0x20 PUSH1 0x0 KECCAK256 ADD PUSH1 0x0 PUSH2 0x100 EXP DUP2 SLOAD DUP2 PUSH20 0xFFFFFFFFFFFFFFFFFFFFFFFFFFFFFFFFFFFFFFFF MUL NOT AND SWAP1 DUP4 PUSH20 0xFFFFFFFFFFFFFFFFFFFFFFFFFFFFFFFFFFFFFFFF AND MUL OR SWAP1 SSTORE POP PUSH1 0x0 DUP1 SLOAD DUP1 PUSH2 0x11EB JUMPI PUSH2 0x11EA PUSH2 0x1E95 JUMP JUMPDEST JUMPDEST PUSH1 0x1 SWAP1 SUB DUP2 DUP2 SWAP1 PUSH1 0x0 MSTORE PUSH1 0x20 PUSH1 0x0 KECCAK256 ADD PUSH1 0x0 PUSH2 0x100 EXP DUP2 SLOAD SWAP1 PUSH20 0xFFFFFFFFFFFFFFFFFFFFFFFFFFFFFFFFFFFFFFFF MUL NOT AND SWAP1 SSTORE SWAP1 SSTORE POP POP JUMP JUMPDEST POP DUP1 SLOAD PUSH1 0x0 DUP3 SSTORE SWAP1 PUSH1 0x0 MSTORE PUSH1 0x20 PUSH1 0x0 KECCAK256 SWAP1 DUP2 ADD SWAP1 PUSH2 0x1242 SWAP2 SWAP1 PUSH2 0x1245 JUMP JUMPDEST POP JUMP JUMPDEST JUMPDEST DUP1 DUP3 GT ISZERO PUSH2 0x125E JUMPI PUSH1 0x0 DUP2 PUSH1 0x0 SWAP1 SSTORE POP PUSH1 0x1 ADD PUSH2 0x1246 JUMP JUMPDEST POP SWAP1 JUMP JUMPDEST PUSH1 0x0 DUP1 REVERT JUMPDEST PUSH1 0x0 DUP1 REVERT JUMPDEST PUSH1 0x0 PUSH20 0xFFFFFFFFFFFFFFFFFFFFFFFFFFFFFFFFFFFFFFFF DUP3 AND SWAP1 POP SWAP2 SWAP1 POP JUMP JUMPDEST PUSH1 0x0 PUSH2 0x1297 DUP3 PUSH2 0x126C JUMP JUMPDEST SWAP1 POP SWAP2 SWAP1 POP JUMP JUMPDEST PUSH2 0x12A7 DUP2 PUSH2 0x128C JUMP JUMPDEST DUP2 EQ PUSH2 0x12B2 JUMPI PUSH1 0x0 DUP1 REVERT JUMPDEST POP JUMP JUMPDEST PUSH1 0x0 DUP2 CALLDATALOAD SWAP1 POP PUSH2 0x12C4 DUP2 PUSH2 0x129E JUMP JUMPDEST SWAP3 SWAP2 POP POP JUMP JUMPDEST PUSH1 0x0 PUSH1 0x20 DUP3 DUP5 SUB SLT ISZERO PUSH2 0x12E0 JUMPI PUSH2 0x12DF PUSH2 0x1262 JUMP JUMPDEST JUMPDEST PUSH1 0x0 PUSH2 0x12EE DUP5 DUP3 DUP6 ADD PUSH2 0x12B5 JUMP JUMPDEST SWAP2 POP POP SWAP3 SWAP2 POP POP JUMP JUMPDEST PUSH1 0x0 DUP2 MLOAD SWAP1 POP SWAP2 SWAP1 POP JUMP JUMPDEST PUSH1 0x0 DUP3 DUP3 MSTORE PUSH1 0x20 DUP3 ADD SWAP1 POP SWAP3 SWAP2 POP POP JUMP JUMPDEST PUSH1 0x0 JUMPDEST DUP4 DUP2 LT ISZERO PUSH2 0x1331 JUMPI DUP1 DUP3 ADD MLOAD DUP2 DUP5 ADD MSTORE PUSH1 0x20 DUP2 ADD SWAP1 POP PUSH2 0x1316 JUMP JUMPDEST PUSH1 0x0 DUP5 DUP5 ADD MSTORE POP POP POP POP JUMP JUMPDEST PUSH1 0x0 PUSH1 0x1F NOT PUSH1 0x1F DUP4 ADD AND SWAP1 POP SWAP2 SWAP1 POP JUMP JUMPDEST PUSH1 0x0 PUSH2 0x1359 DUP3 PUSH2 0x12F7 JUMP JUMPDEST PUSH2 0x1363 DUP2 DUP6 PUSH2 0x1302 JUMP JUMPDEST SWAP4 POP PUSH2 0x1373 DUP2 DUP6 PUSH1 0x20 DUP7 ADD PUSH2 0x1313 JUMP JUMPDEST PUSH2 0x137C DUP2 PUSH2 0x133D JUMP JUMPDEST DUP5 ADD SWAP2 POP POP SWAP3 SWAP2 POP POP JUMP JUMPDEST PUSH1 0x0 PUSH1 0x20 DUP3 ADD SWAP1 POP DUP2 DUP2 SUB PUSH1 0x0 DUP4 ADD MSTORE PUSH2 0x13A1 DUP2 DUP5 PUSH2 0x134E JUMP JUMPDEST SWAP1 POP SWAP3 SWAP2 POP POP JUMP JUMPDEST PUSH1 0x0 DUP2 MLOAD SWAP1 POP SWAP2 SWAP1 POP JUMP JUMPDEST PUSH1 0x0 DUP3 DUP3 MSTORE PUSH1 0x20 DUP3 ADD SWAP1 POP SWAP3 SWAP2 POP POP JUMP JUMPDEST PUSH1 0x0 DUP2 SWAP1 POP PUSH1 0x20 DUP3 ADD SWAP1 POP SWAP2 SWAP1 POP JUMP JUMPDEST PUSH2 0x13DE DUP2 PUSH2 0x128C JUMP JUMPDEST DUP3 MSTORE POP POP JUMP JUMPDEST PUSH1 0x0 PUSH2 0x13F0 DUP4 DUP4 PUSH2 0x13D5 JUMP JUMPDEST PUSH1 0x20 DUP4 ADD SWAP1 POP SWAP3 SWAP2 POP POP JUMP JUMPDEST PUSH1 0x0 PUSH1 0x20 DUP3 ADD SWAP1 POP SWAP2 SWAP1 POP JUMP JUMPDEST PUSH1 0x0 PUSH2 0x1414 DUP3 PUSH2 0x13A9 JUMP JUMPDEST PUSH2 0x141E DUP2 DUP6 PUSH2 0x13B4 JUMP JUMPDEST SWAP4 POP PUSH2 0x1429 DUP4 PUSH2 0x13C5 JUMP JUMPDEST DUP1 PUSH1 0x0 JUMPDEST DUP4 DUP2 LT ISZERO PUSH2 0x145A JUMPI DUP2 MLOAD PUSH2 0x1441 DUP9 DUP3 PUSH2 0x13E4 JUMP JUMPDEST SWAP8 POP PUSH2 0x144C DUP4 PUSH2 0x13FC JUMP JUMPDEST SWAP3 POP POP PUSH1 0x1 DUP2 ADD SWAP1 POP PUSH2 0x142D JUMP JUMPDEST POP DUP6 SWAP4 POP POP POP POP SWAP3 SWAP2 POP POP JUMP JUMPDEST PUSH1 0x0 PUSH1 0x20 DUP3 ADD SWAP1 POP DUP2 DUP2 SUB PUSH1 0x0 DUP4 ADD MSTORE PUSH2 0x1481 DUP2 DUP5 PUSH2 0x1409 JUMP JUMPDEST SWAP1 POP SWAP3 SWAP2 POP POP JUMP JUMPDEST PUSH1 0x0 DUP2 SWAP1 POP SWAP2 SWAP1 POP JUMP JUMPDEST PUSH2 0x149C DUP2 PUSH2 0x1489 JUMP JUMPDEST DUP2 EQ PUSH2 0x14A7 JUMPI PUSH1 0x0 DUP1 REVERT JUMPDEST POP JUMP JUMPDEST PUSH1 0x0 DUP2 CALLDATALOAD SWAP1 POP PUSH2 0x14B9 DUP2 PUSH2 0x1493 JUMP JUMPDEST SWAP3 SWAP2 POP POP JUMP JUMPDEST PUSH1 0x0 PUSH1 0x20 DUP3 DUP5 SUB SLT ISZERO PUSH2 0x14D5 JUMPI PUSH2 0x14D4 PUSH2 0x1262 JUMP JUMPDEST JUMPDEST PUSH1 0x0 PUSH2 0x14E3 DUP5 DUP3 DUP6 ADD PUSH2 0x14AA JUMP JUMPDEST SWAP2 POP POP SWAP3 SWAP2 POP POP JUMP JUMPDEST PUSH2 0x14F5 DUP2 PUSH2 0x128C JUMP JUMPDEST DUP3 MSTORE POP POP JUMP JUMPDEST PUSH1 0x0 PUSH1 0x20 DUP3 ADD SWAP1 POP PUSH2 0x1510 PUSH1 0x0 DUP4 ADD DUP5 PUSH2 0x14EC JUMP JUMPDEST SWAP3 SWAP2 POP POP JUMP JUMPDEST PUSH2 0x151F DUP2 PUSH2 0x1489 JUMP JUMPDEST DUP3 MSTORE POP POP JUMP JUMPDEST PUSH1 0x0 PUSH1 0x20 DUP3 ADD SWAP1 POP PUSH2 0x153A PUSH1 0x0 DUP4 ADD DUP5 PUSH2 0x1516 JUMP JUMPDEST SWAP3 SWAP2 POP POP JUMP JUMPDEST PUSH1 0x0 DUP1 REVERT JUMPDEST PUSH1 0x0 DUP1 REVERT JUMPDEST PUSH1 0x0 DUP1 REVERT JUMPDEST PUSH1 0x0 DUP1 DUP4 PUSH1 0x1F DUP5 ADD SLT PUSH2 0x1565 JUMPI PUSH2 0x1564 PUSH2 0x1540 JUMP JUMPDEST JUMPDEST DUP3 CALLDATALOAD SWAP1 POP PUSH8 0xFFFFFFFFFFFFFFFF DUP2 GT ISZERO PUSH2 0x1582 JUMPI PUSH2 0x1581 PUSH2 0x1545 JUMP JUMPDEST JUMPDEST PUSH1 0x20 DUP4 ADD SWAP2 POP DUP4 PUSH1 0x1 DUP3 MUL DUP4 ADD GT ISZERO PUSH2 0x159E JUMPI PUSH2 0x159D PUSH2 0x154A JUMP JUMPDEST JUMPDEST SWAP3 POP SWAP3 SWAP1 POP JUMP JUMPDEST PUSH1 0x0 DUP1 PUSH1 0x20 DUP4 DUP6 SUB SLT ISZERO PUSH2 0x15BC JUMPI PUSH2 0x15BB PUSH2 0x1262 JUMP JUMPDEST JUMPDEST PUSH1 0x0 DUP4 ADD CALLDATALOAD PUSH8 0xFFFFFFFFFFFFFFFF DUP2 GT ISZERO PUSH2 0x15DA JUMPI PUSH2 0x15D9 PUSH2 0x1267 JUMP JUMPDEST JUMPDEST PUSH2 0x15E6 DUP6 DUP3 DUP7 ADD PUSH2 0x154F JUMP JUMPDEST SWAP3 POP SWAP3 POP POP SWAP3 POP SWAP3 SWAP1 POP JUMP JUMPDEST PUSH1 0x0 PUSH1 0x40 DUP3 ADD SWAP1 POP PUSH2 0x1607 PUSH1 0x0 DUP4 ADD DUP6 PUSH2 0x14EC JUMP JUMPDEST PUSH2 0x1614 PUSH1 0x20 DUP4 ADD DUP5 PUSH2 0x14EC JUMP JUMPDEST SWAP4 SWAP3 POP POP POP JUMP JUMPDEST PUSH1 0x0 DUP2 ISZERO ISZERO SWAP1 POP SWAP2 SWAP1 POP JUMP JUMPDEST PUSH2 0x1630 DUP2 PUSH2 0x161B JUMP JUMPDEST DUP2 EQ PUSH2 0x163B JUMPI PUSH1 0x0 DUP1 REVERT JUMPDEST POP JUMP JUMPDEST PUSH1 0x0 DUP2 MLOAD SWAP1 POP PUSH2 0x164D DUP2 PUSH2 0x1627 JUMP JUMPDEST SWAP3 SWAP2 POP POP JUMP JUMPDEST PUSH1 0x0 PUSH1 0x20 DUP3 DUP5 SUB SLT ISZERO PUSH2 0x1669 JUMPI PUSH2 0x1668 PUSH2 0x1262 JUMP JUMPDEST JUMPDEST PUSH1 0x0 PUSH2 0x1677 DUP5 DUP3 DUP6 ADD PUSH2 0x163E JUMP JUMPDEST SWAP2 POP POP SWAP3 SWAP2 POP POP JUMP JUMPDEST PUSH32 0x526571756972656420746F2062652061206D656D656265720000000000000000 PUSH1 0x0 DUP3 ADD MSTORE POP JUMP JUMPDEST PUSH1 0x0 PUSH2 0x16B6 PUSH1 0x18 DUP4 PUSH2 0x1302 JUMP JUMPDEST SWAP2 POP PUSH2 0x16C1 DUP3 PUSH2 0x1680 JUMP JUMPDEST PUSH1 0x20 DUP3 ADD SWAP1 POP SWAP2 SWAP1 POP JUMP JUMPDEST PUSH1 0x0 PUSH1 0x20 DUP3 ADD SWAP1 POP DUP2 DUP2 SUB PUSH1 0x0 DUP4 ADD MSTORE PUSH2 0x16E5 DUP2 PUSH2 0x16A9 JUMP JUMPDEST SWAP1 POP SWAP2 SWAP1 POP JUMP JUMPDEST PUSH32 0x4E487B7100000000000000000000000000000000000000000000000000000000 PUSH1 0x0 MSTORE PUSH1 0x22 PUSH1 0x4 MSTORE PUSH1 0x24 PUSH1 0x0 REVERT JUMPDEST PUSH1 0x0 PUSH1 0x2 DUP3 DIV SWAP1 POP PUSH1 0x1 DUP3 AND DUP1 PUSH2 0x1733 JUMPI PUSH1 0x7F DUP3 AND SWAP2 POP JUMPDEST PUSH1 0x20 DUP3 LT DUP2 SUB PUSH2 0x1746 JUMPI PUSH2 0x1745 PUSH2 0x16EC JUMP JUMPDEST JUMPDEST POP SWAP2 SWAP1 POP JUMP JUMPDEST PUSH32 0x4163636573732044656E69656400000000000000000000000000000000000000 PUSH1 0x0 DUP3 ADD MSTORE POP JUMP JUMPDEST PUSH1 0x0 PUSH2 0x1782 PUSH1 0xD DUP4 PUSH2 0x1302 JUMP JUMPDEST SWAP2 POP PUSH2 0x178D DUP3 PUSH2 0x174C JUMP JUMPDEST PUSH1 0x20 DUP3 ADD SWAP1 POP SWAP2 SWAP1 POP JUMP JUMPDEST PUSH1 0x0 PUSH1 0x20 DUP3 ADD SWAP1 POP DUP2 DUP2 SUB PUSH1 0x0 DUP4 ADD MSTORE PUSH2 0x17B1 DUP2 PUSH2 0x1775 JUMP JUMPDEST SWAP1 POP SWAP2 SWAP1 POP JUMP JUMPDEST PUSH32 0x496E76616C6964206170706C6963616E74206164647265737300000000000000 PUSH1 0x0 DUP3 ADD MSTORE POP JUMP JUMPDEST PUSH1 0x0 PUSH2 0x17EE PUSH1 0x19 DUP4 PUSH2 0x1302 JUMP JUMPDEST SWAP2 POP PUSH2 0x17F9 DUP3 PUSH2 0x17B8 JUMP JUMPDEST PUSH1 0x20 DUP3 ADD SWAP1 POP SWAP2 SWAP1 POP JUMP JUMPDEST PUSH1 0x0 PUSH1 0x20 DUP3 ADD SWAP1 POP DUP2 DUP2 SUB PUSH1 0x0 DUP4 ADD MSTORE PUSH2 0x181D DUP2 PUSH2 0x17E1 JUMP JUMPDEST SWAP1 POP SWAP2 SWAP1 POP JUMP JUMPDEST PUSH1 0x0 DUP2 SWAP1 POP SWAP2 SWAP1 POP JUMP JUMPDEST PUSH32 0x4E487B7100000000000000000000000000000000000000000000000000000000 PUSH1 0x0 MSTORE PUSH1 0x11 PUSH1 0x4 MSTORE PUSH1 0x24 PUSH1 0x0 REVERT JUMPDEST PUSH1 0x0 PUSH2 0x1868 DUP3 PUSH2 0x1824 JUMP JUMPDEST SWAP2 POP PUSH2 0x1873 DUP4 PUSH2 0x1824 JUMP JUMPDEST SWAP3 POP DUP3 DUP3 SUB SWAP1 POP DUP2 DUP2 SLT PUSH1 0x0 DUP5 SLT AND DUP3 DUP3 SGT PUSH1 0x0 DUP6 SLT ISZERO AND OR ISZERO PUSH2 0x189A JUMPI PUSH2 0x1899 PUSH2 0x182E JUMP JUMPDEST JUMPDEST SWAP3 SWAP2 POP POP JUMP JUMPDEST PUSH32 0x4E6F742061206170706C6963616E740000000000000000000000000000000000 PUSH1 0x0 DUP3 ADD MSTORE POP JUMP JUMPDEST PUSH1 0x0 PUSH2 0x18D6 PUSH1 0xF DUP4 PUSH2 0x1302 JUMP JUMPDEST SWAP2 POP PUSH2 0x18E1 DUP3 PUSH2 0x18A0 JUMP JUMPDEST PUSH1 0x20 DUP3 ADD SWAP1 POP SWAP2 SWAP1 POP JUMP JUMPDEST PUSH1 0x0 PUSH1 0x20 DUP3 ADD SWAP1 POP DUP2 DUP2 SUB PUSH1 0x0 DUP4 ADD MSTORE PUSH2 0x1905 DUP2 PUSH2 0x18C9 JUMP JUMPDEST SWAP1 POP SWAP2 SWAP1 POP JUMP JUMPDEST PUSH32 0x4E487B7100000000000000000000000000000000000000000000000000000000 PUSH1 0x0 MSTORE PUSH1 0x32 PUSH1 0x4 MSTORE PUSH1 0x24 PUSH1 0x0 REVERT JUMPDEST PUSH1 0x0 PUSH2 0x1946 DUP3 PUSH2 0x1489 JUMP JUMPDEST SWAP2 POP PUSH32 0xFFFFFFFFFFFFFFFFFFFFFFFFFFFFFFFFFFFFFFFFFFFFFFFFFFFFFFFFFFFFFFFF DUP3 SUB PUSH2 0x1978 JUMPI PUSH2 0x1977 PUSH2 0x182E JUMP JUMPDEST JUMPDEST PUSH1 0x1 DUP3 ADD SWAP1 POP SWAP2 SWAP1 POP JUMP JUMPDEST PUSH32 0x53656E64657220616C726561647920766F746564000000000000000000000000 PUSH1 0x0 DUP3 ADD MSTORE POP JUMP JUMPDEST PUSH1 0x0 PUSH2 0x19B9 PUSH1 0x14 DUP4 PUSH2 0x1302 JUMP JUMPDEST SWAP2 POP PUSH2 0x19C4 DUP3 PUSH2 0x1983 JUMP JUMPDEST PUSH1 0x20 DUP3 ADD SWAP1 POP SWAP2 SWAP1 POP JUMP JUMPDEST PUSH1 0x0 PUSH1 0x20 DUP3 ADD SWAP1 POP DUP2 DUP2 SUB PUSH1 0x0 DUP4 ADD MSTORE PUSH2 0x19E8 DUP2 PUSH2 0x19AC JUMP JUMPDEST SWAP1 POP SWAP2 SWAP1 POP JUMP JUMPDEST PUSH1 0x0 PUSH2 0x19FA DUP3 PUSH2 0x1824 JUMP JUMPDEST SWAP2 POP PUSH2 0x1A05 DUP4 PUSH2 0x1824 JUMP JUMPDEST SWAP3 POP DUP3 DUP3 ADD SWAP1 POP DUP3 DUP2 SLT ISZERO PUSH1 0x0 DUP4 SLT AND DUP4 DUP3 SLT PUSH1 0x0 DUP5 SLT ISZERO AND OR ISZERO PUSH2 0x1A2D JUMPI PUSH2 0x1A2C PUSH2 0x182E JUMP JUMPDEST JUMPDEST SWAP3 SWAP2 POP POP JUMP JUMPDEST PUSH32 0x416C726561647920616374697665206D656D6265720000000000000000000000 PUSH1 0x0 DUP3 ADD MSTORE POP JUMP JUMPDEST PUSH1 0x0 PUSH2 0x1A69 PUSH1 0x15 DUP4 PUSH2 0x1302 JUMP JUMPDEST SWAP2 POP PUSH2 0x1A74 DUP3 PUSH2 0x1A33 JUMP JUMPDEST PUSH1 0x20 DUP3 ADD SWAP1 POP SWAP2 SWAP1 POP JUMP JUMPDEST PUSH1 0x0 PUSH1 0x20 DUP3 ADD SWAP1 POP DUP2 DUP2 SUB PUSH1 0x0 DUP4 ADD MSTORE PUSH2 0x1A98 DUP2 PUSH2 0x1A5C JUMP JUMPDEST SWAP1 POP SWAP2 SWAP1 POP JUMP JUMPDEST PUSH32 0x416C726561647920616374697665206170706C6963616E740000000000000000 PUSH1 0x0 DUP3 ADD MSTORE POP JUMP JUMPDEST PUSH1 0x0 PUSH2 0x1AD5 PUSH1 0x18 DUP4 PUSH2 0x1302 JUMP JUMPDEST SWAP2 POP PUSH2 0x1AE0 DUP3 PUSH2 0x1A9F JUMP JUMPDEST PUSH1 0x20 DUP3 ADD SWAP1 POP SWAP2 SWAP1 POP JUMP JUMPDEST PUSH1 0x0 PUSH1 0x20 DUP3 ADD SWAP1 POP DUP2 DUP2 SUB PUSH1 0x0 DUP4 ADD MSTORE PUSH2 0x1B04 DUP2 PUSH2 0x1AC8 JUMP JUMPDEST SWAP1 POP SWAP2 SWAP1 POP JUMP JUMPDEST PUSH32 0x6163636F756E742072656A656374656400000000000000000000000000000000 PUSH1 0x0 DUP3 ADD MSTORE POP JUMP JUMPDEST PUSH1 0x0 PUSH2 0x1B41 PUSH1 0x10 DUP4 PUSH2 0x1302 JUMP JUMPDEST SWAP2 POP PUSH2 0x1B4C DUP3 PUSH2 0x1B0B JUMP JUMPDEST PUSH1 0x20 DUP3 ADD SWAP1 POP SWAP2 SWAP1 POP JUMP JUMPDEST PUSH1 0x0 PUSH1 0x20 DUP3 ADD SWAP1 POP DUP2 DUP2 SUB PUSH1 0x0 DUP4 ADD MSTORE PUSH2 0x1B70 DUP2 PUSH2 0x1B34 JUMP JUMPDEST SWAP1 POP SWAP2 SWAP1 POP JUMP JUMPDEST PUSH1 0x0 PUSH2 0x1B82 DUP3 PUSH2 0x1489 JUMP JUMPDEST SWAP2 POP PUSH2 0x1B8D DUP4 PUSH2 0x1489 JUMP JUMPDEST SWAP3 POP DUP3 DUP3 ADD SWAP1 POP DUP1 DUP3 GT ISZERO PUSH2 0x1BA5 JUMPI PUSH2 0x1BA4 PUSH2 0x182E JUMP JUMPDEST JUMPDEST SWAP3 SWAP2 POP POP JUMP JUMPDEST PUSH1 0x0 DUP3 SWAP1 POP SWAP3 SWAP2 POP POP JUMP JUMPDEST PUSH32 0x4E487B7100000000000000000000000000000000000000000000000000000000 PUSH1 0x0 MSTORE PUSH1 0x41 PUSH1 0x4 MSTORE PUSH1 0x24 PUSH1 0x0 REVERT JUMPDEST PUSH1 0x0 DUP2 SWAP1 POP DUP2 PUSH1 0x0 MSTORE PUSH1 0x20 PUSH1 0x0 KECCAK256 SWAP1 POP SWAP2 SWAP1 POP JUMP JUMPDEST PUSH1 0x0 PUSH1 0x20 PUSH1 0x1F DUP4 ADD DIV SWAP1 POP SWAP2 SWAP1 POP JUMP JUMPDEST PUSH1 0x0 DUP3 DUP3 SHL SWAP1 POP SWAP3 SWAP2 POP POP JUMP JUMPDEST PUSH1 0x0 PUSH1 0x8 DUP4 MUL PUSH2 0x1C47 PUSH32 0xFFFFFFFFFFFFFFFFFFFFFFFFFFFFFFFFFFFFFFFFFFFFFFFFFFFFFFFFFFFFFFFF DUP3 PUSH2 0x1C0A JUMP JUMPDEST PUSH2 0x1C51 DUP7 DUP4 PUSH2 0x1C0A JUMP JUMPDEST SWAP6 POP DUP1 NOT DUP5 AND SWAP4 POP DUP1 DUP7 AND DUP5 OR SWAP3 POP POP POP SWAP4 SWAP3 POP POP POP JUMP JUMPDEST PUSH1 0x0 DUP2 SWAP1 POP SWAP2 SWAP1 POP JUMP JUMPDEST PUSH1 0x0 PUSH2 0x1C8E PUSH2 0x1C89 PUSH2 0x1C84 DUP5 PUSH2 0x1489 JUMP JUMPDEST PUSH2 0x1C69 JUMP JUMPDEST PUSH2 0x1489 JUMP JUMPDEST SWAP1 POP SWAP2 SWAP1 POP JUMP JUMPDEST PUSH1 0x0 DUP2 SWAP1 POP SWAP2 SWAP1 POP JUMP JUMPDEST PUSH2 0x1CA8 DUP4 PUSH2 0x1C73 JUMP JUMPDEST PUSH2 0x1CBC PUSH2 0x1CB4 DUP3 PUSH2 0x1C95 JUMP JUMPDEST DUP5 DUP5 SLOAD PUSH2 0x1C17 JUMP JUMPDEST DUP3 SSTORE POP POP POP POP JUMP JUMPDEST PUSH1 0x0 SWAP1 JUMP JUMPDEST PUSH2 0x1CD1 PUSH2 0x1CC4 JUMP JUMPDEST PUSH2 0x1CDC DUP2 DUP5 DUP5 PUSH2 0x1C9F JUMP JUMPDEST POP POP POP JUMP JUMPDEST JUMPDEST DUP2 DUP2 LT ISZERO PUSH2 0x1D00 JUMPI PUSH2 0x1CF5 PUSH1 0x0 DUP3 PUSH2 0x1CC9 JUMP JUMPDEST PUSH1 0x1 DUP2 ADD SWAP1 POP PUSH2 0x1CE2 JUMP JUMPDEST POP POP JUMP JUMPDEST PUSH1 0x1F DUP3 GT ISZERO PUSH2 0x1D45 JUMPI PUSH2 0x1D16 DUP2 PUSH2 0x1BE5 JUMP JUMPDEST PUSH2 0x1D1F DUP5 PUSH2 0x1BFA JUMP JUMPDEST DUP2 ADD PUSH1 0x20 DUP6 LT ISZERO PUSH2 0x1D2E JUMPI DUP2 SWAP1 POP JUMPDEST PUSH2 0x1D42 PUSH2 0x1D3A DUP6 PUSH2 0x1BFA JUMP JUMPDEST DUP4 ADD DUP3 PUSH2 0x1CE1 JUMP JUMPDEST POP POP JUMPDEST POP POP POP JUMP JUMPDEST PUSH1 0x0 DUP3 DUP3 SHR SWAP1 POP SWAP3 SWAP2 POP POP JUMP JUMPDEST PUSH1 0x0 PUSH2 0x1D68 PUSH1 0x0 NOT DUP5 PUSH1 0x8 MUL PUSH2 0x1D4A JUMP JUMPDEST NOT DUP1 DUP4 AND SWAP2 POP POP SWAP3 SWAP2 POP POP JUMP JUMPDEST PUSH1 0x0 PUSH2 0x1D81 DUP4 DUP4 PUSH2 0x1D57 JUMP JUMPDEST SWAP2 POP DUP3 PUSH1 0x2 MUL DUP3 OR SWAP1 POP SWAP3 SWAP2 POP POP JUMP JUMPDEST PUSH2 0x1D9B DUP4 DUP4 PUSH2 0x1BAB JUMP JUMPDEST PUSH8 0xFFFFFFFFFFFFFFFF DUP2 GT ISZERO PUSH2 0x1DB4 JUMPI PUSH2 0x1DB3 PUSH2 0x1BB6 JUMP JUMPDEST JUMPDEST PUSH2 0x1DBE DUP3 SLOAD PUSH2 0x171B JUMP JUMPDEST PUSH2 0x1DC9 DUP3 DUP3 DUP6 PUSH2 0x1D04 JUMP JUMPDEST PUSH1 0x0 PUSH1 0x1F DUP4 GT PUSH1 0x1 DUP2 EQ PUSH2 0x1DF8 JUMPI PUSH1 0x0 DUP5 ISZERO PUSH2 0x1DE6 JUMPI DUP3 DUP8 ADD CALLDATALOAD SWAP1 POP JUMPDEST PUSH2 0x1DF0 DUP6 DUP3 PUSH2 0x1D75 JUMP JUMPDEST DUP7 SSTORE POP PUSH2 0x1E58 JUMP JUMPDEST PUSH1 0x1F NOT DUP5 AND PUSH2 0x1E06 DUP7 PUSH2 0x1BE5 JUMP JUMPDEST PUSH1 0x0 JUMPDEST DUP3 DUP2 LT ISZERO PUSH2 0x1E2E JUMPI DUP5 DUP10 ADD CALLDATALOAD DUP3 SSTORE PUSH1 0x1 DUP3 ADD SWAP2 POP PUSH1 0x20 DUP6 ADD SWAP5 POP PUSH1 0x20 DUP2 ADD SWAP1 POP PUSH2 0x1E09 JUMP JUMPDEST DUP7 DUP4 LT ISZERO PUSH2 0x1E4B JUMPI DUP5 DUP10 ADD CALLDATALOAD PUSH2 0x1E47 PUSH1 0x1F DUP10 AND DUP3 PUSH2 0x1D57 JUMP JUMPDEST DUP4 SSTORE POP JUMPDEST PUSH1 0x1 PUSH1 0x2 DUP9 MUL ADD DUP9 SSTORE POP POP POP JUMPDEST POP POP POP POP POP POP POP JUMP JUMPDEST PUSH1 0x0 PUSH2 0x1E6C DUP3 PUSH2 0x1489 JUMP JUMPDEST SWAP2 POP PUSH2 0x1E77 DUP4 PUSH2 0x1489 JUMP JUMPDEST SWAP3 POP DUP3 DUP3 SUB SWAP1 POP DUP2 DUP2 GT ISZERO PUSH2 0x1E8F JUMPI PUSH2 0x1E8E PUSH2 0x182E JUMP JUMPDEST JUMPDEST SWAP3 SWAP2 POP POP JUMP JUMPDEST PUSH32 0x4E487B7100000000000000000000000000000000000000000000000000000000 PUSH1 0x0 MSTORE PUSH1 0x31 PUSH1 0x4 MSTORE PUSH1 0x24 PUSH1 0x0 REVERT INVALID LOG2 PUSH5 0x6970667358 0x22 SLT KECCAK256 SLT 0xDE DELEGATECALL EXTCODESIZE 0xA8 POP BALANCE 0xE3 0x4B 0x23 BLOCKHASH 0xC4 0xAF 0x5E 0xDD 0xCD 0xD6 0xAE 0xCC PUSH15 0xC2BDF3ED9887ADE3FB20D86464736F PUSH13 0x63430008110033000000000000 "},"gasEstimates":{"creation":{"codeDepositCost":"1345400","executionCost":"infinite","totalCost":"infinite"},"external":{"admitApplicant(address)":"infinite","applicantPoolAddress()":"2536","creator()":"2538","dismissMemberReport(address)":"3097","getApplicants()":"infinite","getMemberCount()":"2578","getMemberRep(address)":"741","getMemberReports(address)":"infinite","getMembers()":"infinite","highlightReport(address,string)":"3333","increaseMemberRep(address)":"infinite","isMember(address)":"2994","longSummary()":"infinite","memberActive(address)":"2890","memberMapAddress()":"2580","memberPoints(address)":"2858","members(uint256)":"5045","name()":"infinite","projects(uint256)":"5024","reportMember(address,string)":"998","shortSummary()":"infinite","userToMemberUp(address)":"infinite"}},"methodIdentifiers":{"admitApplicant(address)":"1ee503fd","applicantPoolAddress()":"af1fca09","creator()":"02d05d3f","dismissMemberReport(address)":"cef025ac","getApplicants()":"455772d2","getMemberCount()":"997072f7","getMemberRep(address)":"146b551d","getMemberReports(address)":"9e5f59f9","getMembers()":"9eab5253","highlightReport(address,string)":"15866836","increaseMemberRep(address)":"9a4d383e","isMember(address)":"a230c524","longSummary()":"9c0ab105","memberActive(address)":"25ec527c","memberMapAddress()":"c7662d93","memberPoints(address)":"b3253f13","members(uint256)":"5daf08ca","name()":"06fdde03","projects(uint256)":"107046bd","reportMember(address,string)":"70586013","shortSummary()":"ca505a5b","userToMemberUp(address)":"e1889876"}},"storageLayout":{"storage":[{"astId":725,"contract":"MemberPool.sol:MemberPool","label":"name","offset":0,"slot":"0","type":"t_string_storage"},{"astId":727,"contract":"MemberPool.sol:MemberPool","label":"shortSummary","offset":0,"slot":"1","type":"t_string_storage"},{"astId":729,"contract":"MemberPool.sol:MemberPool","label":"longSummary","offset":0,"slot":"2","type":"t_string_storage"},{"astId":732,"contract":"MemberPool.sol:MemberPool","label":"members","offset":0,"slot":"3","type":"t_array(t_address)dyn_storage"},{"astId":736,"contract":"MemberPool.sol:MemberPool","label":"memberActive","offset":0,"slot":"4","type":"t_mapping(t_address,t_bool)"},{"astId":739,"contract":"MemberPool.sol:MemberPool","label":"projects","offset":0,"slot":"5","type":"t_array(t_address)dyn_storage"},{"astId":743,"contract":"MemberPool.sol:MemberPool","label":"userToMemberUp","offset":0,"slot":"6","type":"t_mapping(t_address,t_address)"},{"astId":747,"contract":"MemberPool.sol:MemberPool","label":"memberPoints","offset":0,"slot":"7","type":"t_mapping(t_address,t_int256)"},{"astId":749,"contract":"MemberPool.sol:MemberPool","label":"applicantPoolAddress","offset":0,"slot":"8","type":"t_address"},{"astId":751,"contract":"MemberPool.sol:MemberPool","label":"creator","offset":0,"slot":"9","type":"t_address"},{"astId":753,"contract":"MemberPool.sol:MemberPool","label":"memberMapAddress","offset":0,"slot":"10","type":"t_address"}],"types":{"t_address":{"encoding":"inplace","label":"address","numberOfBytes":"20"},"t_array(t_address)dyn_storage":{"base":"t_address","encoding":"dynamic_array","label":"address[]","numberOfBytes":"32"},"t_bool":{"encoding":"inplace","label":"bool","numberOfBytes":"1"},"t_int256":{"encoding":"inplace","label":"int256","numberOfBytes":"32"},"t_mapping(t_address,t_address)":{"encoding":"mapping","key":"t_address","label":"mapping(address => address)","numberOfBytes":"32","value":"t_address"},"t_mapping(t_address,t_bool)":{"encoding":"mapping","key":"t_address","label":"mapping(address => bool)","numberOfBytes":"32","value":"t_bool"},"t_mapping(t_address,t_int256)":{"encoding":"mapping","key":"t_address","label":"mapping(address => int256)","numberOfBytes":"32","value":"t_int256"},"t_string_storage":{"encoding":"bytes","label":"string","numberOfBytes":"32"}}},"userdoc":{"kind":"user","methods":{},"version":1}}