{"abi":[{"inputs":[{"internalType":"address","name":"member","type":"address"},{"internalType":"address","name":"memberPool","type":"address"}],"name":"addMember","outputs":[],"stateMutability":"nonpayable","type":"function"},{"inputs":[{"internalType":"address","name":"member","type":"address"},{"internalType":"address","name":"project","type":"address"}],"name":"addMemberProject","outputs":[],"stateMutability":"nonpayable","type":"function"},{"inputs":[{"internalType":"address","name":"account","type":"address"},{"internalType":"address","name":"pool","type":"address"}],"name":"addPoolCreator","outputs":[],"stateMutability":"nonpayable","type":"function"},{"inputs":[{"internalType":"address","name":"account","type":"address"},{"internalType":"address","name":"proposal","type":"address"}],"name":"addStakeholderToProposal","outputs":[],"stateMutability":"nonpayable","type":"function"},{"inputs":[{"internalType":"address","name":"","type":"address"},{"internalType":"uint256","name":"","type":"uint256"}],"name":"creatorPools","outputs":[{"internalType":"address","name":"","type":"address"}],"stateMutability":"view","type":"function"},{"inputs":[{"internalType":"address","name":"","type":"address"},{"internalType":"address","name":"","type":"address"}],"name":"creatorPoolsMap","outputs":[{"internalType":"bool","name":"","type":"bool"}],"stateMutability":"view","type":"function"},{"inputs":[{"internalType":"address","name":"account","type":"address"}],"name":"getCreatorPools","outputs":[{"internalType":"address[]","name":"","type":"address[]"}],"stateMutability":"view","type":"function"},{"inputs":[{"internalType":"address","name":"member","type":"address"}],"name":"getMemberPools","outputs":[{"internalType":"address[]","name":"","type":"address[]"}],"stateMutability":"view","type":"function"},{"inputs":[{"internalType":"address","name":"account","type":"address"}],"name":"getStakeholderProposals","outputs":[{"internalType":"address[]","name":"","type":"address[]"}],"stateMutability":"view","type":"function"},{"inputs":[{"internalType":"address","name":"member","type":"address"},{"internalType":"address","name":"memberPool","type":"address"}],"name":"isMember","outputs":[{"internalType":"bool","name":"","type":"bool"}],"stateMutability":"view","type":"function"},{"inputs":[{"internalType":"address","name":"account","type":"address"},{"internalType":"address","name":"pool","type":"address"}],"name":"isPoolCreator","outputs":[{"internalType":"bool","name":"","type":"bool"}],"stateMutability":"view","type":"function"},{"inputs":[{"internalType":"address","name":"account","type":"address"},{"internalType":"address","name":"project","type":"address"}],"name":"isStakeholder","outputs":[{"internalType":"bool","name":"","type":"bool"}],"stateMutability":"view","type":"function"},{"inputs":[{"internalType":"address","name":"member","type":"address"}],"name":"memberIsInAnyPool","outputs":[{"internalType":"bool","name":"","type":"bool"}],"stateMutability":"view","type":"function"},{"inputs":[{"internalType":"address","name":"","type":"address"},{"internalType":"address","name":"","type":"address"}],"name":"memberMap","outputs":[{"internalType":"bool","name":"","type":"bool"}],"stateMutability":"view","type":"function"},{"inputs":[{"internalType":"address","name":"","type":"address"},{"internalType":"uint256","name":"","type":"uint256"}],"name":"memberPools","outputs":[{"internalType":"address","name":"","type":"address"}],"stateMutability":"view","type":"function"},{"inputs":[{"internalType":"address","name":"","type":"address"},{"internalType":"uint256","name":"","type":"uint256"}],"name":"memberProjects","outputs":[{"internalType":"address","name":"","type":"address"}],"stateMutability":"view","type":"function"},{"inputs":[{"internalType":"uint256","name":"atIndex","type":"uint256"}],"name":"poolUpOne","outputs":[],"stateMutability":"nonpayable","type":"function"},{"inputs":[{"internalType":"uint256","name":"","type":"uint256"}],"name":"pools","outputs":[{"internalType":"address","name":"","type":"address"}],"stateMutability":"view","type":"function"},{"inputs":[{"internalType":"address","name":"member","type":"address"},{"internalType":"uint256","name":"index","type":"uint256"}],"name":"removeMemberProject","outputs":[],"stateMutability":"nonpayable","type":"function"},{"inputs":[{"internalType":"address","name":"","type":"address"},{"internalType":"address","name":"","type":"address"}],"name":"stakeholderMap","outputs":[{"internalType":"bool","name":"","type":"bool"}],"stateMutability":"view","type":"function"},{"inputs":[{"internalType":"address","name":"","type":"address"},{"internalType":"uint256","name":"","type":"uint256"}],"name":"stakeholderProposals","outputs":[{"internalType":"address","name":"","type":"address"}],"stateMutability":"view","type":"function"}],"devdoc":{"kind":"dev","methods":{},"version":1},"evm":{"assembly":"    /* \"MemberMap.sol\":66:3057  contract MemberMap {... */\n  mstore(0x40, 0x80)\n  callvalue\n  dup1\n  iszero\n  tag_1\n  jumpi\n  0x00\n  dup1\n  revert\ntag_1:\n  pop\n  dataSize(sub_0)\n  dup1\n  dataOffset(sub_0)\n  0x00\n  codecopy\n  0x00\n  return\nstop\n\nsub_0: assembly {\n        /* \"MemberMap.sol\":66:3057  contract MemberMap {... */\n      mstore(0x40, 0x80)\n      callvalue\n      dup1\n      iszero\n      tag_1\n      jumpi\n      0x00\n      dup1\n      revert\n    tag_1:\n      pop\n      jumpi(tag_2, lt(calldatasize, 0x04))\n      shr(0xe0, calldataload(0x00))\n      dup1\n      0x84d0cbe3\n      gt\n      tag_24\n      jumpi\n      dup1\n      0xd5b03649\n      gt\n      tag_25\n      jumpi\n      dup1\n      0xd5b03649\n      eq\n      tag_18\n      jumpi\n      dup1\n      0xe86c24f9\n      eq\n      tag_19\n      jumpi\n      dup1\n      0xec3140a3\n      eq\n      tag_20\n      jumpi\n      dup1\n      0xf9819d8e\n      eq\n      tag_21\n      jumpi\n      dup1\n      0xf9ab2eff\n      eq\n      tag_22\n      jumpi\n      dup1\n      0xfadd65c3\n      eq\n      tag_23\n      jumpi\n      jump(tag_2)\n    tag_25:\n      dup1\n      0x84d0cbe3\n      eq\n      tag_13\n      jumpi\n      dup1\n      0x9457740a\n      eq\n      tag_14\n      jumpi\n      dup1\n      0x9d58b15d\n      eq\n      tag_15\n      jumpi\n      dup1\n      0xac4afa38\n      eq\n      tag_16\n      jumpi\n      dup1\n      0xba63a9f0\n      eq\n      tag_17\n      jumpi\n      jump(tag_2)\n    tag_24:\n      dup1\n      0x6997b953\n      gt\n      tag_26\n      jumpi\n      dup1\n      0x6997b953\n      eq\n      tag_8\n      jumpi\n      dup1\n      0x6c607516\n      eq\n      tag_9\n      jumpi\n      dup1\n      0x6e7f56f8\n      eq\n      tag_10\n      jumpi\n      dup1\n      0x75838862\n      eq\n      tag_11\n      jumpi\n      dup1\n      0x7a9b7c35\n      eq\n      tag_12\n      jumpi\n      jump(tag_2)\n    tag_26:\n      dup1\n      0x1875c639\n      eq\n      tag_3\n      jumpi\n      dup1\n      0x39ac7a08\n      eq\n      tag_4\n      jumpi\n      dup1\n      0x3a685930\n      eq\n      tag_5\n      jumpi\n      dup1\n      0x4c2587d4\n      eq\n      tag_6\n      jumpi\n      dup1\n      0x57b70767\n      eq\n      tag_7\n      jumpi\n    tag_2:\n      0x00\n      dup1\n      revert\n        /* \"MemberMap.sol\":215:266  mapping(address => address[]) public memberProjects */\n    tag_3:\n      tag_27\n      0x04\n      dup1\n      calldatasize\n      sub\n      dup2\n      add\n      swap1\n      tag_28\n      swap2\n      swap1\n      tag_29\n      jump\t// in\n    tag_28:\n      tag_30\n      jump\t// in\n    tag_27:\n      mload(0x40)\n      tag_31\n      swap2\n      swap1\n      tag_32\n      jump\t// in\n    tag_31:\n      mload(0x40)\n      dup1\n      swap2\n      sub\n      swap1\n      return\n        /* \"MemberMap.sol\":1126:1294  function isMember(address member, address memberPool)... */\n    tag_4:\n      tag_33\n      0x04\n      dup1\n      calldatasize\n      sub\n      dup2\n      add\n      swap1\n      tag_34\n      swap2\n      swap1\n      tag_35\n      jump\t// in\n    tag_34:\n      tag_36\n      jump\t// in\n    tag_33:\n      mload(0x40)\n      tag_37\n      swap2\n      swap1\n      tag_38\n      jump\t// in\n    tag_37:\n      mload(0x40)\n      dup1\n      swap2\n      sub\n      swap1\n      return\n        /* \"MemberMap.sol\":92:153  mapping(address => mapping(address => bool)) public memberMap */\n    tag_5:\n      tag_39\n      0x04\n      dup1\n      calldatasize\n      sub\n      dup2\n      add\n      swap1\n      tag_40\n      swap2\n      swap1\n      tag_35\n      jump\t// in\n    tag_40:\n      tag_41\n      jump\t// in\n    tag_39:\n      mload(0x40)\n      tag_42\n      swap2\n      swap1\n      tag_38\n      jump\t// in\n    tag_42:\n      mload(0x40)\n      dup1\n      swap2\n      sub\n      swap1\n      return\n        /* \"MemberMap.sol\":1495:1616  function addMemberProject(address member, address project) public {... */\n    tag_6:\n      tag_43\n      0x04\n      dup1\n      calldatasize\n      sub\n      dup2\n      add\n      swap1\n      tag_44\n      swap2\n      swap1\n      tag_35\n      jump\t// in\n    tag_44:\n      tag_45\n      jump\t// in\n    tag_43:\n      stop\n        /* \"MemberMap.sol\":160:208  mapping(address => address[]) public memberPools */\n    tag_7:\n      tag_46\n      0x04\n      dup1\n      calldatasize\n      sub\n      dup2\n      add\n      swap1\n      tag_47\n      swap2\n      swap1\n      tag_29\n      jump\t// in\n    tag_47:\n      tag_48\n      jump\t// in\n    tag_46:\n      mload(0x40)\n      tag_49\n      swap2\n      swap1\n      tag_32\n      jump\t// in\n    tag_49:\n      mload(0x40)\n      dup1\n      swap2\n      sub\n      swap1\n      return\n        /* \"MemberMap.sol\":2338:2514  function getStakeholderProposals(address account)... */\n    tag_8:\n      tag_50\n      0x04\n      dup1\n      calldatasize\n      sub\n      dup2\n      add\n      swap1\n      tag_51\n      swap2\n      swap1\n      tag_52\n      jump\t// in\n    tag_51:\n      tag_53\n      jump\t// in\n    tag_50:\n      mload(0x40)\n      tag_54\n      swap2\n      swap1\n      tag_55\n      jump\t// in\n    tag_54:\n      mload(0x40)\n      dup1\n      swap2\n      sub\n      swap1\n      return\n        /* \"MemberMap.sol\":348:405  mapping(address => address[]) public stakeholderProposals */\n    tag_9:\n      tag_56\n      0x04\n      dup1\n      calldatasize\n      sub\n      dup2\n      add\n      swap1\n      tag_57\n      swap2\n      swap1\n      tag_29\n      jump\t// in\n    tag_57:\n      tag_58\n      jump\t// in\n    tag_56:\n      mload(0x40)\n      tag_59\n      swap2\n      swap1\n      tag_32\n      jump\t// in\n    tag_59:\n      mload(0x40)\n      dup1\n      swap2\n      sub\n      swap1\n      return\n        /* \"MemberMap.sol\":275:341  mapping(address => mapping(address => bool)) public stakeholderMap */\n    tag_10:\n      tag_60\n      0x04\n      dup1\n      calldatasize\n      sub\n      dup2\n      add\n      swap1\n      tag_61\n      swap2\n      swap1\n      tag_35\n      jump\t// in\n    tag_61:\n      tag_62\n      jump\t// in\n    tag_60:\n      mload(0x40)\n      tag_63\n      swap2\n      swap1\n      tag_38\n      jump\t// in\n    tag_63:\n      mload(0x40)\n      dup1\n      swap2\n      sub\n      swap1\n      return\n        /* \"MemberMap.sol\":992:1118  function memberIsInAnyPool(address member) public view returns (bool) {... */\n    tag_11:\n      tag_64\n      0x04\n      dup1\n      calldatasize\n      sub\n      dup2\n      add\n      swap1\n      tag_65\n      swap2\n      swap1\n      tag_52\n      jump\t// in\n    tag_65:\n      tag_66\n      jump\t// in\n    tag_64:\n      mload(0x40)\n      tag_67\n      swap2\n      swap1\n      tag_38\n      jump\t// in\n    tag_67:\n      mload(0x40)\n      dup1\n      swap2\n      sub\n      swap1\n      return\n        /* \"MemberMap.sol\":575:812  function poolUpOne(uint256 atIndex) public {... */\n    tag_12:\n      tag_68\n      0x04\n      dup1\n      calldatasize\n      sub\n      dup2\n      add\n      swap1\n      tag_69\n      swap2\n      swap1\n      tag_70\n      jump\t// in\n    tag_69:\n      tag_71\n      jump\t// in\n    tag_68:\n      stop\n        /* \"MemberMap.sol\":1624:1936  function removeMemberProject(address member, uint256 index) public {... */\n    tag_13:\n      tag_72\n      0x04\n      dup1\n      calldatasize\n      sub\n      dup2\n      add\n      swap1\n      tag_73\n      swap2\n      swap1\n      tag_29\n      jump\t// in\n    tag_73:\n      tag_74\n      jump\t// in\n    tag_72:\n      stop\n        /* \"MemberMap.sol\":1944:2118  function isStakeholder(address account, address project)... */\n    tag_14:\n      tag_75\n      0x04\n      dup1\n      calldatasize\n      sub\n      dup2\n      add\n      swap1\n      tag_76\n      swap2\n      swap1\n      tag_35\n      jump\t// in\n    tag_76:\n      tag_77\n      jump\t// in\n    tag_75:\n      mload(0x40)\n      tag_78\n      swap2\n      swap1\n      tag_38\n      jump\t// in\n    tag_78:\n      mload(0x40)\n      dup1\n      swap2\n      sub\n      swap1\n      return\n        /* \"MemberMap.sol\":820:984  function addMember(address member, address memberPool) public {... */\n    tag_15:\n      tag_79\n      0x04\n      dup1\n      calldatasize\n      sub\n      dup2\n      add\n      swap1\n      tag_80\n      swap2\n      swap1\n      tag_35\n      jump\t// in\n    tag_80:\n      tag_81\n      jump\t// in\n    tag_79:\n      stop\n        /* \"MemberMap.sol\":544:566  address[] public pools */\n    tag_16:\n      tag_82\n      0x04\n      dup1\n      calldatasize\n      sub\n      dup2\n      add\n      swap1\n      tag_83\n      swap2\n      swap1\n      tag_70\n      jump\t// in\n    tag_83:\n      tag_84\n      jump\t// in\n    tag_82:\n      mload(0x40)\n      tag_85\n      swap2\n      swap1\n      tag_32\n      jump\t// in\n    tag_85:\n      mload(0x40)\n      dup1\n      swap2\n      sub\n      swap1\n      return\n        /* \"MemberMap.sol\":414:481  mapping(address => mapping(address => bool)) public creatorPoolsMap */\n    tag_17:\n      tag_86\n      0x04\n      dup1\n      calldatasize\n      sub\n      dup2\n      add\n      swap1\n      tag_87\n      swap2\n      swap1\n      tag_35\n      jump\t// in\n    tag_87:\n      tag_88\n      jump\t// in\n    tag_86:\n      mload(0x40)\n      tag_89\n      swap2\n      swap1\n      tag_38\n      jump\t// in\n    tag_89:\n      mload(0x40)\n      dup1\n      swap2\n      sub\n      swap1\n      return\n        /* \"MemberMap.sol\":2886:3054  function isPoolCreator(address account, address pool)... */\n    tag_18:\n      tag_90\n      0x04\n      dup1\n      calldatasize\n      sub\n      dup2\n      add\n      swap1\n      tag_91\n      swap2\n      swap1\n      tag_35\n      jump\t// in\n    tag_91:\n      tag_92\n      jump\t// in\n    tag_90:\n      mload(0x40)\n      tag_93\n      swap2\n      swap1\n      tag_38\n      jump\t// in\n    tag_93:\n      mload(0x40)\n      dup1\n      swap2\n      sub\n      swap1\n      return\n        /* \"MemberMap.sol\":2718:2878  function getCreatorPools(address account)... */\n    tag_19:\n      tag_94\n      0x04\n      dup1\n      calldatasize\n      sub\n      dup2\n      add\n      swap1\n      tag_95\n      swap2\n      swap1\n      tag_52\n      jump\t// in\n    tag_95:\n      tag_96\n      jump\t// in\n    tag_94:\n      mload(0x40)\n      tag_97\n      swap2\n      swap1\n      tag_55\n      jump\t// in\n    tag_97:\n      mload(0x40)\n      dup1\n      swap2\n      sub\n      swap1\n      return\n        /* \"MemberMap.sol\":2522:2710  function addPoolCreator(address account, address pool) public {... */\n    tag_20:\n      tag_98\n      0x04\n      dup1\n      calldatasize\n      sub\n      dup2\n      add\n      swap1\n      tag_99\n      swap2\n      swap1\n      tag_35\n      jump\t// in\n    tag_99:\n      tag_100\n      jump\t// in\n    tag_98:\n      stop\n        /* \"MemberMap.sol\":488:537  mapping(address => address[]) public creatorPools */\n    tag_21:\n      tag_101\n      0x04\n      dup1\n      calldatasize\n      sub\n      dup2\n      add\n      swap1\n      tag_102\n      swap2\n      swap1\n      tag_29\n      jump\t// in\n    tag_102:\n      tag_103\n      jump\t// in\n    tag_101:\n      mload(0x40)\n      tag_104\n      swap2\n      swap1\n      tag_32\n      jump\t// in\n    tag_104:\n      mload(0x40)\n      dup1\n      swap2\n      sub\n      swap1\n      return\n        /* \"MemberMap.sol\":2126:2330  function addStakeholderToProposal(address account, address proposal)... */\n    tag_22:\n      tag_105\n      0x04\n      dup1\n      calldatasize\n      sub\n      dup2\n      add\n      swap1\n      tag_106\n      swap2\n      swap1\n      tag_35\n      jump\t// in\n    tag_106:\n      tag_107\n      jump\t// in\n    tag_105:\n      stop\n        /* \"MemberMap.sol\":1302:1487  function getMemberPools(address member)... */\n    tag_23:\n      tag_108\n      0x04\n      dup1\n      calldatasize\n      sub\n      dup2\n      add\n      swap1\n      tag_109\n      swap2\n      swap1\n      tag_52\n      jump\t// in\n    tag_109:\n      tag_110\n      jump\t// in\n    tag_108:\n      mload(0x40)\n      tag_111\n      swap2\n      swap1\n      tag_55\n      jump\t// in\n    tag_111:\n      mload(0x40)\n      dup1\n      swap2\n      sub\n      swap1\n      return\n        /* \"MemberMap.sol\":215:266  mapping(address => address[]) public memberProjects */\n    tag_30:\n      mstore(0x20, 0x02)\n      dup2\n      0x00\n      mstore\n      keccak256(0x00, 0x40)\n      dup2\n      dup2\n      sload\n      dup2\n      lt\n      tag_112\n      jumpi\n      0x00\n      dup1\n      revert\n    tag_112:\n      swap1\n      0x00\n      mstore\n      keccak256(0x00, 0x20)\n      add\n      0x00\n      swap2\n      pop\n      swap2\n      pop\n      swap1\n      sload\n      swap1\n      0x0100\n      exp\n      swap1\n      div\n      0xffffffffffffffffffffffffffffffffffffffff\n      and\n      dup2\n      jump\t// out\n        /* \"MemberMap.sol\":1126:1294  function isMember(address member, address memberPool)... */\n    tag_36:\n        /* \"MemberMap.sol\":1228:1232  bool */\n      0x00\n        /* \"MemberMap.sol\":1257:1266  memberMap */\n      dup1\n        /* \"MemberMap.sol\":1257:1274  memberMap[member] */\n      0x00\n        /* \"MemberMap.sol\":1267:1273  member */\n      dup5\n        /* \"MemberMap.sol\":1257:1274  memberMap[member] */\n      0xffffffffffffffffffffffffffffffffffffffff\n      and\n      0xffffffffffffffffffffffffffffffffffffffff\n      and\n      dup2\n      mstore\n      0x20\n      add\n      swap1\n      dup2\n      mstore\n      0x20\n      add\n      0x00\n      keccak256\n        /* \"MemberMap.sol\":1257:1286  memberMap[member][memberPool] */\n      0x00\n        /* \"MemberMap.sol\":1275:1285  memberPool */\n      dup4\n        /* \"MemberMap.sol\":1257:1286  memberMap[member][memberPool] */\n      0xffffffffffffffffffffffffffffffffffffffff\n      and\n      0xffffffffffffffffffffffffffffffffffffffff\n      and\n      dup2\n      mstore\n      0x20\n      add\n      swap1\n      dup2\n      mstore\n      0x20\n      add\n      0x00\n      keccak256\n      0x00\n      swap1\n      sload\n      swap1\n      0x0100\n      exp\n      swap1\n      div\n      0xff\n      and\n        /* \"MemberMap.sol\":1250:1286  return memberMap[member][memberPool] */\n      swap1\n      pop\n        /* \"MemberMap.sol\":1126:1294  function isMember(address member, address memberPool)... */\n      swap3\n      swap2\n      pop\n      pop\n      jump\t// out\n        /* \"MemberMap.sol\":92:153  mapping(address => mapping(address => bool)) public memberMap */\n    tag_41:\n      mstore(0x20, 0x00)\n      dup2\n      0x00\n      mstore\n      mstore(0x20, keccak256(0x00, 0x40))\n      dup1\n      0x00\n      mstore\n      keccak256(0x00, 0x40)\n      0x00\n      swap2\n      pop\n      swap2\n      pop\n      swap1\n      sload\n      swap1\n      0x0100\n      exp\n      swap1\n      div\n      0xff\n      and\n      dup2\n      jump\t// out\n        /* \"MemberMap.sol\":1495:1616  function addMemberProject(address member, address project) public {... */\n    tag_45:\n        /* \"MemberMap.sol\":1572:1586  memberProjects */\n      0x02\n        /* \"MemberMap.sol\":1572:1594  memberProjects[member] */\n      0x00\n        /* \"MemberMap.sol\":1587:1593  member */\n      dup4\n        /* \"MemberMap.sol\":1572:1594  memberProjects[member] */\n      0xffffffffffffffffffffffffffffffffffffffff\n      and\n      0xffffffffffffffffffffffffffffffffffffffff\n      and\n      dup2\n      mstore\n      0x20\n      add\n      swap1\n      dup2\n      mstore\n      0x20\n      add\n      0x00\n      keccak256\n        /* \"MemberMap.sol\":1600:1607  project */\n      dup2\n        /* \"MemberMap.sol\":1572:1608  memberProjects[member].push(project) */\n      swap1\n      dup1\n      0x01\n      dup2\n      sload\n      add\n      dup1\n      dup3\n      sstore\n      dup1\n      swap2\n      pop\n      pop\n      0x01\n      swap1\n      sub\n      swap1\n      0x00\n      mstore\n      keccak256(0x00, 0x20)\n      add\n      0x00\n      swap1\n      swap2\n      swap1\n      swap2\n      swap1\n      swap2\n      0x0100\n      exp\n      dup2\n      sload\n      dup2\n      0xffffffffffffffffffffffffffffffffffffffff\n      mul\n      not\n      and\n      swap1\n      dup4\n      0xffffffffffffffffffffffffffffffffffffffff\n      and\n      mul\n      or\n      swap1\n      sstore\n      pop\n        /* \"MemberMap.sol\":1495:1616  function addMemberProject(address member, address project) public {... */\n      pop\n      pop\n      jump\t// out\n        /* \"MemberMap.sol\":160:208  mapping(address => address[]) public memberPools */\n    tag_48:\n      mstore(0x20, 0x01)\n      dup2\n      0x00\n      mstore\n      keccak256(0x00, 0x40)\n      dup2\n      dup2\n      sload\n      dup2\n      lt\n      tag_117\n      jumpi\n      0x00\n      dup1\n      revert\n    tag_117:\n      swap1\n      0x00\n      mstore\n      keccak256(0x00, 0x20)\n      add\n      0x00\n      swap2\n      pop\n      swap2\n      pop\n      swap1\n      sload\n      swap1\n      0x0100\n      exp\n      swap1\n      div\n      0xffffffffffffffffffffffffffffffffffffffff\n      and\n      dup2\n      jump\t// out\n        /* \"MemberMap.sol\":2338:2514  function getStakeholderProposals(address account)... */\n    tag_53:\n        /* \"MemberMap.sol\":2436:2452  address[] memory */\n      0x60\n        /* \"MemberMap.sol\":2477:2497  stakeholderProposals */\n      0x04\n        /* \"MemberMap.sol\":2477:2506  stakeholderProposals[account] */\n      0x00\n        /* \"MemberMap.sol\":2498:2505  account */\n      dup4\n        /* \"MemberMap.sol\":2477:2506  stakeholderProposals[account] */\n      0xffffffffffffffffffffffffffffffffffffffff\n      and\n      0xffffffffffffffffffffffffffffffffffffffff\n      and\n      dup2\n      mstore\n      0x20\n      add\n      swap1\n      dup2\n      mstore\n      0x20\n      add\n      0x00\n      keccak256\n        /* \"MemberMap.sol\":2470:2506  return stakeholderProposals[account] */\n      dup1\n      sload\n      dup1\n      0x20\n      mul\n      0x20\n      add\n      mload(0x40)\n      swap1\n      dup2\n      add\n      0x40\n      mstore\n      dup1\n      swap3\n      swap2\n      swap1\n      dup2\n      dup2\n      mstore\n      0x20\n      add\n      dup3\n      dup1\n      sload\n      dup1\n      iszero\n      tag_120\n      jumpi\n      0x20\n      mul\n      dup3\n      add\n      swap2\n      swap1\n      0x00\n      mstore\n      keccak256(0x00, 0x20)\n      swap1\n    tag_121:\n      dup2\n      0x00\n      swap1\n      sload\n      swap1\n      0x0100\n      exp\n      swap1\n      div\n      0xffffffffffffffffffffffffffffffffffffffff\n      and\n      0xffffffffffffffffffffffffffffffffffffffff\n      and\n      dup2\n      mstore\n      0x20\n      add\n      swap1\n      0x01\n      add\n      swap1\n      dup1\n      dup4\n      gt\n      tag_121\n      jumpi\n    tag_120:\n      pop\n      pop\n      pop\n      pop\n      pop\n      swap1\n      pop\n        /* \"MemberMap.sol\":2338:2514  function getStakeholderProposals(address account)... */\n      swap2\n      swap1\n      pop\n      jump\t// out\n        /* \"MemberMap.sol\":348:405  mapping(address => address[]) public stakeholderProposals */\n    tag_58:\n      mstore(0x20, 0x04)\n      dup2\n      0x00\n      mstore\n      keccak256(0x00, 0x40)\n      dup2\n      dup2\n      sload\n      dup2\n      lt\n      tag_122\n      jumpi\n      0x00\n      dup1\n      revert\n    tag_122:\n      swap1\n      0x00\n      mstore\n      keccak256(0x00, 0x20)\n      add\n      0x00\n      swap2\n      pop\n      swap2\n      pop\n      swap1\n      sload\n      swap1\n      0x0100\n      exp\n      swap1\n      div\n      0xffffffffffffffffffffffffffffffffffffffff\n      and\n      dup2\n      jump\t// out\n        /* \"MemberMap.sol\":275:341  mapping(address => mapping(address => bool)) public stakeholderMap */\n    tag_62:\n      mstore(0x20, 0x03)\n      dup2\n      0x00\n      mstore\n      mstore(0x20, keccak256(0x00, 0x40))\n      dup1\n      0x00\n      mstore\n      keccak256(0x00, 0x40)\n      0x00\n      swap2\n      pop\n      swap2\n      pop\n      swap1\n      sload\n      swap1\n      0x0100\n      exp\n      swap1\n      div\n      0xff\n      and\n      dup2\n      jump\t// out\n        /* \"MemberMap.sol\":992:1118  function memberIsInAnyPool(address member) public view returns (bool) {... */\n    tag_66:\n        /* \"MemberMap.sol\":1056:1060  bool */\n      0x00\n        /* \"MemberMap.sol\":1109:1110  0 */\n      dup1\n        /* \"MemberMap.sol\":1080:1091  memberPools */\n      0x01\n        /* \"MemberMap.sol\":1080:1099  memberPools[member] */\n      0x00\n        /* \"MemberMap.sol\":1092:1098  member */\n      dup5\n        /* \"MemberMap.sol\":1080:1099  memberPools[member] */\n      0xffffffffffffffffffffffffffffffffffffffff\n      and\n      0xffffffffffffffffffffffffffffffffffffffff\n      and\n      dup2\n      mstore\n      0x20\n      add\n      swap1\n      dup2\n      mstore\n      0x20\n      add\n      0x00\n      keccak256\n        /* \"MemberMap.sol\":1080:1106  memberPools[member].length */\n      dup1\n      sload\n      swap1\n      pop\n        /* \"MemberMap.sol\":1080:1110  memberPools[member].length > 0 */\n      gt\n        /* \"MemberMap.sol\":1073:1110  return memberPools[member].length > 0 */\n      swap1\n      pop\n        /* \"MemberMap.sol\":992:1118  function memberIsInAnyPool(address member) public view returns (bool) {... */\n      swap2\n      swap1\n      pop\n      jump\t// out\n        /* \"MemberMap.sol\":575:812  function poolUpOne(uint256 atIndex) public {... */\n    tag_71:\n        /* \"MemberMap.sol\":647:652  pools */\n      0x07\n        /* \"MemberMap.sol\":647:659  pools.length */\n      dup1\n      sload\n      swap1\n      pop\n        /* \"MemberMap.sol\":637:644  atIndex */\n      dup2\n        /* \"MemberMap.sol\":637:659  atIndex > pools.length */\n      gt\n        /* \"MemberMap.sol\":629:682  require(atIndex > pools.length, \"Index out of range\") */\n      tag_126\n      jumpi\n      mload(0x40)\n      0x08c379a000000000000000000000000000000000000000000000000000000000\n      dup2\n      mstore\n      0x04\n      add\n      tag_127\n      swap1\n      tag_128\n      jump\t// in\n    tag_127:\n      mload(0x40)\n      dup1\n      swap2\n      sub\n      swap1\n      revert\n    tag_126:\n        /* \"MemberMap.sol\":693:705  address temp */\n      0x00\n        /* \"MemberMap.sol\":708:713  pools */\n      0x07\n        /* \"MemberMap.sol\":714:721  atIndex */\n      dup3\n        /* \"MemberMap.sol\":708:722  pools[atIndex] */\n      dup2\n      sload\n      dup2\n      lt\n      tag_129\n      jumpi\n      tag_130\n      tag_131\n      jump\t// in\n    tag_130:\n    tag_129:\n      swap1\n      0x00\n      mstore\n      keccak256(0x00, 0x20)\n      add\n      0x00\n      swap1\n      sload\n      swap1\n      0x0100\n      exp\n      swap1\n      div\n      0xffffffffffffffffffffffffffffffffffffffff\n      and\n        /* \"MemberMap.sol\":693:722  address temp = pools[atIndex] */\n      swap1\n      pop\n        /* \"MemberMap.sol\":750:755  pools */\n      0x07\n        /* \"MemberMap.sol\":766:767  1 */\n      0x01\n        /* \"MemberMap.sol\":756:763  atIndex */\n      dup4\n        /* \"MemberMap.sol\":756:767  atIndex + 1 */\n      tag_133\n      swap2\n      swap1\n      tag_134\n      jump\t// in\n    tag_133:\n        /* \"MemberMap.sol\":750:768  pools[atIndex + 1] */\n      dup2\n      sload\n      dup2\n      lt\n      tag_135\n      jumpi\n      tag_136\n      tag_131\n      jump\t// in\n    tag_136:\n    tag_135:\n      swap1\n      0x00\n      mstore\n      keccak256(0x00, 0x20)\n      add\n      0x00\n      swap1\n      sload\n      swap1\n      0x0100\n      exp\n      swap1\n      div\n      0xffffffffffffffffffffffffffffffffffffffff\n      and\n        /* \"MemberMap.sol\":733:738  pools */\n      0x07\n        /* \"MemberMap.sol\":739:746  atIndex */\n      dup4\n        /* \"MemberMap.sol\":733:747  pools[atIndex] */\n      dup2\n      sload\n      dup2\n      lt\n      tag_138\n      jumpi\n      tag_139\n      tag_131\n      jump\t// in\n    tag_139:\n    tag_138:\n      swap1\n      0x00\n      mstore\n      keccak256(0x00, 0x20)\n      add\n      0x00\n        /* \"MemberMap.sol\":733:768  pools[atIndex] = pools[atIndex + 1] */\n      0x0100\n      exp\n      dup2\n      sload\n      dup2\n      0xffffffffffffffffffffffffffffffffffffffff\n      mul\n      not\n      and\n      swap1\n      dup4\n      0xffffffffffffffffffffffffffffffffffffffff\n      and\n      mul\n      or\n      swap1\n      sstore\n      pop\n        /* \"MemberMap.sol\":800:804  temp */\n      dup1\n        /* \"MemberMap.sol\":779:784  pools */\n      0x07\n        /* \"MemberMap.sol\":795:796  1 */\n      0x01\n        /* \"MemberMap.sol\":785:792  atIndex */\n      dup5\n        /* \"MemberMap.sol\":785:796  atIndex + 1 */\n      tag_141\n      swap2\n      swap1\n      tag_134\n      jump\t// in\n    tag_141:\n        /* \"MemberMap.sol\":779:797  pools[atIndex + 1] */\n      dup2\n      sload\n      dup2\n      lt\n      tag_142\n      jumpi\n      tag_143\n      tag_131\n      jump\t// in\n    tag_143:\n    tag_142:\n      swap1\n      0x00\n      mstore\n      keccak256(0x00, 0x20)\n      add\n      0x00\n        /* \"MemberMap.sol\":779:804  pools[atIndex + 1] = temp */\n      0x0100\n      exp\n      dup2\n      sload\n      dup2\n      0xffffffffffffffffffffffffffffffffffffffff\n      mul\n      not\n      and\n      swap1\n      dup4\n      0xffffffffffffffffffffffffffffffffffffffff\n      and\n      mul\n      or\n      swap1\n      sstore\n      pop\n        /* \"MemberMap.sol\":618:812  {... */\n      pop\n        /* \"MemberMap.sol\":575:812  function poolUpOne(uint256 atIndex) public {... */\n      pop\n      jump\t// out\n        /* \"MemberMap.sol\":1624:1936  function removeMemberProject(address member, uint256 index) public {... */\n    tag_74:\n        /* \"MemberMap.sol\":1743:1748  index */\n      dup1\n        /* \"MemberMap.sol\":1710:1724  memberProjects */\n      0x02\n        /* \"MemberMap.sol\":1710:1732  memberProjects[member] */\n      0x00\n        /* \"MemberMap.sol\":1725:1731  member */\n      dup5\n        /* \"MemberMap.sol\":1710:1732  memberProjects[member] */\n      0xffffffffffffffffffffffffffffffffffffffff\n      and\n      0xffffffffffffffffffffffffffffffffffffffff\n      and\n      dup2\n      mstore\n      0x20\n      add\n      swap1\n      dup2\n      mstore\n      0x20\n      add\n      0x00\n      keccak256\n        /* \"MemberMap.sol\":1710:1739  memberProjects[member].length */\n      dup1\n      sload\n      swap1\n      pop\n        /* \"MemberMap.sol\":1710:1748  memberProjects[member].length >= index */\n      lt\n      iszero\n        /* \"MemberMap.sol\":1702:1765  require(memberProjects[member].length >= index, \"Out of Index\") */\n      tag_146\n      jumpi\n      mload(0x40)\n      0x08c379a000000000000000000000000000000000000000000000000000000000\n      dup2\n      mstore\n      0x04\n      add\n      tag_147\n      swap1\n      tag_148\n      jump\t// in\n    tag_147:\n      mload(0x40)\n      dup1\n      swap2\n      sub\n      swap1\n      revert\n    tag_146:\n        /* \"MemberMap.sol\":1808:1822  memberProjects */\n      0x02\n        /* \"MemberMap.sol\":1808:1830  memberProjects[member] */\n      0x00\n        /* \"MemberMap.sol\":1823:1829  member */\n      dup4\n        /* \"MemberMap.sol\":1808:1830  memberProjects[member] */\n      0xffffffffffffffffffffffffffffffffffffffff\n      and\n      0xffffffffffffffffffffffffffffffffffffffff\n      and\n      dup2\n      mstore\n      0x20\n      add\n      swap1\n      dup2\n      mstore\n      0x20\n      add\n      0x00\n      keccak256\n        /* \"MemberMap.sol\":1877:1878  1 */\n      0x01\n        /* \"MemberMap.sol\":1845:1859  memberProjects */\n      0x02\n        /* \"MemberMap.sol\":1845:1867  memberProjects[member] */\n      0x00\n        /* \"MemberMap.sol\":1860:1866  member */\n      dup6\n        /* \"MemberMap.sol\":1845:1867  memberProjects[member] */\n      0xffffffffffffffffffffffffffffffffffffffff\n      and\n      0xffffffffffffffffffffffffffffffffffffffff\n      and\n      dup2\n      mstore\n      0x20\n      add\n      swap1\n      dup2\n      mstore\n      0x20\n      add\n      0x00\n      keccak256\n        /* \"MemberMap.sol\":1845:1874  memberProjects[member].length */\n      dup1\n      sload\n      swap1\n      pop\n        /* \"MemberMap.sol\":1845:1878  memberProjects[member].length - 1 */\n      tag_149\n      swap2\n      swap1\n      tag_150\n      jump\t// in\n    tag_149:\n        /* \"MemberMap.sol\":1808:1889  memberProjects[member][... */\n      dup2\n      sload\n      dup2\n      lt\n      tag_151\n      jumpi\n      tag_152\n      tag_131\n      jump\t// in\n    tag_152:\n    tag_151:\n      swap1\n      0x00\n      mstore\n      keccak256(0x00, 0x20)\n      add\n      0x00\n      swap1\n      sload\n      swap1\n      0x0100\n      exp\n      swap1\n      div\n      0xffffffffffffffffffffffffffffffffffffffff\n      and\n        /* \"MemberMap.sol\":1776:1790  memberProjects */\n      0x02\n        /* \"MemberMap.sol\":1776:1798  memberProjects[member] */\n      0x00\n        /* \"MemberMap.sol\":1791:1797  member */\n      dup5\n        /* \"MemberMap.sol\":1776:1798  memberProjects[member] */\n      0xffffffffffffffffffffffffffffffffffffffff\n      and\n      0xffffffffffffffffffffffffffffffffffffffff\n      and\n      dup2\n      mstore\n      0x20\n      add\n      swap1\n      dup2\n      mstore\n      0x20\n      add\n      0x00\n      keccak256\n        /* \"MemberMap.sol\":1799:1804  index */\n      dup3\n        /* \"MemberMap.sol\":1776:1805  memberProjects[member][index] */\n      dup2\n      sload\n      dup2\n      lt\n      tag_154\n      jumpi\n      tag_155\n      tag_131\n      jump\t// in\n    tag_155:\n    tag_154:\n      swap1\n      0x00\n      mstore\n      keccak256(0x00, 0x20)\n      add\n      0x00\n        /* \"MemberMap.sol\":1776:1889  memberProjects[member][index] = memberProjects[member][... */\n      0x0100\n      exp\n      dup2\n      sload\n      dup2\n      0xffffffffffffffffffffffffffffffffffffffff\n      mul\n      not\n      and\n      swap1\n      dup4\n      0xffffffffffffffffffffffffffffffffffffffff\n      and\n      mul\n      or\n      swap1\n      sstore\n      pop\n        /* \"MemberMap.sol\":1900:1914  memberProjects */\n      0x02\n        /* \"MemberMap.sol\":1900:1922  memberProjects[member] */\n      0x00\n        /* \"MemberMap.sol\":1915:1921  member */\n      dup4\n        /* \"MemberMap.sol\":1900:1922  memberProjects[member] */\n      0xffffffffffffffffffffffffffffffffffffffff\n      and\n      0xffffffffffffffffffffffffffffffffffffffff\n      and\n      dup2\n      mstore\n      0x20\n      add\n      swap1\n      dup2\n      mstore\n      0x20\n      add\n      0x00\n      keccak256\n        /* \"MemberMap.sol\":1900:1928  memberProjects[member].pop() */\n      dup1\n      sload\n      dup1\n      tag_157\n      jumpi\n      tag_158\n      tag_159\n      jump\t// in\n    tag_158:\n    tag_157:\n      0x01\n      swap1\n      sub\n      dup2\n      dup2\n      swap1\n      0x00\n      mstore\n      keccak256(0x00, 0x20)\n      add\n      exp(0x0100, 0x00)\n      dup2\n      sload\n      swap1\n      0xffffffffffffffffffffffffffffffffffffffff\n      mul\n      not\n      and\n      swap1\n      sstore\n      swap1\n      sstore\n        /* \"MemberMap.sol\":1624:1936  function removeMemberProject(address member, uint256 index) public {... */\n      pop\n      pop\n      jump\t// out\n        /* \"MemberMap.sol\":1944:2118  function isStakeholder(address account, address project)... */\n    tag_77:\n        /* \"MemberMap.sol\":2049:2053  bool */\n      0x00\n        /* \"MemberMap.sol\":2078:2092  stakeholderMap */\n      0x03\n        /* \"MemberMap.sol\":2078:2101  stakeholderMap[account] */\n      0x00\n        /* \"MemberMap.sol\":2093:2100  account */\n      dup5\n        /* \"MemberMap.sol\":2078:2101  stakeholderMap[account] */\n      0xffffffffffffffffffffffffffffffffffffffff\n      and\n      0xffffffffffffffffffffffffffffffffffffffff\n      and\n      dup2\n      mstore\n      0x20\n      add\n      swap1\n      dup2\n      mstore\n      0x20\n      add\n      0x00\n      keccak256\n        /* \"MemberMap.sol\":2078:2110  stakeholderMap[account][project] */\n      0x00\n        /* \"MemberMap.sol\":2102:2109  project */\n      dup4\n        /* \"MemberMap.sol\":2078:2110  stakeholderMap[account][project] */\n      0xffffffffffffffffffffffffffffffffffffffff\n      and\n      0xffffffffffffffffffffffffffffffffffffffff\n      and\n      dup2\n      mstore\n      0x20\n      add\n      swap1\n      dup2\n      mstore\n      0x20\n      add\n      0x00\n      keccak256\n      0x00\n      swap1\n      sload\n      swap1\n      0x0100\n      exp\n      swap1\n      div\n      0xff\n      and\n        /* \"MemberMap.sol\":2071:2110  return stakeholderMap[account][project] */\n      swap1\n      pop\n        /* \"MemberMap.sol\":1944:2118  function isStakeholder(address account, address project)... */\n      swap3\n      swap2\n      pop\n      pop\n      jump\t// out\n        /* \"MemberMap.sol\":820:984  function addMember(address member, address memberPool) public {... */\n    tag_81:\n        /* \"MemberMap.sol\":925:929  true */\n      0x01\n        /* \"MemberMap.sol\":893:902  memberMap */\n      0x00\n        /* \"MemberMap.sol\":893:910  memberMap[member] */\n      dup1\n        /* \"MemberMap.sol\":903:909  member */\n      dup5\n        /* \"MemberMap.sol\":893:910  memberMap[member] */\n      0xffffffffffffffffffffffffffffffffffffffff\n      and\n      0xffffffffffffffffffffffffffffffffffffffff\n      and\n      dup2\n      mstore\n      0x20\n      add\n      swap1\n      dup2\n      mstore\n      0x20\n      add\n      0x00\n      keccak256\n        /* \"MemberMap.sol\":893:922  memberMap[member][memberPool] */\n      0x00\n        /* \"MemberMap.sol\":911:921  memberPool */\n      dup4\n        /* \"MemberMap.sol\":893:922  memberMap[member][memberPool] */\n      0xffffffffffffffffffffffffffffffffffffffff\n      and\n      0xffffffffffffffffffffffffffffffffffffffff\n      and\n      dup2\n      mstore\n      0x20\n      add\n      swap1\n      dup2\n      mstore\n      0x20\n      add\n      0x00\n      keccak256\n      0x00\n        /* \"MemberMap.sol\":893:929  memberMap[member][memberPool] = true */\n      0x0100\n      exp\n      dup2\n      sload\n      dup2\n      0xff\n      mul\n      not\n      and\n      swap1\n      dup4\n      iszero\n      iszero\n      mul\n      or\n      swap1\n      sstore\n      pop\n        /* \"MemberMap.sol\":940:951  memberPools */\n      0x01\n        /* \"MemberMap.sol\":940:959  memberPools[member] */\n      0x00\n        /* \"MemberMap.sol\":952:958  member */\n      dup4\n        /* \"MemberMap.sol\":940:959  memberPools[member] */\n      0xffffffffffffffffffffffffffffffffffffffff\n      and\n      0xffffffffffffffffffffffffffffffffffffffff\n      and\n      dup2\n      mstore\n      0x20\n      add\n      swap1\n      dup2\n      mstore\n      0x20\n      add\n      0x00\n      keccak256\n        /* \"MemberMap.sol\":965:975  memberPool */\n      dup2\n        /* \"MemberMap.sol\":940:976  memberPools[member].push(memberPool) */\n      swap1\n      dup1\n      0x01\n      dup2\n      sload\n      add\n      dup1\n      dup3\n      sstore\n      dup1\n      swap2\n      pop\n      pop\n      0x01\n      swap1\n      sub\n      swap1\n      0x00\n      mstore\n      keccak256(0x00, 0x20)\n      add\n      0x00\n      swap1\n      swap2\n      swap1\n      swap2\n      swap1\n      swap2\n      0x0100\n      exp\n      dup2\n      sload\n      dup2\n      0xffffffffffffffffffffffffffffffffffffffff\n      mul\n      not\n      and\n      swap1\n      dup4\n      0xffffffffffffffffffffffffffffffffffffffff\n      and\n      mul\n      or\n      swap1\n      sstore\n      pop\n        /* \"MemberMap.sol\":820:984  function addMember(address member, address memberPool) public {... */\n      pop\n      pop\n      jump\t// out\n        /* \"MemberMap.sol\":544:566  address[] public pools */\n    tag_84:\n      0x07\n      dup2\n      dup2\n      sload\n      dup2\n      lt\n      tag_164\n      jumpi\n      0x00\n      dup1\n      revert\n    tag_164:\n      swap1\n      0x00\n      mstore\n      keccak256(0x00, 0x20)\n      add\n      0x00\n      swap2\n      pop\n      sload\n      swap1\n      0x0100\n      exp\n      swap1\n      div\n      0xffffffffffffffffffffffffffffffffffffffff\n      and\n      dup2\n      jump\t// out\n        /* \"MemberMap.sol\":414:481  mapping(address => mapping(address => bool)) public creatorPoolsMap */\n    tag_88:\n      mstore(0x20, 0x05)\n      dup2\n      0x00\n      mstore\n      mstore(0x20, keccak256(0x00, 0x40))\n      dup1\n      0x00\n      mstore\n      keccak256(0x00, 0x40)\n      0x00\n      swap2\n      pop\n      swap2\n      pop\n      swap1\n      sload\n      swap1\n      0x0100\n      exp\n      swap1\n      div\n      0xff\n      and\n      dup2\n      jump\t// out\n        /* \"MemberMap.sol\":2886:3054  function isPoolCreator(address account, address pool)... */\n    tag_92:\n        /* \"MemberMap.sol\":2988:2992  bool */\n      0x00\n        /* \"MemberMap.sol\":3017:3031  stakeholderMap */\n      0x03\n        /* \"MemberMap.sol\":3017:3040  stakeholderMap[account] */\n      0x00\n        /* \"MemberMap.sol\":3032:3039  account */\n      dup5\n        /* \"MemberMap.sol\":3017:3040  stakeholderMap[account] */\n      0xffffffffffffffffffffffffffffffffffffffff\n      and\n      0xffffffffffffffffffffffffffffffffffffffff\n      and\n      dup2\n      mstore\n      0x20\n      add\n      swap1\n      dup2\n      mstore\n      0x20\n      add\n      0x00\n      keccak256\n        /* \"MemberMap.sol\":3017:3046  stakeholderMap[account][pool] */\n      0x00\n        /* \"MemberMap.sol\":3041:3045  pool */\n      dup4\n        /* \"MemberMap.sol\":3017:3046  stakeholderMap[account][pool] */\n      0xffffffffffffffffffffffffffffffffffffffff\n      and\n      0xffffffffffffffffffffffffffffffffffffffff\n      and\n      dup2\n      mstore\n      0x20\n      add\n      swap1\n      dup2\n      mstore\n      0x20\n      add\n      0x00\n      keccak256\n      0x00\n      swap1\n      sload\n      swap1\n      0x0100\n      exp\n      swap1\n      div\n      0xff\n      and\n        /* \"MemberMap.sol\":3010:3046  return stakeholderMap[account][pool] */\n      swap1\n      pop\n        /* \"MemberMap.sol\":2886:3054  function isPoolCreator(address account, address pool)... */\n      swap3\n      swap2\n      pop\n      pop\n      jump\t// out\n        /* \"MemberMap.sol\":2718:2878  function getCreatorPools(address account)... */\n    tag_96:\n        /* \"MemberMap.sol\":2808:2824  address[] memory */\n      0x60\n        /* \"MemberMap.sol\":2849:2861  creatorPools */\n      0x06\n        /* \"MemberMap.sol\":2849:2870  creatorPools[account] */\n      0x00\n        /* \"MemberMap.sol\":2862:2869  account */\n      dup4\n        /* \"MemberMap.sol\":2849:2870  creatorPools[account] */\n      0xffffffffffffffffffffffffffffffffffffffff\n      and\n      0xffffffffffffffffffffffffffffffffffffffff\n      and\n      dup2\n      mstore\n      0x20\n      add\n      swap1\n      dup2\n      mstore\n      0x20\n      add\n      0x00\n      keccak256\n        /* \"MemberMap.sol\":2842:2870  return creatorPools[account] */\n      dup1\n      sload\n      dup1\n      0x20\n      mul\n      0x20\n      add\n      mload(0x40)\n      swap1\n      dup2\n      add\n      0x40\n      mstore\n      dup1\n      swap3\n      swap2\n      swap1\n      dup2\n      dup2\n      mstore\n      0x20\n      add\n      dup3\n      dup1\n      sload\n      dup1\n      iszero\n      tag_168\n      jumpi\n      0x20\n      mul\n      dup3\n      add\n      swap2\n      swap1\n      0x00\n      mstore\n      keccak256(0x00, 0x20)\n      swap1\n    tag_169:\n      dup2\n      0x00\n      swap1\n      sload\n      swap1\n      0x0100\n      exp\n      swap1\n      div\n      0xffffffffffffffffffffffffffffffffffffffff\n      and\n      0xffffffffffffffffffffffffffffffffffffffff\n      and\n      dup2\n      mstore\n      0x20\n      add\n      swap1\n      0x01\n      add\n      swap1\n      dup1\n      dup4\n      gt\n      tag_169\n      jumpi\n    tag_168:\n      pop\n      pop\n      pop\n      pop\n      pop\n      swap1\n      pop\n        /* \"MemberMap.sol\":2718:2878  function getCreatorPools(address account)... */\n      swap2\n      swap1\n      pop\n      jump\t// out\n        /* \"MemberMap.sol\":2522:2710  function addPoolCreator(address account, address pool) public {... */\n    tag_100:\n        /* \"MemberMap.sol\":2628:2632  true */\n      0x01\n        /* \"MemberMap.sol\":2595:2610  creatorPoolsMap */\n      0x05\n        /* \"MemberMap.sol\":2595:2619  creatorPoolsMap[account] */\n      0x00\n        /* \"MemberMap.sol\":2611:2618  account */\n      dup5\n        /* \"MemberMap.sol\":2595:2619  creatorPoolsMap[account] */\n      0xffffffffffffffffffffffffffffffffffffffff\n      and\n      0xffffffffffffffffffffffffffffffffffffffff\n      and\n      dup2\n      mstore\n      0x20\n      add\n      swap1\n      dup2\n      mstore\n      0x20\n      add\n      0x00\n      keccak256\n        /* \"MemberMap.sol\":2595:2625  creatorPoolsMap[account][pool] */\n      0x00\n        /* \"MemberMap.sol\":2620:2624  pool */\n      dup4\n        /* \"MemberMap.sol\":2595:2625  creatorPoolsMap[account][pool] */\n      0xffffffffffffffffffffffffffffffffffffffff\n      and\n      0xffffffffffffffffffffffffffffffffffffffff\n      and\n      dup2\n      mstore\n      0x20\n      add\n      swap1\n      dup2\n      mstore\n      0x20\n      add\n      0x00\n      keccak256\n      0x00\n        /* \"MemberMap.sol\":2595:2632  creatorPoolsMap[account][pool] = true */\n      0x0100\n      exp\n      dup2\n      sload\n      dup2\n      0xff\n      mul\n      not\n      and\n      swap1\n      dup4\n      iszero\n      iszero\n      mul\n      or\n      swap1\n      sstore\n      pop\n        /* \"MemberMap.sol\":2643:2655  creatorPools */\n      0x06\n        /* \"MemberMap.sol\":2643:2664  creatorPools[account] */\n      0x00\n        /* \"MemberMap.sol\":2656:2663  account */\n      dup4\n        /* \"MemberMap.sol\":2643:2664  creatorPools[account] */\n      0xffffffffffffffffffffffffffffffffffffffff\n      and\n      0xffffffffffffffffffffffffffffffffffffffff\n      and\n      dup2\n      mstore\n      0x20\n      add\n      swap1\n      dup2\n      mstore\n      0x20\n      add\n      0x00\n      keccak256\n        /* \"MemberMap.sol\":2670:2674  pool */\n      dup2\n        /* \"MemberMap.sol\":2643:2675  creatorPools[account].push(pool) */\n      swap1\n      dup1\n      0x01\n      dup2\n      sload\n      add\n      dup1\n      dup3\n      sstore\n      dup1\n      swap2\n      pop\n      pop\n      0x01\n      swap1\n      sub\n      swap1\n      0x00\n      mstore\n      keccak256(0x00, 0x20)\n      add\n      0x00\n      swap1\n      swap2\n      swap1\n      swap2\n      swap1\n      swap2\n      0x0100\n      exp\n      dup2\n      sload\n      dup2\n      0xffffffffffffffffffffffffffffffffffffffff\n      mul\n      not\n      and\n      swap1\n      dup4\n      0xffffffffffffffffffffffffffffffffffffffff\n      and\n      mul\n      or\n      swap1\n      sstore\n      pop\n        /* \"MemberMap.sol\":2686:2691  pools */\n      0x07\n        /* \"MemberMap.sol\":2697:2701  pool */\n      dup2\n        /* \"MemberMap.sol\":2686:2702  pools.push(pool) */\n      swap1\n      dup1\n      0x01\n      dup2\n      sload\n      add\n      dup1\n      dup3\n      sstore\n      dup1\n      swap2\n      pop\n      pop\n      0x01\n      swap1\n      sub\n      swap1\n      0x00\n      mstore\n      keccak256(0x00, 0x20)\n      add\n      0x00\n      swap1\n      swap2\n      swap1\n      swap2\n      swap1\n      swap2\n      0x0100\n      exp\n      dup2\n      sload\n      dup2\n      0xffffffffffffffffffffffffffffffffffffffff\n      mul\n      not\n      and\n      swap1\n      dup4\n      0xffffffffffffffffffffffffffffffffffffffff\n      and\n      mul\n      or\n      swap1\n      sstore\n      pop\n        /* \"MemberMap.sol\":2522:2710  function addPoolCreator(address account, address pool) public {... */\n      pop\n      pop\n      jump\t// out\n        /* \"MemberMap.sol\":488:537  mapping(address => address[]) public creatorPools */\n    tag_103:\n      mstore(0x20, 0x06)\n      dup2\n      0x00\n      mstore\n      keccak256(0x00, 0x40)\n      dup2\n      dup2\n      sload\n      dup2\n      lt\n      tag_173\n      jumpi\n      0x00\n      dup1\n      revert\n    tag_173:\n      swap1\n      0x00\n      mstore\n      keccak256(0x00, 0x20)\n      add\n      0x00\n      swap2\n      pop\n      swap2\n      pop\n      swap1\n      sload\n      swap1\n      0x0100\n      exp\n      swap1\n      div\n      0xffffffffffffffffffffffffffffffffffffffff\n      and\n      dup2\n      jump\t// out\n        /* \"MemberMap.sol\":2126:2330  function addStakeholderToProposal(address account, address proposal)... */\n    tag_107:\n        /* \"MemberMap.sol\":2263:2267  true */\n      0x01\n        /* \"MemberMap.sol\":2227:2241  stakeholderMap */\n      0x03\n        /* \"MemberMap.sol\":2227:2250  stakeholderMap[account] */\n      0x00\n        /* \"MemberMap.sol\":2242:2249  account */\n      dup5\n        /* \"MemberMap.sol\":2227:2250  stakeholderMap[account] */\n      0xffffffffffffffffffffffffffffffffffffffff\n      and\n      0xffffffffffffffffffffffffffffffffffffffff\n      and\n      dup2\n      mstore\n      0x20\n      add\n      swap1\n      dup2\n      mstore\n      0x20\n      add\n      0x00\n      keccak256\n        /* \"MemberMap.sol\":2227:2260  stakeholderMap[account][proposal] */\n      0x00\n        /* \"MemberMap.sol\":2251:2259  proposal */\n      dup4\n        /* \"MemberMap.sol\":2227:2260  stakeholderMap[account][proposal] */\n      0xffffffffffffffffffffffffffffffffffffffff\n      and\n      0xffffffffffffffffffffffffffffffffffffffff\n      and\n      dup2\n      mstore\n      0x20\n      add\n      swap1\n      dup2\n      mstore\n      0x20\n      add\n      0x00\n      keccak256\n      0x00\n        /* \"MemberMap.sol\":2227:2267  stakeholderMap[account][proposal] = true */\n      0x0100\n      exp\n      dup2\n      sload\n      dup2\n      0xff\n      mul\n      not\n      and\n      swap1\n      dup4\n      iszero\n      iszero\n      mul\n      or\n      swap1\n      sstore\n      pop\n        /* \"MemberMap.sol\":2278:2298  stakeholderProposals */\n      0x04\n        /* \"MemberMap.sol\":2278:2307  stakeholderProposals[account] */\n      0x00\n        /* \"MemberMap.sol\":2299:2306  account */\n      dup4\n        /* \"MemberMap.sol\":2278:2307  stakeholderProposals[account] */\n      0xffffffffffffffffffffffffffffffffffffffff\n      and\n      0xffffffffffffffffffffffffffffffffffffffff\n      and\n      dup2\n      mstore\n      0x20\n      add\n      swap1\n      dup2\n      mstore\n      0x20\n      add\n      0x00\n      keccak256\n        /* \"MemberMap.sol\":2313:2321  proposal */\n      dup2\n        /* \"MemberMap.sol\":2278:2322  stakeholderProposals[account].push(proposal) */\n      swap1\n      dup1\n      0x01\n      dup2\n      sload\n      add\n      dup1\n      dup3\n      sstore\n      dup1\n      swap2\n      pop\n      pop\n      0x01\n      swap1\n      sub\n      swap1\n      0x00\n      mstore\n      keccak256(0x00, 0x20)\n      add\n      0x00\n      swap1\n      swap2\n      swap1\n      swap2\n      swap1\n      swap2\n      0x0100\n      exp\n      dup2\n      sload\n      dup2\n      0xffffffffffffffffffffffffffffffffffffffff\n      mul\n      not\n      and\n      swap1\n      dup4\n      0xffffffffffffffffffffffffffffffffffffffff\n      and\n      mul\n      or\n      swap1\n      sstore\n      pop\n        /* \"MemberMap.sol\":2126:2330  function addStakeholderToProposal(address account, address proposal)... */\n      pop\n      pop\n      jump\t// out\n        /* \"MemberMap.sol\":1302:1487  function getMemberPools(address member)... */\n    tag_110:\n        /* \"MemberMap.sol\":1390:1406  address[] memory */\n      0x60\n        /* \"MemberMap.sol\":1446:1460  memberProjects */\n      0x02\n        /* \"MemberMap.sol\":1446:1468  memberProjects[member] */\n      0x00\n        /* \"MemberMap.sol\":1461:1467  member */\n      dup4\n        /* \"MemberMap.sol\":1446:1468  memberProjects[member] */\n      0xffffffffffffffffffffffffffffffffffffffff\n      and\n      0xffffffffffffffffffffffffffffffffffffffff\n      and\n      dup2\n      mstore\n      0x20\n      add\n      swap1\n      dup2\n      mstore\n      0x20\n      add\n      0x00\n      keccak256\n        /* \"MemberMap.sol\":1439:1468  return memberProjects[member] */\n      dup1\n      sload\n      dup1\n      0x20\n      mul\n      0x20\n      add\n      mload(0x40)\n      swap1\n      dup2\n      add\n      0x40\n      mstore\n      dup1\n      swap3\n      swap2\n      swap1\n      dup2\n      dup2\n      mstore\n      0x20\n      add\n      dup3\n      dup1\n      sload\n      dup1\n      iszero\n      tag_178\n      jumpi\n      0x20\n      mul\n      dup3\n      add\n      swap2\n      swap1\n      0x00\n      mstore\n      keccak256(0x00, 0x20)\n      swap1\n    tag_179:\n      dup2\n      0x00\n      swap1\n      sload\n      swap1\n      0x0100\n      exp\n      swap1\n      div\n      0xffffffffffffffffffffffffffffffffffffffff\n      and\n      0xffffffffffffffffffffffffffffffffffffffff\n      and\n      dup2\n      mstore\n      0x20\n      add\n      swap1\n      0x01\n      add\n      swap1\n      dup1\n      dup4\n      gt\n      tag_179\n      jumpi\n    tag_178:\n      pop\n      pop\n      pop\n      pop\n      pop\n      swap1\n      pop\n        /* \"MemberMap.sol\":1302:1487  function getMemberPools(address member)... */\n      swap2\n      swap1\n      pop\n      jump\t// out\n        /* \"#utility.yul\":88:205   */\n    tag_181:\n        /* \"#utility.yul\":197:198   */\n      0x00\n        /* \"#utility.yul\":194:195   */\n      dup1\n        /* \"#utility.yul\":187:199   */\n      revert\n        /* \"#utility.yul\":334:460   */\n    tag_183:\n        /* \"#utility.yul\":371:378   */\n      0x00\n        /* \"#utility.yul\":411:453   */\n      0xffffffffffffffffffffffffffffffffffffffff\n        /* \"#utility.yul\":404:409   */\n      dup3\n        /* \"#utility.yul\":400:454   */\n      and\n        /* \"#utility.yul\":389:454   */\n      swap1\n      pop\n        /* \"#utility.yul\":334:460   */\n      swap2\n      swap1\n      pop\n      jump\t// out\n        /* \"#utility.yul\":466:562   */\n    tag_184:\n        /* \"#utility.yul\":503:510   */\n      0x00\n        /* \"#utility.yul\":532:556   */\n      tag_212\n        /* \"#utility.yul\":550:555   */\n      dup3\n        /* \"#utility.yul\":532:556   */\n      tag_183\n      jump\t// in\n    tag_212:\n        /* \"#utility.yul\":521:556   */\n      swap1\n      pop\n        /* \"#utility.yul\":466:562   */\n      swap2\n      swap1\n      pop\n      jump\t// out\n        /* \"#utility.yul\":568:690   */\n    tag_185:\n        /* \"#utility.yul\":641:665   */\n      tag_214\n        /* \"#utility.yul\":659:664   */\n      dup2\n        /* \"#utility.yul\":641:665   */\n      tag_184\n      jump\t// in\n    tag_214:\n        /* \"#utility.yul\":634:639   */\n      dup2\n        /* \"#utility.yul\":631:666   */\n      eq\n        /* \"#utility.yul\":621:684   */\n      tag_215\n      jumpi\n        /* \"#utility.yul\":680:681   */\n      0x00\n        /* \"#utility.yul\":677:678   */\n      dup1\n        /* \"#utility.yul\":670:682   */\n      revert\n        /* \"#utility.yul\":621:684   */\n    tag_215:\n        /* \"#utility.yul\":568:690   */\n      pop\n      jump\t// out\n        /* \"#utility.yul\":696:835   */\n    tag_186:\n        /* \"#utility.yul\":742:747   */\n      0x00\n        /* \"#utility.yul\":780:786   */\n      dup2\n        /* \"#utility.yul\":767:787   */\n      calldataload\n        /* \"#utility.yul\":758:787   */\n      swap1\n      pop\n        /* \"#utility.yul\":796:829   */\n      tag_217\n        /* \"#utility.yul\":823:828   */\n      dup2\n        /* \"#utility.yul\":796:829   */\n      tag_185\n      jump\t// in\n    tag_217:\n        /* \"#utility.yul\":696:835   */\n      swap3\n      swap2\n      pop\n      pop\n      jump\t// out\n        /* \"#utility.yul\":841:918   */\n    tag_187:\n        /* \"#utility.yul\":878:885   */\n      0x00\n        /* \"#utility.yul\":907:912   */\n      dup2\n        /* \"#utility.yul\":896:912   */\n      swap1\n      pop\n        /* \"#utility.yul\":841:918   */\n      swap2\n      swap1\n      pop\n      jump\t// out\n        /* \"#utility.yul\":924:1046   */\n    tag_188:\n        /* \"#utility.yul\":997:1021   */\n      tag_220\n        /* \"#utility.yul\":1015:1020   */\n      dup2\n        /* \"#utility.yul\":997:1021   */\n      tag_187\n      jump\t// in\n    tag_220:\n        /* \"#utility.yul\":990:995   */\n      dup2\n        /* \"#utility.yul\":987:1022   */\n      eq\n        /* \"#utility.yul\":977:1040   */\n      tag_221\n      jumpi\n        /* \"#utility.yul\":1036:1037   */\n      0x00\n        /* \"#utility.yul\":1033:1034   */\n      dup1\n        /* \"#utility.yul\":1026:1038   */\n      revert\n        /* \"#utility.yul\":977:1040   */\n    tag_221:\n        /* \"#utility.yul\":924:1046   */\n      pop\n      jump\t// out\n        /* \"#utility.yul\":1052:1191   */\n    tag_189:\n        /* \"#utility.yul\":1098:1103   */\n      0x00\n        /* \"#utility.yul\":1136:1142   */\n      dup2\n        /* \"#utility.yul\":1123:1143   */\n      calldataload\n        /* \"#utility.yul\":1114:1143   */\n      swap1\n      pop\n        /* \"#utility.yul\":1152:1185   */\n      tag_223\n        /* \"#utility.yul\":1179:1184   */\n      dup2\n        /* \"#utility.yul\":1152:1185   */\n      tag_188\n      jump\t// in\n    tag_223:\n        /* \"#utility.yul\":1052:1191   */\n      swap3\n      swap2\n      pop\n      pop\n      jump\t// out\n        /* \"#utility.yul\":1197:1671   */\n    tag_29:\n        /* \"#utility.yul\":1265:1271   */\n      0x00\n        /* \"#utility.yul\":1273:1279   */\n      dup1\n        /* \"#utility.yul\":1322:1324   */\n      0x40\n        /* \"#utility.yul\":1310:1319   */\n      dup4\n        /* \"#utility.yul\":1301:1308   */\n      dup6\n        /* \"#utility.yul\":1297:1320   */\n      sub\n        /* \"#utility.yul\":1293:1325   */\n      slt\n        /* \"#utility.yul\":1290:1409   */\n      iszero\n      tag_225\n      jumpi\n        /* \"#utility.yul\":1328:1407   */\n      tag_226\n      tag_181\n      jump\t// in\n    tag_226:\n        /* \"#utility.yul\":1290:1409   */\n    tag_225:\n        /* \"#utility.yul\":1448:1449   */\n      0x00\n        /* \"#utility.yul\":1473:1526   */\n      tag_227\n        /* \"#utility.yul\":1518:1525   */\n      dup6\n        /* \"#utility.yul\":1509:1515   */\n      dup3\n        /* \"#utility.yul\":1498:1507   */\n      dup7\n        /* \"#utility.yul\":1494:1516   */\n      add\n        /* \"#utility.yul\":1473:1526   */\n      tag_186\n      jump\t// in\n    tag_227:\n        /* \"#utility.yul\":1463:1526   */\n      swap3\n      pop\n        /* \"#utility.yul\":1419:1536   */\n      pop\n        /* \"#utility.yul\":1575:1577   */\n      0x20\n        /* \"#utility.yul\":1601:1654   */\n      tag_228\n        /* \"#utility.yul\":1646:1653   */\n      dup6\n        /* \"#utility.yul\":1637:1643   */\n      dup3\n        /* \"#utility.yul\":1626:1635   */\n      dup7\n        /* \"#utility.yul\":1622:1644   */\n      add\n        /* \"#utility.yul\":1601:1654   */\n      tag_189\n      jump\t// in\n    tag_228:\n        /* \"#utility.yul\":1591:1654   */\n      swap2\n      pop\n        /* \"#utility.yul\":1546:1664   */\n      pop\n        /* \"#utility.yul\":1197:1671   */\n      swap3\n      pop\n      swap3\n      swap1\n      pop\n      jump\t// out\n        /* \"#utility.yul\":1677:1795   */\n    tag_190:\n        /* \"#utility.yul\":1764:1788   */\n      tag_230\n        /* \"#utility.yul\":1782:1787   */\n      dup2\n        /* \"#utility.yul\":1764:1788   */\n      tag_184\n      jump\t// in\n    tag_230:\n        /* \"#utility.yul\":1759:1762   */\n      dup3\n        /* \"#utility.yul\":1752:1789   */\n      mstore\n        /* \"#utility.yul\":1677:1795   */\n      pop\n      pop\n      jump\t// out\n        /* \"#utility.yul\":1801:2023   */\n    tag_32:\n        /* \"#utility.yul\":1894:1898   */\n      0x00\n        /* \"#utility.yul\":1932:1934   */\n      0x20\n        /* \"#utility.yul\":1921:1930   */\n      dup3\n        /* \"#utility.yul\":1917:1935   */\n      add\n        /* \"#utility.yul\":1909:1935   */\n      swap1\n      pop\n        /* \"#utility.yul\":1945:2016   */\n      tag_232\n        /* \"#utility.yul\":2013:2014   */\n      0x00\n        /* \"#utility.yul\":2002:2011   */\n      dup4\n        /* \"#utility.yul\":1998:2015   */\n      add\n        /* \"#utility.yul\":1989:1995   */\n      dup5\n        /* \"#utility.yul\":1945:2016   */\n      tag_190\n      jump\t// in\n    tag_232:\n        /* \"#utility.yul\":1801:2023   */\n      swap3\n      swap2\n      pop\n      pop\n      jump\t// out\n        /* \"#utility.yul\":2029:2503   */\n    tag_35:\n        /* \"#utility.yul\":2097:2103   */\n      0x00\n        /* \"#utility.yul\":2105:2111   */\n      dup1\n        /* \"#utility.yul\":2154:2156   */\n      0x40\n        /* \"#utility.yul\":2142:2151   */\n      dup4\n        /* \"#utility.yul\":2133:2140   */\n      dup6\n        /* \"#utility.yul\":2129:2152   */\n      sub\n        /* \"#utility.yul\":2125:2157   */\n      slt\n        /* \"#utility.yul\":2122:2241   */\n      iszero\n      tag_234\n      jumpi\n        /* \"#utility.yul\":2160:2239   */\n      tag_235\n      tag_181\n      jump\t// in\n    tag_235:\n        /* \"#utility.yul\":2122:2241   */\n    tag_234:\n        /* \"#utility.yul\":2280:2281   */\n      0x00\n        /* \"#utility.yul\":2305:2358   */\n      tag_236\n        /* \"#utility.yul\":2350:2357   */\n      dup6\n        /* \"#utility.yul\":2341:2347   */\n      dup3\n        /* \"#utility.yul\":2330:2339   */\n      dup7\n        /* \"#utility.yul\":2326:2348   */\n      add\n        /* \"#utility.yul\":2305:2358   */\n      tag_186\n      jump\t// in\n    tag_236:\n        /* \"#utility.yul\":2295:2358   */\n      swap3\n      pop\n        /* \"#utility.yul\":2251:2368   */\n      pop\n        /* \"#utility.yul\":2407:2409   */\n      0x20\n        /* \"#utility.yul\":2433:2486   */\n      tag_237\n        /* \"#utility.yul\":2478:2485   */\n      dup6\n        /* \"#utility.yul\":2469:2475   */\n      dup3\n        /* \"#utility.yul\":2458:2467   */\n      dup7\n        /* \"#utility.yul\":2454:2476   */\n      add\n        /* \"#utility.yul\":2433:2486   */\n      tag_186\n      jump\t// in\n    tag_237:\n        /* \"#utility.yul\":2423:2486   */\n      swap2\n      pop\n        /* \"#utility.yul\":2378:2496   */\n      pop\n        /* \"#utility.yul\":2029:2503   */\n      swap3\n      pop\n      swap3\n      swap1\n      pop\n      jump\t// out\n        /* \"#utility.yul\":2509:2599   */\n    tag_191:\n        /* \"#utility.yul\":2543:2550   */\n      0x00\n        /* \"#utility.yul\":2586:2591   */\n      dup2\n        /* \"#utility.yul\":2579:2592   */\n      iszero\n        /* \"#utility.yul\":2572:2593   */\n      iszero\n        /* \"#utility.yul\":2561:2593   */\n      swap1\n      pop\n        /* \"#utility.yul\":2509:2599   */\n      swap2\n      swap1\n      pop\n      jump\t// out\n        /* \"#utility.yul\":2605:2714   */\n    tag_192:\n        /* \"#utility.yul\":2686:2707   */\n      tag_240\n        /* \"#utility.yul\":2701:2706   */\n      dup2\n        /* \"#utility.yul\":2686:2707   */\n      tag_191\n      jump\t// in\n    tag_240:\n        /* \"#utility.yul\":2681:2684   */\n      dup3\n        /* \"#utility.yul\":2674:2708   */\n      mstore\n        /* \"#utility.yul\":2605:2714   */\n      pop\n      pop\n      jump\t// out\n        /* \"#utility.yul\":2720:2930   */\n    tag_38:\n        /* \"#utility.yul\":2807:2811   */\n      0x00\n        /* \"#utility.yul\":2845:2847   */\n      0x20\n        /* \"#utility.yul\":2834:2843   */\n      dup3\n        /* \"#utility.yul\":2830:2848   */\n      add\n        /* \"#utility.yul\":2822:2848   */\n      swap1\n      pop\n        /* \"#utility.yul\":2858:2923   */\n      tag_242\n        /* \"#utility.yul\":2920:2921   */\n      0x00\n        /* \"#utility.yul\":2909:2918   */\n      dup4\n        /* \"#utility.yul\":2905:2922   */\n      add\n        /* \"#utility.yul\":2896:2902   */\n      dup5\n        /* \"#utility.yul\":2858:2923   */\n      tag_192\n      jump\t// in\n    tag_242:\n        /* \"#utility.yul\":2720:2930   */\n      swap3\n      swap2\n      pop\n      pop\n      jump\t// out\n        /* \"#utility.yul\":2936:3265   */\n    tag_52:\n        /* \"#utility.yul\":2995:3001   */\n      0x00\n        /* \"#utility.yul\":3044:3046   */\n      0x20\n        /* \"#utility.yul\":3032:3041   */\n      dup3\n        /* \"#utility.yul\":3023:3030   */\n      dup5\n        /* \"#utility.yul\":3019:3042   */\n      sub\n        /* \"#utility.yul\":3015:3047   */\n      slt\n        /* \"#utility.yul\":3012:3131   */\n      iszero\n      tag_244\n      jumpi\n        /* \"#utility.yul\":3050:3129   */\n      tag_245\n      tag_181\n      jump\t// in\n    tag_245:\n        /* \"#utility.yul\":3012:3131   */\n    tag_244:\n        /* \"#utility.yul\":3170:3171   */\n      0x00\n        /* \"#utility.yul\":3195:3248   */\n      tag_246\n        /* \"#utility.yul\":3240:3247   */\n      dup5\n        /* \"#utility.yul\":3231:3237   */\n      dup3\n        /* \"#utility.yul\":3220:3229   */\n      dup6\n        /* \"#utility.yul\":3216:3238   */\n      add\n        /* \"#utility.yul\":3195:3248   */\n      tag_186\n      jump\t// in\n    tag_246:\n        /* \"#utility.yul\":3185:3248   */\n      swap2\n      pop\n        /* \"#utility.yul\":3141:3258   */\n      pop\n        /* \"#utility.yul\":2936:3265   */\n      swap3\n      swap2\n      pop\n      pop\n      jump\t// out\n        /* \"#utility.yul\":3271:3385   */\n    tag_193:\n        /* \"#utility.yul\":3338:3344   */\n      0x00\n        /* \"#utility.yul\":3372:3377   */\n      dup2\n        /* \"#utility.yul\":3366:3378   */\n      mload\n        /* \"#utility.yul\":3356:3378   */\n      swap1\n      pop\n        /* \"#utility.yul\":3271:3385   */\n      swap2\n      swap1\n      pop\n      jump\t// out\n        /* \"#utility.yul\":3391:3575   */\n    tag_194:\n        /* \"#utility.yul\":3490:3501   */\n      0x00\n        /* \"#utility.yul\":3524:3530   */\n      dup3\n        /* \"#utility.yul\":3519:3522   */\n      dup3\n        /* \"#utility.yul\":3512:3531   */\n      mstore\n        /* \"#utility.yul\":3564:3568   */\n      0x20\n        /* \"#utility.yul\":3559:3562   */\n      dup3\n        /* \"#utility.yul\":3555:3569   */\n      add\n        /* \"#utility.yul\":3540:3569   */\n      swap1\n      pop\n        /* \"#utility.yul\":3391:3575   */\n      swap3\n      swap2\n      pop\n      pop\n      jump\t// out\n        /* \"#utility.yul\":3581:3713   */\n    tag_195:\n        /* \"#utility.yul\":3648:3652   */\n      0x00\n        /* \"#utility.yul\":3671:3674   */\n      dup2\n        /* \"#utility.yul\":3663:3674   */\n      swap1\n      pop\n        /* \"#utility.yul\":3701:3705   */\n      0x20\n        /* \"#utility.yul\":3696:3699   */\n      dup3\n        /* \"#utility.yul\":3692:3706   */\n      add\n        /* \"#utility.yul\":3684:3706   */\n      swap1\n      pop\n        /* \"#utility.yul\":3581:3713   */\n      swap2\n      swap1\n      pop\n      jump\t// out\n        /* \"#utility.yul\":3719:3827   */\n    tag_196:\n        /* \"#utility.yul\":3796:3820   */\n      tag_251\n        /* \"#utility.yul\":3814:3819   */\n      dup2\n        /* \"#utility.yul\":3796:3820   */\n      tag_184\n      jump\t// in\n    tag_251:\n        /* \"#utility.yul\":3791:3794   */\n      dup3\n        /* \"#utility.yul\":3784:3821   */\n      mstore\n        /* \"#utility.yul\":3719:3827   */\n      pop\n      pop\n      jump\t// out\n        /* \"#utility.yul\":3833:4012   */\n    tag_197:\n        /* \"#utility.yul\":3902:3912   */\n      0x00\n        /* \"#utility.yul\":3923:3969   */\n      tag_253\n        /* \"#utility.yul\":3965:3968   */\n      dup4\n        /* \"#utility.yul\":3957:3963   */\n      dup4\n        /* \"#utility.yul\":3923:3969   */\n      tag_196\n      jump\t// in\n    tag_253:\n        /* \"#utility.yul\":4001:4005   */\n      0x20\n        /* \"#utility.yul\":3996:3999   */\n      dup4\n        /* \"#utility.yul\":3992:4006   */\n      add\n        /* \"#utility.yul\":3978:4006   */\n      swap1\n      pop\n        /* \"#utility.yul\":3833:4012   */\n      swap3\n      swap2\n      pop\n      pop\n      jump\t// out\n        /* \"#utility.yul\":4018:4131   */\n    tag_198:\n        /* \"#utility.yul\":4088:4092   */\n      0x00\n        /* \"#utility.yul\":4120:4124   */\n      0x20\n        /* \"#utility.yul\":4115:4118   */\n      dup3\n        /* \"#utility.yul\":4111:4125   */\n      add\n        /* \"#utility.yul\":4103:4125   */\n      swap1\n      pop\n        /* \"#utility.yul\":4018:4131   */\n      swap2\n      swap1\n      pop\n      jump\t// out\n        /* \"#utility.yul\":4167:4899   */\n    tag_199:\n        /* \"#utility.yul\":4286:4289   */\n      0x00\n        /* \"#utility.yul\":4315:4369   */\n      tag_256\n        /* \"#utility.yul\":4363:4368   */\n      dup3\n        /* \"#utility.yul\":4315:4369   */\n      tag_193\n      jump\t// in\n    tag_256:\n        /* \"#utility.yul\":4385:4471   */\n      tag_257\n        /* \"#utility.yul\":4464:4470   */\n      dup2\n        /* \"#utility.yul\":4459:4462   */\n      dup6\n        /* \"#utility.yul\":4385:4471   */\n      tag_194\n      jump\t// in\n    tag_257:\n        /* \"#utility.yul\":4378:4471   */\n      swap4\n      pop\n        /* \"#utility.yul\":4495:4551   */\n      tag_258\n        /* \"#utility.yul\":4545:4550   */\n      dup4\n        /* \"#utility.yul\":4495:4551   */\n      tag_195\n      jump\t// in\n    tag_258:\n        /* \"#utility.yul\":4574:4581   */\n      dup1\n        /* \"#utility.yul\":4605:4606   */\n      0x00\n        /* \"#utility.yul\":4590:4874   */\n    tag_259:\n        /* \"#utility.yul\":4615:4621   */\n      dup4\n        /* \"#utility.yul\":4612:4613   */\n      dup2\n        /* \"#utility.yul\":4609:4622   */\n      lt\n        /* \"#utility.yul\":4590:4874   */\n      iszero\n      tag_261\n      jumpi\n        /* \"#utility.yul\":4691:4697   */\n      dup2\n        /* \"#utility.yul\":4685:4698   */\n      mload\n        /* \"#utility.yul\":4718:4781   */\n      tag_262\n        /* \"#utility.yul\":4777:4780   */\n      dup9\n        /* \"#utility.yul\":4762:4775   */\n      dup3\n        /* \"#utility.yul\":4718:4781   */\n      tag_197\n      jump\t// in\n    tag_262:\n        /* \"#utility.yul\":4711:4781   */\n      swap8\n      pop\n        /* \"#utility.yul\":4804:4864   */\n      tag_263\n        /* \"#utility.yul\":4857:4863   */\n      dup4\n        /* \"#utility.yul\":4804:4864   */\n      tag_198\n      jump\t// in\n    tag_263:\n        /* \"#utility.yul\":4794:4864   */\n      swap3\n      pop\n        /* \"#utility.yul\":4650:4874   */\n      pop\n        /* \"#utility.yul\":4637:4638   */\n      0x01\n        /* \"#utility.yul\":4634:4635   */\n      dup2\n        /* \"#utility.yul\":4630:4639   */\n      add\n        /* \"#utility.yul\":4625:4639   */\n      swap1\n      pop\n        /* \"#utility.yul\":4590:4874   */\n      jump(tag_259)\n    tag_261:\n        /* \"#utility.yul\":4594:4608   */\n      pop\n        /* \"#utility.yul\":4890:4893   */\n      dup6\n        /* \"#utility.yul\":4883:4893   */\n      swap4\n      pop\n        /* \"#utility.yul\":4291:4899   */\n      pop\n      pop\n      pop\n        /* \"#utility.yul\":4167:4899   */\n      swap3\n      swap2\n      pop\n      pop\n      jump\t// out\n        /* \"#utility.yul\":4905:5278   */\n    tag_55:\n        /* \"#utility.yul\":5048:5052   */\n      0x00\n        /* \"#utility.yul\":5086:5088   */\n      0x20\n        /* \"#utility.yul\":5075:5084   */\n      dup3\n        /* \"#utility.yul\":5071:5089   */\n      add\n        /* \"#utility.yul\":5063:5089   */\n      swap1\n      pop\n        /* \"#utility.yul\":5135:5144   */\n      dup2\n        /* \"#utility.yul\":5129:5133   */\n      dup2\n        /* \"#utility.yul\":5125:5145   */\n      sub\n        /* \"#utility.yul\":5121:5122   */\n      0x00\n        /* \"#utility.yul\":5110:5119   */\n      dup4\n        /* \"#utility.yul\":5106:5123   */\n      add\n        /* \"#utility.yul\":5099:5146   */\n      mstore\n        /* \"#utility.yul\":5163:5271   */\n      tag_265\n        /* \"#utility.yul\":5266:5270   */\n      dup2\n        /* \"#utility.yul\":5257:5263   */\n      dup5\n        /* \"#utility.yul\":5163:5271   */\n      tag_199\n      jump\t// in\n    tag_265:\n        /* \"#utility.yul\":5155:5271   */\n      swap1\n      pop\n        /* \"#utility.yul\":4905:5278   */\n      swap3\n      swap2\n      pop\n      pop\n      jump\t// out\n        /* \"#utility.yul\":5284:5613   */\n    tag_70:\n        /* \"#utility.yul\":5343:5349   */\n      0x00\n        /* \"#utility.yul\":5392:5394   */\n      0x20\n        /* \"#utility.yul\":5380:5389   */\n      dup3\n        /* \"#utility.yul\":5371:5378   */\n      dup5\n        /* \"#utility.yul\":5367:5390   */\n      sub\n        /* \"#utility.yul\":5363:5395   */\n      slt\n        /* \"#utility.yul\":5360:5479   */\n      iszero\n      tag_267\n      jumpi\n        /* \"#utility.yul\":5398:5477   */\n      tag_268\n      tag_181\n      jump\t// in\n    tag_268:\n        /* \"#utility.yul\":5360:5479   */\n    tag_267:\n        /* \"#utility.yul\":5518:5519   */\n      0x00\n        /* \"#utility.yul\":5543:5596   */\n      tag_269\n        /* \"#utility.yul\":5588:5595   */\n      dup5\n        /* \"#utility.yul\":5579:5585   */\n      dup3\n        /* \"#utility.yul\":5568:5577   */\n      dup6\n        /* \"#utility.yul\":5564:5586   */\n      add\n        /* \"#utility.yul\":5543:5596   */\n      tag_189\n      jump\t// in\n    tag_269:\n        /* \"#utility.yul\":5533:5596   */\n      swap2\n      pop\n        /* \"#utility.yul\":5489:5606   */\n      pop\n        /* \"#utility.yul\":5284:5613   */\n      swap3\n      swap2\n      pop\n      pop\n      jump\t// out\n        /* \"#utility.yul\":5619:5788   */\n    tag_200:\n        /* \"#utility.yul\":5703:5714   */\n      0x00\n        /* \"#utility.yul\":5737:5743   */\n      dup3\n        /* \"#utility.yul\":5732:5735   */\n      dup3\n        /* \"#utility.yul\":5725:5744   */\n      mstore\n        /* \"#utility.yul\":5777:5781   */\n      0x20\n        /* \"#utility.yul\":5772:5775   */\n      dup3\n        /* \"#utility.yul\":5768:5782   */\n      add\n        /* \"#utility.yul\":5753:5782   */\n      swap1\n      pop\n        /* \"#utility.yul\":5619:5788   */\n      swap3\n      swap2\n      pop\n      pop\n      jump\t// out\n        /* \"#utility.yul\":5794:5962   */\n    tag_201:\n        /* \"#utility.yul\":5934:5954   */\n      0x496e646578206f7574206f662072616e67650000000000000000000000000000\n        /* \"#utility.yul\":5930:5931   */\n      0x00\n        /* \"#utility.yul\":5922:5928   */\n      dup3\n        /* \"#utility.yul\":5918:5932   */\n      add\n        /* \"#utility.yul\":5911:5955   */\n      mstore\n        /* \"#utility.yul\":5794:5962   */\n      pop\n      jump\t// out\n        /* \"#utility.yul\":5968:6334   */\n    tag_202:\n        /* \"#utility.yul\":6110:6113   */\n      0x00\n        /* \"#utility.yul\":6131:6198   */\n      tag_273\n        /* \"#utility.yul\":6195:6197   */\n      0x12\n        /* \"#utility.yul\":6190:6193   */\n      dup4\n        /* \"#utility.yul\":6131:6198   */\n      tag_200\n      jump\t// in\n    tag_273:\n        /* \"#utility.yul\":6124:6198   */\n      swap2\n      pop\n        /* \"#utility.yul\":6207:6300   */\n      tag_274\n        /* \"#utility.yul\":6296:6299   */\n      dup3\n        /* \"#utility.yul\":6207:6300   */\n      tag_201\n      jump\t// in\n    tag_274:\n        /* \"#utility.yul\":6325:6327   */\n      0x20\n        /* \"#utility.yul\":6320:6323   */\n      dup3\n        /* \"#utility.yul\":6316:6328   */\n      add\n        /* \"#utility.yul\":6309:6328   */\n      swap1\n      pop\n        /* \"#utility.yul\":5968:6334   */\n      swap2\n      swap1\n      pop\n      jump\t// out\n        /* \"#utility.yul\":6340:6759   */\n    tag_128:\n        /* \"#utility.yul\":6506:6510   */\n      0x00\n        /* \"#utility.yul\":6544:6546   */\n      0x20\n        /* \"#utility.yul\":6533:6542   */\n      dup3\n        /* \"#utility.yul\":6529:6547   */\n      add\n        /* \"#utility.yul\":6521:6547   */\n      swap1\n      pop\n        /* \"#utility.yul\":6593:6602   */\n      dup2\n        /* \"#utility.yul\":6587:6591   */\n      dup2\n        /* \"#utility.yul\":6583:6603   */\n      sub\n        /* \"#utility.yul\":6579:6580   */\n      0x00\n        /* \"#utility.yul\":6568:6577   */\n      dup4\n        /* \"#utility.yul\":6564:6581   */\n      add\n        /* \"#utility.yul\":6557:6604   */\n      mstore\n        /* \"#utility.yul\":6621:6752   */\n      tag_276\n        /* \"#utility.yul\":6747:6751   */\n      dup2\n        /* \"#utility.yul\":6621:6752   */\n      tag_202\n      jump\t// in\n    tag_276:\n        /* \"#utility.yul\":6613:6752   */\n      swap1\n      pop\n        /* \"#utility.yul\":6340:6759   */\n      swap2\n      swap1\n      pop\n      jump\t// out\n        /* \"#utility.yul\":6765:6945   */\n    tag_131:\n        /* \"#utility.yul\":6813:6890   */\n      0x4e487b7100000000000000000000000000000000000000000000000000000000\n        /* \"#utility.yul\":6810:6811   */\n      0x00\n        /* \"#utility.yul\":6803:6891   */\n      mstore\n        /* \"#utility.yul\":6910:6914   */\n      0x32\n        /* \"#utility.yul\":6907:6908   */\n      0x04\n        /* \"#utility.yul\":6900:6915   */\n      mstore\n        /* \"#utility.yul\":6934:6938   */\n      0x24\n        /* \"#utility.yul\":6931:6932   */\n      0x00\n        /* \"#utility.yul\":6924:6939   */\n      revert\n        /* \"#utility.yul\":6951:7131   */\n    tag_203:\n        /* \"#utility.yul\":6999:7076   */\n      0x4e487b7100000000000000000000000000000000000000000000000000000000\n        /* \"#utility.yul\":6996:6997   */\n      0x00\n        /* \"#utility.yul\":6989:7077   */\n      mstore\n        /* \"#utility.yul\":7096:7100   */\n      0x11\n        /* \"#utility.yul\":7093:7094   */\n      0x04\n        /* \"#utility.yul\":7086:7101   */\n      mstore\n        /* \"#utility.yul\":7120:7124   */\n      0x24\n        /* \"#utility.yul\":7117:7118   */\n      0x00\n        /* \"#utility.yul\":7110:7125   */\n      revert\n        /* \"#utility.yul\":7137:7328   */\n    tag_134:\n        /* \"#utility.yul\":7177:7180   */\n      0x00\n        /* \"#utility.yul\":7196:7216   */\n      tag_280\n        /* \"#utility.yul\":7214:7215   */\n      dup3\n        /* \"#utility.yul\":7196:7216   */\n      tag_187\n      jump\t// in\n    tag_280:\n        /* \"#utility.yul\":7191:7216   */\n      swap2\n      pop\n        /* \"#utility.yul\":7230:7250   */\n      tag_281\n        /* \"#utility.yul\":7248:7249   */\n      dup4\n        /* \"#utility.yul\":7230:7250   */\n      tag_187\n      jump\t// in\n    tag_281:\n        /* \"#utility.yul\":7225:7250   */\n      swap3\n      pop\n        /* \"#utility.yul\":7273:7274   */\n      dup3\n        /* \"#utility.yul\":7270:7271   */\n      dup3\n        /* \"#utility.yul\":7266:7275   */\n      add\n        /* \"#utility.yul\":7259:7275   */\n      swap1\n      pop\n        /* \"#utility.yul\":7294:7297   */\n      dup1\n        /* \"#utility.yul\":7291:7292   */\n      dup3\n        /* \"#utility.yul\":7288:7298   */\n      gt\n        /* \"#utility.yul\":7285:7321   */\n      iszero\n      tag_282\n      jumpi\n        /* \"#utility.yul\":7301:7319   */\n      tag_283\n      tag_203\n      jump\t// in\n    tag_283:\n        /* \"#utility.yul\":7285:7321   */\n    tag_282:\n        /* \"#utility.yul\":7137:7328   */\n      swap3\n      swap2\n      pop\n      pop\n      jump\t// out\n        /* \"#utility.yul\":7334:7496   */\n    tag_204:\n        /* \"#utility.yul\":7474:7488   */\n      0x4f7574206f6620496e6465780000000000000000000000000000000000000000\n        /* \"#utility.yul\":7470:7471   */\n      0x00\n        /* \"#utility.yul\":7462:7468   */\n      dup3\n        /* \"#utility.yul\":7458:7472   */\n      add\n        /* \"#utility.yul\":7451:7489   */\n      mstore\n        /* \"#utility.yul\":7334:7496   */\n      pop\n      jump\t// out\n        /* \"#utility.yul\":7502:7868   */\n    tag_205:\n        /* \"#utility.yul\":7644:7647   */\n      0x00\n        /* \"#utility.yul\":7665:7732   */\n      tag_286\n        /* \"#utility.yul\":7729:7731   */\n      0x0c\n        /* \"#utility.yul\":7724:7727   */\n      dup4\n        /* \"#utility.yul\":7665:7732   */\n      tag_200\n      jump\t// in\n    tag_286:\n        /* \"#utility.yul\":7658:7732   */\n      swap2\n      pop\n        /* \"#utility.yul\":7741:7834   */\n      tag_287\n        /* \"#utility.yul\":7830:7833   */\n      dup3\n        /* \"#utility.yul\":7741:7834   */\n      tag_204\n      jump\t// in\n    tag_287:\n        /* \"#utility.yul\":7859:7861   */\n      0x20\n        /* \"#utility.yul\":7854:7857   */\n      dup3\n        /* \"#utility.yul\":7850:7862   */\n      add\n        /* \"#utility.yul\":7843:7862   */\n      swap1\n      pop\n        /* \"#utility.yul\":7502:7868   */\n      swap2\n      swap1\n      pop\n      jump\t// out\n        /* \"#utility.yul\":7874:8293   */\n    tag_148:\n        /* \"#utility.yul\":8040:8044   */\n      0x00\n        /* \"#utility.yul\":8078:8080   */\n      0x20\n        /* \"#utility.yul\":8067:8076   */\n      dup3\n        /* \"#utility.yul\":8063:8081   */\n      add\n        /* \"#utility.yul\":8055:8081   */\n      swap1\n      pop\n        /* \"#utility.yul\":8127:8136   */\n      dup2\n        /* \"#utility.yul\":8121:8125   */\n      dup2\n        /* \"#utility.yul\":8117:8137   */\n      sub\n        /* \"#utility.yul\":8113:8114   */\n      0x00\n        /* \"#utility.yul\":8102:8111   */\n      dup4\n        /* \"#utility.yul\":8098:8115   */\n      add\n        /* \"#utility.yul\":8091:8138   */\n      mstore\n        /* \"#utility.yul\":8155:8286   */\n      tag_289\n        /* \"#utility.yul\":8281:8285   */\n      dup2\n        /* \"#utility.yul\":8155:8286   */\n      tag_205\n      jump\t// in\n    tag_289:\n        /* \"#utility.yul\":8147:8286   */\n      swap1\n      pop\n        /* \"#utility.yul\":7874:8293   */\n      swap2\n      swap1\n      pop\n      jump\t// out\n        /* \"#utility.yul\":8299:8493   */\n    tag_150:\n        /* \"#utility.yul\":8339:8343   */\n      0x00\n        /* \"#utility.yul\":8359:8379   */\n      tag_291\n        /* \"#utility.yul\":8377:8378   */\n      dup3\n        /* \"#utility.yul\":8359:8379   */\n      tag_187\n      jump\t// in\n    tag_291:\n        /* \"#utility.yul\":8354:8379   */\n      swap2\n      pop\n        /* \"#utility.yul\":8393:8413   */\n      tag_292\n        /* \"#utility.yul\":8411:8412   */\n      dup4\n        /* \"#utility.yul\":8393:8413   */\n      tag_187\n      jump\t// in\n    tag_292:\n        /* \"#utility.yul\":8388:8413   */\n      swap3\n      pop\n        /* \"#utility.yul\":8437:8438   */\n      dup3\n        /* \"#utility.yul\":8434:8435   */\n      dup3\n        /* \"#utility.yul\":8430:8439   */\n      sub\n        /* \"#utility.yul\":8422:8439   */\n      swap1\n      pop\n        /* \"#utility.yul\":8461:8462   */\n      dup2\n        /* \"#utility.yul\":8455:8459   */\n      dup2\n        /* \"#utility.yul\":8452:8463   */\n      gt\n        /* \"#utility.yul\":8449:8486   */\n      iszero\n      tag_293\n      jumpi\n        /* \"#utility.yul\":8466:8484   */\n      tag_294\n      tag_203\n      jump\t// in\n    tag_294:\n        /* \"#utility.yul\":8449:8486   */\n    tag_293:\n        /* \"#utility.yul\":8299:8493   */\n      swap3\n      swap2\n      pop\n      pop\n      jump\t// out\n        /* \"#utility.yul\":8499:8679   */\n    tag_159:\n        /* \"#utility.yul\":8547:8624   */\n      0x4e487b7100000000000000000000000000000000000000000000000000000000\n        /* \"#utility.yul\":8544:8545   */\n      0x00\n        /* \"#utility.yul\":8537:8625   */\n      mstore\n        /* \"#utility.yul\":8644:8648   */\n      0x31\n        /* \"#utility.yul\":8641:8642   */\n      0x04\n        /* \"#utility.yul\":8634:8649   */\n      mstore\n        /* \"#utility.yul\":8668:8672   */\n      0x24\n        /* \"#utility.yul\":8665:8666   */\n      0x00\n        /* \"#utility.yul\":8658:8673   */\n      revert\n\n    auxdata: 0xa2646970667358221220d4d53cf2968c759dd6fd8ecdd511bfdaad47803ce7217ba7a97e3d8863baed5f64736f6c63430008110033\n}\n","bytecode":{"linkReferences":{},"object":"608060405234801561001057600080fd5b506118ae806100206000396000f3fe608060405234801561001057600080fd5b50600436106101375760003560e01c806384d0cbe3116100b8578063d5b036491161007c578063d5b03649146103bc578063e86c24f9146103ec578063ec3140a31461041c578063f9819d8e14610438578063f9ab2eff14610468578063fadd65c31461048457610137565b806384d0cbe3146102f45780639457740a146103105780639d58b15d14610340578063ac4afa381461035c578063ba63a9f01461038c57610137565b80636997b953116100ff5780636997b953146102185780636c607516146102485780636e7f56f81461027857806375838862146102a85780637a9b7c35146102d857610137565b80631875c6391461013c57806339ac7a081461016c5780633a6859301461019c5780634c2587d4146101cc57806357b70767146101e8575b600080fd5b61015660048036038101906101519190611480565b6104b4565b60405161016391906114cf565b60405180910390f35b610186600480360381019061018191906114ea565b610502565b6040516101939190611545565b60405180910390f35b6101b660048036038101906101b191906114ea565b610595565b6040516101c39190611545565b60405180910390f35b6101e660048036038101906101e191906114ea565b6105c4565b005b61020260048036038101906101fd9190611480565b610668565b60405161020f91906114cf565b60405180910390f35b610232600480360381019061022d9190611560565b6106b6565b60405161023f919061164b565b60405180910390f35b610262600480360381019061025d9190611480565b610783565b60405161026f91906114cf565b60405180910390f35b610292600480360381019061028d91906114ea565b6107d1565b60405161029f9190611545565b60405180910390f35b6102c260048036038101906102bd9190611560565b610800565b6040516102cf9190611545565b60405180910390f35b6102f260048036038101906102ed919061166d565b61084e565b005b61030e60048036038101906103099190611480565b6109ec565b005b61032a600480360381019061032591906114ea565b610c5c565b6040516103379190611545565b60405180910390f35b61035a600480360381019061035591906114ea565b610cf0565b005b6103766004803603810190610371919061166d565b610e28565b60405161038391906114cf565b60405180910390f35b6103a660048036038101906103a191906114ea565b610e67565b6040516103b39190611545565b60405180910390f35b6103d660048036038101906103d191906114ea565b610e96565b6040516103e39190611545565b60405180910390f35b61040660048036038101906104019190611560565b610f2a565b604051610413919061164b565b60405180910390f35b610436600480360381019061043191906114ea565b610ff7565b005b610452600480360381019061044d9190611480565b611193565b60405161045f91906114cf565b60405180910390f35b610482600480360381019061047d91906114ea565b6111e1565b005b61049e60048036038101906104999190611560565b61131a565b6040516104ab919061164b565b60405180910390f35b600260205281600052604060002081815481106104d057600080fd5b906000526020600020016000915091509054906101000a900473ffffffffffffffffffffffffffffffffffffffff1681565b60008060008473ffffffffffffffffffffffffffffffffffffffff1673ffffffffffffffffffffffffffffffffffffffff16815260200190815260200160002060008373ffffffffffffffffffffffffffffffffffffffff1673ffffffffffffffffffffffffffffffffffffffff16815260200190815260200160002060009054906101000a900460ff16905092915050565b60006020528160005260406000206020528060005260406000206000915091509054906101000a900460ff1681565b600260008373ffffffffffffffffffffffffffffffffffffffff1673ffffffffffffffffffffffffffffffffffffffff168152602001908152602001600020819080600181540180825580915050600190039060005260206000200160009091909190916101000a81548173ffffffffffffffffffffffffffffffffffffffff021916908373ffffffffffffffffffffffffffffffffffffffff1602179055505050565b6001602052816000526040600020818154811061068457600080fd5b906000526020600020016000915091509054906101000a900473ffffffffffffffffffffffffffffffffffffffff1681565b6060600460008373ffffffffffffffffffffffffffffffffffffffff1673ffffffffffffffffffffffffffffffffffffffff16815260200190815260200160002080548060200260200160405190810160405280929190818152602001828054801561077757602002820191906000526020600020905b8160009054906101000a900473ffffffffffffffffffffffffffffffffffffffff1673ffffffffffffffffffffffffffffffffffffffff168152602001906001019080831161072d575b50505050509050919050565b6004602052816000526040600020818154811061079f57600080fd5b906000526020600020016000915091509054906101000a900473ffffffffffffffffffffffffffffffffffffffff1681565b60036020528160005260406000206020528060005260406000206000915091509054906101000a900460ff1681565b600080600160008473ffffffffffffffffffffffffffffffffffffffff1673ffffffffffffffffffffffffffffffffffffffff16815260200190815260200160002080549050119050919050565b6007805490508111610895576040517f08c379a000000000000000000000000000000000000000000000000000000000815260040161088c906116f7565b60405180910390fd5b6000600782815481106108ab576108aa611717565b5b9060005260206000200160009054906101000a900473ffffffffffffffffffffffffffffffffffffffff16905060076001836108e79190611775565b815481106108f8576108f7611717565b5b9060005260206000200160009054906101000a900473ffffffffffffffffffffffffffffffffffffffff166007838154811061093757610936611717565b5b9060005260206000200160006101000a81548173ffffffffffffffffffffffffffffffffffffffff021916908373ffffffffffffffffffffffffffffffffffffffff16021790555080600760018461098f9190611775565b815481106109a05761099f611717565b5b9060005260206000200160006101000a81548173ffffffffffffffffffffffffffffffffffffffff021916908373ffffffffffffffffffffffffffffffffffffffff1602179055505050565b80600260008473ffffffffffffffffffffffffffffffffffffffff1673ffffffffffffffffffffffffffffffffffffffff168152602001908152602001600020805490501015610a71576040517f08c379a0000000000000000000000000000000000000000000000000000000008152600401610a68906117f5565b60405180910390fd5b600260008373ffffffffffffffffffffffffffffffffffffffff1673ffffffffffffffffffffffffffffffffffffffff1681526020019081526020016000206001600260008573ffffffffffffffffffffffffffffffffffffffff1673ffffffffffffffffffffffffffffffffffffffff16815260200190815260200160002080549050610aff9190611815565b81548110610b1057610b0f611717565b5b9060005260206000200160009054906101000a900473ffffffffffffffffffffffffffffffffffffffff16600260008473ffffffffffffffffffffffffffffffffffffffff1673ffffffffffffffffffffffffffffffffffffffff1681526020019081526020016000208281548110610b8c57610b8b611717565b5b9060005260206000200160006101000a81548173ffffffffffffffffffffffffffffffffffffffff021916908373ffffffffffffffffffffffffffffffffffffffff160217905550600260008373ffffffffffffffffffffffffffffffffffffffff1673ffffffffffffffffffffffffffffffffffffffff168152602001908152602001600020805480610c2357610c22611849565b5b6001900381819060005260206000200160006101000a81549073ffffffffffffffffffffffffffffffffffffffff021916905590555050565b6000600360008473ffffffffffffffffffffffffffffffffffffffff1673ffffffffffffffffffffffffffffffffffffffff16815260200190815260200160002060008373ffffffffffffffffffffffffffffffffffffffff1673ffffffffffffffffffffffffffffffffffffffff16815260200190815260200160002060009054906101000a900460ff16905092915050565b60016000808473ffffffffffffffffffffffffffffffffffffffff1673ffffffffffffffffffffffffffffffffffffffff16815260200190815260200160002060008373ffffffffffffffffffffffffffffffffffffffff1673ffffffffffffffffffffffffffffffffffffffff16815260200190815260200160002060006101000a81548160ff021916908315150217905550600160008373ffffffffffffffffffffffffffffffffffffffff1673ffffffffffffffffffffffffffffffffffffffff168152602001908152602001600020819080600181540180825580915050600190039060005260206000200160009091909190916101000a81548173ffffffffffffffffffffffffffffffffffffffff021916908373ffffffffffffffffffffffffffffffffffffffff1602179055505050565b60078181548110610e3857600080fd5b906000526020600020016000915054906101000a900473ffffffffffffffffffffffffffffffffffffffff1681565b60056020528160005260406000206020528060005260406000206000915091509054906101000a900460ff1681565b6000600360008473ffffffffffffffffffffffffffffffffffffffff1673ffffffffffffffffffffffffffffffffffffffff16815260200190815260200160002060008373ffffffffffffffffffffffffffffffffffffffff1673ffffffffffffffffffffffffffffffffffffffff16815260200190815260200160002060009054906101000a900460ff16905092915050565b6060600660008373ffffffffffffffffffffffffffffffffffffffff1673ffffffffffffffffffffffffffffffffffffffff168152602001908152602001600020805480602002602001604051908101604052809291908181526020018280548015610feb57602002820191906000526020600020905b8160009054906101000a900473ffffffffffffffffffffffffffffffffffffffff1673ffffffffffffffffffffffffffffffffffffffff1681526020019060010190808311610fa1575b50505050509050919050565b6001600560008473ffffffffffffffffffffffffffffffffffffffff1673ffffffffffffffffffffffffffffffffffffffff16815260200190815260200160002060008373ffffffffffffffffffffffffffffffffffffffff1673ffffffffffffffffffffffffffffffffffffffff16815260200190815260200160002060006101000a81548160ff021916908315150217905550600660008373ffffffffffffffffffffffffffffffffffffffff1673ffffffffffffffffffffffffffffffffffffffff168152602001908152602001600020819080600181540180825580915050600190039060005260206000200160009091909190916101000a81548173ffffffffffffffffffffffffffffffffffffffff021916908373ffffffffffffffffffffffffffffffffffffffff1602179055506007819080600181540180825580915050600190039060005260206000200160009091909190916101000a81548173ffffffffffffffffffffffffffffffffffffffff021916908373ffffffffffffffffffffffffffffffffffffffff1602179055505050565b600660205281600052604060002081815481106111af57600080fd5b906000526020600020016000915091509054906101000a900473ffffffffffffffffffffffffffffffffffffffff1681565b6001600360008473ffffffffffffffffffffffffffffffffffffffff1673ffffffffffffffffffffffffffffffffffffffff16815260200190815260200160002060008373ffffffffffffffffffffffffffffffffffffffff1673ffffffffffffffffffffffffffffffffffffffff16815260200190815260200160002060006101000a81548160ff021916908315150217905550600460008373ffffffffffffffffffffffffffffffffffffffff1673ffffffffffffffffffffffffffffffffffffffff168152602001908152602001600020819080600181540180825580915050600190039060005260206000200160009091909190916101000a81548173ffffffffffffffffffffffffffffffffffffffff021916908373ffffffffffffffffffffffffffffffffffffffff1602179055505050565b6060600260008373ffffffffffffffffffffffffffffffffffffffff1673ffffffffffffffffffffffffffffffffffffffff1681526020019081526020016000208054806020026020016040519081016040528092919081815260200182805480156113db57602002820191906000526020600020905b8160009054906101000a900473ffffffffffffffffffffffffffffffffffffffff1673ffffffffffffffffffffffffffffffffffffffff1681526020019060010190808311611391575b50505050509050919050565b600080fd5b600073ffffffffffffffffffffffffffffffffffffffff82169050919050565b6000611417826113ec565b9050919050565b6114278161140c565b811461143257600080fd5b50565b6000813590506114448161141e565b92915050565b6000819050919050565b61145d8161144a565b811461146857600080fd5b50565b60008135905061147a81611454565b92915050565b60008060408385031215611497576114966113e7565b5b60006114a585828601611435565b92505060206114b68582860161146b565b9150509250929050565b6114c98161140c565b82525050565b60006020820190506114e460008301846114c0565b92915050565b60008060408385031215611501576115006113e7565b5b600061150f85828601611435565b925050602061152085828601611435565b9150509250929050565b60008115159050919050565b61153f8161152a565b82525050565b600060208201905061155a6000830184611536565b92915050565b600060208284031215611576576115756113e7565b5b600061158484828501611435565b91505092915050565b600081519050919050565b600082825260208201905092915050565b6000819050602082019050919050565b6115c28161140c565b82525050565b60006115d483836115b9565b60208301905092915050565b6000602082019050919050565b60006115f88261158d565b6116028185611598565b935061160d836115a9565b8060005b8381101561163e57815161162588826115c8565b9750611630836115e0565b925050600181019050611611565b5085935050505092915050565b6000602082019050818103600083015261166581846115ed565b905092915050565b600060208284031215611683576116826113e7565b5b60006116918482850161146b565b91505092915050565b600082825260208201905092915050565b7f496e646578206f7574206f662072616e67650000000000000000000000000000600082015250565b60006116e160128361169a565b91506116ec826116ab565b602082019050919050565b60006020820190508181036000830152611710816116d4565b9050919050565b7f4e487b7100000000000000000000000000000000000000000000000000000000600052603260045260246000fd5b7f4e487b7100000000000000000000000000000000000000000000000000000000600052601160045260246000fd5b60006117808261144a565b915061178b8361144a565b92508282019050808211156117a3576117a2611746565b5b92915050565b7f4f7574206f6620496e6465780000000000000000000000000000000000000000600082015250565b60006117df600c8361169a565b91506117ea826117a9565b602082019050919050565b6000602082019050818103600083015261180e816117d2565b9050919050565b60006118208261144a565b915061182b8361144a565b925082820390508181111561184357611842611746565b5b92915050565b7f4e487b7100000000000000000000000000000000000000000000000000000000600052603160045260246000fdfea2646970667358221220d4d53cf2968c759dd6fd8ecdd511bfdaad47803ce7217ba7a97e3d8863baed5f64736f6c63430008110033","opcodes":"PUSH1 0x80 PUSH1 0x40 MSTORE CALLVALUE DUP1 ISZERO PUSH2 0x10 JUMPI PUSH1 0x0 DUP1 REVERT JUMPDEST POP PUSH2 0x18AE DUP1 PUSH2 0x20 PUSH1 0x0 CODECOPY PUSH1 0x0 RETURN INVALID PUSH1 0x80 PUSH1 0x40 MSTORE CALLVALUE DUP1 ISZERO PUSH2 0x10 JUMPI PUSH1 0x0 DUP1 REVERT JUMPDEST POP PUSH1 0x4 CALLDATASIZE LT PUSH2 0x137 JUMPI PUSH1 0x0 CALLDATALOAD PUSH1 0xE0 SHR DUP1 PUSH4 0x84D0CBE3 GT PUSH2 0xB8 JUMPI DUP1 PUSH4 0xD5B03649 GT PUSH2 0x7C JUMPI DUP1 PUSH4 0xD5B03649 EQ PUSH2 0x3BC JUMPI DUP1 PUSH4 0xE86C24F9 EQ PUSH2 0x3EC JUMPI DUP1 PUSH4 0xEC3140A3 EQ PUSH2 0x41C JUMPI DUP1 PUSH4 0xF9819D8E EQ PUSH2 0x438 JUMPI DUP1 PUSH4 0xF9AB2EFF EQ PUSH2 0x468 JUMPI DUP1 PUSH4 0xFADD65C3 EQ PUSH2 0x484 JUMPI PUSH2 0x137 JUMP JUMPDEST DUP1 PUSH4 0x84D0CBE3 EQ PUSH2 0x2F4 JUMPI DUP1 PUSH4 0x9457740A EQ PUSH2 0x310 JUMPI DUP1 PUSH4 0x9D58B15D EQ PUSH2 0x340 JUMPI DUP1 PUSH4 0xAC4AFA38 EQ PUSH2 0x35C JUMPI DUP1 PUSH4 0xBA63A9F0 EQ PUSH2 0x38C JUMPI PUSH2 0x137 JUMP JUMPDEST DUP1 PUSH4 0x6997B953 GT PUSH2 0xFF JUMPI DUP1 PUSH4 0x6997B953 EQ PUSH2 0x218 JUMPI DUP1 PUSH4 0x6C607516 EQ PUSH2 0x248 JUMPI DUP1 PUSH4 0x6E7F56F8 EQ PUSH2 0x278 JUMPI DUP1 PUSH4 0x75838862 EQ PUSH2 0x2A8 JUMPI DUP1 PUSH4 0x7A9B7C35 EQ PUSH2 0x2D8 JUMPI PUSH2 0x137 JUMP JUMPDEST DUP1 PUSH4 0x1875C639 EQ PUSH2 0x13C JUMPI DUP1 PUSH4 0x39AC7A08 EQ PUSH2 0x16C JUMPI DUP1 PUSH4 0x3A685930 EQ PUSH2 0x19C JUMPI DUP1 PUSH4 0x4C2587D4 EQ PUSH2 0x1CC JUMPI DUP1 PUSH4 0x57B70767 EQ PUSH2 0x1E8 JUMPI JUMPDEST PUSH1 0x0 DUP1 REVERT JUMPDEST PUSH2 0x156 PUSH1 0x4 DUP1 CALLDATASIZE SUB DUP2 ADD SWAP1 PUSH2 0x151 SWAP2 SWAP1 PUSH2 0x1480 JUMP JUMPDEST PUSH2 0x4B4 JUMP JUMPDEST PUSH1 0x40 MLOAD PUSH2 0x163 SWAP2 SWAP1 PUSH2 0x14CF JUMP JUMPDEST PUSH1 0x40 MLOAD DUP1 SWAP2 SUB SWAP1 RETURN JUMPDEST PUSH2 0x186 PUSH1 0x4 DUP1 CALLDATASIZE SUB DUP2 ADD SWAP1 PUSH2 0x181 SWAP2 SWAP1 PUSH2 0x14EA JUMP JUMPDEST PUSH2 0x502 JUMP JUMPDEST PUSH1 0x40 MLOAD PUSH2 0x193 SWAP2 SWAP1 PUSH2 0x1545 JUMP JUMPDEST PUSH1 0x40 MLOAD DUP1 SWAP2 SUB SWAP1 RETURN JUMPDEST PUSH2 0x1B6 PUSH1 0x4 DUP1 CALLDATASIZE SUB DUP2 ADD SWAP1 PUSH2 0x1B1 SWAP2 SWAP1 PUSH2 0x14EA JUMP JUMPDEST PUSH2 0x595 JUMP JUMPDEST PUSH1 0x40 MLOAD PUSH2 0x1C3 SWAP2 SWAP1 PUSH2 0x1545 JUMP JUMPDEST PUSH1 0x40 MLOAD DUP1 SWAP2 SUB SWAP1 RETURN JUMPDEST PUSH2 0x1E6 PUSH1 0x4 DUP1 CALLDATASIZE SUB DUP2 ADD SWAP1 PUSH2 0x1E1 SWAP2 SWAP1 PUSH2 0x14EA JUMP JUMPDEST PUSH2 0x5C4 JUMP JUMPDEST STOP JUMPDEST PUSH2 0x202 PUSH1 0x4 DUP1 CALLDATASIZE SUB DUP2 ADD SWAP1 PUSH2 0x1FD SWAP2 SWAP1 PUSH2 0x1480 JUMP JUMPDEST PUSH2 0x668 JUMP JUMPDEST PUSH1 0x40 MLOAD PUSH2 0x20F SWAP2 SWAP1 PUSH2 0x14CF JUMP JUMPDEST PUSH1 0x40 MLOAD DUP1 SWAP2 SUB SWAP1 RETURN JUMPDEST PUSH2 0x232 PUSH1 0x4 DUP1 CALLDATASIZE SUB DUP2 ADD SWAP1 PUSH2 0x22D SWAP2 SWAP1 PUSH2 0x1560 JUMP JUMPDEST PUSH2 0x6B6 JUMP JUMPDEST PUSH1 0x40 MLOAD PUSH2 0x23F SWAP2 SWAP1 PUSH2 0x164B JUMP JUMPDEST PUSH1 0x40 MLOAD DUP1 SWAP2 SUB SWAP1 RETURN JUMPDEST PUSH2 0x262 PUSH1 0x4 DUP1 CALLDATASIZE SUB DUP2 ADD SWAP1 PUSH2 0x25D SWAP2 SWAP1 PUSH2 0x1480 JUMP JUMPDEST PUSH2 0x783 JUMP JUMPDEST PUSH1 0x40 MLOAD PUSH2 0x26F SWAP2 SWAP1 PUSH2 0x14CF JUMP JUMPDEST PUSH1 0x40 MLOAD DUP1 SWAP2 SUB SWAP1 RETURN JUMPDEST PUSH2 0x292 PUSH1 0x4 DUP1 CALLDATASIZE SUB DUP2 ADD SWAP1 PUSH2 0x28D SWAP2 SWAP1 PUSH2 0x14EA JUMP JUMPDEST PUSH2 0x7D1 JUMP JUMPDEST PUSH1 0x40 MLOAD PUSH2 0x29F SWAP2 SWAP1 PUSH2 0x1545 JUMP JUMPDEST PUSH1 0x40 MLOAD DUP1 SWAP2 SUB SWAP1 RETURN JUMPDEST PUSH2 0x2C2 PUSH1 0x4 DUP1 CALLDATASIZE SUB DUP2 ADD SWAP1 PUSH2 0x2BD SWAP2 SWAP1 PUSH2 0x1560 JUMP JUMPDEST PUSH2 0x800 JUMP JUMPDEST PUSH1 0x40 MLOAD PUSH2 0x2CF SWAP2 SWAP1 PUSH2 0x1545 JUMP JUMPDEST PUSH1 0x40 MLOAD DUP1 SWAP2 SUB SWAP1 RETURN JUMPDEST PUSH2 0x2F2 PUSH1 0x4 DUP1 CALLDATASIZE SUB DUP2 ADD SWAP1 PUSH2 0x2ED SWAP2 SWAP1 PUSH2 0x166D JUMP JUMPDEST PUSH2 0x84E JUMP JUMPDEST STOP JUMPDEST PUSH2 0x30E PUSH1 0x4 DUP1 CALLDATASIZE SUB DUP2 ADD SWAP1 PUSH2 0x309 SWAP2 SWAP1 PUSH2 0x1480 JUMP JUMPDEST PUSH2 0x9EC JUMP JUMPDEST STOP JUMPDEST PUSH2 0x32A PUSH1 0x4 DUP1 CALLDATASIZE SUB DUP2 ADD SWAP1 PUSH2 0x325 SWAP2 SWAP1 PUSH2 0x14EA JUMP JUMPDEST PUSH2 0xC5C JUMP JUMPDEST PUSH1 0x40 MLOAD PUSH2 0x337 SWAP2 SWAP1 PUSH2 0x1545 JUMP JUMPDEST PUSH1 0x40 MLOAD DUP1 SWAP2 SUB SWAP1 RETURN JUMPDEST PUSH2 0x35A PUSH1 0x4 DUP1 CALLDATASIZE SUB DUP2 ADD SWAP1 PUSH2 0x355 SWAP2 SWAP1 PUSH2 0x14EA JUMP JUMPDEST PUSH2 0xCF0 JUMP JUMPDEST STOP JUMPDEST PUSH2 0x376 PUSH1 0x4 DUP1 CALLDATASIZE SUB DUP2 ADD SWAP1 PUSH2 0x371 SWAP2 SWAP1 PUSH2 0x166D JUMP JUMPDEST PUSH2 0xE28 JUMP JUMPDEST PUSH1 0x40 MLOAD PUSH2 0x383 SWAP2 SWAP1 PUSH2 0x14CF JUMP JUMPDEST PUSH1 0x40 MLOAD DUP1 SWAP2 SUB SWAP1 RETURN JUMPDEST PUSH2 0x3A6 PUSH1 0x4 DUP1 CALLDATASIZE SUB DUP2 ADD SWAP1 PUSH2 0x3A1 SWAP2 SWAP1 PUSH2 0x14EA JUMP JUMPDEST PUSH2 0xE67 JUMP JUMPDEST PUSH1 0x40 MLOAD PUSH2 0x3B3 SWAP2 SWAP1 PUSH2 0x1545 JUMP JUMPDEST PUSH1 0x40 MLOAD DUP1 SWAP2 SUB SWAP1 RETURN JUMPDEST PUSH2 0x3D6 PUSH1 0x4 DUP1 CALLDATASIZE SUB DUP2 ADD SWAP1 PUSH2 0x3D1 SWAP2 SWAP1 PUSH2 0x14EA JUMP JUMPDEST PUSH2 0xE96 JUMP JUMPDEST PUSH1 0x40 MLOAD PUSH2 0x3E3 SWAP2 SWAP1 PUSH2 0x1545 JUMP JUMPDEST PUSH1 0x40 MLOAD DUP1 SWAP2 SUB SWAP1 RETURN JUMPDEST PUSH2 0x406 PUSH1 0x4 DUP1 CALLDATASIZE SUB DUP2 ADD SWAP1 PUSH2 0x401 SWAP2 SWAP1 PUSH2 0x1560 JUMP JUMPDEST PUSH2 0xF2A JUMP JUMPDEST PUSH1 0x40 MLOAD PUSH2 0x413 SWAP2 SWAP1 PUSH2 0x164B JUMP JUMPDEST PUSH1 0x40 MLOAD DUP1 SWAP2 SUB SWAP1 RETURN JUMPDEST PUSH2 0x436 PUSH1 0x4 DUP1 CALLDATASIZE SUB DUP2 ADD SWAP1 PUSH2 0x431 SWAP2 SWAP1 PUSH2 0x14EA JUMP JUMPDEST PUSH2 0xFF7 JUMP JUMPDEST STOP JUMPDEST PUSH2 0x452 PUSH1 0x4 DUP1 CALLDATASIZE SUB DUP2 ADD SWAP1 PUSH2 0x44D SWAP2 SWAP1 PUSH2 0x1480 JUMP JUMPDEST PUSH2 0x1193 JUMP JUMPDEST PUSH1 0x40 MLOAD PUSH2 0x45F SWAP2 SWAP1 PUSH2 0x14CF JUMP JUMPDEST PUSH1 0x40 MLOAD DUP1 SWAP2 SUB SWAP1 RETURN JUMPDEST PUSH2 0x482 PUSH1 0x4 DUP1 CALLDATASIZE SUB DUP2 ADD SWAP1 PUSH2 0x47D SWAP2 SWAP1 PUSH2 0x14EA JUMP JUMPDEST PUSH2 0x11E1 JUMP JUMPDEST STOP JUMPDEST PUSH2 0x49E PUSH1 0x4 DUP1 CALLDATASIZE SUB DUP2 ADD SWAP1 PUSH2 0x499 SWAP2 SWAP1 PUSH2 0x1560 JUMP JUMPDEST PUSH2 0x131A JUMP JUMPDEST PUSH1 0x40 MLOAD PUSH2 0x4AB SWAP2 SWAP1 PUSH2 0x164B JUMP JUMPDEST PUSH1 0x40 MLOAD DUP1 SWAP2 SUB SWAP1 RETURN JUMPDEST PUSH1 0x2 PUSH1 0x20 MSTORE DUP2 PUSH1 0x0 MSTORE PUSH1 0x40 PUSH1 0x0 KECCAK256 DUP2 DUP2 SLOAD DUP2 LT PUSH2 0x4D0 JUMPI PUSH1 0x0 DUP1 REVERT JUMPDEST SWAP1 PUSH1 0x0 MSTORE PUSH1 0x20 PUSH1 0x0 KECCAK256 ADD PUSH1 0x0 SWAP2 POP SWAP2 POP SWAP1 SLOAD SWAP1 PUSH2 0x100 EXP SWAP1 DIV PUSH20 0xFFFFFFFFFFFFFFFFFFFFFFFFFFFFFFFFFFFFFFFF AND DUP2 JUMP JUMPDEST PUSH1 0x0 DUP1 PUSH1 0x0 DUP5 PUSH20 0xFFFFFFFFFFFFFFFFFFFFFFFFFFFFFFFFFFFFFFFF AND PUSH20 0xFFFFFFFFFFFFFFFFFFFFFFFFFFFFFFFFFFFFFFFF AND DUP2 MSTORE PUSH1 0x20 ADD SWAP1 DUP2 MSTORE PUSH1 0x20 ADD PUSH1 0x0 KECCAK256 PUSH1 0x0 DUP4 PUSH20 0xFFFFFFFFFFFFFFFFFFFFFFFFFFFFFFFFFFFFFFFF AND PUSH20 0xFFFFFFFFFFFFFFFFFFFFFFFFFFFFFFFFFFFFFFFF AND DUP2 MSTORE PUSH1 0x20 ADD SWAP1 DUP2 MSTORE PUSH1 0x20 ADD PUSH1 0x0 KECCAK256 PUSH1 0x0 SWAP1 SLOAD SWAP1 PUSH2 0x100 EXP SWAP1 DIV PUSH1 0xFF AND SWAP1 POP SWAP3 SWAP2 POP POP JUMP JUMPDEST PUSH1 0x0 PUSH1 0x20 MSTORE DUP2 PUSH1 0x0 MSTORE PUSH1 0x40 PUSH1 0x0 KECCAK256 PUSH1 0x20 MSTORE DUP1 PUSH1 0x0 MSTORE PUSH1 0x40 PUSH1 0x0 KECCAK256 PUSH1 0x0 SWAP2 POP SWAP2 POP SWAP1 SLOAD SWAP1 PUSH2 0x100 EXP SWAP1 DIV PUSH1 0xFF AND DUP2 JUMP JUMPDEST PUSH1 0x2 PUSH1 0x0 DUP4 PUSH20 0xFFFFFFFFFFFFFFFFFFFFFFFFFFFFFFFFFFFFFFFF AND PUSH20 0xFFFFFFFFFFFFFFFFFFFFFFFFFFFFFFFFFFFFFFFF AND DUP2 MSTORE PUSH1 0x20 ADD SWAP1 DUP2 MSTORE PUSH1 0x20 ADD PUSH1 0x0 KECCAK256 DUP2 SWAP1 DUP1 PUSH1 0x1 DUP2 SLOAD ADD DUP1 DUP3 SSTORE DUP1 SWAP2 POP POP PUSH1 0x1 SWAP1 SUB SWAP1 PUSH1 0x0 MSTORE PUSH1 0x20 PUSH1 0x0 KECCAK256 ADD PUSH1 0x0 SWAP1 SWAP2 SWAP1 SWAP2 SWAP1 SWAP2 PUSH2 0x100 EXP DUP2 SLOAD DUP2 PUSH20 0xFFFFFFFFFFFFFFFFFFFFFFFFFFFFFFFFFFFFFFFF MUL NOT AND SWAP1 DUP4 PUSH20 0xFFFFFFFFFFFFFFFFFFFFFFFFFFFFFFFFFFFFFFFF AND MUL OR SWAP1 SSTORE POP POP POP JUMP JUMPDEST PUSH1 0x1 PUSH1 0x20 MSTORE DUP2 PUSH1 0x0 MSTORE PUSH1 0x40 PUSH1 0x0 KECCAK256 DUP2 DUP2 SLOAD DUP2 LT PUSH2 0x684 JUMPI PUSH1 0x0 DUP1 REVERT JUMPDEST SWAP1 PUSH1 0x0 MSTORE PUSH1 0x20 PUSH1 0x0 KECCAK256 ADD PUSH1 0x0 SWAP2 POP SWAP2 POP SWAP1 SLOAD SWAP1 PUSH2 0x100 EXP SWAP1 DIV PUSH20 0xFFFFFFFFFFFFFFFFFFFFFFFFFFFFFFFFFFFFFFFF AND DUP2 JUMP JUMPDEST PUSH1 0x60 PUSH1 0x4 PUSH1 0x0 DUP4 PUSH20 0xFFFFFFFFFFFFFFFFFFFFFFFFFFFFFFFFFFFFFFFF AND PUSH20 0xFFFFFFFFFFFFFFFFFFFFFFFFFFFFFFFFFFFFFFFF AND DUP2 MSTORE PUSH1 0x20 ADD SWAP1 DUP2 MSTORE PUSH1 0x20 ADD PUSH1 0x0 KECCAK256 DUP1 SLOAD DUP1 PUSH1 0x20 MUL PUSH1 0x20 ADD PUSH1 0x40 MLOAD SWAP1 DUP2 ADD PUSH1 0x40 MSTORE DUP1 SWAP3 SWAP2 SWAP1 DUP2 DUP2 MSTORE PUSH1 0x20 ADD DUP3 DUP1 SLOAD DUP1 ISZERO PUSH2 0x777 JUMPI PUSH1 0x20 MUL DUP3 ADD SWAP2 SWAP1 PUSH1 0x0 MSTORE PUSH1 0x20 PUSH1 0x0 KECCAK256 SWAP1 JUMPDEST DUP2 PUSH1 0x0 SWAP1 SLOAD SWAP1 PUSH2 0x100 EXP SWAP1 DIV PUSH20 0xFFFFFFFFFFFFFFFFFFFFFFFFFFFFFFFFFFFFFFFF AND PUSH20 0xFFFFFFFFFFFFFFFFFFFFFFFFFFFFFFFFFFFFFFFF AND DUP2 MSTORE PUSH1 0x20 ADD SWAP1 PUSH1 0x1 ADD SWAP1 DUP1 DUP4 GT PUSH2 0x72D JUMPI JUMPDEST POP POP POP POP POP SWAP1 POP SWAP2 SWAP1 POP JUMP JUMPDEST PUSH1 0x4 PUSH1 0x20 MSTORE DUP2 PUSH1 0x0 MSTORE PUSH1 0x40 PUSH1 0x0 KECCAK256 DUP2 DUP2 SLOAD DUP2 LT PUSH2 0x79F JUMPI PUSH1 0x0 DUP1 REVERT JUMPDEST SWAP1 PUSH1 0x0 MSTORE PUSH1 0x20 PUSH1 0x0 KECCAK256 ADD PUSH1 0x0 SWAP2 POP SWAP2 POP SWAP1 SLOAD SWAP1 PUSH2 0x100 EXP SWAP1 DIV PUSH20 0xFFFFFFFFFFFFFFFFFFFFFFFFFFFFFFFFFFFFFFFF AND DUP2 JUMP JUMPDEST PUSH1 0x3 PUSH1 0x20 MSTORE DUP2 PUSH1 0x0 MSTORE PUSH1 0x40 PUSH1 0x0 KECCAK256 PUSH1 0x20 MSTORE DUP1 PUSH1 0x0 MSTORE PUSH1 0x40 PUSH1 0x0 KECCAK256 PUSH1 0x0 SWAP2 POP SWAP2 POP SWAP1 SLOAD SWAP1 PUSH2 0x100 EXP SWAP1 DIV PUSH1 0xFF AND DUP2 JUMP JUMPDEST PUSH1 0x0 DUP1 PUSH1 0x1 PUSH1 0x0 DUP5 PUSH20 0xFFFFFFFFFFFFFFFFFFFFFFFFFFFFFFFFFFFFFFFF AND PUSH20 0xFFFFFFFFFFFFFFFFFFFFFFFFFFFFFFFFFFFFFFFF AND DUP2 MSTORE PUSH1 0x20 ADD SWAP1 DUP2 MSTORE PUSH1 0x20 ADD PUSH1 0x0 KECCAK256 DUP1 SLOAD SWAP1 POP GT SWAP1 POP SWAP2 SWAP1 POP JUMP JUMPDEST PUSH1 0x7 DUP1 SLOAD SWAP1 POP DUP2 GT PUSH2 0x895 JUMPI PUSH1 0x40 MLOAD PUSH32 0x8C379A000000000000000000000000000000000000000000000000000000000 DUP2 MSTORE PUSH1 0x4 ADD PUSH2 0x88C SWAP1 PUSH2 0x16F7 JUMP JUMPDEST PUSH1 0x40 MLOAD DUP1 SWAP2 SUB SWAP1 REVERT JUMPDEST PUSH1 0x0 PUSH1 0x7 DUP3 DUP2 SLOAD DUP2 LT PUSH2 0x8AB JUMPI PUSH2 0x8AA PUSH2 0x1717 JUMP JUMPDEST JUMPDEST SWAP1 PUSH1 0x0 MSTORE PUSH1 0x20 PUSH1 0x0 KECCAK256 ADD PUSH1 0x0 SWAP1 SLOAD SWAP1 PUSH2 0x100 EXP SWAP1 DIV PUSH20 0xFFFFFFFFFFFFFFFFFFFFFFFFFFFFFFFFFFFFFFFF AND SWAP1 POP PUSH1 0x7 PUSH1 0x1 DUP4 PUSH2 0x8E7 SWAP2 SWAP1 PUSH2 0x1775 JUMP JUMPDEST DUP2 SLOAD DUP2 LT PUSH2 0x8F8 JUMPI PUSH2 0x8F7 PUSH2 0x1717 JUMP JUMPDEST JUMPDEST SWAP1 PUSH1 0x0 MSTORE PUSH1 0x20 PUSH1 0x0 KECCAK256 ADD PUSH1 0x0 SWAP1 SLOAD SWAP1 PUSH2 0x100 EXP SWAP1 DIV PUSH20 0xFFFFFFFFFFFFFFFFFFFFFFFFFFFFFFFFFFFFFFFF AND PUSH1 0x7 DUP4 DUP2 SLOAD DUP2 LT PUSH2 0x937 JUMPI PUSH2 0x936 PUSH2 0x1717 JUMP JUMPDEST JUMPDEST SWAP1 PUSH1 0x0 MSTORE PUSH1 0x20 PUSH1 0x0 KECCAK256 ADD PUSH1 0x0 PUSH2 0x100 EXP DUP2 SLOAD DUP2 PUSH20 0xFFFFFFFFFFFFFFFFFFFFFFFFFFFFFFFFFFFFFFFF MUL NOT AND SWAP1 DUP4 PUSH20 0xFFFFFFFFFFFFFFFFFFFFFFFFFFFFFFFFFFFFFFFF AND MUL OR SWAP1 SSTORE POP DUP1 PUSH1 0x7 PUSH1 0x1 DUP5 PUSH2 0x98F SWAP2 SWAP1 PUSH2 0x1775 JUMP JUMPDEST DUP2 SLOAD DUP2 LT PUSH2 0x9A0 JUMPI PUSH2 0x99F PUSH2 0x1717 JUMP JUMPDEST JUMPDEST SWAP1 PUSH1 0x0 MSTORE PUSH1 0x20 PUSH1 0x0 KECCAK256 ADD PUSH1 0x0 PUSH2 0x100 EXP DUP2 SLOAD DUP2 PUSH20 0xFFFFFFFFFFFFFFFFFFFFFFFFFFFFFFFFFFFFFFFF MUL NOT AND SWAP1 DUP4 PUSH20 0xFFFFFFFFFFFFFFFFFFFFFFFFFFFFFFFFFFFFFFFF AND MUL OR SWAP1 SSTORE POP POP POP JUMP JUMPDEST DUP1 PUSH1 0x2 PUSH1 0x0 DUP5 PUSH20 0xFFFFFFFFFFFFFFFFFFFFFFFFFFFFFFFFFFFFFFFF AND PUSH20 0xFFFFFFFFFFFFFFFFFFFFFFFFFFFFFFFFFFFFFFFF AND DUP2 MSTORE PUSH1 0x20 ADD SWAP1 DUP2 MSTORE PUSH1 0x20 ADD PUSH1 0x0 KECCAK256 DUP1 SLOAD SWAP1 POP LT ISZERO PUSH2 0xA71 JUMPI PUSH1 0x40 MLOAD PUSH32 0x8C379A000000000000000000000000000000000000000000000000000000000 DUP2 MSTORE PUSH1 0x4 ADD PUSH2 0xA68 SWAP1 PUSH2 0x17F5 JUMP JUMPDEST PUSH1 0x40 MLOAD DUP1 SWAP2 SUB SWAP1 REVERT JUMPDEST PUSH1 0x2 PUSH1 0x0 DUP4 PUSH20 0xFFFFFFFFFFFFFFFFFFFFFFFFFFFFFFFFFFFFFFFF AND PUSH20 0xFFFFFFFFFFFFFFFFFFFFFFFFFFFFFFFFFFFFFFFF AND DUP2 MSTORE PUSH1 0x20 ADD SWAP1 DUP2 MSTORE PUSH1 0x20 ADD PUSH1 0x0 KECCAK256 PUSH1 0x1 PUSH1 0x2 PUSH1 0x0 DUP6 PUSH20 0xFFFFFFFFFFFFFFFFFFFFFFFFFFFFFFFFFFFFFFFF AND PUSH20 0xFFFFFFFFFFFFFFFFFFFFFFFFFFFFFFFFFFFFFFFF AND DUP2 MSTORE PUSH1 0x20 ADD SWAP1 DUP2 MSTORE PUSH1 0x20 ADD PUSH1 0x0 KECCAK256 DUP1 SLOAD SWAP1 POP PUSH2 0xAFF SWAP2 SWAP1 PUSH2 0x1815 JUMP JUMPDEST DUP2 SLOAD DUP2 LT PUSH2 0xB10 JUMPI PUSH2 0xB0F PUSH2 0x1717 JUMP JUMPDEST JUMPDEST SWAP1 PUSH1 0x0 MSTORE PUSH1 0x20 PUSH1 0x0 KECCAK256 ADD PUSH1 0x0 SWAP1 SLOAD SWAP1 PUSH2 0x100 EXP SWAP1 DIV PUSH20 0xFFFFFFFFFFFFFFFFFFFFFFFFFFFFFFFFFFFFFFFF AND PUSH1 0x2 PUSH1 0x0 DUP5 PUSH20 0xFFFFFFFFFFFFFFFFFFFFFFFFFFFFFFFFFFFFFFFF AND PUSH20 0xFFFFFFFFFFFFFFFFFFFFFFFFFFFFFFFFFFFFFFFF AND DUP2 MSTORE PUSH1 0x20 ADD SWAP1 DUP2 MSTORE PUSH1 0x20 ADD PUSH1 0x0 KECCAK256 DUP3 DUP2 SLOAD DUP2 LT PUSH2 0xB8C JUMPI PUSH2 0xB8B PUSH2 0x1717 JUMP JUMPDEST JUMPDEST SWAP1 PUSH1 0x0 MSTORE PUSH1 0x20 PUSH1 0x0 KECCAK256 ADD PUSH1 0x0 PUSH2 0x100 EXP DUP2 SLOAD DUP2 PUSH20 0xFFFFFFFFFFFFFFFFFFFFFFFFFFFFFFFFFFFFFFFF MUL NOT AND SWAP1 DUP4 PUSH20 0xFFFFFFFFFFFFFFFFFFFFFFFFFFFFFFFFFFFFFFFF AND MUL OR SWAP1 SSTORE POP PUSH1 0x2 PUSH1 0x0 DUP4 PUSH20 0xFFFFFFFFFFFFFFFFFFFFFFFFFFFFFFFFFFFFFFFF AND PUSH20 0xFFFFFFFFFFFFFFFFFFFFFFFFFFFFFFFFFFFFFFFF AND DUP2 MSTORE PUSH1 0x20 ADD SWAP1 DUP2 MSTORE PUSH1 0x20 ADD PUSH1 0x0 KECCAK256 DUP1 SLOAD DUP1 PUSH2 0xC23 JUMPI PUSH2 0xC22 PUSH2 0x1849 JUMP JUMPDEST JUMPDEST PUSH1 0x1 SWAP1 SUB DUP2 DUP2 SWAP1 PUSH1 0x0 MSTORE PUSH1 0x20 PUSH1 0x0 KECCAK256 ADD PUSH1 0x0 PUSH2 0x100 EXP DUP2 SLOAD SWAP1 PUSH20 0xFFFFFFFFFFFFFFFFFFFFFFFFFFFFFFFFFFFFFFFF MUL NOT AND SWAP1 SSTORE SWAP1 SSTORE POP POP JUMP JUMPDEST PUSH1 0x0 PUSH1 0x3 PUSH1 0x0 DUP5 PUSH20 0xFFFFFFFFFFFFFFFFFFFFFFFFFFFFFFFFFFFFFFFF AND PUSH20 0xFFFFFFFFFFFFFFFFFFFFFFFFFFFFFFFFFFFFFFFF AND DUP2 MSTORE PUSH1 0x20 ADD SWAP1 DUP2 MSTORE PUSH1 0x20 ADD PUSH1 0x0 KECCAK256 PUSH1 0x0 DUP4 PUSH20 0xFFFFFFFFFFFFFFFFFFFFFFFFFFFFFFFFFFFFFFFF AND PUSH20 0xFFFFFFFFFFFFFFFFFFFFFFFFFFFFFFFFFFFFFFFF AND DUP2 MSTORE PUSH1 0x20 ADD SWAP1 DUP2 MSTORE PUSH1 0x20 ADD PUSH1 0x0 KECCAK256 PUSH1 0x0 SWAP1 SLOAD SWAP1 PUSH2 0x100 EXP SWAP1 DIV PUSH1 0xFF AND SWAP1 POP SWAP3 SWAP2 POP POP JUMP JUMPDEST PUSH1 0x1 PUSH1 0x0 DUP1 DUP5 PUSH20 0xFFFFFFFFFFFFFFFFFFFFFFFFFFFFFFFFFFFFFFFF AND PUSH20 0xFFFFFFFFFFFFFFFFFFFFFFFFFFFFFFFFFFFFFFFF AND DUP2 MSTORE PUSH1 0x20 ADD SWAP1 DUP2 MSTORE PUSH1 0x20 ADD PUSH1 0x0 KECCAK256 PUSH1 0x0 DUP4 PUSH20 0xFFFFFFFFFFFFFFFFFFFFFFFFFFFFFFFFFFFFFFFF AND PUSH20 0xFFFFFFFFFFFFFFFFFFFFFFFFFFFFFFFFFFFFFFFF AND DUP2 MSTORE PUSH1 0x20 ADD SWAP1 DUP2 MSTORE PUSH1 0x20 ADD PUSH1 0x0 KECCAK256 PUSH1 0x0 PUSH2 0x100 EXP DUP2 SLOAD DUP2 PUSH1 0xFF MUL NOT AND SWAP1 DUP4 ISZERO ISZERO MUL OR SWAP1 SSTORE POP PUSH1 0x1 PUSH1 0x0 DUP4 PUSH20 0xFFFFFFFFFFFFFFFFFFFFFFFFFFFFFFFFFFFFFFFF AND PUSH20 0xFFFFFFFFFFFFFFFFFFFFFFFFFFFFFFFFFFFFFFFF AND DUP2 MSTORE PUSH1 0x20 ADD SWAP1 DUP2 MSTORE PUSH1 0x20 ADD PUSH1 0x0 KECCAK256 DUP2 SWAP1 DUP1 PUSH1 0x1 DUP2 SLOAD ADD DUP1 DUP3 SSTORE DUP1 SWAP2 POP POP PUSH1 0x1 SWAP1 SUB SWAP1 PUSH1 0x0 MSTORE PUSH1 0x20 PUSH1 0x0 KECCAK256 ADD PUSH1 0x0 SWAP1 SWAP2 SWAP1 SWAP2 SWAP1 SWAP2 PUSH2 0x100 EXP DUP2 SLOAD DUP2 PUSH20 0xFFFFFFFFFFFFFFFFFFFFFFFFFFFFFFFFFFFFFFFF MUL NOT AND SWAP1 DUP4 PUSH20 0xFFFFFFFFFFFFFFFFFFFFFFFFFFFFFFFFFFFFFFFF AND MUL OR SWAP1 SSTORE POP POP POP JUMP JUMPDEST PUSH1 0x7 DUP2 DUP2 SLOAD DUP2 LT PUSH2 0xE38 JUMPI PUSH1 0x0 DUP1 REVERT JUMPDEST SWAP1 PUSH1 0x0 MSTORE PUSH1 0x20 PUSH1 0x0 KECCAK256 ADD PUSH1 0x0 SWAP2 POP SLOAD SWAP1 PUSH2 0x100 EXP SWAP1 DIV PUSH20 0xFFFFFFFFFFFFFFFFFFFFFFFFFFFFFFFFFFFFFFFF AND DUP2 JUMP JUMPDEST PUSH1 0x5 PUSH1 0x20 MSTORE DUP2 PUSH1 0x0 MSTORE PUSH1 0x40 PUSH1 0x0 KECCAK256 PUSH1 0x20 MSTORE DUP1 PUSH1 0x0 MSTORE PUSH1 0x40 PUSH1 0x0 KECCAK256 PUSH1 0x0 SWAP2 POP SWAP2 POP SWAP1 SLOAD SWAP1 PUSH2 0x100 EXP SWAP1 DIV PUSH1 0xFF AND DUP2 JUMP JUMPDEST PUSH1 0x0 PUSH1 0x3 PUSH1 0x0 DUP5 PUSH20 0xFFFFFFFFFFFFFFFFFFFFFFFFFFFFFFFFFFFFFFFF AND PUSH20 0xFFFFFFFFFFFFFFFFFFFFFFFFFFFFFFFFFFFFFFFF AND DUP2 MSTORE PUSH1 0x20 ADD SWAP1 DUP2 MSTORE PUSH1 0x20 ADD PUSH1 0x0 KECCAK256 PUSH1 0x0 DUP4 PUSH20 0xFFFFFFFFFFFFFFFFFFFFFFFFFFFFFFFFFFFFFFFF AND PUSH20 0xFFFFFFFFFFFFFFFFFFFFFFFFFFFFFFFFFFFFFFFF AND DUP2 MSTORE PUSH1 0x20 ADD SWAP1 DUP2 MSTORE PUSH1 0x20 ADD PUSH1 0x0 KECCAK256 PUSH1 0x0 SWAP1 SLOAD SWAP1 PUSH2 0x100 EXP SWAP1 DIV PUSH1 0xFF AND SWAP1 POP SWAP3 SWAP2 POP POP JUMP JUMPDEST PUSH1 0x60 PUSH1 0x6 PUSH1 0x0 DUP4 PUSH20 0xFFFFFFFFFFFFFFFFFFFFFFFFFFFFFFFFFFFFFFFF AND PUSH20 0xFFFFFFFFFFFFFFFFFFFFFFFFFFFFFFFFFFFFFFFF AND DUP2 MSTORE PUSH1 0x20 ADD SWAP1 DUP2 MSTORE PUSH1 0x20 ADD PUSH1 0x0 KECCAK256 DUP1 SLOAD DUP1 PUSH1 0x20 MUL PUSH1 0x20 ADD PUSH1 0x40 MLOAD SWAP1 DUP2 ADD PUSH1 0x40 MSTORE DUP1 SWAP3 SWAP2 SWAP1 DUP2 DUP2 MSTORE PUSH1 0x20 ADD DUP3 DUP1 SLOAD DUP1 ISZERO PUSH2 0xFEB JUMPI PUSH1 0x20 MUL DUP3 ADD SWAP2 SWAP1 PUSH1 0x0 MSTORE PUSH1 0x20 PUSH1 0x0 KECCAK256 SWAP1 JUMPDEST DUP2 PUSH1 0x0 SWAP1 SLOAD SWAP1 PUSH2 0x100 EXP SWAP1 DIV PUSH20 0xFFFFFFFFFFFFFFFFFFFFFFFFFFFFFFFFFFFFFFFF AND PUSH20 0xFFFFFFFFFFFFFFFFFFFFFFFFFFFFFFFFFFFFFFFF AND DUP2 MSTORE PUSH1 0x20 ADD SWAP1 PUSH1 0x1 ADD SWAP1 DUP1 DUP4 GT PUSH2 0xFA1 JUMPI JUMPDEST POP POP POP POP POP SWAP1 POP SWAP2 SWAP1 POP JUMP JUMPDEST PUSH1 0x1 PUSH1 0x5 PUSH1 0x0 DUP5 PUSH20 0xFFFFFFFFFFFFFFFFFFFFFFFFFFFFFFFFFFFFFFFF AND PUSH20 0xFFFFFFFFFFFFFFFFFFFFFFFFFFFFFFFFFFFFFFFF AND DUP2 MSTORE PUSH1 0x20 ADD SWAP1 DUP2 MSTORE PUSH1 0x20 ADD PUSH1 0x0 KECCAK256 PUSH1 0x0 DUP4 PUSH20 0xFFFFFFFFFFFFFFFFFFFFFFFFFFFFFFFFFFFFFFFF AND PUSH20 0xFFFFFFFFFFFFFFFFFFFFFFFFFFFFFFFFFFFFFFFF AND DUP2 MSTORE PUSH1 0x20 ADD SWAP1 DUP2 MSTORE PUSH1 0x20 ADD PUSH1 0x0 KECCAK256 PUSH1 0x0 PUSH2 0x100 EXP DUP2 SLOAD DUP2 PUSH1 0xFF MUL NOT AND SWAP1 DUP4 ISZERO ISZERO MUL OR SWAP1 SSTORE POP PUSH1 0x6 PUSH1 0x0 DUP4 PUSH20 0xFFFFFFFFFFFFFFFFFFFFFFFFFFFFFFFFFFFFFFFF AND PUSH20 0xFFFFFFFFFFFFFFFFFFFFFFFFFFFFFFFFFFFFFFFF AND DUP2 MSTORE PUSH1 0x20 ADD SWAP1 DUP2 MSTORE PUSH1 0x20 ADD PUSH1 0x0 KECCAK256 DUP2 SWAP1 DUP1 PUSH1 0x1 DUP2 SLOAD ADD DUP1 DUP3 SSTORE DUP1 SWAP2 POP POP PUSH1 0x1 SWAP1 SUB SWAP1 PUSH1 0x0 MSTORE PUSH1 0x20 PUSH1 0x0 KECCAK256 ADD PUSH1 0x0 SWAP1 SWAP2 SWAP1 SWAP2 SWAP1 SWAP2 PUSH2 0x100 EXP DUP2 SLOAD DUP2 PUSH20 0xFFFFFFFFFFFFFFFFFFFFFFFFFFFFFFFFFFFFFFFF MUL NOT AND SWAP1 DUP4 PUSH20 0xFFFFFFFFFFFFFFFFFFFFFFFFFFFFFFFFFFFFFFFF AND MUL OR SWAP1 SSTORE POP PUSH1 0x7 DUP2 SWAP1 DUP1 PUSH1 0x1 DUP2 SLOAD ADD DUP1 DUP3 SSTORE DUP1 SWAP2 POP POP PUSH1 0x1 SWAP1 SUB SWAP1 PUSH1 0x0 MSTORE PUSH1 0x20 PUSH1 0x0 KECCAK256 ADD PUSH1 0x0 SWAP1 SWAP2 SWAP1 SWAP2 SWAP1 SWAP2 PUSH2 0x100 EXP DUP2 SLOAD DUP2 PUSH20 0xFFFFFFFFFFFFFFFFFFFFFFFFFFFFFFFFFFFFFFFF MUL NOT AND SWAP1 DUP4 PUSH20 0xFFFFFFFFFFFFFFFFFFFFFFFFFFFFFFFFFFFFFFFF AND MUL OR SWAP1 SSTORE POP POP POP JUMP JUMPDEST PUSH1 0x6 PUSH1 0x20 MSTORE DUP2 PUSH1 0x0 MSTORE PUSH1 0x40 PUSH1 0x0 KECCAK256 DUP2 DUP2 SLOAD DUP2 LT PUSH2 0x11AF JUMPI PUSH1 0x0 DUP1 REVERT JUMPDEST SWAP1 PUSH1 0x0 MSTORE PUSH1 0x20 PUSH1 0x0 KECCAK256 ADD PUSH1 0x0 SWAP2 POP SWAP2 POP SWAP1 SLOAD SWAP1 PUSH2 0x100 EXP SWAP1 DIV PUSH20 0xFFFFFFFFFFFFFFFFFFFFFFFFFFFFFFFFFFFFFFFF AND DUP2 JUMP JUMPDEST PUSH1 0x1 PUSH1 0x3 PUSH1 0x0 DUP5 PUSH20 0xFFFFFFFFFFFFFFFFFFFFFFFFFFFFFFFFFFFFFFFF AND PUSH20 0xFFFFFFFFFFFFFFFFFFFFFFFFFFFFFFFFFFFFFFFF AND DUP2 MSTORE PUSH1 0x20 ADD SWAP1 DUP2 MSTORE PUSH1 0x20 ADD PUSH1 0x0 KECCAK256 PUSH1 0x0 DUP4 PUSH20 0xFFFFFFFFFFFFFFFFFFFFFFFFFFFFFFFFFFFFFFFF AND PUSH20 0xFFFFFFFFFFFFFFFFFFFFFFFFFFFFFFFFFFFFFFFF AND DUP2 MSTORE PUSH1 0x20 ADD SWAP1 DUP2 MSTORE PUSH1 0x20 ADD PUSH1 0x0 KECCAK256 PUSH1 0x0 PUSH2 0x100 EXP DUP2 SLOAD DUP2 PUSH1 0xFF MUL NOT AND SWAP1 DUP4 ISZERO ISZERO MUL OR SWAP1 SSTORE POP PUSH1 0x4 PUSH1 0x0 DUP4 PUSH20 0xFFFFFFFFFFFFFFFFFFFFFFFFFFFFFFFFFFFFFFFF AND PUSH20 0xFFFFFFFFFFFFFFFFFFFFFFFFFFFFFFFFFFFFFFFF AND DUP2 MSTORE PUSH1 0x20 ADD SWAP1 DUP2 MSTORE PUSH1 0x20 ADD PUSH1 0x0 KECCAK256 DUP2 SWAP1 DUP1 PUSH1 0x1 DUP2 SLOAD ADD DUP1 DUP3 SSTORE DUP1 SWAP2 POP POP PUSH1 0x1 SWAP1 SUB SWAP1 PUSH1 0x0 MSTORE PUSH1 0x20 PUSH1 0x0 KECCAK256 ADD PUSH1 0x0 SWAP1 SWAP2 SWAP1 SWAP2 SWAP1 SWAP2 PUSH2 0x100 EXP DUP2 SLOAD DUP2 PUSH20 0xFFFFFFFFFFFFFFFFFFFFFFFFFFFFFFFFFFFFFFFF MUL NOT AND SWAP1 DUP4 PUSH20 0xFFFFFFFFFFFFFFFFFFFFFFFFFFFFFFFFFFFFFFFF AND MUL OR SWAP1 SSTORE POP POP POP JUMP JUMPDEST PUSH1 0x60 PUSH1 0x2 PUSH1 0x0 DUP4 PUSH20 0xFFFFFFFFFFFFFFFFFFFFFFFFFFFFFFFFFFFFFFFF AND PUSH20 0xFFFFFFFFFFFFFFFFFFFFFFFFFFFFFFFFFFFFFFFF AND DUP2 MSTORE PUSH1 0x20 ADD SWAP1 DUP2 MSTORE PUSH1 0x20 ADD PUSH1 0x0 KECCAK256 DUP1 SLOAD DUP1 PUSH1 0x20 MUL PUSH1 0x20 ADD PUSH1 0x40 MLOAD SWAP1 DUP2 ADD PUSH1 0x40 MSTORE DUP1 SWAP3 SWAP2 SWAP1 DUP2 DUP2 MSTORE PUSH1 0x20 ADD DUP3 DUP1 SLOAD DUP1 ISZERO PUSH2 0x13DB JUMPI PUSH1 0x20 MUL DUP3 ADD SWAP2 SWAP1 PUSH1 0x0 MSTORE PUSH1 0x20 PUSH1 0x0 KECCAK256 SWAP1 JUMPDEST DUP2 PUSH1 0x0 SWAP1 SLOAD SWAP1 PUSH2 0x100 EXP SWAP1 DIV PUSH20 0xFFFFFFFFFFFFFFFFFFFFFFFFFFFFFFFFFFFFFFFF AND PUSH20 0xFFFFFFFFFFFFFFFFFFFFFFFFFFFFFFFFFFFFFFFF AND DUP2 MSTORE PUSH1 0x20 ADD SWAP1 PUSH1 0x1 ADD SWAP1 DUP1 DUP4 GT PUSH2 0x1391 JUMPI JUMPDEST POP POP POP POP POP SWAP1 POP SWAP2 SWAP1 POP JUMP JUMPDEST PUSH1 0x0 DUP1 REVERT JUMPDEST PUSH1 0x0 PUSH20 0xFFFFFFFFFFFFFFFFFFFFFFFFFFFFFFFFFFFFFFFF DUP3 AND SWAP1 POP SWAP2 SWAP1 POP JUMP JUMPDEST PUSH1 0x0 PUSH2 0x1417 DUP3 PUSH2 0x13EC JUMP JUMPDEST SWAP1 POP SWAP2 SWAP1 POP JUMP JUMPDEST PUSH2 0x1427 DUP2 PUSH2 0x140C JUMP JUMPDEST DUP2 EQ PUSH2 0x1432 JUMPI PUSH1 0x0 DUP1 REVERT JUMPDEST POP JUMP JUMPDEST PUSH1 0x0 DUP2 CALLDATALOAD SWAP1 POP PUSH2 0x1444 DUP2 PUSH2 0x141E JUMP JUMPDEST SWAP3 SWAP2 POP POP JUMP JUMPDEST PUSH1 0x0 DUP2 SWAP1 POP SWAP2 SWAP1 POP JUMP JUMPDEST PUSH2 0x145D DUP2 PUSH2 0x144A JUMP JUMPDEST DUP2 EQ PUSH2 0x1468 JUMPI PUSH1 0x0 DUP1 REVERT JUMPDEST POP JUMP JUMPDEST PUSH1 0x0 DUP2 CALLDATALOAD SWAP1 POP PUSH2 0x147A DUP2 PUSH2 0x1454 JUMP JUMPDEST SWAP3 SWAP2 POP POP JUMP JUMPDEST PUSH1 0x0 DUP1 PUSH1 0x40 DUP4 DUP6 SUB SLT ISZERO PUSH2 0x1497 JUMPI PUSH2 0x1496 PUSH2 0x13E7 JUMP JUMPDEST JUMPDEST PUSH1 0x0 PUSH2 0x14A5 DUP6 DUP3 DUP7 ADD PUSH2 0x1435 JUMP JUMPDEST SWAP3 POP POP PUSH1 0x20 PUSH2 0x14B6 DUP6 DUP3 DUP7 ADD PUSH2 0x146B JUMP JUMPDEST SWAP2 POP POP SWAP3 POP SWAP3 SWAP1 POP JUMP JUMPDEST PUSH2 0x14C9 DUP2 PUSH2 0x140C JUMP JUMPDEST DUP3 MSTORE POP POP JUMP JUMPDEST PUSH1 0x0 PUSH1 0x20 DUP3 ADD SWAP1 POP PUSH2 0x14E4 PUSH1 0x0 DUP4 ADD DUP5 PUSH2 0x14C0 JUMP JUMPDEST SWAP3 SWAP2 POP POP JUMP JUMPDEST PUSH1 0x0 DUP1 PUSH1 0x40 DUP4 DUP6 SUB SLT ISZERO PUSH2 0x1501 JUMPI PUSH2 0x1500 PUSH2 0x13E7 JUMP JUMPDEST JUMPDEST PUSH1 0x0 PUSH2 0x150F DUP6 DUP3 DUP7 ADD PUSH2 0x1435 JUMP JUMPDEST SWAP3 POP POP PUSH1 0x20 PUSH2 0x1520 DUP6 DUP3 DUP7 ADD PUSH2 0x1435 JUMP JUMPDEST SWAP2 POP POP SWAP3 POP SWAP3 SWAP1 POP JUMP JUMPDEST PUSH1 0x0 DUP2 ISZERO ISZERO SWAP1 POP SWAP2 SWAP1 POP JUMP JUMPDEST PUSH2 0x153F DUP2 PUSH2 0x152A JUMP JUMPDEST DUP3 MSTORE POP POP JUMP JUMPDEST PUSH1 0x0 PUSH1 0x20 DUP3 ADD SWAP1 POP PUSH2 0x155A PUSH1 0x0 DUP4 ADD DUP5 PUSH2 0x1536 JUMP JUMPDEST SWAP3 SWAP2 POP POP JUMP JUMPDEST PUSH1 0x0 PUSH1 0x20 DUP3 DUP5 SUB SLT ISZERO PUSH2 0x1576 JUMPI PUSH2 0x1575 PUSH2 0x13E7 JUMP JUMPDEST JUMPDEST PUSH1 0x0 PUSH2 0x1584 DUP5 DUP3 DUP6 ADD PUSH2 0x1435 JUMP JUMPDEST SWAP2 POP POP SWAP3 SWAP2 POP POP JUMP JUMPDEST PUSH1 0x0 DUP2 MLOAD SWAP1 POP SWAP2 SWAP1 POP JUMP JUMPDEST PUSH1 0x0 DUP3 DUP3 MSTORE PUSH1 0x20 DUP3 ADD SWAP1 POP SWAP3 SWAP2 POP POP JUMP JUMPDEST PUSH1 0x0 DUP2 SWAP1 POP PUSH1 0x20 DUP3 ADD SWAP1 POP SWAP2 SWAP1 POP JUMP JUMPDEST PUSH2 0x15C2 DUP2 PUSH2 0x140C JUMP JUMPDEST DUP3 MSTORE POP POP JUMP JUMPDEST PUSH1 0x0 PUSH2 0x15D4 DUP4 DUP4 PUSH2 0x15B9 JUMP JUMPDEST PUSH1 0x20 DUP4 ADD SWAP1 POP SWAP3 SWAP2 POP POP JUMP JUMPDEST PUSH1 0x0 PUSH1 0x20 DUP3 ADD SWAP1 POP SWAP2 SWAP1 POP JUMP JUMPDEST PUSH1 0x0 PUSH2 0x15F8 DUP3 PUSH2 0x158D JUMP JUMPDEST PUSH2 0x1602 DUP2 DUP6 PUSH2 0x1598 JUMP JUMPDEST SWAP4 POP PUSH2 0x160D DUP4 PUSH2 0x15A9 JUMP JUMPDEST DUP1 PUSH1 0x0 JUMPDEST DUP4 DUP2 LT ISZERO PUSH2 0x163E JUMPI DUP2 MLOAD PUSH2 0x1625 DUP9 DUP3 PUSH2 0x15C8 JUMP JUMPDEST SWAP8 POP PUSH2 0x1630 DUP4 PUSH2 0x15E0 JUMP JUMPDEST SWAP3 POP POP PUSH1 0x1 DUP2 ADD SWAP1 POP PUSH2 0x1611 JUMP JUMPDEST POP DUP6 SWAP4 POP POP POP POP SWAP3 SWAP2 POP POP JUMP JUMPDEST PUSH1 0x0 PUSH1 0x20 DUP3 ADD SWAP1 POP DUP2 DUP2 SUB PUSH1 0x0 DUP4 ADD MSTORE PUSH2 0x1665 DUP2 DUP5 PUSH2 0x15ED JUMP JUMPDEST SWAP1 POP SWAP3 SWAP2 POP POP JUMP JUMPDEST PUSH1 0x0 PUSH1 0x20 DUP3 DUP5 SUB SLT ISZERO PUSH2 0x1683 JUMPI PUSH2 0x1682 PUSH2 0x13E7 JUMP JUMPDEST JUMPDEST PUSH1 0x0 PUSH2 0x1691 DUP5 DUP3 DUP6 ADD PUSH2 0x146B JUMP JUMPDEST SWAP2 POP POP SWAP3 SWAP2 POP POP JUMP JUMPDEST PUSH1 0x0 DUP3 DUP3 MSTORE PUSH1 0x20 DUP3 ADD SWAP1 POP SWAP3 SWAP2 POP POP JUMP JUMPDEST PUSH32 0x496E646578206F7574206F662072616E67650000000000000000000000000000 PUSH1 0x0 DUP3 ADD MSTORE POP JUMP JUMPDEST PUSH1 0x0 PUSH2 0x16E1 PUSH1 0x12 DUP4 PUSH2 0x169A JUMP JUMPDEST SWAP2 POP PUSH2 0x16EC DUP3 PUSH2 0x16AB JUMP JUMPDEST PUSH1 0x20 DUP3 ADD SWAP1 POP SWAP2 SWAP1 POP JUMP JUMPDEST PUSH1 0x0 PUSH1 0x20 DUP3 ADD SWAP1 POP DUP2 DUP2 SUB PUSH1 0x0 DUP4 ADD MSTORE PUSH2 0x1710 DUP2 PUSH2 0x16D4 JUMP JUMPDEST SWAP1 POP SWAP2 SWAP1 POP JUMP JUMPDEST PUSH32 0x4E487B7100000000000000000000000000000000000000000000000000000000 PUSH1 0x0 MSTORE PUSH1 0x32 PUSH1 0x4 MSTORE PUSH1 0x24 PUSH1 0x0 REVERT JUMPDEST PUSH32 0x4E487B7100000000000000000000000000000000000000000000000000000000 PUSH1 0x0 MSTORE PUSH1 0x11 PUSH1 0x4 MSTORE PUSH1 0x24 PUSH1 0x0 REVERT JUMPDEST PUSH1 0x0 PUSH2 0x1780 DUP3 PUSH2 0x144A JUMP JUMPDEST SWAP2 POP PUSH2 0x178B DUP4 PUSH2 0x144A JUMP JUMPDEST SWAP3 POP DUP3 DUP3 ADD SWAP1 POP DUP1 DUP3 GT ISZERO PUSH2 0x17A3 JUMPI PUSH2 0x17A2 PUSH2 0x1746 JUMP JUMPDEST JUMPDEST SWAP3 SWAP2 POP POP JUMP JUMPDEST PUSH32 0x4F7574206F6620496E6465780000000000000000000000000000000000000000 PUSH1 0x0 DUP3 ADD MSTORE POP JUMP JUMPDEST PUSH1 0x0 PUSH2 0x17DF PUSH1 0xC DUP4 PUSH2 0x169A JUMP JUMPDEST SWAP2 POP PUSH2 0x17EA DUP3 PUSH2 0x17A9 JUMP JUMPDEST PUSH1 0x20 DUP3 ADD SWAP1 POP SWAP2 SWAP1 POP JUMP JUMPDEST PUSH1 0x0 PUSH1 0x20 DUP3 ADD SWAP1 POP DUP2 DUP2 SUB PUSH1 0x0 DUP4 ADD MSTORE PUSH2 0x180E DUP2 PUSH2 0x17D2 JUMP JUMPDEST SWAP1 POP SWAP2 SWAP1 POP JUMP JUMPDEST PUSH1 0x0 PUSH2 0x1820 DUP3 PUSH2 0x144A JUMP JUMPDEST SWAP2 POP PUSH2 0x182B DUP4 PUSH2 0x144A JUMP JUMPDEST SWAP3 POP DUP3 DUP3 SUB SWAP1 POP DUP2 DUP2 GT ISZERO PUSH2 0x1843 JUMPI PUSH2 0x1842 PUSH2 0x1746 JUMP JUMPDEST JUMPDEST SWAP3 SWAP2 POP POP JUMP JUMPDEST PUSH32 0x4E487B7100000000000000000000000000000000000000000000000000000000 PUSH1 0x0 MSTORE PUSH1 0x31 PUSH1 0x4 MSTORE PUSH1 0x24 PUSH1 0x0 REVERT INVALID LOG2 PUSH5 0x6970667358 0x22 SLT KECCAK256 0xD4 0xD5 EXTCODECOPY CALLCODE SWAP7 DUP13 PUSH22 0x9DD6FD8ECDD511BFDAAD47803CE7217BA7A97E3D8863 0xBA 0xED 0x5F PUSH5 0x736F6C6343 STOP ADDMOD GT STOP CALLER "},"gasEstimates":{"creation":{"codeDepositCost":"1263600","executionCost":"1315","totalCost":"1264915"},"external":{"addMember(address,address)":"infinite","addMemberProject(address,address)":"infinite","addPoolCreator(address,address)":"infinite","addStakeholderToProposal(address,address)":"infinite","creatorPools(address,uint256)":"infinite","creatorPoolsMap(address,address)":"infinite","getCreatorPools(address)":"infinite","getMemberPools(address)":"infinite","getStakeholderProposals(address)":"infinite","isMember(address,address)":"infinite","isPoolCreator(address,address)":"infinite","isStakeholder(address,address)":"infinite","memberIsInAnyPool(address)":"2950","memberMap(address,address)":"infinite","memberPools(address,uint256)":"infinite","memberProjects(address,uint256)":"infinite","poolUpOne(uint256)":"infinite","pools(uint256)":"5045","removeMemberProject(address,uint256)":"infinite","stakeholderMap(address,address)":"infinite","stakeholderProposals(address,uint256)":"infinite"}},"methodIdentifiers":{"addMember(address,address)":"9d58b15d","addMemberProject(address,address)":"4c2587d4","addPoolCreator(address,address)":"ec3140a3","addStakeholderToProposal(address,address)":"f9ab2eff","creatorPools(address,uint256)":"f9819d8e","creatorPoolsMap(address,address)":"ba63a9f0","getCreatorPools(address)":"e86c24f9","getMemberPools(address)":"fadd65c3","getStakeholderProposals(address)":"6997b953","isMember(address,address)":"39ac7a08","isPoolCreator(address,address)":"d5b03649","isStakeholder(address,address)":"9457740a","memberIsInAnyPool(address)":"75838862","memberMap(address,address)":"3a685930","memberPools(address,uint256)":"57b70767","memberProjects(address,uint256)":"1875c639","poolUpOne(uint256)":"7a9b7c35","pools(uint256)":"ac4afa38","removeMemberProject(address,uint256)":"84d0cbe3","stakeholderMap(address,address)":"6e7f56f8","stakeholderProposals(address,uint256)":"6c607516"}},"storageLayout":{"storage":[{"astId":388,"contract":"MemberMap.sol:MemberMap","label":"memberMap","offset":0,"slot":"0","type":"t_mapping(t_address,t_mapping(t_address,t_bool))"},{"astId":393,"contract":"MemberMap.sol:MemberMap","label":"memberPools","offset":0,"slot":"1","type":"t_mapping(t_address,t_array(t_address)dyn_storage)"},{"astId":398,"contract":"MemberMap.sol:MemberMap","label":"memberProjects","offset":0,"slot":"2","type":"t_mapping(t_address,t_array(t_address)dyn_storage)"},{"astId":404,"contract":"MemberMap.sol:MemberMap","label":"stakeholderMap","offset":0,"slot":"3","type":"t_mapping(t_address,t_mapping(t_address,t_bool))"},{"astId":409,"contract":"MemberMap.sol:MemberMap","label":"stakeholderProposals","offset":0,"slot":"4","type":"t_mapping(t_address,t_array(t_address)dyn_storage)"},{"astId":415,"contract":"MemberMap.sol:MemberMap","label":"creatorPoolsMap","offset":0,"slot":"5","type":"t_mapping(t_address,t_mapping(t_address,t_bool))"},{"astId":420,"contract":"MemberMap.sol:MemberMap","label":"creatorPools","offset":0,"slot":"6","type":"t_mapping(t_address,t_array(t_address)dyn_storage)"},{"astId":423,"contract":"MemberMap.sol:MemberMap","label":"pools","offset":0,"slot":"7","type":"t_array(t_address)dyn_storage"}],"types":{"t_address":{"encoding":"inplace","label":"address","numberOfBytes":"20"},"t_array(t_address)dyn_storage":{"base":"t_address","encoding":"dynamic_array","label":"address[]","numberOfBytes":"32"},"t_bool":{"encoding":"inplace","label":"bool","numberOfBytes":"1"},"t_mapping(t_address,t_array(t_address)dyn_storage)":{"encoding":"mapping","key":"t_address","label":"mapping(address => address[])","numberOfBytes":"32","value":"t_array(t_address)dyn_storage"},"t_mapping(t_address,t_bool)":{"encoding":"mapping","key":"t_address","label":"mapping(address => bool)","numberOfBytes":"32","value":"t_bool"},"t_mapping(t_address,t_mapping(t_address,t_bool))":{"encoding":"mapping","key":"t_address","label":"mapping(address => mapping(address => bool))","numberOfBytes":"32","value":"t_mapping(t_address,t_bool)"}}},"userdoc":{"kind":"user","methods":{},"version":1}}