{"abi":[{"inputs":[{"internalType":"address","name":"_creator","type":"address"},{"internalType":"string","name":"_name","type":"string"},{"internalType":"address","name":"memMap","type":"address"}],"stateMutability":"nonpayable","type":"constructor"},{"anonymous":false,"inputs":[{"indexed":false,"internalType":"address","name":"sender","type":"address"}],"name":"MemberCreated","type":"event"},{"anonymous":false,"inputs":[{"indexed":false,"internalType":"address","name":"sender","type":"address"}],"name":"MemberPunished","type":"event"},{"anonymous":false,"inputs":[{"indexed":false,"internalType":"address","name":"member","type":"address"}],"name":"MemberReportUpdate","type":"event"},{"anonymous":false,"inputs":[{"indexed":false,"internalType":"address","name":"sender","type":"address"}],"name":"MemberRewarded","type":"event"},{"anonymous":false,"inputs":[{"indexed":false,"internalType":"address","name":"sender","type":"address"}],"name":"VoteAgainstMemberEnd","type":"event"},{"anonymous":false,"inputs":[{"indexed":false,"internalType":"address","name":"sender","type":"address"}],"name":"VoteAgainstMemberStart","type":"event"},{"inputs":[{"internalType":"address","name":"applicant","type":"address"}],"name":"admitApplicant","outputs":[],"stateMutability":"nonpayable","type":"function"},{"inputs":[],"name":"applicantPoolAddress","outputs":[{"internalType":"address","name":"","type":"address"}],"stateMutability":"view","type":"function"},{"inputs":[],"name":"creator","outputs":[{"internalType":"address","name":"","type":"address"}],"stateMutability":"view","type":"function"},{"inputs":[{"internalType":"address","name":"member","type":"address"}],"name":"dismissMemberReport","outputs":[],"stateMutability":"nonpayable","type":"function"},{"inputs":[],"name":"getApplicants","outputs":[{"internalType":"address[]","name":"","type":"address[]"}],"stateMutability":"view","type":"function"},{"inputs":[],"name":"getMemberCount","outputs":[{"internalType":"uint256","name":"","type":"uint256"}],"stateMutability":"view","type":"function"},{"inputs":[{"internalType":"address","name":"member","type":"address"}],"name":"getMemberRep","outputs":[{"internalType":"int32","name":"","type":"int32"}],"stateMutability":"view","type":"function"},{"inputs":[{"internalType":"address","name":"member","type":"address"}],"name":"getMemberReports","outputs":[{"internalType":"string[]","name":"","type":"string[]"}],"stateMutability":"view","type":"function"},{"inputs":[],"name":"getMembers","outputs":[{"internalType":"address[]","name":"","type":"address[]"}],"stateMutability":"view","type":"function"},{"inputs":[{"internalType":"address","name":"member","type":"address"},{"internalType":"string","name":"comment","type":"string"}],"name":"highlightReport","outputs":[],"stateMutability":"nonpayable","type":"function"},{"inputs":[{"internalType":"address","name":"member","type":"address"}],"name":"increaseMemberRep","outputs":[],"stateMutability":"nonpayable","type":"function"},{"inputs":[{"internalType":"address","name":"id","type":"address"}],"name":"isMember","outputs":[{"internalType":"bool","name":"","type":"bool"}],"stateMutability":"view","type":"function"},{"inputs":[],"name":"longSummary","outputs":[{"internalType":"string","name":"","type":"string"}],"stateMutability":"view","type":"function"},{"inputs":[{"internalType":"address","name":"","type":"address"}],"name":"memberActive","outputs":[{"internalType":"bool","name":"","type":"bool"}],"stateMutability":"view","type":"function"},{"inputs":[{"internalType":"address","name":"","type":"address"}],"name":"memberPoints","outputs":[{"internalType":"int256","name":"","type":"int256"}],"stateMutability":"view","type":"function"},{"inputs":[{"internalType":"uint256","name":"","type":"uint256"}],"name":"members","outputs":[{"internalType":"address","name":"","type":"address"}],"stateMutability":"view","type":"function"},{"inputs":[],"name":"name","outputs":[{"internalType":"string","name":"","type":"string"}],"stateMutability":"view","type":"function"},{"inputs":[{"internalType":"uint256","name":"","type":"uint256"}],"name":"projects","outputs":[{"internalType":"address","name":"","type":"address"}],"stateMutability":"view","type":"function"},{"inputs":[{"internalType":"address","name":"applicant","type":"address"}],"name":"rejectApplicant","outputs":[],"stateMutability":"nonpayable","type":"function"},{"inputs":[{"internalType":"address","name":"member","type":"address"},{"internalType":"string","name":"report","type":"string"}],"name":"reportMember","outputs":[{"internalType":"uint32","name":"","type":"uint32"}],"stateMutability":"view","type":"function"},{"inputs":[],"name":"shortSummary","outputs":[{"internalType":"string","name":"","type":"string"}],"stateMutability":"view","type":"function"},{"inputs":[{"internalType":"address","name":"","type":"address"}],"name":"userToMemberUp","outputs":[{"internalType":"address","name":"","type":"address"}],"stateMutability":"view","type":"function"}],"devdoc":{"kind":"dev","methods":{},"version":1},"evm":{"assembly":"    /* \"MemberPool.sol\":94:3680  contract MemberPool {... */\n  mstore(0x40, 0x80)\n    /* \"MemberPool.sol\":807:1114  constructor(... */\n  callvalue\n  dup1\n  iszero\n  tag_1\n  jumpi\n  0x00\n  dup1\n  revert\ntag_1:\n  pop\n  mload(0x40)\n  sub(codesize, bytecodeSize)\n  dup1\n  bytecodeSize\n  dup4\n  codecopy\n  dup2\n  dup2\n  add\n  0x40\n  mstore\n  dup2\n  add\n  swap1\n  tag_2\n  swap2\n  swap1\n  tag_3\n  jump\t// in\ntag_2:\n    /* \"MemberPool.sol\":929:937  _creator */\n  dup3\n    /* \"MemberPool.sol\":919:926  creator */\n  0x09\n  0x00\n    /* \"MemberPool.sol\":919:937  creator = _creator */\n  0x0100\n  exp\n  dup2\n  sload\n  dup2\n  0xffffffffffffffffffffffffffffffffffffffff\n  mul\n  not\n  and\n  swap1\n  dup4\n  0xffffffffffffffffffffffffffffffffffffffff\n  and\n  mul\n  or\n  swap1\n  sstore\n  pop\n    /* \"MemberPool.sol\":955:960  _name */\n  dup2\n    /* \"MemberPool.sol\":948:952  name */\n  0x00\n    /* \"MemberPool.sol\":948:960  name = _name */\n  swap1\n  dup2\n  tag_6\n  swap2\n  swap1\n  tag_7\n  jump\t// in\ntag_6:\n  pop\n    /* \"MemberPool.sol\":1034:1040  memMap */\n  dup1\n    /* \"MemberPool.sol\":1050:1054  this */\n  address\n    /* \"MemberPool.sol\":1016:1056  new ApplicantPool(memMap, address(this)) */\n  mload(0x40)\n  tag_8\n  swap1\n  tag_9\n  jump\t// in\ntag_8:\n  tag_10\n  swap3\n  swap2\n  swap1\n  tag_11\n  jump\t// in\ntag_10:\n  mload(0x40)\n  dup1\n  swap2\n  sub\n  swap1\n  0x00\n  create\n  dup1\n  iszero\n  dup1\n  iszero\n  tag_12\n  jumpi\n  returndatasize\n  0x00\n  dup1\n  returndatacopy\n  revert(0x00, returndatasize)\ntag_12:\n  pop\n    /* \"MemberPool.sol\":971:991  applicantPoolAddress */\n  0x08\n  0x00\n    /* \"MemberPool.sol\":971:1067  applicantPoolAddress = address(... */\n  0x0100\n  exp\n  dup2\n  sload\n  dup2\n  0xffffffffffffffffffffffffffffffffffffffff\n  mul\n  not\n  and\n  swap1\n  dup4\n  0xffffffffffffffffffffffffffffffffffffffff\n  and\n  mul\n  or\n  swap1\n  sstore\n  pop\n    /* \"MemberPool.sol\":1102:1106  true */\n  0x01\n    /* \"MemberPool.sol\":1078:1090  memberActive */\n  0x04\n    /* \"MemberPool.sol\":1078:1099  memberActive[creator] */\n  0x00\n    /* \"MemberPool.sol\":1091:1098  creator */\n  0x09\n  0x00\n  swap1\n  sload\n  swap1\n  0x0100\n  exp\n  swap1\n  div\n  0xffffffffffffffffffffffffffffffffffffffff\n  and\n    /* \"MemberPool.sol\":1078:1099  memberActive[creator] */\n  0xffffffffffffffffffffffffffffffffffffffff\n  and\n  0xffffffffffffffffffffffffffffffffffffffff\n  and\n  dup2\n  mstore\n  0x20\n  add\n  swap1\n  dup2\n  mstore\n  0x20\n  add\n  0x00\n  keccak256\n  0x00\n    /* \"MemberPool.sol\":1078:1106  memberActive[creator] = true */\n  0x0100\n  exp\n  dup2\n  sload\n  dup2\n  0xff\n  mul\n  not\n  and\n  swap1\n  dup4\n  iszero\n  iszero\n  mul\n  or\n  swap1\n  sstore\n  pop\n    /* \"MemberPool.sol\":807:1114  constructor(... */\n  pop\n  pop\n  pop\n    /* \"MemberPool.sol\":94:3680  contract MemberPool {... */\n  jump(tag_13)\ntag_9:\n  dataSize(sub_1)\n  dup1\n  dataOffset(sub_1)\n  dup4\n  codecopy\n  add\n  swap1\n  jump\t// out\n    /* \"#utility.yul\":7:82   */\ntag_14:\n    /* \"#utility.yul\":40:46   */\n  0x00\n    /* \"#utility.yul\":73:75   */\n  0x40\n    /* \"#utility.yul\":67:76   */\n  mload\n    /* \"#utility.yul\":57:76   */\n  swap1\n  pop\n    /* \"#utility.yul\":7:82   */\n  swap1\n  jump\t// out\n    /* \"#utility.yul\":88:205   */\ntag_15:\n    /* \"#utility.yul\":197:198   */\n  0x00\n    /* \"#utility.yul\":194:195   */\n  dup1\n    /* \"#utility.yul\":187:199   */\n  revert\n    /* \"#utility.yul\":211:328   */\ntag_16:\n    /* \"#utility.yul\":320:321   */\n  0x00\n    /* \"#utility.yul\":317:318   */\n  dup1\n    /* \"#utility.yul\":310:322   */\n  revert\n    /* \"#utility.yul\":334:460   */\ntag_17:\n    /* \"#utility.yul\":371:378   */\n  0x00\n    /* \"#utility.yul\":411:453   */\n  0xffffffffffffffffffffffffffffffffffffffff\n    /* \"#utility.yul\":404:409   */\n  dup3\n    /* \"#utility.yul\":400:454   */\n  and\n    /* \"#utility.yul\":389:454   */\n  swap1\n  pop\n    /* \"#utility.yul\":334:460   */\n  swap2\n  swap1\n  pop\n  jump\t// out\n    /* \"#utility.yul\":466:562   */\ntag_18:\n    /* \"#utility.yul\":503:510   */\n  0x00\n    /* \"#utility.yul\":532:556   */\n  tag_57\n    /* \"#utility.yul\":550:555   */\n  dup3\n    /* \"#utility.yul\":532:556   */\n  tag_17\n  jump\t// in\ntag_57:\n    /* \"#utility.yul\":521:556   */\n  swap1\n  pop\n    /* \"#utility.yul\":466:562   */\n  swap2\n  swap1\n  pop\n  jump\t// out\n    /* \"#utility.yul\":568:690   */\ntag_19:\n    /* \"#utility.yul\":641:665   */\n  tag_59\n    /* \"#utility.yul\":659:664   */\n  dup2\n    /* \"#utility.yul\":641:665   */\n  tag_18\n  jump\t// in\ntag_59:\n    /* \"#utility.yul\":634:639   */\n  dup2\n    /* \"#utility.yul\":631:666   */\n  eq\n    /* \"#utility.yul\":621:684   */\n  tag_60\n  jumpi\n    /* \"#utility.yul\":680:681   */\n  0x00\n    /* \"#utility.yul\":677:678   */\n  dup1\n    /* \"#utility.yul\":670:682   */\n  revert\n    /* \"#utility.yul\":621:684   */\ntag_60:\n    /* \"#utility.yul\":568:690   */\n  pop\n  jump\t// out\n    /* \"#utility.yul\":696:839   */\ntag_20:\n    /* \"#utility.yul\":753:758   */\n  0x00\n    /* \"#utility.yul\":784:790   */\n  dup2\n    /* \"#utility.yul\":778:791   */\n  mload\n    /* \"#utility.yul\":769:791   */\n  swap1\n  pop\n    /* \"#utility.yul\":800:833   */\n  tag_62\n    /* \"#utility.yul\":827:832   */\n  dup2\n    /* \"#utility.yul\":800:833   */\n  tag_19\n  jump\t// in\ntag_62:\n    /* \"#utility.yul\":696:839   */\n  swap3\n  swap2\n  pop\n  pop\n  jump\t// out\n    /* \"#utility.yul\":845:962   */\ntag_21:\n    /* \"#utility.yul\":954:955   */\n  0x00\n    /* \"#utility.yul\":951:952   */\n  dup1\n    /* \"#utility.yul\":944:956   */\n  revert\n    /* \"#utility.yul\":968:1085   */\ntag_22:\n    /* \"#utility.yul\":1077:1078   */\n  0x00\n    /* \"#utility.yul\":1074:1075   */\n  dup1\n    /* \"#utility.yul\":1067:1079   */\n  revert\n    /* \"#utility.yul\":1091:1193   */\ntag_23:\n    /* \"#utility.yul\":1132:1138   */\n  0x00\n    /* \"#utility.yul\":1183:1185   */\n  0x1f\n    /* \"#utility.yul\":1179:1186   */\n  not\n    /* \"#utility.yul\":1174:1176   */\n  0x1f\n    /* \"#utility.yul\":1167:1172   */\n  dup4\n    /* \"#utility.yul\":1163:1177   */\n  add\n    /* \"#utility.yul\":1159:1187   */\n  and\n    /* \"#utility.yul\":1149:1187   */\n  swap1\n  pop\n    /* \"#utility.yul\":1091:1193   */\n  swap2\n  swap1\n  pop\n  jump\t// out\n    /* \"#utility.yul\":1199:1379   */\ntag_24:\n    /* \"#utility.yul\":1247:1324   */\n  0x4e487b7100000000000000000000000000000000000000000000000000000000\n    /* \"#utility.yul\":1244:1245   */\n  0x00\n    /* \"#utility.yul\":1237:1325   */\n  mstore\n    /* \"#utility.yul\":1344:1348   */\n  0x41\n    /* \"#utility.yul\":1341:1342   */\n  0x04\n    /* \"#utility.yul\":1334:1349   */\n  mstore\n    /* \"#utility.yul\":1368:1372   */\n  0x24\n    /* \"#utility.yul\":1365:1366   */\n  0x00\n    /* \"#utility.yul\":1358:1373   */\n  revert\n    /* \"#utility.yul\":1385:1666   */\ntag_25:\n    /* \"#utility.yul\":1468:1495   */\n  tag_68\n    /* \"#utility.yul\":1490:1494   */\n  dup3\n    /* \"#utility.yul\":1468:1495   */\n  tag_23\n  jump\t// in\ntag_68:\n    /* \"#utility.yul\":1460:1466   */\n  dup2\n    /* \"#utility.yul\":1456:1496   */\n  add\n    /* \"#utility.yul\":1598:1604   */\n  dup2\n    /* \"#utility.yul\":1586:1596   */\n  dup2\n    /* \"#utility.yul\":1583:1605   */\n  lt\n    /* \"#utility.yul\":1562:1580   */\n  0xffffffffffffffff\n    /* \"#utility.yul\":1550:1560   */\n  dup3\n    /* \"#utility.yul\":1547:1581   */\n  gt\n    /* \"#utility.yul\":1544:1606   */\n  or\n    /* \"#utility.yul\":1541:1629   */\n  iszero\n  tag_69\n  jumpi\n    /* \"#utility.yul\":1609:1627   */\n  tag_70\n  tag_24\n  jump\t// in\ntag_70:\n    /* \"#utility.yul\":1541:1629   */\ntag_69:\n    /* \"#utility.yul\":1649:1659   */\n  dup1\n    /* \"#utility.yul\":1645:1647   */\n  0x40\n    /* \"#utility.yul\":1638:1660   */\n  mstore\n    /* \"#utility.yul\":1428:1666   */\n  pop\n    /* \"#utility.yul\":1385:1666   */\n  pop\n  pop\n  jump\t// out\n    /* \"#utility.yul\":1672:1801   */\ntag_26:\n    /* \"#utility.yul\":1706:1712   */\n  0x00\n    /* \"#utility.yul\":1733:1753   */\n  tag_72\n  tag_14\n  jump\t// in\ntag_72:\n    /* \"#utility.yul\":1723:1753   */\n  swap1\n  pop\n    /* \"#utility.yul\":1762:1795   */\n  tag_73\n    /* \"#utility.yul\":1790:1794   */\n  dup3\n    /* \"#utility.yul\":1782:1788   */\n  dup3\n    /* \"#utility.yul\":1762:1795   */\n  tag_25\n  jump\t// in\ntag_73:\n    /* \"#utility.yul\":1672:1801   */\n  swap2\n  swap1\n  pop\n  jump\t// out\n    /* \"#utility.yul\":1807:2115   */\ntag_27:\n    /* \"#utility.yul\":1869:1873   */\n  0x00\n    /* \"#utility.yul\":1959:1977   */\n  0xffffffffffffffff\n    /* \"#utility.yul\":1951:1957   */\n  dup3\n    /* \"#utility.yul\":1948:1978   */\n  gt\n    /* \"#utility.yul\":1945:2001   */\n  iszero\n  tag_75\n  jumpi\n    /* \"#utility.yul\":1981:1999   */\n  tag_76\n  tag_24\n  jump\t// in\ntag_76:\n    /* \"#utility.yul\":1945:2001   */\ntag_75:\n    /* \"#utility.yul\":2019:2048   */\n  tag_77\n    /* \"#utility.yul\":2041:2047   */\n  dup3\n    /* \"#utility.yul\":2019:2048   */\n  tag_23\n  jump\t// in\ntag_77:\n    /* \"#utility.yul\":2011:2048   */\n  swap1\n  pop\n    /* \"#utility.yul\":2103:2107   */\n  0x20\n    /* \"#utility.yul\":2097:2101   */\n  dup2\n    /* \"#utility.yul\":2093:2108   */\n  add\n    /* \"#utility.yul\":2085:2108   */\n  swap1\n  pop\n    /* \"#utility.yul\":1807:2115   */\n  swap2\n  swap1\n  pop\n  jump\t// out\n    /* \"#utility.yul\":2121:2367   */\ntag_28:\n    /* \"#utility.yul\":2202:2203   */\n  0x00\n    /* \"#utility.yul\":2212:2325   */\ntag_79:\n    /* \"#utility.yul\":2226:2232   */\n  dup4\n    /* \"#utility.yul\":2223:2224   */\n  dup2\n    /* \"#utility.yul\":2220:2233   */\n  lt\n    /* \"#utility.yul\":2212:2325   */\n  iszero\n  tag_81\n  jumpi\n    /* \"#utility.yul\":2311:2312   */\n  dup1\n    /* \"#utility.yul\":2306:2309   */\n  dup3\n    /* \"#utility.yul\":2302:2313   */\n  add\n    /* \"#utility.yul\":2296:2314   */\n  mload\n    /* \"#utility.yul\":2292:2293   */\n  dup2\n    /* \"#utility.yul\":2287:2290   */\n  dup5\n    /* \"#utility.yul\":2283:2294   */\n  add\n    /* \"#utility.yul\":2276:2315   */\n  mstore\n    /* \"#utility.yul\":2248:2250   */\n  0x20\n    /* \"#utility.yul\":2245:2246   */\n  dup2\n    /* \"#utility.yul\":2241:2251   */\n  add\n    /* \"#utility.yul\":2236:2251   */\n  swap1\n  pop\n    /* \"#utility.yul\":2212:2325   */\n  jump(tag_79)\ntag_81:\n    /* \"#utility.yul\":2359:2360   */\n  0x00\n    /* \"#utility.yul\":2350:2356   */\n  dup5\n    /* \"#utility.yul\":2345:2348   */\n  dup5\n    /* \"#utility.yul\":2341:2357   */\n  add\n    /* \"#utility.yul\":2334:2361   */\n  mstore\n    /* \"#utility.yul\":2183:2367   */\n  pop\n    /* \"#utility.yul\":2121:2367   */\n  pop\n  pop\n  pop\n  jump\t// out\n    /* \"#utility.yul\":2373:2807   */\ntag_29:\n    /* \"#utility.yul\":2462:2467   */\n  0x00\n    /* \"#utility.yul\":2487:2553   */\n  tag_83\n    /* \"#utility.yul\":2503:2552   */\n  tag_84\n    /* \"#utility.yul\":2545:2551   */\n  dup5\n    /* \"#utility.yul\":2503:2552   */\n  tag_27\n  jump\t// in\ntag_84:\n    /* \"#utility.yul\":2487:2553   */\n  tag_26\n  jump\t// in\ntag_83:\n    /* \"#utility.yul\":2478:2553   */\n  swap1\n  pop\n    /* \"#utility.yul\":2576:2582   */\n  dup3\n    /* \"#utility.yul\":2569:2574   */\n  dup2\n    /* \"#utility.yul\":2562:2583   */\n  mstore\n    /* \"#utility.yul\":2614:2618   */\n  0x20\n    /* \"#utility.yul\":2607:2612   */\n  dup2\n    /* \"#utility.yul\":2603:2619   */\n  add\n    /* \"#utility.yul\":2652:2655   */\n  dup5\n    /* \"#utility.yul\":2643:2649   */\n  dup5\n    /* \"#utility.yul\":2638:2641   */\n  dup5\n    /* \"#utility.yul\":2634:2650   */\n  add\n    /* \"#utility.yul\":2631:2656   */\n  gt\n    /* \"#utility.yul\":2628:2740   */\n  iszero\n  tag_85\n  jumpi\n    /* \"#utility.yul\":2659:2738   */\n  tag_86\n  tag_22\n  jump\t// in\ntag_86:\n    /* \"#utility.yul\":2628:2740   */\ntag_85:\n    /* \"#utility.yul\":2749:2801   */\n  tag_87\n    /* \"#utility.yul\":2794:2800   */\n  dup5\n    /* \"#utility.yul\":2789:2792   */\n  dup3\n    /* \"#utility.yul\":2784:2787   */\n  dup6\n    /* \"#utility.yul\":2749:2801   */\n  tag_28\n  jump\t// in\ntag_87:\n    /* \"#utility.yul\":2468:2807   */\n  pop\n    /* \"#utility.yul\":2373:2807   */\n  swap4\n  swap3\n  pop\n  pop\n  pop\n  jump\t// out\n    /* \"#utility.yul\":2827:3182   */\ntag_30:\n    /* \"#utility.yul\":2894:2899   */\n  0x00\n    /* \"#utility.yul\":2943:2946   */\n  dup3\n    /* \"#utility.yul\":2936:2940   */\n  0x1f\n    /* \"#utility.yul\":2928:2934   */\n  dup4\n    /* \"#utility.yul\":2924:2941   */\n  add\n    /* \"#utility.yul\":2920:2947   */\n  slt\n    /* \"#utility.yul\":2910:3032   */\n  tag_89\n  jumpi\n    /* \"#utility.yul\":2951:3030   */\n  tag_90\n  tag_21\n  jump\t// in\ntag_90:\n    /* \"#utility.yul\":2910:3032   */\ntag_89:\n    /* \"#utility.yul\":3061:3067   */\n  dup2\n    /* \"#utility.yul\":3055:3068   */\n  mload\n    /* \"#utility.yul\":3086:3176   */\n  tag_91\n    /* \"#utility.yul\":3172:3175   */\n  dup5\n    /* \"#utility.yul\":3164:3170   */\n  dup3\n    /* \"#utility.yul\":3157:3161   */\n  0x20\n    /* \"#utility.yul\":3149:3155   */\n  dup7\n    /* \"#utility.yul\":3145:3162   */\n  add\n    /* \"#utility.yul\":3086:3176   */\n  tag_29\n  jump\t// in\ntag_91:\n    /* \"#utility.yul\":3077:3176   */\n  swap2\n  pop\n    /* \"#utility.yul\":2900:3182   */\n  pop\n    /* \"#utility.yul\":2827:3182   */\n  swap3\n  swap2\n  pop\n  pop\n  jump\t// out\n    /* \"#utility.yul\":3188:4024   */\ntag_3:\n    /* \"#utility.yul\":3286:3292   */\n  0x00\n    /* \"#utility.yul\":3294:3300   */\n  dup1\n    /* \"#utility.yul\":3302:3308   */\n  0x00\n    /* \"#utility.yul\":3351:3353   */\n  0x60\n    /* \"#utility.yul\":3339:3348   */\n  dup5\n    /* \"#utility.yul\":3330:3337   */\n  dup7\n    /* \"#utility.yul\":3326:3349   */\n  sub\n    /* \"#utility.yul\":3322:3354   */\n  slt\n    /* \"#utility.yul\":3319:3438   */\n  iszero\n  tag_93\n  jumpi\n    /* \"#utility.yul\":3357:3436   */\n  tag_94\n  tag_15\n  jump\t// in\ntag_94:\n    /* \"#utility.yul\":3319:3438   */\ntag_93:\n    /* \"#utility.yul\":3477:3478   */\n  0x00\n    /* \"#utility.yul\":3502:3566   */\n  tag_95\n    /* \"#utility.yul\":3558:3565   */\n  dup7\n    /* \"#utility.yul\":3549:3555   */\n  dup3\n    /* \"#utility.yul\":3538:3547   */\n  dup8\n    /* \"#utility.yul\":3534:3556   */\n  add\n    /* \"#utility.yul\":3502:3566   */\n  tag_20\n  jump\t// in\ntag_95:\n    /* \"#utility.yul\":3492:3566   */\n  swap4\n  pop\n    /* \"#utility.yul\":3448:3576   */\n  pop\n    /* \"#utility.yul\":3636:3638   */\n  0x20\n    /* \"#utility.yul\":3625:3634   */\n  dup5\n    /* \"#utility.yul\":3621:3639   */\n  add\n    /* \"#utility.yul\":3615:3640   */\n  mload\n    /* \"#utility.yul\":3667:3685   */\n  0xffffffffffffffff\n    /* \"#utility.yul\":3659:3665   */\n  dup2\n    /* \"#utility.yul\":3656:3686   */\n  gt\n    /* \"#utility.yul\":3653:3770   */\n  iszero\n  tag_96\n  jumpi\n    /* \"#utility.yul\":3689:3768   */\n  tag_97\n  tag_16\n  jump\t// in\ntag_97:\n    /* \"#utility.yul\":3653:3770   */\ntag_96:\n    /* \"#utility.yul\":3794:3868   */\n  tag_98\n    /* \"#utility.yul\":3860:3867   */\n  dup7\n    /* \"#utility.yul\":3851:3857   */\n  dup3\n    /* \"#utility.yul\":3840:3849   */\n  dup8\n    /* \"#utility.yul\":3836:3858   */\n  add\n    /* \"#utility.yul\":3794:3868   */\n  tag_30\n  jump\t// in\ntag_98:\n    /* \"#utility.yul\":3784:3868   */\n  swap3\n  pop\n    /* \"#utility.yul\":3586:3878   */\n  pop\n    /* \"#utility.yul\":3917:3919   */\n  0x40\n    /* \"#utility.yul\":3943:4007   */\n  tag_99\n    /* \"#utility.yul\":3999:4006   */\n  dup7\n    /* \"#utility.yul\":3990:3996   */\n  dup3\n    /* \"#utility.yul\":3979:3988   */\n  dup8\n    /* \"#utility.yul\":3975:3997   */\n  add\n    /* \"#utility.yul\":3943:4007   */\n  tag_20\n  jump\t// in\ntag_99:\n    /* \"#utility.yul\":3933:4007   */\n  swap2\n  pop\n    /* \"#utility.yul\":3888:4017   */\n  pop\n    /* \"#utility.yul\":3188:4024   */\n  swap3\n  pop\n  swap3\n  pop\n  swap3\n  jump\t// out\n    /* \"#utility.yul\":4030:4129   */\ntag_31:\n    /* \"#utility.yul\":4082:4088   */\n  0x00\n    /* \"#utility.yul\":4116:4121   */\n  dup2\n    /* \"#utility.yul\":4110:4122   */\n  mload\n    /* \"#utility.yul\":4100:4122   */\n  swap1\n  pop\n    /* \"#utility.yul\":4030:4129   */\n  swap2\n  swap1\n  pop\n  jump\t// out\n    /* \"#utility.yul\":4135:4315   */\ntag_32:\n    /* \"#utility.yul\":4183:4260   */\n  0x4e487b7100000000000000000000000000000000000000000000000000000000\n    /* \"#utility.yul\":4180:4181   */\n  0x00\n    /* \"#utility.yul\":4173:4261   */\n  mstore\n    /* \"#utility.yul\":4280:4284   */\n  0x22\n    /* \"#utility.yul\":4277:4278   */\n  0x04\n    /* \"#utility.yul\":4270:4285   */\n  mstore\n    /* \"#utility.yul\":4304:4308   */\n  0x24\n    /* \"#utility.yul\":4301:4302   */\n  0x00\n    /* \"#utility.yul\":4294:4309   */\n  revert\n    /* \"#utility.yul\":4321:4641   */\ntag_33:\n    /* \"#utility.yul\":4365:4371   */\n  0x00\n    /* \"#utility.yul\":4402:4403   */\n  0x02\n    /* \"#utility.yul\":4396:4400   */\n  dup3\n    /* \"#utility.yul\":4392:4404   */\n  div\n    /* \"#utility.yul\":4382:4404   */\n  swap1\n  pop\n    /* \"#utility.yul\":4449:4450   */\n  0x01\n    /* \"#utility.yul\":4443:4447   */\n  dup3\n    /* \"#utility.yul\":4439:4451   */\n  and\n    /* \"#utility.yul\":4470:4488   */\n  dup1\n    /* \"#utility.yul\":4460:4541   */\n  tag_103\n  jumpi\n    /* \"#utility.yul\":4526:4530   */\n  0x7f\n    /* \"#utility.yul\":4518:4524   */\n  dup3\n    /* \"#utility.yul\":4514:4531   */\n  and\n    /* \"#utility.yul\":4504:4531   */\n  swap2\n  pop\n    /* \"#utility.yul\":4460:4541   */\ntag_103:\n    /* \"#utility.yul\":4588:4590   */\n  0x20\n    /* \"#utility.yul\":4580:4586   */\n  dup3\n    /* \"#utility.yul\":4577:4591   */\n  lt\n    /* \"#utility.yul\":4557:4575   */\n  dup2\n    /* \"#utility.yul\":4554:4592   */\n  sub\n    /* \"#utility.yul\":4551:4635   */\n  tag_104\n  jumpi\n    /* \"#utility.yul\":4607:4625   */\n  tag_105\n  tag_32\n  jump\t// in\ntag_105:\n    /* \"#utility.yul\":4551:4635   */\ntag_104:\n    /* \"#utility.yul\":4372:4641   */\n  pop\n    /* \"#utility.yul\":4321:4641   */\n  swap2\n  swap1\n  pop\n  jump\t// out\n    /* \"#utility.yul\":4647:4788   */\ntag_34:\n    /* \"#utility.yul\":4696:4700   */\n  0x00\n    /* \"#utility.yul\":4719:4722   */\n  dup2\n    /* \"#utility.yul\":4711:4722   */\n  swap1\n  pop\n    /* \"#utility.yul\":4742:4745   */\n  dup2\n    /* \"#utility.yul\":4739:4740   */\n  0x00\n    /* \"#utility.yul\":4732:4746   */\n  mstore\n    /* \"#utility.yul\":4776:4780   */\n  0x20\n    /* \"#utility.yul\":4773:4774   */\n  0x00\n    /* \"#utility.yul\":4763:4781   */\n  keccak256\n    /* \"#utility.yul\":4755:4781   */\n  swap1\n  pop\n    /* \"#utility.yul\":4647:4788   */\n  swap2\n  swap1\n  pop\n  jump\t// out\n    /* \"#utility.yul\":4794:4887   */\ntag_35:\n    /* \"#utility.yul\":4831:4837   */\n  0x00\n    /* \"#utility.yul\":4878:4880   */\n  0x20\n    /* \"#utility.yul\":4873:4875   */\n  0x1f\n    /* \"#utility.yul\":4866:4871   */\n  dup4\n    /* \"#utility.yul\":4862:4876   */\n  add\n    /* \"#utility.yul\":4858:4881   */\n  div\n    /* \"#utility.yul\":4848:4881   */\n  swap1\n  pop\n    /* \"#utility.yul\":4794:4887   */\n  swap2\n  swap1\n  pop\n  jump\t// out\n    /* \"#utility.yul\":4893:5000   */\ntag_36:\n    /* \"#utility.yul\":4937:4945   */\n  0x00\n    /* \"#utility.yul\":4987:4992   */\n  dup3\n    /* \"#utility.yul\":4981:4985   */\n  dup3\n    /* \"#utility.yul\":4977:4993   */\n  shl\n    /* \"#utility.yul\":4956:4993   */\n  swap1\n  pop\n    /* \"#utility.yul\":4893:5000   */\n  swap3\n  swap2\n  pop\n  pop\n  jump\t// out\n    /* \"#utility.yul\":5006:5399   */\ntag_37:\n    /* \"#utility.yul\":5075:5081   */\n  0x00\n    /* \"#utility.yul\":5125:5126   */\n  0x08\n    /* \"#utility.yul\":5113:5123   */\n  dup4\n    /* \"#utility.yul\":5109:5127   */\n  mul\n    /* \"#utility.yul\":5148:5245   */\n  tag_110\n    /* \"#utility.yul\":5178:5244   */\n  0xffffffffffffffffffffffffffffffffffffffffffffffffffffffffffffffff\n    /* \"#utility.yul\":5167:5176   */\n  dup3\n    /* \"#utility.yul\":5148:5245   */\n  tag_36\n  jump\t// in\ntag_110:\n    /* \"#utility.yul\":5266:5305   */\n  tag_111\n    /* \"#utility.yul\":5296:5304   */\n  dup7\n    /* \"#utility.yul\":5285:5294   */\n  dup4\n    /* \"#utility.yul\":5266:5305   */\n  tag_36\n  jump\t// in\ntag_111:\n    /* \"#utility.yul\":5254:5305   */\n  swap6\n  pop\n    /* \"#utility.yul\":5338:5342   */\n  dup1\n    /* \"#utility.yul\":5334:5343   */\n  not\n    /* \"#utility.yul\":5327:5332   */\n  dup5\n    /* \"#utility.yul\":5323:5344   */\n  and\n    /* \"#utility.yul\":5314:5344   */\n  swap4\n  pop\n    /* \"#utility.yul\":5387:5391   */\n  dup1\n    /* \"#utility.yul\":5377:5385   */\n  dup7\n    /* \"#utility.yul\":5373:5392   */\n  and\n    /* \"#utility.yul\":5366:5371   */\n  dup5\n    /* \"#utility.yul\":5363:5393   */\n  or\n    /* \"#utility.yul\":5353:5393   */\n  swap3\n  pop\n    /* \"#utility.yul\":5082:5399   */\n  pop\n  pop\n    /* \"#utility.yul\":5006:5399   */\n  swap4\n  swap3\n  pop\n  pop\n  pop\n  jump\t// out\n    /* \"#utility.yul\":5405:5482   */\ntag_38:\n    /* \"#utility.yul\":5442:5449   */\n  0x00\n    /* \"#utility.yul\":5471:5476   */\n  dup2\n    /* \"#utility.yul\":5460:5476   */\n  swap1\n  pop\n    /* \"#utility.yul\":5405:5482   */\n  swap2\n  swap1\n  pop\n  jump\t// out\n    /* \"#utility.yul\":5488:5548   */\ntag_39:\n    /* \"#utility.yul\":5516:5519   */\n  0x00\n    /* \"#utility.yul\":5537:5542   */\n  dup2\n    /* \"#utility.yul\":5530:5542   */\n  swap1\n  pop\n    /* \"#utility.yul\":5488:5548   */\n  swap2\n  swap1\n  pop\n  jump\t// out\n    /* \"#utility.yul\":5554:5696   */\ntag_40:\n    /* \"#utility.yul\":5604:5613   */\n  0x00\n    /* \"#utility.yul\":5637:5690   */\n  tag_115\n    /* \"#utility.yul\":5655:5689   */\n  tag_116\n    /* \"#utility.yul\":5664:5688   */\n  tag_117\n    /* \"#utility.yul\":5682:5687   */\n  dup5\n    /* \"#utility.yul\":5664:5688   */\n  tag_38\n  jump\t// in\ntag_117:\n    /* \"#utility.yul\":5655:5689   */\n  tag_39\n  jump\t// in\ntag_116:\n    /* \"#utility.yul\":5637:5690   */\n  tag_38\n  jump\t// in\ntag_115:\n    /* \"#utility.yul\":5624:5690   */\n  swap1\n  pop\n    /* \"#utility.yul\":5554:5696   */\n  swap2\n  swap1\n  pop\n  jump\t// out\n    /* \"#utility.yul\":5702:5777   */\ntag_41:\n    /* \"#utility.yul\":5745:5748   */\n  0x00\n    /* \"#utility.yul\":5766:5771   */\n  dup2\n    /* \"#utility.yul\":5759:5771   */\n  swap1\n  pop\n    /* \"#utility.yul\":5702:5777   */\n  swap2\n  swap1\n  pop\n  jump\t// out\n    /* \"#utility.yul\":5783:6052   */\ntag_42:\n    /* \"#utility.yul\":5893:5932   */\n  tag_120\n    /* \"#utility.yul\":5924:5931   */\n  dup4\n    /* \"#utility.yul\":5893:5932   */\n  tag_40\n  jump\t// in\ntag_120:\n    /* \"#utility.yul\":5954:6045   */\n  tag_121\n    /* \"#utility.yul\":6003:6044   */\n  tag_122\n    /* \"#utility.yul\":6027:6043   */\n  dup3\n    /* \"#utility.yul\":6003:6044   */\n  tag_41\n  jump\t// in\ntag_122:\n    /* \"#utility.yul\":5995:6001   */\n  dup5\n    /* \"#utility.yul\":5988:5992   */\n  dup5\n    /* \"#utility.yul\":5982:5993   */\n  sload\n    /* \"#utility.yul\":5954:6045   */\n  tag_37\n  jump\t// in\ntag_121:\n    /* \"#utility.yul\":5948:5952   */\n  dup3\n    /* \"#utility.yul\":5941:6046   */\n  sstore\n    /* \"#utility.yul\":5859:6052   */\n  pop\n    /* \"#utility.yul\":5783:6052   */\n  pop\n  pop\n  pop\n  jump\t// out\n    /* \"#utility.yul\":6058:6131   */\ntag_43:\n    /* \"#utility.yul\":6103:6106   */\n  0x00\n    /* \"#utility.yul\":6058:6131   */\n  swap1\n  jump\t// out\n    /* \"#utility.yul\":6137:6326   */\ntag_44:\n    /* \"#utility.yul\":6214:6246   */\n  tag_125\n  tag_43\n  jump\t// in\ntag_125:\n    /* \"#utility.yul\":6255:6320   */\n  tag_126\n    /* \"#utility.yul\":6313:6319   */\n  dup2\n    /* \"#utility.yul\":6305:6311   */\n  dup5\n    /* \"#utility.yul\":6299:6303   */\n  dup5\n    /* \"#utility.yul\":6255:6320   */\n  tag_42\n  jump\t// in\ntag_126:\n    /* \"#utility.yul\":6190:6326   */\n  pop\n    /* \"#utility.yul\":6137:6326   */\n  pop\n  pop\n  jump\t// out\n    /* \"#utility.yul\":6332:6518   */\ntag_45:\n    /* \"#utility.yul\":6392:6512   */\ntag_128:\n    /* \"#utility.yul\":6409:6412   */\n  dup2\n    /* \"#utility.yul\":6402:6407   */\n  dup2\n    /* \"#utility.yul\":6399:6413   */\n  lt\n    /* \"#utility.yul\":6392:6512   */\n  iszero\n  tag_130\n  jumpi\n    /* \"#utility.yul\":6463:6502   */\n  tag_131\n    /* \"#utility.yul\":6500:6501   */\n  0x00\n    /* \"#utility.yul\":6493:6498   */\n  dup3\n    /* \"#utility.yul\":6463:6502   */\n  tag_44\n  jump\t// in\ntag_131:\n    /* \"#utility.yul\":6436:6437   */\n  0x01\n    /* \"#utility.yul\":6429:6434   */\n  dup2\n    /* \"#utility.yul\":6425:6438   */\n  add\n    /* \"#utility.yul\":6416:6438   */\n  swap1\n  pop\n    /* \"#utility.yul\":6392:6512   */\n  jump(tag_128)\ntag_130:\n    /* \"#utility.yul\":6332:6518   */\n  pop\n  pop\n  jump\t// out\n    /* \"#utility.yul\":6524:7067   */\ntag_46:\n    /* \"#utility.yul\":6625:6627   */\n  0x1f\n    /* \"#utility.yul\":6620:6623   */\n  dup3\n    /* \"#utility.yul\":6617:6628   */\n  gt\n    /* \"#utility.yul\":6614:7060   */\n  iszero\n  tag_133\n  jumpi\n    /* \"#utility.yul\":6659:6697   */\n  tag_134\n    /* \"#utility.yul\":6691:6696   */\n  dup2\n    /* \"#utility.yul\":6659:6697   */\n  tag_34\n  jump\t// in\ntag_134:\n    /* \"#utility.yul\":6743:6772   */\n  tag_135\n    /* \"#utility.yul\":6761:6771   */\n  dup5\n    /* \"#utility.yul\":6743:6772   */\n  tag_35\n  jump\t// in\ntag_135:\n    /* \"#utility.yul\":6733:6741   */\n  dup2\n    /* \"#utility.yul\":6729:6773   */\n  add\n    /* \"#utility.yul\":6926:6928   */\n  0x20\n    /* \"#utility.yul\":6914:6924   */\n  dup6\n    /* \"#utility.yul\":6911:6929   */\n  lt\n    /* \"#utility.yul\":6908:6957   */\n  iszero\n  tag_136\n  jumpi\n    /* \"#utility.yul\":6947:6955   */\n  dup2\n    /* \"#utility.yul\":6932:6955   */\n  swap1\n  pop\n    /* \"#utility.yul\":6908:6957   */\ntag_136:\n    /* \"#utility.yul\":6970:7050   */\n  tag_137\n    /* \"#utility.yul\":7026:7048   */\n  tag_138\n    /* \"#utility.yul\":7044:7047   */\n  dup6\n    /* \"#utility.yul\":7026:7048   */\n  tag_35\n  jump\t// in\ntag_138:\n    /* \"#utility.yul\":7016:7024   */\n  dup4\n    /* \"#utility.yul\":7012:7049   */\n  add\n    /* \"#utility.yul\":6999:7010   */\n  dup3\n    /* \"#utility.yul\":6970:7050   */\n  tag_45\n  jump\t// in\ntag_137:\n    /* \"#utility.yul\":6629:7060   */\n  pop\n  pop\n    /* \"#utility.yul\":6614:7060   */\ntag_133:\n    /* \"#utility.yul\":6524:7067   */\n  pop\n  pop\n  pop\n  jump\t// out\n    /* \"#utility.yul\":7073:7190   */\ntag_47:\n    /* \"#utility.yul\":7127:7135   */\n  0x00\n    /* \"#utility.yul\":7177:7182   */\n  dup3\n    /* \"#utility.yul\":7171:7175   */\n  dup3\n    /* \"#utility.yul\":7167:7183   */\n  shr\n    /* \"#utility.yul\":7146:7183   */\n  swap1\n  pop\n    /* \"#utility.yul\":7073:7190   */\n  swap3\n  swap2\n  pop\n  pop\n  jump\t// out\n    /* \"#utility.yul\":7196:7365   */\ntag_48:\n    /* \"#utility.yul\":7240:7246   */\n  0x00\n    /* \"#utility.yul\":7273:7324   */\n  tag_141\n    /* \"#utility.yul\":7321:7322   */\n  0x00\n    /* \"#utility.yul\":7317:7323   */\n  not\n    /* \"#utility.yul\":7309:7314   */\n  dup5\n    /* \"#utility.yul\":7306:7307   */\n  0x08\n    /* \"#utility.yul\":7302:7315   */\n  mul\n    /* \"#utility.yul\":7273:7324   */\n  tag_47\n  jump\t// in\ntag_141:\n    /* \"#utility.yul\":7269:7325   */\n  not\n    /* \"#utility.yul\":7354:7358   */\n  dup1\n    /* \"#utility.yul\":7348:7352   */\n  dup4\n    /* \"#utility.yul\":7344:7359   */\n  and\n    /* \"#utility.yul\":7334:7359   */\n  swap2\n  pop\n    /* \"#utility.yul\":7247:7365   */\n  pop\n    /* \"#utility.yul\":7196:7365   */\n  swap3\n  swap2\n  pop\n  pop\n  jump\t// out\n    /* \"#utility.yul\":7370:7665   */\ntag_49:\n    /* \"#utility.yul\":7446:7450   */\n  0x00\n    /* \"#utility.yul\":7592:7621   */\n  tag_143\n    /* \"#utility.yul\":7617:7620   */\n  dup4\n    /* \"#utility.yul\":7611:7615   */\n  dup4\n    /* \"#utility.yul\":7592:7621   */\n  tag_48\n  jump\t// in\ntag_143:\n    /* \"#utility.yul\":7584:7621   */\n  swap2\n  pop\n    /* \"#utility.yul\":7654:7657   */\n  dup3\n    /* \"#utility.yul\":7651:7652   */\n  0x02\n    /* \"#utility.yul\":7647:7658   */\n  mul\n    /* \"#utility.yul\":7641:7645   */\n  dup3\n    /* \"#utility.yul\":7638:7659   */\n  or\n    /* \"#utility.yul\":7630:7659   */\n  swap1\n  pop\n    /* \"#utility.yul\":7370:7665   */\n  swap3\n  swap2\n  pop\n  pop\n  jump\t// out\n    /* \"#utility.yul\":7670:9065   */\ntag_7:\n    /* \"#utility.yul\":7787:7824   */\n  tag_145\n    /* \"#utility.yul\":7820:7823   */\n  dup3\n    /* \"#utility.yul\":7787:7824   */\n  tag_31\n  jump\t// in\ntag_145:\n    /* \"#utility.yul\":7889:7907   */\n  0xffffffffffffffff\n    /* \"#utility.yul\":7881:7887   */\n  dup2\n    /* \"#utility.yul\":7878:7908   */\n  gt\n    /* \"#utility.yul\":7875:7931   */\n  iszero\n  tag_146\n  jumpi\n    /* \"#utility.yul\":7911:7929   */\n  tag_147\n  tag_24\n  jump\t// in\ntag_147:\n    /* \"#utility.yul\":7875:7931   */\ntag_146:\n    /* \"#utility.yul\":7955:7993   */\n  tag_148\n    /* \"#utility.yul\":7987:7991   */\n  dup3\n    /* \"#utility.yul\":7981:7992   */\n  sload\n    /* \"#utility.yul\":7955:7993   */\n  tag_33\n  jump\t// in\ntag_148:\n    /* \"#utility.yul\":8040:8107   */\n  tag_149\n    /* \"#utility.yul\":8100:8106   */\n  dup3\n    /* \"#utility.yul\":8092:8098   */\n  dup3\n    /* \"#utility.yul\":8086:8090   */\n  dup6\n    /* \"#utility.yul\":8040:8107   */\n  tag_46\n  jump\t// in\ntag_149:\n    /* \"#utility.yul\":8134:8135   */\n  0x00\n    /* \"#utility.yul\":8158:8162   */\n  0x20\n    /* \"#utility.yul\":8145:8162   */\n  swap1\n  pop\n    /* \"#utility.yul\":8190:8192   */\n  0x1f\n    /* \"#utility.yul\":8182:8188   */\n  dup4\n    /* \"#utility.yul\":8179:8193   */\n  gt\n    /* \"#utility.yul\":8207:8208   */\n  0x01\n    /* \"#utility.yul\":8202:8820   */\n  dup2\n  eq\n  tag_151\n  jumpi\n    /* \"#utility.yul\":8864:8865   */\n  0x00\n    /* \"#utility.yul\":8881:8887   */\n  dup5\n    /* \"#utility.yul\":8878:8955   */\n  iszero\n  tag_152\n  jumpi\n    /* \"#utility.yul\":8930:8939   */\n  dup3\n    /* \"#utility.yul\":8925:8928   */\n  dup8\n    /* \"#utility.yul\":8921:8940   */\n  add\n    /* \"#utility.yul\":8915:8941   */\n  mload\n    /* \"#utility.yul\":8906:8941   */\n  swap1\n  pop\n    /* \"#utility.yul\":8878:8955   */\ntag_152:\n    /* \"#utility.yul\":8981:9048   */\n  tag_153\n    /* \"#utility.yul\":9041:9047   */\n  dup6\n    /* \"#utility.yul\":9034:9039   */\n  dup3\n    /* \"#utility.yul\":8981:9048   */\n  tag_49\n  jump\t// in\ntag_153:\n    /* \"#utility.yul\":8975:8979   */\n  dup7\n    /* \"#utility.yul\":8968:9049   */\n  sstore\n    /* \"#utility.yul\":8837:9059   */\n  pop\n    /* \"#utility.yul\":8172:9059   */\n  jump(tag_150)\n    /* \"#utility.yul\":8202:8820   */\ntag_151:\n    /* \"#utility.yul\":8254:8258   */\n  0x1f\n    /* \"#utility.yul\":8250:8259   */\n  not\n    /* \"#utility.yul\":8242:8248   */\n  dup5\n    /* \"#utility.yul\":8238:8260   */\n  and\n    /* \"#utility.yul\":8288:8325   */\n  tag_154\n    /* \"#utility.yul\":8320:8324   */\n  dup7\n    /* \"#utility.yul\":8288:8325   */\n  tag_34\n  jump\t// in\ntag_154:\n    /* \"#utility.yul\":8347:8348   */\n  0x00\n    /* \"#utility.yul\":8361:8569   */\ntag_155:\n    /* \"#utility.yul\":8375:8382   */\n  dup3\n    /* \"#utility.yul\":8372:8373   */\n  dup2\n    /* \"#utility.yul\":8369:8383   */\n  lt\n    /* \"#utility.yul\":8361:8569   */\n  iszero\n  tag_157\n  jumpi\n    /* \"#utility.yul\":8454:8463   */\n  dup5\n    /* \"#utility.yul\":8449:8452   */\n  dup10\n    /* \"#utility.yul\":8445:8464   */\n  add\n    /* \"#utility.yul\":8439:8465   */\n  mload\n    /* \"#utility.yul\":8431:8437   */\n  dup3\n    /* \"#utility.yul\":8424:8466   */\n  sstore\n    /* \"#utility.yul\":8505:8506   */\n  0x01\n    /* \"#utility.yul\":8497:8503   */\n  dup3\n    /* \"#utility.yul\":8493:8507   */\n  add\n    /* \"#utility.yul\":8483:8507   */\n  swap2\n  pop\n    /* \"#utility.yul\":8552:8554   */\n  0x20\n    /* \"#utility.yul\":8541:8550   */\n  dup6\n    /* \"#utility.yul\":8537:8555   */\n  add\n    /* \"#utility.yul\":8524:8555   */\n  swap5\n  pop\n    /* \"#utility.yul\":8398:8402   */\n  0x20\n    /* \"#utility.yul\":8395:8396   */\n  dup2\n    /* \"#utility.yul\":8391:8403   */\n  add\n    /* \"#utility.yul\":8386:8403   */\n  swap1\n  pop\n    /* \"#utility.yul\":8361:8569   */\n  jump(tag_155)\ntag_157:\n    /* \"#utility.yul\":8597:8603   */\n  dup7\n    /* \"#utility.yul\":8588:8595   */\n  dup4\n    /* \"#utility.yul\":8585:8604   */\n  lt\n    /* \"#utility.yul\":8582:8761   */\n  iszero\n  tag_158\n  jumpi\n    /* \"#utility.yul\":8655:8664   */\n  dup5\n    /* \"#utility.yul\":8650:8653   */\n  dup10\n    /* \"#utility.yul\":8646:8665   */\n  add\n    /* \"#utility.yul\":8640:8666   */\n  mload\n    /* \"#utility.yul\":8698:8746   */\n  tag_159\n    /* \"#utility.yul\":8740:8744   */\n  0x1f\n    /* \"#utility.yul\":8732:8738   */\n  dup10\n    /* \"#utility.yul\":8728:8745   */\n  and\n    /* \"#utility.yul\":8717:8726   */\n  dup3\n    /* \"#utility.yul\":8698:8746   */\n  tag_48\n  jump\t// in\ntag_159:\n    /* \"#utility.yul\":8690:8696   */\n  dup4\n    /* \"#utility.yul\":8683:8747   */\n  sstore\n    /* \"#utility.yul\":8605:8761   */\n  pop\n    /* \"#utility.yul\":8582:8761   */\ntag_158:\n    /* \"#utility.yul\":8807:8808   */\n  0x01\n    /* \"#utility.yul\":8803:8804   */\n  0x02\n    /* \"#utility.yul\":8795:8801   */\n  dup9\n    /* \"#utility.yul\":8791:8805   */\n  mul\n    /* \"#utility.yul\":8787:8809   */\n  add\n    /* \"#utility.yul\":8781:8785   */\n  dup9\n    /* \"#utility.yul\":8774:8810   */\n  sstore\n    /* \"#utility.yul\":8209:8820   */\n  pop\n  pop\n  pop\n    /* \"#utility.yul\":8172:9059   */\ntag_150:\n  pop\n    /* \"#utility.yul\":7762:9065   */\n  pop\n  pop\n  pop\n    /* \"#utility.yul\":7670:9065   */\n  pop\n  pop\n  jump\t// out\n    /* \"#utility.yul\":9071:9189   */\ntag_50:\n    /* \"#utility.yul\":9158:9182   */\n  tag_161\n    /* \"#utility.yul\":9176:9181   */\n  dup2\n    /* \"#utility.yul\":9158:9182   */\n  tag_18\n  jump\t// in\ntag_161:\n    /* \"#utility.yul\":9153:9156   */\n  dup3\n    /* \"#utility.yul\":9146:9183   */\n  mstore\n    /* \"#utility.yul\":9071:9189   */\n  pop\n  pop\n  jump\t// out\n    /* \"#utility.yul\":9195:9527   */\ntag_11:\n    /* \"#utility.yul\":9316:9320   */\n  0x00\n    /* \"#utility.yul\":9354:9356   */\n  0x40\n    /* \"#utility.yul\":9343:9352   */\n  dup3\n    /* \"#utility.yul\":9339:9357   */\n  add\n    /* \"#utility.yul\":9331:9357   */\n  swap1\n  pop\n    /* \"#utility.yul\":9367:9438   */\n  tag_163\n    /* \"#utility.yul\":9435:9436   */\n  0x00\n    /* \"#utility.yul\":9424:9433   */\n  dup4\n    /* \"#utility.yul\":9420:9437   */\n  add\n    /* \"#utility.yul\":9411:9417   */\n  dup6\n    /* \"#utility.yul\":9367:9438   */\n  tag_50\n  jump\t// in\ntag_163:\n    /* \"#utility.yul\":9448:9520   */\n  tag_164\n    /* \"#utility.yul\":9516:9518   */\n  0x20\n    /* \"#utility.yul\":9505:9514   */\n  dup4\n    /* \"#utility.yul\":9501:9519   */\n  add\n    /* \"#utility.yul\":9492:9498   */\n  dup5\n    /* \"#utility.yul\":9448:9520   */\n  tag_50\n  jump\t// in\ntag_164:\n    /* \"#utility.yul\":9195:9527   */\n  swap4\n  swap3\n  pop\n  pop\n  pop\n  jump\t// out\n    /* \"MemberPool.sol\":94:3680  contract MemberPool {... */\ntag_13:\n  dataSize(sub_0)\n  dup1\n  dataOffset(sub_0)\n  0x00\n  codecopy\n  0x00\n  return\nstop\n\nsub_0: assembly {\n        /* \"MemberPool.sol\":94:3680  contract MemberPool {... */\n      mstore(0x40, 0x80)\n      callvalue\n      dup1\n      iszero\n      tag_1\n      jumpi\n      0x00\n      dup1\n      revert\n    tag_1:\n      pop\n      jumpi(tag_2, lt(calldatasize, 0x04))\n      shr(0xe0, calldataload(0x00))\n      dup1\n      0x997072f7\n      gt\n      tag_25\n      jumpi\n      dup1\n      0xa230c524\n      gt\n      tag_26\n      jumpi\n      dup1\n      0xa230c524\n      eq\n      tag_19\n      jumpi\n      dup1\n      0xaf1fca09\n      eq\n      tag_20\n      jumpi\n      dup1\n      0xb3253f13\n      eq\n      tag_21\n      jumpi\n      dup1\n      0xca505a5b\n      eq\n      tag_22\n      jumpi\n      dup1\n      0xcef025ac\n      eq\n      tag_23\n      jumpi\n      dup1\n      0xe1889876\n      eq\n      tag_24\n      jumpi\n      jump(tag_2)\n    tag_26:\n      dup1\n      0x997072f7\n      eq\n      tag_14\n      jumpi\n      dup1\n      0x9a4d383e\n      eq\n      tag_15\n      jumpi\n      dup1\n      0x9c0ab105\n      eq\n      tag_16\n      jumpi\n      dup1\n      0x9e5f59f9\n      eq\n      tag_17\n      jumpi\n      dup1\n      0x9eab5253\n      eq\n      tag_18\n      jumpi\n      jump(tag_2)\n    tag_25:\n      dup1\n      0x1ee503fd\n      gt\n      tag_27\n      jumpi\n      dup1\n      0x1ee503fd\n      eq\n      tag_8\n      jumpi\n      dup1\n      0x25ec527c\n      eq\n      tag_9\n      jumpi\n      dup1\n      0x273f868e\n      eq\n      tag_10\n      jumpi\n      dup1\n      0x455772d2\n      eq\n      tag_11\n      jumpi\n      dup1\n      0x5daf08ca\n      eq\n      tag_12\n      jumpi\n      dup1\n      0x70586013\n      eq\n      tag_13\n      jumpi\n      jump(tag_2)\n    tag_27:\n      dup1\n      0x02d05d3f\n      eq\n      tag_3\n      jumpi\n      dup1\n      0x06fdde03\n      eq\n      tag_4\n      jumpi\n      dup1\n      0x107046bd\n      eq\n      tag_5\n      jumpi\n      dup1\n      0x146b551d\n      eq\n      tag_6\n      jumpi\n      dup1\n      0x15866836\n      eq\n      tag_7\n      jumpi\n    tag_2:\n      0x00\n      dup1\n      revert\n        /* \"MemberPool.sol\":776:798  address public creator */\n    tag_3:\n      tag_28\n      tag_29\n      jump\t// in\n    tag_28:\n      mload(0x40)\n      tag_30\n      swap2\n      swap1\n      tag_31\n      jump\t// in\n    tag_30:\n      mload(0x40)\n      dup1\n      swap2\n      sub\n      swap1\n      return\n        /* \"MemberPool.sol\":396:414  string public name */\n    tag_4:\n      tag_32\n      tag_33\n      jump\t// in\n    tag_32:\n      mload(0x40)\n      tag_34\n      swap2\n      swap1\n      tag_35\n      jump\t// in\n    tag_34:\n      mload(0x40)\n      dup1\n      swap2\n      sub\n      swap1\n      return\n        /* \"MemberPool.sol\":568:593  address[] public projects */\n    tag_5:\n      tag_36\n      0x04\n      dup1\n      calldatasize\n      sub\n      dup2\n      add\n      swap1\n      tag_37\n      swap2\n      swap1\n      tag_38\n      jump\t// in\n    tag_37:\n      tag_39\n      jump\t// in\n    tag_36:\n      mload(0x40)\n      tag_40\n      swap2\n      swap1\n      tag_31\n      jump\t// in\n    tag_40:\n      mload(0x40)\n      dup1\n      swap2\n      sub\n      swap1\n      return\n        /* \"MemberPool.sol\":1389:1457  function getMemberRep(address member) public view returns (int32) {} */\n    tag_6:\n      tag_41\n      0x04\n      dup1\n      calldatasize\n      sub\n      dup2\n      add\n      swap1\n      tag_42\n      swap2\n      swap1\n      tag_43\n      jump\t// in\n    tag_42:\n      tag_44\n      jump\t// in\n    tag_41:\n      mload(0x40)\n      tag_45\n      swap2\n      swap1\n      tag_46\n      jump\t// in\n    tag_45:\n      mload(0x40)\n      dup1\n      swap2\n      sub\n      swap1\n      return\n        /* \"MemberPool.sol\":2232:2353  function highlightReport(address member, string calldata comment)... */\n    tag_7:\n      tag_47\n      0x04\n      dup1\n      calldatasize\n      sub\n      dup2\n      add\n      swap1\n      tag_48\n      swap2\n      swap1\n      tag_49\n      jump\t// in\n    tag_48:\n      tag_50\n      jump\t// in\n    tag_47:\n      stop\n        /* \"MemberPool.sol\":2361:2934  function admitApplicant(address applicant) public memberOnly(msg.sender) {... */\n    tag_8:\n      tag_51\n      0x04\n      dup1\n      calldatasize\n      sub\n      dup2\n      add\n      swap1\n      tag_52\n      swap2\n      swap1\n      tag_43\n      jump\t// in\n    tag_52:\n      tag_53\n      jump\t// in\n    tag_51:\n      stop\n        /* \"MemberPool.sol\":517:561  mapping(address => bool) public memberActive */\n    tag_9:\n      tag_54\n      0x04\n      dup1\n      calldatasize\n      sub\n      dup2\n      add\n      swap1\n      tag_55\n      swap2\n      swap1\n      tag_43\n      jump\t// in\n    tag_55:\n      tag_56\n      jump\t// in\n    tag_54:\n      mload(0x40)\n      tag_57\n      swap2\n      swap1\n      tag_58\n      jump\t// in\n    tag_57:\n      mload(0x40)\n      dup1\n      swap2\n      sub\n      swap1\n      return\n        /* \"MemberPool.sol\":2942:3324  function rejectApplicant(address applicant) public memberOnly(msg.sender) {... */\n    tag_10:\n      tag_59\n      0x04\n      dup1\n      calldatasize\n      sub\n      dup2\n      add\n      swap1\n      tag_60\n      swap2\n      swap1\n      tag_43\n      jump\t// in\n    tag_60:\n      tag_61\n      jump\t// in\n    tag_59:\n      stop\n        /* \"MemberPool.sol\":3436:3677  function getApplicants()... */\n    tag_11:\n      tag_62\n      tag_63\n      jump\t// in\n    tag_62:\n      mload(0x40)\n      tag_64\n      swap2\n      swap1\n      tag_65\n      jump\t// in\n    tag_64:\n      mload(0x40)\n      dup1\n      swap2\n      sub\n      swap1\n      return\n        /* \"MemberPool.sol\":486:510  address[] public members */\n    tag_12:\n      tag_66\n      0x04\n      dup1\n      calldatasize\n      sub\n      dup2\n      add\n      swap1\n      tag_67\n      swap2\n      swap1\n      tag_38\n      jump\t// in\n    tag_67:\n      tag_68\n      jump\t// in\n    tag_66:\n      mload(0x40)\n      tag_69\n      swap2\n      swap1\n      tag_31\n      jump\t// in\n    tag_69:\n      mload(0x40)\n      dup1\n      swap2\n      sub\n      swap1\n      return\n        /* \"MemberPool.sol\":1869:1994  function reportMember(address member, string calldata report)... */\n    tag_13:\n      tag_70\n      0x04\n      dup1\n      calldatasize\n      sub\n      dup2\n      add\n      swap1\n      tag_71\n      swap2\n      swap1\n      tag_49\n      jump\t// in\n    tag_71:\n      tag_72\n      jump\t// in\n    tag_70:\n      mload(0x40)\n      tag_73\n      swap2\n      swap1\n      tag_74\n      jump\t// in\n    tag_73:\n      mload(0x40)\n      dup1\n      swap2\n      sub\n      swap1\n      return\n        /* \"MemberPool.sol\":3332:3428  function getMemberCount() public view returns (uint256) {... */\n    tag_14:\n      tag_75\n      tag_76\n      jump\t// in\n    tag_75:\n      mload(0x40)\n      tag_77\n      swap2\n      swap1\n      tag_78\n      jump\t// in\n    tag_77:\n      mload(0x40)\n      dup1\n      swap2\n      sub\n      swap1\n      return\n        /* \"MemberPool.sol\":1572:1861  function increaseMemberRep(address member) public {... */\n    tag_15:\n      tag_79\n      0x04\n      dup1\n      calldatasize\n      sub\n      dup2\n      add\n      swap1\n      tag_80\n      swap2\n      swap1\n      tag_43\n      jump\t// in\n    tag_80:\n      tag_81\n      jump\t// in\n    tag_79:\n      stop\n        /* \"MemberPool.sol\":454:479  string public longSummary */\n    tag_16:\n      tag_82\n      tag_83\n      jump\t// in\n    tag_82:\n      mload(0x40)\n      tag_84\n      swap2\n      swap1\n      tag_35\n      jump\t// in\n    tag_84:\n      mload(0x40)\n      dup1\n      swap2\n      sub\n      swap1\n      return\n        /* \"MemberPool.sol\":2002:2116  function getMemberReports(address member)... */\n    tag_17:\n      tag_85\n      0x04\n      dup1\n      calldatasize\n      sub\n      dup2\n      add\n      swap1\n      tag_86\n      swap2\n      swap1\n      tag_43\n      jump\t// in\n    tag_86:\n      tag_87\n      jump\t// in\n    tag_85:\n      mload(0x40)\n      tag_88\n      swap2\n      swap1\n      tag_89\n      jump\t// in\n    tag_88:\n      mload(0x40)\n      dup1\n      swap2\n      sub\n      swap1\n      return\n        /* \"MemberPool.sol\":1254:1381  function getMembers()... */\n    tag_18:\n      tag_90\n      tag_91\n      jump\t// in\n    tag_90:\n      mload(0x40)\n      tag_92\n      swap2\n      swap1\n      tag_65\n      jump\t// in\n    tag_92:\n      mload(0x40)\n      dup1\n      swap2\n      sub\n      swap1\n      return\n        /* \"MemberPool.sol\":1465:1564  function isMember(address id) public view returns (bool) {... */\n    tag_19:\n      tag_93\n      0x04\n      dup1\n      calldatasize\n      sub\n      dup2\n      add\n      swap1\n      tag_94\n      swap2\n      swap1\n      tag_43\n      jump\t// in\n    tag_94:\n      tag_95\n      jump\t// in\n    tag_93:\n      mload(0x40)\n      tag_96\n      swap2\n      swap1\n      tag_58\n      jump\t// in\n    tag_96:\n      mload(0x40)\n      dup1\n      swap2\n      sub\n      swap1\n      return\n        /* \"MemberPool.sol\":734:769  address public applicantPoolAddress */\n    tag_20:\n      tag_97\n      tag_98\n      jump\t// in\n    tag_97:\n      mload(0x40)\n      tag_99\n      swap2\n      swap1\n      tag_31\n      jump\t// in\n    tag_99:\n      mload(0x40)\n      dup1\n      swap2\n      sub\n      swap1\n      return\n        /* \"MemberPool.sol\":681:727  mapping(address => int256) public memberPoints */\n    tag_21:\n      tag_100\n      0x04\n      dup1\n      calldatasize\n      sub\n      dup2\n      add\n      swap1\n      tag_101\n      swap2\n      swap1\n      tag_43\n      jump\t// in\n    tag_101:\n      tag_102\n      jump\t// in\n    tag_100:\n      mload(0x40)\n      tag_103\n      swap2\n      swap1\n      tag_104\n      jump\t// in\n    tag_103:\n      mload(0x40)\n      dup1\n      swap2\n      sub\n      swap1\n      return\n        /* \"MemberPool.sol\":421:447  string public shortSummary */\n    tag_22:\n      tag_105\n      tag_106\n      jump\t// in\n    tag_105:\n      mload(0x40)\n      tag_107\n      swap2\n      swap1\n      tag_35\n      jump\t// in\n    tag_107:\n      mload(0x40)\n      dup1\n      swap2\n      sub\n      swap1\n      return\n        /* \"MemberPool.sol\":2124:2224  function dismissMemberReport(address member)... */\n    tag_23:\n      tag_108\n      0x04\n      dup1\n      calldatasize\n      sub\n      dup2\n      add\n      swap1\n      tag_109\n      swap2\n      swap1\n      tag_43\n      jump\t// in\n    tag_109:\n      tag_110\n      jump\t// in\n    tag_108:\n      stop\n        /* \"MemberPool.sol\":625:674  mapping(address => address) public userToMemberUp */\n    tag_24:\n      tag_111\n      0x04\n      dup1\n      calldatasize\n      sub\n      dup2\n      add\n      swap1\n      tag_112\n      swap2\n      swap1\n      tag_43\n      jump\t// in\n    tag_112:\n      tag_113\n      jump\t// in\n    tag_111:\n      mload(0x40)\n      tag_114\n      swap2\n      swap1\n      tag_31\n      jump\t// in\n    tag_114:\n      mload(0x40)\n      dup1\n      swap2\n      sub\n      swap1\n      return\n        /* \"MemberPool.sol\":776:798  address public creator */\n    tag_29:\n      0x09\n      0x00\n      swap1\n      sload\n      swap1\n      0x0100\n      exp\n      swap1\n      div\n      0xffffffffffffffffffffffffffffffffffffffff\n      and\n      dup2\n      jump\t// out\n        /* \"MemberPool.sol\":396:414  string public name */\n    tag_33:\n      0x00\n      dup1\n      sload\n      tag_115\n      swap1\n      tag_116\n      jump\t// in\n    tag_115:\n      dup1\n      0x1f\n      add\n      0x20\n      dup1\n      swap2\n      div\n      mul\n      0x20\n      add\n      mload(0x40)\n      swap1\n      dup2\n      add\n      0x40\n      mstore\n      dup1\n      swap3\n      swap2\n      swap1\n      dup2\n      dup2\n      mstore\n      0x20\n      add\n      dup3\n      dup1\n      sload\n      tag_117\n      swap1\n      tag_116\n      jump\t// in\n    tag_117:\n      dup1\n      iszero\n      tag_118\n      jumpi\n      dup1\n      0x1f\n      lt\n      tag_119\n      jumpi\n      0x0100\n      dup1\n      dup4\n      sload\n      div\n      mul\n      dup4\n      mstore\n      swap2\n      0x20\n      add\n      swap2\n      jump(tag_118)\n    tag_119:\n      dup3\n      add\n      swap2\n      swap1\n      0x00\n      mstore\n      keccak256(0x00, 0x20)\n      swap1\n    tag_120:\n      dup2\n      sload\n      dup2\n      mstore\n      swap1\n      0x01\n      add\n      swap1\n      0x20\n      add\n      dup1\n      dup4\n      gt\n      tag_120\n      jumpi\n      dup3\n      swap1\n      sub\n      0x1f\n      and\n      dup3\n      add\n      swap2\n    tag_118:\n      pop\n      pop\n      pop\n      pop\n      pop\n      dup2\n      jump\t// out\n        /* \"MemberPool.sol\":568:593  address[] public projects */\n    tag_39:\n      0x05\n      dup2\n      dup2\n      sload\n      dup2\n      lt\n      tag_121\n      jumpi\n      0x00\n      dup1\n      revert\n    tag_121:\n      swap1\n      0x00\n      mstore\n      keccak256(0x00, 0x20)\n      add\n      0x00\n      swap2\n      pop\n      sload\n      swap1\n      0x0100\n      exp\n      swap1\n      div\n      0xffffffffffffffffffffffffffffffffffffffff\n      and\n      dup2\n      jump\t// out\n        /* \"MemberPool.sol\":1389:1457  function getMemberRep(address member) public view returns (int32) {} */\n    tag_44:\n        /* \"MemberPool.sol\":1448:1453  int32 */\n      0x00\n        /* \"MemberPool.sol\":1389:1457  function getMemberRep(address member) public view returns (int32) {} */\n      swap2\n      swap1\n      pop\n      jump\t// out\n        /* \"MemberPool.sol\":2232:2353  function highlightReport(address member, string calldata comment)... */\n    tag_50:\n        /* \"MemberPool.sol\":2334:2344  msg.sender */\n      caller\n        /* \"MemberPool.sol\":1177:1189  memberActive */\n      0x04\n        /* \"MemberPool.sol\":1177:1197  memberActive[sender] */\n      0x00\n        /* \"MemberPool.sol\":1190:1196  sender */\n      dup3\n        /* \"MemberPool.sol\":1177:1197  memberActive[sender] */\n      0xffffffffffffffffffffffffffffffffffffffff\n      and\n      0xffffffffffffffffffffffffffffffffffffffff\n      and\n      dup2\n      mstore\n      0x20\n      add\n      swap1\n      dup2\n      mstore\n      0x20\n      add\n      0x00\n      keccak256\n      0x00\n      swap1\n      sload\n      swap1\n      0x0100\n      exp\n      swap1\n      div\n      0xff\n      and\n        /* \"MemberPool.sol\":1169:1226  require(memberActive[sender], \"Required to be a memeber\") */\n      tag_125\n      jumpi\n      mload(0x40)\n      0x08c379a000000000000000000000000000000000000000000000000000000000\n      dup2\n      mstore\n      0x04\n      add\n      tag_126\n      swap1\n      tag_127\n      jump\t// in\n    tag_126:\n      mload(0x40)\n      dup1\n      swap2\n      sub\n      swap1\n      revert\n    tag_125:\n        /* \"MemberPool.sol\":2232:2353  function highlightReport(address member, string calldata comment)... */\n      pop\n      pop\n      pop\n      pop\n      jump\t// out\n        /* \"MemberPool.sol\":2361:2934  function admitApplicant(address applicant) public memberOnly(msg.sender) {... */\n    tag_53:\n        /* \"MemberPool.sol\":2422:2432  msg.sender */\n      caller\n        /* \"MemberPool.sol\":1177:1189  memberActive */\n      0x04\n        /* \"MemberPool.sol\":1177:1197  memberActive[sender] */\n      0x00\n        /* \"MemberPool.sol\":1190:1196  sender */\n      dup3\n        /* \"MemberPool.sol\":1177:1197  memberActive[sender] */\n      0xffffffffffffffffffffffffffffffffffffffff\n      and\n      0xffffffffffffffffffffffffffffffffffffffff\n      and\n      dup2\n      mstore\n      0x20\n      add\n      swap1\n      dup2\n      mstore\n      0x20\n      add\n      0x00\n      keccak256\n      0x00\n      swap1\n      sload\n      swap1\n      0x0100\n      exp\n      swap1\n      div\n      0xff\n      and\n        /* \"MemberPool.sol\":1169:1226  require(memberActive[sender], \"Required to be a memeber\") */\n      tag_130\n      jumpi\n      mload(0x40)\n      0x08c379a000000000000000000000000000000000000000000000000000000000\n      dup2\n      mstore\n      0x04\n      add\n      tag_131\n      swap1\n      tag_127\n      jump\t// in\n    tag_131:\n      mload(0x40)\n      dup1\n      swap2\n      sub\n      swap1\n      revert\n    tag_130:\n        /* \"MemberPool.sol\":2474:2475  0 */\n      0x00\n        /* \"MemberPool.sol\":2453:2476  applicant != address(0) */\n      0xffffffffffffffffffffffffffffffffffffffff\n      and\n        /* \"MemberPool.sol\":2453:2462  applicant */\n      dup3\n        /* \"MemberPool.sol\":2453:2476  applicant != address(0) */\n      0xffffffffffffffffffffffffffffffffffffffff\n      and\n      sub\n        /* \"MemberPool.sol\":2445:2481  require(applicant != address(0), \"\") */\n      tag_133\n      jumpi\n      mload(0x40)\n      0x08c379a000000000000000000000000000000000000000000000000000000000\n      dup2\n      mstore\n      0x04\n      add\n      tag_134\n      swap1\n      tag_135\n      jump\t// in\n    tag_134:\n      mload(0x40)\n      dup1\n      swap2\n      sub\n      swap1\n      revert\n    tag_133:\n        /* \"MemberPool.sol\":2492:2510  ApplicantPool pool */\n      0x00\n        /* \"MemberPool.sol\":2527:2547  applicantPoolAddress */\n      0x08\n      0x00\n      swap1\n      sload\n      swap1\n      0x0100\n      exp\n      swap1\n      div\n      0xffffffffffffffffffffffffffffffffffffffff\n      and\n        /* \"MemberPool.sol\":2492:2548  ApplicantPool pool = ApplicantPool(applicantPoolAddress) */\n      swap1\n      pop\n        /* \"MemberPool.sol\":2561:2580  uint256 memberCount */\n      0x00\n        /* \"MemberPool.sol\":2583:2599  getMemberCount() */\n      tag_136\n        /* \"MemberPool.sol\":2583:2597  getMemberCount */\n      tag_76\n        /* \"MemberPool.sol\":2583:2599  getMemberCount() */\n      jump\t// in\n    tag_136:\n        /* \"MemberPool.sol\":2561:2599  uint256 memberCount = getMemberCount() */\n      swap1\n      pop\n        /* \"MemberPool.sol\":2610:2627  uint256 voteCount */\n      0x00\n        /* \"MemberPool.sol\":2630:2634  pool */\n      dup3\n        /* \"MemberPool.sol\":2630:2656  pool.getApplicantVoteCount */\n      0xffffffffffffffffffffffffffffffffffffffff\n      and\n      0xd9a87535\n        /* \"MemberPool.sol\":2657:2666  applicant */\n      dup7\n        /* \"MemberPool.sol\":2630:2667  pool.getApplicantVoteCount(applicant) */\n      mload(0x40)\n      dup3\n      0xffffffff\n      and\n      0xe0\n      shl\n      dup2\n      mstore\n      0x04\n      add\n      tag_137\n      swap2\n      swap1\n      tag_31\n      jump\t// in\n    tag_137:\n      0x20\n      mload(0x40)\n      dup1\n      dup4\n      sub\n      dup2\n      dup7\n      gas\n      staticcall\n      iszero\n      dup1\n      iszero\n      tag_139\n      jumpi\n      returndatasize\n      0x00\n      dup1\n      returndatacopy\n      revert(0x00, returndatasize)\n    tag_139:\n      pop\n      pop\n      pop\n      pop\n      mload(0x40)\n      returndatasize\n      not(0x1f)\n      0x1f\n      dup3\n      add\n      and\n      dup3\n      add\n      dup1\n      0x40\n      mstore\n      pop\n      dup2\n      add\n      swap1\n      tag_140\n      swap2\n      swap1\n      tag_141\n      jump\t// in\n    tag_140:\n        /* \"MemberPool.sol\":2610:2667  uint256 voteCount = pool.getApplicantVoteCount(applicant) */\n      swap1\n      pop\n        /* \"MemberPool.sol\":2739:2740  5 */\n      0x05\n        /* \"MemberPool.sol\":2732:2735  100 */\n      0x64\n        /* \"MemberPool.sol\":2717:2728  memberCount */\n      dup4\n        /* \"MemberPool.sol\":2705:2714  voteCount */\n      dup4\n        /* \"MemberPool.sol\":2705:2728  voteCount / memberCount */\n      tag_142\n      swap2\n      swap1\n      tag_143\n      jump\t// in\n    tag_142:\n        /* \"MemberPool.sol\":2704:2735  (voteCount / memberCount) * 100 */\n      tag_144\n      swap2\n      swap1\n      tag_145\n      jump\t// in\n    tag_144:\n        /* \"MemberPool.sol\":2703:2740  ((voteCount / memberCount) * 100) > 5 */\n      gt\n        /* \"MemberPool.sol\":2680:2804  require(... */\n      tag_146\n      jumpi\n      mload(0x40)\n      0x08c379a000000000000000000000000000000000000000000000000000000000\n      dup2\n      mstore\n      0x04\n      add\n      tag_147\n      swap1\n      tag_148\n      jump\t// in\n    tag_147:\n      mload(0x40)\n      dup1\n      swap2\n      sub\n      swap1\n      revert\n    tag_146:\n        /* \"MemberPool.sol\":2817:2821  pool */\n      dup3\n        /* \"MemberPool.sol\":2817:2838  pool.approveApplicant */\n      0xffffffffffffffffffffffffffffffffffffffff\n      and\n      0x1292a282\n        /* \"MemberPool.sol\":2839:2848  applicant */\n      dup7\n        /* \"MemberPool.sol\":2817:2849  pool.approveApplicant(applicant) */\n      mload(0x40)\n      dup3\n      0xffffffff\n      and\n      0xe0\n      shl\n      dup2\n      mstore\n      0x04\n      add\n      tag_149\n      swap2\n      swap1\n      tag_31\n      jump\t// in\n    tag_149:\n      0x00\n      mload(0x40)\n      dup1\n      dup4\n      sub\n      dup2\n      0x00\n      dup8\n      dup1\n      extcodesize\n      iszero\n      dup1\n      iszero\n      tag_150\n      jumpi\n      0x00\n      dup1\n      revert\n    tag_150:\n      pop\n      gas\n      call\n      iszero\n      dup1\n      iszero\n      tag_152\n      jumpi\n      returndatasize\n      0x00\n      dup1\n      returndatacopy\n      revert(0x00, returndatasize)\n    tag_152:\n      pop\n      pop\n      pop\n      pop\n        /* \"MemberPool.sol\":2862:2869  members */\n      0x03\n        /* \"MemberPool.sol\":2875:2884  applicant */\n      dup6\n        /* \"MemberPool.sol\":2862:2885  members.push(applicant) */\n      swap1\n      dup1\n      0x01\n      dup2\n      sload\n      add\n      dup1\n      dup3\n      sstore\n      dup1\n      swap2\n      pop\n      pop\n      0x01\n      swap1\n      sub\n      swap1\n      0x00\n      mstore\n      keccak256(0x00, 0x20)\n      add\n      0x00\n      swap1\n      swap2\n      swap1\n      swap2\n      swap1\n      swap2\n      0x0100\n      exp\n      dup2\n      sload\n      dup2\n      0xffffffffffffffffffffffffffffffffffffffff\n      mul\n      not\n      and\n      swap1\n      dup4\n      0xffffffffffffffffffffffffffffffffffffffff\n      and\n      mul\n      or\n      swap1\n      sstore\n      pop\n        /* \"MemberPool.sol\":2922:2926  true */\n      0x01\n        /* \"MemberPool.sol\":2896:2908  memberActive */\n      0x04\n        /* \"MemberPool.sol\":2896:2919  memberActive[applicant] */\n      0x00\n        /* \"MemberPool.sol\":2909:2918  applicant */\n      dup8\n        /* \"MemberPool.sol\":2896:2919  memberActive[applicant] */\n      0xffffffffffffffffffffffffffffffffffffffff\n      and\n      0xffffffffffffffffffffffffffffffffffffffff\n      and\n      dup2\n      mstore\n      0x20\n      add\n      swap1\n      dup2\n      mstore\n      0x20\n      add\n      0x00\n      keccak256\n      0x00\n        /* \"MemberPool.sol\":2896:2926  memberActive[applicant] = true */\n      0x0100\n      exp\n      dup2\n      sload\n      dup2\n      0xff\n      mul\n      not\n      and\n      swap1\n      dup4\n      iszero\n      iszero\n      mul\n      or\n      swap1\n      sstore\n      pop\n        /* \"MemberPool.sol\":2434:2934  {... */\n      pop\n      pop\n      pop\n        /* \"MemberPool.sol\":2361:2934  function admitApplicant(address applicant) public memberOnly(msg.sender) {... */\n      pop\n      pop\n      jump\t// out\n        /* \"MemberPool.sol\":517:561  mapping(address => bool) public memberActive */\n    tag_56:\n      mstore(0x20, 0x04)\n      dup1\n      0x00\n      mstore\n      keccak256(0x00, 0x40)\n      0x00\n      swap2\n      pop\n      sload\n      swap1\n      0x0100\n      exp\n      swap1\n      div\n      0xff\n      and\n      dup2\n      jump\t// out\n        /* \"MemberPool.sol\":2942:3324  function rejectApplicant(address applicant) public memberOnly(msg.sender) {... */\n    tag_61:\n        /* \"MemberPool.sol\":3004:3014  msg.sender */\n      caller\n        /* \"MemberPool.sol\":1177:1189  memberActive */\n      0x04\n        /* \"MemberPool.sol\":1177:1197  memberActive[sender] */\n      0x00\n        /* \"MemberPool.sol\":1190:1196  sender */\n      dup3\n        /* \"MemberPool.sol\":1177:1197  memberActive[sender] */\n      0xffffffffffffffffffffffffffffffffffffffff\n      and\n      0xffffffffffffffffffffffffffffffffffffffff\n      and\n      dup2\n      mstore\n      0x20\n      add\n      swap1\n      dup2\n      mstore\n      0x20\n      add\n      0x00\n      keccak256\n      0x00\n      swap1\n      sload\n      swap1\n      0x0100\n      exp\n      swap1\n      div\n      0xff\n      and\n        /* \"MemberPool.sol\":1169:1226  require(memberActive[sender], \"Required to be a memeber\") */\n      tag_155\n      jumpi\n      mload(0x40)\n      0x08c379a000000000000000000000000000000000000000000000000000000000\n      dup2\n      mstore\n      0x04\n      add\n      tag_156\n      swap1\n      tag_127\n      jump\t// in\n    tag_156:\n      mload(0x40)\n      dup1\n      swap2\n      sub\n      swap1\n      revert\n    tag_155:\n        /* \"MemberPool.sol\":3056:3057  0 */\n      0x00\n        /* \"MemberPool.sol\":3035:3058  applicant != address(0) */\n      0xffffffffffffffffffffffffffffffffffffffff\n      and\n        /* \"MemberPool.sol\":3035:3044  applicant */\n      dup3\n        /* \"MemberPool.sol\":3035:3058  applicant != address(0) */\n      0xffffffffffffffffffffffffffffffffffffffff\n      and\n      sub\n        /* \"MemberPool.sol\":3027:3063  require(applicant != address(0), \"\") */\n      tag_158\n      jumpi\n      mload(0x40)\n      0x08c379a000000000000000000000000000000000000000000000000000000000\n      dup2\n      mstore\n      0x04\n      add\n      tag_159\n      swap1\n      tag_135\n      jump\t// in\n    tag_159:\n      mload(0x40)\n      dup1\n      swap2\n      sub\n      swap1\n      revert\n    tag_158:\n        /* \"MemberPool.sol\":3074:3092  ApplicantPool pool */\n      0x00\n        /* \"MemberPool.sol\":3109:3129  applicantPoolAddress */\n      0x08\n      0x00\n      swap1\n      sload\n      swap1\n      0x0100\n      exp\n      swap1\n      div\n      0xffffffffffffffffffffffffffffffffffffffff\n      and\n        /* \"MemberPool.sol\":3074:3130  ApplicantPool pool = ApplicantPool(applicantPoolAddress) */\n      swap1\n      pop\n        /* \"MemberPool.sol\":3141:3160  uint256 voteEndTime */\n      0x00\n        /* \"MemberPool.sol\":3163:3167  pool */\n      dup2\n        /* \"MemberPool.sol\":3163:3191  pool.getApplicantVoteEndDate */\n      0xffffffffffffffffffffffffffffffffffffffff\n      and\n      0xb672bdcb\n        /* \"MemberPool.sol\":3192:3201  applicant */\n      dup6\n        /* \"MemberPool.sol\":3163:3202  pool.getApplicantVoteEndDate(applicant) */\n      mload(0x40)\n      dup3\n      0xffffffff\n      and\n      0xe0\n      shl\n      dup2\n      mstore\n      0x04\n      add\n      tag_160\n      swap2\n      swap1\n      tag_31\n      jump\t// in\n    tag_160:\n      0x20\n      mload(0x40)\n      dup1\n      dup4\n      sub\n      dup2\n      dup7\n      gas\n      staticcall\n      iszero\n      dup1\n      iszero\n      tag_162\n      jumpi\n      returndatasize\n      0x00\n      dup1\n      returndatacopy\n      revert(0x00, returndatasize)\n    tag_162:\n      pop\n      pop\n      pop\n      pop\n      mload(0x40)\n      returndatasize\n      not(0x1f)\n      0x1f\n      dup3\n      add\n      and\n      dup3\n      add\n      dup1\n      0x40\n      mstore\n      pop\n      dup2\n      add\n      swap1\n      tag_163\n      swap2\n      swap1\n      tag_141\n      jump\t// in\n    tag_163:\n        /* \"MemberPool.sol\":3141:3202  uint256 voteEndTime = pool.getApplicantVoteEndDate(applicant) */\n      swap1\n      pop\n        /* \"MemberPool.sol\":3235:3250  block.timestamp */\n      timestamp\n        /* \"MemberPool.sol\":3221:3232  voteEndTime */\n      dup2\n        /* \"MemberPool.sol\":3221:3250  voteEndTime > block.timestamp */\n      gt\n        /* \"MemberPool.sol\":3213:3274  require(voteEndTime > block.timestamp, \"To soon to end vote\") */\n      tag_164\n      jumpi\n      mload(0x40)\n      0x08c379a000000000000000000000000000000000000000000000000000000000\n      dup2\n      mstore\n      0x04\n      add\n      tag_165\n      swap1\n      tag_166\n      jump\t// in\n    tag_165:\n      mload(0x40)\n      dup1\n      swap2\n      sub\n      swap1\n      revert\n    tag_164:\n        /* \"MemberPool.sol\":3285:3289  pool */\n      dup2\n        /* \"MemberPool.sol\":3285:3305  pool.rejectApplicant */\n      0xffffffffffffffffffffffffffffffffffffffff\n      and\n      0x273f868e\n        /* \"MemberPool.sol\":3306:3315  applicant */\n      dup6\n        /* \"MemberPool.sol\":3285:3316  pool.rejectApplicant(applicant) */\n      mload(0x40)\n      dup3\n      0xffffffff\n      and\n      0xe0\n      shl\n      dup2\n      mstore\n      0x04\n      add\n      tag_167\n      swap2\n      swap1\n      tag_31\n      jump\t// in\n    tag_167:\n      0x00\n      mload(0x40)\n      dup1\n      dup4\n      sub\n      dup2\n      0x00\n      dup8\n      dup1\n      extcodesize\n      iszero\n      dup1\n      iszero\n      tag_168\n      jumpi\n      0x00\n      dup1\n      revert\n    tag_168:\n      pop\n      gas\n      call\n      iszero\n      dup1\n      iszero\n      tag_170\n      jumpi\n      returndatasize\n      0x00\n      dup1\n      returndatacopy\n      revert(0x00, returndatasize)\n    tag_170:\n      pop\n      pop\n      pop\n      pop\n        /* \"MemberPool.sol\":3016:3324  {... */\n      pop\n      pop\n        /* \"MemberPool.sol\":2942:3324  function rejectApplicant(address applicant) public memberOnly(msg.sender) {... */\n      pop\n      pop\n      jump\t// out\n        /* \"MemberPool.sol\":3436:3677  function getApplicants()... */\n    tag_63:\n        /* \"MemberPool.sol\":3541:3557  address[] memory */\n      0x60\n        /* \"MemberPool.sol\":3511:3521  msg.sender */\n      caller\n        /* \"MemberPool.sol\":1177:1189  memberActive */\n      0x04\n        /* \"MemberPool.sol\":1177:1197  memberActive[sender] */\n      0x00\n        /* \"MemberPool.sol\":1190:1196  sender */\n      dup3\n        /* \"MemberPool.sol\":1177:1197  memberActive[sender] */\n      0xffffffffffffffffffffffffffffffffffffffff\n      and\n      0xffffffffffffffffffffffffffffffffffffffff\n      and\n      dup2\n      mstore\n      0x20\n      add\n      swap1\n      dup2\n      mstore\n      0x20\n      add\n      0x00\n      keccak256\n      0x00\n      swap1\n      sload\n      swap1\n      0x0100\n      exp\n      swap1\n      div\n      0xff\n      and\n        /* \"MemberPool.sol\":1169:1226  require(memberActive[sender], \"Required to be a memeber\") */\n      tag_172\n      jumpi\n      mload(0x40)\n      0x08c379a000000000000000000000000000000000000000000000000000000000\n      dup2\n      mstore\n      0x04\n      add\n      tag_173\n      swap1\n      tag_127\n      jump\t// in\n    tag_173:\n      mload(0x40)\n      dup1\n      swap2\n      sub\n      swap1\n      revert\n    tag_172:\n        /* \"MemberPool.sol\":3575:3593  ApplicantPool pool */\n      0x00\n        /* \"MemberPool.sol\":3610:3630  applicantPoolAddress */\n      0x08\n      0x00\n      swap1\n      sload\n      swap1\n      0x0100\n      exp\n      swap1\n      div\n      0xffffffffffffffffffffffffffffffffffffffff\n      and\n        /* \"MemberPool.sol\":3575:3631  ApplicantPool pool = ApplicantPool(applicantPoolAddress) */\n      swap1\n      pop\n        /* \"MemberPool.sol\":3649:3653  pool */\n      dup1\n        /* \"MemberPool.sol\":3649:3667  pool.getApplicants */\n      0xffffffffffffffffffffffffffffffffffffffff\n      and\n      0x455772d2\n        /* \"MemberPool.sol\":3649:3669  pool.getApplicants() */\n      mload(0x40)\n      dup2\n      0xffffffff\n      and\n      0xe0\n      shl\n      dup2\n      mstore\n      0x04\n      add\n      0x00\n      mload(0x40)\n      dup1\n      dup4\n      sub\n      dup2\n      dup7\n      gas\n      staticcall\n      iszero\n      dup1\n      iszero\n      tag_176\n      jumpi\n      returndatasize\n      0x00\n      dup1\n      returndatacopy\n      revert(0x00, returndatasize)\n    tag_176:\n      pop\n      pop\n      pop\n      pop\n      mload(0x40)\n      returndatasize\n      0x00\n      dup3\n      returndatacopy\n      returndatasize\n      not(0x1f)\n      0x1f\n      dup3\n      add\n      and\n      dup3\n      add\n      dup1\n      0x40\n      mstore\n      pop\n      dup2\n      add\n      swap1\n      tag_177\n      swap2\n      swap1\n      tag_178\n      jump\t// in\n    tag_177:\n        /* \"MemberPool.sol\":3642:3669  return pool.getApplicants() */\n      swap3\n      pop\n      pop\n        /* \"MemberPool.sol\":3436:3677  function getApplicants()... */\n      pop\n      swap1\n      jump\t// out\n        /* \"MemberPool.sol\":486:510  address[] public members */\n    tag_68:\n      0x03\n      dup2\n      dup2\n      sload\n      dup2\n      lt\n      tag_179\n      jumpi\n      0x00\n      dup1\n      revert\n    tag_179:\n      swap1\n      0x00\n      mstore\n      keccak256(0x00, 0x20)\n      add\n      0x00\n      swap2\n      pop\n      sload\n      swap1\n      0x0100\n      exp\n      swap1\n      div\n      0xffffffffffffffffffffffffffffffffffffffff\n      and\n      dup2\n      jump\t// out\n        /* \"MemberPool.sol\":1869:1994  function reportMember(address member, string calldata report)... */\n    tag_72:\n        /* \"MemberPool.sol\":1979:1985  uint32 */\n      0x00\n        /* \"MemberPool.sol\":1869:1994  function reportMember(address member, string calldata report)... */\n      swap4\n      swap3\n      pop\n      pop\n      pop\n      jump\t// out\n        /* \"MemberPool.sol\":3332:3428  function getMemberCount() public view returns (uint256) {... */\n    tag_76:\n        /* \"MemberPool.sol\":3379:3386  uint256 */\n      0x00\n        /* \"MemberPool.sol\":3406:3413  members */\n      0x03\n        /* \"MemberPool.sol\":3406:3420  members.length */\n      dup1\n      sload\n      swap1\n      pop\n        /* \"MemberPool.sol\":3399:3420  return members.length */\n      swap1\n      pop\n        /* \"MemberPool.sol\":3332:3428  function getMemberCount() public view returns (uint256) {... */\n      swap1\n      jump\t// out\n        /* \"MemberPool.sol\":1572:1861  function increaseMemberRep(address member) public {... */\n    tag_81:\n        /* \"MemberPool.sol\":1633:1647  address caller */\n      0x00\n        /* \"MemberPool.sol\":1650:1664  userToMemberUp */\n      0x06\n        /* \"MemberPool.sol\":1650:1676  userToMemberUp[msg.sender] */\n      0x00\n        /* \"MemberPool.sol\":1665:1675  msg.sender */\n      caller\n        /* \"MemberPool.sol\":1650:1676  userToMemberUp[msg.sender] */\n      0xffffffffffffffffffffffffffffffffffffffff\n      and\n      0xffffffffffffffffffffffffffffffffffffffff\n      and\n      dup2\n      mstore\n      0x20\n      add\n      swap1\n      dup2\n      mstore\n      0x20\n      add\n      0x00\n      keccak256\n      0x00\n      swap1\n      sload\n      swap1\n      0x0100\n      exp\n      swap1\n      div\n      0xffffffffffffffffffffffffffffffffffffffff\n      and\n        /* \"MemberPool.sol\":1633:1676  address caller = userToMemberUp[msg.sender] */\n      swap1\n      pop\n        /* \"MemberPool.sol\":1705:1711  caller */\n      dup1\n        /* \"MemberPool.sol\":1695:1711  member != caller */\n      0xffffffffffffffffffffffffffffffffffffffff\n      and\n        /* \"MemberPool.sol\":1695:1701  member */\n      dup3\n        /* \"MemberPool.sol\":1695:1711  member != caller */\n      0xffffffffffffffffffffffffffffffffffffffff\n      and\n      sub\n        /* \"MemberPool.sol\":1687:1729  require(member != caller, \"Already voted\") */\n      tag_184\n      jumpi\n      mload(0x40)\n      0x08c379a000000000000000000000000000000000000000000000000000000000\n      dup2\n      mstore\n      0x04\n      add\n      tag_185\n      swap1\n      tag_186\n      jump\t// in\n    tag_185:\n      mload(0x40)\n      dup1\n      swap2\n      sub\n      swap1\n      revert\n    tag_184:\n        /* \"MemberPool.sol\":1764:1765  1 */\n      0x01\n        /* \"MemberPool.sol\":1740:1752  memberPoints */\n      0x07\n        /* \"MemberPool.sol\":1740:1760  memberPoints[member] */\n      0x00\n        /* \"MemberPool.sol\":1753:1759  member */\n      dup5\n        /* \"MemberPool.sol\":1740:1760  memberPoints[member] */\n      0xffffffffffffffffffffffffffffffffffffffff\n      and\n      0xffffffffffffffffffffffffffffffffffffffff\n      and\n      dup2\n      mstore\n      0x20\n      add\n      swap1\n      dup2\n      mstore\n      0x20\n      add\n      0x00\n      keccak256\n      0x00\n        /* \"MemberPool.sol\":1740:1765  memberPoints[member] += 1 */\n      dup3\n      dup3\n      sload\n      tag_187\n      swap2\n      swap1\n      tag_188\n      jump\t// in\n    tag_187:\n      swap3\n      pop\n      pop\n      dup2\n      swap1\n      sstore\n      pop\n        /* \"MemberPool.sol\":1805:1811  member */\n      dup2\n        /* \"MemberPool.sol\":1776:1790  userToMemberUp */\n      0x06\n        /* \"MemberPool.sol\":1776:1802  userToMemberUp[msg.sender] */\n      0x00\n        /* \"MemberPool.sol\":1791:1801  msg.sender */\n      caller\n        /* \"MemberPool.sol\":1776:1802  userToMemberUp[msg.sender] */\n      0xffffffffffffffffffffffffffffffffffffffff\n      and\n      0xffffffffffffffffffffffffffffffffffffffff\n      and\n      dup2\n      mstore\n      0x20\n      add\n      swap1\n      dup2\n      mstore\n      0x20\n      add\n      0x00\n      keccak256\n      0x00\n        /* \"MemberPool.sol\":1776:1811  userToMemberUp[msg.sender] = member */\n      0x0100\n      exp\n      dup2\n      sload\n      dup2\n      0xffffffffffffffffffffffffffffffffffffffff\n      mul\n      not\n      and\n      swap1\n      dup4\n      0xffffffffffffffffffffffffffffffffffffffff\n      and\n      mul\n      or\n      swap1\n      sstore\n      pop\n        /* \"MemberPool.sol\":1827:1853  MemberRewarded(msg.sender) */\n      0xe8ddfec65826b66ec8b03b89152bb70528fa2da92e9775cc99671b1fc7bcb0f4\n        /* \"MemberPool.sol\":1842:1852  msg.sender */\n      caller\n        /* \"MemberPool.sol\":1827:1853  MemberRewarded(msg.sender) */\n      mload(0x40)\n      tag_189\n      swap2\n      swap1\n      tag_31\n      jump\t// in\n    tag_189:\n      mload(0x40)\n      dup1\n      swap2\n      sub\n      swap1\n      log1\n        /* \"MemberPool.sol\":1622:1861  {... */\n      pop\n        /* \"MemberPool.sol\":1572:1861  function increaseMemberRep(address member) public {... */\n      pop\n      jump\t// out\n        /* \"MemberPool.sol\":454:479  string public longSummary */\n    tag_83:\n      0x02\n      dup1\n      sload\n      tag_190\n      swap1\n      tag_116\n      jump\t// in\n    tag_190:\n      dup1\n      0x1f\n      add\n      0x20\n      dup1\n      swap2\n      div\n      mul\n      0x20\n      add\n      mload(0x40)\n      swap1\n      dup2\n      add\n      0x40\n      mstore\n      dup1\n      swap3\n      swap2\n      swap1\n      dup2\n      dup2\n      mstore\n      0x20\n      add\n      dup3\n      dup1\n      sload\n      tag_191\n      swap1\n      tag_116\n      jump\t// in\n    tag_191:\n      dup1\n      iszero\n      tag_192\n      jumpi\n      dup1\n      0x1f\n      lt\n      tag_193\n      jumpi\n      0x0100\n      dup1\n      dup4\n      sload\n      div\n      mul\n      dup4\n      mstore\n      swap2\n      0x20\n      add\n      swap2\n      jump(tag_192)\n    tag_193:\n      dup3\n      add\n      swap2\n      swap1\n      0x00\n      mstore\n      keccak256(0x00, 0x20)\n      swap1\n    tag_194:\n      dup2\n      sload\n      dup2\n      mstore\n      swap1\n      0x01\n      add\n      swap1\n      0x20\n      add\n      dup1\n      dup4\n      gt\n      tag_194\n      jumpi\n      dup3\n      swap1\n      sub\n      0x1f\n      and\n      dup3\n      add\n      swap2\n    tag_192:\n      pop\n      pop\n      pop\n      pop\n      pop\n      dup2\n      jump\t// out\n        /* \"MemberPool.sol\":2002:2116  function getMemberReports(address member)... */\n    tag_87:\n        /* \"MemberPool.sol\":2092:2107  string[] memory */\n      0x60\n        /* \"MemberPool.sol\":2002:2116  function getMemberReports(address member)... */\n      swap2\n      swap1\n      pop\n      jump\t// out\n        /* \"MemberPool.sol\":1254:1381  function getMembers()... */\n    tag_91:\n        /* \"MemberPool.sol\":1356:1372  address[] memory */\n      0x60\n        /* \"MemberPool.sol\":1326:1336  msg.sender */\n      caller\n        /* \"MemberPool.sol\":1177:1189  memberActive */\n      0x04\n        /* \"MemberPool.sol\":1177:1197  memberActive[sender] */\n      0x00\n        /* \"MemberPool.sol\":1190:1196  sender */\n      dup3\n        /* \"MemberPool.sol\":1177:1197  memberActive[sender] */\n      0xffffffffffffffffffffffffffffffffffffffff\n      and\n      0xffffffffffffffffffffffffffffffffffffffff\n      and\n      dup2\n      mstore\n      0x20\n      add\n      swap1\n      dup2\n      mstore\n      0x20\n      add\n      0x00\n      keccak256\n      0x00\n      swap1\n      sload\n      swap1\n      0x0100\n      exp\n      swap1\n      div\n      0xff\n      and\n        /* \"MemberPool.sol\":1169:1226  require(memberActive[sender], \"Required to be a memeber\") */\n      tag_197\n      jumpi\n      mload(0x40)\n      0x08c379a000000000000000000000000000000000000000000000000000000000\n      dup2\n      mstore\n      0x04\n      add\n      tag_198\n      swap1\n      tag_127\n      jump\t// in\n    tag_198:\n      mload(0x40)\n      dup1\n      swap2\n      sub\n      swap1\n      revert\n    tag_197:\n        /* \"MemberPool.sol\":1254:1381  function getMembers()... */\n      pop\n      swap1\n      jump\t// out\n        /* \"MemberPool.sol\":1465:1564  function isMember(address id) public view returns (bool) {... */\n    tag_95:\n        /* \"MemberPool.sol\":1516:1520  bool */\n      0x00\n        /* \"MemberPool.sol\":1540:1552  memberActive */\n      0x04\n        /* \"MemberPool.sol\":1540:1556  memberActive[id] */\n      0x00\n        /* \"MemberPool.sol\":1553:1555  id */\n      dup4\n        /* \"MemberPool.sol\":1540:1556  memberActive[id] */\n      0xffffffffffffffffffffffffffffffffffffffff\n      and\n      0xffffffffffffffffffffffffffffffffffffffff\n      and\n      dup2\n      mstore\n      0x20\n      add\n      swap1\n      dup2\n      mstore\n      0x20\n      add\n      0x00\n      keccak256\n      0x00\n      swap1\n      sload\n      swap1\n      0x0100\n      exp\n      swap1\n      div\n      0xff\n      and\n        /* \"MemberPool.sol\":1533:1556  return memberActive[id] */\n      swap1\n      pop\n        /* \"MemberPool.sol\":1465:1564  function isMember(address id) public view returns (bool) {... */\n      swap2\n      swap1\n      pop\n      jump\t// out\n        /* \"MemberPool.sol\":734:769  address public applicantPoolAddress */\n    tag_98:\n      0x08\n      0x00\n      swap1\n      sload\n      swap1\n      0x0100\n      exp\n      swap1\n      div\n      0xffffffffffffffffffffffffffffffffffffffff\n      and\n      dup2\n      jump\t// out\n        /* \"MemberPool.sol\":681:727  mapping(address => int256) public memberPoints */\n    tag_102:\n      mstore(0x20, 0x07)\n      dup1\n      0x00\n      mstore\n      keccak256(0x00, 0x40)\n      0x00\n      swap2\n      pop\n      swap1\n      pop\n      sload\n      dup2\n      jump\t// out\n        /* \"MemberPool.sol\":421:447  string public shortSummary */\n    tag_106:\n      0x01\n      dup1\n      sload\n      tag_201\n      swap1\n      tag_116\n      jump\t// in\n    tag_201:\n      dup1\n      0x1f\n      add\n      0x20\n      dup1\n      swap2\n      div\n      mul\n      0x20\n      add\n      mload(0x40)\n      swap1\n      dup2\n      add\n      0x40\n      mstore\n      dup1\n      swap3\n      swap2\n      swap1\n      dup2\n      dup2\n      mstore\n      0x20\n      add\n      dup3\n      dup1\n      sload\n      tag_202\n      swap1\n      tag_116\n      jump\t// in\n    tag_202:\n      dup1\n      iszero\n      tag_203\n      jumpi\n      dup1\n      0x1f\n      lt\n      tag_204\n      jumpi\n      0x0100\n      dup1\n      dup4\n      sload\n      div\n      mul\n      dup4\n      mstore\n      swap2\n      0x20\n      add\n      swap2\n      jump(tag_203)\n    tag_204:\n      dup3\n      add\n      swap2\n      swap1\n      0x00\n      mstore\n      keccak256(0x00, 0x20)\n      swap1\n    tag_205:\n      dup2\n      sload\n      dup2\n      mstore\n      swap1\n      0x01\n      add\n      swap1\n      0x20\n      add\n      dup1\n      dup4\n      gt\n      tag_205\n      jumpi\n      dup3\n      swap1\n      sub\n      0x1f\n      and\n      dup3\n      add\n      swap2\n    tag_203:\n      pop\n      pop\n      pop\n      pop\n      pop\n      dup2\n      jump\t// out\n        /* \"MemberPool.sol\":2124:2224  function dismissMemberReport(address member)... */\n    tag_110:\n        /* \"MemberPool.sol\":2205:2215  msg.sender */\n      caller\n        /* \"MemberPool.sol\":1177:1189  memberActive */\n      0x04\n        /* \"MemberPool.sol\":1177:1197  memberActive[sender] */\n      0x00\n        /* \"MemberPool.sol\":1190:1196  sender */\n      dup3\n        /* \"MemberPool.sol\":1177:1197  memberActive[sender] */\n      0xffffffffffffffffffffffffffffffffffffffff\n      and\n      0xffffffffffffffffffffffffffffffffffffffff\n      and\n      dup2\n      mstore\n      0x20\n      add\n      swap1\n      dup2\n      mstore\n      0x20\n      add\n      0x00\n      keccak256\n      0x00\n      swap1\n      sload\n      swap1\n      0x0100\n      exp\n      swap1\n      div\n      0xff\n      and\n        /* \"MemberPool.sol\":1169:1226  require(memberActive[sender], \"Required to be a memeber\") */\n      tag_207\n      jumpi\n      mload(0x40)\n      0x08c379a000000000000000000000000000000000000000000000000000000000\n      dup2\n      mstore\n      0x04\n      add\n      tag_208\n      swap1\n      tag_127\n      jump\t// in\n    tag_208:\n      mload(0x40)\n      dup1\n      swap2\n      sub\n      swap1\n      revert\n    tag_207:\n        /* \"MemberPool.sol\":2124:2224  function dismissMemberReport(address member)... */\n      pop\n      pop\n      jump\t// out\n        /* \"MemberPool.sol\":625:674  mapping(address => address) public userToMemberUp */\n    tag_113:\n      mstore(0x20, 0x06)\n      dup1\n      0x00\n      mstore\n      keccak256(0x00, 0x40)\n      0x00\n      swap2\n      pop\n      sload\n      swap1\n      0x0100\n      exp\n      swap1\n      div\n      0xffffffffffffffffffffffffffffffffffffffff\n      and\n      dup2\n      jump\t// out\n        /* \"#utility.yul\":7:133   */\n    tag_210:\n        /* \"#utility.yul\":44:51   */\n      0x00\n        /* \"#utility.yul\":84:126   */\n      0xffffffffffffffffffffffffffffffffffffffff\n        /* \"#utility.yul\":77:82   */\n      dup3\n        /* \"#utility.yul\":73:127   */\n      and\n        /* \"#utility.yul\":62:127   */\n      swap1\n      pop\n        /* \"#utility.yul\":7:133   */\n      swap2\n      swap1\n      pop\n      jump\t// out\n        /* \"#utility.yul\":139:235   */\n    tag_211:\n        /* \"#utility.yul\":176:183   */\n      0x00\n        /* \"#utility.yul\":205:229   */\n      tag_278\n        /* \"#utility.yul\":223:228   */\n      dup3\n        /* \"#utility.yul\":205:229   */\n      tag_210\n      jump\t// in\n    tag_278:\n        /* \"#utility.yul\":194:229   */\n      swap1\n      pop\n        /* \"#utility.yul\":139:235   */\n      swap2\n      swap1\n      pop\n      jump\t// out\n        /* \"#utility.yul\":241:359   */\n    tag_212:\n        /* \"#utility.yul\":328:352   */\n      tag_280\n        /* \"#utility.yul\":346:351   */\n      dup2\n        /* \"#utility.yul\":328:352   */\n      tag_211\n      jump\t// in\n    tag_280:\n        /* \"#utility.yul\":323:326   */\n      dup3\n        /* \"#utility.yul\":316:353   */\n      mstore\n        /* \"#utility.yul\":241:359   */\n      pop\n      pop\n      jump\t// out\n        /* \"#utility.yul\":365:587   */\n    tag_31:\n        /* \"#utility.yul\":458:462   */\n      0x00\n        /* \"#utility.yul\":496:498   */\n      0x20\n        /* \"#utility.yul\":485:494   */\n      dup3\n        /* \"#utility.yul\":481:499   */\n      add\n        /* \"#utility.yul\":473:499   */\n      swap1\n      pop\n        /* \"#utility.yul\":509:580   */\n      tag_282\n        /* \"#utility.yul\":577:578   */\n      0x00\n        /* \"#utility.yul\":566:575   */\n      dup4\n        /* \"#utility.yul\":562:579   */\n      add\n        /* \"#utility.yul\":553:559   */\n      dup5\n        /* \"#utility.yul\":509:580   */\n      tag_212\n      jump\t// in\n    tag_282:\n        /* \"#utility.yul\":365:587   */\n      swap3\n      swap2\n      pop\n      pop\n      jump\t// out\n        /* \"#utility.yul\":593:692   */\n    tag_213:\n        /* \"#utility.yul\":645:651   */\n      0x00\n        /* \"#utility.yul\":679:684   */\n      dup2\n        /* \"#utility.yul\":673:685   */\n      mload\n        /* \"#utility.yul\":663:685   */\n      swap1\n      pop\n        /* \"#utility.yul\":593:692   */\n      swap2\n      swap1\n      pop\n      jump\t// out\n        /* \"#utility.yul\":698:867   */\n    tag_214:\n        /* \"#utility.yul\":782:793   */\n      0x00\n        /* \"#utility.yul\":816:822   */\n      dup3\n        /* \"#utility.yul\":811:814   */\n      dup3\n        /* \"#utility.yul\":804:823   */\n      mstore\n        /* \"#utility.yul\":856:860   */\n      0x20\n        /* \"#utility.yul\":851:854   */\n      dup3\n        /* \"#utility.yul\":847:861   */\n      add\n        /* \"#utility.yul\":832:861   */\n      swap1\n      pop\n        /* \"#utility.yul\":698:867   */\n      swap3\n      swap2\n      pop\n      pop\n      jump\t// out\n        /* \"#utility.yul\":873:1119   */\n    tag_215:\n        /* \"#utility.yul\":954:955   */\n      0x00\n        /* \"#utility.yul\":964:1077   */\n    tag_286:\n        /* \"#utility.yul\":978:984   */\n      dup4\n        /* \"#utility.yul\":975:976   */\n      dup2\n        /* \"#utility.yul\":972:985   */\n      lt\n        /* \"#utility.yul\":964:1077   */\n      iszero\n      tag_288\n      jumpi\n        /* \"#utility.yul\":1063:1064   */\n      dup1\n        /* \"#utility.yul\":1058:1061   */\n      dup3\n        /* \"#utility.yul\":1054:1065   */\n      add\n        /* \"#utility.yul\":1048:1066   */\n      mload\n        /* \"#utility.yul\":1044:1045   */\n      dup2\n        /* \"#utility.yul\":1039:1042   */\n      dup5\n        /* \"#utility.yul\":1035:1046   */\n      add\n        /* \"#utility.yul\":1028:1067   */\n      mstore\n        /* \"#utility.yul\":1000:1002   */\n      0x20\n        /* \"#utility.yul\":997:998   */\n      dup2\n        /* \"#utility.yul\":993:1003   */\n      add\n        /* \"#utility.yul\":988:1003   */\n      swap1\n      pop\n        /* \"#utility.yul\":964:1077   */\n      jump(tag_286)\n    tag_288:\n        /* \"#utility.yul\":1111:1112   */\n      0x00\n        /* \"#utility.yul\":1102:1108   */\n      dup5\n        /* \"#utility.yul\":1097:1100   */\n      dup5\n        /* \"#utility.yul\":1093:1109   */\n      add\n        /* \"#utility.yul\":1086:1113   */\n      mstore\n        /* \"#utility.yul\":935:1119   */\n      pop\n        /* \"#utility.yul\":873:1119   */\n      pop\n      pop\n      pop\n      jump\t// out\n        /* \"#utility.yul\":1125:1227   */\n    tag_216:\n        /* \"#utility.yul\":1166:1172   */\n      0x00\n        /* \"#utility.yul\":1217:1219   */\n      0x1f\n        /* \"#utility.yul\":1213:1220   */\n      not\n        /* \"#utility.yul\":1208:1210   */\n      0x1f\n        /* \"#utility.yul\":1201:1206   */\n      dup4\n        /* \"#utility.yul\":1197:1211   */\n      add\n        /* \"#utility.yul\":1193:1221   */\n      and\n        /* \"#utility.yul\":1183:1221   */\n      swap1\n      pop\n        /* \"#utility.yul\":1125:1227   */\n      swap2\n      swap1\n      pop\n      jump\t// out\n        /* \"#utility.yul\":1233:1610   */\n    tag_217:\n        /* \"#utility.yul\":1321:1324   */\n      0x00\n        /* \"#utility.yul\":1349:1388   */\n      tag_291\n        /* \"#utility.yul\":1382:1387   */\n      dup3\n        /* \"#utility.yul\":1349:1388   */\n      tag_213\n      jump\t// in\n    tag_291:\n        /* \"#utility.yul\":1404:1475   */\n      tag_292\n        /* \"#utility.yul\":1468:1474   */\n      dup2\n        /* \"#utility.yul\":1463:1466   */\n      dup6\n        /* \"#utility.yul\":1404:1475   */\n      tag_214\n      jump\t// in\n    tag_292:\n        /* \"#utility.yul\":1397:1475   */\n      swap4\n      pop\n        /* \"#utility.yul\":1484:1549   */\n      tag_293\n        /* \"#utility.yul\":1542:1548   */\n      dup2\n        /* \"#utility.yul\":1537:1540   */\n      dup6\n        /* \"#utility.yul\":1530:1534   */\n      0x20\n        /* \"#utility.yul\":1523:1528   */\n      dup7\n        /* \"#utility.yul\":1519:1535   */\n      add\n        /* \"#utility.yul\":1484:1549   */\n      tag_215\n      jump\t// in\n    tag_293:\n        /* \"#utility.yul\":1574:1603   */\n      tag_294\n        /* \"#utility.yul\":1596:1602   */\n      dup2\n        /* \"#utility.yul\":1574:1603   */\n      tag_216\n      jump\t// in\n    tag_294:\n        /* \"#utility.yul\":1569:1572   */\n      dup5\n        /* \"#utility.yul\":1565:1604   */\n      add\n        /* \"#utility.yul\":1558:1604   */\n      swap2\n      pop\n        /* \"#utility.yul\":1325:1610   */\n      pop\n        /* \"#utility.yul\":1233:1610   */\n      swap3\n      swap2\n      pop\n      pop\n      jump\t// out\n        /* \"#utility.yul\":1616:1929   */\n    tag_35:\n        /* \"#utility.yul\":1729:1733   */\n      0x00\n        /* \"#utility.yul\":1767:1769   */\n      0x20\n        /* \"#utility.yul\":1756:1765   */\n      dup3\n        /* \"#utility.yul\":1752:1770   */\n      add\n        /* \"#utility.yul\":1744:1770   */\n      swap1\n      pop\n        /* \"#utility.yul\":1816:1825   */\n      dup2\n        /* \"#utility.yul\":1810:1814   */\n      dup2\n        /* \"#utility.yul\":1806:1826   */\n      sub\n        /* \"#utility.yul\":1802:1803   */\n      0x00\n        /* \"#utility.yul\":1791:1800   */\n      dup4\n        /* \"#utility.yul\":1787:1804   */\n      add\n        /* \"#utility.yul\":1780:1827   */\n      mstore\n        /* \"#utility.yul\":1844:1922   */\n      tag_296\n        /* \"#utility.yul\":1917:1921   */\n      dup2\n        /* \"#utility.yul\":1908:1914   */\n      dup5\n        /* \"#utility.yul\":1844:1922   */\n      tag_217\n      jump\t// in\n    tag_296:\n        /* \"#utility.yul\":1836:1922   */\n      swap1\n      pop\n        /* \"#utility.yul\":1616:1929   */\n      swap3\n      swap2\n      pop\n      pop\n      jump\t// out\n        /* \"#utility.yul\":1935:2010   */\n    tag_218:\n        /* \"#utility.yul\":1968:1974   */\n      0x00\n        /* \"#utility.yul\":2001:2003   */\n      0x40\n        /* \"#utility.yul\":1995:2004   */\n      mload\n        /* \"#utility.yul\":1985:2004   */\n      swap1\n      pop\n        /* \"#utility.yul\":1935:2010   */\n      swap1\n      jump\t// out\n        /* \"#utility.yul\":2016:2133   */\n    tag_219:\n        /* \"#utility.yul\":2125:2126   */\n      0x00\n        /* \"#utility.yul\":2122:2123   */\n      dup1\n        /* \"#utility.yul\":2115:2127   */\n      revert\n        /* \"#utility.yul\":2139:2256   */\n    tag_220:\n        /* \"#utility.yul\":2248:2249   */\n      0x00\n        /* \"#utility.yul\":2245:2246   */\n      dup1\n        /* \"#utility.yul\":2238:2250   */\n      revert\n        /* \"#utility.yul\":2262:2339   */\n    tag_221:\n        /* \"#utility.yul\":2299:2306   */\n      0x00\n        /* \"#utility.yul\":2328:2333   */\n      dup2\n        /* \"#utility.yul\":2317:2333   */\n      swap1\n      pop\n        /* \"#utility.yul\":2262:2339   */\n      swap2\n      swap1\n      pop\n      jump\t// out\n        /* \"#utility.yul\":2345:2467   */\n    tag_222:\n        /* \"#utility.yul\":2418:2442   */\n      tag_302\n        /* \"#utility.yul\":2436:2441   */\n      dup2\n        /* \"#utility.yul\":2418:2442   */\n      tag_221\n      jump\t// in\n    tag_302:\n        /* \"#utility.yul\":2411:2416   */\n      dup2\n        /* \"#utility.yul\":2408:2443   */\n      eq\n        /* \"#utility.yul\":2398:2461   */\n      tag_303\n      jumpi\n        /* \"#utility.yul\":2457:2458   */\n      0x00\n        /* \"#utility.yul\":2454:2455   */\n      dup1\n        /* \"#utility.yul\":2447:2459   */\n      revert\n        /* \"#utility.yul\":2398:2461   */\n    tag_303:\n        /* \"#utility.yul\":2345:2467   */\n      pop\n      jump\t// out\n        /* \"#utility.yul\":2473:2612   */\n    tag_223:\n        /* \"#utility.yul\":2519:2524   */\n      0x00\n        /* \"#utility.yul\":2557:2563   */\n      dup2\n        /* \"#utility.yul\":2544:2564   */\n      calldataload\n        /* \"#utility.yul\":2535:2564   */\n      swap1\n      pop\n        /* \"#utility.yul\":2573:2606   */\n      tag_305\n        /* \"#utility.yul\":2600:2605   */\n      dup2\n        /* \"#utility.yul\":2573:2606   */\n      tag_222\n      jump\t// in\n    tag_305:\n        /* \"#utility.yul\":2473:2612   */\n      swap3\n      swap2\n      pop\n      pop\n      jump\t// out\n        /* \"#utility.yul\":2618:2947   */\n    tag_38:\n        /* \"#utility.yul\":2677:2683   */\n      0x00\n        /* \"#utility.yul\":2726:2728   */\n      0x20\n        /* \"#utility.yul\":2714:2723   */\n      dup3\n        /* \"#utility.yul\":2705:2712   */\n      dup5\n        /* \"#utility.yul\":2701:2724   */\n      sub\n        /* \"#utility.yul\":2697:2729   */\n      slt\n        /* \"#utility.yul\":2694:2813   */\n      iszero\n      tag_307\n      jumpi\n        /* \"#utility.yul\":2732:2811   */\n      tag_308\n      tag_219\n      jump\t// in\n    tag_308:\n        /* \"#utility.yul\":2694:2813   */\n    tag_307:\n        /* \"#utility.yul\":2852:2853   */\n      0x00\n        /* \"#utility.yul\":2877:2930   */\n      tag_309\n        /* \"#utility.yul\":2922:2929   */\n      dup5\n        /* \"#utility.yul\":2913:2919   */\n      dup3\n        /* \"#utility.yul\":2902:2911   */\n      dup6\n        /* \"#utility.yul\":2898:2920   */\n      add\n        /* \"#utility.yul\":2877:2930   */\n      tag_223\n      jump\t// in\n    tag_309:\n        /* \"#utility.yul\":2867:2930   */\n      swap2\n      pop\n        /* \"#utility.yul\":2823:2940   */\n      pop\n        /* \"#utility.yul\":2618:2947   */\n      swap3\n      swap2\n      pop\n      pop\n      jump\t// out\n        /* \"#utility.yul\":2953:3075   */\n    tag_224:\n        /* \"#utility.yul\":3026:3050   */\n      tag_311\n        /* \"#utility.yul\":3044:3049   */\n      dup2\n        /* \"#utility.yul\":3026:3050   */\n      tag_211\n      jump\t// in\n    tag_311:\n        /* \"#utility.yul\":3019:3024   */\n      dup2\n        /* \"#utility.yul\":3016:3051   */\n      eq\n        /* \"#utility.yul\":3006:3069   */\n      tag_312\n      jumpi\n        /* \"#utility.yul\":3065:3066   */\n      0x00\n        /* \"#utility.yul\":3062:3063   */\n      dup1\n        /* \"#utility.yul\":3055:3067   */\n      revert\n        /* \"#utility.yul\":3006:3069   */\n    tag_312:\n        /* \"#utility.yul\":2953:3075   */\n      pop\n      jump\t// out\n        /* \"#utility.yul\":3081:3220   */\n    tag_225:\n        /* \"#utility.yul\":3127:3132   */\n      0x00\n        /* \"#utility.yul\":3165:3171   */\n      dup2\n        /* \"#utility.yul\":3152:3172   */\n      calldataload\n        /* \"#utility.yul\":3143:3172   */\n      swap1\n      pop\n        /* \"#utility.yul\":3181:3214   */\n      tag_314\n        /* \"#utility.yul\":3208:3213   */\n      dup2\n        /* \"#utility.yul\":3181:3214   */\n      tag_224\n      jump\t// in\n    tag_314:\n        /* \"#utility.yul\":3081:3220   */\n      swap3\n      swap2\n      pop\n      pop\n      jump\t// out\n        /* \"#utility.yul\":3226:3555   */\n    tag_43:\n        /* \"#utility.yul\":3285:3291   */\n      0x00\n        /* \"#utility.yul\":3334:3336   */\n      0x20\n        /* \"#utility.yul\":3322:3331   */\n      dup3\n        /* \"#utility.yul\":3313:3320   */\n      dup5\n        /* \"#utility.yul\":3309:3332   */\n      sub\n        /* \"#utility.yul\":3305:3337   */\n      slt\n        /* \"#utility.yul\":3302:3421   */\n      iszero\n      tag_316\n      jumpi\n        /* \"#utility.yul\":3340:3419   */\n      tag_317\n      tag_219\n      jump\t// in\n    tag_317:\n        /* \"#utility.yul\":3302:3421   */\n    tag_316:\n        /* \"#utility.yul\":3460:3461   */\n      0x00\n        /* \"#utility.yul\":3485:3538   */\n      tag_318\n        /* \"#utility.yul\":3530:3537   */\n      dup5\n        /* \"#utility.yul\":3521:3527   */\n      dup3\n        /* \"#utility.yul\":3510:3519   */\n      dup6\n        /* \"#utility.yul\":3506:3528   */\n      add\n        /* \"#utility.yul\":3485:3538   */\n      tag_225\n      jump\t// in\n    tag_318:\n        /* \"#utility.yul\":3475:3538   */\n      swap2\n      pop\n        /* \"#utility.yul\":3431:3548   */\n      pop\n        /* \"#utility.yul\":3226:3555   */\n      swap3\n      swap2\n      pop\n      pop\n      jump\t// out\n        /* \"#utility.yul\":3561:3651   */\n    tag_226:\n        /* \"#utility.yul\":3596:3603   */\n      0x00\n        /* \"#utility.yul\":3639:3644   */\n      dup2\n        /* \"#utility.yul\":3636:3637   */\n      0x03\n        /* \"#utility.yul\":3625:3645   */\n      signextend\n        /* \"#utility.yul\":3614:3645   */\n      swap1\n      pop\n        /* \"#utility.yul\":3561:3651   */\n      swap2\n      swap1\n      pop\n      jump\t// out\n        /* \"#utility.yul\":3657:3769   */\n    tag_227:\n        /* \"#utility.yul\":3740:3762   */\n      tag_321\n        /* \"#utility.yul\":3756:3761   */\n      dup2\n        /* \"#utility.yul\":3740:3762   */\n      tag_226\n      jump\t// in\n    tag_321:\n        /* \"#utility.yul\":3735:3738   */\n      dup3\n        /* \"#utility.yul\":3728:3763   */\n      mstore\n        /* \"#utility.yul\":3657:3769   */\n      pop\n      pop\n      jump\t// out\n        /* \"#utility.yul\":3775:3989   */\n    tag_46:\n        /* \"#utility.yul\":3864:3868   */\n      0x00\n        /* \"#utility.yul\":3902:3904   */\n      0x20\n        /* \"#utility.yul\":3891:3900   */\n      dup3\n        /* \"#utility.yul\":3887:3905   */\n      add\n        /* \"#utility.yul\":3879:3905   */\n      swap1\n      pop\n        /* \"#utility.yul\":3915:3982   */\n      tag_323\n        /* \"#utility.yul\":3979:3980   */\n      0x00\n        /* \"#utility.yul\":3968:3977   */\n      dup4\n        /* \"#utility.yul\":3964:3981   */\n      add\n        /* \"#utility.yul\":3955:3961   */\n      dup5\n        /* \"#utility.yul\":3915:3982   */\n      tag_227\n      jump\t// in\n    tag_323:\n        /* \"#utility.yul\":3775:3989   */\n      swap3\n      swap2\n      pop\n      pop\n      jump\t// out\n        /* \"#utility.yul\":3995:4112   */\n    tag_228:\n        /* \"#utility.yul\":4104:4105   */\n      0x00\n        /* \"#utility.yul\":4101:4102   */\n      dup1\n        /* \"#utility.yul\":4094:4106   */\n      revert\n        /* \"#utility.yul\":4118:4235   */\n    tag_229:\n        /* \"#utility.yul\":4227:4228   */\n      0x00\n        /* \"#utility.yul\":4224:4225   */\n      dup1\n        /* \"#utility.yul\":4217:4229   */\n      revert\n        /* \"#utility.yul\":4241:4358   */\n    tag_230:\n        /* \"#utility.yul\":4350:4351   */\n      0x00\n        /* \"#utility.yul\":4347:4348   */\n      dup1\n        /* \"#utility.yul\":4340:4352   */\n      revert\n        /* \"#utility.yul\":4378:4931   */\n    tag_231:\n        /* \"#utility.yul\":4436:4444   */\n      0x00\n        /* \"#utility.yul\":4446:4452   */\n      dup1\n        /* \"#utility.yul\":4496:4499   */\n      dup4\n        /* \"#utility.yul\":4489:4493   */\n      0x1f\n        /* \"#utility.yul\":4481:4487   */\n      dup5\n        /* \"#utility.yul\":4477:4494   */\n      add\n        /* \"#utility.yul\":4473:4500   */\n      slt\n        /* \"#utility.yul\":4463:4585   */\n      tag_328\n      jumpi\n        /* \"#utility.yul\":4504:4583   */\n      tag_329\n      tag_228\n      jump\t// in\n    tag_329:\n        /* \"#utility.yul\":4463:4585   */\n    tag_328:\n        /* \"#utility.yul\":4617:4623   */\n      dup3\n        /* \"#utility.yul\":4604:4624   */\n      calldataload\n        /* \"#utility.yul\":4594:4624   */\n      swap1\n      pop\n        /* \"#utility.yul\":4647:4665   */\n      0xffffffffffffffff\n        /* \"#utility.yul\":4639:4645   */\n      dup2\n        /* \"#utility.yul\":4636:4666   */\n      gt\n        /* \"#utility.yul\":4633:4750   */\n      iszero\n      tag_330\n      jumpi\n        /* \"#utility.yul\":4669:4748   */\n      tag_331\n      tag_229\n      jump\t// in\n    tag_331:\n        /* \"#utility.yul\":4633:4750   */\n    tag_330:\n        /* \"#utility.yul\":4783:4787   */\n      0x20\n        /* \"#utility.yul\":4775:4781   */\n      dup4\n        /* \"#utility.yul\":4771:4788   */\n      add\n        /* \"#utility.yul\":4759:4788   */\n      swap2\n      pop\n        /* \"#utility.yul\":4837:4840   */\n      dup4\n        /* \"#utility.yul\":4829:4833   */\n      0x01\n        /* \"#utility.yul\":4821:4827   */\n      dup3\n        /* \"#utility.yul\":4817:4834   */\n      mul\n        /* \"#utility.yul\":4807:4815   */\n      dup4\n        /* \"#utility.yul\":4803:4835   */\n      add\n        /* \"#utility.yul\":4800:4841   */\n      gt\n        /* \"#utility.yul\":4797:4925   */\n      iszero\n      tag_332\n      jumpi\n        /* \"#utility.yul\":4844:4923   */\n      tag_333\n      tag_230\n      jump\t// in\n    tag_333:\n        /* \"#utility.yul\":4797:4925   */\n    tag_332:\n        /* \"#utility.yul\":4378:4931   */\n      swap3\n      pop\n      swap3\n      swap1\n      pop\n      jump\t// out\n        /* \"#utility.yul\":4937:5611   */\n    tag_49:\n        /* \"#utility.yul\":5017:5023   */\n      0x00\n        /* \"#utility.yul\":5025:5031   */\n      dup1\n        /* \"#utility.yul\":5033:5039   */\n      0x00\n        /* \"#utility.yul\":5082:5084   */\n      0x40\n        /* \"#utility.yul\":5070:5079   */\n      dup5\n        /* \"#utility.yul\":5061:5068   */\n      dup7\n        /* \"#utility.yul\":5057:5080   */\n      sub\n        /* \"#utility.yul\":5053:5085   */\n      slt\n        /* \"#utility.yul\":5050:5169   */\n      iszero\n      tag_335\n      jumpi\n        /* \"#utility.yul\":5088:5167   */\n      tag_336\n      tag_219\n      jump\t// in\n    tag_336:\n        /* \"#utility.yul\":5050:5169   */\n    tag_335:\n        /* \"#utility.yul\":5208:5209   */\n      0x00\n        /* \"#utility.yul\":5233:5286   */\n      tag_337\n        /* \"#utility.yul\":5278:5285   */\n      dup7\n        /* \"#utility.yul\":5269:5275   */\n      dup3\n        /* \"#utility.yul\":5258:5267   */\n      dup8\n        /* \"#utility.yul\":5254:5276   */\n      add\n        /* \"#utility.yul\":5233:5286   */\n      tag_225\n      jump\t// in\n    tag_337:\n        /* \"#utility.yul\":5223:5286   */\n      swap4\n      pop\n        /* \"#utility.yul\":5179:5296   */\n      pop\n        /* \"#utility.yul\":5363:5365   */\n      0x20\n        /* \"#utility.yul\":5352:5361   */\n      dup5\n        /* \"#utility.yul\":5348:5366   */\n      add\n        /* \"#utility.yul\":5335:5367   */\n      calldataload\n        /* \"#utility.yul\":5394:5412   */\n      0xffffffffffffffff\n        /* \"#utility.yul\":5386:5392   */\n      dup2\n        /* \"#utility.yul\":5383:5413   */\n      gt\n        /* \"#utility.yul\":5380:5497   */\n      iszero\n      tag_338\n      jumpi\n        /* \"#utility.yul\":5416:5495   */\n      tag_339\n      tag_220\n      jump\t// in\n    tag_339:\n        /* \"#utility.yul\":5380:5497   */\n    tag_338:\n        /* \"#utility.yul\":5529:5594   */\n      tag_340\n        /* \"#utility.yul\":5586:5593   */\n      dup7\n        /* \"#utility.yul\":5577:5583   */\n      dup3\n        /* \"#utility.yul\":5566:5575   */\n      dup8\n        /* \"#utility.yul\":5562:5584   */\n      add\n        /* \"#utility.yul\":5529:5594   */\n      tag_231\n      jump\t// in\n    tag_340:\n        /* \"#utility.yul\":5511:5594   */\n      swap3\n      pop\n      swap3\n      pop\n        /* \"#utility.yul\":5306:5604   */\n      pop\n        /* \"#utility.yul\":4937:5611   */\n      swap3\n      pop\n      swap3\n      pop\n      swap3\n      jump\t// out\n        /* \"#utility.yul\":5617:5707   */\n    tag_232:\n        /* \"#utility.yul\":5651:5658   */\n      0x00\n        /* \"#utility.yul\":5694:5699   */\n      dup2\n        /* \"#utility.yul\":5687:5700   */\n      iszero\n        /* \"#utility.yul\":5680:5701   */\n      iszero\n        /* \"#utility.yul\":5669:5701   */\n      swap1\n      pop\n        /* \"#utility.yul\":5617:5707   */\n      swap2\n      swap1\n      pop\n      jump\t// out\n        /* \"#utility.yul\":5713:5822   */\n    tag_233:\n        /* \"#utility.yul\":5794:5815   */\n      tag_343\n        /* \"#utility.yul\":5809:5814   */\n      dup2\n        /* \"#utility.yul\":5794:5815   */\n      tag_232\n      jump\t// in\n    tag_343:\n        /* \"#utility.yul\":5789:5792   */\n      dup3\n        /* \"#utility.yul\":5782:5816   */\n      mstore\n        /* \"#utility.yul\":5713:5822   */\n      pop\n      pop\n      jump\t// out\n        /* \"#utility.yul\":5828:6038   */\n    tag_58:\n        /* \"#utility.yul\":5915:5919   */\n      0x00\n        /* \"#utility.yul\":5953:5955   */\n      0x20\n        /* \"#utility.yul\":5942:5951   */\n      dup3\n        /* \"#utility.yul\":5938:5956   */\n      add\n        /* \"#utility.yul\":5930:5956   */\n      swap1\n      pop\n        /* \"#utility.yul\":5966:6031   */\n      tag_345\n        /* \"#utility.yul\":6028:6029   */\n      0x00\n        /* \"#utility.yul\":6017:6026   */\n      dup4\n        /* \"#utility.yul\":6013:6030   */\n      add\n        /* \"#utility.yul\":6004:6010   */\n      dup5\n        /* \"#utility.yul\":5966:6031   */\n      tag_233\n      jump\t// in\n    tag_345:\n        /* \"#utility.yul\":5828:6038   */\n      swap3\n      swap2\n      pop\n      pop\n      jump\t// out\n        /* \"#utility.yul\":6044:6158   */\n    tag_234:\n        /* \"#utility.yul\":6111:6117   */\n      0x00\n        /* \"#utility.yul\":6145:6150   */\n      dup2\n        /* \"#utility.yul\":6139:6151   */\n      mload\n        /* \"#utility.yul\":6129:6151   */\n      swap1\n      pop\n        /* \"#utility.yul\":6044:6158   */\n      swap2\n      swap1\n      pop\n      jump\t// out\n        /* \"#utility.yul\":6164:6348   */\n    tag_235:\n        /* \"#utility.yul\":6263:6274   */\n      0x00\n        /* \"#utility.yul\":6297:6303   */\n      dup3\n        /* \"#utility.yul\":6292:6295   */\n      dup3\n        /* \"#utility.yul\":6285:6304   */\n      mstore\n        /* \"#utility.yul\":6337:6341   */\n      0x20\n        /* \"#utility.yul\":6332:6335   */\n      dup3\n        /* \"#utility.yul\":6328:6342   */\n      add\n        /* \"#utility.yul\":6313:6342   */\n      swap1\n      pop\n        /* \"#utility.yul\":6164:6348   */\n      swap3\n      swap2\n      pop\n      pop\n      jump\t// out\n        /* \"#utility.yul\":6354:6486   */\n    tag_236:\n        /* \"#utility.yul\":6421:6425   */\n      0x00\n        /* \"#utility.yul\":6444:6447   */\n      dup2\n        /* \"#utility.yul\":6436:6447   */\n      swap1\n      pop\n        /* \"#utility.yul\":6474:6478   */\n      0x20\n        /* \"#utility.yul\":6469:6472   */\n      dup3\n        /* \"#utility.yul\":6465:6479   */\n      add\n        /* \"#utility.yul\":6457:6479   */\n      swap1\n      pop\n        /* \"#utility.yul\":6354:6486   */\n      swap2\n      swap1\n      pop\n      jump\t// out\n        /* \"#utility.yul\":6492:6600   */\n    tag_237:\n        /* \"#utility.yul\":6569:6593   */\n      tag_350\n        /* \"#utility.yul\":6587:6592   */\n      dup2\n        /* \"#utility.yul\":6569:6593   */\n      tag_211\n      jump\t// in\n    tag_350:\n        /* \"#utility.yul\":6564:6567   */\n      dup3\n        /* \"#utility.yul\":6557:6594   */\n      mstore\n        /* \"#utility.yul\":6492:6600   */\n      pop\n      pop\n      jump\t// out\n        /* \"#utility.yul\":6606:6785   */\n    tag_238:\n        /* \"#utility.yul\":6675:6685   */\n      0x00\n        /* \"#utility.yul\":6696:6742   */\n      tag_352\n        /* \"#utility.yul\":6738:6741   */\n      dup4\n        /* \"#utility.yul\":6730:6736   */\n      dup4\n        /* \"#utility.yul\":6696:6742   */\n      tag_237\n      jump\t// in\n    tag_352:\n        /* \"#utility.yul\":6774:6778   */\n      0x20\n        /* \"#utility.yul\":6769:6772   */\n      dup4\n        /* \"#utility.yul\":6765:6779   */\n      add\n        /* \"#utility.yul\":6751:6779   */\n      swap1\n      pop\n        /* \"#utility.yul\":6606:6785   */\n      swap3\n      swap2\n      pop\n      pop\n      jump\t// out\n        /* \"#utility.yul\":6791:6904   */\n    tag_239:\n        /* \"#utility.yul\":6861:6865   */\n      0x00\n        /* \"#utility.yul\":6893:6897   */\n      0x20\n        /* \"#utility.yul\":6888:6891   */\n      dup3\n        /* \"#utility.yul\":6884:6898   */\n      add\n        /* \"#utility.yul\":6876:6898   */\n      swap1\n      pop\n        /* \"#utility.yul\":6791:6904   */\n      swap2\n      swap1\n      pop\n      jump\t// out\n        /* \"#utility.yul\":6940:7672   */\n    tag_240:\n        /* \"#utility.yul\":7059:7062   */\n      0x00\n        /* \"#utility.yul\":7088:7142   */\n      tag_355\n        /* \"#utility.yul\":7136:7141   */\n      dup3\n        /* \"#utility.yul\":7088:7142   */\n      tag_234\n      jump\t// in\n    tag_355:\n        /* \"#utility.yul\":7158:7244   */\n      tag_356\n        /* \"#utility.yul\":7237:7243   */\n      dup2\n        /* \"#utility.yul\":7232:7235   */\n      dup6\n        /* \"#utility.yul\":7158:7244   */\n      tag_235\n      jump\t// in\n    tag_356:\n        /* \"#utility.yul\":7151:7244   */\n      swap4\n      pop\n        /* \"#utility.yul\":7268:7324   */\n      tag_357\n        /* \"#utility.yul\":7318:7323   */\n      dup4\n        /* \"#utility.yul\":7268:7324   */\n      tag_236\n      jump\t// in\n    tag_357:\n        /* \"#utility.yul\":7347:7354   */\n      dup1\n        /* \"#utility.yul\":7378:7379   */\n      0x00\n        /* \"#utility.yul\":7363:7647   */\n    tag_358:\n        /* \"#utility.yul\":7388:7394   */\n      dup4\n        /* \"#utility.yul\":7385:7386   */\n      dup2\n        /* \"#utility.yul\":7382:7395   */\n      lt\n        /* \"#utility.yul\":7363:7647   */\n      iszero\n      tag_360\n      jumpi\n        /* \"#utility.yul\":7464:7470   */\n      dup2\n        /* \"#utility.yul\":7458:7471   */\n      mload\n        /* \"#utility.yul\":7491:7554   */\n      tag_361\n        /* \"#utility.yul\":7550:7553   */\n      dup9\n        /* \"#utility.yul\":7535:7548   */\n      dup3\n        /* \"#utility.yul\":7491:7554   */\n      tag_238\n      jump\t// in\n    tag_361:\n        /* \"#utility.yul\":7484:7554   */\n      swap8\n      pop\n        /* \"#utility.yul\":7577:7637   */\n      tag_362\n        /* \"#utility.yul\":7630:7636   */\n      dup4\n        /* \"#utility.yul\":7577:7637   */\n      tag_239\n      jump\t// in\n    tag_362:\n        /* \"#utility.yul\":7567:7637   */\n      swap3\n      pop\n        /* \"#utility.yul\":7423:7647   */\n      pop\n        /* \"#utility.yul\":7410:7411   */\n      0x01\n        /* \"#utility.yul\":7407:7408   */\n      dup2\n        /* \"#utility.yul\":7403:7412   */\n      add\n        /* \"#utility.yul\":7398:7412   */\n      swap1\n      pop\n        /* \"#utility.yul\":7363:7647   */\n      jump(tag_358)\n    tag_360:\n        /* \"#utility.yul\":7367:7381   */\n      pop\n        /* \"#utility.yul\":7663:7666   */\n      dup6\n        /* \"#utility.yul\":7656:7666   */\n      swap4\n      pop\n        /* \"#utility.yul\":7064:7672   */\n      pop\n      pop\n      pop\n        /* \"#utility.yul\":6940:7672   */\n      swap3\n      swap2\n      pop\n      pop\n      jump\t// out\n        /* \"#utility.yul\":7678:8051   */\n    tag_65:\n        /* \"#utility.yul\":7821:7825   */\n      0x00\n        /* \"#utility.yul\":7859:7861   */\n      0x20\n        /* \"#utility.yul\":7848:7857   */\n      dup3\n        /* \"#utility.yul\":7844:7862   */\n      add\n        /* \"#utility.yul\":7836:7862   */\n      swap1\n      pop\n        /* \"#utility.yul\":7908:7917   */\n      dup2\n        /* \"#utility.yul\":7902:7906   */\n      dup2\n        /* \"#utility.yul\":7898:7918   */\n      sub\n        /* \"#utility.yul\":7894:7895   */\n      0x00\n        /* \"#utility.yul\":7883:7892   */\n      dup4\n        /* \"#utility.yul\":7879:7896   */\n      add\n        /* \"#utility.yul\":7872:7919   */\n      mstore\n        /* \"#utility.yul\":7936:8044   */\n      tag_364\n        /* \"#utility.yul\":8039:8043   */\n      dup2\n        /* \"#utility.yul\":8030:8036   */\n      dup5\n        /* \"#utility.yul\":7936:8044   */\n      tag_240\n      jump\t// in\n    tag_364:\n        /* \"#utility.yul\":7928:8044   */\n      swap1\n      pop\n        /* \"#utility.yul\":7678:8051   */\n      swap3\n      swap2\n      pop\n      pop\n      jump\t// out\n        /* \"#utility.yul\":8057:8150   */\n    tag_241:\n        /* \"#utility.yul\":8093:8100   */\n      0x00\n        /* \"#utility.yul\":8133:8143   */\n      0xffffffff\n        /* \"#utility.yul\":8126:8131   */\n      dup3\n        /* \"#utility.yul\":8122:8144   */\n      and\n        /* \"#utility.yul\":8111:8144   */\n      swap1\n      pop\n        /* \"#utility.yul\":8057:8150   */\n      swap2\n      swap1\n      pop\n      jump\t// out\n        /* \"#utility.yul\":8156:8271   */\n    tag_242:\n        /* \"#utility.yul\":8241:8264   */\n      tag_367\n        /* \"#utility.yul\":8258:8263   */\n      dup2\n        /* \"#utility.yul\":8241:8264   */\n      tag_241\n      jump\t// in\n    tag_367:\n        /* \"#utility.yul\":8236:8239   */\n      dup3\n        /* \"#utility.yul\":8229:8265   */\n      mstore\n        /* \"#utility.yul\":8156:8271   */\n      pop\n      pop\n      jump\t// out\n        /* \"#utility.yul\":8277:8495   */\n    tag_74:\n        /* \"#utility.yul\":8368:8372   */\n      0x00\n        /* \"#utility.yul\":8406:8408   */\n      0x20\n        /* \"#utility.yul\":8395:8404   */\n      dup3\n        /* \"#utility.yul\":8391:8409   */\n      add\n        /* \"#utility.yul\":8383:8409   */\n      swap1\n      pop\n        /* \"#utility.yul\":8419:8488   */\n      tag_369\n        /* \"#utility.yul\":8485:8486   */\n      0x00\n        /* \"#utility.yul\":8474:8483   */\n      dup4\n        /* \"#utility.yul\":8470:8487   */\n      add\n        /* \"#utility.yul\":8461:8467   */\n      dup5\n        /* \"#utility.yul\":8419:8488   */\n      tag_242\n      jump\t// in\n    tag_369:\n        /* \"#utility.yul\":8277:8495   */\n      swap3\n      swap2\n      pop\n      pop\n      jump\t// out\n        /* \"#utility.yul\":8501:8619   */\n    tag_243:\n        /* \"#utility.yul\":8588:8612   */\n      tag_371\n        /* \"#utility.yul\":8606:8611   */\n      dup2\n        /* \"#utility.yul\":8588:8612   */\n      tag_221\n      jump\t// in\n    tag_371:\n        /* \"#utility.yul\":8583:8586   */\n      dup3\n        /* \"#utility.yul\":8576:8613   */\n      mstore\n        /* \"#utility.yul\":8501:8619   */\n      pop\n      pop\n      jump\t// out\n        /* \"#utility.yul\":8625:8847   */\n    tag_78:\n        /* \"#utility.yul\":8718:8722   */\n      0x00\n        /* \"#utility.yul\":8756:8758   */\n      0x20\n        /* \"#utility.yul\":8745:8754   */\n      dup3\n        /* \"#utility.yul\":8741:8759   */\n      add\n        /* \"#utility.yul\":8733:8759   */\n      swap1\n      pop\n        /* \"#utility.yul\":8769:8840   */\n      tag_373\n        /* \"#utility.yul\":8837:8838   */\n      0x00\n        /* \"#utility.yul\":8826:8835   */\n      dup4\n        /* \"#utility.yul\":8822:8839   */\n      add\n        /* \"#utility.yul\":8813:8819   */\n      dup5\n        /* \"#utility.yul\":8769:8840   */\n      tag_243\n      jump\t// in\n    tag_373:\n        /* \"#utility.yul\":8625:8847   */\n      swap3\n      swap2\n      pop\n      pop\n      jump\t// out\n        /* \"#utility.yul\":8853:8977   */\n    tag_244:\n        /* \"#utility.yul\":8930:8936   */\n      0x00\n        /* \"#utility.yul\":8964:8969   */\n      dup2\n        /* \"#utility.yul\":8958:8970   */\n      mload\n        /* \"#utility.yul\":8948:8970   */\n      swap1\n      pop\n        /* \"#utility.yul\":8853:8977   */\n      swap2\n      swap1\n      pop\n      jump\t// out\n        /* \"#utility.yul\":8983:9177   */\n    tag_245:\n        /* \"#utility.yul\":9092:9103   */\n      0x00\n        /* \"#utility.yul\":9126:9132   */\n      dup3\n        /* \"#utility.yul\":9121:9124   */\n      dup3\n        /* \"#utility.yul\":9114:9133   */\n      mstore\n        /* \"#utility.yul\":9166:9170   */\n      0x20\n        /* \"#utility.yul\":9161:9164   */\n      dup3\n        /* \"#utility.yul\":9157:9171   */\n      add\n        /* \"#utility.yul\":9142:9171   */\n      swap1\n      pop\n        /* \"#utility.yul\":8983:9177   */\n      swap3\n      swap2\n      pop\n      pop\n      jump\t// out\n        /* \"#utility.yul\":9183:9325   */\n    tag_246:\n        /* \"#utility.yul\":9260:9264   */\n      0x00\n        /* \"#utility.yul\":9283:9286   */\n      dup2\n        /* \"#utility.yul\":9275:9286   */\n      swap1\n      pop\n        /* \"#utility.yul\":9313:9317   */\n      0x20\n        /* \"#utility.yul\":9308:9311   */\n      dup3\n        /* \"#utility.yul\":9304:9318   */\n      add\n        /* \"#utility.yul\":9296:9318   */\n      swap1\n      pop\n        /* \"#utility.yul\":9183:9325   */\n      swap2\n      swap1\n      pop\n      jump\t// out\n        /* \"#utility.yul\":9331:9490   */\n    tag_247:\n        /* \"#utility.yul\":9405:9416   */\n      0x00\n        /* \"#utility.yul\":9439:9445   */\n      dup3\n        /* \"#utility.yul\":9434:9437   */\n      dup3\n        /* \"#utility.yul\":9427:9446   */\n      mstore\n        /* \"#utility.yul\":9479:9483   */\n      0x20\n        /* \"#utility.yul\":9474:9477   */\n      dup3\n        /* \"#utility.yul\":9470:9484   */\n      add\n        /* \"#utility.yul\":9455:9484   */\n      swap1\n      pop\n        /* \"#utility.yul\":9331:9490   */\n      swap3\n      swap2\n      pop\n      pop\n      jump\t// out\n        /* \"#utility.yul\":9496:9853   */\n    tag_248:\n        /* \"#utility.yul\":9574:9577   */\n      0x00\n        /* \"#utility.yul\":9602:9641   */\n      tag_379\n        /* \"#utility.yul\":9635:9640   */\n      dup3\n        /* \"#utility.yul\":9602:9641   */\n      tag_213\n      jump\t// in\n    tag_379:\n        /* \"#utility.yul\":9657:9718   */\n      tag_380\n        /* \"#utility.yul\":9711:9717   */\n      dup2\n        /* \"#utility.yul\":9706:9709   */\n      dup6\n        /* \"#utility.yul\":9657:9718   */\n      tag_247\n      jump\t// in\n    tag_380:\n        /* \"#utility.yul\":9650:9718   */\n      swap4\n      pop\n        /* \"#utility.yul\":9727:9792   */\n      tag_381\n        /* \"#utility.yul\":9785:9791   */\n      dup2\n        /* \"#utility.yul\":9780:9783   */\n      dup6\n        /* \"#utility.yul\":9773:9777   */\n      0x20\n        /* \"#utility.yul\":9766:9771   */\n      dup7\n        /* \"#utility.yul\":9762:9778   */\n      add\n        /* \"#utility.yul\":9727:9792   */\n      tag_215\n      jump\t// in\n    tag_381:\n        /* \"#utility.yul\":9817:9846   */\n      tag_382\n        /* \"#utility.yul\":9839:9845   */\n      dup2\n        /* \"#utility.yul\":9817:9846   */\n      tag_216\n      jump\t// in\n    tag_382:\n        /* \"#utility.yul\":9812:9815   */\n      dup5\n        /* \"#utility.yul\":9808:9847   */\n      add\n        /* \"#utility.yul\":9801:9847   */\n      swap2\n      pop\n        /* \"#utility.yul\":9578:9853   */\n      pop\n        /* \"#utility.yul\":9496:9853   */\n      swap3\n      swap2\n      pop\n      pop\n      jump\t// out\n        /* \"#utility.yul\":9859:10055   */\n    tag_249:\n        /* \"#utility.yul\":9948:9958   */\n      0x00\n        /* \"#utility.yul\":9983:10049   */\n      tag_384\n        /* \"#utility.yul\":10045:10048   */\n      dup4\n        /* \"#utility.yul\":10037:10043   */\n      dup4\n        /* \"#utility.yul\":9983:10049   */\n      tag_248\n      jump\t// in\n    tag_384:\n        /* \"#utility.yul\":9969:10049   */\n      swap1\n      pop\n        /* \"#utility.yul\":9859:10055   */\n      swap3\n      swap2\n      pop\n      pop\n      jump\t// out\n        /* \"#utility.yul\":10061:10184   */\n    tag_250:\n        /* \"#utility.yul\":10141:10145   */\n      0x00\n        /* \"#utility.yul\":10173:10177   */\n      0x20\n        /* \"#utility.yul\":10168:10171   */\n      dup3\n        /* \"#utility.yul\":10164:10178   */\n      add\n        /* \"#utility.yul\":10156:10178   */\n      swap1\n      pop\n        /* \"#utility.yul\":10061:10184   */\n      swap2\n      swap1\n      pop\n      jump\t// out\n        /* \"#utility.yul\":10218:11209   */\n    tag_251:\n        /* \"#utility.yul\":10357:10360   */\n      0x00\n        /* \"#utility.yul\":10386:10450   */\n      tag_387\n        /* \"#utility.yul\":10444:10449   */\n      dup3\n        /* \"#utility.yul\":10386:10450   */\n      tag_244\n      jump\t// in\n    tag_387:\n        /* \"#utility.yul\":10466:10562   */\n      tag_388\n        /* \"#utility.yul\":10555:10561   */\n      dup2\n        /* \"#utility.yul\":10550:10553   */\n      dup6\n        /* \"#utility.yul\":10466:10562   */\n      tag_245\n      jump\t// in\n    tag_388:\n        /* \"#utility.yul\":10459:10562   */\n      swap4\n      pop\n        /* \"#utility.yul\":10588:10591   */\n      dup4\n        /* \"#utility.yul\":10633:10637   */\n      0x20\n        /* \"#utility.yul\":10625:10631   */\n      dup3\n        /* \"#utility.yul\":10621:10638   */\n      mul\n        /* \"#utility.yul\":10616:10619   */\n      dup6\n        /* \"#utility.yul\":10612:10639   */\n      add\n        /* \"#utility.yul\":10663:10729   */\n      tag_389\n        /* \"#utility.yul\":10723:10728   */\n      dup6\n        /* \"#utility.yul\":10663:10729   */\n      tag_246\n      jump\t// in\n    tag_389:\n        /* \"#utility.yul\":10752:10759   */\n      dup1\n        /* \"#utility.yul\":10783:10784   */\n      0x00\n        /* \"#utility.yul\":10768:11164   */\n    tag_390:\n        /* \"#utility.yul\":10793:10799   */\n      dup6\n        /* \"#utility.yul\":10790:10791   */\n      dup2\n        /* \"#utility.yul\":10787:10800   */\n      lt\n        /* \"#utility.yul\":10768:11164   */\n      iszero\n      tag_392\n      jumpi\n        /* \"#utility.yul\":10864:10873   */\n      dup5\n        /* \"#utility.yul\":10858:10862   */\n      dup5\n        /* \"#utility.yul\":10854:10874   */\n      sub\n        /* \"#utility.yul\":10849:10852   */\n      dup10\n        /* \"#utility.yul\":10842:10875   */\n      mstore\n        /* \"#utility.yul\":10915:10921   */\n      dup2\n        /* \"#utility.yul\":10909:10922   */\n      mload\n        /* \"#utility.yul\":10943:11027   */\n      tag_393\n        /* \"#utility.yul\":11022:11026   */\n      dup6\n        /* \"#utility.yul\":11007:11020   */\n      dup3\n        /* \"#utility.yul\":10943:11027   */\n      tag_249\n      jump\t// in\n    tag_393:\n        /* \"#utility.yul\":10935:11027   */\n      swap5\n      pop\n        /* \"#utility.yul\":11050:11120   */\n      tag_394\n        /* \"#utility.yul\":11113:11119   */\n      dup4\n        /* \"#utility.yul\":11050:11120   */\n      tag_250\n      jump\t// in\n    tag_394:\n        /* \"#utility.yul\":11040:11120   */\n      swap3\n      pop\n        /* \"#utility.yul\":11149:11153   */\n      0x20\n        /* \"#utility.yul\":11144:11147   */\n      dup11\n        /* \"#utility.yul\":11140:11154   */\n      add\n        /* \"#utility.yul\":11133:11154   */\n      swap10\n      pop\n        /* \"#utility.yul\":10828:11164   */\n      pop\n        /* \"#utility.yul\":10815:10816   */\n      0x01\n        /* \"#utility.yul\":10812:10813   */\n      dup2\n        /* \"#utility.yul\":10808:10817   */\n      add\n        /* \"#utility.yul\":10803:10817   */\n      swap1\n      pop\n        /* \"#utility.yul\":10768:11164   */\n      jump(tag_390)\n    tag_392:\n        /* \"#utility.yul\":10772:10786   */\n      pop\n        /* \"#utility.yul\":11180:11184   */\n      dup3\n        /* \"#utility.yul\":11173:11184   */\n      swap8\n      pop\n        /* \"#utility.yul\":11200:11203   */\n      dup8\n        /* \"#utility.yul\":11193:11203   */\n      swap6\n      pop\n        /* \"#utility.yul\":10362:11209   */\n      pop\n      pop\n      pop\n      pop\n      pop\n        /* \"#utility.yul\":10218:11209   */\n      swap3\n      swap2\n      pop\n      pop\n      jump\t// out\n        /* \"#utility.yul\":11215:11628   */\n    tag_89:\n        /* \"#utility.yul\":11378:11382   */\n      0x00\n        /* \"#utility.yul\":11416:11418   */\n      0x20\n        /* \"#utility.yul\":11405:11414   */\n      dup3\n        /* \"#utility.yul\":11401:11419   */\n      add\n        /* \"#utility.yul\":11393:11419   */\n      swap1\n      pop\n        /* \"#utility.yul\":11465:11474   */\n      dup2\n        /* \"#utility.yul\":11459:11463   */\n      dup2\n        /* \"#utility.yul\":11455:11475   */\n      sub\n        /* \"#utility.yul\":11451:11452   */\n      0x00\n        /* \"#utility.yul\":11440:11449   */\n      dup4\n        /* \"#utility.yul\":11436:11453   */\n      add\n        /* \"#utility.yul\":11429:11476   */\n      mstore\n        /* \"#utility.yul\":11493:11621   */\n      tag_396\n        /* \"#utility.yul\":11616:11620   */\n      dup2\n        /* \"#utility.yul\":11607:11613   */\n      dup5\n        /* \"#utility.yul\":11493:11621   */\n      tag_251\n      jump\t// in\n    tag_396:\n        /* \"#utility.yul\":11485:11621   */\n      swap1\n      pop\n        /* \"#utility.yul\":11215:11628   */\n      swap3\n      swap2\n      pop\n      pop\n      jump\t// out\n        /* \"#utility.yul\":11634:11710   */\n    tag_252:\n        /* \"#utility.yul\":11670:11677   */\n      0x00\n        /* \"#utility.yul\":11699:11704   */\n      dup2\n        /* \"#utility.yul\":11688:11704   */\n      swap1\n      pop\n        /* \"#utility.yul\":11634:11710   */\n      swap2\n      swap1\n      pop\n      jump\t// out\n        /* \"#utility.yul\":11716:11831   */\n    tag_253:\n        /* \"#utility.yul\":11801:11824   */\n      tag_399\n        /* \"#utility.yul\":11818:11823   */\n      dup2\n        /* \"#utility.yul\":11801:11824   */\n      tag_252\n      jump\t// in\n    tag_399:\n        /* \"#utility.yul\":11796:11799   */\n      dup3\n        /* \"#utility.yul\":11789:11825   */\n      mstore\n        /* \"#utility.yul\":11716:11831   */\n      pop\n      pop\n      jump\t// out\n        /* \"#utility.yul\":11837:12055   */\n    tag_104:\n        /* \"#utility.yul\":11928:11932   */\n      0x00\n        /* \"#utility.yul\":11966:11968   */\n      0x20\n        /* \"#utility.yul\":11955:11964   */\n      dup3\n        /* \"#utility.yul\":11951:11969   */\n      add\n        /* \"#utility.yul\":11943:11969   */\n      swap1\n      pop\n        /* \"#utility.yul\":11979:12048   */\n      tag_401\n        /* \"#utility.yul\":12045:12046   */\n      0x00\n        /* \"#utility.yul\":12034:12043   */\n      dup4\n        /* \"#utility.yul\":12030:12047   */\n      add\n        /* \"#utility.yul\":12021:12027   */\n      dup5\n        /* \"#utility.yul\":11979:12048   */\n      tag_253\n      jump\t// in\n    tag_401:\n        /* \"#utility.yul\":11837:12055   */\n      swap3\n      swap2\n      pop\n      pop\n      jump\t// out\n        /* \"#utility.yul\":12061:12241   */\n    tag_254:\n        /* \"#utility.yul\":12109:12186   */\n      0x4e487b7100000000000000000000000000000000000000000000000000000000\n        /* \"#utility.yul\":12106:12107   */\n      0x00\n        /* \"#utility.yul\":12099:12187   */\n      mstore\n        /* \"#utility.yul\":12206:12210   */\n      0x22\n        /* \"#utility.yul\":12203:12204   */\n      0x04\n        /* \"#utility.yul\":12196:12211   */\n      mstore\n        /* \"#utility.yul\":12230:12234   */\n      0x24\n        /* \"#utility.yul\":12227:12228   */\n      0x00\n        /* \"#utility.yul\":12220:12235   */\n      revert\n        /* \"#utility.yul\":12247:12567   */\n    tag_116:\n        /* \"#utility.yul\":12291:12297   */\n      0x00\n        /* \"#utility.yul\":12328:12329   */\n      0x02\n        /* \"#utility.yul\":12322:12326   */\n      dup3\n        /* \"#utility.yul\":12318:12330   */\n      div\n        /* \"#utility.yul\":12308:12330   */\n      swap1\n      pop\n        /* \"#utility.yul\":12375:12376   */\n      0x01\n        /* \"#utility.yul\":12369:12373   */\n      dup3\n        /* \"#utility.yul\":12365:12377   */\n      and\n        /* \"#utility.yul\":12396:12414   */\n      dup1\n        /* \"#utility.yul\":12386:12467   */\n      tag_404\n      jumpi\n        /* \"#utility.yul\":12452:12456   */\n      0x7f\n        /* \"#utility.yul\":12444:12450   */\n      dup3\n        /* \"#utility.yul\":12440:12457   */\n      and\n        /* \"#utility.yul\":12430:12457   */\n      swap2\n      pop\n        /* \"#utility.yul\":12386:12467   */\n    tag_404:\n        /* \"#utility.yul\":12514:12516   */\n      0x20\n        /* \"#utility.yul\":12506:12512   */\n      dup3\n        /* \"#utility.yul\":12503:12517   */\n      lt\n        /* \"#utility.yul\":12483:12501   */\n      dup2\n        /* \"#utility.yul\":12480:12518   */\n      sub\n        /* \"#utility.yul\":12477:12561   */\n      tag_405\n      jumpi\n        /* \"#utility.yul\":12533:12551   */\n      tag_406\n      tag_254\n      jump\t// in\n    tag_406:\n        /* \"#utility.yul\":12477:12561   */\n    tag_405:\n        /* \"#utility.yul\":12298:12567   */\n      pop\n        /* \"#utility.yul\":12247:12567   */\n      swap2\n      swap1\n      pop\n      jump\t// out\n        /* \"#utility.yul\":12573:12747   */\n    tag_255:\n        /* \"#utility.yul\":12713:12739   */\n      0x526571756972656420746f2062652061206d656d656265720000000000000000\n        /* \"#utility.yul\":12709:12710   */\n      0x00\n        /* \"#utility.yul\":12701:12707   */\n      dup3\n        /* \"#utility.yul\":12697:12711   */\n      add\n        /* \"#utility.yul\":12690:12740   */\n      mstore\n        /* \"#utility.yul\":12573:12747   */\n      pop\n      jump\t// out\n        /* \"#utility.yul\":12753:13119   */\n    tag_256:\n        /* \"#utility.yul\":12895:12898   */\n      0x00\n        /* \"#utility.yul\":12916:12983   */\n      tag_409\n        /* \"#utility.yul\":12980:12982   */\n      0x18\n        /* \"#utility.yul\":12975:12978   */\n      dup4\n        /* \"#utility.yul\":12916:12983   */\n      tag_214\n      jump\t// in\n    tag_409:\n        /* \"#utility.yul\":12909:12983   */\n      swap2\n      pop\n        /* \"#utility.yul\":12992:13085   */\n      tag_410\n        /* \"#utility.yul\":13081:13084   */\n      dup3\n        /* \"#utility.yul\":12992:13085   */\n      tag_255\n      jump\t// in\n    tag_410:\n        /* \"#utility.yul\":13110:13112   */\n      0x20\n        /* \"#utility.yul\":13105:13108   */\n      dup3\n        /* \"#utility.yul\":13101:13113   */\n      add\n        /* \"#utility.yul\":13094:13113   */\n      swap1\n      pop\n        /* \"#utility.yul\":12753:13119   */\n      swap2\n      swap1\n      pop\n      jump\t// out\n        /* \"#utility.yul\":13125:13544   */\n    tag_127:\n        /* \"#utility.yul\":13291:13295   */\n      0x00\n        /* \"#utility.yul\":13329:13331   */\n      0x20\n        /* \"#utility.yul\":13318:13327   */\n      dup3\n        /* \"#utility.yul\":13314:13332   */\n      add\n        /* \"#utility.yul\":13306:13332   */\n      swap1\n      pop\n        /* \"#utility.yul\":13378:13387   */\n      dup2\n        /* \"#utility.yul\":13372:13376   */\n      dup2\n        /* \"#utility.yul\":13368:13388   */\n      sub\n        /* \"#utility.yul\":13364:13365   */\n      0x00\n        /* \"#utility.yul\":13353:13362   */\n      dup4\n        /* \"#utility.yul\":13349:13366   */\n      add\n        /* \"#utility.yul\":13342:13389   */\n      mstore\n        /* \"#utility.yul\":13406:13537   */\n      tag_412\n        /* \"#utility.yul\":13532:13536   */\n      dup2\n        /* \"#utility.yul\":13406:13537   */\n      tag_256\n      jump\t// in\n    tag_412:\n        /* \"#utility.yul\":13398:13537   */\n      swap1\n      pop\n        /* \"#utility.yul\":13125:13544   */\n      swap2\n      swap1\n      pop\n      jump\t// out\n        /* \"#utility.yul\":13550:13664   */\n    tag_257:\n      pop\n      jump\t// out\n        /* \"#utility.yul\":13670:14034   */\n    tag_258:\n        /* \"#utility.yul\":13812:13815   */\n      0x00\n        /* \"#utility.yul\":13833:13899   */\n      tag_415\n        /* \"#utility.yul\":13897:13898   */\n      0x00\n        /* \"#utility.yul\":13892:13895   */\n      dup4\n        /* \"#utility.yul\":13833:13899   */\n      tag_214\n      jump\t// in\n    tag_415:\n        /* \"#utility.yul\":13826:13899   */\n      swap2\n      pop\n        /* \"#utility.yul\":13908:14001   */\n      tag_416\n        /* \"#utility.yul\":13997:14000   */\n      dup3\n        /* \"#utility.yul\":13908:14001   */\n      tag_257\n      jump\t// in\n    tag_416:\n        /* \"#utility.yul\":14026:14027   */\n      0x00\n        /* \"#utility.yul\":14021:14024   */\n      dup3\n        /* \"#utility.yul\":14017:14028   */\n      add\n        /* \"#utility.yul\":14010:14028   */\n      swap1\n      pop\n        /* \"#utility.yul\":13670:14034   */\n      swap2\n      swap1\n      pop\n      jump\t// out\n        /* \"#utility.yul\":14040:14459   */\n    tag_135:\n        /* \"#utility.yul\":14206:14210   */\n      0x00\n        /* \"#utility.yul\":14244:14246   */\n      0x20\n        /* \"#utility.yul\":14233:14242   */\n      dup3\n        /* \"#utility.yul\":14229:14247   */\n      add\n        /* \"#utility.yul\":14221:14247   */\n      swap1\n      pop\n        /* \"#utility.yul\":14293:14302   */\n      dup2\n        /* \"#utility.yul\":14287:14291   */\n      dup2\n        /* \"#utility.yul\":14283:14303   */\n      sub\n        /* \"#utility.yul\":14279:14280   */\n      0x00\n        /* \"#utility.yul\":14268:14277   */\n      dup4\n        /* \"#utility.yul\":14264:14281   */\n      add\n        /* \"#utility.yul\":14257:14304   */\n      mstore\n        /* \"#utility.yul\":14321:14452   */\n      tag_418\n        /* \"#utility.yul\":14447:14451   */\n      dup2\n        /* \"#utility.yul\":14321:14452   */\n      tag_258\n      jump\t// in\n    tag_418:\n        /* \"#utility.yul\":14313:14452   */\n      swap1\n      pop\n        /* \"#utility.yul\":14040:14459   */\n      swap2\n      swap1\n      pop\n      jump\t// out\n        /* \"#utility.yul\":14465:14608   */\n    tag_259:\n        /* \"#utility.yul\":14522:14527   */\n      0x00\n        /* \"#utility.yul\":14553:14559   */\n      dup2\n        /* \"#utility.yul\":14547:14560   */\n      mload\n        /* \"#utility.yul\":14538:14560   */\n      swap1\n      pop\n        /* \"#utility.yul\":14569:14602   */\n      tag_420\n        /* \"#utility.yul\":14596:14601   */\n      dup2\n        /* \"#utility.yul\":14569:14602   */\n      tag_222\n      jump\t// in\n    tag_420:\n        /* \"#utility.yul\":14465:14608   */\n      swap3\n      swap2\n      pop\n      pop\n      jump\t// out\n        /* \"#utility.yul\":14614:14965   */\n    tag_141:\n        /* \"#utility.yul\":14684:14690   */\n      0x00\n        /* \"#utility.yul\":14733:14735   */\n      0x20\n        /* \"#utility.yul\":14721:14730   */\n      dup3\n        /* \"#utility.yul\":14712:14719   */\n      dup5\n        /* \"#utility.yul\":14708:14731   */\n      sub\n        /* \"#utility.yul\":14704:14736   */\n      slt\n        /* \"#utility.yul\":14701:14820   */\n      iszero\n      tag_422\n      jumpi\n        /* \"#utility.yul\":14739:14818   */\n      tag_423\n      tag_219\n      jump\t// in\n    tag_423:\n        /* \"#utility.yul\":14701:14820   */\n    tag_422:\n        /* \"#utility.yul\":14859:14860   */\n      0x00\n        /* \"#utility.yul\":14884:14948   */\n      tag_424\n        /* \"#utility.yul\":14940:14947   */\n      dup5\n        /* \"#utility.yul\":14931:14937   */\n      dup3\n        /* \"#utility.yul\":14920:14929   */\n      dup6\n        /* \"#utility.yul\":14916:14938   */\n      add\n        /* \"#utility.yul\":14884:14948   */\n      tag_259\n      jump\t// in\n    tag_424:\n        /* \"#utility.yul\":14874:14948   */\n      swap2\n      pop\n        /* \"#utility.yul\":14830:14958   */\n      pop\n        /* \"#utility.yul\":14614:14965   */\n      swap3\n      swap2\n      pop\n      pop\n      jump\t// out\n        /* \"#utility.yul\":14971:15151   */\n    tag_260:\n        /* \"#utility.yul\":15019:15096   */\n      0x4e487b7100000000000000000000000000000000000000000000000000000000\n        /* \"#utility.yul\":15016:15017   */\n      0x00\n        /* \"#utility.yul\":15009:15097   */\n      mstore\n        /* \"#utility.yul\":15116:15120   */\n      0x12\n        /* \"#utility.yul\":15113:15114   */\n      0x04\n        /* \"#utility.yul\":15106:15121   */\n      mstore\n        /* \"#utility.yul\":15140:15144   */\n      0x24\n        /* \"#utility.yul\":15137:15138   */\n      0x00\n        /* \"#utility.yul\":15130:15145   */\n      revert\n        /* \"#utility.yul\":15157:15337   */\n    tag_261:\n        /* \"#utility.yul\":15205:15282   */\n      0x4e487b7100000000000000000000000000000000000000000000000000000000\n        /* \"#utility.yul\":15202:15203   */\n      0x00\n        /* \"#utility.yul\":15195:15283   */\n      mstore\n        /* \"#utility.yul\":15302:15306   */\n      0x11\n        /* \"#utility.yul\":15299:15300   */\n      0x04\n        /* \"#utility.yul\":15292:15307   */\n      mstore\n        /* \"#utility.yul\":15326:15330   */\n      0x24\n        /* \"#utility.yul\":15323:15324   */\n      0x00\n        /* \"#utility.yul\":15316:15331   */\n      revert\n        /* \"#utility.yul\":15343:15528   */\n    tag_143:\n        /* \"#utility.yul\":15383:15384   */\n      0x00\n        /* \"#utility.yul\":15400:15420   */\n      tag_428\n        /* \"#utility.yul\":15418:15419   */\n      dup3\n        /* \"#utility.yul\":15400:15420   */\n      tag_221\n      jump\t// in\n    tag_428:\n        /* \"#utility.yul\":15395:15420   */\n      swap2\n      pop\n        /* \"#utility.yul\":15434:15454   */\n      tag_429\n        /* \"#utility.yul\":15452:15453   */\n      dup4\n        /* \"#utility.yul\":15434:15454   */\n      tag_221\n      jump\t// in\n    tag_429:\n        /* \"#utility.yul\":15429:15454   */\n      swap3\n      pop\n        /* \"#utility.yul\":15473:15474   */\n      dup3\n        /* \"#utility.yul\":15463:15498   */\n      tag_430\n      jumpi\n        /* \"#utility.yul\":15478:15496   */\n      tag_431\n      tag_260\n      jump\t// in\n    tag_431:\n        /* \"#utility.yul\":15463:15498   */\n    tag_430:\n        /* \"#utility.yul\":15520:15521   */\n      dup3\n        /* \"#utility.yul\":15517:15518   */\n      dup3\n        /* \"#utility.yul\":15513:15522   */\n      div\n        /* \"#utility.yul\":15508:15522   */\n      swap1\n      pop\n        /* \"#utility.yul\":15343:15528   */\n      swap3\n      swap2\n      pop\n      pop\n      jump\t// out\n        /* \"#utility.yul\":15534:15944   */\n    tag_145:\n        /* \"#utility.yul\":15574:15581   */\n      0x00\n        /* \"#utility.yul\":15597:15617   */\n      tag_433\n        /* \"#utility.yul\":15615:15616   */\n      dup3\n        /* \"#utility.yul\":15597:15617   */\n      tag_221\n      jump\t// in\n    tag_433:\n        /* \"#utility.yul\":15592:15617   */\n      swap2\n      pop\n        /* \"#utility.yul\":15631:15651   */\n      tag_434\n        /* \"#utility.yul\":15649:15650   */\n      dup4\n        /* \"#utility.yul\":15631:15651   */\n      tag_221\n      jump\t// in\n    tag_434:\n        /* \"#utility.yul\":15626:15651   */\n      swap3\n      pop\n        /* \"#utility.yul\":15686:15687   */\n      dup3\n        /* \"#utility.yul\":15683:15684   */\n      dup3\n        /* \"#utility.yul\":15679:15688   */\n      mul\n        /* \"#utility.yul\":15708:15738   */\n      tag_435\n        /* \"#utility.yul\":15726:15737   */\n      dup2\n        /* \"#utility.yul\":15708:15738   */\n      tag_221\n      jump\t// in\n    tag_435:\n        /* \"#utility.yul\":15697:15738   */\n      swap2\n      pop\n        /* \"#utility.yul\":15887:15888   */\n      dup3\n        /* \"#utility.yul\":15878:15885   */\n      dup3\n        /* \"#utility.yul\":15874:15889   */\n      div\n        /* \"#utility.yul\":15871:15872   */\n      dup5\n        /* \"#utility.yul\":15868:15890   */\n      eq\n        /* \"#utility.yul\":15848:15849   */\n      dup4\n        /* \"#utility.yul\":15841:15850   */\n      iszero\n        /* \"#utility.yul\":15821:15904   */\n      or\n        /* \"#utility.yul\":15798:15937   */\n      tag_436\n      jumpi\n        /* \"#utility.yul\":15917:15935   */\n      tag_437\n      tag_261\n      jump\t// in\n    tag_437:\n        /* \"#utility.yul\":15798:15937   */\n    tag_436:\n        /* \"#utility.yul\":15582:15944   */\n      pop\n        /* \"#utility.yul\":15534:15944   */\n      swap3\n      swap2\n      pop\n      pop\n      jump\t// out\n        /* \"#utility.yul\":15950:16172   */\n    tag_262:\n        /* \"#utility.yul\":16090:16124   */\n      0x496e76616c6964206e756d626572206f6620766f746573206f722070726f6365\n        /* \"#utility.yul\":16086:16087   */\n      0x00\n        /* \"#utility.yul\":16078:16084   */\n      dup3\n        /* \"#utility.yul\":16074:16088   */\n      add\n        /* \"#utility.yul\":16067:16125   */\n      mstore\n        /* \"#utility.yul\":16159:16164   */\n      0x65642e0000000000000000000000000000000000000000000000000000000000\n        /* \"#utility.yul\":16154:16156   */\n      0x20\n        /* \"#utility.yul\":16146:16152   */\n      dup3\n        /* \"#utility.yul\":16142:16157   */\n      add\n        /* \"#utility.yul\":16135:16165   */\n      mstore\n        /* \"#utility.yul\":15950:16172   */\n      pop\n      jump\t// out\n        /* \"#utility.yul\":16178:16544   */\n    tag_263:\n        /* \"#utility.yul\":16320:16323   */\n      0x00\n        /* \"#utility.yul\":16341:16408   */\n      tag_440\n        /* \"#utility.yul\":16405:16407   */\n      0x23\n        /* \"#utility.yul\":16400:16403   */\n      dup4\n        /* \"#utility.yul\":16341:16408   */\n      tag_214\n      jump\t// in\n    tag_440:\n        /* \"#utility.yul\":16334:16408   */\n      swap2\n      pop\n        /* \"#utility.yul\":16417:16510   */\n      tag_441\n        /* \"#utility.yul\":16506:16509   */\n      dup3\n        /* \"#utility.yul\":16417:16510   */\n      tag_262\n      jump\t// in\n    tag_441:\n        /* \"#utility.yul\":16535:16537   */\n      0x40\n        /* \"#utility.yul\":16530:16533   */\n      dup3\n        /* \"#utility.yul\":16526:16538   */\n      add\n        /* \"#utility.yul\":16519:16538   */\n      swap1\n      pop\n        /* \"#utility.yul\":16178:16544   */\n      swap2\n      swap1\n      pop\n      jump\t// out\n        /* \"#utility.yul\":16550:16969   */\n    tag_148:\n        /* \"#utility.yul\":16716:16720   */\n      0x00\n        /* \"#utility.yul\":16754:16756   */\n      0x20\n        /* \"#utility.yul\":16743:16752   */\n      dup3\n        /* \"#utility.yul\":16739:16757   */\n      add\n        /* \"#utility.yul\":16731:16757   */\n      swap1\n      pop\n        /* \"#utility.yul\":16803:16812   */\n      dup2\n        /* \"#utility.yul\":16797:16801   */\n      dup2\n        /* \"#utility.yul\":16793:16813   */\n      sub\n        /* \"#utility.yul\":16789:16790   */\n      0x00\n        /* \"#utility.yul\":16778:16787   */\n      dup4\n        /* \"#utility.yul\":16774:16791   */\n      add\n        /* \"#utility.yul\":16767:16814   */\n      mstore\n        /* \"#utility.yul\":16831:16962   */\n      tag_443\n        /* \"#utility.yul\":16957:16961   */\n      dup2\n        /* \"#utility.yul\":16831:16962   */\n      tag_263\n      jump\t// in\n    tag_443:\n        /* \"#utility.yul\":16823:16962   */\n      swap1\n      pop\n        /* \"#utility.yul\":16550:16969   */\n      swap2\n      swap1\n      pop\n      jump\t// out\n        /* \"#utility.yul\":16975:17144   */\n    tag_264:\n        /* \"#utility.yul\":17115:17136   */\n      0x546f20736f6f6e20746f20656e6420766f746500000000000000000000000000\n        /* \"#utility.yul\":17111:17112   */\n      0x00\n        /* \"#utility.yul\":17103:17109   */\n      dup3\n        /* \"#utility.yul\":17099:17113   */\n      add\n        /* \"#utility.yul\":17092:17137   */\n      mstore\n        /* \"#utility.yul\":16975:17144   */\n      pop\n      jump\t// out\n        /* \"#utility.yul\":17150:17516   */\n    tag_265:\n        /* \"#utility.yul\":17292:17295   */\n      0x00\n        /* \"#utility.yul\":17313:17380   */\n      tag_446\n        /* \"#utility.yul\":17377:17379   */\n      0x13\n        /* \"#utility.yul\":17372:17375   */\n      dup4\n        /* \"#utility.yul\":17313:17380   */\n      tag_214\n      jump\t// in\n    tag_446:\n        /* \"#utility.yul\":17306:17380   */\n      swap2\n      pop\n        /* \"#utility.yul\":17389:17482   */\n      tag_447\n        /* \"#utility.yul\":17478:17481   */\n      dup3\n        /* \"#utility.yul\":17389:17482   */\n      tag_264\n      jump\t// in\n    tag_447:\n        /* \"#utility.yul\":17507:17509   */\n      0x20\n        /* \"#utility.yul\":17502:17505   */\n      dup3\n        /* \"#utility.yul\":17498:17510   */\n      add\n        /* \"#utility.yul\":17491:17510   */\n      swap1\n      pop\n        /* \"#utility.yul\":17150:17516   */\n      swap2\n      swap1\n      pop\n      jump\t// out\n        /* \"#utility.yul\":17522:17941   */\n    tag_166:\n        /* \"#utility.yul\":17688:17692   */\n      0x00\n        /* \"#utility.yul\":17726:17728   */\n      0x20\n        /* \"#utility.yul\":17715:17724   */\n      dup3\n        /* \"#utility.yul\":17711:17729   */\n      add\n        /* \"#utility.yul\":17703:17729   */\n      swap1\n      pop\n        /* \"#utility.yul\":17775:17784   */\n      dup2\n        /* \"#utility.yul\":17769:17773   */\n      dup2\n        /* \"#utility.yul\":17765:17785   */\n      sub\n        /* \"#utility.yul\":17761:17762   */\n      0x00\n        /* \"#utility.yul\":17750:17759   */\n      dup4\n        /* \"#utility.yul\":17746:17763   */\n      add\n        /* \"#utility.yul\":17739:17786   */\n      mstore\n        /* \"#utility.yul\":17803:17934   */\n      tag_449\n        /* \"#utility.yul\":17929:17933   */\n      dup2\n        /* \"#utility.yul\":17803:17934   */\n      tag_265\n      jump\t// in\n    tag_449:\n        /* \"#utility.yul\":17795:17934   */\n      swap1\n      pop\n        /* \"#utility.yul\":17522:17941   */\n      swap2\n      swap1\n      pop\n      jump\t// out\n        /* \"#utility.yul\":17947:18127   */\n    tag_266:\n        /* \"#utility.yul\":17995:18072   */\n      0x4e487b7100000000000000000000000000000000000000000000000000000000\n        /* \"#utility.yul\":17992:17993   */\n      0x00\n        /* \"#utility.yul\":17985:18073   */\n      mstore\n        /* \"#utility.yul\":18092:18096   */\n      0x41\n        /* \"#utility.yul\":18089:18090   */\n      0x04\n        /* \"#utility.yul\":18082:18097   */\n      mstore\n        /* \"#utility.yul\":18116:18120   */\n      0x24\n        /* \"#utility.yul\":18113:18114   */\n      0x00\n        /* \"#utility.yul\":18106:18121   */\n      revert\n        /* \"#utility.yul\":18133:18414   */\n    tag_267:\n        /* \"#utility.yul\":18216:18243   */\n      tag_452\n        /* \"#utility.yul\":18238:18242   */\n      dup3\n        /* \"#utility.yul\":18216:18243   */\n      tag_216\n      jump\t// in\n    tag_452:\n        /* \"#utility.yul\":18208:18214   */\n      dup2\n        /* \"#utility.yul\":18204:18244   */\n      add\n        /* \"#utility.yul\":18346:18352   */\n      dup2\n        /* \"#utility.yul\":18334:18344   */\n      dup2\n        /* \"#utility.yul\":18331:18353   */\n      lt\n        /* \"#utility.yul\":18310:18328   */\n      0xffffffffffffffff\n        /* \"#utility.yul\":18298:18308   */\n      dup3\n        /* \"#utility.yul\":18295:18329   */\n      gt\n        /* \"#utility.yul\":18292:18354   */\n      or\n        /* \"#utility.yul\":18289:18377   */\n      iszero\n      tag_453\n      jumpi\n        /* \"#utility.yul\":18357:18375   */\n      tag_454\n      tag_266\n      jump\t// in\n    tag_454:\n        /* \"#utility.yul\":18289:18377   */\n    tag_453:\n        /* \"#utility.yul\":18397:18407   */\n      dup1\n        /* \"#utility.yul\":18393:18395   */\n      0x40\n        /* \"#utility.yul\":18386:18408   */\n      mstore\n        /* \"#utility.yul\":18176:18414   */\n      pop\n        /* \"#utility.yul\":18133:18414   */\n      pop\n      pop\n      jump\t// out\n        /* \"#utility.yul\":18420:18549   */\n    tag_268:\n        /* \"#utility.yul\":18454:18460   */\n      0x00\n        /* \"#utility.yul\":18481:18501   */\n      tag_456\n      tag_218\n      jump\t// in\n    tag_456:\n        /* \"#utility.yul\":18471:18501   */\n      swap1\n      pop\n        /* \"#utility.yul\":18510:18543   */\n      tag_457\n        /* \"#utility.yul\":18538:18542   */\n      dup3\n        /* \"#utility.yul\":18530:18536   */\n      dup3\n        /* \"#utility.yul\":18510:18543   */\n      tag_267\n      jump\t// in\n    tag_457:\n        /* \"#utility.yul\":18420:18549   */\n      swap2\n      swap1\n      pop\n      jump\t// out\n        /* \"#utility.yul\":18555:18866   */\n    tag_269:\n        /* \"#utility.yul\":18632:18636   */\n      0x00\n        /* \"#utility.yul\":18722:18740   */\n      0xffffffffffffffff\n        /* \"#utility.yul\":18714:18720   */\n      dup3\n        /* \"#utility.yul\":18711:18741   */\n      gt\n        /* \"#utility.yul\":18708:18764   */\n      iszero\n      tag_459\n      jumpi\n        /* \"#utility.yul\":18744:18762   */\n      tag_460\n      tag_266\n      jump\t// in\n    tag_460:\n        /* \"#utility.yul\":18708:18764   */\n    tag_459:\n        /* \"#utility.yul\":18794:18798   */\n      0x20\n        /* \"#utility.yul\":18786:18792   */\n      dup3\n        /* \"#utility.yul\":18782:18799   */\n      mul\n        /* \"#utility.yul\":18774:18799   */\n      swap1\n      pop\n        /* \"#utility.yul\":18854:18858   */\n      0x20\n        /* \"#utility.yul\":18848:18852   */\n      dup2\n        /* \"#utility.yul\":18844:18859   */\n      add\n        /* \"#utility.yul\":18836:18859   */\n      swap1\n      pop\n        /* \"#utility.yul\":18555:18866   */\n      swap2\n      swap1\n      pop\n      jump\t// out\n        /* \"#utility.yul\":18872:19015   */\n    tag_270:\n        /* \"#utility.yul\":18929:18934   */\n      0x00\n        /* \"#utility.yul\":18960:18966   */\n      dup2\n        /* \"#utility.yul\":18954:18967   */\n      mload\n        /* \"#utility.yul\":18945:18967   */\n      swap1\n      pop\n        /* \"#utility.yul\":18976:19009   */\n      tag_462\n        /* \"#utility.yul\":19003:19008   */\n      dup2\n        /* \"#utility.yul\":18976:19009   */\n      tag_224\n      jump\t// in\n    tag_462:\n        /* \"#utility.yul\":18872:19015   */\n      swap3\n      swap2\n      pop\n      pop\n      jump\t// out\n        /* \"#utility.yul\":19038:19770   */\n    tag_271:\n        /* \"#utility.yul\":19145:19150   */\n      0x00\n        /* \"#utility.yul\":19170:19251   */\n      tag_464\n        /* \"#utility.yul\":19186:19250   */\n      tag_465\n        /* \"#utility.yul\":19243:19249   */\n      dup5\n        /* \"#utility.yul\":19186:19250   */\n      tag_269\n      jump\t// in\n    tag_465:\n        /* \"#utility.yul\":19170:19251   */\n      tag_268\n      jump\t// in\n    tag_464:\n        /* \"#utility.yul\":19161:19251   */\n      swap1\n      pop\n        /* \"#utility.yul\":19271:19276   */\n      dup1\n        /* \"#utility.yul\":19300:19306   */\n      dup4\n        /* \"#utility.yul\":19293:19298   */\n      dup3\n        /* \"#utility.yul\":19286:19307   */\n      mstore\n        /* \"#utility.yul\":19334:19338   */\n      0x20\n        /* \"#utility.yul\":19327:19332   */\n      dup3\n        /* \"#utility.yul\":19323:19339   */\n      add\n        /* \"#utility.yul\":19316:19339   */\n      swap1\n      pop\n        /* \"#utility.yul\":19387:19391   */\n      0x20\n        /* \"#utility.yul\":19379:19385   */\n      dup5\n        /* \"#utility.yul\":19375:19392   */\n      mul\n        /* \"#utility.yul\":19367:19373   */\n      dup4\n        /* \"#utility.yul\":19363:19393   */\n      add\n        /* \"#utility.yul\":19416:19419   */\n      dup6\n        /* \"#utility.yul\":19408:19414   */\n      dup2\n        /* \"#utility.yul\":19405:19420   */\n      gt\n        /* \"#utility.yul\":19402:19524   */\n      iszero\n      tag_466\n      jumpi\n        /* \"#utility.yul\":19435:19514   */\n      tag_467\n      tag_230\n      jump\t// in\n    tag_467:\n        /* \"#utility.yul\":19402:19524   */\n    tag_466:\n        /* \"#utility.yul\":19550:19556   */\n      dup4\n        /* \"#utility.yul\":19533:19764   */\n    tag_468:\n        /* \"#utility.yul\":19567:19573   */\n      dup2\n        /* \"#utility.yul\":19562:19565   */\n      dup2\n        /* \"#utility.yul\":19559:19574   */\n      lt\n        /* \"#utility.yul\":19533:19764   */\n      iszero\n      tag_470\n      jumpi\n        /* \"#utility.yul\":19642:19645   */\n      dup1\n        /* \"#utility.yul\":19671:19719   */\n      tag_471\n        /* \"#utility.yul\":19715:19718   */\n      dup9\n        /* \"#utility.yul\":19703:19713   */\n      dup3\n        /* \"#utility.yul\":19671:19719   */\n      tag_270\n      jump\t// in\n    tag_471:\n        /* \"#utility.yul\":19666:19669   */\n      dup5\n        /* \"#utility.yul\":19659:19720   */\n      mstore\n        /* \"#utility.yul\":19749:19753   */\n      0x20\n        /* \"#utility.yul\":19744:19747   */\n      dup5\n        /* \"#utility.yul\":19740:19754   */\n      add\n        /* \"#utility.yul\":19733:19754   */\n      swap4\n      pop\n        /* \"#utility.yul\":19609:19764   */\n      pop\n        /* \"#utility.yul\":19593:19597   */\n      0x20\n        /* \"#utility.yul\":19588:19591   */\n      dup2\n        /* \"#utility.yul\":19584:19598   */\n      add\n        /* \"#utility.yul\":19577:19598   */\n      swap1\n      pop\n        /* \"#utility.yul\":19533:19764   */\n      jump(tag_468)\n    tag_470:\n        /* \"#utility.yul\":19537:19558   */\n      pop\n        /* \"#utility.yul\":19151:19770   */\n      pop\n      pop\n        /* \"#utility.yul\":19038:19770   */\n      swap4\n      swap3\n      pop\n      pop\n      pop\n      jump\t// out\n        /* \"#utility.yul\":19793:20178   */\n    tag_272:\n        /* \"#utility.yul\":19875:19880   */\n      0x00\n        /* \"#utility.yul\":19924:19927   */\n      dup3\n        /* \"#utility.yul\":19917:19921   */\n      0x1f\n        /* \"#utility.yul\":19909:19915   */\n      dup4\n        /* \"#utility.yul\":19905:19922   */\n      add\n        /* \"#utility.yul\":19901:19928   */\n      slt\n        /* \"#utility.yul\":19891:20013   */\n      tag_473\n      jumpi\n        /* \"#utility.yul\":19932:20011   */\n      tag_474\n      tag_228\n      jump\t// in\n    tag_474:\n        /* \"#utility.yul\":19891:20013   */\n    tag_473:\n        /* \"#utility.yul\":20042:20048   */\n      dup2\n        /* \"#utility.yul\":20036:20049   */\n      mload\n        /* \"#utility.yul\":20067:20172   */\n      tag_475\n        /* \"#utility.yul\":20168:20171   */\n      dup5\n        /* \"#utility.yul\":20160:20166   */\n      dup3\n        /* \"#utility.yul\":20153:20157   */\n      0x20\n        /* \"#utility.yul\":20145:20151   */\n      dup7\n        /* \"#utility.yul\":20141:20158   */\n      add\n        /* \"#utility.yul\":20067:20172   */\n      tag_271\n      jump\t// in\n    tag_475:\n        /* \"#utility.yul\":20058:20172   */\n      swap2\n      pop\n        /* \"#utility.yul\":19881:20178   */\n      pop\n        /* \"#utility.yul\":19793:20178   */\n      swap3\n      swap2\n      pop\n      pop\n      jump\t// out\n        /* \"#utility.yul\":20184:20738   */\n    tag_178:\n        /* \"#utility.yul\":20279:20285   */\n      0x00\n        /* \"#utility.yul\":20328:20330   */\n      0x20\n        /* \"#utility.yul\":20316:20325   */\n      dup3\n        /* \"#utility.yul\":20307:20314   */\n      dup5\n        /* \"#utility.yul\":20303:20326   */\n      sub\n        /* \"#utility.yul\":20299:20331   */\n      slt\n        /* \"#utility.yul\":20296:20415   */\n      iszero\n      tag_477\n      jumpi\n        /* \"#utility.yul\":20334:20413   */\n      tag_478\n      tag_219\n      jump\t// in\n    tag_478:\n        /* \"#utility.yul\":20296:20415   */\n    tag_477:\n        /* \"#utility.yul\":20475:20476   */\n      0x00\n        /* \"#utility.yul\":20464:20473   */\n      dup3\n        /* \"#utility.yul\":20460:20477   */\n      add\n        /* \"#utility.yul\":20454:20478   */\n      mload\n        /* \"#utility.yul\":20505:20523   */\n      0xffffffffffffffff\n        /* \"#utility.yul\":20497:20503   */\n      dup2\n        /* \"#utility.yul\":20494:20524   */\n      gt\n        /* \"#utility.yul\":20491:20608   */\n      iszero\n      tag_479\n      jumpi\n        /* \"#utility.yul\":20527:20606   */\n      tag_480\n      tag_220\n      jump\t// in\n    tag_480:\n        /* \"#utility.yul\":20491:20608   */\n    tag_479:\n        /* \"#utility.yul\":20632:20721   */\n      tag_481\n        /* \"#utility.yul\":20713:20720   */\n      dup5\n        /* \"#utility.yul\":20704:20710   */\n      dup3\n        /* \"#utility.yul\":20693:20702   */\n      dup6\n        /* \"#utility.yul\":20689:20711   */\n      add\n        /* \"#utility.yul\":20632:20721   */\n      tag_272\n      jump\t// in\n    tag_481:\n        /* \"#utility.yul\":20622:20721   */\n      swap2\n      pop\n        /* \"#utility.yul\":20425:20731   */\n      pop\n        /* \"#utility.yul\":20184:20738   */\n      swap3\n      swap2\n      pop\n      pop\n      jump\t// out\n        /* \"#utility.yul\":20744:20907   */\n    tag_273:\n        /* \"#utility.yul\":20884:20899   */\n      0x416c726561647920766f74656400000000000000000000000000000000000000\n        /* \"#utility.yul\":20880:20881   */\n      0x00\n        /* \"#utility.yul\":20872:20878   */\n      dup3\n        /* \"#utility.yul\":20868:20882   */\n      add\n        /* \"#utility.yul\":20861:20900   */\n      mstore\n        /* \"#utility.yul\":20744:20907   */\n      pop\n      jump\t// out\n        /* \"#utility.yul\":20913:21279   */\n    tag_274:\n        /* \"#utility.yul\":21055:21058   */\n      0x00\n        /* \"#utility.yul\":21076:21143   */\n      tag_484\n        /* \"#utility.yul\":21140:21142   */\n      0x0d\n        /* \"#utility.yul\":21135:21138   */\n      dup4\n        /* \"#utility.yul\":21076:21143   */\n      tag_214\n      jump\t// in\n    tag_484:\n        /* \"#utility.yul\":21069:21143   */\n      swap2\n      pop\n        /* \"#utility.yul\":21152:21245   */\n      tag_485\n        /* \"#utility.yul\":21241:21244   */\n      dup3\n        /* \"#utility.yul\":21152:21245   */\n      tag_273\n      jump\t// in\n    tag_485:\n        /* \"#utility.yul\":21270:21272   */\n      0x20\n        /* \"#utility.yul\":21265:21268   */\n      dup3\n        /* \"#utility.yul\":21261:21273   */\n      add\n        /* \"#utility.yul\":21254:21273   */\n      swap1\n      pop\n        /* \"#utility.yul\":20913:21279   */\n      swap2\n      swap1\n      pop\n      jump\t// out\n        /* \"#utility.yul\":21285:21704   */\n    tag_186:\n        /* \"#utility.yul\":21451:21455   */\n      0x00\n        /* \"#utility.yul\":21489:21491   */\n      0x20\n        /* \"#utility.yul\":21478:21487   */\n      dup3\n        /* \"#utility.yul\":21474:21492   */\n      add\n        /* \"#utility.yul\":21466:21492   */\n      swap1\n      pop\n        /* \"#utility.yul\":21538:21547   */\n      dup2\n        /* \"#utility.yul\":21532:21536   */\n      dup2\n        /* \"#utility.yul\":21528:21548   */\n      sub\n        /* \"#utility.yul\":21524:21525   */\n      0x00\n        /* \"#utility.yul\":21513:21522   */\n      dup4\n        /* \"#utility.yul\":21509:21526   */\n      add\n        /* \"#utility.yul\":21502:21549   */\n      mstore\n        /* \"#utility.yul\":21566:21697   */\n      tag_487\n        /* \"#utility.yul\":21692:21696   */\n      dup2\n        /* \"#utility.yul\":21566:21697   */\n      tag_274\n      jump\t// in\n    tag_487:\n        /* \"#utility.yul\":21558:21697   */\n      swap1\n      pop\n        /* \"#utility.yul\":21285:21704   */\n      swap2\n      swap1\n      pop\n      jump\t// out\n        /* \"#utility.yul\":21710:22085   */\n    tag_188:\n        /* \"#utility.yul\":21749:21752   */\n      0x00\n        /* \"#utility.yul\":21768:21787   */\n      tag_489\n        /* \"#utility.yul\":21785:21786   */\n      dup3\n        /* \"#utility.yul\":21768:21787   */\n      tag_252\n      jump\t// in\n    tag_489:\n        /* \"#utility.yul\":21763:21787   */\n      swap2\n      pop\n        /* \"#utility.yul\":21801:21820   */\n      tag_490\n        /* \"#utility.yul\":21818:21819   */\n      dup4\n        /* \"#utility.yul\":21801:21820   */\n      tag_252\n      jump\t// in\n    tag_490:\n        /* \"#utility.yul\":21796:21820   */\n      swap3\n      pop\n        /* \"#utility.yul\":21843:21844   */\n      dup3\n        /* \"#utility.yul\":21840:21841   */\n      dup3\n        /* \"#utility.yul\":21836:21845   */\n      add\n        /* \"#utility.yul\":21829:21845   */\n      swap1\n      pop\n        /* \"#utility.yul\":22041:22042   */\n      dup3\n        /* \"#utility.yul\":22036:22039   */\n      dup2\n        /* \"#utility.yul\":22032:22043   */\n      slt\n        /* \"#utility.yul\":22025:22044   */\n      iszero\n        /* \"#utility.yul\":22021:22022   */\n      0x00\n        /* \"#utility.yul\":22018:22019   */\n      dup4\n        /* \"#utility.yul\":22014:22023   */\n      slt\n        /* \"#utility.yul\":22010:22045   */\n      and\n        /* \"#utility.yul\":21993:21994   */\n      dup4\n        /* \"#utility.yul\":21988:21991   */\n      dup3\n        /* \"#utility.yul\":21984:21995   */\n      slt\n        /* \"#utility.yul\":21979:21980   */\n      0x00\n        /* \"#utility.yul\":21976:21977   */\n      dup5\n        /* \"#utility.yul\":21972:21981   */\n      slt\n        /* \"#utility.yul\":21965:21982   */\n      iszero\n        /* \"#utility.yul\":21961:21996   */\n      and\n        /* \"#utility.yul\":21945:22055   */\n      or\n        /* \"#utility.yul\":21942:22078   */\n      iszero\n      tag_491\n      jumpi\n        /* \"#utility.yul\":22058:22076   */\n      tag_492\n      tag_261\n      jump\t// in\n    tag_492:\n        /* \"#utility.yul\":21942:22078   */\n    tag_491:\n        /* \"#utility.yul\":21710:22085   */\n      swap3\n      swap2\n      pop\n      pop\n      jump\t// out\n\n    auxdata: 0xa2646970667358221220a6d0300f475063e7ce6ca7c4692ae2cae045c59ef4f63b933ad9470f50a1d76e64736f6c63430008110033\n}\n\nsub_1: assembly {\n        /* \"ApplicantPool.sol\":90:4186  contract ApplicantPool {... */\n      mstore(0x40, 0x80)\n        /* \"ApplicantPool.sol\":676:683  1000000 */\n      0x0f4240\n        /* \"ApplicantPool.sol\":640:683  uint256 public applicantFeeAmount = 1000000 */\n      0x09\n      sstore\n        /* \"ApplicantPool.sol\":692:845  constructor(address memberMap, address _memberPoolAddress) {... */\n      callvalue\n      dup1\n      iszero\n      tag_1\n      jumpi\n      0x00\n      dup1\n      revert\n    tag_1:\n      pop\n      mload(0x40)\n      sub(codesize, bytecodeSize)\n      dup1\n      bytecodeSize\n      dup4\n      codecopy\n      dup2\n      dup2\n      add\n      0x40\n      mstore\n      dup2\n      add\n      swap1\n      tag_2\n      swap2\n      swap1\n      tag_3\n      jump\t// in\n    tag_2:\n        /* \"ApplicantPool.sol\":778:787  memberMap */\n      dup2\n        /* \"ApplicantPool.sol\":762:765  map */\n      0x06\n      0x00\n        /* \"ApplicantPool.sol\":762:788  map = MemberMap(memberMap) */\n      0x0100\n      exp\n      dup2\n      sload\n      dup2\n      0xffffffffffffffffffffffffffffffffffffffff\n      mul\n      not\n      and\n      swap1\n      dup4\n      0xffffffffffffffffffffffffffffffffffffffff\n      and\n      mul\n      or\n      swap1\n      sstore\n      pop\n        /* \"ApplicantPool.sol\":819:837  _memberPoolAddress */\n      dup1\n        /* \"ApplicantPool.sol\":799:816  memberPoolAddress */\n      0x07\n      0x00\n        /* \"ApplicantPool.sol\":799:837  memberPoolAddress = _memberPoolAddress */\n      0x0100\n      exp\n      dup2\n      sload\n      dup2\n      0xffffffffffffffffffffffffffffffffffffffff\n      mul\n      not\n      and\n      swap1\n      dup4\n      0xffffffffffffffffffffffffffffffffffffffff\n      and\n      mul\n      or\n      swap1\n      sstore\n      pop\n        /* \"ApplicantPool.sol\":692:845  constructor(address memberMap, address _memberPoolAddress) {... */\n      pop\n      pop\n        /* \"ApplicantPool.sol\":90:4186  contract ApplicantPool {... */\n      jump(tag_6)\n        /* \"#utility.yul\":88:205   */\n    tag_8:\n        /* \"#utility.yul\":197:198   */\n      0x00\n        /* \"#utility.yul\":194:195   */\n      dup1\n        /* \"#utility.yul\":187:199   */\n      revert\n        /* \"#utility.yul\":334:460   */\n    tag_10:\n        /* \"#utility.yul\":371:378   */\n      0x00\n        /* \"#utility.yul\":411:453   */\n      0xffffffffffffffffffffffffffffffffffffffff\n        /* \"#utility.yul\":404:409   */\n      dup3\n        /* \"#utility.yul\":400:454   */\n      and\n        /* \"#utility.yul\":389:454   */\n      swap1\n      pop\n        /* \"#utility.yul\":334:460   */\n      swap2\n      swap1\n      pop\n      jump\t// out\n        /* \"#utility.yul\":466:562   */\n    tag_11:\n        /* \"#utility.yul\":503:510   */\n      0x00\n        /* \"#utility.yul\":532:556   */\n      tag_20\n        /* \"#utility.yul\":550:555   */\n      dup3\n        /* \"#utility.yul\":532:556   */\n      tag_10\n      jump\t// in\n    tag_20:\n        /* \"#utility.yul\":521:556   */\n      swap1\n      pop\n        /* \"#utility.yul\":466:562   */\n      swap2\n      swap1\n      pop\n      jump\t// out\n        /* \"#utility.yul\":568:690   */\n    tag_12:\n        /* \"#utility.yul\":641:665   */\n      tag_22\n        /* \"#utility.yul\":659:664   */\n      dup2\n        /* \"#utility.yul\":641:665   */\n      tag_11\n      jump\t// in\n    tag_22:\n        /* \"#utility.yul\":634:639   */\n      dup2\n        /* \"#utility.yul\":631:666   */\n      eq\n        /* \"#utility.yul\":621:684   */\n      tag_23\n      jumpi\n        /* \"#utility.yul\":680:681   */\n      0x00\n        /* \"#utility.yul\":677:678   */\n      dup1\n        /* \"#utility.yul\":670:682   */\n      revert\n        /* \"#utility.yul\":621:684   */\n    tag_23:\n        /* \"#utility.yul\":568:690   */\n      pop\n      jump\t// out\n        /* \"#utility.yul\":696:839   */\n    tag_13:\n        /* \"#utility.yul\":753:758   */\n      0x00\n        /* \"#utility.yul\":784:790   */\n      dup2\n        /* \"#utility.yul\":778:791   */\n      mload\n        /* \"#utility.yul\":769:791   */\n      swap1\n      pop\n        /* \"#utility.yul\":800:833   */\n      tag_25\n        /* \"#utility.yul\":827:832   */\n      dup2\n        /* \"#utility.yul\":800:833   */\n      tag_12\n      jump\t// in\n    tag_25:\n        /* \"#utility.yul\":696:839   */\n      swap3\n      swap2\n      pop\n      pop\n      jump\t// out\n        /* \"#utility.yul\":845:1352   */\n    tag_3:\n        /* \"#utility.yul\":924:930   */\n      0x00\n        /* \"#utility.yul\":932:938   */\n      dup1\n        /* \"#utility.yul\":981:983   */\n      0x40\n        /* \"#utility.yul\":969:978   */\n      dup4\n        /* \"#utility.yul\":960:967   */\n      dup6\n        /* \"#utility.yul\":956:979   */\n      sub\n        /* \"#utility.yul\":952:984   */\n      slt\n        /* \"#utility.yul\":949:1068   */\n      iszero\n      tag_27\n      jumpi\n        /* \"#utility.yul\":987:1066   */\n      tag_28\n      tag_8\n      jump\t// in\n    tag_28:\n        /* \"#utility.yul\":949:1068   */\n    tag_27:\n        /* \"#utility.yul\":1107:1108   */\n      0x00\n        /* \"#utility.yul\":1132:1196   */\n      tag_29\n        /* \"#utility.yul\":1188:1195   */\n      dup6\n        /* \"#utility.yul\":1179:1185   */\n      dup3\n        /* \"#utility.yul\":1168:1177   */\n      dup7\n        /* \"#utility.yul\":1164:1186   */\n      add\n        /* \"#utility.yul\":1132:1196   */\n      tag_13\n      jump\t// in\n    tag_29:\n        /* \"#utility.yul\":1122:1196   */\n      swap3\n      pop\n        /* \"#utility.yul\":1078:1206   */\n      pop\n        /* \"#utility.yul\":1245:1247   */\n      0x20\n        /* \"#utility.yul\":1271:1335   */\n      tag_30\n        /* \"#utility.yul\":1327:1334   */\n      dup6\n        /* \"#utility.yul\":1318:1324   */\n      dup3\n        /* \"#utility.yul\":1307:1316   */\n      dup7\n        /* \"#utility.yul\":1303:1325   */\n      add\n        /* \"#utility.yul\":1271:1335   */\n      tag_13\n      jump\t// in\n    tag_30:\n        /* \"#utility.yul\":1261:1335   */\n      swap2\n      pop\n        /* \"#utility.yul\":1216:1345   */\n      pop\n        /* \"#utility.yul\":845:1352   */\n      swap3\n      pop\n      swap3\n      swap1\n      pop\n      jump\t// out\n        /* \"ApplicantPool.sol\":90:4186  contract ApplicantPool {... */\n    tag_6:\n      dataSize(sub_0)\n      dup1\n      dataOffset(sub_0)\n      0x00\n      codecopy\n      0x00\n      return\n    stop\n\n    sub_0: assembly {\n            /* \"ApplicantPool.sol\":90:4186  contract ApplicantPool {... */\n          mstore(0x40, 0x80)\n          jumpi(tag_1, lt(calldatasize, 0x04))\n          shr(0xe0, calldataload(0x00))\n          dup1\n          0x930235b4\n          gt\n          tag_14\n          jumpi\n          dup1\n          0x930235b4\n          eq\n          tag_8\n          jumpi\n          dup1\n          0xa10c8a97\n          eq\n          tag_9\n          jumpi\n          dup1\n          0xb672bdcb\n          eq\n          tag_10\n          jumpi\n          dup1\n          0xb69ef8a8\n          eq\n          tag_11\n          jumpi\n          dup1\n          0xd9a87535\n          eq\n          tag_12\n          jumpi\n          dup1\n          0xfd591902\n          eq\n          tag_13\n          jumpi\n          jump(tag_1)\n        tag_14:\n          dup1\n          0xad808f\n          eq\n          tag_2\n          jumpi\n          dup1\n          0x1292a282\n          eq\n          tag_3\n          jumpi\n          dup1\n          0x273f868e\n          eq\n          tag_4\n          jumpi\n          dup1\n          0x28f4694c\n          eq\n          tag_5\n          jumpi\n          dup1\n          0x455772d2\n          eq\n          tag_6\n          jumpi\n          dup1\n          0x8c468cd4\n          eq\n          tag_7\n          jumpi\n        tag_1:\n          0x00\n          dup1\n          revert\n            /* \"ApplicantPool.sol\":2696:2893  function getApplicantWords(address applicant)... */\n        tag_2:\n          callvalue\n          dup1\n          iszero\n          tag_15\n          jumpi\n          0x00\n          dup1\n          revert\n        tag_15:\n          pop\n          tag_16\n          0x04\n          dup1\n          calldatasize\n          sub\n          dup2\n          add\n          swap1\n          tag_17\n          swap2\n          swap1\n          tag_18\n          jump\t// in\n        tag_17:\n          tag_19\n          jump\t// in\n        tag_16:\n          mload(0x40)\n          tag_20\n          swap2\n          swap1\n          tag_21\n          jump\t// in\n        tag_20:\n          mload(0x40)\n          dup1\n          swap2\n          sub\n          swap1\n          return\n            /* \"ApplicantPool.sol\":3081:3452  function approveApplicant(address applicant)... */\n        tag_3:\n          callvalue\n          dup1\n          iszero\n          tag_22\n          jumpi\n          0x00\n          dup1\n          revert\n        tag_22:\n          pop\n          tag_23\n          0x04\n          dup1\n          calldatasize\n          sub\n          dup2\n          add\n          swap1\n          tag_24\n          swap2\n          swap1\n          tag_18\n          jump\t// in\n        tag_24:\n          tag_25\n          jump\t// in\n        tag_23:\n          stop\n            /* \"ApplicantPool.sol\":3460:3814  function rejectApplicant(address applicant)... */\n        tag_4:\n          callvalue\n          dup1\n          iszero\n          tag_26\n          jumpi\n          0x00\n          dup1\n          revert\n        tag_26:\n          pop\n          tag_27\n          0x04\n          dup1\n          calldatasize\n          sub\n          dup2\n          add\n          swap1\n          tag_28\n          swap2\n          swap1\n          tag_18\n          jump\t// in\n        tag_28:\n          tag_29\n          jump\t// in\n        tag_27:\n          stop\n            /* \"ApplicantPool.sol\":1995:2518  function voteForApplicant(address applicant) public memberOnly(msg.sender) {... */\n        tag_5:\n          callvalue\n          dup1\n          iszero\n          tag_30\n          jumpi\n          0x00\n          dup1\n          revert\n        tag_30:\n          pop\n          tag_31\n          0x04\n          dup1\n          calldatasize\n          sub\n          dup2\n          add\n          swap1\n          tag_32\n          swap2\n          swap1\n          tag_18\n          jump\t// in\n        tag_32:\n          tag_33\n          jump\t// in\n        tag_31:\n          stop\n            /* \"ApplicantPool.sol\":1173:1344  function getApplicants()... */\n        tag_6:\n          callvalue\n          dup1\n          iszero\n          tag_34\n          jumpi\n          0x00\n          dup1\n          revert\n        tag_34:\n          pop\n          tag_35\n          tag_36\n          jump\t// in\n        tag_35:\n          mload(0x40)\n          tag_37\n          swap2\n          swap1\n          tag_38\n          jump\t// in\n        tag_37:\n          mload(0x40)\n          dup1\n          swap2\n          sub\n          swap1\n          return\n            /* \"ApplicantPool.sol\":273:303  address[] public applicantList */\n        tag_7:\n          callvalue\n          dup1\n          iszero\n          tag_39\n          jumpi\n          0x00\n          dup1\n          revert\n        tag_39:\n          pop\n          tag_40\n          0x04\n          dup1\n          calldatasize\n          sub\n          dup2\n          add\n          swap1\n          tag_41\n          swap2\n          swap1\n          tag_42\n          jump\t// in\n        tag_41:\n          tag_43\n          jump\t// in\n        tag_40:\n          mload(0x40)\n          tag_44\n          swap2\n          swap1\n          tag_45\n          jump\t// in\n        tag_44:\n          mload(0x40)\n          dup1\n          swap2\n          sub\n          swap1\n          return\n            /* \"ApplicantPool.sol\":572:604  address public memberPoolAddress */\n        tag_8:\n          callvalue\n          dup1\n          iszero\n          tag_46\n          jumpi\n          0x00\n          dup1\n          revert\n        tag_46:\n          pop\n          tag_47\n          tag_48\n          jump\t// in\n        tag_47:\n          mload(0x40)\n          tag_49\n          swap2\n          swap1\n          tag_45\n          jump\t// in\n        tag_49:\n          mload(0x40)\n          dup1\n          swap2\n          sub\n          swap1\n          return\n            /* \"ApplicantPool.sol\":640:683  uint256 public applicantFeeAmount = 1000000 */\n        tag_9:\n          callvalue\n          dup1\n          iszero\n          tag_50\n          jumpi\n          0x00\n          dup1\n          revert\n        tag_50:\n          pop\n          tag_51\n          tag_52\n          jump\t// in\n        tag_51:\n          mload(0x40)\n          tag_53\n          swap2\n          swap1\n          tag_54\n          jump\t// in\n        tag_53:\n          mload(0x40)\n          dup1\n          swap2\n          sub\n          swap1\n          return\n            /* \"ApplicantPool.sol\":2526:2688  function getApplicantVoteEndDate(address applicant)... */\n        tag_10:\n          callvalue\n          dup1\n          iszero\n          tag_55\n          jumpi\n          0x00\n          dup1\n          revert\n        tag_55:\n          pop\n          tag_56\n          0x04\n          dup1\n          calldatasize\n          sub\n          dup2\n          add\n          swap1\n          tag_57\n          swap2\n          swap1\n          tag_18\n          jump\t// in\n        tag_57:\n          tag_58\n          jump\t// in\n        tag_56:\n          mload(0x40)\n          tag_59\n          swap2\n          swap1\n          tag_54\n          jump\t// in\n        tag_59:\n          mload(0x40)\n          dup1\n          swap2\n          sub\n          swap1\n          return\n            /* \"ApplicantPool.sol\":611:633  uint256 public balance */\n        tag_11:\n          callvalue\n          dup1\n          iszero\n          tag_60\n          jumpi\n          0x00\n          dup1\n          revert\n        tag_60:\n          pop\n          tag_61\n          tag_62\n          jump\t// in\n        tag_61:\n          mload(0x40)\n          tag_63\n          swap2\n          swap1\n          tag_54\n          jump\t// in\n        tag_63:\n          mload(0x40)\n          dup1\n          swap2\n          sub\n          swap1\n          return\n            /* \"ApplicantPool.sol\":2901:3073  function getApplicantVoteCount(address applicant)... */\n        tag_12:\n          callvalue\n          dup1\n          iszero\n          tag_64\n          jumpi\n          0x00\n          dup1\n          revert\n        tag_64:\n          pop\n          tag_65\n          0x04\n          dup1\n          calldatasize\n          sub\n          dup2\n          add\n          swap1\n          tag_66\n          swap2\n          swap1\n          tag_18\n          jump\t// in\n        tag_66:\n          tag_67\n          jump\t// in\n        tag_65:\n          mload(0x40)\n          tag_68\n          swap2\n          swap1\n          tag_54\n          jump\t// in\n        tag_68:\n          mload(0x40)\n          dup1\n          swap2\n          sub\n          swap1\n          return\n            /* \"ApplicantPool.sol\":1352:1987  function createApplicant(string calldata reason) public payable {... */\n        tag_13:\n          tag_69\n          0x04\n          dup1\n          calldatasize\n          sub\n          dup2\n          add\n          swap1\n          tag_70\n          swap2\n          swap1\n          tag_71\n          jump\t// in\n        tag_70:\n          tag_72\n          jump\t// in\n        tag_69:\n          stop\n            /* \"ApplicantPool.sol\":2696:2893  function getApplicantWords(address applicant)... */\n        tag_19:\n            /* \"ApplicantPool.sol\":2822:2835  string memory */\n          0x60\n            /* \"ApplicantPool.sol\":2792:2802  msg.sender */\n          caller\n            /* \"ApplicantPool.sol\":922:925  map */\n          0x06\n          0x00\n          swap1\n          sload\n          swap1\n          0x0100\n          exp\n          swap1\n          div\n          0xffffffffffffffffffffffffffffffffffffffff\n          and\n            /* \"ApplicantPool.sol\":922:934  map.isMember */\n          0xffffffffffffffffffffffffffffffffffffffff\n          and\n          0x39ac7a08\n            /* \"ApplicantPool.sol\":935:941  sender */\n          dup3\n            /* \"ApplicantPool.sol\":943:960  memberPoolAddress */\n          0x07\n          0x00\n          swap1\n          sload\n          swap1\n          0x0100\n          exp\n          swap1\n          div\n          0xffffffffffffffffffffffffffffffffffffffff\n          and\n            /* \"ApplicantPool.sol\":922:961  map.isMember(sender, memberPoolAddress) */\n          mload(0x40)\n          dup4\n          0xffffffff\n          and\n          0xe0\n          shl\n          dup2\n          mstore\n          0x04\n          add\n          tag_74\n          swap3\n          swap2\n          swap1\n          tag_75\n          jump\t// in\n        tag_74:\n          0x20\n          mload(0x40)\n          dup1\n          dup4\n          sub\n          dup2\n          dup7\n          gas\n          staticcall\n          iszero\n          dup1\n          iszero\n          tag_77\n          jumpi\n          returndatasize\n          0x00\n          dup1\n          returndatacopy\n          revert(0x00, returndatasize)\n        tag_77:\n          pop\n          pop\n          pop\n          pop\n          mload(0x40)\n          returndatasize\n          not(0x1f)\n          0x1f\n          dup3\n          add\n          and\n          dup3\n          add\n          dup1\n          0x40\n          mstore\n          pop\n          dup2\n          add\n          swap1\n          tag_78\n          swap2\n          swap1\n          tag_79\n          jump\t// in\n        tag_78:\n            /* \"ApplicantPool.sol\":900:1013  require(... */\n          tag_80\n          jumpi\n          mload(0x40)\n          0x08c379a000000000000000000000000000000000000000000000000000000000\n          dup2\n          mstore\n          0x04\n          add\n          tag_81\n          swap1\n          tag_82\n          jump\t// in\n        tag_81:\n          mload(0x40)\n          dup1\n          swap2\n          sub\n          swap1\n          revert\n        tag_80:\n            /* \"ApplicantPool.sol\":2860:2874  applicantWords */\n          0x04\n            /* \"ApplicantPool.sol\":2860:2885  applicantWords[applicant] */\n          0x00\n            /* \"ApplicantPool.sol\":2875:2884  applicant */\n          dup5\n            /* \"ApplicantPool.sol\":2860:2885  applicantWords[applicant] */\n          0xffffffffffffffffffffffffffffffffffffffff\n          and\n          0xffffffffffffffffffffffffffffffffffffffff\n          and\n          dup2\n          mstore\n          0x20\n          add\n          swap1\n          dup2\n          mstore\n          0x20\n          add\n          0x00\n          keccak256\n            /* \"ApplicantPool.sol\":2853:2885  return applicantWords[applicant] */\n          dup1\n          sload\n          tag_84\n          swap1\n          tag_85\n          jump\t// in\n        tag_84:\n          dup1\n          0x1f\n          add\n          0x20\n          dup1\n          swap2\n          div\n          mul\n          0x20\n          add\n          mload(0x40)\n          swap1\n          dup2\n          add\n          0x40\n          mstore\n          dup1\n          swap3\n          swap2\n          swap1\n          dup2\n          dup2\n          mstore\n          0x20\n          add\n          dup3\n          dup1\n          sload\n          tag_86\n          swap1\n          tag_85\n          jump\t// in\n        tag_86:\n          dup1\n          iszero\n          tag_87\n          jumpi\n          dup1\n          0x1f\n          lt\n          tag_88\n          jumpi\n          0x0100\n          dup1\n          dup4\n          sload\n          div\n          mul\n          dup4\n          mstore\n          swap2\n          0x20\n          add\n          swap2\n          jump(tag_87)\n        tag_88:\n          dup3\n          add\n          swap2\n          swap1\n          0x00\n          mstore\n          keccak256(0x00, 0x20)\n          swap1\n        tag_89:\n          dup2\n          sload\n          dup2\n          mstore\n          swap1\n          0x01\n          add\n          swap1\n          0x20\n          add\n          dup1\n          dup4\n          gt\n          tag_89\n          jumpi\n          dup3\n          swap1\n          sub\n          0x1f\n          and\n          dup3\n          add\n          swap2\n        tag_87:\n          pop\n          pop\n          pop\n          pop\n          pop\n          swap2\n          pop\n            /* \"ApplicantPool.sol\":2696:2893  function getApplicantWords(address applicant)... */\n          pop\n          swap2\n          swap1\n          pop\n          jump\t// out\n            /* \"ApplicantPool.sol\":3081:3452  function approveApplicant(address applicant)... */\n        tag_25:\n            /* \"ApplicantPool.sol\":3166:3176  msg.sender */\n          caller\n            /* \"ApplicantPool.sol\":1110:1127  memberPoolAddress */\n          0x07\n          0x00\n          swap1\n          sload\n          swap1\n          0x0100\n          exp\n          swap1\n          div\n          0xffffffffffffffffffffffffffffffffffffffff\n          and\n            /* \"ApplicantPool.sol\":1100:1127  sender == memberPoolAddress */\n          0xffffffffffffffffffffffffffffffffffffffff\n          and\n            /* \"ApplicantPool.sol\":1100:1106  sender */\n          dup2\n            /* \"ApplicantPool.sol\":1100:1127  sender == memberPoolAddress */\n          0xffffffffffffffffffffffffffffffffffffffff\n          and\n          eq\n            /* \"ApplicantPool.sol\":1092:1145  require(sender == memberPoolAddress, \"Access Denied\") */\n          tag_91\n          jumpi\n          mload(0x40)\n          0x08c379a000000000000000000000000000000000000000000000000000000000\n          dup2\n          mstore\n          0x04\n          add\n          tag_92\n          swap1\n          tag_93\n          jump\t// in\n        tag_92:\n          mload(0x40)\n          dup1\n          swap2\n          sub\n          swap1\n          revert\n        tag_91:\n            /* \"ApplicantPool.sol\":3230:3247  memberPoolAddress */\n          0x07\n          0x00\n          swap1\n          sload\n          swap1\n          0x0100\n          exp\n          swap1\n          div\n          0xffffffffffffffffffffffffffffffffffffffff\n          and\n            /* \"ApplicantPool.sol\":3216:3247  msg.sender == memberPoolAddress */\n          0xffffffffffffffffffffffffffffffffffffffff\n          and\n            /* \"ApplicantPool.sol\":3216:3226  msg.sender */\n          caller\n            /* \"ApplicantPool.sol\":3216:3247  msg.sender == memberPoolAddress */\n          0xffffffffffffffffffffffffffffffffffffffff\n          and\n          eq\n            /* \"ApplicantPool.sol\":3194:3310  require(... */\n          tag_95\n          jumpi\n          mload(0x40)\n          0x08c379a000000000000000000000000000000000000000000000000000000000\n          dup2\n          mstore\n          0x04\n          add\n          tag_96\n          swap1\n          tag_97\n          jump\t// in\n        tag_96:\n          mload(0x40)\n          dup1\n          swap2\n          sub\n          swap1\n          revert\n        tag_95:\n            /* \"ApplicantPool.sol\":3321:3324  map */\n          0x06\n          0x00\n          swap1\n          sload\n          swap1\n          0x0100\n          exp\n          swap1\n          div\n          0xffffffffffffffffffffffffffffffffffffffff\n          and\n            /* \"ApplicantPool.sol\":3321:3334  map.addMember */\n          0xffffffffffffffffffffffffffffffffffffffff\n          and\n          0x9d58b15d\n            /* \"ApplicantPool.sol\":3335:3352  memberPoolAddress */\n          0x07\n          0x00\n          swap1\n          sload\n          swap1\n          0x0100\n          exp\n          swap1\n          div\n          0xffffffffffffffffffffffffffffffffffffffff\n          and\n            /* \"ApplicantPool.sol\":3354:3363  applicant */\n          dup5\n            /* \"ApplicantPool.sol\":3321:3364  map.addMember(memberPoolAddress, applicant) */\n          mload(0x40)\n          dup4\n          0xffffffff\n          and\n          0xe0\n          shl\n          dup2\n          mstore\n          0x04\n          add\n          tag_98\n          swap3\n          swap2\n          swap1\n          tag_75\n          jump\t// in\n        tag_98:\n          0x00\n          mload(0x40)\n          dup1\n          dup4\n          sub\n          dup2\n          0x00\n          dup8\n          dup1\n          extcodesize\n          iszero\n          dup1\n          iszero\n          tag_99\n          jumpi\n          0x00\n          dup1\n          revert\n        tag_99:\n          pop\n          gas\n          call\n          iszero\n          dup1\n          iszero\n          tag_101\n          jumpi\n          returndatasize\n          0x00\n          dup1\n          returndatacopy\n          revert(0x00, returndatasize)\n        tag_101:\n          pop\n          pop\n          pop\n          pop\n            /* \"ApplicantPool.sol\":3375:3400  _burnApplicant(applicant) */\n          tag_102\n            /* \"ApplicantPool.sol\":3390:3399  applicant */\n          dup3\n            /* \"ApplicantPool.sol\":3375:3389  _burnApplicant */\n          tag_103\n            /* \"ApplicantPool.sol\":3375:3400  _burnApplicant(applicant) */\n          jump\t// in\n        tag_102:\n            /* \"ApplicantPool.sol\":3418:3432  applicantVotes */\n          0x01\n            /* \"ApplicantPool.sol\":3418:3444  applicantVotes[msg.sender] */\n          0x00\n            /* \"ApplicantPool.sol\":3433:3443  msg.sender */\n          caller\n            /* \"ApplicantPool.sol\":3418:3444  applicantVotes[msg.sender] */\n          0xffffffffffffffffffffffffffffffffffffffff\n          and\n          0xffffffffffffffffffffffffffffffffffffffff\n          and\n          dup2\n          mstore\n          0x20\n          add\n          swap1\n          dup2\n          mstore\n          0x20\n          add\n          0x00\n          keccak256\n          0x00\n            /* \"ApplicantPool.sol\":3411:3444  delete applicantVotes[msg.sender] */\n          tag_104\n          swap2\n          swap1\n          tag_105\n          jump\t// in\n        tag_104:\n            /* \"ApplicantPool.sol\":3081:3452  function approveApplicant(address applicant)... */\n          pop\n          pop\n          jump\t// out\n            /* \"ApplicantPool.sol\":3460:3814  function rejectApplicant(address applicant)... */\n        tag_29:\n            /* \"ApplicantPool.sol\":3544:3554  msg.sender */\n          caller\n            /* \"ApplicantPool.sol\":1110:1127  memberPoolAddress */\n          0x07\n          0x00\n          swap1\n          sload\n          swap1\n          0x0100\n          exp\n          swap1\n          div\n          0xffffffffffffffffffffffffffffffffffffffff\n          and\n            /* \"ApplicantPool.sol\":1100:1127  sender == memberPoolAddress */\n          0xffffffffffffffffffffffffffffffffffffffff\n          and\n            /* \"ApplicantPool.sol\":1100:1106  sender */\n          dup2\n            /* \"ApplicantPool.sol\":1100:1127  sender == memberPoolAddress */\n          0xffffffffffffffffffffffffffffffffffffffff\n          and\n          eq\n            /* \"ApplicantPool.sol\":1092:1145  require(sender == memberPoolAddress, \"Access Denied\") */\n          tag_107\n          jumpi\n          mload(0x40)\n          0x08c379a000000000000000000000000000000000000000000000000000000000\n          dup2\n          mstore\n          0x04\n          add\n          tag_108\n          swap1\n          tag_93\n          jump\t// in\n        tag_108:\n          mload(0x40)\n          dup1\n          swap2\n          sub\n          swap1\n          revert\n        tag_107:\n            /* \"ApplicantPool.sol\":3580:3596  activeApplicants */\n          0x03\n            /* \"ApplicantPool.sol\":3580:3607  activeApplicants[applicant] */\n          0x00\n            /* \"ApplicantPool.sol\":3597:3606  applicant */\n          dup4\n            /* \"ApplicantPool.sol\":3580:3607  activeApplicants[applicant] */\n          0xffffffffffffffffffffffffffffffffffffffff\n          and\n          0xffffffffffffffffffffffffffffffffffffffff\n          and\n          dup2\n          mstore\n          0x20\n          add\n          swap1\n          dup2\n          mstore\n          0x20\n          add\n          0x00\n          keccak256\n          0x00\n          swap1\n          sload\n          swap1\n          0x0100\n          exp\n          swap1\n          div\n          0xff\n          and\n            /* \"ApplicantPool.sol\":3572:3637  require(activeApplicants[applicant], \"Invalid applicant address\") */\n          tag_110\n          jumpi\n          mload(0x40)\n          0x08c379a000000000000000000000000000000000000000000000000000000000\n          dup2\n          mstore\n          0x04\n          add\n          tag_111\n          swap1\n          tag_112\n          jump\t// in\n        tag_111:\n          mload(0x40)\n          dup1\n          swap2\n          sub\n          swap1\n          revert\n        tag_110:\n            /* \"ApplicantPool.sol\":3678:3683  false */\n          0x00\n            /* \"ApplicantPool.sol\":3648:3664  activeApplicants */\n          0x03\n            /* \"ApplicantPool.sol\":3648:3675  activeApplicants[applicant] */\n          0x00\n            /* \"ApplicantPool.sol\":3665:3674  applicant */\n          dup5\n            /* \"ApplicantPool.sol\":3648:3675  activeApplicants[applicant] */\n          0xffffffffffffffffffffffffffffffffffffffff\n          and\n          0xffffffffffffffffffffffffffffffffffffffff\n          and\n          dup2\n          mstore\n          0x20\n          add\n          swap1\n          dup2\n          mstore\n          0x20\n          add\n          0x00\n          keccak256\n          0x00\n            /* \"ApplicantPool.sol\":3648:3683  activeApplicants[applicant] = false */\n          0x0100\n          exp\n          dup2\n          sload\n          dup2\n          0xff\n          mul\n          not\n          and\n          swap1\n          dup4\n          iszero\n          iszero\n          mul\n          or\n          swap1\n          sstore\n          pop\n            /* \"ApplicantPool.sol\":3725:3726  1 */\n          0x01\n            /* \"ApplicantPool.sol\":3694:3709  applicantPoints */\n          0x02\n            /* \"ApplicantPool.sol\":3694:3721  applicantPoints[msg.sender] */\n          0x00\n            /* \"ApplicantPool.sol\":3710:3720  msg.sender */\n          caller\n            /* \"ApplicantPool.sol\":3694:3721  applicantPoints[msg.sender] */\n          0xffffffffffffffffffffffffffffffffffffffff\n          and\n          0xffffffffffffffffffffffffffffffffffffffff\n          and\n          dup2\n          mstore\n          0x20\n          add\n          swap1\n          dup2\n          mstore\n          0x20\n          add\n          0x00\n          keccak256\n          0x00\n            /* \"ApplicantPool.sol\":3694:3726  applicantPoints[msg.sender] -= 1 */\n          dup3\n          dup3\n          sload\n          tag_113\n          swap2\n          swap1\n          tag_114\n          jump\t// in\n        tag_113:\n          swap3\n          pop\n          pop\n          dup2\n          swap1\n          sstore\n          pop\n            /* \"ApplicantPool.sol\":3737:3762  _burnApplicant(applicant) */\n          tag_115\n            /* \"ApplicantPool.sol\":3752:3761  applicant */\n          dup3\n            /* \"ApplicantPool.sol\":3737:3751  _burnApplicant */\n          tag_103\n            /* \"ApplicantPool.sol\":3737:3762  _burnApplicant(applicant) */\n          jump\t// in\n        tag_115:\n            /* \"ApplicantPool.sol\":3780:3794  applicantVotes */\n          0x01\n            /* \"ApplicantPool.sol\":3780:3806  applicantVotes[msg.sender] */\n          0x00\n            /* \"ApplicantPool.sol\":3795:3805  msg.sender */\n          caller\n            /* \"ApplicantPool.sol\":3780:3806  applicantVotes[msg.sender] */\n          0xffffffffffffffffffffffffffffffffffffffff\n          and\n          0xffffffffffffffffffffffffffffffffffffffff\n          and\n          dup2\n          mstore\n          0x20\n          add\n          swap1\n          dup2\n          mstore\n          0x20\n          add\n          0x00\n          keccak256\n          0x00\n            /* \"ApplicantPool.sol\":3773:3806  delete applicantVotes[msg.sender] */\n          tag_116\n          swap2\n          swap1\n          tag_105\n          jump\t// in\n        tag_116:\n            /* \"ApplicantPool.sol\":3460:3814  function rejectApplicant(address applicant)... */\n          pop\n          pop\n          jump\t// out\n            /* \"ApplicantPool.sol\":1995:2518  function voteForApplicant(address applicant) public memberOnly(msg.sender) {... */\n        tag_33:\n            /* \"ApplicantPool.sol\":2058:2068  msg.sender */\n          caller\n            /* \"ApplicantPool.sol\":922:925  map */\n          0x06\n          0x00\n          swap1\n          sload\n          swap1\n          0x0100\n          exp\n          swap1\n          div\n          0xffffffffffffffffffffffffffffffffffffffff\n          and\n            /* \"ApplicantPool.sol\":922:934  map.isMember */\n          0xffffffffffffffffffffffffffffffffffffffff\n          and\n          0x39ac7a08\n            /* \"ApplicantPool.sol\":935:941  sender */\n          dup3\n            /* \"ApplicantPool.sol\":943:960  memberPoolAddress */\n          0x07\n          0x00\n          swap1\n          sload\n          swap1\n          0x0100\n          exp\n          swap1\n          div\n          0xffffffffffffffffffffffffffffffffffffffff\n          and\n            /* \"ApplicantPool.sol\":922:961  map.isMember(sender, memberPoolAddress) */\n          mload(0x40)\n          dup4\n          0xffffffff\n          and\n          0xe0\n          shl\n          dup2\n          mstore\n          0x04\n          add\n          tag_118\n          swap3\n          swap2\n          swap1\n          tag_75\n          jump\t// in\n        tag_118:\n          0x20\n          mload(0x40)\n          dup1\n          dup4\n          sub\n          dup2\n          dup7\n          gas\n          staticcall\n          iszero\n          dup1\n          iszero\n          tag_120\n          jumpi\n          returndatasize\n          0x00\n          dup1\n          returndatacopy\n          revert(0x00, returndatasize)\n        tag_120:\n          pop\n          pop\n          pop\n          pop\n          mload(0x40)\n          returndatasize\n          not(0x1f)\n          0x1f\n          dup3\n          add\n          and\n          dup3\n          add\n          dup1\n          0x40\n          mstore\n          pop\n          dup2\n          add\n          swap1\n          tag_121\n          swap2\n          swap1\n          tag_79\n          jump\t// in\n        tag_121:\n            /* \"ApplicantPool.sol\":900:1013  require(... */\n          tag_122\n          jumpi\n          mload(0x40)\n          0x08c379a000000000000000000000000000000000000000000000000000000000\n          dup2\n          mstore\n          0x04\n          add\n          tag_123\n          swap1\n          tag_82\n          jump\t// in\n        tag_123:\n          mload(0x40)\n          dup1\n          swap2\n          sub\n          swap1\n          revert\n        tag_122:\n            /* \"ApplicantPool.sol\":2089:2105  activeApplicants */\n          0x03\n            /* \"ApplicantPool.sol\":2089:2116  activeApplicants[applicant] */\n          0x00\n            /* \"ApplicantPool.sol\":2106:2115  applicant */\n          dup4\n            /* \"ApplicantPool.sol\":2089:2116  activeApplicants[applicant] */\n          0xffffffffffffffffffffffffffffffffffffffff\n          and\n          0xffffffffffffffffffffffffffffffffffffffff\n          and\n          dup2\n          mstore\n          0x20\n          add\n          swap1\n          dup2\n          mstore\n          0x20\n          add\n          0x00\n          keccak256\n          0x00\n          swap1\n          sload\n          swap1\n          0x0100\n          exp\n          swap1\n          div\n          0xff\n          and\n            /* \"ApplicantPool.sol\":2081:2136  require(activeApplicants[applicant], \"Not a applicant\") */\n          tag_125\n          jumpi\n          mload(0x40)\n          0x08c379a000000000000000000000000000000000000000000000000000000000\n          dup2\n          mstore\n          0x04\n          add\n          tag_126\n          swap1\n          tag_127\n          jump\t// in\n        tag_126:\n          mload(0x40)\n          dup1\n          swap2\n          sub\n          swap1\n          revert\n        tag_125:\n            /* \"ApplicantPool.sol\":2147:2159  bool didVote */\n          0x00\n            /* \"ApplicantPool.sol\":2183:2192  uint256 i */\n          dup1\n            /* \"ApplicantPool.sol\":2178:2364  for (uint256 i = 0; i < applicantVotes[applicant].length; i++) {... */\n        tag_128:\n            /* \"ApplicantPool.sol\":2202:2216  applicantVotes */\n          0x01\n            /* \"ApplicantPool.sol\":2202:2227  applicantVotes[applicant] */\n          0x00\n            /* \"ApplicantPool.sol\":2217:2226  applicant */\n          dup6\n            /* \"ApplicantPool.sol\":2202:2227  applicantVotes[applicant] */\n          0xffffffffffffffffffffffffffffffffffffffff\n          and\n          0xffffffffffffffffffffffffffffffffffffffff\n          and\n          dup2\n          mstore\n          0x20\n          add\n          swap1\n          dup2\n          mstore\n          0x20\n          add\n          0x00\n          keccak256\n            /* \"ApplicantPool.sol\":2202:2234  applicantVotes[applicant].length */\n          dup1\n          sload\n          swap1\n          pop\n            /* \"ApplicantPool.sol\":2198:2199  i */\n          dup2\n            /* \"ApplicantPool.sol\":2198:2234  i < applicantVotes[applicant].length */\n          lt\n            /* \"ApplicantPool.sol\":2178:2364  for (uint256 i = 0; i < applicantVotes[applicant].length; i++) {... */\n          iszero\n          tag_129\n          jumpi\n            /* \"ApplicantPool.sol\":2292:2302  msg.sender */\n          caller\n            /* \"ApplicantPool.sol\":2260:2302  applicantVotes[applicant][i] == msg.sender */\n          0xffffffffffffffffffffffffffffffffffffffff\n          and\n            /* \"ApplicantPool.sol\":2260:2274  applicantVotes */\n          0x01\n            /* \"ApplicantPool.sol\":2260:2285  applicantVotes[applicant] */\n          0x00\n            /* \"ApplicantPool.sol\":2275:2284  applicant */\n          dup7\n            /* \"ApplicantPool.sol\":2260:2285  applicantVotes[applicant] */\n          0xffffffffffffffffffffffffffffffffffffffff\n          and\n          0xffffffffffffffffffffffffffffffffffffffff\n          and\n          dup2\n          mstore\n          0x20\n          add\n          swap1\n          dup2\n          mstore\n          0x20\n          add\n          0x00\n          keccak256\n            /* \"ApplicantPool.sol\":2286:2287  i */\n          dup3\n            /* \"ApplicantPool.sol\":2260:2288  applicantVotes[applicant][i] */\n          dup2\n          sload\n          dup2\n          lt\n          tag_131\n          jumpi\n          tag_132\n          tag_133\n          jump\t// in\n        tag_132:\n        tag_131:\n          swap1\n          0x00\n          mstore\n          keccak256(0x00, 0x20)\n          add\n          0x00\n          swap1\n          sload\n          swap1\n          0x0100\n          exp\n          swap1\n          div\n          0xffffffffffffffffffffffffffffffffffffffff\n          and\n            /* \"ApplicantPool.sol\":2260:2302  applicantVotes[applicant][i] == msg.sender */\n          0xffffffffffffffffffffffffffffffffffffffff\n          and\n          sub\n            /* \"ApplicantPool.sol\":2256:2353  if (applicantVotes[applicant][i] == msg.sender) {... */\n          tag_135\n          jumpi\n            /* \"ApplicantPool.sol\":2333:2337  true */\n          0x01\n            /* \"ApplicantPool.sol\":2323:2337  didVote = true */\n          swap2\n          pop\n            /* \"ApplicantPool.sol\":2256:2353  if (applicantVotes[applicant][i] == msg.sender) {... */\n        tag_135:\n            /* \"ApplicantPool.sol\":2236:2239  i++ */\n          dup1\n          dup1\n          tag_136\n          swap1\n          tag_137\n          jump\t// in\n        tag_136:\n          swap2\n          pop\n          pop\n            /* \"ApplicantPool.sol\":2178:2364  for (uint256 i = 0; i < applicantVotes[applicant].length; i++) {... */\n          jump(tag_128)\n        tag_129:\n          pop\n            /* \"ApplicantPool.sol\":2383:2390  didVote */\n          dup1\n            /* \"ApplicantPool.sol\":2382:2390  !didVote */\n          iszero\n            /* \"ApplicantPool.sol\":2374:2415  require(!didVote, \"Sender already voted\") */\n          tag_138\n          jumpi\n          mload(0x40)\n          0x08c379a000000000000000000000000000000000000000000000000000000000\n          dup2\n          mstore\n          0x04\n          add\n          tag_139\n          swap1\n          tag_140\n          jump\t// in\n        tag_139:\n          mload(0x40)\n          dup1\n          swap2\n          sub\n          swap1\n          revert\n        tag_138:\n            /* \"ApplicantPool.sol\":2426:2440  applicantVotes */\n          0x01\n            /* \"ApplicantPool.sol\":2426:2451  applicantVotes[applicant] */\n          0x00\n            /* \"ApplicantPool.sol\":2441:2450  applicant */\n          dup5\n            /* \"ApplicantPool.sol\":2426:2451  applicantVotes[applicant] */\n          0xffffffffffffffffffffffffffffffffffffffff\n          and\n          0xffffffffffffffffffffffffffffffffffffffff\n          and\n          dup2\n          mstore\n          0x20\n          add\n          swap1\n          dup2\n          mstore\n          0x20\n          add\n          0x00\n          keccak256\n            /* \"ApplicantPool.sol\":2457:2467  msg.sender */\n          caller\n            /* \"ApplicantPool.sol\":2426:2468  applicantVotes[applicant].push(msg.sender) */\n          swap1\n          dup1\n          0x01\n          dup2\n          sload\n          add\n          dup1\n          dup3\n          sstore\n          dup1\n          swap2\n          pop\n          pop\n          0x01\n          swap1\n          sub\n          swap1\n          0x00\n          mstore\n          keccak256(0x00, 0x20)\n          add\n          0x00\n          swap1\n          swap2\n          swap1\n          swap2\n          swap1\n          swap2\n          0x0100\n          exp\n          dup2\n          sload\n          dup2\n          0xffffffffffffffffffffffffffffffffffffffff\n          mul\n          not\n          and\n          swap1\n          dup4\n          0xffffffffffffffffffffffffffffffffffffffff\n          and\n          mul\n          or\n          swap1\n          sstore\n          pop\n            /* \"ApplicantPool.sol\":2509:2510  1 */\n          0x01\n            /* \"ApplicantPool.sol\":2479:2494  applicantPoints */\n          0x02\n            /* \"ApplicantPool.sol\":2479:2505  applicantPoints[applicant] */\n          0x00\n            /* \"ApplicantPool.sol\":2495:2504  applicant */\n          dup6\n            /* \"ApplicantPool.sol\":2479:2505  applicantPoints[applicant] */\n          0xffffffffffffffffffffffffffffffffffffffff\n          and\n          0xffffffffffffffffffffffffffffffffffffffff\n          and\n          dup2\n          mstore\n          0x20\n          add\n          swap1\n          dup2\n          mstore\n          0x20\n          add\n          0x00\n          keccak256\n          0x00\n            /* \"ApplicantPool.sol\":2479:2510  applicantPoints[applicant] += 1 */\n          dup3\n          dup3\n          sload\n          tag_142\n          swap2\n          swap1\n          tag_143\n          jump\t// in\n        tag_142:\n          swap3\n          pop\n          pop\n          dup2\n          swap1\n          sstore\n          pop\n            /* \"ApplicantPool.sol\":2070:2518  {... */\n          pop\n            /* \"ApplicantPool.sol\":1995:2518  function voteForApplicant(address applicant) public memberOnly(msg.sender) {... */\n          pop\n          pop\n          jump\t// out\n            /* \"ApplicantPool.sol\":1173:1344  function getApplicants()... */\n        tag_36:\n            /* \"ApplicantPool.sol\":1282:1298  address[] memory */\n          0x60\n            /* \"ApplicantPool.sol\":1252:1262  msg.sender */\n          caller\n            /* \"ApplicantPool.sol\":1110:1127  memberPoolAddress */\n          0x07\n          0x00\n          swap1\n          sload\n          swap1\n          0x0100\n          exp\n          swap1\n          div\n          0xffffffffffffffffffffffffffffffffffffffff\n          and\n            /* \"ApplicantPool.sol\":1100:1127  sender == memberPoolAddress */\n          0xffffffffffffffffffffffffffffffffffffffff\n          and\n            /* \"ApplicantPool.sol\":1100:1106  sender */\n          dup2\n            /* \"ApplicantPool.sol\":1100:1127  sender == memberPoolAddress */\n          0xffffffffffffffffffffffffffffffffffffffff\n          and\n          eq\n            /* \"ApplicantPool.sol\":1092:1145  require(sender == memberPoolAddress, \"Access Denied\") */\n          tag_145\n          jumpi\n          mload(0x40)\n          0x08c379a000000000000000000000000000000000000000000000000000000000\n          dup2\n          mstore\n          0x04\n          add\n          tag_146\n          swap1\n          tag_93\n          jump\t// in\n        tag_146:\n          mload(0x40)\n          dup1\n          swap2\n          sub\n          swap1\n          revert\n        tag_145:\n            /* \"ApplicantPool.sol\":1323:1336  applicantList */\n          0x00\n            /* \"ApplicantPool.sol\":1316:1336  return applicantList */\n          dup1\n          sload\n          dup1\n          0x20\n          mul\n          0x20\n          add\n          mload(0x40)\n          swap1\n          dup2\n          add\n          0x40\n          mstore\n          dup1\n          swap3\n          swap2\n          swap1\n          dup2\n          dup2\n          mstore\n          0x20\n          add\n          dup3\n          dup1\n          sload\n          dup1\n          iszero\n          tag_148\n          jumpi\n          0x20\n          mul\n          dup3\n          add\n          swap2\n          swap1\n          0x00\n          mstore\n          keccak256(0x00, 0x20)\n          swap1\n        tag_149:\n          dup2\n          0x00\n          swap1\n          sload\n          swap1\n          0x0100\n          exp\n          swap1\n          div\n          0xffffffffffffffffffffffffffffffffffffffff\n          and\n          0xffffffffffffffffffffffffffffffffffffffff\n          and\n          dup2\n          mstore\n          0x20\n          add\n          swap1\n          0x01\n          add\n          swap1\n          dup1\n          dup4\n          gt\n          tag_149\n          jumpi\n        tag_148:\n          pop\n          pop\n          pop\n          pop\n          pop\n          swap2\n          pop\n            /* \"ApplicantPool.sol\":1173:1344  function getApplicants()... */\n          pop\n          swap1\n          jump\t// out\n            /* \"ApplicantPool.sol\":273:303  address[] public applicantList */\n        tag_43:\n          0x00\n          dup2\n          dup2\n          sload\n          dup2\n          lt\n          tag_150\n          jumpi\n          0x00\n          dup1\n          revert\n        tag_150:\n          swap1\n          0x00\n          mstore\n          keccak256(0x00, 0x20)\n          add\n          0x00\n          swap2\n          pop\n          sload\n          swap1\n          0x0100\n          exp\n          swap1\n          div\n          0xffffffffffffffffffffffffffffffffffffffff\n          and\n          dup2\n          jump\t// out\n            /* \"ApplicantPool.sol\":572:604  address public memberPoolAddress */\n        tag_48:\n          0x07\n          0x00\n          swap1\n          sload\n          swap1\n          0x0100\n          exp\n          swap1\n          div\n          0xffffffffffffffffffffffffffffffffffffffff\n          and\n          dup2\n          jump\t// out\n            /* \"ApplicantPool.sol\":640:683  uint256 public applicantFeeAmount = 1000000 */\n        tag_52:\n          sload(0x09)\n          dup2\n          jump\t// out\n            /* \"ApplicantPool.sol\":2526:2688  function getApplicantVoteEndDate(address applicant)... */\n        tag_58:\n            /* \"ApplicantPool.sol\":2626:2633  uint256 */\n          0x00\n            /* \"ApplicantPool.sol\":2658:2669  voteEndTime */\n          0x05\n            /* \"ApplicantPool.sol\":2658:2680  voteEndTime[applicant] */\n          0x00\n            /* \"ApplicantPool.sol\":2670:2679  applicant */\n          dup4\n            /* \"ApplicantPool.sol\":2658:2680  voteEndTime[applicant] */\n          0xffffffffffffffffffffffffffffffffffffffff\n          and\n          0xffffffffffffffffffffffffffffffffffffffff\n          and\n          dup2\n          mstore\n          0x20\n          add\n          swap1\n          dup2\n          mstore\n          0x20\n          add\n          0x00\n          keccak256\n          sload\n            /* \"ApplicantPool.sol\":2651:2680  return voteEndTime[applicant] */\n          swap1\n          pop\n            /* \"ApplicantPool.sol\":2526:2688  function getApplicantVoteEndDate(address applicant)... */\n          swap2\n          swap1\n          pop\n          jump\t// out\n            /* \"ApplicantPool.sol\":611:633  uint256 public balance */\n        tag_62:\n          sload(0x08)\n          dup2\n          jump\t// out\n            /* \"ApplicantPool.sol\":2901:3073  function getApplicantVoteCount(address applicant)... */\n        tag_67:\n            /* \"ApplicantPool.sol\":3001:3008  uint256 */\n          0x00\n            /* \"ApplicantPool.sol\":3033:3047  applicantVotes */\n          0x01\n            /* \"ApplicantPool.sol\":3033:3058  applicantVotes[applicant] */\n          0x00\n            /* \"ApplicantPool.sol\":3048:3057  applicant */\n          dup4\n            /* \"ApplicantPool.sol\":3033:3058  applicantVotes[applicant] */\n          0xffffffffffffffffffffffffffffffffffffffff\n          and\n          0xffffffffffffffffffffffffffffffffffffffff\n          and\n          dup2\n          mstore\n          0x20\n          add\n          swap1\n          dup2\n          mstore\n          0x20\n          add\n          0x00\n          keccak256\n            /* \"ApplicantPool.sol\":3033:3065  applicantVotes[applicant].length */\n          dup1\n          sload\n          swap1\n          pop\n            /* \"ApplicantPool.sol\":3026:3065  return applicantVotes[applicant].length */\n          swap1\n          pop\n            /* \"ApplicantPool.sol\":2901:3073  function getApplicantVoteCount(address applicant)... */\n          swap2\n          swap1\n          pop\n          jump\t// out\n            /* \"ApplicantPool.sol\":1352:1987  function createApplicant(string calldata reason) public payable {... */\n        tag_72:\n            /* \"ApplicantPool.sol\":1450:1453  map */\n          0x06\n          0x00\n          swap1\n          sload\n          swap1\n          0x0100\n          exp\n          swap1\n          div\n          0xffffffffffffffffffffffffffffffffffffffff\n          and\n            /* \"ApplicantPool.sol\":1450:1462  map.isMember */\n          0xffffffffffffffffffffffffffffffffffffffff\n          and\n          0x39ac7a08\n            /* \"ApplicantPool.sol\":1463:1473  msg.sender */\n          caller\n            /* \"ApplicantPool.sol\":1475:1492  memberPoolAddress */\n          0x07\n          0x00\n          swap1\n          sload\n          swap1\n          0x0100\n          exp\n          swap1\n          div\n          0xffffffffffffffffffffffffffffffffffffffff\n          and\n            /* \"ApplicantPool.sol\":1450:1493  map.isMember(msg.sender, memberPoolAddress) */\n          mload(0x40)\n          dup4\n          0xffffffff\n          and\n          0xe0\n          shl\n          dup2\n          mstore\n          0x04\n          add\n          tag_155\n          swap3\n          swap2\n          swap1\n          tag_75\n          jump\t// in\n        tag_155:\n          0x20\n          mload(0x40)\n          dup1\n          dup4\n          sub\n          dup2\n          dup7\n          gas\n          staticcall\n          iszero\n          dup1\n          iszero\n          tag_157\n          jumpi\n          returndatasize\n          0x00\n          dup1\n          returndatacopy\n          revert(0x00, returndatasize)\n        tag_157:\n          pop\n          pop\n          pop\n          pop\n          mload(0x40)\n          returndatasize\n          not(0x1f)\n          0x1f\n          dup3\n          add\n          and\n          dup3\n          add\n          dup1\n          0x40\n          mstore\n          pop\n          dup2\n          add\n          swap1\n          tag_158\n          swap2\n          swap1\n          tag_79\n          jump\t// in\n        tag_158:\n            /* \"ApplicantPool.sol\":1449:1493  !map.isMember(msg.sender, memberPoolAddress) */\n          iszero\n            /* \"ApplicantPool.sol\":1427:1542  require(... */\n          tag_159\n          jumpi\n          mload(0x40)\n          0x08c379a000000000000000000000000000000000000000000000000000000000\n          dup2\n          mstore\n          0x04\n          add\n          tag_160\n          swap1\n          tag_161\n          jump\t// in\n        tag_160:\n          mload(0x40)\n          dup1\n          swap2\n          sub\n          swap1\n          revert\n        tag_159:\n            /* \"ApplicantPool.sol\":1562:1578  activeApplicants */\n          0x03\n            /* \"ApplicantPool.sol\":1562:1590  activeApplicants[msg.sender] */\n          0x00\n            /* \"ApplicantPool.sol\":1579:1589  msg.sender */\n          caller\n            /* \"ApplicantPool.sol\":1562:1590  activeApplicants[msg.sender] */\n          0xffffffffffffffffffffffffffffffffffffffff\n          and\n          0xffffffffffffffffffffffffffffffffffffffff\n          and\n          dup2\n          mstore\n          0x20\n          add\n          swap1\n          dup2\n          mstore\n          0x20\n          add\n          0x00\n          keccak256\n          0x00\n          swap1\n          sload\n          swap1\n          0x0100\n          exp\n          swap1\n          div\n          0xff\n          and\n            /* \"ApplicantPool.sol\":1561:1590  !activeApplicants[msg.sender] */\n          iszero\n            /* \"ApplicantPool.sol\":1553:1619  require(!activeApplicants[msg.sender], \"Already active applicant\") */\n          tag_162\n          jumpi\n          mload(0x40)\n          0x08c379a000000000000000000000000000000000000000000000000000000000\n          dup2\n          mstore\n          0x04\n          add\n          tag_163\n          swap1\n          tag_164\n          jump\t// in\n        tag_163:\n          mload(0x40)\n          dup1\n          swap2\n          sub\n          swap1\n          revert\n        tag_162:\n            /* \"ApplicantPool.sol\":1668:1670  -3 */\n          0xfffffffffffffffffffffffffffffffffffffffffffffffffffffffffffffffd\n            /* \"ApplicantPool.sol\":1638:1653  applicantPoints */\n          0x02\n            /* \"ApplicantPool.sol\":1638:1665  applicantPoints[msg.sender] */\n          0x00\n            /* \"ApplicantPool.sol\":1654:1664  msg.sender */\n          caller\n            /* \"ApplicantPool.sol\":1638:1665  applicantPoints[msg.sender] */\n          0xffffffffffffffffffffffffffffffffffffffff\n          and\n          0xffffffffffffffffffffffffffffffffffffffff\n          and\n          dup2\n          mstore\n          0x20\n          add\n          swap1\n          dup2\n          mstore\n          0x20\n          add\n          0x00\n          keccak256\n          sload\n            /* \"ApplicantPool.sol\":1638:1670  applicantPoints[msg.sender] > -3 */\n          sgt\n            /* \"ApplicantPool.sol\":1630:1691  require(applicantPoints[msg.sender] > -3, \"account rejected\") */\n          tag_165\n          jumpi\n          mload(0x40)\n          0x08c379a000000000000000000000000000000000000000000000000000000000\n          dup2\n          mstore\n          0x04\n          add\n          tag_166\n          swap1\n          tag_167\n          jump\t// in\n        tag_166:\n          mload(0x40)\n          dup1\n          swap2\n          sub\n          swap1\n          revert\n        tag_165:\n            /* \"ApplicantPool.sol\":1723:1741  applicantFeeAmount */\n          sload(0x09)\n            /* \"ApplicantPool.sol\":1710:1719  msg.value */\n          callvalue\n            /* \"ApplicantPool.sol\":1710:1741  msg.value >= applicantFeeAmount */\n          lt\n          iszero\n            /* \"ApplicantPool.sol\":1702:1742  require(msg.value >= applicantFeeAmount) */\n          tag_168\n          jumpi\n          0x00\n          dup1\n          revert\n        tag_168:\n            /* \"ApplicantPool.sol\":1764:1773  msg.value */\n          callvalue\n            /* \"ApplicantPool.sol\":1753:1760  balance */\n          0x08\n          0x00\n            /* \"ApplicantPool.sol\":1753:1773  balance += msg.value */\n          dup3\n          dup3\n          sload\n          tag_169\n          swap2\n          swap1\n          tag_170\n          jump\t// in\n        tag_169:\n          swap3\n          pop\n          pop\n          dup2\n          swap1\n          sstore\n          pop\n            /* \"ApplicantPool.sol\":1813:1819  reason */\n          dup2\n          dup2\n            /* \"ApplicantPool.sol\":1784:1798  applicantWords */\n          0x04\n            /* \"ApplicantPool.sol\":1784:1810  applicantWords[msg.sender] */\n          0x00\n            /* \"ApplicantPool.sol\":1799:1809  msg.sender */\n          caller\n            /* \"ApplicantPool.sol\":1784:1810  applicantWords[msg.sender] */\n          0xffffffffffffffffffffffffffffffffffffffff\n          and\n          0xffffffffffffffffffffffffffffffffffffffff\n          and\n          dup2\n          mstore\n          0x20\n          add\n          swap1\n          dup2\n          mstore\n          0x20\n          add\n          0x00\n          keccak256\n            /* \"ApplicantPool.sol\":1784:1819  applicantWords[msg.sender] = reason */\n          swap2\n          dup3\n          tag_171\n          swap3\n          swap2\n          swap1\n          tag_172\n          jump\t// in\n        tag_171:\n          pop\n            /* \"ApplicantPool.sol\":1861:1865  true */\n          0x01\n            /* \"ApplicantPool.sol\":1830:1846  activeApplicants */\n          0x03\n            /* \"ApplicantPool.sol\":1830:1858  activeApplicants[msg.sender] */\n          0x00\n            /* \"ApplicantPool.sol\":1847:1857  msg.sender */\n          caller\n            /* \"ApplicantPool.sol\":1830:1858  activeApplicants[msg.sender] */\n          0xffffffffffffffffffffffffffffffffffffffff\n          and\n          0xffffffffffffffffffffffffffffffffffffffff\n          and\n          dup2\n          mstore\n          0x20\n          add\n          swap1\n          dup2\n          mstore\n          0x20\n          add\n          0x00\n          keccak256\n          0x00\n            /* \"ApplicantPool.sol\":1830:1865  activeApplicants[msg.sender] = true */\n          0x0100\n          exp\n          dup2\n          sload\n          dup2\n          0xff\n          mul\n          not\n          and\n          swap1\n          dup4\n          iszero\n          iszero\n          mul\n          or\n          swap1\n          sstore\n          pop\n            /* \"ApplicantPool.sol\":1876:1889  applicantList */\n          0x00\n            /* \"ApplicantPool.sol\":1895:1905  msg.sender */\n          caller\n            /* \"ApplicantPool.sol\":1876:1906  applicantList.push(msg.sender) */\n          swap1\n          dup1\n          0x01\n          dup2\n          sload\n          add\n          dup1\n          dup3\n          sstore\n          dup1\n          swap2\n          pop\n          pop\n          0x01\n          swap1\n          sub\n          swap1\n          0x00\n          mstore\n          keccak256(0x00, 0x20)\n          add\n          0x00\n          swap1\n          swap2\n          swap1\n          swap2\n          swap1\n          swap2\n          0x0100\n          exp\n          dup2\n          sload\n          dup2\n          0xffffffffffffffffffffffffffffffffffffffff\n          mul\n          not\n          and\n          swap1\n          dup4\n          0xffffffffffffffffffffffffffffffffffffffff\n          and\n          mul\n          or\n          swap1\n          sstore\n          pop\n            /* \"ApplicantPool.sol\":1961:1970  259200000 */\n          0x0f731400\n            /* \"ApplicantPool.sol\":1943:1958  block.timestamp */\n          timestamp\n            /* \"ApplicantPool.sol\":1943:1970  block.timestamp + 259200000 */\n          tag_174\n          swap2\n          swap1\n          tag_170\n          jump\t// in\n        tag_174:\n            /* \"ApplicantPool.sol\":1917:1928  voteEndTime */\n          0x05\n            /* \"ApplicantPool.sol\":1917:1940  voteEndTime[msg.sender] */\n          0x00\n            /* \"ApplicantPool.sol\":1929:1939  msg.sender */\n          caller\n            /* \"ApplicantPool.sol\":1917:1940  voteEndTime[msg.sender] */\n          0xffffffffffffffffffffffffffffffffffffffff\n          and\n          0xffffffffffffffffffffffffffffffffffffffff\n          and\n          dup2\n          mstore\n          0x20\n          add\n          swap1\n          dup2\n          mstore\n          0x20\n          add\n          0x00\n          keccak256\n            /* \"ApplicantPool.sol\":1917:1970  voteEndTime[msg.sender] = block.timestamp + 259200000 */\n          dup2\n          swap1\n          sstore\n          pop\n            /* \"ApplicantPool.sol\":1352:1987  function createApplicant(string calldata reason) public payable {... */\n          pop\n          pop\n          jump\t// out\n            /* \"ApplicantPool.sol\":3822:4183  function _burnApplicant(address applicant) internal {... */\n        tag_103:\n            /* \"ApplicantPool.sol\":3885:3898  uint256 index */\n          0x00\n            /* \"ApplicantPool.sol\":3913:4073  for (index = 0; index < applicantList.length; index++) {... */\n        tag_176:\n            /* \"ApplicantPool.sol\":3937:3950  applicantList */\n          0x00\n            /* \"ApplicantPool.sol\":3937:3957  applicantList.length */\n          dup1\n          sload\n          swap1\n          pop\n            /* \"ApplicantPool.sol\":3929:3934  index */\n          dup2\n            /* \"ApplicantPool.sol\":3929:3957  index < applicantList.length */\n          lt\n            /* \"ApplicantPool.sol\":3913:4073  for (index = 0; index < applicantList.length; index++) {... */\n          iszero\n          tag_177\n          jumpi\n            /* \"ApplicantPool.sol\":4011:4020  applicant */\n          dup2\n            /* \"ApplicantPool.sol\":3987:4020  applicantList[index] == applicant */\n          0xffffffffffffffffffffffffffffffffffffffff\n          and\n            /* \"ApplicantPool.sol\":3987:4000  applicantList */\n          0x00\n            /* \"ApplicantPool.sol\":4001:4006  index */\n          dup3\n            /* \"ApplicantPool.sol\":3987:4007  applicantList[index] */\n          dup2\n          sload\n          dup2\n          lt\n          tag_179\n          jumpi\n          tag_180\n          tag_133\n          jump\t// in\n        tag_180:\n        tag_179:\n          swap1\n          0x00\n          mstore\n          keccak256(0x00, 0x20)\n          add\n          0x00\n          swap1\n          sload\n          swap1\n          0x0100\n          exp\n          swap1\n          div\n          0xffffffffffffffffffffffffffffffffffffffff\n          and\n            /* \"ApplicantPool.sol\":3987:4020  applicantList[index] == applicant */\n          0xffffffffffffffffffffffffffffffffffffffff\n          and\n          sub\n            /* \"ApplicantPool.sol\":3983:4062  if (applicantList[index] == applicant) {... */\n          iszero\n            /* \"ApplicantPool.sol\":4041:4046  break */\n          tag_177\n            /* \"ApplicantPool.sol\":3983:4062  if (applicantList[index] == applicant) {... */\n          jumpi\n            /* \"ApplicantPool.sol\":3959:3966  index++ */\n          dup1\n          dup1\n          tag_183\n          swap1\n          tag_137\n          jump\t// in\n        tag_183:\n          swap2\n          pop\n          pop\n            /* \"ApplicantPool.sol\":3913:4073  for (index = 0; index < applicantList.length; index++) {... */\n          jump(tag_176)\n        tag_177:\n            /* \"ApplicantPool.sol\":4106:4119  applicantList */\n          0x00\n            /* \"ApplicantPool.sol\":4143:4144  1 */\n          0x01\n            /* \"ApplicantPool.sol\":4120:4133  applicantList */\n          0x00\n            /* \"ApplicantPool.sol\":4120:4140  applicantList.length */\n          dup1\n          sload\n          swap1\n          pop\n            /* \"ApplicantPool.sol\":4120:4144  applicantList.length - 1 */\n          tag_184\n          swap2\n          swap1\n          tag_185\n          jump\t// in\n        tag_184:\n            /* \"ApplicantPool.sol\":4106:4145  applicantList[applicantList.length - 1] */\n          dup2\n          sload\n          dup2\n          lt\n          tag_186\n          jumpi\n          tag_187\n          tag_133\n          jump\t// in\n        tag_187:\n        tag_186:\n          swap1\n          0x00\n          mstore\n          keccak256(0x00, 0x20)\n          add\n          0x00\n          swap1\n          sload\n          swap1\n          0x0100\n          exp\n          swap1\n          div\n          0xffffffffffffffffffffffffffffffffffffffff\n          and\n            /* \"ApplicantPool.sol\":4083:4096  applicantList */\n          0x00\n            /* \"ApplicantPool.sol\":4097:4102  index */\n          dup3\n            /* \"ApplicantPool.sol\":4083:4103  applicantList[index] */\n          dup2\n          sload\n          dup2\n          lt\n          tag_189\n          jumpi\n          tag_190\n          tag_133\n          jump\t// in\n        tag_190:\n        tag_189:\n          swap1\n          0x00\n          mstore\n          keccak256(0x00, 0x20)\n          add\n          0x00\n            /* \"ApplicantPool.sol\":4083:4145  applicantList[index] = applicantList[applicantList.length - 1] */\n          0x0100\n          exp\n          dup2\n          sload\n          dup2\n          0xffffffffffffffffffffffffffffffffffffffff\n          mul\n          not\n          and\n          swap1\n          dup4\n          0xffffffffffffffffffffffffffffffffffffffff\n          and\n          mul\n          or\n          swap1\n          sstore\n          pop\n            /* \"ApplicantPool.sol\":4156:4169  applicantList */\n          0x00\n            /* \"ApplicantPool.sol\":4156:4175  applicantList.pop() */\n          dup1\n          sload\n          dup1\n          tag_192\n          jumpi\n          tag_193\n          tag_194\n          jump\t// in\n        tag_193:\n        tag_192:\n          0x01\n          swap1\n          sub\n          dup2\n          dup2\n          swap1\n          0x00\n          mstore\n          keccak256(0x00, 0x20)\n          add\n          exp(0x0100, 0x00)\n          dup2\n          sload\n          swap1\n          0xffffffffffffffffffffffffffffffffffffffff\n          mul\n          not\n          and\n          swap1\n          sstore\n          swap1\n          sstore\n            /* \"ApplicantPool.sol\":3874:4183  {... */\n          pop\n            /* \"ApplicantPool.sol\":3822:4183  function _burnApplicant(address applicant) internal {... */\n          pop\n          jump\t// out\n        tag_105:\n          pop\n          dup1\n          sload\n          0x00\n          dup3\n          sstore\n          swap1\n          0x00\n          mstore\n          keccak256(0x00, 0x20)\n          swap1\n          dup2\n          add\n          swap1\n          tag_197\n          swap2\n          swap1\n          tag_198\n          jump\t// in\n        tag_197:\n          pop\n          jump\t// out\n        tag_198:\n        tag_199:\n          dup1\n          dup3\n          gt\n          iszero\n          tag_200\n          jumpi\n          0x00\n          dup2\n          0x00\n          swap1\n          sstore\n          pop\n          0x01\n          add\n          jump(tag_199)\n        tag_200:\n          pop\n          swap1\n          jump\t// out\n            /* \"#utility.yul\":88:205   */\n        tag_202:\n            /* \"#utility.yul\":197:198   */\n          0x00\n            /* \"#utility.yul\":194:195   */\n          dup1\n            /* \"#utility.yul\":187:199   */\n          revert\n            /* \"#utility.yul\":211:328   */\n        tag_203:\n            /* \"#utility.yul\":320:321   */\n          0x00\n            /* \"#utility.yul\":317:318   */\n          dup1\n            /* \"#utility.yul\":310:322   */\n          revert\n            /* \"#utility.yul\":334:460   */\n        tag_204:\n            /* \"#utility.yul\":371:378   */\n          0x00\n            /* \"#utility.yul\":411:453   */\n          0xffffffffffffffffffffffffffffffffffffffff\n            /* \"#utility.yul\":404:409   */\n          dup3\n            /* \"#utility.yul\":400:454   */\n          and\n            /* \"#utility.yul\":389:454   */\n          swap1\n          pop\n            /* \"#utility.yul\":334:460   */\n          swap2\n          swap1\n          pop\n          jump\t// out\n            /* \"#utility.yul\":466:562   */\n        tag_205:\n            /* \"#utility.yul\":503:510   */\n          0x00\n            /* \"#utility.yul\":532:556   */\n          tag_276\n            /* \"#utility.yul\":550:555   */\n          dup3\n            /* \"#utility.yul\":532:556   */\n          tag_204\n          jump\t// in\n        tag_276:\n            /* \"#utility.yul\":521:556   */\n          swap1\n          pop\n            /* \"#utility.yul\":466:562   */\n          swap2\n          swap1\n          pop\n          jump\t// out\n            /* \"#utility.yul\":568:690   */\n        tag_206:\n            /* \"#utility.yul\":641:665   */\n          tag_278\n            /* \"#utility.yul\":659:664   */\n          dup2\n            /* \"#utility.yul\":641:665   */\n          tag_205\n          jump\t// in\n        tag_278:\n            /* \"#utility.yul\":634:639   */\n          dup2\n            /* \"#utility.yul\":631:666   */\n          eq\n            /* \"#utility.yul\":621:684   */\n          tag_279\n          jumpi\n            /* \"#utility.yul\":680:681   */\n          0x00\n            /* \"#utility.yul\":677:678   */\n          dup1\n            /* \"#utility.yul\":670:682   */\n          revert\n            /* \"#utility.yul\":621:684   */\n        tag_279:\n            /* \"#utility.yul\":568:690   */\n          pop\n          jump\t// out\n            /* \"#utility.yul\":696:835   */\n        tag_207:\n            /* \"#utility.yul\":742:747   */\n          0x00\n            /* \"#utility.yul\":780:786   */\n          dup2\n            /* \"#utility.yul\":767:787   */\n          calldataload\n            /* \"#utility.yul\":758:787   */\n          swap1\n          pop\n            /* \"#utility.yul\":796:829   */\n          tag_281\n            /* \"#utility.yul\":823:828   */\n          dup2\n            /* \"#utility.yul\":796:829   */\n          tag_206\n          jump\t// in\n        tag_281:\n            /* \"#utility.yul\":696:835   */\n          swap3\n          swap2\n          pop\n          pop\n          jump\t// out\n            /* \"#utility.yul\":841:1170   */\n        tag_18:\n            /* \"#utility.yul\":900:906   */\n          0x00\n            /* \"#utility.yul\":949:951   */\n          0x20\n            /* \"#utility.yul\":937:946   */\n          dup3\n            /* \"#utility.yul\":928:935   */\n          dup5\n            /* \"#utility.yul\":924:947   */\n          sub\n            /* \"#utility.yul\":920:952   */\n          slt\n            /* \"#utility.yul\":917:1036   */\n          iszero\n          tag_283\n          jumpi\n            /* \"#utility.yul\":955:1034   */\n          tag_284\n          tag_202\n          jump\t// in\n        tag_284:\n            /* \"#utility.yul\":917:1036   */\n        tag_283:\n            /* \"#utility.yul\":1075:1076   */\n          0x00\n            /* \"#utility.yul\":1100:1153   */\n          tag_285\n            /* \"#utility.yul\":1145:1152   */\n          dup5\n            /* \"#utility.yul\":1136:1142   */\n          dup3\n            /* \"#utility.yul\":1125:1134   */\n          dup6\n            /* \"#utility.yul\":1121:1143   */\n          add\n            /* \"#utility.yul\":1100:1153   */\n          tag_207\n          jump\t// in\n        tag_285:\n            /* \"#utility.yul\":1090:1153   */\n          swap2\n          pop\n            /* \"#utility.yul\":1046:1163   */\n          pop\n            /* \"#utility.yul\":841:1170   */\n          swap3\n          swap2\n          pop\n          pop\n          jump\t// out\n            /* \"#utility.yul\":1176:1275   */\n        tag_208:\n            /* \"#utility.yul\":1228:1234   */\n          0x00\n            /* \"#utility.yul\":1262:1267   */\n          dup2\n            /* \"#utility.yul\":1256:1268   */\n          mload\n            /* \"#utility.yul\":1246:1268   */\n          swap1\n          pop\n            /* \"#utility.yul\":1176:1275   */\n          swap2\n          swap1\n          pop\n          jump\t// out\n            /* \"#utility.yul\":1281:1450   */\n        tag_209:\n            /* \"#utility.yul\":1365:1376   */\n          0x00\n            /* \"#utility.yul\":1399:1405   */\n          dup3\n            /* \"#utility.yul\":1394:1397   */\n          dup3\n            /* \"#utility.yul\":1387:1406   */\n          mstore\n            /* \"#utility.yul\":1439:1443   */\n          0x20\n            /* \"#utility.yul\":1434:1437   */\n          dup3\n            /* \"#utility.yul\":1430:1444   */\n          add\n            /* \"#utility.yul\":1415:1444   */\n          swap1\n          pop\n            /* \"#utility.yul\":1281:1450   */\n          swap3\n          swap2\n          pop\n          pop\n          jump\t// out\n            /* \"#utility.yul\":1456:1702   */\n        tag_210:\n            /* \"#utility.yul\":1537:1538   */\n          0x00\n            /* \"#utility.yul\":1547:1660   */\n        tag_289:\n            /* \"#utility.yul\":1561:1567   */\n          dup4\n            /* \"#utility.yul\":1558:1559   */\n          dup2\n            /* \"#utility.yul\":1555:1568   */\n          lt\n            /* \"#utility.yul\":1547:1660   */\n          iszero\n          tag_291\n          jumpi\n            /* \"#utility.yul\":1646:1647   */\n          dup1\n            /* \"#utility.yul\":1641:1644   */\n          dup3\n            /* \"#utility.yul\":1637:1648   */\n          add\n            /* \"#utility.yul\":1631:1649   */\n          mload\n            /* \"#utility.yul\":1627:1628   */\n          dup2\n            /* \"#utility.yul\":1622:1625   */\n          dup5\n            /* \"#utility.yul\":1618:1629   */\n          add\n            /* \"#utility.yul\":1611:1650   */\n          mstore\n            /* \"#utility.yul\":1583:1585   */\n          0x20\n            /* \"#utility.yul\":1580:1581   */\n          dup2\n            /* \"#utility.yul\":1576:1586   */\n          add\n            /* \"#utility.yul\":1571:1586   */\n          swap1\n          pop\n            /* \"#utility.yul\":1547:1660   */\n          jump(tag_289)\n        tag_291:\n            /* \"#utility.yul\":1694:1695   */\n          0x00\n            /* \"#utility.yul\":1685:1691   */\n          dup5\n            /* \"#utility.yul\":1680:1683   */\n          dup5\n            /* \"#utility.yul\":1676:1692   */\n          add\n            /* \"#utility.yul\":1669:1696   */\n          mstore\n            /* \"#utility.yul\":1518:1702   */\n          pop\n            /* \"#utility.yul\":1456:1702   */\n          pop\n          pop\n          pop\n          jump\t// out\n            /* \"#utility.yul\":1708:1810   */\n        tag_211:\n            /* \"#utility.yul\":1749:1755   */\n          0x00\n            /* \"#utility.yul\":1800:1802   */\n          0x1f\n            /* \"#utility.yul\":1796:1803   */\n          not\n            /* \"#utility.yul\":1791:1793   */\n          0x1f\n            /* \"#utility.yul\":1784:1789   */\n          dup4\n            /* \"#utility.yul\":1780:1794   */\n          add\n            /* \"#utility.yul\":1776:1804   */\n          and\n            /* \"#utility.yul\":1766:1804   */\n          swap1\n          pop\n            /* \"#utility.yul\":1708:1810   */\n          swap2\n          swap1\n          pop\n          jump\t// out\n            /* \"#utility.yul\":1816:2193   */\n        tag_212:\n            /* \"#utility.yul\":1904:1907   */\n          0x00\n            /* \"#utility.yul\":1932:1971   */\n          tag_294\n            /* \"#utility.yul\":1965:1970   */\n          dup3\n            /* \"#utility.yul\":1932:1971   */\n          tag_208\n          jump\t// in\n        tag_294:\n            /* \"#utility.yul\":1987:2058   */\n          tag_295\n            /* \"#utility.yul\":2051:2057   */\n          dup2\n            /* \"#utility.yul\":2046:2049   */\n          dup6\n            /* \"#utility.yul\":1987:2058   */\n          tag_209\n          jump\t// in\n        tag_295:\n            /* \"#utility.yul\":1980:2058   */\n          swap4\n          pop\n            /* \"#utility.yul\":2067:2132   */\n          tag_296\n            /* \"#utility.yul\":2125:2131   */\n          dup2\n            /* \"#utility.yul\":2120:2123   */\n          dup6\n            /* \"#utility.yul\":2113:2117   */\n          0x20\n            /* \"#utility.yul\":2106:2111   */\n          dup7\n            /* \"#utility.yul\":2102:2118   */\n          add\n            /* \"#utility.yul\":2067:2132   */\n          tag_210\n          jump\t// in\n        tag_296:\n            /* \"#utility.yul\":2157:2186   */\n          tag_297\n            /* \"#utility.yul\":2179:2185   */\n          dup2\n            /* \"#utility.yul\":2157:2186   */\n          tag_211\n          jump\t// in\n        tag_297:\n            /* \"#utility.yul\":2152:2155   */\n          dup5\n            /* \"#utility.yul\":2148:2187   */\n          add\n            /* \"#utility.yul\":2141:2187   */\n          swap2\n          pop\n            /* \"#utility.yul\":1908:2193   */\n          pop\n            /* \"#utility.yul\":1816:2193   */\n          swap3\n          swap2\n          pop\n          pop\n          jump\t// out\n            /* \"#utility.yul\":2199:2512   */\n        tag_21:\n            /* \"#utility.yul\":2312:2316   */\n          0x00\n            /* \"#utility.yul\":2350:2352   */\n          0x20\n            /* \"#utility.yul\":2339:2348   */\n          dup3\n            /* \"#utility.yul\":2335:2353   */\n          add\n            /* \"#utility.yul\":2327:2353   */\n          swap1\n          pop\n            /* \"#utility.yul\":2399:2408   */\n          dup2\n            /* \"#utility.yul\":2393:2397   */\n          dup2\n            /* \"#utility.yul\":2389:2409   */\n          sub\n            /* \"#utility.yul\":2385:2386   */\n          0x00\n            /* \"#utility.yul\":2374:2383   */\n          dup4\n            /* \"#utility.yul\":2370:2387   */\n          add\n            /* \"#utility.yul\":2363:2410   */\n          mstore\n            /* \"#utility.yul\":2427:2505   */\n          tag_299\n            /* \"#utility.yul\":2500:2504   */\n          dup2\n            /* \"#utility.yul\":2491:2497   */\n          dup5\n            /* \"#utility.yul\":2427:2505   */\n          tag_212\n          jump\t// in\n        tag_299:\n            /* \"#utility.yul\":2419:2505   */\n          swap1\n          pop\n            /* \"#utility.yul\":2199:2512   */\n          swap3\n          swap2\n          pop\n          pop\n          jump\t// out\n            /* \"#utility.yul\":2518:2632   */\n        tag_213:\n            /* \"#utility.yul\":2585:2591   */\n          0x00\n            /* \"#utility.yul\":2619:2624   */\n          dup2\n            /* \"#utility.yul\":2613:2625   */\n          mload\n            /* \"#utility.yul\":2603:2625   */\n          swap1\n          pop\n            /* \"#utility.yul\":2518:2632   */\n          swap2\n          swap1\n          pop\n          jump\t// out\n            /* \"#utility.yul\":2638:2822   */\n        tag_214:\n            /* \"#utility.yul\":2737:2748   */\n          0x00\n            /* \"#utility.yul\":2771:2777   */\n          dup3\n            /* \"#utility.yul\":2766:2769   */\n          dup3\n            /* \"#utility.yul\":2759:2778   */\n          mstore\n            /* \"#utility.yul\":2811:2815   */\n          0x20\n            /* \"#utility.yul\":2806:2809   */\n          dup3\n            /* \"#utility.yul\":2802:2816   */\n          add\n            /* \"#utility.yul\":2787:2816   */\n          swap1\n          pop\n            /* \"#utility.yul\":2638:2822   */\n          swap3\n          swap2\n          pop\n          pop\n          jump\t// out\n            /* \"#utility.yul\":2828:2960   */\n        tag_215:\n            /* \"#utility.yul\":2895:2899   */\n          0x00\n            /* \"#utility.yul\":2918:2921   */\n          dup2\n            /* \"#utility.yul\":2910:2921   */\n          swap1\n          pop\n            /* \"#utility.yul\":2948:2952   */\n          0x20\n            /* \"#utility.yul\":2943:2946   */\n          dup3\n            /* \"#utility.yul\":2939:2953   */\n          add\n            /* \"#utility.yul\":2931:2953   */\n          swap1\n          pop\n            /* \"#utility.yul\":2828:2960   */\n          swap2\n          swap1\n          pop\n          jump\t// out\n            /* \"#utility.yul\":2966:3074   */\n        tag_216:\n            /* \"#utility.yul\":3043:3067   */\n          tag_304\n            /* \"#utility.yul\":3061:3066   */\n          dup2\n            /* \"#utility.yul\":3043:3067   */\n          tag_205\n          jump\t// in\n        tag_304:\n            /* \"#utility.yul\":3038:3041   */\n          dup3\n            /* \"#utility.yul\":3031:3068   */\n          mstore\n            /* \"#utility.yul\":2966:3074   */\n          pop\n          pop\n          jump\t// out\n            /* \"#utility.yul\":3080:3259   */\n        tag_217:\n            /* \"#utility.yul\":3149:3159   */\n          0x00\n            /* \"#utility.yul\":3170:3216   */\n          tag_306\n            /* \"#utility.yul\":3212:3215   */\n          dup4\n            /* \"#utility.yul\":3204:3210   */\n          dup4\n            /* \"#utility.yul\":3170:3216   */\n          tag_216\n          jump\t// in\n        tag_306:\n            /* \"#utility.yul\":3248:3252   */\n          0x20\n            /* \"#utility.yul\":3243:3246   */\n          dup4\n            /* \"#utility.yul\":3239:3253   */\n          add\n            /* \"#utility.yul\":3225:3253   */\n          swap1\n          pop\n            /* \"#utility.yul\":3080:3259   */\n          swap3\n          swap2\n          pop\n          pop\n          jump\t// out\n            /* \"#utility.yul\":3265:3378   */\n        tag_218:\n            /* \"#utility.yul\":3335:3339   */\n          0x00\n            /* \"#utility.yul\":3367:3371   */\n          0x20\n            /* \"#utility.yul\":3362:3365   */\n          dup3\n            /* \"#utility.yul\":3358:3372   */\n          add\n            /* \"#utility.yul\":3350:3372   */\n          swap1\n          pop\n            /* \"#utility.yul\":3265:3378   */\n          swap2\n          swap1\n          pop\n          jump\t// out\n            /* \"#utility.yul\":3414:4146   */\n        tag_219:\n            /* \"#utility.yul\":3533:3536   */\n          0x00\n            /* \"#utility.yul\":3562:3616   */\n          tag_309\n            /* \"#utility.yul\":3610:3615   */\n          dup3\n            /* \"#utility.yul\":3562:3616   */\n          tag_213\n          jump\t// in\n        tag_309:\n            /* \"#utility.yul\":3632:3718   */\n          tag_310\n            /* \"#utility.yul\":3711:3717   */\n          dup2\n            /* \"#utility.yul\":3706:3709   */\n          dup6\n            /* \"#utility.yul\":3632:3718   */\n          tag_214\n          jump\t// in\n        tag_310:\n            /* \"#utility.yul\":3625:3718   */\n          swap4\n          pop\n            /* \"#utility.yul\":3742:3798   */\n          tag_311\n            /* \"#utility.yul\":3792:3797   */\n          dup4\n            /* \"#utility.yul\":3742:3798   */\n          tag_215\n          jump\t// in\n        tag_311:\n            /* \"#utility.yul\":3821:3828   */\n          dup1\n            /* \"#utility.yul\":3852:3853   */\n          0x00\n            /* \"#utility.yul\":3837:4121   */\n        tag_312:\n            /* \"#utility.yul\":3862:3868   */\n          dup4\n            /* \"#utility.yul\":3859:3860   */\n          dup2\n            /* \"#utility.yul\":3856:3869   */\n          lt\n            /* \"#utility.yul\":3837:4121   */\n          iszero\n          tag_314\n          jumpi\n            /* \"#utility.yul\":3938:3944   */\n          dup2\n            /* \"#utility.yul\":3932:3945   */\n          mload\n            /* \"#utility.yul\":3965:4028   */\n          tag_315\n            /* \"#utility.yul\":4024:4027   */\n          dup9\n            /* \"#utility.yul\":4009:4022   */\n          dup3\n            /* \"#utility.yul\":3965:4028   */\n          tag_217\n          jump\t// in\n        tag_315:\n            /* \"#utility.yul\":3958:4028   */\n          swap8\n          pop\n            /* \"#utility.yul\":4051:4111   */\n          tag_316\n            /* \"#utility.yul\":4104:4110   */\n          dup4\n            /* \"#utility.yul\":4051:4111   */\n          tag_218\n          jump\t// in\n        tag_316:\n            /* \"#utility.yul\":4041:4111   */\n          swap3\n          pop\n            /* \"#utility.yul\":3897:4121   */\n          pop\n            /* \"#utility.yul\":3884:3885   */\n          0x01\n            /* \"#utility.yul\":3881:3882   */\n          dup2\n            /* \"#utility.yul\":3877:3886   */\n          add\n            /* \"#utility.yul\":3872:3886   */\n          swap1\n          pop\n            /* \"#utility.yul\":3837:4121   */\n          jump(tag_312)\n        tag_314:\n            /* \"#utility.yul\":3841:3855   */\n          pop\n            /* \"#utility.yul\":4137:4140   */\n          dup6\n            /* \"#utility.yul\":4130:4140   */\n          swap4\n          pop\n            /* \"#utility.yul\":3538:4146   */\n          pop\n          pop\n          pop\n            /* \"#utility.yul\":3414:4146   */\n          swap3\n          swap2\n          pop\n          pop\n          jump\t// out\n            /* \"#utility.yul\":4152:4525   */\n        tag_38:\n            /* \"#utility.yul\":4295:4299   */\n          0x00\n            /* \"#utility.yul\":4333:4335   */\n          0x20\n            /* \"#utility.yul\":4322:4331   */\n          dup3\n            /* \"#utility.yul\":4318:4336   */\n          add\n            /* \"#utility.yul\":4310:4336   */\n          swap1\n          pop\n            /* \"#utility.yul\":4382:4391   */\n          dup2\n            /* \"#utility.yul\":4376:4380   */\n          dup2\n            /* \"#utility.yul\":4372:4392   */\n          sub\n            /* \"#utility.yul\":4368:4369   */\n          0x00\n            /* \"#utility.yul\":4357:4366   */\n          dup4\n            /* \"#utility.yul\":4353:4370   */\n          add\n            /* \"#utility.yul\":4346:4393   */\n          mstore\n            /* \"#utility.yul\":4410:4518   */\n          tag_318\n            /* \"#utility.yul\":4513:4517   */\n          dup2\n            /* \"#utility.yul\":4504:4510   */\n          dup5\n            /* \"#utility.yul\":4410:4518   */\n          tag_219\n          jump\t// in\n        tag_318:\n            /* \"#utility.yul\":4402:4518   */\n          swap1\n          pop\n            /* \"#utility.yul\":4152:4525   */\n          swap3\n          swap2\n          pop\n          pop\n          jump\t// out\n            /* \"#utility.yul\":4531:4608   */\n        tag_220:\n            /* \"#utility.yul\":4568:4575   */\n          0x00\n            /* \"#utility.yul\":4597:4602   */\n          dup2\n            /* \"#utility.yul\":4586:4602   */\n          swap1\n          pop\n            /* \"#utility.yul\":4531:4608   */\n          swap2\n          swap1\n          pop\n          jump\t// out\n            /* \"#utility.yul\":4614:4736   */\n        tag_221:\n            /* \"#utility.yul\":4687:4711   */\n          tag_321\n            /* \"#utility.yul\":4705:4710   */\n          dup2\n            /* \"#utility.yul\":4687:4711   */\n          tag_220\n          jump\t// in\n        tag_321:\n            /* \"#utility.yul\":4680:4685   */\n          dup2\n            /* \"#utility.yul\":4677:4712   */\n          eq\n            /* \"#utility.yul\":4667:4730   */\n          tag_322\n          jumpi\n            /* \"#utility.yul\":4726:4727   */\n          0x00\n            /* \"#utility.yul\":4723:4724   */\n          dup1\n            /* \"#utility.yul\":4716:4728   */\n          revert\n            /* \"#utility.yul\":4667:4730   */\n        tag_322:\n            /* \"#utility.yul\":4614:4736   */\n          pop\n          jump\t// out\n            /* \"#utility.yul\":4742:4881   */\n        tag_222:\n            /* \"#utility.yul\":4788:4793   */\n          0x00\n            /* \"#utility.yul\":4826:4832   */\n          dup2\n            /* \"#utility.yul\":4813:4833   */\n          calldataload\n            /* \"#utility.yul\":4804:4833   */\n          swap1\n          pop\n            /* \"#utility.yul\":4842:4875   */\n          tag_324\n            /* \"#utility.yul\":4869:4874   */\n          dup2\n            /* \"#utility.yul\":4842:4875   */\n          tag_221\n          jump\t// in\n        tag_324:\n            /* \"#utility.yul\":4742:4881   */\n          swap3\n          swap2\n          pop\n          pop\n          jump\t// out\n            /* \"#utility.yul\":4887:5216   */\n        tag_42:\n            /* \"#utility.yul\":4946:4952   */\n          0x00\n            /* \"#utility.yul\":4995:4997   */\n          0x20\n            /* \"#utility.yul\":4983:4992   */\n          dup3\n            /* \"#utility.yul\":4974:4981   */\n          dup5\n            /* \"#utility.yul\":4970:4993   */\n          sub\n            /* \"#utility.yul\":4966:4998   */\n          slt\n            /* \"#utility.yul\":4963:5082   */\n          iszero\n          tag_326\n          jumpi\n            /* \"#utility.yul\":5001:5080   */\n          tag_327\n          tag_202\n          jump\t// in\n        tag_327:\n            /* \"#utility.yul\":4963:5082   */\n        tag_326:\n            /* \"#utility.yul\":5121:5122   */\n          0x00\n            /* \"#utility.yul\":5146:5199   */\n          tag_328\n            /* \"#utility.yul\":5191:5198   */\n          dup5\n            /* \"#utility.yul\":5182:5188   */\n          dup3\n            /* \"#utility.yul\":5171:5180   */\n          dup6\n            /* \"#utility.yul\":5167:5189   */\n          add\n            /* \"#utility.yul\":5146:5199   */\n          tag_222\n          jump\t// in\n        tag_328:\n            /* \"#utility.yul\":5136:5199   */\n          swap2\n          pop\n            /* \"#utility.yul\":5092:5209   */\n          pop\n            /* \"#utility.yul\":4887:5216   */\n          swap3\n          swap2\n          pop\n          pop\n          jump\t// out\n            /* \"#utility.yul\":5222:5340   */\n        tag_223:\n            /* \"#utility.yul\":5309:5333   */\n          tag_330\n            /* \"#utility.yul\":5327:5332   */\n          dup2\n            /* \"#utility.yul\":5309:5333   */\n          tag_205\n          jump\t// in\n        tag_330:\n            /* \"#utility.yul\":5304:5307   */\n          dup3\n            /* \"#utility.yul\":5297:5334   */\n          mstore\n            /* \"#utility.yul\":5222:5340   */\n          pop\n          pop\n          jump\t// out\n            /* \"#utility.yul\":5346:5568   */\n        tag_45:\n            /* \"#utility.yul\":5439:5443   */\n          0x00\n            /* \"#utility.yul\":5477:5479   */\n          0x20\n            /* \"#utility.yul\":5466:5475   */\n          dup3\n            /* \"#utility.yul\":5462:5480   */\n          add\n            /* \"#utility.yul\":5454:5480   */\n          swap1\n          pop\n            /* \"#utility.yul\":5490:5561   */\n          tag_332\n            /* \"#utility.yul\":5558:5559   */\n          0x00\n            /* \"#utility.yul\":5547:5556   */\n          dup4\n            /* \"#utility.yul\":5543:5560   */\n          add\n            /* \"#utility.yul\":5534:5540   */\n          dup5\n            /* \"#utility.yul\":5490:5561   */\n          tag_223\n          jump\t// in\n        tag_332:\n            /* \"#utility.yul\":5346:5568   */\n          swap3\n          swap2\n          pop\n          pop\n          jump\t// out\n            /* \"#utility.yul\":5574:5692   */\n        tag_224:\n            /* \"#utility.yul\":5661:5685   */\n          tag_334\n            /* \"#utility.yul\":5679:5684   */\n          dup2\n            /* \"#utility.yul\":5661:5685   */\n          tag_220\n          jump\t// in\n        tag_334:\n            /* \"#utility.yul\":5656:5659   */\n          dup3\n            /* \"#utility.yul\":5649:5686   */\n          mstore\n            /* \"#utility.yul\":5574:5692   */\n          pop\n          pop\n          jump\t// out\n            /* \"#utility.yul\":5698:5920   */\n        tag_54:\n            /* \"#utility.yul\":5791:5795   */\n          0x00\n            /* \"#utility.yul\":5829:5831   */\n          0x20\n            /* \"#utility.yul\":5818:5827   */\n          dup3\n            /* \"#utility.yul\":5814:5832   */\n          add\n            /* \"#utility.yul\":5806:5832   */\n          swap1\n          pop\n            /* \"#utility.yul\":5842:5913   */\n          tag_336\n            /* \"#utility.yul\":5910:5911   */\n          0x00\n            /* \"#utility.yul\":5899:5908   */\n          dup4\n            /* \"#utility.yul\":5895:5912   */\n          add\n            /* \"#utility.yul\":5886:5892   */\n          dup5\n            /* \"#utility.yul\":5842:5913   */\n          tag_224\n          jump\t// in\n        tag_336:\n            /* \"#utility.yul\":5698:5920   */\n          swap3\n          swap2\n          pop\n          pop\n          jump\t// out\n            /* \"#utility.yul\":5926:6043   */\n        tag_225:\n            /* \"#utility.yul\":6035:6036   */\n          0x00\n            /* \"#utility.yul\":6032:6033   */\n          dup1\n            /* \"#utility.yul\":6025:6037   */\n          revert\n            /* \"#utility.yul\":6049:6166   */\n        tag_226:\n            /* \"#utility.yul\":6158:6159   */\n          0x00\n            /* \"#utility.yul\":6155:6156   */\n          dup1\n            /* \"#utility.yul\":6148:6160   */\n          revert\n            /* \"#utility.yul\":6172:6289   */\n        tag_227:\n            /* \"#utility.yul\":6281:6282   */\n          0x00\n            /* \"#utility.yul\":6278:6279   */\n          dup1\n            /* \"#utility.yul\":6271:6283   */\n          revert\n            /* \"#utility.yul\":6309:6862   */\n        tag_228:\n            /* \"#utility.yul\":6367:6375   */\n          0x00\n            /* \"#utility.yul\":6377:6383   */\n          dup1\n            /* \"#utility.yul\":6427:6430   */\n          dup4\n            /* \"#utility.yul\":6420:6424   */\n          0x1f\n            /* \"#utility.yul\":6412:6418   */\n          dup5\n            /* \"#utility.yul\":6408:6425   */\n          add\n            /* \"#utility.yul\":6404:6431   */\n          slt\n            /* \"#utility.yul\":6394:6516   */\n          tag_341\n          jumpi\n            /* \"#utility.yul\":6435:6514   */\n          tag_342\n          tag_225\n          jump\t// in\n        tag_342:\n            /* \"#utility.yul\":6394:6516   */\n        tag_341:\n            /* \"#utility.yul\":6548:6554   */\n          dup3\n            /* \"#utility.yul\":6535:6555   */\n          calldataload\n            /* \"#utility.yul\":6525:6555   */\n          swap1\n          pop\n            /* \"#utility.yul\":6578:6596   */\n          0xffffffffffffffff\n            /* \"#utility.yul\":6570:6576   */\n          dup2\n            /* \"#utility.yul\":6567:6597   */\n          gt\n            /* \"#utility.yul\":6564:6681   */\n          iszero\n          tag_343\n          jumpi\n            /* \"#utility.yul\":6600:6679   */\n          tag_344\n          tag_226\n          jump\t// in\n        tag_344:\n            /* \"#utility.yul\":6564:6681   */\n        tag_343:\n            /* \"#utility.yul\":6714:6718   */\n          0x20\n            /* \"#utility.yul\":6706:6712   */\n          dup4\n            /* \"#utility.yul\":6702:6719   */\n          add\n            /* \"#utility.yul\":6690:6719   */\n          swap2\n          pop\n            /* \"#utility.yul\":6768:6771   */\n          dup4\n            /* \"#utility.yul\":6760:6764   */\n          0x01\n            /* \"#utility.yul\":6752:6758   */\n          dup3\n            /* \"#utility.yul\":6748:6765   */\n          mul\n            /* \"#utility.yul\":6738:6746   */\n          dup4\n            /* \"#utility.yul\":6734:6766   */\n          add\n            /* \"#utility.yul\":6731:6772   */\n          gt\n            /* \"#utility.yul\":6728:6856   */\n          iszero\n          tag_345\n          jumpi\n            /* \"#utility.yul\":6775:6854   */\n          tag_346\n          tag_227\n          jump\t// in\n        tag_346:\n            /* \"#utility.yul\":6728:6856   */\n        tag_345:\n            /* \"#utility.yul\":6309:6862   */\n          swap3\n          pop\n          swap3\n          swap1\n          pop\n          jump\t// out\n            /* \"#utility.yul\":6868:7397   */\n        tag_71:\n            /* \"#utility.yul\":6939:6945   */\n          0x00\n            /* \"#utility.yul\":6947:6953   */\n          dup1\n            /* \"#utility.yul\":6996:6998   */\n          0x20\n            /* \"#utility.yul\":6984:6993   */\n          dup4\n            /* \"#utility.yul\":6975:6982   */\n          dup6\n            /* \"#utility.yul\":6971:6994   */\n          sub\n            /* \"#utility.yul\":6967:6999   */\n          slt\n            /* \"#utility.yul\":6964:7083   */\n          iszero\n          tag_348\n          jumpi\n            /* \"#utility.yul\":7002:7081   */\n          tag_349\n          tag_202\n          jump\t// in\n        tag_349:\n            /* \"#utility.yul\":6964:7083   */\n        tag_348:\n            /* \"#utility.yul\":7150:7151   */\n          0x00\n            /* \"#utility.yul\":7139:7148   */\n          dup4\n            /* \"#utility.yul\":7135:7152   */\n          add\n            /* \"#utility.yul\":7122:7153   */\n          calldataload\n            /* \"#utility.yul\":7180:7198   */\n          0xffffffffffffffff\n            /* \"#utility.yul\":7172:7178   */\n          dup2\n            /* \"#utility.yul\":7169:7199   */\n          gt\n            /* \"#utility.yul\":7166:7283   */\n          iszero\n          tag_350\n          jumpi\n            /* \"#utility.yul\":7202:7281   */\n          tag_351\n          tag_203\n          jump\t// in\n        tag_351:\n            /* \"#utility.yul\":7166:7283   */\n        tag_350:\n            /* \"#utility.yul\":7315:7380   */\n          tag_352\n            /* \"#utility.yul\":7372:7379   */\n          dup6\n            /* \"#utility.yul\":7363:7369   */\n          dup3\n            /* \"#utility.yul\":7352:7361   */\n          dup7\n            /* \"#utility.yul\":7348:7370   */\n          add\n            /* \"#utility.yul\":7315:7380   */\n          tag_228\n          jump\t// in\n        tag_352:\n            /* \"#utility.yul\":7297:7380   */\n          swap3\n          pop\n          swap3\n          pop\n            /* \"#utility.yul\":7093:7390   */\n          pop\n            /* \"#utility.yul\":6868:7397   */\n          swap3\n          pop\n          swap3\n          swap1\n          pop\n          jump\t// out\n            /* \"#utility.yul\":7403:7735   */\n        tag_75:\n            /* \"#utility.yul\":7524:7528   */\n          0x00\n            /* \"#utility.yul\":7562:7564   */\n          0x40\n            /* \"#utility.yul\":7551:7560   */\n          dup3\n            /* \"#utility.yul\":7547:7565   */\n          add\n            /* \"#utility.yul\":7539:7565   */\n          swap1\n          pop\n            /* \"#utility.yul\":7575:7646   */\n          tag_354\n            /* \"#utility.yul\":7643:7644   */\n          0x00\n            /* \"#utility.yul\":7632:7641   */\n          dup4\n            /* \"#utility.yul\":7628:7645   */\n          add\n            /* \"#utility.yul\":7619:7625   */\n          dup6\n            /* \"#utility.yul\":7575:7646   */\n          tag_223\n          jump\t// in\n        tag_354:\n            /* \"#utility.yul\":7656:7728   */\n          tag_355\n            /* \"#utility.yul\":7724:7726   */\n          0x20\n            /* \"#utility.yul\":7713:7722   */\n          dup4\n            /* \"#utility.yul\":7709:7727   */\n          add\n            /* \"#utility.yul\":7700:7706   */\n          dup5\n            /* \"#utility.yul\":7656:7728   */\n          tag_223\n          jump\t// in\n        tag_355:\n            /* \"#utility.yul\":7403:7735   */\n          swap4\n          swap3\n          pop\n          pop\n          pop\n          jump\t// out\n            /* \"#utility.yul\":7741:7831   */\n        tag_229:\n            /* \"#utility.yul\":7775:7782   */\n          0x00\n            /* \"#utility.yul\":7818:7823   */\n          dup2\n            /* \"#utility.yul\":7811:7824   */\n          iszero\n            /* \"#utility.yul\":7804:7825   */\n          iszero\n            /* \"#utility.yul\":7793:7825   */\n          swap1\n          pop\n            /* \"#utility.yul\":7741:7831   */\n          swap2\n          swap1\n          pop\n          jump\t// out\n            /* \"#utility.yul\":7837:7953   */\n        tag_230:\n            /* \"#utility.yul\":7907:7928   */\n          tag_358\n            /* \"#utility.yul\":7922:7927   */\n          dup2\n            /* \"#utility.yul\":7907:7928   */\n          tag_229\n          jump\t// in\n        tag_358:\n            /* \"#utility.yul\":7900:7905   */\n          dup2\n            /* \"#utility.yul\":7897:7929   */\n          eq\n            /* \"#utility.yul\":7887:7947   */\n          tag_359\n          jumpi\n            /* \"#utility.yul\":7943:7944   */\n          0x00\n            /* \"#utility.yul\":7940:7941   */\n          dup1\n            /* \"#utility.yul\":7933:7945   */\n          revert\n            /* \"#utility.yul\":7887:7947   */\n        tag_359:\n            /* \"#utility.yul\":7837:7953   */\n          pop\n          jump\t// out\n            /* \"#utility.yul\":7959:8096   */\n        tag_231:\n            /* \"#utility.yul\":8013:8018   */\n          0x00\n            /* \"#utility.yul\":8044:8050   */\n          dup2\n            /* \"#utility.yul\":8038:8051   */\n          mload\n            /* \"#utility.yul\":8029:8051   */\n          swap1\n          pop\n            /* \"#utility.yul\":8060:8090   */\n          tag_361\n            /* \"#utility.yul\":8084:8089   */\n          dup2\n            /* \"#utility.yul\":8060:8090   */\n          tag_230\n          jump\t// in\n        tag_361:\n            /* \"#utility.yul\":7959:8096   */\n          swap3\n          swap2\n          pop\n          pop\n          jump\t// out\n            /* \"#utility.yul\":8102:8447   */\n        tag_79:\n            /* \"#utility.yul\":8169:8175   */\n          0x00\n            /* \"#utility.yul\":8218:8220   */\n          0x20\n            /* \"#utility.yul\":8206:8215   */\n          dup3\n            /* \"#utility.yul\":8197:8204   */\n          dup5\n            /* \"#utility.yul\":8193:8216   */\n          sub\n            /* \"#utility.yul\":8189:8221   */\n          slt\n            /* \"#utility.yul\":8186:8305   */\n          iszero\n          tag_363\n          jumpi\n            /* \"#utility.yul\":8224:8303   */\n          tag_364\n          tag_202\n          jump\t// in\n        tag_364:\n            /* \"#utility.yul\":8186:8305   */\n        tag_363:\n            /* \"#utility.yul\":8344:8345   */\n          0x00\n            /* \"#utility.yul\":8369:8430   */\n          tag_365\n            /* \"#utility.yul\":8422:8429   */\n          dup5\n            /* \"#utility.yul\":8413:8419   */\n          dup3\n            /* \"#utility.yul\":8402:8411   */\n          dup6\n            /* \"#utility.yul\":8398:8420   */\n          add\n            /* \"#utility.yul\":8369:8430   */\n          tag_231\n          jump\t// in\n        tag_365:\n            /* \"#utility.yul\":8359:8430   */\n          swap2\n          pop\n            /* \"#utility.yul\":8315:8440   */\n          pop\n            /* \"#utility.yul\":8102:8447   */\n          swap3\n          swap2\n          pop\n          pop\n          jump\t// out\n            /* \"#utility.yul\":8453:8627   */\n        tag_232:\n            /* \"#utility.yul\":8593:8619   */\n          0x526571756972656420746f2062652061206d656d656265720000000000000000\n            /* \"#utility.yul\":8589:8590   */\n          0x00\n            /* \"#utility.yul\":8581:8587   */\n          dup3\n            /* \"#utility.yul\":8577:8591   */\n          add\n            /* \"#utility.yul\":8570:8620   */\n          mstore\n            /* \"#utility.yul\":8453:8627   */\n          pop\n          jump\t// out\n            /* \"#utility.yul\":8633:8999   */\n        tag_233:\n            /* \"#utility.yul\":8775:8778   */\n          0x00\n            /* \"#utility.yul\":8796:8863   */\n          tag_368\n            /* \"#utility.yul\":8860:8862   */\n          0x18\n            /* \"#utility.yul\":8855:8858   */\n          dup4\n            /* \"#utility.yul\":8796:8863   */\n          tag_209\n          jump\t// in\n        tag_368:\n            /* \"#utility.yul\":8789:8863   */\n          swap2\n          pop\n            /* \"#utility.yul\":8872:8965   */\n          tag_369\n            /* \"#utility.yul\":8961:8964   */\n          dup3\n            /* \"#utility.yul\":8872:8965   */\n          tag_232\n          jump\t// in\n        tag_369:\n            /* \"#utility.yul\":8990:8992   */\n          0x20\n            /* \"#utility.yul\":8985:8988   */\n          dup3\n            /* \"#utility.yul\":8981:8993   */\n          add\n            /* \"#utility.yul\":8974:8993   */\n          swap1\n          pop\n            /* \"#utility.yul\":8633:8999   */\n          swap2\n          swap1\n          pop\n          jump\t// out\n            /* \"#utility.yul\":9005:9424   */\n        tag_82:\n            /* \"#utility.yul\":9171:9175   */\n          0x00\n            /* \"#utility.yul\":9209:9211   */\n          0x20\n            /* \"#utility.yul\":9198:9207   */\n          dup3\n            /* \"#utility.yul\":9194:9212   */\n          add\n            /* \"#utility.yul\":9186:9212   */\n          swap1\n          pop\n            /* \"#utility.yul\":9258:9267   */\n          dup2\n            /* \"#utility.yul\":9252:9256   */\n          dup2\n            /* \"#utility.yul\":9248:9268   */\n          sub\n            /* \"#utility.yul\":9244:9245   */\n          0x00\n            /* \"#utility.yul\":9233:9242   */\n          dup4\n            /* \"#utility.yul\":9229:9246   */\n          add\n            /* \"#utility.yul\":9222:9269   */\n          mstore\n            /* \"#utility.yul\":9286:9417   */\n          tag_371\n            /* \"#utility.yul\":9412:9416   */\n          dup2\n            /* \"#utility.yul\":9286:9417   */\n          tag_233\n          jump\t// in\n        tag_371:\n            /* \"#utility.yul\":9278:9417   */\n          swap1\n          pop\n            /* \"#utility.yul\":9005:9424   */\n          swap2\n          swap1\n          pop\n          jump\t// out\n            /* \"#utility.yul\":9430:9610   */\n        tag_234:\n            /* \"#utility.yul\":9478:9555   */\n          0x4e487b7100000000000000000000000000000000000000000000000000000000\n            /* \"#utility.yul\":9475:9476   */\n          0x00\n            /* \"#utility.yul\":9468:9556   */\n          mstore\n            /* \"#utility.yul\":9575:9579   */\n          0x22\n            /* \"#utility.yul\":9572:9573   */\n          0x04\n            /* \"#utility.yul\":9565:9580   */\n          mstore\n            /* \"#utility.yul\":9599:9603   */\n          0x24\n            /* \"#utility.yul\":9596:9597   */\n          0x00\n            /* \"#utility.yul\":9589:9604   */\n          revert\n            /* \"#utility.yul\":9616:9936   */\n        tag_85:\n            /* \"#utility.yul\":9660:9666   */\n          0x00\n            /* \"#utility.yul\":9697:9698   */\n          0x02\n            /* \"#utility.yul\":9691:9695   */\n          dup3\n            /* \"#utility.yul\":9687:9699   */\n          div\n            /* \"#utility.yul\":9677:9699   */\n          swap1\n          pop\n            /* \"#utility.yul\":9744:9745   */\n          0x01\n            /* \"#utility.yul\":9738:9742   */\n          dup3\n            /* \"#utility.yul\":9734:9746   */\n          and\n            /* \"#utility.yul\":9765:9783   */\n          dup1\n            /* \"#utility.yul\":9755:9836   */\n          tag_374\n          jumpi\n            /* \"#utility.yul\":9821:9825   */\n          0x7f\n            /* \"#utility.yul\":9813:9819   */\n          dup3\n            /* \"#utility.yul\":9809:9826   */\n          and\n            /* \"#utility.yul\":9799:9826   */\n          swap2\n          pop\n            /* \"#utility.yul\":9755:9836   */\n        tag_374:\n            /* \"#utility.yul\":9883:9885   */\n          0x20\n            /* \"#utility.yul\":9875:9881   */\n          dup3\n            /* \"#utility.yul\":9872:9886   */\n          lt\n            /* \"#utility.yul\":9852:9870   */\n          dup2\n            /* \"#utility.yul\":9849:9887   */\n          sub\n            /* \"#utility.yul\":9846:9930   */\n          tag_375\n          jumpi\n            /* \"#utility.yul\":9902:9920   */\n          tag_376\n          tag_234\n          jump\t// in\n        tag_376:\n            /* \"#utility.yul\":9846:9930   */\n        tag_375:\n            /* \"#utility.yul\":9667:9936   */\n          pop\n            /* \"#utility.yul\":9616:9936   */\n          swap2\n          swap1\n          pop\n          jump\t// out\n            /* \"#utility.yul\":9942:10105   */\n        tag_235:\n            /* \"#utility.yul\":10082:10097   */\n          0x4163636573732044656e69656400000000000000000000000000000000000000\n            /* \"#utility.yul\":10078:10079   */\n          0x00\n            /* \"#utility.yul\":10070:10076   */\n          dup3\n            /* \"#utility.yul\":10066:10080   */\n          add\n            /* \"#utility.yul\":10059:10098   */\n          mstore\n            /* \"#utility.yul\":9942:10105   */\n          pop\n          jump\t// out\n            /* \"#utility.yul\":10111:10477   */\n        tag_236:\n            /* \"#utility.yul\":10253:10256   */\n          0x00\n            /* \"#utility.yul\":10274:10341   */\n          tag_379\n            /* \"#utility.yul\":10338:10340   */\n          0x0d\n            /* \"#utility.yul\":10333:10336   */\n          dup4\n            /* \"#utility.yul\":10274:10341   */\n          tag_209\n          jump\t// in\n        tag_379:\n            /* \"#utility.yul\":10267:10341   */\n          swap2\n          pop\n            /* \"#utility.yul\":10350:10443   */\n          tag_380\n            /* \"#utility.yul\":10439:10442   */\n          dup3\n            /* \"#utility.yul\":10350:10443   */\n          tag_235\n          jump\t// in\n        tag_380:\n            /* \"#utility.yul\":10468:10470   */\n          0x20\n            /* \"#utility.yul\":10463:10466   */\n          dup3\n            /* \"#utility.yul\":10459:10471   */\n          add\n            /* \"#utility.yul\":10452:10471   */\n          swap1\n          pop\n            /* \"#utility.yul\":10111:10477   */\n          swap2\n          swap1\n          pop\n          jump\t// out\n            /* \"#utility.yul\":10483:10902   */\n        tag_93:\n            /* \"#utility.yul\":10649:10653   */\n          0x00\n            /* \"#utility.yul\":10687:10689   */\n          0x20\n            /* \"#utility.yul\":10676:10685   */\n          dup3\n            /* \"#utility.yul\":10672:10690   */\n          add\n            /* \"#utility.yul\":10664:10690   */\n          swap1\n          pop\n            /* \"#utility.yul\":10736:10745   */\n          dup2\n            /* \"#utility.yul\":10730:10734   */\n          dup2\n            /* \"#utility.yul\":10726:10746   */\n          sub\n            /* \"#utility.yul\":10722:10723   */\n          0x00\n            /* \"#utility.yul\":10711:10720   */\n          dup4\n            /* \"#utility.yul\":10707:10724   */\n          add\n            /* \"#utility.yul\":10700:10747   */\n          mstore\n            /* \"#utility.yul\":10764:10895   */\n          tag_382\n            /* \"#utility.yul\":10890:10894   */\n          dup2\n            /* \"#utility.yul\":10764:10895   */\n          tag_236\n          jump\t// in\n        tag_382:\n            /* \"#utility.yul\":10756:10895   */\n          swap1\n          pop\n            /* \"#utility.yul\":10483:10902   */\n          swap2\n          swap1\n          pop\n          jump\t// out\n            /* \"#utility.yul\":10908:11130   */\n        tag_237:\n            /* \"#utility.yul\":11048:11082   */\n          0x54686973206973206e6f7420746865206d656d62657220506f6f6c2041646472\n            /* \"#utility.yul\":11044:11045   */\n          0x00\n            /* \"#utility.yul\":11036:11042   */\n          dup3\n            /* \"#utility.yul\":11032:11046   */\n          add\n            /* \"#utility.yul\":11025:11083   */\n          mstore\n            /* \"#utility.yul\":11117:11122   */\n          0x6573730000000000000000000000000000000000000000000000000000000000\n            /* \"#utility.yul\":11112:11114   */\n          0x20\n            /* \"#utility.yul\":11104:11110   */\n          dup3\n            /* \"#utility.yul\":11100:11115   */\n          add\n            /* \"#utility.yul\":11093:11123   */\n          mstore\n            /* \"#utility.yul\":10908:11130   */\n          pop\n          jump\t// out\n            /* \"#utility.yul\":11136:11502   */\n        tag_238:\n            /* \"#utility.yul\":11278:11281   */\n          0x00\n            /* \"#utility.yul\":11299:11366   */\n          tag_385\n            /* \"#utility.yul\":11363:11365   */\n          0x23\n            /* \"#utility.yul\":11358:11361   */\n          dup4\n            /* \"#utility.yul\":11299:11366   */\n          tag_209\n          jump\t// in\n        tag_385:\n            /* \"#utility.yul\":11292:11366   */\n          swap2\n          pop\n            /* \"#utility.yul\":11375:11468   */\n          tag_386\n            /* \"#utility.yul\":11464:11467   */\n          dup3\n            /* \"#utility.yul\":11375:11468   */\n          tag_237\n          jump\t// in\n        tag_386:\n            /* \"#utility.yul\":11493:11495   */\n          0x40\n            /* \"#utility.yul\":11488:11491   */\n          dup3\n            /* \"#utility.yul\":11484:11496   */\n          add\n            /* \"#utility.yul\":11477:11496   */\n          swap1\n          pop\n            /* \"#utility.yul\":11136:11502   */\n          swap2\n          swap1\n          pop\n          jump\t// out\n            /* \"#utility.yul\":11508:11927   */\n        tag_97:\n            /* \"#utility.yul\":11674:11678   */\n          0x00\n            /* \"#utility.yul\":11712:11714   */\n          0x20\n            /* \"#utility.yul\":11701:11710   */\n          dup3\n            /* \"#utility.yul\":11697:11715   */\n          add\n            /* \"#utility.yul\":11689:11715   */\n          swap1\n          pop\n            /* \"#utility.yul\":11761:11770   */\n          dup2\n            /* \"#utility.yul\":11755:11759   */\n          dup2\n            /* \"#utility.yul\":11751:11771   */\n          sub\n            /* \"#utility.yul\":11747:11748   */\n          0x00\n            /* \"#utility.yul\":11736:11745   */\n          dup4\n            /* \"#utility.yul\":11732:11749   */\n          add\n            /* \"#utility.yul\":11725:11772   */\n          mstore\n            /* \"#utility.yul\":11789:11920   */\n          tag_388\n            /* \"#utility.yul\":11915:11919   */\n          dup2\n            /* \"#utility.yul\":11789:11920   */\n          tag_238\n          jump\t// in\n        tag_388:\n            /* \"#utility.yul\":11781:11920   */\n          swap1\n          pop\n            /* \"#utility.yul\":11508:11927   */\n          swap2\n          swap1\n          pop\n          jump\t// out\n            /* \"#utility.yul\":11933:12108   */\n        tag_239:\n            /* \"#utility.yul\":12073:12100   */\n          0x496e76616c6964206170706c6963616e74206164647265737300000000000000\n            /* \"#utility.yul\":12069:12070   */\n          0x00\n            /* \"#utility.yul\":12061:12067   */\n          dup3\n            /* \"#utility.yul\":12057:12071   */\n          add\n            /* \"#utility.yul\":12050:12101   */\n          mstore\n            /* \"#utility.yul\":11933:12108   */\n          pop\n          jump\t// out\n            /* \"#utility.yul\":12114:12480   */\n        tag_240:\n            /* \"#utility.yul\":12256:12259   */\n          0x00\n            /* \"#utility.yul\":12277:12344   */\n          tag_391\n            /* \"#utility.yul\":12341:12343   */\n          0x19\n            /* \"#utility.yul\":12336:12339   */\n          dup4\n            /* \"#utility.yul\":12277:12344   */\n          tag_209\n          jump\t// in\n        tag_391:\n            /* \"#utility.yul\":12270:12344   */\n          swap2\n          pop\n            /* \"#utility.yul\":12353:12446   */\n          tag_392\n            /* \"#utility.yul\":12442:12445   */\n          dup3\n            /* \"#utility.yul\":12353:12446   */\n          tag_239\n          jump\t// in\n        tag_392:\n            /* \"#utility.yul\":12471:12473   */\n          0x20\n            /* \"#utility.yul\":12466:12469   */\n          dup3\n            /* \"#utility.yul\":12462:12474   */\n          add\n            /* \"#utility.yul\":12455:12474   */\n          swap1\n          pop\n            /* \"#utility.yul\":12114:12480   */\n          swap2\n          swap1\n          pop\n          jump\t// out\n            /* \"#utility.yul\":12486:12905   */\n        tag_112:\n            /* \"#utility.yul\":12652:12656   */\n          0x00\n            /* \"#utility.yul\":12690:12692   */\n          0x20\n            /* \"#utility.yul\":12679:12688   */\n          dup3\n            /* \"#utility.yul\":12675:12693   */\n          add\n            /* \"#utility.yul\":12667:12693   */\n          swap1\n          pop\n            /* \"#utility.yul\":12739:12748   */\n          dup2\n            /* \"#utility.yul\":12733:12737   */\n          dup2\n            /* \"#utility.yul\":12729:12749   */\n          sub\n            /* \"#utility.yul\":12725:12726   */\n          0x00\n            /* \"#utility.yul\":12714:12723   */\n          dup4\n            /* \"#utility.yul\":12710:12727   */\n          add\n            /* \"#utility.yul\":12703:12750   */\n          mstore\n            /* \"#utility.yul\":12767:12898   */\n          tag_394\n            /* \"#utility.yul\":12893:12897   */\n          dup2\n            /* \"#utility.yul\":12767:12898   */\n          tag_240\n          jump\t// in\n        tag_394:\n            /* \"#utility.yul\":12759:12898   */\n          swap1\n          pop\n            /* \"#utility.yul\":12486:12905   */\n          swap2\n          swap1\n          pop\n          jump\t// out\n            /* \"#utility.yul\":12911:12987   */\n        tag_241:\n            /* \"#utility.yul\":12947:12954   */\n          0x00\n            /* \"#utility.yul\":12976:12981   */\n          dup2\n            /* \"#utility.yul\":12965:12981   */\n          swap1\n          pop\n            /* \"#utility.yul\":12911:12987   */\n          swap2\n          swap1\n          pop\n          jump\t// out\n            /* \"#utility.yul\":12993:13173   */\n        tag_242:\n            /* \"#utility.yul\":13041:13118   */\n          0x4e487b7100000000000000000000000000000000000000000000000000000000\n            /* \"#utility.yul\":13038:13039   */\n          0x00\n            /* \"#utility.yul\":13031:13119   */\n          mstore\n            /* \"#utility.yul\":13138:13142   */\n          0x11\n            /* \"#utility.yul\":13135:13136   */\n          0x04\n            /* \"#utility.yul\":13128:13143   */\n          mstore\n            /* \"#utility.yul\":13162:13166   */\n          0x24\n            /* \"#utility.yul\":13159:13160   */\n          0x00\n            /* \"#utility.yul\":13152:13167   */\n          revert\n            /* \"#utility.yul\":13179:13551   */\n        tag_114:\n            /* \"#utility.yul\":13218:13222   */\n          0x00\n            /* \"#utility.yul\":13238:13257   */\n          tag_398\n            /* \"#utility.yul\":13255:13256   */\n          dup3\n            /* \"#utility.yul\":13238:13257   */\n          tag_241\n          jump\t// in\n        tag_398:\n            /* \"#utility.yul\":13233:13257   */\n          swap2\n          pop\n            /* \"#utility.yul\":13271:13290   */\n          tag_399\n            /* \"#utility.yul\":13288:13289   */\n          dup4\n            /* \"#utility.yul\":13271:13290   */\n          tag_241\n          jump\t// in\n        tag_399:\n            /* \"#utility.yul\":13266:13290   */\n          swap3\n          pop\n            /* \"#utility.yul\":13314:13315   */\n          dup3\n            /* \"#utility.yul\":13311:13312   */\n          dup3\n            /* \"#utility.yul\":13307:13316   */\n          sub\n            /* \"#utility.yul\":13299:13316   */\n          swap1\n          pop\n            /* \"#utility.yul\":13508:13509   */\n          dup2\n            /* \"#utility.yul\":13502:13506   */\n          dup2\n            /* \"#utility.yul\":13498:13510   */\n          slt\n            /* \"#utility.yul\":13494:13495   */\n          0x00\n            /* \"#utility.yul\":13491:13492   */\n          dup5\n            /* \"#utility.yul\":13487:13496   */\n          slt\n            /* \"#utility.yul\":13483:13511   */\n          and\n            /* \"#utility.yul\":13466:13467   */\n          dup3\n            /* \"#utility.yul\":13460:13464   */\n          dup3\n            /* \"#utility.yul\":13456:13468   */\n          sgt\n            /* \"#utility.yul\":13451:13452   */\n          0x00\n            /* \"#utility.yul\":13448:13449   */\n          dup6\n            /* \"#utility.yul\":13444:13453   */\n          slt\n            /* \"#utility.yul\":13437:13454   */\n          iszero\n            /* \"#utility.yul\":13433:13469   */\n          and\n            /* \"#utility.yul\":13417:13521   */\n          or\n            /* \"#utility.yul\":13414:13544   */\n          iszero\n          tag_400\n          jumpi\n            /* \"#utility.yul\":13524:13542   */\n          tag_401\n          tag_242\n          jump\t// in\n        tag_401:\n            /* \"#utility.yul\":13414:13544   */\n        tag_400:\n            /* \"#utility.yul\":13179:13551   */\n          swap3\n          swap2\n          pop\n          pop\n          jump\t// out\n            /* \"#utility.yul\":13557:13722   */\n        tag_243:\n            /* \"#utility.yul\":13697:13714   */\n          0x4e6f742061206170706c6963616e740000000000000000000000000000000000\n            /* \"#utility.yul\":13693:13694   */\n          0x00\n            /* \"#utility.yul\":13685:13691   */\n          dup3\n            /* \"#utility.yul\":13681:13695   */\n          add\n            /* \"#utility.yul\":13674:13715   */\n          mstore\n            /* \"#utility.yul\":13557:13722   */\n          pop\n          jump\t// out\n            /* \"#utility.yul\":13728:14094   */\n        tag_244:\n            /* \"#utility.yul\":13870:13873   */\n          0x00\n            /* \"#utility.yul\":13891:13958   */\n          tag_404\n            /* \"#utility.yul\":13955:13957   */\n          0x0f\n            /* \"#utility.yul\":13950:13953   */\n          dup4\n            /* \"#utility.yul\":13891:13958   */\n          tag_209\n          jump\t// in\n        tag_404:\n            /* \"#utility.yul\":13884:13958   */\n          swap2\n          pop\n            /* \"#utility.yul\":13967:14060   */\n          tag_405\n            /* \"#utility.yul\":14056:14059   */\n          dup3\n            /* \"#utility.yul\":13967:14060   */\n          tag_243\n          jump\t// in\n        tag_405:\n            /* \"#utility.yul\":14085:14087   */\n          0x20\n            /* \"#utility.yul\":14080:14083   */\n          dup3\n            /* \"#utility.yul\":14076:14088   */\n          add\n            /* \"#utility.yul\":14069:14088   */\n          swap1\n          pop\n            /* \"#utility.yul\":13728:14094   */\n          swap2\n          swap1\n          pop\n          jump\t// out\n            /* \"#utility.yul\":14100:14519   */\n        tag_127:\n            /* \"#utility.yul\":14266:14270   */\n          0x00\n            /* \"#utility.yul\":14304:14306   */\n          0x20\n            /* \"#utility.yul\":14293:14302   */\n          dup3\n            /* \"#utility.yul\":14289:14307   */\n          add\n            /* \"#utility.yul\":14281:14307   */\n          swap1\n          pop\n            /* \"#utility.yul\":14353:14362   */\n          dup2\n            /* \"#utility.yul\":14347:14351   */\n          dup2\n            /* \"#utility.yul\":14343:14363   */\n          sub\n            /* \"#utility.yul\":14339:14340   */\n          0x00\n            /* \"#utility.yul\":14328:14337   */\n          dup4\n            /* \"#utility.yul\":14324:14341   */\n          add\n            /* \"#utility.yul\":14317:14364   */\n          mstore\n            /* \"#utility.yul\":14381:14512   */\n          tag_407\n            /* \"#utility.yul\":14507:14511   */\n          dup2\n            /* \"#utility.yul\":14381:14512   */\n          tag_244\n          jump\t// in\n        tag_407:\n            /* \"#utility.yul\":14373:14512   */\n          swap1\n          pop\n            /* \"#utility.yul\":14100:14519   */\n          swap2\n          swap1\n          pop\n          jump\t// out\n            /* \"#utility.yul\":14525:14705   */\n        tag_133:\n            /* \"#utility.yul\":14573:14650   */\n          0x4e487b7100000000000000000000000000000000000000000000000000000000\n            /* \"#utility.yul\":14570:14571   */\n          0x00\n            /* \"#utility.yul\":14563:14651   */\n          mstore\n            /* \"#utility.yul\":14670:14674   */\n          0x32\n            /* \"#utility.yul\":14667:14668   */\n          0x04\n            /* \"#utility.yul\":14660:14675   */\n          mstore\n            /* \"#utility.yul\":14694:14698   */\n          0x24\n            /* \"#utility.yul\":14691:14692   */\n          0x00\n            /* \"#utility.yul\":14684:14699   */\n          revert\n            /* \"#utility.yul\":14711:14944   */\n        tag_137:\n            /* \"#utility.yul\":14750:14753   */\n          0x00\n            /* \"#utility.yul\":14773:14797   */\n          tag_410\n            /* \"#utility.yul\":14791:14796   */\n          dup3\n            /* \"#utility.yul\":14773:14797   */\n          tag_220\n          jump\t// in\n        tag_410:\n            /* \"#utility.yul\":14764:14797   */\n          swap2\n          pop\n            /* \"#utility.yul\":14819:14885   */\n          0xffffffffffffffffffffffffffffffffffffffffffffffffffffffffffffffff\n            /* \"#utility.yul\":14812:14817   */\n          dup3\n            /* \"#utility.yul\":14809:14886   */\n          sub\n            /* \"#utility.yul\":14806:14909   */\n          tag_411\n          jumpi\n            /* \"#utility.yul\":14889:14907   */\n          tag_412\n          tag_242\n          jump\t// in\n        tag_412:\n            /* \"#utility.yul\":14806:14909   */\n        tag_411:\n            /* \"#utility.yul\":14936:14937   */\n          0x01\n            /* \"#utility.yul\":14929:14934   */\n          dup3\n            /* \"#utility.yul\":14925:14938   */\n          add\n            /* \"#utility.yul\":14918:14938   */\n          swap1\n          pop\n            /* \"#utility.yul\":14711:14944   */\n          swap2\n          swap1\n          pop\n          jump\t// out\n            /* \"#utility.yul\":14950:15120   */\n        tag_245:\n            /* \"#utility.yul\":15090:15112   */\n          0x53656e64657220616c726561647920766f746564000000000000000000000000\n            /* \"#utility.yul\":15086:15087   */\n          0x00\n            /* \"#utility.yul\":15078:15084   */\n          dup3\n            /* \"#utility.yul\":15074:15088   */\n          add\n            /* \"#utility.yul\":15067:15113   */\n          mstore\n            /* \"#utility.yul\":14950:15120   */\n          pop\n          jump\t// out\n            /* \"#utility.yul\":15126:15492   */\n        tag_246:\n            /* \"#utility.yul\":15268:15271   */\n          0x00\n            /* \"#utility.yul\":15289:15356   */\n          tag_415\n            /* \"#utility.yul\":15353:15355   */\n          0x14\n            /* \"#utility.yul\":15348:15351   */\n          dup4\n            /* \"#utility.yul\":15289:15356   */\n          tag_209\n          jump\t// in\n        tag_415:\n            /* \"#utility.yul\":15282:15356   */\n          swap2\n          pop\n            /* \"#utility.yul\":15365:15458   */\n          tag_416\n            /* \"#utility.yul\":15454:15457   */\n          dup3\n            /* \"#utility.yul\":15365:15458   */\n          tag_245\n          jump\t// in\n        tag_416:\n            /* \"#utility.yul\":15483:15485   */\n          0x20\n            /* \"#utility.yul\":15478:15481   */\n          dup3\n            /* \"#utility.yul\":15474:15486   */\n          add\n            /* \"#utility.yul\":15467:15486   */\n          swap1\n          pop\n            /* \"#utility.yul\":15126:15492   */\n          swap2\n          swap1\n          pop\n          jump\t// out\n            /* \"#utility.yul\":15498:15917   */\n        tag_140:\n            /* \"#utility.yul\":15664:15668   */\n          0x00\n            /* \"#utility.yul\":15702:15704   */\n          0x20\n            /* \"#utility.yul\":15691:15700   */\n          dup3\n            /* \"#utility.yul\":15687:15705   */\n          add\n            /* \"#utility.yul\":15679:15705   */\n          swap1\n          pop\n            /* \"#utility.yul\":15751:15760   */\n          dup2\n            /* \"#utility.yul\":15745:15749   */\n          dup2\n            /* \"#utility.yul\":15741:15761   */\n          sub\n            /* \"#utility.yul\":15737:15738   */\n          0x00\n            /* \"#utility.yul\":15726:15735   */\n          dup4\n            /* \"#utility.yul\":15722:15739   */\n          add\n            /* \"#utility.yul\":15715:15762   */\n          mstore\n            /* \"#utility.yul\":15779:15910   */\n          tag_418\n            /* \"#utility.yul\":15905:15909   */\n          dup2\n            /* \"#utility.yul\":15779:15910   */\n          tag_246\n          jump\t// in\n        tag_418:\n            /* \"#utility.yul\":15771:15910   */\n          swap1\n          pop\n            /* \"#utility.yul\":15498:15917   */\n          swap2\n          swap1\n          pop\n          jump\t// out\n            /* \"#utility.yul\":15923:16298   */\n        tag_143:\n            /* \"#utility.yul\":15962:15965   */\n          0x00\n            /* \"#utility.yul\":15981:16000   */\n          tag_420\n            /* \"#utility.yul\":15998:15999   */\n          dup3\n            /* \"#utility.yul\":15981:16000   */\n          tag_241\n          jump\t// in\n        tag_420:\n            /* \"#utility.yul\":15976:16000   */\n          swap2\n          pop\n            /* \"#utility.yul\":16014:16033   */\n          tag_421\n            /* \"#utility.yul\":16031:16032   */\n          dup4\n            /* \"#utility.yul\":16014:16033   */\n          tag_241\n          jump\t// in\n        tag_421:\n            /* \"#utility.yul\":16009:16033   */\n          swap3\n          pop\n            /* \"#utility.yul\":16056:16057   */\n          dup3\n            /* \"#utility.yul\":16053:16054   */\n          dup3\n            /* \"#utility.yul\":16049:16058   */\n          add\n            /* \"#utility.yul\":16042:16058   */\n          swap1\n          pop\n            /* \"#utility.yul\":16254:16255   */\n          dup3\n            /* \"#utility.yul\":16249:16252   */\n          dup2\n            /* \"#utility.yul\":16245:16256   */\n          slt\n            /* \"#utility.yul\":16238:16257   */\n          iszero\n            /* \"#utility.yul\":16234:16235   */\n          0x00\n            /* \"#utility.yul\":16231:16232   */\n          dup4\n            /* \"#utility.yul\":16227:16236   */\n          slt\n            /* \"#utility.yul\":16223:16258   */\n          and\n            /* \"#utility.yul\":16206:16207   */\n          dup4\n            /* \"#utility.yul\":16201:16204   */\n          dup3\n            /* \"#utility.yul\":16197:16208   */\n          slt\n            /* \"#utility.yul\":16192:16193   */\n          0x00\n            /* \"#utility.yul\":16189:16190   */\n          dup5\n            /* \"#utility.yul\":16185:16194   */\n          slt\n            /* \"#utility.yul\":16178:16195   */\n          iszero\n            /* \"#utility.yul\":16174:16209   */\n          and\n            /* \"#utility.yul\":16158:16268   */\n          or\n            /* \"#utility.yul\":16155:16291   */\n          iszero\n          tag_422\n          jumpi\n            /* \"#utility.yul\":16271:16289   */\n          tag_423\n          tag_242\n          jump\t// in\n        tag_423:\n            /* \"#utility.yul\":16155:16291   */\n        tag_422:\n            /* \"#utility.yul\":15923:16298   */\n          swap3\n          swap2\n          pop\n          pop\n          jump\t// out\n            /* \"#utility.yul\":16304:16475   */\n        tag_247:\n            /* \"#utility.yul\":16444:16467   */\n          0x416c726561647920616374697665206d656d6265720000000000000000000000\n            /* \"#utility.yul\":16440:16441   */\n          0x00\n            /* \"#utility.yul\":16432:16438   */\n          dup3\n            /* \"#utility.yul\":16428:16442   */\n          add\n            /* \"#utility.yul\":16421:16468   */\n          mstore\n            /* \"#utility.yul\":16304:16475   */\n          pop\n          jump\t// out\n            /* \"#utility.yul\":16481:16847   */\n        tag_248:\n            /* \"#utility.yul\":16623:16626   */\n          0x00\n            /* \"#utility.yul\":16644:16711   */\n          tag_426\n            /* \"#utility.yul\":16708:16710   */\n          0x15\n            /* \"#utility.yul\":16703:16706   */\n          dup4\n            /* \"#utility.yul\":16644:16711   */\n          tag_209\n          jump\t// in\n        tag_426:\n            /* \"#utility.yul\":16637:16711   */\n          swap2\n          pop\n            /* \"#utility.yul\":16720:16813   */\n          tag_427\n            /* \"#utility.yul\":16809:16812   */\n          dup3\n            /* \"#utility.yul\":16720:16813   */\n          tag_247\n          jump\t// in\n        tag_427:\n            /* \"#utility.yul\":16838:16840   */\n          0x20\n            /* \"#utility.yul\":16833:16836   */\n          dup3\n            /* \"#utility.yul\":16829:16841   */\n          add\n            /* \"#utility.yul\":16822:16841   */\n          swap1\n          pop\n            /* \"#utility.yul\":16481:16847   */\n          swap2\n          swap1\n          pop\n          jump\t// out\n            /* \"#utility.yul\":16853:17272   */\n        tag_161:\n            /* \"#utility.yul\":17019:17023   */\n          0x00\n            /* \"#utility.yul\":17057:17059   */\n          0x20\n            /* \"#utility.yul\":17046:17055   */\n          dup3\n            /* \"#utility.yul\":17042:17060   */\n          add\n            /* \"#utility.yul\":17034:17060   */\n          swap1\n          pop\n            /* \"#utility.yul\":17106:17115   */\n          dup2\n            /* \"#utility.yul\":17100:17104   */\n          dup2\n            /* \"#utility.yul\":17096:17116   */\n          sub\n            /* \"#utility.yul\":17092:17093   */\n          0x00\n            /* \"#utility.yul\":17081:17090   */\n          dup4\n            /* \"#utility.yul\":17077:17094   */\n          add\n            /* \"#utility.yul\":17070:17117   */\n          mstore\n            /* \"#utility.yul\":17134:17265   */\n          tag_429\n            /* \"#utility.yul\":17260:17264   */\n          dup2\n            /* \"#utility.yul\":17134:17265   */\n          tag_248\n          jump\t// in\n        tag_429:\n            /* \"#utility.yul\":17126:17265   */\n          swap1\n          pop\n            /* \"#utility.yul\":16853:17272   */\n          swap2\n          swap1\n          pop\n          jump\t// out\n            /* \"#utility.yul\":17278:17452   */\n        tag_249:\n            /* \"#utility.yul\":17418:17444   */\n          0x416c726561647920616374697665206170706c6963616e740000000000000000\n            /* \"#utility.yul\":17414:17415   */\n          0x00\n            /* \"#utility.yul\":17406:17412   */\n          dup3\n            /* \"#utility.yul\":17402:17416   */\n          add\n            /* \"#utility.yul\":17395:17445   */\n          mstore\n            /* \"#utility.yul\":17278:17452   */\n          pop\n          jump\t// out\n            /* \"#utility.yul\":17458:17824   */\n        tag_250:\n            /* \"#utility.yul\":17600:17603   */\n          0x00\n            /* \"#utility.yul\":17621:17688   */\n          tag_432\n            /* \"#utility.yul\":17685:17687   */\n          0x18\n            /* \"#utility.yul\":17680:17683   */\n          dup4\n            /* \"#utility.yul\":17621:17688   */\n          tag_209\n          jump\t// in\n        tag_432:\n            /* \"#utility.yul\":17614:17688   */\n          swap2\n          pop\n            /* \"#utility.yul\":17697:17790   */\n          tag_433\n            /* \"#utility.yul\":17786:17789   */\n          dup3\n            /* \"#utility.yul\":17697:17790   */\n          tag_249\n          jump\t// in\n        tag_433:\n            /* \"#utility.yul\":17815:17817   */\n          0x20\n            /* \"#utility.yul\":17810:17813   */\n          dup3\n            /* \"#utility.yul\":17806:17818   */\n          add\n            /* \"#utility.yul\":17799:17818   */\n          swap1\n          pop\n            /* \"#utility.yul\":17458:17824   */\n          swap2\n          swap1\n          pop\n          jump\t// out\n            /* \"#utility.yul\":17830:18249   */\n        tag_164:\n            /* \"#utility.yul\":17996:18000   */\n          0x00\n            /* \"#utility.yul\":18034:18036   */\n          0x20\n            /* \"#utility.yul\":18023:18032   */\n          dup3\n            /* \"#utility.yul\":18019:18037   */\n          add\n            /* \"#utility.yul\":18011:18037   */\n          swap1\n          pop\n            /* \"#utility.yul\":18083:18092   */\n          dup2\n            /* \"#utility.yul\":18077:18081   */\n          dup2\n            /* \"#utility.yul\":18073:18093   */\n          sub\n            /* \"#utility.yul\":18069:18070   */\n          0x00\n            /* \"#utility.yul\":18058:18067   */\n          dup4\n            /* \"#utility.yul\":18054:18071   */\n          add\n            /* \"#utility.yul\":18047:18094   */\n          mstore\n            /* \"#utility.yul\":18111:18242   */\n          tag_435\n            /* \"#utility.yul\":18237:18241   */\n          dup2\n            /* \"#utility.yul\":18111:18242   */\n          tag_250\n          jump\t// in\n        tag_435:\n            /* \"#utility.yul\":18103:18242   */\n          swap1\n          pop\n            /* \"#utility.yul\":17830:18249   */\n          swap2\n          swap1\n          pop\n          jump\t// out\n            /* \"#utility.yul\":18255:18421   */\n        tag_251:\n            /* \"#utility.yul\":18395:18413   */\n          0x6163636f756e742072656a656374656400000000000000000000000000000000\n            /* \"#utility.yul\":18391:18392   */\n          0x00\n            /* \"#utility.yul\":18383:18389   */\n          dup3\n            /* \"#utility.yul\":18379:18393   */\n          add\n            /* \"#utility.yul\":18372:18414   */\n          mstore\n            /* \"#utility.yul\":18255:18421   */\n          pop\n          jump\t// out\n            /* \"#utility.yul\":18427:18793   */\n        tag_252:\n            /* \"#utility.yul\":18569:18572   */\n          0x00\n            /* \"#utility.yul\":18590:18657   */\n          tag_438\n            /* \"#utility.yul\":18654:18656   */\n          0x10\n            /* \"#utility.yul\":18649:18652   */\n          dup4\n            /* \"#utility.yul\":18590:18657   */\n          tag_209\n          jump\t// in\n        tag_438:\n            /* \"#utility.yul\":18583:18657   */\n          swap2\n          pop\n            /* \"#utility.yul\":18666:18759   */\n          tag_439\n            /* \"#utility.yul\":18755:18758   */\n          dup3\n            /* \"#utility.yul\":18666:18759   */\n          tag_251\n          jump\t// in\n        tag_439:\n            /* \"#utility.yul\":18784:18786   */\n          0x20\n            /* \"#utility.yul\":18779:18782   */\n          dup3\n            /* \"#utility.yul\":18775:18787   */\n          add\n            /* \"#utility.yul\":18768:18787   */\n          swap1\n          pop\n            /* \"#utility.yul\":18427:18793   */\n          swap2\n          swap1\n          pop\n          jump\t// out\n            /* \"#utility.yul\":18799:19218   */\n        tag_167:\n            /* \"#utility.yul\":18965:18969   */\n          0x00\n            /* \"#utility.yul\":19003:19005   */\n          0x20\n            /* \"#utility.yul\":18992:19001   */\n          dup3\n            /* \"#utility.yul\":18988:19006   */\n          add\n            /* \"#utility.yul\":18980:19006   */\n          swap1\n          pop\n            /* \"#utility.yul\":19052:19061   */\n          dup2\n            /* \"#utility.yul\":19046:19050   */\n          dup2\n            /* \"#utility.yul\":19042:19062   */\n          sub\n            /* \"#utility.yul\":19038:19039   */\n          0x00\n            /* \"#utility.yul\":19027:19036   */\n          dup4\n            /* \"#utility.yul\":19023:19040   */\n          add\n            /* \"#utility.yul\":19016:19063   */\n          mstore\n            /* \"#utility.yul\":19080:19211   */\n          tag_441\n            /* \"#utility.yul\":19206:19210   */\n          dup2\n            /* \"#utility.yul\":19080:19211   */\n          tag_252\n          jump\t// in\n        tag_441:\n            /* \"#utility.yul\":19072:19211   */\n          swap1\n          pop\n            /* \"#utility.yul\":18799:19218   */\n          swap2\n          swap1\n          pop\n          jump\t// out\n            /* \"#utility.yul\":19224:19415   */\n        tag_170:\n            /* \"#utility.yul\":19264:19267   */\n          0x00\n            /* \"#utility.yul\":19283:19303   */\n          tag_443\n            /* \"#utility.yul\":19301:19302   */\n          dup3\n            /* \"#utility.yul\":19283:19303   */\n          tag_220\n          jump\t// in\n        tag_443:\n            /* \"#utility.yul\":19278:19303   */\n          swap2\n          pop\n            /* \"#utility.yul\":19317:19337   */\n          tag_444\n            /* \"#utility.yul\":19335:19336   */\n          dup4\n            /* \"#utility.yul\":19317:19337   */\n          tag_220\n          jump\t// in\n        tag_444:\n            /* \"#utility.yul\":19312:19337   */\n          swap3\n          pop\n            /* \"#utility.yul\":19360:19361   */\n          dup3\n            /* \"#utility.yul\":19357:19358   */\n          dup3\n            /* \"#utility.yul\":19353:19362   */\n          add\n            /* \"#utility.yul\":19346:19362   */\n          swap1\n          pop\n            /* \"#utility.yul\":19381:19384   */\n          dup1\n            /* \"#utility.yul\":19378:19379   */\n          dup3\n            /* \"#utility.yul\":19375:19385   */\n          gt\n            /* \"#utility.yul\":19372:19408   */\n          iszero\n          tag_445\n          jumpi\n            /* \"#utility.yul\":19388:19406   */\n          tag_446\n          tag_242\n          jump\t// in\n        tag_446:\n            /* \"#utility.yul\":19372:19408   */\n        tag_445:\n            /* \"#utility.yul\":19224:19415   */\n          swap3\n          swap2\n          pop\n          pop\n          jump\t// out\n            /* \"#utility.yul\":19421:19518   */\n        tag_253:\n            /* \"#utility.yul\":19480:19486   */\n          0x00\n            /* \"#utility.yul\":19508:19511   */\n          dup3\n            /* \"#utility.yul\":19498:19511   */\n          swap1\n          pop\n            /* \"#utility.yul\":19421:19518   */\n          swap3\n          swap2\n          pop\n          pop\n          jump\t// out\n            /* \"#utility.yul\":19524:19704   */\n        tag_254:\n            /* \"#utility.yul\":19572:19649   */\n          0x4e487b7100000000000000000000000000000000000000000000000000000000\n            /* \"#utility.yul\":19569:19570   */\n          0x00\n            /* \"#utility.yul\":19562:19650   */\n          mstore\n            /* \"#utility.yul\":19669:19673   */\n          0x41\n            /* \"#utility.yul\":19666:19667   */\n          0x04\n            /* \"#utility.yul\":19659:19674   */\n          mstore\n            /* \"#utility.yul\":19693:19697   */\n          0x24\n            /* \"#utility.yul\":19690:19691   */\n          0x00\n            /* \"#utility.yul\":19683:19698   */\n          revert\n            /* \"#utility.yul\":19710:19851   */\n        tag_255:\n            /* \"#utility.yul\":19759:19763   */\n          0x00\n            /* \"#utility.yul\":19782:19785   */\n          dup2\n            /* \"#utility.yul\":19774:19785   */\n          swap1\n          pop\n            /* \"#utility.yul\":19805:19808   */\n          dup2\n            /* \"#utility.yul\":19802:19803   */\n          0x00\n            /* \"#utility.yul\":19795:19809   */\n          mstore\n            /* \"#utility.yul\":19839:19843   */\n          0x20\n            /* \"#utility.yul\":19836:19837   */\n          0x00\n            /* \"#utility.yul\":19826:19844   */\n          keccak256\n            /* \"#utility.yul\":19818:19844   */\n          swap1\n          pop\n            /* \"#utility.yul\":19710:19851   */\n          swap2\n          swap1\n          pop\n          jump\t// out\n            /* \"#utility.yul\":19857:19950   */\n        tag_256:\n            /* \"#utility.yul\":19894:19900   */\n          0x00\n            /* \"#utility.yul\":19941:19943   */\n          0x20\n            /* \"#utility.yul\":19936:19938   */\n          0x1f\n            /* \"#utility.yul\":19929:19934   */\n          dup4\n            /* \"#utility.yul\":19925:19939   */\n          add\n            /* \"#utility.yul\":19921:19944   */\n          div\n            /* \"#utility.yul\":19911:19944   */\n          swap1\n          pop\n            /* \"#utility.yul\":19857:19950   */\n          swap2\n          swap1\n          pop\n          jump\t// out\n            /* \"#utility.yul\":19956:20063   */\n        tag_257:\n            /* \"#utility.yul\":20000:20008   */\n          0x00\n            /* \"#utility.yul\":20050:20055   */\n          dup3\n            /* \"#utility.yul\":20044:20048   */\n          dup3\n            /* \"#utility.yul\":20040:20056   */\n          shl\n            /* \"#utility.yul\":20019:20056   */\n          swap1\n          pop\n            /* \"#utility.yul\":19956:20063   */\n          swap3\n          swap2\n          pop\n          pop\n          jump\t// out\n            /* \"#utility.yul\":20069:20462   */\n        tag_258:\n            /* \"#utility.yul\":20138:20144   */\n          0x00\n            /* \"#utility.yul\":20188:20189   */\n          0x08\n            /* \"#utility.yul\":20176:20186   */\n          dup4\n            /* \"#utility.yul\":20172:20190   */\n          mul\n            /* \"#utility.yul\":20211:20308   */\n          tag_453\n            /* \"#utility.yul\":20241:20307   */\n          0xffffffffffffffffffffffffffffffffffffffffffffffffffffffffffffffff\n            /* \"#utility.yul\":20230:20239   */\n          dup3\n            /* \"#utility.yul\":20211:20308   */\n          tag_257\n          jump\t// in\n        tag_453:\n            /* \"#utility.yul\":20329:20368   */\n          tag_454\n            /* \"#utility.yul\":20359:20367   */\n          dup7\n            /* \"#utility.yul\":20348:20357   */\n          dup4\n            /* \"#utility.yul\":20329:20368   */\n          tag_257\n          jump\t// in\n        tag_454:\n            /* \"#utility.yul\":20317:20368   */\n          swap6\n          pop\n            /* \"#utility.yul\":20401:20405   */\n          dup1\n            /* \"#utility.yul\":20397:20406   */\n          not\n            /* \"#utility.yul\":20390:20395   */\n          dup5\n            /* \"#utility.yul\":20386:20407   */\n          and\n            /* \"#utility.yul\":20377:20407   */\n          swap4\n          pop\n            /* \"#utility.yul\":20450:20454   */\n          dup1\n            /* \"#utility.yul\":20440:20448   */\n          dup7\n            /* \"#utility.yul\":20436:20455   */\n          and\n            /* \"#utility.yul\":20429:20434   */\n          dup5\n            /* \"#utility.yul\":20426:20456   */\n          or\n            /* \"#utility.yul\":20416:20456   */\n          swap3\n          pop\n            /* \"#utility.yul\":20145:20462   */\n          pop\n          pop\n            /* \"#utility.yul\":20069:20462   */\n          swap4\n          swap3\n          pop\n          pop\n          pop\n          jump\t// out\n            /* \"#utility.yul\":20468:20528   */\n        tag_259:\n            /* \"#utility.yul\":20496:20499   */\n          0x00\n            /* \"#utility.yul\":20517:20522   */\n          dup2\n            /* \"#utility.yul\":20510:20522   */\n          swap1\n          pop\n            /* \"#utility.yul\":20468:20528   */\n          swap2\n          swap1\n          pop\n          jump\t// out\n            /* \"#utility.yul\":20534:20676   */\n        tag_260:\n            /* \"#utility.yul\":20584:20593   */\n          0x00\n            /* \"#utility.yul\":20617:20670   */\n          tag_457\n            /* \"#utility.yul\":20635:20669   */\n          tag_458\n            /* \"#utility.yul\":20644:20668   */\n          tag_459\n            /* \"#utility.yul\":20662:20667   */\n          dup5\n            /* \"#utility.yul\":20644:20668   */\n          tag_220\n          jump\t// in\n        tag_459:\n            /* \"#utility.yul\":20635:20669   */\n          tag_259\n          jump\t// in\n        tag_458:\n            /* \"#utility.yul\":20617:20670   */\n          tag_220\n          jump\t// in\n        tag_457:\n            /* \"#utility.yul\":20604:20670   */\n          swap1\n          pop\n            /* \"#utility.yul\":20534:20676   */\n          swap2\n          swap1\n          pop\n          jump\t// out\n            /* \"#utility.yul\":20682:20757   */\n        tag_261:\n            /* \"#utility.yul\":20725:20728   */\n          0x00\n            /* \"#utility.yul\":20746:20751   */\n          dup2\n            /* \"#utility.yul\":20739:20751   */\n          swap1\n          pop\n            /* \"#utility.yul\":20682:20757   */\n          swap2\n          swap1\n          pop\n          jump\t// out\n            /* \"#utility.yul\":20763:21032   */\n        tag_262:\n            /* \"#utility.yul\":20873:20912   */\n          tag_462\n            /* \"#utility.yul\":20904:20911   */\n          dup4\n            /* \"#utility.yul\":20873:20912   */\n          tag_260\n          jump\t// in\n        tag_462:\n            /* \"#utility.yul\":20934:21025   */\n          tag_463\n            /* \"#utility.yul\":20983:21024   */\n          tag_464\n            /* \"#utility.yul\":21007:21023   */\n          dup3\n            /* \"#utility.yul\":20983:21024   */\n          tag_261\n          jump\t// in\n        tag_464:\n            /* \"#utility.yul\":20975:20981   */\n          dup5\n            /* \"#utility.yul\":20968:20972   */\n          dup5\n            /* \"#utility.yul\":20962:20973   */\n          sload\n            /* \"#utility.yul\":20934:21025   */\n          tag_258\n          jump\t// in\n        tag_463:\n            /* \"#utility.yul\":20928:20932   */\n          dup3\n            /* \"#utility.yul\":20921:21026   */\n          sstore\n            /* \"#utility.yul\":20839:21032   */\n          pop\n            /* \"#utility.yul\":20763:21032   */\n          pop\n          pop\n          pop\n          jump\t// out\n            /* \"#utility.yul\":21038:21111   */\n        tag_263:\n            /* \"#utility.yul\":21083:21086   */\n          0x00\n            /* \"#utility.yul\":21038:21111   */\n          swap1\n          jump\t// out\n            /* \"#utility.yul\":21117:21306   */\n        tag_264:\n            /* \"#utility.yul\":21194:21226   */\n          tag_467\n          tag_263\n          jump\t// in\n        tag_467:\n            /* \"#utility.yul\":21235:21300   */\n          tag_468\n            /* \"#utility.yul\":21293:21299   */\n          dup2\n            /* \"#utility.yul\":21285:21291   */\n          dup5\n            /* \"#utility.yul\":21279:21283   */\n          dup5\n            /* \"#utility.yul\":21235:21300   */\n          tag_262\n          jump\t// in\n        tag_468:\n            /* \"#utility.yul\":21170:21306   */\n          pop\n            /* \"#utility.yul\":21117:21306   */\n          pop\n          pop\n          jump\t// out\n            /* \"#utility.yul\":21312:21498   */\n        tag_265:\n            /* \"#utility.yul\":21372:21492   */\n        tag_470:\n            /* \"#utility.yul\":21389:21392   */\n          dup2\n            /* \"#utility.yul\":21382:21387   */\n          dup2\n            /* \"#utility.yul\":21379:21393   */\n          lt\n            /* \"#utility.yul\":21372:21492   */\n          iszero\n          tag_472\n          jumpi\n            /* \"#utility.yul\":21443:21482   */\n          tag_473\n            /* \"#utility.yul\":21480:21481   */\n          0x00\n            /* \"#utility.yul\":21473:21478   */\n          dup3\n            /* \"#utility.yul\":21443:21482   */\n          tag_264\n          jump\t// in\n        tag_473:\n            /* \"#utility.yul\":21416:21417   */\n          0x01\n            /* \"#utility.yul\":21409:21414   */\n          dup2\n            /* \"#utility.yul\":21405:21418   */\n          add\n            /* \"#utility.yul\":21396:21418   */\n          swap1\n          pop\n            /* \"#utility.yul\":21372:21492   */\n          jump(tag_470)\n        tag_472:\n            /* \"#utility.yul\":21312:21498   */\n          pop\n          pop\n          jump\t// out\n            /* \"#utility.yul\":21504:22047   */\n        tag_266:\n            /* \"#utility.yul\":21605:21607   */\n          0x1f\n            /* \"#utility.yul\":21600:21603   */\n          dup3\n            /* \"#utility.yul\":21597:21608   */\n          gt\n            /* \"#utility.yul\":21594:22040   */\n          iszero\n          tag_475\n          jumpi\n            /* \"#utility.yul\":21639:21677   */\n          tag_476\n            /* \"#utility.yul\":21671:21676   */\n          dup2\n            /* \"#utility.yul\":21639:21677   */\n          tag_255\n          jump\t// in\n        tag_476:\n            /* \"#utility.yul\":21723:21752   */\n          tag_477\n            /* \"#utility.yul\":21741:21751   */\n          dup5\n            /* \"#utility.yul\":21723:21752   */\n          tag_256\n          jump\t// in\n        tag_477:\n            /* \"#utility.yul\":21713:21721   */\n          dup2\n            /* \"#utility.yul\":21709:21753   */\n          add\n            /* \"#utility.yul\":21906:21908   */\n          0x20\n            /* \"#utility.yul\":21894:21904   */\n          dup6\n            /* \"#utility.yul\":21891:21909   */\n          lt\n            /* \"#utility.yul\":21888:21937   */\n          iszero\n          tag_478\n          jumpi\n            /* \"#utility.yul\":21927:21935   */\n          dup2\n            /* \"#utility.yul\":21912:21935   */\n          swap1\n          pop\n            /* \"#utility.yul\":21888:21937   */\n        tag_478:\n            /* \"#utility.yul\":21950:22030   */\n          tag_479\n            /* \"#utility.yul\":22006:22028   */\n          tag_480\n            /* \"#utility.yul\":22024:22027   */\n          dup6\n            /* \"#utility.yul\":22006:22028   */\n          tag_256\n          jump\t// in\n        tag_480:\n            /* \"#utility.yul\":21996:22004   */\n          dup4\n            /* \"#utility.yul\":21992:22029   */\n          add\n            /* \"#utility.yul\":21979:21990   */\n          dup3\n            /* \"#utility.yul\":21950:22030   */\n          tag_265\n          jump\t// in\n        tag_479:\n            /* \"#utility.yul\":21609:22040   */\n          pop\n          pop\n            /* \"#utility.yul\":21594:22040   */\n        tag_475:\n            /* \"#utility.yul\":21504:22047   */\n          pop\n          pop\n          pop\n          jump\t// out\n            /* \"#utility.yul\":22053:22170   */\n        tag_267:\n            /* \"#utility.yul\":22107:22115   */\n          0x00\n            /* \"#utility.yul\":22157:22162   */\n          dup3\n            /* \"#utility.yul\":22151:22155   */\n          dup3\n            /* \"#utility.yul\":22147:22163   */\n          shr\n            /* \"#utility.yul\":22126:22163   */\n          swap1\n          pop\n            /* \"#utility.yul\":22053:22170   */\n          swap3\n          swap2\n          pop\n          pop\n          jump\t// out\n            /* \"#utility.yul\":22176:22345   */\n        tag_268:\n            /* \"#utility.yul\":22220:22226   */\n          0x00\n            /* \"#utility.yul\":22253:22304   */\n          tag_483\n            /* \"#utility.yul\":22301:22302   */\n          0x00\n            /* \"#utility.yul\":22297:22303   */\n          not\n            /* \"#utility.yul\":22289:22294   */\n          dup5\n            /* \"#utility.yul\":22286:22287   */\n          0x08\n            /* \"#utility.yul\":22282:22295   */\n          mul\n            /* \"#utility.yul\":22253:22304   */\n          tag_267\n          jump\t// in\n        tag_483:\n            /* \"#utility.yul\":22249:22305   */\n          not\n            /* \"#utility.yul\":22334:22338   */\n          dup1\n            /* \"#utility.yul\":22328:22332   */\n          dup4\n            /* \"#utility.yul\":22324:22339   */\n          and\n            /* \"#utility.yul\":22314:22339   */\n          swap2\n          pop\n            /* \"#utility.yul\":22227:22345   */\n          pop\n            /* \"#utility.yul\":22176:22345   */\n          swap3\n          swap2\n          pop\n          pop\n          jump\t// out\n            /* \"#utility.yul\":22350:22645   */\n        tag_269:\n            /* \"#utility.yul\":22426:22430   */\n          0x00\n            /* \"#utility.yul\":22572:22601   */\n          tag_485\n            /* \"#utility.yul\":22597:22600   */\n          dup4\n            /* \"#utility.yul\":22591:22595   */\n          dup4\n            /* \"#utility.yul\":22572:22601   */\n          tag_268\n          jump\t// in\n        tag_485:\n            /* \"#utility.yul\":22564:22601   */\n          swap2\n          pop\n            /* \"#utility.yul\":22634:22637   */\n          dup3\n            /* \"#utility.yul\":22631:22632   */\n          0x02\n            /* \"#utility.yul\":22627:22638   */\n          mul\n            /* \"#utility.yul\":22621:22625   */\n          dup3\n            /* \"#utility.yul\":22618:22639   */\n          or\n            /* \"#utility.yul\":22610:22639   */\n          swap1\n          pop\n            /* \"#utility.yul\":22350:22645   */\n          swap3\n          swap2\n          pop\n          pop\n          jump\t// out\n            /* \"#utility.yul\":22650:24053   */\n        tag_172:\n            /* \"#utility.yul\":22774:22818   */\n          tag_487\n            /* \"#utility.yul\":22814:22817   */\n          dup4\n            /* \"#utility.yul\":22809:22812   */\n          dup4\n            /* \"#utility.yul\":22774:22818   */\n          tag_253\n          jump\t// in\n        tag_487:\n            /* \"#utility.yul\":22883:22901   */\n          0xffffffffffffffff\n            /* \"#utility.yul\":22875:22881   */\n          dup2\n            /* \"#utility.yul\":22872:22902   */\n          gt\n            /* \"#utility.yul\":22869:22925   */\n          iszero\n          tag_488\n          jumpi\n            /* \"#utility.yul\":22905:22923   */\n          tag_489\n          tag_254\n          jump\t// in\n        tag_489:\n            /* \"#utility.yul\":22869:22925   */\n        tag_488:\n            /* \"#utility.yul\":22949:22987   */\n          tag_490\n            /* \"#utility.yul\":22981:22985   */\n          dup3\n            /* \"#utility.yul\":22975:22986   */\n          sload\n            /* \"#utility.yul\":22949:22987   */\n          tag_85\n          jump\t// in\n        tag_490:\n            /* \"#utility.yul\":23034:23101   */\n          tag_491\n            /* \"#utility.yul\":23094:23100   */\n          dup3\n            /* \"#utility.yul\":23086:23092   */\n          dup3\n            /* \"#utility.yul\":23080:23084   */\n          dup6\n            /* \"#utility.yul\":23034:23101   */\n          tag_266\n          jump\t// in\n        tag_491:\n            /* \"#utility.yul\":23128:23129   */\n          0x00\n            /* \"#utility.yul\":23157:23159   */\n          0x1f\n            /* \"#utility.yul\":23149:23155   */\n          dup4\n            /* \"#utility.yul\":23146:23160   */\n          gt\n            /* \"#utility.yul\":23174:23175   */\n          0x01\n            /* \"#utility.yul\":23169:23801   */\n          dup2\n          eq\n          tag_493\n          jumpi\n            /* \"#utility.yul\":23845:23846   */\n          0x00\n            /* \"#utility.yul\":23862:23868   */\n          dup5\n            /* \"#utility.yul\":23859:23943   */\n          iszero\n          tag_494\n          jumpi\n            /* \"#utility.yul\":23918:23927   */\n          dup3\n            /* \"#utility.yul\":23913:23916   */\n          dup8\n            /* \"#utility.yul\":23909:23928   */\n          add\n            /* \"#utility.yul\":23896:23929   */\n          calldataload\n            /* \"#utility.yul\":23887:23929   */\n          swap1\n          pop\n            /* \"#utility.yul\":23859:23943   */\n        tag_494:\n            /* \"#utility.yul\":23969:24036   */\n          tag_495\n            /* \"#utility.yul\":24029:24035   */\n          dup6\n            /* \"#utility.yul\":24022:24027   */\n          dup3\n            /* \"#utility.yul\":23969:24036   */\n          tag_269\n          jump\t// in\n        tag_495:\n            /* \"#utility.yul\":23963:23967   */\n          dup7\n            /* \"#utility.yul\":23956:24037   */\n          sstore\n            /* \"#utility.yul\":23818:24047   */\n          pop\n            /* \"#utility.yul\":23139:24047   */\n          jump(tag_492)\n            /* \"#utility.yul\":23169:23801   */\n        tag_493:\n            /* \"#utility.yul\":23221:23225   */\n          0x1f\n            /* \"#utility.yul\":23217:23226   */\n          not\n            /* \"#utility.yul\":23209:23215   */\n          dup5\n            /* \"#utility.yul\":23205:23227   */\n          and\n            /* \"#utility.yul\":23255:23292   */\n          tag_496\n            /* \"#utility.yul\":23287:23291   */\n          dup7\n            /* \"#utility.yul\":23255:23292   */\n          tag_255\n          jump\t// in\n        tag_496:\n            /* \"#utility.yul\":23314:23315   */\n          0x00\n            /* \"#utility.yul\":23328:23543   */\n        tag_497:\n            /* \"#utility.yul\":23342:23349   */\n          dup3\n            /* \"#utility.yul\":23339:23340   */\n          dup2\n            /* \"#utility.yul\":23336:23350   */\n          lt\n            /* \"#utility.yul\":23328:23543   */\n          iszero\n          tag_499\n          jumpi\n            /* \"#utility.yul\":23428:23437   */\n          dup5\n            /* \"#utility.yul\":23423:23426   */\n          dup10\n            /* \"#utility.yul\":23419:23438   */\n          add\n            /* \"#utility.yul\":23406:23439   */\n          calldataload\n            /* \"#utility.yul\":23398:23404   */\n          dup3\n            /* \"#utility.yul\":23391:23440   */\n          sstore\n            /* \"#utility.yul\":23479:23480   */\n          0x01\n            /* \"#utility.yul\":23471:23477   */\n          dup3\n            /* \"#utility.yul\":23467:23481   */\n          add\n            /* \"#utility.yul\":23457:23481   */\n          swap2\n          pop\n            /* \"#utility.yul\":23526:23528   */\n          0x20\n            /* \"#utility.yul\":23515:23524   */\n          dup6\n            /* \"#utility.yul\":23511:23529   */\n          add\n            /* \"#utility.yul\":23498:23529   */\n          swap5\n          pop\n            /* \"#utility.yul\":23365:23369   */\n          0x20\n            /* \"#utility.yul\":23362:23363   */\n          dup2\n            /* \"#utility.yul\":23358:23370   */\n          add\n            /* \"#utility.yul\":23353:23370   */\n          swap1\n          pop\n            /* \"#utility.yul\":23328:23543   */\n          jump(tag_497)\n        tag_499:\n            /* \"#utility.yul\":23571:23577   */\n          dup7\n            /* \"#utility.yul\":23562:23569   */\n          dup4\n            /* \"#utility.yul\":23559:23578   */\n          lt\n            /* \"#utility.yul\":23556:23742   */\n          iszero\n          tag_500\n          jumpi\n            /* \"#utility.yul\":23636:23645   */\n          dup5\n            /* \"#utility.yul\":23631:23634   */\n          dup10\n            /* \"#utility.yul\":23627:23646   */\n          add\n            /* \"#utility.yul\":23614:23647   */\n          calldataload\n            /* \"#utility.yul\":23679:23727   */\n          tag_501\n            /* \"#utility.yul\":23721:23725   */\n          0x1f\n            /* \"#utility.yul\":23713:23719   */\n          dup10\n            /* \"#utility.yul\":23709:23726   */\n          and\n            /* \"#utility.yul\":23698:23707   */\n          dup3\n            /* \"#utility.yul\":23679:23727   */\n          tag_268\n          jump\t// in\n        tag_501:\n            /* \"#utility.yul\":23671:23677   */\n          dup4\n            /* \"#utility.yul\":23664:23728   */\n          sstore\n            /* \"#utility.yul\":23579:23742   */\n          pop\n            /* \"#utility.yul\":23556:23742   */\n        tag_500:\n            /* \"#utility.yul\":23788:23789   */\n          0x01\n            /* \"#utility.yul\":23784:23785   */\n          0x02\n            /* \"#utility.yul\":23776:23782   */\n          dup9\n            /* \"#utility.yul\":23772:23786   */\n          mul\n            /* \"#utility.yul\":23768:23790   */\n          add\n            /* \"#utility.yul\":23762:23766   */\n          dup9\n            /* \"#utility.yul\":23755:23791   */\n          sstore\n            /* \"#utility.yul\":23176:23801   */\n          pop\n          pop\n          pop\n            /* \"#utility.yul\":23139:24047   */\n        tag_492:\n          pop\n            /* \"#utility.yul\":22749:24053   */\n          pop\n          pop\n          pop\n            /* \"#utility.yul\":22650:24053   */\n          pop\n          pop\n          pop\n          jump\t// out\n            /* \"#utility.yul\":24059:24253   */\n        tag_185:\n            /* \"#utility.yul\":24099:24103   */\n          0x00\n            /* \"#utility.yul\":24119:24139   */\n          tag_503\n            /* \"#utility.yul\":24137:24138   */\n          dup3\n            /* \"#utility.yul\":24119:24139   */\n          tag_220\n          jump\t// in\n        tag_503:\n            /* \"#utility.yul\":24114:24139   */\n          swap2\n          pop\n            /* \"#utility.yul\":24153:24173   */\n          tag_504\n            /* \"#utility.yul\":24171:24172   */\n          dup4\n            /* \"#utility.yul\":24153:24173   */\n          tag_220\n          jump\t// in\n        tag_504:\n            /* \"#utility.yul\":24148:24173   */\n          swap3\n          pop\n            /* \"#utility.yul\":24197:24198   */\n          dup3\n            /* \"#utility.yul\":24194:24195   */\n          dup3\n            /* \"#utility.yul\":24190:24199   */\n          sub\n            /* \"#utility.yul\":24182:24199   */\n          swap1\n          pop\n            /* \"#utility.yul\":24221:24222   */\n          dup2\n            /* \"#utility.yul\":24215:24219   */\n          dup2\n            /* \"#utility.yul\":24212:24223   */\n          gt\n            /* \"#utility.yul\":24209:24246   */\n          iszero\n          tag_505\n          jumpi\n            /* \"#utility.yul\":24226:24244   */\n          tag_506\n          tag_242\n          jump\t// in\n        tag_506:\n            /* \"#utility.yul\":24209:24246   */\n        tag_505:\n            /* \"#utility.yul\":24059:24253   */\n          swap3\n          swap2\n          pop\n          pop\n          jump\t// out\n            /* \"#utility.yul\":24259:24439   */\n        tag_194:\n            /* \"#utility.yul\":24307:24384   */\n          0x4e487b7100000000000000000000000000000000000000000000000000000000\n            /* \"#utility.yul\":24304:24305   */\n          0x00\n            /* \"#utility.yul\":24297:24385   */\n          mstore\n            /* \"#utility.yul\":24404:24408   */\n          0x31\n            /* \"#utility.yul\":24401:24402   */\n          0x04\n            /* \"#utility.yul\":24394:24409   */\n          mstore\n            /* \"#utility.yul\":24428:24432   */\n          0x24\n            /* \"#utility.yul\":24425:24426   */\n          0x00\n            /* \"#utility.yul\":24418:24433   */\n          revert\n\n        auxdata: 0xa2646970667358221220f4bf0d28c0f5e9041d506e8d7f2afb55816294bc34846f4881144c13f652670264736f6c63430008110033\n    }\n}\n","bytecode":{"linkReferences":{},"object":"60806040523480156200001157600080fd5b506040516200483c3803806200483c83398181016040528101906200003791906200038e565b82600960006101000a81548173ffffffffffffffffffffffffffffffffffffffff021916908373ffffffffffffffffffffffffffffffffffffffff160217905550816000908162000089919062000654565b5080306040516200009a9062000188565b620000a79291906200074c565b604051809103906000f080158015620000c4573d6000803e3d6000fd5b50600860006101000a81548173ffffffffffffffffffffffffffffffffffffffff021916908373ffffffffffffffffffffffffffffffffffffffff160217905550600160046000600960009054906101000a900473ffffffffffffffffffffffffffffffffffffffff1673ffffffffffffffffffffffffffffffffffffffff1673ffffffffffffffffffffffffffffffffffffffff16815260200190815260200160002060006101000a81548160ff02191690831515021790555050505062000779565b61233a806200250283390190565b6000604051905090565b600080fd5b600080fd5b600073ffffffffffffffffffffffffffffffffffffffff82169050919050565b6000620001d782620001aa565b9050919050565b620001e981620001ca565b8114620001f557600080fd5b50565b6000815190506200020981620001de565b92915050565b600080fd5b600080fd5b6000601f19601f8301169050919050565b7f4e487b7100000000000000000000000000000000000000000000000000000000600052604160045260246000fd5b620002648262000219565b810181811067ffffffffffffffff821117156200028657620002856200022a565b5b80604052505050565b60006200029b62000196565b9050620002a9828262000259565b919050565b600067ffffffffffffffff821115620002cc57620002cb6200022a565b5b620002d78262000219565b9050602081019050919050565b60005b8381101562000304578082015181840152602081019050620002e7565b60008484015250505050565b6000620003276200032184620002ae565b6200028f565b90508281526020810184848401111562000346576200034562000214565b5b62000353848285620002e4565b509392505050565b600082601f8301126200037357620003726200020f565b5b81516200038584826020860162000310565b91505092915050565b600080600060608486031215620003aa57620003a9620001a0565b5b6000620003ba86828701620001f8565b935050602084015167ffffffffffffffff811115620003de57620003dd620001a5565b5b620003ec868287016200035b565b9250506040620003ff86828701620001f8565b9150509250925092565b600081519050919050565b7f4e487b7100000000000000000000000000000000000000000000000000000000600052602260045260246000fd5b600060028204905060018216806200045c57607f821691505b60208210810362000472576200047162000414565b5b50919050565b60008190508160005260206000209050919050565b60006020601f8301049050919050565b600082821b905092915050565b600060088302620004dc7fffffffffffffffffffffffffffffffffffffffffffffffffffffffffffffffff826200049d565b620004e886836200049d565b95508019841693508086168417925050509392505050565b6000819050919050565b6000819050919050565b6000620005356200052f620005298462000500565b6200050a565b62000500565b9050919050565b6000819050919050565b620005518362000514565b6200056962000560826200053c565b848454620004aa565b825550505050565b600090565b6200058062000571565b6200058d81848462000546565b505050565b5b81811015620005b557620005a960008262000576565b60018101905062000593565b5050565b601f8211156200060457620005ce8162000478565b620005d9846200048d565b81016020851015620005e9578190505b62000601620005f8856200048d565b83018262000592565b50505b505050565b600082821c905092915050565b6000620006296000198460080262000609565b1980831691505092915050565b600062000644838362000616565b9150826002028217905092915050565b6200065f8262000409565b67ffffffffffffffff8111156200067b576200067a6200022a565b5b62000687825462000443565b62000694828285620005b9565b600060209050601f831160018114620006cc5760008415620006b7578287015190505b620006c3858262000636565b86555062000733565b601f198416620006dc8662000478565b60005b828110156200070657848901518255600182019150602085019450602081019050620006df565b8683101562000726578489015162000722601f89168262000616565b8355505b6001600288020188555050505b505050505050565b6200074681620001ca565b82525050565b60006040820190506200076360008301856200073b565b6200077260208301846200073b565b9392505050565b611d7980620007896000396000f3fe608060405234801561001057600080fd5b50600436106101425760003560e01c8063997072f7116100b8578063a230c5241161007c578063a230c5241461038b578063af1fca09146103bb578063b3253f13146103d9578063ca505a5b14610409578063cef025ac14610427578063e18898761461044357610142565b8063997072f7146102e55780639a4d383e146103035780639c0ab1051461031f5780639e5f59f91461033d5780639eab52531461036d57610142565b80631ee503fd1161010a5780631ee503fd146101ff57806325ec527c1461021b578063273f868e1461024b578063455772d2146102675780635daf08ca1461028557806370586013146102b557610142565b806302d05d3f1461014757806306fdde0314610165578063107046bd14610183578063146b551d146101b357806315866836146101e3575b600080fd5b61014f610473565b60405161015c919061125f565b60405180910390f35b61016d610499565b60405161017a919061130a565b60405180910390f35b61019d60048036038101906101989190611376565b610527565b6040516101aa919061125f565b60405180910390f35b6101cd60048036038101906101c891906113cf565b610566565b6040516101da9190611418565b60405180910390f35b6101fd60048036038101906101f89190611498565b61056d565b005b610219600480360381019061021491906113cf565b610600565b005b610235600480360381019061023091906113cf565b610934565b6040516102429190611513565b60405180910390f35b610265600480360381019061026091906113cf565b610954565b005b61026f610ba8565b60405161027c91906115ec565b60405180910390f35b61029f600480360381019061029a9190611376565b610cd9565b6040516102ac919061125f565b60405180910390f35b6102cf60048036038101906102ca9190611498565b610d18565b6040516102dc919061162d565b60405180910390f35b6102ed610d21565b6040516102fa9190611657565b60405180910390f35b61031d600480360381019061031891906113cf565b610d2e565b005b610327610f10565b604051610334919061130a565b60405180910390f35b610357600480360381019061035291906113cf565b610f9e565b604051610364919061177e565b60405180910390f35b610375610fa5565b60405161038291906115ec565b60405180910390f35b6103a560048036038101906103a091906113cf565b611038565b6040516103b29190611513565b60405180910390f35b6103c361108e565b6040516103d0919061125f565b60405180910390f35b6103f360048036038101906103ee91906113cf565b6110b4565b60405161040091906117b9565b60405180910390f35b6104116110cc565b60405161041e919061130a565b60405180910390f35b610441600480360381019061043c91906113cf565b61115a565b005b61045d600480360381019061045891906113cf565b6111eb565b60405161046a919061125f565b60405180910390f35b600960009054906101000a900473ffffffffffffffffffffffffffffffffffffffff1681565b600080546104a690611803565b80601f01602080910402602001604051908101604052809291908181526020018280546104d290611803565b801561051f5780601f106104f45761010080835404028352916020019161051f565b820191906000526020600020905b81548152906001019060200180831161050257829003601f168201915b505050505081565b6005818154811061053757600080fd5b906000526020600020016000915054906101000a900473ffffffffffffffffffffffffffffffffffffffff1681565b6000919050565b33600460008273ffffffffffffffffffffffffffffffffffffffff1673ffffffffffffffffffffffffffffffffffffffff16815260200190815260200160002060009054906101000a900460ff166105fa576040517f08c379a00000000000000000000000000000000000000000000000000000000081526004016105f190611880565b60405180910390fd5b50505050565b33600460008273ffffffffffffffffffffffffffffffffffffffff1673ffffffffffffffffffffffffffffffffffffffff16815260200190815260200160002060009054906101000a900460ff1661068d576040517f08c379a000000000000000000000000000000000000000000000000000000000815260040161068490611880565b60405180910390fd5b600073ffffffffffffffffffffffffffffffffffffffff168273ffffffffffffffffffffffffffffffffffffffff16036106fc576040517f08c379a00000000000000000000000000000000000000000000000000000000081526004016106f3906118c6565b60405180910390fd5b6000600860009054906101000a900473ffffffffffffffffffffffffffffffffffffffff169050600061072d610d21565b905060008273ffffffffffffffffffffffffffffffffffffffff1663d9a87535866040518263ffffffff1660e01b815260040161076a919061125f565b602060405180830381865afa158015610787573d6000803e3d6000fd5b505050506040513d601f19601f820116820180604052508101906107ab91906118fb565b90506005606483836107bd9190611986565b6107c791906119b7565b11610807576040517f08c379a00000000000000000000000000000000000000000000000000000000081526004016107fe90611a6b565b60405180910390fd5b8273ffffffffffffffffffffffffffffffffffffffff16631292a282866040518263ffffffff1660e01b8152600401610840919061125f565b600060405180830381600087803b15801561085a57600080fd5b505af115801561086e573d6000803e3d6000fd5b505050506003859080600181540180825580915050600190039060005260206000200160009091909190916101000a81548173ffffffffffffffffffffffffffffffffffffffff021916908373ffffffffffffffffffffffffffffffffffffffff1602179055506001600460008773ffffffffffffffffffffffffffffffffffffffff1673ffffffffffffffffffffffffffffffffffffffff16815260200190815260200160002060006101000a81548160ff0219169083151502179055505050505050565b60046020528060005260406000206000915054906101000a900460ff1681565b33600460008273ffffffffffffffffffffffffffffffffffffffff1673ffffffffffffffffffffffffffffffffffffffff16815260200190815260200160002060009054906101000a900460ff166109e1576040517f08c379a00000000000000000000000000000000000000000000000000000000081526004016109d890611880565b60405180910390fd5b600073ffffffffffffffffffffffffffffffffffffffff168273ffffffffffffffffffffffffffffffffffffffff1603610a50576040517f08c379a0000000000000000000000000000000000000000000000000000000008152600401610a47906118c6565b60405180910390fd5b6000600860009054906101000a900473ffffffffffffffffffffffffffffffffffffffff16905060008173ffffffffffffffffffffffffffffffffffffffff1663b672bdcb856040518263ffffffff1660e01b8152600401610ab2919061125f565b602060405180830381865afa158015610acf573d6000803e3d6000fd5b505050506040513d601f19601f82011682018060405250810190610af391906118fb565b9050428111610b37576040517f08c379a0000000000000000000000000000000000000000000000000000000008152600401610b2e90611ad7565b60405180910390fd5b8173ffffffffffffffffffffffffffffffffffffffff1663273f868e856040518263ffffffff1660e01b8152600401610b70919061125f565b600060405180830381600087803b158015610b8a57600080fd5b505af1158015610b9e573d6000803e3d6000fd5b5050505050505050565b606033600460008273ffffffffffffffffffffffffffffffffffffffff1673ffffffffffffffffffffffffffffffffffffffff16815260200190815260200160002060009054906101000a900460ff16610c37576040517f08c379a0000000000000000000000000000000000000000000000000000000008152600401610c2e90611880565b60405180910390fd5b6000600860009054906101000a900473ffffffffffffffffffffffffffffffffffffffff1690508073ffffffffffffffffffffffffffffffffffffffff1663455772d26040518163ffffffff1660e01b8152600401600060405180830381865afa158015610ca9573d6000803e3d6000fd5b505050506040513d6000823e3d601f19601f82011682018060405250810190610cd29190611c4a565b9250505090565b60038181548110610ce957600080fd5b906000526020600020016000915054906101000a900473ffffffffffffffffffffffffffffffffffffffff1681565b60009392505050565b6000600380549050905090565b6000600660003373ffffffffffffffffffffffffffffffffffffffff1673ffffffffffffffffffffffffffffffffffffffff16815260200190815260200160002060009054906101000a900473ffffffffffffffffffffffffffffffffffffffff1690508073ffffffffffffffffffffffffffffffffffffffff168273ffffffffffffffffffffffffffffffffffffffff1603610e00576040517f08c379a0000000000000000000000000000000000000000000000000000000008152600401610df790611cdf565b60405180910390fd5b6001600760008473ffffffffffffffffffffffffffffffffffffffff1673ffffffffffffffffffffffffffffffffffffffff1681526020019081526020016000206000828254610e509190611cff565b9250508190555081600660003373ffffffffffffffffffffffffffffffffffffffff1673ffffffffffffffffffffffffffffffffffffffff16815260200190815260200160002060006101000a81548173ffffffffffffffffffffffffffffffffffffffff021916908373ffffffffffffffffffffffffffffffffffffffff1602179055507fe8ddfec65826b66ec8b03b89152bb70528fa2da92e9775cc99671b1fc7bcb0f433604051610f04919061125f565b60405180910390a15050565b60028054610f1d90611803565b80601f0160208091040260200160405190810160405280929190818152602001828054610f4990611803565b8015610f965780601f10610f6b57610100808354040283529160200191610f96565b820191906000526020600020905b815481529060010190602001808311610f7957829003601f168201915b505050505081565b6060919050565b606033600460008273ffffffffffffffffffffffffffffffffffffffff1673ffffffffffffffffffffffffffffffffffffffff16815260200190815260200160002060009054906101000a900460ff16611034576040517f08c379a000000000000000000000000000000000000000000000000000000000815260040161102b90611880565b60405180910390fd5b5090565b6000600460008373ffffffffffffffffffffffffffffffffffffffff1673ffffffffffffffffffffffffffffffffffffffff16815260200190815260200160002060009054906101000a900460ff169050919050565b600860009054906101000a900473ffffffffffffffffffffffffffffffffffffffff1681565b60076020528060005260406000206000915090505481565b600180546110d990611803565b80601f016020809104026020016040519081016040528092919081815260200182805461110590611803565b80156111525780601f1061112757610100808354040283529160200191611152565b820191906000526020600020905b81548152906001019060200180831161113557829003601f168201915b505050505081565b33600460008273ffffffffffffffffffffffffffffffffffffffff1673ffffffffffffffffffffffffffffffffffffffff16815260200190815260200160002060009054906101000a900460ff166111e7576040517f08c379a00000000000000000000000000000000000000000000000000000000081526004016111de90611880565b60405180910390fd5b5050565b60066020528060005260406000206000915054906101000a900473ffffffffffffffffffffffffffffffffffffffff1681565b600073ffffffffffffffffffffffffffffffffffffffff82169050919050565b60006112498261121e565b9050919050565b6112598161123e565b82525050565b60006020820190506112746000830184611250565b92915050565b600081519050919050565b600082825260208201905092915050565b60005b838110156112b4578082015181840152602081019050611299565b60008484015250505050565b6000601f19601f8301169050919050565b60006112dc8261127a565b6112e68185611285565b93506112f6818560208601611296565b6112ff816112c0565b840191505092915050565b6000602082019050818103600083015261132481846112d1565b905092915050565b6000604051905090565b600080fd5b600080fd5b6000819050919050565b61135381611340565b811461135e57600080fd5b50565b6000813590506113708161134a565b92915050565b60006020828403121561138c5761138b611336565b5b600061139a84828501611361565b91505092915050565b6113ac8161123e565b81146113b757600080fd5b50565b6000813590506113c9816113a3565b92915050565b6000602082840312156113e5576113e4611336565b5b60006113f3848285016113ba565b91505092915050565b60008160030b9050919050565b611412816113fc565b82525050565b600060208201905061142d6000830184611409565b92915050565b600080fd5b600080fd5b600080fd5b60008083601f84011261145857611457611433565b5b8235905067ffffffffffffffff81111561147557611474611438565b5b6020830191508360018202830111156114915761149061143d565b5b9250929050565b6000806000604084860312156114b1576114b0611336565b5b60006114bf868287016113ba565b935050602084013567ffffffffffffffff8111156114e0576114df61133b565b5b6114ec86828701611442565b92509250509250925092565b60008115159050919050565b61150d816114f8565b82525050565b60006020820190506115286000830184611504565b92915050565b600081519050919050565b600082825260208201905092915050565b6000819050602082019050919050565b6115638161123e565b82525050565b6000611575838361155a565b60208301905092915050565b6000602082019050919050565b60006115998261152e565b6115a38185611539565b93506115ae8361154a565b8060005b838110156115df5781516115c68882611569565b97506115d183611581565b9250506001810190506115b2565b5085935050505092915050565b60006020820190508181036000830152611606818461158e565b905092915050565b600063ffffffff82169050919050565b6116278161160e565b82525050565b6000602082019050611642600083018461161e565b92915050565b61165181611340565b82525050565b600060208201905061166c6000830184611648565b92915050565b600081519050919050565b600082825260208201905092915050565b6000819050602082019050919050565b600082825260208201905092915050565b60006116ba8261127a565b6116c4818561169e565b93506116d4818560208601611296565b6116dd816112c0565b840191505092915050565b60006116f483836116af565b905092915050565b6000602082019050919050565b600061171482611672565b61171e818561167d565b9350836020820285016117308561168e565b8060005b8581101561176c578484038952815161174d85826116e8565b9450611758836116fc565b925060208a01995050600181019050611734565b50829750879550505050505092915050565b600060208201905081810360008301526117988184611709565b905092915050565b6000819050919050565b6117b3816117a0565b82525050565b60006020820190506117ce60008301846117aa565b92915050565b7f4e487b7100000000000000000000000000000000000000000000000000000000600052602260045260246000fd5b6000600282049050600182168061181b57607f821691505b60208210810361182e5761182d6117d4565b5b50919050565b7f526571756972656420746f2062652061206d656d656265720000000000000000600082015250565b600061186a601883611285565b915061187582611834565b602082019050919050565b600060208201905081810360008301526118998161185d565b9050919050565b50565b60006118b0600083611285565b91506118bb826118a0565b600082019050919050565b600060208201905081810360008301526118df816118a3565b9050919050565b6000815190506118f58161134a565b92915050565b60006020828403121561191157611910611336565b5b600061191f848285016118e6565b91505092915050565b7f4e487b7100000000000000000000000000000000000000000000000000000000600052601260045260246000fd5b7f4e487b7100000000000000000000000000000000000000000000000000000000600052601160045260246000fd5b600061199182611340565b915061199c83611340565b9250826119ac576119ab611928565b5b828204905092915050565b60006119c282611340565b91506119cd83611340565b92508282026119db81611340565b915082820484148315176119f2576119f1611957565b5b5092915050565b7f496e76616c6964206e756d626572206f6620766f746573206f722070726f636560008201527f65642e0000000000000000000000000000000000000000000000000000000000602082015250565b6000611a55602383611285565b9150611a60826119f9565b604082019050919050565b60006020820190508181036000830152611a8481611a48565b9050919050565b7f546f20736f6f6e20746f20656e6420766f746500000000000000000000000000600082015250565b6000611ac1601383611285565b9150611acc82611a8b565b602082019050919050565b60006020820190508181036000830152611af081611ab4565b9050919050565b7f4e487b7100000000000000000000000000000000000000000000000000000000600052604160045260246000fd5b611b2f826112c0565b810181811067ffffffffffffffff82111715611b4e57611b4d611af7565b5b80604052505050565b6000611b6161132c565b9050611b6d8282611b26565b919050565b600067ffffffffffffffff821115611b8d57611b8c611af7565b5b602082029050602081019050919050565b600081519050611bad816113a3565b92915050565b6000611bc6611bc184611b72565b611b57565b90508083825260208201905060208402830185811115611be957611be861143d565b5b835b81811015611c125780611bfe8882611b9e565b845260208401935050602081019050611beb565b5050509392505050565b600082601f830112611c3157611c30611433565b5b8151611c41848260208601611bb3565b91505092915050565b600060208284031215611c6057611c5f611336565b5b600082015167ffffffffffffffff811115611c7e57611c7d61133b565b5b611c8a84828501611c1c565b91505092915050565b7f416c726561647920766f74656400000000000000000000000000000000000000600082015250565b6000611cc9600d83611285565b9150611cd482611c93565b602082019050919050565b60006020820190508181036000830152611cf881611cbc565b9050919050565b6000611d0a826117a0565b9150611d15836117a0565b925082820190508281121560008312168382126000841215161715611d3d57611d3c611957565b5b9291505056fea2646970667358221220a6d0300f475063e7ce6ca7c4692ae2cae045c59ef4f63b933ad9470f50a1d76e64736f6c634300081100336080604052620f42406009553480156200001857600080fd5b506040516200233a3803806200233a83398181016040528101906200003e919062000132565b81600660006101000a81548173ffffffffffffffffffffffffffffffffffffffff021916908373ffffffffffffffffffffffffffffffffffffffff16021790555080600760006101000a81548173ffffffffffffffffffffffffffffffffffffffff021916908373ffffffffffffffffffffffffffffffffffffffff160217905550505062000179565b600080fd5b600073ffffffffffffffffffffffffffffffffffffffff82169050919050565b6000620000fa82620000cd565b9050919050565b6200010c81620000ed565b81146200011857600080fd5b50565b6000815190506200012c8162000101565b92915050565b600080604083850312156200014c576200014b620000c8565b5b60006200015c858286016200011b565b92505060206200016f858286016200011b565b9150509250929050565b6121b180620001896000396000f3fe6080604052600436106100a65760003560e01c8063930235b411610064578063930235b4146101cb578063a10c8a97146101f6578063b672bdcb14610221578063b69ef8a81461025e578063d9a8753514610289578063fd591902146102c6576100a6565b8062ad808f146100ab5780631292a282146100e8578063273f868e1461011157806328f4694c1461013a578063455772d2146101635780638c468cd41461018e575b600080fd5b3480156100b757600080fd5b506100d260048036038101906100cd91906114ef565b6102e2565b6040516100df91906115ac565b60405180910390f35b3480156100f457600080fd5b5061010f600480360381019061010a91906114ef565b6104b4565b005b34801561011d57600080fd5b50610138600480360381019061013391906114ef565b6106de565b005b34801561014657600080fd5b50610161600480360381019061015c91906114ef565b610902565b005b34801561016f57600080fd5b50610178610ce0565b604051610185919061168c565b60405180910390f35b34801561019a57600080fd5b506101b560048036038101906101b091906116e4565b610e00565b6040516101c29190611720565b60405180910390f35b3480156101d757600080fd5b506101e0610e3f565b6040516101ed9190611720565b60405180910390f35b34801561020257600080fd5b5061020b610e65565b604051610218919061174a565b60405180910390f35b34801561022d57600080fd5b50610248600480360381019061024391906114ef565b610e6b565b604051610255919061174a565b60405180910390f35b34801561026a57600080fd5b50610273610eb4565b604051610280919061174a565b60405180910390f35b34801561029557600080fd5b506102b060048036038101906102ab91906114ef565b610eba565b6040516102bd919061174a565b60405180910390f35b6102e060048036038101906102db91906117ca565b610f06565b005b606033600660009054906101000a900473ffffffffffffffffffffffffffffffffffffffff1673ffffffffffffffffffffffffffffffffffffffff166339ac7a0882600760009054906101000a900473ffffffffffffffffffffffffffffffffffffffff166040518363ffffffff1660e01b8152600401610364929190611817565b602060405180830381865afa158015610381573d6000803e3d6000fd5b505050506040513d601f19601f820116820180604052508101906103a59190611878565b6103e4576040517f08c379a00000000000000000000000000000000000000000000000000000000081526004016103db906118f1565b60405180910390fd5b600460008473ffffffffffffffffffffffffffffffffffffffff1673ffffffffffffffffffffffffffffffffffffffff168152602001908152602001600020805461042e90611940565b80601f016020809104026020016040519081016040528092919081815260200182805461045a90611940565b80156104a75780601f1061047c576101008083540402835291602001916104a7565b820191906000526020600020905b81548152906001019060200180831161048a57829003601f168201915b5050505050915050919050565b33600760009054906101000a900473ffffffffffffffffffffffffffffffffffffffff1673ffffffffffffffffffffffffffffffffffffffff168173ffffffffffffffffffffffffffffffffffffffff1614610545576040517f08c379a000000000000000000000000000000000000000000000000000000000815260040161053c906119bd565b60405180910390fd5b600760009054906101000a900473ffffffffffffffffffffffffffffffffffffffff1673ffffffffffffffffffffffffffffffffffffffff163373ffffffffffffffffffffffffffffffffffffffff16146105d5576040517f08c379a00000000000000000000000000000000000000000000000000000000081526004016105cc90611a4f565b60405180910390fd5b600660009054906101000a900473ffffffffffffffffffffffffffffffffffffffff1673ffffffffffffffffffffffffffffffffffffffff16639d58b15d600760009054906101000a900473ffffffffffffffffffffffffffffffffffffffff16846040518363ffffffff1660e01b8152600401610654929190611817565b600060405180830381600087803b15801561066e57600080fd5b505af1158015610682573d6000803e3d6000fd5b5050505061068f826112bd565b600160003373ffffffffffffffffffffffffffffffffffffffff1673ffffffffffffffffffffffffffffffffffffffff16815260200190815260200160002060006106da9190611449565b5050565b33600760009054906101000a900473ffffffffffffffffffffffffffffffffffffffff1673ffffffffffffffffffffffffffffffffffffffff168173ffffffffffffffffffffffffffffffffffffffff161461076f576040517f08c379a0000000000000000000000000000000000000000000000000000000008152600401610766906119bd565b60405180910390fd5b600360008373ffffffffffffffffffffffffffffffffffffffff1673ffffffffffffffffffffffffffffffffffffffff16815260200190815260200160002060009054906101000a900460ff166107fb576040517f08c379a00000000000000000000000000000000000000000000000000000000081526004016107f290611abb565b60405180910390fd5b6000600360008473ffffffffffffffffffffffffffffffffffffffff1673ffffffffffffffffffffffffffffffffffffffff16815260200190815260200160002060006101000a81548160ff0219169083151502179055506001600260003373ffffffffffffffffffffffffffffffffffffffff1673ffffffffffffffffffffffffffffffffffffffff16815260200190815260200160002060008282546108a39190611b14565b925050819055506108b3826112bd565b600160003373ffffffffffffffffffffffffffffffffffffffff1673ffffffffffffffffffffffffffffffffffffffff16815260200190815260200160002060006108fe9190611449565b5050565b33600660009054906101000a900473ffffffffffffffffffffffffffffffffffffffff1673ffffffffffffffffffffffffffffffffffffffff166339ac7a0882600760009054906101000a900473ffffffffffffffffffffffffffffffffffffffff166040518363ffffffff1660e01b8152600401610982929190611817565b602060405180830381865afa15801561099f573d6000803e3d6000fd5b505050506040513d601f19601f820116820180604052508101906109c39190611878565b610a02576040517f08c379a00000000000000000000000000000000000000000000000000000000081526004016109f9906118f1565b60405180910390fd5b600360008373ffffffffffffffffffffffffffffffffffffffff1673ffffffffffffffffffffffffffffffffffffffff16815260200190815260200160002060009054906101000a900460ff16610a8e576040517f08c379a0000000000000000000000000000000000000000000000000000000008152600401610a8590611ba3565b60405180910390fd5b6000805b600160008573ffffffffffffffffffffffffffffffffffffffff1673ffffffffffffffffffffffffffffffffffffffff16815260200190815260200160002080549050811015610ba2573373ffffffffffffffffffffffffffffffffffffffff16600160008673ffffffffffffffffffffffffffffffffffffffff1673ffffffffffffffffffffffffffffffffffffffff1681526020019081526020016000208281548110610b4457610b43611bc3565b5b9060005260206000200160009054906101000a900473ffffffffffffffffffffffffffffffffffffffff1673ffffffffffffffffffffffffffffffffffffffff1603610b8f57600191505b8080610b9a90611bf2565b915050610a92565b508015610be4576040517f08c379a0000000000000000000000000000000000000000000000000000000008152600401610bdb90611c86565b60405180910390fd5b600160008473ffffffffffffffffffffffffffffffffffffffff1673ffffffffffffffffffffffffffffffffffffffff168152602001908152602001600020339080600181540180825580915050600190039060005260206000200160009091909190916101000a81548173ffffffffffffffffffffffffffffffffffffffff021916908373ffffffffffffffffffffffffffffffffffffffff1602179055506001600260008573ffffffffffffffffffffffffffffffffffffffff1673ffffffffffffffffffffffffffffffffffffffff1681526020019081526020016000206000828254610cd49190611ca6565b92505081905550505050565b606033600760009054906101000a900473ffffffffffffffffffffffffffffffffffffffff1673ffffffffffffffffffffffffffffffffffffffff168173ffffffffffffffffffffffffffffffffffffffff1614610d73576040517f08c379a0000000000000000000000000000000000000000000000000000000008152600401610d6a906119bd565b60405180910390fd5b6000805480602002602001604051908101604052809291908181526020018280548015610df557602002820191906000526020600020905b8160009054906101000a900473ffffffffffffffffffffffffffffffffffffffff1673ffffffffffffffffffffffffffffffffffffffff1681526020019060010190808311610dab575b505050505091505090565b60008181548110610e1057600080fd5b906000526020600020016000915054906101000a900473ffffffffffffffffffffffffffffffffffffffff1681565b600760009054906101000a900473ffffffffffffffffffffffffffffffffffffffff1681565b60095481565b6000600560008373ffffffffffffffffffffffffffffffffffffffff1673ffffffffffffffffffffffffffffffffffffffff168152602001908152602001600020549050919050565b60085481565b6000600160008373ffffffffffffffffffffffffffffffffffffffff1673ffffffffffffffffffffffffffffffffffffffff168152602001908152602001600020805490509050919050565b600660009054906101000a900473ffffffffffffffffffffffffffffffffffffffff1673ffffffffffffffffffffffffffffffffffffffff166339ac7a0833600760009054906101000a900473ffffffffffffffffffffffffffffffffffffffff166040518363ffffffff1660e01b8152600401610f85929190611817565b602060405180830381865afa158015610fa2573d6000803e3d6000fd5b505050506040513d601f19601f82011682018060405250810190610fc69190611878565b15611006576040517f08c379a0000000000000000000000000000000000000000000000000000000008152600401610ffd90611d36565b60405180910390fd5b600360003373ffffffffffffffffffffffffffffffffffffffff1673ffffffffffffffffffffffffffffffffffffffff16815260200190815260200160002060009054906101000a900460ff1615611093576040517f08c379a000000000000000000000000000000000000000000000000000000000815260040161108a90611da2565b60405180910390fd5b7ffffffffffffffffffffffffffffffffffffffffffffffffffffffffffffffffd600260003373ffffffffffffffffffffffffffffffffffffffff1673ffffffffffffffffffffffffffffffffffffffff1681526020019081526020016000205413611134576040517f08c379a000000000000000000000000000000000000000000000000000000000815260040161112b90611e0e565b60405180910390fd5b60095434101561114357600080fd5b34600860008282546111559190611e2e565b925050819055508181600460003373ffffffffffffffffffffffffffffffffffffffff1673ffffffffffffffffffffffffffffffffffffffff16815260200190815260200160002091826111aa929190612048565b506001600360003373ffffffffffffffffffffffffffffffffffffffff1673ffffffffffffffffffffffffffffffffffffffff16815260200190815260200160002060006101000a81548160ff0219169083151502179055506000339080600181540180825580915050600190039060005260206000200160009091909190916101000a81548173ffffffffffffffffffffffffffffffffffffffff021916908373ffffffffffffffffffffffffffffffffffffffff160217905550630f731400426112769190611e2e565b600560003373ffffffffffffffffffffffffffffffffffffffff1673ffffffffffffffffffffffffffffffffffffffff168152602001908152602001600020819055505050565b60005b600080549050811015611352578173ffffffffffffffffffffffffffffffffffffffff16600082815481106112f8576112f7611bc3565b5b9060005260206000200160009054906101000a900473ffffffffffffffffffffffffffffffffffffffff1673ffffffffffffffffffffffffffffffffffffffff16031561135257808061134a90611bf2565b9150506112c0565b600060016000805490506113669190612118565b8154811061137757611376611bc3565b5b9060005260206000200160009054906101000a900473ffffffffffffffffffffffffffffffffffffffff16600082815481106113b6576113b5611bc3565b5b9060005260206000200160006101000a81548173ffffffffffffffffffffffffffffffffffffffff021916908373ffffffffffffffffffffffffffffffffffffffff16021790555060008054806114105761140f61214c565b5b6001900381819060005260206000200160006101000a81549073ffffffffffffffffffffffffffffffffffffffff021916905590555050565b5080546000825590600052602060002090810190611467919061146a565b50565b5b8082111561148357600081600090555060010161146b565b5090565b600080fd5b600080fd5b600073ffffffffffffffffffffffffffffffffffffffff82169050919050565b60006114bc82611491565b9050919050565b6114cc816114b1565b81146114d757600080fd5b50565b6000813590506114e9816114c3565b92915050565b60006020828403121561150557611504611487565b5b6000611513848285016114da565b91505092915050565b600081519050919050565b600082825260208201905092915050565b60005b8381101561155657808201518184015260208101905061153b565b60008484015250505050565b6000601f19601f8301169050919050565b600061157e8261151c565b6115888185611527565b9350611598818560208601611538565b6115a181611562565b840191505092915050565b600060208201905081810360008301526115c68184611573565b905092915050565b600081519050919050565b600082825260208201905092915050565b6000819050602082019050919050565b611603816114b1565b82525050565b600061161583836115fa565b60208301905092915050565b6000602082019050919050565b6000611639826115ce565b61164381856115d9565b935061164e836115ea565b8060005b8381101561167f5781516116668882611609565b975061167183611621565b925050600181019050611652565b5085935050505092915050565b600060208201905081810360008301526116a6818461162e565b905092915050565b6000819050919050565b6116c1816116ae565b81146116cc57600080fd5b50565b6000813590506116de816116b8565b92915050565b6000602082840312156116fa576116f9611487565b5b6000611708848285016116cf565b91505092915050565b61171a816114b1565b82525050565b60006020820190506117356000830184611711565b92915050565b611744816116ae565b82525050565b600060208201905061175f600083018461173b565b92915050565b600080fd5b600080fd5b600080fd5b60008083601f84011261178a57611789611765565b5b8235905067ffffffffffffffff8111156117a7576117a661176a565b5b6020830191508360018202830111156117c3576117c261176f565b5b9250929050565b600080602083850312156117e1576117e0611487565b5b600083013567ffffffffffffffff8111156117ff576117fe61148c565b5b61180b85828601611774565b92509250509250929050565b600060408201905061182c6000830185611711565b6118396020830184611711565b9392505050565b60008115159050919050565b61185581611840565b811461186057600080fd5b50565b6000815190506118728161184c565b92915050565b60006020828403121561188e5761188d611487565b5b600061189c84828501611863565b91505092915050565b7f526571756972656420746f2062652061206d656d656265720000000000000000600082015250565b60006118db601883611527565b91506118e6826118a5565b602082019050919050565b6000602082019050818103600083015261190a816118ce565b9050919050565b7f4e487b7100000000000000000000000000000000000000000000000000000000600052602260045260246000fd5b6000600282049050600182168061195857607f821691505b60208210810361196b5761196a611911565b5b50919050565b7f4163636573732044656e69656400000000000000000000000000000000000000600082015250565b60006119a7600d83611527565b91506119b282611971565b602082019050919050565b600060208201905081810360008301526119d68161199a565b9050919050565b7f54686973206973206e6f7420746865206d656d62657220506f6f6c204164647260008201527f6573730000000000000000000000000000000000000000000000000000000000602082015250565b6000611a39602383611527565b9150611a44826119dd565b604082019050919050565b60006020820190508181036000830152611a6881611a2c565b9050919050565b7f496e76616c6964206170706c6963616e74206164647265737300000000000000600082015250565b6000611aa5601983611527565b9150611ab082611a6f565b602082019050919050565b60006020820190508181036000830152611ad481611a98565b9050919050565b6000819050919050565b7f4e487b7100000000000000000000000000000000000000000000000000000000600052601160045260246000fd5b6000611b1f82611adb565b9150611b2a83611adb565b9250828203905081811260008412168282136000851215161715611b5157611b50611ae5565b5b92915050565b7f4e6f742061206170706c6963616e740000000000000000000000000000000000600082015250565b6000611b8d600f83611527565b9150611b9882611b57565b602082019050919050565b60006020820190508181036000830152611bbc81611b80565b9050919050565b7f4e487b7100000000000000000000000000000000000000000000000000000000600052603260045260246000fd5b6000611bfd826116ae565b91507fffffffffffffffffffffffffffffffffffffffffffffffffffffffffffffffff8203611c2f57611c2e611ae5565b5b600182019050919050565b7f53656e64657220616c726561647920766f746564000000000000000000000000600082015250565b6000611c70601483611527565b9150611c7b82611c3a565b602082019050919050565b60006020820190508181036000830152611c9f81611c63565b9050919050565b6000611cb182611adb565b9150611cbc83611adb565b925082820190508281121560008312168382126000841215161715611ce457611ce3611ae5565b5b92915050565b7f416c726561647920616374697665206d656d6265720000000000000000000000600082015250565b6000611d20601583611527565b9150611d2b82611cea565b602082019050919050565b60006020820190508181036000830152611d4f81611d13565b9050919050565b7f416c726561647920616374697665206170706c6963616e740000000000000000600082015250565b6000611d8c601883611527565b9150611d9782611d56565b602082019050919050565b60006020820190508181036000830152611dbb81611d7f565b9050919050565b7f6163636f756e742072656a656374656400000000000000000000000000000000600082015250565b6000611df8601083611527565b9150611e0382611dc2565b602082019050919050565b60006020820190508181036000830152611e2781611deb565b9050919050565b6000611e39826116ae565b9150611e44836116ae565b9250828201905080821115611e5c57611e5b611ae5565b5b92915050565b600082905092915050565b7f4e487b7100000000000000000000000000000000000000000000000000000000600052604160045260246000fd5b60008190508160005260206000209050919050565b60006020601f8301049050919050565b600082821b905092915050565b600060088302611efe7fffffffffffffffffffffffffffffffffffffffffffffffffffffffffffffffff82611ec1565b611f088683611ec1565b95508019841693508086168417925050509392505050565b6000819050919050565b6000611f45611f40611f3b846116ae565b611f20565b6116ae565b9050919050565b6000819050919050565b611f5f83611f2a565b611f73611f6b82611f4c565b848454611ece565b825550505050565b600090565b611f88611f7b565b611f93818484611f56565b505050565b5b81811015611fb757611fac600082611f80565b600181019050611f99565b5050565b601f821115611ffc57611fcd81611e9c565b611fd684611eb1565b81016020851015611fe5578190505b611ff9611ff185611eb1565b830182611f98565b50505b505050565b600082821c905092915050565b600061201f60001984600802612001565b1980831691505092915050565b6000612038838361200e565b9150826002028217905092915050565b6120528383611e62565b67ffffffffffffffff81111561206b5761206a611e6d565b5b6120758254611940565b612080828285611fbb565b6000601f8311600181146120af576000841561209d578287013590505b6120a7858261202c565b86555061210f565b601f1984166120bd86611e9c565b60005b828110156120e5578489013582556001820191506020850194506020810190506120c0565b8683101561210257848901356120fe601f89168261200e565b8355505b6001600288020188555050505b50505050505050565b6000612123826116ae565b915061212e836116ae565b925082820390508181111561214657612145611ae5565b5b92915050565b7f4e487b7100000000000000000000000000000000000000000000000000000000600052603160045260246000fdfea2646970667358221220f4bf0d28c0f5e9041d506e8d7f2afb55816294bc34846f4881144c13f652670264736f6c63430008110033","opcodes":"PUSH1 0x80 PUSH1 0x40 MSTORE CALLVALUE DUP1 ISZERO PUSH3 0x11 JUMPI PUSH1 0x0 DUP1 REVERT JUMPDEST POP PUSH1 0x40 MLOAD PUSH3 0x483C CODESIZE SUB DUP1 PUSH3 0x483C DUP4 CODECOPY DUP2 DUP2 ADD PUSH1 0x40 MSTORE DUP2 ADD SWAP1 PUSH3 0x37 SWAP2 SWAP1 PUSH3 0x38E JUMP JUMPDEST DUP3 PUSH1 0x9 PUSH1 0x0 PUSH2 0x100 EXP DUP2 SLOAD DUP2 PUSH20 0xFFFFFFFFFFFFFFFFFFFFFFFFFFFFFFFFFFFFFFFF MUL NOT AND SWAP1 DUP4 PUSH20 0xFFFFFFFFFFFFFFFFFFFFFFFFFFFFFFFFFFFFFFFF AND MUL OR SWAP1 SSTORE POP DUP2 PUSH1 0x0 SWAP1 DUP2 PUSH3 0x89 SWAP2 SWAP1 PUSH3 0x654 JUMP JUMPDEST POP DUP1 ADDRESS PUSH1 0x40 MLOAD PUSH3 0x9A SWAP1 PUSH3 0x188 JUMP JUMPDEST PUSH3 0xA7 SWAP3 SWAP2 SWAP1 PUSH3 0x74C JUMP JUMPDEST PUSH1 0x40 MLOAD DUP1 SWAP2 SUB SWAP1 PUSH1 0x0 CREATE DUP1 ISZERO DUP1 ISZERO PUSH3 0xC4 JUMPI RETURNDATASIZE PUSH1 0x0 DUP1 RETURNDATACOPY RETURNDATASIZE PUSH1 0x0 REVERT JUMPDEST POP PUSH1 0x8 PUSH1 0x0 PUSH2 0x100 EXP DUP2 SLOAD DUP2 PUSH20 0xFFFFFFFFFFFFFFFFFFFFFFFFFFFFFFFFFFFFFFFF MUL NOT AND SWAP1 DUP4 PUSH20 0xFFFFFFFFFFFFFFFFFFFFFFFFFFFFFFFFFFFFFFFF AND MUL OR SWAP1 SSTORE POP PUSH1 0x1 PUSH1 0x4 PUSH1 0x0 PUSH1 0x9 PUSH1 0x0 SWAP1 SLOAD SWAP1 PUSH2 0x100 EXP SWAP1 DIV PUSH20 0xFFFFFFFFFFFFFFFFFFFFFFFFFFFFFFFFFFFFFFFF AND PUSH20 0xFFFFFFFFFFFFFFFFFFFFFFFFFFFFFFFFFFFFFFFF AND PUSH20 0xFFFFFFFFFFFFFFFFFFFFFFFFFFFFFFFFFFFFFFFF AND DUP2 MSTORE PUSH1 0x20 ADD SWAP1 DUP2 MSTORE PUSH1 0x20 ADD PUSH1 0x0 KECCAK256 PUSH1 0x0 PUSH2 0x100 EXP DUP2 SLOAD DUP2 PUSH1 0xFF MUL NOT AND SWAP1 DUP4 ISZERO ISZERO MUL OR SWAP1 SSTORE POP POP POP POP PUSH3 0x779 JUMP JUMPDEST PUSH2 0x233A DUP1 PUSH3 0x2502 DUP4 CODECOPY ADD SWAP1 JUMP JUMPDEST PUSH1 0x0 PUSH1 0x40 MLOAD SWAP1 POP SWAP1 JUMP JUMPDEST PUSH1 0x0 DUP1 REVERT JUMPDEST PUSH1 0x0 DUP1 REVERT JUMPDEST PUSH1 0x0 PUSH20 0xFFFFFFFFFFFFFFFFFFFFFFFFFFFFFFFFFFFFFFFF DUP3 AND SWAP1 POP SWAP2 SWAP1 POP JUMP JUMPDEST PUSH1 0x0 PUSH3 0x1D7 DUP3 PUSH3 0x1AA JUMP JUMPDEST SWAP1 POP SWAP2 SWAP1 POP JUMP JUMPDEST PUSH3 0x1E9 DUP2 PUSH3 0x1CA JUMP JUMPDEST DUP2 EQ PUSH3 0x1F5 JUMPI PUSH1 0x0 DUP1 REVERT JUMPDEST POP JUMP JUMPDEST PUSH1 0x0 DUP2 MLOAD SWAP1 POP PUSH3 0x209 DUP2 PUSH3 0x1DE JUMP JUMPDEST SWAP3 SWAP2 POP POP JUMP JUMPDEST PUSH1 0x0 DUP1 REVERT JUMPDEST PUSH1 0x0 DUP1 REVERT JUMPDEST PUSH1 0x0 PUSH1 0x1F NOT PUSH1 0x1F DUP4 ADD AND SWAP1 POP SWAP2 SWAP1 POP JUMP JUMPDEST PUSH32 0x4E487B7100000000000000000000000000000000000000000000000000000000 PUSH1 0x0 MSTORE PUSH1 0x41 PUSH1 0x4 MSTORE PUSH1 0x24 PUSH1 0x0 REVERT JUMPDEST PUSH3 0x264 DUP3 PUSH3 0x219 JUMP JUMPDEST DUP2 ADD DUP2 DUP2 LT PUSH8 0xFFFFFFFFFFFFFFFF DUP3 GT OR ISZERO PUSH3 0x286 JUMPI PUSH3 0x285 PUSH3 0x22A JUMP JUMPDEST JUMPDEST DUP1 PUSH1 0x40 MSTORE POP POP POP JUMP JUMPDEST PUSH1 0x0 PUSH3 0x29B PUSH3 0x196 JUMP JUMPDEST SWAP1 POP PUSH3 0x2A9 DUP3 DUP3 PUSH3 0x259 JUMP JUMPDEST SWAP2 SWAP1 POP JUMP JUMPDEST PUSH1 0x0 PUSH8 0xFFFFFFFFFFFFFFFF DUP3 GT ISZERO PUSH3 0x2CC JUMPI PUSH3 0x2CB PUSH3 0x22A JUMP JUMPDEST JUMPDEST PUSH3 0x2D7 DUP3 PUSH3 0x219 JUMP JUMPDEST SWAP1 POP PUSH1 0x20 DUP2 ADD SWAP1 POP SWAP2 SWAP1 POP JUMP JUMPDEST PUSH1 0x0 JUMPDEST DUP4 DUP2 LT ISZERO PUSH3 0x304 JUMPI DUP1 DUP3 ADD MLOAD DUP2 DUP5 ADD MSTORE PUSH1 0x20 DUP2 ADD SWAP1 POP PUSH3 0x2E7 JUMP JUMPDEST PUSH1 0x0 DUP5 DUP5 ADD MSTORE POP POP POP POP JUMP JUMPDEST PUSH1 0x0 PUSH3 0x327 PUSH3 0x321 DUP5 PUSH3 0x2AE JUMP JUMPDEST PUSH3 0x28F JUMP JUMPDEST SWAP1 POP DUP3 DUP2 MSTORE PUSH1 0x20 DUP2 ADD DUP5 DUP5 DUP5 ADD GT ISZERO PUSH3 0x346 JUMPI PUSH3 0x345 PUSH3 0x214 JUMP JUMPDEST JUMPDEST PUSH3 0x353 DUP5 DUP3 DUP6 PUSH3 0x2E4 JUMP JUMPDEST POP SWAP4 SWAP3 POP POP POP JUMP JUMPDEST PUSH1 0x0 DUP3 PUSH1 0x1F DUP4 ADD SLT PUSH3 0x373 JUMPI PUSH3 0x372 PUSH3 0x20F JUMP JUMPDEST JUMPDEST DUP2 MLOAD PUSH3 0x385 DUP5 DUP3 PUSH1 0x20 DUP7 ADD PUSH3 0x310 JUMP JUMPDEST SWAP2 POP POP SWAP3 SWAP2 POP POP JUMP JUMPDEST PUSH1 0x0 DUP1 PUSH1 0x0 PUSH1 0x60 DUP5 DUP7 SUB SLT ISZERO PUSH3 0x3AA JUMPI PUSH3 0x3A9 PUSH3 0x1A0 JUMP JUMPDEST JUMPDEST PUSH1 0x0 PUSH3 0x3BA DUP7 DUP3 DUP8 ADD PUSH3 0x1F8 JUMP JUMPDEST SWAP4 POP POP PUSH1 0x20 DUP5 ADD MLOAD PUSH8 0xFFFFFFFFFFFFFFFF DUP2 GT ISZERO PUSH3 0x3DE JUMPI PUSH3 0x3DD PUSH3 0x1A5 JUMP JUMPDEST JUMPDEST PUSH3 0x3EC DUP7 DUP3 DUP8 ADD PUSH3 0x35B JUMP JUMPDEST SWAP3 POP POP PUSH1 0x40 PUSH3 0x3FF DUP7 DUP3 DUP8 ADD PUSH3 0x1F8 JUMP JUMPDEST SWAP2 POP POP SWAP3 POP SWAP3 POP SWAP3 JUMP JUMPDEST PUSH1 0x0 DUP2 MLOAD SWAP1 POP SWAP2 SWAP1 POP JUMP JUMPDEST PUSH32 0x4E487B7100000000000000000000000000000000000000000000000000000000 PUSH1 0x0 MSTORE PUSH1 0x22 PUSH1 0x4 MSTORE PUSH1 0x24 PUSH1 0x0 REVERT JUMPDEST PUSH1 0x0 PUSH1 0x2 DUP3 DIV SWAP1 POP PUSH1 0x1 DUP3 AND DUP1 PUSH3 0x45C JUMPI PUSH1 0x7F DUP3 AND SWAP2 POP JUMPDEST PUSH1 0x20 DUP3 LT DUP2 SUB PUSH3 0x472 JUMPI PUSH3 0x471 PUSH3 0x414 JUMP JUMPDEST JUMPDEST POP SWAP2 SWAP1 POP JUMP JUMPDEST PUSH1 0x0 DUP2 SWAP1 POP DUP2 PUSH1 0x0 MSTORE PUSH1 0x20 PUSH1 0x0 KECCAK256 SWAP1 POP SWAP2 SWAP1 POP JUMP JUMPDEST PUSH1 0x0 PUSH1 0x20 PUSH1 0x1F DUP4 ADD DIV SWAP1 POP SWAP2 SWAP1 POP JUMP JUMPDEST PUSH1 0x0 DUP3 DUP3 SHL SWAP1 POP SWAP3 SWAP2 POP POP JUMP JUMPDEST PUSH1 0x0 PUSH1 0x8 DUP4 MUL PUSH3 0x4DC PUSH32 0xFFFFFFFFFFFFFFFFFFFFFFFFFFFFFFFFFFFFFFFFFFFFFFFFFFFFFFFFFFFFFFFF DUP3 PUSH3 0x49D JUMP JUMPDEST PUSH3 0x4E8 DUP7 DUP4 PUSH3 0x49D JUMP JUMPDEST SWAP6 POP DUP1 NOT DUP5 AND SWAP4 POP DUP1 DUP7 AND DUP5 OR SWAP3 POP POP POP SWAP4 SWAP3 POP POP POP JUMP JUMPDEST PUSH1 0x0 DUP2 SWAP1 POP SWAP2 SWAP1 POP JUMP JUMPDEST PUSH1 0x0 DUP2 SWAP1 POP SWAP2 SWAP1 POP JUMP JUMPDEST PUSH1 0x0 PUSH3 0x535 PUSH3 0x52F PUSH3 0x529 DUP5 PUSH3 0x500 JUMP JUMPDEST PUSH3 0x50A JUMP JUMPDEST PUSH3 0x500 JUMP JUMPDEST SWAP1 POP SWAP2 SWAP1 POP JUMP JUMPDEST PUSH1 0x0 DUP2 SWAP1 POP SWAP2 SWAP1 POP JUMP JUMPDEST PUSH3 0x551 DUP4 PUSH3 0x514 JUMP JUMPDEST PUSH3 0x569 PUSH3 0x560 DUP3 PUSH3 0x53C JUMP JUMPDEST DUP5 DUP5 SLOAD PUSH3 0x4AA JUMP JUMPDEST DUP3 SSTORE POP POP POP POP JUMP JUMPDEST PUSH1 0x0 SWAP1 JUMP JUMPDEST PUSH3 0x580 PUSH3 0x571 JUMP JUMPDEST PUSH3 0x58D DUP2 DUP5 DUP5 PUSH3 0x546 JUMP JUMPDEST POP POP POP JUMP JUMPDEST JUMPDEST DUP2 DUP2 LT ISZERO PUSH3 0x5B5 JUMPI PUSH3 0x5A9 PUSH1 0x0 DUP3 PUSH3 0x576 JUMP JUMPDEST PUSH1 0x1 DUP2 ADD SWAP1 POP PUSH3 0x593 JUMP JUMPDEST POP POP JUMP JUMPDEST PUSH1 0x1F DUP3 GT ISZERO PUSH3 0x604 JUMPI PUSH3 0x5CE DUP2 PUSH3 0x478 JUMP JUMPDEST PUSH3 0x5D9 DUP5 PUSH3 0x48D JUMP JUMPDEST DUP2 ADD PUSH1 0x20 DUP6 LT ISZERO PUSH3 0x5E9 JUMPI DUP2 SWAP1 POP JUMPDEST PUSH3 0x601 PUSH3 0x5F8 DUP6 PUSH3 0x48D JUMP JUMPDEST DUP4 ADD DUP3 PUSH3 0x592 JUMP JUMPDEST POP POP JUMPDEST POP POP POP JUMP JUMPDEST PUSH1 0x0 DUP3 DUP3 SHR SWAP1 POP SWAP3 SWAP2 POP POP JUMP JUMPDEST PUSH1 0x0 PUSH3 0x629 PUSH1 0x0 NOT DUP5 PUSH1 0x8 MUL PUSH3 0x609 JUMP JUMPDEST NOT DUP1 DUP4 AND SWAP2 POP POP SWAP3 SWAP2 POP POP JUMP JUMPDEST PUSH1 0x0 PUSH3 0x644 DUP4 DUP4 PUSH3 0x616 JUMP JUMPDEST SWAP2 POP DUP3 PUSH1 0x2 MUL DUP3 OR SWAP1 POP SWAP3 SWAP2 POP POP JUMP JUMPDEST PUSH3 0x65F DUP3 PUSH3 0x409 JUMP JUMPDEST PUSH8 0xFFFFFFFFFFFFFFFF DUP2 GT ISZERO PUSH3 0x67B JUMPI PUSH3 0x67A PUSH3 0x22A JUMP JUMPDEST JUMPDEST PUSH3 0x687 DUP3 SLOAD PUSH3 0x443 JUMP JUMPDEST PUSH3 0x694 DUP3 DUP3 DUP6 PUSH3 0x5B9 JUMP JUMPDEST PUSH1 0x0 PUSH1 0x20 SWAP1 POP PUSH1 0x1F DUP4 GT PUSH1 0x1 DUP2 EQ PUSH3 0x6CC JUMPI PUSH1 0x0 DUP5 ISZERO PUSH3 0x6B7 JUMPI DUP3 DUP8 ADD MLOAD SWAP1 POP JUMPDEST PUSH3 0x6C3 DUP6 DUP3 PUSH3 0x636 JUMP JUMPDEST DUP7 SSTORE POP PUSH3 0x733 JUMP JUMPDEST PUSH1 0x1F NOT DUP5 AND PUSH3 0x6DC DUP7 PUSH3 0x478 JUMP JUMPDEST PUSH1 0x0 JUMPDEST DUP3 DUP2 LT ISZERO PUSH3 0x706 JUMPI DUP5 DUP10 ADD MLOAD DUP3 SSTORE PUSH1 0x1 DUP3 ADD SWAP2 POP PUSH1 0x20 DUP6 ADD SWAP5 POP PUSH1 0x20 DUP2 ADD SWAP1 POP PUSH3 0x6DF JUMP JUMPDEST DUP7 DUP4 LT ISZERO PUSH3 0x726 JUMPI DUP5 DUP10 ADD MLOAD PUSH3 0x722 PUSH1 0x1F DUP10 AND DUP3 PUSH3 0x616 JUMP JUMPDEST DUP4 SSTORE POP JUMPDEST PUSH1 0x1 PUSH1 0x2 DUP9 MUL ADD DUP9 SSTORE POP POP POP JUMPDEST POP POP POP POP POP POP JUMP JUMPDEST PUSH3 0x746 DUP2 PUSH3 0x1CA JUMP JUMPDEST DUP3 MSTORE POP POP JUMP JUMPDEST PUSH1 0x0 PUSH1 0x40 DUP3 ADD SWAP1 POP PUSH3 0x763 PUSH1 0x0 DUP4 ADD DUP6 PUSH3 0x73B JUMP JUMPDEST PUSH3 0x772 PUSH1 0x20 DUP4 ADD DUP5 PUSH3 0x73B JUMP JUMPDEST SWAP4 SWAP3 POP POP POP JUMP JUMPDEST PUSH2 0x1D79 DUP1 PUSH3 0x789 PUSH1 0x0 CODECOPY PUSH1 0x0 RETURN INVALID PUSH1 0x80 PUSH1 0x40 MSTORE CALLVALUE DUP1 ISZERO PUSH2 0x10 JUMPI PUSH1 0x0 DUP1 REVERT JUMPDEST POP PUSH1 0x4 CALLDATASIZE LT PUSH2 0x142 JUMPI PUSH1 0x0 CALLDATALOAD PUSH1 0xE0 SHR DUP1 PUSH4 0x997072F7 GT PUSH2 0xB8 JUMPI DUP1 PUSH4 0xA230C524 GT PUSH2 0x7C JUMPI DUP1 PUSH4 0xA230C524 EQ PUSH2 0x38B JUMPI DUP1 PUSH4 0xAF1FCA09 EQ PUSH2 0x3BB JUMPI DUP1 PUSH4 0xB3253F13 EQ PUSH2 0x3D9 JUMPI DUP1 PUSH4 0xCA505A5B EQ PUSH2 0x409 JUMPI DUP1 PUSH4 0xCEF025AC EQ PUSH2 0x427 JUMPI DUP1 PUSH4 0xE1889876 EQ PUSH2 0x443 JUMPI PUSH2 0x142 JUMP JUMPDEST DUP1 PUSH4 0x997072F7 EQ PUSH2 0x2E5 JUMPI DUP1 PUSH4 0x9A4D383E EQ PUSH2 0x303 JUMPI DUP1 PUSH4 0x9C0AB105 EQ PUSH2 0x31F JUMPI DUP1 PUSH4 0x9E5F59F9 EQ PUSH2 0x33D JUMPI DUP1 PUSH4 0x9EAB5253 EQ PUSH2 0x36D JUMPI PUSH2 0x142 JUMP JUMPDEST DUP1 PUSH4 0x1EE503FD GT PUSH2 0x10A JUMPI DUP1 PUSH4 0x1EE503FD EQ PUSH2 0x1FF JUMPI DUP1 PUSH4 0x25EC527C EQ PUSH2 0x21B JUMPI DUP1 PUSH4 0x273F868E EQ PUSH2 0x24B JUMPI DUP1 PUSH4 0x455772D2 EQ PUSH2 0x267 JUMPI DUP1 PUSH4 0x5DAF08CA EQ PUSH2 0x285 JUMPI DUP1 PUSH4 0x70586013 EQ PUSH2 0x2B5 JUMPI PUSH2 0x142 JUMP JUMPDEST DUP1 PUSH4 0x2D05D3F EQ PUSH2 0x147 JUMPI DUP1 PUSH4 0x6FDDE03 EQ PUSH2 0x165 JUMPI DUP1 PUSH4 0x107046BD EQ PUSH2 0x183 JUMPI DUP1 PUSH4 0x146B551D EQ PUSH2 0x1B3 JUMPI DUP1 PUSH4 0x15866836 EQ PUSH2 0x1E3 JUMPI JUMPDEST PUSH1 0x0 DUP1 REVERT JUMPDEST PUSH2 0x14F PUSH2 0x473 JUMP JUMPDEST PUSH1 0x40 MLOAD PUSH2 0x15C SWAP2 SWAP1 PUSH2 0x125F JUMP JUMPDEST PUSH1 0x40 MLOAD DUP1 SWAP2 SUB SWAP1 RETURN JUMPDEST PUSH2 0x16D PUSH2 0x499 JUMP JUMPDEST PUSH1 0x40 MLOAD PUSH2 0x17A SWAP2 SWAP1 PUSH2 0x130A JUMP JUMPDEST PUSH1 0x40 MLOAD DUP1 SWAP2 SUB SWAP1 RETURN JUMPDEST PUSH2 0x19D PUSH1 0x4 DUP1 CALLDATASIZE SUB DUP2 ADD SWAP1 PUSH2 0x198 SWAP2 SWAP1 PUSH2 0x1376 JUMP JUMPDEST PUSH2 0x527 JUMP JUMPDEST PUSH1 0x40 MLOAD PUSH2 0x1AA SWAP2 SWAP1 PUSH2 0x125F JUMP JUMPDEST PUSH1 0x40 MLOAD DUP1 SWAP2 SUB SWAP1 RETURN JUMPDEST PUSH2 0x1CD PUSH1 0x4 DUP1 CALLDATASIZE SUB DUP2 ADD SWAP1 PUSH2 0x1C8 SWAP2 SWAP1 PUSH2 0x13CF JUMP JUMPDEST PUSH2 0x566 JUMP JUMPDEST PUSH1 0x40 MLOAD PUSH2 0x1DA SWAP2 SWAP1 PUSH2 0x1418 JUMP JUMPDEST PUSH1 0x40 MLOAD DUP1 SWAP2 SUB SWAP1 RETURN JUMPDEST PUSH2 0x1FD PUSH1 0x4 DUP1 CALLDATASIZE SUB DUP2 ADD SWAP1 PUSH2 0x1F8 SWAP2 SWAP1 PUSH2 0x1498 JUMP JUMPDEST PUSH2 0x56D JUMP JUMPDEST STOP JUMPDEST PUSH2 0x219 PUSH1 0x4 DUP1 CALLDATASIZE SUB DUP2 ADD SWAP1 PUSH2 0x214 SWAP2 SWAP1 PUSH2 0x13CF JUMP JUMPDEST PUSH2 0x600 JUMP JUMPDEST STOP JUMPDEST PUSH2 0x235 PUSH1 0x4 DUP1 CALLDATASIZE SUB DUP2 ADD SWAP1 PUSH2 0x230 SWAP2 SWAP1 PUSH2 0x13CF JUMP JUMPDEST PUSH2 0x934 JUMP JUMPDEST PUSH1 0x40 MLOAD PUSH2 0x242 SWAP2 SWAP1 PUSH2 0x1513 JUMP JUMPDEST PUSH1 0x40 MLOAD DUP1 SWAP2 SUB SWAP1 RETURN JUMPDEST PUSH2 0x265 PUSH1 0x4 DUP1 CALLDATASIZE SUB DUP2 ADD SWAP1 PUSH2 0x260 SWAP2 SWAP1 PUSH2 0x13CF JUMP JUMPDEST PUSH2 0x954 JUMP JUMPDEST STOP JUMPDEST PUSH2 0x26F PUSH2 0xBA8 JUMP JUMPDEST PUSH1 0x40 MLOAD PUSH2 0x27C SWAP2 SWAP1 PUSH2 0x15EC JUMP JUMPDEST PUSH1 0x40 MLOAD DUP1 SWAP2 SUB SWAP1 RETURN JUMPDEST PUSH2 0x29F PUSH1 0x4 DUP1 CALLDATASIZE SUB DUP2 ADD SWAP1 PUSH2 0x29A SWAP2 SWAP1 PUSH2 0x1376 JUMP JUMPDEST PUSH2 0xCD9 JUMP JUMPDEST PUSH1 0x40 MLOAD PUSH2 0x2AC SWAP2 SWAP1 PUSH2 0x125F JUMP JUMPDEST PUSH1 0x40 MLOAD DUP1 SWAP2 SUB SWAP1 RETURN JUMPDEST PUSH2 0x2CF PUSH1 0x4 DUP1 CALLDATASIZE SUB DUP2 ADD SWAP1 PUSH2 0x2CA SWAP2 SWAP1 PUSH2 0x1498 JUMP JUMPDEST PUSH2 0xD18 JUMP JUMPDEST PUSH1 0x40 MLOAD PUSH2 0x2DC SWAP2 SWAP1 PUSH2 0x162D JUMP JUMPDEST PUSH1 0x40 MLOAD DUP1 SWAP2 SUB SWAP1 RETURN JUMPDEST PUSH2 0x2ED PUSH2 0xD21 JUMP JUMPDEST PUSH1 0x40 MLOAD PUSH2 0x2FA SWAP2 SWAP1 PUSH2 0x1657 JUMP JUMPDEST PUSH1 0x40 MLOAD DUP1 SWAP2 SUB SWAP1 RETURN JUMPDEST PUSH2 0x31D PUSH1 0x4 DUP1 CALLDATASIZE SUB DUP2 ADD SWAP1 PUSH2 0x318 SWAP2 SWAP1 PUSH2 0x13CF JUMP JUMPDEST PUSH2 0xD2E JUMP JUMPDEST STOP JUMPDEST PUSH2 0x327 PUSH2 0xF10 JUMP JUMPDEST PUSH1 0x40 MLOAD PUSH2 0x334 SWAP2 SWAP1 PUSH2 0x130A JUMP JUMPDEST PUSH1 0x40 MLOAD DUP1 SWAP2 SUB SWAP1 RETURN JUMPDEST PUSH2 0x357 PUSH1 0x4 DUP1 CALLDATASIZE SUB DUP2 ADD SWAP1 PUSH2 0x352 SWAP2 SWAP1 PUSH2 0x13CF JUMP JUMPDEST PUSH2 0xF9E JUMP JUMPDEST PUSH1 0x40 MLOAD PUSH2 0x364 SWAP2 SWAP1 PUSH2 0x177E JUMP JUMPDEST PUSH1 0x40 MLOAD DUP1 SWAP2 SUB SWAP1 RETURN JUMPDEST PUSH2 0x375 PUSH2 0xFA5 JUMP JUMPDEST PUSH1 0x40 MLOAD PUSH2 0x382 SWAP2 SWAP1 PUSH2 0x15EC JUMP JUMPDEST PUSH1 0x40 MLOAD DUP1 SWAP2 SUB SWAP1 RETURN JUMPDEST PUSH2 0x3A5 PUSH1 0x4 DUP1 CALLDATASIZE SUB DUP2 ADD SWAP1 PUSH2 0x3A0 SWAP2 SWAP1 PUSH2 0x13CF JUMP JUMPDEST PUSH2 0x1038 JUMP JUMPDEST PUSH1 0x40 MLOAD PUSH2 0x3B2 SWAP2 SWAP1 PUSH2 0x1513 JUMP JUMPDEST PUSH1 0x40 MLOAD DUP1 SWAP2 SUB SWAP1 RETURN JUMPDEST PUSH2 0x3C3 PUSH2 0x108E JUMP JUMPDEST PUSH1 0x40 MLOAD PUSH2 0x3D0 SWAP2 SWAP1 PUSH2 0x125F JUMP JUMPDEST PUSH1 0x40 MLOAD DUP1 SWAP2 SUB SWAP1 RETURN JUMPDEST PUSH2 0x3F3 PUSH1 0x4 DUP1 CALLDATASIZE SUB DUP2 ADD SWAP1 PUSH2 0x3EE SWAP2 SWAP1 PUSH2 0x13CF JUMP JUMPDEST PUSH2 0x10B4 JUMP JUMPDEST PUSH1 0x40 MLOAD PUSH2 0x400 SWAP2 SWAP1 PUSH2 0x17B9 JUMP JUMPDEST PUSH1 0x40 MLOAD DUP1 SWAP2 SUB SWAP1 RETURN JUMPDEST PUSH2 0x411 PUSH2 0x10CC JUMP JUMPDEST PUSH1 0x40 MLOAD PUSH2 0x41E SWAP2 SWAP1 PUSH2 0x130A JUMP JUMPDEST PUSH1 0x40 MLOAD DUP1 SWAP2 SUB SWAP1 RETURN JUMPDEST PUSH2 0x441 PUSH1 0x4 DUP1 CALLDATASIZE SUB DUP2 ADD SWAP1 PUSH2 0x43C SWAP2 SWAP1 PUSH2 0x13CF JUMP JUMPDEST PUSH2 0x115A JUMP JUMPDEST STOP JUMPDEST PUSH2 0x45D PUSH1 0x4 DUP1 CALLDATASIZE SUB DUP2 ADD SWAP1 PUSH2 0x458 SWAP2 SWAP1 PUSH2 0x13CF JUMP JUMPDEST PUSH2 0x11EB JUMP JUMPDEST PUSH1 0x40 MLOAD PUSH2 0x46A SWAP2 SWAP1 PUSH2 0x125F JUMP JUMPDEST PUSH1 0x40 MLOAD DUP1 SWAP2 SUB SWAP1 RETURN JUMPDEST PUSH1 0x9 PUSH1 0x0 SWAP1 SLOAD SWAP1 PUSH2 0x100 EXP SWAP1 DIV PUSH20 0xFFFFFFFFFFFFFFFFFFFFFFFFFFFFFFFFFFFFFFFF AND DUP2 JUMP JUMPDEST PUSH1 0x0 DUP1 SLOAD PUSH2 0x4A6 SWAP1 PUSH2 0x1803 JUMP JUMPDEST DUP1 PUSH1 0x1F ADD PUSH1 0x20 DUP1 SWAP2 DIV MUL PUSH1 0x20 ADD PUSH1 0x40 MLOAD SWAP1 DUP2 ADD PUSH1 0x40 MSTORE DUP1 SWAP3 SWAP2 SWAP1 DUP2 DUP2 MSTORE PUSH1 0x20 ADD DUP3 DUP1 SLOAD PUSH2 0x4D2 SWAP1 PUSH2 0x1803 JUMP JUMPDEST DUP1 ISZERO PUSH2 0x51F JUMPI DUP1 PUSH1 0x1F LT PUSH2 0x4F4 JUMPI PUSH2 0x100 DUP1 DUP4 SLOAD DIV MUL DUP4 MSTORE SWAP2 PUSH1 0x20 ADD SWAP2 PUSH2 0x51F JUMP JUMPDEST DUP3 ADD SWAP2 SWAP1 PUSH1 0x0 MSTORE PUSH1 0x20 PUSH1 0x0 KECCAK256 SWAP1 JUMPDEST DUP2 SLOAD DUP2 MSTORE SWAP1 PUSH1 0x1 ADD SWAP1 PUSH1 0x20 ADD DUP1 DUP4 GT PUSH2 0x502 JUMPI DUP3 SWAP1 SUB PUSH1 0x1F AND DUP3 ADD SWAP2 JUMPDEST POP POP POP POP POP DUP2 JUMP JUMPDEST PUSH1 0x5 DUP2 DUP2 SLOAD DUP2 LT PUSH2 0x537 JUMPI PUSH1 0x0 DUP1 REVERT JUMPDEST SWAP1 PUSH1 0x0 MSTORE PUSH1 0x20 PUSH1 0x0 KECCAK256 ADD PUSH1 0x0 SWAP2 POP SLOAD SWAP1 PUSH2 0x100 EXP SWAP1 DIV PUSH20 0xFFFFFFFFFFFFFFFFFFFFFFFFFFFFFFFFFFFFFFFF AND DUP2 JUMP JUMPDEST PUSH1 0x0 SWAP2 SWAP1 POP JUMP JUMPDEST CALLER PUSH1 0x4 PUSH1 0x0 DUP3 PUSH20 0xFFFFFFFFFFFFFFFFFFFFFFFFFFFFFFFFFFFFFFFF AND PUSH20 0xFFFFFFFFFFFFFFFFFFFFFFFFFFFFFFFFFFFFFFFF AND DUP2 MSTORE PUSH1 0x20 ADD SWAP1 DUP2 MSTORE PUSH1 0x20 ADD PUSH1 0x0 KECCAK256 PUSH1 0x0 SWAP1 SLOAD SWAP1 PUSH2 0x100 EXP SWAP1 DIV PUSH1 0xFF AND PUSH2 0x5FA JUMPI PUSH1 0x40 MLOAD PUSH32 0x8C379A000000000000000000000000000000000000000000000000000000000 DUP2 MSTORE PUSH1 0x4 ADD PUSH2 0x5F1 SWAP1 PUSH2 0x1880 JUMP JUMPDEST PUSH1 0x40 MLOAD DUP1 SWAP2 SUB SWAP1 REVERT JUMPDEST POP POP POP POP JUMP JUMPDEST CALLER PUSH1 0x4 PUSH1 0x0 DUP3 PUSH20 0xFFFFFFFFFFFFFFFFFFFFFFFFFFFFFFFFFFFFFFFF AND PUSH20 0xFFFFFFFFFFFFFFFFFFFFFFFFFFFFFFFFFFFFFFFF AND DUP2 MSTORE PUSH1 0x20 ADD SWAP1 DUP2 MSTORE PUSH1 0x20 ADD PUSH1 0x0 KECCAK256 PUSH1 0x0 SWAP1 SLOAD SWAP1 PUSH2 0x100 EXP SWAP1 DIV PUSH1 0xFF AND PUSH2 0x68D JUMPI PUSH1 0x40 MLOAD PUSH32 0x8C379A000000000000000000000000000000000000000000000000000000000 DUP2 MSTORE PUSH1 0x4 ADD PUSH2 0x684 SWAP1 PUSH2 0x1880 JUMP JUMPDEST PUSH1 0x40 MLOAD DUP1 SWAP2 SUB SWAP1 REVERT JUMPDEST PUSH1 0x0 PUSH20 0xFFFFFFFFFFFFFFFFFFFFFFFFFFFFFFFFFFFFFFFF AND DUP3 PUSH20 0xFFFFFFFFFFFFFFFFFFFFFFFFFFFFFFFFFFFFFFFF AND SUB PUSH2 0x6FC JUMPI PUSH1 0x40 MLOAD PUSH32 0x8C379A000000000000000000000000000000000000000000000000000000000 DUP2 MSTORE PUSH1 0x4 ADD PUSH2 0x6F3 SWAP1 PUSH2 0x18C6 JUMP JUMPDEST PUSH1 0x40 MLOAD DUP1 SWAP2 SUB SWAP1 REVERT JUMPDEST PUSH1 0x0 PUSH1 0x8 PUSH1 0x0 SWAP1 SLOAD SWAP1 PUSH2 0x100 EXP SWAP1 DIV PUSH20 0xFFFFFFFFFFFFFFFFFFFFFFFFFFFFFFFFFFFFFFFF AND SWAP1 POP PUSH1 0x0 PUSH2 0x72D PUSH2 0xD21 JUMP JUMPDEST SWAP1 POP PUSH1 0x0 DUP3 PUSH20 0xFFFFFFFFFFFFFFFFFFFFFFFFFFFFFFFFFFFFFFFF AND PUSH4 0xD9A87535 DUP7 PUSH1 0x40 MLOAD DUP3 PUSH4 0xFFFFFFFF AND PUSH1 0xE0 SHL DUP2 MSTORE PUSH1 0x4 ADD PUSH2 0x76A SWAP2 SWAP1 PUSH2 0x125F JUMP JUMPDEST PUSH1 0x20 PUSH1 0x40 MLOAD DUP1 DUP4 SUB DUP2 DUP7 GAS STATICCALL ISZERO DUP1 ISZERO PUSH2 0x787 JUMPI RETURNDATASIZE PUSH1 0x0 DUP1 RETURNDATACOPY RETURNDATASIZE PUSH1 0x0 REVERT JUMPDEST POP POP POP POP PUSH1 0x40 MLOAD RETURNDATASIZE PUSH1 0x1F NOT PUSH1 0x1F DUP3 ADD AND DUP3 ADD DUP1 PUSH1 0x40 MSTORE POP DUP2 ADD SWAP1 PUSH2 0x7AB SWAP2 SWAP1 PUSH2 0x18FB JUMP JUMPDEST SWAP1 POP PUSH1 0x5 PUSH1 0x64 DUP4 DUP4 PUSH2 0x7BD SWAP2 SWAP1 PUSH2 0x1986 JUMP JUMPDEST PUSH2 0x7C7 SWAP2 SWAP1 PUSH2 0x19B7 JUMP JUMPDEST GT PUSH2 0x807 JUMPI PUSH1 0x40 MLOAD PUSH32 0x8C379A000000000000000000000000000000000000000000000000000000000 DUP2 MSTORE PUSH1 0x4 ADD PUSH2 0x7FE SWAP1 PUSH2 0x1A6B JUMP JUMPDEST PUSH1 0x40 MLOAD DUP1 SWAP2 SUB SWAP1 REVERT JUMPDEST DUP3 PUSH20 0xFFFFFFFFFFFFFFFFFFFFFFFFFFFFFFFFFFFFFFFF AND PUSH4 0x1292A282 DUP7 PUSH1 0x40 MLOAD DUP3 PUSH4 0xFFFFFFFF AND PUSH1 0xE0 SHL DUP2 MSTORE PUSH1 0x4 ADD PUSH2 0x840 SWAP2 SWAP1 PUSH2 0x125F JUMP JUMPDEST PUSH1 0x0 PUSH1 0x40 MLOAD DUP1 DUP4 SUB DUP2 PUSH1 0x0 DUP8 DUP1 EXTCODESIZE ISZERO DUP1 ISZERO PUSH2 0x85A JUMPI PUSH1 0x0 DUP1 REVERT JUMPDEST POP GAS CALL ISZERO DUP1 ISZERO PUSH2 0x86E JUMPI RETURNDATASIZE PUSH1 0x0 DUP1 RETURNDATACOPY RETURNDATASIZE PUSH1 0x0 REVERT JUMPDEST POP POP POP POP PUSH1 0x3 DUP6 SWAP1 DUP1 PUSH1 0x1 DUP2 SLOAD ADD DUP1 DUP3 SSTORE DUP1 SWAP2 POP POP PUSH1 0x1 SWAP1 SUB SWAP1 PUSH1 0x0 MSTORE PUSH1 0x20 PUSH1 0x0 KECCAK256 ADD PUSH1 0x0 SWAP1 SWAP2 SWAP1 SWAP2 SWAP1 SWAP2 PUSH2 0x100 EXP DUP2 SLOAD DUP2 PUSH20 0xFFFFFFFFFFFFFFFFFFFFFFFFFFFFFFFFFFFFFFFF MUL NOT AND SWAP1 DUP4 PUSH20 0xFFFFFFFFFFFFFFFFFFFFFFFFFFFFFFFFFFFFFFFF AND MUL OR SWAP1 SSTORE POP PUSH1 0x1 PUSH1 0x4 PUSH1 0x0 DUP8 PUSH20 0xFFFFFFFFFFFFFFFFFFFFFFFFFFFFFFFFFFFFFFFF AND PUSH20 0xFFFFFFFFFFFFFFFFFFFFFFFFFFFFFFFFFFFFFFFF AND DUP2 MSTORE PUSH1 0x20 ADD SWAP1 DUP2 MSTORE PUSH1 0x20 ADD PUSH1 0x0 KECCAK256 PUSH1 0x0 PUSH2 0x100 EXP DUP2 SLOAD DUP2 PUSH1 0xFF MUL NOT AND SWAP1 DUP4 ISZERO ISZERO MUL OR SWAP1 SSTORE POP POP POP POP POP POP JUMP JUMPDEST PUSH1 0x4 PUSH1 0x20 MSTORE DUP1 PUSH1 0x0 MSTORE PUSH1 0x40 PUSH1 0x0 KECCAK256 PUSH1 0x0 SWAP2 POP SLOAD SWAP1 PUSH2 0x100 EXP SWAP1 DIV PUSH1 0xFF AND DUP2 JUMP JUMPDEST CALLER PUSH1 0x4 PUSH1 0x0 DUP3 PUSH20 0xFFFFFFFFFFFFFFFFFFFFFFFFFFFFFFFFFFFFFFFF AND PUSH20 0xFFFFFFFFFFFFFFFFFFFFFFFFFFFFFFFFFFFFFFFF AND DUP2 MSTORE PUSH1 0x20 ADD SWAP1 DUP2 MSTORE PUSH1 0x20 ADD PUSH1 0x0 KECCAK256 PUSH1 0x0 SWAP1 SLOAD SWAP1 PUSH2 0x100 EXP SWAP1 DIV PUSH1 0xFF AND PUSH2 0x9E1 JUMPI PUSH1 0x40 MLOAD PUSH32 0x8C379A000000000000000000000000000000000000000000000000000000000 DUP2 MSTORE PUSH1 0x4 ADD PUSH2 0x9D8 SWAP1 PUSH2 0x1880 JUMP JUMPDEST PUSH1 0x40 MLOAD DUP1 SWAP2 SUB SWAP1 REVERT JUMPDEST PUSH1 0x0 PUSH20 0xFFFFFFFFFFFFFFFFFFFFFFFFFFFFFFFFFFFFFFFF AND DUP3 PUSH20 0xFFFFFFFFFFFFFFFFFFFFFFFFFFFFFFFFFFFFFFFF AND SUB PUSH2 0xA50 JUMPI PUSH1 0x40 MLOAD PUSH32 0x8C379A000000000000000000000000000000000000000000000000000000000 DUP2 MSTORE PUSH1 0x4 ADD PUSH2 0xA47 SWAP1 PUSH2 0x18C6 JUMP JUMPDEST PUSH1 0x40 MLOAD DUP1 SWAP2 SUB SWAP1 REVERT JUMPDEST PUSH1 0x0 PUSH1 0x8 PUSH1 0x0 SWAP1 SLOAD SWAP1 PUSH2 0x100 EXP SWAP1 DIV PUSH20 0xFFFFFFFFFFFFFFFFFFFFFFFFFFFFFFFFFFFFFFFF AND SWAP1 POP PUSH1 0x0 DUP2 PUSH20 0xFFFFFFFFFFFFFFFFFFFFFFFFFFFFFFFFFFFFFFFF AND PUSH4 0xB672BDCB DUP6 PUSH1 0x40 MLOAD DUP3 PUSH4 0xFFFFFFFF AND PUSH1 0xE0 SHL DUP2 MSTORE PUSH1 0x4 ADD PUSH2 0xAB2 SWAP2 SWAP1 PUSH2 0x125F JUMP JUMPDEST PUSH1 0x20 PUSH1 0x40 MLOAD DUP1 DUP4 SUB DUP2 DUP7 GAS STATICCALL ISZERO DUP1 ISZERO PUSH2 0xACF JUMPI RETURNDATASIZE PUSH1 0x0 DUP1 RETURNDATACOPY RETURNDATASIZE PUSH1 0x0 REVERT JUMPDEST POP POP POP POP PUSH1 0x40 MLOAD RETURNDATASIZE PUSH1 0x1F NOT PUSH1 0x1F DUP3 ADD AND DUP3 ADD DUP1 PUSH1 0x40 MSTORE POP DUP2 ADD SWAP1 PUSH2 0xAF3 SWAP2 SWAP1 PUSH2 0x18FB JUMP JUMPDEST SWAP1 POP TIMESTAMP DUP2 GT PUSH2 0xB37 JUMPI PUSH1 0x40 MLOAD PUSH32 0x8C379A000000000000000000000000000000000000000000000000000000000 DUP2 MSTORE PUSH1 0x4 ADD PUSH2 0xB2E SWAP1 PUSH2 0x1AD7 JUMP JUMPDEST PUSH1 0x40 MLOAD DUP1 SWAP2 SUB SWAP1 REVERT JUMPDEST DUP2 PUSH20 0xFFFFFFFFFFFFFFFFFFFFFFFFFFFFFFFFFFFFFFFF AND PUSH4 0x273F868E DUP6 PUSH1 0x40 MLOAD DUP3 PUSH4 0xFFFFFFFF AND PUSH1 0xE0 SHL DUP2 MSTORE PUSH1 0x4 ADD PUSH2 0xB70 SWAP2 SWAP1 PUSH2 0x125F JUMP JUMPDEST PUSH1 0x0 PUSH1 0x40 MLOAD DUP1 DUP4 SUB DUP2 PUSH1 0x0 DUP8 DUP1 EXTCODESIZE ISZERO DUP1 ISZERO PUSH2 0xB8A JUMPI PUSH1 0x0 DUP1 REVERT JUMPDEST POP GAS CALL ISZERO DUP1 ISZERO PUSH2 0xB9E JUMPI RETURNDATASIZE PUSH1 0x0 DUP1 RETURNDATACOPY RETURNDATASIZE PUSH1 0x0 REVERT JUMPDEST POP POP POP POP POP POP POP POP JUMP JUMPDEST PUSH1 0x60 CALLER PUSH1 0x4 PUSH1 0x0 DUP3 PUSH20 0xFFFFFFFFFFFFFFFFFFFFFFFFFFFFFFFFFFFFFFFF AND PUSH20 0xFFFFFFFFFFFFFFFFFFFFFFFFFFFFFFFFFFFFFFFF AND DUP2 MSTORE PUSH1 0x20 ADD SWAP1 DUP2 MSTORE PUSH1 0x20 ADD PUSH1 0x0 KECCAK256 PUSH1 0x0 SWAP1 SLOAD SWAP1 PUSH2 0x100 EXP SWAP1 DIV PUSH1 0xFF AND PUSH2 0xC37 JUMPI PUSH1 0x40 MLOAD PUSH32 0x8C379A000000000000000000000000000000000000000000000000000000000 DUP2 MSTORE PUSH1 0x4 ADD PUSH2 0xC2E SWAP1 PUSH2 0x1880 JUMP JUMPDEST PUSH1 0x40 MLOAD DUP1 SWAP2 SUB SWAP1 REVERT JUMPDEST PUSH1 0x0 PUSH1 0x8 PUSH1 0x0 SWAP1 SLOAD SWAP1 PUSH2 0x100 EXP SWAP1 DIV PUSH20 0xFFFFFFFFFFFFFFFFFFFFFFFFFFFFFFFFFFFFFFFF AND SWAP1 POP DUP1 PUSH20 0xFFFFFFFFFFFFFFFFFFFFFFFFFFFFFFFFFFFFFFFF AND PUSH4 0x455772D2 PUSH1 0x40 MLOAD DUP2 PUSH4 0xFFFFFFFF AND PUSH1 0xE0 SHL DUP2 MSTORE PUSH1 0x4 ADD PUSH1 0x0 PUSH1 0x40 MLOAD DUP1 DUP4 SUB DUP2 DUP7 GAS STATICCALL ISZERO DUP1 ISZERO PUSH2 0xCA9 JUMPI RETURNDATASIZE PUSH1 0x0 DUP1 RETURNDATACOPY RETURNDATASIZE PUSH1 0x0 REVERT JUMPDEST POP POP POP POP PUSH1 0x40 MLOAD RETURNDATASIZE PUSH1 0x0 DUP3 RETURNDATACOPY RETURNDATASIZE PUSH1 0x1F NOT PUSH1 0x1F DUP3 ADD AND DUP3 ADD DUP1 PUSH1 0x40 MSTORE POP DUP2 ADD SWAP1 PUSH2 0xCD2 SWAP2 SWAP1 PUSH2 0x1C4A JUMP JUMPDEST SWAP3 POP POP POP SWAP1 JUMP JUMPDEST PUSH1 0x3 DUP2 DUP2 SLOAD DUP2 LT PUSH2 0xCE9 JUMPI PUSH1 0x0 DUP1 REVERT JUMPDEST SWAP1 PUSH1 0x0 MSTORE PUSH1 0x20 PUSH1 0x0 KECCAK256 ADD PUSH1 0x0 SWAP2 POP SLOAD SWAP1 PUSH2 0x100 EXP SWAP1 DIV PUSH20 0xFFFFFFFFFFFFFFFFFFFFFFFFFFFFFFFFFFFFFFFF AND DUP2 JUMP JUMPDEST PUSH1 0x0 SWAP4 SWAP3 POP POP POP JUMP JUMPDEST PUSH1 0x0 PUSH1 0x3 DUP1 SLOAD SWAP1 POP SWAP1 POP SWAP1 JUMP JUMPDEST PUSH1 0x0 PUSH1 0x6 PUSH1 0x0 CALLER PUSH20 0xFFFFFFFFFFFFFFFFFFFFFFFFFFFFFFFFFFFFFFFF AND PUSH20 0xFFFFFFFFFFFFFFFFFFFFFFFFFFFFFFFFFFFFFFFF AND DUP2 MSTORE PUSH1 0x20 ADD SWAP1 DUP2 MSTORE PUSH1 0x20 ADD PUSH1 0x0 KECCAK256 PUSH1 0x0 SWAP1 SLOAD SWAP1 PUSH2 0x100 EXP SWAP1 DIV PUSH20 0xFFFFFFFFFFFFFFFFFFFFFFFFFFFFFFFFFFFFFFFF AND SWAP1 POP DUP1 PUSH20 0xFFFFFFFFFFFFFFFFFFFFFFFFFFFFFFFFFFFFFFFF AND DUP3 PUSH20 0xFFFFFFFFFFFFFFFFFFFFFFFFFFFFFFFFFFFFFFFF AND SUB PUSH2 0xE00 JUMPI PUSH1 0x40 MLOAD PUSH32 0x8C379A000000000000000000000000000000000000000000000000000000000 DUP2 MSTORE PUSH1 0x4 ADD PUSH2 0xDF7 SWAP1 PUSH2 0x1CDF JUMP JUMPDEST PUSH1 0x40 MLOAD DUP1 SWAP2 SUB SWAP1 REVERT JUMPDEST PUSH1 0x1 PUSH1 0x7 PUSH1 0x0 DUP5 PUSH20 0xFFFFFFFFFFFFFFFFFFFFFFFFFFFFFFFFFFFFFFFF AND PUSH20 0xFFFFFFFFFFFFFFFFFFFFFFFFFFFFFFFFFFFFFFFF AND DUP2 MSTORE PUSH1 0x20 ADD SWAP1 DUP2 MSTORE PUSH1 0x20 ADD PUSH1 0x0 KECCAK256 PUSH1 0x0 DUP3 DUP3 SLOAD PUSH2 0xE50 SWAP2 SWAP1 PUSH2 0x1CFF JUMP JUMPDEST SWAP3 POP POP DUP2 SWAP1 SSTORE POP DUP2 PUSH1 0x6 PUSH1 0x0 CALLER PUSH20 0xFFFFFFFFFFFFFFFFFFFFFFFFFFFFFFFFFFFFFFFF AND PUSH20 0xFFFFFFFFFFFFFFFFFFFFFFFFFFFFFFFFFFFFFFFF AND DUP2 MSTORE PUSH1 0x20 ADD SWAP1 DUP2 MSTORE PUSH1 0x20 ADD PUSH1 0x0 KECCAK256 PUSH1 0x0 PUSH2 0x100 EXP DUP2 SLOAD DUP2 PUSH20 0xFFFFFFFFFFFFFFFFFFFFFFFFFFFFFFFFFFFFFFFF MUL NOT AND SWAP1 DUP4 PUSH20 0xFFFFFFFFFFFFFFFFFFFFFFFFFFFFFFFFFFFFFFFF AND MUL OR SWAP1 SSTORE POP PUSH32 0xE8DDFEC65826B66EC8B03B89152BB70528FA2DA92E9775CC99671B1FC7BCB0F4 CALLER PUSH1 0x40 MLOAD PUSH2 0xF04 SWAP2 SWAP1 PUSH2 0x125F JUMP JUMPDEST PUSH1 0x40 MLOAD DUP1 SWAP2 SUB SWAP1 LOG1 POP POP JUMP JUMPDEST PUSH1 0x2 DUP1 SLOAD PUSH2 0xF1D SWAP1 PUSH2 0x1803 JUMP JUMPDEST DUP1 PUSH1 0x1F ADD PUSH1 0x20 DUP1 SWAP2 DIV MUL PUSH1 0x20 ADD PUSH1 0x40 MLOAD SWAP1 DUP2 ADD PUSH1 0x40 MSTORE DUP1 SWAP3 SWAP2 SWAP1 DUP2 DUP2 MSTORE PUSH1 0x20 ADD DUP3 DUP1 SLOAD PUSH2 0xF49 SWAP1 PUSH2 0x1803 JUMP JUMPDEST DUP1 ISZERO PUSH2 0xF96 JUMPI DUP1 PUSH1 0x1F LT PUSH2 0xF6B JUMPI PUSH2 0x100 DUP1 DUP4 SLOAD DIV MUL DUP4 MSTORE SWAP2 PUSH1 0x20 ADD SWAP2 PUSH2 0xF96 JUMP JUMPDEST DUP3 ADD SWAP2 SWAP1 PUSH1 0x0 MSTORE PUSH1 0x20 PUSH1 0x0 KECCAK256 SWAP1 JUMPDEST DUP2 SLOAD DUP2 MSTORE SWAP1 PUSH1 0x1 ADD SWAP1 PUSH1 0x20 ADD DUP1 DUP4 GT PUSH2 0xF79 JUMPI DUP3 SWAP1 SUB PUSH1 0x1F AND DUP3 ADD SWAP2 JUMPDEST POP POP POP POP POP DUP2 JUMP JUMPDEST PUSH1 0x60 SWAP2 SWAP1 POP JUMP JUMPDEST PUSH1 0x60 CALLER PUSH1 0x4 PUSH1 0x0 DUP3 PUSH20 0xFFFFFFFFFFFFFFFFFFFFFFFFFFFFFFFFFFFFFFFF AND PUSH20 0xFFFFFFFFFFFFFFFFFFFFFFFFFFFFFFFFFFFFFFFF AND DUP2 MSTORE PUSH1 0x20 ADD SWAP1 DUP2 MSTORE PUSH1 0x20 ADD PUSH1 0x0 KECCAK256 PUSH1 0x0 SWAP1 SLOAD SWAP1 PUSH2 0x100 EXP SWAP1 DIV PUSH1 0xFF AND PUSH2 0x1034 JUMPI PUSH1 0x40 MLOAD PUSH32 0x8C379A000000000000000000000000000000000000000000000000000000000 DUP2 MSTORE PUSH1 0x4 ADD PUSH2 0x102B SWAP1 PUSH2 0x1880 JUMP JUMPDEST PUSH1 0x40 MLOAD DUP1 SWAP2 SUB SWAP1 REVERT JUMPDEST POP SWAP1 JUMP JUMPDEST PUSH1 0x0 PUSH1 0x4 PUSH1 0x0 DUP4 PUSH20 0xFFFFFFFFFFFFFFFFFFFFFFFFFFFFFFFFFFFFFFFF AND PUSH20 0xFFFFFFFFFFFFFFFFFFFFFFFFFFFFFFFFFFFFFFFF AND DUP2 MSTORE PUSH1 0x20 ADD SWAP1 DUP2 MSTORE PUSH1 0x20 ADD PUSH1 0x0 KECCAK256 PUSH1 0x0 SWAP1 SLOAD SWAP1 PUSH2 0x100 EXP SWAP1 DIV PUSH1 0xFF AND SWAP1 POP SWAP2 SWAP1 POP JUMP JUMPDEST PUSH1 0x8 PUSH1 0x0 SWAP1 SLOAD SWAP1 PUSH2 0x100 EXP SWAP1 DIV PUSH20 0xFFFFFFFFFFFFFFFFFFFFFFFFFFFFFFFFFFFFFFFF AND DUP2 JUMP JUMPDEST PUSH1 0x7 PUSH1 0x20 MSTORE DUP1 PUSH1 0x0 MSTORE PUSH1 0x40 PUSH1 0x0 KECCAK256 PUSH1 0x0 SWAP2 POP SWAP1 POP SLOAD DUP2 JUMP JUMPDEST PUSH1 0x1 DUP1 SLOAD PUSH2 0x10D9 SWAP1 PUSH2 0x1803 JUMP JUMPDEST DUP1 PUSH1 0x1F ADD PUSH1 0x20 DUP1 SWAP2 DIV MUL PUSH1 0x20 ADD PUSH1 0x40 MLOAD SWAP1 DUP2 ADD PUSH1 0x40 MSTORE DUP1 SWAP3 SWAP2 SWAP1 DUP2 DUP2 MSTORE PUSH1 0x20 ADD DUP3 DUP1 SLOAD PUSH2 0x1105 SWAP1 PUSH2 0x1803 JUMP JUMPDEST DUP1 ISZERO PUSH2 0x1152 JUMPI DUP1 PUSH1 0x1F LT PUSH2 0x1127 JUMPI PUSH2 0x100 DUP1 DUP4 SLOAD DIV MUL DUP4 MSTORE SWAP2 PUSH1 0x20 ADD SWAP2 PUSH2 0x1152 JUMP JUMPDEST DUP3 ADD SWAP2 SWAP1 PUSH1 0x0 MSTORE PUSH1 0x20 PUSH1 0x0 KECCAK256 SWAP1 JUMPDEST DUP2 SLOAD DUP2 MSTORE SWAP1 PUSH1 0x1 ADD SWAP1 PUSH1 0x20 ADD DUP1 DUP4 GT PUSH2 0x1135 JUMPI DUP3 SWAP1 SUB PUSH1 0x1F AND DUP3 ADD SWAP2 JUMPDEST POP POP POP POP POP DUP2 JUMP JUMPDEST CALLER PUSH1 0x4 PUSH1 0x0 DUP3 PUSH20 0xFFFFFFFFFFFFFFFFFFFFFFFFFFFFFFFFFFFFFFFF AND PUSH20 0xFFFFFFFFFFFFFFFFFFFFFFFFFFFFFFFFFFFFFFFF AND DUP2 MSTORE PUSH1 0x20 ADD SWAP1 DUP2 MSTORE PUSH1 0x20 ADD PUSH1 0x0 KECCAK256 PUSH1 0x0 SWAP1 SLOAD SWAP1 PUSH2 0x100 EXP SWAP1 DIV PUSH1 0xFF AND PUSH2 0x11E7 JUMPI PUSH1 0x40 MLOAD PUSH32 0x8C379A000000000000000000000000000000000000000000000000000000000 DUP2 MSTORE PUSH1 0x4 ADD PUSH2 0x11DE SWAP1 PUSH2 0x1880 JUMP JUMPDEST PUSH1 0x40 MLOAD DUP1 SWAP2 SUB SWAP1 REVERT JUMPDEST POP POP JUMP JUMPDEST PUSH1 0x6 PUSH1 0x20 MSTORE DUP1 PUSH1 0x0 MSTORE PUSH1 0x40 PUSH1 0x0 KECCAK256 PUSH1 0x0 SWAP2 POP SLOAD SWAP1 PUSH2 0x100 EXP SWAP1 DIV PUSH20 0xFFFFFFFFFFFFFFFFFFFFFFFFFFFFFFFFFFFFFFFF AND DUP2 JUMP JUMPDEST PUSH1 0x0 PUSH20 0xFFFFFFFFFFFFFFFFFFFFFFFFFFFFFFFFFFFFFFFF DUP3 AND SWAP1 POP SWAP2 SWAP1 POP JUMP JUMPDEST PUSH1 0x0 PUSH2 0x1249 DUP3 PUSH2 0x121E JUMP JUMPDEST SWAP1 POP SWAP2 SWAP1 POP JUMP JUMPDEST PUSH2 0x1259 DUP2 PUSH2 0x123E JUMP JUMPDEST DUP3 MSTORE POP POP JUMP JUMPDEST PUSH1 0x0 PUSH1 0x20 DUP3 ADD SWAP1 POP PUSH2 0x1274 PUSH1 0x0 DUP4 ADD DUP5 PUSH2 0x1250 JUMP JUMPDEST SWAP3 SWAP2 POP POP JUMP JUMPDEST PUSH1 0x0 DUP2 MLOAD SWAP1 POP SWAP2 SWAP1 POP JUMP JUMPDEST PUSH1 0x0 DUP3 DUP3 MSTORE PUSH1 0x20 DUP3 ADD SWAP1 POP SWAP3 SWAP2 POP POP JUMP JUMPDEST PUSH1 0x0 JUMPDEST DUP4 DUP2 LT ISZERO PUSH2 0x12B4 JUMPI DUP1 DUP3 ADD MLOAD DUP2 DUP5 ADD MSTORE PUSH1 0x20 DUP2 ADD SWAP1 POP PUSH2 0x1299 JUMP JUMPDEST PUSH1 0x0 DUP5 DUP5 ADD MSTORE POP POP POP POP JUMP JUMPDEST PUSH1 0x0 PUSH1 0x1F NOT PUSH1 0x1F DUP4 ADD AND SWAP1 POP SWAP2 SWAP1 POP JUMP JUMPDEST PUSH1 0x0 PUSH2 0x12DC DUP3 PUSH2 0x127A JUMP JUMPDEST PUSH2 0x12E6 DUP2 DUP6 PUSH2 0x1285 JUMP JUMPDEST SWAP4 POP PUSH2 0x12F6 DUP2 DUP6 PUSH1 0x20 DUP7 ADD PUSH2 0x1296 JUMP JUMPDEST PUSH2 0x12FF DUP2 PUSH2 0x12C0 JUMP JUMPDEST DUP5 ADD SWAP2 POP POP SWAP3 SWAP2 POP POP JUMP JUMPDEST PUSH1 0x0 PUSH1 0x20 DUP3 ADD SWAP1 POP DUP2 DUP2 SUB PUSH1 0x0 DUP4 ADD MSTORE PUSH2 0x1324 DUP2 DUP5 PUSH2 0x12D1 JUMP JUMPDEST SWAP1 POP SWAP3 SWAP2 POP POP JUMP JUMPDEST PUSH1 0x0 PUSH1 0x40 MLOAD SWAP1 POP SWAP1 JUMP JUMPDEST PUSH1 0x0 DUP1 REVERT JUMPDEST PUSH1 0x0 DUP1 REVERT JUMPDEST PUSH1 0x0 DUP2 SWAP1 POP SWAP2 SWAP1 POP JUMP JUMPDEST PUSH2 0x1353 DUP2 PUSH2 0x1340 JUMP JUMPDEST DUP2 EQ PUSH2 0x135E JUMPI PUSH1 0x0 DUP1 REVERT JUMPDEST POP JUMP JUMPDEST PUSH1 0x0 DUP2 CALLDATALOAD SWAP1 POP PUSH2 0x1370 DUP2 PUSH2 0x134A JUMP JUMPDEST SWAP3 SWAP2 POP POP JUMP JUMPDEST PUSH1 0x0 PUSH1 0x20 DUP3 DUP5 SUB SLT ISZERO PUSH2 0x138C JUMPI PUSH2 0x138B PUSH2 0x1336 JUMP JUMPDEST JUMPDEST PUSH1 0x0 PUSH2 0x139A DUP5 DUP3 DUP6 ADD PUSH2 0x1361 JUMP JUMPDEST SWAP2 POP POP SWAP3 SWAP2 POP POP JUMP JUMPDEST PUSH2 0x13AC DUP2 PUSH2 0x123E JUMP JUMPDEST DUP2 EQ PUSH2 0x13B7 JUMPI PUSH1 0x0 DUP1 REVERT JUMPDEST POP JUMP JUMPDEST PUSH1 0x0 DUP2 CALLDATALOAD SWAP1 POP PUSH2 0x13C9 DUP2 PUSH2 0x13A3 JUMP JUMPDEST SWAP3 SWAP2 POP POP JUMP JUMPDEST PUSH1 0x0 PUSH1 0x20 DUP3 DUP5 SUB SLT ISZERO PUSH2 0x13E5 JUMPI PUSH2 0x13E4 PUSH2 0x1336 JUMP JUMPDEST JUMPDEST PUSH1 0x0 PUSH2 0x13F3 DUP5 DUP3 DUP6 ADD PUSH2 0x13BA JUMP JUMPDEST SWAP2 POP POP SWAP3 SWAP2 POP POP JUMP JUMPDEST PUSH1 0x0 DUP2 PUSH1 0x3 SIGNEXTEND SWAP1 POP SWAP2 SWAP1 POP JUMP JUMPDEST PUSH2 0x1412 DUP2 PUSH2 0x13FC JUMP JUMPDEST DUP3 MSTORE POP POP JUMP JUMPDEST PUSH1 0x0 PUSH1 0x20 DUP3 ADD SWAP1 POP PUSH2 0x142D PUSH1 0x0 DUP4 ADD DUP5 PUSH2 0x1409 JUMP JUMPDEST SWAP3 SWAP2 POP POP JUMP JUMPDEST PUSH1 0x0 DUP1 REVERT JUMPDEST PUSH1 0x0 DUP1 REVERT JUMPDEST PUSH1 0x0 DUP1 REVERT JUMPDEST PUSH1 0x0 DUP1 DUP4 PUSH1 0x1F DUP5 ADD SLT PUSH2 0x1458 JUMPI PUSH2 0x1457 PUSH2 0x1433 JUMP JUMPDEST JUMPDEST DUP3 CALLDATALOAD SWAP1 POP PUSH8 0xFFFFFFFFFFFFFFFF DUP2 GT ISZERO PUSH2 0x1475 JUMPI PUSH2 0x1474 PUSH2 0x1438 JUMP JUMPDEST JUMPDEST PUSH1 0x20 DUP4 ADD SWAP2 POP DUP4 PUSH1 0x1 DUP3 MUL DUP4 ADD GT ISZERO PUSH2 0x1491 JUMPI PUSH2 0x1490 PUSH2 0x143D JUMP JUMPDEST JUMPDEST SWAP3 POP SWAP3 SWAP1 POP JUMP JUMPDEST PUSH1 0x0 DUP1 PUSH1 0x0 PUSH1 0x40 DUP5 DUP7 SUB SLT ISZERO PUSH2 0x14B1 JUMPI PUSH2 0x14B0 PUSH2 0x1336 JUMP JUMPDEST JUMPDEST PUSH1 0x0 PUSH2 0x14BF DUP7 DUP3 DUP8 ADD PUSH2 0x13BA JUMP JUMPDEST SWAP4 POP POP PUSH1 0x20 DUP5 ADD CALLDATALOAD PUSH8 0xFFFFFFFFFFFFFFFF DUP2 GT ISZERO PUSH2 0x14E0 JUMPI PUSH2 0x14DF PUSH2 0x133B JUMP JUMPDEST JUMPDEST PUSH2 0x14EC DUP7 DUP3 DUP8 ADD PUSH2 0x1442 JUMP JUMPDEST SWAP3 POP SWAP3 POP POP SWAP3 POP SWAP3 POP SWAP3 JUMP JUMPDEST PUSH1 0x0 DUP2 ISZERO ISZERO SWAP1 POP SWAP2 SWAP1 POP JUMP JUMPDEST PUSH2 0x150D DUP2 PUSH2 0x14F8 JUMP JUMPDEST DUP3 MSTORE POP POP JUMP JUMPDEST PUSH1 0x0 PUSH1 0x20 DUP3 ADD SWAP1 POP PUSH2 0x1528 PUSH1 0x0 DUP4 ADD DUP5 PUSH2 0x1504 JUMP JUMPDEST SWAP3 SWAP2 POP POP JUMP JUMPDEST PUSH1 0x0 DUP2 MLOAD SWAP1 POP SWAP2 SWAP1 POP JUMP JUMPDEST PUSH1 0x0 DUP3 DUP3 MSTORE PUSH1 0x20 DUP3 ADD SWAP1 POP SWAP3 SWAP2 POP POP JUMP JUMPDEST PUSH1 0x0 DUP2 SWAP1 POP PUSH1 0x20 DUP3 ADD SWAP1 POP SWAP2 SWAP1 POP JUMP JUMPDEST PUSH2 0x1563 DUP2 PUSH2 0x123E JUMP JUMPDEST DUP3 MSTORE POP POP JUMP JUMPDEST PUSH1 0x0 PUSH2 0x1575 DUP4 DUP4 PUSH2 0x155A JUMP JUMPDEST PUSH1 0x20 DUP4 ADD SWAP1 POP SWAP3 SWAP2 POP POP JUMP JUMPDEST PUSH1 0x0 PUSH1 0x20 DUP3 ADD SWAP1 POP SWAP2 SWAP1 POP JUMP JUMPDEST PUSH1 0x0 PUSH2 0x1599 DUP3 PUSH2 0x152E JUMP JUMPDEST PUSH2 0x15A3 DUP2 DUP6 PUSH2 0x1539 JUMP JUMPDEST SWAP4 POP PUSH2 0x15AE DUP4 PUSH2 0x154A JUMP JUMPDEST DUP1 PUSH1 0x0 JUMPDEST DUP4 DUP2 LT ISZERO PUSH2 0x15DF JUMPI DUP2 MLOAD PUSH2 0x15C6 DUP9 DUP3 PUSH2 0x1569 JUMP JUMPDEST SWAP8 POP PUSH2 0x15D1 DUP4 PUSH2 0x1581 JUMP JUMPDEST SWAP3 POP POP PUSH1 0x1 DUP2 ADD SWAP1 POP PUSH2 0x15B2 JUMP JUMPDEST POP DUP6 SWAP4 POP POP POP POP SWAP3 SWAP2 POP POP JUMP JUMPDEST PUSH1 0x0 PUSH1 0x20 DUP3 ADD SWAP1 POP DUP2 DUP2 SUB PUSH1 0x0 DUP4 ADD MSTORE PUSH2 0x1606 DUP2 DUP5 PUSH2 0x158E JUMP JUMPDEST SWAP1 POP SWAP3 SWAP2 POP POP JUMP JUMPDEST PUSH1 0x0 PUSH4 0xFFFFFFFF DUP3 AND SWAP1 POP SWAP2 SWAP1 POP JUMP JUMPDEST PUSH2 0x1627 DUP2 PUSH2 0x160E JUMP JUMPDEST DUP3 MSTORE POP POP JUMP JUMPDEST PUSH1 0x0 PUSH1 0x20 DUP3 ADD SWAP1 POP PUSH2 0x1642 PUSH1 0x0 DUP4 ADD DUP5 PUSH2 0x161E JUMP JUMPDEST SWAP3 SWAP2 POP POP JUMP JUMPDEST PUSH2 0x1651 DUP2 PUSH2 0x1340 JUMP JUMPDEST DUP3 MSTORE POP POP JUMP JUMPDEST PUSH1 0x0 PUSH1 0x20 DUP3 ADD SWAP1 POP PUSH2 0x166C PUSH1 0x0 DUP4 ADD DUP5 PUSH2 0x1648 JUMP JUMPDEST SWAP3 SWAP2 POP POP JUMP JUMPDEST PUSH1 0x0 DUP2 MLOAD SWAP1 POP SWAP2 SWAP1 POP JUMP JUMPDEST PUSH1 0x0 DUP3 DUP3 MSTORE PUSH1 0x20 DUP3 ADD SWAP1 POP SWAP3 SWAP2 POP POP JUMP JUMPDEST PUSH1 0x0 DUP2 SWAP1 POP PUSH1 0x20 DUP3 ADD SWAP1 POP SWAP2 SWAP1 POP JUMP JUMPDEST PUSH1 0x0 DUP3 DUP3 MSTORE PUSH1 0x20 DUP3 ADD SWAP1 POP SWAP3 SWAP2 POP POP JUMP JUMPDEST PUSH1 0x0 PUSH2 0x16BA DUP3 PUSH2 0x127A JUMP JUMPDEST PUSH2 0x16C4 DUP2 DUP6 PUSH2 0x169E JUMP JUMPDEST SWAP4 POP PUSH2 0x16D4 DUP2 DUP6 PUSH1 0x20 DUP7 ADD PUSH2 0x1296 JUMP JUMPDEST PUSH2 0x16DD DUP2 PUSH2 0x12C0 JUMP JUMPDEST DUP5 ADD SWAP2 POP POP SWAP3 SWAP2 POP POP JUMP JUMPDEST PUSH1 0x0 PUSH2 0x16F4 DUP4 DUP4 PUSH2 0x16AF JUMP JUMPDEST SWAP1 POP SWAP3 SWAP2 POP POP JUMP JUMPDEST PUSH1 0x0 PUSH1 0x20 DUP3 ADD SWAP1 POP SWAP2 SWAP1 POP JUMP JUMPDEST PUSH1 0x0 PUSH2 0x1714 DUP3 PUSH2 0x1672 JUMP JUMPDEST PUSH2 0x171E DUP2 DUP6 PUSH2 0x167D JUMP JUMPDEST SWAP4 POP DUP4 PUSH1 0x20 DUP3 MUL DUP6 ADD PUSH2 0x1730 DUP6 PUSH2 0x168E JUMP JUMPDEST DUP1 PUSH1 0x0 JUMPDEST DUP6 DUP2 LT ISZERO PUSH2 0x176C JUMPI DUP5 DUP5 SUB DUP10 MSTORE DUP2 MLOAD PUSH2 0x174D DUP6 DUP3 PUSH2 0x16E8 JUMP JUMPDEST SWAP5 POP PUSH2 0x1758 DUP4 PUSH2 0x16FC JUMP JUMPDEST SWAP3 POP PUSH1 0x20 DUP11 ADD SWAP10 POP POP PUSH1 0x1 DUP2 ADD SWAP1 POP PUSH2 0x1734 JUMP JUMPDEST POP DUP3 SWAP8 POP DUP8 SWAP6 POP POP POP POP POP POP SWAP3 SWAP2 POP POP JUMP JUMPDEST PUSH1 0x0 PUSH1 0x20 DUP3 ADD SWAP1 POP DUP2 DUP2 SUB PUSH1 0x0 DUP4 ADD MSTORE PUSH2 0x1798 DUP2 DUP5 PUSH2 0x1709 JUMP JUMPDEST SWAP1 POP SWAP3 SWAP2 POP POP JUMP JUMPDEST PUSH1 0x0 DUP2 SWAP1 POP SWAP2 SWAP1 POP JUMP JUMPDEST PUSH2 0x17B3 DUP2 PUSH2 0x17A0 JUMP JUMPDEST DUP3 MSTORE POP POP JUMP JUMPDEST PUSH1 0x0 PUSH1 0x20 DUP3 ADD SWAP1 POP PUSH2 0x17CE PUSH1 0x0 DUP4 ADD DUP5 PUSH2 0x17AA JUMP JUMPDEST SWAP3 SWAP2 POP POP JUMP JUMPDEST PUSH32 0x4E487B7100000000000000000000000000000000000000000000000000000000 PUSH1 0x0 MSTORE PUSH1 0x22 PUSH1 0x4 MSTORE PUSH1 0x24 PUSH1 0x0 REVERT JUMPDEST PUSH1 0x0 PUSH1 0x2 DUP3 DIV SWAP1 POP PUSH1 0x1 DUP3 AND DUP1 PUSH2 0x181B JUMPI PUSH1 0x7F DUP3 AND SWAP2 POP JUMPDEST PUSH1 0x20 DUP3 LT DUP2 SUB PUSH2 0x182E JUMPI PUSH2 0x182D PUSH2 0x17D4 JUMP JUMPDEST JUMPDEST POP SWAP2 SWAP1 POP JUMP JUMPDEST PUSH32 0x526571756972656420746F2062652061206D656D656265720000000000000000 PUSH1 0x0 DUP3 ADD MSTORE POP JUMP JUMPDEST PUSH1 0x0 PUSH2 0x186A PUSH1 0x18 DUP4 PUSH2 0x1285 JUMP JUMPDEST SWAP2 POP PUSH2 0x1875 DUP3 PUSH2 0x1834 JUMP JUMPDEST PUSH1 0x20 DUP3 ADD SWAP1 POP SWAP2 SWAP1 POP JUMP JUMPDEST PUSH1 0x0 PUSH1 0x20 DUP3 ADD SWAP1 POP DUP2 DUP2 SUB PUSH1 0x0 DUP4 ADD MSTORE PUSH2 0x1899 DUP2 PUSH2 0x185D JUMP JUMPDEST SWAP1 POP SWAP2 SWAP1 POP JUMP JUMPDEST POP JUMP JUMPDEST PUSH1 0x0 PUSH2 0x18B0 PUSH1 0x0 DUP4 PUSH2 0x1285 JUMP JUMPDEST SWAP2 POP PUSH2 0x18BB DUP3 PUSH2 0x18A0 JUMP JUMPDEST PUSH1 0x0 DUP3 ADD SWAP1 POP SWAP2 SWAP1 POP JUMP JUMPDEST PUSH1 0x0 PUSH1 0x20 DUP3 ADD SWAP1 POP DUP2 DUP2 SUB PUSH1 0x0 DUP4 ADD MSTORE PUSH2 0x18DF DUP2 PUSH2 0x18A3 JUMP JUMPDEST SWAP1 POP SWAP2 SWAP1 POP JUMP JUMPDEST PUSH1 0x0 DUP2 MLOAD SWAP1 POP PUSH2 0x18F5 DUP2 PUSH2 0x134A JUMP JUMPDEST SWAP3 SWAP2 POP POP JUMP JUMPDEST PUSH1 0x0 PUSH1 0x20 DUP3 DUP5 SUB SLT ISZERO PUSH2 0x1911 JUMPI PUSH2 0x1910 PUSH2 0x1336 JUMP JUMPDEST JUMPDEST PUSH1 0x0 PUSH2 0x191F DUP5 DUP3 DUP6 ADD PUSH2 0x18E6 JUMP JUMPDEST SWAP2 POP POP SWAP3 SWAP2 POP POP JUMP JUMPDEST PUSH32 0x4E487B7100000000000000000000000000000000000000000000000000000000 PUSH1 0x0 MSTORE PUSH1 0x12 PUSH1 0x4 MSTORE PUSH1 0x24 PUSH1 0x0 REVERT JUMPDEST PUSH32 0x4E487B7100000000000000000000000000000000000000000000000000000000 PUSH1 0x0 MSTORE PUSH1 0x11 PUSH1 0x4 MSTORE PUSH1 0x24 PUSH1 0x0 REVERT JUMPDEST PUSH1 0x0 PUSH2 0x1991 DUP3 PUSH2 0x1340 JUMP JUMPDEST SWAP2 POP PUSH2 0x199C DUP4 PUSH2 0x1340 JUMP JUMPDEST SWAP3 POP DUP3 PUSH2 0x19AC JUMPI PUSH2 0x19AB PUSH2 0x1928 JUMP JUMPDEST JUMPDEST DUP3 DUP3 DIV SWAP1 POP SWAP3 SWAP2 POP POP JUMP JUMPDEST PUSH1 0x0 PUSH2 0x19C2 DUP3 PUSH2 0x1340 JUMP JUMPDEST SWAP2 POP PUSH2 0x19CD DUP4 PUSH2 0x1340 JUMP JUMPDEST SWAP3 POP DUP3 DUP3 MUL PUSH2 0x19DB DUP2 PUSH2 0x1340 JUMP JUMPDEST SWAP2 POP DUP3 DUP3 DIV DUP5 EQ DUP4 ISZERO OR PUSH2 0x19F2 JUMPI PUSH2 0x19F1 PUSH2 0x1957 JUMP JUMPDEST JUMPDEST POP SWAP3 SWAP2 POP POP JUMP JUMPDEST PUSH32 0x496E76616C6964206E756D626572206F6620766F746573206F722070726F6365 PUSH1 0x0 DUP3 ADD MSTORE PUSH32 0x65642E0000000000000000000000000000000000000000000000000000000000 PUSH1 0x20 DUP3 ADD MSTORE POP JUMP JUMPDEST PUSH1 0x0 PUSH2 0x1A55 PUSH1 0x23 DUP4 PUSH2 0x1285 JUMP JUMPDEST SWAP2 POP PUSH2 0x1A60 DUP3 PUSH2 0x19F9 JUMP JUMPDEST PUSH1 0x40 DUP3 ADD SWAP1 POP SWAP2 SWAP1 POP JUMP JUMPDEST PUSH1 0x0 PUSH1 0x20 DUP3 ADD SWAP1 POP DUP2 DUP2 SUB PUSH1 0x0 DUP4 ADD MSTORE PUSH2 0x1A84 DUP2 PUSH2 0x1A48 JUMP JUMPDEST SWAP1 POP SWAP2 SWAP1 POP JUMP JUMPDEST PUSH32 0x546F20736F6F6E20746F20656E6420766F746500000000000000000000000000 PUSH1 0x0 DUP3 ADD MSTORE POP JUMP JUMPDEST PUSH1 0x0 PUSH2 0x1AC1 PUSH1 0x13 DUP4 PUSH2 0x1285 JUMP JUMPDEST SWAP2 POP PUSH2 0x1ACC DUP3 PUSH2 0x1A8B JUMP JUMPDEST PUSH1 0x20 DUP3 ADD SWAP1 POP SWAP2 SWAP1 POP JUMP JUMPDEST PUSH1 0x0 PUSH1 0x20 DUP3 ADD SWAP1 POP DUP2 DUP2 SUB PUSH1 0x0 DUP4 ADD MSTORE PUSH2 0x1AF0 DUP2 PUSH2 0x1AB4 JUMP JUMPDEST SWAP1 POP SWAP2 SWAP1 POP JUMP JUMPDEST PUSH32 0x4E487B7100000000000000000000000000000000000000000000000000000000 PUSH1 0x0 MSTORE PUSH1 0x41 PUSH1 0x4 MSTORE PUSH1 0x24 PUSH1 0x0 REVERT JUMPDEST PUSH2 0x1B2F DUP3 PUSH2 0x12C0 JUMP JUMPDEST DUP2 ADD DUP2 DUP2 LT PUSH8 0xFFFFFFFFFFFFFFFF DUP3 GT OR ISZERO PUSH2 0x1B4E JUMPI PUSH2 0x1B4D PUSH2 0x1AF7 JUMP JUMPDEST JUMPDEST DUP1 PUSH1 0x40 MSTORE POP POP POP JUMP JUMPDEST PUSH1 0x0 PUSH2 0x1B61 PUSH2 0x132C JUMP JUMPDEST SWAP1 POP PUSH2 0x1B6D DUP3 DUP3 PUSH2 0x1B26 JUMP JUMPDEST SWAP2 SWAP1 POP JUMP JUMPDEST PUSH1 0x0 PUSH8 0xFFFFFFFFFFFFFFFF DUP3 GT ISZERO PUSH2 0x1B8D JUMPI PUSH2 0x1B8C PUSH2 0x1AF7 JUMP JUMPDEST JUMPDEST PUSH1 0x20 DUP3 MUL SWAP1 POP PUSH1 0x20 DUP2 ADD SWAP1 POP SWAP2 SWAP1 POP JUMP JUMPDEST PUSH1 0x0 DUP2 MLOAD SWAP1 POP PUSH2 0x1BAD DUP2 PUSH2 0x13A3 JUMP JUMPDEST SWAP3 SWAP2 POP POP JUMP JUMPDEST PUSH1 0x0 PUSH2 0x1BC6 PUSH2 0x1BC1 DUP5 PUSH2 0x1B72 JUMP JUMPDEST PUSH2 0x1B57 JUMP JUMPDEST SWAP1 POP DUP1 DUP4 DUP3 MSTORE PUSH1 0x20 DUP3 ADD SWAP1 POP PUSH1 0x20 DUP5 MUL DUP4 ADD DUP6 DUP2 GT ISZERO PUSH2 0x1BE9 JUMPI PUSH2 0x1BE8 PUSH2 0x143D JUMP JUMPDEST JUMPDEST DUP4 JUMPDEST DUP2 DUP2 LT ISZERO PUSH2 0x1C12 JUMPI DUP1 PUSH2 0x1BFE DUP9 DUP3 PUSH2 0x1B9E JUMP JUMPDEST DUP5 MSTORE PUSH1 0x20 DUP5 ADD SWAP4 POP POP PUSH1 0x20 DUP2 ADD SWAP1 POP PUSH2 0x1BEB JUMP JUMPDEST POP POP POP SWAP4 SWAP3 POP POP POP JUMP JUMPDEST PUSH1 0x0 DUP3 PUSH1 0x1F DUP4 ADD SLT PUSH2 0x1C31 JUMPI PUSH2 0x1C30 PUSH2 0x1433 JUMP JUMPDEST JUMPDEST DUP2 MLOAD PUSH2 0x1C41 DUP5 DUP3 PUSH1 0x20 DUP7 ADD PUSH2 0x1BB3 JUMP JUMPDEST SWAP2 POP POP SWAP3 SWAP2 POP POP JUMP JUMPDEST PUSH1 0x0 PUSH1 0x20 DUP3 DUP5 SUB SLT ISZERO PUSH2 0x1C60 JUMPI PUSH2 0x1C5F PUSH2 0x1336 JUMP JUMPDEST JUMPDEST PUSH1 0x0 DUP3 ADD MLOAD PUSH8 0xFFFFFFFFFFFFFFFF DUP2 GT ISZERO PUSH2 0x1C7E JUMPI PUSH2 0x1C7D PUSH2 0x133B JUMP JUMPDEST JUMPDEST PUSH2 0x1C8A DUP5 DUP3 DUP6 ADD PUSH2 0x1C1C JUMP JUMPDEST SWAP2 POP POP SWAP3 SWAP2 POP POP JUMP JUMPDEST PUSH32 0x416C726561647920766F74656400000000000000000000000000000000000000 PUSH1 0x0 DUP3 ADD MSTORE POP JUMP JUMPDEST PUSH1 0x0 PUSH2 0x1CC9 PUSH1 0xD DUP4 PUSH2 0x1285 JUMP JUMPDEST SWAP2 POP PUSH2 0x1CD4 DUP3 PUSH2 0x1C93 JUMP JUMPDEST PUSH1 0x20 DUP3 ADD SWAP1 POP SWAP2 SWAP1 POP JUMP JUMPDEST PUSH1 0x0 PUSH1 0x20 DUP3 ADD SWAP1 POP DUP2 DUP2 SUB PUSH1 0x0 DUP4 ADD MSTORE PUSH2 0x1CF8 DUP2 PUSH2 0x1CBC JUMP JUMPDEST SWAP1 POP SWAP2 SWAP1 POP JUMP JUMPDEST PUSH1 0x0 PUSH2 0x1D0A DUP3 PUSH2 0x17A0 JUMP JUMPDEST SWAP2 POP PUSH2 0x1D15 DUP4 PUSH2 0x17A0 JUMP JUMPDEST SWAP3 POP DUP3 DUP3 ADD SWAP1 POP DUP3 DUP2 SLT ISZERO PUSH1 0x0 DUP4 SLT AND DUP4 DUP3 SLT PUSH1 0x0 DUP5 SLT ISZERO AND OR ISZERO PUSH2 0x1D3D JUMPI PUSH2 0x1D3C PUSH2 0x1957 JUMP JUMPDEST JUMPDEST SWAP3 SWAP2 POP POP JUMP INVALID LOG2 PUSH5 0x6970667358 0x22 SLT KECCAK256 0xA6 0xD0 ADDRESS 0xF SELFBALANCE POP PUSH4 0xE7CE6CA7 0xC4 PUSH10 0x2AE2CAE045C59EF4F63B SWAP4 GASPRICE 0xD9 SELFBALANCE 0xF POP LOG1 0xD7 PUSH15 0x64736F6C6343000811003360806040 MSTORE PUSH3 0xF4240 PUSH1 0x9 SSTORE CALLVALUE DUP1 ISZERO PUSH3 0x18 JUMPI PUSH1 0x0 DUP1 REVERT JUMPDEST POP PUSH1 0x40 MLOAD PUSH3 0x233A CODESIZE SUB DUP1 PUSH3 0x233A DUP4 CODECOPY DUP2 DUP2 ADD PUSH1 0x40 MSTORE DUP2 ADD SWAP1 PUSH3 0x3E SWAP2 SWAP1 PUSH3 0x132 JUMP JUMPDEST DUP2 PUSH1 0x6 PUSH1 0x0 PUSH2 0x100 EXP DUP2 SLOAD DUP2 PUSH20 0xFFFFFFFFFFFFFFFFFFFFFFFFFFFFFFFFFFFFFFFF MUL NOT AND SWAP1 DUP4 PUSH20 0xFFFFFFFFFFFFFFFFFFFFFFFFFFFFFFFFFFFFFFFF AND MUL OR SWAP1 SSTORE POP DUP1 PUSH1 0x7 PUSH1 0x0 PUSH2 0x100 EXP DUP2 SLOAD DUP2 PUSH20 0xFFFFFFFFFFFFFFFFFFFFFFFFFFFFFFFFFFFFFFFF MUL NOT AND SWAP1 DUP4 PUSH20 0xFFFFFFFFFFFFFFFFFFFFFFFFFFFFFFFFFFFFFFFF AND MUL OR SWAP1 SSTORE POP POP POP PUSH3 0x179 JUMP JUMPDEST PUSH1 0x0 DUP1 REVERT JUMPDEST PUSH1 0x0 PUSH20 0xFFFFFFFFFFFFFFFFFFFFFFFFFFFFFFFFFFFFFFFF DUP3 AND SWAP1 POP SWAP2 SWAP1 POP JUMP JUMPDEST PUSH1 0x0 PUSH3 0xFA DUP3 PUSH3 0xCD JUMP JUMPDEST SWAP1 POP SWAP2 SWAP1 POP JUMP JUMPDEST PUSH3 0x10C DUP2 PUSH3 0xED JUMP JUMPDEST DUP2 EQ PUSH3 0x118 JUMPI PUSH1 0x0 DUP1 REVERT JUMPDEST POP JUMP JUMPDEST PUSH1 0x0 DUP2 MLOAD SWAP1 POP PUSH3 0x12C DUP2 PUSH3 0x101 JUMP JUMPDEST SWAP3 SWAP2 POP POP JUMP JUMPDEST PUSH1 0x0 DUP1 PUSH1 0x40 DUP4 DUP6 SUB SLT ISZERO PUSH3 0x14C JUMPI PUSH3 0x14B PUSH3 0xC8 JUMP JUMPDEST JUMPDEST PUSH1 0x0 PUSH3 0x15C DUP6 DUP3 DUP7 ADD PUSH3 0x11B JUMP JUMPDEST SWAP3 POP POP PUSH1 0x20 PUSH3 0x16F DUP6 DUP3 DUP7 ADD PUSH3 0x11B JUMP JUMPDEST SWAP2 POP POP SWAP3 POP SWAP3 SWAP1 POP JUMP JUMPDEST PUSH2 0x21B1 DUP1 PUSH3 0x189 PUSH1 0x0 CODECOPY PUSH1 0x0 RETURN INVALID PUSH1 0x80 PUSH1 0x40 MSTORE PUSH1 0x4 CALLDATASIZE LT PUSH2 0xA6 JUMPI PUSH1 0x0 CALLDATALOAD PUSH1 0xE0 SHR DUP1 PUSH4 0x930235B4 GT PUSH2 0x64 JUMPI DUP1 PUSH4 0x930235B4 EQ PUSH2 0x1CB JUMPI DUP1 PUSH4 0xA10C8A97 EQ PUSH2 0x1F6 JUMPI DUP1 PUSH4 0xB672BDCB EQ PUSH2 0x221 JUMPI DUP1 PUSH4 0xB69EF8A8 EQ PUSH2 0x25E JUMPI DUP1 PUSH4 0xD9A87535 EQ PUSH2 0x289 JUMPI DUP1 PUSH4 0xFD591902 EQ PUSH2 0x2C6 JUMPI PUSH2 0xA6 JUMP JUMPDEST DUP1 PUSH3 0xAD808F EQ PUSH2 0xAB JUMPI DUP1 PUSH4 0x1292A282 EQ PUSH2 0xE8 JUMPI DUP1 PUSH4 0x273F868E EQ PUSH2 0x111 JUMPI DUP1 PUSH4 0x28F4694C EQ PUSH2 0x13A JUMPI DUP1 PUSH4 0x455772D2 EQ PUSH2 0x163 JUMPI DUP1 PUSH4 0x8C468CD4 EQ PUSH2 0x18E JUMPI JUMPDEST PUSH1 0x0 DUP1 REVERT JUMPDEST CALLVALUE DUP1 ISZERO PUSH2 0xB7 JUMPI PUSH1 0x0 DUP1 REVERT JUMPDEST POP PUSH2 0xD2 PUSH1 0x4 DUP1 CALLDATASIZE SUB DUP2 ADD SWAP1 PUSH2 0xCD SWAP2 SWAP1 PUSH2 0x14EF JUMP JUMPDEST PUSH2 0x2E2 JUMP JUMPDEST PUSH1 0x40 MLOAD PUSH2 0xDF SWAP2 SWAP1 PUSH2 0x15AC JUMP JUMPDEST PUSH1 0x40 MLOAD DUP1 SWAP2 SUB SWAP1 RETURN JUMPDEST CALLVALUE DUP1 ISZERO PUSH2 0xF4 JUMPI PUSH1 0x0 DUP1 REVERT JUMPDEST POP PUSH2 0x10F PUSH1 0x4 DUP1 CALLDATASIZE SUB DUP2 ADD SWAP1 PUSH2 0x10A SWAP2 SWAP1 PUSH2 0x14EF JUMP JUMPDEST PUSH2 0x4B4 JUMP JUMPDEST STOP JUMPDEST CALLVALUE DUP1 ISZERO PUSH2 0x11D JUMPI PUSH1 0x0 DUP1 REVERT JUMPDEST POP PUSH2 0x138 PUSH1 0x4 DUP1 CALLDATASIZE SUB DUP2 ADD SWAP1 PUSH2 0x133 SWAP2 SWAP1 PUSH2 0x14EF JUMP JUMPDEST PUSH2 0x6DE JUMP JUMPDEST STOP JUMPDEST CALLVALUE DUP1 ISZERO PUSH2 0x146 JUMPI PUSH1 0x0 DUP1 REVERT JUMPDEST POP PUSH2 0x161 PUSH1 0x4 DUP1 CALLDATASIZE SUB DUP2 ADD SWAP1 PUSH2 0x15C SWAP2 SWAP1 PUSH2 0x14EF JUMP JUMPDEST PUSH2 0x902 JUMP JUMPDEST STOP JUMPDEST CALLVALUE DUP1 ISZERO PUSH2 0x16F JUMPI PUSH1 0x0 DUP1 REVERT JUMPDEST POP PUSH2 0x178 PUSH2 0xCE0 JUMP JUMPDEST PUSH1 0x40 MLOAD PUSH2 0x185 SWAP2 SWAP1 PUSH2 0x168C JUMP JUMPDEST PUSH1 0x40 MLOAD DUP1 SWAP2 SUB SWAP1 RETURN JUMPDEST CALLVALUE DUP1 ISZERO PUSH2 0x19A JUMPI PUSH1 0x0 DUP1 REVERT JUMPDEST POP PUSH2 0x1B5 PUSH1 0x4 DUP1 CALLDATASIZE SUB DUP2 ADD SWAP1 PUSH2 0x1B0 SWAP2 SWAP1 PUSH2 0x16E4 JUMP JUMPDEST PUSH2 0xE00 JUMP JUMPDEST PUSH1 0x40 MLOAD PUSH2 0x1C2 SWAP2 SWAP1 PUSH2 0x1720 JUMP JUMPDEST PUSH1 0x40 MLOAD DUP1 SWAP2 SUB SWAP1 RETURN JUMPDEST CALLVALUE DUP1 ISZERO PUSH2 0x1D7 JUMPI PUSH1 0x0 DUP1 REVERT JUMPDEST POP PUSH2 0x1E0 PUSH2 0xE3F JUMP JUMPDEST PUSH1 0x40 MLOAD PUSH2 0x1ED SWAP2 SWAP1 PUSH2 0x1720 JUMP JUMPDEST PUSH1 0x40 MLOAD DUP1 SWAP2 SUB SWAP1 RETURN JUMPDEST CALLVALUE DUP1 ISZERO PUSH2 0x202 JUMPI PUSH1 0x0 DUP1 REVERT JUMPDEST POP PUSH2 0x20B PUSH2 0xE65 JUMP JUMPDEST PUSH1 0x40 MLOAD PUSH2 0x218 SWAP2 SWAP1 PUSH2 0x174A JUMP JUMPDEST PUSH1 0x40 MLOAD DUP1 SWAP2 SUB SWAP1 RETURN JUMPDEST CALLVALUE DUP1 ISZERO PUSH2 0x22D JUMPI PUSH1 0x0 DUP1 REVERT JUMPDEST POP PUSH2 0x248 PUSH1 0x4 DUP1 CALLDATASIZE SUB DUP2 ADD SWAP1 PUSH2 0x243 SWAP2 SWAP1 PUSH2 0x14EF JUMP JUMPDEST PUSH2 0xE6B JUMP JUMPDEST PUSH1 0x40 MLOAD PUSH2 0x255 SWAP2 SWAP1 PUSH2 0x174A JUMP JUMPDEST PUSH1 0x40 MLOAD DUP1 SWAP2 SUB SWAP1 RETURN JUMPDEST CALLVALUE DUP1 ISZERO PUSH2 0x26A JUMPI PUSH1 0x0 DUP1 REVERT JUMPDEST POP PUSH2 0x273 PUSH2 0xEB4 JUMP JUMPDEST PUSH1 0x40 MLOAD PUSH2 0x280 SWAP2 SWAP1 PUSH2 0x174A JUMP JUMPDEST PUSH1 0x40 MLOAD DUP1 SWAP2 SUB SWAP1 RETURN JUMPDEST CALLVALUE DUP1 ISZERO PUSH2 0x295 JUMPI PUSH1 0x0 DUP1 REVERT JUMPDEST POP PUSH2 0x2B0 PUSH1 0x4 DUP1 CALLDATASIZE SUB DUP2 ADD SWAP1 PUSH2 0x2AB SWAP2 SWAP1 PUSH2 0x14EF JUMP JUMPDEST PUSH2 0xEBA JUMP JUMPDEST PUSH1 0x40 MLOAD PUSH2 0x2BD SWAP2 SWAP1 PUSH2 0x174A JUMP JUMPDEST PUSH1 0x40 MLOAD DUP1 SWAP2 SUB SWAP1 RETURN JUMPDEST PUSH2 0x2E0 PUSH1 0x4 DUP1 CALLDATASIZE SUB DUP2 ADD SWAP1 PUSH2 0x2DB SWAP2 SWAP1 PUSH2 0x17CA JUMP JUMPDEST PUSH2 0xF06 JUMP JUMPDEST STOP JUMPDEST PUSH1 0x60 CALLER PUSH1 0x6 PUSH1 0x0 SWAP1 SLOAD SWAP1 PUSH2 0x100 EXP SWAP1 DIV PUSH20 0xFFFFFFFFFFFFFFFFFFFFFFFFFFFFFFFFFFFFFFFF AND PUSH20 0xFFFFFFFFFFFFFFFFFFFFFFFFFFFFFFFFFFFFFFFF AND PUSH4 0x39AC7A08 DUP3 PUSH1 0x7 PUSH1 0x0 SWAP1 SLOAD SWAP1 PUSH2 0x100 EXP SWAP1 DIV PUSH20 0xFFFFFFFFFFFFFFFFFFFFFFFFFFFFFFFFFFFFFFFF AND PUSH1 0x40 MLOAD DUP4 PUSH4 0xFFFFFFFF AND PUSH1 0xE0 SHL DUP2 MSTORE PUSH1 0x4 ADD PUSH2 0x364 SWAP3 SWAP2 SWAP1 PUSH2 0x1817 JUMP JUMPDEST PUSH1 0x20 PUSH1 0x40 MLOAD DUP1 DUP4 SUB DUP2 DUP7 GAS STATICCALL ISZERO DUP1 ISZERO PUSH2 0x381 JUMPI RETURNDATASIZE PUSH1 0x0 DUP1 RETURNDATACOPY RETURNDATASIZE PUSH1 0x0 REVERT JUMPDEST POP POP POP POP PUSH1 0x40 MLOAD RETURNDATASIZE PUSH1 0x1F NOT PUSH1 0x1F DUP3 ADD AND DUP3 ADD DUP1 PUSH1 0x40 MSTORE POP DUP2 ADD SWAP1 PUSH2 0x3A5 SWAP2 SWAP1 PUSH2 0x1878 JUMP JUMPDEST PUSH2 0x3E4 JUMPI PUSH1 0x40 MLOAD PUSH32 0x8C379A000000000000000000000000000000000000000000000000000000000 DUP2 MSTORE PUSH1 0x4 ADD PUSH2 0x3DB SWAP1 PUSH2 0x18F1 JUMP JUMPDEST PUSH1 0x40 MLOAD DUP1 SWAP2 SUB SWAP1 REVERT JUMPDEST PUSH1 0x4 PUSH1 0x0 DUP5 PUSH20 0xFFFFFFFFFFFFFFFFFFFFFFFFFFFFFFFFFFFFFFFF AND PUSH20 0xFFFFFFFFFFFFFFFFFFFFFFFFFFFFFFFFFFFFFFFF AND DUP2 MSTORE PUSH1 0x20 ADD SWAP1 DUP2 MSTORE PUSH1 0x20 ADD PUSH1 0x0 KECCAK256 DUP1 SLOAD PUSH2 0x42E SWAP1 PUSH2 0x1940 JUMP JUMPDEST DUP1 PUSH1 0x1F ADD PUSH1 0x20 DUP1 SWAP2 DIV MUL PUSH1 0x20 ADD PUSH1 0x40 MLOAD SWAP1 DUP2 ADD PUSH1 0x40 MSTORE DUP1 SWAP3 SWAP2 SWAP1 DUP2 DUP2 MSTORE PUSH1 0x20 ADD DUP3 DUP1 SLOAD PUSH2 0x45A SWAP1 PUSH2 0x1940 JUMP JUMPDEST DUP1 ISZERO PUSH2 0x4A7 JUMPI DUP1 PUSH1 0x1F LT PUSH2 0x47C JUMPI PUSH2 0x100 DUP1 DUP4 SLOAD DIV MUL DUP4 MSTORE SWAP2 PUSH1 0x20 ADD SWAP2 PUSH2 0x4A7 JUMP JUMPDEST DUP3 ADD SWAP2 SWAP1 PUSH1 0x0 MSTORE PUSH1 0x20 PUSH1 0x0 KECCAK256 SWAP1 JUMPDEST DUP2 SLOAD DUP2 MSTORE SWAP1 PUSH1 0x1 ADD SWAP1 PUSH1 0x20 ADD DUP1 DUP4 GT PUSH2 0x48A JUMPI DUP3 SWAP1 SUB PUSH1 0x1F AND DUP3 ADD SWAP2 JUMPDEST POP POP POP POP POP SWAP2 POP POP SWAP2 SWAP1 POP JUMP JUMPDEST CALLER PUSH1 0x7 PUSH1 0x0 SWAP1 SLOAD SWAP1 PUSH2 0x100 EXP SWAP1 DIV PUSH20 0xFFFFFFFFFFFFFFFFFFFFFFFFFFFFFFFFFFFFFFFF AND PUSH20 0xFFFFFFFFFFFFFFFFFFFFFFFFFFFFFFFFFFFFFFFF AND DUP2 PUSH20 0xFFFFFFFFFFFFFFFFFFFFFFFFFFFFFFFFFFFFFFFF AND EQ PUSH2 0x545 JUMPI PUSH1 0x40 MLOAD PUSH32 0x8C379A000000000000000000000000000000000000000000000000000000000 DUP2 MSTORE PUSH1 0x4 ADD PUSH2 0x53C SWAP1 PUSH2 0x19BD JUMP JUMPDEST PUSH1 0x40 MLOAD DUP1 SWAP2 SUB SWAP1 REVERT JUMPDEST PUSH1 0x7 PUSH1 0x0 SWAP1 SLOAD SWAP1 PUSH2 0x100 EXP SWAP1 DIV PUSH20 0xFFFFFFFFFFFFFFFFFFFFFFFFFFFFFFFFFFFFFFFF AND PUSH20 0xFFFFFFFFFFFFFFFFFFFFFFFFFFFFFFFFFFFFFFFF AND CALLER PUSH20 0xFFFFFFFFFFFFFFFFFFFFFFFFFFFFFFFFFFFFFFFF AND EQ PUSH2 0x5D5 JUMPI PUSH1 0x40 MLOAD PUSH32 0x8C379A000000000000000000000000000000000000000000000000000000000 DUP2 MSTORE PUSH1 0x4 ADD PUSH2 0x5CC SWAP1 PUSH2 0x1A4F JUMP JUMPDEST PUSH1 0x40 MLOAD DUP1 SWAP2 SUB SWAP1 REVERT JUMPDEST PUSH1 0x6 PUSH1 0x0 SWAP1 SLOAD SWAP1 PUSH2 0x100 EXP SWAP1 DIV PUSH20 0xFFFFFFFFFFFFFFFFFFFFFFFFFFFFFFFFFFFFFFFF AND PUSH20 0xFFFFFFFFFFFFFFFFFFFFFFFFFFFFFFFFFFFFFFFF AND PUSH4 0x9D58B15D PUSH1 0x7 PUSH1 0x0 SWAP1 SLOAD SWAP1 PUSH2 0x100 EXP SWAP1 DIV PUSH20 0xFFFFFFFFFFFFFFFFFFFFFFFFFFFFFFFFFFFFFFFF AND DUP5 PUSH1 0x40 MLOAD DUP4 PUSH4 0xFFFFFFFF AND PUSH1 0xE0 SHL DUP2 MSTORE PUSH1 0x4 ADD PUSH2 0x654 SWAP3 SWAP2 SWAP1 PUSH2 0x1817 JUMP JUMPDEST PUSH1 0x0 PUSH1 0x40 MLOAD DUP1 DUP4 SUB DUP2 PUSH1 0x0 DUP8 DUP1 EXTCODESIZE ISZERO DUP1 ISZERO PUSH2 0x66E JUMPI PUSH1 0x0 DUP1 REVERT JUMPDEST POP GAS CALL ISZERO DUP1 ISZERO PUSH2 0x682 JUMPI RETURNDATASIZE PUSH1 0x0 DUP1 RETURNDATACOPY RETURNDATASIZE PUSH1 0x0 REVERT JUMPDEST POP POP POP POP PUSH2 0x68F DUP3 PUSH2 0x12BD JUMP JUMPDEST PUSH1 0x1 PUSH1 0x0 CALLER PUSH20 0xFFFFFFFFFFFFFFFFFFFFFFFFFFFFFFFFFFFFFFFF AND PUSH20 0xFFFFFFFFFFFFFFFFFFFFFFFFFFFFFFFFFFFFFFFF AND DUP2 MSTORE PUSH1 0x20 ADD SWAP1 DUP2 MSTORE PUSH1 0x20 ADD PUSH1 0x0 KECCAK256 PUSH1 0x0 PUSH2 0x6DA SWAP2 SWAP1 PUSH2 0x1449 JUMP JUMPDEST POP POP JUMP JUMPDEST CALLER PUSH1 0x7 PUSH1 0x0 SWAP1 SLOAD SWAP1 PUSH2 0x100 EXP SWAP1 DIV PUSH20 0xFFFFFFFFFFFFFFFFFFFFFFFFFFFFFFFFFFFFFFFF AND PUSH20 0xFFFFFFFFFFFFFFFFFFFFFFFFFFFFFFFFFFFFFFFF AND DUP2 PUSH20 0xFFFFFFFFFFFFFFFFFFFFFFFFFFFFFFFFFFFFFFFF AND EQ PUSH2 0x76F JUMPI PUSH1 0x40 MLOAD PUSH32 0x8C379A000000000000000000000000000000000000000000000000000000000 DUP2 MSTORE PUSH1 0x4 ADD PUSH2 0x766 SWAP1 PUSH2 0x19BD JUMP JUMPDEST PUSH1 0x40 MLOAD DUP1 SWAP2 SUB SWAP1 REVERT JUMPDEST PUSH1 0x3 PUSH1 0x0 DUP4 PUSH20 0xFFFFFFFFFFFFFFFFFFFFFFFFFFFFFFFFFFFFFFFF AND PUSH20 0xFFFFFFFFFFFFFFFFFFFFFFFFFFFFFFFFFFFFFFFF AND DUP2 MSTORE PUSH1 0x20 ADD SWAP1 DUP2 MSTORE PUSH1 0x20 ADD PUSH1 0x0 KECCAK256 PUSH1 0x0 SWAP1 SLOAD SWAP1 PUSH2 0x100 EXP SWAP1 DIV PUSH1 0xFF AND PUSH2 0x7FB JUMPI PUSH1 0x40 MLOAD PUSH32 0x8C379A000000000000000000000000000000000000000000000000000000000 DUP2 MSTORE PUSH1 0x4 ADD PUSH2 0x7F2 SWAP1 PUSH2 0x1ABB JUMP JUMPDEST PUSH1 0x40 MLOAD DUP1 SWAP2 SUB SWAP1 REVERT JUMPDEST PUSH1 0x0 PUSH1 0x3 PUSH1 0x0 DUP5 PUSH20 0xFFFFFFFFFFFFFFFFFFFFFFFFFFFFFFFFFFFFFFFF AND PUSH20 0xFFFFFFFFFFFFFFFFFFFFFFFFFFFFFFFFFFFFFFFF AND DUP2 MSTORE PUSH1 0x20 ADD SWAP1 DUP2 MSTORE PUSH1 0x20 ADD PUSH1 0x0 KECCAK256 PUSH1 0x0 PUSH2 0x100 EXP DUP2 SLOAD DUP2 PUSH1 0xFF MUL NOT AND SWAP1 DUP4 ISZERO ISZERO MUL OR SWAP1 SSTORE POP PUSH1 0x1 PUSH1 0x2 PUSH1 0x0 CALLER PUSH20 0xFFFFFFFFFFFFFFFFFFFFFFFFFFFFFFFFFFFFFFFF AND PUSH20 0xFFFFFFFFFFFFFFFFFFFFFFFFFFFFFFFFFFFFFFFF AND DUP2 MSTORE PUSH1 0x20 ADD SWAP1 DUP2 MSTORE PUSH1 0x20 ADD PUSH1 0x0 KECCAK256 PUSH1 0x0 DUP3 DUP3 SLOAD PUSH2 0x8A3 SWAP2 SWAP1 PUSH2 0x1B14 JUMP JUMPDEST SWAP3 POP POP DUP2 SWAP1 SSTORE POP PUSH2 0x8B3 DUP3 PUSH2 0x12BD JUMP JUMPDEST PUSH1 0x1 PUSH1 0x0 CALLER PUSH20 0xFFFFFFFFFFFFFFFFFFFFFFFFFFFFFFFFFFFFFFFF AND PUSH20 0xFFFFFFFFFFFFFFFFFFFFFFFFFFFFFFFFFFFFFFFF AND DUP2 MSTORE PUSH1 0x20 ADD SWAP1 DUP2 MSTORE PUSH1 0x20 ADD PUSH1 0x0 KECCAK256 PUSH1 0x0 PUSH2 0x8FE SWAP2 SWAP1 PUSH2 0x1449 JUMP JUMPDEST POP POP JUMP JUMPDEST CALLER PUSH1 0x6 PUSH1 0x0 SWAP1 SLOAD SWAP1 PUSH2 0x100 EXP SWAP1 DIV PUSH20 0xFFFFFFFFFFFFFFFFFFFFFFFFFFFFFFFFFFFFFFFF AND PUSH20 0xFFFFFFFFFFFFFFFFFFFFFFFFFFFFFFFFFFFFFFFF AND PUSH4 0x39AC7A08 DUP3 PUSH1 0x7 PUSH1 0x0 SWAP1 SLOAD SWAP1 PUSH2 0x100 EXP SWAP1 DIV PUSH20 0xFFFFFFFFFFFFFFFFFFFFFFFFFFFFFFFFFFFFFFFF AND PUSH1 0x40 MLOAD DUP4 PUSH4 0xFFFFFFFF AND PUSH1 0xE0 SHL DUP2 MSTORE PUSH1 0x4 ADD PUSH2 0x982 SWAP3 SWAP2 SWAP1 PUSH2 0x1817 JUMP JUMPDEST PUSH1 0x20 PUSH1 0x40 MLOAD DUP1 DUP4 SUB DUP2 DUP7 GAS STATICCALL ISZERO DUP1 ISZERO PUSH2 0x99F JUMPI RETURNDATASIZE PUSH1 0x0 DUP1 RETURNDATACOPY RETURNDATASIZE PUSH1 0x0 REVERT JUMPDEST POP POP POP POP PUSH1 0x40 MLOAD RETURNDATASIZE PUSH1 0x1F NOT PUSH1 0x1F DUP3 ADD AND DUP3 ADD DUP1 PUSH1 0x40 MSTORE POP DUP2 ADD SWAP1 PUSH2 0x9C3 SWAP2 SWAP1 PUSH2 0x1878 JUMP JUMPDEST PUSH2 0xA02 JUMPI PUSH1 0x40 MLOAD PUSH32 0x8C379A000000000000000000000000000000000000000000000000000000000 DUP2 MSTORE PUSH1 0x4 ADD PUSH2 0x9F9 SWAP1 PUSH2 0x18F1 JUMP JUMPDEST PUSH1 0x40 MLOAD DUP1 SWAP2 SUB SWAP1 REVERT JUMPDEST PUSH1 0x3 PUSH1 0x0 DUP4 PUSH20 0xFFFFFFFFFFFFFFFFFFFFFFFFFFFFFFFFFFFFFFFF AND PUSH20 0xFFFFFFFFFFFFFFFFFFFFFFFFFFFFFFFFFFFFFFFF AND DUP2 MSTORE PUSH1 0x20 ADD SWAP1 DUP2 MSTORE PUSH1 0x20 ADD PUSH1 0x0 KECCAK256 PUSH1 0x0 SWAP1 SLOAD SWAP1 PUSH2 0x100 EXP SWAP1 DIV PUSH1 0xFF AND PUSH2 0xA8E JUMPI PUSH1 0x40 MLOAD PUSH32 0x8C379A000000000000000000000000000000000000000000000000000000000 DUP2 MSTORE PUSH1 0x4 ADD PUSH2 0xA85 SWAP1 PUSH2 0x1BA3 JUMP JUMPDEST PUSH1 0x40 MLOAD DUP1 SWAP2 SUB SWAP1 REVERT JUMPDEST PUSH1 0x0 DUP1 JUMPDEST PUSH1 0x1 PUSH1 0x0 DUP6 PUSH20 0xFFFFFFFFFFFFFFFFFFFFFFFFFFFFFFFFFFFFFFFF AND PUSH20 0xFFFFFFFFFFFFFFFFFFFFFFFFFFFFFFFFFFFFFFFF AND DUP2 MSTORE PUSH1 0x20 ADD SWAP1 DUP2 MSTORE PUSH1 0x20 ADD PUSH1 0x0 KECCAK256 DUP1 SLOAD SWAP1 POP DUP2 LT ISZERO PUSH2 0xBA2 JUMPI CALLER PUSH20 0xFFFFFFFFFFFFFFFFFFFFFFFFFFFFFFFFFFFFFFFF AND PUSH1 0x1 PUSH1 0x0 DUP7 PUSH20 0xFFFFFFFFFFFFFFFFFFFFFFFFFFFFFFFFFFFFFFFF AND PUSH20 0xFFFFFFFFFFFFFFFFFFFFFFFFFFFFFFFFFFFFFFFF AND DUP2 MSTORE PUSH1 0x20 ADD SWAP1 DUP2 MSTORE PUSH1 0x20 ADD PUSH1 0x0 KECCAK256 DUP3 DUP2 SLOAD DUP2 LT PUSH2 0xB44 JUMPI PUSH2 0xB43 PUSH2 0x1BC3 JUMP JUMPDEST JUMPDEST SWAP1 PUSH1 0x0 MSTORE PUSH1 0x20 PUSH1 0x0 KECCAK256 ADD PUSH1 0x0 SWAP1 SLOAD SWAP1 PUSH2 0x100 EXP SWAP1 DIV PUSH20 0xFFFFFFFFFFFFFFFFFFFFFFFFFFFFFFFFFFFFFFFF AND PUSH20 0xFFFFFFFFFFFFFFFFFFFFFFFFFFFFFFFFFFFFFFFF AND SUB PUSH2 0xB8F JUMPI PUSH1 0x1 SWAP2 POP JUMPDEST DUP1 DUP1 PUSH2 0xB9A SWAP1 PUSH2 0x1BF2 JUMP JUMPDEST SWAP2 POP POP PUSH2 0xA92 JUMP JUMPDEST POP DUP1 ISZERO PUSH2 0xBE4 JUMPI PUSH1 0x40 MLOAD PUSH32 0x8C379A000000000000000000000000000000000000000000000000000000000 DUP2 MSTORE PUSH1 0x4 ADD PUSH2 0xBDB SWAP1 PUSH2 0x1C86 JUMP JUMPDEST PUSH1 0x40 MLOAD DUP1 SWAP2 SUB SWAP1 REVERT JUMPDEST PUSH1 0x1 PUSH1 0x0 DUP5 PUSH20 0xFFFFFFFFFFFFFFFFFFFFFFFFFFFFFFFFFFFFFFFF AND PUSH20 0xFFFFFFFFFFFFFFFFFFFFFFFFFFFFFFFFFFFFFFFF AND DUP2 MSTORE PUSH1 0x20 ADD SWAP1 DUP2 MSTORE PUSH1 0x20 ADD PUSH1 0x0 KECCAK256 CALLER SWAP1 DUP1 PUSH1 0x1 DUP2 SLOAD ADD DUP1 DUP3 SSTORE DUP1 SWAP2 POP POP PUSH1 0x1 SWAP1 SUB SWAP1 PUSH1 0x0 MSTORE PUSH1 0x20 PUSH1 0x0 KECCAK256 ADD PUSH1 0x0 SWAP1 SWAP2 SWAP1 SWAP2 SWAP1 SWAP2 PUSH2 0x100 EXP DUP2 SLOAD DUP2 PUSH20 0xFFFFFFFFFFFFFFFFFFFFFFFFFFFFFFFFFFFFFFFF MUL NOT AND SWAP1 DUP4 PUSH20 0xFFFFFFFFFFFFFFFFFFFFFFFFFFFFFFFFFFFFFFFF AND MUL OR SWAP1 SSTORE POP PUSH1 0x1 PUSH1 0x2 PUSH1 0x0 DUP6 PUSH20 0xFFFFFFFFFFFFFFFFFFFFFFFFFFFFFFFFFFFFFFFF AND PUSH20 0xFFFFFFFFFFFFFFFFFFFFFFFFFFFFFFFFFFFFFFFF AND DUP2 MSTORE PUSH1 0x20 ADD SWAP1 DUP2 MSTORE PUSH1 0x20 ADD PUSH1 0x0 KECCAK256 PUSH1 0x0 DUP3 DUP3 SLOAD PUSH2 0xCD4 SWAP2 SWAP1 PUSH2 0x1CA6 JUMP JUMPDEST SWAP3 POP POP DUP2 SWAP1 SSTORE POP POP POP POP JUMP JUMPDEST PUSH1 0x60 CALLER PUSH1 0x7 PUSH1 0x0 SWAP1 SLOAD SWAP1 PUSH2 0x100 EXP SWAP1 DIV PUSH20 0xFFFFFFFFFFFFFFFFFFFFFFFFFFFFFFFFFFFFFFFF AND PUSH20 0xFFFFFFFFFFFFFFFFFFFFFFFFFFFFFFFFFFFFFFFF AND DUP2 PUSH20 0xFFFFFFFFFFFFFFFFFFFFFFFFFFFFFFFFFFFFFFFF AND EQ PUSH2 0xD73 JUMPI PUSH1 0x40 MLOAD PUSH32 0x8C379A000000000000000000000000000000000000000000000000000000000 DUP2 MSTORE PUSH1 0x4 ADD PUSH2 0xD6A SWAP1 PUSH2 0x19BD JUMP JUMPDEST PUSH1 0x40 MLOAD DUP1 SWAP2 SUB SWAP1 REVERT JUMPDEST PUSH1 0x0 DUP1 SLOAD DUP1 PUSH1 0x20 MUL PUSH1 0x20 ADD PUSH1 0x40 MLOAD SWAP1 DUP2 ADD PUSH1 0x40 MSTORE DUP1 SWAP3 SWAP2 SWAP1 DUP2 DUP2 MSTORE PUSH1 0x20 ADD DUP3 DUP1 SLOAD DUP1 ISZERO PUSH2 0xDF5 JUMPI PUSH1 0x20 MUL DUP3 ADD SWAP2 SWAP1 PUSH1 0x0 MSTORE PUSH1 0x20 PUSH1 0x0 KECCAK256 SWAP1 JUMPDEST DUP2 PUSH1 0x0 SWAP1 SLOAD SWAP1 PUSH2 0x100 EXP SWAP1 DIV PUSH20 0xFFFFFFFFFFFFFFFFFFFFFFFFFFFFFFFFFFFFFFFF AND PUSH20 0xFFFFFFFFFFFFFFFFFFFFFFFFFFFFFFFFFFFFFFFF AND DUP2 MSTORE PUSH1 0x20 ADD SWAP1 PUSH1 0x1 ADD SWAP1 DUP1 DUP4 GT PUSH2 0xDAB JUMPI JUMPDEST POP POP POP POP POP SWAP2 POP POP SWAP1 JUMP JUMPDEST PUSH1 0x0 DUP2 DUP2 SLOAD DUP2 LT PUSH2 0xE10 JUMPI PUSH1 0x0 DUP1 REVERT JUMPDEST SWAP1 PUSH1 0x0 MSTORE PUSH1 0x20 PUSH1 0x0 KECCAK256 ADD PUSH1 0x0 SWAP2 POP SLOAD SWAP1 PUSH2 0x100 EXP SWAP1 DIV PUSH20 0xFFFFFFFFFFFFFFFFFFFFFFFFFFFFFFFFFFFFFFFF AND DUP2 JUMP JUMPDEST PUSH1 0x7 PUSH1 0x0 SWAP1 SLOAD SWAP1 PUSH2 0x100 EXP SWAP1 DIV PUSH20 0xFFFFFFFFFFFFFFFFFFFFFFFFFFFFFFFFFFFFFFFF AND DUP2 JUMP JUMPDEST PUSH1 0x9 SLOAD DUP2 JUMP JUMPDEST PUSH1 0x0 PUSH1 0x5 PUSH1 0x0 DUP4 PUSH20 0xFFFFFFFFFFFFFFFFFFFFFFFFFFFFFFFFFFFFFFFF AND PUSH20 0xFFFFFFFFFFFFFFFFFFFFFFFFFFFFFFFFFFFFFFFF AND DUP2 MSTORE PUSH1 0x20 ADD SWAP1 DUP2 MSTORE PUSH1 0x20 ADD PUSH1 0x0 KECCAK256 SLOAD SWAP1 POP SWAP2 SWAP1 POP JUMP JUMPDEST PUSH1 0x8 SLOAD DUP2 JUMP JUMPDEST PUSH1 0x0 PUSH1 0x1 PUSH1 0x0 DUP4 PUSH20 0xFFFFFFFFFFFFFFFFFFFFFFFFFFFFFFFFFFFFFFFF AND PUSH20 0xFFFFFFFFFFFFFFFFFFFFFFFFFFFFFFFFFFFFFFFF AND DUP2 MSTORE PUSH1 0x20 ADD SWAP1 DUP2 MSTORE PUSH1 0x20 ADD PUSH1 0x0 KECCAK256 DUP1 SLOAD SWAP1 POP SWAP1 POP SWAP2 SWAP1 POP JUMP JUMPDEST PUSH1 0x6 PUSH1 0x0 SWAP1 SLOAD SWAP1 PUSH2 0x100 EXP SWAP1 DIV PUSH20 0xFFFFFFFFFFFFFFFFFFFFFFFFFFFFFFFFFFFFFFFF AND PUSH20 0xFFFFFFFFFFFFFFFFFFFFFFFFFFFFFFFFFFFFFFFF AND PUSH4 0x39AC7A08 CALLER PUSH1 0x7 PUSH1 0x0 SWAP1 SLOAD SWAP1 PUSH2 0x100 EXP SWAP1 DIV PUSH20 0xFFFFFFFFFFFFFFFFFFFFFFFFFFFFFFFFFFFFFFFF AND PUSH1 0x40 MLOAD DUP4 PUSH4 0xFFFFFFFF AND PUSH1 0xE0 SHL DUP2 MSTORE PUSH1 0x4 ADD PUSH2 0xF85 SWAP3 SWAP2 SWAP1 PUSH2 0x1817 JUMP JUMPDEST PUSH1 0x20 PUSH1 0x40 MLOAD DUP1 DUP4 SUB DUP2 DUP7 GAS STATICCALL ISZERO DUP1 ISZERO PUSH2 0xFA2 JUMPI RETURNDATASIZE PUSH1 0x0 DUP1 RETURNDATACOPY RETURNDATASIZE PUSH1 0x0 REVERT JUMPDEST POP POP POP POP PUSH1 0x40 MLOAD RETURNDATASIZE PUSH1 0x1F NOT PUSH1 0x1F DUP3 ADD AND DUP3 ADD DUP1 PUSH1 0x40 MSTORE POP DUP2 ADD SWAP1 PUSH2 0xFC6 SWAP2 SWAP1 PUSH2 0x1878 JUMP JUMPDEST ISZERO PUSH2 0x1006 JUMPI PUSH1 0x40 MLOAD PUSH32 0x8C379A000000000000000000000000000000000000000000000000000000000 DUP2 MSTORE PUSH1 0x4 ADD PUSH2 0xFFD SWAP1 PUSH2 0x1D36 JUMP JUMPDEST PUSH1 0x40 MLOAD DUP1 SWAP2 SUB SWAP1 REVERT JUMPDEST PUSH1 0x3 PUSH1 0x0 CALLER PUSH20 0xFFFFFFFFFFFFFFFFFFFFFFFFFFFFFFFFFFFFFFFF AND PUSH20 0xFFFFFFFFFFFFFFFFFFFFFFFFFFFFFFFFFFFFFFFF AND DUP2 MSTORE PUSH1 0x20 ADD SWAP1 DUP2 MSTORE PUSH1 0x20 ADD PUSH1 0x0 KECCAK256 PUSH1 0x0 SWAP1 SLOAD SWAP1 PUSH2 0x100 EXP SWAP1 DIV PUSH1 0xFF AND ISZERO PUSH2 0x1093 JUMPI PUSH1 0x40 MLOAD PUSH32 0x8C379A000000000000000000000000000000000000000000000000000000000 DUP2 MSTORE PUSH1 0x4 ADD PUSH2 0x108A SWAP1 PUSH2 0x1DA2 JUMP JUMPDEST PUSH1 0x40 MLOAD DUP1 SWAP2 SUB SWAP1 REVERT JUMPDEST PUSH32 0xFFFFFFFFFFFFFFFFFFFFFFFFFFFFFFFFFFFFFFFFFFFFFFFFFFFFFFFFFFFFFFFD PUSH1 0x2 PUSH1 0x0 CALLER PUSH20 0xFFFFFFFFFFFFFFFFFFFFFFFFFFFFFFFFFFFFFFFF AND PUSH20 0xFFFFFFFFFFFFFFFFFFFFFFFFFFFFFFFFFFFFFFFF AND DUP2 MSTORE PUSH1 0x20 ADD SWAP1 DUP2 MSTORE PUSH1 0x20 ADD PUSH1 0x0 KECCAK256 SLOAD SGT PUSH2 0x1134 JUMPI PUSH1 0x40 MLOAD PUSH32 0x8C379A000000000000000000000000000000000000000000000000000000000 DUP2 MSTORE PUSH1 0x4 ADD PUSH2 0x112B SWAP1 PUSH2 0x1E0E JUMP JUMPDEST PUSH1 0x40 MLOAD DUP1 SWAP2 SUB SWAP1 REVERT JUMPDEST PUSH1 0x9 SLOAD CALLVALUE LT ISZERO PUSH2 0x1143 JUMPI PUSH1 0x0 DUP1 REVERT JUMPDEST CALLVALUE PUSH1 0x8 PUSH1 0x0 DUP3 DUP3 SLOAD PUSH2 0x1155 SWAP2 SWAP1 PUSH2 0x1E2E JUMP JUMPDEST SWAP3 POP POP DUP2 SWAP1 SSTORE POP DUP2 DUP2 PUSH1 0x4 PUSH1 0x0 CALLER PUSH20 0xFFFFFFFFFFFFFFFFFFFFFFFFFFFFFFFFFFFFFFFF AND PUSH20 0xFFFFFFFFFFFFFFFFFFFFFFFFFFFFFFFFFFFFFFFF AND DUP2 MSTORE PUSH1 0x20 ADD SWAP1 DUP2 MSTORE PUSH1 0x20 ADD PUSH1 0x0 KECCAK256 SWAP2 DUP3 PUSH2 0x11AA SWAP3 SWAP2 SWAP1 PUSH2 0x2048 JUMP JUMPDEST POP PUSH1 0x1 PUSH1 0x3 PUSH1 0x0 CALLER PUSH20 0xFFFFFFFFFFFFFFFFFFFFFFFFFFFFFFFFFFFFFFFF AND PUSH20 0xFFFFFFFFFFFFFFFFFFFFFFFFFFFFFFFFFFFFFFFF AND DUP2 MSTORE PUSH1 0x20 ADD SWAP1 DUP2 MSTORE PUSH1 0x20 ADD PUSH1 0x0 KECCAK256 PUSH1 0x0 PUSH2 0x100 EXP DUP2 SLOAD DUP2 PUSH1 0xFF MUL NOT AND SWAP1 DUP4 ISZERO ISZERO MUL OR SWAP1 SSTORE POP PUSH1 0x0 CALLER SWAP1 DUP1 PUSH1 0x1 DUP2 SLOAD ADD DUP1 DUP3 SSTORE DUP1 SWAP2 POP POP PUSH1 0x1 SWAP1 SUB SWAP1 PUSH1 0x0 MSTORE PUSH1 0x20 PUSH1 0x0 KECCAK256 ADD PUSH1 0x0 SWAP1 SWAP2 SWAP1 SWAP2 SWAP1 SWAP2 PUSH2 0x100 EXP DUP2 SLOAD DUP2 PUSH20 0xFFFFFFFFFFFFFFFFFFFFFFFFFFFFFFFFFFFFFFFF MUL NOT AND SWAP1 DUP4 PUSH20 0xFFFFFFFFFFFFFFFFFFFFFFFFFFFFFFFFFFFFFFFF AND MUL OR SWAP1 SSTORE POP PUSH4 0xF731400 TIMESTAMP PUSH2 0x1276 SWAP2 SWAP1 PUSH2 0x1E2E JUMP JUMPDEST PUSH1 0x5 PUSH1 0x0 CALLER PUSH20 0xFFFFFFFFFFFFFFFFFFFFFFFFFFFFFFFFFFFFFFFF AND PUSH20 0xFFFFFFFFFFFFFFFFFFFFFFFFFFFFFFFFFFFFFFFF AND DUP2 MSTORE PUSH1 0x20 ADD SWAP1 DUP2 MSTORE PUSH1 0x20 ADD PUSH1 0x0 KECCAK256 DUP2 SWAP1 SSTORE POP POP POP JUMP JUMPDEST PUSH1 0x0 JUMPDEST PUSH1 0x0 DUP1 SLOAD SWAP1 POP DUP2 LT ISZERO PUSH2 0x1352 JUMPI DUP2 PUSH20 0xFFFFFFFFFFFFFFFFFFFFFFFFFFFFFFFFFFFFFFFF AND PUSH1 0x0 DUP3 DUP2 SLOAD DUP2 LT PUSH2 0x12F8 JUMPI PUSH2 0x12F7 PUSH2 0x1BC3 JUMP JUMPDEST JUMPDEST SWAP1 PUSH1 0x0 MSTORE PUSH1 0x20 PUSH1 0x0 KECCAK256 ADD PUSH1 0x0 SWAP1 SLOAD SWAP1 PUSH2 0x100 EXP SWAP1 DIV PUSH20 0xFFFFFFFFFFFFFFFFFFFFFFFFFFFFFFFFFFFFFFFF AND PUSH20 0xFFFFFFFFFFFFFFFFFFFFFFFFFFFFFFFFFFFFFFFF AND SUB ISZERO PUSH2 0x1352 JUMPI DUP1 DUP1 PUSH2 0x134A SWAP1 PUSH2 0x1BF2 JUMP JUMPDEST SWAP2 POP POP PUSH2 0x12C0 JUMP JUMPDEST PUSH1 0x0 PUSH1 0x1 PUSH1 0x0 DUP1 SLOAD SWAP1 POP PUSH2 0x1366 SWAP2 SWAP1 PUSH2 0x2118 JUMP JUMPDEST DUP2 SLOAD DUP2 LT PUSH2 0x1377 JUMPI PUSH2 0x1376 PUSH2 0x1BC3 JUMP JUMPDEST JUMPDEST SWAP1 PUSH1 0x0 MSTORE PUSH1 0x20 PUSH1 0x0 KECCAK256 ADD PUSH1 0x0 SWAP1 SLOAD SWAP1 PUSH2 0x100 EXP SWAP1 DIV PUSH20 0xFFFFFFFFFFFFFFFFFFFFFFFFFFFFFFFFFFFFFFFF AND PUSH1 0x0 DUP3 DUP2 SLOAD DUP2 LT PUSH2 0x13B6 JUMPI PUSH2 0x13B5 PUSH2 0x1BC3 JUMP JUMPDEST JUMPDEST SWAP1 PUSH1 0x0 MSTORE PUSH1 0x20 PUSH1 0x0 KECCAK256 ADD PUSH1 0x0 PUSH2 0x100 EXP DUP2 SLOAD DUP2 PUSH20 0xFFFFFFFFFFFFFFFFFFFFFFFFFFFFFFFFFFFFFFFF MUL NOT AND SWAP1 DUP4 PUSH20 0xFFFFFFFFFFFFFFFFFFFFFFFFFFFFFFFFFFFFFFFF AND MUL OR SWAP1 SSTORE POP PUSH1 0x0 DUP1 SLOAD DUP1 PUSH2 0x1410 JUMPI PUSH2 0x140F PUSH2 0x214C JUMP JUMPDEST JUMPDEST PUSH1 0x1 SWAP1 SUB DUP2 DUP2 SWAP1 PUSH1 0x0 MSTORE PUSH1 0x20 PUSH1 0x0 KECCAK256 ADD PUSH1 0x0 PUSH2 0x100 EXP DUP2 SLOAD SWAP1 PUSH20 0xFFFFFFFFFFFFFFFFFFFFFFFFFFFFFFFFFFFFFFFF MUL NOT AND SWAP1 SSTORE SWAP1 SSTORE POP POP JUMP JUMPDEST POP DUP1 SLOAD PUSH1 0x0 DUP3 SSTORE SWAP1 PUSH1 0x0 MSTORE PUSH1 0x20 PUSH1 0x0 KECCAK256 SWAP1 DUP2 ADD SWAP1 PUSH2 0x1467 SWAP2 SWAP1 PUSH2 0x146A JUMP JUMPDEST POP JUMP JUMPDEST JUMPDEST DUP1 DUP3 GT ISZERO PUSH2 0x1483 JUMPI PUSH1 0x0 DUP2 PUSH1 0x0 SWAP1 SSTORE POP PUSH1 0x1 ADD PUSH2 0x146B JUMP JUMPDEST POP SWAP1 JUMP JUMPDEST PUSH1 0x0 DUP1 REVERT JUMPDEST PUSH1 0x0 DUP1 REVERT JUMPDEST PUSH1 0x0 PUSH20 0xFFFFFFFFFFFFFFFFFFFFFFFFFFFFFFFFFFFFFFFF DUP3 AND SWAP1 POP SWAP2 SWAP1 POP JUMP JUMPDEST PUSH1 0x0 PUSH2 0x14BC DUP3 PUSH2 0x1491 JUMP JUMPDEST SWAP1 POP SWAP2 SWAP1 POP JUMP JUMPDEST PUSH2 0x14CC DUP2 PUSH2 0x14B1 JUMP JUMPDEST DUP2 EQ PUSH2 0x14D7 JUMPI PUSH1 0x0 DUP1 REVERT JUMPDEST POP JUMP JUMPDEST PUSH1 0x0 DUP2 CALLDATALOAD SWAP1 POP PUSH2 0x14E9 DUP2 PUSH2 0x14C3 JUMP JUMPDEST SWAP3 SWAP2 POP POP JUMP JUMPDEST PUSH1 0x0 PUSH1 0x20 DUP3 DUP5 SUB SLT ISZERO PUSH2 0x1505 JUMPI PUSH2 0x1504 PUSH2 0x1487 JUMP JUMPDEST JUMPDEST PUSH1 0x0 PUSH2 0x1513 DUP5 DUP3 DUP6 ADD PUSH2 0x14DA JUMP JUMPDEST SWAP2 POP POP SWAP3 SWAP2 POP POP JUMP JUMPDEST PUSH1 0x0 DUP2 MLOAD SWAP1 POP SWAP2 SWAP1 POP JUMP JUMPDEST PUSH1 0x0 DUP3 DUP3 MSTORE PUSH1 0x20 DUP3 ADD SWAP1 POP SWAP3 SWAP2 POP POP JUMP JUMPDEST PUSH1 0x0 JUMPDEST DUP4 DUP2 LT ISZERO PUSH2 0x1556 JUMPI DUP1 DUP3 ADD MLOAD DUP2 DUP5 ADD MSTORE PUSH1 0x20 DUP2 ADD SWAP1 POP PUSH2 0x153B JUMP JUMPDEST PUSH1 0x0 DUP5 DUP5 ADD MSTORE POP POP POP POP JUMP JUMPDEST PUSH1 0x0 PUSH1 0x1F NOT PUSH1 0x1F DUP4 ADD AND SWAP1 POP SWAP2 SWAP1 POP JUMP JUMPDEST PUSH1 0x0 PUSH2 0x157E DUP3 PUSH2 0x151C JUMP JUMPDEST PUSH2 0x1588 DUP2 DUP6 PUSH2 0x1527 JUMP JUMPDEST SWAP4 POP PUSH2 0x1598 DUP2 DUP6 PUSH1 0x20 DUP7 ADD PUSH2 0x1538 JUMP JUMPDEST PUSH2 0x15A1 DUP2 PUSH2 0x1562 JUMP JUMPDEST DUP5 ADD SWAP2 POP POP SWAP3 SWAP2 POP POP JUMP JUMPDEST PUSH1 0x0 PUSH1 0x20 DUP3 ADD SWAP1 POP DUP2 DUP2 SUB PUSH1 0x0 DUP4 ADD MSTORE PUSH2 0x15C6 DUP2 DUP5 PUSH2 0x1573 JUMP JUMPDEST SWAP1 POP SWAP3 SWAP2 POP POP JUMP JUMPDEST PUSH1 0x0 DUP2 MLOAD SWAP1 POP SWAP2 SWAP1 POP JUMP JUMPDEST PUSH1 0x0 DUP3 DUP3 MSTORE PUSH1 0x20 DUP3 ADD SWAP1 POP SWAP3 SWAP2 POP POP JUMP JUMPDEST PUSH1 0x0 DUP2 SWAP1 POP PUSH1 0x20 DUP3 ADD SWAP1 POP SWAP2 SWAP1 POP JUMP JUMPDEST PUSH2 0x1603 DUP2 PUSH2 0x14B1 JUMP JUMPDEST DUP3 MSTORE POP POP JUMP JUMPDEST PUSH1 0x0 PUSH2 0x1615 DUP4 DUP4 PUSH2 0x15FA JUMP JUMPDEST PUSH1 0x20 DUP4 ADD SWAP1 POP SWAP3 SWAP2 POP POP JUMP JUMPDEST PUSH1 0x0 PUSH1 0x20 DUP3 ADD SWAP1 POP SWAP2 SWAP1 POP JUMP JUMPDEST PUSH1 0x0 PUSH2 0x1639 DUP3 PUSH2 0x15CE JUMP JUMPDEST PUSH2 0x1643 DUP2 DUP6 PUSH2 0x15D9 JUMP JUMPDEST SWAP4 POP PUSH2 0x164E DUP4 PUSH2 0x15EA JUMP JUMPDEST DUP1 PUSH1 0x0 JUMPDEST DUP4 DUP2 LT ISZERO PUSH2 0x167F JUMPI DUP2 MLOAD PUSH2 0x1666 DUP9 DUP3 PUSH2 0x1609 JUMP JUMPDEST SWAP8 POP PUSH2 0x1671 DUP4 PUSH2 0x1621 JUMP JUMPDEST SWAP3 POP POP PUSH1 0x1 DUP2 ADD SWAP1 POP PUSH2 0x1652 JUMP JUMPDEST POP DUP6 SWAP4 POP POP POP POP SWAP3 SWAP2 POP POP JUMP JUMPDEST PUSH1 0x0 PUSH1 0x20 DUP3 ADD SWAP1 POP DUP2 DUP2 SUB PUSH1 0x0 DUP4 ADD MSTORE PUSH2 0x16A6 DUP2 DUP5 PUSH2 0x162E JUMP JUMPDEST SWAP1 POP SWAP3 SWAP2 POP POP JUMP JUMPDEST PUSH1 0x0 DUP2 SWAP1 POP SWAP2 SWAP1 POP JUMP JUMPDEST PUSH2 0x16C1 DUP2 PUSH2 0x16AE JUMP JUMPDEST DUP2 EQ PUSH2 0x16CC JUMPI PUSH1 0x0 DUP1 REVERT JUMPDEST POP JUMP JUMPDEST PUSH1 0x0 DUP2 CALLDATALOAD SWAP1 POP PUSH2 0x16DE DUP2 PUSH2 0x16B8 JUMP JUMPDEST SWAP3 SWAP2 POP POP JUMP JUMPDEST PUSH1 0x0 PUSH1 0x20 DUP3 DUP5 SUB SLT ISZERO PUSH2 0x16FA JUMPI PUSH2 0x16F9 PUSH2 0x1487 JUMP JUMPDEST JUMPDEST PUSH1 0x0 PUSH2 0x1708 DUP5 DUP3 DUP6 ADD PUSH2 0x16CF JUMP JUMPDEST SWAP2 POP POP SWAP3 SWAP2 POP POP JUMP JUMPDEST PUSH2 0x171A DUP2 PUSH2 0x14B1 JUMP JUMPDEST DUP3 MSTORE POP POP JUMP JUMPDEST PUSH1 0x0 PUSH1 0x20 DUP3 ADD SWAP1 POP PUSH2 0x1735 PUSH1 0x0 DUP4 ADD DUP5 PUSH2 0x1711 JUMP JUMPDEST SWAP3 SWAP2 POP POP JUMP JUMPDEST PUSH2 0x1744 DUP2 PUSH2 0x16AE JUMP JUMPDEST DUP3 MSTORE POP POP JUMP JUMPDEST PUSH1 0x0 PUSH1 0x20 DUP3 ADD SWAP1 POP PUSH2 0x175F PUSH1 0x0 DUP4 ADD DUP5 PUSH2 0x173B JUMP JUMPDEST SWAP3 SWAP2 POP POP JUMP JUMPDEST PUSH1 0x0 DUP1 REVERT JUMPDEST PUSH1 0x0 DUP1 REVERT JUMPDEST PUSH1 0x0 DUP1 REVERT JUMPDEST PUSH1 0x0 DUP1 DUP4 PUSH1 0x1F DUP5 ADD SLT PUSH2 0x178A JUMPI PUSH2 0x1789 PUSH2 0x1765 JUMP JUMPDEST JUMPDEST DUP3 CALLDATALOAD SWAP1 POP PUSH8 0xFFFFFFFFFFFFFFFF DUP2 GT ISZERO PUSH2 0x17A7 JUMPI PUSH2 0x17A6 PUSH2 0x176A JUMP JUMPDEST JUMPDEST PUSH1 0x20 DUP4 ADD SWAP2 POP DUP4 PUSH1 0x1 DUP3 MUL DUP4 ADD GT ISZERO PUSH2 0x17C3 JUMPI PUSH2 0x17C2 PUSH2 0x176F JUMP JUMPDEST JUMPDEST SWAP3 POP SWAP3 SWAP1 POP JUMP JUMPDEST PUSH1 0x0 DUP1 PUSH1 0x20 DUP4 DUP6 SUB SLT ISZERO PUSH2 0x17E1 JUMPI PUSH2 0x17E0 PUSH2 0x1487 JUMP JUMPDEST JUMPDEST PUSH1 0x0 DUP4 ADD CALLDATALOAD PUSH8 0xFFFFFFFFFFFFFFFF DUP2 GT ISZERO PUSH2 0x17FF JUMPI PUSH2 0x17FE PUSH2 0x148C JUMP JUMPDEST JUMPDEST PUSH2 0x180B DUP6 DUP3 DUP7 ADD PUSH2 0x1774 JUMP JUMPDEST SWAP3 POP SWAP3 POP POP SWAP3 POP SWAP3 SWAP1 POP JUMP JUMPDEST PUSH1 0x0 PUSH1 0x40 DUP3 ADD SWAP1 POP PUSH2 0x182C PUSH1 0x0 DUP4 ADD DUP6 PUSH2 0x1711 JUMP JUMPDEST PUSH2 0x1839 PUSH1 0x20 DUP4 ADD DUP5 PUSH2 0x1711 JUMP JUMPDEST SWAP4 SWAP3 POP POP POP JUMP JUMPDEST PUSH1 0x0 DUP2 ISZERO ISZERO SWAP1 POP SWAP2 SWAP1 POP JUMP JUMPDEST PUSH2 0x1855 DUP2 PUSH2 0x1840 JUMP JUMPDEST DUP2 EQ PUSH2 0x1860 JUMPI PUSH1 0x0 DUP1 REVERT JUMPDEST POP JUMP JUMPDEST PUSH1 0x0 DUP2 MLOAD SWAP1 POP PUSH2 0x1872 DUP2 PUSH2 0x184C JUMP JUMPDEST SWAP3 SWAP2 POP POP JUMP JUMPDEST PUSH1 0x0 PUSH1 0x20 DUP3 DUP5 SUB SLT ISZERO PUSH2 0x188E JUMPI PUSH2 0x188D PUSH2 0x1487 JUMP JUMPDEST JUMPDEST PUSH1 0x0 PUSH2 0x189C DUP5 DUP3 DUP6 ADD PUSH2 0x1863 JUMP JUMPDEST SWAP2 POP POP SWAP3 SWAP2 POP POP JUMP JUMPDEST PUSH32 0x526571756972656420746F2062652061206D656D656265720000000000000000 PUSH1 0x0 DUP3 ADD MSTORE POP JUMP JUMPDEST PUSH1 0x0 PUSH2 0x18DB PUSH1 0x18 DUP4 PUSH2 0x1527 JUMP JUMPDEST SWAP2 POP PUSH2 0x18E6 DUP3 PUSH2 0x18A5 JUMP JUMPDEST PUSH1 0x20 DUP3 ADD SWAP1 POP SWAP2 SWAP1 POP JUMP JUMPDEST PUSH1 0x0 PUSH1 0x20 DUP3 ADD SWAP1 POP DUP2 DUP2 SUB PUSH1 0x0 DUP4 ADD MSTORE PUSH2 0x190A DUP2 PUSH2 0x18CE JUMP JUMPDEST SWAP1 POP SWAP2 SWAP1 POP JUMP JUMPDEST PUSH32 0x4E487B7100000000000000000000000000000000000000000000000000000000 PUSH1 0x0 MSTORE PUSH1 0x22 PUSH1 0x4 MSTORE PUSH1 0x24 PUSH1 0x0 REVERT JUMPDEST PUSH1 0x0 PUSH1 0x2 DUP3 DIV SWAP1 POP PUSH1 0x1 DUP3 AND DUP1 PUSH2 0x1958 JUMPI PUSH1 0x7F DUP3 AND SWAP2 POP JUMPDEST PUSH1 0x20 DUP3 LT DUP2 SUB PUSH2 0x196B JUMPI PUSH2 0x196A PUSH2 0x1911 JUMP JUMPDEST JUMPDEST POP SWAP2 SWAP1 POP JUMP JUMPDEST PUSH32 0x4163636573732044656E69656400000000000000000000000000000000000000 PUSH1 0x0 DUP3 ADD MSTORE POP JUMP JUMPDEST PUSH1 0x0 PUSH2 0x19A7 PUSH1 0xD DUP4 PUSH2 0x1527 JUMP JUMPDEST SWAP2 POP PUSH2 0x19B2 DUP3 PUSH2 0x1971 JUMP JUMPDEST PUSH1 0x20 DUP3 ADD SWAP1 POP SWAP2 SWAP1 POP JUMP JUMPDEST PUSH1 0x0 PUSH1 0x20 DUP3 ADD SWAP1 POP DUP2 DUP2 SUB PUSH1 0x0 DUP4 ADD MSTORE PUSH2 0x19D6 DUP2 PUSH2 0x199A JUMP JUMPDEST SWAP1 POP SWAP2 SWAP1 POP JUMP JUMPDEST PUSH32 0x54686973206973206E6F7420746865206D656D62657220506F6F6C2041646472 PUSH1 0x0 DUP3 ADD MSTORE PUSH32 0x6573730000000000000000000000000000000000000000000000000000000000 PUSH1 0x20 DUP3 ADD MSTORE POP JUMP JUMPDEST PUSH1 0x0 PUSH2 0x1A39 PUSH1 0x23 DUP4 PUSH2 0x1527 JUMP JUMPDEST SWAP2 POP PUSH2 0x1A44 DUP3 PUSH2 0x19DD JUMP JUMPDEST PUSH1 0x40 DUP3 ADD SWAP1 POP SWAP2 SWAP1 POP JUMP JUMPDEST PUSH1 0x0 PUSH1 0x20 DUP3 ADD SWAP1 POP DUP2 DUP2 SUB PUSH1 0x0 DUP4 ADD MSTORE PUSH2 0x1A68 DUP2 PUSH2 0x1A2C JUMP JUMPDEST SWAP1 POP SWAP2 SWAP1 POP JUMP JUMPDEST PUSH32 0x496E76616C6964206170706C6963616E74206164647265737300000000000000 PUSH1 0x0 DUP3 ADD MSTORE POP JUMP JUMPDEST PUSH1 0x0 PUSH2 0x1AA5 PUSH1 0x19 DUP4 PUSH2 0x1527 JUMP JUMPDEST SWAP2 POP PUSH2 0x1AB0 DUP3 PUSH2 0x1A6F JUMP JUMPDEST PUSH1 0x20 DUP3 ADD SWAP1 POP SWAP2 SWAP1 POP JUMP JUMPDEST PUSH1 0x0 PUSH1 0x20 DUP3 ADD SWAP1 POP DUP2 DUP2 SUB PUSH1 0x0 DUP4 ADD MSTORE PUSH2 0x1AD4 DUP2 PUSH2 0x1A98 JUMP JUMPDEST SWAP1 POP SWAP2 SWAP1 POP JUMP JUMPDEST PUSH1 0x0 DUP2 SWAP1 POP SWAP2 SWAP1 POP JUMP JUMPDEST PUSH32 0x4E487B7100000000000000000000000000000000000000000000000000000000 PUSH1 0x0 MSTORE PUSH1 0x11 PUSH1 0x4 MSTORE PUSH1 0x24 PUSH1 0x0 REVERT JUMPDEST PUSH1 0x0 PUSH2 0x1B1F DUP3 PUSH2 0x1ADB JUMP JUMPDEST SWAP2 POP PUSH2 0x1B2A DUP4 PUSH2 0x1ADB JUMP JUMPDEST SWAP3 POP DUP3 DUP3 SUB SWAP1 POP DUP2 DUP2 SLT PUSH1 0x0 DUP5 SLT AND DUP3 DUP3 SGT PUSH1 0x0 DUP6 SLT ISZERO AND OR ISZERO PUSH2 0x1B51 JUMPI PUSH2 0x1B50 PUSH2 0x1AE5 JUMP JUMPDEST JUMPDEST SWAP3 SWAP2 POP POP JUMP JUMPDEST PUSH32 0x4E6F742061206170706C6963616E740000000000000000000000000000000000 PUSH1 0x0 DUP3 ADD MSTORE POP JUMP JUMPDEST PUSH1 0x0 PUSH2 0x1B8D PUSH1 0xF DUP4 PUSH2 0x1527 JUMP JUMPDEST SWAP2 POP PUSH2 0x1B98 DUP3 PUSH2 0x1B57 JUMP JUMPDEST PUSH1 0x20 DUP3 ADD SWAP1 POP SWAP2 SWAP1 POP JUMP JUMPDEST PUSH1 0x0 PUSH1 0x20 DUP3 ADD SWAP1 POP DUP2 DUP2 SUB PUSH1 0x0 DUP4 ADD MSTORE PUSH2 0x1BBC DUP2 PUSH2 0x1B80 JUMP JUMPDEST SWAP1 POP SWAP2 SWAP1 POP JUMP JUMPDEST PUSH32 0x4E487B7100000000000000000000000000000000000000000000000000000000 PUSH1 0x0 MSTORE PUSH1 0x32 PUSH1 0x4 MSTORE PUSH1 0x24 PUSH1 0x0 REVERT JUMPDEST PUSH1 0x0 PUSH2 0x1BFD DUP3 PUSH2 0x16AE JUMP JUMPDEST SWAP2 POP PUSH32 0xFFFFFFFFFFFFFFFFFFFFFFFFFFFFFFFFFFFFFFFFFFFFFFFFFFFFFFFFFFFFFFFF DUP3 SUB PUSH2 0x1C2F JUMPI PUSH2 0x1C2E PUSH2 0x1AE5 JUMP JUMPDEST JUMPDEST PUSH1 0x1 DUP3 ADD SWAP1 POP SWAP2 SWAP1 POP JUMP JUMPDEST PUSH32 0x53656E64657220616C726561647920766F746564000000000000000000000000 PUSH1 0x0 DUP3 ADD MSTORE POP JUMP JUMPDEST PUSH1 0x0 PUSH2 0x1C70 PUSH1 0x14 DUP4 PUSH2 0x1527 JUMP JUMPDEST SWAP2 POP PUSH2 0x1C7B DUP3 PUSH2 0x1C3A JUMP JUMPDEST PUSH1 0x20 DUP3 ADD SWAP1 POP SWAP2 SWAP1 POP JUMP JUMPDEST PUSH1 0x0 PUSH1 0x20 DUP3 ADD SWAP1 POP DUP2 DUP2 SUB PUSH1 0x0 DUP4 ADD MSTORE PUSH2 0x1C9F DUP2 PUSH2 0x1C63 JUMP JUMPDEST SWAP1 POP SWAP2 SWAP1 POP JUMP JUMPDEST PUSH1 0x0 PUSH2 0x1CB1 DUP3 PUSH2 0x1ADB JUMP JUMPDEST SWAP2 POP PUSH2 0x1CBC DUP4 PUSH2 0x1ADB JUMP JUMPDEST SWAP3 POP DUP3 DUP3 ADD SWAP1 POP DUP3 DUP2 SLT ISZERO PUSH1 0x0 DUP4 SLT AND DUP4 DUP3 SLT PUSH1 0x0 DUP5 SLT ISZERO AND OR ISZERO PUSH2 0x1CE4 JUMPI PUSH2 0x1CE3 PUSH2 0x1AE5 JUMP JUMPDEST JUMPDEST SWAP3 SWAP2 POP POP JUMP JUMPDEST PUSH32 0x416C726561647920616374697665206D656D6265720000000000000000000000 PUSH1 0x0 DUP3 ADD MSTORE POP JUMP JUMPDEST PUSH1 0x0 PUSH2 0x1D20 PUSH1 0x15 DUP4 PUSH2 0x1527 JUMP JUMPDEST SWAP2 POP PUSH2 0x1D2B DUP3 PUSH2 0x1CEA JUMP JUMPDEST PUSH1 0x20 DUP3 ADD SWAP1 POP SWAP2 SWAP1 POP JUMP JUMPDEST PUSH1 0x0 PUSH1 0x20 DUP3 ADD SWAP1 POP DUP2 DUP2 SUB PUSH1 0x0 DUP4 ADD MSTORE PUSH2 0x1D4F DUP2 PUSH2 0x1D13 JUMP JUMPDEST SWAP1 POP SWAP2 SWAP1 POP JUMP JUMPDEST PUSH32 0x416C726561647920616374697665206170706C6963616E740000000000000000 PUSH1 0x0 DUP3 ADD MSTORE POP JUMP JUMPDEST PUSH1 0x0 PUSH2 0x1D8C PUSH1 0x18 DUP4 PUSH2 0x1527 JUMP JUMPDEST SWAP2 POP PUSH2 0x1D97 DUP3 PUSH2 0x1D56 JUMP JUMPDEST PUSH1 0x20 DUP3 ADD SWAP1 POP SWAP2 SWAP1 POP JUMP JUMPDEST PUSH1 0x0 PUSH1 0x20 DUP3 ADD SWAP1 POP DUP2 DUP2 SUB PUSH1 0x0 DUP4 ADD MSTORE PUSH2 0x1DBB DUP2 PUSH2 0x1D7F JUMP JUMPDEST SWAP1 POP SWAP2 SWAP1 POP JUMP JUMPDEST PUSH32 0x6163636F756E742072656A656374656400000000000000000000000000000000 PUSH1 0x0 DUP3 ADD MSTORE POP JUMP JUMPDEST PUSH1 0x0 PUSH2 0x1DF8 PUSH1 0x10 DUP4 PUSH2 0x1527 JUMP JUMPDEST SWAP2 POP PUSH2 0x1E03 DUP3 PUSH2 0x1DC2 JUMP JUMPDEST PUSH1 0x20 DUP3 ADD SWAP1 POP SWAP2 SWAP1 POP JUMP JUMPDEST PUSH1 0x0 PUSH1 0x20 DUP3 ADD SWAP1 POP DUP2 DUP2 SUB PUSH1 0x0 DUP4 ADD MSTORE PUSH2 0x1E27 DUP2 PUSH2 0x1DEB JUMP JUMPDEST SWAP1 POP SWAP2 SWAP1 POP JUMP JUMPDEST PUSH1 0x0 PUSH2 0x1E39 DUP3 PUSH2 0x16AE JUMP JUMPDEST SWAP2 POP PUSH2 0x1E44 DUP4 PUSH2 0x16AE JUMP JUMPDEST SWAP3 POP DUP3 DUP3 ADD SWAP1 POP DUP1 DUP3 GT ISZERO PUSH2 0x1E5C JUMPI PUSH2 0x1E5B PUSH2 0x1AE5 JUMP JUMPDEST JUMPDEST SWAP3 SWAP2 POP POP JUMP JUMPDEST PUSH1 0x0 DUP3 SWAP1 POP SWAP3 SWAP2 POP POP JUMP JUMPDEST PUSH32 0x4E487B7100000000000000000000000000000000000000000000000000000000 PUSH1 0x0 MSTORE PUSH1 0x41 PUSH1 0x4 MSTORE PUSH1 0x24 PUSH1 0x0 REVERT JUMPDEST PUSH1 0x0 DUP2 SWAP1 POP DUP2 PUSH1 0x0 MSTORE PUSH1 0x20 PUSH1 0x0 KECCAK256 SWAP1 POP SWAP2 SWAP1 POP JUMP JUMPDEST PUSH1 0x0 PUSH1 0x20 PUSH1 0x1F DUP4 ADD DIV SWAP1 POP SWAP2 SWAP1 POP JUMP JUMPDEST PUSH1 0x0 DUP3 DUP3 SHL SWAP1 POP SWAP3 SWAP2 POP POP JUMP JUMPDEST PUSH1 0x0 PUSH1 0x8 DUP4 MUL PUSH2 0x1EFE PUSH32 0xFFFFFFFFFFFFFFFFFFFFFFFFFFFFFFFFFFFFFFFFFFFFFFFFFFFFFFFFFFFFFFFF DUP3 PUSH2 0x1EC1 JUMP JUMPDEST PUSH2 0x1F08 DUP7 DUP4 PUSH2 0x1EC1 JUMP JUMPDEST SWAP6 POP DUP1 NOT DUP5 AND SWAP4 POP DUP1 DUP7 AND DUP5 OR SWAP3 POP POP POP SWAP4 SWAP3 POP POP POP JUMP JUMPDEST PUSH1 0x0 DUP2 SWAP1 POP SWAP2 SWAP1 POP JUMP JUMPDEST PUSH1 0x0 PUSH2 0x1F45 PUSH2 0x1F40 PUSH2 0x1F3B DUP5 PUSH2 0x16AE JUMP JUMPDEST PUSH2 0x1F20 JUMP JUMPDEST PUSH2 0x16AE JUMP JUMPDEST SWAP1 POP SWAP2 SWAP1 POP JUMP JUMPDEST PUSH1 0x0 DUP2 SWAP1 POP SWAP2 SWAP1 POP JUMP JUMPDEST PUSH2 0x1F5F DUP4 PUSH2 0x1F2A JUMP JUMPDEST PUSH2 0x1F73 PUSH2 0x1F6B DUP3 PUSH2 0x1F4C JUMP JUMPDEST DUP5 DUP5 SLOAD PUSH2 0x1ECE JUMP JUMPDEST DUP3 SSTORE POP POP POP POP JUMP JUMPDEST PUSH1 0x0 SWAP1 JUMP JUMPDEST PUSH2 0x1F88 PUSH2 0x1F7B JUMP JUMPDEST PUSH2 0x1F93 DUP2 DUP5 DUP5 PUSH2 0x1F56 JUMP JUMPDEST POP POP POP JUMP JUMPDEST JUMPDEST DUP2 DUP2 LT ISZERO PUSH2 0x1FB7 JUMPI PUSH2 0x1FAC PUSH1 0x0 DUP3 PUSH2 0x1F80 JUMP JUMPDEST PUSH1 0x1 DUP2 ADD SWAP1 POP PUSH2 0x1F99 JUMP JUMPDEST POP POP JUMP JUMPDEST PUSH1 0x1F DUP3 GT ISZERO PUSH2 0x1FFC JUMPI PUSH2 0x1FCD DUP2 PUSH2 0x1E9C JUMP JUMPDEST PUSH2 0x1FD6 DUP5 PUSH2 0x1EB1 JUMP JUMPDEST DUP2 ADD PUSH1 0x20 DUP6 LT ISZERO PUSH2 0x1FE5 JUMPI DUP2 SWAP1 POP JUMPDEST PUSH2 0x1FF9 PUSH2 0x1FF1 DUP6 PUSH2 0x1EB1 JUMP JUMPDEST DUP4 ADD DUP3 PUSH2 0x1F98 JUMP JUMPDEST POP POP JUMPDEST POP POP POP JUMP JUMPDEST PUSH1 0x0 DUP3 DUP3 SHR SWAP1 POP SWAP3 SWAP2 POP POP JUMP JUMPDEST PUSH1 0x0 PUSH2 0x201F PUSH1 0x0 NOT DUP5 PUSH1 0x8 MUL PUSH2 0x2001 JUMP JUMPDEST NOT DUP1 DUP4 AND SWAP2 POP POP SWAP3 SWAP2 POP POP JUMP JUMPDEST PUSH1 0x0 PUSH2 0x2038 DUP4 DUP4 PUSH2 0x200E JUMP JUMPDEST SWAP2 POP DUP3 PUSH1 0x2 MUL DUP3 OR SWAP1 POP SWAP3 SWAP2 POP POP JUMP JUMPDEST PUSH2 0x2052 DUP4 DUP4 PUSH2 0x1E62 JUMP JUMPDEST PUSH8 0xFFFFFFFFFFFFFFFF DUP2 GT ISZERO PUSH2 0x206B JUMPI PUSH2 0x206A PUSH2 0x1E6D JUMP JUMPDEST JUMPDEST PUSH2 0x2075 DUP3 SLOAD PUSH2 0x1940 JUMP JUMPDEST PUSH2 0x2080 DUP3 DUP3 DUP6 PUSH2 0x1FBB JUMP JUMPDEST PUSH1 0x0 PUSH1 0x1F DUP4 GT PUSH1 0x1 DUP2 EQ PUSH2 0x20AF JUMPI PUSH1 0x0 DUP5 ISZERO PUSH2 0x209D JUMPI DUP3 DUP8 ADD CALLDATALOAD SWAP1 POP JUMPDEST PUSH2 0x20A7 DUP6 DUP3 PUSH2 0x202C JUMP JUMPDEST DUP7 SSTORE POP PUSH2 0x210F JUMP JUMPDEST PUSH1 0x1F NOT DUP5 AND PUSH2 0x20BD DUP7 PUSH2 0x1E9C JUMP JUMPDEST PUSH1 0x0 JUMPDEST DUP3 DUP2 LT ISZERO PUSH2 0x20E5 JUMPI DUP5 DUP10 ADD CALLDATALOAD DUP3 SSTORE PUSH1 0x1 DUP3 ADD SWAP2 POP PUSH1 0x20 DUP6 ADD SWAP5 POP PUSH1 0x20 DUP2 ADD SWAP1 POP PUSH2 0x20C0 JUMP JUMPDEST DUP7 DUP4 LT ISZERO PUSH2 0x2102 JUMPI DUP5 DUP10 ADD CALLDATALOAD PUSH2 0x20FE PUSH1 0x1F DUP10 AND DUP3 PUSH2 0x200E JUMP JUMPDEST DUP4 SSTORE POP JUMPDEST PUSH1 0x1 PUSH1 0x2 DUP9 MUL ADD DUP9 SSTORE POP POP POP JUMPDEST POP POP POP POP POP POP POP JUMP JUMPDEST PUSH1 0x0 PUSH2 0x2123 DUP3 PUSH2 0x16AE JUMP JUMPDEST SWAP2 POP PUSH2 0x212E DUP4 PUSH2 0x16AE JUMP JUMPDEST SWAP3 POP DUP3 DUP3 SUB SWAP1 POP DUP2 DUP2 GT ISZERO PUSH2 0x2146 JUMPI PUSH2 0x2145 PUSH2 0x1AE5 JUMP JUMPDEST JUMPDEST SWAP3 SWAP2 POP POP JUMP JUMPDEST PUSH32 0x4E487B7100000000000000000000000000000000000000000000000000000000 PUSH1 0x0 MSTORE PUSH1 0x31 PUSH1 0x4 MSTORE PUSH1 0x24 PUSH1 0x0 REVERT INVALID LOG2 PUSH5 0x6970667358 0x22 SLT KECCAK256 DELEGATECALL 0xBF 0xD 0x28 0xC0 CREATE2 0xE9 DIV SAR POP PUSH15 0x8D7F2AFB55816294BC34846F488114 0x4C SGT 0xF6 MSTORE PUSH8 0x264736F6C634300 ADDMOD GT STOP CALLER "},"gasEstimates":{"creation":{"codeDepositCost":"1509000","executionCost":"infinite","totalCost":"infinite"},"external":{"admitApplicant(address)":"infinite","applicantPoolAddress()":"2558","creator()":"2538","dismissMemberReport(address)":"3097","getApplicants()":"infinite","getMemberCount()":"2468","getMemberRep(address)":"741","getMemberReports(address)":"infinite","getMembers()":"infinite","highlightReport(address,string)":"3333","increaseMemberRep(address)":"infinite","isMember(address)":"2905","longSummary()":"infinite","memberActive(address)":"2890","memberPoints(address)":"2880","members(uint256)":"5067","name()":"infinite","projects(uint256)":"5024","rejectApplicant(address)":"infinite","reportMember(address,string)":"1020","shortSummary()":"infinite","userToMemberUp(address)":"infinite"}},"methodIdentifiers":{"admitApplicant(address)":"1ee503fd","applicantPoolAddress()":"af1fca09","creator()":"02d05d3f","dismissMemberReport(address)":"cef025ac","getApplicants()":"455772d2","getMemberCount()":"997072f7","getMemberRep(address)":"146b551d","getMemberReports(address)":"9e5f59f9","getMembers()":"9eab5253","highlightReport(address,string)":"15866836","increaseMemberRep(address)":"9a4d383e","isMember(address)":"a230c524","longSummary()":"9c0ab105","memberActive(address)":"25ec527c","memberPoints(address)":"b3253f13","members(uint256)":"5daf08ca","name()":"06fdde03","projects(uint256)":"107046bd","rejectApplicant(address)":"273f868e","reportMember(address,string)":"70586013","shortSummary()":"ca505a5b","userToMemberUp(address)":"e1889876"}},"storageLayout":{"storage":[{"astId":765,"contract":"MemberPool.sol:MemberPool","label":"name","offset":0,"slot":"0","type":"t_string_storage"},{"astId":767,"contract":"MemberPool.sol:MemberPool","label":"shortSummary","offset":0,"slot":"1","type":"t_string_storage"},{"astId":769,"contract":"MemberPool.sol:MemberPool","label":"longSummary","offset":0,"slot":"2","type":"t_string_storage"},{"astId":772,"contract":"MemberPool.sol:MemberPool","label":"members","offset":0,"slot":"3","type":"t_array(t_address)dyn_storage"},{"astId":776,"contract":"MemberPool.sol:MemberPool","label":"memberActive","offset":0,"slot":"4","type":"t_mapping(t_address,t_bool)"},{"astId":779,"contract":"MemberPool.sol:MemberPool","label":"projects","offset":0,"slot":"5","type":"t_array(t_address)dyn_storage"},{"astId":783,"contract":"MemberPool.sol:MemberPool","label":"userToMemberUp","offset":0,"slot":"6","type":"t_mapping(t_address,t_address)"},{"astId":787,"contract":"MemberPool.sol:MemberPool","label":"memberPoints","offset":0,"slot":"7","type":"t_mapping(t_address,t_int256)"},{"astId":789,"contract":"MemberPool.sol:MemberPool","label":"applicantPoolAddress","offset":0,"slot":"8","type":"t_address"},{"astId":791,"contract":"MemberPool.sol:MemberPool","label":"creator","offset":0,"slot":"9","type":"t_address"}],"types":{"t_address":{"encoding":"inplace","label":"address","numberOfBytes":"20"},"t_array(t_address)dyn_storage":{"base":"t_address","encoding":"dynamic_array","label":"address[]","numberOfBytes":"32"},"t_bool":{"encoding":"inplace","label":"bool","numberOfBytes":"1"},"t_int256":{"encoding":"inplace","label":"int256","numberOfBytes":"32"},"t_mapping(t_address,t_address)":{"encoding":"mapping","key":"t_address","label":"mapping(address => address)","numberOfBytes":"32","value":"t_address"},"t_mapping(t_address,t_bool)":{"encoding":"mapping","key":"t_address","label":"mapping(address => bool)","numberOfBytes":"32","value":"t_bool"},"t_mapping(t_address,t_int256)":{"encoding":"mapping","key":"t_address","label":"mapping(address => int256)","numberOfBytes":"32","value":"t_int256"},"t_string_storage":{"encoding":"bytes","label":"string","numberOfBytes":"32"}}},"userdoc":{"kind":"user","methods":{},"version":1}}