{"abi":[{"inputs":[],"stateMutability":"nonpayable","type":"constructor"},{"anonymous":false,"inputs":[{"indexed":false,"internalType":"address","name":"sender","type":"address"},{"indexed":false,"internalType":"address","name":"pool","type":"address"}],"name":"MemberPoolCreated","type":"event"},{"inputs":[{"internalType":"string","name":"name","type":"string"}],"name":"createMemberPool","outputs":[],"stateMutability":"nonpayable","type":"function"},{"inputs":[],"name":"getMemberPools","outputs":[{"internalType":"address[]","name":"","type":"address[]"}],"stateMutability":"view","type":"function"},{"inputs":[],"name":"owner","outputs":[{"internalType":"address","name":"","type":"address"}],"stateMutability":"view","type":"function"},{"inputs":[{"internalType":"uint256","name":"","type":"uint256"}],"name":"pools","outputs":[{"internalType":"address","name":"","type":"address"}],"stateMutability":"view","type":"function"}],"devdoc":{"kind":"dev","methods":{},"version":1},"evm":{"assembly":"    /* \"MemberPoolFactory.sol\":191:1143  contract MemberPoolFactory is NoDelegateCall {... */\n  mstore(0x40, 0xc0)\n    /* \"MemberPoolFactory.sol\":402:507  constructor() {... */\n  callvalue\n  dup1\n  iszero\n  tag_1\n  jumpi\n  0x00\n  dup1\n  revert\ntag_1:\n  pop\n    /* \"lib/NoDelegateCall.sol\":604:608   */\n  address\n    /* \"lib/NoDelegateCall.sol\":585:609   */\n  0xffffffffffffffffffffffffffffffffffffffff\n  and\n  0x80\n  dup2\n  0xffffffffffffffffffffffffffffffffffffffff\n  and\n  dup2\n  mstore\n  pop\n  pop\n    /* \"MemberPoolFactory.sol\":435:445  msg.sender */\n  caller\n    /* \"MemberPoolFactory.sol\":427:432  owner */\n  0x00\n  dup1\n    /* \"MemberPoolFactory.sol\":427:445  owner = msg.sender */\n  0x0100\n  exp\n  dup2\n  sload\n  dup2\n  0xffffffffffffffffffffffffffffffffffffffff\n  mul\n  not\n  and\n  swap1\n  dup4\n  0xffffffffffffffffffffffffffffffffffffffff\n  and\n  mul\n  or\n  swap1\n  sstore\n  pop\n    /* \"MemberPoolFactory.sol\":483:498  new MemberMap() */\n  mload(0x40)\n  tag_6\n  swap1\n  tag_7\n  jump\t// in\ntag_6:\n  mload(0x40)\n  dup1\n  swap2\n  sub\n  swap1\n  0x00\n  create\n  dup1\n  iszero\n  dup1\n  iszero\n  tag_8\n  jumpi\n  returndatasize\n  0x00\n  dup1\n  returndatacopy\n  revert(0x00, returndatasize)\ntag_8:\n  pop\n    /* \"MemberPoolFactory.sol\":456:499  memberMapAddress = address(new MemberMap()) */\n  0xffffffffffffffffffffffffffffffffffffffff\n  and\n  0xa0\n  dup2\n  0xffffffffffffffffffffffffffffffffffffffff\n  and\n  dup2\n  mstore\n  pop\n  pop\n    /* \"MemberPoolFactory.sol\":191:1143  contract MemberPoolFactory is NoDelegateCall {... */\n  jump(tag_9)\ntag_7:\n  dataSize(sub_1)\n  dup1\n  dataOffset(sub_1)\n  dup4\n  codecopy\n  add\n  swap1\n  jump\t// out\ntag_9:\n  mload(0x80)\n  mload(0xa0)\n  codecopy(0x00, dataOffset(sub_0), dataSize(sub_0))\n  0x00\n  assignImmutable(\"0x83e0c3649a48c74cec30dabd19f5dba5fcfbf7b93036c21b948ffc65174a2704\")\n  0x00\n  assignImmutable(\"0xc188f18e75b82a2126438825d5b1474b240600ee888a81fcefa05cf1b4c30b2a\")\n  return(0x00, dataSize(sub_0))\nstop\n\nsub_0: assembly {\n        /* \"MemberPoolFactory.sol\":191:1143  contract MemberPoolFactory is NoDelegateCall {... */\n      mstore(0x40, 0x80)\n      callvalue\n      dup1\n      iszero\n      tag_1\n      jumpi\n      0x00\n      dup1\n      revert\n    tag_1:\n      pop\n      jumpi(tag_2, lt(calldatasize, 0x04))\n      shr(0xe0, calldataload(0x00))\n      dup1\n      0x2845a591\n      eq\n      tag_3\n      jumpi\n      dup1\n      0x5dd6ba66\n      eq\n      tag_4\n      jumpi\n      dup1\n      0x8da5cb5b\n      eq\n      tag_5\n      jumpi\n      dup1\n      0xac4afa38\n      eq\n      tag_6\n      jumpi\n    tag_2:\n      0x00\n      dup1\n      revert\n        /* \"MemberPoolFactory.sol\":1044:1140  function getMemberPools() public view returns (address[] memory) {... */\n    tag_3:\n      tag_7\n      tag_8\n      jump\t// in\n    tag_7:\n      mload(0x40)\n      tag_9\n      swap2\n      swap1\n      tag_10\n      jump\t// in\n    tag_9:\n      mload(0x40)\n      dup1\n      swap2\n      sub\n      swap1\n      return\n        /* \"MemberPoolFactory.sol\":515:1036  function createMemberPool(string memory name) public noDelegateCall {... */\n    tag_4:\n      tag_11\n      0x04\n      dup1\n      calldatasize\n      sub\n      dup2\n      add\n      swap1\n      tag_12\n      swap2\n      swap1\n      tag_13\n      jump\t// in\n    tag_12:\n      tag_14\n      jump\t// in\n    tag_11:\n      stop\n        /* \"MemberPoolFactory.sol\":303:323  address public owner */\n    tag_5:\n      tag_15\n      tag_16\n      jump\t// in\n    tag_15:\n      mload(0x40)\n      tag_17\n      swap2\n      swap1\n      tag_18\n      jump\t// in\n    tag_17:\n      mload(0x40)\n      dup1\n      swap2\n      sub\n      swap1\n      return\n        /* \"MemberPoolFactory.sol\":330:352  address[] public pools */\n    tag_6:\n      tag_19\n      0x04\n      dup1\n      calldatasize\n      sub\n      dup2\n      add\n      swap1\n      tag_20\n      swap2\n      swap1\n      tag_21\n      jump\t// in\n    tag_20:\n      tag_22\n      jump\t// in\n    tag_19:\n      mload(0x40)\n      tag_23\n      swap2\n      swap1\n      tag_18\n      jump\t// in\n    tag_23:\n      mload(0x40)\n      dup1\n      swap2\n      sub\n      swap1\n      return\n        /* \"MemberPoolFactory.sol\":1044:1140  function getMemberPools() public view returns (address[] memory) {... */\n    tag_8:\n        /* \"MemberPoolFactory.sol\":1091:1107  address[] memory */\n      0x60\n        /* \"MemberPoolFactory.sol\":1127:1132  pools */\n      0x01\n        /* \"MemberPoolFactory.sol\":1120:1132  return pools */\n      dup1\n      sload\n      dup1\n      0x20\n      mul\n      0x20\n      add\n      mload(0x40)\n      swap1\n      dup2\n      add\n      0x40\n      mstore\n      dup1\n      swap3\n      swap2\n      swap1\n      dup2\n      dup2\n      mstore\n      0x20\n      add\n      dup3\n      dup1\n      sload\n      dup1\n      iszero\n      tag_25\n      jumpi\n      0x20\n      mul\n      dup3\n      add\n      swap2\n      swap1\n      0x00\n      mstore\n      keccak256(0x00, 0x20)\n      swap1\n    tag_26:\n      dup2\n      0x00\n      swap1\n      sload\n      swap1\n      0x0100\n      exp\n      swap1\n      div\n      0xffffffffffffffffffffffffffffffffffffffff\n      and\n      0xffffffffffffffffffffffffffffffffffffffff\n      and\n      dup2\n      mstore\n      0x20\n      add\n      swap1\n      0x01\n      add\n      swap1\n      dup1\n      dup4\n      gt\n      tag_26\n      jumpi\n    tag_25:\n      pop\n      pop\n      pop\n      pop\n      pop\n      swap1\n      pop\n        /* \"MemberPoolFactory.sol\":1044:1140  function getMemberPools() public view returns (address[] memory) {... */\n      swap1\n      jump\t// out\n        /* \"MemberPoolFactory.sol\":515:1036  function createMemberPool(string memory name) public noDelegateCall {... */\n    tag_14:\n        /* \"lib/NoDelegateCall.sol\":1060:1082   */\n      tag_28\n        /* \"lib/NoDelegateCall.sol\":1060:1080   */\n      tag_29\n        /* \"lib/NoDelegateCall.sol\":1060:1082   */\n      jump\t// in\n    tag_28:\n        /* \"MemberPoolFactory.sol\":594:622  address applicantPoolAddress */\n      0x00\n        /* \"MemberPoolFactory.sol\":665:681  memberMapAddress */\n      immutable(\"0x83e0c3649a48c74cec30dabd19f5dba5fcfbf7b93036c21b948ffc65174a2704\")\n        /* \"MemberPoolFactory.sol\":691:695  this */\n      address\n        /* \"MemberPoolFactory.sol\":647:697  new ApplicantPool(memberMapAddress, address(this)) */\n      mload(0x40)\n      tag_31\n      swap1\n      tag_32\n      jump\t// in\n    tag_31:\n      tag_33\n      swap3\n      swap2\n      swap1\n      tag_34\n      jump\t// in\n    tag_33:\n      mload(0x40)\n      dup1\n      swap2\n      sub\n      swap1\n      0x00\n      create\n      dup1\n      iszero\n      dup1\n      iszero\n      tag_35\n      jumpi\n      returndatasize\n      0x00\n      dup1\n      returndatacopy\n      revert(0x00, returndatasize)\n    tag_35:\n      pop\n        /* \"MemberPoolFactory.sol\":594:708  address applicantPoolAddress = address(... */\n      swap1\n      pop\n        /* \"MemberPoolFactory.sol\":719:738  address poolAddress */\n      0x00\n        /* \"MemberPoolFactory.sol\":778:798  applicantPoolAddress */\n      dup2\n        /* \"MemberPoolFactory.sol\":800:810  msg.sender */\n      caller\n        /* \"MemberPoolFactory.sol\":812:816  name */\n      dup5\n        /* \"MemberPoolFactory.sol\":763:817  new MemberPool(applicantPoolAddress, msg.sender, name) */\n      mload(0x40)\n      tag_36\n      swap1\n      tag_37\n      jump\t// in\n    tag_36:\n      tag_38\n      swap4\n      swap3\n      swap2\n      swap1\n      tag_39\n      jump\t// in\n    tag_38:\n      mload(0x40)\n      dup1\n      swap2\n      sub\n      swap1\n      0x00\n      create\n      dup1\n      iszero\n      dup1\n      iszero\n      tag_40\n      jumpi\n      returndatasize\n      0x00\n      dup1\n      returndatacopy\n      revert(0x00, returndatasize)\n    tag_40:\n      pop\n        /* \"MemberPoolFactory.sol\":719:828  address poolAddress = address(... */\n      swap1\n      pop\n        /* \"MemberPoolFactory.sol\":839:844  pools */\n      0x01\n        /* \"MemberPoolFactory.sol\":850:861  poolAddress */\n      dup2\n        /* \"MemberPoolFactory.sol\":839:862  pools.push(poolAddress) */\n      swap1\n      dup1\n      0x01\n      dup2\n      sload\n      add\n      dup1\n      dup3\n      sstore\n      dup1\n      swap2\n      pop\n      pop\n      0x01\n      swap1\n      sub\n      swap1\n      0x00\n      mstore\n      keccak256(0x00, 0x20)\n      add\n      0x00\n      swap1\n      swap2\n      swap1\n      swap2\n      swap1\n      swap2\n      0x0100\n      exp\n      dup2\n      sload\n      dup2\n      0xffffffffffffffffffffffffffffffffffffffff\n      mul\n      not\n      and\n      swap1\n      dup4\n      0xffffffffffffffffffffffffffffffffffffffff\n      and\n      mul\n      or\n      swap1\n      sstore\n      pop\n        /* \"MemberPoolFactory.sol\":873:886  MemberMap map */\n      0x00\n        /* \"MemberPoolFactory.sol\":899:915  memberMapAddress */\n      immutable(\"0x83e0c3649a48c74cec30dabd19f5dba5fcfbf7b93036c21b948ffc65174a2704\")\n        /* \"MemberPoolFactory.sol\":873:916  MemberMap map = MemberMap(memberMapAddress) */\n      swap1\n      pop\n        /* \"MemberPoolFactory.sol\":927:930  map */\n      dup1\n        /* \"MemberPoolFactory.sol\":927:945  map.addPoolCreator */\n      0xffffffffffffffffffffffffffffffffffffffff\n      and\n      0xec3140a3\n        /* \"MemberPoolFactory.sol\":946:956  msg.sender */\n      caller\n        /* \"MemberPoolFactory.sol\":958:969  poolAddress */\n      dup5\n        /* \"MemberPoolFactory.sol\":927:970  map.addPoolCreator(msg.sender, poolAddress) */\n      mload(0x40)\n      dup4\n      0xffffffff\n      and\n      0xe0\n      shl\n      dup2\n      mstore\n      0x04\n      add\n      tag_42\n      swap3\n      swap2\n      swap1\n      tag_34\n      jump\t// in\n    tag_42:\n      0x00\n      mload(0x40)\n      dup1\n      dup4\n      sub\n      dup2\n      0x00\n      dup8\n      dup1\n      extcodesize\n      iszero\n      dup1\n      iszero\n      tag_43\n      jumpi\n      0x00\n      dup1\n      revert\n    tag_43:\n      pop\n      gas\n      call\n      iszero\n      dup1\n      iszero\n      tag_45\n      jumpi\n      returndatasize\n      0x00\n      dup1\n      returndatacopy\n      revert(0x00, returndatasize)\n    tag_45:\n      pop\n      pop\n      pop\n      pop\n        /* \"MemberPoolFactory.sol\":986:1028  MemberPoolCreated(msg.sender, poolAddress) */\n      0x290f0e8c1a21b082a43dd3aae739716dd596fc1431641c8075c0a84dc92c4655\n        /* \"MemberPoolFactory.sol\":1004:1014  msg.sender */\n      caller\n        /* \"MemberPoolFactory.sol\":1016:1027  poolAddress */\n      dup4\n        /* \"MemberPoolFactory.sol\":986:1028  MemberPoolCreated(msg.sender, poolAddress) */\n      mload(0x40)\n      tag_46\n      swap3\n      swap2\n      swap1\n      tag_34\n      jump\t// in\n    tag_46:\n      mload(0x40)\n      dup1\n      swap2\n      sub\n      swap1\n      log1\n        /* \"MemberPoolFactory.sol\":583:1036  {... */\n      pop\n      pop\n      pop\n        /* \"MemberPoolFactory.sol\":515:1036  function createMemberPool(string memory name) public noDelegateCall {... */\n      pop\n      jump\t// out\n        /* \"MemberPoolFactory.sol\":303:323  address public owner */\n    tag_16:\n      0x00\n      dup1\n      sload\n      swap1\n      0x0100\n      exp\n      swap1\n      div\n      0xffffffffffffffffffffffffffffffffffffffff\n      and\n      dup2\n      jump\t// out\n        /* \"MemberPoolFactory.sol\":330:352  address[] public pools */\n    tag_22:\n      0x01\n      dup2\n      dup2\n      sload\n      dup2\n      lt\n      tag_47\n      jumpi\n      0x00\n      dup1\n      revert\n    tag_47:\n      swap1\n      0x00\n      mstore\n      keccak256(0x00, 0x20)\n      add\n      0x00\n      swap2\n      pop\n      sload\n      swap1\n      0x0100\n      exp\n      swap1\n      div\n      0xffffffffffffffffffffffffffffffffffffffff\n      and\n      dup2\n      jump\t// out\n        /* \"lib/NoDelegateCall.sol\":853:951   */\n    tag_29:\n        /* \"lib/NoDelegateCall.sol\":934:942   */\n      immutable(\"0xc188f18e75b82a2126438825d5b1474b240600ee888a81fcefa05cf1b4c30b2a\")\n        /* \"lib/NoDelegateCall.sol\":917:942   */\n      0xffffffffffffffffffffffffffffffffffffffff\n      and\n        /* \"lib/NoDelegateCall.sol\":925:929   */\n      address\n        /* \"lib/NoDelegateCall.sol\":917:942   */\n      0xffffffffffffffffffffffffffffffffffffffff\n      and\n      eq\n        /* \"lib/NoDelegateCall.sol\":909:943   */\n      tag_50\n      jumpi\n      0x00\n      dup1\n      revert\n    tag_50:\n        /* \"lib/NoDelegateCall.sol\":853:951   */\n      jump\t// out\n    tag_32:\n      dataSize(sub_0)\n      dup1\n      dataOffset(sub_0)\n      dup4\n      codecopy\n      add\n      swap1\n      jump\t// out\n    tag_37:\n      dataSize(sub_1)\n      dup1\n      dataOffset(sub_1)\n      dup4\n      codecopy\n      add\n      swap1\n      jump\t// out\n        /* \"#utility.yul\":7:121   */\n    tag_51:\n        /* \"#utility.yul\":74:80   */\n      0x00\n        /* \"#utility.yul\":108:113   */\n      dup2\n        /* \"#utility.yul\":102:114   */\n      mload\n        /* \"#utility.yul\":92:114   */\n      swap1\n      pop\n        /* \"#utility.yul\":7:121   */\n      swap2\n      swap1\n      pop\n      jump\t// out\n        /* \"#utility.yul\":127:311   */\n    tag_52:\n        /* \"#utility.yul\":226:237   */\n      0x00\n        /* \"#utility.yul\":260:266   */\n      dup3\n        /* \"#utility.yul\":255:258   */\n      dup3\n        /* \"#utility.yul\":248:267   */\n      mstore\n        /* \"#utility.yul\":300:304   */\n      0x20\n        /* \"#utility.yul\":295:298   */\n      dup3\n        /* \"#utility.yul\":291:305   */\n      add\n        /* \"#utility.yul\":276:305   */\n      swap1\n      pop\n        /* \"#utility.yul\":127:311   */\n      swap3\n      swap2\n      pop\n      pop\n      jump\t// out\n        /* \"#utility.yul\":317:449   */\n    tag_53:\n        /* \"#utility.yul\":384:388   */\n      0x00\n        /* \"#utility.yul\":407:410   */\n      dup2\n        /* \"#utility.yul\":399:410   */\n      swap1\n      pop\n        /* \"#utility.yul\":437:441   */\n      0x20\n        /* \"#utility.yul\":432:435   */\n      dup3\n        /* \"#utility.yul\":428:442   */\n      add\n        /* \"#utility.yul\":420:442   */\n      swap1\n      pop\n        /* \"#utility.yul\":317:449   */\n      swap2\n      swap1\n      pop\n      jump\t// out\n        /* \"#utility.yul\":455:581   */\n    tag_54:\n        /* \"#utility.yul\":492:499   */\n      0x00\n        /* \"#utility.yul\":532:574   */\n      0xffffffffffffffffffffffffffffffffffffffff\n        /* \"#utility.yul\":525:530   */\n      dup3\n        /* \"#utility.yul\":521:575   */\n      and\n        /* \"#utility.yul\":510:575   */\n      swap1\n      pop\n        /* \"#utility.yul\":455:581   */\n      swap2\n      swap1\n      pop\n      jump\t// out\n        /* \"#utility.yul\":587:683   */\n    tag_55:\n        /* \"#utility.yul\":624:631   */\n      0x00\n        /* \"#utility.yul\":653:677   */\n      tag_87\n        /* \"#utility.yul\":671:676   */\n      dup3\n        /* \"#utility.yul\":653:677   */\n      tag_54\n      jump\t// in\n    tag_87:\n        /* \"#utility.yul\":642:677   */\n      swap1\n      pop\n        /* \"#utility.yul\":587:683   */\n      swap2\n      swap1\n      pop\n      jump\t// out\n        /* \"#utility.yul\":689:797   */\n    tag_56:\n        /* \"#utility.yul\":766:790   */\n      tag_89\n        /* \"#utility.yul\":784:789   */\n      dup2\n        /* \"#utility.yul\":766:790   */\n      tag_55\n      jump\t// in\n    tag_89:\n        /* \"#utility.yul\":761:764   */\n      dup3\n        /* \"#utility.yul\":754:791   */\n      mstore\n        /* \"#utility.yul\":689:797   */\n      pop\n      pop\n      jump\t// out\n        /* \"#utility.yul\":803:982   */\n    tag_57:\n        /* \"#utility.yul\":872:882   */\n      0x00\n        /* \"#utility.yul\":893:939   */\n      tag_91\n        /* \"#utility.yul\":935:938   */\n      dup4\n        /* \"#utility.yul\":927:933   */\n      dup4\n        /* \"#utility.yul\":893:939   */\n      tag_56\n      jump\t// in\n    tag_91:\n        /* \"#utility.yul\":971:975   */\n      0x20\n        /* \"#utility.yul\":966:969   */\n      dup4\n        /* \"#utility.yul\":962:976   */\n      add\n        /* \"#utility.yul\":948:976   */\n      swap1\n      pop\n        /* \"#utility.yul\":803:982   */\n      swap3\n      swap2\n      pop\n      pop\n      jump\t// out\n        /* \"#utility.yul\":988:1101   */\n    tag_58:\n        /* \"#utility.yul\":1058:1062   */\n      0x00\n        /* \"#utility.yul\":1090:1094   */\n      0x20\n        /* \"#utility.yul\":1085:1088   */\n      dup3\n        /* \"#utility.yul\":1081:1095   */\n      add\n        /* \"#utility.yul\":1073:1095   */\n      swap1\n      pop\n        /* \"#utility.yul\":988:1101   */\n      swap2\n      swap1\n      pop\n      jump\t// out\n        /* \"#utility.yul\":1137:1869   */\n    tag_59:\n        /* \"#utility.yul\":1256:1259   */\n      0x00\n        /* \"#utility.yul\":1285:1339   */\n      tag_94\n        /* \"#utility.yul\":1333:1338   */\n      dup3\n        /* \"#utility.yul\":1285:1339   */\n      tag_51\n      jump\t// in\n    tag_94:\n        /* \"#utility.yul\":1355:1441   */\n      tag_95\n        /* \"#utility.yul\":1434:1440   */\n      dup2\n        /* \"#utility.yul\":1429:1432   */\n      dup6\n        /* \"#utility.yul\":1355:1441   */\n      tag_52\n      jump\t// in\n    tag_95:\n        /* \"#utility.yul\":1348:1441   */\n      swap4\n      pop\n        /* \"#utility.yul\":1465:1521   */\n      tag_96\n        /* \"#utility.yul\":1515:1520   */\n      dup4\n        /* \"#utility.yul\":1465:1521   */\n      tag_53\n      jump\t// in\n    tag_96:\n        /* \"#utility.yul\":1544:1551   */\n      dup1\n        /* \"#utility.yul\":1575:1576   */\n      0x00\n        /* \"#utility.yul\":1560:1844   */\n    tag_97:\n        /* \"#utility.yul\":1585:1591   */\n      dup4\n        /* \"#utility.yul\":1582:1583   */\n      dup2\n        /* \"#utility.yul\":1579:1592   */\n      lt\n        /* \"#utility.yul\":1560:1844   */\n      iszero\n      tag_99\n      jumpi\n        /* \"#utility.yul\":1661:1667   */\n      dup2\n        /* \"#utility.yul\":1655:1668   */\n      mload\n        /* \"#utility.yul\":1688:1751   */\n      tag_100\n        /* \"#utility.yul\":1747:1750   */\n      dup9\n        /* \"#utility.yul\":1732:1745   */\n      dup3\n        /* \"#utility.yul\":1688:1751   */\n      tag_57\n      jump\t// in\n    tag_100:\n        /* \"#utility.yul\":1681:1751   */\n      swap8\n      pop\n        /* \"#utility.yul\":1774:1834   */\n      tag_101\n        /* \"#utility.yul\":1827:1833   */\n      dup4\n        /* \"#utility.yul\":1774:1834   */\n      tag_58\n      jump\t// in\n    tag_101:\n        /* \"#utility.yul\":1764:1834   */\n      swap3\n      pop\n        /* \"#utility.yul\":1620:1844   */\n      pop\n        /* \"#utility.yul\":1607:1608   */\n      0x01\n        /* \"#utility.yul\":1604:1605   */\n      dup2\n        /* \"#utility.yul\":1600:1609   */\n      add\n        /* \"#utility.yul\":1595:1609   */\n      swap1\n      pop\n        /* \"#utility.yul\":1560:1844   */\n      jump(tag_97)\n    tag_99:\n        /* \"#utility.yul\":1564:1578   */\n      pop\n        /* \"#utility.yul\":1860:1863   */\n      dup6\n        /* \"#utility.yul\":1853:1863   */\n      swap4\n      pop\n        /* \"#utility.yul\":1261:1869   */\n      pop\n      pop\n      pop\n        /* \"#utility.yul\":1137:1869   */\n      swap3\n      swap2\n      pop\n      pop\n      jump\t// out\n        /* \"#utility.yul\":1875:2248   */\n    tag_10:\n        /* \"#utility.yul\":2018:2022   */\n      0x00\n        /* \"#utility.yul\":2056:2058   */\n      0x20\n        /* \"#utility.yul\":2045:2054   */\n      dup3\n        /* \"#utility.yul\":2041:2059   */\n      add\n        /* \"#utility.yul\":2033:2059   */\n      swap1\n      pop\n        /* \"#utility.yul\":2105:2114   */\n      dup2\n        /* \"#utility.yul\":2099:2103   */\n      dup2\n        /* \"#utility.yul\":2095:2115   */\n      sub\n        /* \"#utility.yul\":2091:2092   */\n      0x00\n        /* \"#utility.yul\":2080:2089   */\n      dup4\n        /* \"#utility.yul\":2076:2093   */\n      add\n        /* \"#utility.yul\":2069:2116   */\n      mstore\n        /* \"#utility.yul\":2133:2241   */\n      tag_103\n        /* \"#utility.yul\":2236:2240   */\n      dup2\n        /* \"#utility.yul\":2227:2233   */\n      dup5\n        /* \"#utility.yul\":2133:2241   */\n      tag_59\n      jump\t// in\n    tag_103:\n        /* \"#utility.yul\":2125:2241   */\n      swap1\n      pop\n        /* \"#utility.yul\":1875:2248   */\n      swap3\n      swap2\n      pop\n      pop\n      jump\t// out\n        /* \"#utility.yul\":2254:2329   */\n    tag_60:\n        /* \"#utility.yul\":2287:2293   */\n      0x00\n        /* \"#utility.yul\":2320:2322   */\n      0x40\n        /* \"#utility.yul\":2314:2323   */\n      mload\n        /* \"#utility.yul\":2304:2323   */\n      swap1\n      pop\n        /* \"#utility.yul\":2254:2329   */\n      swap1\n      jump\t// out\n        /* \"#utility.yul\":2335:2452   */\n    tag_61:\n        /* \"#utility.yul\":2444:2445   */\n      0x00\n        /* \"#utility.yul\":2441:2442   */\n      dup1\n        /* \"#utility.yul\":2434:2446   */\n      revert\n        /* \"#utility.yul\":2458:2575   */\n    tag_62:\n        /* \"#utility.yul\":2567:2568   */\n      0x00\n        /* \"#utility.yul\":2564:2565   */\n      dup1\n        /* \"#utility.yul\":2557:2569   */\n      revert\n        /* \"#utility.yul\":2581:2698   */\n    tag_63:\n        /* \"#utility.yul\":2690:2691   */\n      0x00\n        /* \"#utility.yul\":2687:2688   */\n      dup1\n        /* \"#utility.yul\":2680:2692   */\n      revert\n        /* \"#utility.yul\":2704:2821   */\n    tag_64:\n        /* \"#utility.yul\":2813:2814   */\n      0x00\n        /* \"#utility.yul\":2810:2811   */\n      dup1\n        /* \"#utility.yul\":2803:2815   */\n      revert\n        /* \"#utility.yul\":2827:2929   */\n    tag_65:\n        /* \"#utility.yul\":2868:2874   */\n      0x00\n        /* \"#utility.yul\":2919:2921   */\n      0x1f\n        /* \"#utility.yul\":2915:2922   */\n      not\n        /* \"#utility.yul\":2910:2912   */\n      0x1f\n        /* \"#utility.yul\":2903:2908   */\n      dup4\n        /* \"#utility.yul\":2899:2913   */\n      add\n        /* \"#utility.yul\":2895:2923   */\n      and\n        /* \"#utility.yul\":2885:2923   */\n      swap1\n      pop\n        /* \"#utility.yul\":2827:2929   */\n      swap2\n      swap1\n      pop\n      jump\t// out\n        /* \"#utility.yul\":2935:3115   */\n    tag_66:\n        /* \"#utility.yul\":2983:3060   */\n      0x4e487b7100000000000000000000000000000000000000000000000000000000\n        /* \"#utility.yul\":2980:2981   */\n      0x00\n        /* \"#utility.yul\":2973:3061   */\n      mstore\n        /* \"#utility.yul\":3080:3084   */\n      0x41\n        /* \"#utility.yul\":3077:3078   */\n      0x04\n        /* \"#utility.yul\":3070:3085   */\n      mstore\n        /* \"#utility.yul\":3104:3108   */\n      0x24\n        /* \"#utility.yul\":3101:3102   */\n      0x00\n        /* \"#utility.yul\":3094:3109   */\n      revert\n        /* \"#utility.yul\":3121:3402   */\n    tag_67:\n        /* \"#utility.yul\":3204:3231   */\n      tag_112\n        /* \"#utility.yul\":3226:3230   */\n      dup3\n        /* \"#utility.yul\":3204:3231   */\n      tag_65\n      jump\t// in\n    tag_112:\n        /* \"#utility.yul\":3196:3202   */\n      dup2\n        /* \"#utility.yul\":3192:3232   */\n      add\n        /* \"#utility.yul\":3334:3340   */\n      dup2\n        /* \"#utility.yul\":3322:3332   */\n      dup2\n        /* \"#utility.yul\":3319:3341   */\n      lt\n        /* \"#utility.yul\":3298:3316   */\n      0xffffffffffffffff\n        /* \"#utility.yul\":3286:3296   */\n      dup3\n        /* \"#utility.yul\":3283:3317   */\n      gt\n        /* \"#utility.yul\":3280:3342   */\n      or\n        /* \"#utility.yul\":3277:3365   */\n      iszero\n      tag_113\n      jumpi\n        /* \"#utility.yul\":3345:3363   */\n      tag_114\n      tag_66\n      jump\t// in\n    tag_114:\n        /* \"#utility.yul\":3277:3365   */\n    tag_113:\n        /* \"#utility.yul\":3385:3395   */\n      dup1\n        /* \"#utility.yul\":3381:3383   */\n      0x40\n        /* \"#utility.yul\":3374:3396   */\n      mstore\n        /* \"#utility.yul\":3164:3402   */\n      pop\n        /* \"#utility.yul\":3121:3402   */\n      pop\n      pop\n      jump\t// out\n        /* \"#utility.yul\":3408:3537   */\n    tag_68:\n        /* \"#utility.yul\":3442:3448   */\n      0x00\n        /* \"#utility.yul\":3469:3489   */\n      tag_116\n      tag_60\n      jump\t// in\n    tag_116:\n        /* \"#utility.yul\":3459:3489   */\n      swap1\n      pop\n        /* \"#utility.yul\":3498:3531   */\n      tag_117\n        /* \"#utility.yul\":3526:3530   */\n      dup3\n        /* \"#utility.yul\":3518:3524   */\n      dup3\n        /* \"#utility.yul\":3498:3531   */\n      tag_67\n      jump\t// in\n    tag_117:\n        /* \"#utility.yul\":3408:3537   */\n      swap2\n      swap1\n      pop\n      jump\t// out\n        /* \"#utility.yul\":3543:3851   */\n    tag_69:\n        /* \"#utility.yul\":3605:3609   */\n      0x00\n        /* \"#utility.yul\":3695:3713   */\n      0xffffffffffffffff\n        /* \"#utility.yul\":3687:3693   */\n      dup3\n        /* \"#utility.yul\":3684:3714   */\n      gt\n        /* \"#utility.yul\":3681:3737   */\n      iszero\n      tag_119\n      jumpi\n        /* \"#utility.yul\":3717:3735   */\n      tag_120\n      tag_66\n      jump\t// in\n    tag_120:\n        /* \"#utility.yul\":3681:3737   */\n    tag_119:\n        /* \"#utility.yul\":3755:3784   */\n      tag_121\n        /* \"#utility.yul\":3777:3783   */\n      dup3\n        /* \"#utility.yul\":3755:3784   */\n      tag_65\n      jump\t// in\n    tag_121:\n        /* \"#utility.yul\":3747:3784   */\n      swap1\n      pop\n        /* \"#utility.yul\":3839:3843   */\n      0x20\n        /* \"#utility.yul\":3833:3837   */\n      dup2\n        /* \"#utility.yul\":3829:3844   */\n      add\n        /* \"#utility.yul\":3821:3844   */\n      swap1\n      pop\n        /* \"#utility.yul\":3543:3851   */\n      swap2\n      swap1\n      pop\n      jump\t// out\n        /* \"#utility.yul\":3857:4003   */\n    tag_70:\n        /* \"#utility.yul\":3954:3960   */\n      dup3\n        /* \"#utility.yul\":3949:3952   */\n      dup2\n        /* \"#utility.yul\":3944:3947   */\n      dup4\n        /* \"#utility.yul\":3931:3961   */\n      calldatacopy\n        /* \"#utility.yul\":3995:3996   */\n      0x00\n        /* \"#utility.yul\":3986:3992   */\n      dup4\n        /* \"#utility.yul\":3981:3984   */\n      dup4\n        /* \"#utility.yul\":3977:3993   */\n      add\n        /* \"#utility.yul\":3970:3997   */\n      mstore\n        /* \"#utility.yul\":3857:4003   */\n      pop\n      pop\n      pop\n      jump\t// out\n        /* \"#utility.yul\":4009:4434   */\n    tag_71:\n        /* \"#utility.yul\":4087:4092   */\n      0x00\n        /* \"#utility.yul\":4112:4178   */\n      tag_124\n        /* \"#utility.yul\":4128:4177   */\n      tag_125\n        /* \"#utility.yul\":4170:4176   */\n      dup5\n        /* \"#utility.yul\":4128:4177   */\n      tag_69\n      jump\t// in\n    tag_125:\n        /* \"#utility.yul\":4112:4178   */\n      tag_68\n      jump\t// in\n    tag_124:\n        /* \"#utility.yul\":4103:4178   */\n      swap1\n      pop\n        /* \"#utility.yul\":4201:4207   */\n      dup3\n        /* \"#utility.yul\":4194:4199   */\n      dup2\n        /* \"#utility.yul\":4187:4208   */\n      mstore\n        /* \"#utility.yul\":4239:4243   */\n      0x20\n        /* \"#utility.yul\":4232:4237   */\n      dup2\n        /* \"#utility.yul\":4228:4244   */\n      add\n        /* \"#utility.yul\":4277:4280   */\n      dup5\n        /* \"#utility.yul\":4268:4274   */\n      dup5\n        /* \"#utility.yul\":4263:4266   */\n      dup5\n        /* \"#utility.yul\":4259:4275   */\n      add\n        /* \"#utility.yul\":4256:4281   */\n      gt\n        /* \"#utility.yul\":4253:4365   */\n      iszero\n      tag_126\n      jumpi\n        /* \"#utility.yul\":4284:4363   */\n      tag_127\n      tag_64\n      jump\t// in\n    tag_127:\n        /* \"#utility.yul\":4253:4365   */\n    tag_126:\n        /* \"#utility.yul\":4374:4428   */\n      tag_128\n        /* \"#utility.yul\":4421:4427   */\n      dup5\n        /* \"#utility.yul\":4416:4419   */\n      dup3\n        /* \"#utility.yul\":4411:4414   */\n      dup6\n        /* \"#utility.yul\":4374:4428   */\n      tag_70\n      jump\t// in\n    tag_128:\n        /* \"#utility.yul\":4093:4434   */\n      pop\n        /* \"#utility.yul\":4009:4434   */\n      swap4\n      swap3\n      pop\n      pop\n      pop\n      jump\t// out\n        /* \"#utility.yul\":4454:4794   */\n    tag_72:\n        /* \"#utility.yul\":4510:4515   */\n      0x00\n        /* \"#utility.yul\":4559:4562   */\n      dup3\n        /* \"#utility.yul\":4552:4556   */\n      0x1f\n        /* \"#utility.yul\":4544:4550   */\n      dup4\n        /* \"#utility.yul\":4540:4557   */\n      add\n        /* \"#utility.yul\":4536:4563   */\n      slt\n        /* \"#utility.yul\":4526:4648   */\n      tag_130\n      jumpi\n        /* \"#utility.yul\":4567:4646   */\n      tag_131\n      tag_63\n      jump\t// in\n    tag_131:\n        /* \"#utility.yul\":4526:4648   */\n    tag_130:\n        /* \"#utility.yul\":4684:4690   */\n      dup2\n        /* \"#utility.yul\":4671:4691   */\n      calldataload\n        /* \"#utility.yul\":4709:4788   */\n      tag_132\n        /* \"#utility.yul\":4784:4787   */\n      dup5\n        /* \"#utility.yul\":4776:4782   */\n      dup3\n        /* \"#utility.yul\":4769:4773   */\n      0x20\n        /* \"#utility.yul\":4761:4767   */\n      dup7\n        /* \"#utility.yul\":4757:4774   */\n      add\n        /* \"#utility.yul\":4709:4788   */\n      tag_71\n      jump\t// in\n    tag_132:\n        /* \"#utility.yul\":4700:4788   */\n      swap2\n      pop\n        /* \"#utility.yul\":4516:4794   */\n      pop\n        /* \"#utility.yul\":4454:4794   */\n      swap3\n      swap2\n      pop\n      pop\n      jump\t// out\n        /* \"#utility.yul\":4800:5309   */\n    tag_13:\n        /* \"#utility.yul\":4869:4875   */\n      0x00\n        /* \"#utility.yul\":4918:4920   */\n      0x20\n        /* \"#utility.yul\":4906:4915   */\n      dup3\n        /* \"#utility.yul\":4897:4904   */\n      dup5\n        /* \"#utility.yul\":4893:4916   */\n      sub\n        /* \"#utility.yul\":4889:4921   */\n      slt\n        /* \"#utility.yul\":4886:5005   */\n      iszero\n      tag_134\n      jumpi\n        /* \"#utility.yul\":4924:5003   */\n      tag_135\n      tag_61\n      jump\t// in\n    tag_135:\n        /* \"#utility.yul\":4886:5005   */\n    tag_134:\n        /* \"#utility.yul\":5072:5073   */\n      0x00\n        /* \"#utility.yul\":5061:5070   */\n      dup3\n        /* \"#utility.yul\":5057:5074   */\n      add\n        /* \"#utility.yul\":5044:5075   */\n      calldataload\n        /* \"#utility.yul\":5102:5120   */\n      0xffffffffffffffff\n        /* \"#utility.yul\":5094:5100   */\n      dup2\n        /* \"#utility.yul\":5091:5121   */\n      gt\n        /* \"#utility.yul\":5088:5205   */\n      iszero\n      tag_136\n      jumpi\n        /* \"#utility.yul\":5124:5203   */\n      tag_137\n      tag_62\n      jump\t// in\n    tag_137:\n        /* \"#utility.yul\":5088:5205   */\n    tag_136:\n        /* \"#utility.yul\":5229:5292   */\n      tag_138\n        /* \"#utility.yul\":5284:5291   */\n      dup5\n        /* \"#utility.yul\":5275:5281   */\n      dup3\n        /* \"#utility.yul\":5264:5273   */\n      dup6\n        /* \"#utility.yul\":5260:5282   */\n      add\n        /* \"#utility.yul\":5229:5292   */\n      tag_72\n      jump\t// in\n    tag_138:\n        /* \"#utility.yul\":5219:5292   */\n      swap2\n      pop\n        /* \"#utility.yul\":5015:5302   */\n      pop\n        /* \"#utility.yul\":4800:5309   */\n      swap3\n      swap2\n      pop\n      pop\n      jump\t// out\n        /* \"#utility.yul\":5315:5433   */\n    tag_73:\n        /* \"#utility.yul\":5402:5426   */\n      tag_140\n        /* \"#utility.yul\":5420:5425   */\n      dup2\n        /* \"#utility.yul\":5402:5426   */\n      tag_55\n      jump\t// in\n    tag_140:\n        /* \"#utility.yul\":5397:5400   */\n      dup3\n        /* \"#utility.yul\":5390:5427   */\n      mstore\n        /* \"#utility.yul\":5315:5433   */\n      pop\n      pop\n      jump\t// out\n        /* \"#utility.yul\":5439:5661   */\n    tag_18:\n        /* \"#utility.yul\":5532:5536   */\n      0x00\n        /* \"#utility.yul\":5570:5572   */\n      0x20\n        /* \"#utility.yul\":5559:5568   */\n      dup3\n        /* \"#utility.yul\":5555:5573   */\n      add\n        /* \"#utility.yul\":5547:5573   */\n      swap1\n      pop\n        /* \"#utility.yul\":5583:5654   */\n      tag_142\n        /* \"#utility.yul\":5651:5652   */\n      0x00\n        /* \"#utility.yul\":5640:5649   */\n      dup4\n        /* \"#utility.yul\":5636:5653   */\n      add\n        /* \"#utility.yul\":5627:5633   */\n      dup5\n        /* \"#utility.yul\":5583:5654   */\n      tag_73\n      jump\t// in\n    tag_142:\n        /* \"#utility.yul\":5439:5661   */\n      swap3\n      swap2\n      pop\n      pop\n      jump\t// out\n        /* \"#utility.yul\":5667:5744   */\n    tag_74:\n        /* \"#utility.yul\":5704:5711   */\n      0x00\n        /* \"#utility.yul\":5733:5738   */\n      dup2\n        /* \"#utility.yul\":5722:5738   */\n      swap1\n      pop\n        /* \"#utility.yul\":5667:5744   */\n      swap2\n      swap1\n      pop\n      jump\t// out\n        /* \"#utility.yul\":5750:5872   */\n    tag_75:\n        /* \"#utility.yul\":5823:5847   */\n      tag_145\n        /* \"#utility.yul\":5841:5846   */\n      dup2\n        /* \"#utility.yul\":5823:5847   */\n      tag_74\n      jump\t// in\n    tag_145:\n        /* \"#utility.yul\":5816:5821   */\n      dup2\n        /* \"#utility.yul\":5813:5848   */\n      eq\n        /* \"#utility.yul\":5803:5866   */\n      tag_146\n      jumpi\n        /* \"#utility.yul\":5862:5863   */\n      0x00\n        /* \"#utility.yul\":5859:5860   */\n      dup1\n        /* \"#utility.yul\":5852:5864   */\n      revert\n        /* \"#utility.yul\":5803:5866   */\n    tag_146:\n        /* \"#utility.yul\":5750:5872   */\n      pop\n      jump\t// out\n        /* \"#utility.yul\":5878:6017   */\n    tag_76:\n        /* \"#utility.yul\":5924:5929   */\n      0x00\n        /* \"#utility.yul\":5962:5968   */\n      dup2\n        /* \"#utility.yul\":5949:5969   */\n      calldataload\n        /* \"#utility.yul\":5940:5969   */\n      swap1\n      pop\n        /* \"#utility.yul\":5978:6011   */\n      tag_148\n        /* \"#utility.yul\":6005:6010   */\n      dup2\n        /* \"#utility.yul\":5978:6011   */\n      tag_75\n      jump\t// in\n    tag_148:\n        /* \"#utility.yul\":5878:6017   */\n      swap3\n      swap2\n      pop\n      pop\n      jump\t// out\n        /* \"#utility.yul\":6023:6352   */\n    tag_21:\n        /* \"#utility.yul\":6082:6088   */\n      0x00\n        /* \"#utility.yul\":6131:6133   */\n      0x20\n        /* \"#utility.yul\":6119:6128   */\n      dup3\n        /* \"#utility.yul\":6110:6117   */\n      dup5\n        /* \"#utility.yul\":6106:6129   */\n      sub\n        /* \"#utility.yul\":6102:6134   */\n      slt\n        /* \"#utility.yul\":6099:6218   */\n      iszero\n      tag_150\n      jumpi\n        /* \"#utility.yul\":6137:6216   */\n      tag_151\n      tag_61\n      jump\t// in\n    tag_151:\n        /* \"#utility.yul\":6099:6218   */\n    tag_150:\n        /* \"#utility.yul\":6257:6258   */\n      0x00\n        /* \"#utility.yul\":6282:6335   */\n      tag_152\n        /* \"#utility.yul\":6327:6334   */\n      dup5\n        /* \"#utility.yul\":6318:6324   */\n      dup3\n        /* \"#utility.yul\":6307:6316   */\n      dup6\n        /* \"#utility.yul\":6303:6325   */\n      add\n        /* \"#utility.yul\":6282:6335   */\n      tag_76\n      jump\t// in\n    tag_152:\n        /* \"#utility.yul\":6272:6335   */\n      swap2\n      pop\n        /* \"#utility.yul\":6228:6345   */\n      pop\n        /* \"#utility.yul\":6023:6352   */\n      swap3\n      swap2\n      pop\n      pop\n      jump\t// out\n        /* \"#utility.yul\":6358:6690   */\n    tag_34:\n        /* \"#utility.yul\":6479:6483   */\n      0x00\n        /* \"#utility.yul\":6517:6519   */\n      0x40\n        /* \"#utility.yul\":6506:6515   */\n      dup3\n        /* \"#utility.yul\":6502:6520   */\n      add\n        /* \"#utility.yul\":6494:6520   */\n      swap1\n      pop\n        /* \"#utility.yul\":6530:6601   */\n      tag_154\n        /* \"#utility.yul\":6598:6599   */\n      0x00\n        /* \"#utility.yul\":6587:6596   */\n      dup4\n        /* \"#utility.yul\":6583:6600   */\n      add\n        /* \"#utility.yul\":6574:6580   */\n      dup6\n        /* \"#utility.yul\":6530:6601   */\n      tag_73\n      jump\t// in\n    tag_154:\n        /* \"#utility.yul\":6611:6683   */\n      tag_155\n        /* \"#utility.yul\":6679:6681   */\n      0x20\n        /* \"#utility.yul\":6668:6677   */\n      dup4\n        /* \"#utility.yul\":6664:6682   */\n      add\n        /* \"#utility.yul\":6655:6661   */\n      dup5\n        /* \"#utility.yul\":6611:6683   */\n      tag_73\n      jump\t// in\n    tag_155:\n        /* \"#utility.yul\":6358:6690   */\n      swap4\n      swap3\n      pop\n      pop\n      pop\n      jump\t// out\n        /* \"#utility.yul\":6696:6795   */\n    tag_77:\n        /* \"#utility.yul\":6748:6754   */\n      0x00\n        /* \"#utility.yul\":6782:6787   */\n      dup2\n        /* \"#utility.yul\":6776:6788   */\n      mload\n        /* \"#utility.yul\":6766:6788   */\n      swap1\n      pop\n        /* \"#utility.yul\":6696:6795   */\n      swap2\n      swap1\n      pop\n      jump\t// out\n        /* \"#utility.yul\":6801:6970   */\n    tag_78:\n        /* \"#utility.yul\":6885:6896   */\n      0x00\n        /* \"#utility.yul\":6919:6925   */\n      dup3\n        /* \"#utility.yul\":6914:6917   */\n      dup3\n        /* \"#utility.yul\":6907:6926   */\n      mstore\n        /* \"#utility.yul\":6959:6963   */\n      0x20\n        /* \"#utility.yul\":6954:6957   */\n      dup3\n        /* \"#utility.yul\":6950:6964   */\n      add\n        /* \"#utility.yul\":6935:6964   */\n      swap1\n      pop\n        /* \"#utility.yul\":6801:6970   */\n      swap3\n      swap2\n      pop\n      pop\n      jump\t// out\n        /* \"#utility.yul\":6976:7222   */\n    tag_79:\n        /* \"#utility.yul\":7057:7058   */\n      0x00\n        /* \"#utility.yul\":7067:7180   */\n    tag_159:\n        /* \"#utility.yul\":7081:7087   */\n      dup4\n        /* \"#utility.yul\":7078:7079   */\n      dup2\n        /* \"#utility.yul\":7075:7088   */\n      lt\n        /* \"#utility.yul\":7067:7180   */\n      iszero\n      tag_161\n      jumpi\n        /* \"#utility.yul\":7166:7167   */\n      dup1\n        /* \"#utility.yul\":7161:7164   */\n      dup3\n        /* \"#utility.yul\":7157:7168   */\n      add\n        /* \"#utility.yul\":7151:7169   */\n      mload\n        /* \"#utility.yul\":7147:7148   */\n      dup2\n        /* \"#utility.yul\":7142:7145   */\n      dup5\n        /* \"#utility.yul\":7138:7149   */\n      add\n        /* \"#utility.yul\":7131:7170   */\n      mstore\n        /* \"#utility.yul\":7103:7105   */\n      0x20\n        /* \"#utility.yul\":7100:7101   */\n      dup2\n        /* \"#utility.yul\":7096:7106   */\n      add\n        /* \"#utility.yul\":7091:7106   */\n      swap1\n      pop\n        /* \"#utility.yul\":7067:7180   */\n      jump(tag_159)\n    tag_161:\n        /* \"#utility.yul\":7214:7215   */\n      0x00\n        /* \"#utility.yul\":7205:7211   */\n      dup5\n        /* \"#utility.yul\":7200:7203   */\n      dup5\n        /* \"#utility.yul\":7196:7212   */\n      add\n        /* \"#utility.yul\":7189:7216   */\n      mstore\n        /* \"#utility.yul\":7038:7222   */\n      pop\n        /* \"#utility.yul\":6976:7222   */\n      pop\n      pop\n      pop\n      jump\t// out\n        /* \"#utility.yul\":7228:7605   */\n    tag_80:\n        /* \"#utility.yul\":7316:7319   */\n      0x00\n        /* \"#utility.yul\":7344:7383   */\n      tag_163\n        /* \"#utility.yul\":7377:7382   */\n      dup3\n        /* \"#utility.yul\":7344:7383   */\n      tag_77\n      jump\t// in\n    tag_163:\n        /* \"#utility.yul\":7399:7470   */\n      tag_164\n        /* \"#utility.yul\":7463:7469   */\n      dup2\n        /* \"#utility.yul\":7458:7461   */\n      dup6\n        /* \"#utility.yul\":7399:7470   */\n      tag_78\n      jump\t// in\n    tag_164:\n        /* \"#utility.yul\":7392:7470   */\n      swap4\n      pop\n        /* \"#utility.yul\":7479:7544   */\n      tag_165\n        /* \"#utility.yul\":7537:7543   */\n      dup2\n        /* \"#utility.yul\":7532:7535   */\n      dup6\n        /* \"#utility.yul\":7525:7529   */\n      0x20\n        /* \"#utility.yul\":7518:7523   */\n      dup7\n        /* \"#utility.yul\":7514:7530   */\n      add\n        /* \"#utility.yul\":7479:7544   */\n      tag_79\n      jump\t// in\n    tag_165:\n        /* \"#utility.yul\":7569:7598   */\n      tag_166\n        /* \"#utility.yul\":7591:7597   */\n      dup2\n        /* \"#utility.yul\":7569:7598   */\n      tag_65\n      jump\t// in\n    tag_166:\n        /* \"#utility.yul\":7564:7567   */\n      dup5\n        /* \"#utility.yul\":7560:7599   */\n      add\n        /* \"#utility.yul\":7553:7599   */\n      swap2\n      pop\n        /* \"#utility.yul\":7320:7605   */\n      pop\n        /* \"#utility.yul\":7228:7605   */\n      swap3\n      swap2\n      pop\n      pop\n      jump\t// out\n        /* \"#utility.yul\":7611:8144   */\n    tag_39:\n        /* \"#utility.yul\":7780:7784   */\n      0x00\n        /* \"#utility.yul\":7818:7820   */\n      0x60\n        /* \"#utility.yul\":7807:7816   */\n      dup3\n        /* \"#utility.yul\":7803:7821   */\n      add\n        /* \"#utility.yul\":7795:7821   */\n      swap1\n      pop\n        /* \"#utility.yul\":7831:7902   */\n      tag_168\n        /* \"#utility.yul\":7899:7900   */\n      0x00\n        /* \"#utility.yul\":7888:7897   */\n      dup4\n        /* \"#utility.yul\":7884:7901   */\n      add\n        /* \"#utility.yul\":7875:7881   */\n      dup7\n        /* \"#utility.yul\":7831:7902   */\n      tag_73\n      jump\t// in\n    tag_168:\n        /* \"#utility.yul\":7912:7984   */\n      tag_169\n        /* \"#utility.yul\":7980:7982   */\n      0x20\n        /* \"#utility.yul\":7969:7978   */\n      dup4\n        /* \"#utility.yul\":7965:7983   */\n      add\n        /* \"#utility.yul\":7956:7962   */\n      dup6\n        /* \"#utility.yul\":7912:7984   */\n      tag_73\n      jump\t// in\n    tag_169:\n        /* \"#utility.yul\":8031:8040   */\n      dup2\n        /* \"#utility.yul\":8025:8029   */\n      dup2\n        /* \"#utility.yul\":8021:8041   */\n      sub\n        /* \"#utility.yul\":8016:8018   */\n      0x40\n        /* \"#utility.yul\":8005:8014   */\n      dup4\n        /* \"#utility.yul\":8001:8019   */\n      add\n        /* \"#utility.yul\":7994:8042   */\n      mstore\n        /* \"#utility.yul\":8059:8137   */\n      tag_170\n        /* \"#utility.yul\":8132:8136   */\n      dup2\n        /* \"#utility.yul\":8123:8129   */\n      dup5\n        /* \"#utility.yul\":8059:8137   */\n      tag_80\n      jump\t// in\n    tag_170:\n        /* \"#utility.yul\":8051:8137   */\n      swap1\n      pop\n        /* \"#utility.yul\":7611:8144   */\n      swap5\n      swap4\n      pop\n      pop\n      pop\n      pop\n      jump\t// out\n    stop\n\n    sub_0: assembly {\n            /* \"ApplicantPool.sol\":90:4052  contract ApplicantPool {... */\n          mstore(0x40, 0xa0)\n            /* \"ApplicantPool.sol\":656:797  constructor(address memberMap, address _parentFactory) {... */\n          callvalue\n          dup1\n          iszero\n          tag_1\n          jumpi\n          0x00\n          dup1\n          revert\n        tag_1:\n          pop\n          mload(0x40)\n          sub(codesize, bytecodeSize)\n          dup1\n          bytecodeSize\n          dup4\n          codecopy\n          dup2\n          dup2\n          add\n          0x40\n          mstore\n          dup2\n          add\n          swap1\n          tag_2\n          swap2\n          swap1\n          tag_3\n          jump\t// in\n        tag_2:\n            /* \"ApplicantPool.sol\":738:747  memberMap */\n          dup2\n            /* \"ApplicantPool.sol\":722:725  map */\n          0x06\n          0x00\n            /* \"ApplicantPool.sol\":722:748  map = MemberMap(memberMap) */\n          0x0100\n          exp\n          dup2\n          sload\n          dup2\n          0xffffffffffffffffffffffffffffffffffffffff\n          mul\n          not\n          and\n          swap1\n          dup4\n          0xffffffffffffffffffffffffffffffffffffffff\n          and\n          mul\n          or\n          swap1\n          sstore\n          pop\n            /* \"ApplicantPool.sol\":775:789  _parentFactory */\n          dup1\n            /* \"ApplicantPool.sol\":759:789  parentFactory = _parentFactory */\n          0xffffffffffffffffffffffffffffffffffffffff\n          and\n          0x80\n          dup2\n          0xffffffffffffffffffffffffffffffffffffffff\n          and\n          dup2\n          mstore\n          pop\n          pop\n            /* \"ApplicantPool.sol\":656:797  constructor(address memberMap, address _parentFactory) {... */\n          pop\n          pop\n            /* \"ApplicantPool.sol\":90:4052  contract ApplicantPool {... */\n          jump(tag_6)\n            /* \"#utility.yul\":88:205   */\n        tag_8:\n            /* \"#utility.yul\":197:198   */\n          0x00\n            /* \"#utility.yul\":194:195   */\n          dup1\n            /* \"#utility.yul\":187:199   */\n          revert\n            /* \"#utility.yul\":334:460   */\n        tag_10:\n            /* \"#utility.yul\":371:378   */\n          0x00\n            /* \"#utility.yul\":411:453   */\n          0xffffffffffffffffffffffffffffffffffffffff\n            /* \"#utility.yul\":404:409   */\n          dup3\n            /* \"#utility.yul\":400:454   */\n          and\n            /* \"#utility.yul\":389:454   */\n          swap1\n          pop\n            /* \"#utility.yul\":334:460   */\n          swap2\n          swap1\n          pop\n          jump\t// out\n            /* \"#utility.yul\":466:562   */\n        tag_11:\n            /* \"#utility.yul\":503:510   */\n          0x00\n            /* \"#utility.yul\":532:556   */\n          tag_20\n            /* \"#utility.yul\":550:555   */\n          dup3\n            /* \"#utility.yul\":532:556   */\n          tag_10\n          jump\t// in\n        tag_20:\n            /* \"#utility.yul\":521:556   */\n          swap1\n          pop\n            /* \"#utility.yul\":466:562   */\n          swap2\n          swap1\n          pop\n          jump\t// out\n            /* \"#utility.yul\":568:690   */\n        tag_12:\n            /* \"#utility.yul\":641:665   */\n          tag_22\n            /* \"#utility.yul\":659:664   */\n          dup2\n            /* \"#utility.yul\":641:665   */\n          tag_11\n          jump\t// in\n        tag_22:\n            /* \"#utility.yul\":634:639   */\n          dup2\n            /* \"#utility.yul\":631:666   */\n          eq\n            /* \"#utility.yul\":621:684   */\n          tag_23\n          jumpi\n            /* \"#utility.yul\":680:681   */\n          0x00\n            /* \"#utility.yul\":677:678   */\n          dup1\n            /* \"#utility.yul\":670:682   */\n          revert\n            /* \"#utility.yul\":621:684   */\n        tag_23:\n            /* \"#utility.yul\":568:690   */\n          pop\n          jump\t// out\n            /* \"#utility.yul\":696:839   */\n        tag_13:\n            /* \"#utility.yul\":753:758   */\n          0x00\n            /* \"#utility.yul\":784:790   */\n          dup2\n            /* \"#utility.yul\":778:791   */\n          mload\n            /* \"#utility.yul\":769:791   */\n          swap1\n          pop\n            /* \"#utility.yul\":800:833   */\n          tag_25\n            /* \"#utility.yul\":827:832   */\n          dup2\n            /* \"#utility.yul\":800:833   */\n          tag_12\n          jump\t// in\n        tag_25:\n            /* \"#utility.yul\":696:839   */\n          swap3\n          swap2\n          pop\n          pop\n          jump\t// out\n            /* \"#utility.yul\":845:1352   */\n        tag_3:\n            /* \"#utility.yul\":924:930   */\n          0x00\n            /* \"#utility.yul\":932:938   */\n          dup1\n            /* \"#utility.yul\":981:983   */\n          0x40\n            /* \"#utility.yul\":969:978   */\n          dup4\n            /* \"#utility.yul\":960:967   */\n          dup6\n            /* \"#utility.yul\":956:979   */\n          sub\n            /* \"#utility.yul\":952:984   */\n          slt\n            /* \"#utility.yul\":949:1068   */\n          iszero\n          tag_27\n          jumpi\n            /* \"#utility.yul\":987:1066   */\n          tag_28\n          tag_8\n          jump\t// in\n        tag_28:\n            /* \"#utility.yul\":949:1068   */\n        tag_27:\n            /* \"#utility.yul\":1107:1108   */\n          0x00\n            /* \"#utility.yul\":1132:1196   */\n          tag_29\n            /* \"#utility.yul\":1188:1195   */\n          dup6\n            /* \"#utility.yul\":1179:1185   */\n          dup3\n            /* \"#utility.yul\":1168:1177   */\n          dup7\n            /* \"#utility.yul\":1164:1186   */\n          add\n            /* \"#utility.yul\":1132:1196   */\n          tag_13\n          jump\t// in\n        tag_29:\n            /* \"#utility.yul\":1122:1196   */\n          swap3\n          pop\n            /* \"#utility.yul\":1078:1206   */\n          pop\n            /* \"#utility.yul\":1245:1247   */\n          0x20\n            /* \"#utility.yul\":1271:1335   */\n          tag_30\n            /* \"#utility.yul\":1327:1334   */\n          dup6\n            /* \"#utility.yul\":1318:1324   */\n          dup3\n            /* \"#utility.yul\":1307:1316   */\n          dup7\n            /* \"#utility.yul\":1303:1325   */\n          add\n            /* \"#utility.yul\":1271:1335   */\n          tag_13\n          jump\t// in\n        tag_30:\n            /* \"#utility.yul\":1261:1335   */\n          swap2\n          pop\n            /* \"#utility.yul\":1216:1345   */\n          pop\n            /* \"#utility.yul\":845:1352   */\n          swap3\n          pop\n          swap3\n          swap1\n          pop\n          jump\t// out\n            /* \"ApplicantPool.sol\":90:4052  contract ApplicantPool {... */\n        tag_6:\n          mload(0x80)\n          codecopy(0x00, dataOffset(sub_0), dataSize(sub_0))\n          0x00\n          assignImmutable(\"0x4dfb3440902001bce9b7ebf7be7d95fe9e2056bd5ce309ceb83b32f4e00e21ed\")\n          return(0x00, dataSize(sub_0))\n        stop\n\n        sub_0: assembly {\n                /* \"ApplicantPool.sol\":90:4052  contract ApplicantPool {... */\n              mstore(0x40, 0x80)\n              callvalue\n              dup1\n              iszero\n              tag_1\n              jumpi\n              0x00\n              dup1\n              revert\n            tag_1:\n              pop\n              jumpi(tag_2, lt(calldatasize, 0x04))\n              shr(0xe0, calldataload(0x00))\n              dup1\n              0x8c468cd4\n              gt\n              tag_13\n              jumpi\n              dup1\n              0x8c468cd4\n              eq\n              tag_8\n              jumpi\n              dup1\n              0xb672bdcb\n              eq\n              tag_9\n              jumpi\n              dup1\n              0xd9a87535\n              eq\n              tag_10\n              jumpi\n              dup1\n              0xf6ec9738\n              eq\n              tag_11\n              jumpi\n              dup1\n              0xfd591902\n              eq\n              tag_12\n              jumpi\n              jump(tag_2)\n            tag_13:\n              dup1\n              0xad808f\n              eq\n              tag_3\n              jumpi\n              dup1\n              0x1292a282\n              eq\n              tag_4\n              jumpi\n              dup1\n              0x273f868e\n              eq\n              tag_5\n              jumpi\n              dup1\n              0x28f4694c\n              eq\n              tag_6\n              jumpi\n              dup1\n              0x455772d2\n              eq\n              tag_7\n              jumpi\n            tag_2:\n              0x00\n              dup1\n              revert\n                /* \"ApplicantPool.sol\":2508:2705  function getApplicantWords(address applicant)... */\n            tag_3:\n              tag_14\n              0x04\n              dup1\n              calldatasize\n              sub\n              dup2\n              add\n              swap1\n              tag_15\n              swap2\n              swap1\n              tag_16\n              jump\t// in\n            tag_15:\n              tag_17\n              jump\t// in\n            tag_14:\n              mload(0x40)\n              tag_18\n              swap2\n              swap1\n              tag_19\n              jump\t// in\n            tag_18:\n              mload(0x40)\n              dup1\n              swap2\n              sub\n              swap1\n              return\n                /* \"ApplicantPool.sol\":2893:3188  function approveApplicant(address applicant)... */\n            tag_4:\n              tag_20\n              0x04\n              dup1\n              calldatasize\n              sub\n              dup2\n              add\n              swap1\n              tag_21\n              swap2\n              swap1\n              tag_16\n              jump\t// in\n            tag_21:\n              tag_22\n              jump\t// in\n            tag_20:\n              stop\n                /* \"ApplicantPool.sol\":3196:3550  function rejectApplicant(address applicant)... */\n            tag_5:\n              tag_23\n              0x04\n              dup1\n              calldatasize\n              sub\n              dup2\n              add\n              swap1\n              tag_24\n              swap2\n              swap1\n              tag_16\n              jump\t// in\n            tag_24:\n              tag_25\n              jump\t// in\n            tag_23:\n              stop\n                /* \"ApplicantPool.sol\":1807:2330  function voteForApplicant(address applicant) public memberOnly(msg.sender) {... */\n            tag_6:\n              tag_26\n              0x04\n              dup1\n              calldatasize\n              sub\n              dup2\n              add\n              swap1\n              tag_27\n              swap2\n              swap1\n              tag_16\n              jump\t// in\n            tag_27:\n              tag_28\n              jump\t// in\n            tag_26:\n              stop\n                /* \"ApplicantPool.sol\":1125:1292  function getApplicants()... */\n            tag_7:\n              tag_29\n              tag_30\n              jump\t// in\n            tag_29:\n              mload(0x40)\n              tag_31\n              swap2\n              swap1\n              tag_32\n              jump\t// in\n            tag_31:\n              mload(0x40)\n              dup1\n              swap2\n              sub\n              swap1\n              return\n                /* \"ApplicantPool.sol\":277:307  address[] public applicantList */\n            tag_8:\n              tag_33\n              0x04\n              dup1\n              calldatasize\n              sub\n              dup2\n              add\n              swap1\n              tag_34\n              swap2\n              swap1\n              tag_35\n              jump\t// in\n            tag_34:\n              tag_36\n              jump\t// in\n            tag_33:\n              mload(0x40)\n              tag_37\n              swap2\n              swap1\n              tag_38\n              jump\t// in\n            tag_37:\n              mload(0x40)\n              dup1\n              swap2\n              sub\n              swap1\n              return\n                /* \"ApplicantPool.sol\":2338:2500  function getApplicantVoteEndDate(address applicant)... */\n            tag_9:\n              tag_39\n              0x04\n              dup1\n              calldatasize\n              sub\n              dup2\n              add\n              swap1\n              tag_40\n              swap2\n              swap1\n              tag_16\n              jump\t// in\n            tag_40:\n              tag_41\n              jump\t// in\n            tag_39:\n              mload(0x40)\n              tag_42\n              swap2\n              swap1\n              tag_43\n              jump\t// in\n            tag_42:\n              mload(0x40)\n              dup1\n              swap2\n              sub\n              swap1\n              return\n                /* \"ApplicantPool.sol\":2713:2885  function getApplicantVoteCount(address applicant)... */\n            tag_10:\n              tag_44\n              0x04\n              dup1\n              calldatasize\n              sub\n              dup2\n              add\n              swap1\n              tag_45\n              swap2\n              swap1\n              tag_16\n              jump\t// in\n            tag_45:\n              tag_46\n              jump\t// in\n            tag_44:\n              mload(0x40)\n              tag_47\n              swap2\n              swap1\n              tag_43\n              jump\t// in\n            tag_47:\n              mload(0x40)\n              dup1\n              swap2\n              sub\n              swap1\n              return\n                /* \"ApplicantPool.sol\":3927:4049  function setMemberPoolAddress(address _memberPoolAddress) public {... */\n            tag_11:\n              tag_48\n              0x04\n              dup1\n              calldatasize\n              sub\n              dup2\n              add\n              swap1\n              tag_49\n              swap2\n              swap1\n              tag_16\n              jump\t// in\n            tag_49:\n              tag_50\n              jump\t// in\n            tag_48:\n              stop\n                /* \"ApplicantPool.sol\":1300:1799  function createApplicant(string calldata reason) public {... */\n            tag_12:\n              tag_51\n              0x04\n              dup1\n              calldatasize\n              sub\n              dup2\n              add\n              swap1\n              tag_52\n              swap2\n              swap1\n              tag_53\n              jump\t// in\n            tag_52:\n              tag_54\n              jump\t// in\n            tag_51:\n              stop\n                /* \"ApplicantPool.sol\":2508:2705  function getApplicantWords(address applicant)... */\n            tag_17:\n                /* \"ApplicantPool.sol\":2634:2647  string memory */\n              0x60\n                /* \"ApplicantPool.sol\":2604:2614  msg.sender */\n              caller\n                /* \"ApplicantPool.sol\":874:877  map */\n              0x06\n              0x00\n              swap1\n              sload\n              swap1\n              0x0100\n              exp\n              swap1\n              div\n              0xffffffffffffffffffffffffffffffffffffffff\n              and\n                /* \"ApplicantPool.sol\":874:886  map.isMember */\n              0xffffffffffffffffffffffffffffffffffffffff\n              and\n              0x39ac7a08\n                /* \"ApplicantPool.sol\":887:893  sender */\n              dup3\n                /* \"ApplicantPool.sol\":895:912  memberPoolAddress */\n              0x07\n              0x00\n              swap1\n              sload\n              swap1\n              0x0100\n              exp\n              swap1\n              div\n              0xffffffffffffffffffffffffffffffffffffffff\n              and\n                /* \"ApplicantPool.sol\":874:913  map.isMember(sender, memberPoolAddress) */\n              mload(0x40)\n              dup4\n              0xffffffff\n              and\n              0xe0\n              shl\n              dup2\n              mstore\n              0x04\n              add\n              tag_56\n              swap3\n              swap2\n              swap1\n              tag_57\n              jump\t// in\n            tag_56:\n              0x20\n              mload(0x40)\n              dup1\n              dup4\n              sub\n              dup2\n              dup7\n              gas\n              staticcall\n              iszero\n              dup1\n              iszero\n              tag_59\n              jumpi\n              returndatasize\n              0x00\n              dup1\n              returndatacopy\n              revert(0x00, returndatasize)\n            tag_59:\n              pop\n              pop\n              pop\n              pop\n              mload(0x40)\n              returndatasize\n              not(0x1f)\n              0x1f\n              dup3\n              add\n              and\n              dup3\n              add\n              dup1\n              0x40\n              mstore\n              pop\n              dup2\n              add\n              swap1\n              tag_60\n              swap2\n              swap1\n              tag_61\n              jump\t// in\n            tag_60:\n                /* \"ApplicantPool.sol\":852:965  require(... */\n              tag_62\n              jumpi\n              mload(0x40)\n              0x08c379a000000000000000000000000000000000000000000000000000000000\n              dup2\n              mstore\n              0x04\n              add\n              tag_63\n              swap1\n              tag_64\n              jump\t// in\n            tag_63:\n              mload(0x40)\n              dup1\n              swap2\n              sub\n              swap1\n              revert\n            tag_62:\n                /* \"ApplicantPool.sol\":2672:2686  applicantWords */\n              0x04\n                /* \"ApplicantPool.sol\":2672:2697  applicantWords[applicant] */\n              0x00\n                /* \"ApplicantPool.sol\":2687:2696  applicant */\n              dup5\n                /* \"ApplicantPool.sol\":2672:2697  applicantWords[applicant] */\n              0xffffffffffffffffffffffffffffffffffffffff\n              and\n              0xffffffffffffffffffffffffffffffffffffffff\n              and\n              dup2\n              mstore\n              0x20\n              add\n              swap1\n              dup2\n              mstore\n              0x20\n              add\n              0x00\n              keccak256\n                /* \"ApplicantPool.sol\":2665:2697  return applicantWords[applicant] */\n              dup1\n              sload\n              tag_66\n              swap1\n              tag_67\n              jump\t// in\n            tag_66:\n              dup1\n              0x1f\n              add\n              0x20\n              dup1\n              swap2\n              div\n              mul\n              0x20\n              add\n              mload(0x40)\n              swap1\n              dup2\n              add\n              0x40\n              mstore\n              dup1\n              swap3\n              swap2\n              swap1\n              dup2\n              dup2\n              mstore\n              0x20\n              add\n              dup3\n              dup1\n              sload\n              tag_68\n              swap1\n              tag_67\n              jump\t// in\n            tag_68:\n              dup1\n              iszero\n              tag_69\n              jumpi\n              dup1\n              0x1f\n              lt\n              tag_70\n              jumpi\n              0x0100\n              dup1\n              dup4\n              sload\n              div\n              mul\n              dup4\n              mstore\n              swap2\n              0x20\n              add\n              swap2\n              jump(tag_69)\n            tag_70:\n              dup3\n              add\n              swap2\n              swap1\n              0x00\n              mstore\n              keccak256(0x00, 0x20)\n              swap1\n            tag_71:\n              dup2\n              sload\n              dup2\n              mstore\n              swap1\n              0x01\n              add\n              swap1\n              0x20\n              add\n              dup1\n              dup4\n              gt\n              tag_71\n              jumpi\n              dup3\n              swap1\n              sub\n              0x1f\n              and\n              dup3\n              add\n              swap2\n            tag_69:\n              pop\n              pop\n              pop\n              pop\n              pop\n              swap2\n              pop\n                /* \"ApplicantPool.sol\":2508:2705  function getApplicantWords(address applicant)... */\n              pop\n              swap2\n              swap1\n              pop\n              jump\t// out\n                /* \"ApplicantPool.sol\":2893:3188  function approveApplicant(address applicant)... */\n            tag_22:\n                /* \"ApplicantPool.sol\":2978:2988  msg.sender */\n              caller\n                /* \"ApplicantPool.sol\":1062:1079  memberPoolAddress */\n              0x07\n              0x00\n              swap1\n              sload\n              swap1\n              0x0100\n              exp\n              swap1\n              div\n              0xffffffffffffffffffffffffffffffffffffffff\n              and\n                /* \"ApplicantPool.sol\":1052:1079  sender == memberPoolAddress */\n              0xffffffffffffffffffffffffffffffffffffffff\n              and\n                /* \"ApplicantPool.sol\":1052:1058  sender */\n              dup2\n                /* \"ApplicantPool.sol\":1052:1079  sender == memberPoolAddress */\n              0xffffffffffffffffffffffffffffffffffffffff\n              and\n              eq\n                /* \"ApplicantPool.sol\":1044:1097  require(sender == memberPoolAddress, \"Access Denied\") */\n              tag_73\n              jumpi\n              mload(0x40)\n              0x08c379a000000000000000000000000000000000000000000000000000000000\n              dup2\n              mstore\n              0x04\n              add\n              tag_74\n              swap1\n              tag_75\n              jump\t// in\n            tag_74:\n              mload(0x40)\n              dup1\n              swap2\n              sub\n              swap1\n              revert\n            tag_73:\n                /* \"ApplicantPool.sol\":3028:3045  memberPoolAddress */\n              0x07\n              0x00\n              swap1\n              sload\n              swap1\n              0x0100\n              exp\n              swap1\n              div\n              0xffffffffffffffffffffffffffffffffffffffff\n              and\n                /* \"ApplicantPool.sol\":3014:3045  msg.sender == memberPoolAddress */\n              0xffffffffffffffffffffffffffffffffffffffff\n              and\n                /* \"ApplicantPool.sol\":3014:3024  msg.sender */\n              caller\n                /* \"ApplicantPool.sol\":3014:3045  msg.sender == memberPoolAddress */\n              0xffffffffffffffffffffffffffffffffffffffff\n              and\n              eq\n                /* \"ApplicantPool.sol\":3006:3046  require(msg.sender == memberPoolAddress) */\n              tag_77\n              jumpi\n              0x00\n              dup1\n              revert\n            tag_77:\n                /* \"ApplicantPool.sol\":3057:3060  map */\n              0x06\n              0x00\n              swap1\n              sload\n              swap1\n              0x0100\n              exp\n              swap1\n              div\n              0xffffffffffffffffffffffffffffffffffffffff\n              and\n                /* \"ApplicantPool.sol\":3057:3070  map.addMember */\n              0xffffffffffffffffffffffffffffffffffffffff\n              and\n              0x9d58b15d\n                /* \"ApplicantPool.sol\":3071:3088  memberPoolAddress */\n              0x07\n              0x00\n              swap1\n              sload\n              swap1\n              0x0100\n              exp\n              swap1\n              div\n              0xffffffffffffffffffffffffffffffffffffffff\n              and\n                /* \"ApplicantPool.sol\":3090:3099  applicant */\n              dup5\n                /* \"ApplicantPool.sol\":3057:3100  map.addMember(memberPoolAddress, applicant) */\n              mload(0x40)\n              dup4\n              0xffffffff\n              and\n              0xe0\n              shl\n              dup2\n              mstore\n              0x04\n              add\n              tag_78\n              swap3\n              swap2\n              swap1\n              tag_57\n              jump\t// in\n            tag_78:\n              0x00\n              mload(0x40)\n              dup1\n              dup4\n              sub\n              dup2\n              0x00\n              dup8\n              dup1\n              extcodesize\n              iszero\n              dup1\n              iszero\n              tag_79\n              jumpi\n              0x00\n              dup1\n              revert\n            tag_79:\n              pop\n              gas\n              call\n              iszero\n              dup1\n              iszero\n              tag_81\n              jumpi\n              returndatasize\n              0x00\n              dup1\n              returndatacopy\n              revert(0x00, returndatasize)\n            tag_81:\n              pop\n              pop\n              pop\n              pop\n                /* \"ApplicantPool.sol\":3111:3136  _burnApplicant(applicant) */\n              tag_82\n                /* \"ApplicantPool.sol\":3126:3135  applicant */\n              dup3\n                /* \"ApplicantPool.sol\":3111:3125  _burnApplicant */\n              tag_83\n                /* \"ApplicantPool.sol\":3111:3136  _burnApplicant(applicant) */\n              jump\t// in\n            tag_82:\n                /* \"ApplicantPool.sol\":3154:3168  applicantVotes */\n              0x01\n                /* \"ApplicantPool.sol\":3154:3180  applicantVotes[msg.sender] */\n              0x00\n                /* \"ApplicantPool.sol\":3169:3179  msg.sender */\n              caller\n                /* \"ApplicantPool.sol\":3154:3180  applicantVotes[msg.sender] */\n              0xffffffffffffffffffffffffffffffffffffffff\n              and\n              0xffffffffffffffffffffffffffffffffffffffff\n              and\n              dup2\n              mstore\n              0x20\n              add\n              swap1\n              dup2\n              mstore\n              0x20\n              add\n              0x00\n              keccak256\n              0x00\n                /* \"ApplicantPool.sol\":3147:3180  delete applicantVotes[msg.sender] */\n              tag_84\n              swap2\n              swap1\n              tag_85\n              jump\t// in\n            tag_84:\n                /* \"ApplicantPool.sol\":2893:3188  function approveApplicant(address applicant)... */\n              pop\n              pop\n              jump\t// out\n                /* \"ApplicantPool.sol\":3196:3550  function rejectApplicant(address applicant)... */\n            tag_25:\n                /* \"ApplicantPool.sol\":3280:3290  msg.sender */\n              caller\n                /* \"ApplicantPool.sol\":1062:1079  memberPoolAddress */\n              0x07\n              0x00\n              swap1\n              sload\n              swap1\n              0x0100\n              exp\n              swap1\n              div\n              0xffffffffffffffffffffffffffffffffffffffff\n              and\n                /* \"ApplicantPool.sol\":1052:1079  sender == memberPoolAddress */\n              0xffffffffffffffffffffffffffffffffffffffff\n              and\n                /* \"ApplicantPool.sol\":1052:1058  sender */\n              dup2\n                /* \"ApplicantPool.sol\":1052:1079  sender == memberPoolAddress */\n              0xffffffffffffffffffffffffffffffffffffffff\n              and\n              eq\n                /* \"ApplicantPool.sol\":1044:1097  require(sender == memberPoolAddress, \"Access Denied\") */\n              tag_87\n              jumpi\n              mload(0x40)\n              0x08c379a000000000000000000000000000000000000000000000000000000000\n              dup2\n              mstore\n              0x04\n              add\n              tag_88\n              swap1\n              tag_75\n              jump\t// in\n            tag_88:\n              mload(0x40)\n              dup1\n              swap2\n              sub\n              swap1\n              revert\n            tag_87:\n                /* \"ApplicantPool.sol\":3316:3332  activeApplicants */\n              0x03\n                /* \"ApplicantPool.sol\":3316:3343  activeApplicants[applicant] */\n              0x00\n                /* \"ApplicantPool.sol\":3333:3342  applicant */\n              dup4\n                /* \"ApplicantPool.sol\":3316:3343  activeApplicants[applicant] */\n              0xffffffffffffffffffffffffffffffffffffffff\n              and\n              0xffffffffffffffffffffffffffffffffffffffff\n              and\n              dup2\n              mstore\n              0x20\n              add\n              swap1\n              dup2\n              mstore\n              0x20\n              add\n              0x00\n              keccak256\n              0x00\n              swap1\n              sload\n              swap1\n              0x0100\n              exp\n              swap1\n              div\n              0xff\n              and\n                /* \"ApplicantPool.sol\":3308:3373  require(activeApplicants[applicant], \"Invalid applicant address\") */\n              tag_90\n              jumpi\n              mload(0x40)\n              0x08c379a000000000000000000000000000000000000000000000000000000000\n              dup2\n              mstore\n              0x04\n              add\n              tag_91\n              swap1\n              tag_92\n              jump\t// in\n            tag_91:\n              mload(0x40)\n              dup1\n              swap2\n              sub\n              swap1\n              revert\n            tag_90:\n                /* \"ApplicantPool.sol\":3414:3419  false */\n              0x00\n                /* \"ApplicantPool.sol\":3384:3400  activeApplicants */\n              0x03\n                /* \"ApplicantPool.sol\":3384:3411  activeApplicants[applicant] */\n              0x00\n                /* \"ApplicantPool.sol\":3401:3410  applicant */\n              dup5\n                /* \"ApplicantPool.sol\":3384:3411  activeApplicants[applicant] */\n              0xffffffffffffffffffffffffffffffffffffffff\n              and\n              0xffffffffffffffffffffffffffffffffffffffff\n              and\n              dup2\n              mstore\n              0x20\n              add\n              swap1\n              dup2\n              mstore\n              0x20\n              add\n              0x00\n              keccak256\n              0x00\n                /* \"ApplicantPool.sol\":3384:3419  activeApplicants[applicant] = false */\n              0x0100\n              exp\n              dup2\n              sload\n              dup2\n              0xff\n              mul\n              not\n              and\n              swap1\n              dup4\n              iszero\n              iszero\n              mul\n              or\n              swap1\n              sstore\n              pop\n                /* \"ApplicantPool.sol\":3461:3462  1 */\n              0x01\n                /* \"ApplicantPool.sol\":3430:3445  applicantPoints */\n              0x02\n                /* \"ApplicantPool.sol\":3430:3457  applicantPoints[msg.sender] */\n              0x00\n                /* \"ApplicantPool.sol\":3446:3456  msg.sender */\n              caller\n                /* \"ApplicantPool.sol\":3430:3457  applicantPoints[msg.sender] */\n              0xffffffffffffffffffffffffffffffffffffffff\n              and\n              0xffffffffffffffffffffffffffffffffffffffff\n              and\n              dup2\n              mstore\n              0x20\n              add\n              swap1\n              dup2\n              mstore\n              0x20\n              add\n              0x00\n              keccak256\n              0x00\n                /* \"ApplicantPool.sol\":3430:3462  applicantPoints[msg.sender] -= 1 */\n              dup3\n              dup3\n              sload\n              tag_93\n              swap2\n              swap1\n              tag_94\n              jump\t// in\n            tag_93:\n              swap3\n              pop\n              pop\n              dup2\n              swap1\n              sstore\n              pop\n                /* \"ApplicantPool.sol\":3473:3498  _burnApplicant(applicant) */\n              tag_95\n                /* \"ApplicantPool.sol\":3488:3497  applicant */\n              dup3\n                /* \"ApplicantPool.sol\":3473:3487  _burnApplicant */\n              tag_83\n                /* \"ApplicantPool.sol\":3473:3498  _burnApplicant(applicant) */\n              jump\t// in\n            tag_95:\n                /* \"ApplicantPool.sol\":3516:3530  applicantVotes */\n              0x01\n                /* \"ApplicantPool.sol\":3516:3542  applicantVotes[msg.sender] */\n              0x00\n                /* \"ApplicantPool.sol\":3531:3541  msg.sender */\n              caller\n                /* \"ApplicantPool.sol\":3516:3542  applicantVotes[msg.sender] */\n              0xffffffffffffffffffffffffffffffffffffffff\n              and\n              0xffffffffffffffffffffffffffffffffffffffff\n              and\n              dup2\n              mstore\n              0x20\n              add\n              swap1\n              dup2\n              mstore\n              0x20\n              add\n              0x00\n              keccak256\n              0x00\n                /* \"ApplicantPool.sol\":3509:3542  delete applicantVotes[msg.sender] */\n              tag_96\n              swap2\n              swap1\n              tag_85\n              jump\t// in\n            tag_96:\n                /* \"ApplicantPool.sol\":3196:3550  function rejectApplicant(address applicant)... */\n              pop\n              pop\n              jump\t// out\n                /* \"ApplicantPool.sol\":1807:2330  function voteForApplicant(address applicant) public memberOnly(msg.sender) {... */\n            tag_28:\n                /* \"ApplicantPool.sol\":1870:1880  msg.sender */\n              caller\n                /* \"ApplicantPool.sol\":874:877  map */\n              0x06\n              0x00\n              swap1\n              sload\n              swap1\n              0x0100\n              exp\n              swap1\n              div\n              0xffffffffffffffffffffffffffffffffffffffff\n              and\n                /* \"ApplicantPool.sol\":874:886  map.isMember */\n              0xffffffffffffffffffffffffffffffffffffffff\n              and\n              0x39ac7a08\n                /* \"ApplicantPool.sol\":887:893  sender */\n              dup3\n                /* \"ApplicantPool.sol\":895:912  memberPoolAddress */\n              0x07\n              0x00\n              swap1\n              sload\n              swap1\n              0x0100\n              exp\n              swap1\n              div\n              0xffffffffffffffffffffffffffffffffffffffff\n              and\n                /* \"ApplicantPool.sol\":874:913  map.isMember(sender, memberPoolAddress) */\n              mload(0x40)\n              dup4\n              0xffffffff\n              and\n              0xe0\n              shl\n              dup2\n              mstore\n              0x04\n              add\n              tag_98\n              swap3\n              swap2\n              swap1\n              tag_57\n              jump\t// in\n            tag_98:\n              0x20\n              mload(0x40)\n              dup1\n              dup4\n              sub\n              dup2\n              dup7\n              gas\n              staticcall\n              iszero\n              dup1\n              iszero\n              tag_100\n              jumpi\n              returndatasize\n              0x00\n              dup1\n              returndatacopy\n              revert(0x00, returndatasize)\n            tag_100:\n              pop\n              pop\n              pop\n              pop\n              mload(0x40)\n              returndatasize\n              not(0x1f)\n              0x1f\n              dup3\n              add\n              and\n              dup3\n              add\n              dup1\n              0x40\n              mstore\n              pop\n              dup2\n              add\n              swap1\n              tag_101\n              swap2\n              swap1\n              tag_61\n              jump\t// in\n            tag_101:\n                /* \"ApplicantPool.sol\":852:965  require(... */\n              tag_102\n              jumpi\n              mload(0x40)\n              0x08c379a000000000000000000000000000000000000000000000000000000000\n              dup2\n              mstore\n              0x04\n              add\n              tag_103\n              swap1\n              tag_64\n              jump\t// in\n            tag_103:\n              mload(0x40)\n              dup1\n              swap2\n              sub\n              swap1\n              revert\n            tag_102:\n                /* \"ApplicantPool.sol\":1901:1917  activeApplicants */\n              0x03\n                /* \"ApplicantPool.sol\":1901:1928  activeApplicants[applicant] */\n              0x00\n                /* \"ApplicantPool.sol\":1918:1927  applicant */\n              dup4\n                /* \"ApplicantPool.sol\":1901:1928  activeApplicants[applicant] */\n              0xffffffffffffffffffffffffffffffffffffffff\n              and\n              0xffffffffffffffffffffffffffffffffffffffff\n              and\n              dup2\n              mstore\n              0x20\n              add\n              swap1\n              dup2\n              mstore\n              0x20\n              add\n              0x00\n              keccak256\n              0x00\n              swap1\n              sload\n              swap1\n              0x0100\n              exp\n              swap1\n              div\n              0xff\n              and\n                /* \"ApplicantPool.sol\":1893:1948  require(activeApplicants[applicant], \"Not a applicant\") */\n              tag_105\n              jumpi\n              mload(0x40)\n              0x08c379a000000000000000000000000000000000000000000000000000000000\n              dup2\n              mstore\n              0x04\n              add\n              tag_106\n              swap1\n              tag_107\n              jump\t// in\n            tag_106:\n              mload(0x40)\n              dup1\n              swap2\n              sub\n              swap1\n              revert\n            tag_105:\n                /* \"ApplicantPool.sol\":1959:1971  bool didVote */\n              0x00\n                /* \"ApplicantPool.sol\":1995:2004  uint256 i */\n              dup1\n                /* \"ApplicantPool.sol\":1990:2176  for (uint256 i = 0; i < applicantVotes[applicant].length; i++) {... */\n            tag_108:\n                /* \"ApplicantPool.sol\":2014:2028  applicantVotes */\n              0x01\n                /* \"ApplicantPool.sol\":2014:2039  applicantVotes[applicant] */\n              0x00\n                /* \"ApplicantPool.sol\":2029:2038  applicant */\n              dup6\n                /* \"ApplicantPool.sol\":2014:2039  applicantVotes[applicant] */\n              0xffffffffffffffffffffffffffffffffffffffff\n              and\n              0xffffffffffffffffffffffffffffffffffffffff\n              and\n              dup2\n              mstore\n              0x20\n              add\n              swap1\n              dup2\n              mstore\n              0x20\n              add\n              0x00\n              keccak256\n                /* \"ApplicantPool.sol\":2014:2046  applicantVotes[applicant].length */\n              dup1\n              sload\n              swap1\n              pop\n                /* \"ApplicantPool.sol\":2010:2011  i */\n              dup2\n                /* \"ApplicantPool.sol\":2010:2046  i < applicantVotes[applicant].length */\n              lt\n                /* \"ApplicantPool.sol\":1990:2176  for (uint256 i = 0; i < applicantVotes[applicant].length; i++) {... */\n              iszero\n              tag_109\n              jumpi\n                /* \"ApplicantPool.sol\":2104:2114  msg.sender */\n              caller\n                /* \"ApplicantPool.sol\":2072:2114  applicantVotes[applicant][i] == msg.sender */\n              0xffffffffffffffffffffffffffffffffffffffff\n              and\n                /* \"ApplicantPool.sol\":2072:2086  applicantVotes */\n              0x01\n                /* \"ApplicantPool.sol\":2072:2097  applicantVotes[applicant] */\n              0x00\n                /* \"ApplicantPool.sol\":2087:2096  applicant */\n              dup7\n                /* \"ApplicantPool.sol\":2072:2097  applicantVotes[applicant] */\n              0xffffffffffffffffffffffffffffffffffffffff\n              and\n              0xffffffffffffffffffffffffffffffffffffffff\n              and\n              dup2\n              mstore\n              0x20\n              add\n              swap1\n              dup2\n              mstore\n              0x20\n              add\n              0x00\n              keccak256\n                /* \"ApplicantPool.sol\":2098:2099  i */\n              dup3\n                /* \"ApplicantPool.sol\":2072:2100  applicantVotes[applicant][i] */\n              dup2\n              sload\n              dup2\n              lt\n              tag_111\n              jumpi\n              tag_112\n              tag_113\n              jump\t// in\n            tag_112:\n            tag_111:\n              swap1\n              0x00\n              mstore\n              keccak256(0x00, 0x20)\n              add\n              0x00\n              swap1\n              sload\n              swap1\n              0x0100\n              exp\n              swap1\n              div\n              0xffffffffffffffffffffffffffffffffffffffff\n              and\n                /* \"ApplicantPool.sol\":2072:2114  applicantVotes[applicant][i] == msg.sender */\n              0xffffffffffffffffffffffffffffffffffffffff\n              and\n              sub\n                /* \"ApplicantPool.sol\":2068:2165  if (applicantVotes[applicant][i] == msg.sender) {... */\n              tag_115\n              jumpi\n                /* \"ApplicantPool.sol\":2145:2149  true */\n              0x01\n                /* \"ApplicantPool.sol\":2135:2149  didVote = true */\n              swap2\n              pop\n                /* \"ApplicantPool.sol\":2068:2165  if (applicantVotes[applicant][i] == msg.sender) {... */\n            tag_115:\n                /* \"ApplicantPool.sol\":2048:2051  i++ */\n              dup1\n              dup1\n              tag_116\n              swap1\n              tag_117\n              jump\t// in\n            tag_116:\n              swap2\n              pop\n              pop\n                /* \"ApplicantPool.sol\":1990:2176  for (uint256 i = 0; i < applicantVotes[applicant].length; i++) {... */\n              jump(tag_108)\n            tag_109:\n              pop\n                /* \"ApplicantPool.sol\":2195:2202  didVote */\n              dup1\n                /* \"ApplicantPool.sol\":2194:2202  !didVote */\n              iszero\n                /* \"ApplicantPool.sol\":2186:2227  require(!didVote, \"Sender already voted\") */\n              tag_118\n              jumpi\n              mload(0x40)\n              0x08c379a000000000000000000000000000000000000000000000000000000000\n              dup2\n              mstore\n              0x04\n              add\n              tag_119\n              swap1\n              tag_120\n              jump\t// in\n            tag_119:\n              mload(0x40)\n              dup1\n              swap2\n              sub\n              swap1\n              revert\n            tag_118:\n                /* \"ApplicantPool.sol\":2238:2252  applicantVotes */\n              0x01\n                /* \"ApplicantPool.sol\":2238:2263  applicantVotes[applicant] */\n              0x00\n                /* \"ApplicantPool.sol\":2253:2262  applicant */\n              dup5\n                /* \"ApplicantPool.sol\":2238:2263  applicantVotes[applicant] */\n              0xffffffffffffffffffffffffffffffffffffffff\n              and\n              0xffffffffffffffffffffffffffffffffffffffff\n              and\n              dup2\n              mstore\n              0x20\n              add\n              swap1\n              dup2\n              mstore\n              0x20\n              add\n              0x00\n              keccak256\n                /* \"ApplicantPool.sol\":2269:2279  msg.sender */\n              caller\n                /* \"ApplicantPool.sol\":2238:2280  applicantVotes[applicant].push(msg.sender) */\n              swap1\n              dup1\n              0x01\n              dup2\n              sload\n              add\n              dup1\n              dup3\n              sstore\n              dup1\n              swap2\n              pop\n              pop\n              0x01\n              swap1\n              sub\n              swap1\n              0x00\n              mstore\n              keccak256(0x00, 0x20)\n              add\n              0x00\n              swap1\n              swap2\n              swap1\n              swap2\n              swap1\n              swap2\n              0x0100\n              exp\n              dup2\n              sload\n              dup2\n              0xffffffffffffffffffffffffffffffffffffffff\n              mul\n              not\n              and\n              swap1\n              dup4\n              0xffffffffffffffffffffffffffffffffffffffff\n              and\n              mul\n              or\n              swap1\n              sstore\n              pop\n                /* \"ApplicantPool.sol\":2321:2322  1 */\n              0x01\n                /* \"ApplicantPool.sol\":2291:2306  applicantPoints */\n              0x02\n                /* \"ApplicantPool.sol\":2291:2317  applicantPoints[applicant] */\n              0x00\n                /* \"ApplicantPool.sol\":2307:2316  applicant */\n              dup6\n                /* \"ApplicantPool.sol\":2291:2317  applicantPoints[applicant] */\n              0xffffffffffffffffffffffffffffffffffffffff\n              and\n              0xffffffffffffffffffffffffffffffffffffffff\n              and\n              dup2\n              mstore\n              0x20\n              add\n              swap1\n              dup2\n              mstore\n              0x20\n              add\n              0x00\n              keccak256\n              0x00\n                /* \"ApplicantPool.sol\":2291:2322  applicantPoints[applicant] += 1 */\n              dup3\n              dup3\n              sload\n              tag_122\n              swap2\n              swap1\n              tag_123\n              jump\t// in\n            tag_122:\n              swap3\n              pop\n              pop\n              dup2\n              swap1\n              sstore\n              pop\n                /* \"ApplicantPool.sol\":1882:2330  {... */\n              pop\n                /* \"ApplicantPool.sol\":1807:2330  function voteForApplicant(address applicant) public memberOnly(msg.sender) {... */\n              pop\n              pop\n              jump\t// out\n                /* \"ApplicantPool.sol\":1125:1292  function getApplicants()... */\n            tag_30:\n                /* \"ApplicantPool.sol\":1230:1246  address[] memory */\n              0x60\n                /* \"ApplicantPool.sol\":1200:1210  msg.sender */\n              caller\n                /* \"ApplicantPool.sol\":874:877  map */\n              0x06\n              0x00\n              swap1\n              sload\n              swap1\n              0x0100\n              exp\n              swap1\n              div\n              0xffffffffffffffffffffffffffffffffffffffff\n              and\n                /* \"ApplicantPool.sol\":874:886  map.isMember */\n              0xffffffffffffffffffffffffffffffffffffffff\n              and\n              0x39ac7a08\n                /* \"ApplicantPool.sol\":887:893  sender */\n              dup3\n                /* \"ApplicantPool.sol\":895:912  memberPoolAddress */\n              0x07\n              0x00\n              swap1\n              sload\n              swap1\n              0x0100\n              exp\n              swap1\n              div\n              0xffffffffffffffffffffffffffffffffffffffff\n              and\n                /* \"ApplicantPool.sol\":874:913  map.isMember(sender, memberPoolAddress) */\n              mload(0x40)\n              dup4\n              0xffffffff\n              and\n              0xe0\n              shl\n              dup2\n              mstore\n              0x04\n              add\n              tag_125\n              swap3\n              swap2\n              swap1\n              tag_57\n              jump\t// in\n            tag_125:\n              0x20\n              mload(0x40)\n              dup1\n              dup4\n              sub\n              dup2\n              dup7\n              gas\n              staticcall\n              iszero\n              dup1\n              iszero\n              tag_127\n              jumpi\n              returndatasize\n              0x00\n              dup1\n              returndatacopy\n              revert(0x00, returndatasize)\n            tag_127:\n              pop\n              pop\n              pop\n              pop\n              mload(0x40)\n              returndatasize\n              not(0x1f)\n              0x1f\n              dup3\n              add\n              and\n              dup3\n              add\n              dup1\n              0x40\n              mstore\n              pop\n              dup2\n              add\n              swap1\n              tag_128\n              swap2\n              swap1\n              tag_61\n              jump\t// in\n            tag_128:\n                /* \"ApplicantPool.sol\":852:965  require(... */\n              tag_129\n              jumpi\n              mload(0x40)\n              0x08c379a000000000000000000000000000000000000000000000000000000000\n              dup2\n              mstore\n              0x04\n              add\n              tag_130\n              swap1\n              tag_64\n              jump\t// in\n            tag_130:\n              mload(0x40)\n              dup1\n              swap2\n              sub\n              swap1\n              revert\n            tag_129:\n                /* \"ApplicantPool.sol\":1271:1284  applicantList */\n              0x00\n                /* \"ApplicantPool.sol\":1264:1284  return applicantList */\n              dup1\n              sload\n              dup1\n              0x20\n              mul\n              0x20\n              add\n              mload(0x40)\n              swap1\n              dup2\n              add\n              0x40\n              mstore\n              dup1\n              swap3\n              swap2\n              swap1\n              dup2\n              dup2\n              mstore\n              0x20\n              add\n              dup3\n              dup1\n              sload\n              dup1\n              iszero\n              tag_132\n              jumpi\n              0x20\n              mul\n              dup3\n              add\n              swap2\n              swap1\n              0x00\n              mstore\n              keccak256(0x00, 0x20)\n              swap1\n            tag_133:\n              dup2\n              0x00\n              swap1\n              sload\n              swap1\n              0x0100\n              exp\n              swap1\n              div\n              0xffffffffffffffffffffffffffffffffffffffff\n              and\n              0xffffffffffffffffffffffffffffffffffffffff\n              and\n              dup2\n              mstore\n              0x20\n              add\n              swap1\n              0x01\n              add\n              swap1\n              dup1\n              dup4\n              gt\n              tag_133\n              jumpi\n            tag_132:\n              pop\n              pop\n              pop\n              pop\n              pop\n              swap2\n              pop\n                /* \"ApplicantPool.sol\":1125:1292  function getApplicants()... */\n              pop\n              swap1\n              jump\t// out\n                /* \"ApplicantPool.sol\":277:307  address[] public applicantList */\n            tag_36:\n              0x00\n              dup2\n              dup2\n              sload\n              dup2\n              lt\n              tag_134\n              jumpi\n              0x00\n              dup1\n              revert\n            tag_134:\n              swap1\n              0x00\n              mstore\n              keccak256(0x00, 0x20)\n              add\n              0x00\n              swap2\n              pop\n              sload\n              swap1\n              0x0100\n              exp\n              swap1\n              div\n              0xffffffffffffffffffffffffffffffffffffffff\n              and\n              dup2\n              jump\t// out\n                /* \"ApplicantPool.sol\":2338:2500  function getApplicantVoteEndDate(address applicant)... */\n            tag_41:\n                /* \"ApplicantPool.sol\":2438:2445  uint256 */\n              0x00\n                /* \"ApplicantPool.sol\":2470:2481  voteEndTime */\n              0x05\n                /* \"ApplicantPool.sol\":2470:2492  voteEndTime[applicant] */\n              0x00\n                /* \"ApplicantPool.sol\":2482:2491  applicant */\n              dup4\n                /* \"ApplicantPool.sol\":2470:2492  voteEndTime[applicant] */\n              0xffffffffffffffffffffffffffffffffffffffff\n              and\n              0xffffffffffffffffffffffffffffffffffffffff\n              and\n              dup2\n              mstore\n              0x20\n              add\n              swap1\n              dup2\n              mstore\n              0x20\n              add\n              0x00\n              keccak256\n              sload\n                /* \"ApplicantPool.sol\":2463:2492  return voteEndTime[applicant] */\n              swap1\n              pop\n                /* \"ApplicantPool.sol\":2338:2500  function getApplicantVoteEndDate(address applicant)... */\n              swap2\n              swap1\n              pop\n              jump\t// out\n                /* \"ApplicantPool.sol\":2713:2885  function getApplicantVoteCount(address applicant)... */\n            tag_46:\n                /* \"ApplicantPool.sol\":2813:2820  uint256 */\n              0x00\n                /* \"ApplicantPool.sol\":2845:2859  applicantVotes */\n              0x01\n                /* \"ApplicantPool.sol\":2845:2870  applicantVotes[applicant] */\n              0x00\n                /* \"ApplicantPool.sol\":2860:2869  applicant */\n              dup4\n                /* \"ApplicantPool.sol\":2845:2870  applicantVotes[applicant] */\n              0xffffffffffffffffffffffffffffffffffffffff\n              and\n              0xffffffffffffffffffffffffffffffffffffffff\n              and\n              dup2\n              mstore\n              0x20\n              add\n              swap1\n              dup2\n              mstore\n              0x20\n              add\n              0x00\n              keccak256\n                /* \"ApplicantPool.sol\":2845:2877  applicantVotes[applicant].length */\n              dup1\n              sload\n              swap1\n              pop\n                /* \"ApplicantPool.sol\":2838:2877  return applicantVotes[applicant].length */\n              swap1\n              pop\n                /* \"ApplicantPool.sol\":2713:2885  function getApplicantVoteCount(address applicant)... */\n              swap2\n              swap1\n              pop\n              jump\t// out\n                /* \"ApplicantPool.sol\":3927:4049  function setMemberPoolAddress(address _memberPoolAddress) public {... */\n            tag_50:\n                /* \"ApplicantPool.sol\":4023:4041  _memberPoolAddress */\n              dup1\n                /* \"ApplicantPool.sol\":4003:4020  memberPoolAddress */\n              0x07\n              0x00\n                /* \"ApplicantPool.sol\":4003:4041  memberPoolAddress = _memberPoolAddress */\n              0x0100\n              exp\n              dup2\n              sload\n              dup2\n              0xffffffffffffffffffffffffffffffffffffffff\n              mul\n              not\n              and\n              swap1\n              dup4\n              0xffffffffffffffffffffffffffffffffffffffff\n              and\n              mul\n              or\n              swap1\n              sstore\n              pop\n                /* \"ApplicantPool.sol\":3927:4049  function setMemberPoolAddress(address _memberPoolAddress) public {... */\n              pop\n              jump\t// out\n                /* \"ApplicantPool.sol\":1300:1799  function createApplicant(string calldata reason) public {... */\n            tag_54:\n                /* \"ApplicantPool.sol\":1390:1393  map */\n              0x06\n              0x00\n              swap1\n              sload\n              swap1\n              0x0100\n              exp\n              swap1\n              div\n              0xffffffffffffffffffffffffffffffffffffffff\n              and\n                /* \"ApplicantPool.sol\":1390:1402  map.isMember */\n              0xffffffffffffffffffffffffffffffffffffffff\n              and\n              0x39ac7a08\n                /* \"ApplicantPool.sol\":1403:1413  msg.sender */\n              caller\n                /* \"ApplicantPool.sol\":1415:1432  memberPoolAddress */\n              0x07\n              0x00\n              swap1\n              sload\n              swap1\n              0x0100\n              exp\n              swap1\n              div\n              0xffffffffffffffffffffffffffffffffffffffff\n              and\n                /* \"ApplicantPool.sol\":1390:1433  map.isMember(msg.sender, memberPoolAddress) */\n              mload(0x40)\n              dup4\n              0xffffffff\n              and\n              0xe0\n              shl\n              dup2\n              mstore\n              0x04\n              add\n              tag_140\n              swap3\n              swap2\n              swap1\n              tag_57\n              jump\t// in\n            tag_140:\n              0x20\n              mload(0x40)\n              dup1\n              dup4\n              sub\n              dup2\n              dup7\n              gas\n              staticcall\n              iszero\n              dup1\n              iszero\n              tag_142\n              jumpi\n              returndatasize\n              0x00\n              dup1\n              returndatacopy\n              revert(0x00, returndatasize)\n            tag_142:\n              pop\n              pop\n              pop\n              pop\n              mload(0x40)\n              returndatasize\n              not(0x1f)\n              0x1f\n              dup3\n              add\n              and\n              dup3\n              add\n              dup1\n              0x40\n              mstore\n              pop\n              dup2\n              add\n              swap1\n              tag_143\n              swap2\n              swap1\n              tag_61\n              jump\t// in\n            tag_143:\n                /* \"ApplicantPool.sol\":1389:1433  !map.isMember(msg.sender, memberPoolAddress) */\n              iszero\n                /* \"ApplicantPool.sol\":1367:1482  require(... */\n              tag_144\n              jumpi\n              mload(0x40)\n              0x08c379a000000000000000000000000000000000000000000000000000000000\n              dup2\n              mstore\n              0x04\n              add\n              tag_145\n              swap1\n              tag_146\n              jump\t// in\n            tag_145:\n              mload(0x40)\n              dup1\n              swap2\n              sub\n              swap1\n              revert\n            tag_144:\n                /* \"ApplicantPool.sol\":1502:1518  activeApplicants */\n              0x03\n                /* \"ApplicantPool.sol\":1502:1530  activeApplicants[msg.sender] */\n              0x00\n                /* \"ApplicantPool.sol\":1519:1529  msg.sender */\n              caller\n                /* \"ApplicantPool.sol\":1502:1530  activeApplicants[msg.sender] */\n              0xffffffffffffffffffffffffffffffffffffffff\n              and\n              0xffffffffffffffffffffffffffffffffffffffff\n              and\n              dup2\n              mstore\n              0x20\n              add\n              swap1\n              dup2\n              mstore\n              0x20\n              add\n              0x00\n              keccak256\n              0x00\n              swap1\n              sload\n              swap1\n              0x0100\n              exp\n              swap1\n              div\n              0xff\n              and\n                /* \"ApplicantPool.sol\":1501:1530  !activeApplicants[msg.sender] */\n              iszero\n                /* \"ApplicantPool.sol\":1493:1559  require(!activeApplicants[msg.sender], \"Already active applicant\") */\n              tag_147\n              jumpi\n              mload(0x40)\n              0x08c379a000000000000000000000000000000000000000000000000000000000\n              dup2\n              mstore\n              0x04\n              add\n              tag_148\n              swap1\n              tag_149\n              jump\t// in\n            tag_148:\n              mload(0x40)\n              dup1\n              swap2\n              sub\n              swap1\n              revert\n            tag_147:\n                /* \"ApplicantPool.sol\":1608:1610  -3 */\n              0xfffffffffffffffffffffffffffffffffffffffffffffffffffffffffffffffd\n                /* \"ApplicantPool.sol\":1578:1593  applicantPoints */\n              0x02\n                /* \"ApplicantPool.sol\":1578:1605  applicantPoints[msg.sender] */\n              0x00\n                /* \"ApplicantPool.sol\":1594:1604  msg.sender */\n              caller\n                /* \"ApplicantPool.sol\":1578:1605  applicantPoints[msg.sender] */\n              0xffffffffffffffffffffffffffffffffffffffff\n              and\n              0xffffffffffffffffffffffffffffffffffffffff\n              and\n              dup2\n              mstore\n              0x20\n              add\n              swap1\n              dup2\n              mstore\n              0x20\n              add\n              0x00\n              keccak256\n              sload\n                /* \"ApplicantPool.sol\":1578:1610  applicantPoints[msg.sender] > -3 */\n              sgt\n                /* \"ApplicantPool.sol\":1570:1631  require(applicantPoints[msg.sender] > -3, \"account rejected\") */\n              tag_150\n              jumpi\n              mload(0x40)\n              0x08c379a000000000000000000000000000000000000000000000000000000000\n              dup2\n              mstore\n              0x04\n              add\n              tag_151\n              swap1\n              tag_152\n              jump\t// in\n            tag_151:\n              mload(0x40)\n              dup1\n              swap2\n              sub\n              swap1\n              revert\n            tag_150:\n                /* \"ApplicantPool.sol\":1671:1677  reason */\n              dup2\n              dup2\n                /* \"ApplicantPool.sol\":1642:1656  applicantWords */\n              0x04\n                /* \"ApplicantPool.sol\":1642:1668  applicantWords[msg.sender] */\n              0x00\n                /* \"ApplicantPool.sol\":1657:1667  msg.sender */\n              caller\n                /* \"ApplicantPool.sol\":1642:1668  applicantWords[msg.sender] */\n              0xffffffffffffffffffffffffffffffffffffffff\n              and\n              0xffffffffffffffffffffffffffffffffffffffff\n              and\n              dup2\n              mstore\n              0x20\n              add\n              swap1\n              dup2\n              mstore\n              0x20\n              add\n              0x00\n              keccak256\n                /* \"ApplicantPool.sol\":1642:1677  applicantWords[msg.sender] = reason */\n              swap2\n              dup3\n              tag_153\n              swap3\n              swap2\n              swap1\n              tag_154\n              jump\t// in\n            tag_153:\n              pop\n                /* \"ApplicantPool.sol\":1688:1701  applicantList */\n              0x00\n                /* \"ApplicantPool.sol\":1707:1717  msg.sender */\n              caller\n                /* \"ApplicantPool.sol\":1688:1718  applicantList.push(msg.sender) */\n              swap1\n              dup1\n              0x01\n              dup2\n              sload\n              add\n              dup1\n              dup3\n              sstore\n              dup1\n              swap2\n              pop\n              pop\n              0x01\n              swap1\n              sub\n              swap1\n              0x00\n              mstore\n              keccak256(0x00, 0x20)\n              add\n              0x00\n              swap1\n              swap2\n              swap1\n              swap2\n              swap1\n              swap2\n              0x0100\n              exp\n              dup2\n              sload\n              dup2\n              0xffffffffffffffffffffffffffffffffffffffff\n              mul\n              not\n              and\n              swap1\n              dup4\n              0xffffffffffffffffffffffffffffffffffffffff\n              and\n              mul\n              or\n              swap1\n              sstore\n              pop\n                /* \"ApplicantPool.sol\":1773:1782  259200000 */\n              0x0f731400\n                /* \"ApplicantPool.sol\":1755:1770  block.timestamp */\n              timestamp\n                /* \"ApplicantPool.sol\":1755:1782  block.timestamp + 259200000 */\n              tag_156\n              swap2\n              swap1\n              tag_157\n              jump\t// in\n            tag_156:\n                /* \"ApplicantPool.sol\":1729:1740  voteEndTime */\n              0x05\n                /* \"ApplicantPool.sol\":1729:1752  voteEndTime[msg.sender] */\n              0x00\n                /* \"ApplicantPool.sol\":1741:1751  msg.sender */\n              caller\n                /* \"ApplicantPool.sol\":1729:1752  voteEndTime[msg.sender] */\n              0xffffffffffffffffffffffffffffffffffffffff\n              and\n              0xffffffffffffffffffffffffffffffffffffffff\n              and\n              dup2\n              mstore\n              0x20\n              add\n              swap1\n              dup2\n              mstore\n              0x20\n              add\n              0x00\n              keccak256\n                /* \"ApplicantPool.sol\":1729:1782  voteEndTime[msg.sender] = block.timestamp + 259200000 */\n              dup2\n              swap1\n              sstore\n              pop\n                /* \"ApplicantPool.sol\":1300:1799  function createApplicant(string calldata reason) public {... */\n              pop\n              pop\n              jump\t// out\n                /* \"ApplicantPool.sol\":3558:3919  function _burnApplicant(address applicant) internal {... */\n            tag_83:\n                /* \"ApplicantPool.sol\":3621:3634  uint256 index */\n              0x00\n                /* \"ApplicantPool.sol\":3649:3809  for (index = 0; index < applicantList.length; index++) {... */\n            tag_159:\n                /* \"ApplicantPool.sol\":3673:3686  applicantList */\n              0x00\n                /* \"ApplicantPool.sol\":3673:3693  applicantList.length */\n              dup1\n              sload\n              swap1\n              pop\n                /* \"ApplicantPool.sol\":3665:3670  index */\n              dup2\n                /* \"ApplicantPool.sol\":3665:3693  index < applicantList.length */\n              lt\n                /* \"ApplicantPool.sol\":3649:3809  for (index = 0; index < applicantList.length; index++) {... */\n              iszero\n              tag_160\n              jumpi\n                /* \"ApplicantPool.sol\":3747:3756  applicant */\n              dup2\n                /* \"ApplicantPool.sol\":3723:3756  applicantList[index] == applicant */\n              0xffffffffffffffffffffffffffffffffffffffff\n              and\n                /* \"ApplicantPool.sol\":3723:3736  applicantList */\n              0x00\n                /* \"ApplicantPool.sol\":3737:3742  index */\n              dup3\n                /* \"ApplicantPool.sol\":3723:3743  applicantList[index] */\n              dup2\n              sload\n              dup2\n              lt\n              tag_162\n              jumpi\n              tag_163\n              tag_113\n              jump\t// in\n            tag_163:\n            tag_162:\n              swap1\n              0x00\n              mstore\n              keccak256(0x00, 0x20)\n              add\n              0x00\n              swap1\n              sload\n              swap1\n              0x0100\n              exp\n              swap1\n              div\n              0xffffffffffffffffffffffffffffffffffffffff\n              and\n                /* \"ApplicantPool.sol\":3723:3756  applicantList[index] == applicant */\n              0xffffffffffffffffffffffffffffffffffffffff\n              and\n              sub\n                /* \"ApplicantPool.sol\":3719:3798  if (applicantList[index] == applicant) {... */\n              iszero\n                /* \"ApplicantPool.sol\":3777:3782  break */\n              tag_160\n                /* \"ApplicantPool.sol\":3719:3798  if (applicantList[index] == applicant) {... */\n              jumpi\n                /* \"ApplicantPool.sol\":3695:3702  index++ */\n              dup1\n              dup1\n              tag_166\n              swap1\n              tag_117\n              jump\t// in\n            tag_166:\n              swap2\n              pop\n              pop\n                /* \"ApplicantPool.sol\":3649:3809  for (index = 0; index < applicantList.length; index++) {... */\n              jump(tag_159)\n            tag_160:\n                /* \"ApplicantPool.sol\":3842:3855  applicantList */\n              0x00\n                /* \"ApplicantPool.sol\":3879:3880  1 */\n              0x01\n                /* \"ApplicantPool.sol\":3856:3869  applicantList */\n              0x00\n                /* \"ApplicantPool.sol\":3856:3876  applicantList.length */\n              dup1\n              sload\n              swap1\n              pop\n                /* \"ApplicantPool.sol\":3856:3880  applicantList.length - 1 */\n              tag_167\n              swap2\n              swap1\n              tag_168\n              jump\t// in\n            tag_167:\n                /* \"ApplicantPool.sol\":3842:3881  applicantList[applicantList.length - 1] */\n              dup2\n              sload\n              dup2\n              lt\n              tag_169\n              jumpi\n              tag_170\n              tag_113\n              jump\t// in\n            tag_170:\n            tag_169:\n              swap1\n              0x00\n              mstore\n              keccak256(0x00, 0x20)\n              add\n              0x00\n              swap1\n              sload\n              swap1\n              0x0100\n              exp\n              swap1\n              div\n              0xffffffffffffffffffffffffffffffffffffffff\n              and\n                /* \"ApplicantPool.sol\":3819:3832  applicantList */\n              0x00\n                /* \"ApplicantPool.sol\":3833:3838  index */\n              dup3\n                /* \"ApplicantPool.sol\":3819:3839  applicantList[index] */\n              dup2\n              sload\n              dup2\n              lt\n              tag_172\n              jumpi\n              tag_173\n              tag_113\n              jump\t// in\n            tag_173:\n            tag_172:\n              swap1\n              0x00\n              mstore\n              keccak256(0x00, 0x20)\n              add\n              0x00\n                /* \"ApplicantPool.sol\":3819:3881  applicantList[index] = applicantList[applicantList.length - 1] */\n              0x0100\n              exp\n              dup2\n              sload\n              dup2\n              0xffffffffffffffffffffffffffffffffffffffff\n              mul\n              not\n              and\n              swap1\n              dup4\n              0xffffffffffffffffffffffffffffffffffffffff\n              and\n              mul\n              or\n              swap1\n              sstore\n              pop\n                /* \"ApplicantPool.sol\":3892:3905  applicantList */\n              0x00\n                /* \"ApplicantPool.sol\":3892:3911  applicantList.pop() */\n              dup1\n              sload\n              dup1\n              tag_175\n              jumpi\n              tag_176\n              tag_177\n              jump\t// in\n            tag_176:\n            tag_175:\n              0x01\n              swap1\n              sub\n              dup2\n              dup2\n              swap1\n              0x00\n              mstore\n              keccak256(0x00, 0x20)\n              add\n              exp(0x0100, 0x00)\n              dup2\n              sload\n              swap1\n              0xffffffffffffffffffffffffffffffffffffffff\n              mul\n              not\n              and\n              swap1\n              sstore\n              swap1\n              sstore\n                /* \"ApplicantPool.sol\":3610:3919  {... */\n              pop\n                /* \"ApplicantPool.sol\":3558:3919  function _burnApplicant(address applicant) internal {... */\n              pop\n              jump\t// out\n            tag_85:\n              pop\n              dup1\n              sload\n              0x00\n              dup3\n              sstore\n              swap1\n              0x00\n              mstore\n              keccak256(0x00, 0x20)\n              swap1\n              dup2\n              add\n              swap1\n              tag_180\n              swap2\n              swap1\n              tag_181\n              jump\t// in\n            tag_180:\n              pop\n              jump\t// out\n            tag_181:\n            tag_182:\n              dup1\n              dup3\n              gt\n              iszero\n              tag_183\n              jumpi\n              0x00\n              dup2\n              0x00\n              swap1\n              sstore\n              pop\n              0x01\n              add\n              jump(tag_182)\n            tag_183:\n              pop\n              swap1\n              jump\t// out\n                /* \"#utility.yul\":88:205   */\n            tag_185:\n                /* \"#utility.yul\":197:198   */\n              0x00\n                /* \"#utility.yul\":194:195   */\n              dup1\n                /* \"#utility.yul\":187:199   */\n              revert\n                /* \"#utility.yul\":211:328   */\n            tag_186:\n                /* \"#utility.yul\":320:321   */\n              0x00\n                /* \"#utility.yul\":317:318   */\n              dup1\n                /* \"#utility.yul\":310:322   */\n              revert\n                /* \"#utility.yul\":334:460   */\n            tag_187:\n                /* \"#utility.yul\":371:378   */\n              0x00\n                /* \"#utility.yul\":411:453   */\n              0xffffffffffffffffffffffffffffffffffffffff\n                /* \"#utility.yul\":404:409   */\n              dup3\n                /* \"#utility.yul\":400:454   */\n              and\n                /* \"#utility.yul\":389:454   */\n              swap1\n              pop\n                /* \"#utility.yul\":334:460   */\n              swap2\n              swap1\n              pop\n              jump\t// out\n                /* \"#utility.yul\":466:562   */\n            tag_188:\n                /* \"#utility.yul\":503:510   */\n              0x00\n                /* \"#utility.yul\":532:556   */\n              tag_257\n                /* \"#utility.yul\":550:555   */\n              dup3\n                /* \"#utility.yul\":532:556   */\n              tag_187\n              jump\t// in\n            tag_257:\n                /* \"#utility.yul\":521:556   */\n              swap1\n              pop\n                /* \"#utility.yul\":466:562   */\n              swap2\n              swap1\n              pop\n              jump\t// out\n                /* \"#utility.yul\":568:690   */\n            tag_189:\n                /* \"#utility.yul\":641:665   */\n              tag_259\n                /* \"#utility.yul\":659:664   */\n              dup2\n                /* \"#utility.yul\":641:665   */\n              tag_188\n              jump\t// in\n            tag_259:\n                /* \"#utility.yul\":634:639   */\n              dup2\n                /* \"#utility.yul\":631:666   */\n              eq\n                /* \"#utility.yul\":621:684   */\n              tag_260\n              jumpi\n                /* \"#utility.yul\":680:681   */\n              0x00\n                /* \"#utility.yul\":677:678   */\n              dup1\n                /* \"#utility.yul\":670:682   */\n              revert\n                /* \"#utility.yul\":621:684   */\n            tag_260:\n                /* \"#utility.yul\":568:690   */\n              pop\n              jump\t// out\n                /* \"#utility.yul\":696:835   */\n            tag_190:\n                /* \"#utility.yul\":742:747   */\n              0x00\n                /* \"#utility.yul\":780:786   */\n              dup2\n                /* \"#utility.yul\":767:787   */\n              calldataload\n                /* \"#utility.yul\":758:787   */\n              swap1\n              pop\n                /* \"#utility.yul\":796:829   */\n              tag_262\n                /* \"#utility.yul\":823:828   */\n              dup2\n                /* \"#utility.yul\":796:829   */\n              tag_189\n              jump\t// in\n            tag_262:\n                /* \"#utility.yul\":696:835   */\n              swap3\n              swap2\n              pop\n              pop\n              jump\t// out\n                /* \"#utility.yul\":841:1170   */\n            tag_16:\n                /* \"#utility.yul\":900:906   */\n              0x00\n                /* \"#utility.yul\":949:951   */\n              0x20\n                /* \"#utility.yul\":937:946   */\n              dup3\n                /* \"#utility.yul\":928:935   */\n              dup5\n                /* \"#utility.yul\":924:947   */\n              sub\n                /* \"#utility.yul\":920:952   */\n              slt\n                /* \"#utility.yul\":917:1036   */\n              iszero\n              tag_264\n              jumpi\n                /* \"#utility.yul\":955:1034   */\n              tag_265\n              tag_185\n              jump\t// in\n            tag_265:\n                /* \"#utility.yul\":917:1036   */\n            tag_264:\n                /* \"#utility.yul\":1075:1076   */\n              0x00\n                /* \"#utility.yul\":1100:1153   */\n              tag_266\n                /* \"#utility.yul\":1145:1152   */\n              dup5\n                /* \"#utility.yul\":1136:1142   */\n              dup3\n                /* \"#utility.yul\":1125:1134   */\n              dup6\n                /* \"#utility.yul\":1121:1143   */\n              add\n                /* \"#utility.yul\":1100:1153   */\n              tag_190\n              jump\t// in\n            tag_266:\n                /* \"#utility.yul\":1090:1153   */\n              swap2\n              pop\n                /* \"#utility.yul\":1046:1163   */\n              pop\n                /* \"#utility.yul\":841:1170   */\n              swap3\n              swap2\n              pop\n              pop\n              jump\t// out\n                /* \"#utility.yul\":1176:1275   */\n            tag_191:\n                /* \"#utility.yul\":1228:1234   */\n              0x00\n                /* \"#utility.yul\":1262:1267   */\n              dup2\n                /* \"#utility.yul\":1256:1268   */\n              mload\n                /* \"#utility.yul\":1246:1268   */\n              swap1\n              pop\n                /* \"#utility.yul\":1176:1275   */\n              swap2\n              swap1\n              pop\n              jump\t// out\n                /* \"#utility.yul\":1281:1450   */\n            tag_192:\n                /* \"#utility.yul\":1365:1376   */\n              0x00\n                /* \"#utility.yul\":1399:1405   */\n              dup3\n                /* \"#utility.yul\":1394:1397   */\n              dup3\n                /* \"#utility.yul\":1387:1406   */\n              mstore\n                /* \"#utility.yul\":1439:1443   */\n              0x20\n                /* \"#utility.yul\":1434:1437   */\n              dup3\n                /* \"#utility.yul\":1430:1444   */\n              add\n                /* \"#utility.yul\":1415:1444   */\n              swap1\n              pop\n                /* \"#utility.yul\":1281:1450   */\n              swap3\n              swap2\n              pop\n              pop\n              jump\t// out\n                /* \"#utility.yul\":1456:1702   */\n            tag_193:\n                /* \"#utility.yul\":1537:1538   */\n              0x00\n                /* \"#utility.yul\":1547:1660   */\n            tag_270:\n                /* \"#utility.yul\":1561:1567   */\n              dup4\n                /* \"#utility.yul\":1558:1559   */\n              dup2\n                /* \"#utility.yul\":1555:1568   */\n              lt\n                /* \"#utility.yul\":1547:1660   */\n              iszero\n              tag_272\n              jumpi\n                /* \"#utility.yul\":1646:1647   */\n              dup1\n                /* \"#utility.yul\":1641:1644   */\n              dup3\n                /* \"#utility.yul\":1637:1648   */\n              add\n                /* \"#utility.yul\":1631:1649   */\n              mload\n                /* \"#utility.yul\":1627:1628   */\n              dup2\n                /* \"#utility.yul\":1622:1625   */\n              dup5\n                /* \"#utility.yul\":1618:1629   */\n              add\n                /* \"#utility.yul\":1611:1650   */\n              mstore\n                /* \"#utility.yul\":1583:1585   */\n              0x20\n                /* \"#utility.yul\":1580:1581   */\n              dup2\n                /* \"#utility.yul\":1576:1586   */\n              add\n                /* \"#utility.yul\":1571:1586   */\n              swap1\n              pop\n                /* \"#utility.yul\":1547:1660   */\n              jump(tag_270)\n            tag_272:\n                /* \"#utility.yul\":1694:1695   */\n              0x00\n                /* \"#utility.yul\":1685:1691   */\n              dup5\n                /* \"#utility.yul\":1680:1683   */\n              dup5\n                /* \"#utility.yul\":1676:1692   */\n              add\n                /* \"#utility.yul\":1669:1696   */\n              mstore\n                /* \"#utility.yul\":1518:1702   */\n              pop\n                /* \"#utility.yul\":1456:1702   */\n              pop\n              pop\n              pop\n              jump\t// out\n                /* \"#utility.yul\":1708:1810   */\n            tag_194:\n                /* \"#utility.yul\":1749:1755   */\n              0x00\n                /* \"#utility.yul\":1800:1802   */\n              0x1f\n                /* \"#utility.yul\":1796:1803   */\n              not\n                /* \"#utility.yul\":1791:1793   */\n              0x1f\n                /* \"#utility.yul\":1784:1789   */\n              dup4\n                /* \"#utility.yul\":1780:1794   */\n              add\n                /* \"#utility.yul\":1776:1804   */\n              and\n                /* \"#utility.yul\":1766:1804   */\n              swap1\n              pop\n                /* \"#utility.yul\":1708:1810   */\n              swap2\n              swap1\n              pop\n              jump\t// out\n                /* \"#utility.yul\":1816:2193   */\n            tag_195:\n                /* \"#utility.yul\":1904:1907   */\n              0x00\n                /* \"#utility.yul\":1932:1971   */\n              tag_275\n                /* \"#utility.yul\":1965:1970   */\n              dup3\n                /* \"#utility.yul\":1932:1971   */\n              tag_191\n              jump\t// in\n            tag_275:\n                /* \"#utility.yul\":1987:2058   */\n              tag_276\n                /* \"#utility.yul\":2051:2057   */\n              dup2\n                /* \"#utility.yul\":2046:2049   */\n              dup6\n                /* \"#utility.yul\":1987:2058   */\n              tag_192\n              jump\t// in\n            tag_276:\n                /* \"#utility.yul\":1980:2058   */\n              swap4\n              pop\n                /* \"#utility.yul\":2067:2132   */\n              tag_277\n                /* \"#utility.yul\":2125:2131   */\n              dup2\n                /* \"#utility.yul\":2120:2123   */\n              dup6\n                /* \"#utility.yul\":2113:2117   */\n              0x20\n                /* \"#utility.yul\":2106:2111   */\n              dup7\n                /* \"#utility.yul\":2102:2118   */\n              add\n                /* \"#utility.yul\":2067:2132   */\n              tag_193\n              jump\t// in\n            tag_277:\n                /* \"#utility.yul\":2157:2186   */\n              tag_278\n                /* \"#utility.yul\":2179:2185   */\n              dup2\n                /* \"#utility.yul\":2157:2186   */\n              tag_194\n              jump\t// in\n            tag_278:\n                /* \"#utility.yul\":2152:2155   */\n              dup5\n                /* \"#utility.yul\":2148:2187   */\n              add\n                /* \"#utility.yul\":2141:2187   */\n              swap2\n              pop\n                /* \"#utility.yul\":1908:2193   */\n              pop\n                /* \"#utility.yul\":1816:2193   */\n              swap3\n              swap2\n              pop\n              pop\n              jump\t// out\n                /* \"#utility.yul\":2199:2512   */\n            tag_19:\n                /* \"#utility.yul\":2312:2316   */\n              0x00\n                /* \"#utility.yul\":2350:2352   */\n              0x20\n                /* \"#utility.yul\":2339:2348   */\n              dup3\n                /* \"#utility.yul\":2335:2353   */\n              add\n                /* \"#utility.yul\":2327:2353   */\n              swap1\n              pop\n                /* \"#utility.yul\":2399:2408   */\n              dup2\n                /* \"#utility.yul\":2393:2397   */\n              dup2\n                /* \"#utility.yul\":2389:2409   */\n              sub\n                /* \"#utility.yul\":2385:2386   */\n              0x00\n                /* \"#utility.yul\":2374:2383   */\n              dup4\n                /* \"#utility.yul\":2370:2387   */\n              add\n                /* \"#utility.yul\":2363:2410   */\n              mstore\n                /* \"#utility.yul\":2427:2505   */\n              tag_280\n                /* \"#utility.yul\":2500:2504   */\n              dup2\n                /* \"#utility.yul\":2491:2497   */\n              dup5\n                /* \"#utility.yul\":2427:2505   */\n              tag_195\n              jump\t// in\n            tag_280:\n                /* \"#utility.yul\":2419:2505   */\n              swap1\n              pop\n                /* \"#utility.yul\":2199:2512   */\n              swap3\n              swap2\n              pop\n              pop\n              jump\t// out\n                /* \"#utility.yul\":2518:2632   */\n            tag_196:\n                /* \"#utility.yul\":2585:2591   */\n              0x00\n                /* \"#utility.yul\":2619:2624   */\n              dup2\n                /* \"#utility.yul\":2613:2625   */\n              mload\n                /* \"#utility.yul\":2603:2625   */\n              swap1\n              pop\n                /* \"#utility.yul\":2518:2632   */\n              swap2\n              swap1\n              pop\n              jump\t// out\n                /* \"#utility.yul\":2638:2822   */\n            tag_197:\n                /* \"#utility.yul\":2737:2748   */\n              0x00\n                /* \"#utility.yul\":2771:2777   */\n              dup3\n                /* \"#utility.yul\":2766:2769   */\n              dup3\n                /* \"#utility.yul\":2759:2778   */\n              mstore\n                /* \"#utility.yul\":2811:2815   */\n              0x20\n                /* \"#utility.yul\":2806:2809   */\n              dup3\n                /* \"#utility.yul\":2802:2816   */\n              add\n                /* \"#utility.yul\":2787:2816   */\n              swap1\n              pop\n                /* \"#utility.yul\":2638:2822   */\n              swap3\n              swap2\n              pop\n              pop\n              jump\t// out\n                /* \"#utility.yul\":2828:2960   */\n            tag_198:\n                /* \"#utility.yul\":2895:2899   */\n              0x00\n                /* \"#utility.yul\":2918:2921   */\n              dup2\n                /* \"#utility.yul\":2910:2921   */\n              swap1\n              pop\n                /* \"#utility.yul\":2948:2952   */\n              0x20\n                /* \"#utility.yul\":2943:2946   */\n              dup3\n                /* \"#utility.yul\":2939:2953   */\n              add\n                /* \"#utility.yul\":2931:2953   */\n              swap1\n              pop\n                /* \"#utility.yul\":2828:2960   */\n              swap2\n              swap1\n              pop\n              jump\t// out\n                /* \"#utility.yul\":2966:3074   */\n            tag_199:\n                /* \"#utility.yul\":3043:3067   */\n              tag_285\n                /* \"#utility.yul\":3061:3066   */\n              dup2\n                /* \"#utility.yul\":3043:3067   */\n              tag_188\n              jump\t// in\n            tag_285:\n                /* \"#utility.yul\":3038:3041   */\n              dup3\n                /* \"#utility.yul\":3031:3068   */\n              mstore\n                /* \"#utility.yul\":2966:3074   */\n              pop\n              pop\n              jump\t// out\n                /* \"#utility.yul\":3080:3259   */\n            tag_200:\n                /* \"#utility.yul\":3149:3159   */\n              0x00\n                /* \"#utility.yul\":3170:3216   */\n              tag_287\n                /* \"#utility.yul\":3212:3215   */\n              dup4\n                /* \"#utility.yul\":3204:3210   */\n              dup4\n                /* \"#utility.yul\":3170:3216   */\n              tag_199\n              jump\t// in\n            tag_287:\n                /* \"#utility.yul\":3248:3252   */\n              0x20\n                /* \"#utility.yul\":3243:3246   */\n              dup4\n                /* \"#utility.yul\":3239:3253   */\n              add\n                /* \"#utility.yul\":3225:3253   */\n              swap1\n              pop\n                /* \"#utility.yul\":3080:3259   */\n              swap3\n              swap2\n              pop\n              pop\n              jump\t// out\n                /* \"#utility.yul\":3265:3378   */\n            tag_201:\n                /* \"#utility.yul\":3335:3339   */\n              0x00\n                /* \"#utility.yul\":3367:3371   */\n              0x20\n                /* \"#utility.yul\":3362:3365   */\n              dup3\n                /* \"#utility.yul\":3358:3372   */\n              add\n                /* \"#utility.yul\":3350:3372   */\n              swap1\n              pop\n                /* \"#utility.yul\":3265:3378   */\n              swap2\n              swap1\n              pop\n              jump\t// out\n                /* \"#utility.yul\":3414:4146   */\n            tag_202:\n                /* \"#utility.yul\":3533:3536   */\n              0x00\n                /* \"#utility.yul\":3562:3616   */\n              tag_290\n                /* \"#utility.yul\":3610:3615   */\n              dup3\n                /* \"#utility.yul\":3562:3616   */\n              tag_196\n              jump\t// in\n            tag_290:\n                /* \"#utility.yul\":3632:3718   */\n              tag_291\n                /* \"#utility.yul\":3711:3717   */\n              dup2\n                /* \"#utility.yul\":3706:3709   */\n              dup6\n                /* \"#utility.yul\":3632:3718   */\n              tag_197\n              jump\t// in\n            tag_291:\n                /* \"#utility.yul\":3625:3718   */\n              swap4\n              pop\n                /* \"#utility.yul\":3742:3798   */\n              tag_292\n                /* \"#utility.yul\":3792:3797   */\n              dup4\n                /* \"#utility.yul\":3742:3798   */\n              tag_198\n              jump\t// in\n            tag_292:\n                /* \"#utility.yul\":3821:3828   */\n              dup1\n                /* \"#utility.yul\":3852:3853   */\n              0x00\n                /* \"#utility.yul\":3837:4121   */\n            tag_293:\n                /* \"#utility.yul\":3862:3868   */\n              dup4\n                /* \"#utility.yul\":3859:3860   */\n              dup2\n                /* \"#utility.yul\":3856:3869   */\n              lt\n                /* \"#utility.yul\":3837:4121   */\n              iszero\n              tag_295\n              jumpi\n                /* \"#utility.yul\":3938:3944   */\n              dup2\n                /* \"#utility.yul\":3932:3945   */\n              mload\n                /* \"#utility.yul\":3965:4028   */\n              tag_296\n                /* \"#utility.yul\":4024:4027   */\n              dup9\n                /* \"#utility.yul\":4009:4022   */\n              dup3\n                /* \"#utility.yul\":3965:4028   */\n              tag_200\n              jump\t// in\n            tag_296:\n                /* \"#utility.yul\":3958:4028   */\n              swap8\n              pop\n                /* \"#utility.yul\":4051:4111   */\n              tag_297\n                /* \"#utility.yul\":4104:4110   */\n              dup4\n                /* \"#utility.yul\":4051:4111   */\n              tag_201\n              jump\t// in\n            tag_297:\n                /* \"#utility.yul\":4041:4111   */\n              swap3\n              pop\n                /* \"#utility.yul\":3897:4121   */\n              pop\n                /* \"#utility.yul\":3884:3885   */\n              0x01\n                /* \"#utility.yul\":3881:3882   */\n              dup2\n                /* \"#utility.yul\":3877:3886   */\n              add\n                /* \"#utility.yul\":3872:3886   */\n              swap1\n              pop\n                /* \"#utility.yul\":3837:4121   */\n              jump(tag_293)\n            tag_295:\n                /* \"#utility.yul\":3841:3855   */\n              pop\n                /* \"#utility.yul\":4137:4140   */\n              dup6\n                /* \"#utility.yul\":4130:4140   */\n              swap4\n              pop\n                /* \"#utility.yul\":3538:4146   */\n              pop\n              pop\n              pop\n                /* \"#utility.yul\":3414:4146   */\n              swap3\n              swap2\n              pop\n              pop\n              jump\t// out\n                /* \"#utility.yul\":4152:4525   */\n            tag_32:\n                /* \"#utility.yul\":4295:4299   */\n              0x00\n                /* \"#utility.yul\":4333:4335   */\n              0x20\n                /* \"#utility.yul\":4322:4331   */\n              dup3\n                /* \"#utility.yul\":4318:4336   */\n              add\n                /* \"#utility.yul\":4310:4336   */\n              swap1\n              pop\n                /* \"#utility.yul\":4382:4391   */\n              dup2\n                /* \"#utility.yul\":4376:4380   */\n              dup2\n                /* \"#utility.yul\":4372:4392   */\n              sub\n                /* \"#utility.yul\":4368:4369   */\n              0x00\n                /* \"#utility.yul\":4357:4366   */\n              dup4\n                /* \"#utility.yul\":4353:4370   */\n              add\n                /* \"#utility.yul\":4346:4393   */\n              mstore\n                /* \"#utility.yul\":4410:4518   */\n              tag_299\n                /* \"#utility.yul\":4513:4517   */\n              dup2\n                /* \"#utility.yul\":4504:4510   */\n              dup5\n                /* \"#utility.yul\":4410:4518   */\n              tag_202\n              jump\t// in\n            tag_299:\n                /* \"#utility.yul\":4402:4518   */\n              swap1\n              pop\n                /* \"#utility.yul\":4152:4525   */\n              swap3\n              swap2\n              pop\n              pop\n              jump\t// out\n                /* \"#utility.yul\":4531:4608   */\n            tag_203:\n                /* \"#utility.yul\":4568:4575   */\n              0x00\n                /* \"#utility.yul\":4597:4602   */\n              dup2\n                /* \"#utility.yul\":4586:4602   */\n              swap1\n              pop\n                /* \"#utility.yul\":4531:4608   */\n              swap2\n              swap1\n              pop\n              jump\t// out\n                /* \"#utility.yul\":4614:4736   */\n            tag_204:\n                /* \"#utility.yul\":4687:4711   */\n              tag_302\n                /* \"#utility.yul\":4705:4710   */\n              dup2\n                /* \"#utility.yul\":4687:4711   */\n              tag_203\n              jump\t// in\n            tag_302:\n                /* \"#utility.yul\":4680:4685   */\n              dup2\n                /* \"#utility.yul\":4677:4712   */\n              eq\n                /* \"#utility.yul\":4667:4730   */\n              tag_303\n              jumpi\n                /* \"#utility.yul\":4726:4727   */\n              0x00\n                /* \"#utility.yul\":4723:4724   */\n              dup1\n                /* \"#utility.yul\":4716:4728   */\n              revert\n                /* \"#utility.yul\":4667:4730   */\n            tag_303:\n                /* \"#utility.yul\":4614:4736   */\n              pop\n              jump\t// out\n                /* \"#utility.yul\":4742:4881   */\n            tag_205:\n                /* \"#utility.yul\":4788:4793   */\n              0x00\n                /* \"#utility.yul\":4826:4832   */\n              dup2\n                /* \"#utility.yul\":4813:4833   */\n              calldataload\n                /* \"#utility.yul\":4804:4833   */\n              swap1\n              pop\n                /* \"#utility.yul\":4842:4875   */\n              tag_305\n                /* \"#utility.yul\":4869:4874   */\n              dup2\n                /* \"#utility.yul\":4842:4875   */\n              tag_204\n              jump\t// in\n            tag_305:\n                /* \"#utility.yul\":4742:4881   */\n              swap3\n              swap2\n              pop\n              pop\n              jump\t// out\n                /* \"#utility.yul\":4887:5216   */\n            tag_35:\n                /* \"#utility.yul\":4946:4952   */\n              0x00\n                /* \"#utility.yul\":4995:4997   */\n              0x20\n                /* \"#utility.yul\":4983:4992   */\n              dup3\n                /* \"#utility.yul\":4974:4981   */\n              dup5\n                /* \"#utility.yul\":4970:4993   */\n              sub\n                /* \"#utility.yul\":4966:4998   */\n              slt\n                /* \"#utility.yul\":4963:5082   */\n              iszero\n              tag_307\n              jumpi\n                /* \"#utility.yul\":5001:5080   */\n              tag_308\n              tag_185\n              jump\t// in\n            tag_308:\n                /* \"#utility.yul\":4963:5082   */\n            tag_307:\n                /* \"#utility.yul\":5121:5122   */\n              0x00\n                /* \"#utility.yul\":5146:5199   */\n              tag_309\n                /* \"#utility.yul\":5191:5198   */\n              dup5\n                /* \"#utility.yul\":5182:5188   */\n              dup3\n                /* \"#utility.yul\":5171:5180   */\n              dup6\n                /* \"#utility.yul\":5167:5189   */\n              add\n                /* \"#utility.yul\":5146:5199   */\n              tag_205\n              jump\t// in\n            tag_309:\n                /* \"#utility.yul\":5136:5199   */\n              swap2\n              pop\n                /* \"#utility.yul\":5092:5209   */\n              pop\n                /* \"#utility.yul\":4887:5216   */\n              swap3\n              swap2\n              pop\n              pop\n              jump\t// out\n                /* \"#utility.yul\":5222:5340   */\n            tag_206:\n                /* \"#utility.yul\":5309:5333   */\n              tag_311\n                /* \"#utility.yul\":5327:5332   */\n              dup2\n                /* \"#utility.yul\":5309:5333   */\n              tag_188\n              jump\t// in\n            tag_311:\n                /* \"#utility.yul\":5304:5307   */\n              dup3\n                /* \"#utility.yul\":5297:5334   */\n              mstore\n                /* \"#utility.yul\":5222:5340   */\n              pop\n              pop\n              jump\t// out\n                /* \"#utility.yul\":5346:5568   */\n            tag_38:\n                /* \"#utility.yul\":5439:5443   */\n              0x00\n                /* \"#utility.yul\":5477:5479   */\n              0x20\n                /* \"#utility.yul\":5466:5475   */\n              dup3\n                /* \"#utility.yul\":5462:5480   */\n              add\n                /* \"#utility.yul\":5454:5480   */\n              swap1\n              pop\n                /* \"#utility.yul\":5490:5561   */\n              tag_313\n                /* \"#utility.yul\":5558:5559   */\n              0x00\n                /* \"#utility.yul\":5547:5556   */\n              dup4\n                /* \"#utility.yul\":5543:5560   */\n              add\n                /* \"#utility.yul\":5534:5540   */\n              dup5\n                /* \"#utility.yul\":5490:5561   */\n              tag_206\n              jump\t// in\n            tag_313:\n                /* \"#utility.yul\":5346:5568   */\n              swap3\n              swap2\n              pop\n              pop\n              jump\t// out\n                /* \"#utility.yul\":5574:5692   */\n            tag_207:\n                /* \"#utility.yul\":5661:5685   */\n              tag_315\n                /* \"#utility.yul\":5679:5684   */\n              dup2\n                /* \"#utility.yul\":5661:5685   */\n              tag_203\n              jump\t// in\n            tag_315:\n                /* \"#utility.yul\":5656:5659   */\n              dup3\n                /* \"#utility.yul\":5649:5686   */\n              mstore\n                /* \"#utility.yul\":5574:5692   */\n              pop\n              pop\n              jump\t// out\n                /* \"#utility.yul\":5698:5920   */\n            tag_43:\n                /* \"#utility.yul\":5791:5795   */\n              0x00\n                /* \"#utility.yul\":5829:5831   */\n              0x20\n                /* \"#utility.yul\":5818:5827   */\n              dup3\n                /* \"#utility.yul\":5814:5832   */\n              add\n                /* \"#utility.yul\":5806:5832   */\n              swap1\n              pop\n                /* \"#utility.yul\":5842:5913   */\n              tag_317\n                /* \"#utility.yul\":5910:5911   */\n              0x00\n                /* \"#utility.yul\":5899:5908   */\n              dup4\n                /* \"#utility.yul\":5895:5912   */\n              add\n                /* \"#utility.yul\":5886:5892   */\n              dup5\n                /* \"#utility.yul\":5842:5913   */\n              tag_207\n              jump\t// in\n            tag_317:\n                /* \"#utility.yul\":5698:5920   */\n              swap3\n              swap2\n              pop\n              pop\n              jump\t// out\n                /* \"#utility.yul\":5926:6043   */\n            tag_208:\n                /* \"#utility.yul\":6035:6036   */\n              0x00\n                /* \"#utility.yul\":6032:6033   */\n              dup1\n                /* \"#utility.yul\":6025:6037   */\n              revert\n                /* \"#utility.yul\":6049:6166   */\n            tag_209:\n                /* \"#utility.yul\":6158:6159   */\n              0x00\n                /* \"#utility.yul\":6155:6156   */\n              dup1\n                /* \"#utility.yul\":6148:6160   */\n              revert\n                /* \"#utility.yul\":6172:6289   */\n            tag_210:\n                /* \"#utility.yul\":6281:6282   */\n              0x00\n                /* \"#utility.yul\":6278:6279   */\n              dup1\n                /* \"#utility.yul\":6271:6283   */\n              revert\n                /* \"#utility.yul\":6309:6862   */\n            tag_211:\n                /* \"#utility.yul\":6367:6375   */\n              0x00\n                /* \"#utility.yul\":6377:6383   */\n              dup1\n                /* \"#utility.yul\":6427:6430   */\n              dup4\n                /* \"#utility.yul\":6420:6424   */\n              0x1f\n                /* \"#utility.yul\":6412:6418   */\n              dup5\n                /* \"#utility.yul\":6408:6425   */\n              add\n                /* \"#utility.yul\":6404:6431   */\n              slt\n                /* \"#utility.yul\":6394:6516   */\n              tag_322\n              jumpi\n                /* \"#utility.yul\":6435:6514   */\n              tag_323\n              tag_208\n              jump\t// in\n            tag_323:\n                /* \"#utility.yul\":6394:6516   */\n            tag_322:\n                /* \"#utility.yul\":6548:6554   */\n              dup3\n                /* \"#utility.yul\":6535:6555   */\n              calldataload\n                /* \"#utility.yul\":6525:6555   */\n              swap1\n              pop\n                /* \"#utility.yul\":6578:6596   */\n              0xffffffffffffffff\n                /* \"#utility.yul\":6570:6576   */\n              dup2\n                /* \"#utility.yul\":6567:6597   */\n              gt\n                /* \"#utility.yul\":6564:6681   */\n              iszero\n              tag_324\n              jumpi\n                /* \"#utility.yul\":6600:6679   */\n              tag_325\n              tag_209\n              jump\t// in\n            tag_325:\n                /* \"#utility.yul\":6564:6681   */\n            tag_324:\n                /* \"#utility.yul\":6714:6718   */\n              0x20\n                /* \"#utility.yul\":6706:6712   */\n              dup4\n                /* \"#utility.yul\":6702:6719   */\n              add\n                /* \"#utility.yul\":6690:6719   */\n              swap2\n              pop\n                /* \"#utility.yul\":6768:6771   */\n              dup4\n                /* \"#utility.yul\":6760:6764   */\n              0x01\n                /* \"#utility.yul\":6752:6758   */\n              dup3\n                /* \"#utility.yul\":6748:6765   */\n              mul\n                /* \"#utility.yul\":6738:6746   */\n              dup4\n                /* \"#utility.yul\":6734:6766   */\n              add\n                /* \"#utility.yul\":6731:6772   */\n              gt\n                /* \"#utility.yul\":6728:6856   */\n              iszero\n              tag_326\n              jumpi\n                /* \"#utility.yul\":6775:6854   */\n              tag_327\n              tag_210\n              jump\t// in\n            tag_327:\n                /* \"#utility.yul\":6728:6856   */\n            tag_326:\n                /* \"#utility.yul\":6309:6862   */\n              swap3\n              pop\n              swap3\n              swap1\n              pop\n              jump\t// out\n                /* \"#utility.yul\":6868:7397   */\n            tag_53:\n                /* \"#utility.yul\":6939:6945   */\n              0x00\n                /* \"#utility.yul\":6947:6953   */\n              dup1\n                /* \"#utility.yul\":6996:6998   */\n              0x20\n                /* \"#utility.yul\":6984:6993   */\n              dup4\n                /* \"#utility.yul\":6975:6982   */\n              dup6\n                /* \"#utility.yul\":6971:6994   */\n              sub\n                /* \"#utility.yul\":6967:6999   */\n              slt\n                /* \"#utility.yul\":6964:7083   */\n              iszero\n              tag_329\n              jumpi\n                /* \"#utility.yul\":7002:7081   */\n              tag_330\n              tag_185\n              jump\t// in\n            tag_330:\n                /* \"#utility.yul\":6964:7083   */\n            tag_329:\n                /* \"#utility.yul\":7150:7151   */\n              0x00\n                /* \"#utility.yul\":7139:7148   */\n              dup4\n                /* \"#utility.yul\":7135:7152   */\n              add\n                /* \"#utility.yul\":7122:7153   */\n              calldataload\n                /* \"#utility.yul\":7180:7198   */\n              0xffffffffffffffff\n                /* \"#utility.yul\":7172:7178   */\n              dup2\n                /* \"#utility.yul\":7169:7199   */\n              gt\n                /* \"#utility.yul\":7166:7283   */\n              iszero\n              tag_331\n              jumpi\n                /* \"#utility.yul\":7202:7281   */\n              tag_332\n              tag_186\n              jump\t// in\n            tag_332:\n                /* \"#utility.yul\":7166:7283   */\n            tag_331:\n                /* \"#utility.yul\":7315:7380   */\n              tag_333\n                /* \"#utility.yul\":7372:7379   */\n              dup6\n                /* \"#utility.yul\":7363:7369   */\n              dup3\n                /* \"#utility.yul\":7352:7361   */\n              dup7\n                /* \"#utility.yul\":7348:7370   */\n              add\n                /* \"#utility.yul\":7315:7380   */\n              tag_211\n              jump\t// in\n            tag_333:\n                /* \"#utility.yul\":7297:7380   */\n              swap3\n              pop\n              swap3\n              pop\n                /* \"#utility.yul\":7093:7390   */\n              pop\n                /* \"#utility.yul\":6868:7397   */\n              swap3\n              pop\n              swap3\n              swap1\n              pop\n              jump\t// out\n                /* \"#utility.yul\":7403:7735   */\n            tag_57:\n                /* \"#utility.yul\":7524:7528   */\n              0x00\n                /* \"#utility.yul\":7562:7564   */\n              0x40\n                /* \"#utility.yul\":7551:7560   */\n              dup3\n                /* \"#utility.yul\":7547:7565   */\n              add\n                /* \"#utility.yul\":7539:7565   */\n              swap1\n              pop\n                /* \"#utility.yul\":7575:7646   */\n              tag_335\n                /* \"#utility.yul\":7643:7644   */\n              0x00\n                /* \"#utility.yul\":7632:7641   */\n              dup4\n                /* \"#utility.yul\":7628:7645   */\n              add\n                /* \"#utility.yul\":7619:7625   */\n              dup6\n                /* \"#utility.yul\":7575:7646   */\n              tag_206\n              jump\t// in\n            tag_335:\n                /* \"#utility.yul\":7656:7728   */\n              tag_336\n                /* \"#utility.yul\":7724:7726   */\n              0x20\n                /* \"#utility.yul\":7713:7722   */\n              dup4\n                /* \"#utility.yul\":7709:7727   */\n              add\n                /* \"#utility.yul\":7700:7706   */\n              dup5\n                /* \"#utility.yul\":7656:7728   */\n              tag_206\n              jump\t// in\n            tag_336:\n                /* \"#utility.yul\":7403:7735   */\n              swap4\n              swap3\n              pop\n              pop\n              pop\n              jump\t// out\n                /* \"#utility.yul\":7741:7831   */\n            tag_212:\n                /* \"#utility.yul\":7775:7782   */\n              0x00\n                /* \"#utility.yul\":7818:7823   */\n              dup2\n                /* \"#utility.yul\":7811:7824   */\n              iszero\n                /* \"#utility.yul\":7804:7825   */\n              iszero\n                /* \"#utility.yul\":7793:7825   */\n              swap1\n              pop\n                /* \"#utility.yul\":7741:7831   */\n              swap2\n              swap1\n              pop\n              jump\t// out\n                /* \"#utility.yul\":7837:7953   */\n            tag_213:\n                /* \"#utility.yul\":7907:7928   */\n              tag_339\n                /* \"#utility.yul\":7922:7927   */\n              dup2\n                /* \"#utility.yul\":7907:7928   */\n              tag_212\n              jump\t// in\n            tag_339:\n                /* \"#utility.yul\":7900:7905   */\n              dup2\n                /* \"#utility.yul\":7897:7929   */\n              eq\n                /* \"#utility.yul\":7887:7947   */\n              tag_340\n              jumpi\n                /* \"#utility.yul\":7943:7944   */\n              0x00\n                /* \"#utility.yul\":7940:7941   */\n              dup1\n                /* \"#utility.yul\":7933:7945   */\n              revert\n                /* \"#utility.yul\":7887:7947   */\n            tag_340:\n                /* \"#utility.yul\":7837:7953   */\n              pop\n              jump\t// out\n                /* \"#utility.yul\":7959:8096   */\n            tag_214:\n                /* \"#utility.yul\":8013:8018   */\n              0x00\n                /* \"#utility.yul\":8044:8050   */\n              dup2\n                /* \"#utility.yul\":8038:8051   */\n              mload\n                /* \"#utility.yul\":8029:8051   */\n              swap1\n              pop\n                /* \"#utility.yul\":8060:8090   */\n              tag_342\n                /* \"#utility.yul\":8084:8089   */\n              dup2\n                /* \"#utility.yul\":8060:8090   */\n              tag_213\n              jump\t// in\n            tag_342:\n                /* \"#utility.yul\":7959:8096   */\n              swap3\n              swap2\n              pop\n              pop\n              jump\t// out\n                /* \"#utility.yul\":8102:8447   */\n            tag_61:\n                /* \"#utility.yul\":8169:8175   */\n              0x00\n                /* \"#utility.yul\":8218:8220   */\n              0x20\n                /* \"#utility.yul\":8206:8215   */\n              dup3\n                /* \"#utility.yul\":8197:8204   */\n              dup5\n                /* \"#utility.yul\":8193:8216   */\n              sub\n                /* \"#utility.yul\":8189:8221   */\n              slt\n                /* \"#utility.yul\":8186:8305   */\n              iszero\n              tag_344\n              jumpi\n                /* \"#utility.yul\":8224:8303   */\n              tag_345\n              tag_185\n              jump\t// in\n            tag_345:\n                /* \"#utility.yul\":8186:8305   */\n            tag_344:\n                /* \"#utility.yul\":8344:8345   */\n              0x00\n                /* \"#utility.yul\":8369:8430   */\n              tag_346\n                /* \"#utility.yul\":8422:8429   */\n              dup5\n                /* \"#utility.yul\":8413:8419   */\n              dup3\n                /* \"#utility.yul\":8402:8411   */\n              dup6\n                /* \"#utility.yul\":8398:8420   */\n              add\n                /* \"#utility.yul\":8369:8430   */\n              tag_214\n              jump\t// in\n            tag_346:\n                /* \"#utility.yul\":8359:8430   */\n              swap2\n              pop\n                /* \"#utility.yul\":8315:8440   */\n              pop\n                /* \"#utility.yul\":8102:8447   */\n              swap3\n              swap2\n              pop\n              pop\n              jump\t// out\n                /* \"#utility.yul\":8453:8627   */\n            tag_215:\n                /* \"#utility.yul\":8593:8619   */\n              0x526571756972656420746f2062652061206d656d656265720000000000000000\n                /* \"#utility.yul\":8589:8590   */\n              0x00\n                /* \"#utility.yul\":8581:8587   */\n              dup3\n                /* \"#utility.yul\":8577:8591   */\n              add\n                /* \"#utility.yul\":8570:8620   */\n              mstore\n                /* \"#utility.yul\":8453:8627   */\n              pop\n              jump\t// out\n                /* \"#utility.yul\":8633:8999   */\n            tag_216:\n                /* \"#utility.yul\":8775:8778   */\n              0x00\n                /* \"#utility.yul\":8796:8863   */\n              tag_349\n                /* \"#utility.yul\":8860:8862   */\n              0x18\n                /* \"#utility.yul\":8855:8858   */\n              dup4\n                /* \"#utility.yul\":8796:8863   */\n              tag_192\n              jump\t// in\n            tag_349:\n                /* \"#utility.yul\":8789:8863   */\n              swap2\n              pop\n                /* \"#utility.yul\":8872:8965   */\n              tag_350\n                /* \"#utility.yul\":8961:8964   */\n              dup3\n                /* \"#utility.yul\":8872:8965   */\n              tag_215\n              jump\t// in\n            tag_350:\n                /* \"#utility.yul\":8990:8992   */\n              0x20\n                /* \"#utility.yul\":8985:8988   */\n              dup3\n                /* \"#utility.yul\":8981:8993   */\n              add\n                /* \"#utility.yul\":8974:8993   */\n              swap1\n              pop\n                /* \"#utility.yul\":8633:8999   */\n              swap2\n              swap1\n              pop\n              jump\t// out\n                /* \"#utility.yul\":9005:9424   */\n            tag_64:\n                /* \"#utility.yul\":9171:9175   */\n              0x00\n                /* \"#utility.yul\":9209:9211   */\n              0x20\n                /* \"#utility.yul\":9198:9207   */\n              dup3\n                /* \"#utility.yul\":9194:9212   */\n              add\n                /* \"#utility.yul\":9186:9212   */\n              swap1\n              pop\n                /* \"#utility.yul\":9258:9267   */\n              dup2\n                /* \"#utility.yul\":9252:9256   */\n              dup2\n                /* \"#utility.yul\":9248:9268   */\n              sub\n                /* \"#utility.yul\":9244:9245   */\n              0x00\n                /* \"#utility.yul\":9233:9242   */\n              dup4\n                /* \"#utility.yul\":9229:9246   */\n              add\n                /* \"#utility.yul\":9222:9269   */\n              mstore\n                /* \"#utility.yul\":9286:9417   */\n              tag_352\n                /* \"#utility.yul\":9412:9416   */\n              dup2\n                /* \"#utility.yul\":9286:9417   */\n              tag_216\n              jump\t// in\n            tag_352:\n                /* \"#utility.yul\":9278:9417   */\n              swap1\n              pop\n                /* \"#utility.yul\":9005:9424   */\n              swap2\n              swap1\n              pop\n              jump\t// out\n                /* \"#utility.yul\":9430:9610   */\n            tag_217:\n                /* \"#utility.yul\":9478:9555   */\n              0x4e487b7100000000000000000000000000000000000000000000000000000000\n                /* \"#utility.yul\":9475:9476   */\n              0x00\n                /* \"#utility.yul\":9468:9556   */\n              mstore\n                /* \"#utility.yul\":9575:9579   */\n              0x22\n                /* \"#utility.yul\":9572:9573   */\n              0x04\n                /* \"#utility.yul\":9565:9580   */\n              mstore\n                /* \"#utility.yul\":9599:9603   */\n              0x24\n                /* \"#utility.yul\":9596:9597   */\n              0x00\n                /* \"#utility.yul\":9589:9604   */\n              revert\n                /* \"#utility.yul\":9616:9936   */\n            tag_67:\n                /* \"#utility.yul\":9660:9666   */\n              0x00\n                /* \"#utility.yul\":9697:9698   */\n              0x02\n                /* \"#utility.yul\":9691:9695   */\n              dup3\n                /* \"#utility.yul\":9687:9699   */\n              div\n                /* \"#utility.yul\":9677:9699   */\n              swap1\n              pop\n                /* \"#utility.yul\":9744:9745   */\n              0x01\n                /* \"#utility.yul\":9738:9742   */\n              dup3\n                /* \"#utility.yul\":9734:9746   */\n              and\n                /* \"#utility.yul\":9765:9783   */\n              dup1\n                /* \"#utility.yul\":9755:9836   */\n              tag_355\n              jumpi\n                /* \"#utility.yul\":9821:9825   */\n              0x7f\n                /* \"#utility.yul\":9813:9819   */\n              dup3\n                /* \"#utility.yul\":9809:9826   */\n              and\n                /* \"#utility.yul\":9799:9826   */\n              swap2\n              pop\n                /* \"#utility.yul\":9755:9836   */\n            tag_355:\n                /* \"#utility.yul\":9883:9885   */\n              0x20\n                /* \"#utility.yul\":9875:9881   */\n              dup3\n                /* \"#utility.yul\":9872:9886   */\n              lt\n                /* \"#utility.yul\":9852:9870   */\n              dup2\n                /* \"#utility.yul\":9849:9887   */\n              sub\n                /* \"#utility.yul\":9846:9930   */\n              tag_356\n              jumpi\n                /* \"#utility.yul\":9902:9920   */\n              tag_357\n              tag_217\n              jump\t// in\n            tag_357:\n                /* \"#utility.yul\":9846:9930   */\n            tag_356:\n                /* \"#utility.yul\":9667:9936   */\n              pop\n                /* \"#utility.yul\":9616:9936   */\n              swap2\n              swap1\n              pop\n              jump\t// out\n                /* \"#utility.yul\":9942:10105   */\n            tag_218:\n                /* \"#utility.yul\":10082:10097   */\n              0x4163636573732044656e69656400000000000000000000000000000000000000\n                /* \"#utility.yul\":10078:10079   */\n              0x00\n                /* \"#utility.yul\":10070:10076   */\n              dup3\n                /* \"#utility.yul\":10066:10080   */\n              add\n                /* \"#utility.yul\":10059:10098   */\n              mstore\n                /* \"#utility.yul\":9942:10105   */\n              pop\n              jump\t// out\n                /* \"#utility.yul\":10111:10477   */\n            tag_219:\n                /* \"#utility.yul\":10253:10256   */\n              0x00\n                /* \"#utility.yul\":10274:10341   */\n              tag_360\n                /* \"#utility.yul\":10338:10340   */\n              0x0d\n                /* \"#utility.yul\":10333:10336   */\n              dup4\n                /* \"#utility.yul\":10274:10341   */\n              tag_192\n              jump\t// in\n            tag_360:\n                /* \"#utility.yul\":10267:10341   */\n              swap2\n              pop\n                /* \"#utility.yul\":10350:10443   */\n              tag_361\n                /* \"#utility.yul\":10439:10442   */\n              dup3\n                /* \"#utility.yul\":10350:10443   */\n              tag_218\n              jump\t// in\n            tag_361:\n                /* \"#utility.yul\":10468:10470   */\n              0x20\n                /* \"#utility.yul\":10463:10466   */\n              dup3\n                /* \"#utility.yul\":10459:10471   */\n              add\n                /* \"#utility.yul\":10452:10471   */\n              swap1\n              pop\n                /* \"#utility.yul\":10111:10477   */\n              swap2\n              swap1\n              pop\n              jump\t// out\n                /* \"#utility.yul\":10483:10902   */\n            tag_75:\n                /* \"#utility.yul\":10649:10653   */\n              0x00\n                /* \"#utility.yul\":10687:10689   */\n              0x20\n                /* \"#utility.yul\":10676:10685   */\n              dup3\n                /* \"#utility.yul\":10672:10690   */\n              add\n                /* \"#utility.yul\":10664:10690   */\n              swap1\n              pop\n                /* \"#utility.yul\":10736:10745   */\n              dup2\n                /* \"#utility.yul\":10730:10734   */\n              dup2\n                /* \"#utility.yul\":10726:10746   */\n              sub\n                /* \"#utility.yul\":10722:10723   */\n              0x00\n                /* \"#utility.yul\":10711:10720   */\n              dup4\n                /* \"#utility.yul\":10707:10724   */\n              add\n                /* \"#utility.yul\":10700:10747   */\n              mstore\n                /* \"#utility.yul\":10764:10895   */\n              tag_363\n                /* \"#utility.yul\":10890:10894   */\n              dup2\n                /* \"#utility.yul\":10764:10895   */\n              tag_219\n              jump\t// in\n            tag_363:\n                /* \"#utility.yul\":10756:10895   */\n              swap1\n              pop\n                /* \"#utility.yul\":10483:10902   */\n              swap2\n              swap1\n              pop\n              jump\t// out\n                /* \"#utility.yul\":10908:11083   */\n            tag_220:\n                /* \"#utility.yul\":11048:11075   */\n              0x496e76616c6964206170706c6963616e74206164647265737300000000000000\n                /* \"#utility.yul\":11044:11045   */\n              0x00\n                /* \"#utility.yul\":11036:11042   */\n              dup3\n                /* \"#utility.yul\":11032:11046   */\n              add\n                /* \"#utility.yul\":11025:11076   */\n              mstore\n                /* \"#utility.yul\":10908:11083   */\n              pop\n              jump\t// out\n                /* \"#utility.yul\":11089:11455   */\n            tag_221:\n                /* \"#utility.yul\":11231:11234   */\n              0x00\n                /* \"#utility.yul\":11252:11319   */\n              tag_366\n                /* \"#utility.yul\":11316:11318   */\n              0x19\n                /* \"#utility.yul\":11311:11314   */\n              dup4\n                /* \"#utility.yul\":11252:11319   */\n              tag_192\n              jump\t// in\n            tag_366:\n                /* \"#utility.yul\":11245:11319   */\n              swap2\n              pop\n                /* \"#utility.yul\":11328:11421   */\n              tag_367\n                /* \"#utility.yul\":11417:11420   */\n              dup3\n                /* \"#utility.yul\":11328:11421   */\n              tag_220\n              jump\t// in\n            tag_367:\n                /* \"#utility.yul\":11446:11448   */\n              0x20\n                /* \"#utility.yul\":11441:11444   */\n              dup3\n                /* \"#utility.yul\":11437:11449   */\n              add\n                /* \"#utility.yul\":11430:11449   */\n              swap1\n              pop\n                /* \"#utility.yul\":11089:11455   */\n              swap2\n              swap1\n              pop\n              jump\t// out\n                /* \"#utility.yul\":11461:11880   */\n            tag_92:\n                /* \"#utility.yul\":11627:11631   */\n              0x00\n                /* \"#utility.yul\":11665:11667   */\n              0x20\n                /* \"#utility.yul\":11654:11663   */\n              dup3\n                /* \"#utility.yul\":11650:11668   */\n              add\n                /* \"#utility.yul\":11642:11668   */\n              swap1\n              pop\n                /* \"#utility.yul\":11714:11723   */\n              dup2\n                /* \"#utility.yul\":11708:11712   */\n              dup2\n                /* \"#utility.yul\":11704:11724   */\n              sub\n                /* \"#utility.yul\":11700:11701   */\n              0x00\n                /* \"#utility.yul\":11689:11698   */\n              dup4\n                /* \"#utility.yul\":11685:11702   */\n              add\n                /* \"#utility.yul\":11678:11725   */\n              mstore\n                /* \"#utility.yul\":11742:11873   */\n              tag_369\n                /* \"#utility.yul\":11868:11872   */\n              dup2\n                /* \"#utility.yul\":11742:11873   */\n              tag_221\n              jump\t// in\n            tag_369:\n                /* \"#utility.yul\":11734:11873   */\n              swap1\n              pop\n                /* \"#utility.yul\":11461:11880   */\n              swap2\n              swap1\n              pop\n              jump\t// out\n                /* \"#utility.yul\":11886:11962   */\n            tag_222:\n                /* \"#utility.yul\":11922:11929   */\n              0x00\n                /* \"#utility.yul\":11951:11956   */\n              dup2\n                /* \"#utility.yul\":11940:11956   */\n              swap1\n              pop\n                /* \"#utility.yul\":11886:11962   */\n              swap2\n              swap1\n              pop\n              jump\t// out\n                /* \"#utility.yul\":11968:12148   */\n            tag_223:\n                /* \"#utility.yul\":12016:12093   */\n              0x4e487b7100000000000000000000000000000000000000000000000000000000\n                /* \"#utility.yul\":12013:12014   */\n              0x00\n                /* \"#utility.yul\":12006:12094   */\n              mstore\n                /* \"#utility.yul\":12113:12117   */\n              0x11\n                /* \"#utility.yul\":12110:12111   */\n              0x04\n                /* \"#utility.yul\":12103:12118   */\n              mstore\n                /* \"#utility.yul\":12137:12141   */\n              0x24\n                /* \"#utility.yul\":12134:12135   */\n              0x00\n                /* \"#utility.yul\":12127:12142   */\n              revert\n                /* \"#utility.yul\":12154:12526   */\n            tag_94:\n                /* \"#utility.yul\":12193:12197   */\n              0x00\n                /* \"#utility.yul\":12213:12232   */\n              tag_373\n                /* \"#utility.yul\":12230:12231   */\n              dup3\n                /* \"#utility.yul\":12213:12232   */\n              tag_222\n              jump\t// in\n            tag_373:\n                /* \"#utility.yul\":12208:12232   */\n              swap2\n              pop\n                /* \"#utility.yul\":12246:12265   */\n              tag_374\n                /* \"#utility.yul\":12263:12264   */\n              dup4\n                /* \"#utility.yul\":12246:12265   */\n              tag_222\n              jump\t// in\n            tag_374:\n                /* \"#utility.yul\":12241:12265   */\n              swap3\n              pop\n                /* \"#utility.yul\":12289:12290   */\n              dup3\n                /* \"#utility.yul\":12286:12287   */\n              dup3\n                /* \"#utility.yul\":12282:12291   */\n              sub\n                /* \"#utility.yul\":12274:12291   */\n              swap1\n              pop\n                /* \"#utility.yul\":12483:12484   */\n              dup2\n                /* \"#utility.yul\":12477:12481   */\n              dup2\n                /* \"#utility.yul\":12473:12485   */\n              slt\n                /* \"#utility.yul\":12469:12470   */\n              0x00\n                /* \"#utility.yul\":12466:12467   */\n              dup5\n                /* \"#utility.yul\":12462:12471   */\n              slt\n                /* \"#utility.yul\":12458:12486   */\n              and\n                /* \"#utility.yul\":12441:12442   */\n              dup3\n                /* \"#utility.yul\":12435:12439   */\n              dup3\n                /* \"#utility.yul\":12431:12443   */\n              sgt\n                /* \"#utility.yul\":12426:12427   */\n              0x00\n                /* \"#utility.yul\":12423:12424   */\n              dup6\n                /* \"#utility.yul\":12419:12428   */\n              slt\n                /* \"#utility.yul\":12412:12429   */\n              iszero\n                /* \"#utility.yul\":12408:12444   */\n              and\n                /* \"#utility.yul\":12392:12496   */\n              or\n                /* \"#utility.yul\":12389:12519   */\n              iszero\n              tag_375\n              jumpi\n                /* \"#utility.yul\":12499:12517   */\n              tag_376\n              tag_223\n              jump\t// in\n            tag_376:\n                /* \"#utility.yul\":12389:12519   */\n            tag_375:\n                /* \"#utility.yul\":12154:12526   */\n              swap3\n              swap2\n              pop\n              pop\n              jump\t// out\n                /* \"#utility.yul\":12532:12697   */\n            tag_224:\n                /* \"#utility.yul\":12672:12689   */\n              0x4e6f742061206170706c6963616e740000000000000000000000000000000000\n                /* \"#utility.yul\":12668:12669   */\n              0x00\n                /* \"#utility.yul\":12660:12666   */\n              dup3\n                /* \"#utility.yul\":12656:12670   */\n              add\n                /* \"#utility.yul\":12649:12690   */\n              mstore\n                /* \"#utility.yul\":12532:12697   */\n              pop\n              jump\t// out\n                /* \"#utility.yul\":12703:13069   */\n            tag_225:\n                /* \"#utility.yul\":12845:12848   */\n              0x00\n                /* \"#utility.yul\":12866:12933   */\n              tag_379\n                /* \"#utility.yul\":12930:12932   */\n              0x0f\n                /* \"#utility.yul\":12925:12928   */\n              dup4\n                /* \"#utility.yul\":12866:12933   */\n              tag_192\n              jump\t// in\n            tag_379:\n                /* \"#utility.yul\":12859:12933   */\n              swap2\n              pop\n                /* \"#utility.yul\":12942:13035   */\n              tag_380\n                /* \"#utility.yul\":13031:13034   */\n              dup3\n                /* \"#utility.yul\":12942:13035   */\n              tag_224\n              jump\t// in\n            tag_380:\n                /* \"#utility.yul\":13060:13062   */\n              0x20\n                /* \"#utility.yul\":13055:13058   */\n              dup3\n                /* \"#utility.yul\":13051:13063   */\n              add\n                /* \"#utility.yul\":13044:13063   */\n              swap1\n              pop\n                /* \"#utility.yul\":12703:13069   */\n              swap2\n              swap1\n              pop\n              jump\t// out\n                /* \"#utility.yul\":13075:13494   */\n            tag_107:\n                /* \"#utility.yul\":13241:13245   */\n              0x00\n                /* \"#utility.yul\":13279:13281   */\n              0x20\n                /* \"#utility.yul\":13268:13277   */\n              dup3\n                /* \"#utility.yul\":13264:13282   */\n              add\n                /* \"#utility.yul\":13256:13282   */\n              swap1\n              pop\n                /* \"#utility.yul\":13328:13337   */\n              dup2\n                /* \"#utility.yul\":13322:13326   */\n              dup2\n                /* \"#utility.yul\":13318:13338   */\n              sub\n                /* \"#utility.yul\":13314:13315   */\n              0x00\n                /* \"#utility.yul\":13303:13312   */\n              dup4\n                /* \"#utility.yul\":13299:13316   */\n              add\n                /* \"#utility.yul\":13292:13339   */\n              mstore\n                /* \"#utility.yul\":13356:13487   */\n              tag_382\n                /* \"#utility.yul\":13482:13486   */\n              dup2\n                /* \"#utility.yul\":13356:13487   */\n              tag_225\n              jump\t// in\n            tag_382:\n                /* \"#utility.yul\":13348:13487   */\n              swap1\n              pop\n                /* \"#utility.yul\":13075:13494   */\n              swap2\n              swap1\n              pop\n              jump\t// out\n                /* \"#utility.yul\":13500:13680   */\n            tag_113:\n                /* \"#utility.yul\":13548:13625   */\n              0x4e487b7100000000000000000000000000000000000000000000000000000000\n                /* \"#utility.yul\":13545:13546   */\n              0x00\n                /* \"#utility.yul\":13538:13626   */\n              mstore\n                /* \"#utility.yul\":13645:13649   */\n              0x32\n                /* \"#utility.yul\":13642:13643   */\n              0x04\n                /* \"#utility.yul\":13635:13650   */\n              mstore\n                /* \"#utility.yul\":13669:13673   */\n              0x24\n                /* \"#utility.yul\":13666:13667   */\n              0x00\n                /* \"#utility.yul\":13659:13674   */\n              revert\n                /* \"#utility.yul\":13686:13919   */\n            tag_117:\n                /* \"#utility.yul\":13725:13728   */\n              0x00\n                /* \"#utility.yul\":13748:13772   */\n              tag_385\n                /* \"#utility.yul\":13766:13771   */\n              dup3\n                /* \"#utility.yul\":13748:13772   */\n              tag_203\n              jump\t// in\n            tag_385:\n                /* \"#utility.yul\":13739:13772   */\n              swap2\n              pop\n                /* \"#utility.yul\":13794:13860   */\n              0xffffffffffffffffffffffffffffffffffffffffffffffffffffffffffffffff\n                /* \"#utility.yul\":13787:13792   */\n              dup3\n                /* \"#utility.yul\":13784:13861   */\n              sub\n                /* \"#utility.yul\":13781:13884   */\n              tag_386\n              jumpi\n                /* \"#utility.yul\":13864:13882   */\n              tag_387\n              tag_223\n              jump\t// in\n            tag_387:\n                /* \"#utility.yul\":13781:13884   */\n            tag_386:\n                /* \"#utility.yul\":13911:13912   */\n              0x01\n                /* \"#utility.yul\":13904:13909   */\n              dup3\n                /* \"#utility.yul\":13900:13913   */\n              add\n                /* \"#utility.yul\":13893:13913   */\n              swap1\n              pop\n                /* \"#utility.yul\":13686:13919   */\n              swap2\n              swap1\n              pop\n              jump\t// out\n                /* \"#utility.yul\":13925:14095   */\n            tag_226:\n                /* \"#utility.yul\":14065:14087   */\n              0x53656e64657220616c726561647920766f746564000000000000000000000000\n                /* \"#utility.yul\":14061:14062   */\n              0x00\n                /* \"#utility.yul\":14053:14059   */\n              dup3\n                /* \"#utility.yul\":14049:14063   */\n              add\n                /* \"#utility.yul\":14042:14088   */\n              mstore\n                /* \"#utility.yul\":13925:14095   */\n              pop\n              jump\t// out\n                /* \"#utility.yul\":14101:14467   */\n            tag_227:\n                /* \"#utility.yul\":14243:14246   */\n              0x00\n                /* \"#utility.yul\":14264:14331   */\n              tag_390\n                /* \"#utility.yul\":14328:14330   */\n              0x14\n                /* \"#utility.yul\":14323:14326   */\n              dup4\n                /* \"#utility.yul\":14264:14331   */\n              tag_192\n              jump\t// in\n            tag_390:\n                /* \"#utility.yul\":14257:14331   */\n              swap2\n              pop\n                /* \"#utility.yul\":14340:14433   */\n              tag_391\n                /* \"#utility.yul\":14429:14432   */\n              dup3\n                /* \"#utility.yul\":14340:14433   */\n              tag_226\n              jump\t// in\n            tag_391:\n                /* \"#utility.yul\":14458:14460   */\n              0x20\n                /* \"#utility.yul\":14453:14456   */\n              dup3\n                /* \"#utility.yul\":14449:14461   */\n              add\n                /* \"#utility.yul\":14442:14461   */\n              swap1\n              pop\n                /* \"#utility.yul\":14101:14467   */\n              swap2\n              swap1\n              pop\n              jump\t// out\n                /* \"#utility.yul\":14473:14892   */\n            tag_120:\n                /* \"#utility.yul\":14639:14643   */\n              0x00\n                /* \"#utility.yul\":14677:14679   */\n              0x20\n                /* \"#utility.yul\":14666:14675   */\n              dup3\n                /* \"#utility.yul\":14662:14680   */\n              add\n                /* \"#utility.yul\":14654:14680   */\n              swap1\n              pop\n                /* \"#utility.yul\":14726:14735   */\n              dup2\n                /* \"#utility.yul\":14720:14724   */\n              dup2\n                /* \"#utility.yul\":14716:14736   */\n              sub\n                /* \"#utility.yul\":14712:14713   */\n              0x00\n                /* \"#utility.yul\":14701:14710   */\n              dup4\n                /* \"#utility.yul\":14697:14714   */\n              add\n                /* \"#utility.yul\":14690:14737   */\n              mstore\n                /* \"#utility.yul\":14754:14885   */\n              tag_393\n                /* \"#utility.yul\":14880:14884   */\n              dup2\n                /* \"#utility.yul\":14754:14885   */\n              tag_227\n              jump\t// in\n            tag_393:\n                /* \"#utility.yul\":14746:14885   */\n              swap1\n              pop\n                /* \"#utility.yul\":14473:14892   */\n              swap2\n              swap1\n              pop\n              jump\t// out\n                /* \"#utility.yul\":14898:15273   */\n            tag_123:\n                /* \"#utility.yul\":14937:14940   */\n              0x00\n                /* \"#utility.yul\":14956:14975   */\n              tag_395\n                /* \"#utility.yul\":14973:14974   */\n              dup3\n                /* \"#utility.yul\":14956:14975   */\n              tag_222\n              jump\t// in\n            tag_395:\n                /* \"#utility.yul\":14951:14975   */\n              swap2\n              pop\n                /* \"#utility.yul\":14989:15008   */\n              tag_396\n                /* \"#utility.yul\":15006:15007   */\n              dup4\n                /* \"#utility.yul\":14989:15008   */\n              tag_222\n              jump\t// in\n            tag_396:\n                /* \"#utility.yul\":14984:15008   */\n              swap3\n              pop\n                /* \"#utility.yul\":15031:15032   */\n              dup3\n                /* \"#utility.yul\":15028:15029   */\n              dup3\n                /* \"#utility.yul\":15024:15033   */\n              add\n                /* \"#utility.yul\":15017:15033   */\n              swap1\n              pop\n                /* \"#utility.yul\":15229:15230   */\n              dup3\n                /* \"#utility.yul\":15224:15227   */\n              dup2\n                /* \"#utility.yul\":15220:15231   */\n              slt\n                /* \"#utility.yul\":15213:15232   */\n              iszero\n                /* \"#utility.yul\":15209:15210   */\n              0x00\n                /* \"#utility.yul\":15206:15207   */\n              dup4\n                /* \"#utility.yul\":15202:15211   */\n              slt\n                /* \"#utility.yul\":15198:15233   */\n              and\n                /* \"#utility.yul\":15181:15182   */\n              dup4\n                /* \"#utility.yul\":15176:15179   */\n              dup3\n                /* \"#utility.yul\":15172:15183   */\n              slt\n                /* \"#utility.yul\":15167:15168   */\n              0x00\n                /* \"#utility.yul\":15164:15165   */\n              dup5\n                /* \"#utility.yul\":15160:15169   */\n              slt\n                /* \"#utility.yul\":15153:15170   */\n              iszero\n                /* \"#utility.yul\":15149:15184   */\n              and\n                /* \"#utility.yul\":15133:15243   */\n              or\n                /* \"#utility.yul\":15130:15266   */\n              iszero\n              tag_397\n              jumpi\n                /* \"#utility.yul\":15246:15264   */\n              tag_398\n              tag_223\n              jump\t// in\n            tag_398:\n                /* \"#utility.yul\":15130:15266   */\n            tag_397:\n                /* \"#utility.yul\":14898:15273   */\n              swap3\n              swap2\n              pop\n              pop\n              jump\t// out\n                /* \"#utility.yul\":15279:15450   */\n            tag_228:\n                /* \"#utility.yul\":15419:15442   */\n              0x416c726561647920616374697665206d656d6265720000000000000000000000\n                /* \"#utility.yul\":15415:15416   */\n              0x00\n                /* \"#utility.yul\":15407:15413   */\n              dup3\n                /* \"#utility.yul\":15403:15417   */\n              add\n                /* \"#utility.yul\":15396:15443   */\n              mstore\n                /* \"#utility.yul\":15279:15450   */\n              pop\n              jump\t// out\n                /* \"#utility.yul\":15456:15822   */\n            tag_229:\n                /* \"#utility.yul\":15598:15601   */\n              0x00\n                /* \"#utility.yul\":15619:15686   */\n              tag_401\n                /* \"#utility.yul\":15683:15685   */\n              0x15\n                /* \"#utility.yul\":15678:15681   */\n              dup4\n                /* \"#utility.yul\":15619:15686   */\n              tag_192\n              jump\t// in\n            tag_401:\n                /* \"#utility.yul\":15612:15686   */\n              swap2\n              pop\n                /* \"#utility.yul\":15695:15788   */\n              tag_402\n                /* \"#utility.yul\":15784:15787   */\n              dup3\n                /* \"#utility.yul\":15695:15788   */\n              tag_228\n              jump\t// in\n            tag_402:\n                /* \"#utility.yul\":15813:15815   */\n              0x20\n                /* \"#utility.yul\":15808:15811   */\n              dup3\n                /* \"#utility.yul\":15804:15816   */\n              add\n                /* \"#utility.yul\":15797:15816   */\n              swap1\n              pop\n                /* \"#utility.yul\":15456:15822   */\n              swap2\n              swap1\n              pop\n              jump\t// out\n                /* \"#utility.yul\":15828:16247   */\n            tag_146:\n                /* \"#utility.yul\":15994:15998   */\n              0x00\n                /* \"#utility.yul\":16032:16034   */\n              0x20\n                /* \"#utility.yul\":16021:16030   */\n              dup3\n                /* \"#utility.yul\":16017:16035   */\n              add\n                /* \"#utility.yul\":16009:16035   */\n              swap1\n              pop\n                /* \"#utility.yul\":16081:16090   */\n              dup2\n                /* \"#utility.yul\":16075:16079   */\n              dup2\n                /* \"#utility.yul\":16071:16091   */\n              sub\n                /* \"#utility.yul\":16067:16068   */\n              0x00\n                /* \"#utility.yul\":16056:16065   */\n              dup4\n                /* \"#utility.yul\":16052:16069   */\n              add\n                /* \"#utility.yul\":16045:16092   */\n              mstore\n                /* \"#utility.yul\":16109:16240   */\n              tag_404\n                /* \"#utility.yul\":16235:16239   */\n              dup2\n                /* \"#utility.yul\":16109:16240   */\n              tag_229\n              jump\t// in\n            tag_404:\n                /* \"#utility.yul\":16101:16240   */\n              swap1\n              pop\n                /* \"#utility.yul\":15828:16247   */\n              swap2\n              swap1\n              pop\n              jump\t// out\n                /* \"#utility.yul\":16253:16427   */\n            tag_230:\n                /* \"#utility.yul\":16393:16419   */\n              0x416c726561647920616374697665206170706c6963616e740000000000000000\n                /* \"#utility.yul\":16389:16390   */\n              0x00\n                /* \"#utility.yul\":16381:16387   */\n              dup3\n                /* \"#utility.yul\":16377:16391   */\n              add\n                /* \"#utility.yul\":16370:16420   */\n              mstore\n                /* \"#utility.yul\":16253:16427   */\n              pop\n              jump\t// out\n                /* \"#utility.yul\":16433:16799   */\n            tag_231:\n                /* \"#utility.yul\":16575:16578   */\n              0x00\n                /* \"#utility.yul\":16596:16663   */\n              tag_407\n                /* \"#utility.yul\":16660:16662   */\n              0x18\n                /* \"#utility.yul\":16655:16658   */\n              dup4\n                /* \"#utility.yul\":16596:16663   */\n              tag_192\n              jump\t// in\n            tag_407:\n                /* \"#utility.yul\":16589:16663   */\n              swap2\n              pop\n                /* \"#utility.yul\":16672:16765   */\n              tag_408\n                /* \"#utility.yul\":16761:16764   */\n              dup3\n                /* \"#utility.yul\":16672:16765   */\n              tag_230\n              jump\t// in\n            tag_408:\n                /* \"#utility.yul\":16790:16792   */\n              0x20\n                /* \"#utility.yul\":16785:16788   */\n              dup3\n                /* \"#utility.yul\":16781:16793   */\n              add\n                /* \"#utility.yul\":16774:16793   */\n              swap1\n              pop\n                /* \"#utility.yul\":16433:16799   */\n              swap2\n              swap1\n              pop\n              jump\t// out\n                /* \"#utility.yul\":16805:17224   */\n            tag_149:\n                /* \"#utility.yul\":16971:16975   */\n              0x00\n                /* \"#utility.yul\":17009:17011   */\n              0x20\n                /* \"#utility.yul\":16998:17007   */\n              dup3\n                /* \"#utility.yul\":16994:17012   */\n              add\n                /* \"#utility.yul\":16986:17012   */\n              swap1\n              pop\n                /* \"#utility.yul\":17058:17067   */\n              dup2\n                /* \"#utility.yul\":17052:17056   */\n              dup2\n                /* \"#utility.yul\":17048:17068   */\n              sub\n                /* \"#utility.yul\":17044:17045   */\n              0x00\n                /* \"#utility.yul\":17033:17042   */\n              dup4\n                /* \"#utility.yul\":17029:17046   */\n              add\n                /* \"#utility.yul\":17022:17069   */\n              mstore\n                /* \"#utility.yul\":17086:17217   */\n              tag_410\n                /* \"#utility.yul\":17212:17216   */\n              dup2\n                /* \"#utility.yul\":17086:17217   */\n              tag_231\n              jump\t// in\n            tag_410:\n                /* \"#utility.yul\":17078:17217   */\n              swap1\n              pop\n                /* \"#utility.yul\":16805:17224   */\n              swap2\n              swap1\n              pop\n              jump\t// out\n                /* \"#utility.yul\":17230:17396   */\n            tag_232:\n                /* \"#utility.yul\":17370:17388   */\n              0x6163636f756e742072656a656374656400000000000000000000000000000000\n                /* \"#utility.yul\":17366:17367   */\n              0x00\n                /* \"#utility.yul\":17358:17364   */\n              dup3\n                /* \"#utility.yul\":17354:17368   */\n              add\n                /* \"#utility.yul\":17347:17389   */\n              mstore\n                /* \"#utility.yul\":17230:17396   */\n              pop\n              jump\t// out\n                /* \"#utility.yul\":17402:17768   */\n            tag_233:\n                /* \"#utility.yul\":17544:17547   */\n              0x00\n                /* \"#utility.yul\":17565:17632   */\n              tag_413\n                /* \"#utility.yul\":17629:17631   */\n              0x10\n                /* \"#utility.yul\":17624:17627   */\n              dup4\n                /* \"#utility.yul\":17565:17632   */\n              tag_192\n              jump\t// in\n            tag_413:\n                /* \"#utility.yul\":17558:17632   */\n              swap2\n              pop\n                /* \"#utility.yul\":17641:17734   */\n              tag_414\n                /* \"#utility.yul\":17730:17733   */\n              dup3\n                /* \"#utility.yul\":17641:17734   */\n              tag_232\n              jump\t// in\n            tag_414:\n                /* \"#utility.yul\":17759:17761   */\n              0x20\n                /* \"#utility.yul\":17754:17757   */\n              dup3\n                /* \"#utility.yul\":17750:17762   */\n              add\n                /* \"#utility.yul\":17743:17762   */\n              swap1\n              pop\n                /* \"#utility.yul\":17402:17768   */\n              swap2\n              swap1\n              pop\n              jump\t// out\n                /* \"#utility.yul\":17774:18193   */\n            tag_152:\n                /* \"#utility.yul\":17940:17944   */\n              0x00\n                /* \"#utility.yul\":17978:17980   */\n              0x20\n                /* \"#utility.yul\":17967:17976   */\n              dup3\n                /* \"#utility.yul\":17963:17981   */\n              add\n                /* \"#utility.yul\":17955:17981   */\n              swap1\n              pop\n                /* \"#utility.yul\":18027:18036   */\n              dup2\n                /* \"#utility.yul\":18021:18025   */\n              dup2\n                /* \"#utility.yul\":18017:18037   */\n              sub\n                /* \"#utility.yul\":18013:18014   */\n              0x00\n                /* \"#utility.yul\":18002:18011   */\n              dup4\n                /* \"#utility.yul\":17998:18015   */\n              add\n                /* \"#utility.yul\":17991:18038   */\n              mstore\n                /* \"#utility.yul\":18055:18186   */\n              tag_416\n                /* \"#utility.yul\":18181:18185   */\n              dup2\n                /* \"#utility.yul\":18055:18186   */\n              tag_233\n              jump\t// in\n            tag_416:\n                /* \"#utility.yul\":18047:18186   */\n              swap1\n              pop\n                /* \"#utility.yul\":17774:18193   */\n              swap2\n              swap1\n              pop\n              jump\t// out\n                /* \"#utility.yul\":18199:18296   */\n            tag_234:\n                /* \"#utility.yul\":18258:18264   */\n              0x00\n                /* \"#utility.yul\":18286:18289   */\n              dup3\n                /* \"#utility.yul\":18276:18289   */\n              swap1\n              pop\n                /* \"#utility.yul\":18199:18296   */\n              swap3\n              swap2\n              pop\n              pop\n              jump\t// out\n                /* \"#utility.yul\":18302:18482   */\n            tag_235:\n                /* \"#utility.yul\":18350:18427   */\n              0x4e487b7100000000000000000000000000000000000000000000000000000000\n                /* \"#utility.yul\":18347:18348   */\n              0x00\n                /* \"#utility.yul\":18340:18428   */\n              mstore\n                /* \"#utility.yul\":18447:18451   */\n              0x41\n                /* \"#utility.yul\":18444:18445   */\n              0x04\n                /* \"#utility.yul\":18437:18452   */\n              mstore\n                /* \"#utility.yul\":18471:18475   */\n              0x24\n                /* \"#utility.yul\":18468:18469   */\n              0x00\n                /* \"#utility.yul\":18461:18476   */\n              revert\n                /* \"#utility.yul\":18488:18629   */\n            tag_236:\n                /* \"#utility.yul\":18537:18541   */\n              0x00\n                /* \"#utility.yul\":18560:18563   */\n              dup2\n                /* \"#utility.yul\":18552:18563   */\n              swap1\n              pop\n                /* \"#utility.yul\":18583:18586   */\n              dup2\n                /* \"#utility.yul\":18580:18581   */\n              0x00\n                /* \"#utility.yul\":18573:18587   */\n              mstore\n                /* \"#utility.yul\":18617:18621   */\n              0x20\n                /* \"#utility.yul\":18614:18615   */\n              0x00\n                /* \"#utility.yul\":18604:18622   */\n              keccak256\n                /* \"#utility.yul\":18596:18622   */\n              swap1\n              pop\n                /* \"#utility.yul\":18488:18629   */\n              swap2\n              swap1\n              pop\n              jump\t// out\n                /* \"#utility.yul\":18635:18728   */\n            tag_237:\n                /* \"#utility.yul\":18672:18678   */\n              0x00\n                /* \"#utility.yul\":18719:18721   */\n              0x20\n                /* \"#utility.yul\":18714:18716   */\n              0x1f\n                /* \"#utility.yul\":18707:18712   */\n              dup4\n                /* \"#utility.yul\":18703:18717   */\n              add\n                /* \"#utility.yul\":18699:18722   */\n              div\n                /* \"#utility.yul\":18689:18722   */\n              swap1\n              pop\n                /* \"#utility.yul\":18635:18728   */\n              swap2\n              swap1\n              pop\n              jump\t// out\n                /* \"#utility.yul\":18734:18841   */\n            tag_238:\n                /* \"#utility.yul\":18778:18786   */\n              0x00\n                /* \"#utility.yul\":18828:18833   */\n              dup3\n                /* \"#utility.yul\":18822:18826   */\n              dup3\n                /* \"#utility.yul\":18818:18834   */\n              shl\n                /* \"#utility.yul\":18797:18834   */\n              swap1\n              pop\n                /* \"#utility.yul\":18734:18841   */\n              swap3\n              swap2\n              pop\n              pop\n              jump\t// out\n                /* \"#utility.yul\":18847:19240   */\n            tag_239:\n                /* \"#utility.yul\":18916:18922   */\n              0x00\n                /* \"#utility.yul\":18966:18967   */\n              0x08\n                /* \"#utility.yul\":18954:18964   */\n              dup4\n                /* \"#utility.yul\":18950:18968   */\n              mul\n                /* \"#utility.yul\":18989:19086   */\n              tag_423\n                /* \"#utility.yul\":19019:19085   */\n              0xffffffffffffffffffffffffffffffffffffffffffffffffffffffffffffffff\n                /* \"#utility.yul\":19008:19017   */\n              dup3\n                /* \"#utility.yul\":18989:19086   */\n              tag_238\n              jump\t// in\n            tag_423:\n                /* \"#utility.yul\":19107:19146   */\n              tag_424\n                /* \"#utility.yul\":19137:19145   */\n              dup7\n                /* \"#utility.yul\":19126:19135   */\n              dup4\n                /* \"#utility.yul\":19107:19146   */\n              tag_238\n              jump\t// in\n            tag_424:\n                /* \"#utility.yul\":19095:19146   */\n              swap6\n              pop\n                /* \"#utility.yul\":19179:19183   */\n              dup1\n                /* \"#utility.yul\":19175:19184   */\n              not\n                /* \"#utility.yul\":19168:19173   */\n              dup5\n                /* \"#utility.yul\":19164:19185   */\n              and\n                /* \"#utility.yul\":19155:19185   */\n              swap4\n              pop\n                /* \"#utility.yul\":19228:19232   */\n              dup1\n                /* \"#utility.yul\":19218:19226   */\n              dup7\n                /* \"#utility.yul\":19214:19233   */\n              and\n                /* \"#utility.yul\":19207:19212   */\n              dup5\n                /* \"#utility.yul\":19204:19234   */\n              or\n                /* \"#utility.yul\":19194:19234   */\n              swap3\n              pop\n                /* \"#utility.yul\":18923:19240   */\n              pop\n              pop\n                /* \"#utility.yul\":18847:19240   */\n              swap4\n              swap3\n              pop\n              pop\n              pop\n              jump\t// out\n                /* \"#utility.yul\":19246:19306   */\n            tag_240:\n                /* \"#utility.yul\":19274:19277   */\n              0x00\n                /* \"#utility.yul\":19295:19300   */\n              dup2\n                /* \"#utility.yul\":19288:19300   */\n              swap1\n              pop\n                /* \"#utility.yul\":19246:19306   */\n              swap2\n              swap1\n              pop\n              jump\t// out\n                /* \"#utility.yul\":19312:19454   */\n            tag_241:\n                /* \"#utility.yul\":19362:19371   */\n              0x00\n                /* \"#utility.yul\":19395:19448   */\n              tag_427\n                /* \"#utility.yul\":19413:19447   */\n              tag_428\n                /* \"#utility.yul\":19422:19446   */\n              tag_429\n                /* \"#utility.yul\":19440:19445   */\n              dup5\n                /* \"#utility.yul\":19422:19446   */\n              tag_203\n              jump\t// in\n            tag_429:\n                /* \"#utility.yul\":19413:19447   */\n              tag_240\n              jump\t// in\n            tag_428:\n                /* \"#utility.yul\":19395:19448   */\n              tag_203\n              jump\t// in\n            tag_427:\n                /* \"#utility.yul\":19382:19448   */\n              swap1\n              pop\n                /* \"#utility.yul\":19312:19454   */\n              swap2\n              swap1\n              pop\n              jump\t// out\n                /* \"#utility.yul\":19460:19535   */\n            tag_242:\n                /* \"#utility.yul\":19503:19506   */\n              0x00\n                /* \"#utility.yul\":19524:19529   */\n              dup2\n                /* \"#utility.yul\":19517:19529   */\n              swap1\n              pop\n                /* \"#utility.yul\":19460:19535   */\n              swap2\n              swap1\n              pop\n              jump\t// out\n                /* \"#utility.yul\":19541:19810   */\n            tag_243:\n                /* \"#utility.yul\":19651:19690   */\n              tag_432\n                /* \"#utility.yul\":19682:19689   */\n              dup4\n                /* \"#utility.yul\":19651:19690   */\n              tag_241\n              jump\t// in\n            tag_432:\n                /* \"#utility.yul\":19712:19803   */\n              tag_433\n                /* \"#utility.yul\":19761:19802   */\n              tag_434\n                /* \"#utility.yul\":19785:19801   */\n              dup3\n                /* \"#utility.yul\":19761:19802   */\n              tag_242\n              jump\t// in\n            tag_434:\n                /* \"#utility.yul\":19753:19759   */\n              dup5\n                /* \"#utility.yul\":19746:19750   */\n              dup5\n                /* \"#utility.yul\":19740:19751   */\n              sload\n                /* \"#utility.yul\":19712:19803   */\n              tag_239\n              jump\t// in\n            tag_433:\n                /* \"#utility.yul\":19706:19710   */\n              dup3\n                /* \"#utility.yul\":19699:19804   */\n              sstore\n                /* \"#utility.yul\":19617:19810   */\n              pop\n                /* \"#utility.yul\":19541:19810   */\n              pop\n              pop\n              pop\n              jump\t// out\n                /* \"#utility.yul\":19816:19889   */\n            tag_244:\n                /* \"#utility.yul\":19861:19864   */\n              0x00\n                /* \"#utility.yul\":19816:19889   */\n              swap1\n              jump\t// out\n                /* \"#utility.yul\":19895:20084   */\n            tag_245:\n                /* \"#utility.yul\":19972:20004   */\n              tag_437\n              tag_244\n              jump\t// in\n            tag_437:\n                /* \"#utility.yul\":20013:20078   */\n              tag_438\n                /* \"#utility.yul\":20071:20077   */\n              dup2\n                /* \"#utility.yul\":20063:20069   */\n              dup5\n                /* \"#utility.yul\":20057:20061   */\n              dup5\n                /* \"#utility.yul\":20013:20078   */\n              tag_243\n              jump\t// in\n            tag_438:\n                /* \"#utility.yul\":19948:20084   */\n              pop\n                /* \"#utility.yul\":19895:20084   */\n              pop\n              pop\n              jump\t// out\n                /* \"#utility.yul\":20090:20276   */\n            tag_246:\n                /* \"#utility.yul\":20150:20270   */\n            tag_440:\n                /* \"#utility.yul\":20167:20170   */\n              dup2\n                /* \"#utility.yul\":20160:20165   */\n              dup2\n                /* \"#utility.yul\":20157:20171   */\n              lt\n                /* \"#utility.yul\":20150:20270   */\n              iszero\n              tag_442\n              jumpi\n                /* \"#utility.yul\":20221:20260   */\n              tag_443\n                /* \"#utility.yul\":20258:20259   */\n              0x00\n                /* \"#utility.yul\":20251:20256   */\n              dup3\n                /* \"#utility.yul\":20221:20260   */\n              tag_245\n              jump\t// in\n            tag_443:\n                /* \"#utility.yul\":20194:20195   */\n              0x01\n                /* \"#utility.yul\":20187:20192   */\n              dup2\n                /* \"#utility.yul\":20183:20196   */\n              add\n                /* \"#utility.yul\":20174:20196   */\n              swap1\n              pop\n                /* \"#utility.yul\":20150:20270   */\n              jump(tag_440)\n            tag_442:\n                /* \"#utility.yul\":20090:20276   */\n              pop\n              pop\n              jump\t// out\n                /* \"#utility.yul\":20282:20825   */\n            tag_247:\n                /* \"#utility.yul\":20383:20385   */\n              0x1f\n                /* \"#utility.yul\":20378:20381   */\n              dup3\n                /* \"#utility.yul\":20375:20386   */\n              gt\n                /* \"#utility.yul\":20372:20818   */\n              iszero\n              tag_445\n              jumpi\n                /* \"#utility.yul\":20417:20455   */\n              tag_446\n                /* \"#utility.yul\":20449:20454   */\n              dup2\n                /* \"#utility.yul\":20417:20455   */\n              tag_236\n              jump\t// in\n            tag_446:\n                /* \"#utility.yul\":20501:20530   */\n              tag_447\n                /* \"#utility.yul\":20519:20529   */\n              dup5\n                /* \"#utility.yul\":20501:20530   */\n              tag_237\n              jump\t// in\n            tag_447:\n                /* \"#utility.yul\":20491:20499   */\n              dup2\n                /* \"#utility.yul\":20487:20531   */\n              add\n                /* \"#utility.yul\":20684:20686   */\n              0x20\n                /* \"#utility.yul\":20672:20682   */\n              dup6\n                /* \"#utility.yul\":20669:20687   */\n              lt\n                /* \"#utility.yul\":20666:20715   */\n              iszero\n              tag_448\n              jumpi\n                /* \"#utility.yul\":20705:20713   */\n              dup2\n                /* \"#utility.yul\":20690:20713   */\n              swap1\n              pop\n                /* \"#utility.yul\":20666:20715   */\n            tag_448:\n                /* \"#utility.yul\":20728:20808   */\n              tag_449\n                /* \"#utility.yul\":20784:20806   */\n              tag_450\n                /* \"#utility.yul\":20802:20805   */\n              dup6\n                /* \"#utility.yul\":20784:20806   */\n              tag_237\n              jump\t// in\n            tag_450:\n                /* \"#utility.yul\":20774:20782   */\n              dup4\n                /* \"#utility.yul\":20770:20807   */\n              add\n                /* \"#utility.yul\":20757:20768   */\n              dup3\n                /* \"#utility.yul\":20728:20808   */\n              tag_246\n              jump\t// in\n            tag_449:\n                /* \"#utility.yul\":20387:20818   */\n              pop\n              pop\n                /* \"#utility.yul\":20372:20818   */\n            tag_445:\n                /* \"#utility.yul\":20282:20825   */\n              pop\n              pop\n              pop\n              jump\t// out\n                /* \"#utility.yul\":20831:20948   */\n            tag_248:\n                /* \"#utility.yul\":20885:20893   */\n              0x00\n                /* \"#utility.yul\":20935:20940   */\n              dup3\n                /* \"#utility.yul\":20929:20933   */\n              dup3\n                /* \"#utility.yul\":20925:20941   */\n              shr\n                /* \"#utility.yul\":20904:20941   */\n              swap1\n              pop\n                /* \"#utility.yul\":20831:20948   */\n              swap3\n              swap2\n              pop\n              pop\n              jump\t// out\n                /* \"#utility.yul\":20954:21123   */\n            tag_249:\n                /* \"#utility.yul\":20998:21004   */\n              0x00\n                /* \"#utility.yul\":21031:21082   */\n              tag_453\n                /* \"#utility.yul\":21079:21080   */\n              0x00\n                /* \"#utility.yul\":21075:21081   */\n              not\n                /* \"#utility.yul\":21067:21072   */\n              dup5\n                /* \"#utility.yul\":21064:21065   */\n              0x08\n                /* \"#utility.yul\":21060:21073   */\n              mul\n                /* \"#utility.yul\":21031:21082   */\n              tag_248\n              jump\t// in\n            tag_453:\n                /* \"#utility.yul\":21027:21083   */\n              not\n                /* \"#utility.yul\":21112:21116   */\n              dup1\n                /* \"#utility.yul\":21106:21110   */\n              dup4\n                /* \"#utility.yul\":21102:21117   */\n              and\n                /* \"#utility.yul\":21092:21117   */\n              swap2\n              pop\n                /* \"#utility.yul\":21005:21123   */\n              pop\n                /* \"#utility.yul\":20954:21123   */\n              swap3\n              swap2\n              pop\n              pop\n              jump\t// out\n                /* \"#utility.yul\":21128:21423   */\n            tag_250:\n                /* \"#utility.yul\":21204:21208   */\n              0x00\n                /* \"#utility.yul\":21350:21379   */\n              tag_455\n                /* \"#utility.yul\":21375:21378   */\n              dup4\n                /* \"#utility.yul\":21369:21373   */\n              dup4\n                /* \"#utility.yul\":21350:21379   */\n              tag_249\n              jump\t// in\n            tag_455:\n                /* \"#utility.yul\":21342:21379   */\n              swap2\n              pop\n                /* \"#utility.yul\":21412:21415   */\n              dup3\n                /* \"#utility.yul\":21409:21410   */\n              0x02\n                /* \"#utility.yul\":21405:21416   */\n              mul\n                /* \"#utility.yul\":21399:21403   */\n              dup3\n                /* \"#utility.yul\":21396:21417   */\n              or\n                /* \"#utility.yul\":21388:21417   */\n              swap1\n              pop\n                /* \"#utility.yul\":21128:21423   */\n              swap3\n              swap2\n              pop\n              pop\n              jump\t// out\n                /* \"#utility.yul\":21428:22831   */\n            tag_154:\n                /* \"#utility.yul\":21552:21596   */\n              tag_457\n                /* \"#utility.yul\":21592:21595   */\n              dup4\n                /* \"#utility.yul\":21587:21590   */\n              dup4\n                /* \"#utility.yul\":21552:21596   */\n              tag_234\n              jump\t// in\n            tag_457:\n                /* \"#utility.yul\":21661:21679   */\n              0xffffffffffffffff\n                /* \"#utility.yul\":21653:21659   */\n              dup2\n                /* \"#utility.yul\":21650:21680   */\n              gt\n                /* \"#utility.yul\":21647:21703   */\n              iszero\n              tag_458\n              jumpi\n                /* \"#utility.yul\":21683:21701   */\n              tag_459\n              tag_235\n              jump\t// in\n            tag_459:\n                /* \"#utility.yul\":21647:21703   */\n            tag_458:\n                /* \"#utility.yul\":21727:21765   */\n              tag_460\n                /* \"#utility.yul\":21759:21763   */\n              dup3\n                /* \"#utility.yul\":21753:21764   */\n              sload\n                /* \"#utility.yul\":21727:21765   */\n              tag_67\n              jump\t// in\n            tag_460:\n                /* \"#utility.yul\":21812:21879   */\n              tag_461\n                /* \"#utility.yul\":21872:21878   */\n              dup3\n                /* \"#utility.yul\":21864:21870   */\n              dup3\n                /* \"#utility.yul\":21858:21862   */\n              dup6\n                /* \"#utility.yul\":21812:21879   */\n              tag_247\n              jump\t// in\n            tag_461:\n                /* \"#utility.yul\":21906:21907   */\n              0x00\n                /* \"#utility.yul\":21935:21937   */\n              0x1f\n                /* \"#utility.yul\":21927:21933   */\n              dup4\n                /* \"#utility.yul\":21924:21938   */\n              gt\n                /* \"#utility.yul\":21952:21953   */\n              0x01\n                /* \"#utility.yul\":21947:22579   */\n              dup2\n              eq\n              tag_463\n              jumpi\n                /* \"#utility.yul\":22623:22624   */\n              0x00\n                /* \"#utility.yul\":22640:22646   */\n              dup5\n                /* \"#utility.yul\":22637:22721   */\n              iszero\n              tag_464\n              jumpi\n                /* \"#utility.yul\":22696:22705   */\n              dup3\n                /* \"#utility.yul\":22691:22694   */\n              dup8\n                /* \"#utility.yul\":22687:22706   */\n              add\n                /* \"#utility.yul\":22674:22707   */\n              calldataload\n                /* \"#utility.yul\":22665:22707   */\n              swap1\n              pop\n                /* \"#utility.yul\":22637:22721   */\n            tag_464:\n                /* \"#utility.yul\":22747:22814   */\n              tag_465\n                /* \"#utility.yul\":22807:22813   */\n              dup6\n                /* \"#utility.yul\":22800:22805   */\n              dup3\n                /* \"#utility.yul\":22747:22814   */\n              tag_250\n              jump\t// in\n            tag_465:\n                /* \"#utility.yul\":22741:22745   */\n              dup7\n                /* \"#utility.yul\":22734:22815   */\n              sstore\n                /* \"#utility.yul\":22596:22825   */\n              pop\n                /* \"#utility.yul\":21917:22825   */\n              jump(tag_462)\n                /* \"#utility.yul\":21947:22579   */\n            tag_463:\n                /* \"#utility.yul\":21999:22003   */\n              0x1f\n                /* \"#utility.yul\":21995:22004   */\n              not\n                /* \"#utility.yul\":21987:21993   */\n              dup5\n                /* \"#utility.yul\":21983:22005   */\n              and\n                /* \"#utility.yul\":22033:22070   */\n              tag_466\n                /* \"#utility.yul\":22065:22069   */\n              dup7\n                /* \"#utility.yul\":22033:22070   */\n              tag_236\n              jump\t// in\n            tag_466:\n                /* \"#utility.yul\":22092:22093   */\n              0x00\n                /* \"#utility.yul\":22106:22321   */\n            tag_467:\n                /* \"#utility.yul\":22120:22127   */\n              dup3\n                /* \"#utility.yul\":22117:22118   */\n              dup2\n                /* \"#utility.yul\":22114:22128   */\n              lt\n                /* \"#utility.yul\":22106:22321   */\n              iszero\n              tag_469\n              jumpi\n                /* \"#utility.yul\":22206:22215   */\n              dup5\n                /* \"#utility.yul\":22201:22204   */\n              dup10\n                /* \"#utility.yul\":22197:22216   */\n              add\n                /* \"#utility.yul\":22184:22217   */\n              calldataload\n                /* \"#utility.yul\":22176:22182   */\n              dup3\n                /* \"#utility.yul\":22169:22218   */\n              sstore\n                /* \"#utility.yul\":22257:22258   */\n              0x01\n                /* \"#utility.yul\":22249:22255   */\n              dup3\n                /* \"#utility.yul\":22245:22259   */\n              add\n                /* \"#utility.yul\":22235:22259   */\n              swap2\n              pop\n                /* \"#utility.yul\":22304:22306   */\n              0x20\n                /* \"#utility.yul\":22293:22302   */\n              dup6\n                /* \"#utility.yul\":22289:22307   */\n              add\n                /* \"#utility.yul\":22276:22307   */\n              swap5\n              pop\n                /* \"#utility.yul\":22143:22147   */\n              0x20\n                /* \"#utility.yul\":22140:22141   */\n              dup2\n                /* \"#utility.yul\":22136:22148   */\n              add\n                /* \"#utility.yul\":22131:22148   */\n              swap1\n              pop\n                /* \"#utility.yul\":22106:22321   */\n              jump(tag_467)\n            tag_469:\n                /* \"#utility.yul\":22349:22355   */\n              dup7\n                /* \"#utility.yul\":22340:22347   */\n              dup4\n                /* \"#utility.yul\":22337:22356   */\n              lt\n                /* \"#utility.yul\":22334:22520   */\n              iszero\n              tag_470\n              jumpi\n                /* \"#utility.yul\":22414:22423   */\n              dup5\n                /* \"#utility.yul\":22409:22412   */\n              dup10\n                /* \"#utility.yul\":22405:22424   */\n              add\n                /* \"#utility.yul\":22392:22425   */\n              calldataload\n                /* \"#utility.yul\":22457:22505   */\n              tag_471\n                /* \"#utility.yul\":22499:22503   */\n              0x1f\n                /* \"#utility.yul\":22491:22497   */\n              dup10\n                /* \"#utility.yul\":22487:22504   */\n              and\n                /* \"#utility.yul\":22476:22485   */\n              dup3\n                /* \"#utility.yul\":22457:22505   */\n              tag_249\n              jump\t// in\n            tag_471:\n                /* \"#utility.yul\":22449:22455   */\n              dup4\n                /* \"#utility.yul\":22442:22506   */\n              sstore\n                /* \"#utility.yul\":22357:22520   */\n              pop\n                /* \"#utility.yul\":22334:22520   */\n            tag_470:\n                /* \"#utility.yul\":22566:22567   */\n              0x01\n                /* \"#utility.yul\":22562:22563   */\n              0x02\n                /* \"#utility.yul\":22554:22560   */\n              dup9\n                /* \"#utility.yul\":22550:22564   */\n              mul\n                /* \"#utility.yul\":22546:22568   */\n              add\n                /* \"#utility.yul\":22540:22544   */\n              dup9\n                /* \"#utility.yul\":22533:22569   */\n              sstore\n                /* \"#utility.yul\":21954:22579   */\n              pop\n              pop\n              pop\n                /* \"#utility.yul\":21917:22825   */\n            tag_462:\n              pop\n                /* \"#utility.yul\":21527:22831   */\n              pop\n              pop\n              pop\n                /* \"#utility.yul\":21428:22831   */\n              pop\n              pop\n              pop\n              jump\t// out\n                /* \"#utility.yul\":22837:23028   */\n            tag_157:\n                /* \"#utility.yul\":22877:22880   */\n              0x00\n                /* \"#utility.yul\":22896:22916   */\n              tag_473\n                /* \"#utility.yul\":22914:22915   */\n              dup3\n                /* \"#utility.yul\":22896:22916   */\n              tag_203\n              jump\t// in\n            tag_473:\n                /* \"#utility.yul\":22891:22916   */\n              swap2\n              pop\n                /* \"#utility.yul\":22930:22950   */\n              tag_474\n                /* \"#utility.yul\":22948:22949   */\n              dup4\n                /* \"#utility.yul\":22930:22950   */\n              tag_203\n              jump\t// in\n            tag_474:\n                /* \"#utility.yul\":22925:22950   */\n              swap3\n              pop\n                /* \"#utility.yul\":22973:22974   */\n              dup3\n                /* \"#utility.yul\":22970:22971   */\n              dup3\n                /* \"#utility.yul\":22966:22975   */\n              add\n                /* \"#utility.yul\":22959:22975   */\n              swap1\n              pop\n                /* \"#utility.yul\":22994:22997   */\n              dup1\n                /* \"#utility.yul\":22991:22992   */\n              dup3\n                /* \"#utility.yul\":22988:22998   */\n              gt\n                /* \"#utility.yul\":22985:23021   */\n              iszero\n              tag_475\n              jumpi\n                /* \"#utility.yul\":23001:23019   */\n              tag_476\n              tag_223\n              jump\t// in\n            tag_476:\n                /* \"#utility.yul\":22985:23021   */\n            tag_475:\n                /* \"#utility.yul\":22837:23028   */\n              swap3\n              swap2\n              pop\n              pop\n              jump\t// out\n                /* \"#utility.yul\":23034:23228   */\n            tag_168:\n                /* \"#utility.yul\":23074:23078   */\n              0x00\n                /* \"#utility.yul\":23094:23114   */\n              tag_478\n                /* \"#utility.yul\":23112:23113   */\n              dup3\n                /* \"#utility.yul\":23094:23114   */\n              tag_203\n              jump\t// in\n            tag_478:\n                /* \"#utility.yul\":23089:23114   */\n              swap2\n              pop\n                /* \"#utility.yul\":23128:23148   */\n              tag_479\n                /* \"#utility.yul\":23146:23147   */\n              dup4\n                /* \"#utility.yul\":23128:23148   */\n              tag_203\n              jump\t// in\n            tag_479:\n                /* \"#utility.yul\":23123:23148   */\n              swap3\n              pop\n                /* \"#utility.yul\":23172:23173   */\n              dup3\n                /* \"#utility.yul\":23169:23170   */\n              dup3\n                /* \"#utility.yul\":23165:23174   */\n              sub\n                /* \"#utility.yul\":23157:23174   */\n              swap1\n              pop\n                /* \"#utility.yul\":23196:23197   */\n              dup2\n                /* \"#utility.yul\":23190:23194   */\n              dup2\n                /* \"#utility.yul\":23187:23198   */\n              gt\n                /* \"#utility.yul\":23184:23221   */\n              iszero\n              tag_480\n              jumpi\n                /* \"#utility.yul\":23201:23219   */\n              tag_481\n              tag_223\n              jump\t// in\n            tag_481:\n                /* \"#utility.yul\":23184:23221   */\n            tag_480:\n                /* \"#utility.yul\":23034:23228   */\n              swap3\n              swap2\n              pop\n              pop\n              jump\t// out\n                /* \"#utility.yul\":23234:23414   */\n            tag_177:\n                /* \"#utility.yul\":23282:23359   */\n              0x4e487b7100000000000000000000000000000000000000000000000000000000\n                /* \"#utility.yul\":23279:23280   */\n              0x00\n                /* \"#utility.yul\":23272:23360   */\n              mstore\n                /* \"#utility.yul\":23379:23383   */\n              0x31\n                /* \"#utility.yul\":23376:23377   */\n              0x04\n                /* \"#utility.yul\":23369:23384   */\n              mstore\n                /* \"#utility.yul\":23403:23407   */\n              0x24\n                /* \"#utility.yul\":23400:23401   */\n              0x00\n                /* \"#utility.yul\":23393:23408   */\n              revert\n\n            auxdata: 0xa26469706673582212203af30db9859ca7ec319c1f465b502a45587dd57e6b703f7e4b552d5a9f25ff6164736f6c63430008110033\n        }\n    }\n\n    sub_1: assembly {\n            /* \"MemberPool.sol\":94:3385  contract MemberPool {... */\n          mstore(0x40, 0xa0)\n            /* \"MemberPool.sol\":782:1013  constructor(... */\n          callvalue\n          dup1\n          iszero\n          tag_1\n          jumpi\n          0x00\n          dup1\n          revert\n        tag_1:\n          pop\n          mload(0x40)\n          sub(codesize, bytecodeSize)\n          dup1\n          bytecodeSize\n          dup4\n          codecopy\n          dup2\n          dup2\n          add\n          0x40\n          mstore\n          dup2\n          add\n          swap1\n          tag_2\n          swap2\n          swap1\n          tag_3\n          jump\t// in\n        tag_2:\n            /* \"MemberPool.sol\":932:953  _applicantPoolAddress */\n          dup3\n            /* \"MemberPool.sol\":909:929  applicantPoolAddress */\n          0x08\n          0x00\n            /* \"MemberPool.sol\":909:953  applicantPoolAddress = _applicantPoolAddress */\n          0x0100\n          exp\n          dup2\n          sload\n          dup2\n          0xffffffffffffffffffffffffffffffffffffffff\n          mul\n          not\n          and\n          swap1\n          dup4\n          0xffffffffffffffffffffffffffffffffffffffff\n          and\n          mul\n          or\n          swap1\n          sstore\n          pop\n            /* \"MemberPool.sol\":974:982  _creator */\n          dup2\n            /* \"MemberPool.sol\":964:982  creator = _creator */\n          0xffffffffffffffffffffffffffffffffffffffff\n          and\n          0x80\n          dup2\n          0xffffffffffffffffffffffffffffffffffffffff\n          and\n          dup2\n          mstore\n          pop\n          pop\n            /* \"MemberPool.sol\":1000:1005  _name */\n          dup1\n            /* \"MemberPool.sol\":993:997  name */\n          0x00\n            /* \"MemberPool.sol\":993:1005  name = _name */\n          swap1\n          dup2\n          tag_6\n          swap2\n          swap1\n          tag_7\n          jump\t// in\n        tag_6:\n          pop\n            /* \"MemberPool.sol\":782:1013  constructor(... */\n          pop\n          pop\n          pop\n            /* \"MemberPool.sol\":94:3385  contract MemberPool {... */\n          jump(tag_8)\n            /* \"#utility.yul\":7:82   */\n        tag_9:\n            /* \"#utility.yul\":40:46   */\n          0x00\n            /* \"#utility.yul\":73:75   */\n          0x40\n            /* \"#utility.yul\":67:76   */\n          mload\n            /* \"#utility.yul\":57:76   */\n          swap1\n          pop\n            /* \"#utility.yul\":7:82   */\n          swap1\n          jump\t// out\n            /* \"#utility.yul\":88:205   */\n        tag_10:\n            /* \"#utility.yul\":197:198   */\n          0x00\n            /* \"#utility.yul\":194:195   */\n          dup1\n            /* \"#utility.yul\":187:199   */\n          revert\n            /* \"#utility.yul\":211:328   */\n        tag_11:\n            /* \"#utility.yul\":320:321   */\n          0x00\n            /* \"#utility.yul\":317:318   */\n          dup1\n            /* \"#utility.yul\":310:322   */\n          revert\n            /* \"#utility.yul\":334:460   */\n        tag_12:\n            /* \"#utility.yul\":371:378   */\n          0x00\n            /* \"#utility.yul\":411:453   */\n          0xffffffffffffffffffffffffffffffffffffffff\n            /* \"#utility.yul\":404:409   */\n          dup3\n            /* \"#utility.yul\":400:454   */\n          and\n            /* \"#utility.yul\":389:454   */\n          swap1\n          pop\n            /* \"#utility.yul\":334:460   */\n          swap2\n          swap1\n          pop\n          jump\t// out\n            /* \"#utility.yul\":466:562   */\n        tag_13:\n            /* \"#utility.yul\":503:510   */\n          0x00\n            /* \"#utility.yul\":532:556   */\n          tag_51\n            /* \"#utility.yul\":550:555   */\n          dup3\n            /* \"#utility.yul\":532:556   */\n          tag_12\n          jump\t// in\n        tag_51:\n            /* \"#utility.yul\":521:556   */\n          swap1\n          pop\n            /* \"#utility.yul\":466:562   */\n          swap2\n          swap1\n          pop\n          jump\t// out\n            /* \"#utility.yul\":568:690   */\n        tag_14:\n            /* \"#utility.yul\":641:665   */\n          tag_53\n            /* \"#utility.yul\":659:664   */\n          dup2\n            /* \"#utility.yul\":641:665   */\n          tag_13\n          jump\t// in\n        tag_53:\n            /* \"#utility.yul\":634:639   */\n          dup2\n            /* \"#utility.yul\":631:666   */\n          eq\n            /* \"#utility.yul\":621:684   */\n          tag_54\n          jumpi\n            /* \"#utility.yul\":680:681   */\n          0x00\n            /* \"#utility.yul\":677:678   */\n          dup1\n            /* \"#utility.yul\":670:682   */\n          revert\n            /* \"#utility.yul\":621:684   */\n        tag_54:\n            /* \"#utility.yul\":568:690   */\n          pop\n          jump\t// out\n            /* \"#utility.yul\":696:839   */\n        tag_15:\n            /* \"#utility.yul\":753:758   */\n          0x00\n            /* \"#utility.yul\":784:790   */\n          dup2\n            /* \"#utility.yul\":778:791   */\n          mload\n            /* \"#utility.yul\":769:791   */\n          swap1\n          pop\n            /* \"#utility.yul\":800:833   */\n          tag_56\n            /* \"#utility.yul\":827:832   */\n          dup2\n            /* \"#utility.yul\":800:833   */\n          tag_14\n          jump\t// in\n        tag_56:\n            /* \"#utility.yul\":696:839   */\n          swap3\n          swap2\n          pop\n          pop\n          jump\t// out\n            /* \"#utility.yul\":845:962   */\n        tag_16:\n            /* \"#utility.yul\":954:955   */\n          0x00\n            /* \"#utility.yul\":951:952   */\n          dup1\n            /* \"#utility.yul\":944:956   */\n          revert\n            /* \"#utility.yul\":968:1085   */\n        tag_17:\n            /* \"#utility.yul\":1077:1078   */\n          0x00\n            /* \"#utility.yul\":1074:1075   */\n          dup1\n            /* \"#utility.yul\":1067:1079   */\n          revert\n            /* \"#utility.yul\":1091:1193   */\n        tag_18:\n            /* \"#utility.yul\":1132:1138   */\n          0x00\n            /* \"#utility.yul\":1183:1185   */\n          0x1f\n            /* \"#utility.yul\":1179:1186   */\n          not\n            /* \"#utility.yul\":1174:1176   */\n          0x1f\n            /* \"#utility.yul\":1167:1172   */\n          dup4\n            /* \"#utility.yul\":1163:1177   */\n          add\n            /* \"#utility.yul\":1159:1187   */\n          and\n            /* \"#utility.yul\":1149:1187   */\n          swap1\n          pop\n            /* \"#utility.yul\":1091:1193   */\n          swap2\n          swap1\n          pop\n          jump\t// out\n            /* \"#utility.yul\":1199:1379   */\n        tag_19:\n            /* \"#utility.yul\":1247:1324   */\n          0x4e487b7100000000000000000000000000000000000000000000000000000000\n            /* \"#utility.yul\":1244:1245   */\n          0x00\n            /* \"#utility.yul\":1237:1325   */\n          mstore\n            /* \"#utility.yul\":1344:1348   */\n          0x41\n            /* \"#utility.yul\":1341:1342   */\n          0x04\n            /* \"#utility.yul\":1334:1349   */\n          mstore\n            /* \"#utility.yul\":1368:1372   */\n          0x24\n            /* \"#utility.yul\":1365:1366   */\n          0x00\n            /* \"#utility.yul\":1358:1373   */\n          revert\n            /* \"#utility.yul\":1385:1666   */\n        tag_20:\n            /* \"#utility.yul\":1468:1495   */\n          tag_62\n            /* \"#utility.yul\":1490:1494   */\n          dup3\n            /* \"#utility.yul\":1468:1495   */\n          tag_18\n          jump\t// in\n        tag_62:\n            /* \"#utility.yul\":1460:1466   */\n          dup2\n            /* \"#utility.yul\":1456:1496   */\n          add\n            /* \"#utility.yul\":1598:1604   */\n          dup2\n            /* \"#utility.yul\":1586:1596   */\n          dup2\n            /* \"#utility.yul\":1583:1605   */\n          lt\n            /* \"#utility.yul\":1562:1580   */\n          0xffffffffffffffff\n            /* \"#utility.yul\":1550:1560   */\n          dup3\n            /* \"#utility.yul\":1547:1581   */\n          gt\n            /* \"#utility.yul\":1544:1606   */\n          or\n            /* \"#utility.yul\":1541:1629   */\n          iszero\n          tag_63\n          jumpi\n            /* \"#utility.yul\":1609:1627   */\n          tag_64\n          tag_19\n          jump\t// in\n        tag_64:\n            /* \"#utility.yul\":1541:1629   */\n        tag_63:\n            /* \"#utility.yul\":1649:1659   */\n          dup1\n            /* \"#utility.yul\":1645:1647   */\n          0x40\n            /* \"#utility.yul\":1638:1660   */\n          mstore\n            /* \"#utility.yul\":1428:1666   */\n          pop\n            /* \"#utility.yul\":1385:1666   */\n          pop\n          pop\n          jump\t// out\n            /* \"#utility.yul\":1672:1801   */\n        tag_21:\n            /* \"#utility.yul\":1706:1712   */\n          0x00\n            /* \"#utility.yul\":1733:1753   */\n          tag_66\n          tag_9\n          jump\t// in\n        tag_66:\n            /* \"#utility.yul\":1723:1753   */\n          swap1\n          pop\n            /* \"#utility.yul\":1762:1795   */\n          tag_67\n            /* \"#utility.yul\":1790:1794   */\n          dup3\n            /* \"#utility.yul\":1782:1788   */\n          dup3\n            /* \"#utility.yul\":1762:1795   */\n          tag_20\n          jump\t// in\n        tag_67:\n            /* \"#utility.yul\":1672:1801   */\n          swap2\n          swap1\n          pop\n          jump\t// out\n            /* \"#utility.yul\":1807:2115   */\n        tag_22:\n            /* \"#utility.yul\":1869:1873   */\n          0x00\n            /* \"#utility.yul\":1959:1977   */\n          0xffffffffffffffff\n            /* \"#utility.yul\":1951:1957   */\n          dup3\n            /* \"#utility.yul\":1948:1978   */\n          gt\n            /* \"#utility.yul\":1945:2001   */\n          iszero\n          tag_69\n          jumpi\n            /* \"#utility.yul\":1981:1999   */\n          tag_70\n          tag_19\n          jump\t// in\n        tag_70:\n            /* \"#utility.yul\":1945:2001   */\n        tag_69:\n            /* \"#utility.yul\":2019:2048   */\n          tag_71\n            /* \"#utility.yul\":2041:2047   */\n          dup3\n            /* \"#utility.yul\":2019:2048   */\n          tag_18\n          jump\t// in\n        tag_71:\n            /* \"#utility.yul\":2011:2048   */\n          swap1\n          pop\n            /* \"#utility.yul\":2103:2107   */\n          0x20\n            /* \"#utility.yul\":2097:2101   */\n          dup2\n            /* \"#utility.yul\":2093:2108   */\n          add\n            /* \"#utility.yul\":2085:2108   */\n          swap1\n          pop\n            /* \"#utility.yul\":1807:2115   */\n          swap2\n          swap1\n          pop\n          jump\t// out\n            /* \"#utility.yul\":2121:2367   */\n        tag_23:\n            /* \"#utility.yul\":2202:2203   */\n          0x00\n            /* \"#utility.yul\":2212:2325   */\n        tag_73:\n            /* \"#utility.yul\":2226:2232   */\n          dup4\n            /* \"#utility.yul\":2223:2224   */\n          dup2\n            /* \"#utility.yul\":2220:2233   */\n          lt\n            /* \"#utility.yul\":2212:2325   */\n          iszero\n          tag_75\n          jumpi\n            /* \"#utility.yul\":2311:2312   */\n          dup1\n            /* \"#utility.yul\":2306:2309   */\n          dup3\n            /* \"#utility.yul\":2302:2313   */\n          add\n            /* \"#utility.yul\":2296:2314   */\n          mload\n            /* \"#utility.yul\":2292:2293   */\n          dup2\n            /* \"#utility.yul\":2287:2290   */\n          dup5\n            /* \"#utility.yul\":2283:2294   */\n          add\n            /* \"#utility.yul\":2276:2315   */\n          mstore\n            /* \"#utility.yul\":2248:2250   */\n          0x20\n            /* \"#utility.yul\":2245:2246   */\n          dup2\n            /* \"#utility.yul\":2241:2251   */\n          add\n            /* \"#utility.yul\":2236:2251   */\n          swap1\n          pop\n            /* \"#utility.yul\":2212:2325   */\n          jump(tag_73)\n        tag_75:\n            /* \"#utility.yul\":2359:2360   */\n          0x00\n            /* \"#utility.yul\":2350:2356   */\n          dup5\n            /* \"#utility.yul\":2345:2348   */\n          dup5\n            /* \"#utility.yul\":2341:2357   */\n          add\n            /* \"#utility.yul\":2334:2361   */\n          mstore\n            /* \"#utility.yul\":2183:2367   */\n          pop\n            /* \"#utility.yul\":2121:2367   */\n          pop\n          pop\n          pop\n          jump\t// out\n            /* \"#utility.yul\":2373:2807   */\n        tag_24:\n            /* \"#utility.yul\":2462:2467   */\n          0x00\n            /* \"#utility.yul\":2487:2553   */\n          tag_77\n            /* \"#utility.yul\":2503:2552   */\n          tag_78\n            /* \"#utility.yul\":2545:2551   */\n          dup5\n            /* \"#utility.yul\":2503:2552   */\n          tag_22\n          jump\t// in\n        tag_78:\n            /* \"#utility.yul\":2487:2553   */\n          tag_21\n          jump\t// in\n        tag_77:\n            /* \"#utility.yul\":2478:2553   */\n          swap1\n          pop\n            /* \"#utility.yul\":2576:2582   */\n          dup3\n            /* \"#utility.yul\":2569:2574   */\n          dup2\n            /* \"#utility.yul\":2562:2583   */\n          mstore\n            /* \"#utility.yul\":2614:2618   */\n          0x20\n            /* \"#utility.yul\":2607:2612   */\n          dup2\n            /* \"#utility.yul\":2603:2619   */\n          add\n            /* \"#utility.yul\":2652:2655   */\n          dup5\n            /* \"#utility.yul\":2643:2649   */\n          dup5\n            /* \"#utility.yul\":2638:2641   */\n          dup5\n            /* \"#utility.yul\":2634:2650   */\n          add\n            /* \"#utility.yul\":2631:2656   */\n          gt\n            /* \"#utility.yul\":2628:2740   */\n          iszero\n          tag_79\n          jumpi\n            /* \"#utility.yul\":2659:2738   */\n          tag_80\n          tag_17\n          jump\t// in\n        tag_80:\n            /* \"#utility.yul\":2628:2740   */\n        tag_79:\n            /* \"#utility.yul\":2749:2801   */\n          tag_81\n            /* \"#utility.yul\":2794:2800   */\n          dup5\n            /* \"#utility.yul\":2789:2792   */\n          dup3\n            /* \"#utility.yul\":2784:2787   */\n          dup6\n            /* \"#utility.yul\":2749:2801   */\n          tag_23\n          jump\t// in\n        tag_81:\n            /* \"#utility.yul\":2468:2807   */\n          pop\n            /* \"#utility.yul\":2373:2807   */\n          swap4\n          swap3\n          pop\n          pop\n          pop\n          jump\t// out\n            /* \"#utility.yul\":2827:3182   */\n        tag_25:\n            /* \"#utility.yul\":2894:2899   */\n          0x00\n            /* \"#utility.yul\":2943:2946   */\n          dup3\n            /* \"#utility.yul\":2936:2940   */\n          0x1f\n            /* \"#utility.yul\":2928:2934   */\n          dup4\n            /* \"#utility.yul\":2924:2941   */\n          add\n            /* \"#utility.yul\":2920:2947   */\n          slt\n            /* \"#utility.yul\":2910:3032   */\n          tag_83\n          jumpi\n            /* \"#utility.yul\":2951:3030   */\n          tag_84\n          tag_16\n          jump\t// in\n        tag_84:\n            /* \"#utility.yul\":2910:3032   */\n        tag_83:\n            /* \"#utility.yul\":3061:3067   */\n          dup2\n            /* \"#utility.yul\":3055:3068   */\n          mload\n            /* \"#utility.yul\":3086:3176   */\n          tag_85\n            /* \"#utility.yul\":3172:3175   */\n          dup5\n            /* \"#utility.yul\":3164:3170   */\n          dup3\n            /* \"#utility.yul\":3157:3161   */\n          0x20\n            /* \"#utility.yul\":3149:3155   */\n          dup7\n            /* \"#utility.yul\":3145:3162   */\n          add\n            /* \"#utility.yul\":3086:3176   */\n          tag_24\n          jump\t// in\n        tag_85:\n            /* \"#utility.yul\":3077:3176   */\n          swap2\n          pop\n            /* \"#utility.yul\":2900:3182   */\n          pop\n            /* \"#utility.yul\":2827:3182   */\n          swap3\n          swap2\n          pop\n          pop\n          jump\t// out\n            /* \"#utility.yul\":3188:4024   */\n        tag_3:\n            /* \"#utility.yul\":3286:3292   */\n          0x00\n            /* \"#utility.yul\":3294:3300   */\n          dup1\n            /* \"#utility.yul\":3302:3308   */\n          0x00\n            /* \"#utility.yul\":3351:3353   */\n          0x60\n            /* \"#utility.yul\":3339:3348   */\n          dup5\n            /* \"#utility.yul\":3330:3337   */\n          dup7\n            /* \"#utility.yul\":3326:3349   */\n          sub\n            /* \"#utility.yul\":3322:3354   */\n          slt\n            /* \"#utility.yul\":3319:3438   */\n          iszero\n          tag_87\n          jumpi\n            /* \"#utility.yul\":3357:3436   */\n          tag_88\n          tag_10\n          jump\t// in\n        tag_88:\n            /* \"#utility.yul\":3319:3438   */\n        tag_87:\n            /* \"#utility.yul\":3477:3478   */\n          0x00\n            /* \"#utility.yul\":3502:3566   */\n          tag_89\n            /* \"#utility.yul\":3558:3565   */\n          dup7\n            /* \"#utility.yul\":3549:3555   */\n          dup3\n            /* \"#utility.yul\":3538:3547   */\n          dup8\n            /* \"#utility.yul\":3534:3556   */\n          add\n            /* \"#utility.yul\":3502:3566   */\n          tag_15\n          jump\t// in\n        tag_89:\n            /* \"#utility.yul\":3492:3566   */\n          swap4\n          pop\n            /* \"#utility.yul\":3448:3576   */\n          pop\n            /* \"#utility.yul\":3615:3617   */\n          0x20\n            /* \"#utility.yul\":3641:3705   */\n          tag_90\n            /* \"#utility.yul\":3697:3704   */\n          dup7\n            /* \"#utility.yul\":3688:3694   */\n          dup3\n            /* \"#utility.yul\":3677:3686   */\n          dup8\n            /* \"#utility.yul\":3673:3695   */\n          add\n            /* \"#utility.yul\":3641:3705   */\n          tag_15\n          jump\t// in\n        tag_90:\n            /* \"#utility.yul\":3631:3705   */\n          swap3\n          pop\n            /* \"#utility.yul\":3586:3715   */\n          pop\n            /* \"#utility.yul\":3775:3777   */\n          0x40\n            /* \"#utility.yul\":3764:3773   */\n          dup5\n            /* \"#utility.yul\":3760:3778   */\n          add\n            /* \"#utility.yul\":3754:3779   */\n          mload\n            /* \"#utility.yul\":3806:3824   */\n          0xffffffffffffffff\n            /* \"#utility.yul\":3798:3804   */\n          dup2\n            /* \"#utility.yul\":3795:3825   */\n          gt\n            /* \"#utility.yul\":3792:3909   */\n          iszero\n          tag_91\n          jumpi\n            /* \"#utility.yul\":3828:3907   */\n          tag_92\n          tag_11\n          jump\t// in\n        tag_92:\n            /* \"#utility.yul\":3792:3909   */\n        tag_91:\n            /* \"#utility.yul\":3933:4007   */\n          tag_93\n            /* \"#utility.yul\":3999:4006   */\n          dup7\n            /* \"#utility.yul\":3990:3996   */\n          dup3\n            /* \"#utility.yul\":3979:3988   */\n          dup8\n            /* \"#utility.yul\":3975:3997   */\n          add\n            /* \"#utility.yul\":3933:4007   */\n          tag_25\n          jump\t// in\n        tag_93:\n            /* \"#utility.yul\":3923:4007   */\n          swap2\n          pop\n            /* \"#utility.yul\":3725:4017   */\n          pop\n            /* \"#utility.yul\":3188:4024   */\n          swap3\n          pop\n          swap3\n          pop\n          swap3\n          jump\t// out\n            /* \"#utility.yul\":4030:4129   */\n        tag_26:\n            /* \"#utility.yul\":4082:4088   */\n          0x00\n            /* \"#utility.yul\":4116:4121   */\n          dup2\n            /* \"#utility.yul\":4110:4122   */\n          mload\n            /* \"#utility.yul\":4100:4122   */\n          swap1\n          pop\n            /* \"#utility.yul\":4030:4129   */\n          swap2\n          swap1\n          pop\n          jump\t// out\n            /* \"#utility.yul\":4135:4315   */\n        tag_27:\n            /* \"#utility.yul\":4183:4260   */\n          0x4e487b7100000000000000000000000000000000000000000000000000000000\n            /* \"#utility.yul\":4180:4181   */\n          0x00\n            /* \"#utility.yul\":4173:4261   */\n          mstore\n            /* \"#utility.yul\":4280:4284   */\n          0x22\n            /* \"#utility.yul\":4277:4278   */\n          0x04\n            /* \"#utility.yul\":4270:4285   */\n          mstore\n            /* \"#utility.yul\":4304:4308   */\n          0x24\n            /* \"#utility.yul\":4301:4302   */\n          0x00\n            /* \"#utility.yul\":4294:4309   */\n          revert\n            /* \"#utility.yul\":4321:4641   */\n        tag_28:\n            /* \"#utility.yul\":4365:4371   */\n          0x00\n            /* \"#utility.yul\":4402:4403   */\n          0x02\n            /* \"#utility.yul\":4396:4400   */\n          dup3\n            /* \"#utility.yul\":4392:4404   */\n          div\n            /* \"#utility.yul\":4382:4404   */\n          swap1\n          pop\n            /* \"#utility.yul\":4449:4450   */\n          0x01\n            /* \"#utility.yul\":4443:4447   */\n          dup3\n            /* \"#utility.yul\":4439:4451   */\n          and\n            /* \"#utility.yul\":4470:4488   */\n          dup1\n            /* \"#utility.yul\":4460:4541   */\n          tag_97\n          jumpi\n            /* \"#utility.yul\":4526:4530   */\n          0x7f\n            /* \"#utility.yul\":4518:4524   */\n          dup3\n            /* \"#utility.yul\":4514:4531   */\n          and\n            /* \"#utility.yul\":4504:4531   */\n          swap2\n          pop\n            /* \"#utility.yul\":4460:4541   */\n        tag_97:\n            /* \"#utility.yul\":4588:4590   */\n          0x20\n            /* \"#utility.yul\":4580:4586   */\n          dup3\n            /* \"#utility.yul\":4577:4591   */\n          lt\n            /* \"#utility.yul\":4557:4575   */\n          dup2\n            /* \"#utility.yul\":4554:4592   */\n          sub\n            /* \"#utility.yul\":4551:4635   */\n          tag_98\n          jumpi\n            /* \"#utility.yul\":4607:4625   */\n          tag_99\n          tag_27\n          jump\t// in\n        tag_99:\n            /* \"#utility.yul\":4551:4635   */\n        tag_98:\n            /* \"#utility.yul\":4372:4641   */\n          pop\n            /* \"#utility.yul\":4321:4641   */\n          swap2\n          swap1\n          pop\n          jump\t// out\n            /* \"#utility.yul\":4647:4788   */\n        tag_29:\n            /* \"#utility.yul\":4696:4700   */\n          0x00\n            /* \"#utility.yul\":4719:4722   */\n          dup2\n            /* \"#utility.yul\":4711:4722   */\n          swap1\n          pop\n            /* \"#utility.yul\":4742:4745   */\n          dup2\n            /* \"#utility.yul\":4739:4740   */\n          0x00\n            /* \"#utility.yul\":4732:4746   */\n          mstore\n            /* \"#utility.yul\":4776:4780   */\n          0x20\n            /* \"#utility.yul\":4773:4774   */\n          0x00\n            /* \"#utility.yul\":4763:4781   */\n          keccak256\n            /* \"#utility.yul\":4755:4781   */\n          swap1\n          pop\n            /* \"#utility.yul\":4647:4788   */\n          swap2\n          swap1\n          pop\n          jump\t// out\n            /* \"#utility.yul\":4794:4887   */\n        tag_30:\n            /* \"#utility.yul\":4831:4837   */\n          0x00\n            /* \"#utility.yul\":4878:4880   */\n          0x20\n            /* \"#utility.yul\":4873:4875   */\n          0x1f\n            /* \"#utility.yul\":4866:4871   */\n          dup4\n            /* \"#utility.yul\":4862:4876   */\n          add\n            /* \"#utility.yul\":4858:4881   */\n          div\n            /* \"#utility.yul\":4848:4881   */\n          swap1\n          pop\n            /* \"#utility.yul\":4794:4887   */\n          swap2\n          swap1\n          pop\n          jump\t// out\n            /* \"#utility.yul\":4893:5000   */\n        tag_31:\n            /* \"#utility.yul\":4937:4945   */\n          0x00\n            /* \"#utility.yul\":4987:4992   */\n          dup3\n            /* \"#utility.yul\":4981:4985   */\n          dup3\n            /* \"#utility.yul\":4977:4993   */\n          shl\n            /* \"#utility.yul\":4956:4993   */\n          swap1\n          pop\n            /* \"#utility.yul\":4893:5000   */\n          swap3\n          swap2\n          pop\n          pop\n          jump\t// out\n            /* \"#utility.yul\":5006:5399   */\n        tag_32:\n            /* \"#utility.yul\":5075:5081   */\n          0x00\n            /* \"#utility.yul\":5125:5126   */\n          0x08\n            /* \"#utility.yul\":5113:5123   */\n          dup4\n            /* \"#utility.yul\":5109:5127   */\n          mul\n            /* \"#utility.yul\":5148:5245   */\n          tag_104\n            /* \"#utility.yul\":5178:5244   */\n          0xffffffffffffffffffffffffffffffffffffffffffffffffffffffffffffffff\n            /* \"#utility.yul\":5167:5176   */\n          dup3\n            /* \"#utility.yul\":5148:5245   */\n          tag_31\n          jump\t// in\n        tag_104:\n            /* \"#utility.yul\":5266:5305   */\n          tag_105\n            /* \"#utility.yul\":5296:5304   */\n          dup7\n            /* \"#utility.yul\":5285:5294   */\n          dup4\n            /* \"#utility.yul\":5266:5305   */\n          tag_31\n          jump\t// in\n        tag_105:\n            /* \"#utility.yul\":5254:5305   */\n          swap6\n          pop\n            /* \"#utility.yul\":5338:5342   */\n          dup1\n            /* \"#utility.yul\":5334:5343   */\n          not\n            /* \"#utility.yul\":5327:5332   */\n          dup5\n            /* \"#utility.yul\":5323:5344   */\n          and\n            /* \"#utility.yul\":5314:5344   */\n          swap4\n          pop\n            /* \"#utility.yul\":5387:5391   */\n          dup1\n            /* \"#utility.yul\":5377:5385   */\n          dup7\n            /* \"#utility.yul\":5373:5392   */\n          and\n            /* \"#utility.yul\":5366:5371   */\n          dup5\n            /* \"#utility.yul\":5363:5393   */\n          or\n            /* \"#utility.yul\":5353:5393   */\n          swap3\n          pop\n            /* \"#utility.yul\":5082:5399   */\n          pop\n          pop\n            /* \"#utility.yul\":5006:5399   */\n          swap4\n          swap3\n          pop\n          pop\n          pop\n          jump\t// out\n            /* \"#utility.yul\":5405:5482   */\n        tag_33:\n            /* \"#utility.yul\":5442:5449   */\n          0x00\n            /* \"#utility.yul\":5471:5476   */\n          dup2\n            /* \"#utility.yul\":5460:5476   */\n          swap1\n          pop\n            /* \"#utility.yul\":5405:5482   */\n          swap2\n          swap1\n          pop\n          jump\t// out\n            /* \"#utility.yul\":5488:5548   */\n        tag_34:\n            /* \"#utility.yul\":5516:5519   */\n          0x00\n            /* \"#utility.yul\":5537:5542   */\n          dup2\n            /* \"#utility.yul\":5530:5542   */\n          swap1\n          pop\n            /* \"#utility.yul\":5488:5548   */\n          swap2\n          swap1\n          pop\n          jump\t// out\n            /* \"#utility.yul\":5554:5696   */\n        tag_35:\n            /* \"#utility.yul\":5604:5613   */\n          0x00\n            /* \"#utility.yul\":5637:5690   */\n          tag_109\n            /* \"#utility.yul\":5655:5689   */\n          tag_110\n            /* \"#utility.yul\":5664:5688   */\n          tag_111\n            /* \"#utility.yul\":5682:5687   */\n          dup5\n            /* \"#utility.yul\":5664:5688   */\n          tag_33\n          jump\t// in\n        tag_111:\n            /* \"#utility.yul\":5655:5689   */\n          tag_34\n          jump\t// in\n        tag_110:\n            /* \"#utility.yul\":5637:5690   */\n          tag_33\n          jump\t// in\n        tag_109:\n            /* \"#utility.yul\":5624:5690   */\n          swap1\n          pop\n            /* \"#utility.yul\":5554:5696   */\n          swap2\n          swap1\n          pop\n          jump\t// out\n            /* \"#utility.yul\":5702:5777   */\n        tag_36:\n            /* \"#utility.yul\":5745:5748   */\n          0x00\n            /* \"#utility.yul\":5766:5771   */\n          dup2\n            /* \"#utility.yul\":5759:5771   */\n          swap1\n          pop\n            /* \"#utility.yul\":5702:5777   */\n          swap2\n          swap1\n          pop\n          jump\t// out\n            /* \"#utility.yul\":5783:6052   */\n        tag_37:\n            /* \"#utility.yul\":5893:5932   */\n          tag_114\n            /* \"#utility.yul\":5924:5931   */\n          dup4\n            /* \"#utility.yul\":5893:5932   */\n          tag_35\n          jump\t// in\n        tag_114:\n            /* \"#utility.yul\":5954:6045   */\n          tag_115\n            /* \"#utility.yul\":6003:6044   */\n          tag_116\n            /* \"#utility.yul\":6027:6043   */\n          dup3\n            /* \"#utility.yul\":6003:6044   */\n          tag_36\n          jump\t// in\n        tag_116:\n            /* \"#utility.yul\":5995:6001   */\n          dup5\n            /* \"#utility.yul\":5988:5992   */\n          dup5\n            /* \"#utility.yul\":5982:5993   */\n          sload\n            /* \"#utility.yul\":5954:6045   */\n          tag_32\n          jump\t// in\n        tag_115:\n            /* \"#utility.yul\":5948:5952   */\n          dup3\n            /* \"#utility.yul\":5941:6046   */\n          sstore\n            /* \"#utility.yul\":5859:6052   */\n          pop\n            /* \"#utility.yul\":5783:6052   */\n          pop\n          pop\n          pop\n          jump\t// out\n            /* \"#utility.yul\":6058:6131   */\n        tag_38:\n            /* \"#utility.yul\":6103:6106   */\n          0x00\n            /* \"#utility.yul\":6058:6131   */\n          swap1\n          jump\t// out\n            /* \"#utility.yul\":6137:6326   */\n        tag_39:\n            /* \"#utility.yul\":6214:6246   */\n          tag_119\n          tag_38\n          jump\t// in\n        tag_119:\n            /* \"#utility.yul\":6255:6320   */\n          tag_120\n            /* \"#utility.yul\":6313:6319   */\n          dup2\n            /* \"#utility.yul\":6305:6311   */\n          dup5\n            /* \"#utility.yul\":6299:6303   */\n          dup5\n            /* \"#utility.yul\":6255:6320   */\n          tag_37\n          jump\t// in\n        tag_120:\n            /* \"#utility.yul\":6190:6326   */\n          pop\n            /* \"#utility.yul\":6137:6326   */\n          pop\n          pop\n          jump\t// out\n            /* \"#utility.yul\":6332:6518   */\n        tag_40:\n            /* \"#utility.yul\":6392:6512   */\n        tag_122:\n            /* \"#utility.yul\":6409:6412   */\n          dup2\n            /* \"#utility.yul\":6402:6407   */\n          dup2\n            /* \"#utility.yul\":6399:6413   */\n          lt\n            /* \"#utility.yul\":6392:6512   */\n          iszero\n          tag_124\n          jumpi\n            /* \"#utility.yul\":6463:6502   */\n          tag_125\n            /* \"#utility.yul\":6500:6501   */\n          0x00\n            /* \"#utility.yul\":6493:6498   */\n          dup3\n            /* \"#utility.yul\":6463:6502   */\n          tag_39\n          jump\t// in\n        tag_125:\n            /* \"#utility.yul\":6436:6437   */\n          0x01\n            /* \"#utility.yul\":6429:6434   */\n          dup2\n            /* \"#utility.yul\":6425:6438   */\n          add\n            /* \"#utility.yul\":6416:6438   */\n          swap1\n          pop\n            /* \"#utility.yul\":6392:6512   */\n          jump(tag_122)\n        tag_124:\n            /* \"#utility.yul\":6332:6518   */\n          pop\n          pop\n          jump\t// out\n            /* \"#utility.yul\":6524:7067   */\n        tag_41:\n            /* \"#utility.yul\":6625:6627   */\n          0x1f\n            /* \"#utility.yul\":6620:6623   */\n          dup3\n            /* \"#utility.yul\":6617:6628   */\n          gt\n            /* \"#utility.yul\":6614:7060   */\n          iszero\n          tag_127\n          jumpi\n            /* \"#utility.yul\":6659:6697   */\n          tag_128\n            /* \"#utility.yul\":6691:6696   */\n          dup2\n            /* \"#utility.yul\":6659:6697   */\n          tag_29\n          jump\t// in\n        tag_128:\n            /* \"#utility.yul\":6743:6772   */\n          tag_129\n            /* \"#utility.yul\":6761:6771   */\n          dup5\n            /* \"#utility.yul\":6743:6772   */\n          tag_30\n          jump\t// in\n        tag_129:\n            /* \"#utility.yul\":6733:6741   */\n          dup2\n            /* \"#utility.yul\":6729:6773   */\n          add\n            /* \"#utility.yul\":6926:6928   */\n          0x20\n            /* \"#utility.yul\":6914:6924   */\n          dup6\n            /* \"#utility.yul\":6911:6929   */\n          lt\n            /* \"#utility.yul\":6908:6957   */\n          iszero\n          tag_130\n          jumpi\n            /* \"#utility.yul\":6947:6955   */\n          dup2\n            /* \"#utility.yul\":6932:6955   */\n          swap1\n          pop\n            /* \"#utility.yul\":6908:6957   */\n        tag_130:\n            /* \"#utility.yul\":6970:7050   */\n          tag_131\n            /* \"#utility.yul\":7026:7048   */\n          tag_132\n            /* \"#utility.yul\":7044:7047   */\n          dup6\n            /* \"#utility.yul\":7026:7048   */\n          tag_30\n          jump\t// in\n        tag_132:\n            /* \"#utility.yul\":7016:7024   */\n          dup4\n            /* \"#utility.yul\":7012:7049   */\n          add\n            /* \"#utility.yul\":6999:7010   */\n          dup3\n            /* \"#utility.yul\":6970:7050   */\n          tag_40\n          jump\t// in\n        tag_131:\n            /* \"#utility.yul\":6629:7060   */\n          pop\n          pop\n            /* \"#utility.yul\":6614:7060   */\n        tag_127:\n            /* \"#utility.yul\":6524:7067   */\n          pop\n          pop\n          pop\n          jump\t// out\n            /* \"#utility.yul\":7073:7190   */\n        tag_42:\n            /* \"#utility.yul\":7127:7135   */\n          0x00\n            /* \"#utility.yul\":7177:7182   */\n          dup3\n            /* \"#utility.yul\":7171:7175   */\n          dup3\n            /* \"#utility.yul\":7167:7183   */\n          shr\n            /* \"#utility.yul\":7146:7183   */\n          swap1\n          pop\n            /* \"#utility.yul\":7073:7190   */\n          swap3\n          swap2\n          pop\n          pop\n          jump\t// out\n            /* \"#utility.yul\":7196:7365   */\n        tag_43:\n            /* \"#utility.yul\":7240:7246   */\n          0x00\n            /* \"#utility.yul\":7273:7324   */\n          tag_135\n            /* \"#utility.yul\":7321:7322   */\n          0x00\n            /* \"#utility.yul\":7317:7323   */\n          not\n            /* \"#utility.yul\":7309:7314   */\n          dup5\n            /* \"#utility.yul\":7306:7307   */\n          0x08\n            /* \"#utility.yul\":7302:7315   */\n          mul\n            /* \"#utility.yul\":7273:7324   */\n          tag_42\n          jump\t// in\n        tag_135:\n            /* \"#utility.yul\":7269:7325   */\n          not\n            /* \"#utility.yul\":7354:7358   */\n          dup1\n            /* \"#utility.yul\":7348:7352   */\n          dup4\n            /* \"#utility.yul\":7344:7359   */\n          and\n            /* \"#utility.yul\":7334:7359   */\n          swap2\n          pop\n            /* \"#utility.yul\":7247:7365   */\n          pop\n            /* \"#utility.yul\":7196:7365   */\n          swap3\n          swap2\n          pop\n          pop\n          jump\t// out\n            /* \"#utility.yul\":7370:7665   */\n        tag_44:\n            /* \"#utility.yul\":7446:7450   */\n          0x00\n            /* \"#utility.yul\":7592:7621   */\n          tag_137\n            /* \"#utility.yul\":7617:7620   */\n          dup4\n            /* \"#utility.yul\":7611:7615   */\n          dup4\n            /* \"#utility.yul\":7592:7621   */\n          tag_43\n          jump\t// in\n        tag_137:\n            /* \"#utility.yul\":7584:7621   */\n          swap2\n          pop\n            /* \"#utility.yul\":7654:7657   */\n          dup3\n            /* \"#utility.yul\":7651:7652   */\n          0x02\n            /* \"#utility.yul\":7647:7658   */\n          mul\n            /* \"#utility.yul\":7641:7645   */\n          dup3\n            /* \"#utility.yul\":7638:7659   */\n          or\n            /* \"#utility.yul\":7630:7659   */\n          swap1\n          pop\n            /* \"#utility.yul\":7370:7665   */\n          swap3\n          swap2\n          pop\n          pop\n          jump\t// out\n            /* \"#utility.yul\":7670:9065   */\n        tag_7:\n            /* \"#utility.yul\":7787:7824   */\n          tag_139\n            /* \"#utility.yul\":7820:7823   */\n          dup3\n            /* \"#utility.yul\":7787:7824   */\n          tag_26\n          jump\t// in\n        tag_139:\n            /* \"#utility.yul\":7889:7907   */\n          0xffffffffffffffff\n            /* \"#utility.yul\":7881:7887   */\n          dup2\n            /* \"#utility.yul\":7878:7908   */\n          gt\n            /* \"#utility.yul\":7875:7931   */\n          iszero\n          tag_140\n          jumpi\n            /* \"#utility.yul\":7911:7929   */\n          tag_141\n          tag_19\n          jump\t// in\n        tag_141:\n            /* \"#utility.yul\":7875:7931   */\n        tag_140:\n            /* \"#utility.yul\":7955:7993   */\n          tag_142\n            /* \"#utility.yul\":7987:7991   */\n          dup3\n            /* \"#utility.yul\":7981:7992   */\n          sload\n            /* \"#utility.yul\":7955:7993   */\n          tag_28\n          jump\t// in\n        tag_142:\n            /* \"#utility.yul\":8040:8107   */\n          tag_143\n            /* \"#utility.yul\":8100:8106   */\n          dup3\n            /* \"#utility.yul\":8092:8098   */\n          dup3\n            /* \"#utility.yul\":8086:8090   */\n          dup6\n            /* \"#utility.yul\":8040:8107   */\n          tag_41\n          jump\t// in\n        tag_143:\n            /* \"#utility.yul\":8134:8135   */\n          0x00\n            /* \"#utility.yul\":8158:8162   */\n          0x20\n            /* \"#utility.yul\":8145:8162   */\n          swap1\n          pop\n            /* \"#utility.yul\":8190:8192   */\n          0x1f\n            /* \"#utility.yul\":8182:8188   */\n          dup4\n            /* \"#utility.yul\":8179:8193   */\n          gt\n            /* \"#utility.yul\":8207:8208   */\n          0x01\n            /* \"#utility.yul\":8202:8820   */\n          dup2\n          eq\n          tag_145\n          jumpi\n            /* \"#utility.yul\":8864:8865   */\n          0x00\n            /* \"#utility.yul\":8881:8887   */\n          dup5\n            /* \"#utility.yul\":8878:8955   */\n          iszero\n          tag_146\n          jumpi\n            /* \"#utility.yul\":8930:8939   */\n          dup3\n            /* \"#utility.yul\":8925:8928   */\n          dup8\n            /* \"#utility.yul\":8921:8940   */\n          add\n            /* \"#utility.yul\":8915:8941   */\n          mload\n            /* \"#utility.yul\":8906:8941   */\n          swap1\n          pop\n            /* \"#utility.yul\":8878:8955   */\n        tag_146:\n            /* \"#utility.yul\":8981:9048   */\n          tag_147\n            /* \"#utility.yul\":9041:9047   */\n          dup6\n            /* \"#utility.yul\":9034:9039   */\n          dup3\n            /* \"#utility.yul\":8981:9048   */\n          tag_44\n          jump\t// in\n        tag_147:\n            /* \"#utility.yul\":8975:8979   */\n          dup7\n            /* \"#utility.yul\":8968:9049   */\n          sstore\n            /* \"#utility.yul\":8837:9059   */\n          pop\n            /* \"#utility.yul\":8172:9059   */\n          jump(tag_144)\n            /* \"#utility.yul\":8202:8820   */\n        tag_145:\n            /* \"#utility.yul\":8254:8258   */\n          0x1f\n            /* \"#utility.yul\":8250:8259   */\n          not\n            /* \"#utility.yul\":8242:8248   */\n          dup5\n            /* \"#utility.yul\":8238:8260   */\n          and\n            /* \"#utility.yul\":8288:8325   */\n          tag_148\n            /* \"#utility.yul\":8320:8324   */\n          dup7\n            /* \"#utility.yul\":8288:8325   */\n          tag_29\n          jump\t// in\n        tag_148:\n            /* \"#utility.yul\":8347:8348   */\n          0x00\n            /* \"#utility.yul\":8361:8569   */\n        tag_149:\n            /* \"#utility.yul\":8375:8382   */\n          dup3\n            /* \"#utility.yul\":8372:8373   */\n          dup2\n            /* \"#utility.yul\":8369:8383   */\n          lt\n            /* \"#utility.yul\":8361:8569   */\n          iszero\n          tag_151\n          jumpi\n            /* \"#utility.yul\":8454:8463   */\n          dup5\n            /* \"#utility.yul\":8449:8452   */\n          dup10\n            /* \"#utility.yul\":8445:8464   */\n          add\n            /* \"#utility.yul\":8439:8465   */\n          mload\n            /* \"#utility.yul\":8431:8437   */\n          dup3\n            /* \"#utility.yul\":8424:8466   */\n          sstore\n            /* \"#utility.yul\":8505:8506   */\n          0x01\n            /* \"#utility.yul\":8497:8503   */\n          dup3\n            /* \"#utility.yul\":8493:8507   */\n          add\n            /* \"#utility.yul\":8483:8507   */\n          swap2\n          pop\n            /* \"#utility.yul\":8552:8554   */\n          0x20\n            /* \"#utility.yul\":8541:8550   */\n          dup6\n            /* \"#utility.yul\":8537:8555   */\n          add\n            /* \"#utility.yul\":8524:8555   */\n          swap5\n          pop\n            /* \"#utility.yul\":8398:8402   */\n          0x20\n            /* \"#utility.yul\":8395:8396   */\n          dup2\n            /* \"#utility.yul\":8391:8403   */\n          add\n            /* \"#utility.yul\":8386:8403   */\n          swap1\n          pop\n            /* \"#utility.yul\":8361:8569   */\n          jump(tag_149)\n        tag_151:\n            /* \"#utility.yul\":8597:8603   */\n          dup7\n            /* \"#utility.yul\":8588:8595   */\n          dup4\n            /* \"#utility.yul\":8585:8604   */\n          lt\n            /* \"#utility.yul\":8582:8761   */\n          iszero\n          tag_152\n          jumpi\n            /* \"#utility.yul\":8655:8664   */\n          dup5\n            /* \"#utility.yul\":8650:8653   */\n          dup10\n            /* \"#utility.yul\":8646:8665   */\n          add\n            /* \"#utility.yul\":8640:8666   */\n          mload\n            /* \"#utility.yul\":8698:8746   */\n          tag_153\n            /* \"#utility.yul\":8740:8744   */\n          0x1f\n            /* \"#utility.yul\":8732:8738   */\n          dup10\n            /* \"#utility.yul\":8728:8745   */\n          and\n            /* \"#utility.yul\":8717:8726   */\n          dup3\n            /* \"#utility.yul\":8698:8746   */\n          tag_43\n          jump\t// in\n        tag_153:\n            /* \"#utility.yul\":8690:8696   */\n          dup4\n            /* \"#utility.yul\":8683:8747   */\n          sstore\n            /* \"#utility.yul\":8605:8761   */\n          pop\n            /* \"#utility.yul\":8582:8761   */\n        tag_152:\n            /* \"#utility.yul\":8807:8808   */\n          0x01\n            /* \"#utility.yul\":8803:8804   */\n          0x02\n            /* \"#utility.yul\":8795:8801   */\n          dup9\n            /* \"#utility.yul\":8791:8805   */\n          mul\n            /* \"#utility.yul\":8787:8809   */\n          add\n            /* \"#utility.yul\":8781:8785   */\n          dup9\n            /* \"#utility.yul\":8774:8810   */\n          sstore\n            /* \"#utility.yul\":8209:8820   */\n          pop\n          pop\n          pop\n            /* \"#utility.yul\":8172:9059   */\n        tag_144:\n          pop\n            /* \"#utility.yul\":7762:9065   */\n          pop\n          pop\n          pop\n            /* \"#utility.yul\":7670:9065   */\n          pop\n          pop\n          jump\t// out\n            /* \"MemberPool.sol\":94:3385  contract MemberPool {... */\n        tag_8:\n          mload(0x80)\n          codecopy(0x00, dataOffset(sub_0), dataSize(sub_0))\n          0x00\n          assignImmutable(\"0x340a23757d2ab13dedab258c0c14c48239e47629cd886b1aa50da5cb9e94f72d\")\n          return(0x00, dataSize(sub_0))\n        stop\n\n        sub_0: assembly {\n                /* \"MemberPool.sol\":94:3385  contract MemberPool {... */\n              mstore(0x40, 0x80)\n              callvalue\n              dup1\n              iszero\n              tag_1\n              jumpi\n              0x00\n              dup1\n              revert\n            tag_1:\n              pop\n              jumpi(tag_2, lt(calldatasize, 0x04))\n              shr(0xe0, calldataload(0x00))\n              dup1\n              0x9a4d383e\n              gt\n              tag_19\n              jumpi\n              dup1\n              0xa230c524\n              gt\n              tag_20\n              jumpi\n              dup1\n              0xa230c524\n              eq\n              tag_15\n              jumpi\n              dup1\n              0xaf1fca09\n              eq\n              tag_16\n              jumpi\n              dup1\n              0xca505a5b\n              eq\n              tag_17\n              jumpi\n              dup1\n              0xcef025ac\n              eq\n              tag_18\n              jumpi\n              jump(tag_2)\n            tag_20:\n              dup1\n              0x9a4d383e\n              eq\n              tag_11\n              jumpi\n              dup1\n              0x9c0ab105\n              eq\n              tag_12\n              jumpi\n              dup1\n              0x9e5f59f9\n              eq\n              tag_13\n              jumpi\n              dup1\n              0x9eab5253\n              eq\n              tag_14\n              jumpi\n              jump(tag_2)\n            tag_19:\n              dup1\n              0x455772d2\n              gt\n              tag_21\n              jumpi\n              dup1\n              0x455772d2\n              eq\n              tag_7\n              jumpi\n              dup1\n              0x5daf08ca\n              eq\n              tag_8\n              jumpi\n              dup1\n              0x70586013\n              eq\n              tag_9\n              jumpi\n              dup1\n              0x997072f7\n              eq\n              tag_10\n              jumpi\n              jump(tag_2)\n            tag_21:\n              dup1\n              0x06fdde03\n              eq\n              tag_3\n              jumpi\n              dup1\n              0x146b551d\n              eq\n              tag_4\n              jumpi\n              dup1\n              0x15866836\n              eq\n              tag_5\n              jumpi\n              dup1\n              0x1ee503fd\n              eq\n              tag_6\n              jumpi\n            tag_2:\n              0x00\n              dup1\n              revert\n                /* \"MemberPool.sol\":396:414  string public name */\n            tag_3:\n              tag_22\n              tag_23\n              jump\t// in\n            tag_22:\n              mload(0x40)\n              tag_24\n              swap2\n              swap1\n              tag_25\n              jump\t// in\n            tag_24:\n              mload(0x40)\n              dup1\n              swap2\n              sub\n              swap1\n              return\n                /* \"MemberPool.sol\":1288:1356  function getMemberRep(address member) public view returns (int32) {} */\n            tag_4:\n              tag_26\n              0x04\n              dup1\n              calldatasize\n              sub\n              dup2\n              add\n              swap1\n              tag_27\n              swap2\n              swap1\n              tag_28\n              jump\t// in\n            tag_27:\n              tag_29\n              jump\t// in\n            tag_26:\n              mload(0x40)\n              tag_30\n              swap2\n              swap1\n              tag_31\n              jump\t// in\n            tag_30:\n              mload(0x40)\n              dup1\n              swap2\n              sub\n              swap1\n              return\n                /* \"MemberPool.sol\":2131:2252  function highlightReport(address member, string calldata comment)... */\n            tag_5:\n              tag_32\n              0x04\n              dup1\n              calldatasize\n              sub\n              dup2\n              add\n              swap1\n              tag_33\n              swap2\n              swap1\n              tag_34\n              jump\t// in\n            tag_33:\n              tag_35\n              jump\t// in\n            tag_32:\n              stop\n                /* \"MemberPool.sol\":2260:3029  function admitApplicant(address applicant) public memberOnly(msg.sender) {... */\n            tag_6:\n              tag_36\n              0x04\n              dup1\n              calldatasize\n              sub\n              dup2\n              add\n              swap1\n              tag_37\n              swap2\n              swap1\n              tag_28\n              jump\t// in\n            tag_37:\n              tag_38\n              jump\t// in\n            tag_36:\n              stop\n                /* \"MemberPool.sol\":3141:3382  function getApplicants()... */\n            tag_7:\n              tag_39\n              tag_40\n              jump\t// in\n            tag_39:\n              mload(0x40)\n              tag_41\n              swap2\n              swap1\n              tag_42\n              jump\t// in\n            tag_41:\n              mload(0x40)\n              dup1\n              swap2\n              sub\n              swap1\n              return\n                /* \"MemberPool.sol\":486:510  address[] public members */\n            tag_8:\n              tag_43\n              0x04\n              dup1\n              calldatasize\n              sub\n              dup2\n              add\n              swap1\n              tag_44\n              swap2\n              swap1\n              tag_45\n              jump\t// in\n            tag_44:\n              tag_46\n              jump\t// in\n            tag_43:\n              mload(0x40)\n              tag_47\n              swap2\n              swap1\n              tag_48\n              jump\t// in\n            tag_47:\n              mload(0x40)\n              dup1\n              swap2\n              sub\n              swap1\n              return\n                /* \"MemberPool.sol\":1768:1893  function reportMember(address member, string calldata report)... */\n            tag_9:\n              tag_49\n              0x04\n              dup1\n              calldatasize\n              sub\n              dup2\n              add\n              swap1\n              tag_50\n              swap2\n              swap1\n              tag_34\n              jump\t// in\n            tag_50:\n              tag_51\n              jump\t// in\n            tag_49:\n              mload(0x40)\n              tag_52\n              swap2\n              swap1\n              tag_53\n              jump\t// in\n            tag_52:\n              mload(0x40)\n              dup1\n              swap2\n              sub\n              swap1\n              return\n                /* \"MemberPool.sol\":3037:3133  function getMemberCount() public view returns (uint256) {... */\n            tag_10:\n              tag_54\n              tag_55\n              jump\t// in\n            tag_54:\n              mload(0x40)\n              tag_56\n              swap2\n              swap1\n              tag_57\n              jump\t// in\n            tag_56:\n              mload(0x40)\n              dup1\n              swap2\n              sub\n              swap1\n              return\n                /* \"MemberPool.sol\":1471:1760  function increaseMemberRep(address member) public {... */\n            tag_11:\n              tag_58\n              0x04\n              dup1\n              calldatasize\n              sub\n              dup2\n              add\n              swap1\n              tag_59\n              swap2\n              swap1\n              tag_28\n              jump\t// in\n            tag_59:\n              tag_60\n              jump\t// in\n            tag_58:\n              stop\n                /* \"MemberPool.sol\":454:479  string public longSummary */\n            tag_12:\n              tag_61\n              tag_62\n              jump\t// in\n            tag_61:\n              mload(0x40)\n              tag_63\n              swap2\n              swap1\n              tag_25\n              jump\t// in\n            tag_63:\n              mload(0x40)\n              dup1\n              swap2\n              sub\n              swap1\n              return\n                /* \"MemberPool.sol\":1901:2015  function getMemberReports(address member)... */\n            tag_13:\n              tag_64\n              0x04\n              dup1\n              calldatasize\n              sub\n              dup2\n              add\n              swap1\n              tag_65\n              swap2\n              swap1\n              tag_28\n              jump\t// in\n            tag_65:\n              tag_66\n              jump\t// in\n            tag_64:\n              mload(0x40)\n              tag_67\n              swap2\n              swap1\n              tag_68\n              jump\t// in\n            tag_67:\n              mload(0x40)\n              dup1\n              swap2\n              sub\n              swap1\n              return\n                /* \"MemberPool.sol\":1153:1280  function getMembers()... */\n            tag_14:\n              tag_69\n              tag_70\n              jump\t// in\n            tag_69:\n              mload(0x40)\n              tag_71\n              swap2\n              swap1\n              tag_42\n              jump\t// in\n            tag_71:\n              mload(0x40)\n              dup1\n              swap2\n              sub\n              swap1\n              return\n                /* \"MemberPool.sol\":1364:1463  function isMember(address id) public view returns (bool) {... */\n            tag_15:\n              tag_72\n              0x04\n              dup1\n              calldatasize\n              sub\n              dup2\n              add\n              swap1\n              tag_73\n              swap2\n              swap1\n              tag_28\n              jump\t// in\n            tag_73:\n              tag_74\n              jump\t// in\n            tag_72:\n              mload(0x40)\n              tag_75\n              swap2\n              swap1\n              tag_76\n              jump\t// in\n            tag_75:\n              mload(0x40)\n              dup1\n              swap2\n              sub\n              swap1\n              return\n                /* \"MemberPool.sol\":706:741  address public applicantPoolAddress */\n            tag_16:\n              tag_77\n              tag_78\n              jump\t// in\n            tag_77:\n              mload(0x40)\n              tag_79\n              swap2\n              swap1\n              tag_48\n              jump\t// in\n            tag_79:\n              mload(0x40)\n              dup1\n              swap2\n              sub\n              swap1\n              return\n                /* \"MemberPool.sol\":421:447  string public shortSummary */\n            tag_17:\n              tag_80\n              tag_81\n              jump\t// in\n            tag_80:\n              mload(0x40)\n              tag_82\n              swap2\n              swap1\n              tag_25\n              jump\t// in\n            tag_82:\n              mload(0x40)\n              dup1\n              swap2\n              sub\n              swap1\n              return\n                /* \"MemberPool.sol\":2023:2123  function dismissMemberReport(address member)... */\n            tag_18:\n              tag_83\n              0x04\n              dup1\n              calldatasize\n              sub\n              dup2\n              add\n              swap1\n              tag_84\n              swap2\n              swap1\n              tag_28\n              jump\t// in\n            tag_84:\n              tag_85\n              jump\t// in\n            tag_83:\n              stop\n                /* \"MemberPool.sol\":396:414  string public name */\n            tag_23:\n              0x00\n              dup1\n              sload\n              tag_86\n              swap1\n              tag_87\n              jump\t// in\n            tag_86:\n              dup1\n              0x1f\n              add\n              0x20\n              dup1\n              swap2\n              div\n              mul\n              0x20\n              add\n              mload(0x40)\n              swap1\n              dup2\n              add\n              0x40\n              mstore\n              dup1\n              swap3\n              swap2\n              swap1\n              dup2\n              dup2\n              mstore\n              0x20\n              add\n              dup3\n              dup1\n              sload\n              tag_88\n              swap1\n              tag_87\n              jump\t// in\n            tag_88:\n              dup1\n              iszero\n              tag_89\n              jumpi\n              dup1\n              0x1f\n              lt\n              tag_90\n              jumpi\n              0x0100\n              dup1\n              dup4\n              sload\n              div\n              mul\n              dup4\n              mstore\n              swap2\n              0x20\n              add\n              swap2\n              jump(tag_89)\n            tag_90:\n              dup3\n              add\n              swap2\n              swap1\n              0x00\n              mstore\n              keccak256(0x00, 0x20)\n              swap1\n            tag_91:\n              dup2\n              sload\n              dup2\n              mstore\n              swap1\n              0x01\n              add\n              swap1\n              0x20\n              add\n              dup1\n              dup4\n              gt\n              tag_91\n              jumpi\n              dup3\n              swap1\n              sub\n              0x1f\n              and\n              dup3\n              add\n              swap2\n            tag_89:\n              pop\n              pop\n              pop\n              pop\n              pop\n              dup2\n              jump\t// out\n                /* \"MemberPool.sol\":1288:1356  function getMemberRep(address member) public view returns (int32) {} */\n            tag_29:\n                /* \"MemberPool.sol\":1347:1352  int32 */\n              0x00\n                /* \"MemberPool.sol\":1288:1356  function getMemberRep(address member) public view returns (int32) {} */\n              swap2\n              swap1\n              pop\n              jump\t// out\n                /* \"MemberPool.sol\":2131:2252  function highlightReport(address member, string calldata comment)... */\n            tag_35:\n                /* \"MemberPool.sol\":2233:2243  msg.sender */\n              caller\n                /* \"MemberPool.sol\":1076:1088  memberActive */\n              0x04\n                /* \"MemberPool.sol\":1076:1096  memberActive[sender] */\n              0x00\n                /* \"MemberPool.sol\":1089:1095  sender */\n              dup3\n                /* \"MemberPool.sol\":1076:1096  memberActive[sender] */\n              0xffffffffffffffffffffffffffffffffffffffff\n              and\n              0xffffffffffffffffffffffffffffffffffffffff\n              and\n              dup2\n              mstore\n              0x20\n              add\n              swap1\n              dup2\n              mstore\n              0x20\n              add\n              0x00\n              keccak256\n              0x00\n              swap1\n              sload\n              swap1\n              0x0100\n              exp\n              swap1\n              div\n              0xff\n              and\n                /* \"MemberPool.sol\":1068:1125  require(memberActive[sender], \"Required to be a memeber\") */\n              tag_94\n              jumpi\n              mload(0x40)\n              0x08c379a000000000000000000000000000000000000000000000000000000000\n              dup2\n              mstore\n              0x04\n              add\n              tag_95\n              swap1\n              tag_96\n              jump\t// in\n            tag_95:\n              mload(0x40)\n              dup1\n              swap2\n              sub\n              swap1\n              revert\n            tag_94:\n                /* \"MemberPool.sol\":2131:2252  function highlightReport(address member, string calldata comment)... */\n              pop\n              pop\n              pop\n              pop\n              jump\t// out\n                /* \"MemberPool.sol\":2260:3029  function admitApplicant(address applicant) public memberOnly(msg.sender) {... */\n            tag_38:\n                /* \"MemberPool.sol\":2321:2331  msg.sender */\n              caller\n                /* \"MemberPool.sol\":1076:1088  memberActive */\n              0x04\n                /* \"MemberPool.sol\":1076:1096  memberActive[sender] */\n              0x00\n                /* \"MemberPool.sol\":1089:1095  sender */\n              dup3\n                /* \"MemberPool.sol\":1076:1096  memberActive[sender] */\n              0xffffffffffffffffffffffffffffffffffffffff\n              and\n              0xffffffffffffffffffffffffffffffffffffffff\n              and\n              dup2\n              mstore\n              0x20\n              add\n              swap1\n              dup2\n              mstore\n              0x20\n              add\n              0x00\n              keccak256\n              0x00\n              swap1\n              sload\n              swap1\n              0x0100\n              exp\n              swap1\n              div\n              0xff\n              and\n                /* \"MemberPool.sol\":1068:1125  require(memberActive[sender], \"Required to be a memeber\") */\n              tag_99\n              jumpi\n              mload(0x40)\n              0x08c379a000000000000000000000000000000000000000000000000000000000\n              dup2\n              mstore\n              0x04\n              add\n              tag_100\n              swap1\n              tag_96\n              jump\t// in\n            tag_100:\n              mload(0x40)\n              dup1\n              swap2\n              sub\n              swap1\n              revert\n            tag_99:\n                /* \"MemberPool.sol\":2373:2374  0 */\n              0x00\n                /* \"MemberPool.sol\":2352:2375  applicant != address(0) */\n              0xffffffffffffffffffffffffffffffffffffffff\n              and\n                /* \"MemberPool.sol\":2352:2361  applicant */\n              dup3\n                /* \"MemberPool.sol\":2352:2375  applicant != address(0) */\n              0xffffffffffffffffffffffffffffffffffffffff\n              and\n              sub\n                /* \"MemberPool.sol\":2344:2376  require(applicant != address(0)) */\n              tag_102\n              jumpi\n              0x00\n              dup1\n              revert\n            tag_102:\n                /* \"MemberPool.sol\":2387:2405  ApplicantPool pool */\n              0x00\n                /* \"MemberPool.sol\":2422:2442  applicantPoolAddress */\n              0x08\n              0x00\n              swap1\n              sload\n              swap1\n              0x0100\n              exp\n              swap1\n              div\n              0xffffffffffffffffffffffffffffffffffffffff\n              and\n                /* \"MemberPool.sol\":2387:2443  ApplicantPool pool = ApplicantPool(applicantPoolAddress) */\n              swap1\n              pop\n                /* \"MemberPool.sol\":2454:2473  uint256 voteEndTime */\n              0x00\n                /* \"MemberPool.sol\":2476:2480  pool */\n              dup2\n                /* \"MemberPool.sol\":2476:2504  pool.getApplicantVoteEndDate */\n              0xffffffffffffffffffffffffffffffffffffffff\n              and\n              0xb672bdcb\n                /* \"MemberPool.sol\":2505:2514  applicant */\n              dup6\n                /* \"MemberPool.sol\":2476:2515  pool.getApplicantVoteEndDate(applicant) */\n              mload(0x40)\n              dup3\n              0xffffffff\n              and\n              0xe0\n              shl\n              dup2\n              mstore\n              0x04\n              add\n              tag_103\n              swap2\n              swap1\n              tag_48\n              jump\t// in\n            tag_103:\n              0x20\n              mload(0x40)\n              dup1\n              dup4\n              sub\n              dup2\n              dup7\n              gas\n              staticcall\n              iszero\n              dup1\n              iszero\n              tag_105\n              jumpi\n              returndatasize\n              0x00\n              dup1\n              returndatacopy\n              revert(0x00, returndatasize)\n            tag_105:\n              pop\n              pop\n              pop\n              pop\n              mload(0x40)\n              returndatasize\n              not(0x1f)\n              0x1f\n              dup3\n              add\n              and\n              dup3\n              add\n              dup1\n              0x40\n              mstore\n              pop\n              dup2\n              add\n              swap1\n              tag_106\n              swap2\n              swap1\n              tag_107\n              jump\t// in\n            tag_106:\n                /* \"MemberPool.sol\":2454:2515  uint256 voteEndTime = pool.getApplicantVoteEndDate(applicant) */\n              swap1\n              pop\n                /* \"MemberPool.sol\":2548:2563  block.timestamp */\n              timestamp\n                /* \"MemberPool.sol\":2534:2545  voteEndTime */\n              dup2\n                /* \"MemberPool.sol\":2534:2563  voteEndTime > block.timestamp */\n              gt\n                /* \"MemberPool.sol\":2526:2587  require(voteEndTime > block.timestamp, \"To soon to end vote\") */\n              tag_108\n              jumpi\n              mload(0x40)\n              0x08c379a000000000000000000000000000000000000000000000000000000000\n              dup2\n              mstore\n              0x04\n              add\n              tag_109\n              swap1\n              tag_110\n              jump\t// in\n            tag_109:\n              mload(0x40)\n              dup1\n              swap2\n              sub\n              swap1\n              revert\n            tag_108:\n                /* \"MemberPool.sol\":2600:2619  uint256 memberCount */\n              0x00\n                /* \"MemberPool.sol\":2622:2638  getMemberCount() */\n              tag_111\n                /* \"MemberPool.sol\":2622:2636  getMemberCount */\n              tag_55\n                /* \"MemberPool.sol\":2622:2638  getMemberCount() */\n              jump\t// in\n            tag_111:\n                /* \"MemberPool.sol\":2600:2638  uint256 memberCount = getMemberCount() */\n              swap1\n              pop\n                /* \"MemberPool.sol\":2649:2666  uint256 voteCount */\n              0x00\n                /* \"MemberPool.sol\":2669:2673  pool */\n              dup4\n                /* \"MemberPool.sol\":2669:2695  pool.getApplicantVoteCount */\n              0xffffffffffffffffffffffffffffffffffffffff\n              and\n              0xd9a87535\n                /* \"MemberPool.sol\":2696:2705  applicant */\n              dup8\n                /* \"MemberPool.sol\":2669:2706  pool.getApplicantVoteCount(applicant) */\n              mload(0x40)\n              dup3\n              0xffffffff\n              and\n              0xe0\n              shl\n              dup2\n              mstore\n              0x04\n              add\n              tag_112\n              swap2\n              swap1\n              tag_48\n              jump\t// in\n            tag_112:\n              0x20\n              mload(0x40)\n              dup1\n              dup4\n              sub\n              dup2\n              dup7\n              gas\n              staticcall\n              iszero\n              dup1\n              iszero\n              tag_114\n              jumpi\n              returndatasize\n              0x00\n              dup1\n              returndatacopy\n              revert(0x00, returndatasize)\n            tag_114:\n              pop\n              pop\n              pop\n              pop\n              mload(0x40)\n              returndatasize\n              not(0x1f)\n              0x1f\n              dup3\n              add\n              and\n              dup3\n              add\n              dup1\n              0x40\n              mstore\n              pop\n              dup2\n              add\n              swap1\n              tag_115\n              swap2\n              swap1\n              tag_107\n              jump\t// in\n            tag_115:\n                /* \"MemberPool.sol\":2649:2706  uint256 voteCount = pool.getApplicantVoteCount(applicant) */\n              swap1\n              pop\n                /* \"MemberPool.sol\":2834:2835  5 */\n              0x05\n                /* \"MemberPool.sol\":2827:2830  100 */\n              0x64\n                /* \"MemberPool.sol\":2812:2823  memberCount */\n              dup4\n                /* \"MemberPool.sol\":2800:2809  voteCount */\n              dup4\n                /* \"MemberPool.sol\":2800:2823  voteCount / memberCount */\n              tag_116\n              swap2\n              swap1\n              tag_117\n              jump\t// in\n            tag_116:\n                /* \"MemberPool.sol\":2799:2830  (voteCount / memberCount) * 100 */\n              tag_118\n              swap2\n              swap1\n              tag_119\n              jump\t// in\n            tag_118:\n                /* \"MemberPool.sol\":2798:2835  ((voteCount / memberCount) * 100) > 5 */\n              gt\n                /* \"MemberPool.sol\":2775:2899  require(... */\n              tag_120\n              jumpi\n              mload(0x40)\n              0x08c379a000000000000000000000000000000000000000000000000000000000\n              dup2\n              mstore\n              0x04\n              add\n              tag_121\n              swap1\n              tag_122\n              jump\t// in\n            tag_121:\n              mload(0x40)\n              dup1\n              swap2\n              sub\n              swap1\n              revert\n            tag_120:\n                /* \"MemberPool.sol\":2912:2916  pool */\n              dup4\n                /* \"MemberPool.sol\":2912:2933  pool.approveApplicant */\n              0xffffffffffffffffffffffffffffffffffffffff\n              and\n              0x1292a282\n                /* \"MemberPool.sol\":2934:2943  applicant */\n              dup8\n                /* \"MemberPool.sol\":2912:2944  pool.approveApplicant(applicant) */\n              mload(0x40)\n              dup3\n              0xffffffff\n              and\n              0xe0\n              shl\n              dup2\n              mstore\n              0x04\n              add\n              tag_123\n              swap2\n              swap1\n              tag_48\n              jump\t// in\n            tag_123:\n              0x00\n              mload(0x40)\n              dup1\n              dup4\n              sub\n              dup2\n              0x00\n              dup8\n              dup1\n              extcodesize\n              iszero\n              dup1\n              iszero\n              tag_124\n              jumpi\n              0x00\n              dup1\n              revert\n            tag_124:\n              pop\n              gas\n              call\n              iszero\n              dup1\n              iszero\n              tag_126\n              jumpi\n              returndatasize\n              0x00\n              dup1\n              returndatacopy\n              revert(0x00, returndatasize)\n            tag_126:\n              pop\n              pop\n              pop\n              pop\n                /* \"MemberPool.sol\":2957:2964  members */\n              0x03\n                /* \"MemberPool.sol\":2970:2979  applicant */\n              dup7\n                /* \"MemberPool.sol\":2957:2980  members.push(applicant) */\n              swap1\n              dup1\n              0x01\n              dup2\n              sload\n              add\n              dup1\n              dup3\n              sstore\n              dup1\n              swap2\n              pop\n              pop\n              0x01\n              swap1\n              sub\n              swap1\n              0x00\n              mstore\n              keccak256(0x00, 0x20)\n              add\n              0x00\n              swap1\n              swap2\n              swap1\n              swap2\n              swap1\n              swap2\n              0x0100\n              exp\n              dup2\n              sload\n              dup2\n              0xffffffffffffffffffffffffffffffffffffffff\n              mul\n              not\n              and\n              swap1\n              dup4\n              0xffffffffffffffffffffffffffffffffffffffff\n              and\n              mul\n              or\n              swap1\n              sstore\n              pop\n                /* \"MemberPool.sol\":3017:3021  true */\n              0x01\n                /* \"MemberPool.sol\":2991:3003  memberActive */\n              0x04\n                /* \"MemberPool.sol\":2991:3014  memberActive[applicant] */\n              0x00\n                /* \"MemberPool.sol\":3004:3013  applicant */\n              dup9\n                /* \"MemberPool.sol\":2991:3014  memberActive[applicant] */\n              0xffffffffffffffffffffffffffffffffffffffff\n              and\n              0xffffffffffffffffffffffffffffffffffffffff\n              and\n              dup2\n              mstore\n              0x20\n              add\n              swap1\n              dup2\n              mstore\n              0x20\n              add\n              0x00\n              keccak256\n              0x00\n                /* \"MemberPool.sol\":2991:3021  memberActive[applicant] = true */\n              0x0100\n              exp\n              dup2\n              sload\n              dup2\n              0xff\n              mul\n              not\n              and\n              swap1\n              dup4\n              iszero\n              iszero\n              mul\n              or\n              swap1\n              sstore\n              pop\n                /* \"MemberPool.sol\":2333:3029  {... */\n              pop\n              pop\n              pop\n              pop\n                /* \"MemberPool.sol\":2260:3029  function admitApplicant(address applicant) public memberOnly(msg.sender) {... */\n              pop\n              pop\n              jump\t// out\n                /* \"MemberPool.sol\":3141:3382  function getApplicants()... */\n            tag_40:\n                /* \"MemberPool.sol\":3246:3262  address[] memory */\n              0x60\n                /* \"MemberPool.sol\":3216:3226  msg.sender */\n              caller\n                /* \"MemberPool.sol\":1076:1088  memberActive */\n              0x04\n                /* \"MemberPool.sol\":1076:1096  memberActive[sender] */\n              0x00\n                /* \"MemberPool.sol\":1089:1095  sender */\n              dup3\n                /* \"MemberPool.sol\":1076:1096  memberActive[sender] */\n              0xffffffffffffffffffffffffffffffffffffffff\n              and\n              0xffffffffffffffffffffffffffffffffffffffff\n              and\n              dup2\n              mstore\n              0x20\n              add\n              swap1\n              dup2\n              mstore\n              0x20\n              add\n              0x00\n              keccak256\n              0x00\n              swap1\n              sload\n              swap1\n              0x0100\n              exp\n              swap1\n              div\n              0xff\n              and\n                /* \"MemberPool.sol\":1068:1125  require(memberActive[sender], \"Required to be a memeber\") */\n              tag_129\n              jumpi\n              mload(0x40)\n              0x08c379a000000000000000000000000000000000000000000000000000000000\n              dup2\n              mstore\n              0x04\n              add\n              tag_130\n              swap1\n              tag_96\n              jump\t// in\n            tag_130:\n              mload(0x40)\n              dup1\n              swap2\n              sub\n              swap1\n              revert\n            tag_129:\n                /* \"MemberPool.sol\":3280:3298  ApplicantPool pool */\n              0x00\n                /* \"MemberPool.sol\":3315:3335  applicantPoolAddress */\n              0x08\n              0x00\n              swap1\n              sload\n              swap1\n              0x0100\n              exp\n              swap1\n              div\n              0xffffffffffffffffffffffffffffffffffffffff\n              and\n                /* \"MemberPool.sol\":3280:3336  ApplicantPool pool = ApplicantPool(applicantPoolAddress) */\n              swap1\n              pop\n                /* \"MemberPool.sol\":3354:3358  pool */\n              dup1\n                /* \"MemberPool.sol\":3354:3372  pool.getApplicants */\n              0xffffffffffffffffffffffffffffffffffffffff\n              and\n              0x455772d2\n                /* \"MemberPool.sol\":3354:3374  pool.getApplicants() */\n              mload(0x40)\n              dup2\n              0xffffffff\n              and\n              0xe0\n              shl\n              dup2\n              mstore\n              0x04\n              add\n              0x00\n              mload(0x40)\n              dup1\n              dup4\n              sub\n              dup2\n              dup7\n              gas\n              staticcall\n              iszero\n              dup1\n              iszero\n              tag_133\n              jumpi\n              returndatasize\n              0x00\n              dup1\n              returndatacopy\n              revert(0x00, returndatasize)\n            tag_133:\n              pop\n              pop\n              pop\n              pop\n              mload(0x40)\n              returndatasize\n              0x00\n              dup3\n              returndatacopy\n              returndatasize\n              not(0x1f)\n              0x1f\n              dup3\n              add\n              and\n              dup3\n              add\n              dup1\n              0x40\n              mstore\n              pop\n              dup2\n              add\n              swap1\n              tag_134\n              swap2\n              swap1\n              tag_135\n              jump\t// in\n            tag_134:\n                /* \"MemberPool.sol\":3347:3374  return pool.getApplicants() */\n              swap3\n              pop\n              pop\n                /* \"MemberPool.sol\":3141:3382  function getApplicants()... */\n              pop\n              swap1\n              jump\t// out\n                /* \"MemberPool.sol\":486:510  address[] public members */\n            tag_46:\n              0x03\n              dup2\n              dup2\n              sload\n              dup2\n              lt\n              tag_136\n              jumpi\n              0x00\n              dup1\n              revert\n            tag_136:\n              swap1\n              0x00\n              mstore\n              keccak256(0x00, 0x20)\n              add\n              0x00\n              swap2\n              pop\n              sload\n              swap1\n              0x0100\n              exp\n              swap1\n              div\n              0xffffffffffffffffffffffffffffffffffffffff\n              and\n              dup2\n              jump\t// out\n                /* \"MemberPool.sol\":1768:1893  function reportMember(address member, string calldata report)... */\n            tag_51:\n                /* \"MemberPool.sol\":1878:1884  uint32 */\n              0x00\n                /* \"MemberPool.sol\":1768:1893  function reportMember(address member, string calldata report)... */\n              swap4\n              swap3\n              pop\n              pop\n              pop\n              jump\t// out\n                /* \"MemberPool.sol\":3037:3133  function getMemberCount() public view returns (uint256) {... */\n            tag_55:\n                /* \"MemberPool.sol\":3084:3091  uint256 */\n              0x00\n                /* \"MemberPool.sol\":3111:3118  members */\n              0x03\n                /* \"MemberPool.sol\":3111:3125  members.length */\n              dup1\n              sload\n              swap1\n              pop\n                /* \"MemberPool.sol\":3104:3125  return members.length */\n              swap1\n              pop\n                /* \"MemberPool.sol\":3037:3133  function getMemberCount() public view returns (uint256) {... */\n              swap1\n              jump\t// out\n                /* \"MemberPool.sol\":1471:1760  function increaseMemberRep(address member) public {... */\n            tag_60:\n                /* \"MemberPool.sol\":1532:1546  address caller */\n              0x00\n                /* \"MemberPool.sol\":1549:1563  userToMemberUp */\n              0x06\n                /* \"MemberPool.sol\":1549:1575  userToMemberUp[msg.sender] */\n              0x00\n                /* \"MemberPool.sol\":1564:1574  msg.sender */\n              caller\n                /* \"MemberPool.sol\":1549:1575  userToMemberUp[msg.sender] */\n              0xffffffffffffffffffffffffffffffffffffffff\n              and\n              0xffffffffffffffffffffffffffffffffffffffff\n              and\n              dup2\n              mstore\n              0x20\n              add\n              swap1\n              dup2\n              mstore\n              0x20\n              add\n              0x00\n              keccak256\n              0x00\n              swap1\n              sload\n              swap1\n              0x0100\n              exp\n              swap1\n              div\n              0xffffffffffffffffffffffffffffffffffffffff\n              and\n                /* \"MemberPool.sol\":1532:1575  address caller = userToMemberUp[msg.sender] */\n              swap1\n              pop\n                /* \"MemberPool.sol\":1604:1610  caller */\n              dup1\n                /* \"MemberPool.sol\":1594:1610  member != caller */\n              0xffffffffffffffffffffffffffffffffffffffff\n              and\n                /* \"MemberPool.sol\":1594:1600  member */\n              dup3\n                /* \"MemberPool.sol\":1594:1610  member != caller */\n              0xffffffffffffffffffffffffffffffffffffffff\n              and\n              sub\n                /* \"MemberPool.sol\":1586:1628  require(member != caller, \"Already voted\") */\n              tag_141\n              jumpi\n              mload(0x40)\n              0x08c379a000000000000000000000000000000000000000000000000000000000\n              dup2\n              mstore\n              0x04\n              add\n              tag_142\n              swap1\n              tag_143\n              jump\t// in\n            tag_142:\n              mload(0x40)\n              dup1\n              swap2\n              sub\n              swap1\n              revert\n            tag_141:\n                /* \"MemberPool.sol\":1663:1664  1 */\n              0x01\n                /* \"MemberPool.sol\":1639:1651  memberPoints */\n              0x07\n                /* \"MemberPool.sol\":1639:1659  memberPoints[member] */\n              0x00\n                /* \"MemberPool.sol\":1652:1658  member */\n              dup5\n                /* \"MemberPool.sol\":1639:1659  memberPoints[member] */\n              0xffffffffffffffffffffffffffffffffffffffff\n              and\n              0xffffffffffffffffffffffffffffffffffffffff\n              and\n              dup2\n              mstore\n              0x20\n              add\n              swap1\n              dup2\n              mstore\n              0x20\n              add\n              0x00\n              keccak256\n              0x00\n                /* \"MemberPool.sol\":1639:1664  memberPoints[member] += 1 */\n              dup3\n              dup3\n              sload\n              tag_144\n              swap2\n              swap1\n              tag_145\n              jump\t// in\n            tag_144:\n              swap3\n              pop\n              pop\n              dup2\n              swap1\n              sstore\n              pop\n                /* \"MemberPool.sol\":1704:1710  member */\n              dup2\n                /* \"MemberPool.sol\":1675:1689  userToMemberUp */\n              0x06\n                /* \"MemberPool.sol\":1675:1701  userToMemberUp[msg.sender] */\n              0x00\n                /* \"MemberPool.sol\":1690:1700  msg.sender */\n              caller\n                /* \"MemberPool.sol\":1675:1701  userToMemberUp[msg.sender] */\n              0xffffffffffffffffffffffffffffffffffffffff\n              and\n              0xffffffffffffffffffffffffffffffffffffffff\n              and\n              dup2\n              mstore\n              0x20\n              add\n              swap1\n              dup2\n              mstore\n              0x20\n              add\n              0x00\n              keccak256\n              0x00\n                /* \"MemberPool.sol\":1675:1710  userToMemberUp[msg.sender] = member */\n              0x0100\n              exp\n              dup2\n              sload\n              dup2\n              0xffffffffffffffffffffffffffffffffffffffff\n              mul\n              not\n              and\n              swap1\n              dup4\n              0xffffffffffffffffffffffffffffffffffffffff\n              and\n              mul\n              or\n              swap1\n              sstore\n              pop\n                /* \"MemberPool.sol\":1726:1752  MemberRewarded(msg.sender) */\n              0xe8ddfec65826b66ec8b03b89152bb70528fa2da92e9775cc99671b1fc7bcb0f4\n                /* \"MemberPool.sol\":1741:1751  msg.sender */\n              caller\n                /* \"MemberPool.sol\":1726:1752  MemberRewarded(msg.sender) */\n              mload(0x40)\n              tag_146\n              swap2\n              swap1\n              tag_48\n              jump\t// in\n            tag_146:\n              mload(0x40)\n              dup1\n              swap2\n              sub\n              swap1\n              log1\n                /* \"MemberPool.sol\":1521:1760  {... */\n              pop\n                /* \"MemberPool.sol\":1471:1760  function increaseMemberRep(address member) public {... */\n              pop\n              jump\t// out\n                /* \"MemberPool.sol\":454:479  string public longSummary */\n            tag_62:\n              0x02\n              dup1\n              sload\n              tag_147\n              swap1\n              tag_87\n              jump\t// in\n            tag_147:\n              dup1\n              0x1f\n              add\n              0x20\n              dup1\n              swap2\n              div\n              mul\n              0x20\n              add\n              mload(0x40)\n              swap1\n              dup2\n              add\n              0x40\n              mstore\n              dup1\n              swap3\n              swap2\n              swap1\n              dup2\n              dup2\n              mstore\n              0x20\n              add\n              dup3\n              dup1\n              sload\n              tag_148\n              swap1\n              tag_87\n              jump\t// in\n            tag_148:\n              dup1\n              iszero\n              tag_149\n              jumpi\n              dup1\n              0x1f\n              lt\n              tag_150\n              jumpi\n              0x0100\n              dup1\n              dup4\n              sload\n              div\n              mul\n              dup4\n              mstore\n              swap2\n              0x20\n              add\n              swap2\n              jump(tag_149)\n            tag_150:\n              dup3\n              add\n              swap2\n              swap1\n              0x00\n              mstore\n              keccak256(0x00, 0x20)\n              swap1\n            tag_151:\n              dup2\n              sload\n              dup2\n              mstore\n              swap1\n              0x01\n              add\n              swap1\n              0x20\n              add\n              dup1\n              dup4\n              gt\n              tag_151\n              jumpi\n              dup3\n              swap1\n              sub\n              0x1f\n              and\n              dup3\n              add\n              swap2\n            tag_149:\n              pop\n              pop\n              pop\n              pop\n              pop\n              dup2\n              jump\t// out\n                /* \"MemberPool.sol\":1901:2015  function getMemberReports(address member)... */\n            tag_66:\n                /* \"MemberPool.sol\":1991:2006  string[] memory */\n              0x60\n                /* \"MemberPool.sol\":1901:2015  function getMemberReports(address member)... */\n              swap2\n              swap1\n              pop\n              jump\t// out\n                /* \"MemberPool.sol\":1153:1280  function getMembers()... */\n            tag_70:\n                /* \"MemberPool.sol\":1255:1271  address[] memory */\n              0x60\n                /* \"MemberPool.sol\":1225:1235  msg.sender */\n              caller\n                /* \"MemberPool.sol\":1076:1088  memberActive */\n              0x04\n                /* \"MemberPool.sol\":1076:1096  memberActive[sender] */\n              0x00\n                /* \"MemberPool.sol\":1089:1095  sender */\n              dup3\n                /* \"MemberPool.sol\":1076:1096  memberActive[sender] */\n              0xffffffffffffffffffffffffffffffffffffffff\n              and\n              0xffffffffffffffffffffffffffffffffffffffff\n              and\n              dup2\n              mstore\n              0x20\n              add\n              swap1\n              dup2\n              mstore\n              0x20\n              add\n              0x00\n              keccak256\n              0x00\n              swap1\n              sload\n              swap1\n              0x0100\n              exp\n              swap1\n              div\n              0xff\n              and\n                /* \"MemberPool.sol\":1068:1125  require(memberActive[sender], \"Required to be a memeber\") */\n              tag_154\n              jumpi\n              mload(0x40)\n              0x08c379a000000000000000000000000000000000000000000000000000000000\n              dup2\n              mstore\n              0x04\n              add\n              tag_155\n              swap1\n              tag_96\n              jump\t// in\n            tag_155:\n              mload(0x40)\n              dup1\n              swap2\n              sub\n              swap1\n              revert\n            tag_154:\n                /* \"MemberPool.sol\":1153:1280  function getMembers()... */\n              pop\n              swap1\n              jump\t// out\n                /* \"MemberPool.sol\":1364:1463  function isMember(address id) public view returns (bool) {... */\n            tag_74:\n                /* \"MemberPool.sol\":1415:1419  bool */\n              0x00\n                /* \"MemberPool.sol\":1439:1451  memberActive */\n              0x04\n                /* \"MemberPool.sol\":1439:1455  memberActive[id] */\n              0x00\n                /* \"MemberPool.sol\":1452:1454  id */\n              dup4\n                /* \"MemberPool.sol\":1439:1455  memberActive[id] */\n              0xffffffffffffffffffffffffffffffffffffffff\n              and\n              0xffffffffffffffffffffffffffffffffffffffff\n              and\n              dup2\n              mstore\n              0x20\n              add\n              swap1\n              dup2\n              mstore\n              0x20\n              add\n              0x00\n              keccak256\n              0x00\n              swap1\n              sload\n              swap1\n              0x0100\n              exp\n              swap1\n              div\n              0xff\n              and\n                /* \"MemberPool.sol\":1432:1455  return memberActive[id] */\n              swap1\n              pop\n                /* \"MemberPool.sol\":1364:1463  function isMember(address id) public view returns (bool) {... */\n              swap2\n              swap1\n              pop\n              jump\t// out\n                /* \"MemberPool.sol\":706:741  address public applicantPoolAddress */\n            tag_78:\n              0x08\n              0x00\n              swap1\n              sload\n              swap1\n              0x0100\n              exp\n              swap1\n              div\n              0xffffffffffffffffffffffffffffffffffffffff\n              and\n              dup2\n              jump\t// out\n                /* \"MemberPool.sol\":421:447  string public shortSummary */\n            tag_81:\n              0x01\n              dup1\n              sload\n              tag_158\n              swap1\n              tag_87\n              jump\t// in\n            tag_158:\n              dup1\n              0x1f\n              add\n              0x20\n              dup1\n              swap2\n              div\n              mul\n              0x20\n              add\n              mload(0x40)\n              swap1\n              dup2\n              add\n              0x40\n              mstore\n              dup1\n              swap3\n              swap2\n              swap1\n              dup2\n              dup2\n              mstore\n              0x20\n              add\n              dup3\n              dup1\n              sload\n              tag_159\n              swap1\n              tag_87\n              jump\t// in\n            tag_159:\n              dup1\n              iszero\n              tag_160\n              jumpi\n              dup1\n              0x1f\n              lt\n              tag_161\n              jumpi\n              0x0100\n              dup1\n              dup4\n              sload\n              div\n              mul\n              dup4\n              mstore\n              swap2\n              0x20\n              add\n              swap2\n              jump(tag_160)\n            tag_161:\n              dup3\n              add\n              swap2\n              swap1\n              0x00\n              mstore\n              keccak256(0x00, 0x20)\n              swap1\n            tag_162:\n              dup2\n              sload\n              dup2\n              mstore\n              swap1\n              0x01\n              add\n              swap1\n              0x20\n              add\n              dup1\n              dup4\n              gt\n              tag_162\n              jumpi\n              dup3\n              swap1\n              sub\n              0x1f\n              and\n              dup3\n              add\n              swap2\n            tag_160:\n              pop\n              pop\n              pop\n              pop\n              pop\n              dup2\n              jump\t// out\n                /* \"MemberPool.sol\":2023:2123  function dismissMemberReport(address member)... */\n            tag_85:\n                /* \"MemberPool.sol\":2104:2114  msg.sender */\n              caller\n                /* \"MemberPool.sol\":1076:1088  memberActive */\n              0x04\n                /* \"MemberPool.sol\":1076:1096  memberActive[sender] */\n              0x00\n                /* \"MemberPool.sol\":1089:1095  sender */\n              dup3\n                /* \"MemberPool.sol\":1076:1096  memberActive[sender] */\n              0xffffffffffffffffffffffffffffffffffffffff\n              and\n              0xffffffffffffffffffffffffffffffffffffffff\n              and\n              dup2\n              mstore\n              0x20\n              add\n              swap1\n              dup2\n              mstore\n              0x20\n              add\n              0x00\n              keccak256\n              0x00\n              swap1\n              sload\n              swap1\n              0x0100\n              exp\n              swap1\n              div\n              0xff\n              and\n                /* \"MemberPool.sol\":1068:1125  require(memberActive[sender], \"Required to be a memeber\") */\n              tag_164\n              jumpi\n              mload(0x40)\n              0x08c379a000000000000000000000000000000000000000000000000000000000\n              dup2\n              mstore\n              0x04\n              add\n              tag_165\n              swap1\n              tag_96\n              jump\t// in\n            tag_165:\n              mload(0x40)\n              dup1\n              swap2\n              sub\n              swap1\n              revert\n            tag_164:\n                /* \"MemberPool.sol\":2023:2123  function dismissMemberReport(address member)... */\n              pop\n              pop\n              jump\t// out\n                /* \"#utility.yul\":7:106   */\n            tag_167:\n                /* \"#utility.yul\":59:65   */\n              0x00\n                /* \"#utility.yul\":93:98   */\n              dup2\n                /* \"#utility.yul\":87:99   */\n              mload\n                /* \"#utility.yul\":77:99   */\n              swap1\n              pop\n                /* \"#utility.yul\":7:106   */\n              swap2\n              swap1\n              pop\n              jump\t// out\n                /* \"#utility.yul\":112:281   */\n            tag_168:\n                /* \"#utility.yul\":196:207   */\n              0x00\n                /* \"#utility.yul\":230:236   */\n              dup3\n                /* \"#utility.yul\":225:228   */\n              dup3\n                /* \"#utility.yul\":218:237   */\n              mstore\n                /* \"#utility.yul\":270:274   */\n              0x20\n                /* \"#utility.yul\":265:268   */\n              dup3\n                /* \"#utility.yul\":261:275   */\n              add\n                /* \"#utility.yul\":246:275   */\n              swap1\n              pop\n                /* \"#utility.yul\":112:281   */\n              swap3\n              swap2\n              pop\n              pop\n              jump\t// out\n                /* \"#utility.yul\":287:533   */\n            tag_169:\n                /* \"#utility.yul\":368:369   */\n              0x00\n                /* \"#utility.yul\":378:491   */\n            tag_233:\n                /* \"#utility.yul\":392:398   */\n              dup4\n                /* \"#utility.yul\":389:390   */\n              dup2\n                /* \"#utility.yul\":386:399   */\n              lt\n                /* \"#utility.yul\":378:491   */\n              iszero\n              tag_235\n              jumpi\n                /* \"#utility.yul\":477:478   */\n              dup1\n                /* \"#utility.yul\":472:475   */\n              dup3\n                /* \"#utility.yul\":468:479   */\n              add\n                /* \"#utility.yul\":462:480   */\n              mload\n                /* \"#utility.yul\":458:459   */\n              dup2\n                /* \"#utility.yul\":453:456   */\n              dup5\n                /* \"#utility.yul\":449:460   */\n              add\n                /* \"#utility.yul\":442:481   */\n              mstore\n                /* \"#utility.yul\":414:416   */\n              0x20\n                /* \"#utility.yul\":411:412   */\n              dup2\n                /* \"#utility.yul\":407:417   */\n              add\n                /* \"#utility.yul\":402:417   */\n              swap1\n              pop\n                /* \"#utility.yul\":378:491   */\n              jump(tag_233)\n            tag_235:\n                /* \"#utility.yul\":525:526   */\n              0x00\n                /* \"#utility.yul\":516:522   */\n              dup5\n                /* \"#utility.yul\":511:514   */\n              dup5\n                /* \"#utility.yul\":507:523   */\n              add\n                /* \"#utility.yul\":500:527   */\n              mstore\n                /* \"#utility.yul\":349:533   */\n              pop\n                /* \"#utility.yul\":287:533   */\n              pop\n              pop\n              pop\n              jump\t// out\n                /* \"#utility.yul\":539:641   */\n            tag_170:\n                /* \"#utility.yul\":580:586   */\n              0x00\n                /* \"#utility.yul\":631:633   */\n              0x1f\n                /* \"#utility.yul\":627:634   */\n              not\n                /* \"#utility.yul\":622:624   */\n              0x1f\n                /* \"#utility.yul\":615:620   */\n              dup4\n                /* \"#utility.yul\":611:625   */\n              add\n                /* \"#utility.yul\":607:635   */\n              and\n                /* \"#utility.yul\":597:635   */\n              swap1\n              pop\n                /* \"#utility.yul\":539:641   */\n              swap2\n              swap1\n              pop\n              jump\t// out\n                /* \"#utility.yul\":647:1024   */\n            tag_171:\n                /* \"#utility.yul\":735:738   */\n              0x00\n                /* \"#utility.yul\":763:802   */\n              tag_238\n                /* \"#utility.yul\":796:801   */\n              dup3\n                /* \"#utility.yul\":763:802   */\n              tag_167\n              jump\t// in\n            tag_238:\n                /* \"#utility.yul\":818:889   */\n              tag_239\n                /* \"#utility.yul\":882:888   */\n              dup2\n                /* \"#utility.yul\":877:880   */\n              dup6\n                /* \"#utility.yul\":818:889   */\n              tag_168\n              jump\t// in\n            tag_239:\n                /* \"#utility.yul\":811:889   */\n              swap4\n              pop\n                /* \"#utility.yul\":898:963   */\n              tag_240\n                /* \"#utility.yul\":956:962   */\n              dup2\n                /* \"#utility.yul\":951:954   */\n              dup6\n                /* \"#utility.yul\":944:948   */\n              0x20\n                /* \"#utility.yul\":937:942   */\n              dup7\n                /* \"#utility.yul\":933:949   */\n              add\n                /* \"#utility.yul\":898:963   */\n              tag_169\n              jump\t// in\n            tag_240:\n                /* \"#utility.yul\":988:1017   */\n              tag_241\n                /* \"#utility.yul\":1010:1016   */\n              dup2\n                /* \"#utility.yul\":988:1017   */\n              tag_170\n              jump\t// in\n            tag_241:\n                /* \"#utility.yul\":983:986   */\n              dup5\n                /* \"#utility.yul\":979:1018   */\n              add\n                /* \"#utility.yul\":972:1018   */\n              swap2\n              pop\n                /* \"#utility.yul\":739:1024   */\n              pop\n                /* \"#utility.yul\":647:1024   */\n              swap3\n              swap2\n              pop\n              pop\n              jump\t// out\n                /* \"#utility.yul\":1030:1343   */\n            tag_25:\n                /* \"#utility.yul\":1143:1147   */\n              0x00\n                /* \"#utility.yul\":1181:1183   */\n              0x20\n                /* \"#utility.yul\":1170:1179   */\n              dup3\n                /* \"#utility.yul\":1166:1184   */\n              add\n                /* \"#utility.yul\":1158:1184   */\n              swap1\n              pop\n                /* \"#utility.yul\":1230:1239   */\n              dup2\n                /* \"#utility.yul\":1224:1228   */\n              dup2\n                /* \"#utility.yul\":1220:1240   */\n              sub\n                /* \"#utility.yul\":1216:1217   */\n              0x00\n                /* \"#utility.yul\":1205:1214   */\n              dup4\n                /* \"#utility.yul\":1201:1218   */\n              add\n                /* \"#utility.yul\":1194:1241   */\n              mstore\n                /* \"#utility.yul\":1258:1336   */\n              tag_243\n                /* \"#utility.yul\":1331:1335   */\n              dup2\n                /* \"#utility.yul\":1322:1328   */\n              dup5\n                /* \"#utility.yul\":1258:1336   */\n              tag_171\n              jump\t// in\n            tag_243:\n                /* \"#utility.yul\":1250:1336   */\n              swap1\n              pop\n                /* \"#utility.yul\":1030:1343   */\n              swap3\n              swap2\n              pop\n              pop\n              jump\t// out\n                /* \"#utility.yul\":1349:1424   */\n            tag_172:\n                /* \"#utility.yul\":1382:1388   */\n              0x00\n                /* \"#utility.yul\":1415:1417   */\n              0x40\n                /* \"#utility.yul\":1409:1418   */\n              mload\n                /* \"#utility.yul\":1399:1418   */\n              swap1\n              pop\n                /* \"#utility.yul\":1349:1424   */\n              swap1\n              jump\t// out\n                /* \"#utility.yul\":1430:1547   */\n            tag_173:\n                /* \"#utility.yul\":1539:1540   */\n              0x00\n                /* \"#utility.yul\":1536:1537   */\n              dup1\n                /* \"#utility.yul\":1529:1541   */\n              revert\n                /* \"#utility.yul\":1553:1670   */\n            tag_174:\n                /* \"#utility.yul\":1662:1663   */\n              0x00\n                /* \"#utility.yul\":1659:1660   */\n              dup1\n                /* \"#utility.yul\":1652:1664   */\n              revert\n                /* \"#utility.yul\":1676:1802   */\n            tag_175:\n                /* \"#utility.yul\":1713:1720   */\n              0x00\n                /* \"#utility.yul\":1753:1795   */\n              0xffffffffffffffffffffffffffffffffffffffff\n                /* \"#utility.yul\":1746:1751   */\n              dup3\n                /* \"#utility.yul\":1742:1796   */\n              and\n                /* \"#utility.yul\":1731:1796   */\n              swap1\n              pop\n                /* \"#utility.yul\":1676:1802   */\n              swap2\n              swap1\n              pop\n              jump\t// out\n                /* \"#utility.yul\":1808:1904   */\n            tag_176:\n                /* \"#utility.yul\":1845:1852   */\n              0x00\n                /* \"#utility.yul\":1874:1898   */\n              tag_249\n                /* \"#utility.yul\":1892:1897   */\n              dup3\n                /* \"#utility.yul\":1874:1898   */\n              tag_175\n              jump\t// in\n            tag_249:\n                /* \"#utility.yul\":1863:1898   */\n              swap1\n              pop\n                /* \"#utility.yul\":1808:1904   */\n              swap2\n              swap1\n              pop\n              jump\t// out\n                /* \"#utility.yul\":1910:2032   */\n            tag_177:\n                /* \"#utility.yul\":1983:2007   */\n              tag_251\n                /* \"#utility.yul\":2001:2006   */\n              dup2\n                /* \"#utility.yul\":1983:2007   */\n              tag_176\n              jump\t// in\n            tag_251:\n                /* \"#utility.yul\":1976:1981   */\n              dup2\n                /* \"#utility.yul\":1973:2008   */\n              eq\n                /* \"#utility.yul\":1963:2026   */\n              tag_252\n              jumpi\n                /* \"#utility.yul\":2022:2023   */\n              0x00\n                /* \"#utility.yul\":2019:2020   */\n              dup1\n                /* \"#utility.yul\":2012:2024   */\n              revert\n                /* \"#utility.yul\":1963:2026   */\n            tag_252:\n                /* \"#utility.yul\":1910:2032   */\n              pop\n              jump\t// out\n                /* \"#utility.yul\":2038:2177   */\n            tag_178:\n                /* \"#utility.yul\":2084:2089   */\n              0x00\n                /* \"#utility.yul\":2122:2128   */\n              dup2\n                /* \"#utility.yul\":2109:2129   */\n              calldataload\n                /* \"#utility.yul\":2100:2129   */\n              swap1\n              pop\n                /* \"#utility.yul\":2138:2171   */\n              tag_254\n                /* \"#utility.yul\":2165:2170   */\n              dup2\n                /* \"#utility.yul\":2138:2171   */\n              tag_177\n              jump\t// in\n            tag_254:\n                /* \"#utility.yul\":2038:2177   */\n              swap3\n              swap2\n              pop\n              pop\n              jump\t// out\n                /* \"#utility.yul\":2183:2512   */\n            tag_28:\n                /* \"#utility.yul\":2242:2248   */\n              0x00\n                /* \"#utility.yul\":2291:2293   */\n              0x20\n                /* \"#utility.yul\":2279:2288   */\n              dup3\n                /* \"#utility.yul\":2270:2277   */\n              dup5\n                /* \"#utility.yul\":2266:2289   */\n              sub\n                /* \"#utility.yul\":2262:2294   */\n              slt\n                /* \"#utility.yul\":2259:2378   */\n              iszero\n              tag_256\n              jumpi\n                /* \"#utility.yul\":2297:2376   */\n              tag_257\n              tag_173\n              jump\t// in\n            tag_257:\n                /* \"#utility.yul\":2259:2378   */\n            tag_256:\n                /* \"#utility.yul\":2417:2418   */\n              0x00\n                /* \"#utility.yul\":2442:2495   */\n              tag_258\n                /* \"#utility.yul\":2487:2494   */\n              dup5\n                /* \"#utility.yul\":2478:2484   */\n              dup3\n                /* \"#utility.yul\":2467:2476   */\n              dup6\n                /* \"#utility.yul\":2463:2485   */\n              add\n                /* \"#utility.yul\":2442:2495   */\n              tag_178\n              jump\t// in\n            tag_258:\n                /* \"#utility.yul\":2432:2495   */\n              swap2\n              pop\n                /* \"#utility.yul\":2388:2505   */\n              pop\n                /* \"#utility.yul\":2183:2512   */\n              swap3\n              swap2\n              pop\n              pop\n              jump\t// out\n                /* \"#utility.yul\":2518:2608   */\n            tag_179:\n                /* \"#utility.yul\":2553:2560   */\n              0x00\n                /* \"#utility.yul\":2596:2601   */\n              dup2\n                /* \"#utility.yul\":2593:2594   */\n              0x03\n                /* \"#utility.yul\":2582:2602   */\n              signextend\n                /* \"#utility.yul\":2571:2602   */\n              swap1\n              pop\n                /* \"#utility.yul\":2518:2608   */\n              swap2\n              swap1\n              pop\n              jump\t// out\n                /* \"#utility.yul\":2614:2726   */\n            tag_180:\n                /* \"#utility.yul\":2697:2719   */\n              tag_261\n                /* \"#utility.yul\":2713:2718   */\n              dup2\n                /* \"#utility.yul\":2697:2719   */\n              tag_179\n              jump\t// in\n            tag_261:\n                /* \"#utility.yul\":2692:2695   */\n              dup3\n                /* \"#utility.yul\":2685:2720   */\n              mstore\n                /* \"#utility.yul\":2614:2726   */\n              pop\n              pop\n              jump\t// out\n                /* \"#utility.yul\":2732:2946   */\n            tag_31:\n                /* \"#utility.yul\":2821:2825   */\n              0x00\n                /* \"#utility.yul\":2859:2861   */\n              0x20\n                /* \"#utility.yul\":2848:2857   */\n              dup3\n                /* \"#utility.yul\":2844:2862   */\n              add\n                /* \"#utility.yul\":2836:2862   */\n              swap1\n              pop\n                /* \"#utility.yul\":2872:2939   */\n              tag_263\n                /* \"#utility.yul\":2936:2937   */\n              0x00\n                /* \"#utility.yul\":2925:2934   */\n              dup4\n                /* \"#utility.yul\":2921:2938   */\n              add\n                /* \"#utility.yul\":2912:2918   */\n              dup5\n                /* \"#utility.yul\":2872:2939   */\n              tag_180\n              jump\t// in\n            tag_263:\n                /* \"#utility.yul\":2732:2946   */\n              swap3\n              swap2\n              pop\n              pop\n              jump\t// out\n                /* \"#utility.yul\":2952:3069   */\n            tag_181:\n                /* \"#utility.yul\":3061:3062   */\n              0x00\n                /* \"#utility.yul\":3058:3059   */\n              dup1\n                /* \"#utility.yul\":3051:3063   */\n              revert\n                /* \"#utility.yul\":3075:3192   */\n            tag_182:\n                /* \"#utility.yul\":3184:3185   */\n              0x00\n                /* \"#utility.yul\":3181:3182   */\n              dup1\n                /* \"#utility.yul\":3174:3186   */\n              revert\n                /* \"#utility.yul\":3198:3315   */\n            tag_183:\n                /* \"#utility.yul\":3307:3308   */\n              0x00\n                /* \"#utility.yul\":3304:3305   */\n              dup1\n                /* \"#utility.yul\":3297:3309   */\n              revert\n                /* \"#utility.yul\":3335:3888   */\n            tag_184:\n                /* \"#utility.yul\":3393:3401   */\n              0x00\n                /* \"#utility.yul\":3403:3409   */\n              dup1\n                /* \"#utility.yul\":3453:3456   */\n              dup4\n                /* \"#utility.yul\":3446:3450   */\n              0x1f\n                /* \"#utility.yul\":3438:3444   */\n              dup5\n                /* \"#utility.yul\":3434:3451   */\n              add\n                /* \"#utility.yul\":3430:3457   */\n              slt\n                /* \"#utility.yul\":3420:3542   */\n              tag_268\n              jumpi\n                /* \"#utility.yul\":3461:3540   */\n              tag_269\n              tag_181\n              jump\t// in\n            tag_269:\n                /* \"#utility.yul\":3420:3542   */\n            tag_268:\n                /* \"#utility.yul\":3574:3580   */\n              dup3\n                /* \"#utility.yul\":3561:3581   */\n              calldataload\n                /* \"#utility.yul\":3551:3581   */\n              swap1\n              pop\n                /* \"#utility.yul\":3604:3622   */\n              0xffffffffffffffff\n                /* \"#utility.yul\":3596:3602   */\n              dup2\n                /* \"#utility.yul\":3593:3623   */\n              gt\n                /* \"#utility.yul\":3590:3707   */\n              iszero\n              tag_270\n              jumpi\n                /* \"#utility.yul\":3626:3705   */\n              tag_271\n              tag_182\n              jump\t// in\n            tag_271:\n                /* \"#utility.yul\":3590:3707   */\n            tag_270:\n                /* \"#utility.yul\":3740:3744   */\n              0x20\n                /* \"#utility.yul\":3732:3738   */\n              dup4\n                /* \"#utility.yul\":3728:3745   */\n              add\n                /* \"#utility.yul\":3716:3745   */\n              swap2\n              pop\n                /* \"#utility.yul\":3794:3797   */\n              dup4\n                /* \"#utility.yul\":3786:3790   */\n              0x01\n                /* \"#utility.yul\":3778:3784   */\n              dup3\n                /* \"#utility.yul\":3774:3791   */\n              mul\n                /* \"#utility.yul\":3764:3772   */\n              dup4\n                /* \"#utility.yul\":3760:3792   */\n              add\n                /* \"#utility.yul\":3757:3798   */\n              gt\n                /* \"#utility.yul\":3754:3882   */\n              iszero\n              tag_272\n              jumpi\n                /* \"#utility.yul\":3801:3880   */\n              tag_273\n              tag_183\n              jump\t// in\n            tag_273:\n                /* \"#utility.yul\":3754:3882   */\n            tag_272:\n                /* \"#utility.yul\":3335:3888   */\n              swap3\n              pop\n              swap3\n              swap1\n              pop\n              jump\t// out\n                /* \"#utility.yul\":3894:4568   */\n            tag_34:\n                /* \"#utility.yul\":3974:3980   */\n              0x00\n                /* \"#utility.yul\":3982:3988   */\n              dup1\n                /* \"#utility.yul\":3990:3996   */\n              0x00\n                /* \"#utility.yul\":4039:4041   */\n              0x40\n                /* \"#utility.yul\":4027:4036   */\n              dup5\n                /* \"#utility.yul\":4018:4025   */\n              dup7\n                /* \"#utility.yul\":4014:4037   */\n              sub\n                /* \"#utility.yul\":4010:4042   */\n              slt\n                /* \"#utility.yul\":4007:4126   */\n              iszero\n              tag_275\n              jumpi\n                /* \"#utility.yul\":4045:4124   */\n              tag_276\n              tag_173\n              jump\t// in\n            tag_276:\n                /* \"#utility.yul\":4007:4126   */\n            tag_275:\n                /* \"#utility.yul\":4165:4166   */\n              0x00\n                /* \"#utility.yul\":4190:4243   */\n              tag_277\n                /* \"#utility.yul\":4235:4242   */\n              dup7\n                /* \"#utility.yul\":4226:4232   */\n              dup3\n                /* \"#utility.yul\":4215:4224   */\n              dup8\n                /* \"#utility.yul\":4211:4233   */\n              add\n                /* \"#utility.yul\":4190:4243   */\n              tag_178\n              jump\t// in\n            tag_277:\n                /* \"#utility.yul\":4180:4243   */\n              swap4\n              pop\n                /* \"#utility.yul\":4136:4253   */\n              pop\n                /* \"#utility.yul\":4320:4322   */\n              0x20\n                /* \"#utility.yul\":4309:4318   */\n              dup5\n                /* \"#utility.yul\":4305:4323   */\n              add\n                /* \"#utility.yul\":4292:4324   */\n              calldataload\n                /* \"#utility.yul\":4351:4369   */\n              0xffffffffffffffff\n                /* \"#utility.yul\":4343:4349   */\n              dup2\n                /* \"#utility.yul\":4340:4370   */\n              gt\n                /* \"#utility.yul\":4337:4454   */\n              iszero\n              tag_278\n              jumpi\n                /* \"#utility.yul\":4373:4452   */\n              tag_279\n              tag_174\n              jump\t// in\n            tag_279:\n                /* \"#utility.yul\":4337:4454   */\n            tag_278:\n                /* \"#utility.yul\":4486:4551   */\n              tag_280\n                /* \"#utility.yul\":4543:4550   */\n              dup7\n                /* \"#utility.yul\":4534:4540   */\n              dup3\n                /* \"#utility.yul\":4523:4532   */\n              dup8\n                /* \"#utility.yul\":4519:4541   */\n              add\n                /* \"#utility.yul\":4486:4551   */\n              tag_184\n              jump\t// in\n            tag_280:\n                /* \"#utility.yul\":4468:4551   */\n              swap3\n              pop\n              swap3\n              pop\n                /* \"#utility.yul\":4263:4561   */\n              pop\n                /* \"#utility.yul\":3894:4568   */\n              swap3\n              pop\n              swap3\n              pop\n              swap3\n              jump\t// out\n                /* \"#utility.yul\":4574:4688   */\n            tag_185:\n                /* \"#utility.yul\":4641:4647   */\n              0x00\n                /* \"#utility.yul\":4675:4680   */\n              dup2\n                /* \"#utility.yul\":4669:4681   */\n              mload\n                /* \"#utility.yul\":4659:4681   */\n              swap1\n              pop\n                /* \"#utility.yul\":4574:4688   */\n              swap2\n              swap1\n              pop\n              jump\t// out\n                /* \"#utility.yul\":4694:4878   */\n            tag_186:\n                /* \"#utility.yul\":4793:4804   */\n              0x00\n                /* \"#utility.yul\":4827:4833   */\n              dup3\n                /* \"#utility.yul\":4822:4825   */\n              dup3\n                /* \"#utility.yul\":4815:4834   */\n              mstore\n                /* \"#utility.yul\":4867:4871   */\n              0x20\n                /* \"#utility.yul\":4862:4865   */\n              dup3\n                /* \"#utility.yul\":4858:4872   */\n              add\n                /* \"#utility.yul\":4843:4872   */\n              swap1\n              pop\n                /* \"#utility.yul\":4694:4878   */\n              swap3\n              swap2\n              pop\n              pop\n              jump\t// out\n                /* \"#utility.yul\":4884:5016   */\n            tag_187:\n                /* \"#utility.yul\":4951:4955   */\n              0x00\n                /* \"#utility.yul\":4974:4977   */\n              dup2\n                /* \"#utility.yul\":4966:4977   */\n              swap1\n              pop\n                /* \"#utility.yul\":5004:5008   */\n              0x20\n                /* \"#utility.yul\":4999:5002   */\n              dup3\n                /* \"#utility.yul\":4995:5009   */\n              add\n                /* \"#utility.yul\":4987:5009   */\n              swap1\n              pop\n                /* \"#utility.yul\":4884:5016   */\n              swap2\n              swap1\n              pop\n              jump\t// out\n                /* \"#utility.yul\":5022:5130   */\n            tag_188:\n                /* \"#utility.yul\":5099:5123   */\n              tag_285\n                /* \"#utility.yul\":5117:5122   */\n              dup2\n                /* \"#utility.yul\":5099:5123   */\n              tag_176\n              jump\t// in\n            tag_285:\n                /* \"#utility.yul\":5094:5097   */\n              dup3\n                /* \"#utility.yul\":5087:5124   */\n              mstore\n                /* \"#utility.yul\":5022:5130   */\n              pop\n              pop\n              jump\t// out\n                /* \"#utility.yul\":5136:5315   */\n            tag_189:\n                /* \"#utility.yul\":5205:5215   */\n              0x00\n                /* \"#utility.yul\":5226:5272   */\n              tag_287\n                /* \"#utility.yul\":5268:5271   */\n              dup4\n                /* \"#utility.yul\":5260:5266   */\n              dup4\n                /* \"#utility.yul\":5226:5272   */\n              tag_188\n              jump\t// in\n            tag_287:\n                /* \"#utility.yul\":5304:5308   */\n              0x20\n                /* \"#utility.yul\":5299:5302   */\n              dup4\n                /* \"#utility.yul\":5295:5309   */\n              add\n                /* \"#utility.yul\":5281:5309   */\n              swap1\n              pop\n                /* \"#utility.yul\":5136:5315   */\n              swap3\n              swap2\n              pop\n              pop\n              jump\t// out\n                /* \"#utility.yul\":5321:5434   */\n            tag_190:\n                /* \"#utility.yul\":5391:5395   */\n              0x00\n                /* \"#utility.yul\":5423:5427   */\n              0x20\n                /* \"#utility.yul\":5418:5421   */\n              dup3\n                /* \"#utility.yul\":5414:5428   */\n              add\n                /* \"#utility.yul\":5406:5428   */\n              swap1\n              pop\n                /* \"#utility.yul\":5321:5434   */\n              swap2\n              swap1\n              pop\n              jump\t// out\n                /* \"#utility.yul\":5470:6202   */\n            tag_191:\n                /* \"#utility.yul\":5589:5592   */\n              0x00\n                /* \"#utility.yul\":5618:5672   */\n              tag_290\n                /* \"#utility.yul\":5666:5671   */\n              dup3\n                /* \"#utility.yul\":5618:5672   */\n              tag_185\n              jump\t// in\n            tag_290:\n                /* \"#utility.yul\":5688:5774   */\n              tag_291\n                /* \"#utility.yul\":5767:5773   */\n              dup2\n                /* \"#utility.yul\":5762:5765   */\n              dup6\n                /* \"#utility.yul\":5688:5774   */\n              tag_186\n              jump\t// in\n            tag_291:\n                /* \"#utility.yul\":5681:5774   */\n              swap4\n              pop\n                /* \"#utility.yul\":5798:5854   */\n              tag_292\n                /* \"#utility.yul\":5848:5853   */\n              dup4\n                /* \"#utility.yul\":5798:5854   */\n              tag_187\n              jump\t// in\n            tag_292:\n                /* \"#utility.yul\":5877:5884   */\n              dup1\n                /* \"#utility.yul\":5908:5909   */\n              0x00\n                /* \"#utility.yul\":5893:6177   */\n            tag_293:\n                /* \"#utility.yul\":5918:5924   */\n              dup4\n                /* \"#utility.yul\":5915:5916   */\n              dup2\n                /* \"#utility.yul\":5912:5925   */\n              lt\n                /* \"#utility.yul\":5893:6177   */\n              iszero\n              tag_295\n              jumpi\n                /* \"#utility.yul\":5994:6000   */\n              dup2\n                /* \"#utility.yul\":5988:6001   */\n              mload\n                /* \"#utility.yul\":6021:6084   */\n              tag_296\n                /* \"#utility.yul\":6080:6083   */\n              dup9\n                /* \"#utility.yul\":6065:6078   */\n              dup3\n                /* \"#utility.yul\":6021:6084   */\n              tag_189\n              jump\t// in\n            tag_296:\n                /* \"#utility.yul\":6014:6084   */\n              swap8\n              pop\n                /* \"#utility.yul\":6107:6167   */\n              tag_297\n                /* \"#utility.yul\":6160:6166   */\n              dup4\n                /* \"#utility.yul\":6107:6167   */\n              tag_190\n              jump\t// in\n            tag_297:\n                /* \"#utility.yul\":6097:6167   */\n              swap3\n              pop\n                /* \"#utility.yul\":5953:6177   */\n              pop\n                /* \"#utility.yul\":5940:5941   */\n              0x01\n                /* \"#utility.yul\":5937:5938   */\n              dup2\n                /* \"#utility.yul\":5933:5942   */\n              add\n                /* \"#utility.yul\":5928:5942   */\n              swap1\n              pop\n                /* \"#utility.yul\":5893:6177   */\n              jump(tag_293)\n            tag_295:\n                /* \"#utility.yul\":5897:5911   */\n              pop\n                /* \"#utility.yul\":6193:6196   */\n              dup6\n                /* \"#utility.yul\":6186:6196   */\n              swap4\n              pop\n                /* \"#utility.yul\":5594:6202   */\n              pop\n              pop\n              pop\n                /* \"#utility.yul\":5470:6202   */\n              swap3\n              swap2\n              pop\n              pop\n              jump\t// out\n                /* \"#utility.yul\":6208:6581   */\n            tag_42:\n                /* \"#utility.yul\":6351:6355   */\n              0x00\n                /* \"#utility.yul\":6389:6391   */\n              0x20\n                /* \"#utility.yul\":6378:6387   */\n              dup3\n                /* \"#utility.yul\":6374:6392   */\n              add\n                /* \"#utility.yul\":6366:6392   */\n              swap1\n              pop\n                /* \"#utility.yul\":6438:6447   */\n              dup2\n                /* \"#utility.yul\":6432:6436   */\n              dup2\n                /* \"#utility.yul\":6428:6448   */\n              sub\n                /* \"#utility.yul\":6424:6425   */\n              0x00\n                /* \"#utility.yul\":6413:6422   */\n              dup4\n                /* \"#utility.yul\":6409:6426   */\n              add\n                /* \"#utility.yul\":6402:6449   */\n              mstore\n                /* \"#utility.yul\":6466:6574   */\n              tag_299\n                /* \"#utility.yul\":6569:6573   */\n              dup2\n                /* \"#utility.yul\":6560:6566   */\n              dup5\n                /* \"#utility.yul\":6466:6574   */\n              tag_191\n              jump\t// in\n            tag_299:\n                /* \"#utility.yul\":6458:6574   */\n              swap1\n              pop\n                /* \"#utility.yul\":6208:6581   */\n              swap3\n              swap2\n              pop\n              pop\n              jump\t// out\n                /* \"#utility.yul\":6587:6664   */\n            tag_192:\n                /* \"#utility.yul\":6624:6631   */\n              0x00\n                /* \"#utility.yul\":6653:6658   */\n              dup2\n                /* \"#utility.yul\":6642:6658   */\n              swap1\n              pop\n                /* \"#utility.yul\":6587:6664   */\n              swap2\n              swap1\n              pop\n              jump\t// out\n                /* \"#utility.yul\":6670:6792   */\n            tag_193:\n                /* \"#utility.yul\":6743:6767   */\n              tag_302\n                /* \"#utility.yul\":6761:6766   */\n              dup2\n                /* \"#utility.yul\":6743:6767   */\n              tag_192\n              jump\t// in\n            tag_302:\n                /* \"#utility.yul\":6736:6741   */\n              dup2\n                /* \"#utility.yul\":6733:6768   */\n              eq\n                /* \"#utility.yul\":6723:6786   */\n              tag_303\n              jumpi\n                /* \"#utility.yul\":6782:6783   */\n              0x00\n                /* \"#utility.yul\":6779:6780   */\n              dup1\n                /* \"#utility.yul\":6772:6784   */\n              revert\n                /* \"#utility.yul\":6723:6786   */\n            tag_303:\n                /* \"#utility.yul\":6670:6792   */\n              pop\n              jump\t// out\n                /* \"#utility.yul\":6798:6937   */\n            tag_194:\n                /* \"#utility.yul\":6844:6849   */\n              0x00\n                /* \"#utility.yul\":6882:6888   */\n              dup2\n                /* \"#utility.yul\":6869:6889   */\n              calldataload\n                /* \"#utility.yul\":6860:6889   */\n              swap1\n              pop\n                /* \"#utility.yul\":6898:6931   */\n              tag_305\n                /* \"#utility.yul\":6925:6930   */\n              dup2\n                /* \"#utility.yul\":6898:6931   */\n              tag_193\n              jump\t// in\n            tag_305:\n                /* \"#utility.yul\":6798:6937   */\n              swap3\n              swap2\n              pop\n              pop\n              jump\t// out\n                /* \"#utility.yul\":6943:7272   */\n            tag_45:\n                /* \"#utility.yul\":7002:7008   */\n              0x00\n                /* \"#utility.yul\":7051:7053   */\n              0x20\n                /* \"#utility.yul\":7039:7048   */\n              dup3\n                /* \"#utility.yul\":7030:7037   */\n              dup5\n                /* \"#utility.yul\":7026:7049   */\n              sub\n                /* \"#utility.yul\":7022:7054   */\n              slt\n                /* \"#utility.yul\":7019:7138   */\n              iszero\n              tag_307\n              jumpi\n                /* \"#utility.yul\":7057:7136   */\n              tag_308\n              tag_173\n              jump\t// in\n            tag_308:\n                /* \"#utility.yul\":7019:7138   */\n            tag_307:\n                /* \"#utility.yul\":7177:7178   */\n              0x00\n                /* \"#utility.yul\":7202:7255   */\n              tag_309\n                /* \"#utility.yul\":7247:7254   */\n              dup5\n                /* \"#utility.yul\":7238:7244   */\n              dup3\n                /* \"#utility.yul\":7227:7236   */\n              dup6\n                /* \"#utility.yul\":7223:7245   */\n              add\n                /* \"#utility.yul\":7202:7255   */\n              tag_194\n              jump\t// in\n            tag_309:\n                /* \"#utility.yul\":7192:7255   */\n              swap2\n              pop\n                /* \"#utility.yul\":7148:7265   */\n              pop\n                /* \"#utility.yul\":6943:7272   */\n              swap3\n              swap2\n              pop\n              pop\n              jump\t// out\n                /* \"#utility.yul\":7278:7396   */\n            tag_195:\n                /* \"#utility.yul\":7365:7389   */\n              tag_311\n                /* \"#utility.yul\":7383:7388   */\n              dup2\n                /* \"#utility.yul\":7365:7389   */\n              tag_176\n              jump\t// in\n            tag_311:\n                /* \"#utility.yul\":7360:7363   */\n              dup3\n                /* \"#utility.yul\":7353:7390   */\n              mstore\n                /* \"#utility.yul\":7278:7396   */\n              pop\n              pop\n              jump\t// out\n                /* \"#utility.yul\":7402:7624   */\n            tag_48:\n                /* \"#utility.yul\":7495:7499   */\n              0x00\n                /* \"#utility.yul\":7533:7535   */\n              0x20\n                /* \"#utility.yul\":7522:7531   */\n              dup3\n                /* \"#utility.yul\":7518:7536   */\n              add\n                /* \"#utility.yul\":7510:7536   */\n              swap1\n              pop\n                /* \"#utility.yul\":7546:7617   */\n              tag_313\n                /* \"#utility.yul\":7614:7615   */\n              0x00\n                /* \"#utility.yul\":7603:7612   */\n              dup4\n                /* \"#utility.yul\":7599:7616   */\n              add\n                /* \"#utility.yul\":7590:7596   */\n              dup5\n                /* \"#utility.yul\":7546:7617   */\n              tag_195\n              jump\t// in\n            tag_313:\n                /* \"#utility.yul\":7402:7624   */\n              swap3\n              swap2\n              pop\n              pop\n              jump\t// out\n                /* \"#utility.yul\":7630:7723   */\n            tag_196:\n                /* \"#utility.yul\":7666:7673   */\n              0x00\n                /* \"#utility.yul\":7706:7716   */\n              0xffffffff\n                /* \"#utility.yul\":7699:7704   */\n              dup3\n                /* \"#utility.yul\":7695:7717   */\n              and\n                /* \"#utility.yul\":7684:7717   */\n              swap1\n              pop\n                /* \"#utility.yul\":7630:7723   */\n              swap2\n              swap1\n              pop\n              jump\t// out\n                /* \"#utility.yul\":7729:7844   */\n            tag_197:\n                /* \"#utility.yul\":7814:7837   */\n              tag_316\n                /* \"#utility.yul\":7831:7836   */\n              dup2\n                /* \"#utility.yul\":7814:7837   */\n              tag_196\n              jump\t// in\n            tag_316:\n                /* \"#utility.yul\":7809:7812   */\n              dup3\n                /* \"#utility.yul\":7802:7838   */\n              mstore\n                /* \"#utility.yul\":7729:7844   */\n              pop\n              pop\n              jump\t// out\n                /* \"#utility.yul\":7850:8068   */\n            tag_53:\n                /* \"#utility.yul\":7941:7945   */\n              0x00\n                /* \"#utility.yul\":7979:7981   */\n              0x20\n                /* \"#utility.yul\":7968:7977   */\n              dup3\n                /* \"#utility.yul\":7964:7982   */\n              add\n                /* \"#utility.yul\":7956:7982   */\n              swap1\n              pop\n                /* \"#utility.yul\":7992:8061   */\n              tag_318\n                /* \"#utility.yul\":8058:8059   */\n              0x00\n                /* \"#utility.yul\":8047:8056   */\n              dup4\n                /* \"#utility.yul\":8043:8060   */\n              add\n                /* \"#utility.yul\":8034:8040   */\n              dup5\n                /* \"#utility.yul\":7992:8061   */\n              tag_197\n              jump\t// in\n            tag_318:\n                /* \"#utility.yul\":7850:8068   */\n              swap3\n              swap2\n              pop\n              pop\n              jump\t// out\n                /* \"#utility.yul\":8074:8192   */\n            tag_198:\n                /* \"#utility.yul\":8161:8185   */\n              tag_320\n                /* \"#utility.yul\":8179:8184   */\n              dup2\n                /* \"#utility.yul\":8161:8185   */\n              tag_192\n              jump\t// in\n            tag_320:\n                /* \"#utility.yul\":8156:8159   */\n              dup3\n                /* \"#utility.yul\":8149:8186   */\n              mstore\n                /* \"#utility.yul\":8074:8192   */\n              pop\n              pop\n              jump\t// out\n                /* \"#utility.yul\":8198:8420   */\n            tag_57:\n                /* \"#utility.yul\":8291:8295   */\n              0x00\n                /* \"#utility.yul\":8329:8331   */\n              0x20\n                /* \"#utility.yul\":8318:8327   */\n              dup3\n                /* \"#utility.yul\":8314:8332   */\n              add\n                /* \"#utility.yul\":8306:8332   */\n              swap1\n              pop\n                /* \"#utility.yul\":8342:8413   */\n              tag_322\n                /* \"#utility.yul\":8410:8411   */\n              0x00\n                /* \"#utility.yul\":8399:8408   */\n              dup4\n                /* \"#utility.yul\":8395:8412   */\n              add\n                /* \"#utility.yul\":8386:8392   */\n              dup5\n                /* \"#utility.yul\":8342:8413   */\n              tag_198\n              jump\t// in\n            tag_322:\n                /* \"#utility.yul\":8198:8420   */\n              swap3\n              swap2\n              pop\n              pop\n              jump\t// out\n                /* \"#utility.yul\":8426:8550   */\n            tag_199:\n                /* \"#utility.yul\":8503:8509   */\n              0x00\n                /* \"#utility.yul\":8537:8542   */\n              dup2\n                /* \"#utility.yul\":8531:8543   */\n              mload\n                /* \"#utility.yul\":8521:8543   */\n              swap1\n              pop\n                /* \"#utility.yul\":8426:8550   */\n              swap2\n              swap1\n              pop\n              jump\t// out\n                /* \"#utility.yul\":8556:8750   */\n            tag_200:\n                /* \"#utility.yul\":8665:8676   */\n              0x00\n                /* \"#utility.yul\":8699:8705   */\n              dup3\n                /* \"#utility.yul\":8694:8697   */\n              dup3\n                /* \"#utility.yul\":8687:8706   */\n              mstore\n                /* \"#utility.yul\":8739:8743   */\n              0x20\n                /* \"#utility.yul\":8734:8737   */\n              dup3\n                /* \"#utility.yul\":8730:8744   */\n              add\n                /* \"#utility.yul\":8715:8744   */\n              swap1\n              pop\n                /* \"#utility.yul\":8556:8750   */\n              swap3\n              swap2\n              pop\n              pop\n              jump\t// out\n                /* \"#utility.yul\":8756:8898   */\n            tag_201:\n                /* \"#utility.yul\":8833:8837   */\n              0x00\n                /* \"#utility.yul\":8856:8859   */\n              dup2\n                /* \"#utility.yul\":8848:8859   */\n              swap1\n              pop\n                /* \"#utility.yul\":8886:8890   */\n              0x20\n                /* \"#utility.yul\":8881:8884   */\n              dup3\n                /* \"#utility.yul\":8877:8891   */\n              add\n                /* \"#utility.yul\":8869:8891   */\n              swap1\n              pop\n                /* \"#utility.yul\":8756:8898   */\n              swap2\n              swap1\n              pop\n              jump\t// out\n                /* \"#utility.yul\":8904:9063   */\n            tag_202:\n                /* \"#utility.yul\":8978:8989   */\n              0x00\n                /* \"#utility.yul\":9012:9018   */\n              dup3\n                /* \"#utility.yul\":9007:9010   */\n              dup3\n                /* \"#utility.yul\":9000:9019   */\n              mstore\n                /* \"#utility.yul\":9052:9056   */\n              0x20\n                /* \"#utility.yul\":9047:9050   */\n              dup3\n                /* \"#utility.yul\":9043:9057   */\n              add\n                /* \"#utility.yul\":9028:9057   */\n              swap1\n              pop\n                /* \"#utility.yul\":8904:9063   */\n              swap3\n              swap2\n              pop\n              pop\n              jump\t// out\n                /* \"#utility.yul\":9069:9426   */\n            tag_203:\n                /* \"#utility.yul\":9147:9150   */\n              0x00\n                /* \"#utility.yul\":9175:9214   */\n              tag_328\n                /* \"#utility.yul\":9208:9213   */\n              dup3\n                /* \"#utility.yul\":9175:9214   */\n              tag_167\n              jump\t// in\n            tag_328:\n                /* \"#utility.yul\":9230:9291   */\n              tag_329\n                /* \"#utility.yul\":9284:9290   */\n              dup2\n                /* \"#utility.yul\":9279:9282   */\n              dup6\n                /* \"#utility.yul\":9230:9291   */\n              tag_202\n              jump\t// in\n            tag_329:\n                /* \"#utility.yul\":9223:9291   */\n              swap4\n              pop\n                /* \"#utility.yul\":9300:9365   */\n              tag_330\n                /* \"#utility.yul\":9358:9364   */\n              dup2\n                /* \"#utility.yul\":9353:9356   */\n              dup6\n                /* \"#utility.yul\":9346:9350   */\n              0x20\n                /* \"#utility.yul\":9339:9344   */\n              dup7\n                /* \"#utility.yul\":9335:9351   */\n              add\n                /* \"#utility.yul\":9300:9365   */\n              tag_169\n              jump\t// in\n            tag_330:\n                /* \"#utility.yul\":9390:9419   */\n              tag_331\n                /* \"#utility.yul\":9412:9418   */\n              dup2\n                /* \"#utility.yul\":9390:9419   */\n              tag_170\n              jump\t// in\n            tag_331:\n                /* \"#utility.yul\":9385:9388   */\n              dup5\n                /* \"#utility.yul\":9381:9420   */\n              add\n                /* \"#utility.yul\":9374:9420   */\n              swap2\n              pop\n                /* \"#utility.yul\":9151:9426   */\n              pop\n                /* \"#utility.yul\":9069:9426   */\n              swap3\n              swap2\n              pop\n              pop\n              jump\t// out\n                /* \"#utility.yul\":9432:9628   */\n            tag_204:\n                /* \"#utility.yul\":9521:9531   */\n              0x00\n                /* \"#utility.yul\":9556:9622   */\n              tag_333\n                /* \"#utility.yul\":9618:9621   */\n              dup4\n                /* \"#utility.yul\":9610:9616   */\n              dup4\n                /* \"#utility.yul\":9556:9622   */\n              tag_203\n              jump\t// in\n            tag_333:\n                /* \"#utility.yul\":9542:9622   */\n              swap1\n              pop\n                /* \"#utility.yul\":9432:9628   */\n              swap3\n              swap2\n              pop\n              pop\n              jump\t// out\n                /* \"#utility.yul\":9634:9757   */\n            tag_205:\n                /* \"#utility.yul\":9714:9718   */\n              0x00\n                /* \"#utility.yul\":9746:9750   */\n              0x20\n                /* \"#utility.yul\":9741:9744   */\n              dup3\n                /* \"#utility.yul\":9737:9751   */\n              add\n                /* \"#utility.yul\":9729:9751   */\n              swap1\n              pop\n                /* \"#utility.yul\":9634:9757   */\n              swap2\n              swap1\n              pop\n              jump\t// out\n                /* \"#utility.yul\":9791:10782   */\n            tag_206:\n                /* \"#utility.yul\":9930:9933   */\n              0x00\n                /* \"#utility.yul\":9959:10023   */\n              tag_336\n                /* \"#utility.yul\":10017:10022   */\n              dup3\n                /* \"#utility.yul\":9959:10023   */\n              tag_199\n              jump\t// in\n            tag_336:\n                /* \"#utility.yul\":10039:10135   */\n              tag_337\n                /* \"#utility.yul\":10128:10134   */\n              dup2\n                /* \"#utility.yul\":10123:10126   */\n              dup6\n                /* \"#utility.yul\":10039:10135   */\n              tag_200\n              jump\t// in\n            tag_337:\n                /* \"#utility.yul\":10032:10135   */\n              swap4\n              pop\n                /* \"#utility.yul\":10161:10164   */\n              dup4\n                /* \"#utility.yul\":10206:10210   */\n              0x20\n                /* \"#utility.yul\":10198:10204   */\n              dup3\n                /* \"#utility.yul\":10194:10211   */\n              mul\n                /* \"#utility.yul\":10189:10192   */\n              dup6\n                /* \"#utility.yul\":10185:10212   */\n              add\n                /* \"#utility.yul\":10236:10302   */\n              tag_338\n                /* \"#utility.yul\":10296:10301   */\n              dup6\n                /* \"#utility.yul\":10236:10302   */\n              tag_201\n              jump\t// in\n            tag_338:\n                /* \"#utility.yul\":10325:10332   */\n              dup1\n                /* \"#utility.yul\":10356:10357   */\n              0x00\n                /* \"#utility.yul\":10341:10737   */\n            tag_339:\n                /* \"#utility.yul\":10366:10372   */\n              dup6\n                /* \"#utility.yul\":10363:10364   */\n              dup2\n                /* \"#utility.yul\":10360:10373   */\n              lt\n                /* \"#utility.yul\":10341:10737   */\n              iszero\n              tag_341\n              jumpi\n                /* \"#utility.yul\":10437:10446   */\n              dup5\n                /* \"#utility.yul\":10431:10435   */\n              dup5\n                /* \"#utility.yul\":10427:10447   */\n              sub\n                /* \"#utility.yul\":10422:10425   */\n              dup10\n                /* \"#utility.yul\":10415:10448   */\n              mstore\n                /* \"#utility.yul\":10488:10494   */\n              dup2\n                /* \"#utility.yul\":10482:10495   */\n              mload\n                /* \"#utility.yul\":10516:10600   */\n              tag_342\n                /* \"#utility.yul\":10595:10599   */\n              dup6\n                /* \"#utility.yul\":10580:10593   */\n              dup3\n                /* \"#utility.yul\":10516:10600   */\n              tag_204\n              jump\t// in\n            tag_342:\n                /* \"#utility.yul\":10508:10600   */\n              swap5\n              pop\n                /* \"#utility.yul\":10623:10693   */\n              tag_343\n                /* \"#utility.yul\":10686:10692   */\n              dup4\n                /* \"#utility.yul\":10623:10693   */\n              tag_205\n              jump\t// in\n            tag_343:\n                /* \"#utility.yul\":10613:10693   */\n              swap3\n              pop\n                /* \"#utility.yul\":10722:10726   */\n              0x20\n                /* \"#utility.yul\":10717:10720   */\n              dup11\n                /* \"#utility.yul\":10713:10727   */\n              add\n                /* \"#utility.yul\":10706:10727   */\n              swap10\n              pop\n                /* \"#utility.yul\":10401:10737   */\n              pop\n                /* \"#utility.yul\":10388:10389   */\n              0x01\n                /* \"#utility.yul\":10385:10386   */\n              dup2\n                /* \"#utility.yul\":10381:10390   */\n              add\n                /* \"#utility.yul\":10376:10390   */\n              swap1\n              pop\n                /* \"#utility.yul\":10341:10737   */\n              jump(tag_339)\n            tag_341:\n                /* \"#utility.yul\":10345:10359   */\n              pop\n                /* \"#utility.yul\":10753:10757   */\n              dup3\n                /* \"#utility.yul\":10746:10757   */\n              swap8\n              pop\n                /* \"#utility.yul\":10773:10776   */\n              dup8\n                /* \"#utility.yul\":10766:10776   */\n              swap6\n              pop\n                /* \"#utility.yul\":9935:10782   */\n              pop\n              pop\n              pop\n              pop\n              pop\n                /* \"#utility.yul\":9791:10782   */\n              swap3\n              swap2\n              pop\n              pop\n              jump\t// out\n                /* \"#utility.yul\":10788:11201   */\n            tag_68:\n                /* \"#utility.yul\":10951:10955   */\n              0x00\n                /* \"#utility.yul\":10989:10991   */\n              0x20\n                /* \"#utility.yul\":10978:10987   */\n              dup3\n                /* \"#utility.yul\":10974:10992   */\n              add\n                /* \"#utility.yul\":10966:10992   */\n              swap1\n              pop\n                /* \"#utility.yul\":11038:11047   */\n              dup2\n                /* \"#utility.yul\":11032:11036   */\n              dup2\n                /* \"#utility.yul\":11028:11048   */\n              sub\n                /* \"#utility.yul\":11024:11025   */\n              0x00\n                /* \"#utility.yul\":11013:11022   */\n              dup4\n                /* \"#utility.yul\":11009:11026   */\n              add\n                /* \"#utility.yul\":11002:11049   */\n              mstore\n                /* \"#utility.yul\":11066:11194   */\n              tag_345\n                /* \"#utility.yul\":11189:11193   */\n              dup2\n                /* \"#utility.yul\":11180:11186   */\n              dup5\n                /* \"#utility.yul\":11066:11194   */\n              tag_206\n              jump\t// in\n            tag_345:\n                /* \"#utility.yul\":11058:11194   */\n              swap1\n              pop\n                /* \"#utility.yul\":10788:11201   */\n              swap3\n              swap2\n              pop\n              pop\n              jump\t// out\n                /* \"#utility.yul\":11207:11297   */\n            tag_207:\n                /* \"#utility.yul\":11241:11248   */\n              0x00\n                /* \"#utility.yul\":11284:11289   */\n              dup2\n                /* \"#utility.yul\":11277:11290   */\n              iszero\n                /* \"#utility.yul\":11270:11291   */\n              iszero\n                /* \"#utility.yul\":11259:11291   */\n              swap1\n              pop\n                /* \"#utility.yul\":11207:11297   */\n              swap2\n              swap1\n              pop\n              jump\t// out\n                /* \"#utility.yul\":11303:11412   */\n            tag_208:\n                /* \"#utility.yul\":11384:11405   */\n              tag_348\n                /* \"#utility.yul\":11399:11404   */\n              dup2\n                /* \"#utility.yul\":11384:11405   */\n              tag_207\n              jump\t// in\n            tag_348:\n                /* \"#utility.yul\":11379:11382   */\n              dup3\n                /* \"#utility.yul\":11372:11406   */\n              mstore\n                /* \"#utility.yul\":11303:11412   */\n              pop\n              pop\n              jump\t// out\n                /* \"#utility.yul\":11418:11628   */\n            tag_76:\n                /* \"#utility.yul\":11505:11509   */\n              0x00\n                /* \"#utility.yul\":11543:11545   */\n              0x20\n                /* \"#utility.yul\":11532:11541   */\n              dup3\n                /* \"#utility.yul\":11528:11546   */\n              add\n                /* \"#utility.yul\":11520:11546   */\n              swap1\n              pop\n                /* \"#utility.yul\":11556:11621   */\n              tag_350\n                /* \"#utility.yul\":11618:11619   */\n              0x00\n                /* \"#utility.yul\":11607:11616   */\n              dup4\n                /* \"#utility.yul\":11603:11620   */\n              add\n                /* \"#utility.yul\":11594:11600   */\n              dup5\n                /* \"#utility.yul\":11556:11621   */\n              tag_208\n              jump\t// in\n            tag_350:\n                /* \"#utility.yul\":11418:11628   */\n              swap3\n              swap2\n              pop\n              pop\n              jump\t// out\n                /* \"#utility.yul\":11634:11814   */\n            tag_209:\n                /* \"#utility.yul\":11682:11759   */\n              0x4e487b7100000000000000000000000000000000000000000000000000000000\n                /* \"#utility.yul\":11679:11680   */\n              0x00\n                /* \"#utility.yul\":11672:11760   */\n              mstore\n                /* \"#utility.yul\":11779:11783   */\n              0x22\n                /* \"#utility.yul\":11776:11777   */\n              0x04\n                /* \"#utility.yul\":11769:11784   */\n              mstore\n                /* \"#utility.yul\":11803:11807   */\n              0x24\n                /* \"#utility.yul\":11800:11801   */\n              0x00\n                /* \"#utility.yul\":11793:11808   */\n              revert\n                /* \"#utility.yul\":11820:12140   */\n            tag_87:\n                /* \"#utility.yul\":11864:11870   */\n              0x00\n                /* \"#utility.yul\":11901:11902   */\n              0x02\n                /* \"#utility.yul\":11895:11899   */\n              dup3\n                /* \"#utility.yul\":11891:11903   */\n              div\n                /* \"#utility.yul\":11881:11903   */\n              swap1\n              pop\n                /* \"#utility.yul\":11948:11949   */\n              0x01\n                /* \"#utility.yul\":11942:11946   */\n              dup3\n                /* \"#utility.yul\":11938:11950   */\n              and\n                /* \"#utility.yul\":11969:11987   */\n              dup1\n                /* \"#utility.yul\":11959:12040   */\n              tag_353\n              jumpi\n                /* \"#utility.yul\":12025:12029   */\n              0x7f\n                /* \"#utility.yul\":12017:12023   */\n              dup3\n                /* \"#utility.yul\":12013:12030   */\n              and\n                /* \"#utility.yul\":12003:12030   */\n              swap2\n              pop\n                /* \"#utility.yul\":11959:12040   */\n            tag_353:\n                /* \"#utility.yul\":12087:12089   */\n              0x20\n                /* \"#utility.yul\":12079:12085   */\n              dup3\n                /* \"#utility.yul\":12076:12090   */\n              lt\n                /* \"#utility.yul\":12056:12074   */\n              dup2\n                /* \"#utility.yul\":12053:12091   */\n              sub\n                /* \"#utility.yul\":12050:12134   */\n              tag_354\n              jumpi\n                /* \"#utility.yul\":12106:12124   */\n              tag_355\n              tag_209\n              jump\t// in\n            tag_355:\n                /* \"#utility.yul\":12050:12134   */\n            tag_354:\n                /* \"#utility.yul\":11871:12140   */\n              pop\n                /* \"#utility.yul\":11820:12140   */\n              swap2\n              swap1\n              pop\n              jump\t// out\n                /* \"#utility.yul\":12146:12320   */\n            tag_210:\n                /* \"#utility.yul\":12286:12312   */\n              0x526571756972656420746f2062652061206d656d656265720000000000000000\n                /* \"#utility.yul\":12282:12283   */\n              0x00\n                /* \"#utility.yul\":12274:12280   */\n              dup3\n                /* \"#utility.yul\":12270:12284   */\n              add\n                /* \"#utility.yul\":12263:12313   */\n              mstore\n                /* \"#utility.yul\":12146:12320   */\n              pop\n              jump\t// out\n                /* \"#utility.yul\":12326:12692   */\n            tag_211:\n                /* \"#utility.yul\":12468:12471   */\n              0x00\n                /* \"#utility.yul\":12489:12556   */\n              tag_358\n                /* \"#utility.yul\":12553:12555   */\n              0x18\n                /* \"#utility.yul\":12548:12551   */\n              dup4\n                /* \"#utility.yul\":12489:12556   */\n              tag_168\n              jump\t// in\n            tag_358:\n                /* \"#utility.yul\":12482:12556   */\n              swap2\n              pop\n                /* \"#utility.yul\":12565:12658   */\n              tag_359\n                /* \"#utility.yul\":12654:12657   */\n              dup3\n                /* \"#utility.yul\":12565:12658   */\n              tag_210\n              jump\t// in\n            tag_359:\n                /* \"#utility.yul\":12683:12685   */\n              0x20\n                /* \"#utility.yul\":12678:12681   */\n              dup3\n                /* \"#utility.yul\":12674:12686   */\n              add\n                /* \"#utility.yul\":12667:12686   */\n              swap1\n              pop\n                /* \"#utility.yul\":12326:12692   */\n              swap2\n              swap1\n              pop\n              jump\t// out\n                /* \"#utility.yul\":12698:13117   */\n            tag_96:\n                /* \"#utility.yul\":12864:12868   */\n              0x00\n                /* \"#utility.yul\":12902:12904   */\n              0x20\n                /* \"#utility.yul\":12891:12900   */\n              dup3\n                /* \"#utility.yul\":12887:12905   */\n              add\n                /* \"#utility.yul\":12879:12905   */\n              swap1\n              pop\n                /* \"#utility.yul\":12951:12960   */\n              dup2\n                /* \"#utility.yul\":12945:12949   */\n              dup2\n                /* \"#utility.yul\":12941:12961   */\n              sub\n                /* \"#utility.yul\":12937:12938   */\n              0x00\n                /* \"#utility.yul\":12926:12935   */\n              dup4\n                /* \"#utility.yul\":12922:12939   */\n              add\n                /* \"#utility.yul\":12915:12962   */\n              mstore\n                /* \"#utility.yul\":12979:13110   */\n              tag_361\n                /* \"#utility.yul\":13105:13109   */\n              dup2\n                /* \"#utility.yul\":12979:13110   */\n              tag_211\n              jump\t// in\n            tag_361:\n                /* \"#utility.yul\":12971:13110   */\n              swap1\n              pop\n                /* \"#utility.yul\":12698:13117   */\n              swap2\n              swap1\n              pop\n              jump\t// out\n                /* \"#utility.yul\":13123:13266   */\n            tag_212:\n                /* \"#utility.yul\":13180:13185   */\n              0x00\n                /* \"#utility.yul\":13211:13217   */\n              dup2\n                /* \"#utility.yul\":13205:13218   */\n              mload\n                /* \"#utility.yul\":13196:13218   */\n              swap1\n              pop\n                /* \"#utility.yul\":13227:13260   */\n              tag_363\n                /* \"#utility.yul\":13254:13259   */\n              dup2\n                /* \"#utility.yul\":13227:13260   */\n              tag_193\n              jump\t// in\n            tag_363:\n                /* \"#utility.yul\":13123:13266   */\n              swap3\n              swap2\n              pop\n              pop\n              jump\t// out\n                /* \"#utility.yul\":13272:13623   */\n            tag_107:\n                /* \"#utility.yul\":13342:13348   */\n              0x00\n                /* \"#utility.yul\":13391:13393   */\n              0x20\n                /* \"#utility.yul\":13379:13388   */\n              dup3\n                /* \"#utility.yul\":13370:13377   */\n              dup5\n                /* \"#utility.yul\":13366:13389   */\n              sub\n                /* \"#utility.yul\":13362:13394   */\n              slt\n                /* \"#utility.yul\":13359:13478   */\n              iszero\n              tag_365\n              jumpi\n                /* \"#utility.yul\":13397:13476   */\n              tag_366\n              tag_173\n              jump\t// in\n            tag_366:\n                /* \"#utility.yul\":13359:13478   */\n            tag_365:\n                /* \"#utility.yul\":13517:13518   */\n              0x00\n                /* \"#utility.yul\":13542:13606   */\n              tag_367\n                /* \"#utility.yul\":13598:13605   */\n              dup5\n                /* \"#utility.yul\":13589:13595   */\n              dup3\n                /* \"#utility.yul\":13578:13587   */\n              dup6\n                /* \"#utility.yul\":13574:13596   */\n              add\n                /* \"#utility.yul\":13542:13606   */\n              tag_212\n              jump\t// in\n            tag_367:\n                /* \"#utility.yul\":13532:13606   */\n              swap2\n              pop\n                /* \"#utility.yul\":13488:13616   */\n              pop\n                /* \"#utility.yul\":13272:13623   */\n              swap3\n              swap2\n              pop\n              pop\n              jump\t// out\n                /* \"#utility.yul\":13629:13798   */\n            tag_213:\n                /* \"#utility.yul\":13769:13790   */\n              0x546f20736f6f6e20746f20656e6420766f746500000000000000000000000000\n                /* \"#utility.yul\":13765:13766   */\n              0x00\n                /* \"#utility.yul\":13757:13763   */\n              dup3\n                /* \"#utility.yul\":13753:13767   */\n              add\n                /* \"#utility.yul\":13746:13791   */\n              mstore\n                /* \"#utility.yul\":13629:13798   */\n              pop\n              jump\t// out\n                /* \"#utility.yul\":13804:14170   */\n            tag_214:\n                /* \"#utility.yul\":13946:13949   */\n              0x00\n                /* \"#utility.yul\":13967:14034   */\n              tag_370\n                /* \"#utility.yul\":14031:14033   */\n              0x13\n                /* \"#utility.yul\":14026:14029   */\n              dup4\n                /* \"#utility.yul\":13967:14034   */\n              tag_168\n              jump\t// in\n            tag_370:\n                /* \"#utility.yul\":13960:14034   */\n              swap2\n              pop\n                /* \"#utility.yul\":14043:14136   */\n              tag_371\n                /* \"#utility.yul\":14132:14135   */\n              dup3\n                /* \"#utility.yul\":14043:14136   */\n              tag_213\n              jump\t// in\n            tag_371:\n                /* \"#utility.yul\":14161:14163   */\n              0x20\n                /* \"#utility.yul\":14156:14159   */\n              dup3\n                /* \"#utility.yul\":14152:14164   */\n              add\n                /* \"#utility.yul\":14145:14164   */\n              swap1\n              pop\n                /* \"#utility.yul\":13804:14170   */\n              swap2\n              swap1\n              pop\n              jump\t// out\n                /* \"#utility.yul\":14176:14595   */\n            tag_110:\n                /* \"#utility.yul\":14342:14346   */\n              0x00\n                /* \"#utility.yul\":14380:14382   */\n              0x20\n                /* \"#utility.yul\":14369:14378   */\n              dup3\n                /* \"#utility.yul\":14365:14383   */\n              add\n                /* \"#utility.yul\":14357:14383   */\n              swap1\n              pop\n                /* \"#utility.yul\":14429:14438   */\n              dup2\n                /* \"#utility.yul\":14423:14427   */\n              dup2\n                /* \"#utility.yul\":14419:14439   */\n              sub\n                /* \"#utility.yul\":14415:14416   */\n              0x00\n                /* \"#utility.yul\":14404:14413   */\n              dup4\n                /* \"#utility.yul\":14400:14417   */\n              add\n                /* \"#utility.yul\":14393:14440   */\n              mstore\n                /* \"#utility.yul\":14457:14588   */\n              tag_373\n                /* \"#utility.yul\":14583:14587   */\n              dup2\n                /* \"#utility.yul\":14457:14588   */\n              tag_214\n              jump\t// in\n            tag_373:\n                /* \"#utility.yul\":14449:14588   */\n              swap1\n              pop\n                /* \"#utility.yul\":14176:14595   */\n              swap2\n              swap1\n              pop\n              jump\t// out\n                /* \"#utility.yul\":14601:14781   */\n            tag_215:\n                /* \"#utility.yul\":14649:14726   */\n              0x4e487b7100000000000000000000000000000000000000000000000000000000\n                /* \"#utility.yul\":14646:14647   */\n              0x00\n                /* \"#utility.yul\":14639:14727   */\n              mstore\n                /* \"#utility.yul\":14746:14750   */\n              0x12\n                /* \"#utility.yul\":14743:14744   */\n              0x04\n                /* \"#utility.yul\":14736:14751   */\n              mstore\n                /* \"#utility.yul\":14770:14774   */\n              0x24\n                /* \"#utility.yul\":14767:14768   */\n              0x00\n                /* \"#utility.yul\":14760:14775   */\n              revert\n                /* \"#utility.yul\":14787:14967   */\n            tag_216:\n                /* \"#utility.yul\":14835:14912   */\n              0x4e487b7100000000000000000000000000000000000000000000000000000000\n                /* \"#utility.yul\":14832:14833   */\n              0x00\n                /* \"#utility.yul\":14825:14913   */\n              mstore\n                /* \"#utility.yul\":14932:14936   */\n              0x11\n                /* \"#utility.yul\":14929:14930   */\n              0x04\n                /* \"#utility.yul\":14922:14937   */\n              mstore\n                /* \"#utility.yul\":14956:14960   */\n              0x24\n                /* \"#utility.yul\":14953:14954   */\n              0x00\n                /* \"#utility.yul\":14946:14961   */\n              revert\n                /* \"#utility.yul\":14973:15158   */\n            tag_117:\n                /* \"#utility.yul\":15013:15014   */\n              0x00\n                /* \"#utility.yul\":15030:15050   */\n              tag_377\n                /* \"#utility.yul\":15048:15049   */\n              dup3\n                /* \"#utility.yul\":15030:15050   */\n              tag_192\n              jump\t// in\n            tag_377:\n                /* \"#utility.yul\":15025:15050   */\n              swap2\n              pop\n                /* \"#utility.yul\":15064:15084   */\n              tag_378\n                /* \"#utility.yul\":15082:15083   */\n              dup4\n                /* \"#utility.yul\":15064:15084   */\n              tag_192\n              jump\t// in\n            tag_378:\n                /* \"#utility.yul\":15059:15084   */\n              swap3\n              pop\n                /* \"#utility.yul\":15103:15104   */\n              dup3\n                /* \"#utility.yul\":15093:15128   */\n              tag_379\n              jumpi\n                /* \"#utility.yul\":15108:15126   */\n              tag_380\n              tag_215\n              jump\t// in\n            tag_380:\n                /* \"#utility.yul\":15093:15128   */\n            tag_379:\n                /* \"#utility.yul\":15150:15151   */\n              dup3\n                /* \"#utility.yul\":15147:15148   */\n              dup3\n                /* \"#utility.yul\":15143:15152   */\n              div\n                /* \"#utility.yul\":15138:15152   */\n              swap1\n              pop\n                /* \"#utility.yul\":14973:15158   */\n              swap3\n              swap2\n              pop\n              pop\n              jump\t// out\n                /* \"#utility.yul\":15164:15574   */\n            tag_119:\n                /* \"#utility.yul\":15204:15211   */\n              0x00\n                /* \"#utility.yul\":15227:15247   */\n              tag_382\n                /* \"#utility.yul\":15245:15246   */\n              dup3\n                /* \"#utility.yul\":15227:15247   */\n              tag_192\n              jump\t// in\n            tag_382:\n                /* \"#utility.yul\":15222:15247   */\n              swap2\n              pop\n                /* \"#utility.yul\":15261:15281   */\n              tag_383\n                /* \"#utility.yul\":15279:15280   */\n              dup4\n                /* \"#utility.yul\":15261:15281   */\n              tag_192\n              jump\t// in\n            tag_383:\n                /* \"#utility.yul\":15256:15281   */\n              swap3\n              pop\n                /* \"#utility.yul\":15316:15317   */\n              dup3\n                /* \"#utility.yul\":15313:15314   */\n              dup3\n                /* \"#utility.yul\":15309:15318   */\n              mul\n                /* \"#utility.yul\":15338:15368   */\n              tag_384\n                /* \"#utility.yul\":15356:15367   */\n              dup2\n                /* \"#utility.yul\":15338:15368   */\n              tag_192\n              jump\t// in\n            tag_384:\n                /* \"#utility.yul\":15327:15368   */\n              swap2\n              pop\n                /* \"#utility.yul\":15517:15518   */\n              dup3\n                /* \"#utility.yul\":15508:15515   */\n              dup3\n                /* \"#utility.yul\":15504:15519   */\n              div\n                /* \"#utility.yul\":15501:15502   */\n              dup5\n                /* \"#utility.yul\":15498:15520   */\n              eq\n                /* \"#utility.yul\":15478:15479   */\n              dup4\n                /* \"#utility.yul\":15471:15480   */\n              iszero\n                /* \"#utility.yul\":15451:15534   */\n              or\n                /* \"#utility.yul\":15428:15567   */\n              tag_385\n              jumpi\n                /* \"#utility.yul\":15547:15565   */\n              tag_386\n              tag_216\n              jump\t// in\n            tag_386:\n                /* \"#utility.yul\":15428:15567   */\n            tag_385:\n                /* \"#utility.yul\":15212:15574   */\n              pop\n                /* \"#utility.yul\":15164:15574   */\n              swap3\n              swap2\n              pop\n              pop\n              jump\t// out\n                /* \"#utility.yul\":15580:15802   */\n            tag_217:\n                /* \"#utility.yul\":15720:15754   */\n              0x496e76616c6964206e756d626572206f6620766f746573206f722070726f6365\n                /* \"#utility.yul\":15716:15717   */\n              0x00\n                /* \"#utility.yul\":15708:15714   */\n              dup3\n                /* \"#utility.yul\":15704:15718   */\n              add\n                /* \"#utility.yul\":15697:15755   */\n              mstore\n                /* \"#utility.yul\":15789:15794   */\n              0x65642e0000000000000000000000000000000000000000000000000000000000\n                /* \"#utility.yul\":15784:15786   */\n              0x20\n                /* \"#utility.yul\":15776:15782   */\n              dup3\n                /* \"#utility.yul\":15772:15787   */\n              add\n                /* \"#utility.yul\":15765:15795   */\n              mstore\n                /* \"#utility.yul\":15580:15802   */\n              pop\n              jump\t// out\n                /* \"#utility.yul\":15808:16174   */\n            tag_218:\n                /* \"#utility.yul\":15950:15953   */\n              0x00\n                /* \"#utility.yul\":15971:16038   */\n              tag_389\n                /* \"#utility.yul\":16035:16037   */\n              0x23\n                /* \"#utility.yul\":16030:16033   */\n              dup4\n                /* \"#utility.yul\":15971:16038   */\n              tag_168\n              jump\t// in\n            tag_389:\n                /* \"#utility.yul\":15964:16038   */\n              swap2\n              pop\n                /* \"#utility.yul\":16047:16140   */\n              tag_390\n                /* \"#utility.yul\":16136:16139   */\n              dup3\n                /* \"#utility.yul\":16047:16140   */\n              tag_217\n              jump\t// in\n            tag_390:\n                /* \"#utility.yul\":16165:16167   */\n              0x40\n                /* \"#utility.yul\":16160:16163   */\n              dup3\n                /* \"#utility.yul\":16156:16168   */\n              add\n                /* \"#utility.yul\":16149:16168   */\n              swap1\n              pop\n                /* \"#utility.yul\":15808:16174   */\n              swap2\n              swap1\n              pop\n              jump\t// out\n                /* \"#utility.yul\":16180:16599   */\n            tag_122:\n                /* \"#utility.yul\":16346:16350   */\n              0x00\n                /* \"#utility.yul\":16384:16386   */\n              0x20\n                /* \"#utility.yul\":16373:16382   */\n              dup3\n                /* \"#utility.yul\":16369:16387   */\n              add\n                /* \"#utility.yul\":16361:16387   */\n              swap1\n              pop\n                /* \"#utility.yul\":16433:16442   */\n              dup2\n                /* \"#utility.yul\":16427:16431   */\n              dup2\n                /* \"#utility.yul\":16423:16443   */\n              sub\n                /* \"#utility.yul\":16419:16420   */\n              0x00\n                /* \"#utility.yul\":16408:16417   */\n              dup4\n                /* \"#utility.yul\":16404:16421   */\n              add\n                /* \"#utility.yul\":16397:16444   */\n              mstore\n                /* \"#utility.yul\":16461:16592   */\n              tag_392\n                /* \"#utility.yul\":16587:16591   */\n              dup2\n                /* \"#utility.yul\":16461:16592   */\n              tag_218\n              jump\t// in\n            tag_392:\n                /* \"#utility.yul\":16453:16592   */\n              swap1\n              pop\n                /* \"#utility.yul\":16180:16599   */\n              swap2\n              swap1\n              pop\n              jump\t// out\n                /* \"#utility.yul\":16605:16785   */\n            tag_219:\n                /* \"#utility.yul\":16653:16730   */\n              0x4e487b7100000000000000000000000000000000000000000000000000000000\n                /* \"#utility.yul\":16650:16651   */\n              0x00\n                /* \"#utility.yul\":16643:16731   */\n              mstore\n                /* \"#utility.yul\":16750:16754   */\n              0x41\n                /* \"#utility.yul\":16747:16748   */\n              0x04\n                /* \"#utility.yul\":16740:16755   */\n              mstore\n                /* \"#utility.yul\":16774:16778   */\n              0x24\n                /* \"#utility.yul\":16771:16772   */\n              0x00\n                /* \"#utility.yul\":16764:16779   */\n              revert\n                /* \"#utility.yul\":16791:17072   */\n            tag_220:\n                /* \"#utility.yul\":16874:16901   */\n              tag_395\n                /* \"#utility.yul\":16896:16900   */\n              dup3\n                /* \"#utility.yul\":16874:16901   */\n              tag_170\n              jump\t// in\n            tag_395:\n                /* \"#utility.yul\":16866:16872   */\n              dup2\n                /* \"#utility.yul\":16862:16902   */\n              add\n                /* \"#utility.yul\":17004:17010   */\n              dup2\n                /* \"#utility.yul\":16992:17002   */\n              dup2\n                /* \"#utility.yul\":16989:17011   */\n              lt\n                /* \"#utility.yul\":16968:16986   */\n              0xffffffffffffffff\n                /* \"#utility.yul\":16956:16966   */\n              dup3\n                /* \"#utility.yul\":16953:16987   */\n              gt\n                /* \"#utility.yul\":16950:17012   */\n              or\n                /* \"#utility.yul\":16947:17035   */\n              iszero\n              tag_396\n              jumpi\n                /* \"#utility.yul\":17015:17033   */\n              tag_397\n              tag_219\n              jump\t// in\n            tag_397:\n                /* \"#utility.yul\":16947:17035   */\n            tag_396:\n                /* \"#utility.yul\":17055:17065   */\n              dup1\n                /* \"#utility.yul\":17051:17053   */\n              0x40\n                /* \"#utility.yul\":17044:17066   */\n              mstore\n                /* \"#utility.yul\":16834:17072   */\n              pop\n                /* \"#utility.yul\":16791:17072   */\n              pop\n              pop\n              jump\t// out\n                /* \"#utility.yul\":17078:17207   */\n            tag_221:\n                /* \"#utility.yul\":17112:17118   */\n              0x00\n                /* \"#utility.yul\":17139:17159   */\n              tag_399\n              tag_172\n              jump\t// in\n            tag_399:\n                /* \"#utility.yul\":17129:17159   */\n              swap1\n              pop\n                /* \"#utility.yul\":17168:17201   */\n              tag_400\n                /* \"#utility.yul\":17196:17200   */\n              dup3\n                /* \"#utility.yul\":17188:17194   */\n              dup3\n                /* \"#utility.yul\":17168:17201   */\n              tag_220\n              jump\t// in\n            tag_400:\n                /* \"#utility.yul\":17078:17207   */\n              swap2\n              swap1\n              pop\n              jump\t// out\n                /* \"#utility.yul\":17213:17524   */\n            tag_222:\n                /* \"#utility.yul\":17290:17294   */\n              0x00\n                /* \"#utility.yul\":17380:17398   */\n              0xffffffffffffffff\n                /* \"#utility.yul\":17372:17378   */\n              dup3\n                /* \"#utility.yul\":17369:17399   */\n              gt\n                /* \"#utility.yul\":17366:17422   */\n              iszero\n              tag_402\n              jumpi\n                /* \"#utility.yul\":17402:17420   */\n              tag_403\n              tag_219\n              jump\t// in\n            tag_403:\n                /* \"#utility.yul\":17366:17422   */\n            tag_402:\n                /* \"#utility.yul\":17452:17456   */\n              0x20\n                /* \"#utility.yul\":17444:17450   */\n              dup3\n                /* \"#utility.yul\":17440:17457   */\n              mul\n                /* \"#utility.yul\":17432:17457   */\n              swap1\n              pop\n                /* \"#utility.yul\":17512:17516   */\n              0x20\n                /* \"#utility.yul\":17506:17510   */\n              dup2\n                /* \"#utility.yul\":17502:17517   */\n              add\n                /* \"#utility.yul\":17494:17517   */\n              swap1\n              pop\n                /* \"#utility.yul\":17213:17524   */\n              swap2\n              swap1\n              pop\n              jump\t// out\n                /* \"#utility.yul\":17530:17673   */\n            tag_223:\n                /* \"#utility.yul\":17587:17592   */\n              0x00\n                /* \"#utility.yul\":17618:17624   */\n              dup2\n                /* \"#utility.yul\":17612:17625   */\n              mload\n                /* \"#utility.yul\":17603:17625   */\n              swap1\n              pop\n                /* \"#utility.yul\":17634:17667   */\n              tag_405\n                /* \"#utility.yul\":17661:17666   */\n              dup2\n                /* \"#utility.yul\":17634:17667   */\n              tag_177\n              jump\t// in\n            tag_405:\n                /* \"#utility.yul\":17530:17673   */\n              swap3\n              swap2\n              pop\n              pop\n              jump\t// out\n                /* \"#utility.yul\":17696:18428   */\n            tag_224:\n                /* \"#utility.yul\":17803:17808   */\n              0x00\n                /* \"#utility.yul\":17828:17909   */\n              tag_407\n                /* \"#utility.yul\":17844:17908   */\n              tag_408\n                /* \"#utility.yul\":17901:17907   */\n              dup5\n                /* \"#utility.yul\":17844:17908   */\n              tag_222\n              jump\t// in\n            tag_408:\n                /* \"#utility.yul\":17828:17909   */\n              tag_221\n              jump\t// in\n            tag_407:\n                /* \"#utility.yul\":17819:17909   */\n              swap1\n              pop\n                /* \"#utility.yul\":17929:17934   */\n              dup1\n                /* \"#utility.yul\":17958:17964   */\n              dup4\n                /* \"#utility.yul\":17951:17956   */\n              dup3\n                /* \"#utility.yul\":17944:17965   */\n              mstore\n                /* \"#utility.yul\":17992:17996   */\n              0x20\n                /* \"#utility.yul\":17985:17990   */\n              dup3\n                /* \"#utility.yul\":17981:17997   */\n              add\n                /* \"#utility.yul\":17974:17997   */\n              swap1\n              pop\n                /* \"#utility.yul\":18045:18049   */\n              0x20\n                /* \"#utility.yul\":18037:18043   */\n              dup5\n                /* \"#utility.yul\":18033:18050   */\n              mul\n                /* \"#utility.yul\":18025:18031   */\n              dup4\n                /* \"#utility.yul\":18021:18051   */\n              add\n                /* \"#utility.yul\":18074:18077   */\n              dup6\n                /* \"#utility.yul\":18066:18072   */\n              dup2\n                /* \"#utility.yul\":18063:18078   */\n              gt\n                /* \"#utility.yul\":18060:18182   */\n              iszero\n              tag_409\n              jumpi\n                /* \"#utility.yul\":18093:18172   */\n              tag_410\n              tag_183\n              jump\t// in\n            tag_410:\n                /* \"#utility.yul\":18060:18182   */\n            tag_409:\n                /* \"#utility.yul\":18208:18214   */\n              dup4\n                /* \"#utility.yul\":18191:18422   */\n            tag_411:\n                /* \"#utility.yul\":18225:18231   */\n              dup2\n                /* \"#utility.yul\":18220:18223   */\n              dup2\n                /* \"#utility.yul\":18217:18232   */\n              lt\n                /* \"#utility.yul\":18191:18422   */\n              iszero\n              tag_413\n              jumpi\n                /* \"#utility.yul\":18300:18303   */\n              dup1\n                /* \"#utility.yul\":18329:18377   */\n              tag_414\n                /* \"#utility.yul\":18373:18376   */\n              dup9\n                /* \"#utility.yul\":18361:18371   */\n              dup3\n                /* \"#utility.yul\":18329:18377   */\n              tag_223\n              jump\t// in\n            tag_414:\n                /* \"#utility.yul\":18324:18327   */\n              dup5\n                /* \"#utility.yul\":18317:18378   */\n              mstore\n                /* \"#utility.yul\":18407:18411   */\n              0x20\n                /* \"#utility.yul\":18402:18405   */\n              dup5\n                /* \"#utility.yul\":18398:18412   */\n              add\n                /* \"#utility.yul\":18391:18412   */\n              swap4\n              pop\n                /* \"#utility.yul\":18267:18422   */\n              pop\n                /* \"#utility.yul\":18251:18255   */\n              0x20\n                /* \"#utility.yul\":18246:18249   */\n              dup2\n                /* \"#utility.yul\":18242:18256   */\n              add\n                /* \"#utility.yul\":18235:18256   */\n              swap1\n              pop\n                /* \"#utility.yul\":18191:18422   */\n              jump(tag_411)\n            tag_413:\n                /* \"#utility.yul\":18195:18216   */\n              pop\n                /* \"#utility.yul\":17809:18428   */\n              pop\n              pop\n                /* \"#utility.yul\":17696:18428   */\n              swap4\n              swap3\n              pop\n              pop\n              pop\n              jump\t// out\n                /* \"#utility.yul\":18451:18836   */\n            tag_225:\n                /* \"#utility.yul\":18533:18538   */\n              0x00\n                /* \"#utility.yul\":18582:18585   */\n              dup3\n                /* \"#utility.yul\":18575:18579   */\n              0x1f\n                /* \"#utility.yul\":18567:18573   */\n              dup4\n                /* \"#utility.yul\":18563:18580   */\n              add\n                /* \"#utility.yul\":18559:18586   */\n              slt\n                /* \"#utility.yul\":18549:18671   */\n              tag_416\n              jumpi\n                /* \"#utility.yul\":18590:18669   */\n              tag_417\n              tag_181\n              jump\t// in\n            tag_417:\n                /* \"#utility.yul\":18549:18671   */\n            tag_416:\n                /* \"#utility.yul\":18700:18706   */\n              dup2\n                /* \"#utility.yul\":18694:18707   */\n              mload\n                /* \"#utility.yul\":18725:18830   */\n              tag_418\n                /* \"#utility.yul\":18826:18829   */\n              dup5\n                /* \"#utility.yul\":18818:18824   */\n              dup3\n                /* \"#utility.yul\":18811:18815   */\n              0x20\n                /* \"#utility.yul\":18803:18809   */\n              dup7\n                /* \"#utility.yul\":18799:18816   */\n              add\n                /* \"#utility.yul\":18725:18830   */\n              tag_224\n              jump\t// in\n            tag_418:\n                /* \"#utility.yul\":18716:18830   */\n              swap2\n              pop\n                /* \"#utility.yul\":18539:18836   */\n              pop\n                /* \"#utility.yul\":18451:18836   */\n              swap3\n              swap2\n              pop\n              pop\n              jump\t// out\n                /* \"#utility.yul\":18842:19396   */\n            tag_135:\n                /* \"#utility.yul\":18937:18943   */\n              0x00\n                /* \"#utility.yul\":18986:18988   */\n              0x20\n                /* \"#utility.yul\":18974:18983   */\n              dup3\n                /* \"#utility.yul\":18965:18972   */\n              dup5\n                /* \"#utility.yul\":18961:18984   */\n              sub\n                /* \"#utility.yul\":18957:18989   */\n              slt\n                /* \"#utility.yul\":18954:19073   */\n              iszero\n              tag_420\n              jumpi\n                /* \"#utility.yul\":18992:19071   */\n              tag_421\n              tag_173\n              jump\t// in\n            tag_421:\n                /* \"#utility.yul\":18954:19073   */\n            tag_420:\n                /* \"#utility.yul\":19133:19134   */\n              0x00\n                /* \"#utility.yul\":19122:19131   */\n              dup3\n                /* \"#utility.yul\":19118:19135   */\n              add\n                /* \"#utility.yul\":19112:19136   */\n              mload\n                /* \"#utility.yul\":19163:19181   */\n              0xffffffffffffffff\n                /* \"#utility.yul\":19155:19161   */\n              dup2\n                /* \"#utility.yul\":19152:19182   */\n              gt\n                /* \"#utility.yul\":19149:19266   */\n              iszero\n              tag_422\n              jumpi\n                /* \"#utility.yul\":19185:19264   */\n              tag_423\n              tag_174\n              jump\t// in\n            tag_423:\n                /* \"#utility.yul\":19149:19266   */\n            tag_422:\n                /* \"#utility.yul\":19290:19379   */\n              tag_424\n                /* \"#utility.yul\":19371:19378   */\n              dup5\n                /* \"#utility.yul\":19362:19368   */\n              dup3\n                /* \"#utility.yul\":19351:19360   */\n              dup6\n                /* \"#utility.yul\":19347:19369   */\n              add\n                /* \"#utility.yul\":19290:19379   */\n              tag_225\n              jump\t// in\n            tag_424:\n                /* \"#utility.yul\":19280:19379   */\n              swap2\n              pop\n                /* \"#utility.yul\":19083:19389   */\n              pop\n                /* \"#utility.yul\":18842:19396   */\n              swap3\n              swap2\n              pop\n              pop\n              jump\t// out\n                /* \"#utility.yul\":19402:19565   */\n            tag_226:\n                /* \"#utility.yul\":19542:19557   */\n              0x416c726561647920766f74656400000000000000000000000000000000000000\n                /* \"#utility.yul\":19538:19539   */\n              0x00\n                /* \"#utility.yul\":19530:19536   */\n              dup3\n                /* \"#utility.yul\":19526:19540   */\n              add\n                /* \"#utility.yul\":19519:19558   */\n              mstore\n                /* \"#utility.yul\":19402:19565   */\n              pop\n              jump\t// out\n                /* \"#utility.yul\":19571:19937   */\n            tag_227:\n                /* \"#utility.yul\":19713:19716   */\n              0x00\n                /* \"#utility.yul\":19734:19801   */\n              tag_427\n                /* \"#utility.yul\":19798:19800   */\n              0x0d\n                /* \"#utility.yul\":19793:19796   */\n              dup4\n                /* \"#utility.yul\":19734:19801   */\n              tag_168\n              jump\t// in\n            tag_427:\n                /* \"#utility.yul\":19727:19801   */\n              swap2\n              pop\n                /* \"#utility.yul\":19810:19903   */\n              tag_428\n                /* \"#utility.yul\":19899:19902   */\n              dup3\n                /* \"#utility.yul\":19810:19903   */\n              tag_226\n              jump\t// in\n            tag_428:\n                /* \"#utility.yul\":19928:19930   */\n              0x20\n                /* \"#utility.yul\":19923:19926   */\n              dup3\n                /* \"#utility.yul\":19919:19931   */\n              add\n                /* \"#utility.yul\":19912:19931   */\n              swap1\n              pop\n                /* \"#utility.yul\":19571:19937   */\n              swap2\n              swap1\n              pop\n              jump\t// out\n                /* \"#utility.yul\":19943:20362   */\n            tag_143:\n                /* \"#utility.yul\":20109:20113   */\n              0x00\n                /* \"#utility.yul\":20147:20149   */\n              0x20\n                /* \"#utility.yul\":20136:20145   */\n              dup3\n                /* \"#utility.yul\":20132:20150   */\n              add\n                /* \"#utility.yul\":20124:20150   */\n              swap1\n              pop\n                /* \"#utility.yul\":20196:20205   */\n              dup2\n                /* \"#utility.yul\":20190:20194   */\n              dup2\n                /* \"#utility.yul\":20186:20206   */\n              sub\n                /* \"#utility.yul\":20182:20183   */\n              0x00\n                /* \"#utility.yul\":20171:20180   */\n              dup4\n                /* \"#utility.yul\":20167:20184   */\n              add\n                /* \"#utility.yul\":20160:20207   */\n              mstore\n                /* \"#utility.yul\":20224:20355   */\n              tag_430\n                /* \"#utility.yul\":20350:20354   */\n              dup2\n                /* \"#utility.yul\":20224:20355   */\n              tag_227\n              jump\t// in\n            tag_430:\n                /* \"#utility.yul\":20216:20355   */\n              swap1\n              pop\n                /* \"#utility.yul\":19943:20362   */\n              swap2\n              swap1\n              pop\n              jump\t// out\n                /* \"#utility.yul\":20368:20444   */\n            tag_228:\n                /* \"#utility.yul\":20404:20411   */\n              0x00\n                /* \"#utility.yul\":20433:20438   */\n              dup2\n                /* \"#utility.yul\":20422:20438   */\n              swap1\n              pop\n                /* \"#utility.yul\":20368:20444   */\n              swap2\n              swap1\n              pop\n              jump\t// out\n                /* \"#utility.yul\":20450:20825   */\n            tag_145:\n                /* \"#utility.yul\":20489:20492   */\n              0x00\n                /* \"#utility.yul\":20508:20527   */\n              tag_433\n                /* \"#utility.yul\":20525:20526   */\n              dup3\n                /* \"#utility.yul\":20508:20527   */\n              tag_228\n              jump\t// in\n            tag_433:\n                /* \"#utility.yul\":20503:20527   */\n              swap2\n              pop\n                /* \"#utility.yul\":20541:20560   */\n              tag_434\n                /* \"#utility.yul\":20558:20559   */\n              dup4\n                /* \"#utility.yul\":20541:20560   */\n              tag_228\n              jump\t// in\n            tag_434:\n                /* \"#utility.yul\":20536:20560   */\n              swap3\n              pop\n                /* \"#utility.yul\":20583:20584   */\n              dup3\n                /* \"#utility.yul\":20580:20581   */\n              dup3\n                /* \"#utility.yul\":20576:20585   */\n              add\n                /* \"#utility.yul\":20569:20585   */\n              swap1\n              pop\n                /* \"#utility.yul\":20781:20782   */\n              dup3\n                /* \"#utility.yul\":20776:20779   */\n              dup2\n                /* \"#utility.yul\":20772:20783   */\n              slt\n                /* \"#utility.yul\":20765:20784   */\n              iszero\n                /* \"#utility.yul\":20761:20762   */\n              0x00\n                /* \"#utility.yul\":20758:20759   */\n              dup4\n                /* \"#utility.yul\":20754:20763   */\n              slt\n                /* \"#utility.yul\":20750:20785   */\n              and\n                /* \"#utility.yul\":20733:20734   */\n              dup4\n                /* \"#utility.yul\":20728:20731   */\n              dup3\n                /* \"#utility.yul\":20724:20735   */\n              slt\n                /* \"#utility.yul\":20719:20720   */\n              0x00\n                /* \"#utility.yul\":20716:20717   */\n              dup5\n                /* \"#utility.yul\":20712:20721   */\n              slt\n                /* \"#utility.yul\":20705:20722   */\n              iszero\n                /* \"#utility.yul\":20701:20736   */\n              and\n                /* \"#utility.yul\":20685:20795   */\n              or\n                /* \"#utility.yul\":20682:20818   */\n              iszero\n              tag_435\n              jumpi\n                /* \"#utility.yul\":20798:20816   */\n              tag_436\n              tag_216\n              jump\t// in\n            tag_436:\n                /* \"#utility.yul\":20682:20818   */\n            tag_435:\n                /* \"#utility.yul\":20450:20825   */\n              swap3\n              swap2\n              pop\n              pop\n              jump\t// out\n\n            auxdata: 0xa2646970667358221220713ff1d24a2dde2f1c9b87753c42c9e19fdc2d1d58f9a050bfc5341706a6b1a664736f6c63430008110033\n        }\n    }\n\n    auxdata: 0xa2646970667358221220d4d29e112011ea31a7d1915c47bf259426d0a50cdb8a0c2d332079df4dfb79a764736f6c63430008110033\n}\n\nsub_1: assembly {\n        /* \"MemberMap.sol\":66:3035  contract MemberMap {... */\n      mstore(0x40, 0x80)\n      callvalue\n      dup1\n      iszero\n      tag_1\n      jumpi\n      0x00\n      dup1\n      revert\n    tag_1:\n      pop\n      dataSize(sub_0)\n      dup1\n      dataOffset(sub_0)\n      0x00\n      codecopy\n      0x00\n      return\n    stop\n\n    sub_0: assembly {\n            /* \"MemberMap.sol\":66:3035  contract MemberMap {... */\n          mstore(0x40, 0x80)\n          callvalue\n          dup1\n          iszero\n          tag_1\n          jumpi\n          0x00\n          dup1\n          revert\n        tag_1:\n          pop\n          jumpi(tag_2, lt(calldatasize, 0x04))\n          shr(0xe0, calldataload(0x00))\n          dup1\n          0x84d0cbe3\n          gt\n          tag_24\n          jumpi\n          dup1\n          0xd5b03649\n          gt\n          tag_25\n          jumpi\n          dup1\n          0xd5b03649\n          eq\n          tag_18\n          jumpi\n          dup1\n          0xe86c24f9\n          eq\n          tag_19\n          jumpi\n          dup1\n          0xec3140a3\n          eq\n          tag_20\n          jumpi\n          dup1\n          0xf9819d8e\n          eq\n          tag_21\n          jumpi\n          dup1\n          0xf9ab2eff\n          eq\n          tag_22\n          jumpi\n          dup1\n          0xfadd65c3\n          eq\n          tag_23\n          jumpi\n          jump(tag_2)\n        tag_25:\n          dup1\n          0x84d0cbe3\n          eq\n          tag_13\n          jumpi\n          dup1\n          0x9457740a\n          eq\n          tag_14\n          jumpi\n          dup1\n          0x9d58b15d\n          eq\n          tag_15\n          jumpi\n          dup1\n          0xac4afa38\n          eq\n          tag_16\n          jumpi\n          dup1\n          0xba63a9f0\n          eq\n          tag_17\n          jumpi\n          jump(tag_2)\n        tag_24:\n          dup1\n          0x6997b953\n          gt\n          tag_26\n          jumpi\n          dup1\n          0x6997b953\n          eq\n          tag_8\n          jumpi\n          dup1\n          0x6c607516\n          eq\n          tag_9\n          jumpi\n          dup1\n          0x6e7f56f8\n          eq\n          tag_10\n          jumpi\n          dup1\n          0x75838862\n          eq\n          tag_11\n          jumpi\n          dup1\n          0x7a9b7c35\n          eq\n          tag_12\n          jumpi\n          jump(tag_2)\n        tag_26:\n          dup1\n          0x1875c639\n          eq\n          tag_3\n          jumpi\n          dup1\n          0x39ac7a08\n          eq\n          tag_4\n          jumpi\n          dup1\n          0x3a685930\n          eq\n          tag_5\n          jumpi\n          dup1\n          0x4c2587d4\n          eq\n          tag_6\n          jumpi\n          dup1\n          0x57b70767\n          eq\n          tag_7\n          jumpi\n        tag_2:\n          0x00\n          dup1\n          revert\n            /* \"MemberMap.sol\":215:266  mapping(address => address[]) public memberProjects */\n        tag_3:\n          tag_27\n          0x04\n          dup1\n          calldatasize\n          sub\n          dup2\n          add\n          swap1\n          tag_28\n          swap2\n          swap1\n          tag_29\n          jump\t// in\n        tag_28:\n          tag_30\n          jump\t// in\n        tag_27:\n          mload(0x40)\n          tag_31\n          swap2\n          swap1\n          tag_32\n          jump\t// in\n        tag_31:\n          mload(0x40)\n          dup1\n          swap2\n          sub\n          swap1\n          return\n            /* \"MemberMap.sol\":1104:1272  function isMember(address member, address memberPool)... */\n        tag_4:\n          tag_33\n          0x04\n          dup1\n          calldatasize\n          sub\n          dup2\n          add\n          swap1\n          tag_34\n          swap2\n          swap1\n          tag_35\n          jump\t// in\n        tag_34:\n          tag_36\n          jump\t// in\n        tag_33:\n          mload(0x40)\n          tag_37\n          swap2\n          swap1\n          tag_38\n          jump\t// in\n        tag_37:\n          mload(0x40)\n          dup1\n          swap2\n          sub\n          swap1\n          return\n            /* \"MemberMap.sol\":92:153  mapping(address => mapping(address => bool)) public memberMap */\n        tag_5:\n          tag_39\n          0x04\n          dup1\n          calldatasize\n          sub\n          dup2\n          add\n          swap1\n          tag_40\n          swap2\n          swap1\n          tag_35\n          jump\t// in\n        tag_40:\n          tag_41\n          jump\t// in\n        tag_39:\n          mload(0x40)\n          tag_42\n          swap2\n          swap1\n          tag_38\n          jump\t// in\n        tag_42:\n          mload(0x40)\n          dup1\n          swap2\n          sub\n          swap1\n          return\n            /* \"MemberMap.sol\":1473:1594  function addMemberProject(address member, address project) public {... */\n        tag_6:\n          tag_43\n          0x04\n          dup1\n          calldatasize\n          sub\n          dup2\n          add\n          swap1\n          tag_44\n          swap2\n          swap1\n          tag_35\n          jump\t// in\n        tag_44:\n          tag_45\n          jump\t// in\n        tag_43:\n          stop\n            /* \"MemberMap.sol\":160:208  mapping(address => address[]) public memberPools */\n        tag_7:\n          tag_46\n          0x04\n          dup1\n          calldatasize\n          sub\n          dup2\n          add\n          swap1\n          tag_47\n          swap2\n          swap1\n          tag_29\n          jump\t// in\n        tag_47:\n          tag_48\n          jump\t// in\n        tag_46:\n          mload(0x40)\n          tag_49\n          swap2\n          swap1\n          tag_32\n          jump\t// in\n        tag_49:\n          mload(0x40)\n          dup1\n          swap2\n          sub\n          swap1\n          return\n            /* \"MemberMap.sol\":2316:2492  function getStakeholderProposals(address account)... */\n        tag_8:\n          tag_50\n          0x04\n          dup1\n          calldatasize\n          sub\n          dup2\n          add\n          swap1\n          tag_51\n          swap2\n          swap1\n          tag_52\n          jump\t// in\n        tag_51:\n          tag_53\n          jump\t// in\n        tag_50:\n          mload(0x40)\n          tag_54\n          swap2\n          swap1\n          tag_55\n          jump\t// in\n        tag_54:\n          mload(0x40)\n          dup1\n          swap2\n          sub\n          swap1\n          return\n            /* \"MemberMap.sol\":348:405  mapping(address => address[]) public stakeholderProposals */\n        tag_9:\n          tag_56\n          0x04\n          dup1\n          calldatasize\n          sub\n          dup2\n          add\n          swap1\n          tag_57\n          swap2\n          swap1\n          tag_29\n          jump\t// in\n        tag_57:\n          tag_58\n          jump\t// in\n        tag_56:\n          mload(0x40)\n          tag_59\n          swap2\n          swap1\n          tag_32\n          jump\t// in\n        tag_59:\n          mload(0x40)\n          dup1\n          swap2\n          sub\n          swap1\n          return\n            /* \"MemberMap.sol\":275:341  mapping(address => mapping(address => bool)) public stakeholderMap */\n        tag_10:\n          tag_60\n          0x04\n          dup1\n          calldatasize\n          sub\n          dup2\n          add\n          swap1\n          tag_61\n          swap2\n          swap1\n          tag_35\n          jump\t// in\n        tag_61:\n          tag_62\n          jump\t// in\n        tag_60:\n          mload(0x40)\n          tag_63\n          swap2\n          swap1\n          tag_38\n          jump\t// in\n        tag_63:\n          mload(0x40)\n          dup1\n          swap2\n          sub\n          swap1\n          return\n            /* \"MemberMap.sol\":970:1096  function memberIsInAnyPool(address member) public view returns (bool) {... */\n        tag_11:\n          tag_64\n          0x04\n          dup1\n          calldatasize\n          sub\n          dup2\n          add\n          swap1\n          tag_65\n          swap2\n          swap1\n          tag_52\n          jump\t// in\n        tag_65:\n          tag_66\n          jump\t// in\n        tag_64:\n          mload(0x40)\n          tag_67\n          swap2\n          swap1\n          tag_38\n          jump\t// in\n        tag_67:\n          mload(0x40)\n          dup1\n          swap2\n          sub\n          swap1\n          return\n            /* \"MemberMap.sol\":575:790  function poolUpOne(uint256 atIndex) public {... */\n        tag_12:\n          tag_68\n          0x04\n          dup1\n          calldatasize\n          sub\n          dup2\n          add\n          swap1\n          tag_69\n          swap2\n          swap1\n          tag_70\n          jump\t// in\n        tag_69:\n          tag_71\n          jump\t// in\n        tag_68:\n          stop\n            /* \"MemberMap.sol\":1602:1914  function removeMemberProject(address member, uint256 index) public {... */\n        tag_13:\n          tag_72\n          0x04\n          dup1\n          calldatasize\n          sub\n          dup2\n          add\n          swap1\n          tag_73\n          swap2\n          swap1\n          tag_29\n          jump\t// in\n        tag_73:\n          tag_74\n          jump\t// in\n        tag_72:\n          stop\n            /* \"MemberMap.sol\":1922:2096  function isStakeholder(address account, address project)... */\n        tag_14:\n          tag_75\n          0x04\n          dup1\n          calldatasize\n          sub\n          dup2\n          add\n          swap1\n          tag_76\n          swap2\n          swap1\n          tag_35\n          jump\t// in\n        tag_76:\n          tag_77\n          jump\t// in\n        tag_75:\n          mload(0x40)\n          tag_78\n          swap2\n          swap1\n          tag_38\n          jump\t// in\n        tag_78:\n          mload(0x40)\n          dup1\n          swap2\n          sub\n          swap1\n          return\n            /* \"MemberMap.sol\":798:962  function addMember(address memberPool, address member) public {... */\n        tag_15:\n          tag_79\n          0x04\n          dup1\n          calldatasize\n          sub\n          dup2\n          add\n          swap1\n          tag_80\n          swap2\n          swap1\n          tag_35\n          jump\t// in\n        tag_80:\n          tag_81\n          jump\t// in\n        tag_79:\n          stop\n            /* \"MemberMap.sol\":544:566  address[] public pools */\n        tag_16:\n          tag_82\n          0x04\n          dup1\n          calldatasize\n          sub\n          dup2\n          add\n          swap1\n          tag_83\n          swap2\n          swap1\n          tag_70\n          jump\t// in\n        tag_83:\n          tag_84\n          jump\t// in\n        tag_82:\n          mload(0x40)\n          tag_85\n          swap2\n          swap1\n          tag_32\n          jump\t// in\n        tag_85:\n          mload(0x40)\n          dup1\n          swap2\n          sub\n          swap1\n          return\n            /* \"MemberMap.sol\":414:481  mapping(address => mapping(address => bool)) public creatorPoolsMap */\n        tag_17:\n          tag_86\n          0x04\n          dup1\n          calldatasize\n          sub\n          dup2\n          add\n          swap1\n          tag_87\n          swap2\n          swap1\n          tag_35\n          jump\t// in\n        tag_87:\n          tag_88\n          jump\t// in\n        tag_86:\n          mload(0x40)\n          tag_89\n          swap2\n          swap1\n          tag_38\n          jump\t// in\n        tag_89:\n          mload(0x40)\n          dup1\n          swap2\n          sub\n          swap1\n          return\n            /* \"MemberMap.sol\":2864:3032  function isPoolCreator(address account, address pool)... */\n        tag_18:\n          tag_90\n          0x04\n          dup1\n          calldatasize\n          sub\n          dup2\n          add\n          swap1\n          tag_91\n          swap2\n          swap1\n          tag_35\n          jump\t// in\n        tag_91:\n          tag_92\n          jump\t// in\n        tag_90:\n          mload(0x40)\n          tag_93\n          swap2\n          swap1\n          tag_38\n          jump\t// in\n        tag_93:\n          mload(0x40)\n          dup1\n          swap2\n          sub\n          swap1\n          return\n            /* \"MemberMap.sol\":2696:2856  function getCreatorPools(address account)... */\n        tag_19:\n          tag_94\n          0x04\n          dup1\n          calldatasize\n          sub\n          dup2\n          add\n          swap1\n          tag_95\n          swap2\n          swap1\n          tag_52\n          jump\t// in\n        tag_95:\n          tag_96\n          jump\t// in\n        tag_94:\n          mload(0x40)\n          tag_97\n          swap2\n          swap1\n          tag_55\n          jump\t// in\n        tag_97:\n          mload(0x40)\n          dup1\n          swap2\n          sub\n          swap1\n          return\n            /* \"MemberMap.sol\":2500:2688  function addPoolCreator(address account, address pool) public {... */\n        tag_20:\n          tag_98\n          0x04\n          dup1\n          calldatasize\n          sub\n          dup2\n          add\n          swap1\n          tag_99\n          swap2\n          swap1\n          tag_35\n          jump\t// in\n        tag_99:\n          tag_100\n          jump\t// in\n        tag_98:\n          stop\n            /* \"MemberMap.sol\":488:537  mapping(address => address[]) public creatorPools */\n        tag_21:\n          tag_101\n          0x04\n          dup1\n          calldatasize\n          sub\n          dup2\n          add\n          swap1\n          tag_102\n          swap2\n          swap1\n          tag_29\n          jump\t// in\n        tag_102:\n          tag_103\n          jump\t// in\n        tag_101:\n          mload(0x40)\n          tag_104\n          swap2\n          swap1\n          tag_32\n          jump\t// in\n        tag_104:\n          mload(0x40)\n          dup1\n          swap2\n          sub\n          swap1\n          return\n            /* \"MemberMap.sol\":2104:2308  function addStakeholderToProposal(address account, address proposal)... */\n        tag_22:\n          tag_105\n          0x04\n          dup1\n          calldatasize\n          sub\n          dup2\n          add\n          swap1\n          tag_106\n          swap2\n          swap1\n          tag_35\n          jump\t// in\n        tag_106:\n          tag_107\n          jump\t// in\n        tag_105:\n          stop\n            /* \"MemberMap.sol\":1280:1465  function getMemberPools(address member)... */\n        tag_23:\n          tag_108\n          0x04\n          dup1\n          calldatasize\n          sub\n          dup2\n          add\n          swap1\n          tag_109\n          swap2\n          swap1\n          tag_52\n          jump\t// in\n        tag_109:\n          tag_110\n          jump\t// in\n        tag_108:\n          mload(0x40)\n          tag_111\n          swap2\n          swap1\n          tag_55\n          jump\t// in\n        tag_111:\n          mload(0x40)\n          dup1\n          swap2\n          sub\n          swap1\n          return\n            /* \"MemberMap.sol\":215:266  mapping(address => address[]) public memberProjects */\n        tag_30:\n          mstore(0x20, 0x02)\n          dup2\n          0x00\n          mstore\n          keccak256(0x00, 0x40)\n          dup2\n          dup2\n          sload\n          dup2\n          lt\n          tag_112\n          jumpi\n          0x00\n          dup1\n          revert\n        tag_112:\n          swap1\n          0x00\n          mstore\n          keccak256(0x00, 0x20)\n          add\n          0x00\n          swap2\n          pop\n          swap2\n          pop\n          swap1\n          sload\n          swap1\n          0x0100\n          exp\n          swap1\n          div\n          0xffffffffffffffffffffffffffffffffffffffff\n          and\n          dup2\n          jump\t// out\n            /* \"MemberMap.sol\":1104:1272  function isMember(address member, address memberPool)... */\n        tag_36:\n            /* \"MemberMap.sol\":1206:1210  bool */\n          0x00\n            /* \"MemberMap.sol\":1235:1244  memberMap */\n          dup1\n            /* \"MemberMap.sol\":1235:1252  memberMap[member] */\n          0x00\n            /* \"MemberMap.sol\":1245:1251  member */\n          dup5\n            /* \"MemberMap.sol\":1235:1252  memberMap[member] */\n          0xffffffffffffffffffffffffffffffffffffffff\n          and\n          0xffffffffffffffffffffffffffffffffffffffff\n          and\n          dup2\n          mstore\n          0x20\n          add\n          swap1\n          dup2\n          mstore\n          0x20\n          add\n          0x00\n          keccak256\n            /* \"MemberMap.sol\":1235:1264  memberMap[member][memberPool] */\n          0x00\n            /* \"MemberMap.sol\":1253:1263  memberPool */\n          dup4\n            /* \"MemberMap.sol\":1235:1264  memberMap[member][memberPool] */\n          0xffffffffffffffffffffffffffffffffffffffff\n          and\n          0xffffffffffffffffffffffffffffffffffffffff\n          and\n          dup2\n          mstore\n          0x20\n          add\n          swap1\n          dup2\n          mstore\n          0x20\n          add\n          0x00\n          keccak256\n          0x00\n          swap1\n          sload\n          swap1\n          0x0100\n          exp\n          swap1\n          div\n          0xff\n          and\n            /* \"MemberMap.sol\":1228:1264  return memberMap[member][memberPool] */\n          swap1\n          pop\n            /* \"MemberMap.sol\":1104:1272  function isMember(address member, address memberPool)... */\n          swap3\n          swap2\n          pop\n          pop\n          jump\t// out\n            /* \"MemberMap.sol\":92:153  mapping(address => mapping(address => bool)) public memberMap */\n        tag_41:\n          mstore(0x20, 0x00)\n          dup2\n          0x00\n          mstore\n          mstore(0x20, keccak256(0x00, 0x40))\n          dup1\n          0x00\n          mstore\n          keccak256(0x00, 0x40)\n          0x00\n          swap2\n          pop\n          swap2\n          pop\n          swap1\n          sload\n          swap1\n          0x0100\n          exp\n          swap1\n          div\n          0xff\n          and\n          dup2\n          jump\t// out\n            /* \"MemberMap.sol\":1473:1594  function addMemberProject(address member, address project) public {... */\n        tag_45:\n            /* \"MemberMap.sol\":1550:1564  memberProjects */\n          0x02\n            /* \"MemberMap.sol\":1550:1572  memberProjects[member] */\n          0x00\n            /* \"MemberMap.sol\":1565:1571  member */\n          dup4\n            /* \"MemberMap.sol\":1550:1572  memberProjects[member] */\n          0xffffffffffffffffffffffffffffffffffffffff\n          and\n          0xffffffffffffffffffffffffffffffffffffffff\n          and\n          dup2\n          mstore\n          0x20\n          add\n          swap1\n          dup2\n          mstore\n          0x20\n          add\n          0x00\n          keccak256\n            /* \"MemberMap.sol\":1578:1585  project */\n          dup2\n            /* \"MemberMap.sol\":1550:1586  memberProjects[member].push(project) */\n          swap1\n          dup1\n          0x01\n          dup2\n          sload\n          add\n          dup1\n          dup3\n          sstore\n          dup1\n          swap2\n          pop\n          pop\n          0x01\n          swap1\n          sub\n          swap1\n          0x00\n          mstore\n          keccak256(0x00, 0x20)\n          add\n          0x00\n          swap1\n          swap2\n          swap1\n          swap2\n          swap1\n          swap2\n          0x0100\n          exp\n          dup2\n          sload\n          dup2\n          0xffffffffffffffffffffffffffffffffffffffff\n          mul\n          not\n          and\n          swap1\n          dup4\n          0xffffffffffffffffffffffffffffffffffffffff\n          and\n          mul\n          or\n          swap1\n          sstore\n          pop\n            /* \"MemberMap.sol\":1473:1594  function addMemberProject(address member, address project) public {... */\n          pop\n          pop\n          jump\t// out\n            /* \"MemberMap.sol\":160:208  mapping(address => address[]) public memberPools */\n        tag_48:\n          mstore(0x20, 0x01)\n          dup2\n          0x00\n          mstore\n          keccak256(0x00, 0x40)\n          dup2\n          dup2\n          sload\n          dup2\n          lt\n          tag_117\n          jumpi\n          0x00\n          dup1\n          revert\n        tag_117:\n          swap1\n          0x00\n          mstore\n          keccak256(0x00, 0x20)\n          add\n          0x00\n          swap2\n          pop\n          swap2\n          pop\n          swap1\n          sload\n          swap1\n          0x0100\n          exp\n          swap1\n          div\n          0xffffffffffffffffffffffffffffffffffffffff\n          and\n          dup2\n          jump\t// out\n            /* \"MemberMap.sol\":2316:2492  function getStakeholderProposals(address account)... */\n        tag_53:\n            /* \"MemberMap.sol\":2414:2430  address[] memory */\n          0x60\n            /* \"MemberMap.sol\":2455:2475  stakeholderProposals */\n          0x04\n            /* \"MemberMap.sol\":2455:2484  stakeholderProposals[account] */\n          0x00\n            /* \"MemberMap.sol\":2476:2483  account */\n          dup4\n            /* \"MemberMap.sol\":2455:2484  stakeholderProposals[account] */\n          0xffffffffffffffffffffffffffffffffffffffff\n          and\n          0xffffffffffffffffffffffffffffffffffffffff\n          and\n          dup2\n          mstore\n          0x20\n          add\n          swap1\n          dup2\n          mstore\n          0x20\n          add\n          0x00\n          keccak256\n            /* \"MemberMap.sol\":2448:2484  return stakeholderProposals[account] */\n          dup1\n          sload\n          dup1\n          0x20\n          mul\n          0x20\n          add\n          mload(0x40)\n          swap1\n          dup2\n          add\n          0x40\n          mstore\n          dup1\n          swap3\n          swap2\n          swap1\n          dup2\n          dup2\n          mstore\n          0x20\n          add\n          dup3\n          dup1\n          sload\n          dup1\n          iszero\n          tag_120\n          jumpi\n          0x20\n          mul\n          dup3\n          add\n          swap2\n          swap1\n          0x00\n          mstore\n          keccak256(0x00, 0x20)\n          swap1\n        tag_121:\n          dup2\n          0x00\n          swap1\n          sload\n          swap1\n          0x0100\n          exp\n          swap1\n          div\n          0xffffffffffffffffffffffffffffffffffffffff\n          and\n          0xffffffffffffffffffffffffffffffffffffffff\n          and\n          dup2\n          mstore\n          0x20\n          add\n          swap1\n          0x01\n          add\n          swap1\n          dup1\n          dup4\n          gt\n          tag_121\n          jumpi\n        tag_120:\n          pop\n          pop\n          pop\n          pop\n          pop\n          swap1\n          pop\n            /* \"MemberMap.sol\":2316:2492  function getStakeholderProposals(address account)... */\n          swap2\n          swap1\n          pop\n          jump\t// out\n            /* \"MemberMap.sol\":348:405  mapping(address => address[]) public stakeholderProposals */\n        tag_58:\n          mstore(0x20, 0x04)\n          dup2\n          0x00\n          mstore\n          keccak256(0x00, 0x40)\n          dup2\n          dup2\n          sload\n          dup2\n          lt\n          tag_122\n          jumpi\n          0x00\n          dup1\n          revert\n        tag_122:\n          swap1\n          0x00\n          mstore\n          keccak256(0x00, 0x20)\n          add\n          0x00\n          swap2\n          pop\n          swap2\n          pop\n          swap1\n          sload\n          swap1\n          0x0100\n          exp\n          swap1\n          div\n          0xffffffffffffffffffffffffffffffffffffffff\n          and\n          dup2\n          jump\t// out\n            /* \"MemberMap.sol\":275:341  mapping(address => mapping(address => bool)) public stakeholderMap */\n        tag_62:\n          mstore(0x20, 0x03)\n          dup2\n          0x00\n          mstore\n          mstore(0x20, keccak256(0x00, 0x40))\n          dup1\n          0x00\n          mstore\n          keccak256(0x00, 0x40)\n          0x00\n          swap2\n          pop\n          swap2\n          pop\n          swap1\n          sload\n          swap1\n          0x0100\n          exp\n          swap1\n          div\n          0xff\n          and\n          dup2\n          jump\t// out\n            /* \"MemberMap.sol\":970:1096  function memberIsInAnyPool(address member) public view returns (bool) {... */\n        tag_66:\n            /* \"MemberMap.sol\":1034:1038  bool */\n          0x00\n            /* \"MemberMap.sol\":1087:1088  0 */\n          dup1\n            /* \"MemberMap.sol\":1058:1069  memberPools */\n          0x01\n            /* \"MemberMap.sol\":1058:1077  memberPools[member] */\n          0x00\n            /* \"MemberMap.sol\":1070:1076  member */\n          dup5\n            /* \"MemberMap.sol\":1058:1077  memberPools[member] */\n          0xffffffffffffffffffffffffffffffffffffffff\n          and\n          0xffffffffffffffffffffffffffffffffffffffff\n          and\n          dup2\n          mstore\n          0x20\n          add\n          swap1\n          dup2\n          mstore\n          0x20\n          add\n          0x00\n          keccak256\n            /* \"MemberMap.sol\":1058:1084  memberPools[member].length */\n          dup1\n          sload\n          swap1\n          pop\n            /* \"MemberMap.sol\":1058:1088  memberPools[member].length > 0 */\n          gt\n            /* \"MemberMap.sol\":1051:1088  return memberPools[member].length > 0 */\n          swap1\n          pop\n            /* \"MemberMap.sol\":970:1096  function memberIsInAnyPool(address member) public view returns (bool) {... */\n          swap2\n          swap1\n          pop\n          jump\t// out\n            /* \"MemberMap.sol\":575:790  function poolUpOne(uint256 atIndex) public {... */\n        tag_71:\n            /* \"MemberMap.sol\":647:652  pools */\n          0x07\n            /* \"MemberMap.sol\":647:659  pools.length */\n          dup1\n          sload\n          swap1\n          pop\n            /* \"MemberMap.sol\":637:644  atIndex */\n          dup2\n            /* \"MemberMap.sol\":637:659  atIndex > pools.length */\n          gt\n            /* \"MemberMap.sol\":629:660  require(atIndex > pools.length) */\n          tag_126\n          jumpi\n          0x00\n          dup1\n          revert\n        tag_126:\n            /* \"MemberMap.sol\":671:683  address temp */\n          0x00\n            /* \"MemberMap.sol\":686:691  pools */\n          0x07\n            /* \"MemberMap.sol\":692:699  atIndex */\n          dup3\n            /* \"MemberMap.sol\":686:700  pools[atIndex] */\n          dup2\n          sload\n          dup2\n          lt\n          tag_127\n          jumpi\n          tag_128\n          tag_129\n          jump\t// in\n        tag_128:\n        tag_127:\n          swap1\n          0x00\n          mstore\n          keccak256(0x00, 0x20)\n          add\n          0x00\n          swap1\n          sload\n          swap1\n          0x0100\n          exp\n          swap1\n          div\n          0xffffffffffffffffffffffffffffffffffffffff\n          and\n            /* \"MemberMap.sol\":671:700  address temp = pools[atIndex] */\n          swap1\n          pop\n            /* \"MemberMap.sol\":728:733  pools */\n          0x07\n            /* \"MemberMap.sol\":744:745  1 */\n          0x01\n            /* \"MemberMap.sol\":734:741  atIndex */\n          dup4\n            /* \"MemberMap.sol\":734:745  atIndex + 1 */\n          tag_131\n          swap2\n          swap1\n          tag_132\n          jump\t// in\n        tag_131:\n            /* \"MemberMap.sol\":728:746  pools[atIndex + 1] */\n          dup2\n          sload\n          dup2\n          lt\n          tag_133\n          jumpi\n          tag_134\n          tag_129\n          jump\t// in\n        tag_134:\n        tag_133:\n          swap1\n          0x00\n          mstore\n          keccak256(0x00, 0x20)\n          add\n          0x00\n          swap1\n          sload\n          swap1\n          0x0100\n          exp\n          swap1\n          div\n          0xffffffffffffffffffffffffffffffffffffffff\n          and\n            /* \"MemberMap.sol\":711:716  pools */\n          0x07\n            /* \"MemberMap.sol\":717:724  atIndex */\n          dup4\n            /* \"MemberMap.sol\":711:725  pools[atIndex] */\n          dup2\n          sload\n          dup2\n          lt\n          tag_136\n          jumpi\n          tag_137\n          tag_129\n          jump\t// in\n        tag_137:\n        tag_136:\n          swap1\n          0x00\n          mstore\n          keccak256(0x00, 0x20)\n          add\n          0x00\n            /* \"MemberMap.sol\":711:746  pools[atIndex] = pools[atIndex + 1] */\n          0x0100\n          exp\n          dup2\n          sload\n          dup2\n          0xffffffffffffffffffffffffffffffffffffffff\n          mul\n          not\n          and\n          swap1\n          dup4\n          0xffffffffffffffffffffffffffffffffffffffff\n          and\n          mul\n          or\n          swap1\n          sstore\n          pop\n            /* \"MemberMap.sol\":778:782  temp */\n          dup1\n            /* \"MemberMap.sol\":757:762  pools */\n          0x07\n            /* \"MemberMap.sol\":773:774  1 */\n          0x01\n            /* \"MemberMap.sol\":763:770  atIndex */\n          dup5\n            /* \"MemberMap.sol\":763:774  atIndex + 1 */\n          tag_139\n          swap2\n          swap1\n          tag_132\n          jump\t// in\n        tag_139:\n            /* \"MemberMap.sol\":757:775  pools[atIndex + 1] */\n          dup2\n          sload\n          dup2\n          lt\n          tag_140\n          jumpi\n          tag_141\n          tag_129\n          jump\t// in\n        tag_141:\n        tag_140:\n          swap1\n          0x00\n          mstore\n          keccak256(0x00, 0x20)\n          add\n          0x00\n            /* \"MemberMap.sol\":757:782  pools[atIndex + 1] = temp */\n          0x0100\n          exp\n          dup2\n          sload\n          dup2\n          0xffffffffffffffffffffffffffffffffffffffff\n          mul\n          not\n          and\n          swap1\n          dup4\n          0xffffffffffffffffffffffffffffffffffffffff\n          and\n          mul\n          or\n          swap1\n          sstore\n          pop\n            /* \"MemberMap.sol\":618:790  {... */\n          pop\n            /* \"MemberMap.sol\":575:790  function poolUpOne(uint256 atIndex) public {... */\n          pop\n          jump\t// out\n            /* \"MemberMap.sol\":1602:1914  function removeMemberProject(address member, uint256 index) public {... */\n        tag_74:\n            /* \"MemberMap.sol\":1721:1726  index */\n          dup1\n            /* \"MemberMap.sol\":1688:1702  memberProjects */\n          0x02\n            /* \"MemberMap.sol\":1688:1710  memberProjects[member] */\n          0x00\n            /* \"MemberMap.sol\":1703:1709  member */\n          dup5\n            /* \"MemberMap.sol\":1688:1710  memberProjects[member] */\n          0xffffffffffffffffffffffffffffffffffffffff\n          and\n          0xffffffffffffffffffffffffffffffffffffffff\n          and\n          dup2\n          mstore\n          0x20\n          add\n          swap1\n          dup2\n          mstore\n          0x20\n          add\n          0x00\n          keccak256\n            /* \"MemberMap.sol\":1688:1717  memberProjects[member].length */\n          dup1\n          sload\n          swap1\n          pop\n            /* \"MemberMap.sol\":1688:1726  memberProjects[member].length >= index */\n          lt\n          iszero\n            /* \"MemberMap.sol\":1680:1743  require(memberProjects[member].length >= index, \"Out of Index\") */\n          tag_144\n          jumpi\n          mload(0x40)\n          0x08c379a000000000000000000000000000000000000000000000000000000000\n          dup2\n          mstore\n          0x04\n          add\n          tag_145\n          swap1\n          tag_146\n          jump\t// in\n        tag_145:\n          mload(0x40)\n          dup1\n          swap2\n          sub\n          swap1\n          revert\n        tag_144:\n            /* \"MemberMap.sol\":1786:1800  memberProjects */\n          0x02\n            /* \"MemberMap.sol\":1786:1808  memberProjects[member] */\n          0x00\n            /* \"MemberMap.sol\":1801:1807  member */\n          dup4\n            /* \"MemberMap.sol\":1786:1808  memberProjects[member] */\n          0xffffffffffffffffffffffffffffffffffffffff\n          and\n          0xffffffffffffffffffffffffffffffffffffffff\n          and\n          dup2\n          mstore\n          0x20\n          add\n          swap1\n          dup2\n          mstore\n          0x20\n          add\n          0x00\n          keccak256\n            /* \"MemberMap.sol\":1855:1856  1 */\n          0x01\n            /* \"MemberMap.sol\":1823:1837  memberProjects */\n          0x02\n            /* \"MemberMap.sol\":1823:1845  memberProjects[member] */\n          0x00\n            /* \"MemberMap.sol\":1838:1844  member */\n          dup6\n            /* \"MemberMap.sol\":1823:1845  memberProjects[member] */\n          0xffffffffffffffffffffffffffffffffffffffff\n          and\n          0xffffffffffffffffffffffffffffffffffffffff\n          and\n          dup2\n          mstore\n          0x20\n          add\n          swap1\n          dup2\n          mstore\n          0x20\n          add\n          0x00\n          keccak256\n            /* \"MemberMap.sol\":1823:1852  memberProjects[member].length */\n          dup1\n          sload\n          swap1\n          pop\n            /* \"MemberMap.sol\":1823:1856  memberProjects[member].length - 1 */\n          tag_147\n          swap2\n          swap1\n          tag_148\n          jump\t// in\n        tag_147:\n            /* \"MemberMap.sol\":1786:1867  memberProjects[member][... */\n          dup2\n          sload\n          dup2\n          lt\n          tag_149\n          jumpi\n          tag_150\n          tag_129\n          jump\t// in\n        tag_150:\n        tag_149:\n          swap1\n          0x00\n          mstore\n          keccak256(0x00, 0x20)\n          add\n          0x00\n          swap1\n          sload\n          swap1\n          0x0100\n          exp\n          swap1\n          div\n          0xffffffffffffffffffffffffffffffffffffffff\n          and\n            /* \"MemberMap.sol\":1754:1768  memberProjects */\n          0x02\n            /* \"MemberMap.sol\":1754:1776  memberProjects[member] */\n          0x00\n            /* \"MemberMap.sol\":1769:1775  member */\n          dup5\n            /* \"MemberMap.sol\":1754:1776  memberProjects[member] */\n          0xffffffffffffffffffffffffffffffffffffffff\n          and\n          0xffffffffffffffffffffffffffffffffffffffff\n          and\n          dup2\n          mstore\n          0x20\n          add\n          swap1\n          dup2\n          mstore\n          0x20\n          add\n          0x00\n          keccak256\n            /* \"MemberMap.sol\":1777:1782  index */\n          dup3\n            /* \"MemberMap.sol\":1754:1783  memberProjects[member][index] */\n          dup2\n          sload\n          dup2\n          lt\n          tag_152\n          jumpi\n          tag_153\n          tag_129\n          jump\t// in\n        tag_153:\n        tag_152:\n          swap1\n          0x00\n          mstore\n          keccak256(0x00, 0x20)\n          add\n          0x00\n            /* \"MemberMap.sol\":1754:1867  memberProjects[member][index] = memberProjects[member][... */\n          0x0100\n          exp\n          dup2\n          sload\n          dup2\n          0xffffffffffffffffffffffffffffffffffffffff\n          mul\n          not\n          and\n          swap1\n          dup4\n          0xffffffffffffffffffffffffffffffffffffffff\n          and\n          mul\n          or\n          swap1\n          sstore\n          pop\n            /* \"MemberMap.sol\":1878:1892  memberProjects */\n          0x02\n            /* \"MemberMap.sol\":1878:1900  memberProjects[member] */\n          0x00\n            /* \"MemberMap.sol\":1893:1899  member */\n          dup4\n            /* \"MemberMap.sol\":1878:1900  memberProjects[member] */\n          0xffffffffffffffffffffffffffffffffffffffff\n          and\n          0xffffffffffffffffffffffffffffffffffffffff\n          and\n          dup2\n          mstore\n          0x20\n          add\n          swap1\n          dup2\n          mstore\n          0x20\n          add\n          0x00\n          keccak256\n            /* \"MemberMap.sol\":1878:1906  memberProjects[member].pop() */\n          dup1\n          sload\n          dup1\n          tag_155\n          jumpi\n          tag_156\n          tag_157\n          jump\t// in\n        tag_156:\n        tag_155:\n          0x01\n          swap1\n          sub\n          dup2\n          dup2\n          swap1\n          0x00\n          mstore\n          keccak256(0x00, 0x20)\n          add\n          exp(0x0100, 0x00)\n          dup2\n          sload\n          swap1\n          0xffffffffffffffffffffffffffffffffffffffff\n          mul\n          not\n          and\n          swap1\n          sstore\n          swap1\n          sstore\n            /* \"MemberMap.sol\":1602:1914  function removeMemberProject(address member, uint256 index) public {... */\n          pop\n          pop\n          jump\t// out\n            /* \"MemberMap.sol\":1922:2096  function isStakeholder(address account, address project)... */\n        tag_77:\n            /* \"MemberMap.sol\":2027:2031  bool */\n          0x00\n            /* \"MemberMap.sol\":2056:2070  stakeholderMap */\n          0x03\n            /* \"MemberMap.sol\":2056:2079  stakeholderMap[account] */\n          0x00\n            /* \"MemberMap.sol\":2071:2078  account */\n          dup5\n            /* \"MemberMap.sol\":2056:2079  stakeholderMap[account] */\n          0xffffffffffffffffffffffffffffffffffffffff\n          and\n          0xffffffffffffffffffffffffffffffffffffffff\n          and\n          dup2\n          mstore\n          0x20\n          add\n          swap1\n          dup2\n          mstore\n          0x20\n          add\n          0x00\n          keccak256\n            /* \"MemberMap.sol\":2056:2088  stakeholderMap[account][project] */\n          0x00\n            /* \"MemberMap.sol\":2080:2087  project */\n          dup4\n            /* \"MemberMap.sol\":2056:2088  stakeholderMap[account][project] */\n          0xffffffffffffffffffffffffffffffffffffffff\n          and\n          0xffffffffffffffffffffffffffffffffffffffff\n          and\n          dup2\n          mstore\n          0x20\n          add\n          swap1\n          dup2\n          mstore\n          0x20\n          add\n          0x00\n          keccak256\n          0x00\n          swap1\n          sload\n          swap1\n          0x0100\n          exp\n          swap1\n          div\n          0xff\n          and\n            /* \"MemberMap.sol\":2049:2088  return stakeholderMap[account][project] */\n          swap1\n          pop\n            /* \"MemberMap.sol\":1922:2096  function isStakeholder(address account, address project)... */\n          swap3\n          swap2\n          pop\n          pop\n          jump\t// out\n            /* \"MemberMap.sol\":798:962  function addMember(address memberPool, address member) public {... */\n        tag_81:\n            /* \"MemberMap.sol\":903:907  true */\n          0x01\n            /* \"MemberMap.sol\":871:880  memberMap */\n          0x00\n            /* \"MemberMap.sol\":871:888  memberMap[member] */\n          dup1\n            /* \"MemberMap.sol\":881:887  member */\n          dup4\n            /* \"MemberMap.sol\":871:888  memberMap[member] */\n          0xffffffffffffffffffffffffffffffffffffffff\n          and\n          0xffffffffffffffffffffffffffffffffffffffff\n          and\n          dup2\n          mstore\n          0x20\n          add\n          swap1\n          dup2\n          mstore\n          0x20\n          add\n          0x00\n          keccak256\n            /* \"MemberMap.sol\":871:900  memberMap[member][memberPool] */\n          0x00\n            /* \"MemberMap.sol\":889:899  memberPool */\n          dup5\n            /* \"MemberMap.sol\":871:900  memberMap[member][memberPool] */\n          0xffffffffffffffffffffffffffffffffffffffff\n          and\n          0xffffffffffffffffffffffffffffffffffffffff\n          and\n          dup2\n          mstore\n          0x20\n          add\n          swap1\n          dup2\n          mstore\n          0x20\n          add\n          0x00\n          keccak256\n          0x00\n            /* \"MemberMap.sol\":871:907  memberMap[member][memberPool] = true */\n          0x0100\n          exp\n          dup2\n          sload\n          dup2\n          0xff\n          mul\n          not\n          and\n          swap1\n          dup4\n          iszero\n          iszero\n          mul\n          or\n          swap1\n          sstore\n          pop\n            /* \"MemberMap.sol\":918:929  memberPools */\n          0x01\n            /* \"MemberMap.sol\":918:937  memberPools[member] */\n          0x00\n            /* \"MemberMap.sol\":930:936  member */\n          dup3\n            /* \"MemberMap.sol\":918:937  memberPools[member] */\n          0xffffffffffffffffffffffffffffffffffffffff\n          and\n          0xffffffffffffffffffffffffffffffffffffffff\n          and\n          dup2\n          mstore\n          0x20\n          add\n          swap1\n          dup2\n          mstore\n          0x20\n          add\n          0x00\n          keccak256\n            /* \"MemberMap.sol\":943:953  memberPool */\n          dup3\n            /* \"MemberMap.sol\":918:954  memberPools[member].push(memberPool) */\n          swap1\n          dup1\n          0x01\n          dup2\n          sload\n          add\n          dup1\n          dup3\n          sstore\n          dup1\n          swap2\n          pop\n          pop\n          0x01\n          swap1\n          sub\n          swap1\n          0x00\n          mstore\n          keccak256(0x00, 0x20)\n          add\n          0x00\n          swap1\n          swap2\n          swap1\n          swap2\n          swap1\n          swap2\n          0x0100\n          exp\n          dup2\n          sload\n          dup2\n          0xffffffffffffffffffffffffffffffffffffffff\n          mul\n          not\n          and\n          swap1\n          dup4\n          0xffffffffffffffffffffffffffffffffffffffff\n          and\n          mul\n          or\n          swap1\n          sstore\n          pop\n            /* \"MemberMap.sol\":798:962  function addMember(address memberPool, address member) public {... */\n          pop\n          pop\n          jump\t// out\n            /* \"MemberMap.sol\":544:566  address[] public pools */\n        tag_84:\n          0x07\n          dup2\n          dup2\n          sload\n          dup2\n          lt\n          tag_162\n          jumpi\n          0x00\n          dup1\n          revert\n        tag_162:\n          swap1\n          0x00\n          mstore\n          keccak256(0x00, 0x20)\n          add\n          0x00\n          swap2\n          pop\n          sload\n          swap1\n          0x0100\n          exp\n          swap1\n          div\n          0xffffffffffffffffffffffffffffffffffffffff\n          and\n          dup2\n          jump\t// out\n            /* \"MemberMap.sol\":414:481  mapping(address => mapping(address => bool)) public creatorPoolsMap */\n        tag_88:\n          mstore(0x20, 0x05)\n          dup2\n          0x00\n          mstore\n          mstore(0x20, keccak256(0x00, 0x40))\n          dup1\n          0x00\n          mstore\n          keccak256(0x00, 0x40)\n          0x00\n          swap2\n          pop\n          swap2\n          pop\n          swap1\n          sload\n          swap1\n          0x0100\n          exp\n          swap1\n          div\n          0xff\n          and\n          dup2\n          jump\t// out\n            /* \"MemberMap.sol\":2864:3032  function isPoolCreator(address account, address pool)... */\n        tag_92:\n            /* \"MemberMap.sol\":2966:2970  bool */\n          0x00\n            /* \"MemberMap.sol\":2995:3009  stakeholderMap */\n          0x03\n            /* \"MemberMap.sol\":2995:3018  stakeholderMap[account] */\n          0x00\n            /* \"MemberMap.sol\":3010:3017  account */\n          dup5\n            /* \"MemberMap.sol\":2995:3018  stakeholderMap[account] */\n          0xffffffffffffffffffffffffffffffffffffffff\n          and\n          0xffffffffffffffffffffffffffffffffffffffff\n          and\n          dup2\n          mstore\n          0x20\n          add\n          swap1\n          dup2\n          mstore\n          0x20\n          add\n          0x00\n          keccak256\n            /* \"MemberMap.sol\":2995:3024  stakeholderMap[account][pool] */\n          0x00\n            /* \"MemberMap.sol\":3019:3023  pool */\n          dup4\n            /* \"MemberMap.sol\":2995:3024  stakeholderMap[account][pool] */\n          0xffffffffffffffffffffffffffffffffffffffff\n          and\n          0xffffffffffffffffffffffffffffffffffffffff\n          and\n          dup2\n          mstore\n          0x20\n          add\n          swap1\n          dup2\n          mstore\n          0x20\n          add\n          0x00\n          keccak256\n          0x00\n          swap1\n          sload\n          swap1\n          0x0100\n          exp\n          swap1\n          div\n          0xff\n          and\n            /* \"MemberMap.sol\":2988:3024  return stakeholderMap[account][pool] */\n          swap1\n          pop\n            /* \"MemberMap.sol\":2864:3032  function isPoolCreator(address account, address pool)... */\n          swap3\n          swap2\n          pop\n          pop\n          jump\t// out\n            /* \"MemberMap.sol\":2696:2856  function getCreatorPools(address account)... */\n        tag_96:\n            /* \"MemberMap.sol\":2786:2802  address[] memory */\n          0x60\n            /* \"MemberMap.sol\":2827:2839  creatorPools */\n          0x06\n            /* \"MemberMap.sol\":2827:2848  creatorPools[account] */\n          0x00\n            /* \"MemberMap.sol\":2840:2847  account */\n          dup4\n            /* \"MemberMap.sol\":2827:2848  creatorPools[account] */\n          0xffffffffffffffffffffffffffffffffffffffff\n          and\n          0xffffffffffffffffffffffffffffffffffffffff\n          and\n          dup2\n          mstore\n          0x20\n          add\n          swap1\n          dup2\n          mstore\n          0x20\n          add\n          0x00\n          keccak256\n            /* \"MemberMap.sol\":2820:2848  return creatorPools[account] */\n          dup1\n          sload\n          dup1\n          0x20\n          mul\n          0x20\n          add\n          mload(0x40)\n          swap1\n          dup2\n          add\n          0x40\n          mstore\n          dup1\n          swap3\n          swap2\n          swap1\n          dup2\n          dup2\n          mstore\n          0x20\n          add\n          dup3\n          dup1\n          sload\n          dup1\n          iszero\n          tag_166\n          jumpi\n          0x20\n          mul\n          dup3\n          add\n          swap2\n          swap1\n          0x00\n          mstore\n          keccak256(0x00, 0x20)\n          swap1\n        tag_167:\n          dup2\n          0x00\n          swap1\n          sload\n          swap1\n          0x0100\n          exp\n          swap1\n          div\n          0xffffffffffffffffffffffffffffffffffffffff\n          and\n          0xffffffffffffffffffffffffffffffffffffffff\n          and\n          dup2\n          mstore\n          0x20\n          add\n          swap1\n          0x01\n          add\n          swap1\n          dup1\n          dup4\n          gt\n          tag_167\n          jumpi\n        tag_166:\n          pop\n          pop\n          pop\n          pop\n          pop\n          swap1\n          pop\n            /* \"MemberMap.sol\":2696:2856  function getCreatorPools(address account)... */\n          swap2\n          swap1\n          pop\n          jump\t// out\n            /* \"MemberMap.sol\":2500:2688  function addPoolCreator(address account, address pool) public {... */\n        tag_100:\n            /* \"MemberMap.sol\":2606:2610  true */\n          0x01\n            /* \"MemberMap.sol\":2573:2588  creatorPoolsMap */\n          0x05\n            /* \"MemberMap.sol\":2573:2597  creatorPoolsMap[account] */\n          0x00\n            /* \"MemberMap.sol\":2589:2596  account */\n          dup5\n            /* \"MemberMap.sol\":2573:2597  creatorPoolsMap[account] */\n          0xffffffffffffffffffffffffffffffffffffffff\n          and\n          0xffffffffffffffffffffffffffffffffffffffff\n          and\n          dup2\n          mstore\n          0x20\n          add\n          swap1\n          dup2\n          mstore\n          0x20\n          add\n          0x00\n          keccak256\n            /* \"MemberMap.sol\":2573:2603  creatorPoolsMap[account][pool] */\n          0x00\n            /* \"MemberMap.sol\":2598:2602  pool */\n          dup4\n            /* \"MemberMap.sol\":2573:2603  creatorPoolsMap[account][pool] */\n          0xffffffffffffffffffffffffffffffffffffffff\n          and\n          0xffffffffffffffffffffffffffffffffffffffff\n          and\n          dup2\n          mstore\n          0x20\n          add\n          swap1\n          dup2\n          mstore\n          0x20\n          add\n          0x00\n          keccak256\n          0x00\n            /* \"MemberMap.sol\":2573:2610  creatorPoolsMap[account][pool] = true */\n          0x0100\n          exp\n          dup2\n          sload\n          dup2\n          0xff\n          mul\n          not\n          and\n          swap1\n          dup4\n          iszero\n          iszero\n          mul\n          or\n          swap1\n          sstore\n          pop\n            /* \"MemberMap.sol\":2621:2633  creatorPools */\n          0x06\n            /* \"MemberMap.sol\":2621:2642  creatorPools[account] */\n          0x00\n            /* \"MemberMap.sol\":2634:2641  account */\n          dup4\n            /* \"MemberMap.sol\":2621:2642  creatorPools[account] */\n          0xffffffffffffffffffffffffffffffffffffffff\n          and\n          0xffffffffffffffffffffffffffffffffffffffff\n          and\n          dup2\n          mstore\n          0x20\n          add\n          swap1\n          dup2\n          mstore\n          0x20\n          add\n          0x00\n          keccak256\n            /* \"MemberMap.sol\":2648:2652  pool */\n          dup2\n            /* \"MemberMap.sol\":2621:2653  creatorPools[account].push(pool) */\n          swap1\n          dup1\n          0x01\n          dup2\n          sload\n          add\n          dup1\n          dup3\n          sstore\n          dup1\n          swap2\n          pop\n          pop\n          0x01\n          swap1\n          sub\n          swap1\n          0x00\n          mstore\n          keccak256(0x00, 0x20)\n          add\n          0x00\n          swap1\n          swap2\n          swap1\n          swap2\n          swap1\n          swap2\n          0x0100\n          exp\n          dup2\n          sload\n          dup2\n          0xffffffffffffffffffffffffffffffffffffffff\n          mul\n          not\n          and\n          swap1\n          dup4\n          0xffffffffffffffffffffffffffffffffffffffff\n          and\n          mul\n          or\n          swap1\n          sstore\n          pop\n            /* \"MemberMap.sol\":2664:2669  pools */\n          0x07\n            /* \"MemberMap.sol\":2675:2679  pool */\n          dup2\n            /* \"MemberMap.sol\":2664:2680  pools.push(pool) */\n          swap1\n          dup1\n          0x01\n          dup2\n          sload\n          add\n          dup1\n          dup3\n          sstore\n          dup1\n          swap2\n          pop\n          pop\n          0x01\n          swap1\n          sub\n          swap1\n          0x00\n          mstore\n          keccak256(0x00, 0x20)\n          add\n          0x00\n          swap1\n          swap2\n          swap1\n          swap2\n          swap1\n          swap2\n          0x0100\n          exp\n          dup2\n          sload\n          dup2\n          0xffffffffffffffffffffffffffffffffffffffff\n          mul\n          not\n          and\n          swap1\n          dup4\n          0xffffffffffffffffffffffffffffffffffffffff\n          and\n          mul\n          or\n          swap1\n          sstore\n          pop\n            /* \"MemberMap.sol\":2500:2688  function addPoolCreator(address account, address pool) public {... */\n          pop\n          pop\n          jump\t// out\n            /* \"MemberMap.sol\":488:537  mapping(address => address[]) public creatorPools */\n        tag_103:\n          mstore(0x20, 0x06)\n          dup2\n          0x00\n          mstore\n          keccak256(0x00, 0x40)\n          dup2\n          dup2\n          sload\n          dup2\n          lt\n          tag_171\n          jumpi\n          0x00\n          dup1\n          revert\n        tag_171:\n          swap1\n          0x00\n          mstore\n          keccak256(0x00, 0x20)\n          add\n          0x00\n          swap2\n          pop\n          swap2\n          pop\n          swap1\n          sload\n          swap1\n          0x0100\n          exp\n          swap1\n          div\n          0xffffffffffffffffffffffffffffffffffffffff\n          and\n          dup2\n          jump\t// out\n            /* \"MemberMap.sol\":2104:2308  function addStakeholderToProposal(address account, address proposal)... */\n        tag_107:\n            /* \"MemberMap.sol\":2241:2245  true */\n          0x01\n            /* \"MemberMap.sol\":2205:2219  stakeholderMap */\n          0x03\n            /* \"MemberMap.sol\":2205:2228  stakeholderMap[account] */\n          0x00\n            /* \"MemberMap.sol\":2220:2227  account */\n          dup5\n            /* \"MemberMap.sol\":2205:2228  stakeholderMap[account] */\n          0xffffffffffffffffffffffffffffffffffffffff\n          and\n          0xffffffffffffffffffffffffffffffffffffffff\n          and\n          dup2\n          mstore\n          0x20\n          add\n          swap1\n          dup2\n          mstore\n          0x20\n          add\n          0x00\n          keccak256\n            /* \"MemberMap.sol\":2205:2238  stakeholderMap[account][proposal] */\n          0x00\n            /* \"MemberMap.sol\":2229:2237  proposal */\n          dup4\n            /* \"MemberMap.sol\":2205:2238  stakeholderMap[account][proposal] */\n          0xffffffffffffffffffffffffffffffffffffffff\n          and\n          0xffffffffffffffffffffffffffffffffffffffff\n          and\n          dup2\n          mstore\n          0x20\n          add\n          swap1\n          dup2\n          mstore\n          0x20\n          add\n          0x00\n          keccak256\n          0x00\n            /* \"MemberMap.sol\":2205:2245  stakeholderMap[account][proposal] = true */\n          0x0100\n          exp\n          dup2\n          sload\n          dup2\n          0xff\n          mul\n          not\n          and\n          swap1\n          dup4\n          iszero\n          iszero\n          mul\n          or\n          swap1\n          sstore\n          pop\n            /* \"MemberMap.sol\":2256:2276  stakeholderProposals */\n          0x04\n            /* \"MemberMap.sol\":2256:2285  stakeholderProposals[account] */\n          0x00\n            /* \"MemberMap.sol\":2277:2284  account */\n          dup4\n            /* \"MemberMap.sol\":2256:2285  stakeholderProposals[account] */\n          0xffffffffffffffffffffffffffffffffffffffff\n          and\n          0xffffffffffffffffffffffffffffffffffffffff\n          and\n          dup2\n          mstore\n          0x20\n          add\n          swap1\n          dup2\n          mstore\n          0x20\n          add\n          0x00\n          keccak256\n            /* \"MemberMap.sol\":2291:2299  proposal */\n          dup2\n            /* \"MemberMap.sol\":2256:2300  stakeholderProposals[account].push(proposal) */\n          swap1\n          dup1\n          0x01\n          dup2\n          sload\n          add\n          dup1\n          dup3\n          sstore\n          dup1\n          swap2\n          pop\n          pop\n          0x01\n          swap1\n          sub\n          swap1\n          0x00\n          mstore\n          keccak256(0x00, 0x20)\n          add\n          0x00\n          swap1\n          swap2\n          swap1\n          swap2\n          swap1\n          swap2\n          0x0100\n          exp\n          dup2\n          sload\n          dup2\n          0xffffffffffffffffffffffffffffffffffffffff\n          mul\n          not\n          and\n          swap1\n          dup4\n          0xffffffffffffffffffffffffffffffffffffffff\n          and\n          mul\n          or\n          swap1\n          sstore\n          pop\n            /* \"MemberMap.sol\":2104:2308  function addStakeholderToProposal(address account, address proposal)... */\n          pop\n          pop\n          jump\t// out\n            /* \"MemberMap.sol\":1280:1465  function getMemberPools(address member)... */\n        tag_110:\n            /* \"MemberMap.sol\":1368:1384  address[] memory */\n          0x60\n            /* \"MemberMap.sol\":1424:1438  memberProjects */\n          0x02\n            /* \"MemberMap.sol\":1424:1446  memberProjects[member] */\n          0x00\n            /* \"MemberMap.sol\":1439:1445  member */\n          dup4\n            /* \"MemberMap.sol\":1424:1446  memberProjects[member] */\n          0xffffffffffffffffffffffffffffffffffffffff\n          and\n          0xffffffffffffffffffffffffffffffffffffffff\n          and\n          dup2\n          mstore\n          0x20\n          add\n          swap1\n          dup2\n          mstore\n          0x20\n          add\n          0x00\n          keccak256\n            /* \"MemberMap.sol\":1417:1446  return memberProjects[member] */\n          dup1\n          sload\n          dup1\n          0x20\n          mul\n          0x20\n          add\n          mload(0x40)\n          swap1\n          dup2\n          add\n          0x40\n          mstore\n          dup1\n          swap3\n          swap2\n          swap1\n          dup2\n          dup2\n          mstore\n          0x20\n          add\n          dup3\n          dup1\n          sload\n          dup1\n          iszero\n          tag_176\n          jumpi\n          0x20\n          mul\n          dup3\n          add\n          swap2\n          swap1\n          0x00\n          mstore\n          keccak256(0x00, 0x20)\n          swap1\n        tag_177:\n          dup2\n          0x00\n          swap1\n          sload\n          swap1\n          0x0100\n          exp\n          swap1\n          div\n          0xffffffffffffffffffffffffffffffffffffffff\n          and\n          0xffffffffffffffffffffffffffffffffffffffff\n          and\n          dup2\n          mstore\n          0x20\n          add\n          swap1\n          0x01\n          add\n          swap1\n          dup1\n          dup4\n          gt\n          tag_177\n          jumpi\n        tag_176:\n          pop\n          pop\n          pop\n          pop\n          pop\n          swap1\n          pop\n            /* \"MemberMap.sol\":1280:1465  function getMemberPools(address member)... */\n          swap2\n          swap1\n          pop\n          jump\t// out\n            /* \"#utility.yul\":88:205   */\n        tag_179:\n            /* \"#utility.yul\":197:198   */\n          0x00\n            /* \"#utility.yul\":194:195   */\n          dup1\n            /* \"#utility.yul\":187:199   */\n          revert\n            /* \"#utility.yul\":334:460   */\n        tag_181:\n            /* \"#utility.yul\":371:378   */\n          0x00\n            /* \"#utility.yul\":411:453   */\n          0xffffffffffffffffffffffffffffffffffffffff\n            /* \"#utility.yul\":404:409   */\n          dup3\n            /* \"#utility.yul\":400:454   */\n          and\n            /* \"#utility.yul\":389:454   */\n          swap1\n          pop\n            /* \"#utility.yul\":334:460   */\n          swap2\n          swap1\n          pop\n          jump\t// out\n            /* \"#utility.yul\":466:562   */\n        tag_182:\n            /* \"#utility.yul\":503:510   */\n          0x00\n            /* \"#utility.yul\":532:556   */\n          tag_208\n            /* \"#utility.yul\":550:555   */\n          dup3\n            /* \"#utility.yul\":532:556   */\n          tag_181\n          jump\t// in\n        tag_208:\n            /* \"#utility.yul\":521:556   */\n          swap1\n          pop\n            /* \"#utility.yul\":466:562   */\n          swap2\n          swap1\n          pop\n          jump\t// out\n            /* \"#utility.yul\":568:690   */\n        tag_183:\n            /* \"#utility.yul\":641:665   */\n          tag_210\n            /* \"#utility.yul\":659:664   */\n          dup2\n            /* \"#utility.yul\":641:665   */\n          tag_182\n          jump\t// in\n        tag_210:\n            /* \"#utility.yul\":634:639   */\n          dup2\n            /* \"#utility.yul\":631:666   */\n          eq\n            /* \"#utility.yul\":621:684   */\n          tag_211\n          jumpi\n            /* \"#utility.yul\":680:681   */\n          0x00\n            /* \"#utility.yul\":677:678   */\n          dup1\n            /* \"#utility.yul\":670:682   */\n          revert\n            /* \"#utility.yul\":621:684   */\n        tag_211:\n            /* \"#utility.yul\":568:690   */\n          pop\n          jump\t// out\n            /* \"#utility.yul\":696:835   */\n        tag_184:\n            /* \"#utility.yul\":742:747   */\n          0x00\n            /* \"#utility.yul\":780:786   */\n          dup2\n            /* \"#utility.yul\":767:787   */\n          calldataload\n            /* \"#utility.yul\":758:787   */\n          swap1\n          pop\n            /* \"#utility.yul\":796:829   */\n          tag_213\n            /* \"#utility.yul\":823:828   */\n          dup2\n            /* \"#utility.yul\":796:829   */\n          tag_183\n          jump\t// in\n        tag_213:\n            /* \"#utility.yul\":696:835   */\n          swap3\n          swap2\n          pop\n          pop\n          jump\t// out\n            /* \"#utility.yul\":841:918   */\n        tag_185:\n            /* \"#utility.yul\":878:885   */\n          0x00\n            /* \"#utility.yul\":907:912   */\n          dup2\n            /* \"#utility.yul\":896:912   */\n          swap1\n          pop\n            /* \"#utility.yul\":841:918   */\n          swap2\n          swap1\n          pop\n          jump\t// out\n            /* \"#utility.yul\":924:1046   */\n        tag_186:\n            /* \"#utility.yul\":997:1021   */\n          tag_216\n            /* \"#utility.yul\":1015:1020   */\n          dup2\n            /* \"#utility.yul\":997:1021   */\n          tag_185\n          jump\t// in\n        tag_216:\n            /* \"#utility.yul\":990:995   */\n          dup2\n            /* \"#utility.yul\":987:1022   */\n          eq\n            /* \"#utility.yul\":977:1040   */\n          tag_217\n          jumpi\n            /* \"#utility.yul\":1036:1037   */\n          0x00\n            /* \"#utility.yul\":1033:1034   */\n          dup1\n            /* \"#utility.yul\":1026:1038   */\n          revert\n            /* \"#utility.yul\":977:1040   */\n        tag_217:\n            /* \"#utility.yul\":924:1046   */\n          pop\n          jump\t// out\n            /* \"#utility.yul\":1052:1191   */\n        tag_187:\n            /* \"#utility.yul\":1098:1103   */\n          0x00\n            /* \"#utility.yul\":1136:1142   */\n          dup2\n            /* \"#utility.yul\":1123:1143   */\n          calldataload\n            /* \"#utility.yul\":1114:1143   */\n          swap1\n          pop\n            /* \"#utility.yul\":1152:1185   */\n          tag_219\n            /* \"#utility.yul\":1179:1184   */\n          dup2\n            /* \"#utility.yul\":1152:1185   */\n          tag_186\n          jump\t// in\n        tag_219:\n            /* \"#utility.yul\":1052:1191   */\n          swap3\n          swap2\n          pop\n          pop\n          jump\t// out\n            /* \"#utility.yul\":1197:1671   */\n        tag_29:\n            /* \"#utility.yul\":1265:1271   */\n          0x00\n            /* \"#utility.yul\":1273:1279   */\n          dup1\n            /* \"#utility.yul\":1322:1324   */\n          0x40\n            /* \"#utility.yul\":1310:1319   */\n          dup4\n            /* \"#utility.yul\":1301:1308   */\n          dup6\n            /* \"#utility.yul\":1297:1320   */\n          sub\n            /* \"#utility.yul\":1293:1325   */\n          slt\n            /* \"#utility.yul\":1290:1409   */\n          iszero\n          tag_221\n          jumpi\n            /* \"#utility.yul\":1328:1407   */\n          tag_222\n          tag_179\n          jump\t// in\n        tag_222:\n            /* \"#utility.yul\":1290:1409   */\n        tag_221:\n            /* \"#utility.yul\":1448:1449   */\n          0x00\n            /* \"#utility.yul\":1473:1526   */\n          tag_223\n            /* \"#utility.yul\":1518:1525   */\n          dup6\n            /* \"#utility.yul\":1509:1515   */\n          dup3\n            /* \"#utility.yul\":1498:1507   */\n          dup7\n            /* \"#utility.yul\":1494:1516   */\n          add\n            /* \"#utility.yul\":1473:1526   */\n          tag_184\n          jump\t// in\n        tag_223:\n            /* \"#utility.yul\":1463:1526   */\n          swap3\n          pop\n            /* \"#utility.yul\":1419:1536   */\n          pop\n            /* \"#utility.yul\":1575:1577   */\n          0x20\n            /* \"#utility.yul\":1601:1654   */\n          tag_224\n            /* \"#utility.yul\":1646:1653   */\n          dup6\n            /* \"#utility.yul\":1637:1643   */\n          dup3\n            /* \"#utility.yul\":1626:1635   */\n          dup7\n            /* \"#utility.yul\":1622:1644   */\n          add\n            /* \"#utility.yul\":1601:1654   */\n          tag_187\n          jump\t// in\n        tag_224:\n            /* \"#utility.yul\":1591:1654   */\n          swap2\n          pop\n            /* \"#utility.yul\":1546:1664   */\n          pop\n            /* \"#utility.yul\":1197:1671   */\n          swap3\n          pop\n          swap3\n          swap1\n          pop\n          jump\t// out\n            /* \"#utility.yul\":1677:1795   */\n        tag_188:\n            /* \"#utility.yul\":1764:1788   */\n          tag_226\n            /* \"#utility.yul\":1782:1787   */\n          dup2\n            /* \"#utility.yul\":1764:1788   */\n          tag_182\n          jump\t// in\n        tag_226:\n            /* \"#utility.yul\":1759:1762   */\n          dup3\n            /* \"#utility.yul\":1752:1789   */\n          mstore\n            /* \"#utility.yul\":1677:1795   */\n          pop\n          pop\n          jump\t// out\n            /* \"#utility.yul\":1801:2023   */\n        tag_32:\n            /* \"#utility.yul\":1894:1898   */\n          0x00\n            /* \"#utility.yul\":1932:1934   */\n          0x20\n            /* \"#utility.yul\":1921:1930   */\n          dup3\n            /* \"#utility.yul\":1917:1935   */\n          add\n            /* \"#utility.yul\":1909:1935   */\n          swap1\n          pop\n            /* \"#utility.yul\":1945:2016   */\n          tag_228\n            /* \"#utility.yul\":2013:2014   */\n          0x00\n            /* \"#utility.yul\":2002:2011   */\n          dup4\n            /* \"#utility.yul\":1998:2015   */\n          add\n            /* \"#utility.yul\":1989:1995   */\n          dup5\n            /* \"#utility.yul\":1945:2016   */\n          tag_188\n          jump\t// in\n        tag_228:\n            /* \"#utility.yul\":1801:2023   */\n          swap3\n          swap2\n          pop\n          pop\n          jump\t// out\n            /* \"#utility.yul\":2029:2503   */\n        tag_35:\n            /* \"#utility.yul\":2097:2103   */\n          0x00\n            /* \"#utility.yul\":2105:2111   */\n          dup1\n            /* \"#utility.yul\":2154:2156   */\n          0x40\n            /* \"#utility.yul\":2142:2151   */\n          dup4\n            /* \"#utility.yul\":2133:2140   */\n          dup6\n            /* \"#utility.yul\":2129:2152   */\n          sub\n            /* \"#utility.yul\":2125:2157   */\n          slt\n            /* \"#utility.yul\":2122:2241   */\n          iszero\n          tag_230\n          jumpi\n            /* \"#utility.yul\":2160:2239   */\n          tag_231\n          tag_179\n          jump\t// in\n        tag_231:\n            /* \"#utility.yul\":2122:2241   */\n        tag_230:\n            /* \"#utility.yul\":2280:2281   */\n          0x00\n            /* \"#utility.yul\":2305:2358   */\n          tag_232\n            /* \"#utility.yul\":2350:2357   */\n          dup6\n            /* \"#utility.yul\":2341:2347   */\n          dup3\n            /* \"#utility.yul\":2330:2339   */\n          dup7\n            /* \"#utility.yul\":2326:2348   */\n          add\n            /* \"#utility.yul\":2305:2358   */\n          tag_184\n          jump\t// in\n        tag_232:\n            /* \"#utility.yul\":2295:2358   */\n          swap3\n          pop\n            /* \"#utility.yul\":2251:2368   */\n          pop\n            /* \"#utility.yul\":2407:2409   */\n          0x20\n            /* \"#utility.yul\":2433:2486   */\n          tag_233\n            /* \"#utility.yul\":2478:2485   */\n          dup6\n            /* \"#utility.yul\":2469:2475   */\n          dup3\n            /* \"#utility.yul\":2458:2467   */\n          dup7\n            /* \"#utility.yul\":2454:2476   */\n          add\n            /* \"#utility.yul\":2433:2486   */\n          tag_184\n          jump\t// in\n        tag_233:\n            /* \"#utility.yul\":2423:2486   */\n          swap2\n          pop\n            /* \"#utility.yul\":2378:2496   */\n          pop\n            /* \"#utility.yul\":2029:2503   */\n          swap3\n          pop\n          swap3\n          swap1\n          pop\n          jump\t// out\n            /* \"#utility.yul\":2509:2599   */\n        tag_189:\n            /* \"#utility.yul\":2543:2550   */\n          0x00\n            /* \"#utility.yul\":2586:2591   */\n          dup2\n            /* \"#utility.yul\":2579:2592   */\n          iszero\n            /* \"#utility.yul\":2572:2593   */\n          iszero\n            /* \"#utility.yul\":2561:2593   */\n          swap1\n          pop\n            /* \"#utility.yul\":2509:2599   */\n          swap2\n          swap1\n          pop\n          jump\t// out\n            /* \"#utility.yul\":2605:2714   */\n        tag_190:\n            /* \"#utility.yul\":2686:2707   */\n          tag_236\n            /* \"#utility.yul\":2701:2706   */\n          dup2\n            /* \"#utility.yul\":2686:2707   */\n          tag_189\n          jump\t// in\n        tag_236:\n            /* \"#utility.yul\":2681:2684   */\n          dup3\n            /* \"#utility.yul\":2674:2708   */\n          mstore\n            /* \"#utility.yul\":2605:2714   */\n          pop\n          pop\n          jump\t// out\n            /* \"#utility.yul\":2720:2930   */\n        tag_38:\n            /* \"#utility.yul\":2807:2811   */\n          0x00\n            /* \"#utility.yul\":2845:2847   */\n          0x20\n            /* \"#utility.yul\":2834:2843   */\n          dup3\n            /* \"#utility.yul\":2830:2848   */\n          add\n            /* \"#utility.yul\":2822:2848   */\n          swap1\n          pop\n            /* \"#utility.yul\":2858:2923   */\n          tag_238\n            /* \"#utility.yul\":2920:2921   */\n          0x00\n            /* \"#utility.yul\":2909:2918   */\n          dup4\n            /* \"#utility.yul\":2905:2922   */\n          add\n            /* \"#utility.yul\":2896:2902   */\n          dup5\n            /* \"#utility.yul\":2858:2923   */\n          tag_190\n          jump\t// in\n        tag_238:\n            /* \"#utility.yul\":2720:2930   */\n          swap3\n          swap2\n          pop\n          pop\n          jump\t// out\n            /* \"#utility.yul\":2936:3265   */\n        tag_52:\n            /* \"#utility.yul\":2995:3001   */\n          0x00\n            /* \"#utility.yul\":3044:3046   */\n          0x20\n            /* \"#utility.yul\":3032:3041   */\n          dup3\n            /* \"#utility.yul\":3023:3030   */\n          dup5\n            /* \"#utility.yul\":3019:3042   */\n          sub\n            /* \"#utility.yul\":3015:3047   */\n          slt\n            /* \"#utility.yul\":3012:3131   */\n          iszero\n          tag_240\n          jumpi\n            /* \"#utility.yul\":3050:3129   */\n          tag_241\n          tag_179\n          jump\t// in\n        tag_241:\n            /* \"#utility.yul\":3012:3131   */\n        tag_240:\n            /* \"#utility.yul\":3170:3171   */\n          0x00\n            /* \"#utility.yul\":3195:3248   */\n          tag_242\n            /* \"#utility.yul\":3240:3247   */\n          dup5\n            /* \"#utility.yul\":3231:3237   */\n          dup3\n            /* \"#utility.yul\":3220:3229   */\n          dup6\n            /* \"#utility.yul\":3216:3238   */\n          add\n            /* \"#utility.yul\":3195:3248   */\n          tag_184\n          jump\t// in\n        tag_242:\n            /* \"#utility.yul\":3185:3248   */\n          swap2\n          pop\n            /* \"#utility.yul\":3141:3258   */\n          pop\n            /* \"#utility.yul\":2936:3265   */\n          swap3\n          swap2\n          pop\n          pop\n          jump\t// out\n            /* \"#utility.yul\":3271:3385   */\n        tag_191:\n            /* \"#utility.yul\":3338:3344   */\n          0x00\n            /* \"#utility.yul\":3372:3377   */\n          dup2\n            /* \"#utility.yul\":3366:3378   */\n          mload\n            /* \"#utility.yul\":3356:3378   */\n          swap1\n          pop\n            /* \"#utility.yul\":3271:3385   */\n          swap2\n          swap1\n          pop\n          jump\t// out\n            /* \"#utility.yul\":3391:3575   */\n        tag_192:\n            /* \"#utility.yul\":3490:3501   */\n          0x00\n            /* \"#utility.yul\":3524:3530   */\n          dup3\n            /* \"#utility.yul\":3519:3522   */\n          dup3\n            /* \"#utility.yul\":3512:3531   */\n          mstore\n            /* \"#utility.yul\":3564:3568   */\n          0x20\n            /* \"#utility.yul\":3559:3562   */\n          dup3\n            /* \"#utility.yul\":3555:3569   */\n          add\n            /* \"#utility.yul\":3540:3569   */\n          swap1\n          pop\n            /* \"#utility.yul\":3391:3575   */\n          swap3\n          swap2\n          pop\n          pop\n          jump\t// out\n            /* \"#utility.yul\":3581:3713   */\n        tag_193:\n            /* \"#utility.yul\":3648:3652   */\n          0x00\n            /* \"#utility.yul\":3671:3674   */\n          dup2\n            /* \"#utility.yul\":3663:3674   */\n          swap1\n          pop\n            /* \"#utility.yul\":3701:3705   */\n          0x20\n            /* \"#utility.yul\":3696:3699   */\n          dup3\n            /* \"#utility.yul\":3692:3706   */\n          add\n            /* \"#utility.yul\":3684:3706   */\n          swap1\n          pop\n            /* \"#utility.yul\":3581:3713   */\n          swap2\n          swap1\n          pop\n          jump\t// out\n            /* \"#utility.yul\":3719:3827   */\n        tag_194:\n            /* \"#utility.yul\":3796:3820   */\n          tag_247\n            /* \"#utility.yul\":3814:3819   */\n          dup2\n            /* \"#utility.yul\":3796:3820   */\n          tag_182\n          jump\t// in\n        tag_247:\n            /* \"#utility.yul\":3791:3794   */\n          dup3\n            /* \"#utility.yul\":3784:3821   */\n          mstore\n            /* \"#utility.yul\":3719:3827   */\n          pop\n          pop\n          jump\t// out\n            /* \"#utility.yul\":3833:4012   */\n        tag_195:\n            /* \"#utility.yul\":3902:3912   */\n          0x00\n            /* \"#utility.yul\":3923:3969   */\n          tag_249\n            /* \"#utility.yul\":3965:3968   */\n          dup4\n            /* \"#utility.yul\":3957:3963   */\n          dup4\n            /* \"#utility.yul\":3923:3969   */\n          tag_194\n          jump\t// in\n        tag_249:\n            /* \"#utility.yul\":4001:4005   */\n          0x20\n            /* \"#utility.yul\":3996:3999   */\n          dup4\n            /* \"#utility.yul\":3992:4006   */\n          add\n            /* \"#utility.yul\":3978:4006   */\n          swap1\n          pop\n            /* \"#utility.yul\":3833:4012   */\n          swap3\n          swap2\n          pop\n          pop\n          jump\t// out\n            /* \"#utility.yul\":4018:4131   */\n        tag_196:\n            /* \"#utility.yul\":4088:4092   */\n          0x00\n            /* \"#utility.yul\":4120:4124   */\n          0x20\n            /* \"#utility.yul\":4115:4118   */\n          dup3\n            /* \"#utility.yul\":4111:4125   */\n          add\n            /* \"#utility.yul\":4103:4125   */\n          swap1\n          pop\n            /* \"#utility.yul\":4018:4131   */\n          swap2\n          swap1\n          pop\n          jump\t// out\n            /* \"#utility.yul\":4167:4899   */\n        tag_197:\n            /* \"#utility.yul\":4286:4289   */\n          0x00\n            /* \"#utility.yul\":4315:4369   */\n          tag_252\n            /* \"#utility.yul\":4363:4368   */\n          dup3\n            /* \"#utility.yul\":4315:4369   */\n          tag_191\n          jump\t// in\n        tag_252:\n            /* \"#utility.yul\":4385:4471   */\n          tag_253\n            /* \"#utility.yul\":4464:4470   */\n          dup2\n            /* \"#utility.yul\":4459:4462   */\n          dup6\n            /* \"#utility.yul\":4385:4471   */\n          tag_192\n          jump\t// in\n        tag_253:\n            /* \"#utility.yul\":4378:4471   */\n          swap4\n          pop\n            /* \"#utility.yul\":4495:4551   */\n          tag_254\n            /* \"#utility.yul\":4545:4550   */\n          dup4\n            /* \"#utility.yul\":4495:4551   */\n          tag_193\n          jump\t// in\n        tag_254:\n            /* \"#utility.yul\":4574:4581   */\n          dup1\n            /* \"#utility.yul\":4605:4606   */\n          0x00\n            /* \"#utility.yul\":4590:4874   */\n        tag_255:\n            /* \"#utility.yul\":4615:4621   */\n          dup4\n            /* \"#utility.yul\":4612:4613   */\n          dup2\n            /* \"#utility.yul\":4609:4622   */\n          lt\n            /* \"#utility.yul\":4590:4874   */\n          iszero\n          tag_257\n          jumpi\n            /* \"#utility.yul\":4691:4697   */\n          dup2\n            /* \"#utility.yul\":4685:4698   */\n          mload\n            /* \"#utility.yul\":4718:4781   */\n          tag_258\n            /* \"#utility.yul\":4777:4780   */\n          dup9\n            /* \"#utility.yul\":4762:4775   */\n          dup3\n            /* \"#utility.yul\":4718:4781   */\n          tag_195\n          jump\t// in\n        tag_258:\n            /* \"#utility.yul\":4711:4781   */\n          swap8\n          pop\n            /* \"#utility.yul\":4804:4864   */\n          tag_259\n            /* \"#utility.yul\":4857:4863   */\n          dup4\n            /* \"#utility.yul\":4804:4864   */\n          tag_196\n          jump\t// in\n        tag_259:\n            /* \"#utility.yul\":4794:4864   */\n          swap3\n          pop\n            /* \"#utility.yul\":4650:4874   */\n          pop\n            /* \"#utility.yul\":4637:4638   */\n          0x01\n            /* \"#utility.yul\":4634:4635   */\n          dup2\n            /* \"#utility.yul\":4630:4639   */\n          add\n            /* \"#utility.yul\":4625:4639   */\n          swap1\n          pop\n            /* \"#utility.yul\":4590:4874   */\n          jump(tag_255)\n        tag_257:\n            /* \"#utility.yul\":4594:4608   */\n          pop\n            /* \"#utility.yul\":4890:4893   */\n          dup6\n            /* \"#utility.yul\":4883:4893   */\n          swap4\n          pop\n            /* \"#utility.yul\":4291:4899   */\n          pop\n          pop\n          pop\n            /* \"#utility.yul\":4167:4899   */\n          swap3\n          swap2\n          pop\n          pop\n          jump\t// out\n            /* \"#utility.yul\":4905:5278   */\n        tag_55:\n            /* \"#utility.yul\":5048:5052   */\n          0x00\n            /* \"#utility.yul\":5086:5088   */\n          0x20\n            /* \"#utility.yul\":5075:5084   */\n          dup3\n            /* \"#utility.yul\":5071:5089   */\n          add\n            /* \"#utility.yul\":5063:5089   */\n          swap1\n          pop\n            /* \"#utility.yul\":5135:5144   */\n          dup2\n            /* \"#utility.yul\":5129:5133   */\n          dup2\n            /* \"#utility.yul\":5125:5145   */\n          sub\n            /* \"#utility.yul\":5121:5122   */\n          0x00\n            /* \"#utility.yul\":5110:5119   */\n          dup4\n            /* \"#utility.yul\":5106:5123   */\n          add\n            /* \"#utility.yul\":5099:5146   */\n          mstore\n            /* \"#utility.yul\":5163:5271   */\n          tag_261\n            /* \"#utility.yul\":5266:5270   */\n          dup2\n            /* \"#utility.yul\":5257:5263   */\n          dup5\n            /* \"#utility.yul\":5163:5271   */\n          tag_197\n          jump\t// in\n        tag_261:\n            /* \"#utility.yul\":5155:5271   */\n          swap1\n          pop\n            /* \"#utility.yul\":4905:5278   */\n          swap3\n          swap2\n          pop\n          pop\n          jump\t// out\n            /* \"#utility.yul\":5284:5613   */\n        tag_70:\n            /* \"#utility.yul\":5343:5349   */\n          0x00\n            /* \"#utility.yul\":5392:5394   */\n          0x20\n            /* \"#utility.yul\":5380:5389   */\n          dup3\n            /* \"#utility.yul\":5371:5378   */\n          dup5\n            /* \"#utility.yul\":5367:5390   */\n          sub\n            /* \"#utility.yul\":5363:5395   */\n          slt\n            /* \"#utility.yul\":5360:5479   */\n          iszero\n          tag_263\n          jumpi\n            /* \"#utility.yul\":5398:5477   */\n          tag_264\n          tag_179\n          jump\t// in\n        tag_264:\n            /* \"#utility.yul\":5360:5479   */\n        tag_263:\n            /* \"#utility.yul\":5518:5519   */\n          0x00\n            /* \"#utility.yul\":5543:5596   */\n          tag_265\n            /* \"#utility.yul\":5588:5595   */\n          dup5\n            /* \"#utility.yul\":5579:5585   */\n          dup3\n            /* \"#utility.yul\":5568:5577   */\n          dup6\n            /* \"#utility.yul\":5564:5586   */\n          add\n            /* \"#utility.yul\":5543:5596   */\n          tag_187\n          jump\t// in\n        tag_265:\n            /* \"#utility.yul\":5533:5596   */\n          swap2\n          pop\n            /* \"#utility.yul\":5489:5606   */\n          pop\n            /* \"#utility.yul\":5284:5613   */\n          swap3\n          swap2\n          pop\n          pop\n          jump\t// out\n            /* \"#utility.yul\":5619:5799   */\n        tag_129:\n            /* \"#utility.yul\":5667:5744   */\n          0x4e487b7100000000000000000000000000000000000000000000000000000000\n            /* \"#utility.yul\":5664:5665   */\n          0x00\n            /* \"#utility.yul\":5657:5745   */\n          mstore\n            /* \"#utility.yul\":5764:5768   */\n          0x32\n            /* \"#utility.yul\":5761:5762   */\n          0x04\n            /* \"#utility.yul\":5754:5769   */\n          mstore\n            /* \"#utility.yul\":5788:5792   */\n          0x24\n            /* \"#utility.yul\":5785:5786   */\n          0x00\n            /* \"#utility.yul\":5778:5793   */\n          revert\n            /* \"#utility.yul\":5805:5985   */\n        tag_198:\n            /* \"#utility.yul\":5853:5930   */\n          0x4e487b7100000000000000000000000000000000000000000000000000000000\n            /* \"#utility.yul\":5850:5851   */\n          0x00\n            /* \"#utility.yul\":5843:5931   */\n          mstore\n            /* \"#utility.yul\":5950:5954   */\n          0x11\n            /* \"#utility.yul\":5947:5948   */\n          0x04\n            /* \"#utility.yul\":5940:5955   */\n          mstore\n            /* \"#utility.yul\":5974:5978   */\n          0x24\n            /* \"#utility.yul\":5971:5972   */\n          0x00\n            /* \"#utility.yul\":5964:5979   */\n          revert\n            /* \"#utility.yul\":5991:6182   */\n        tag_132:\n            /* \"#utility.yul\":6031:6034   */\n          0x00\n            /* \"#utility.yul\":6050:6070   */\n          tag_269\n            /* \"#utility.yul\":6068:6069   */\n          dup3\n            /* \"#utility.yul\":6050:6070   */\n          tag_185\n          jump\t// in\n        tag_269:\n            /* \"#utility.yul\":6045:6070   */\n          swap2\n          pop\n            /* \"#utility.yul\":6084:6104   */\n          tag_270\n            /* \"#utility.yul\":6102:6103   */\n          dup4\n            /* \"#utility.yul\":6084:6104   */\n          tag_185\n          jump\t// in\n        tag_270:\n            /* \"#utility.yul\":6079:6104   */\n          swap3\n          pop\n            /* \"#utility.yul\":6127:6128   */\n          dup3\n            /* \"#utility.yul\":6124:6125   */\n          dup3\n            /* \"#utility.yul\":6120:6129   */\n          add\n            /* \"#utility.yul\":6113:6129   */\n          swap1\n          pop\n            /* \"#utility.yul\":6148:6151   */\n          dup1\n            /* \"#utility.yul\":6145:6146   */\n          dup3\n            /* \"#utility.yul\":6142:6152   */\n          gt\n            /* \"#utility.yul\":6139:6175   */\n          iszero\n          tag_271\n          jumpi\n            /* \"#utility.yul\":6155:6173   */\n          tag_272\n          tag_198\n          jump\t// in\n        tag_272:\n            /* \"#utility.yul\":6139:6175   */\n        tag_271:\n            /* \"#utility.yul\":5991:6182   */\n          swap3\n          swap2\n          pop\n          pop\n          jump\t// out\n            /* \"#utility.yul\":6188:6357   */\n        tag_199:\n            /* \"#utility.yul\":6272:6283   */\n          0x00\n            /* \"#utility.yul\":6306:6312   */\n          dup3\n            /* \"#utility.yul\":6301:6304   */\n          dup3\n            /* \"#utility.yul\":6294:6313   */\n          mstore\n            /* \"#utility.yul\":6346:6350   */\n          0x20\n            /* \"#utility.yul\":6341:6344   */\n          dup3\n            /* \"#utility.yul\":6337:6351   */\n          add\n            /* \"#utility.yul\":6322:6351   */\n          swap1\n          pop\n            /* \"#utility.yul\":6188:6357   */\n          swap3\n          swap2\n          pop\n          pop\n          jump\t// out\n            /* \"#utility.yul\":6363:6525   */\n        tag_200:\n            /* \"#utility.yul\":6503:6517   */\n          0x4f7574206f6620496e6465780000000000000000000000000000000000000000\n            /* \"#utility.yul\":6499:6500   */\n          0x00\n            /* \"#utility.yul\":6491:6497   */\n          dup3\n            /* \"#utility.yul\":6487:6501   */\n          add\n            /* \"#utility.yul\":6480:6518   */\n          mstore\n            /* \"#utility.yul\":6363:6525   */\n          pop\n          jump\t// out\n            /* \"#utility.yul\":6531:6897   */\n        tag_201:\n            /* \"#utility.yul\":6673:6676   */\n          0x00\n            /* \"#utility.yul\":6694:6761   */\n          tag_276\n            /* \"#utility.yul\":6758:6760   */\n          0x0c\n            /* \"#utility.yul\":6753:6756   */\n          dup4\n            /* \"#utility.yul\":6694:6761   */\n          tag_199\n          jump\t// in\n        tag_276:\n            /* \"#utility.yul\":6687:6761   */\n          swap2\n          pop\n            /* \"#utility.yul\":6770:6863   */\n          tag_277\n            /* \"#utility.yul\":6859:6862   */\n          dup3\n            /* \"#utility.yul\":6770:6863   */\n          tag_200\n          jump\t// in\n        tag_277:\n            /* \"#utility.yul\":6888:6890   */\n          0x20\n            /* \"#utility.yul\":6883:6886   */\n          dup3\n            /* \"#utility.yul\":6879:6891   */\n          add\n            /* \"#utility.yul\":6872:6891   */\n          swap1\n          pop\n            /* \"#utility.yul\":6531:6897   */\n          swap2\n          swap1\n          pop\n          jump\t// out\n            /* \"#utility.yul\":6903:7322   */\n        tag_146:\n            /* \"#utility.yul\":7069:7073   */\n          0x00\n            /* \"#utility.yul\":7107:7109   */\n          0x20\n            /* \"#utility.yul\":7096:7105   */\n          dup3\n            /* \"#utility.yul\":7092:7110   */\n          add\n            /* \"#utility.yul\":7084:7110   */\n          swap1\n          pop\n            /* \"#utility.yul\":7156:7165   */\n          dup2\n            /* \"#utility.yul\":7150:7154   */\n          dup2\n            /* \"#utility.yul\":7146:7166   */\n          sub\n            /* \"#utility.yul\":7142:7143   */\n          0x00\n            /* \"#utility.yul\":7131:7140   */\n          dup4\n            /* \"#utility.yul\":7127:7144   */\n          add\n            /* \"#utility.yul\":7120:7167   */\n          mstore\n            /* \"#utility.yul\":7184:7315   */\n          tag_279\n            /* \"#utility.yul\":7310:7314   */\n          dup2\n            /* \"#utility.yul\":7184:7315   */\n          tag_201\n          jump\t// in\n        tag_279:\n            /* \"#utility.yul\":7176:7315   */\n          swap1\n          pop\n            /* \"#utility.yul\":6903:7322   */\n          swap2\n          swap1\n          pop\n          jump\t// out\n            /* \"#utility.yul\":7328:7522   */\n        tag_148:\n            /* \"#utility.yul\":7368:7372   */\n          0x00\n            /* \"#utility.yul\":7388:7408   */\n          tag_281\n            /* \"#utility.yul\":7406:7407   */\n          dup3\n            /* \"#utility.yul\":7388:7408   */\n          tag_185\n          jump\t// in\n        tag_281:\n            /* \"#utility.yul\":7383:7408   */\n          swap2\n          pop\n            /* \"#utility.yul\":7422:7442   */\n          tag_282\n            /* \"#utility.yul\":7440:7441   */\n          dup4\n            /* \"#utility.yul\":7422:7442   */\n          tag_185\n          jump\t// in\n        tag_282:\n            /* \"#utility.yul\":7417:7442   */\n          swap3\n          pop\n            /* \"#utility.yul\":7466:7467   */\n          dup3\n            /* \"#utility.yul\":7463:7464   */\n          dup3\n            /* \"#utility.yul\":7459:7468   */\n          sub\n            /* \"#utility.yul\":7451:7468   */\n          swap1\n          pop\n            /* \"#utility.yul\":7490:7491   */\n          dup2\n            /* \"#utility.yul\":7484:7488   */\n          dup2\n            /* \"#utility.yul\":7481:7492   */\n          gt\n            /* \"#utility.yul\":7478:7515   */\n          iszero\n          tag_283\n          jumpi\n            /* \"#utility.yul\":7495:7513   */\n          tag_284\n          tag_198\n          jump\t// in\n        tag_284:\n            /* \"#utility.yul\":7478:7515   */\n        tag_283:\n            /* \"#utility.yul\":7328:7522   */\n          swap3\n          swap2\n          pop\n          pop\n          jump\t// out\n            /* \"#utility.yul\":7528:7708   */\n        tag_157:\n            /* \"#utility.yul\":7576:7653   */\n          0x4e487b7100000000000000000000000000000000000000000000000000000000\n            /* \"#utility.yul\":7573:7574   */\n          0x00\n            /* \"#utility.yul\":7566:7654   */\n          mstore\n            /* \"#utility.yul\":7673:7677   */\n          0x31\n            /* \"#utility.yul\":7670:7671   */\n          0x04\n            /* \"#utility.yul\":7663:7678   */\n          mstore\n            /* \"#utility.yul\":7697:7701   */\n          0x24\n            /* \"#utility.yul\":7694:7695   */\n          0x00\n            /* \"#utility.yul\":7687:7702   */\n          revert\n\n        auxdata: 0xa2646970667358221220bb02d3554ffd91c92f5cbcb0def5996169b89f044ce9ffcb6941c2fc8653608764736f6c63430008110033\n    }\n}\n","bytecode":{"linkReferences":{},"object":"60c060405234801561001057600080fd5b503073ffffffffffffffffffffffffffffffffffffffff1660808173ffffffffffffffffffffffffffffffffffffffff1681525050336000806101000a81548173ffffffffffffffffffffffffffffffffffffffff021916908373ffffffffffffffffffffffffffffffffffffffff160217905550604051610091906100e6565b604051809103906000f0801580156100ad573d6000803e3d6000fd5b5073ffffffffffffffffffffffffffffffffffffffff1660a08173ffffffffffffffffffffffffffffffffffffffff16815250506100f3565b61182c80614b6283390190565b60805160a051614a4361011f6000396000818161018f0152610292015260006103cb0152614a436000f3fe60806040523480156200001157600080fd5b5060043610620000525760003560e01c80632845a59114620000575780635dd6ba6614620000795780638da5cb5b1462000099578063ac4afa3814620000bb575b600080fd5b62000061620000f1565b60405162000070919062000542565b60405180910390f35b620000976004803603810190620000919190620006dc565b62000181565b005b620000a362000365565b604051620000b291906200073e565b60405180910390f35b620000d96004803603810190620000d3919062000796565b62000389565b604051620000e891906200073e565b60405180910390f35b606060018054806020026020016040519081016040528092919081815260200182805480156200017757602002820191906000526020600020905b8160009054906101000a900473ffffffffffffffffffffffffffffffffffffffff1673ffffffffffffffffffffffffffffffffffffffff16815260200190600101908083116200012c575b5050505050905090565b6200018b620003c9565b60007f000000000000000000000000000000000000000000000000000000000000000030604051620001bd9062000424565b620001ca929190620007c8565b604051809103906000f080158015620001e7573d6000803e3d6000fd5b5090506000813384604051620001fd9062000432565b6200020b939291906200087e565b604051809103906000f08015801562000228573d6000803e3d6000fd5b5090506001819080600181540180825580915050600190039060005260206000200160009091909190916101000a81548173ffffffffffffffffffffffffffffffffffffffff021916908373ffffffffffffffffffffffffffffffffffffffff16021790555060007f000000000000000000000000000000000000000000000000000000000000000090508073ffffffffffffffffffffffffffffffffffffffff1663ec3140a333846040518363ffffffff1660e01b8152600401620002f0929190620007c8565b600060405180830381600087803b1580156200030b57600080fd5b505af115801562000320573d6000803e3d6000fd5b505050507f290f0e8c1a21b082a43dd3aae739716dd596fc1431641c8075c0a84dc92c4655338360405162000357929190620007c8565b60405180910390a150505050565b60008054906101000a900473ffffffffffffffffffffffffffffffffffffffff1681565b600181815481106200039a57600080fd5b906000526020600020016000915054906101000a900473ffffffffffffffffffffffffffffffffffffffff1681565b7f000000000000000000000000000000000000000000000000000000000000000073ffffffffffffffffffffffffffffffffffffffff163073ffffffffffffffffffffffffffffffffffffffff16146200042257600080fd5b565b61219280620008c383390190565b611fb98062002a5583390190565b600081519050919050565b600082825260208201905092915050565b6000819050602082019050919050565b600073ffffffffffffffffffffffffffffffffffffffff82169050919050565b600062000499826200046c565b9050919050565b620004ab816200048c565b82525050565b6000620004bf8383620004a0565b60208301905092915050565b6000602082019050919050565b6000620004e58262000440565b620004f181856200044b565b9350620004fe836200045c565b8060005b8381101562000535578151620005198882620004b1565b97506200052683620004cb565b92505060018101905062000502565b5085935050505092915050565b600060208201905081810360008301526200055e8184620004d8565b905092915050565b6000604051905090565b600080fd5b600080fd5b600080fd5b600080fd5b6000601f19601f8301169050919050565b7f4e487b7100000000000000000000000000000000000000000000000000000000600052604160045260246000fd5b620005cf8262000584565b810181811067ffffffffffffffff82111715620005f157620005f062000595565b5b80604052505050565b60006200060662000566565b9050620006148282620005c4565b919050565b600067ffffffffffffffff82111562000637576200063662000595565b5b620006428262000584565b9050602081019050919050565b82818337600083830152505050565b6000620006756200066f8462000619565b620005fa565b9050828152602081018484840111156200069457620006936200057f565b5b620006a18482856200064f565b509392505050565b600082601f830112620006c157620006c06200057a565b5b8135620006d38482602086016200065e565b91505092915050565b600060208284031215620006f557620006f462000570565b5b600082013567ffffffffffffffff81111562000716576200071562000575565b5b6200072484828501620006a9565b91505092915050565b62000738816200048c565b82525050565b60006020820190506200075560008301846200072d565b92915050565b6000819050919050565b62000770816200075b565b81146200077c57600080fd5b50565b600081359050620007908162000765565b92915050565b600060208284031215620007af57620007ae62000570565b5b6000620007bf848285016200077f565b91505092915050565b6000604082019050620007df60008301856200072d565b620007ee60208301846200072d565b9392505050565b600081519050919050565b600082825260208201905092915050565b60005b838110156200083157808201518184015260208101905062000814565b60008484015250505050565b60006200084a82620007f5565b62000856818562000800565b93506200086881856020860162000811565b620008738162000584565b840191505092915050565b60006060820190506200089560008301866200072d565b620008a460208301856200072d565b8181036040830152620008b881846200083d565b905094935050505056fe60a06040523480156200001157600080fd5b50604051620021923803806200219283398181016040528101906200003791906200011e565b81600660006101000a81548173ffffffffffffffffffffffffffffffffffffffff021916908373ffffffffffffffffffffffffffffffffffffffff1602179055508073ffffffffffffffffffffffffffffffffffffffff1660808173ffffffffffffffffffffffffffffffffffffffff1681525050505062000165565b600080fd5b600073ffffffffffffffffffffffffffffffffffffffff82169050919050565b6000620000e682620000b9565b9050919050565b620000f881620000d9565b81146200010457600080fd5b50565b6000815190506200011881620000ed565b92915050565b60008060408385031215620001385762000137620000b4565b5b6000620001488582860162000107565b92505060206200015b8582860162000107565b9150509250929050565b6080516120146200017e600039600050506120146000f3fe608060405234801561001057600080fd5b506004361061009d5760003560e01c80638c468cd4116100665780638c468cd414610144578063b672bdcb14610174578063d9a87535146101a4578063f6ec9738146101d4578063fd591902146101f05761009d565b8062ad808f146100a25780631292a282146100d2578063273f868e146100ee57806328f4694c1461010a578063455772d214610126575b600080fd5b6100bc60048036038101906100b791906113e4565b61020c565b6040516100c991906114a1565b60405180910390f35b6100ec60048036038101906100e791906113e4565b6103de565b005b610108600480360381019061010391906113e4565b6105d2565b005b610124600480360381019061011f91906113e4565b6107f6565b005b61012e610bd4565b60405161013b9190611581565b60405180910390f35b61015e600480360381019061015991906115d9565b610d63565b60405161016b9190611615565b60405180910390f35b61018e600480360381019061018991906113e4565b610da2565b60405161019b919061163f565b60405180910390f35b6101be60048036038101906101b991906113e4565b610deb565b6040516101cb919061163f565b60405180910390f35b6101ee60048036038101906101e991906113e4565b610e37565b005b61020a600480360381019061020591906116bf565b610e7b565b005b606033600660009054906101000a900473ffffffffffffffffffffffffffffffffffffffff1673ffffffffffffffffffffffffffffffffffffffff166339ac7a0882600760009054906101000a900473ffffffffffffffffffffffffffffffffffffffff166040518363ffffffff1660e01b815260040161028e92919061170c565b602060405180830381865afa1580156102ab573d6000803e3d6000fd5b505050506040513d601f19601f820116820180604052508101906102cf919061176d565b61030e576040517f08c379a0000000000000000000000000000000000000000000000000000000008152600401610305906117e6565b60405180910390fd5b600460008473ffffffffffffffffffffffffffffffffffffffff1673ffffffffffffffffffffffffffffffffffffffff168152602001908152602001600020805461035890611835565b80601f016020809104026020016040519081016040528092919081815260200182805461038490611835565b80156103d15780601f106103a6576101008083540402835291602001916103d1565b820191906000526020600020905b8154815290600101906020018083116103b457829003601f168201915b5050505050915050919050565b33600760009054906101000a900473ffffffffffffffffffffffffffffffffffffffff1673ffffffffffffffffffffffffffffffffffffffff168173ffffffffffffffffffffffffffffffffffffffff161461046f576040517f08c379a0000000000000000000000000000000000000000000000000000000008152600401610466906118b2565b60405180910390fd5b600760009054906101000a900473ffffffffffffffffffffffffffffffffffffffff1673ffffffffffffffffffffffffffffffffffffffff163373ffffffffffffffffffffffffffffffffffffffff16146104c957600080fd5b600660009054906101000a900473ffffffffffffffffffffffffffffffffffffffff1673ffffffffffffffffffffffffffffffffffffffff16639d58b15d600760009054906101000a900473ffffffffffffffffffffffffffffffffffffffff16846040518363ffffffff1660e01b815260040161054892919061170c565b600060405180830381600087803b15801561056257600080fd5b505af1158015610576573d6000803e3d6000fd5b50505050610583826111b2565b600160003373ffffffffffffffffffffffffffffffffffffffff1673ffffffffffffffffffffffffffffffffffffffff16815260200190815260200160002060006105ce919061133e565b5050565b33600760009054906101000a900473ffffffffffffffffffffffffffffffffffffffff1673ffffffffffffffffffffffffffffffffffffffff168173ffffffffffffffffffffffffffffffffffffffff1614610663576040517f08c379a000000000000000000000000000000000000000000000000000000000815260040161065a906118b2565b60405180910390fd5b600360008373ffffffffffffffffffffffffffffffffffffffff1673ffffffffffffffffffffffffffffffffffffffff16815260200190815260200160002060009054906101000a900460ff166106ef576040517f08c379a00000000000000000000000000000000000000000000000000000000081526004016106e69061191e565b60405180910390fd5b6000600360008473ffffffffffffffffffffffffffffffffffffffff1673ffffffffffffffffffffffffffffffffffffffff16815260200190815260200160002060006101000a81548160ff0219169083151502179055506001600260003373ffffffffffffffffffffffffffffffffffffffff1673ffffffffffffffffffffffffffffffffffffffff16815260200190815260200160002060008282546107979190611977565b925050819055506107a7826111b2565b600160003373ffffffffffffffffffffffffffffffffffffffff1673ffffffffffffffffffffffffffffffffffffffff16815260200190815260200160002060006107f2919061133e565b5050565b33600660009054906101000a900473ffffffffffffffffffffffffffffffffffffffff1673ffffffffffffffffffffffffffffffffffffffff166339ac7a0882600760009054906101000a900473ffffffffffffffffffffffffffffffffffffffff166040518363ffffffff1660e01b815260040161087692919061170c565b602060405180830381865afa158015610893573d6000803e3d6000fd5b505050506040513d601f19601f820116820180604052508101906108b7919061176d565b6108f6576040517f08c379a00000000000000000000000000000000000000000000000000000000081526004016108ed906117e6565b60405180910390fd5b600360008373ffffffffffffffffffffffffffffffffffffffff1673ffffffffffffffffffffffffffffffffffffffff16815260200190815260200160002060009054906101000a900460ff16610982576040517f08c379a000000000000000000000000000000000000000000000000000000000815260040161097990611a06565b60405180910390fd5b6000805b600160008573ffffffffffffffffffffffffffffffffffffffff1673ffffffffffffffffffffffffffffffffffffffff16815260200190815260200160002080549050811015610a96573373ffffffffffffffffffffffffffffffffffffffff16600160008673ffffffffffffffffffffffffffffffffffffffff1673ffffffffffffffffffffffffffffffffffffffff1681526020019081526020016000208281548110610a3857610a37611a26565b5b9060005260206000200160009054906101000a900473ffffffffffffffffffffffffffffffffffffffff1673ffffffffffffffffffffffffffffffffffffffff1603610a8357600191505b8080610a8e90611a55565b915050610986565b508015610ad8576040517f08c379a0000000000000000000000000000000000000000000000000000000008152600401610acf90611ae9565b60405180910390fd5b600160008473ffffffffffffffffffffffffffffffffffffffff1673ffffffffffffffffffffffffffffffffffffffff168152602001908152602001600020339080600181540180825580915050600190039060005260206000200160009091909190916101000a81548173ffffffffffffffffffffffffffffffffffffffff021916908373ffffffffffffffffffffffffffffffffffffffff1602179055506001600260008573ffffffffffffffffffffffffffffffffffffffff1673ffffffffffffffffffffffffffffffffffffffff1681526020019081526020016000206000828254610bc89190611b09565b92505081905550505050565b606033600660009054906101000a900473ffffffffffffffffffffffffffffffffffffffff1673ffffffffffffffffffffffffffffffffffffffff166339ac7a0882600760009054906101000a900473ffffffffffffffffffffffffffffffffffffffff166040518363ffffffff1660e01b8152600401610c5692919061170c565b602060405180830381865afa158015610c73573d6000803e3d6000fd5b505050506040513d601f19601f82011682018060405250810190610c97919061176d565b610cd6576040517f08c379a0000000000000000000000000000000000000000000000000000000008152600401610ccd906117e6565b60405180910390fd5b6000805480602002602001604051908101604052809291908181526020018280548015610d5857602002820191906000526020600020905b8160009054906101000a900473ffffffffffffffffffffffffffffffffffffffff1673ffffffffffffffffffffffffffffffffffffffff1681526020019060010190808311610d0e575b505050505091505090565b60008181548110610d7357600080fd5b906000526020600020016000915054906101000a900473ffffffffffffffffffffffffffffffffffffffff1681565b6000600560008373ffffffffffffffffffffffffffffffffffffffff1673ffffffffffffffffffffffffffffffffffffffff168152602001908152602001600020549050919050565b6000600160008373ffffffffffffffffffffffffffffffffffffffff1673ffffffffffffffffffffffffffffffffffffffff168152602001908152602001600020805490509050919050565b80600760006101000a81548173ffffffffffffffffffffffffffffffffffffffff021916908373ffffffffffffffffffffffffffffffffffffffff16021790555050565b600660009054906101000a900473ffffffffffffffffffffffffffffffffffffffff1673ffffffffffffffffffffffffffffffffffffffff166339ac7a0833600760009054906101000a900473ffffffffffffffffffffffffffffffffffffffff166040518363ffffffff1660e01b8152600401610efa92919061170c565b602060405180830381865afa158015610f17573d6000803e3d6000fd5b505050506040513d601f19601f82011682018060405250810190610f3b919061176d565b15610f7b576040517f08c379a0000000000000000000000000000000000000000000000000000000008152600401610f7290611b99565b60405180910390fd5b600360003373ffffffffffffffffffffffffffffffffffffffff1673ffffffffffffffffffffffffffffffffffffffff16815260200190815260200160002060009054906101000a900460ff1615611008576040517f08c379a0000000000000000000000000000000000000000000000000000000008152600401610fff90611c05565b60405180910390fd5b7ffffffffffffffffffffffffffffffffffffffffffffffffffffffffffffffffd600260003373ffffffffffffffffffffffffffffffffffffffff1673ffffffffffffffffffffffffffffffffffffffff16815260200190815260200160002054136110a9576040517f08c379a00000000000000000000000000000000000000000000000000000000081526004016110a090611c71565b60405180910390fd5b8181600460003373ffffffffffffffffffffffffffffffffffffffff1673ffffffffffffffffffffffffffffffffffffffff16815260200190815260200160002091826110f7929190611e77565b506000339080600181540180825580915050600190039060005260206000200160009091909190916101000a81548173ffffffffffffffffffffffffffffffffffffffff021916908373ffffffffffffffffffffffffffffffffffffffff160217905550630f7314004261116b9190611f47565b600560003373ffffffffffffffffffffffffffffffffffffffff1673ffffffffffffffffffffffffffffffffffffffff168152602001908152602001600020819055505050565b60005b600080549050811015611247578173ffffffffffffffffffffffffffffffffffffffff16600082815481106111ed576111ec611a26565b5b9060005260206000200160009054906101000a900473ffffffffffffffffffffffffffffffffffffffff1673ffffffffffffffffffffffffffffffffffffffff16031561124757808061123f90611a55565b9150506111b5565b6000600160008054905061125b9190611f7b565b8154811061126c5761126b611a26565b5b9060005260206000200160009054906101000a900473ffffffffffffffffffffffffffffffffffffffff16600082815481106112ab576112aa611a26565b5b9060005260206000200160006101000a81548173ffffffffffffffffffffffffffffffffffffffff021916908373ffffffffffffffffffffffffffffffffffffffff160217905550600080548061130557611304611faf565b5b6001900381819060005260206000200160006101000a81549073ffffffffffffffffffffffffffffffffffffffff021916905590555050565b508054600082559060005260206000209081019061135c919061135f565b50565b5b80821115611378576000816000905550600101611360565b5090565b600080fd5b600080fd5b600073ffffffffffffffffffffffffffffffffffffffff82169050919050565b60006113b182611386565b9050919050565b6113c1816113a6565b81146113cc57600080fd5b50565b6000813590506113de816113b8565b92915050565b6000602082840312156113fa576113f961137c565b5b6000611408848285016113cf565b91505092915050565b600081519050919050565b600082825260208201905092915050565b60005b8381101561144b578082015181840152602081019050611430565b60008484015250505050565b6000601f19601f8301169050919050565b600061147382611411565b61147d818561141c565b935061148d81856020860161142d565b61149681611457565b840191505092915050565b600060208201905081810360008301526114bb8184611468565b905092915050565b600081519050919050565b600082825260208201905092915050565b6000819050602082019050919050565b6114f8816113a6565b82525050565b600061150a83836114ef565b60208301905092915050565b6000602082019050919050565b600061152e826114c3565b61153881856114ce565b9350611543836114df565b8060005b8381101561157457815161155b88826114fe565b975061156683611516565b925050600181019050611547565b5085935050505092915050565b6000602082019050818103600083015261159b8184611523565b905092915050565b6000819050919050565b6115b6816115a3565b81146115c157600080fd5b50565b6000813590506115d3816115ad565b92915050565b6000602082840312156115ef576115ee61137c565b5b60006115fd848285016115c4565b91505092915050565b61160f816113a6565b82525050565b600060208201905061162a6000830184611606565b92915050565b611639816115a3565b82525050565b60006020820190506116546000830184611630565b92915050565b600080fd5b600080fd5b600080fd5b60008083601f84011261167f5761167e61165a565b5b8235905067ffffffffffffffff81111561169c5761169b61165f565b5b6020830191508360018202830111156116b8576116b7611664565b5b9250929050565b600080602083850312156116d6576116d561137c565b5b600083013567ffffffffffffffff8111156116f4576116f3611381565b5b61170085828601611669565b92509250509250929050565b60006040820190506117216000830185611606565b61172e6020830184611606565b9392505050565b60008115159050919050565b61174a81611735565b811461175557600080fd5b50565b60008151905061176781611741565b92915050565b6000602082840312156117835761178261137c565b5b600061179184828501611758565b91505092915050565b7f526571756972656420746f2062652061206d656d656265720000000000000000600082015250565b60006117d060188361141c565b91506117db8261179a565b602082019050919050565b600060208201905081810360008301526117ff816117c3565b9050919050565b7f4e487b7100000000000000000000000000000000000000000000000000000000600052602260045260246000fd5b6000600282049050600182168061184d57607f821691505b6020821081036118605761185f611806565b5b50919050565b7f4163636573732044656e69656400000000000000000000000000000000000000600082015250565b600061189c600d8361141c565b91506118a782611866565b602082019050919050565b600060208201905081810360008301526118cb8161188f565b9050919050565b7f496e76616c6964206170706c6963616e74206164647265737300000000000000600082015250565b600061190860198361141c565b9150611913826118d2565b602082019050919050565b60006020820190508181036000830152611937816118fb565b9050919050565b6000819050919050565b7f4e487b7100000000000000000000000000000000000000000000000000000000600052601160045260246000fd5b60006119828261193e565b915061198d8361193e565b92508282039050818112600084121682821360008512151617156119b4576119b3611948565b5b92915050565b7f4e6f742061206170706c6963616e740000000000000000000000000000000000600082015250565b60006119f0600f8361141c565b91506119fb826119ba565b602082019050919050565b60006020820190508181036000830152611a1f816119e3565b9050919050565b7f4e487b7100000000000000000000000000000000000000000000000000000000600052603260045260246000fd5b6000611a60826115a3565b91507fffffffffffffffffffffffffffffffffffffffffffffffffffffffffffffffff8203611a9257611a91611948565b5b600182019050919050565b7f53656e64657220616c726561647920766f746564000000000000000000000000600082015250565b6000611ad360148361141c565b9150611ade82611a9d565b602082019050919050565b60006020820190508181036000830152611b0281611ac6565b9050919050565b6000611b148261193e565b9150611b1f8361193e565b925082820190508281121560008312168382126000841215161715611b4757611b46611948565b5b92915050565b7f416c726561647920616374697665206d656d6265720000000000000000000000600082015250565b6000611b8360158361141c565b9150611b8e82611b4d565b602082019050919050565b60006020820190508181036000830152611bb281611b76565b9050919050565b7f416c726561647920616374697665206170706c6963616e740000000000000000600082015250565b6000611bef60188361141c565b9150611bfa82611bb9565b602082019050919050565b60006020820190508181036000830152611c1e81611be2565b9050919050565b7f6163636f756e742072656a656374656400000000000000000000000000000000600082015250565b6000611c5b60108361141c565b9150611c6682611c25565b602082019050919050565b60006020820190508181036000830152611c8a81611c4e565b9050919050565b600082905092915050565b7f4e487b7100000000000000000000000000000000000000000000000000000000600052604160045260246000fd5b60008190508160005260206000209050919050565b60006020601f8301049050919050565b600082821b905092915050565b600060088302611d2d7fffffffffffffffffffffffffffffffffffffffffffffffffffffffffffffffff82611cf0565b611d378683611cf0565b95508019841693508086168417925050509392505050565b6000819050919050565b6000611d74611d6f611d6a846115a3565b611d4f565b6115a3565b9050919050565b6000819050919050565b611d8e83611d59565b611da2611d9a82611d7b565b848454611cfd565b825550505050565b600090565b611db7611daa565b611dc2818484611d85565b505050565b5b81811015611de657611ddb600082611daf565b600181019050611dc8565b5050565b601f821115611e2b57611dfc81611ccb565b611e0584611ce0565b81016020851015611e14578190505b611e28611e2085611ce0565b830182611dc7565b50505b505050565b600082821c905092915050565b6000611e4e60001984600802611e30565b1980831691505092915050565b6000611e678383611e3d565b9150826002028217905092915050565b611e818383611c91565b67ffffffffffffffff811115611e9a57611e99611c9c565b5b611ea48254611835565b611eaf828285611dea565b6000601f831160018114611ede5760008415611ecc578287013590505b611ed68582611e5b565b865550611f3e565b601f198416611eec86611ccb565b60005b82811015611f1457848901358255600182019150602085019450602081019050611eef565b86831015611f315784890135611f2d601f891682611e3d565b8355505b6001600288020188555050505b50505050505050565b6000611f52826115a3565b9150611f5d836115a3565b9250828201905080821115611f7557611f74611948565b5b92915050565b6000611f86826115a3565b9150611f91836115a3565b9250828203905081811115611fa957611fa8611948565b5b92915050565b7f4e487b7100000000000000000000000000000000000000000000000000000000600052603160045260246000fdfea26469706673582212203af30db9859ca7ec319c1f465b502a45587dd57e6b703f7e4b552d5a9f25ff6164736f6c6343000811003360a06040523480156200001157600080fd5b5060405162001fb938038062001fb98339818101604052810190620000379190620002bf565b82600860006101000a81548173ffffffffffffffffffffffffffffffffffffffff021916908373ffffffffffffffffffffffffffffffffffffffff1602179055508173ffffffffffffffffffffffffffffffffffffffff1660808173ffffffffffffffffffffffffffffffffffffffff16815250508060009081620000bd919062000585565b505050506200066c565b6000604051905090565b600080fd5b600080fd5b600073ffffffffffffffffffffffffffffffffffffffff82169050919050565b60006200010882620000db565b9050919050565b6200011a81620000fb565b81146200012657600080fd5b50565b6000815190506200013a816200010f565b92915050565b600080fd5b600080fd5b6000601f19601f8301169050919050565b7f4e487b7100000000000000000000000000000000000000000000000000000000600052604160045260246000fd5b62000195826200014a565b810181811067ffffffffffffffff82111715620001b757620001b66200015b565b5b80604052505050565b6000620001cc620000c7565b9050620001da82826200018a565b919050565b600067ffffffffffffffff821115620001fd57620001fc6200015b565b5b62000208826200014a565b9050602081019050919050565b60005b838110156200023557808201518184015260208101905062000218565b60008484015250505050565b6000620002586200025284620001df565b620001c0565b90508281526020810184848401111562000277576200027662000145565b5b6200028484828562000215565b509392505050565b600082601f830112620002a457620002a362000140565b5b8151620002b684826020860162000241565b91505092915050565b600080600060608486031215620002db57620002da620000d1565b5b6000620002eb8682870162000129565b9350506020620002fe8682870162000129565b925050604084015167ffffffffffffffff811115620003225762000321620000d6565b5b62000330868287016200028c565b9150509250925092565b600081519050919050565b7f4e487b7100000000000000000000000000000000000000000000000000000000600052602260045260246000fd5b600060028204905060018216806200038d57607f821691505b602082108103620003a357620003a262000345565b5b50919050565b60008190508160005260206000209050919050565b60006020601f8301049050919050565b600082821b905092915050565b6000600883026200040d7fffffffffffffffffffffffffffffffffffffffffffffffffffffffffffffffff82620003ce565b620004198683620003ce565b95508019841693508086168417925050509392505050565b6000819050919050565b6000819050919050565b600062000466620004606200045a8462000431565b6200043b565b62000431565b9050919050565b6000819050919050565b620004828362000445565b6200049a62000491826200046d565b848454620003db565b825550505050565b600090565b620004b1620004a2565b620004be81848462000477565b505050565b5b81811015620004e657620004da600082620004a7565b600181019050620004c4565b5050565b601f8211156200053557620004ff81620003a9565b6200050a84620003be565b810160208510156200051a578190505b620005326200052985620003be565b830182620004c3565b50505b505050565b600082821c905092915050565b60006200055a600019846008026200053a565b1980831691505092915050565b600062000575838362000547565b9150826002028217905092915050565b62000590826200033a565b67ffffffffffffffff811115620005ac57620005ab6200015b565b5b620005b8825462000374565b620005c5828285620004ea565b600060209050601f831160018114620005fd5760008415620005e8578287015190505b620005f4858262000567565b86555062000664565b601f1984166200060d86620003a9565b60005b82811015620006375784890151825560018201915060208501945060208101905062000610565b8683101562000657578489015162000653601f89168262000547565b8355505b6001600288020188555050505b505050505050565b60805161193462000685600039600050506119346000f3fe608060405234801561001057600080fd5b50600436106101005760003560e01c80639a4d383e11610097578063a230c52411610066578063a230c524146102af578063af1fca09146102df578063ca505a5b146102fd578063cef025ac1461031b57610100565b80639a4d383e146102275780639c0ab105146102435780639e5f59f9146102615780639eab52531461029157610100565b8063455772d2116100d3578063455772d21461018b5780635daf08ca146101a957806370586013146101d9578063997072f71461020957610100565b806306fdde0314610105578063146b551d1461012357806315866836146101535780631ee503fd1461016f575b600080fd5b61010d610337565b60405161011a9190610ed9565b60405180910390f35b61013d60048036038101906101389190610f6d565b6103c5565b60405161014a9190610fb6565b60405180910390f35b61016d60048036038101906101689190611036565b6103cc565b005b61018960048036038101906101849190610f6d565b61045f565b005b61019361081e565b6040516101a09190611154565b60405180910390f35b6101c360048036038101906101be91906111ac565b61094f565b6040516101d091906111e8565b60405180910390f35b6101f360048036038101906101ee9190611036565b61098e565b6040516102009190611222565b60405180910390f35b610211610997565b60405161021e919061124c565b60405180910390f35b610241600480360381019061023c9190610f6d565b6109a4565b005b61024b610b86565b6040516102589190610ed9565b60405180910390f35b61027b60048036038101906102769190610f6d565b610c14565b6040516102889190611373565b60405180910390f35b610299610c1b565b6040516102a69190611154565b60405180910390f35b6102c960048036038101906102c49190610f6d565b610cae565b6040516102d691906113b0565b60405180910390f35b6102e7610d04565b6040516102f491906111e8565b60405180910390f35b610305610d2a565b6040516103129190610ed9565b60405180910390f35b61033560048036038101906103309190610f6d565b610db8565b005b60008054610344906113fa565b80601f0160208091040260200160405190810160405280929190818152602001828054610370906113fa565b80156103bd5780601f10610392576101008083540402835291602001916103bd565b820191906000526020600020905b8154815290600101906020018083116103a057829003601f168201915b505050505081565b6000919050565b33600460008273ffffffffffffffffffffffffffffffffffffffff1673ffffffffffffffffffffffffffffffffffffffff16815260200190815260200160002060009054906101000a900460ff16610459576040517f08c379a000000000000000000000000000000000000000000000000000000000815260040161045090611477565b60405180910390fd5b50505050565b33600460008273ffffffffffffffffffffffffffffffffffffffff1673ffffffffffffffffffffffffffffffffffffffff16815260200190815260200160002060009054906101000a900460ff166104ec576040517f08c379a00000000000000000000000000000000000000000000000000000000081526004016104e390611477565b60405180910390fd5b600073ffffffffffffffffffffffffffffffffffffffff168273ffffffffffffffffffffffffffffffffffffffff160361052557600080fd5b6000600860009054906101000a900473ffffffffffffffffffffffffffffffffffffffff16905060008173ffffffffffffffffffffffffffffffffffffffff1663b672bdcb856040518263ffffffff1660e01b815260040161058791906111e8565b602060405180830381865afa1580156105a4573d6000803e3d6000fd5b505050506040513d601f19601f820116820180604052508101906105c891906114ac565b905042811161060c576040517f08c379a000000000000000000000000000000000000000000000000000000000815260040161060390611525565b60405180910390fd5b6000610616610997565b905060008373ffffffffffffffffffffffffffffffffffffffff1663d9a87535876040518263ffffffff1660e01b815260040161065391906111e8565b602060405180830381865afa158015610670573d6000803e3d6000fd5b505050506040513d601f19601f8201168201806040525081019061069491906114ac565b90506005606483836106a691906115a3565b6106b091906115d4565b116106f0576040517f08c379a00000000000000000000000000000000000000000000000000000000081526004016106e790611688565b60405180910390fd5b8373ffffffffffffffffffffffffffffffffffffffff16631292a282876040518263ffffffff1660e01b815260040161072991906111e8565b600060405180830381600087803b15801561074357600080fd5b505af1158015610757573d6000803e3d6000fd5b505050506003869080600181540180825580915050600190039060005260206000200160009091909190916101000a81548173ffffffffffffffffffffffffffffffffffffffff021916908373ffffffffffffffffffffffffffffffffffffffff1602179055506001600460008873ffffffffffffffffffffffffffffffffffffffff1673ffffffffffffffffffffffffffffffffffffffff16815260200190815260200160002060006101000a81548160ff021916908315150217905550505050505050565b606033600460008273ffffffffffffffffffffffffffffffffffffffff1673ffffffffffffffffffffffffffffffffffffffff16815260200190815260200160002060009054906101000a900460ff166108ad576040517f08c379a00000000000000000000000000000000000000000000000000000000081526004016108a490611477565b60405180910390fd5b6000600860009054906101000a900473ffffffffffffffffffffffffffffffffffffffff1690508073ffffffffffffffffffffffffffffffffffffffff1663455772d26040518163ffffffff1660e01b8152600401600060405180830381865afa15801561091f573d6000803e3d6000fd5b505050506040513d6000823e3d601f19601f8201168201806040525081019061094891906117fb565b9250505090565b6003818154811061095f57600080fd5b906000526020600020016000915054906101000a900473ffffffffffffffffffffffffffffffffffffffff1681565b60009392505050565b6000600380549050905090565b6000600660003373ffffffffffffffffffffffffffffffffffffffff1673ffffffffffffffffffffffffffffffffffffffff16815260200190815260200160002060009054906101000a900473ffffffffffffffffffffffffffffffffffffffff1690508073ffffffffffffffffffffffffffffffffffffffff168273ffffffffffffffffffffffffffffffffffffffff1603610a76576040517f08c379a0000000000000000000000000000000000000000000000000000000008152600401610a6d90611890565b60405180910390fd5b6001600760008473ffffffffffffffffffffffffffffffffffffffff1673ffffffffffffffffffffffffffffffffffffffff1681526020019081526020016000206000828254610ac691906118ba565b9250508190555081600660003373ffffffffffffffffffffffffffffffffffffffff1673ffffffffffffffffffffffffffffffffffffffff16815260200190815260200160002060006101000a81548173ffffffffffffffffffffffffffffffffffffffff021916908373ffffffffffffffffffffffffffffffffffffffff1602179055507fe8ddfec65826b66ec8b03b89152bb70528fa2da92e9775cc99671b1fc7bcb0f433604051610b7a91906111e8565b60405180910390a15050565b60028054610b93906113fa565b80601f0160208091040260200160405190810160405280929190818152602001828054610bbf906113fa565b8015610c0c5780601f10610be157610100808354040283529160200191610c0c565b820191906000526020600020905b815481529060010190602001808311610bef57829003601f168201915b505050505081565b6060919050565b606033600460008273ffffffffffffffffffffffffffffffffffffffff1673ffffffffffffffffffffffffffffffffffffffff16815260200190815260200160002060009054906101000a900460ff16610caa576040517f08c379a0000000000000000000000000000000000000000000000000000000008152600401610ca190611477565b60405180910390fd5b5090565b6000600460008373ffffffffffffffffffffffffffffffffffffffff1673ffffffffffffffffffffffffffffffffffffffff16815260200190815260200160002060009054906101000a900460ff169050919050565b600860009054906101000a900473ffffffffffffffffffffffffffffffffffffffff1681565b60018054610d37906113fa565b80601f0160208091040260200160405190810160405280929190818152602001828054610d63906113fa565b8015610db05780601f10610d8557610100808354040283529160200191610db0565b820191906000526020600020905b815481529060010190602001808311610d9357829003601f168201915b505050505081565b33600460008273ffffffffffffffffffffffffffffffffffffffff1673ffffffffffffffffffffffffffffffffffffffff16815260200190815260200160002060009054906101000a900460ff16610e45576040517f08c379a0000000000000000000000000000000000000000000000000000000008152600401610e3c90611477565b60405180910390fd5b5050565b600081519050919050565b600082825260208201905092915050565b60005b83811015610e83578082015181840152602081019050610e68565b60008484015250505050565b6000601f19601f8301169050919050565b6000610eab82610e49565b610eb58185610e54565b9350610ec5818560208601610e65565b610ece81610e8f565b840191505092915050565b60006020820190508181036000830152610ef38184610ea0565b905092915050565b6000604051905090565b600080fd5b600080fd5b600073ffffffffffffffffffffffffffffffffffffffff82169050919050565b6000610f3a82610f0f565b9050919050565b610f4a81610f2f565b8114610f5557600080fd5b50565b600081359050610f6781610f41565b92915050565b600060208284031215610f8357610f82610f05565b5b6000610f9184828501610f58565b91505092915050565b60008160030b9050919050565b610fb081610f9a565b82525050565b6000602082019050610fcb6000830184610fa7565b92915050565b600080fd5b600080fd5b600080fd5b60008083601f840112610ff657610ff5610fd1565b5b8235905067ffffffffffffffff81111561101357611012610fd6565b5b60208301915083600182028301111561102f5761102e610fdb565b5b9250929050565b60008060006040848603121561104f5761104e610f05565b5b600061105d86828701610f58565b935050602084013567ffffffffffffffff81111561107e5761107d610f0a565b5b61108a86828701610fe0565b92509250509250925092565b600081519050919050565b600082825260208201905092915050565b6000819050602082019050919050565b6110cb81610f2f565b82525050565b60006110dd83836110c2565b60208301905092915050565b6000602082019050919050565b600061110182611096565b61110b81856110a1565b9350611116836110b2565b8060005b8381101561114757815161112e88826110d1565b9750611139836110e9565b92505060018101905061111a565b5085935050505092915050565b6000602082019050818103600083015261116e81846110f6565b905092915050565b6000819050919050565b61118981611176565b811461119457600080fd5b50565b6000813590506111a681611180565b92915050565b6000602082840312156111c2576111c1610f05565b5b60006111d084828501611197565b91505092915050565b6111e281610f2f565b82525050565b60006020820190506111fd60008301846111d9565b92915050565b600063ffffffff82169050919050565b61121c81611203565b82525050565b60006020820190506112376000830184611213565b92915050565b61124681611176565b82525050565b6000602082019050611261600083018461123d565b92915050565b600081519050919050565b600082825260208201905092915050565b6000819050602082019050919050565b600082825260208201905092915050565b60006112af82610e49565b6112b98185611293565b93506112c9818560208601610e65565b6112d281610e8f565b840191505092915050565b60006112e983836112a4565b905092915050565b6000602082019050919050565b600061130982611267565b6113138185611272565b93508360208202850161132585611283565b8060005b85811015611361578484038952815161134285826112dd565b945061134d836112f1565b925060208a01995050600181019050611329565b50829750879550505050505092915050565b6000602082019050818103600083015261138d81846112fe565b905092915050565b60008115159050919050565b6113aa81611395565b82525050565b60006020820190506113c560008301846113a1565b92915050565b7f4e487b7100000000000000000000000000000000000000000000000000000000600052602260045260246000fd5b6000600282049050600182168061141257607f821691505b602082108103611425576114246113cb565b5b50919050565b7f526571756972656420746f2062652061206d656d656265720000000000000000600082015250565b6000611461601883610e54565b915061146c8261142b565b602082019050919050565b6000602082019050818103600083015261149081611454565b9050919050565b6000815190506114a681611180565b92915050565b6000602082840312156114c2576114c1610f05565b5b60006114d084828501611497565b91505092915050565b7f546f20736f6f6e20746f20656e6420766f746500000000000000000000000000600082015250565b600061150f601383610e54565b915061151a826114d9565b602082019050919050565b6000602082019050818103600083015261153e81611502565b9050919050565b7f4e487b7100000000000000000000000000000000000000000000000000000000600052601260045260246000fd5b7f4e487b7100000000000000000000000000000000000000000000000000000000600052601160045260246000fd5b60006115ae82611176565b91506115b983611176565b9250826115c9576115c8611545565b5b828204905092915050565b60006115df82611176565b91506115ea83611176565b92508282026115f881611176565b9150828204841483151761160f5761160e611574565b5b5092915050565b7f496e76616c6964206e756d626572206f6620766f746573206f722070726f636560008201527f65642e0000000000000000000000000000000000000000000000000000000000602082015250565b6000611672602383610e54565b915061167d82611616565b604082019050919050565b600060208201905081810360008301526116a181611665565b9050919050565b7f4e487b7100000000000000000000000000000000000000000000000000000000600052604160045260246000fd5b6116e082610e8f565b810181811067ffffffffffffffff821117156116ff576116fe6116a8565b5b80604052505050565b6000611712610efb565b905061171e82826116d7565b919050565b600067ffffffffffffffff82111561173e5761173d6116a8565b5b602082029050602081019050919050565b60008151905061175e81610f41565b92915050565b600061177761177284611723565b611708565b9050808382526020820190506020840283018581111561179a57611799610fdb565b5b835b818110156117c357806117af888261174f565b84526020840193505060208101905061179c565b5050509392505050565b600082601f8301126117e2576117e1610fd1565b5b81516117f2848260208601611764565b91505092915050565b60006020828403121561181157611810610f05565b5b600082015167ffffffffffffffff81111561182f5761182e610f0a565b5b61183b848285016117cd565b91505092915050565b7f416c726561647920766f74656400000000000000000000000000000000000000600082015250565b600061187a600d83610e54565b915061188582611844565b602082019050919050565b600060208201905081810360008301526118a98161186d565b9050919050565b6000819050919050565b60006118c5826118b0565b91506118d0836118b0565b9250828201905082811215600083121683821260008412151617156118f8576118f7611574565b5b9291505056fea2646970667358221220713ff1d24a2dde2f1c9b87753c42c9e19fdc2d1d58f9a050bfc5341706a6b1a664736f6c63430008110033a2646970667358221220d4d29e112011ea31a7d1915c47bf259426d0a50cdb8a0c2d332079df4dfb79a764736f6c63430008110033608060405234801561001057600080fd5b5061180c806100206000396000f3fe608060405234801561001057600080fd5b50600436106101375760003560e01c806384d0cbe3116100b8578063d5b036491161007c578063d5b03649146103bc578063e86c24f9146103ec578063ec3140a31461041c578063f9819d8e14610438578063f9ab2eff14610468578063fadd65c31461048457610137565b806384d0cbe3146102f45780639457740a146103105780639d58b15d14610340578063ac4afa381461035c578063ba63a9f01461038c57610137565b80636997b953116100ff5780636997b953146102185780636c607516146102485780636e7f56f81461027857806375838862146102a85780637a9b7c35146102d857610137565b80631875c6391461013c57806339ac7a081461016c5780633a6859301461019c5780634c2587d4146101cc57806357b70767146101e8575b600080fd5b6101566004803603810190610151919061144a565b6104b4565b6040516101639190611499565b60405180910390f35b610186600480360381019061018191906114b4565b610502565b604051610193919061150f565b60405180910390f35b6101b660048036038101906101b191906114b4565b610595565b6040516101c3919061150f565b60405180910390f35b6101e660048036038101906101e191906114b4565b6105c4565b005b61020260048036038101906101fd919061144a565b610668565b60405161020f9190611499565b60405180910390f35b610232600480360381019061022d919061152a565b6106b6565b60405161023f9190611615565b60405180910390f35b610262600480360381019061025d919061144a565b610783565b60405161026f9190611499565b60405180910390f35b610292600480360381019061028d91906114b4565b6107d1565b60405161029f919061150f565b60405180910390f35b6102c260048036038101906102bd919061152a565b610800565b6040516102cf919061150f565b60405180910390f35b6102f260048036038101906102ed9190611637565b61084e565b005b61030e6004803603810190610309919061144a565b6109b6565b005b61032a600480360381019061032591906114b4565b610c26565b604051610337919061150f565b60405180910390f35b61035a600480360381019061035591906114b4565b610cba565b005b61037660048036038101906103719190611637565b610df2565b6040516103839190611499565b60405180910390f35b6103a660048036038101906103a191906114b4565b610e31565b6040516103b3919061150f565b60405180910390f35b6103d660048036038101906103d191906114b4565b610e60565b6040516103e3919061150f565b60405180910390f35b6104066004803603810190610401919061152a565b610ef4565b6040516104139190611615565b60405180910390f35b610436600480360381019061043191906114b4565b610fc1565b005b610452600480360381019061044d919061144a565b61115d565b60405161045f9190611499565b60405180910390f35b610482600480360381019061047d91906114b4565b6111ab565b005b61049e6004803603810190610499919061152a565b6112e4565b6040516104ab9190611615565b60405180910390f35b600260205281600052604060002081815481106104d057600080fd5b906000526020600020016000915091509054906101000a900473ffffffffffffffffffffffffffffffffffffffff1681565b60008060008473ffffffffffffffffffffffffffffffffffffffff1673ffffffffffffffffffffffffffffffffffffffff16815260200190815260200160002060008373ffffffffffffffffffffffffffffffffffffffff1673ffffffffffffffffffffffffffffffffffffffff16815260200190815260200160002060009054906101000a900460ff16905092915050565b60006020528160005260406000206020528060005260406000206000915091509054906101000a900460ff1681565b600260008373ffffffffffffffffffffffffffffffffffffffff1673ffffffffffffffffffffffffffffffffffffffff168152602001908152602001600020819080600181540180825580915050600190039060005260206000200160009091909190916101000a81548173ffffffffffffffffffffffffffffffffffffffff021916908373ffffffffffffffffffffffffffffffffffffffff1602179055505050565b6001602052816000526040600020818154811061068457600080fd5b906000526020600020016000915091509054906101000a900473ffffffffffffffffffffffffffffffffffffffff1681565b6060600460008373ffffffffffffffffffffffffffffffffffffffff1673ffffffffffffffffffffffffffffffffffffffff16815260200190815260200160002080548060200260200160405190810160405280929190818152602001828054801561077757602002820191906000526020600020905b8160009054906101000a900473ffffffffffffffffffffffffffffffffffffffff1673ffffffffffffffffffffffffffffffffffffffff168152602001906001019080831161072d575b50505050509050919050565b6004602052816000526040600020818154811061079f57600080fd5b906000526020600020016000915091509054906101000a900473ffffffffffffffffffffffffffffffffffffffff1681565b60036020528160005260406000206020528060005260406000206000915091509054906101000a900460ff1681565b600080600160008473ffffffffffffffffffffffffffffffffffffffff1673ffffffffffffffffffffffffffffffffffffffff16815260200190815260200160002080549050119050919050565b600780549050811161085f57600080fd5b60006007828154811061087557610874611664565b5b9060005260206000200160009054906101000a900473ffffffffffffffffffffffffffffffffffffffff16905060076001836108b191906116c2565b815481106108c2576108c1611664565b5b9060005260206000200160009054906101000a900473ffffffffffffffffffffffffffffffffffffffff166007838154811061090157610900611664565b5b9060005260206000200160006101000a81548173ffffffffffffffffffffffffffffffffffffffff021916908373ffffffffffffffffffffffffffffffffffffffff16021790555080600760018461095991906116c2565b8154811061096a57610969611664565b5b9060005260206000200160006101000a81548173ffffffffffffffffffffffffffffffffffffffff021916908373ffffffffffffffffffffffffffffffffffffffff1602179055505050565b80600260008473ffffffffffffffffffffffffffffffffffffffff1673ffffffffffffffffffffffffffffffffffffffff168152602001908152602001600020805490501015610a3b576040517f08c379a0000000000000000000000000000000000000000000000000000000008152600401610a3290611753565b60405180910390fd5b600260008373ffffffffffffffffffffffffffffffffffffffff1673ffffffffffffffffffffffffffffffffffffffff1681526020019081526020016000206001600260008573ffffffffffffffffffffffffffffffffffffffff1673ffffffffffffffffffffffffffffffffffffffff16815260200190815260200160002080549050610ac99190611773565b81548110610ada57610ad9611664565b5b9060005260206000200160009054906101000a900473ffffffffffffffffffffffffffffffffffffffff16600260008473ffffffffffffffffffffffffffffffffffffffff1673ffffffffffffffffffffffffffffffffffffffff1681526020019081526020016000208281548110610b5657610b55611664565b5b9060005260206000200160006101000a81548173ffffffffffffffffffffffffffffffffffffffff021916908373ffffffffffffffffffffffffffffffffffffffff160217905550600260008373ffffffffffffffffffffffffffffffffffffffff1673ffffffffffffffffffffffffffffffffffffffff168152602001908152602001600020805480610bed57610bec6117a7565b5b6001900381819060005260206000200160006101000a81549073ffffffffffffffffffffffffffffffffffffffff021916905590555050565b6000600360008473ffffffffffffffffffffffffffffffffffffffff1673ffffffffffffffffffffffffffffffffffffffff16815260200190815260200160002060008373ffffffffffffffffffffffffffffffffffffffff1673ffffffffffffffffffffffffffffffffffffffff16815260200190815260200160002060009054906101000a900460ff16905092915050565b60016000808373ffffffffffffffffffffffffffffffffffffffff1673ffffffffffffffffffffffffffffffffffffffff16815260200190815260200160002060008473ffffffffffffffffffffffffffffffffffffffff1673ffffffffffffffffffffffffffffffffffffffff16815260200190815260200160002060006101000a81548160ff021916908315150217905550600160008273ffffffffffffffffffffffffffffffffffffffff1673ffffffffffffffffffffffffffffffffffffffff168152602001908152602001600020829080600181540180825580915050600190039060005260206000200160009091909190916101000a81548173ffffffffffffffffffffffffffffffffffffffff021916908373ffffffffffffffffffffffffffffffffffffffff1602179055505050565b60078181548110610e0257600080fd5b906000526020600020016000915054906101000a900473ffffffffffffffffffffffffffffffffffffffff1681565b60056020528160005260406000206020528060005260406000206000915091509054906101000a900460ff1681565b6000600360008473ffffffffffffffffffffffffffffffffffffffff1673ffffffffffffffffffffffffffffffffffffffff16815260200190815260200160002060008373ffffffffffffffffffffffffffffffffffffffff1673ffffffffffffffffffffffffffffffffffffffff16815260200190815260200160002060009054906101000a900460ff16905092915050565b6060600660008373ffffffffffffffffffffffffffffffffffffffff1673ffffffffffffffffffffffffffffffffffffffff168152602001908152602001600020805480602002602001604051908101604052809291908181526020018280548015610fb557602002820191906000526020600020905b8160009054906101000a900473ffffffffffffffffffffffffffffffffffffffff1673ffffffffffffffffffffffffffffffffffffffff1681526020019060010190808311610f6b575b50505050509050919050565b6001600560008473ffffffffffffffffffffffffffffffffffffffff1673ffffffffffffffffffffffffffffffffffffffff16815260200190815260200160002060008373ffffffffffffffffffffffffffffffffffffffff1673ffffffffffffffffffffffffffffffffffffffff16815260200190815260200160002060006101000a81548160ff021916908315150217905550600660008373ffffffffffffffffffffffffffffffffffffffff1673ffffffffffffffffffffffffffffffffffffffff168152602001908152602001600020819080600181540180825580915050600190039060005260206000200160009091909190916101000a81548173ffffffffffffffffffffffffffffffffffffffff021916908373ffffffffffffffffffffffffffffffffffffffff1602179055506007819080600181540180825580915050600190039060005260206000200160009091909190916101000a81548173ffffffffffffffffffffffffffffffffffffffff021916908373ffffffffffffffffffffffffffffffffffffffff1602179055505050565b6006602052816000526040600020818154811061117957600080fd5b906000526020600020016000915091509054906101000a900473ffffffffffffffffffffffffffffffffffffffff1681565b6001600360008473ffffffffffffffffffffffffffffffffffffffff1673ffffffffffffffffffffffffffffffffffffffff16815260200190815260200160002060008373ffffffffffffffffffffffffffffffffffffffff1673ffffffffffffffffffffffffffffffffffffffff16815260200190815260200160002060006101000a81548160ff021916908315150217905550600460008373ffffffffffffffffffffffffffffffffffffffff1673ffffffffffffffffffffffffffffffffffffffff168152602001908152602001600020819080600181540180825580915050600190039060005260206000200160009091909190916101000a81548173ffffffffffffffffffffffffffffffffffffffff021916908373ffffffffffffffffffffffffffffffffffffffff1602179055505050565b6060600260008373ffffffffffffffffffffffffffffffffffffffff1673ffffffffffffffffffffffffffffffffffffffff1681526020019081526020016000208054806020026020016040519081016040528092919081815260200182805480156113a557602002820191906000526020600020905b8160009054906101000a900473ffffffffffffffffffffffffffffffffffffffff1673ffffffffffffffffffffffffffffffffffffffff168152602001906001019080831161135b575b50505050509050919050565b600080fd5b600073ffffffffffffffffffffffffffffffffffffffff82169050919050565b60006113e1826113b6565b9050919050565b6113f1816113d6565b81146113fc57600080fd5b50565b60008135905061140e816113e8565b92915050565b6000819050919050565b61142781611414565b811461143257600080fd5b50565b6000813590506114448161141e565b92915050565b60008060408385031215611461576114606113b1565b5b600061146f858286016113ff565b925050602061148085828601611435565b9150509250929050565b611493816113d6565b82525050565b60006020820190506114ae600083018461148a565b92915050565b600080604083850312156114cb576114ca6113b1565b5b60006114d9858286016113ff565b92505060206114ea858286016113ff565b9150509250929050565b60008115159050919050565b611509816114f4565b82525050565b60006020820190506115246000830184611500565b92915050565b6000602082840312156115405761153f6113b1565b5b600061154e848285016113ff565b91505092915050565b600081519050919050565b600082825260208201905092915050565b6000819050602082019050919050565b61158c816113d6565b82525050565b600061159e8383611583565b60208301905092915050565b6000602082019050919050565b60006115c282611557565b6115cc8185611562565b93506115d783611573565b8060005b838110156116085781516115ef8882611592565b97506115fa836115aa565b9250506001810190506115db565b5085935050505092915050565b6000602082019050818103600083015261162f81846115b7565b905092915050565b60006020828403121561164d5761164c6113b1565b5b600061165b84828501611435565b91505092915050565b7f4e487b7100000000000000000000000000000000000000000000000000000000600052603260045260246000fd5b7f4e487b7100000000000000000000000000000000000000000000000000000000600052601160045260246000fd5b60006116cd82611414565b91506116d883611414565b92508282019050808211156116f0576116ef611693565b5b92915050565b600082825260208201905092915050565b7f4f7574206f6620496e6465780000000000000000000000000000000000000000600082015250565b600061173d600c836116f6565b915061174882611707565b602082019050919050565b6000602082019050818103600083015261176c81611730565b9050919050565b600061177e82611414565b915061178983611414565b92508282039050818111156117a1576117a0611693565b5b92915050565b7f4e487b7100000000000000000000000000000000000000000000000000000000600052603160045260246000fdfea2646970667358221220bb02d3554ffd91c92f5cbcb0def5996169b89f044ce9ffcb6941c2fc8653608764736f6c63430008110033","opcodes":"PUSH1 0xC0 PUSH1 0x40 MSTORE CALLVALUE DUP1 ISZERO PUSH2 0x10 JUMPI PUSH1 0x0 DUP1 REVERT JUMPDEST POP ADDRESS PUSH20 0xFFFFFFFFFFFFFFFFFFFFFFFFFFFFFFFFFFFFFFFF AND PUSH1 0x80 DUP2 PUSH20 0xFFFFFFFFFFFFFFFFFFFFFFFFFFFFFFFFFFFFFFFF AND DUP2 MSTORE POP POP CALLER PUSH1 0x0 DUP1 PUSH2 0x100 EXP DUP2 SLOAD DUP2 PUSH20 0xFFFFFFFFFFFFFFFFFFFFFFFFFFFFFFFFFFFFFFFF MUL NOT AND SWAP1 DUP4 PUSH20 0xFFFFFFFFFFFFFFFFFFFFFFFFFFFFFFFFFFFFFFFF AND MUL OR SWAP1 SSTORE POP PUSH1 0x40 MLOAD PUSH2 0x91 SWAP1 PUSH2 0xE6 JUMP JUMPDEST PUSH1 0x40 MLOAD DUP1 SWAP2 SUB SWAP1 PUSH1 0x0 CREATE DUP1 ISZERO DUP1 ISZERO PUSH2 0xAD JUMPI RETURNDATASIZE PUSH1 0x0 DUP1 RETURNDATACOPY RETURNDATASIZE PUSH1 0x0 REVERT JUMPDEST POP PUSH20 0xFFFFFFFFFFFFFFFFFFFFFFFFFFFFFFFFFFFFFFFF AND PUSH1 0xA0 DUP2 PUSH20 0xFFFFFFFFFFFFFFFFFFFFFFFFFFFFFFFFFFFFFFFF AND DUP2 MSTORE POP POP PUSH2 0xF3 JUMP JUMPDEST PUSH2 0x182C DUP1 PUSH2 0x4B62 DUP4 CODECOPY ADD SWAP1 JUMP JUMPDEST PUSH1 0x80 MLOAD PUSH1 0xA0 MLOAD PUSH2 0x4A43 PUSH2 0x11F PUSH1 0x0 CODECOPY PUSH1 0x0 DUP2 DUP2 PUSH2 0x18F ADD MSTORE PUSH2 0x292 ADD MSTORE PUSH1 0x0 PUSH2 0x3CB ADD MSTORE PUSH2 0x4A43 PUSH1 0x0 RETURN INVALID PUSH1 0x80 PUSH1 0x40 MSTORE CALLVALUE DUP1 ISZERO PUSH3 0x11 JUMPI PUSH1 0x0 DUP1 REVERT JUMPDEST POP PUSH1 0x4 CALLDATASIZE LT PUSH3 0x52 JUMPI PUSH1 0x0 CALLDATALOAD PUSH1 0xE0 SHR DUP1 PUSH4 0x2845A591 EQ PUSH3 0x57 JUMPI DUP1 PUSH4 0x5DD6BA66 EQ PUSH3 0x79 JUMPI DUP1 PUSH4 0x8DA5CB5B EQ PUSH3 0x99 JUMPI DUP1 PUSH4 0xAC4AFA38 EQ PUSH3 0xBB JUMPI JUMPDEST PUSH1 0x0 DUP1 REVERT JUMPDEST PUSH3 0x61 PUSH3 0xF1 JUMP JUMPDEST PUSH1 0x40 MLOAD PUSH3 0x70 SWAP2 SWAP1 PUSH3 0x542 JUMP JUMPDEST PUSH1 0x40 MLOAD DUP1 SWAP2 SUB SWAP1 RETURN JUMPDEST PUSH3 0x97 PUSH1 0x4 DUP1 CALLDATASIZE SUB DUP2 ADD SWAP1 PUSH3 0x91 SWAP2 SWAP1 PUSH3 0x6DC JUMP JUMPDEST PUSH3 0x181 JUMP JUMPDEST STOP JUMPDEST PUSH3 0xA3 PUSH3 0x365 JUMP JUMPDEST PUSH1 0x40 MLOAD PUSH3 0xB2 SWAP2 SWAP1 PUSH3 0x73E JUMP JUMPDEST PUSH1 0x40 MLOAD DUP1 SWAP2 SUB SWAP1 RETURN JUMPDEST PUSH3 0xD9 PUSH1 0x4 DUP1 CALLDATASIZE SUB DUP2 ADD SWAP1 PUSH3 0xD3 SWAP2 SWAP1 PUSH3 0x796 JUMP JUMPDEST PUSH3 0x389 JUMP JUMPDEST PUSH1 0x40 MLOAD PUSH3 0xE8 SWAP2 SWAP1 PUSH3 0x73E JUMP JUMPDEST PUSH1 0x40 MLOAD DUP1 SWAP2 SUB SWAP1 RETURN JUMPDEST PUSH1 0x60 PUSH1 0x1 DUP1 SLOAD DUP1 PUSH1 0x20 MUL PUSH1 0x20 ADD PUSH1 0x40 MLOAD SWAP1 DUP2 ADD PUSH1 0x40 MSTORE DUP1 SWAP3 SWAP2 SWAP1 DUP2 DUP2 MSTORE PUSH1 0x20 ADD DUP3 DUP1 SLOAD DUP1 ISZERO PUSH3 0x177 JUMPI PUSH1 0x20 MUL DUP3 ADD SWAP2 SWAP1 PUSH1 0x0 MSTORE PUSH1 0x20 PUSH1 0x0 KECCAK256 SWAP1 JUMPDEST DUP2 PUSH1 0x0 SWAP1 SLOAD SWAP1 PUSH2 0x100 EXP SWAP1 DIV PUSH20 0xFFFFFFFFFFFFFFFFFFFFFFFFFFFFFFFFFFFFFFFF AND PUSH20 0xFFFFFFFFFFFFFFFFFFFFFFFFFFFFFFFFFFFFFFFF AND DUP2 MSTORE PUSH1 0x20 ADD SWAP1 PUSH1 0x1 ADD SWAP1 DUP1 DUP4 GT PUSH3 0x12C JUMPI JUMPDEST POP POP POP POP POP SWAP1 POP SWAP1 JUMP JUMPDEST PUSH3 0x18B PUSH3 0x3C9 JUMP JUMPDEST PUSH1 0x0 PUSH32 0x0 ADDRESS PUSH1 0x40 MLOAD PUSH3 0x1BD SWAP1 PUSH3 0x424 JUMP JUMPDEST PUSH3 0x1CA SWAP3 SWAP2 SWAP1 PUSH3 0x7C8 JUMP JUMPDEST PUSH1 0x40 MLOAD DUP1 SWAP2 SUB SWAP1 PUSH1 0x0 CREATE DUP1 ISZERO DUP1 ISZERO PUSH3 0x1E7 JUMPI RETURNDATASIZE PUSH1 0x0 DUP1 RETURNDATACOPY RETURNDATASIZE PUSH1 0x0 REVERT JUMPDEST POP SWAP1 POP PUSH1 0x0 DUP2 CALLER DUP5 PUSH1 0x40 MLOAD PUSH3 0x1FD SWAP1 PUSH3 0x432 JUMP JUMPDEST PUSH3 0x20B SWAP4 SWAP3 SWAP2 SWAP1 PUSH3 0x87E JUMP JUMPDEST PUSH1 0x40 MLOAD DUP1 SWAP2 SUB SWAP1 PUSH1 0x0 CREATE DUP1 ISZERO DUP1 ISZERO PUSH3 0x228 JUMPI RETURNDATASIZE PUSH1 0x0 DUP1 RETURNDATACOPY RETURNDATASIZE PUSH1 0x0 REVERT JUMPDEST POP SWAP1 POP PUSH1 0x1 DUP2 SWAP1 DUP1 PUSH1 0x1 DUP2 SLOAD ADD DUP1 DUP3 SSTORE DUP1 SWAP2 POP POP PUSH1 0x1 SWAP1 SUB SWAP1 PUSH1 0x0 MSTORE PUSH1 0x20 PUSH1 0x0 KECCAK256 ADD PUSH1 0x0 SWAP1 SWAP2 SWAP1 SWAP2 SWAP1 SWAP2 PUSH2 0x100 EXP DUP2 SLOAD DUP2 PUSH20 0xFFFFFFFFFFFFFFFFFFFFFFFFFFFFFFFFFFFFFFFF MUL NOT AND SWAP1 DUP4 PUSH20 0xFFFFFFFFFFFFFFFFFFFFFFFFFFFFFFFFFFFFFFFF AND MUL OR SWAP1 SSTORE POP PUSH1 0x0 PUSH32 0x0 SWAP1 POP DUP1 PUSH20 0xFFFFFFFFFFFFFFFFFFFFFFFFFFFFFFFFFFFFFFFF AND PUSH4 0xEC3140A3 CALLER DUP5 PUSH1 0x40 MLOAD DUP4 PUSH4 0xFFFFFFFF AND PUSH1 0xE0 SHL DUP2 MSTORE PUSH1 0x4 ADD PUSH3 0x2F0 SWAP3 SWAP2 SWAP1 PUSH3 0x7C8 JUMP JUMPDEST PUSH1 0x0 PUSH1 0x40 MLOAD DUP1 DUP4 SUB DUP2 PUSH1 0x0 DUP8 DUP1 EXTCODESIZE ISZERO DUP1 ISZERO PUSH3 0x30B JUMPI PUSH1 0x0 DUP1 REVERT JUMPDEST POP GAS CALL ISZERO DUP1 ISZERO PUSH3 0x320 JUMPI RETURNDATASIZE PUSH1 0x0 DUP1 RETURNDATACOPY RETURNDATASIZE PUSH1 0x0 REVERT JUMPDEST POP POP POP POP PUSH32 0x290F0E8C1A21B082A43DD3AAE739716DD596FC1431641C8075C0A84DC92C4655 CALLER DUP4 PUSH1 0x40 MLOAD PUSH3 0x357 SWAP3 SWAP2 SWAP1 PUSH3 0x7C8 JUMP JUMPDEST PUSH1 0x40 MLOAD DUP1 SWAP2 SUB SWAP1 LOG1 POP POP POP POP JUMP JUMPDEST PUSH1 0x0 DUP1 SLOAD SWAP1 PUSH2 0x100 EXP SWAP1 DIV PUSH20 0xFFFFFFFFFFFFFFFFFFFFFFFFFFFFFFFFFFFFFFFF AND DUP2 JUMP JUMPDEST PUSH1 0x1 DUP2 DUP2 SLOAD DUP2 LT PUSH3 0x39A JUMPI PUSH1 0x0 DUP1 REVERT JUMPDEST SWAP1 PUSH1 0x0 MSTORE PUSH1 0x20 PUSH1 0x0 KECCAK256 ADD PUSH1 0x0 SWAP2 POP SLOAD SWAP1 PUSH2 0x100 EXP SWAP1 DIV PUSH20 0xFFFFFFFFFFFFFFFFFFFFFFFFFFFFFFFFFFFFFFFF AND DUP2 JUMP JUMPDEST PUSH32 0x0 PUSH20 0xFFFFFFFFFFFFFFFFFFFFFFFFFFFFFFFFFFFFFFFF AND ADDRESS PUSH20 0xFFFFFFFFFFFFFFFFFFFFFFFFFFFFFFFFFFFFFFFF AND EQ PUSH3 0x422 JUMPI PUSH1 0x0 DUP1 REVERT JUMPDEST JUMP JUMPDEST PUSH2 0x2192 DUP1 PUSH3 0x8C3 DUP4 CODECOPY ADD SWAP1 JUMP JUMPDEST PUSH2 0x1FB9 DUP1 PUSH3 0x2A55 DUP4 CODECOPY ADD SWAP1 JUMP JUMPDEST PUSH1 0x0 DUP2 MLOAD SWAP1 POP SWAP2 SWAP1 POP JUMP JUMPDEST PUSH1 0x0 DUP3 DUP3 MSTORE PUSH1 0x20 DUP3 ADD SWAP1 POP SWAP3 SWAP2 POP POP JUMP JUMPDEST PUSH1 0x0 DUP2 SWAP1 POP PUSH1 0x20 DUP3 ADD SWAP1 POP SWAP2 SWAP1 POP JUMP JUMPDEST PUSH1 0x0 PUSH20 0xFFFFFFFFFFFFFFFFFFFFFFFFFFFFFFFFFFFFFFFF DUP3 AND SWAP1 POP SWAP2 SWAP1 POP JUMP JUMPDEST PUSH1 0x0 PUSH3 0x499 DUP3 PUSH3 0x46C JUMP JUMPDEST SWAP1 POP SWAP2 SWAP1 POP JUMP JUMPDEST PUSH3 0x4AB DUP2 PUSH3 0x48C JUMP JUMPDEST DUP3 MSTORE POP POP JUMP JUMPDEST PUSH1 0x0 PUSH3 0x4BF DUP4 DUP4 PUSH3 0x4A0 JUMP JUMPDEST PUSH1 0x20 DUP4 ADD SWAP1 POP SWAP3 SWAP2 POP POP JUMP JUMPDEST PUSH1 0x0 PUSH1 0x20 DUP3 ADD SWAP1 POP SWAP2 SWAP1 POP JUMP JUMPDEST PUSH1 0x0 PUSH3 0x4E5 DUP3 PUSH3 0x440 JUMP JUMPDEST PUSH3 0x4F1 DUP2 DUP6 PUSH3 0x44B JUMP JUMPDEST SWAP4 POP PUSH3 0x4FE DUP4 PUSH3 0x45C JUMP JUMPDEST DUP1 PUSH1 0x0 JUMPDEST DUP4 DUP2 LT ISZERO PUSH3 0x535 JUMPI DUP2 MLOAD PUSH3 0x519 DUP9 DUP3 PUSH3 0x4B1 JUMP JUMPDEST SWAP8 POP PUSH3 0x526 DUP4 PUSH3 0x4CB JUMP JUMPDEST SWAP3 POP POP PUSH1 0x1 DUP2 ADD SWAP1 POP PUSH3 0x502 JUMP JUMPDEST POP DUP6 SWAP4 POP POP POP POP SWAP3 SWAP2 POP POP JUMP JUMPDEST PUSH1 0x0 PUSH1 0x20 DUP3 ADD SWAP1 POP DUP2 DUP2 SUB PUSH1 0x0 DUP4 ADD MSTORE PUSH3 0x55E DUP2 DUP5 PUSH3 0x4D8 JUMP JUMPDEST SWAP1 POP SWAP3 SWAP2 POP POP JUMP JUMPDEST PUSH1 0x0 PUSH1 0x40 MLOAD SWAP1 POP SWAP1 JUMP JUMPDEST PUSH1 0x0 DUP1 REVERT JUMPDEST PUSH1 0x0 DUP1 REVERT JUMPDEST PUSH1 0x0 DUP1 REVERT JUMPDEST PUSH1 0x0 DUP1 REVERT JUMPDEST PUSH1 0x0 PUSH1 0x1F NOT PUSH1 0x1F DUP4 ADD AND SWAP1 POP SWAP2 SWAP1 POP JUMP JUMPDEST PUSH32 0x4E487B7100000000000000000000000000000000000000000000000000000000 PUSH1 0x0 MSTORE PUSH1 0x41 PUSH1 0x4 MSTORE PUSH1 0x24 PUSH1 0x0 REVERT JUMPDEST PUSH3 0x5CF DUP3 PUSH3 0x584 JUMP JUMPDEST DUP2 ADD DUP2 DUP2 LT PUSH8 0xFFFFFFFFFFFFFFFF DUP3 GT OR ISZERO PUSH3 0x5F1 JUMPI PUSH3 0x5F0 PUSH3 0x595 JUMP JUMPDEST JUMPDEST DUP1 PUSH1 0x40 MSTORE POP POP POP JUMP JUMPDEST PUSH1 0x0 PUSH3 0x606 PUSH3 0x566 JUMP JUMPDEST SWAP1 POP PUSH3 0x614 DUP3 DUP3 PUSH3 0x5C4 JUMP JUMPDEST SWAP2 SWAP1 POP JUMP JUMPDEST PUSH1 0x0 PUSH8 0xFFFFFFFFFFFFFFFF DUP3 GT ISZERO PUSH3 0x637 JUMPI PUSH3 0x636 PUSH3 0x595 JUMP JUMPDEST JUMPDEST PUSH3 0x642 DUP3 PUSH3 0x584 JUMP JUMPDEST SWAP1 POP PUSH1 0x20 DUP2 ADD SWAP1 POP SWAP2 SWAP1 POP JUMP JUMPDEST DUP3 DUP2 DUP4 CALLDATACOPY PUSH1 0x0 DUP4 DUP4 ADD MSTORE POP POP POP JUMP JUMPDEST PUSH1 0x0 PUSH3 0x675 PUSH3 0x66F DUP5 PUSH3 0x619 JUMP JUMPDEST PUSH3 0x5FA JUMP JUMPDEST SWAP1 POP DUP3 DUP2 MSTORE PUSH1 0x20 DUP2 ADD DUP5 DUP5 DUP5 ADD GT ISZERO PUSH3 0x694 JUMPI PUSH3 0x693 PUSH3 0x57F JUMP JUMPDEST JUMPDEST PUSH3 0x6A1 DUP5 DUP3 DUP6 PUSH3 0x64F JUMP JUMPDEST POP SWAP4 SWAP3 POP POP POP JUMP JUMPDEST PUSH1 0x0 DUP3 PUSH1 0x1F DUP4 ADD SLT PUSH3 0x6C1 JUMPI PUSH3 0x6C0 PUSH3 0x57A JUMP JUMPDEST JUMPDEST DUP2 CALLDATALOAD PUSH3 0x6D3 DUP5 DUP3 PUSH1 0x20 DUP7 ADD PUSH3 0x65E JUMP JUMPDEST SWAP2 POP POP SWAP3 SWAP2 POP POP JUMP JUMPDEST PUSH1 0x0 PUSH1 0x20 DUP3 DUP5 SUB SLT ISZERO PUSH3 0x6F5 JUMPI PUSH3 0x6F4 PUSH3 0x570 JUMP JUMPDEST JUMPDEST PUSH1 0x0 DUP3 ADD CALLDATALOAD PUSH8 0xFFFFFFFFFFFFFFFF DUP2 GT ISZERO PUSH3 0x716 JUMPI PUSH3 0x715 PUSH3 0x575 JUMP JUMPDEST JUMPDEST PUSH3 0x724 DUP5 DUP3 DUP6 ADD PUSH3 0x6A9 JUMP JUMPDEST SWAP2 POP POP SWAP3 SWAP2 POP POP JUMP JUMPDEST PUSH3 0x738 DUP2 PUSH3 0x48C JUMP JUMPDEST DUP3 MSTORE POP POP JUMP JUMPDEST PUSH1 0x0 PUSH1 0x20 DUP3 ADD SWAP1 POP PUSH3 0x755 PUSH1 0x0 DUP4 ADD DUP5 PUSH3 0x72D JUMP JUMPDEST SWAP3 SWAP2 POP POP JUMP JUMPDEST PUSH1 0x0 DUP2 SWAP1 POP SWAP2 SWAP1 POP JUMP JUMPDEST PUSH3 0x770 DUP2 PUSH3 0x75B JUMP JUMPDEST DUP2 EQ PUSH3 0x77C JUMPI PUSH1 0x0 DUP1 REVERT JUMPDEST POP JUMP JUMPDEST PUSH1 0x0 DUP2 CALLDATALOAD SWAP1 POP PUSH3 0x790 DUP2 PUSH3 0x765 JUMP JUMPDEST SWAP3 SWAP2 POP POP JUMP JUMPDEST PUSH1 0x0 PUSH1 0x20 DUP3 DUP5 SUB SLT ISZERO PUSH3 0x7AF JUMPI PUSH3 0x7AE PUSH3 0x570 JUMP JUMPDEST JUMPDEST PUSH1 0x0 PUSH3 0x7BF DUP5 DUP3 DUP6 ADD PUSH3 0x77F JUMP JUMPDEST SWAP2 POP POP SWAP3 SWAP2 POP POP JUMP JUMPDEST PUSH1 0x0 PUSH1 0x40 DUP3 ADD SWAP1 POP PUSH3 0x7DF PUSH1 0x0 DUP4 ADD DUP6 PUSH3 0x72D JUMP JUMPDEST PUSH3 0x7EE PUSH1 0x20 DUP4 ADD DUP5 PUSH3 0x72D JUMP JUMPDEST SWAP4 SWAP3 POP POP POP JUMP JUMPDEST PUSH1 0x0 DUP2 MLOAD SWAP1 POP SWAP2 SWAP1 POP JUMP JUMPDEST PUSH1 0x0 DUP3 DUP3 MSTORE PUSH1 0x20 DUP3 ADD SWAP1 POP SWAP3 SWAP2 POP POP JUMP JUMPDEST PUSH1 0x0 JUMPDEST DUP4 DUP2 LT ISZERO PUSH3 0x831 JUMPI DUP1 DUP3 ADD MLOAD DUP2 DUP5 ADD MSTORE PUSH1 0x20 DUP2 ADD SWAP1 POP PUSH3 0x814 JUMP JUMPDEST PUSH1 0x0 DUP5 DUP5 ADD MSTORE POP POP POP POP JUMP JUMPDEST PUSH1 0x0 PUSH3 0x84A DUP3 PUSH3 0x7F5 JUMP JUMPDEST PUSH3 0x856 DUP2 DUP6 PUSH3 0x800 JUMP JUMPDEST SWAP4 POP PUSH3 0x868 DUP2 DUP6 PUSH1 0x20 DUP7 ADD PUSH3 0x811 JUMP JUMPDEST PUSH3 0x873 DUP2 PUSH3 0x584 JUMP JUMPDEST DUP5 ADD SWAP2 POP POP SWAP3 SWAP2 POP POP JUMP JUMPDEST PUSH1 0x0 PUSH1 0x60 DUP3 ADD SWAP1 POP PUSH3 0x895 PUSH1 0x0 DUP4 ADD DUP7 PUSH3 0x72D JUMP JUMPDEST PUSH3 0x8A4 PUSH1 0x20 DUP4 ADD DUP6 PUSH3 0x72D JUMP JUMPDEST DUP2 DUP2 SUB PUSH1 0x40 DUP4 ADD MSTORE PUSH3 0x8B8 DUP2 DUP5 PUSH3 0x83D JUMP JUMPDEST SWAP1 POP SWAP5 SWAP4 POP POP POP POP JUMP INVALID PUSH1 0xA0 PUSH1 0x40 MSTORE CALLVALUE DUP1 ISZERO PUSH3 0x11 JUMPI PUSH1 0x0 DUP1 REVERT JUMPDEST POP PUSH1 0x40 MLOAD PUSH3 0x2192 CODESIZE SUB DUP1 PUSH3 0x2192 DUP4 CODECOPY DUP2 DUP2 ADD PUSH1 0x40 MSTORE DUP2 ADD SWAP1 PUSH3 0x37 SWAP2 SWAP1 PUSH3 0x11E JUMP JUMPDEST DUP2 PUSH1 0x6 PUSH1 0x0 PUSH2 0x100 EXP DUP2 SLOAD DUP2 PUSH20 0xFFFFFFFFFFFFFFFFFFFFFFFFFFFFFFFFFFFFFFFF MUL NOT AND SWAP1 DUP4 PUSH20 0xFFFFFFFFFFFFFFFFFFFFFFFFFFFFFFFFFFFFFFFF AND MUL OR SWAP1 SSTORE POP DUP1 PUSH20 0xFFFFFFFFFFFFFFFFFFFFFFFFFFFFFFFFFFFFFFFF AND PUSH1 0x80 DUP2 PUSH20 0xFFFFFFFFFFFFFFFFFFFFFFFFFFFFFFFFFFFFFFFF AND DUP2 MSTORE POP POP POP POP PUSH3 0x165 JUMP JUMPDEST PUSH1 0x0 DUP1 REVERT JUMPDEST PUSH1 0x0 PUSH20 0xFFFFFFFFFFFFFFFFFFFFFFFFFFFFFFFFFFFFFFFF DUP3 AND SWAP1 POP SWAP2 SWAP1 POP JUMP JUMPDEST PUSH1 0x0 PUSH3 0xE6 DUP3 PUSH3 0xB9 JUMP JUMPDEST SWAP1 POP SWAP2 SWAP1 POP JUMP JUMPDEST PUSH3 0xF8 DUP2 PUSH3 0xD9 JUMP JUMPDEST DUP2 EQ PUSH3 0x104 JUMPI PUSH1 0x0 DUP1 REVERT JUMPDEST POP JUMP JUMPDEST PUSH1 0x0 DUP2 MLOAD SWAP1 POP PUSH3 0x118 DUP2 PUSH3 0xED JUMP JUMPDEST SWAP3 SWAP2 POP POP JUMP JUMPDEST PUSH1 0x0 DUP1 PUSH1 0x40 DUP4 DUP6 SUB SLT ISZERO PUSH3 0x138 JUMPI PUSH3 0x137 PUSH3 0xB4 JUMP JUMPDEST JUMPDEST PUSH1 0x0 PUSH3 0x148 DUP6 DUP3 DUP7 ADD PUSH3 0x107 JUMP JUMPDEST SWAP3 POP POP PUSH1 0x20 PUSH3 0x15B DUP6 DUP3 DUP7 ADD PUSH3 0x107 JUMP JUMPDEST SWAP2 POP POP SWAP3 POP SWAP3 SWAP1 POP JUMP JUMPDEST PUSH1 0x80 MLOAD PUSH2 0x2014 PUSH3 0x17E PUSH1 0x0 CODECOPY PUSH1 0x0 POP POP PUSH2 0x2014 PUSH1 0x0 RETURN INVALID PUSH1 0x80 PUSH1 0x40 MSTORE CALLVALUE DUP1 ISZERO PUSH2 0x10 JUMPI PUSH1 0x0 DUP1 REVERT JUMPDEST POP PUSH1 0x4 CALLDATASIZE LT PUSH2 0x9D JUMPI PUSH1 0x0 CALLDATALOAD PUSH1 0xE0 SHR DUP1 PUSH4 0x8C468CD4 GT PUSH2 0x66 JUMPI DUP1 PUSH4 0x8C468CD4 EQ PUSH2 0x144 JUMPI DUP1 PUSH4 0xB672BDCB EQ PUSH2 0x174 JUMPI DUP1 PUSH4 0xD9A87535 EQ PUSH2 0x1A4 JUMPI DUP1 PUSH4 0xF6EC9738 EQ PUSH2 0x1D4 JUMPI DUP1 PUSH4 0xFD591902 EQ PUSH2 0x1F0 JUMPI PUSH2 0x9D JUMP JUMPDEST DUP1 PUSH3 0xAD808F EQ PUSH2 0xA2 JUMPI DUP1 PUSH4 0x1292A282 EQ PUSH2 0xD2 JUMPI DUP1 PUSH4 0x273F868E EQ PUSH2 0xEE JUMPI DUP1 PUSH4 0x28F4694C EQ PUSH2 0x10A JUMPI DUP1 PUSH4 0x455772D2 EQ PUSH2 0x126 JUMPI JUMPDEST PUSH1 0x0 DUP1 REVERT JUMPDEST PUSH2 0xBC PUSH1 0x4 DUP1 CALLDATASIZE SUB DUP2 ADD SWAP1 PUSH2 0xB7 SWAP2 SWAP1 PUSH2 0x13E4 JUMP JUMPDEST PUSH2 0x20C JUMP JUMPDEST PUSH1 0x40 MLOAD PUSH2 0xC9 SWAP2 SWAP1 PUSH2 0x14A1 JUMP JUMPDEST PUSH1 0x40 MLOAD DUP1 SWAP2 SUB SWAP1 RETURN JUMPDEST PUSH2 0xEC PUSH1 0x4 DUP1 CALLDATASIZE SUB DUP2 ADD SWAP1 PUSH2 0xE7 SWAP2 SWAP1 PUSH2 0x13E4 JUMP JUMPDEST PUSH2 0x3DE JUMP JUMPDEST STOP JUMPDEST PUSH2 0x108 PUSH1 0x4 DUP1 CALLDATASIZE SUB DUP2 ADD SWAP1 PUSH2 0x103 SWAP2 SWAP1 PUSH2 0x13E4 JUMP JUMPDEST PUSH2 0x5D2 JUMP JUMPDEST STOP JUMPDEST PUSH2 0x124 PUSH1 0x4 DUP1 CALLDATASIZE SUB DUP2 ADD SWAP1 PUSH2 0x11F SWAP2 SWAP1 PUSH2 0x13E4 JUMP JUMPDEST PUSH2 0x7F6 JUMP JUMPDEST STOP JUMPDEST PUSH2 0x12E PUSH2 0xBD4 JUMP JUMPDEST PUSH1 0x40 MLOAD PUSH2 0x13B SWAP2 SWAP1 PUSH2 0x1581 JUMP JUMPDEST PUSH1 0x40 MLOAD DUP1 SWAP2 SUB SWAP1 RETURN JUMPDEST PUSH2 0x15E PUSH1 0x4 DUP1 CALLDATASIZE SUB DUP2 ADD SWAP1 PUSH2 0x159 SWAP2 SWAP1 PUSH2 0x15D9 JUMP JUMPDEST PUSH2 0xD63 JUMP JUMPDEST PUSH1 0x40 MLOAD PUSH2 0x16B SWAP2 SWAP1 PUSH2 0x1615 JUMP JUMPDEST PUSH1 0x40 MLOAD DUP1 SWAP2 SUB SWAP1 RETURN JUMPDEST PUSH2 0x18E PUSH1 0x4 DUP1 CALLDATASIZE SUB DUP2 ADD SWAP1 PUSH2 0x189 SWAP2 SWAP1 PUSH2 0x13E4 JUMP JUMPDEST PUSH2 0xDA2 JUMP JUMPDEST PUSH1 0x40 MLOAD PUSH2 0x19B SWAP2 SWAP1 PUSH2 0x163F JUMP JUMPDEST PUSH1 0x40 MLOAD DUP1 SWAP2 SUB SWAP1 RETURN JUMPDEST PUSH2 0x1BE PUSH1 0x4 DUP1 CALLDATASIZE SUB DUP2 ADD SWAP1 PUSH2 0x1B9 SWAP2 SWAP1 PUSH2 0x13E4 JUMP JUMPDEST PUSH2 0xDEB JUMP JUMPDEST PUSH1 0x40 MLOAD PUSH2 0x1CB SWAP2 SWAP1 PUSH2 0x163F JUMP JUMPDEST PUSH1 0x40 MLOAD DUP1 SWAP2 SUB SWAP1 RETURN JUMPDEST PUSH2 0x1EE PUSH1 0x4 DUP1 CALLDATASIZE SUB DUP2 ADD SWAP1 PUSH2 0x1E9 SWAP2 SWAP1 PUSH2 0x13E4 JUMP JUMPDEST PUSH2 0xE37 JUMP JUMPDEST STOP JUMPDEST PUSH2 0x20A PUSH1 0x4 DUP1 CALLDATASIZE SUB DUP2 ADD SWAP1 PUSH2 0x205 SWAP2 SWAP1 PUSH2 0x16BF JUMP JUMPDEST PUSH2 0xE7B JUMP JUMPDEST STOP JUMPDEST PUSH1 0x60 CALLER PUSH1 0x6 PUSH1 0x0 SWAP1 SLOAD SWAP1 PUSH2 0x100 EXP SWAP1 DIV PUSH20 0xFFFFFFFFFFFFFFFFFFFFFFFFFFFFFFFFFFFFFFFF AND PUSH20 0xFFFFFFFFFFFFFFFFFFFFFFFFFFFFFFFFFFFFFFFF AND PUSH4 0x39AC7A08 DUP3 PUSH1 0x7 PUSH1 0x0 SWAP1 SLOAD SWAP1 PUSH2 0x100 EXP SWAP1 DIV PUSH20 0xFFFFFFFFFFFFFFFFFFFFFFFFFFFFFFFFFFFFFFFF AND PUSH1 0x40 MLOAD DUP4 PUSH4 0xFFFFFFFF AND PUSH1 0xE0 SHL DUP2 MSTORE PUSH1 0x4 ADD PUSH2 0x28E SWAP3 SWAP2 SWAP1 PUSH2 0x170C JUMP JUMPDEST PUSH1 0x20 PUSH1 0x40 MLOAD DUP1 DUP4 SUB DUP2 DUP7 GAS STATICCALL ISZERO DUP1 ISZERO PUSH2 0x2AB JUMPI RETURNDATASIZE PUSH1 0x0 DUP1 RETURNDATACOPY RETURNDATASIZE PUSH1 0x0 REVERT JUMPDEST POP POP POP POP PUSH1 0x40 MLOAD RETURNDATASIZE PUSH1 0x1F NOT PUSH1 0x1F DUP3 ADD AND DUP3 ADD DUP1 PUSH1 0x40 MSTORE POP DUP2 ADD SWAP1 PUSH2 0x2CF SWAP2 SWAP1 PUSH2 0x176D JUMP JUMPDEST PUSH2 0x30E JUMPI PUSH1 0x40 MLOAD PUSH32 0x8C379A000000000000000000000000000000000000000000000000000000000 DUP2 MSTORE PUSH1 0x4 ADD PUSH2 0x305 SWAP1 PUSH2 0x17E6 JUMP JUMPDEST PUSH1 0x40 MLOAD DUP1 SWAP2 SUB SWAP1 REVERT JUMPDEST PUSH1 0x4 PUSH1 0x0 DUP5 PUSH20 0xFFFFFFFFFFFFFFFFFFFFFFFFFFFFFFFFFFFFFFFF AND PUSH20 0xFFFFFFFFFFFFFFFFFFFFFFFFFFFFFFFFFFFFFFFF AND DUP2 MSTORE PUSH1 0x20 ADD SWAP1 DUP2 MSTORE PUSH1 0x20 ADD PUSH1 0x0 KECCAK256 DUP1 SLOAD PUSH2 0x358 SWAP1 PUSH2 0x1835 JUMP JUMPDEST DUP1 PUSH1 0x1F ADD PUSH1 0x20 DUP1 SWAP2 DIV MUL PUSH1 0x20 ADD PUSH1 0x40 MLOAD SWAP1 DUP2 ADD PUSH1 0x40 MSTORE DUP1 SWAP3 SWAP2 SWAP1 DUP2 DUP2 MSTORE PUSH1 0x20 ADD DUP3 DUP1 SLOAD PUSH2 0x384 SWAP1 PUSH2 0x1835 JUMP JUMPDEST DUP1 ISZERO PUSH2 0x3D1 JUMPI DUP1 PUSH1 0x1F LT PUSH2 0x3A6 JUMPI PUSH2 0x100 DUP1 DUP4 SLOAD DIV MUL DUP4 MSTORE SWAP2 PUSH1 0x20 ADD SWAP2 PUSH2 0x3D1 JUMP JUMPDEST DUP3 ADD SWAP2 SWAP1 PUSH1 0x0 MSTORE PUSH1 0x20 PUSH1 0x0 KECCAK256 SWAP1 JUMPDEST DUP2 SLOAD DUP2 MSTORE SWAP1 PUSH1 0x1 ADD SWAP1 PUSH1 0x20 ADD DUP1 DUP4 GT PUSH2 0x3B4 JUMPI DUP3 SWAP1 SUB PUSH1 0x1F AND DUP3 ADD SWAP2 JUMPDEST POP POP POP POP POP SWAP2 POP POP SWAP2 SWAP1 POP JUMP JUMPDEST CALLER PUSH1 0x7 PUSH1 0x0 SWAP1 SLOAD SWAP1 PUSH2 0x100 EXP SWAP1 DIV PUSH20 0xFFFFFFFFFFFFFFFFFFFFFFFFFFFFFFFFFFFFFFFF AND PUSH20 0xFFFFFFFFFFFFFFFFFFFFFFFFFFFFFFFFFFFFFFFF AND DUP2 PUSH20 0xFFFFFFFFFFFFFFFFFFFFFFFFFFFFFFFFFFFFFFFF AND EQ PUSH2 0x46F JUMPI PUSH1 0x40 MLOAD PUSH32 0x8C379A000000000000000000000000000000000000000000000000000000000 DUP2 MSTORE PUSH1 0x4 ADD PUSH2 0x466 SWAP1 PUSH2 0x18B2 JUMP JUMPDEST PUSH1 0x40 MLOAD DUP1 SWAP2 SUB SWAP1 REVERT JUMPDEST PUSH1 0x7 PUSH1 0x0 SWAP1 SLOAD SWAP1 PUSH2 0x100 EXP SWAP1 DIV PUSH20 0xFFFFFFFFFFFFFFFFFFFFFFFFFFFFFFFFFFFFFFFF AND PUSH20 0xFFFFFFFFFFFFFFFFFFFFFFFFFFFFFFFFFFFFFFFF AND CALLER PUSH20 0xFFFFFFFFFFFFFFFFFFFFFFFFFFFFFFFFFFFFFFFF AND EQ PUSH2 0x4C9 JUMPI PUSH1 0x0 DUP1 REVERT JUMPDEST PUSH1 0x6 PUSH1 0x0 SWAP1 SLOAD SWAP1 PUSH2 0x100 EXP SWAP1 DIV PUSH20 0xFFFFFFFFFFFFFFFFFFFFFFFFFFFFFFFFFFFFFFFF AND PUSH20 0xFFFFFFFFFFFFFFFFFFFFFFFFFFFFFFFFFFFFFFFF AND PUSH4 0x9D58B15D PUSH1 0x7 PUSH1 0x0 SWAP1 SLOAD SWAP1 PUSH2 0x100 EXP SWAP1 DIV PUSH20 0xFFFFFFFFFFFFFFFFFFFFFFFFFFFFFFFFFFFFFFFF AND DUP5 PUSH1 0x40 MLOAD DUP4 PUSH4 0xFFFFFFFF AND PUSH1 0xE0 SHL DUP2 MSTORE PUSH1 0x4 ADD PUSH2 0x548 SWAP3 SWAP2 SWAP1 PUSH2 0x170C JUMP JUMPDEST PUSH1 0x0 PUSH1 0x40 MLOAD DUP1 DUP4 SUB DUP2 PUSH1 0x0 DUP8 DUP1 EXTCODESIZE ISZERO DUP1 ISZERO PUSH2 0x562 JUMPI PUSH1 0x0 DUP1 REVERT JUMPDEST POP GAS CALL ISZERO DUP1 ISZERO PUSH2 0x576 JUMPI RETURNDATASIZE PUSH1 0x0 DUP1 RETURNDATACOPY RETURNDATASIZE PUSH1 0x0 REVERT JUMPDEST POP POP POP POP PUSH2 0x583 DUP3 PUSH2 0x11B2 JUMP JUMPDEST PUSH1 0x1 PUSH1 0x0 CALLER PUSH20 0xFFFFFFFFFFFFFFFFFFFFFFFFFFFFFFFFFFFFFFFF AND PUSH20 0xFFFFFFFFFFFFFFFFFFFFFFFFFFFFFFFFFFFFFFFF AND DUP2 MSTORE PUSH1 0x20 ADD SWAP1 DUP2 MSTORE PUSH1 0x20 ADD PUSH1 0x0 KECCAK256 PUSH1 0x0 PUSH2 0x5CE SWAP2 SWAP1 PUSH2 0x133E JUMP JUMPDEST POP POP JUMP JUMPDEST CALLER PUSH1 0x7 PUSH1 0x0 SWAP1 SLOAD SWAP1 PUSH2 0x100 EXP SWAP1 DIV PUSH20 0xFFFFFFFFFFFFFFFFFFFFFFFFFFFFFFFFFFFFFFFF AND PUSH20 0xFFFFFFFFFFFFFFFFFFFFFFFFFFFFFFFFFFFFFFFF AND DUP2 PUSH20 0xFFFFFFFFFFFFFFFFFFFFFFFFFFFFFFFFFFFFFFFF AND EQ PUSH2 0x663 JUMPI PUSH1 0x40 MLOAD PUSH32 0x8C379A000000000000000000000000000000000000000000000000000000000 DUP2 MSTORE PUSH1 0x4 ADD PUSH2 0x65A SWAP1 PUSH2 0x18B2 JUMP JUMPDEST PUSH1 0x40 MLOAD DUP1 SWAP2 SUB SWAP1 REVERT JUMPDEST PUSH1 0x3 PUSH1 0x0 DUP4 PUSH20 0xFFFFFFFFFFFFFFFFFFFFFFFFFFFFFFFFFFFFFFFF AND PUSH20 0xFFFFFFFFFFFFFFFFFFFFFFFFFFFFFFFFFFFFFFFF AND DUP2 MSTORE PUSH1 0x20 ADD SWAP1 DUP2 MSTORE PUSH1 0x20 ADD PUSH1 0x0 KECCAK256 PUSH1 0x0 SWAP1 SLOAD SWAP1 PUSH2 0x100 EXP SWAP1 DIV PUSH1 0xFF AND PUSH2 0x6EF JUMPI PUSH1 0x40 MLOAD PUSH32 0x8C379A000000000000000000000000000000000000000000000000000000000 DUP2 MSTORE PUSH1 0x4 ADD PUSH2 0x6E6 SWAP1 PUSH2 0x191E JUMP JUMPDEST PUSH1 0x40 MLOAD DUP1 SWAP2 SUB SWAP1 REVERT JUMPDEST PUSH1 0x0 PUSH1 0x3 PUSH1 0x0 DUP5 PUSH20 0xFFFFFFFFFFFFFFFFFFFFFFFFFFFFFFFFFFFFFFFF AND PUSH20 0xFFFFFFFFFFFFFFFFFFFFFFFFFFFFFFFFFFFFFFFF AND DUP2 MSTORE PUSH1 0x20 ADD SWAP1 DUP2 MSTORE PUSH1 0x20 ADD PUSH1 0x0 KECCAK256 PUSH1 0x0 PUSH2 0x100 EXP DUP2 SLOAD DUP2 PUSH1 0xFF MUL NOT AND SWAP1 DUP4 ISZERO ISZERO MUL OR SWAP1 SSTORE POP PUSH1 0x1 PUSH1 0x2 PUSH1 0x0 CALLER PUSH20 0xFFFFFFFFFFFFFFFFFFFFFFFFFFFFFFFFFFFFFFFF AND PUSH20 0xFFFFFFFFFFFFFFFFFFFFFFFFFFFFFFFFFFFFFFFF AND DUP2 MSTORE PUSH1 0x20 ADD SWAP1 DUP2 MSTORE PUSH1 0x20 ADD PUSH1 0x0 KECCAK256 PUSH1 0x0 DUP3 DUP3 SLOAD PUSH2 0x797 SWAP2 SWAP1 PUSH2 0x1977 JUMP JUMPDEST SWAP3 POP POP DUP2 SWAP1 SSTORE POP PUSH2 0x7A7 DUP3 PUSH2 0x11B2 JUMP JUMPDEST PUSH1 0x1 PUSH1 0x0 CALLER PUSH20 0xFFFFFFFFFFFFFFFFFFFFFFFFFFFFFFFFFFFFFFFF AND PUSH20 0xFFFFFFFFFFFFFFFFFFFFFFFFFFFFFFFFFFFFFFFF AND DUP2 MSTORE PUSH1 0x20 ADD SWAP1 DUP2 MSTORE PUSH1 0x20 ADD PUSH1 0x0 KECCAK256 PUSH1 0x0 PUSH2 0x7F2 SWAP2 SWAP1 PUSH2 0x133E JUMP JUMPDEST POP POP JUMP JUMPDEST CALLER PUSH1 0x6 PUSH1 0x0 SWAP1 SLOAD SWAP1 PUSH2 0x100 EXP SWAP1 DIV PUSH20 0xFFFFFFFFFFFFFFFFFFFFFFFFFFFFFFFFFFFFFFFF AND PUSH20 0xFFFFFFFFFFFFFFFFFFFFFFFFFFFFFFFFFFFFFFFF AND PUSH4 0x39AC7A08 DUP3 PUSH1 0x7 PUSH1 0x0 SWAP1 SLOAD SWAP1 PUSH2 0x100 EXP SWAP1 DIV PUSH20 0xFFFFFFFFFFFFFFFFFFFFFFFFFFFFFFFFFFFFFFFF AND PUSH1 0x40 MLOAD DUP4 PUSH4 0xFFFFFFFF AND PUSH1 0xE0 SHL DUP2 MSTORE PUSH1 0x4 ADD PUSH2 0x876 SWAP3 SWAP2 SWAP1 PUSH2 0x170C JUMP JUMPDEST PUSH1 0x20 PUSH1 0x40 MLOAD DUP1 DUP4 SUB DUP2 DUP7 GAS STATICCALL ISZERO DUP1 ISZERO PUSH2 0x893 JUMPI RETURNDATASIZE PUSH1 0x0 DUP1 RETURNDATACOPY RETURNDATASIZE PUSH1 0x0 REVERT JUMPDEST POP POP POP POP PUSH1 0x40 MLOAD RETURNDATASIZE PUSH1 0x1F NOT PUSH1 0x1F DUP3 ADD AND DUP3 ADD DUP1 PUSH1 0x40 MSTORE POP DUP2 ADD SWAP1 PUSH2 0x8B7 SWAP2 SWAP1 PUSH2 0x176D JUMP JUMPDEST PUSH2 0x8F6 JUMPI PUSH1 0x40 MLOAD PUSH32 0x8C379A000000000000000000000000000000000000000000000000000000000 DUP2 MSTORE PUSH1 0x4 ADD PUSH2 0x8ED SWAP1 PUSH2 0x17E6 JUMP JUMPDEST PUSH1 0x40 MLOAD DUP1 SWAP2 SUB SWAP1 REVERT JUMPDEST PUSH1 0x3 PUSH1 0x0 DUP4 PUSH20 0xFFFFFFFFFFFFFFFFFFFFFFFFFFFFFFFFFFFFFFFF AND PUSH20 0xFFFFFFFFFFFFFFFFFFFFFFFFFFFFFFFFFFFFFFFF AND DUP2 MSTORE PUSH1 0x20 ADD SWAP1 DUP2 MSTORE PUSH1 0x20 ADD PUSH1 0x0 KECCAK256 PUSH1 0x0 SWAP1 SLOAD SWAP1 PUSH2 0x100 EXP SWAP1 DIV PUSH1 0xFF AND PUSH2 0x982 JUMPI PUSH1 0x40 MLOAD PUSH32 0x8C379A000000000000000000000000000000000000000000000000000000000 DUP2 MSTORE PUSH1 0x4 ADD PUSH2 0x979 SWAP1 PUSH2 0x1A06 JUMP JUMPDEST PUSH1 0x40 MLOAD DUP1 SWAP2 SUB SWAP1 REVERT JUMPDEST PUSH1 0x0 DUP1 JUMPDEST PUSH1 0x1 PUSH1 0x0 DUP6 PUSH20 0xFFFFFFFFFFFFFFFFFFFFFFFFFFFFFFFFFFFFFFFF AND PUSH20 0xFFFFFFFFFFFFFFFFFFFFFFFFFFFFFFFFFFFFFFFF AND DUP2 MSTORE PUSH1 0x20 ADD SWAP1 DUP2 MSTORE PUSH1 0x20 ADD PUSH1 0x0 KECCAK256 DUP1 SLOAD SWAP1 POP DUP2 LT ISZERO PUSH2 0xA96 JUMPI CALLER PUSH20 0xFFFFFFFFFFFFFFFFFFFFFFFFFFFFFFFFFFFFFFFF AND PUSH1 0x1 PUSH1 0x0 DUP7 PUSH20 0xFFFFFFFFFFFFFFFFFFFFFFFFFFFFFFFFFFFFFFFF AND PUSH20 0xFFFFFFFFFFFFFFFFFFFFFFFFFFFFFFFFFFFFFFFF AND DUP2 MSTORE PUSH1 0x20 ADD SWAP1 DUP2 MSTORE PUSH1 0x20 ADD PUSH1 0x0 KECCAK256 DUP3 DUP2 SLOAD DUP2 LT PUSH2 0xA38 JUMPI PUSH2 0xA37 PUSH2 0x1A26 JUMP JUMPDEST JUMPDEST SWAP1 PUSH1 0x0 MSTORE PUSH1 0x20 PUSH1 0x0 KECCAK256 ADD PUSH1 0x0 SWAP1 SLOAD SWAP1 PUSH2 0x100 EXP SWAP1 DIV PUSH20 0xFFFFFFFFFFFFFFFFFFFFFFFFFFFFFFFFFFFFFFFF AND PUSH20 0xFFFFFFFFFFFFFFFFFFFFFFFFFFFFFFFFFFFFFFFF AND SUB PUSH2 0xA83 JUMPI PUSH1 0x1 SWAP2 POP JUMPDEST DUP1 DUP1 PUSH2 0xA8E SWAP1 PUSH2 0x1A55 JUMP JUMPDEST SWAP2 POP POP PUSH2 0x986 JUMP JUMPDEST POP DUP1 ISZERO PUSH2 0xAD8 JUMPI PUSH1 0x40 MLOAD PUSH32 0x8C379A000000000000000000000000000000000000000000000000000000000 DUP2 MSTORE PUSH1 0x4 ADD PUSH2 0xACF SWAP1 PUSH2 0x1AE9 JUMP JUMPDEST PUSH1 0x40 MLOAD DUP1 SWAP2 SUB SWAP1 REVERT JUMPDEST PUSH1 0x1 PUSH1 0x0 DUP5 PUSH20 0xFFFFFFFFFFFFFFFFFFFFFFFFFFFFFFFFFFFFFFFF AND PUSH20 0xFFFFFFFFFFFFFFFFFFFFFFFFFFFFFFFFFFFFFFFF AND DUP2 MSTORE PUSH1 0x20 ADD SWAP1 DUP2 MSTORE PUSH1 0x20 ADD PUSH1 0x0 KECCAK256 CALLER SWAP1 DUP1 PUSH1 0x1 DUP2 SLOAD ADD DUP1 DUP3 SSTORE DUP1 SWAP2 POP POP PUSH1 0x1 SWAP1 SUB SWAP1 PUSH1 0x0 MSTORE PUSH1 0x20 PUSH1 0x0 KECCAK256 ADD PUSH1 0x0 SWAP1 SWAP2 SWAP1 SWAP2 SWAP1 SWAP2 PUSH2 0x100 EXP DUP2 SLOAD DUP2 PUSH20 0xFFFFFFFFFFFFFFFFFFFFFFFFFFFFFFFFFFFFFFFF MUL NOT AND SWAP1 DUP4 PUSH20 0xFFFFFFFFFFFFFFFFFFFFFFFFFFFFFFFFFFFFFFFF AND MUL OR SWAP1 SSTORE POP PUSH1 0x1 PUSH1 0x2 PUSH1 0x0 DUP6 PUSH20 0xFFFFFFFFFFFFFFFFFFFFFFFFFFFFFFFFFFFFFFFF AND PUSH20 0xFFFFFFFFFFFFFFFFFFFFFFFFFFFFFFFFFFFFFFFF AND DUP2 MSTORE PUSH1 0x20 ADD SWAP1 DUP2 MSTORE PUSH1 0x20 ADD PUSH1 0x0 KECCAK256 PUSH1 0x0 DUP3 DUP3 SLOAD PUSH2 0xBC8 SWAP2 SWAP1 PUSH2 0x1B09 JUMP JUMPDEST SWAP3 POP POP DUP2 SWAP1 SSTORE POP POP POP POP JUMP JUMPDEST PUSH1 0x60 CALLER PUSH1 0x6 PUSH1 0x0 SWAP1 SLOAD SWAP1 PUSH2 0x100 EXP SWAP1 DIV PUSH20 0xFFFFFFFFFFFFFFFFFFFFFFFFFFFFFFFFFFFFFFFF AND PUSH20 0xFFFFFFFFFFFFFFFFFFFFFFFFFFFFFFFFFFFFFFFF AND PUSH4 0x39AC7A08 DUP3 PUSH1 0x7 PUSH1 0x0 SWAP1 SLOAD SWAP1 PUSH2 0x100 EXP SWAP1 DIV PUSH20 0xFFFFFFFFFFFFFFFFFFFFFFFFFFFFFFFFFFFFFFFF AND PUSH1 0x40 MLOAD DUP4 PUSH4 0xFFFFFFFF AND PUSH1 0xE0 SHL DUP2 MSTORE PUSH1 0x4 ADD PUSH2 0xC56 SWAP3 SWAP2 SWAP1 PUSH2 0x170C JUMP JUMPDEST PUSH1 0x20 PUSH1 0x40 MLOAD DUP1 DUP4 SUB DUP2 DUP7 GAS STATICCALL ISZERO DUP1 ISZERO PUSH2 0xC73 JUMPI RETURNDATASIZE PUSH1 0x0 DUP1 RETURNDATACOPY RETURNDATASIZE PUSH1 0x0 REVERT JUMPDEST POP POP POP POP PUSH1 0x40 MLOAD RETURNDATASIZE PUSH1 0x1F NOT PUSH1 0x1F DUP3 ADD AND DUP3 ADD DUP1 PUSH1 0x40 MSTORE POP DUP2 ADD SWAP1 PUSH2 0xC97 SWAP2 SWAP1 PUSH2 0x176D JUMP JUMPDEST PUSH2 0xCD6 JUMPI PUSH1 0x40 MLOAD PUSH32 0x8C379A000000000000000000000000000000000000000000000000000000000 DUP2 MSTORE PUSH1 0x4 ADD PUSH2 0xCCD SWAP1 PUSH2 0x17E6 JUMP JUMPDEST PUSH1 0x40 MLOAD DUP1 SWAP2 SUB SWAP1 REVERT JUMPDEST PUSH1 0x0 DUP1 SLOAD DUP1 PUSH1 0x20 MUL PUSH1 0x20 ADD PUSH1 0x40 MLOAD SWAP1 DUP2 ADD PUSH1 0x40 MSTORE DUP1 SWAP3 SWAP2 SWAP1 DUP2 DUP2 MSTORE PUSH1 0x20 ADD DUP3 DUP1 SLOAD DUP1 ISZERO PUSH2 0xD58 JUMPI PUSH1 0x20 MUL DUP3 ADD SWAP2 SWAP1 PUSH1 0x0 MSTORE PUSH1 0x20 PUSH1 0x0 KECCAK256 SWAP1 JUMPDEST DUP2 PUSH1 0x0 SWAP1 SLOAD SWAP1 PUSH2 0x100 EXP SWAP1 DIV PUSH20 0xFFFFFFFFFFFFFFFFFFFFFFFFFFFFFFFFFFFFFFFF AND PUSH20 0xFFFFFFFFFFFFFFFFFFFFFFFFFFFFFFFFFFFFFFFF AND DUP2 MSTORE PUSH1 0x20 ADD SWAP1 PUSH1 0x1 ADD SWAP1 DUP1 DUP4 GT PUSH2 0xD0E JUMPI JUMPDEST POP POP POP POP POP SWAP2 POP POP SWAP1 JUMP JUMPDEST PUSH1 0x0 DUP2 DUP2 SLOAD DUP2 LT PUSH2 0xD73 JUMPI PUSH1 0x0 DUP1 REVERT JUMPDEST SWAP1 PUSH1 0x0 MSTORE PUSH1 0x20 PUSH1 0x0 KECCAK256 ADD PUSH1 0x0 SWAP2 POP SLOAD SWAP1 PUSH2 0x100 EXP SWAP1 DIV PUSH20 0xFFFFFFFFFFFFFFFFFFFFFFFFFFFFFFFFFFFFFFFF AND DUP2 JUMP JUMPDEST PUSH1 0x0 PUSH1 0x5 PUSH1 0x0 DUP4 PUSH20 0xFFFFFFFFFFFFFFFFFFFFFFFFFFFFFFFFFFFFFFFF AND PUSH20 0xFFFFFFFFFFFFFFFFFFFFFFFFFFFFFFFFFFFFFFFF AND DUP2 MSTORE PUSH1 0x20 ADD SWAP1 DUP2 MSTORE PUSH1 0x20 ADD PUSH1 0x0 KECCAK256 SLOAD SWAP1 POP SWAP2 SWAP1 POP JUMP JUMPDEST PUSH1 0x0 PUSH1 0x1 PUSH1 0x0 DUP4 PUSH20 0xFFFFFFFFFFFFFFFFFFFFFFFFFFFFFFFFFFFFFFFF AND PUSH20 0xFFFFFFFFFFFFFFFFFFFFFFFFFFFFFFFFFFFFFFFF AND DUP2 MSTORE PUSH1 0x20 ADD SWAP1 DUP2 MSTORE PUSH1 0x20 ADD PUSH1 0x0 KECCAK256 DUP1 SLOAD SWAP1 POP SWAP1 POP SWAP2 SWAP1 POP JUMP JUMPDEST DUP1 PUSH1 0x7 PUSH1 0x0 PUSH2 0x100 EXP DUP2 SLOAD DUP2 PUSH20 0xFFFFFFFFFFFFFFFFFFFFFFFFFFFFFFFFFFFFFFFF MUL NOT AND SWAP1 DUP4 PUSH20 0xFFFFFFFFFFFFFFFFFFFFFFFFFFFFFFFFFFFFFFFF AND MUL OR SWAP1 SSTORE POP POP JUMP JUMPDEST PUSH1 0x6 PUSH1 0x0 SWAP1 SLOAD SWAP1 PUSH2 0x100 EXP SWAP1 DIV PUSH20 0xFFFFFFFFFFFFFFFFFFFFFFFFFFFFFFFFFFFFFFFF AND PUSH20 0xFFFFFFFFFFFFFFFFFFFFFFFFFFFFFFFFFFFFFFFF AND PUSH4 0x39AC7A08 CALLER PUSH1 0x7 PUSH1 0x0 SWAP1 SLOAD SWAP1 PUSH2 0x100 EXP SWAP1 DIV PUSH20 0xFFFFFFFFFFFFFFFFFFFFFFFFFFFFFFFFFFFFFFFF AND PUSH1 0x40 MLOAD DUP4 PUSH4 0xFFFFFFFF AND PUSH1 0xE0 SHL DUP2 MSTORE PUSH1 0x4 ADD PUSH2 0xEFA SWAP3 SWAP2 SWAP1 PUSH2 0x170C JUMP JUMPDEST PUSH1 0x20 PUSH1 0x40 MLOAD DUP1 DUP4 SUB DUP2 DUP7 GAS STATICCALL ISZERO DUP1 ISZERO PUSH2 0xF17 JUMPI RETURNDATASIZE PUSH1 0x0 DUP1 RETURNDATACOPY RETURNDATASIZE PUSH1 0x0 REVERT JUMPDEST POP POP POP POP PUSH1 0x40 MLOAD RETURNDATASIZE PUSH1 0x1F NOT PUSH1 0x1F DUP3 ADD AND DUP3 ADD DUP1 PUSH1 0x40 MSTORE POP DUP2 ADD SWAP1 PUSH2 0xF3B SWAP2 SWAP1 PUSH2 0x176D JUMP JUMPDEST ISZERO PUSH2 0xF7B JUMPI PUSH1 0x40 MLOAD PUSH32 0x8C379A000000000000000000000000000000000000000000000000000000000 DUP2 MSTORE PUSH1 0x4 ADD PUSH2 0xF72 SWAP1 PUSH2 0x1B99 JUMP JUMPDEST PUSH1 0x40 MLOAD DUP1 SWAP2 SUB SWAP1 REVERT JUMPDEST PUSH1 0x3 PUSH1 0x0 CALLER PUSH20 0xFFFFFFFFFFFFFFFFFFFFFFFFFFFFFFFFFFFFFFFF AND PUSH20 0xFFFFFFFFFFFFFFFFFFFFFFFFFFFFFFFFFFFFFFFF AND DUP2 MSTORE PUSH1 0x20 ADD SWAP1 DUP2 MSTORE PUSH1 0x20 ADD PUSH1 0x0 KECCAK256 PUSH1 0x0 SWAP1 SLOAD SWAP1 PUSH2 0x100 EXP SWAP1 DIV PUSH1 0xFF AND ISZERO PUSH2 0x1008 JUMPI PUSH1 0x40 MLOAD PUSH32 0x8C379A000000000000000000000000000000000000000000000000000000000 DUP2 MSTORE PUSH1 0x4 ADD PUSH2 0xFFF SWAP1 PUSH2 0x1C05 JUMP JUMPDEST PUSH1 0x40 MLOAD DUP1 SWAP2 SUB SWAP1 REVERT JUMPDEST PUSH32 0xFFFFFFFFFFFFFFFFFFFFFFFFFFFFFFFFFFFFFFFFFFFFFFFFFFFFFFFFFFFFFFFD PUSH1 0x2 PUSH1 0x0 CALLER PUSH20 0xFFFFFFFFFFFFFFFFFFFFFFFFFFFFFFFFFFFFFFFF AND PUSH20 0xFFFFFFFFFFFFFFFFFFFFFFFFFFFFFFFFFFFFFFFF AND DUP2 MSTORE PUSH1 0x20 ADD SWAP1 DUP2 MSTORE PUSH1 0x20 ADD PUSH1 0x0 KECCAK256 SLOAD SGT PUSH2 0x10A9 JUMPI PUSH1 0x40 MLOAD PUSH32 0x8C379A000000000000000000000000000000000000000000000000000000000 DUP2 MSTORE PUSH1 0x4 ADD PUSH2 0x10A0 SWAP1 PUSH2 0x1C71 JUMP JUMPDEST PUSH1 0x40 MLOAD DUP1 SWAP2 SUB SWAP1 REVERT JUMPDEST DUP2 DUP2 PUSH1 0x4 PUSH1 0x0 CALLER PUSH20 0xFFFFFFFFFFFFFFFFFFFFFFFFFFFFFFFFFFFFFFFF AND PUSH20 0xFFFFFFFFFFFFFFFFFFFFFFFFFFFFFFFFFFFFFFFF AND DUP2 MSTORE PUSH1 0x20 ADD SWAP1 DUP2 MSTORE PUSH1 0x20 ADD PUSH1 0x0 KECCAK256 SWAP2 DUP3 PUSH2 0x10F7 SWAP3 SWAP2 SWAP1 PUSH2 0x1E77 JUMP JUMPDEST POP PUSH1 0x0 CALLER SWAP1 DUP1 PUSH1 0x1 DUP2 SLOAD ADD DUP1 DUP3 SSTORE DUP1 SWAP2 POP POP PUSH1 0x1 SWAP1 SUB SWAP1 PUSH1 0x0 MSTORE PUSH1 0x20 PUSH1 0x0 KECCAK256 ADD PUSH1 0x0 SWAP1 SWAP2 SWAP1 SWAP2 SWAP1 SWAP2 PUSH2 0x100 EXP DUP2 SLOAD DUP2 PUSH20 0xFFFFFFFFFFFFFFFFFFFFFFFFFFFFFFFFFFFFFFFF MUL NOT AND SWAP1 DUP4 PUSH20 0xFFFFFFFFFFFFFFFFFFFFFFFFFFFFFFFFFFFFFFFF AND MUL OR SWAP1 SSTORE POP PUSH4 0xF731400 TIMESTAMP PUSH2 0x116B SWAP2 SWAP1 PUSH2 0x1F47 JUMP JUMPDEST PUSH1 0x5 PUSH1 0x0 CALLER PUSH20 0xFFFFFFFFFFFFFFFFFFFFFFFFFFFFFFFFFFFFFFFF AND PUSH20 0xFFFFFFFFFFFFFFFFFFFFFFFFFFFFFFFFFFFFFFFF AND DUP2 MSTORE PUSH1 0x20 ADD SWAP1 DUP2 MSTORE PUSH1 0x20 ADD PUSH1 0x0 KECCAK256 DUP2 SWAP1 SSTORE POP POP POP JUMP JUMPDEST PUSH1 0x0 JUMPDEST PUSH1 0x0 DUP1 SLOAD SWAP1 POP DUP2 LT ISZERO PUSH2 0x1247 JUMPI DUP2 PUSH20 0xFFFFFFFFFFFFFFFFFFFFFFFFFFFFFFFFFFFFFFFF AND PUSH1 0x0 DUP3 DUP2 SLOAD DUP2 LT PUSH2 0x11ED JUMPI PUSH2 0x11EC PUSH2 0x1A26 JUMP JUMPDEST JUMPDEST SWAP1 PUSH1 0x0 MSTORE PUSH1 0x20 PUSH1 0x0 KECCAK256 ADD PUSH1 0x0 SWAP1 SLOAD SWAP1 PUSH2 0x100 EXP SWAP1 DIV PUSH20 0xFFFFFFFFFFFFFFFFFFFFFFFFFFFFFFFFFFFFFFFF AND PUSH20 0xFFFFFFFFFFFFFFFFFFFFFFFFFFFFFFFFFFFFFFFF AND SUB ISZERO PUSH2 0x1247 JUMPI DUP1 DUP1 PUSH2 0x123F SWAP1 PUSH2 0x1A55 JUMP JUMPDEST SWAP2 POP POP PUSH2 0x11B5 JUMP JUMPDEST PUSH1 0x0 PUSH1 0x1 PUSH1 0x0 DUP1 SLOAD SWAP1 POP PUSH2 0x125B SWAP2 SWAP1 PUSH2 0x1F7B JUMP JUMPDEST DUP2 SLOAD DUP2 LT PUSH2 0x126C JUMPI PUSH2 0x126B PUSH2 0x1A26 JUMP JUMPDEST JUMPDEST SWAP1 PUSH1 0x0 MSTORE PUSH1 0x20 PUSH1 0x0 KECCAK256 ADD PUSH1 0x0 SWAP1 SLOAD SWAP1 PUSH2 0x100 EXP SWAP1 DIV PUSH20 0xFFFFFFFFFFFFFFFFFFFFFFFFFFFFFFFFFFFFFFFF AND PUSH1 0x0 DUP3 DUP2 SLOAD DUP2 LT PUSH2 0x12AB JUMPI PUSH2 0x12AA PUSH2 0x1A26 JUMP JUMPDEST JUMPDEST SWAP1 PUSH1 0x0 MSTORE PUSH1 0x20 PUSH1 0x0 KECCAK256 ADD PUSH1 0x0 PUSH2 0x100 EXP DUP2 SLOAD DUP2 PUSH20 0xFFFFFFFFFFFFFFFFFFFFFFFFFFFFFFFFFFFFFFFF MUL NOT AND SWAP1 DUP4 PUSH20 0xFFFFFFFFFFFFFFFFFFFFFFFFFFFFFFFFFFFFFFFF AND MUL OR SWAP1 SSTORE POP PUSH1 0x0 DUP1 SLOAD DUP1 PUSH2 0x1305 JUMPI PUSH2 0x1304 PUSH2 0x1FAF JUMP JUMPDEST JUMPDEST PUSH1 0x1 SWAP1 SUB DUP2 DUP2 SWAP1 PUSH1 0x0 MSTORE PUSH1 0x20 PUSH1 0x0 KECCAK256 ADD PUSH1 0x0 PUSH2 0x100 EXP DUP2 SLOAD SWAP1 PUSH20 0xFFFFFFFFFFFFFFFFFFFFFFFFFFFFFFFFFFFFFFFF MUL NOT AND SWAP1 SSTORE SWAP1 SSTORE POP POP JUMP JUMPDEST POP DUP1 SLOAD PUSH1 0x0 DUP3 SSTORE SWAP1 PUSH1 0x0 MSTORE PUSH1 0x20 PUSH1 0x0 KECCAK256 SWAP1 DUP2 ADD SWAP1 PUSH2 0x135C SWAP2 SWAP1 PUSH2 0x135F JUMP JUMPDEST POP JUMP JUMPDEST JUMPDEST DUP1 DUP3 GT ISZERO PUSH2 0x1378 JUMPI PUSH1 0x0 DUP2 PUSH1 0x0 SWAP1 SSTORE POP PUSH1 0x1 ADD PUSH2 0x1360 JUMP JUMPDEST POP SWAP1 JUMP JUMPDEST PUSH1 0x0 DUP1 REVERT JUMPDEST PUSH1 0x0 DUP1 REVERT JUMPDEST PUSH1 0x0 PUSH20 0xFFFFFFFFFFFFFFFFFFFFFFFFFFFFFFFFFFFFFFFF DUP3 AND SWAP1 POP SWAP2 SWAP1 POP JUMP JUMPDEST PUSH1 0x0 PUSH2 0x13B1 DUP3 PUSH2 0x1386 JUMP JUMPDEST SWAP1 POP SWAP2 SWAP1 POP JUMP JUMPDEST PUSH2 0x13C1 DUP2 PUSH2 0x13A6 JUMP JUMPDEST DUP2 EQ PUSH2 0x13CC JUMPI PUSH1 0x0 DUP1 REVERT JUMPDEST POP JUMP JUMPDEST PUSH1 0x0 DUP2 CALLDATALOAD SWAP1 POP PUSH2 0x13DE DUP2 PUSH2 0x13B8 JUMP JUMPDEST SWAP3 SWAP2 POP POP JUMP JUMPDEST PUSH1 0x0 PUSH1 0x20 DUP3 DUP5 SUB SLT ISZERO PUSH2 0x13FA JUMPI PUSH2 0x13F9 PUSH2 0x137C JUMP JUMPDEST JUMPDEST PUSH1 0x0 PUSH2 0x1408 DUP5 DUP3 DUP6 ADD PUSH2 0x13CF JUMP JUMPDEST SWAP2 POP POP SWAP3 SWAP2 POP POP JUMP JUMPDEST PUSH1 0x0 DUP2 MLOAD SWAP1 POP SWAP2 SWAP1 POP JUMP JUMPDEST PUSH1 0x0 DUP3 DUP3 MSTORE PUSH1 0x20 DUP3 ADD SWAP1 POP SWAP3 SWAP2 POP POP JUMP JUMPDEST PUSH1 0x0 JUMPDEST DUP4 DUP2 LT ISZERO PUSH2 0x144B JUMPI DUP1 DUP3 ADD MLOAD DUP2 DUP5 ADD MSTORE PUSH1 0x20 DUP2 ADD SWAP1 POP PUSH2 0x1430 JUMP JUMPDEST PUSH1 0x0 DUP5 DUP5 ADD MSTORE POP POP POP POP JUMP JUMPDEST PUSH1 0x0 PUSH1 0x1F NOT PUSH1 0x1F DUP4 ADD AND SWAP1 POP SWAP2 SWAP1 POP JUMP JUMPDEST PUSH1 0x0 PUSH2 0x1473 DUP3 PUSH2 0x1411 JUMP JUMPDEST PUSH2 0x147D DUP2 DUP6 PUSH2 0x141C JUMP JUMPDEST SWAP4 POP PUSH2 0x148D DUP2 DUP6 PUSH1 0x20 DUP7 ADD PUSH2 0x142D JUMP JUMPDEST PUSH2 0x1496 DUP2 PUSH2 0x1457 JUMP JUMPDEST DUP5 ADD SWAP2 POP POP SWAP3 SWAP2 POP POP JUMP JUMPDEST PUSH1 0x0 PUSH1 0x20 DUP3 ADD SWAP1 POP DUP2 DUP2 SUB PUSH1 0x0 DUP4 ADD MSTORE PUSH2 0x14BB DUP2 DUP5 PUSH2 0x1468 JUMP JUMPDEST SWAP1 POP SWAP3 SWAP2 POP POP JUMP JUMPDEST PUSH1 0x0 DUP2 MLOAD SWAP1 POP SWAP2 SWAP1 POP JUMP JUMPDEST PUSH1 0x0 DUP3 DUP3 MSTORE PUSH1 0x20 DUP3 ADD SWAP1 POP SWAP3 SWAP2 POP POP JUMP JUMPDEST PUSH1 0x0 DUP2 SWAP1 POP PUSH1 0x20 DUP3 ADD SWAP1 POP SWAP2 SWAP1 POP JUMP JUMPDEST PUSH2 0x14F8 DUP2 PUSH2 0x13A6 JUMP JUMPDEST DUP3 MSTORE POP POP JUMP JUMPDEST PUSH1 0x0 PUSH2 0x150A DUP4 DUP4 PUSH2 0x14EF JUMP JUMPDEST PUSH1 0x20 DUP4 ADD SWAP1 POP SWAP3 SWAP2 POP POP JUMP JUMPDEST PUSH1 0x0 PUSH1 0x20 DUP3 ADD SWAP1 POP SWAP2 SWAP1 POP JUMP JUMPDEST PUSH1 0x0 PUSH2 0x152E DUP3 PUSH2 0x14C3 JUMP JUMPDEST PUSH2 0x1538 DUP2 DUP6 PUSH2 0x14CE JUMP JUMPDEST SWAP4 POP PUSH2 0x1543 DUP4 PUSH2 0x14DF JUMP JUMPDEST DUP1 PUSH1 0x0 JUMPDEST DUP4 DUP2 LT ISZERO PUSH2 0x1574 JUMPI DUP2 MLOAD PUSH2 0x155B DUP9 DUP3 PUSH2 0x14FE JUMP JUMPDEST SWAP8 POP PUSH2 0x1566 DUP4 PUSH2 0x1516 JUMP JUMPDEST SWAP3 POP POP PUSH1 0x1 DUP2 ADD SWAP1 POP PUSH2 0x1547 JUMP JUMPDEST POP DUP6 SWAP4 POP POP POP POP SWAP3 SWAP2 POP POP JUMP JUMPDEST PUSH1 0x0 PUSH1 0x20 DUP3 ADD SWAP1 POP DUP2 DUP2 SUB PUSH1 0x0 DUP4 ADD MSTORE PUSH2 0x159B DUP2 DUP5 PUSH2 0x1523 JUMP JUMPDEST SWAP1 POP SWAP3 SWAP2 POP POP JUMP JUMPDEST PUSH1 0x0 DUP2 SWAP1 POP SWAP2 SWAP1 POP JUMP JUMPDEST PUSH2 0x15B6 DUP2 PUSH2 0x15A3 JUMP JUMPDEST DUP2 EQ PUSH2 0x15C1 JUMPI PUSH1 0x0 DUP1 REVERT JUMPDEST POP JUMP JUMPDEST PUSH1 0x0 DUP2 CALLDATALOAD SWAP1 POP PUSH2 0x15D3 DUP2 PUSH2 0x15AD JUMP JUMPDEST SWAP3 SWAP2 POP POP JUMP JUMPDEST PUSH1 0x0 PUSH1 0x20 DUP3 DUP5 SUB SLT ISZERO PUSH2 0x15EF JUMPI PUSH2 0x15EE PUSH2 0x137C JUMP JUMPDEST JUMPDEST PUSH1 0x0 PUSH2 0x15FD DUP5 DUP3 DUP6 ADD PUSH2 0x15C4 JUMP JUMPDEST SWAP2 POP POP SWAP3 SWAP2 POP POP JUMP JUMPDEST PUSH2 0x160F DUP2 PUSH2 0x13A6 JUMP JUMPDEST DUP3 MSTORE POP POP JUMP JUMPDEST PUSH1 0x0 PUSH1 0x20 DUP3 ADD SWAP1 POP PUSH2 0x162A PUSH1 0x0 DUP4 ADD DUP5 PUSH2 0x1606 JUMP JUMPDEST SWAP3 SWAP2 POP POP JUMP JUMPDEST PUSH2 0x1639 DUP2 PUSH2 0x15A3 JUMP JUMPDEST DUP3 MSTORE POP POP JUMP JUMPDEST PUSH1 0x0 PUSH1 0x20 DUP3 ADD SWAP1 POP PUSH2 0x1654 PUSH1 0x0 DUP4 ADD DUP5 PUSH2 0x1630 JUMP JUMPDEST SWAP3 SWAP2 POP POP JUMP JUMPDEST PUSH1 0x0 DUP1 REVERT JUMPDEST PUSH1 0x0 DUP1 REVERT JUMPDEST PUSH1 0x0 DUP1 REVERT JUMPDEST PUSH1 0x0 DUP1 DUP4 PUSH1 0x1F DUP5 ADD SLT PUSH2 0x167F JUMPI PUSH2 0x167E PUSH2 0x165A JUMP JUMPDEST JUMPDEST DUP3 CALLDATALOAD SWAP1 POP PUSH8 0xFFFFFFFFFFFFFFFF DUP2 GT ISZERO PUSH2 0x169C JUMPI PUSH2 0x169B PUSH2 0x165F JUMP JUMPDEST JUMPDEST PUSH1 0x20 DUP4 ADD SWAP2 POP DUP4 PUSH1 0x1 DUP3 MUL DUP4 ADD GT ISZERO PUSH2 0x16B8 JUMPI PUSH2 0x16B7 PUSH2 0x1664 JUMP JUMPDEST JUMPDEST SWAP3 POP SWAP3 SWAP1 POP JUMP JUMPDEST PUSH1 0x0 DUP1 PUSH1 0x20 DUP4 DUP6 SUB SLT ISZERO PUSH2 0x16D6 JUMPI PUSH2 0x16D5 PUSH2 0x137C JUMP JUMPDEST JUMPDEST PUSH1 0x0 DUP4 ADD CALLDATALOAD PUSH8 0xFFFFFFFFFFFFFFFF DUP2 GT ISZERO PUSH2 0x16F4 JUMPI PUSH2 0x16F3 PUSH2 0x1381 JUMP JUMPDEST JUMPDEST PUSH2 0x1700 DUP6 DUP3 DUP7 ADD PUSH2 0x1669 JUMP JUMPDEST SWAP3 POP SWAP3 POP POP SWAP3 POP SWAP3 SWAP1 POP JUMP JUMPDEST PUSH1 0x0 PUSH1 0x40 DUP3 ADD SWAP1 POP PUSH2 0x1721 PUSH1 0x0 DUP4 ADD DUP6 PUSH2 0x1606 JUMP JUMPDEST PUSH2 0x172E PUSH1 0x20 DUP4 ADD DUP5 PUSH2 0x1606 JUMP JUMPDEST SWAP4 SWAP3 POP POP POP JUMP JUMPDEST PUSH1 0x0 DUP2 ISZERO ISZERO SWAP1 POP SWAP2 SWAP1 POP JUMP JUMPDEST PUSH2 0x174A DUP2 PUSH2 0x1735 JUMP JUMPDEST DUP2 EQ PUSH2 0x1755 JUMPI PUSH1 0x0 DUP1 REVERT JUMPDEST POP JUMP JUMPDEST PUSH1 0x0 DUP2 MLOAD SWAP1 POP PUSH2 0x1767 DUP2 PUSH2 0x1741 JUMP JUMPDEST SWAP3 SWAP2 POP POP JUMP JUMPDEST PUSH1 0x0 PUSH1 0x20 DUP3 DUP5 SUB SLT ISZERO PUSH2 0x1783 JUMPI PUSH2 0x1782 PUSH2 0x137C JUMP JUMPDEST JUMPDEST PUSH1 0x0 PUSH2 0x1791 DUP5 DUP3 DUP6 ADD PUSH2 0x1758 JUMP JUMPDEST SWAP2 POP POP SWAP3 SWAP2 POP POP JUMP JUMPDEST PUSH32 0x526571756972656420746F2062652061206D656D656265720000000000000000 PUSH1 0x0 DUP3 ADD MSTORE POP JUMP JUMPDEST PUSH1 0x0 PUSH2 0x17D0 PUSH1 0x18 DUP4 PUSH2 0x141C JUMP JUMPDEST SWAP2 POP PUSH2 0x17DB DUP3 PUSH2 0x179A JUMP JUMPDEST PUSH1 0x20 DUP3 ADD SWAP1 POP SWAP2 SWAP1 POP JUMP JUMPDEST PUSH1 0x0 PUSH1 0x20 DUP3 ADD SWAP1 POP DUP2 DUP2 SUB PUSH1 0x0 DUP4 ADD MSTORE PUSH2 0x17FF DUP2 PUSH2 0x17C3 JUMP JUMPDEST SWAP1 POP SWAP2 SWAP1 POP JUMP JUMPDEST PUSH32 0x4E487B7100000000000000000000000000000000000000000000000000000000 PUSH1 0x0 MSTORE PUSH1 0x22 PUSH1 0x4 MSTORE PUSH1 0x24 PUSH1 0x0 REVERT JUMPDEST PUSH1 0x0 PUSH1 0x2 DUP3 DIV SWAP1 POP PUSH1 0x1 DUP3 AND DUP1 PUSH2 0x184D JUMPI PUSH1 0x7F DUP3 AND SWAP2 POP JUMPDEST PUSH1 0x20 DUP3 LT DUP2 SUB PUSH2 0x1860 JUMPI PUSH2 0x185F PUSH2 0x1806 JUMP JUMPDEST JUMPDEST POP SWAP2 SWAP1 POP JUMP JUMPDEST PUSH32 0x4163636573732044656E69656400000000000000000000000000000000000000 PUSH1 0x0 DUP3 ADD MSTORE POP JUMP JUMPDEST PUSH1 0x0 PUSH2 0x189C PUSH1 0xD DUP4 PUSH2 0x141C JUMP JUMPDEST SWAP2 POP PUSH2 0x18A7 DUP3 PUSH2 0x1866 JUMP JUMPDEST PUSH1 0x20 DUP3 ADD SWAP1 POP SWAP2 SWAP1 POP JUMP JUMPDEST PUSH1 0x0 PUSH1 0x20 DUP3 ADD SWAP1 POP DUP2 DUP2 SUB PUSH1 0x0 DUP4 ADD MSTORE PUSH2 0x18CB DUP2 PUSH2 0x188F JUMP JUMPDEST SWAP1 POP SWAP2 SWAP1 POP JUMP JUMPDEST PUSH32 0x496E76616C6964206170706C6963616E74206164647265737300000000000000 PUSH1 0x0 DUP3 ADD MSTORE POP JUMP JUMPDEST PUSH1 0x0 PUSH2 0x1908 PUSH1 0x19 DUP4 PUSH2 0x141C JUMP JUMPDEST SWAP2 POP PUSH2 0x1913 DUP3 PUSH2 0x18D2 JUMP JUMPDEST PUSH1 0x20 DUP3 ADD SWAP1 POP SWAP2 SWAP1 POP JUMP JUMPDEST PUSH1 0x0 PUSH1 0x20 DUP3 ADD SWAP1 POP DUP2 DUP2 SUB PUSH1 0x0 DUP4 ADD MSTORE PUSH2 0x1937 DUP2 PUSH2 0x18FB JUMP JUMPDEST SWAP1 POP SWAP2 SWAP1 POP JUMP JUMPDEST PUSH1 0x0 DUP2 SWAP1 POP SWAP2 SWAP1 POP JUMP JUMPDEST PUSH32 0x4E487B7100000000000000000000000000000000000000000000000000000000 PUSH1 0x0 MSTORE PUSH1 0x11 PUSH1 0x4 MSTORE PUSH1 0x24 PUSH1 0x0 REVERT JUMPDEST PUSH1 0x0 PUSH2 0x1982 DUP3 PUSH2 0x193E JUMP JUMPDEST SWAP2 POP PUSH2 0x198D DUP4 PUSH2 0x193E JUMP JUMPDEST SWAP3 POP DUP3 DUP3 SUB SWAP1 POP DUP2 DUP2 SLT PUSH1 0x0 DUP5 SLT AND DUP3 DUP3 SGT PUSH1 0x0 DUP6 SLT ISZERO AND OR ISZERO PUSH2 0x19B4 JUMPI PUSH2 0x19B3 PUSH2 0x1948 JUMP JUMPDEST JUMPDEST SWAP3 SWAP2 POP POP JUMP JUMPDEST PUSH32 0x4E6F742061206170706C6963616E740000000000000000000000000000000000 PUSH1 0x0 DUP3 ADD MSTORE POP JUMP JUMPDEST PUSH1 0x0 PUSH2 0x19F0 PUSH1 0xF DUP4 PUSH2 0x141C JUMP JUMPDEST SWAP2 POP PUSH2 0x19FB DUP3 PUSH2 0x19BA JUMP JUMPDEST PUSH1 0x20 DUP3 ADD SWAP1 POP SWAP2 SWAP1 POP JUMP JUMPDEST PUSH1 0x0 PUSH1 0x20 DUP3 ADD SWAP1 POP DUP2 DUP2 SUB PUSH1 0x0 DUP4 ADD MSTORE PUSH2 0x1A1F DUP2 PUSH2 0x19E3 JUMP JUMPDEST SWAP1 POP SWAP2 SWAP1 POP JUMP JUMPDEST PUSH32 0x4E487B7100000000000000000000000000000000000000000000000000000000 PUSH1 0x0 MSTORE PUSH1 0x32 PUSH1 0x4 MSTORE PUSH1 0x24 PUSH1 0x0 REVERT JUMPDEST PUSH1 0x0 PUSH2 0x1A60 DUP3 PUSH2 0x15A3 JUMP JUMPDEST SWAP2 POP PUSH32 0xFFFFFFFFFFFFFFFFFFFFFFFFFFFFFFFFFFFFFFFFFFFFFFFFFFFFFFFFFFFFFFFF DUP3 SUB PUSH2 0x1A92 JUMPI PUSH2 0x1A91 PUSH2 0x1948 JUMP JUMPDEST JUMPDEST PUSH1 0x1 DUP3 ADD SWAP1 POP SWAP2 SWAP1 POP JUMP JUMPDEST PUSH32 0x53656E64657220616C726561647920766F746564000000000000000000000000 PUSH1 0x0 DUP3 ADD MSTORE POP JUMP JUMPDEST PUSH1 0x0 PUSH2 0x1AD3 PUSH1 0x14 DUP4 PUSH2 0x141C JUMP JUMPDEST SWAP2 POP PUSH2 0x1ADE DUP3 PUSH2 0x1A9D JUMP JUMPDEST PUSH1 0x20 DUP3 ADD SWAP1 POP SWAP2 SWAP1 POP JUMP JUMPDEST PUSH1 0x0 PUSH1 0x20 DUP3 ADD SWAP1 POP DUP2 DUP2 SUB PUSH1 0x0 DUP4 ADD MSTORE PUSH2 0x1B02 DUP2 PUSH2 0x1AC6 JUMP JUMPDEST SWAP1 POP SWAP2 SWAP1 POP JUMP JUMPDEST PUSH1 0x0 PUSH2 0x1B14 DUP3 PUSH2 0x193E JUMP JUMPDEST SWAP2 POP PUSH2 0x1B1F DUP4 PUSH2 0x193E JUMP JUMPDEST SWAP3 POP DUP3 DUP3 ADD SWAP1 POP DUP3 DUP2 SLT ISZERO PUSH1 0x0 DUP4 SLT AND DUP4 DUP3 SLT PUSH1 0x0 DUP5 SLT ISZERO AND OR ISZERO PUSH2 0x1B47 JUMPI PUSH2 0x1B46 PUSH2 0x1948 JUMP JUMPDEST JUMPDEST SWAP3 SWAP2 POP POP JUMP JUMPDEST PUSH32 0x416C726561647920616374697665206D656D6265720000000000000000000000 PUSH1 0x0 DUP3 ADD MSTORE POP JUMP JUMPDEST PUSH1 0x0 PUSH2 0x1B83 PUSH1 0x15 DUP4 PUSH2 0x141C JUMP JUMPDEST SWAP2 POP PUSH2 0x1B8E DUP3 PUSH2 0x1B4D JUMP JUMPDEST PUSH1 0x20 DUP3 ADD SWAP1 POP SWAP2 SWAP1 POP JUMP JUMPDEST PUSH1 0x0 PUSH1 0x20 DUP3 ADD SWAP1 POP DUP2 DUP2 SUB PUSH1 0x0 DUP4 ADD MSTORE PUSH2 0x1BB2 DUP2 PUSH2 0x1B76 JUMP JUMPDEST SWAP1 POP SWAP2 SWAP1 POP JUMP JUMPDEST PUSH32 0x416C726561647920616374697665206170706C6963616E740000000000000000 PUSH1 0x0 DUP3 ADD MSTORE POP JUMP JUMPDEST PUSH1 0x0 PUSH2 0x1BEF PUSH1 0x18 DUP4 PUSH2 0x141C JUMP JUMPDEST SWAP2 POP PUSH2 0x1BFA DUP3 PUSH2 0x1BB9 JUMP JUMPDEST PUSH1 0x20 DUP3 ADD SWAP1 POP SWAP2 SWAP1 POP JUMP JUMPDEST PUSH1 0x0 PUSH1 0x20 DUP3 ADD SWAP1 POP DUP2 DUP2 SUB PUSH1 0x0 DUP4 ADD MSTORE PUSH2 0x1C1E DUP2 PUSH2 0x1BE2 JUMP JUMPDEST SWAP1 POP SWAP2 SWAP1 POP JUMP JUMPDEST PUSH32 0x6163636F756E742072656A656374656400000000000000000000000000000000 PUSH1 0x0 DUP3 ADD MSTORE POP JUMP JUMPDEST PUSH1 0x0 PUSH2 0x1C5B PUSH1 0x10 DUP4 PUSH2 0x141C JUMP JUMPDEST SWAP2 POP PUSH2 0x1C66 DUP3 PUSH2 0x1C25 JUMP JUMPDEST PUSH1 0x20 DUP3 ADD SWAP1 POP SWAP2 SWAP1 POP JUMP JUMPDEST PUSH1 0x0 PUSH1 0x20 DUP3 ADD SWAP1 POP DUP2 DUP2 SUB PUSH1 0x0 DUP4 ADD MSTORE PUSH2 0x1C8A DUP2 PUSH2 0x1C4E JUMP JUMPDEST SWAP1 POP SWAP2 SWAP1 POP JUMP JUMPDEST PUSH1 0x0 DUP3 SWAP1 POP SWAP3 SWAP2 POP POP JUMP JUMPDEST PUSH32 0x4E487B7100000000000000000000000000000000000000000000000000000000 PUSH1 0x0 MSTORE PUSH1 0x41 PUSH1 0x4 MSTORE PUSH1 0x24 PUSH1 0x0 REVERT JUMPDEST PUSH1 0x0 DUP2 SWAP1 POP DUP2 PUSH1 0x0 MSTORE PUSH1 0x20 PUSH1 0x0 KECCAK256 SWAP1 POP SWAP2 SWAP1 POP JUMP JUMPDEST PUSH1 0x0 PUSH1 0x20 PUSH1 0x1F DUP4 ADD DIV SWAP1 POP SWAP2 SWAP1 POP JUMP JUMPDEST PUSH1 0x0 DUP3 DUP3 SHL SWAP1 POP SWAP3 SWAP2 POP POP JUMP JUMPDEST PUSH1 0x0 PUSH1 0x8 DUP4 MUL PUSH2 0x1D2D PUSH32 0xFFFFFFFFFFFFFFFFFFFFFFFFFFFFFFFFFFFFFFFFFFFFFFFFFFFFFFFFFFFFFFFF DUP3 PUSH2 0x1CF0 JUMP JUMPDEST PUSH2 0x1D37 DUP7 DUP4 PUSH2 0x1CF0 JUMP JUMPDEST SWAP6 POP DUP1 NOT DUP5 AND SWAP4 POP DUP1 DUP7 AND DUP5 OR SWAP3 POP POP POP SWAP4 SWAP3 POP POP POP JUMP JUMPDEST PUSH1 0x0 DUP2 SWAP1 POP SWAP2 SWAP1 POP JUMP JUMPDEST PUSH1 0x0 PUSH2 0x1D74 PUSH2 0x1D6F PUSH2 0x1D6A DUP5 PUSH2 0x15A3 JUMP JUMPDEST PUSH2 0x1D4F JUMP JUMPDEST PUSH2 0x15A3 JUMP JUMPDEST SWAP1 POP SWAP2 SWAP1 POP JUMP JUMPDEST PUSH1 0x0 DUP2 SWAP1 POP SWAP2 SWAP1 POP JUMP JUMPDEST PUSH2 0x1D8E DUP4 PUSH2 0x1D59 JUMP JUMPDEST PUSH2 0x1DA2 PUSH2 0x1D9A DUP3 PUSH2 0x1D7B JUMP JUMPDEST DUP5 DUP5 SLOAD PUSH2 0x1CFD JUMP JUMPDEST DUP3 SSTORE POP POP POP POP JUMP JUMPDEST PUSH1 0x0 SWAP1 JUMP JUMPDEST PUSH2 0x1DB7 PUSH2 0x1DAA JUMP JUMPDEST PUSH2 0x1DC2 DUP2 DUP5 DUP5 PUSH2 0x1D85 JUMP JUMPDEST POP POP POP JUMP JUMPDEST JUMPDEST DUP2 DUP2 LT ISZERO PUSH2 0x1DE6 JUMPI PUSH2 0x1DDB PUSH1 0x0 DUP3 PUSH2 0x1DAF JUMP JUMPDEST PUSH1 0x1 DUP2 ADD SWAP1 POP PUSH2 0x1DC8 JUMP JUMPDEST POP POP JUMP JUMPDEST PUSH1 0x1F DUP3 GT ISZERO PUSH2 0x1E2B JUMPI PUSH2 0x1DFC DUP2 PUSH2 0x1CCB JUMP JUMPDEST PUSH2 0x1E05 DUP5 PUSH2 0x1CE0 JUMP JUMPDEST DUP2 ADD PUSH1 0x20 DUP6 LT ISZERO PUSH2 0x1E14 JUMPI DUP2 SWAP1 POP JUMPDEST PUSH2 0x1E28 PUSH2 0x1E20 DUP6 PUSH2 0x1CE0 JUMP JUMPDEST DUP4 ADD DUP3 PUSH2 0x1DC7 JUMP JUMPDEST POP POP JUMPDEST POP POP POP JUMP JUMPDEST PUSH1 0x0 DUP3 DUP3 SHR SWAP1 POP SWAP3 SWAP2 POP POP JUMP JUMPDEST PUSH1 0x0 PUSH2 0x1E4E PUSH1 0x0 NOT DUP5 PUSH1 0x8 MUL PUSH2 0x1E30 JUMP JUMPDEST NOT DUP1 DUP4 AND SWAP2 POP POP SWAP3 SWAP2 POP POP JUMP JUMPDEST PUSH1 0x0 PUSH2 0x1E67 DUP4 DUP4 PUSH2 0x1E3D JUMP JUMPDEST SWAP2 POP DUP3 PUSH1 0x2 MUL DUP3 OR SWAP1 POP SWAP3 SWAP2 POP POP JUMP JUMPDEST PUSH2 0x1E81 DUP4 DUP4 PUSH2 0x1C91 JUMP JUMPDEST PUSH8 0xFFFFFFFFFFFFFFFF DUP2 GT ISZERO PUSH2 0x1E9A JUMPI PUSH2 0x1E99 PUSH2 0x1C9C JUMP JUMPDEST JUMPDEST PUSH2 0x1EA4 DUP3 SLOAD PUSH2 0x1835 JUMP JUMPDEST PUSH2 0x1EAF DUP3 DUP3 DUP6 PUSH2 0x1DEA JUMP JUMPDEST PUSH1 0x0 PUSH1 0x1F DUP4 GT PUSH1 0x1 DUP2 EQ PUSH2 0x1EDE JUMPI PUSH1 0x0 DUP5 ISZERO PUSH2 0x1ECC JUMPI DUP3 DUP8 ADD CALLDATALOAD SWAP1 POP JUMPDEST PUSH2 0x1ED6 DUP6 DUP3 PUSH2 0x1E5B JUMP JUMPDEST DUP7 SSTORE POP PUSH2 0x1F3E JUMP JUMPDEST PUSH1 0x1F NOT DUP5 AND PUSH2 0x1EEC DUP7 PUSH2 0x1CCB JUMP JUMPDEST PUSH1 0x0 JUMPDEST DUP3 DUP2 LT ISZERO PUSH2 0x1F14 JUMPI DUP5 DUP10 ADD CALLDATALOAD DUP3 SSTORE PUSH1 0x1 DUP3 ADD SWAP2 POP PUSH1 0x20 DUP6 ADD SWAP5 POP PUSH1 0x20 DUP2 ADD SWAP1 POP PUSH2 0x1EEF JUMP JUMPDEST DUP7 DUP4 LT ISZERO PUSH2 0x1F31 JUMPI DUP5 DUP10 ADD CALLDATALOAD PUSH2 0x1F2D PUSH1 0x1F DUP10 AND DUP3 PUSH2 0x1E3D JUMP JUMPDEST DUP4 SSTORE POP JUMPDEST PUSH1 0x1 PUSH1 0x2 DUP9 MUL ADD DUP9 SSTORE POP POP POP JUMPDEST POP POP POP POP POP POP POP JUMP JUMPDEST PUSH1 0x0 PUSH2 0x1F52 DUP3 PUSH2 0x15A3 JUMP JUMPDEST SWAP2 POP PUSH2 0x1F5D DUP4 PUSH2 0x15A3 JUMP JUMPDEST SWAP3 POP DUP3 DUP3 ADD SWAP1 POP DUP1 DUP3 GT ISZERO PUSH2 0x1F75 JUMPI PUSH2 0x1F74 PUSH2 0x1948 JUMP JUMPDEST JUMPDEST SWAP3 SWAP2 POP POP JUMP JUMPDEST PUSH1 0x0 PUSH2 0x1F86 DUP3 PUSH2 0x15A3 JUMP JUMPDEST SWAP2 POP PUSH2 0x1F91 DUP4 PUSH2 0x15A3 JUMP JUMPDEST SWAP3 POP DUP3 DUP3 SUB SWAP1 POP DUP2 DUP2 GT ISZERO PUSH2 0x1FA9 JUMPI PUSH2 0x1FA8 PUSH2 0x1948 JUMP JUMPDEST JUMPDEST SWAP3 SWAP2 POP POP JUMP JUMPDEST PUSH32 0x4E487B7100000000000000000000000000000000000000000000000000000000 PUSH1 0x0 MSTORE PUSH1 0x31 PUSH1 0x4 MSTORE PUSH1 0x24 PUSH1 0x0 REVERT INVALID LOG2 PUSH5 0x6970667358 0x22 SLT KECCAK256 GASPRICE RETURN 0xD 0xB9 DUP6 SWAP13 0xA7 0xEC BALANCE SWAP13 0x1F CHAINID JUMPDEST POP 0x2A GASLIMIT PC PUSH30 0xD57E6B703F7E4B552D5A9F25FF6164736F6C6343000811003360A0604052 CALLVALUE DUP1 ISZERO PUSH3 0x11 JUMPI PUSH1 0x0 DUP1 REVERT JUMPDEST POP PUSH1 0x40 MLOAD PUSH3 0x1FB9 CODESIZE SUB DUP1 PUSH3 0x1FB9 DUP4 CODECOPY DUP2 DUP2 ADD PUSH1 0x40 MSTORE DUP2 ADD SWAP1 PUSH3 0x37 SWAP2 SWAP1 PUSH3 0x2BF JUMP JUMPDEST DUP3 PUSH1 0x8 PUSH1 0x0 PUSH2 0x100 EXP DUP2 SLOAD DUP2 PUSH20 0xFFFFFFFFFFFFFFFFFFFFFFFFFFFFFFFFFFFFFFFF MUL NOT AND SWAP1 DUP4 PUSH20 0xFFFFFFFFFFFFFFFFFFFFFFFFFFFFFFFFFFFFFFFF AND MUL OR SWAP1 SSTORE POP DUP2 PUSH20 0xFFFFFFFFFFFFFFFFFFFFFFFFFFFFFFFFFFFFFFFF AND PUSH1 0x80 DUP2 PUSH20 0xFFFFFFFFFFFFFFFFFFFFFFFFFFFFFFFFFFFFFFFF AND DUP2 MSTORE POP POP DUP1 PUSH1 0x0 SWAP1 DUP2 PUSH3 0xBD SWAP2 SWAP1 PUSH3 0x585 JUMP JUMPDEST POP POP POP POP PUSH3 0x66C JUMP JUMPDEST PUSH1 0x0 PUSH1 0x40 MLOAD SWAP1 POP SWAP1 JUMP JUMPDEST PUSH1 0x0 DUP1 REVERT JUMPDEST PUSH1 0x0 DUP1 REVERT JUMPDEST PUSH1 0x0 PUSH20 0xFFFFFFFFFFFFFFFFFFFFFFFFFFFFFFFFFFFFFFFF DUP3 AND SWAP1 POP SWAP2 SWAP1 POP JUMP JUMPDEST PUSH1 0x0 PUSH3 0x108 DUP3 PUSH3 0xDB JUMP JUMPDEST SWAP1 POP SWAP2 SWAP1 POP JUMP JUMPDEST PUSH3 0x11A DUP2 PUSH3 0xFB JUMP JUMPDEST DUP2 EQ PUSH3 0x126 JUMPI PUSH1 0x0 DUP1 REVERT JUMPDEST POP JUMP JUMPDEST PUSH1 0x0 DUP2 MLOAD SWAP1 POP PUSH3 0x13A DUP2 PUSH3 0x10F JUMP JUMPDEST SWAP3 SWAP2 POP POP JUMP JUMPDEST PUSH1 0x0 DUP1 REVERT JUMPDEST PUSH1 0x0 DUP1 REVERT JUMPDEST PUSH1 0x0 PUSH1 0x1F NOT PUSH1 0x1F DUP4 ADD AND SWAP1 POP SWAP2 SWAP1 POP JUMP JUMPDEST PUSH32 0x4E487B7100000000000000000000000000000000000000000000000000000000 PUSH1 0x0 MSTORE PUSH1 0x41 PUSH1 0x4 MSTORE PUSH1 0x24 PUSH1 0x0 REVERT JUMPDEST PUSH3 0x195 DUP3 PUSH3 0x14A JUMP JUMPDEST DUP2 ADD DUP2 DUP2 LT PUSH8 0xFFFFFFFFFFFFFFFF DUP3 GT OR ISZERO PUSH3 0x1B7 JUMPI PUSH3 0x1B6 PUSH3 0x15B JUMP JUMPDEST JUMPDEST DUP1 PUSH1 0x40 MSTORE POP POP POP JUMP JUMPDEST PUSH1 0x0 PUSH3 0x1CC PUSH3 0xC7 JUMP JUMPDEST SWAP1 POP PUSH3 0x1DA DUP3 DUP3 PUSH3 0x18A JUMP JUMPDEST SWAP2 SWAP1 POP JUMP JUMPDEST PUSH1 0x0 PUSH8 0xFFFFFFFFFFFFFFFF DUP3 GT ISZERO PUSH3 0x1FD JUMPI PUSH3 0x1FC PUSH3 0x15B JUMP JUMPDEST JUMPDEST PUSH3 0x208 DUP3 PUSH3 0x14A JUMP JUMPDEST SWAP1 POP PUSH1 0x20 DUP2 ADD SWAP1 POP SWAP2 SWAP1 POP JUMP JUMPDEST PUSH1 0x0 JUMPDEST DUP4 DUP2 LT ISZERO PUSH3 0x235 JUMPI DUP1 DUP3 ADD MLOAD DUP2 DUP5 ADD MSTORE PUSH1 0x20 DUP2 ADD SWAP1 POP PUSH3 0x218 JUMP JUMPDEST PUSH1 0x0 DUP5 DUP5 ADD MSTORE POP POP POP POP JUMP JUMPDEST PUSH1 0x0 PUSH3 0x258 PUSH3 0x252 DUP5 PUSH3 0x1DF JUMP JUMPDEST PUSH3 0x1C0 JUMP JUMPDEST SWAP1 POP DUP3 DUP2 MSTORE PUSH1 0x20 DUP2 ADD DUP5 DUP5 DUP5 ADD GT ISZERO PUSH3 0x277 JUMPI PUSH3 0x276 PUSH3 0x145 JUMP JUMPDEST JUMPDEST PUSH3 0x284 DUP5 DUP3 DUP6 PUSH3 0x215 JUMP JUMPDEST POP SWAP4 SWAP3 POP POP POP JUMP JUMPDEST PUSH1 0x0 DUP3 PUSH1 0x1F DUP4 ADD SLT PUSH3 0x2A4 JUMPI PUSH3 0x2A3 PUSH3 0x140 JUMP JUMPDEST JUMPDEST DUP2 MLOAD PUSH3 0x2B6 DUP5 DUP3 PUSH1 0x20 DUP7 ADD PUSH3 0x241 JUMP JUMPDEST SWAP2 POP POP SWAP3 SWAP2 POP POP JUMP JUMPDEST PUSH1 0x0 DUP1 PUSH1 0x0 PUSH1 0x60 DUP5 DUP7 SUB SLT ISZERO PUSH3 0x2DB JUMPI PUSH3 0x2DA PUSH3 0xD1 JUMP JUMPDEST JUMPDEST PUSH1 0x0 PUSH3 0x2EB DUP7 DUP3 DUP8 ADD PUSH3 0x129 JUMP JUMPDEST SWAP4 POP POP PUSH1 0x20 PUSH3 0x2FE DUP7 DUP3 DUP8 ADD PUSH3 0x129 JUMP JUMPDEST SWAP3 POP POP PUSH1 0x40 DUP5 ADD MLOAD PUSH8 0xFFFFFFFFFFFFFFFF DUP2 GT ISZERO PUSH3 0x322 JUMPI PUSH3 0x321 PUSH3 0xD6 JUMP JUMPDEST JUMPDEST PUSH3 0x330 DUP7 DUP3 DUP8 ADD PUSH3 0x28C JUMP JUMPDEST SWAP2 POP POP SWAP3 POP SWAP3 POP SWAP3 JUMP JUMPDEST PUSH1 0x0 DUP2 MLOAD SWAP1 POP SWAP2 SWAP1 POP JUMP JUMPDEST PUSH32 0x4E487B7100000000000000000000000000000000000000000000000000000000 PUSH1 0x0 MSTORE PUSH1 0x22 PUSH1 0x4 MSTORE PUSH1 0x24 PUSH1 0x0 REVERT JUMPDEST PUSH1 0x0 PUSH1 0x2 DUP3 DIV SWAP1 POP PUSH1 0x1 DUP3 AND DUP1 PUSH3 0x38D JUMPI PUSH1 0x7F DUP3 AND SWAP2 POP JUMPDEST PUSH1 0x20 DUP3 LT DUP2 SUB PUSH3 0x3A3 JUMPI PUSH3 0x3A2 PUSH3 0x345 JUMP JUMPDEST JUMPDEST POP SWAP2 SWAP1 POP JUMP JUMPDEST PUSH1 0x0 DUP2 SWAP1 POP DUP2 PUSH1 0x0 MSTORE PUSH1 0x20 PUSH1 0x0 KECCAK256 SWAP1 POP SWAP2 SWAP1 POP JUMP JUMPDEST PUSH1 0x0 PUSH1 0x20 PUSH1 0x1F DUP4 ADD DIV SWAP1 POP SWAP2 SWAP1 POP JUMP JUMPDEST PUSH1 0x0 DUP3 DUP3 SHL SWAP1 POP SWAP3 SWAP2 POP POP JUMP JUMPDEST PUSH1 0x0 PUSH1 0x8 DUP4 MUL PUSH3 0x40D PUSH32 0xFFFFFFFFFFFFFFFFFFFFFFFFFFFFFFFFFFFFFFFFFFFFFFFFFFFFFFFFFFFFFFFF DUP3 PUSH3 0x3CE JUMP JUMPDEST PUSH3 0x419 DUP7 DUP4 PUSH3 0x3CE JUMP JUMPDEST SWAP6 POP DUP1 NOT DUP5 AND SWAP4 POP DUP1 DUP7 AND DUP5 OR SWAP3 POP POP POP SWAP4 SWAP3 POP POP POP JUMP JUMPDEST PUSH1 0x0 DUP2 SWAP1 POP SWAP2 SWAP1 POP JUMP JUMPDEST PUSH1 0x0 DUP2 SWAP1 POP SWAP2 SWAP1 POP JUMP JUMPDEST PUSH1 0x0 PUSH3 0x466 PUSH3 0x460 PUSH3 0x45A DUP5 PUSH3 0x431 JUMP JUMPDEST PUSH3 0x43B JUMP JUMPDEST PUSH3 0x431 JUMP JUMPDEST SWAP1 POP SWAP2 SWAP1 POP JUMP JUMPDEST PUSH1 0x0 DUP2 SWAP1 POP SWAP2 SWAP1 POP JUMP JUMPDEST PUSH3 0x482 DUP4 PUSH3 0x445 JUMP JUMPDEST PUSH3 0x49A PUSH3 0x491 DUP3 PUSH3 0x46D JUMP JUMPDEST DUP5 DUP5 SLOAD PUSH3 0x3DB JUMP JUMPDEST DUP3 SSTORE POP POP POP POP JUMP JUMPDEST PUSH1 0x0 SWAP1 JUMP JUMPDEST PUSH3 0x4B1 PUSH3 0x4A2 JUMP JUMPDEST PUSH3 0x4BE DUP2 DUP5 DUP5 PUSH3 0x477 JUMP JUMPDEST POP POP POP JUMP JUMPDEST JUMPDEST DUP2 DUP2 LT ISZERO PUSH3 0x4E6 JUMPI PUSH3 0x4DA PUSH1 0x0 DUP3 PUSH3 0x4A7 JUMP JUMPDEST PUSH1 0x1 DUP2 ADD SWAP1 POP PUSH3 0x4C4 JUMP JUMPDEST POP POP JUMP JUMPDEST PUSH1 0x1F DUP3 GT ISZERO PUSH3 0x535 JUMPI PUSH3 0x4FF DUP2 PUSH3 0x3A9 JUMP JUMPDEST PUSH3 0x50A DUP5 PUSH3 0x3BE JUMP JUMPDEST DUP2 ADD PUSH1 0x20 DUP6 LT ISZERO PUSH3 0x51A JUMPI DUP2 SWAP1 POP JUMPDEST PUSH3 0x532 PUSH3 0x529 DUP6 PUSH3 0x3BE JUMP JUMPDEST DUP4 ADD DUP3 PUSH3 0x4C3 JUMP JUMPDEST POP POP JUMPDEST POP POP POP JUMP JUMPDEST PUSH1 0x0 DUP3 DUP3 SHR SWAP1 POP SWAP3 SWAP2 POP POP JUMP JUMPDEST PUSH1 0x0 PUSH3 0x55A PUSH1 0x0 NOT DUP5 PUSH1 0x8 MUL PUSH3 0x53A JUMP JUMPDEST NOT DUP1 DUP4 AND SWAP2 POP POP SWAP3 SWAP2 POP POP JUMP JUMPDEST PUSH1 0x0 PUSH3 0x575 DUP4 DUP4 PUSH3 0x547 JUMP JUMPDEST SWAP2 POP DUP3 PUSH1 0x2 MUL DUP3 OR SWAP1 POP SWAP3 SWAP2 POP POP JUMP JUMPDEST PUSH3 0x590 DUP3 PUSH3 0x33A JUMP JUMPDEST PUSH8 0xFFFFFFFFFFFFFFFF DUP2 GT ISZERO PUSH3 0x5AC JUMPI PUSH3 0x5AB PUSH3 0x15B JUMP JUMPDEST JUMPDEST PUSH3 0x5B8 DUP3 SLOAD PUSH3 0x374 JUMP JUMPDEST PUSH3 0x5C5 DUP3 DUP3 DUP6 PUSH3 0x4EA JUMP JUMPDEST PUSH1 0x0 PUSH1 0x20 SWAP1 POP PUSH1 0x1F DUP4 GT PUSH1 0x1 DUP2 EQ PUSH3 0x5FD JUMPI PUSH1 0x0 DUP5 ISZERO PUSH3 0x5E8 JUMPI DUP3 DUP8 ADD MLOAD SWAP1 POP JUMPDEST PUSH3 0x5F4 DUP6 DUP3 PUSH3 0x567 JUMP JUMPDEST DUP7 SSTORE POP PUSH3 0x664 JUMP JUMPDEST PUSH1 0x1F NOT DUP5 AND PUSH3 0x60D DUP7 PUSH3 0x3A9 JUMP JUMPDEST PUSH1 0x0 JUMPDEST DUP3 DUP2 LT ISZERO PUSH3 0x637 JUMPI DUP5 DUP10 ADD MLOAD DUP3 SSTORE PUSH1 0x1 DUP3 ADD SWAP2 POP PUSH1 0x20 DUP6 ADD SWAP5 POP PUSH1 0x20 DUP2 ADD SWAP1 POP PUSH3 0x610 JUMP JUMPDEST DUP7 DUP4 LT ISZERO PUSH3 0x657 JUMPI DUP5 DUP10 ADD MLOAD PUSH3 0x653 PUSH1 0x1F DUP10 AND DUP3 PUSH3 0x547 JUMP JUMPDEST DUP4 SSTORE POP JUMPDEST PUSH1 0x1 PUSH1 0x2 DUP9 MUL ADD DUP9 SSTORE POP POP POP JUMPDEST POP POP POP POP POP POP JUMP JUMPDEST PUSH1 0x80 MLOAD PUSH2 0x1934 PUSH3 0x685 PUSH1 0x0 CODECOPY PUSH1 0x0 POP POP PUSH2 0x1934 PUSH1 0x0 RETURN INVALID PUSH1 0x80 PUSH1 0x40 MSTORE CALLVALUE DUP1 ISZERO PUSH2 0x10 JUMPI PUSH1 0x0 DUP1 REVERT JUMPDEST POP PUSH1 0x4 CALLDATASIZE LT PUSH2 0x100 JUMPI PUSH1 0x0 CALLDATALOAD PUSH1 0xE0 SHR DUP1 PUSH4 0x9A4D383E GT PUSH2 0x97 JUMPI DUP1 PUSH4 0xA230C524 GT PUSH2 0x66 JUMPI DUP1 PUSH4 0xA230C524 EQ PUSH2 0x2AF JUMPI DUP1 PUSH4 0xAF1FCA09 EQ PUSH2 0x2DF JUMPI DUP1 PUSH4 0xCA505A5B EQ PUSH2 0x2FD JUMPI DUP1 PUSH4 0xCEF025AC EQ PUSH2 0x31B JUMPI PUSH2 0x100 JUMP JUMPDEST DUP1 PUSH4 0x9A4D383E EQ PUSH2 0x227 JUMPI DUP1 PUSH4 0x9C0AB105 EQ PUSH2 0x243 JUMPI DUP1 PUSH4 0x9E5F59F9 EQ PUSH2 0x261 JUMPI DUP1 PUSH4 0x9EAB5253 EQ PUSH2 0x291 JUMPI PUSH2 0x100 JUMP JUMPDEST DUP1 PUSH4 0x455772D2 GT PUSH2 0xD3 JUMPI DUP1 PUSH4 0x455772D2 EQ PUSH2 0x18B JUMPI DUP1 PUSH4 0x5DAF08CA EQ PUSH2 0x1A9 JUMPI DUP1 PUSH4 0x70586013 EQ PUSH2 0x1D9 JUMPI DUP1 PUSH4 0x997072F7 EQ PUSH2 0x209 JUMPI PUSH2 0x100 JUMP JUMPDEST DUP1 PUSH4 0x6FDDE03 EQ PUSH2 0x105 JUMPI DUP1 PUSH4 0x146B551D EQ PUSH2 0x123 JUMPI DUP1 PUSH4 0x15866836 EQ PUSH2 0x153 JUMPI DUP1 PUSH4 0x1EE503FD EQ PUSH2 0x16F JUMPI JUMPDEST PUSH1 0x0 DUP1 REVERT JUMPDEST PUSH2 0x10D PUSH2 0x337 JUMP JUMPDEST PUSH1 0x40 MLOAD PUSH2 0x11A SWAP2 SWAP1 PUSH2 0xED9 JUMP JUMPDEST PUSH1 0x40 MLOAD DUP1 SWAP2 SUB SWAP1 RETURN JUMPDEST PUSH2 0x13D PUSH1 0x4 DUP1 CALLDATASIZE SUB DUP2 ADD SWAP1 PUSH2 0x138 SWAP2 SWAP1 PUSH2 0xF6D JUMP JUMPDEST PUSH2 0x3C5 JUMP JUMPDEST PUSH1 0x40 MLOAD PUSH2 0x14A SWAP2 SWAP1 PUSH2 0xFB6 JUMP JUMPDEST PUSH1 0x40 MLOAD DUP1 SWAP2 SUB SWAP1 RETURN JUMPDEST PUSH2 0x16D PUSH1 0x4 DUP1 CALLDATASIZE SUB DUP2 ADD SWAP1 PUSH2 0x168 SWAP2 SWAP1 PUSH2 0x1036 JUMP JUMPDEST PUSH2 0x3CC JUMP JUMPDEST STOP JUMPDEST PUSH2 0x189 PUSH1 0x4 DUP1 CALLDATASIZE SUB DUP2 ADD SWAP1 PUSH2 0x184 SWAP2 SWAP1 PUSH2 0xF6D JUMP JUMPDEST PUSH2 0x45F JUMP JUMPDEST STOP JUMPDEST PUSH2 0x193 PUSH2 0x81E JUMP JUMPDEST PUSH1 0x40 MLOAD PUSH2 0x1A0 SWAP2 SWAP1 PUSH2 0x1154 JUMP JUMPDEST PUSH1 0x40 MLOAD DUP1 SWAP2 SUB SWAP1 RETURN JUMPDEST PUSH2 0x1C3 PUSH1 0x4 DUP1 CALLDATASIZE SUB DUP2 ADD SWAP1 PUSH2 0x1BE SWAP2 SWAP1 PUSH2 0x11AC JUMP JUMPDEST PUSH2 0x94F JUMP JUMPDEST PUSH1 0x40 MLOAD PUSH2 0x1D0 SWAP2 SWAP1 PUSH2 0x11E8 JUMP JUMPDEST PUSH1 0x40 MLOAD DUP1 SWAP2 SUB SWAP1 RETURN JUMPDEST PUSH2 0x1F3 PUSH1 0x4 DUP1 CALLDATASIZE SUB DUP2 ADD SWAP1 PUSH2 0x1EE SWAP2 SWAP1 PUSH2 0x1036 JUMP JUMPDEST PUSH2 0x98E JUMP JUMPDEST PUSH1 0x40 MLOAD PUSH2 0x200 SWAP2 SWAP1 PUSH2 0x1222 JUMP JUMPDEST PUSH1 0x40 MLOAD DUP1 SWAP2 SUB SWAP1 RETURN JUMPDEST PUSH2 0x211 PUSH2 0x997 JUMP JUMPDEST PUSH1 0x40 MLOAD PUSH2 0x21E SWAP2 SWAP1 PUSH2 0x124C JUMP JUMPDEST PUSH1 0x40 MLOAD DUP1 SWAP2 SUB SWAP1 RETURN JUMPDEST PUSH2 0x241 PUSH1 0x4 DUP1 CALLDATASIZE SUB DUP2 ADD SWAP1 PUSH2 0x23C SWAP2 SWAP1 PUSH2 0xF6D JUMP JUMPDEST PUSH2 0x9A4 JUMP JUMPDEST STOP JUMPDEST PUSH2 0x24B PUSH2 0xB86 JUMP JUMPDEST PUSH1 0x40 MLOAD PUSH2 0x258 SWAP2 SWAP1 PUSH2 0xED9 JUMP JUMPDEST PUSH1 0x40 MLOAD DUP1 SWAP2 SUB SWAP1 RETURN JUMPDEST PUSH2 0x27B PUSH1 0x4 DUP1 CALLDATASIZE SUB DUP2 ADD SWAP1 PUSH2 0x276 SWAP2 SWAP1 PUSH2 0xF6D JUMP JUMPDEST PUSH2 0xC14 JUMP JUMPDEST PUSH1 0x40 MLOAD PUSH2 0x288 SWAP2 SWAP1 PUSH2 0x1373 JUMP JUMPDEST PUSH1 0x40 MLOAD DUP1 SWAP2 SUB SWAP1 RETURN JUMPDEST PUSH2 0x299 PUSH2 0xC1B JUMP JUMPDEST PUSH1 0x40 MLOAD PUSH2 0x2A6 SWAP2 SWAP1 PUSH2 0x1154 JUMP JUMPDEST PUSH1 0x40 MLOAD DUP1 SWAP2 SUB SWAP1 RETURN JUMPDEST PUSH2 0x2C9 PUSH1 0x4 DUP1 CALLDATASIZE SUB DUP2 ADD SWAP1 PUSH2 0x2C4 SWAP2 SWAP1 PUSH2 0xF6D JUMP JUMPDEST PUSH2 0xCAE JUMP JUMPDEST PUSH1 0x40 MLOAD PUSH2 0x2D6 SWAP2 SWAP1 PUSH2 0x13B0 JUMP JUMPDEST PUSH1 0x40 MLOAD DUP1 SWAP2 SUB SWAP1 RETURN JUMPDEST PUSH2 0x2E7 PUSH2 0xD04 JUMP JUMPDEST PUSH1 0x40 MLOAD PUSH2 0x2F4 SWAP2 SWAP1 PUSH2 0x11E8 JUMP JUMPDEST PUSH1 0x40 MLOAD DUP1 SWAP2 SUB SWAP1 RETURN JUMPDEST PUSH2 0x305 PUSH2 0xD2A JUMP JUMPDEST PUSH1 0x40 MLOAD PUSH2 0x312 SWAP2 SWAP1 PUSH2 0xED9 JUMP JUMPDEST PUSH1 0x40 MLOAD DUP1 SWAP2 SUB SWAP1 RETURN JUMPDEST PUSH2 0x335 PUSH1 0x4 DUP1 CALLDATASIZE SUB DUP2 ADD SWAP1 PUSH2 0x330 SWAP2 SWAP1 PUSH2 0xF6D JUMP JUMPDEST PUSH2 0xDB8 JUMP JUMPDEST STOP JUMPDEST PUSH1 0x0 DUP1 SLOAD PUSH2 0x344 SWAP1 PUSH2 0x13FA JUMP JUMPDEST DUP1 PUSH1 0x1F ADD PUSH1 0x20 DUP1 SWAP2 DIV MUL PUSH1 0x20 ADD PUSH1 0x40 MLOAD SWAP1 DUP2 ADD PUSH1 0x40 MSTORE DUP1 SWAP3 SWAP2 SWAP1 DUP2 DUP2 MSTORE PUSH1 0x20 ADD DUP3 DUP1 SLOAD PUSH2 0x370 SWAP1 PUSH2 0x13FA JUMP JUMPDEST DUP1 ISZERO PUSH2 0x3BD JUMPI DUP1 PUSH1 0x1F LT PUSH2 0x392 JUMPI PUSH2 0x100 DUP1 DUP4 SLOAD DIV MUL DUP4 MSTORE SWAP2 PUSH1 0x20 ADD SWAP2 PUSH2 0x3BD JUMP JUMPDEST DUP3 ADD SWAP2 SWAP1 PUSH1 0x0 MSTORE PUSH1 0x20 PUSH1 0x0 KECCAK256 SWAP1 JUMPDEST DUP2 SLOAD DUP2 MSTORE SWAP1 PUSH1 0x1 ADD SWAP1 PUSH1 0x20 ADD DUP1 DUP4 GT PUSH2 0x3A0 JUMPI DUP3 SWAP1 SUB PUSH1 0x1F AND DUP3 ADD SWAP2 JUMPDEST POP POP POP POP POP DUP2 JUMP JUMPDEST PUSH1 0x0 SWAP2 SWAP1 POP JUMP JUMPDEST CALLER PUSH1 0x4 PUSH1 0x0 DUP3 PUSH20 0xFFFFFFFFFFFFFFFFFFFFFFFFFFFFFFFFFFFFFFFF AND PUSH20 0xFFFFFFFFFFFFFFFFFFFFFFFFFFFFFFFFFFFFFFFF AND DUP2 MSTORE PUSH1 0x20 ADD SWAP1 DUP2 MSTORE PUSH1 0x20 ADD PUSH1 0x0 KECCAK256 PUSH1 0x0 SWAP1 SLOAD SWAP1 PUSH2 0x100 EXP SWAP1 DIV PUSH1 0xFF AND PUSH2 0x459 JUMPI PUSH1 0x40 MLOAD PUSH32 0x8C379A000000000000000000000000000000000000000000000000000000000 DUP2 MSTORE PUSH1 0x4 ADD PUSH2 0x450 SWAP1 PUSH2 0x1477 JUMP JUMPDEST PUSH1 0x40 MLOAD DUP1 SWAP2 SUB SWAP1 REVERT JUMPDEST POP POP POP POP JUMP JUMPDEST CALLER PUSH1 0x4 PUSH1 0x0 DUP3 PUSH20 0xFFFFFFFFFFFFFFFFFFFFFFFFFFFFFFFFFFFFFFFF AND PUSH20 0xFFFFFFFFFFFFFFFFFFFFFFFFFFFFFFFFFFFFFFFF AND DUP2 MSTORE PUSH1 0x20 ADD SWAP1 DUP2 MSTORE PUSH1 0x20 ADD PUSH1 0x0 KECCAK256 PUSH1 0x0 SWAP1 SLOAD SWAP1 PUSH2 0x100 EXP SWAP1 DIV PUSH1 0xFF AND PUSH2 0x4EC JUMPI PUSH1 0x40 MLOAD PUSH32 0x8C379A000000000000000000000000000000000000000000000000000000000 DUP2 MSTORE PUSH1 0x4 ADD PUSH2 0x4E3 SWAP1 PUSH2 0x1477 JUMP JUMPDEST PUSH1 0x40 MLOAD DUP1 SWAP2 SUB SWAP1 REVERT JUMPDEST PUSH1 0x0 PUSH20 0xFFFFFFFFFFFFFFFFFFFFFFFFFFFFFFFFFFFFFFFF AND DUP3 PUSH20 0xFFFFFFFFFFFFFFFFFFFFFFFFFFFFFFFFFFFFFFFF AND SUB PUSH2 0x525 JUMPI PUSH1 0x0 DUP1 REVERT JUMPDEST PUSH1 0x0 PUSH1 0x8 PUSH1 0x0 SWAP1 SLOAD SWAP1 PUSH2 0x100 EXP SWAP1 DIV PUSH20 0xFFFFFFFFFFFFFFFFFFFFFFFFFFFFFFFFFFFFFFFF AND SWAP1 POP PUSH1 0x0 DUP2 PUSH20 0xFFFFFFFFFFFFFFFFFFFFFFFFFFFFFFFFFFFFFFFF AND PUSH4 0xB672BDCB DUP6 PUSH1 0x40 MLOAD DUP3 PUSH4 0xFFFFFFFF AND PUSH1 0xE0 SHL DUP2 MSTORE PUSH1 0x4 ADD PUSH2 0x587 SWAP2 SWAP1 PUSH2 0x11E8 JUMP JUMPDEST PUSH1 0x20 PUSH1 0x40 MLOAD DUP1 DUP4 SUB DUP2 DUP7 GAS STATICCALL ISZERO DUP1 ISZERO PUSH2 0x5A4 JUMPI RETURNDATASIZE PUSH1 0x0 DUP1 RETURNDATACOPY RETURNDATASIZE PUSH1 0x0 REVERT JUMPDEST POP POP POP POP PUSH1 0x40 MLOAD RETURNDATASIZE PUSH1 0x1F NOT PUSH1 0x1F DUP3 ADD AND DUP3 ADD DUP1 PUSH1 0x40 MSTORE POP DUP2 ADD SWAP1 PUSH2 0x5C8 SWAP2 SWAP1 PUSH2 0x14AC JUMP JUMPDEST SWAP1 POP TIMESTAMP DUP2 GT PUSH2 0x60C JUMPI PUSH1 0x40 MLOAD PUSH32 0x8C379A000000000000000000000000000000000000000000000000000000000 DUP2 MSTORE PUSH1 0x4 ADD PUSH2 0x603 SWAP1 PUSH2 0x1525 JUMP JUMPDEST PUSH1 0x40 MLOAD DUP1 SWAP2 SUB SWAP1 REVERT JUMPDEST PUSH1 0x0 PUSH2 0x616 PUSH2 0x997 JUMP JUMPDEST SWAP1 POP PUSH1 0x0 DUP4 PUSH20 0xFFFFFFFFFFFFFFFFFFFFFFFFFFFFFFFFFFFFFFFF AND PUSH4 0xD9A87535 DUP8 PUSH1 0x40 MLOAD DUP3 PUSH4 0xFFFFFFFF AND PUSH1 0xE0 SHL DUP2 MSTORE PUSH1 0x4 ADD PUSH2 0x653 SWAP2 SWAP1 PUSH2 0x11E8 JUMP JUMPDEST PUSH1 0x20 PUSH1 0x40 MLOAD DUP1 DUP4 SUB DUP2 DUP7 GAS STATICCALL ISZERO DUP1 ISZERO PUSH2 0x670 JUMPI RETURNDATASIZE PUSH1 0x0 DUP1 RETURNDATACOPY RETURNDATASIZE PUSH1 0x0 REVERT JUMPDEST POP POP POP POP PUSH1 0x40 MLOAD RETURNDATASIZE PUSH1 0x1F NOT PUSH1 0x1F DUP3 ADD AND DUP3 ADD DUP1 PUSH1 0x40 MSTORE POP DUP2 ADD SWAP1 PUSH2 0x694 SWAP2 SWAP1 PUSH2 0x14AC JUMP JUMPDEST SWAP1 POP PUSH1 0x5 PUSH1 0x64 DUP4 DUP4 PUSH2 0x6A6 SWAP2 SWAP1 PUSH2 0x15A3 JUMP JUMPDEST PUSH2 0x6B0 SWAP2 SWAP1 PUSH2 0x15D4 JUMP JUMPDEST GT PUSH2 0x6F0 JUMPI PUSH1 0x40 MLOAD PUSH32 0x8C379A000000000000000000000000000000000000000000000000000000000 DUP2 MSTORE PUSH1 0x4 ADD PUSH2 0x6E7 SWAP1 PUSH2 0x1688 JUMP JUMPDEST PUSH1 0x40 MLOAD DUP1 SWAP2 SUB SWAP1 REVERT JUMPDEST DUP4 PUSH20 0xFFFFFFFFFFFFFFFFFFFFFFFFFFFFFFFFFFFFFFFF AND PUSH4 0x1292A282 DUP8 PUSH1 0x40 MLOAD DUP3 PUSH4 0xFFFFFFFF AND PUSH1 0xE0 SHL DUP2 MSTORE PUSH1 0x4 ADD PUSH2 0x729 SWAP2 SWAP1 PUSH2 0x11E8 JUMP JUMPDEST PUSH1 0x0 PUSH1 0x40 MLOAD DUP1 DUP4 SUB DUP2 PUSH1 0x0 DUP8 DUP1 EXTCODESIZE ISZERO DUP1 ISZERO PUSH2 0x743 JUMPI PUSH1 0x0 DUP1 REVERT JUMPDEST POP GAS CALL ISZERO DUP1 ISZERO PUSH2 0x757 JUMPI RETURNDATASIZE PUSH1 0x0 DUP1 RETURNDATACOPY RETURNDATASIZE PUSH1 0x0 REVERT JUMPDEST POP POP POP POP PUSH1 0x3 DUP7 SWAP1 DUP1 PUSH1 0x1 DUP2 SLOAD ADD DUP1 DUP3 SSTORE DUP1 SWAP2 POP POP PUSH1 0x1 SWAP1 SUB SWAP1 PUSH1 0x0 MSTORE PUSH1 0x20 PUSH1 0x0 KECCAK256 ADD PUSH1 0x0 SWAP1 SWAP2 SWAP1 SWAP2 SWAP1 SWAP2 PUSH2 0x100 EXP DUP2 SLOAD DUP2 PUSH20 0xFFFFFFFFFFFFFFFFFFFFFFFFFFFFFFFFFFFFFFFF MUL NOT AND SWAP1 DUP4 PUSH20 0xFFFFFFFFFFFFFFFFFFFFFFFFFFFFFFFFFFFFFFFF AND MUL OR SWAP1 SSTORE POP PUSH1 0x1 PUSH1 0x4 PUSH1 0x0 DUP9 PUSH20 0xFFFFFFFFFFFFFFFFFFFFFFFFFFFFFFFFFFFFFFFF AND PUSH20 0xFFFFFFFFFFFFFFFFFFFFFFFFFFFFFFFFFFFFFFFF AND DUP2 MSTORE PUSH1 0x20 ADD SWAP1 DUP2 MSTORE PUSH1 0x20 ADD PUSH1 0x0 KECCAK256 PUSH1 0x0 PUSH2 0x100 EXP DUP2 SLOAD DUP2 PUSH1 0xFF MUL NOT AND SWAP1 DUP4 ISZERO ISZERO MUL OR SWAP1 SSTORE POP POP POP POP POP POP POP JUMP JUMPDEST PUSH1 0x60 CALLER PUSH1 0x4 PUSH1 0x0 DUP3 PUSH20 0xFFFFFFFFFFFFFFFFFFFFFFFFFFFFFFFFFFFFFFFF AND PUSH20 0xFFFFFFFFFFFFFFFFFFFFFFFFFFFFFFFFFFFFFFFF AND DUP2 MSTORE PUSH1 0x20 ADD SWAP1 DUP2 MSTORE PUSH1 0x20 ADD PUSH1 0x0 KECCAK256 PUSH1 0x0 SWAP1 SLOAD SWAP1 PUSH2 0x100 EXP SWAP1 DIV PUSH1 0xFF AND PUSH2 0x8AD JUMPI PUSH1 0x40 MLOAD PUSH32 0x8C379A000000000000000000000000000000000000000000000000000000000 DUP2 MSTORE PUSH1 0x4 ADD PUSH2 0x8A4 SWAP1 PUSH2 0x1477 JUMP JUMPDEST PUSH1 0x40 MLOAD DUP1 SWAP2 SUB SWAP1 REVERT JUMPDEST PUSH1 0x0 PUSH1 0x8 PUSH1 0x0 SWAP1 SLOAD SWAP1 PUSH2 0x100 EXP SWAP1 DIV PUSH20 0xFFFFFFFFFFFFFFFFFFFFFFFFFFFFFFFFFFFFFFFF AND SWAP1 POP DUP1 PUSH20 0xFFFFFFFFFFFFFFFFFFFFFFFFFFFFFFFFFFFFFFFF AND PUSH4 0x455772D2 PUSH1 0x40 MLOAD DUP2 PUSH4 0xFFFFFFFF AND PUSH1 0xE0 SHL DUP2 MSTORE PUSH1 0x4 ADD PUSH1 0x0 PUSH1 0x40 MLOAD DUP1 DUP4 SUB DUP2 DUP7 GAS STATICCALL ISZERO DUP1 ISZERO PUSH2 0x91F JUMPI RETURNDATASIZE PUSH1 0x0 DUP1 RETURNDATACOPY RETURNDATASIZE PUSH1 0x0 REVERT JUMPDEST POP POP POP POP PUSH1 0x40 MLOAD RETURNDATASIZE PUSH1 0x0 DUP3 RETURNDATACOPY RETURNDATASIZE PUSH1 0x1F NOT PUSH1 0x1F DUP3 ADD AND DUP3 ADD DUP1 PUSH1 0x40 MSTORE POP DUP2 ADD SWAP1 PUSH2 0x948 SWAP2 SWAP1 PUSH2 0x17FB JUMP JUMPDEST SWAP3 POP POP POP SWAP1 JUMP JUMPDEST PUSH1 0x3 DUP2 DUP2 SLOAD DUP2 LT PUSH2 0x95F JUMPI PUSH1 0x0 DUP1 REVERT JUMPDEST SWAP1 PUSH1 0x0 MSTORE PUSH1 0x20 PUSH1 0x0 KECCAK256 ADD PUSH1 0x0 SWAP2 POP SLOAD SWAP1 PUSH2 0x100 EXP SWAP1 DIV PUSH20 0xFFFFFFFFFFFFFFFFFFFFFFFFFFFFFFFFFFFFFFFF AND DUP2 JUMP JUMPDEST PUSH1 0x0 SWAP4 SWAP3 POP POP POP JUMP JUMPDEST PUSH1 0x0 PUSH1 0x3 DUP1 SLOAD SWAP1 POP SWAP1 POP SWAP1 JUMP JUMPDEST PUSH1 0x0 PUSH1 0x6 PUSH1 0x0 CALLER PUSH20 0xFFFFFFFFFFFFFFFFFFFFFFFFFFFFFFFFFFFFFFFF AND PUSH20 0xFFFFFFFFFFFFFFFFFFFFFFFFFFFFFFFFFFFFFFFF AND DUP2 MSTORE PUSH1 0x20 ADD SWAP1 DUP2 MSTORE PUSH1 0x20 ADD PUSH1 0x0 KECCAK256 PUSH1 0x0 SWAP1 SLOAD SWAP1 PUSH2 0x100 EXP SWAP1 DIV PUSH20 0xFFFFFFFFFFFFFFFFFFFFFFFFFFFFFFFFFFFFFFFF AND SWAP1 POP DUP1 PUSH20 0xFFFFFFFFFFFFFFFFFFFFFFFFFFFFFFFFFFFFFFFF AND DUP3 PUSH20 0xFFFFFFFFFFFFFFFFFFFFFFFFFFFFFFFFFFFFFFFF AND SUB PUSH2 0xA76 JUMPI PUSH1 0x40 MLOAD PUSH32 0x8C379A000000000000000000000000000000000000000000000000000000000 DUP2 MSTORE PUSH1 0x4 ADD PUSH2 0xA6D SWAP1 PUSH2 0x1890 JUMP JUMPDEST PUSH1 0x40 MLOAD DUP1 SWAP2 SUB SWAP1 REVERT JUMPDEST PUSH1 0x1 PUSH1 0x7 PUSH1 0x0 DUP5 PUSH20 0xFFFFFFFFFFFFFFFFFFFFFFFFFFFFFFFFFFFFFFFF AND PUSH20 0xFFFFFFFFFFFFFFFFFFFFFFFFFFFFFFFFFFFFFFFF AND DUP2 MSTORE PUSH1 0x20 ADD SWAP1 DUP2 MSTORE PUSH1 0x20 ADD PUSH1 0x0 KECCAK256 PUSH1 0x0 DUP3 DUP3 SLOAD PUSH2 0xAC6 SWAP2 SWAP1 PUSH2 0x18BA JUMP JUMPDEST SWAP3 POP POP DUP2 SWAP1 SSTORE POP DUP2 PUSH1 0x6 PUSH1 0x0 CALLER PUSH20 0xFFFFFFFFFFFFFFFFFFFFFFFFFFFFFFFFFFFFFFFF AND PUSH20 0xFFFFFFFFFFFFFFFFFFFFFFFFFFFFFFFFFFFFFFFF AND DUP2 MSTORE PUSH1 0x20 ADD SWAP1 DUP2 MSTORE PUSH1 0x20 ADD PUSH1 0x0 KECCAK256 PUSH1 0x0 PUSH2 0x100 EXP DUP2 SLOAD DUP2 PUSH20 0xFFFFFFFFFFFFFFFFFFFFFFFFFFFFFFFFFFFFFFFF MUL NOT AND SWAP1 DUP4 PUSH20 0xFFFFFFFFFFFFFFFFFFFFFFFFFFFFFFFFFFFFFFFF AND MUL OR SWAP1 SSTORE POP PUSH32 0xE8DDFEC65826B66EC8B03B89152BB70528FA2DA92E9775CC99671B1FC7BCB0F4 CALLER PUSH1 0x40 MLOAD PUSH2 0xB7A SWAP2 SWAP1 PUSH2 0x11E8 JUMP JUMPDEST PUSH1 0x40 MLOAD DUP1 SWAP2 SUB SWAP1 LOG1 POP POP JUMP JUMPDEST PUSH1 0x2 DUP1 SLOAD PUSH2 0xB93 SWAP1 PUSH2 0x13FA JUMP JUMPDEST DUP1 PUSH1 0x1F ADD PUSH1 0x20 DUP1 SWAP2 DIV MUL PUSH1 0x20 ADD PUSH1 0x40 MLOAD SWAP1 DUP2 ADD PUSH1 0x40 MSTORE DUP1 SWAP3 SWAP2 SWAP1 DUP2 DUP2 MSTORE PUSH1 0x20 ADD DUP3 DUP1 SLOAD PUSH2 0xBBF SWAP1 PUSH2 0x13FA JUMP JUMPDEST DUP1 ISZERO PUSH2 0xC0C JUMPI DUP1 PUSH1 0x1F LT PUSH2 0xBE1 JUMPI PUSH2 0x100 DUP1 DUP4 SLOAD DIV MUL DUP4 MSTORE SWAP2 PUSH1 0x20 ADD SWAP2 PUSH2 0xC0C JUMP JUMPDEST DUP3 ADD SWAP2 SWAP1 PUSH1 0x0 MSTORE PUSH1 0x20 PUSH1 0x0 KECCAK256 SWAP1 JUMPDEST DUP2 SLOAD DUP2 MSTORE SWAP1 PUSH1 0x1 ADD SWAP1 PUSH1 0x20 ADD DUP1 DUP4 GT PUSH2 0xBEF JUMPI DUP3 SWAP1 SUB PUSH1 0x1F AND DUP3 ADD SWAP2 JUMPDEST POP POP POP POP POP DUP2 JUMP JUMPDEST PUSH1 0x60 SWAP2 SWAP1 POP JUMP JUMPDEST PUSH1 0x60 CALLER PUSH1 0x4 PUSH1 0x0 DUP3 PUSH20 0xFFFFFFFFFFFFFFFFFFFFFFFFFFFFFFFFFFFFFFFF AND PUSH20 0xFFFFFFFFFFFFFFFFFFFFFFFFFFFFFFFFFFFFFFFF AND DUP2 MSTORE PUSH1 0x20 ADD SWAP1 DUP2 MSTORE PUSH1 0x20 ADD PUSH1 0x0 KECCAK256 PUSH1 0x0 SWAP1 SLOAD SWAP1 PUSH2 0x100 EXP SWAP1 DIV PUSH1 0xFF AND PUSH2 0xCAA JUMPI PUSH1 0x40 MLOAD PUSH32 0x8C379A000000000000000000000000000000000000000000000000000000000 DUP2 MSTORE PUSH1 0x4 ADD PUSH2 0xCA1 SWAP1 PUSH2 0x1477 JUMP JUMPDEST PUSH1 0x40 MLOAD DUP1 SWAP2 SUB SWAP1 REVERT JUMPDEST POP SWAP1 JUMP JUMPDEST PUSH1 0x0 PUSH1 0x4 PUSH1 0x0 DUP4 PUSH20 0xFFFFFFFFFFFFFFFFFFFFFFFFFFFFFFFFFFFFFFFF AND PUSH20 0xFFFFFFFFFFFFFFFFFFFFFFFFFFFFFFFFFFFFFFFF AND DUP2 MSTORE PUSH1 0x20 ADD SWAP1 DUP2 MSTORE PUSH1 0x20 ADD PUSH1 0x0 KECCAK256 PUSH1 0x0 SWAP1 SLOAD SWAP1 PUSH2 0x100 EXP SWAP1 DIV PUSH1 0xFF AND SWAP1 POP SWAP2 SWAP1 POP JUMP JUMPDEST PUSH1 0x8 PUSH1 0x0 SWAP1 SLOAD SWAP1 PUSH2 0x100 EXP SWAP1 DIV PUSH20 0xFFFFFFFFFFFFFFFFFFFFFFFFFFFFFFFFFFFFFFFF AND DUP2 JUMP JUMPDEST PUSH1 0x1 DUP1 SLOAD PUSH2 0xD37 SWAP1 PUSH2 0x13FA JUMP JUMPDEST DUP1 PUSH1 0x1F ADD PUSH1 0x20 DUP1 SWAP2 DIV MUL PUSH1 0x20 ADD PUSH1 0x40 MLOAD SWAP1 DUP2 ADD PUSH1 0x40 MSTORE DUP1 SWAP3 SWAP2 SWAP1 DUP2 DUP2 MSTORE PUSH1 0x20 ADD DUP3 DUP1 SLOAD PUSH2 0xD63 SWAP1 PUSH2 0x13FA JUMP JUMPDEST DUP1 ISZERO PUSH2 0xDB0 JUMPI DUP1 PUSH1 0x1F LT PUSH2 0xD85 JUMPI PUSH2 0x100 DUP1 DUP4 SLOAD DIV MUL DUP4 MSTORE SWAP2 PUSH1 0x20 ADD SWAP2 PUSH2 0xDB0 JUMP JUMPDEST DUP3 ADD SWAP2 SWAP1 PUSH1 0x0 MSTORE PUSH1 0x20 PUSH1 0x0 KECCAK256 SWAP1 JUMPDEST DUP2 SLOAD DUP2 MSTORE SWAP1 PUSH1 0x1 ADD SWAP1 PUSH1 0x20 ADD DUP1 DUP4 GT PUSH2 0xD93 JUMPI DUP3 SWAP1 SUB PUSH1 0x1F AND DUP3 ADD SWAP2 JUMPDEST POP POP POP POP POP DUP2 JUMP JUMPDEST CALLER PUSH1 0x4 PUSH1 0x0 DUP3 PUSH20 0xFFFFFFFFFFFFFFFFFFFFFFFFFFFFFFFFFFFFFFFF AND PUSH20 0xFFFFFFFFFFFFFFFFFFFFFFFFFFFFFFFFFFFFFFFF AND DUP2 MSTORE PUSH1 0x20 ADD SWAP1 DUP2 MSTORE PUSH1 0x20 ADD PUSH1 0x0 KECCAK256 PUSH1 0x0 SWAP1 SLOAD SWAP1 PUSH2 0x100 EXP SWAP1 DIV PUSH1 0xFF AND PUSH2 0xE45 JUMPI PUSH1 0x40 MLOAD PUSH32 0x8C379A000000000000000000000000000000000000000000000000000000000 DUP2 MSTORE PUSH1 0x4 ADD PUSH2 0xE3C SWAP1 PUSH2 0x1477 JUMP JUMPDEST PUSH1 0x40 MLOAD DUP1 SWAP2 SUB SWAP1 REVERT JUMPDEST POP POP JUMP JUMPDEST PUSH1 0x0 DUP2 MLOAD SWAP1 POP SWAP2 SWAP1 POP JUMP JUMPDEST PUSH1 0x0 DUP3 DUP3 MSTORE PUSH1 0x20 DUP3 ADD SWAP1 POP SWAP3 SWAP2 POP POP JUMP JUMPDEST PUSH1 0x0 JUMPDEST DUP4 DUP2 LT ISZERO PUSH2 0xE83 JUMPI DUP1 DUP3 ADD MLOAD DUP2 DUP5 ADD MSTORE PUSH1 0x20 DUP2 ADD SWAP1 POP PUSH2 0xE68 JUMP JUMPDEST PUSH1 0x0 DUP5 DUP5 ADD MSTORE POP POP POP POP JUMP JUMPDEST PUSH1 0x0 PUSH1 0x1F NOT PUSH1 0x1F DUP4 ADD AND SWAP1 POP SWAP2 SWAP1 POP JUMP JUMPDEST PUSH1 0x0 PUSH2 0xEAB DUP3 PUSH2 0xE49 JUMP JUMPDEST PUSH2 0xEB5 DUP2 DUP6 PUSH2 0xE54 JUMP JUMPDEST SWAP4 POP PUSH2 0xEC5 DUP2 DUP6 PUSH1 0x20 DUP7 ADD PUSH2 0xE65 JUMP JUMPDEST PUSH2 0xECE DUP2 PUSH2 0xE8F JUMP JUMPDEST DUP5 ADD SWAP2 POP POP SWAP3 SWAP2 POP POP JUMP JUMPDEST PUSH1 0x0 PUSH1 0x20 DUP3 ADD SWAP1 POP DUP2 DUP2 SUB PUSH1 0x0 DUP4 ADD MSTORE PUSH2 0xEF3 DUP2 DUP5 PUSH2 0xEA0 JUMP JUMPDEST SWAP1 POP SWAP3 SWAP2 POP POP JUMP JUMPDEST PUSH1 0x0 PUSH1 0x40 MLOAD SWAP1 POP SWAP1 JUMP JUMPDEST PUSH1 0x0 DUP1 REVERT JUMPDEST PUSH1 0x0 DUP1 REVERT JUMPDEST PUSH1 0x0 PUSH20 0xFFFFFFFFFFFFFFFFFFFFFFFFFFFFFFFFFFFFFFFF DUP3 AND SWAP1 POP SWAP2 SWAP1 POP JUMP JUMPDEST PUSH1 0x0 PUSH2 0xF3A DUP3 PUSH2 0xF0F JUMP JUMPDEST SWAP1 POP SWAP2 SWAP1 POP JUMP JUMPDEST PUSH2 0xF4A DUP2 PUSH2 0xF2F JUMP JUMPDEST DUP2 EQ PUSH2 0xF55 JUMPI PUSH1 0x0 DUP1 REVERT JUMPDEST POP JUMP JUMPDEST PUSH1 0x0 DUP2 CALLDATALOAD SWAP1 POP PUSH2 0xF67 DUP2 PUSH2 0xF41 JUMP JUMPDEST SWAP3 SWAP2 POP POP JUMP JUMPDEST PUSH1 0x0 PUSH1 0x20 DUP3 DUP5 SUB SLT ISZERO PUSH2 0xF83 JUMPI PUSH2 0xF82 PUSH2 0xF05 JUMP JUMPDEST JUMPDEST PUSH1 0x0 PUSH2 0xF91 DUP5 DUP3 DUP6 ADD PUSH2 0xF58 JUMP JUMPDEST SWAP2 POP POP SWAP3 SWAP2 POP POP JUMP JUMPDEST PUSH1 0x0 DUP2 PUSH1 0x3 SIGNEXTEND SWAP1 POP SWAP2 SWAP1 POP JUMP JUMPDEST PUSH2 0xFB0 DUP2 PUSH2 0xF9A JUMP JUMPDEST DUP3 MSTORE POP POP JUMP JUMPDEST PUSH1 0x0 PUSH1 0x20 DUP3 ADD SWAP1 POP PUSH2 0xFCB PUSH1 0x0 DUP4 ADD DUP5 PUSH2 0xFA7 JUMP JUMPDEST SWAP3 SWAP2 POP POP JUMP JUMPDEST PUSH1 0x0 DUP1 REVERT JUMPDEST PUSH1 0x0 DUP1 REVERT JUMPDEST PUSH1 0x0 DUP1 REVERT JUMPDEST PUSH1 0x0 DUP1 DUP4 PUSH1 0x1F DUP5 ADD SLT PUSH2 0xFF6 JUMPI PUSH2 0xFF5 PUSH2 0xFD1 JUMP JUMPDEST JUMPDEST DUP3 CALLDATALOAD SWAP1 POP PUSH8 0xFFFFFFFFFFFFFFFF DUP2 GT ISZERO PUSH2 0x1013 JUMPI PUSH2 0x1012 PUSH2 0xFD6 JUMP JUMPDEST JUMPDEST PUSH1 0x20 DUP4 ADD SWAP2 POP DUP4 PUSH1 0x1 DUP3 MUL DUP4 ADD GT ISZERO PUSH2 0x102F JUMPI PUSH2 0x102E PUSH2 0xFDB JUMP JUMPDEST JUMPDEST SWAP3 POP SWAP3 SWAP1 POP JUMP JUMPDEST PUSH1 0x0 DUP1 PUSH1 0x0 PUSH1 0x40 DUP5 DUP7 SUB SLT ISZERO PUSH2 0x104F JUMPI PUSH2 0x104E PUSH2 0xF05 JUMP JUMPDEST JUMPDEST PUSH1 0x0 PUSH2 0x105D DUP7 DUP3 DUP8 ADD PUSH2 0xF58 JUMP JUMPDEST SWAP4 POP POP PUSH1 0x20 DUP5 ADD CALLDATALOAD PUSH8 0xFFFFFFFFFFFFFFFF DUP2 GT ISZERO PUSH2 0x107E JUMPI PUSH2 0x107D PUSH2 0xF0A JUMP JUMPDEST JUMPDEST PUSH2 0x108A DUP7 DUP3 DUP8 ADD PUSH2 0xFE0 JUMP JUMPDEST SWAP3 POP SWAP3 POP POP SWAP3 POP SWAP3 POP SWAP3 JUMP JUMPDEST PUSH1 0x0 DUP2 MLOAD SWAP1 POP SWAP2 SWAP1 POP JUMP JUMPDEST PUSH1 0x0 DUP3 DUP3 MSTORE PUSH1 0x20 DUP3 ADD SWAP1 POP SWAP3 SWAP2 POP POP JUMP JUMPDEST PUSH1 0x0 DUP2 SWAP1 POP PUSH1 0x20 DUP3 ADD SWAP1 POP SWAP2 SWAP1 POP JUMP JUMPDEST PUSH2 0x10CB DUP2 PUSH2 0xF2F JUMP JUMPDEST DUP3 MSTORE POP POP JUMP JUMPDEST PUSH1 0x0 PUSH2 0x10DD DUP4 DUP4 PUSH2 0x10C2 JUMP JUMPDEST PUSH1 0x20 DUP4 ADD SWAP1 POP SWAP3 SWAP2 POP POP JUMP JUMPDEST PUSH1 0x0 PUSH1 0x20 DUP3 ADD SWAP1 POP SWAP2 SWAP1 POP JUMP JUMPDEST PUSH1 0x0 PUSH2 0x1101 DUP3 PUSH2 0x1096 JUMP JUMPDEST PUSH2 0x110B DUP2 DUP6 PUSH2 0x10A1 JUMP JUMPDEST SWAP4 POP PUSH2 0x1116 DUP4 PUSH2 0x10B2 JUMP JUMPDEST DUP1 PUSH1 0x0 JUMPDEST DUP4 DUP2 LT ISZERO PUSH2 0x1147 JUMPI DUP2 MLOAD PUSH2 0x112E DUP9 DUP3 PUSH2 0x10D1 JUMP JUMPDEST SWAP8 POP PUSH2 0x1139 DUP4 PUSH2 0x10E9 JUMP JUMPDEST SWAP3 POP POP PUSH1 0x1 DUP2 ADD SWAP1 POP PUSH2 0x111A JUMP JUMPDEST POP DUP6 SWAP4 POP POP POP POP SWAP3 SWAP2 POP POP JUMP JUMPDEST PUSH1 0x0 PUSH1 0x20 DUP3 ADD SWAP1 POP DUP2 DUP2 SUB PUSH1 0x0 DUP4 ADD MSTORE PUSH2 0x116E DUP2 DUP5 PUSH2 0x10F6 JUMP JUMPDEST SWAP1 POP SWAP3 SWAP2 POP POP JUMP JUMPDEST PUSH1 0x0 DUP2 SWAP1 POP SWAP2 SWAP1 POP JUMP JUMPDEST PUSH2 0x1189 DUP2 PUSH2 0x1176 JUMP JUMPDEST DUP2 EQ PUSH2 0x1194 JUMPI PUSH1 0x0 DUP1 REVERT JUMPDEST POP JUMP JUMPDEST PUSH1 0x0 DUP2 CALLDATALOAD SWAP1 POP PUSH2 0x11A6 DUP2 PUSH2 0x1180 JUMP JUMPDEST SWAP3 SWAP2 POP POP JUMP JUMPDEST PUSH1 0x0 PUSH1 0x20 DUP3 DUP5 SUB SLT ISZERO PUSH2 0x11C2 JUMPI PUSH2 0x11C1 PUSH2 0xF05 JUMP JUMPDEST JUMPDEST PUSH1 0x0 PUSH2 0x11D0 DUP5 DUP3 DUP6 ADD PUSH2 0x1197 JUMP JUMPDEST SWAP2 POP POP SWAP3 SWAP2 POP POP JUMP JUMPDEST PUSH2 0x11E2 DUP2 PUSH2 0xF2F JUMP JUMPDEST DUP3 MSTORE POP POP JUMP JUMPDEST PUSH1 0x0 PUSH1 0x20 DUP3 ADD SWAP1 POP PUSH2 0x11FD PUSH1 0x0 DUP4 ADD DUP5 PUSH2 0x11D9 JUMP JUMPDEST SWAP3 SWAP2 POP POP JUMP JUMPDEST PUSH1 0x0 PUSH4 0xFFFFFFFF DUP3 AND SWAP1 POP SWAP2 SWAP1 POP JUMP JUMPDEST PUSH2 0x121C DUP2 PUSH2 0x1203 JUMP JUMPDEST DUP3 MSTORE POP POP JUMP JUMPDEST PUSH1 0x0 PUSH1 0x20 DUP3 ADD SWAP1 POP PUSH2 0x1237 PUSH1 0x0 DUP4 ADD DUP5 PUSH2 0x1213 JUMP JUMPDEST SWAP3 SWAP2 POP POP JUMP JUMPDEST PUSH2 0x1246 DUP2 PUSH2 0x1176 JUMP JUMPDEST DUP3 MSTORE POP POP JUMP JUMPDEST PUSH1 0x0 PUSH1 0x20 DUP3 ADD SWAP1 POP PUSH2 0x1261 PUSH1 0x0 DUP4 ADD DUP5 PUSH2 0x123D JUMP JUMPDEST SWAP3 SWAP2 POP POP JUMP JUMPDEST PUSH1 0x0 DUP2 MLOAD SWAP1 POP SWAP2 SWAP1 POP JUMP JUMPDEST PUSH1 0x0 DUP3 DUP3 MSTORE PUSH1 0x20 DUP3 ADD SWAP1 POP SWAP3 SWAP2 POP POP JUMP JUMPDEST PUSH1 0x0 DUP2 SWAP1 POP PUSH1 0x20 DUP3 ADD SWAP1 POP SWAP2 SWAP1 POP JUMP JUMPDEST PUSH1 0x0 DUP3 DUP3 MSTORE PUSH1 0x20 DUP3 ADD SWAP1 POP SWAP3 SWAP2 POP POP JUMP JUMPDEST PUSH1 0x0 PUSH2 0x12AF DUP3 PUSH2 0xE49 JUMP JUMPDEST PUSH2 0x12B9 DUP2 DUP6 PUSH2 0x1293 JUMP JUMPDEST SWAP4 POP PUSH2 0x12C9 DUP2 DUP6 PUSH1 0x20 DUP7 ADD PUSH2 0xE65 JUMP JUMPDEST PUSH2 0x12D2 DUP2 PUSH2 0xE8F JUMP JUMPDEST DUP5 ADD SWAP2 POP POP SWAP3 SWAP2 POP POP JUMP JUMPDEST PUSH1 0x0 PUSH2 0x12E9 DUP4 DUP4 PUSH2 0x12A4 JUMP JUMPDEST SWAP1 POP SWAP3 SWAP2 POP POP JUMP JUMPDEST PUSH1 0x0 PUSH1 0x20 DUP3 ADD SWAP1 POP SWAP2 SWAP1 POP JUMP JUMPDEST PUSH1 0x0 PUSH2 0x1309 DUP3 PUSH2 0x1267 JUMP JUMPDEST PUSH2 0x1313 DUP2 DUP6 PUSH2 0x1272 JUMP JUMPDEST SWAP4 POP DUP4 PUSH1 0x20 DUP3 MUL DUP6 ADD PUSH2 0x1325 DUP6 PUSH2 0x1283 JUMP JUMPDEST DUP1 PUSH1 0x0 JUMPDEST DUP6 DUP2 LT ISZERO PUSH2 0x1361 JUMPI DUP5 DUP5 SUB DUP10 MSTORE DUP2 MLOAD PUSH2 0x1342 DUP6 DUP3 PUSH2 0x12DD JUMP JUMPDEST SWAP5 POP PUSH2 0x134D DUP4 PUSH2 0x12F1 JUMP JUMPDEST SWAP3 POP PUSH1 0x20 DUP11 ADD SWAP10 POP POP PUSH1 0x1 DUP2 ADD SWAP1 POP PUSH2 0x1329 JUMP JUMPDEST POP DUP3 SWAP8 POP DUP8 SWAP6 POP POP POP POP POP POP SWAP3 SWAP2 POP POP JUMP JUMPDEST PUSH1 0x0 PUSH1 0x20 DUP3 ADD SWAP1 POP DUP2 DUP2 SUB PUSH1 0x0 DUP4 ADD MSTORE PUSH2 0x138D DUP2 DUP5 PUSH2 0x12FE JUMP JUMPDEST SWAP1 POP SWAP3 SWAP2 POP POP JUMP JUMPDEST PUSH1 0x0 DUP2 ISZERO ISZERO SWAP1 POP SWAP2 SWAP1 POP JUMP JUMPDEST PUSH2 0x13AA DUP2 PUSH2 0x1395 JUMP JUMPDEST DUP3 MSTORE POP POP JUMP JUMPDEST PUSH1 0x0 PUSH1 0x20 DUP3 ADD SWAP1 POP PUSH2 0x13C5 PUSH1 0x0 DUP4 ADD DUP5 PUSH2 0x13A1 JUMP JUMPDEST SWAP3 SWAP2 POP POP JUMP JUMPDEST PUSH32 0x4E487B7100000000000000000000000000000000000000000000000000000000 PUSH1 0x0 MSTORE PUSH1 0x22 PUSH1 0x4 MSTORE PUSH1 0x24 PUSH1 0x0 REVERT JUMPDEST PUSH1 0x0 PUSH1 0x2 DUP3 DIV SWAP1 POP PUSH1 0x1 DUP3 AND DUP1 PUSH2 0x1412 JUMPI PUSH1 0x7F DUP3 AND SWAP2 POP JUMPDEST PUSH1 0x20 DUP3 LT DUP2 SUB PUSH2 0x1425 JUMPI PUSH2 0x1424 PUSH2 0x13CB JUMP JUMPDEST JUMPDEST POP SWAP2 SWAP1 POP JUMP JUMPDEST PUSH32 0x526571756972656420746F2062652061206D656D656265720000000000000000 PUSH1 0x0 DUP3 ADD MSTORE POP JUMP JUMPDEST PUSH1 0x0 PUSH2 0x1461 PUSH1 0x18 DUP4 PUSH2 0xE54 JUMP JUMPDEST SWAP2 POP PUSH2 0x146C DUP3 PUSH2 0x142B JUMP JUMPDEST PUSH1 0x20 DUP3 ADD SWAP1 POP SWAP2 SWAP1 POP JUMP JUMPDEST PUSH1 0x0 PUSH1 0x20 DUP3 ADD SWAP1 POP DUP2 DUP2 SUB PUSH1 0x0 DUP4 ADD MSTORE PUSH2 0x1490 DUP2 PUSH2 0x1454 JUMP JUMPDEST SWAP1 POP SWAP2 SWAP1 POP JUMP JUMPDEST PUSH1 0x0 DUP2 MLOAD SWAP1 POP PUSH2 0x14A6 DUP2 PUSH2 0x1180 JUMP JUMPDEST SWAP3 SWAP2 POP POP JUMP JUMPDEST PUSH1 0x0 PUSH1 0x20 DUP3 DUP5 SUB SLT ISZERO PUSH2 0x14C2 JUMPI PUSH2 0x14C1 PUSH2 0xF05 JUMP JUMPDEST JUMPDEST PUSH1 0x0 PUSH2 0x14D0 DUP5 DUP3 DUP6 ADD PUSH2 0x1497 JUMP JUMPDEST SWAP2 POP POP SWAP3 SWAP2 POP POP JUMP JUMPDEST PUSH32 0x546F20736F6F6E20746F20656E6420766F746500000000000000000000000000 PUSH1 0x0 DUP3 ADD MSTORE POP JUMP JUMPDEST PUSH1 0x0 PUSH2 0x150F PUSH1 0x13 DUP4 PUSH2 0xE54 JUMP JUMPDEST SWAP2 POP PUSH2 0x151A DUP3 PUSH2 0x14D9 JUMP JUMPDEST PUSH1 0x20 DUP3 ADD SWAP1 POP SWAP2 SWAP1 POP JUMP JUMPDEST PUSH1 0x0 PUSH1 0x20 DUP3 ADD SWAP1 POP DUP2 DUP2 SUB PUSH1 0x0 DUP4 ADD MSTORE PUSH2 0x153E DUP2 PUSH2 0x1502 JUMP JUMPDEST SWAP1 POP SWAP2 SWAP1 POP JUMP JUMPDEST PUSH32 0x4E487B7100000000000000000000000000000000000000000000000000000000 PUSH1 0x0 MSTORE PUSH1 0x12 PUSH1 0x4 MSTORE PUSH1 0x24 PUSH1 0x0 REVERT JUMPDEST PUSH32 0x4E487B7100000000000000000000000000000000000000000000000000000000 PUSH1 0x0 MSTORE PUSH1 0x11 PUSH1 0x4 MSTORE PUSH1 0x24 PUSH1 0x0 REVERT JUMPDEST PUSH1 0x0 PUSH2 0x15AE DUP3 PUSH2 0x1176 JUMP JUMPDEST SWAP2 POP PUSH2 0x15B9 DUP4 PUSH2 0x1176 JUMP JUMPDEST SWAP3 POP DUP3 PUSH2 0x15C9 JUMPI PUSH2 0x15C8 PUSH2 0x1545 JUMP JUMPDEST JUMPDEST DUP3 DUP3 DIV SWAP1 POP SWAP3 SWAP2 POP POP JUMP JUMPDEST PUSH1 0x0 PUSH2 0x15DF DUP3 PUSH2 0x1176 JUMP JUMPDEST SWAP2 POP PUSH2 0x15EA DUP4 PUSH2 0x1176 JUMP JUMPDEST SWAP3 POP DUP3 DUP3 MUL PUSH2 0x15F8 DUP2 PUSH2 0x1176 JUMP JUMPDEST SWAP2 POP DUP3 DUP3 DIV DUP5 EQ DUP4 ISZERO OR PUSH2 0x160F JUMPI PUSH2 0x160E PUSH2 0x1574 JUMP JUMPDEST JUMPDEST POP SWAP3 SWAP2 POP POP JUMP JUMPDEST PUSH32 0x496E76616C6964206E756D626572206F6620766F746573206F722070726F6365 PUSH1 0x0 DUP3 ADD MSTORE PUSH32 0x65642E0000000000000000000000000000000000000000000000000000000000 PUSH1 0x20 DUP3 ADD MSTORE POP JUMP JUMPDEST PUSH1 0x0 PUSH2 0x1672 PUSH1 0x23 DUP4 PUSH2 0xE54 JUMP JUMPDEST SWAP2 POP PUSH2 0x167D DUP3 PUSH2 0x1616 JUMP JUMPDEST PUSH1 0x40 DUP3 ADD SWAP1 POP SWAP2 SWAP1 POP JUMP JUMPDEST PUSH1 0x0 PUSH1 0x20 DUP3 ADD SWAP1 POP DUP2 DUP2 SUB PUSH1 0x0 DUP4 ADD MSTORE PUSH2 0x16A1 DUP2 PUSH2 0x1665 JUMP JUMPDEST SWAP1 POP SWAP2 SWAP1 POP JUMP JUMPDEST PUSH32 0x4E487B7100000000000000000000000000000000000000000000000000000000 PUSH1 0x0 MSTORE PUSH1 0x41 PUSH1 0x4 MSTORE PUSH1 0x24 PUSH1 0x0 REVERT JUMPDEST PUSH2 0x16E0 DUP3 PUSH2 0xE8F JUMP JUMPDEST DUP2 ADD DUP2 DUP2 LT PUSH8 0xFFFFFFFFFFFFFFFF DUP3 GT OR ISZERO PUSH2 0x16FF JUMPI PUSH2 0x16FE PUSH2 0x16A8 JUMP JUMPDEST JUMPDEST DUP1 PUSH1 0x40 MSTORE POP POP POP JUMP JUMPDEST PUSH1 0x0 PUSH2 0x1712 PUSH2 0xEFB JUMP JUMPDEST SWAP1 POP PUSH2 0x171E DUP3 DUP3 PUSH2 0x16D7 JUMP JUMPDEST SWAP2 SWAP1 POP JUMP JUMPDEST PUSH1 0x0 PUSH8 0xFFFFFFFFFFFFFFFF DUP3 GT ISZERO PUSH2 0x173E JUMPI PUSH2 0x173D PUSH2 0x16A8 JUMP JUMPDEST JUMPDEST PUSH1 0x20 DUP3 MUL SWAP1 POP PUSH1 0x20 DUP2 ADD SWAP1 POP SWAP2 SWAP1 POP JUMP JUMPDEST PUSH1 0x0 DUP2 MLOAD SWAP1 POP PUSH2 0x175E DUP2 PUSH2 0xF41 JUMP JUMPDEST SWAP3 SWAP2 POP POP JUMP JUMPDEST PUSH1 0x0 PUSH2 0x1777 PUSH2 0x1772 DUP5 PUSH2 0x1723 JUMP JUMPDEST PUSH2 0x1708 JUMP JUMPDEST SWAP1 POP DUP1 DUP4 DUP3 MSTORE PUSH1 0x20 DUP3 ADD SWAP1 POP PUSH1 0x20 DUP5 MUL DUP4 ADD DUP6 DUP2 GT ISZERO PUSH2 0x179A JUMPI PUSH2 0x1799 PUSH2 0xFDB JUMP JUMPDEST JUMPDEST DUP4 JUMPDEST DUP2 DUP2 LT ISZERO PUSH2 0x17C3 JUMPI DUP1 PUSH2 0x17AF DUP9 DUP3 PUSH2 0x174F JUMP JUMPDEST DUP5 MSTORE PUSH1 0x20 DUP5 ADD SWAP4 POP POP PUSH1 0x20 DUP2 ADD SWAP1 POP PUSH2 0x179C JUMP JUMPDEST POP POP POP SWAP4 SWAP3 POP POP POP JUMP JUMPDEST PUSH1 0x0 DUP3 PUSH1 0x1F DUP4 ADD SLT PUSH2 0x17E2 JUMPI PUSH2 0x17E1 PUSH2 0xFD1 JUMP JUMPDEST JUMPDEST DUP2 MLOAD PUSH2 0x17F2 DUP5 DUP3 PUSH1 0x20 DUP7 ADD PUSH2 0x1764 JUMP JUMPDEST SWAP2 POP POP SWAP3 SWAP2 POP POP JUMP JUMPDEST PUSH1 0x0 PUSH1 0x20 DUP3 DUP5 SUB SLT ISZERO PUSH2 0x1811 JUMPI PUSH2 0x1810 PUSH2 0xF05 JUMP JUMPDEST JUMPDEST PUSH1 0x0 DUP3 ADD MLOAD PUSH8 0xFFFFFFFFFFFFFFFF DUP2 GT ISZERO PUSH2 0x182F JUMPI PUSH2 0x182E PUSH2 0xF0A JUMP JUMPDEST JUMPDEST PUSH2 0x183B DUP5 DUP3 DUP6 ADD PUSH2 0x17CD JUMP JUMPDEST SWAP2 POP POP SWAP3 SWAP2 POP POP JUMP JUMPDEST PUSH32 0x416C726561647920766F74656400000000000000000000000000000000000000 PUSH1 0x0 DUP3 ADD MSTORE POP JUMP JUMPDEST PUSH1 0x0 PUSH2 0x187A PUSH1 0xD DUP4 PUSH2 0xE54 JUMP JUMPDEST SWAP2 POP PUSH2 0x1885 DUP3 PUSH2 0x1844 JUMP JUMPDEST PUSH1 0x20 DUP3 ADD SWAP1 POP SWAP2 SWAP1 POP JUMP JUMPDEST PUSH1 0x0 PUSH1 0x20 DUP3 ADD SWAP1 POP DUP2 DUP2 SUB PUSH1 0x0 DUP4 ADD MSTORE PUSH2 0x18A9 DUP2 PUSH2 0x186D JUMP JUMPDEST SWAP1 POP SWAP2 SWAP1 POP JUMP JUMPDEST PUSH1 0x0 DUP2 SWAP1 POP SWAP2 SWAP1 POP JUMP JUMPDEST PUSH1 0x0 PUSH2 0x18C5 DUP3 PUSH2 0x18B0 JUMP JUMPDEST SWAP2 POP PUSH2 0x18D0 DUP4 PUSH2 0x18B0 JUMP JUMPDEST SWAP3 POP DUP3 DUP3 ADD SWAP1 POP DUP3 DUP2 SLT ISZERO PUSH1 0x0 DUP4 SLT AND DUP4 DUP3 SLT PUSH1 0x0 DUP5 SLT ISZERO AND OR ISZERO PUSH2 0x18F8 JUMPI PUSH2 0x18F7 PUSH2 0x1574 JUMP JUMPDEST JUMPDEST SWAP3 SWAP2 POP POP JUMP INVALID LOG2 PUSH5 0x6970667358 0x22 SLT KECCAK256 PUSH18 0x3FF1D24A2DDE2F1C9B87753C42C9E19FDC2D SAR PC 0xF9 LOG0 POP 0xBF 0xC5 CALLVALUE OR MOD 0xA6 0xB1 0xA6 PUSH5 0x736F6C6343 STOP ADDMOD GT STOP CALLER LOG2 PUSH5 0x6970667358 0x22 SLT KECCAK256 0xD4 0xD2 SWAP15 GT KECCAK256 GT 0xEA BALANCE 0xA7 0xD1 SWAP2 0x5C SELFBALANCE 0xBF 0x25 SWAP5 0x26 0xD0 0xA5 0xC 0xDB DUP11 0xC 0x2D CALLER KECCAK256 PUSH26 0xDF4DFB79A764736F6C6343000811003360806040523480156100 LT JUMPI PUSH1 0x0 DUP1 REVERT JUMPDEST POP PUSH2 0x180C DUP1 PUSH2 0x20 PUSH1 0x0 CODECOPY PUSH1 0x0 RETURN INVALID PUSH1 0x80 PUSH1 0x40 MSTORE CALLVALUE DUP1 ISZERO PUSH2 0x10 JUMPI PUSH1 0x0 DUP1 REVERT JUMPDEST POP PUSH1 0x4 CALLDATASIZE LT PUSH2 0x137 JUMPI PUSH1 0x0 CALLDATALOAD PUSH1 0xE0 SHR DUP1 PUSH4 0x84D0CBE3 GT PUSH2 0xB8 JUMPI DUP1 PUSH4 0xD5B03649 GT PUSH2 0x7C JUMPI DUP1 PUSH4 0xD5B03649 EQ PUSH2 0x3BC JUMPI DUP1 PUSH4 0xE86C24F9 EQ PUSH2 0x3EC JUMPI DUP1 PUSH4 0xEC3140A3 EQ PUSH2 0x41C JUMPI DUP1 PUSH4 0xF9819D8E EQ PUSH2 0x438 JUMPI DUP1 PUSH4 0xF9AB2EFF EQ PUSH2 0x468 JUMPI DUP1 PUSH4 0xFADD65C3 EQ PUSH2 0x484 JUMPI PUSH2 0x137 JUMP JUMPDEST DUP1 PUSH4 0x84D0CBE3 EQ PUSH2 0x2F4 JUMPI DUP1 PUSH4 0x9457740A EQ PUSH2 0x310 JUMPI DUP1 PUSH4 0x9D58B15D EQ PUSH2 0x340 JUMPI DUP1 PUSH4 0xAC4AFA38 EQ PUSH2 0x35C JUMPI DUP1 PUSH4 0xBA63A9F0 EQ PUSH2 0x38C JUMPI PUSH2 0x137 JUMP JUMPDEST DUP1 PUSH4 0x6997B953 GT PUSH2 0xFF JUMPI DUP1 PUSH4 0x6997B953 EQ PUSH2 0x218 JUMPI DUP1 PUSH4 0x6C607516 EQ PUSH2 0x248 JUMPI DUP1 PUSH4 0x6E7F56F8 EQ PUSH2 0x278 JUMPI DUP1 PUSH4 0x75838862 EQ PUSH2 0x2A8 JUMPI DUP1 PUSH4 0x7A9B7C35 EQ PUSH2 0x2D8 JUMPI PUSH2 0x137 JUMP JUMPDEST DUP1 PUSH4 0x1875C639 EQ PUSH2 0x13C JUMPI DUP1 PUSH4 0x39AC7A08 EQ PUSH2 0x16C JUMPI DUP1 PUSH4 0x3A685930 EQ PUSH2 0x19C JUMPI DUP1 PUSH4 0x4C2587D4 EQ PUSH2 0x1CC JUMPI DUP1 PUSH4 0x57B70767 EQ PUSH2 0x1E8 JUMPI JUMPDEST PUSH1 0x0 DUP1 REVERT JUMPDEST PUSH2 0x156 PUSH1 0x4 DUP1 CALLDATASIZE SUB DUP2 ADD SWAP1 PUSH2 0x151 SWAP2 SWAP1 PUSH2 0x144A JUMP JUMPDEST PUSH2 0x4B4 JUMP JUMPDEST PUSH1 0x40 MLOAD PUSH2 0x163 SWAP2 SWAP1 PUSH2 0x1499 JUMP JUMPDEST PUSH1 0x40 MLOAD DUP1 SWAP2 SUB SWAP1 RETURN JUMPDEST PUSH2 0x186 PUSH1 0x4 DUP1 CALLDATASIZE SUB DUP2 ADD SWAP1 PUSH2 0x181 SWAP2 SWAP1 PUSH2 0x14B4 JUMP JUMPDEST PUSH2 0x502 JUMP JUMPDEST PUSH1 0x40 MLOAD PUSH2 0x193 SWAP2 SWAP1 PUSH2 0x150F JUMP JUMPDEST PUSH1 0x40 MLOAD DUP1 SWAP2 SUB SWAP1 RETURN JUMPDEST PUSH2 0x1B6 PUSH1 0x4 DUP1 CALLDATASIZE SUB DUP2 ADD SWAP1 PUSH2 0x1B1 SWAP2 SWAP1 PUSH2 0x14B4 JUMP JUMPDEST PUSH2 0x595 JUMP JUMPDEST PUSH1 0x40 MLOAD PUSH2 0x1C3 SWAP2 SWAP1 PUSH2 0x150F JUMP JUMPDEST PUSH1 0x40 MLOAD DUP1 SWAP2 SUB SWAP1 RETURN JUMPDEST PUSH2 0x1E6 PUSH1 0x4 DUP1 CALLDATASIZE SUB DUP2 ADD SWAP1 PUSH2 0x1E1 SWAP2 SWAP1 PUSH2 0x14B4 JUMP JUMPDEST PUSH2 0x5C4 JUMP JUMPDEST STOP JUMPDEST PUSH2 0x202 PUSH1 0x4 DUP1 CALLDATASIZE SUB DUP2 ADD SWAP1 PUSH2 0x1FD SWAP2 SWAP1 PUSH2 0x144A JUMP JUMPDEST PUSH2 0x668 JUMP JUMPDEST PUSH1 0x40 MLOAD PUSH2 0x20F SWAP2 SWAP1 PUSH2 0x1499 JUMP JUMPDEST PUSH1 0x40 MLOAD DUP1 SWAP2 SUB SWAP1 RETURN JUMPDEST PUSH2 0x232 PUSH1 0x4 DUP1 CALLDATASIZE SUB DUP2 ADD SWAP1 PUSH2 0x22D SWAP2 SWAP1 PUSH2 0x152A JUMP JUMPDEST PUSH2 0x6B6 JUMP JUMPDEST PUSH1 0x40 MLOAD PUSH2 0x23F SWAP2 SWAP1 PUSH2 0x1615 JUMP JUMPDEST PUSH1 0x40 MLOAD DUP1 SWAP2 SUB SWAP1 RETURN JUMPDEST PUSH2 0x262 PUSH1 0x4 DUP1 CALLDATASIZE SUB DUP2 ADD SWAP1 PUSH2 0x25D SWAP2 SWAP1 PUSH2 0x144A JUMP JUMPDEST PUSH2 0x783 JUMP JUMPDEST PUSH1 0x40 MLOAD PUSH2 0x26F SWAP2 SWAP1 PUSH2 0x1499 JUMP JUMPDEST PUSH1 0x40 MLOAD DUP1 SWAP2 SUB SWAP1 RETURN JUMPDEST PUSH2 0x292 PUSH1 0x4 DUP1 CALLDATASIZE SUB DUP2 ADD SWAP1 PUSH2 0x28D SWAP2 SWAP1 PUSH2 0x14B4 JUMP JUMPDEST PUSH2 0x7D1 JUMP JUMPDEST PUSH1 0x40 MLOAD PUSH2 0x29F SWAP2 SWAP1 PUSH2 0x150F JUMP JUMPDEST PUSH1 0x40 MLOAD DUP1 SWAP2 SUB SWAP1 RETURN JUMPDEST PUSH2 0x2C2 PUSH1 0x4 DUP1 CALLDATASIZE SUB DUP2 ADD SWAP1 PUSH2 0x2BD SWAP2 SWAP1 PUSH2 0x152A JUMP JUMPDEST PUSH2 0x800 JUMP JUMPDEST PUSH1 0x40 MLOAD PUSH2 0x2CF SWAP2 SWAP1 PUSH2 0x150F JUMP JUMPDEST PUSH1 0x40 MLOAD DUP1 SWAP2 SUB SWAP1 RETURN JUMPDEST PUSH2 0x2F2 PUSH1 0x4 DUP1 CALLDATASIZE SUB DUP2 ADD SWAP1 PUSH2 0x2ED SWAP2 SWAP1 PUSH2 0x1637 JUMP JUMPDEST PUSH2 0x84E JUMP JUMPDEST STOP JUMPDEST PUSH2 0x30E PUSH1 0x4 DUP1 CALLDATASIZE SUB DUP2 ADD SWAP1 PUSH2 0x309 SWAP2 SWAP1 PUSH2 0x144A JUMP JUMPDEST PUSH2 0x9B6 JUMP JUMPDEST STOP JUMPDEST PUSH2 0x32A PUSH1 0x4 DUP1 CALLDATASIZE SUB DUP2 ADD SWAP1 PUSH2 0x325 SWAP2 SWAP1 PUSH2 0x14B4 JUMP JUMPDEST PUSH2 0xC26 JUMP JUMPDEST PUSH1 0x40 MLOAD PUSH2 0x337 SWAP2 SWAP1 PUSH2 0x150F JUMP JUMPDEST PUSH1 0x40 MLOAD DUP1 SWAP2 SUB SWAP1 RETURN JUMPDEST PUSH2 0x35A PUSH1 0x4 DUP1 CALLDATASIZE SUB DUP2 ADD SWAP1 PUSH2 0x355 SWAP2 SWAP1 PUSH2 0x14B4 JUMP JUMPDEST PUSH2 0xCBA JUMP JUMPDEST STOP JUMPDEST PUSH2 0x376 PUSH1 0x4 DUP1 CALLDATASIZE SUB DUP2 ADD SWAP1 PUSH2 0x371 SWAP2 SWAP1 PUSH2 0x1637 JUMP JUMPDEST PUSH2 0xDF2 JUMP JUMPDEST PUSH1 0x40 MLOAD PUSH2 0x383 SWAP2 SWAP1 PUSH2 0x1499 JUMP JUMPDEST PUSH1 0x40 MLOAD DUP1 SWAP2 SUB SWAP1 RETURN JUMPDEST PUSH2 0x3A6 PUSH1 0x4 DUP1 CALLDATASIZE SUB DUP2 ADD SWAP1 PUSH2 0x3A1 SWAP2 SWAP1 PUSH2 0x14B4 JUMP JUMPDEST PUSH2 0xE31 JUMP JUMPDEST PUSH1 0x40 MLOAD PUSH2 0x3B3 SWAP2 SWAP1 PUSH2 0x150F JUMP JUMPDEST PUSH1 0x40 MLOAD DUP1 SWAP2 SUB SWAP1 RETURN JUMPDEST PUSH2 0x3D6 PUSH1 0x4 DUP1 CALLDATASIZE SUB DUP2 ADD SWAP1 PUSH2 0x3D1 SWAP2 SWAP1 PUSH2 0x14B4 JUMP JUMPDEST PUSH2 0xE60 JUMP JUMPDEST PUSH1 0x40 MLOAD PUSH2 0x3E3 SWAP2 SWAP1 PUSH2 0x150F JUMP JUMPDEST PUSH1 0x40 MLOAD DUP1 SWAP2 SUB SWAP1 RETURN JUMPDEST PUSH2 0x406 PUSH1 0x4 DUP1 CALLDATASIZE SUB DUP2 ADD SWAP1 PUSH2 0x401 SWAP2 SWAP1 PUSH2 0x152A JUMP JUMPDEST PUSH2 0xEF4 JUMP JUMPDEST PUSH1 0x40 MLOAD PUSH2 0x413 SWAP2 SWAP1 PUSH2 0x1615 JUMP JUMPDEST PUSH1 0x40 MLOAD DUP1 SWAP2 SUB SWAP1 RETURN JUMPDEST PUSH2 0x436 PUSH1 0x4 DUP1 CALLDATASIZE SUB DUP2 ADD SWAP1 PUSH2 0x431 SWAP2 SWAP1 PUSH2 0x14B4 JUMP JUMPDEST PUSH2 0xFC1 JUMP JUMPDEST STOP JUMPDEST PUSH2 0x452 PUSH1 0x4 DUP1 CALLDATASIZE SUB DUP2 ADD SWAP1 PUSH2 0x44D SWAP2 SWAP1 PUSH2 0x144A JUMP JUMPDEST PUSH2 0x115D JUMP JUMPDEST PUSH1 0x40 MLOAD PUSH2 0x45F SWAP2 SWAP1 PUSH2 0x1499 JUMP JUMPDEST PUSH1 0x40 MLOAD DUP1 SWAP2 SUB SWAP1 RETURN JUMPDEST PUSH2 0x482 PUSH1 0x4 DUP1 CALLDATASIZE SUB DUP2 ADD SWAP1 PUSH2 0x47D SWAP2 SWAP1 PUSH2 0x14B4 JUMP JUMPDEST PUSH2 0x11AB JUMP JUMPDEST STOP JUMPDEST PUSH2 0x49E PUSH1 0x4 DUP1 CALLDATASIZE SUB DUP2 ADD SWAP1 PUSH2 0x499 SWAP2 SWAP1 PUSH2 0x152A JUMP JUMPDEST PUSH2 0x12E4 JUMP JUMPDEST PUSH1 0x40 MLOAD PUSH2 0x4AB SWAP2 SWAP1 PUSH2 0x1615 JUMP JUMPDEST PUSH1 0x40 MLOAD DUP1 SWAP2 SUB SWAP1 RETURN JUMPDEST PUSH1 0x2 PUSH1 0x20 MSTORE DUP2 PUSH1 0x0 MSTORE PUSH1 0x40 PUSH1 0x0 KECCAK256 DUP2 DUP2 SLOAD DUP2 LT PUSH2 0x4D0 JUMPI PUSH1 0x0 DUP1 REVERT JUMPDEST SWAP1 PUSH1 0x0 MSTORE PUSH1 0x20 PUSH1 0x0 KECCAK256 ADD PUSH1 0x0 SWAP2 POP SWAP2 POP SWAP1 SLOAD SWAP1 PUSH2 0x100 EXP SWAP1 DIV PUSH20 0xFFFFFFFFFFFFFFFFFFFFFFFFFFFFFFFFFFFFFFFF AND DUP2 JUMP JUMPDEST PUSH1 0x0 DUP1 PUSH1 0x0 DUP5 PUSH20 0xFFFFFFFFFFFFFFFFFFFFFFFFFFFFFFFFFFFFFFFF AND PUSH20 0xFFFFFFFFFFFFFFFFFFFFFFFFFFFFFFFFFFFFFFFF AND DUP2 MSTORE PUSH1 0x20 ADD SWAP1 DUP2 MSTORE PUSH1 0x20 ADD PUSH1 0x0 KECCAK256 PUSH1 0x0 DUP4 PUSH20 0xFFFFFFFFFFFFFFFFFFFFFFFFFFFFFFFFFFFFFFFF AND PUSH20 0xFFFFFFFFFFFFFFFFFFFFFFFFFFFFFFFFFFFFFFFF AND DUP2 MSTORE PUSH1 0x20 ADD SWAP1 DUP2 MSTORE PUSH1 0x20 ADD PUSH1 0x0 KECCAK256 PUSH1 0x0 SWAP1 SLOAD SWAP1 PUSH2 0x100 EXP SWAP1 DIV PUSH1 0xFF AND SWAP1 POP SWAP3 SWAP2 POP POP JUMP JUMPDEST PUSH1 0x0 PUSH1 0x20 MSTORE DUP2 PUSH1 0x0 MSTORE PUSH1 0x40 PUSH1 0x0 KECCAK256 PUSH1 0x20 MSTORE DUP1 PUSH1 0x0 MSTORE PUSH1 0x40 PUSH1 0x0 KECCAK256 PUSH1 0x0 SWAP2 POP SWAP2 POP SWAP1 SLOAD SWAP1 PUSH2 0x100 EXP SWAP1 DIV PUSH1 0xFF AND DUP2 JUMP JUMPDEST PUSH1 0x2 PUSH1 0x0 DUP4 PUSH20 0xFFFFFFFFFFFFFFFFFFFFFFFFFFFFFFFFFFFFFFFF AND PUSH20 0xFFFFFFFFFFFFFFFFFFFFFFFFFFFFFFFFFFFFFFFF AND DUP2 MSTORE PUSH1 0x20 ADD SWAP1 DUP2 MSTORE PUSH1 0x20 ADD PUSH1 0x0 KECCAK256 DUP2 SWAP1 DUP1 PUSH1 0x1 DUP2 SLOAD ADD DUP1 DUP3 SSTORE DUP1 SWAP2 POP POP PUSH1 0x1 SWAP1 SUB SWAP1 PUSH1 0x0 MSTORE PUSH1 0x20 PUSH1 0x0 KECCAK256 ADD PUSH1 0x0 SWAP1 SWAP2 SWAP1 SWAP2 SWAP1 SWAP2 PUSH2 0x100 EXP DUP2 SLOAD DUP2 PUSH20 0xFFFFFFFFFFFFFFFFFFFFFFFFFFFFFFFFFFFFFFFF MUL NOT AND SWAP1 DUP4 PUSH20 0xFFFFFFFFFFFFFFFFFFFFFFFFFFFFFFFFFFFFFFFF AND MUL OR SWAP1 SSTORE POP POP POP JUMP JUMPDEST PUSH1 0x1 PUSH1 0x20 MSTORE DUP2 PUSH1 0x0 MSTORE PUSH1 0x40 PUSH1 0x0 KECCAK256 DUP2 DUP2 SLOAD DUP2 LT PUSH2 0x684 JUMPI PUSH1 0x0 DUP1 REVERT JUMPDEST SWAP1 PUSH1 0x0 MSTORE PUSH1 0x20 PUSH1 0x0 KECCAK256 ADD PUSH1 0x0 SWAP2 POP SWAP2 POP SWAP1 SLOAD SWAP1 PUSH2 0x100 EXP SWAP1 DIV PUSH20 0xFFFFFFFFFFFFFFFFFFFFFFFFFFFFFFFFFFFFFFFF AND DUP2 JUMP JUMPDEST PUSH1 0x60 PUSH1 0x4 PUSH1 0x0 DUP4 PUSH20 0xFFFFFFFFFFFFFFFFFFFFFFFFFFFFFFFFFFFFFFFF AND PUSH20 0xFFFFFFFFFFFFFFFFFFFFFFFFFFFFFFFFFFFFFFFF AND DUP2 MSTORE PUSH1 0x20 ADD SWAP1 DUP2 MSTORE PUSH1 0x20 ADD PUSH1 0x0 KECCAK256 DUP1 SLOAD DUP1 PUSH1 0x20 MUL PUSH1 0x20 ADD PUSH1 0x40 MLOAD SWAP1 DUP2 ADD PUSH1 0x40 MSTORE DUP1 SWAP3 SWAP2 SWAP1 DUP2 DUP2 MSTORE PUSH1 0x20 ADD DUP3 DUP1 SLOAD DUP1 ISZERO PUSH2 0x777 JUMPI PUSH1 0x20 MUL DUP3 ADD SWAP2 SWAP1 PUSH1 0x0 MSTORE PUSH1 0x20 PUSH1 0x0 KECCAK256 SWAP1 JUMPDEST DUP2 PUSH1 0x0 SWAP1 SLOAD SWAP1 PUSH2 0x100 EXP SWAP1 DIV PUSH20 0xFFFFFFFFFFFFFFFFFFFFFFFFFFFFFFFFFFFFFFFF AND PUSH20 0xFFFFFFFFFFFFFFFFFFFFFFFFFFFFFFFFFFFFFFFF AND DUP2 MSTORE PUSH1 0x20 ADD SWAP1 PUSH1 0x1 ADD SWAP1 DUP1 DUP4 GT PUSH2 0x72D JUMPI JUMPDEST POP POP POP POP POP SWAP1 POP SWAP2 SWAP1 POP JUMP JUMPDEST PUSH1 0x4 PUSH1 0x20 MSTORE DUP2 PUSH1 0x0 MSTORE PUSH1 0x40 PUSH1 0x0 KECCAK256 DUP2 DUP2 SLOAD DUP2 LT PUSH2 0x79F JUMPI PUSH1 0x0 DUP1 REVERT JUMPDEST SWAP1 PUSH1 0x0 MSTORE PUSH1 0x20 PUSH1 0x0 KECCAK256 ADD PUSH1 0x0 SWAP2 POP SWAP2 POP SWAP1 SLOAD SWAP1 PUSH2 0x100 EXP SWAP1 DIV PUSH20 0xFFFFFFFFFFFFFFFFFFFFFFFFFFFFFFFFFFFFFFFF AND DUP2 JUMP JUMPDEST PUSH1 0x3 PUSH1 0x20 MSTORE DUP2 PUSH1 0x0 MSTORE PUSH1 0x40 PUSH1 0x0 KECCAK256 PUSH1 0x20 MSTORE DUP1 PUSH1 0x0 MSTORE PUSH1 0x40 PUSH1 0x0 KECCAK256 PUSH1 0x0 SWAP2 POP SWAP2 POP SWAP1 SLOAD SWAP1 PUSH2 0x100 EXP SWAP1 DIV PUSH1 0xFF AND DUP2 JUMP JUMPDEST PUSH1 0x0 DUP1 PUSH1 0x1 PUSH1 0x0 DUP5 PUSH20 0xFFFFFFFFFFFFFFFFFFFFFFFFFFFFFFFFFFFFFFFF AND PUSH20 0xFFFFFFFFFFFFFFFFFFFFFFFFFFFFFFFFFFFFFFFF AND DUP2 MSTORE PUSH1 0x20 ADD SWAP1 DUP2 MSTORE PUSH1 0x20 ADD PUSH1 0x0 KECCAK256 DUP1 SLOAD SWAP1 POP GT SWAP1 POP SWAP2 SWAP1 POP JUMP JUMPDEST PUSH1 0x7 DUP1 SLOAD SWAP1 POP DUP2 GT PUSH2 0x85F JUMPI PUSH1 0x0 DUP1 REVERT JUMPDEST PUSH1 0x0 PUSH1 0x7 DUP3 DUP2 SLOAD DUP2 LT PUSH2 0x875 JUMPI PUSH2 0x874 PUSH2 0x1664 JUMP JUMPDEST JUMPDEST SWAP1 PUSH1 0x0 MSTORE PUSH1 0x20 PUSH1 0x0 KECCAK256 ADD PUSH1 0x0 SWAP1 SLOAD SWAP1 PUSH2 0x100 EXP SWAP1 DIV PUSH20 0xFFFFFFFFFFFFFFFFFFFFFFFFFFFFFFFFFFFFFFFF AND SWAP1 POP PUSH1 0x7 PUSH1 0x1 DUP4 PUSH2 0x8B1 SWAP2 SWAP1 PUSH2 0x16C2 JUMP JUMPDEST DUP2 SLOAD DUP2 LT PUSH2 0x8C2 JUMPI PUSH2 0x8C1 PUSH2 0x1664 JUMP JUMPDEST JUMPDEST SWAP1 PUSH1 0x0 MSTORE PUSH1 0x20 PUSH1 0x0 KECCAK256 ADD PUSH1 0x0 SWAP1 SLOAD SWAP1 PUSH2 0x100 EXP SWAP1 DIV PUSH20 0xFFFFFFFFFFFFFFFFFFFFFFFFFFFFFFFFFFFFFFFF AND PUSH1 0x7 DUP4 DUP2 SLOAD DUP2 LT PUSH2 0x901 JUMPI PUSH2 0x900 PUSH2 0x1664 JUMP JUMPDEST JUMPDEST SWAP1 PUSH1 0x0 MSTORE PUSH1 0x20 PUSH1 0x0 KECCAK256 ADD PUSH1 0x0 PUSH2 0x100 EXP DUP2 SLOAD DUP2 PUSH20 0xFFFFFFFFFFFFFFFFFFFFFFFFFFFFFFFFFFFFFFFF MUL NOT AND SWAP1 DUP4 PUSH20 0xFFFFFFFFFFFFFFFFFFFFFFFFFFFFFFFFFFFFFFFF AND MUL OR SWAP1 SSTORE POP DUP1 PUSH1 0x7 PUSH1 0x1 DUP5 PUSH2 0x959 SWAP2 SWAP1 PUSH2 0x16C2 JUMP JUMPDEST DUP2 SLOAD DUP2 LT PUSH2 0x96A JUMPI PUSH2 0x969 PUSH2 0x1664 JUMP JUMPDEST JUMPDEST SWAP1 PUSH1 0x0 MSTORE PUSH1 0x20 PUSH1 0x0 KECCAK256 ADD PUSH1 0x0 PUSH2 0x100 EXP DUP2 SLOAD DUP2 PUSH20 0xFFFFFFFFFFFFFFFFFFFFFFFFFFFFFFFFFFFFFFFF MUL NOT AND SWAP1 DUP4 PUSH20 0xFFFFFFFFFFFFFFFFFFFFFFFFFFFFFFFFFFFFFFFF AND MUL OR SWAP1 SSTORE POP POP POP JUMP JUMPDEST DUP1 PUSH1 0x2 PUSH1 0x0 DUP5 PUSH20 0xFFFFFFFFFFFFFFFFFFFFFFFFFFFFFFFFFFFFFFFF AND PUSH20 0xFFFFFFFFFFFFFFFFFFFFFFFFFFFFFFFFFFFFFFFF AND DUP2 MSTORE PUSH1 0x20 ADD SWAP1 DUP2 MSTORE PUSH1 0x20 ADD PUSH1 0x0 KECCAK256 DUP1 SLOAD SWAP1 POP LT ISZERO PUSH2 0xA3B JUMPI PUSH1 0x40 MLOAD PUSH32 0x8C379A000000000000000000000000000000000000000000000000000000000 DUP2 MSTORE PUSH1 0x4 ADD PUSH2 0xA32 SWAP1 PUSH2 0x1753 JUMP JUMPDEST PUSH1 0x40 MLOAD DUP1 SWAP2 SUB SWAP1 REVERT JUMPDEST PUSH1 0x2 PUSH1 0x0 DUP4 PUSH20 0xFFFFFFFFFFFFFFFFFFFFFFFFFFFFFFFFFFFFFFFF AND PUSH20 0xFFFFFFFFFFFFFFFFFFFFFFFFFFFFFFFFFFFFFFFF AND DUP2 MSTORE PUSH1 0x20 ADD SWAP1 DUP2 MSTORE PUSH1 0x20 ADD PUSH1 0x0 KECCAK256 PUSH1 0x1 PUSH1 0x2 PUSH1 0x0 DUP6 PUSH20 0xFFFFFFFFFFFFFFFFFFFFFFFFFFFFFFFFFFFFFFFF AND PUSH20 0xFFFFFFFFFFFFFFFFFFFFFFFFFFFFFFFFFFFFFFFF AND DUP2 MSTORE PUSH1 0x20 ADD SWAP1 DUP2 MSTORE PUSH1 0x20 ADD PUSH1 0x0 KECCAK256 DUP1 SLOAD SWAP1 POP PUSH2 0xAC9 SWAP2 SWAP1 PUSH2 0x1773 JUMP JUMPDEST DUP2 SLOAD DUP2 LT PUSH2 0xADA JUMPI PUSH2 0xAD9 PUSH2 0x1664 JUMP JUMPDEST JUMPDEST SWAP1 PUSH1 0x0 MSTORE PUSH1 0x20 PUSH1 0x0 KECCAK256 ADD PUSH1 0x0 SWAP1 SLOAD SWAP1 PUSH2 0x100 EXP SWAP1 DIV PUSH20 0xFFFFFFFFFFFFFFFFFFFFFFFFFFFFFFFFFFFFFFFF AND PUSH1 0x2 PUSH1 0x0 DUP5 PUSH20 0xFFFFFFFFFFFFFFFFFFFFFFFFFFFFFFFFFFFFFFFF AND PUSH20 0xFFFFFFFFFFFFFFFFFFFFFFFFFFFFFFFFFFFFFFFF AND DUP2 MSTORE PUSH1 0x20 ADD SWAP1 DUP2 MSTORE PUSH1 0x20 ADD PUSH1 0x0 KECCAK256 DUP3 DUP2 SLOAD DUP2 LT PUSH2 0xB56 JUMPI PUSH2 0xB55 PUSH2 0x1664 JUMP JUMPDEST JUMPDEST SWAP1 PUSH1 0x0 MSTORE PUSH1 0x20 PUSH1 0x0 KECCAK256 ADD PUSH1 0x0 PUSH2 0x100 EXP DUP2 SLOAD DUP2 PUSH20 0xFFFFFFFFFFFFFFFFFFFFFFFFFFFFFFFFFFFFFFFF MUL NOT AND SWAP1 DUP4 PUSH20 0xFFFFFFFFFFFFFFFFFFFFFFFFFFFFFFFFFFFFFFFF AND MUL OR SWAP1 SSTORE POP PUSH1 0x2 PUSH1 0x0 DUP4 PUSH20 0xFFFFFFFFFFFFFFFFFFFFFFFFFFFFFFFFFFFFFFFF AND PUSH20 0xFFFFFFFFFFFFFFFFFFFFFFFFFFFFFFFFFFFFFFFF AND DUP2 MSTORE PUSH1 0x20 ADD SWAP1 DUP2 MSTORE PUSH1 0x20 ADD PUSH1 0x0 KECCAK256 DUP1 SLOAD DUP1 PUSH2 0xBED JUMPI PUSH2 0xBEC PUSH2 0x17A7 JUMP JUMPDEST JUMPDEST PUSH1 0x1 SWAP1 SUB DUP2 DUP2 SWAP1 PUSH1 0x0 MSTORE PUSH1 0x20 PUSH1 0x0 KECCAK256 ADD PUSH1 0x0 PUSH2 0x100 EXP DUP2 SLOAD SWAP1 PUSH20 0xFFFFFFFFFFFFFFFFFFFFFFFFFFFFFFFFFFFFFFFF MUL NOT AND SWAP1 SSTORE SWAP1 SSTORE POP POP JUMP JUMPDEST PUSH1 0x0 PUSH1 0x3 PUSH1 0x0 DUP5 PUSH20 0xFFFFFFFFFFFFFFFFFFFFFFFFFFFFFFFFFFFFFFFF AND PUSH20 0xFFFFFFFFFFFFFFFFFFFFFFFFFFFFFFFFFFFFFFFF AND DUP2 MSTORE PUSH1 0x20 ADD SWAP1 DUP2 MSTORE PUSH1 0x20 ADD PUSH1 0x0 KECCAK256 PUSH1 0x0 DUP4 PUSH20 0xFFFFFFFFFFFFFFFFFFFFFFFFFFFFFFFFFFFFFFFF AND PUSH20 0xFFFFFFFFFFFFFFFFFFFFFFFFFFFFFFFFFFFFFFFF AND DUP2 MSTORE PUSH1 0x20 ADD SWAP1 DUP2 MSTORE PUSH1 0x20 ADD PUSH1 0x0 KECCAK256 PUSH1 0x0 SWAP1 SLOAD SWAP1 PUSH2 0x100 EXP SWAP1 DIV PUSH1 0xFF AND SWAP1 POP SWAP3 SWAP2 POP POP JUMP JUMPDEST PUSH1 0x1 PUSH1 0x0 DUP1 DUP4 PUSH20 0xFFFFFFFFFFFFFFFFFFFFFFFFFFFFFFFFFFFFFFFF AND PUSH20 0xFFFFFFFFFFFFFFFFFFFFFFFFFFFFFFFFFFFFFFFF AND DUP2 MSTORE PUSH1 0x20 ADD SWAP1 DUP2 MSTORE PUSH1 0x20 ADD PUSH1 0x0 KECCAK256 PUSH1 0x0 DUP5 PUSH20 0xFFFFFFFFFFFFFFFFFFFFFFFFFFFFFFFFFFFFFFFF AND PUSH20 0xFFFFFFFFFFFFFFFFFFFFFFFFFFFFFFFFFFFFFFFF AND DUP2 MSTORE PUSH1 0x20 ADD SWAP1 DUP2 MSTORE PUSH1 0x20 ADD PUSH1 0x0 KECCAK256 PUSH1 0x0 PUSH2 0x100 EXP DUP2 SLOAD DUP2 PUSH1 0xFF MUL NOT AND SWAP1 DUP4 ISZERO ISZERO MUL OR SWAP1 SSTORE POP PUSH1 0x1 PUSH1 0x0 DUP3 PUSH20 0xFFFFFFFFFFFFFFFFFFFFFFFFFFFFFFFFFFFFFFFF AND PUSH20 0xFFFFFFFFFFFFFFFFFFFFFFFFFFFFFFFFFFFFFFFF AND DUP2 MSTORE PUSH1 0x20 ADD SWAP1 DUP2 MSTORE PUSH1 0x20 ADD PUSH1 0x0 KECCAK256 DUP3 SWAP1 DUP1 PUSH1 0x1 DUP2 SLOAD ADD DUP1 DUP3 SSTORE DUP1 SWAP2 POP POP PUSH1 0x1 SWAP1 SUB SWAP1 PUSH1 0x0 MSTORE PUSH1 0x20 PUSH1 0x0 KECCAK256 ADD PUSH1 0x0 SWAP1 SWAP2 SWAP1 SWAP2 SWAP1 SWAP2 PUSH2 0x100 EXP DUP2 SLOAD DUP2 PUSH20 0xFFFFFFFFFFFFFFFFFFFFFFFFFFFFFFFFFFFFFFFF MUL NOT AND SWAP1 DUP4 PUSH20 0xFFFFFFFFFFFFFFFFFFFFFFFFFFFFFFFFFFFFFFFF AND MUL OR SWAP1 SSTORE POP POP POP JUMP JUMPDEST PUSH1 0x7 DUP2 DUP2 SLOAD DUP2 LT PUSH2 0xE02 JUMPI PUSH1 0x0 DUP1 REVERT JUMPDEST SWAP1 PUSH1 0x0 MSTORE PUSH1 0x20 PUSH1 0x0 KECCAK256 ADD PUSH1 0x0 SWAP2 POP SLOAD SWAP1 PUSH2 0x100 EXP SWAP1 DIV PUSH20 0xFFFFFFFFFFFFFFFFFFFFFFFFFFFFFFFFFFFFFFFF AND DUP2 JUMP JUMPDEST PUSH1 0x5 PUSH1 0x20 MSTORE DUP2 PUSH1 0x0 MSTORE PUSH1 0x40 PUSH1 0x0 KECCAK256 PUSH1 0x20 MSTORE DUP1 PUSH1 0x0 MSTORE PUSH1 0x40 PUSH1 0x0 KECCAK256 PUSH1 0x0 SWAP2 POP SWAP2 POP SWAP1 SLOAD SWAP1 PUSH2 0x100 EXP SWAP1 DIV PUSH1 0xFF AND DUP2 JUMP JUMPDEST PUSH1 0x0 PUSH1 0x3 PUSH1 0x0 DUP5 PUSH20 0xFFFFFFFFFFFFFFFFFFFFFFFFFFFFFFFFFFFFFFFF AND PUSH20 0xFFFFFFFFFFFFFFFFFFFFFFFFFFFFFFFFFFFFFFFF AND DUP2 MSTORE PUSH1 0x20 ADD SWAP1 DUP2 MSTORE PUSH1 0x20 ADD PUSH1 0x0 KECCAK256 PUSH1 0x0 DUP4 PUSH20 0xFFFFFFFFFFFFFFFFFFFFFFFFFFFFFFFFFFFFFFFF AND PUSH20 0xFFFFFFFFFFFFFFFFFFFFFFFFFFFFFFFFFFFFFFFF AND DUP2 MSTORE PUSH1 0x20 ADD SWAP1 DUP2 MSTORE PUSH1 0x20 ADD PUSH1 0x0 KECCAK256 PUSH1 0x0 SWAP1 SLOAD SWAP1 PUSH2 0x100 EXP SWAP1 DIV PUSH1 0xFF AND SWAP1 POP SWAP3 SWAP2 POP POP JUMP JUMPDEST PUSH1 0x60 PUSH1 0x6 PUSH1 0x0 DUP4 PUSH20 0xFFFFFFFFFFFFFFFFFFFFFFFFFFFFFFFFFFFFFFFF AND PUSH20 0xFFFFFFFFFFFFFFFFFFFFFFFFFFFFFFFFFFFFFFFF AND DUP2 MSTORE PUSH1 0x20 ADD SWAP1 DUP2 MSTORE PUSH1 0x20 ADD PUSH1 0x0 KECCAK256 DUP1 SLOAD DUP1 PUSH1 0x20 MUL PUSH1 0x20 ADD PUSH1 0x40 MLOAD SWAP1 DUP2 ADD PUSH1 0x40 MSTORE DUP1 SWAP3 SWAP2 SWAP1 DUP2 DUP2 MSTORE PUSH1 0x20 ADD DUP3 DUP1 SLOAD DUP1 ISZERO PUSH2 0xFB5 JUMPI PUSH1 0x20 MUL DUP3 ADD SWAP2 SWAP1 PUSH1 0x0 MSTORE PUSH1 0x20 PUSH1 0x0 KECCAK256 SWAP1 JUMPDEST DUP2 PUSH1 0x0 SWAP1 SLOAD SWAP1 PUSH2 0x100 EXP SWAP1 DIV PUSH20 0xFFFFFFFFFFFFFFFFFFFFFFFFFFFFFFFFFFFFFFFF AND PUSH20 0xFFFFFFFFFFFFFFFFFFFFFFFFFFFFFFFFFFFFFFFF AND DUP2 MSTORE PUSH1 0x20 ADD SWAP1 PUSH1 0x1 ADD SWAP1 DUP1 DUP4 GT PUSH2 0xF6B JUMPI JUMPDEST POP POP POP POP POP SWAP1 POP SWAP2 SWAP1 POP JUMP JUMPDEST PUSH1 0x1 PUSH1 0x5 PUSH1 0x0 DUP5 PUSH20 0xFFFFFFFFFFFFFFFFFFFFFFFFFFFFFFFFFFFFFFFF AND PUSH20 0xFFFFFFFFFFFFFFFFFFFFFFFFFFFFFFFFFFFFFFFF AND DUP2 MSTORE PUSH1 0x20 ADD SWAP1 DUP2 MSTORE PUSH1 0x20 ADD PUSH1 0x0 KECCAK256 PUSH1 0x0 DUP4 PUSH20 0xFFFFFFFFFFFFFFFFFFFFFFFFFFFFFFFFFFFFFFFF AND PUSH20 0xFFFFFFFFFFFFFFFFFFFFFFFFFFFFFFFFFFFFFFFF AND DUP2 MSTORE PUSH1 0x20 ADD SWAP1 DUP2 MSTORE PUSH1 0x20 ADD PUSH1 0x0 KECCAK256 PUSH1 0x0 PUSH2 0x100 EXP DUP2 SLOAD DUP2 PUSH1 0xFF MUL NOT AND SWAP1 DUP4 ISZERO ISZERO MUL OR SWAP1 SSTORE POP PUSH1 0x6 PUSH1 0x0 DUP4 PUSH20 0xFFFFFFFFFFFFFFFFFFFFFFFFFFFFFFFFFFFFFFFF AND PUSH20 0xFFFFFFFFFFFFFFFFFFFFFFFFFFFFFFFFFFFFFFFF AND DUP2 MSTORE PUSH1 0x20 ADD SWAP1 DUP2 MSTORE PUSH1 0x20 ADD PUSH1 0x0 KECCAK256 DUP2 SWAP1 DUP1 PUSH1 0x1 DUP2 SLOAD ADD DUP1 DUP3 SSTORE DUP1 SWAP2 POP POP PUSH1 0x1 SWAP1 SUB SWAP1 PUSH1 0x0 MSTORE PUSH1 0x20 PUSH1 0x0 KECCAK256 ADD PUSH1 0x0 SWAP1 SWAP2 SWAP1 SWAP2 SWAP1 SWAP2 PUSH2 0x100 EXP DUP2 SLOAD DUP2 PUSH20 0xFFFFFFFFFFFFFFFFFFFFFFFFFFFFFFFFFFFFFFFF MUL NOT AND SWAP1 DUP4 PUSH20 0xFFFFFFFFFFFFFFFFFFFFFFFFFFFFFFFFFFFFFFFF AND MUL OR SWAP1 SSTORE POP PUSH1 0x7 DUP2 SWAP1 DUP1 PUSH1 0x1 DUP2 SLOAD ADD DUP1 DUP3 SSTORE DUP1 SWAP2 POP POP PUSH1 0x1 SWAP1 SUB SWAP1 PUSH1 0x0 MSTORE PUSH1 0x20 PUSH1 0x0 KECCAK256 ADD PUSH1 0x0 SWAP1 SWAP2 SWAP1 SWAP2 SWAP1 SWAP2 PUSH2 0x100 EXP DUP2 SLOAD DUP2 PUSH20 0xFFFFFFFFFFFFFFFFFFFFFFFFFFFFFFFFFFFFFFFF MUL NOT AND SWAP1 DUP4 PUSH20 0xFFFFFFFFFFFFFFFFFFFFFFFFFFFFFFFFFFFFFFFF AND MUL OR SWAP1 SSTORE POP POP POP JUMP JUMPDEST PUSH1 0x6 PUSH1 0x20 MSTORE DUP2 PUSH1 0x0 MSTORE PUSH1 0x40 PUSH1 0x0 KECCAK256 DUP2 DUP2 SLOAD DUP2 LT PUSH2 0x1179 JUMPI PUSH1 0x0 DUP1 REVERT JUMPDEST SWAP1 PUSH1 0x0 MSTORE PUSH1 0x20 PUSH1 0x0 KECCAK256 ADD PUSH1 0x0 SWAP2 POP SWAP2 POP SWAP1 SLOAD SWAP1 PUSH2 0x100 EXP SWAP1 DIV PUSH20 0xFFFFFFFFFFFFFFFFFFFFFFFFFFFFFFFFFFFFFFFF AND DUP2 JUMP JUMPDEST PUSH1 0x1 PUSH1 0x3 PUSH1 0x0 DUP5 PUSH20 0xFFFFFFFFFFFFFFFFFFFFFFFFFFFFFFFFFFFFFFFF AND PUSH20 0xFFFFFFFFFFFFFFFFFFFFFFFFFFFFFFFFFFFFFFFF AND DUP2 MSTORE PUSH1 0x20 ADD SWAP1 DUP2 MSTORE PUSH1 0x20 ADD PUSH1 0x0 KECCAK256 PUSH1 0x0 DUP4 PUSH20 0xFFFFFFFFFFFFFFFFFFFFFFFFFFFFFFFFFFFFFFFF AND PUSH20 0xFFFFFFFFFFFFFFFFFFFFFFFFFFFFFFFFFFFFFFFF AND DUP2 MSTORE PUSH1 0x20 ADD SWAP1 DUP2 MSTORE PUSH1 0x20 ADD PUSH1 0x0 KECCAK256 PUSH1 0x0 PUSH2 0x100 EXP DUP2 SLOAD DUP2 PUSH1 0xFF MUL NOT AND SWAP1 DUP4 ISZERO ISZERO MUL OR SWAP1 SSTORE POP PUSH1 0x4 PUSH1 0x0 DUP4 PUSH20 0xFFFFFFFFFFFFFFFFFFFFFFFFFFFFFFFFFFFFFFFF AND PUSH20 0xFFFFFFFFFFFFFFFFFFFFFFFFFFFFFFFFFFFFFFFF AND DUP2 MSTORE PUSH1 0x20 ADD SWAP1 DUP2 MSTORE PUSH1 0x20 ADD PUSH1 0x0 KECCAK256 DUP2 SWAP1 DUP1 PUSH1 0x1 DUP2 SLOAD ADD DUP1 DUP3 SSTORE DUP1 SWAP2 POP POP PUSH1 0x1 SWAP1 SUB SWAP1 PUSH1 0x0 MSTORE PUSH1 0x20 PUSH1 0x0 KECCAK256 ADD PUSH1 0x0 SWAP1 SWAP2 SWAP1 SWAP2 SWAP1 SWAP2 PUSH2 0x100 EXP DUP2 SLOAD DUP2 PUSH20 0xFFFFFFFFFFFFFFFFFFFFFFFFFFFFFFFFFFFFFFFF MUL NOT AND SWAP1 DUP4 PUSH20 0xFFFFFFFFFFFFFFFFFFFFFFFFFFFFFFFFFFFFFFFF AND MUL OR SWAP1 SSTORE POP POP POP JUMP JUMPDEST PUSH1 0x60 PUSH1 0x2 PUSH1 0x0 DUP4 PUSH20 0xFFFFFFFFFFFFFFFFFFFFFFFFFFFFFFFFFFFFFFFF AND PUSH20 0xFFFFFFFFFFFFFFFFFFFFFFFFFFFFFFFFFFFFFFFF AND DUP2 MSTORE PUSH1 0x20 ADD SWAP1 DUP2 MSTORE PUSH1 0x20 ADD PUSH1 0x0 KECCAK256 DUP1 SLOAD DUP1 PUSH1 0x20 MUL PUSH1 0x20 ADD PUSH1 0x40 MLOAD SWAP1 DUP2 ADD PUSH1 0x40 MSTORE DUP1 SWAP3 SWAP2 SWAP1 DUP2 DUP2 MSTORE PUSH1 0x20 ADD DUP3 DUP1 SLOAD DUP1 ISZERO PUSH2 0x13A5 JUMPI PUSH1 0x20 MUL DUP3 ADD SWAP2 SWAP1 PUSH1 0x0 MSTORE PUSH1 0x20 PUSH1 0x0 KECCAK256 SWAP1 JUMPDEST DUP2 PUSH1 0x0 SWAP1 SLOAD SWAP1 PUSH2 0x100 EXP SWAP1 DIV PUSH20 0xFFFFFFFFFFFFFFFFFFFFFFFFFFFFFFFFFFFFFFFF AND PUSH20 0xFFFFFFFFFFFFFFFFFFFFFFFFFFFFFFFFFFFFFFFF AND DUP2 MSTORE PUSH1 0x20 ADD SWAP1 PUSH1 0x1 ADD SWAP1 DUP1 DUP4 GT PUSH2 0x135B JUMPI JUMPDEST POP POP POP POP POP SWAP1 POP SWAP2 SWAP1 POP JUMP JUMPDEST PUSH1 0x0 DUP1 REVERT JUMPDEST PUSH1 0x0 PUSH20 0xFFFFFFFFFFFFFFFFFFFFFFFFFFFFFFFFFFFFFFFF DUP3 AND SWAP1 POP SWAP2 SWAP1 POP JUMP JUMPDEST PUSH1 0x0 PUSH2 0x13E1 DUP3 PUSH2 0x13B6 JUMP JUMPDEST SWAP1 POP SWAP2 SWAP1 POP JUMP JUMPDEST PUSH2 0x13F1 DUP2 PUSH2 0x13D6 JUMP JUMPDEST DUP2 EQ PUSH2 0x13FC JUMPI PUSH1 0x0 DUP1 REVERT JUMPDEST POP JUMP JUMPDEST PUSH1 0x0 DUP2 CALLDATALOAD SWAP1 POP PUSH2 0x140E DUP2 PUSH2 0x13E8 JUMP JUMPDEST SWAP3 SWAP2 POP POP JUMP JUMPDEST PUSH1 0x0 DUP2 SWAP1 POP SWAP2 SWAP1 POP JUMP JUMPDEST PUSH2 0x1427 DUP2 PUSH2 0x1414 JUMP JUMPDEST DUP2 EQ PUSH2 0x1432 JUMPI PUSH1 0x0 DUP1 REVERT JUMPDEST POP JUMP JUMPDEST PUSH1 0x0 DUP2 CALLDATALOAD SWAP1 POP PUSH2 0x1444 DUP2 PUSH2 0x141E JUMP JUMPDEST SWAP3 SWAP2 POP POP JUMP JUMPDEST PUSH1 0x0 DUP1 PUSH1 0x40 DUP4 DUP6 SUB SLT ISZERO PUSH2 0x1461 JUMPI PUSH2 0x1460 PUSH2 0x13B1 JUMP JUMPDEST JUMPDEST PUSH1 0x0 PUSH2 0x146F DUP6 DUP3 DUP7 ADD PUSH2 0x13FF JUMP JUMPDEST SWAP3 POP POP PUSH1 0x20 PUSH2 0x1480 DUP6 DUP3 DUP7 ADD PUSH2 0x1435 JUMP JUMPDEST SWAP2 POP POP SWAP3 POP SWAP3 SWAP1 POP JUMP JUMPDEST PUSH2 0x1493 DUP2 PUSH2 0x13D6 JUMP JUMPDEST DUP3 MSTORE POP POP JUMP JUMPDEST PUSH1 0x0 PUSH1 0x20 DUP3 ADD SWAP1 POP PUSH2 0x14AE PUSH1 0x0 DUP4 ADD DUP5 PUSH2 0x148A JUMP JUMPDEST SWAP3 SWAP2 POP POP JUMP JUMPDEST PUSH1 0x0 DUP1 PUSH1 0x40 DUP4 DUP6 SUB SLT ISZERO PUSH2 0x14CB JUMPI PUSH2 0x14CA PUSH2 0x13B1 JUMP JUMPDEST JUMPDEST PUSH1 0x0 PUSH2 0x14D9 DUP6 DUP3 DUP7 ADD PUSH2 0x13FF JUMP JUMPDEST SWAP3 POP POP PUSH1 0x20 PUSH2 0x14EA DUP6 DUP3 DUP7 ADD PUSH2 0x13FF JUMP JUMPDEST SWAP2 POP POP SWAP3 POP SWAP3 SWAP1 POP JUMP JUMPDEST PUSH1 0x0 DUP2 ISZERO ISZERO SWAP1 POP SWAP2 SWAP1 POP JUMP JUMPDEST PUSH2 0x1509 DUP2 PUSH2 0x14F4 JUMP JUMPDEST DUP3 MSTORE POP POP JUMP JUMPDEST PUSH1 0x0 PUSH1 0x20 DUP3 ADD SWAP1 POP PUSH2 0x1524 PUSH1 0x0 DUP4 ADD DUP5 PUSH2 0x1500 JUMP JUMPDEST SWAP3 SWAP2 POP POP JUMP JUMPDEST PUSH1 0x0 PUSH1 0x20 DUP3 DUP5 SUB SLT ISZERO PUSH2 0x1540 JUMPI PUSH2 0x153F PUSH2 0x13B1 JUMP JUMPDEST JUMPDEST PUSH1 0x0 PUSH2 0x154E DUP5 DUP3 DUP6 ADD PUSH2 0x13FF JUMP JUMPDEST SWAP2 POP POP SWAP3 SWAP2 POP POP JUMP JUMPDEST PUSH1 0x0 DUP2 MLOAD SWAP1 POP SWAP2 SWAP1 POP JUMP JUMPDEST PUSH1 0x0 DUP3 DUP3 MSTORE PUSH1 0x20 DUP3 ADD SWAP1 POP SWAP3 SWAP2 POP POP JUMP JUMPDEST PUSH1 0x0 DUP2 SWAP1 POP PUSH1 0x20 DUP3 ADD SWAP1 POP SWAP2 SWAP1 POP JUMP JUMPDEST PUSH2 0x158C DUP2 PUSH2 0x13D6 JUMP JUMPDEST DUP3 MSTORE POP POP JUMP JUMPDEST PUSH1 0x0 PUSH2 0x159E DUP4 DUP4 PUSH2 0x1583 JUMP JUMPDEST PUSH1 0x20 DUP4 ADD SWAP1 POP SWAP3 SWAP2 POP POP JUMP JUMPDEST PUSH1 0x0 PUSH1 0x20 DUP3 ADD SWAP1 POP SWAP2 SWAP1 POP JUMP JUMPDEST PUSH1 0x0 PUSH2 0x15C2 DUP3 PUSH2 0x1557 JUMP JUMPDEST PUSH2 0x15CC DUP2 DUP6 PUSH2 0x1562 JUMP JUMPDEST SWAP4 POP PUSH2 0x15D7 DUP4 PUSH2 0x1573 JUMP JUMPDEST DUP1 PUSH1 0x0 JUMPDEST DUP4 DUP2 LT ISZERO PUSH2 0x1608 JUMPI DUP2 MLOAD PUSH2 0x15EF DUP9 DUP3 PUSH2 0x1592 JUMP JUMPDEST SWAP8 POP PUSH2 0x15FA DUP4 PUSH2 0x15AA JUMP JUMPDEST SWAP3 POP POP PUSH1 0x1 DUP2 ADD SWAP1 POP PUSH2 0x15DB JUMP JUMPDEST POP DUP6 SWAP4 POP POP POP POP SWAP3 SWAP2 POP POP JUMP JUMPDEST PUSH1 0x0 PUSH1 0x20 DUP3 ADD SWAP1 POP DUP2 DUP2 SUB PUSH1 0x0 DUP4 ADD MSTORE PUSH2 0x162F DUP2 DUP5 PUSH2 0x15B7 JUMP JUMPDEST SWAP1 POP SWAP3 SWAP2 POP POP JUMP JUMPDEST PUSH1 0x0 PUSH1 0x20 DUP3 DUP5 SUB SLT ISZERO PUSH2 0x164D JUMPI PUSH2 0x164C PUSH2 0x13B1 JUMP JUMPDEST JUMPDEST PUSH1 0x0 PUSH2 0x165B DUP5 DUP3 DUP6 ADD PUSH2 0x1435 JUMP JUMPDEST SWAP2 POP POP SWAP3 SWAP2 POP POP JUMP JUMPDEST PUSH32 0x4E487B7100000000000000000000000000000000000000000000000000000000 PUSH1 0x0 MSTORE PUSH1 0x32 PUSH1 0x4 MSTORE PUSH1 0x24 PUSH1 0x0 REVERT JUMPDEST PUSH32 0x4E487B7100000000000000000000000000000000000000000000000000000000 PUSH1 0x0 MSTORE PUSH1 0x11 PUSH1 0x4 MSTORE PUSH1 0x24 PUSH1 0x0 REVERT JUMPDEST PUSH1 0x0 PUSH2 0x16CD DUP3 PUSH2 0x1414 JUMP JUMPDEST SWAP2 POP PUSH2 0x16D8 DUP4 PUSH2 0x1414 JUMP JUMPDEST SWAP3 POP DUP3 DUP3 ADD SWAP1 POP DUP1 DUP3 GT ISZERO PUSH2 0x16F0 JUMPI PUSH2 0x16EF PUSH2 0x1693 JUMP JUMPDEST JUMPDEST SWAP3 SWAP2 POP POP JUMP JUMPDEST PUSH1 0x0 DUP3 DUP3 MSTORE PUSH1 0x20 DUP3 ADD SWAP1 POP SWAP3 SWAP2 POP POP JUMP JUMPDEST PUSH32 0x4F7574206F6620496E6465780000000000000000000000000000000000000000 PUSH1 0x0 DUP3 ADD MSTORE POP JUMP JUMPDEST PUSH1 0x0 PUSH2 0x173D PUSH1 0xC DUP4 PUSH2 0x16F6 JUMP JUMPDEST SWAP2 POP PUSH2 0x1748 DUP3 PUSH2 0x1707 JUMP JUMPDEST PUSH1 0x20 DUP3 ADD SWAP1 POP SWAP2 SWAP1 POP JUMP JUMPDEST PUSH1 0x0 PUSH1 0x20 DUP3 ADD SWAP1 POP DUP2 DUP2 SUB PUSH1 0x0 DUP4 ADD MSTORE PUSH2 0x176C DUP2 PUSH2 0x1730 JUMP JUMPDEST SWAP1 POP SWAP2 SWAP1 POP JUMP JUMPDEST PUSH1 0x0 PUSH2 0x177E DUP3 PUSH2 0x1414 JUMP JUMPDEST SWAP2 POP PUSH2 0x1789 DUP4 PUSH2 0x1414 JUMP JUMPDEST SWAP3 POP DUP3 DUP3 SUB SWAP1 POP DUP2 DUP2 GT ISZERO PUSH2 0x17A1 JUMPI PUSH2 0x17A0 PUSH2 0x1693 JUMP JUMPDEST JUMPDEST SWAP3 SWAP2 POP POP JUMP JUMPDEST PUSH32 0x4E487B7100000000000000000000000000000000000000000000000000000000 PUSH1 0x0 MSTORE PUSH1 0x31 PUSH1 0x4 MSTORE PUSH1 0x24 PUSH1 0x0 REVERT INVALID LOG2 PUSH5 0x6970667358 0x22 SLT KECCAK256 0xBB MUL 0xD3 SSTORE 0x4F REVERT SWAP2 0xC9 0x2F 0x5C 0xBC 0xB0 0xDE CREATE2 SWAP10 PUSH2 0x69B8 SWAP16 DIV 0x4C 0xE9 SELFDESTRUCT 0xCB PUSH10 0x41C2FC8653608764736F PUSH13 0x63430008110033000000000000 "},"gasEstimates":{"creation":{"codeDepositCost":"3802200","executionCost":"infinite","totalCost":"infinite"},"external":{"createMemberPool(string)":"infinite","getMemberPools()":"infinite","owner()":"2533","pools(uint256)":"5000"}},"methodIdentifiers":{"createMemberPool(string)":"5dd6ba66","getMemberPools()":"2845a591","owner()":"8da5cb5b","pools(uint256)":"ac4afa38"}},"storageLayout":{"storage":[{"astId":1056,"contract":"MemberPoolFactory.sol:MemberPoolFactory","label":"owner","offset":0,"slot":"0","type":"t_address"},{"astId":1059,"contract":"MemberPoolFactory.sol:MemberPoolFactory","label":"pools","offset":0,"slot":"1","type":"t_array(t_address)dyn_storage"}],"types":{"t_address":{"encoding":"inplace","label":"address","numberOfBytes":"20"},"t_array(t_address)dyn_storage":{"base":"t_address","encoding":"dynamic_array","label":"address[]","numberOfBytes":"32"}}},"userdoc":{"kind":"user","methods":{},"version":1}}