{"abi":[{"anonymous":false,"inputs":[{"indexed":false,"internalType":"address","name":"sender","type":"address"},{"indexed":false,"internalType":"address","name":"pool","type":"address"}],"name":"ProjectCreated","type":"event"},{"inputs":[{"internalType":"address","name":"memberPool","type":"address"},{"internalType":"address","name":"leader","type":"address"},{"internalType":"address","name":"op","type":"address"},{"internalType":"enum ProjectType","name":"pType","type":"uint8"},{"internalType":"address","name":"proposalAddress","type":"address"}],"name":"createProject","outputs":[],"stateMutability":"nonpayable","type":"function"},{"inputs":[{"internalType":"address","name":"memberPool","type":"address"}],"name":"getProjectsByGroup","outputs":[{"internalType":"address[]","name":"","type":"address[]"}],"stateMutability":"view","type":"function"}],"devdoc":{"kind":"dev","methods":{},"version":1},"evm":{"assembly":"    /* \"ProjectFactory.sol\":159:902  contract ProjectFactory is NoDelegateCall {... */\n  mstore(0x40, 0xa0)\n  callvalue\n  dup1\n  iszero\n  tag_1\n  jumpi\n  0x00\n  dup1\n  revert\ntag_1:\n  pop\n    /* \"lib/NoDelegateCall.sol\":604:608   */\n  address\n    /* \"lib/NoDelegateCall.sol\":585:609   */\n  0xffffffffffffffffffffffffffffffffffffffff\n  and\n  0x80\n  dup2\n  0xffffffffffffffffffffffffffffffffffffffff\n  and\n  dup2\n  mstore\n  pop\n  pop\n    /* \"ProjectFactory.sol\":159:902  contract ProjectFactory is NoDelegateCall {... */\n  mload(0x80)\n  codecopy(0x00, dataOffset(sub_0), dataSize(sub_0))\n  0x00\n  assignImmutable(\"0xec9dc0e935b90a8223848d74f2e39812c3ca143ad37a4076c4c95f9814669036\")\n  return(0x00, dataSize(sub_0))\nstop\n\nsub_0: assembly {\n        /* \"ProjectFactory.sol\":159:902  contract ProjectFactory is NoDelegateCall {... */\n      mstore(0x40, 0x80)\n      callvalue\n      dup1\n      iszero\n      tag_1\n      jumpi\n      0x00\n      dup1\n      revert\n    tag_1:\n      pop\n      jumpi(tag_2, lt(calldatasize, 0x04))\n      shr(0xe0, calldataload(0x00))\n      dup1\n      0xc6211077\n      eq\n      tag_3\n      jumpi\n      dup1\n      0xfe634dba\n      eq\n      tag_4\n      jumpi\n    tag_2:\n      0x00\n      dup1\n      revert\n        /* \"ProjectFactory.sol\":312:726  function createProject(... */\n    tag_3:\n      tag_5\n      0x04\n      dup1\n      calldatasize\n      sub\n      dup2\n      add\n      swap1\n      tag_6\n      swap2\n      swap1\n      tag_7\n      jump\t// in\n    tag_6:\n      tag_8\n      jump\t// in\n    tag_5:\n      stop\n        /* \"ProjectFactory.sol\":734:899  function getProjectsByGroup(address memberPool)... */\n    tag_4:\n      tag_9\n      0x04\n      dup1\n      calldatasize\n      sub\n      dup2\n      add\n      swap1\n      tag_10\n      swap2\n      swap1\n      tag_11\n      jump\t// in\n    tag_10:\n      tag_12\n      jump\t// in\n    tag_9:\n      mload(0x40)\n      tag_13\n      swap2\n      swap1\n      tag_14\n      jump\t// in\n    tag_13:\n      mload(0x40)\n      dup1\n      swap2\n      sub\n      swap1\n      return\n        /* \"ProjectFactory.sol\":312:726  function createProject(... */\n    tag_8:\n        /* \"lib/NoDelegateCall.sol\":1060:1082   */\n      tag_16\n        /* \"lib/NoDelegateCall.sol\":1060:1080   */\n      tag_17\n        /* \"lib/NoDelegateCall.sol\":1060:1082   */\n      jump\t// in\n    tag_16:\n        /* \"ProjectFactory.sol\":512:531  address poolAddress */\n      0x00\n        /* \"ProjectFactory.sol\":568:574  leader */\n      dup5\n        /* \"ProjectFactory.sol\":576:578  op */\n      dup5\n        /* \"ProjectFactory.sol\":580:585  pType */\n      dup5\n        /* \"ProjectFactory.sol\":587:602  proposalAddress */\n      dup5\n        /* \"ProjectFactory.sol\":556:603  new Project(leader, op, pType, proposalAddress) */\n      mload(0x40)\n      tag_19\n      swap1\n      tag_20\n      jump\t// in\n    tag_19:\n      tag_21\n      swap5\n      swap4\n      swap3\n      swap2\n      swap1\n      tag_22\n      jump\t// in\n    tag_21:\n      mload(0x40)\n      dup1\n      swap2\n      sub\n      swap1\n      0x00\n      create\n      dup1\n      iszero\n      dup1\n      iszero\n      tag_23\n      jumpi\n      returndatasize\n      0x00\n      dup1\n      returndatacopy\n      revert(0x00, returndatasize)\n    tag_23:\n      pop\n        /* \"ProjectFactory.sol\":512:614  address poolAddress = address(... */\n      swap1\n      pop\n        /* \"ProjectFactory.sol\":625:633  projects */\n      0x00\n        /* \"ProjectFactory.sol\":625:645  projects[memberPool] */\n      dup1\n        /* \"ProjectFactory.sol\":634:644  memberPool */\n      dup8\n        /* \"ProjectFactory.sol\":625:645  projects[memberPool] */\n      0xffffffffffffffffffffffffffffffffffffffff\n      and\n      0xffffffffffffffffffffffffffffffffffffffff\n      and\n      dup2\n      mstore\n      0x20\n      add\n      swap1\n      dup2\n      mstore\n      0x20\n      add\n      0x00\n      keccak256\n        /* \"ProjectFactory.sol\":651:662  poolAddress */\n      dup2\n        /* \"ProjectFactory.sol\":625:663  projects[memberPool].push(poolAddress) */\n      swap1\n      dup1\n      0x01\n      dup2\n      sload\n      add\n      dup1\n      dup3\n      sstore\n      dup1\n      swap2\n      pop\n      pop\n      0x01\n      swap1\n      sub\n      swap1\n      0x00\n      mstore\n      keccak256(0x00, 0x20)\n      add\n      0x00\n      swap1\n      swap2\n      swap1\n      swap2\n      swap1\n      swap2\n      0x0100\n      exp\n      dup2\n      sload\n      dup2\n      0xffffffffffffffffffffffffffffffffffffffff\n      mul\n      not\n      and\n      swap1\n      dup4\n      0xffffffffffffffffffffffffffffffffffffffff\n      and\n      mul\n      or\n      swap1\n      sstore\n      pop\n        /* \"ProjectFactory.sol\":679:718  ProjectCreated(msg.sender, poolAddress) */\n      0x8cb1f5e0b7508307e592a641586f535256dba226b02388100691c6133f65e22e\n        /* \"ProjectFactory.sol\":694:704  msg.sender */\n      caller\n        /* \"ProjectFactory.sol\":706:717  poolAddress */\n      dup3\n        /* \"ProjectFactory.sol\":679:718  ProjectCreated(msg.sender, poolAddress) */\n      mload(0x40)\n      tag_25\n      swap3\n      swap2\n      swap1\n      tag_26\n      jump\t// in\n    tag_25:\n      mload(0x40)\n      dup1\n      swap2\n      sub\n      swap1\n      log1\n        /* \"ProjectFactory.sol\":501:726  {... */\n      pop\n        /* \"ProjectFactory.sol\":312:726  function createProject(... */\n      pop\n      pop\n      pop\n      pop\n      pop\n      jump\t// out\n        /* \"ProjectFactory.sol\":734:899  function getProjectsByGroup(address memberPool)... */\n    tag_12:\n        /* \"ProjectFactory.sol\":830:846  address[] memory */\n      0x60\n        /* \"ProjectFactory.sol\":871:879  projects */\n      0x00\n        /* \"ProjectFactory.sol\":871:891  projects[memberPool] */\n      dup1\n        /* \"ProjectFactory.sol\":880:890  memberPool */\n      dup4\n        /* \"ProjectFactory.sol\":871:891  projects[memberPool] */\n      0xffffffffffffffffffffffffffffffffffffffff\n      and\n      0xffffffffffffffffffffffffffffffffffffffff\n      and\n      dup2\n      mstore\n      0x20\n      add\n      swap1\n      dup2\n      mstore\n      0x20\n      add\n      0x00\n      keccak256\n        /* \"ProjectFactory.sol\":864:891  return projects[memberPool] */\n      dup1\n      sload\n      dup1\n      0x20\n      mul\n      0x20\n      add\n      mload(0x40)\n      swap1\n      dup2\n      add\n      0x40\n      mstore\n      dup1\n      swap3\n      swap2\n      swap1\n      dup2\n      dup2\n      mstore\n      0x20\n      add\n      dup3\n      dup1\n      sload\n      dup1\n      iszero\n      tag_28\n      jumpi\n      0x20\n      mul\n      dup3\n      add\n      swap2\n      swap1\n      0x00\n      mstore\n      keccak256(0x00, 0x20)\n      swap1\n    tag_29:\n      dup2\n      0x00\n      swap1\n      sload\n      swap1\n      0x0100\n      exp\n      swap1\n      div\n      0xffffffffffffffffffffffffffffffffffffffff\n      and\n      0xffffffffffffffffffffffffffffffffffffffff\n      and\n      dup2\n      mstore\n      0x20\n      add\n      swap1\n      0x01\n      add\n      swap1\n      dup1\n      dup4\n      gt\n      tag_29\n      jumpi\n    tag_28:\n      pop\n      pop\n      pop\n      pop\n      pop\n      swap1\n      pop\n        /* \"ProjectFactory.sol\":734:899  function getProjectsByGroup(address memberPool)... */\n      swap2\n      swap1\n      pop\n      jump\t// out\n        /* \"lib/NoDelegateCall.sol\":853:951   */\n    tag_17:\n        /* \"lib/NoDelegateCall.sol\":934:942   */\n      immutable(\"0xec9dc0e935b90a8223848d74f2e39812c3ca143ad37a4076c4c95f9814669036\")\n        /* \"lib/NoDelegateCall.sol\":917:942   */\n      0xffffffffffffffffffffffffffffffffffffffff\n      and\n        /* \"lib/NoDelegateCall.sol\":925:929   */\n      address\n        /* \"lib/NoDelegateCall.sol\":917:942   */\n      0xffffffffffffffffffffffffffffffffffffffff\n      and\n      eq\n        /* \"lib/NoDelegateCall.sol\":909:943   */\n      tag_31\n      jumpi\n      0x00\n      dup1\n      revert\n    tag_31:\n        /* \"lib/NoDelegateCall.sol\":853:951   */\n      jump\t// out\n    tag_20:\n      dataSize(sub_0)\n      dup1\n      dataOffset(sub_0)\n      dup4\n      codecopy\n      add\n      swap1\n      jump\t// out\n        /* \"#utility.yul\":88:205   */\n    tag_33:\n        /* \"#utility.yul\":197:198   */\n      0x00\n        /* \"#utility.yul\":194:195   */\n      dup1\n        /* \"#utility.yul\":187:199   */\n      revert\n        /* \"#utility.yul\":334:460   */\n    tag_35:\n        /* \"#utility.yul\":371:378   */\n      0x00\n        /* \"#utility.yul\":411:453   */\n      0xffffffffffffffffffffffffffffffffffffffff\n        /* \"#utility.yul\":404:409   */\n      dup3\n        /* \"#utility.yul\":400:454   */\n      and\n        /* \"#utility.yul\":389:454   */\n      swap1\n      pop\n        /* \"#utility.yul\":334:460   */\n      swap2\n      swap1\n      pop\n      jump\t// out\n        /* \"#utility.yul\":466:562   */\n    tag_36:\n        /* \"#utility.yul\":503:510   */\n      0x00\n        /* \"#utility.yul\":532:556   */\n      tag_60\n        /* \"#utility.yul\":550:555   */\n      dup3\n        /* \"#utility.yul\":532:556   */\n      tag_35\n      jump\t// in\n    tag_60:\n        /* \"#utility.yul\":521:556   */\n      swap1\n      pop\n        /* \"#utility.yul\":466:562   */\n      swap2\n      swap1\n      pop\n      jump\t// out\n        /* \"#utility.yul\":568:690   */\n    tag_37:\n        /* \"#utility.yul\":641:665   */\n      tag_62\n        /* \"#utility.yul\":659:664   */\n      dup2\n        /* \"#utility.yul\":641:665   */\n      tag_36\n      jump\t// in\n    tag_62:\n        /* \"#utility.yul\":634:639   */\n      dup2\n        /* \"#utility.yul\":631:666   */\n      eq\n        /* \"#utility.yul\":621:684   */\n      tag_63\n      jumpi\n        /* \"#utility.yul\":680:681   */\n      0x00\n        /* \"#utility.yul\":677:678   */\n      dup1\n        /* \"#utility.yul\":670:682   */\n      revert\n        /* \"#utility.yul\":621:684   */\n    tag_63:\n        /* \"#utility.yul\":568:690   */\n      pop\n      jump\t// out\n        /* \"#utility.yul\":696:835   */\n    tag_38:\n        /* \"#utility.yul\":742:747   */\n      0x00\n        /* \"#utility.yul\":780:786   */\n      dup2\n        /* \"#utility.yul\":767:787   */\n      calldataload\n        /* \"#utility.yul\":758:787   */\n      swap1\n      pop\n        /* \"#utility.yul\":796:829   */\n      tag_65\n        /* \"#utility.yul\":823:828   */\n      dup2\n        /* \"#utility.yul\":796:829   */\n      tag_37\n      jump\t// in\n    tag_65:\n        /* \"#utility.yul\":696:835   */\n      swap3\n      swap2\n      pop\n      pop\n      jump\t// out\n        /* \"#utility.yul\":841:956   */\n    tag_39:\n        /* \"#utility.yul\":930:931   */\n      0x02\n        /* \"#utility.yul\":923:928   */\n      dup2\n        /* \"#utility.yul\":920:932   */\n      lt\n        /* \"#utility.yul\":910:950   */\n      tag_67\n      jumpi\n        /* \"#utility.yul\":946:947   */\n      0x00\n        /* \"#utility.yul\":943:944   */\n      dup1\n        /* \"#utility.yul\":936:948   */\n      revert\n        /* \"#utility.yul\":910:950   */\n    tag_67:\n        /* \"#utility.yul\":841:956   */\n      pop\n      jump\t// out\n        /* \"#utility.yul\":962:1133   */\n    tag_40:\n        /* \"#utility.yul\":1024:1029   */\n      0x00\n        /* \"#utility.yul\":1062:1068   */\n      dup2\n        /* \"#utility.yul\":1049:1069   */\n      calldataload\n        /* \"#utility.yul\":1040:1069   */\n      swap1\n      pop\n        /* \"#utility.yul\":1078:1127   */\n      tag_69\n        /* \"#utility.yul\":1121:1126   */\n      dup2\n        /* \"#utility.yul\":1078:1127   */\n      tag_39\n      jump\t// in\n    tag_69:\n        /* \"#utility.yul\":962:1133   */\n      swap3\n      swap2\n      pop\n      pop\n      jump\t// out\n        /* \"#utility.yul\":1139:2082   */\n    tag_7:\n        /* \"#utility.yul\":1250:1256   */\n      0x00\n        /* \"#utility.yul\":1258:1264   */\n      dup1\n        /* \"#utility.yul\":1266:1272   */\n      0x00\n        /* \"#utility.yul\":1274:1280   */\n      dup1\n        /* \"#utility.yul\":1282:1288   */\n      0x00\n        /* \"#utility.yul\":1331:1334   */\n      0xa0\n        /* \"#utility.yul\":1319:1328   */\n      dup7\n        /* \"#utility.yul\":1310:1317   */\n      dup9\n        /* \"#utility.yul\":1306:1329   */\n      sub\n        /* \"#utility.yul\":1302:1335   */\n      slt\n        /* \"#utility.yul\":1299:1419   */\n      iszero\n      tag_71\n      jumpi\n        /* \"#utility.yul\":1338:1417   */\n      tag_72\n      tag_33\n      jump\t// in\n    tag_72:\n        /* \"#utility.yul\":1299:1419   */\n    tag_71:\n        /* \"#utility.yul\":1458:1459   */\n      0x00\n        /* \"#utility.yul\":1483:1536   */\n      tag_73\n        /* \"#utility.yul\":1528:1535   */\n      dup9\n        /* \"#utility.yul\":1519:1525   */\n      dup3\n        /* \"#utility.yul\":1508:1517   */\n      dup10\n        /* \"#utility.yul\":1504:1526   */\n      add\n        /* \"#utility.yul\":1483:1536   */\n      tag_38\n      jump\t// in\n    tag_73:\n        /* \"#utility.yul\":1473:1536   */\n      swap6\n      pop\n        /* \"#utility.yul\":1429:1546   */\n      pop\n        /* \"#utility.yul\":1585:1587   */\n      0x20\n        /* \"#utility.yul\":1611:1664   */\n      tag_74\n        /* \"#utility.yul\":1656:1663   */\n      dup9\n        /* \"#utility.yul\":1647:1653   */\n      dup3\n        /* \"#utility.yul\":1636:1645   */\n      dup10\n        /* \"#utility.yul\":1632:1654   */\n      add\n        /* \"#utility.yul\":1611:1664   */\n      tag_38\n      jump\t// in\n    tag_74:\n        /* \"#utility.yul\":1601:1664   */\n      swap5\n      pop\n        /* \"#utility.yul\":1556:1674   */\n      pop\n        /* \"#utility.yul\":1713:1715   */\n      0x40\n        /* \"#utility.yul\":1739:1792   */\n      tag_75\n        /* \"#utility.yul\":1784:1791   */\n      dup9\n        /* \"#utility.yul\":1775:1781   */\n      dup3\n        /* \"#utility.yul\":1764:1773   */\n      dup10\n        /* \"#utility.yul\":1760:1782   */\n      add\n        /* \"#utility.yul\":1739:1792   */\n      tag_38\n      jump\t// in\n    tag_75:\n        /* \"#utility.yul\":1729:1792   */\n      swap4\n      pop\n        /* \"#utility.yul\":1684:1802   */\n      pop\n        /* \"#utility.yul\":1841:1843   */\n      0x60\n        /* \"#utility.yul\":1867:1936   */\n      tag_76\n        /* \"#utility.yul\":1928:1935   */\n      dup9\n        /* \"#utility.yul\":1919:1925   */\n      dup3\n        /* \"#utility.yul\":1908:1917   */\n      dup10\n        /* \"#utility.yul\":1904:1926   */\n      add\n        /* \"#utility.yul\":1867:1936   */\n      tag_40\n      jump\t// in\n    tag_76:\n        /* \"#utility.yul\":1857:1936   */\n      swap3\n      pop\n        /* \"#utility.yul\":1812:1946   */\n      pop\n        /* \"#utility.yul\":1985:1988   */\n      0x80\n        /* \"#utility.yul\":2012:2065   */\n      tag_77\n        /* \"#utility.yul\":2057:2064   */\n      dup9\n        /* \"#utility.yul\":2048:2054   */\n      dup3\n        /* \"#utility.yul\":2037:2046   */\n      dup10\n        /* \"#utility.yul\":2033:2055   */\n      add\n        /* \"#utility.yul\":2012:2065   */\n      tag_38\n      jump\t// in\n    tag_77:\n        /* \"#utility.yul\":2002:2065   */\n      swap2\n      pop\n        /* \"#utility.yul\":1956:2075   */\n      pop\n        /* \"#utility.yul\":1139:2082   */\n      swap3\n      swap6\n      pop\n      swap3\n      swap6\n      swap1\n      swap4\n      pop\n      jump\t// out\n        /* \"#utility.yul\":2088:2417   */\n    tag_11:\n        /* \"#utility.yul\":2147:2153   */\n      0x00\n        /* \"#utility.yul\":2196:2198   */\n      0x20\n        /* \"#utility.yul\":2184:2193   */\n      dup3\n        /* \"#utility.yul\":2175:2182   */\n      dup5\n        /* \"#utility.yul\":2171:2194   */\n      sub\n        /* \"#utility.yul\":2167:2199   */\n      slt\n        /* \"#utility.yul\":2164:2283   */\n      iszero\n      tag_79\n      jumpi\n        /* \"#utility.yul\":2202:2281   */\n      tag_80\n      tag_33\n      jump\t// in\n    tag_80:\n        /* \"#utility.yul\":2164:2283   */\n    tag_79:\n        /* \"#utility.yul\":2322:2323   */\n      0x00\n        /* \"#utility.yul\":2347:2400   */\n      tag_81\n        /* \"#utility.yul\":2392:2399   */\n      dup5\n        /* \"#utility.yul\":2383:2389   */\n      dup3\n        /* \"#utility.yul\":2372:2381   */\n      dup6\n        /* \"#utility.yul\":2368:2390   */\n      add\n        /* \"#utility.yul\":2347:2400   */\n      tag_38\n      jump\t// in\n    tag_81:\n        /* \"#utility.yul\":2337:2400   */\n      swap2\n      pop\n        /* \"#utility.yul\":2293:2410   */\n      pop\n        /* \"#utility.yul\":2088:2417   */\n      swap3\n      swap2\n      pop\n      pop\n      jump\t// out\n        /* \"#utility.yul\":2423:2537   */\n    tag_41:\n        /* \"#utility.yul\":2490:2496   */\n      0x00\n        /* \"#utility.yul\":2524:2529   */\n      dup2\n        /* \"#utility.yul\":2518:2530   */\n      mload\n        /* \"#utility.yul\":2508:2530   */\n      swap1\n      pop\n        /* \"#utility.yul\":2423:2537   */\n      swap2\n      swap1\n      pop\n      jump\t// out\n        /* \"#utility.yul\":2543:2727   */\n    tag_42:\n        /* \"#utility.yul\":2642:2653   */\n      0x00\n        /* \"#utility.yul\":2676:2682   */\n      dup3\n        /* \"#utility.yul\":2671:2674   */\n      dup3\n        /* \"#utility.yul\":2664:2683   */\n      mstore\n        /* \"#utility.yul\":2716:2720   */\n      0x20\n        /* \"#utility.yul\":2711:2714   */\n      dup3\n        /* \"#utility.yul\":2707:2721   */\n      add\n        /* \"#utility.yul\":2692:2721   */\n      swap1\n      pop\n        /* \"#utility.yul\":2543:2727   */\n      swap3\n      swap2\n      pop\n      pop\n      jump\t// out\n        /* \"#utility.yul\":2733:2865   */\n    tag_43:\n        /* \"#utility.yul\":2800:2804   */\n      0x00\n        /* \"#utility.yul\":2823:2826   */\n      dup2\n        /* \"#utility.yul\":2815:2826   */\n      swap1\n      pop\n        /* \"#utility.yul\":2853:2857   */\n      0x20\n        /* \"#utility.yul\":2848:2851   */\n      dup3\n        /* \"#utility.yul\":2844:2858   */\n      add\n        /* \"#utility.yul\":2836:2858   */\n      swap1\n      pop\n        /* \"#utility.yul\":2733:2865   */\n      swap2\n      swap1\n      pop\n      jump\t// out\n        /* \"#utility.yul\":2871:2979   */\n    tag_44:\n        /* \"#utility.yul\":2948:2972   */\n      tag_86\n        /* \"#utility.yul\":2966:2971   */\n      dup2\n        /* \"#utility.yul\":2948:2972   */\n      tag_36\n      jump\t// in\n    tag_86:\n        /* \"#utility.yul\":2943:2946   */\n      dup3\n        /* \"#utility.yul\":2936:2973   */\n      mstore\n        /* \"#utility.yul\":2871:2979   */\n      pop\n      pop\n      jump\t// out\n        /* \"#utility.yul\":2985:3164   */\n    tag_45:\n        /* \"#utility.yul\":3054:3064   */\n      0x00\n        /* \"#utility.yul\":3075:3121   */\n      tag_88\n        /* \"#utility.yul\":3117:3120   */\n      dup4\n        /* \"#utility.yul\":3109:3115   */\n      dup4\n        /* \"#utility.yul\":3075:3121   */\n      tag_44\n      jump\t// in\n    tag_88:\n        /* \"#utility.yul\":3153:3157   */\n      0x20\n        /* \"#utility.yul\":3148:3151   */\n      dup4\n        /* \"#utility.yul\":3144:3158   */\n      add\n        /* \"#utility.yul\":3130:3158   */\n      swap1\n      pop\n        /* \"#utility.yul\":2985:3164   */\n      swap3\n      swap2\n      pop\n      pop\n      jump\t// out\n        /* \"#utility.yul\":3170:3283   */\n    tag_46:\n        /* \"#utility.yul\":3240:3244   */\n      0x00\n        /* \"#utility.yul\":3272:3276   */\n      0x20\n        /* \"#utility.yul\":3267:3270   */\n      dup3\n        /* \"#utility.yul\":3263:3277   */\n      add\n        /* \"#utility.yul\":3255:3277   */\n      swap1\n      pop\n        /* \"#utility.yul\":3170:3283   */\n      swap2\n      swap1\n      pop\n      jump\t// out\n        /* \"#utility.yul\":3319:4051   */\n    tag_47:\n        /* \"#utility.yul\":3438:3441   */\n      0x00\n        /* \"#utility.yul\":3467:3521   */\n      tag_91\n        /* \"#utility.yul\":3515:3520   */\n      dup3\n        /* \"#utility.yul\":3467:3521   */\n      tag_41\n      jump\t// in\n    tag_91:\n        /* \"#utility.yul\":3537:3623   */\n      tag_92\n        /* \"#utility.yul\":3616:3622   */\n      dup2\n        /* \"#utility.yul\":3611:3614   */\n      dup6\n        /* \"#utility.yul\":3537:3623   */\n      tag_42\n      jump\t// in\n    tag_92:\n        /* \"#utility.yul\":3530:3623   */\n      swap4\n      pop\n        /* \"#utility.yul\":3647:3703   */\n      tag_93\n        /* \"#utility.yul\":3697:3702   */\n      dup4\n        /* \"#utility.yul\":3647:3703   */\n      tag_43\n      jump\t// in\n    tag_93:\n        /* \"#utility.yul\":3726:3733   */\n      dup1\n        /* \"#utility.yul\":3757:3758   */\n      0x00\n        /* \"#utility.yul\":3742:4026   */\n    tag_94:\n        /* \"#utility.yul\":3767:3773   */\n      dup4\n        /* \"#utility.yul\":3764:3765   */\n      dup2\n        /* \"#utility.yul\":3761:3774   */\n      lt\n        /* \"#utility.yul\":3742:4026   */\n      iszero\n      tag_96\n      jumpi\n        /* \"#utility.yul\":3843:3849   */\n      dup2\n        /* \"#utility.yul\":3837:3850   */\n      mload\n        /* \"#utility.yul\":3870:3933   */\n      tag_97\n        /* \"#utility.yul\":3929:3932   */\n      dup9\n        /* \"#utility.yul\":3914:3927   */\n      dup3\n        /* \"#utility.yul\":3870:3933   */\n      tag_45\n      jump\t// in\n    tag_97:\n        /* \"#utility.yul\":3863:3933   */\n      swap8\n      pop\n        /* \"#utility.yul\":3956:4016   */\n      tag_98\n        /* \"#utility.yul\":4009:4015   */\n      dup4\n        /* \"#utility.yul\":3956:4016   */\n      tag_46\n      jump\t// in\n    tag_98:\n        /* \"#utility.yul\":3946:4016   */\n      swap3\n      pop\n        /* \"#utility.yul\":3802:4026   */\n      pop\n        /* \"#utility.yul\":3789:3790   */\n      0x01\n        /* \"#utility.yul\":3786:3787   */\n      dup2\n        /* \"#utility.yul\":3782:3791   */\n      add\n        /* \"#utility.yul\":3777:3791   */\n      swap1\n      pop\n        /* \"#utility.yul\":3742:4026   */\n      jump(tag_94)\n    tag_96:\n        /* \"#utility.yul\":3746:3760   */\n      pop\n        /* \"#utility.yul\":4042:4045   */\n      dup6\n        /* \"#utility.yul\":4035:4045   */\n      swap4\n      pop\n        /* \"#utility.yul\":3443:4051   */\n      pop\n      pop\n      pop\n        /* \"#utility.yul\":3319:4051   */\n      swap3\n      swap2\n      pop\n      pop\n      jump\t// out\n        /* \"#utility.yul\":4057:4430   */\n    tag_14:\n        /* \"#utility.yul\":4200:4204   */\n      0x00\n        /* \"#utility.yul\":4238:4240   */\n      0x20\n        /* \"#utility.yul\":4227:4236   */\n      dup3\n        /* \"#utility.yul\":4223:4241   */\n      add\n        /* \"#utility.yul\":4215:4241   */\n      swap1\n      pop\n        /* \"#utility.yul\":4287:4296   */\n      dup2\n        /* \"#utility.yul\":4281:4285   */\n      dup2\n        /* \"#utility.yul\":4277:4297   */\n      sub\n        /* \"#utility.yul\":4273:4274   */\n      0x00\n        /* \"#utility.yul\":4262:4271   */\n      dup4\n        /* \"#utility.yul\":4258:4275   */\n      add\n        /* \"#utility.yul\":4251:4298   */\n      mstore\n        /* \"#utility.yul\":4315:4423   */\n      tag_100\n        /* \"#utility.yul\":4418:4422   */\n      dup2\n        /* \"#utility.yul\":4409:4415   */\n      dup5\n        /* \"#utility.yul\":4315:4423   */\n      tag_47\n      jump\t// in\n    tag_100:\n        /* \"#utility.yul\":4307:4423   */\n      swap1\n      pop\n        /* \"#utility.yul\":4057:4430   */\n      swap3\n      swap2\n      pop\n      pop\n      jump\t// out\n        /* \"#utility.yul\":4436:4554   */\n    tag_48:\n        /* \"#utility.yul\":4523:4547   */\n      tag_102\n        /* \"#utility.yul\":4541:4546   */\n      dup2\n        /* \"#utility.yul\":4523:4547   */\n      tag_36\n      jump\t// in\n    tag_102:\n        /* \"#utility.yul\":4518:4521   */\n      dup3\n        /* \"#utility.yul\":4511:4548   */\n      mstore\n        /* \"#utility.yul\":4436:4554   */\n      pop\n      pop\n      jump\t// out\n        /* \"#utility.yul\":4560:4740   */\n    tag_49:\n        /* \"#utility.yul\":4608:4685   */\n      0x4e487b7100000000000000000000000000000000000000000000000000000000\n        /* \"#utility.yul\":4605:4606   */\n      0x00\n        /* \"#utility.yul\":4598:4686   */\n      mstore\n        /* \"#utility.yul\":4705:4709   */\n      0x21\n        /* \"#utility.yul\":4702:4703   */\n      0x04\n        /* \"#utility.yul\":4695:4710   */\n      mstore\n        /* \"#utility.yul\":4729:4733   */\n      0x24\n        /* \"#utility.yul\":4726:4727   */\n      0x00\n        /* \"#utility.yul\":4719:4734   */\n      revert\n        /* \"#utility.yul\":4746:4867   */\n    tag_50:\n        /* \"#utility.yul\":4835:4836   */\n      0x02\n        /* \"#utility.yul\":4828:4833   */\n      dup2\n        /* \"#utility.yul\":4825:4837   */\n      lt\n        /* \"#utility.yul\":4815:4861   */\n      tag_105\n      jumpi\n        /* \"#utility.yul\":4841:4859   */\n      tag_106\n      tag_49\n      jump\t// in\n    tag_106:\n        /* \"#utility.yul\":4815:4861   */\n    tag_105:\n        /* \"#utility.yul\":4746:4867   */\n      pop\n      jump\t// out\n        /* \"#utility.yul\":4873:5016   */\n    tag_51:\n        /* \"#utility.yul\":4926:4933   */\n      0x00\n        /* \"#utility.yul\":4955:4960   */\n      dup2\n        /* \"#utility.yul\":4944:4960   */\n      swap1\n      pop\n        /* \"#utility.yul\":4961:5010   */\n      tag_108\n        /* \"#utility.yul\":5004:5009   */\n      dup3\n        /* \"#utility.yul\":4961:5010   */\n      tag_50\n      jump\t// in\n    tag_108:\n        /* \"#utility.yul\":4873:5016   */\n      swap2\n      swap1\n      pop\n      jump\t// out\n        /* \"#utility.yul\":5022:5165   */\n    tag_52:\n        /* \"#utility.yul\":5086:5095   */\n      0x00\n        /* \"#utility.yul\":5119:5159   */\n      tag_110\n        /* \"#utility.yul\":5153:5158   */\n      dup3\n        /* \"#utility.yul\":5119:5159   */\n      tag_51\n      jump\t// in\n    tag_110:\n        /* \"#utility.yul\":5106:5159   */\n      swap1\n      pop\n        /* \"#utility.yul\":5022:5165   */\n      swap2\n      swap1\n      pop\n      jump\t// out\n        /* \"#utility.yul\":5171:5330   */\n    tag_53:\n        /* \"#utility.yul\":5272:5323   */\n      tag_112\n        /* \"#utility.yul\":5317:5322   */\n      dup2\n        /* \"#utility.yul\":5272:5323   */\n      tag_52\n      jump\t// in\n    tag_112:\n        /* \"#utility.yul\":5267:5270   */\n      dup3\n        /* \"#utility.yul\":5260:5324   */\n      mstore\n        /* \"#utility.yul\":5171:5330   */\n      pop\n      pop\n      jump\t// out\n        /* \"#utility.yul\":5336:5917   */\n    tag_22:\n        /* \"#utility.yul\":5527:5531   */\n      0x00\n        /* \"#utility.yul\":5565:5568   */\n      0x80\n        /* \"#utility.yul\":5554:5563   */\n      dup3\n        /* \"#utility.yul\":5550:5569   */\n      add\n        /* \"#utility.yul\":5542:5569   */\n      swap1\n      pop\n        /* \"#utility.yul\":5579:5650   */\n      tag_114\n        /* \"#utility.yul\":5647:5648   */\n      0x00\n        /* \"#utility.yul\":5636:5645   */\n      dup4\n        /* \"#utility.yul\":5632:5649   */\n      add\n        /* \"#utility.yul\":5623:5629   */\n      dup8\n        /* \"#utility.yul\":5579:5650   */\n      tag_48\n      jump\t// in\n    tag_114:\n        /* \"#utility.yul\":5660:5732   */\n      tag_115\n        /* \"#utility.yul\":5728:5730   */\n      0x20\n        /* \"#utility.yul\":5717:5726   */\n      dup4\n        /* \"#utility.yul\":5713:5731   */\n      add\n        /* \"#utility.yul\":5704:5710   */\n      dup7\n        /* \"#utility.yul\":5660:5732   */\n      tag_48\n      jump\t// in\n    tag_115:\n        /* \"#utility.yul\":5742:5828   */\n      tag_116\n        /* \"#utility.yul\":5824:5826   */\n      0x40\n        /* \"#utility.yul\":5813:5822   */\n      dup4\n        /* \"#utility.yul\":5809:5827   */\n      add\n        /* \"#utility.yul\":5800:5806   */\n      dup6\n        /* \"#utility.yul\":5742:5828   */\n      tag_53\n      jump\t// in\n    tag_116:\n        /* \"#utility.yul\":5838:5910   */\n      tag_117\n        /* \"#utility.yul\":5906:5908   */\n      0x60\n        /* \"#utility.yul\":5895:5904   */\n      dup4\n        /* \"#utility.yul\":5891:5909   */\n      add\n        /* \"#utility.yul\":5882:5888   */\n      dup5\n        /* \"#utility.yul\":5838:5910   */\n      tag_48\n      jump\t// in\n    tag_117:\n        /* \"#utility.yul\":5336:5917   */\n      swap6\n      swap5\n      pop\n      pop\n      pop\n      pop\n      pop\n      jump\t// out\n        /* \"#utility.yul\":5923:6255   */\n    tag_26:\n        /* \"#utility.yul\":6044:6048   */\n      0x00\n        /* \"#utility.yul\":6082:6084   */\n      0x40\n        /* \"#utility.yul\":6071:6080   */\n      dup3\n        /* \"#utility.yul\":6067:6085   */\n      add\n        /* \"#utility.yul\":6059:6085   */\n      swap1\n      pop\n        /* \"#utility.yul\":6095:6166   */\n      tag_119\n        /* \"#utility.yul\":6163:6164   */\n      0x00\n        /* \"#utility.yul\":6152:6161   */\n      dup4\n        /* \"#utility.yul\":6148:6165   */\n      add\n        /* \"#utility.yul\":6139:6145   */\n      dup6\n        /* \"#utility.yul\":6095:6166   */\n      tag_48\n      jump\t// in\n    tag_119:\n        /* \"#utility.yul\":6176:6248   */\n      tag_120\n        /* \"#utility.yul\":6244:6246   */\n      0x20\n        /* \"#utility.yul\":6233:6242   */\n      dup4\n        /* \"#utility.yul\":6229:6247   */\n      add\n        /* \"#utility.yul\":6220:6226   */\n      dup5\n        /* \"#utility.yul\":6176:6248   */\n      tag_48\n      jump\t// in\n    tag_120:\n        /* \"#utility.yul\":5923:6255   */\n      swap4\n      swap3\n      pop\n      pop\n      pop\n      jump\t// out\n    stop\n\n    sub_0: assembly {\n            /* \"Project.sol\":92:1068  contract Project {... */\n          mstore(0x40, 0xe0)\n            /* \"Project.sol\":300:616  constructor(... */\n          callvalue\n          dup1\n          iszero\n          tag_1\n          jumpi\n          0x00\n          dup1\n          revert\n        tag_1:\n          pop\n          mload(0x40)\n          sub(codesize, bytecodeSize)\n          dup1\n          bytecodeSize\n          dup4\n          codecopy\n          dup2\n          dup2\n          add\n          0x40\n          mstore\n          dup2\n          add\n          swap1\n          tag_2\n          swap2\n          swap1\n          tag_3\n          jump\t// in\n        tag_2:\n            /* \"Project.sol\":476:483  _leader */\n          dup4\n            /* \"Project.sol\":460:483  leaderAddress = _leader */\n          0xffffffffffffffffffffffffffffffffffffffff\n          and\n          0xa0\n          dup2\n          0xffffffffffffffffffffffffffffffffffffffff\n          and\n          dup2\n          mstore\n          pop\n          pop\n            /* \"Project.sol\":511:526  _originalPoster */\n          dup3\n            /* \"Project.sol\":494:526  originalPoster = _originalPoster */\n          0xffffffffffffffffffffffffffffffffffffffff\n          and\n          0x80\n          dup2\n          0xffffffffffffffffffffffffffffffffffffffff\n          and\n          dup2\n          mstore\n          pop\n          pop\n            /* \"Project.sol\":551:563  _projectType */\n          dup2\n            /* \"Project.sol\":537:548  projectType */\n          0x00\n          dup1\n            /* \"Project.sol\":537:563  projectType = _projectType */\n          0x0100\n          exp\n          dup2\n          sload\n          dup2\n          0xff\n          mul\n          not\n          and\n          swap1\n          dup4\n          0x01\n          dup2\n          gt\n          iszero\n          tag_6\n          jumpi\n          tag_7\n          tag_8\n          jump\t// in\n        tag_7:\n        tag_6:\n          mul\n          or\n          swap1\n          sstore\n          pop\n            /* \"Project.sol\":592:608  _proposalAddress */\n          dup1\n            /* \"Project.sol\":574:608  proposalAddress = _proposalAddress */\n          0xffffffffffffffffffffffffffffffffffffffff\n          and\n          0xc0\n          dup2\n          0xffffffffffffffffffffffffffffffffffffffff\n          and\n          dup2\n          mstore\n          pop\n          pop\n            /* \"Project.sol\":300:616  constructor(... */\n          pop\n          pop\n          pop\n          pop\n            /* \"Project.sol\":92:1068  contract Project {... */\n          jump(tag_9)\n            /* \"#utility.yul\":88:205   */\n        tag_11:\n            /* \"#utility.yul\":197:198   */\n          0x00\n            /* \"#utility.yul\":194:195   */\n          dup1\n            /* \"#utility.yul\":187:199   */\n          revert\n            /* \"#utility.yul\":334:460   */\n        tag_13:\n            /* \"#utility.yul\":371:378   */\n          0x00\n            /* \"#utility.yul\":411:453   */\n          0xffffffffffffffffffffffffffffffffffffffff\n            /* \"#utility.yul\":404:409   */\n          dup3\n            /* \"#utility.yul\":400:454   */\n          and\n            /* \"#utility.yul\":389:454   */\n          swap1\n          pop\n            /* \"#utility.yul\":334:460   */\n          swap2\n          swap1\n          pop\n          jump\t// out\n            /* \"#utility.yul\":466:562   */\n        tag_14:\n            /* \"#utility.yul\":503:510   */\n          0x00\n            /* \"#utility.yul\":532:556   */\n          tag_25\n            /* \"#utility.yul\":550:555   */\n          dup3\n            /* \"#utility.yul\":532:556   */\n          tag_13\n          jump\t// in\n        tag_25:\n            /* \"#utility.yul\":521:556   */\n          swap1\n          pop\n            /* \"#utility.yul\":466:562   */\n          swap2\n          swap1\n          pop\n          jump\t// out\n            /* \"#utility.yul\":568:690   */\n        tag_15:\n            /* \"#utility.yul\":641:665   */\n          tag_27\n            /* \"#utility.yul\":659:664   */\n          dup2\n            /* \"#utility.yul\":641:665   */\n          tag_14\n          jump\t// in\n        tag_27:\n            /* \"#utility.yul\":634:639   */\n          dup2\n            /* \"#utility.yul\":631:666   */\n          eq\n            /* \"#utility.yul\":621:684   */\n          tag_28\n          jumpi\n            /* \"#utility.yul\":680:681   */\n          0x00\n            /* \"#utility.yul\":677:678   */\n          dup1\n            /* \"#utility.yul\":670:682   */\n          revert\n            /* \"#utility.yul\":621:684   */\n        tag_28:\n            /* \"#utility.yul\":568:690   */\n          pop\n          jump\t// out\n            /* \"#utility.yul\":696:839   */\n        tag_16:\n            /* \"#utility.yul\":753:758   */\n          0x00\n            /* \"#utility.yul\":784:790   */\n          dup2\n            /* \"#utility.yul\":778:791   */\n          mload\n            /* \"#utility.yul\":769:791   */\n          swap1\n          pop\n            /* \"#utility.yul\":800:833   */\n          tag_30\n            /* \"#utility.yul\":827:832   */\n          dup2\n            /* \"#utility.yul\":800:833   */\n          tag_15\n          jump\t// in\n        tag_30:\n            /* \"#utility.yul\":696:839   */\n          swap3\n          swap2\n          pop\n          pop\n          jump\t// out\n            /* \"#utility.yul\":845:960   */\n        tag_17:\n            /* \"#utility.yul\":934:935   */\n          0x02\n            /* \"#utility.yul\":927:932   */\n          dup2\n            /* \"#utility.yul\":924:936   */\n          lt\n            /* \"#utility.yul\":914:954   */\n          tag_32\n          jumpi\n            /* \"#utility.yul\":950:951   */\n          0x00\n            /* \"#utility.yul\":947:948   */\n          dup1\n            /* \"#utility.yul\":940:952   */\n          revert\n            /* \"#utility.yul\":914:954   */\n        tag_32:\n            /* \"#utility.yul\":845:960   */\n          pop\n          jump\t// out\n            /* \"#utility.yul\":966:1141   */\n        tag_18:\n            /* \"#utility.yul\":1039:1044   */\n          0x00\n            /* \"#utility.yul\":1070:1076   */\n          dup2\n            /* \"#utility.yul\":1064:1077   */\n          mload\n            /* \"#utility.yul\":1055:1077   */\n          swap1\n          pop\n            /* \"#utility.yul\":1086:1135   */\n          tag_34\n            /* \"#utility.yul\":1129:1134   */\n          dup2\n            /* \"#utility.yul\":1086:1135   */\n          tag_17\n          jump\t// in\n        tag_34:\n            /* \"#utility.yul\":966:1141   */\n          swap3\n          swap2\n          pop\n          pop\n          jump\t// out\n            /* \"#utility.yul\":1147:1999   */\n        tag_3:\n            /* \"#utility.yul\":1260:1266   */\n          0x00\n            /* \"#utility.yul\":1268:1274   */\n          dup1\n            /* \"#utility.yul\":1276:1282   */\n          0x00\n            /* \"#utility.yul\":1284:1290   */\n          dup1\n            /* \"#utility.yul\":1333:1336   */\n          0x80\n            /* \"#utility.yul\":1321:1330   */\n          dup6\n            /* \"#utility.yul\":1312:1319   */\n          dup8\n            /* \"#utility.yul\":1308:1331   */\n          sub\n            /* \"#utility.yul\":1304:1337   */\n          slt\n            /* \"#utility.yul\":1301:1421   */\n          iszero\n          tag_36\n          jumpi\n            /* \"#utility.yul\":1340:1419   */\n          tag_37\n          tag_11\n          jump\t// in\n        tag_37:\n            /* \"#utility.yul\":1301:1421   */\n        tag_36:\n            /* \"#utility.yul\":1460:1461   */\n          0x00\n            /* \"#utility.yul\":1485:1549   */\n          tag_38\n            /* \"#utility.yul\":1541:1548   */\n          dup8\n            /* \"#utility.yul\":1532:1538   */\n          dup3\n            /* \"#utility.yul\":1521:1530   */\n          dup9\n            /* \"#utility.yul\":1517:1539   */\n          add\n            /* \"#utility.yul\":1485:1549   */\n          tag_16\n          jump\t// in\n        tag_38:\n            /* \"#utility.yul\":1475:1549   */\n          swap5\n          pop\n            /* \"#utility.yul\":1431:1559   */\n          pop\n            /* \"#utility.yul\":1598:1600   */\n          0x20\n            /* \"#utility.yul\":1624:1688   */\n          tag_39\n            /* \"#utility.yul\":1680:1687   */\n          dup8\n            /* \"#utility.yul\":1671:1677   */\n          dup3\n            /* \"#utility.yul\":1660:1669   */\n          dup9\n            /* \"#utility.yul\":1656:1678   */\n          add\n            /* \"#utility.yul\":1624:1688   */\n          tag_16\n          jump\t// in\n        tag_39:\n            /* \"#utility.yul\":1614:1688   */\n          swap4\n          pop\n            /* \"#utility.yul\":1569:1698   */\n          pop\n            /* \"#utility.yul\":1737:1739   */\n          0x40\n            /* \"#utility.yul\":1763:1843   */\n          tag_40\n            /* \"#utility.yul\":1835:1842   */\n          dup8\n            /* \"#utility.yul\":1826:1832   */\n          dup3\n            /* \"#utility.yul\":1815:1824   */\n          dup9\n            /* \"#utility.yul\":1811:1833   */\n          add\n            /* \"#utility.yul\":1763:1843   */\n          tag_18\n          jump\t// in\n        tag_40:\n            /* \"#utility.yul\":1753:1843   */\n          swap3\n          pop\n            /* \"#utility.yul\":1708:1853   */\n          pop\n            /* \"#utility.yul\":1892:1894   */\n          0x60\n            /* \"#utility.yul\":1918:1982   */\n          tag_41\n            /* \"#utility.yul\":1974:1981   */\n          dup8\n            /* \"#utility.yul\":1965:1971   */\n          dup3\n            /* \"#utility.yul\":1954:1963   */\n          dup9\n            /* \"#utility.yul\":1950:1972   */\n          add\n            /* \"#utility.yul\":1918:1982   */\n          tag_16\n          jump\t// in\n        tag_41:\n            /* \"#utility.yul\":1908:1982   */\n          swap2\n          pop\n            /* \"#utility.yul\":1863:1992   */\n          pop\n            /* \"#utility.yul\":1147:1999   */\n          swap3\n          swap6\n          swap2\n          swap5\n          pop\n          swap3\n          pop\n          jump\t// out\n            /* \"#utility.yul\":2005:2185   */\n        tag_8:\n            /* \"#utility.yul\":2053:2130   */\n          0x4e487b7100000000000000000000000000000000000000000000000000000000\n            /* \"#utility.yul\":2050:2051   */\n          0x00\n            /* \"#utility.yul\":2043:2131   */\n          mstore\n            /* \"#utility.yul\":2150:2154   */\n          0x21\n            /* \"#utility.yul\":2147:2148   */\n          0x04\n            /* \"#utility.yul\":2140:2155   */\n          mstore\n            /* \"#utility.yul\":2174:2178   */\n          0x24\n            /* \"#utility.yul\":2171:2172   */\n          0x00\n            /* \"#utility.yul\":2164:2179   */\n          revert\n            /* \"Project.sol\":92:1068  contract Project {... */\n        tag_9:\n          mload(0x80)\n          mload(0xa0)\n          mload(0xc0)\n          codecopy(0x00, dataOffset(sub_0), dataSize(sub_0))\n          0x00\n          assignImmutable(\"0x1c4db340715341f2094e27ca1dd2b4235f31d3ab886fce88b82fac390f847f6e\")\n          0x00\n          assignImmutable(\"0xcc63ccbda45fb0367a79e24d2e554962f9442e94a5ae57c3e12337a069df4f80\")\n          0x00\n          assignImmutable(\"0x0878797cdfc1ddb1f7dac03a85224472dc2a836f7203bfa5d1dcbed3a851ef97\")\n          return(0x00, dataSize(sub_0))\n        stop\n\n        sub_0: assembly {\n                /* \"Project.sol\":92:1068  contract Project {... */\n              mstore(0x40, 0x80)\n              callvalue\n              dup1\n              iszero\n              tag_1\n              jumpi\n              0x00\n              dup1\n              revert\n            tag_1:\n              pop\n              jumpi(tag_2, lt(calldatasize, 0x04))\n              shr(0xe0, calldataload(0x00))\n              dup1\n              0xb6c786d3\n              gt\n              tag_12\n              jumpi\n              dup1\n              0xb6c786d3\n              eq\n              tag_7\n              jumpi\n              dup1\n              0xc2fc0d26\n              eq\n              tag_8\n              jumpi\n              dup1\n              0xc4f6b0fa\n              eq\n              tag_9\n              jumpi\n              dup1\n              0xe917b027\n              eq\n              tag_10\n              jumpi\n              dup1\n              0xfaff660e\n              eq\n              tag_11\n              jumpi\n              jump(tag_2)\n            tag_12:\n              dup1\n              0x171a47cd\n              eq\n              tag_3\n              jumpi\n              dup1\n              0x2551cb65\n              eq\n              tag_4\n              jumpi\n              dup1\n              0xa4c2f651\n              eq\n              tag_5\n              jumpi\n              dup1\n              0xb1e9451a\n              eq\n              tag_6\n              jumpi\n            tag_2:\n              0x00\n              dup1\n              revert\n                /* \"Project.sol\":1017:1065  function setIsPrivate(bool _isPrivate) public {} */\n            tag_3:\n              tag_13\n              0x04\n              dup1\n              calldatasize\n              sub\n              dup2\n              add\n              swap1\n              tag_14\n              swap2\n              swap1\n              tag_15\n              jump\t// in\n            tag_14:\n              tag_16\n              jump\t// in\n            tag_13:\n              stop\n                /* \"Project.sol\":745:815  function getProjectMembers() public view returns (address[] memory) {} */\n            tag_4:\n              tag_17\n              tag_18\n              jump\t// in\n            tag_17:\n              mload(0x40)\n              tag_19\n              swap2\n              swap1\n              tag_20\n              jump\t// in\n            tag_19:\n              mload(0x40)\n              dup1\n              swap2\n              sub\n              swap1\n              return\n                /* \"Project.sol\":823:874  function setProjectLeader(address member) public {} */\n            tag_5:\n              tag_21\n              0x04\n              dup1\n              calldatasize\n              sub\n              dup2\n              add\n              swap1\n              tag_22\n              swap2\n              swap1\n              tag_23\n              jump\t// in\n            tag_22:\n              tag_24\n              jump\t// in\n            tag_21:\n              stop\n                /* \"Project.sol\":683:737  function removeProjectMember(address member) public {} */\n            tag_6:\n              tag_25\n              0x04\n              dup1\n              calldatasize\n              sub\n              dup2\n              add\n              swap1\n              tag_26\n              swap2\n              swap1\n              tag_23\n              jump\t// in\n            tag_26:\n              tag_27\n              jump\t// in\n            tag_25:\n              stop\n                /* \"Project.sol\":624:675  function addProjectMember(address member) public {} */\n            tag_7:\n              tag_28\n              0x04\n              dup1\n              calldatasize\n              sub\n              dup2\n              add\n              swap1\n              tag_29\n              swap2\n              swap1\n              tag_23\n              jump\t// in\n            tag_29:\n              tag_30\n              jump\t// in\n            tag_28:\n              stop\n                /* \"Project.sol\":233:263  ProjectType public projectType */\n            tag_8:\n              tag_31\n              tag_32\n              jump\t// in\n            tag_31:\n              mload(0x40)\n              tag_33\n              swap2\n              swap1\n              tag_34\n              jump\t// in\n            tag_33:\n              mload(0x40)\n              dup1\n              swap2\n              sub\n              swap1\n              return\n                /* \"Project.sol\":942:1009  function setProjectDescription(string memory description) public {} */\n            tag_9:\n              tag_35\n              0x04\n              dup1\n              calldatasize\n              sub\n              dup2\n              add\n              swap1\n              tag_36\n              swap2\n              swap1\n              tag_37\n              jump\t// in\n            tag_36:\n              tag_38\n              jump\t// in\n            tag_35:\n              stop\n                /* \"Project.sol\":882:934  function setProjectManager(address member) public {} */\n            tag_10:\n              tag_39\n              0x04\n              dup1\n              calldatasize\n              sub\n              dup2\n              add\n              swap1\n              tag_40\n              swap2\n              swap1\n              tag_23\n              jump\t// in\n            tag_40:\n              tag_41\n              jump\t// in\n            tag_39:\n              stop\n                /* \"Project.sol\":270:291  bool public isPrivate */\n            tag_11:\n              tag_42\n              tag_43\n              jump\t// in\n            tag_42:\n              mload(0x40)\n              tag_44\n              swap2\n              swap1\n              tag_45\n              jump\t// in\n            tag_44:\n              mload(0x40)\n              dup1\n              swap2\n              sub\n              swap1\n              return\n                /* \"Project.sol\":1017:1065  function setIsPrivate(bool _isPrivate) public {} */\n            tag_16:\n              pop\n              jump\t// out\n                /* \"Project.sol\":745:815  function getProjectMembers() public view returns (address[] memory) {} */\n            tag_18:\n                /* \"Project.sol\":795:811  address[] memory */\n              0x60\n                /* \"Project.sol\":745:815  function getProjectMembers() public view returns (address[] memory) {} */\n              swap1\n              jump\t// out\n                /* \"Project.sol\":823:874  function setProjectLeader(address member) public {} */\n            tag_24:\n              pop\n              jump\t// out\n                /* \"Project.sol\":683:737  function removeProjectMember(address member) public {} */\n            tag_27:\n              pop\n              jump\t// out\n                /* \"Project.sol\":624:675  function addProjectMember(address member) public {} */\n            tag_30:\n              pop\n              jump\t// out\n                /* \"Project.sol\":233:263  ProjectType public projectType */\n            tag_32:\n              0x00\n              dup1\n              sload\n              swap1\n              0x0100\n              exp\n              swap1\n              div\n              0xff\n              and\n              dup2\n              jump\t// out\n                /* \"Project.sol\":942:1009  function setProjectDescription(string memory description) public {} */\n            tag_38:\n              pop\n              jump\t// out\n                /* \"Project.sol\":882:934  function setProjectManager(address member) public {} */\n            tag_41:\n              pop\n              jump\t// out\n                /* \"Project.sol\":270:291  bool public isPrivate */\n            tag_43:\n              0x00\n              0x01\n              swap1\n              sload\n              swap1\n              0x0100\n              exp\n              swap1\n              div\n              0xff\n              and\n              dup2\n              jump\t// out\n                /* \"#utility.yul\":7:82   */\n            tag_53:\n                /* \"#utility.yul\":40:46   */\n              0x00\n                /* \"#utility.yul\":73:75   */\n              0x40\n                /* \"#utility.yul\":67:76   */\n              mload\n                /* \"#utility.yul\":57:76   */\n              swap1\n              pop\n                /* \"#utility.yul\":7:82   */\n              swap1\n              jump\t// out\n                /* \"#utility.yul\":88:205   */\n            tag_54:\n                /* \"#utility.yul\":197:198   */\n              0x00\n                /* \"#utility.yul\":194:195   */\n              dup1\n                /* \"#utility.yul\":187:199   */\n              revert\n                /* \"#utility.yul\":211:328   */\n            tag_55:\n                /* \"#utility.yul\":320:321   */\n              0x00\n                /* \"#utility.yul\":317:318   */\n              dup1\n                /* \"#utility.yul\":310:322   */\n              revert\n                /* \"#utility.yul\":334:424   */\n            tag_56:\n                /* \"#utility.yul\":368:375   */\n              0x00\n                /* \"#utility.yul\":411:416   */\n              dup2\n                /* \"#utility.yul\":404:417   */\n              iszero\n                /* \"#utility.yul\":397:418   */\n              iszero\n                /* \"#utility.yul\":386:418   */\n              swap1\n              pop\n                /* \"#utility.yul\":334:424   */\n              swap2\n              swap1\n              pop\n              jump\t// out\n                /* \"#utility.yul\":430:546   */\n            tag_57:\n                /* \"#utility.yul\":500:521   */\n              tag_92\n                /* \"#utility.yul\":515:520   */\n              dup2\n                /* \"#utility.yul\":500:521   */\n              tag_56\n              jump\t// in\n            tag_92:\n                /* \"#utility.yul\":493:498   */\n              dup2\n                /* \"#utility.yul\":490:522   */\n              eq\n                /* \"#utility.yul\":480:540   */\n              tag_93\n              jumpi\n                /* \"#utility.yul\":536:537   */\n              0x00\n                /* \"#utility.yul\":533:534   */\n              dup1\n                /* \"#utility.yul\":526:538   */\n              revert\n                /* \"#utility.yul\":480:540   */\n            tag_93:\n                /* \"#utility.yul\":430:546   */\n              pop\n              jump\t// out\n                /* \"#utility.yul\":552:685   */\n            tag_58:\n                /* \"#utility.yul\":595:600   */\n              0x00\n                /* \"#utility.yul\":633:639   */\n              dup2\n                /* \"#utility.yul\":620:640   */\n              calldataload\n                /* \"#utility.yul\":611:640   */\n              swap1\n              pop\n                /* \"#utility.yul\":649:679   */\n              tag_95\n                /* \"#utility.yul\":673:678   */\n              dup2\n                /* \"#utility.yul\":649:679   */\n              tag_57\n              jump\t// in\n            tag_95:\n                /* \"#utility.yul\":552:685   */\n              swap3\n              swap2\n              pop\n              pop\n              jump\t// out\n                /* \"#utility.yul\":691:1014   */\n            tag_15:\n                /* \"#utility.yul\":747:753   */\n              0x00\n                /* \"#utility.yul\":796:798   */\n              0x20\n                /* \"#utility.yul\":784:793   */\n              dup3\n                /* \"#utility.yul\":775:782   */\n              dup5\n                /* \"#utility.yul\":771:794   */\n              sub\n                /* \"#utility.yul\":767:799   */\n              slt\n                /* \"#utility.yul\":764:883   */\n              iszero\n              tag_97\n              jumpi\n                /* \"#utility.yul\":802:881   */\n              tag_98\n              tag_54\n              jump\t// in\n            tag_98:\n                /* \"#utility.yul\":764:883   */\n            tag_97:\n                /* \"#utility.yul\":922:923   */\n              0x00\n                /* \"#utility.yul\":947:997   */\n              tag_99\n                /* \"#utility.yul\":989:996   */\n              dup5\n                /* \"#utility.yul\":980:986   */\n              dup3\n                /* \"#utility.yul\":969:978   */\n              dup6\n                /* \"#utility.yul\":965:987   */\n              add\n                /* \"#utility.yul\":947:997   */\n              tag_58\n              jump\t// in\n            tag_99:\n                /* \"#utility.yul\":937:997   */\n              swap2\n              pop\n                /* \"#utility.yul\":893:1007   */\n              pop\n                /* \"#utility.yul\":691:1014   */\n              swap3\n              swap2\n              pop\n              pop\n              jump\t// out\n                /* \"#utility.yul\":1020:1134   */\n            tag_59:\n                /* \"#utility.yul\":1087:1093   */\n              0x00\n                /* \"#utility.yul\":1121:1126   */\n              dup2\n                /* \"#utility.yul\":1115:1127   */\n              mload\n                /* \"#utility.yul\":1105:1127   */\n              swap1\n              pop\n                /* \"#utility.yul\":1020:1134   */\n              swap2\n              swap1\n              pop\n              jump\t// out\n                /* \"#utility.yul\":1140:1324   */\n            tag_60:\n                /* \"#utility.yul\":1239:1250   */\n              0x00\n                /* \"#utility.yul\":1273:1279   */\n              dup3\n                /* \"#utility.yul\":1268:1271   */\n              dup3\n                /* \"#utility.yul\":1261:1280   */\n              mstore\n                /* \"#utility.yul\":1313:1317   */\n              0x20\n                /* \"#utility.yul\":1308:1311   */\n              dup3\n                /* \"#utility.yul\":1304:1318   */\n              add\n                /* \"#utility.yul\":1289:1318   */\n              swap1\n              pop\n                /* \"#utility.yul\":1140:1324   */\n              swap3\n              swap2\n              pop\n              pop\n              jump\t// out\n                /* \"#utility.yul\":1330:1462   */\n            tag_61:\n                /* \"#utility.yul\":1397:1401   */\n              0x00\n                /* \"#utility.yul\":1420:1423   */\n              dup2\n                /* \"#utility.yul\":1412:1423   */\n              swap1\n              pop\n                /* \"#utility.yul\":1450:1454   */\n              0x20\n                /* \"#utility.yul\":1445:1448   */\n              dup3\n                /* \"#utility.yul\":1441:1455   */\n              add\n                /* \"#utility.yul\":1433:1455   */\n              swap1\n              pop\n                /* \"#utility.yul\":1330:1462   */\n              swap2\n              swap1\n              pop\n              jump\t// out\n                /* \"#utility.yul\":1468:1594   */\n            tag_62:\n                /* \"#utility.yul\":1505:1512   */\n              0x00\n                /* \"#utility.yul\":1545:1587   */\n              0xffffffffffffffffffffffffffffffffffffffff\n                /* \"#utility.yul\":1538:1543   */\n              dup3\n                /* \"#utility.yul\":1534:1588   */\n              and\n                /* \"#utility.yul\":1523:1588   */\n              swap1\n              pop\n                /* \"#utility.yul\":1468:1594   */\n              swap2\n              swap1\n              pop\n              jump\t// out\n                /* \"#utility.yul\":1600:1696   */\n            tag_63:\n                /* \"#utility.yul\":1637:1644   */\n              0x00\n                /* \"#utility.yul\":1666:1690   */\n              tag_105\n                /* \"#utility.yul\":1684:1689   */\n              dup3\n                /* \"#utility.yul\":1666:1690   */\n              tag_62\n              jump\t// in\n            tag_105:\n                /* \"#utility.yul\":1655:1690   */\n              swap1\n              pop\n                /* \"#utility.yul\":1600:1696   */\n              swap2\n              swap1\n              pop\n              jump\t// out\n                /* \"#utility.yul\":1702:1810   */\n            tag_64:\n                /* \"#utility.yul\":1779:1803   */\n              tag_107\n                /* \"#utility.yul\":1797:1802   */\n              dup2\n                /* \"#utility.yul\":1779:1803   */\n              tag_63\n              jump\t// in\n            tag_107:\n                /* \"#utility.yul\":1774:1777   */\n              dup3\n                /* \"#utility.yul\":1767:1804   */\n              mstore\n                /* \"#utility.yul\":1702:1810   */\n              pop\n              pop\n              jump\t// out\n                /* \"#utility.yul\":1816:1995   */\n            tag_65:\n                /* \"#utility.yul\":1885:1895   */\n              0x00\n                /* \"#utility.yul\":1906:1952   */\n              tag_109\n                /* \"#utility.yul\":1948:1951   */\n              dup4\n                /* \"#utility.yul\":1940:1946   */\n              dup4\n                /* \"#utility.yul\":1906:1952   */\n              tag_64\n              jump\t// in\n            tag_109:\n                /* \"#utility.yul\":1984:1988   */\n              0x20\n                /* \"#utility.yul\":1979:1982   */\n              dup4\n                /* \"#utility.yul\":1975:1989   */\n              add\n                /* \"#utility.yul\":1961:1989   */\n              swap1\n              pop\n                /* \"#utility.yul\":1816:1995   */\n              swap3\n              swap2\n              pop\n              pop\n              jump\t// out\n                /* \"#utility.yul\":2001:2114   */\n            tag_66:\n                /* \"#utility.yul\":2071:2075   */\n              0x00\n                /* \"#utility.yul\":2103:2107   */\n              0x20\n                /* \"#utility.yul\":2098:2101   */\n              dup3\n                /* \"#utility.yul\":2094:2108   */\n              add\n                /* \"#utility.yul\":2086:2108   */\n              swap1\n              pop\n                /* \"#utility.yul\":2001:2114   */\n              swap2\n              swap1\n              pop\n              jump\t// out\n                /* \"#utility.yul\":2150:2882   */\n            tag_67:\n                /* \"#utility.yul\":2269:2272   */\n              0x00\n                /* \"#utility.yul\":2298:2352   */\n              tag_112\n                /* \"#utility.yul\":2346:2351   */\n              dup3\n                /* \"#utility.yul\":2298:2352   */\n              tag_59\n              jump\t// in\n            tag_112:\n                /* \"#utility.yul\":2368:2454   */\n              tag_113\n                /* \"#utility.yul\":2447:2453   */\n              dup2\n                /* \"#utility.yul\":2442:2445   */\n              dup6\n                /* \"#utility.yul\":2368:2454   */\n              tag_60\n              jump\t// in\n            tag_113:\n                /* \"#utility.yul\":2361:2454   */\n              swap4\n              pop\n                /* \"#utility.yul\":2478:2534   */\n              tag_114\n                /* \"#utility.yul\":2528:2533   */\n              dup4\n                /* \"#utility.yul\":2478:2534   */\n              tag_61\n              jump\t// in\n            tag_114:\n                /* \"#utility.yul\":2557:2564   */\n              dup1\n                /* \"#utility.yul\":2588:2589   */\n              0x00\n                /* \"#utility.yul\":2573:2857   */\n            tag_115:\n                /* \"#utility.yul\":2598:2604   */\n              dup4\n                /* \"#utility.yul\":2595:2596   */\n              dup2\n                /* \"#utility.yul\":2592:2605   */\n              lt\n                /* \"#utility.yul\":2573:2857   */\n              iszero\n              tag_117\n              jumpi\n                /* \"#utility.yul\":2674:2680   */\n              dup2\n                /* \"#utility.yul\":2668:2681   */\n              mload\n                /* \"#utility.yul\":2701:2764   */\n              tag_118\n                /* \"#utility.yul\":2760:2763   */\n              dup9\n                /* \"#utility.yul\":2745:2758   */\n              dup3\n                /* \"#utility.yul\":2701:2764   */\n              tag_65\n              jump\t// in\n            tag_118:\n                /* \"#utility.yul\":2694:2764   */\n              swap8\n              pop\n                /* \"#utility.yul\":2787:2847   */\n              tag_119\n                /* \"#utility.yul\":2840:2846   */\n              dup4\n                /* \"#utility.yul\":2787:2847   */\n              tag_66\n              jump\t// in\n            tag_119:\n                /* \"#utility.yul\":2777:2847   */\n              swap3\n              pop\n                /* \"#utility.yul\":2633:2857   */\n              pop\n                /* \"#utility.yul\":2620:2621   */\n              0x01\n                /* \"#utility.yul\":2617:2618   */\n              dup2\n                /* \"#utility.yul\":2613:2622   */\n              add\n                /* \"#utility.yul\":2608:2622   */\n              swap1\n              pop\n                /* \"#utility.yul\":2573:2857   */\n              jump(tag_115)\n            tag_117:\n                /* \"#utility.yul\":2577:2591   */\n              pop\n                /* \"#utility.yul\":2873:2876   */\n              dup6\n                /* \"#utility.yul\":2866:2876   */\n              swap4\n              pop\n                /* \"#utility.yul\":2274:2882   */\n              pop\n              pop\n              pop\n                /* \"#utility.yul\":2150:2882   */\n              swap3\n              swap2\n              pop\n              pop\n              jump\t// out\n                /* \"#utility.yul\":2888:3261   */\n            tag_20:\n                /* \"#utility.yul\":3031:3035   */\n              0x00\n                /* \"#utility.yul\":3069:3071   */\n              0x20\n                /* \"#utility.yul\":3058:3067   */\n              dup3\n                /* \"#utility.yul\":3054:3072   */\n              add\n                /* \"#utility.yul\":3046:3072   */\n              swap1\n              pop\n                /* \"#utility.yul\":3118:3127   */\n              dup2\n                /* \"#utility.yul\":3112:3116   */\n              dup2\n                /* \"#utility.yul\":3108:3128   */\n              sub\n                /* \"#utility.yul\":3104:3105   */\n              0x00\n                /* \"#utility.yul\":3093:3102   */\n              dup4\n                /* \"#utility.yul\":3089:3106   */\n              add\n                /* \"#utility.yul\":3082:3129   */\n              mstore\n                /* \"#utility.yul\":3146:3254   */\n              tag_121\n                /* \"#utility.yul\":3249:3253   */\n              dup2\n                /* \"#utility.yul\":3240:3246   */\n              dup5\n                /* \"#utility.yul\":3146:3254   */\n              tag_67\n              jump\t// in\n            tag_121:\n                /* \"#utility.yul\":3138:3254   */\n              swap1\n              pop\n                /* \"#utility.yul\":2888:3261   */\n              swap3\n              swap2\n              pop\n              pop\n              jump\t// out\n                /* \"#utility.yul\":3267:3389   */\n            tag_68:\n                /* \"#utility.yul\":3340:3364   */\n              tag_123\n                /* \"#utility.yul\":3358:3363   */\n              dup2\n                /* \"#utility.yul\":3340:3364   */\n              tag_63\n              jump\t// in\n            tag_123:\n                /* \"#utility.yul\":3333:3338   */\n              dup2\n                /* \"#utility.yul\":3330:3365   */\n              eq\n                /* \"#utility.yul\":3320:3383   */\n              tag_124\n              jumpi\n                /* \"#utility.yul\":3379:3380   */\n              0x00\n                /* \"#utility.yul\":3376:3377   */\n              dup1\n                /* \"#utility.yul\":3369:3381   */\n              revert\n                /* \"#utility.yul\":3320:3383   */\n            tag_124:\n                /* \"#utility.yul\":3267:3389   */\n              pop\n              jump\t// out\n                /* \"#utility.yul\":3395:3534   */\n            tag_69:\n                /* \"#utility.yul\":3441:3446   */\n              0x00\n                /* \"#utility.yul\":3479:3485   */\n              dup2\n                /* \"#utility.yul\":3466:3486   */\n              calldataload\n                /* \"#utility.yul\":3457:3486   */\n              swap1\n              pop\n                /* \"#utility.yul\":3495:3528   */\n              tag_126\n                /* \"#utility.yul\":3522:3527   */\n              dup2\n                /* \"#utility.yul\":3495:3528   */\n              tag_68\n              jump\t// in\n            tag_126:\n                /* \"#utility.yul\":3395:3534   */\n              swap3\n              swap2\n              pop\n              pop\n              jump\t// out\n                /* \"#utility.yul\":3540:3869   */\n            tag_23:\n                /* \"#utility.yul\":3599:3605   */\n              0x00\n                /* \"#utility.yul\":3648:3650   */\n              0x20\n                /* \"#utility.yul\":3636:3645   */\n              dup3\n                /* \"#utility.yul\":3627:3634   */\n              dup5\n                /* \"#utility.yul\":3623:3646   */\n              sub\n                /* \"#utility.yul\":3619:3651   */\n              slt\n                /* \"#utility.yul\":3616:3735   */\n              iszero\n              tag_128\n              jumpi\n                /* \"#utility.yul\":3654:3733   */\n              tag_129\n              tag_54\n              jump\t// in\n            tag_129:\n                /* \"#utility.yul\":3616:3735   */\n            tag_128:\n                /* \"#utility.yul\":3774:3775   */\n              0x00\n                /* \"#utility.yul\":3799:3852   */\n              tag_130\n                /* \"#utility.yul\":3844:3851   */\n              dup5\n                /* \"#utility.yul\":3835:3841   */\n              dup3\n                /* \"#utility.yul\":3824:3833   */\n              dup6\n                /* \"#utility.yul\":3820:3842   */\n              add\n                /* \"#utility.yul\":3799:3852   */\n              tag_69\n              jump\t// in\n            tag_130:\n                /* \"#utility.yul\":3789:3852   */\n              swap2\n              pop\n                /* \"#utility.yul\":3745:3862   */\n              pop\n                /* \"#utility.yul\":3540:3869   */\n              swap3\n              swap2\n              pop\n              pop\n              jump\t// out\n                /* \"#utility.yul\":3875:4055   */\n            tag_70:\n                /* \"#utility.yul\":3923:4000   */\n              0x4e487b7100000000000000000000000000000000000000000000000000000000\n                /* \"#utility.yul\":3920:3921   */\n              0x00\n                /* \"#utility.yul\":3913:4001   */\n              mstore\n                /* \"#utility.yul\":4020:4024   */\n              0x21\n                /* \"#utility.yul\":4017:4018   */\n              0x04\n                /* \"#utility.yul\":4010:4025   */\n              mstore\n                /* \"#utility.yul\":4044:4048   */\n              0x24\n                /* \"#utility.yul\":4041:4042   */\n              0x00\n                /* \"#utility.yul\":4034:4049   */\n              revert\n                /* \"#utility.yul\":4061:4182   */\n            tag_71:\n                /* \"#utility.yul\":4150:4151   */\n              0x02\n                /* \"#utility.yul\":4143:4148   */\n              dup2\n                /* \"#utility.yul\":4140:4152   */\n              lt\n                /* \"#utility.yul\":4130:4176   */\n              tag_133\n              jumpi\n                /* \"#utility.yul\":4156:4174   */\n              tag_134\n              tag_70\n              jump\t// in\n            tag_134:\n                /* \"#utility.yul\":4130:4176   */\n            tag_133:\n                /* \"#utility.yul\":4061:4182   */\n              pop\n              jump\t// out\n                /* \"#utility.yul\":4188:4331   */\n            tag_72:\n                /* \"#utility.yul\":4241:4248   */\n              0x00\n                /* \"#utility.yul\":4270:4275   */\n              dup2\n                /* \"#utility.yul\":4259:4275   */\n              swap1\n              pop\n                /* \"#utility.yul\":4276:4325   */\n              tag_136\n                /* \"#utility.yul\":4319:4324   */\n              dup3\n                /* \"#utility.yul\":4276:4325   */\n              tag_71\n              jump\t// in\n            tag_136:\n                /* \"#utility.yul\":4188:4331   */\n              swap2\n              swap1\n              pop\n              jump\t// out\n                /* \"#utility.yul\":4337:4480   */\n            tag_73:\n                /* \"#utility.yul\":4401:4410   */\n              0x00\n                /* \"#utility.yul\":4434:4474   */\n              tag_138\n                /* \"#utility.yul\":4468:4473   */\n              dup3\n                /* \"#utility.yul\":4434:4474   */\n              tag_72\n              jump\t// in\n            tag_138:\n                /* \"#utility.yul\":4421:4474   */\n              swap1\n              pop\n                /* \"#utility.yul\":4337:4480   */\n              swap2\n              swap1\n              pop\n              jump\t// out\n                /* \"#utility.yul\":4486:4645   */\n            tag_74:\n                /* \"#utility.yul\":4587:4638   */\n              tag_140\n                /* \"#utility.yul\":4632:4637   */\n              dup2\n                /* \"#utility.yul\":4587:4638   */\n              tag_73\n              jump\t// in\n            tag_140:\n                /* \"#utility.yul\":4582:4585   */\n              dup3\n                /* \"#utility.yul\":4575:4639   */\n              mstore\n                /* \"#utility.yul\":4486:4645   */\n              pop\n              pop\n              jump\t// out\n                /* \"#utility.yul\":4651:4901   */\n            tag_34:\n                /* \"#utility.yul\":4758:4762   */\n              0x00\n                /* \"#utility.yul\":4796:4798   */\n              0x20\n                /* \"#utility.yul\":4785:4794   */\n              dup3\n                /* \"#utility.yul\":4781:4799   */\n              add\n                /* \"#utility.yul\":4773:4799   */\n              swap1\n              pop\n                /* \"#utility.yul\":4809:4894   */\n              tag_142\n                /* \"#utility.yul\":4891:4892   */\n              0x00\n                /* \"#utility.yul\":4880:4889   */\n              dup4\n                /* \"#utility.yul\":4876:4893   */\n              add\n                /* \"#utility.yul\":4867:4873   */\n              dup5\n                /* \"#utility.yul\":4809:4894   */\n              tag_74\n              jump\t// in\n            tag_142:\n                /* \"#utility.yul\":4651:4901   */\n              swap3\n              swap2\n              pop\n              pop\n              jump\t// out\n                /* \"#utility.yul\":4907:5024   */\n            tag_75:\n                /* \"#utility.yul\":5016:5017   */\n              0x00\n                /* \"#utility.yul\":5013:5014   */\n              dup1\n                /* \"#utility.yul\":5006:5018   */\n              revert\n                /* \"#utility.yul\":5030:5147   */\n            tag_76:\n                /* \"#utility.yul\":5139:5140   */\n              0x00\n                /* \"#utility.yul\":5136:5137   */\n              dup1\n                /* \"#utility.yul\":5129:5141   */\n              revert\n                /* \"#utility.yul\":5153:5255   */\n            tag_77:\n                /* \"#utility.yul\":5194:5200   */\n              0x00\n                /* \"#utility.yul\":5245:5247   */\n              0x1f\n                /* \"#utility.yul\":5241:5248   */\n              not\n                /* \"#utility.yul\":5236:5238   */\n              0x1f\n                /* \"#utility.yul\":5229:5234   */\n              dup4\n                /* \"#utility.yul\":5225:5239   */\n              add\n                /* \"#utility.yul\":5221:5249   */\n              and\n                /* \"#utility.yul\":5211:5249   */\n              swap1\n              pop\n                /* \"#utility.yul\":5153:5255   */\n              swap2\n              swap1\n              pop\n              jump\t// out\n                /* \"#utility.yul\":5261:5441   */\n            tag_78:\n                /* \"#utility.yul\":5309:5386   */\n              0x4e487b7100000000000000000000000000000000000000000000000000000000\n                /* \"#utility.yul\":5306:5307   */\n              0x00\n                /* \"#utility.yul\":5299:5387   */\n              mstore\n                /* \"#utility.yul\":5406:5410   */\n              0x41\n                /* \"#utility.yul\":5403:5404   */\n              0x04\n                /* \"#utility.yul\":5396:5411   */\n              mstore\n                /* \"#utility.yul\":5430:5434   */\n              0x24\n                /* \"#utility.yul\":5427:5428   */\n              0x00\n                /* \"#utility.yul\":5420:5435   */\n              revert\n                /* \"#utility.yul\":5447:5728   */\n            tag_79:\n                /* \"#utility.yul\":5530:5557   */\n              tag_148\n                /* \"#utility.yul\":5552:5556   */\n              dup3\n                /* \"#utility.yul\":5530:5557   */\n              tag_77\n              jump\t// in\n            tag_148:\n                /* \"#utility.yul\":5522:5528   */\n              dup2\n                /* \"#utility.yul\":5518:5558   */\n              add\n                /* \"#utility.yul\":5660:5666   */\n              dup2\n                /* \"#utility.yul\":5648:5658   */\n              dup2\n                /* \"#utility.yul\":5645:5667   */\n              lt\n                /* \"#utility.yul\":5624:5642   */\n              0xffffffffffffffff\n                /* \"#utility.yul\":5612:5622   */\n              dup3\n                /* \"#utility.yul\":5609:5643   */\n              gt\n                /* \"#utility.yul\":5606:5668   */\n              or\n                /* \"#utility.yul\":5603:5691   */\n              iszero\n              tag_149\n              jumpi\n                /* \"#utility.yul\":5671:5689   */\n              tag_150\n              tag_78\n              jump\t// in\n            tag_150:\n                /* \"#utility.yul\":5603:5691   */\n            tag_149:\n                /* \"#utility.yul\":5711:5721   */\n              dup1\n                /* \"#utility.yul\":5707:5709   */\n              0x40\n                /* \"#utility.yul\":5700:5722   */\n              mstore\n                /* \"#utility.yul\":5490:5728   */\n              pop\n                /* \"#utility.yul\":5447:5728   */\n              pop\n              pop\n              jump\t// out\n                /* \"#utility.yul\":5734:5863   */\n            tag_80:\n                /* \"#utility.yul\":5768:5774   */\n              0x00\n                /* \"#utility.yul\":5795:5815   */\n              tag_152\n              tag_53\n              jump\t// in\n            tag_152:\n                /* \"#utility.yul\":5785:5815   */\n              swap1\n              pop\n                /* \"#utility.yul\":5824:5857   */\n              tag_153\n                /* \"#utility.yul\":5852:5856   */\n              dup3\n                /* \"#utility.yul\":5844:5850   */\n              dup3\n                /* \"#utility.yul\":5824:5857   */\n              tag_79\n              jump\t// in\n            tag_153:\n                /* \"#utility.yul\":5734:5863   */\n              swap2\n              swap1\n              pop\n              jump\t// out\n                /* \"#utility.yul\":5869:6177   */\n            tag_81:\n                /* \"#utility.yul\":5931:5935   */\n              0x00\n                /* \"#utility.yul\":6021:6039   */\n              0xffffffffffffffff\n                /* \"#utility.yul\":6013:6019   */\n              dup3\n                /* \"#utility.yul\":6010:6040   */\n              gt\n                /* \"#utility.yul\":6007:6063   */\n              iszero\n              tag_155\n              jumpi\n                /* \"#utility.yul\":6043:6061   */\n              tag_156\n              tag_78\n              jump\t// in\n            tag_156:\n                /* \"#utility.yul\":6007:6063   */\n            tag_155:\n                /* \"#utility.yul\":6081:6110   */\n              tag_157\n                /* \"#utility.yul\":6103:6109   */\n              dup3\n                /* \"#utility.yul\":6081:6110   */\n              tag_77\n              jump\t// in\n            tag_157:\n                /* \"#utility.yul\":6073:6110   */\n              swap1\n              pop\n                /* \"#utility.yul\":6165:6169   */\n              0x20\n                /* \"#utility.yul\":6159:6163   */\n              dup2\n                /* \"#utility.yul\":6155:6170   */\n              add\n                /* \"#utility.yul\":6147:6170   */\n              swap1\n              pop\n                /* \"#utility.yul\":5869:6177   */\n              swap2\n              swap1\n              pop\n              jump\t// out\n                /* \"#utility.yul\":6183:6329   */\n            tag_82:\n                /* \"#utility.yul\":6280:6286   */\n              dup3\n                /* \"#utility.yul\":6275:6278   */\n              dup2\n                /* \"#utility.yul\":6270:6273   */\n              dup4\n                /* \"#utility.yul\":6257:6287   */\n              calldatacopy\n                /* \"#utility.yul\":6321:6322   */\n              0x00\n                /* \"#utility.yul\":6312:6318   */\n              dup4\n                /* \"#utility.yul\":6307:6310   */\n              dup4\n                /* \"#utility.yul\":6303:6319   */\n              add\n                /* \"#utility.yul\":6296:6323   */\n              mstore\n                /* \"#utility.yul\":6183:6329   */\n              pop\n              pop\n              pop\n              jump\t// out\n                /* \"#utility.yul\":6335:6760   */\n            tag_83:\n                /* \"#utility.yul\":6413:6418   */\n              0x00\n                /* \"#utility.yul\":6438:6504   */\n              tag_160\n                /* \"#utility.yul\":6454:6503   */\n              tag_161\n                /* \"#utility.yul\":6496:6502   */\n              dup5\n                /* \"#utility.yul\":6454:6503   */\n              tag_81\n              jump\t// in\n            tag_161:\n                /* \"#utility.yul\":6438:6504   */\n              tag_80\n              jump\t// in\n            tag_160:\n                /* \"#utility.yul\":6429:6504   */\n              swap1\n              pop\n                /* \"#utility.yul\":6527:6533   */\n              dup3\n                /* \"#utility.yul\":6520:6525   */\n              dup2\n                /* \"#utility.yul\":6513:6534   */\n              mstore\n                /* \"#utility.yul\":6565:6569   */\n              0x20\n                /* \"#utility.yul\":6558:6563   */\n              dup2\n                /* \"#utility.yul\":6554:6570   */\n              add\n                /* \"#utility.yul\":6603:6606   */\n              dup5\n                /* \"#utility.yul\":6594:6600   */\n              dup5\n                /* \"#utility.yul\":6589:6592   */\n              dup5\n                /* \"#utility.yul\":6585:6601   */\n              add\n                /* \"#utility.yul\":6582:6607   */\n              gt\n                /* \"#utility.yul\":6579:6691   */\n              iszero\n              tag_162\n              jumpi\n                /* \"#utility.yul\":6610:6689   */\n              tag_163\n              tag_76\n              jump\t// in\n            tag_163:\n                /* \"#utility.yul\":6579:6691   */\n            tag_162:\n                /* \"#utility.yul\":6700:6754   */\n              tag_164\n                /* \"#utility.yul\":6747:6753   */\n              dup5\n                /* \"#utility.yul\":6742:6745   */\n              dup3\n                /* \"#utility.yul\":6737:6740   */\n              dup6\n                /* \"#utility.yul\":6700:6754   */\n              tag_82\n              jump\t// in\n            tag_164:\n                /* \"#utility.yul\":6419:6760   */\n              pop\n                /* \"#utility.yul\":6335:6760   */\n              swap4\n              swap3\n              pop\n              pop\n              pop\n              jump\t// out\n                /* \"#utility.yul\":6780:7120   */\n            tag_84:\n                /* \"#utility.yul\":6836:6841   */\n              0x00\n                /* \"#utility.yul\":6885:6888   */\n              dup3\n                /* \"#utility.yul\":6878:6882   */\n              0x1f\n                /* \"#utility.yul\":6870:6876   */\n              dup4\n                /* \"#utility.yul\":6866:6883   */\n              add\n                /* \"#utility.yul\":6862:6889   */\n              slt\n                /* \"#utility.yul\":6852:6974   */\n              tag_166\n              jumpi\n                /* \"#utility.yul\":6893:6972   */\n              tag_167\n              tag_75\n              jump\t// in\n            tag_167:\n                /* \"#utility.yul\":6852:6974   */\n            tag_166:\n                /* \"#utility.yul\":7010:7016   */\n              dup2\n                /* \"#utility.yul\":6997:7017   */\n              calldataload\n                /* \"#utility.yul\":7035:7114   */\n              tag_168\n                /* \"#utility.yul\":7110:7113   */\n              dup5\n                /* \"#utility.yul\":7102:7108   */\n              dup3\n                /* \"#utility.yul\":7095:7099   */\n              0x20\n                /* \"#utility.yul\":7087:7093   */\n              dup7\n                /* \"#utility.yul\":7083:7100   */\n              add\n                /* \"#utility.yul\":7035:7114   */\n              tag_83\n              jump\t// in\n            tag_168:\n                /* \"#utility.yul\":7026:7114   */\n              swap2\n              pop\n                /* \"#utility.yul\":6842:7120   */\n              pop\n                /* \"#utility.yul\":6780:7120   */\n              swap3\n              swap2\n              pop\n              pop\n              jump\t// out\n                /* \"#utility.yul\":7126:7635   */\n            tag_37:\n                /* \"#utility.yul\":7195:7201   */\n              0x00\n                /* \"#utility.yul\":7244:7246   */\n              0x20\n                /* \"#utility.yul\":7232:7241   */\n              dup3\n                /* \"#utility.yul\":7223:7230   */\n              dup5\n                /* \"#utility.yul\":7219:7242   */\n              sub\n                /* \"#utility.yul\":7215:7247   */\n              slt\n                /* \"#utility.yul\":7212:7331   */\n              iszero\n              tag_170\n              jumpi\n                /* \"#utility.yul\":7250:7329   */\n              tag_171\n              tag_54\n              jump\t// in\n            tag_171:\n                /* \"#utility.yul\":7212:7331   */\n            tag_170:\n                /* \"#utility.yul\":7398:7399   */\n              0x00\n                /* \"#utility.yul\":7387:7396   */\n              dup3\n                /* \"#utility.yul\":7383:7400   */\n              add\n                /* \"#utility.yul\":7370:7401   */\n              calldataload\n                /* \"#utility.yul\":7428:7446   */\n              0xffffffffffffffff\n                /* \"#utility.yul\":7420:7426   */\n              dup2\n                /* \"#utility.yul\":7417:7447   */\n              gt\n                /* \"#utility.yul\":7414:7531   */\n              iszero\n              tag_172\n              jumpi\n                /* \"#utility.yul\":7450:7529   */\n              tag_173\n              tag_55\n              jump\t// in\n            tag_173:\n                /* \"#utility.yul\":7414:7531   */\n            tag_172:\n                /* \"#utility.yul\":7555:7618   */\n              tag_174\n                /* \"#utility.yul\":7610:7617   */\n              dup5\n                /* \"#utility.yul\":7601:7607   */\n              dup3\n                /* \"#utility.yul\":7590:7599   */\n              dup6\n                /* \"#utility.yul\":7586:7608   */\n              add\n                /* \"#utility.yul\":7555:7618   */\n              tag_84\n              jump\t// in\n            tag_174:\n                /* \"#utility.yul\":7545:7618   */\n              swap2\n              pop\n                /* \"#utility.yul\":7341:7628   */\n              pop\n                /* \"#utility.yul\":7126:7635   */\n              swap3\n              swap2\n              pop\n              pop\n              jump\t// out\n                /* \"#utility.yul\":7641:7750   */\n            tag_85:\n                /* \"#utility.yul\":7722:7743   */\n              tag_176\n                /* \"#utility.yul\":7737:7742   */\n              dup2\n                /* \"#utility.yul\":7722:7743   */\n              tag_56\n              jump\t// in\n            tag_176:\n                /* \"#utility.yul\":7717:7720   */\n              dup3\n                /* \"#utility.yul\":7710:7744   */\n              mstore\n                /* \"#utility.yul\":7641:7750   */\n              pop\n              pop\n              jump\t// out\n                /* \"#utility.yul\":7756:7966   */\n            tag_45:\n                /* \"#utility.yul\":7843:7847   */\n              0x00\n                /* \"#utility.yul\":7881:7883   */\n              0x20\n                /* \"#utility.yul\":7870:7879   */\n              dup3\n                /* \"#utility.yul\":7866:7884   */\n              add\n                /* \"#utility.yul\":7858:7884   */\n              swap1\n              pop\n                /* \"#utility.yul\":7894:7959   */\n              tag_178\n                /* \"#utility.yul\":7956:7957   */\n              0x00\n                /* \"#utility.yul\":7945:7954   */\n              dup4\n                /* \"#utility.yul\":7941:7958   */\n              add\n                /* \"#utility.yul\":7932:7938   */\n              dup5\n                /* \"#utility.yul\":7894:7959   */\n              tag_85\n              jump\t// in\n            tag_178:\n                /* \"#utility.yul\":7756:7966   */\n              swap3\n              swap2\n              pop\n              pop\n              jump\t// out\n\n            auxdata: 0xa2646970667358221220c7ad35d18a0d29323746d4fc05915db2584f0e7f8b77fe4823fed6969359639664736f6c63430008110033\n        }\n    }\n\n    auxdata: 0xa264697066735822122078d264ea5f04e2d9656081174b737d05fdf41a80d853dc253226e02bac78d7b364736f6c63430008110033\n}\n","bytecode":{"linkReferences":{},"object":"60a060405234801561001057600080fd5b503073ffffffffffffffffffffffffffffffffffffffff1660808173ffffffffffffffffffffffffffffffffffffffff1681525050608051610e98610060600039600061027b0152610e986000f3fe608060405234801561001057600080fd5b50600436106100365760003560e01c8063c62110771461003b578063fe634dba14610057575b600080fd5b61005560048036038101906100509190610368565b610087565b005b610071600480360381019061006c91906103e3565b6101ad565b60405161007e91906104ce565b60405180910390f35b61008f610279565b6000848484846040516100a1906102d3565b6100ae9493929190610576565b604051809103906000f0801580156100ca573d6000803e3d6000fd5b5090506000808773ffffffffffffffffffffffffffffffffffffffff1673ffffffffffffffffffffffffffffffffffffffff168152602001908152602001600020819080600181540180825580915050600190039060005260206000200160009091909190916101000a81548173ffffffffffffffffffffffffffffffffffffffff021916908373ffffffffffffffffffffffffffffffffffffffff1602179055507f8cb1f5e0b7508307e592a641586f535256dba226b02388100691c6133f65e22e338260405161019d9291906105bb565b60405180910390a1505050505050565b60606000808373ffffffffffffffffffffffffffffffffffffffff1673ffffffffffffffffffffffffffffffffffffffff16815260200190815260200160002080548060200260200160405190810160405280929190818152602001828054801561026d57602002820191906000526020600020905b8160009054906101000a900473ffffffffffffffffffffffffffffffffffffffff1673ffffffffffffffffffffffffffffffffffffffff1681526020019060010190808311610223575b50505050509050919050565b7f000000000000000000000000000000000000000000000000000000000000000073ffffffffffffffffffffffffffffffffffffffff163073ffffffffffffffffffffffffffffffffffffffff16146102d157600080fd5b565b61087e806105e583390190565b600080fd5b600073ffffffffffffffffffffffffffffffffffffffff82169050919050565b6000610310826102e5565b9050919050565b61032081610305565b811461032b57600080fd5b50565b60008135905061033d81610317565b92915050565b6002811061035057600080fd5b50565b60008135905061036281610343565b92915050565b600080600080600060a08688031215610384576103836102e0565b5b60006103928882890161032e565b95505060206103a38882890161032e565b94505060406103b48882890161032e565b93505060606103c588828901610353565b92505060806103d68882890161032e565b9150509295509295909350565b6000602082840312156103f9576103f86102e0565b5b60006104078482850161032e565b91505092915050565b600081519050919050565b600082825260208201905092915050565b6000819050602082019050919050565b61044581610305565b82525050565b6000610457838361043c565b60208301905092915050565b6000602082019050919050565b600061047b82610410565b610485818561041b565b93506104908361042c565b8060005b838110156104c15781516104a8888261044b565b97506104b383610463565b925050600181019050610494565b5085935050505092915050565b600060208201905081810360008301526104e88184610470565b905092915050565b6104f981610305565b82525050565b7f4e487b7100000000000000000000000000000000000000000000000000000000600052602160045260246000fd5b6002811061053f5761053e6104ff565b5b50565b60008190506105508261052e565b919050565b600061056082610542565b9050919050565b61057081610555565b82525050565b600060808201905061058b60008301876104f0565b61059860208301866104f0565b6105a56040830185610567565b6105b260608301846104f0565b95945050505050565b60006040820190506105d060008301856104f0565b6105dd60208301846104f0565b939250505056fe60e060405234801561001057600080fd5b5060405161087e38038061087e83398181016040528101906100329190610188565b8373ffffffffffffffffffffffffffffffffffffffff1660a08173ffffffffffffffffffffffffffffffffffffffff16815250508273ffffffffffffffffffffffffffffffffffffffff1660808173ffffffffffffffffffffffffffffffffffffffff1681525050816000806101000a81548160ff021916908360018111156100be576100bd6101ef565b5b02179055508073ffffffffffffffffffffffffffffffffffffffff1660c08173ffffffffffffffffffffffffffffffffffffffff16815250505050505061021e565b600080fd5b600073ffffffffffffffffffffffffffffffffffffffff82169050919050565b600061013082610105565b9050919050565b61014081610125565b811461014b57600080fd5b50565b60008151905061015d81610137565b92915050565b6002811061017057600080fd5b50565b60008151905061018281610163565b92915050565b600080600080608085870312156101a2576101a1610100565b5b60006101b08782880161014e565b94505060206101c18782880161014e565b93505060406101d287828801610173565b92505060606101e38782880161014e565b91505092959194509250565b7f4e487b7100000000000000000000000000000000000000000000000000000000600052602160045260246000fd5b60805160a05160c05161063a61024460003960005050600050506000505061063a6000f3fe608060405234801561001057600080fd5b50600436106100935760003560e01c8063b6c786d311610066578063b6c786d31461010a578063c2fc0d2614610126578063c4f6b0fa14610144578063e917b02714610160578063faff660e1461017c57610093565b8063171a47cd146100985780632551cb65146100b4578063a4c2f651146100d2578063b1e9451a146100ee575b600080fd5b6100b260048036038101906100ad9190610221565b61019a565b005b6100bc61019d565b6040516100c9919061033e565b60405180910390f35b6100ec60048036038101906100e7919061038c565b6101a2565b005b6101086004803603810190610103919061038c565b6101a5565b005b610124600480360381019061011f919061038c565b6101a8565b005b61012e6101ab565b60405161013b9190610430565b60405180910390f35b61015e60048036038101906101599190610591565b6101bc565b005b61017a6004803603810190610175919061038c565b6101bf565b005b6101846101c2565b60405161019191906105e9565b60405180910390f35b50565b606090565b50565b50565b50565b60008054906101000a900460ff1681565b50565b50565b600060019054906101000a900460ff1681565b6000604051905090565b600080fd5b600080fd5b60008115159050919050565b6101fe816101e9565b811461020957600080fd5b50565b60008135905061021b816101f5565b92915050565b600060208284031215610237576102366101df565b5b60006102458482850161020c565b91505092915050565b600081519050919050565b600082825260208201905092915050565b6000819050602082019050919050565b600073ffffffffffffffffffffffffffffffffffffffff82169050919050565b60006102a58261027a565b9050919050565b6102b58161029a565b82525050565b60006102c783836102ac565b60208301905092915050565b6000602082019050919050565b60006102eb8261024e565b6102f58185610259565b93506103008361026a565b8060005b8381101561033157815161031888826102bb565b9750610323836102d3565b925050600181019050610304565b5085935050505092915050565b6000602082019050818103600083015261035881846102e0565b905092915050565b6103698161029a565b811461037457600080fd5b50565b60008135905061038681610360565b92915050565b6000602082840312156103a2576103a16101df565b5b60006103b084828501610377565b91505092915050565b7f4e487b7100000000000000000000000000000000000000000000000000000000600052602160045260246000fd5b600281106103f9576103f86103b9565b5b50565b600081905061040a826103e8565b919050565b600061041a826103fc565b9050919050565b61042a8161040f565b82525050565b60006020820190506104456000830184610421565b92915050565b600080fd5b600080fd5b6000601f19601f8301169050919050565b7f4e487b7100000000000000000000000000000000000000000000000000000000600052604160045260246000fd5b61049e82610455565b810181811067ffffffffffffffff821117156104bd576104bc610466565b5b80604052505050565b60006104d06101d5565b90506104dc8282610495565b919050565b600067ffffffffffffffff8211156104fc576104fb610466565b5b61050582610455565b9050602081019050919050565b82818337600083830152505050565b600061053461052f846104e1565b6104c6565b9050828152602081018484840111156105505761054f610450565b5b61055b848285610512565b509392505050565b600082601f8301126105785761057761044b565b5b8135610588848260208601610521565b91505092915050565b6000602082840312156105a7576105a66101df565b5b600082013567ffffffffffffffff8111156105c5576105c46101e4565b5b6105d184828501610563565b91505092915050565b6105e3816101e9565b82525050565b60006020820190506105fe60008301846105da565b9291505056fea2646970667358221220c7ad35d18a0d29323746d4fc05915db2584f0e7f8b77fe4823fed6969359639664736f6c63430008110033a264697066735822122078d264ea5f04e2d9656081174b737d05fdf41a80d853dc253226e02bac78d7b364736f6c63430008110033","opcodes":"PUSH1 0xA0 PUSH1 0x40 MSTORE CALLVALUE DUP1 ISZERO PUSH2 0x10 JUMPI PUSH1 0x0 DUP1 REVERT JUMPDEST POP ADDRESS PUSH20 0xFFFFFFFFFFFFFFFFFFFFFFFFFFFFFFFFFFFFFFFF AND PUSH1 0x80 DUP2 PUSH20 0xFFFFFFFFFFFFFFFFFFFFFFFFFFFFFFFFFFFFFFFF AND DUP2 MSTORE POP POP PUSH1 0x80 MLOAD PUSH2 0xE98 PUSH2 0x60 PUSH1 0x0 CODECOPY PUSH1 0x0 PUSH2 0x27B ADD MSTORE PUSH2 0xE98 PUSH1 0x0 RETURN INVALID PUSH1 0x80 PUSH1 0x40 MSTORE CALLVALUE DUP1 ISZERO PUSH2 0x10 JUMPI PUSH1 0x0 DUP1 REVERT JUMPDEST POP PUSH1 0x4 CALLDATASIZE LT PUSH2 0x36 JUMPI PUSH1 0x0 CALLDATALOAD PUSH1 0xE0 SHR DUP1 PUSH4 0xC6211077 EQ PUSH2 0x3B JUMPI DUP1 PUSH4 0xFE634DBA EQ PUSH2 0x57 JUMPI JUMPDEST PUSH1 0x0 DUP1 REVERT JUMPDEST PUSH2 0x55 PUSH1 0x4 DUP1 CALLDATASIZE SUB DUP2 ADD SWAP1 PUSH2 0x50 SWAP2 SWAP1 PUSH2 0x368 JUMP JUMPDEST PUSH2 0x87 JUMP JUMPDEST STOP JUMPDEST PUSH2 0x71 PUSH1 0x4 DUP1 CALLDATASIZE SUB DUP2 ADD SWAP1 PUSH2 0x6C SWAP2 SWAP1 PUSH2 0x3E3 JUMP JUMPDEST PUSH2 0x1AD JUMP JUMPDEST PUSH1 0x40 MLOAD PUSH2 0x7E SWAP2 SWAP1 PUSH2 0x4CE JUMP JUMPDEST PUSH1 0x40 MLOAD DUP1 SWAP2 SUB SWAP1 RETURN JUMPDEST PUSH2 0x8F PUSH2 0x279 JUMP JUMPDEST PUSH1 0x0 DUP5 DUP5 DUP5 DUP5 PUSH1 0x40 MLOAD PUSH2 0xA1 SWAP1 PUSH2 0x2D3 JUMP JUMPDEST PUSH2 0xAE SWAP5 SWAP4 SWAP3 SWAP2 SWAP1 PUSH2 0x576 JUMP JUMPDEST PUSH1 0x40 MLOAD DUP1 SWAP2 SUB SWAP1 PUSH1 0x0 CREATE DUP1 ISZERO DUP1 ISZERO PUSH2 0xCA JUMPI RETURNDATASIZE PUSH1 0x0 DUP1 RETURNDATACOPY RETURNDATASIZE PUSH1 0x0 REVERT JUMPDEST POP SWAP1 POP PUSH1 0x0 DUP1 DUP8 PUSH20 0xFFFFFFFFFFFFFFFFFFFFFFFFFFFFFFFFFFFFFFFF AND PUSH20 0xFFFFFFFFFFFFFFFFFFFFFFFFFFFFFFFFFFFFFFFF AND DUP2 MSTORE PUSH1 0x20 ADD SWAP1 DUP2 MSTORE PUSH1 0x20 ADD PUSH1 0x0 KECCAK256 DUP2 SWAP1 DUP1 PUSH1 0x1 DUP2 SLOAD ADD DUP1 DUP3 SSTORE DUP1 SWAP2 POP POP PUSH1 0x1 SWAP1 SUB SWAP1 PUSH1 0x0 MSTORE PUSH1 0x20 PUSH1 0x0 KECCAK256 ADD PUSH1 0x0 SWAP1 SWAP2 SWAP1 SWAP2 SWAP1 SWAP2 PUSH2 0x100 EXP DUP2 SLOAD DUP2 PUSH20 0xFFFFFFFFFFFFFFFFFFFFFFFFFFFFFFFFFFFFFFFF MUL NOT AND SWAP1 DUP4 PUSH20 0xFFFFFFFFFFFFFFFFFFFFFFFFFFFFFFFFFFFFFFFF AND MUL OR SWAP1 SSTORE POP PUSH32 0x8CB1F5E0B7508307E592A641586F535256DBA226B02388100691C6133F65E22E CALLER DUP3 PUSH1 0x40 MLOAD PUSH2 0x19D SWAP3 SWAP2 SWAP1 PUSH2 0x5BB JUMP JUMPDEST PUSH1 0x40 MLOAD DUP1 SWAP2 SUB SWAP1 LOG1 POP POP POP POP POP POP JUMP JUMPDEST PUSH1 0x60 PUSH1 0x0 DUP1 DUP4 PUSH20 0xFFFFFFFFFFFFFFFFFFFFFFFFFFFFFFFFFFFFFFFF AND PUSH20 0xFFFFFFFFFFFFFFFFFFFFFFFFFFFFFFFFFFFFFFFF AND DUP2 MSTORE PUSH1 0x20 ADD SWAP1 DUP2 MSTORE PUSH1 0x20 ADD PUSH1 0x0 KECCAK256 DUP1 SLOAD DUP1 PUSH1 0x20 MUL PUSH1 0x20 ADD PUSH1 0x40 MLOAD SWAP1 DUP2 ADD PUSH1 0x40 MSTORE DUP1 SWAP3 SWAP2 SWAP1 DUP2 DUP2 MSTORE PUSH1 0x20 ADD DUP3 DUP1 SLOAD DUP1 ISZERO PUSH2 0x26D JUMPI PUSH1 0x20 MUL DUP3 ADD SWAP2 SWAP1 PUSH1 0x0 MSTORE PUSH1 0x20 PUSH1 0x0 KECCAK256 SWAP1 JUMPDEST DUP2 PUSH1 0x0 SWAP1 SLOAD SWAP1 PUSH2 0x100 EXP SWAP1 DIV PUSH20 0xFFFFFFFFFFFFFFFFFFFFFFFFFFFFFFFFFFFFFFFF AND PUSH20 0xFFFFFFFFFFFFFFFFFFFFFFFFFFFFFFFFFFFFFFFF AND DUP2 MSTORE PUSH1 0x20 ADD SWAP1 PUSH1 0x1 ADD SWAP1 DUP1 DUP4 GT PUSH2 0x223 JUMPI JUMPDEST POP POP POP POP POP SWAP1 POP SWAP2 SWAP1 POP JUMP JUMPDEST PUSH32 0x0 PUSH20 0xFFFFFFFFFFFFFFFFFFFFFFFFFFFFFFFFFFFFFFFF AND ADDRESS PUSH20 0xFFFFFFFFFFFFFFFFFFFFFFFFFFFFFFFFFFFFFFFF AND EQ PUSH2 0x2D1 JUMPI PUSH1 0x0 DUP1 REVERT JUMPDEST JUMP JUMPDEST PUSH2 0x87E DUP1 PUSH2 0x5E5 DUP4 CODECOPY ADD SWAP1 JUMP JUMPDEST PUSH1 0x0 DUP1 REVERT JUMPDEST PUSH1 0x0 PUSH20 0xFFFFFFFFFFFFFFFFFFFFFFFFFFFFFFFFFFFFFFFF DUP3 AND SWAP1 POP SWAP2 SWAP1 POP JUMP JUMPDEST PUSH1 0x0 PUSH2 0x310 DUP3 PUSH2 0x2E5 JUMP JUMPDEST SWAP1 POP SWAP2 SWAP1 POP JUMP JUMPDEST PUSH2 0x320 DUP2 PUSH2 0x305 JUMP JUMPDEST DUP2 EQ PUSH2 0x32B JUMPI PUSH1 0x0 DUP1 REVERT JUMPDEST POP JUMP JUMPDEST PUSH1 0x0 DUP2 CALLDATALOAD SWAP1 POP PUSH2 0x33D DUP2 PUSH2 0x317 JUMP JUMPDEST SWAP3 SWAP2 POP POP JUMP JUMPDEST PUSH1 0x2 DUP2 LT PUSH2 0x350 JUMPI PUSH1 0x0 DUP1 REVERT JUMPDEST POP JUMP JUMPDEST PUSH1 0x0 DUP2 CALLDATALOAD SWAP1 POP PUSH2 0x362 DUP2 PUSH2 0x343 JUMP JUMPDEST SWAP3 SWAP2 POP POP JUMP JUMPDEST PUSH1 0x0 DUP1 PUSH1 0x0 DUP1 PUSH1 0x0 PUSH1 0xA0 DUP7 DUP9 SUB SLT ISZERO PUSH2 0x384 JUMPI PUSH2 0x383 PUSH2 0x2E0 JUMP JUMPDEST JUMPDEST PUSH1 0x0 PUSH2 0x392 DUP9 DUP3 DUP10 ADD PUSH2 0x32E JUMP JUMPDEST SWAP6 POP POP PUSH1 0x20 PUSH2 0x3A3 DUP9 DUP3 DUP10 ADD PUSH2 0x32E JUMP JUMPDEST SWAP5 POP POP PUSH1 0x40 PUSH2 0x3B4 DUP9 DUP3 DUP10 ADD PUSH2 0x32E JUMP JUMPDEST SWAP4 POP POP PUSH1 0x60 PUSH2 0x3C5 DUP9 DUP3 DUP10 ADD PUSH2 0x353 JUMP JUMPDEST SWAP3 POP POP PUSH1 0x80 PUSH2 0x3D6 DUP9 DUP3 DUP10 ADD PUSH2 0x32E JUMP JUMPDEST SWAP2 POP POP SWAP3 SWAP6 POP SWAP3 SWAP6 SWAP1 SWAP4 POP JUMP JUMPDEST PUSH1 0x0 PUSH1 0x20 DUP3 DUP5 SUB SLT ISZERO PUSH2 0x3F9 JUMPI PUSH2 0x3F8 PUSH2 0x2E0 JUMP JUMPDEST JUMPDEST PUSH1 0x0 PUSH2 0x407 DUP5 DUP3 DUP6 ADD PUSH2 0x32E JUMP JUMPDEST SWAP2 POP POP SWAP3 SWAP2 POP POP JUMP JUMPDEST PUSH1 0x0 DUP2 MLOAD SWAP1 POP SWAP2 SWAP1 POP JUMP JUMPDEST PUSH1 0x0 DUP3 DUP3 MSTORE PUSH1 0x20 DUP3 ADD SWAP1 POP SWAP3 SWAP2 POP POP JUMP JUMPDEST PUSH1 0x0 DUP2 SWAP1 POP PUSH1 0x20 DUP3 ADD SWAP1 POP SWAP2 SWAP1 POP JUMP JUMPDEST PUSH2 0x445 DUP2 PUSH2 0x305 JUMP JUMPDEST DUP3 MSTORE POP POP JUMP JUMPDEST PUSH1 0x0 PUSH2 0x457 DUP4 DUP4 PUSH2 0x43C JUMP JUMPDEST PUSH1 0x20 DUP4 ADD SWAP1 POP SWAP3 SWAP2 POP POP JUMP JUMPDEST PUSH1 0x0 PUSH1 0x20 DUP3 ADD SWAP1 POP SWAP2 SWAP1 POP JUMP JUMPDEST PUSH1 0x0 PUSH2 0x47B DUP3 PUSH2 0x410 JUMP JUMPDEST PUSH2 0x485 DUP2 DUP6 PUSH2 0x41B JUMP JUMPDEST SWAP4 POP PUSH2 0x490 DUP4 PUSH2 0x42C JUMP JUMPDEST DUP1 PUSH1 0x0 JUMPDEST DUP4 DUP2 LT ISZERO PUSH2 0x4C1 JUMPI DUP2 MLOAD PUSH2 0x4A8 DUP9 DUP3 PUSH2 0x44B JUMP JUMPDEST SWAP8 POP PUSH2 0x4B3 DUP4 PUSH2 0x463 JUMP JUMPDEST SWAP3 POP POP PUSH1 0x1 DUP2 ADD SWAP1 POP PUSH2 0x494 JUMP JUMPDEST POP DUP6 SWAP4 POP POP POP POP SWAP3 SWAP2 POP POP JUMP JUMPDEST PUSH1 0x0 PUSH1 0x20 DUP3 ADD SWAP1 POP DUP2 DUP2 SUB PUSH1 0x0 DUP4 ADD MSTORE PUSH2 0x4E8 DUP2 DUP5 PUSH2 0x470 JUMP JUMPDEST SWAP1 POP SWAP3 SWAP2 POP POP JUMP JUMPDEST PUSH2 0x4F9 DUP2 PUSH2 0x305 JUMP JUMPDEST DUP3 MSTORE POP POP JUMP JUMPDEST PUSH32 0x4E487B7100000000000000000000000000000000000000000000000000000000 PUSH1 0x0 MSTORE PUSH1 0x21 PUSH1 0x4 MSTORE PUSH1 0x24 PUSH1 0x0 REVERT JUMPDEST PUSH1 0x2 DUP2 LT PUSH2 0x53F JUMPI PUSH2 0x53E PUSH2 0x4FF JUMP JUMPDEST JUMPDEST POP JUMP JUMPDEST PUSH1 0x0 DUP2 SWAP1 POP PUSH2 0x550 DUP3 PUSH2 0x52E JUMP JUMPDEST SWAP2 SWAP1 POP JUMP JUMPDEST PUSH1 0x0 PUSH2 0x560 DUP3 PUSH2 0x542 JUMP JUMPDEST SWAP1 POP SWAP2 SWAP1 POP JUMP JUMPDEST PUSH2 0x570 DUP2 PUSH2 0x555 JUMP JUMPDEST DUP3 MSTORE POP POP JUMP JUMPDEST PUSH1 0x0 PUSH1 0x80 DUP3 ADD SWAP1 POP PUSH2 0x58B PUSH1 0x0 DUP4 ADD DUP8 PUSH2 0x4F0 JUMP JUMPDEST PUSH2 0x598 PUSH1 0x20 DUP4 ADD DUP7 PUSH2 0x4F0 JUMP JUMPDEST PUSH2 0x5A5 PUSH1 0x40 DUP4 ADD DUP6 PUSH2 0x567 JUMP JUMPDEST PUSH2 0x5B2 PUSH1 0x60 DUP4 ADD DUP5 PUSH2 0x4F0 JUMP JUMPDEST SWAP6 SWAP5 POP POP POP POP POP JUMP JUMPDEST PUSH1 0x0 PUSH1 0x40 DUP3 ADD SWAP1 POP PUSH2 0x5D0 PUSH1 0x0 DUP4 ADD DUP6 PUSH2 0x4F0 JUMP JUMPDEST PUSH2 0x5DD PUSH1 0x20 DUP4 ADD DUP5 PUSH2 0x4F0 JUMP JUMPDEST SWAP4 SWAP3 POP POP POP JUMP INVALID PUSH1 0xE0 PUSH1 0x40 MSTORE CALLVALUE DUP1 ISZERO PUSH2 0x10 JUMPI PUSH1 0x0 DUP1 REVERT JUMPDEST POP PUSH1 0x40 MLOAD PUSH2 0x87E CODESIZE SUB DUP1 PUSH2 0x87E DUP4 CODECOPY DUP2 DUP2 ADD PUSH1 0x40 MSTORE DUP2 ADD SWAP1 PUSH2 0x32 SWAP2 SWAP1 PUSH2 0x188 JUMP JUMPDEST DUP4 PUSH20 0xFFFFFFFFFFFFFFFFFFFFFFFFFFFFFFFFFFFFFFFF AND PUSH1 0xA0 DUP2 PUSH20 0xFFFFFFFFFFFFFFFFFFFFFFFFFFFFFFFFFFFFFFFF AND DUP2 MSTORE POP POP DUP3 PUSH20 0xFFFFFFFFFFFFFFFFFFFFFFFFFFFFFFFFFFFFFFFF AND PUSH1 0x80 DUP2 PUSH20 0xFFFFFFFFFFFFFFFFFFFFFFFFFFFFFFFFFFFFFFFF AND DUP2 MSTORE POP POP DUP2 PUSH1 0x0 DUP1 PUSH2 0x100 EXP DUP2 SLOAD DUP2 PUSH1 0xFF MUL NOT AND SWAP1 DUP4 PUSH1 0x1 DUP2 GT ISZERO PUSH2 0xBE JUMPI PUSH2 0xBD PUSH2 0x1EF JUMP JUMPDEST JUMPDEST MUL OR SWAP1 SSTORE POP DUP1 PUSH20 0xFFFFFFFFFFFFFFFFFFFFFFFFFFFFFFFFFFFFFFFF AND PUSH1 0xC0 DUP2 PUSH20 0xFFFFFFFFFFFFFFFFFFFFFFFFFFFFFFFFFFFFFFFF AND DUP2 MSTORE POP POP POP POP POP POP PUSH2 0x21E JUMP JUMPDEST PUSH1 0x0 DUP1 REVERT JUMPDEST PUSH1 0x0 PUSH20 0xFFFFFFFFFFFFFFFFFFFFFFFFFFFFFFFFFFFFFFFF DUP3 AND SWAP1 POP SWAP2 SWAP1 POP JUMP JUMPDEST PUSH1 0x0 PUSH2 0x130 DUP3 PUSH2 0x105 JUMP JUMPDEST SWAP1 POP SWAP2 SWAP1 POP JUMP JUMPDEST PUSH2 0x140 DUP2 PUSH2 0x125 JUMP JUMPDEST DUP2 EQ PUSH2 0x14B JUMPI PUSH1 0x0 DUP1 REVERT JUMPDEST POP JUMP JUMPDEST PUSH1 0x0 DUP2 MLOAD SWAP1 POP PUSH2 0x15D DUP2 PUSH2 0x137 JUMP JUMPDEST SWAP3 SWAP2 POP POP JUMP JUMPDEST PUSH1 0x2 DUP2 LT PUSH2 0x170 JUMPI PUSH1 0x0 DUP1 REVERT JUMPDEST POP JUMP JUMPDEST PUSH1 0x0 DUP2 MLOAD SWAP1 POP PUSH2 0x182 DUP2 PUSH2 0x163 JUMP JUMPDEST SWAP3 SWAP2 POP POP JUMP JUMPDEST PUSH1 0x0 DUP1 PUSH1 0x0 DUP1 PUSH1 0x80 DUP6 DUP8 SUB SLT ISZERO PUSH2 0x1A2 JUMPI PUSH2 0x1A1 PUSH2 0x100 JUMP JUMPDEST JUMPDEST PUSH1 0x0 PUSH2 0x1B0 DUP8 DUP3 DUP9 ADD PUSH2 0x14E JUMP JUMPDEST SWAP5 POP POP PUSH1 0x20 PUSH2 0x1C1 DUP8 DUP3 DUP9 ADD PUSH2 0x14E JUMP JUMPDEST SWAP4 POP POP PUSH1 0x40 PUSH2 0x1D2 DUP8 DUP3 DUP9 ADD PUSH2 0x173 JUMP JUMPDEST SWAP3 POP POP PUSH1 0x60 PUSH2 0x1E3 DUP8 DUP3 DUP9 ADD PUSH2 0x14E JUMP JUMPDEST SWAP2 POP POP SWAP3 SWAP6 SWAP2 SWAP5 POP SWAP3 POP JUMP JUMPDEST PUSH32 0x4E487B7100000000000000000000000000000000000000000000000000000000 PUSH1 0x0 MSTORE PUSH1 0x21 PUSH1 0x4 MSTORE PUSH1 0x24 PUSH1 0x0 REVERT JUMPDEST PUSH1 0x80 MLOAD PUSH1 0xA0 MLOAD PUSH1 0xC0 MLOAD PUSH2 0x63A PUSH2 0x244 PUSH1 0x0 CODECOPY PUSH1 0x0 POP POP PUSH1 0x0 POP POP PUSH1 0x0 POP POP PUSH2 0x63A PUSH1 0x0 RETURN INVALID PUSH1 0x80 PUSH1 0x40 MSTORE CALLVALUE DUP1 ISZERO PUSH2 0x10 JUMPI PUSH1 0x0 DUP1 REVERT JUMPDEST POP PUSH1 0x4 CALLDATASIZE LT PUSH2 0x93 JUMPI PUSH1 0x0 CALLDATALOAD PUSH1 0xE0 SHR DUP1 PUSH4 0xB6C786D3 GT PUSH2 0x66 JUMPI DUP1 PUSH4 0xB6C786D3 EQ PUSH2 0x10A JUMPI DUP1 PUSH4 0xC2FC0D26 EQ PUSH2 0x126 JUMPI DUP1 PUSH4 0xC4F6B0FA EQ PUSH2 0x144 JUMPI DUP1 PUSH4 0xE917B027 EQ PUSH2 0x160 JUMPI DUP1 PUSH4 0xFAFF660E EQ PUSH2 0x17C JUMPI PUSH2 0x93 JUMP JUMPDEST DUP1 PUSH4 0x171A47CD EQ PUSH2 0x98 JUMPI DUP1 PUSH4 0x2551CB65 EQ PUSH2 0xB4 JUMPI DUP1 PUSH4 0xA4C2F651 EQ PUSH2 0xD2 JUMPI DUP1 PUSH4 0xB1E9451A EQ PUSH2 0xEE JUMPI JUMPDEST PUSH1 0x0 DUP1 REVERT JUMPDEST PUSH2 0xB2 PUSH1 0x4 DUP1 CALLDATASIZE SUB DUP2 ADD SWAP1 PUSH2 0xAD SWAP2 SWAP1 PUSH2 0x221 JUMP JUMPDEST PUSH2 0x19A JUMP JUMPDEST STOP JUMPDEST PUSH2 0xBC PUSH2 0x19D JUMP JUMPDEST PUSH1 0x40 MLOAD PUSH2 0xC9 SWAP2 SWAP1 PUSH2 0x33E JUMP JUMPDEST PUSH1 0x40 MLOAD DUP1 SWAP2 SUB SWAP1 RETURN JUMPDEST PUSH2 0xEC PUSH1 0x4 DUP1 CALLDATASIZE SUB DUP2 ADD SWAP1 PUSH2 0xE7 SWAP2 SWAP1 PUSH2 0x38C JUMP JUMPDEST PUSH2 0x1A2 JUMP JUMPDEST STOP JUMPDEST PUSH2 0x108 PUSH1 0x4 DUP1 CALLDATASIZE SUB DUP2 ADD SWAP1 PUSH2 0x103 SWAP2 SWAP1 PUSH2 0x38C JUMP JUMPDEST PUSH2 0x1A5 JUMP JUMPDEST STOP JUMPDEST PUSH2 0x124 PUSH1 0x4 DUP1 CALLDATASIZE SUB DUP2 ADD SWAP1 PUSH2 0x11F SWAP2 SWAP1 PUSH2 0x38C JUMP JUMPDEST PUSH2 0x1A8 JUMP JUMPDEST STOP JUMPDEST PUSH2 0x12E PUSH2 0x1AB JUMP JUMPDEST PUSH1 0x40 MLOAD PUSH2 0x13B SWAP2 SWAP1 PUSH2 0x430 JUMP JUMPDEST PUSH1 0x40 MLOAD DUP1 SWAP2 SUB SWAP1 RETURN JUMPDEST PUSH2 0x15E PUSH1 0x4 DUP1 CALLDATASIZE SUB DUP2 ADD SWAP1 PUSH2 0x159 SWAP2 SWAP1 PUSH2 0x591 JUMP JUMPDEST PUSH2 0x1BC JUMP JUMPDEST STOP JUMPDEST PUSH2 0x17A PUSH1 0x4 DUP1 CALLDATASIZE SUB DUP2 ADD SWAP1 PUSH2 0x175 SWAP2 SWAP1 PUSH2 0x38C JUMP JUMPDEST PUSH2 0x1BF JUMP JUMPDEST STOP JUMPDEST PUSH2 0x184 PUSH2 0x1C2 JUMP JUMPDEST PUSH1 0x40 MLOAD PUSH2 0x191 SWAP2 SWAP1 PUSH2 0x5E9 JUMP JUMPDEST PUSH1 0x40 MLOAD DUP1 SWAP2 SUB SWAP1 RETURN JUMPDEST POP JUMP JUMPDEST PUSH1 0x60 SWAP1 JUMP JUMPDEST POP JUMP JUMPDEST POP JUMP JUMPDEST POP JUMP JUMPDEST PUSH1 0x0 DUP1 SLOAD SWAP1 PUSH2 0x100 EXP SWAP1 DIV PUSH1 0xFF AND DUP2 JUMP JUMPDEST POP JUMP JUMPDEST POP JUMP JUMPDEST PUSH1 0x0 PUSH1 0x1 SWAP1 SLOAD SWAP1 PUSH2 0x100 EXP SWAP1 DIV PUSH1 0xFF AND DUP2 JUMP JUMPDEST PUSH1 0x0 PUSH1 0x40 MLOAD SWAP1 POP SWAP1 JUMP JUMPDEST PUSH1 0x0 DUP1 REVERT JUMPDEST PUSH1 0x0 DUP1 REVERT JUMPDEST PUSH1 0x0 DUP2 ISZERO ISZERO SWAP1 POP SWAP2 SWAP1 POP JUMP JUMPDEST PUSH2 0x1FE DUP2 PUSH2 0x1E9 JUMP JUMPDEST DUP2 EQ PUSH2 0x209 JUMPI PUSH1 0x0 DUP1 REVERT JUMPDEST POP JUMP JUMPDEST PUSH1 0x0 DUP2 CALLDATALOAD SWAP1 POP PUSH2 0x21B DUP2 PUSH2 0x1F5 JUMP JUMPDEST SWAP3 SWAP2 POP POP JUMP JUMPDEST PUSH1 0x0 PUSH1 0x20 DUP3 DUP5 SUB SLT ISZERO PUSH2 0x237 JUMPI PUSH2 0x236 PUSH2 0x1DF JUMP JUMPDEST JUMPDEST PUSH1 0x0 PUSH2 0x245 DUP5 DUP3 DUP6 ADD PUSH2 0x20C JUMP JUMPDEST SWAP2 POP POP SWAP3 SWAP2 POP POP JUMP JUMPDEST PUSH1 0x0 DUP2 MLOAD SWAP1 POP SWAP2 SWAP1 POP JUMP JUMPDEST PUSH1 0x0 DUP3 DUP3 MSTORE PUSH1 0x20 DUP3 ADD SWAP1 POP SWAP3 SWAP2 POP POP JUMP JUMPDEST PUSH1 0x0 DUP2 SWAP1 POP PUSH1 0x20 DUP3 ADD SWAP1 POP SWAP2 SWAP1 POP JUMP JUMPDEST PUSH1 0x0 PUSH20 0xFFFFFFFFFFFFFFFFFFFFFFFFFFFFFFFFFFFFFFFF DUP3 AND SWAP1 POP SWAP2 SWAP1 POP JUMP JUMPDEST PUSH1 0x0 PUSH2 0x2A5 DUP3 PUSH2 0x27A JUMP JUMPDEST SWAP1 POP SWAP2 SWAP1 POP JUMP JUMPDEST PUSH2 0x2B5 DUP2 PUSH2 0x29A JUMP JUMPDEST DUP3 MSTORE POP POP JUMP JUMPDEST PUSH1 0x0 PUSH2 0x2C7 DUP4 DUP4 PUSH2 0x2AC JUMP JUMPDEST PUSH1 0x20 DUP4 ADD SWAP1 POP SWAP3 SWAP2 POP POP JUMP JUMPDEST PUSH1 0x0 PUSH1 0x20 DUP3 ADD SWAP1 POP SWAP2 SWAP1 POP JUMP JUMPDEST PUSH1 0x0 PUSH2 0x2EB DUP3 PUSH2 0x24E JUMP JUMPDEST PUSH2 0x2F5 DUP2 DUP6 PUSH2 0x259 JUMP JUMPDEST SWAP4 POP PUSH2 0x300 DUP4 PUSH2 0x26A JUMP JUMPDEST DUP1 PUSH1 0x0 JUMPDEST DUP4 DUP2 LT ISZERO PUSH2 0x331 JUMPI DUP2 MLOAD PUSH2 0x318 DUP9 DUP3 PUSH2 0x2BB JUMP JUMPDEST SWAP8 POP PUSH2 0x323 DUP4 PUSH2 0x2D3 JUMP JUMPDEST SWAP3 POP POP PUSH1 0x1 DUP2 ADD SWAP1 POP PUSH2 0x304 JUMP JUMPDEST POP DUP6 SWAP4 POP POP POP POP SWAP3 SWAP2 POP POP JUMP JUMPDEST PUSH1 0x0 PUSH1 0x20 DUP3 ADD SWAP1 POP DUP2 DUP2 SUB PUSH1 0x0 DUP4 ADD MSTORE PUSH2 0x358 DUP2 DUP5 PUSH2 0x2E0 JUMP JUMPDEST SWAP1 POP SWAP3 SWAP2 POP POP JUMP JUMPDEST PUSH2 0x369 DUP2 PUSH2 0x29A JUMP JUMPDEST DUP2 EQ PUSH2 0x374 JUMPI PUSH1 0x0 DUP1 REVERT JUMPDEST POP JUMP JUMPDEST PUSH1 0x0 DUP2 CALLDATALOAD SWAP1 POP PUSH2 0x386 DUP2 PUSH2 0x360 JUMP JUMPDEST SWAP3 SWAP2 POP POP JUMP JUMPDEST PUSH1 0x0 PUSH1 0x20 DUP3 DUP5 SUB SLT ISZERO PUSH2 0x3A2 JUMPI PUSH2 0x3A1 PUSH2 0x1DF JUMP JUMPDEST JUMPDEST PUSH1 0x0 PUSH2 0x3B0 DUP5 DUP3 DUP6 ADD PUSH2 0x377 JUMP JUMPDEST SWAP2 POP POP SWAP3 SWAP2 POP POP JUMP JUMPDEST PUSH32 0x4E487B7100000000000000000000000000000000000000000000000000000000 PUSH1 0x0 MSTORE PUSH1 0x21 PUSH1 0x4 MSTORE PUSH1 0x24 PUSH1 0x0 REVERT JUMPDEST PUSH1 0x2 DUP2 LT PUSH2 0x3F9 JUMPI PUSH2 0x3F8 PUSH2 0x3B9 JUMP JUMPDEST JUMPDEST POP JUMP JUMPDEST PUSH1 0x0 DUP2 SWAP1 POP PUSH2 0x40A DUP3 PUSH2 0x3E8 JUMP JUMPDEST SWAP2 SWAP1 POP JUMP JUMPDEST PUSH1 0x0 PUSH2 0x41A DUP3 PUSH2 0x3FC JUMP JUMPDEST SWAP1 POP SWAP2 SWAP1 POP JUMP JUMPDEST PUSH2 0x42A DUP2 PUSH2 0x40F JUMP JUMPDEST DUP3 MSTORE POP POP JUMP JUMPDEST PUSH1 0x0 PUSH1 0x20 DUP3 ADD SWAP1 POP PUSH2 0x445 PUSH1 0x0 DUP4 ADD DUP5 PUSH2 0x421 JUMP JUMPDEST SWAP3 SWAP2 POP POP JUMP JUMPDEST PUSH1 0x0 DUP1 REVERT JUMPDEST PUSH1 0x0 DUP1 REVERT JUMPDEST PUSH1 0x0 PUSH1 0x1F NOT PUSH1 0x1F DUP4 ADD AND SWAP1 POP SWAP2 SWAP1 POP JUMP JUMPDEST PUSH32 0x4E487B7100000000000000000000000000000000000000000000000000000000 PUSH1 0x0 MSTORE PUSH1 0x41 PUSH1 0x4 MSTORE PUSH1 0x24 PUSH1 0x0 REVERT JUMPDEST PUSH2 0x49E DUP3 PUSH2 0x455 JUMP JUMPDEST DUP2 ADD DUP2 DUP2 LT PUSH8 0xFFFFFFFFFFFFFFFF DUP3 GT OR ISZERO PUSH2 0x4BD JUMPI PUSH2 0x4BC PUSH2 0x466 JUMP JUMPDEST JUMPDEST DUP1 PUSH1 0x40 MSTORE POP POP POP JUMP JUMPDEST PUSH1 0x0 PUSH2 0x4D0 PUSH2 0x1D5 JUMP JUMPDEST SWAP1 POP PUSH2 0x4DC DUP3 DUP3 PUSH2 0x495 JUMP JUMPDEST SWAP2 SWAP1 POP JUMP JUMPDEST PUSH1 0x0 PUSH8 0xFFFFFFFFFFFFFFFF DUP3 GT ISZERO PUSH2 0x4FC JUMPI PUSH2 0x4FB PUSH2 0x466 JUMP JUMPDEST JUMPDEST PUSH2 0x505 DUP3 PUSH2 0x455 JUMP JUMPDEST SWAP1 POP PUSH1 0x20 DUP2 ADD SWAP1 POP SWAP2 SWAP1 POP JUMP JUMPDEST DUP3 DUP2 DUP4 CALLDATACOPY PUSH1 0x0 DUP4 DUP4 ADD MSTORE POP POP POP JUMP JUMPDEST PUSH1 0x0 PUSH2 0x534 PUSH2 0x52F DUP5 PUSH2 0x4E1 JUMP JUMPDEST PUSH2 0x4C6 JUMP JUMPDEST SWAP1 POP DUP3 DUP2 MSTORE PUSH1 0x20 DUP2 ADD DUP5 DUP5 DUP5 ADD GT ISZERO PUSH2 0x550 JUMPI PUSH2 0x54F PUSH2 0x450 JUMP JUMPDEST JUMPDEST PUSH2 0x55B DUP5 DUP3 DUP6 PUSH2 0x512 JUMP JUMPDEST POP SWAP4 SWAP3 POP POP POP JUMP JUMPDEST PUSH1 0x0 DUP3 PUSH1 0x1F DUP4 ADD SLT PUSH2 0x578 JUMPI PUSH2 0x577 PUSH2 0x44B JUMP JUMPDEST JUMPDEST DUP2 CALLDATALOAD PUSH2 0x588 DUP5 DUP3 PUSH1 0x20 DUP7 ADD PUSH2 0x521 JUMP JUMPDEST SWAP2 POP POP SWAP3 SWAP2 POP POP JUMP JUMPDEST PUSH1 0x0 PUSH1 0x20 DUP3 DUP5 SUB SLT ISZERO PUSH2 0x5A7 JUMPI PUSH2 0x5A6 PUSH2 0x1DF JUMP JUMPDEST JUMPDEST PUSH1 0x0 DUP3 ADD CALLDATALOAD PUSH8 0xFFFFFFFFFFFFFFFF DUP2 GT ISZERO PUSH2 0x5C5 JUMPI PUSH2 0x5C4 PUSH2 0x1E4 JUMP JUMPDEST JUMPDEST PUSH2 0x5D1 DUP5 DUP3 DUP6 ADD PUSH2 0x563 JUMP JUMPDEST SWAP2 POP POP SWAP3 SWAP2 POP POP JUMP JUMPDEST PUSH2 0x5E3 DUP2 PUSH2 0x1E9 JUMP JUMPDEST DUP3 MSTORE POP POP JUMP JUMPDEST PUSH1 0x0 PUSH1 0x20 DUP3 ADD SWAP1 POP PUSH2 0x5FE PUSH1 0x0 DUP4 ADD DUP5 PUSH2 0x5DA JUMP JUMPDEST SWAP3 SWAP2 POP POP JUMP INVALID LOG2 PUSH5 0x6970667358 0x22 SLT KECCAK256 0xC7 0xAD CALLDATALOAD 0xD1 DUP11 0xD 0x29 ORIGIN CALLDATACOPY CHAINID 0xD4 0xFC SDIV SWAP2 0x5D 0xB2 PC 0x4F 0xE PUSH32 0x8B77FE4823FED6969359639664736F6C63430008110033A26469706673582212 KECCAK256 PUSH25 0xD264EA5F04E2D9656081174B737D05FDF41A80D853DC253226 0xE0 0x2B 0xAC PUSH25 0xD7B364736F6C63430008110033000000000000000000000000 "},"gasEstimates":{"creation":{"codeDepositCost":"747200","executionCost":"infinite","totalCost":"infinite"},"external":{"createProject(address,address,address,uint8,address)":"infinite","getProjectsByGroup(address)":"infinite"}},"methodIdentifiers":{"createProject(address,address,address,uint8,address)":"c6211077","getProjectsByGroup(address)":"fe634dba"}},"storageLayout":{"storage":[{"astId":1277,"contract":"ProjectFactory.sol:ProjectFactory","label":"projects","offset":0,"slot":"0","type":"t_mapping(t_address,t_array(t_address)dyn_storage)"}],"types":{"t_address":{"encoding":"inplace","label":"address","numberOfBytes":"20"},"t_array(t_address)dyn_storage":{"base":"t_address","encoding":"dynamic_array","label":"address[]","numberOfBytes":"32"},"t_mapping(t_address,t_array(t_address)dyn_storage)":{"encoding":"mapping","key":"t_address","label":"mapping(address => address[])","numberOfBytes":"32","value":"t_array(t_address)dyn_storage"}}},"userdoc":{"kind":"user","methods":{},"version":1}}