{"abi":[{"inputs":[{"internalType":"address","name":"_leader","type":"address"},{"internalType":"address","name":"_originalPoster","type":"address"},{"internalType":"enum ProjectType","name":"_projectType","type":"uint8"},{"internalType":"address","name":"_proposalAddress","type":"address"}],"stateMutability":"nonpayable","type":"constructor"},{"inputs":[{"internalType":"address","name":"member","type":"address"}],"name":"addProjectMember","outputs":[],"stateMutability":"nonpayable","type":"function"},{"inputs":[],"name":"getProjectMembers","outputs":[{"internalType":"address[]","name":"","type":"address[]"}],"stateMutability":"view","type":"function"},{"inputs":[],"name":"isPrivate","outputs":[{"internalType":"bool","name":"","type":"bool"}],"stateMutability":"view","type":"function"},{"inputs":[],"name":"projectType","outputs":[{"internalType":"enum ProjectType","name":"","type":"uint8"}],"stateMutability":"view","type":"function"},{"inputs":[{"internalType":"address","name":"member","type":"address"}],"name":"removeProjectMember","outputs":[],"stateMutability":"nonpayable","type":"function"},{"inputs":[{"internalType":"bool","name":"_isPrivate","type":"bool"}],"name":"setIsPrivate","outputs":[],"stateMutability":"nonpayable","type":"function"},{"inputs":[{"internalType":"string","name":"description","type":"string"}],"name":"setProjectDescription","outputs":[],"stateMutability":"nonpayable","type":"function"},{"inputs":[{"internalType":"address","name":"member","type":"address"}],"name":"setProjectLeader","outputs":[],"stateMutability":"nonpayable","type":"function"},{"inputs":[{"internalType":"address","name":"member","type":"address"}],"name":"setProjectManager","outputs":[],"stateMutability":"nonpayable","type":"function"}],"devdoc":{"kind":"dev","methods":{},"version":1},"evm":{"assembly":"    /* \"Project.sol\":92:1068  contract Project {... */\n  mstore(0x40, 0xe0)\n    /* \"Project.sol\":300:616  constructor(... */\n  callvalue\n  dup1\n  iszero\n  tag_1\n  jumpi\n  0x00\n  dup1\n  revert\ntag_1:\n  pop\n  mload(0x40)\n  sub(codesize, bytecodeSize)\n  dup1\n  bytecodeSize\n  dup4\n  codecopy\n  dup2\n  dup2\n  add\n  0x40\n  mstore\n  dup2\n  add\n  swap1\n  tag_2\n  swap2\n  swap1\n  tag_3\n  jump\t// in\ntag_2:\n    /* \"Project.sol\":476:483  _leader */\n  dup4\n    /* \"Project.sol\":460:483  leaderAddress = _leader */\n  0xffffffffffffffffffffffffffffffffffffffff\n  and\n  0xa0\n  dup2\n  0xffffffffffffffffffffffffffffffffffffffff\n  and\n  dup2\n  mstore\n  pop\n  pop\n    /* \"Project.sol\":511:526  _originalPoster */\n  dup3\n    /* \"Project.sol\":494:526  originalPoster = _originalPoster */\n  0xffffffffffffffffffffffffffffffffffffffff\n  and\n  0x80\n  dup2\n  0xffffffffffffffffffffffffffffffffffffffff\n  and\n  dup2\n  mstore\n  pop\n  pop\n    /* \"Project.sol\":551:563  _projectType */\n  dup2\n    /* \"Project.sol\":537:548  projectType */\n  0x00\n  dup1\n    /* \"Project.sol\":537:563  projectType = _projectType */\n  0x0100\n  exp\n  dup2\n  sload\n  dup2\n  0xff\n  mul\n  not\n  and\n  swap1\n  dup4\n  0x01\n  dup2\n  gt\n  iszero\n  tag_6\n  jumpi\n  tag_7\n  tag_8\n  jump\t// in\ntag_7:\ntag_6:\n  mul\n  or\n  swap1\n  sstore\n  pop\n    /* \"Project.sol\":592:608  _proposalAddress */\n  dup1\n    /* \"Project.sol\":574:608  proposalAddress = _proposalAddress */\n  0xffffffffffffffffffffffffffffffffffffffff\n  and\n  0xc0\n  dup2\n  0xffffffffffffffffffffffffffffffffffffffff\n  and\n  dup2\n  mstore\n  pop\n  pop\n    /* \"Project.sol\":300:616  constructor(... */\n  pop\n  pop\n  pop\n  pop\n    /* \"Project.sol\":92:1068  contract Project {... */\n  jump(tag_9)\n    /* \"#utility.yul\":88:205   */\ntag_11:\n    /* \"#utility.yul\":197:198   */\n  0x00\n    /* \"#utility.yul\":194:195   */\n  dup1\n    /* \"#utility.yul\":187:199   */\n  revert\n    /* \"#utility.yul\":334:460   */\ntag_13:\n    /* \"#utility.yul\":371:378   */\n  0x00\n    /* \"#utility.yul\":411:453   */\n  0xffffffffffffffffffffffffffffffffffffffff\n    /* \"#utility.yul\":404:409   */\n  dup3\n    /* \"#utility.yul\":400:454   */\n  and\n    /* \"#utility.yul\":389:454   */\n  swap1\n  pop\n    /* \"#utility.yul\":334:460   */\n  swap2\n  swap1\n  pop\n  jump\t// out\n    /* \"#utility.yul\":466:562   */\ntag_14:\n    /* \"#utility.yul\":503:510   */\n  0x00\n    /* \"#utility.yul\":532:556   */\n  tag_25\n    /* \"#utility.yul\":550:555   */\n  dup3\n    /* \"#utility.yul\":532:556   */\n  tag_13\n  jump\t// in\ntag_25:\n    /* \"#utility.yul\":521:556   */\n  swap1\n  pop\n    /* \"#utility.yul\":466:562   */\n  swap2\n  swap1\n  pop\n  jump\t// out\n    /* \"#utility.yul\":568:690   */\ntag_15:\n    /* \"#utility.yul\":641:665   */\n  tag_27\n    /* \"#utility.yul\":659:664   */\n  dup2\n    /* \"#utility.yul\":641:665   */\n  tag_14\n  jump\t// in\ntag_27:\n    /* \"#utility.yul\":634:639   */\n  dup2\n    /* \"#utility.yul\":631:666   */\n  eq\n    /* \"#utility.yul\":621:684   */\n  tag_28\n  jumpi\n    /* \"#utility.yul\":680:681   */\n  0x00\n    /* \"#utility.yul\":677:678   */\n  dup1\n    /* \"#utility.yul\":670:682   */\n  revert\n    /* \"#utility.yul\":621:684   */\ntag_28:\n    /* \"#utility.yul\":568:690   */\n  pop\n  jump\t// out\n    /* \"#utility.yul\":696:839   */\ntag_16:\n    /* \"#utility.yul\":753:758   */\n  0x00\n    /* \"#utility.yul\":784:790   */\n  dup2\n    /* \"#utility.yul\":778:791   */\n  mload\n    /* \"#utility.yul\":769:791   */\n  swap1\n  pop\n    /* \"#utility.yul\":800:833   */\n  tag_30\n    /* \"#utility.yul\":827:832   */\n  dup2\n    /* \"#utility.yul\":800:833   */\n  tag_15\n  jump\t// in\ntag_30:\n    /* \"#utility.yul\":696:839   */\n  swap3\n  swap2\n  pop\n  pop\n  jump\t// out\n    /* \"#utility.yul\":845:960   */\ntag_17:\n    /* \"#utility.yul\":934:935   */\n  0x02\n    /* \"#utility.yul\":927:932   */\n  dup2\n    /* \"#utility.yul\":924:936   */\n  lt\n    /* \"#utility.yul\":914:954   */\n  tag_32\n  jumpi\n    /* \"#utility.yul\":950:951   */\n  0x00\n    /* \"#utility.yul\":947:948   */\n  dup1\n    /* \"#utility.yul\":940:952   */\n  revert\n    /* \"#utility.yul\":914:954   */\ntag_32:\n    /* \"#utility.yul\":845:960   */\n  pop\n  jump\t// out\n    /* \"#utility.yul\":966:1141   */\ntag_18:\n    /* \"#utility.yul\":1039:1044   */\n  0x00\n    /* \"#utility.yul\":1070:1076   */\n  dup2\n    /* \"#utility.yul\":1064:1077   */\n  mload\n    /* \"#utility.yul\":1055:1077   */\n  swap1\n  pop\n    /* \"#utility.yul\":1086:1135   */\n  tag_34\n    /* \"#utility.yul\":1129:1134   */\n  dup2\n    /* \"#utility.yul\":1086:1135   */\n  tag_17\n  jump\t// in\ntag_34:\n    /* \"#utility.yul\":966:1141   */\n  swap3\n  swap2\n  pop\n  pop\n  jump\t// out\n    /* \"#utility.yul\":1147:1999   */\ntag_3:\n    /* \"#utility.yul\":1260:1266   */\n  0x00\n    /* \"#utility.yul\":1268:1274   */\n  dup1\n    /* \"#utility.yul\":1276:1282   */\n  0x00\n    /* \"#utility.yul\":1284:1290   */\n  dup1\n    /* \"#utility.yul\":1333:1336   */\n  0x80\n    /* \"#utility.yul\":1321:1330   */\n  dup6\n    /* \"#utility.yul\":1312:1319   */\n  dup8\n    /* \"#utility.yul\":1308:1331   */\n  sub\n    /* \"#utility.yul\":1304:1337   */\n  slt\n    /* \"#utility.yul\":1301:1421   */\n  iszero\n  tag_36\n  jumpi\n    /* \"#utility.yul\":1340:1419   */\n  tag_37\n  tag_11\n  jump\t// in\ntag_37:\n    /* \"#utility.yul\":1301:1421   */\ntag_36:\n    /* \"#utility.yul\":1460:1461   */\n  0x00\n    /* \"#utility.yul\":1485:1549   */\n  tag_38\n    /* \"#utility.yul\":1541:1548   */\n  dup8\n    /* \"#utility.yul\":1532:1538   */\n  dup3\n    /* \"#utility.yul\":1521:1530   */\n  dup9\n    /* \"#utility.yul\":1517:1539   */\n  add\n    /* \"#utility.yul\":1485:1549   */\n  tag_16\n  jump\t// in\ntag_38:\n    /* \"#utility.yul\":1475:1549   */\n  swap5\n  pop\n    /* \"#utility.yul\":1431:1559   */\n  pop\n    /* \"#utility.yul\":1598:1600   */\n  0x20\n    /* \"#utility.yul\":1624:1688   */\n  tag_39\n    /* \"#utility.yul\":1680:1687   */\n  dup8\n    /* \"#utility.yul\":1671:1677   */\n  dup3\n    /* \"#utility.yul\":1660:1669   */\n  dup9\n    /* \"#utility.yul\":1656:1678   */\n  add\n    /* \"#utility.yul\":1624:1688   */\n  tag_16\n  jump\t// in\ntag_39:\n    /* \"#utility.yul\":1614:1688   */\n  swap4\n  pop\n    /* \"#utility.yul\":1569:1698   */\n  pop\n    /* \"#utility.yul\":1737:1739   */\n  0x40\n    /* \"#utility.yul\":1763:1843   */\n  tag_40\n    /* \"#utility.yul\":1835:1842   */\n  dup8\n    /* \"#utility.yul\":1826:1832   */\n  dup3\n    /* \"#utility.yul\":1815:1824   */\n  dup9\n    /* \"#utility.yul\":1811:1833   */\n  add\n    /* \"#utility.yul\":1763:1843   */\n  tag_18\n  jump\t// in\ntag_40:\n    /* \"#utility.yul\":1753:1843   */\n  swap3\n  pop\n    /* \"#utility.yul\":1708:1853   */\n  pop\n    /* \"#utility.yul\":1892:1894   */\n  0x60\n    /* \"#utility.yul\":1918:1982   */\n  tag_41\n    /* \"#utility.yul\":1974:1981   */\n  dup8\n    /* \"#utility.yul\":1965:1971   */\n  dup3\n    /* \"#utility.yul\":1954:1963   */\n  dup9\n    /* \"#utility.yul\":1950:1972   */\n  add\n    /* \"#utility.yul\":1918:1982   */\n  tag_16\n  jump\t// in\ntag_41:\n    /* \"#utility.yul\":1908:1982   */\n  swap2\n  pop\n    /* \"#utility.yul\":1863:1992   */\n  pop\n    /* \"#utility.yul\":1147:1999   */\n  swap3\n  swap6\n  swap2\n  swap5\n  pop\n  swap3\n  pop\n  jump\t// out\n    /* \"#utility.yul\":2005:2185   */\ntag_8:\n    /* \"#utility.yul\":2053:2130   */\n  0x4e487b7100000000000000000000000000000000000000000000000000000000\n    /* \"#utility.yul\":2050:2051   */\n  0x00\n    /* \"#utility.yul\":2043:2131   */\n  mstore\n    /* \"#utility.yul\":2150:2154   */\n  0x21\n    /* \"#utility.yul\":2147:2148   */\n  0x04\n    /* \"#utility.yul\":2140:2155   */\n  mstore\n    /* \"#utility.yul\":2174:2178   */\n  0x24\n    /* \"#utility.yul\":2171:2172   */\n  0x00\n    /* \"#utility.yul\":2164:2179   */\n  revert\n    /* \"Project.sol\":92:1068  contract Project {... */\ntag_9:\n  mload(0x80)\n  mload(0xa0)\n  mload(0xc0)\n  codecopy(0x00, dataOffset(sub_0), dataSize(sub_0))\n  0x00\n  assignImmutable(\"0x6b5c062ff531e4aab4774f509e92f4d1142a84e2071479e43245c0e4a7940df4\")\n  0x00\n  assignImmutable(\"0x755086c717cb5d158287af515dd799b5ec7f30c3baee71f20accbab571e166d5\")\n  0x00\n  assignImmutable(\"0x7173bb0c0c341c627c9734f9095ef27b00afaca222d0fccf9d280fbad8b7c078\")\n  return(0x00, dataSize(sub_0))\nstop\n\nsub_0: assembly {\n        /* \"Project.sol\":92:1068  contract Project {... */\n      mstore(0x40, 0x80)\n      callvalue\n      dup1\n      iszero\n      tag_1\n      jumpi\n      0x00\n      dup1\n      revert\n    tag_1:\n      pop\n      jumpi(tag_2, lt(calldatasize, 0x04))\n      shr(0xe0, calldataload(0x00))\n      dup1\n      0xb6c786d3\n      gt\n      tag_12\n      jumpi\n      dup1\n      0xb6c786d3\n      eq\n      tag_7\n      jumpi\n      dup1\n      0xc2fc0d26\n      eq\n      tag_8\n      jumpi\n      dup1\n      0xc4f6b0fa\n      eq\n      tag_9\n      jumpi\n      dup1\n      0xe917b027\n      eq\n      tag_10\n      jumpi\n      dup1\n      0xfaff660e\n      eq\n      tag_11\n      jumpi\n      jump(tag_2)\n    tag_12:\n      dup1\n      0x171a47cd\n      eq\n      tag_3\n      jumpi\n      dup1\n      0x2551cb65\n      eq\n      tag_4\n      jumpi\n      dup1\n      0xa4c2f651\n      eq\n      tag_5\n      jumpi\n      dup1\n      0xb1e9451a\n      eq\n      tag_6\n      jumpi\n    tag_2:\n      0x00\n      dup1\n      revert\n        /* \"Project.sol\":1017:1065  function setIsPrivate(bool _isPrivate) public {} */\n    tag_3:\n      tag_13\n      0x04\n      dup1\n      calldatasize\n      sub\n      dup2\n      add\n      swap1\n      tag_14\n      swap2\n      swap1\n      tag_15\n      jump\t// in\n    tag_14:\n      tag_16\n      jump\t// in\n    tag_13:\n      stop\n        /* \"Project.sol\":745:815  function getProjectMembers() public view returns (address[] memory) {} */\n    tag_4:\n      tag_17\n      tag_18\n      jump\t// in\n    tag_17:\n      mload(0x40)\n      tag_19\n      swap2\n      swap1\n      tag_20\n      jump\t// in\n    tag_19:\n      mload(0x40)\n      dup1\n      swap2\n      sub\n      swap1\n      return\n        /* \"Project.sol\":823:874  function setProjectLeader(address member) public {} */\n    tag_5:\n      tag_21\n      0x04\n      dup1\n      calldatasize\n      sub\n      dup2\n      add\n      swap1\n      tag_22\n      swap2\n      swap1\n      tag_23\n      jump\t// in\n    tag_22:\n      tag_24\n      jump\t// in\n    tag_21:\n      stop\n        /* \"Project.sol\":683:737  function removeProjectMember(address member) public {} */\n    tag_6:\n      tag_25\n      0x04\n      dup1\n      calldatasize\n      sub\n      dup2\n      add\n      swap1\n      tag_26\n      swap2\n      swap1\n      tag_23\n      jump\t// in\n    tag_26:\n      tag_27\n      jump\t// in\n    tag_25:\n      stop\n        /* \"Project.sol\":624:675  function addProjectMember(address member) public {} */\n    tag_7:\n      tag_28\n      0x04\n      dup1\n      calldatasize\n      sub\n      dup2\n      add\n      swap1\n      tag_29\n      swap2\n      swap1\n      tag_23\n      jump\t// in\n    tag_29:\n      tag_30\n      jump\t// in\n    tag_28:\n      stop\n        /* \"Project.sol\":233:263  ProjectType public projectType */\n    tag_8:\n      tag_31\n      tag_32\n      jump\t// in\n    tag_31:\n      mload(0x40)\n      tag_33\n      swap2\n      swap1\n      tag_34\n      jump\t// in\n    tag_33:\n      mload(0x40)\n      dup1\n      swap2\n      sub\n      swap1\n      return\n        /* \"Project.sol\":942:1009  function setProjectDescription(string memory description) public {} */\n    tag_9:\n      tag_35\n      0x04\n      dup1\n      calldatasize\n      sub\n      dup2\n      add\n      swap1\n      tag_36\n      swap2\n      swap1\n      tag_37\n      jump\t// in\n    tag_36:\n      tag_38\n      jump\t// in\n    tag_35:\n      stop\n        /* \"Project.sol\":882:934  function setProjectManager(address member) public {} */\n    tag_10:\n      tag_39\n      0x04\n      dup1\n      calldatasize\n      sub\n      dup2\n      add\n      swap1\n      tag_40\n      swap2\n      swap1\n      tag_23\n      jump\t// in\n    tag_40:\n      tag_41\n      jump\t// in\n    tag_39:\n      stop\n        /* \"Project.sol\":270:291  bool public isPrivate */\n    tag_11:\n      tag_42\n      tag_43\n      jump\t// in\n    tag_42:\n      mload(0x40)\n      tag_44\n      swap2\n      swap1\n      tag_45\n      jump\t// in\n    tag_44:\n      mload(0x40)\n      dup1\n      swap2\n      sub\n      swap1\n      return\n        /* \"Project.sol\":1017:1065  function setIsPrivate(bool _isPrivate) public {} */\n    tag_16:\n      pop\n      jump\t// out\n        /* \"Project.sol\":745:815  function getProjectMembers() public view returns (address[] memory) {} */\n    tag_18:\n        /* \"Project.sol\":795:811  address[] memory */\n      0x60\n        /* \"Project.sol\":745:815  function getProjectMembers() public view returns (address[] memory) {} */\n      swap1\n      jump\t// out\n        /* \"Project.sol\":823:874  function setProjectLeader(address member) public {} */\n    tag_24:\n      pop\n      jump\t// out\n        /* \"Project.sol\":683:737  function removeProjectMember(address member) public {} */\n    tag_27:\n      pop\n      jump\t// out\n        /* \"Project.sol\":624:675  function addProjectMember(address member) public {} */\n    tag_30:\n      pop\n      jump\t// out\n        /* \"Project.sol\":233:263  ProjectType public projectType */\n    tag_32:\n      0x00\n      dup1\n      sload\n      swap1\n      0x0100\n      exp\n      swap1\n      div\n      0xff\n      and\n      dup2\n      jump\t// out\n        /* \"Project.sol\":942:1009  function setProjectDescription(string memory description) public {} */\n    tag_38:\n      pop\n      jump\t// out\n        /* \"Project.sol\":882:934  function setProjectManager(address member) public {} */\n    tag_41:\n      pop\n      jump\t// out\n        /* \"Project.sol\":270:291  bool public isPrivate */\n    tag_43:\n      0x00\n      0x01\n      swap1\n      sload\n      swap1\n      0x0100\n      exp\n      swap1\n      div\n      0xff\n      and\n      dup2\n      jump\t// out\n        /* \"#utility.yul\":7:82   */\n    tag_53:\n        /* \"#utility.yul\":40:46   */\n      0x00\n        /* \"#utility.yul\":73:75   */\n      0x40\n        /* \"#utility.yul\":67:76   */\n      mload\n        /* \"#utility.yul\":57:76   */\n      swap1\n      pop\n        /* \"#utility.yul\":7:82   */\n      swap1\n      jump\t// out\n        /* \"#utility.yul\":88:205   */\n    tag_54:\n        /* \"#utility.yul\":197:198   */\n      0x00\n        /* \"#utility.yul\":194:195   */\n      dup1\n        /* \"#utility.yul\":187:199   */\n      revert\n        /* \"#utility.yul\":211:328   */\n    tag_55:\n        /* \"#utility.yul\":320:321   */\n      0x00\n        /* \"#utility.yul\":317:318   */\n      dup1\n        /* \"#utility.yul\":310:322   */\n      revert\n        /* \"#utility.yul\":334:424   */\n    tag_56:\n        /* \"#utility.yul\":368:375   */\n      0x00\n        /* \"#utility.yul\":411:416   */\n      dup2\n        /* \"#utility.yul\":404:417   */\n      iszero\n        /* \"#utility.yul\":397:418   */\n      iszero\n        /* \"#utility.yul\":386:418   */\n      swap1\n      pop\n        /* \"#utility.yul\":334:424   */\n      swap2\n      swap1\n      pop\n      jump\t// out\n        /* \"#utility.yul\":430:546   */\n    tag_57:\n        /* \"#utility.yul\":500:521   */\n      tag_92\n        /* \"#utility.yul\":515:520   */\n      dup2\n        /* \"#utility.yul\":500:521   */\n      tag_56\n      jump\t// in\n    tag_92:\n        /* \"#utility.yul\":493:498   */\n      dup2\n        /* \"#utility.yul\":490:522   */\n      eq\n        /* \"#utility.yul\":480:540   */\n      tag_93\n      jumpi\n        /* \"#utility.yul\":536:537   */\n      0x00\n        /* \"#utility.yul\":533:534   */\n      dup1\n        /* \"#utility.yul\":526:538   */\n      revert\n        /* \"#utility.yul\":480:540   */\n    tag_93:\n        /* \"#utility.yul\":430:546   */\n      pop\n      jump\t// out\n        /* \"#utility.yul\":552:685   */\n    tag_58:\n        /* \"#utility.yul\":595:600   */\n      0x00\n        /* \"#utility.yul\":633:639   */\n      dup2\n        /* \"#utility.yul\":620:640   */\n      calldataload\n        /* \"#utility.yul\":611:640   */\n      swap1\n      pop\n        /* \"#utility.yul\":649:679   */\n      tag_95\n        /* \"#utility.yul\":673:678   */\n      dup2\n        /* \"#utility.yul\":649:679   */\n      tag_57\n      jump\t// in\n    tag_95:\n        /* \"#utility.yul\":552:685   */\n      swap3\n      swap2\n      pop\n      pop\n      jump\t// out\n        /* \"#utility.yul\":691:1014   */\n    tag_15:\n        /* \"#utility.yul\":747:753   */\n      0x00\n        /* \"#utility.yul\":796:798   */\n      0x20\n        /* \"#utility.yul\":784:793   */\n      dup3\n        /* \"#utility.yul\":775:782   */\n      dup5\n        /* \"#utility.yul\":771:794   */\n      sub\n        /* \"#utility.yul\":767:799   */\n      slt\n        /* \"#utility.yul\":764:883   */\n      iszero\n      tag_97\n      jumpi\n        /* \"#utility.yul\":802:881   */\n      tag_98\n      tag_54\n      jump\t// in\n    tag_98:\n        /* \"#utility.yul\":764:883   */\n    tag_97:\n        /* \"#utility.yul\":922:923   */\n      0x00\n        /* \"#utility.yul\":947:997   */\n      tag_99\n        /* \"#utility.yul\":989:996   */\n      dup5\n        /* \"#utility.yul\":980:986   */\n      dup3\n        /* \"#utility.yul\":969:978   */\n      dup6\n        /* \"#utility.yul\":965:987   */\n      add\n        /* \"#utility.yul\":947:997   */\n      tag_58\n      jump\t// in\n    tag_99:\n        /* \"#utility.yul\":937:997   */\n      swap2\n      pop\n        /* \"#utility.yul\":893:1007   */\n      pop\n        /* \"#utility.yul\":691:1014   */\n      swap3\n      swap2\n      pop\n      pop\n      jump\t// out\n        /* \"#utility.yul\":1020:1134   */\n    tag_59:\n        /* \"#utility.yul\":1087:1093   */\n      0x00\n        /* \"#utility.yul\":1121:1126   */\n      dup2\n        /* \"#utility.yul\":1115:1127   */\n      mload\n        /* \"#utility.yul\":1105:1127   */\n      swap1\n      pop\n        /* \"#utility.yul\":1020:1134   */\n      swap2\n      swap1\n      pop\n      jump\t// out\n        /* \"#utility.yul\":1140:1324   */\n    tag_60:\n        /* \"#utility.yul\":1239:1250   */\n      0x00\n        /* \"#utility.yul\":1273:1279   */\n      dup3\n        /* \"#utility.yul\":1268:1271   */\n      dup3\n        /* \"#utility.yul\":1261:1280   */\n      mstore\n        /* \"#utility.yul\":1313:1317   */\n      0x20\n        /* \"#utility.yul\":1308:1311   */\n      dup3\n        /* \"#utility.yul\":1304:1318   */\n      add\n        /* \"#utility.yul\":1289:1318   */\n      swap1\n      pop\n        /* \"#utility.yul\":1140:1324   */\n      swap3\n      swap2\n      pop\n      pop\n      jump\t// out\n        /* \"#utility.yul\":1330:1462   */\n    tag_61:\n        /* \"#utility.yul\":1397:1401   */\n      0x00\n        /* \"#utility.yul\":1420:1423   */\n      dup2\n        /* \"#utility.yul\":1412:1423   */\n      swap1\n      pop\n        /* \"#utility.yul\":1450:1454   */\n      0x20\n        /* \"#utility.yul\":1445:1448   */\n      dup3\n        /* \"#utility.yul\":1441:1455   */\n      add\n        /* \"#utility.yul\":1433:1455   */\n      swap1\n      pop\n        /* \"#utility.yul\":1330:1462   */\n      swap2\n      swap1\n      pop\n      jump\t// out\n        /* \"#utility.yul\":1468:1594   */\n    tag_62:\n        /* \"#utility.yul\":1505:1512   */\n      0x00\n        /* \"#utility.yul\":1545:1587   */\n      0xffffffffffffffffffffffffffffffffffffffff\n        /* \"#utility.yul\":1538:1543   */\n      dup3\n        /* \"#utility.yul\":1534:1588   */\n      and\n        /* \"#utility.yul\":1523:1588   */\n      swap1\n      pop\n        /* \"#utility.yul\":1468:1594   */\n      swap2\n      swap1\n      pop\n      jump\t// out\n        /* \"#utility.yul\":1600:1696   */\n    tag_63:\n        /* \"#utility.yul\":1637:1644   */\n      0x00\n        /* \"#utility.yul\":1666:1690   */\n      tag_105\n        /* \"#utility.yul\":1684:1689   */\n      dup3\n        /* \"#utility.yul\":1666:1690   */\n      tag_62\n      jump\t// in\n    tag_105:\n        /* \"#utility.yul\":1655:1690   */\n      swap1\n      pop\n        /* \"#utility.yul\":1600:1696   */\n      swap2\n      swap1\n      pop\n      jump\t// out\n        /* \"#utility.yul\":1702:1810   */\n    tag_64:\n        /* \"#utility.yul\":1779:1803   */\n      tag_107\n        /* \"#utility.yul\":1797:1802   */\n      dup2\n        /* \"#utility.yul\":1779:1803   */\n      tag_63\n      jump\t// in\n    tag_107:\n        /* \"#utility.yul\":1774:1777   */\n      dup3\n        /* \"#utility.yul\":1767:1804   */\n      mstore\n        /* \"#utility.yul\":1702:1810   */\n      pop\n      pop\n      jump\t// out\n        /* \"#utility.yul\":1816:1995   */\n    tag_65:\n        /* \"#utility.yul\":1885:1895   */\n      0x00\n        /* \"#utility.yul\":1906:1952   */\n      tag_109\n        /* \"#utility.yul\":1948:1951   */\n      dup4\n        /* \"#utility.yul\":1940:1946   */\n      dup4\n        /* \"#utility.yul\":1906:1952   */\n      tag_64\n      jump\t// in\n    tag_109:\n        /* \"#utility.yul\":1984:1988   */\n      0x20\n        /* \"#utility.yul\":1979:1982   */\n      dup4\n        /* \"#utility.yul\":1975:1989   */\n      add\n        /* \"#utility.yul\":1961:1989   */\n      swap1\n      pop\n        /* \"#utility.yul\":1816:1995   */\n      swap3\n      swap2\n      pop\n      pop\n      jump\t// out\n        /* \"#utility.yul\":2001:2114   */\n    tag_66:\n        /* \"#utility.yul\":2071:2075   */\n      0x00\n        /* \"#utility.yul\":2103:2107   */\n      0x20\n        /* \"#utility.yul\":2098:2101   */\n      dup3\n        /* \"#utility.yul\":2094:2108   */\n      add\n        /* \"#utility.yul\":2086:2108   */\n      swap1\n      pop\n        /* \"#utility.yul\":2001:2114   */\n      swap2\n      swap1\n      pop\n      jump\t// out\n        /* \"#utility.yul\":2150:2882   */\n    tag_67:\n        /* \"#utility.yul\":2269:2272   */\n      0x00\n        /* \"#utility.yul\":2298:2352   */\n      tag_112\n        /* \"#utility.yul\":2346:2351   */\n      dup3\n        /* \"#utility.yul\":2298:2352   */\n      tag_59\n      jump\t// in\n    tag_112:\n        /* \"#utility.yul\":2368:2454   */\n      tag_113\n        /* \"#utility.yul\":2447:2453   */\n      dup2\n        /* \"#utility.yul\":2442:2445   */\n      dup6\n        /* \"#utility.yul\":2368:2454   */\n      tag_60\n      jump\t// in\n    tag_113:\n        /* \"#utility.yul\":2361:2454   */\n      swap4\n      pop\n        /* \"#utility.yul\":2478:2534   */\n      tag_114\n        /* \"#utility.yul\":2528:2533   */\n      dup4\n        /* \"#utility.yul\":2478:2534   */\n      tag_61\n      jump\t// in\n    tag_114:\n        /* \"#utility.yul\":2557:2564   */\n      dup1\n        /* \"#utility.yul\":2588:2589   */\n      0x00\n        /* \"#utility.yul\":2573:2857   */\n    tag_115:\n        /* \"#utility.yul\":2598:2604   */\n      dup4\n        /* \"#utility.yul\":2595:2596   */\n      dup2\n        /* \"#utility.yul\":2592:2605   */\n      lt\n        /* \"#utility.yul\":2573:2857   */\n      iszero\n      tag_117\n      jumpi\n        /* \"#utility.yul\":2674:2680   */\n      dup2\n        /* \"#utility.yul\":2668:2681   */\n      mload\n        /* \"#utility.yul\":2701:2764   */\n      tag_118\n        /* \"#utility.yul\":2760:2763   */\n      dup9\n        /* \"#utility.yul\":2745:2758   */\n      dup3\n        /* \"#utility.yul\":2701:2764   */\n      tag_65\n      jump\t// in\n    tag_118:\n        /* \"#utility.yul\":2694:2764   */\n      swap8\n      pop\n        /* \"#utility.yul\":2787:2847   */\n      tag_119\n        /* \"#utility.yul\":2840:2846   */\n      dup4\n        /* \"#utility.yul\":2787:2847   */\n      tag_66\n      jump\t// in\n    tag_119:\n        /* \"#utility.yul\":2777:2847   */\n      swap3\n      pop\n        /* \"#utility.yul\":2633:2857   */\n      pop\n        /* \"#utility.yul\":2620:2621   */\n      0x01\n        /* \"#utility.yul\":2617:2618   */\n      dup2\n        /* \"#utility.yul\":2613:2622   */\n      add\n        /* \"#utility.yul\":2608:2622   */\n      swap1\n      pop\n        /* \"#utility.yul\":2573:2857   */\n      jump(tag_115)\n    tag_117:\n        /* \"#utility.yul\":2577:2591   */\n      pop\n        /* \"#utility.yul\":2873:2876   */\n      dup6\n        /* \"#utility.yul\":2866:2876   */\n      swap4\n      pop\n        /* \"#utility.yul\":2274:2882   */\n      pop\n      pop\n      pop\n        /* \"#utility.yul\":2150:2882   */\n      swap3\n      swap2\n      pop\n      pop\n      jump\t// out\n        /* \"#utility.yul\":2888:3261   */\n    tag_20:\n        /* \"#utility.yul\":3031:3035   */\n      0x00\n        /* \"#utility.yul\":3069:3071   */\n      0x20\n        /* \"#utility.yul\":3058:3067   */\n      dup3\n        /* \"#utility.yul\":3054:3072   */\n      add\n        /* \"#utility.yul\":3046:3072   */\n      swap1\n      pop\n        /* \"#utility.yul\":3118:3127   */\n      dup2\n        /* \"#utility.yul\":3112:3116   */\n      dup2\n        /* \"#utility.yul\":3108:3128   */\n      sub\n        /* \"#utility.yul\":3104:3105   */\n      0x00\n        /* \"#utility.yul\":3093:3102   */\n      dup4\n        /* \"#utility.yul\":3089:3106   */\n      add\n        /* \"#utility.yul\":3082:3129   */\n      mstore\n        /* \"#utility.yul\":3146:3254   */\n      tag_121\n        /* \"#utility.yul\":3249:3253   */\n      dup2\n        /* \"#utility.yul\":3240:3246   */\n      dup5\n        /* \"#utility.yul\":3146:3254   */\n      tag_67\n      jump\t// in\n    tag_121:\n        /* \"#utility.yul\":3138:3254   */\n      swap1\n      pop\n        /* \"#utility.yul\":2888:3261   */\n      swap3\n      swap2\n      pop\n      pop\n      jump\t// out\n        /* \"#utility.yul\":3267:3389   */\n    tag_68:\n        /* \"#utility.yul\":3340:3364   */\n      tag_123\n        /* \"#utility.yul\":3358:3363   */\n      dup2\n        /* \"#utility.yul\":3340:3364   */\n      tag_63\n      jump\t// in\n    tag_123:\n        /* \"#utility.yul\":3333:3338   */\n      dup2\n        /* \"#utility.yul\":3330:3365   */\n      eq\n        /* \"#utility.yul\":3320:3383   */\n      tag_124\n      jumpi\n        /* \"#utility.yul\":3379:3380   */\n      0x00\n        /* \"#utility.yul\":3376:3377   */\n      dup1\n        /* \"#utility.yul\":3369:3381   */\n      revert\n        /* \"#utility.yul\":3320:3383   */\n    tag_124:\n        /* \"#utility.yul\":3267:3389   */\n      pop\n      jump\t// out\n        /* \"#utility.yul\":3395:3534   */\n    tag_69:\n        /* \"#utility.yul\":3441:3446   */\n      0x00\n        /* \"#utility.yul\":3479:3485   */\n      dup2\n        /* \"#utility.yul\":3466:3486   */\n      calldataload\n        /* \"#utility.yul\":3457:3486   */\n      swap1\n      pop\n        /* \"#utility.yul\":3495:3528   */\n      tag_126\n        /* \"#utility.yul\":3522:3527   */\n      dup2\n        /* \"#utility.yul\":3495:3528   */\n      tag_68\n      jump\t// in\n    tag_126:\n        /* \"#utility.yul\":3395:3534   */\n      swap3\n      swap2\n      pop\n      pop\n      jump\t// out\n        /* \"#utility.yul\":3540:3869   */\n    tag_23:\n        /* \"#utility.yul\":3599:3605   */\n      0x00\n        /* \"#utility.yul\":3648:3650   */\n      0x20\n        /* \"#utility.yul\":3636:3645   */\n      dup3\n        /* \"#utility.yul\":3627:3634   */\n      dup5\n        /* \"#utility.yul\":3623:3646   */\n      sub\n        /* \"#utility.yul\":3619:3651   */\n      slt\n        /* \"#utility.yul\":3616:3735   */\n      iszero\n      tag_128\n      jumpi\n        /* \"#utility.yul\":3654:3733   */\n      tag_129\n      tag_54\n      jump\t// in\n    tag_129:\n        /* \"#utility.yul\":3616:3735   */\n    tag_128:\n        /* \"#utility.yul\":3774:3775   */\n      0x00\n        /* \"#utility.yul\":3799:3852   */\n      tag_130\n        /* \"#utility.yul\":3844:3851   */\n      dup5\n        /* \"#utility.yul\":3835:3841   */\n      dup3\n        /* \"#utility.yul\":3824:3833   */\n      dup6\n        /* \"#utility.yul\":3820:3842   */\n      add\n        /* \"#utility.yul\":3799:3852   */\n      tag_69\n      jump\t// in\n    tag_130:\n        /* \"#utility.yul\":3789:3852   */\n      swap2\n      pop\n        /* \"#utility.yul\":3745:3862   */\n      pop\n        /* \"#utility.yul\":3540:3869   */\n      swap3\n      swap2\n      pop\n      pop\n      jump\t// out\n        /* \"#utility.yul\":3875:4055   */\n    tag_70:\n        /* \"#utility.yul\":3923:4000   */\n      0x4e487b7100000000000000000000000000000000000000000000000000000000\n        /* \"#utility.yul\":3920:3921   */\n      0x00\n        /* \"#utility.yul\":3913:4001   */\n      mstore\n        /* \"#utility.yul\":4020:4024   */\n      0x21\n        /* \"#utility.yul\":4017:4018   */\n      0x04\n        /* \"#utility.yul\":4010:4025   */\n      mstore\n        /* \"#utility.yul\":4044:4048   */\n      0x24\n        /* \"#utility.yul\":4041:4042   */\n      0x00\n        /* \"#utility.yul\":4034:4049   */\n      revert\n        /* \"#utility.yul\":4061:4182   */\n    tag_71:\n        /* \"#utility.yul\":4150:4151   */\n      0x02\n        /* \"#utility.yul\":4143:4148   */\n      dup2\n        /* \"#utility.yul\":4140:4152   */\n      lt\n        /* \"#utility.yul\":4130:4176   */\n      tag_133\n      jumpi\n        /* \"#utility.yul\":4156:4174   */\n      tag_134\n      tag_70\n      jump\t// in\n    tag_134:\n        /* \"#utility.yul\":4130:4176   */\n    tag_133:\n        /* \"#utility.yul\":4061:4182   */\n      pop\n      jump\t// out\n        /* \"#utility.yul\":4188:4331   */\n    tag_72:\n        /* \"#utility.yul\":4241:4248   */\n      0x00\n        /* \"#utility.yul\":4270:4275   */\n      dup2\n        /* \"#utility.yul\":4259:4275   */\n      swap1\n      pop\n        /* \"#utility.yul\":4276:4325   */\n      tag_136\n        /* \"#utility.yul\":4319:4324   */\n      dup3\n        /* \"#utility.yul\":4276:4325   */\n      tag_71\n      jump\t// in\n    tag_136:\n        /* \"#utility.yul\":4188:4331   */\n      swap2\n      swap1\n      pop\n      jump\t// out\n        /* \"#utility.yul\":4337:4480   */\n    tag_73:\n        /* \"#utility.yul\":4401:4410   */\n      0x00\n        /* \"#utility.yul\":4434:4474   */\n      tag_138\n        /* \"#utility.yul\":4468:4473   */\n      dup3\n        /* \"#utility.yul\":4434:4474   */\n      tag_72\n      jump\t// in\n    tag_138:\n        /* \"#utility.yul\":4421:4474   */\n      swap1\n      pop\n        /* \"#utility.yul\":4337:4480   */\n      swap2\n      swap1\n      pop\n      jump\t// out\n        /* \"#utility.yul\":4486:4645   */\n    tag_74:\n        /* \"#utility.yul\":4587:4638   */\n      tag_140\n        /* \"#utility.yul\":4632:4637   */\n      dup2\n        /* \"#utility.yul\":4587:4638   */\n      tag_73\n      jump\t// in\n    tag_140:\n        /* \"#utility.yul\":4582:4585   */\n      dup3\n        /* \"#utility.yul\":4575:4639   */\n      mstore\n        /* \"#utility.yul\":4486:4645   */\n      pop\n      pop\n      jump\t// out\n        /* \"#utility.yul\":4651:4901   */\n    tag_34:\n        /* \"#utility.yul\":4758:4762   */\n      0x00\n        /* \"#utility.yul\":4796:4798   */\n      0x20\n        /* \"#utility.yul\":4785:4794   */\n      dup3\n        /* \"#utility.yul\":4781:4799   */\n      add\n        /* \"#utility.yul\":4773:4799   */\n      swap1\n      pop\n        /* \"#utility.yul\":4809:4894   */\n      tag_142\n        /* \"#utility.yul\":4891:4892   */\n      0x00\n        /* \"#utility.yul\":4880:4889   */\n      dup4\n        /* \"#utility.yul\":4876:4893   */\n      add\n        /* \"#utility.yul\":4867:4873   */\n      dup5\n        /* \"#utility.yul\":4809:4894   */\n      tag_74\n      jump\t// in\n    tag_142:\n        /* \"#utility.yul\":4651:4901   */\n      swap3\n      swap2\n      pop\n      pop\n      jump\t// out\n        /* \"#utility.yul\":4907:5024   */\n    tag_75:\n        /* \"#utility.yul\":5016:5017   */\n      0x00\n        /* \"#utility.yul\":5013:5014   */\n      dup1\n        /* \"#utility.yul\":5006:5018   */\n      revert\n        /* \"#utility.yul\":5030:5147   */\n    tag_76:\n        /* \"#utility.yul\":5139:5140   */\n      0x00\n        /* \"#utility.yul\":5136:5137   */\n      dup1\n        /* \"#utility.yul\":5129:5141   */\n      revert\n        /* \"#utility.yul\":5153:5255   */\n    tag_77:\n        /* \"#utility.yul\":5194:5200   */\n      0x00\n        /* \"#utility.yul\":5245:5247   */\n      0x1f\n        /* \"#utility.yul\":5241:5248   */\n      not\n        /* \"#utility.yul\":5236:5238   */\n      0x1f\n        /* \"#utility.yul\":5229:5234   */\n      dup4\n        /* \"#utility.yul\":5225:5239   */\n      add\n        /* \"#utility.yul\":5221:5249   */\n      and\n        /* \"#utility.yul\":5211:5249   */\n      swap1\n      pop\n        /* \"#utility.yul\":5153:5255   */\n      swap2\n      swap1\n      pop\n      jump\t// out\n        /* \"#utility.yul\":5261:5441   */\n    tag_78:\n        /* \"#utility.yul\":5309:5386   */\n      0x4e487b7100000000000000000000000000000000000000000000000000000000\n        /* \"#utility.yul\":5306:5307   */\n      0x00\n        /* \"#utility.yul\":5299:5387   */\n      mstore\n        /* \"#utility.yul\":5406:5410   */\n      0x41\n        /* \"#utility.yul\":5403:5404   */\n      0x04\n        /* \"#utility.yul\":5396:5411   */\n      mstore\n        /* \"#utility.yul\":5430:5434   */\n      0x24\n        /* \"#utility.yul\":5427:5428   */\n      0x00\n        /* \"#utility.yul\":5420:5435   */\n      revert\n        /* \"#utility.yul\":5447:5728   */\n    tag_79:\n        /* \"#utility.yul\":5530:5557   */\n      tag_148\n        /* \"#utility.yul\":5552:5556   */\n      dup3\n        /* \"#utility.yul\":5530:5557   */\n      tag_77\n      jump\t// in\n    tag_148:\n        /* \"#utility.yul\":5522:5528   */\n      dup2\n        /* \"#utility.yul\":5518:5558   */\n      add\n        /* \"#utility.yul\":5660:5666   */\n      dup2\n        /* \"#utility.yul\":5648:5658   */\n      dup2\n        /* \"#utility.yul\":5645:5667   */\n      lt\n        /* \"#utility.yul\":5624:5642   */\n      0xffffffffffffffff\n        /* \"#utility.yul\":5612:5622   */\n      dup3\n        /* \"#utility.yul\":5609:5643   */\n      gt\n        /* \"#utility.yul\":5606:5668   */\n      or\n        /* \"#utility.yul\":5603:5691   */\n      iszero\n      tag_149\n      jumpi\n        /* \"#utility.yul\":5671:5689   */\n      tag_150\n      tag_78\n      jump\t// in\n    tag_150:\n        /* \"#utility.yul\":5603:5691   */\n    tag_149:\n        /* \"#utility.yul\":5711:5721   */\n      dup1\n        /* \"#utility.yul\":5707:5709   */\n      0x40\n        /* \"#utility.yul\":5700:5722   */\n      mstore\n        /* \"#utility.yul\":5490:5728   */\n      pop\n        /* \"#utility.yul\":5447:5728   */\n      pop\n      pop\n      jump\t// out\n        /* \"#utility.yul\":5734:5863   */\n    tag_80:\n        /* \"#utility.yul\":5768:5774   */\n      0x00\n        /* \"#utility.yul\":5795:5815   */\n      tag_152\n      tag_53\n      jump\t// in\n    tag_152:\n        /* \"#utility.yul\":5785:5815   */\n      swap1\n      pop\n        /* \"#utility.yul\":5824:5857   */\n      tag_153\n        /* \"#utility.yul\":5852:5856   */\n      dup3\n        /* \"#utility.yul\":5844:5850   */\n      dup3\n        /* \"#utility.yul\":5824:5857   */\n      tag_79\n      jump\t// in\n    tag_153:\n        /* \"#utility.yul\":5734:5863   */\n      swap2\n      swap1\n      pop\n      jump\t// out\n        /* \"#utility.yul\":5869:6177   */\n    tag_81:\n        /* \"#utility.yul\":5931:5935   */\n      0x00\n        /* \"#utility.yul\":6021:6039   */\n      0xffffffffffffffff\n        /* \"#utility.yul\":6013:6019   */\n      dup3\n        /* \"#utility.yul\":6010:6040   */\n      gt\n        /* \"#utility.yul\":6007:6063   */\n      iszero\n      tag_155\n      jumpi\n        /* \"#utility.yul\":6043:6061   */\n      tag_156\n      tag_78\n      jump\t// in\n    tag_156:\n        /* \"#utility.yul\":6007:6063   */\n    tag_155:\n        /* \"#utility.yul\":6081:6110   */\n      tag_157\n        /* \"#utility.yul\":6103:6109   */\n      dup3\n        /* \"#utility.yul\":6081:6110   */\n      tag_77\n      jump\t// in\n    tag_157:\n        /* \"#utility.yul\":6073:6110   */\n      swap1\n      pop\n        /* \"#utility.yul\":6165:6169   */\n      0x20\n        /* \"#utility.yul\":6159:6163   */\n      dup2\n        /* \"#utility.yul\":6155:6170   */\n      add\n        /* \"#utility.yul\":6147:6170   */\n      swap1\n      pop\n        /* \"#utility.yul\":5869:6177   */\n      swap2\n      swap1\n      pop\n      jump\t// out\n        /* \"#utility.yul\":6183:6329   */\n    tag_82:\n        /* \"#utility.yul\":6280:6286   */\n      dup3\n        /* \"#utility.yul\":6275:6278   */\n      dup2\n        /* \"#utility.yul\":6270:6273   */\n      dup4\n        /* \"#utility.yul\":6257:6287   */\n      calldatacopy\n        /* \"#utility.yul\":6321:6322   */\n      0x00\n        /* \"#utility.yul\":6312:6318   */\n      dup4\n        /* \"#utility.yul\":6307:6310   */\n      dup4\n        /* \"#utility.yul\":6303:6319   */\n      add\n        /* \"#utility.yul\":6296:6323   */\n      mstore\n        /* \"#utility.yul\":6183:6329   */\n      pop\n      pop\n      pop\n      jump\t// out\n        /* \"#utility.yul\":6335:6760   */\n    tag_83:\n        /* \"#utility.yul\":6413:6418   */\n      0x00\n        /* \"#utility.yul\":6438:6504   */\n      tag_160\n        /* \"#utility.yul\":6454:6503   */\n      tag_161\n        /* \"#utility.yul\":6496:6502   */\n      dup5\n        /* \"#utility.yul\":6454:6503   */\n      tag_81\n      jump\t// in\n    tag_161:\n        /* \"#utility.yul\":6438:6504   */\n      tag_80\n      jump\t// in\n    tag_160:\n        /* \"#utility.yul\":6429:6504   */\n      swap1\n      pop\n        /* \"#utility.yul\":6527:6533   */\n      dup3\n        /* \"#utility.yul\":6520:6525   */\n      dup2\n        /* \"#utility.yul\":6513:6534   */\n      mstore\n        /* \"#utility.yul\":6565:6569   */\n      0x20\n        /* \"#utility.yul\":6558:6563   */\n      dup2\n        /* \"#utility.yul\":6554:6570   */\n      add\n        /* \"#utility.yul\":6603:6606   */\n      dup5\n        /* \"#utility.yul\":6594:6600   */\n      dup5\n        /* \"#utility.yul\":6589:6592   */\n      dup5\n        /* \"#utility.yul\":6585:6601   */\n      add\n        /* \"#utility.yul\":6582:6607   */\n      gt\n        /* \"#utility.yul\":6579:6691   */\n      iszero\n      tag_162\n      jumpi\n        /* \"#utility.yul\":6610:6689   */\n      tag_163\n      tag_76\n      jump\t// in\n    tag_163:\n        /* \"#utility.yul\":6579:6691   */\n    tag_162:\n        /* \"#utility.yul\":6700:6754   */\n      tag_164\n        /* \"#utility.yul\":6747:6753   */\n      dup5\n        /* \"#utility.yul\":6742:6745   */\n      dup3\n        /* \"#utility.yul\":6737:6740   */\n      dup6\n        /* \"#utility.yul\":6700:6754   */\n      tag_82\n      jump\t// in\n    tag_164:\n        /* \"#utility.yul\":6419:6760   */\n      pop\n        /* \"#utility.yul\":6335:6760   */\n      swap4\n      swap3\n      pop\n      pop\n      pop\n      jump\t// out\n        /* \"#utility.yul\":6780:7120   */\n    tag_84:\n        /* \"#utility.yul\":6836:6841   */\n      0x00\n        /* \"#utility.yul\":6885:6888   */\n      dup3\n        /* \"#utility.yul\":6878:6882   */\n      0x1f\n        /* \"#utility.yul\":6870:6876   */\n      dup4\n        /* \"#utility.yul\":6866:6883   */\n      add\n        /* \"#utility.yul\":6862:6889   */\n      slt\n        /* \"#utility.yul\":6852:6974   */\n      tag_166\n      jumpi\n        /* \"#utility.yul\":6893:6972   */\n      tag_167\n      tag_75\n      jump\t// in\n    tag_167:\n        /* \"#utility.yul\":6852:6974   */\n    tag_166:\n        /* \"#utility.yul\":7010:7016   */\n      dup2\n        /* \"#utility.yul\":6997:7017   */\n      calldataload\n        /* \"#utility.yul\":7035:7114   */\n      tag_168\n        /* \"#utility.yul\":7110:7113   */\n      dup5\n        /* \"#utility.yul\":7102:7108   */\n      dup3\n        /* \"#utility.yul\":7095:7099   */\n      0x20\n        /* \"#utility.yul\":7087:7093   */\n      dup7\n        /* \"#utility.yul\":7083:7100   */\n      add\n        /* \"#utility.yul\":7035:7114   */\n      tag_83\n      jump\t// in\n    tag_168:\n        /* \"#utility.yul\":7026:7114   */\n      swap2\n      pop\n        /* \"#utility.yul\":6842:7120   */\n      pop\n        /* \"#utility.yul\":6780:7120   */\n      swap3\n      swap2\n      pop\n      pop\n      jump\t// out\n        /* \"#utility.yul\":7126:7635   */\n    tag_37:\n        /* \"#utility.yul\":7195:7201   */\n      0x00\n        /* \"#utility.yul\":7244:7246   */\n      0x20\n        /* \"#utility.yul\":7232:7241   */\n      dup3\n        /* \"#utility.yul\":7223:7230   */\n      dup5\n        /* \"#utility.yul\":7219:7242   */\n      sub\n        /* \"#utility.yul\":7215:7247   */\n      slt\n        /* \"#utility.yul\":7212:7331   */\n      iszero\n      tag_170\n      jumpi\n        /* \"#utility.yul\":7250:7329   */\n      tag_171\n      tag_54\n      jump\t// in\n    tag_171:\n        /* \"#utility.yul\":7212:7331   */\n    tag_170:\n        /* \"#utility.yul\":7398:7399   */\n      0x00\n        /* \"#utility.yul\":7387:7396   */\n      dup3\n        /* \"#utility.yul\":7383:7400   */\n      add\n        /* \"#utility.yul\":7370:7401   */\n      calldataload\n        /* \"#utility.yul\":7428:7446   */\n      0xffffffffffffffff\n        /* \"#utility.yul\":7420:7426   */\n      dup2\n        /* \"#utility.yul\":7417:7447   */\n      gt\n        /* \"#utility.yul\":7414:7531   */\n      iszero\n      tag_172\n      jumpi\n        /* \"#utility.yul\":7450:7529   */\n      tag_173\n      tag_55\n      jump\t// in\n    tag_173:\n        /* \"#utility.yul\":7414:7531   */\n    tag_172:\n        /* \"#utility.yul\":7555:7618   */\n      tag_174\n        /* \"#utility.yul\":7610:7617   */\n      dup5\n        /* \"#utility.yul\":7601:7607   */\n      dup3\n        /* \"#utility.yul\":7590:7599   */\n      dup6\n        /* \"#utility.yul\":7586:7608   */\n      add\n        /* \"#utility.yul\":7555:7618   */\n      tag_84\n      jump\t// in\n    tag_174:\n        /* \"#utility.yul\":7545:7618   */\n      swap2\n      pop\n        /* \"#utility.yul\":7341:7628   */\n      pop\n        /* \"#utility.yul\":7126:7635   */\n      swap3\n      swap2\n      pop\n      pop\n      jump\t// out\n        /* \"#utility.yul\":7641:7750   */\n    tag_85:\n        /* \"#utility.yul\":7722:7743   */\n      tag_176\n        /* \"#utility.yul\":7737:7742   */\n      dup2\n        /* \"#utility.yul\":7722:7743   */\n      tag_56\n      jump\t// in\n    tag_176:\n        /* \"#utility.yul\":7717:7720   */\n      dup3\n        /* \"#utility.yul\":7710:7744   */\n      mstore\n        /* \"#utility.yul\":7641:7750   */\n      pop\n      pop\n      jump\t// out\n        /* \"#utility.yul\":7756:7966   */\n    tag_45:\n        /* \"#utility.yul\":7843:7847   */\n      0x00\n        /* \"#utility.yul\":7881:7883   */\n      0x20\n        /* \"#utility.yul\":7870:7879   */\n      dup3\n        /* \"#utility.yul\":7866:7884   */\n      add\n        /* \"#utility.yul\":7858:7884   */\n      swap1\n      pop\n        /* \"#utility.yul\":7894:7959   */\n      tag_178\n        /* \"#utility.yul\":7956:7957   */\n      0x00\n        /* \"#utility.yul\":7945:7954   */\n      dup4\n        /* \"#utility.yul\":7941:7958   */\n      add\n        /* \"#utility.yul\":7932:7938   */\n      dup5\n        /* \"#utility.yul\":7894:7959   */\n      tag_85\n      jump\t// in\n    tag_178:\n        /* \"#utility.yul\":7756:7966   */\n      swap3\n      swap2\n      pop\n      pop\n      jump\t// out\n\n    auxdata: 0xa2646970667358221220c7ad35d18a0d29323746d4fc05915db2584f0e7f8b77fe4823fed6969359639664736f6c63430008110033\n}\n","bytecode":{"linkReferences":{},"object":"60e060405234801561001057600080fd5b5060405161087e38038061087e83398181016040528101906100329190610188565b8373ffffffffffffffffffffffffffffffffffffffff1660a08173ffffffffffffffffffffffffffffffffffffffff16815250508273ffffffffffffffffffffffffffffffffffffffff1660808173ffffffffffffffffffffffffffffffffffffffff1681525050816000806101000a81548160ff021916908360018111156100be576100bd6101ef565b5b02179055508073ffffffffffffffffffffffffffffffffffffffff1660c08173ffffffffffffffffffffffffffffffffffffffff16815250505050505061021e565b600080fd5b600073ffffffffffffffffffffffffffffffffffffffff82169050919050565b600061013082610105565b9050919050565b61014081610125565b811461014b57600080fd5b50565b60008151905061015d81610137565b92915050565b6002811061017057600080fd5b50565b60008151905061018281610163565b92915050565b600080600080608085870312156101a2576101a1610100565b5b60006101b08782880161014e565b94505060206101c18782880161014e565b93505060406101d287828801610173565b92505060606101e38782880161014e565b91505092959194509250565b7f4e487b7100000000000000000000000000000000000000000000000000000000600052602160045260246000fd5b60805160a05160c05161063a61024460003960005050600050506000505061063a6000f3fe608060405234801561001057600080fd5b50600436106100935760003560e01c8063b6c786d311610066578063b6c786d31461010a578063c2fc0d2614610126578063c4f6b0fa14610144578063e917b02714610160578063faff660e1461017c57610093565b8063171a47cd146100985780632551cb65146100b4578063a4c2f651146100d2578063b1e9451a146100ee575b600080fd5b6100b260048036038101906100ad9190610221565b61019a565b005b6100bc61019d565b6040516100c9919061033e565b60405180910390f35b6100ec60048036038101906100e7919061038c565b6101a2565b005b6101086004803603810190610103919061038c565b6101a5565b005b610124600480360381019061011f919061038c565b6101a8565b005b61012e6101ab565b60405161013b9190610430565b60405180910390f35b61015e60048036038101906101599190610591565b6101bc565b005b61017a6004803603810190610175919061038c565b6101bf565b005b6101846101c2565b60405161019191906105e9565b60405180910390f35b50565b606090565b50565b50565b50565b60008054906101000a900460ff1681565b50565b50565b600060019054906101000a900460ff1681565b6000604051905090565b600080fd5b600080fd5b60008115159050919050565b6101fe816101e9565b811461020957600080fd5b50565b60008135905061021b816101f5565b92915050565b600060208284031215610237576102366101df565b5b60006102458482850161020c565b91505092915050565b600081519050919050565b600082825260208201905092915050565b6000819050602082019050919050565b600073ffffffffffffffffffffffffffffffffffffffff82169050919050565b60006102a58261027a565b9050919050565b6102b58161029a565b82525050565b60006102c783836102ac565b60208301905092915050565b6000602082019050919050565b60006102eb8261024e565b6102f58185610259565b93506103008361026a565b8060005b8381101561033157815161031888826102bb565b9750610323836102d3565b925050600181019050610304565b5085935050505092915050565b6000602082019050818103600083015261035881846102e0565b905092915050565b6103698161029a565b811461037457600080fd5b50565b60008135905061038681610360565b92915050565b6000602082840312156103a2576103a16101df565b5b60006103b084828501610377565b91505092915050565b7f4e487b7100000000000000000000000000000000000000000000000000000000600052602160045260246000fd5b600281106103f9576103f86103b9565b5b50565b600081905061040a826103e8565b919050565b600061041a826103fc565b9050919050565b61042a8161040f565b82525050565b60006020820190506104456000830184610421565b92915050565b600080fd5b600080fd5b6000601f19601f8301169050919050565b7f4e487b7100000000000000000000000000000000000000000000000000000000600052604160045260246000fd5b61049e82610455565b810181811067ffffffffffffffff821117156104bd576104bc610466565b5b80604052505050565b60006104d06101d5565b90506104dc8282610495565b919050565b600067ffffffffffffffff8211156104fc576104fb610466565b5b61050582610455565b9050602081019050919050565b82818337600083830152505050565b600061053461052f846104e1565b6104c6565b9050828152602081018484840111156105505761054f610450565b5b61055b848285610512565b509392505050565b600082601f8301126105785761057761044b565b5b8135610588848260208601610521565b91505092915050565b6000602082840312156105a7576105a66101df565b5b600082013567ffffffffffffffff8111156105c5576105c46101e4565b5b6105d184828501610563565b91505092915050565b6105e3816101e9565b82525050565b60006020820190506105fe60008301846105da565b9291505056fea2646970667358221220c7ad35d18a0d29323746d4fc05915db2584f0e7f8b77fe4823fed6969359639664736f6c63430008110033","opcodes":"PUSH1 0xE0 PUSH1 0x40 MSTORE CALLVALUE DUP1 ISZERO PUSH2 0x10 JUMPI PUSH1 0x0 DUP1 REVERT JUMPDEST POP PUSH1 0x40 MLOAD PUSH2 0x87E CODESIZE SUB DUP1 PUSH2 0x87E DUP4 CODECOPY DUP2 DUP2 ADD PUSH1 0x40 MSTORE DUP2 ADD SWAP1 PUSH2 0x32 SWAP2 SWAP1 PUSH2 0x188 JUMP JUMPDEST DUP4 PUSH20 0xFFFFFFFFFFFFFFFFFFFFFFFFFFFFFFFFFFFFFFFF AND PUSH1 0xA0 DUP2 PUSH20 0xFFFFFFFFFFFFFFFFFFFFFFFFFFFFFFFFFFFFFFFF AND DUP2 MSTORE POP POP DUP3 PUSH20 0xFFFFFFFFFFFFFFFFFFFFFFFFFFFFFFFFFFFFFFFF AND PUSH1 0x80 DUP2 PUSH20 0xFFFFFFFFFFFFFFFFFFFFFFFFFFFFFFFFFFFFFFFF AND DUP2 MSTORE POP POP DUP2 PUSH1 0x0 DUP1 PUSH2 0x100 EXP DUP2 SLOAD DUP2 PUSH1 0xFF MUL NOT AND SWAP1 DUP4 PUSH1 0x1 DUP2 GT ISZERO PUSH2 0xBE JUMPI PUSH2 0xBD PUSH2 0x1EF JUMP JUMPDEST JUMPDEST MUL OR SWAP1 SSTORE POP DUP1 PUSH20 0xFFFFFFFFFFFFFFFFFFFFFFFFFFFFFFFFFFFFFFFF AND PUSH1 0xC0 DUP2 PUSH20 0xFFFFFFFFFFFFFFFFFFFFFFFFFFFFFFFFFFFFFFFF AND DUP2 MSTORE POP POP POP POP POP POP PUSH2 0x21E JUMP JUMPDEST PUSH1 0x0 DUP1 REVERT JUMPDEST PUSH1 0x0 PUSH20 0xFFFFFFFFFFFFFFFFFFFFFFFFFFFFFFFFFFFFFFFF DUP3 AND SWAP1 POP SWAP2 SWAP1 POP JUMP JUMPDEST PUSH1 0x0 PUSH2 0x130 DUP3 PUSH2 0x105 JUMP JUMPDEST SWAP1 POP SWAP2 SWAP1 POP JUMP JUMPDEST PUSH2 0x140 DUP2 PUSH2 0x125 JUMP JUMPDEST DUP2 EQ PUSH2 0x14B JUMPI PUSH1 0x0 DUP1 REVERT JUMPDEST POP JUMP JUMPDEST PUSH1 0x0 DUP2 MLOAD SWAP1 POP PUSH2 0x15D DUP2 PUSH2 0x137 JUMP JUMPDEST SWAP3 SWAP2 POP POP JUMP JUMPDEST PUSH1 0x2 DUP2 LT PUSH2 0x170 JUMPI PUSH1 0x0 DUP1 REVERT JUMPDEST POP JUMP JUMPDEST PUSH1 0x0 DUP2 MLOAD SWAP1 POP PUSH2 0x182 DUP2 PUSH2 0x163 JUMP JUMPDEST SWAP3 SWAP2 POP POP JUMP JUMPDEST PUSH1 0x0 DUP1 PUSH1 0x0 DUP1 PUSH1 0x80 DUP6 DUP8 SUB SLT ISZERO PUSH2 0x1A2 JUMPI PUSH2 0x1A1 PUSH2 0x100 JUMP JUMPDEST JUMPDEST PUSH1 0x0 PUSH2 0x1B0 DUP8 DUP3 DUP9 ADD PUSH2 0x14E JUMP JUMPDEST SWAP5 POP POP PUSH1 0x20 PUSH2 0x1C1 DUP8 DUP3 DUP9 ADD PUSH2 0x14E JUMP JUMPDEST SWAP4 POP POP PUSH1 0x40 PUSH2 0x1D2 DUP8 DUP3 DUP9 ADD PUSH2 0x173 JUMP JUMPDEST SWAP3 POP POP PUSH1 0x60 PUSH2 0x1E3 DUP8 DUP3 DUP9 ADD PUSH2 0x14E JUMP JUMPDEST SWAP2 POP POP SWAP3 SWAP6 SWAP2 SWAP5 POP SWAP3 POP JUMP JUMPDEST PUSH32 0x4E487B7100000000000000000000000000000000000000000000000000000000 PUSH1 0x0 MSTORE PUSH1 0x21 PUSH1 0x4 MSTORE PUSH1 0x24 PUSH1 0x0 REVERT JUMPDEST PUSH1 0x80 MLOAD PUSH1 0xA0 MLOAD PUSH1 0xC0 MLOAD PUSH2 0x63A PUSH2 0x244 PUSH1 0x0 CODECOPY PUSH1 0x0 POP POP PUSH1 0x0 POP POP PUSH1 0x0 POP POP PUSH2 0x63A PUSH1 0x0 RETURN INVALID PUSH1 0x80 PUSH1 0x40 MSTORE CALLVALUE DUP1 ISZERO PUSH2 0x10 JUMPI PUSH1 0x0 DUP1 REVERT JUMPDEST POP PUSH1 0x4 CALLDATASIZE LT PUSH2 0x93 JUMPI PUSH1 0x0 CALLDATALOAD PUSH1 0xE0 SHR DUP1 PUSH4 0xB6C786D3 GT PUSH2 0x66 JUMPI DUP1 PUSH4 0xB6C786D3 EQ PUSH2 0x10A JUMPI DUP1 PUSH4 0xC2FC0D26 EQ PUSH2 0x126 JUMPI DUP1 PUSH4 0xC4F6B0FA EQ PUSH2 0x144 JUMPI DUP1 PUSH4 0xE917B027 EQ PUSH2 0x160 JUMPI DUP1 PUSH4 0xFAFF660E EQ PUSH2 0x17C JUMPI PUSH2 0x93 JUMP JUMPDEST DUP1 PUSH4 0x171A47CD EQ PUSH2 0x98 JUMPI DUP1 PUSH4 0x2551CB65 EQ PUSH2 0xB4 JUMPI DUP1 PUSH4 0xA4C2F651 EQ PUSH2 0xD2 JUMPI DUP1 PUSH4 0xB1E9451A EQ PUSH2 0xEE JUMPI JUMPDEST PUSH1 0x0 DUP1 REVERT JUMPDEST PUSH2 0xB2 PUSH1 0x4 DUP1 CALLDATASIZE SUB DUP2 ADD SWAP1 PUSH2 0xAD SWAP2 SWAP1 PUSH2 0x221 JUMP JUMPDEST PUSH2 0x19A JUMP JUMPDEST STOP JUMPDEST PUSH2 0xBC PUSH2 0x19D JUMP JUMPDEST PUSH1 0x40 MLOAD PUSH2 0xC9 SWAP2 SWAP1 PUSH2 0x33E JUMP JUMPDEST PUSH1 0x40 MLOAD DUP1 SWAP2 SUB SWAP1 RETURN JUMPDEST PUSH2 0xEC PUSH1 0x4 DUP1 CALLDATASIZE SUB DUP2 ADD SWAP1 PUSH2 0xE7 SWAP2 SWAP1 PUSH2 0x38C JUMP JUMPDEST PUSH2 0x1A2 JUMP JUMPDEST STOP JUMPDEST PUSH2 0x108 PUSH1 0x4 DUP1 CALLDATASIZE SUB DUP2 ADD SWAP1 PUSH2 0x103 SWAP2 SWAP1 PUSH2 0x38C JUMP JUMPDEST PUSH2 0x1A5 JUMP JUMPDEST STOP JUMPDEST PUSH2 0x124 PUSH1 0x4 DUP1 CALLDATASIZE SUB DUP2 ADD SWAP1 PUSH2 0x11F SWAP2 SWAP1 PUSH2 0x38C JUMP JUMPDEST PUSH2 0x1A8 JUMP JUMPDEST STOP JUMPDEST PUSH2 0x12E PUSH2 0x1AB JUMP JUMPDEST PUSH1 0x40 MLOAD PUSH2 0x13B SWAP2 SWAP1 PUSH2 0x430 JUMP JUMPDEST PUSH1 0x40 MLOAD DUP1 SWAP2 SUB SWAP1 RETURN JUMPDEST PUSH2 0x15E PUSH1 0x4 DUP1 CALLDATASIZE SUB DUP2 ADD SWAP1 PUSH2 0x159 SWAP2 SWAP1 PUSH2 0x591 JUMP JUMPDEST PUSH2 0x1BC JUMP JUMPDEST STOP JUMPDEST PUSH2 0x17A PUSH1 0x4 DUP1 CALLDATASIZE SUB DUP2 ADD SWAP1 PUSH2 0x175 SWAP2 SWAP1 PUSH2 0x38C JUMP JUMPDEST PUSH2 0x1BF JUMP JUMPDEST STOP JUMPDEST PUSH2 0x184 PUSH2 0x1C2 JUMP JUMPDEST PUSH1 0x40 MLOAD PUSH2 0x191 SWAP2 SWAP1 PUSH2 0x5E9 JUMP JUMPDEST PUSH1 0x40 MLOAD DUP1 SWAP2 SUB SWAP1 RETURN JUMPDEST POP JUMP JUMPDEST PUSH1 0x60 SWAP1 JUMP JUMPDEST POP JUMP JUMPDEST POP JUMP JUMPDEST POP JUMP JUMPDEST PUSH1 0x0 DUP1 SLOAD SWAP1 PUSH2 0x100 EXP SWAP1 DIV PUSH1 0xFF AND DUP2 JUMP JUMPDEST POP JUMP JUMPDEST POP JUMP JUMPDEST PUSH1 0x0 PUSH1 0x1 SWAP1 SLOAD SWAP1 PUSH2 0x100 EXP SWAP1 DIV PUSH1 0xFF AND DUP2 JUMP JUMPDEST PUSH1 0x0 PUSH1 0x40 MLOAD SWAP1 POP SWAP1 JUMP JUMPDEST PUSH1 0x0 DUP1 REVERT JUMPDEST PUSH1 0x0 DUP1 REVERT JUMPDEST PUSH1 0x0 DUP2 ISZERO ISZERO SWAP1 POP SWAP2 SWAP1 POP JUMP JUMPDEST PUSH2 0x1FE DUP2 PUSH2 0x1E9 JUMP JUMPDEST DUP2 EQ PUSH2 0x209 JUMPI PUSH1 0x0 DUP1 REVERT JUMPDEST POP JUMP JUMPDEST PUSH1 0x0 DUP2 CALLDATALOAD SWAP1 POP PUSH2 0x21B DUP2 PUSH2 0x1F5 JUMP JUMPDEST SWAP3 SWAP2 POP POP JUMP JUMPDEST PUSH1 0x0 PUSH1 0x20 DUP3 DUP5 SUB SLT ISZERO PUSH2 0x237 JUMPI PUSH2 0x236 PUSH2 0x1DF JUMP JUMPDEST JUMPDEST PUSH1 0x0 PUSH2 0x245 DUP5 DUP3 DUP6 ADD PUSH2 0x20C JUMP JUMPDEST SWAP2 POP POP SWAP3 SWAP2 POP POP JUMP JUMPDEST PUSH1 0x0 DUP2 MLOAD SWAP1 POP SWAP2 SWAP1 POP JUMP JUMPDEST PUSH1 0x0 DUP3 DUP3 MSTORE PUSH1 0x20 DUP3 ADD SWAP1 POP SWAP3 SWAP2 POP POP JUMP JUMPDEST PUSH1 0x0 DUP2 SWAP1 POP PUSH1 0x20 DUP3 ADD SWAP1 POP SWAP2 SWAP1 POP JUMP JUMPDEST PUSH1 0x0 PUSH20 0xFFFFFFFFFFFFFFFFFFFFFFFFFFFFFFFFFFFFFFFF DUP3 AND SWAP1 POP SWAP2 SWAP1 POP JUMP JUMPDEST PUSH1 0x0 PUSH2 0x2A5 DUP3 PUSH2 0x27A JUMP JUMPDEST SWAP1 POP SWAP2 SWAP1 POP JUMP JUMPDEST PUSH2 0x2B5 DUP2 PUSH2 0x29A JUMP JUMPDEST DUP3 MSTORE POP POP JUMP JUMPDEST PUSH1 0x0 PUSH2 0x2C7 DUP4 DUP4 PUSH2 0x2AC JUMP JUMPDEST PUSH1 0x20 DUP4 ADD SWAP1 POP SWAP3 SWAP2 POP POP JUMP JUMPDEST PUSH1 0x0 PUSH1 0x20 DUP3 ADD SWAP1 POP SWAP2 SWAP1 POP JUMP JUMPDEST PUSH1 0x0 PUSH2 0x2EB DUP3 PUSH2 0x24E JUMP JUMPDEST PUSH2 0x2F5 DUP2 DUP6 PUSH2 0x259 JUMP JUMPDEST SWAP4 POP PUSH2 0x300 DUP4 PUSH2 0x26A JUMP JUMPDEST DUP1 PUSH1 0x0 JUMPDEST DUP4 DUP2 LT ISZERO PUSH2 0x331 JUMPI DUP2 MLOAD PUSH2 0x318 DUP9 DUP3 PUSH2 0x2BB JUMP JUMPDEST SWAP8 POP PUSH2 0x323 DUP4 PUSH2 0x2D3 JUMP JUMPDEST SWAP3 POP POP PUSH1 0x1 DUP2 ADD SWAP1 POP PUSH2 0x304 JUMP JUMPDEST POP DUP6 SWAP4 POP POP POP POP SWAP3 SWAP2 POP POP JUMP JUMPDEST PUSH1 0x0 PUSH1 0x20 DUP3 ADD SWAP1 POP DUP2 DUP2 SUB PUSH1 0x0 DUP4 ADD MSTORE PUSH2 0x358 DUP2 DUP5 PUSH2 0x2E0 JUMP JUMPDEST SWAP1 POP SWAP3 SWAP2 POP POP JUMP JUMPDEST PUSH2 0x369 DUP2 PUSH2 0x29A JUMP JUMPDEST DUP2 EQ PUSH2 0x374 JUMPI PUSH1 0x0 DUP1 REVERT JUMPDEST POP JUMP JUMPDEST PUSH1 0x0 DUP2 CALLDATALOAD SWAP1 POP PUSH2 0x386 DUP2 PUSH2 0x360 JUMP JUMPDEST SWAP3 SWAP2 POP POP JUMP JUMPDEST PUSH1 0x0 PUSH1 0x20 DUP3 DUP5 SUB SLT ISZERO PUSH2 0x3A2 JUMPI PUSH2 0x3A1 PUSH2 0x1DF JUMP JUMPDEST JUMPDEST PUSH1 0x0 PUSH2 0x3B0 DUP5 DUP3 DUP6 ADD PUSH2 0x377 JUMP JUMPDEST SWAP2 POP POP SWAP3 SWAP2 POP POP JUMP JUMPDEST PUSH32 0x4E487B7100000000000000000000000000000000000000000000000000000000 PUSH1 0x0 MSTORE PUSH1 0x21 PUSH1 0x4 MSTORE PUSH1 0x24 PUSH1 0x0 REVERT JUMPDEST PUSH1 0x2 DUP2 LT PUSH2 0x3F9 JUMPI PUSH2 0x3F8 PUSH2 0x3B9 JUMP JUMPDEST JUMPDEST POP JUMP JUMPDEST PUSH1 0x0 DUP2 SWAP1 POP PUSH2 0x40A DUP3 PUSH2 0x3E8 JUMP JUMPDEST SWAP2 SWAP1 POP JUMP JUMPDEST PUSH1 0x0 PUSH2 0x41A DUP3 PUSH2 0x3FC JUMP JUMPDEST SWAP1 POP SWAP2 SWAP1 POP JUMP JUMPDEST PUSH2 0x42A DUP2 PUSH2 0x40F JUMP JUMPDEST DUP3 MSTORE POP POP JUMP JUMPDEST PUSH1 0x0 PUSH1 0x20 DUP3 ADD SWAP1 POP PUSH2 0x445 PUSH1 0x0 DUP4 ADD DUP5 PUSH2 0x421 JUMP JUMPDEST SWAP3 SWAP2 POP POP JUMP JUMPDEST PUSH1 0x0 DUP1 REVERT JUMPDEST PUSH1 0x0 DUP1 REVERT JUMPDEST PUSH1 0x0 PUSH1 0x1F NOT PUSH1 0x1F DUP4 ADD AND SWAP1 POP SWAP2 SWAP1 POP JUMP JUMPDEST PUSH32 0x4E487B7100000000000000000000000000000000000000000000000000000000 PUSH1 0x0 MSTORE PUSH1 0x41 PUSH1 0x4 MSTORE PUSH1 0x24 PUSH1 0x0 REVERT JUMPDEST PUSH2 0x49E DUP3 PUSH2 0x455 JUMP JUMPDEST DUP2 ADD DUP2 DUP2 LT PUSH8 0xFFFFFFFFFFFFFFFF DUP3 GT OR ISZERO PUSH2 0x4BD JUMPI PUSH2 0x4BC PUSH2 0x466 JUMP JUMPDEST JUMPDEST DUP1 PUSH1 0x40 MSTORE POP POP POP JUMP JUMPDEST PUSH1 0x0 PUSH2 0x4D0 PUSH2 0x1D5 JUMP JUMPDEST SWAP1 POP PUSH2 0x4DC DUP3 DUP3 PUSH2 0x495 JUMP JUMPDEST SWAP2 SWAP1 POP JUMP JUMPDEST PUSH1 0x0 PUSH8 0xFFFFFFFFFFFFFFFF DUP3 GT ISZERO PUSH2 0x4FC JUMPI PUSH2 0x4FB PUSH2 0x466 JUMP JUMPDEST JUMPDEST PUSH2 0x505 DUP3 PUSH2 0x455 JUMP JUMPDEST SWAP1 POP PUSH1 0x20 DUP2 ADD SWAP1 POP SWAP2 SWAP1 POP JUMP JUMPDEST DUP3 DUP2 DUP4 CALLDATACOPY PUSH1 0x0 DUP4 DUP4 ADD MSTORE POP POP POP JUMP JUMPDEST PUSH1 0x0 PUSH2 0x534 PUSH2 0x52F DUP5 PUSH2 0x4E1 JUMP JUMPDEST PUSH2 0x4C6 JUMP JUMPDEST SWAP1 POP DUP3 DUP2 MSTORE PUSH1 0x20 DUP2 ADD DUP5 DUP5 DUP5 ADD GT ISZERO PUSH2 0x550 JUMPI PUSH2 0x54F PUSH2 0x450 JUMP JUMPDEST JUMPDEST PUSH2 0x55B DUP5 DUP3 DUP6 PUSH2 0x512 JUMP JUMPDEST POP SWAP4 SWAP3 POP POP POP JUMP JUMPDEST PUSH1 0x0 DUP3 PUSH1 0x1F DUP4 ADD SLT PUSH2 0x578 JUMPI PUSH2 0x577 PUSH2 0x44B JUMP JUMPDEST JUMPDEST DUP2 CALLDATALOAD PUSH2 0x588 DUP5 DUP3 PUSH1 0x20 DUP7 ADD PUSH2 0x521 JUMP JUMPDEST SWAP2 POP POP SWAP3 SWAP2 POP POP JUMP JUMPDEST PUSH1 0x0 PUSH1 0x20 DUP3 DUP5 SUB SLT ISZERO PUSH2 0x5A7 JUMPI PUSH2 0x5A6 PUSH2 0x1DF JUMP JUMPDEST JUMPDEST PUSH1 0x0 DUP3 ADD CALLDATALOAD PUSH8 0xFFFFFFFFFFFFFFFF DUP2 GT ISZERO PUSH2 0x5C5 JUMPI PUSH2 0x5C4 PUSH2 0x1E4 JUMP JUMPDEST JUMPDEST PUSH2 0x5D1 DUP5 DUP3 DUP6 ADD PUSH2 0x563 JUMP JUMPDEST SWAP2 POP POP SWAP3 SWAP2 POP POP JUMP JUMPDEST PUSH2 0x5E3 DUP2 PUSH2 0x1E9 JUMP JUMPDEST DUP3 MSTORE POP POP JUMP JUMPDEST PUSH1 0x0 PUSH1 0x20 DUP3 ADD SWAP1 POP PUSH2 0x5FE PUSH1 0x0 DUP4 ADD DUP5 PUSH2 0x5DA JUMP JUMPDEST SWAP3 SWAP2 POP POP JUMP INVALID LOG2 PUSH5 0x6970667358 0x22 SLT KECCAK256 0xC7 0xAD CALLDATALOAD 0xD1 DUP11 0xD 0x29 ORIGIN CALLDATACOPY CHAINID 0xD4 0xFC SDIV SWAP2 0x5D 0xB2 PC 0x4F 0xE PUSH32 0x8B77FE4823FED6969359639664736F6C63430008110033000000000000000000 "},"gasEstimates":{"creation":{"codeDepositCost":"318800","executionCost":"infinite","totalCost":"infinite"},"external":{"addProjectMember(address)":"455","getProjectMembers()":"infinite","isPrivate()":"2609","projectType()":"2579","removeProjectMember(address)":"522","setIsPrivate(bool)":"413","setProjectDescription(string)":"infinite","setProjectLeader(address)":"500","setProjectManager(address)":"521"}},"methodIdentifiers":{"addProjectMember(address)":"b6c786d3","getProjectMembers()":"2551cb65","isPrivate()":"faff660e","projectType()":"c2fc0d26","removeProjectMember(address)":"b1e9451a","setIsPrivate(bool)":"171a47cd","setProjectDescription(string)":"c4f6b0fa","setProjectLeader(address)":"a4c2f651","setProjectManager(address)":"e917b027"}},"storageLayout":{"storage":[{"astId":1136,"contract":"Project.sol:Project","label":"projectType","offset":0,"slot":"0","type":"t_enum(ProjectType)1292"},{"astId":1138,"contract":"Project.sol:Project","label":"isPrivate","offset":1,"slot":"0","type":"t_bool"}],"types":{"t_bool":{"encoding":"inplace","label":"bool","numberOfBytes":"1"},"t_enum(ProjectType)1292":{"encoding":"inplace","label":"enum ProjectType","numberOfBytes":"1"}}},"userdoc":{"kind":"user","methods":{},"version":1}}