{"abi":[{"inputs":[{"internalType":"address","name":"map","type":"address"},{"internalType":"address","name":"_projectFactoryAddress","type":"address"},{"internalType":"address","name":"_treasuryAddress","type":"address"}],"stateMutability":"nonpayable","type":"constructor"},{"anonymous":false,"inputs":[{"indexed":false,"internalType":"address","name":"sender","type":"address"},{"indexed":false,"internalType":"address","name":"","type":"address"}],"name":"ProposalCreated","type":"event"},{"inputs":[{"internalType":"string","name":"description","type":"string"}],"name":"createProposal","outputs":[],"stateMutability":"payable","type":"function"},{"inputs":[],"name":"getProposals","outputs":[{"internalType":"address[]","name":"","type":"address[]"}],"stateMutability":"view","type":"function"},{"inputs":[],"name":"owner","outputs":[{"internalType":"address","name":"","type":"address"}],"stateMutability":"view","type":"function"},{"inputs":[{"internalType":"uint256","name":"","type":"uint256"}],"name":"proposals","outputs":[{"internalType":"address","name":"","type":"address"}],"stateMutability":"view","type":"function"}],"devdoc":{"kind":"dev","methods":{},"version":1},"evm":{"assembly":"    /* \"ProposalFactory.sol\":167:1207  contract ProposalFactory is NoDelegateCall {... */\n  mstore(0x40, 0x0100)\n    /* \"ProposalFactory.sol\":454:673  constructor(address map, address _projectFactoryAddress, address _treasuryAddress) {... */\n  callvalue\n  dup1\n  iszero\n  tag_1\n  jumpi\n  0x00\n  dup1\n  revert\ntag_1:\n  pop\n  mload(0x40)\n  sub(codesize, bytecodeSize)\n  dup1\n  bytecodeSize\n  dup4\n  codecopy\n  dup2\n  dup2\n  add\n  0x40\n  mstore\n  dup2\n  add\n  swap1\n  tag_2\n  swap2\n  swap1\n  tag_3\n  jump\t// in\ntag_2:\n    /* \"lib/NoDelegateCall.sol\":604:608   */\n  address\n    /* \"lib/NoDelegateCall.sol\":585:609   */\n  0xffffffffffffffffffffffffffffffffffffffff\n  and\n  0x80\n  dup2\n  0xffffffffffffffffffffffffffffffffffffffff\n  and\n  dup2\n  mstore\n  pop\n  pop\n    /* \"ProposalFactory.sol\":560:563  map */\n  dup3\n    /* \"ProposalFactory.sol\":548:563  memberMap = map */\n  0xffffffffffffffffffffffffffffffffffffffff\n  and\n  0xa0\n  dup2\n  0xffffffffffffffffffffffffffffffffffffffff\n  and\n  dup2\n  mstore\n  pop\n  pop\n    /* \"ProposalFactory.sol\":598:620  _projectFactoryAddress */\n  dup2\n    /* \"ProposalFactory.sol\":574:620  projectFactoryAddress = _projectFactoryAddress */\n  0xffffffffffffffffffffffffffffffffffffffff\n  and\n  0xc0\n  dup2\n  0xffffffffffffffffffffffffffffffffffffffff\n  and\n  dup2\n  mstore\n  pop\n  pop\n    /* \"ProposalFactory.sol\":649:665  _treasuryAddress */\n  dup1\n    /* \"ProposalFactory.sol\":631:665  treasuryAddress = _treasuryAddress */\n  0xffffffffffffffffffffffffffffffffffffffff\n  and\n  0xe0\n  dup2\n  0xffffffffffffffffffffffffffffffffffffffff\n  and\n  dup2\n  mstore\n  pop\n  pop\n    /* \"ProposalFactory.sol\":454:673  constructor(address map, address _projectFactoryAddress, address _treasuryAddress) {... */\n  pop\n  pop\n  pop\n    /* \"ProposalFactory.sol\":167:1207  contract ProposalFactory is NoDelegateCall {... */\n  jump(tag_8)\n    /* \"#utility.yul\":88:205   */\ntag_10:\n    /* \"#utility.yul\":197:198   */\n  0x00\n    /* \"#utility.yul\":194:195   */\n  dup1\n    /* \"#utility.yul\":187:199   */\n  revert\n    /* \"#utility.yul\":334:460   */\ntag_12:\n    /* \"#utility.yul\":371:378   */\n  0x00\n    /* \"#utility.yul\":411:453   */\n  0xffffffffffffffffffffffffffffffffffffffff\n    /* \"#utility.yul\":404:409   */\n  dup3\n    /* \"#utility.yul\":400:454   */\n  and\n    /* \"#utility.yul\":389:454   */\n  swap1\n  pop\n    /* \"#utility.yul\":334:460   */\n  swap2\n  swap1\n  pop\n  jump\t// out\n    /* \"#utility.yul\":466:562   */\ntag_13:\n    /* \"#utility.yul\":503:510   */\n  0x00\n    /* \"#utility.yul\":532:556   */\n  tag_22\n    /* \"#utility.yul\":550:555   */\n  dup3\n    /* \"#utility.yul\":532:556   */\n  tag_12\n  jump\t// in\ntag_22:\n    /* \"#utility.yul\":521:556   */\n  swap1\n  pop\n    /* \"#utility.yul\":466:562   */\n  swap2\n  swap1\n  pop\n  jump\t// out\n    /* \"#utility.yul\":568:690   */\ntag_14:\n    /* \"#utility.yul\":641:665   */\n  tag_24\n    /* \"#utility.yul\":659:664   */\n  dup2\n    /* \"#utility.yul\":641:665   */\n  tag_13\n  jump\t// in\ntag_24:\n    /* \"#utility.yul\":634:639   */\n  dup2\n    /* \"#utility.yul\":631:666   */\n  eq\n    /* \"#utility.yul\":621:684   */\n  tag_25\n  jumpi\n    /* \"#utility.yul\":680:681   */\n  0x00\n    /* \"#utility.yul\":677:678   */\n  dup1\n    /* \"#utility.yul\":670:682   */\n  revert\n    /* \"#utility.yul\":621:684   */\ntag_25:\n    /* \"#utility.yul\":568:690   */\n  pop\n  jump\t// out\n    /* \"#utility.yul\":696:839   */\ntag_15:\n    /* \"#utility.yul\":753:758   */\n  0x00\n    /* \"#utility.yul\":784:790   */\n  dup2\n    /* \"#utility.yul\":778:791   */\n  mload\n    /* \"#utility.yul\":769:791   */\n  swap1\n  pop\n    /* \"#utility.yul\":800:833   */\n  tag_27\n    /* \"#utility.yul\":827:832   */\n  dup2\n    /* \"#utility.yul\":800:833   */\n  tag_14\n  jump\t// in\ntag_27:\n    /* \"#utility.yul\":696:839   */\n  swap3\n  swap2\n  pop\n  pop\n  jump\t// out\n    /* \"#utility.yul\":845:1508   */\ntag_3:\n    /* \"#utility.yul\":933:939   */\n  0x00\n    /* \"#utility.yul\":941:947   */\n  dup1\n    /* \"#utility.yul\":949:955   */\n  0x00\n    /* \"#utility.yul\":998:1000   */\n  0x60\n    /* \"#utility.yul\":986:995   */\n  dup5\n    /* \"#utility.yul\":977:984   */\n  dup7\n    /* \"#utility.yul\":973:996   */\n  sub\n    /* \"#utility.yul\":969:1001   */\n  slt\n    /* \"#utility.yul\":966:1085   */\n  iszero\n  tag_29\n  jumpi\n    /* \"#utility.yul\":1004:1083   */\n  tag_30\n  tag_10\n  jump\t// in\ntag_30:\n    /* \"#utility.yul\":966:1085   */\ntag_29:\n    /* \"#utility.yul\":1124:1125   */\n  0x00\n    /* \"#utility.yul\":1149:1213   */\n  tag_31\n    /* \"#utility.yul\":1205:1212   */\n  dup7\n    /* \"#utility.yul\":1196:1202   */\n  dup3\n    /* \"#utility.yul\":1185:1194   */\n  dup8\n    /* \"#utility.yul\":1181:1203   */\n  add\n    /* \"#utility.yul\":1149:1213   */\n  tag_15\n  jump\t// in\ntag_31:\n    /* \"#utility.yul\":1139:1213   */\n  swap4\n  pop\n    /* \"#utility.yul\":1095:1223   */\n  pop\n    /* \"#utility.yul\":1262:1264   */\n  0x20\n    /* \"#utility.yul\":1288:1352   */\n  tag_32\n    /* \"#utility.yul\":1344:1351   */\n  dup7\n    /* \"#utility.yul\":1335:1341   */\n  dup3\n    /* \"#utility.yul\":1324:1333   */\n  dup8\n    /* \"#utility.yul\":1320:1342   */\n  add\n    /* \"#utility.yul\":1288:1352   */\n  tag_15\n  jump\t// in\ntag_32:\n    /* \"#utility.yul\":1278:1352   */\n  swap3\n  pop\n    /* \"#utility.yul\":1233:1362   */\n  pop\n    /* \"#utility.yul\":1401:1403   */\n  0x40\n    /* \"#utility.yul\":1427:1491   */\n  tag_33\n    /* \"#utility.yul\":1483:1490   */\n  dup7\n    /* \"#utility.yul\":1474:1480   */\n  dup3\n    /* \"#utility.yul\":1463:1472   */\n  dup8\n    /* \"#utility.yul\":1459:1481   */\n  add\n    /* \"#utility.yul\":1427:1491   */\n  tag_15\n  jump\t// in\ntag_33:\n    /* \"#utility.yul\":1417:1491   */\n  swap2\n  pop\n    /* \"#utility.yul\":1372:1501   */\n  pop\n    /* \"#utility.yul\":845:1508   */\n  swap3\n  pop\n  swap3\n  pop\n  swap3\n  jump\t// out\n    /* \"ProposalFactory.sol\":167:1207  contract ProposalFactory is NoDelegateCall {... */\ntag_8:\n  mload(0x80)\n  mload(0xa0)\n  mload(0xc0)\n  mload(0xe0)\n  codecopy(0x00, dataOffset(sub_0), dataSize(sub_0))\n  0x00\n  assignImmutable(\"0xa61fdd26f16e07728f6d310e1f8235dbb6c3528691234feaf9f17bdc8900798d\")\n  0x00\n  assignImmutable(\"0xfcfdc2bcdb8034d96e5d818f14d0d5d065345e80ba545ab71e2487844c22f1b5\")\n  0x00\n  assignImmutable(\"0x2c30e6bfcc8b9549ddc1f17145e808df8d03db75f505aea4493098964fde6c99\")\n  0x00\n  assignImmutable(\"0xec9dc0e935b90a8223848d74f2e39812c3ca143ad37a4076c4c95f9814669036\")\n  return(0x00, dataSize(sub_0))\nstop\n\nsub_0: assembly {\n        /* \"ProposalFactory.sol\":167:1207  contract ProposalFactory is NoDelegateCall {... */\n      mstore(0x40, 0x80)\n      jumpi(tag_1, lt(calldatasize, 0x04))\n      shr(0xe0, calldataload(0x00))\n      dup1\n      0x013cf08b\n      eq\n      tag_2\n      jumpi\n      dup1\n      0x49c2a1a6\n      eq\n      tag_3\n      jumpi\n      dup1\n      0x62564c48\n      eq\n      tag_4\n      jumpi\n      dup1\n      0x8da5cb5b\n      eq\n      tag_5\n      jumpi\n    tag_1:\n      0x00\n      dup1\n      revert\n        /* \"ProposalFactory.sol\":299:325  address[] public proposals */\n    tag_2:\n      callvalue\n      dup1\n      iszero\n      tag_6\n      jumpi\n      0x00\n      dup1\n      revert\n    tag_6:\n      pop\n      tag_7\n      0x04\n      dup1\n      calldatasize\n      sub\n      dup2\n      add\n      swap1\n      tag_8\n      swap2\n      swap1\n      tag_9\n      jump\t// in\n    tag_8:\n      tag_10\n      jump\t// in\n    tag_7:\n      mload(0x40)\n      tag_11\n      swap2\n      swap1\n      tag_12\n      jump\t// in\n    tag_11:\n      mload(0x40)\n      dup1\n      swap2\n      sub\n      swap1\n      return\n        /* \"ProposalFactory.sol\":681:1098  function createProposal(string calldata description) public payable noDelegateCall {... */\n    tag_3:\n      tag_13\n      0x04\n      dup1\n      calldatasize\n      sub\n      dup2\n      add\n      swap1\n      tag_14\n      swap2\n      swap1\n      tag_15\n      jump\t// in\n    tag_14:\n      tag_16\n      jump\t// in\n    tag_13:\n      stop\n        /* \"ProposalFactory.sol\":1106:1204  function getProposals() public view returns (address[] memory) {... */\n    tag_4:\n      callvalue\n      dup1\n      iszero\n      tag_17\n      jumpi\n      0x00\n      dup1\n      revert\n    tag_17:\n      pop\n      tag_18\n      tag_19\n      jump\t// in\n    tag_18:\n      mload(0x40)\n      tag_20\n      swap2\n      swap1\n      tag_21\n      jump\t// in\n    tag_20:\n      mload(0x40)\n      dup1\n      swap2\n      sub\n      swap1\n      return\n        /* \"ProposalFactory.sol\":270:290  address public owner */\n    tag_5:\n      callvalue\n      dup1\n      iszero\n      tag_22\n      jumpi\n      0x00\n      dup1\n      revert\n    tag_22:\n      pop\n      tag_23\n      tag_24\n      jump\t// in\n    tag_23:\n      mload(0x40)\n      tag_25\n      swap2\n      swap1\n      tag_12\n      jump\t// in\n    tag_25:\n      mload(0x40)\n      dup1\n      swap2\n      sub\n      swap1\n      return\n        /* \"ProposalFactory.sol\":299:325  address[] public proposals */\n    tag_10:\n      0x01\n      dup2\n      dup2\n      sload\n      dup2\n      lt\n      tag_26\n      jumpi\n      0x00\n      dup1\n      revert\n    tag_26:\n      swap1\n      0x00\n      mstore\n      keccak256(0x00, 0x20)\n      add\n      0x00\n      swap2\n      pop\n      sload\n      swap1\n      0x0100\n      exp\n      swap1\n      div\n      0xffffffffffffffffffffffffffffffffffffffff\n      and\n      dup2\n      jump\t// out\n        /* \"ProposalFactory.sol\":681:1098  function createProposal(string calldata description) public payable noDelegateCall {... */\n    tag_16:\n        /* \"lib/NoDelegateCall.sol\":1060:1082   */\n      tag_29\n        /* \"lib/NoDelegateCall.sol\":1060:1080   */\n      tag_30\n        /* \"lib/NoDelegateCall.sol\":1060:1082   */\n      jump\t// in\n    tag_29:\n        /* \"ProposalFactory.sol\":775:798  address proposalAddress */\n      0x00\n        /* \"ProposalFactory.sol\":854:864  msg.sender */\n      caller\n        /* \"ProposalFactory.sol\":883:894  description */\n      dup4\n      dup4\n        /* \"ProposalFactory.sol\":913:922  memberMap */\n      immutable(\"0x2c30e6bfcc8b9549ddc1f17145e808df8d03db75f505aea4493098964fde6c99\")\n        /* \"ProposalFactory.sol\":941:962  projectFactoryAddress */\n      immutable(\"0xfcfdc2bcdb8034d96e5d818f14d0d5d065345e80ba545ab71e2487844c22f1b5\")\n        /* \"ProposalFactory.sol\":823:977  new Proposal(... */\n      mload(0x40)\n      tag_32\n      swap1\n      tag_33\n      jump\t// in\n    tag_32:\n      tag_34\n      swap6\n      swap5\n      swap4\n      swap3\n      swap2\n      swap1\n      tag_35\n      jump\t// in\n    tag_34:\n      mload(0x40)\n      dup1\n      swap2\n      sub\n      swap1\n      0x00\n      create\n      dup1\n      iszero\n      dup1\n      iszero\n      tag_36\n      jumpi\n      returndatasize\n      0x00\n      dup1\n      returndatacopy\n      revert(0x00, returndatasize)\n    tag_36:\n      pop\n        /* \"ProposalFactory.sol\":775:988  address proposalAddress = address(... */\n      swap1\n      pop\n        /* \"ProposalFactory.sol\":999:1008  proposals */\n      0x01\n        /* \"ProposalFactory.sol\":1014:1029  proposalAddress */\n      dup2\n        /* \"ProposalFactory.sol\":999:1030  proposals.push(proposalAddress) */\n      swap1\n      dup1\n      0x01\n      dup2\n      sload\n      add\n      dup1\n      dup3\n      sstore\n      dup1\n      swap2\n      pop\n      pop\n      0x01\n      swap1\n      sub\n      swap1\n      0x00\n      mstore\n      keccak256(0x00, 0x20)\n      add\n      0x00\n      swap1\n      swap2\n      swap1\n      swap2\n      swap1\n      swap2\n      0x0100\n      exp\n      dup2\n      sload\n      dup2\n      0xffffffffffffffffffffffffffffffffffffffff\n      mul\n      not\n      and\n      swap1\n      dup4\n      0xffffffffffffffffffffffffffffffffffffffff\n      and\n      mul\n      or\n      swap1\n      sstore\n      pop\n        /* \"ProposalFactory.sol\":1046:1090  ProposalCreated(msg.sender, proposalAddress) */\n      0x452ab1b43e295baa201eb0d01fcbcb6bd9f5f2035554bcf6f3e1fedbbc53d830\n        /* \"ProposalFactory.sol\":1062:1072  msg.sender */\n      caller\n        /* \"ProposalFactory.sol\":1074:1089  proposalAddress */\n      dup3\n        /* \"ProposalFactory.sol\":1046:1090  ProposalCreated(msg.sender, proposalAddress) */\n      mload(0x40)\n      tag_38\n      swap3\n      swap2\n      swap1\n      tag_39\n      jump\t// in\n    tag_38:\n      mload(0x40)\n      dup1\n      swap2\n      sub\n      swap1\n      log1\n        /* \"ProposalFactory.sol\":764:1098  {... */\n      pop\n        /* \"ProposalFactory.sol\":681:1098  function createProposal(string calldata description) public payable noDelegateCall {... */\n      pop\n      pop\n      jump\t// out\n        /* \"ProposalFactory.sol\":1106:1204  function getProposals() public view returns (address[] memory) {... */\n    tag_19:\n        /* \"ProposalFactory.sol\":1151:1167  address[] memory */\n      0x60\n        /* \"ProposalFactory.sol\":1187:1196  proposals */\n      0x01\n        /* \"ProposalFactory.sol\":1180:1196  return proposals */\n      dup1\n      sload\n      dup1\n      0x20\n      mul\n      0x20\n      add\n      mload(0x40)\n      swap1\n      dup2\n      add\n      0x40\n      mstore\n      dup1\n      swap3\n      swap2\n      swap1\n      dup2\n      dup2\n      mstore\n      0x20\n      add\n      dup3\n      dup1\n      sload\n      dup1\n      iszero\n      tag_41\n      jumpi\n      0x20\n      mul\n      dup3\n      add\n      swap2\n      swap1\n      0x00\n      mstore\n      keccak256(0x00, 0x20)\n      swap1\n    tag_42:\n      dup2\n      0x00\n      swap1\n      sload\n      swap1\n      0x0100\n      exp\n      swap1\n      div\n      0xffffffffffffffffffffffffffffffffffffffff\n      and\n      0xffffffffffffffffffffffffffffffffffffffff\n      and\n      dup2\n      mstore\n      0x20\n      add\n      swap1\n      0x01\n      add\n      swap1\n      dup1\n      dup4\n      gt\n      tag_42\n      jumpi\n    tag_41:\n      pop\n      pop\n      pop\n      pop\n      pop\n      swap1\n      pop\n        /* \"ProposalFactory.sol\":1106:1204  function getProposals() public view returns (address[] memory) {... */\n      swap1\n      jump\t// out\n        /* \"ProposalFactory.sol\":270:290  address public owner */\n    tag_24:\n      0x00\n      dup1\n      sload\n      swap1\n      0x0100\n      exp\n      swap1\n      div\n      0xffffffffffffffffffffffffffffffffffffffff\n      and\n      dup2\n      jump\t// out\n        /* \"lib/NoDelegateCall.sol\":853:951   */\n    tag_30:\n        /* \"lib/NoDelegateCall.sol\":934:942   */\n      immutable(\"0xec9dc0e935b90a8223848d74f2e39812c3ca143ad37a4076c4c95f9814669036\")\n        /* \"lib/NoDelegateCall.sol\":917:942   */\n      0xffffffffffffffffffffffffffffffffffffffff\n      and\n        /* \"lib/NoDelegateCall.sol\":925:929   */\n      address\n        /* \"lib/NoDelegateCall.sol\":917:942   */\n      0xffffffffffffffffffffffffffffffffffffffff\n      and\n      eq\n        /* \"lib/NoDelegateCall.sol\":909:943   */\n      tag_44\n      jumpi\n      0x00\n      dup1\n      revert\n    tag_44:\n        /* \"lib/NoDelegateCall.sol\":853:951   */\n      jump\t// out\n    tag_33:\n      dataSize(sub_0)\n      dup1\n      dataOffset(sub_0)\n      dup4\n      codecopy\n      add\n      swap1\n      jump\t// out\n        /* \"#utility.yul\":88:205   */\n    tag_46:\n        /* \"#utility.yul\":197:198   */\n      0x00\n        /* \"#utility.yul\":194:195   */\n      dup1\n        /* \"#utility.yul\":187:199   */\n      revert\n        /* \"#utility.yul\":211:328   */\n    tag_47:\n        /* \"#utility.yul\":320:321   */\n      0x00\n        /* \"#utility.yul\":317:318   */\n      dup1\n        /* \"#utility.yul\":310:322   */\n      revert\n        /* \"#utility.yul\":334:411   */\n    tag_48:\n        /* \"#utility.yul\":371:378   */\n      0x00\n        /* \"#utility.yul\":400:405   */\n      dup2\n        /* \"#utility.yul\":389:405   */\n      swap1\n      pop\n        /* \"#utility.yul\":334:411   */\n      swap2\n      swap1\n      pop\n      jump\t// out\n        /* \"#utility.yul\":417:539   */\n    tag_49:\n        /* \"#utility.yul\":490:514   */\n      tag_75\n        /* \"#utility.yul\":508:513   */\n      dup2\n        /* \"#utility.yul\":490:514   */\n      tag_48\n      jump\t// in\n    tag_75:\n        /* \"#utility.yul\":483:488   */\n      dup2\n        /* \"#utility.yul\":480:515   */\n      eq\n        /* \"#utility.yul\":470:533   */\n      tag_76\n      jumpi\n        /* \"#utility.yul\":529:530   */\n      0x00\n        /* \"#utility.yul\":526:527   */\n      dup1\n        /* \"#utility.yul\":519:531   */\n      revert\n        /* \"#utility.yul\":470:533   */\n    tag_76:\n        /* \"#utility.yul\":417:539   */\n      pop\n      jump\t// out\n        /* \"#utility.yul\":545:684   */\n    tag_50:\n        /* \"#utility.yul\":591:596   */\n      0x00\n        /* \"#utility.yul\":629:635   */\n      dup2\n        /* \"#utility.yul\":616:636   */\n      calldataload\n        /* \"#utility.yul\":607:636   */\n      swap1\n      pop\n        /* \"#utility.yul\":645:678   */\n      tag_78\n        /* \"#utility.yul\":672:677   */\n      dup2\n        /* \"#utility.yul\":645:678   */\n      tag_49\n      jump\t// in\n    tag_78:\n        /* \"#utility.yul\":545:684   */\n      swap3\n      swap2\n      pop\n      pop\n      jump\t// out\n        /* \"#utility.yul\":690:1019   */\n    tag_9:\n        /* \"#utility.yul\":749:755   */\n      0x00\n        /* \"#utility.yul\":798:800   */\n      0x20\n        /* \"#utility.yul\":786:795   */\n      dup3\n        /* \"#utility.yul\":777:784   */\n      dup5\n        /* \"#utility.yul\":773:796   */\n      sub\n        /* \"#utility.yul\":769:801   */\n      slt\n        /* \"#utility.yul\":766:885   */\n      iszero\n      tag_80\n      jumpi\n        /* \"#utility.yul\":804:883   */\n      tag_81\n      tag_46\n      jump\t// in\n    tag_81:\n        /* \"#utility.yul\":766:885   */\n    tag_80:\n        /* \"#utility.yul\":924:925   */\n      0x00\n        /* \"#utility.yul\":949:1002   */\n      tag_82\n        /* \"#utility.yul\":994:1001   */\n      dup5\n        /* \"#utility.yul\":985:991   */\n      dup3\n        /* \"#utility.yul\":974:983   */\n      dup6\n        /* \"#utility.yul\":970:992   */\n      add\n        /* \"#utility.yul\":949:1002   */\n      tag_50\n      jump\t// in\n    tag_82:\n        /* \"#utility.yul\":939:1002   */\n      swap2\n      pop\n        /* \"#utility.yul\":895:1012   */\n      pop\n        /* \"#utility.yul\":690:1019   */\n      swap3\n      swap2\n      pop\n      pop\n      jump\t// out\n        /* \"#utility.yul\":1025:1151   */\n    tag_51:\n        /* \"#utility.yul\":1062:1069   */\n      0x00\n        /* \"#utility.yul\":1102:1144   */\n      0xffffffffffffffffffffffffffffffffffffffff\n        /* \"#utility.yul\":1095:1100   */\n      dup3\n        /* \"#utility.yul\":1091:1145   */\n      and\n        /* \"#utility.yul\":1080:1145   */\n      swap1\n      pop\n        /* \"#utility.yul\":1025:1151   */\n      swap2\n      swap1\n      pop\n      jump\t// out\n        /* \"#utility.yul\":1157:1253   */\n    tag_52:\n        /* \"#utility.yul\":1194:1201   */\n      0x00\n        /* \"#utility.yul\":1223:1247   */\n      tag_85\n        /* \"#utility.yul\":1241:1246   */\n      dup3\n        /* \"#utility.yul\":1223:1247   */\n      tag_51\n      jump\t// in\n    tag_85:\n        /* \"#utility.yul\":1212:1247   */\n      swap1\n      pop\n        /* \"#utility.yul\":1157:1253   */\n      swap2\n      swap1\n      pop\n      jump\t// out\n        /* \"#utility.yul\":1259:1377   */\n    tag_53:\n        /* \"#utility.yul\":1346:1370   */\n      tag_87\n        /* \"#utility.yul\":1364:1369   */\n      dup2\n        /* \"#utility.yul\":1346:1370   */\n      tag_52\n      jump\t// in\n    tag_87:\n        /* \"#utility.yul\":1341:1344   */\n      dup3\n        /* \"#utility.yul\":1334:1371   */\n      mstore\n        /* \"#utility.yul\":1259:1377   */\n      pop\n      pop\n      jump\t// out\n        /* \"#utility.yul\":1383:1605   */\n    tag_12:\n        /* \"#utility.yul\":1476:1480   */\n      0x00\n        /* \"#utility.yul\":1514:1516   */\n      0x20\n        /* \"#utility.yul\":1503:1512   */\n      dup3\n        /* \"#utility.yul\":1499:1517   */\n      add\n        /* \"#utility.yul\":1491:1517   */\n      swap1\n      pop\n        /* \"#utility.yul\":1527:1598   */\n      tag_89\n        /* \"#utility.yul\":1595:1596   */\n      0x00\n        /* \"#utility.yul\":1584:1593   */\n      dup4\n        /* \"#utility.yul\":1580:1597   */\n      add\n        /* \"#utility.yul\":1571:1577   */\n      dup5\n        /* \"#utility.yul\":1527:1598   */\n      tag_53\n      jump\t// in\n    tag_89:\n        /* \"#utility.yul\":1383:1605   */\n      swap3\n      swap2\n      pop\n      pop\n      jump\t// out\n        /* \"#utility.yul\":1611:1728   */\n    tag_54:\n        /* \"#utility.yul\":1720:1721   */\n      0x00\n        /* \"#utility.yul\":1717:1718   */\n      dup1\n        /* \"#utility.yul\":1710:1722   */\n      revert\n        /* \"#utility.yul\":1734:1851   */\n    tag_55:\n        /* \"#utility.yul\":1843:1844   */\n      0x00\n        /* \"#utility.yul\":1840:1841   */\n      dup1\n        /* \"#utility.yul\":1833:1845   */\n      revert\n        /* \"#utility.yul\":1857:1974   */\n    tag_56:\n        /* \"#utility.yul\":1966:1967   */\n      0x00\n        /* \"#utility.yul\":1963:1964   */\n      dup1\n        /* \"#utility.yul\":1956:1968   */\n      revert\n        /* \"#utility.yul\":1994:2547   */\n    tag_57:\n        /* \"#utility.yul\":2052:2060   */\n      0x00\n        /* \"#utility.yul\":2062:2068   */\n      dup1\n        /* \"#utility.yul\":2112:2115   */\n      dup4\n        /* \"#utility.yul\":2105:2109   */\n      0x1f\n        /* \"#utility.yul\":2097:2103   */\n      dup5\n        /* \"#utility.yul\":2093:2110   */\n      add\n        /* \"#utility.yul\":2089:2116   */\n      slt\n        /* \"#utility.yul\":2079:2201   */\n      tag_94\n      jumpi\n        /* \"#utility.yul\":2120:2199   */\n      tag_95\n      tag_54\n      jump\t// in\n    tag_95:\n        /* \"#utility.yul\":2079:2201   */\n    tag_94:\n        /* \"#utility.yul\":2233:2239   */\n      dup3\n        /* \"#utility.yul\":2220:2240   */\n      calldataload\n        /* \"#utility.yul\":2210:2240   */\n      swap1\n      pop\n        /* \"#utility.yul\":2263:2281   */\n      0xffffffffffffffff\n        /* \"#utility.yul\":2255:2261   */\n      dup2\n        /* \"#utility.yul\":2252:2282   */\n      gt\n        /* \"#utility.yul\":2249:2366   */\n      iszero\n      tag_96\n      jumpi\n        /* \"#utility.yul\":2285:2364   */\n      tag_97\n      tag_55\n      jump\t// in\n    tag_97:\n        /* \"#utility.yul\":2249:2366   */\n    tag_96:\n        /* \"#utility.yul\":2399:2403   */\n      0x20\n        /* \"#utility.yul\":2391:2397   */\n      dup4\n        /* \"#utility.yul\":2387:2404   */\n      add\n        /* \"#utility.yul\":2375:2404   */\n      swap2\n      pop\n        /* \"#utility.yul\":2453:2456   */\n      dup4\n        /* \"#utility.yul\":2445:2449   */\n      0x01\n        /* \"#utility.yul\":2437:2443   */\n      dup3\n        /* \"#utility.yul\":2433:2450   */\n      mul\n        /* \"#utility.yul\":2423:2431   */\n      dup4\n        /* \"#utility.yul\":2419:2451   */\n      add\n        /* \"#utility.yul\":2416:2457   */\n      gt\n        /* \"#utility.yul\":2413:2541   */\n      iszero\n      tag_98\n      jumpi\n        /* \"#utility.yul\":2460:2539   */\n      tag_99\n      tag_56\n      jump\t// in\n    tag_99:\n        /* \"#utility.yul\":2413:2541   */\n    tag_98:\n        /* \"#utility.yul\":1994:2547   */\n      swap3\n      pop\n      swap3\n      swap1\n      pop\n      jump\t// out\n        /* \"#utility.yul\":2553:3082   */\n    tag_15:\n        /* \"#utility.yul\":2624:2630   */\n      0x00\n        /* \"#utility.yul\":2632:2638   */\n      dup1\n        /* \"#utility.yul\":2681:2683   */\n      0x20\n        /* \"#utility.yul\":2669:2678   */\n      dup4\n        /* \"#utility.yul\":2660:2667   */\n      dup6\n        /* \"#utility.yul\":2656:2679   */\n      sub\n        /* \"#utility.yul\":2652:2684   */\n      slt\n        /* \"#utility.yul\":2649:2768   */\n      iszero\n      tag_101\n      jumpi\n        /* \"#utility.yul\":2687:2766   */\n      tag_102\n      tag_46\n      jump\t// in\n    tag_102:\n        /* \"#utility.yul\":2649:2768   */\n    tag_101:\n        /* \"#utility.yul\":2835:2836   */\n      0x00\n        /* \"#utility.yul\":2824:2833   */\n      dup4\n        /* \"#utility.yul\":2820:2837   */\n      add\n        /* \"#utility.yul\":2807:2838   */\n      calldataload\n        /* \"#utility.yul\":2865:2883   */\n      0xffffffffffffffff\n        /* \"#utility.yul\":2857:2863   */\n      dup2\n        /* \"#utility.yul\":2854:2884   */\n      gt\n        /* \"#utility.yul\":2851:2968   */\n      iszero\n      tag_103\n      jumpi\n        /* \"#utility.yul\":2887:2966   */\n      tag_104\n      tag_47\n      jump\t// in\n    tag_104:\n        /* \"#utility.yul\":2851:2968   */\n    tag_103:\n        /* \"#utility.yul\":3000:3065   */\n      tag_105\n        /* \"#utility.yul\":3057:3064   */\n      dup6\n        /* \"#utility.yul\":3048:3054   */\n      dup3\n        /* \"#utility.yul\":3037:3046   */\n      dup7\n        /* \"#utility.yul\":3033:3055   */\n      add\n        /* \"#utility.yul\":3000:3065   */\n      tag_57\n      jump\t// in\n    tag_105:\n        /* \"#utility.yul\":2982:3065   */\n      swap3\n      pop\n      swap3\n      pop\n        /* \"#utility.yul\":2778:3075   */\n      pop\n        /* \"#utility.yul\":2553:3082   */\n      swap3\n      pop\n      swap3\n      swap1\n      pop\n      jump\t// out\n        /* \"#utility.yul\":3088:3202   */\n    tag_58:\n        /* \"#utility.yul\":3155:3161   */\n      0x00\n        /* \"#utility.yul\":3189:3194   */\n      dup2\n        /* \"#utility.yul\":3183:3195   */\n      mload\n        /* \"#utility.yul\":3173:3195   */\n      swap1\n      pop\n        /* \"#utility.yul\":3088:3202   */\n      swap2\n      swap1\n      pop\n      jump\t// out\n        /* \"#utility.yul\":3208:3392   */\n    tag_59:\n        /* \"#utility.yul\":3307:3318   */\n      0x00\n        /* \"#utility.yul\":3341:3347   */\n      dup3\n        /* \"#utility.yul\":3336:3339   */\n      dup3\n        /* \"#utility.yul\":3329:3348   */\n      mstore\n        /* \"#utility.yul\":3381:3385   */\n      0x20\n        /* \"#utility.yul\":3376:3379   */\n      dup3\n        /* \"#utility.yul\":3372:3386   */\n      add\n        /* \"#utility.yul\":3357:3386   */\n      swap1\n      pop\n        /* \"#utility.yul\":3208:3392   */\n      swap3\n      swap2\n      pop\n      pop\n      jump\t// out\n        /* \"#utility.yul\":3398:3530   */\n    tag_60:\n        /* \"#utility.yul\":3465:3469   */\n      0x00\n        /* \"#utility.yul\":3488:3491   */\n      dup2\n        /* \"#utility.yul\":3480:3491   */\n      swap1\n      pop\n        /* \"#utility.yul\":3518:3522   */\n      0x20\n        /* \"#utility.yul\":3513:3516   */\n      dup3\n        /* \"#utility.yul\":3509:3523   */\n      add\n        /* \"#utility.yul\":3501:3523   */\n      swap1\n      pop\n        /* \"#utility.yul\":3398:3530   */\n      swap2\n      swap1\n      pop\n      jump\t// out\n        /* \"#utility.yul\":3536:3644   */\n    tag_61:\n        /* \"#utility.yul\":3613:3637   */\n      tag_110\n        /* \"#utility.yul\":3631:3636   */\n      dup2\n        /* \"#utility.yul\":3613:3637   */\n      tag_52\n      jump\t// in\n    tag_110:\n        /* \"#utility.yul\":3608:3611   */\n      dup3\n        /* \"#utility.yul\":3601:3638   */\n      mstore\n        /* \"#utility.yul\":3536:3644   */\n      pop\n      pop\n      jump\t// out\n        /* \"#utility.yul\":3650:3829   */\n    tag_62:\n        /* \"#utility.yul\":3719:3729   */\n      0x00\n        /* \"#utility.yul\":3740:3786   */\n      tag_112\n        /* \"#utility.yul\":3782:3785   */\n      dup4\n        /* \"#utility.yul\":3774:3780   */\n      dup4\n        /* \"#utility.yul\":3740:3786   */\n      tag_61\n      jump\t// in\n    tag_112:\n        /* \"#utility.yul\":3818:3822   */\n      0x20\n        /* \"#utility.yul\":3813:3816   */\n      dup4\n        /* \"#utility.yul\":3809:3823   */\n      add\n        /* \"#utility.yul\":3795:3823   */\n      swap1\n      pop\n        /* \"#utility.yul\":3650:3829   */\n      swap3\n      swap2\n      pop\n      pop\n      jump\t// out\n        /* \"#utility.yul\":3835:3948   */\n    tag_63:\n        /* \"#utility.yul\":3905:3909   */\n      0x00\n        /* \"#utility.yul\":3937:3941   */\n      0x20\n        /* \"#utility.yul\":3932:3935   */\n      dup3\n        /* \"#utility.yul\":3928:3942   */\n      add\n        /* \"#utility.yul\":3920:3942   */\n      swap1\n      pop\n        /* \"#utility.yul\":3835:3948   */\n      swap2\n      swap1\n      pop\n      jump\t// out\n        /* \"#utility.yul\":3984:4716   */\n    tag_64:\n        /* \"#utility.yul\":4103:4106   */\n      0x00\n        /* \"#utility.yul\":4132:4186   */\n      tag_115\n        /* \"#utility.yul\":4180:4185   */\n      dup3\n        /* \"#utility.yul\":4132:4186   */\n      tag_58\n      jump\t// in\n    tag_115:\n        /* \"#utility.yul\":4202:4288   */\n      tag_116\n        /* \"#utility.yul\":4281:4287   */\n      dup2\n        /* \"#utility.yul\":4276:4279   */\n      dup6\n        /* \"#utility.yul\":4202:4288   */\n      tag_59\n      jump\t// in\n    tag_116:\n        /* \"#utility.yul\":4195:4288   */\n      swap4\n      pop\n        /* \"#utility.yul\":4312:4368   */\n      tag_117\n        /* \"#utility.yul\":4362:4367   */\n      dup4\n        /* \"#utility.yul\":4312:4368   */\n      tag_60\n      jump\t// in\n    tag_117:\n        /* \"#utility.yul\":4391:4398   */\n      dup1\n        /* \"#utility.yul\":4422:4423   */\n      0x00\n        /* \"#utility.yul\":4407:4691   */\n    tag_118:\n        /* \"#utility.yul\":4432:4438   */\n      dup4\n        /* \"#utility.yul\":4429:4430   */\n      dup2\n        /* \"#utility.yul\":4426:4439   */\n      lt\n        /* \"#utility.yul\":4407:4691   */\n      iszero\n      tag_120\n      jumpi\n        /* \"#utility.yul\":4508:4514   */\n      dup2\n        /* \"#utility.yul\":4502:4515   */\n      mload\n        /* \"#utility.yul\":4535:4598   */\n      tag_121\n        /* \"#utility.yul\":4594:4597   */\n      dup9\n        /* \"#utility.yul\":4579:4592   */\n      dup3\n        /* \"#utility.yul\":4535:4598   */\n      tag_62\n      jump\t// in\n    tag_121:\n        /* \"#utility.yul\":4528:4598   */\n      swap8\n      pop\n        /* \"#utility.yul\":4621:4681   */\n      tag_122\n        /* \"#utility.yul\":4674:4680   */\n      dup4\n        /* \"#utility.yul\":4621:4681   */\n      tag_63\n      jump\t// in\n    tag_122:\n        /* \"#utility.yul\":4611:4681   */\n      swap3\n      pop\n        /* \"#utility.yul\":4467:4691   */\n      pop\n        /* \"#utility.yul\":4454:4455   */\n      0x01\n        /* \"#utility.yul\":4451:4452   */\n      dup2\n        /* \"#utility.yul\":4447:4456   */\n      add\n        /* \"#utility.yul\":4442:4456   */\n      swap1\n      pop\n        /* \"#utility.yul\":4407:4691   */\n      jump(tag_118)\n    tag_120:\n        /* \"#utility.yul\":4411:4425   */\n      pop\n        /* \"#utility.yul\":4707:4710   */\n      dup6\n        /* \"#utility.yul\":4700:4710   */\n      swap4\n      pop\n        /* \"#utility.yul\":4108:4716   */\n      pop\n      pop\n      pop\n        /* \"#utility.yul\":3984:4716   */\n      swap3\n      swap2\n      pop\n      pop\n      jump\t// out\n        /* \"#utility.yul\":4722:5095   */\n    tag_21:\n        /* \"#utility.yul\":4865:4869   */\n      0x00\n        /* \"#utility.yul\":4903:4905   */\n      0x20\n        /* \"#utility.yul\":4892:4901   */\n      dup3\n        /* \"#utility.yul\":4888:4906   */\n      add\n        /* \"#utility.yul\":4880:4906   */\n      swap1\n      pop\n        /* \"#utility.yul\":4952:4961   */\n      dup2\n        /* \"#utility.yul\":4946:4950   */\n      dup2\n        /* \"#utility.yul\":4942:4962   */\n      sub\n        /* \"#utility.yul\":4938:4939   */\n      0x00\n        /* \"#utility.yul\":4927:4936   */\n      dup4\n        /* \"#utility.yul\":4923:4940   */\n      add\n        /* \"#utility.yul\":4916:4963   */\n      mstore\n        /* \"#utility.yul\":4980:5088   */\n      tag_124\n        /* \"#utility.yul\":5083:5087   */\n      dup2\n        /* \"#utility.yul\":5074:5080   */\n      dup5\n        /* \"#utility.yul\":4980:5088   */\n      tag_64\n      jump\t// in\n    tag_124:\n        /* \"#utility.yul\":4972:5088   */\n      swap1\n      pop\n        /* \"#utility.yul\":4722:5095   */\n      swap3\n      swap2\n      pop\n      pop\n      jump\t// out\n        /* \"#utility.yul\":5101:5270   */\n    tag_65:\n        /* \"#utility.yul\":5185:5196   */\n      0x00\n        /* \"#utility.yul\":5219:5225   */\n      dup3\n        /* \"#utility.yul\":5214:5217   */\n      dup3\n        /* \"#utility.yul\":5207:5226   */\n      mstore\n        /* \"#utility.yul\":5259:5263   */\n      0x20\n        /* \"#utility.yul\":5254:5257   */\n      dup3\n        /* \"#utility.yul\":5250:5264   */\n      add\n        /* \"#utility.yul\":5235:5264   */\n      swap1\n      pop\n        /* \"#utility.yul\":5101:5270   */\n      swap3\n      swap2\n      pop\n      pop\n      jump\t// out\n        /* \"#utility.yul\":5276:5422   */\n    tag_66:\n        /* \"#utility.yul\":5373:5379   */\n      dup3\n        /* \"#utility.yul\":5368:5371   */\n      dup2\n        /* \"#utility.yul\":5363:5366   */\n      dup4\n        /* \"#utility.yul\":5350:5380   */\n      calldatacopy\n        /* \"#utility.yul\":5414:5415   */\n      0x00\n        /* \"#utility.yul\":5405:5411   */\n      dup4\n        /* \"#utility.yul\":5400:5403   */\n      dup4\n        /* \"#utility.yul\":5396:5412   */\n      add\n        /* \"#utility.yul\":5389:5416   */\n      mstore\n        /* \"#utility.yul\":5276:5422   */\n      pop\n      pop\n      pop\n      jump\t// out\n        /* \"#utility.yul\":5428:5530   */\n    tag_67:\n        /* \"#utility.yul\":5469:5475   */\n      0x00\n        /* \"#utility.yul\":5520:5522   */\n      0x1f\n        /* \"#utility.yul\":5516:5523   */\n      not\n        /* \"#utility.yul\":5511:5513   */\n      0x1f\n        /* \"#utility.yul\":5504:5509   */\n      dup4\n        /* \"#utility.yul\":5500:5514   */\n      add\n        /* \"#utility.yul\":5496:5524   */\n      and\n        /* \"#utility.yul\":5486:5524   */\n      swap1\n      pop\n        /* \"#utility.yul\":5428:5530   */\n      swap2\n      swap1\n      pop\n      jump\t// out\n        /* \"#utility.yul\":5560:5877   */\n    tag_68:\n        /* \"#utility.yul\":5658:5661   */\n      0x00\n        /* \"#utility.yul\":5679:5750   */\n      tag_129\n        /* \"#utility.yul\":5743:5749   */\n      dup4\n        /* \"#utility.yul\":5738:5741   */\n      dup6\n        /* \"#utility.yul\":5679:5750   */\n      tag_65\n      jump\t// in\n    tag_129:\n        /* \"#utility.yul\":5672:5750   */\n      swap4\n      pop\n        /* \"#utility.yul\":5760:5816   */\n      tag_130\n        /* \"#utility.yul\":5809:5815   */\n      dup4\n        /* \"#utility.yul\":5804:5807   */\n      dup6\n        /* \"#utility.yul\":5797:5802   */\n      dup5\n        /* \"#utility.yul\":5760:5816   */\n      tag_66\n      jump\t// in\n    tag_130:\n        /* \"#utility.yul\":5841:5870   */\n      tag_131\n        /* \"#utility.yul\":5863:5869   */\n      dup4\n        /* \"#utility.yul\":5841:5870   */\n      tag_67\n      jump\t// in\n    tag_131:\n        /* \"#utility.yul\":5836:5839   */\n      dup5\n        /* \"#utility.yul\":5832:5871   */\n      add\n        /* \"#utility.yul\":5825:5871   */\n      swap1\n      pop\n        /* \"#utility.yul\":5560:5877   */\n      swap4\n      swap3\n      pop\n      pop\n      pop\n      jump\t// out\n        /* \"#utility.yul\":5883:6547   */\n    tag_35:\n        /* \"#utility.yul\":6090:6094   */\n      0x00\n        /* \"#utility.yul\":6128:6131   */\n      0x80\n        /* \"#utility.yul\":6117:6126   */\n      dup3\n        /* \"#utility.yul\":6113:6132   */\n      add\n        /* \"#utility.yul\":6105:6132   */\n      swap1\n      pop\n        /* \"#utility.yul\":6142:6213   */\n      tag_133\n        /* \"#utility.yul\":6210:6211   */\n      0x00\n        /* \"#utility.yul\":6199:6208   */\n      dup4\n        /* \"#utility.yul\":6195:6212   */\n      add\n        /* \"#utility.yul\":6186:6192   */\n      dup9\n        /* \"#utility.yul\":6142:6213   */\n      tag_53\n      jump\t// in\n    tag_133:\n        /* \"#utility.yul\":6260:6269   */\n      dup2\n        /* \"#utility.yul\":6254:6258   */\n      dup2\n        /* \"#utility.yul\":6250:6270   */\n      sub\n        /* \"#utility.yul\":6245:6247   */\n      0x20\n        /* \"#utility.yul\":6234:6243   */\n      dup4\n        /* \"#utility.yul\":6230:6248   */\n      add\n        /* \"#utility.yul\":6223:6271   */\n      mstore\n        /* \"#utility.yul\":6288:6376   */\n      tag_134\n        /* \"#utility.yul\":6371:6375   */\n      dup2\n        /* \"#utility.yul\":6362:6368   */\n      dup7\n        /* \"#utility.yul\":6354:6360   */\n      dup9\n        /* \"#utility.yul\":6288:6376   */\n      tag_68\n      jump\t// in\n    tag_134:\n        /* \"#utility.yul\":6280:6376   */\n      swap1\n      pop\n        /* \"#utility.yul\":6386:6458   */\n      tag_135\n        /* \"#utility.yul\":6454:6456   */\n      0x40\n        /* \"#utility.yul\":6443:6452   */\n      dup4\n        /* \"#utility.yul\":6439:6457   */\n      add\n        /* \"#utility.yul\":6430:6436   */\n      dup6\n        /* \"#utility.yul\":6386:6458   */\n      tag_53\n      jump\t// in\n    tag_135:\n        /* \"#utility.yul\":6468:6540   */\n      tag_136\n        /* \"#utility.yul\":6536:6538   */\n      0x60\n        /* \"#utility.yul\":6525:6534   */\n      dup4\n        /* \"#utility.yul\":6521:6539   */\n      add\n        /* \"#utility.yul\":6512:6518   */\n      dup5\n        /* \"#utility.yul\":6468:6540   */\n      tag_53\n      jump\t// in\n    tag_136:\n        /* \"#utility.yul\":5883:6547   */\n      swap7\n      swap6\n      pop\n      pop\n      pop\n      pop\n      pop\n      pop\n      jump\t// out\n        /* \"#utility.yul\":6553:6885   */\n    tag_39:\n        /* \"#utility.yul\":6674:6678   */\n      0x00\n        /* \"#utility.yul\":6712:6714   */\n      0x40\n        /* \"#utility.yul\":6701:6710   */\n      dup3\n        /* \"#utility.yul\":6697:6715   */\n      add\n        /* \"#utility.yul\":6689:6715   */\n      swap1\n      pop\n        /* \"#utility.yul\":6725:6796   */\n      tag_138\n        /* \"#utility.yul\":6793:6794   */\n      0x00\n        /* \"#utility.yul\":6782:6791   */\n      dup4\n        /* \"#utility.yul\":6778:6795   */\n      add\n        /* \"#utility.yul\":6769:6775   */\n      dup6\n        /* \"#utility.yul\":6725:6796   */\n      tag_53\n      jump\t// in\n    tag_138:\n        /* \"#utility.yul\":6806:6878   */\n      tag_139\n        /* \"#utility.yul\":6874:6876   */\n      0x20\n        /* \"#utility.yul\":6863:6872   */\n      dup4\n        /* \"#utility.yul\":6859:6877   */\n      add\n        /* \"#utility.yul\":6850:6856   */\n      dup5\n        /* \"#utility.yul\":6806:6878   */\n      tag_53\n      jump\t// in\n    tag_139:\n        /* \"#utility.yul\":6553:6885   */\n      swap4\n      swap3\n      pop\n      pop\n      pop\n      jump\t// out\n    stop\n\n    sub_0: assembly {\n            /* \"Proposal.sol\":160:5423  contract Proposal {... */\n          mstore(0x40, 0xe0)\n            /* \"Proposal.sol\":980:981  0 */\n          0x00\n            /* \"Proposal.sol\":946:981  uint32 public voteBufferSeconds = 0 */\n          0x07\n          exp(0x0100, 0x00)\n          dup2\n          sload\n          dup2\n          0xffffffff\n          mul\n          not\n          and\n          swap1\n          dup4\n          0xffffffff\n          and\n          mul\n          or\n          swap1\n          sstore\n          pop\n            /* \"Proposal.sol\":1059:1060  3 */\n          0x03\n            /* \"Proposal.sol\":1024:1060  uint32 public voteCountThreshold = 3 */\n          0x09\n          exp(0x0100, 0x00)\n          dup2\n          sload\n          dup2\n          0xffffffff\n          mul\n          not\n          and\n          swap1\n          dup4\n          0xffffffff\n          and\n          mul\n          or\n          swap1\n          sstore\n          pop\n            /* \"Proposal.sol\":1100:1105  false */\n          0x00\n            /* \"Proposal.sol\":1069:1105  bool public leaderIsEligible = false */\n          0x09\n          exp(0x0100, 0x04)\n          dup2\n          sload\n          dup2\n          0xff\n          mul\n          not\n          and\n          swap1\n          dup4\n          iszero\n          iszero\n          mul\n          or\n          swap1\n          sstore\n          pop\n            /* \"Proposal.sol\":1135:1136  0 */\n          0x00\n            /* \"Proposal.sol\":1112:1136  uint32 numberOfVotes = 0 */\n          0x09\n          exp(0x0100, 0x05)\n          dup2\n          sload\n          dup2\n          0xffffffff\n          mul\n          not\n          and\n          swap1\n          dup4\n          0xffffffff\n          and\n          mul\n          or\n          swap1\n          sstore\n          pop\n            /* \"Proposal.sol\":1324:1775  constructor(... */\n          callvalue\n          dup1\n          iszero\n          tag_1\n          jumpi\n          0x00\n          dup1\n          revert\n        tag_1:\n          pop\n          mload(0x40)\n          sub(codesize, bytecodeSize)\n          dup1\n          bytecodeSize\n          dup4\n          codecopy\n          dup2\n          dup2\n          add\n          0x40\n          mstore\n          dup2\n          add\n          swap1\n          tag_2\n          swap2\n          swap1\n          tag_3\n          jump\t// in\n        tag_2:\n            /* \"Proposal.sol\":1486:1495  creatorIn */\n          dup4\n            /* \"Proposal.sol\":1476:1495  creator = creatorIn */\n          0xffffffffffffffffffffffffffffffffffffffff\n          and\n          0x80\n          dup2\n          0xffffffffffffffffffffffffffffffffffffffff\n          and\n          dup2\n          mstore\n          pop\n          pop\n            /* \"Proposal.sol\":1527:1538  description */\n          dup3\n            /* \"Proposal.sol\":1506:1524  initialDescription */\n          0x01\n            /* \"Proposal.sol\":1506:1538  initialDescription = description */\n          swap1\n          dup2\n          tag_6\n          swap2\n          swap1\n          tag_7\n          jump\t// in\n        tag_6:\n          pop\n            /* \"Proposal.sol\":1565:1586  ProposalState.BIDDING */\n          0x00\n            /* \"Proposal.sol\":1549:1562  proposalState */\n          0x02\n          0x00\n            /* \"Proposal.sol\":1549:1586  proposalState = ProposalState.BIDDING */\n          0x0100\n          exp\n          dup2\n          sload\n          dup2\n          0xff\n          mul\n          not\n          and\n          swap1\n          dup4\n          0x03\n          dup2\n          gt\n          iszero\n          tag_8\n          jumpi\n          tag_9\n          tag_10\n          jump\t// in\n        tag_9:\n        tag_8:\n          mul\n          or\n          swap1\n          sstore\n          pop\n            /* \"Proposal.sol\":1609:1615  memMap */\n          dup2\n            /* \"Proposal.sol\":1597:1615  memberMap = memMap */\n          0xffffffffffffffffffffffffffffffffffffffff\n          and\n          0xa0\n          dup2\n          0xffffffffffffffffffffffffffffffffffffffff\n          and\n          dup2\n          mstore\n          pop\n          pop\n            /* \"Proposal.sol\":1640:1655  block.timestamp */\n          timestamp\n            /* \"Proposal.sol\":1626:1637  dateCreated */\n          0x06\n            /* \"Proposal.sol\":1626:1655  dateCreated = block.timestamp */\n          dup2\n          swap1\n          sstore\n          pop\n            /* \"Proposal.sol\":1701:1718  voteBufferSeconds */\n          0x07\n          0x00\n          swap1\n          sload\n          swap1\n          0x0100\n          exp\n          swap1\n          div\n          0xffffffff\n          and\n            /* \"Proposal.sol\":1683:1718  block.timestamp + voteBufferSeconds */\n          0xffffffff\n          and\n            /* \"Proposal.sol\":1683:1698  block.timestamp */\n          timestamp\n            /* \"Proposal.sol\":1683:1718  block.timestamp + voteBufferSeconds */\n          tag_11\n          swap2\n          swap1\n          tag_12\n          jump\t// in\n        tag_11:\n            /* \"Proposal.sol\":1666:1680  voteBufferDate */\n          0x08\n            /* \"Proposal.sol\":1666:1718  voteBufferDate = block.timestamp + voteBufferSeconds */\n          dup2\n          swap1\n          sstore\n          pop\n            /* \"Proposal.sol\":1753:1767  projectFactory */\n          dup1\n            /* \"Proposal.sol\":1729:1767  projectFactoryAddress = projectFactory */\n          0xffffffffffffffffffffffffffffffffffffffff\n          and\n          0xc0\n          dup2\n          0xffffffffffffffffffffffffffffffffffffffff\n          and\n          dup2\n          mstore\n          pop\n          pop\n            /* \"Proposal.sol\":1324:1775  constructor(... */\n          pop\n          pop\n          pop\n          pop\n            /* \"Proposal.sol\":160:5423  contract Proposal {... */\n          jump(tag_13)\n            /* \"#utility.yul\":7:82   */\n        tag_14:\n            /* \"#utility.yul\":40:46   */\n          0x00\n            /* \"#utility.yul\":73:75   */\n          0x40\n            /* \"#utility.yul\":67:76   */\n          mload\n            /* \"#utility.yul\":57:76   */\n          swap1\n          pop\n            /* \"#utility.yul\":7:82   */\n          swap1\n          jump\t// out\n            /* \"#utility.yul\":88:205   */\n        tag_15:\n            /* \"#utility.yul\":197:198   */\n          0x00\n            /* \"#utility.yul\":194:195   */\n          dup1\n            /* \"#utility.yul\":187:199   */\n          revert\n            /* \"#utility.yul\":211:328   */\n        tag_16:\n            /* \"#utility.yul\":320:321   */\n          0x00\n            /* \"#utility.yul\":317:318   */\n          dup1\n            /* \"#utility.yul\":310:322   */\n          revert\n            /* \"#utility.yul\":334:460   */\n        tag_17:\n            /* \"#utility.yul\":371:378   */\n          0x00\n            /* \"#utility.yul\":411:453   */\n          0xffffffffffffffffffffffffffffffffffffffff\n            /* \"#utility.yul\":404:409   */\n          dup3\n            /* \"#utility.yul\":400:454   */\n          and\n            /* \"#utility.yul\":389:454   */\n          swap1\n          pop\n            /* \"#utility.yul\":334:460   */\n          swap2\n          swap1\n          pop\n          jump\t// out\n            /* \"#utility.yul\":466:562   */\n        tag_18:\n            /* \"#utility.yul\":503:510   */\n          0x00\n            /* \"#utility.yul\":532:556   */\n          tag_57\n            /* \"#utility.yul\":550:555   */\n          dup3\n            /* \"#utility.yul\":532:556   */\n          tag_17\n          jump\t// in\n        tag_57:\n            /* \"#utility.yul\":521:556   */\n          swap1\n          pop\n            /* \"#utility.yul\":466:562   */\n          swap2\n          swap1\n          pop\n          jump\t// out\n            /* \"#utility.yul\":568:690   */\n        tag_19:\n            /* \"#utility.yul\":641:665   */\n          tag_59\n            /* \"#utility.yul\":659:664   */\n          dup2\n            /* \"#utility.yul\":641:665   */\n          tag_18\n          jump\t// in\n        tag_59:\n            /* \"#utility.yul\":634:639   */\n          dup2\n            /* \"#utility.yul\":631:666   */\n          eq\n            /* \"#utility.yul\":621:684   */\n          tag_60\n          jumpi\n            /* \"#utility.yul\":680:681   */\n          0x00\n            /* \"#utility.yul\":677:678   */\n          dup1\n            /* \"#utility.yul\":670:682   */\n          revert\n            /* \"#utility.yul\":621:684   */\n        tag_60:\n            /* \"#utility.yul\":568:690   */\n          pop\n          jump\t// out\n            /* \"#utility.yul\":696:839   */\n        tag_20:\n            /* \"#utility.yul\":753:758   */\n          0x00\n            /* \"#utility.yul\":784:790   */\n          dup2\n            /* \"#utility.yul\":778:791   */\n          mload\n            /* \"#utility.yul\":769:791   */\n          swap1\n          pop\n            /* \"#utility.yul\":800:833   */\n          tag_62\n            /* \"#utility.yul\":827:832   */\n          dup2\n            /* \"#utility.yul\":800:833   */\n          tag_19\n          jump\t// in\n        tag_62:\n            /* \"#utility.yul\":696:839   */\n          swap3\n          swap2\n          pop\n          pop\n          jump\t// out\n            /* \"#utility.yul\":845:962   */\n        tag_21:\n            /* \"#utility.yul\":954:955   */\n          0x00\n            /* \"#utility.yul\":951:952   */\n          dup1\n            /* \"#utility.yul\":944:956   */\n          revert\n            /* \"#utility.yul\":968:1085   */\n        tag_22:\n            /* \"#utility.yul\":1077:1078   */\n          0x00\n            /* \"#utility.yul\":1074:1075   */\n          dup1\n            /* \"#utility.yul\":1067:1079   */\n          revert\n            /* \"#utility.yul\":1091:1193   */\n        tag_23:\n            /* \"#utility.yul\":1132:1138   */\n          0x00\n            /* \"#utility.yul\":1183:1185   */\n          0x1f\n            /* \"#utility.yul\":1179:1186   */\n          not\n            /* \"#utility.yul\":1174:1176   */\n          0x1f\n            /* \"#utility.yul\":1167:1172   */\n          dup4\n            /* \"#utility.yul\":1163:1177   */\n          add\n            /* \"#utility.yul\":1159:1187   */\n          and\n            /* \"#utility.yul\":1149:1187   */\n          swap1\n          pop\n            /* \"#utility.yul\":1091:1193   */\n          swap2\n          swap1\n          pop\n          jump\t// out\n            /* \"#utility.yul\":1199:1379   */\n        tag_24:\n            /* \"#utility.yul\":1247:1324   */\n          0x4e487b7100000000000000000000000000000000000000000000000000000000\n            /* \"#utility.yul\":1244:1245   */\n          0x00\n            /* \"#utility.yul\":1237:1325   */\n          mstore\n            /* \"#utility.yul\":1344:1348   */\n          0x41\n            /* \"#utility.yul\":1341:1342   */\n          0x04\n            /* \"#utility.yul\":1334:1349   */\n          mstore\n            /* \"#utility.yul\":1368:1372   */\n          0x24\n            /* \"#utility.yul\":1365:1366   */\n          0x00\n            /* \"#utility.yul\":1358:1373   */\n          revert\n            /* \"#utility.yul\":1385:1666   */\n        tag_25:\n            /* \"#utility.yul\":1468:1495   */\n          tag_68\n            /* \"#utility.yul\":1490:1494   */\n          dup3\n            /* \"#utility.yul\":1468:1495   */\n          tag_23\n          jump\t// in\n        tag_68:\n            /* \"#utility.yul\":1460:1466   */\n          dup2\n            /* \"#utility.yul\":1456:1496   */\n          add\n            /* \"#utility.yul\":1598:1604   */\n          dup2\n            /* \"#utility.yul\":1586:1596   */\n          dup2\n            /* \"#utility.yul\":1583:1605   */\n          lt\n            /* \"#utility.yul\":1562:1580   */\n          0xffffffffffffffff\n            /* \"#utility.yul\":1550:1560   */\n          dup3\n            /* \"#utility.yul\":1547:1581   */\n          gt\n            /* \"#utility.yul\":1544:1606   */\n          or\n            /* \"#utility.yul\":1541:1629   */\n          iszero\n          tag_69\n          jumpi\n            /* \"#utility.yul\":1609:1627   */\n          tag_70\n          tag_24\n          jump\t// in\n        tag_70:\n            /* \"#utility.yul\":1541:1629   */\n        tag_69:\n            /* \"#utility.yul\":1649:1659   */\n          dup1\n            /* \"#utility.yul\":1645:1647   */\n          0x40\n            /* \"#utility.yul\":1638:1660   */\n          mstore\n            /* \"#utility.yul\":1428:1666   */\n          pop\n            /* \"#utility.yul\":1385:1666   */\n          pop\n          pop\n          jump\t// out\n            /* \"#utility.yul\":1672:1801   */\n        tag_26:\n            /* \"#utility.yul\":1706:1712   */\n          0x00\n            /* \"#utility.yul\":1733:1753   */\n          tag_72\n          tag_14\n          jump\t// in\n        tag_72:\n            /* \"#utility.yul\":1723:1753   */\n          swap1\n          pop\n            /* \"#utility.yul\":1762:1795   */\n          tag_73\n            /* \"#utility.yul\":1790:1794   */\n          dup3\n            /* \"#utility.yul\":1782:1788   */\n          dup3\n            /* \"#utility.yul\":1762:1795   */\n          tag_25\n          jump\t// in\n        tag_73:\n            /* \"#utility.yul\":1672:1801   */\n          swap2\n          swap1\n          pop\n          jump\t// out\n            /* \"#utility.yul\":1807:2115   */\n        tag_27:\n            /* \"#utility.yul\":1869:1873   */\n          0x00\n            /* \"#utility.yul\":1959:1977   */\n          0xffffffffffffffff\n            /* \"#utility.yul\":1951:1957   */\n          dup3\n            /* \"#utility.yul\":1948:1978   */\n          gt\n            /* \"#utility.yul\":1945:2001   */\n          iszero\n          tag_75\n          jumpi\n            /* \"#utility.yul\":1981:1999   */\n          tag_76\n          tag_24\n          jump\t// in\n        tag_76:\n            /* \"#utility.yul\":1945:2001   */\n        tag_75:\n            /* \"#utility.yul\":2019:2048   */\n          tag_77\n            /* \"#utility.yul\":2041:2047   */\n          dup3\n            /* \"#utility.yul\":2019:2048   */\n          tag_23\n          jump\t// in\n        tag_77:\n            /* \"#utility.yul\":2011:2048   */\n          swap1\n          pop\n            /* \"#utility.yul\":2103:2107   */\n          0x20\n            /* \"#utility.yul\":2097:2101   */\n          dup2\n            /* \"#utility.yul\":2093:2108   */\n          add\n            /* \"#utility.yul\":2085:2108   */\n          swap1\n          pop\n            /* \"#utility.yul\":1807:2115   */\n          swap2\n          swap1\n          pop\n          jump\t// out\n            /* \"#utility.yul\":2121:2367   */\n        tag_28:\n            /* \"#utility.yul\":2202:2203   */\n          0x00\n            /* \"#utility.yul\":2212:2325   */\n        tag_79:\n            /* \"#utility.yul\":2226:2232   */\n          dup4\n            /* \"#utility.yul\":2223:2224   */\n          dup2\n            /* \"#utility.yul\":2220:2233   */\n          lt\n            /* \"#utility.yul\":2212:2325   */\n          iszero\n          tag_81\n          jumpi\n            /* \"#utility.yul\":2311:2312   */\n          dup1\n            /* \"#utility.yul\":2306:2309   */\n          dup3\n            /* \"#utility.yul\":2302:2313   */\n          add\n            /* \"#utility.yul\":2296:2314   */\n          mload\n            /* \"#utility.yul\":2292:2293   */\n          dup2\n            /* \"#utility.yul\":2287:2290   */\n          dup5\n            /* \"#utility.yul\":2283:2294   */\n          add\n            /* \"#utility.yul\":2276:2315   */\n          mstore\n            /* \"#utility.yul\":2248:2250   */\n          0x20\n            /* \"#utility.yul\":2245:2246   */\n          dup2\n            /* \"#utility.yul\":2241:2251   */\n          add\n            /* \"#utility.yul\":2236:2251   */\n          swap1\n          pop\n            /* \"#utility.yul\":2212:2325   */\n          jump(tag_79)\n        tag_81:\n            /* \"#utility.yul\":2359:2360   */\n          0x00\n            /* \"#utility.yul\":2350:2356   */\n          dup5\n            /* \"#utility.yul\":2345:2348   */\n          dup5\n            /* \"#utility.yul\":2341:2357   */\n          add\n            /* \"#utility.yul\":2334:2361   */\n          mstore\n            /* \"#utility.yul\":2183:2367   */\n          pop\n            /* \"#utility.yul\":2121:2367   */\n          pop\n          pop\n          pop\n          jump\t// out\n            /* \"#utility.yul\":2373:2807   */\n        tag_29:\n            /* \"#utility.yul\":2462:2467   */\n          0x00\n            /* \"#utility.yul\":2487:2553   */\n          tag_83\n            /* \"#utility.yul\":2503:2552   */\n          tag_84\n            /* \"#utility.yul\":2545:2551   */\n          dup5\n            /* \"#utility.yul\":2503:2552   */\n          tag_27\n          jump\t// in\n        tag_84:\n            /* \"#utility.yul\":2487:2553   */\n          tag_26\n          jump\t// in\n        tag_83:\n            /* \"#utility.yul\":2478:2553   */\n          swap1\n          pop\n            /* \"#utility.yul\":2576:2582   */\n          dup3\n            /* \"#utility.yul\":2569:2574   */\n          dup2\n            /* \"#utility.yul\":2562:2583   */\n          mstore\n            /* \"#utility.yul\":2614:2618   */\n          0x20\n            /* \"#utility.yul\":2607:2612   */\n          dup2\n            /* \"#utility.yul\":2603:2619   */\n          add\n            /* \"#utility.yul\":2652:2655   */\n          dup5\n            /* \"#utility.yul\":2643:2649   */\n          dup5\n            /* \"#utility.yul\":2638:2641   */\n          dup5\n            /* \"#utility.yul\":2634:2650   */\n          add\n            /* \"#utility.yul\":2631:2656   */\n          gt\n            /* \"#utility.yul\":2628:2740   */\n          iszero\n          tag_85\n          jumpi\n            /* \"#utility.yul\":2659:2738   */\n          tag_86\n          tag_22\n          jump\t// in\n        tag_86:\n            /* \"#utility.yul\":2628:2740   */\n        tag_85:\n            /* \"#utility.yul\":2749:2801   */\n          tag_87\n            /* \"#utility.yul\":2794:2800   */\n          dup5\n            /* \"#utility.yul\":2789:2792   */\n          dup3\n            /* \"#utility.yul\":2784:2787   */\n          dup6\n            /* \"#utility.yul\":2749:2801   */\n          tag_28\n          jump\t// in\n        tag_87:\n            /* \"#utility.yul\":2468:2807   */\n          pop\n            /* \"#utility.yul\":2373:2807   */\n          swap4\n          swap3\n          pop\n          pop\n          pop\n          jump\t// out\n            /* \"#utility.yul\":2827:3182   */\n        tag_30:\n            /* \"#utility.yul\":2894:2899   */\n          0x00\n            /* \"#utility.yul\":2943:2946   */\n          dup3\n            /* \"#utility.yul\":2936:2940   */\n          0x1f\n            /* \"#utility.yul\":2928:2934   */\n          dup4\n            /* \"#utility.yul\":2924:2941   */\n          add\n            /* \"#utility.yul\":2920:2947   */\n          slt\n            /* \"#utility.yul\":2910:3032   */\n          tag_89\n          jumpi\n            /* \"#utility.yul\":2951:3030   */\n          tag_90\n          tag_21\n          jump\t// in\n        tag_90:\n            /* \"#utility.yul\":2910:3032   */\n        tag_89:\n            /* \"#utility.yul\":3061:3067   */\n          dup2\n            /* \"#utility.yul\":3055:3068   */\n          mload\n            /* \"#utility.yul\":3086:3176   */\n          tag_91\n            /* \"#utility.yul\":3172:3175   */\n          dup5\n            /* \"#utility.yul\":3164:3170   */\n          dup3\n            /* \"#utility.yul\":3157:3161   */\n          0x20\n            /* \"#utility.yul\":3149:3155   */\n          dup7\n            /* \"#utility.yul\":3145:3162   */\n          add\n            /* \"#utility.yul\":3086:3176   */\n          tag_29\n          jump\t// in\n        tag_91:\n            /* \"#utility.yul\":3077:3176   */\n          swap2\n          pop\n            /* \"#utility.yul\":2900:3182   */\n          pop\n            /* \"#utility.yul\":2827:3182   */\n          swap3\n          swap2\n          pop\n          pop\n          jump\t// out\n            /* \"#utility.yul\":3188:4181   */\n        tag_3:\n            /* \"#utility.yul\":3295:3301   */\n          0x00\n            /* \"#utility.yul\":3303:3309   */\n          dup1\n            /* \"#utility.yul\":3311:3317   */\n          0x00\n            /* \"#utility.yul\":3319:3325   */\n          dup1\n            /* \"#utility.yul\":3368:3371   */\n          0x80\n            /* \"#utility.yul\":3356:3365   */\n          dup6\n            /* \"#utility.yul\":3347:3354   */\n          dup8\n            /* \"#utility.yul\":3343:3366   */\n          sub\n            /* \"#utility.yul\":3339:3372   */\n          slt\n            /* \"#utility.yul\":3336:3456   */\n          iszero\n          tag_93\n          jumpi\n            /* \"#utility.yul\":3375:3454   */\n          tag_94\n          tag_15\n          jump\t// in\n        tag_94:\n            /* \"#utility.yul\":3336:3456   */\n        tag_93:\n            /* \"#utility.yul\":3495:3496   */\n          0x00\n            /* \"#utility.yul\":3520:3584   */\n          tag_95\n            /* \"#utility.yul\":3576:3583   */\n          dup8\n            /* \"#utility.yul\":3567:3573   */\n          dup3\n            /* \"#utility.yul\":3556:3565   */\n          dup9\n            /* \"#utility.yul\":3552:3574   */\n          add\n            /* \"#utility.yul\":3520:3584   */\n          tag_20\n          jump\t// in\n        tag_95:\n            /* \"#utility.yul\":3510:3584   */\n          swap5\n          pop\n            /* \"#utility.yul\":3466:3594   */\n          pop\n            /* \"#utility.yul\":3654:3656   */\n          0x20\n            /* \"#utility.yul\":3643:3652   */\n          dup6\n            /* \"#utility.yul\":3639:3657   */\n          add\n            /* \"#utility.yul\":3633:3658   */\n          mload\n            /* \"#utility.yul\":3685:3703   */\n          0xffffffffffffffff\n            /* \"#utility.yul\":3677:3683   */\n          dup2\n            /* \"#utility.yul\":3674:3704   */\n          gt\n            /* \"#utility.yul\":3671:3788   */\n          iszero\n          tag_96\n          jumpi\n            /* \"#utility.yul\":3707:3786   */\n          tag_97\n          tag_16\n          jump\t// in\n        tag_97:\n            /* \"#utility.yul\":3671:3788   */\n        tag_96:\n            /* \"#utility.yul\":3812:3886   */\n          tag_98\n            /* \"#utility.yul\":3878:3885   */\n          dup8\n            /* \"#utility.yul\":3869:3875   */\n          dup3\n            /* \"#utility.yul\":3858:3867   */\n          dup9\n            /* \"#utility.yul\":3854:3876   */\n          add\n            /* \"#utility.yul\":3812:3886   */\n          tag_30\n          jump\t// in\n        tag_98:\n            /* \"#utility.yul\":3802:3886   */\n          swap4\n          pop\n            /* \"#utility.yul\":3604:3896   */\n          pop\n            /* \"#utility.yul\":3935:3937   */\n          0x40\n            /* \"#utility.yul\":3961:4025   */\n          tag_99\n            /* \"#utility.yul\":4017:4024   */\n          dup8\n            /* \"#utility.yul\":4008:4014   */\n          dup3\n            /* \"#utility.yul\":3997:4006   */\n          dup9\n            /* \"#utility.yul\":3993:4015   */\n          add\n            /* \"#utility.yul\":3961:4025   */\n          tag_20\n          jump\t// in\n        tag_99:\n            /* \"#utility.yul\":3951:4025   */\n          swap3\n          pop\n            /* \"#utility.yul\":3906:4035   */\n          pop\n            /* \"#utility.yul\":4074:4076   */\n          0x60\n            /* \"#utility.yul\":4100:4164   */\n          tag_100\n            /* \"#utility.yul\":4156:4163   */\n          dup8\n            /* \"#utility.yul\":4147:4153   */\n          dup3\n            /* \"#utility.yul\":4136:4145   */\n          dup9\n            /* \"#utility.yul\":4132:4154   */\n          add\n            /* \"#utility.yul\":4100:4164   */\n          tag_20\n          jump\t// in\n        tag_100:\n            /* \"#utility.yul\":4090:4164   */\n          swap2\n          pop\n            /* \"#utility.yul\":4045:4174   */\n          pop\n            /* \"#utility.yul\":3188:4181   */\n          swap3\n          swap6\n          swap2\n          swap5\n          pop\n          swap3\n          pop\n          jump\t// out\n            /* \"#utility.yul\":4187:4286   */\n        tag_31:\n            /* \"#utility.yul\":4239:4245   */\n          0x00\n            /* \"#utility.yul\":4273:4278   */\n          dup2\n            /* \"#utility.yul\":4267:4279   */\n          mload\n            /* \"#utility.yul\":4257:4279   */\n          swap1\n          pop\n            /* \"#utility.yul\":4187:4286   */\n          swap2\n          swap1\n          pop\n          jump\t// out\n            /* \"#utility.yul\":4292:4472   */\n        tag_32:\n            /* \"#utility.yul\":4340:4417   */\n          0x4e487b7100000000000000000000000000000000000000000000000000000000\n            /* \"#utility.yul\":4337:4338   */\n          0x00\n            /* \"#utility.yul\":4330:4418   */\n          mstore\n            /* \"#utility.yul\":4437:4441   */\n          0x22\n            /* \"#utility.yul\":4434:4435   */\n          0x04\n            /* \"#utility.yul\":4427:4442   */\n          mstore\n            /* \"#utility.yul\":4461:4465   */\n          0x24\n            /* \"#utility.yul\":4458:4459   */\n          0x00\n            /* \"#utility.yul\":4451:4466   */\n          revert\n            /* \"#utility.yul\":4478:4798   */\n        tag_33:\n            /* \"#utility.yul\":4522:4528   */\n          0x00\n            /* \"#utility.yul\":4559:4560   */\n          0x02\n            /* \"#utility.yul\":4553:4557   */\n          dup3\n            /* \"#utility.yul\":4549:4561   */\n          div\n            /* \"#utility.yul\":4539:4561   */\n          swap1\n          pop\n            /* \"#utility.yul\":4606:4607   */\n          0x01\n            /* \"#utility.yul\":4600:4604   */\n          dup3\n            /* \"#utility.yul\":4596:4608   */\n          and\n            /* \"#utility.yul\":4627:4645   */\n          dup1\n            /* \"#utility.yul\":4617:4698   */\n          tag_104\n          jumpi\n            /* \"#utility.yul\":4683:4687   */\n          0x7f\n            /* \"#utility.yul\":4675:4681   */\n          dup3\n            /* \"#utility.yul\":4671:4688   */\n          and\n            /* \"#utility.yul\":4661:4688   */\n          swap2\n          pop\n            /* \"#utility.yul\":4617:4698   */\n        tag_104:\n            /* \"#utility.yul\":4745:4747   */\n          0x20\n            /* \"#utility.yul\":4737:4743   */\n          dup3\n            /* \"#utility.yul\":4734:4748   */\n          lt\n            /* \"#utility.yul\":4714:4732   */\n          dup2\n            /* \"#utility.yul\":4711:4749   */\n          sub\n            /* \"#utility.yul\":4708:4792   */\n          tag_105\n          jumpi\n            /* \"#utility.yul\":4764:4782   */\n          tag_106\n          tag_32\n          jump\t// in\n        tag_106:\n            /* \"#utility.yul\":4708:4792   */\n        tag_105:\n            /* \"#utility.yul\":4529:4798   */\n          pop\n            /* \"#utility.yul\":4478:4798   */\n          swap2\n          swap1\n          pop\n          jump\t// out\n            /* \"#utility.yul\":4804:4945   */\n        tag_34:\n            /* \"#utility.yul\":4853:4857   */\n          0x00\n            /* \"#utility.yul\":4876:4879   */\n          dup2\n            /* \"#utility.yul\":4868:4879   */\n          swap1\n          pop\n            /* \"#utility.yul\":4899:4902   */\n          dup2\n            /* \"#utility.yul\":4896:4897   */\n          0x00\n            /* \"#utility.yul\":4889:4903   */\n          mstore\n            /* \"#utility.yul\":4933:4937   */\n          0x20\n            /* \"#utility.yul\":4930:4931   */\n          0x00\n            /* \"#utility.yul\":4920:4938   */\n          keccak256\n            /* \"#utility.yul\":4912:4938   */\n          swap1\n          pop\n            /* \"#utility.yul\":4804:4945   */\n          swap2\n          swap1\n          pop\n          jump\t// out\n            /* \"#utility.yul\":4951:5044   */\n        tag_35:\n            /* \"#utility.yul\":4988:4994   */\n          0x00\n            /* \"#utility.yul\":5035:5037   */\n          0x20\n            /* \"#utility.yul\":5030:5032   */\n          0x1f\n            /* \"#utility.yul\":5023:5028   */\n          dup4\n            /* \"#utility.yul\":5019:5033   */\n          add\n            /* \"#utility.yul\":5015:5038   */\n          div\n            /* \"#utility.yul\":5005:5038   */\n          swap1\n          pop\n            /* \"#utility.yul\":4951:5044   */\n          swap2\n          swap1\n          pop\n          jump\t// out\n            /* \"#utility.yul\":5050:5157   */\n        tag_36:\n            /* \"#utility.yul\":5094:5102   */\n          0x00\n            /* \"#utility.yul\":5144:5149   */\n          dup3\n            /* \"#utility.yul\":5138:5142   */\n          dup3\n            /* \"#utility.yul\":5134:5150   */\n          shl\n            /* \"#utility.yul\":5113:5150   */\n          swap1\n          pop\n            /* \"#utility.yul\":5050:5157   */\n          swap3\n          swap2\n          pop\n          pop\n          jump\t// out\n            /* \"#utility.yul\":5163:5556   */\n        tag_37:\n            /* \"#utility.yul\":5232:5238   */\n          0x00\n            /* \"#utility.yul\":5282:5283   */\n          0x08\n            /* \"#utility.yul\":5270:5280   */\n          dup4\n            /* \"#utility.yul\":5266:5284   */\n          mul\n            /* \"#utility.yul\":5305:5402   */\n          tag_111\n            /* \"#utility.yul\":5335:5401   */\n          0xffffffffffffffffffffffffffffffffffffffffffffffffffffffffffffffff\n            /* \"#utility.yul\":5324:5333   */\n          dup3\n            /* \"#utility.yul\":5305:5402   */\n          tag_36\n          jump\t// in\n        tag_111:\n            /* \"#utility.yul\":5423:5462   */\n          tag_112\n            /* \"#utility.yul\":5453:5461   */\n          dup7\n            /* \"#utility.yul\":5442:5451   */\n          dup4\n            /* \"#utility.yul\":5423:5462   */\n          tag_36\n          jump\t// in\n        tag_112:\n            /* \"#utility.yul\":5411:5462   */\n          swap6\n          pop\n            /* \"#utility.yul\":5495:5499   */\n          dup1\n            /* \"#utility.yul\":5491:5500   */\n          not\n            /* \"#utility.yul\":5484:5489   */\n          dup5\n            /* \"#utility.yul\":5480:5501   */\n          and\n            /* \"#utility.yul\":5471:5501   */\n          swap4\n          pop\n            /* \"#utility.yul\":5544:5548   */\n          dup1\n            /* \"#utility.yul\":5534:5542   */\n          dup7\n            /* \"#utility.yul\":5530:5549   */\n          and\n            /* \"#utility.yul\":5523:5528   */\n          dup5\n            /* \"#utility.yul\":5520:5550   */\n          or\n            /* \"#utility.yul\":5510:5550   */\n          swap3\n          pop\n            /* \"#utility.yul\":5239:5556   */\n          pop\n          pop\n            /* \"#utility.yul\":5163:5556   */\n          swap4\n          swap3\n          pop\n          pop\n          pop\n          jump\t// out\n            /* \"#utility.yul\":5562:5639   */\n        tag_38:\n            /* \"#utility.yul\":5599:5606   */\n          0x00\n            /* \"#utility.yul\":5628:5633   */\n          dup2\n            /* \"#utility.yul\":5617:5633   */\n          swap1\n          pop\n            /* \"#utility.yul\":5562:5639   */\n          swap2\n          swap1\n          pop\n          jump\t// out\n            /* \"#utility.yul\":5645:5705   */\n        tag_39:\n            /* \"#utility.yul\":5673:5676   */\n          0x00\n            /* \"#utility.yul\":5694:5699   */\n          dup2\n            /* \"#utility.yul\":5687:5699   */\n          swap1\n          pop\n            /* \"#utility.yul\":5645:5705   */\n          swap2\n          swap1\n          pop\n          jump\t// out\n            /* \"#utility.yul\":5711:5853   */\n        tag_40:\n            /* \"#utility.yul\":5761:5770   */\n          0x00\n            /* \"#utility.yul\":5794:5847   */\n          tag_116\n            /* \"#utility.yul\":5812:5846   */\n          tag_117\n            /* \"#utility.yul\":5821:5845   */\n          tag_118\n            /* \"#utility.yul\":5839:5844   */\n          dup5\n            /* \"#utility.yul\":5821:5845   */\n          tag_38\n          jump\t// in\n        tag_118:\n            /* \"#utility.yul\":5812:5846   */\n          tag_39\n          jump\t// in\n        tag_117:\n            /* \"#utility.yul\":5794:5847   */\n          tag_38\n          jump\t// in\n        tag_116:\n            /* \"#utility.yul\":5781:5847   */\n          swap1\n          pop\n            /* \"#utility.yul\":5711:5853   */\n          swap2\n          swap1\n          pop\n          jump\t// out\n            /* \"#utility.yul\":5859:5934   */\n        tag_41:\n            /* \"#utility.yul\":5902:5905   */\n          0x00\n            /* \"#utility.yul\":5923:5928   */\n          dup2\n            /* \"#utility.yul\":5916:5928   */\n          swap1\n          pop\n            /* \"#utility.yul\":5859:5934   */\n          swap2\n          swap1\n          pop\n          jump\t// out\n            /* \"#utility.yul\":5940:6209   */\n        tag_42:\n            /* \"#utility.yul\":6050:6089   */\n          tag_121\n            /* \"#utility.yul\":6081:6088   */\n          dup4\n            /* \"#utility.yul\":6050:6089   */\n          tag_40\n          jump\t// in\n        tag_121:\n            /* \"#utility.yul\":6111:6202   */\n          tag_122\n            /* \"#utility.yul\":6160:6201   */\n          tag_123\n            /* \"#utility.yul\":6184:6200   */\n          dup3\n            /* \"#utility.yul\":6160:6201   */\n          tag_41\n          jump\t// in\n        tag_123:\n            /* \"#utility.yul\":6152:6158   */\n          dup5\n            /* \"#utility.yul\":6145:6149   */\n          dup5\n            /* \"#utility.yul\":6139:6150   */\n          sload\n            /* \"#utility.yul\":6111:6202   */\n          tag_37\n          jump\t// in\n        tag_122:\n            /* \"#utility.yul\":6105:6109   */\n          dup3\n            /* \"#utility.yul\":6098:6203   */\n          sstore\n            /* \"#utility.yul\":6016:6209   */\n          pop\n            /* \"#utility.yul\":5940:6209   */\n          pop\n          pop\n          pop\n          jump\t// out\n            /* \"#utility.yul\":6215:6288   */\n        tag_43:\n            /* \"#utility.yul\":6260:6263   */\n          0x00\n            /* \"#utility.yul\":6215:6288   */\n          swap1\n          jump\t// out\n            /* \"#utility.yul\":6294:6483   */\n        tag_44:\n            /* \"#utility.yul\":6371:6403   */\n          tag_126\n          tag_43\n          jump\t// in\n        tag_126:\n            /* \"#utility.yul\":6412:6477   */\n          tag_127\n            /* \"#utility.yul\":6470:6476   */\n          dup2\n            /* \"#utility.yul\":6462:6468   */\n          dup5\n            /* \"#utility.yul\":6456:6460   */\n          dup5\n            /* \"#utility.yul\":6412:6477   */\n          tag_42\n          jump\t// in\n        tag_127:\n            /* \"#utility.yul\":6347:6483   */\n          pop\n            /* \"#utility.yul\":6294:6483   */\n          pop\n          pop\n          jump\t// out\n            /* \"#utility.yul\":6489:6675   */\n        tag_45:\n            /* \"#utility.yul\":6549:6669   */\n        tag_129:\n            /* \"#utility.yul\":6566:6569   */\n          dup2\n            /* \"#utility.yul\":6559:6564   */\n          dup2\n            /* \"#utility.yul\":6556:6570   */\n          lt\n            /* \"#utility.yul\":6549:6669   */\n          iszero\n          tag_131\n          jumpi\n            /* \"#utility.yul\":6620:6659   */\n          tag_132\n            /* \"#utility.yul\":6657:6658   */\n          0x00\n            /* \"#utility.yul\":6650:6655   */\n          dup3\n            /* \"#utility.yul\":6620:6659   */\n          tag_44\n          jump\t// in\n        tag_132:\n            /* \"#utility.yul\":6593:6594   */\n          0x01\n            /* \"#utility.yul\":6586:6591   */\n          dup2\n            /* \"#utility.yul\":6582:6595   */\n          add\n            /* \"#utility.yul\":6573:6595   */\n          swap1\n          pop\n            /* \"#utility.yul\":6549:6669   */\n          jump(tag_129)\n        tag_131:\n            /* \"#utility.yul\":6489:6675   */\n          pop\n          pop\n          jump\t// out\n            /* \"#utility.yul\":6681:7224   */\n        tag_46:\n            /* \"#utility.yul\":6782:6784   */\n          0x1f\n            /* \"#utility.yul\":6777:6780   */\n          dup3\n            /* \"#utility.yul\":6774:6785   */\n          gt\n            /* \"#utility.yul\":6771:7217   */\n          iszero\n          tag_134\n          jumpi\n            /* \"#utility.yul\":6816:6854   */\n          tag_135\n            /* \"#utility.yul\":6848:6853   */\n          dup2\n            /* \"#utility.yul\":6816:6854   */\n          tag_34\n          jump\t// in\n        tag_135:\n            /* \"#utility.yul\":6900:6929   */\n          tag_136\n            /* \"#utility.yul\":6918:6928   */\n          dup5\n            /* \"#utility.yul\":6900:6929   */\n          tag_35\n          jump\t// in\n        tag_136:\n            /* \"#utility.yul\":6890:6898   */\n          dup2\n            /* \"#utility.yul\":6886:6930   */\n          add\n            /* \"#utility.yul\":7083:7085   */\n          0x20\n            /* \"#utility.yul\":7071:7081   */\n          dup6\n            /* \"#utility.yul\":7068:7086   */\n          lt\n            /* \"#utility.yul\":7065:7114   */\n          iszero\n          tag_137\n          jumpi\n            /* \"#utility.yul\":7104:7112   */\n          dup2\n            /* \"#utility.yul\":7089:7112   */\n          swap1\n          pop\n            /* \"#utility.yul\":7065:7114   */\n        tag_137:\n            /* \"#utility.yul\":7127:7207   */\n          tag_138\n            /* \"#utility.yul\":7183:7205   */\n          tag_139\n            /* \"#utility.yul\":7201:7204   */\n          dup6\n            /* \"#utility.yul\":7183:7205   */\n          tag_35\n          jump\t// in\n        tag_139:\n            /* \"#utility.yul\":7173:7181   */\n          dup4\n            /* \"#utility.yul\":7169:7206   */\n          add\n            /* \"#utility.yul\":7156:7167   */\n          dup3\n            /* \"#utility.yul\":7127:7207   */\n          tag_45\n          jump\t// in\n        tag_138:\n            /* \"#utility.yul\":6786:7217   */\n          pop\n          pop\n            /* \"#utility.yul\":6771:7217   */\n        tag_134:\n            /* \"#utility.yul\":6681:7224   */\n          pop\n          pop\n          pop\n          jump\t// out\n            /* \"#utility.yul\":7230:7347   */\n        tag_47:\n            /* \"#utility.yul\":7284:7292   */\n          0x00\n            /* \"#utility.yul\":7334:7339   */\n          dup3\n            /* \"#utility.yul\":7328:7332   */\n          dup3\n            /* \"#utility.yul\":7324:7340   */\n          shr\n            /* \"#utility.yul\":7303:7340   */\n          swap1\n          pop\n            /* \"#utility.yul\":7230:7347   */\n          swap3\n          swap2\n          pop\n          pop\n          jump\t// out\n            /* \"#utility.yul\":7353:7522   */\n        tag_48:\n            /* \"#utility.yul\":7397:7403   */\n          0x00\n            /* \"#utility.yul\":7430:7481   */\n          tag_142\n            /* \"#utility.yul\":7478:7479   */\n          0x00\n            /* \"#utility.yul\":7474:7480   */\n          not\n            /* \"#utility.yul\":7466:7471   */\n          dup5\n            /* \"#utility.yul\":7463:7464   */\n          0x08\n            /* \"#utility.yul\":7459:7472   */\n          mul\n            /* \"#utility.yul\":7430:7481   */\n          tag_47\n          jump\t// in\n        tag_142:\n            /* \"#utility.yul\":7426:7482   */\n          not\n            /* \"#utility.yul\":7511:7515   */\n          dup1\n            /* \"#utility.yul\":7505:7509   */\n          dup4\n            /* \"#utility.yul\":7501:7516   */\n          and\n            /* \"#utility.yul\":7491:7516   */\n          swap2\n          pop\n            /* \"#utility.yul\":7404:7522   */\n          pop\n            /* \"#utility.yul\":7353:7522   */\n          swap3\n          swap2\n          pop\n          pop\n          jump\t// out\n            /* \"#utility.yul\":7527:7822   */\n        tag_49:\n            /* \"#utility.yul\":7603:7607   */\n          0x00\n            /* \"#utility.yul\":7749:7778   */\n          tag_144\n            /* \"#utility.yul\":7774:7777   */\n          dup4\n            /* \"#utility.yul\":7768:7772   */\n          dup4\n            /* \"#utility.yul\":7749:7778   */\n          tag_48\n          jump\t// in\n        tag_144:\n            /* \"#utility.yul\":7741:7778   */\n          swap2\n          pop\n            /* \"#utility.yul\":7811:7814   */\n          dup3\n            /* \"#utility.yul\":7808:7809   */\n          0x02\n            /* \"#utility.yul\":7804:7815   */\n          mul\n            /* \"#utility.yul\":7798:7802   */\n          dup3\n            /* \"#utility.yul\":7795:7816   */\n          or\n            /* \"#utility.yul\":7787:7816   */\n          swap1\n          pop\n            /* \"#utility.yul\":7527:7822   */\n          swap3\n          swap2\n          pop\n          pop\n          jump\t// out\n            /* \"#utility.yul\":7827:9222   */\n        tag_7:\n            /* \"#utility.yul\":7944:7981   */\n          tag_146\n            /* \"#utility.yul\":7977:7980   */\n          dup3\n            /* \"#utility.yul\":7944:7981   */\n          tag_31\n          jump\t// in\n        tag_146:\n            /* \"#utility.yul\":8046:8064   */\n          0xffffffffffffffff\n            /* \"#utility.yul\":8038:8044   */\n          dup2\n            /* \"#utility.yul\":8035:8065   */\n          gt\n            /* \"#utility.yul\":8032:8088   */\n          iszero\n          tag_147\n          jumpi\n            /* \"#utility.yul\":8068:8086   */\n          tag_148\n          tag_24\n          jump\t// in\n        tag_148:\n            /* \"#utility.yul\":8032:8088   */\n        tag_147:\n            /* \"#utility.yul\":8112:8150   */\n          tag_149\n            /* \"#utility.yul\":8144:8148   */\n          dup3\n            /* \"#utility.yul\":8138:8149   */\n          sload\n            /* \"#utility.yul\":8112:8150   */\n          tag_33\n          jump\t// in\n        tag_149:\n            /* \"#utility.yul\":8197:8264   */\n          tag_150\n            /* \"#utility.yul\":8257:8263   */\n          dup3\n            /* \"#utility.yul\":8249:8255   */\n          dup3\n            /* \"#utility.yul\":8243:8247   */\n          dup6\n            /* \"#utility.yul\":8197:8264   */\n          tag_46\n          jump\t// in\n        tag_150:\n            /* \"#utility.yul\":8291:8292   */\n          0x00\n            /* \"#utility.yul\":8315:8319   */\n          0x20\n            /* \"#utility.yul\":8302:8319   */\n          swap1\n          pop\n            /* \"#utility.yul\":8347:8349   */\n          0x1f\n            /* \"#utility.yul\":8339:8345   */\n          dup4\n            /* \"#utility.yul\":8336:8350   */\n          gt\n            /* \"#utility.yul\":8364:8365   */\n          0x01\n            /* \"#utility.yul\":8359:8977   */\n          dup2\n          eq\n          tag_152\n          jumpi\n            /* \"#utility.yul\":9021:9022   */\n          0x00\n            /* \"#utility.yul\":9038:9044   */\n          dup5\n            /* \"#utility.yul\":9035:9112   */\n          iszero\n          tag_153\n          jumpi\n            /* \"#utility.yul\":9087:9096   */\n          dup3\n            /* \"#utility.yul\":9082:9085   */\n          dup8\n            /* \"#utility.yul\":9078:9097   */\n          add\n            /* \"#utility.yul\":9072:9098   */\n          mload\n            /* \"#utility.yul\":9063:9098   */\n          swap1\n          pop\n            /* \"#utility.yul\":9035:9112   */\n        tag_153:\n            /* \"#utility.yul\":9138:9205   */\n          tag_154\n            /* \"#utility.yul\":9198:9204   */\n          dup6\n            /* \"#utility.yul\":9191:9196   */\n          dup3\n            /* \"#utility.yul\":9138:9205   */\n          tag_49\n          jump\t// in\n        tag_154:\n            /* \"#utility.yul\":9132:9136   */\n          dup7\n            /* \"#utility.yul\":9125:9206   */\n          sstore\n            /* \"#utility.yul\":8994:9216   */\n          pop\n            /* \"#utility.yul\":8329:9216   */\n          jump(tag_151)\n            /* \"#utility.yul\":8359:8977   */\n        tag_152:\n            /* \"#utility.yul\":8411:8415   */\n          0x1f\n            /* \"#utility.yul\":8407:8416   */\n          not\n            /* \"#utility.yul\":8399:8405   */\n          dup5\n            /* \"#utility.yul\":8395:8417   */\n          and\n            /* \"#utility.yul\":8445:8482   */\n          tag_155\n            /* \"#utility.yul\":8477:8481   */\n          dup7\n            /* \"#utility.yul\":8445:8482   */\n          tag_34\n          jump\t// in\n        tag_155:\n            /* \"#utility.yul\":8504:8505   */\n          0x00\n            /* \"#utility.yul\":8518:8726   */\n        tag_156:\n            /* \"#utility.yul\":8532:8539   */\n          dup3\n            /* \"#utility.yul\":8529:8530   */\n          dup2\n            /* \"#utility.yul\":8526:8540   */\n          lt\n            /* \"#utility.yul\":8518:8726   */\n          iszero\n          tag_158\n          jumpi\n            /* \"#utility.yul\":8611:8620   */\n          dup5\n            /* \"#utility.yul\":8606:8609   */\n          dup10\n            /* \"#utility.yul\":8602:8621   */\n          add\n            /* \"#utility.yul\":8596:8622   */\n          mload\n            /* \"#utility.yul\":8588:8594   */\n          dup3\n            /* \"#utility.yul\":8581:8623   */\n          sstore\n            /* \"#utility.yul\":8662:8663   */\n          0x01\n            /* \"#utility.yul\":8654:8660   */\n          dup3\n            /* \"#utility.yul\":8650:8664   */\n          add\n            /* \"#utility.yul\":8640:8664   */\n          swap2\n          pop\n            /* \"#utility.yul\":8709:8711   */\n          0x20\n            /* \"#utility.yul\":8698:8707   */\n          dup6\n            /* \"#utility.yul\":8694:8712   */\n          add\n            /* \"#utility.yul\":8681:8712   */\n          swap5\n          pop\n            /* \"#utility.yul\":8555:8559   */\n          0x20\n            /* \"#utility.yul\":8552:8553   */\n          dup2\n            /* \"#utility.yul\":8548:8560   */\n          add\n            /* \"#utility.yul\":8543:8560   */\n          swap1\n          pop\n            /* \"#utility.yul\":8518:8726   */\n          jump(tag_156)\n        tag_158:\n            /* \"#utility.yul\":8754:8760   */\n          dup7\n            /* \"#utility.yul\":8745:8752   */\n          dup4\n            /* \"#utility.yul\":8742:8761   */\n          lt\n            /* \"#utility.yul\":8739:8918   */\n          iszero\n          tag_159\n          jumpi\n            /* \"#utility.yul\":8812:8821   */\n          dup5\n            /* \"#utility.yul\":8807:8810   */\n          dup10\n            /* \"#utility.yul\":8803:8822   */\n          add\n            /* \"#utility.yul\":8797:8823   */\n          mload\n            /* \"#utility.yul\":8855:8903   */\n          tag_160\n            /* \"#utility.yul\":8897:8901   */\n          0x1f\n            /* \"#utility.yul\":8889:8895   */\n          dup10\n            /* \"#utility.yul\":8885:8902   */\n          and\n            /* \"#utility.yul\":8874:8883   */\n          dup3\n            /* \"#utility.yul\":8855:8903   */\n          tag_48\n          jump\t// in\n        tag_160:\n            /* \"#utility.yul\":8847:8853   */\n          dup4\n            /* \"#utility.yul\":8840:8904   */\n          sstore\n            /* \"#utility.yul\":8762:8918   */\n          pop\n            /* \"#utility.yul\":8739:8918   */\n        tag_159:\n            /* \"#utility.yul\":8964:8965   */\n          0x01\n            /* \"#utility.yul\":8960:8961   */\n          0x02\n            /* \"#utility.yul\":8952:8958   */\n          dup9\n            /* \"#utility.yul\":8948:8962   */\n          mul\n            /* \"#utility.yul\":8944:8966   */\n          add\n            /* \"#utility.yul\":8938:8942   */\n          dup9\n            /* \"#utility.yul\":8931:8967   */\n          sstore\n            /* \"#utility.yul\":8366:8977   */\n          pop\n          pop\n          pop\n            /* \"#utility.yul\":8329:9216   */\n        tag_151:\n          pop\n            /* \"#utility.yul\":7919:9222   */\n          pop\n          pop\n          pop\n            /* \"#utility.yul\":7827:9222   */\n          pop\n          pop\n          jump\t// out\n            /* \"#utility.yul\":9228:9408   */\n        tag_10:\n            /* \"#utility.yul\":9276:9353   */\n          0x4e487b7100000000000000000000000000000000000000000000000000000000\n            /* \"#utility.yul\":9273:9274   */\n          0x00\n            /* \"#utility.yul\":9266:9354   */\n          mstore\n            /* \"#utility.yul\":9373:9377   */\n          0x21\n            /* \"#utility.yul\":9370:9371   */\n          0x04\n            /* \"#utility.yul\":9363:9378   */\n          mstore\n            /* \"#utility.yul\":9397:9401   */\n          0x24\n            /* \"#utility.yul\":9394:9395   */\n          0x00\n            /* \"#utility.yul\":9387:9402   */\n          revert\n            /* \"#utility.yul\":9414:9594   */\n        tag_50:\n            /* \"#utility.yul\":9462:9539   */\n          0x4e487b7100000000000000000000000000000000000000000000000000000000\n            /* \"#utility.yul\":9459:9460   */\n          0x00\n            /* \"#utility.yul\":9452:9540   */\n          mstore\n            /* \"#utility.yul\":9559:9563   */\n          0x11\n            /* \"#utility.yul\":9556:9557   */\n          0x04\n            /* \"#utility.yul\":9549:9564   */\n          mstore\n            /* \"#utility.yul\":9583:9587   */\n          0x24\n            /* \"#utility.yul\":9580:9581   */\n          0x00\n            /* \"#utility.yul\":9573:9588   */\n          revert\n            /* \"#utility.yul\":9600:9791   */\n        tag_12:\n            /* \"#utility.yul\":9640:9643   */\n          0x00\n            /* \"#utility.yul\":9659:9679   */\n          tag_164\n            /* \"#utility.yul\":9677:9678   */\n          dup3\n            /* \"#utility.yul\":9659:9679   */\n          tag_38\n          jump\t// in\n        tag_164:\n            /* \"#utility.yul\":9654:9679   */\n          swap2\n          pop\n            /* \"#utility.yul\":9693:9713   */\n          tag_165\n            /* \"#utility.yul\":9711:9712   */\n          dup4\n            /* \"#utility.yul\":9693:9713   */\n          tag_38\n          jump\t// in\n        tag_165:\n            /* \"#utility.yul\":9688:9713   */\n          swap3\n          pop\n            /* \"#utility.yul\":9736:9737   */\n          dup3\n            /* \"#utility.yul\":9733:9734   */\n          dup3\n            /* \"#utility.yul\":9729:9738   */\n          add\n            /* \"#utility.yul\":9722:9738   */\n          swap1\n          pop\n            /* \"#utility.yul\":9757:9760   */\n          dup1\n            /* \"#utility.yul\":9754:9755   */\n          dup3\n            /* \"#utility.yul\":9751:9761   */\n          gt\n            /* \"#utility.yul\":9748:9784   */\n          iszero\n          tag_166\n          jumpi\n            /* \"#utility.yul\":9764:9782   */\n          tag_167\n          tag_50\n          jump\t// in\n        tag_167:\n            /* \"#utility.yul\":9748:9784   */\n        tag_166:\n            /* \"#utility.yul\":9600:9791   */\n          swap3\n          swap2\n          pop\n          pop\n          jump\t// out\n            /* \"Proposal.sol\":160:5423  contract Proposal {... */\n        tag_13:\n          mload(0x80)\n          mload(0xa0)\n          mload(0xc0)\n          codecopy(0x00, dataOffset(sub_0), dataSize(sub_0))\n          0x00\n          assignImmutable(\"0x50484705e80d29cb32092aee26c8e71455f5e23ce32b6a834d63bac1188d1cc4\")\n          0x00\n          assignImmutable(\"0x295f692facdd7703cc7c2de37da5252cf3ca5df5d23a33e073aaab74e56d8ec3\")\n          0x00\n          assignImmutable(\"0xf3c94672c9097e8255317de36dd0d00a9f72d57eeb896861f583a1140be6889a\")\n          return(0x00, dataSize(sub_0))\n        stop\n\n        sub_0: assembly {\n                /* \"Proposal.sol\":160:5423  contract Proposal {... */\n              mstore(0x40, 0x80)\n              jumpi(tag_1, lt(calldatasize, 0x04))\n              shr(0xe0, calldataload(0x00))\n              dup1\n              0x6eaef9a9\n              gt\n              tag_25\n              jumpi\n              dup1\n              0xb81c78ec\n              gt\n              tag_26\n              jumpi\n              dup1\n              0xb81c78ec\n              eq\n              tag_19\n              jumpi\n              dup1\n              0xb81ccbf8\n              eq\n              tag_20\n              jumpi\n              dup1\n              0xbe58196b\n              eq\n              tag_21\n              jumpi\n              dup1\n              0xc7b96dba\n              eq\n              tag_22\n              jumpi\n              dup1\n              0xcff29dfd\n              eq\n              tag_23\n              jumpi\n              dup1\n              0xd7bb99ba\n              eq\n              tag_24\n              jumpi\n              jump(tag_1)\n            tag_26:\n              dup1\n              0x6eaef9a9\n              eq\n              tag_13\n              jumpi\n              dup1\n              0x85758c27\n              eq\n              tag_14\n              jumpi\n              dup1\n              0x8890ed09\n              eq\n              tag_15\n              jumpi\n              dup1\n              0x8af9fe3f\n              eq\n              tag_16\n              jumpi\n              dup1\n              0xb69ef8a8\n              eq\n              tag_17\n              jumpi\n              dup1\n              0xb6abba9c\n              eq\n              tag_18\n              jumpi\n              jump(tag_1)\n            tag_25:\n              dup1\n              0x3dada5e1\n              gt\n              tag_27\n              jumpi\n              dup1\n              0x3dada5e1\n              eq\n              tag_7\n              jumpi\n              dup1\n              0x40eedabb\n              eq\n              tag_8\n              jumpi\n              dup1\n              0x4b21bac7\n              eq\n              tag_9\n              jumpi\n              dup1\n              0x590e1ae3\n              eq\n              tag_10\n              jumpi\n              dup1\n              0x5f38a27e\n              eq\n              tag_11\n              jumpi\n              dup1\n              0x6a3aa8e3\n              eq\n              tag_12\n              jumpi\n              jump(tag_1)\n            tag_27:\n              dup1\n              0x12dcffe5\n              eq\n              tag_2\n              jumpi\n              dup1\n              0x1d0d35f5\n              eq\n              tag_3\n              jumpi\n              dup1\n              0x1f741c7a\n              eq\n              tag_4\n              jumpi\n              dup1\n              0x20c414bf\n              eq\n              tag_5\n              jumpi\n              dup1\n              0x222268be\n              eq\n              tag_6\n              jumpi\n            tag_1:\n              0x00\n              dup1\n              revert\n                /* \"Proposal.sol\":3646:3751  function getVotesForBid(address id) public view returns (uint256) {... */\n            tag_2:\n              callvalue\n              dup1\n              iszero\n              tag_28\n              jumpi\n              0x00\n              dup1\n              revert\n            tag_28:\n              pop\n              tag_29\n              0x04\n              dup1\n              calldatasize\n              sub\n              dup2\n              add\n              swap1\n              tag_30\n              swap2\n              swap1\n              tag_31\n              jump\t// in\n            tag_30:\n              tag_32\n              jump\t// in\n            tag_29:\n              mload(0x40)\n              tag_33\n              swap2\n              swap1\n              tag_34\n              jump\t// in\n            tag_33:\n              mload(0x40)\n              dup1\n              swap2\n              sub\n              swap1\n              return\n                /* \"Proposal.sol\":2095:2205  function isContributor(address id) public view returns (bool) {... */\n            tag_3:\n              callvalue\n              dup1\n              iszero\n              tag_35\n              jumpi\n              0x00\n              dup1\n              revert\n            tag_35:\n              pop\n              tag_36\n              0x04\n              dup1\n              calldatasize\n              sub\n              dup2\n              add\n              swap1\n              tag_37\n              swap2\n              swap1\n              tag_31\n              jump\t// in\n            tag_37:\n              tag_38\n              jump\t// in\n            tag_36:\n              mload(0x40)\n              tag_39\n              swap2\n              swap1\n              tag_40\n              jump\t// in\n            tag_39:\n              mload(0x40)\n              dup1\n              swap2\n              sub\n              swap1\n              return\n                /* \"Proposal.sol\":913:939  uint256 public dateCreated */\n            tag_4:\n              callvalue\n              dup1\n              iszero\n              tag_41\n              jumpi\n              0x00\n              dup1\n              revert\n            tag_41:\n              pop\n              tag_42\n              tag_43\n              jump\t// in\n            tag_42:\n              mload(0x40)\n              tag_44\n              swap2\n              swap1\n              tag_34\n              jump\t// in\n            tag_44:\n              mload(0x40)\n              dup1\n              swap2\n              sub\n              swap1\n              return\n                /* \"Proposal.sol\":1069:1105  bool public leaderIsEligible = false */\n            tag_5:\n              callvalue\n              dup1\n              iszero\n              tag_45\n              jumpi\n              0x00\n              dup1\n              revert\n            tag_45:\n              pop\n              tag_46\n              tag_47\n              jump\t// in\n            tag_46:\n              mload(0x40)\n              tag_48\n              swap2\n              swap1\n              tag_40\n              jump\t// in\n            tag_48:\n              mload(0x40)\n              dup1\n              swap2\n              sub\n              swap1\n              return\n                /* \"Proposal.sol\":4903:5092  function haltCampaign() public {... */\n            tag_6:\n              callvalue\n              dup1\n              iszero\n              tag_49\n              jumpi\n              0x00\n              dup1\n              revert\n            tag_49:\n              pop\n              tag_50\n              tag_51\n              jump\t// in\n            tag_50:\n              stop\n                /* \"Proposal.sol\":2925:3085  function getBidDescription(address bidder)... */\n            tag_7:\n              callvalue\n              dup1\n              iszero\n              tag_52\n              jumpi\n              0x00\n              dup1\n              revert\n            tag_52:\n              pop\n              tag_53\n              0x04\n              dup1\n              calldatasize\n              sub\n              dup2\n              add\n              swap1\n              tag_54\n              swap2\n              swap1\n              tag_31\n              jump\t// in\n            tag_54:\n              tag_55\n              jump\t// in\n            tag_53:\n              mload(0x40)\n              tag_56\n              swap2\n              swap1\n              tag_57\n              jump\t// in\n            tag_56:\n              mload(0x40)\n              dup1\n              swap2\n              sub\n              swap1\n              return\n                /* \"Proposal.sol\":1176:1197  address public leader */\n            tag_8:\n              callvalue\n              dup1\n              iszero\n              tag_58\n              jumpi\n              0x00\n              dup1\n              revert\n            tag_58:\n              pop\n              tag_59\n              tag_60\n              jump\t// in\n            tag_59:\n              mload(0x40)\n              tag_61\n              swap2\n              swap1\n              tag_62\n              jump\t// in\n            tag_61:\n              mload(0x40)\n              dup1\n              swap2\n              sub\n              swap1\n              return\n                /* \"Proposal.sol\":684:716  string public initialDescription */\n            tag_9:\n              callvalue\n              dup1\n              iszero\n              tag_63\n              jumpi\n              0x00\n              dup1\n              revert\n            tag_63:\n              pop\n              tag_64\n              tag_65\n              jump\t// in\n            tag_64:\n              mload(0x40)\n              tag_66\n              swap2\n              swap1\n              tag_57\n              jump\t// in\n            tag_66:\n              mload(0x40)\n              dup1\n              swap2\n              sub\n              swap1\n              return\n                /* \"Proposal.sol\":5100:5420  function refund() public payable {... */\n            tag_10:\n              tag_67\n              tag_68\n              jump\t// in\n            tag_67:\n              stop\n                /* \"Proposal.sol\":1024:1060  uint32 public voteCountThreshold = 3 */\n            tag_11:\n              callvalue\n              dup1\n              iszero\n              tag_69\n              jumpi\n              0x00\n              dup1\n              revert\n            tag_69:\n              pop\n              tag_70\n              tag_71\n              jump\t// in\n            tag_70:\n              mload(0x40)\n              tag_72\n              swap2\n              swap1\n              tag_73\n              jump\t// in\n            tag_72:\n              mload(0x40)\n              dup1\n              swap2\n              sub\n              swap1\n              return\n                /* \"Proposal.sol\":4661:4895  function withdrawalFunds() public payable {... */\n            tag_12:\n              tag_74\n              tag_75\n              jump\t// in\n            tag_74:\n              stop\n                /* \"Proposal.sol\":3093:3638  function voteOnBid(address payable id) public {... */\n            tag_13:\n              callvalue\n              dup1\n              iszero\n              tag_76\n              jumpi\n              0x00\n              dup1\n              revert\n            tag_76:\n              pop\n              tag_77\n              0x04\n              dup1\n              calldatasize\n              sub\n              dup2\n              add\n              swap1\n              tag_78\n              swap2\n              swap1\n              tag_79\n              jump\t// in\n            tag_78:\n              tag_80\n              jump\t// in\n            tag_77:\n              stop\n                /* \"Proposal.sol\":3759:3866  function getAmountForBid(address id) public view returns (uint256) {... */\n            tag_14:\n              callvalue\n              dup1\n              iszero\n              tag_81\n              jumpi\n              0x00\n              dup1\n              revert\n            tag_81:\n              pop\n              tag_82\n              0x04\n              dup1\n              calldatasize\n              sub\n              dup2\n              add\n              swap1\n              tag_83\n              swap2\n              swap1\n              tag_31\n              jump\t// in\n            tag_83:\n              tag_84\n              jump\t// in\n            tag_82:\n              mload(0x40)\n              tag_85\n              swap2\n              swap1\n              tag_34\n              jump\t// in\n            tag_85:\n              mload(0x40)\n              dup1\n              swap2\n              sub\n              swap1\n              return\n                /* \"Proposal.sol\":1204:1232  address public winningBidder */\n            tag_15:\n              callvalue\n              dup1\n              iszero\n              tag_86\n              jumpi\n              0x00\n              dup1\n              revert\n            tag_86:\n              pop\n              tag_87\n              tag_88\n              jump\t// in\n            tag_87:\n              mload(0x40)\n              tag_89\n              swap2\n              swap1\n              tag_62\n              jump\t// in\n            tag_89:\n              mload(0x40)\n              dup1\n              swap2\n              sub\n              swap1\n              return\n                /* \"Proposal.sol\":725:759  ProposalState public proposalState */\n            tag_16:\n              callvalue\n              dup1\n              iszero\n              tag_90\n              jumpi\n              0x00\n              dup1\n              revert\n            tag_90:\n              pop\n              tag_91\n              tag_92\n              jump\t// in\n            tag_91:\n              mload(0x40)\n              tag_93\n              swap2\n              swap1\n              tag_94\n              jump\t// in\n            tag_93:\n              mload(0x40)\n              dup1\n              swap2\n              sub\n              swap1\n              return\n                /* \"Proposal.sol\":543:565  uint256 public balance */\n            tag_17:\n              callvalue\n              dup1\n              iszero\n              tag_95\n              jumpi\n              0x00\n              dup1\n              revert\n            tag_95:\n              pop\n              tag_96\n              tag_97\n              jump\t// in\n            tag_96:\n              mload(0x40)\n              tag_98\n              swap2\n              swap1\n              tag_34\n              jump\t// in\n            tag_98:\n              mload(0x40)\n              dup1\n              swap2\n              sub\n              swap1\n              return\n                /* \"Proposal.sol\":946:981  uint32 public voteBufferSeconds = 0 */\n            tag_18:\n              callvalue\n              dup1\n              iszero\n              tag_99\n              jumpi\n              0x00\n              dup1\n              revert\n            tag_99:\n              pop\n              tag_100\n              tag_101\n              jump\t// in\n            tag_100:\n              mload(0x40)\n              tag_102\n              swap2\n              swap1\n              tag_73\n              jump\t// in\n            tag_102:\n              mload(0x40)\n              dup1\n              swap2\n              sub\n              swap1\n              return\n                /* \"Proposal.sol\":2826:2917  function getBids() public view returns (address[] memory) {... */\n            tag_19:\n              callvalue\n              dup1\n              iszero\n              tag_103\n              jumpi\n              0x00\n              dup1\n              revert\n            tag_103:\n              pop\n              tag_104\n              tag_105\n              jump\t// in\n            tag_104:\n              mload(0x40)\n              tag_106\n              swap2\n              swap1\n              tag_107\n              jump\t// in\n            tag_106:\n              mload(0x40)\n              dup1\n              swap2\n              sub\n              swap1\n              return\n                /* \"Proposal.sol\":988:1017  uint256 public voteBufferDate */\n            tag_20:\n              callvalue\n              dup1\n              iszero\n              tag_108\n              jumpi\n              0x00\n              dup1\n              revert\n            tag_108:\n              pop\n              tag_109\n              tag_110\n              jump\t// in\n            tag_109:\n              mload(0x40)\n              tag_111\n              swap2\n              swap1\n              tag_34\n              jump\t// in\n            tag_111:\n              mload(0x40)\n              dup1\n              swap2\n              sub\n              swap1\n              return\n                /* \"Proposal.sol\":2213:2818  function submitBid(string memory descriptionSet, uint256 amountNeeded)... */\n            tag_21:\n              callvalue\n              dup1\n              iszero\n              tag_112\n              jumpi\n              0x00\n              dup1\n              revert\n            tag_112:\n              pop\n              tag_113\n              0x04\n              dup1\n              calldatasize\n              sub\n              dup2\n              add\n              swap1\n              tag_114\n              swap2\n              swap1\n              tag_115\n              jump\t// in\n            tag_114:\n              tag_116\n              jump\t// in\n            tag_113:\n              stop\n                /* \"Proposal.sol\":3874:4653  function createProject() public {... */\n            tag_22:\n              callvalue\n              dup1\n              iszero\n              tag_117\n              jumpi\n              0x00\n              dup1\n              revert\n            tag_117:\n              pop\n              tag_118\n              tag_119\n              jump\t// in\n            tag_118:\n              stop\n                /* \"Proposal.sol\":1145:1169  address[] public bidders */\n            tag_23:\n              callvalue\n              dup1\n              iszero\n              tag_120\n              jumpi\n              0x00\n              dup1\n              revert\n            tag_120:\n              pop\n              tag_121\n              0x04\n              dup1\n              calldatasize\n              sub\n              dup2\n              add\n              swap1\n              tag_122\n              swap2\n              swap1\n              tag_123\n              jump\t// in\n            tag_122:\n              tag_124\n              jump\t// in\n            tag_121:\n              mload(0x40)\n              tag_125\n              swap2\n              swap1\n              tag_62\n              jump\t// in\n            tag_125:\n              mload(0x40)\n              dup1\n              swap2\n              sub\n              swap1\n              return\n                /* \"Proposal.sol\":1783:2087  function contribute() public payable {... */\n            tag_24:\n              tag_126\n              tag_127\n              jump\t// in\n            tag_126:\n              stop\n                /* \"Proposal.sol\":3646:3751  function getVotesForBid(address id) public view returns (uint256) {... */\n            tag_32:\n                /* \"Proposal.sol\":3703:3710  uint256 */\n              0x00\n                /* \"Proposal.sol\":3730:3739  voteCount */\n              0x0d\n                /* \"Proposal.sol\":3730:3743  voteCount[id] */\n              0x00\n                /* \"Proposal.sol\":3740:3742  id */\n              dup4\n                /* \"Proposal.sol\":3730:3743  voteCount[id] */\n              0xffffffffffffffffffffffffffffffffffffffff\n              and\n              0xffffffffffffffffffffffffffffffffffffffff\n              and\n              dup2\n              mstore\n              0x20\n              add\n              swap1\n              dup2\n              mstore\n              0x20\n              add\n              0x00\n              keccak256\n              sload\n                /* \"Proposal.sol\":3723:3743  return voteCount[id] */\n              swap1\n              pop\n                /* \"Proposal.sol\":3646:3751  function getVotesForBid(address id) public view returns (uint256) {... */\n              swap2\n              swap1\n              pop\n              jump\t// out\n                /* \"Proposal.sol\":2095:2205  function isContributor(address id) public view returns (bool) {... */\n            tag_38:\n                /* \"Proposal.sol\":2151:2155  bool */\n              0x00\n                /* \"Proposal.sol\":2195:2196  0 */\n              dup1\n                /* \"Proposal.sol\":2176:2188  contributors */\n              0x03\n                /* \"Proposal.sol\":2176:2192  contributors[id] */\n              0x00\n                /* \"Proposal.sol\":2189:2191  id */\n              dup5\n                /* \"Proposal.sol\":2176:2192  contributors[id] */\n              0xffffffffffffffffffffffffffffffffffffffff\n              and\n              0xffffffffffffffffffffffffffffffffffffffff\n              and\n              dup2\n              mstore\n              0x20\n              add\n              swap1\n              dup2\n              mstore\n              0x20\n              add\n              0x00\n              keccak256\n              sload\n                /* \"Proposal.sol\":2176:2196  contributors[id] > 0 */\n              gt\n                /* \"Proposal.sol\":2168:2197  return (contributors[id] > 0) */\n              swap1\n              pop\n                /* \"Proposal.sol\":2095:2205  function isContributor(address id) public view returns (bool) {... */\n              swap2\n              swap1\n              pop\n              jump\t// out\n                /* \"Proposal.sol\":913:939  uint256 public dateCreated */\n            tag_43:\n              sload(0x06)\n              dup2\n              jump\t// out\n                /* \"Proposal.sol\":1069:1105  bool public leaderIsEligible = false */\n            tag_47:\n              0x09\n              0x04\n              swap1\n              sload\n              swap1\n              0x0100\n              exp\n              swap1\n              div\n              0xff\n              and\n              dup2\n              jump\t// out\n                /* \"Proposal.sol\":4903:5092  function haltCampaign() public {... */\n            tag_51:\n                /* \"Proposal.sol\":4967:4980  winningBidder */\n              0x0c\n              0x00\n              swap1\n              sload\n              swap1\n              0x0100\n              exp\n              swap1\n              div\n              0xffffffffffffffffffffffffffffffffffffffff\n              and\n                /* \"Proposal.sol\":4953:4980  msg.sender == winningBidder */\n              0xffffffffffffffffffffffffffffffffffffffff\n              and\n                /* \"Proposal.sol\":4953:4963  msg.sender */\n              caller\n                /* \"Proposal.sol\":4953:4980  msg.sender == winningBidder */\n              0xffffffffffffffffffffffffffffffffffffffff\n              and\n              eq\n                /* \"Proposal.sol\":4953:5005  msg.sender == winningBidder || msg.sender == creator */\n              dup1\n              tag_131\n              jumpi\n              pop\n                /* \"Proposal.sol\":4998:5005  creator */\n              immutable(\"0xf3c94672c9097e8255317de36dd0d00a9f72d57eeb896861f583a1140be6889a\")\n                /* \"Proposal.sol\":4984:5005  msg.sender == creator */\n              0xffffffffffffffffffffffffffffffffffffffff\n              and\n                /* \"Proposal.sol\":4984:4994  msg.sender */\n              caller\n                /* \"Proposal.sol\":4984:5005  msg.sender == creator */\n              0xffffffffffffffffffffffffffffffffffffffff\n              and\n              eq\n                /* \"Proposal.sol\":4953:5005  msg.sender == winningBidder || msg.sender == creator */\n            tag_131:\n                /* \"Proposal.sol\":4945:5006  require(msg.sender == winningBidder || msg.sender == creator) */\n              tag_132\n              jumpi\n              0x00\n              dup1\n              revert\n            tag_132:\n                /* \"Proposal.sol\":5033:5053  ProposalState.HALTED */\n              0x03\n                /* \"Proposal.sol\":5017:5030  proposalState */\n              0x02\n              0x00\n                /* \"Proposal.sol\":5017:5053  proposalState = ProposalState.HALTED */\n              0x0100\n              exp\n              dup2\n              sload\n              dup2\n              0xff\n              mul\n              not\n              and\n              swap1\n              dup4\n              0x03\n              dup2\n              gt\n              iszero\n              tag_133\n              jumpi\n              tag_134\n              tag_135\n              jump\t// in\n            tag_134:\n            tag_133:\n              mul\n              or\n              swap1\n              sstore\n              pop\n                /* \"Proposal.sol\":5069:5084  ProjectHalted() */\n              0xaa0bd7cd99bfeb112d24bcaee2e5d057407eb13494c8a5ceef53268f772c4d9b\n              mload(0x40)\n              mload(0x40)\n              dup1\n              swap2\n              sub\n              swap1\n              log1\n                /* \"Proposal.sol\":4903:5092  function haltCampaign() public {... */\n              jump\t// out\n                /* \"Proposal.sol\":2925:3085  function getBidDescription(address bidder)... */\n            tag_55:\n                /* \"Proposal.sol\":3016:3029  string memory */\n              0x60\n                /* \"Proposal.sol\":3054:3069  bidDescriptions */\n              0x04\n                /* \"Proposal.sol\":3054:3077  bidDescriptions[bidder] */\n              0x00\n                /* \"Proposal.sol\":3070:3076  bidder */\n              dup4\n                /* \"Proposal.sol\":3054:3077  bidDescriptions[bidder] */\n              0xffffffffffffffffffffffffffffffffffffffff\n              and\n              0xffffffffffffffffffffffffffffffffffffffff\n              and\n              dup2\n              mstore\n              0x20\n              add\n              swap1\n              dup2\n              mstore\n              0x20\n              add\n              0x00\n              keccak256\n                /* \"Proposal.sol\":3047:3077  return bidDescriptions[bidder] */\n              dup1\n              sload\n              tag_137\n              swap1\n              tag_138\n              jump\t// in\n            tag_137:\n              dup1\n              0x1f\n              add\n              0x20\n              dup1\n              swap2\n              div\n              mul\n              0x20\n              add\n              mload(0x40)\n              swap1\n              dup2\n              add\n              0x40\n              mstore\n              dup1\n              swap3\n              swap2\n              swap1\n              dup2\n              dup2\n              mstore\n              0x20\n              add\n              dup3\n              dup1\n              sload\n              tag_139\n              swap1\n              tag_138\n              jump\t// in\n            tag_139:\n              dup1\n              iszero\n              tag_140\n              jumpi\n              dup1\n              0x1f\n              lt\n              tag_141\n              jumpi\n              0x0100\n              dup1\n              dup4\n              sload\n              div\n              mul\n              dup4\n              mstore\n              swap2\n              0x20\n              add\n              swap2\n              jump(tag_140)\n            tag_141:\n              dup3\n              add\n              swap2\n              swap1\n              0x00\n              mstore\n              keccak256(0x00, 0x20)\n              swap1\n            tag_142:\n              dup2\n              sload\n              dup2\n              mstore\n              swap1\n              0x01\n              add\n              swap1\n              0x20\n              add\n              dup1\n              dup4\n              gt\n              tag_142\n              jumpi\n              dup3\n              swap1\n              sub\n              0x1f\n              and\n              dup3\n              add\n              swap2\n            tag_140:\n              pop\n              pop\n              pop\n              pop\n              pop\n              swap1\n              pop\n                /* \"Proposal.sol\":2925:3085  function getBidDescription(address bidder)... */\n              swap2\n              swap1\n              pop\n              jump\t// out\n                /* \"Proposal.sol\":1176:1197  address public leader */\n            tag_60:\n              0x0b\n              0x00\n              swap1\n              sload\n              swap1\n              0x0100\n              exp\n              swap1\n              div\n              0xffffffffffffffffffffffffffffffffffffffff\n              and\n              dup2\n              jump\t// out\n                /* \"Proposal.sol\":684:716  string public initialDescription */\n            tag_65:\n              0x01\n              dup1\n              sload\n              tag_143\n              swap1\n              tag_138\n              jump\t// in\n            tag_143:\n              dup1\n              0x1f\n              add\n              0x20\n              dup1\n              swap2\n              div\n              mul\n              0x20\n              add\n              mload(0x40)\n              swap1\n              dup2\n              add\n              0x40\n              mstore\n              dup1\n              swap3\n              swap2\n              swap1\n              dup2\n              dup2\n              mstore\n              0x20\n              add\n              dup3\n              dup1\n              sload\n              tag_144\n              swap1\n              tag_138\n              jump\t// in\n            tag_144:\n              dup1\n              iszero\n              tag_145\n              jumpi\n              dup1\n              0x1f\n              lt\n              tag_146\n              jumpi\n              0x0100\n              dup1\n              dup4\n              sload\n              div\n              mul\n              dup4\n              mstore\n              swap2\n              0x20\n              add\n              swap2\n              jump(tag_145)\n            tag_146:\n              dup3\n              add\n              swap2\n              swap1\n              0x00\n              mstore\n              keccak256(0x00, 0x20)\n              swap1\n            tag_147:\n              dup2\n              sload\n              dup2\n              mstore\n              swap1\n              0x01\n              add\n              swap1\n              0x20\n              add\n              dup1\n              dup4\n              gt\n              tag_147\n              jumpi\n              dup3\n              swap1\n              sub\n              0x1f\n              and\n              dup3\n              add\n              swap2\n            tag_145:\n              pop\n              pop\n              pop\n              pop\n              pop\n              dup2\n              jump\t// out\n                /* \"Proposal.sol\":5100:5420  function refund() public payable {... */\n            tag_68:\n                /* \"Proposal.sol\":5169:5191  ProposalState.APPROVED */\n              0x02\n                /* \"Proposal.sol\":5152:5191  proposalState != ProposalState.APPROVED */\n              0x03\n              dup2\n              gt\n              iszero\n              tag_149\n              jumpi\n              tag_150\n              tag_135\n              jump\t// in\n            tag_150:\n            tag_149:\n                /* \"Proposal.sol\":5152:5165  proposalState */\n              0x02\n              0x00\n              swap1\n              sload\n              swap1\n              0x0100\n              exp\n              swap1\n              div\n              0xff\n              and\n                /* \"Proposal.sol\":5152:5191  proposalState != ProposalState.APPROVED */\n              0x03\n              dup2\n              gt\n              iszero\n              tag_151\n              jumpi\n              tag_152\n              tag_135\n              jump\t// in\n            tag_152:\n            tag_151:\n              sub\n                /* \"Proposal.sol\":5144:5192  require(proposalState != ProposalState.APPROVED) */\n              tag_153\n              jumpi\n              0x00\n              dup1\n              revert\n            tag_153:\n                /* \"Proposal.sol\":5203:5221  uint256 gweiAmount */\n              0x00\n                /* \"Proposal.sol\":5224:5236  contributors */\n              0x03\n                /* \"Proposal.sol\":5224:5248  contributors[msg.sender] */\n              0x00\n                /* \"Proposal.sol\":5237:5247  msg.sender */\n              caller\n                /* \"Proposal.sol\":5224:5248  contributors[msg.sender] */\n              0xffffffffffffffffffffffffffffffffffffffff\n              and\n              0xffffffffffffffffffffffffffffffffffffffff\n              and\n              dup2\n              mstore\n              0x20\n              add\n              swap1\n              dup2\n              mstore\n              0x20\n              add\n              0x00\n              keccak256\n              sload\n                /* \"Proposal.sol\":5203:5248  uint256 gweiAmount = contributors[msg.sender] */\n              swap1\n              pop\n                /* \"Proposal.sol\":5280:5281  0 */\n              0x00\n                /* \"Proposal.sol\":5267:5277  gweiAmount */\n              dup2\n                /* \"Proposal.sol\":5267:5281  gweiAmount > 0 */\n              gt\n                /* \"Proposal.sol\":5259:5282  require(gweiAmount > 0) */\n              tag_154\n              jumpi\n              0x00\n              dup1\n              revert\n            tag_154:\n                /* \"Proposal.sol\":5301:5311  msg.sender */\n              caller\n                /* \"Proposal.sol\":5293:5321  payable(msg.sender).transfer */\n              0xffffffffffffffffffffffffffffffffffffffff\n              and\n                /* \"Proposal.sol\":5293:5333  payable(msg.sender).transfer(gweiAmount) */\n              0x08fc\n                /* \"Proposal.sol\":5322:5332  gweiAmount */\n              dup3\n                /* \"Proposal.sol\":5293:5333  payable(msg.sender).transfer(gweiAmount) */\n              swap1\n              dup2\n              iszero\n              mul\n              swap1\n              mload(0x40)\n              0x00\n              mload(0x40)\n              dup1\n              dup4\n              sub\n              dup2\n              dup6\n              dup9\n              dup9\n              call\n              swap4\n              pop\n              pop\n              pop\n              pop\n              iszero\n              dup1\n              iszero\n              tag_156\n              jumpi\n              returndatasize\n              0x00\n              dup1\n              returndatacopy\n              revert(0x00, returndatasize)\n            tag_156:\n              pop\n                /* \"Proposal.sol\":5371:5372  0 */\n              0x00\n                /* \"Proposal.sol\":5344:5356  contributors */\n              0x03\n                /* \"Proposal.sol\":5344:5368  contributors[msg.sender] */\n              0x00\n                /* \"Proposal.sol\":5357:5367  msg.sender */\n              caller\n                /* \"Proposal.sol\":5344:5368  contributors[msg.sender] */\n              0xffffffffffffffffffffffffffffffffffffffff\n              and\n              0xffffffffffffffffffffffffffffffffffffffff\n              and\n              dup2\n              mstore\n              0x20\n              add\n              swap1\n              dup2\n              mstore\n              0x20\n              add\n              0x00\n              keccak256\n                /* \"Proposal.sol\":5344:5372  contributors[msg.sender] = 0 */\n              dup2\n              swap1\n              sstore\n              pop\n                /* \"Proposal.sol\":5388:5412  UserRefunded(msg.sender) */\n              0x64a19944946955995bb521fbf068bfd6ba64497e91e11948a97acd706bffb55f\n                /* \"Proposal.sol\":5401:5411  msg.sender */\n              caller\n                /* \"Proposal.sol\":5388:5412  UserRefunded(msg.sender) */\n              mload(0x40)\n              tag_157\n              swap2\n              swap1\n              tag_62\n              jump\t// in\n            tag_157:\n              mload(0x40)\n              dup1\n              swap2\n              sub\n              swap1\n              log1\n                /* \"Proposal.sol\":5133:5420  {... */\n              pop\n                /* \"Proposal.sol\":5100:5420  function refund() public payable {... */\n              jump\t// out\n                /* \"Proposal.sol\":1024:1060  uint32 public voteCountThreshold = 3 */\n            tag_71:\n              0x09\n              0x00\n              swap1\n              sload\n              swap1\n              0x0100\n              exp\n              swap1\n              div\n              0xffffffff\n              and\n              dup2\n              jump\t// out\n                /* \"Proposal.sol\":4661:4895  function withdrawalFunds() public payable {... */\n            tag_75:\n                /* \"Proposal.sol\":4739:4749  msg.sender */\n              caller\n                /* \"Proposal.sol\":4722:4749  winningBidder == msg.sender */\n              0xffffffffffffffffffffffffffffffffffffffff\n              and\n                /* \"Proposal.sol\":4722:4735  winningBidder */\n              0x0c\n              0x00\n              swap1\n              sload\n              swap1\n              0x0100\n              exp\n              swap1\n              div\n              0xffffffffffffffffffffffffffffffffffffffff\n              and\n                /* \"Proposal.sol\":4722:4749  winningBidder == msg.sender */\n              0xffffffffffffffffffffffffffffffffffffffff\n              and\n              eq\n                /* \"Proposal.sol\":4714:4768  require(winningBidder == msg.sender, \"address denied\") */\n              tag_159\n              jumpi\n              mload(0x40)\n              0x08c379a000000000000000000000000000000000000000000000000000000000\n              dup2\n              mstore\n              0x04\n              add\n              tag_160\n              swap1\n              tag_161\n              jump\t// in\n            tag_160:\n              mload(0x40)\n              dup1\n              swap2\n              sub\n              swap1\n              revert\n            tag_159:\n                /* \"Proposal.sol\":4780:4792  bool success */\n              0x00\n                /* \"Proposal.sol\":4798:4811  winningBidder */\n              0x0c\n              0x00\n              swap1\n              sload\n              swap1\n              0x0100\n              exp\n              swap1\n              div\n              0xffffffffffffffffffffffffffffffffffffffff\n              and\n                /* \"Proposal.sol\":4798:4816  winningBidder.call */\n              0xffffffffffffffffffffffffffffffffffffffff\n              and\n                /* \"Proposal.sol\":4824:4831  balance */\n              sload(0x00)\n                /* \"Proposal.sol\":4798:4836  winningBidder.call{value: balance}(\"\") */\n              mload(0x40)\n              tag_162\n              swap1\n              tag_163\n              jump\t// in\n            tag_162:\n              0x00\n              mload(0x40)\n              dup1\n              dup4\n              sub\n              dup2\n              dup6\n              dup8\n              gas\n              call\n              swap3\n              pop\n              pop\n              pop\n              returndatasize\n              dup1\n              0x00\n              dup2\n              eq\n              tag_166\n              jumpi\n              mload(0x40)\n              swap2\n              pop\n              and(add(returndatasize, 0x3f), not(0x1f))\n              dup3\n              add\n              0x40\n              mstore\n              returndatasize\n              dup3\n              mstore\n              returndatasize\n              0x00\n              0x20\n              dup5\n              add\n              returndatacopy\n              jump(tag_165)\n            tag_166:\n              0x60\n              swap2\n              pop\n            tag_165:\n              pop\n                /* \"Proposal.sol\":4779:4836  (bool success, ) = winningBidder.call{value: balance}(\"\") */\n              pop\n              swap1\n              pop\n                /* \"Proposal.sol\":4855:4862  success */\n              dup1\n                /* \"Proposal.sol\":4847:4887  require(success, \"Failed to send Ether\") */\n              tag_167\n              jumpi\n              mload(0x40)\n              0x08c379a000000000000000000000000000000000000000000000000000000000\n              dup2\n              mstore\n              0x04\n              add\n              tag_168\n              swap1\n              tag_169\n              jump\t// in\n            tag_168:\n              mload(0x40)\n              dup1\n              swap2\n              sub\n              swap1\n              revert\n            tag_167:\n                /* \"Proposal.sol\":4703:4895  {... */\n              pop\n                /* \"Proposal.sol\":4661:4895  function withdrawalFunds() public payable {... */\n              jump\t// out\n                /* \"Proposal.sol\":3093:3638  function voteOnBid(address payable id) public {... */\n            tag_80:\n                /* \"Proposal.sol\":3159:3166  didVote */\n              0x0e\n                /* \"Proposal.sol\":3159:3178  didVote[msg.sender] */\n              0x00\n                /* \"Proposal.sol\":3167:3177  msg.sender */\n              caller\n                /* \"Proposal.sol\":3159:3178  didVote[msg.sender] */\n              0xffffffffffffffffffffffffffffffffffffffff\n              and\n              0xffffffffffffffffffffffffffffffffffffffff\n              and\n              dup2\n              mstore\n              0x20\n              add\n              swap1\n              dup2\n              mstore\n              0x20\n              add\n              0x00\n              keccak256\n              0x00\n              swap1\n              sload\n              swap1\n              0x0100\n              exp\n              swap1\n              div\n              0xff\n              and\n                /* \"Proposal.sol\":3158:3178  !didVote[msg.sender] */\n              iszero\n                /* \"Proposal.sol\":3150:3179  require(!didVote[msg.sender]) */\n              tag_171\n              jumpi\n              0x00\n              dup1\n              revert\n            tag_171:\n                /* \"Proposal.sol\":3215:3236  ProposalState.BIDDING */\n              0x00\n                /* \"Proposal.sol\":3198:3236  proposalState == ProposalState.BIDDING */\n              0x03\n              dup2\n              gt\n              iszero\n              tag_172\n              jumpi\n              tag_173\n              tag_135\n              jump\t// in\n            tag_173:\n            tag_172:\n                /* \"Proposal.sol\":3198:3211  proposalState */\n              0x02\n              0x00\n              swap1\n              sload\n              swap1\n              0x0100\n              exp\n              swap1\n              div\n              0xff\n              and\n                /* \"Proposal.sol\":3198:3236  proposalState == ProposalState.BIDDING */\n              0x03\n              dup2\n              gt\n              iszero\n              tag_174\n              jumpi\n              tag_175\n              tag_135\n              jump\t// in\n            tag_175:\n            tag_174:\n              eq\n                /* \"Proposal.sol\":3190:3237  require(proposalState == ProposalState.BIDDING) */\n              tag_176\n              jumpi\n              0x00\n              dup1\n              revert\n            tag_176:\n                /* \"Proposal.sol\":3265:3266  1 */\n              0x01\n                /* \"Proposal.sol\":3248:3257  voteCount */\n              0x0d\n                /* \"Proposal.sol\":3248:3261  voteCount[id] */\n              0x00\n                /* \"Proposal.sol\":3258:3260  id */\n              dup4\n                /* \"Proposal.sol\":3248:3261  voteCount[id] */\n              0xffffffffffffffffffffffffffffffffffffffff\n              and\n              0xffffffffffffffffffffffffffffffffffffffff\n              and\n              dup2\n              mstore\n              0x20\n              add\n              swap1\n              dup2\n              mstore\n              0x20\n              add\n              0x00\n              keccak256\n              0x00\n                /* \"Proposal.sol\":3248:3266  voteCount[id] += 1 */\n              dup3\n              dup3\n              sload\n              tag_177\n              swap2\n              swap1\n              tag_178\n              jump\t// in\n            tag_177:\n              swap3\n              pop\n              pop\n              dup2\n              swap1\n              sstore\n              pop\n                /* \"Proposal.sol\":3277:3290  numberOfVotes */\n              0x09\n              0x05\n                /* \"Proposal.sol\":3277:3292  numberOfVotes++ */\n              dup2\n              dup2\n              swap1\n              sload\n              swap1\n              0x0100\n              exp\n              swap1\n              div\n              0xffffffff\n              and\n              dup1\n              swap3\n              swap2\n              swap1\n              tag_179\n              swap1\n              tag_180\n              jump\t// in\n            tag_179:\n              swap2\n              swap1\n              0x0100\n              exp\n              dup2\n              sload\n              dup2\n              0xffffffff\n              mul\n              not\n              and\n              swap1\n              dup4\n              0xffffffff\n              and\n              mul\n              or\n              swap1\n              sstore\n              pop\n              pop\n                /* \"Proposal.sol\":3325:3329  true */\n              0x01\n                /* \"Proposal.sol\":3303:3310  didVote */\n              0x0e\n                /* \"Proposal.sol\":3303:3322  didVote[msg.sender] */\n              0x00\n                /* \"Proposal.sol\":3311:3321  msg.sender */\n              caller\n                /* \"Proposal.sol\":3303:3322  didVote[msg.sender] */\n              0xffffffffffffffffffffffffffffffffffffffff\n              and\n              0xffffffffffffffffffffffffffffffffffffffff\n              and\n              dup2\n              mstore\n              0x20\n              add\n              swap1\n              dup2\n              mstore\n              0x20\n              add\n              0x00\n              keccak256\n              0x00\n                /* \"Proposal.sol\":3303:3329  didVote[msg.sender] = true */\n              0x0100\n              exp\n              dup2\n              sload\n              dup2\n              0xff\n              mul\n              not\n              and\n              swap1\n              dup4\n              iszero\n              iszero\n              mul\n              or\n              swap1\n              sstore\n              pop\n                /* \"Proposal.sol\":3367:3368  0 */\n              0x00\n                /* \"Proposal.sol\":3346:3355  voteCount */\n              0x0d\n                /* \"Proposal.sol\":3346:3363  voteCount[leader] */\n              0x00\n                /* \"Proposal.sol\":3356:3362  leader */\n              0x0b\n              0x00\n              swap1\n              sload\n              swap1\n              0x0100\n              exp\n              swap1\n              div\n              0xffffffffffffffffffffffffffffffffffffffff\n              and\n                /* \"Proposal.sol\":3346:3363  voteCount[leader] */\n              0xffffffffffffffffffffffffffffffffffffffff\n              and\n              0xffffffffffffffffffffffffffffffffffffffff\n              and\n              dup2\n              mstore\n              0x20\n              add\n              swap1\n              dup2\n              mstore\n              0x20\n              add\n              0x00\n              keccak256\n              sload\n                /* \"Proposal.sol\":3346:3368  voteCount[leader] == 0 */\n              sub\n                /* \"Proposal.sol\":3342:3491  if (voteCount[leader] == 0) {... */\n              tag_181\n              jumpi\n                /* \"Proposal.sol\":3394:3396  id */\n              dup1\n                /* \"Proposal.sol\":3385:3391  leader */\n              0x0b\n              0x00\n                /* \"Proposal.sol\":3385:3396  leader = id */\n              0x0100\n              exp\n              dup2\n              sload\n              dup2\n              0xffffffffffffffffffffffffffffffffffffffff\n              mul\n              not\n              and\n              swap1\n              dup4\n              0xffffffffffffffffffffffffffffffffffffffff\n              and\n              mul\n              or\n              swap1\n              sstore\n              pop\n                /* \"Proposal.sol\":3342:3491  if (voteCount[leader] == 0) {... */\n              jump(tag_182)\n            tag_181:\n                /* \"Proposal.sol\":3434:3443  voteCount */\n              0x0d\n                /* \"Proposal.sol\":3434:3451  voteCount[leader] */\n              0x00\n                /* \"Proposal.sol\":3444:3450  leader */\n              0x0b\n              0x00\n              swap1\n              sload\n              swap1\n              0x0100\n              exp\n              swap1\n              div\n              0xffffffffffffffffffffffffffffffffffffffff\n              and\n                /* \"Proposal.sol\":3434:3451  voteCount[leader] */\n              0xffffffffffffffffffffffffffffffffffffffff\n              and\n              0xffffffffffffffffffffffffffffffffffffffff\n              and\n              dup2\n              mstore\n              0x20\n              add\n              swap1\n              dup2\n              mstore\n              0x20\n              add\n              0x00\n              keccak256\n              sload\n                /* \"Proposal.sol\":3418:3431  numberOfVotes */\n              0x09\n              0x05\n              swap1\n              sload\n              swap1\n              0x0100\n              exp\n              swap1\n              div\n              0xffffffff\n              and\n                /* \"Proposal.sol\":3418:3451  numberOfVotes < voteCount[leader] */\n              0xffffffff\n              and\n              lt\n                /* \"Proposal.sol\":3414:3491  if (numberOfVotes < voteCount[leader]) {... */\n              iszero\n              tag_183\n              jumpi\n                /* \"Proposal.sol\":3477:3479  id */\n              dup1\n                /* \"Proposal.sol\":3468:3474  leader */\n              0x0b\n              0x00\n                /* \"Proposal.sol\":3468:3479  leader = id */\n              0x0100\n              exp\n              dup2\n              sload\n              dup2\n              0xffffffffffffffffffffffffffffffffffffffff\n              mul\n              not\n              and\n              swap1\n              dup4\n              0xffffffffffffffffffffffffffffffffffffffff\n              and\n              mul\n              or\n              swap1\n              sstore\n              pop\n                /* \"Proposal.sol\":3414:3491  if (numberOfVotes < voteCount[leader]) {... */\n            tag_183:\n                /* \"Proposal.sol\":3342:3491  if (voteCount[leader] == 0) {... */\n            tag_182:\n                /* \"Proposal.sol\":3524:3542  voteCountThreshold */\n              0x09\n              0x00\n              swap1\n              sload\n              swap1\n              0x0100\n              exp\n              swap1\n              div\n              0xffffffff\n              and\n                /* \"Proposal.sol\":3507:3542  voteCount[id] >= voteCountThreshold */\n              0xffffffff\n              and\n                /* \"Proposal.sol\":3507:3516  voteCount */\n              0x0d\n                /* \"Proposal.sol\":3507:3520  voteCount[id] */\n              0x00\n                /* \"Proposal.sol\":3517:3519  id */\n              dup4\n                /* \"Proposal.sol\":3507:3520  voteCount[id] */\n              0xffffffffffffffffffffffffffffffffffffffff\n              and\n              0xffffffffffffffffffffffffffffffffffffffff\n              and\n              dup2\n              mstore\n              0x20\n              add\n              swap1\n              dup2\n              mstore\n              0x20\n              add\n              0x00\n              keccak256\n              sload\n                /* \"Proposal.sol\":3507:3542  voteCount[id] >= voteCountThreshold */\n              lt\n                /* \"Proposal.sol\":3503:3594  if (voteCount[id] >= voteCountThreshold) {... */\n              tag_184\n              jumpi\n                /* \"Proposal.sol\":3578:3582  true */\n              0x01\n                /* \"Proposal.sol\":3559:3575  leaderIsEligible */\n              0x09\n              0x04\n                /* \"Proposal.sol\":3559:3582  leaderIsEligible = true */\n              0x0100\n              exp\n              dup2\n              sload\n              dup2\n              0xff\n              mul\n              not\n              and\n              swap1\n              dup4\n              iszero\n              iszero\n              mul\n              or\n              swap1\n              sstore\n              pop\n                /* \"Proposal.sol\":3503:3594  if (voteCount[id] >= voteCountThreshold) {... */\n            tag_184:\n                /* \"Proposal.sol\":3609:3630  UserVoted(msg.sender) */\n              0x24e53c9b6f7a01c723fa01359e44b47e62ab501027dbb092d38e3669d6b01d08\n                /* \"Proposal.sol\":3619:3629  msg.sender */\n              caller\n                /* \"Proposal.sol\":3609:3630  UserVoted(msg.sender) */\n              mload(0x40)\n              tag_185\n              swap2\n              swap1\n              tag_62\n              jump\t// in\n            tag_185:\n              mload(0x40)\n              dup1\n              swap2\n              sub\n              swap1\n              log1\n                /* \"Proposal.sol\":3093:3638  function voteOnBid(address payable id) public {... */\n              pop\n              jump\t// out\n                /* \"Proposal.sol\":3759:3866  function getAmountForBid(address id) public view returns (uint256) {... */\n            tag_84:\n                /* \"Proposal.sol\":3817:3824  uint256 */\n              0x00\n                /* \"Proposal.sol\":3844:3854  bidsAmount */\n              0x05\n                /* \"Proposal.sol\":3844:3858  bidsAmount[id] */\n              0x00\n                /* \"Proposal.sol\":3855:3857  id */\n              dup4\n                /* \"Proposal.sol\":3844:3858  bidsAmount[id] */\n              0xffffffffffffffffffffffffffffffffffffffff\n              and\n              0xffffffffffffffffffffffffffffffffffffffff\n              and\n              dup2\n              mstore\n              0x20\n              add\n              swap1\n              dup2\n              mstore\n              0x20\n              add\n              0x00\n              keccak256\n              sload\n                /* \"Proposal.sol\":3837:3858  return bidsAmount[id] */\n              swap1\n              pop\n                /* \"Proposal.sol\":3759:3866  function getAmountForBid(address id) public view returns (uint256) {... */\n              swap2\n              swap1\n              pop\n              jump\t// out\n                /* \"Proposal.sol\":1204:1232  address public winningBidder */\n            tag_88:\n              0x0c\n              0x00\n              swap1\n              sload\n              swap1\n              0x0100\n              exp\n              swap1\n              div\n              0xffffffffffffffffffffffffffffffffffffffff\n              and\n              dup2\n              jump\t// out\n                /* \"Proposal.sol\":725:759  ProposalState public proposalState */\n            tag_92:\n              0x02\n              0x00\n              swap1\n              sload\n              swap1\n              0x0100\n              exp\n              swap1\n              div\n              0xff\n              and\n              dup2\n              jump\t// out\n                /* \"Proposal.sol\":543:565  uint256 public balance */\n            tag_97:\n              sload(0x00)\n              dup2\n              jump\t// out\n                /* \"Proposal.sol\":946:981  uint32 public voteBufferSeconds = 0 */\n            tag_101:\n              0x07\n              0x00\n              swap1\n              sload\n              swap1\n              0x0100\n              exp\n              swap1\n              div\n              0xffffffff\n              and\n              dup2\n              jump\t// out\n                /* \"Proposal.sol\":2826:2917  function getBids() public view returns (address[] memory) {... */\n            tag_105:\n                /* \"Proposal.sol\":2866:2882  address[] memory */\n              0x60\n                /* \"Proposal.sol\":2902:2909  bidders */\n              0x0a\n                /* \"Proposal.sol\":2895:2909  return bidders */\n              dup1\n              sload\n              dup1\n              0x20\n              mul\n              0x20\n              add\n              mload(0x40)\n              swap1\n              dup2\n              add\n              0x40\n              mstore\n              dup1\n              swap3\n              swap2\n              swap1\n              dup2\n              dup2\n              mstore\n              0x20\n              add\n              dup3\n              dup1\n              sload\n              dup1\n              iszero\n              tag_188\n              jumpi\n              0x20\n              mul\n              dup3\n              add\n              swap2\n              swap1\n              0x00\n              mstore\n              keccak256(0x00, 0x20)\n              swap1\n            tag_189:\n              dup2\n              0x00\n              swap1\n              sload\n              swap1\n              0x0100\n              exp\n              swap1\n              div\n              0xffffffffffffffffffffffffffffffffffffffff\n              and\n              0xffffffffffffffffffffffffffffffffffffffff\n              and\n              dup2\n              mstore\n              0x20\n              add\n              swap1\n              0x01\n              add\n              swap1\n              dup1\n              dup4\n              gt\n              tag_189\n              jumpi\n            tag_188:\n              pop\n              pop\n              pop\n              pop\n              pop\n              swap1\n              pop\n                /* \"Proposal.sol\":2826:2917  function getBids() public view returns (address[] memory) {... */\n              swap1\n              jump\t// out\n                /* \"Proposal.sol\":988:1017  uint256 public voteBufferDate */\n            tag_110:\n              sload(0x08)\n              dup2\n              jump\t// out\n                /* \"Proposal.sol\":2213:2818  function submitBid(string memory descriptionSet, uint256 amountNeeded)... */\n            tag_116:\n                /* \"Proposal.sol\":2341:2362  ProposalState.BIDDING */\n              0x00\n                /* \"Proposal.sol\":2324:2362  proposalState == ProposalState.BIDDING */\n              0x03\n              dup2\n              gt\n              iszero\n              tag_191\n              jumpi\n              tag_192\n              tag_135\n              jump\t// in\n            tag_192:\n            tag_191:\n                /* \"Proposal.sol\":2324:2337  proposalState */\n              0x02\n              0x00\n              swap1\n              sload\n              swap1\n              0x0100\n              exp\n              swap1\n              div\n              0xff\n              and\n                /* \"Proposal.sol\":2324:2362  proposalState == ProposalState.BIDDING */\n              0x03\n              dup2\n              gt\n              iszero\n              tag_193\n              jumpi\n              tag_194\n              tag_135\n              jump\t// in\n            tag_194:\n            tag_193:\n              eq\n                /* \"Proposal.sol\":2316:2363  require(proposalState == ProposalState.BIDDING) */\n              tag_195\n              jumpi\n              0x00\n              dup1\n              revert\n            tag_195:\n                /* \"Proposal.sol\":2374:2406  bytes memory tempEmptyStringTest */\n              0x00\n                /* \"Proposal.sol\":2415:2429  descriptionSet */\n              dup3\n                /* \"Proposal.sol\":2374:2430  bytes memory tempEmptyStringTest = bytes(descriptionSet) */\n              swap1\n              pop\n                /* \"Proposal.sol\":2478:2479  0 */\n              0x00\n                /* \"Proposal.sol\":2449:2468  tempEmptyStringTest */\n              dup2\n                /* \"Proposal.sol\":2449:2475  tempEmptyStringTest.length */\n              mload\n                /* \"Proposal.sol\":2449:2479  tempEmptyStringTest.length > 0 */\n              gt\n                /* \"Proposal.sol\":2441:2480  require(tempEmptyStringTest.length > 0) */\n              tag_196\n              jumpi\n              0x00\n              dup1\n              revert\n            tag_196:\n                /* \"Proposal.sol\":2491:2504  MemberMap map */\n              0x00\n                /* \"Proposal.sol\":2517:2526  memberMap */\n              immutable(\"0x295f692facdd7703cc7c2de37da5252cf3ca5df5d23a33e073aaab74e56d8ec3\")\n                /* \"Proposal.sol\":2491:2527  MemberMap map = MemberMap(memberMap) */\n              swap1\n              pop\n                /* \"Proposal.sol\":2546:2549  map */\n              dup1\n                /* \"Proposal.sol\":2546:2567  map.memberIsInAnyPool */\n              0xffffffffffffffffffffffffffffffffffffffff\n              and\n              0x75838862\n                /* \"Proposal.sol\":2568:2578  msg.sender */\n              caller\n                /* \"Proposal.sol\":2546:2579  map.memberIsInAnyPool(msg.sender) */\n              mload(0x40)\n              dup3\n              0xffffffff\n              and\n              0xe0\n              shl\n              dup2\n              mstore\n              0x04\n              add\n              tag_197\n              swap2\n              swap1\n              tag_62\n              jump\t// in\n            tag_197:\n              0x20\n              mload(0x40)\n              dup1\n              dup4\n              sub\n              dup2\n              dup7\n              gas\n              staticcall\n              iszero\n              dup1\n              iszero\n              tag_199\n              jumpi\n              returndatasize\n              0x00\n              dup1\n              returndatacopy\n              revert(0x00, returndatasize)\n            tag_199:\n              pop\n              pop\n              pop\n              pop\n              mload(0x40)\n              returndatasize\n              not(0x1f)\n              0x1f\n              dup3\n              add\n              and\n              dup3\n              add\n              dup1\n              0x40\n              mstore\n              pop\n              dup2\n              add\n              swap1\n              tag_200\n              swap2\n              swap1\n              tag_201\n              jump\t// in\n            tag_200:\n                /* \"Proposal.sol\":2538:2580  require(map.memberIsInAnyPool(msg.sender)) */\n              tag_202\n              jumpi\n              0x00\n              dup1\n              revert\n            tag_202:\n                /* \"Proposal.sol\":2625:2626  0 */\n              0x00\n                /* \"Proposal.sol\":2599:2609  bidsAmount */\n              0x05\n                /* \"Proposal.sol\":2599:2621  bidsAmount[msg.sender] */\n              0x00\n                /* \"Proposal.sol\":2610:2620  msg.sender */\n              caller\n                /* \"Proposal.sol\":2599:2621  bidsAmount[msg.sender] */\n              0xffffffffffffffffffffffffffffffffffffffff\n              and\n              0xffffffffffffffffffffffffffffffffffffffff\n              and\n              dup2\n              mstore\n              0x20\n              add\n              swap1\n              dup2\n              mstore\n              0x20\n              add\n              0x00\n              keccak256\n              sload\n                /* \"Proposal.sol\":2599:2626  bidsAmount[msg.sender] == 0 */\n              eq\n                /* \"Proposal.sol\":2591:2627  require(bidsAmount[msg.sender] == 0) */\n              tag_203\n              jumpi\n              0x00\n              dup1\n              revert\n            tag_203:\n                /* \"Proposal.sol\":2668:2682  descriptionSet */\n              dup4\n                /* \"Proposal.sol\":2638:2653  bidDescriptions */\n              0x04\n                /* \"Proposal.sol\":2638:2665  bidDescriptions[msg.sender] */\n              0x00\n                /* \"Proposal.sol\":2654:2664  msg.sender */\n              caller\n                /* \"Proposal.sol\":2638:2665  bidDescriptions[msg.sender] */\n              0xffffffffffffffffffffffffffffffffffffffff\n              and\n              0xffffffffffffffffffffffffffffffffffffffff\n              and\n              dup2\n              mstore\n              0x20\n              add\n              swap1\n              dup2\n              mstore\n              0x20\n              add\n              0x00\n              keccak256\n                /* \"Proposal.sol\":2638:2682  bidDescriptions[msg.sender] = descriptionSet */\n              swap1\n              dup2\n              tag_204\n              swap2\n              swap1\n              tag_205\n              jump\t// in\n            tag_204:\n              pop\n                /* \"Proposal.sol\":2718:2730  amountNeeded */\n              dup3\n                /* \"Proposal.sol\":2693:2703  bidsAmount */\n              0x05\n                /* \"Proposal.sol\":2693:2715  bidsAmount[msg.sender] */\n              0x00\n                /* \"Proposal.sol\":2704:2714  msg.sender */\n              caller\n                /* \"Proposal.sol\":2693:2715  bidsAmount[msg.sender] */\n              0xffffffffffffffffffffffffffffffffffffffff\n              and\n              0xffffffffffffffffffffffffffffffffffffffff\n              and\n              dup2\n              mstore\n              0x20\n              add\n              swap1\n              dup2\n              mstore\n              0x20\n              add\n              0x00\n              keccak256\n                /* \"Proposal.sol\":2693:2730  bidsAmount[msg.sender] = amountNeeded */\n              dup2\n              swap1\n              sstore\n              pop\n                /* \"Proposal.sol\":2741:2748  bidders */\n              0x0a\n                /* \"Proposal.sol\":2754:2764  msg.sender */\n              caller\n                /* \"Proposal.sol\":2741:2765  bidders.push(msg.sender) */\n              swap1\n              dup1\n              0x01\n              dup2\n              sload\n              add\n              dup1\n              dup3\n              sstore\n              dup1\n              swap2\n              pop\n              pop\n              0x01\n              swap1\n              sub\n              swap1\n              0x00\n              mstore\n              keccak256(0x00, 0x20)\n              add\n              0x00\n              swap1\n              swap2\n              swap1\n              swap2\n              swap1\n              swap2\n              0x0100\n              exp\n              dup2\n              sload\n              dup2\n              0xffffffffffffffffffffffffffffffffffffffff\n              mul\n              not\n              and\n              swap1\n              dup4\n              0xffffffffffffffffffffffffffffffffffffffff\n              and\n              mul\n              or\n              swap1\n              sstore\n              pop\n                /* \"Proposal.sol\":2781:2810  ProposalSubmitted(msg.sender) */\n              0x23914683cb862ec5961902cca21fb0378fd27a633c4d929996c2a14abcfd5b51\n                /* \"Proposal.sol\":2799:2809  msg.sender */\n              caller\n                /* \"Proposal.sol\":2781:2810  ProposalSubmitted(msg.sender) */\n              mload(0x40)\n              tag_207\n              swap2\n              swap1\n              tag_62\n              jump\t// in\n            tag_207:\n              mload(0x40)\n              dup1\n              swap2\n              sub\n              swap1\n              log1\n                /* \"Proposal.sol\":2305:2818  {... */\n              pop\n              pop\n                /* \"Proposal.sol\":2213:2818  function submitBid(string memory descriptionSet, uint256 amountNeeded)... */\n              pop\n              pop\n              jump\t// out\n                /* \"Proposal.sol\":3874:4653  function createProject() public {... */\n            tag_119:\n                /* \"Proposal.sol\":3939:3945  leader */\n              0x0b\n              0x00\n              swap1\n              sload\n              swap1\n              0x0100\n              exp\n              swap1\n              div\n              0xffffffffffffffffffffffffffffffffffffffff\n              and\n                /* \"Proposal.sol\":3925:3945  msg.sender == leader */\n              0xffffffffffffffffffffffffffffffffffffffff\n              and\n                /* \"Proposal.sol\":3925:3935  msg.sender */\n              caller\n                /* \"Proposal.sol\":3925:3945  msg.sender == leader */\n              0xffffffffffffffffffffffffffffffffffffffff\n              and\n              eq\n                /* \"Proposal.sol\":3917:3946  require(msg.sender == leader) */\n              tag_209\n              jumpi\n              0x00\n              dup1\n              revert\n            tag_209:\n                /* \"Proposal.sol\":3965:3981  leaderIsEligible */\n              0x09\n              0x04\n              swap1\n              sload\n              swap1\n              0x0100\n              exp\n              swap1\n              div\n              0xff\n              and\n                /* \"Proposal.sol\":3957:3982  require(leaderIsEligible) */\n              tag_210\n              jumpi\n              0x00\n              dup1\n              revert\n            tag_210:\n                /* \"Proposal.sol\":4019:4033  voteBufferDate */\n              sload(0x08)\n                /* \"Proposal.sol\":4001:4016  block.timestamp */\n              timestamp\n                /* \"Proposal.sol\":4001:4033  block.timestamp > voteBufferDate */\n              gt\n                /* \"Proposal.sol\":3993:4034  require(block.timestamp > voteBufferDate) */\n              tag_211\n              jumpi\n              0x00\n              dup1\n              revert\n            tag_211:\n                /* \"Proposal.sol\":4045:4065  uint256 neededAmount */\n              0x00\n                /* \"Proposal.sol\":4068:4078  bidsAmount */\n              0x05\n                /* \"Proposal.sol\":4068:4086  bidsAmount[leader] */\n              0x00\n                /* \"Proposal.sol\":4079:4085  leader */\n              0x0b\n              0x00\n              swap1\n              sload\n              swap1\n              0x0100\n              exp\n              swap1\n              div\n              0xffffffffffffffffffffffffffffffffffffffff\n              and\n                /* \"Proposal.sol\":4068:4086  bidsAmount[leader] */\n              0xffffffffffffffffffffffffffffffffffffffff\n              and\n              0xffffffffffffffffffffffffffffffffffffffff\n              and\n              dup2\n              mstore\n              0x20\n              add\n              swap1\n              dup2\n              mstore\n              0x20\n              add\n              0x00\n              keccak256\n              sload\n                /* \"Proposal.sol\":4045:4086  uint256 neededAmount = bidsAmount[leader] */\n              swap1\n              pop\n                /* \"Proposal.sol\":4115:4127  neededAmount */\n              dup1\n                /* \"Proposal.sol\":4105:4112  balance */\n              sload(0x00)\n                /* \"Proposal.sol\":4105:4127  balance > neededAmount */\n              gt\n                /* \"Proposal.sol\":4097:4128  require(balance > neededAmount) */\n              tag_212\n              jumpi\n              0x00\n              dup1\n              revert\n            tag_212:\n                /* \"Proposal.sol\":4155:4161  leader */\n              0x0b\n              0x00\n              swap1\n              sload\n              swap1\n              0x0100\n              exp\n              swap1\n              div\n              0xffffffffffffffffffffffffffffffffffffffff\n              and\n                /* \"Proposal.sol\":4139:4152  winningBidder */\n              0x0c\n              0x00\n                /* \"Proposal.sol\":4139:4161  winningBidder = leader */\n              0x0100\n              exp\n              dup2\n              sload\n              dup2\n              0xffffffffffffffffffffffffffffffffffffffff\n              mul\n              not\n              and\n              swap1\n              dup4\n              0xffffffffffffffffffffffffffffffffffffffff\n              and\n              mul\n              or\n              swap1\n              sstore\n              pop\n                /* \"Proposal.sol\":4172:4185  MemberMap map */\n              0x00\n                /* \"Proposal.sol\":4198:4207  memberMap */\n              immutable(\"0x295f692facdd7703cc7c2de37da5252cf3ca5df5d23a33e073aaab74e56d8ec3\")\n                /* \"Proposal.sol\":4172:4208  MemberMap map = MemberMap(memberMap) */\n              swap1\n              pop\n                /* \"Proposal.sol\":4219:4248  address[] memory membersPools */\n              0x00\n                /* \"Proposal.sol\":4251:4254  map */\n              dup2\n                /* \"Proposal.sol\":4251:4269  map.getMemberPools */\n              0xffffffffffffffffffffffffffffffffffffffff\n              and\n              0xfadd65c3\n                /* \"Proposal.sol\":4270:4276  leader */\n              0x0b\n              0x00\n              swap1\n              sload\n              swap1\n              0x0100\n              exp\n              swap1\n              div\n              0xffffffffffffffffffffffffffffffffffffffff\n              and\n                /* \"Proposal.sol\":4251:4277  map.getMemberPools(leader) */\n              mload(0x40)\n              dup3\n              0xffffffff\n              and\n              0xe0\n              shl\n              dup2\n              mstore\n              0x04\n              add\n              tag_213\n              swap2\n              swap1\n              tag_62\n              jump\t// in\n            tag_213:\n              0x00\n              mload(0x40)\n              dup1\n              dup4\n              sub\n              dup2\n              dup7\n              gas\n              staticcall\n              iszero\n              dup1\n              iszero\n              tag_215\n              jumpi\n              returndatasize\n              0x00\n              dup1\n              returndatacopy\n              revert(0x00, returndatasize)\n            tag_215:\n              pop\n              pop\n              pop\n              pop\n              mload(0x40)\n              returndatasize\n              0x00\n              dup3\n              returndatacopy\n              returndatasize\n              not(0x1f)\n              0x1f\n              dup3\n              add\n              and\n              dup3\n              add\n              dup1\n              0x40\n              mstore\n              pop\n              dup2\n              add\n              swap1\n              tag_216\n              swap2\n              swap1\n              tag_217\n              jump\t// in\n            tag_216:\n                /* \"Proposal.sol\":4219:4277  address[] memory membersPools = map.getMemberPools(leader) */\n              swap1\n              pop\n                /* \"Proposal.sol\":4304:4326  ProposalState.APPROVED */\n              0x02\n                /* \"Proposal.sol\":4288:4301  proposalState */\n              dup1\n              0x00\n                /* \"Proposal.sol\":4288:4326  proposalState = ProposalState.APPROVED */\n              0x0100\n              exp\n              dup2\n              sload\n              dup2\n              0xff\n              mul\n              not\n              and\n              swap1\n              dup4\n              0x03\n              dup2\n              gt\n              iszero\n              tag_218\n              jumpi\n              tag_219\n              tag_135\n              jump\t// in\n            tag_219:\n            tag_218:\n              mul\n              or\n              swap1\n              sstore\n              pop\n                /* \"Proposal.sol\":4337:4363  ProjectFactory projFactory */\n              0x00\n                /* \"Proposal.sol\":4381:4402  projectFactoryAddress */\n              immutable(\"0x50484705e80d29cb32092aee26c8e71455f5e23ce32b6a834d63bac1188d1cc4\")\n                /* \"Proposal.sol\":4337:4403  ProjectFactory projFactory = ProjectFactory(projectFactoryAddress) */\n              swap1\n              pop\n                /* \"Proposal.sol\":4434:4445  projFactory */\n              dup1\n                /* \"Proposal.sol\":4434:4459  projFactory.createProject */\n              0xffffffffffffffffffffffffffffffffffffffff\n              and\n              0xc6211077\n                /* \"Proposal.sol\":4474:4486  membersPools */\n              dup4\n                /* \"Proposal.sol\":4487:4488  0 */\n              0x00\n                /* \"Proposal.sol\":4474:4489  membersPools[0] */\n              dup2\n              mload\n              dup2\n              lt\n              tag_220\n              jumpi\n              tag_221\n              tag_222\n              jump\t// in\n            tag_221:\n            tag_220:\n              0x20\n              mul\n              0x20\n              add\n              add\n              mload\n                /* \"Proposal.sol\":4504:4517  winningBidder */\n              0x0c\n              0x00\n              swap1\n              sload\n              swap1\n              0x0100\n              exp\n              swap1\n              div\n              0xffffffffffffffffffffffffffffffffffffffff\n              and\n                /* \"Proposal.sol\":4532:4539  creator */\n              immutable(\"0xf3c94672c9097e8255317de36dd0d00a9f72d57eeb896861f583a1140be6889a\")\n                /* \"Proposal.sol\":4554:4572  ProjectType.FUNDED */\n              0x00\n                /* \"Proposal.sol\":4595:4599  this */\n              address\n                /* \"Proposal.sol\":4434:4611  projFactory.createProject(... */\n              mload(0x40)\n              dup7\n              0xffffffff\n              and\n              0xe0\n              shl\n              dup2\n              mstore\n              0x04\n              add\n              tag_223\n              swap6\n              swap5\n              swap4\n              swap3\n              swap2\n              swap1\n              tag_224\n              jump\t// in\n            tag_223:\n              0x00\n              mload(0x40)\n              dup1\n              dup4\n              sub\n              dup2\n              0x00\n              dup8\n              dup1\n              extcodesize\n              iszero\n              dup1\n              iszero\n              tag_225\n              jumpi\n              0x00\n              dup1\n              revert\n            tag_225:\n              pop\n              gas\n              call\n              iszero\n              dup1\n              iszero\n              tag_227\n              jumpi\n              returndatasize\n              0x00\n              dup1\n              returndatacopy\n              revert(0x00, returndatasize)\n            tag_227:\n              pop\n              pop\n              pop\n              pop\n                /* \"Proposal.sol\":4627:4645  CampaignAssigned() */\n              0x45b0f4bc838cfd8748cc5dfb3c6627145d32ddcb17804ddf52cd8cc9e5cd1b5d\n              mload(0x40)\n              mload(0x40)\n              dup1\n              swap2\n              sub\n              swap1\n              log1\n                /* \"Proposal.sol\":3906:4653  {... */\n              pop\n              pop\n              pop\n              pop\n                /* \"Proposal.sol\":3874:4653  function createProject() public {... */\n              jump\t// out\n                /* \"Proposal.sol\":1145:1169  address[] public bidders */\n            tag_124:\n              0x0a\n              dup2\n              dup2\n              sload\n              dup2\n              lt\n              tag_228\n              jumpi\n              0x00\n              dup1\n              revert\n            tag_228:\n              swap1\n              0x00\n              mstore\n              keccak256(0x00, 0x20)\n              add\n              0x00\n              swap2\n              pop\n              sload\n              swap1\n              0x0100\n              exp\n              swap1\n              div\n              0xffffffffffffffffffffffffffffffffffffffff\n              and\n              dup2\n              jump\t// out\n                /* \"Proposal.sol\":1783:2087  function contribute() public payable {... */\n            tag_127:\n                /* \"Proposal.sol\":1870:1891  ProposalState.BIDDING */\n              0x00\n                /* \"Proposal.sol\":1853:1891  proposalState == ProposalState.BIDDING */\n              0x03\n              dup2\n              gt\n              iszero\n              tag_231\n              jumpi\n              tag_232\n              tag_135\n              jump\t// in\n            tag_232:\n            tag_231:\n                /* \"Proposal.sol\":1853:1866  proposalState */\n              0x02\n              0x00\n              swap1\n              sload\n              swap1\n              0x0100\n              exp\n              swap1\n              div\n              0xff\n              and\n                /* \"Proposal.sol\":1853:1891  proposalState == ProposalState.BIDDING */\n              0x03\n              dup2\n              gt\n              iszero\n              tag_233\n              jumpi\n              tag_234\n              tag_135\n              jump\t// in\n            tag_234:\n            tag_233:\n              eq\n                /* \"Proposal.sol\":1853:1950  proposalState == ProposalState.BIDDING ||... */\n              dup1\n              tag_235\n              jumpi\n              pop\n                /* \"Proposal.sol\":1929:1950  ProposalState.FUNDING */\n              0x01\n                /* \"Proposal.sol\":1912:1950  proposalState == ProposalState.FUNDING */\n              0x03\n              dup2\n              gt\n              iszero\n              tag_236\n              jumpi\n              tag_237\n              tag_135\n              jump\t// in\n            tag_237:\n            tag_236:\n                /* \"Proposal.sol\":1912:1925  proposalState */\n              0x02\n              0x00\n              swap1\n              sload\n              swap1\n              0x0100\n              exp\n              swap1\n              div\n              0xff\n              and\n                /* \"Proposal.sol\":1912:1950  proposalState == ProposalState.FUNDING */\n              0x03\n              dup2\n              gt\n              iszero\n              tag_238\n              jumpi\n              tag_239\n              tag_135\n              jump\t// in\n            tag_239:\n            tag_238:\n              eq\n                /* \"Proposal.sol\":1853:1950  proposalState == ProposalState.BIDDING ||... */\n            tag_235:\n                /* \"Proposal.sol\":1831:1961  require(... */\n              tag_240\n              jumpi\n              0x00\n              dup1\n              revert\n            tag_240:\n                /* \"Proposal.sol\":2000:2009  msg.value */\n              callvalue\n                /* \"Proposal.sol\":1972:1984  contributors */\n              0x03\n                /* \"Proposal.sol\":1972:1996  contributors[msg.sender] */\n              0x00\n                /* \"Proposal.sol\":1985:1995  msg.sender */\n              caller\n                /* \"Proposal.sol\":1972:1996  contributors[msg.sender] */\n              0xffffffffffffffffffffffffffffffffffffffff\n              and\n              0xffffffffffffffffffffffffffffffffffffffff\n              and\n              dup2\n              mstore\n              0x20\n              add\n              swap1\n              dup2\n              mstore\n              0x20\n              add\n              0x00\n              keccak256\n              0x00\n                /* \"Proposal.sol\":1972:2009  contributors[msg.sender] += msg.value */\n              dup3\n              dup3\n              sload\n              tag_241\n              swap2\n              swap1\n              tag_178\n              jump\t// in\n            tag_241:\n              swap3\n              pop\n              pop\n              dup2\n              swap1\n              sstore\n              pop\n                /* \"Proposal.sol\":2031:2040  msg.value */\n              callvalue\n                /* \"Proposal.sol\":2020:2027  balance */\n              0x00\n              dup1\n                /* \"Proposal.sol\":2020:2040  balance += msg.value */\n              dup3\n              dup3\n              sload\n              tag_242\n              swap2\n              swap1\n              tag_178\n              jump\t// in\n            tag_242:\n              swap3\n              pop\n              pop\n              dup2\n              swap1\n              sstore\n              pop\n                /* \"Proposal.sol\":2056:2079  Contributed(msg.sender) */\n              0x35a268d4c65b4afb5b15f6e60f11fd64cce0aa427e6d48058be6e9b697c493d7\n                /* \"Proposal.sol\":2068:2078  msg.sender */\n              caller\n                /* \"Proposal.sol\":2056:2079  Contributed(msg.sender) */\n              mload(0x40)\n              tag_243\n              swap2\n              swap1\n              tag_62\n              jump\t// in\n            tag_243:\n              mload(0x40)\n              dup1\n              swap2\n              sub\n              swap1\n              log1\n                /* \"Proposal.sol\":1783:2087  function contribute() public payable {... */\n              jump\t// out\n                /* \"#utility.yul\":7:82   */\n            tag_244:\n                /* \"#utility.yul\":40:46   */\n              0x00\n                /* \"#utility.yul\":73:75   */\n              0x40\n                /* \"#utility.yul\":67:76   */\n              mload\n                /* \"#utility.yul\":57:76   */\n              swap1\n              pop\n                /* \"#utility.yul\":7:82   */\n              swap1\n              jump\t// out\n                /* \"#utility.yul\":88:205   */\n            tag_245:\n                /* \"#utility.yul\":197:198   */\n              0x00\n                /* \"#utility.yul\":194:195   */\n              dup1\n                /* \"#utility.yul\":187:199   */\n              revert\n                /* \"#utility.yul\":211:328   */\n            tag_246:\n                /* \"#utility.yul\":320:321   */\n              0x00\n                /* \"#utility.yul\":317:318   */\n              dup1\n                /* \"#utility.yul\":310:322   */\n              revert\n                /* \"#utility.yul\":334:460   */\n            tag_247:\n                /* \"#utility.yul\":371:378   */\n              0x00\n                /* \"#utility.yul\":411:453   */\n              0xffffffffffffffffffffffffffffffffffffffff\n                /* \"#utility.yul\":404:409   */\n              dup3\n                /* \"#utility.yul\":400:454   */\n              and\n                /* \"#utility.yul\":389:454   */\n              swap1\n              pop\n                /* \"#utility.yul\":334:460   */\n              swap2\n              swap1\n              pop\n              jump\t// out\n                /* \"#utility.yul\":466:562   */\n            tag_248:\n                /* \"#utility.yul\":503:510   */\n              0x00\n                /* \"#utility.yul\":532:556   */\n              tag_329\n                /* \"#utility.yul\":550:555   */\n              dup3\n                /* \"#utility.yul\":532:556   */\n              tag_247\n              jump\t// in\n            tag_329:\n                /* \"#utility.yul\":521:556   */\n              swap1\n              pop\n                /* \"#utility.yul\":466:562   */\n              swap2\n              swap1\n              pop\n              jump\t// out\n                /* \"#utility.yul\":568:690   */\n            tag_249:\n                /* \"#utility.yul\":641:665   */\n              tag_331\n                /* \"#utility.yul\":659:664   */\n              dup2\n                /* \"#utility.yul\":641:665   */\n              tag_248\n              jump\t// in\n            tag_331:\n                /* \"#utility.yul\":634:639   */\n              dup2\n                /* \"#utility.yul\":631:666   */\n              eq\n                /* \"#utility.yul\":621:684   */\n              tag_332\n              jumpi\n                /* \"#utility.yul\":680:681   */\n              0x00\n                /* \"#utility.yul\":677:678   */\n              dup1\n                /* \"#utility.yul\":670:682   */\n              revert\n                /* \"#utility.yul\":621:684   */\n            tag_332:\n                /* \"#utility.yul\":568:690   */\n              pop\n              jump\t// out\n                /* \"#utility.yul\":696:835   */\n            tag_250:\n                /* \"#utility.yul\":742:747   */\n              0x00\n                /* \"#utility.yul\":780:786   */\n              dup2\n                /* \"#utility.yul\":767:787   */\n              calldataload\n                /* \"#utility.yul\":758:787   */\n              swap1\n              pop\n                /* \"#utility.yul\":796:829   */\n              tag_334\n                /* \"#utility.yul\":823:828   */\n              dup2\n                /* \"#utility.yul\":796:829   */\n              tag_249\n              jump\t// in\n            tag_334:\n                /* \"#utility.yul\":696:835   */\n              swap3\n              swap2\n              pop\n              pop\n              jump\t// out\n                /* \"#utility.yul\":841:1170   */\n            tag_31:\n                /* \"#utility.yul\":900:906   */\n              0x00\n                /* \"#utility.yul\":949:951   */\n              0x20\n                /* \"#utility.yul\":937:946   */\n              dup3\n                /* \"#utility.yul\":928:935   */\n              dup5\n                /* \"#utility.yul\":924:947   */\n              sub\n                /* \"#utility.yul\":920:952   */\n              slt\n                /* \"#utility.yul\":917:1036   */\n              iszero\n              tag_336\n              jumpi\n                /* \"#utility.yul\":955:1034   */\n              tag_337\n              tag_245\n              jump\t// in\n            tag_337:\n                /* \"#utility.yul\":917:1036   */\n            tag_336:\n                /* \"#utility.yul\":1075:1076   */\n              0x00\n                /* \"#utility.yul\":1100:1153   */\n              tag_338\n                /* \"#utility.yul\":1145:1152   */\n              dup5\n                /* \"#utility.yul\":1136:1142   */\n              dup3\n                /* \"#utility.yul\":1125:1134   */\n              dup6\n                /* \"#utility.yul\":1121:1143   */\n              add\n                /* \"#utility.yul\":1100:1153   */\n              tag_250\n              jump\t// in\n            tag_338:\n                /* \"#utility.yul\":1090:1153   */\n              swap2\n              pop\n                /* \"#utility.yul\":1046:1163   */\n              pop\n                /* \"#utility.yul\":841:1170   */\n              swap3\n              swap2\n              pop\n              pop\n              jump\t// out\n                /* \"#utility.yul\":1176:1253   */\n            tag_251:\n                /* \"#utility.yul\":1213:1220   */\n              0x00\n                /* \"#utility.yul\":1242:1247   */\n              dup2\n                /* \"#utility.yul\":1231:1247   */\n              swap1\n              pop\n                /* \"#utility.yul\":1176:1253   */\n              swap2\n              swap1\n              pop\n              jump\t// out\n                /* \"#utility.yul\":1259:1377   */\n            tag_252:\n                /* \"#utility.yul\":1346:1370   */\n              tag_341\n                /* \"#utility.yul\":1364:1369   */\n              dup2\n                /* \"#utility.yul\":1346:1370   */\n              tag_251\n              jump\t// in\n            tag_341:\n                /* \"#utility.yul\":1341:1344   */\n              dup3\n                /* \"#utility.yul\":1334:1371   */\n              mstore\n                /* \"#utility.yul\":1259:1377   */\n              pop\n              pop\n              jump\t// out\n                /* \"#utility.yul\":1383:1605   */\n            tag_34:\n                /* \"#utility.yul\":1476:1480   */\n              0x00\n                /* \"#utility.yul\":1514:1516   */\n              0x20\n                /* \"#utility.yul\":1503:1512   */\n              dup3\n                /* \"#utility.yul\":1499:1517   */\n              add\n                /* \"#utility.yul\":1491:1517   */\n              swap1\n              pop\n                /* \"#utility.yul\":1527:1598   */\n              tag_343\n                /* \"#utility.yul\":1595:1596   */\n              0x00\n                /* \"#utility.yul\":1584:1593   */\n              dup4\n                /* \"#utility.yul\":1580:1597   */\n              add\n                /* \"#utility.yul\":1571:1577   */\n              dup5\n                /* \"#utility.yul\":1527:1598   */\n              tag_252\n              jump\t// in\n            tag_343:\n                /* \"#utility.yul\":1383:1605   */\n              swap3\n              swap2\n              pop\n              pop\n              jump\t// out\n                /* \"#utility.yul\":1611:1701   */\n            tag_253:\n                /* \"#utility.yul\":1645:1652   */\n              0x00\n                /* \"#utility.yul\":1688:1693   */\n              dup2\n                /* \"#utility.yul\":1681:1694   */\n              iszero\n                /* \"#utility.yul\":1674:1695   */\n              iszero\n                /* \"#utility.yul\":1663:1695   */\n              swap1\n              pop\n                /* \"#utility.yul\":1611:1701   */\n              swap2\n              swap1\n              pop\n              jump\t// out\n                /* \"#utility.yul\":1707:1816   */\n            tag_254:\n                /* \"#utility.yul\":1788:1809   */\n              tag_346\n                /* \"#utility.yul\":1803:1808   */\n              dup2\n                /* \"#utility.yul\":1788:1809   */\n              tag_253\n              jump\t// in\n            tag_346:\n                /* \"#utility.yul\":1783:1786   */\n              dup3\n                /* \"#utility.yul\":1776:1810   */\n              mstore\n                /* \"#utility.yul\":1707:1816   */\n              pop\n              pop\n              jump\t// out\n                /* \"#utility.yul\":1822:2032   */\n            tag_40:\n                /* \"#utility.yul\":1909:1913   */\n              0x00\n                /* \"#utility.yul\":1947:1949   */\n              0x20\n                /* \"#utility.yul\":1936:1945   */\n              dup3\n                /* \"#utility.yul\":1932:1950   */\n              add\n                /* \"#utility.yul\":1924:1950   */\n              swap1\n              pop\n                /* \"#utility.yul\":1960:2025   */\n              tag_348\n                /* \"#utility.yul\":2022:2023   */\n              0x00\n                /* \"#utility.yul\":2011:2020   */\n              dup4\n                /* \"#utility.yul\":2007:2024   */\n              add\n                /* \"#utility.yul\":1998:2004   */\n              dup5\n                /* \"#utility.yul\":1960:2025   */\n              tag_254\n              jump\t// in\n            tag_348:\n                /* \"#utility.yul\":1822:2032   */\n              swap3\n              swap2\n              pop\n              pop\n              jump\t// out\n                /* \"#utility.yul\":2038:2137   */\n            tag_255:\n                /* \"#utility.yul\":2090:2096   */\n              0x00\n                /* \"#utility.yul\":2124:2129   */\n              dup2\n                /* \"#utility.yul\":2118:2130   */\n              mload\n                /* \"#utility.yul\":2108:2130   */\n              swap1\n              pop\n                /* \"#utility.yul\":2038:2137   */\n              swap2\n              swap1\n              pop\n              jump\t// out\n                /* \"#utility.yul\":2143:2312   */\n            tag_256:\n                /* \"#utility.yul\":2227:2238   */\n              0x00\n                /* \"#utility.yul\":2261:2267   */\n              dup3\n                /* \"#utility.yul\":2256:2259   */\n              dup3\n                /* \"#utility.yul\":2249:2268   */\n              mstore\n                /* \"#utility.yul\":2301:2305   */\n              0x20\n                /* \"#utility.yul\":2296:2299   */\n              dup3\n                /* \"#utility.yul\":2292:2306   */\n              add\n                /* \"#utility.yul\":2277:2306   */\n              swap1\n              pop\n                /* \"#utility.yul\":2143:2312   */\n              swap3\n              swap2\n              pop\n              pop\n              jump\t// out\n                /* \"#utility.yul\":2318:2564   */\n            tag_257:\n                /* \"#utility.yul\":2399:2400   */\n              0x00\n                /* \"#utility.yul\":2409:2522   */\n            tag_352:\n                /* \"#utility.yul\":2423:2429   */\n              dup4\n                /* \"#utility.yul\":2420:2421   */\n              dup2\n                /* \"#utility.yul\":2417:2430   */\n              lt\n                /* \"#utility.yul\":2409:2522   */\n              iszero\n              tag_354\n              jumpi\n                /* \"#utility.yul\":2508:2509   */\n              dup1\n                /* \"#utility.yul\":2503:2506   */\n              dup3\n                /* \"#utility.yul\":2499:2510   */\n              add\n                /* \"#utility.yul\":2493:2511   */\n              mload\n                /* \"#utility.yul\":2489:2490   */\n              dup2\n                /* \"#utility.yul\":2484:2487   */\n              dup5\n                /* \"#utility.yul\":2480:2491   */\n              add\n                /* \"#utility.yul\":2473:2512   */\n              mstore\n                /* \"#utility.yul\":2445:2447   */\n              0x20\n                /* \"#utility.yul\":2442:2443   */\n              dup2\n                /* \"#utility.yul\":2438:2448   */\n              add\n                /* \"#utility.yul\":2433:2448   */\n              swap1\n              pop\n                /* \"#utility.yul\":2409:2522   */\n              jump(tag_352)\n            tag_354:\n                /* \"#utility.yul\":2556:2557   */\n              0x00\n                /* \"#utility.yul\":2547:2553   */\n              dup5\n                /* \"#utility.yul\":2542:2545   */\n              dup5\n                /* \"#utility.yul\":2538:2554   */\n              add\n                /* \"#utility.yul\":2531:2558   */\n              mstore\n                /* \"#utility.yul\":2380:2564   */\n              pop\n                /* \"#utility.yul\":2318:2564   */\n              pop\n              pop\n              pop\n              jump\t// out\n                /* \"#utility.yul\":2570:2672   */\n            tag_258:\n                /* \"#utility.yul\":2611:2617   */\n              0x00\n                /* \"#utility.yul\":2662:2664   */\n              0x1f\n                /* \"#utility.yul\":2658:2665   */\n              not\n                /* \"#utility.yul\":2653:2655   */\n              0x1f\n                /* \"#utility.yul\":2646:2651   */\n              dup4\n                /* \"#utility.yul\":2642:2656   */\n              add\n                /* \"#utility.yul\":2638:2666   */\n              and\n                /* \"#utility.yul\":2628:2666   */\n              swap1\n              pop\n                /* \"#utility.yul\":2570:2672   */\n              swap2\n              swap1\n              pop\n              jump\t// out\n                /* \"#utility.yul\":2678:3055   */\n            tag_259:\n                /* \"#utility.yul\":2766:2769   */\n              0x00\n                /* \"#utility.yul\":2794:2833   */\n              tag_357\n                /* \"#utility.yul\":2827:2832   */\n              dup3\n                /* \"#utility.yul\":2794:2833   */\n              tag_255\n              jump\t// in\n            tag_357:\n                /* \"#utility.yul\":2849:2920   */\n              tag_358\n                /* \"#utility.yul\":2913:2919   */\n              dup2\n                /* \"#utility.yul\":2908:2911   */\n              dup6\n                /* \"#utility.yul\":2849:2920   */\n              tag_256\n              jump\t// in\n            tag_358:\n                /* \"#utility.yul\":2842:2920   */\n              swap4\n              pop\n                /* \"#utility.yul\":2929:2994   */\n              tag_359\n                /* \"#utility.yul\":2987:2993   */\n              dup2\n                /* \"#utility.yul\":2982:2985   */\n              dup6\n                /* \"#utility.yul\":2975:2979   */\n              0x20\n                /* \"#utility.yul\":2968:2973   */\n              dup7\n                /* \"#utility.yul\":2964:2980   */\n              add\n                /* \"#utility.yul\":2929:2994   */\n              tag_257\n              jump\t// in\n            tag_359:\n                /* \"#utility.yul\":3019:3048   */\n              tag_360\n                /* \"#utility.yul\":3041:3047   */\n              dup2\n                /* \"#utility.yul\":3019:3048   */\n              tag_258\n              jump\t// in\n            tag_360:\n                /* \"#utility.yul\":3014:3017   */\n              dup5\n                /* \"#utility.yul\":3010:3049   */\n              add\n                /* \"#utility.yul\":3003:3049   */\n              swap2\n              pop\n                /* \"#utility.yul\":2770:3055   */\n              pop\n                /* \"#utility.yul\":2678:3055   */\n              swap3\n              swap2\n              pop\n              pop\n              jump\t// out\n                /* \"#utility.yul\":3061:3374   */\n            tag_57:\n                /* \"#utility.yul\":3174:3178   */\n              0x00\n                /* \"#utility.yul\":3212:3214   */\n              0x20\n                /* \"#utility.yul\":3201:3210   */\n              dup3\n                /* \"#utility.yul\":3197:3215   */\n              add\n                /* \"#utility.yul\":3189:3215   */\n              swap1\n              pop\n                /* \"#utility.yul\":3261:3270   */\n              dup2\n                /* \"#utility.yul\":3255:3259   */\n              dup2\n                /* \"#utility.yul\":3251:3271   */\n              sub\n                /* \"#utility.yul\":3247:3248   */\n              0x00\n                /* \"#utility.yul\":3236:3245   */\n              dup4\n                /* \"#utility.yul\":3232:3249   */\n              add\n                /* \"#utility.yul\":3225:3272   */\n              mstore\n                /* \"#utility.yul\":3289:3367   */\n              tag_362\n                /* \"#utility.yul\":3362:3366   */\n              dup2\n                /* \"#utility.yul\":3353:3359   */\n              dup5\n                /* \"#utility.yul\":3289:3367   */\n              tag_259\n              jump\t// in\n            tag_362:\n                /* \"#utility.yul\":3281:3367   */\n              swap1\n              pop\n                /* \"#utility.yul\":3061:3374   */\n              swap3\n              swap2\n              pop\n              pop\n              jump\t// out\n                /* \"#utility.yul\":3380:3498   */\n            tag_260:\n                /* \"#utility.yul\":3467:3491   */\n              tag_364\n                /* \"#utility.yul\":3485:3490   */\n              dup2\n                /* \"#utility.yul\":3467:3491   */\n              tag_248\n              jump\t// in\n            tag_364:\n                /* \"#utility.yul\":3462:3465   */\n              dup3\n                /* \"#utility.yul\":3455:3492   */\n              mstore\n                /* \"#utility.yul\":3380:3498   */\n              pop\n              pop\n              jump\t// out\n                /* \"#utility.yul\":3504:3726   */\n            tag_62:\n                /* \"#utility.yul\":3597:3601   */\n              0x00\n                /* \"#utility.yul\":3635:3637   */\n              0x20\n                /* \"#utility.yul\":3624:3633   */\n              dup3\n                /* \"#utility.yul\":3620:3638   */\n              add\n                /* \"#utility.yul\":3612:3638   */\n              swap1\n              pop\n                /* \"#utility.yul\":3648:3719   */\n              tag_366\n                /* \"#utility.yul\":3716:3717   */\n              0x00\n                /* \"#utility.yul\":3705:3714   */\n              dup4\n                /* \"#utility.yul\":3701:3718   */\n              add\n                /* \"#utility.yul\":3692:3698   */\n              dup5\n                /* \"#utility.yul\":3648:3719   */\n              tag_260\n              jump\t// in\n            tag_366:\n                /* \"#utility.yul\":3504:3726   */\n              swap3\n              swap2\n              pop\n              pop\n              jump\t// out\n                /* \"#utility.yul\":3732:3825   */\n            tag_261:\n                /* \"#utility.yul\":3768:3775   */\n              0x00\n                /* \"#utility.yul\":3808:3818   */\n              0xffffffff\n                /* \"#utility.yul\":3801:3806   */\n              dup3\n                /* \"#utility.yul\":3797:3819   */\n              and\n                /* \"#utility.yul\":3786:3819   */\n              swap1\n              pop\n                /* \"#utility.yul\":3732:3825   */\n              swap2\n              swap1\n              pop\n              jump\t// out\n                /* \"#utility.yul\":3831:3946   */\n            tag_262:\n                /* \"#utility.yul\":3916:3939   */\n              tag_369\n                /* \"#utility.yul\":3933:3938   */\n              dup2\n                /* \"#utility.yul\":3916:3939   */\n              tag_261\n              jump\t// in\n            tag_369:\n                /* \"#utility.yul\":3911:3914   */\n              dup3\n                /* \"#utility.yul\":3904:3940   */\n              mstore\n                /* \"#utility.yul\":3831:3946   */\n              pop\n              pop\n              jump\t// out\n                /* \"#utility.yul\":3952:4170   */\n            tag_73:\n                /* \"#utility.yul\":4043:4047   */\n              0x00\n                /* \"#utility.yul\":4081:4083   */\n              0x20\n                /* \"#utility.yul\":4070:4079   */\n              dup3\n                /* \"#utility.yul\":4066:4084   */\n              add\n                /* \"#utility.yul\":4058:4084   */\n              swap1\n              pop\n                /* \"#utility.yul\":4094:4163   */\n              tag_371\n                /* \"#utility.yul\":4160:4161   */\n              0x00\n                /* \"#utility.yul\":4149:4158   */\n              dup4\n                /* \"#utility.yul\":4145:4162   */\n              add\n                /* \"#utility.yul\":4136:4142   */\n              dup5\n                /* \"#utility.yul\":4094:4163   */\n              tag_262\n              jump\t// in\n            tag_371:\n                /* \"#utility.yul\":3952:4170   */\n              swap3\n              swap2\n              pop\n              pop\n              jump\t// out\n                /* \"#utility.yul\":4176:4280   */\n            tag_263:\n                /* \"#utility.yul\":4221:4228   */\n              0x00\n                /* \"#utility.yul\":4250:4274   */\n              tag_373\n                /* \"#utility.yul\":4268:4273   */\n              dup3\n                /* \"#utility.yul\":4250:4274   */\n              tag_247\n              jump\t// in\n            tag_373:\n                /* \"#utility.yul\":4239:4274   */\n              swap1\n              pop\n                /* \"#utility.yul\":4176:4280   */\n              swap2\n              swap1\n              pop\n              jump\t// out\n                /* \"#utility.yul\":4286:4424   */\n            tag_264:\n                /* \"#utility.yul\":4367:4399   */\n              tag_375\n                /* \"#utility.yul\":4393:4398   */\n              dup2\n                /* \"#utility.yul\":4367:4399   */\n              tag_263\n              jump\t// in\n            tag_375:\n                /* \"#utility.yul\":4360:4365   */\n              dup2\n                /* \"#utility.yul\":4357:4400   */\n              eq\n                /* \"#utility.yul\":4347:4418   */\n              tag_376\n              jumpi\n                /* \"#utility.yul\":4414:4415   */\n              0x00\n                /* \"#utility.yul\":4411:4412   */\n              dup1\n                /* \"#utility.yul\":4404:4416   */\n              revert\n                /* \"#utility.yul\":4347:4418   */\n            tag_376:\n                /* \"#utility.yul\":4286:4424   */\n              pop\n              jump\t// out\n                /* \"#utility.yul\":4430:4585   */\n            tag_265:\n                /* \"#utility.yul\":4484:4489   */\n              0x00\n                /* \"#utility.yul\":4522:4528   */\n              dup2\n                /* \"#utility.yul\":4509:4529   */\n              calldataload\n                /* \"#utility.yul\":4500:4529   */\n              swap1\n              pop\n                /* \"#utility.yul\":4538:4579   */\n              tag_378\n                /* \"#utility.yul\":4573:4578   */\n              dup2\n                /* \"#utility.yul\":4538:4579   */\n              tag_264\n              jump\t// in\n            tag_378:\n                /* \"#utility.yul\":4430:4585   */\n              swap3\n              swap2\n              pop\n              pop\n              jump\t// out\n                /* \"#utility.yul\":4591:4936   */\n            tag_79:\n                /* \"#utility.yul\":4658:4664   */\n              0x00\n                /* \"#utility.yul\":4707:4709   */\n              0x20\n                /* \"#utility.yul\":4695:4704   */\n              dup3\n                /* \"#utility.yul\":4686:4693   */\n              dup5\n                /* \"#utility.yul\":4682:4705   */\n              sub\n                /* \"#utility.yul\":4678:4710   */\n              slt\n                /* \"#utility.yul\":4675:4794   */\n              iszero\n              tag_380\n              jumpi\n                /* \"#utility.yul\":4713:4792   */\n              tag_381\n              tag_245\n              jump\t// in\n            tag_381:\n                /* \"#utility.yul\":4675:4794   */\n            tag_380:\n                /* \"#utility.yul\":4833:4834   */\n              0x00\n                /* \"#utility.yul\":4858:4919   */\n              tag_382\n                /* \"#utility.yul\":4911:4918   */\n              dup5\n                /* \"#utility.yul\":4902:4908   */\n              dup3\n                /* \"#utility.yul\":4891:4900   */\n              dup6\n                /* \"#utility.yul\":4887:4909   */\n              add\n                /* \"#utility.yul\":4858:4919   */\n              tag_265\n              jump\t// in\n            tag_382:\n                /* \"#utility.yul\":4848:4919   */\n              swap2\n              pop\n                /* \"#utility.yul\":4804:4929   */\n              pop\n                /* \"#utility.yul\":4591:4936   */\n              swap3\n              swap2\n              pop\n              pop\n              jump\t// out\n                /* \"#utility.yul\":4942:5122   */\n            tag_135:\n                /* \"#utility.yul\":4990:5067   */\n              0x4e487b7100000000000000000000000000000000000000000000000000000000\n                /* \"#utility.yul\":4987:4988   */\n              0x00\n                /* \"#utility.yul\":4980:5068   */\n              mstore\n                /* \"#utility.yul\":5087:5091   */\n              0x21\n                /* \"#utility.yul\":5084:5085   */\n              0x04\n                /* \"#utility.yul\":5077:5092   */\n              mstore\n                /* \"#utility.yul\":5111:5115   */\n              0x24\n                /* \"#utility.yul\":5108:5109   */\n              0x00\n                /* \"#utility.yul\":5101:5116   */\n              revert\n                /* \"#utility.yul\":5128:5251   */\n            tag_266:\n                /* \"#utility.yul\":5219:5220   */\n              0x04\n                /* \"#utility.yul\":5212:5217   */\n              dup2\n                /* \"#utility.yul\":5209:5221   */\n              lt\n                /* \"#utility.yul\":5199:5245   */\n              tag_385\n              jumpi\n                /* \"#utility.yul\":5225:5243   */\n              tag_386\n              tag_135\n              jump\t// in\n            tag_386:\n                /* \"#utility.yul\":5199:5245   */\n            tag_385:\n                /* \"#utility.yul\":5128:5251   */\n              pop\n              jump\t// out\n                /* \"#utility.yul\":5257:5404   */\n            tag_267:\n                /* \"#utility.yul\":5312:5319   */\n              0x00\n                /* \"#utility.yul\":5341:5346   */\n              dup2\n                /* \"#utility.yul\":5330:5346   */\n              swap1\n              pop\n                /* \"#utility.yul\":5347:5398   */\n              tag_388\n                /* \"#utility.yul\":5392:5397   */\n              dup3\n                /* \"#utility.yul\":5347:5398   */\n              tag_266\n              jump\t// in\n            tag_388:\n                /* \"#utility.yul\":5257:5404   */\n              swap2\n              swap1\n              pop\n              jump\t// out\n                /* \"#utility.yul\":5410:5557   */\n            tag_268:\n                /* \"#utility.yul\":5476:5485   */\n              0x00\n                /* \"#utility.yul\":5509:5551   */\n              tag_390\n                /* \"#utility.yul\":5545:5550   */\n              dup3\n                /* \"#utility.yul\":5509:5551   */\n              tag_267\n              jump\t// in\n            tag_390:\n                /* \"#utility.yul\":5496:5551   */\n              swap1\n              pop\n                /* \"#utility.yul\":5410:5557   */\n              swap2\n              swap1\n              pop\n              jump\t// out\n                /* \"#utility.yul\":5563:5726   */\n            tag_269:\n                /* \"#utility.yul\":5666:5719   */\n              tag_392\n                /* \"#utility.yul\":5713:5718   */\n              dup2\n                /* \"#utility.yul\":5666:5719   */\n              tag_268\n              jump\t// in\n            tag_392:\n                /* \"#utility.yul\":5661:5664   */\n              dup3\n                /* \"#utility.yul\":5654:5720   */\n              mstore\n                /* \"#utility.yul\":5563:5726   */\n              pop\n              pop\n              jump\t// out\n                /* \"#utility.yul\":5732:5986   */\n            tag_94:\n                /* \"#utility.yul\":5841:5845   */\n              0x00\n                /* \"#utility.yul\":5879:5881   */\n              0x20\n                /* \"#utility.yul\":5868:5877   */\n              dup3\n                /* \"#utility.yul\":5864:5882   */\n              add\n                /* \"#utility.yul\":5856:5882   */\n              swap1\n              pop\n                /* \"#utility.yul\":5892:5979   */\n              tag_394\n                /* \"#utility.yul\":5976:5977   */\n              0x00\n                /* \"#utility.yul\":5965:5974   */\n              dup4\n                /* \"#utility.yul\":5961:5978   */\n              add\n                /* \"#utility.yul\":5952:5958   */\n              dup5\n                /* \"#utility.yul\":5892:5979   */\n              tag_269\n              jump\t// in\n            tag_394:\n                /* \"#utility.yul\":5732:5986   */\n              swap3\n              swap2\n              pop\n              pop\n              jump\t// out\n                /* \"#utility.yul\":5992:6106   */\n            tag_270:\n                /* \"#utility.yul\":6059:6065   */\n              0x00\n                /* \"#utility.yul\":6093:6098   */\n              dup2\n                /* \"#utility.yul\":6087:6099   */\n              mload\n                /* \"#utility.yul\":6077:6099   */\n              swap1\n              pop\n                /* \"#utility.yul\":5992:6106   */\n              swap2\n              swap1\n              pop\n              jump\t// out\n                /* \"#utility.yul\":6112:6296   */\n            tag_271:\n                /* \"#utility.yul\":6211:6222   */\n              0x00\n                /* \"#utility.yul\":6245:6251   */\n              dup3\n                /* \"#utility.yul\":6240:6243   */\n              dup3\n                /* \"#utility.yul\":6233:6252   */\n              mstore\n                /* \"#utility.yul\":6285:6289   */\n              0x20\n                /* \"#utility.yul\":6280:6283   */\n              dup3\n                /* \"#utility.yul\":6276:6290   */\n              add\n                /* \"#utility.yul\":6261:6290   */\n              swap1\n              pop\n                /* \"#utility.yul\":6112:6296   */\n              swap3\n              swap2\n              pop\n              pop\n              jump\t// out\n                /* \"#utility.yul\":6302:6434   */\n            tag_272:\n                /* \"#utility.yul\":6369:6373   */\n              0x00\n                /* \"#utility.yul\":6392:6395   */\n              dup2\n                /* \"#utility.yul\":6384:6395   */\n              swap1\n              pop\n                /* \"#utility.yul\":6422:6426   */\n              0x20\n                /* \"#utility.yul\":6417:6420   */\n              dup3\n                /* \"#utility.yul\":6413:6427   */\n              add\n                /* \"#utility.yul\":6405:6427   */\n              swap1\n              pop\n                /* \"#utility.yul\":6302:6434   */\n              swap2\n              swap1\n              pop\n              jump\t// out\n                /* \"#utility.yul\":6440:6548   */\n            tag_273:\n                /* \"#utility.yul\":6517:6541   */\n              tag_399\n                /* \"#utility.yul\":6535:6540   */\n              dup2\n                /* \"#utility.yul\":6517:6541   */\n              tag_248\n              jump\t// in\n            tag_399:\n                /* \"#utility.yul\":6512:6515   */\n              dup3\n                /* \"#utility.yul\":6505:6542   */\n              mstore\n                /* \"#utility.yul\":6440:6548   */\n              pop\n              pop\n              jump\t// out\n                /* \"#utility.yul\":6554:6733   */\n            tag_274:\n                /* \"#utility.yul\":6623:6633   */\n              0x00\n                /* \"#utility.yul\":6644:6690   */\n              tag_401\n                /* \"#utility.yul\":6686:6689   */\n              dup4\n                /* \"#utility.yul\":6678:6684   */\n              dup4\n                /* \"#utility.yul\":6644:6690   */\n              tag_273\n              jump\t// in\n            tag_401:\n                /* \"#utility.yul\":6722:6726   */\n              0x20\n                /* \"#utility.yul\":6717:6720   */\n              dup4\n                /* \"#utility.yul\":6713:6727   */\n              add\n                /* \"#utility.yul\":6699:6727   */\n              swap1\n              pop\n                /* \"#utility.yul\":6554:6733   */\n              swap3\n              swap2\n              pop\n              pop\n              jump\t// out\n                /* \"#utility.yul\":6739:6852   */\n            tag_275:\n                /* \"#utility.yul\":6809:6813   */\n              0x00\n                /* \"#utility.yul\":6841:6845   */\n              0x20\n                /* \"#utility.yul\":6836:6839   */\n              dup3\n                /* \"#utility.yul\":6832:6846   */\n              add\n                /* \"#utility.yul\":6824:6846   */\n              swap1\n              pop\n                /* \"#utility.yul\":6739:6852   */\n              swap2\n              swap1\n              pop\n              jump\t// out\n                /* \"#utility.yul\":6888:7620   */\n            tag_276:\n                /* \"#utility.yul\":7007:7010   */\n              0x00\n                /* \"#utility.yul\":7036:7090   */\n              tag_404\n                /* \"#utility.yul\":7084:7089   */\n              dup3\n                /* \"#utility.yul\":7036:7090   */\n              tag_270\n              jump\t// in\n            tag_404:\n                /* \"#utility.yul\":7106:7192   */\n              tag_405\n                /* \"#utility.yul\":7185:7191   */\n              dup2\n                /* \"#utility.yul\":7180:7183   */\n              dup6\n                /* \"#utility.yul\":7106:7192   */\n              tag_271\n              jump\t// in\n            tag_405:\n                /* \"#utility.yul\":7099:7192   */\n              swap4\n              pop\n                /* \"#utility.yul\":7216:7272   */\n              tag_406\n                /* \"#utility.yul\":7266:7271   */\n              dup4\n                /* \"#utility.yul\":7216:7272   */\n              tag_272\n              jump\t// in\n            tag_406:\n                /* \"#utility.yul\":7295:7302   */\n              dup1\n                /* \"#utility.yul\":7326:7327   */\n              0x00\n                /* \"#utility.yul\":7311:7595   */\n            tag_407:\n                /* \"#utility.yul\":7336:7342   */\n              dup4\n                /* \"#utility.yul\":7333:7334   */\n              dup2\n                /* \"#utility.yul\":7330:7343   */\n              lt\n                /* \"#utility.yul\":7311:7595   */\n              iszero\n              tag_409\n              jumpi\n                /* \"#utility.yul\":7412:7418   */\n              dup2\n                /* \"#utility.yul\":7406:7419   */\n              mload\n                /* \"#utility.yul\":7439:7502   */\n              tag_410\n                /* \"#utility.yul\":7498:7501   */\n              dup9\n                /* \"#utility.yul\":7483:7496   */\n              dup3\n                /* \"#utility.yul\":7439:7502   */\n              tag_274\n              jump\t// in\n            tag_410:\n                /* \"#utility.yul\":7432:7502   */\n              swap8\n              pop\n                /* \"#utility.yul\":7525:7585   */\n              tag_411\n                /* \"#utility.yul\":7578:7584   */\n              dup4\n                /* \"#utility.yul\":7525:7585   */\n              tag_275\n              jump\t// in\n            tag_411:\n                /* \"#utility.yul\":7515:7585   */\n              swap3\n              pop\n                /* \"#utility.yul\":7371:7595   */\n              pop\n                /* \"#utility.yul\":7358:7359   */\n              0x01\n                /* \"#utility.yul\":7355:7356   */\n              dup2\n                /* \"#utility.yul\":7351:7360   */\n              add\n                /* \"#utility.yul\":7346:7360   */\n              swap1\n              pop\n                /* \"#utility.yul\":7311:7595   */\n              jump(tag_407)\n            tag_409:\n                /* \"#utility.yul\":7315:7329   */\n              pop\n                /* \"#utility.yul\":7611:7614   */\n              dup6\n                /* \"#utility.yul\":7604:7614   */\n              swap4\n              pop\n                /* \"#utility.yul\":7012:7620   */\n              pop\n              pop\n              pop\n                /* \"#utility.yul\":6888:7620   */\n              swap3\n              swap2\n              pop\n              pop\n              jump\t// out\n                /* \"#utility.yul\":7626:7999   */\n            tag_107:\n                /* \"#utility.yul\":7769:7773   */\n              0x00\n                /* \"#utility.yul\":7807:7809   */\n              0x20\n                /* \"#utility.yul\":7796:7805   */\n              dup3\n                /* \"#utility.yul\":7792:7810   */\n              add\n                /* \"#utility.yul\":7784:7810   */\n              swap1\n              pop\n                /* \"#utility.yul\":7856:7865   */\n              dup2\n                /* \"#utility.yul\":7850:7854   */\n              dup2\n                /* \"#utility.yul\":7846:7866   */\n              sub\n                /* \"#utility.yul\":7842:7843   */\n              0x00\n                /* \"#utility.yul\":7831:7840   */\n              dup4\n                /* \"#utility.yul\":7827:7844   */\n              add\n                /* \"#utility.yul\":7820:7867   */\n              mstore\n                /* \"#utility.yul\":7884:7992   */\n              tag_413\n                /* \"#utility.yul\":7987:7991   */\n              dup2\n                /* \"#utility.yul\":7978:7984   */\n              dup5\n                /* \"#utility.yul\":7884:7992   */\n              tag_276\n              jump\t// in\n            tag_413:\n                /* \"#utility.yul\":7876:7992   */\n              swap1\n              pop\n                /* \"#utility.yul\":7626:7999   */\n              swap3\n              swap2\n              pop\n              pop\n              jump\t// out\n                /* \"#utility.yul\":8005:8122   */\n            tag_277:\n                /* \"#utility.yul\":8114:8115   */\n              0x00\n                /* \"#utility.yul\":8111:8112   */\n              dup1\n                /* \"#utility.yul\":8104:8116   */\n              revert\n                /* \"#utility.yul\":8128:8245   */\n            tag_278:\n                /* \"#utility.yul\":8237:8238   */\n              0x00\n                /* \"#utility.yul\":8234:8235   */\n              dup1\n                /* \"#utility.yul\":8227:8239   */\n              revert\n                /* \"#utility.yul\":8251:8431   */\n            tag_279:\n                /* \"#utility.yul\":8299:8376   */\n              0x4e487b7100000000000000000000000000000000000000000000000000000000\n                /* \"#utility.yul\":8296:8297   */\n              0x00\n                /* \"#utility.yul\":8289:8377   */\n              mstore\n                /* \"#utility.yul\":8396:8400   */\n              0x41\n                /* \"#utility.yul\":8393:8394   */\n              0x04\n                /* \"#utility.yul\":8386:8401   */\n              mstore\n                /* \"#utility.yul\":8420:8424   */\n              0x24\n                /* \"#utility.yul\":8417:8418   */\n              0x00\n                /* \"#utility.yul\":8410:8425   */\n              revert\n                /* \"#utility.yul\":8437:8718   */\n            tag_280:\n                /* \"#utility.yul\":8520:8547   */\n              tag_418\n                /* \"#utility.yul\":8542:8546   */\n              dup3\n                /* \"#utility.yul\":8520:8547   */\n              tag_258\n              jump\t// in\n            tag_418:\n                /* \"#utility.yul\":8512:8518   */\n              dup2\n                /* \"#utility.yul\":8508:8548   */\n              add\n                /* \"#utility.yul\":8650:8656   */\n              dup2\n                /* \"#utility.yul\":8638:8648   */\n              dup2\n                /* \"#utility.yul\":8635:8657   */\n              lt\n                /* \"#utility.yul\":8614:8632   */\n              0xffffffffffffffff\n                /* \"#utility.yul\":8602:8612   */\n              dup3\n                /* \"#utility.yul\":8599:8633   */\n              gt\n                /* \"#utility.yul\":8596:8658   */\n              or\n                /* \"#utility.yul\":8593:8681   */\n              iszero\n              tag_419\n              jumpi\n                /* \"#utility.yul\":8661:8679   */\n              tag_420\n              tag_279\n              jump\t// in\n            tag_420:\n                /* \"#utility.yul\":8593:8681   */\n            tag_419:\n                /* \"#utility.yul\":8701:8711   */\n              dup1\n                /* \"#utility.yul\":8697:8699   */\n              0x40\n                /* \"#utility.yul\":8690:8712   */\n              mstore\n                /* \"#utility.yul\":8480:8718   */\n              pop\n                /* \"#utility.yul\":8437:8718   */\n              pop\n              pop\n              jump\t// out\n                /* \"#utility.yul\":8724:8853   */\n            tag_281:\n                /* \"#utility.yul\":8758:8764   */\n              0x00\n                /* \"#utility.yul\":8785:8805   */\n              tag_422\n              tag_244\n              jump\t// in\n            tag_422:\n                /* \"#utility.yul\":8775:8805   */\n              swap1\n              pop\n                /* \"#utility.yul\":8814:8847   */\n              tag_423\n                /* \"#utility.yul\":8842:8846   */\n              dup3\n                /* \"#utility.yul\":8834:8840   */\n              dup3\n                /* \"#utility.yul\":8814:8847   */\n              tag_280\n              jump\t// in\n            tag_423:\n                /* \"#utility.yul\":8724:8853   */\n              swap2\n              swap1\n              pop\n              jump\t// out\n                /* \"#utility.yul\":8859:9167   */\n            tag_282:\n                /* \"#utility.yul\":8921:8925   */\n              0x00\n                /* \"#utility.yul\":9011:9029   */\n              0xffffffffffffffff\n                /* \"#utility.yul\":9003:9009   */\n              dup3\n                /* \"#utility.yul\":9000:9030   */\n              gt\n                /* \"#utility.yul\":8997:9053   */\n              iszero\n              tag_425\n              jumpi\n                /* \"#utility.yul\":9033:9051   */\n              tag_426\n              tag_279\n              jump\t// in\n            tag_426:\n                /* \"#utility.yul\":8997:9053   */\n            tag_425:\n                /* \"#utility.yul\":9071:9100   */\n              tag_427\n                /* \"#utility.yul\":9093:9099   */\n              dup3\n                /* \"#utility.yul\":9071:9100   */\n              tag_258\n              jump\t// in\n            tag_427:\n                /* \"#utility.yul\":9063:9100   */\n              swap1\n              pop\n                /* \"#utility.yul\":9155:9159   */\n              0x20\n                /* \"#utility.yul\":9149:9153   */\n              dup2\n                /* \"#utility.yul\":9145:9160   */\n              add\n                /* \"#utility.yul\":9137:9160   */\n              swap1\n              pop\n                /* \"#utility.yul\":8859:9167   */\n              swap2\n              swap1\n              pop\n              jump\t// out\n                /* \"#utility.yul\":9173:9319   */\n            tag_283:\n                /* \"#utility.yul\":9270:9276   */\n              dup3\n                /* \"#utility.yul\":9265:9268   */\n              dup2\n                /* \"#utility.yul\":9260:9263   */\n              dup4\n                /* \"#utility.yul\":9247:9277   */\n              calldatacopy\n                /* \"#utility.yul\":9311:9312   */\n              0x00\n                /* \"#utility.yul\":9302:9308   */\n              dup4\n                /* \"#utility.yul\":9297:9300   */\n              dup4\n                /* \"#utility.yul\":9293:9309   */\n              add\n                /* \"#utility.yul\":9286:9313   */\n              mstore\n                /* \"#utility.yul\":9173:9319   */\n              pop\n              pop\n              pop\n              jump\t// out\n                /* \"#utility.yul\":9325:9750   */\n            tag_284:\n                /* \"#utility.yul\":9403:9408   */\n              0x00\n                /* \"#utility.yul\":9428:9494   */\n              tag_430\n                /* \"#utility.yul\":9444:9493   */\n              tag_431\n                /* \"#utility.yul\":9486:9492   */\n              dup5\n                /* \"#utility.yul\":9444:9493   */\n              tag_282\n              jump\t// in\n            tag_431:\n                /* \"#utility.yul\":9428:9494   */\n              tag_281\n              jump\t// in\n            tag_430:\n                /* \"#utility.yul\":9419:9494   */\n              swap1\n              pop\n                /* \"#utility.yul\":9517:9523   */\n              dup3\n                /* \"#utility.yul\":9510:9515   */\n              dup2\n                /* \"#utility.yul\":9503:9524   */\n              mstore\n                /* \"#utility.yul\":9555:9559   */\n              0x20\n                /* \"#utility.yul\":9548:9553   */\n              dup2\n                /* \"#utility.yul\":9544:9560   */\n              add\n                /* \"#utility.yul\":9593:9596   */\n              dup5\n                /* \"#utility.yul\":9584:9590   */\n              dup5\n                /* \"#utility.yul\":9579:9582   */\n              dup5\n                /* \"#utility.yul\":9575:9591   */\n              add\n                /* \"#utility.yul\":9572:9597   */\n              gt\n                /* \"#utility.yul\":9569:9681   */\n              iszero\n              tag_432\n              jumpi\n                /* \"#utility.yul\":9600:9679   */\n              tag_433\n              tag_278\n              jump\t// in\n            tag_433:\n                /* \"#utility.yul\":9569:9681   */\n            tag_432:\n                /* \"#utility.yul\":9690:9744   */\n              tag_434\n                /* \"#utility.yul\":9737:9743   */\n              dup5\n                /* \"#utility.yul\":9732:9735   */\n              dup3\n                /* \"#utility.yul\":9727:9730   */\n              dup6\n                /* \"#utility.yul\":9690:9744   */\n              tag_283\n              jump\t// in\n            tag_434:\n                /* \"#utility.yul\":9409:9750   */\n              pop\n                /* \"#utility.yul\":9325:9750   */\n              swap4\n              swap3\n              pop\n              pop\n              pop\n              jump\t// out\n                /* \"#utility.yul\":9770:10110   */\n            tag_285:\n                /* \"#utility.yul\":9826:9831   */\n              0x00\n                /* \"#utility.yul\":9875:9878   */\n              dup3\n                /* \"#utility.yul\":9868:9872   */\n              0x1f\n                /* \"#utility.yul\":9860:9866   */\n              dup4\n                /* \"#utility.yul\":9856:9873   */\n              add\n                /* \"#utility.yul\":9852:9879   */\n              slt\n                /* \"#utility.yul\":9842:9964   */\n              tag_436\n              jumpi\n                /* \"#utility.yul\":9883:9962   */\n              tag_437\n              tag_277\n              jump\t// in\n            tag_437:\n                /* \"#utility.yul\":9842:9964   */\n            tag_436:\n                /* \"#utility.yul\":10000:10006   */\n              dup2\n                /* \"#utility.yul\":9987:10007   */\n              calldataload\n                /* \"#utility.yul\":10025:10104   */\n              tag_438\n                /* \"#utility.yul\":10100:10103   */\n              dup5\n                /* \"#utility.yul\":10092:10098   */\n              dup3\n                /* \"#utility.yul\":10085:10089   */\n              0x20\n                /* \"#utility.yul\":10077:10083   */\n              dup7\n                /* \"#utility.yul\":10073:10090   */\n              add\n                /* \"#utility.yul\":10025:10104   */\n              tag_284\n              jump\t// in\n            tag_438:\n                /* \"#utility.yul\":10016:10104   */\n              swap2\n              pop\n                /* \"#utility.yul\":9832:10110   */\n              pop\n                /* \"#utility.yul\":9770:10110   */\n              swap3\n              swap2\n              pop\n              pop\n              jump\t// out\n                /* \"#utility.yul\":10116:10238   */\n            tag_286:\n                /* \"#utility.yul\":10189:10213   */\n              tag_440\n                /* \"#utility.yul\":10207:10212   */\n              dup2\n                /* \"#utility.yul\":10189:10213   */\n              tag_251\n              jump\t// in\n            tag_440:\n                /* \"#utility.yul\":10182:10187   */\n              dup2\n                /* \"#utility.yul\":10179:10214   */\n              eq\n                /* \"#utility.yul\":10169:10232   */\n              tag_441\n              jumpi\n                /* \"#utility.yul\":10228:10229   */\n              0x00\n                /* \"#utility.yul\":10225:10226   */\n              dup1\n                /* \"#utility.yul\":10218:10230   */\n              revert\n                /* \"#utility.yul\":10169:10232   */\n            tag_441:\n                /* \"#utility.yul\":10116:10238   */\n              pop\n              jump\t// out\n                /* \"#utility.yul\":10244:10383   */\n            tag_287:\n                /* \"#utility.yul\":10290:10295   */\n              0x00\n                /* \"#utility.yul\":10328:10334   */\n              dup2\n                /* \"#utility.yul\":10315:10335   */\n              calldataload\n                /* \"#utility.yul\":10306:10335   */\n              swap1\n              pop\n                /* \"#utility.yul\":10344:10377   */\n              tag_443\n                /* \"#utility.yul\":10371:10376   */\n              dup2\n                /* \"#utility.yul\":10344:10377   */\n              tag_286\n              jump\t// in\n            tag_443:\n                /* \"#utility.yul\":10244:10383   */\n              swap3\n              swap2\n              pop\n              pop\n              jump\t// out\n                /* \"#utility.yul\":10389:11043   */\n            tag_115:\n                /* \"#utility.yul\":10467:10473   */\n              0x00\n                /* \"#utility.yul\":10475:10481   */\n              dup1\n                /* \"#utility.yul\":10524:10526   */\n              0x40\n                /* \"#utility.yul\":10512:10521   */\n              dup4\n                /* \"#utility.yul\":10503:10510   */\n              dup6\n                /* \"#utility.yul\":10499:10522   */\n              sub\n                /* \"#utility.yul\":10495:10527   */\n              slt\n                /* \"#utility.yul\":10492:10611   */\n              iszero\n              tag_445\n              jumpi\n                /* \"#utility.yul\":10530:10609   */\n              tag_446\n              tag_245\n              jump\t// in\n            tag_446:\n                /* \"#utility.yul\":10492:10611   */\n            tag_445:\n                /* \"#utility.yul\":10678:10679   */\n              0x00\n                /* \"#utility.yul\":10667:10676   */\n              dup4\n                /* \"#utility.yul\":10663:10680   */\n              add\n                /* \"#utility.yul\":10650:10681   */\n              calldataload\n                /* \"#utility.yul\":10708:10726   */\n              0xffffffffffffffff\n                /* \"#utility.yul\":10700:10706   */\n              dup2\n                /* \"#utility.yul\":10697:10727   */\n              gt\n                /* \"#utility.yul\":10694:10811   */\n              iszero\n              tag_447\n              jumpi\n                /* \"#utility.yul\":10730:10809   */\n              tag_448\n              tag_246\n              jump\t// in\n            tag_448:\n                /* \"#utility.yul\":10694:10811   */\n            tag_447:\n                /* \"#utility.yul\":10835:10898   */\n              tag_449\n                /* \"#utility.yul\":10890:10897   */\n              dup6\n                /* \"#utility.yul\":10881:10887   */\n              dup3\n                /* \"#utility.yul\":10870:10879   */\n              dup7\n                /* \"#utility.yul\":10866:10888   */\n              add\n                /* \"#utility.yul\":10835:10898   */\n              tag_285\n              jump\t// in\n            tag_449:\n                /* \"#utility.yul\":10825:10898   */\n              swap3\n              pop\n                /* \"#utility.yul\":10621:10908   */\n              pop\n                /* \"#utility.yul\":10947:10949   */\n              0x20\n                /* \"#utility.yul\":10973:11026   */\n              tag_450\n                /* \"#utility.yul\":11018:11025   */\n              dup6\n                /* \"#utility.yul\":11009:11015   */\n              dup3\n                /* \"#utility.yul\":10998:11007   */\n              dup7\n                /* \"#utility.yul\":10994:11016   */\n              add\n                /* \"#utility.yul\":10973:11026   */\n              tag_287\n              jump\t// in\n            tag_450:\n                /* \"#utility.yul\":10963:11026   */\n              swap2\n              pop\n                /* \"#utility.yul\":10918:11036   */\n              pop\n                /* \"#utility.yul\":10389:11043   */\n              swap3\n              pop\n              swap3\n              swap1\n              pop\n              jump\t// out\n                /* \"#utility.yul\":11049:11378   */\n            tag_123:\n                /* \"#utility.yul\":11108:11114   */\n              0x00\n                /* \"#utility.yul\":11157:11159   */\n              0x20\n                /* \"#utility.yul\":11145:11154   */\n              dup3\n                /* \"#utility.yul\":11136:11143   */\n              dup5\n                /* \"#utility.yul\":11132:11155   */\n              sub\n                /* \"#utility.yul\":11128:11160   */\n              slt\n                /* \"#utility.yul\":11125:11244   */\n              iszero\n              tag_452\n              jumpi\n                /* \"#utility.yul\":11163:11242   */\n              tag_453\n              tag_245\n              jump\t// in\n            tag_453:\n                /* \"#utility.yul\":11125:11244   */\n            tag_452:\n                /* \"#utility.yul\":11283:11284   */\n              0x00\n                /* \"#utility.yul\":11308:11361   */\n              tag_454\n                /* \"#utility.yul\":11353:11360   */\n              dup5\n                /* \"#utility.yul\":11344:11350   */\n              dup3\n                /* \"#utility.yul\":11333:11342   */\n              dup6\n                /* \"#utility.yul\":11329:11351   */\n              add\n                /* \"#utility.yul\":11308:11361   */\n              tag_287\n              jump\t// in\n            tag_454:\n                /* \"#utility.yul\":11298:11361   */\n              swap2\n              pop\n                /* \"#utility.yul\":11254:11371   */\n              pop\n                /* \"#utility.yul\":11049:11378   */\n              swap3\n              swap2\n              pop\n              pop\n              jump\t// out\n                /* \"#utility.yul\":11384:11564   */\n            tag_288:\n                /* \"#utility.yul\":11432:11509   */\n              0x4e487b7100000000000000000000000000000000000000000000000000000000\n                /* \"#utility.yul\":11429:11430   */\n              0x00\n                /* \"#utility.yul\":11422:11510   */\n              mstore\n                /* \"#utility.yul\":11529:11533   */\n              0x22\n                /* \"#utility.yul\":11526:11527   */\n              0x04\n                /* \"#utility.yul\":11519:11534   */\n              mstore\n                /* \"#utility.yul\":11553:11557   */\n              0x24\n                /* \"#utility.yul\":11550:11551   */\n              0x00\n                /* \"#utility.yul\":11543:11558   */\n              revert\n                /* \"#utility.yul\":11570:11890   */\n            tag_138:\n                /* \"#utility.yul\":11614:11620   */\n              0x00\n                /* \"#utility.yul\":11651:11652   */\n              0x02\n                /* \"#utility.yul\":11645:11649   */\n              dup3\n                /* \"#utility.yul\":11641:11653   */\n              div\n                /* \"#utility.yul\":11631:11653   */\n              swap1\n              pop\n                /* \"#utility.yul\":11698:11699   */\n              0x01\n                /* \"#utility.yul\":11692:11696   */\n              dup3\n                /* \"#utility.yul\":11688:11700   */\n              and\n                /* \"#utility.yul\":11719:11737   */\n              dup1\n                /* \"#utility.yul\":11709:11790   */\n              tag_457\n              jumpi\n                /* \"#utility.yul\":11775:11779   */\n              0x7f\n                /* \"#utility.yul\":11767:11773   */\n              dup3\n                /* \"#utility.yul\":11763:11780   */\n              and\n                /* \"#utility.yul\":11753:11780   */\n              swap2\n              pop\n                /* \"#utility.yul\":11709:11790   */\n            tag_457:\n                /* \"#utility.yul\":11837:11839   */\n              0x20\n                /* \"#utility.yul\":11829:11835   */\n              dup3\n                /* \"#utility.yul\":11826:11840   */\n              lt\n                /* \"#utility.yul\":11806:11824   */\n              dup2\n                /* \"#utility.yul\":11803:11841   */\n              sub\n                /* \"#utility.yul\":11800:11884   */\n              tag_458\n              jumpi\n                /* \"#utility.yul\":11856:11874   */\n              tag_459\n              tag_288\n              jump\t// in\n            tag_459:\n                /* \"#utility.yul\":11800:11884   */\n            tag_458:\n                /* \"#utility.yul\":11621:11890   */\n              pop\n                /* \"#utility.yul\":11570:11890   */\n              swap2\n              swap1\n              pop\n              jump\t// out\n                /* \"#utility.yul\":11896:12060   */\n            tag_289:\n                /* \"#utility.yul\":12036:12052   */\n              0x616464726573732064656e696564000000000000000000000000000000000000\n                /* \"#utility.yul\":12032:12033   */\n              0x00\n                /* \"#utility.yul\":12024:12030   */\n              dup3\n                /* \"#utility.yul\":12020:12034   */\n              add\n                /* \"#utility.yul\":12013:12053   */\n              mstore\n                /* \"#utility.yul\":11896:12060   */\n              pop\n              jump\t// out\n                /* \"#utility.yul\":12066:12432   */\n            tag_290:\n                /* \"#utility.yul\":12208:12211   */\n              0x00\n                /* \"#utility.yul\":12229:12296   */\n              tag_462\n                /* \"#utility.yul\":12293:12295   */\n              0x0e\n                /* \"#utility.yul\":12288:12291   */\n              dup4\n                /* \"#utility.yul\":12229:12296   */\n              tag_256\n              jump\t// in\n            tag_462:\n                /* \"#utility.yul\":12222:12296   */\n              swap2\n              pop\n                /* \"#utility.yul\":12305:12398   */\n              tag_463\n                /* \"#utility.yul\":12394:12397   */\n              dup3\n                /* \"#utility.yul\":12305:12398   */\n              tag_289\n              jump\t// in\n            tag_463:\n                /* \"#utility.yul\":12423:12425   */\n              0x20\n                /* \"#utility.yul\":12418:12421   */\n              dup3\n                /* \"#utility.yul\":12414:12426   */\n              add\n                /* \"#utility.yul\":12407:12426   */\n              swap1\n              pop\n                /* \"#utility.yul\":12066:12432   */\n              swap2\n              swap1\n              pop\n              jump\t// out\n                /* \"#utility.yul\":12438:12857   */\n            tag_161:\n                /* \"#utility.yul\":12604:12608   */\n              0x00\n                /* \"#utility.yul\":12642:12644   */\n              0x20\n                /* \"#utility.yul\":12631:12640   */\n              dup3\n                /* \"#utility.yul\":12627:12645   */\n              add\n                /* \"#utility.yul\":12619:12645   */\n              swap1\n              pop\n                /* \"#utility.yul\":12691:12700   */\n              dup2\n                /* \"#utility.yul\":12685:12689   */\n              dup2\n                /* \"#utility.yul\":12681:12701   */\n              sub\n                /* \"#utility.yul\":12677:12678   */\n              0x00\n                /* \"#utility.yul\":12666:12675   */\n              dup4\n                /* \"#utility.yul\":12662:12679   */\n              add\n                /* \"#utility.yul\":12655:12702   */\n              mstore\n                /* \"#utility.yul\":12719:12850   */\n              tag_465\n                /* \"#utility.yul\":12845:12849   */\n              dup2\n                /* \"#utility.yul\":12719:12850   */\n              tag_290\n              jump\t// in\n            tag_465:\n                /* \"#utility.yul\":12711:12850   */\n              swap1\n              pop\n                /* \"#utility.yul\":12438:12857   */\n              swap2\n              swap1\n              pop\n              jump\t// out\n                /* \"#utility.yul\":12863:13010   */\n            tag_291:\n                /* \"#utility.yul\":12964:12975   */\n              0x00\n                /* \"#utility.yul\":13001:13004   */\n              dup2\n                /* \"#utility.yul\":12986:13004   */\n              swap1\n              pop\n                /* \"#utility.yul\":12863:13010   */\n              swap3\n              swap2\n              pop\n              pop\n              jump\t// out\n                /* \"#utility.yul\":13016:13130   */\n            tag_292:\n              pop\n              jump\t// out\n                /* \"#utility.yul\":13136:13534   */\n            tag_293:\n                /* \"#utility.yul\":13295:13298   */\n              0x00\n                /* \"#utility.yul\":13316:13399   */\n              tag_469\n                /* \"#utility.yul\":13397:13398   */\n              0x00\n                /* \"#utility.yul\":13392:13395   */\n              dup4\n                /* \"#utility.yul\":13316:13399   */\n              tag_291\n              jump\t// in\n            tag_469:\n                /* \"#utility.yul\":13309:13399   */\n              swap2\n              pop\n                /* \"#utility.yul\":13408:13501   */\n              tag_470\n                /* \"#utility.yul\":13497:13500   */\n              dup3\n                /* \"#utility.yul\":13408:13501   */\n              tag_292\n              jump\t// in\n            tag_470:\n                /* \"#utility.yul\":13526:13527   */\n              0x00\n                /* \"#utility.yul\":13521:13524   */\n              dup3\n                /* \"#utility.yul\":13517:13528   */\n              add\n                /* \"#utility.yul\":13510:13528   */\n              swap1\n              pop\n                /* \"#utility.yul\":13136:13534   */\n              swap2\n              swap1\n              pop\n              jump\t// out\n                /* \"#utility.yul\":13540:13919   */\n            tag_163:\n                /* \"#utility.yul\":13724:13727   */\n              0x00\n                /* \"#utility.yul\":13746:13893   */\n              tag_472\n                /* \"#utility.yul\":13889:13892   */\n              dup3\n                /* \"#utility.yul\":13746:13893   */\n              tag_293\n              jump\t// in\n            tag_472:\n                /* \"#utility.yul\":13739:13893   */\n              swap2\n              pop\n                /* \"#utility.yul\":13910:13913   */\n              dup2\n                /* \"#utility.yul\":13903:13913   */\n              swap1\n              pop\n                /* \"#utility.yul\":13540:13919   */\n              swap2\n              swap1\n              pop\n              jump\t// out\n                /* \"#utility.yul\":13925:14095   */\n            tag_294:\n                /* \"#utility.yul\":14065:14087   */\n              0x4661696c656420746f2073656e64204574686572000000000000000000000000\n                /* \"#utility.yul\":14061:14062   */\n              0x00\n                /* \"#utility.yul\":14053:14059   */\n              dup3\n                /* \"#utility.yul\":14049:14063   */\n              add\n                /* \"#utility.yul\":14042:14088   */\n              mstore\n                /* \"#utility.yul\":13925:14095   */\n              pop\n              jump\t// out\n                /* \"#utility.yul\":14101:14467   */\n            tag_295:\n                /* \"#utility.yul\":14243:14246   */\n              0x00\n                /* \"#utility.yul\":14264:14331   */\n              tag_475\n                /* \"#utility.yul\":14328:14330   */\n              0x14\n                /* \"#utility.yul\":14323:14326   */\n              dup4\n                /* \"#utility.yul\":14264:14331   */\n              tag_256\n              jump\t// in\n            tag_475:\n                /* \"#utility.yul\":14257:14331   */\n              swap2\n              pop\n                /* \"#utility.yul\":14340:14433   */\n              tag_476\n                /* \"#utility.yul\":14429:14432   */\n              dup3\n                /* \"#utility.yul\":14340:14433   */\n              tag_294\n              jump\t// in\n            tag_476:\n                /* \"#utility.yul\":14458:14460   */\n              0x20\n                /* \"#utility.yul\":14453:14456   */\n              dup3\n                /* \"#utility.yul\":14449:14461   */\n              add\n                /* \"#utility.yul\":14442:14461   */\n              swap1\n              pop\n                /* \"#utility.yul\":14101:14467   */\n              swap2\n              swap1\n              pop\n              jump\t// out\n                /* \"#utility.yul\":14473:14892   */\n            tag_169:\n                /* \"#utility.yul\":14639:14643   */\n              0x00\n                /* \"#utility.yul\":14677:14679   */\n              0x20\n                /* \"#utility.yul\":14666:14675   */\n              dup3\n                /* \"#utility.yul\":14662:14680   */\n              add\n                /* \"#utility.yul\":14654:14680   */\n              swap1\n              pop\n                /* \"#utility.yul\":14726:14735   */\n              dup2\n                /* \"#utility.yul\":14720:14724   */\n              dup2\n                /* \"#utility.yul\":14716:14736   */\n              sub\n                /* \"#utility.yul\":14712:14713   */\n              0x00\n                /* \"#utility.yul\":14701:14710   */\n              dup4\n                /* \"#utility.yul\":14697:14714   */\n              add\n                /* \"#utility.yul\":14690:14737   */\n              mstore\n                /* \"#utility.yul\":14754:14885   */\n              tag_478\n                /* \"#utility.yul\":14880:14884   */\n              dup2\n                /* \"#utility.yul\":14754:14885   */\n              tag_295\n              jump\t// in\n            tag_478:\n                /* \"#utility.yul\":14746:14885   */\n              swap1\n              pop\n                /* \"#utility.yul\":14473:14892   */\n              swap2\n              swap1\n              pop\n              jump\t// out\n                /* \"#utility.yul\":14898:15078   */\n            tag_296:\n                /* \"#utility.yul\":14946:15023   */\n              0x4e487b7100000000000000000000000000000000000000000000000000000000\n                /* \"#utility.yul\":14943:14944   */\n              0x00\n                /* \"#utility.yul\":14936:15024   */\n              mstore\n                /* \"#utility.yul\":15043:15047   */\n              0x11\n                /* \"#utility.yul\":15040:15041   */\n              0x04\n                /* \"#utility.yul\":15033:15048   */\n              mstore\n                /* \"#utility.yul\":15067:15071   */\n              0x24\n                /* \"#utility.yul\":15064:15065   */\n              0x00\n                /* \"#utility.yul\":15057:15072   */\n              revert\n                /* \"#utility.yul\":15084:15275   */\n            tag_178:\n                /* \"#utility.yul\":15124:15127   */\n              0x00\n                /* \"#utility.yul\":15143:15163   */\n              tag_481\n                /* \"#utility.yul\":15161:15162   */\n              dup3\n                /* \"#utility.yul\":15143:15163   */\n              tag_251\n              jump\t// in\n            tag_481:\n                /* \"#utility.yul\":15138:15163   */\n              swap2\n              pop\n                /* \"#utility.yul\":15177:15197   */\n              tag_482\n                /* \"#utility.yul\":15195:15196   */\n              dup4\n                /* \"#utility.yul\":15177:15197   */\n              tag_251\n              jump\t// in\n            tag_482:\n                /* \"#utility.yul\":15172:15197   */\n              swap3\n              pop\n                /* \"#utility.yul\":15220:15221   */\n              dup3\n                /* \"#utility.yul\":15217:15218   */\n              dup3\n                /* \"#utility.yul\":15213:15222   */\n              add\n                /* \"#utility.yul\":15206:15222   */\n              swap1\n              pop\n                /* \"#utility.yul\":15241:15244   */\n              dup1\n                /* \"#utility.yul\":15238:15239   */\n              dup3\n                /* \"#utility.yul\":15235:15245   */\n              gt\n                /* \"#utility.yul\":15232:15268   */\n              iszero\n              tag_483\n              jumpi\n                /* \"#utility.yul\":15248:15266   */\n              tag_484\n              tag_296\n              jump\t// in\n            tag_484:\n                /* \"#utility.yul\":15232:15268   */\n            tag_483:\n                /* \"#utility.yul\":15084:15275   */\n              swap3\n              swap2\n              pop\n              pop\n              jump\t// out\n                /* \"#utility.yul\":15281:15456   */\n            tag_180:\n                /* \"#utility.yul\":15319:15322   */\n              0x00\n                /* \"#utility.yul\":15342:15365   */\n              tag_486\n                /* \"#utility.yul\":15359:15364   */\n              dup3\n                /* \"#utility.yul\":15342:15365   */\n              tag_261\n              jump\t// in\n            tag_486:\n                /* \"#utility.yul\":15333:15365   */\n              swap2\n              pop\n                /* \"#utility.yul\":15387:15397   */\n              0xffffffff\n                /* \"#utility.yul\":15380:15385   */\n              dup3\n                /* \"#utility.yul\":15377:15398   */\n              sub\n                /* \"#utility.yul\":15374:15421   */\n              tag_487\n              jumpi\n                /* \"#utility.yul\":15401:15419   */\n              tag_488\n              tag_296\n              jump\t// in\n            tag_488:\n                /* \"#utility.yul\":15374:15421   */\n            tag_487:\n                /* \"#utility.yul\":15448:15449   */\n              0x01\n                /* \"#utility.yul\":15441:15446   */\n              dup3\n                /* \"#utility.yul\":15437:15450   */\n              add\n                /* \"#utility.yul\":15430:15450   */\n              swap1\n              pop\n                /* \"#utility.yul\":15281:15456   */\n              swap2\n              swap1\n              pop\n              jump\t// out\n                /* \"#utility.yul\":15462:15578   */\n            tag_297:\n                /* \"#utility.yul\":15532:15553   */\n              tag_490\n                /* \"#utility.yul\":15547:15552   */\n              dup2\n                /* \"#utility.yul\":15532:15553   */\n              tag_253\n              jump\t// in\n            tag_490:\n                /* \"#utility.yul\":15525:15530   */\n              dup2\n                /* \"#utility.yul\":15522:15554   */\n              eq\n                /* \"#utility.yul\":15512:15572   */\n              tag_491\n              jumpi\n                /* \"#utility.yul\":15568:15569   */\n              0x00\n                /* \"#utility.yul\":15565:15566   */\n              dup1\n                /* \"#utility.yul\":15558:15570   */\n              revert\n                /* \"#utility.yul\":15512:15572   */\n            tag_491:\n                /* \"#utility.yul\":15462:15578   */\n              pop\n              jump\t// out\n                /* \"#utility.yul\":15584:15721   */\n            tag_298:\n                /* \"#utility.yul\":15638:15643   */\n              0x00\n                /* \"#utility.yul\":15669:15675   */\n              dup2\n                /* \"#utility.yul\":15663:15676   */\n              mload\n                /* \"#utility.yul\":15654:15676   */\n              swap1\n              pop\n                /* \"#utility.yul\":15685:15715   */\n              tag_493\n                /* \"#utility.yul\":15709:15714   */\n              dup2\n                /* \"#utility.yul\":15685:15715   */\n              tag_297\n              jump\t// in\n            tag_493:\n                /* \"#utility.yul\":15584:15721   */\n              swap3\n              swap2\n              pop\n              pop\n              jump\t// out\n                /* \"#utility.yul\":15727:16072   */\n            tag_201:\n                /* \"#utility.yul\":15794:15800   */\n              0x00\n                /* \"#utility.yul\":15843:15845   */\n              0x20\n                /* \"#utility.yul\":15831:15840   */\n              dup3\n                /* \"#utility.yul\":15822:15829   */\n              dup5\n                /* \"#utility.yul\":15818:15841   */\n              sub\n                /* \"#utility.yul\":15814:15846   */\n              slt\n                /* \"#utility.yul\":15811:15930   */\n              iszero\n              tag_495\n              jumpi\n                /* \"#utility.yul\":15849:15928   */\n              tag_496\n              tag_245\n              jump\t// in\n            tag_496:\n                /* \"#utility.yul\":15811:15930   */\n            tag_495:\n                /* \"#utility.yul\":15969:15970   */\n              0x00\n                /* \"#utility.yul\":15994:16055   */\n              tag_497\n                /* \"#utility.yul\":16047:16054   */\n              dup5\n                /* \"#utility.yul\":16038:16044   */\n              dup3\n                /* \"#utility.yul\":16027:16036   */\n              dup6\n                /* \"#utility.yul\":16023:16045   */\n              add\n                /* \"#utility.yul\":15994:16055   */\n              tag_298\n              jump\t// in\n            tag_497:\n                /* \"#utility.yul\":15984:16055   */\n              swap2\n              pop\n                /* \"#utility.yul\":15940:16065   */\n              pop\n                /* \"#utility.yul\":15727:16072   */\n              swap3\n              swap2\n              pop\n              pop\n              jump\t// out\n                /* \"#utility.yul\":16078:16219   */\n            tag_299:\n                /* \"#utility.yul\":16127:16131   */\n              0x00\n                /* \"#utility.yul\":16150:16153   */\n              dup2\n                /* \"#utility.yul\":16142:16153   */\n              swap1\n              pop\n                /* \"#utility.yul\":16173:16176   */\n              dup2\n                /* \"#utility.yul\":16170:16171   */\n              0x00\n                /* \"#utility.yul\":16163:16177   */\n              mstore\n                /* \"#utility.yul\":16207:16211   */\n              0x20\n                /* \"#utility.yul\":16204:16205   */\n              0x00\n                /* \"#utility.yul\":16194:16212   */\n              keccak256\n                /* \"#utility.yul\":16186:16212   */\n              swap1\n              pop\n                /* \"#utility.yul\":16078:16219   */\n              swap2\n              swap1\n              pop\n              jump\t// out\n                /* \"#utility.yul\":16225:16318   */\n            tag_300:\n                /* \"#utility.yul\":16262:16268   */\n              0x00\n                /* \"#utility.yul\":16309:16311   */\n              0x20\n                /* \"#utility.yul\":16304:16306   */\n              0x1f\n                /* \"#utility.yul\":16297:16302   */\n              dup4\n                /* \"#utility.yul\":16293:16307   */\n              add\n                /* \"#utility.yul\":16289:16312   */\n              div\n                /* \"#utility.yul\":16279:16312   */\n              swap1\n              pop\n                /* \"#utility.yul\":16225:16318   */\n              swap2\n              swap1\n              pop\n              jump\t// out\n                /* \"#utility.yul\":16324:16431   */\n            tag_301:\n                /* \"#utility.yul\":16368:16376   */\n              0x00\n                /* \"#utility.yul\":16418:16423   */\n              dup3\n                /* \"#utility.yul\":16412:16416   */\n              dup3\n                /* \"#utility.yul\":16408:16424   */\n              shl\n                /* \"#utility.yul\":16387:16424   */\n              swap1\n              pop\n                /* \"#utility.yul\":16324:16431   */\n              swap3\n              swap2\n              pop\n              pop\n              jump\t// out\n                /* \"#utility.yul\":16437:16830   */\n            tag_302:\n                /* \"#utility.yul\":16506:16512   */\n              0x00\n                /* \"#utility.yul\":16556:16557   */\n              0x08\n                /* \"#utility.yul\":16544:16554   */\n              dup4\n                /* \"#utility.yul\":16540:16558   */\n              mul\n                /* \"#utility.yul\":16579:16676   */\n              tag_502\n                /* \"#utility.yul\":16609:16675   */\n              0xffffffffffffffffffffffffffffffffffffffffffffffffffffffffffffffff\n                /* \"#utility.yul\":16598:16607   */\n              dup3\n                /* \"#utility.yul\":16579:16676   */\n              tag_301\n              jump\t// in\n            tag_502:\n                /* \"#utility.yul\":16697:16736   */\n              tag_503\n                /* \"#utility.yul\":16727:16735   */\n              dup7\n                /* \"#utility.yul\":16716:16725   */\n              dup4\n                /* \"#utility.yul\":16697:16736   */\n              tag_301\n              jump\t// in\n            tag_503:\n                /* \"#utility.yul\":16685:16736   */\n              swap6\n              pop\n                /* \"#utility.yul\":16769:16773   */\n              dup1\n                /* \"#utility.yul\":16765:16774   */\n              not\n                /* \"#utility.yul\":16758:16763   */\n              dup5\n                /* \"#utility.yul\":16754:16775   */\n              and\n                /* \"#utility.yul\":16745:16775   */\n              swap4\n              pop\n                /* \"#utility.yul\":16818:16822   */\n              dup1\n                /* \"#utility.yul\":16808:16816   */\n              dup7\n                /* \"#utility.yul\":16804:16823   */\n              and\n                /* \"#utility.yul\":16797:16802   */\n              dup5\n                /* \"#utility.yul\":16794:16824   */\n              or\n                /* \"#utility.yul\":16784:16824   */\n              swap3\n              pop\n                /* \"#utility.yul\":16513:16830   */\n              pop\n              pop\n                /* \"#utility.yul\":16437:16830   */\n              swap4\n              swap3\n              pop\n              pop\n              pop\n              jump\t// out\n                /* \"#utility.yul\":16836:16896   */\n            tag_303:\n                /* \"#utility.yul\":16864:16867   */\n              0x00\n                /* \"#utility.yul\":16885:16890   */\n              dup2\n                /* \"#utility.yul\":16878:16890   */\n              swap1\n              pop\n                /* \"#utility.yul\":16836:16896   */\n              swap2\n              swap1\n              pop\n              jump\t// out\n                /* \"#utility.yul\":16902:17044   */\n            tag_304:\n                /* \"#utility.yul\":16952:16961   */\n              0x00\n                /* \"#utility.yul\":16985:17038   */\n              tag_506\n                /* \"#utility.yul\":17003:17037   */\n              tag_507\n                /* \"#utility.yul\":17012:17036   */\n              tag_508\n                /* \"#utility.yul\":17030:17035   */\n              dup5\n                /* \"#utility.yul\":17012:17036   */\n              tag_251\n              jump\t// in\n            tag_508:\n                /* \"#utility.yul\":17003:17037   */\n              tag_303\n              jump\t// in\n            tag_507:\n                /* \"#utility.yul\":16985:17038   */\n              tag_251\n              jump\t// in\n            tag_506:\n                /* \"#utility.yul\":16972:17038   */\n              swap1\n              pop\n                /* \"#utility.yul\":16902:17044   */\n              swap2\n              swap1\n              pop\n              jump\t// out\n                /* \"#utility.yul\":17050:17125   */\n            tag_305:\n                /* \"#utility.yul\":17093:17096   */\n              0x00\n                /* \"#utility.yul\":17114:17119   */\n              dup2\n                /* \"#utility.yul\":17107:17119   */\n              swap1\n              pop\n                /* \"#utility.yul\":17050:17125   */\n              swap2\n              swap1\n              pop\n              jump\t// out\n                /* \"#utility.yul\":17131:17400   */\n            tag_306:\n                /* \"#utility.yul\":17241:17280   */\n              tag_511\n                /* \"#utility.yul\":17272:17279   */\n              dup4\n                /* \"#utility.yul\":17241:17280   */\n              tag_304\n              jump\t// in\n            tag_511:\n                /* \"#utility.yul\":17302:17393   */\n              tag_512\n                /* \"#utility.yul\":17351:17392   */\n              tag_513\n                /* \"#utility.yul\":17375:17391   */\n              dup3\n                /* \"#utility.yul\":17351:17392   */\n              tag_305\n              jump\t// in\n            tag_513:\n                /* \"#utility.yul\":17343:17349   */\n              dup5\n                /* \"#utility.yul\":17336:17340   */\n              dup5\n                /* \"#utility.yul\":17330:17341   */\n              sload\n                /* \"#utility.yul\":17302:17393   */\n              tag_302\n              jump\t// in\n            tag_512:\n                /* \"#utility.yul\":17296:17300   */\n              dup3\n                /* \"#utility.yul\":17289:17394   */\n              sstore\n                /* \"#utility.yul\":17207:17400   */\n              pop\n                /* \"#utility.yul\":17131:17400   */\n              pop\n              pop\n              pop\n              jump\t// out\n                /* \"#utility.yul\":17406:17479   */\n            tag_307:\n                /* \"#utility.yul\":17451:17454   */\n              0x00\n                /* \"#utility.yul\":17406:17479   */\n              swap1\n              jump\t// out\n                /* \"#utility.yul\":17485:17674   */\n            tag_308:\n                /* \"#utility.yul\":17562:17594   */\n              tag_516\n              tag_307\n              jump\t// in\n            tag_516:\n                /* \"#utility.yul\":17603:17668   */\n              tag_517\n                /* \"#utility.yul\":17661:17667   */\n              dup2\n                /* \"#utility.yul\":17653:17659   */\n              dup5\n                /* \"#utility.yul\":17647:17651   */\n              dup5\n                /* \"#utility.yul\":17603:17668   */\n              tag_306\n              jump\t// in\n            tag_517:\n                /* \"#utility.yul\":17538:17674   */\n              pop\n                /* \"#utility.yul\":17485:17674   */\n              pop\n              pop\n              jump\t// out\n                /* \"#utility.yul\":17680:17866   */\n            tag_309:\n                /* \"#utility.yul\":17740:17860   */\n            tag_519:\n                /* \"#utility.yul\":17757:17760   */\n              dup2\n                /* \"#utility.yul\":17750:17755   */\n              dup2\n                /* \"#utility.yul\":17747:17761   */\n              lt\n                /* \"#utility.yul\":17740:17860   */\n              iszero\n              tag_521\n              jumpi\n                /* \"#utility.yul\":17811:17850   */\n              tag_522\n                /* \"#utility.yul\":17848:17849   */\n              0x00\n                /* \"#utility.yul\":17841:17846   */\n              dup3\n                /* \"#utility.yul\":17811:17850   */\n              tag_308\n              jump\t// in\n            tag_522:\n                /* \"#utility.yul\":17784:17785   */\n              0x01\n                /* \"#utility.yul\":17777:17782   */\n              dup2\n                /* \"#utility.yul\":17773:17786   */\n              add\n                /* \"#utility.yul\":17764:17786   */\n              swap1\n              pop\n                /* \"#utility.yul\":17740:17860   */\n              jump(tag_519)\n            tag_521:\n                /* \"#utility.yul\":17680:17866   */\n              pop\n              pop\n              jump\t// out\n                /* \"#utility.yul\":17872:18415   */\n            tag_310:\n                /* \"#utility.yul\":17973:17975   */\n              0x1f\n                /* \"#utility.yul\":17968:17971   */\n              dup3\n                /* \"#utility.yul\":17965:17976   */\n              gt\n                /* \"#utility.yul\":17962:18408   */\n              iszero\n              tag_524\n              jumpi\n                /* \"#utility.yul\":18007:18045   */\n              tag_525\n                /* \"#utility.yul\":18039:18044   */\n              dup2\n                /* \"#utility.yul\":18007:18045   */\n              tag_299\n              jump\t// in\n            tag_525:\n                /* \"#utility.yul\":18091:18120   */\n              tag_526\n                /* \"#utility.yul\":18109:18119   */\n              dup5\n                /* \"#utility.yul\":18091:18120   */\n              tag_300\n              jump\t// in\n            tag_526:\n                /* \"#utility.yul\":18081:18089   */\n              dup2\n                /* \"#utility.yul\":18077:18121   */\n              add\n                /* \"#utility.yul\":18274:18276   */\n              0x20\n                /* \"#utility.yul\":18262:18272   */\n              dup6\n                /* \"#utility.yul\":18259:18277   */\n              lt\n                /* \"#utility.yul\":18256:18305   */\n              iszero\n              tag_527\n              jumpi\n                /* \"#utility.yul\":18295:18303   */\n              dup2\n                /* \"#utility.yul\":18280:18303   */\n              swap1\n              pop\n                /* \"#utility.yul\":18256:18305   */\n            tag_527:\n                /* \"#utility.yul\":18318:18398   */\n              tag_528\n                /* \"#utility.yul\":18374:18396   */\n              tag_529\n                /* \"#utility.yul\":18392:18395   */\n              dup6\n                /* \"#utility.yul\":18374:18396   */\n              tag_300\n              jump\t// in\n            tag_529:\n                /* \"#utility.yul\":18364:18372   */\n              dup4\n                /* \"#utility.yul\":18360:18397   */\n              add\n                /* \"#utility.yul\":18347:18358   */\n              dup3\n                /* \"#utility.yul\":18318:18398   */\n              tag_309\n              jump\t// in\n            tag_528:\n                /* \"#utility.yul\":17977:18408   */\n              pop\n              pop\n                /* \"#utility.yul\":17962:18408   */\n            tag_524:\n                /* \"#utility.yul\":17872:18415   */\n              pop\n              pop\n              pop\n              jump\t// out\n                /* \"#utility.yul\":18421:18538   */\n            tag_311:\n                /* \"#utility.yul\":18475:18483   */\n              0x00\n                /* \"#utility.yul\":18525:18530   */\n              dup3\n                /* \"#utility.yul\":18519:18523   */\n              dup3\n                /* \"#utility.yul\":18515:18531   */\n              shr\n                /* \"#utility.yul\":18494:18531   */\n              swap1\n              pop\n                /* \"#utility.yul\":18421:18538   */\n              swap3\n              swap2\n              pop\n              pop\n              jump\t// out\n                /* \"#utility.yul\":18544:18713   */\n            tag_312:\n                /* \"#utility.yul\":18588:18594   */\n              0x00\n                /* \"#utility.yul\":18621:18672   */\n              tag_532\n                /* \"#utility.yul\":18669:18670   */\n              0x00\n                /* \"#utility.yul\":18665:18671   */\n              not\n                /* \"#utility.yul\":18657:18662   */\n              dup5\n                /* \"#utility.yul\":18654:18655   */\n              0x08\n                /* \"#utility.yul\":18650:18663   */\n              mul\n                /* \"#utility.yul\":18621:18672   */\n              tag_311\n              jump\t// in\n            tag_532:\n                /* \"#utility.yul\":18617:18673   */\n              not\n                /* \"#utility.yul\":18702:18706   */\n              dup1\n                /* \"#utility.yul\":18696:18700   */\n              dup4\n                /* \"#utility.yul\":18692:18707   */\n              and\n                /* \"#utility.yul\":18682:18707   */\n              swap2\n              pop\n                /* \"#utility.yul\":18595:18713   */\n              pop\n                /* \"#utility.yul\":18544:18713   */\n              swap3\n              swap2\n              pop\n              pop\n              jump\t// out\n                /* \"#utility.yul\":18718:19013   */\n            tag_313:\n                /* \"#utility.yul\":18794:18798   */\n              0x00\n                /* \"#utility.yul\":18940:18969   */\n              tag_534\n                /* \"#utility.yul\":18965:18968   */\n              dup4\n                /* \"#utility.yul\":18959:18963   */\n              dup4\n                /* \"#utility.yul\":18940:18969   */\n              tag_312\n              jump\t// in\n            tag_534:\n                /* \"#utility.yul\":18932:18969   */\n              swap2\n              pop\n                /* \"#utility.yul\":19002:19005   */\n              dup3\n                /* \"#utility.yul\":18999:19000   */\n              0x02\n                /* \"#utility.yul\":18995:19006   */\n              mul\n                /* \"#utility.yul\":18989:18993   */\n              dup3\n                /* \"#utility.yul\":18986:19007   */\n              or\n                /* \"#utility.yul\":18978:19007   */\n              swap1\n              pop\n                /* \"#utility.yul\":18718:19013   */\n              swap3\n              swap2\n              pop\n              pop\n              jump\t// out\n                /* \"#utility.yul\":19018:20413   */\n            tag_205:\n                /* \"#utility.yul\":19135:19172   */\n              tag_536\n                /* \"#utility.yul\":19168:19171   */\n              dup3\n                /* \"#utility.yul\":19135:19172   */\n              tag_255\n              jump\t// in\n            tag_536:\n                /* \"#utility.yul\":19237:19255   */\n              0xffffffffffffffff\n                /* \"#utility.yul\":19229:19235   */\n              dup2\n                /* \"#utility.yul\":19226:19256   */\n              gt\n                /* \"#utility.yul\":19223:19279   */\n              iszero\n              tag_537\n              jumpi\n                /* \"#utility.yul\":19259:19277   */\n              tag_538\n              tag_279\n              jump\t// in\n            tag_538:\n                /* \"#utility.yul\":19223:19279   */\n            tag_537:\n                /* \"#utility.yul\":19303:19341   */\n              tag_539\n                /* \"#utility.yul\":19335:19339   */\n              dup3\n                /* \"#utility.yul\":19329:19340   */\n              sload\n                /* \"#utility.yul\":19303:19341   */\n              tag_138\n              jump\t// in\n            tag_539:\n                /* \"#utility.yul\":19388:19455   */\n              tag_540\n                /* \"#utility.yul\":19448:19454   */\n              dup3\n                /* \"#utility.yul\":19440:19446   */\n              dup3\n                /* \"#utility.yul\":19434:19438   */\n              dup6\n                /* \"#utility.yul\":19388:19455   */\n              tag_310\n              jump\t// in\n            tag_540:\n                /* \"#utility.yul\":19482:19483   */\n              0x00\n                /* \"#utility.yul\":19506:19510   */\n              0x20\n                /* \"#utility.yul\":19493:19510   */\n              swap1\n              pop\n                /* \"#utility.yul\":19538:19540   */\n              0x1f\n                /* \"#utility.yul\":19530:19536   */\n              dup4\n                /* \"#utility.yul\":19527:19541   */\n              gt\n                /* \"#utility.yul\":19555:19556   */\n              0x01\n                /* \"#utility.yul\":19550:20168   */\n              dup2\n              eq\n              tag_542\n              jumpi\n                /* \"#utility.yul\":20212:20213   */\n              0x00\n                /* \"#utility.yul\":20229:20235   */\n              dup5\n                /* \"#utility.yul\":20226:20303   */\n              iszero\n              tag_543\n              jumpi\n                /* \"#utility.yul\":20278:20287   */\n              dup3\n                /* \"#utility.yul\":20273:20276   */\n              dup8\n                /* \"#utility.yul\":20269:20288   */\n              add\n                /* \"#utility.yul\":20263:20289   */\n              mload\n                /* \"#utility.yul\":20254:20289   */\n              swap1\n              pop\n                /* \"#utility.yul\":20226:20303   */\n            tag_543:\n                /* \"#utility.yul\":20329:20396   */\n              tag_544\n                /* \"#utility.yul\":20389:20395   */\n              dup6\n                /* \"#utility.yul\":20382:20387   */\n              dup3\n                /* \"#utility.yul\":20329:20396   */\n              tag_313\n              jump\t// in\n            tag_544:\n                /* \"#utility.yul\":20323:20327   */\n              dup7\n                /* \"#utility.yul\":20316:20397   */\n              sstore\n                /* \"#utility.yul\":20185:20407   */\n              pop\n                /* \"#utility.yul\":19520:20407   */\n              jump(tag_541)\n                /* \"#utility.yul\":19550:20168   */\n            tag_542:\n                /* \"#utility.yul\":19602:19606   */\n              0x1f\n                /* \"#utility.yul\":19598:19607   */\n              not\n                /* \"#utility.yul\":19590:19596   */\n              dup5\n                /* \"#utility.yul\":19586:19608   */\n              and\n                /* \"#utility.yul\":19636:19673   */\n              tag_545\n                /* \"#utility.yul\":19668:19672   */\n              dup7\n                /* \"#utility.yul\":19636:19673   */\n              tag_299\n              jump\t// in\n            tag_545:\n                /* \"#utility.yul\":19695:19696   */\n              0x00\n                /* \"#utility.yul\":19709:19917   */\n            tag_546:\n                /* \"#utility.yul\":19723:19730   */\n              dup3\n                /* \"#utility.yul\":19720:19721   */\n              dup2\n                /* \"#utility.yul\":19717:19731   */\n              lt\n                /* \"#utility.yul\":19709:19917   */\n              iszero\n              tag_548\n              jumpi\n                /* \"#utility.yul\":19802:19811   */\n              dup5\n                /* \"#utility.yul\":19797:19800   */\n              dup10\n                /* \"#utility.yul\":19793:19812   */\n              add\n                /* \"#utility.yul\":19787:19813   */\n              mload\n                /* \"#utility.yul\":19779:19785   */\n              dup3\n                /* \"#utility.yul\":19772:19814   */\n              sstore\n                /* \"#utility.yul\":19853:19854   */\n              0x01\n                /* \"#utility.yul\":19845:19851   */\n              dup3\n                /* \"#utility.yul\":19841:19855   */\n              add\n                /* \"#utility.yul\":19831:19855   */\n              swap2\n              pop\n                /* \"#utility.yul\":19900:19902   */\n              0x20\n                /* \"#utility.yul\":19889:19898   */\n              dup6\n                /* \"#utility.yul\":19885:19903   */\n              add\n                /* \"#utility.yul\":19872:19903   */\n              swap5\n              pop\n                /* \"#utility.yul\":19746:19750   */\n              0x20\n                /* \"#utility.yul\":19743:19744   */\n              dup2\n                /* \"#utility.yul\":19739:19751   */\n              add\n                /* \"#utility.yul\":19734:19751   */\n              swap1\n              pop\n                /* \"#utility.yul\":19709:19917   */\n              jump(tag_546)\n            tag_548:\n                /* \"#utility.yul\":19945:19951   */\n              dup7\n                /* \"#utility.yul\":19936:19943   */\n              dup4\n                /* \"#utility.yul\":19933:19952   */\n              lt\n                /* \"#utility.yul\":19930:20109   */\n              iszero\n              tag_549\n              jumpi\n                /* \"#utility.yul\":20003:20012   */\n              dup5\n                /* \"#utility.yul\":19998:20001   */\n              dup10\n                /* \"#utility.yul\":19994:20013   */\n              add\n                /* \"#utility.yul\":19988:20014   */\n              mload\n                /* \"#utility.yul\":20046:20094   */\n              tag_550\n                /* \"#utility.yul\":20088:20092   */\n              0x1f\n                /* \"#utility.yul\":20080:20086   */\n              dup10\n                /* \"#utility.yul\":20076:20093   */\n              and\n                /* \"#utility.yul\":20065:20074   */\n              dup3\n                /* \"#utility.yul\":20046:20094   */\n              tag_312\n              jump\t// in\n            tag_550:\n                /* \"#utility.yul\":20038:20044   */\n              dup4\n                /* \"#utility.yul\":20031:20095   */\n              sstore\n                /* \"#utility.yul\":19953:20109   */\n              pop\n                /* \"#utility.yul\":19930:20109   */\n            tag_549:\n                /* \"#utility.yul\":20155:20156   */\n              0x01\n                /* \"#utility.yul\":20151:20152   */\n              0x02\n                /* \"#utility.yul\":20143:20149   */\n              dup9\n                /* \"#utility.yul\":20139:20153   */\n              mul\n                /* \"#utility.yul\":20135:20157   */\n              add\n                /* \"#utility.yul\":20129:20133   */\n              dup9\n                /* \"#utility.yul\":20122:20158   */\n              sstore\n                /* \"#utility.yul\":19557:20168   */\n              pop\n              pop\n              pop\n                /* \"#utility.yul\":19520:20407   */\n            tag_541:\n              pop\n                /* \"#utility.yul\":19110:20413   */\n              pop\n              pop\n              pop\n                /* \"#utility.yul\":19018:20413   */\n              pop\n              pop\n              jump\t// out\n                /* \"#utility.yul\":20419:20730   */\n            tag_314:\n                /* \"#utility.yul\":20496:20500   */\n              0x00\n                /* \"#utility.yul\":20586:20604   */\n              0xffffffffffffffff\n                /* \"#utility.yul\":20578:20584   */\n              dup3\n                /* \"#utility.yul\":20575:20605   */\n              gt\n                /* \"#utility.yul\":20572:20628   */\n              iszero\n              tag_552\n              jumpi\n                /* \"#utility.yul\":20608:20626   */\n              tag_553\n              tag_279\n              jump\t// in\n            tag_553:\n                /* \"#utility.yul\":20572:20628   */\n            tag_552:\n                /* \"#utility.yul\":20658:20662   */\n              0x20\n                /* \"#utility.yul\":20650:20656   */\n              dup3\n                /* \"#utility.yul\":20646:20663   */\n              mul\n                /* \"#utility.yul\":20638:20663   */\n              swap1\n              pop\n                /* \"#utility.yul\":20718:20722   */\n              0x20\n                /* \"#utility.yul\":20712:20716   */\n              dup2\n                /* \"#utility.yul\":20708:20723   */\n              add\n                /* \"#utility.yul\":20700:20723   */\n              swap1\n              pop\n                /* \"#utility.yul\":20419:20730   */\n              swap2\n              swap1\n              pop\n              jump\t// out\n                /* \"#utility.yul\":20736:20853   */\n            tag_315:\n                /* \"#utility.yul\":20845:20846   */\n              0x00\n                /* \"#utility.yul\":20842:20843   */\n              dup1\n                /* \"#utility.yul\":20835:20847   */\n              revert\n                /* \"#utility.yul\":20859:21002   */\n            tag_316:\n                /* \"#utility.yul\":20916:20921   */\n              0x00\n                /* \"#utility.yul\":20947:20953   */\n              dup2\n                /* \"#utility.yul\":20941:20954   */\n              mload\n                /* \"#utility.yul\":20932:20954   */\n              swap1\n              pop\n                /* \"#utility.yul\":20963:20996   */\n              tag_556\n                /* \"#utility.yul\":20990:20995   */\n              dup2\n                /* \"#utility.yul\":20963:20996   */\n              tag_249\n              jump\t// in\n            tag_556:\n                /* \"#utility.yul\":20859:21002   */\n              swap3\n              swap2\n              pop\n              pop\n              jump\t// out\n                /* \"#utility.yul\":21025:21757   */\n            tag_317:\n                /* \"#utility.yul\":21132:21137   */\n              0x00\n                /* \"#utility.yul\":21157:21238   */\n              tag_558\n                /* \"#utility.yul\":21173:21237   */\n              tag_559\n                /* \"#utility.yul\":21230:21236   */\n              dup5\n                /* \"#utility.yul\":21173:21237   */\n              tag_314\n              jump\t// in\n            tag_559:\n                /* \"#utility.yul\":21157:21238   */\n              tag_281\n              jump\t// in\n            tag_558:\n                /* \"#utility.yul\":21148:21238   */\n              swap1\n              pop\n                /* \"#utility.yul\":21258:21263   */\n              dup1\n                /* \"#utility.yul\":21287:21293   */\n              dup4\n                /* \"#utility.yul\":21280:21285   */\n              dup3\n                /* \"#utility.yul\":21273:21294   */\n              mstore\n                /* \"#utility.yul\":21321:21325   */\n              0x20\n                /* \"#utility.yul\":21314:21319   */\n              dup3\n                /* \"#utility.yul\":21310:21326   */\n              add\n                /* \"#utility.yul\":21303:21326   */\n              swap1\n              pop\n                /* \"#utility.yul\":21374:21378   */\n              0x20\n                /* \"#utility.yul\":21366:21372   */\n              dup5\n                /* \"#utility.yul\":21362:21379   */\n              mul\n                /* \"#utility.yul\":21354:21360   */\n              dup4\n                /* \"#utility.yul\":21350:21380   */\n              add\n                /* \"#utility.yul\":21403:21406   */\n              dup6\n                /* \"#utility.yul\":21395:21401   */\n              dup2\n                /* \"#utility.yul\":21392:21407   */\n              gt\n                /* \"#utility.yul\":21389:21511   */\n              iszero\n              tag_560\n              jumpi\n                /* \"#utility.yul\":21422:21501   */\n              tag_561\n              tag_315\n              jump\t// in\n            tag_561:\n                /* \"#utility.yul\":21389:21511   */\n            tag_560:\n                /* \"#utility.yul\":21537:21543   */\n              dup4\n                /* \"#utility.yul\":21520:21751   */\n            tag_562:\n                /* \"#utility.yul\":21554:21560   */\n              dup2\n                /* \"#utility.yul\":21549:21552   */\n              dup2\n                /* \"#utility.yul\":21546:21561   */\n              lt\n                /* \"#utility.yul\":21520:21751   */\n              iszero\n              tag_564\n              jumpi\n                /* \"#utility.yul\":21629:21632   */\n              dup1\n                /* \"#utility.yul\":21658:21706   */\n              tag_565\n                /* \"#utility.yul\":21702:21705   */\n              dup9\n                /* \"#utility.yul\":21690:21700   */\n              dup3\n                /* \"#utility.yul\":21658:21706   */\n              tag_316\n              jump\t// in\n            tag_565:\n                /* \"#utility.yul\":21653:21656   */\n              dup5\n                /* \"#utility.yul\":21646:21707   */\n              mstore\n                /* \"#utility.yul\":21736:21740   */\n              0x20\n                /* \"#utility.yul\":21731:21734   */\n              dup5\n                /* \"#utility.yul\":21727:21741   */\n              add\n                /* \"#utility.yul\":21720:21741   */\n              swap4\n              pop\n                /* \"#utility.yul\":21596:21751   */\n              pop\n                /* \"#utility.yul\":21580:21584   */\n              0x20\n                /* \"#utility.yul\":21575:21578   */\n              dup2\n                /* \"#utility.yul\":21571:21585   */\n              add\n                /* \"#utility.yul\":21564:21585   */\n              swap1\n              pop\n                /* \"#utility.yul\":21520:21751   */\n              jump(tag_562)\n            tag_564:\n                /* \"#utility.yul\":21524:21545   */\n              pop\n                /* \"#utility.yul\":21138:21757   */\n              pop\n              pop\n                /* \"#utility.yul\":21025:21757   */\n              swap4\n              swap3\n              pop\n              pop\n              pop\n              jump\t// out\n                /* \"#utility.yul\":21780:22165   */\n            tag_318:\n                /* \"#utility.yul\":21862:21867   */\n              0x00\n                /* \"#utility.yul\":21911:21914   */\n              dup3\n                /* \"#utility.yul\":21904:21908   */\n              0x1f\n                /* \"#utility.yul\":21896:21902   */\n              dup4\n                /* \"#utility.yul\":21892:21909   */\n              add\n                /* \"#utility.yul\":21888:21915   */\n              slt\n                /* \"#utility.yul\":21878:22000   */\n              tag_567\n              jumpi\n                /* \"#utility.yul\":21919:21998   */\n              tag_568\n              tag_277\n              jump\t// in\n            tag_568:\n                /* \"#utility.yul\":21878:22000   */\n            tag_567:\n                /* \"#utility.yul\":22029:22035   */\n              dup2\n                /* \"#utility.yul\":22023:22036   */\n              mload\n                /* \"#utility.yul\":22054:22159   */\n              tag_569\n                /* \"#utility.yul\":22155:22158   */\n              dup5\n                /* \"#utility.yul\":22147:22153   */\n              dup3\n                /* \"#utility.yul\":22140:22144   */\n              0x20\n                /* \"#utility.yul\":22132:22138   */\n              dup7\n                /* \"#utility.yul\":22128:22145   */\n              add\n                /* \"#utility.yul\":22054:22159   */\n              tag_317\n              jump\t// in\n            tag_569:\n                /* \"#utility.yul\":22045:22159   */\n              swap2\n              pop\n                /* \"#utility.yul\":21868:22165   */\n              pop\n                /* \"#utility.yul\":21780:22165   */\n              swap3\n              swap2\n              pop\n              pop\n              jump\t// out\n                /* \"#utility.yul\":22171:22725   */\n            tag_217:\n                /* \"#utility.yul\":22266:22272   */\n              0x00\n                /* \"#utility.yul\":22315:22317   */\n              0x20\n                /* \"#utility.yul\":22303:22312   */\n              dup3\n                /* \"#utility.yul\":22294:22301   */\n              dup5\n                /* \"#utility.yul\":22290:22313   */\n              sub\n                /* \"#utility.yul\":22286:22318   */\n              slt\n                /* \"#utility.yul\":22283:22402   */\n              iszero\n              tag_571\n              jumpi\n                /* \"#utility.yul\":22321:22400   */\n              tag_572\n              tag_245\n              jump\t// in\n            tag_572:\n                /* \"#utility.yul\":22283:22402   */\n            tag_571:\n                /* \"#utility.yul\":22462:22463   */\n              0x00\n                /* \"#utility.yul\":22451:22460   */\n              dup3\n                /* \"#utility.yul\":22447:22464   */\n              add\n                /* \"#utility.yul\":22441:22465   */\n              mload\n                /* \"#utility.yul\":22492:22510   */\n              0xffffffffffffffff\n                /* \"#utility.yul\":22484:22490   */\n              dup2\n                /* \"#utility.yul\":22481:22511   */\n              gt\n                /* \"#utility.yul\":22478:22595   */\n              iszero\n              tag_573\n              jumpi\n                /* \"#utility.yul\":22514:22593   */\n              tag_574\n              tag_246\n              jump\t// in\n            tag_574:\n                /* \"#utility.yul\":22478:22595   */\n            tag_573:\n                /* \"#utility.yul\":22619:22708   */\n              tag_575\n                /* \"#utility.yul\":22700:22707   */\n              dup5\n                /* \"#utility.yul\":22691:22697   */\n              dup3\n                /* \"#utility.yul\":22680:22689   */\n              dup6\n                /* \"#utility.yul\":22676:22698   */\n              add\n                /* \"#utility.yul\":22619:22708   */\n              tag_318\n              jump\t// in\n            tag_575:\n                /* \"#utility.yul\":22609:22708   */\n              swap2\n              pop\n                /* \"#utility.yul\":22412:22718   */\n              pop\n                /* \"#utility.yul\":22171:22725   */\n              swap3\n              swap2\n              pop\n              pop\n              jump\t// out\n                /* \"#utility.yul\":22731:22911   */\n            tag_222:\n                /* \"#utility.yul\":22779:22856   */\n              0x4e487b7100000000000000000000000000000000000000000000000000000000\n                /* \"#utility.yul\":22776:22777   */\n              0x00\n                /* \"#utility.yul\":22769:22857   */\n              mstore\n                /* \"#utility.yul\":22876:22880   */\n              0x32\n                /* \"#utility.yul\":22873:22874   */\n              0x04\n                /* \"#utility.yul\":22866:22881   */\n              mstore\n                /* \"#utility.yul\":22900:22904   */\n              0x24\n                /* \"#utility.yul\":22897:22898   */\n              0x00\n                /* \"#utility.yul\":22890:22905   */\n              revert\n                /* \"#utility.yul\":22917:23038   */\n            tag_319:\n                /* \"#utility.yul\":23006:23007   */\n              0x02\n                /* \"#utility.yul\":22999:23004   */\n              dup2\n                /* \"#utility.yul\":22996:23008   */\n              lt\n                /* \"#utility.yul\":22986:23032   */\n              tag_578\n              jumpi\n                /* \"#utility.yul\":23012:23030   */\n              tag_579\n              tag_135\n              jump\t// in\n            tag_579:\n                /* \"#utility.yul\":22986:23032   */\n            tag_578:\n                /* \"#utility.yul\":22917:23038   */\n              pop\n              jump\t// out\n                /* \"#utility.yul\":23044:23187   */\n            tag_320:\n                /* \"#utility.yul\":23097:23104   */\n              0x00\n                /* \"#utility.yul\":23126:23131   */\n              dup2\n                /* \"#utility.yul\":23115:23131   */\n              swap1\n              pop\n                /* \"#utility.yul\":23132:23181   */\n              tag_581\n                /* \"#utility.yul\":23175:23180   */\n              dup3\n                /* \"#utility.yul\":23132:23181   */\n              tag_319\n              jump\t// in\n            tag_581:\n                /* \"#utility.yul\":23044:23187   */\n              swap2\n              swap1\n              pop\n              jump\t// out\n                /* \"#utility.yul\":23193:23336   */\n            tag_321:\n                /* \"#utility.yul\":23257:23266   */\n              0x00\n                /* \"#utility.yul\":23290:23330   */\n              tag_583\n                /* \"#utility.yul\":23324:23329   */\n              dup3\n                /* \"#utility.yul\":23290:23330   */\n              tag_320\n              jump\t// in\n            tag_583:\n                /* \"#utility.yul\":23277:23330   */\n              swap1\n              pop\n                /* \"#utility.yul\":23193:23336   */\n              swap2\n              swap1\n              pop\n              jump\t// out\n                /* \"#utility.yul\":23342:23501   */\n            tag_322:\n                /* \"#utility.yul\":23443:23494   */\n              tag_585\n                /* \"#utility.yul\":23488:23493   */\n              dup2\n                /* \"#utility.yul\":23443:23494   */\n              tag_321\n              jump\t// in\n            tag_585:\n                /* \"#utility.yul\":23438:23441   */\n              dup3\n                /* \"#utility.yul\":23431:23495   */\n              mstore\n                /* \"#utility.yul\":23342:23501   */\n              pop\n              pop\n              jump\t// out\n                /* \"#utility.yul\":23507:24199   */\n            tag_224:\n                /* \"#utility.yul\":23726:23730   */\n              0x00\n                /* \"#utility.yul\":23764:23767   */\n              0xa0\n                /* \"#utility.yul\":23753:23762   */\n              dup3\n                /* \"#utility.yul\":23749:23768   */\n              add\n                /* \"#utility.yul\":23741:23768   */\n              swap1\n              pop\n                /* \"#utility.yul\":23778:23849   */\n              tag_587\n                /* \"#utility.yul\":23846:23847   */\n              0x00\n                /* \"#utility.yul\":23835:23844   */\n              dup4\n                /* \"#utility.yul\":23831:23848   */\n              add\n                /* \"#utility.yul\":23822:23828   */\n              dup9\n                /* \"#utility.yul\":23778:23849   */\n              tag_260\n              jump\t// in\n            tag_587:\n                /* \"#utility.yul\":23859:23931   */\n              tag_588\n                /* \"#utility.yul\":23927:23929   */\n              0x20\n                /* \"#utility.yul\":23916:23925   */\n              dup4\n                /* \"#utility.yul\":23912:23930   */\n              add\n                /* \"#utility.yul\":23903:23909   */\n              dup8\n                /* \"#utility.yul\":23859:23931   */\n              tag_260\n              jump\t// in\n            tag_588:\n                /* \"#utility.yul\":23941:24013   */\n              tag_589\n                /* \"#utility.yul\":24009:24011   */\n              0x40\n                /* \"#utility.yul\":23998:24007   */\n              dup4\n                /* \"#utility.yul\":23994:24012   */\n              add\n                /* \"#utility.yul\":23985:23991   */\n              dup7\n                /* \"#utility.yul\":23941:24013   */\n              tag_260\n              jump\t// in\n            tag_589:\n                /* \"#utility.yul\":24023:24109   */\n              tag_590\n                /* \"#utility.yul\":24105:24107   */\n              0x60\n                /* \"#utility.yul\":24094:24103   */\n              dup4\n                /* \"#utility.yul\":24090:24108   */\n              add\n                /* \"#utility.yul\":24081:24087   */\n              dup6\n                /* \"#utility.yul\":24023:24109   */\n              tag_322\n              jump\t// in\n            tag_590:\n                /* \"#utility.yul\":24119:24192   */\n              tag_591\n                /* \"#utility.yul\":24187:24190   */\n              0x80\n                /* \"#utility.yul\":24176:24185   */\n              dup4\n                /* \"#utility.yul\":24172:24191   */\n              add\n                /* \"#utility.yul\":24163:24169   */\n              dup5\n                /* \"#utility.yul\":24119:24192   */\n              tag_260\n              jump\t// in\n            tag_591:\n                /* \"#utility.yul\":23507:24199   */\n              swap7\n              swap6\n              pop\n              pop\n              pop\n              pop\n              pop\n              pop\n              jump\t// out\n\n            auxdata: 0xa2646970667358221220db9064493748b04b899ae9647d7f44ca6b0eba27630ac679dac6ebf73304982564736f6c63430008110033\n        }\n    }\n\n    auxdata: 0xa26469706673582212207070b16987f1f85d3f7797a023a93db9f2a85bc29e3de7ea4c3d64f4c36286b864736f6c63430008110033\n}\n","bytecode":{"linkReferences":{},"object":"61010060405234801561001157600080fd5b506040516135b93803806135b98339818101604052810190610033919061016e565b3073ffffffffffffffffffffffffffffffffffffffff1660808173ffffffffffffffffffffffffffffffffffffffff16815250508273ffffffffffffffffffffffffffffffffffffffff1660a08173ffffffffffffffffffffffffffffffffffffffff16815250508173ffffffffffffffffffffffffffffffffffffffff1660c08173ffffffffffffffffffffffffffffffffffffffff16815250508073ffffffffffffffffffffffffffffffffffffffff1660e08173ffffffffffffffffffffffffffffffffffffffff16815250505050506101c1565b600080fd5b600073ffffffffffffffffffffffffffffffffffffffff82169050919050565b600061013b82610110565b9050919050565b61014b81610130565b811461015657600080fd5b50565b60008151905061016881610142565b92915050565b6000806000606084860312156101875761018661010b565b5b600061019586828701610159565b93505060206101a686828701610159565b92505060406101b786828701610159565b9150509250925092565b60805160a05160c05160e0516133c26101f760003960005050600061017f0152600061015e0152600061033501526133c26000f3fe608060405260043610620000445760003560e01c8063013cf08b146200004957806349c2a1a6146200008d57806362564c4814620000ad5780638da5cb5b14620000dd575b600080fd5b3480156200005657600080fd5b506200007560048036038101906200006f9190620003e1565b6200010d565b60405162000084919062000458565b60405180910390f35b620000ab6004803603810190620000a59190620004e3565b6200014d565b005b348015620000ba57600080fd5b50620000c56200027f565b604051620000d4919062000606565b60405180910390f35b348015620000ea57600080fd5b50620000f56200030f565b60405162000104919062000458565b60405180910390f35b600181815481106200011e57600080fd5b906000526020600020016000915054906101000a900473ffffffffffffffffffffffffffffffffffffffff1681565b6200015762000333565b60003383837f00000000000000000000000000000000000000000000000000000000000000007f0000000000000000000000000000000000000000000000000000000000000000604051620001ac906200038e565b620001bc9594939291906200068e565b604051809103906000f080158015620001d9573d6000803e3d6000fd5b5090506001819080600181540180825580915050600190039060005260206000200160009091909190916101000a81548173ffffffffffffffffffffffffffffffffffffffff021916908373ffffffffffffffffffffffffffffffffffffffff1602179055507f452ab1b43e295baa201eb0d01fcbcb6bd9f5f2035554bcf6f3e1fedbbc53d830338260405162000272929190620006e4565b60405180910390a1505050565b606060018054806020026020016040519081016040528092919081815260200182805480156200030557602002820191906000526020600020905b8160009054906101000a900473ffffffffffffffffffffffffffffffffffffffff1673ffffffffffffffffffffffffffffffffffffffff1681526020019060010190808311620002ba575b5050505050905090565b60008054906101000a900473ffffffffffffffffffffffffffffffffffffffff1681565b7f000000000000000000000000000000000000000000000000000000000000000073ffffffffffffffffffffffffffffffffffffffff163073ffffffffffffffffffffffffffffffffffffffff16146200038c57600080fd5b565b612c7b806200071283390190565b600080fd5b600080fd5b6000819050919050565b620003bb81620003a6565b8114620003c757600080fd5b50565b600081359050620003db81620003b0565b92915050565b600060208284031215620003fa57620003f96200039c565b5b60006200040a84828501620003ca565b91505092915050565b600073ffffffffffffffffffffffffffffffffffffffff82169050919050565b6000620004408262000413565b9050919050565b620004528162000433565b82525050565b60006020820190506200046f600083018462000447565b92915050565b600080fd5b600080fd5b600080fd5b60008083601f8401126200049d576200049c62000475565b5b8235905067ffffffffffffffff811115620004bd57620004bc6200047a565b5b602083019150836001820283011115620004dc57620004db6200047f565b5b9250929050565b60008060208385031215620004fd57620004fc6200039c565b5b600083013567ffffffffffffffff8111156200051e576200051d620003a1565b5b6200052c8582860162000484565b92509250509250929050565b600081519050919050565b600082825260208201905092915050565b6000819050602082019050919050565b6200056f8162000433565b82525050565b600062000583838362000564565b60208301905092915050565b6000602082019050919050565b6000620005a98262000538565b620005b5818562000543565b9350620005c28362000554565b8060005b83811015620005f9578151620005dd888262000575565b9750620005ea836200058f565b925050600181019050620005c6565b5085935050505092915050565b600060208201905081810360008301526200062281846200059c565b905092915050565b600082825260208201905092915050565b82818337600083830152505050565b6000601f19601f8301169050919050565b60006200066983856200062a565b9350620006788385846200063b565b62000683836200064a565b840190509392505050565b6000608082019050620006a5600083018862000447565b8181036020830152620006ba8186886200065b565b9050620006cb604083018562000447565b620006da606083018462000447565b9695505050505050565b6000604082019050620006fb600083018562000447565b6200070a602083018462000447565b939250505056fe60e06040526000600760006101000a81548163ffffffff021916908363ffffffff1602179055506003600960006101000a81548163ffffffff021916908363ffffffff1602179055506000600960046101000a81548160ff0219169083151502179055506000600960056101000a81548163ffffffff021916908363ffffffff1602179055503480156200009257600080fd5b5060405162002c7b38038062002c7b8339818101604052810190620000b89190620003c9565b8373ffffffffffffffffffffffffffffffffffffffff1660808173ffffffffffffffffffffffffffffffffffffffff16815250508260019081620000fd9190620006a5565b506000600260006101000a81548160ff021916908360038111156200012757620001266200078c565b5b02179055508173ffffffffffffffffffffffffffffffffffffffff1660a08173ffffffffffffffffffffffffffffffffffffffff168152505042600681905550600760009054906101000a900463ffffffff1663ffffffff16426200018d9190620007ea565b6008819055508073ffffffffffffffffffffffffffffffffffffffff1660c08173ffffffffffffffffffffffffffffffffffffffff16815250505050505062000825565b6000604051905090565b600080fd5b600080fd5b600073ffffffffffffffffffffffffffffffffffffffff82169050919050565b60006200021282620001e5565b9050919050565b620002248162000205565b81146200023057600080fd5b50565b600081519050620002448162000219565b92915050565b600080fd5b600080fd5b6000601f19601f8301169050919050565b7f4e487b7100000000000000000000000000000000000000000000000000000000600052604160045260246000fd5b6200029f8262000254565b810181811067ffffffffffffffff82111715620002c157620002c062000265565b5b80604052505050565b6000620002d6620001d1565b9050620002e4828262000294565b919050565b600067ffffffffffffffff82111562000307576200030662000265565b5b620003128262000254565b9050602081019050919050565b60005b838110156200033f57808201518184015260208101905062000322565b60008484015250505050565b6000620003626200035c84620002e9565b620002ca565b9050828152602081018484840111156200038157620003806200024f565b5b6200038e8482856200031f565b509392505050565b600082601f830112620003ae57620003ad6200024a565b5b8151620003c08482602086016200034b565b91505092915050565b60008060008060808587031215620003e657620003e5620001db565b5b6000620003f68782880162000233565b945050602085015167ffffffffffffffff8111156200041a5762000419620001e0565b5b620004288782880162000396565b93505060406200043b8782880162000233565b92505060606200044e8782880162000233565b91505092959194509250565b600081519050919050565b7f4e487b7100000000000000000000000000000000000000000000000000000000600052602260045260246000fd5b60006002820490506001821680620004ad57607f821691505b602082108103620004c357620004c262000465565b5b50919050565b60008190508160005260206000209050919050565b60006020601f8301049050919050565b600082821b905092915050565b6000600883026200052d7fffffffffffffffffffffffffffffffffffffffffffffffffffffffffffffffff82620004ee565b620005398683620004ee565b95508019841693508086168417925050509392505050565b6000819050919050565b6000819050919050565b600062000586620005806200057a8462000551565b6200055b565b62000551565b9050919050565b6000819050919050565b620005a28362000565565b620005ba620005b1826200058d565b848454620004fb565b825550505050565b600090565b620005d1620005c2565b620005de81848462000597565b505050565b5b818110156200060657620005fa600082620005c7565b600181019050620005e4565b5050565b601f82111562000655576200061f81620004c9565b6200062a84620004de565b810160208510156200063a578190505b620006526200064985620004de565b830182620005e3565b50505b505050565b600082821c905092915050565b60006200067a600019846008026200065a565b1980831691505092915050565b600062000695838362000667565b9150826002028217905092915050565b620006b0826200045a565b67ffffffffffffffff811115620006cc57620006cb62000265565b5b620006d8825462000494565b620006e58282856200060a565b600060209050601f8311600181146200071d576000841562000708578287015190505b62000714858262000687565b86555062000784565b601f1984166200072d86620004c9565b60005b82811015620007575784890151825560018201915060208501945060208101905062000730565b8683101562000777578489015162000773601f89168262000667565b8355505b6001600288020188555050505b505050505050565b7f4e487b7100000000000000000000000000000000000000000000000000000000600052602160045260246000fd5b7f4e487b7100000000000000000000000000000000000000000000000000000000600052601160045260246000fd5b6000620007f78262000551565b9150620008048362000551565b92508282019050808211156200081f576200081e620007bb565b5b92915050565b60805160a05160c0516124186200086360003960006114a001526000818161102f01526113ac0152600081816105f3015261151e01526124186000f3fe6080604052600436106101405760003560e01c80636eaef9a9116100b6578063b81c78ec1161006f578063b81c78ec14610410578063b81ccbf81461043b578063be58196b14610466578063c7b96dba1461048f578063cff29dfd146104a6578063d7bb99ba146104e357610140565b80636eaef9a9146102fe57806385758c27146103275780638890ed09146103645780638af9fe3f1461038f578063b69ef8a8146103ba578063b6abba9c146103e557610140565b80633dada5e1116101085780633dada5e11461022c57806340eedabb146102695780634b21bac714610294578063590e1ae3146102bf5780635f38a27e146102c95780636a3aa8e3146102f457610140565b806312dcffe5146101455780631d0d35f5146101825780631f741c7a146101bf57806320c414bf146101ea578063222268be14610215575b600080fd5b34801561015157600080fd5b5061016c6004803603810190610167919061179a565b6104ed565b60405161017991906117e0565b60405180910390f35b34801561018e57600080fd5b506101a960048036038101906101a4919061179a565b610536565b6040516101b69190611816565b60405180910390f35b3480156101cb57600080fd5b506101d4610581565b6040516101e191906117e0565b60405180910390f35b3480156101f657600080fd5b506101ff610587565b60405161020c9190611816565b60405180910390f35b34801561022157600080fd5b5061022a61059a565b005b34801561023857600080fd5b50610253600480360381019061024e919061179a565b6106a3565b60405161026091906118c1565b60405180910390f35b34801561027557600080fd5b5061027e610774565b60405161028b91906118f2565b60405180910390f35b3480156102a057600080fd5b506102a961079a565b6040516102b691906118c1565b60405180910390f35b6102c7610828565b005b3480156102d557600080fd5b506102de61097f565b6040516102eb919061192c565b60405180910390f35b6102fc610995565b005b34801561030a57600080fd5b5061032560048036038101906103209190611985565b610af8565b005b34801561033357600080fd5b5061034e6004803603810190610349919061179a565b610ea6565b60405161035b91906117e0565b60405180910390f35b34801561037057600080fd5b50610379610eef565b60405161038691906118f2565b60405180910390f35b34801561039b57600080fd5b506103a4610f15565b6040516103b19190611a29565b60405180910390f35b3480156103c657600080fd5b506103cf610f28565b6040516103dc91906117e0565b60405180910390f35b3480156103f157600080fd5b506103fa610f2e565b604051610407919061192c565b60405180910390f35b34801561041c57600080fd5b50610425610f44565b6040516104329190611b02565b60405180910390f35b34801561044757600080fd5b50610450610fd2565b60405161045d91906117e0565b60405180910390f35b34801561047257600080fd5b5061048d60048036038101906104889190611c85565b610fd8565b005b34801561049b57600080fd5b506104a4611250565b005b3480156104b257600080fd5b506104cd60048036038101906104c89190611ce1565b6115c4565b6040516104da91906118f2565b60405180910390f35b6104eb611603565b005b6000600d60008373ffffffffffffffffffffffffffffffffffffffff1673ffffffffffffffffffffffffffffffffffffffff168152602001908152602001600020549050919050565b600080600360008473ffffffffffffffffffffffffffffffffffffffff1673ffffffffffffffffffffffffffffffffffffffff16815260200190815260200160002054119050919050565b60065481565b600960049054906101000a900460ff1681565b600c60009054906101000a900473ffffffffffffffffffffffffffffffffffffffff1673ffffffffffffffffffffffffffffffffffffffff163373ffffffffffffffffffffffffffffffffffffffff16148061064157507f000000000000000000000000000000000000000000000000000000000000000073ffffffffffffffffffffffffffffffffffffffff163373ffffffffffffffffffffffffffffffffffffffff16145b61064a57600080fd5b6003600260006101000a81548160ff021916908360038111156106705761066f6119b2565b5b02179055507faa0bd7cd99bfeb112d24bcaee2e5d057407eb13494c8a5ceef53268f772c4d9b60405160405180910390a1565b6060600460008373ffffffffffffffffffffffffffffffffffffffff1673ffffffffffffffffffffffffffffffffffffffff16815260200190815260200160002080546106ef90611d3d565b80601f016020809104026020016040519081016040528092919081815260200182805461071b90611d3d565b80156107685780601f1061073d57610100808354040283529160200191610768565b820191906000526020600020905b81548152906001019060200180831161074b57829003601f168201915b50505050509050919050565b600b60009054906101000a900473ffffffffffffffffffffffffffffffffffffffff1681565b600180546107a790611d3d565b80601f01602080910402602001604051908101604052809291908181526020018280546107d390611d3d565b80156108205780601f106107f557610100808354040283529160200191610820565b820191906000526020600020905b81548152906001019060200180831161080357829003601f168201915b505050505081565b6002600381111561083c5761083b6119b2565b5b600260009054906101000a900460ff16600381111561085e5761085d6119b2565b5b0361086857600080fd5b6000600360003373ffffffffffffffffffffffffffffffffffffffff1673ffffffffffffffffffffffffffffffffffffffff168152602001908152602001600020549050600081116108b957600080fd5b3373ffffffffffffffffffffffffffffffffffffffff166108fc829081150290604051600060405180830381858888f193505050501580156108ff573d6000803e3d6000fd5b506000600360003373ffffffffffffffffffffffffffffffffffffffff1673ffffffffffffffffffffffffffffffffffffffff168152602001908152602001600020819055507f64a19944946955995bb521fbf068bfd6ba64497e91e11948a97acd706bffb55f3360405161097491906118f2565b60405180910390a150565b600960009054906101000a900463ffffffff1681565b3373ffffffffffffffffffffffffffffffffffffffff16600c60009054906101000a900473ffffffffffffffffffffffffffffffffffffffff1673ffffffffffffffffffffffffffffffffffffffff1614610a25576040517f08c379a0000000000000000000000000000000000000000000000000000000008152600401610a1c90611dba565b60405180910390fd5b6000600c60009054906101000a900473ffffffffffffffffffffffffffffffffffffffff1673ffffffffffffffffffffffffffffffffffffffff16600054604051610a6f90611e0b565b60006040518083038185875af1925050503d8060008114610aac576040519150601f19603f3d011682016040523d82523d6000602084013e610ab1565b606091505b5050905080610af5576040517f08c379a0000000000000000000000000000000000000000000000000000000008152600401610aec90611e6c565b60405180910390fd5b50565b600e60003373ffffffffffffffffffffffffffffffffffffffff1673ffffffffffffffffffffffffffffffffffffffff16815260200190815260200160002060009054906101000a900460ff1615610b4f57600080fd5b60006003811115610b6357610b626119b2565b5b600260009054906101000a900460ff166003811115610b8557610b846119b2565b5b14610b8f57600080fd5b6001600d60008373ffffffffffffffffffffffffffffffffffffffff1673ffffffffffffffffffffffffffffffffffffffff1681526020019081526020016000206000828254610bdf9190611ebb565b925050819055506009600581819054906101000a900463ffffffff1680929190610c0890611eef565b91906101000a81548163ffffffff021916908363ffffffff160217905550506001600e60003373ffffffffffffffffffffffffffffffffffffffff1673ffffffffffffffffffffffffffffffffffffffff16815260200190815260200160002060006101000a81548160ff0219169083151502179055506000600d6000600b60009054906101000a900473ffffffffffffffffffffffffffffffffffffffff1673ffffffffffffffffffffffffffffffffffffffff1673ffffffffffffffffffffffffffffffffffffffff1681526020019081526020016000205403610d2e5780600b60006101000a81548173ffffffffffffffffffffffffffffffffffffffff021916908373ffffffffffffffffffffffffffffffffffffffff160217905550610df2565b600d6000600b60009054906101000a900473ffffffffffffffffffffffffffffffffffffffff1673ffffffffffffffffffffffffffffffffffffffff1673ffffffffffffffffffffffffffffffffffffffff16815260200190815260200160002054600960059054906101000a900463ffffffff1663ffffffff161015610df15780600b60006101000a81548173ffffffffffffffffffffffffffffffffffffffff021916908373ffffffffffffffffffffffffffffffffffffffff1602179055505b5b600960009054906101000a900463ffffffff1663ffffffff16600d60008373ffffffffffffffffffffffffffffffffffffffff1673ffffffffffffffffffffffffffffffffffffffff1681526020019081526020016000205410610e6c576001600960046101000a81548160ff0219169083151502179055505b7f24e53c9b6f7a01c723fa01359e44b47e62ab501027dbb092d38e3669d6b01d0833604051610e9b91906118f2565b60405180910390a150565b6000600560008373ffffffffffffffffffffffffffffffffffffffff1673ffffffffffffffffffffffffffffffffffffffff168152602001908152602001600020549050919050565b600c60009054906101000a900473ffffffffffffffffffffffffffffffffffffffff1681565b600260009054906101000a900460ff1681565b60005481565b600760009054906101000a900463ffffffff1681565b6060600a805480602002602001604051908101604052809291908181526020018280548015610fc857602002820191906000526020600020905b8160009054906101000a900473ffffffffffffffffffffffffffffffffffffffff1673ffffffffffffffffffffffffffffffffffffffff1681526020019060010190808311610f7e575b5050505050905090565b60085481565b60006003811115610fec57610feb6119b2565b5b600260009054906101000a900460ff16600381111561100e5761100d6119b2565b5b1461101857600080fd5b6000829050600081511161102b57600080fd5b60007f000000000000000000000000000000000000000000000000000000000000000090508073ffffffffffffffffffffffffffffffffffffffff166375838862336040518263ffffffff1660e01b815260040161108991906118f2565b602060405180830381865afa1580156110a6573d6000803e3d6000fd5b505050506040513d601f19601f820116820180604052508101906110ca9190611f47565b6110d357600080fd5b6000600560003373ffffffffffffffffffffffffffffffffffffffff1673ffffffffffffffffffffffffffffffffffffffff168152602001908152602001600020541461111f57600080fd5b83600460003373ffffffffffffffffffffffffffffffffffffffff1673ffffffffffffffffffffffffffffffffffffffff168152602001908152602001600020908161116b9190612120565b5082600560003373ffffffffffffffffffffffffffffffffffffffff1673ffffffffffffffffffffffffffffffffffffffff16815260200190815260200160002081905550600a339080600181540180825580915050600190039060005260206000200160009091909190916101000a81548173ffffffffffffffffffffffffffffffffffffffff021916908373ffffffffffffffffffffffffffffffffffffffff1602179055507f23914683cb862ec5961902cca21fb0378fd27a633c4d929996c2a14abcfd5b513360405161124291906118f2565b60405180910390a150505050565b600b60009054906101000a900473ffffffffffffffffffffffffffffffffffffffff1673ffffffffffffffffffffffffffffffffffffffff163373ffffffffffffffffffffffffffffffffffffffff16146112aa57600080fd5b600960049054906101000a900460ff166112c357600080fd5b60085442116112d157600080fd5b600060056000600b60009054906101000a900473ffffffffffffffffffffffffffffffffffffffff1673ffffffffffffffffffffffffffffffffffffffff1673ffffffffffffffffffffffffffffffffffffffff168152602001908152602001600020549050806000541161134557600080fd5b600b60009054906101000a900473ffffffffffffffffffffffffffffffffffffffff16600c60006101000a81548173ffffffffffffffffffffffffffffffffffffffff021916908373ffffffffffffffffffffffffffffffffffffffff16021790555060007f0000000000000000000000000000000000000000000000000000000000000000905060008173ffffffffffffffffffffffffffffffffffffffff1663fadd65c3600b60009054906101000a900473ffffffffffffffffffffffffffffffffffffffff166040518263ffffffff1660e01b815260040161142a91906118f2565b600060405180830381865afa158015611447573d6000803e3d6000fd5b505050506040513d6000823e3d601f19601f8201168201806040525081019061147091906122cf565b905060028060006101000a81548160ff02191690836003811115611497576114966119b2565b5b021790555060007f000000000000000000000000000000000000000000000000000000000000000090508073ffffffffffffffffffffffffffffffffffffffff1663c6211077836000815181106114f1576114f0612318565b5b6020026020010151600c60009054906101000a900473ffffffffffffffffffffffffffffffffffffffff167f00000000000000000000000000000000000000000000000000000000000000006000306040518663ffffffff1660e01b815260040161156095949392919061238f565b600060405180830381600087803b15801561157a57600080fd5b505af115801561158e573d6000803e3d6000fd5b505050507f45b0f4bc838cfd8748cc5dfb3c6627145d32ddcb17804ddf52cd8cc9e5cd1b5d60405160405180910390a150505050565b600a81815481106115d457600080fd5b906000526020600020016000915054906101000a900473ffffffffffffffffffffffffffffffffffffffff1681565b60006003811115611617576116166119b2565b5b600260009054906101000a900460ff166003811115611639576116386119b2565b5b1480611678575060016003811115611654576116536119b2565b5b600260009054906101000a900460ff166003811115611676576116756119b2565b5b145b61168157600080fd5b34600360003373ffffffffffffffffffffffffffffffffffffffff1673ffffffffffffffffffffffffffffffffffffffff16815260200190815260200160002060008282546116d09190611ebb565b92505081905550346000808282546116e89190611ebb565b925050819055507f35a268d4c65b4afb5b15f6e60f11fd64cce0aa427e6d48058be6e9b697c493d73360405161171e91906118f2565b60405180910390a1565b6000604051905090565b600080fd5b600080fd5b600073ffffffffffffffffffffffffffffffffffffffff82169050919050565b60006117678261173c565b9050919050565b6117778161175c565b811461178257600080fd5b50565b6000813590506117948161176e565b92915050565b6000602082840312156117b0576117af611732565b5b60006117be84828501611785565b91505092915050565b6000819050919050565b6117da816117c7565b82525050565b60006020820190506117f560008301846117d1565b92915050565b60008115159050919050565b611810816117fb565b82525050565b600060208201905061182b6000830184611807565b92915050565b600081519050919050565b600082825260208201905092915050565b60005b8381101561186b578082015181840152602081019050611850565b60008484015250505050565b6000601f19601f8301169050919050565b600061189382611831565b61189d818561183c565b93506118ad81856020860161184d565b6118b681611877565b840191505092915050565b600060208201905081810360008301526118db8184611888565b905092915050565b6118ec8161175c565b82525050565b600060208201905061190760008301846118e3565b92915050565b600063ffffffff82169050919050565b6119268161190d565b82525050565b6000602082019050611941600083018461191d565b92915050565b60006119528261173c565b9050919050565b61196281611947565b811461196d57600080fd5b50565b60008135905061197f81611959565b92915050565b60006020828403121561199b5761199a611732565b5b60006119a984828501611970565b91505092915050565b7f4e487b7100000000000000000000000000000000000000000000000000000000600052602160045260246000fd5b600481106119f2576119f16119b2565b5b50565b6000819050611a03826119e1565b919050565b6000611a13826119f5565b9050919050565b611a2381611a08565b82525050565b6000602082019050611a3e6000830184611a1a565b92915050565b600081519050919050565b600082825260208201905092915050565b6000819050602082019050919050565b611a798161175c565b82525050565b6000611a8b8383611a70565b60208301905092915050565b6000602082019050919050565b6000611aaf82611a44565b611ab98185611a4f565b9350611ac483611a60565b8060005b83811015611af5578151611adc8882611a7f565b9750611ae783611a97565b925050600181019050611ac8565b5085935050505092915050565b60006020820190508181036000830152611b1c8184611aa4565b905092915050565b600080fd5b600080fd5b7f4e487b7100000000000000000000000000000000000000000000000000000000600052604160045260246000fd5b611b6682611877565b810181811067ffffffffffffffff82111715611b8557611b84611b2e565b5b80604052505050565b6000611b98611728565b9050611ba48282611b5d565b919050565b600067ffffffffffffffff821115611bc457611bc3611b2e565b5b611bcd82611877565b9050602081019050919050565b82818337600083830152505050565b6000611bfc611bf784611ba9565b611b8e565b905082815260208101848484011115611c1857611c17611b29565b5b611c23848285611bda565b509392505050565b600082601f830112611c4057611c3f611b24565b5b8135611c50848260208601611be9565b91505092915050565b611c62816117c7565b8114611c6d57600080fd5b50565b600081359050611c7f81611c59565b92915050565b60008060408385031215611c9c57611c9b611732565b5b600083013567ffffffffffffffff811115611cba57611cb9611737565b5b611cc685828601611c2b565b9250506020611cd785828601611c70565b9150509250929050565b600060208284031215611cf757611cf6611732565b5b6000611d0584828501611c70565b91505092915050565b7f4e487b7100000000000000000000000000000000000000000000000000000000600052602260045260246000fd5b60006002820490506001821680611d5557607f821691505b602082108103611d6857611d67611d0e565b5b50919050565b7f616464726573732064656e696564000000000000000000000000000000000000600082015250565b6000611da4600e8361183c565b9150611daf82611d6e565b602082019050919050565b60006020820190508181036000830152611dd381611d97565b9050919050565b600081905092915050565b50565b6000611df5600083611dda565b9150611e0082611de5565b600082019050919050565b6000611e1682611de8565b9150819050919050565b7f4661696c656420746f2073656e64204574686572000000000000000000000000600082015250565b6000611e5660148361183c565b9150611e6182611e20565b602082019050919050565b60006020820190508181036000830152611e8581611e49565b9050919050565b7f4e487b7100000000000000000000000000000000000000000000000000000000600052601160045260246000fd5b6000611ec6826117c7565b9150611ed1836117c7565b9250828201905080821115611ee957611ee8611e8c565b5b92915050565b6000611efa8261190d565b915063ffffffff8203611f1057611f0f611e8c565b5b600182019050919050565b611f24816117fb565b8114611f2f57600080fd5b50565b600081519050611f4181611f1b565b92915050565b600060208284031215611f5d57611f5c611732565b5b6000611f6b84828501611f32565b91505092915050565b60008190508160005260206000209050919050565b60006020601f8301049050919050565b600082821b905092915050565b600060088302611fd67fffffffffffffffffffffffffffffffffffffffffffffffffffffffffffffffff82611f99565b611fe08683611f99565b95508019841693508086168417925050509392505050565b6000819050919050565b600061201d612018612013846117c7565b611ff8565b6117c7565b9050919050565b6000819050919050565b61203783612002565b61204b61204382612024565b848454611fa6565b825550505050565b600090565b612060612053565b61206b81848461202e565b505050565b5b8181101561208f57612084600082612058565b600181019050612071565b5050565b601f8211156120d4576120a581611f74565b6120ae84611f89565b810160208510156120bd578190505b6120d16120c985611f89565b830182612070565b50505b505050565b600082821c905092915050565b60006120f7600019846008026120d9565b1980831691505092915050565b600061211083836120e6565b9150826002028217905092915050565b61212982611831565b67ffffffffffffffff81111561214257612141611b2e565b5b61214c8254611d3d565b612157828285612093565b600060209050601f83116001811461218a5760008415612178578287015190505b6121828582612104565b8655506121ea565b601f19841661219886611f74565b60005b828110156121c05784890151825560018201915060208501945060208101905061219b565b868310156121dd57848901516121d9601f8916826120e6565b8355505b6001600288020188555050505b505050505050565b600067ffffffffffffffff82111561220d5761220c611b2e565b5b602082029050602081019050919050565b600080fd5b6000815190506122328161176e565b92915050565b600061224b612246846121f2565b611b8e565b9050808382526020820190506020840283018581111561226e5761226d61221e565b5b835b8181101561229757806122838882612223565b845260208401935050602081019050612270565b5050509392505050565b600082601f8301126122b6576122b5611b24565b5b81516122c6848260208601612238565b91505092915050565b6000602082840312156122e5576122e4611732565b5b600082015167ffffffffffffffff81111561230357612302611737565b5b61230f848285016122a1565b91505092915050565b7f4e487b7100000000000000000000000000000000000000000000000000000000600052603260045260246000fd5b60028110612358576123576119b2565b5b50565b600081905061236982612347565b919050565b60006123798261235b565b9050919050565b6123898161236e565b82525050565b600060a0820190506123a460008301886118e3565b6123b160208301876118e3565b6123be60408301866118e3565b6123cb6060830185612380565b6123d860808301846118e3565b969550505050505056fea2646970667358221220db9064493748b04b899ae9647d7f44ca6b0eba27630ac679dac6ebf73304982564736f6c63430008110033a26469706673582212207070b16987f1f85d3f7797a023a93db9f2a85bc29e3de7ea4c3d64f4c36286b864736f6c63430008110033","opcodes":"PUSH2 0x100 PUSH1 0x40 MSTORE CALLVALUE DUP1 ISZERO PUSH2 0x11 JUMPI PUSH1 0x0 DUP1 REVERT JUMPDEST POP PUSH1 0x40 MLOAD PUSH2 0x35B9 CODESIZE SUB DUP1 PUSH2 0x35B9 DUP4 CODECOPY DUP2 DUP2 ADD PUSH1 0x40 MSTORE DUP2 ADD SWAP1 PUSH2 0x33 SWAP2 SWAP1 PUSH2 0x16E JUMP JUMPDEST ADDRESS PUSH20 0xFFFFFFFFFFFFFFFFFFFFFFFFFFFFFFFFFFFFFFFF AND PUSH1 0x80 DUP2 PUSH20 0xFFFFFFFFFFFFFFFFFFFFFFFFFFFFFFFFFFFFFFFF AND DUP2 MSTORE POP POP DUP3 PUSH20 0xFFFFFFFFFFFFFFFFFFFFFFFFFFFFFFFFFFFFFFFF AND PUSH1 0xA0 DUP2 PUSH20 0xFFFFFFFFFFFFFFFFFFFFFFFFFFFFFFFFFFFFFFFF AND DUP2 MSTORE POP POP DUP2 PUSH20 0xFFFFFFFFFFFFFFFFFFFFFFFFFFFFFFFFFFFFFFFF AND PUSH1 0xC0 DUP2 PUSH20 0xFFFFFFFFFFFFFFFFFFFFFFFFFFFFFFFFFFFFFFFF AND DUP2 MSTORE POP POP DUP1 PUSH20 0xFFFFFFFFFFFFFFFFFFFFFFFFFFFFFFFFFFFFFFFF AND PUSH1 0xE0 DUP2 PUSH20 0xFFFFFFFFFFFFFFFFFFFFFFFFFFFFFFFFFFFFFFFF AND DUP2 MSTORE POP POP POP POP POP PUSH2 0x1C1 JUMP JUMPDEST PUSH1 0x0 DUP1 REVERT JUMPDEST PUSH1 0x0 PUSH20 0xFFFFFFFFFFFFFFFFFFFFFFFFFFFFFFFFFFFFFFFF DUP3 AND SWAP1 POP SWAP2 SWAP1 POP JUMP JUMPDEST PUSH1 0x0 PUSH2 0x13B DUP3 PUSH2 0x110 JUMP JUMPDEST SWAP1 POP SWAP2 SWAP1 POP JUMP JUMPDEST PUSH2 0x14B DUP2 PUSH2 0x130 JUMP JUMPDEST DUP2 EQ PUSH2 0x156 JUMPI PUSH1 0x0 DUP1 REVERT JUMPDEST POP JUMP JUMPDEST PUSH1 0x0 DUP2 MLOAD SWAP1 POP PUSH2 0x168 DUP2 PUSH2 0x142 JUMP JUMPDEST SWAP3 SWAP2 POP POP JUMP JUMPDEST PUSH1 0x0 DUP1 PUSH1 0x0 PUSH1 0x60 DUP5 DUP7 SUB SLT ISZERO PUSH2 0x187 JUMPI PUSH2 0x186 PUSH2 0x10B JUMP JUMPDEST JUMPDEST PUSH1 0x0 PUSH2 0x195 DUP7 DUP3 DUP8 ADD PUSH2 0x159 JUMP JUMPDEST SWAP4 POP POP PUSH1 0x20 PUSH2 0x1A6 DUP7 DUP3 DUP8 ADD PUSH2 0x159 JUMP JUMPDEST SWAP3 POP POP PUSH1 0x40 PUSH2 0x1B7 DUP7 DUP3 DUP8 ADD PUSH2 0x159 JUMP JUMPDEST SWAP2 POP POP SWAP3 POP SWAP3 POP SWAP3 JUMP JUMPDEST PUSH1 0x80 MLOAD PUSH1 0xA0 MLOAD PUSH1 0xC0 MLOAD PUSH1 0xE0 MLOAD PUSH2 0x33C2 PUSH2 0x1F7 PUSH1 0x0 CODECOPY PUSH1 0x0 POP POP PUSH1 0x0 PUSH2 0x17F ADD MSTORE PUSH1 0x0 PUSH2 0x15E ADD MSTORE PUSH1 0x0 PUSH2 0x335 ADD MSTORE PUSH2 0x33C2 PUSH1 0x0 RETURN INVALID PUSH1 0x80 PUSH1 0x40 MSTORE PUSH1 0x4 CALLDATASIZE LT PUSH3 0x44 JUMPI PUSH1 0x0 CALLDATALOAD PUSH1 0xE0 SHR DUP1 PUSH4 0x13CF08B EQ PUSH3 0x49 JUMPI DUP1 PUSH4 0x49C2A1A6 EQ PUSH3 0x8D JUMPI DUP1 PUSH4 0x62564C48 EQ PUSH3 0xAD JUMPI DUP1 PUSH4 0x8DA5CB5B EQ PUSH3 0xDD JUMPI JUMPDEST PUSH1 0x0 DUP1 REVERT JUMPDEST CALLVALUE DUP1 ISZERO PUSH3 0x56 JUMPI PUSH1 0x0 DUP1 REVERT JUMPDEST POP PUSH3 0x75 PUSH1 0x4 DUP1 CALLDATASIZE SUB DUP2 ADD SWAP1 PUSH3 0x6F SWAP2 SWAP1 PUSH3 0x3E1 JUMP JUMPDEST PUSH3 0x10D JUMP JUMPDEST PUSH1 0x40 MLOAD PUSH3 0x84 SWAP2 SWAP1 PUSH3 0x458 JUMP JUMPDEST PUSH1 0x40 MLOAD DUP1 SWAP2 SUB SWAP1 RETURN JUMPDEST PUSH3 0xAB PUSH1 0x4 DUP1 CALLDATASIZE SUB DUP2 ADD SWAP1 PUSH3 0xA5 SWAP2 SWAP1 PUSH3 0x4E3 JUMP JUMPDEST PUSH3 0x14D JUMP JUMPDEST STOP JUMPDEST CALLVALUE DUP1 ISZERO PUSH3 0xBA JUMPI PUSH1 0x0 DUP1 REVERT JUMPDEST POP PUSH3 0xC5 PUSH3 0x27F JUMP JUMPDEST PUSH1 0x40 MLOAD PUSH3 0xD4 SWAP2 SWAP1 PUSH3 0x606 JUMP JUMPDEST PUSH1 0x40 MLOAD DUP1 SWAP2 SUB SWAP1 RETURN JUMPDEST CALLVALUE DUP1 ISZERO PUSH3 0xEA JUMPI PUSH1 0x0 DUP1 REVERT JUMPDEST POP PUSH3 0xF5 PUSH3 0x30F JUMP JUMPDEST PUSH1 0x40 MLOAD PUSH3 0x104 SWAP2 SWAP1 PUSH3 0x458 JUMP JUMPDEST PUSH1 0x40 MLOAD DUP1 SWAP2 SUB SWAP1 RETURN JUMPDEST PUSH1 0x1 DUP2 DUP2 SLOAD DUP2 LT PUSH3 0x11E JUMPI PUSH1 0x0 DUP1 REVERT JUMPDEST SWAP1 PUSH1 0x0 MSTORE PUSH1 0x20 PUSH1 0x0 KECCAK256 ADD PUSH1 0x0 SWAP2 POP SLOAD SWAP1 PUSH2 0x100 EXP SWAP1 DIV PUSH20 0xFFFFFFFFFFFFFFFFFFFFFFFFFFFFFFFFFFFFFFFF AND DUP2 JUMP JUMPDEST PUSH3 0x157 PUSH3 0x333 JUMP JUMPDEST PUSH1 0x0 CALLER DUP4 DUP4 PUSH32 0x0 PUSH32 0x0 PUSH1 0x40 MLOAD PUSH3 0x1AC SWAP1 PUSH3 0x38E JUMP JUMPDEST PUSH3 0x1BC SWAP6 SWAP5 SWAP4 SWAP3 SWAP2 SWAP1 PUSH3 0x68E JUMP JUMPDEST PUSH1 0x40 MLOAD DUP1 SWAP2 SUB SWAP1 PUSH1 0x0 CREATE DUP1 ISZERO DUP1 ISZERO PUSH3 0x1D9 JUMPI RETURNDATASIZE PUSH1 0x0 DUP1 RETURNDATACOPY RETURNDATASIZE PUSH1 0x0 REVERT JUMPDEST POP SWAP1 POP PUSH1 0x1 DUP2 SWAP1 DUP1 PUSH1 0x1 DUP2 SLOAD ADD DUP1 DUP3 SSTORE DUP1 SWAP2 POP POP PUSH1 0x1 SWAP1 SUB SWAP1 PUSH1 0x0 MSTORE PUSH1 0x20 PUSH1 0x0 KECCAK256 ADD PUSH1 0x0 SWAP1 SWAP2 SWAP1 SWAP2 SWAP1 SWAP2 PUSH2 0x100 EXP DUP2 SLOAD DUP2 PUSH20 0xFFFFFFFFFFFFFFFFFFFFFFFFFFFFFFFFFFFFFFFF MUL NOT AND SWAP1 DUP4 PUSH20 0xFFFFFFFFFFFFFFFFFFFFFFFFFFFFFFFFFFFFFFFF AND MUL OR SWAP1 SSTORE POP PUSH32 0x452AB1B43E295BAA201EB0D01FCBCB6BD9F5F2035554BCF6F3E1FEDBBC53D830 CALLER DUP3 PUSH1 0x40 MLOAD PUSH3 0x272 SWAP3 SWAP2 SWAP1 PUSH3 0x6E4 JUMP JUMPDEST PUSH1 0x40 MLOAD DUP1 SWAP2 SUB SWAP1 LOG1 POP POP POP JUMP JUMPDEST PUSH1 0x60 PUSH1 0x1 DUP1 SLOAD DUP1 PUSH1 0x20 MUL PUSH1 0x20 ADD PUSH1 0x40 MLOAD SWAP1 DUP2 ADD PUSH1 0x40 MSTORE DUP1 SWAP3 SWAP2 SWAP1 DUP2 DUP2 MSTORE PUSH1 0x20 ADD DUP3 DUP1 SLOAD DUP1 ISZERO PUSH3 0x305 JUMPI PUSH1 0x20 MUL DUP3 ADD SWAP2 SWAP1 PUSH1 0x0 MSTORE PUSH1 0x20 PUSH1 0x0 KECCAK256 SWAP1 JUMPDEST DUP2 PUSH1 0x0 SWAP1 SLOAD SWAP1 PUSH2 0x100 EXP SWAP1 DIV PUSH20 0xFFFFFFFFFFFFFFFFFFFFFFFFFFFFFFFFFFFFFFFF AND PUSH20 0xFFFFFFFFFFFFFFFFFFFFFFFFFFFFFFFFFFFFFFFF AND DUP2 MSTORE PUSH1 0x20 ADD SWAP1 PUSH1 0x1 ADD SWAP1 DUP1 DUP4 GT PUSH3 0x2BA JUMPI JUMPDEST POP POP POP POP POP SWAP1 POP SWAP1 JUMP JUMPDEST PUSH1 0x0 DUP1 SLOAD SWAP1 PUSH2 0x100 EXP SWAP1 DIV PUSH20 0xFFFFFFFFFFFFFFFFFFFFFFFFFFFFFFFFFFFFFFFF AND DUP2 JUMP JUMPDEST PUSH32 0x0 PUSH20 0xFFFFFFFFFFFFFFFFFFFFFFFFFFFFFFFFFFFFFFFF AND ADDRESS PUSH20 0xFFFFFFFFFFFFFFFFFFFFFFFFFFFFFFFFFFFFFFFF AND EQ PUSH3 0x38C JUMPI PUSH1 0x0 DUP1 REVERT JUMPDEST JUMP JUMPDEST PUSH2 0x2C7B DUP1 PUSH3 0x712 DUP4 CODECOPY ADD SWAP1 JUMP JUMPDEST PUSH1 0x0 DUP1 REVERT JUMPDEST PUSH1 0x0 DUP1 REVERT JUMPDEST PUSH1 0x0 DUP2 SWAP1 POP SWAP2 SWAP1 POP JUMP JUMPDEST PUSH3 0x3BB DUP2 PUSH3 0x3A6 JUMP JUMPDEST DUP2 EQ PUSH3 0x3C7 JUMPI PUSH1 0x0 DUP1 REVERT JUMPDEST POP JUMP JUMPDEST PUSH1 0x0 DUP2 CALLDATALOAD SWAP1 POP PUSH3 0x3DB DUP2 PUSH3 0x3B0 JUMP JUMPDEST SWAP3 SWAP2 POP POP JUMP JUMPDEST PUSH1 0x0 PUSH1 0x20 DUP3 DUP5 SUB SLT ISZERO PUSH3 0x3FA JUMPI PUSH3 0x3F9 PUSH3 0x39C JUMP JUMPDEST JUMPDEST PUSH1 0x0 PUSH3 0x40A DUP5 DUP3 DUP6 ADD PUSH3 0x3CA JUMP JUMPDEST SWAP2 POP POP SWAP3 SWAP2 POP POP JUMP JUMPDEST PUSH1 0x0 PUSH20 0xFFFFFFFFFFFFFFFFFFFFFFFFFFFFFFFFFFFFFFFF DUP3 AND SWAP1 POP SWAP2 SWAP1 POP JUMP JUMPDEST PUSH1 0x0 PUSH3 0x440 DUP3 PUSH3 0x413 JUMP JUMPDEST SWAP1 POP SWAP2 SWAP1 POP JUMP JUMPDEST PUSH3 0x452 DUP2 PUSH3 0x433 JUMP JUMPDEST DUP3 MSTORE POP POP JUMP JUMPDEST PUSH1 0x0 PUSH1 0x20 DUP3 ADD SWAP1 POP PUSH3 0x46F PUSH1 0x0 DUP4 ADD DUP5 PUSH3 0x447 JUMP JUMPDEST SWAP3 SWAP2 POP POP JUMP JUMPDEST PUSH1 0x0 DUP1 REVERT JUMPDEST PUSH1 0x0 DUP1 REVERT JUMPDEST PUSH1 0x0 DUP1 REVERT JUMPDEST PUSH1 0x0 DUP1 DUP4 PUSH1 0x1F DUP5 ADD SLT PUSH3 0x49D JUMPI PUSH3 0x49C PUSH3 0x475 JUMP JUMPDEST JUMPDEST DUP3 CALLDATALOAD SWAP1 POP PUSH8 0xFFFFFFFFFFFFFFFF DUP2 GT ISZERO PUSH3 0x4BD JUMPI PUSH3 0x4BC PUSH3 0x47A JUMP JUMPDEST JUMPDEST PUSH1 0x20 DUP4 ADD SWAP2 POP DUP4 PUSH1 0x1 DUP3 MUL DUP4 ADD GT ISZERO PUSH3 0x4DC JUMPI PUSH3 0x4DB PUSH3 0x47F JUMP JUMPDEST JUMPDEST SWAP3 POP SWAP3 SWAP1 POP JUMP JUMPDEST PUSH1 0x0 DUP1 PUSH1 0x20 DUP4 DUP6 SUB SLT ISZERO PUSH3 0x4FD JUMPI PUSH3 0x4FC PUSH3 0x39C JUMP JUMPDEST JUMPDEST PUSH1 0x0 DUP4 ADD CALLDATALOAD PUSH8 0xFFFFFFFFFFFFFFFF DUP2 GT ISZERO PUSH3 0x51E JUMPI PUSH3 0x51D PUSH3 0x3A1 JUMP JUMPDEST JUMPDEST PUSH3 0x52C DUP6 DUP3 DUP7 ADD PUSH3 0x484 JUMP JUMPDEST SWAP3 POP SWAP3 POP POP SWAP3 POP SWAP3 SWAP1 POP JUMP JUMPDEST PUSH1 0x0 DUP2 MLOAD SWAP1 POP SWAP2 SWAP1 POP JUMP JUMPDEST PUSH1 0x0 DUP3 DUP3 MSTORE PUSH1 0x20 DUP3 ADD SWAP1 POP SWAP3 SWAP2 POP POP JUMP JUMPDEST PUSH1 0x0 DUP2 SWAP1 POP PUSH1 0x20 DUP3 ADD SWAP1 POP SWAP2 SWAP1 POP JUMP JUMPDEST PUSH3 0x56F DUP2 PUSH3 0x433 JUMP JUMPDEST DUP3 MSTORE POP POP JUMP JUMPDEST PUSH1 0x0 PUSH3 0x583 DUP4 DUP4 PUSH3 0x564 JUMP JUMPDEST PUSH1 0x20 DUP4 ADD SWAP1 POP SWAP3 SWAP2 POP POP JUMP JUMPDEST PUSH1 0x0 PUSH1 0x20 DUP3 ADD SWAP1 POP SWAP2 SWAP1 POP JUMP JUMPDEST PUSH1 0x0 PUSH3 0x5A9 DUP3 PUSH3 0x538 JUMP JUMPDEST PUSH3 0x5B5 DUP2 DUP6 PUSH3 0x543 JUMP JUMPDEST SWAP4 POP PUSH3 0x5C2 DUP4 PUSH3 0x554 JUMP JUMPDEST DUP1 PUSH1 0x0 JUMPDEST DUP4 DUP2 LT ISZERO PUSH3 0x5F9 JUMPI DUP2 MLOAD PUSH3 0x5DD DUP9 DUP3 PUSH3 0x575 JUMP JUMPDEST SWAP8 POP PUSH3 0x5EA DUP4 PUSH3 0x58F JUMP JUMPDEST SWAP3 POP POP PUSH1 0x1 DUP2 ADD SWAP1 POP PUSH3 0x5C6 JUMP JUMPDEST POP DUP6 SWAP4 POP POP POP POP SWAP3 SWAP2 POP POP JUMP JUMPDEST PUSH1 0x0 PUSH1 0x20 DUP3 ADD SWAP1 POP DUP2 DUP2 SUB PUSH1 0x0 DUP4 ADD MSTORE PUSH3 0x622 DUP2 DUP5 PUSH3 0x59C JUMP JUMPDEST SWAP1 POP SWAP3 SWAP2 POP POP JUMP JUMPDEST PUSH1 0x0 DUP3 DUP3 MSTORE PUSH1 0x20 DUP3 ADD SWAP1 POP SWAP3 SWAP2 POP POP JUMP JUMPDEST DUP3 DUP2 DUP4 CALLDATACOPY PUSH1 0x0 DUP4 DUP4 ADD MSTORE POP POP POP JUMP JUMPDEST PUSH1 0x0 PUSH1 0x1F NOT PUSH1 0x1F DUP4 ADD AND SWAP1 POP SWAP2 SWAP1 POP JUMP JUMPDEST PUSH1 0x0 PUSH3 0x669 DUP4 DUP6 PUSH3 0x62A JUMP JUMPDEST SWAP4 POP PUSH3 0x678 DUP4 DUP6 DUP5 PUSH3 0x63B JUMP JUMPDEST PUSH3 0x683 DUP4 PUSH3 0x64A JUMP JUMPDEST DUP5 ADD SWAP1 POP SWAP4 SWAP3 POP POP POP JUMP JUMPDEST PUSH1 0x0 PUSH1 0x80 DUP3 ADD SWAP1 POP PUSH3 0x6A5 PUSH1 0x0 DUP4 ADD DUP9 PUSH3 0x447 JUMP JUMPDEST DUP2 DUP2 SUB PUSH1 0x20 DUP4 ADD MSTORE PUSH3 0x6BA DUP2 DUP7 DUP9 PUSH3 0x65B JUMP JUMPDEST SWAP1 POP PUSH3 0x6CB PUSH1 0x40 DUP4 ADD DUP6 PUSH3 0x447 JUMP JUMPDEST PUSH3 0x6DA PUSH1 0x60 DUP4 ADD DUP5 PUSH3 0x447 JUMP JUMPDEST SWAP7 SWAP6 POP POP POP POP POP POP JUMP JUMPDEST PUSH1 0x0 PUSH1 0x40 DUP3 ADD SWAP1 POP PUSH3 0x6FB PUSH1 0x0 DUP4 ADD DUP6 PUSH3 0x447 JUMP JUMPDEST PUSH3 0x70A PUSH1 0x20 DUP4 ADD DUP5 PUSH3 0x447 JUMP JUMPDEST SWAP4 SWAP3 POP POP POP JUMP INVALID PUSH1 0xE0 PUSH1 0x40 MSTORE PUSH1 0x0 PUSH1 0x7 PUSH1 0x0 PUSH2 0x100 EXP DUP2 SLOAD DUP2 PUSH4 0xFFFFFFFF MUL NOT AND SWAP1 DUP4 PUSH4 0xFFFFFFFF AND MUL OR SWAP1 SSTORE POP PUSH1 0x3 PUSH1 0x9 PUSH1 0x0 PUSH2 0x100 EXP DUP2 SLOAD DUP2 PUSH4 0xFFFFFFFF MUL NOT AND SWAP1 DUP4 PUSH4 0xFFFFFFFF AND MUL OR SWAP1 SSTORE POP PUSH1 0x0 PUSH1 0x9 PUSH1 0x4 PUSH2 0x100 EXP DUP2 SLOAD DUP2 PUSH1 0xFF MUL NOT AND SWAP1 DUP4 ISZERO ISZERO MUL OR SWAP1 SSTORE POP PUSH1 0x0 PUSH1 0x9 PUSH1 0x5 PUSH2 0x100 EXP DUP2 SLOAD DUP2 PUSH4 0xFFFFFFFF MUL NOT AND SWAP1 DUP4 PUSH4 0xFFFFFFFF AND MUL OR SWAP1 SSTORE POP CALLVALUE DUP1 ISZERO PUSH3 0x92 JUMPI PUSH1 0x0 DUP1 REVERT JUMPDEST POP PUSH1 0x40 MLOAD PUSH3 0x2C7B CODESIZE SUB DUP1 PUSH3 0x2C7B DUP4 CODECOPY DUP2 DUP2 ADD PUSH1 0x40 MSTORE DUP2 ADD SWAP1 PUSH3 0xB8 SWAP2 SWAP1 PUSH3 0x3C9 JUMP JUMPDEST DUP4 PUSH20 0xFFFFFFFFFFFFFFFFFFFFFFFFFFFFFFFFFFFFFFFF AND PUSH1 0x80 DUP2 PUSH20 0xFFFFFFFFFFFFFFFFFFFFFFFFFFFFFFFFFFFFFFFF AND DUP2 MSTORE POP POP DUP3 PUSH1 0x1 SWAP1 DUP2 PUSH3 0xFD SWAP2 SWAP1 PUSH3 0x6A5 JUMP JUMPDEST POP PUSH1 0x0 PUSH1 0x2 PUSH1 0x0 PUSH2 0x100 EXP DUP2 SLOAD DUP2 PUSH1 0xFF MUL NOT AND SWAP1 DUP4 PUSH1 0x3 DUP2 GT ISZERO PUSH3 0x127 JUMPI PUSH3 0x126 PUSH3 0x78C JUMP JUMPDEST JUMPDEST MUL OR SWAP1 SSTORE POP DUP2 PUSH20 0xFFFFFFFFFFFFFFFFFFFFFFFFFFFFFFFFFFFFFFFF AND PUSH1 0xA0 DUP2 PUSH20 0xFFFFFFFFFFFFFFFFFFFFFFFFFFFFFFFFFFFFFFFF AND DUP2 MSTORE POP POP TIMESTAMP PUSH1 0x6 DUP2 SWAP1 SSTORE POP PUSH1 0x7 PUSH1 0x0 SWAP1 SLOAD SWAP1 PUSH2 0x100 EXP SWAP1 DIV PUSH4 0xFFFFFFFF AND PUSH4 0xFFFFFFFF AND TIMESTAMP PUSH3 0x18D SWAP2 SWAP1 PUSH3 0x7EA JUMP JUMPDEST PUSH1 0x8 DUP2 SWAP1 SSTORE POP DUP1 PUSH20 0xFFFFFFFFFFFFFFFFFFFFFFFFFFFFFFFFFFFFFFFF AND PUSH1 0xC0 DUP2 PUSH20 0xFFFFFFFFFFFFFFFFFFFFFFFFFFFFFFFFFFFFFFFF AND DUP2 MSTORE POP POP POP POP POP POP PUSH3 0x825 JUMP JUMPDEST PUSH1 0x0 PUSH1 0x40 MLOAD SWAP1 POP SWAP1 JUMP JUMPDEST PUSH1 0x0 DUP1 REVERT JUMPDEST PUSH1 0x0 DUP1 REVERT JUMPDEST PUSH1 0x0 PUSH20 0xFFFFFFFFFFFFFFFFFFFFFFFFFFFFFFFFFFFFFFFF DUP3 AND SWAP1 POP SWAP2 SWAP1 POP JUMP JUMPDEST PUSH1 0x0 PUSH3 0x212 DUP3 PUSH3 0x1E5 JUMP JUMPDEST SWAP1 POP SWAP2 SWAP1 POP JUMP JUMPDEST PUSH3 0x224 DUP2 PUSH3 0x205 JUMP JUMPDEST DUP2 EQ PUSH3 0x230 JUMPI PUSH1 0x0 DUP1 REVERT JUMPDEST POP JUMP JUMPDEST PUSH1 0x0 DUP2 MLOAD SWAP1 POP PUSH3 0x244 DUP2 PUSH3 0x219 JUMP JUMPDEST SWAP3 SWAP2 POP POP JUMP JUMPDEST PUSH1 0x0 DUP1 REVERT JUMPDEST PUSH1 0x0 DUP1 REVERT JUMPDEST PUSH1 0x0 PUSH1 0x1F NOT PUSH1 0x1F DUP4 ADD AND SWAP1 POP SWAP2 SWAP1 POP JUMP JUMPDEST PUSH32 0x4E487B7100000000000000000000000000000000000000000000000000000000 PUSH1 0x0 MSTORE PUSH1 0x41 PUSH1 0x4 MSTORE PUSH1 0x24 PUSH1 0x0 REVERT JUMPDEST PUSH3 0x29F DUP3 PUSH3 0x254 JUMP JUMPDEST DUP2 ADD DUP2 DUP2 LT PUSH8 0xFFFFFFFFFFFFFFFF DUP3 GT OR ISZERO PUSH3 0x2C1 JUMPI PUSH3 0x2C0 PUSH3 0x265 JUMP JUMPDEST JUMPDEST DUP1 PUSH1 0x40 MSTORE POP POP POP JUMP JUMPDEST PUSH1 0x0 PUSH3 0x2D6 PUSH3 0x1D1 JUMP JUMPDEST SWAP1 POP PUSH3 0x2E4 DUP3 DUP3 PUSH3 0x294 JUMP JUMPDEST SWAP2 SWAP1 POP JUMP JUMPDEST PUSH1 0x0 PUSH8 0xFFFFFFFFFFFFFFFF DUP3 GT ISZERO PUSH3 0x307 JUMPI PUSH3 0x306 PUSH3 0x265 JUMP JUMPDEST JUMPDEST PUSH3 0x312 DUP3 PUSH3 0x254 JUMP JUMPDEST SWAP1 POP PUSH1 0x20 DUP2 ADD SWAP1 POP SWAP2 SWAP1 POP JUMP JUMPDEST PUSH1 0x0 JUMPDEST DUP4 DUP2 LT ISZERO PUSH3 0x33F JUMPI DUP1 DUP3 ADD MLOAD DUP2 DUP5 ADD MSTORE PUSH1 0x20 DUP2 ADD SWAP1 POP PUSH3 0x322 JUMP JUMPDEST PUSH1 0x0 DUP5 DUP5 ADD MSTORE POP POP POP POP JUMP JUMPDEST PUSH1 0x0 PUSH3 0x362 PUSH3 0x35C DUP5 PUSH3 0x2E9 JUMP JUMPDEST PUSH3 0x2CA JUMP JUMPDEST SWAP1 POP DUP3 DUP2 MSTORE PUSH1 0x20 DUP2 ADD DUP5 DUP5 DUP5 ADD GT ISZERO PUSH3 0x381 JUMPI PUSH3 0x380 PUSH3 0x24F JUMP JUMPDEST JUMPDEST PUSH3 0x38E DUP5 DUP3 DUP6 PUSH3 0x31F JUMP JUMPDEST POP SWAP4 SWAP3 POP POP POP JUMP JUMPDEST PUSH1 0x0 DUP3 PUSH1 0x1F DUP4 ADD SLT PUSH3 0x3AE JUMPI PUSH3 0x3AD PUSH3 0x24A JUMP JUMPDEST JUMPDEST DUP2 MLOAD PUSH3 0x3C0 DUP5 DUP3 PUSH1 0x20 DUP7 ADD PUSH3 0x34B JUMP JUMPDEST SWAP2 POP POP SWAP3 SWAP2 POP POP JUMP JUMPDEST PUSH1 0x0 DUP1 PUSH1 0x0 DUP1 PUSH1 0x80 DUP6 DUP8 SUB SLT ISZERO PUSH3 0x3E6 JUMPI PUSH3 0x3E5 PUSH3 0x1DB JUMP JUMPDEST JUMPDEST PUSH1 0x0 PUSH3 0x3F6 DUP8 DUP3 DUP9 ADD PUSH3 0x233 JUMP JUMPDEST SWAP5 POP POP PUSH1 0x20 DUP6 ADD MLOAD PUSH8 0xFFFFFFFFFFFFFFFF DUP2 GT ISZERO PUSH3 0x41A JUMPI PUSH3 0x419 PUSH3 0x1E0 JUMP JUMPDEST JUMPDEST PUSH3 0x428 DUP8 DUP3 DUP9 ADD PUSH3 0x396 JUMP JUMPDEST SWAP4 POP POP PUSH1 0x40 PUSH3 0x43B DUP8 DUP3 DUP9 ADD PUSH3 0x233 JUMP JUMPDEST SWAP3 POP POP PUSH1 0x60 PUSH3 0x44E DUP8 DUP3 DUP9 ADD PUSH3 0x233 JUMP JUMPDEST SWAP2 POP POP SWAP3 SWAP6 SWAP2 SWAP5 POP SWAP3 POP JUMP JUMPDEST PUSH1 0x0 DUP2 MLOAD SWAP1 POP SWAP2 SWAP1 POP JUMP JUMPDEST PUSH32 0x4E487B7100000000000000000000000000000000000000000000000000000000 PUSH1 0x0 MSTORE PUSH1 0x22 PUSH1 0x4 MSTORE PUSH1 0x24 PUSH1 0x0 REVERT JUMPDEST PUSH1 0x0 PUSH1 0x2 DUP3 DIV SWAP1 POP PUSH1 0x1 DUP3 AND DUP1 PUSH3 0x4AD JUMPI PUSH1 0x7F DUP3 AND SWAP2 POP JUMPDEST PUSH1 0x20 DUP3 LT DUP2 SUB PUSH3 0x4C3 JUMPI PUSH3 0x4C2 PUSH3 0x465 JUMP JUMPDEST JUMPDEST POP SWAP2 SWAP1 POP JUMP JUMPDEST PUSH1 0x0 DUP2 SWAP1 POP DUP2 PUSH1 0x0 MSTORE PUSH1 0x20 PUSH1 0x0 KECCAK256 SWAP1 POP SWAP2 SWAP1 POP JUMP JUMPDEST PUSH1 0x0 PUSH1 0x20 PUSH1 0x1F DUP4 ADD DIV SWAP1 POP SWAP2 SWAP1 POP JUMP JUMPDEST PUSH1 0x0 DUP3 DUP3 SHL SWAP1 POP SWAP3 SWAP2 POP POP JUMP JUMPDEST PUSH1 0x0 PUSH1 0x8 DUP4 MUL PUSH3 0x52D PUSH32 0xFFFFFFFFFFFFFFFFFFFFFFFFFFFFFFFFFFFFFFFFFFFFFFFFFFFFFFFFFFFFFFFF DUP3 PUSH3 0x4EE JUMP JUMPDEST PUSH3 0x539 DUP7 DUP4 PUSH3 0x4EE JUMP JUMPDEST SWAP6 POP DUP1 NOT DUP5 AND SWAP4 POP DUP1 DUP7 AND DUP5 OR SWAP3 POP POP POP SWAP4 SWAP3 POP POP POP JUMP JUMPDEST PUSH1 0x0 DUP2 SWAP1 POP SWAP2 SWAP1 POP JUMP JUMPDEST PUSH1 0x0 DUP2 SWAP1 POP SWAP2 SWAP1 POP JUMP JUMPDEST PUSH1 0x0 PUSH3 0x586 PUSH3 0x580 PUSH3 0x57A DUP5 PUSH3 0x551 JUMP JUMPDEST PUSH3 0x55B JUMP JUMPDEST PUSH3 0x551 JUMP JUMPDEST SWAP1 POP SWAP2 SWAP1 POP JUMP JUMPDEST PUSH1 0x0 DUP2 SWAP1 POP SWAP2 SWAP1 POP JUMP JUMPDEST PUSH3 0x5A2 DUP4 PUSH3 0x565 JUMP JUMPDEST PUSH3 0x5BA PUSH3 0x5B1 DUP3 PUSH3 0x58D JUMP JUMPDEST DUP5 DUP5 SLOAD PUSH3 0x4FB JUMP JUMPDEST DUP3 SSTORE POP POP POP POP JUMP JUMPDEST PUSH1 0x0 SWAP1 JUMP JUMPDEST PUSH3 0x5D1 PUSH3 0x5C2 JUMP JUMPDEST PUSH3 0x5DE DUP2 DUP5 DUP5 PUSH3 0x597 JUMP JUMPDEST POP POP POP JUMP JUMPDEST JUMPDEST DUP2 DUP2 LT ISZERO PUSH3 0x606 JUMPI PUSH3 0x5FA PUSH1 0x0 DUP3 PUSH3 0x5C7 JUMP JUMPDEST PUSH1 0x1 DUP2 ADD SWAP1 POP PUSH3 0x5E4 JUMP JUMPDEST POP POP JUMP JUMPDEST PUSH1 0x1F DUP3 GT ISZERO PUSH3 0x655 JUMPI PUSH3 0x61F DUP2 PUSH3 0x4C9 JUMP JUMPDEST PUSH3 0x62A DUP5 PUSH3 0x4DE JUMP JUMPDEST DUP2 ADD PUSH1 0x20 DUP6 LT ISZERO PUSH3 0x63A JUMPI DUP2 SWAP1 POP JUMPDEST PUSH3 0x652 PUSH3 0x649 DUP6 PUSH3 0x4DE JUMP JUMPDEST DUP4 ADD DUP3 PUSH3 0x5E3 JUMP JUMPDEST POP POP JUMPDEST POP POP POP JUMP JUMPDEST PUSH1 0x0 DUP3 DUP3 SHR SWAP1 POP SWAP3 SWAP2 POP POP JUMP JUMPDEST PUSH1 0x0 PUSH3 0x67A PUSH1 0x0 NOT DUP5 PUSH1 0x8 MUL PUSH3 0x65A JUMP JUMPDEST NOT DUP1 DUP4 AND SWAP2 POP POP SWAP3 SWAP2 POP POP JUMP JUMPDEST PUSH1 0x0 PUSH3 0x695 DUP4 DUP4 PUSH3 0x667 JUMP JUMPDEST SWAP2 POP DUP3 PUSH1 0x2 MUL DUP3 OR SWAP1 POP SWAP3 SWAP2 POP POP JUMP JUMPDEST PUSH3 0x6B0 DUP3 PUSH3 0x45A JUMP JUMPDEST PUSH8 0xFFFFFFFFFFFFFFFF DUP2 GT ISZERO PUSH3 0x6CC JUMPI PUSH3 0x6CB PUSH3 0x265 JUMP JUMPDEST JUMPDEST PUSH3 0x6D8 DUP3 SLOAD PUSH3 0x494 JUMP JUMPDEST PUSH3 0x6E5 DUP3 DUP3 DUP6 PUSH3 0x60A JUMP JUMPDEST PUSH1 0x0 PUSH1 0x20 SWAP1 POP PUSH1 0x1F DUP4 GT PUSH1 0x1 DUP2 EQ PUSH3 0x71D JUMPI PUSH1 0x0 DUP5 ISZERO PUSH3 0x708 JUMPI DUP3 DUP8 ADD MLOAD SWAP1 POP JUMPDEST PUSH3 0x714 DUP6 DUP3 PUSH3 0x687 JUMP JUMPDEST DUP7 SSTORE POP PUSH3 0x784 JUMP JUMPDEST PUSH1 0x1F NOT DUP5 AND PUSH3 0x72D DUP7 PUSH3 0x4C9 JUMP JUMPDEST PUSH1 0x0 JUMPDEST DUP3 DUP2 LT ISZERO PUSH3 0x757 JUMPI DUP5 DUP10 ADD MLOAD DUP3 SSTORE PUSH1 0x1 DUP3 ADD SWAP2 POP PUSH1 0x20 DUP6 ADD SWAP5 POP PUSH1 0x20 DUP2 ADD SWAP1 POP PUSH3 0x730 JUMP JUMPDEST DUP7 DUP4 LT ISZERO PUSH3 0x777 JUMPI DUP5 DUP10 ADD MLOAD PUSH3 0x773 PUSH1 0x1F DUP10 AND DUP3 PUSH3 0x667 JUMP JUMPDEST DUP4 SSTORE POP JUMPDEST PUSH1 0x1 PUSH1 0x2 DUP9 MUL ADD DUP9 SSTORE POP POP POP JUMPDEST POP POP POP POP POP POP JUMP JUMPDEST PUSH32 0x4E487B7100000000000000000000000000000000000000000000000000000000 PUSH1 0x0 MSTORE PUSH1 0x21 PUSH1 0x4 MSTORE PUSH1 0x24 PUSH1 0x0 REVERT JUMPDEST PUSH32 0x4E487B7100000000000000000000000000000000000000000000000000000000 PUSH1 0x0 MSTORE PUSH1 0x11 PUSH1 0x4 MSTORE PUSH1 0x24 PUSH1 0x0 REVERT JUMPDEST PUSH1 0x0 PUSH3 0x7F7 DUP3 PUSH3 0x551 JUMP JUMPDEST SWAP2 POP PUSH3 0x804 DUP4 PUSH3 0x551 JUMP JUMPDEST SWAP3 POP DUP3 DUP3 ADD SWAP1 POP DUP1 DUP3 GT ISZERO PUSH3 0x81F JUMPI PUSH3 0x81E PUSH3 0x7BB JUMP JUMPDEST JUMPDEST SWAP3 SWAP2 POP POP JUMP JUMPDEST PUSH1 0x80 MLOAD PUSH1 0xA0 MLOAD PUSH1 0xC0 MLOAD PUSH2 0x2418 PUSH3 0x863 PUSH1 0x0 CODECOPY PUSH1 0x0 PUSH2 0x14A0 ADD MSTORE PUSH1 0x0 DUP2 DUP2 PUSH2 0x102F ADD MSTORE PUSH2 0x13AC ADD MSTORE PUSH1 0x0 DUP2 DUP2 PUSH2 0x5F3 ADD MSTORE PUSH2 0x151E ADD MSTORE PUSH2 0x2418 PUSH1 0x0 RETURN INVALID PUSH1 0x80 PUSH1 0x40 MSTORE PUSH1 0x4 CALLDATASIZE LT PUSH2 0x140 JUMPI PUSH1 0x0 CALLDATALOAD PUSH1 0xE0 SHR DUP1 PUSH4 0x6EAEF9A9 GT PUSH2 0xB6 JUMPI DUP1 PUSH4 0xB81C78EC GT PUSH2 0x6F JUMPI DUP1 PUSH4 0xB81C78EC EQ PUSH2 0x410 JUMPI DUP1 PUSH4 0xB81CCBF8 EQ PUSH2 0x43B JUMPI DUP1 PUSH4 0xBE58196B EQ PUSH2 0x466 JUMPI DUP1 PUSH4 0xC7B96DBA EQ PUSH2 0x48F JUMPI DUP1 PUSH4 0xCFF29DFD EQ PUSH2 0x4A6 JUMPI DUP1 PUSH4 0xD7BB99BA EQ PUSH2 0x4E3 JUMPI PUSH2 0x140 JUMP JUMPDEST DUP1 PUSH4 0x6EAEF9A9 EQ PUSH2 0x2FE JUMPI DUP1 PUSH4 0x85758C27 EQ PUSH2 0x327 JUMPI DUP1 PUSH4 0x8890ED09 EQ PUSH2 0x364 JUMPI DUP1 PUSH4 0x8AF9FE3F EQ PUSH2 0x38F JUMPI DUP1 PUSH4 0xB69EF8A8 EQ PUSH2 0x3BA JUMPI DUP1 PUSH4 0xB6ABBA9C EQ PUSH2 0x3E5 JUMPI PUSH2 0x140 JUMP JUMPDEST DUP1 PUSH4 0x3DADA5E1 GT PUSH2 0x108 JUMPI DUP1 PUSH4 0x3DADA5E1 EQ PUSH2 0x22C JUMPI DUP1 PUSH4 0x40EEDABB EQ PUSH2 0x269 JUMPI DUP1 PUSH4 0x4B21BAC7 EQ PUSH2 0x294 JUMPI DUP1 PUSH4 0x590E1AE3 EQ PUSH2 0x2BF JUMPI DUP1 PUSH4 0x5F38A27E EQ PUSH2 0x2C9 JUMPI DUP1 PUSH4 0x6A3AA8E3 EQ PUSH2 0x2F4 JUMPI PUSH2 0x140 JUMP JUMPDEST DUP1 PUSH4 0x12DCFFE5 EQ PUSH2 0x145 JUMPI DUP1 PUSH4 0x1D0D35F5 EQ PUSH2 0x182 JUMPI DUP1 PUSH4 0x1F741C7A EQ PUSH2 0x1BF JUMPI DUP1 PUSH4 0x20C414BF EQ PUSH2 0x1EA JUMPI DUP1 PUSH4 0x222268BE EQ PUSH2 0x215 JUMPI JUMPDEST PUSH1 0x0 DUP1 REVERT JUMPDEST CALLVALUE DUP1 ISZERO PUSH2 0x151 JUMPI PUSH1 0x0 DUP1 REVERT JUMPDEST POP PUSH2 0x16C PUSH1 0x4 DUP1 CALLDATASIZE SUB DUP2 ADD SWAP1 PUSH2 0x167 SWAP2 SWAP1 PUSH2 0x179A JUMP JUMPDEST PUSH2 0x4ED JUMP JUMPDEST PUSH1 0x40 MLOAD PUSH2 0x179 SWAP2 SWAP1 PUSH2 0x17E0 JUMP JUMPDEST PUSH1 0x40 MLOAD DUP1 SWAP2 SUB SWAP1 RETURN JUMPDEST CALLVALUE DUP1 ISZERO PUSH2 0x18E JUMPI PUSH1 0x0 DUP1 REVERT JUMPDEST POP PUSH2 0x1A9 PUSH1 0x4 DUP1 CALLDATASIZE SUB DUP2 ADD SWAP1 PUSH2 0x1A4 SWAP2 SWAP1 PUSH2 0x179A JUMP JUMPDEST PUSH2 0x536 JUMP JUMPDEST PUSH1 0x40 MLOAD PUSH2 0x1B6 SWAP2 SWAP1 PUSH2 0x1816 JUMP JUMPDEST PUSH1 0x40 MLOAD DUP1 SWAP2 SUB SWAP1 RETURN JUMPDEST CALLVALUE DUP1 ISZERO PUSH2 0x1CB JUMPI PUSH1 0x0 DUP1 REVERT JUMPDEST POP PUSH2 0x1D4 PUSH2 0x581 JUMP JUMPDEST PUSH1 0x40 MLOAD PUSH2 0x1E1 SWAP2 SWAP1 PUSH2 0x17E0 JUMP JUMPDEST PUSH1 0x40 MLOAD DUP1 SWAP2 SUB SWAP1 RETURN JUMPDEST CALLVALUE DUP1 ISZERO PUSH2 0x1F6 JUMPI PUSH1 0x0 DUP1 REVERT JUMPDEST POP PUSH2 0x1FF PUSH2 0x587 JUMP JUMPDEST PUSH1 0x40 MLOAD PUSH2 0x20C SWAP2 SWAP1 PUSH2 0x1816 JUMP JUMPDEST PUSH1 0x40 MLOAD DUP1 SWAP2 SUB SWAP1 RETURN JUMPDEST CALLVALUE DUP1 ISZERO PUSH2 0x221 JUMPI PUSH1 0x0 DUP1 REVERT JUMPDEST POP PUSH2 0x22A PUSH2 0x59A JUMP JUMPDEST STOP JUMPDEST CALLVALUE DUP1 ISZERO PUSH2 0x238 JUMPI PUSH1 0x0 DUP1 REVERT JUMPDEST POP PUSH2 0x253 PUSH1 0x4 DUP1 CALLDATASIZE SUB DUP2 ADD SWAP1 PUSH2 0x24E SWAP2 SWAP1 PUSH2 0x179A JUMP JUMPDEST PUSH2 0x6A3 JUMP JUMPDEST PUSH1 0x40 MLOAD PUSH2 0x260 SWAP2 SWAP1 PUSH2 0x18C1 JUMP JUMPDEST PUSH1 0x40 MLOAD DUP1 SWAP2 SUB SWAP1 RETURN JUMPDEST CALLVALUE DUP1 ISZERO PUSH2 0x275 JUMPI PUSH1 0x0 DUP1 REVERT JUMPDEST POP PUSH2 0x27E PUSH2 0x774 JUMP JUMPDEST PUSH1 0x40 MLOAD PUSH2 0x28B SWAP2 SWAP1 PUSH2 0x18F2 JUMP JUMPDEST PUSH1 0x40 MLOAD DUP1 SWAP2 SUB SWAP1 RETURN JUMPDEST CALLVALUE DUP1 ISZERO PUSH2 0x2A0 JUMPI PUSH1 0x0 DUP1 REVERT JUMPDEST POP PUSH2 0x2A9 PUSH2 0x79A JUMP JUMPDEST PUSH1 0x40 MLOAD PUSH2 0x2B6 SWAP2 SWAP1 PUSH2 0x18C1 JUMP JUMPDEST PUSH1 0x40 MLOAD DUP1 SWAP2 SUB SWAP1 RETURN JUMPDEST PUSH2 0x2C7 PUSH2 0x828 JUMP JUMPDEST STOP JUMPDEST CALLVALUE DUP1 ISZERO PUSH2 0x2D5 JUMPI PUSH1 0x0 DUP1 REVERT JUMPDEST POP PUSH2 0x2DE PUSH2 0x97F JUMP JUMPDEST PUSH1 0x40 MLOAD PUSH2 0x2EB SWAP2 SWAP1 PUSH2 0x192C JUMP JUMPDEST PUSH1 0x40 MLOAD DUP1 SWAP2 SUB SWAP1 RETURN JUMPDEST PUSH2 0x2FC PUSH2 0x995 JUMP JUMPDEST STOP JUMPDEST CALLVALUE DUP1 ISZERO PUSH2 0x30A JUMPI PUSH1 0x0 DUP1 REVERT JUMPDEST POP PUSH2 0x325 PUSH1 0x4 DUP1 CALLDATASIZE SUB DUP2 ADD SWAP1 PUSH2 0x320 SWAP2 SWAP1 PUSH2 0x1985 JUMP JUMPDEST PUSH2 0xAF8 JUMP JUMPDEST STOP JUMPDEST CALLVALUE DUP1 ISZERO PUSH2 0x333 JUMPI PUSH1 0x0 DUP1 REVERT JUMPDEST POP PUSH2 0x34E PUSH1 0x4 DUP1 CALLDATASIZE SUB DUP2 ADD SWAP1 PUSH2 0x349 SWAP2 SWAP1 PUSH2 0x179A JUMP JUMPDEST PUSH2 0xEA6 JUMP JUMPDEST PUSH1 0x40 MLOAD PUSH2 0x35B SWAP2 SWAP1 PUSH2 0x17E0 JUMP JUMPDEST PUSH1 0x40 MLOAD DUP1 SWAP2 SUB SWAP1 RETURN JUMPDEST CALLVALUE DUP1 ISZERO PUSH2 0x370 JUMPI PUSH1 0x0 DUP1 REVERT JUMPDEST POP PUSH2 0x379 PUSH2 0xEEF JUMP JUMPDEST PUSH1 0x40 MLOAD PUSH2 0x386 SWAP2 SWAP1 PUSH2 0x18F2 JUMP JUMPDEST PUSH1 0x40 MLOAD DUP1 SWAP2 SUB SWAP1 RETURN JUMPDEST CALLVALUE DUP1 ISZERO PUSH2 0x39B JUMPI PUSH1 0x0 DUP1 REVERT JUMPDEST POP PUSH2 0x3A4 PUSH2 0xF15 JUMP JUMPDEST PUSH1 0x40 MLOAD PUSH2 0x3B1 SWAP2 SWAP1 PUSH2 0x1A29 JUMP JUMPDEST PUSH1 0x40 MLOAD DUP1 SWAP2 SUB SWAP1 RETURN JUMPDEST CALLVALUE DUP1 ISZERO PUSH2 0x3C6 JUMPI PUSH1 0x0 DUP1 REVERT JUMPDEST POP PUSH2 0x3CF PUSH2 0xF28 JUMP JUMPDEST PUSH1 0x40 MLOAD PUSH2 0x3DC SWAP2 SWAP1 PUSH2 0x17E0 JUMP JUMPDEST PUSH1 0x40 MLOAD DUP1 SWAP2 SUB SWAP1 RETURN JUMPDEST CALLVALUE DUP1 ISZERO PUSH2 0x3F1 JUMPI PUSH1 0x0 DUP1 REVERT JUMPDEST POP PUSH2 0x3FA PUSH2 0xF2E JUMP JUMPDEST PUSH1 0x40 MLOAD PUSH2 0x407 SWAP2 SWAP1 PUSH2 0x192C JUMP JUMPDEST PUSH1 0x40 MLOAD DUP1 SWAP2 SUB SWAP1 RETURN JUMPDEST CALLVALUE DUP1 ISZERO PUSH2 0x41C JUMPI PUSH1 0x0 DUP1 REVERT JUMPDEST POP PUSH2 0x425 PUSH2 0xF44 JUMP JUMPDEST PUSH1 0x40 MLOAD PUSH2 0x432 SWAP2 SWAP1 PUSH2 0x1B02 JUMP JUMPDEST PUSH1 0x40 MLOAD DUP1 SWAP2 SUB SWAP1 RETURN JUMPDEST CALLVALUE DUP1 ISZERO PUSH2 0x447 JUMPI PUSH1 0x0 DUP1 REVERT JUMPDEST POP PUSH2 0x450 PUSH2 0xFD2 JUMP JUMPDEST PUSH1 0x40 MLOAD PUSH2 0x45D SWAP2 SWAP1 PUSH2 0x17E0 JUMP JUMPDEST PUSH1 0x40 MLOAD DUP1 SWAP2 SUB SWAP1 RETURN JUMPDEST CALLVALUE DUP1 ISZERO PUSH2 0x472 JUMPI PUSH1 0x0 DUP1 REVERT JUMPDEST POP PUSH2 0x48D PUSH1 0x4 DUP1 CALLDATASIZE SUB DUP2 ADD SWAP1 PUSH2 0x488 SWAP2 SWAP1 PUSH2 0x1C85 JUMP JUMPDEST PUSH2 0xFD8 JUMP JUMPDEST STOP JUMPDEST CALLVALUE DUP1 ISZERO PUSH2 0x49B JUMPI PUSH1 0x0 DUP1 REVERT JUMPDEST POP PUSH2 0x4A4 PUSH2 0x1250 JUMP JUMPDEST STOP JUMPDEST CALLVALUE DUP1 ISZERO PUSH2 0x4B2 JUMPI PUSH1 0x0 DUP1 REVERT JUMPDEST POP PUSH2 0x4CD PUSH1 0x4 DUP1 CALLDATASIZE SUB DUP2 ADD SWAP1 PUSH2 0x4C8 SWAP2 SWAP1 PUSH2 0x1CE1 JUMP JUMPDEST PUSH2 0x15C4 JUMP JUMPDEST PUSH1 0x40 MLOAD PUSH2 0x4DA SWAP2 SWAP1 PUSH2 0x18F2 JUMP JUMPDEST PUSH1 0x40 MLOAD DUP1 SWAP2 SUB SWAP1 RETURN JUMPDEST PUSH2 0x4EB PUSH2 0x1603 JUMP JUMPDEST STOP JUMPDEST PUSH1 0x0 PUSH1 0xD PUSH1 0x0 DUP4 PUSH20 0xFFFFFFFFFFFFFFFFFFFFFFFFFFFFFFFFFFFFFFFF AND PUSH20 0xFFFFFFFFFFFFFFFFFFFFFFFFFFFFFFFFFFFFFFFF AND DUP2 MSTORE PUSH1 0x20 ADD SWAP1 DUP2 MSTORE PUSH1 0x20 ADD PUSH1 0x0 KECCAK256 SLOAD SWAP1 POP SWAP2 SWAP1 POP JUMP JUMPDEST PUSH1 0x0 DUP1 PUSH1 0x3 PUSH1 0x0 DUP5 PUSH20 0xFFFFFFFFFFFFFFFFFFFFFFFFFFFFFFFFFFFFFFFF AND PUSH20 0xFFFFFFFFFFFFFFFFFFFFFFFFFFFFFFFFFFFFFFFF AND DUP2 MSTORE PUSH1 0x20 ADD SWAP1 DUP2 MSTORE PUSH1 0x20 ADD PUSH1 0x0 KECCAK256 SLOAD GT SWAP1 POP SWAP2 SWAP1 POP JUMP JUMPDEST PUSH1 0x6 SLOAD DUP2 JUMP JUMPDEST PUSH1 0x9 PUSH1 0x4 SWAP1 SLOAD SWAP1 PUSH2 0x100 EXP SWAP1 DIV PUSH1 0xFF AND DUP2 JUMP JUMPDEST PUSH1 0xC PUSH1 0x0 SWAP1 SLOAD SWAP1 PUSH2 0x100 EXP SWAP1 DIV PUSH20 0xFFFFFFFFFFFFFFFFFFFFFFFFFFFFFFFFFFFFFFFF AND PUSH20 0xFFFFFFFFFFFFFFFFFFFFFFFFFFFFFFFFFFFFFFFF AND CALLER PUSH20 0xFFFFFFFFFFFFFFFFFFFFFFFFFFFFFFFFFFFFFFFF AND EQ DUP1 PUSH2 0x641 JUMPI POP PUSH32 0x0 PUSH20 0xFFFFFFFFFFFFFFFFFFFFFFFFFFFFFFFFFFFFFFFF AND CALLER PUSH20 0xFFFFFFFFFFFFFFFFFFFFFFFFFFFFFFFFFFFFFFFF AND EQ JUMPDEST PUSH2 0x64A JUMPI PUSH1 0x0 DUP1 REVERT JUMPDEST PUSH1 0x3 PUSH1 0x2 PUSH1 0x0 PUSH2 0x100 EXP DUP2 SLOAD DUP2 PUSH1 0xFF MUL NOT AND SWAP1 DUP4 PUSH1 0x3 DUP2 GT ISZERO PUSH2 0x670 JUMPI PUSH2 0x66F PUSH2 0x19B2 JUMP JUMPDEST JUMPDEST MUL OR SWAP1 SSTORE POP PUSH32 0xAA0BD7CD99BFEB112D24BCAEE2E5D057407EB13494C8A5CEEF53268F772C4D9B PUSH1 0x40 MLOAD PUSH1 0x40 MLOAD DUP1 SWAP2 SUB SWAP1 LOG1 JUMP JUMPDEST PUSH1 0x60 PUSH1 0x4 PUSH1 0x0 DUP4 PUSH20 0xFFFFFFFFFFFFFFFFFFFFFFFFFFFFFFFFFFFFFFFF AND PUSH20 0xFFFFFFFFFFFFFFFFFFFFFFFFFFFFFFFFFFFFFFFF AND DUP2 MSTORE PUSH1 0x20 ADD SWAP1 DUP2 MSTORE PUSH1 0x20 ADD PUSH1 0x0 KECCAK256 DUP1 SLOAD PUSH2 0x6EF SWAP1 PUSH2 0x1D3D JUMP JUMPDEST DUP1 PUSH1 0x1F ADD PUSH1 0x20 DUP1 SWAP2 DIV MUL PUSH1 0x20 ADD PUSH1 0x40 MLOAD SWAP1 DUP2 ADD PUSH1 0x40 MSTORE DUP1 SWAP3 SWAP2 SWAP1 DUP2 DUP2 MSTORE PUSH1 0x20 ADD DUP3 DUP1 SLOAD PUSH2 0x71B SWAP1 PUSH2 0x1D3D JUMP JUMPDEST DUP1 ISZERO PUSH2 0x768 JUMPI DUP1 PUSH1 0x1F LT PUSH2 0x73D JUMPI PUSH2 0x100 DUP1 DUP4 SLOAD DIV MUL DUP4 MSTORE SWAP2 PUSH1 0x20 ADD SWAP2 PUSH2 0x768 JUMP JUMPDEST DUP3 ADD SWAP2 SWAP1 PUSH1 0x0 MSTORE PUSH1 0x20 PUSH1 0x0 KECCAK256 SWAP1 JUMPDEST DUP2 SLOAD DUP2 MSTORE SWAP1 PUSH1 0x1 ADD SWAP1 PUSH1 0x20 ADD DUP1 DUP4 GT PUSH2 0x74B JUMPI DUP3 SWAP1 SUB PUSH1 0x1F AND DUP3 ADD SWAP2 JUMPDEST POP POP POP POP POP SWAP1 POP SWAP2 SWAP1 POP JUMP JUMPDEST PUSH1 0xB PUSH1 0x0 SWAP1 SLOAD SWAP1 PUSH2 0x100 EXP SWAP1 DIV PUSH20 0xFFFFFFFFFFFFFFFFFFFFFFFFFFFFFFFFFFFFFFFF AND DUP2 JUMP JUMPDEST PUSH1 0x1 DUP1 SLOAD PUSH2 0x7A7 SWAP1 PUSH2 0x1D3D JUMP JUMPDEST DUP1 PUSH1 0x1F ADD PUSH1 0x20 DUP1 SWAP2 DIV MUL PUSH1 0x20 ADD PUSH1 0x40 MLOAD SWAP1 DUP2 ADD PUSH1 0x40 MSTORE DUP1 SWAP3 SWAP2 SWAP1 DUP2 DUP2 MSTORE PUSH1 0x20 ADD DUP3 DUP1 SLOAD PUSH2 0x7D3 SWAP1 PUSH2 0x1D3D JUMP JUMPDEST DUP1 ISZERO PUSH2 0x820 JUMPI DUP1 PUSH1 0x1F LT PUSH2 0x7F5 JUMPI PUSH2 0x100 DUP1 DUP4 SLOAD DIV MUL DUP4 MSTORE SWAP2 PUSH1 0x20 ADD SWAP2 PUSH2 0x820 JUMP JUMPDEST DUP3 ADD SWAP2 SWAP1 PUSH1 0x0 MSTORE PUSH1 0x20 PUSH1 0x0 KECCAK256 SWAP1 JUMPDEST DUP2 SLOAD DUP2 MSTORE SWAP1 PUSH1 0x1 ADD SWAP1 PUSH1 0x20 ADD DUP1 DUP4 GT PUSH2 0x803 JUMPI DUP3 SWAP1 SUB PUSH1 0x1F AND DUP3 ADD SWAP2 JUMPDEST POP POP POP POP POP DUP2 JUMP JUMPDEST PUSH1 0x2 PUSH1 0x3 DUP2 GT ISZERO PUSH2 0x83C JUMPI PUSH2 0x83B PUSH2 0x19B2 JUMP JUMPDEST JUMPDEST PUSH1 0x2 PUSH1 0x0 SWAP1 SLOAD SWAP1 PUSH2 0x100 EXP SWAP1 DIV PUSH1 0xFF AND PUSH1 0x3 DUP2 GT ISZERO PUSH2 0x85E JUMPI PUSH2 0x85D PUSH2 0x19B2 JUMP JUMPDEST JUMPDEST SUB PUSH2 0x868 JUMPI PUSH1 0x0 DUP1 REVERT JUMPDEST PUSH1 0x0 PUSH1 0x3 PUSH1 0x0 CALLER PUSH20 0xFFFFFFFFFFFFFFFFFFFFFFFFFFFFFFFFFFFFFFFF AND PUSH20 0xFFFFFFFFFFFFFFFFFFFFFFFFFFFFFFFFFFFFFFFF AND DUP2 MSTORE PUSH1 0x20 ADD SWAP1 DUP2 MSTORE PUSH1 0x20 ADD PUSH1 0x0 KECCAK256 SLOAD SWAP1 POP PUSH1 0x0 DUP2 GT PUSH2 0x8B9 JUMPI PUSH1 0x0 DUP1 REVERT JUMPDEST CALLER PUSH20 0xFFFFFFFFFFFFFFFFFFFFFFFFFFFFFFFFFFFFFFFF AND PUSH2 0x8FC DUP3 SWAP1 DUP2 ISZERO MUL SWAP1 PUSH1 0x40 MLOAD PUSH1 0x0 PUSH1 0x40 MLOAD DUP1 DUP4 SUB DUP2 DUP6 DUP9 DUP9 CALL SWAP4 POP POP POP POP ISZERO DUP1 ISZERO PUSH2 0x8FF JUMPI RETURNDATASIZE PUSH1 0x0 DUP1 RETURNDATACOPY RETURNDATASIZE PUSH1 0x0 REVERT JUMPDEST POP PUSH1 0x0 PUSH1 0x3 PUSH1 0x0 CALLER PUSH20 0xFFFFFFFFFFFFFFFFFFFFFFFFFFFFFFFFFFFFFFFF AND PUSH20 0xFFFFFFFFFFFFFFFFFFFFFFFFFFFFFFFFFFFFFFFF AND DUP2 MSTORE PUSH1 0x20 ADD SWAP1 DUP2 MSTORE PUSH1 0x20 ADD PUSH1 0x0 KECCAK256 DUP2 SWAP1 SSTORE POP PUSH32 0x64A19944946955995BB521FBF068BFD6BA64497E91E11948A97ACD706BFFB55F CALLER PUSH1 0x40 MLOAD PUSH2 0x974 SWAP2 SWAP1 PUSH2 0x18F2 JUMP JUMPDEST PUSH1 0x40 MLOAD DUP1 SWAP2 SUB SWAP1 LOG1 POP JUMP JUMPDEST PUSH1 0x9 PUSH1 0x0 SWAP1 SLOAD SWAP1 PUSH2 0x100 EXP SWAP1 DIV PUSH4 0xFFFFFFFF AND DUP2 JUMP JUMPDEST CALLER PUSH20 0xFFFFFFFFFFFFFFFFFFFFFFFFFFFFFFFFFFFFFFFF AND PUSH1 0xC PUSH1 0x0 SWAP1 SLOAD SWAP1 PUSH2 0x100 EXP SWAP1 DIV PUSH20 0xFFFFFFFFFFFFFFFFFFFFFFFFFFFFFFFFFFFFFFFF AND PUSH20 0xFFFFFFFFFFFFFFFFFFFFFFFFFFFFFFFFFFFFFFFF AND EQ PUSH2 0xA25 JUMPI PUSH1 0x40 MLOAD PUSH32 0x8C379A000000000000000000000000000000000000000000000000000000000 DUP2 MSTORE PUSH1 0x4 ADD PUSH2 0xA1C SWAP1 PUSH2 0x1DBA JUMP JUMPDEST PUSH1 0x40 MLOAD DUP1 SWAP2 SUB SWAP1 REVERT JUMPDEST PUSH1 0x0 PUSH1 0xC PUSH1 0x0 SWAP1 SLOAD SWAP1 PUSH2 0x100 EXP SWAP1 DIV PUSH20 0xFFFFFFFFFFFFFFFFFFFFFFFFFFFFFFFFFFFFFFFF AND PUSH20 0xFFFFFFFFFFFFFFFFFFFFFFFFFFFFFFFFFFFFFFFF AND PUSH1 0x0 SLOAD PUSH1 0x40 MLOAD PUSH2 0xA6F SWAP1 PUSH2 0x1E0B JUMP JUMPDEST PUSH1 0x0 PUSH1 0x40 MLOAD DUP1 DUP4 SUB DUP2 DUP6 DUP8 GAS CALL SWAP3 POP POP POP RETURNDATASIZE DUP1 PUSH1 0x0 DUP2 EQ PUSH2 0xAAC JUMPI PUSH1 0x40 MLOAD SWAP2 POP PUSH1 0x1F NOT PUSH1 0x3F RETURNDATASIZE ADD AND DUP3 ADD PUSH1 0x40 MSTORE RETURNDATASIZE DUP3 MSTORE RETURNDATASIZE PUSH1 0x0 PUSH1 0x20 DUP5 ADD RETURNDATACOPY PUSH2 0xAB1 JUMP JUMPDEST PUSH1 0x60 SWAP2 POP JUMPDEST POP POP SWAP1 POP DUP1 PUSH2 0xAF5 JUMPI PUSH1 0x40 MLOAD PUSH32 0x8C379A000000000000000000000000000000000000000000000000000000000 DUP2 MSTORE PUSH1 0x4 ADD PUSH2 0xAEC SWAP1 PUSH2 0x1E6C JUMP JUMPDEST PUSH1 0x40 MLOAD DUP1 SWAP2 SUB SWAP1 REVERT JUMPDEST POP JUMP JUMPDEST PUSH1 0xE PUSH1 0x0 CALLER PUSH20 0xFFFFFFFFFFFFFFFFFFFFFFFFFFFFFFFFFFFFFFFF AND PUSH20 0xFFFFFFFFFFFFFFFFFFFFFFFFFFFFFFFFFFFFFFFF AND DUP2 MSTORE PUSH1 0x20 ADD SWAP1 DUP2 MSTORE PUSH1 0x20 ADD PUSH1 0x0 KECCAK256 PUSH1 0x0 SWAP1 SLOAD SWAP1 PUSH2 0x100 EXP SWAP1 DIV PUSH1 0xFF AND ISZERO PUSH2 0xB4F JUMPI PUSH1 0x0 DUP1 REVERT JUMPDEST PUSH1 0x0 PUSH1 0x3 DUP2 GT ISZERO PUSH2 0xB63 JUMPI PUSH2 0xB62 PUSH2 0x19B2 JUMP JUMPDEST JUMPDEST PUSH1 0x2 PUSH1 0x0 SWAP1 SLOAD SWAP1 PUSH2 0x100 EXP SWAP1 DIV PUSH1 0xFF AND PUSH1 0x3 DUP2 GT ISZERO PUSH2 0xB85 JUMPI PUSH2 0xB84 PUSH2 0x19B2 JUMP JUMPDEST JUMPDEST EQ PUSH2 0xB8F JUMPI PUSH1 0x0 DUP1 REVERT JUMPDEST PUSH1 0x1 PUSH1 0xD PUSH1 0x0 DUP4 PUSH20 0xFFFFFFFFFFFFFFFFFFFFFFFFFFFFFFFFFFFFFFFF AND PUSH20 0xFFFFFFFFFFFFFFFFFFFFFFFFFFFFFFFFFFFFFFFF AND DUP2 MSTORE PUSH1 0x20 ADD SWAP1 DUP2 MSTORE PUSH1 0x20 ADD PUSH1 0x0 KECCAK256 PUSH1 0x0 DUP3 DUP3 SLOAD PUSH2 0xBDF SWAP2 SWAP1 PUSH2 0x1EBB JUMP JUMPDEST SWAP3 POP POP DUP2 SWAP1 SSTORE POP PUSH1 0x9 PUSH1 0x5 DUP2 DUP2 SWAP1 SLOAD SWAP1 PUSH2 0x100 EXP SWAP1 DIV PUSH4 0xFFFFFFFF AND DUP1 SWAP3 SWAP2 SWAP1 PUSH2 0xC08 SWAP1 PUSH2 0x1EEF JUMP JUMPDEST SWAP2 SWAP1 PUSH2 0x100 EXP DUP2 SLOAD DUP2 PUSH4 0xFFFFFFFF MUL NOT AND SWAP1 DUP4 PUSH4 0xFFFFFFFF AND MUL OR SWAP1 SSTORE POP POP PUSH1 0x1 PUSH1 0xE PUSH1 0x0 CALLER PUSH20 0xFFFFFFFFFFFFFFFFFFFFFFFFFFFFFFFFFFFFFFFF AND PUSH20 0xFFFFFFFFFFFFFFFFFFFFFFFFFFFFFFFFFFFFFFFF AND DUP2 MSTORE PUSH1 0x20 ADD SWAP1 DUP2 MSTORE PUSH1 0x20 ADD PUSH1 0x0 KECCAK256 PUSH1 0x0 PUSH2 0x100 EXP DUP2 SLOAD DUP2 PUSH1 0xFF MUL NOT AND SWAP1 DUP4 ISZERO ISZERO MUL OR SWAP1 SSTORE POP PUSH1 0x0 PUSH1 0xD PUSH1 0x0 PUSH1 0xB PUSH1 0x0 SWAP1 SLOAD SWAP1 PUSH2 0x100 EXP SWAP1 DIV PUSH20 0xFFFFFFFFFFFFFFFFFFFFFFFFFFFFFFFFFFFFFFFF AND PUSH20 0xFFFFFFFFFFFFFFFFFFFFFFFFFFFFFFFFFFFFFFFF AND PUSH20 0xFFFFFFFFFFFFFFFFFFFFFFFFFFFFFFFFFFFFFFFF AND DUP2 MSTORE PUSH1 0x20 ADD SWAP1 DUP2 MSTORE PUSH1 0x20 ADD PUSH1 0x0 KECCAK256 SLOAD SUB PUSH2 0xD2E JUMPI DUP1 PUSH1 0xB PUSH1 0x0 PUSH2 0x100 EXP DUP2 SLOAD DUP2 PUSH20 0xFFFFFFFFFFFFFFFFFFFFFFFFFFFFFFFFFFFFFFFF MUL NOT AND SWAP1 DUP4 PUSH20 0xFFFFFFFFFFFFFFFFFFFFFFFFFFFFFFFFFFFFFFFF AND MUL OR SWAP1 SSTORE POP PUSH2 0xDF2 JUMP JUMPDEST PUSH1 0xD PUSH1 0x0 PUSH1 0xB PUSH1 0x0 SWAP1 SLOAD SWAP1 PUSH2 0x100 EXP SWAP1 DIV PUSH20 0xFFFFFFFFFFFFFFFFFFFFFFFFFFFFFFFFFFFFFFFF AND PUSH20 0xFFFFFFFFFFFFFFFFFFFFFFFFFFFFFFFFFFFFFFFF AND PUSH20 0xFFFFFFFFFFFFFFFFFFFFFFFFFFFFFFFFFFFFFFFF AND DUP2 MSTORE PUSH1 0x20 ADD SWAP1 DUP2 MSTORE PUSH1 0x20 ADD PUSH1 0x0 KECCAK256 SLOAD PUSH1 0x9 PUSH1 0x5 SWAP1 SLOAD SWAP1 PUSH2 0x100 EXP SWAP1 DIV PUSH4 0xFFFFFFFF AND PUSH4 0xFFFFFFFF AND LT ISZERO PUSH2 0xDF1 JUMPI DUP1 PUSH1 0xB PUSH1 0x0 PUSH2 0x100 EXP DUP2 SLOAD DUP2 PUSH20 0xFFFFFFFFFFFFFFFFFFFFFFFFFFFFFFFFFFFFFFFF MUL NOT AND SWAP1 DUP4 PUSH20 0xFFFFFFFFFFFFFFFFFFFFFFFFFFFFFFFFFFFFFFFF AND MUL OR SWAP1 SSTORE POP JUMPDEST JUMPDEST PUSH1 0x9 PUSH1 0x0 SWAP1 SLOAD SWAP1 PUSH2 0x100 EXP SWAP1 DIV PUSH4 0xFFFFFFFF AND PUSH4 0xFFFFFFFF AND PUSH1 0xD PUSH1 0x0 DUP4 PUSH20 0xFFFFFFFFFFFFFFFFFFFFFFFFFFFFFFFFFFFFFFFF AND PUSH20 0xFFFFFFFFFFFFFFFFFFFFFFFFFFFFFFFFFFFFFFFF AND DUP2 MSTORE PUSH1 0x20 ADD SWAP1 DUP2 MSTORE PUSH1 0x20 ADD PUSH1 0x0 KECCAK256 SLOAD LT PUSH2 0xE6C JUMPI PUSH1 0x1 PUSH1 0x9 PUSH1 0x4 PUSH2 0x100 EXP DUP2 SLOAD DUP2 PUSH1 0xFF MUL NOT AND SWAP1 DUP4 ISZERO ISZERO MUL OR SWAP1 SSTORE POP JUMPDEST PUSH32 0x24E53C9B6F7A01C723FA01359E44B47E62AB501027DBB092D38E3669D6B01D08 CALLER PUSH1 0x40 MLOAD PUSH2 0xE9B SWAP2 SWAP1 PUSH2 0x18F2 JUMP JUMPDEST PUSH1 0x40 MLOAD DUP1 SWAP2 SUB SWAP1 LOG1 POP JUMP JUMPDEST PUSH1 0x0 PUSH1 0x5 PUSH1 0x0 DUP4 PUSH20 0xFFFFFFFFFFFFFFFFFFFFFFFFFFFFFFFFFFFFFFFF AND PUSH20 0xFFFFFFFFFFFFFFFFFFFFFFFFFFFFFFFFFFFFFFFF AND DUP2 MSTORE PUSH1 0x20 ADD SWAP1 DUP2 MSTORE PUSH1 0x20 ADD PUSH1 0x0 KECCAK256 SLOAD SWAP1 POP SWAP2 SWAP1 POP JUMP JUMPDEST PUSH1 0xC PUSH1 0x0 SWAP1 SLOAD SWAP1 PUSH2 0x100 EXP SWAP1 DIV PUSH20 0xFFFFFFFFFFFFFFFFFFFFFFFFFFFFFFFFFFFFFFFF AND DUP2 JUMP JUMPDEST PUSH1 0x2 PUSH1 0x0 SWAP1 SLOAD SWAP1 PUSH2 0x100 EXP SWAP1 DIV PUSH1 0xFF AND DUP2 JUMP JUMPDEST PUSH1 0x0 SLOAD DUP2 JUMP JUMPDEST PUSH1 0x7 PUSH1 0x0 SWAP1 SLOAD SWAP1 PUSH2 0x100 EXP SWAP1 DIV PUSH4 0xFFFFFFFF AND DUP2 JUMP JUMPDEST PUSH1 0x60 PUSH1 0xA DUP1 SLOAD DUP1 PUSH1 0x20 MUL PUSH1 0x20 ADD PUSH1 0x40 MLOAD SWAP1 DUP2 ADD PUSH1 0x40 MSTORE DUP1 SWAP3 SWAP2 SWAP1 DUP2 DUP2 MSTORE PUSH1 0x20 ADD DUP3 DUP1 SLOAD DUP1 ISZERO PUSH2 0xFC8 JUMPI PUSH1 0x20 MUL DUP3 ADD SWAP2 SWAP1 PUSH1 0x0 MSTORE PUSH1 0x20 PUSH1 0x0 KECCAK256 SWAP1 JUMPDEST DUP2 PUSH1 0x0 SWAP1 SLOAD SWAP1 PUSH2 0x100 EXP SWAP1 DIV PUSH20 0xFFFFFFFFFFFFFFFFFFFFFFFFFFFFFFFFFFFFFFFF AND PUSH20 0xFFFFFFFFFFFFFFFFFFFFFFFFFFFFFFFFFFFFFFFF AND DUP2 MSTORE PUSH1 0x20 ADD SWAP1 PUSH1 0x1 ADD SWAP1 DUP1 DUP4 GT PUSH2 0xF7E JUMPI JUMPDEST POP POP POP POP POP SWAP1 POP SWAP1 JUMP JUMPDEST PUSH1 0x8 SLOAD DUP2 JUMP JUMPDEST PUSH1 0x0 PUSH1 0x3 DUP2 GT ISZERO PUSH2 0xFEC JUMPI PUSH2 0xFEB PUSH2 0x19B2 JUMP JUMPDEST JUMPDEST PUSH1 0x2 PUSH1 0x0 SWAP1 SLOAD SWAP1 PUSH2 0x100 EXP SWAP1 DIV PUSH1 0xFF AND PUSH1 0x3 DUP2 GT ISZERO PUSH2 0x100E JUMPI PUSH2 0x100D PUSH2 0x19B2 JUMP JUMPDEST JUMPDEST EQ PUSH2 0x1018 JUMPI PUSH1 0x0 DUP1 REVERT JUMPDEST PUSH1 0x0 DUP3 SWAP1 POP PUSH1 0x0 DUP2 MLOAD GT PUSH2 0x102B JUMPI PUSH1 0x0 DUP1 REVERT JUMPDEST PUSH1 0x0 PUSH32 0x0 SWAP1 POP DUP1 PUSH20 0xFFFFFFFFFFFFFFFFFFFFFFFFFFFFFFFFFFFFFFFF AND PUSH4 0x75838862 CALLER PUSH1 0x40 MLOAD DUP3 PUSH4 0xFFFFFFFF AND PUSH1 0xE0 SHL DUP2 MSTORE PUSH1 0x4 ADD PUSH2 0x1089 SWAP2 SWAP1 PUSH2 0x18F2 JUMP JUMPDEST PUSH1 0x20 PUSH1 0x40 MLOAD DUP1 DUP4 SUB DUP2 DUP7 GAS STATICCALL ISZERO DUP1 ISZERO PUSH2 0x10A6 JUMPI RETURNDATASIZE PUSH1 0x0 DUP1 RETURNDATACOPY RETURNDATASIZE PUSH1 0x0 REVERT JUMPDEST POP POP POP POP PUSH1 0x40 MLOAD RETURNDATASIZE PUSH1 0x1F NOT PUSH1 0x1F DUP3 ADD AND DUP3 ADD DUP1 PUSH1 0x40 MSTORE POP DUP2 ADD SWAP1 PUSH2 0x10CA SWAP2 SWAP1 PUSH2 0x1F47 JUMP JUMPDEST PUSH2 0x10D3 JUMPI PUSH1 0x0 DUP1 REVERT JUMPDEST PUSH1 0x0 PUSH1 0x5 PUSH1 0x0 CALLER PUSH20 0xFFFFFFFFFFFFFFFFFFFFFFFFFFFFFFFFFFFFFFFF AND PUSH20 0xFFFFFFFFFFFFFFFFFFFFFFFFFFFFFFFFFFFFFFFF AND DUP2 MSTORE PUSH1 0x20 ADD SWAP1 DUP2 MSTORE PUSH1 0x20 ADD PUSH1 0x0 KECCAK256 SLOAD EQ PUSH2 0x111F JUMPI PUSH1 0x0 DUP1 REVERT JUMPDEST DUP4 PUSH1 0x4 PUSH1 0x0 CALLER PUSH20 0xFFFFFFFFFFFFFFFFFFFFFFFFFFFFFFFFFFFFFFFF AND PUSH20 0xFFFFFFFFFFFFFFFFFFFFFFFFFFFFFFFFFFFFFFFF AND DUP2 MSTORE PUSH1 0x20 ADD SWAP1 DUP2 MSTORE PUSH1 0x20 ADD PUSH1 0x0 KECCAK256 SWAP1 DUP2 PUSH2 0x116B SWAP2 SWAP1 PUSH2 0x2120 JUMP JUMPDEST POP DUP3 PUSH1 0x5 PUSH1 0x0 CALLER PUSH20 0xFFFFFFFFFFFFFFFFFFFFFFFFFFFFFFFFFFFFFFFF AND PUSH20 0xFFFFFFFFFFFFFFFFFFFFFFFFFFFFFFFFFFFFFFFF AND DUP2 MSTORE PUSH1 0x20 ADD SWAP1 DUP2 MSTORE PUSH1 0x20 ADD PUSH1 0x0 KECCAK256 DUP2 SWAP1 SSTORE POP PUSH1 0xA CALLER SWAP1 DUP1 PUSH1 0x1 DUP2 SLOAD ADD DUP1 DUP3 SSTORE DUP1 SWAP2 POP POP PUSH1 0x1 SWAP1 SUB SWAP1 PUSH1 0x0 MSTORE PUSH1 0x20 PUSH1 0x0 KECCAK256 ADD PUSH1 0x0 SWAP1 SWAP2 SWAP1 SWAP2 SWAP1 SWAP2 PUSH2 0x100 EXP DUP2 SLOAD DUP2 PUSH20 0xFFFFFFFFFFFFFFFFFFFFFFFFFFFFFFFFFFFFFFFF MUL NOT AND SWAP1 DUP4 PUSH20 0xFFFFFFFFFFFFFFFFFFFFFFFFFFFFFFFFFFFFFFFF AND MUL OR SWAP1 SSTORE POP PUSH32 0x23914683CB862EC5961902CCA21FB0378FD27A633C4D929996C2A14ABCFD5B51 CALLER PUSH1 0x40 MLOAD PUSH2 0x1242 SWAP2 SWAP1 PUSH2 0x18F2 JUMP JUMPDEST PUSH1 0x40 MLOAD DUP1 SWAP2 SUB SWAP1 LOG1 POP POP POP POP JUMP JUMPDEST PUSH1 0xB PUSH1 0x0 SWAP1 SLOAD SWAP1 PUSH2 0x100 EXP SWAP1 DIV PUSH20 0xFFFFFFFFFFFFFFFFFFFFFFFFFFFFFFFFFFFFFFFF AND PUSH20 0xFFFFFFFFFFFFFFFFFFFFFFFFFFFFFFFFFFFFFFFF AND CALLER PUSH20 0xFFFFFFFFFFFFFFFFFFFFFFFFFFFFFFFFFFFFFFFF AND EQ PUSH2 0x12AA JUMPI PUSH1 0x0 DUP1 REVERT JUMPDEST PUSH1 0x9 PUSH1 0x4 SWAP1 SLOAD SWAP1 PUSH2 0x100 EXP SWAP1 DIV PUSH1 0xFF AND PUSH2 0x12C3 JUMPI PUSH1 0x0 DUP1 REVERT JUMPDEST PUSH1 0x8 SLOAD TIMESTAMP GT PUSH2 0x12D1 JUMPI PUSH1 0x0 DUP1 REVERT JUMPDEST PUSH1 0x0 PUSH1 0x5 PUSH1 0x0 PUSH1 0xB PUSH1 0x0 SWAP1 SLOAD SWAP1 PUSH2 0x100 EXP SWAP1 DIV PUSH20 0xFFFFFFFFFFFFFFFFFFFFFFFFFFFFFFFFFFFFFFFF AND PUSH20 0xFFFFFFFFFFFFFFFFFFFFFFFFFFFFFFFFFFFFFFFF AND PUSH20 0xFFFFFFFFFFFFFFFFFFFFFFFFFFFFFFFFFFFFFFFF AND DUP2 MSTORE PUSH1 0x20 ADD SWAP1 DUP2 MSTORE PUSH1 0x20 ADD PUSH1 0x0 KECCAK256 SLOAD SWAP1 POP DUP1 PUSH1 0x0 SLOAD GT PUSH2 0x1345 JUMPI PUSH1 0x0 DUP1 REVERT JUMPDEST PUSH1 0xB PUSH1 0x0 SWAP1 SLOAD SWAP1 PUSH2 0x100 EXP SWAP1 DIV PUSH20 0xFFFFFFFFFFFFFFFFFFFFFFFFFFFFFFFFFFFFFFFF AND PUSH1 0xC PUSH1 0x0 PUSH2 0x100 EXP DUP2 SLOAD DUP2 PUSH20 0xFFFFFFFFFFFFFFFFFFFFFFFFFFFFFFFFFFFFFFFF MUL NOT AND SWAP1 DUP4 PUSH20 0xFFFFFFFFFFFFFFFFFFFFFFFFFFFFFFFFFFFFFFFF AND MUL OR SWAP1 SSTORE POP PUSH1 0x0 PUSH32 0x0 SWAP1 POP PUSH1 0x0 DUP2 PUSH20 0xFFFFFFFFFFFFFFFFFFFFFFFFFFFFFFFFFFFFFFFF AND PUSH4 0xFADD65C3 PUSH1 0xB PUSH1 0x0 SWAP1 SLOAD SWAP1 PUSH2 0x100 EXP SWAP1 DIV PUSH20 0xFFFFFFFFFFFFFFFFFFFFFFFFFFFFFFFFFFFFFFFF AND PUSH1 0x40 MLOAD DUP3 PUSH4 0xFFFFFFFF AND PUSH1 0xE0 SHL DUP2 MSTORE PUSH1 0x4 ADD PUSH2 0x142A SWAP2 SWAP1 PUSH2 0x18F2 JUMP JUMPDEST PUSH1 0x0 PUSH1 0x40 MLOAD DUP1 DUP4 SUB DUP2 DUP7 GAS STATICCALL ISZERO DUP1 ISZERO PUSH2 0x1447 JUMPI RETURNDATASIZE PUSH1 0x0 DUP1 RETURNDATACOPY RETURNDATASIZE PUSH1 0x0 REVERT JUMPDEST POP POP POP POP PUSH1 0x40 MLOAD RETURNDATASIZE PUSH1 0x0 DUP3 RETURNDATACOPY RETURNDATASIZE PUSH1 0x1F NOT PUSH1 0x1F DUP3 ADD AND DUP3 ADD DUP1 PUSH1 0x40 MSTORE POP DUP2 ADD SWAP1 PUSH2 0x1470 SWAP2 SWAP1 PUSH2 0x22CF JUMP JUMPDEST SWAP1 POP PUSH1 0x2 DUP1 PUSH1 0x0 PUSH2 0x100 EXP DUP2 SLOAD DUP2 PUSH1 0xFF MUL NOT AND SWAP1 DUP4 PUSH1 0x3 DUP2 GT ISZERO PUSH2 0x1497 JUMPI PUSH2 0x1496 PUSH2 0x19B2 JUMP JUMPDEST JUMPDEST MUL OR SWAP1 SSTORE POP PUSH1 0x0 PUSH32 0x0 SWAP1 POP DUP1 PUSH20 0xFFFFFFFFFFFFFFFFFFFFFFFFFFFFFFFFFFFFFFFF AND PUSH4 0xC6211077 DUP4 PUSH1 0x0 DUP2 MLOAD DUP2 LT PUSH2 0x14F1 JUMPI PUSH2 0x14F0 PUSH2 0x2318 JUMP JUMPDEST JUMPDEST PUSH1 0x20 MUL PUSH1 0x20 ADD ADD MLOAD PUSH1 0xC PUSH1 0x0 SWAP1 SLOAD SWAP1 PUSH2 0x100 EXP SWAP1 DIV PUSH20 0xFFFFFFFFFFFFFFFFFFFFFFFFFFFFFFFFFFFFFFFF AND PUSH32 0x0 PUSH1 0x0 ADDRESS PUSH1 0x40 MLOAD DUP7 PUSH4 0xFFFFFFFF AND PUSH1 0xE0 SHL DUP2 MSTORE PUSH1 0x4 ADD PUSH2 0x1560 SWAP6 SWAP5 SWAP4 SWAP3 SWAP2 SWAP1 PUSH2 0x238F JUMP JUMPDEST PUSH1 0x0 PUSH1 0x40 MLOAD DUP1 DUP4 SUB DUP2 PUSH1 0x0 DUP8 DUP1 EXTCODESIZE ISZERO DUP1 ISZERO PUSH2 0x157A JUMPI PUSH1 0x0 DUP1 REVERT JUMPDEST POP GAS CALL ISZERO DUP1 ISZERO PUSH2 0x158E JUMPI RETURNDATASIZE PUSH1 0x0 DUP1 RETURNDATACOPY RETURNDATASIZE PUSH1 0x0 REVERT JUMPDEST POP POP POP POP PUSH32 0x45B0F4BC838CFD8748CC5DFB3C6627145D32DDCB17804DDF52CD8CC9E5CD1B5D PUSH1 0x40 MLOAD PUSH1 0x40 MLOAD DUP1 SWAP2 SUB SWAP1 LOG1 POP POP POP POP JUMP JUMPDEST PUSH1 0xA DUP2 DUP2 SLOAD DUP2 LT PUSH2 0x15D4 JUMPI PUSH1 0x0 DUP1 REVERT JUMPDEST SWAP1 PUSH1 0x0 MSTORE PUSH1 0x20 PUSH1 0x0 KECCAK256 ADD PUSH1 0x0 SWAP2 POP SLOAD SWAP1 PUSH2 0x100 EXP SWAP1 DIV PUSH20 0xFFFFFFFFFFFFFFFFFFFFFFFFFFFFFFFFFFFFFFFF AND DUP2 JUMP JUMPDEST PUSH1 0x0 PUSH1 0x3 DUP2 GT ISZERO PUSH2 0x1617 JUMPI PUSH2 0x1616 PUSH2 0x19B2 JUMP JUMPDEST JUMPDEST PUSH1 0x2 PUSH1 0x0 SWAP1 SLOAD SWAP1 PUSH2 0x100 EXP SWAP1 DIV PUSH1 0xFF AND PUSH1 0x3 DUP2 GT ISZERO PUSH2 0x1639 JUMPI PUSH2 0x1638 PUSH2 0x19B2 JUMP JUMPDEST JUMPDEST EQ DUP1 PUSH2 0x1678 JUMPI POP PUSH1 0x1 PUSH1 0x3 DUP2 GT ISZERO PUSH2 0x1654 JUMPI PUSH2 0x1653 PUSH2 0x19B2 JUMP JUMPDEST JUMPDEST PUSH1 0x2 PUSH1 0x0 SWAP1 SLOAD SWAP1 PUSH2 0x100 EXP SWAP1 DIV PUSH1 0xFF AND PUSH1 0x3 DUP2 GT ISZERO PUSH2 0x1676 JUMPI PUSH2 0x1675 PUSH2 0x19B2 JUMP JUMPDEST JUMPDEST EQ JUMPDEST PUSH2 0x1681 JUMPI PUSH1 0x0 DUP1 REVERT JUMPDEST CALLVALUE PUSH1 0x3 PUSH1 0x0 CALLER PUSH20 0xFFFFFFFFFFFFFFFFFFFFFFFFFFFFFFFFFFFFFFFF AND PUSH20 0xFFFFFFFFFFFFFFFFFFFFFFFFFFFFFFFFFFFFFFFF AND DUP2 MSTORE PUSH1 0x20 ADD SWAP1 DUP2 MSTORE PUSH1 0x20 ADD PUSH1 0x0 KECCAK256 PUSH1 0x0 DUP3 DUP3 SLOAD PUSH2 0x16D0 SWAP2 SWAP1 PUSH2 0x1EBB JUMP JUMPDEST SWAP3 POP POP DUP2 SWAP1 SSTORE POP CALLVALUE PUSH1 0x0 DUP1 DUP3 DUP3 SLOAD PUSH2 0x16E8 SWAP2 SWAP1 PUSH2 0x1EBB JUMP JUMPDEST SWAP3 POP POP DUP2 SWAP1 SSTORE POP PUSH32 0x35A268D4C65B4AFB5B15F6E60F11FD64CCE0AA427E6D48058BE6E9B697C493D7 CALLER PUSH1 0x40 MLOAD PUSH2 0x171E SWAP2 SWAP1 PUSH2 0x18F2 JUMP JUMPDEST PUSH1 0x40 MLOAD DUP1 SWAP2 SUB SWAP1 LOG1 JUMP JUMPDEST PUSH1 0x0 PUSH1 0x40 MLOAD SWAP1 POP SWAP1 JUMP JUMPDEST PUSH1 0x0 DUP1 REVERT JUMPDEST PUSH1 0x0 DUP1 REVERT JUMPDEST PUSH1 0x0 PUSH20 0xFFFFFFFFFFFFFFFFFFFFFFFFFFFFFFFFFFFFFFFF DUP3 AND SWAP1 POP SWAP2 SWAP1 POP JUMP JUMPDEST PUSH1 0x0 PUSH2 0x1767 DUP3 PUSH2 0x173C JUMP JUMPDEST SWAP1 POP SWAP2 SWAP1 POP JUMP JUMPDEST PUSH2 0x1777 DUP2 PUSH2 0x175C JUMP JUMPDEST DUP2 EQ PUSH2 0x1782 JUMPI PUSH1 0x0 DUP1 REVERT JUMPDEST POP JUMP JUMPDEST PUSH1 0x0 DUP2 CALLDATALOAD SWAP1 POP PUSH2 0x1794 DUP2 PUSH2 0x176E JUMP JUMPDEST SWAP3 SWAP2 POP POP JUMP JUMPDEST PUSH1 0x0 PUSH1 0x20 DUP3 DUP5 SUB SLT ISZERO PUSH2 0x17B0 JUMPI PUSH2 0x17AF PUSH2 0x1732 JUMP JUMPDEST JUMPDEST PUSH1 0x0 PUSH2 0x17BE DUP5 DUP3 DUP6 ADD PUSH2 0x1785 JUMP JUMPDEST SWAP2 POP POP SWAP3 SWAP2 POP POP JUMP JUMPDEST PUSH1 0x0 DUP2 SWAP1 POP SWAP2 SWAP1 POP JUMP JUMPDEST PUSH2 0x17DA DUP2 PUSH2 0x17C7 JUMP JUMPDEST DUP3 MSTORE POP POP JUMP JUMPDEST PUSH1 0x0 PUSH1 0x20 DUP3 ADD SWAP1 POP PUSH2 0x17F5 PUSH1 0x0 DUP4 ADD DUP5 PUSH2 0x17D1 JUMP JUMPDEST SWAP3 SWAP2 POP POP JUMP JUMPDEST PUSH1 0x0 DUP2 ISZERO ISZERO SWAP1 POP SWAP2 SWAP1 POP JUMP JUMPDEST PUSH2 0x1810 DUP2 PUSH2 0x17FB JUMP JUMPDEST DUP3 MSTORE POP POP JUMP JUMPDEST PUSH1 0x0 PUSH1 0x20 DUP3 ADD SWAP1 POP PUSH2 0x182B PUSH1 0x0 DUP4 ADD DUP5 PUSH2 0x1807 JUMP JUMPDEST SWAP3 SWAP2 POP POP JUMP JUMPDEST PUSH1 0x0 DUP2 MLOAD SWAP1 POP SWAP2 SWAP1 POP JUMP JUMPDEST PUSH1 0x0 DUP3 DUP3 MSTORE PUSH1 0x20 DUP3 ADD SWAP1 POP SWAP3 SWAP2 POP POP JUMP JUMPDEST PUSH1 0x0 JUMPDEST DUP4 DUP2 LT ISZERO PUSH2 0x186B JUMPI DUP1 DUP3 ADD MLOAD DUP2 DUP5 ADD MSTORE PUSH1 0x20 DUP2 ADD SWAP1 POP PUSH2 0x1850 JUMP JUMPDEST PUSH1 0x0 DUP5 DUP5 ADD MSTORE POP POP POP POP JUMP JUMPDEST PUSH1 0x0 PUSH1 0x1F NOT PUSH1 0x1F DUP4 ADD AND SWAP1 POP SWAP2 SWAP1 POP JUMP JUMPDEST PUSH1 0x0 PUSH2 0x1893 DUP3 PUSH2 0x1831 JUMP JUMPDEST PUSH2 0x189D DUP2 DUP6 PUSH2 0x183C JUMP JUMPDEST SWAP4 POP PUSH2 0x18AD DUP2 DUP6 PUSH1 0x20 DUP7 ADD PUSH2 0x184D JUMP JUMPDEST PUSH2 0x18B6 DUP2 PUSH2 0x1877 JUMP JUMPDEST DUP5 ADD SWAP2 POP POP SWAP3 SWAP2 POP POP JUMP JUMPDEST PUSH1 0x0 PUSH1 0x20 DUP3 ADD SWAP1 POP DUP2 DUP2 SUB PUSH1 0x0 DUP4 ADD MSTORE PUSH2 0x18DB DUP2 DUP5 PUSH2 0x1888 JUMP JUMPDEST SWAP1 POP SWAP3 SWAP2 POP POP JUMP JUMPDEST PUSH2 0x18EC DUP2 PUSH2 0x175C JUMP JUMPDEST DUP3 MSTORE POP POP JUMP JUMPDEST PUSH1 0x0 PUSH1 0x20 DUP3 ADD SWAP1 POP PUSH2 0x1907 PUSH1 0x0 DUP4 ADD DUP5 PUSH2 0x18E3 JUMP JUMPDEST SWAP3 SWAP2 POP POP JUMP JUMPDEST PUSH1 0x0 PUSH4 0xFFFFFFFF DUP3 AND SWAP1 POP SWAP2 SWAP1 POP JUMP JUMPDEST PUSH2 0x1926 DUP2 PUSH2 0x190D JUMP JUMPDEST DUP3 MSTORE POP POP JUMP JUMPDEST PUSH1 0x0 PUSH1 0x20 DUP3 ADD SWAP1 POP PUSH2 0x1941 PUSH1 0x0 DUP4 ADD DUP5 PUSH2 0x191D JUMP JUMPDEST SWAP3 SWAP2 POP POP JUMP JUMPDEST PUSH1 0x0 PUSH2 0x1952 DUP3 PUSH2 0x173C JUMP JUMPDEST SWAP1 POP SWAP2 SWAP1 POP JUMP JUMPDEST PUSH2 0x1962 DUP2 PUSH2 0x1947 JUMP JUMPDEST DUP2 EQ PUSH2 0x196D JUMPI PUSH1 0x0 DUP1 REVERT JUMPDEST POP JUMP JUMPDEST PUSH1 0x0 DUP2 CALLDATALOAD SWAP1 POP PUSH2 0x197F DUP2 PUSH2 0x1959 JUMP JUMPDEST SWAP3 SWAP2 POP POP JUMP JUMPDEST PUSH1 0x0 PUSH1 0x20 DUP3 DUP5 SUB SLT ISZERO PUSH2 0x199B JUMPI PUSH2 0x199A PUSH2 0x1732 JUMP JUMPDEST JUMPDEST PUSH1 0x0 PUSH2 0x19A9 DUP5 DUP3 DUP6 ADD PUSH2 0x1970 JUMP JUMPDEST SWAP2 POP POP SWAP3 SWAP2 POP POP JUMP JUMPDEST PUSH32 0x4E487B7100000000000000000000000000000000000000000000000000000000 PUSH1 0x0 MSTORE PUSH1 0x21 PUSH1 0x4 MSTORE PUSH1 0x24 PUSH1 0x0 REVERT JUMPDEST PUSH1 0x4 DUP2 LT PUSH2 0x19F2 JUMPI PUSH2 0x19F1 PUSH2 0x19B2 JUMP JUMPDEST JUMPDEST POP JUMP JUMPDEST PUSH1 0x0 DUP2 SWAP1 POP PUSH2 0x1A03 DUP3 PUSH2 0x19E1 JUMP JUMPDEST SWAP2 SWAP1 POP JUMP JUMPDEST PUSH1 0x0 PUSH2 0x1A13 DUP3 PUSH2 0x19F5 JUMP JUMPDEST SWAP1 POP SWAP2 SWAP1 POP JUMP JUMPDEST PUSH2 0x1A23 DUP2 PUSH2 0x1A08 JUMP JUMPDEST DUP3 MSTORE POP POP JUMP JUMPDEST PUSH1 0x0 PUSH1 0x20 DUP3 ADD SWAP1 POP PUSH2 0x1A3E PUSH1 0x0 DUP4 ADD DUP5 PUSH2 0x1A1A JUMP JUMPDEST SWAP3 SWAP2 POP POP JUMP JUMPDEST PUSH1 0x0 DUP2 MLOAD SWAP1 POP SWAP2 SWAP1 POP JUMP JUMPDEST PUSH1 0x0 DUP3 DUP3 MSTORE PUSH1 0x20 DUP3 ADD SWAP1 POP SWAP3 SWAP2 POP POP JUMP JUMPDEST PUSH1 0x0 DUP2 SWAP1 POP PUSH1 0x20 DUP3 ADD SWAP1 POP SWAP2 SWAP1 POP JUMP JUMPDEST PUSH2 0x1A79 DUP2 PUSH2 0x175C JUMP JUMPDEST DUP3 MSTORE POP POP JUMP JUMPDEST PUSH1 0x0 PUSH2 0x1A8B DUP4 DUP4 PUSH2 0x1A70 JUMP JUMPDEST PUSH1 0x20 DUP4 ADD SWAP1 POP SWAP3 SWAP2 POP POP JUMP JUMPDEST PUSH1 0x0 PUSH1 0x20 DUP3 ADD SWAP1 POP SWAP2 SWAP1 POP JUMP JUMPDEST PUSH1 0x0 PUSH2 0x1AAF DUP3 PUSH2 0x1A44 JUMP JUMPDEST PUSH2 0x1AB9 DUP2 DUP6 PUSH2 0x1A4F JUMP JUMPDEST SWAP4 POP PUSH2 0x1AC4 DUP4 PUSH2 0x1A60 JUMP JUMPDEST DUP1 PUSH1 0x0 JUMPDEST DUP4 DUP2 LT ISZERO PUSH2 0x1AF5 JUMPI DUP2 MLOAD PUSH2 0x1ADC DUP9 DUP3 PUSH2 0x1A7F JUMP JUMPDEST SWAP8 POP PUSH2 0x1AE7 DUP4 PUSH2 0x1A97 JUMP JUMPDEST SWAP3 POP POP PUSH1 0x1 DUP2 ADD SWAP1 POP PUSH2 0x1AC8 JUMP JUMPDEST POP DUP6 SWAP4 POP POP POP POP SWAP3 SWAP2 POP POP JUMP JUMPDEST PUSH1 0x0 PUSH1 0x20 DUP3 ADD SWAP1 POP DUP2 DUP2 SUB PUSH1 0x0 DUP4 ADD MSTORE PUSH2 0x1B1C DUP2 DUP5 PUSH2 0x1AA4 JUMP JUMPDEST SWAP1 POP SWAP3 SWAP2 POP POP JUMP JUMPDEST PUSH1 0x0 DUP1 REVERT JUMPDEST PUSH1 0x0 DUP1 REVERT JUMPDEST PUSH32 0x4E487B7100000000000000000000000000000000000000000000000000000000 PUSH1 0x0 MSTORE PUSH1 0x41 PUSH1 0x4 MSTORE PUSH1 0x24 PUSH1 0x0 REVERT JUMPDEST PUSH2 0x1B66 DUP3 PUSH2 0x1877 JUMP JUMPDEST DUP2 ADD DUP2 DUP2 LT PUSH8 0xFFFFFFFFFFFFFFFF DUP3 GT OR ISZERO PUSH2 0x1B85 JUMPI PUSH2 0x1B84 PUSH2 0x1B2E JUMP JUMPDEST JUMPDEST DUP1 PUSH1 0x40 MSTORE POP POP POP JUMP JUMPDEST PUSH1 0x0 PUSH2 0x1B98 PUSH2 0x1728 JUMP JUMPDEST SWAP1 POP PUSH2 0x1BA4 DUP3 DUP3 PUSH2 0x1B5D JUMP JUMPDEST SWAP2 SWAP1 POP JUMP JUMPDEST PUSH1 0x0 PUSH8 0xFFFFFFFFFFFFFFFF DUP3 GT ISZERO PUSH2 0x1BC4 JUMPI PUSH2 0x1BC3 PUSH2 0x1B2E JUMP JUMPDEST JUMPDEST PUSH2 0x1BCD DUP3 PUSH2 0x1877 JUMP JUMPDEST SWAP1 POP PUSH1 0x20 DUP2 ADD SWAP1 POP SWAP2 SWAP1 POP JUMP JUMPDEST DUP3 DUP2 DUP4 CALLDATACOPY PUSH1 0x0 DUP4 DUP4 ADD MSTORE POP POP POP JUMP JUMPDEST PUSH1 0x0 PUSH2 0x1BFC PUSH2 0x1BF7 DUP5 PUSH2 0x1BA9 JUMP JUMPDEST PUSH2 0x1B8E JUMP JUMPDEST SWAP1 POP DUP3 DUP2 MSTORE PUSH1 0x20 DUP2 ADD DUP5 DUP5 DUP5 ADD GT ISZERO PUSH2 0x1C18 JUMPI PUSH2 0x1C17 PUSH2 0x1B29 JUMP JUMPDEST JUMPDEST PUSH2 0x1C23 DUP5 DUP3 DUP6 PUSH2 0x1BDA JUMP JUMPDEST POP SWAP4 SWAP3 POP POP POP JUMP JUMPDEST PUSH1 0x0 DUP3 PUSH1 0x1F DUP4 ADD SLT PUSH2 0x1C40 JUMPI PUSH2 0x1C3F PUSH2 0x1B24 JUMP JUMPDEST JUMPDEST DUP2 CALLDATALOAD PUSH2 0x1C50 DUP5 DUP3 PUSH1 0x20 DUP7 ADD PUSH2 0x1BE9 JUMP JUMPDEST SWAP2 POP POP SWAP3 SWAP2 POP POP JUMP JUMPDEST PUSH2 0x1C62 DUP2 PUSH2 0x17C7 JUMP JUMPDEST DUP2 EQ PUSH2 0x1C6D JUMPI PUSH1 0x0 DUP1 REVERT JUMPDEST POP JUMP JUMPDEST PUSH1 0x0 DUP2 CALLDATALOAD SWAP1 POP PUSH2 0x1C7F DUP2 PUSH2 0x1C59 JUMP JUMPDEST SWAP3 SWAP2 POP POP JUMP JUMPDEST PUSH1 0x0 DUP1 PUSH1 0x40 DUP4 DUP6 SUB SLT ISZERO PUSH2 0x1C9C JUMPI PUSH2 0x1C9B PUSH2 0x1732 JUMP JUMPDEST JUMPDEST PUSH1 0x0 DUP4 ADD CALLDATALOAD PUSH8 0xFFFFFFFFFFFFFFFF DUP2 GT ISZERO PUSH2 0x1CBA JUMPI PUSH2 0x1CB9 PUSH2 0x1737 JUMP JUMPDEST JUMPDEST PUSH2 0x1CC6 DUP6 DUP3 DUP7 ADD PUSH2 0x1C2B JUMP JUMPDEST SWAP3 POP POP PUSH1 0x20 PUSH2 0x1CD7 DUP6 DUP3 DUP7 ADD PUSH2 0x1C70 JUMP JUMPDEST SWAP2 POP POP SWAP3 POP SWAP3 SWAP1 POP JUMP JUMPDEST PUSH1 0x0 PUSH1 0x20 DUP3 DUP5 SUB SLT ISZERO PUSH2 0x1CF7 JUMPI PUSH2 0x1CF6 PUSH2 0x1732 JUMP JUMPDEST JUMPDEST PUSH1 0x0 PUSH2 0x1D05 DUP5 DUP3 DUP6 ADD PUSH2 0x1C70 JUMP JUMPDEST SWAP2 POP POP SWAP3 SWAP2 POP POP JUMP JUMPDEST PUSH32 0x4E487B7100000000000000000000000000000000000000000000000000000000 PUSH1 0x0 MSTORE PUSH1 0x22 PUSH1 0x4 MSTORE PUSH1 0x24 PUSH1 0x0 REVERT JUMPDEST PUSH1 0x0 PUSH1 0x2 DUP3 DIV SWAP1 POP PUSH1 0x1 DUP3 AND DUP1 PUSH2 0x1D55 JUMPI PUSH1 0x7F DUP3 AND SWAP2 POP JUMPDEST PUSH1 0x20 DUP3 LT DUP2 SUB PUSH2 0x1D68 JUMPI PUSH2 0x1D67 PUSH2 0x1D0E JUMP JUMPDEST JUMPDEST POP SWAP2 SWAP1 POP JUMP JUMPDEST PUSH32 0x616464726573732064656E696564000000000000000000000000000000000000 PUSH1 0x0 DUP3 ADD MSTORE POP JUMP JUMPDEST PUSH1 0x0 PUSH2 0x1DA4 PUSH1 0xE DUP4 PUSH2 0x183C JUMP JUMPDEST SWAP2 POP PUSH2 0x1DAF DUP3 PUSH2 0x1D6E JUMP JUMPDEST PUSH1 0x20 DUP3 ADD SWAP1 POP SWAP2 SWAP1 POP JUMP JUMPDEST PUSH1 0x0 PUSH1 0x20 DUP3 ADD SWAP1 POP DUP2 DUP2 SUB PUSH1 0x0 DUP4 ADD MSTORE PUSH2 0x1DD3 DUP2 PUSH2 0x1D97 JUMP JUMPDEST SWAP1 POP SWAP2 SWAP1 POP JUMP JUMPDEST PUSH1 0x0 DUP2 SWAP1 POP SWAP3 SWAP2 POP POP JUMP JUMPDEST POP JUMP JUMPDEST PUSH1 0x0 PUSH2 0x1DF5 PUSH1 0x0 DUP4 PUSH2 0x1DDA JUMP JUMPDEST SWAP2 POP PUSH2 0x1E00 DUP3 PUSH2 0x1DE5 JUMP JUMPDEST PUSH1 0x0 DUP3 ADD SWAP1 POP SWAP2 SWAP1 POP JUMP JUMPDEST PUSH1 0x0 PUSH2 0x1E16 DUP3 PUSH2 0x1DE8 JUMP JUMPDEST SWAP2 POP DUP2 SWAP1 POP SWAP2 SWAP1 POP JUMP JUMPDEST PUSH32 0x4661696C656420746F2073656E64204574686572000000000000000000000000 PUSH1 0x0 DUP3 ADD MSTORE POP JUMP JUMPDEST PUSH1 0x0 PUSH2 0x1E56 PUSH1 0x14 DUP4 PUSH2 0x183C JUMP JUMPDEST SWAP2 POP PUSH2 0x1E61 DUP3 PUSH2 0x1E20 JUMP JUMPDEST PUSH1 0x20 DUP3 ADD SWAP1 POP SWAP2 SWAP1 POP JUMP JUMPDEST PUSH1 0x0 PUSH1 0x20 DUP3 ADD SWAP1 POP DUP2 DUP2 SUB PUSH1 0x0 DUP4 ADD MSTORE PUSH2 0x1E85 DUP2 PUSH2 0x1E49 JUMP JUMPDEST SWAP1 POP SWAP2 SWAP1 POP JUMP JUMPDEST PUSH32 0x4E487B7100000000000000000000000000000000000000000000000000000000 PUSH1 0x0 MSTORE PUSH1 0x11 PUSH1 0x4 MSTORE PUSH1 0x24 PUSH1 0x0 REVERT JUMPDEST PUSH1 0x0 PUSH2 0x1EC6 DUP3 PUSH2 0x17C7 JUMP JUMPDEST SWAP2 POP PUSH2 0x1ED1 DUP4 PUSH2 0x17C7 JUMP JUMPDEST SWAP3 POP DUP3 DUP3 ADD SWAP1 POP DUP1 DUP3 GT ISZERO PUSH2 0x1EE9 JUMPI PUSH2 0x1EE8 PUSH2 0x1E8C JUMP JUMPDEST JUMPDEST SWAP3 SWAP2 POP POP JUMP JUMPDEST PUSH1 0x0 PUSH2 0x1EFA DUP3 PUSH2 0x190D JUMP JUMPDEST SWAP2 POP PUSH4 0xFFFFFFFF DUP3 SUB PUSH2 0x1F10 JUMPI PUSH2 0x1F0F PUSH2 0x1E8C JUMP JUMPDEST JUMPDEST PUSH1 0x1 DUP3 ADD SWAP1 POP SWAP2 SWAP1 POP JUMP JUMPDEST PUSH2 0x1F24 DUP2 PUSH2 0x17FB JUMP JUMPDEST DUP2 EQ PUSH2 0x1F2F JUMPI PUSH1 0x0 DUP1 REVERT JUMPDEST POP JUMP JUMPDEST PUSH1 0x0 DUP2 MLOAD SWAP1 POP PUSH2 0x1F41 DUP2 PUSH2 0x1F1B JUMP JUMPDEST SWAP3 SWAP2 POP POP JUMP JUMPDEST PUSH1 0x0 PUSH1 0x20 DUP3 DUP5 SUB SLT ISZERO PUSH2 0x1F5D JUMPI PUSH2 0x1F5C PUSH2 0x1732 JUMP JUMPDEST JUMPDEST PUSH1 0x0 PUSH2 0x1F6B DUP5 DUP3 DUP6 ADD PUSH2 0x1F32 JUMP JUMPDEST SWAP2 POP POP SWAP3 SWAP2 POP POP JUMP JUMPDEST PUSH1 0x0 DUP2 SWAP1 POP DUP2 PUSH1 0x0 MSTORE PUSH1 0x20 PUSH1 0x0 KECCAK256 SWAP1 POP SWAP2 SWAP1 POP JUMP JUMPDEST PUSH1 0x0 PUSH1 0x20 PUSH1 0x1F DUP4 ADD DIV SWAP1 POP SWAP2 SWAP1 POP JUMP JUMPDEST PUSH1 0x0 DUP3 DUP3 SHL SWAP1 POP SWAP3 SWAP2 POP POP JUMP JUMPDEST PUSH1 0x0 PUSH1 0x8 DUP4 MUL PUSH2 0x1FD6 PUSH32 0xFFFFFFFFFFFFFFFFFFFFFFFFFFFFFFFFFFFFFFFFFFFFFFFFFFFFFFFFFFFFFFFF DUP3 PUSH2 0x1F99 JUMP JUMPDEST PUSH2 0x1FE0 DUP7 DUP4 PUSH2 0x1F99 JUMP JUMPDEST SWAP6 POP DUP1 NOT DUP5 AND SWAP4 POP DUP1 DUP7 AND DUP5 OR SWAP3 POP POP POP SWAP4 SWAP3 POP POP POP JUMP JUMPDEST PUSH1 0x0 DUP2 SWAP1 POP SWAP2 SWAP1 POP JUMP JUMPDEST PUSH1 0x0 PUSH2 0x201D PUSH2 0x2018 PUSH2 0x2013 DUP5 PUSH2 0x17C7 JUMP JUMPDEST PUSH2 0x1FF8 JUMP JUMPDEST PUSH2 0x17C7 JUMP JUMPDEST SWAP1 POP SWAP2 SWAP1 POP JUMP JUMPDEST PUSH1 0x0 DUP2 SWAP1 POP SWAP2 SWAP1 POP JUMP JUMPDEST PUSH2 0x2037 DUP4 PUSH2 0x2002 JUMP JUMPDEST PUSH2 0x204B PUSH2 0x2043 DUP3 PUSH2 0x2024 JUMP JUMPDEST DUP5 DUP5 SLOAD PUSH2 0x1FA6 JUMP JUMPDEST DUP3 SSTORE POP POP POP POP JUMP JUMPDEST PUSH1 0x0 SWAP1 JUMP JUMPDEST PUSH2 0x2060 PUSH2 0x2053 JUMP JUMPDEST PUSH2 0x206B DUP2 DUP5 DUP5 PUSH2 0x202E JUMP JUMPDEST POP POP POP JUMP JUMPDEST JUMPDEST DUP2 DUP2 LT ISZERO PUSH2 0x208F JUMPI PUSH2 0x2084 PUSH1 0x0 DUP3 PUSH2 0x2058 JUMP JUMPDEST PUSH1 0x1 DUP2 ADD SWAP1 POP PUSH2 0x2071 JUMP JUMPDEST POP POP JUMP JUMPDEST PUSH1 0x1F DUP3 GT ISZERO PUSH2 0x20D4 JUMPI PUSH2 0x20A5 DUP2 PUSH2 0x1F74 JUMP JUMPDEST PUSH2 0x20AE DUP5 PUSH2 0x1F89 JUMP JUMPDEST DUP2 ADD PUSH1 0x20 DUP6 LT ISZERO PUSH2 0x20BD JUMPI DUP2 SWAP1 POP JUMPDEST PUSH2 0x20D1 PUSH2 0x20C9 DUP6 PUSH2 0x1F89 JUMP JUMPDEST DUP4 ADD DUP3 PUSH2 0x2070 JUMP JUMPDEST POP POP JUMPDEST POP POP POP JUMP JUMPDEST PUSH1 0x0 DUP3 DUP3 SHR SWAP1 POP SWAP3 SWAP2 POP POP JUMP JUMPDEST PUSH1 0x0 PUSH2 0x20F7 PUSH1 0x0 NOT DUP5 PUSH1 0x8 MUL PUSH2 0x20D9 JUMP JUMPDEST NOT DUP1 DUP4 AND SWAP2 POP POP SWAP3 SWAP2 POP POP JUMP JUMPDEST PUSH1 0x0 PUSH2 0x2110 DUP4 DUP4 PUSH2 0x20E6 JUMP JUMPDEST SWAP2 POP DUP3 PUSH1 0x2 MUL DUP3 OR SWAP1 POP SWAP3 SWAP2 POP POP JUMP JUMPDEST PUSH2 0x2129 DUP3 PUSH2 0x1831 JUMP JUMPDEST PUSH8 0xFFFFFFFFFFFFFFFF DUP2 GT ISZERO PUSH2 0x2142 JUMPI PUSH2 0x2141 PUSH2 0x1B2E JUMP JUMPDEST JUMPDEST PUSH2 0x214C DUP3 SLOAD PUSH2 0x1D3D JUMP JUMPDEST PUSH2 0x2157 DUP3 DUP3 DUP6 PUSH2 0x2093 JUMP JUMPDEST PUSH1 0x0 PUSH1 0x20 SWAP1 POP PUSH1 0x1F DUP4 GT PUSH1 0x1 DUP2 EQ PUSH2 0x218A JUMPI PUSH1 0x0 DUP5 ISZERO PUSH2 0x2178 JUMPI DUP3 DUP8 ADD MLOAD SWAP1 POP JUMPDEST PUSH2 0x2182 DUP6 DUP3 PUSH2 0x2104 JUMP JUMPDEST DUP7 SSTORE POP PUSH2 0x21EA JUMP JUMPDEST PUSH1 0x1F NOT DUP5 AND PUSH2 0x2198 DUP7 PUSH2 0x1F74 JUMP JUMPDEST PUSH1 0x0 JUMPDEST DUP3 DUP2 LT ISZERO PUSH2 0x21C0 JUMPI DUP5 DUP10 ADD MLOAD DUP3 SSTORE PUSH1 0x1 DUP3 ADD SWAP2 POP PUSH1 0x20 DUP6 ADD SWAP5 POP PUSH1 0x20 DUP2 ADD SWAP1 POP PUSH2 0x219B JUMP JUMPDEST DUP7 DUP4 LT ISZERO PUSH2 0x21DD JUMPI DUP5 DUP10 ADD MLOAD PUSH2 0x21D9 PUSH1 0x1F DUP10 AND DUP3 PUSH2 0x20E6 JUMP JUMPDEST DUP4 SSTORE POP JUMPDEST PUSH1 0x1 PUSH1 0x2 DUP9 MUL ADD DUP9 SSTORE POP POP POP JUMPDEST POP POP POP POP POP POP JUMP JUMPDEST PUSH1 0x0 PUSH8 0xFFFFFFFFFFFFFFFF DUP3 GT ISZERO PUSH2 0x220D JUMPI PUSH2 0x220C PUSH2 0x1B2E JUMP JUMPDEST JUMPDEST PUSH1 0x20 DUP3 MUL SWAP1 POP PUSH1 0x20 DUP2 ADD SWAP1 POP SWAP2 SWAP1 POP JUMP JUMPDEST PUSH1 0x0 DUP1 REVERT JUMPDEST PUSH1 0x0 DUP2 MLOAD SWAP1 POP PUSH2 0x2232 DUP2 PUSH2 0x176E JUMP JUMPDEST SWAP3 SWAP2 POP POP JUMP JUMPDEST PUSH1 0x0 PUSH2 0x224B PUSH2 0x2246 DUP5 PUSH2 0x21F2 JUMP JUMPDEST PUSH2 0x1B8E JUMP JUMPDEST SWAP1 POP DUP1 DUP4 DUP3 MSTORE PUSH1 0x20 DUP3 ADD SWAP1 POP PUSH1 0x20 DUP5 MUL DUP4 ADD DUP6 DUP2 GT ISZERO PUSH2 0x226E JUMPI PUSH2 0x226D PUSH2 0x221E JUMP JUMPDEST JUMPDEST DUP4 JUMPDEST DUP2 DUP2 LT ISZERO PUSH2 0x2297 JUMPI DUP1 PUSH2 0x2283 DUP9 DUP3 PUSH2 0x2223 JUMP JUMPDEST DUP5 MSTORE PUSH1 0x20 DUP5 ADD SWAP4 POP POP PUSH1 0x20 DUP2 ADD SWAP1 POP PUSH2 0x2270 JUMP JUMPDEST POP POP POP SWAP4 SWAP3 POP POP POP JUMP JUMPDEST PUSH1 0x0 DUP3 PUSH1 0x1F DUP4 ADD SLT PUSH2 0x22B6 JUMPI PUSH2 0x22B5 PUSH2 0x1B24 JUMP JUMPDEST JUMPDEST DUP2 MLOAD PUSH2 0x22C6 DUP5 DUP3 PUSH1 0x20 DUP7 ADD PUSH2 0x2238 JUMP JUMPDEST SWAP2 POP POP SWAP3 SWAP2 POP POP JUMP JUMPDEST PUSH1 0x0 PUSH1 0x20 DUP3 DUP5 SUB SLT ISZERO PUSH2 0x22E5 JUMPI PUSH2 0x22E4 PUSH2 0x1732 JUMP JUMPDEST JUMPDEST PUSH1 0x0 DUP3 ADD MLOAD PUSH8 0xFFFFFFFFFFFFFFFF DUP2 GT ISZERO PUSH2 0x2303 JUMPI PUSH2 0x2302 PUSH2 0x1737 JUMP JUMPDEST JUMPDEST PUSH2 0x230F DUP5 DUP3 DUP6 ADD PUSH2 0x22A1 JUMP JUMPDEST SWAP2 POP POP SWAP3 SWAP2 POP POP JUMP JUMPDEST PUSH32 0x4E487B7100000000000000000000000000000000000000000000000000000000 PUSH1 0x0 MSTORE PUSH1 0x32 PUSH1 0x4 MSTORE PUSH1 0x24 PUSH1 0x0 REVERT JUMPDEST PUSH1 0x2 DUP2 LT PUSH2 0x2358 JUMPI PUSH2 0x2357 PUSH2 0x19B2 JUMP JUMPDEST JUMPDEST POP JUMP JUMPDEST PUSH1 0x0 DUP2 SWAP1 POP PUSH2 0x2369 DUP3 PUSH2 0x2347 JUMP JUMPDEST SWAP2 SWAP1 POP JUMP JUMPDEST PUSH1 0x0 PUSH2 0x2379 DUP3 PUSH2 0x235B JUMP JUMPDEST SWAP1 POP SWAP2 SWAP1 POP JUMP JUMPDEST PUSH2 0x2389 DUP2 PUSH2 0x236E JUMP JUMPDEST DUP3 MSTORE POP POP JUMP JUMPDEST PUSH1 0x0 PUSH1 0xA0 DUP3 ADD SWAP1 POP PUSH2 0x23A4 PUSH1 0x0 DUP4 ADD DUP9 PUSH2 0x18E3 JUMP JUMPDEST PUSH2 0x23B1 PUSH1 0x20 DUP4 ADD DUP8 PUSH2 0x18E3 JUMP JUMPDEST PUSH2 0x23BE PUSH1 0x40 DUP4 ADD DUP7 PUSH2 0x18E3 JUMP JUMPDEST PUSH2 0x23CB PUSH1 0x60 DUP4 ADD DUP6 PUSH2 0x2380 JUMP JUMPDEST PUSH2 0x23D8 PUSH1 0x80 DUP4 ADD DUP5 PUSH2 0x18E3 JUMP JUMPDEST SWAP7 SWAP6 POP POP POP POP POP POP JUMP INVALID LOG2 PUSH5 0x6970667358 0x22 SLT KECCAK256 0xDB SWAP1 PUSH5 0x493748B04B DUP10 SWAP11 0xE9 PUSH5 0x7D7F44CA6B 0xE 0xBA 0x27 PUSH4 0xAC679DA 0xC6 0xEB 0xF7 CALLER DIV SWAP9 0x25 PUSH5 0x736F6C6343 STOP ADDMOD GT STOP CALLER LOG2 PUSH5 0x6970667358 0x22 SLT KECCAK256 PUSH17 0x70B16987F1F85D3F7797A023A93DB9F2A8 JUMPDEST 0xC2 SWAP15 RETURNDATASIZE 0xE7 0xEA 0x4C RETURNDATASIZE PUSH5 0xF4C36286B8 PUSH5 0x736F6C6343 STOP ADDMOD GT STOP CALLER "},"gasEstimates":{"creation":{"codeDepositCost":"2650000","executionCost":"infinite","totalCost":"infinite"},"external":{"createProposal(string)":"infinite","getProposals()":"infinite","owner()":"2555","proposals(uint256)":"4934"}},"methodIdentifiers":{"createProposal(string)":"49c2a1a6","getProposals()":"62564c48","owner()":"8da5cb5b","proposals(uint256)":"013cf08b"}},"storageLayout":{"storage":[{"astId":1918,"contract":"ProposalFactory.sol:ProposalFactory","label":"owner","offset":0,"slot":"0","type":"t_address"},{"astId":1921,"contract":"ProposalFactory.sol:ProposalFactory","label":"proposals","offset":0,"slot":"1","type":"t_array(t_address)dyn_storage"}],"types":{"t_address":{"encoding":"inplace","label":"address","numberOfBytes":"20"},"t_array(t_address)dyn_storage":{"base":"t_address","encoding":"dynamic_array","label":"address[]","numberOfBytes":"32"}}},"userdoc":{"kind":"user","methods":{},"version":1}}