{"abi":[{"inputs":[],"stateMutability":"nonpayable","type":"constructor"},{"inputs":[{"internalType":"address","name":"account","type":"address"},{"internalType":"uint256","name":"amount","type":"uint256"}],"name":"allocateFunds","outputs":[],"stateMutability":"payable","type":"function"},{"inputs":[],"name":"balance","outputs":[{"internalType":"uint256","name":"","type":"uint256"}],"stateMutability":"view","type":"function"},{"inputs":[{"internalType":"address","name":"user","type":"address"}],"name":"canCreatePool","outputs":[{"internalType":"bool","name":"","type":"bool"}],"stateMutability":"view","type":"function"},{"inputs":[{"internalType":"address","name":"person","type":"address"},{"internalType":"address","name":"pool","type":"address"}],"name":"didPayApplicantFee","outputs":[{"internalType":"bool","name":"","type":"bool"}],"stateMutability":"view","type":"function"},{"inputs":[{"internalType":"address","name":"member","type":"address"}],"name":"getMemberAllocation","outputs":[{"internalType":"uint256","name":"","type":"uint256"}],"stateMutability":"view","type":"function"},{"inputs":[],"name":"hasAllocation","outputs":[{"internalType":"bool","name":"","type":"bool"}],"stateMutability":"view","type":"function"},{"inputs":[],"name":"newApplicantFee","outputs":[{"internalType":"uint256","name":"","type":"uint256"}],"stateMutability":"view","type":"function"},{"inputs":[],"name":"newPoolFee","outputs":[{"internalType":"uint256","name":"","type":"uint256"}],"stateMutability":"view","type":"function"},{"inputs":[],"name":"newProposalFee","outputs":[{"internalType":"uint256","name":"","type":"uint256"}],"stateMutability":"view","type":"function"},{"inputs":[],"name":"payCreatorFee","outputs":[],"stateMutability":"payable","type":"function"},{"inputs":[{"internalType":"address","name":"pool","type":"address"}],"name":"payNewApplicantFee","outputs":[],"stateMutability":"payable","type":"function"},{"inputs":[],"name":"payNewProposalFee","outputs":[],"stateMutability":"payable","type":"function"},{"inputs":[{"internalType":"address","name":"newGovernance","type":"address"}],"name":"setGovernance","outputs":[],"stateMutability":"nonpayable","type":"function"},{"inputs":[{"internalType":"uint256","name":"amount","type":"uint256"}],"name":"setNewApplicantFee","outputs":[],"stateMutability":"nonpayable","type":"function"},{"inputs":[{"internalType":"uint256","name":"amount","type":"uint256"}],"name":"setNewPoolFee","outputs":[],"stateMutability":"nonpayable","type":"function"},{"inputs":[{"internalType":"uint256","name":"amount","type":"uint256"}],"name":"setNewProposalFee","outputs":[],"stateMutability":"nonpayable","type":"function"},{"inputs":[{"internalType":"address","name":"user","type":"address"}],"name":"spendOneCreateToken","outputs":[],"stateMutability":"nonpayable","type":"function"},{"inputs":[],"name":"withdraw","outputs":[],"stateMutability":"payable","type":"function"}],"devdoc":{"kind":"dev","methods":{},"version":1},"evm":{"assembly":"    /* \"Treasury.sol\":66:3184  contract Treasury {... */\n  mstore(0x40, 0x80)\n    /* \"Treasury.sol\":155:171  1000000000000000 */\n  0x038d7ea4c68000\n    /* \"Treasury.sol\":122:171  uint256 public newApplicantFee = 1000000000000000 */\n  0x01\n  sstore\n    /* \"Treasury.sol\":206:222  1000000000000000 */\n  0x038d7ea4c68000\n    /* \"Treasury.sol\":178:222  uint256 public newPoolFee = 1000000000000000 */\n  0x02\n  sstore\n    /* \"Treasury.sol\":261:277  1000000000000000 */\n  0x038d7ea4c68000\n    /* \"Treasury.sol\":229:277  uint256 public newProposalFee = 1000000000000000 */\n  0x03\n  sstore\n    /* \"Treasury.sol\":549:610  constructor() {... */\n  callvalue\n  dup1\n  iszero\n  tag_1\n  jumpi\n  0x00\n  dup1\n  revert\ntag_1:\n  pop\n    /* \"Treasury.sol\":66:3184  contract Treasury {... */\n  dataSize(sub_0)\n  dup1\n  dataOffset(sub_0)\n  0x00\n  codecopy\n  0x00\n  return\nstop\n\nsub_0: assembly {\n        /* \"Treasury.sol\":66:3184  contract Treasury {... */\n      mstore(0x40, 0x80)\n      jumpi(tag_1, lt(calldatasize, 0x04))\n      shr(0xe0, calldataload(0x00))\n      dup1\n      0x7646a004\n      gt\n      tag_20\n      jumpi\n      dup1\n      0x9d7e7d38\n      gt\n      tag_21\n      jumpi\n      dup1\n      0x9d7e7d38\n      eq\n      tag_15\n      jumpi\n      dup1\n      0xab033ea9\n      eq\n      tag_16\n      jumpi\n      dup1\n      0xb69ef8a8\n      eq\n      tag_17\n      jumpi\n      dup1\n      0xbc19a00c\n      eq\n      tag_18\n      jumpi\n      dup1\n      0xc69c302a\n      eq\n      tag_19\n      jumpi\n      jump(tag_1)\n    tag_21:\n      dup1\n      0x7646a004\n      eq\n      tag_11\n      jumpi\n      dup1\n      0x77956347\n      eq\n      tag_12\n      jumpi\n      dup1\n      0x7c8629e0\n      eq\n      tag_13\n      jumpi\n      dup1\n      0x8387271c\n      eq\n      tag_14\n      jumpi\n      jump(tag_1)\n    tag_20:\n      dup1\n      0x4b8be7ab\n      gt\n      tag_22\n      jumpi\n      dup1\n      0x4b8be7ab\n      eq\n      tag_6\n      jumpi\n      dup1\n      0x4d10dcbb\n      eq\n      tag_7\n      jumpi\n      dup1\n      0x53822071\n      eq\n      tag_8\n      jumpi\n      dup1\n      0x55dfd10c\n      eq\n      tag_9\n      jumpi\n      dup1\n      0x5bce5441\n      eq\n      tag_10\n      jumpi\n      jump(tag_1)\n    tag_22:\n      dup1\n      0x06a5d642\n      eq\n      tag_2\n      jumpi\n      dup1\n      0x189ed356\n      eq\n      tag_3\n      jumpi\n      dup1\n      0x3ccfd60b\n      eq\n      tag_4\n      jumpi\n      dup1\n      0x40c89d16\n      eq\n      tag_5\n      jumpi\n    tag_1:\n      0x00\n      dup1\n      revert\n        /* \"Treasury.sol\":2591:2700  function hasAllocation() public view returns (bool) {... */\n    tag_2:\n      callvalue\n      dup1\n      iszero\n      tag_23\n      jumpi\n      0x00\n      dup1\n      revert\n    tag_23:\n      pop\n      tag_24\n      tag_25\n      jump\t// in\n    tag_24:\n      mload(0x40)\n      tag_26\n      swap2\n      swap1\n      tag_27\n      jump\t// in\n    tag_26:\n      mload(0x40)\n      dup1\n      swap2\n      sub\n      swap1\n      return\n        /* \"Treasury.sol\":2082:2399  function allocateFunds(address account, uint256 amount) public payable {... */\n    tag_3:\n      tag_28\n      0x04\n      dup1\n      calldatasize\n      sub\n      dup2\n      add\n      swap1\n      tag_29\n      swap2\n      swap1\n      tag_30\n      jump\t// in\n    tag_29:\n      tag_31\n      jump\t// in\n    tag_28:\n      stop\n        /* \"Treasury.sol\":2841:3181  function withdraw() public payable {... */\n    tag_4:\n      tag_32\n      tag_33\n      jump\t// in\n    tag_32:\n      stop\n        /* \"Treasury.sol\":1229:1345  function payNewProposalFee() public payable {... */\n    tag_5:\n      tag_34\n      tag_35\n      jump\t// in\n    tag_34:\n      stop\n        /* \"Treasury.sol\":1353:1537  function payNewApplicantFee(address pool) public payable {... */\n    tag_6:\n      tag_36\n      0x04\n      dup1\n      calldatasize\n      sub\n      dup2\n      add\n      swap1\n      tag_37\n      swap2\n      swap1\n      tag_38\n      jump\t// in\n    tag_37:\n      tag_39\n      jump\t// in\n    tag_36:\n      stop\n        /* \"Treasury.sol\":122:171  uint256 public newApplicantFee = 1000000000000000 */\n    tag_7:\n      callvalue\n      dup1\n      iszero\n      tag_40\n      jumpi\n      0x00\n      dup1\n      revert\n    tag_40:\n      pop\n      tag_41\n      tag_42\n      jump\t// in\n    tag_41:\n      mload(0x40)\n      tag_43\n      swap2\n      swap1\n      tag_44\n      jump\t// in\n    tag_43:\n      mload(0x40)\n      dup1\n      swap2\n      sub\n      swap1\n      return\n        /* \"Treasury.sol\":935:1070  function setNewPoolFee(uint256 amount) public {... */\n    tag_8:\n      callvalue\n      dup1\n      iszero\n      tag_45\n      jumpi\n      0x00\n      dup1\n      revert\n    tag_45:\n      pop\n      tag_46\n      0x04\n      dup1\n      calldatasize\n      sub\n      dup2\n      add\n      swap1\n      tag_47\n      swap2\n      swap1\n      tag_48\n      jump\t// in\n    tag_47:\n      tag_49\n      jump\t// in\n    tag_46:\n      stop\n        /* \"Treasury.sol\":782:927  function setNewApplicantFee(uint256 amount) public {... */\n    tag_9:\n      callvalue\n      dup1\n      iszero\n      tag_50\n      jumpi\n      0x00\n      dup1\n      revert\n    tag_50:\n      pop\n      tag_51\n      0x04\n      dup1\n      calldatasize\n      sub\n      dup2\n      add\n      swap1\n      tag_52\n      swap2\n      swap1\n      tag_48\n      jump\t// in\n    tag_52:\n      tag_53\n      jump\t// in\n    tag_51:\n      stop\n        /* \"Treasury.sol\":1078:1221  function setNewProposalFee(uint256 amount) public {... */\n    tag_10:\n      callvalue\n      dup1\n      iszero\n      tag_54\n      jumpi\n      0x00\n      dup1\n      revert\n    tag_54:\n      pop\n      tag_55\n      0x04\n      dup1\n      calldatasize\n      sub\n      dup2\n      add\n      swap1\n      tag_56\n      swap2\n      swap1\n      tag_48\n      jump\t// in\n    tag_56:\n      tag_57\n      jump\t// in\n    tag_55:\n      stop\n        /* \"Treasury.sol\":178:222  uint256 public newPoolFee = 1000000000000000 */\n    tag_11:\n      callvalue\n      dup1\n      iszero\n      tag_58\n      jumpi\n      0x00\n      dup1\n      revert\n    tag_58:\n      pop\n      tag_59\n      tag_60\n      jump\t// in\n    tag_59:\n      mload(0x40)\n      tag_61\n      swap2\n      swap1\n      tag_44\n      jump\t// in\n    tag_61:\n      mload(0x40)\n      dup1\n      swap2\n      sub\n      swap1\n      return\n        /* \"Treasury.sol\":229:277  uint256 public newProposalFee = 1000000000000000 */\n    tag_12:\n      callvalue\n      dup1\n      iszero\n      tag_62\n      jumpi\n      0x00\n      dup1\n      revert\n    tag_62:\n      pop\n      tag_63\n      tag_64\n      jump\t// in\n    tag_63:\n      mload(0x40)\n      tag_65\n      swap2\n      swap1\n      tag_44\n      jump\t// in\n    tag_65:\n      mload(0x40)\n      dup1\n      swap2\n      sub\n      swap1\n      return\n        /* \"Treasury.sol\":1930:2074  function spendOneCreateToken(address user) public {... */\n    tag_13:\n      callvalue\n      dup1\n      iszero\n      tag_66\n      jumpi\n      0x00\n      dup1\n      revert\n    tag_66:\n      pop\n      tag_67\n      0x04\n      dup1\n      calldatasize\n      sub\n      dup2\n      add\n      swap1\n      tag_68\n      swap2\n      swap1\n      tag_38\n      jump\t// in\n    tag_68:\n      tag_69\n      jump\t// in\n    tag_67:\n      stop\n        /* \"Treasury.sol\":2407:2583  function didPayApplicantFee(address person, address pool)... */\n    tag_14:\n      callvalue\n      dup1\n      iszero\n      tag_70\n      jumpi\n      0x00\n      dup1\n      revert\n    tag_70:\n      pop\n      tag_71\n      0x04\n      dup1\n      calldatasize\n      sub\n      dup2\n      add\n      swap1\n      tag_72\n      swap2\n      swap1\n      tag_73\n      jump\t// in\n    tag_72:\n      tag_74\n      jump\t// in\n    tag_71:\n      mload(0x40)\n      tag_75\n      swap2\n      swap1\n      tag_27\n      jump\t// in\n    tag_75:\n      mload(0x40)\n      dup1\n      swap2\n      sub\n      swap1\n      return\n        /* \"Treasury.sol\":2708:2833  function getMemberAllocation(address member) public view returns (uint256) {... */\n    tag_15:\n      callvalue\n      dup1\n      iszero\n      tag_76\n      jumpi\n      0x00\n      dup1\n      revert\n    tag_76:\n      pop\n      tag_77\n      0x04\n      dup1\n      calldatasize\n      sub\n      dup2\n      add\n      swap1\n      tag_78\n      swap2\n      swap1\n      tag_38\n      jump\t// in\n    tag_78:\n      tag_79\n      jump\t// in\n    tag_77:\n      mload(0x40)\n      tag_80\n      swap2\n      swap1\n      tag_44\n      jump\t// in\n    tag_80:\n      mload(0x40)\n      dup1\n      swap2\n      sub\n      swap1\n      return\n        /* \"Treasury.sol\":618:774  function setGovernance(address newGovernance) public {... */\n    tag_16:\n      callvalue\n      dup1\n      iszero\n      tag_81\n      jumpi\n      0x00\n      dup1\n      revert\n    tag_81:\n      pop\n      tag_82\n      0x04\n      dup1\n      calldatasize\n      sub\n      dup2\n      add\n      swap1\n      tag_83\n      swap2\n      swap1\n      tag_38\n      jump\t// in\n    tag_83:\n      tag_84\n      jump\t// in\n    tag_82:\n      stop\n        /* \"Treasury.sol\":91:113  uint256 public balance */\n    tag_17:\n      callvalue\n      dup1\n      iszero\n      tag_85\n      jumpi\n      0x00\n      dup1\n      revert\n    tag_85:\n      pop\n      tag_86\n      tag_87\n      jump\t// in\n    tag_86:\n      mload(0x40)\n      tag_88\n      swap2\n      swap1\n      tag_44\n      jump\t// in\n    tag_88:\n      mload(0x40)\n      dup1\n      swap2\n      sub\n      swap1\n      return\n        /* \"Treasury.sol\":1545:1848  function payCreatorFee() public payable {... */\n    tag_18:\n      tag_89\n      tag_90\n      jump\t// in\n    tag_89:\n      stop\n        /* \"Treasury.sol\":1856:1922  function canCreatePool(address user) public view returns (bool) {} */\n    tag_19:\n      callvalue\n      dup1\n      iszero\n      tag_91\n      jumpi\n      0x00\n      dup1\n      revert\n    tag_91:\n      pop\n      tag_92\n      0x04\n      dup1\n      calldatasize\n      sub\n      dup2\n      add\n      swap1\n      tag_93\n      swap2\n      swap1\n      tag_38\n      jump\t// in\n    tag_93:\n      tag_94\n      jump\t// in\n    tag_92:\n      mload(0x40)\n      tag_95\n      swap2\n      swap1\n      tag_27\n      jump\t// in\n    tag_95:\n      mload(0x40)\n      dup1\n      swap2\n      sub\n      swap1\n      return\n        /* \"Treasury.sol\":2591:2700  function hasAllocation() public view returns (bool) {... */\n    tag_25:\n        /* \"Treasury.sol\":2637:2641  bool */\n      0x00\n        /* \"Treasury.sol\":2661:2680  memberHasAllocation */\n      0x05\n        /* \"Treasury.sol\":2661:2692  memberHasAllocation[msg.sender] */\n      0x00\n        /* \"Treasury.sol\":2681:2691  msg.sender */\n      caller\n        /* \"Treasury.sol\":2661:2692  memberHasAllocation[msg.sender] */\n      0xffffffffffffffffffffffffffffffffffffffff\n      and\n      0xffffffffffffffffffffffffffffffffffffffff\n      and\n      dup2\n      mstore\n      0x20\n      add\n      swap1\n      dup2\n      mstore\n      0x20\n      add\n      0x00\n      keccak256\n      0x00\n      swap1\n      sload\n      swap1\n      0x0100\n      exp\n      swap1\n      div\n      0xff\n      and\n        /* \"Treasury.sol\":2654:2692  return memberHasAllocation[msg.sender] */\n      swap1\n      pop\n        /* \"Treasury.sol\":2591:2700  function hasAllocation() public view returns (bool) {... */\n      swap1\n      jump\t// out\n        /* \"Treasury.sol\":2082:2399  function allocateFunds(address account, uint256 amount) public payable {... */\n    tag_31:\n        /* \"Treasury.sol\":2186:2203  governanceAddress */\n      0x08\n      0x00\n      swap1\n      sload\n      swap1\n      0x0100\n      exp\n      swap1\n      div\n      0xffffffffffffffffffffffffffffffffffffffff\n      and\n        /* \"Treasury.sol\":2172:2203  msg.sender == governanceAddress */\n      0xffffffffffffffffffffffffffffffffffffffff\n      and\n        /* \"Treasury.sol\":2172:2182  msg.sender */\n      caller\n        /* \"Treasury.sol\":2172:2203  msg.sender == governanceAddress */\n      0xffffffffffffffffffffffffffffffffffffffff\n      and\n      eq\n        /* \"Treasury.sol\":2164:2204  require(msg.sender == governanceAddress) */\n      tag_98\n      jumpi\n      0x00\n      dup1\n      revert\n    tag_98:\n        /* \"Treasury.sol\":2234:2240  amount */\n      dup1\n        /* \"Treasury.sol\":2223:2230  balance */\n      sload(0x00)\n        /* \"Treasury.sol\":2223:2240  balance >= amount */\n      lt\n      iszero\n        /* \"Treasury.sol\":2215:2241  require(balance >= amount) */\n      tag_99\n      jumpi\n      0x00\n      dup1\n      revert\n    tag_99:\n        /* \"Treasury.sol\":2269:2270  0 */\n      0x00\n        /* \"Treasury.sol\":2260:2266  amount */\n      dup2\n        /* \"Treasury.sol\":2260:2270  amount > 0 */\n      gt\n        /* \"Treasury.sol\":2252:2271  require(amount > 0) */\n      tag_100\n      jumpi\n      0x00\n      dup1\n      revert\n    tag_100:\n        /* \"Treasury.sol\":2311:2317  amount */\n      dup1\n        /* \"Treasury.sol\":2282:2298  memberAllocation */\n      0x04\n        /* \"Treasury.sol\":2282:2307  memberAllocation[account] */\n      0x00\n        /* \"Treasury.sol\":2299:2306  account */\n      dup5\n        /* \"Treasury.sol\":2282:2307  memberAllocation[account] */\n      0xffffffffffffffffffffffffffffffffffffffff\n      and\n      0xffffffffffffffffffffffffffffffffffffffff\n      and\n      dup2\n      mstore\n      0x20\n      add\n      swap1\n      dup2\n      mstore\n      0x20\n      add\n      0x00\n      keccak256\n      0x00\n        /* \"Treasury.sol\":2282:2317  memberAllocation[account] += amount */\n      dup3\n      dup3\n      sload\n      tag_101\n      swap2\n      swap1\n      tag_102\n      jump\t// in\n    tag_101:\n      swap3\n      pop\n      pop\n      dup2\n      swap1\n      sstore\n      pop\n        /* \"Treasury.sol\":2339:2345  amount */\n      dup1\n        /* \"Treasury.sol\":2328:2335  balance */\n      0x00\n      dup1\n        /* \"Treasury.sol\":2328:2345  balance -= amount */\n      dup3\n      dup3\n      sload\n      tag_103\n      swap2\n      swap1\n      tag_104\n      jump\t// in\n    tag_103:\n      swap3\n      pop\n      pop\n      dup2\n      swap1\n      sstore\n      pop\n        /* \"Treasury.sol\":2387:2391  true */\n      0x01\n        /* \"Treasury.sol\":2356:2375  memberHasAllocation */\n      0x05\n        /* \"Treasury.sol\":2356:2384  memberHasAllocation[account] */\n      0x00\n        /* \"Treasury.sol\":2376:2383  account */\n      dup5\n        /* \"Treasury.sol\":2356:2384  memberHasAllocation[account] */\n      0xffffffffffffffffffffffffffffffffffffffff\n      and\n      0xffffffffffffffffffffffffffffffffffffffff\n      and\n      dup2\n      mstore\n      0x20\n      add\n      swap1\n      dup2\n      mstore\n      0x20\n      add\n      0x00\n      keccak256\n      0x00\n        /* \"Treasury.sol\":2356:2391  memberHasAllocation[account] = true */\n      0x0100\n      exp\n      dup2\n      sload\n      dup2\n      0xff\n      mul\n      not\n      and\n      swap1\n      dup4\n      iszero\n      iszero\n      mul\n      or\n      swap1\n      sstore\n      pop\n        /* \"Treasury.sol\":2082:2399  function allocateFunds(address account, uint256 amount) public payable {... */\n      pop\n      pop\n      jump\t// out\n        /* \"Treasury.sol\":2841:3181  function withdraw() public payable {... */\n    tag_33:\n        /* \"Treasury.sol\":2895:2914  memberHasAllocation */\n      0x05\n        /* \"Treasury.sol\":2895:2926  memberHasAllocation[msg.sender] */\n      0x00\n        /* \"Treasury.sol\":2915:2925  msg.sender */\n      caller\n        /* \"Treasury.sol\":2895:2926  memberHasAllocation[msg.sender] */\n      0xffffffffffffffffffffffffffffffffffffffff\n      and\n      0xffffffffffffffffffffffffffffffffffffffff\n      and\n      dup2\n      mstore\n      0x20\n      add\n      swap1\n      dup2\n      mstore\n      0x20\n      add\n      0x00\n      keccak256\n      0x00\n      swap1\n      sload\n      swap1\n      0x0100\n      exp\n      swap1\n      div\n      0xff\n      and\n        /* \"Treasury.sol\":2887:2927  require(memberHasAllocation[msg.sender]) */\n      tag_106\n      jumpi\n      0x00\n      dup1\n      revert\n    tag_106:\n        /* \"Treasury.sol\":2939:2948  bool sent */\n      0x00\n        /* \"Treasury.sol\":2954:2964  msg.sender */\n      caller\n        /* \"Treasury.sol\":2954:2969  msg.sender.call */\n      0xffffffffffffffffffffffffffffffffffffffff\n      and\n        /* \"Treasury.sol\":2977:2993  memberAllocation */\n      0x04\n        /* \"Treasury.sol\":2977:3005  memberAllocation[msg.sender] */\n      0x00\n        /* \"Treasury.sol\":2994:3004  msg.sender */\n      caller\n        /* \"Treasury.sol\":2977:3005  memberAllocation[msg.sender] */\n      0xffffffffffffffffffffffffffffffffffffffff\n      and\n      0xffffffffffffffffffffffffffffffffffffffff\n      and\n      dup2\n      mstore\n      0x20\n      add\n      swap1\n      dup2\n      mstore\n      0x20\n      add\n      0x00\n      keccak256\n      sload\n        /* \"Treasury.sol\":2954:3034  msg.sender.call{value: memberAllocation[msg.sender]}(... */\n      mload(0x40)\n      tag_107\n      swap1\n      tag_108\n      jump\t// in\n    tag_107:\n      0x00\n      mload(0x40)\n      dup1\n      dup4\n      sub\n      dup2\n      dup6\n      dup8\n      gas\n      call\n      swap3\n      pop\n      pop\n      pop\n      returndatasize\n      dup1\n      0x00\n      dup2\n      eq\n      tag_111\n      jumpi\n      mload(0x40)\n      swap2\n      pop\n      and(add(returndatasize, 0x3f), not(0x1f))\n      dup3\n      add\n      0x40\n      mstore\n      returndatasize\n      dup3\n      mstore\n      returndatasize\n      0x00\n      0x20\n      dup5\n      add\n      returndatacopy\n      jump(tag_110)\n    tag_111:\n      0x60\n      swap2\n      pop\n    tag_110:\n      pop\n        /* \"Treasury.sol\":2938:3034  (bool sent, ) = msg.sender.call{value: memberAllocation[msg.sender]}(... */\n      pop\n      swap1\n      pop\n        /* \"Treasury.sol\":3053:3057  sent */\n      dup1\n        /* \"Treasury.sol\":3045:3080  require(sent, \"Transaction Failed\") */\n      tag_112\n      jumpi\n      mload(0x40)\n      0x08c379a000000000000000000000000000000000000000000000000000000000\n      dup2\n      mstore\n      0x04\n      add\n      tag_113\n      swap1\n      tag_114\n      jump\t// in\n    tag_113:\n      mload(0x40)\n      dup1\n      swap2\n      sub\n      swap1\n      revert\n    tag_112:\n        /* \"Treasury.sol\":3122:3123  0 */\n      0x00\n        /* \"Treasury.sol\":3091:3107  memberAllocation */\n      0x04\n        /* \"Treasury.sol\":3091:3119  memberAllocation[msg.sender] */\n      0x00\n        /* \"Treasury.sol\":3108:3118  msg.sender */\n      caller\n        /* \"Treasury.sol\":3091:3119  memberAllocation[msg.sender] */\n      0xffffffffffffffffffffffffffffffffffffffff\n      and\n      0xffffffffffffffffffffffffffffffffffffffff\n      and\n      dup2\n      mstore\n      0x20\n      add\n      swap1\n      dup2\n      mstore\n      0x20\n      add\n      0x00\n      keccak256\n        /* \"Treasury.sol\":3091:3123  memberAllocation[msg.sender] = 0 */\n      dup2\n      swap1\n      sstore\n      pop\n        /* \"Treasury.sol\":3168:3173  false */\n      0x00\n        /* \"Treasury.sol\":3134:3153  memberHasAllocation */\n      0x05\n        /* \"Treasury.sol\":3134:3165  memberHasAllocation[msg.sender] */\n      0x00\n        /* \"Treasury.sol\":3154:3164  msg.sender */\n      caller\n        /* \"Treasury.sol\":3134:3165  memberHasAllocation[msg.sender] */\n      0xffffffffffffffffffffffffffffffffffffffff\n      and\n      0xffffffffffffffffffffffffffffffffffffffff\n      and\n      dup2\n      mstore\n      0x20\n      add\n      swap1\n      dup2\n      mstore\n      0x20\n      add\n      0x00\n      keccak256\n      0x00\n        /* \"Treasury.sol\":3134:3173  memberHasAllocation[msg.sender] = false */\n      0x0100\n      exp\n      dup2\n      sload\n      dup2\n      0xff\n      mul\n      not\n      and\n      swap1\n      dup4\n      iszero\n      iszero\n      mul\n      or\n      swap1\n      sstore\n      pop\n        /* \"Treasury.sol\":2876:3181  {... */\n      pop\n        /* \"Treasury.sol\":2841:3181  function withdraw() public payable {... */\n      jump\t// out\n        /* \"Treasury.sol\":1229:1345  function payNewProposalFee() public payable {... */\n    tag_35:\n        /* \"Treasury.sol\":1304:1305  0 */\n      0x00\n        /* \"Treasury.sol\":1292:1301  msg.value */\n      callvalue\n        /* \"Treasury.sol\":1292:1305  msg.value > 0 */\n      gt\n        /* \"Treasury.sol\":1284:1306  require(msg.value > 0) */\n      tag_116\n      jumpi\n      0x00\n      dup1\n      revert\n    tag_116:\n        /* \"Treasury.sol\":1328:1337  msg.value */\n      callvalue\n        /* \"Treasury.sol\":1317:1324  balance */\n      0x00\n      dup1\n        /* \"Treasury.sol\":1317:1337  balance += msg.value */\n      dup3\n      dup3\n      sload\n      tag_117\n      swap2\n      swap1\n      tag_102\n      jump\t// in\n    tag_117:\n      swap3\n      pop\n      pop\n      dup2\n      swap1\n      sstore\n      pop\n        /* \"Treasury.sol\":1229:1345  function payNewProposalFee() public payable {... */\n      jump\t// out\n        /* \"Treasury.sol\":1353:1537  function payNewApplicantFee(address pool) public payable {... */\n    tag_39:\n        /* \"Treasury.sol\":1441:1442  0 */\n      0x00\n        /* \"Treasury.sol\":1429:1438  msg.value */\n      callvalue\n        /* \"Treasury.sol\":1429:1442  msg.value > 0 */\n      gt\n        /* \"Treasury.sol\":1421:1443  require(msg.value > 0) */\n      tag_119\n      jumpi\n      0x00\n      dup1\n      revert\n    tag_119:\n        /* \"Treasury.sol\":1465:1474  msg.value */\n      callvalue\n        /* \"Treasury.sol\":1454:1461  balance */\n      0x00\n      dup1\n        /* \"Treasury.sol\":1454:1474  balance += msg.value */\n      dup3\n      dup3\n      sload\n      tag_120\n      swap2\n      swap1\n      tag_102\n      jump\t// in\n    tag_120:\n      swap3\n      pop\n      pop\n      dup2\n      swap1\n      sstore\n      pop\n        /* \"Treasury.sol\":1525:1529  true */\n      0x01\n        /* \"Treasury.sol\":1485:1504  applicantFeeRecords */\n      0x07\n        /* \"Treasury.sol\":1485:1516  applicantFeeRecords[msg.sender] */\n      0x00\n        /* \"Treasury.sol\":1505:1515  msg.sender */\n      caller\n        /* \"Treasury.sol\":1485:1516  applicantFeeRecords[msg.sender] */\n      0xffffffffffffffffffffffffffffffffffffffff\n      and\n      0xffffffffffffffffffffffffffffffffffffffff\n      and\n      dup2\n      mstore\n      0x20\n      add\n      swap1\n      dup2\n      mstore\n      0x20\n      add\n      0x00\n      keccak256\n        /* \"Treasury.sol\":1485:1522  applicantFeeRecords[msg.sender][pool] */\n      0x00\n        /* \"Treasury.sol\":1517:1521  pool */\n      dup4\n        /* \"Treasury.sol\":1485:1522  applicantFeeRecords[msg.sender][pool] */\n      0xffffffffffffffffffffffffffffffffffffffff\n      and\n      0xffffffffffffffffffffffffffffffffffffffff\n      and\n      dup2\n      mstore\n      0x20\n      add\n      swap1\n      dup2\n      mstore\n      0x20\n      add\n      0x00\n      keccak256\n      0x00\n        /* \"Treasury.sol\":1485:1529  applicantFeeRecords[msg.sender][pool] = true */\n      0x0100\n      exp\n      dup2\n      sload\n      dup2\n      0xff\n      mul\n      not\n      and\n      swap1\n      dup4\n      iszero\n      iszero\n      mul\n      or\n      swap1\n      sstore\n      pop\n        /* \"Treasury.sol\":1353:1537  function payNewApplicantFee(address pool) public payable {... */\n      pop\n      jump\t// out\n        /* \"Treasury.sol\":122:171  uint256 public newApplicantFee = 1000000000000000 */\n    tag_42:\n      sload(0x01)\n      dup2\n      jump\t// out\n        /* \"Treasury.sol\":935:1070  function setNewPoolFee(uint256 amount) public {... */\n    tag_49:\n        /* \"Treasury.sol\":1014:1031  governanceAddress */\n      0x08\n      0x00\n      swap1\n      sload\n      swap1\n      0x0100\n      exp\n      swap1\n      div\n      0xffffffffffffffffffffffffffffffffffffffff\n      and\n        /* \"Treasury.sol\":1000:1031  msg.sender == governanceAddress */\n      0xffffffffffffffffffffffffffffffffffffffff\n      and\n        /* \"Treasury.sol\":1000:1010  msg.sender */\n      caller\n        /* \"Treasury.sol\":1000:1031  msg.sender == governanceAddress */\n      0xffffffffffffffffffffffffffffffffffffffff\n      and\n      eq\n        /* \"Treasury.sol\":992:1032  require(msg.sender == governanceAddress) */\n      tag_122\n      jumpi\n      0x00\n      dup1\n      revert\n    tag_122:\n        /* \"Treasury.sol\":1056:1062  amount */\n      dup1\n        /* \"Treasury.sol\":1043:1053  newPoolFee */\n      0x02\n        /* \"Treasury.sol\":1043:1062  newPoolFee = amount */\n      dup2\n      swap1\n      sstore\n      pop\n        /* \"Treasury.sol\":935:1070  function setNewPoolFee(uint256 amount) public {... */\n      pop\n      jump\t// out\n        /* \"Treasury.sol\":782:927  function setNewApplicantFee(uint256 amount) public {... */\n    tag_53:\n        /* \"Treasury.sol\":866:883  governanceAddress */\n      0x08\n      0x00\n      swap1\n      sload\n      swap1\n      0x0100\n      exp\n      swap1\n      div\n      0xffffffffffffffffffffffffffffffffffffffff\n      and\n        /* \"Treasury.sol\":852:883  msg.sender == governanceAddress */\n      0xffffffffffffffffffffffffffffffffffffffff\n      and\n        /* \"Treasury.sol\":852:862  msg.sender */\n      caller\n        /* \"Treasury.sol\":852:883  msg.sender == governanceAddress */\n      0xffffffffffffffffffffffffffffffffffffffff\n      and\n      eq\n        /* \"Treasury.sol\":844:884  require(msg.sender == governanceAddress) */\n      tag_124\n      jumpi\n      0x00\n      dup1\n      revert\n    tag_124:\n        /* \"Treasury.sol\":913:919  amount */\n      dup1\n        /* \"Treasury.sol\":895:910  newApplicantFee */\n      0x01\n        /* \"Treasury.sol\":895:919  newApplicantFee = amount */\n      dup2\n      swap1\n      sstore\n      pop\n        /* \"Treasury.sol\":782:927  function setNewApplicantFee(uint256 amount) public {... */\n      pop\n      jump\t// out\n        /* \"Treasury.sol\":1078:1221  function setNewProposalFee(uint256 amount) public {... */\n    tag_57:\n        /* \"Treasury.sol\":1161:1178  governanceAddress */\n      0x08\n      0x00\n      swap1\n      sload\n      swap1\n      0x0100\n      exp\n      swap1\n      div\n      0xffffffffffffffffffffffffffffffffffffffff\n      and\n        /* \"Treasury.sol\":1147:1178  msg.sender == governanceAddress */\n      0xffffffffffffffffffffffffffffffffffffffff\n      and\n        /* \"Treasury.sol\":1147:1157  msg.sender */\n      caller\n        /* \"Treasury.sol\":1147:1178  msg.sender == governanceAddress */\n      0xffffffffffffffffffffffffffffffffffffffff\n      and\n      eq\n        /* \"Treasury.sol\":1139:1179  require(msg.sender == governanceAddress) */\n      tag_126\n      jumpi\n      0x00\n      dup1\n      revert\n    tag_126:\n        /* \"Treasury.sol\":1207:1213  amount */\n      dup1\n        /* \"Treasury.sol\":1190:1204  newProposalFee */\n      0x03\n        /* \"Treasury.sol\":1190:1213  newProposalFee = amount */\n      dup2\n      swap1\n      sstore\n      pop\n        /* \"Treasury.sol\":1078:1221  function setNewProposalFee(uint256 amount) public {... */\n      pop\n      jump\t// out\n        /* \"Treasury.sol\":178:222  uint256 public newPoolFee = 1000000000000000 */\n    tag_60:\n      sload(0x02)\n      dup2\n      jump\t// out\n        /* \"Treasury.sol\":229:277  uint256 public newProposalFee = 1000000000000000 */\n    tag_64:\n      sload(0x03)\n      dup2\n      jump\t// out\n        /* \"Treasury.sol\":1930:2074  function spendOneCreateToken(address user) public {... */\n    tag_69:\n        /* \"Treasury.sol\":2025:2026  0 */\n      0x00\n        /* \"Treasury.sol\":1999:2016  poolCreatorTokens */\n      0x06\n        /* \"Treasury.sol\":1999:2022  poolCreatorTokens[user] */\n      0x00\n        /* \"Treasury.sol\":2017:2021  user */\n      dup4\n        /* \"Treasury.sol\":1999:2022  poolCreatorTokens[user] */\n      0xffffffffffffffffffffffffffffffffffffffff\n      and\n      0xffffffffffffffffffffffffffffffffffffffff\n      and\n      dup2\n      mstore\n      0x20\n      add\n      swap1\n      dup2\n      mstore\n      0x20\n      add\n      0x00\n      keccak256\n      sload\n        /* \"Treasury.sol\":1999:2026  poolCreatorTokens[user] > 0 */\n      gt\n        /* \"Treasury.sol\":1991:2027  require(poolCreatorTokens[user] > 0) */\n      tag_128\n      jumpi\n      0x00\n      dup1\n      revert\n    tag_128:\n        /* \"Treasury.sol\":2065:2066  1 */\n      0x01\n        /* \"Treasury.sol\":2038:2055  poolCreatorTokens */\n      0x06\n        /* \"Treasury.sol\":2038:2061  poolCreatorTokens[user] */\n      0x00\n        /* \"Treasury.sol\":2056:2060  user */\n      dup4\n        /* \"Treasury.sol\":2038:2061  poolCreatorTokens[user] */\n      0xffffffffffffffffffffffffffffffffffffffff\n      and\n      0xffffffffffffffffffffffffffffffffffffffff\n      and\n      dup2\n      mstore\n      0x20\n      add\n      swap1\n      dup2\n      mstore\n      0x20\n      add\n      0x00\n      keccak256\n      0x00\n        /* \"Treasury.sol\":2038:2066  poolCreatorTokens[user] -= 1 */\n      dup3\n      dup3\n      sload\n      tag_129\n      swap2\n      swap1\n      tag_104\n      jump\t// in\n    tag_129:\n      swap3\n      pop\n      pop\n      dup2\n      swap1\n      sstore\n      pop\n        /* \"Treasury.sol\":1930:2074  function spendOneCreateToken(address user) public {... */\n      pop\n      jump\t// out\n        /* \"Treasury.sol\":2407:2583  function didPayApplicantFee(address person, address pool)... */\n    tag_74:\n        /* \"Treasury.sol\":2513:2517  bool */\n      0x00\n        /* \"Treasury.sol\":2542:2561  applicantFeeRecords */\n      0x07\n        /* \"Treasury.sol\":2542:2569  applicantFeeRecords[person] */\n      0x00\n        /* \"Treasury.sol\":2562:2568  person */\n      dup5\n        /* \"Treasury.sol\":2542:2569  applicantFeeRecords[person] */\n      0xffffffffffffffffffffffffffffffffffffffff\n      and\n      0xffffffffffffffffffffffffffffffffffffffff\n      and\n      dup2\n      mstore\n      0x20\n      add\n      swap1\n      dup2\n      mstore\n      0x20\n      add\n      0x00\n      keccak256\n        /* \"Treasury.sol\":2542:2575  applicantFeeRecords[person][pool] */\n      0x00\n        /* \"Treasury.sol\":2570:2574  pool */\n      dup4\n        /* \"Treasury.sol\":2542:2575  applicantFeeRecords[person][pool] */\n      0xffffffffffffffffffffffffffffffffffffffff\n      and\n      0xffffffffffffffffffffffffffffffffffffffff\n      and\n      dup2\n      mstore\n      0x20\n      add\n      swap1\n      dup2\n      mstore\n      0x20\n      add\n      0x00\n      keccak256\n      0x00\n      swap1\n      sload\n      swap1\n      0x0100\n      exp\n      swap1\n      div\n      0xff\n      and\n        /* \"Treasury.sol\":2535:2575  return applicantFeeRecords[person][pool] */\n      swap1\n      pop\n        /* \"Treasury.sol\":2407:2583  function didPayApplicantFee(address person, address pool)... */\n      swap3\n      swap2\n      pop\n      pop\n      jump\t// out\n        /* \"Treasury.sol\":2708:2833  function getMemberAllocation(address member) public view returns (uint256) {... */\n    tag_79:\n        /* \"Treasury.sol\":2774:2781  uint256 */\n      0x00\n        /* \"Treasury.sol\":2801:2817  memberAllocation */\n      0x04\n        /* \"Treasury.sol\":2801:2825  memberAllocation[member] */\n      0x00\n        /* \"Treasury.sol\":2818:2824  member */\n      dup4\n        /* \"Treasury.sol\":2801:2825  memberAllocation[member] */\n      0xffffffffffffffffffffffffffffffffffffffff\n      and\n      0xffffffffffffffffffffffffffffffffffffffff\n      and\n      dup2\n      mstore\n      0x20\n      add\n      swap1\n      dup2\n      mstore\n      0x20\n      add\n      0x00\n      keccak256\n      sload\n        /* \"Treasury.sol\":2794:2825  return memberAllocation[member] */\n      swap1\n      pop\n        /* \"Treasury.sol\":2708:2833  function getMemberAllocation(address member) public view returns (uint256) {... */\n      swap2\n      swap1\n      pop\n      jump\t// out\n        /* \"Treasury.sol\":618:774  function setGovernance(address newGovernance) public {... */\n    tag_84:\n        /* \"Treasury.sol\":704:721  governanceAddress */\n      0x08\n      0x00\n      swap1\n      sload\n      swap1\n      0x0100\n      exp\n      swap1\n      div\n      0xffffffffffffffffffffffffffffffffffffffff\n      and\n        /* \"Treasury.sol\":690:721  msg.sender == governanceAddress */\n      0xffffffffffffffffffffffffffffffffffffffff\n      and\n        /* \"Treasury.sol\":690:700  msg.sender */\n      caller\n        /* \"Treasury.sol\":690:721  msg.sender == governanceAddress */\n      0xffffffffffffffffffffffffffffffffffffffff\n      and\n      eq\n        /* \"Treasury.sol\":682:722  require(msg.sender == governanceAddress) */\n      tag_133\n      jumpi\n      0x00\n      dup1\n      revert\n    tag_133:\n        /* \"Treasury.sol\":753:766  newGovernance */\n      dup1\n        /* \"Treasury.sol\":733:750  governanceAddress */\n      0x08\n      0x00\n        /* \"Treasury.sol\":733:766  governanceAddress = newGovernance */\n      0x0100\n      exp\n      dup2\n      sload\n      dup2\n      0xffffffffffffffffffffffffffffffffffffffff\n      mul\n      not\n      and\n      swap1\n      dup4\n      0xffffffffffffffffffffffffffffffffffffffff\n      and\n      mul\n      or\n      swap1\n      sstore\n      pop\n        /* \"Treasury.sol\":618:774  function setGovernance(address newGovernance) public {... */\n      pop\n      jump\t// out\n        /* \"Treasury.sol\":91:113  uint256 public balance */\n    tag_87:\n      sload(0x00)\n      dup2\n      jump\t// out\n        /* \"Treasury.sol\":1545:1848  function payCreatorFee() public payable {... */\n    tag_90:\n        /* \"Treasury.sol\":1616:1617  0 */\n      0x00\n        /* \"Treasury.sol\":1604:1613  msg.value */\n      callvalue\n        /* \"Treasury.sol\":1604:1617  msg.value > 0 */\n      gt\n        /* \"Treasury.sol\":1596:1641  require(msg.value > 0, \"Fee Amount Required\") */\n      tag_135\n      jumpi\n      mload(0x40)\n      0x08c379a000000000000000000000000000000000000000000000000000000000\n      dup2\n      mstore\n      0x04\n      add\n      tag_136\n      swap1\n      tag_137\n      jump\t// in\n    tag_136:\n      mload(0x40)\n      dup1\n      swap2\n      sub\n      swap1\n      revert\n    tag_135:\n        /* \"Treasury.sol\":1687:1697  newPoolFee */\n      sload(0x02)\n        /* \"Treasury.sol\":1674:1683  msg.value */\n      callvalue\n        /* \"Treasury.sol\":1674:1697  msg.value >= newPoolFee */\n      lt\n      iszero\n        /* \"Treasury.sol\":1652:1764  require(... */\n      tag_138\n      jumpi\n      mload(0x40)\n      0x08c379a000000000000000000000000000000000000000000000000000000000\n      dup2\n      mstore\n      0x04\n      add\n      tag_139\n      swap1\n      tag_140\n      jump\t// in\n    tag_139:\n      mload(0x40)\n      dup1\n      swap2\n      sub\n      swap1\n      revert\n    tag_138:\n        /* \"Treasury.sol\":1786:1795  msg.value */\n      callvalue\n        /* \"Treasury.sol\":1775:1782  balance */\n      0x00\n      dup1\n        /* \"Treasury.sol\":1775:1795  balance += msg.value */\n      dup3\n      dup3\n      sload\n      tag_141\n      swap2\n      swap1\n      tag_102\n      jump\t// in\n    tag_141:\n      swap3\n      pop\n      pop\n      dup2\n      swap1\n      sstore\n      pop\n        /* \"Treasury.sol\":1839:1840  1 */\n      0x01\n        /* \"Treasury.sol\":1806:1823  poolCreatorTokens */\n      0x06\n        /* \"Treasury.sol\":1806:1835  poolCreatorTokens[msg.sender] */\n      0x00\n        /* \"Treasury.sol\":1824:1834  msg.sender */\n      caller\n        /* \"Treasury.sol\":1806:1835  poolCreatorTokens[msg.sender] */\n      0xffffffffffffffffffffffffffffffffffffffff\n      and\n      0xffffffffffffffffffffffffffffffffffffffff\n      and\n      dup2\n      mstore\n      0x20\n      add\n      swap1\n      dup2\n      mstore\n      0x20\n      add\n      0x00\n      keccak256\n      0x00\n        /* \"Treasury.sol\":1806:1840  poolCreatorTokens[msg.sender] += 1 */\n      dup3\n      dup3\n      sload\n      tag_142\n      swap2\n      swap1\n      tag_102\n      jump\t// in\n    tag_142:\n      swap3\n      pop\n      pop\n      dup2\n      swap1\n      sstore\n      pop\n        /* \"Treasury.sol\":1545:1848  function payCreatorFee() public payable {... */\n      jump\t// out\n        /* \"Treasury.sol\":1856:1922  function canCreatePool(address user) public view returns (bool) {} */\n    tag_94:\n        /* \"Treasury.sol\":1914:1918  bool */\n      0x00\n        /* \"Treasury.sol\":1856:1922  function canCreatePool(address user) public view returns (bool) {} */\n      swap2\n      swap1\n      pop\n      jump\t// out\n        /* \"#utility.yul\":7:97   */\n    tag_144:\n        /* \"#utility.yul\":41:48   */\n      0x00\n        /* \"#utility.yul\":84:89   */\n      dup2\n        /* \"#utility.yul\":77:90   */\n      iszero\n        /* \"#utility.yul\":70:91   */\n      iszero\n        /* \"#utility.yul\":59:91   */\n      swap1\n      pop\n        /* \"#utility.yul\":7:97   */\n      swap2\n      swap1\n      pop\n      jump\t// out\n        /* \"#utility.yul\":103:212   */\n    tag_145:\n        /* \"#utility.yul\":184:205   */\n      tag_171\n        /* \"#utility.yul\":199:204   */\n      dup2\n        /* \"#utility.yul\":184:205   */\n      tag_144\n      jump\t// in\n    tag_171:\n        /* \"#utility.yul\":179:182   */\n      dup3\n        /* \"#utility.yul\":172:206   */\n      mstore\n        /* \"#utility.yul\":103:212   */\n      pop\n      pop\n      jump\t// out\n        /* \"#utility.yul\":218:428   */\n    tag_27:\n        /* \"#utility.yul\":305:309   */\n      0x00\n        /* \"#utility.yul\":343:345   */\n      0x20\n        /* \"#utility.yul\":332:341   */\n      dup3\n        /* \"#utility.yul\":328:346   */\n      add\n        /* \"#utility.yul\":320:346   */\n      swap1\n      pop\n        /* \"#utility.yul\":356:421   */\n      tag_173\n        /* \"#utility.yul\":418:419   */\n      0x00\n        /* \"#utility.yul\":407:416   */\n      dup4\n        /* \"#utility.yul\":403:420   */\n      add\n        /* \"#utility.yul\":394:400   */\n      dup5\n        /* \"#utility.yul\":356:421   */\n      tag_145\n      jump\t// in\n    tag_173:\n        /* \"#utility.yul\":218:428   */\n      swap3\n      swap2\n      pop\n      pop\n      jump\t// out\n        /* \"#utility.yul\":515:632   */\n    tag_147:\n        /* \"#utility.yul\":624:625   */\n      0x00\n        /* \"#utility.yul\":621:622   */\n      dup1\n        /* \"#utility.yul\":614:626   */\n      revert\n        /* \"#utility.yul\":761:887   */\n    tag_149:\n        /* \"#utility.yul\":798:805   */\n      0x00\n        /* \"#utility.yul\":838:880   */\n      0xffffffffffffffffffffffffffffffffffffffff\n        /* \"#utility.yul\":831:836   */\n      dup3\n        /* \"#utility.yul\":827:881   */\n      and\n        /* \"#utility.yul\":816:881   */\n      swap1\n      pop\n        /* \"#utility.yul\":761:887   */\n      swap2\n      swap1\n      pop\n      jump\t// out\n        /* \"#utility.yul\":893:989   */\n    tag_150:\n        /* \"#utility.yul\":930:937   */\n      0x00\n        /* \"#utility.yul\":959:983   */\n      tag_179\n        /* \"#utility.yul\":977:982   */\n      dup3\n        /* \"#utility.yul\":959:983   */\n      tag_149\n      jump\t// in\n    tag_179:\n        /* \"#utility.yul\":948:983   */\n      swap1\n      pop\n        /* \"#utility.yul\":893:989   */\n      swap2\n      swap1\n      pop\n      jump\t// out\n        /* \"#utility.yul\":995:1117   */\n    tag_151:\n        /* \"#utility.yul\":1068:1092   */\n      tag_181\n        /* \"#utility.yul\":1086:1091   */\n      dup2\n        /* \"#utility.yul\":1068:1092   */\n      tag_150\n      jump\t// in\n    tag_181:\n        /* \"#utility.yul\":1061:1066   */\n      dup2\n        /* \"#utility.yul\":1058:1093   */\n      eq\n        /* \"#utility.yul\":1048:1111   */\n      tag_182\n      jumpi\n        /* \"#utility.yul\":1107:1108   */\n      0x00\n        /* \"#utility.yul\":1104:1105   */\n      dup1\n        /* \"#utility.yul\":1097:1109   */\n      revert\n        /* \"#utility.yul\":1048:1111   */\n    tag_182:\n        /* \"#utility.yul\":995:1117   */\n      pop\n      jump\t// out\n        /* \"#utility.yul\":1123:1262   */\n    tag_152:\n        /* \"#utility.yul\":1169:1174   */\n      0x00\n        /* \"#utility.yul\":1207:1213   */\n      dup2\n        /* \"#utility.yul\":1194:1214   */\n      calldataload\n        /* \"#utility.yul\":1185:1214   */\n      swap1\n      pop\n        /* \"#utility.yul\":1223:1256   */\n      tag_184\n        /* \"#utility.yul\":1250:1255   */\n      dup2\n        /* \"#utility.yul\":1223:1256   */\n      tag_151\n      jump\t// in\n    tag_184:\n        /* \"#utility.yul\":1123:1262   */\n      swap3\n      swap2\n      pop\n      pop\n      jump\t// out\n        /* \"#utility.yul\":1268:1345   */\n    tag_153:\n        /* \"#utility.yul\":1305:1312   */\n      0x00\n        /* \"#utility.yul\":1334:1339   */\n      dup2\n        /* \"#utility.yul\":1323:1339   */\n      swap1\n      pop\n        /* \"#utility.yul\":1268:1345   */\n      swap2\n      swap1\n      pop\n      jump\t// out\n        /* \"#utility.yul\":1351:1473   */\n    tag_154:\n        /* \"#utility.yul\":1424:1448   */\n      tag_187\n        /* \"#utility.yul\":1442:1447   */\n      dup2\n        /* \"#utility.yul\":1424:1448   */\n      tag_153\n      jump\t// in\n    tag_187:\n        /* \"#utility.yul\":1417:1422   */\n      dup2\n        /* \"#utility.yul\":1414:1449   */\n      eq\n        /* \"#utility.yul\":1404:1467   */\n      tag_188\n      jumpi\n        /* \"#utility.yul\":1463:1464   */\n      0x00\n        /* \"#utility.yul\":1460:1461   */\n      dup1\n        /* \"#utility.yul\":1453:1465   */\n      revert\n        /* \"#utility.yul\":1404:1467   */\n    tag_188:\n        /* \"#utility.yul\":1351:1473   */\n      pop\n      jump\t// out\n        /* \"#utility.yul\":1479:1618   */\n    tag_155:\n        /* \"#utility.yul\":1525:1530   */\n      0x00\n        /* \"#utility.yul\":1563:1569   */\n      dup2\n        /* \"#utility.yul\":1550:1570   */\n      calldataload\n        /* \"#utility.yul\":1541:1570   */\n      swap1\n      pop\n        /* \"#utility.yul\":1579:1612   */\n      tag_190\n        /* \"#utility.yul\":1606:1611   */\n      dup2\n        /* \"#utility.yul\":1579:1612   */\n      tag_154\n      jump\t// in\n    tag_190:\n        /* \"#utility.yul\":1479:1618   */\n      swap3\n      swap2\n      pop\n      pop\n      jump\t// out\n        /* \"#utility.yul\":1624:2098   */\n    tag_30:\n        /* \"#utility.yul\":1692:1698   */\n      0x00\n        /* \"#utility.yul\":1700:1706   */\n      dup1\n        /* \"#utility.yul\":1749:1751   */\n      0x40\n        /* \"#utility.yul\":1737:1746   */\n      dup4\n        /* \"#utility.yul\":1728:1735   */\n      dup6\n        /* \"#utility.yul\":1724:1747   */\n      sub\n        /* \"#utility.yul\":1720:1752   */\n      slt\n        /* \"#utility.yul\":1717:1836   */\n      iszero\n      tag_192\n      jumpi\n        /* \"#utility.yul\":1755:1834   */\n      tag_193\n      tag_147\n      jump\t// in\n    tag_193:\n        /* \"#utility.yul\":1717:1836   */\n    tag_192:\n        /* \"#utility.yul\":1875:1876   */\n      0x00\n        /* \"#utility.yul\":1900:1953   */\n      tag_194\n        /* \"#utility.yul\":1945:1952   */\n      dup6\n        /* \"#utility.yul\":1936:1942   */\n      dup3\n        /* \"#utility.yul\":1925:1934   */\n      dup7\n        /* \"#utility.yul\":1921:1943   */\n      add\n        /* \"#utility.yul\":1900:1953   */\n      tag_152\n      jump\t// in\n    tag_194:\n        /* \"#utility.yul\":1890:1953   */\n      swap3\n      pop\n        /* \"#utility.yul\":1846:1963   */\n      pop\n        /* \"#utility.yul\":2002:2004   */\n      0x20\n        /* \"#utility.yul\":2028:2081   */\n      tag_195\n        /* \"#utility.yul\":2073:2080   */\n      dup6\n        /* \"#utility.yul\":2064:2070   */\n      dup3\n        /* \"#utility.yul\":2053:2062   */\n      dup7\n        /* \"#utility.yul\":2049:2071   */\n      add\n        /* \"#utility.yul\":2028:2081   */\n      tag_155\n      jump\t// in\n    tag_195:\n        /* \"#utility.yul\":2018:2081   */\n      swap2\n      pop\n        /* \"#utility.yul\":1973:2091   */\n      pop\n        /* \"#utility.yul\":1624:2098   */\n      swap3\n      pop\n      swap3\n      swap1\n      pop\n      jump\t// out\n        /* \"#utility.yul\":2104:2433   */\n    tag_38:\n        /* \"#utility.yul\":2163:2169   */\n      0x00\n        /* \"#utility.yul\":2212:2214   */\n      0x20\n        /* \"#utility.yul\":2200:2209   */\n      dup3\n        /* \"#utility.yul\":2191:2198   */\n      dup5\n        /* \"#utility.yul\":2187:2210   */\n      sub\n        /* \"#utility.yul\":2183:2215   */\n      slt\n        /* \"#utility.yul\":2180:2299   */\n      iszero\n      tag_197\n      jumpi\n        /* \"#utility.yul\":2218:2297   */\n      tag_198\n      tag_147\n      jump\t// in\n    tag_198:\n        /* \"#utility.yul\":2180:2299   */\n    tag_197:\n        /* \"#utility.yul\":2338:2339   */\n      0x00\n        /* \"#utility.yul\":2363:2416   */\n      tag_199\n        /* \"#utility.yul\":2408:2415   */\n      dup5\n        /* \"#utility.yul\":2399:2405   */\n      dup3\n        /* \"#utility.yul\":2388:2397   */\n      dup6\n        /* \"#utility.yul\":2384:2406   */\n      add\n        /* \"#utility.yul\":2363:2416   */\n      tag_152\n      jump\t// in\n    tag_199:\n        /* \"#utility.yul\":2353:2416   */\n      swap2\n      pop\n        /* \"#utility.yul\":2309:2426   */\n      pop\n        /* \"#utility.yul\":2104:2433   */\n      swap3\n      swap2\n      pop\n      pop\n      jump\t// out\n        /* \"#utility.yul\":2439:2557   */\n    tag_156:\n        /* \"#utility.yul\":2526:2550   */\n      tag_201\n        /* \"#utility.yul\":2544:2549   */\n      dup2\n        /* \"#utility.yul\":2526:2550   */\n      tag_153\n      jump\t// in\n    tag_201:\n        /* \"#utility.yul\":2521:2524   */\n      dup3\n        /* \"#utility.yul\":2514:2551   */\n      mstore\n        /* \"#utility.yul\":2439:2557   */\n      pop\n      pop\n      jump\t// out\n        /* \"#utility.yul\":2563:2785   */\n    tag_44:\n        /* \"#utility.yul\":2656:2660   */\n      0x00\n        /* \"#utility.yul\":2694:2696   */\n      0x20\n        /* \"#utility.yul\":2683:2692   */\n      dup3\n        /* \"#utility.yul\":2679:2697   */\n      add\n        /* \"#utility.yul\":2671:2697   */\n      swap1\n      pop\n        /* \"#utility.yul\":2707:2778   */\n      tag_203\n        /* \"#utility.yul\":2775:2776   */\n      0x00\n        /* \"#utility.yul\":2764:2773   */\n      dup4\n        /* \"#utility.yul\":2760:2777   */\n      add\n        /* \"#utility.yul\":2751:2757   */\n      dup5\n        /* \"#utility.yul\":2707:2778   */\n      tag_156\n      jump\t// in\n    tag_203:\n        /* \"#utility.yul\":2563:2785   */\n      swap3\n      swap2\n      pop\n      pop\n      jump\t// out\n        /* \"#utility.yul\":2791:3120   */\n    tag_48:\n        /* \"#utility.yul\":2850:2856   */\n      0x00\n        /* \"#utility.yul\":2899:2901   */\n      0x20\n        /* \"#utility.yul\":2887:2896   */\n      dup3\n        /* \"#utility.yul\":2878:2885   */\n      dup5\n        /* \"#utility.yul\":2874:2897   */\n      sub\n        /* \"#utility.yul\":2870:2902   */\n      slt\n        /* \"#utility.yul\":2867:2986   */\n      iszero\n      tag_205\n      jumpi\n        /* \"#utility.yul\":2905:2984   */\n      tag_206\n      tag_147\n      jump\t// in\n    tag_206:\n        /* \"#utility.yul\":2867:2986   */\n    tag_205:\n        /* \"#utility.yul\":3025:3026   */\n      0x00\n        /* \"#utility.yul\":3050:3103   */\n      tag_207\n        /* \"#utility.yul\":3095:3102   */\n      dup5\n        /* \"#utility.yul\":3086:3092   */\n      dup3\n        /* \"#utility.yul\":3075:3084   */\n      dup6\n        /* \"#utility.yul\":3071:3093   */\n      add\n        /* \"#utility.yul\":3050:3103   */\n      tag_155\n      jump\t// in\n    tag_207:\n        /* \"#utility.yul\":3040:3103   */\n      swap2\n      pop\n        /* \"#utility.yul\":2996:3113   */\n      pop\n        /* \"#utility.yul\":2791:3120   */\n      swap3\n      swap2\n      pop\n      pop\n      jump\t// out\n        /* \"#utility.yul\":3126:3600   */\n    tag_73:\n        /* \"#utility.yul\":3194:3200   */\n      0x00\n        /* \"#utility.yul\":3202:3208   */\n      dup1\n        /* \"#utility.yul\":3251:3253   */\n      0x40\n        /* \"#utility.yul\":3239:3248   */\n      dup4\n        /* \"#utility.yul\":3230:3237   */\n      dup6\n        /* \"#utility.yul\":3226:3249   */\n      sub\n        /* \"#utility.yul\":3222:3254   */\n      slt\n        /* \"#utility.yul\":3219:3338   */\n      iszero\n      tag_209\n      jumpi\n        /* \"#utility.yul\":3257:3336   */\n      tag_210\n      tag_147\n      jump\t// in\n    tag_210:\n        /* \"#utility.yul\":3219:3338   */\n    tag_209:\n        /* \"#utility.yul\":3377:3378   */\n      0x00\n        /* \"#utility.yul\":3402:3455   */\n      tag_211\n        /* \"#utility.yul\":3447:3454   */\n      dup6\n        /* \"#utility.yul\":3438:3444   */\n      dup3\n        /* \"#utility.yul\":3427:3436   */\n      dup7\n        /* \"#utility.yul\":3423:3445   */\n      add\n        /* \"#utility.yul\":3402:3455   */\n      tag_152\n      jump\t// in\n    tag_211:\n        /* \"#utility.yul\":3392:3455   */\n      swap3\n      pop\n        /* \"#utility.yul\":3348:3465   */\n      pop\n        /* \"#utility.yul\":3504:3506   */\n      0x20\n        /* \"#utility.yul\":3530:3583   */\n      tag_212\n        /* \"#utility.yul\":3575:3582   */\n      dup6\n        /* \"#utility.yul\":3566:3572   */\n      dup3\n        /* \"#utility.yul\":3555:3564   */\n      dup7\n        /* \"#utility.yul\":3551:3573   */\n      add\n        /* \"#utility.yul\":3530:3583   */\n      tag_152\n      jump\t// in\n    tag_212:\n        /* \"#utility.yul\":3520:3583   */\n      swap2\n      pop\n        /* \"#utility.yul\":3475:3593   */\n      pop\n        /* \"#utility.yul\":3126:3600   */\n      swap3\n      pop\n      swap3\n      swap1\n      pop\n      jump\t// out\n        /* \"#utility.yul\":3606:3786   */\n    tag_157:\n        /* \"#utility.yul\":3654:3731   */\n      0x4e487b7100000000000000000000000000000000000000000000000000000000\n        /* \"#utility.yul\":3651:3652   */\n      0x00\n        /* \"#utility.yul\":3644:3732   */\n      mstore\n        /* \"#utility.yul\":3751:3755   */\n      0x11\n        /* \"#utility.yul\":3748:3749   */\n      0x04\n        /* \"#utility.yul\":3741:3756   */\n      mstore\n        /* \"#utility.yul\":3775:3779   */\n      0x24\n        /* \"#utility.yul\":3772:3773   */\n      0x00\n        /* \"#utility.yul\":3765:3780   */\n      revert\n        /* \"#utility.yul\":3792:3983   */\n    tag_102:\n        /* \"#utility.yul\":3832:3835   */\n      0x00\n        /* \"#utility.yul\":3851:3871   */\n      tag_215\n        /* \"#utility.yul\":3869:3870   */\n      dup3\n        /* \"#utility.yul\":3851:3871   */\n      tag_153\n      jump\t// in\n    tag_215:\n        /* \"#utility.yul\":3846:3871   */\n      swap2\n      pop\n        /* \"#utility.yul\":3885:3905   */\n      tag_216\n        /* \"#utility.yul\":3903:3904   */\n      dup4\n        /* \"#utility.yul\":3885:3905   */\n      tag_153\n      jump\t// in\n    tag_216:\n        /* \"#utility.yul\":3880:3905   */\n      swap3\n      pop\n        /* \"#utility.yul\":3928:3929   */\n      dup3\n        /* \"#utility.yul\":3925:3926   */\n      dup3\n        /* \"#utility.yul\":3921:3930   */\n      add\n        /* \"#utility.yul\":3914:3930   */\n      swap1\n      pop\n        /* \"#utility.yul\":3949:3952   */\n      dup1\n        /* \"#utility.yul\":3946:3947   */\n      dup3\n        /* \"#utility.yul\":3943:3953   */\n      gt\n        /* \"#utility.yul\":3940:3976   */\n      iszero\n      tag_217\n      jumpi\n        /* \"#utility.yul\":3956:3974   */\n      tag_218\n      tag_157\n      jump\t// in\n    tag_218:\n        /* \"#utility.yul\":3940:3976   */\n    tag_217:\n        /* \"#utility.yul\":3792:3983   */\n      swap3\n      swap2\n      pop\n      pop\n      jump\t// out\n        /* \"#utility.yul\":3989:4183   */\n    tag_104:\n        /* \"#utility.yul\":4029:4033   */\n      0x00\n        /* \"#utility.yul\":4049:4069   */\n      tag_220\n        /* \"#utility.yul\":4067:4068   */\n      dup3\n        /* \"#utility.yul\":4049:4069   */\n      tag_153\n      jump\t// in\n    tag_220:\n        /* \"#utility.yul\":4044:4069   */\n      swap2\n      pop\n        /* \"#utility.yul\":4083:4103   */\n      tag_221\n        /* \"#utility.yul\":4101:4102   */\n      dup4\n        /* \"#utility.yul\":4083:4103   */\n      tag_153\n      jump\t// in\n    tag_221:\n        /* \"#utility.yul\":4078:4103   */\n      swap3\n      pop\n        /* \"#utility.yul\":4127:4128   */\n      dup3\n        /* \"#utility.yul\":4124:4125   */\n      dup3\n        /* \"#utility.yul\":4120:4129   */\n      sub\n        /* \"#utility.yul\":4112:4129   */\n      swap1\n      pop\n        /* \"#utility.yul\":4151:4152   */\n      dup2\n        /* \"#utility.yul\":4145:4149   */\n      dup2\n        /* \"#utility.yul\":4142:4153   */\n      gt\n        /* \"#utility.yul\":4139:4176   */\n      iszero\n      tag_222\n      jumpi\n        /* \"#utility.yul\":4156:4174   */\n      tag_223\n      tag_157\n      jump\t// in\n    tag_223:\n        /* \"#utility.yul\":4139:4176   */\n    tag_222:\n        /* \"#utility.yul\":3989:4183   */\n      swap3\n      swap2\n      pop\n      pop\n      jump\t// out\n        /* \"#utility.yul\":4189:4336   */\n    tag_158:\n        /* \"#utility.yul\":4290:4301   */\n      0x00\n        /* \"#utility.yul\":4327:4330   */\n      dup2\n        /* \"#utility.yul\":4312:4330   */\n      swap1\n      pop\n        /* \"#utility.yul\":4189:4336   */\n      swap3\n      swap2\n      pop\n      pop\n      jump\t// out\n        /* \"#utility.yul\":4342:4456   */\n    tag_159:\n      pop\n      jump\t// out\n        /* \"#utility.yul\":4462:4860   */\n    tag_160:\n        /* \"#utility.yul\":4621:4624   */\n      0x00\n        /* \"#utility.yul\":4642:4725   */\n      tag_227\n        /* \"#utility.yul\":4723:4724   */\n      0x00\n        /* \"#utility.yul\":4718:4721   */\n      dup4\n        /* \"#utility.yul\":4642:4725   */\n      tag_158\n      jump\t// in\n    tag_227:\n        /* \"#utility.yul\":4635:4725   */\n      swap2\n      pop\n        /* \"#utility.yul\":4734:4827   */\n      tag_228\n        /* \"#utility.yul\":4823:4826   */\n      dup3\n        /* \"#utility.yul\":4734:4827   */\n      tag_159\n      jump\t// in\n    tag_228:\n        /* \"#utility.yul\":4852:4853   */\n      0x00\n        /* \"#utility.yul\":4847:4850   */\n      dup3\n        /* \"#utility.yul\":4843:4854   */\n      add\n        /* \"#utility.yul\":4836:4854   */\n      swap1\n      pop\n        /* \"#utility.yul\":4462:4860   */\n      swap2\n      swap1\n      pop\n      jump\t// out\n        /* \"#utility.yul\":4866:5245   */\n    tag_108:\n        /* \"#utility.yul\":5050:5053   */\n      0x00\n        /* \"#utility.yul\":5072:5219   */\n      tag_230\n        /* \"#utility.yul\":5215:5218   */\n      dup3\n        /* \"#utility.yul\":5072:5219   */\n      tag_160\n      jump\t// in\n    tag_230:\n        /* \"#utility.yul\":5065:5219   */\n      swap2\n      pop\n        /* \"#utility.yul\":5236:5239   */\n      dup2\n        /* \"#utility.yul\":5229:5239   */\n      swap1\n      pop\n        /* \"#utility.yul\":4866:5245   */\n      swap2\n      swap1\n      pop\n      jump\t// out\n        /* \"#utility.yul\":5251:5420   */\n    tag_161:\n        /* \"#utility.yul\":5335:5346   */\n      0x00\n        /* \"#utility.yul\":5369:5375   */\n      dup3\n        /* \"#utility.yul\":5364:5367   */\n      dup3\n        /* \"#utility.yul\":5357:5376   */\n      mstore\n        /* \"#utility.yul\":5409:5413   */\n      0x20\n        /* \"#utility.yul\":5404:5407   */\n      dup3\n        /* \"#utility.yul\":5400:5414   */\n      add\n        /* \"#utility.yul\":5385:5414   */\n      swap1\n      pop\n        /* \"#utility.yul\":5251:5420   */\n      swap3\n      swap2\n      pop\n      pop\n      jump\t// out\n        /* \"#utility.yul\":5426:5594   */\n    tag_162:\n        /* \"#utility.yul\":5566:5586   */\n      0x5472616e73616374696f6e204661696c65640000000000000000000000000000\n        /* \"#utility.yul\":5562:5563   */\n      0x00\n        /* \"#utility.yul\":5554:5560   */\n      dup3\n        /* \"#utility.yul\":5550:5564   */\n      add\n        /* \"#utility.yul\":5543:5587   */\n      mstore\n        /* \"#utility.yul\":5426:5594   */\n      pop\n      jump\t// out\n        /* \"#utility.yul\":5600:5966   */\n    tag_163:\n        /* \"#utility.yul\":5742:5745   */\n      0x00\n        /* \"#utility.yul\":5763:5830   */\n      tag_234\n        /* \"#utility.yul\":5827:5829   */\n      0x12\n        /* \"#utility.yul\":5822:5825   */\n      dup4\n        /* \"#utility.yul\":5763:5830   */\n      tag_161\n      jump\t// in\n    tag_234:\n        /* \"#utility.yul\":5756:5830   */\n      swap2\n      pop\n        /* \"#utility.yul\":5839:5932   */\n      tag_235\n        /* \"#utility.yul\":5928:5931   */\n      dup3\n        /* \"#utility.yul\":5839:5932   */\n      tag_162\n      jump\t// in\n    tag_235:\n        /* \"#utility.yul\":5957:5959   */\n      0x20\n        /* \"#utility.yul\":5952:5955   */\n      dup3\n        /* \"#utility.yul\":5948:5960   */\n      add\n        /* \"#utility.yul\":5941:5960   */\n      swap1\n      pop\n        /* \"#utility.yul\":5600:5966   */\n      swap2\n      swap1\n      pop\n      jump\t// out\n        /* \"#utility.yul\":5972:6391   */\n    tag_114:\n        /* \"#utility.yul\":6138:6142   */\n      0x00\n        /* \"#utility.yul\":6176:6178   */\n      0x20\n        /* \"#utility.yul\":6165:6174   */\n      dup3\n        /* \"#utility.yul\":6161:6179   */\n      add\n        /* \"#utility.yul\":6153:6179   */\n      swap1\n      pop\n        /* \"#utility.yul\":6225:6234   */\n      dup2\n        /* \"#utility.yul\":6219:6223   */\n      dup2\n        /* \"#utility.yul\":6215:6235   */\n      sub\n        /* \"#utility.yul\":6211:6212   */\n      0x00\n        /* \"#utility.yul\":6200:6209   */\n      dup4\n        /* \"#utility.yul\":6196:6213   */\n      add\n        /* \"#utility.yul\":6189:6236   */\n      mstore\n        /* \"#utility.yul\":6253:6384   */\n      tag_237\n        /* \"#utility.yul\":6379:6383   */\n      dup2\n        /* \"#utility.yul\":6253:6384   */\n      tag_163\n      jump\t// in\n    tag_237:\n        /* \"#utility.yul\":6245:6384   */\n      swap1\n      pop\n        /* \"#utility.yul\":5972:6391   */\n      swap2\n      swap1\n      pop\n      jump\t// out\n        /* \"#utility.yul\":6397:6566   */\n    tag_164:\n        /* \"#utility.yul\":6537:6558   */\n      0x46656520416d6f756e7420526571756972656400000000000000000000000000\n        /* \"#utility.yul\":6533:6534   */\n      0x00\n        /* \"#utility.yul\":6525:6531   */\n      dup3\n        /* \"#utility.yul\":6521:6535   */\n      add\n        /* \"#utility.yul\":6514:6559   */\n      mstore\n        /* \"#utility.yul\":6397:6566   */\n      pop\n      jump\t// out\n        /* \"#utility.yul\":6572:6938   */\n    tag_165:\n        /* \"#utility.yul\":6714:6717   */\n      0x00\n        /* \"#utility.yul\":6735:6802   */\n      tag_240\n        /* \"#utility.yul\":6799:6801   */\n      0x13\n        /* \"#utility.yul\":6794:6797   */\n      dup4\n        /* \"#utility.yul\":6735:6802   */\n      tag_161\n      jump\t// in\n    tag_240:\n        /* \"#utility.yul\":6728:6802   */\n      swap2\n      pop\n        /* \"#utility.yul\":6811:6904   */\n      tag_241\n        /* \"#utility.yul\":6900:6903   */\n      dup3\n        /* \"#utility.yul\":6811:6904   */\n      tag_164\n      jump\t// in\n    tag_241:\n        /* \"#utility.yul\":6929:6931   */\n      0x20\n        /* \"#utility.yul\":6924:6927   */\n      dup3\n        /* \"#utility.yul\":6920:6932   */\n      add\n        /* \"#utility.yul\":6913:6932   */\n      swap1\n      pop\n        /* \"#utility.yul\":6572:6938   */\n      swap2\n      swap1\n      pop\n      jump\t// out\n        /* \"#utility.yul\":6944:7363   */\n    tag_137:\n        /* \"#utility.yul\":7110:7114   */\n      0x00\n        /* \"#utility.yul\":7148:7150   */\n      0x20\n        /* \"#utility.yul\":7137:7146   */\n      dup3\n        /* \"#utility.yul\":7133:7151   */\n      add\n        /* \"#utility.yul\":7125:7151   */\n      swap1\n      pop\n        /* \"#utility.yul\":7197:7206   */\n      dup2\n        /* \"#utility.yul\":7191:7195   */\n      dup2\n        /* \"#utility.yul\":7187:7207   */\n      sub\n        /* \"#utility.yul\":7183:7184   */\n      0x00\n        /* \"#utility.yul\":7172:7181   */\n      dup4\n        /* \"#utility.yul\":7168:7185   */\n      add\n        /* \"#utility.yul\":7161:7208   */\n      mstore\n        /* \"#utility.yul\":7225:7356   */\n      tag_243\n        /* \"#utility.yul\":7351:7355   */\n      dup2\n        /* \"#utility.yul\":7225:7356   */\n      tag_165\n      jump\t// in\n    tag_243:\n        /* \"#utility.yul\":7217:7356   */\n      swap1\n      pop\n        /* \"#utility.yul\":6944:7363   */\n      swap2\n      swap1\n      pop\n      jump\t// out\n        /* \"#utility.yul\":7369:7595   */\n    tag_166:\n        /* \"#utility.yul\":7509:7543   */\n      0x4e6f7420456e6f7567682046756e647320746f207061792046656520666f7220\n        /* \"#utility.yul\":7505:7506   */\n      0x00\n        /* \"#utility.yul\":7497:7503   */\n      dup3\n        /* \"#utility.yul\":7493:7507   */\n      add\n        /* \"#utility.yul\":7486:7544   */\n      mstore\n        /* \"#utility.yul\":7578:7587   */\n      0x63726561746f7200000000000000000000000000000000000000000000000000\n        /* \"#utility.yul\":7573:7575   */\n      0x20\n        /* \"#utility.yul\":7565:7571   */\n      dup3\n        /* \"#utility.yul\":7561:7576   */\n      add\n        /* \"#utility.yul\":7554:7588   */\n      mstore\n        /* \"#utility.yul\":7369:7595   */\n      pop\n      jump\t// out\n        /* \"#utility.yul\":7601:7967   */\n    tag_167:\n        /* \"#utility.yul\":7743:7746   */\n      0x00\n        /* \"#utility.yul\":7764:7831   */\n      tag_246\n        /* \"#utility.yul\":7828:7830   */\n      0x27\n        /* \"#utility.yul\":7823:7826   */\n      dup4\n        /* \"#utility.yul\":7764:7831   */\n      tag_161\n      jump\t// in\n    tag_246:\n        /* \"#utility.yul\":7757:7831   */\n      swap2\n      pop\n        /* \"#utility.yul\":7840:7933   */\n      tag_247\n        /* \"#utility.yul\":7929:7932   */\n      dup3\n        /* \"#utility.yul\":7840:7933   */\n      tag_166\n      jump\t// in\n    tag_247:\n        /* \"#utility.yul\":7958:7960   */\n      0x40\n        /* \"#utility.yul\":7953:7956   */\n      dup3\n        /* \"#utility.yul\":7949:7961   */\n      add\n        /* \"#utility.yul\":7942:7961   */\n      swap1\n      pop\n        /* \"#utility.yul\":7601:7967   */\n      swap2\n      swap1\n      pop\n      jump\t// out\n        /* \"#utility.yul\":7973:8392   */\n    tag_140:\n        /* \"#utility.yul\":8139:8143   */\n      0x00\n        /* \"#utility.yul\":8177:8179   */\n      0x20\n        /* \"#utility.yul\":8166:8175   */\n      dup3\n        /* \"#utility.yul\":8162:8180   */\n      add\n        /* \"#utility.yul\":8154:8180   */\n      swap1\n      pop\n        /* \"#utility.yul\":8226:8235   */\n      dup2\n        /* \"#utility.yul\":8220:8224   */\n      dup2\n        /* \"#utility.yul\":8216:8236   */\n      sub\n        /* \"#utility.yul\":8212:8213   */\n      0x00\n        /* \"#utility.yul\":8201:8210   */\n      dup4\n        /* \"#utility.yul\":8197:8214   */\n      add\n        /* \"#utility.yul\":8190:8237   */\n      mstore\n        /* \"#utility.yul\":8254:8385   */\n      tag_249\n        /* \"#utility.yul\":8380:8384   */\n      dup2\n        /* \"#utility.yul\":8254:8385   */\n      tag_167\n      jump\t// in\n    tag_249:\n        /* \"#utility.yul\":8246:8385   */\n      swap1\n      pop\n        /* \"#utility.yul\":7973:8392   */\n      swap2\n      swap1\n      pop\n      jump\t// out\n\n    auxdata: 0xa26469706673582212206f054c5c57b44bffceac65e0a063ea91c452d7ac5cad318babe2d4c1ce673c0a64736f6c63430008110033\n}\n","bytecode":{"linkReferences":{},"object":"608060405266038d7ea4c6800060015566038d7ea4c6800060025566038d7ea4c6800060035534801561003157600080fd5b506110de806100416000396000f3fe6080604052600436106101095760003560e01c80637646a004116100955780639d7e7d38116100645780639d7e7d38146102e7578063ab033ea914610324578063b69ef8a81461034d578063bc19a00c14610378578063c69c302a1461038257610109565b80637646a0041461022b57806377956347146102565780637c8629e0146102815780638387271c146102aa57610109565b80634b8be7ab116100dc5780634b8be7ab146101695780634d10dcbb1461018557806353822071146101b057806355dfd10c146101d95780635bce54411461020257610109565b806306a5d6421461010e578063189ed356146101395780633ccfd60b1461015557806340c89d161461015f575b600080fd5b34801561011a57600080fd5b506101236103bf565b6040516101309190610c98565b60405180910390f35b610153600480360381019061014e9190610d4c565b610413565b005b61015d610553565b005b610167610734565b005b610183600480360381019061017e9190610d8c565b61075b565b005b34801561019157600080fd5b5061019a610818565b6040516101a79190610dc8565b60405180910390f35b3480156101bc57600080fd5b506101d760048036038101906101d29190610de3565b61081e565b005b3480156101e557600080fd5b5061020060048036038101906101fb9190610de3565b610882565b005b34801561020e57600080fd5b5061022960048036038101906102249190610de3565b6108e6565b005b34801561023757600080fd5b5061024061094a565b60405161024d9190610dc8565b60405180910390f35b34801561026257600080fd5b5061026b610950565b6040516102789190610dc8565b60405180910390f35b34801561028d57600080fd5b506102a860048036038101906102a39190610d8c565b610956565b005b3480156102b657600080fd5b506102d160048036038101906102cc9190610e10565b6109fc565b6040516102de9190610c98565b60405180910390f35b3480156102f357600080fd5b5061030e60048036038101906103099190610d8c565b610a90565b60405161031b9190610dc8565b60405180910390f35b34801561033057600080fd5b5061034b60048036038101906103469190610d8c565b610ad9565b005b34801561035957600080fd5b50610362610b77565b60405161036f9190610dc8565b60405180910390f35b610380610b7d565b005b34801561038e57600080fd5b506103a960048036038101906103a49190610d8c565b610c76565b6040516103b69190610c98565b60405180910390f35b6000600560003373ffffffffffffffffffffffffffffffffffffffff1673ffffffffffffffffffffffffffffffffffffffff16815260200190815260200160002060009054906101000a900460ff16905090565b600860009054906101000a900473ffffffffffffffffffffffffffffffffffffffff1673ffffffffffffffffffffffffffffffffffffffff163373ffffffffffffffffffffffffffffffffffffffff161461046d57600080fd5b80600054101561047c57600080fd5b6000811161048957600080fd5b80600460008473ffffffffffffffffffffffffffffffffffffffff1673ffffffffffffffffffffffffffffffffffffffff16815260200190815260200160002060008282546104d89190610e7f565b92505081905550806000808282546104f09190610eb3565b925050819055506001600560008473ffffffffffffffffffffffffffffffffffffffff1673ffffffffffffffffffffffffffffffffffffffff16815260200190815260200160002060006101000a81548160ff0219169083151502179055505050565b600560003373ffffffffffffffffffffffffffffffffffffffff1673ffffffffffffffffffffffffffffffffffffffff16815260200190815260200160002060009054906101000a900460ff166105a957600080fd5b60003373ffffffffffffffffffffffffffffffffffffffff16600460003373ffffffffffffffffffffffffffffffffffffffff1673ffffffffffffffffffffffffffffffffffffffff1681526020019081526020016000205460405161060e90610f18565b60006040518083038185875af1925050503d806000811461064b576040519150601f19603f3d011682016040523d82523d6000602084013e610650565b606091505b5050905080610694576040517f08c379a000000000000000000000000000000000000000000000000000000000815260040161068b90610f8a565b60405180910390fd5b6000600460003373ffffffffffffffffffffffffffffffffffffffff1673ffffffffffffffffffffffffffffffffffffffff168152602001908152602001600020819055506000600560003373ffffffffffffffffffffffffffffffffffffffff1673ffffffffffffffffffffffffffffffffffffffff16815260200190815260200160002060006101000a81548160ff02191690831515021790555050565b6000341161074157600080fd5b346000808282546107529190610e7f565b92505081905550565b6000341161076857600080fd5b346000808282546107799190610e7f565b925050819055506001600760003373ffffffffffffffffffffffffffffffffffffffff1673ffffffffffffffffffffffffffffffffffffffff16815260200190815260200160002060008373ffffffffffffffffffffffffffffffffffffffff1673ffffffffffffffffffffffffffffffffffffffff16815260200190815260200160002060006101000a81548160ff02191690831515021790555050565b60015481565b600860009054906101000a900473ffffffffffffffffffffffffffffffffffffffff1673ffffffffffffffffffffffffffffffffffffffff163373ffffffffffffffffffffffffffffffffffffffff161461087857600080fd5b8060028190555050565b600860009054906101000a900473ffffffffffffffffffffffffffffffffffffffff1673ffffffffffffffffffffffffffffffffffffffff163373ffffffffffffffffffffffffffffffffffffffff16146108dc57600080fd5b8060018190555050565b600860009054906101000a900473ffffffffffffffffffffffffffffffffffffffff1673ffffffffffffffffffffffffffffffffffffffff163373ffffffffffffffffffffffffffffffffffffffff161461094057600080fd5b8060038190555050565b60025481565b60035481565b6000600660008373ffffffffffffffffffffffffffffffffffffffff1673ffffffffffffffffffffffffffffffffffffffff16815260200190815260200160002054116109a257600080fd5b6001600660008373ffffffffffffffffffffffffffffffffffffffff1673ffffffffffffffffffffffffffffffffffffffff16815260200190815260200160002060008282546109f29190610eb3565b9250508190555050565b6000600760008473ffffffffffffffffffffffffffffffffffffffff1673ffffffffffffffffffffffffffffffffffffffff16815260200190815260200160002060008373ffffffffffffffffffffffffffffffffffffffff1673ffffffffffffffffffffffffffffffffffffffff16815260200190815260200160002060009054906101000a900460ff16905092915050565b6000600460008373ffffffffffffffffffffffffffffffffffffffff1673ffffffffffffffffffffffffffffffffffffffff168152602001908152602001600020549050919050565b600860009054906101000a900473ffffffffffffffffffffffffffffffffffffffff1673ffffffffffffffffffffffffffffffffffffffff163373ffffffffffffffffffffffffffffffffffffffff1614610b3357600080fd5b80600860006101000a81548173ffffffffffffffffffffffffffffffffffffffff021916908373ffffffffffffffffffffffffffffffffffffffff16021790555050565b60005481565b60003411610bc0576040517f08c379a0000000000000000000000000000000000000000000000000000000008152600401610bb790610ff6565b60405180910390fd5b600254341015610c05576040517f08c379a0000000000000000000000000000000000000000000000000000000008152600401610bfc90611088565b60405180910390fd5b34600080828254610c169190610e7f565b925050819055506001600660003373ffffffffffffffffffffffffffffffffffffffff1673ffffffffffffffffffffffffffffffffffffffff1681526020019081526020016000206000828254610c6d9190610e7f565b92505081905550565b6000919050565b60008115159050919050565b610c9281610c7d565b82525050565b6000602082019050610cad6000830184610c89565b92915050565b600080fd5b600073ffffffffffffffffffffffffffffffffffffffff82169050919050565b6000610ce382610cb8565b9050919050565b610cf381610cd8565b8114610cfe57600080fd5b50565b600081359050610d1081610cea565b92915050565b6000819050919050565b610d2981610d16565b8114610d3457600080fd5b50565b600081359050610d4681610d20565b92915050565b60008060408385031215610d6357610d62610cb3565b5b6000610d7185828601610d01565b9250506020610d8285828601610d37565b9150509250929050565b600060208284031215610da257610da1610cb3565b5b6000610db084828501610d01565b91505092915050565b610dc281610d16565b82525050565b6000602082019050610ddd6000830184610db9565b92915050565b600060208284031215610df957610df8610cb3565b5b6000610e0784828501610d37565b91505092915050565b60008060408385031215610e2757610e26610cb3565b5b6000610e3585828601610d01565b9250506020610e4685828601610d01565b9150509250929050565b7f4e487b7100000000000000000000000000000000000000000000000000000000600052601160045260246000fd5b6000610e8a82610d16565b9150610e9583610d16565b9250828201905080821115610ead57610eac610e50565b5b92915050565b6000610ebe82610d16565b9150610ec983610d16565b9250828203905081811115610ee157610ee0610e50565b5b92915050565b600081905092915050565b50565b6000610f02600083610ee7565b9150610f0d82610ef2565b600082019050919050565b6000610f2382610ef5565b9150819050919050565b600082825260208201905092915050565b7f5472616e73616374696f6e204661696c65640000000000000000000000000000600082015250565b6000610f74601283610f2d565b9150610f7f82610f3e565b602082019050919050565b60006020820190508181036000830152610fa381610f67565b9050919050565b7f46656520416d6f756e7420526571756972656400000000000000000000000000600082015250565b6000610fe0601383610f2d565b9150610feb82610faa565b602082019050919050565b6000602082019050818103600083015261100f81610fd3565b9050919050565b7f4e6f7420456e6f7567682046756e647320746f207061792046656520666f722060008201527f63726561746f7200000000000000000000000000000000000000000000000000602082015250565b6000611072602783610f2d565b915061107d82611016565b604082019050919050565b600060208201905081810360008301526110a181611065565b905091905056fea26469706673582212206f054c5c57b44bffceac65e0a063ea91c452d7ac5cad318babe2d4c1ce673c0a64736f6c63430008110033","opcodes":"PUSH1 0x80 PUSH1 0x40 MSTORE PUSH7 0x38D7EA4C68000 PUSH1 0x1 SSTORE PUSH7 0x38D7EA4C68000 PUSH1 0x2 SSTORE PUSH7 0x38D7EA4C68000 PUSH1 0x3 SSTORE CALLVALUE DUP1 ISZERO PUSH2 0x31 JUMPI PUSH1 0x0 DUP1 REVERT JUMPDEST POP PUSH2 0x10DE DUP1 PUSH2 0x41 PUSH1 0x0 CODECOPY PUSH1 0x0 RETURN INVALID PUSH1 0x80 PUSH1 0x40 MSTORE PUSH1 0x4 CALLDATASIZE LT PUSH2 0x109 JUMPI PUSH1 0x0 CALLDATALOAD PUSH1 0xE0 SHR DUP1 PUSH4 0x7646A004 GT PUSH2 0x95 JUMPI DUP1 PUSH4 0x9D7E7D38 GT PUSH2 0x64 JUMPI DUP1 PUSH4 0x9D7E7D38 EQ PUSH2 0x2E7 JUMPI DUP1 PUSH4 0xAB033EA9 EQ PUSH2 0x324 JUMPI DUP1 PUSH4 0xB69EF8A8 EQ PUSH2 0x34D JUMPI DUP1 PUSH4 0xBC19A00C EQ PUSH2 0x378 JUMPI DUP1 PUSH4 0xC69C302A EQ PUSH2 0x382 JUMPI PUSH2 0x109 JUMP JUMPDEST DUP1 PUSH4 0x7646A004 EQ PUSH2 0x22B JUMPI DUP1 PUSH4 0x77956347 EQ PUSH2 0x256 JUMPI DUP1 PUSH4 0x7C8629E0 EQ PUSH2 0x281 JUMPI DUP1 PUSH4 0x8387271C EQ PUSH2 0x2AA JUMPI PUSH2 0x109 JUMP JUMPDEST DUP1 PUSH4 0x4B8BE7AB GT PUSH2 0xDC JUMPI DUP1 PUSH4 0x4B8BE7AB EQ PUSH2 0x169 JUMPI DUP1 PUSH4 0x4D10DCBB EQ PUSH2 0x185 JUMPI DUP1 PUSH4 0x53822071 EQ PUSH2 0x1B0 JUMPI DUP1 PUSH4 0x55DFD10C EQ PUSH2 0x1D9 JUMPI DUP1 PUSH4 0x5BCE5441 EQ PUSH2 0x202 JUMPI PUSH2 0x109 JUMP JUMPDEST DUP1 PUSH4 0x6A5D642 EQ PUSH2 0x10E JUMPI DUP1 PUSH4 0x189ED356 EQ PUSH2 0x139 JUMPI DUP1 PUSH4 0x3CCFD60B EQ PUSH2 0x155 JUMPI DUP1 PUSH4 0x40C89D16 EQ PUSH2 0x15F JUMPI JUMPDEST PUSH1 0x0 DUP1 REVERT JUMPDEST CALLVALUE DUP1 ISZERO PUSH2 0x11A JUMPI PUSH1 0x0 DUP1 REVERT JUMPDEST POP PUSH2 0x123 PUSH2 0x3BF JUMP JUMPDEST PUSH1 0x40 MLOAD PUSH2 0x130 SWAP2 SWAP1 PUSH2 0xC98 JUMP JUMPDEST PUSH1 0x40 MLOAD DUP1 SWAP2 SUB SWAP1 RETURN JUMPDEST PUSH2 0x153 PUSH1 0x4 DUP1 CALLDATASIZE SUB DUP2 ADD SWAP1 PUSH2 0x14E SWAP2 SWAP1 PUSH2 0xD4C JUMP JUMPDEST PUSH2 0x413 JUMP JUMPDEST STOP JUMPDEST PUSH2 0x15D PUSH2 0x553 JUMP JUMPDEST STOP JUMPDEST PUSH2 0x167 PUSH2 0x734 JUMP JUMPDEST STOP JUMPDEST PUSH2 0x183 PUSH1 0x4 DUP1 CALLDATASIZE SUB DUP2 ADD SWAP1 PUSH2 0x17E SWAP2 SWAP1 PUSH2 0xD8C JUMP JUMPDEST PUSH2 0x75B JUMP JUMPDEST STOP JUMPDEST CALLVALUE DUP1 ISZERO PUSH2 0x191 JUMPI PUSH1 0x0 DUP1 REVERT JUMPDEST POP PUSH2 0x19A PUSH2 0x818 JUMP JUMPDEST PUSH1 0x40 MLOAD PUSH2 0x1A7 SWAP2 SWAP1 PUSH2 0xDC8 JUMP JUMPDEST PUSH1 0x40 MLOAD DUP1 SWAP2 SUB SWAP1 RETURN JUMPDEST CALLVALUE DUP1 ISZERO PUSH2 0x1BC JUMPI PUSH1 0x0 DUP1 REVERT JUMPDEST POP PUSH2 0x1D7 PUSH1 0x4 DUP1 CALLDATASIZE SUB DUP2 ADD SWAP1 PUSH2 0x1D2 SWAP2 SWAP1 PUSH2 0xDE3 JUMP JUMPDEST PUSH2 0x81E JUMP JUMPDEST STOP JUMPDEST CALLVALUE DUP1 ISZERO PUSH2 0x1E5 JUMPI PUSH1 0x0 DUP1 REVERT JUMPDEST POP PUSH2 0x200 PUSH1 0x4 DUP1 CALLDATASIZE SUB DUP2 ADD SWAP1 PUSH2 0x1FB SWAP2 SWAP1 PUSH2 0xDE3 JUMP JUMPDEST PUSH2 0x882 JUMP JUMPDEST STOP JUMPDEST CALLVALUE DUP1 ISZERO PUSH2 0x20E JUMPI PUSH1 0x0 DUP1 REVERT JUMPDEST POP PUSH2 0x229 PUSH1 0x4 DUP1 CALLDATASIZE SUB DUP2 ADD SWAP1 PUSH2 0x224 SWAP2 SWAP1 PUSH2 0xDE3 JUMP JUMPDEST PUSH2 0x8E6 JUMP JUMPDEST STOP JUMPDEST CALLVALUE DUP1 ISZERO PUSH2 0x237 JUMPI PUSH1 0x0 DUP1 REVERT JUMPDEST POP PUSH2 0x240 PUSH2 0x94A JUMP JUMPDEST PUSH1 0x40 MLOAD PUSH2 0x24D SWAP2 SWAP1 PUSH2 0xDC8 JUMP JUMPDEST PUSH1 0x40 MLOAD DUP1 SWAP2 SUB SWAP1 RETURN JUMPDEST CALLVALUE DUP1 ISZERO PUSH2 0x262 JUMPI PUSH1 0x0 DUP1 REVERT JUMPDEST POP PUSH2 0x26B PUSH2 0x950 JUMP JUMPDEST PUSH1 0x40 MLOAD PUSH2 0x278 SWAP2 SWAP1 PUSH2 0xDC8 JUMP JUMPDEST PUSH1 0x40 MLOAD DUP1 SWAP2 SUB SWAP1 RETURN JUMPDEST CALLVALUE DUP1 ISZERO PUSH2 0x28D JUMPI PUSH1 0x0 DUP1 REVERT JUMPDEST POP PUSH2 0x2A8 PUSH1 0x4 DUP1 CALLDATASIZE SUB DUP2 ADD SWAP1 PUSH2 0x2A3 SWAP2 SWAP1 PUSH2 0xD8C JUMP JUMPDEST PUSH2 0x956 JUMP JUMPDEST STOP JUMPDEST CALLVALUE DUP1 ISZERO PUSH2 0x2B6 JUMPI PUSH1 0x0 DUP1 REVERT JUMPDEST POP PUSH2 0x2D1 PUSH1 0x4 DUP1 CALLDATASIZE SUB DUP2 ADD SWAP1 PUSH2 0x2CC SWAP2 SWAP1 PUSH2 0xE10 JUMP JUMPDEST PUSH2 0x9FC JUMP JUMPDEST PUSH1 0x40 MLOAD PUSH2 0x2DE SWAP2 SWAP1 PUSH2 0xC98 JUMP JUMPDEST PUSH1 0x40 MLOAD DUP1 SWAP2 SUB SWAP1 RETURN JUMPDEST CALLVALUE DUP1 ISZERO PUSH2 0x2F3 JUMPI PUSH1 0x0 DUP1 REVERT JUMPDEST POP PUSH2 0x30E PUSH1 0x4 DUP1 CALLDATASIZE SUB DUP2 ADD SWAP1 PUSH2 0x309 SWAP2 SWAP1 PUSH2 0xD8C JUMP JUMPDEST PUSH2 0xA90 JUMP JUMPDEST PUSH1 0x40 MLOAD PUSH2 0x31B SWAP2 SWAP1 PUSH2 0xDC8 JUMP JUMPDEST PUSH1 0x40 MLOAD DUP1 SWAP2 SUB SWAP1 RETURN JUMPDEST CALLVALUE DUP1 ISZERO PUSH2 0x330 JUMPI PUSH1 0x0 DUP1 REVERT JUMPDEST POP PUSH2 0x34B PUSH1 0x4 DUP1 CALLDATASIZE SUB DUP2 ADD SWAP1 PUSH2 0x346 SWAP2 SWAP1 PUSH2 0xD8C JUMP JUMPDEST PUSH2 0xAD9 JUMP JUMPDEST STOP JUMPDEST CALLVALUE DUP1 ISZERO PUSH2 0x359 JUMPI PUSH1 0x0 DUP1 REVERT JUMPDEST POP PUSH2 0x362 PUSH2 0xB77 JUMP JUMPDEST PUSH1 0x40 MLOAD PUSH2 0x36F SWAP2 SWAP1 PUSH2 0xDC8 JUMP JUMPDEST PUSH1 0x40 MLOAD DUP1 SWAP2 SUB SWAP1 RETURN JUMPDEST PUSH2 0x380 PUSH2 0xB7D JUMP JUMPDEST STOP JUMPDEST CALLVALUE DUP1 ISZERO PUSH2 0x38E JUMPI PUSH1 0x0 DUP1 REVERT JUMPDEST POP PUSH2 0x3A9 PUSH1 0x4 DUP1 CALLDATASIZE SUB DUP2 ADD SWAP1 PUSH2 0x3A4 SWAP2 SWAP1 PUSH2 0xD8C JUMP JUMPDEST PUSH2 0xC76 JUMP JUMPDEST PUSH1 0x40 MLOAD PUSH2 0x3B6 SWAP2 SWAP1 PUSH2 0xC98 JUMP JUMPDEST PUSH1 0x40 MLOAD DUP1 SWAP2 SUB SWAP1 RETURN JUMPDEST PUSH1 0x0 PUSH1 0x5 PUSH1 0x0 CALLER PUSH20 0xFFFFFFFFFFFFFFFFFFFFFFFFFFFFFFFFFFFFFFFF AND PUSH20 0xFFFFFFFFFFFFFFFFFFFFFFFFFFFFFFFFFFFFFFFF AND DUP2 MSTORE PUSH1 0x20 ADD SWAP1 DUP2 MSTORE PUSH1 0x20 ADD PUSH1 0x0 KECCAK256 PUSH1 0x0 SWAP1 SLOAD SWAP1 PUSH2 0x100 EXP SWAP1 DIV PUSH1 0xFF AND SWAP1 POP SWAP1 JUMP JUMPDEST PUSH1 0x8 PUSH1 0x0 SWAP1 SLOAD SWAP1 PUSH2 0x100 EXP SWAP1 DIV PUSH20 0xFFFFFFFFFFFFFFFFFFFFFFFFFFFFFFFFFFFFFFFF AND PUSH20 0xFFFFFFFFFFFFFFFFFFFFFFFFFFFFFFFFFFFFFFFF AND CALLER PUSH20 0xFFFFFFFFFFFFFFFFFFFFFFFFFFFFFFFFFFFFFFFF AND EQ PUSH2 0x46D JUMPI PUSH1 0x0 DUP1 REVERT JUMPDEST DUP1 PUSH1 0x0 SLOAD LT ISZERO PUSH2 0x47C JUMPI PUSH1 0x0 DUP1 REVERT JUMPDEST PUSH1 0x0 DUP2 GT PUSH2 0x489 JUMPI PUSH1 0x0 DUP1 REVERT JUMPDEST DUP1 PUSH1 0x4 PUSH1 0x0 DUP5 PUSH20 0xFFFFFFFFFFFFFFFFFFFFFFFFFFFFFFFFFFFFFFFF AND PUSH20 0xFFFFFFFFFFFFFFFFFFFFFFFFFFFFFFFFFFFFFFFF AND DUP2 MSTORE PUSH1 0x20 ADD SWAP1 DUP2 MSTORE PUSH1 0x20 ADD PUSH1 0x0 KECCAK256 PUSH1 0x0 DUP3 DUP3 SLOAD PUSH2 0x4D8 SWAP2 SWAP1 PUSH2 0xE7F JUMP JUMPDEST SWAP3 POP POP DUP2 SWAP1 SSTORE POP DUP1 PUSH1 0x0 DUP1 DUP3 DUP3 SLOAD PUSH2 0x4F0 SWAP2 SWAP1 PUSH2 0xEB3 JUMP JUMPDEST SWAP3 POP POP DUP2 SWAP1 SSTORE POP PUSH1 0x1 PUSH1 0x5 PUSH1 0x0 DUP5 PUSH20 0xFFFFFFFFFFFFFFFFFFFFFFFFFFFFFFFFFFFFFFFF AND PUSH20 0xFFFFFFFFFFFFFFFFFFFFFFFFFFFFFFFFFFFFFFFF AND DUP2 MSTORE PUSH1 0x20 ADD SWAP1 DUP2 MSTORE PUSH1 0x20 ADD PUSH1 0x0 KECCAK256 PUSH1 0x0 PUSH2 0x100 EXP DUP2 SLOAD DUP2 PUSH1 0xFF MUL NOT AND SWAP1 DUP4 ISZERO ISZERO MUL OR SWAP1 SSTORE POP POP POP JUMP JUMPDEST PUSH1 0x5 PUSH1 0x0 CALLER PUSH20 0xFFFFFFFFFFFFFFFFFFFFFFFFFFFFFFFFFFFFFFFF AND PUSH20 0xFFFFFFFFFFFFFFFFFFFFFFFFFFFFFFFFFFFFFFFF AND DUP2 MSTORE PUSH1 0x20 ADD SWAP1 DUP2 MSTORE PUSH1 0x20 ADD PUSH1 0x0 KECCAK256 PUSH1 0x0 SWAP1 SLOAD SWAP1 PUSH2 0x100 EXP SWAP1 DIV PUSH1 0xFF AND PUSH2 0x5A9 JUMPI PUSH1 0x0 DUP1 REVERT JUMPDEST PUSH1 0x0 CALLER PUSH20 0xFFFFFFFFFFFFFFFFFFFFFFFFFFFFFFFFFFFFFFFF AND PUSH1 0x4 PUSH1 0x0 CALLER PUSH20 0xFFFFFFFFFFFFFFFFFFFFFFFFFFFFFFFFFFFFFFFF AND PUSH20 0xFFFFFFFFFFFFFFFFFFFFFFFFFFFFFFFFFFFFFFFF AND DUP2 MSTORE PUSH1 0x20 ADD SWAP1 DUP2 MSTORE PUSH1 0x20 ADD PUSH1 0x0 KECCAK256 SLOAD PUSH1 0x40 MLOAD PUSH2 0x60E SWAP1 PUSH2 0xF18 JUMP JUMPDEST PUSH1 0x0 PUSH1 0x40 MLOAD DUP1 DUP4 SUB DUP2 DUP6 DUP8 GAS CALL SWAP3 POP POP POP RETURNDATASIZE DUP1 PUSH1 0x0 DUP2 EQ PUSH2 0x64B JUMPI PUSH1 0x40 MLOAD SWAP2 POP PUSH1 0x1F NOT PUSH1 0x3F RETURNDATASIZE ADD AND DUP3 ADD PUSH1 0x40 MSTORE RETURNDATASIZE DUP3 MSTORE RETURNDATASIZE PUSH1 0x0 PUSH1 0x20 DUP5 ADD RETURNDATACOPY PUSH2 0x650 JUMP JUMPDEST PUSH1 0x60 SWAP2 POP JUMPDEST POP POP SWAP1 POP DUP1 PUSH2 0x694 JUMPI PUSH1 0x40 MLOAD PUSH32 0x8C379A000000000000000000000000000000000000000000000000000000000 DUP2 MSTORE PUSH1 0x4 ADD PUSH2 0x68B SWAP1 PUSH2 0xF8A JUMP JUMPDEST PUSH1 0x40 MLOAD DUP1 SWAP2 SUB SWAP1 REVERT JUMPDEST PUSH1 0x0 PUSH1 0x4 PUSH1 0x0 CALLER PUSH20 0xFFFFFFFFFFFFFFFFFFFFFFFFFFFFFFFFFFFFFFFF AND PUSH20 0xFFFFFFFFFFFFFFFFFFFFFFFFFFFFFFFFFFFFFFFF AND DUP2 MSTORE PUSH1 0x20 ADD SWAP1 DUP2 MSTORE PUSH1 0x20 ADD PUSH1 0x0 KECCAK256 DUP2 SWAP1 SSTORE POP PUSH1 0x0 PUSH1 0x5 PUSH1 0x0 CALLER PUSH20 0xFFFFFFFFFFFFFFFFFFFFFFFFFFFFFFFFFFFFFFFF AND PUSH20 0xFFFFFFFFFFFFFFFFFFFFFFFFFFFFFFFFFFFFFFFF AND DUP2 MSTORE PUSH1 0x20 ADD SWAP1 DUP2 MSTORE PUSH1 0x20 ADD PUSH1 0x0 KECCAK256 PUSH1 0x0 PUSH2 0x100 EXP DUP2 SLOAD DUP2 PUSH1 0xFF MUL NOT AND SWAP1 DUP4 ISZERO ISZERO MUL OR SWAP1 SSTORE POP POP JUMP JUMPDEST PUSH1 0x0 CALLVALUE GT PUSH2 0x741 JUMPI PUSH1 0x0 DUP1 REVERT JUMPDEST CALLVALUE PUSH1 0x0 DUP1 DUP3 DUP3 SLOAD PUSH2 0x752 SWAP2 SWAP1 PUSH2 0xE7F JUMP JUMPDEST SWAP3 POP POP DUP2 SWAP1 SSTORE POP JUMP JUMPDEST PUSH1 0x0 CALLVALUE GT PUSH2 0x768 JUMPI PUSH1 0x0 DUP1 REVERT JUMPDEST CALLVALUE PUSH1 0x0 DUP1 DUP3 DUP3 SLOAD PUSH2 0x779 SWAP2 SWAP1 PUSH2 0xE7F JUMP JUMPDEST SWAP3 POP POP DUP2 SWAP1 SSTORE POP PUSH1 0x1 PUSH1 0x7 PUSH1 0x0 CALLER PUSH20 0xFFFFFFFFFFFFFFFFFFFFFFFFFFFFFFFFFFFFFFFF AND PUSH20 0xFFFFFFFFFFFFFFFFFFFFFFFFFFFFFFFFFFFFFFFF AND DUP2 MSTORE PUSH1 0x20 ADD SWAP1 DUP2 MSTORE PUSH1 0x20 ADD PUSH1 0x0 KECCAK256 PUSH1 0x0 DUP4 PUSH20 0xFFFFFFFFFFFFFFFFFFFFFFFFFFFFFFFFFFFFFFFF AND PUSH20 0xFFFFFFFFFFFFFFFFFFFFFFFFFFFFFFFFFFFFFFFF AND DUP2 MSTORE PUSH1 0x20 ADD SWAP1 DUP2 MSTORE PUSH1 0x20 ADD PUSH1 0x0 KECCAK256 PUSH1 0x0 PUSH2 0x100 EXP DUP2 SLOAD DUP2 PUSH1 0xFF MUL NOT AND SWAP1 DUP4 ISZERO ISZERO MUL OR SWAP1 SSTORE POP POP JUMP JUMPDEST PUSH1 0x1 SLOAD DUP2 JUMP JUMPDEST PUSH1 0x8 PUSH1 0x0 SWAP1 SLOAD SWAP1 PUSH2 0x100 EXP SWAP1 DIV PUSH20 0xFFFFFFFFFFFFFFFFFFFFFFFFFFFFFFFFFFFFFFFF AND PUSH20 0xFFFFFFFFFFFFFFFFFFFFFFFFFFFFFFFFFFFFFFFF AND CALLER PUSH20 0xFFFFFFFFFFFFFFFFFFFFFFFFFFFFFFFFFFFFFFFF AND EQ PUSH2 0x878 JUMPI PUSH1 0x0 DUP1 REVERT JUMPDEST DUP1 PUSH1 0x2 DUP2 SWAP1 SSTORE POP POP JUMP JUMPDEST PUSH1 0x8 PUSH1 0x0 SWAP1 SLOAD SWAP1 PUSH2 0x100 EXP SWAP1 DIV PUSH20 0xFFFFFFFFFFFFFFFFFFFFFFFFFFFFFFFFFFFFFFFF AND PUSH20 0xFFFFFFFFFFFFFFFFFFFFFFFFFFFFFFFFFFFFFFFF AND CALLER PUSH20 0xFFFFFFFFFFFFFFFFFFFFFFFFFFFFFFFFFFFFFFFF AND EQ PUSH2 0x8DC JUMPI PUSH1 0x0 DUP1 REVERT JUMPDEST DUP1 PUSH1 0x1 DUP2 SWAP1 SSTORE POP POP JUMP JUMPDEST PUSH1 0x8 PUSH1 0x0 SWAP1 SLOAD SWAP1 PUSH2 0x100 EXP SWAP1 DIV PUSH20 0xFFFFFFFFFFFFFFFFFFFFFFFFFFFFFFFFFFFFFFFF AND PUSH20 0xFFFFFFFFFFFFFFFFFFFFFFFFFFFFFFFFFFFFFFFF AND CALLER PUSH20 0xFFFFFFFFFFFFFFFFFFFFFFFFFFFFFFFFFFFFFFFF AND EQ PUSH2 0x940 JUMPI PUSH1 0x0 DUP1 REVERT JUMPDEST DUP1 PUSH1 0x3 DUP2 SWAP1 SSTORE POP POP JUMP JUMPDEST PUSH1 0x2 SLOAD DUP2 JUMP JUMPDEST PUSH1 0x3 SLOAD DUP2 JUMP JUMPDEST PUSH1 0x0 PUSH1 0x6 PUSH1 0x0 DUP4 PUSH20 0xFFFFFFFFFFFFFFFFFFFFFFFFFFFFFFFFFFFFFFFF AND PUSH20 0xFFFFFFFFFFFFFFFFFFFFFFFFFFFFFFFFFFFFFFFF AND DUP2 MSTORE PUSH1 0x20 ADD SWAP1 DUP2 MSTORE PUSH1 0x20 ADD PUSH1 0x0 KECCAK256 SLOAD GT PUSH2 0x9A2 JUMPI PUSH1 0x0 DUP1 REVERT JUMPDEST PUSH1 0x1 PUSH1 0x6 PUSH1 0x0 DUP4 PUSH20 0xFFFFFFFFFFFFFFFFFFFFFFFFFFFFFFFFFFFFFFFF AND PUSH20 0xFFFFFFFFFFFFFFFFFFFFFFFFFFFFFFFFFFFFFFFF AND DUP2 MSTORE PUSH1 0x20 ADD SWAP1 DUP2 MSTORE PUSH1 0x20 ADD PUSH1 0x0 KECCAK256 PUSH1 0x0 DUP3 DUP3 SLOAD PUSH2 0x9F2 SWAP2 SWAP1 PUSH2 0xEB3 JUMP JUMPDEST SWAP3 POP POP DUP2 SWAP1 SSTORE POP POP JUMP JUMPDEST PUSH1 0x0 PUSH1 0x7 PUSH1 0x0 DUP5 PUSH20 0xFFFFFFFFFFFFFFFFFFFFFFFFFFFFFFFFFFFFFFFF AND PUSH20 0xFFFFFFFFFFFFFFFFFFFFFFFFFFFFFFFFFFFFFFFF AND DUP2 MSTORE PUSH1 0x20 ADD SWAP1 DUP2 MSTORE PUSH1 0x20 ADD PUSH1 0x0 KECCAK256 PUSH1 0x0 DUP4 PUSH20 0xFFFFFFFFFFFFFFFFFFFFFFFFFFFFFFFFFFFFFFFF AND PUSH20 0xFFFFFFFFFFFFFFFFFFFFFFFFFFFFFFFFFFFFFFFF AND DUP2 MSTORE PUSH1 0x20 ADD SWAP1 DUP2 MSTORE PUSH1 0x20 ADD PUSH1 0x0 KECCAK256 PUSH1 0x0 SWAP1 SLOAD SWAP1 PUSH2 0x100 EXP SWAP1 DIV PUSH1 0xFF AND SWAP1 POP SWAP3 SWAP2 POP POP JUMP JUMPDEST PUSH1 0x0 PUSH1 0x4 PUSH1 0x0 DUP4 PUSH20 0xFFFFFFFFFFFFFFFFFFFFFFFFFFFFFFFFFFFFFFFF AND PUSH20 0xFFFFFFFFFFFFFFFFFFFFFFFFFFFFFFFFFFFFFFFF AND DUP2 MSTORE PUSH1 0x20 ADD SWAP1 DUP2 MSTORE PUSH1 0x20 ADD PUSH1 0x0 KECCAK256 SLOAD SWAP1 POP SWAP2 SWAP1 POP JUMP JUMPDEST PUSH1 0x8 PUSH1 0x0 SWAP1 SLOAD SWAP1 PUSH2 0x100 EXP SWAP1 DIV PUSH20 0xFFFFFFFFFFFFFFFFFFFFFFFFFFFFFFFFFFFFFFFF AND PUSH20 0xFFFFFFFFFFFFFFFFFFFFFFFFFFFFFFFFFFFFFFFF AND CALLER PUSH20 0xFFFFFFFFFFFFFFFFFFFFFFFFFFFFFFFFFFFFFFFF AND EQ PUSH2 0xB33 JUMPI PUSH1 0x0 DUP1 REVERT JUMPDEST DUP1 PUSH1 0x8 PUSH1 0x0 PUSH2 0x100 EXP DUP2 SLOAD DUP2 PUSH20 0xFFFFFFFFFFFFFFFFFFFFFFFFFFFFFFFFFFFFFFFF MUL NOT AND SWAP1 DUP4 PUSH20 0xFFFFFFFFFFFFFFFFFFFFFFFFFFFFFFFFFFFFFFFF AND MUL OR SWAP1 SSTORE POP POP JUMP JUMPDEST PUSH1 0x0 SLOAD DUP2 JUMP JUMPDEST PUSH1 0x0 CALLVALUE GT PUSH2 0xBC0 JUMPI PUSH1 0x40 MLOAD PUSH32 0x8C379A000000000000000000000000000000000000000000000000000000000 DUP2 MSTORE PUSH1 0x4 ADD PUSH2 0xBB7 SWAP1 PUSH2 0xFF6 JUMP JUMPDEST PUSH1 0x40 MLOAD DUP1 SWAP2 SUB SWAP1 REVERT JUMPDEST PUSH1 0x2 SLOAD CALLVALUE LT ISZERO PUSH2 0xC05 JUMPI PUSH1 0x40 MLOAD PUSH32 0x8C379A000000000000000000000000000000000000000000000000000000000 DUP2 MSTORE PUSH1 0x4 ADD PUSH2 0xBFC SWAP1 PUSH2 0x1088 JUMP JUMPDEST PUSH1 0x40 MLOAD DUP1 SWAP2 SUB SWAP1 REVERT JUMPDEST CALLVALUE PUSH1 0x0 DUP1 DUP3 DUP3 SLOAD PUSH2 0xC16 SWAP2 SWAP1 PUSH2 0xE7F JUMP JUMPDEST SWAP3 POP POP DUP2 SWAP1 SSTORE POP PUSH1 0x1 PUSH1 0x6 PUSH1 0x0 CALLER PUSH20 0xFFFFFFFFFFFFFFFFFFFFFFFFFFFFFFFFFFFFFFFF AND PUSH20 0xFFFFFFFFFFFFFFFFFFFFFFFFFFFFFFFFFFFFFFFF AND DUP2 MSTORE PUSH1 0x20 ADD SWAP1 DUP2 MSTORE PUSH1 0x20 ADD PUSH1 0x0 KECCAK256 PUSH1 0x0 DUP3 DUP3 SLOAD PUSH2 0xC6D SWAP2 SWAP1 PUSH2 0xE7F JUMP JUMPDEST SWAP3 POP POP DUP2 SWAP1 SSTORE POP JUMP JUMPDEST PUSH1 0x0 SWAP2 SWAP1 POP JUMP JUMPDEST PUSH1 0x0 DUP2 ISZERO ISZERO SWAP1 POP SWAP2 SWAP1 POP JUMP JUMPDEST PUSH2 0xC92 DUP2 PUSH2 0xC7D JUMP JUMPDEST DUP3 MSTORE POP POP JUMP JUMPDEST PUSH1 0x0 PUSH1 0x20 DUP3 ADD SWAP1 POP PUSH2 0xCAD PUSH1 0x0 DUP4 ADD DUP5 PUSH2 0xC89 JUMP JUMPDEST SWAP3 SWAP2 POP POP JUMP JUMPDEST PUSH1 0x0 DUP1 REVERT JUMPDEST PUSH1 0x0 PUSH20 0xFFFFFFFFFFFFFFFFFFFFFFFFFFFFFFFFFFFFFFFF DUP3 AND SWAP1 POP SWAP2 SWAP1 POP JUMP JUMPDEST PUSH1 0x0 PUSH2 0xCE3 DUP3 PUSH2 0xCB8 JUMP JUMPDEST SWAP1 POP SWAP2 SWAP1 POP JUMP JUMPDEST PUSH2 0xCF3 DUP2 PUSH2 0xCD8 JUMP JUMPDEST DUP2 EQ PUSH2 0xCFE JUMPI PUSH1 0x0 DUP1 REVERT JUMPDEST POP JUMP JUMPDEST PUSH1 0x0 DUP2 CALLDATALOAD SWAP1 POP PUSH2 0xD10 DUP2 PUSH2 0xCEA JUMP JUMPDEST SWAP3 SWAP2 POP POP JUMP JUMPDEST PUSH1 0x0 DUP2 SWAP1 POP SWAP2 SWAP1 POP JUMP JUMPDEST PUSH2 0xD29 DUP2 PUSH2 0xD16 JUMP JUMPDEST DUP2 EQ PUSH2 0xD34 JUMPI PUSH1 0x0 DUP1 REVERT JUMPDEST POP JUMP JUMPDEST PUSH1 0x0 DUP2 CALLDATALOAD SWAP1 POP PUSH2 0xD46 DUP2 PUSH2 0xD20 JUMP JUMPDEST SWAP3 SWAP2 POP POP JUMP JUMPDEST PUSH1 0x0 DUP1 PUSH1 0x40 DUP4 DUP6 SUB SLT ISZERO PUSH2 0xD63 JUMPI PUSH2 0xD62 PUSH2 0xCB3 JUMP JUMPDEST JUMPDEST PUSH1 0x0 PUSH2 0xD71 DUP6 DUP3 DUP7 ADD PUSH2 0xD01 JUMP JUMPDEST SWAP3 POP POP PUSH1 0x20 PUSH2 0xD82 DUP6 DUP3 DUP7 ADD PUSH2 0xD37 JUMP JUMPDEST SWAP2 POP POP SWAP3 POP SWAP3 SWAP1 POP JUMP JUMPDEST PUSH1 0x0 PUSH1 0x20 DUP3 DUP5 SUB SLT ISZERO PUSH2 0xDA2 JUMPI PUSH2 0xDA1 PUSH2 0xCB3 JUMP JUMPDEST JUMPDEST PUSH1 0x0 PUSH2 0xDB0 DUP5 DUP3 DUP6 ADD PUSH2 0xD01 JUMP JUMPDEST SWAP2 POP POP SWAP3 SWAP2 POP POP JUMP JUMPDEST PUSH2 0xDC2 DUP2 PUSH2 0xD16 JUMP JUMPDEST DUP3 MSTORE POP POP JUMP JUMPDEST PUSH1 0x0 PUSH1 0x20 DUP3 ADD SWAP1 POP PUSH2 0xDDD PUSH1 0x0 DUP4 ADD DUP5 PUSH2 0xDB9 JUMP JUMPDEST SWAP3 SWAP2 POP POP JUMP JUMPDEST PUSH1 0x0 PUSH1 0x20 DUP3 DUP5 SUB SLT ISZERO PUSH2 0xDF9 JUMPI PUSH2 0xDF8 PUSH2 0xCB3 JUMP JUMPDEST JUMPDEST PUSH1 0x0 PUSH2 0xE07 DUP5 DUP3 DUP6 ADD PUSH2 0xD37 JUMP JUMPDEST SWAP2 POP POP SWAP3 SWAP2 POP POP JUMP JUMPDEST PUSH1 0x0 DUP1 PUSH1 0x40 DUP4 DUP6 SUB SLT ISZERO PUSH2 0xE27 JUMPI PUSH2 0xE26 PUSH2 0xCB3 JUMP JUMPDEST JUMPDEST PUSH1 0x0 PUSH2 0xE35 DUP6 DUP3 DUP7 ADD PUSH2 0xD01 JUMP JUMPDEST SWAP3 POP POP PUSH1 0x20 PUSH2 0xE46 DUP6 DUP3 DUP7 ADD PUSH2 0xD01 JUMP JUMPDEST SWAP2 POP POP SWAP3 POP SWAP3 SWAP1 POP JUMP JUMPDEST PUSH32 0x4E487B7100000000000000000000000000000000000000000000000000000000 PUSH1 0x0 MSTORE PUSH1 0x11 PUSH1 0x4 MSTORE PUSH1 0x24 PUSH1 0x0 REVERT JUMPDEST PUSH1 0x0 PUSH2 0xE8A DUP3 PUSH2 0xD16 JUMP JUMPDEST SWAP2 POP PUSH2 0xE95 DUP4 PUSH2 0xD16 JUMP JUMPDEST SWAP3 POP DUP3 DUP3 ADD SWAP1 POP DUP1 DUP3 GT ISZERO PUSH2 0xEAD JUMPI PUSH2 0xEAC PUSH2 0xE50 JUMP JUMPDEST JUMPDEST SWAP3 SWAP2 POP POP JUMP JUMPDEST PUSH1 0x0 PUSH2 0xEBE DUP3 PUSH2 0xD16 JUMP JUMPDEST SWAP2 POP PUSH2 0xEC9 DUP4 PUSH2 0xD16 JUMP JUMPDEST SWAP3 POP DUP3 DUP3 SUB SWAP1 POP DUP2 DUP2 GT ISZERO PUSH2 0xEE1 JUMPI PUSH2 0xEE0 PUSH2 0xE50 JUMP JUMPDEST JUMPDEST SWAP3 SWAP2 POP POP JUMP JUMPDEST PUSH1 0x0 DUP2 SWAP1 POP SWAP3 SWAP2 POP POP JUMP JUMPDEST POP JUMP JUMPDEST PUSH1 0x0 PUSH2 0xF02 PUSH1 0x0 DUP4 PUSH2 0xEE7 JUMP JUMPDEST SWAP2 POP PUSH2 0xF0D DUP3 PUSH2 0xEF2 JUMP JUMPDEST PUSH1 0x0 DUP3 ADD SWAP1 POP SWAP2 SWAP1 POP JUMP JUMPDEST PUSH1 0x0 PUSH2 0xF23 DUP3 PUSH2 0xEF5 JUMP JUMPDEST SWAP2 POP DUP2 SWAP1 POP SWAP2 SWAP1 POP JUMP JUMPDEST PUSH1 0x0 DUP3 DUP3 MSTORE PUSH1 0x20 DUP3 ADD SWAP1 POP SWAP3 SWAP2 POP POP JUMP JUMPDEST PUSH32 0x5472616E73616374696F6E204661696C65640000000000000000000000000000 PUSH1 0x0 DUP3 ADD MSTORE POP JUMP JUMPDEST PUSH1 0x0 PUSH2 0xF74 PUSH1 0x12 DUP4 PUSH2 0xF2D JUMP JUMPDEST SWAP2 POP PUSH2 0xF7F DUP3 PUSH2 0xF3E JUMP JUMPDEST PUSH1 0x20 DUP3 ADD SWAP1 POP SWAP2 SWAP1 POP JUMP JUMPDEST PUSH1 0x0 PUSH1 0x20 DUP3 ADD SWAP1 POP DUP2 DUP2 SUB PUSH1 0x0 DUP4 ADD MSTORE PUSH2 0xFA3 DUP2 PUSH2 0xF67 JUMP JUMPDEST SWAP1 POP SWAP2 SWAP1 POP JUMP JUMPDEST PUSH32 0x46656520416D6F756E7420526571756972656400000000000000000000000000 PUSH1 0x0 DUP3 ADD MSTORE POP JUMP JUMPDEST PUSH1 0x0 PUSH2 0xFE0 PUSH1 0x13 DUP4 PUSH2 0xF2D JUMP JUMPDEST SWAP2 POP PUSH2 0xFEB DUP3 PUSH2 0xFAA JUMP JUMPDEST PUSH1 0x20 DUP3 ADD SWAP1 POP SWAP2 SWAP1 POP JUMP JUMPDEST PUSH1 0x0 PUSH1 0x20 DUP3 ADD SWAP1 POP DUP2 DUP2 SUB PUSH1 0x0 DUP4 ADD MSTORE PUSH2 0x100F DUP2 PUSH2 0xFD3 JUMP JUMPDEST SWAP1 POP SWAP2 SWAP1 POP JUMP JUMPDEST PUSH32 0x4E6F7420456E6F7567682046756E647320746F207061792046656520666F7220 PUSH1 0x0 DUP3 ADD MSTORE PUSH32 0x63726561746F7200000000000000000000000000000000000000000000000000 PUSH1 0x20 DUP3 ADD MSTORE POP JUMP JUMPDEST PUSH1 0x0 PUSH2 0x1072 PUSH1 0x27 DUP4 PUSH2 0xF2D JUMP JUMPDEST SWAP2 POP PUSH2 0x107D DUP3 PUSH2 0x1016 JUMP JUMPDEST PUSH1 0x40 DUP3 ADD SWAP1 POP SWAP2 SWAP1 POP JUMP JUMPDEST PUSH1 0x0 PUSH1 0x20 DUP3 ADD SWAP1 POP DUP2 DUP2 SUB PUSH1 0x0 DUP4 ADD MSTORE PUSH2 0x10A1 DUP2 PUSH2 0x1065 JUMP JUMPDEST SWAP1 POP SWAP2 SWAP1 POP JUMP INVALID LOG2 PUSH5 0x6970667358 0x22 SLT KECCAK256 PUSH16 0x54C5C57B44BFFCEAC65E0A063EA91C4 MSTORE 0xD7 0xAC 0x5C 0xAD BALANCE DUP12 0xAB 0xE2 0xD4 0xC1 0xCE PUSH8 0x3C0A64736F6C6343 STOP ADDMOD GT STOP CALLER "},"gasEstimates":{"creation":{"codeDepositCost":"863600","executionCost":"67214","totalCost":"930814"},"external":{"allocateFunds(address,uint256)":"infinite","balance()":"2495","canCreatePool(address)":"759","didPayApplicantFee(address,address)":"infinite","getMemberAllocation(address)":"2863","hasAllocation()":"2592","newApplicantFee()":"2474","newPoolFee()":"2452","newProposalFee()":"2474","payCreatorFee()":"infinite","payNewApplicantFee(address)":"infinite","payNewProposalFee()":"infinite","setGovernance(address)":"26936","setNewApplicantFee(uint256)":"24779","setNewPoolFee(uint256)":"24757","setNewProposalFee(uint256)":"24801","spendOneCreateToken(address)":"infinite","withdraw()":"infinite"}},"methodIdentifiers":{"allocateFunds(address,uint256)":"189ed356","balance()":"b69ef8a8","canCreatePool(address)":"c69c302a","didPayApplicantFee(address,address)":"8387271c","getMemberAllocation(address)":"9d7e7d38","hasAllocation()":"06a5d642","newApplicantFee()":"4d10dcbb","newPoolFee()":"7646a004","newProposalFee()":"77956347","payCreatorFee()":"bc19a00c","payNewApplicantFee(address)":"4b8be7ab","payNewProposalFee()":"40c89d16","setGovernance(address)":"ab033ea9","setNewApplicantFee(uint256)":"55dfd10c","setNewPoolFee(uint256)":"53822071","setNewProposalFee(uint256)":"5bce5441","spendOneCreateToken(address)":"7c8629e0","withdraw()":"3ccfd60b"}},"storageLayout":{"storage":[{"astId":2012,"contract":"Treasury.sol:Treasury","label":"balance","offset":0,"slot":"0","type":"t_uint256"},{"astId":2015,"contract":"Treasury.sol:Treasury","label":"newApplicantFee","offset":0,"slot":"1","type":"t_uint256"},{"astId":2018,"contract":"Treasury.sol:Treasury","label":"newPoolFee","offset":0,"slot":"2","type":"t_uint256"},{"astId":2021,"contract":"Treasury.sol:Treasury","label":"newProposalFee","offset":0,"slot":"3","type":"t_uint256"},{"astId":2025,"contract":"Treasury.sol:Treasury","label":"memberAllocation","offset":0,"slot":"4","type":"t_mapping(t_address,t_uint256)"},{"astId":2029,"contract":"Treasury.sol:Treasury","label":"memberHasAllocation","offset":0,"slot":"5","type":"t_mapping(t_address,t_bool)"},{"astId":2033,"contract":"Treasury.sol:Treasury","label":"poolCreatorTokens","offset":0,"slot":"6","type":"t_mapping(t_address,t_uint256)"},{"astId":2039,"contract":"Treasury.sol:Treasury","label":"applicantFeeRecords","offset":0,"slot":"7","type":"t_mapping(t_address,t_mapping(t_address,t_bool))"},{"astId":2041,"contract":"Treasury.sol:Treasury","label":"governanceAddress","offset":0,"slot":"8","type":"t_address"}],"types":{"t_address":{"encoding":"inplace","label":"address","numberOfBytes":"20"},"t_bool":{"encoding":"inplace","label":"bool","numberOfBytes":"1"},"t_mapping(t_address,t_bool)":{"encoding":"mapping","key":"t_address","label":"mapping(address => bool)","numberOfBytes":"32","value":"t_bool"},"t_mapping(t_address,t_mapping(t_address,t_bool))":{"encoding":"mapping","key":"t_address","label":"mapping(address => mapping(address => bool))","numberOfBytes":"32","value":"t_mapping(t_address,t_bool)"},"t_mapping(t_address,t_uint256)":{"encoding":"mapping","key":"t_address","label":"mapping(address => uint256)","numberOfBytes":"32","value":"t_uint256"},"t_uint256":{"encoding":"inplace","label":"uint256","numberOfBytes":"32"}}},"userdoc":{"kind":"user","methods":{},"version":1}}