{"abi":[{"inputs":[],"stateMutability":"nonpayable","type":"constructor"},{"inputs":[{"internalType":"address","name":"account","type":"address"},{"internalType":"uint256","name":"amount","type":"uint256"}],"name":"allocateFunds","outputs":[],"stateMutability":"payable","type":"function"},{"inputs":[],"name":"balance","outputs":[{"internalType":"uint256","name":"","type":"uint256"}],"stateMutability":"view","type":"function"},{"inputs":[{"internalType":"address","name":"person","type":"address"},{"internalType":"address","name":"pool","type":"address"}],"name":"didPayApplicantFee","outputs":[{"internalType":"bool","name":"","type":"bool"}],"stateMutability":"view","type":"function"},{"inputs":[{"internalType":"address","name":"member","type":"address"}],"name":"getMemberAllocation","outputs":[{"internalType":"uint256","name":"","type":"uint256"}],"stateMutability":"view","type":"function"},{"inputs":[],"name":"hasAllocation","outputs":[{"internalType":"bool","name":"","type":"bool"}],"stateMutability":"view","type":"function"},{"inputs":[],"name":"newApplicantFee","outputs":[{"internalType":"uint256","name":"","type":"uint256"}],"stateMutability":"view","type":"function"},{"inputs":[],"name":"newPoolFee","outputs":[{"internalType":"uint256","name":"","type":"uint256"}],"stateMutability":"view","type":"function"},{"inputs":[],"name":"newProposalFee","outputs":[{"internalType":"uint256","name":"","type":"uint256"}],"stateMutability":"view","type":"function"},{"inputs":[{"internalType":"address","name":"pool","type":"address"}],"name":"payNewApplicantFee","outputs":[],"stateMutability":"payable","type":"function"},{"inputs":[],"name":"payNewPoolFee","outputs":[],"stateMutability":"payable","type":"function"},{"inputs":[],"name":"payNewProposalFee","outputs":[],"stateMutability":"payable","type":"function"},{"inputs":[{"internalType":"address","name":"newGovernance","type":"address"}],"name":"setGovernance","outputs":[],"stateMutability":"nonpayable","type":"function"},{"inputs":[{"internalType":"uint256","name":"amount","type":"uint256"}],"name":"setNewApplicantFee","outputs":[],"stateMutability":"nonpayable","type":"function"},{"inputs":[{"internalType":"uint256","name":"amount","type":"uint256"}],"name":"setNewPoolFee","outputs":[],"stateMutability":"nonpayable","type":"function"},{"inputs":[{"internalType":"uint256","name":"amount","type":"uint256"}],"name":"setNewProposalFee","outputs":[],"stateMutability":"nonpayable","type":"function"},{"inputs":[],"name":"withdraw","outputs":[],"stateMutability":"payable","type":"function"}],"devdoc":{"kind":"dev","methods":{},"version":1},"evm":{"assembly":"    /* \"Treasury.sol\":66:2715  contract Treasury {... */\n  mstore(0x40, 0x80)\n    /* \"Treasury.sol\":155:171  1000000000000000 */\n  0x038d7ea4c68000\n    /* \"Treasury.sol\":122:171  uint256 public newApplicantFee = 1000000000000000 */\n  0x01\n  sstore\n    /* \"Treasury.sol\":206:222  1000000000000000 */\n  0x038d7ea4c68000\n    /* \"Treasury.sol\":178:222  uint256 public newPoolFee = 1000000000000000 */\n  0x02\n  sstore\n    /* \"Treasury.sol\":261:277  1000000000000000 */\n  0x038d7ea4c68000\n    /* \"Treasury.sol\":229:277  uint256 public newProposalFee = 1000000000000000 */\n  0x03\n  sstore\n    /* \"Treasury.sol\":497:558  constructor() {... */\n  callvalue\n  dup1\n  iszero\n  tag_1\n  jumpi\n  0x00\n  dup1\n  revert\ntag_1:\n  pop\n    /* \"Treasury.sol\":66:2715  contract Treasury {... */\n  dataSize(sub_0)\n  dup1\n  dataOffset(sub_0)\n  0x00\n  codecopy\n  0x00\n  return\nstop\n\nsub_0: assembly {\n        /* \"Treasury.sol\":66:2715  contract Treasury {... */\n      mstore(0x40, 0x80)\n      jumpi(tag_1, lt(calldatasize, 0x04))\n      shr(0xe0, calldataload(0x00))\n      dup1\n      0x5bce5441\n      gt\n      tag_18\n      jumpi\n      dup1\n      0x9d7e7d38\n      gt\n      tag_19\n      jumpi\n      dup1\n      0x9d7e7d38\n      eq\n      tag_14\n      jumpi\n      dup1\n      0xab033ea9\n      eq\n      tag_15\n      jumpi\n      dup1\n      0xb69ef8a8\n      eq\n      tag_16\n      jumpi\n      dup1\n      0xf7be4f2a\n      eq\n      tag_17\n      jumpi\n      jump(tag_1)\n    tag_19:\n      dup1\n      0x5bce5441\n      eq\n      tag_10\n      jumpi\n      dup1\n      0x7646a004\n      eq\n      tag_11\n      jumpi\n      dup1\n      0x77956347\n      eq\n      tag_12\n      jumpi\n      dup1\n      0x8387271c\n      eq\n      tag_13\n      jumpi\n      jump(tag_1)\n    tag_18:\n      dup1\n      0x4b8be7ab\n      gt\n      tag_20\n      jumpi\n      dup1\n      0x4b8be7ab\n      eq\n      tag_6\n      jumpi\n      dup1\n      0x4d10dcbb\n      eq\n      tag_7\n      jumpi\n      dup1\n      0x53822071\n      eq\n      tag_8\n      jumpi\n      dup1\n      0x55dfd10c\n      eq\n      tag_9\n      jumpi\n      jump(tag_1)\n    tag_20:\n      dup1\n      0x06a5d642\n      eq\n      tag_2\n      jumpi\n      dup1\n      0x189ed356\n      eq\n      tag_3\n      jumpi\n      dup1\n      0x3ccfd60b\n      eq\n      tag_4\n      jumpi\n      dup1\n      0x40c89d16\n      eq\n      tag_5\n      jumpi\n    tag_1:\n      0x00\n      dup1\n      revert\n        /* \"Treasury.sol\":2122:2231  function hasAllocation() public view returns (bool) {... */\n    tag_2:\n      callvalue\n      dup1\n      iszero\n      tag_21\n      jumpi\n      0x00\n      dup1\n      revert\n    tag_21:\n      pop\n      tag_22\n      tag_23\n      jump\t// in\n    tag_22:\n      mload(0x40)\n      tag_24\n      swap2\n      swap1\n      tag_25\n      jump\t// in\n    tag_24:\n      mload(0x40)\n      dup1\n      swap2\n      sub\n      swap1\n      return\n        /* \"Treasury.sol\":1613:1930  function allocateFunds(address account, uint256 amount) public payable {... */\n    tag_3:\n      tag_26\n      0x04\n      dup1\n      calldatasize\n      sub\n      dup2\n      add\n      swap1\n      tag_27\n      swap2\n      swap1\n      tag_28\n      jump\t// in\n    tag_27:\n      tag_29\n      jump\t// in\n    tag_26:\n      stop\n        /* \"Treasury.sol\":2372:2712  function withdraw() public payable {... */\n    tag_4:\n      tag_30\n      tag_31\n      jump\t// in\n    tag_30:\n      stop\n        /* \"Treasury.sol\":1177:1293  function payNewProposalFee() public payable {... */\n    tag_5:\n      tag_32\n      tag_33\n      jump\t// in\n    tag_32:\n      stop\n        /* \"Treasury.sol\":1301:1485  function payNewApplicantFee(address pool) public payable {... */\n    tag_6:\n      tag_34\n      0x04\n      dup1\n      calldatasize\n      sub\n      dup2\n      add\n      swap1\n      tag_35\n      swap2\n      swap1\n      tag_36\n      jump\t// in\n    tag_35:\n      tag_37\n      jump\t// in\n    tag_34:\n      stop\n        /* \"Treasury.sol\":122:171  uint256 public newApplicantFee = 1000000000000000 */\n    tag_7:\n      callvalue\n      dup1\n      iszero\n      tag_38\n      jumpi\n      0x00\n      dup1\n      revert\n    tag_38:\n      pop\n      tag_39\n      tag_40\n      jump\t// in\n    tag_39:\n      mload(0x40)\n      tag_41\n      swap2\n      swap1\n      tag_42\n      jump\t// in\n    tag_41:\n      mload(0x40)\n      dup1\n      swap2\n      sub\n      swap1\n      return\n        /* \"Treasury.sol\":883:1018  function setNewPoolFee(uint256 amount) public {... */\n    tag_8:\n      callvalue\n      dup1\n      iszero\n      tag_43\n      jumpi\n      0x00\n      dup1\n      revert\n    tag_43:\n      pop\n      tag_44\n      0x04\n      dup1\n      calldatasize\n      sub\n      dup2\n      add\n      swap1\n      tag_45\n      swap2\n      swap1\n      tag_46\n      jump\t// in\n    tag_45:\n      tag_47\n      jump\t// in\n    tag_44:\n      stop\n        /* \"Treasury.sol\":730:875  function setNewApplicantFee(uint256 amount) public {... */\n    tag_9:\n      callvalue\n      dup1\n      iszero\n      tag_48\n      jumpi\n      0x00\n      dup1\n      revert\n    tag_48:\n      pop\n      tag_49\n      0x04\n      dup1\n      calldatasize\n      sub\n      dup2\n      add\n      swap1\n      tag_50\n      swap2\n      swap1\n      tag_46\n      jump\t// in\n    tag_50:\n      tag_51\n      jump\t// in\n    tag_49:\n      stop\n        /* \"Treasury.sol\":1026:1169  function setNewProposalFee(uint256 amount) public {... */\n    tag_10:\n      callvalue\n      dup1\n      iszero\n      tag_52\n      jumpi\n      0x00\n      dup1\n      revert\n    tag_52:\n      pop\n      tag_53\n      0x04\n      dup1\n      calldatasize\n      sub\n      dup2\n      add\n      swap1\n      tag_54\n      swap2\n      swap1\n      tag_46\n      jump\t// in\n    tag_54:\n      tag_55\n      jump\t// in\n    tag_53:\n      stop\n        /* \"Treasury.sol\":178:222  uint256 public newPoolFee = 1000000000000000 */\n    tag_11:\n      callvalue\n      dup1\n      iszero\n      tag_56\n      jumpi\n      0x00\n      dup1\n      revert\n    tag_56:\n      pop\n      tag_57\n      tag_58\n      jump\t// in\n    tag_57:\n      mload(0x40)\n      tag_59\n      swap2\n      swap1\n      tag_42\n      jump\t// in\n    tag_59:\n      mload(0x40)\n      dup1\n      swap2\n      sub\n      swap1\n      return\n        /* \"Treasury.sol\":229:277  uint256 public newProposalFee = 1000000000000000 */\n    tag_12:\n      callvalue\n      dup1\n      iszero\n      tag_60\n      jumpi\n      0x00\n      dup1\n      revert\n    tag_60:\n      pop\n      tag_61\n      tag_62\n      jump\t// in\n    tag_61:\n      mload(0x40)\n      tag_63\n      swap2\n      swap1\n      tag_42\n      jump\t// in\n    tag_63:\n      mload(0x40)\n      dup1\n      swap2\n      sub\n      swap1\n      return\n        /* \"Treasury.sol\":1938:2114  function didPayApplicantFee(address person, address pool)... */\n    tag_13:\n      callvalue\n      dup1\n      iszero\n      tag_64\n      jumpi\n      0x00\n      dup1\n      revert\n    tag_64:\n      pop\n      tag_65\n      0x04\n      dup1\n      calldatasize\n      sub\n      dup2\n      add\n      swap1\n      tag_66\n      swap2\n      swap1\n      tag_67\n      jump\t// in\n    tag_66:\n      tag_68\n      jump\t// in\n    tag_65:\n      mload(0x40)\n      tag_69\n      swap2\n      swap1\n      tag_25\n      jump\t// in\n    tag_69:\n      mload(0x40)\n      dup1\n      swap2\n      sub\n      swap1\n      return\n        /* \"Treasury.sol\":2239:2364  function getMemberAllocation(address member) public view returns (uint256) {... */\n    tag_14:\n      callvalue\n      dup1\n      iszero\n      tag_70\n      jumpi\n      0x00\n      dup1\n      revert\n    tag_70:\n      pop\n      tag_71\n      0x04\n      dup1\n      calldatasize\n      sub\n      dup2\n      add\n      swap1\n      tag_72\n      swap2\n      swap1\n      tag_36\n      jump\t// in\n    tag_72:\n      tag_73\n      jump\t// in\n    tag_71:\n      mload(0x40)\n      tag_74\n      swap2\n      swap1\n      tag_42\n      jump\t// in\n    tag_74:\n      mload(0x40)\n      dup1\n      swap2\n      sub\n      swap1\n      return\n        /* \"Treasury.sol\":566:722  function setGovernance(address newGovernance) public {... */\n    tag_15:\n      callvalue\n      dup1\n      iszero\n      tag_75\n      jumpi\n      0x00\n      dup1\n      revert\n    tag_75:\n      pop\n      tag_76\n      0x04\n      dup1\n      calldatasize\n      sub\n      dup2\n      add\n      swap1\n      tag_77\n      swap2\n      swap1\n      tag_36\n      jump\t// in\n    tag_77:\n      tag_78\n      jump\t// in\n    tag_76:\n      stop\n        /* \"Treasury.sol\":91:113  uint256 public balance */\n    tag_16:\n      callvalue\n      dup1\n      iszero\n      tag_79\n      jumpi\n      0x00\n      dup1\n      revert\n    tag_79:\n      pop\n      tag_80\n      tag_81\n      jump\t// in\n    tag_80:\n      mload(0x40)\n      tag_82\n      swap2\n      swap1\n      tag_42\n      jump\t// in\n    tag_82:\n      mload(0x40)\n      dup1\n      swap2\n      sub\n      swap1\n      return\n        /* \"Treasury.sol\":1493:1605  function payNewPoolFee() public payable {... */\n    tag_17:\n      tag_83\n      tag_84\n      jump\t// in\n    tag_83:\n      stop\n        /* \"Treasury.sol\":2122:2231  function hasAllocation() public view returns (bool) {... */\n    tag_23:\n        /* \"Treasury.sol\":2168:2172  bool */\n      0x00\n        /* \"Treasury.sol\":2192:2211  memberHasAllocation */\n      0x05\n        /* \"Treasury.sol\":2192:2223  memberHasAllocation[msg.sender] */\n      0x00\n        /* \"Treasury.sol\":2212:2222  msg.sender */\n      caller\n        /* \"Treasury.sol\":2192:2223  memberHasAllocation[msg.sender] */\n      0xffffffffffffffffffffffffffffffffffffffff\n      and\n      0xffffffffffffffffffffffffffffffffffffffff\n      and\n      dup2\n      mstore\n      0x20\n      add\n      swap1\n      dup2\n      mstore\n      0x20\n      add\n      0x00\n      keccak256\n      0x00\n      swap1\n      sload\n      swap1\n      0x0100\n      exp\n      swap1\n      div\n      0xff\n      and\n        /* \"Treasury.sol\":2185:2223  return memberHasAllocation[msg.sender] */\n      swap1\n      pop\n        /* \"Treasury.sol\":2122:2231  function hasAllocation() public view returns (bool) {... */\n      swap1\n      jump\t// out\n        /* \"Treasury.sol\":1613:1930  function allocateFunds(address account, uint256 amount) public payable {... */\n    tag_29:\n        /* \"Treasury.sol\":1717:1734  governanceAddress */\n      0x07\n      0x00\n      swap1\n      sload\n      swap1\n      0x0100\n      exp\n      swap1\n      div\n      0xffffffffffffffffffffffffffffffffffffffff\n      and\n        /* \"Treasury.sol\":1703:1734  msg.sender == governanceAddress */\n      0xffffffffffffffffffffffffffffffffffffffff\n      and\n        /* \"Treasury.sol\":1703:1713  msg.sender */\n      caller\n        /* \"Treasury.sol\":1703:1734  msg.sender == governanceAddress */\n      0xffffffffffffffffffffffffffffffffffffffff\n      and\n      eq\n        /* \"Treasury.sol\":1695:1735  require(msg.sender == governanceAddress) */\n      tag_87\n      jumpi\n      0x00\n      dup1\n      revert\n    tag_87:\n        /* \"Treasury.sol\":1765:1771  amount */\n      dup1\n        /* \"Treasury.sol\":1754:1761  balance */\n      sload(0x00)\n        /* \"Treasury.sol\":1754:1771  balance >= amount */\n      lt\n      iszero\n        /* \"Treasury.sol\":1746:1772  require(balance >= amount) */\n      tag_88\n      jumpi\n      0x00\n      dup1\n      revert\n    tag_88:\n        /* \"Treasury.sol\":1800:1801  0 */\n      0x00\n        /* \"Treasury.sol\":1791:1797  amount */\n      dup2\n        /* \"Treasury.sol\":1791:1801  amount > 0 */\n      gt\n        /* \"Treasury.sol\":1783:1802  require(amount > 0) */\n      tag_89\n      jumpi\n      0x00\n      dup1\n      revert\n    tag_89:\n        /* \"Treasury.sol\":1842:1848  amount */\n      dup1\n        /* \"Treasury.sol\":1813:1829  memberAllocation */\n      0x04\n        /* \"Treasury.sol\":1813:1838  memberAllocation[account] */\n      0x00\n        /* \"Treasury.sol\":1830:1837  account */\n      dup5\n        /* \"Treasury.sol\":1813:1838  memberAllocation[account] */\n      0xffffffffffffffffffffffffffffffffffffffff\n      and\n      0xffffffffffffffffffffffffffffffffffffffff\n      and\n      dup2\n      mstore\n      0x20\n      add\n      swap1\n      dup2\n      mstore\n      0x20\n      add\n      0x00\n      keccak256\n      0x00\n        /* \"Treasury.sol\":1813:1848  memberAllocation[account] += amount */\n      dup3\n      dup3\n      sload\n      tag_90\n      swap2\n      swap1\n      tag_91\n      jump\t// in\n    tag_90:\n      swap3\n      pop\n      pop\n      dup2\n      swap1\n      sstore\n      pop\n        /* \"Treasury.sol\":1870:1876  amount */\n      dup1\n        /* \"Treasury.sol\":1859:1866  balance */\n      0x00\n      dup1\n        /* \"Treasury.sol\":1859:1876  balance -= amount */\n      dup3\n      dup3\n      sload\n      tag_92\n      swap2\n      swap1\n      tag_93\n      jump\t// in\n    tag_92:\n      swap3\n      pop\n      pop\n      dup2\n      swap1\n      sstore\n      pop\n        /* \"Treasury.sol\":1918:1922  true */\n      0x01\n        /* \"Treasury.sol\":1887:1906  memberHasAllocation */\n      0x05\n        /* \"Treasury.sol\":1887:1915  memberHasAllocation[account] */\n      0x00\n        /* \"Treasury.sol\":1907:1914  account */\n      dup5\n        /* \"Treasury.sol\":1887:1915  memberHasAllocation[account] */\n      0xffffffffffffffffffffffffffffffffffffffff\n      and\n      0xffffffffffffffffffffffffffffffffffffffff\n      and\n      dup2\n      mstore\n      0x20\n      add\n      swap1\n      dup2\n      mstore\n      0x20\n      add\n      0x00\n      keccak256\n      0x00\n        /* \"Treasury.sol\":1887:1922  memberHasAllocation[account] = true */\n      0x0100\n      exp\n      dup2\n      sload\n      dup2\n      0xff\n      mul\n      not\n      and\n      swap1\n      dup4\n      iszero\n      iszero\n      mul\n      or\n      swap1\n      sstore\n      pop\n        /* \"Treasury.sol\":1613:1930  function allocateFunds(address account, uint256 amount) public payable {... */\n      pop\n      pop\n      jump\t// out\n        /* \"Treasury.sol\":2372:2712  function withdraw() public payable {... */\n    tag_31:\n        /* \"Treasury.sol\":2426:2445  memberHasAllocation */\n      0x05\n        /* \"Treasury.sol\":2426:2457  memberHasAllocation[msg.sender] */\n      0x00\n        /* \"Treasury.sol\":2446:2456  msg.sender */\n      caller\n        /* \"Treasury.sol\":2426:2457  memberHasAllocation[msg.sender] */\n      0xffffffffffffffffffffffffffffffffffffffff\n      and\n      0xffffffffffffffffffffffffffffffffffffffff\n      and\n      dup2\n      mstore\n      0x20\n      add\n      swap1\n      dup2\n      mstore\n      0x20\n      add\n      0x00\n      keccak256\n      0x00\n      swap1\n      sload\n      swap1\n      0x0100\n      exp\n      swap1\n      div\n      0xff\n      and\n        /* \"Treasury.sol\":2418:2458  require(memberHasAllocation[msg.sender]) */\n      tag_95\n      jumpi\n      0x00\n      dup1\n      revert\n    tag_95:\n        /* \"Treasury.sol\":2470:2479  bool sent */\n      0x00\n        /* \"Treasury.sol\":2485:2495  msg.sender */\n      caller\n        /* \"Treasury.sol\":2485:2500  msg.sender.call */\n      0xffffffffffffffffffffffffffffffffffffffff\n      and\n        /* \"Treasury.sol\":2508:2524  memberAllocation */\n      0x04\n        /* \"Treasury.sol\":2508:2536  memberAllocation[msg.sender] */\n      0x00\n        /* \"Treasury.sol\":2525:2535  msg.sender */\n      caller\n        /* \"Treasury.sol\":2508:2536  memberAllocation[msg.sender] */\n      0xffffffffffffffffffffffffffffffffffffffff\n      and\n      0xffffffffffffffffffffffffffffffffffffffff\n      and\n      dup2\n      mstore\n      0x20\n      add\n      swap1\n      dup2\n      mstore\n      0x20\n      add\n      0x00\n      keccak256\n      sload\n        /* \"Treasury.sol\":2485:2565  msg.sender.call{value: memberAllocation[msg.sender]}(... */\n      mload(0x40)\n      tag_96\n      swap1\n      tag_97\n      jump\t// in\n    tag_96:\n      0x00\n      mload(0x40)\n      dup1\n      dup4\n      sub\n      dup2\n      dup6\n      dup8\n      gas\n      call\n      swap3\n      pop\n      pop\n      pop\n      returndatasize\n      dup1\n      0x00\n      dup2\n      eq\n      tag_100\n      jumpi\n      mload(0x40)\n      swap2\n      pop\n      and(add(returndatasize, 0x3f), not(0x1f))\n      dup3\n      add\n      0x40\n      mstore\n      returndatasize\n      dup3\n      mstore\n      returndatasize\n      0x00\n      0x20\n      dup5\n      add\n      returndatacopy\n      jump(tag_99)\n    tag_100:\n      0x60\n      swap2\n      pop\n    tag_99:\n      pop\n        /* \"Treasury.sol\":2469:2565  (bool sent, ) = msg.sender.call{value: memberAllocation[msg.sender]}(... */\n      pop\n      swap1\n      pop\n        /* \"Treasury.sol\":2584:2588  sent */\n      dup1\n        /* \"Treasury.sol\":2576:2611  require(sent, \"Transaction Failed\") */\n      tag_101\n      jumpi\n      mload(0x40)\n      0x08c379a000000000000000000000000000000000000000000000000000000000\n      dup2\n      mstore\n      0x04\n      add\n      tag_102\n      swap1\n      tag_103\n      jump\t// in\n    tag_102:\n      mload(0x40)\n      dup1\n      swap2\n      sub\n      swap1\n      revert\n    tag_101:\n        /* \"Treasury.sol\":2653:2654  0 */\n      0x00\n        /* \"Treasury.sol\":2622:2638  memberAllocation */\n      0x04\n        /* \"Treasury.sol\":2622:2650  memberAllocation[msg.sender] */\n      0x00\n        /* \"Treasury.sol\":2639:2649  msg.sender */\n      caller\n        /* \"Treasury.sol\":2622:2650  memberAllocation[msg.sender] */\n      0xffffffffffffffffffffffffffffffffffffffff\n      and\n      0xffffffffffffffffffffffffffffffffffffffff\n      and\n      dup2\n      mstore\n      0x20\n      add\n      swap1\n      dup2\n      mstore\n      0x20\n      add\n      0x00\n      keccak256\n        /* \"Treasury.sol\":2622:2654  memberAllocation[msg.sender] = 0 */\n      dup2\n      swap1\n      sstore\n      pop\n        /* \"Treasury.sol\":2699:2704  false */\n      0x00\n        /* \"Treasury.sol\":2665:2684  memberHasAllocation */\n      0x05\n        /* \"Treasury.sol\":2665:2696  memberHasAllocation[msg.sender] */\n      0x00\n        /* \"Treasury.sol\":2685:2695  msg.sender */\n      caller\n        /* \"Treasury.sol\":2665:2696  memberHasAllocation[msg.sender] */\n      0xffffffffffffffffffffffffffffffffffffffff\n      and\n      0xffffffffffffffffffffffffffffffffffffffff\n      and\n      dup2\n      mstore\n      0x20\n      add\n      swap1\n      dup2\n      mstore\n      0x20\n      add\n      0x00\n      keccak256\n      0x00\n        /* \"Treasury.sol\":2665:2704  memberHasAllocation[msg.sender] = false */\n      0x0100\n      exp\n      dup2\n      sload\n      dup2\n      0xff\n      mul\n      not\n      and\n      swap1\n      dup4\n      iszero\n      iszero\n      mul\n      or\n      swap1\n      sstore\n      pop\n        /* \"Treasury.sol\":2407:2712  {... */\n      pop\n        /* \"Treasury.sol\":2372:2712  function withdraw() public payable {... */\n      jump\t// out\n        /* \"Treasury.sol\":1177:1293  function payNewProposalFee() public payable {... */\n    tag_33:\n        /* \"Treasury.sol\":1252:1253  0 */\n      0x00\n        /* \"Treasury.sol\":1240:1249  msg.value */\n      callvalue\n        /* \"Treasury.sol\":1240:1253  msg.value > 0 */\n      gt\n        /* \"Treasury.sol\":1232:1254  require(msg.value > 0) */\n      tag_105\n      jumpi\n      0x00\n      dup1\n      revert\n    tag_105:\n        /* \"Treasury.sol\":1276:1285  msg.value */\n      callvalue\n        /* \"Treasury.sol\":1265:1272  balance */\n      0x00\n      dup1\n        /* \"Treasury.sol\":1265:1285  balance += msg.value */\n      dup3\n      dup3\n      sload\n      tag_106\n      swap2\n      swap1\n      tag_91\n      jump\t// in\n    tag_106:\n      swap3\n      pop\n      pop\n      dup2\n      swap1\n      sstore\n      pop\n        /* \"Treasury.sol\":1177:1293  function payNewProposalFee() public payable {... */\n      jump\t// out\n        /* \"Treasury.sol\":1301:1485  function payNewApplicantFee(address pool) public payable {... */\n    tag_37:\n        /* \"Treasury.sol\":1389:1390  0 */\n      0x00\n        /* \"Treasury.sol\":1377:1386  msg.value */\n      callvalue\n        /* \"Treasury.sol\":1377:1390  msg.value > 0 */\n      gt\n        /* \"Treasury.sol\":1369:1391  require(msg.value > 0) */\n      tag_108\n      jumpi\n      0x00\n      dup1\n      revert\n    tag_108:\n        /* \"Treasury.sol\":1413:1422  msg.value */\n      callvalue\n        /* \"Treasury.sol\":1402:1409  balance */\n      0x00\n      dup1\n        /* \"Treasury.sol\":1402:1422  balance += msg.value */\n      dup3\n      dup3\n      sload\n      tag_109\n      swap2\n      swap1\n      tag_91\n      jump\t// in\n    tag_109:\n      swap3\n      pop\n      pop\n      dup2\n      swap1\n      sstore\n      pop\n        /* \"Treasury.sol\":1473:1477  true */\n      0x01\n        /* \"Treasury.sol\":1433:1452  applicantFeeRecords */\n      0x06\n        /* \"Treasury.sol\":1433:1464  applicantFeeRecords[msg.sender] */\n      0x00\n        /* \"Treasury.sol\":1453:1463  msg.sender */\n      caller\n        /* \"Treasury.sol\":1433:1464  applicantFeeRecords[msg.sender] */\n      0xffffffffffffffffffffffffffffffffffffffff\n      and\n      0xffffffffffffffffffffffffffffffffffffffff\n      and\n      dup2\n      mstore\n      0x20\n      add\n      swap1\n      dup2\n      mstore\n      0x20\n      add\n      0x00\n      keccak256\n        /* \"Treasury.sol\":1433:1470  applicantFeeRecords[msg.sender][pool] */\n      0x00\n        /* \"Treasury.sol\":1465:1469  pool */\n      dup4\n        /* \"Treasury.sol\":1433:1470  applicantFeeRecords[msg.sender][pool] */\n      0xffffffffffffffffffffffffffffffffffffffff\n      and\n      0xffffffffffffffffffffffffffffffffffffffff\n      and\n      dup2\n      mstore\n      0x20\n      add\n      swap1\n      dup2\n      mstore\n      0x20\n      add\n      0x00\n      keccak256\n      0x00\n        /* \"Treasury.sol\":1433:1477  applicantFeeRecords[msg.sender][pool] = true */\n      0x0100\n      exp\n      dup2\n      sload\n      dup2\n      0xff\n      mul\n      not\n      and\n      swap1\n      dup4\n      iszero\n      iszero\n      mul\n      or\n      swap1\n      sstore\n      pop\n        /* \"Treasury.sol\":1301:1485  function payNewApplicantFee(address pool) public payable {... */\n      pop\n      jump\t// out\n        /* \"Treasury.sol\":122:171  uint256 public newApplicantFee = 1000000000000000 */\n    tag_40:\n      sload(0x01)\n      dup2\n      jump\t// out\n        /* \"Treasury.sol\":883:1018  function setNewPoolFee(uint256 amount) public {... */\n    tag_47:\n        /* \"Treasury.sol\":962:979  governanceAddress */\n      0x07\n      0x00\n      swap1\n      sload\n      swap1\n      0x0100\n      exp\n      swap1\n      div\n      0xffffffffffffffffffffffffffffffffffffffff\n      and\n        /* \"Treasury.sol\":948:979  msg.sender == governanceAddress */\n      0xffffffffffffffffffffffffffffffffffffffff\n      and\n        /* \"Treasury.sol\":948:958  msg.sender */\n      caller\n        /* \"Treasury.sol\":948:979  msg.sender == governanceAddress */\n      0xffffffffffffffffffffffffffffffffffffffff\n      and\n      eq\n        /* \"Treasury.sol\":940:980  require(msg.sender == governanceAddress) */\n      tag_111\n      jumpi\n      0x00\n      dup1\n      revert\n    tag_111:\n        /* \"Treasury.sol\":1004:1010  amount */\n      dup1\n        /* \"Treasury.sol\":991:1001  newPoolFee */\n      0x02\n        /* \"Treasury.sol\":991:1010  newPoolFee = amount */\n      dup2\n      swap1\n      sstore\n      pop\n        /* \"Treasury.sol\":883:1018  function setNewPoolFee(uint256 amount) public {... */\n      pop\n      jump\t// out\n        /* \"Treasury.sol\":730:875  function setNewApplicantFee(uint256 amount) public {... */\n    tag_51:\n        /* \"Treasury.sol\":814:831  governanceAddress */\n      0x07\n      0x00\n      swap1\n      sload\n      swap1\n      0x0100\n      exp\n      swap1\n      div\n      0xffffffffffffffffffffffffffffffffffffffff\n      and\n        /* \"Treasury.sol\":800:831  msg.sender == governanceAddress */\n      0xffffffffffffffffffffffffffffffffffffffff\n      and\n        /* \"Treasury.sol\":800:810  msg.sender */\n      caller\n        /* \"Treasury.sol\":800:831  msg.sender == governanceAddress */\n      0xffffffffffffffffffffffffffffffffffffffff\n      and\n      eq\n        /* \"Treasury.sol\":792:832  require(msg.sender == governanceAddress) */\n      tag_113\n      jumpi\n      0x00\n      dup1\n      revert\n    tag_113:\n        /* \"Treasury.sol\":861:867  amount */\n      dup1\n        /* \"Treasury.sol\":843:858  newApplicantFee */\n      0x01\n        /* \"Treasury.sol\":843:867  newApplicantFee = amount */\n      dup2\n      swap1\n      sstore\n      pop\n        /* \"Treasury.sol\":730:875  function setNewApplicantFee(uint256 amount) public {... */\n      pop\n      jump\t// out\n        /* \"Treasury.sol\":1026:1169  function setNewProposalFee(uint256 amount) public {... */\n    tag_55:\n        /* \"Treasury.sol\":1109:1126  governanceAddress */\n      0x07\n      0x00\n      swap1\n      sload\n      swap1\n      0x0100\n      exp\n      swap1\n      div\n      0xffffffffffffffffffffffffffffffffffffffff\n      and\n        /* \"Treasury.sol\":1095:1126  msg.sender == governanceAddress */\n      0xffffffffffffffffffffffffffffffffffffffff\n      and\n        /* \"Treasury.sol\":1095:1105  msg.sender */\n      caller\n        /* \"Treasury.sol\":1095:1126  msg.sender == governanceAddress */\n      0xffffffffffffffffffffffffffffffffffffffff\n      and\n      eq\n        /* \"Treasury.sol\":1087:1127  require(msg.sender == governanceAddress) */\n      tag_115\n      jumpi\n      0x00\n      dup1\n      revert\n    tag_115:\n        /* \"Treasury.sol\":1155:1161  amount */\n      dup1\n        /* \"Treasury.sol\":1138:1152  newProposalFee */\n      0x03\n        /* \"Treasury.sol\":1138:1161  newProposalFee = amount */\n      dup2\n      swap1\n      sstore\n      pop\n        /* \"Treasury.sol\":1026:1169  function setNewProposalFee(uint256 amount) public {... */\n      pop\n      jump\t// out\n        /* \"Treasury.sol\":178:222  uint256 public newPoolFee = 1000000000000000 */\n    tag_58:\n      sload(0x02)\n      dup2\n      jump\t// out\n        /* \"Treasury.sol\":229:277  uint256 public newProposalFee = 1000000000000000 */\n    tag_62:\n      sload(0x03)\n      dup2\n      jump\t// out\n        /* \"Treasury.sol\":1938:2114  function didPayApplicantFee(address person, address pool)... */\n    tag_68:\n        /* \"Treasury.sol\":2044:2048  bool */\n      0x00\n        /* \"Treasury.sol\":2073:2092  applicantFeeRecords */\n      0x06\n        /* \"Treasury.sol\":2073:2100  applicantFeeRecords[person] */\n      0x00\n        /* \"Treasury.sol\":2093:2099  person */\n      dup5\n        /* \"Treasury.sol\":2073:2100  applicantFeeRecords[person] */\n      0xffffffffffffffffffffffffffffffffffffffff\n      and\n      0xffffffffffffffffffffffffffffffffffffffff\n      and\n      dup2\n      mstore\n      0x20\n      add\n      swap1\n      dup2\n      mstore\n      0x20\n      add\n      0x00\n      keccak256\n        /* \"Treasury.sol\":2073:2106  applicantFeeRecords[person][pool] */\n      0x00\n        /* \"Treasury.sol\":2101:2105  pool */\n      dup4\n        /* \"Treasury.sol\":2073:2106  applicantFeeRecords[person][pool] */\n      0xffffffffffffffffffffffffffffffffffffffff\n      and\n      0xffffffffffffffffffffffffffffffffffffffff\n      and\n      dup2\n      mstore\n      0x20\n      add\n      swap1\n      dup2\n      mstore\n      0x20\n      add\n      0x00\n      keccak256\n      0x00\n      swap1\n      sload\n      swap1\n      0x0100\n      exp\n      swap1\n      div\n      0xff\n      and\n        /* \"Treasury.sol\":2066:2106  return applicantFeeRecords[person][pool] */\n      swap1\n      pop\n        /* \"Treasury.sol\":1938:2114  function didPayApplicantFee(address person, address pool)... */\n      swap3\n      swap2\n      pop\n      pop\n      jump\t// out\n        /* \"Treasury.sol\":2239:2364  function getMemberAllocation(address member) public view returns (uint256) {... */\n    tag_73:\n        /* \"Treasury.sol\":2305:2312  uint256 */\n      0x00\n        /* \"Treasury.sol\":2332:2348  memberAllocation */\n      0x04\n        /* \"Treasury.sol\":2332:2356  memberAllocation[member] */\n      0x00\n        /* \"Treasury.sol\":2349:2355  member */\n      dup4\n        /* \"Treasury.sol\":2332:2356  memberAllocation[member] */\n      0xffffffffffffffffffffffffffffffffffffffff\n      and\n      0xffffffffffffffffffffffffffffffffffffffff\n      and\n      dup2\n      mstore\n      0x20\n      add\n      swap1\n      dup2\n      mstore\n      0x20\n      add\n      0x00\n      keccak256\n      sload\n        /* \"Treasury.sol\":2325:2356  return memberAllocation[member] */\n      swap1\n      pop\n        /* \"Treasury.sol\":2239:2364  function getMemberAllocation(address member) public view returns (uint256) {... */\n      swap2\n      swap1\n      pop\n      jump\t// out\n        /* \"Treasury.sol\":566:722  function setGovernance(address newGovernance) public {... */\n    tag_78:\n        /* \"Treasury.sol\":652:669  governanceAddress */\n      0x07\n      0x00\n      swap1\n      sload\n      swap1\n      0x0100\n      exp\n      swap1\n      div\n      0xffffffffffffffffffffffffffffffffffffffff\n      and\n        /* \"Treasury.sol\":638:669  msg.sender == governanceAddress */\n      0xffffffffffffffffffffffffffffffffffffffff\n      and\n        /* \"Treasury.sol\":638:648  msg.sender */\n      caller\n        /* \"Treasury.sol\":638:669  msg.sender == governanceAddress */\n      0xffffffffffffffffffffffffffffffffffffffff\n      and\n      eq\n        /* \"Treasury.sol\":630:670  require(msg.sender == governanceAddress) */\n      tag_119\n      jumpi\n      0x00\n      dup1\n      revert\n    tag_119:\n        /* \"Treasury.sol\":701:714  newGovernance */\n      dup1\n        /* \"Treasury.sol\":681:698  governanceAddress */\n      0x07\n      0x00\n        /* \"Treasury.sol\":681:714  governanceAddress = newGovernance */\n      0x0100\n      exp\n      dup2\n      sload\n      dup2\n      0xffffffffffffffffffffffffffffffffffffffff\n      mul\n      not\n      and\n      swap1\n      dup4\n      0xffffffffffffffffffffffffffffffffffffffff\n      and\n      mul\n      or\n      swap1\n      sstore\n      pop\n        /* \"Treasury.sol\":566:722  function setGovernance(address newGovernance) public {... */\n      pop\n      jump\t// out\n        /* \"Treasury.sol\":91:113  uint256 public balance */\n    tag_81:\n      sload(0x00)\n      dup2\n      jump\t// out\n        /* \"Treasury.sol\":1493:1605  function payNewPoolFee() public payable {... */\n    tag_84:\n        /* \"Treasury.sol\":1564:1565  0 */\n      0x00\n        /* \"Treasury.sol\":1552:1561  msg.value */\n      callvalue\n        /* \"Treasury.sol\":1552:1565  msg.value > 0 */\n      gt\n        /* \"Treasury.sol\":1544:1566  require(msg.value > 0) */\n      tag_121\n      jumpi\n      0x00\n      dup1\n      revert\n    tag_121:\n        /* \"Treasury.sol\":1588:1597  msg.value */\n      callvalue\n        /* \"Treasury.sol\":1577:1584  balance */\n      0x00\n      dup1\n        /* \"Treasury.sol\":1577:1597  balance += msg.value */\n      dup3\n      dup3\n      sload\n      tag_122\n      swap2\n      swap1\n      tag_91\n      jump\t// in\n    tag_122:\n      swap3\n      pop\n      pop\n      dup2\n      swap1\n      sstore\n      pop\n        /* \"Treasury.sol\":1493:1605  function payNewPoolFee() public payable {... */\n      jump\t// out\n        /* \"#utility.yul\":7:97   */\n    tag_123:\n        /* \"#utility.yul\":41:48   */\n      0x00\n        /* \"#utility.yul\":84:89   */\n      dup2\n        /* \"#utility.yul\":77:90   */\n      iszero\n        /* \"#utility.yul\":70:91   */\n      iszero\n        /* \"#utility.yul\":59:91   */\n      swap1\n      pop\n        /* \"#utility.yul\":7:97   */\n      swap2\n      swap1\n      pop\n      jump\t// out\n        /* \"#utility.yul\":103:212   */\n    tag_124:\n        /* \"#utility.yul\":184:205   */\n      tag_146\n        /* \"#utility.yul\":199:204   */\n      dup2\n        /* \"#utility.yul\":184:205   */\n      tag_123\n      jump\t// in\n    tag_146:\n        /* \"#utility.yul\":179:182   */\n      dup3\n        /* \"#utility.yul\":172:206   */\n      mstore\n        /* \"#utility.yul\":103:212   */\n      pop\n      pop\n      jump\t// out\n        /* \"#utility.yul\":218:428   */\n    tag_25:\n        /* \"#utility.yul\":305:309   */\n      0x00\n        /* \"#utility.yul\":343:345   */\n      0x20\n        /* \"#utility.yul\":332:341   */\n      dup3\n        /* \"#utility.yul\":328:346   */\n      add\n        /* \"#utility.yul\":320:346   */\n      swap1\n      pop\n        /* \"#utility.yul\":356:421   */\n      tag_148\n        /* \"#utility.yul\":418:419   */\n      0x00\n        /* \"#utility.yul\":407:416   */\n      dup4\n        /* \"#utility.yul\":403:420   */\n      add\n        /* \"#utility.yul\":394:400   */\n      dup5\n        /* \"#utility.yul\":356:421   */\n      tag_124\n      jump\t// in\n    tag_148:\n        /* \"#utility.yul\":218:428   */\n      swap3\n      swap2\n      pop\n      pop\n      jump\t// out\n        /* \"#utility.yul\":515:632   */\n    tag_126:\n        /* \"#utility.yul\":624:625   */\n      0x00\n        /* \"#utility.yul\":621:622   */\n      dup1\n        /* \"#utility.yul\":614:626   */\n      revert\n        /* \"#utility.yul\":761:887   */\n    tag_128:\n        /* \"#utility.yul\":798:805   */\n      0x00\n        /* \"#utility.yul\":838:880   */\n      0xffffffffffffffffffffffffffffffffffffffff\n        /* \"#utility.yul\":831:836   */\n      dup3\n        /* \"#utility.yul\":827:881   */\n      and\n        /* \"#utility.yul\":816:881   */\n      swap1\n      pop\n        /* \"#utility.yul\":761:887   */\n      swap2\n      swap1\n      pop\n      jump\t// out\n        /* \"#utility.yul\":893:989   */\n    tag_129:\n        /* \"#utility.yul\":930:937   */\n      0x00\n        /* \"#utility.yul\":959:983   */\n      tag_154\n        /* \"#utility.yul\":977:982   */\n      dup3\n        /* \"#utility.yul\":959:983   */\n      tag_128\n      jump\t// in\n    tag_154:\n        /* \"#utility.yul\":948:983   */\n      swap1\n      pop\n        /* \"#utility.yul\":893:989   */\n      swap2\n      swap1\n      pop\n      jump\t// out\n        /* \"#utility.yul\":995:1117   */\n    tag_130:\n        /* \"#utility.yul\":1068:1092   */\n      tag_156\n        /* \"#utility.yul\":1086:1091   */\n      dup2\n        /* \"#utility.yul\":1068:1092   */\n      tag_129\n      jump\t// in\n    tag_156:\n        /* \"#utility.yul\":1061:1066   */\n      dup2\n        /* \"#utility.yul\":1058:1093   */\n      eq\n        /* \"#utility.yul\":1048:1111   */\n      tag_157\n      jumpi\n        /* \"#utility.yul\":1107:1108   */\n      0x00\n        /* \"#utility.yul\":1104:1105   */\n      dup1\n        /* \"#utility.yul\":1097:1109   */\n      revert\n        /* \"#utility.yul\":1048:1111   */\n    tag_157:\n        /* \"#utility.yul\":995:1117   */\n      pop\n      jump\t// out\n        /* \"#utility.yul\":1123:1262   */\n    tag_131:\n        /* \"#utility.yul\":1169:1174   */\n      0x00\n        /* \"#utility.yul\":1207:1213   */\n      dup2\n        /* \"#utility.yul\":1194:1214   */\n      calldataload\n        /* \"#utility.yul\":1185:1214   */\n      swap1\n      pop\n        /* \"#utility.yul\":1223:1256   */\n      tag_159\n        /* \"#utility.yul\":1250:1255   */\n      dup2\n        /* \"#utility.yul\":1223:1256   */\n      tag_130\n      jump\t// in\n    tag_159:\n        /* \"#utility.yul\":1123:1262   */\n      swap3\n      swap2\n      pop\n      pop\n      jump\t// out\n        /* \"#utility.yul\":1268:1345   */\n    tag_132:\n        /* \"#utility.yul\":1305:1312   */\n      0x00\n        /* \"#utility.yul\":1334:1339   */\n      dup2\n        /* \"#utility.yul\":1323:1339   */\n      swap1\n      pop\n        /* \"#utility.yul\":1268:1345   */\n      swap2\n      swap1\n      pop\n      jump\t// out\n        /* \"#utility.yul\":1351:1473   */\n    tag_133:\n        /* \"#utility.yul\":1424:1448   */\n      tag_162\n        /* \"#utility.yul\":1442:1447   */\n      dup2\n        /* \"#utility.yul\":1424:1448   */\n      tag_132\n      jump\t// in\n    tag_162:\n        /* \"#utility.yul\":1417:1422   */\n      dup2\n        /* \"#utility.yul\":1414:1449   */\n      eq\n        /* \"#utility.yul\":1404:1467   */\n      tag_163\n      jumpi\n        /* \"#utility.yul\":1463:1464   */\n      0x00\n        /* \"#utility.yul\":1460:1461   */\n      dup1\n        /* \"#utility.yul\":1453:1465   */\n      revert\n        /* \"#utility.yul\":1404:1467   */\n    tag_163:\n        /* \"#utility.yul\":1351:1473   */\n      pop\n      jump\t// out\n        /* \"#utility.yul\":1479:1618   */\n    tag_134:\n        /* \"#utility.yul\":1525:1530   */\n      0x00\n        /* \"#utility.yul\":1563:1569   */\n      dup2\n        /* \"#utility.yul\":1550:1570   */\n      calldataload\n        /* \"#utility.yul\":1541:1570   */\n      swap1\n      pop\n        /* \"#utility.yul\":1579:1612   */\n      tag_165\n        /* \"#utility.yul\":1606:1611   */\n      dup2\n        /* \"#utility.yul\":1579:1612   */\n      tag_133\n      jump\t// in\n    tag_165:\n        /* \"#utility.yul\":1479:1618   */\n      swap3\n      swap2\n      pop\n      pop\n      jump\t// out\n        /* \"#utility.yul\":1624:2098   */\n    tag_28:\n        /* \"#utility.yul\":1692:1698   */\n      0x00\n        /* \"#utility.yul\":1700:1706   */\n      dup1\n        /* \"#utility.yul\":1749:1751   */\n      0x40\n        /* \"#utility.yul\":1737:1746   */\n      dup4\n        /* \"#utility.yul\":1728:1735   */\n      dup6\n        /* \"#utility.yul\":1724:1747   */\n      sub\n        /* \"#utility.yul\":1720:1752   */\n      slt\n        /* \"#utility.yul\":1717:1836   */\n      iszero\n      tag_167\n      jumpi\n        /* \"#utility.yul\":1755:1834   */\n      tag_168\n      tag_126\n      jump\t// in\n    tag_168:\n        /* \"#utility.yul\":1717:1836   */\n    tag_167:\n        /* \"#utility.yul\":1875:1876   */\n      0x00\n        /* \"#utility.yul\":1900:1953   */\n      tag_169\n        /* \"#utility.yul\":1945:1952   */\n      dup6\n        /* \"#utility.yul\":1936:1942   */\n      dup3\n        /* \"#utility.yul\":1925:1934   */\n      dup7\n        /* \"#utility.yul\":1921:1943   */\n      add\n        /* \"#utility.yul\":1900:1953   */\n      tag_131\n      jump\t// in\n    tag_169:\n        /* \"#utility.yul\":1890:1953   */\n      swap3\n      pop\n        /* \"#utility.yul\":1846:1963   */\n      pop\n        /* \"#utility.yul\":2002:2004   */\n      0x20\n        /* \"#utility.yul\":2028:2081   */\n      tag_170\n        /* \"#utility.yul\":2073:2080   */\n      dup6\n        /* \"#utility.yul\":2064:2070   */\n      dup3\n        /* \"#utility.yul\":2053:2062   */\n      dup7\n        /* \"#utility.yul\":2049:2071   */\n      add\n        /* \"#utility.yul\":2028:2081   */\n      tag_134\n      jump\t// in\n    tag_170:\n        /* \"#utility.yul\":2018:2081   */\n      swap2\n      pop\n        /* \"#utility.yul\":1973:2091   */\n      pop\n        /* \"#utility.yul\":1624:2098   */\n      swap3\n      pop\n      swap3\n      swap1\n      pop\n      jump\t// out\n        /* \"#utility.yul\":2104:2433   */\n    tag_36:\n        /* \"#utility.yul\":2163:2169   */\n      0x00\n        /* \"#utility.yul\":2212:2214   */\n      0x20\n        /* \"#utility.yul\":2200:2209   */\n      dup3\n        /* \"#utility.yul\":2191:2198   */\n      dup5\n        /* \"#utility.yul\":2187:2210   */\n      sub\n        /* \"#utility.yul\":2183:2215   */\n      slt\n        /* \"#utility.yul\":2180:2299   */\n      iszero\n      tag_172\n      jumpi\n        /* \"#utility.yul\":2218:2297   */\n      tag_173\n      tag_126\n      jump\t// in\n    tag_173:\n        /* \"#utility.yul\":2180:2299   */\n    tag_172:\n        /* \"#utility.yul\":2338:2339   */\n      0x00\n        /* \"#utility.yul\":2363:2416   */\n      tag_174\n        /* \"#utility.yul\":2408:2415   */\n      dup5\n        /* \"#utility.yul\":2399:2405   */\n      dup3\n        /* \"#utility.yul\":2388:2397   */\n      dup6\n        /* \"#utility.yul\":2384:2406   */\n      add\n        /* \"#utility.yul\":2363:2416   */\n      tag_131\n      jump\t// in\n    tag_174:\n        /* \"#utility.yul\":2353:2416   */\n      swap2\n      pop\n        /* \"#utility.yul\":2309:2426   */\n      pop\n        /* \"#utility.yul\":2104:2433   */\n      swap3\n      swap2\n      pop\n      pop\n      jump\t// out\n        /* \"#utility.yul\":2439:2557   */\n    tag_135:\n        /* \"#utility.yul\":2526:2550   */\n      tag_176\n        /* \"#utility.yul\":2544:2549   */\n      dup2\n        /* \"#utility.yul\":2526:2550   */\n      tag_132\n      jump\t// in\n    tag_176:\n        /* \"#utility.yul\":2521:2524   */\n      dup3\n        /* \"#utility.yul\":2514:2551   */\n      mstore\n        /* \"#utility.yul\":2439:2557   */\n      pop\n      pop\n      jump\t// out\n        /* \"#utility.yul\":2563:2785   */\n    tag_42:\n        /* \"#utility.yul\":2656:2660   */\n      0x00\n        /* \"#utility.yul\":2694:2696   */\n      0x20\n        /* \"#utility.yul\":2683:2692   */\n      dup3\n        /* \"#utility.yul\":2679:2697   */\n      add\n        /* \"#utility.yul\":2671:2697   */\n      swap1\n      pop\n        /* \"#utility.yul\":2707:2778   */\n      tag_178\n        /* \"#utility.yul\":2775:2776   */\n      0x00\n        /* \"#utility.yul\":2764:2773   */\n      dup4\n        /* \"#utility.yul\":2760:2777   */\n      add\n        /* \"#utility.yul\":2751:2757   */\n      dup5\n        /* \"#utility.yul\":2707:2778   */\n      tag_135\n      jump\t// in\n    tag_178:\n        /* \"#utility.yul\":2563:2785   */\n      swap3\n      swap2\n      pop\n      pop\n      jump\t// out\n        /* \"#utility.yul\":2791:3120   */\n    tag_46:\n        /* \"#utility.yul\":2850:2856   */\n      0x00\n        /* \"#utility.yul\":2899:2901   */\n      0x20\n        /* \"#utility.yul\":2887:2896   */\n      dup3\n        /* \"#utility.yul\":2878:2885   */\n      dup5\n        /* \"#utility.yul\":2874:2897   */\n      sub\n        /* \"#utility.yul\":2870:2902   */\n      slt\n        /* \"#utility.yul\":2867:2986   */\n      iszero\n      tag_180\n      jumpi\n        /* \"#utility.yul\":2905:2984   */\n      tag_181\n      tag_126\n      jump\t// in\n    tag_181:\n        /* \"#utility.yul\":2867:2986   */\n    tag_180:\n        /* \"#utility.yul\":3025:3026   */\n      0x00\n        /* \"#utility.yul\":3050:3103   */\n      tag_182\n        /* \"#utility.yul\":3095:3102   */\n      dup5\n        /* \"#utility.yul\":3086:3092   */\n      dup3\n        /* \"#utility.yul\":3075:3084   */\n      dup6\n        /* \"#utility.yul\":3071:3093   */\n      add\n        /* \"#utility.yul\":3050:3103   */\n      tag_134\n      jump\t// in\n    tag_182:\n        /* \"#utility.yul\":3040:3103   */\n      swap2\n      pop\n        /* \"#utility.yul\":2996:3113   */\n      pop\n        /* \"#utility.yul\":2791:3120   */\n      swap3\n      swap2\n      pop\n      pop\n      jump\t// out\n        /* \"#utility.yul\":3126:3600   */\n    tag_67:\n        /* \"#utility.yul\":3194:3200   */\n      0x00\n        /* \"#utility.yul\":3202:3208   */\n      dup1\n        /* \"#utility.yul\":3251:3253   */\n      0x40\n        /* \"#utility.yul\":3239:3248   */\n      dup4\n        /* \"#utility.yul\":3230:3237   */\n      dup6\n        /* \"#utility.yul\":3226:3249   */\n      sub\n        /* \"#utility.yul\":3222:3254   */\n      slt\n        /* \"#utility.yul\":3219:3338   */\n      iszero\n      tag_184\n      jumpi\n        /* \"#utility.yul\":3257:3336   */\n      tag_185\n      tag_126\n      jump\t// in\n    tag_185:\n        /* \"#utility.yul\":3219:3338   */\n    tag_184:\n        /* \"#utility.yul\":3377:3378   */\n      0x00\n        /* \"#utility.yul\":3402:3455   */\n      tag_186\n        /* \"#utility.yul\":3447:3454   */\n      dup6\n        /* \"#utility.yul\":3438:3444   */\n      dup3\n        /* \"#utility.yul\":3427:3436   */\n      dup7\n        /* \"#utility.yul\":3423:3445   */\n      add\n        /* \"#utility.yul\":3402:3455   */\n      tag_131\n      jump\t// in\n    tag_186:\n        /* \"#utility.yul\":3392:3455   */\n      swap3\n      pop\n        /* \"#utility.yul\":3348:3465   */\n      pop\n        /* \"#utility.yul\":3504:3506   */\n      0x20\n        /* \"#utility.yul\":3530:3583   */\n      tag_187\n        /* \"#utility.yul\":3575:3582   */\n      dup6\n        /* \"#utility.yul\":3566:3572   */\n      dup3\n        /* \"#utility.yul\":3555:3564   */\n      dup7\n        /* \"#utility.yul\":3551:3573   */\n      add\n        /* \"#utility.yul\":3530:3583   */\n      tag_131\n      jump\t// in\n    tag_187:\n        /* \"#utility.yul\":3520:3583   */\n      swap2\n      pop\n        /* \"#utility.yul\":3475:3593   */\n      pop\n        /* \"#utility.yul\":3126:3600   */\n      swap3\n      pop\n      swap3\n      swap1\n      pop\n      jump\t// out\n        /* \"#utility.yul\":3606:3786   */\n    tag_136:\n        /* \"#utility.yul\":3654:3731   */\n      0x4e487b7100000000000000000000000000000000000000000000000000000000\n        /* \"#utility.yul\":3651:3652   */\n      0x00\n        /* \"#utility.yul\":3644:3732   */\n      mstore\n        /* \"#utility.yul\":3751:3755   */\n      0x11\n        /* \"#utility.yul\":3748:3749   */\n      0x04\n        /* \"#utility.yul\":3741:3756   */\n      mstore\n        /* \"#utility.yul\":3775:3779   */\n      0x24\n        /* \"#utility.yul\":3772:3773   */\n      0x00\n        /* \"#utility.yul\":3765:3780   */\n      revert\n        /* \"#utility.yul\":3792:3983   */\n    tag_91:\n        /* \"#utility.yul\":3832:3835   */\n      0x00\n        /* \"#utility.yul\":3851:3871   */\n      tag_190\n        /* \"#utility.yul\":3869:3870   */\n      dup3\n        /* \"#utility.yul\":3851:3871   */\n      tag_132\n      jump\t// in\n    tag_190:\n        /* \"#utility.yul\":3846:3871   */\n      swap2\n      pop\n        /* \"#utility.yul\":3885:3905   */\n      tag_191\n        /* \"#utility.yul\":3903:3904   */\n      dup4\n        /* \"#utility.yul\":3885:3905   */\n      tag_132\n      jump\t// in\n    tag_191:\n        /* \"#utility.yul\":3880:3905   */\n      swap3\n      pop\n        /* \"#utility.yul\":3928:3929   */\n      dup3\n        /* \"#utility.yul\":3925:3926   */\n      dup3\n        /* \"#utility.yul\":3921:3930   */\n      add\n        /* \"#utility.yul\":3914:3930   */\n      swap1\n      pop\n        /* \"#utility.yul\":3949:3952   */\n      dup1\n        /* \"#utility.yul\":3946:3947   */\n      dup3\n        /* \"#utility.yul\":3943:3953   */\n      gt\n        /* \"#utility.yul\":3940:3976   */\n      iszero\n      tag_192\n      jumpi\n        /* \"#utility.yul\":3956:3974   */\n      tag_193\n      tag_136\n      jump\t// in\n    tag_193:\n        /* \"#utility.yul\":3940:3976   */\n    tag_192:\n        /* \"#utility.yul\":3792:3983   */\n      swap3\n      swap2\n      pop\n      pop\n      jump\t// out\n        /* \"#utility.yul\":3989:4183   */\n    tag_93:\n        /* \"#utility.yul\":4029:4033   */\n      0x00\n        /* \"#utility.yul\":4049:4069   */\n      tag_195\n        /* \"#utility.yul\":4067:4068   */\n      dup3\n        /* \"#utility.yul\":4049:4069   */\n      tag_132\n      jump\t// in\n    tag_195:\n        /* \"#utility.yul\":4044:4069   */\n      swap2\n      pop\n        /* \"#utility.yul\":4083:4103   */\n      tag_196\n        /* \"#utility.yul\":4101:4102   */\n      dup4\n        /* \"#utility.yul\":4083:4103   */\n      tag_132\n      jump\t// in\n    tag_196:\n        /* \"#utility.yul\":4078:4103   */\n      swap3\n      pop\n        /* \"#utility.yul\":4127:4128   */\n      dup3\n        /* \"#utility.yul\":4124:4125   */\n      dup3\n        /* \"#utility.yul\":4120:4129   */\n      sub\n        /* \"#utility.yul\":4112:4129   */\n      swap1\n      pop\n        /* \"#utility.yul\":4151:4152   */\n      dup2\n        /* \"#utility.yul\":4145:4149   */\n      dup2\n        /* \"#utility.yul\":4142:4153   */\n      gt\n        /* \"#utility.yul\":4139:4176   */\n      iszero\n      tag_197\n      jumpi\n        /* \"#utility.yul\":4156:4174   */\n      tag_198\n      tag_136\n      jump\t// in\n    tag_198:\n        /* \"#utility.yul\":4139:4176   */\n    tag_197:\n        /* \"#utility.yul\":3989:4183   */\n      swap3\n      swap2\n      pop\n      pop\n      jump\t// out\n        /* \"#utility.yul\":4189:4336   */\n    tag_137:\n        /* \"#utility.yul\":4290:4301   */\n      0x00\n        /* \"#utility.yul\":4327:4330   */\n      dup2\n        /* \"#utility.yul\":4312:4330   */\n      swap1\n      pop\n        /* \"#utility.yul\":4189:4336   */\n      swap3\n      swap2\n      pop\n      pop\n      jump\t// out\n        /* \"#utility.yul\":4342:4456   */\n    tag_138:\n      pop\n      jump\t// out\n        /* \"#utility.yul\":4462:4860   */\n    tag_139:\n        /* \"#utility.yul\":4621:4624   */\n      0x00\n        /* \"#utility.yul\":4642:4725   */\n      tag_202\n        /* \"#utility.yul\":4723:4724   */\n      0x00\n        /* \"#utility.yul\":4718:4721   */\n      dup4\n        /* \"#utility.yul\":4642:4725   */\n      tag_137\n      jump\t// in\n    tag_202:\n        /* \"#utility.yul\":4635:4725   */\n      swap2\n      pop\n        /* \"#utility.yul\":4734:4827   */\n      tag_203\n        /* \"#utility.yul\":4823:4826   */\n      dup3\n        /* \"#utility.yul\":4734:4827   */\n      tag_138\n      jump\t// in\n    tag_203:\n        /* \"#utility.yul\":4852:4853   */\n      0x00\n        /* \"#utility.yul\":4847:4850   */\n      dup3\n        /* \"#utility.yul\":4843:4854   */\n      add\n        /* \"#utility.yul\":4836:4854   */\n      swap1\n      pop\n        /* \"#utility.yul\":4462:4860   */\n      swap2\n      swap1\n      pop\n      jump\t// out\n        /* \"#utility.yul\":4866:5245   */\n    tag_97:\n        /* \"#utility.yul\":5050:5053   */\n      0x00\n        /* \"#utility.yul\":5072:5219   */\n      tag_205\n        /* \"#utility.yul\":5215:5218   */\n      dup3\n        /* \"#utility.yul\":5072:5219   */\n      tag_139\n      jump\t// in\n    tag_205:\n        /* \"#utility.yul\":5065:5219   */\n      swap2\n      pop\n        /* \"#utility.yul\":5236:5239   */\n      dup2\n        /* \"#utility.yul\":5229:5239   */\n      swap1\n      pop\n        /* \"#utility.yul\":4866:5245   */\n      swap2\n      swap1\n      pop\n      jump\t// out\n        /* \"#utility.yul\":5251:5420   */\n    tag_140:\n        /* \"#utility.yul\":5335:5346   */\n      0x00\n        /* \"#utility.yul\":5369:5375   */\n      dup3\n        /* \"#utility.yul\":5364:5367   */\n      dup3\n        /* \"#utility.yul\":5357:5376   */\n      mstore\n        /* \"#utility.yul\":5409:5413   */\n      0x20\n        /* \"#utility.yul\":5404:5407   */\n      dup3\n        /* \"#utility.yul\":5400:5414   */\n      add\n        /* \"#utility.yul\":5385:5414   */\n      swap1\n      pop\n        /* \"#utility.yul\":5251:5420   */\n      swap3\n      swap2\n      pop\n      pop\n      jump\t// out\n        /* \"#utility.yul\":5426:5594   */\n    tag_141:\n        /* \"#utility.yul\":5566:5586   */\n      0x5472616e73616374696f6e204661696c65640000000000000000000000000000\n        /* \"#utility.yul\":5562:5563   */\n      0x00\n        /* \"#utility.yul\":5554:5560   */\n      dup3\n        /* \"#utility.yul\":5550:5564   */\n      add\n        /* \"#utility.yul\":5543:5587   */\n      mstore\n        /* \"#utility.yul\":5426:5594   */\n      pop\n      jump\t// out\n        /* \"#utility.yul\":5600:5966   */\n    tag_142:\n        /* \"#utility.yul\":5742:5745   */\n      0x00\n        /* \"#utility.yul\":5763:5830   */\n      tag_209\n        /* \"#utility.yul\":5827:5829   */\n      0x12\n        /* \"#utility.yul\":5822:5825   */\n      dup4\n        /* \"#utility.yul\":5763:5830   */\n      tag_140\n      jump\t// in\n    tag_209:\n        /* \"#utility.yul\":5756:5830   */\n      swap2\n      pop\n        /* \"#utility.yul\":5839:5932   */\n      tag_210\n        /* \"#utility.yul\":5928:5931   */\n      dup3\n        /* \"#utility.yul\":5839:5932   */\n      tag_141\n      jump\t// in\n    tag_210:\n        /* \"#utility.yul\":5957:5959   */\n      0x20\n        /* \"#utility.yul\":5952:5955   */\n      dup3\n        /* \"#utility.yul\":5948:5960   */\n      add\n        /* \"#utility.yul\":5941:5960   */\n      swap1\n      pop\n        /* \"#utility.yul\":5600:5966   */\n      swap2\n      swap1\n      pop\n      jump\t// out\n        /* \"#utility.yul\":5972:6391   */\n    tag_103:\n        /* \"#utility.yul\":6138:6142   */\n      0x00\n        /* \"#utility.yul\":6176:6178   */\n      0x20\n        /* \"#utility.yul\":6165:6174   */\n      dup3\n        /* \"#utility.yul\":6161:6179   */\n      add\n        /* \"#utility.yul\":6153:6179   */\n      swap1\n      pop\n        /* \"#utility.yul\":6225:6234   */\n      dup2\n        /* \"#utility.yul\":6219:6223   */\n      dup2\n        /* \"#utility.yul\":6215:6235   */\n      sub\n        /* \"#utility.yul\":6211:6212   */\n      0x00\n        /* \"#utility.yul\":6200:6209   */\n      dup4\n        /* \"#utility.yul\":6196:6213   */\n      add\n        /* \"#utility.yul\":6189:6236   */\n      mstore\n        /* \"#utility.yul\":6253:6384   */\n      tag_212\n        /* \"#utility.yul\":6379:6383   */\n      dup2\n        /* \"#utility.yul\":6253:6384   */\n      tag_142\n      jump\t// in\n    tag_212:\n        /* \"#utility.yul\":6245:6384   */\n      swap1\n      pop\n        /* \"#utility.yul\":5972:6391   */\n      swap2\n      swap1\n      pop\n      jump\t// out\n\n    auxdata: 0xa2646970667358221220b237c95149f795490332d5d2b60b4385191b48d88926323083c86b4055e0fe9064736f6c63430008110033\n}\n","bytecode":{"linkReferences":{},"object":"608060405266038d7ea4c6800060015566038d7ea4c6800060025566038d7ea4c6800060035534801561003157600080fd5b50610de5806100416000396000f3fe6080604052600436106100f35760003560e01c80635bce54411161008a5780639d7e7d38116100595780639d7e7d38146102a8578063ab033ea9146102e5578063b69ef8a81461030e578063f7be4f2a14610339576100f3565b80635bce5441146101ec5780637646a0041461021557806377956347146102405780638387271c1461026b576100f3565b80634b8be7ab116100c65780634b8be7ab146101535780634d10dcbb1461016f578063538220711461019a57806355dfd10c146101c3576100f3565b806306a5d642146100f8578063189ed356146101235780633ccfd60b1461013f57806340c89d1614610149575b600080fd5b34801561010457600080fd5b5061010d610343565b60405161011a9190610a9d565b60405180910390f35b61013d60048036038101906101389190610b51565b610397565b005b6101476104d7565b005b6101516106b8565b005b61016d60048036038101906101689190610b91565b6106df565b005b34801561017b57600080fd5b5061018461079c565b6040516101919190610bcd565b60405180910390f35b3480156101a657600080fd5b506101c160048036038101906101bc9190610be8565b6107a2565b005b3480156101cf57600080fd5b506101ea60048036038101906101e59190610be8565b610806565b005b3480156101f857600080fd5b50610213600480360381019061020e9190610be8565b61086a565b005b34801561022157600080fd5b5061022a6108ce565b6040516102379190610bcd565b60405180910390f35b34801561024c57600080fd5b506102556108d4565b6040516102629190610bcd565b60405180910390f35b34801561027757600080fd5b50610292600480360381019061028d9190610c15565b6108da565b60405161029f9190610a9d565b60405180910390f35b3480156102b457600080fd5b506102cf60048036038101906102ca9190610b91565b61096e565b6040516102dc9190610bcd565b60405180910390f35b3480156102f157600080fd5b5061030c60048036038101906103079190610b91565b6109b7565b005b34801561031a57600080fd5b50610323610a55565b6040516103309190610bcd565b60405180910390f35b610341610a5b565b005b6000600560003373ffffffffffffffffffffffffffffffffffffffff1673ffffffffffffffffffffffffffffffffffffffff16815260200190815260200160002060009054906101000a900460ff16905090565b600760009054906101000a900473ffffffffffffffffffffffffffffffffffffffff1673ffffffffffffffffffffffffffffffffffffffff163373ffffffffffffffffffffffffffffffffffffffff16146103f157600080fd5b80600054101561040057600080fd5b6000811161040d57600080fd5b80600460008473ffffffffffffffffffffffffffffffffffffffff1673ffffffffffffffffffffffffffffffffffffffff168152602001908152602001600020600082825461045c9190610c84565b92505081905550806000808282546104749190610cb8565b925050819055506001600560008473ffffffffffffffffffffffffffffffffffffffff1673ffffffffffffffffffffffffffffffffffffffff16815260200190815260200160002060006101000a81548160ff0219169083151502179055505050565b600560003373ffffffffffffffffffffffffffffffffffffffff1673ffffffffffffffffffffffffffffffffffffffff16815260200190815260200160002060009054906101000a900460ff1661052d57600080fd5b60003373ffffffffffffffffffffffffffffffffffffffff16600460003373ffffffffffffffffffffffffffffffffffffffff1673ffffffffffffffffffffffffffffffffffffffff1681526020019081526020016000205460405161059290610d1d565b60006040518083038185875af1925050503d80600081146105cf576040519150601f19603f3d011682016040523d82523d6000602084013e6105d4565b606091505b5050905080610618576040517f08c379a000000000000000000000000000000000000000000000000000000000815260040161060f90610d8f565b60405180910390fd5b6000600460003373ffffffffffffffffffffffffffffffffffffffff1673ffffffffffffffffffffffffffffffffffffffff168152602001908152602001600020819055506000600560003373ffffffffffffffffffffffffffffffffffffffff1673ffffffffffffffffffffffffffffffffffffffff16815260200190815260200160002060006101000a81548160ff02191690831515021790555050565b600034116106c557600080fd5b346000808282546106d69190610c84565b92505081905550565b600034116106ec57600080fd5b346000808282546106fd9190610c84565b925050819055506001600660003373ffffffffffffffffffffffffffffffffffffffff1673ffffffffffffffffffffffffffffffffffffffff16815260200190815260200160002060008373ffffffffffffffffffffffffffffffffffffffff1673ffffffffffffffffffffffffffffffffffffffff16815260200190815260200160002060006101000a81548160ff02191690831515021790555050565b60015481565b600760009054906101000a900473ffffffffffffffffffffffffffffffffffffffff1673ffffffffffffffffffffffffffffffffffffffff163373ffffffffffffffffffffffffffffffffffffffff16146107fc57600080fd5b8060028190555050565b600760009054906101000a900473ffffffffffffffffffffffffffffffffffffffff1673ffffffffffffffffffffffffffffffffffffffff163373ffffffffffffffffffffffffffffffffffffffff161461086057600080fd5b8060018190555050565b600760009054906101000a900473ffffffffffffffffffffffffffffffffffffffff1673ffffffffffffffffffffffffffffffffffffffff163373ffffffffffffffffffffffffffffffffffffffff16146108c457600080fd5b8060038190555050565b60025481565b60035481565b6000600660008473ffffffffffffffffffffffffffffffffffffffff1673ffffffffffffffffffffffffffffffffffffffff16815260200190815260200160002060008373ffffffffffffffffffffffffffffffffffffffff1673ffffffffffffffffffffffffffffffffffffffff16815260200190815260200160002060009054906101000a900460ff16905092915050565b6000600460008373ffffffffffffffffffffffffffffffffffffffff1673ffffffffffffffffffffffffffffffffffffffff168152602001908152602001600020549050919050565b600760009054906101000a900473ffffffffffffffffffffffffffffffffffffffff1673ffffffffffffffffffffffffffffffffffffffff163373ffffffffffffffffffffffffffffffffffffffff1614610a1157600080fd5b80600760006101000a81548173ffffffffffffffffffffffffffffffffffffffff021916908373ffffffffffffffffffffffffffffffffffffffff16021790555050565b60005481565b60003411610a6857600080fd5b34600080828254610a799190610c84565b92505081905550565b60008115159050919050565b610a9781610a82565b82525050565b6000602082019050610ab26000830184610a8e565b92915050565b600080fd5b600073ffffffffffffffffffffffffffffffffffffffff82169050919050565b6000610ae882610abd565b9050919050565b610af881610add565b8114610b0357600080fd5b50565b600081359050610b1581610aef565b92915050565b6000819050919050565b610b2e81610b1b565b8114610b3957600080fd5b50565b600081359050610b4b81610b25565b92915050565b60008060408385031215610b6857610b67610ab8565b5b6000610b7685828601610b06565b9250506020610b8785828601610b3c565b9150509250929050565b600060208284031215610ba757610ba6610ab8565b5b6000610bb584828501610b06565b91505092915050565b610bc781610b1b565b82525050565b6000602082019050610be26000830184610bbe565b92915050565b600060208284031215610bfe57610bfd610ab8565b5b6000610c0c84828501610b3c565b91505092915050565b60008060408385031215610c2c57610c2b610ab8565b5b6000610c3a85828601610b06565b9250506020610c4b85828601610b06565b9150509250929050565b7f4e487b7100000000000000000000000000000000000000000000000000000000600052601160045260246000fd5b6000610c8f82610b1b565b9150610c9a83610b1b565b9250828201905080821115610cb257610cb1610c55565b5b92915050565b6000610cc382610b1b565b9150610cce83610b1b565b9250828203905081811115610ce657610ce5610c55565b5b92915050565b600081905092915050565b50565b6000610d07600083610cec565b9150610d1282610cf7565b600082019050919050565b6000610d2882610cfa565b9150819050919050565b600082825260208201905092915050565b7f5472616e73616374696f6e204661696c65640000000000000000000000000000600082015250565b6000610d79601283610d32565b9150610d8482610d43565b602082019050919050565b60006020820190508181036000830152610da881610d6c565b905091905056fea2646970667358221220b237c95149f795490332d5d2b60b4385191b48d88926323083c86b4055e0fe9064736f6c63430008110033","opcodes":"PUSH1 0x80 PUSH1 0x40 MSTORE PUSH7 0x38D7EA4C68000 PUSH1 0x1 SSTORE PUSH7 0x38D7EA4C68000 PUSH1 0x2 SSTORE PUSH7 0x38D7EA4C68000 PUSH1 0x3 SSTORE CALLVALUE DUP1 ISZERO PUSH2 0x31 JUMPI PUSH1 0x0 DUP1 REVERT JUMPDEST POP PUSH2 0xDE5 DUP1 PUSH2 0x41 PUSH1 0x0 CODECOPY PUSH1 0x0 RETURN INVALID PUSH1 0x80 PUSH1 0x40 MSTORE PUSH1 0x4 CALLDATASIZE LT PUSH2 0xF3 JUMPI PUSH1 0x0 CALLDATALOAD PUSH1 0xE0 SHR DUP1 PUSH4 0x5BCE5441 GT PUSH2 0x8A JUMPI DUP1 PUSH4 0x9D7E7D38 GT PUSH2 0x59 JUMPI DUP1 PUSH4 0x9D7E7D38 EQ PUSH2 0x2A8 JUMPI DUP1 PUSH4 0xAB033EA9 EQ PUSH2 0x2E5 JUMPI DUP1 PUSH4 0xB69EF8A8 EQ PUSH2 0x30E JUMPI DUP1 PUSH4 0xF7BE4F2A EQ PUSH2 0x339 JUMPI PUSH2 0xF3 JUMP JUMPDEST DUP1 PUSH4 0x5BCE5441 EQ PUSH2 0x1EC JUMPI DUP1 PUSH4 0x7646A004 EQ PUSH2 0x215 JUMPI DUP1 PUSH4 0x77956347 EQ PUSH2 0x240 JUMPI DUP1 PUSH4 0x8387271C EQ PUSH2 0x26B JUMPI PUSH2 0xF3 JUMP JUMPDEST DUP1 PUSH4 0x4B8BE7AB GT PUSH2 0xC6 JUMPI DUP1 PUSH4 0x4B8BE7AB EQ PUSH2 0x153 JUMPI DUP1 PUSH4 0x4D10DCBB EQ PUSH2 0x16F JUMPI DUP1 PUSH4 0x53822071 EQ PUSH2 0x19A JUMPI DUP1 PUSH4 0x55DFD10C EQ PUSH2 0x1C3 JUMPI PUSH2 0xF3 JUMP JUMPDEST DUP1 PUSH4 0x6A5D642 EQ PUSH2 0xF8 JUMPI DUP1 PUSH4 0x189ED356 EQ PUSH2 0x123 JUMPI DUP1 PUSH4 0x3CCFD60B EQ PUSH2 0x13F JUMPI DUP1 PUSH4 0x40C89D16 EQ PUSH2 0x149 JUMPI JUMPDEST PUSH1 0x0 DUP1 REVERT JUMPDEST CALLVALUE DUP1 ISZERO PUSH2 0x104 JUMPI PUSH1 0x0 DUP1 REVERT JUMPDEST POP PUSH2 0x10D PUSH2 0x343 JUMP JUMPDEST PUSH1 0x40 MLOAD PUSH2 0x11A SWAP2 SWAP1 PUSH2 0xA9D JUMP JUMPDEST PUSH1 0x40 MLOAD DUP1 SWAP2 SUB SWAP1 RETURN JUMPDEST PUSH2 0x13D PUSH1 0x4 DUP1 CALLDATASIZE SUB DUP2 ADD SWAP1 PUSH2 0x138 SWAP2 SWAP1 PUSH2 0xB51 JUMP JUMPDEST PUSH2 0x397 JUMP JUMPDEST STOP JUMPDEST PUSH2 0x147 PUSH2 0x4D7 JUMP JUMPDEST STOP JUMPDEST PUSH2 0x151 PUSH2 0x6B8 JUMP JUMPDEST STOP JUMPDEST PUSH2 0x16D PUSH1 0x4 DUP1 CALLDATASIZE SUB DUP2 ADD SWAP1 PUSH2 0x168 SWAP2 SWAP1 PUSH2 0xB91 JUMP JUMPDEST PUSH2 0x6DF JUMP JUMPDEST STOP JUMPDEST CALLVALUE DUP1 ISZERO PUSH2 0x17B JUMPI PUSH1 0x0 DUP1 REVERT JUMPDEST POP PUSH2 0x184 PUSH2 0x79C JUMP JUMPDEST PUSH1 0x40 MLOAD PUSH2 0x191 SWAP2 SWAP1 PUSH2 0xBCD JUMP JUMPDEST PUSH1 0x40 MLOAD DUP1 SWAP2 SUB SWAP1 RETURN JUMPDEST CALLVALUE DUP1 ISZERO PUSH2 0x1A6 JUMPI PUSH1 0x0 DUP1 REVERT JUMPDEST POP PUSH2 0x1C1 PUSH1 0x4 DUP1 CALLDATASIZE SUB DUP2 ADD SWAP1 PUSH2 0x1BC SWAP2 SWAP1 PUSH2 0xBE8 JUMP JUMPDEST PUSH2 0x7A2 JUMP JUMPDEST STOP JUMPDEST CALLVALUE DUP1 ISZERO PUSH2 0x1CF JUMPI PUSH1 0x0 DUP1 REVERT JUMPDEST POP PUSH2 0x1EA PUSH1 0x4 DUP1 CALLDATASIZE SUB DUP2 ADD SWAP1 PUSH2 0x1E5 SWAP2 SWAP1 PUSH2 0xBE8 JUMP JUMPDEST PUSH2 0x806 JUMP JUMPDEST STOP JUMPDEST CALLVALUE DUP1 ISZERO PUSH2 0x1F8 JUMPI PUSH1 0x0 DUP1 REVERT JUMPDEST POP PUSH2 0x213 PUSH1 0x4 DUP1 CALLDATASIZE SUB DUP2 ADD SWAP1 PUSH2 0x20E SWAP2 SWAP1 PUSH2 0xBE8 JUMP JUMPDEST PUSH2 0x86A JUMP JUMPDEST STOP JUMPDEST CALLVALUE DUP1 ISZERO PUSH2 0x221 JUMPI PUSH1 0x0 DUP1 REVERT JUMPDEST POP PUSH2 0x22A PUSH2 0x8CE JUMP JUMPDEST PUSH1 0x40 MLOAD PUSH2 0x237 SWAP2 SWAP1 PUSH2 0xBCD JUMP JUMPDEST PUSH1 0x40 MLOAD DUP1 SWAP2 SUB SWAP1 RETURN JUMPDEST CALLVALUE DUP1 ISZERO PUSH2 0x24C JUMPI PUSH1 0x0 DUP1 REVERT JUMPDEST POP PUSH2 0x255 PUSH2 0x8D4 JUMP JUMPDEST PUSH1 0x40 MLOAD PUSH2 0x262 SWAP2 SWAP1 PUSH2 0xBCD JUMP JUMPDEST PUSH1 0x40 MLOAD DUP1 SWAP2 SUB SWAP1 RETURN JUMPDEST CALLVALUE DUP1 ISZERO PUSH2 0x277 JUMPI PUSH1 0x0 DUP1 REVERT JUMPDEST POP PUSH2 0x292 PUSH1 0x4 DUP1 CALLDATASIZE SUB DUP2 ADD SWAP1 PUSH2 0x28D SWAP2 SWAP1 PUSH2 0xC15 JUMP JUMPDEST PUSH2 0x8DA JUMP JUMPDEST PUSH1 0x40 MLOAD PUSH2 0x29F SWAP2 SWAP1 PUSH2 0xA9D JUMP JUMPDEST PUSH1 0x40 MLOAD DUP1 SWAP2 SUB SWAP1 RETURN JUMPDEST CALLVALUE DUP1 ISZERO PUSH2 0x2B4 JUMPI PUSH1 0x0 DUP1 REVERT JUMPDEST POP PUSH2 0x2CF PUSH1 0x4 DUP1 CALLDATASIZE SUB DUP2 ADD SWAP1 PUSH2 0x2CA SWAP2 SWAP1 PUSH2 0xB91 JUMP JUMPDEST PUSH2 0x96E JUMP JUMPDEST PUSH1 0x40 MLOAD PUSH2 0x2DC SWAP2 SWAP1 PUSH2 0xBCD JUMP JUMPDEST PUSH1 0x40 MLOAD DUP1 SWAP2 SUB SWAP1 RETURN JUMPDEST CALLVALUE DUP1 ISZERO PUSH2 0x2F1 JUMPI PUSH1 0x0 DUP1 REVERT JUMPDEST POP PUSH2 0x30C PUSH1 0x4 DUP1 CALLDATASIZE SUB DUP2 ADD SWAP1 PUSH2 0x307 SWAP2 SWAP1 PUSH2 0xB91 JUMP JUMPDEST PUSH2 0x9B7 JUMP JUMPDEST STOP JUMPDEST CALLVALUE DUP1 ISZERO PUSH2 0x31A JUMPI PUSH1 0x0 DUP1 REVERT JUMPDEST POP PUSH2 0x323 PUSH2 0xA55 JUMP JUMPDEST PUSH1 0x40 MLOAD PUSH2 0x330 SWAP2 SWAP1 PUSH2 0xBCD JUMP JUMPDEST PUSH1 0x40 MLOAD DUP1 SWAP2 SUB SWAP1 RETURN JUMPDEST PUSH2 0x341 PUSH2 0xA5B JUMP JUMPDEST STOP JUMPDEST PUSH1 0x0 PUSH1 0x5 PUSH1 0x0 CALLER PUSH20 0xFFFFFFFFFFFFFFFFFFFFFFFFFFFFFFFFFFFFFFFF AND PUSH20 0xFFFFFFFFFFFFFFFFFFFFFFFFFFFFFFFFFFFFFFFF AND DUP2 MSTORE PUSH1 0x20 ADD SWAP1 DUP2 MSTORE PUSH1 0x20 ADD PUSH1 0x0 KECCAK256 PUSH1 0x0 SWAP1 SLOAD SWAP1 PUSH2 0x100 EXP SWAP1 DIV PUSH1 0xFF AND SWAP1 POP SWAP1 JUMP JUMPDEST PUSH1 0x7 PUSH1 0x0 SWAP1 SLOAD SWAP1 PUSH2 0x100 EXP SWAP1 DIV PUSH20 0xFFFFFFFFFFFFFFFFFFFFFFFFFFFFFFFFFFFFFFFF AND PUSH20 0xFFFFFFFFFFFFFFFFFFFFFFFFFFFFFFFFFFFFFFFF AND CALLER PUSH20 0xFFFFFFFFFFFFFFFFFFFFFFFFFFFFFFFFFFFFFFFF AND EQ PUSH2 0x3F1 JUMPI PUSH1 0x0 DUP1 REVERT JUMPDEST DUP1 PUSH1 0x0 SLOAD LT ISZERO PUSH2 0x400 JUMPI PUSH1 0x0 DUP1 REVERT JUMPDEST PUSH1 0x0 DUP2 GT PUSH2 0x40D JUMPI PUSH1 0x0 DUP1 REVERT JUMPDEST DUP1 PUSH1 0x4 PUSH1 0x0 DUP5 PUSH20 0xFFFFFFFFFFFFFFFFFFFFFFFFFFFFFFFFFFFFFFFF AND PUSH20 0xFFFFFFFFFFFFFFFFFFFFFFFFFFFFFFFFFFFFFFFF AND DUP2 MSTORE PUSH1 0x20 ADD SWAP1 DUP2 MSTORE PUSH1 0x20 ADD PUSH1 0x0 KECCAK256 PUSH1 0x0 DUP3 DUP3 SLOAD PUSH2 0x45C SWAP2 SWAP1 PUSH2 0xC84 JUMP JUMPDEST SWAP3 POP POP DUP2 SWAP1 SSTORE POP DUP1 PUSH1 0x0 DUP1 DUP3 DUP3 SLOAD PUSH2 0x474 SWAP2 SWAP1 PUSH2 0xCB8 JUMP JUMPDEST SWAP3 POP POP DUP2 SWAP1 SSTORE POP PUSH1 0x1 PUSH1 0x5 PUSH1 0x0 DUP5 PUSH20 0xFFFFFFFFFFFFFFFFFFFFFFFFFFFFFFFFFFFFFFFF AND PUSH20 0xFFFFFFFFFFFFFFFFFFFFFFFFFFFFFFFFFFFFFFFF AND DUP2 MSTORE PUSH1 0x20 ADD SWAP1 DUP2 MSTORE PUSH1 0x20 ADD PUSH1 0x0 KECCAK256 PUSH1 0x0 PUSH2 0x100 EXP DUP2 SLOAD DUP2 PUSH1 0xFF MUL NOT AND SWAP1 DUP4 ISZERO ISZERO MUL OR SWAP1 SSTORE POP POP POP JUMP JUMPDEST PUSH1 0x5 PUSH1 0x0 CALLER PUSH20 0xFFFFFFFFFFFFFFFFFFFFFFFFFFFFFFFFFFFFFFFF AND PUSH20 0xFFFFFFFFFFFFFFFFFFFFFFFFFFFFFFFFFFFFFFFF AND DUP2 MSTORE PUSH1 0x20 ADD SWAP1 DUP2 MSTORE PUSH1 0x20 ADD PUSH1 0x0 KECCAK256 PUSH1 0x0 SWAP1 SLOAD SWAP1 PUSH2 0x100 EXP SWAP1 DIV PUSH1 0xFF AND PUSH2 0x52D JUMPI PUSH1 0x0 DUP1 REVERT JUMPDEST PUSH1 0x0 CALLER PUSH20 0xFFFFFFFFFFFFFFFFFFFFFFFFFFFFFFFFFFFFFFFF AND PUSH1 0x4 PUSH1 0x0 CALLER PUSH20 0xFFFFFFFFFFFFFFFFFFFFFFFFFFFFFFFFFFFFFFFF AND PUSH20 0xFFFFFFFFFFFFFFFFFFFFFFFFFFFFFFFFFFFFFFFF AND DUP2 MSTORE PUSH1 0x20 ADD SWAP1 DUP2 MSTORE PUSH1 0x20 ADD PUSH1 0x0 KECCAK256 SLOAD PUSH1 0x40 MLOAD PUSH2 0x592 SWAP1 PUSH2 0xD1D JUMP JUMPDEST PUSH1 0x0 PUSH1 0x40 MLOAD DUP1 DUP4 SUB DUP2 DUP6 DUP8 GAS CALL SWAP3 POP POP POP RETURNDATASIZE DUP1 PUSH1 0x0 DUP2 EQ PUSH2 0x5CF JUMPI PUSH1 0x40 MLOAD SWAP2 POP PUSH1 0x1F NOT PUSH1 0x3F RETURNDATASIZE ADD AND DUP3 ADD PUSH1 0x40 MSTORE RETURNDATASIZE DUP3 MSTORE RETURNDATASIZE PUSH1 0x0 PUSH1 0x20 DUP5 ADD RETURNDATACOPY PUSH2 0x5D4 JUMP JUMPDEST PUSH1 0x60 SWAP2 POP JUMPDEST POP POP SWAP1 POP DUP1 PUSH2 0x618 JUMPI PUSH1 0x40 MLOAD PUSH32 0x8C379A000000000000000000000000000000000000000000000000000000000 DUP2 MSTORE PUSH1 0x4 ADD PUSH2 0x60F SWAP1 PUSH2 0xD8F JUMP JUMPDEST PUSH1 0x40 MLOAD DUP1 SWAP2 SUB SWAP1 REVERT JUMPDEST PUSH1 0x0 PUSH1 0x4 PUSH1 0x0 CALLER PUSH20 0xFFFFFFFFFFFFFFFFFFFFFFFFFFFFFFFFFFFFFFFF AND PUSH20 0xFFFFFFFFFFFFFFFFFFFFFFFFFFFFFFFFFFFFFFFF AND DUP2 MSTORE PUSH1 0x20 ADD SWAP1 DUP2 MSTORE PUSH1 0x20 ADD PUSH1 0x0 KECCAK256 DUP2 SWAP1 SSTORE POP PUSH1 0x0 PUSH1 0x5 PUSH1 0x0 CALLER PUSH20 0xFFFFFFFFFFFFFFFFFFFFFFFFFFFFFFFFFFFFFFFF AND PUSH20 0xFFFFFFFFFFFFFFFFFFFFFFFFFFFFFFFFFFFFFFFF AND DUP2 MSTORE PUSH1 0x20 ADD SWAP1 DUP2 MSTORE PUSH1 0x20 ADD PUSH1 0x0 KECCAK256 PUSH1 0x0 PUSH2 0x100 EXP DUP2 SLOAD DUP2 PUSH1 0xFF MUL NOT AND SWAP1 DUP4 ISZERO ISZERO MUL OR SWAP1 SSTORE POP POP JUMP JUMPDEST PUSH1 0x0 CALLVALUE GT PUSH2 0x6C5 JUMPI PUSH1 0x0 DUP1 REVERT JUMPDEST CALLVALUE PUSH1 0x0 DUP1 DUP3 DUP3 SLOAD PUSH2 0x6D6 SWAP2 SWAP1 PUSH2 0xC84 JUMP JUMPDEST SWAP3 POP POP DUP2 SWAP1 SSTORE POP JUMP JUMPDEST PUSH1 0x0 CALLVALUE GT PUSH2 0x6EC JUMPI PUSH1 0x0 DUP1 REVERT JUMPDEST CALLVALUE PUSH1 0x0 DUP1 DUP3 DUP3 SLOAD PUSH2 0x6FD SWAP2 SWAP1 PUSH2 0xC84 JUMP JUMPDEST SWAP3 POP POP DUP2 SWAP1 SSTORE POP PUSH1 0x1 PUSH1 0x6 PUSH1 0x0 CALLER PUSH20 0xFFFFFFFFFFFFFFFFFFFFFFFFFFFFFFFFFFFFFFFF AND PUSH20 0xFFFFFFFFFFFFFFFFFFFFFFFFFFFFFFFFFFFFFFFF AND DUP2 MSTORE PUSH1 0x20 ADD SWAP1 DUP2 MSTORE PUSH1 0x20 ADD PUSH1 0x0 KECCAK256 PUSH1 0x0 DUP4 PUSH20 0xFFFFFFFFFFFFFFFFFFFFFFFFFFFFFFFFFFFFFFFF AND PUSH20 0xFFFFFFFFFFFFFFFFFFFFFFFFFFFFFFFFFFFFFFFF AND DUP2 MSTORE PUSH1 0x20 ADD SWAP1 DUP2 MSTORE PUSH1 0x20 ADD PUSH1 0x0 KECCAK256 PUSH1 0x0 PUSH2 0x100 EXP DUP2 SLOAD DUP2 PUSH1 0xFF MUL NOT AND SWAP1 DUP4 ISZERO ISZERO MUL OR SWAP1 SSTORE POP POP JUMP JUMPDEST PUSH1 0x1 SLOAD DUP2 JUMP JUMPDEST PUSH1 0x7 PUSH1 0x0 SWAP1 SLOAD SWAP1 PUSH2 0x100 EXP SWAP1 DIV PUSH20 0xFFFFFFFFFFFFFFFFFFFFFFFFFFFFFFFFFFFFFFFF AND PUSH20 0xFFFFFFFFFFFFFFFFFFFFFFFFFFFFFFFFFFFFFFFF AND CALLER PUSH20 0xFFFFFFFFFFFFFFFFFFFFFFFFFFFFFFFFFFFFFFFF AND EQ PUSH2 0x7FC JUMPI PUSH1 0x0 DUP1 REVERT JUMPDEST DUP1 PUSH1 0x2 DUP2 SWAP1 SSTORE POP POP JUMP JUMPDEST PUSH1 0x7 PUSH1 0x0 SWAP1 SLOAD SWAP1 PUSH2 0x100 EXP SWAP1 DIV PUSH20 0xFFFFFFFFFFFFFFFFFFFFFFFFFFFFFFFFFFFFFFFF AND PUSH20 0xFFFFFFFFFFFFFFFFFFFFFFFFFFFFFFFFFFFFFFFF AND CALLER PUSH20 0xFFFFFFFFFFFFFFFFFFFFFFFFFFFFFFFFFFFFFFFF AND EQ PUSH2 0x860 JUMPI PUSH1 0x0 DUP1 REVERT JUMPDEST DUP1 PUSH1 0x1 DUP2 SWAP1 SSTORE POP POP JUMP JUMPDEST PUSH1 0x7 PUSH1 0x0 SWAP1 SLOAD SWAP1 PUSH2 0x100 EXP SWAP1 DIV PUSH20 0xFFFFFFFFFFFFFFFFFFFFFFFFFFFFFFFFFFFFFFFF AND PUSH20 0xFFFFFFFFFFFFFFFFFFFFFFFFFFFFFFFFFFFFFFFF AND CALLER PUSH20 0xFFFFFFFFFFFFFFFFFFFFFFFFFFFFFFFFFFFFFFFF AND EQ PUSH2 0x8C4 JUMPI PUSH1 0x0 DUP1 REVERT JUMPDEST DUP1 PUSH1 0x3 DUP2 SWAP1 SSTORE POP POP JUMP JUMPDEST PUSH1 0x2 SLOAD DUP2 JUMP JUMPDEST PUSH1 0x3 SLOAD DUP2 JUMP JUMPDEST PUSH1 0x0 PUSH1 0x6 PUSH1 0x0 DUP5 PUSH20 0xFFFFFFFFFFFFFFFFFFFFFFFFFFFFFFFFFFFFFFFF AND PUSH20 0xFFFFFFFFFFFFFFFFFFFFFFFFFFFFFFFFFFFFFFFF AND DUP2 MSTORE PUSH1 0x20 ADD SWAP1 DUP2 MSTORE PUSH1 0x20 ADD PUSH1 0x0 KECCAK256 PUSH1 0x0 DUP4 PUSH20 0xFFFFFFFFFFFFFFFFFFFFFFFFFFFFFFFFFFFFFFFF AND PUSH20 0xFFFFFFFFFFFFFFFFFFFFFFFFFFFFFFFFFFFFFFFF AND DUP2 MSTORE PUSH1 0x20 ADD SWAP1 DUP2 MSTORE PUSH1 0x20 ADD PUSH1 0x0 KECCAK256 PUSH1 0x0 SWAP1 SLOAD SWAP1 PUSH2 0x100 EXP SWAP1 DIV PUSH1 0xFF AND SWAP1 POP SWAP3 SWAP2 POP POP JUMP JUMPDEST PUSH1 0x0 PUSH1 0x4 PUSH1 0x0 DUP4 PUSH20 0xFFFFFFFFFFFFFFFFFFFFFFFFFFFFFFFFFFFFFFFF AND PUSH20 0xFFFFFFFFFFFFFFFFFFFFFFFFFFFFFFFFFFFFFFFF AND DUP2 MSTORE PUSH1 0x20 ADD SWAP1 DUP2 MSTORE PUSH1 0x20 ADD PUSH1 0x0 KECCAK256 SLOAD SWAP1 POP SWAP2 SWAP1 POP JUMP JUMPDEST PUSH1 0x7 PUSH1 0x0 SWAP1 SLOAD SWAP1 PUSH2 0x100 EXP SWAP1 DIV PUSH20 0xFFFFFFFFFFFFFFFFFFFFFFFFFFFFFFFFFFFFFFFF AND PUSH20 0xFFFFFFFFFFFFFFFFFFFFFFFFFFFFFFFFFFFFFFFF AND CALLER PUSH20 0xFFFFFFFFFFFFFFFFFFFFFFFFFFFFFFFFFFFFFFFF AND EQ PUSH2 0xA11 JUMPI PUSH1 0x0 DUP1 REVERT JUMPDEST DUP1 PUSH1 0x7 PUSH1 0x0 PUSH2 0x100 EXP DUP2 SLOAD DUP2 PUSH20 0xFFFFFFFFFFFFFFFFFFFFFFFFFFFFFFFFFFFFFFFF MUL NOT AND SWAP1 DUP4 PUSH20 0xFFFFFFFFFFFFFFFFFFFFFFFFFFFFFFFFFFFFFFFF AND MUL OR SWAP1 SSTORE POP POP JUMP JUMPDEST PUSH1 0x0 SLOAD DUP2 JUMP JUMPDEST PUSH1 0x0 CALLVALUE GT PUSH2 0xA68 JUMPI PUSH1 0x0 DUP1 REVERT JUMPDEST CALLVALUE PUSH1 0x0 DUP1 DUP3 DUP3 SLOAD PUSH2 0xA79 SWAP2 SWAP1 PUSH2 0xC84 JUMP JUMPDEST SWAP3 POP POP DUP2 SWAP1 SSTORE POP JUMP JUMPDEST PUSH1 0x0 DUP2 ISZERO ISZERO SWAP1 POP SWAP2 SWAP1 POP JUMP JUMPDEST PUSH2 0xA97 DUP2 PUSH2 0xA82 JUMP JUMPDEST DUP3 MSTORE POP POP JUMP JUMPDEST PUSH1 0x0 PUSH1 0x20 DUP3 ADD SWAP1 POP PUSH2 0xAB2 PUSH1 0x0 DUP4 ADD DUP5 PUSH2 0xA8E JUMP JUMPDEST SWAP3 SWAP2 POP POP JUMP JUMPDEST PUSH1 0x0 DUP1 REVERT JUMPDEST PUSH1 0x0 PUSH20 0xFFFFFFFFFFFFFFFFFFFFFFFFFFFFFFFFFFFFFFFF DUP3 AND SWAP1 POP SWAP2 SWAP1 POP JUMP JUMPDEST PUSH1 0x0 PUSH2 0xAE8 DUP3 PUSH2 0xABD JUMP JUMPDEST SWAP1 POP SWAP2 SWAP1 POP JUMP JUMPDEST PUSH2 0xAF8 DUP2 PUSH2 0xADD JUMP JUMPDEST DUP2 EQ PUSH2 0xB03 JUMPI PUSH1 0x0 DUP1 REVERT JUMPDEST POP JUMP JUMPDEST PUSH1 0x0 DUP2 CALLDATALOAD SWAP1 POP PUSH2 0xB15 DUP2 PUSH2 0xAEF JUMP JUMPDEST SWAP3 SWAP2 POP POP JUMP JUMPDEST PUSH1 0x0 DUP2 SWAP1 POP SWAP2 SWAP1 POP JUMP JUMPDEST PUSH2 0xB2E DUP2 PUSH2 0xB1B JUMP JUMPDEST DUP2 EQ PUSH2 0xB39 JUMPI PUSH1 0x0 DUP1 REVERT JUMPDEST POP JUMP JUMPDEST PUSH1 0x0 DUP2 CALLDATALOAD SWAP1 POP PUSH2 0xB4B DUP2 PUSH2 0xB25 JUMP JUMPDEST SWAP3 SWAP2 POP POP JUMP JUMPDEST PUSH1 0x0 DUP1 PUSH1 0x40 DUP4 DUP6 SUB SLT ISZERO PUSH2 0xB68 JUMPI PUSH2 0xB67 PUSH2 0xAB8 JUMP JUMPDEST JUMPDEST PUSH1 0x0 PUSH2 0xB76 DUP6 DUP3 DUP7 ADD PUSH2 0xB06 JUMP JUMPDEST SWAP3 POP POP PUSH1 0x20 PUSH2 0xB87 DUP6 DUP3 DUP7 ADD PUSH2 0xB3C JUMP JUMPDEST SWAP2 POP POP SWAP3 POP SWAP3 SWAP1 POP JUMP JUMPDEST PUSH1 0x0 PUSH1 0x20 DUP3 DUP5 SUB SLT ISZERO PUSH2 0xBA7 JUMPI PUSH2 0xBA6 PUSH2 0xAB8 JUMP JUMPDEST JUMPDEST PUSH1 0x0 PUSH2 0xBB5 DUP5 DUP3 DUP6 ADD PUSH2 0xB06 JUMP JUMPDEST SWAP2 POP POP SWAP3 SWAP2 POP POP JUMP JUMPDEST PUSH2 0xBC7 DUP2 PUSH2 0xB1B JUMP JUMPDEST DUP3 MSTORE POP POP JUMP JUMPDEST PUSH1 0x0 PUSH1 0x20 DUP3 ADD SWAP1 POP PUSH2 0xBE2 PUSH1 0x0 DUP4 ADD DUP5 PUSH2 0xBBE JUMP JUMPDEST SWAP3 SWAP2 POP POP JUMP JUMPDEST PUSH1 0x0 PUSH1 0x20 DUP3 DUP5 SUB SLT ISZERO PUSH2 0xBFE JUMPI PUSH2 0xBFD PUSH2 0xAB8 JUMP JUMPDEST JUMPDEST PUSH1 0x0 PUSH2 0xC0C DUP5 DUP3 DUP6 ADD PUSH2 0xB3C JUMP JUMPDEST SWAP2 POP POP SWAP3 SWAP2 POP POP JUMP JUMPDEST PUSH1 0x0 DUP1 PUSH1 0x40 DUP4 DUP6 SUB SLT ISZERO PUSH2 0xC2C JUMPI PUSH2 0xC2B PUSH2 0xAB8 JUMP JUMPDEST JUMPDEST PUSH1 0x0 PUSH2 0xC3A DUP6 DUP3 DUP7 ADD PUSH2 0xB06 JUMP JUMPDEST SWAP3 POP POP PUSH1 0x20 PUSH2 0xC4B DUP6 DUP3 DUP7 ADD PUSH2 0xB06 JUMP JUMPDEST SWAP2 POP POP SWAP3 POP SWAP3 SWAP1 POP JUMP JUMPDEST PUSH32 0x4E487B7100000000000000000000000000000000000000000000000000000000 PUSH1 0x0 MSTORE PUSH1 0x11 PUSH1 0x4 MSTORE PUSH1 0x24 PUSH1 0x0 REVERT JUMPDEST PUSH1 0x0 PUSH2 0xC8F DUP3 PUSH2 0xB1B JUMP JUMPDEST SWAP2 POP PUSH2 0xC9A DUP4 PUSH2 0xB1B JUMP JUMPDEST SWAP3 POP DUP3 DUP3 ADD SWAP1 POP DUP1 DUP3 GT ISZERO PUSH2 0xCB2 JUMPI PUSH2 0xCB1 PUSH2 0xC55 JUMP JUMPDEST JUMPDEST SWAP3 SWAP2 POP POP JUMP JUMPDEST PUSH1 0x0 PUSH2 0xCC3 DUP3 PUSH2 0xB1B JUMP JUMPDEST SWAP2 POP PUSH2 0xCCE DUP4 PUSH2 0xB1B JUMP JUMPDEST SWAP3 POP DUP3 DUP3 SUB SWAP1 POP DUP2 DUP2 GT ISZERO PUSH2 0xCE6 JUMPI PUSH2 0xCE5 PUSH2 0xC55 JUMP JUMPDEST JUMPDEST SWAP3 SWAP2 POP POP JUMP JUMPDEST PUSH1 0x0 DUP2 SWAP1 POP SWAP3 SWAP2 POP POP JUMP JUMPDEST POP JUMP JUMPDEST PUSH1 0x0 PUSH2 0xD07 PUSH1 0x0 DUP4 PUSH2 0xCEC JUMP JUMPDEST SWAP2 POP PUSH2 0xD12 DUP3 PUSH2 0xCF7 JUMP JUMPDEST PUSH1 0x0 DUP3 ADD SWAP1 POP SWAP2 SWAP1 POP JUMP JUMPDEST PUSH1 0x0 PUSH2 0xD28 DUP3 PUSH2 0xCFA JUMP JUMPDEST SWAP2 POP DUP2 SWAP1 POP SWAP2 SWAP1 POP JUMP JUMPDEST PUSH1 0x0 DUP3 DUP3 MSTORE PUSH1 0x20 DUP3 ADD SWAP1 POP SWAP3 SWAP2 POP POP JUMP JUMPDEST PUSH32 0x5472616E73616374696F6E204661696C65640000000000000000000000000000 PUSH1 0x0 DUP3 ADD MSTORE POP JUMP JUMPDEST PUSH1 0x0 PUSH2 0xD79 PUSH1 0x12 DUP4 PUSH2 0xD32 JUMP JUMPDEST SWAP2 POP PUSH2 0xD84 DUP3 PUSH2 0xD43 JUMP JUMPDEST PUSH1 0x20 DUP3 ADD SWAP1 POP SWAP2 SWAP1 POP JUMP JUMPDEST PUSH1 0x0 PUSH1 0x20 DUP3 ADD SWAP1 POP DUP2 DUP2 SUB PUSH1 0x0 DUP4 ADD MSTORE PUSH2 0xDA8 DUP2 PUSH2 0xD6C JUMP JUMPDEST SWAP1 POP SWAP2 SWAP1 POP JUMP INVALID LOG2 PUSH5 0x6970667358 0x22 SLT KECCAK256 0xB2 CALLDATACOPY 0xC9 MLOAD 0x49 0xF7 SWAP6 0x49 SUB ORIGIN 0xD5 0xD2 0xB6 SIGNEXTEND NUMBER DUP6 NOT SHL BASEFEE 0xD8 DUP10 0x26 ORIGIN ADDRESS DUP4 0xC8 PUSH12 0x4055E0FE9064736F6C634300 ADDMOD GT STOP CALLER "},"gasEstimates":{"creation":{"codeDepositCost":"711400","executionCost":"67065","totalCost":"778465"},"external":{"allocateFunds(address,uint256)":"infinite","balance()":"2495","didPayApplicantFee(address,address)":"infinite","getMemberAllocation(address)":"2863","hasAllocation()":"2592","newApplicantFee()":"2474","newPoolFee()":"2474","newProposalFee()":"2496","payNewApplicantFee(address)":"infinite","payNewPoolFee()":"infinite","payNewProposalFee()":"infinite","setGovernance(address)":"26936","setNewApplicantFee(uint256)":"24779","setNewPoolFee(uint256)":"24757","setNewProposalFee(uint256)":"24713","withdraw()":"infinite"}},"methodIdentifiers":{"allocateFunds(address,uint256)":"189ed356","balance()":"b69ef8a8","didPayApplicantFee(address,address)":"8387271c","getMemberAllocation(address)":"9d7e7d38","hasAllocation()":"06a5d642","newApplicantFee()":"4d10dcbb","newPoolFee()":"7646a004","newProposalFee()":"77956347","payNewApplicantFee(address)":"4b8be7ab","payNewPoolFee()":"f7be4f2a","payNewProposalFee()":"40c89d16","setGovernance(address)":"ab033ea9","setNewApplicantFee(uint256)":"55dfd10c","setNewPoolFee(uint256)":"53822071","setNewProposalFee(uint256)":"5bce5441","withdraw()":"3ccfd60b"}},"storageLayout":{"storage":[{"astId":2008,"contract":"Treasury.sol:Treasury","label":"balance","offset":0,"slot":"0","type":"t_uint256"},{"astId":2011,"contract":"Treasury.sol:Treasury","label":"newApplicantFee","offset":0,"slot":"1","type":"t_uint256"},{"astId":2014,"contract":"Treasury.sol:Treasury","label":"newPoolFee","offset":0,"slot":"2","type":"t_uint256"},{"astId":2017,"contract":"Treasury.sol:Treasury","label":"newProposalFee","offset":0,"slot":"3","type":"t_uint256"},{"astId":2021,"contract":"Treasury.sol:Treasury","label":"memberAllocation","offset":0,"slot":"4","type":"t_mapping(t_address,t_uint256)"},{"astId":2025,"contract":"Treasury.sol:Treasury","label":"memberHasAllocation","offset":0,"slot":"5","type":"t_mapping(t_address,t_bool)"},{"astId":2031,"contract":"Treasury.sol:Treasury","label":"applicantFeeRecords","offset":0,"slot":"6","type":"t_mapping(t_address,t_mapping(t_address,t_bool))"},{"astId":2033,"contract":"Treasury.sol:Treasury","label":"governanceAddress","offset":0,"slot":"7","type":"t_address"}],"types":{"t_address":{"encoding":"inplace","label":"address","numberOfBytes":"20"},"t_bool":{"encoding":"inplace","label":"bool","numberOfBytes":"1"},"t_mapping(t_address,t_bool)":{"encoding":"mapping","key":"t_address","label":"mapping(address => bool)","numberOfBytes":"32","value":"t_bool"},"t_mapping(t_address,t_mapping(t_address,t_bool))":{"encoding":"mapping","key":"t_address","label":"mapping(address => mapping(address => bool))","numberOfBytes":"32","value":"t_mapping(t_address,t_bool)"},"t_mapping(t_address,t_uint256)":{"encoding":"mapping","key":"t_address","label":"mapping(address => uint256)","numberOfBytes":"32","value":"t_uint256"},"t_uint256":{"encoding":"inplace","label":"uint256","numberOfBytes":"32"}}},"userdoc":{"kind":"user","methods":{},"version":1}}