{"abi":[{"inputs":[],"stateMutability":"nonpayable","type":"constructor"},{"inputs":[{"internalType":"address","name":"account","type":"address"},{"internalType":"uint256","name":"amount","type":"uint256"}],"name":"allocateFunds","outputs":[],"stateMutability":"payable","type":"function"},{"inputs":[],"name":"balance","outputs":[{"internalType":"uint256","name":"","type":"uint256"}],"stateMutability":"view","type":"function"},{"inputs":[{"internalType":"address","name":"member","type":"address"}],"name":"getMemberAllocation","outputs":[{"internalType":"uint256","name":"","type":"uint256"}],"stateMutability":"view","type":"function"},{"inputs":[],"name":"hasAllocation","outputs":[{"internalType":"bool","name":"","type":"bool"}],"stateMutability":"view","type":"function"},{"inputs":[],"name":"newApplicantFee","outputs":[{"internalType":"uint256","name":"","type":"uint256"}],"stateMutability":"view","type":"function"},{"inputs":[],"name":"newPoolFee","outputs":[{"internalType":"uint256","name":"","type":"uint256"}],"stateMutability":"view","type":"function"},{"inputs":[],"name":"newProposalFee","outputs":[{"internalType":"uint256","name":"","type":"uint256"}],"stateMutability":"view","type":"function"},{"inputs":[],"name":"payNewApplicantFee","outputs":[],"stateMutability":"payable","type":"function"},{"inputs":[],"name":"payNewPoolFee","outputs":[],"stateMutability":"payable","type":"function"},{"inputs":[],"name":"payNewProposalFee","outputs":[],"stateMutability":"payable","type":"function"},{"inputs":[{"internalType":"address","name":"newGovernance","type":"address"}],"name":"setGovernance","outputs":[],"stateMutability":"nonpayable","type":"function"},{"inputs":[{"internalType":"uint256","name":"amount","type":"uint256"}],"name":"setNewApplicantFee","outputs":[],"stateMutability":"nonpayable","type":"function"},{"inputs":[{"internalType":"uint256","name":"amount","type":"uint256"}],"name":"setNewPoolFee","outputs":[],"stateMutability":"nonpayable","type":"function"},{"inputs":[{"internalType":"uint256","name":"amount","type":"uint256"}],"name":"setNewProposalFee","outputs":[],"stateMutability":"nonpayable","type":"function"},{"inputs":[],"name":"withdraw","outputs":[],"stateMutability":"payable","type":"function"}],"devdoc":{"kind":"dev","methods":{},"version":1},"evm":{"assembly":"    /* \"Treasury.sol\":66:2363  contract Treasury {... */\n  mstore(0x40, 0x80)\n    /* \"Treasury.sol\":155:171  1000000000000000 */\n  0x038d7ea4c68000\n    /* \"Treasury.sol\":122:171  uint256 public newApplicantFee = 1000000000000000 */\n  0x01\n  sstore\n    /* \"Treasury.sol\":206:222  1000000000000000 */\n  0x038d7ea4c68000\n    /* \"Treasury.sol\":178:222  uint256 public newPoolFee = 1000000000000000 */\n  0x02\n  sstore\n    /* \"Treasury.sol\":261:277  1000000000000000 */\n  0x038d7ea4c68000\n    /* \"Treasury.sol\":229:277  uint256 public newProposalFee = 1000000000000000 */\n  0x03\n  sstore\n    /* \"Treasury.sol\":424:485  constructor() {... */\n  callvalue\n  dup1\n  iszero\n  tag_1\n  jumpi\n  0x00\n  dup1\n  revert\ntag_1:\n  pop\n    /* \"Treasury.sol\":66:2363  contract Treasury {... */\n  dataSize(sub_0)\n  dup1\n  dataOffset(sub_0)\n  0x00\n  codecopy\n  0x00\n  return\nstop\n\nsub_0: assembly {\n        /* \"Treasury.sol\":66:2363  contract Treasury {... */\n      mstore(0x40, 0x80)\n      jumpi(tag_1, lt(calldatasize, 0x04))\n      shr(0xe0, calldataload(0x00))\n      dup1\n      0x5bce5441\n      gt\n      tag_17\n      jumpi\n      dup1\n      0x9d7e7d38\n      gt\n      tag_18\n      jumpi\n      dup1\n      0x9d7e7d38\n      eq\n      tag_13\n      jumpi\n      dup1\n      0xab033ea9\n      eq\n      tag_14\n      jumpi\n      dup1\n      0xb69ef8a8\n      eq\n      tag_15\n      jumpi\n      dup1\n      0xf7be4f2a\n      eq\n      tag_16\n      jumpi\n      jump(tag_1)\n    tag_18:\n      dup1\n      0x5bce5441\n      eq\n      tag_9\n      jumpi\n      dup1\n      0x7646a004\n      eq\n      tag_10\n      jumpi\n      dup1\n      0x77956347\n      eq\n      tag_11\n      jumpi\n      dup1\n      0x8f5f656c\n      eq\n      tag_12\n      jumpi\n      jump(tag_1)\n    tag_17:\n      dup1\n      0x40c89d16\n      gt\n      tag_19\n      jumpi\n      dup1\n      0x40c89d16\n      eq\n      tag_5\n      jumpi\n      dup1\n      0x4d10dcbb\n      eq\n      tag_6\n      jumpi\n      dup1\n      0x53822071\n      eq\n      tag_7\n      jumpi\n      dup1\n      0x55dfd10c\n      eq\n      tag_8\n      jumpi\n      jump(tag_1)\n    tag_19:\n      dup1\n      0x06a5d642\n      eq\n      tag_2\n      jumpi\n      dup1\n      0x189ed356\n      eq\n      tag_3\n      jumpi\n      dup1\n      0x3ccfd60b\n      eq\n      tag_4\n      jumpi\n    tag_1:\n      0x00\n      dup1\n      revert\n        /* \"Treasury.sol\":1770:1879  function hasAllocation() public view returns (bool) {... */\n    tag_2:\n      callvalue\n      dup1\n      iszero\n      tag_20\n      jumpi\n      0x00\n      dup1\n      revert\n    tag_20:\n      pop\n      tag_21\n      tag_22\n      jump\t// in\n    tag_21:\n      mload(0x40)\n      tag_23\n      swap2\n      swap1\n      tag_24\n      jump\t// in\n    tag_23:\n      mload(0x40)\n      dup1\n      swap2\n      sub\n      swap1\n      return\n        /* \"Treasury.sol\":1473:1762  function allocateFunds(address account, uint256 amount) public payable {... */\n    tag_3:\n      tag_25\n      0x04\n      dup1\n      calldatasize\n      sub\n      dup2\n      add\n      swap1\n      tag_26\n      swap2\n      swap1\n      tag_27\n      jump\t// in\n    tag_26:\n      tag_28\n      jump\t// in\n    tag_25:\n      stop\n        /* \"Treasury.sol\":2020:2360  function withdraw() public payable {... */\n    tag_4:\n      tag_29\n      tag_30\n      jump\t// in\n    tag_29:\n      stop\n        /* \"Treasury.sol\":1104:1220  function payNewProposalFee() public payable {... */\n    tag_5:\n      tag_31\n      tag_32\n      jump\t// in\n    tag_31:\n      stop\n        /* \"Treasury.sol\":122:171  uint256 public newApplicantFee = 1000000000000000 */\n    tag_6:\n      callvalue\n      dup1\n      iszero\n      tag_33\n      jumpi\n      0x00\n      dup1\n      revert\n    tag_33:\n      pop\n      tag_34\n      tag_35\n      jump\t// in\n    tag_34:\n      mload(0x40)\n      tag_36\n      swap2\n      swap1\n      tag_37\n      jump\t// in\n    tag_36:\n      mload(0x40)\n      dup1\n      swap2\n      sub\n      swap1\n      return\n        /* \"Treasury.sol\":810:945  function setNewPoolFee(uint256 amount) public {... */\n    tag_7:\n      callvalue\n      dup1\n      iszero\n      tag_38\n      jumpi\n      0x00\n      dup1\n      revert\n    tag_38:\n      pop\n      tag_39\n      0x04\n      dup1\n      calldatasize\n      sub\n      dup2\n      add\n      swap1\n      tag_40\n      swap2\n      swap1\n      tag_41\n      jump\t// in\n    tag_40:\n      tag_42\n      jump\t// in\n    tag_39:\n      stop\n        /* \"Treasury.sol\":657:802  function setNewApplicantFee(uint256 amount) public {... */\n    tag_8:\n      callvalue\n      dup1\n      iszero\n      tag_43\n      jumpi\n      0x00\n      dup1\n      revert\n    tag_43:\n      pop\n      tag_44\n      0x04\n      dup1\n      calldatasize\n      sub\n      dup2\n      add\n      swap1\n      tag_45\n      swap2\n      swap1\n      tag_41\n      jump\t// in\n    tag_45:\n      tag_46\n      jump\t// in\n    tag_44:\n      stop\n        /* \"Treasury.sol\":953:1096  function setNewProposalFee(uint256 amount) public {... */\n    tag_9:\n      callvalue\n      dup1\n      iszero\n      tag_47\n      jumpi\n      0x00\n      dup1\n      revert\n    tag_47:\n      pop\n      tag_48\n      0x04\n      dup1\n      calldatasize\n      sub\n      dup2\n      add\n      swap1\n      tag_49\n      swap2\n      swap1\n      tag_41\n      jump\t// in\n    tag_49:\n      tag_50\n      jump\t// in\n    tag_48:\n      stop\n        /* \"Treasury.sol\":178:222  uint256 public newPoolFee = 1000000000000000 */\n    tag_10:\n      callvalue\n      dup1\n      iszero\n      tag_51\n      jumpi\n      0x00\n      dup1\n      revert\n    tag_51:\n      pop\n      tag_52\n      tag_53\n      jump\t// in\n    tag_52:\n      mload(0x40)\n      tag_54\n      swap2\n      swap1\n      tag_37\n      jump\t// in\n    tag_54:\n      mload(0x40)\n      dup1\n      swap2\n      sub\n      swap1\n      return\n        /* \"Treasury.sol\":229:277  uint256 public newProposalFee = 1000000000000000 */\n    tag_11:\n      callvalue\n      dup1\n      iszero\n      tag_55\n      jumpi\n      0x00\n      dup1\n      revert\n    tag_55:\n      pop\n      tag_56\n      tag_57\n      jump\t// in\n    tag_56:\n      mload(0x40)\n      tag_58\n      swap2\n      swap1\n      tag_37\n      jump\t// in\n    tag_58:\n      mload(0x40)\n      dup1\n      swap2\n      sub\n      swap1\n      return\n        /* \"Treasury.sol\":1228:1345  function payNewApplicantFee() public payable {... */\n    tag_12:\n      tag_59\n      tag_60\n      jump\t// in\n    tag_59:\n      stop\n        /* \"Treasury.sol\":1887:2012  function getMemberAllocation(address member) public view returns (uint256) {... */\n    tag_13:\n      callvalue\n      dup1\n      iszero\n      tag_61\n      jumpi\n      0x00\n      dup1\n      revert\n    tag_61:\n      pop\n      tag_62\n      0x04\n      dup1\n      calldatasize\n      sub\n      dup2\n      add\n      swap1\n      tag_63\n      swap2\n      swap1\n      tag_64\n      jump\t// in\n    tag_63:\n      tag_65\n      jump\t// in\n    tag_62:\n      mload(0x40)\n      tag_66\n      swap2\n      swap1\n      tag_37\n      jump\t// in\n    tag_66:\n      mload(0x40)\n      dup1\n      swap2\n      sub\n      swap1\n      return\n        /* \"Treasury.sol\":493:649  function setGovernance(address newGovernance) public {... */\n    tag_14:\n      callvalue\n      dup1\n      iszero\n      tag_67\n      jumpi\n      0x00\n      dup1\n      revert\n    tag_67:\n      pop\n      tag_68\n      0x04\n      dup1\n      calldatasize\n      sub\n      dup2\n      add\n      swap1\n      tag_69\n      swap2\n      swap1\n      tag_64\n      jump\t// in\n    tag_69:\n      tag_70\n      jump\t// in\n    tag_68:\n      stop\n        /* \"Treasury.sol\":91:113  uint256 public balance */\n    tag_15:\n      callvalue\n      dup1\n      iszero\n      tag_71\n      jumpi\n      0x00\n      dup1\n      revert\n    tag_71:\n      pop\n      tag_72\n      tag_73\n      jump\t// in\n    tag_72:\n      mload(0x40)\n      tag_74\n      swap2\n      swap1\n      tag_37\n      jump\t// in\n    tag_74:\n      mload(0x40)\n      dup1\n      swap2\n      sub\n      swap1\n      return\n        /* \"Treasury.sol\":1353:1465  function payNewPoolFee() public payable {... */\n    tag_16:\n      tag_75\n      tag_76\n      jump\t// in\n    tag_75:\n      stop\n        /* \"Treasury.sol\":1770:1879  function hasAllocation() public view returns (bool) {... */\n    tag_22:\n        /* \"Treasury.sol\":1816:1820  bool */\n      0x00\n        /* \"Treasury.sol\":1840:1859  memberHasAllocation */\n      0x05\n        /* \"Treasury.sol\":1840:1871  memberHasAllocation[msg.sender] */\n      0x00\n        /* \"Treasury.sol\":1860:1870  msg.sender */\n      caller\n        /* \"Treasury.sol\":1840:1871  memberHasAllocation[msg.sender] */\n      0xffffffffffffffffffffffffffffffffffffffff\n      and\n      0xffffffffffffffffffffffffffffffffffffffff\n      and\n      dup2\n      mstore\n      0x20\n      add\n      swap1\n      dup2\n      mstore\n      0x20\n      add\n      0x00\n      keccak256\n      0x00\n      swap1\n      sload\n      swap1\n      0x0100\n      exp\n      swap1\n      div\n      0xff\n      and\n        /* \"Treasury.sol\":1833:1871  return memberHasAllocation[msg.sender] */\n      swap1\n      pop\n        /* \"Treasury.sol\":1770:1879  function hasAllocation() public view returns (bool) {... */\n      swap1\n      jump\t// out\n        /* \"Treasury.sol\":1473:1762  function allocateFunds(address account, uint256 amount) public payable {... */\n    tag_28:\n        /* \"Treasury.sol\":1577:1594  governanceAddress */\n      0x06\n      0x00\n      swap1\n      sload\n      swap1\n      0x0100\n      exp\n      swap1\n      div\n      0xffffffffffffffffffffffffffffffffffffffff\n      and\n        /* \"Treasury.sol\":1563:1594  msg.sender == governanceAddress */\n      0xffffffffffffffffffffffffffffffffffffffff\n      and\n        /* \"Treasury.sol\":1563:1573  msg.sender */\n      caller\n        /* \"Treasury.sol\":1563:1594  msg.sender == governanceAddress */\n      0xffffffffffffffffffffffffffffffffffffffff\n      and\n      eq\n        /* \"Treasury.sol\":1555:1595  require(msg.sender == governanceAddress) */\n      tag_79\n      jumpi\n      0x00\n      dup1\n      revert\n    tag_79:\n        /* \"Treasury.sol\":1625:1631  amount */\n      dup1\n        /* \"Treasury.sol\":1614:1621  balance */\n      sload(0x00)\n        /* \"Treasury.sol\":1614:1631  balance >= amount */\n      lt\n      iszero\n        /* \"Treasury.sol\":1606:1632  require(balance >= amount) */\n      tag_80\n      jumpi\n      0x00\n      dup1\n      revert\n    tag_80:\n        /* \"Treasury.sol\":1660:1661  0 */\n      0x00\n        /* \"Treasury.sol\":1651:1657  amount */\n      dup2\n        /* \"Treasury.sol\":1651:1661  amount > 0 */\n      gt\n        /* \"Treasury.sol\":1643:1662  require(amount > 0) */\n      tag_81\n      jumpi\n      0x00\n      dup1\n      revert\n    tag_81:\n        /* \"Treasury.sol\":1702:1708  amount */\n      dup1\n        /* \"Treasury.sol\":1673:1689  memberAllocation */\n      0x04\n        /* \"Treasury.sol\":1673:1698  memberAllocation[account] */\n      0x00\n        /* \"Treasury.sol\":1690:1697  account */\n      dup5\n        /* \"Treasury.sol\":1673:1698  memberAllocation[account] */\n      0xffffffffffffffffffffffffffffffffffffffff\n      and\n      0xffffffffffffffffffffffffffffffffffffffff\n      and\n      dup2\n      mstore\n      0x20\n      add\n      swap1\n      dup2\n      mstore\n      0x20\n      add\n      0x00\n      keccak256\n      0x00\n        /* \"Treasury.sol\":1673:1708  memberAllocation[account] += amount */\n      dup3\n      dup3\n      sload\n      tag_82\n      swap2\n      swap1\n      tag_83\n      jump\t// in\n    tag_82:\n      swap3\n      pop\n      pop\n      dup2\n      swap1\n      sstore\n      pop\n        /* \"Treasury.sol\":1750:1754  true */\n      0x01\n        /* \"Treasury.sol\":1719:1738  memberHasAllocation */\n      0x05\n        /* \"Treasury.sol\":1719:1747  memberHasAllocation[account] */\n      0x00\n        /* \"Treasury.sol\":1739:1746  account */\n      dup5\n        /* \"Treasury.sol\":1719:1747  memberHasAllocation[account] */\n      0xffffffffffffffffffffffffffffffffffffffff\n      and\n      0xffffffffffffffffffffffffffffffffffffffff\n      and\n      dup2\n      mstore\n      0x20\n      add\n      swap1\n      dup2\n      mstore\n      0x20\n      add\n      0x00\n      keccak256\n      0x00\n        /* \"Treasury.sol\":1719:1754  memberHasAllocation[account] = true */\n      0x0100\n      exp\n      dup2\n      sload\n      dup2\n      0xff\n      mul\n      not\n      and\n      swap1\n      dup4\n      iszero\n      iszero\n      mul\n      or\n      swap1\n      sstore\n      pop\n        /* \"Treasury.sol\":1473:1762  function allocateFunds(address account, uint256 amount) public payable {... */\n      pop\n      pop\n      jump\t// out\n        /* \"Treasury.sol\":2020:2360  function withdraw() public payable {... */\n    tag_30:\n        /* \"Treasury.sol\":2074:2093  memberHasAllocation */\n      0x05\n        /* \"Treasury.sol\":2074:2105  memberHasAllocation[msg.sender] */\n      0x00\n        /* \"Treasury.sol\":2094:2104  msg.sender */\n      caller\n        /* \"Treasury.sol\":2074:2105  memberHasAllocation[msg.sender] */\n      0xffffffffffffffffffffffffffffffffffffffff\n      and\n      0xffffffffffffffffffffffffffffffffffffffff\n      and\n      dup2\n      mstore\n      0x20\n      add\n      swap1\n      dup2\n      mstore\n      0x20\n      add\n      0x00\n      keccak256\n      0x00\n      swap1\n      sload\n      swap1\n      0x0100\n      exp\n      swap1\n      div\n      0xff\n      and\n        /* \"Treasury.sol\":2066:2106  require(memberHasAllocation[msg.sender]) */\n      tag_85\n      jumpi\n      0x00\n      dup1\n      revert\n    tag_85:\n        /* \"Treasury.sol\":2118:2127  bool sent */\n      0x00\n        /* \"Treasury.sol\":2133:2143  msg.sender */\n      caller\n        /* \"Treasury.sol\":2133:2148  msg.sender.call */\n      0xffffffffffffffffffffffffffffffffffffffff\n      and\n        /* \"Treasury.sol\":2156:2172  memberAllocation */\n      0x04\n        /* \"Treasury.sol\":2156:2184  memberAllocation[msg.sender] */\n      0x00\n        /* \"Treasury.sol\":2173:2183  msg.sender */\n      caller\n        /* \"Treasury.sol\":2156:2184  memberAllocation[msg.sender] */\n      0xffffffffffffffffffffffffffffffffffffffff\n      and\n      0xffffffffffffffffffffffffffffffffffffffff\n      and\n      dup2\n      mstore\n      0x20\n      add\n      swap1\n      dup2\n      mstore\n      0x20\n      add\n      0x00\n      keccak256\n      sload\n        /* \"Treasury.sol\":2133:2213  msg.sender.call{value: memberAllocation[msg.sender]}(... */\n      mload(0x40)\n      tag_86\n      swap1\n      tag_87\n      jump\t// in\n    tag_86:\n      0x00\n      mload(0x40)\n      dup1\n      dup4\n      sub\n      dup2\n      dup6\n      dup8\n      gas\n      call\n      swap3\n      pop\n      pop\n      pop\n      returndatasize\n      dup1\n      0x00\n      dup2\n      eq\n      tag_90\n      jumpi\n      mload(0x40)\n      swap2\n      pop\n      and(add(returndatasize, 0x3f), not(0x1f))\n      dup3\n      add\n      0x40\n      mstore\n      returndatasize\n      dup3\n      mstore\n      returndatasize\n      0x00\n      0x20\n      dup5\n      add\n      returndatacopy\n      jump(tag_89)\n    tag_90:\n      0x60\n      swap2\n      pop\n    tag_89:\n      pop\n        /* \"Treasury.sol\":2117:2213  (bool sent, ) = msg.sender.call{value: memberAllocation[msg.sender]}(... */\n      pop\n      swap1\n      pop\n        /* \"Treasury.sol\":2232:2236  sent */\n      dup1\n        /* \"Treasury.sol\":2224:2259  require(sent, \"Transaction Failed\") */\n      tag_91\n      jumpi\n      mload(0x40)\n      0x08c379a000000000000000000000000000000000000000000000000000000000\n      dup2\n      mstore\n      0x04\n      add\n      tag_92\n      swap1\n      tag_93\n      jump\t// in\n    tag_92:\n      mload(0x40)\n      dup1\n      swap2\n      sub\n      swap1\n      revert\n    tag_91:\n        /* \"Treasury.sol\":2301:2302  0 */\n      0x00\n        /* \"Treasury.sol\":2270:2286  memberAllocation */\n      0x04\n        /* \"Treasury.sol\":2270:2298  memberAllocation[msg.sender] */\n      0x00\n        /* \"Treasury.sol\":2287:2297  msg.sender */\n      caller\n        /* \"Treasury.sol\":2270:2298  memberAllocation[msg.sender] */\n      0xffffffffffffffffffffffffffffffffffffffff\n      and\n      0xffffffffffffffffffffffffffffffffffffffff\n      and\n      dup2\n      mstore\n      0x20\n      add\n      swap1\n      dup2\n      mstore\n      0x20\n      add\n      0x00\n      keccak256\n        /* \"Treasury.sol\":2270:2302  memberAllocation[msg.sender] = 0 */\n      dup2\n      swap1\n      sstore\n      pop\n        /* \"Treasury.sol\":2347:2352  false */\n      0x00\n        /* \"Treasury.sol\":2313:2332  memberHasAllocation */\n      0x05\n        /* \"Treasury.sol\":2313:2344  memberHasAllocation[msg.sender] */\n      0x00\n        /* \"Treasury.sol\":2333:2343  msg.sender */\n      caller\n        /* \"Treasury.sol\":2313:2344  memberHasAllocation[msg.sender] */\n      0xffffffffffffffffffffffffffffffffffffffff\n      and\n      0xffffffffffffffffffffffffffffffffffffffff\n      and\n      dup2\n      mstore\n      0x20\n      add\n      swap1\n      dup2\n      mstore\n      0x20\n      add\n      0x00\n      keccak256\n      0x00\n        /* \"Treasury.sol\":2313:2352  memberHasAllocation[msg.sender] = false */\n      0x0100\n      exp\n      dup2\n      sload\n      dup2\n      0xff\n      mul\n      not\n      and\n      swap1\n      dup4\n      iszero\n      iszero\n      mul\n      or\n      swap1\n      sstore\n      pop\n        /* \"Treasury.sol\":2055:2360  {... */\n      pop\n        /* \"Treasury.sol\":2020:2360  function withdraw() public payable {... */\n      jump\t// out\n        /* \"Treasury.sol\":1104:1220  function payNewProposalFee() public payable {... */\n    tag_32:\n        /* \"Treasury.sol\":1179:1180  0 */\n      0x00\n        /* \"Treasury.sol\":1167:1176  msg.value */\n      callvalue\n        /* \"Treasury.sol\":1167:1180  msg.value > 0 */\n      gt\n        /* \"Treasury.sol\":1159:1181  require(msg.value > 0) */\n      tag_95\n      jumpi\n      0x00\n      dup1\n      revert\n    tag_95:\n        /* \"Treasury.sol\":1203:1212  msg.value */\n      callvalue\n        /* \"Treasury.sol\":1192:1199  balance */\n      0x00\n      dup1\n        /* \"Treasury.sol\":1192:1212  balance += msg.value */\n      dup3\n      dup3\n      sload\n      tag_96\n      swap2\n      swap1\n      tag_83\n      jump\t// in\n    tag_96:\n      swap3\n      pop\n      pop\n      dup2\n      swap1\n      sstore\n      pop\n        /* \"Treasury.sol\":1104:1220  function payNewProposalFee() public payable {... */\n      jump\t// out\n        /* \"Treasury.sol\":122:171  uint256 public newApplicantFee = 1000000000000000 */\n    tag_35:\n      sload(0x01)\n      dup2\n      jump\t// out\n        /* \"Treasury.sol\":810:945  function setNewPoolFee(uint256 amount) public {... */\n    tag_42:\n        /* \"Treasury.sol\":889:906  governanceAddress */\n      0x06\n      0x00\n      swap1\n      sload\n      swap1\n      0x0100\n      exp\n      swap1\n      div\n      0xffffffffffffffffffffffffffffffffffffffff\n      and\n        /* \"Treasury.sol\":875:906  msg.sender == governanceAddress */\n      0xffffffffffffffffffffffffffffffffffffffff\n      and\n        /* \"Treasury.sol\":875:885  msg.sender */\n      caller\n        /* \"Treasury.sol\":875:906  msg.sender == governanceAddress */\n      0xffffffffffffffffffffffffffffffffffffffff\n      and\n      eq\n        /* \"Treasury.sol\":867:907  require(msg.sender == governanceAddress) */\n      tag_98\n      jumpi\n      0x00\n      dup1\n      revert\n    tag_98:\n        /* \"Treasury.sol\":931:937  amount */\n      dup1\n        /* \"Treasury.sol\":918:928  newPoolFee */\n      0x02\n        /* \"Treasury.sol\":918:937  newPoolFee = amount */\n      dup2\n      swap1\n      sstore\n      pop\n        /* \"Treasury.sol\":810:945  function setNewPoolFee(uint256 amount) public {... */\n      pop\n      jump\t// out\n        /* \"Treasury.sol\":657:802  function setNewApplicantFee(uint256 amount) public {... */\n    tag_46:\n        /* \"Treasury.sol\":741:758  governanceAddress */\n      0x06\n      0x00\n      swap1\n      sload\n      swap1\n      0x0100\n      exp\n      swap1\n      div\n      0xffffffffffffffffffffffffffffffffffffffff\n      and\n        /* \"Treasury.sol\":727:758  msg.sender == governanceAddress */\n      0xffffffffffffffffffffffffffffffffffffffff\n      and\n        /* \"Treasury.sol\":727:737  msg.sender */\n      caller\n        /* \"Treasury.sol\":727:758  msg.sender == governanceAddress */\n      0xffffffffffffffffffffffffffffffffffffffff\n      and\n      eq\n        /* \"Treasury.sol\":719:759  require(msg.sender == governanceAddress) */\n      tag_100\n      jumpi\n      0x00\n      dup1\n      revert\n    tag_100:\n        /* \"Treasury.sol\":788:794  amount */\n      dup1\n        /* \"Treasury.sol\":770:785  newApplicantFee */\n      0x01\n        /* \"Treasury.sol\":770:794  newApplicantFee = amount */\n      dup2\n      swap1\n      sstore\n      pop\n        /* \"Treasury.sol\":657:802  function setNewApplicantFee(uint256 amount) public {... */\n      pop\n      jump\t// out\n        /* \"Treasury.sol\":953:1096  function setNewProposalFee(uint256 amount) public {... */\n    tag_50:\n        /* \"Treasury.sol\":1036:1053  governanceAddress */\n      0x06\n      0x00\n      swap1\n      sload\n      swap1\n      0x0100\n      exp\n      swap1\n      div\n      0xffffffffffffffffffffffffffffffffffffffff\n      and\n        /* \"Treasury.sol\":1022:1053  msg.sender == governanceAddress */\n      0xffffffffffffffffffffffffffffffffffffffff\n      and\n        /* \"Treasury.sol\":1022:1032  msg.sender */\n      caller\n        /* \"Treasury.sol\":1022:1053  msg.sender == governanceAddress */\n      0xffffffffffffffffffffffffffffffffffffffff\n      and\n      eq\n        /* \"Treasury.sol\":1014:1054  require(msg.sender == governanceAddress) */\n      tag_102\n      jumpi\n      0x00\n      dup1\n      revert\n    tag_102:\n        /* \"Treasury.sol\":1082:1088  amount */\n      dup1\n        /* \"Treasury.sol\":1065:1079  newProposalFee */\n      0x03\n        /* \"Treasury.sol\":1065:1088  newProposalFee = amount */\n      dup2\n      swap1\n      sstore\n      pop\n        /* \"Treasury.sol\":953:1096  function setNewProposalFee(uint256 amount) public {... */\n      pop\n      jump\t// out\n        /* \"Treasury.sol\":178:222  uint256 public newPoolFee = 1000000000000000 */\n    tag_53:\n      sload(0x02)\n      dup2\n      jump\t// out\n        /* \"Treasury.sol\":229:277  uint256 public newProposalFee = 1000000000000000 */\n    tag_57:\n      sload(0x03)\n      dup2\n      jump\t// out\n        /* \"Treasury.sol\":1228:1345  function payNewApplicantFee() public payable {... */\n    tag_60:\n        /* \"Treasury.sol\":1304:1305  0 */\n      0x00\n        /* \"Treasury.sol\":1292:1301  msg.value */\n      callvalue\n        /* \"Treasury.sol\":1292:1305  msg.value > 0 */\n      gt\n        /* \"Treasury.sol\":1284:1306  require(msg.value > 0) */\n      tag_104\n      jumpi\n      0x00\n      dup1\n      revert\n    tag_104:\n        /* \"Treasury.sol\":1328:1337  msg.value */\n      callvalue\n        /* \"Treasury.sol\":1317:1324  balance */\n      0x00\n      dup1\n        /* \"Treasury.sol\":1317:1337  balance += msg.value */\n      dup3\n      dup3\n      sload\n      tag_105\n      swap2\n      swap1\n      tag_83\n      jump\t// in\n    tag_105:\n      swap3\n      pop\n      pop\n      dup2\n      swap1\n      sstore\n      pop\n        /* \"Treasury.sol\":1228:1345  function payNewApplicantFee() public payable {... */\n      jump\t// out\n        /* \"Treasury.sol\":1887:2012  function getMemberAllocation(address member) public view returns (uint256) {... */\n    tag_65:\n        /* \"Treasury.sol\":1953:1960  uint256 */\n      0x00\n        /* \"Treasury.sol\":1980:1996  memberAllocation */\n      0x04\n        /* \"Treasury.sol\":1980:2004  memberAllocation[member] */\n      0x00\n        /* \"Treasury.sol\":1997:2003  member */\n      dup4\n        /* \"Treasury.sol\":1980:2004  memberAllocation[member] */\n      0xffffffffffffffffffffffffffffffffffffffff\n      and\n      0xffffffffffffffffffffffffffffffffffffffff\n      and\n      dup2\n      mstore\n      0x20\n      add\n      swap1\n      dup2\n      mstore\n      0x20\n      add\n      0x00\n      keccak256\n      sload\n        /* \"Treasury.sol\":1973:2004  return memberAllocation[member] */\n      swap1\n      pop\n        /* \"Treasury.sol\":1887:2012  function getMemberAllocation(address member) public view returns (uint256) {... */\n      swap2\n      swap1\n      pop\n      jump\t// out\n        /* \"Treasury.sol\":493:649  function setGovernance(address newGovernance) public {... */\n    tag_70:\n        /* \"Treasury.sol\":579:596  governanceAddress */\n      0x06\n      0x00\n      swap1\n      sload\n      swap1\n      0x0100\n      exp\n      swap1\n      div\n      0xffffffffffffffffffffffffffffffffffffffff\n      and\n        /* \"Treasury.sol\":565:596  msg.sender == governanceAddress */\n      0xffffffffffffffffffffffffffffffffffffffff\n      and\n        /* \"Treasury.sol\":565:575  msg.sender */\n      caller\n        /* \"Treasury.sol\":565:596  msg.sender == governanceAddress */\n      0xffffffffffffffffffffffffffffffffffffffff\n      and\n      eq\n        /* \"Treasury.sol\":557:597  require(msg.sender == governanceAddress) */\n      tag_108\n      jumpi\n      0x00\n      dup1\n      revert\n    tag_108:\n        /* \"Treasury.sol\":628:641  newGovernance */\n      dup1\n        /* \"Treasury.sol\":608:625  governanceAddress */\n      0x06\n      0x00\n        /* \"Treasury.sol\":608:641  governanceAddress = newGovernance */\n      0x0100\n      exp\n      dup2\n      sload\n      dup2\n      0xffffffffffffffffffffffffffffffffffffffff\n      mul\n      not\n      and\n      swap1\n      dup4\n      0xffffffffffffffffffffffffffffffffffffffff\n      and\n      mul\n      or\n      swap1\n      sstore\n      pop\n        /* \"Treasury.sol\":493:649  function setGovernance(address newGovernance) public {... */\n      pop\n      jump\t// out\n        /* \"Treasury.sol\":91:113  uint256 public balance */\n    tag_73:\n      sload(0x00)\n      dup2\n      jump\t// out\n        /* \"Treasury.sol\":1353:1465  function payNewPoolFee() public payable {... */\n    tag_76:\n        /* \"Treasury.sol\":1424:1425  0 */\n      0x00\n        /* \"Treasury.sol\":1412:1421  msg.value */\n      callvalue\n        /* \"Treasury.sol\":1412:1425  msg.value > 0 */\n      gt\n        /* \"Treasury.sol\":1404:1426  require(msg.value > 0) */\n      tag_110\n      jumpi\n      0x00\n      dup1\n      revert\n    tag_110:\n        /* \"Treasury.sol\":1448:1457  msg.value */\n      callvalue\n        /* \"Treasury.sol\":1437:1444  balance */\n      0x00\n      dup1\n        /* \"Treasury.sol\":1437:1457  balance += msg.value */\n      dup3\n      dup3\n      sload\n      tag_111\n      swap2\n      swap1\n      tag_83\n      jump\t// in\n    tag_111:\n      swap3\n      pop\n      pop\n      dup2\n      swap1\n      sstore\n      pop\n        /* \"Treasury.sol\":1353:1465  function payNewPoolFee() public payable {... */\n      jump\t// out\n        /* \"#utility.yul\":7:97   */\n    tag_112:\n        /* \"#utility.yul\":41:48   */\n      0x00\n        /* \"#utility.yul\":84:89   */\n      dup2\n        /* \"#utility.yul\":77:90   */\n      iszero\n        /* \"#utility.yul\":70:91   */\n      iszero\n        /* \"#utility.yul\":59:91   */\n      swap1\n      pop\n        /* \"#utility.yul\":7:97   */\n      swap2\n      swap1\n      pop\n      jump\t// out\n        /* \"#utility.yul\":103:212   */\n    tag_113:\n        /* \"#utility.yul\":184:205   */\n      tag_135\n        /* \"#utility.yul\":199:204   */\n      dup2\n        /* \"#utility.yul\":184:205   */\n      tag_112\n      jump\t// in\n    tag_135:\n        /* \"#utility.yul\":179:182   */\n      dup3\n        /* \"#utility.yul\":172:206   */\n      mstore\n        /* \"#utility.yul\":103:212   */\n      pop\n      pop\n      jump\t// out\n        /* \"#utility.yul\":218:428   */\n    tag_24:\n        /* \"#utility.yul\":305:309   */\n      0x00\n        /* \"#utility.yul\":343:345   */\n      0x20\n        /* \"#utility.yul\":332:341   */\n      dup3\n        /* \"#utility.yul\":328:346   */\n      add\n        /* \"#utility.yul\":320:346   */\n      swap1\n      pop\n        /* \"#utility.yul\":356:421   */\n      tag_137\n        /* \"#utility.yul\":418:419   */\n      0x00\n        /* \"#utility.yul\":407:416   */\n      dup4\n        /* \"#utility.yul\":403:420   */\n      add\n        /* \"#utility.yul\":394:400   */\n      dup5\n        /* \"#utility.yul\":356:421   */\n      tag_113\n      jump\t// in\n    tag_137:\n        /* \"#utility.yul\":218:428   */\n      swap3\n      swap2\n      pop\n      pop\n      jump\t// out\n        /* \"#utility.yul\":515:632   */\n    tag_115:\n        /* \"#utility.yul\":624:625   */\n      0x00\n        /* \"#utility.yul\":621:622   */\n      dup1\n        /* \"#utility.yul\":614:626   */\n      revert\n        /* \"#utility.yul\":761:887   */\n    tag_117:\n        /* \"#utility.yul\":798:805   */\n      0x00\n        /* \"#utility.yul\":838:880   */\n      0xffffffffffffffffffffffffffffffffffffffff\n        /* \"#utility.yul\":831:836   */\n      dup3\n        /* \"#utility.yul\":827:881   */\n      and\n        /* \"#utility.yul\":816:881   */\n      swap1\n      pop\n        /* \"#utility.yul\":761:887   */\n      swap2\n      swap1\n      pop\n      jump\t// out\n        /* \"#utility.yul\":893:989   */\n    tag_118:\n        /* \"#utility.yul\":930:937   */\n      0x00\n        /* \"#utility.yul\":959:983   */\n      tag_143\n        /* \"#utility.yul\":977:982   */\n      dup3\n        /* \"#utility.yul\":959:983   */\n      tag_117\n      jump\t// in\n    tag_143:\n        /* \"#utility.yul\":948:983   */\n      swap1\n      pop\n        /* \"#utility.yul\":893:989   */\n      swap2\n      swap1\n      pop\n      jump\t// out\n        /* \"#utility.yul\":995:1117   */\n    tag_119:\n        /* \"#utility.yul\":1068:1092   */\n      tag_145\n        /* \"#utility.yul\":1086:1091   */\n      dup2\n        /* \"#utility.yul\":1068:1092   */\n      tag_118\n      jump\t// in\n    tag_145:\n        /* \"#utility.yul\":1061:1066   */\n      dup2\n        /* \"#utility.yul\":1058:1093   */\n      eq\n        /* \"#utility.yul\":1048:1111   */\n      tag_146\n      jumpi\n        /* \"#utility.yul\":1107:1108   */\n      0x00\n        /* \"#utility.yul\":1104:1105   */\n      dup1\n        /* \"#utility.yul\":1097:1109   */\n      revert\n        /* \"#utility.yul\":1048:1111   */\n    tag_146:\n        /* \"#utility.yul\":995:1117   */\n      pop\n      jump\t// out\n        /* \"#utility.yul\":1123:1262   */\n    tag_120:\n        /* \"#utility.yul\":1169:1174   */\n      0x00\n        /* \"#utility.yul\":1207:1213   */\n      dup2\n        /* \"#utility.yul\":1194:1214   */\n      calldataload\n        /* \"#utility.yul\":1185:1214   */\n      swap1\n      pop\n        /* \"#utility.yul\":1223:1256   */\n      tag_148\n        /* \"#utility.yul\":1250:1255   */\n      dup2\n        /* \"#utility.yul\":1223:1256   */\n      tag_119\n      jump\t// in\n    tag_148:\n        /* \"#utility.yul\":1123:1262   */\n      swap3\n      swap2\n      pop\n      pop\n      jump\t// out\n        /* \"#utility.yul\":1268:1345   */\n    tag_121:\n        /* \"#utility.yul\":1305:1312   */\n      0x00\n        /* \"#utility.yul\":1334:1339   */\n      dup2\n        /* \"#utility.yul\":1323:1339   */\n      swap1\n      pop\n        /* \"#utility.yul\":1268:1345   */\n      swap2\n      swap1\n      pop\n      jump\t// out\n        /* \"#utility.yul\":1351:1473   */\n    tag_122:\n        /* \"#utility.yul\":1424:1448   */\n      tag_151\n        /* \"#utility.yul\":1442:1447   */\n      dup2\n        /* \"#utility.yul\":1424:1448   */\n      tag_121\n      jump\t// in\n    tag_151:\n        /* \"#utility.yul\":1417:1422   */\n      dup2\n        /* \"#utility.yul\":1414:1449   */\n      eq\n        /* \"#utility.yul\":1404:1467   */\n      tag_152\n      jumpi\n        /* \"#utility.yul\":1463:1464   */\n      0x00\n        /* \"#utility.yul\":1460:1461   */\n      dup1\n        /* \"#utility.yul\":1453:1465   */\n      revert\n        /* \"#utility.yul\":1404:1467   */\n    tag_152:\n        /* \"#utility.yul\":1351:1473   */\n      pop\n      jump\t// out\n        /* \"#utility.yul\":1479:1618   */\n    tag_123:\n        /* \"#utility.yul\":1525:1530   */\n      0x00\n        /* \"#utility.yul\":1563:1569   */\n      dup2\n        /* \"#utility.yul\":1550:1570   */\n      calldataload\n        /* \"#utility.yul\":1541:1570   */\n      swap1\n      pop\n        /* \"#utility.yul\":1579:1612   */\n      tag_154\n        /* \"#utility.yul\":1606:1611   */\n      dup2\n        /* \"#utility.yul\":1579:1612   */\n      tag_122\n      jump\t// in\n    tag_154:\n        /* \"#utility.yul\":1479:1618   */\n      swap3\n      swap2\n      pop\n      pop\n      jump\t// out\n        /* \"#utility.yul\":1624:2098   */\n    tag_27:\n        /* \"#utility.yul\":1692:1698   */\n      0x00\n        /* \"#utility.yul\":1700:1706   */\n      dup1\n        /* \"#utility.yul\":1749:1751   */\n      0x40\n        /* \"#utility.yul\":1737:1746   */\n      dup4\n        /* \"#utility.yul\":1728:1735   */\n      dup6\n        /* \"#utility.yul\":1724:1747   */\n      sub\n        /* \"#utility.yul\":1720:1752   */\n      slt\n        /* \"#utility.yul\":1717:1836   */\n      iszero\n      tag_156\n      jumpi\n        /* \"#utility.yul\":1755:1834   */\n      tag_157\n      tag_115\n      jump\t// in\n    tag_157:\n        /* \"#utility.yul\":1717:1836   */\n    tag_156:\n        /* \"#utility.yul\":1875:1876   */\n      0x00\n        /* \"#utility.yul\":1900:1953   */\n      tag_158\n        /* \"#utility.yul\":1945:1952   */\n      dup6\n        /* \"#utility.yul\":1936:1942   */\n      dup3\n        /* \"#utility.yul\":1925:1934   */\n      dup7\n        /* \"#utility.yul\":1921:1943   */\n      add\n        /* \"#utility.yul\":1900:1953   */\n      tag_120\n      jump\t// in\n    tag_158:\n        /* \"#utility.yul\":1890:1953   */\n      swap3\n      pop\n        /* \"#utility.yul\":1846:1963   */\n      pop\n        /* \"#utility.yul\":2002:2004   */\n      0x20\n        /* \"#utility.yul\":2028:2081   */\n      tag_159\n        /* \"#utility.yul\":2073:2080   */\n      dup6\n        /* \"#utility.yul\":2064:2070   */\n      dup3\n        /* \"#utility.yul\":2053:2062   */\n      dup7\n        /* \"#utility.yul\":2049:2071   */\n      add\n        /* \"#utility.yul\":2028:2081   */\n      tag_123\n      jump\t// in\n    tag_159:\n        /* \"#utility.yul\":2018:2081   */\n      swap2\n      pop\n        /* \"#utility.yul\":1973:2091   */\n      pop\n        /* \"#utility.yul\":1624:2098   */\n      swap3\n      pop\n      swap3\n      swap1\n      pop\n      jump\t// out\n        /* \"#utility.yul\":2104:2222   */\n    tag_124:\n        /* \"#utility.yul\":2191:2215   */\n      tag_161\n        /* \"#utility.yul\":2209:2214   */\n      dup2\n        /* \"#utility.yul\":2191:2215   */\n      tag_121\n      jump\t// in\n    tag_161:\n        /* \"#utility.yul\":2186:2189   */\n      dup3\n        /* \"#utility.yul\":2179:2216   */\n      mstore\n        /* \"#utility.yul\":2104:2222   */\n      pop\n      pop\n      jump\t// out\n        /* \"#utility.yul\":2228:2450   */\n    tag_37:\n        /* \"#utility.yul\":2321:2325   */\n      0x00\n        /* \"#utility.yul\":2359:2361   */\n      0x20\n        /* \"#utility.yul\":2348:2357   */\n      dup3\n        /* \"#utility.yul\":2344:2362   */\n      add\n        /* \"#utility.yul\":2336:2362   */\n      swap1\n      pop\n        /* \"#utility.yul\":2372:2443   */\n      tag_163\n        /* \"#utility.yul\":2440:2441   */\n      0x00\n        /* \"#utility.yul\":2429:2438   */\n      dup4\n        /* \"#utility.yul\":2425:2442   */\n      add\n        /* \"#utility.yul\":2416:2422   */\n      dup5\n        /* \"#utility.yul\":2372:2443   */\n      tag_124\n      jump\t// in\n    tag_163:\n        /* \"#utility.yul\":2228:2450   */\n      swap3\n      swap2\n      pop\n      pop\n      jump\t// out\n        /* \"#utility.yul\":2456:2785   */\n    tag_41:\n        /* \"#utility.yul\":2515:2521   */\n      0x00\n        /* \"#utility.yul\":2564:2566   */\n      0x20\n        /* \"#utility.yul\":2552:2561   */\n      dup3\n        /* \"#utility.yul\":2543:2550   */\n      dup5\n        /* \"#utility.yul\":2539:2562   */\n      sub\n        /* \"#utility.yul\":2535:2567   */\n      slt\n        /* \"#utility.yul\":2532:2651   */\n      iszero\n      tag_165\n      jumpi\n        /* \"#utility.yul\":2570:2649   */\n      tag_166\n      tag_115\n      jump\t// in\n    tag_166:\n        /* \"#utility.yul\":2532:2651   */\n    tag_165:\n        /* \"#utility.yul\":2690:2691   */\n      0x00\n        /* \"#utility.yul\":2715:2768   */\n      tag_167\n        /* \"#utility.yul\":2760:2767   */\n      dup5\n        /* \"#utility.yul\":2751:2757   */\n      dup3\n        /* \"#utility.yul\":2740:2749   */\n      dup6\n        /* \"#utility.yul\":2736:2758   */\n      add\n        /* \"#utility.yul\":2715:2768   */\n      tag_123\n      jump\t// in\n    tag_167:\n        /* \"#utility.yul\":2705:2768   */\n      swap2\n      pop\n        /* \"#utility.yul\":2661:2778   */\n      pop\n        /* \"#utility.yul\":2456:2785   */\n      swap3\n      swap2\n      pop\n      pop\n      jump\t// out\n        /* \"#utility.yul\":2791:3120   */\n    tag_64:\n        /* \"#utility.yul\":2850:2856   */\n      0x00\n        /* \"#utility.yul\":2899:2901   */\n      0x20\n        /* \"#utility.yul\":2887:2896   */\n      dup3\n        /* \"#utility.yul\":2878:2885   */\n      dup5\n        /* \"#utility.yul\":2874:2897   */\n      sub\n        /* \"#utility.yul\":2870:2902   */\n      slt\n        /* \"#utility.yul\":2867:2986   */\n      iszero\n      tag_169\n      jumpi\n        /* \"#utility.yul\":2905:2984   */\n      tag_170\n      tag_115\n      jump\t// in\n    tag_170:\n        /* \"#utility.yul\":2867:2986   */\n    tag_169:\n        /* \"#utility.yul\":3025:3026   */\n      0x00\n        /* \"#utility.yul\":3050:3103   */\n      tag_171\n        /* \"#utility.yul\":3095:3102   */\n      dup5\n        /* \"#utility.yul\":3086:3092   */\n      dup3\n        /* \"#utility.yul\":3075:3084   */\n      dup6\n        /* \"#utility.yul\":3071:3093   */\n      add\n        /* \"#utility.yul\":3050:3103   */\n      tag_120\n      jump\t// in\n    tag_171:\n        /* \"#utility.yul\":3040:3103   */\n      swap2\n      pop\n        /* \"#utility.yul\":2996:3113   */\n      pop\n        /* \"#utility.yul\":2791:3120   */\n      swap3\n      swap2\n      pop\n      pop\n      jump\t// out\n        /* \"#utility.yul\":3126:3306   */\n    tag_125:\n        /* \"#utility.yul\":3174:3251   */\n      0x4e487b7100000000000000000000000000000000000000000000000000000000\n        /* \"#utility.yul\":3171:3172   */\n      0x00\n        /* \"#utility.yul\":3164:3252   */\n      mstore\n        /* \"#utility.yul\":3271:3275   */\n      0x11\n        /* \"#utility.yul\":3268:3269   */\n      0x04\n        /* \"#utility.yul\":3261:3276   */\n      mstore\n        /* \"#utility.yul\":3295:3299   */\n      0x24\n        /* \"#utility.yul\":3292:3293   */\n      0x00\n        /* \"#utility.yul\":3285:3300   */\n      revert\n        /* \"#utility.yul\":3312:3503   */\n    tag_83:\n        /* \"#utility.yul\":3352:3355   */\n      0x00\n        /* \"#utility.yul\":3371:3391   */\n      tag_174\n        /* \"#utility.yul\":3389:3390   */\n      dup3\n        /* \"#utility.yul\":3371:3391   */\n      tag_121\n      jump\t// in\n    tag_174:\n        /* \"#utility.yul\":3366:3391   */\n      swap2\n      pop\n        /* \"#utility.yul\":3405:3425   */\n      tag_175\n        /* \"#utility.yul\":3423:3424   */\n      dup4\n        /* \"#utility.yul\":3405:3425   */\n      tag_121\n      jump\t// in\n    tag_175:\n        /* \"#utility.yul\":3400:3425   */\n      swap3\n      pop\n        /* \"#utility.yul\":3448:3449   */\n      dup3\n        /* \"#utility.yul\":3445:3446   */\n      dup3\n        /* \"#utility.yul\":3441:3450   */\n      add\n        /* \"#utility.yul\":3434:3450   */\n      swap1\n      pop\n        /* \"#utility.yul\":3469:3472   */\n      dup1\n        /* \"#utility.yul\":3466:3467   */\n      dup3\n        /* \"#utility.yul\":3463:3473   */\n      gt\n        /* \"#utility.yul\":3460:3496   */\n      iszero\n      tag_176\n      jumpi\n        /* \"#utility.yul\":3476:3494   */\n      tag_177\n      tag_125\n      jump\t// in\n    tag_177:\n        /* \"#utility.yul\":3460:3496   */\n    tag_176:\n        /* \"#utility.yul\":3312:3503   */\n      swap3\n      swap2\n      pop\n      pop\n      jump\t// out\n        /* \"#utility.yul\":3509:3656   */\n    tag_126:\n        /* \"#utility.yul\":3610:3621   */\n      0x00\n        /* \"#utility.yul\":3647:3650   */\n      dup2\n        /* \"#utility.yul\":3632:3650   */\n      swap1\n      pop\n        /* \"#utility.yul\":3509:3656   */\n      swap3\n      swap2\n      pop\n      pop\n      jump\t// out\n        /* \"#utility.yul\":3662:3776   */\n    tag_127:\n      pop\n      jump\t// out\n        /* \"#utility.yul\":3782:4180   */\n    tag_128:\n        /* \"#utility.yul\":3941:3944   */\n      0x00\n        /* \"#utility.yul\":3962:4045   */\n      tag_181\n        /* \"#utility.yul\":4043:4044   */\n      0x00\n        /* \"#utility.yul\":4038:4041   */\n      dup4\n        /* \"#utility.yul\":3962:4045   */\n      tag_126\n      jump\t// in\n    tag_181:\n        /* \"#utility.yul\":3955:4045   */\n      swap2\n      pop\n        /* \"#utility.yul\":4054:4147   */\n      tag_182\n        /* \"#utility.yul\":4143:4146   */\n      dup3\n        /* \"#utility.yul\":4054:4147   */\n      tag_127\n      jump\t// in\n    tag_182:\n        /* \"#utility.yul\":4172:4173   */\n      0x00\n        /* \"#utility.yul\":4167:4170   */\n      dup3\n        /* \"#utility.yul\":4163:4174   */\n      add\n        /* \"#utility.yul\":4156:4174   */\n      swap1\n      pop\n        /* \"#utility.yul\":3782:4180   */\n      swap2\n      swap1\n      pop\n      jump\t// out\n        /* \"#utility.yul\":4186:4565   */\n    tag_87:\n        /* \"#utility.yul\":4370:4373   */\n      0x00\n        /* \"#utility.yul\":4392:4539   */\n      tag_184\n        /* \"#utility.yul\":4535:4538   */\n      dup3\n        /* \"#utility.yul\":4392:4539   */\n      tag_128\n      jump\t// in\n    tag_184:\n        /* \"#utility.yul\":4385:4539   */\n      swap2\n      pop\n        /* \"#utility.yul\":4556:4559   */\n      dup2\n        /* \"#utility.yul\":4549:4559   */\n      swap1\n      pop\n        /* \"#utility.yul\":4186:4565   */\n      swap2\n      swap1\n      pop\n      jump\t// out\n        /* \"#utility.yul\":4571:4740   */\n    tag_129:\n        /* \"#utility.yul\":4655:4666   */\n      0x00\n        /* \"#utility.yul\":4689:4695   */\n      dup3\n        /* \"#utility.yul\":4684:4687   */\n      dup3\n        /* \"#utility.yul\":4677:4696   */\n      mstore\n        /* \"#utility.yul\":4729:4733   */\n      0x20\n        /* \"#utility.yul\":4724:4727   */\n      dup3\n        /* \"#utility.yul\":4720:4734   */\n      add\n        /* \"#utility.yul\":4705:4734   */\n      swap1\n      pop\n        /* \"#utility.yul\":4571:4740   */\n      swap3\n      swap2\n      pop\n      pop\n      jump\t// out\n        /* \"#utility.yul\":4746:4914   */\n    tag_130:\n        /* \"#utility.yul\":4886:4906   */\n      0x5472616e73616374696f6e204661696c65640000000000000000000000000000\n        /* \"#utility.yul\":4882:4883   */\n      0x00\n        /* \"#utility.yul\":4874:4880   */\n      dup3\n        /* \"#utility.yul\":4870:4884   */\n      add\n        /* \"#utility.yul\":4863:4907   */\n      mstore\n        /* \"#utility.yul\":4746:4914   */\n      pop\n      jump\t// out\n        /* \"#utility.yul\":4920:5286   */\n    tag_131:\n        /* \"#utility.yul\":5062:5065   */\n      0x00\n        /* \"#utility.yul\":5083:5150   */\n      tag_188\n        /* \"#utility.yul\":5147:5149   */\n      0x12\n        /* \"#utility.yul\":5142:5145   */\n      dup4\n        /* \"#utility.yul\":5083:5150   */\n      tag_129\n      jump\t// in\n    tag_188:\n        /* \"#utility.yul\":5076:5150   */\n      swap2\n      pop\n        /* \"#utility.yul\":5159:5252   */\n      tag_189\n        /* \"#utility.yul\":5248:5251   */\n      dup3\n        /* \"#utility.yul\":5159:5252   */\n      tag_130\n      jump\t// in\n    tag_189:\n        /* \"#utility.yul\":5277:5279   */\n      0x20\n        /* \"#utility.yul\":5272:5275   */\n      dup3\n        /* \"#utility.yul\":5268:5280   */\n      add\n        /* \"#utility.yul\":5261:5280   */\n      swap1\n      pop\n        /* \"#utility.yul\":4920:5286   */\n      swap2\n      swap1\n      pop\n      jump\t// out\n        /* \"#utility.yul\":5292:5711   */\n    tag_93:\n        /* \"#utility.yul\":5458:5462   */\n      0x00\n        /* \"#utility.yul\":5496:5498   */\n      0x20\n        /* \"#utility.yul\":5485:5494   */\n      dup3\n        /* \"#utility.yul\":5481:5499   */\n      add\n        /* \"#utility.yul\":5473:5499   */\n      swap1\n      pop\n        /* \"#utility.yul\":5545:5554   */\n      dup2\n        /* \"#utility.yul\":5539:5543   */\n      dup2\n        /* \"#utility.yul\":5535:5555   */\n      sub\n        /* \"#utility.yul\":5531:5532   */\n      0x00\n        /* \"#utility.yul\":5520:5529   */\n      dup4\n        /* \"#utility.yul\":5516:5533   */\n      add\n        /* \"#utility.yul\":5509:5556   */\n      mstore\n        /* \"#utility.yul\":5573:5704   */\n      tag_191\n        /* \"#utility.yul\":5699:5703   */\n      dup2\n        /* \"#utility.yul\":5573:5704   */\n      tag_131\n      jump\t// in\n    tag_191:\n        /* \"#utility.yul\":5565:5704   */\n      swap1\n      pop\n        /* \"#utility.yul\":5292:5711   */\n      swap2\n      swap1\n      pop\n      jump\t// out\n\n    auxdata: 0xa2646970667358221220c1cc0626ced3aa9de009f4fc76ed5bf9e2d6d82c504b4e1fc5bc2b7dad4295b864736f6c63430008110033\n}\n","bytecode":{"linkReferences":{},"object":"608060405266038d7ea4c6800060015566038d7ea4c6800060025566038d7ea4c6800060035534801561003157600080fd5b50610bd5806100416000396000f3fe6080604052600436106100e85760003560e01c80635bce54411161008a5780639d7e7d38116100595780639d7e7d381461024e578063ab033ea91461028b578063b69ef8a8146102b4578063f7be4f2a146102df576100e8565b80635bce5441146101c55780637646a004146101ee57806377956347146102195780638f5f656c14610244576100e8565b806340c89d16116100c657806340c89d161461013e5780634d10dcbb14610148578063538220711461017357806355dfd10c1461019c576100e8565b806306a5d642146100ed578063189ed356146101185780633ccfd60b14610134575b600080fd5b3480156100f957600080fd5b506101026102e9565b60405161010f9190610901565b60405180910390f35b610132600480360381019061012d91906109b5565b61033d565b005b61013c610465565b005b610146610646565b005b34801561015457600080fd5b5061015d61066d565b60405161016a9190610a04565b60405180910390f35b34801561017f57600080fd5b5061019a60048036038101906101959190610a1f565b610673565b005b3480156101a857600080fd5b506101c360048036038101906101be9190610a1f565b6106d7565b005b3480156101d157600080fd5b506101ec60048036038101906101e79190610a1f565b61073b565b005b3480156101fa57600080fd5b5061020361079f565b6040516102109190610a04565b60405180910390f35b34801561022557600080fd5b5061022e6107a5565b60405161023b9190610a04565b60405180910390f35b61024c6107ab565b005b34801561025a57600080fd5b5061027560048036038101906102709190610a4c565b6107d2565b6040516102829190610a04565b60405180910390f35b34801561029757600080fd5b506102b260048036038101906102ad9190610a4c565b61081b565b005b3480156102c057600080fd5b506102c96108b9565b6040516102d69190610a04565b60405180910390f35b6102e76108bf565b005b6000600560003373ffffffffffffffffffffffffffffffffffffffff1673ffffffffffffffffffffffffffffffffffffffff16815260200190815260200160002060009054906101000a900460ff16905090565b600660009054906101000a900473ffffffffffffffffffffffffffffffffffffffff1673ffffffffffffffffffffffffffffffffffffffff163373ffffffffffffffffffffffffffffffffffffffff161461039757600080fd5b8060005410156103a657600080fd5b600081116103b357600080fd5b80600460008473ffffffffffffffffffffffffffffffffffffffff1673ffffffffffffffffffffffffffffffffffffffff16815260200190815260200160002060008282546104029190610aa8565b925050819055506001600560008473ffffffffffffffffffffffffffffffffffffffff1673ffffffffffffffffffffffffffffffffffffffff16815260200190815260200160002060006101000a81548160ff0219169083151502179055505050565b600560003373ffffffffffffffffffffffffffffffffffffffff1673ffffffffffffffffffffffffffffffffffffffff16815260200190815260200160002060009054906101000a900460ff166104bb57600080fd5b60003373ffffffffffffffffffffffffffffffffffffffff16600460003373ffffffffffffffffffffffffffffffffffffffff1673ffffffffffffffffffffffffffffffffffffffff1681526020019081526020016000205460405161052090610b0d565b60006040518083038185875af1925050503d806000811461055d576040519150601f19603f3d011682016040523d82523d6000602084013e610562565b606091505b50509050806105a6576040517f08c379a000000000000000000000000000000000000000000000000000000000815260040161059d90610b7f565b60405180910390fd5b6000600460003373ffffffffffffffffffffffffffffffffffffffff1673ffffffffffffffffffffffffffffffffffffffff168152602001908152602001600020819055506000600560003373ffffffffffffffffffffffffffffffffffffffff1673ffffffffffffffffffffffffffffffffffffffff16815260200190815260200160002060006101000a81548160ff02191690831515021790555050565b6000341161065357600080fd5b346000808282546106649190610aa8565b92505081905550565b60015481565b600660009054906101000a900473ffffffffffffffffffffffffffffffffffffffff1673ffffffffffffffffffffffffffffffffffffffff163373ffffffffffffffffffffffffffffffffffffffff16146106cd57600080fd5b8060028190555050565b600660009054906101000a900473ffffffffffffffffffffffffffffffffffffffff1673ffffffffffffffffffffffffffffffffffffffff163373ffffffffffffffffffffffffffffffffffffffff161461073157600080fd5b8060018190555050565b600660009054906101000a900473ffffffffffffffffffffffffffffffffffffffff1673ffffffffffffffffffffffffffffffffffffffff163373ffffffffffffffffffffffffffffffffffffffff161461079557600080fd5b8060038190555050565b60025481565b60035481565b600034116107b857600080fd5b346000808282546107c99190610aa8565b92505081905550565b6000600460008373ffffffffffffffffffffffffffffffffffffffff1673ffffffffffffffffffffffffffffffffffffffff168152602001908152602001600020549050919050565b600660009054906101000a900473ffffffffffffffffffffffffffffffffffffffff1673ffffffffffffffffffffffffffffffffffffffff163373ffffffffffffffffffffffffffffffffffffffff161461087557600080fd5b80600660006101000a81548173ffffffffffffffffffffffffffffffffffffffff021916908373ffffffffffffffffffffffffffffffffffffffff16021790555050565b60005481565b600034116108cc57600080fd5b346000808282546108dd9190610aa8565b92505081905550565b60008115159050919050565b6108fb816108e6565b82525050565b600060208201905061091660008301846108f2565b92915050565b600080fd5b600073ffffffffffffffffffffffffffffffffffffffff82169050919050565b600061094c82610921565b9050919050565b61095c81610941565b811461096757600080fd5b50565b60008135905061097981610953565b92915050565b6000819050919050565b6109928161097f565b811461099d57600080fd5b50565b6000813590506109af81610989565b92915050565b600080604083850312156109cc576109cb61091c565b5b60006109da8582860161096a565b92505060206109eb858286016109a0565b9150509250929050565b6109fe8161097f565b82525050565b6000602082019050610a1960008301846109f5565b92915050565b600060208284031215610a3557610a3461091c565b5b6000610a43848285016109a0565b91505092915050565b600060208284031215610a6257610a6161091c565b5b6000610a708482850161096a565b91505092915050565b7f4e487b7100000000000000000000000000000000000000000000000000000000600052601160045260246000fd5b6000610ab38261097f565b9150610abe8361097f565b9250828201905080821115610ad657610ad5610a79565b5b92915050565b600081905092915050565b50565b6000610af7600083610adc565b9150610b0282610ae7565b600082019050919050565b6000610b1882610aea565b9150819050919050565b600082825260208201905092915050565b7f5472616e73616374696f6e204661696c65640000000000000000000000000000600082015250565b6000610b69601283610b22565b9150610b7482610b33565b602082019050919050565b60006020820190508181036000830152610b9881610b5c565b905091905056fea2646970667358221220c1cc0626ced3aa9de009f4fc76ed5bf9e2d6d82c504b4e1fc5bc2b7dad4295b864736f6c63430008110033","opcodes":"PUSH1 0x80 PUSH1 0x40 MSTORE PUSH7 0x38D7EA4C68000 PUSH1 0x1 SSTORE PUSH7 0x38D7EA4C68000 PUSH1 0x2 SSTORE PUSH7 0x38D7EA4C68000 PUSH1 0x3 SSTORE CALLVALUE DUP1 ISZERO PUSH2 0x31 JUMPI PUSH1 0x0 DUP1 REVERT JUMPDEST POP PUSH2 0xBD5 DUP1 PUSH2 0x41 PUSH1 0x0 CODECOPY PUSH1 0x0 RETURN INVALID PUSH1 0x80 PUSH1 0x40 MSTORE PUSH1 0x4 CALLDATASIZE LT PUSH2 0xE8 JUMPI PUSH1 0x0 CALLDATALOAD PUSH1 0xE0 SHR DUP1 PUSH4 0x5BCE5441 GT PUSH2 0x8A JUMPI DUP1 PUSH4 0x9D7E7D38 GT PUSH2 0x59 JUMPI DUP1 PUSH4 0x9D7E7D38 EQ PUSH2 0x24E JUMPI DUP1 PUSH4 0xAB033EA9 EQ PUSH2 0x28B JUMPI DUP1 PUSH4 0xB69EF8A8 EQ PUSH2 0x2B4 JUMPI DUP1 PUSH4 0xF7BE4F2A EQ PUSH2 0x2DF JUMPI PUSH2 0xE8 JUMP JUMPDEST DUP1 PUSH4 0x5BCE5441 EQ PUSH2 0x1C5 JUMPI DUP1 PUSH4 0x7646A004 EQ PUSH2 0x1EE JUMPI DUP1 PUSH4 0x77956347 EQ PUSH2 0x219 JUMPI DUP1 PUSH4 0x8F5F656C EQ PUSH2 0x244 JUMPI PUSH2 0xE8 JUMP JUMPDEST DUP1 PUSH4 0x40C89D16 GT PUSH2 0xC6 JUMPI DUP1 PUSH4 0x40C89D16 EQ PUSH2 0x13E JUMPI DUP1 PUSH4 0x4D10DCBB EQ PUSH2 0x148 JUMPI DUP1 PUSH4 0x53822071 EQ PUSH2 0x173 JUMPI DUP1 PUSH4 0x55DFD10C EQ PUSH2 0x19C JUMPI PUSH2 0xE8 JUMP JUMPDEST DUP1 PUSH4 0x6A5D642 EQ PUSH2 0xED JUMPI DUP1 PUSH4 0x189ED356 EQ PUSH2 0x118 JUMPI DUP1 PUSH4 0x3CCFD60B EQ PUSH2 0x134 JUMPI JUMPDEST PUSH1 0x0 DUP1 REVERT JUMPDEST CALLVALUE DUP1 ISZERO PUSH2 0xF9 JUMPI PUSH1 0x0 DUP1 REVERT JUMPDEST POP PUSH2 0x102 PUSH2 0x2E9 JUMP JUMPDEST PUSH1 0x40 MLOAD PUSH2 0x10F SWAP2 SWAP1 PUSH2 0x901 JUMP JUMPDEST PUSH1 0x40 MLOAD DUP1 SWAP2 SUB SWAP1 RETURN JUMPDEST PUSH2 0x132 PUSH1 0x4 DUP1 CALLDATASIZE SUB DUP2 ADD SWAP1 PUSH2 0x12D SWAP2 SWAP1 PUSH2 0x9B5 JUMP JUMPDEST PUSH2 0x33D JUMP JUMPDEST STOP JUMPDEST PUSH2 0x13C PUSH2 0x465 JUMP JUMPDEST STOP JUMPDEST PUSH2 0x146 PUSH2 0x646 JUMP JUMPDEST STOP JUMPDEST CALLVALUE DUP1 ISZERO PUSH2 0x154 JUMPI PUSH1 0x0 DUP1 REVERT JUMPDEST POP PUSH2 0x15D PUSH2 0x66D JUMP JUMPDEST PUSH1 0x40 MLOAD PUSH2 0x16A SWAP2 SWAP1 PUSH2 0xA04 JUMP JUMPDEST PUSH1 0x40 MLOAD DUP1 SWAP2 SUB SWAP1 RETURN JUMPDEST CALLVALUE DUP1 ISZERO PUSH2 0x17F JUMPI PUSH1 0x0 DUP1 REVERT JUMPDEST POP PUSH2 0x19A PUSH1 0x4 DUP1 CALLDATASIZE SUB DUP2 ADD SWAP1 PUSH2 0x195 SWAP2 SWAP1 PUSH2 0xA1F JUMP JUMPDEST PUSH2 0x673 JUMP JUMPDEST STOP JUMPDEST CALLVALUE DUP1 ISZERO PUSH2 0x1A8 JUMPI PUSH1 0x0 DUP1 REVERT JUMPDEST POP PUSH2 0x1C3 PUSH1 0x4 DUP1 CALLDATASIZE SUB DUP2 ADD SWAP1 PUSH2 0x1BE SWAP2 SWAP1 PUSH2 0xA1F JUMP JUMPDEST PUSH2 0x6D7 JUMP JUMPDEST STOP JUMPDEST CALLVALUE DUP1 ISZERO PUSH2 0x1D1 JUMPI PUSH1 0x0 DUP1 REVERT JUMPDEST POP PUSH2 0x1EC PUSH1 0x4 DUP1 CALLDATASIZE SUB DUP2 ADD SWAP1 PUSH2 0x1E7 SWAP2 SWAP1 PUSH2 0xA1F JUMP JUMPDEST PUSH2 0x73B JUMP JUMPDEST STOP JUMPDEST CALLVALUE DUP1 ISZERO PUSH2 0x1FA JUMPI PUSH1 0x0 DUP1 REVERT JUMPDEST POP PUSH2 0x203 PUSH2 0x79F JUMP JUMPDEST PUSH1 0x40 MLOAD PUSH2 0x210 SWAP2 SWAP1 PUSH2 0xA04 JUMP JUMPDEST PUSH1 0x40 MLOAD DUP1 SWAP2 SUB SWAP1 RETURN JUMPDEST CALLVALUE DUP1 ISZERO PUSH2 0x225 JUMPI PUSH1 0x0 DUP1 REVERT JUMPDEST POP PUSH2 0x22E PUSH2 0x7A5 JUMP JUMPDEST PUSH1 0x40 MLOAD PUSH2 0x23B SWAP2 SWAP1 PUSH2 0xA04 JUMP JUMPDEST PUSH1 0x40 MLOAD DUP1 SWAP2 SUB SWAP1 RETURN JUMPDEST PUSH2 0x24C PUSH2 0x7AB JUMP JUMPDEST STOP JUMPDEST CALLVALUE DUP1 ISZERO PUSH2 0x25A JUMPI PUSH1 0x0 DUP1 REVERT JUMPDEST POP PUSH2 0x275 PUSH1 0x4 DUP1 CALLDATASIZE SUB DUP2 ADD SWAP1 PUSH2 0x270 SWAP2 SWAP1 PUSH2 0xA4C JUMP JUMPDEST PUSH2 0x7D2 JUMP JUMPDEST PUSH1 0x40 MLOAD PUSH2 0x282 SWAP2 SWAP1 PUSH2 0xA04 JUMP JUMPDEST PUSH1 0x40 MLOAD DUP1 SWAP2 SUB SWAP1 RETURN JUMPDEST CALLVALUE DUP1 ISZERO PUSH2 0x297 JUMPI PUSH1 0x0 DUP1 REVERT JUMPDEST POP PUSH2 0x2B2 PUSH1 0x4 DUP1 CALLDATASIZE SUB DUP2 ADD SWAP1 PUSH2 0x2AD SWAP2 SWAP1 PUSH2 0xA4C JUMP JUMPDEST PUSH2 0x81B JUMP JUMPDEST STOP JUMPDEST CALLVALUE DUP1 ISZERO PUSH2 0x2C0 JUMPI PUSH1 0x0 DUP1 REVERT JUMPDEST POP PUSH2 0x2C9 PUSH2 0x8B9 JUMP JUMPDEST PUSH1 0x40 MLOAD PUSH2 0x2D6 SWAP2 SWAP1 PUSH2 0xA04 JUMP JUMPDEST PUSH1 0x40 MLOAD DUP1 SWAP2 SUB SWAP1 RETURN JUMPDEST PUSH2 0x2E7 PUSH2 0x8BF JUMP JUMPDEST STOP JUMPDEST PUSH1 0x0 PUSH1 0x5 PUSH1 0x0 CALLER PUSH20 0xFFFFFFFFFFFFFFFFFFFFFFFFFFFFFFFFFFFFFFFF AND PUSH20 0xFFFFFFFFFFFFFFFFFFFFFFFFFFFFFFFFFFFFFFFF AND DUP2 MSTORE PUSH1 0x20 ADD SWAP1 DUP2 MSTORE PUSH1 0x20 ADD PUSH1 0x0 KECCAK256 PUSH1 0x0 SWAP1 SLOAD SWAP1 PUSH2 0x100 EXP SWAP1 DIV PUSH1 0xFF AND SWAP1 POP SWAP1 JUMP JUMPDEST PUSH1 0x6 PUSH1 0x0 SWAP1 SLOAD SWAP1 PUSH2 0x100 EXP SWAP1 DIV PUSH20 0xFFFFFFFFFFFFFFFFFFFFFFFFFFFFFFFFFFFFFFFF AND PUSH20 0xFFFFFFFFFFFFFFFFFFFFFFFFFFFFFFFFFFFFFFFF AND CALLER PUSH20 0xFFFFFFFFFFFFFFFFFFFFFFFFFFFFFFFFFFFFFFFF AND EQ PUSH2 0x397 JUMPI PUSH1 0x0 DUP1 REVERT JUMPDEST DUP1 PUSH1 0x0 SLOAD LT ISZERO PUSH2 0x3A6 JUMPI PUSH1 0x0 DUP1 REVERT JUMPDEST PUSH1 0x0 DUP2 GT PUSH2 0x3B3 JUMPI PUSH1 0x0 DUP1 REVERT JUMPDEST DUP1 PUSH1 0x4 PUSH1 0x0 DUP5 PUSH20 0xFFFFFFFFFFFFFFFFFFFFFFFFFFFFFFFFFFFFFFFF AND PUSH20 0xFFFFFFFFFFFFFFFFFFFFFFFFFFFFFFFFFFFFFFFF AND DUP2 MSTORE PUSH1 0x20 ADD SWAP1 DUP2 MSTORE PUSH1 0x20 ADD PUSH1 0x0 KECCAK256 PUSH1 0x0 DUP3 DUP3 SLOAD PUSH2 0x402 SWAP2 SWAP1 PUSH2 0xAA8 JUMP JUMPDEST SWAP3 POP POP DUP2 SWAP1 SSTORE POP PUSH1 0x1 PUSH1 0x5 PUSH1 0x0 DUP5 PUSH20 0xFFFFFFFFFFFFFFFFFFFFFFFFFFFFFFFFFFFFFFFF AND PUSH20 0xFFFFFFFFFFFFFFFFFFFFFFFFFFFFFFFFFFFFFFFF AND DUP2 MSTORE PUSH1 0x20 ADD SWAP1 DUP2 MSTORE PUSH1 0x20 ADD PUSH1 0x0 KECCAK256 PUSH1 0x0 PUSH2 0x100 EXP DUP2 SLOAD DUP2 PUSH1 0xFF MUL NOT AND SWAP1 DUP4 ISZERO ISZERO MUL OR SWAP1 SSTORE POP POP POP JUMP JUMPDEST PUSH1 0x5 PUSH1 0x0 CALLER PUSH20 0xFFFFFFFFFFFFFFFFFFFFFFFFFFFFFFFFFFFFFFFF AND PUSH20 0xFFFFFFFFFFFFFFFFFFFFFFFFFFFFFFFFFFFFFFFF AND DUP2 MSTORE PUSH1 0x20 ADD SWAP1 DUP2 MSTORE PUSH1 0x20 ADD PUSH1 0x0 KECCAK256 PUSH1 0x0 SWAP1 SLOAD SWAP1 PUSH2 0x100 EXP SWAP1 DIV PUSH1 0xFF AND PUSH2 0x4BB JUMPI PUSH1 0x0 DUP1 REVERT JUMPDEST PUSH1 0x0 CALLER PUSH20 0xFFFFFFFFFFFFFFFFFFFFFFFFFFFFFFFFFFFFFFFF AND PUSH1 0x4 PUSH1 0x0 CALLER PUSH20 0xFFFFFFFFFFFFFFFFFFFFFFFFFFFFFFFFFFFFFFFF AND PUSH20 0xFFFFFFFFFFFFFFFFFFFFFFFFFFFFFFFFFFFFFFFF AND DUP2 MSTORE PUSH1 0x20 ADD SWAP1 DUP2 MSTORE PUSH1 0x20 ADD PUSH1 0x0 KECCAK256 SLOAD PUSH1 0x40 MLOAD PUSH2 0x520 SWAP1 PUSH2 0xB0D JUMP JUMPDEST PUSH1 0x0 PUSH1 0x40 MLOAD DUP1 DUP4 SUB DUP2 DUP6 DUP8 GAS CALL SWAP3 POP POP POP RETURNDATASIZE DUP1 PUSH1 0x0 DUP2 EQ PUSH2 0x55D JUMPI PUSH1 0x40 MLOAD SWAP2 POP PUSH1 0x1F NOT PUSH1 0x3F RETURNDATASIZE ADD AND DUP3 ADD PUSH1 0x40 MSTORE RETURNDATASIZE DUP3 MSTORE RETURNDATASIZE PUSH1 0x0 PUSH1 0x20 DUP5 ADD RETURNDATACOPY PUSH2 0x562 JUMP JUMPDEST PUSH1 0x60 SWAP2 POP JUMPDEST POP POP SWAP1 POP DUP1 PUSH2 0x5A6 JUMPI PUSH1 0x40 MLOAD PUSH32 0x8C379A000000000000000000000000000000000000000000000000000000000 DUP2 MSTORE PUSH1 0x4 ADD PUSH2 0x59D SWAP1 PUSH2 0xB7F JUMP JUMPDEST PUSH1 0x40 MLOAD DUP1 SWAP2 SUB SWAP1 REVERT JUMPDEST PUSH1 0x0 PUSH1 0x4 PUSH1 0x0 CALLER PUSH20 0xFFFFFFFFFFFFFFFFFFFFFFFFFFFFFFFFFFFFFFFF AND PUSH20 0xFFFFFFFFFFFFFFFFFFFFFFFFFFFFFFFFFFFFFFFF AND DUP2 MSTORE PUSH1 0x20 ADD SWAP1 DUP2 MSTORE PUSH1 0x20 ADD PUSH1 0x0 KECCAK256 DUP2 SWAP1 SSTORE POP PUSH1 0x0 PUSH1 0x5 PUSH1 0x0 CALLER PUSH20 0xFFFFFFFFFFFFFFFFFFFFFFFFFFFFFFFFFFFFFFFF AND PUSH20 0xFFFFFFFFFFFFFFFFFFFFFFFFFFFFFFFFFFFFFFFF AND DUP2 MSTORE PUSH1 0x20 ADD SWAP1 DUP2 MSTORE PUSH1 0x20 ADD PUSH1 0x0 KECCAK256 PUSH1 0x0 PUSH2 0x100 EXP DUP2 SLOAD DUP2 PUSH1 0xFF MUL NOT AND SWAP1 DUP4 ISZERO ISZERO MUL OR SWAP1 SSTORE POP POP JUMP JUMPDEST PUSH1 0x0 CALLVALUE GT PUSH2 0x653 JUMPI PUSH1 0x0 DUP1 REVERT JUMPDEST CALLVALUE PUSH1 0x0 DUP1 DUP3 DUP3 SLOAD PUSH2 0x664 SWAP2 SWAP1 PUSH2 0xAA8 JUMP JUMPDEST SWAP3 POP POP DUP2 SWAP1 SSTORE POP JUMP JUMPDEST PUSH1 0x1 SLOAD DUP2 JUMP JUMPDEST PUSH1 0x6 PUSH1 0x0 SWAP1 SLOAD SWAP1 PUSH2 0x100 EXP SWAP1 DIV PUSH20 0xFFFFFFFFFFFFFFFFFFFFFFFFFFFFFFFFFFFFFFFF AND PUSH20 0xFFFFFFFFFFFFFFFFFFFFFFFFFFFFFFFFFFFFFFFF AND CALLER PUSH20 0xFFFFFFFFFFFFFFFFFFFFFFFFFFFFFFFFFFFFFFFF AND EQ PUSH2 0x6CD JUMPI PUSH1 0x0 DUP1 REVERT JUMPDEST DUP1 PUSH1 0x2 DUP2 SWAP1 SSTORE POP POP JUMP JUMPDEST PUSH1 0x6 PUSH1 0x0 SWAP1 SLOAD SWAP1 PUSH2 0x100 EXP SWAP1 DIV PUSH20 0xFFFFFFFFFFFFFFFFFFFFFFFFFFFFFFFFFFFFFFFF AND PUSH20 0xFFFFFFFFFFFFFFFFFFFFFFFFFFFFFFFFFFFFFFFF AND CALLER PUSH20 0xFFFFFFFFFFFFFFFFFFFFFFFFFFFFFFFFFFFFFFFF AND EQ PUSH2 0x731 JUMPI PUSH1 0x0 DUP1 REVERT JUMPDEST DUP1 PUSH1 0x1 DUP2 SWAP1 SSTORE POP POP JUMP JUMPDEST PUSH1 0x6 PUSH1 0x0 SWAP1 SLOAD SWAP1 PUSH2 0x100 EXP SWAP1 DIV PUSH20 0xFFFFFFFFFFFFFFFFFFFFFFFFFFFFFFFFFFFFFFFF AND PUSH20 0xFFFFFFFFFFFFFFFFFFFFFFFFFFFFFFFFFFFFFFFF AND CALLER PUSH20 0xFFFFFFFFFFFFFFFFFFFFFFFFFFFFFFFFFFFFFFFF AND EQ PUSH2 0x795 JUMPI PUSH1 0x0 DUP1 REVERT JUMPDEST DUP1 PUSH1 0x3 DUP2 SWAP1 SSTORE POP POP JUMP JUMPDEST PUSH1 0x2 SLOAD DUP2 JUMP JUMPDEST PUSH1 0x3 SLOAD DUP2 JUMP JUMPDEST PUSH1 0x0 CALLVALUE GT PUSH2 0x7B8 JUMPI PUSH1 0x0 DUP1 REVERT JUMPDEST CALLVALUE PUSH1 0x0 DUP1 DUP3 DUP3 SLOAD PUSH2 0x7C9 SWAP2 SWAP1 PUSH2 0xAA8 JUMP JUMPDEST SWAP3 POP POP DUP2 SWAP1 SSTORE POP JUMP JUMPDEST PUSH1 0x0 PUSH1 0x4 PUSH1 0x0 DUP4 PUSH20 0xFFFFFFFFFFFFFFFFFFFFFFFFFFFFFFFFFFFFFFFF AND PUSH20 0xFFFFFFFFFFFFFFFFFFFFFFFFFFFFFFFFFFFFFFFF AND DUP2 MSTORE PUSH1 0x20 ADD SWAP1 DUP2 MSTORE PUSH1 0x20 ADD PUSH1 0x0 KECCAK256 SLOAD SWAP1 POP SWAP2 SWAP1 POP JUMP JUMPDEST PUSH1 0x6 PUSH1 0x0 SWAP1 SLOAD SWAP1 PUSH2 0x100 EXP SWAP1 DIV PUSH20 0xFFFFFFFFFFFFFFFFFFFFFFFFFFFFFFFFFFFFFFFF AND PUSH20 0xFFFFFFFFFFFFFFFFFFFFFFFFFFFFFFFFFFFFFFFF AND CALLER PUSH20 0xFFFFFFFFFFFFFFFFFFFFFFFFFFFFFFFFFFFFFFFF AND EQ PUSH2 0x875 JUMPI PUSH1 0x0 DUP1 REVERT JUMPDEST DUP1 PUSH1 0x6 PUSH1 0x0 PUSH2 0x100 EXP DUP2 SLOAD DUP2 PUSH20 0xFFFFFFFFFFFFFFFFFFFFFFFFFFFFFFFFFFFFFFFF MUL NOT AND SWAP1 DUP4 PUSH20 0xFFFFFFFFFFFFFFFFFFFFFFFFFFFFFFFFFFFFFFFF AND MUL OR SWAP1 SSTORE POP POP JUMP JUMPDEST PUSH1 0x0 SLOAD DUP2 JUMP JUMPDEST PUSH1 0x0 CALLVALUE GT PUSH2 0x8CC JUMPI PUSH1 0x0 DUP1 REVERT JUMPDEST CALLVALUE PUSH1 0x0 DUP1 DUP3 DUP3 SLOAD PUSH2 0x8DD SWAP2 SWAP1 PUSH2 0xAA8 JUMP JUMPDEST SWAP3 POP POP DUP2 SWAP1 SSTORE POP JUMP JUMPDEST PUSH1 0x0 DUP2 ISZERO ISZERO SWAP1 POP SWAP2 SWAP1 POP JUMP JUMPDEST PUSH2 0x8FB DUP2 PUSH2 0x8E6 JUMP JUMPDEST DUP3 MSTORE POP POP JUMP JUMPDEST PUSH1 0x0 PUSH1 0x20 DUP3 ADD SWAP1 POP PUSH2 0x916 PUSH1 0x0 DUP4 ADD DUP5 PUSH2 0x8F2 JUMP JUMPDEST SWAP3 SWAP2 POP POP JUMP JUMPDEST PUSH1 0x0 DUP1 REVERT JUMPDEST PUSH1 0x0 PUSH20 0xFFFFFFFFFFFFFFFFFFFFFFFFFFFFFFFFFFFFFFFF DUP3 AND SWAP1 POP SWAP2 SWAP1 POP JUMP JUMPDEST PUSH1 0x0 PUSH2 0x94C DUP3 PUSH2 0x921 JUMP JUMPDEST SWAP1 POP SWAP2 SWAP1 POP JUMP JUMPDEST PUSH2 0x95C DUP2 PUSH2 0x941 JUMP JUMPDEST DUP2 EQ PUSH2 0x967 JUMPI PUSH1 0x0 DUP1 REVERT JUMPDEST POP JUMP JUMPDEST PUSH1 0x0 DUP2 CALLDATALOAD SWAP1 POP PUSH2 0x979 DUP2 PUSH2 0x953 JUMP JUMPDEST SWAP3 SWAP2 POP POP JUMP JUMPDEST PUSH1 0x0 DUP2 SWAP1 POP SWAP2 SWAP1 POP JUMP JUMPDEST PUSH2 0x992 DUP2 PUSH2 0x97F JUMP JUMPDEST DUP2 EQ PUSH2 0x99D JUMPI PUSH1 0x0 DUP1 REVERT JUMPDEST POP JUMP JUMPDEST PUSH1 0x0 DUP2 CALLDATALOAD SWAP1 POP PUSH2 0x9AF DUP2 PUSH2 0x989 JUMP JUMPDEST SWAP3 SWAP2 POP POP JUMP JUMPDEST PUSH1 0x0 DUP1 PUSH1 0x40 DUP4 DUP6 SUB SLT ISZERO PUSH2 0x9CC JUMPI PUSH2 0x9CB PUSH2 0x91C JUMP JUMPDEST JUMPDEST PUSH1 0x0 PUSH2 0x9DA DUP6 DUP3 DUP7 ADD PUSH2 0x96A JUMP JUMPDEST SWAP3 POP POP PUSH1 0x20 PUSH2 0x9EB DUP6 DUP3 DUP7 ADD PUSH2 0x9A0 JUMP JUMPDEST SWAP2 POP POP SWAP3 POP SWAP3 SWAP1 POP JUMP JUMPDEST PUSH2 0x9FE DUP2 PUSH2 0x97F JUMP JUMPDEST DUP3 MSTORE POP POP JUMP JUMPDEST PUSH1 0x0 PUSH1 0x20 DUP3 ADD SWAP1 POP PUSH2 0xA19 PUSH1 0x0 DUP4 ADD DUP5 PUSH2 0x9F5 JUMP JUMPDEST SWAP3 SWAP2 POP POP JUMP JUMPDEST PUSH1 0x0 PUSH1 0x20 DUP3 DUP5 SUB SLT ISZERO PUSH2 0xA35 JUMPI PUSH2 0xA34 PUSH2 0x91C JUMP JUMPDEST JUMPDEST PUSH1 0x0 PUSH2 0xA43 DUP5 DUP3 DUP6 ADD PUSH2 0x9A0 JUMP JUMPDEST SWAP2 POP POP SWAP3 SWAP2 POP POP JUMP JUMPDEST PUSH1 0x0 PUSH1 0x20 DUP3 DUP5 SUB SLT ISZERO PUSH2 0xA62 JUMPI PUSH2 0xA61 PUSH2 0x91C JUMP JUMPDEST JUMPDEST PUSH1 0x0 PUSH2 0xA70 DUP5 DUP3 DUP6 ADD PUSH2 0x96A JUMP JUMPDEST SWAP2 POP POP SWAP3 SWAP2 POP POP JUMP JUMPDEST PUSH32 0x4E487B7100000000000000000000000000000000000000000000000000000000 PUSH1 0x0 MSTORE PUSH1 0x11 PUSH1 0x4 MSTORE PUSH1 0x24 PUSH1 0x0 REVERT JUMPDEST PUSH1 0x0 PUSH2 0xAB3 DUP3 PUSH2 0x97F JUMP JUMPDEST SWAP2 POP PUSH2 0xABE DUP4 PUSH2 0x97F JUMP JUMPDEST SWAP3 POP DUP3 DUP3 ADD SWAP1 POP DUP1 DUP3 GT ISZERO PUSH2 0xAD6 JUMPI PUSH2 0xAD5 PUSH2 0xA79 JUMP JUMPDEST JUMPDEST SWAP3 SWAP2 POP POP JUMP JUMPDEST PUSH1 0x0 DUP2 SWAP1 POP SWAP3 SWAP2 POP POP JUMP JUMPDEST POP JUMP JUMPDEST PUSH1 0x0 PUSH2 0xAF7 PUSH1 0x0 DUP4 PUSH2 0xADC JUMP JUMPDEST SWAP2 POP PUSH2 0xB02 DUP3 PUSH2 0xAE7 JUMP JUMPDEST PUSH1 0x0 DUP3 ADD SWAP1 POP SWAP2 SWAP1 POP JUMP JUMPDEST PUSH1 0x0 PUSH2 0xB18 DUP3 PUSH2 0xAEA JUMP JUMPDEST SWAP2 POP DUP2 SWAP1 POP SWAP2 SWAP1 POP JUMP JUMPDEST PUSH1 0x0 DUP3 DUP3 MSTORE PUSH1 0x20 DUP3 ADD SWAP1 POP SWAP3 SWAP2 POP POP JUMP JUMPDEST PUSH32 0x5472616E73616374696F6E204661696C65640000000000000000000000000000 PUSH1 0x0 DUP3 ADD MSTORE POP JUMP JUMPDEST PUSH1 0x0 PUSH2 0xB69 PUSH1 0x12 DUP4 PUSH2 0xB22 JUMP JUMPDEST SWAP2 POP PUSH2 0xB74 DUP3 PUSH2 0xB33 JUMP JUMPDEST PUSH1 0x20 DUP3 ADD SWAP1 POP SWAP2 SWAP1 POP JUMP JUMPDEST PUSH1 0x0 PUSH1 0x20 DUP3 ADD SWAP1 POP DUP2 DUP2 SUB PUSH1 0x0 DUP4 ADD MSTORE PUSH2 0xB98 DUP2 PUSH2 0xB5C JUMP JUMPDEST SWAP1 POP SWAP2 SWAP1 POP JUMP INVALID LOG2 PUSH5 0x6970667358 0x22 SLT KECCAK256 0xC1 0xCC MOD 0x26 0xCE 0xD3 0xAA SWAP14 0xE0 MULMOD DELEGATECALL 0xFC PUSH23 0xED5BF9E2D6D82C504B4E1FC5BC2B7DAD4295B864736F6C PUSH4 0x43000811 STOP CALLER "},"gasEstimates":{"creation":{"codeDepositCost":"605800","executionCost":"66956","totalCost":"672756"},"external":{"allocateFunds(address,uint256)":"infinite","balance()":"2495","getMemberAllocation(address)":"2863","hasAllocation()":"2592","newApplicantFee()":"2474","newPoolFee()":"2474","newProposalFee()":"2496","payNewApplicantFee()":"infinite","payNewPoolFee()":"infinite","payNewProposalFee()":"infinite","setGovernance(address)":"26936","setNewApplicantFee(uint256)":"24779","setNewPoolFee(uint256)":"24757","setNewProposalFee(uint256)":"24713","withdraw()":"infinite"}},"methodIdentifiers":{"allocateFunds(address,uint256)":"189ed356","balance()":"b69ef8a8","getMemberAllocation(address)":"9d7e7d38","hasAllocation()":"06a5d642","newApplicantFee()":"4d10dcbb","newPoolFee()":"7646a004","newProposalFee()":"77956347","payNewApplicantFee()":"8f5f656c","payNewPoolFee()":"f7be4f2a","payNewProposalFee()":"40c89d16","setGovernance(address)":"ab033ea9","setNewApplicantFee(uint256)":"55dfd10c","setNewPoolFee(uint256)":"53822071","setNewProposalFee(uint256)":"5bce5441","withdraw()":"3ccfd60b"}},"storageLayout":{"storage":[{"astId":2019,"contract":"Treasury.sol:Treasury","label":"balance","offset":0,"slot":"0","type":"t_uint256"},{"astId":2022,"contract":"Treasury.sol:Treasury","label":"newApplicantFee","offset":0,"slot":"1","type":"t_uint256"},{"astId":2025,"contract":"Treasury.sol:Treasury","label":"newPoolFee","offset":0,"slot":"2","type":"t_uint256"},{"astId":2028,"contract":"Treasury.sol:Treasury","label":"newProposalFee","offset":0,"slot":"3","type":"t_uint256"},{"astId":2032,"contract":"Treasury.sol:Treasury","label":"memberAllocation","offset":0,"slot":"4","type":"t_mapping(t_address,t_uint256)"},{"astId":2036,"contract":"Treasury.sol:Treasury","label":"memberHasAllocation","offset":0,"slot":"5","type":"t_mapping(t_address,t_bool)"},{"astId":2038,"contract":"Treasury.sol:Treasury","label":"governanceAddress","offset":0,"slot":"6","type":"t_address"}],"types":{"t_address":{"encoding":"inplace","label":"address","numberOfBytes":"20"},"t_bool":{"encoding":"inplace","label":"bool","numberOfBytes":"1"},"t_mapping(t_address,t_bool)":{"encoding":"mapping","key":"t_address","label":"mapping(address => bool)","numberOfBytes":"32","value":"t_bool"},"t_mapping(t_address,t_uint256)":{"encoding":"mapping","key":"t_address","label":"mapping(address => uint256)","numberOfBytes":"32","value":"t_uint256"},"t_uint256":{"encoding":"inplace","label":"uint256","numberOfBytes":"32"}}},"userdoc":{"kind":"user","methods":{},"version":1}}