{"abi":[{"inputs":[{"internalType":"string","name":"applicantWords","type":"string"}],"name":"createInterview","outputs":[],"stateMutability":"nonpayable","type":"function"},{"inputs":[{"internalType":"address","name":"id","type":"address"}],"name":"getInterview","outputs":[{"internalType":"address","name":"","type":"address"}],"stateMutability":"view","type":"function"}],"devdoc":{"kind":"dev","methods":{},"version":1},"evm":{"assembly":"    /* \"Coop.sol\":58:432  contract InterviewFactory {... */\n  mstore(0x40, 0x80)\n  callvalue\n  dup1\n  iszero\n  tag_1\n  jumpi\n  0x00\n  dup1\n  revert\ntag_1:\n  pop\n  dataSize(sub_0)\n  dup1\n  dataOffset(sub_0)\n  0x00\n  codecopy\n  0x00\n  return\nstop\n\nsub_0: assembly {\n        /* \"Coop.sol\":58:432  contract InterviewFactory {... */\n      mstore(0x40, 0x80)\n      callvalue\n      dup1\n      iszero\n      tag_1\n      jumpi\n      0x00\n      dup1\n      revert\n    tag_1:\n      pop\n      jumpi(tag_2, lt(calldatasize, 0x04))\n      shr(0xe0, calldataload(0x00))\n      dup1\n      0x203770f7\n      eq\n      tag_3\n      jumpi\n      dup1\n      0x976eb7bd\n      eq\n      tag_4\n      jumpi\n    tag_2:\n      0x00\n      dup1\n      revert\n        /* \"Coop.sol\":135:322  function createInterview(string memory applicantWords) public {... */\n    tag_3:\n      tag_5\n      0x04\n      dup1\n      calldatasize\n      sub\n      dup2\n      add\n      swap1\n      tag_6\n      swap2\n      swap1\n      tag_7\n      jump\t// in\n    tag_6:\n      tag_8\n      jump\t// in\n    tag_5:\n      stop\n        /* \"Coop.sol\":328:430  function getInterview(address id) public view returns (address) {... */\n    tag_4:\n      tag_9\n      0x04\n      dup1\n      calldatasize\n      sub\n      dup2\n      add\n      swap1\n      tag_10\n      swap2\n      swap1\n      tag_11\n      jump\t// in\n    tag_10:\n      tag_12\n      jump\t// in\n    tag_9:\n      mload(0x40)\n      tag_13\n      swap2\n      swap1\n      tag_14\n      jump\t// in\n    tag_13:\n      mload(0x40)\n      dup1\n      swap2\n      sub\n      swap1\n      return\n        /* \"Coop.sol\":135:322  function createInterview(string memory applicantWords) public {... */\n    tag_8:\n        /* \"Coop.sol\":207:227  address newInterview */\n      0x00\n        /* \"Coop.sol\":252:266  applicantWords */\n      dup2\n        /* \"Coop.sol\":238:267  new Interview(applicantWords) */\n      mload(0x40)\n      tag_16\n      swap1\n      tag_17\n      jump\t// in\n    tag_16:\n      tag_18\n      swap2\n      swap1\n      tag_19\n      jump\t// in\n    tag_18:\n      mload(0x40)\n      dup1\n      swap2\n      sub\n      swap1\n      0x00\n      create\n      dup1\n      iszero\n      dup1\n      iszero\n      tag_20\n      jumpi\n      returndatasize\n      0x00\n      dup1\n      returndatacopy\n      revert(0x00, returndatasize)\n    tag_20:\n      pop\n        /* \"Coop.sol\":207:268  address newInterview = address(new Interview(applicantWords)) */\n      swap1\n      pop\n        /* \"Coop.sol\":303:315  newInterview */\n      dup1\n        /* \"Coop.sol\":278:288  interviews */\n      0x00\n        /* \"Coop.sol\":278:300  interviews[msg.sender] */\n      dup1\n        /* \"Coop.sol\":289:299  msg.sender */\n      caller\n        /* \"Coop.sol\":278:300  interviews[msg.sender] */\n      0xffffffffffffffffffffffffffffffffffffffff\n      and\n      0xffffffffffffffffffffffffffffffffffffffff\n      and\n      dup2\n      mstore\n      0x20\n      add\n      swap1\n      dup2\n      mstore\n      0x20\n      add\n      0x00\n      keccak256\n      0x00\n        /* \"Coop.sol\":278:315  interviews[msg.sender] = newInterview */\n      0x0100\n      exp\n      dup2\n      sload\n      dup2\n      0xffffffffffffffffffffffffffffffffffffffff\n      mul\n      not\n      and\n      swap1\n      dup4\n      0xffffffffffffffffffffffffffffffffffffffff\n      and\n      mul\n      or\n      swap1\n      sstore\n      pop\n        /* \"Coop.sol\":197:322  {... */\n      pop\n        /* \"Coop.sol\":135:322  function createInterview(string memory applicantWords) public {... */\n      pop\n      jump\t// out\n        /* \"Coop.sol\":328:430  function getInterview(address id) public view returns (address) {... */\n    tag_12:\n        /* \"Coop.sol\":383:390  address */\n      0x00\n        /* \"Coop.sol\":409:419  interviews */\n      dup1\n        /* \"Coop.sol\":409:423  interviews[id] */\n      0x00\n        /* \"Coop.sol\":420:422  id */\n      dup4\n        /* \"Coop.sol\":409:423  interviews[id] */\n      0xffffffffffffffffffffffffffffffffffffffff\n      and\n      0xffffffffffffffffffffffffffffffffffffffff\n      and\n      dup2\n      mstore\n      0x20\n      add\n      swap1\n      dup2\n      mstore\n      0x20\n      add\n      0x00\n      keccak256\n      0x00\n      swap1\n      sload\n      swap1\n      0x0100\n      exp\n      swap1\n      div\n      0xffffffffffffffffffffffffffffffffffffffff\n      and\n        /* \"Coop.sol\":402:423  return interviews[id] */\n      swap1\n      pop\n        /* \"Coop.sol\":328:430  function getInterview(address id) public view returns (address) {... */\n      swap2\n      swap1\n      pop\n      jump\t// out\n    tag_17:\n      dataSize(sub_0)\n      dup1\n      dataOffset(sub_0)\n      dup4\n      codecopy\n      add\n      swap1\n      jump\t// out\n        /* \"#utility.yul\":7:82   */\n    tag_22:\n        /* \"#utility.yul\":40:46   */\n      0x00\n        /* \"#utility.yul\":73:75   */\n      0x40\n        /* \"#utility.yul\":67:76   */\n      mload\n        /* \"#utility.yul\":57:76   */\n      swap1\n      pop\n        /* \"#utility.yul\":7:82   */\n      swap1\n      jump\t// out\n        /* \"#utility.yul\":88:205   */\n    tag_23:\n        /* \"#utility.yul\":197:198   */\n      0x00\n        /* \"#utility.yul\":194:195   */\n      dup1\n        /* \"#utility.yul\":187:199   */\n      revert\n        /* \"#utility.yul\":211:328   */\n    tag_24:\n        /* \"#utility.yul\":320:321   */\n      0x00\n        /* \"#utility.yul\":317:318   */\n      dup1\n        /* \"#utility.yul\":310:322   */\n      revert\n        /* \"#utility.yul\":334:451   */\n    tag_25:\n        /* \"#utility.yul\":443:444   */\n      0x00\n        /* \"#utility.yul\":440:441   */\n      dup1\n        /* \"#utility.yul\":433:445   */\n      revert\n        /* \"#utility.yul\":457:574   */\n    tag_26:\n        /* \"#utility.yul\":566:567   */\n      0x00\n        /* \"#utility.yul\":563:564   */\n      dup1\n        /* \"#utility.yul\":556:568   */\n      revert\n        /* \"#utility.yul\":580:682   */\n    tag_27:\n        /* \"#utility.yul\":621:627   */\n      0x00\n        /* \"#utility.yul\":672:674   */\n      0x1f\n        /* \"#utility.yul\":668:675   */\n      not\n        /* \"#utility.yul\":663:665   */\n      0x1f\n        /* \"#utility.yul\":656:661   */\n      dup4\n        /* \"#utility.yul\":652:666   */\n      add\n        /* \"#utility.yul\":648:676   */\n      and\n        /* \"#utility.yul\":638:676   */\n      swap1\n      pop\n        /* \"#utility.yul\":580:682   */\n      swap2\n      swap1\n      pop\n      jump\t// out\n        /* \"#utility.yul\":688:868   */\n    tag_28:\n        /* \"#utility.yul\":736:813   */\n      0x4e487b7100000000000000000000000000000000000000000000000000000000\n        /* \"#utility.yul\":733:734   */\n      0x00\n        /* \"#utility.yul\":726:814   */\n      mstore\n        /* \"#utility.yul\":833:837   */\n      0x41\n        /* \"#utility.yul\":830:831   */\n      0x04\n        /* \"#utility.yul\":823:838   */\n      mstore\n        /* \"#utility.yul\":857:861   */\n      0x24\n        /* \"#utility.yul\":854:855   */\n      0x00\n        /* \"#utility.yul\":847:862   */\n      revert\n        /* \"#utility.yul\":874:1155   */\n    tag_29:\n        /* \"#utility.yul\":957:984   */\n      tag_53\n        /* \"#utility.yul\":979:983   */\n      dup3\n        /* \"#utility.yul\":957:984   */\n      tag_27\n      jump\t// in\n    tag_53:\n        /* \"#utility.yul\":949:955   */\n      dup2\n        /* \"#utility.yul\":945:985   */\n      add\n        /* \"#utility.yul\":1087:1093   */\n      dup2\n        /* \"#utility.yul\":1075:1085   */\n      dup2\n        /* \"#utility.yul\":1072:1094   */\n      lt\n        /* \"#utility.yul\":1051:1069   */\n      0xffffffffffffffff\n        /* \"#utility.yul\":1039:1049   */\n      dup3\n        /* \"#utility.yul\":1036:1070   */\n      gt\n        /* \"#utility.yul\":1033:1095   */\n      or\n        /* \"#utility.yul\":1030:1118   */\n      iszero\n      tag_54\n      jumpi\n        /* \"#utility.yul\":1098:1116   */\n      tag_55\n      tag_28\n      jump\t// in\n    tag_55:\n        /* \"#utility.yul\":1030:1118   */\n    tag_54:\n        /* \"#utility.yul\":1138:1148   */\n      dup1\n        /* \"#utility.yul\":1134:1136   */\n      0x40\n        /* \"#utility.yul\":1127:1149   */\n      mstore\n        /* \"#utility.yul\":917:1155   */\n      pop\n        /* \"#utility.yul\":874:1155   */\n      pop\n      pop\n      jump\t// out\n        /* \"#utility.yul\":1161:1290   */\n    tag_30:\n        /* \"#utility.yul\":1195:1201   */\n      0x00\n        /* \"#utility.yul\":1222:1242   */\n      tag_57\n      tag_22\n      jump\t// in\n    tag_57:\n        /* \"#utility.yul\":1212:1242   */\n      swap1\n      pop\n        /* \"#utility.yul\":1251:1284   */\n      tag_58\n        /* \"#utility.yul\":1279:1283   */\n      dup3\n        /* \"#utility.yul\":1271:1277   */\n      dup3\n        /* \"#utility.yul\":1251:1284   */\n      tag_29\n      jump\t// in\n    tag_58:\n        /* \"#utility.yul\":1161:1290   */\n      swap2\n      swap1\n      pop\n      jump\t// out\n        /* \"#utility.yul\":1296:1604   */\n    tag_31:\n        /* \"#utility.yul\":1358:1362   */\n      0x00\n        /* \"#utility.yul\":1448:1466   */\n      0xffffffffffffffff\n        /* \"#utility.yul\":1440:1446   */\n      dup3\n        /* \"#utility.yul\":1437:1467   */\n      gt\n        /* \"#utility.yul\":1434:1490   */\n      iszero\n      tag_60\n      jumpi\n        /* \"#utility.yul\":1470:1488   */\n      tag_61\n      tag_28\n      jump\t// in\n    tag_61:\n        /* \"#utility.yul\":1434:1490   */\n    tag_60:\n        /* \"#utility.yul\":1508:1537   */\n      tag_62\n        /* \"#utility.yul\":1530:1536   */\n      dup3\n        /* \"#utility.yul\":1508:1537   */\n      tag_27\n      jump\t// in\n    tag_62:\n        /* \"#utility.yul\":1500:1537   */\n      swap1\n      pop\n        /* \"#utility.yul\":1592:1596   */\n      0x20\n        /* \"#utility.yul\":1586:1590   */\n      dup2\n        /* \"#utility.yul\":1582:1597   */\n      add\n        /* \"#utility.yul\":1574:1597   */\n      swap1\n      pop\n        /* \"#utility.yul\":1296:1604   */\n      swap2\n      swap1\n      pop\n      jump\t// out\n        /* \"#utility.yul\":1610:1756   */\n    tag_32:\n        /* \"#utility.yul\":1707:1713   */\n      dup3\n        /* \"#utility.yul\":1702:1705   */\n      dup2\n        /* \"#utility.yul\":1697:1700   */\n      dup4\n        /* \"#utility.yul\":1684:1714   */\n      calldatacopy\n        /* \"#utility.yul\":1748:1749   */\n      0x00\n        /* \"#utility.yul\":1739:1745   */\n      dup4\n        /* \"#utility.yul\":1734:1737   */\n      dup4\n        /* \"#utility.yul\":1730:1746   */\n      add\n        /* \"#utility.yul\":1723:1750   */\n      mstore\n        /* \"#utility.yul\":1610:1756   */\n      pop\n      pop\n      pop\n      jump\t// out\n        /* \"#utility.yul\":1762:2187   */\n    tag_33:\n        /* \"#utility.yul\":1840:1845   */\n      0x00\n        /* \"#utility.yul\":1865:1931   */\n      tag_65\n        /* \"#utility.yul\":1881:1930   */\n      tag_66\n        /* \"#utility.yul\":1923:1929   */\n      dup5\n        /* \"#utility.yul\":1881:1930   */\n      tag_31\n      jump\t// in\n    tag_66:\n        /* \"#utility.yul\":1865:1931   */\n      tag_30\n      jump\t// in\n    tag_65:\n        /* \"#utility.yul\":1856:1931   */\n      swap1\n      pop\n        /* \"#utility.yul\":1954:1960   */\n      dup3\n        /* \"#utility.yul\":1947:1952   */\n      dup2\n        /* \"#utility.yul\":1940:1961   */\n      mstore\n        /* \"#utility.yul\":1992:1996   */\n      0x20\n        /* \"#utility.yul\":1985:1990   */\n      dup2\n        /* \"#utility.yul\":1981:1997   */\n      add\n        /* \"#utility.yul\":2030:2033   */\n      dup5\n        /* \"#utility.yul\":2021:2027   */\n      dup5\n        /* \"#utility.yul\":2016:2019   */\n      dup5\n        /* \"#utility.yul\":2012:2028   */\n      add\n        /* \"#utility.yul\":2009:2034   */\n      gt\n        /* \"#utility.yul\":2006:2118   */\n      iszero\n      tag_67\n      jumpi\n        /* \"#utility.yul\":2037:2116   */\n      tag_68\n      tag_26\n      jump\t// in\n    tag_68:\n        /* \"#utility.yul\":2006:2118   */\n    tag_67:\n        /* \"#utility.yul\":2127:2181   */\n      tag_69\n        /* \"#utility.yul\":2174:2180   */\n      dup5\n        /* \"#utility.yul\":2169:2172   */\n      dup3\n        /* \"#utility.yul\":2164:2167   */\n      dup6\n        /* \"#utility.yul\":2127:2181   */\n      tag_32\n      jump\t// in\n    tag_69:\n        /* \"#utility.yul\":1846:2187   */\n      pop\n        /* \"#utility.yul\":1762:2187   */\n      swap4\n      swap3\n      pop\n      pop\n      pop\n      jump\t// out\n        /* \"#utility.yul\":2207:2547   */\n    tag_34:\n        /* \"#utility.yul\":2263:2268   */\n      0x00\n        /* \"#utility.yul\":2312:2315   */\n      dup3\n        /* \"#utility.yul\":2305:2309   */\n      0x1f\n        /* \"#utility.yul\":2297:2303   */\n      dup4\n        /* \"#utility.yul\":2293:2310   */\n      add\n        /* \"#utility.yul\":2289:2316   */\n      slt\n        /* \"#utility.yul\":2279:2401   */\n      tag_71\n      jumpi\n        /* \"#utility.yul\":2320:2399   */\n      tag_72\n      tag_25\n      jump\t// in\n    tag_72:\n        /* \"#utility.yul\":2279:2401   */\n    tag_71:\n        /* \"#utility.yul\":2437:2443   */\n      dup2\n        /* \"#utility.yul\":2424:2444   */\n      calldataload\n        /* \"#utility.yul\":2462:2541   */\n      tag_73\n        /* \"#utility.yul\":2537:2540   */\n      dup5\n        /* \"#utility.yul\":2529:2535   */\n      dup3\n        /* \"#utility.yul\":2522:2526   */\n      0x20\n        /* \"#utility.yul\":2514:2520   */\n      dup7\n        /* \"#utility.yul\":2510:2527   */\n      add\n        /* \"#utility.yul\":2462:2541   */\n      tag_33\n      jump\t// in\n    tag_73:\n        /* \"#utility.yul\":2453:2541   */\n      swap2\n      pop\n        /* \"#utility.yul\":2269:2547   */\n      pop\n        /* \"#utility.yul\":2207:2547   */\n      swap3\n      swap2\n      pop\n      pop\n      jump\t// out\n        /* \"#utility.yul\":2553:3062   */\n    tag_7:\n        /* \"#utility.yul\":2622:2628   */\n      0x00\n        /* \"#utility.yul\":2671:2673   */\n      0x20\n        /* \"#utility.yul\":2659:2668   */\n      dup3\n        /* \"#utility.yul\":2650:2657   */\n      dup5\n        /* \"#utility.yul\":2646:2669   */\n      sub\n        /* \"#utility.yul\":2642:2674   */\n      slt\n        /* \"#utility.yul\":2639:2758   */\n      iszero\n      tag_75\n      jumpi\n        /* \"#utility.yul\":2677:2756   */\n      tag_76\n      tag_23\n      jump\t// in\n    tag_76:\n        /* \"#utility.yul\":2639:2758   */\n    tag_75:\n        /* \"#utility.yul\":2825:2826   */\n      0x00\n        /* \"#utility.yul\":2814:2823   */\n      dup3\n        /* \"#utility.yul\":2810:2827   */\n      add\n        /* \"#utility.yul\":2797:2828   */\n      calldataload\n        /* \"#utility.yul\":2855:2873   */\n      0xffffffffffffffff\n        /* \"#utility.yul\":2847:2853   */\n      dup2\n        /* \"#utility.yul\":2844:2874   */\n      gt\n        /* \"#utility.yul\":2841:2958   */\n      iszero\n      tag_77\n      jumpi\n        /* \"#utility.yul\":2877:2956   */\n      tag_78\n      tag_24\n      jump\t// in\n    tag_78:\n        /* \"#utility.yul\":2841:2958   */\n    tag_77:\n        /* \"#utility.yul\":2982:3045   */\n      tag_79\n        /* \"#utility.yul\":3037:3044   */\n      dup5\n        /* \"#utility.yul\":3028:3034   */\n      dup3\n        /* \"#utility.yul\":3017:3026   */\n      dup6\n        /* \"#utility.yul\":3013:3035   */\n      add\n        /* \"#utility.yul\":2982:3045   */\n      tag_34\n      jump\t// in\n    tag_79:\n        /* \"#utility.yul\":2972:3045   */\n      swap2\n      pop\n        /* \"#utility.yul\":2768:3055   */\n      pop\n        /* \"#utility.yul\":2553:3062   */\n      swap3\n      swap2\n      pop\n      pop\n      jump\t// out\n        /* \"#utility.yul\":3068:3194   */\n    tag_35:\n        /* \"#utility.yul\":3105:3112   */\n      0x00\n        /* \"#utility.yul\":3145:3187   */\n      0xffffffffffffffffffffffffffffffffffffffff\n        /* \"#utility.yul\":3138:3143   */\n      dup3\n        /* \"#utility.yul\":3134:3188   */\n      and\n        /* \"#utility.yul\":3123:3188   */\n      swap1\n      pop\n        /* \"#utility.yul\":3068:3194   */\n      swap2\n      swap1\n      pop\n      jump\t// out\n        /* \"#utility.yul\":3200:3296   */\n    tag_36:\n        /* \"#utility.yul\":3237:3244   */\n      0x00\n        /* \"#utility.yul\":3266:3290   */\n      tag_82\n        /* \"#utility.yul\":3284:3289   */\n      dup3\n        /* \"#utility.yul\":3266:3290   */\n      tag_35\n      jump\t// in\n    tag_82:\n        /* \"#utility.yul\":3255:3290   */\n      swap1\n      pop\n        /* \"#utility.yul\":3200:3296   */\n      swap2\n      swap1\n      pop\n      jump\t// out\n        /* \"#utility.yul\":3302:3424   */\n    tag_37:\n        /* \"#utility.yul\":3375:3399   */\n      tag_84\n        /* \"#utility.yul\":3393:3398   */\n      dup2\n        /* \"#utility.yul\":3375:3399   */\n      tag_36\n      jump\t// in\n    tag_84:\n        /* \"#utility.yul\":3368:3373   */\n      dup2\n        /* \"#utility.yul\":3365:3400   */\n      eq\n        /* \"#utility.yul\":3355:3418   */\n      tag_85\n      jumpi\n        /* \"#utility.yul\":3414:3415   */\n      0x00\n        /* \"#utility.yul\":3411:3412   */\n      dup1\n        /* \"#utility.yul\":3404:3416   */\n      revert\n        /* \"#utility.yul\":3355:3418   */\n    tag_85:\n        /* \"#utility.yul\":3302:3424   */\n      pop\n      jump\t// out\n        /* \"#utility.yul\":3430:3569   */\n    tag_38:\n        /* \"#utility.yul\":3476:3481   */\n      0x00\n        /* \"#utility.yul\":3514:3520   */\n      dup2\n        /* \"#utility.yul\":3501:3521   */\n      calldataload\n        /* \"#utility.yul\":3492:3521   */\n      swap1\n      pop\n        /* \"#utility.yul\":3530:3563   */\n      tag_87\n        /* \"#utility.yul\":3557:3562   */\n      dup2\n        /* \"#utility.yul\":3530:3563   */\n      tag_37\n      jump\t// in\n    tag_87:\n        /* \"#utility.yul\":3430:3569   */\n      swap3\n      swap2\n      pop\n      pop\n      jump\t// out\n        /* \"#utility.yul\":3575:3904   */\n    tag_11:\n        /* \"#utility.yul\":3634:3640   */\n      0x00\n        /* \"#utility.yul\":3683:3685   */\n      0x20\n        /* \"#utility.yul\":3671:3680   */\n      dup3\n        /* \"#utility.yul\":3662:3669   */\n      dup5\n        /* \"#utility.yul\":3658:3681   */\n      sub\n        /* \"#utility.yul\":3654:3686   */\n      slt\n        /* \"#utility.yul\":3651:3770   */\n      iszero\n      tag_89\n      jumpi\n        /* \"#utility.yul\":3689:3768   */\n      tag_90\n      tag_23\n      jump\t// in\n    tag_90:\n        /* \"#utility.yul\":3651:3770   */\n    tag_89:\n        /* \"#utility.yul\":3809:3810   */\n      0x00\n        /* \"#utility.yul\":3834:3887   */\n      tag_91\n        /* \"#utility.yul\":3879:3886   */\n      dup5\n        /* \"#utility.yul\":3870:3876   */\n      dup3\n        /* \"#utility.yul\":3859:3868   */\n      dup6\n        /* \"#utility.yul\":3855:3877   */\n      add\n        /* \"#utility.yul\":3834:3887   */\n      tag_38\n      jump\t// in\n    tag_91:\n        /* \"#utility.yul\":3824:3887   */\n      swap2\n      pop\n        /* \"#utility.yul\":3780:3897   */\n      pop\n        /* \"#utility.yul\":3575:3904   */\n      swap3\n      swap2\n      pop\n      pop\n      jump\t// out\n        /* \"#utility.yul\":3910:4028   */\n    tag_39:\n        /* \"#utility.yul\":3997:4021   */\n      tag_93\n        /* \"#utility.yul\":4015:4020   */\n      dup2\n        /* \"#utility.yul\":3997:4021   */\n      tag_36\n      jump\t// in\n    tag_93:\n        /* \"#utility.yul\":3992:3995   */\n      dup3\n        /* \"#utility.yul\":3985:4022   */\n      mstore\n        /* \"#utility.yul\":3910:4028   */\n      pop\n      pop\n      jump\t// out\n        /* \"#utility.yul\":4034:4256   */\n    tag_14:\n        /* \"#utility.yul\":4127:4131   */\n      0x00\n        /* \"#utility.yul\":4165:4167   */\n      0x20\n        /* \"#utility.yul\":4154:4163   */\n      dup3\n        /* \"#utility.yul\":4150:4168   */\n      add\n        /* \"#utility.yul\":4142:4168   */\n      swap1\n      pop\n        /* \"#utility.yul\":4178:4249   */\n      tag_95\n        /* \"#utility.yul\":4246:4247   */\n      0x00\n        /* \"#utility.yul\":4235:4244   */\n      dup4\n        /* \"#utility.yul\":4231:4248   */\n      add\n        /* \"#utility.yul\":4222:4228   */\n      dup5\n        /* \"#utility.yul\":4178:4249   */\n      tag_39\n      jump\t// in\n    tag_95:\n        /* \"#utility.yul\":4034:4256   */\n      swap3\n      swap2\n      pop\n      pop\n      jump\t// out\n        /* \"#utility.yul\":4262:4361   */\n    tag_40:\n        /* \"#utility.yul\":4314:4320   */\n      0x00\n        /* \"#utility.yul\":4348:4353   */\n      dup2\n        /* \"#utility.yul\":4342:4354   */\n      mload\n        /* \"#utility.yul\":4332:4354   */\n      swap1\n      pop\n        /* \"#utility.yul\":4262:4361   */\n      swap2\n      swap1\n      pop\n      jump\t// out\n        /* \"#utility.yul\":4367:4536   */\n    tag_41:\n        /* \"#utility.yul\":4451:4462   */\n      0x00\n        /* \"#utility.yul\":4485:4491   */\n      dup3\n        /* \"#utility.yul\":4480:4483   */\n      dup3\n        /* \"#utility.yul\":4473:4492   */\n      mstore\n        /* \"#utility.yul\":4525:4529   */\n      0x20\n        /* \"#utility.yul\":4520:4523   */\n      dup3\n        /* \"#utility.yul\":4516:4530   */\n      add\n        /* \"#utility.yul\":4501:4530   */\n      swap1\n      pop\n        /* \"#utility.yul\":4367:4536   */\n      swap3\n      swap2\n      pop\n      pop\n      jump\t// out\n        /* \"#utility.yul\":4542:4788   */\n    tag_42:\n        /* \"#utility.yul\":4623:4624   */\n      0x00\n        /* \"#utility.yul\":4633:4746   */\n    tag_99:\n        /* \"#utility.yul\":4647:4653   */\n      dup4\n        /* \"#utility.yul\":4644:4645   */\n      dup2\n        /* \"#utility.yul\":4641:4654   */\n      lt\n        /* \"#utility.yul\":4633:4746   */\n      iszero\n      tag_101\n      jumpi\n        /* \"#utility.yul\":4732:4733   */\n      dup1\n        /* \"#utility.yul\":4727:4730   */\n      dup3\n        /* \"#utility.yul\":4723:4734   */\n      add\n        /* \"#utility.yul\":4717:4735   */\n      mload\n        /* \"#utility.yul\":4713:4714   */\n      dup2\n        /* \"#utility.yul\":4708:4711   */\n      dup5\n        /* \"#utility.yul\":4704:4715   */\n      add\n        /* \"#utility.yul\":4697:4736   */\n      mstore\n        /* \"#utility.yul\":4669:4671   */\n      0x20\n        /* \"#utility.yul\":4666:4667   */\n      dup2\n        /* \"#utility.yul\":4662:4672   */\n      add\n        /* \"#utility.yul\":4657:4672   */\n      swap1\n      pop\n        /* \"#utility.yul\":4633:4746   */\n      jump(tag_99)\n    tag_101:\n        /* \"#utility.yul\":4780:4781   */\n      0x00\n        /* \"#utility.yul\":4771:4777   */\n      dup5\n        /* \"#utility.yul\":4766:4769   */\n      dup5\n        /* \"#utility.yul\":4762:4778   */\n      add\n        /* \"#utility.yul\":4755:4782   */\n      mstore\n        /* \"#utility.yul\":4604:4788   */\n      pop\n        /* \"#utility.yul\":4542:4788   */\n      pop\n      pop\n      pop\n      jump\t// out\n        /* \"#utility.yul\":4794:5171   */\n    tag_43:\n        /* \"#utility.yul\":4882:4885   */\n      0x00\n        /* \"#utility.yul\":4910:4949   */\n      tag_103\n        /* \"#utility.yul\":4943:4948   */\n      dup3\n        /* \"#utility.yul\":4910:4949   */\n      tag_40\n      jump\t// in\n    tag_103:\n        /* \"#utility.yul\":4965:5036   */\n      tag_104\n        /* \"#utility.yul\":5029:5035   */\n      dup2\n        /* \"#utility.yul\":5024:5027   */\n      dup6\n        /* \"#utility.yul\":4965:5036   */\n      tag_41\n      jump\t// in\n    tag_104:\n        /* \"#utility.yul\":4958:5036   */\n      swap4\n      pop\n        /* \"#utility.yul\":5045:5110   */\n      tag_105\n        /* \"#utility.yul\":5103:5109   */\n      dup2\n        /* \"#utility.yul\":5098:5101   */\n      dup6\n        /* \"#utility.yul\":5091:5095   */\n      0x20\n        /* \"#utility.yul\":5084:5089   */\n      dup7\n        /* \"#utility.yul\":5080:5096   */\n      add\n        /* \"#utility.yul\":5045:5110   */\n      tag_42\n      jump\t// in\n    tag_105:\n        /* \"#utility.yul\":5135:5164   */\n      tag_106\n        /* \"#utility.yul\":5157:5163   */\n      dup2\n        /* \"#utility.yul\":5135:5164   */\n      tag_27\n      jump\t// in\n    tag_106:\n        /* \"#utility.yul\":5130:5133   */\n      dup5\n        /* \"#utility.yul\":5126:5165   */\n      add\n        /* \"#utility.yul\":5119:5165   */\n      swap2\n      pop\n        /* \"#utility.yul\":4886:5171   */\n      pop\n        /* \"#utility.yul\":4794:5171   */\n      swap3\n      swap2\n      pop\n      pop\n      jump\t// out\n        /* \"#utility.yul\":5177:5490   */\n    tag_19:\n        /* \"#utility.yul\":5290:5294   */\n      0x00\n        /* \"#utility.yul\":5328:5330   */\n      0x20\n        /* \"#utility.yul\":5317:5326   */\n      dup3\n        /* \"#utility.yul\":5313:5331   */\n      add\n        /* \"#utility.yul\":5305:5331   */\n      swap1\n      pop\n        /* \"#utility.yul\":5377:5386   */\n      dup2\n        /* \"#utility.yul\":5371:5375   */\n      dup2\n        /* \"#utility.yul\":5367:5387   */\n      sub\n        /* \"#utility.yul\":5363:5364   */\n      0x00\n        /* \"#utility.yul\":5352:5361   */\n      dup4\n        /* \"#utility.yul\":5348:5365   */\n      add\n        /* \"#utility.yul\":5341:5388   */\n      mstore\n        /* \"#utility.yul\":5405:5483   */\n      tag_108\n        /* \"#utility.yul\":5478:5482   */\n      dup2\n        /* \"#utility.yul\":5469:5475   */\n      dup5\n        /* \"#utility.yul\":5405:5483   */\n      tag_43\n      jump\t// in\n    tag_108:\n        /* \"#utility.yul\":5397:5483   */\n      swap1\n      pop\n        /* \"#utility.yul\":5177:5490   */\n      swap3\n      swap2\n      pop\n      pop\n      jump\t// out\n    stop\n\n    sub_0: assembly {\n            /* \"Coop.sol\":434:778  contract Interview {... */\n          mstore(0x40, 0x80)\n            /* \"Coop.sol\":703:776  constructor(string memory words) {... */\n          callvalue\n          dup1\n          iszero\n          tag_1\n          jumpi\n          0x00\n          dup1\n          revert\n        tag_1:\n          pop\n          mload(0x40)\n          sub(codesize, bytecodeSize)\n          dup1\n          bytecodeSize\n          dup4\n          codecopy\n          dup2\n          dup2\n          add\n          0x40\n          mstore\n          dup2\n          add\n          swap1\n          tag_2\n          swap2\n          swap1\n          tag_3\n          jump\t// in\n        tag_2:\n            /* \"Coop.sol\":764:769  words */\n          dup1\n            /* \"Coop.sol\":746:761  applicantsWords */\n          0x02\n            /* \"Coop.sol\":746:769  applicantsWords = words */\n          swap1\n          dup2\n          tag_6\n          swap2\n          swap1\n          tag_7\n          jump\t// in\n        tag_6:\n          pop\n            /* \"Coop.sol\":703:776  constructor(string memory words) {... */\n          pop\n            /* \"Coop.sol\":434:778  contract Interview {... */\n          jump(tag_8)\n            /* \"#utility.yul\":7:82   */\n        tag_9:\n            /* \"#utility.yul\":40:46   */\n          0x00\n            /* \"#utility.yul\":73:75   */\n          0x40\n            /* \"#utility.yul\":67:76   */\n          mload\n            /* \"#utility.yul\":57:76   */\n          swap1\n          pop\n            /* \"#utility.yul\":7:82   */\n          swap1\n          jump\t// out\n            /* \"#utility.yul\":88:205   */\n        tag_10:\n            /* \"#utility.yul\":197:198   */\n          0x00\n            /* \"#utility.yul\":194:195   */\n          dup1\n            /* \"#utility.yul\":187:199   */\n          revert\n            /* \"#utility.yul\":211:328   */\n        tag_11:\n            /* \"#utility.yul\":320:321   */\n          0x00\n            /* \"#utility.yul\":317:318   */\n          dup1\n            /* \"#utility.yul\":310:322   */\n          revert\n            /* \"#utility.yul\":334:451   */\n        tag_12:\n            /* \"#utility.yul\":443:444   */\n          0x00\n            /* \"#utility.yul\":440:441   */\n          dup1\n            /* \"#utility.yul\":433:445   */\n          revert\n            /* \"#utility.yul\":457:574   */\n        tag_13:\n            /* \"#utility.yul\":566:567   */\n          0x00\n            /* \"#utility.yul\":563:564   */\n          dup1\n            /* \"#utility.yul\":556:568   */\n          revert\n            /* \"#utility.yul\":580:682   */\n        tag_14:\n            /* \"#utility.yul\":621:627   */\n          0x00\n            /* \"#utility.yul\":672:674   */\n          0x1f\n            /* \"#utility.yul\":668:675   */\n          not\n            /* \"#utility.yul\":663:665   */\n          0x1f\n            /* \"#utility.yul\":656:661   */\n          dup4\n            /* \"#utility.yul\":652:666   */\n          add\n            /* \"#utility.yul\":648:676   */\n          and\n            /* \"#utility.yul\":638:676   */\n          swap1\n          pop\n            /* \"#utility.yul\":580:682   */\n          swap2\n          swap1\n          pop\n          jump\t// out\n            /* \"#utility.yul\":688:868   */\n        tag_15:\n            /* \"#utility.yul\":736:813   */\n          0x4e487b7100000000000000000000000000000000000000000000000000000000\n            /* \"#utility.yul\":733:734   */\n          0x00\n            /* \"#utility.yul\":726:814   */\n          mstore\n            /* \"#utility.yul\":833:837   */\n          0x41\n            /* \"#utility.yul\":830:831   */\n          0x04\n            /* \"#utility.yul\":823:838   */\n          mstore\n            /* \"#utility.yul\":857:861   */\n          0x24\n            /* \"#utility.yul\":854:855   */\n          0x00\n            /* \"#utility.yul\":847:862   */\n          revert\n            /* \"#utility.yul\":874:1155   */\n        tag_16:\n            /* \"#utility.yul\":957:984   */\n          tag_50\n            /* \"#utility.yul\":979:983   */\n          dup3\n            /* \"#utility.yul\":957:984   */\n          tag_14\n          jump\t// in\n        tag_50:\n            /* \"#utility.yul\":949:955   */\n          dup2\n            /* \"#utility.yul\":945:985   */\n          add\n            /* \"#utility.yul\":1087:1093   */\n          dup2\n            /* \"#utility.yul\":1075:1085   */\n          dup2\n            /* \"#utility.yul\":1072:1094   */\n          lt\n            /* \"#utility.yul\":1051:1069   */\n          0xffffffffffffffff\n            /* \"#utility.yul\":1039:1049   */\n          dup3\n            /* \"#utility.yul\":1036:1070   */\n          gt\n            /* \"#utility.yul\":1033:1095   */\n          or\n            /* \"#utility.yul\":1030:1118   */\n          iszero\n          tag_51\n          jumpi\n            /* \"#utility.yul\":1098:1116   */\n          tag_52\n          tag_15\n          jump\t// in\n        tag_52:\n            /* \"#utility.yul\":1030:1118   */\n        tag_51:\n            /* \"#utility.yul\":1138:1148   */\n          dup1\n            /* \"#utility.yul\":1134:1136   */\n          0x40\n            /* \"#utility.yul\":1127:1149   */\n          mstore\n            /* \"#utility.yul\":917:1155   */\n          pop\n            /* \"#utility.yul\":874:1155   */\n          pop\n          pop\n          jump\t// out\n            /* \"#utility.yul\":1161:1290   */\n        tag_17:\n            /* \"#utility.yul\":1195:1201   */\n          0x00\n            /* \"#utility.yul\":1222:1242   */\n          tag_54\n          tag_9\n          jump\t// in\n        tag_54:\n            /* \"#utility.yul\":1212:1242   */\n          swap1\n          pop\n            /* \"#utility.yul\":1251:1284   */\n          tag_55\n            /* \"#utility.yul\":1279:1283   */\n          dup3\n            /* \"#utility.yul\":1271:1277   */\n          dup3\n            /* \"#utility.yul\":1251:1284   */\n          tag_16\n          jump\t// in\n        tag_55:\n            /* \"#utility.yul\":1161:1290   */\n          swap2\n          swap1\n          pop\n          jump\t// out\n            /* \"#utility.yul\":1296:1604   */\n        tag_18:\n            /* \"#utility.yul\":1358:1362   */\n          0x00\n            /* \"#utility.yul\":1448:1466   */\n          0xffffffffffffffff\n            /* \"#utility.yul\":1440:1446   */\n          dup3\n            /* \"#utility.yul\":1437:1467   */\n          gt\n            /* \"#utility.yul\":1434:1490   */\n          iszero\n          tag_57\n          jumpi\n            /* \"#utility.yul\":1470:1488   */\n          tag_58\n          tag_15\n          jump\t// in\n        tag_58:\n            /* \"#utility.yul\":1434:1490   */\n        tag_57:\n            /* \"#utility.yul\":1508:1537   */\n          tag_59\n            /* \"#utility.yul\":1530:1536   */\n          dup3\n            /* \"#utility.yul\":1508:1537   */\n          tag_14\n          jump\t// in\n        tag_59:\n            /* \"#utility.yul\":1500:1537   */\n          swap1\n          pop\n            /* \"#utility.yul\":1592:1596   */\n          0x20\n            /* \"#utility.yul\":1586:1590   */\n          dup2\n            /* \"#utility.yul\":1582:1597   */\n          add\n            /* \"#utility.yul\":1574:1597   */\n          swap1\n          pop\n            /* \"#utility.yul\":1296:1604   */\n          swap2\n          swap1\n          pop\n          jump\t// out\n            /* \"#utility.yul\":1610:1856   */\n        tag_19:\n            /* \"#utility.yul\":1691:1692   */\n          0x00\n            /* \"#utility.yul\":1701:1814   */\n        tag_61:\n            /* \"#utility.yul\":1715:1721   */\n          dup4\n            /* \"#utility.yul\":1712:1713   */\n          dup2\n            /* \"#utility.yul\":1709:1722   */\n          lt\n            /* \"#utility.yul\":1701:1814   */\n          iszero\n          tag_63\n          jumpi\n            /* \"#utility.yul\":1800:1801   */\n          dup1\n            /* \"#utility.yul\":1795:1798   */\n          dup3\n            /* \"#utility.yul\":1791:1802   */\n          add\n            /* \"#utility.yul\":1785:1803   */\n          mload\n            /* \"#utility.yul\":1781:1782   */\n          dup2\n            /* \"#utility.yul\":1776:1779   */\n          dup5\n            /* \"#utility.yul\":1772:1783   */\n          add\n            /* \"#utility.yul\":1765:1804   */\n          mstore\n            /* \"#utility.yul\":1737:1739   */\n          0x20\n            /* \"#utility.yul\":1734:1735   */\n          dup2\n            /* \"#utility.yul\":1730:1740   */\n          add\n            /* \"#utility.yul\":1725:1740   */\n          swap1\n          pop\n            /* \"#utility.yul\":1701:1814   */\n          jump(tag_61)\n        tag_63:\n            /* \"#utility.yul\":1848:1849   */\n          0x00\n            /* \"#utility.yul\":1839:1845   */\n          dup5\n            /* \"#utility.yul\":1834:1837   */\n          dup5\n            /* \"#utility.yul\":1830:1846   */\n          add\n            /* \"#utility.yul\":1823:1850   */\n          mstore\n            /* \"#utility.yul\":1672:1856   */\n          pop\n            /* \"#utility.yul\":1610:1856   */\n          pop\n          pop\n          pop\n          jump\t// out\n            /* \"#utility.yul\":1862:2296   */\n        tag_20:\n            /* \"#utility.yul\":1951:1956   */\n          0x00\n            /* \"#utility.yul\":1976:2042   */\n          tag_65\n            /* \"#utility.yul\":1992:2041   */\n          tag_66\n            /* \"#utility.yul\":2034:2040   */\n          dup5\n            /* \"#utility.yul\":1992:2041   */\n          tag_18\n          jump\t// in\n        tag_66:\n            /* \"#utility.yul\":1976:2042   */\n          tag_17\n          jump\t// in\n        tag_65:\n            /* \"#utility.yul\":1967:2042   */\n          swap1\n          pop\n            /* \"#utility.yul\":2065:2071   */\n          dup3\n            /* \"#utility.yul\":2058:2063   */\n          dup2\n            /* \"#utility.yul\":2051:2072   */\n          mstore\n            /* \"#utility.yul\":2103:2107   */\n          0x20\n            /* \"#utility.yul\":2096:2101   */\n          dup2\n            /* \"#utility.yul\":2092:2108   */\n          add\n            /* \"#utility.yul\":2141:2144   */\n          dup5\n            /* \"#utility.yul\":2132:2138   */\n          dup5\n            /* \"#utility.yul\":2127:2130   */\n          dup5\n            /* \"#utility.yul\":2123:2139   */\n          add\n            /* \"#utility.yul\":2120:2145   */\n          gt\n            /* \"#utility.yul\":2117:2229   */\n          iszero\n          tag_67\n          jumpi\n            /* \"#utility.yul\":2148:2227   */\n          tag_68\n          tag_13\n          jump\t// in\n        tag_68:\n            /* \"#utility.yul\":2117:2229   */\n        tag_67:\n            /* \"#utility.yul\":2238:2290   */\n          tag_69\n            /* \"#utility.yul\":2283:2289   */\n          dup5\n            /* \"#utility.yul\":2278:2281   */\n          dup3\n            /* \"#utility.yul\":2273:2276   */\n          dup6\n            /* \"#utility.yul\":2238:2290   */\n          tag_19\n          jump\t// in\n        tag_69:\n            /* \"#utility.yul\":1957:2296   */\n          pop\n            /* \"#utility.yul\":1862:2296   */\n          swap4\n          swap3\n          pop\n          pop\n          pop\n          jump\t// out\n            /* \"#utility.yul\":2316:2671   */\n        tag_21:\n            /* \"#utility.yul\":2383:2388   */\n          0x00\n            /* \"#utility.yul\":2432:2435   */\n          dup3\n            /* \"#utility.yul\":2425:2429   */\n          0x1f\n            /* \"#utility.yul\":2417:2423   */\n          dup4\n            /* \"#utility.yul\":2413:2430   */\n          add\n            /* \"#utility.yul\":2409:2436   */\n          slt\n            /* \"#utility.yul\":2399:2521   */\n          tag_71\n          jumpi\n            /* \"#utility.yul\":2440:2519   */\n          tag_72\n          tag_12\n          jump\t// in\n        tag_72:\n            /* \"#utility.yul\":2399:2521   */\n        tag_71:\n            /* \"#utility.yul\":2550:2556   */\n          dup2\n            /* \"#utility.yul\":2544:2557   */\n          mload\n            /* \"#utility.yul\":2575:2665   */\n          tag_73\n            /* \"#utility.yul\":2661:2664   */\n          dup5\n            /* \"#utility.yul\":2653:2659   */\n          dup3\n            /* \"#utility.yul\":2646:2650   */\n          0x20\n            /* \"#utility.yul\":2638:2644   */\n          dup7\n            /* \"#utility.yul\":2634:2651   */\n          add\n            /* \"#utility.yul\":2575:2665   */\n          tag_20\n          jump\t// in\n        tag_73:\n            /* \"#utility.yul\":2566:2665   */\n          swap2\n          pop\n            /* \"#utility.yul\":2389:2671   */\n          pop\n            /* \"#utility.yul\":2316:2671   */\n          swap3\n          swap2\n          pop\n          pop\n          jump\t// out\n            /* \"#utility.yul\":2677:3201   */\n        tag_3:\n            /* \"#utility.yul\":2757:2763   */\n          0x00\n            /* \"#utility.yul\":2806:2808   */\n          0x20\n            /* \"#utility.yul\":2794:2803   */\n          dup3\n            /* \"#utility.yul\":2785:2792   */\n          dup5\n            /* \"#utility.yul\":2781:2804   */\n          sub\n            /* \"#utility.yul\":2777:2809   */\n          slt\n            /* \"#utility.yul\":2774:2893   */\n          iszero\n          tag_75\n          jumpi\n            /* \"#utility.yul\":2812:2891   */\n          tag_76\n          tag_10\n          jump\t// in\n        tag_76:\n            /* \"#utility.yul\":2774:2893   */\n        tag_75:\n            /* \"#utility.yul\":2953:2954   */\n          0x00\n            /* \"#utility.yul\":2942:2951   */\n          dup3\n            /* \"#utility.yul\":2938:2955   */\n          add\n            /* \"#utility.yul\":2932:2956   */\n          mload\n            /* \"#utility.yul\":2983:3001   */\n          0xffffffffffffffff\n            /* \"#utility.yul\":2975:2981   */\n          dup2\n            /* \"#utility.yul\":2972:3002   */\n          gt\n            /* \"#utility.yul\":2969:3086   */\n          iszero\n          tag_77\n          jumpi\n            /* \"#utility.yul\":3005:3084   */\n          tag_78\n          tag_11\n          jump\t// in\n        tag_78:\n            /* \"#utility.yul\":2969:3086   */\n        tag_77:\n            /* \"#utility.yul\":3110:3184   */\n          tag_79\n            /* \"#utility.yul\":3176:3183   */\n          dup5\n            /* \"#utility.yul\":3167:3173   */\n          dup3\n            /* \"#utility.yul\":3156:3165   */\n          dup6\n            /* \"#utility.yul\":3152:3174   */\n          add\n            /* \"#utility.yul\":3110:3184   */\n          tag_21\n          jump\t// in\n        tag_79:\n            /* \"#utility.yul\":3100:3184   */\n          swap2\n          pop\n            /* \"#utility.yul\":2903:3194   */\n          pop\n            /* \"#utility.yul\":2677:3201   */\n          swap3\n          swap2\n          pop\n          pop\n          jump\t// out\n            /* \"#utility.yul\":3207:3306   */\n        tag_22:\n            /* \"#utility.yul\":3259:3265   */\n          0x00\n            /* \"#utility.yul\":3293:3298   */\n          dup2\n            /* \"#utility.yul\":3287:3299   */\n          mload\n            /* \"#utility.yul\":3277:3299   */\n          swap1\n          pop\n            /* \"#utility.yul\":3207:3306   */\n          swap2\n          swap1\n          pop\n          jump\t// out\n            /* \"#utility.yul\":3312:3492   */\n        tag_23:\n            /* \"#utility.yul\":3360:3437   */\n          0x4e487b7100000000000000000000000000000000000000000000000000000000\n            /* \"#utility.yul\":3357:3358   */\n          0x00\n            /* \"#utility.yul\":3350:3438   */\n          mstore\n            /* \"#utility.yul\":3457:3461   */\n          0x22\n            /* \"#utility.yul\":3454:3455   */\n          0x04\n            /* \"#utility.yul\":3447:3462   */\n          mstore\n            /* \"#utility.yul\":3481:3485   */\n          0x24\n            /* \"#utility.yul\":3478:3479   */\n          0x00\n            /* \"#utility.yul\":3471:3486   */\n          revert\n            /* \"#utility.yul\":3498:3818   */\n        tag_24:\n            /* \"#utility.yul\":3542:3548   */\n          0x00\n            /* \"#utility.yul\":3579:3580   */\n          0x02\n            /* \"#utility.yul\":3573:3577   */\n          dup3\n            /* \"#utility.yul\":3569:3581   */\n          div\n            /* \"#utility.yul\":3559:3581   */\n          swap1\n          pop\n            /* \"#utility.yul\":3626:3627   */\n          0x01\n            /* \"#utility.yul\":3620:3624   */\n          dup3\n            /* \"#utility.yul\":3616:3628   */\n          and\n            /* \"#utility.yul\":3647:3665   */\n          dup1\n            /* \"#utility.yul\":3637:3718   */\n          tag_83\n          jumpi\n            /* \"#utility.yul\":3703:3707   */\n          0x7f\n            /* \"#utility.yul\":3695:3701   */\n          dup3\n            /* \"#utility.yul\":3691:3708   */\n          and\n            /* \"#utility.yul\":3681:3708   */\n          swap2\n          pop\n            /* \"#utility.yul\":3637:3718   */\n        tag_83:\n            /* \"#utility.yul\":3765:3767   */\n          0x20\n            /* \"#utility.yul\":3757:3763   */\n          dup3\n            /* \"#utility.yul\":3754:3768   */\n          lt\n            /* \"#utility.yul\":3734:3752   */\n          dup2\n            /* \"#utility.yul\":3731:3769   */\n          sub\n            /* \"#utility.yul\":3728:3812   */\n          tag_84\n          jumpi\n            /* \"#utility.yul\":3784:3802   */\n          tag_85\n          tag_23\n          jump\t// in\n        tag_85:\n            /* \"#utility.yul\":3728:3812   */\n        tag_84:\n            /* \"#utility.yul\":3549:3818   */\n          pop\n            /* \"#utility.yul\":3498:3818   */\n          swap2\n          swap1\n          pop\n          jump\t// out\n            /* \"#utility.yul\":3824:3965   */\n        tag_25:\n            /* \"#utility.yul\":3873:3877   */\n          0x00\n            /* \"#utility.yul\":3896:3899   */\n          dup2\n            /* \"#utility.yul\":3888:3899   */\n          swap1\n          pop\n            /* \"#utility.yul\":3919:3922   */\n          dup2\n            /* \"#utility.yul\":3916:3917   */\n          0x00\n            /* \"#utility.yul\":3909:3923   */\n          mstore\n            /* \"#utility.yul\":3953:3957   */\n          0x20\n            /* \"#utility.yul\":3950:3951   */\n          0x00\n            /* \"#utility.yul\":3940:3958   */\n          keccak256\n            /* \"#utility.yul\":3932:3958   */\n          swap1\n          pop\n            /* \"#utility.yul\":3824:3965   */\n          swap2\n          swap1\n          pop\n          jump\t// out\n            /* \"#utility.yul\":3971:4064   */\n        tag_26:\n            /* \"#utility.yul\":4008:4014   */\n          0x00\n            /* \"#utility.yul\":4055:4057   */\n          0x20\n            /* \"#utility.yul\":4050:4052   */\n          0x1f\n            /* \"#utility.yul\":4043:4048   */\n          dup4\n            /* \"#utility.yul\":4039:4053   */\n          add\n            /* \"#utility.yul\":4035:4058   */\n          div\n            /* \"#utility.yul\":4025:4058   */\n          swap1\n          pop\n            /* \"#utility.yul\":3971:4064   */\n          swap2\n          swap1\n          pop\n          jump\t// out\n            /* \"#utility.yul\":4070:4177   */\n        tag_27:\n            /* \"#utility.yul\":4114:4122   */\n          0x00\n            /* \"#utility.yul\":4164:4169   */\n          dup3\n            /* \"#utility.yul\":4158:4162   */\n          dup3\n            /* \"#utility.yul\":4154:4170   */\n          shl\n            /* \"#utility.yul\":4133:4170   */\n          swap1\n          pop\n            /* \"#utility.yul\":4070:4177   */\n          swap3\n          swap2\n          pop\n          pop\n          jump\t// out\n            /* \"#utility.yul\":4183:4576   */\n        tag_28:\n            /* \"#utility.yul\":4252:4258   */\n          0x00\n            /* \"#utility.yul\":4302:4303   */\n          0x08\n            /* \"#utility.yul\":4290:4300   */\n          dup4\n            /* \"#utility.yul\":4286:4304   */\n          mul\n            /* \"#utility.yul\":4325:4422   */\n          tag_90\n            /* \"#utility.yul\":4355:4421   */\n          0xffffffffffffffffffffffffffffffffffffffffffffffffffffffffffffffff\n            /* \"#utility.yul\":4344:4353   */\n          dup3\n            /* \"#utility.yul\":4325:4422   */\n          tag_27\n          jump\t// in\n        tag_90:\n            /* \"#utility.yul\":4443:4482   */\n          tag_91\n            /* \"#utility.yul\":4473:4481   */\n          dup7\n            /* \"#utility.yul\":4462:4471   */\n          dup4\n            /* \"#utility.yul\":4443:4482   */\n          tag_27\n          jump\t// in\n        tag_91:\n            /* \"#utility.yul\":4431:4482   */\n          swap6\n          pop\n            /* \"#utility.yul\":4515:4519   */\n          dup1\n            /* \"#utility.yul\":4511:4520   */\n          not\n            /* \"#utility.yul\":4504:4509   */\n          dup5\n            /* \"#utility.yul\":4500:4521   */\n          and\n            /* \"#utility.yul\":4491:4521   */\n          swap4\n          pop\n            /* \"#utility.yul\":4564:4568   */\n          dup1\n            /* \"#utility.yul\":4554:4562   */\n          dup7\n            /* \"#utility.yul\":4550:4569   */\n          and\n            /* \"#utility.yul\":4543:4548   */\n          dup5\n            /* \"#utility.yul\":4540:4570   */\n          or\n            /* \"#utility.yul\":4530:4570   */\n          swap3\n          pop\n            /* \"#utility.yul\":4259:4576   */\n          pop\n          pop\n            /* \"#utility.yul\":4183:4576   */\n          swap4\n          swap3\n          pop\n          pop\n          pop\n          jump\t// out\n            /* \"#utility.yul\":4582:4659   */\n        tag_29:\n            /* \"#utility.yul\":4619:4626   */\n          0x00\n            /* \"#utility.yul\":4648:4653   */\n          dup2\n            /* \"#utility.yul\":4637:4653   */\n          swap1\n          pop\n            /* \"#utility.yul\":4582:4659   */\n          swap2\n          swap1\n          pop\n          jump\t// out\n            /* \"#utility.yul\":4665:4725   */\n        tag_30:\n            /* \"#utility.yul\":4693:4696   */\n          0x00\n            /* \"#utility.yul\":4714:4719   */\n          dup2\n            /* \"#utility.yul\":4707:4719   */\n          swap1\n          pop\n            /* \"#utility.yul\":4665:4725   */\n          swap2\n          swap1\n          pop\n          jump\t// out\n            /* \"#utility.yul\":4731:4873   */\n        tag_31:\n            /* \"#utility.yul\":4781:4790   */\n          0x00\n            /* \"#utility.yul\":4814:4867   */\n          tag_95\n            /* \"#utility.yul\":4832:4866   */\n          tag_96\n            /* \"#utility.yul\":4841:4865   */\n          tag_97\n            /* \"#utility.yul\":4859:4864   */\n          dup5\n            /* \"#utility.yul\":4841:4865   */\n          tag_29\n          jump\t// in\n        tag_97:\n            /* \"#utility.yul\":4832:4866   */\n          tag_30\n          jump\t// in\n        tag_96:\n            /* \"#utility.yul\":4814:4867   */\n          tag_29\n          jump\t// in\n        tag_95:\n            /* \"#utility.yul\":4801:4867   */\n          swap1\n          pop\n            /* \"#utility.yul\":4731:4873   */\n          swap2\n          swap1\n          pop\n          jump\t// out\n            /* \"#utility.yul\":4879:4954   */\n        tag_32:\n            /* \"#utility.yul\":4922:4925   */\n          0x00\n            /* \"#utility.yul\":4943:4948   */\n          dup2\n            /* \"#utility.yul\":4936:4948   */\n          swap1\n          pop\n            /* \"#utility.yul\":4879:4954   */\n          swap2\n          swap1\n          pop\n          jump\t// out\n            /* \"#utility.yul\":4960:5229   */\n        tag_33:\n            /* \"#utility.yul\":5070:5109   */\n          tag_100\n            /* \"#utility.yul\":5101:5108   */\n          dup4\n            /* \"#utility.yul\":5070:5109   */\n          tag_31\n          jump\t// in\n        tag_100:\n            /* \"#utility.yul\":5131:5222   */\n          tag_101\n            /* \"#utility.yul\":5180:5221   */\n          tag_102\n            /* \"#utility.yul\":5204:5220   */\n          dup3\n            /* \"#utility.yul\":5180:5221   */\n          tag_32\n          jump\t// in\n        tag_102:\n            /* \"#utility.yul\":5172:5178   */\n          dup5\n            /* \"#utility.yul\":5165:5169   */\n          dup5\n            /* \"#utility.yul\":5159:5170   */\n          sload\n            /* \"#utility.yul\":5131:5222   */\n          tag_28\n          jump\t// in\n        tag_101:\n            /* \"#utility.yul\":5125:5129   */\n          dup3\n            /* \"#utility.yul\":5118:5223   */\n          sstore\n            /* \"#utility.yul\":5036:5229   */\n          pop\n            /* \"#utility.yul\":4960:5229   */\n          pop\n          pop\n          pop\n          jump\t// out\n            /* \"#utility.yul\":5235:5308   */\n        tag_34:\n            /* \"#utility.yul\":5280:5283   */\n          0x00\n            /* \"#utility.yul\":5235:5308   */\n          swap1\n          jump\t// out\n            /* \"#utility.yul\":5314:5503   */\n        tag_35:\n            /* \"#utility.yul\":5391:5423   */\n          tag_105\n          tag_34\n          jump\t// in\n        tag_105:\n            /* \"#utility.yul\":5432:5497   */\n          tag_106\n            /* \"#utility.yul\":5490:5496   */\n          dup2\n            /* \"#utility.yul\":5482:5488   */\n          dup5\n            /* \"#utility.yul\":5476:5480   */\n          dup5\n            /* \"#utility.yul\":5432:5497   */\n          tag_33\n          jump\t// in\n        tag_106:\n            /* \"#utility.yul\":5367:5503   */\n          pop\n            /* \"#utility.yul\":5314:5503   */\n          pop\n          pop\n          jump\t// out\n            /* \"#utility.yul\":5509:5695   */\n        tag_36:\n            /* \"#utility.yul\":5569:5689   */\n        tag_108:\n            /* \"#utility.yul\":5586:5589   */\n          dup2\n            /* \"#utility.yul\":5579:5584   */\n          dup2\n            /* \"#utility.yul\":5576:5590   */\n          lt\n            /* \"#utility.yul\":5569:5689   */\n          iszero\n          tag_110\n          jumpi\n            /* \"#utility.yul\":5640:5679   */\n          tag_111\n            /* \"#utility.yul\":5677:5678   */\n          0x00\n            /* \"#utility.yul\":5670:5675   */\n          dup3\n            /* \"#utility.yul\":5640:5679   */\n          tag_35\n          jump\t// in\n        tag_111:\n            /* \"#utility.yul\":5613:5614   */\n          0x01\n            /* \"#utility.yul\":5606:5611   */\n          dup2\n            /* \"#utility.yul\":5602:5615   */\n          add\n            /* \"#utility.yul\":5593:5615   */\n          swap1\n          pop\n            /* \"#utility.yul\":5569:5689   */\n          jump(tag_108)\n        tag_110:\n            /* \"#utility.yul\":5509:5695   */\n          pop\n          pop\n          jump\t// out\n            /* \"#utility.yul\":5701:6244   */\n        tag_37:\n            /* \"#utility.yul\":5802:5804   */\n          0x1f\n            /* \"#utility.yul\":5797:5800   */\n          dup3\n            /* \"#utility.yul\":5794:5805   */\n          gt\n            /* \"#utility.yul\":5791:6237   */\n          iszero\n          tag_113\n          jumpi\n            /* \"#utility.yul\":5836:5874   */\n          tag_114\n            /* \"#utility.yul\":5868:5873   */\n          dup2\n            /* \"#utility.yul\":5836:5874   */\n          tag_25\n          jump\t// in\n        tag_114:\n            /* \"#utility.yul\":5920:5949   */\n          tag_115\n            /* \"#utility.yul\":5938:5948   */\n          dup5\n            /* \"#utility.yul\":5920:5949   */\n          tag_26\n          jump\t// in\n        tag_115:\n            /* \"#utility.yul\":5910:5918   */\n          dup2\n            /* \"#utility.yul\":5906:5950   */\n          add\n            /* \"#utility.yul\":6103:6105   */\n          0x20\n            /* \"#utility.yul\":6091:6101   */\n          dup6\n            /* \"#utility.yul\":6088:6106   */\n          lt\n            /* \"#utility.yul\":6085:6134   */\n          iszero\n          tag_116\n          jumpi\n            /* \"#utility.yul\":6124:6132   */\n          dup2\n            /* \"#utility.yul\":6109:6132   */\n          swap1\n          pop\n            /* \"#utility.yul\":6085:6134   */\n        tag_116:\n            /* \"#utility.yul\":6147:6227   */\n          tag_117\n            /* \"#utility.yul\":6203:6225   */\n          tag_118\n            /* \"#utility.yul\":6221:6224   */\n          dup6\n            /* \"#utility.yul\":6203:6225   */\n          tag_26\n          jump\t// in\n        tag_118:\n            /* \"#utility.yul\":6193:6201   */\n          dup4\n            /* \"#utility.yul\":6189:6226   */\n          add\n            /* \"#utility.yul\":6176:6187   */\n          dup3\n            /* \"#utility.yul\":6147:6227   */\n          tag_36\n          jump\t// in\n        tag_117:\n            /* \"#utility.yul\":5806:6237   */\n          pop\n          pop\n            /* \"#utility.yul\":5791:6237   */\n        tag_113:\n            /* \"#utility.yul\":5701:6244   */\n          pop\n          pop\n          pop\n          jump\t// out\n            /* \"#utility.yul\":6250:6367   */\n        tag_38:\n            /* \"#utility.yul\":6304:6312   */\n          0x00\n            /* \"#utility.yul\":6354:6359   */\n          dup3\n            /* \"#utility.yul\":6348:6352   */\n          dup3\n            /* \"#utility.yul\":6344:6360   */\n          shr\n            /* \"#utility.yul\":6323:6360   */\n          swap1\n          pop\n            /* \"#utility.yul\":6250:6367   */\n          swap3\n          swap2\n          pop\n          pop\n          jump\t// out\n            /* \"#utility.yul\":6373:6542   */\n        tag_39:\n            /* \"#utility.yul\":6417:6423   */\n          0x00\n            /* \"#utility.yul\":6450:6501   */\n          tag_121\n            /* \"#utility.yul\":6498:6499   */\n          0x00\n            /* \"#utility.yul\":6494:6500   */\n          not\n            /* \"#utility.yul\":6486:6491   */\n          dup5\n            /* \"#utility.yul\":6483:6484   */\n          0x08\n            /* \"#utility.yul\":6479:6492   */\n          mul\n            /* \"#utility.yul\":6450:6501   */\n          tag_38\n          jump\t// in\n        tag_121:\n            /* \"#utility.yul\":6446:6502   */\n          not\n            /* \"#utility.yul\":6531:6535   */\n          dup1\n            /* \"#utility.yul\":6525:6529   */\n          dup4\n            /* \"#utility.yul\":6521:6536   */\n          and\n            /* \"#utility.yul\":6511:6536   */\n          swap2\n          pop\n            /* \"#utility.yul\":6424:6542   */\n          pop\n            /* \"#utility.yul\":6373:6542   */\n          swap3\n          swap2\n          pop\n          pop\n          jump\t// out\n            /* \"#utility.yul\":6547:6842   */\n        tag_40:\n            /* \"#utility.yul\":6623:6627   */\n          0x00\n            /* \"#utility.yul\":6769:6798   */\n          tag_123\n            /* \"#utility.yul\":6794:6797   */\n          dup4\n            /* \"#utility.yul\":6788:6792   */\n          dup4\n            /* \"#utility.yul\":6769:6798   */\n          tag_39\n          jump\t// in\n        tag_123:\n            /* \"#utility.yul\":6761:6798   */\n          swap2\n          pop\n            /* \"#utility.yul\":6831:6834   */\n          dup3\n            /* \"#utility.yul\":6828:6829   */\n          0x02\n            /* \"#utility.yul\":6824:6835   */\n          mul\n            /* \"#utility.yul\":6818:6822   */\n          dup3\n            /* \"#utility.yul\":6815:6836   */\n          or\n            /* \"#utility.yul\":6807:6836   */\n          swap1\n          pop\n            /* \"#utility.yul\":6547:6842   */\n          swap3\n          swap2\n          pop\n          pop\n          jump\t// out\n            /* \"#utility.yul\":6847:8242   */\n        tag_7:\n            /* \"#utility.yul\":6964:7001   */\n          tag_125\n            /* \"#utility.yul\":6997:7000   */\n          dup3\n            /* \"#utility.yul\":6964:7001   */\n          tag_22\n          jump\t// in\n        tag_125:\n            /* \"#utility.yul\":7066:7084   */\n          0xffffffffffffffff\n            /* \"#utility.yul\":7058:7064   */\n          dup2\n            /* \"#utility.yul\":7055:7085   */\n          gt\n            /* \"#utility.yul\":7052:7108   */\n          iszero\n          tag_126\n          jumpi\n            /* \"#utility.yul\":7088:7106   */\n          tag_127\n          tag_15\n          jump\t// in\n        tag_127:\n            /* \"#utility.yul\":7052:7108   */\n        tag_126:\n            /* \"#utility.yul\":7132:7170   */\n          tag_128\n            /* \"#utility.yul\":7164:7168   */\n          dup3\n            /* \"#utility.yul\":7158:7169   */\n          sload\n            /* \"#utility.yul\":7132:7170   */\n          tag_24\n          jump\t// in\n        tag_128:\n            /* \"#utility.yul\":7217:7284   */\n          tag_129\n            /* \"#utility.yul\":7277:7283   */\n          dup3\n            /* \"#utility.yul\":7269:7275   */\n          dup3\n            /* \"#utility.yul\":7263:7267   */\n          dup6\n            /* \"#utility.yul\":7217:7284   */\n          tag_37\n          jump\t// in\n        tag_129:\n            /* \"#utility.yul\":7311:7312   */\n          0x00\n            /* \"#utility.yul\":7335:7339   */\n          0x20\n            /* \"#utility.yul\":7322:7339   */\n          swap1\n          pop\n            /* \"#utility.yul\":7367:7369   */\n          0x1f\n            /* \"#utility.yul\":7359:7365   */\n          dup4\n            /* \"#utility.yul\":7356:7370   */\n          gt\n            /* \"#utility.yul\":7384:7385   */\n          0x01\n            /* \"#utility.yul\":7379:7997   */\n          dup2\n          eq\n          tag_131\n          jumpi\n            /* \"#utility.yul\":8041:8042   */\n          0x00\n            /* \"#utility.yul\":8058:8064   */\n          dup5\n            /* \"#utility.yul\":8055:8132   */\n          iszero\n          tag_132\n          jumpi\n            /* \"#utility.yul\":8107:8116   */\n          dup3\n            /* \"#utility.yul\":8102:8105   */\n          dup8\n            /* \"#utility.yul\":8098:8117   */\n          add\n            /* \"#utility.yul\":8092:8118   */\n          mload\n            /* \"#utility.yul\":8083:8118   */\n          swap1\n          pop\n            /* \"#utility.yul\":8055:8132   */\n        tag_132:\n            /* \"#utility.yul\":8158:8225   */\n          tag_133\n            /* \"#utility.yul\":8218:8224   */\n          dup6\n            /* \"#utility.yul\":8211:8216   */\n          dup3\n            /* \"#utility.yul\":8158:8225   */\n          tag_40\n          jump\t// in\n        tag_133:\n            /* \"#utility.yul\":8152:8156   */\n          dup7\n            /* \"#utility.yul\":8145:8226   */\n          sstore\n            /* \"#utility.yul\":8014:8236   */\n          pop\n            /* \"#utility.yul\":7349:8236   */\n          jump(tag_130)\n            /* \"#utility.yul\":7379:7997   */\n        tag_131:\n            /* \"#utility.yul\":7431:7435   */\n          0x1f\n            /* \"#utility.yul\":7427:7436   */\n          not\n            /* \"#utility.yul\":7419:7425   */\n          dup5\n            /* \"#utility.yul\":7415:7437   */\n          and\n            /* \"#utility.yul\":7465:7502   */\n          tag_134\n            /* \"#utility.yul\":7497:7501   */\n          dup7\n            /* \"#utility.yul\":7465:7502   */\n          tag_25\n          jump\t// in\n        tag_134:\n            /* \"#utility.yul\":7524:7525   */\n          0x00\n            /* \"#utility.yul\":7538:7746   */\n        tag_135:\n            /* \"#utility.yul\":7552:7559   */\n          dup3\n            /* \"#utility.yul\":7549:7550   */\n          dup2\n            /* \"#utility.yul\":7546:7560   */\n          lt\n            /* \"#utility.yul\":7538:7746   */\n          iszero\n          tag_137\n          jumpi\n            /* \"#utility.yul\":7631:7640   */\n          dup5\n            /* \"#utility.yul\":7626:7629   */\n          dup10\n            /* \"#utility.yul\":7622:7641   */\n          add\n            /* \"#utility.yul\":7616:7642   */\n          mload\n            /* \"#utility.yul\":7608:7614   */\n          dup3\n            /* \"#utility.yul\":7601:7643   */\n          sstore\n            /* \"#utility.yul\":7682:7683   */\n          0x01\n            /* \"#utility.yul\":7674:7680   */\n          dup3\n            /* \"#utility.yul\":7670:7684   */\n          add\n            /* \"#utility.yul\":7660:7684   */\n          swap2\n          pop\n            /* \"#utility.yul\":7729:7731   */\n          0x20\n            /* \"#utility.yul\":7718:7727   */\n          dup6\n            /* \"#utility.yul\":7714:7732   */\n          add\n            /* \"#utility.yul\":7701:7732   */\n          swap5\n          pop\n            /* \"#utility.yul\":7575:7579   */\n          0x20\n            /* \"#utility.yul\":7572:7573   */\n          dup2\n            /* \"#utility.yul\":7568:7580   */\n          add\n            /* \"#utility.yul\":7563:7580   */\n          swap1\n          pop\n            /* \"#utility.yul\":7538:7746   */\n          jump(tag_135)\n        tag_137:\n            /* \"#utility.yul\":7774:7780   */\n          dup7\n            /* \"#utility.yul\":7765:7772   */\n          dup4\n            /* \"#utility.yul\":7762:7781   */\n          lt\n            /* \"#utility.yul\":7759:7938   */\n          iszero\n          tag_138\n          jumpi\n            /* \"#utility.yul\":7832:7841   */\n          dup5\n            /* \"#utility.yul\":7827:7830   */\n          dup10\n            /* \"#utility.yul\":7823:7842   */\n          add\n            /* \"#utility.yul\":7817:7843   */\n          mload\n            /* \"#utility.yul\":7875:7923   */\n          tag_139\n            /* \"#utility.yul\":7917:7921   */\n          0x1f\n            /* \"#utility.yul\":7909:7915   */\n          dup10\n            /* \"#utility.yul\":7905:7922   */\n          and\n            /* \"#utility.yul\":7894:7903   */\n          dup3\n            /* \"#utility.yul\":7875:7923   */\n          tag_39\n          jump\t// in\n        tag_139:\n            /* \"#utility.yul\":7867:7873   */\n          dup4\n            /* \"#utility.yul\":7860:7924   */\n          sstore\n            /* \"#utility.yul\":7782:7938   */\n          pop\n            /* \"#utility.yul\":7759:7938   */\n        tag_138:\n            /* \"#utility.yul\":7984:7985   */\n          0x01\n            /* \"#utility.yul\":7980:7981   */\n          0x02\n            /* \"#utility.yul\":7972:7978   */\n          dup9\n            /* \"#utility.yul\":7968:7982   */\n          mul\n            /* \"#utility.yul\":7964:7986   */\n          add\n            /* \"#utility.yul\":7958:7962   */\n          dup9\n            /* \"#utility.yul\":7951:7987   */\n          sstore\n            /* \"#utility.yul\":7386:7997   */\n          pop\n          pop\n          pop\n            /* \"#utility.yul\":7349:8236   */\n        tag_130:\n          pop\n            /* \"#utility.yul\":6939:8242   */\n          pop\n          pop\n          pop\n            /* \"#utility.yul\":6847:8242   */\n          pop\n          pop\n          jump\t// out\n            /* \"Coop.sol\":434:778  contract Interview {... */\n        tag_8:\n          dataSize(sub_0)\n          dup1\n          dataOffset(sub_0)\n          0x00\n          codecopy\n          0x00\n          return\n        stop\n\n        sub_0: assembly {\n                /* \"Coop.sol\":434:778  contract Interview {... */\n              mstore(0x40, 0x80)\n              0x00\n              dup1\n              revert\n\n            auxdata: 0xa26469706673582212200f606005379f7f5e45c74fccd0e8d20a5f63c1628cf6997df9534f661e802fad64736f6c63430008110033\n        }\n    }\n\n    auxdata: 0xa2646970667358221220128dfd474b71e2ef1e9cbc690c4bc5b033aa74b06ee1bfa9101e7032bbec2b1e64736f6c63430008110033\n}\n","bytecode":{"linkReferences":{},"object":"608060405234801561001057600080fd5b50610a7e806100206000396000f3fe60806040523480156200001157600080fd5b50600436106200003a5760003560e01c8063203770f7146200003f578063976eb7bd146200005f575b600080fd5b6200005d60048036038101906200005791906200033f565b62000095565b005b6200007d6004803603810190620000779190620003f5565b62000153565b6040516200008c919062000438565b60405180910390f35b600081604051620000a690620001bb565b620000b29190620004de565b604051809103906000f080158015620000cf573d6000803e3d6000fd5b509050806000803373ffffffffffffffffffffffffffffffffffffffff1673ffffffffffffffffffffffffffffffffffffffff16815260200190815260200160002060006101000a81548173ffffffffffffffffffffffffffffffffffffffff021916908373ffffffffffffffffffffffffffffffffffffffff1602179055505050565b60008060008373ffffffffffffffffffffffffffffffffffffffff1673ffffffffffffffffffffffffffffffffffffffff16815260200190815260200160002060009054906101000a900473ffffffffffffffffffffffffffffffffffffffff169050919050565b610546806200050383390190565b6000604051905090565b600080fd5b600080fd5b600080fd5b600080fd5b6000601f19601f8301169050919050565b7f4e487b7100000000000000000000000000000000000000000000000000000000600052604160045260246000fd5b6200023282620001e7565b810181811067ffffffffffffffff82111715620002545762000253620001f8565b5b80604052505050565b600062000269620001c9565b905062000277828262000227565b919050565b600067ffffffffffffffff8211156200029a5762000299620001f8565b5b620002a582620001e7565b9050602081019050919050565b82818337600083830152505050565b6000620002d8620002d2846200027c565b6200025d565b905082815260208101848484011115620002f757620002f6620001e2565b5b62000304848285620002b2565b509392505050565b600082601f830112620003245762000323620001dd565b5b813562000336848260208601620002c1565b91505092915050565b600060208284031215620003585762000357620001d3565b5b600082013567ffffffffffffffff811115620003795762000378620001d8565b5b62000387848285016200030c565b91505092915050565b600073ffffffffffffffffffffffffffffffffffffffff82169050919050565b6000620003bd8262000390565b9050919050565b620003cf81620003b0565b8114620003db57600080fd5b50565b600081359050620003ef81620003c4565b92915050565b6000602082840312156200040e576200040d620001d3565b5b60006200041e84828501620003de565b91505092915050565b6200043281620003b0565b82525050565b60006020820190506200044f600083018462000427565b92915050565b600081519050919050565b600082825260208201905092915050565b60005b838110156200049157808201518184015260208101905062000474565b60008484015250505050565b6000620004aa8262000455565b620004b6818562000460565b9350620004c881856020860162000471565b620004d381620001e7565b840191505092915050565b60006020820190508181036000830152620004fa81846200049d565b90509291505056fe608060405234801561001057600080fd5b50604051610546380380610546833981810160405281019061003291906101bd565b80600290816100419190610427565b50506104f9565b6000604051905090565b600080fd5b600080fd5b600080fd5b600080fd5b6000601f19601f8301169050919050565b7f4e487b7100000000000000000000000000000000000000000000000000000000600052604160045260246000fd5b6100af82610066565b810181811067ffffffffffffffff821117156100ce576100cd610077565b5b80604052505050565b60006100e1610048565b90506100ed82826100a6565b919050565b600067ffffffffffffffff82111561010d5761010c610077565b5b61011682610066565b9050602081019050919050565b60005b83811015610141578082015181840152602081019050610126565b60008484015250505050565b600061016061015b846100f2565b6100d7565b90508281526020810184848401111561017c5761017b610061565b5b610187848285610123565b509392505050565b600082601f8301126101a4576101a361005c565b5b81516101b484826020860161014d565b91505092915050565b6000602082840312156101d3576101d2610052565b5b600082015167ffffffffffffffff8111156101f1576101f0610057565b5b6101fd8482850161018f565b91505092915050565b600081519050919050565b7f4e487b7100000000000000000000000000000000000000000000000000000000600052602260045260246000fd5b6000600282049050600182168061025857607f821691505b60208210810361026b5761026a610211565b5b50919050565b60008190508160005260206000209050919050565b60006020601f8301049050919050565b600082821b905092915050565b6000600883026102d37fffffffffffffffffffffffffffffffffffffffffffffffffffffffffffffffff82610296565b6102dd8683610296565b95508019841693508086168417925050509392505050565b6000819050919050565b6000819050919050565b600061032461031f61031a846102f5565b6102ff565b6102f5565b9050919050565b6000819050919050565b61033e83610309565b61035261034a8261032b565b8484546102a3565b825550505050565b600090565b61036761035a565b610372818484610335565b505050565b5b818110156103965761038b60008261035f565b600181019050610378565b5050565b601f8211156103db576103ac81610271565b6103b584610286565b810160208510156103c4578190505b6103d86103d085610286565b830182610377565b50505b505050565b600082821c905092915050565b60006103fe600019846008026103e0565b1980831691505092915050565b600061041783836103ed565b9150826002028217905092915050565b61043082610206565b67ffffffffffffffff81111561044957610448610077565b5b6104538254610240565b61045e82828561039a565b600060209050601f831160018114610491576000841561047f578287015190505b610489858261040b565b8655506104f1565b601f19841661049f86610271565b60005b828110156104c7578489015182556001820191506020850194506020810190506104a2565b868310156104e457848901516104e0601f8916826103ed565b8355505b6001600288020188555050505b505050505050565b603f806105076000396000f3fe6080604052600080fdfea26469706673582212200f606005379f7f5e45c74fccd0e8d20a5f63c1628cf6997df9534f661e802fad64736f6c63430008110033a2646970667358221220128dfd474b71e2ef1e9cbc690c4bc5b033aa74b06ee1bfa9101e7032bbec2b1e64736f6c63430008110033","opcodes":"PUSH1 0x80 PUSH1 0x40 MSTORE CALLVALUE DUP1 ISZERO PUSH2 0x10 JUMPI PUSH1 0x0 DUP1 REVERT JUMPDEST POP PUSH2 0xA7E DUP1 PUSH2 0x20 PUSH1 0x0 CODECOPY PUSH1 0x0 RETURN INVALID PUSH1 0x80 PUSH1 0x40 MSTORE CALLVALUE DUP1 ISZERO PUSH3 0x11 JUMPI PUSH1 0x0 DUP1 REVERT JUMPDEST POP PUSH1 0x4 CALLDATASIZE LT PUSH3 0x3A JUMPI PUSH1 0x0 CALLDATALOAD PUSH1 0xE0 SHR DUP1 PUSH4 0x203770F7 EQ PUSH3 0x3F JUMPI DUP1 PUSH4 0x976EB7BD EQ PUSH3 0x5F JUMPI JUMPDEST PUSH1 0x0 DUP1 REVERT JUMPDEST PUSH3 0x5D PUSH1 0x4 DUP1 CALLDATASIZE SUB DUP2 ADD SWAP1 PUSH3 0x57 SWAP2 SWAP1 PUSH3 0x33F JUMP JUMPDEST PUSH3 0x95 JUMP JUMPDEST STOP JUMPDEST PUSH3 0x7D PUSH1 0x4 DUP1 CALLDATASIZE SUB DUP2 ADD SWAP1 PUSH3 0x77 SWAP2 SWAP1 PUSH3 0x3F5 JUMP JUMPDEST PUSH3 0x153 JUMP JUMPDEST PUSH1 0x40 MLOAD PUSH3 0x8C SWAP2 SWAP1 PUSH3 0x438 JUMP JUMPDEST PUSH1 0x40 MLOAD DUP1 SWAP2 SUB SWAP1 RETURN JUMPDEST PUSH1 0x0 DUP2 PUSH1 0x40 MLOAD PUSH3 0xA6 SWAP1 PUSH3 0x1BB JUMP JUMPDEST PUSH3 0xB2 SWAP2 SWAP1 PUSH3 0x4DE JUMP JUMPDEST PUSH1 0x40 MLOAD DUP1 SWAP2 SUB SWAP1 PUSH1 0x0 CREATE DUP1 ISZERO DUP1 ISZERO PUSH3 0xCF JUMPI RETURNDATASIZE PUSH1 0x0 DUP1 RETURNDATACOPY RETURNDATASIZE PUSH1 0x0 REVERT JUMPDEST POP SWAP1 POP DUP1 PUSH1 0x0 DUP1 CALLER PUSH20 0xFFFFFFFFFFFFFFFFFFFFFFFFFFFFFFFFFFFFFFFF AND PUSH20 0xFFFFFFFFFFFFFFFFFFFFFFFFFFFFFFFFFFFFFFFF AND DUP2 MSTORE PUSH1 0x20 ADD SWAP1 DUP2 MSTORE PUSH1 0x20 ADD PUSH1 0x0 KECCAK256 PUSH1 0x0 PUSH2 0x100 EXP DUP2 SLOAD DUP2 PUSH20 0xFFFFFFFFFFFFFFFFFFFFFFFFFFFFFFFFFFFFFFFF MUL NOT AND SWAP1 DUP4 PUSH20 0xFFFFFFFFFFFFFFFFFFFFFFFFFFFFFFFFFFFFFFFF AND MUL OR SWAP1 SSTORE POP POP POP JUMP JUMPDEST PUSH1 0x0 DUP1 PUSH1 0x0 DUP4 PUSH20 0xFFFFFFFFFFFFFFFFFFFFFFFFFFFFFFFFFFFFFFFF AND PUSH20 0xFFFFFFFFFFFFFFFFFFFFFFFFFFFFFFFFFFFFFFFF AND DUP2 MSTORE PUSH1 0x20 ADD SWAP1 DUP2 MSTORE PUSH1 0x20 ADD PUSH1 0x0 KECCAK256 PUSH1 0x0 SWAP1 SLOAD SWAP1 PUSH2 0x100 EXP SWAP1 DIV PUSH20 0xFFFFFFFFFFFFFFFFFFFFFFFFFFFFFFFFFFFFFFFF AND SWAP1 POP SWAP2 SWAP1 POP JUMP JUMPDEST PUSH2 0x546 DUP1 PUSH3 0x503 DUP4 CODECOPY ADD SWAP1 JUMP JUMPDEST PUSH1 0x0 PUSH1 0x40 MLOAD SWAP1 POP SWAP1 JUMP JUMPDEST PUSH1 0x0 DUP1 REVERT JUMPDEST PUSH1 0x0 DUP1 REVERT JUMPDEST PUSH1 0x0 DUP1 REVERT JUMPDEST PUSH1 0x0 DUP1 REVERT JUMPDEST PUSH1 0x0 PUSH1 0x1F NOT PUSH1 0x1F DUP4 ADD AND SWAP1 POP SWAP2 SWAP1 POP JUMP JUMPDEST PUSH32 0x4E487B7100000000000000000000000000000000000000000000000000000000 PUSH1 0x0 MSTORE PUSH1 0x41 PUSH1 0x4 MSTORE PUSH1 0x24 PUSH1 0x0 REVERT JUMPDEST PUSH3 0x232 DUP3 PUSH3 0x1E7 JUMP JUMPDEST DUP2 ADD DUP2 DUP2 LT PUSH8 0xFFFFFFFFFFFFFFFF DUP3 GT OR ISZERO PUSH3 0x254 JUMPI PUSH3 0x253 PUSH3 0x1F8 JUMP JUMPDEST JUMPDEST DUP1 PUSH1 0x40 MSTORE POP POP POP JUMP JUMPDEST PUSH1 0x0 PUSH3 0x269 PUSH3 0x1C9 JUMP JUMPDEST SWAP1 POP PUSH3 0x277 DUP3 DUP3 PUSH3 0x227 JUMP JUMPDEST SWAP2 SWAP1 POP JUMP JUMPDEST PUSH1 0x0 PUSH8 0xFFFFFFFFFFFFFFFF DUP3 GT ISZERO PUSH3 0x29A JUMPI PUSH3 0x299 PUSH3 0x1F8 JUMP JUMPDEST JUMPDEST PUSH3 0x2A5 DUP3 PUSH3 0x1E7 JUMP JUMPDEST SWAP1 POP PUSH1 0x20 DUP2 ADD SWAP1 POP SWAP2 SWAP1 POP JUMP JUMPDEST DUP3 DUP2 DUP4 CALLDATACOPY PUSH1 0x0 DUP4 DUP4 ADD MSTORE POP POP POP JUMP JUMPDEST PUSH1 0x0 PUSH3 0x2D8 PUSH3 0x2D2 DUP5 PUSH3 0x27C JUMP JUMPDEST PUSH3 0x25D JUMP JUMPDEST SWAP1 POP DUP3 DUP2 MSTORE PUSH1 0x20 DUP2 ADD DUP5 DUP5 DUP5 ADD GT ISZERO PUSH3 0x2F7 JUMPI PUSH3 0x2F6 PUSH3 0x1E2 JUMP JUMPDEST JUMPDEST PUSH3 0x304 DUP5 DUP3 DUP6 PUSH3 0x2B2 JUMP JUMPDEST POP SWAP4 SWAP3 POP POP POP JUMP JUMPDEST PUSH1 0x0 DUP3 PUSH1 0x1F DUP4 ADD SLT PUSH3 0x324 JUMPI PUSH3 0x323 PUSH3 0x1DD JUMP JUMPDEST JUMPDEST DUP2 CALLDATALOAD PUSH3 0x336 DUP5 DUP3 PUSH1 0x20 DUP7 ADD PUSH3 0x2C1 JUMP JUMPDEST SWAP2 POP POP SWAP3 SWAP2 POP POP JUMP JUMPDEST PUSH1 0x0 PUSH1 0x20 DUP3 DUP5 SUB SLT ISZERO PUSH3 0x358 JUMPI PUSH3 0x357 PUSH3 0x1D3 JUMP JUMPDEST JUMPDEST PUSH1 0x0 DUP3 ADD CALLDATALOAD PUSH8 0xFFFFFFFFFFFFFFFF DUP2 GT ISZERO PUSH3 0x379 JUMPI PUSH3 0x378 PUSH3 0x1D8 JUMP JUMPDEST JUMPDEST PUSH3 0x387 DUP5 DUP3 DUP6 ADD PUSH3 0x30C JUMP JUMPDEST SWAP2 POP POP SWAP3 SWAP2 POP POP JUMP JUMPDEST PUSH1 0x0 PUSH20 0xFFFFFFFFFFFFFFFFFFFFFFFFFFFFFFFFFFFFFFFF DUP3 AND SWAP1 POP SWAP2 SWAP1 POP JUMP JUMPDEST PUSH1 0x0 PUSH3 0x3BD DUP3 PUSH3 0x390 JUMP JUMPDEST SWAP1 POP SWAP2 SWAP1 POP JUMP JUMPDEST PUSH3 0x3CF DUP2 PUSH3 0x3B0 JUMP JUMPDEST DUP2 EQ PUSH3 0x3DB JUMPI PUSH1 0x0 DUP1 REVERT JUMPDEST POP JUMP JUMPDEST PUSH1 0x0 DUP2 CALLDATALOAD SWAP1 POP PUSH3 0x3EF DUP2 PUSH3 0x3C4 JUMP JUMPDEST SWAP3 SWAP2 POP POP JUMP JUMPDEST PUSH1 0x0 PUSH1 0x20 DUP3 DUP5 SUB SLT ISZERO PUSH3 0x40E JUMPI PUSH3 0x40D PUSH3 0x1D3 JUMP JUMPDEST JUMPDEST PUSH1 0x0 PUSH3 0x41E DUP5 DUP3 DUP6 ADD PUSH3 0x3DE JUMP JUMPDEST SWAP2 POP POP SWAP3 SWAP2 POP POP JUMP JUMPDEST PUSH3 0x432 DUP2 PUSH3 0x3B0 JUMP JUMPDEST DUP3 MSTORE POP POP JUMP JUMPDEST PUSH1 0x0 PUSH1 0x20 DUP3 ADD SWAP1 POP PUSH3 0x44F PUSH1 0x0 DUP4 ADD DUP5 PUSH3 0x427 JUMP JUMPDEST SWAP3 SWAP2 POP POP JUMP JUMPDEST PUSH1 0x0 DUP2 MLOAD SWAP1 POP SWAP2 SWAP1 POP JUMP JUMPDEST PUSH1 0x0 DUP3 DUP3 MSTORE PUSH1 0x20 DUP3 ADD SWAP1 POP SWAP3 SWAP2 POP POP JUMP JUMPDEST PUSH1 0x0 JUMPDEST DUP4 DUP2 LT ISZERO PUSH3 0x491 JUMPI DUP1 DUP3 ADD MLOAD DUP2 DUP5 ADD MSTORE PUSH1 0x20 DUP2 ADD SWAP1 POP PUSH3 0x474 JUMP JUMPDEST PUSH1 0x0 DUP5 DUP5 ADD MSTORE POP POP POP POP JUMP JUMPDEST PUSH1 0x0 PUSH3 0x4AA DUP3 PUSH3 0x455 JUMP JUMPDEST PUSH3 0x4B6 DUP2 DUP6 PUSH3 0x460 JUMP JUMPDEST SWAP4 POP PUSH3 0x4C8 DUP2 DUP6 PUSH1 0x20 DUP7 ADD PUSH3 0x471 JUMP JUMPDEST PUSH3 0x4D3 DUP2 PUSH3 0x1E7 JUMP JUMPDEST DUP5 ADD SWAP2 POP POP SWAP3 SWAP2 POP POP JUMP JUMPDEST PUSH1 0x0 PUSH1 0x20 DUP3 ADD SWAP1 POP DUP2 DUP2 SUB PUSH1 0x0 DUP4 ADD MSTORE PUSH3 0x4FA DUP2 DUP5 PUSH3 0x49D JUMP JUMPDEST SWAP1 POP SWAP3 SWAP2 POP POP JUMP INVALID PUSH1 0x80 PUSH1 0x40 MSTORE CALLVALUE DUP1 ISZERO PUSH2 0x10 JUMPI PUSH1 0x0 DUP1 REVERT JUMPDEST POP PUSH1 0x40 MLOAD PUSH2 0x546 CODESIZE SUB DUP1 PUSH2 0x546 DUP4 CODECOPY DUP2 DUP2 ADD PUSH1 0x40 MSTORE DUP2 ADD SWAP1 PUSH2 0x32 SWAP2 SWAP1 PUSH2 0x1BD JUMP JUMPDEST DUP1 PUSH1 0x2 SWAP1 DUP2 PUSH2 0x41 SWAP2 SWAP1 PUSH2 0x427 JUMP JUMPDEST POP POP PUSH2 0x4F9 JUMP JUMPDEST PUSH1 0x0 PUSH1 0x40 MLOAD SWAP1 POP SWAP1 JUMP JUMPDEST PUSH1 0x0 DUP1 REVERT JUMPDEST PUSH1 0x0 DUP1 REVERT JUMPDEST PUSH1 0x0 DUP1 REVERT JUMPDEST PUSH1 0x0 DUP1 REVERT JUMPDEST PUSH1 0x0 PUSH1 0x1F NOT PUSH1 0x1F DUP4 ADD AND SWAP1 POP SWAP2 SWAP1 POP JUMP JUMPDEST PUSH32 0x4E487B7100000000000000000000000000000000000000000000000000000000 PUSH1 0x0 MSTORE PUSH1 0x41 PUSH1 0x4 MSTORE PUSH1 0x24 PUSH1 0x0 REVERT JUMPDEST PUSH2 0xAF DUP3 PUSH2 0x66 JUMP JUMPDEST DUP2 ADD DUP2 DUP2 LT PUSH8 0xFFFFFFFFFFFFFFFF DUP3 GT OR ISZERO PUSH2 0xCE JUMPI PUSH2 0xCD PUSH2 0x77 JUMP JUMPDEST JUMPDEST DUP1 PUSH1 0x40 MSTORE POP POP POP JUMP JUMPDEST PUSH1 0x0 PUSH2 0xE1 PUSH2 0x48 JUMP JUMPDEST SWAP1 POP PUSH2 0xED DUP3 DUP3 PUSH2 0xA6 JUMP JUMPDEST SWAP2 SWAP1 POP JUMP JUMPDEST PUSH1 0x0 PUSH8 0xFFFFFFFFFFFFFFFF DUP3 GT ISZERO PUSH2 0x10D JUMPI PUSH2 0x10C PUSH2 0x77 JUMP JUMPDEST JUMPDEST PUSH2 0x116 DUP3 PUSH2 0x66 JUMP JUMPDEST SWAP1 POP PUSH1 0x20 DUP2 ADD SWAP1 POP SWAP2 SWAP1 POP JUMP JUMPDEST PUSH1 0x0 JUMPDEST DUP4 DUP2 LT ISZERO PUSH2 0x141 JUMPI DUP1 DUP3 ADD MLOAD DUP2 DUP5 ADD MSTORE PUSH1 0x20 DUP2 ADD SWAP1 POP PUSH2 0x126 JUMP JUMPDEST PUSH1 0x0 DUP5 DUP5 ADD MSTORE POP POP POP POP JUMP JUMPDEST PUSH1 0x0 PUSH2 0x160 PUSH2 0x15B DUP5 PUSH2 0xF2 JUMP JUMPDEST PUSH2 0xD7 JUMP JUMPDEST SWAP1 POP DUP3 DUP2 MSTORE PUSH1 0x20 DUP2 ADD DUP5 DUP5 DUP5 ADD GT ISZERO PUSH2 0x17C JUMPI PUSH2 0x17B PUSH2 0x61 JUMP JUMPDEST JUMPDEST PUSH2 0x187 DUP5 DUP3 DUP6 PUSH2 0x123 JUMP JUMPDEST POP SWAP4 SWAP3 POP POP POP JUMP JUMPDEST PUSH1 0x0 DUP3 PUSH1 0x1F DUP4 ADD SLT PUSH2 0x1A4 JUMPI PUSH2 0x1A3 PUSH2 0x5C JUMP JUMPDEST JUMPDEST DUP2 MLOAD PUSH2 0x1B4 DUP5 DUP3 PUSH1 0x20 DUP7 ADD PUSH2 0x14D JUMP JUMPDEST SWAP2 POP POP SWAP3 SWAP2 POP POP JUMP JUMPDEST PUSH1 0x0 PUSH1 0x20 DUP3 DUP5 SUB SLT ISZERO PUSH2 0x1D3 JUMPI PUSH2 0x1D2 PUSH2 0x52 JUMP JUMPDEST JUMPDEST PUSH1 0x0 DUP3 ADD MLOAD PUSH8 0xFFFFFFFFFFFFFFFF DUP2 GT ISZERO PUSH2 0x1F1 JUMPI PUSH2 0x1F0 PUSH2 0x57 JUMP JUMPDEST JUMPDEST PUSH2 0x1FD DUP5 DUP3 DUP6 ADD PUSH2 0x18F JUMP JUMPDEST SWAP2 POP POP SWAP3 SWAP2 POP POP JUMP JUMPDEST PUSH1 0x0 DUP2 MLOAD SWAP1 POP SWAP2 SWAP1 POP JUMP JUMPDEST PUSH32 0x4E487B7100000000000000000000000000000000000000000000000000000000 PUSH1 0x0 MSTORE PUSH1 0x22 PUSH1 0x4 MSTORE PUSH1 0x24 PUSH1 0x0 REVERT JUMPDEST PUSH1 0x0 PUSH1 0x2 DUP3 DIV SWAP1 POP PUSH1 0x1 DUP3 AND DUP1 PUSH2 0x258 JUMPI PUSH1 0x7F DUP3 AND SWAP2 POP JUMPDEST PUSH1 0x20 DUP3 LT DUP2 SUB PUSH2 0x26B JUMPI PUSH2 0x26A PUSH2 0x211 JUMP JUMPDEST JUMPDEST POP SWAP2 SWAP1 POP JUMP JUMPDEST PUSH1 0x0 DUP2 SWAP1 POP DUP2 PUSH1 0x0 MSTORE PUSH1 0x20 PUSH1 0x0 KECCAK256 SWAP1 POP SWAP2 SWAP1 POP JUMP JUMPDEST PUSH1 0x0 PUSH1 0x20 PUSH1 0x1F DUP4 ADD DIV SWAP1 POP SWAP2 SWAP1 POP JUMP JUMPDEST PUSH1 0x0 DUP3 DUP3 SHL SWAP1 POP SWAP3 SWAP2 POP POP JUMP JUMPDEST PUSH1 0x0 PUSH1 0x8 DUP4 MUL PUSH2 0x2D3 PUSH32 0xFFFFFFFFFFFFFFFFFFFFFFFFFFFFFFFFFFFFFFFFFFFFFFFFFFFFFFFFFFFFFFFF DUP3 PUSH2 0x296 JUMP JUMPDEST PUSH2 0x2DD DUP7 DUP4 PUSH2 0x296 JUMP JUMPDEST SWAP6 POP DUP1 NOT DUP5 AND SWAP4 POP DUP1 DUP7 AND DUP5 OR SWAP3 POP POP POP SWAP4 SWAP3 POP POP POP JUMP JUMPDEST PUSH1 0x0 DUP2 SWAP1 POP SWAP2 SWAP1 POP JUMP JUMPDEST PUSH1 0x0 DUP2 SWAP1 POP SWAP2 SWAP1 POP JUMP JUMPDEST PUSH1 0x0 PUSH2 0x324 PUSH2 0x31F PUSH2 0x31A DUP5 PUSH2 0x2F5 JUMP JUMPDEST PUSH2 0x2FF JUMP JUMPDEST PUSH2 0x2F5 JUMP JUMPDEST SWAP1 POP SWAP2 SWAP1 POP JUMP JUMPDEST PUSH1 0x0 DUP2 SWAP1 POP SWAP2 SWAP1 POP JUMP JUMPDEST PUSH2 0x33E DUP4 PUSH2 0x309 JUMP JUMPDEST PUSH2 0x352 PUSH2 0x34A DUP3 PUSH2 0x32B JUMP JUMPDEST DUP5 DUP5 SLOAD PUSH2 0x2A3 JUMP JUMPDEST DUP3 SSTORE POP POP POP POP JUMP JUMPDEST PUSH1 0x0 SWAP1 JUMP JUMPDEST PUSH2 0x367 PUSH2 0x35A JUMP JUMPDEST PUSH2 0x372 DUP2 DUP5 DUP5 PUSH2 0x335 JUMP JUMPDEST POP POP POP JUMP JUMPDEST JUMPDEST DUP2 DUP2 LT ISZERO PUSH2 0x396 JUMPI PUSH2 0x38B PUSH1 0x0 DUP3 PUSH2 0x35F JUMP JUMPDEST PUSH1 0x1 DUP2 ADD SWAP1 POP PUSH2 0x378 JUMP JUMPDEST POP POP JUMP JUMPDEST PUSH1 0x1F DUP3 GT ISZERO PUSH2 0x3DB JUMPI PUSH2 0x3AC DUP2 PUSH2 0x271 JUMP JUMPDEST PUSH2 0x3B5 DUP5 PUSH2 0x286 JUMP JUMPDEST DUP2 ADD PUSH1 0x20 DUP6 LT ISZERO PUSH2 0x3C4 JUMPI DUP2 SWAP1 POP JUMPDEST PUSH2 0x3D8 PUSH2 0x3D0 DUP6 PUSH2 0x286 JUMP JUMPDEST DUP4 ADD DUP3 PUSH2 0x377 JUMP JUMPDEST POP POP JUMPDEST POP POP POP JUMP JUMPDEST PUSH1 0x0 DUP3 DUP3 SHR SWAP1 POP SWAP3 SWAP2 POP POP JUMP JUMPDEST PUSH1 0x0 PUSH2 0x3FE PUSH1 0x0 NOT DUP5 PUSH1 0x8 MUL PUSH2 0x3E0 JUMP JUMPDEST NOT DUP1 DUP4 AND SWAP2 POP POP SWAP3 SWAP2 POP POP JUMP JUMPDEST PUSH1 0x0 PUSH2 0x417 DUP4 DUP4 PUSH2 0x3ED JUMP JUMPDEST SWAP2 POP DUP3 PUSH1 0x2 MUL DUP3 OR SWAP1 POP SWAP3 SWAP2 POP POP JUMP JUMPDEST PUSH2 0x430 DUP3 PUSH2 0x206 JUMP JUMPDEST PUSH8 0xFFFFFFFFFFFFFFFF DUP2 GT ISZERO PUSH2 0x449 JUMPI PUSH2 0x448 PUSH2 0x77 JUMP JUMPDEST JUMPDEST PUSH2 0x453 DUP3 SLOAD PUSH2 0x240 JUMP JUMPDEST PUSH2 0x45E DUP3 DUP3 DUP6 PUSH2 0x39A JUMP JUMPDEST PUSH1 0x0 PUSH1 0x20 SWAP1 POP PUSH1 0x1F DUP4 GT PUSH1 0x1 DUP2 EQ PUSH2 0x491 JUMPI PUSH1 0x0 DUP5 ISZERO PUSH2 0x47F JUMPI DUP3 DUP8 ADD MLOAD SWAP1 POP JUMPDEST PUSH2 0x489 DUP6 DUP3 PUSH2 0x40B JUMP JUMPDEST DUP7 SSTORE POP PUSH2 0x4F1 JUMP JUMPDEST PUSH1 0x1F NOT DUP5 AND PUSH2 0x49F DUP7 PUSH2 0x271 JUMP JUMPDEST PUSH1 0x0 JUMPDEST DUP3 DUP2 LT ISZERO PUSH2 0x4C7 JUMPI DUP5 DUP10 ADD MLOAD DUP3 SSTORE PUSH1 0x1 DUP3 ADD SWAP2 POP PUSH1 0x20 DUP6 ADD SWAP5 POP PUSH1 0x20 DUP2 ADD SWAP1 POP PUSH2 0x4A2 JUMP JUMPDEST DUP7 DUP4 LT ISZERO PUSH2 0x4E4 JUMPI DUP5 DUP10 ADD MLOAD PUSH2 0x4E0 PUSH1 0x1F DUP10 AND DUP3 PUSH2 0x3ED JUMP JUMPDEST DUP4 SSTORE POP JUMPDEST PUSH1 0x1 PUSH1 0x2 DUP9 MUL ADD DUP9 SSTORE POP POP POP JUMPDEST POP POP POP POP POP POP JUMP JUMPDEST PUSH1 0x3F DUP1 PUSH2 0x507 PUSH1 0x0 CODECOPY PUSH1 0x0 RETURN INVALID PUSH1 0x80 PUSH1 0x40 MSTORE PUSH1 0x0 DUP1 REVERT INVALID LOG2 PUSH5 0x6970667358 0x22 SLT KECCAK256 0xF PUSH1 0x60 SDIV CALLDATACOPY SWAP16 PUSH32 0x5E45C74FCCD0E8D20A5F63C1628CF6997DF9534F661E802FAD64736F6C634300 ADDMOD GT STOP CALLER LOG2 PUSH5 0x6970667358 0x22 SLT KECCAK256 SLT DUP14 REVERT SELFBALANCE 0x4B PUSH18 0xE2EF1E9CBC690C4BC5B033AA74B06EE1BFA9 LT 0x1E PUSH17 0x32BBEC2B1E64736F6C6343000811003300 "},"gasEstimates":{"creation":{"codeDepositCost":"537200","executionCost":"568","totalCost":"537768"},"external":{"createInterview(string)":"infinite","getInterview(address)":"infinite"}},"methodIdentifiers":{"createInterview(string)":"203770f7","getInterview(address)":"976eb7bd"}},"storageLayout":{"storage":[{"astId":5,"contract":"Coop.sol:InterviewFactory","label":"interviews","offset":0,"slot":"0","type":"t_mapping(t_address,t_address)"}],"types":{"t_address":{"encoding":"inplace","label":"address","numberOfBytes":"20"},"t_mapping(t_address,t_address)":{"encoding":"mapping","key":"t_address","label":"mapping(address => address)","numberOfBytes":"32","value":"t_address"}}},"userdoc":{"kind":"user","methods":{},"version":1}}