{"abi":[{"inputs":[{"internalType":"address","name":"map","type":"address"},{"internalType":"address","name":"_projectFactoryAddress","type":"address"}],"stateMutability":"nonpayable","type":"constructor"},{"anonymous":false,"inputs":[{"indexed":false,"internalType":"address","name":"sender","type":"address"},{"indexed":false,"internalType":"address","name":"","type":"address"}],"name":"ProposalCreated","type":"event"},{"inputs":[{"internalType":"string","name":"description","type":"string"}],"name":"createProposal","outputs":[],"stateMutability":"nonpayable","type":"function"},{"inputs":[],"name":"getProposals","outputs":[{"internalType":"address[]","name":"","type":"address[]"}],"stateMutability":"view","type":"function"},{"inputs":[],"name":"owner","outputs":[{"internalType":"address","name":"","type":"address"}],"stateMutability":"view","type":"function"},{"inputs":[{"internalType":"uint256","name":"","type":"uint256"}],"name":"proposals","outputs":[{"internalType":"address","name":"","type":"address"}],"stateMutability":"view","type":"function"}],"devdoc":{"kind":"dev","methods":{},"version":1},"evm":{"assembly":"    /* \"ProposalFactory.sol\":167:1088  contract ProposalFactory is NoDelegateCall {... */\n  mstore(0x40, 0xe0)\n    /* \"ProposalFactory.sol\":414:562  constructor(address map, address _projectFactoryAddress) {... */\n  callvalue\n  dup1\n  iszero\n  tag_1\n  jumpi\n  0x00\n  dup1\n  revert\ntag_1:\n  pop\n  mload(0x40)\n  sub(codesize, bytecodeSize)\n  dup1\n  bytecodeSize\n  dup4\n  codecopy\n  dup2\n  dup2\n  add\n  0x40\n  mstore\n  dup2\n  add\n  swap1\n  tag_2\n  swap2\n  swap1\n  tag_3\n  jump\t// in\ntag_2:\n    /* \"lib/NoDelegateCall.sol\":604:608   */\n  address\n    /* \"lib/NoDelegateCall.sol\":585:609   */\n  0xffffffffffffffffffffffffffffffffffffffff\n  and\n  0x80\n  dup2\n  0xffffffffffffffffffffffffffffffffffffffff\n  and\n  dup2\n  mstore\n  pop\n  pop\n    /* \"ProposalFactory.sol\":494:497  map */\n  dup2\n    /* \"ProposalFactory.sol\":482:497  memberMap = map */\n  0xffffffffffffffffffffffffffffffffffffffff\n  and\n  0xa0\n  dup2\n  0xffffffffffffffffffffffffffffffffffffffff\n  and\n  dup2\n  mstore\n  pop\n  pop\n    /* \"ProposalFactory.sol\":532:554  _projectFactoryAddress */\n  dup1\n    /* \"ProposalFactory.sol\":508:554  projectFactoryAddress = _projectFactoryAddress */\n  0xffffffffffffffffffffffffffffffffffffffff\n  and\n  0xc0\n  dup2\n  0xffffffffffffffffffffffffffffffffffffffff\n  and\n  dup2\n  mstore\n  pop\n  pop\n    /* \"ProposalFactory.sol\":414:562  constructor(address map, address _projectFactoryAddress) {... */\n  pop\n  pop\n    /* \"ProposalFactory.sol\":167:1088  contract ProposalFactory is NoDelegateCall {... */\n  jump(tag_8)\n    /* \"#utility.yul\":88:205   */\ntag_10:\n    /* \"#utility.yul\":197:198   */\n  0x00\n    /* \"#utility.yul\":194:195   */\n  dup1\n    /* \"#utility.yul\":187:199   */\n  revert\n    /* \"#utility.yul\":334:460   */\ntag_12:\n    /* \"#utility.yul\":371:378   */\n  0x00\n    /* \"#utility.yul\":411:453   */\n  0xffffffffffffffffffffffffffffffffffffffff\n    /* \"#utility.yul\":404:409   */\n  dup3\n    /* \"#utility.yul\":400:454   */\n  and\n    /* \"#utility.yul\":389:454   */\n  swap1\n  pop\n    /* \"#utility.yul\":334:460   */\n  swap2\n  swap1\n  pop\n  jump\t// out\n    /* \"#utility.yul\":466:562   */\ntag_13:\n    /* \"#utility.yul\":503:510   */\n  0x00\n    /* \"#utility.yul\":532:556   */\n  tag_22\n    /* \"#utility.yul\":550:555   */\n  dup3\n    /* \"#utility.yul\":532:556   */\n  tag_12\n  jump\t// in\ntag_22:\n    /* \"#utility.yul\":521:556   */\n  swap1\n  pop\n    /* \"#utility.yul\":466:562   */\n  swap2\n  swap1\n  pop\n  jump\t// out\n    /* \"#utility.yul\":568:690   */\ntag_14:\n    /* \"#utility.yul\":641:665   */\n  tag_24\n    /* \"#utility.yul\":659:664   */\n  dup2\n    /* \"#utility.yul\":641:665   */\n  tag_13\n  jump\t// in\ntag_24:\n    /* \"#utility.yul\":634:639   */\n  dup2\n    /* \"#utility.yul\":631:666   */\n  eq\n    /* \"#utility.yul\":621:684   */\n  tag_25\n  jumpi\n    /* \"#utility.yul\":680:681   */\n  0x00\n    /* \"#utility.yul\":677:678   */\n  dup1\n    /* \"#utility.yul\":670:682   */\n  revert\n    /* \"#utility.yul\":621:684   */\ntag_25:\n    /* \"#utility.yul\":568:690   */\n  pop\n  jump\t// out\n    /* \"#utility.yul\":696:839   */\ntag_15:\n    /* \"#utility.yul\":753:758   */\n  0x00\n    /* \"#utility.yul\":784:790   */\n  dup2\n    /* \"#utility.yul\":778:791   */\n  mload\n    /* \"#utility.yul\":769:791   */\n  swap1\n  pop\n    /* \"#utility.yul\":800:833   */\n  tag_27\n    /* \"#utility.yul\":827:832   */\n  dup2\n    /* \"#utility.yul\":800:833   */\n  tag_14\n  jump\t// in\ntag_27:\n    /* \"#utility.yul\":696:839   */\n  swap3\n  swap2\n  pop\n  pop\n  jump\t// out\n    /* \"#utility.yul\":845:1352   */\ntag_3:\n    /* \"#utility.yul\":924:930   */\n  0x00\n    /* \"#utility.yul\":932:938   */\n  dup1\n    /* \"#utility.yul\":981:983   */\n  0x40\n    /* \"#utility.yul\":969:978   */\n  dup4\n    /* \"#utility.yul\":960:967   */\n  dup6\n    /* \"#utility.yul\":956:979   */\n  sub\n    /* \"#utility.yul\":952:984   */\n  slt\n    /* \"#utility.yul\":949:1068   */\n  iszero\n  tag_29\n  jumpi\n    /* \"#utility.yul\":987:1066   */\n  tag_30\n  tag_10\n  jump\t// in\ntag_30:\n    /* \"#utility.yul\":949:1068   */\ntag_29:\n    /* \"#utility.yul\":1107:1108   */\n  0x00\n    /* \"#utility.yul\":1132:1196   */\n  tag_31\n    /* \"#utility.yul\":1188:1195   */\n  dup6\n    /* \"#utility.yul\":1179:1185   */\n  dup3\n    /* \"#utility.yul\":1168:1177   */\n  dup7\n    /* \"#utility.yul\":1164:1186   */\n  add\n    /* \"#utility.yul\":1132:1196   */\n  tag_15\n  jump\t// in\ntag_31:\n    /* \"#utility.yul\":1122:1196   */\n  swap3\n  pop\n    /* \"#utility.yul\":1078:1206   */\n  pop\n    /* \"#utility.yul\":1245:1247   */\n  0x20\n    /* \"#utility.yul\":1271:1335   */\n  tag_32\n    /* \"#utility.yul\":1327:1334   */\n  dup6\n    /* \"#utility.yul\":1318:1324   */\n  dup3\n    /* \"#utility.yul\":1307:1316   */\n  dup7\n    /* \"#utility.yul\":1303:1325   */\n  add\n    /* \"#utility.yul\":1271:1335   */\n  tag_15\n  jump\t// in\ntag_32:\n    /* \"#utility.yul\":1261:1335   */\n  swap2\n  pop\n    /* \"#utility.yul\":1216:1345   */\n  pop\n    /* \"#utility.yul\":845:1352   */\n  swap3\n  pop\n  swap3\n  swap1\n  pop\n  jump\t// out\n    /* \"ProposalFactory.sol\":167:1088  contract ProposalFactory is NoDelegateCall {... */\ntag_8:\n  mload(0x80)\n  mload(0xa0)\n  mload(0xc0)\n  codecopy(0x00, dataOffset(sub_0), dataSize(sub_0))\n  0x00\n  assignImmutable(\"0x93ad96917475117018167204867bb7b7d508b38811a18e6cdc5a086e50cc1943\")\n  0x00\n  assignImmutable(\"0x84476ac0238cee2f1d5a5a363cc59b1b83f2a0a2585677e4ab7abcefd014aabf\")\n  0x00\n  assignImmutable(\"0x8c235ed3b86a1ac1e855267754bbcf1665c193b5025bb08af6cdf2550ce7be08\")\n  return(0x00, dataSize(sub_0))\nstop\n\nsub_0: assembly {\n        /* \"ProposalFactory.sol\":167:1088  contract ProposalFactory is NoDelegateCall {... */\n      mstore(0x40, 0x80)\n      callvalue\n      dup1\n      iszero\n      tag_1\n      jumpi\n      0x00\n      dup1\n      revert\n    tag_1:\n      pop\n      jumpi(tag_2, lt(calldatasize, 0x04))\n      shr(0xe0, calldataload(0x00))\n      dup1\n      0x013cf08b\n      eq\n      tag_3\n      jumpi\n      dup1\n      0x49c2a1a6\n      eq\n      tag_4\n      jumpi\n      dup1\n      0x62564c48\n      eq\n      tag_5\n      jumpi\n      dup1\n      0x8da5cb5b\n      eq\n      tag_6\n      jumpi\n    tag_2:\n      0x00\n      dup1\n      revert\n        /* \"ProposalFactory.sol\":299:325  address[] public proposals */\n    tag_3:\n      tag_7\n      0x04\n      dup1\n      calldatasize\n      sub\n      dup2\n      add\n      swap1\n      tag_8\n      swap2\n      swap1\n      tag_9\n      jump\t// in\n    tag_8:\n      tag_10\n      jump\t// in\n    tag_7:\n      mload(0x40)\n      tag_11\n      swap2\n      swap1\n      tag_12\n      jump\t// in\n    tag_11:\n      mload(0x40)\n      dup1\n      swap2\n      sub\n      swap1\n      return\n        /* \"ProposalFactory.sol\":570:979  function createProposal(string calldata description) public noDelegateCall {... */\n    tag_4:\n      tag_13\n      0x04\n      dup1\n      calldatasize\n      sub\n      dup2\n      add\n      swap1\n      tag_14\n      swap2\n      swap1\n      tag_15\n      jump\t// in\n    tag_14:\n      tag_16\n      jump\t// in\n    tag_13:\n      stop\n        /* \"ProposalFactory.sol\":987:1085  function getProposals() public view returns (address[] memory) {... */\n    tag_5:\n      tag_17\n      tag_18\n      jump\t// in\n    tag_17:\n      mload(0x40)\n      tag_19\n      swap2\n      swap1\n      tag_20\n      jump\t// in\n    tag_19:\n      mload(0x40)\n      dup1\n      swap2\n      sub\n      swap1\n      return\n        /* \"ProposalFactory.sol\":270:290  address public owner */\n    tag_6:\n      tag_21\n      tag_22\n      jump\t// in\n    tag_21:\n      mload(0x40)\n      tag_23\n      swap2\n      swap1\n      tag_12\n      jump\t// in\n    tag_23:\n      mload(0x40)\n      dup1\n      swap2\n      sub\n      swap1\n      return\n        /* \"ProposalFactory.sol\":299:325  address[] public proposals */\n    tag_10:\n      0x01\n      dup2\n      dup2\n      sload\n      dup2\n      lt\n      tag_24\n      jumpi\n      0x00\n      dup1\n      revert\n    tag_24:\n      swap1\n      0x00\n      mstore\n      keccak256(0x00, 0x20)\n      add\n      0x00\n      swap2\n      pop\n      sload\n      swap1\n      0x0100\n      exp\n      swap1\n      div\n      0xffffffffffffffffffffffffffffffffffffffff\n      and\n      dup2\n      jump\t// out\n        /* \"ProposalFactory.sol\":570:979  function createProposal(string calldata description) public noDelegateCall {... */\n    tag_16:\n        /* \"lib/NoDelegateCall.sol\":1060:1082   */\n      tag_27\n        /* \"lib/NoDelegateCall.sol\":1060:1080   */\n      tag_28\n        /* \"lib/NoDelegateCall.sol\":1060:1082   */\n      jump\t// in\n    tag_27:\n        /* \"ProposalFactory.sol\":656:679  address proposalAddress */\n      0x00\n        /* \"ProposalFactory.sol\":735:745  msg.sender */\n      caller\n        /* \"ProposalFactory.sol\":764:775  description */\n      dup4\n      dup4\n        /* \"ProposalFactory.sol\":794:803  memberMap */\n      immutable(\"0x84476ac0238cee2f1d5a5a363cc59b1b83f2a0a2585677e4ab7abcefd014aabf\")\n        /* \"ProposalFactory.sol\":822:843  projectFactoryAddress */\n      immutable(\"0x93ad96917475117018167204867bb7b7d508b38811a18e6cdc5a086e50cc1943\")\n        /* \"ProposalFactory.sol\":704:858  new Proposal(... */\n      mload(0x40)\n      tag_30\n      swap1\n      tag_31\n      jump\t// in\n    tag_30:\n      tag_32\n      swap6\n      swap5\n      swap4\n      swap3\n      swap2\n      swap1\n      tag_33\n      jump\t// in\n    tag_32:\n      mload(0x40)\n      dup1\n      swap2\n      sub\n      swap1\n      0x00\n      create\n      dup1\n      iszero\n      dup1\n      iszero\n      tag_34\n      jumpi\n      returndatasize\n      0x00\n      dup1\n      returndatacopy\n      revert(0x00, returndatasize)\n    tag_34:\n      pop\n        /* \"ProposalFactory.sol\":656:869  address proposalAddress = address(... */\n      swap1\n      pop\n        /* \"ProposalFactory.sol\":880:889  proposals */\n      0x01\n        /* \"ProposalFactory.sol\":895:910  proposalAddress */\n      dup2\n        /* \"ProposalFactory.sol\":880:911  proposals.push(proposalAddress) */\n      swap1\n      dup1\n      0x01\n      dup2\n      sload\n      add\n      dup1\n      dup3\n      sstore\n      dup1\n      swap2\n      pop\n      pop\n      0x01\n      swap1\n      sub\n      swap1\n      0x00\n      mstore\n      keccak256(0x00, 0x20)\n      add\n      0x00\n      swap1\n      swap2\n      swap1\n      swap2\n      swap1\n      swap2\n      0x0100\n      exp\n      dup2\n      sload\n      dup2\n      0xffffffffffffffffffffffffffffffffffffffff\n      mul\n      not\n      and\n      swap1\n      dup4\n      0xffffffffffffffffffffffffffffffffffffffff\n      and\n      mul\n      or\n      swap1\n      sstore\n      pop\n        /* \"ProposalFactory.sol\":927:971  ProposalCreated(msg.sender, proposalAddress) */\n      0x452ab1b43e295baa201eb0d01fcbcb6bd9f5f2035554bcf6f3e1fedbbc53d830\n        /* \"ProposalFactory.sol\":943:953  msg.sender */\n      caller\n        /* \"ProposalFactory.sol\":955:970  proposalAddress */\n      dup3\n        /* \"ProposalFactory.sol\":927:971  ProposalCreated(msg.sender, proposalAddress) */\n      mload(0x40)\n      tag_36\n      swap3\n      swap2\n      swap1\n      tag_37\n      jump\t// in\n    tag_36:\n      mload(0x40)\n      dup1\n      swap2\n      sub\n      swap1\n      log1\n        /* \"ProposalFactory.sol\":645:979  {... */\n      pop\n        /* \"ProposalFactory.sol\":570:979  function createProposal(string calldata description) public noDelegateCall {... */\n      pop\n      pop\n      jump\t// out\n        /* \"ProposalFactory.sol\":987:1085  function getProposals() public view returns (address[] memory) {... */\n    tag_18:\n        /* \"ProposalFactory.sol\":1032:1048  address[] memory */\n      0x60\n        /* \"ProposalFactory.sol\":1068:1077  proposals */\n      0x01\n        /* \"ProposalFactory.sol\":1061:1077  return proposals */\n      dup1\n      sload\n      dup1\n      0x20\n      mul\n      0x20\n      add\n      mload(0x40)\n      swap1\n      dup2\n      add\n      0x40\n      mstore\n      dup1\n      swap3\n      swap2\n      swap1\n      dup2\n      dup2\n      mstore\n      0x20\n      add\n      dup3\n      dup1\n      sload\n      dup1\n      iszero\n      tag_39\n      jumpi\n      0x20\n      mul\n      dup3\n      add\n      swap2\n      swap1\n      0x00\n      mstore\n      keccak256(0x00, 0x20)\n      swap1\n    tag_40:\n      dup2\n      0x00\n      swap1\n      sload\n      swap1\n      0x0100\n      exp\n      swap1\n      div\n      0xffffffffffffffffffffffffffffffffffffffff\n      and\n      0xffffffffffffffffffffffffffffffffffffffff\n      and\n      dup2\n      mstore\n      0x20\n      add\n      swap1\n      0x01\n      add\n      swap1\n      dup1\n      dup4\n      gt\n      tag_40\n      jumpi\n    tag_39:\n      pop\n      pop\n      pop\n      pop\n      pop\n      swap1\n      pop\n        /* \"ProposalFactory.sol\":987:1085  function getProposals() public view returns (address[] memory) {... */\n      swap1\n      jump\t// out\n        /* \"ProposalFactory.sol\":270:290  address public owner */\n    tag_22:\n      0x00\n      dup1\n      sload\n      swap1\n      0x0100\n      exp\n      swap1\n      div\n      0xffffffffffffffffffffffffffffffffffffffff\n      and\n      dup2\n      jump\t// out\n        /* \"lib/NoDelegateCall.sol\":853:951   */\n    tag_28:\n        /* \"lib/NoDelegateCall.sol\":934:942   */\n      immutable(\"0x8c235ed3b86a1ac1e855267754bbcf1665c193b5025bb08af6cdf2550ce7be08\")\n        /* \"lib/NoDelegateCall.sol\":917:942   */\n      0xffffffffffffffffffffffffffffffffffffffff\n      and\n        /* \"lib/NoDelegateCall.sol\":925:929   */\n      address\n        /* \"lib/NoDelegateCall.sol\":917:942   */\n      0xffffffffffffffffffffffffffffffffffffffff\n      and\n      eq\n        /* \"lib/NoDelegateCall.sol\":909:943   */\n      tag_42\n      jumpi\n      0x00\n      dup1\n      revert\n    tag_42:\n        /* \"lib/NoDelegateCall.sol\":853:951   */\n      jump\t// out\n    tag_31:\n      dataSize(sub_0)\n      dup1\n      dataOffset(sub_0)\n      dup4\n      codecopy\n      add\n      swap1\n      jump\t// out\n        /* \"#utility.yul\":88:205   */\n    tag_44:\n        /* \"#utility.yul\":197:198   */\n      0x00\n        /* \"#utility.yul\":194:195   */\n      dup1\n        /* \"#utility.yul\":187:199   */\n      revert\n        /* \"#utility.yul\":211:328   */\n    tag_45:\n        /* \"#utility.yul\":320:321   */\n      0x00\n        /* \"#utility.yul\":317:318   */\n      dup1\n        /* \"#utility.yul\":310:322   */\n      revert\n        /* \"#utility.yul\":334:411   */\n    tag_46:\n        /* \"#utility.yul\":371:378   */\n      0x00\n        /* \"#utility.yul\":400:405   */\n      dup2\n        /* \"#utility.yul\":389:405   */\n      swap1\n      pop\n        /* \"#utility.yul\":334:411   */\n      swap2\n      swap1\n      pop\n      jump\t// out\n        /* \"#utility.yul\":417:539   */\n    tag_47:\n        /* \"#utility.yul\":490:514   */\n      tag_73\n        /* \"#utility.yul\":508:513   */\n      dup2\n        /* \"#utility.yul\":490:514   */\n      tag_46\n      jump\t// in\n    tag_73:\n        /* \"#utility.yul\":483:488   */\n      dup2\n        /* \"#utility.yul\":480:515   */\n      eq\n        /* \"#utility.yul\":470:533   */\n      tag_74\n      jumpi\n        /* \"#utility.yul\":529:530   */\n      0x00\n        /* \"#utility.yul\":526:527   */\n      dup1\n        /* \"#utility.yul\":519:531   */\n      revert\n        /* \"#utility.yul\":470:533   */\n    tag_74:\n        /* \"#utility.yul\":417:539   */\n      pop\n      jump\t// out\n        /* \"#utility.yul\":545:684   */\n    tag_48:\n        /* \"#utility.yul\":591:596   */\n      0x00\n        /* \"#utility.yul\":629:635   */\n      dup2\n        /* \"#utility.yul\":616:636   */\n      calldataload\n        /* \"#utility.yul\":607:636   */\n      swap1\n      pop\n        /* \"#utility.yul\":645:678   */\n      tag_76\n        /* \"#utility.yul\":672:677   */\n      dup2\n        /* \"#utility.yul\":645:678   */\n      tag_47\n      jump\t// in\n    tag_76:\n        /* \"#utility.yul\":545:684   */\n      swap3\n      swap2\n      pop\n      pop\n      jump\t// out\n        /* \"#utility.yul\":690:1019   */\n    tag_9:\n        /* \"#utility.yul\":749:755   */\n      0x00\n        /* \"#utility.yul\":798:800   */\n      0x20\n        /* \"#utility.yul\":786:795   */\n      dup3\n        /* \"#utility.yul\":777:784   */\n      dup5\n        /* \"#utility.yul\":773:796   */\n      sub\n        /* \"#utility.yul\":769:801   */\n      slt\n        /* \"#utility.yul\":766:885   */\n      iszero\n      tag_78\n      jumpi\n        /* \"#utility.yul\":804:883   */\n      tag_79\n      tag_44\n      jump\t// in\n    tag_79:\n        /* \"#utility.yul\":766:885   */\n    tag_78:\n        /* \"#utility.yul\":924:925   */\n      0x00\n        /* \"#utility.yul\":949:1002   */\n      tag_80\n        /* \"#utility.yul\":994:1001   */\n      dup5\n        /* \"#utility.yul\":985:991   */\n      dup3\n        /* \"#utility.yul\":974:983   */\n      dup6\n        /* \"#utility.yul\":970:992   */\n      add\n        /* \"#utility.yul\":949:1002   */\n      tag_48\n      jump\t// in\n    tag_80:\n        /* \"#utility.yul\":939:1002   */\n      swap2\n      pop\n        /* \"#utility.yul\":895:1012   */\n      pop\n        /* \"#utility.yul\":690:1019   */\n      swap3\n      swap2\n      pop\n      pop\n      jump\t// out\n        /* \"#utility.yul\":1025:1151   */\n    tag_49:\n        /* \"#utility.yul\":1062:1069   */\n      0x00\n        /* \"#utility.yul\":1102:1144   */\n      0xffffffffffffffffffffffffffffffffffffffff\n        /* \"#utility.yul\":1095:1100   */\n      dup3\n        /* \"#utility.yul\":1091:1145   */\n      and\n        /* \"#utility.yul\":1080:1145   */\n      swap1\n      pop\n        /* \"#utility.yul\":1025:1151   */\n      swap2\n      swap1\n      pop\n      jump\t// out\n        /* \"#utility.yul\":1157:1253   */\n    tag_50:\n        /* \"#utility.yul\":1194:1201   */\n      0x00\n        /* \"#utility.yul\":1223:1247   */\n      tag_83\n        /* \"#utility.yul\":1241:1246   */\n      dup3\n        /* \"#utility.yul\":1223:1247   */\n      tag_49\n      jump\t// in\n    tag_83:\n        /* \"#utility.yul\":1212:1247   */\n      swap1\n      pop\n        /* \"#utility.yul\":1157:1253   */\n      swap2\n      swap1\n      pop\n      jump\t// out\n        /* \"#utility.yul\":1259:1377   */\n    tag_51:\n        /* \"#utility.yul\":1346:1370   */\n      tag_85\n        /* \"#utility.yul\":1364:1369   */\n      dup2\n        /* \"#utility.yul\":1346:1370   */\n      tag_50\n      jump\t// in\n    tag_85:\n        /* \"#utility.yul\":1341:1344   */\n      dup3\n        /* \"#utility.yul\":1334:1371   */\n      mstore\n        /* \"#utility.yul\":1259:1377   */\n      pop\n      pop\n      jump\t// out\n        /* \"#utility.yul\":1383:1605   */\n    tag_12:\n        /* \"#utility.yul\":1476:1480   */\n      0x00\n        /* \"#utility.yul\":1514:1516   */\n      0x20\n        /* \"#utility.yul\":1503:1512   */\n      dup3\n        /* \"#utility.yul\":1499:1517   */\n      add\n        /* \"#utility.yul\":1491:1517   */\n      swap1\n      pop\n        /* \"#utility.yul\":1527:1598   */\n      tag_87\n        /* \"#utility.yul\":1595:1596   */\n      0x00\n        /* \"#utility.yul\":1584:1593   */\n      dup4\n        /* \"#utility.yul\":1580:1597   */\n      add\n        /* \"#utility.yul\":1571:1577   */\n      dup5\n        /* \"#utility.yul\":1527:1598   */\n      tag_51\n      jump\t// in\n    tag_87:\n        /* \"#utility.yul\":1383:1605   */\n      swap3\n      swap2\n      pop\n      pop\n      jump\t// out\n        /* \"#utility.yul\":1611:1728   */\n    tag_52:\n        /* \"#utility.yul\":1720:1721   */\n      0x00\n        /* \"#utility.yul\":1717:1718   */\n      dup1\n        /* \"#utility.yul\":1710:1722   */\n      revert\n        /* \"#utility.yul\":1734:1851   */\n    tag_53:\n        /* \"#utility.yul\":1843:1844   */\n      0x00\n        /* \"#utility.yul\":1840:1841   */\n      dup1\n        /* \"#utility.yul\":1833:1845   */\n      revert\n        /* \"#utility.yul\":1857:1974   */\n    tag_54:\n        /* \"#utility.yul\":1966:1967   */\n      0x00\n        /* \"#utility.yul\":1963:1964   */\n      dup1\n        /* \"#utility.yul\":1956:1968   */\n      revert\n        /* \"#utility.yul\":1994:2547   */\n    tag_55:\n        /* \"#utility.yul\":2052:2060   */\n      0x00\n        /* \"#utility.yul\":2062:2068   */\n      dup1\n        /* \"#utility.yul\":2112:2115   */\n      dup4\n        /* \"#utility.yul\":2105:2109   */\n      0x1f\n        /* \"#utility.yul\":2097:2103   */\n      dup5\n        /* \"#utility.yul\":2093:2110   */\n      add\n        /* \"#utility.yul\":2089:2116   */\n      slt\n        /* \"#utility.yul\":2079:2201   */\n      tag_92\n      jumpi\n        /* \"#utility.yul\":2120:2199   */\n      tag_93\n      tag_52\n      jump\t// in\n    tag_93:\n        /* \"#utility.yul\":2079:2201   */\n    tag_92:\n        /* \"#utility.yul\":2233:2239   */\n      dup3\n        /* \"#utility.yul\":2220:2240   */\n      calldataload\n        /* \"#utility.yul\":2210:2240   */\n      swap1\n      pop\n        /* \"#utility.yul\":2263:2281   */\n      0xffffffffffffffff\n        /* \"#utility.yul\":2255:2261   */\n      dup2\n        /* \"#utility.yul\":2252:2282   */\n      gt\n        /* \"#utility.yul\":2249:2366   */\n      iszero\n      tag_94\n      jumpi\n        /* \"#utility.yul\":2285:2364   */\n      tag_95\n      tag_53\n      jump\t// in\n    tag_95:\n        /* \"#utility.yul\":2249:2366   */\n    tag_94:\n        /* \"#utility.yul\":2399:2403   */\n      0x20\n        /* \"#utility.yul\":2391:2397   */\n      dup4\n        /* \"#utility.yul\":2387:2404   */\n      add\n        /* \"#utility.yul\":2375:2404   */\n      swap2\n      pop\n        /* \"#utility.yul\":2453:2456   */\n      dup4\n        /* \"#utility.yul\":2445:2449   */\n      0x01\n        /* \"#utility.yul\":2437:2443   */\n      dup3\n        /* \"#utility.yul\":2433:2450   */\n      mul\n        /* \"#utility.yul\":2423:2431   */\n      dup4\n        /* \"#utility.yul\":2419:2451   */\n      add\n        /* \"#utility.yul\":2416:2457   */\n      gt\n        /* \"#utility.yul\":2413:2541   */\n      iszero\n      tag_96\n      jumpi\n        /* \"#utility.yul\":2460:2539   */\n      tag_97\n      tag_54\n      jump\t// in\n    tag_97:\n        /* \"#utility.yul\":2413:2541   */\n    tag_96:\n        /* \"#utility.yul\":1994:2547   */\n      swap3\n      pop\n      swap3\n      swap1\n      pop\n      jump\t// out\n        /* \"#utility.yul\":2553:3082   */\n    tag_15:\n        /* \"#utility.yul\":2624:2630   */\n      0x00\n        /* \"#utility.yul\":2632:2638   */\n      dup1\n        /* \"#utility.yul\":2681:2683   */\n      0x20\n        /* \"#utility.yul\":2669:2678   */\n      dup4\n        /* \"#utility.yul\":2660:2667   */\n      dup6\n        /* \"#utility.yul\":2656:2679   */\n      sub\n        /* \"#utility.yul\":2652:2684   */\n      slt\n        /* \"#utility.yul\":2649:2768   */\n      iszero\n      tag_99\n      jumpi\n        /* \"#utility.yul\":2687:2766   */\n      tag_100\n      tag_44\n      jump\t// in\n    tag_100:\n        /* \"#utility.yul\":2649:2768   */\n    tag_99:\n        /* \"#utility.yul\":2835:2836   */\n      0x00\n        /* \"#utility.yul\":2824:2833   */\n      dup4\n        /* \"#utility.yul\":2820:2837   */\n      add\n        /* \"#utility.yul\":2807:2838   */\n      calldataload\n        /* \"#utility.yul\":2865:2883   */\n      0xffffffffffffffff\n        /* \"#utility.yul\":2857:2863   */\n      dup2\n        /* \"#utility.yul\":2854:2884   */\n      gt\n        /* \"#utility.yul\":2851:2968   */\n      iszero\n      tag_101\n      jumpi\n        /* \"#utility.yul\":2887:2966   */\n      tag_102\n      tag_45\n      jump\t// in\n    tag_102:\n        /* \"#utility.yul\":2851:2968   */\n    tag_101:\n        /* \"#utility.yul\":3000:3065   */\n      tag_103\n        /* \"#utility.yul\":3057:3064   */\n      dup6\n        /* \"#utility.yul\":3048:3054   */\n      dup3\n        /* \"#utility.yul\":3037:3046   */\n      dup7\n        /* \"#utility.yul\":3033:3055   */\n      add\n        /* \"#utility.yul\":3000:3065   */\n      tag_55\n      jump\t// in\n    tag_103:\n        /* \"#utility.yul\":2982:3065   */\n      swap3\n      pop\n      swap3\n      pop\n        /* \"#utility.yul\":2778:3075   */\n      pop\n        /* \"#utility.yul\":2553:3082   */\n      swap3\n      pop\n      swap3\n      swap1\n      pop\n      jump\t// out\n        /* \"#utility.yul\":3088:3202   */\n    tag_56:\n        /* \"#utility.yul\":3155:3161   */\n      0x00\n        /* \"#utility.yul\":3189:3194   */\n      dup2\n        /* \"#utility.yul\":3183:3195   */\n      mload\n        /* \"#utility.yul\":3173:3195   */\n      swap1\n      pop\n        /* \"#utility.yul\":3088:3202   */\n      swap2\n      swap1\n      pop\n      jump\t// out\n        /* \"#utility.yul\":3208:3392   */\n    tag_57:\n        /* \"#utility.yul\":3307:3318   */\n      0x00\n        /* \"#utility.yul\":3341:3347   */\n      dup3\n        /* \"#utility.yul\":3336:3339   */\n      dup3\n        /* \"#utility.yul\":3329:3348   */\n      mstore\n        /* \"#utility.yul\":3381:3385   */\n      0x20\n        /* \"#utility.yul\":3376:3379   */\n      dup3\n        /* \"#utility.yul\":3372:3386   */\n      add\n        /* \"#utility.yul\":3357:3386   */\n      swap1\n      pop\n        /* \"#utility.yul\":3208:3392   */\n      swap3\n      swap2\n      pop\n      pop\n      jump\t// out\n        /* \"#utility.yul\":3398:3530   */\n    tag_58:\n        /* \"#utility.yul\":3465:3469   */\n      0x00\n        /* \"#utility.yul\":3488:3491   */\n      dup2\n        /* \"#utility.yul\":3480:3491   */\n      swap1\n      pop\n        /* \"#utility.yul\":3518:3522   */\n      0x20\n        /* \"#utility.yul\":3513:3516   */\n      dup3\n        /* \"#utility.yul\":3509:3523   */\n      add\n        /* \"#utility.yul\":3501:3523   */\n      swap1\n      pop\n        /* \"#utility.yul\":3398:3530   */\n      swap2\n      swap1\n      pop\n      jump\t// out\n        /* \"#utility.yul\":3536:3644   */\n    tag_59:\n        /* \"#utility.yul\":3613:3637   */\n      tag_108\n        /* \"#utility.yul\":3631:3636   */\n      dup2\n        /* \"#utility.yul\":3613:3637   */\n      tag_50\n      jump\t// in\n    tag_108:\n        /* \"#utility.yul\":3608:3611   */\n      dup3\n        /* \"#utility.yul\":3601:3638   */\n      mstore\n        /* \"#utility.yul\":3536:3644   */\n      pop\n      pop\n      jump\t// out\n        /* \"#utility.yul\":3650:3829   */\n    tag_60:\n        /* \"#utility.yul\":3719:3729   */\n      0x00\n        /* \"#utility.yul\":3740:3786   */\n      tag_110\n        /* \"#utility.yul\":3782:3785   */\n      dup4\n        /* \"#utility.yul\":3774:3780   */\n      dup4\n        /* \"#utility.yul\":3740:3786   */\n      tag_59\n      jump\t// in\n    tag_110:\n        /* \"#utility.yul\":3818:3822   */\n      0x20\n        /* \"#utility.yul\":3813:3816   */\n      dup4\n        /* \"#utility.yul\":3809:3823   */\n      add\n        /* \"#utility.yul\":3795:3823   */\n      swap1\n      pop\n        /* \"#utility.yul\":3650:3829   */\n      swap3\n      swap2\n      pop\n      pop\n      jump\t// out\n        /* \"#utility.yul\":3835:3948   */\n    tag_61:\n        /* \"#utility.yul\":3905:3909   */\n      0x00\n        /* \"#utility.yul\":3937:3941   */\n      0x20\n        /* \"#utility.yul\":3932:3935   */\n      dup3\n        /* \"#utility.yul\":3928:3942   */\n      add\n        /* \"#utility.yul\":3920:3942   */\n      swap1\n      pop\n        /* \"#utility.yul\":3835:3948   */\n      swap2\n      swap1\n      pop\n      jump\t// out\n        /* \"#utility.yul\":3984:4716   */\n    tag_62:\n        /* \"#utility.yul\":4103:4106   */\n      0x00\n        /* \"#utility.yul\":4132:4186   */\n      tag_113\n        /* \"#utility.yul\":4180:4185   */\n      dup3\n        /* \"#utility.yul\":4132:4186   */\n      tag_56\n      jump\t// in\n    tag_113:\n        /* \"#utility.yul\":4202:4288   */\n      tag_114\n        /* \"#utility.yul\":4281:4287   */\n      dup2\n        /* \"#utility.yul\":4276:4279   */\n      dup6\n        /* \"#utility.yul\":4202:4288   */\n      tag_57\n      jump\t// in\n    tag_114:\n        /* \"#utility.yul\":4195:4288   */\n      swap4\n      pop\n        /* \"#utility.yul\":4312:4368   */\n      tag_115\n        /* \"#utility.yul\":4362:4367   */\n      dup4\n        /* \"#utility.yul\":4312:4368   */\n      tag_58\n      jump\t// in\n    tag_115:\n        /* \"#utility.yul\":4391:4398   */\n      dup1\n        /* \"#utility.yul\":4422:4423   */\n      0x00\n        /* \"#utility.yul\":4407:4691   */\n    tag_116:\n        /* \"#utility.yul\":4432:4438   */\n      dup4\n        /* \"#utility.yul\":4429:4430   */\n      dup2\n        /* \"#utility.yul\":4426:4439   */\n      lt\n        /* \"#utility.yul\":4407:4691   */\n      iszero\n      tag_118\n      jumpi\n        /* \"#utility.yul\":4508:4514   */\n      dup2\n        /* \"#utility.yul\":4502:4515   */\n      mload\n        /* \"#utility.yul\":4535:4598   */\n      tag_119\n        /* \"#utility.yul\":4594:4597   */\n      dup9\n        /* \"#utility.yul\":4579:4592   */\n      dup3\n        /* \"#utility.yul\":4535:4598   */\n      tag_60\n      jump\t// in\n    tag_119:\n        /* \"#utility.yul\":4528:4598   */\n      swap8\n      pop\n        /* \"#utility.yul\":4621:4681   */\n      tag_120\n        /* \"#utility.yul\":4674:4680   */\n      dup4\n        /* \"#utility.yul\":4621:4681   */\n      tag_61\n      jump\t// in\n    tag_120:\n        /* \"#utility.yul\":4611:4681   */\n      swap3\n      pop\n        /* \"#utility.yul\":4467:4691   */\n      pop\n        /* \"#utility.yul\":4454:4455   */\n      0x01\n        /* \"#utility.yul\":4451:4452   */\n      dup2\n        /* \"#utility.yul\":4447:4456   */\n      add\n        /* \"#utility.yul\":4442:4456   */\n      swap1\n      pop\n        /* \"#utility.yul\":4407:4691   */\n      jump(tag_116)\n    tag_118:\n        /* \"#utility.yul\":4411:4425   */\n      pop\n        /* \"#utility.yul\":4707:4710   */\n      dup6\n        /* \"#utility.yul\":4700:4710   */\n      swap4\n      pop\n        /* \"#utility.yul\":4108:4716   */\n      pop\n      pop\n      pop\n        /* \"#utility.yul\":3984:4716   */\n      swap3\n      swap2\n      pop\n      pop\n      jump\t// out\n        /* \"#utility.yul\":4722:5095   */\n    tag_20:\n        /* \"#utility.yul\":4865:4869   */\n      0x00\n        /* \"#utility.yul\":4903:4905   */\n      0x20\n        /* \"#utility.yul\":4892:4901   */\n      dup3\n        /* \"#utility.yul\":4888:4906   */\n      add\n        /* \"#utility.yul\":4880:4906   */\n      swap1\n      pop\n        /* \"#utility.yul\":4952:4961   */\n      dup2\n        /* \"#utility.yul\":4946:4950   */\n      dup2\n        /* \"#utility.yul\":4942:4962   */\n      sub\n        /* \"#utility.yul\":4938:4939   */\n      0x00\n        /* \"#utility.yul\":4927:4936   */\n      dup4\n        /* \"#utility.yul\":4923:4940   */\n      add\n        /* \"#utility.yul\":4916:4963   */\n      mstore\n        /* \"#utility.yul\":4980:5088   */\n      tag_122\n        /* \"#utility.yul\":5083:5087   */\n      dup2\n        /* \"#utility.yul\":5074:5080   */\n      dup5\n        /* \"#utility.yul\":4980:5088   */\n      tag_62\n      jump\t// in\n    tag_122:\n        /* \"#utility.yul\":4972:5088   */\n      swap1\n      pop\n        /* \"#utility.yul\":4722:5095   */\n      swap3\n      swap2\n      pop\n      pop\n      jump\t// out\n        /* \"#utility.yul\":5101:5270   */\n    tag_63:\n        /* \"#utility.yul\":5185:5196   */\n      0x00\n        /* \"#utility.yul\":5219:5225   */\n      dup3\n        /* \"#utility.yul\":5214:5217   */\n      dup3\n        /* \"#utility.yul\":5207:5226   */\n      mstore\n        /* \"#utility.yul\":5259:5263   */\n      0x20\n        /* \"#utility.yul\":5254:5257   */\n      dup3\n        /* \"#utility.yul\":5250:5264   */\n      add\n        /* \"#utility.yul\":5235:5264   */\n      swap1\n      pop\n        /* \"#utility.yul\":5101:5270   */\n      swap3\n      swap2\n      pop\n      pop\n      jump\t// out\n        /* \"#utility.yul\":5276:5422   */\n    tag_64:\n        /* \"#utility.yul\":5373:5379   */\n      dup3\n        /* \"#utility.yul\":5368:5371   */\n      dup2\n        /* \"#utility.yul\":5363:5366   */\n      dup4\n        /* \"#utility.yul\":5350:5380   */\n      calldatacopy\n        /* \"#utility.yul\":5414:5415   */\n      0x00\n        /* \"#utility.yul\":5405:5411   */\n      dup4\n        /* \"#utility.yul\":5400:5403   */\n      dup4\n        /* \"#utility.yul\":5396:5412   */\n      add\n        /* \"#utility.yul\":5389:5416   */\n      mstore\n        /* \"#utility.yul\":5276:5422   */\n      pop\n      pop\n      pop\n      jump\t// out\n        /* \"#utility.yul\":5428:5530   */\n    tag_65:\n        /* \"#utility.yul\":5469:5475   */\n      0x00\n        /* \"#utility.yul\":5520:5522   */\n      0x1f\n        /* \"#utility.yul\":5516:5523   */\n      not\n        /* \"#utility.yul\":5511:5513   */\n      0x1f\n        /* \"#utility.yul\":5504:5509   */\n      dup4\n        /* \"#utility.yul\":5500:5514   */\n      add\n        /* \"#utility.yul\":5496:5524   */\n      and\n        /* \"#utility.yul\":5486:5524   */\n      swap1\n      pop\n        /* \"#utility.yul\":5428:5530   */\n      swap2\n      swap1\n      pop\n      jump\t// out\n        /* \"#utility.yul\":5560:5877   */\n    tag_66:\n        /* \"#utility.yul\":5658:5661   */\n      0x00\n        /* \"#utility.yul\":5679:5750   */\n      tag_127\n        /* \"#utility.yul\":5743:5749   */\n      dup4\n        /* \"#utility.yul\":5738:5741   */\n      dup6\n        /* \"#utility.yul\":5679:5750   */\n      tag_63\n      jump\t// in\n    tag_127:\n        /* \"#utility.yul\":5672:5750   */\n      swap4\n      pop\n        /* \"#utility.yul\":5760:5816   */\n      tag_128\n        /* \"#utility.yul\":5809:5815   */\n      dup4\n        /* \"#utility.yul\":5804:5807   */\n      dup6\n        /* \"#utility.yul\":5797:5802   */\n      dup5\n        /* \"#utility.yul\":5760:5816   */\n      tag_64\n      jump\t// in\n    tag_128:\n        /* \"#utility.yul\":5841:5870   */\n      tag_129\n        /* \"#utility.yul\":5863:5869   */\n      dup4\n        /* \"#utility.yul\":5841:5870   */\n      tag_65\n      jump\t// in\n    tag_129:\n        /* \"#utility.yul\":5836:5839   */\n      dup5\n        /* \"#utility.yul\":5832:5871   */\n      add\n        /* \"#utility.yul\":5825:5871   */\n      swap1\n      pop\n        /* \"#utility.yul\":5560:5877   */\n      swap4\n      swap3\n      pop\n      pop\n      pop\n      jump\t// out\n        /* \"#utility.yul\":5883:6547   */\n    tag_33:\n        /* \"#utility.yul\":6090:6094   */\n      0x00\n        /* \"#utility.yul\":6128:6131   */\n      0x80\n        /* \"#utility.yul\":6117:6126   */\n      dup3\n        /* \"#utility.yul\":6113:6132   */\n      add\n        /* \"#utility.yul\":6105:6132   */\n      swap1\n      pop\n        /* \"#utility.yul\":6142:6213   */\n      tag_131\n        /* \"#utility.yul\":6210:6211   */\n      0x00\n        /* \"#utility.yul\":6199:6208   */\n      dup4\n        /* \"#utility.yul\":6195:6212   */\n      add\n        /* \"#utility.yul\":6186:6192   */\n      dup9\n        /* \"#utility.yul\":6142:6213   */\n      tag_51\n      jump\t// in\n    tag_131:\n        /* \"#utility.yul\":6260:6269   */\n      dup2\n        /* \"#utility.yul\":6254:6258   */\n      dup2\n        /* \"#utility.yul\":6250:6270   */\n      sub\n        /* \"#utility.yul\":6245:6247   */\n      0x20\n        /* \"#utility.yul\":6234:6243   */\n      dup4\n        /* \"#utility.yul\":6230:6248   */\n      add\n        /* \"#utility.yul\":6223:6271   */\n      mstore\n        /* \"#utility.yul\":6288:6376   */\n      tag_132\n        /* \"#utility.yul\":6371:6375   */\n      dup2\n        /* \"#utility.yul\":6362:6368   */\n      dup7\n        /* \"#utility.yul\":6354:6360   */\n      dup9\n        /* \"#utility.yul\":6288:6376   */\n      tag_66\n      jump\t// in\n    tag_132:\n        /* \"#utility.yul\":6280:6376   */\n      swap1\n      pop\n        /* \"#utility.yul\":6386:6458   */\n      tag_133\n        /* \"#utility.yul\":6454:6456   */\n      0x40\n        /* \"#utility.yul\":6443:6452   */\n      dup4\n        /* \"#utility.yul\":6439:6457   */\n      add\n        /* \"#utility.yul\":6430:6436   */\n      dup6\n        /* \"#utility.yul\":6386:6458   */\n      tag_51\n      jump\t// in\n    tag_133:\n        /* \"#utility.yul\":6468:6540   */\n      tag_134\n        /* \"#utility.yul\":6536:6538   */\n      0x60\n        /* \"#utility.yul\":6525:6534   */\n      dup4\n        /* \"#utility.yul\":6521:6539   */\n      add\n        /* \"#utility.yul\":6512:6518   */\n      dup5\n        /* \"#utility.yul\":6468:6540   */\n      tag_51\n      jump\t// in\n    tag_134:\n        /* \"#utility.yul\":5883:6547   */\n      swap7\n      swap6\n      pop\n      pop\n      pop\n      pop\n      pop\n      pop\n      jump\t// out\n        /* \"#utility.yul\":6553:6885   */\n    tag_37:\n        /* \"#utility.yul\":6674:6678   */\n      0x00\n        /* \"#utility.yul\":6712:6714   */\n      0x40\n        /* \"#utility.yul\":6701:6710   */\n      dup3\n        /* \"#utility.yul\":6697:6715   */\n      add\n        /* \"#utility.yul\":6689:6715   */\n      swap1\n      pop\n        /* \"#utility.yul\":6725:6796   */\n      tag_136\n        /* \"#utility.yul\":6793:6794   */\n      0x00\n        /* \"#utility.yul\":6782:6791   */\n      dup4\n        /* \"#utility.yul\":6778:6795   */\n      add\n        /* \"#utility.yul\":6769:6775   */\n      dup6\n        /* \"#utility.yul\":6725:6796   */\n      tag_51\n      jump\t// in\n    tag_136:\n        /* \"#utility.yul\":6806:6878   */\n      tag_137\n        /* \"#utility.yul\":6874:6876   */\n      0x20\n        /* \"#utility.yul\":6863:6872   */\n      dup4\n        /* \"#utility.yul\":6859:6877   */\n      add\n        /* \"#utility.yul\":6850:6856   */\n      dup5\n        /* \"#utility.yul\":6806:6878   */\n      tag_51\n      jump\t// in\n    tag_137:\n        /* \"#utility.yul\":6553:6885   */\n      swap4\n      swap3\n      pop\n      pop\n      pop\n      jump\t// out\n    stop\n\n    sub_0: assembly {\n            /* \"Proposal.sol\":160:5871  contract Proposal {... */\n          mstore(0x40, 0xe0)\n            /* \"Proposal.sol\":980:981  0 */\n          0x00\n            /* \"Proposal.sol\":946:981  uint32 public voteBufferSeconds = 0 */\n          0x07\n          exp(0x0100, 0x00)\n          dup2\n          sload\n          dup2\n          0xffffffff\n          mul\n          not\n          and\n          swap1\n          dup4\n          0xffffffff\n          and\n          mul\n          or\n          swap1\n          sstore\n          pop\n            /* \"Proposal.sol\":1059:1060  3 */\n          0x03\n            /* \"Proposal.sol\":1024:1060  uint32 public voteCountThreshold = 3 */\n          0x09\n          exp(0x0100, 0x00)\n          dup2\n          sload\n          dup2\n          0xffffffff\n          mul\n          not\n          and\n          swap1\n          dup4\n          0xffffffff\n          and\n          mul\n          or\n          swap1\n          sstore\n          pop\n            /* \"Proposal.sol\":1100:1105  false */\n          0x00\n            /* \"Proposal.sol\":1069:1105  bool public leaderIsEligible = false */\n          0x09\n          exp(0x0100, 0x04)\n          dup2\n          sload\n          dup2\n          0xff\n          mul\n          not\n          and\n          swap1\n          dup4\n          iszero\n          iszero\n          mul\n          or\n          swap1\n          sstore\n          pop\n            /* \"Proposal.sol\":1135:1136  0 */\n          0x00\n            /* \"Proposal.sol\":1112:1136  uint32 numberOfVotes = 0 */\n          0x09\n          exp(0x0100, 0x05)\n          dup2\n          sload\n          dup2\n          0xffffffff\n          mul\n          not\n          and\n          swap1\n          dup4\n          0xffffffff\n          and\n          mul\n          or\n          swap1\n          sstore\n          pop\n            /* \"Proposal.sol\":1324:1775  constructor(... */\n          callvalue\n          dup1\n          iszero\n          tag_1\n          jumpi\n          0x00\n          dup1\n          revert\n        tag_1:\n          pop\n          mload(0x40)\n          sub(codesize, bytecodeSize)\n          dup1\n          bytecodeSize\n          dup4\n          codecopy\n          dup2\n          dup2\n          add\n          0x40\n          mstore\n          dup2\n          add\n          swap1\n          tag_2\n          swap2\n          swap1\n          tag_3\n          jump\t// in\n        tag_2:\n            /* \"Proposal.sol\":1486:1495  creatorIn */\n          dup4\n            /* \"Proposal.sol\":1476:1495  creator = creatorIn */\n          0xffffffffffffffffffffffffffffffffffffffff\n          and\n          0x80\n          dup2\n          0xffffffffffffffffffffffffffffffffffffffff\n          and\n          dup2\n          mstore\n          pop\n          pop\n            /* \"Proposal.sol\":1527:1538  description */\n          dup3\n            /* \"Proposal.sol\":1506:1524  initialDescription */\n          0x01\n            /* \"Proposal.sol\":1506:1538  initialDescription = description */\n          swap1\n          dup2\n          tag_6\n          swap2\n          swap1\n          tag_7\n          jump\t// in\n        tag_6:\n          pop\n            /* \"Proposal.sol\":1565:1586  ProposalState.BIDDING */\n          0x00\n            /* \"Proposal.sol\":1549:1562  proposalState */\n          0x02\n          0x00\n            /* \"Proposal.sol\":1549:1586  proposalState = ProposalState.BIDDING */\n          0x0100\n          exp\n          dup2\n          sload\n          dup2\n          0xff\n          mul\n          not\n          and\n          swap1\n          dup4\n          0x03\n          dup2\n          gt\n          iszero\n          tag_8\n          jumpi\n          tag_9\n          tag_10\n          jump\t// in\n        tag_9:\n        tag_8:\n          mul\n          or\n          swap1\n          sstore\n          pop\n            /* \"Proposal.sol\":1609:1615  memMap */\n          dup2\n            /* \"Proposal.sol\":1597:1615  memberMap = memMap */\n          0xffffffffffffffffffffffffffffffffffffffff\n          and\n          0xa0\n          dup2\n          0xffffffffffffffffffffffffffffffffffffffff\n          and\n          dup2\n          mstore\n          pop\n          pop\n            /* \"Proposal.sol\":1640:1655  block.timestamp */\n          timestamp\n            /* \"Proposal.sol\":1626:1637  dateCreated */\n          0x06\n            /* \"Proposal.sol\":1626:1655  dateCreated = block.timestamp */\n          dup2\n          swap1\n          sstore\n          pop\n            /* \"Proposal.sol\":1701:1718  voteBufferSeconds */\n          0x07\n          0x00\n          swap1\n          sload\n          swap1\n          0x0100\n          exp\n          swap1\n          div\n          0xffffffff\n          and\n            /* \"Proposal.sol\":1683:1718  block.timestamp + voteBufferSeconds */\n          0xffffffff\n          and\n            /* \"Proposal.sol\":1683:1698  block.timestamp */\n          timestamp\n            /* \"Proposal.sol\":1683:1718  block.timestamp + voteBufferSeconds */\n          tag_11\n          swap2\n          swap1\n          tag_12\n          jump\t// in\n        tag_11:\n            /* \"Proposal.sol\":1666:1680  voteBufferDate */\n          0x08\n            /* \"Proposal.sol\":1666:1718  voteBufferDate = block.timestamp + voteBufferSeconds */\n          dup2\n          swap1\n          sstore\n          pop\n            /* \"Proposal.sol\":1753:1767  projectFactory */\n          dup1\n            /* \"Proposal.sol\":1729:1767  projectFactoryAddress = projectFactory */\n          0xffffffffffffffffffffffffffffffffffffffff\n          and\n          0xc0\n          dup2\n          0xffffffffffffffffffffffffffffffffffffffff\n          and\n          dup2\n          mstore\n          pop\n          pop\n            /* \"Proposal.sol\":1324:1775  constructor(... */\n          pop\n          pop\n          pop\n          pop\n            /* \"Proposal.sol\":160:5871  contract Proposal {... */\n          jump(tag_13)\n            /* \"#utility.yul\":7:82   */\n        tag_14:\n            /* \"#utility.yul\":40:46   */\n          0x00\n            /* \"#utility.yul\":73:75   */\n          0x40\n            /* \"#utility.yul\":67:76   */\n          mload\n            /* \"#utility.yul\":57:76   */\n          swap1\n          pop\n            /* \"#utility.yul\":7:82   */\n          swap1\n          jump\t// out\n            /* \"#utility.yul\":88:205   */\n        tag_15:\n            /* \"#utility.yul\":197:198   */\n          0x00\n            /* \"#utility.yul\":194:195   */\n          dup1\n            /* \"#utility.yul\":187:199   */\n          revert\n            /* \"#utility.yul\":211:328   */\n        tag_16:\n            /* \"#utility.yul\":320:321   */\n          0x00\n            /* \"#utility.yul\":317:318   */\n          dup1\n            /* \"#utility.yul\":310:322   */\n          revert\n            /* \"#utility.yul\":334:460   */\n        tag_17:\n            /* \"#utility.yul\":371:378   */\n          0x00\n            /* \"#utility.yul\":411:453   */\n          0xffffffffffffffffffffffffffffffffffffffff\n            /* \"#utility.yul\":404:409   */\n          dup3\n            /* \"#utility.yul\":400:454   */\n          and\n            /* \"#utility.yul\":389:454   */\n          swap1\n          pop\n            /* \"#utility.yul\":334:460   */\n          swap2\n          swap1\n          pop\n          jump\t// out\n            /* \"#utility.yul\":466:562   */\n        tag_18:\n            /* \"#utility.yul\":503:510   */\n          0x00\n            /* \"#utility.yul\":532:556   */\n          tag_57\n            /* \"#utility.yul\":550:555   */\n          dup3\n            /* \"#utility.yul\":532:556   */\n          tag_17\n          jump\t// in\n        tag_57:\n            /* \"#utility.yul\":521:556   */\n          swap1\n          pop\n            /* \"#utility.yul\":466:562   */\n          swap2\n          swap1\n          pop\n          jump\t// out\n            /* \"#utility.yul\":568:690   */\n        tag_19:\n            /* \"#utility.yul\":641:665   */\n          tag_59\n            /* \"#utility.yul\":659:664   */\n          dup2\n            /* \"#utility.yul\":641:665   */\n          tag_18\n          jump\t// in\n        tag_59:\n            /* \"#utility.yul\":634:639   */\n          dup2\n            /* \"#utility.yul\":631:666   */\n          eq\n            /* \"#utility.yul\":621:684   */\n          tag_60\n          jumpi\n            /* \"#utility.yul\":680:681   */\n          0x00\n            /* \"#utility.yul\":677:678   */\n          dup1\n            /* \"#utility.yul\":670:682   */\n          revert\n            /* \"#utility.yul\":621:684   */\n        tag_60:\n            /* \"#utility.yul\":568:690   */\n          pop\n          jump\t// out\n            /* \"#utility.yul\":696:839   */\n        tag_20:\n            /* \"#utility.yul\":753:758   */\n          0x00\n            /* \"#utility.yul\":784:790   */\n          dup2\n            /* \"#utility.yul\":778:791   */\n          mload\n            /* \"#utility.yul\":769:791   */\n          swap1\n          pop\n            /* \"#utility.yul\":800:833   */\n          tag_62\n            /* \"#utility.yul\":827:832   */\n          dup2\n            /* \"#utility.yul\":800:833   */\n          tag_19\n          jump\t// in\n        tag_62:\n            /* \"#utility.yul\":696:839   */\n          swap3\n          swap2\n          pop\n          pop\n          jump\t// out\n            /* \"#utility.yul\":845:962   */\n        tag_21:\n            /* \"#utility.yul\":954:955   */\n          0x00\n            /* \"#utility.yul\":951:952   */\n          dup1\n            /* \"#utility.yul\":944:956   */\n          revert\n            /* \"#utility.yul\":968:1085   */\n        tag_22:\n            /* \"#utility.yul\":1077:1078   */\n          0x00\n            /* \"#utility.yul\":1074:1075   */\n          dup1\n            /* \"#utility.yul\":1067:1079   */\n          revert\n            /* \"#utility.yul\":1091:1193   */\n        tag_23:\n            /* \"#utility.yul\":1132:1138   */\n          0x00\n            /* \"#utility.yul\":1183:1185   */\n          0x1f\n            /* \"#utility.yul\":1179:1186   */\n          not\n            /* \"#utility.yul\":1174:1176   */\n          0x1f\n            /* \"#utility.yul\":1167:1172   */\n          dup4\n            /* \"#utility.yul\":1163:1177   */\n          add\n            /* \"#utility.yul\":1159:1187   */\n          and\n            /* \"#utility.yul\":1149:1187   */\n          swap1\n          pop\n            /* \"#utility.yul\":1091:1193   */\n          swap2\n          swap1\n          pop\n          jump\t// out\n            /* \"#utility.yul\":1199:1379   */\n        tag_24:\n            /* \"#utility.yul\":1247:1324   */\n          0x4e487b7100000000000000000000000000000000000000000000000000000000\n            /* \"#utility.yul\":1244:1245   */\n          0x00\n            /* \"#utility.yul\":1237:1325   */\n          mstore\n            /* \"#utility.yul\":1344:1348   */\n          0x41\n            /* \"#utility.yul\":1341:1342   */\n          0x04\n            /* \"#utility.yul\":1334:1349   */\n          mstore\n            /* \"#utility.yul\":1368:1372   */\n          0x24\n            /* \"#utility.yul\":1365:1366   */\n          0x00\n            /* \"#utility.yul\":1358:1373   */\n          revert\n            /* \"#utility.yul\":1385:1666   */\n        tag_25:\n            /* \"#utility.yul\":1468:1495   */\n          tag_68\n            /* \"#utility.yul\":1490:1494   */\n          dup3\n            /* \"#utility.yul\":1468:1495   */\n          tag_23\n          jump\t// in\n        tag_68:\n            /* \"#utility.yul\":1460:1466   */\n          dup2\n            /* \"#utility.yul\":1456:1496   */\n          add\n            /* \"#utility.yul\":1598:1604   */\n          dup2\n            /* \"#utility.yul\":1586:1596   */\n          dup2\n            /* \"#utility.yul\":1583:1605   */\n          lt\n            /* \"#utility.yul\":1562:1580   */\n          0xffffffffffffffff\n            /* \"#utility.yul\":1550:1560   */\n          dup3\n            /* \"#utility.yul\":1547:1581   */\n          gt\n            /* \"#utility.yul\":1544:1606   */\n          or\n            /* \"#utility.yul\":1541:1629   */\n          iszero\n          tag_69\n          jumpi\n            /* \"#utility.yul\":1609:1627   */\n          tag_70\n          tag_24\n          jump\t// in\n        tag_70:\n            /* \"#utility.yul\":1541:1629   */\n        tag_69:\n            /* \"#utility.yul\":1649:1659   */\n          dup1\n            /* \"#utility.yul\":1645:1647   */\n          0x40\n            /* \"#utility.yul\":1638:1660   */\n          mstore\n            /* \"#utility.yul\":1428:1666   */\n          pop\n            /* \"#utility.yul\":1385:1666   */\n          pop\n          pop\n          jump\t// out\n            /* \"#utility.yul\":1672:1801   */\n        tag_26:\n            /* \"#utility.yul\":1706:1712   */\n          0x00\n            /* \"#utility.yul\":1733:1753   */\n          tag_72\n          tag_14\n          jump\t// in\n        tag_72:\n            /* \"#utility.yul\":1723:1753   */\n          swap1\n          pop\n            /* \"#utility.yul\":1762:1795   */\n          tag_73\n            /* \"#utility.yul\":1790:1794   */\n          dup3\n            /* \"#utility.yul\":1782:1788   */\n          dup3\n            /* \"#utility.yul\":1762:1795   */\n          tag_25\n          jump\t// in\n        tag_73:\n            /* \"#utility.yul\":1672:1801   */\n          swap2\n          swap1\n          pop\n          jump\t// out\n            /* \"#utility.yul\":1807:2115   */\n        tag_27:\n            /* \"#utility.yul\":1869:1873   */\n          0x00\n            /* \"#utility.yul\":1959:1977   */\n          0xffffffffffffffff\n            /* \"#utility.yul\":1951:1957   */\n          dup3\n            /* \"#utility.yul\":1948:1978   */\n          gt\n            /* \"#utility.yul\":1945:2001   */\n          iszero\n          tag_75\n          jumpi\n            /* \"#utility.yul\":1981:1999   */\n          tag_76\n          tag_24\n          jump\t// in\n        tag_76:\n            /* \"#utility.yul\":1945:2001   */\n        tag_75:\n            /* \"#utility.yul\":2019:2048   */\n          tag_77\n            /* \"#utility.yul\":2041:2047   */\n          dup3\n            /* \"#utility.yul\":2019:2048   */\n          tag_23\n          jump\t// in\n        tag_77:\n            /* \"#utility.yul\":2011:2048   */\n          swap1\n          pop\n            /* \"#utility.yul\":2103:2107   */\n          0x20\n            /* \"#utility.yul\":2097:2101   */\n          dup2\n            /* \"#utility.yul\":2093:2108   */\n          add\n            /* \"#utility.yul\":2085:2108   */\n          swap1\n          pop\n            /* \"#utility.yul\":1807:2115   */\n          swap2\n          swap1\n          pop\n          jump\t// out\n            /* \"#utility.yul\":2121:2367   */\n        tag_28:\n            /* \"#utility.yul\":2202:2203   */\n          0x00\n            /* \"#utility.yul\":2212:2325   */\n        tag_79:\n            /* \"#utility.yul\":2226:2232   */\n          dup4\n            /* \"#utility.yul\":2223:2224   */\n          dup2\n            /* \"#utility.yul\":2220:2233   */\n          lt\n            /* \"#utility.yul\":2212:2325   */\n          iszero\n          tag_81\n          jumpi\n            /* \"#utility.yul\":2311:2312   */\n          dup1\n            /* \"#utility.yul\":2306:2309   */\n          dup3\n            /* \"#utility.yul\":2302:2313   */\n          add\n            /* \"#utility.yul\":2296:2314   */\n          mload\n            /* \"#utility.yul\":2292:2293   */\n          dup2\n            /* \"#utility.yul\":2287:2290   */\n          dup5\n            /* \"#utility.yul\":2283:2294   */\n          add\n            /* \"#utility.yul\":2276:2315   */\n          mstore\n            /* \"#utility.yul\":2248:2250   */\n          0x20\n            /* \"#utility.yul\":2245:2246   */\n          dup2\n            /* \"#utility.yul\":2241:2251   */\n          add\n            /* \"#utility.yul\":2236:2251   */\n          swap1\n          pop\n            /* \"#utility.yul\":2212:2325   */\n          jump(tag_79)\n        tag_81:\n            /* \"#utility.yul\":2359:2360   */\n          0x00\n            /* \"#utility.yul\":2350:2356   */\n          dup5\n            /* \"#utility.yul\":2345:2348   */\n          dup5\n            /* \"#utility.yul\":2341:2357   */\n          add\n            /* \"#utility.yul\":2334:2361   */\n          mstore\n            /* \"#utility.yul\":2183:2367   */\n          pop\n            /* \"#utility.yul\":2121:2367   */\n          pop\n          pop\n          pop\n          jump\t// out\n            /* \"#utility.yul\":2373:2807   */\n        tag_29:\n            /* \"#utility.yul\":2462:2467   */\n          0x00\n            /* \"#utility.yul\":2487:2553   */\n          tag_83\n            /* \"#utility.yul\":2503:2552   */\n          tag_84\n            /* \"#utility.yul\":2545:2551   */\n          dup5\n            /* \"#utility.yul\":2503:2552   */\n          tag_27\n          jump\t// in\n        tag_84:\n            /* \"#utility.yul\":2487:2553   */\n          tag_26\n          jump\t// in\n        tag_83:\n            /* \"#utility.yul\":2478:2553   */\n          swap1\n          pop\n            /* \"#utility.yul\":2576:2582   */\n          dup3\n            /* \"#utility.yul\":2569:2574   */\n          dup2\n            /* \"#utility.yul\":2562:2583   */\n          mstore\n            /* \"#utility.yul\":2614:2618   */\n          0x20\n            /* \"#utility.yul\":2607:2612   */\n          dup2\n            /* \"#utility.yul\":2603:2619   */\n          add\n            /* \"#utility.yul\":2652:2655   */\n          dup5\n            /* \"#utility.yul\":2643:2649   */\n          dup5\n            /* \"#utility.yul\":2638:2641   */\n          dup5\n            /* \"#utility.yul\":2634:2650   */\n          add\n            /* \"#utility.yul\":2631:2656   */\n          gt\n            /* \"#utility.yul\":2628:2740   */\n          iszero\n          tag_85\n          jumpi\n            /* \"#utility.yul\":2659:2738   */\n          tag_86\n          tag_22\n          jump\t// in\n        tag_86:\n            /* \"#utility.yul\":2628:2740   */\n        tag_85:\n            /* \"#utility.yul\":2749:2801   */\n          tag_87\n            /* \"#utility.yul\":2794:2800   */\n          dup5\n            /* \"#utility.yul\":2789:2792   */\n          dup3\n            /* \"#utility.yul\":2784:2787   */\n          dup6\n            /* \"#utility.yul\":2749:2801   */\n          tag_28\n          jump\t// in\n        tag_87:\n            /* \"#utility.yul\":2468:2807   */\n          pop\n            /* \"#utility.yul\":2373:2807   */\n          swap4\n          swap3\n          pop\n          pop\n          pop\n          jump\t// out\n            /* \"#utility.yul\":2827:3182   */\n        tag_30:\n            /* \"#utility.yul\":2894:2899   */\n          0x00\n            /* \"#utility.yul\":2943:2946   */\n          dup3\n            /* \"#utility.yul\":2936:2940   */\n          0x1f\n            /* \"#utility.yul\":2928:2934   */\n          dup4\n            /* \"#utility.yul\":2924:2941   */\n          add\n            /* \"#utility.yul\":2920:2947   */\n          slt\n            /* \"#utility.yul\":2910:3032   */\n          tag_89\n          jumpi\n            /* \"#utility.yul\":2951:3030   */\n          tag_90\n          tag_21\n          jump\t// in\n        tag_90:\n            /* \"#utility.yul\":2910:3032   */\n        tag_89:\n            /* \"#utility.yul\":3061:3067   */\n          dup2\n            /* \"#utility.yul\":3055:3068   */\n          mload\n            /* \"#utility.yul\":3086:3176   */\n          tag_91\n            /* \"#utility.yul\":3172:3175   */\n          dup5\n            /* \"#utility.yul\":3164:3170   */\n          dup3\n            /* \"#utility.yul\":3157:3161   */\n          0x20\n            /* \"#utility.yul\":3149:3155   */\n          dup7\n            /* \"#utility.yul\":3145:3162   */\n          add\n            /* \"#utility.yul\":3086:3176   */\n          tag_29\n          jump\t// in\n        tag_91:\n            /* \"#utility.yul\":3077:3176   */\n          swap2\n          pop\n            /* \"#utility.yul\":2900:3182   */\n          pop\n            /* \"#utility.yul\":2827:3182   */\n          swap3\n          swap2\n          pop\n          pop\n          jump\t// out\n            /* \"#utility.yul\":3188:4181   */\n        tag_3:\n            /* \"#utility.yul\":3295:3301   */\n          0x00\n            /* \"#utility.yul\":3303:3309   */\n          dup1\n            /* \"#utility.yul\":3311:3317   */\n          0x00\n            /* \"#utility.yul\":3319:3325   */\n          dup1\n            /* \"#utility.yul\":3368:3371   */\n          0x80\n            /* \"#utility.yul\":3356:3365   */\n          dup6\n            /* \"#utility.yul\":3347:3354   */\n          dup8\n            /* \"#utility.yul\":3343:3366   */\n          sub\n            /* \"#utility.yul\":3339:3372   */\n          slt\n            /* \"#utility.yul\":3336:3456   */\n          iszero\n          tag_93\n          jumpi\n            /* \"#utility.yul\":3375:3454   */\n          tag_94\n          tag_15\n          jump\t// in\n        tag_94:\n            /* \"#utility.yul\":3336:3456   */\n        tag_93:\n            /* \"#utility.yul\":3495:3496   */\n          0x00\n            /* \"#utility.yul\":3520:3584   */\n          tag_95\n            /* \"#utility.yul\":3576:3583   */\n          dup8\n            /* \"#utility.yul\":3567:3573   */\n          dup3\n            /* \"#utility.yul\":3556:3565   */\n          dup9\n            /* \"#utility.yul\":3552:3574   */\n          add\n            /* \"#utility.yul\":3520:3584   */\n          tag_20\n          jump\t// in\n        tag_95:\n            /* \"#utility.yul\":3510:3584   */\n          swap5\n          pop\n            /* \"#utility.yul\":3466:3594   */\n          pop\n            /* \"#utility.yul\":3654:3656   */\n          0x20\n            /* \"#utility.yul\":3643:3652   */\n          dup6\n            /* \"#utility.yul\":3639:3657   */\n          add\n            /* \"#utility.yul\":3633:3658   */\n          mload\n            /* \"#utility.yul\":3685:3703   */\n          0xffffffffffffffff\n            /* \"#utility.yul\":3677:3683   */\n          dup2\n            /* \"#utility.yul\":3674:3704   */\n          gt\n            /* \"#utility.yul\":3671:3788   */\n          iszero\n          tag_96\n          jumpi\n            /* \"#utility.yul\":3707:3786   */\n          tag_97\n          tag_16\n          jump\t// in\n        tag_97:\n            /* \"#utility.yul\":3671:3788   */\n        tag_96:\n            /* \"#utility.yul\":3812:3886   */\n          tag_98\n            /* \"#utility.yul\":3878:3885   */\n          dup8\n            /* \"#utility.yul\":3869:3875   */\n          dup3\n            /* \"#utility.yul\":3858:3867   */\n          dup9\n            /* \"#utility.yul\":3854:3876   */\n          add\n            /* \"#utility.yul\":3812:3886   */\n          tag_30\n          jump\t// in\n        tag_98:\n            /* \"#utility.yul\":3802:3886   */\n          swap4\n          pop\n            /* \"#utility.yul\":3604:3896   */\n          pop\n            /* \"#utility.yul\":3935:3937   */\n          0x40\n            /* \"#utility.yul\":3961:4025   */\n          tag_99\n            /* \"#utility.yul\":4017:4024   */\n          dup8\n            /* \"#utility.yul\":4008:4014   */\n          dup3\n            /* \"#utility.yul\":3997:4006   */\n          dup9\n            /* \"#utility.yul\":3993:4015   */\n          add\n            /* \"#utility.yul\":3961:4025   */\n          tag_20\n          jump\t// in\n        tag_99:\n            /* \"#utility.yul\":3951:4025   */\n          swap3\n          pop\n            /* \"#utility.yul\":3906:4035   */\n          pop\n            /* \"#utility.yul\":4074:4076   */\n          0x60\n            /* \"#utility.yul\":4100:4164   */\n          tag_100\n            /* \"#utility.yul\":4156:4163   */\n          dup8\n            /* \"#utility.yul\":4147:4153   */\n          dup3\n            /* \"#utility.yul\":4136:4145   */\n          dup9\n            /* \"#utility.yul\":4132:4154   */\n          add\n            /* \"#utility.yul\":4100:4164   */\n          tag_20\n          jump\t// in\n        tag_100:\n            /* \"#utility.yul\":4090:4164   */\n          swap2\n          pop\n            /* \"#utility.yul\":4045:4174   */\n          pop\n            /* \"#utility.yul\":3188:4181   */\n          swap3\n          swap6\n          swap2\n          swap5\n          pop\n          swap3\n          pop\n          jump\t// out\n            /* \"#utility.yul\":4187:4286   */\n        tag_31:\n            /* \"#utility.yul\":4239:4245   */\n          0x00\n            /* \"#utility.yul\":4273:4278   */\n          dup2\n            /* \"#utility.yul\":4267:4279   */\n          mload\n            /* \"#utility.yul\":4257:4279   */\n          swap1\n          pop\n            /* \"#utility.yul\":4187:4286   */\n          swap2\n          swap1\n          pop\n          jump\t// out\n            /* \"#utility.yul\":4292:4472   */\n        tag_32:\n            /* \"#utility.yul\":4340:4417   */\n          0x4e487b7100000000000000000000000000000000000000000000000000000000\n            /* \"#utility.yul\":4337:4338   */\n          0x00\n            /* \"#utility.yul\":4330:4418   */\n          mstore\n            /* \"#utility.yul\":4437:4441   */\n          0x22\n            /* \"#utility.yul\":4434:4435   */\n          0x04\n            /* \"#utility.yul\":4427:4442   */\n          mstore\n            /* \"#utility.yul\":4461:4465   */\n          0x24\n            /* \"#utility.yul\":4458:4459   */\n          0x00\n            /* \"#utility.yul\":4451:4466   */\n          revert\n            /* \"#utility.yul\":4478:4798   */\n        tag_33:\n            /* \"#utility.yul\":4522:4528   */\n          0x00\n            /* \"#utility.yul\":4559:4560   */\n          0x02\n            /* \"#utility.yul\":4553:4557   */\n          dup3\n            /* \"#utility.yul\":4549:4561   */\n          div\n            /* \"#utility.yul\":4539:4561   */\n          swap1\n          pop\n            /* \"#utility.yul\":4606:4607   */\n          0x01\n            /* \"#utility.yul\":4600:4604   */\n          dup3\n            /* \"#utility.yul\":4596:4608   */\n          and\n            /* \"#utility.yul\":4627:4645   */\n          dup1\n            /* \"#utility.yul\":4617:4698   */\n          tag_104\n          jumpi\n            /* \"#utility.yul\":4683:4687   */\n          0x7f\n            /* \"#utility.yul\":4675:4681   */\n          dup3\n            /* \"#utility.yul\":4671:4688   */\n          and\n            /* \"#utility.yul\":4661:4688   */\n          swap2\n          pop\n            /* \"#utility.yul\":4617:4698   */\n        tag_104:\n            /* \"#utility.yul\":4745:4747   */\n          0x20\n            /* \"#utility.yul\":4737:4743   */\n          dup3\n            /* \"#utility.yul\":4734:4748   */\n          lt\n            /* \"#utility.yul\":4714:4732   */\n          dup2\n            /* \"#utility.yul\":4711:4749   */\n          sub\n            /* \"#utility.yul\":4708:4792   */\n          tag_105\n          jumpi\n            /* \"#utility.yul\":4764:4782   */\n          tag_106\n          tag_32\n          jump\t// in\n        tag_106:\n            /* \"#utility.yul\":4708:4792   */\n        tag_105:\n            /* \"#utility.yul\":4529:4798   */\n          pop\n            /* \"#utility.yul\":4478:4798   */\n          swap2\n          swap1\n          pop\n          jump\t// out\n            /* \"#utility.yul\":4804:4945   */\n        tag_34:\n            /* \"#utility.yul\":4853:4857   */\n          0x00\n            /* \"#utility.yul\":4876:4879   */\n          dup2\n            /* \"#utility.yul\":4868:4879   */\n          swap1\n          pop\n            /* \"#utility.yul\":4899:4902   */\n          dup2\n            /* \"#utility.yul\":4896:4897   */\n          0x00\n            /* \"#utility.yul\":4889:4903   */\n          mstore\n            /* \"#utility.yul\":4933:4937   */\n          0x20\n            /* \"#utility.yul\":4930:4931   */\n          0x00\n            /* \"#utility.yul\":4920:4938   */\n          keccak256\n            /* \"#utility.yul\":4912:4938   */\n          swap1\n          pop\n            /* \"#utility.yul\":4804:4945   */\n          swap2\n          swap1\n          pop\n          jump\t// out\n            /* \"#utility.yul\":4951:5044   */\n        tag_35:\n            /* \"#utility.yul\":4988:4994   */\n          0x00\n            /* \"#utility.yul\":5035:5037   */\n          0x20\n            /* \"#utility.yul\":5030:5032   */\n          0x1f\n            /* \"#utility.yul\":5023:5028   */\n          dup4\n            /* \"#utility.yul\":5019:5033   */\n          add\n            /* \"#utility.yul\":5015:5038   */\n          div\n            /* \"#utility.yul\":5005:5038   */\n          swap1\n          pop\n            /* \"#utility.yul\":4951:5044   */\n          swap2\n          swap1\n          pop\n          jump\t// out\n            /* \"#utility.yul\":5050:5157   */\n        tag_36:\n            /* \"#utility.yul\":5094:5102   */\n          0x00\n            /* \"#utility.yul\":5144:5149   */\n          dup3\n            /* \"#utility.yul\":5138:5142   */\n          dup3\n            /* \"#utility.yul\":5134:5150   */\n          shl\n            /* \"#utility.yul\":5113:5150   */\n          swap1\n          pop\n            /* \"#utility.yul\":5050:5157   */\n          swap3\n          swap2\n          pop\n          pop\n          jump\t// out\n            /* \"#utility.yul\":5163:5556   */\n        tag_37:\n            /* \"#utility.yul\":5232:5238   */\n          0x00\n            /* \"#utility.yul\":5282:5283   */\n          0x08\n            /* \"#utility.yul\":5270:5280   */\n          dup4\n            /* \"#utility.yul\":5266:5284   */\n          mul\n            /* \"#utility.yul\":5305:5402   */\n          tag_111\n            /* \"#utility.yul\":5335:5401   */\n          0xffffffffffffffffffffffffffffffffffffffffffffffffffffffffffffffff\n            /* \"#utility.yul\":5324:5333   */\n          dup3\n            /* \"#utility.yul\":5305:5402   */\n          tag_36\n          jump\t// in\n        tag_111:\n            /* \"#utility.yul\":5423:5462   */\n          tag_112\n            /* \"#utility.yul\":5453:5461   */\n          dup7\n            /* \"#utility.yul\":5442:5451   */\n          dup4\n            /* \"#utility.yul\":5423:5462   */\n          tag_36\n          jump\t// in\n        tag_112:\n            /* \"#utility.yul\":5411:5462   */\n          swap6\n          pop\n            /* \"#utility.yul\":5495:5499   */\n          dup1\n            /* \"#utility.yul\":5491:5500   */\n          not\n            /* \"#utility.yul\":5484:5489   */\n          dup5\n            /* \"#utility.yul\":5480:5501   */\n          and\n            /* \"#utility.yul\":5471:5501   */\n          swap4\n          pop\n            /* \"#utility.yul\":5544:5548   */\n          dup1\n            /* \"#utility.yul\":5534:5542   */\n          dup7\n            /* \"#utility.yul\":5530:5549   */\n          and\n            /* \"#utility.yul\":5523:5528   */\n          dup5\n            /* \"#utility.yul\":5520:5550   */\n          or\n            /* \"#utility.yul\":5510:5550   */\n          swap3\n          pop\n            /* \"#utility.yul\":5239:5556   */\n          pop\n          pop\n            /* \"#utility.yul\":5163:5556   */\n          swap4\n          swap3\n          pop\n          pop\n          pop\n          jump\t// out\n            /* \"#utility.yul\":5562:5639   */\n        tag_38:\n            /* \"#utility.yul\":5599:5606   */\n          0x00\n            /* \"#utility.yul\":5628:5633   */\n          dup2\n            /* \"#utility.yul\":5617:5633   */\n          swap1\n          pop\n            /* \"#utility.yul\":5562:5639   */\n          swap2\n          swap1\n          pop\n          jump\t// out\n            /* \"#utility.yul\":5645:5705   */\n        tag_39:\n            /* \"#utility.yul\":5673:5676   */\n          0x00\n            /* \"#utility.yul\":5694:5699   */\n          dup2\n            /* \"#utility.yul\":5687:5699   */\n          swap1\n          pop\n            /* \"#utility.yul\":5645:5705   */\n          swap2\n          swap1\n          pop\n          jump\t// out\n            /* \"#utility.yul\":5711:5853   */\n        tag_40:\n            /* \"#utility.yul\":5761:5770   */\n          0x00\n            /* \"#utility.yul\":5794:5847   */\n          tag_116\n            /* \"#utility.yul\":5812:5846   */\n          tag_117\n            /* \"#utility.yul\":5821:5845   */\n          tag_118\n            /* \"#utility.yul\":5839:5844   */\n          dup5\n            /* \"#utility.yul\":5821:5845   */\n          tag_38\n          jump\t// in\n        tag_118:\n            /* \"#utility.yul\":5812:5846   */\n          tag_39\n          jump\t// in\n        tag_117:\n            /* \"#utility.yul\":5794:5847   */\n          tag_38\n          jump\t// in\n        tag_116:\n            /* \"#utility.yul\":5781:5847   */\n          swap1\n          pop\n            /* \"#utility.yul\":5711:5853   */\n          swap2\n          swap1\n          pop\n          jump\t// out\n            /* \"#utility.yul\":5859:5934   */\n        tag_41:\n            /* \"#utility.yul\":5902:5905   */\n          0x00\n            /* \"#utility.yul\":5923:5928   */\n          dup2\n            /* \"#utility.yul\":5916:5928   */\n          swap1\n          pop\n            /* \"#utility.yul\":5859:5934   */\n          swap2\n          swap1\n          pop\n          jump\t// out\n            /* \"#utility.yul\":5940:6209   */\n        tag_42:\n            /* \"#utility.yul\":6050:6089   */\n          tag_121\n            /* \"#utility.yul\":6081:6088   */\n          dup4\n            /* \"#utility.yul\":6050:6089   */\n          tag_40\n          jump\t// in\n        tag_121:\n            /* \"#utility.yul\":6111:6202   */\n          tag_122\n            /* \"#utility.yul\":6160:6201   */\n          tag_123\n            /* \"#utility.yul\":6184:6200   */\n          dup3\n            /* \"#utility.yul\":6160:6201   */\n          tag_41\n          jump\t// in\n        tag_123:\n            /* \"#utility.yul\":6152:6158   */\n          dup5\n            /* \"#utility.yul\":6145:6149   */\n          dup5\n            /* \"#utility.yul\":6139:6150   */\n          sload\n            /* \"#utility.yul\":6111:6202   */\n          tag_37\n          jump\t// in\n        tag_122:\n            /* \"#utility.yul\":6105:6109   */\n          dup3\n            /* \"#utility.yul\":6098:6203   */\n          sstore\n            /* \"#utility.yul\":6016:6209   */\n          pop\n            /* \"#utility.yul\":5940:6209   */\n          pop\n          pop\n          pop\n          jump\t// out\n            /* \"#utility.yul\":6215:6288   */\n        tag_43:\n            /* \"#utility.yul\":6260:6263   */\n          0x00\n            /* \"#utility.yul\":6215:6288   */\n          swap1\n          jump\t// out\n            /* \"#utility.yul\":6294:6483   */\n        tag_44:\n            /* \"#utility.yul\":6371:6403   */\n          tag_126\n          tag_43\n          jump\t// in\n        tag_126:\n            /* \"#utility.yul\":6412:6477   */\n          tag_127\n            /* \"#utility.yul\":6470:6476   */\n          dup2\n            /* \"#utility.yul\":6462:6468   */\n          dup5\n            /* \"#utility.yul\":6456:6460   */\n          dup5\n            /* \"#utility.yul\":6412:6477   */\n          tag_42\n          jump\t// in\n        tag_127:\n            /* \"#utility.yul\":6347:6483   */\n          pop\n            /* \"#utility.yul\":6294:6483   */\n          pop\n          pop\n          jump\t// out\n            /* \"#utility.yul\":6489:6675   */\n        tag_45:\n            /* \"#utility.yul\":6549:6669   */\n        tag_129:\n            /* \"#utility.yul\":6566:6569   */\n          dup2\n            /* \"#utility.yul\":6559:6564   */\n          dup2\n            /* \"#utility.yul\":6556:6570   */\n          lt\n            /* \"#utility.yul\":6549:6669   */\n          iszero\n          tag_131\n          jumpi\n            /* \"#utility.yul\":6620:6659   */\n          tag_132\n            /* \"#utility.yul\":6657:6658   */\n          0x00\n            /* \"#utility.yul\":6650:6655   */\n          dup3\n            /* \"#utility.yul\":6620:6659   */\n          tag_44\n          jump\t// in\n        tag_132:\n            /* \"#utility.yul\":6593:6594   */\n          0x01\n            /* \"#utility.yul\":6586:6591   */\n          dup2\n            /* \"#utility.yul\":6582:6595   */\n          add\n            /* \"#utility.yul\":6573:6595   */\n          swap1\n          pop\n            /* \"#utility.yul\":6549:6669   */\n          jump(tag_129)\n        tag_131:\n            /* \"#utility.yul\":6489:6675   */\n          pop\n          pop\n          jump\t// out\n            /* \"#utility.yul\":6681:7224   */\n        tag_46:\n            /* \"#utility.yul\":6782:6784   */\n          0x1f\n            /* \"#utility.yul\":6777:6780   */\n          dup3\n            /* \"#utility.yul\":6774:6785   */\n          gt\n            /* \"#utility.yul\":6771:7217   */\n          iszero\n          tag_134\n          jumpi\n            /* \"#utility.yul\":6816:6854   */\n          tag_135\n            /* \"#utility.yul\":6848:6853   */\n          dup2\n            /* \"#utility.yul\":6816:6854   */\n          tag_34\n          jump\t// in\n        tag_135:\n            /* \"#utility.yul\":6900:6929   */\n          tag_136\n            /* \"#utility.yul\":6918:6928   */\n          dup5\n            /* \"#utility.yul\":6900:6929   */\n          tag_35\n          jump\t// in\n        tag_136:\n            /* \"#utility.yul\":6890:6898   */\n          dup2\n            /* \"#utility.yul\":6886:6930   */\n          add\n            /* \"#utility.yul\":7083:7085   */\n          0x20\n            /* \"#utility.yul\":7071:7081   */\n          dup6\n            /* \"#utility.yul\":7068:7086   */\n          lt\n            /* \"#utility.yul\":7065:7114   */\n          iszero\n          tag_137\n          jumpi\n            /* \"#utility.yul\":7104:7112   */\n          dup2\n            /* \"#utility.yul\":7089:7112   */\n          swap1\n          pop\n            /* \"#utility.yul\":7065:7114   */\n        tag_137:\n            /* \"#utility.yul\":7127:7207   */\n          tag_138\n            /* \"#utility.yul\":7183:7205   */\n          tag_139\n            /* \"#utility.yul\":7201:7204   */\n          dup6\n            /* \"#utility.yul\":7183:7205   */\n          tag_35\n          jump\t// in\n        tag_139:\n            /* \"#utility.yul\":7173:7181   */\n          dup4\n            /* \"#utility.yul\":7169:7206   */\n          add\n            /* \"#utility.yul\":7156:7167   */\n          dup3\n            /* \"#utility.yul\":7127:7207   */\n          tag_45\n          jump\t// in\n        tag_138:\n            /* \"#utility.yul\":6786:7217   */\n          pop\n          pop\n            /* \"#utility.yul\":6771:7217   */\n        tag_134:\n            /* \"#utility.yul\":6681:7224   */\n          pop\n          pop\n          pop\n          jump\t// out\n            /* \"#utility.yul\":7230:7347   */\n        tag_47:\n            /* \"#utility.yul\":7284:7292   */\n          0x00\n            /* \"#utility.yul\":7334:7339   */\n          dup3\n            /* \"#utility.yul\":7328:7332   */\n          dup3\n            /* \"#utility.yul\":7324:7340   */\n          shr\n            /* \"#utility.yul\":7303:7340   */\n          swap1\n          pop\n            /* \"#utility.yul\":7230:7347   */\n          swap3\n          swap2\n          pop\n          pop\n          jump\t// out\n            /* \"#utility.yul\":7353:7522   */\n        tag_48:\n            /* \"#utility.yul\":7397:7403   */\n          0x00\n            /* \"#utility.yul\":7430:7481   */\n          tag_142\n            /* \"#utility.yul\":7478:7479   */\n          0x00\n            /* \"#utility.yul\":7474:7480   */\n          not\n            /* \"#utility.yul\":7466:7471   */\n          dup5\n            /* \"#utility.yul\":7463:7464   */\n          0x08\n            /* \"#utility.yul\":7459:7472   */\n          mul\n            /* \"#utility.yul\":7430:7481   */\n          tag_47\n          jump\t// in\n        tag_142:\n            /* \"#utility.yul\":7426:7482   */\n          not\n            /* \"#utility.yul\":7511:7515   */\n          dup1\n            /* \"#utility.yul\":7505:7509   */\n          dup4\n            /* \"#utility.yul\":7501:7516   */\n          and\n            /* \"#utility.yul\":7491:7516   */\n          swap2\n          pop\n            /* \"#utility.yul\":7404:7522   */\n          pop\n            /* \"#utility.yul\":7353:7522   */\n          swap3\n          swap2\n          pop\n          pop\n          jump\t// out\n            /* \"#utility.yul\":7527:7822   */\n        tag_49:\n            /* \"#utility.yul\":7603:7607   */\n          0x00\n            /* \"#utility.yul\":7749:7778   */\n          tag_144\n            /* \"#utility.yul\":7774:7777   */\n          dup4\n            /* \"#utility.yul\":7768:7772   */\n          dup4\n            /* \"#utility.yul\":7749:7778   */\n          tag_48\n          jump\t// in\n        tag_144:\n            /* \"#utility.yul\":7741:7778   */\n          swap2\n          pop\n            /* \"#utility.yul\":7811:7814   */\n          dup3\n            /* \"#utility.yul\":7808:7809   */\n          0x02\n            /* \"#utility.yul\":7804:7815   */\n          mul\n            /* \"#utility.yul\":7798:7802   */\n          dup3\n            /* \"#utility.yul\":7795:7816   */\n          or\n            /* \"#utility.yul\":7787:7816   */\n          swap1\n          pop\n            /* \"#utility.yul\":7527:7822   */\n          swap3\n          swap2\n          pop\n          pop\n          jump\t// out\n            /* \"#utility.yul\":7827:9222   */\n        tag_7:\n            /* \"#utility.yul\":7944:7981   */\n          tag_146\n            /* \"#utility.yul\":7977:7980   */\n          dup3\n            /* \"#utility.yul\":7944:7981   */\n          tag_31\n          jump\t// in\n        tag_146:\n            /* \"#utility.yul\":8046:8064   */\n          0xffffffffffffffff\n            /* \"#utility.yul\":8038:8044   */\n          dup2\n            /* \"#utility.yul\":8035:8065   */\n          gt\n            /* \"#utility.yul\":8032:8088   */\n          iszero\n          tag_147\n          jumpi\n            /* \"#utility.yul\":8068:8086   */\n          tag_148\n          tag_24\n          jump\t// in\n        tag_148:\n            /* \"#utility.yul\":8032:8088   */\n        tag_147:\n            /* \"#utility.yul\":8112:8150   */\n          tag_149\n            /* \"#utility.yul\":8144:8148   */\n          dup3\n            /* \"#utility.yul\":8138:8149   */\n          sload\n            /* \"#utility.yul\":8112:8150   */\n          tag_33\n          jump\t// in\n        tag_149:\n            /* \"#utility.yul\":8197:8264   */\n          tag_150\n            /* \"#utility.yul\":8257:8263   */\n          dup3\n            /* \"#utility.yul\":8249:8255   */\n          dup3\n            /* \"#utility.yul\":8243:8247   */\n          dup6\n            /* \"#utility.yul\":8197:8264   */\n          tag_46\n          jump\t// in\n        tag_150:\n            /* \"#utility.yul\":8291:8292   */\n          0x00\n            /* \"#utility.yul\":8315:8319   */\n          0x20\n            /* \"#utility.yul\":8302:8319   */\n          swap1\n          pop\n            /* \"#utility.yul\":8347:8349   */\n          0x1f\n            /* \"#utility.yul\":8339:8345   */\n          dup4\n            /* \"#utility.yul\":8336:8350   */\n          gt\n            /* \"#utility.yul\":8364:8365   */\n          0x01\n            /* \"#utility.yul\":8359:8977   */\n          dup2\n          eq\n          tag_152\n          jumpi\n            /* \"#utility.yul\":9021:9022   */\n          0x00\n            /* \"#utility.yul\":9038:9044   */\n          dup5\n            /* \"#utility.yul\":9035:9112   */\n          iszero\n          tag_153\n          jumpi\n            /* \"#utility.yul\":9087:9096   */\n          dup3\n            /* \"#utility.yul\":9082:9085   */\n          dup8\n            /* \"#utility.yul\":9078:9097   */\n          add\n            /* \"#utility.yul\":9072:9098   */\n          mload\n            /* \"#utility.yul\":9063:9098   */\n          swap1\n          pop\n            /* \"#utility.yul\":9035:9112   */\n        tag_153:\n            /* \"#utility.yul\":9138:9205   */\n          tag_154\n            /* \"#utility.yul\":9198:9204   */\n          dup6\n            /* \"#utility.yul\":9191:9196   */\n          dup3\n            /* \"#utility.yul\":9138:9205   */\n          tag_49\n          jump\t// in\n        tag_154:\n            /* \"#utility.yul\":9132:9136   */\n          dup7\n            /* \"#utility.yul\":9125:9206   */\n          sstore\n            /* \"#utility.yul\":8994:9216   */\n          pop\n            /* \"#utility.yul\":8329:9216   */\n          jump(tag_151)\n            /* \"#utility.yul\":8359:8977   */\n        tag_152:\n            /* \"#utility.yul\":8411:8415   */\n          0x1f\n            /* \"#utility.yul\":8407:8416   */\n          not\n            /* \"#utility.yul\":8399:8405   */\n          dup5\n            /* \"#utility.yul\":8395:8417   */\n          and\n            /* \"#utility.yul\":8445:8482   */\n          tag_155\n            /* \"#utility.yul\":8477:8481   */\n          dup7\n            /* \"#utility.yul\":8445:8482   */\n          tag_34\n          jump\t// in\n        tag_155:\n            /* \"#utility.yul\":8504:8505   */\n          0x00\n            /* \"#utility.yul\":8518:8726   */\n        tag_156:\n            /* \"#utility.yul\":8532:8539   */\n          dup3\n            /* \"#utility.yul\":8529:8530   */\n          dup2\n            /* \"#utility.yul\":8526:8540   */\n          lt\n            /* \"#utility.yul\":8518:8726   */\n          iszero\n          tag_158\n          jumpi\n            /* \"#utility.yul\":8611:8620   */\n          dup5\n            /* \"#utility.yul\":8606:8609   */\n          dup10\n            /* \"#utility.yul\":8602:8621   */\n          add\n            /* \"#utility.yul\":8596:8622   */\n          mload\n            /* \"#utility.yul\":8588:8594   */\n          dup3\n            /* \"#utility.yul\":8581:8623   */\n          sstore\n            /* \"#utility.yul\":8662:8663   */\n          0x01\n            /* \"#utility.yul\":8654:8660   */\n          dup3\n            /* \"#utility.yul\":8650:8664   */\n          add\n            /* \"#utility.yul\":8640:8664   */\n          swap2\n          pop\n            /* \"#utility.yul\":8709:8711   */\n          0x20\n            /* \"#utility.yul\":8698:8707   */\n          dup6\n            /* \"#utility.yul\":8694:8712   */\n          add\n            /* \"#utility.yul\":8681:8712   */\n          swap5\n          pop\n            /* \"#utility.yul\":8555:8559   */\n          0x20\n            /* \"#utility.yul\":8552:8553   */\n          dup2\n            /* \"#utility.yul\":8548:8560   */\n          add\n            /* \"#utility.yul\":8543:8560   */\n          swap1\n          pop\n            /* \"#utility.yul\":8518:8726   */\n          jump(tag_156)\n        tag_158:\n            /* \"#utility.yul\":8754:8760   */\n          dup7\n            /* \"#utility.yul\":8745:8752   */\n          dup4\n            /* \"#utility.yul\":8742:8761   */\n          lt\n            /* \"#utility.yul\":8739:8918   */\n          iszero\n          tag_159\n          jumpi\n            /* \"#utility.yul\":8812:8821   */\n          dup5\n            /* \"#utility.yul\":8807:8810   */\n          dup10\n            /* \"#utility.yul\":8803:8822   */\n          add\n            /* \"#utility.yul\":8797:8823   */\n          mload\n            /* \"#utility.yul\":8855:8903   */\n          tag_160\n            /* \"#utility.yul\":8897:8901   */\n          0x1f\n            /* \"#utility.yul\":8889:8895   */\n          dup10\n            /* \"#utility.yul\":8885:8902   */\n          and\n            /* \"#utility.yul\":8874:8883   */\n          dup3\n            /* \"#utility.yul\":8855:8903   */\n          tag_48\n          jump\t// in\n        tag_160:\n            /* \"#utility.yul\":8847:8853   */\n          dup4\n            /* \"#utility.yul\":8840:8904   */\n          sstore\n            /* \"#utility.yul\":8762:8918   */\n          pop\n            /* \"#utility.yul\":8739:8918   */\n        tag_159:\n            /* \"#utility.yul\":8964:8965   */\n          0x01\n            /* \"#utility.yul\":8960:8961   */\n          0x02\n            /* \"#utility.yul\":8952:8958   */\n          dup9\n            /* \"#utility.yul\":8948:8962   */\n          mul\n            /* \"#utility.yul\":8944:8966   */\n          add\n            /* \"#utility.yul\":8938:8942   */\n          dup9\n            /* \"#utility.yul\":8931:8967   */\n          sstore\n            /* \"#utility.yul\":8366:8977   */\n          pop\n          pop\n          pop\n            /* \"#utility.yul\":8329:9216   */\n        tag_151:\n          pop\n            /* \"#utility.yul\":7919:9222   */\n          pop\n          pop\n          pop\n            /* \"#utility.yul\":7827:9222   */\n          pop\n          pop\n          jump\t// out\n            /* \"#utility.yul\":9228:9408   */\n        tag_10:\n            /* \"#utility.yul\":9276:9353   */\n          0x4e487b7100000000000000000000000000000000000000000000000000000000\n            /* \"#utility.yul\":9273:9274   */\n          0x00\n            /* \"#utility.yul\":9266:9354   */\n          mstore\n            /* \"#utility.yul\":9373:9377   */\n          0x21\n            /* \"#utility.yul\":9370:9371   */\n          0x04\n            /* \"#utility.yul\":9363:9378   */\n          mstore\n            /* \"#utility.yul\":9397:9401   */\n          0x24\n            /* \"#utility.yul\":9394:9395   */\n          0x00\n            /* \"#utility.yul\":9387:9402   */\n          revert\n            /* \"#utility.yul\":9414:9594   */\n        tag_50:\n            /* \"#utility.yul\":9462:9539   */\n          0x4e487b7100000000000000000000000000000000000000000000000000000000\n            /* \"#utility.yul\":9459:9460   */\n          0x00\n            /* \"#utility.yul\":9452:9540   */\n          mstore\n            /* \"#utility.yul\":9559:9563   */\n          0x11\n            /* \"#utility.yul\":9556:9557   */\n          0x04\n            /* \"#utility.yul\":9549:9564   */\n          mstore\n            /* \"#utility.yul\":9583:9587   */\n          0x24\n            /* \"#utility.yul\":9580:9581   */\n          0x00\n            /* \"#utility.yul\":9573:9588   */\n          revert\n            /* \"#utility.yul\":9600:9791   */\n        tag_12:\n            /* \"#utility.yul\":9640:9643   */\n          0x00\n            /* \"#utility.yul\":9659:9679   */\n          tag_164\n            /* \"#utility.yul\":9677:9678   */\n          dup3\n            /* \"#utility.yul\":9659:9679   */\n          tag_38\n          jump\t// in\n        tag_164:\n            /* \"#utility.yul\":9654:9679   */\n          swap2\n          pop\n            /* \"#utility.yul\":9693:9713   */\n          tag_165\n            /* \"#utility.yul\":9711:9712   */\n          dup4\n            /* \"#utility.yul\":9693:9713   */\n          tag_38\n          jump\t// in\n        tag_165:\n            /* \"#utility.yul\":9688:9713   */\n          swap3\n          pop\n            /* \"#utility.yul\":9736:9737   */\n          dup3\n            /* \"#utility.yul\":9733:9734   */\n          dup3\n            /* \"#utility.yul\":9729:9738   */\n          add\n            /* \"#utility.yul\":9722:9738   */\n          swap1\n          pop\n            /* \"#utility.yul\":9757:9760   */\n          dup1\n            /* \"#utility.yul\":9754:9755   */\n          dup3\n            /* \"#utility.yul\":9751:9761   */\n          gt\n            /* \"#utility.yul\":9748:9784   */\n          iszero\n          tag_166\n          jumpi\n            /* \"#utility.yul\":9764:9782   */\n          tag_167\n          tag_50\n          jump\t// in\n        tag_167:\n            /* \"#utility.yul\":9748:9784   */\n        tag_166:\n            /* \"#utility.yul\":9600:9791   */\n          swap3\n          swap2\n          pop\n          pop\n          jump\t// out\n            /* \"Proposal.sol\":160:5871  contract Proposal {... */\n        tag_13:\n          mload(0x80)\n          mload(0xa0)\n          mload(0xc0)\n          codecopy(0x00, dataOffset(sub_0), dataSize(sub_0))\n          0x00\n          assignImmutable(\"0xa1cc42789a1ab2a6460061541324a26bebdb692b477d17f8ab27f76b6e376d08\")\n          0x00\n          assignImmutable(\"0x135d24c3045eb2fc378507486529b206ce031bd4e306ff07b2abc1c06a63b749\")\n          0x00\n          assignImmutable(\"0xdfd5b67accb2b5378e5d1ab05aca948173df65480c2f498125aa6b2e89895207\")\n          return(0x00, dataSize(sub_0))\n        stop\n\n        sub_0: assembly {\n                /* \"Proposal.sol\":160:5871  contract Proposal {... */\n              mstore(0x40, 0x80)\n              jumpi(tag_1, lt(calldatasize, 0x04))\n              shr(0xe0, calldataload(0x00))\n              dup1\n              0x6eaef9a9\n              gt\n              tag_25\n              jumpi\n              dup1\n              0xb81c78ec\n              gt\n              tag_26\n              jumpi\n              dup1\n              0xb81c78ec\n              eq\n              tag_19\n              jumpi\n              dup1\n              0xb81ccbf8\n              eq\n              tag_20\n              jumpi\n              dup1\n              0xbe58196b\n              eq\n              tag_21\n              jumpi\n              dup1\n              0xc7b96dba\n              eq\n              tag_22\n              jumpi\n              dup1\n              0xcff29dfd\n              eq\n              tag_23\n              jumpi\n              dup1\n              0xd7bb99ba\n              eq\n              tag_24\n              jumpi\n              jump(tag_1)\n            tag_26:\n              dup1\n              0x6eaef9a9\n              eq\n              tag_13\n              jumpi\n              dup1\n              0x85758c27\n              eq\n              tag_14\n              jumpi\n              dup1\n              0x8890ed09\n              eq\n              tag_15\n              jumpi\n              dup1\n              0x8af9fe3f\n              eq\n              tag_16\n              jumpi\n              dup1\n              0xb69ef8a8\n              eq\n              tag_17\n              jumpi\n              dup1\n              0xb6abba9c\n              eq\n              tag_18\n              jumpi\n              jump(tag_1)\n            tag_25:\n              dup1\n              0x3dada5e1\n              gt\n              tag_27\n              jumpi\n              dup1\n              0x3dada5e1\n              eq\n              tag_7\n              jumpi\n              dup1\n              0x40eedabb\n              eq\n              tag_8\n              jumpi\n              dup1\n              0x4b21bac7\n              eq\n              tag_9\n              jumpi\n              dup1\n              0x590e1ae3\n              eq\n              tag_10\n              jumpi\n              dup1\n              0x5f38a27e\n              eq\n              tag_11\n              jumpi\n              dup1\n              0x6a3aa8e3\n              eq\n              tag_12\n              jumpi\n              jump(tag_1)\n            tag_27:\n              dup1\n              0x12dcffe5\n              eq\n              tag_2\n              jumpi\n              dup1\n              0x1d0d35f5\n              eq\n              tag_3\n              jumpi\n              dup1\n              0x1f741c7a\n              eq\n              tag_4\n              jumpi\n              dup1\n              0x20c414bf\n              eq\n              tag_5\n              jumpi\n              dup1\n              0x222268be\n              eq\n              tag_6\n              jumpi\n            tag_1:\n              0x00\n              dup1\n              revert\n                /* \"Proposal.sol\":3851:3956  function getVotesForBid(address id) public view returns (uint256) {... */\n            tag_2:\n              callvalue\n              dup1\n              iszero\n              tag_28\n              jumpi\n              0x00\n              dup1\n              revert\n            tag_28:\n              pop\n              tag_29\n              0x04\n              dup1\n              calldatasize\n              sub\n              dup2\n              add\n              swap1\n              tag_30\n              swap2\n              swap1\n              tag_31\n              jump\t// in\n            tag_30:\n              tag_32\n              jump\t// in\n            tag_29:\n              mload(0x40)\n              tag_33\n              swap2\n              swap1\n              tag_34\n              jump\t// in\n            tag_33:\n              mload(0x40)\n              dup1\n              swap2\n              sub\n              swap1\n              return\n                /* \"Proposal.sol\":2142:2252  function isContributor(address id) public view returns (bool) {... */\n            tag_3:\n              callvalue\n              dup1\n              iszero\n              tag_35\n              jumpi\n              0x00\n              dup1\n              revert\n            tag_35:\n              pop\n              tag_36\n              0x04\n              dup1\n              calldatasize\n              sub\n              dup2\n              add\n              swap1\n              tag_37\n              swap2\n              swap1\n              tag_31\n              jump\t// in\n            tag_37:\n              tag_38\n              jump\t// in\n            tag_36:\n              mload(0x40)\n              tag_39\n              swap2\n              swap1\n              tag_40\n              jump\t// in\n            tag_39:\n              mload(0x40)\n              dup1\n              swap2\n              sub\n              swap1\n              return\n                /* \"Proposal.sol\":913:939  uint256 public dateCreated */\n            tag_4:\n              callvalue\n              dup1\n              iszero\n              tag_41\n              jumpi\n              0x00\n              dup1\n              revert\n            tag_41:\n              pop\n              tag_42\n              tag_43\n              jump\t// in\n            tag_42:\n              mload(0x40)\n              tag_44\n              swap2\n              swap1\n              tag_34\n              jump\t// in\n            tag_44:\n              mload(0x40)\n              dup1\n              swap2\n              sub\n              swap1\n              return\n                /* \"Proposal.sol\":1069:1105  bool public leaderIsEligible = false */\n            tag_5:\n              callvalue\n              dup1\n              iszero\n              tag_45\n              jumpi\n              0x00\n              dup1\n              revert\n            tag_45:\n              pop\n              tag_46\n              tag_47\n              jump\t// in\n            tag_46:\n              mload(0x40)\n              tag_48\n              swap2\n              swap1\n              tag_40\n              jump\t// in\n            tag_48:\n              mload(0x40)\n              dup1\n              swap2\n              sub\n              swap1\n              return\n                /* \"Proposal.sol\":5198:5451  function haltCampaign() public {... */\n            tag_6:\n              callvalue\n              dup1\n              iszero\n              tag_49\n              jumpi\n              0x00\n              dup1\n              revert\n            tag_49:\n              pop\n              tag_50\n              tag_51\n              jump\t// in\n            tag_50:\n              stop\n                /* \"Proposal.sol\":2967:3127  function getBidDescription(address bidder)... */\n            tag_7:\n              callvalue\n              dup1\n              iszero\n              tag_52\n              jumpi\n              0x00\n              dup1\n              revert\n            tag_52:\n              pop\n              tag_53\n              0x04\n              dup1\n              calldatasize\n              sub\n              dup2\n              add\n              swap1\n              tag_54\n              swap2\n              swap1\n              tag_31\n              jump\t// in\n            tag_54:\n              tag_55\n              jump\t// in\n            tag_53:\n              mload(0x40)\n              tag_56\n              swap2\n              swap1\n              tag_57\n              jump\t// in\n            tag_56:\n              mload(0x40)\n              dup1\n              swap2\n              sub\n              swap1\n              return\n                /* \"Proposal.sol\":1176:1197  address public leader */\n            tag_8:\n              callvalue\n              dup1\n              iszero\n              tag_58\n              jumpi\n              0x00\n              dup1\n              revert\n            tag_58:\n              pop\n              tag_59\n              tag_60\n              jump\t// in\n            tag_59:\n              mload(0x40)\n              tag_61\n              swap2\n              swap1\n              tag_62\n              jump\t// in\n            tag_61:\n              mload(0x40)\n              dup1\n              swap2\n              sub\n              swap1\n              return\n                /* \"Proposal.sol\":684:716  string public initialDescription */\n            tag_9:\n              callvalue\n              dup1\n              iszero\n              tag_63\n              jumpi\n              0x00\n              dup1\n              revert\n            tag_63:\n              pop\n              tag_64\n              tag_65\n              jump\t// in\n            tag_64:\n              mload(0x40)\n              tag_66\n              swap2\n              swap1\n              tag_57\n              jump\t// in\n            tag_66:\n              mload(0x40)\n              dup1\n              swap2\n              sub\n              swap1\n              return\n                /* \"Proposal.sol\":5459:5868  function refund() public payable {... */\n            tag_10:\n              tag_67\n              tag_68\n              jump\t// in\n            tag_67:\n              stop\n                /* \"Proposal.sol\":1024:1060  uint32 public voteCountThreshold = 3 */\n            tag_11:\n              callvalue\n              dup1\n              iszero\n              tag_69\n              jumpi\n              0x00\n              dup1\n              revert\n            tag_69:\n              pop\n              tag_70\n              tag_71\n              jump\t// in\n            tag_70:\n              mload(0x40)\n              tag_72\n              swap2\n              swap1\n              tag_73\n              jump\t// in\n            tag_72:\n              mload(0x40)\n              dup1\n              swap2\n              sub\n              swap1\n              return\n                /* \"Proposal.sol\":4956:5190  function withdrawalFunds() public payable {... */\n            tag_12:\n              tag_74\n              tag_75\n              jump\t// in\n            tag_74:\n              stop\n                /* \"Proposal.sol\":3135:3843  function voteOnBid(address payable id) public {... */\n            tag_13:\n              callvalue\n              dup1\n              iszero\n              tag_76\n              jumpi\n              0x00\n              dup1\n              revert\n            tag_76:\n              pop\n              tag_77\n              0x04\n              dup1\n              calldatasize\n              sub\n              dup2\n              add\n              swap1\n              tag_78\n              swap2\n              swap1\n              tag_79\n              jump\t// in\n            tag_78:\n              tag_80\n              jump\t// in\n            tag_77:\n              stop\n                /* \"Proposal.sol\":3964:4071  function getAmountForBid(address id) public view returns (uint256) {... */\n            tag_14:\n              callvalue\n              dup1\n              iszero\n              tag_81\n              jumpi\n              0x00\n              dup1\n              revert\n            tag_81:\n              pop\n              tag_82\n              0x04\n              dup1\n              calldatasize\n              sub\n              dup2\n              add\n              swap1\n              tag_83\n              swap2\n              swap1\n              tag_31\n              jump\t// in\n            tag_83:\n              tag_84\n              jump\t// in\n            tag_82:\n              mload(0x40)\n              tag_85\n              swap2\n              swap1\n              tag_34\n              jump\t// in\n            tag_85:\n              mload(0x40)\n              dup1\n              swap2\n              sub\n              swap1\n              return\n                /* \"Proposal.sol\":1204:1232  address public winningBidder */\n            tag_15:\n              callvalue\n              dup1\n              iszero\n              tag_86\n              jumpi\n              0x00\n              dup1\n              revert\n            tag_86:\n              pop\n              tag_87\n              tag_88\n              jump\t// in\n            tag_87:\n              mload(0x40)\n              tag_89\n              swap2\n              swap1\n              tag_62\n              jump\t// in\n            tag_89:\n              mload(0x40)\n              dup1\n              swap2\n              sub\n              swap1\n              return\n                /* \"Proposal.sol\":725:759  ProposalState public proposalState */\n            tag_16:\n              callvalue\n              dup1\n              iszero\n              tag_90\n              jumpi\n              0x00\n              dup1\n              revert\n            tag_90:\n              pop\n              tag_91\n              tag_92\n              jump\t// in\n            tag_91:\n              mload(0x40)\n              tag_93\n              swap2\n              swap1\n              tag_94\n              jump\t// in\n            tag_93:\n              mload(0x40)\n              dup1\n              swap2\n              sub\n              swap1\n              return\n                /* \"Proposal.sol\":543:565  uint256 public balance */\n            tag_17:\n              callvalue\n              dup1\n              iszero\n              tag_95\n              jumpi\n              0x00\n              dup1\n              revert\n            tag_95:\n              pop\n              tag_96\n              tag_97\n              jump\t// in\n            tag_96:\n              mload(0x40)\n              tag_98\n              swap2\n              swap1\n              tag_34\n              jump\t// in\n            tag_98:\n              mload(0x40)\n              dup1\n              swap2\n              sub\n              swap1\n              return\n                /* \"Proposal.sol\":946:981  uint32 public voteBufferSeconds = 0 */\n            tag_18:\n              callvalue\n              dup1\n              iszero\n              tag_99\n              jumpi\n              0x00\n              dup1\n              revert\n            tag_99:\n              pop\n              tag_100\n              tag_101\n              jump\t// in\n            tag_100:\n              mload(0x40)\n              tag_102\n              swap2\n              swap1\n              tag_73\n              jump\t// in\n            tag_102:\n              mload(0x40)\n              dup1\n              swap2\n              sub\n              swap1\n              return\n                /* \"Proposal.sol\":2868:2959  function getBids() public view returns (address[] memory) {... */\n            tag_19:\n              callvalue\n              dup1\n              iszero\n              tag_103\n              jumpi\n              0x00\n              dup1\n              revert\n            tag_103:\n              pop\n              tag_104\n              tag_105\n              jump\t// in\n            tag_104:\n              mload(0x40)\n              tag_106\n              swap2\n              swap1\n              tag_107\n              jump\t// in\n            tag_106:\n              mload(0x40)\n              dup1\n              swap2\n              sub\n              swap1\n              return\n                /* \"Proposal.sol\":988:1017  uint256 public voteBufferDate */\n            tag_20:\n              callvalue\n              dup1\n              iszero\n              tag_108\n              jumpi\n              0x00\n              dup1\n              revert\n            tag_108:\n              pop\n              tag_109\n              tag_110\n              jump\t// in\n            tag_109:\n              mload(0x40)\n              tag_111\n              swap2\n              swap1\n              tag_34\n              jump\t// in\n            tag_111:\n              mload(0x40)\n              dup1\n              swap2\n              sub\n              swap1\n              return\n                /* \"Proposal.sol\":2260:2860  function submitBid(string memory descriptionSet, uint256 amountNeeded)... */\n            tag_21:\n              callvalue\n              dup1\n              iszero\n              tag_112\n              jumpi\n              0x00\n              dup1\n              revert\n            tag_112:\n              pop\n              tag_113\n              0x04\n              dup1\n              calldatasize\n              sub\n              dup2\n              add\n              swap1\n              tag_114\n              swap2\n              swap1\n              tag_115\n              jump\t// in\n            tag_114:\n              tag_116\n              jump\t// in\n            tag_113:\n              stop\n                /* \"Proposal.sol\":4079:4948  function createProject() public {... */\n            tag_22:\n              callvalue\n              dup1\n              iszero\n              tag_117\n              jumpi\n              0x00\n              dup1\n              revert\n            tag_117:\n              pop\n              tag_118\n              tag_119\n              jump\t// in\n            tag_118:\n              stop\n                /* \"Proposal.sol\":1145:1169  address[] public bidders */\n            tag_23:\n              callvalue\n              dup1\n              iszero\n              tag_120\n              jumpi\n              0x00\n              dup1\n              revert\n            tag_120:\n              pop\n              tag_121\n              0x04\n              dup1\n              calldatasize\n              sub\n              dup2\n              add\n              swap1\n              tag_122\n              swap2\n              swap1\n              tag_123\n              jump\t// in\n            tag_122:\n              tag_124\n              jump\t// in\n            tag_121:\n              mload(0x40)\n              tag_125\n              swap2\n              swap1\n              tag_62\n              jump\t// in\n            tag_125:\n              mload(0x40)\n              dup1\n              swap2\n              sub\n              swap1\n              return\n                /* \"Proposal.sol\":1783:2134  function contribute() public payable {... */\n            tag_24:\n              tag_126\n              tag_127\n              jump\t// in\n            tag_126:\n              stop\n                /* \"Proposal.sol\":3851:3956  function getVotesForBid(address id) public view returns (uint256) {... */\n            tag_32:\n                /* \"Proposal.sol\":3908:3915  uint256 */\n              0x00\n                /* \"Proposal.sol\":3935:3944  voteCount */\n              0x0d\n                /* \"Proposal.sol\":3935:3948  voteCount[id] */\n              0x00\n                /* \"Proposal.sol\":3945:3947  id */\n              dup4\n                /* \"Proposal.sol\":3935:3948  voteCount[id] */\n              0xffffffffffffffffffffffffffffffffffffffff\n              and\n              0xffffffffffffffffffffffffffffffffffffffff\n              and\n              dup2\n              mstore\n              0x20\n              add\n              swap1\n              dup2\n              mstore\n              0x20\n              add\n              0x00\n              keccak256\n              sload\n                /* \"Proposal.sol\":3928:3948  return voteCount[id] */\n              swap1\n              pop\n                /* \"Proposal.sol\":3851:3956  function getVotesForBid(address id) public view returns (uint256) {... */\n              swap2\n              swap1\n              pop\n              jump\t// out\n                /* \"Proposal.sol\":2142:2252  function isContributor(address id) public view returns (bool) {... */\n            tag_38:\n                /* \"Proposal.sol\":2198:2202  bool */\n              0x00\n                /* \"Proposal.sol\":2242:2243  0 */\n              dup1\n                /* \"Proposal.sol\":2223:2235  contributors */\n              0x03\n                /* \"Proposal.sol\":2223:2239  contributors[id] */\n              0x00\n                /* \"Proposal.sol\":2236:2238  id */\n              dup5\n                /* \"Proposal.sol\":2223:2239  contributors[id] */\n              0xffffffffffffffffffffffffffffffffffffffff\n              and\n              0xffffffffffffffffffffffffffffffffffffffff\n              and\n              dup2\n              mstore\n              0x20\n              add\n              swap1\n              dup2\n              mstore\n              0x20\n              add\n              0x00\n              keccak256\n              sload\n                /* \"Proposal.sol\":2223:2243  contributors[id] > 0 */\n              gt\n                /* \"Proposal.sol\":2215:2244  return (contributors[id] > 0) */\n              swap1\n              pop\n                /* \"Proposal.sol\":2142:2252  function isContributor(address id) public view returns (bool) {... */\n              swap2\n              swap1\n              pop\n              jump\t// out\n                /* \"Proposal.sol\":913:939  uint256 public dateCreated */\n            tag_43:\n              sload(0x06)\n              dup2\n              jump\t// out\n                /* \"Proposal.sol\":1069:1105  bool public leaderIsEligible = false */\n            tag_47:\n              0x09\n              0x04\n              swap1\n              sload\n              swap1\n              0x0100\n              exp\n              swap1\n              div\n              0xff\n              and\n              dup2\n              jump\t// out\n                /* \"Proposal.sol\":5198:5451  function haltCampaign() public {... */\n            tag_51:\n                /* \"Proposal.sol\":5276:5289  winningBidder */\n              0x0c\n              0x00\n              swap1\n              sload\n              swap1\n              0x0100\n              exp\n              swap1\n              div\n              0xffffffffffffffffffffffffffffffffffffffff\n              and\n                /* \"Proposal.sol\":5262:5289  msg.sender == winningBidder */\n              0xffffffffffffffffffffffffffffffffffffffff\n              and\n                /* \"Proposal.sol\":5262:5272  msg.sender */\n              caller\n                /* \"Proposal.sol\":5262:5289  msg.sender == winningBidder */\n              0xffffffffffffffffffffffffffffffffffffffff\n              and\n              eq\n                /* \"Proposal.sol\":5262:5314  msg.sender == winningBidder || msg.sender == creator */\n              dup1\n              tag_131\n              jumpi\n              pop\n                /* \"Proposal.sol\":5307:5314  creator */\n              immutable(\"0xdfd5b67accb2b5378e5d1ab05aca948173df65480c2f498125aa6b2e89895207\")\n                /* \"Proposal.sol\":5293:5314  msg.sender == creator */\n              0xffffffffffffffffffffffffffffffffffffffff\n              and\n                /* \"Proposal.sol\":5293:5303  msg.sender */\n              caller\n                /* \"Proposal.sol\":5293:5314  msg.sender == creator */\n              0xffffffffffffffffffffffffffffffffffffffff\n              and\n              eq\n                /* \"Proposal.sol\":5262:5314  msg.sender == winningBidder || msg.sender == creator */\n            tag_131:\n                /* \"Proposal.sol\":5240:5365  require(... */\n              tag_132\n              jumpi\n              mload(0x40)\n              0x08c379a000000000000000000000000000000000000000000000000000000000\n              dup2\n              mstore\n              0x04\n              add\n              tag_133\n              swap1\n              tag_134\n              jump\t// in\n            tag_133:\n              mload(0x40)\n              dup1\n              swap2\n              sub\n              swap1\n              revert\n            tag_132:\n                /* \"Proposal.sol\":5392:5412  ProposalState.HALTED */\n              0x03\n                /* \"Proposal.sol\":5376:5389  proposalState */\n              0x02\n              0x00\n                /* \"Proposal.sol\":5376:5412  proposalState = ProposalState.HALTED */\n              0x0100\n              exp\n              dup2\n              sload\n              dup2\n              0xff\n              mul\n              not\n              and\n              swap1\n              dup4\n              0x03\n              dup2\n              gt\n              iszero\n              tag_135\n              jumpi\n              tag_136\n              tag_137\n              jump\t// in\n            tag_136:\n            tag_135:\n              mul\n              or\n              swap1\n              sstore\n              pop\n                /* \"Proposal.sol\":5428:5443  ProjectHalted() */\n              0xaa0bd7cd99bfeb112d24bcaee2e5d057407eb13494c8a5ceef53268f772c4d9b\n              mload(0x40)\n              mload(0x40)\n              dup1\n              swap2\n              sub\n              swap1\n              log1\n                /* \"Proposal.sol\":5198:5451  function haltCampaign() public {... */\n              jump\t// out\n                /* \"Proposal.sol\":2967:3127  function getBidDescription(address bidder)... */\n            tag_55:\n                /* \"Proposal.sol\":3058:3071  string memory */\n              0x60\n                /* \"Proposal.sol\":3096:3111  bidDescriptions */\n              0x04\n                /* \"Proposal.sol\":3096:3119  bidDescriptions[bidder] */\n              0x00\n                /* \"Proposal.sol\":3112:3118  bidder */\n              dup4\n                /* \"Proposal.sol\":3096:3119  bidDescriptions[bidder] */\n              0xffffffffffffffffffffffffffffffffffffffff\n              and\n              0xffffffffffffffffffffffffffffffffffffffff\n              and\n              dup2\n              mstore\n              0x20\n              add\n              swap1\n              dup2\n              mstore\n              0x20\n              add\n              0x00\n              keccak256\n                /* \"Proposal.sol\":3089:3119  return bidDescriptions[bidder] */\n              dup1\n              sload\n              tag_139\n              swap1\n              tag_140\n              jump\t// in\n            tag_139:\n              dup1\n              0x1f\n              add\n              0x20\n              dup1\n              swap2\n              div\n              mul\n              0x20\n              add\n              mload(0x40)\n              swap1\n              dup2\n              add\n              0x40\n              mstore\n              dup1\n              swap3\n              swap2\n              swap1\n              dup2\n              dup2\n              mstore\n              0x20\n              add\n              dup3\n              dup1\n              sload\n              tag_141\n              swap1\n              tag_140\n              jump\t// in\n            tag_141:\n              dup1\n              iszero\n              tag_142\n              jumpi\n              dup1\n              0x1f\n              lt\n              tag_143\n              jumpi\n              0x0100\n              dup1\n              dup4\n              sload\n              div\n              mul\n              dup4\n              mstore\n              swap2\n              0x20\n              add\n              swap2\n              jump(tag_142)\n            tag_143:\n              dup3\n              add\n              swap2\n              swap1\n              0x00\n              mstore\n              keccak256(0x00, 0x20)\n              swap1\n            tag_144:\n              dup2\n              sload\n              dup2\n              mstore\n              swap1\n              0x01\n              add\n              swap1\n              0x20\n              add\n              dup1\n              dup4\n              gt\n              tag_144\n              jumpi\n              dup3\n              swap1\n              sub\n              0x1f\n              and\n              dup3\n              add\n              swap2\n            tag_142:\n              pop\n              pop\n              pop\n              pop\n              pop\n              swap1\n              pop\n                /* \"Proposal.sol\":2967:3127  function getBidDescription(address bidder)... */\n              swap2\n              swap1\n              pop\n              jump\t// out\n                /* \"Proposal.sol\":1176:1197  address public leader */\n            tag_60:\n              0x0b\n              0x00\n              swap1\n              sload\n              swap1\n              0x0100\n              exp\n              swap1\n              div\n              0xffffffffffffffffffffffffffffffffffffffff\n              and\n              dup2\n              jump\t// out\n                /* \"Proposal.sol\":684:716  string public initialDescription */\n            tag_65:\n              0x01\n              dup1\n              sload\n              tag_145\n              swap1\n              tag_140\n              jump\t// in\n            tag_145:\n              dup1\n              0x1f\n              add\n              0x20\n              dup1\n              swap2\n              div\n              mul\n              0x20\n              add\n              mload(0x40)\n              swap1\n              dup2\n              add\n              0x40\n              mstore\n              dup1\n              swap3\n              swap2\n              swap1\n              dup2\n              dup2\n              mstore\n              0x20\n              add\n              dup3\n              dup1\n              sload\n              tag_146\n              swap1\n              tag_140\n              jump\t// in\n            tag_146:\n              dup1\n              iszero\n              tag_147\n              jumpi\n              dup1\n              0x1f\n              lt\n              tag_148\n              jumpi\n              0x0100\n              dup1\n              dup4\n              sload\n              div\n              mul\n              dup4\n              mstore\n              swap2\n              0x20\n              add\n              swap2\n              jump(tag_147)\n            tag_148:\n              dup3\n              add\n              swap2\n              swap1\n              0x00\n              mstore\n              keccak256(0x00, 0x20)\n              swap1\n            tag_149:\n              dup2\n              sload\n              dup2\n              mstore\n              swap1\n              0x01\n              add\n              swap1\n              0x20\n              add\n              dup1\n              dup4\n              gt\n              tag_149\n              jumpi\n              dup3\n              swap1\n              sub\n              0x1f\n              and\n              dup3\n              add\n              swap2\n            tag_147:\n              pop\n              pop\n              pop\n              pop\n              pop\n              dup2\n              jump\t// out\n                /* \"Proposal.sol\":5459:5868  function refund() public payable {... */\n            tag_68:\n                /* \"Proposal.sol\":5542:5564  ProposalState.APPROVED */\n              0x02\n                /* \"Proposal.sol\":5525:5564  proposalState != ProposalState.APPROVED */\n              0x03\n              dup2\n              gt\n              iszero\n              tag_151\n              jumpi\n              tag_152\n              tag_137\n              jump\t// in\n            tag_152:\n            tag_151:\n                /* \"Proposal.sol\":5525:5538  proposalState */\n              0x02\n              0x00\n              swap1\n              sload\n              swap1\n              0x0100\n              exp\n              swap1\n              div\n              0xff\n              and\n                /* \"Proposal.sol\":5525:5564  proposalState != ProposalState.APPROVED */\n              0x03\n              dup2\n              gt\n              iszero\n              tag_153\n              jumpi\n              tag_154\n              tag_137\n              jump\t// in\n            tag_154:\n            tag_153:\n              sub\n                /* \"Proposal.sol\":5503:5612  require(... */\n              tag_155\n              jumpi\n              mload(0x40)\n              0x08c379a000000000000000000000000000000000000000000000000000000000\n              dup2\n              mstore\n              0x04\n              add\n              tag_156\n              swap1\n              tag_157\n              jump\t// in\n            tag_156:\n              mload(0x40)\n              dup1\n              swap2\n              sub\n              swap1\n              revert\n            tag_155:\n                /* \"Proposal.sol\":5623:5641  uint256 gweiAmount */\n              0x00\n                /* \"Proposal.sol\":5644:5656  contributors */\n              0x03\n                /* \"Proposal.sol\":5644:5668  contributors[msg.sender] */\n              0x00\n                /* \"Proposal.sol\":5657:5667  msg.sender */\n              caller\n                /* \"Proposal.sol\":5644:5668  contributors[msg.sender] */\n              0xffffffffffffffffffffffffffffffffffffffff\n              and\n              0xffffffffffffffffffffffffffffffffffffffff\n              and\n              dup2\n              mstore\n              0x20\n              add\n              swap1\n              dup2\n              mstore\n              0x20\n              add\n              0x00\n              keccak256\n              sload\n                /* \"Proposal.sol\":5623:5668  uint256 gweiAmount = contributors[msg.sender] */\n              swap1\n              pop\n                /* \"Proposal.sol\":5700:5701  0 */\n              0x00\n                /* \"Proposal.sol\":5687:5697  gweiAmount */\n              dup2\n                /* \"Proposal.sol\":5687:5701  gweiAmount > 0 */\n              gt\n                /* \"Proposal.sol\":5679:5730  require(gweiAmount > 0, \"inalid amount for refund\") */\n              tag_158\n              jumpi\n              mload(0x40)\n              0x08c379a000000000000000000000000000000000000000000000000000000000\n              dup2\n              mstore\n              0x04\n              add\n              tag_159\n              swap1\n              tag_160\n              jump\t// in\n            tag_159:\n              mload(0x40)\n              dup1\n              swap2\n              sub\n              swap1\n              revert\n            tag_158:\n                /* \"Proposal.sol\":5749:5759  msg.sender */\n              caller\n                /* \"Proposal.sol\":5741:5769  payable(msg.sender).transfer */\n              0xffffffffffffffffffffffffffffffffffffffff\n              and\n                /* \"Proposal.sol\":5741:5781  payable(msg.sender).transfer(gweiAmount) */\n              0x08fc\n                /* \"Proposal.sol\":5770:5780  gweiAmount */\n              dup3\n                /* \"Proposal.sol\":5741:5781  payable(msg.sender).transfer(gweiAmount) */\n              swap1\n              dup2\n              iszero\n              mul\n              swap1\n              mload(0x40)\n              0x00\n              mload(0x40)\n              dup1\n              dup4\n              sub\n              dup2\n              dup6\n              dup9\n              dup9\n              call\n              swap4\n              pop\n              pop\n              pop\n              pop\n              iszero\n              dup1\n              iszero\n              tag_162\n              jumpi\n              returndatasize\n              0x00\n              dup1\n              returndatacopy\n              revert(0x00, returndatasize)\n            tag_162:\n              pop\n                /* \"Proposal.sol\":5819:5820  0 */\n              0x00\n                /* \"Proposal.sol\":5792:5804  contributors */\n              0x03\n                /* \"Proposal.sol\":5792:5816  contributors[msg.sender] */\n              0x00\n                /* \"Proposal.sol\":5805:5815  msg.sender */\n              caller\n                /* \"Proposal.sol\":5792:5816  contributors[msg.sender] */\n              0xffffffffffffffffffffffffffffffffffffffff\n              and\n              0xffffffffffffffffffffffffffffffffffffffff\n              and\n              dup2\n              mstore\n              0x20\n              add\n              swap1\n              dup2\n              mstore\n              0x20\n              add\n              0x00\n              keccak256\n                /* \"Proposal.sol\":5792:5820  contributors[msg.sender] = 0 */\n              dup2\n              swap1\n              sstore\n              pop\n                /* \"Proposal.sol\":5836:5860  UserRefunded(msg.sender) */\n              0x64a19944946955995bb521fbf068bfd6ba64497e91e11948a97acd706bffb55f\n                /* \"Proposal.sol\":5849:5859  msg.sender */\n              caller\n                /* \"Proposal.sol\":5836:5860  UserRefunded(msg.sender) */\n              mload(0x40)\n              tag_163\n              swap2\n              swap1\n              tag_62\n              jump\t// in\n            tag_163:\n              mload(0x40)\n              dup1\n              swap2\n              sub\n              swap1\n              log1\n                /* \"Proposal.sol\":5492:5868  {... */\n              pop\n                /* \"Proposal.sol\":5459:5868  function refund() public payable {... */\n              jump\t// out\n                /* \"Proposal.sol\":1024:1060  uint32 public voteCountThreshold = 3 */\n            tag_71:\n              0x09\n              0x00\n              swap1\n              sload\n              swap1\n              0x0100\n              exp\n              swap1\n              div\n              0xffffffff\n              and\n              dup2\n              jump\t// out\n                /* \"Proposal.sol\":4956:5190  function withdrawalFunds() public payable {... */\n            tag_75:\n                /* \"Proposal.sol\":5034:5044  msg.sender */\n              caller\n                /* \"Proposal.sol\":5017:5044  winningBidder == msg.sender */\n              0xffffffffffffffffffffffffffffffffffffffff\n              and\n                /* \"Proposal.sol\":5017:5030  winningBidder */\n              0x0c\n              0x00\n              swap1\n              sload\n              swap1\n              0x0100\n              exp\n              swap1\n              div\n              0xffffffffffffffffffffffffffffffffffffffff\n              and\n                /* \"Proposal.sol\":5017:5044  winningBidder == msg.sender */\n              0xffffffffffffffffffffffffffffffffffffffff\n              and\n              eq\n                /* \"Proposal.sol\":5009:5063  require(winningBidder == msg.sender, \"address denied\") */\n              tag_165\n              jumpi\n              mload(0x40)\n              0x08c379a000000000000000000000000000000000000000000000000000000000\n              dup2\n              mstore\n              0x04\n              add\n              tag_166\n              swap1\n              tag_167\n              jump\t// in\n            tag_166:\n              mload(0x40)\n              dup1\n              swap2\n              sub\n              swap1\n              revert\n            tag_165:\n                /* \"Proposal.sol\":5075:5087  bool success */\n              0x00\n                /* \"Proposal.sol\":5093:5106  winningBidder */\n              0x0c\n              0x00\n              swap1\n              sload\n              swap1\n              0x0100\n              exp\n              swap1\n              div\n              0xffffffffffffffffffffffffffffffffffffffff\n              and\n                /* \"Proposal.sol\":5093:5111  winningBidder.call */\n              0xffffffffffffffffffffffffffffffffffffffff\n              and\n                /* \"Proposal.sol\":5119:5126  balance */\n              sload(0x00)\n                /* \"Proposal.sol\":5093:5131  winningBidder.call{value: balance}(\"\") */\n              mload(0x40)\n              tag_168\n              swap1\n              tag_169\n              jump\t// in\n            tag_168:\n              0x00\n              mload(0x40)\n              dup1\n              dup4\n              sub\n              dup2\n              dup6\n              dup8\n              gas\n              call\n              swap3\n              pop\n              pop\n              pop\n              returndatasize\n              dup1\n              0x00\n              dup2\n              eq\n              tag_172\n              jumpi\n              mload(0x40)\n              swap2\n              pop\n              and(add(returndatasize, 0x3f), not(0x1f))\n              dup3\n              add\n              0x40\n              mstore\n              returndatasize\n              dup3\n              mstore\n              returndatasize\n              0x00\n              0x20\n              dup5\n              add\n              returndatacopy\n              jump(tag_171)\n            tag_172:\n              0x60\n              swap2\n              pop\n            tag_171:\n              pop\n                /* \"Proposal.sol\":5074:5131  (bool success, ) = winningBidder.call{value: balance}(\"\") */\n              pop\n              swap1\n              pop\n                /* \"Proposal.sol\":5150:5157  success */\n              dup1\n                /* \"Proposal.sol\":5142:5182  require(success, \"Failed to send Ether\") */\n              tag_173\n              jumpi\n              mload(0x40)\n              0x08c379a000000000000000000000000000000000000000000000000000000000\n              dup2\n              mstore\n              0x04\n              add\n              tag_174\n              swap1\n              tag_175\n              jump\t// in\n            tag_174:\n              mload(0x40)\n              dup1\n              swap2\n              sub\n              swap1\n              revert\n            tag_173:\n                /* \"Proposal.sol\":4998:5190  {... */\n              pop\n                /* \"Proposal.sol\":4956:5190  function withdrawalFunds() public payable {... */\n              jump\t// out\n                /* \"Proposal.sol\":3135:3843  function voteOnBid(address payable id) public {... */\n            tag_80:\n                /* \"Proposal.sol\":3201:3208  didVote */\n              0x0e\n                /* \"Proposal.sol\":3201:3220  didVote[msg.sender] */\n              0x00\n                /* \"Proposal.sol\":3209:3219  msg.sender */\n              caller\n                /* \"Proposal.sol\":3201:3220  didVote[msg.sender] */\n              0xffffffffffffffffffffffffffffffffffffffff\n              and\n              0xffffffffffffffffffffffffffffffffffffffff\n              and\n              dup2\n              mstore\n              0x20\n              add\n              swap1\n              dup2\n              mstore\n              0x20\n              add\n              0x00\n              keccak256\n              0x00\n              swap1\n              sload\n              swap1\n              0x0100\n              exp\n              swap1\n              div\n              0xff\n              and\n                /* \"Proposal.sol\":3200:3220  !didVote[msg.sender] */\n              iszero\n                /* \"Proposal.sol\":3192:3238  require(!didVote[msg.sender], \"Already voted\") */\n              tag_177\n              jumpi\n              mload(0x40)\n              0x08c379a000000000000000000000000000000000000000000000000000000000\n              dup2\n              mstore\n              0x04\n              add\n              tag_178\n              swap1\n              tag_179\n              jump\t// in\n            tag_178:\n              mload(0x40)\n              dup1\n              swap2\n              sub\n              swap1\n              revert\n            tag_177:\n                /* \"Proposal.sol\":3288:3309  ProposalState.BIDDING */\n              0x00\n                /* \"Proposal.sol\":3271:3309  proposalState == ProposalState.BIDDING */\n              0x03\n              dup2\n              gt\n              iszero\n              tag_180\n              jumpi\n              tag_181\n              tag_137\n              jump\t// in\n            tag_181:\n            tag_180:\n                /* \"Proposal.sol\":3271:3284  proposalState */\n              0x02\n              0x00\n              swap1\n              sload\n              swap1\n              0x0100\n              exp\n              swap1\n              div\n              0xff\n              and\n                /* \"Proposal.sol\":3271:3309  proposalState == ProposalState.BIDDING */\n              0x03\n              dup2\n              gt\n              iszero\n              tag_182\n              jumpi\n              tag_183\n              tag_137\n              jump\t// in\n            tag_183:\n            tag_182:\n              eq\n                /* \"Proposal.sol\":3249:3369  require(... */\n              tag_184\n              jumpi\n              mload(0x40)\n              0x08c379a000000000000000000000000000000000000000000000000000000000\n              dup2\n              mstore\n              0x04\n              add\n              tag_185\n              swap1\n              tag_186\n              jump\t// in\n            tag_185:\n              mload(0x40)\n              dup1\n              swap2\n              sub\n              swap1\n              revert\n            tag_184:\n                /* \"Proposal.sol\":3405:3406  0 */\n              0x00\n                /* \"Proposal.sol\":3388:3398  bidsAmount */\n              0x05\n                /* \"Proposal.sol\":3388:3402  bidsAmount[id] */\n              0x00\n                /* \"Proposal.sol\":3399:3401  id */\n              dup4\n                /* \"Proposal.sol\":3388:3402  bidsAmount[id] */\n              0xffffffffffffffffffffffffffffffffffffffff\n              and\n              0xffffffffffffffffffffffffffffffffffffffff\n              and\n              dup2\n              mstore\n              0x20\n              add\n              swap1\n              dup2\n              mstore\n              0x20\n              add\n              0x00\n              keccak256\n              sload\n                /* \"Proposal.sol\":3388:3406  bidsAmount[id] > 0 */\n              gt\n                /* \"Proposal.sol\":3380:3442  require(bidsAmount[id] > 0, \"address did not give bid amount\") */\n              tag_187\n              jumpi\n              mload(0x40)\n              0x08c379a000000000000000000000000000000000000000000000000000000000\n              dup2\n              mstore\n              0x04\n              add\n              tag_188\n              swap1\n              tag_189\n              jump\t// in\n            tag_188:\n              mload(0x40)\n              dup1\n              swap2\n              sub\n              swap1\n              revert\n            tag_187:\n                /* \"Proposal.sol\":3470:3471  1 */\n              0x01\n                /* \"Proposal.sol\":3453:3462  voteCount */\n              0x0d\n                /* \"Proposal.sol\":3453:3466  voteCount[id] */\n              0x00\n                /* \"Proposal.sol\":3463:3465  id */\n              dup4\n                /* \"Proposal.sol\":3453:3466  voteCount[id] */\n              0xffffffffffffffffffffffffffffffffffffffff\n              and\n              0xffffffffffffffffffffffffffffffffffffffff\n              and\n              dup2\n              mstore\n              0x20\n              add\n              swap1\n              dup2\n              mstore\n              0x20\n              add\n              0x00\n              keccak256\n              0x00\n                /* \"Proposal.sol\":3453:3471  voteCount[id] += 1 */\n              dup3\n              dup3\n              sload\n              tag_190\n              swap2\n              swap1\n              tag_191\n              jump\t// in\n            tag_190:\n              swap3\n              pop\n              pop\n              dup2\n              swap1\n              sstore\n              pop\n                /* \"Proposal.sol\":3482:3495  numberOfVotes */\n              0x09\n              0x05\n                /* \"Proposal.sol\":3482:3497  numberOfVotes++ */\n              dup2\n              dup2\n              swap1\n              sload\n              swap1\n              0x0100\n              exp\n              swap1\n              div\n              0xffffffff\n              and\n              dup1\n              swap3\n              swap2\n              swap1\n              tag_192\n              swap1\n              tag_193\n              jump\t// in\n            tag_192:\n              swap2\n              swap1\n              0x0100\n              exp\n              dup2\n              sload\n              dup2\n              0xffffffff\n              mul\n              not\n              and\n              swap1\n              dup4\n              0xffffffff\n              and\n              mul\n              or\n              swap1\n              sstore\n              pop\n              pop\n                /* \"Proposal.sol\":3530:3534  true */\n              0x01\n                /* \"Proposal.sol\":3508:3515  didVote */\n              0x0e\n                /* \"Proposal.sol\":3508:3527  didVote[msg.sender] */\n              0x00\n                /* \"Proposal.sol\":3516:3526  msg.sender */\n              caller\n                /* \"Proposal.sol\":3508:3527  didVote[msg.sender] */\n              0xffffffffffffffffffffffffffffffffffffffff\n              and\n              0xffffffffffffffffffffffffffffffffffffffff\n              and\n              dup2\n              mstore\n              0x20\n              add\n              swap1\n              dup2\n              mstore\n              0x20\n              add\n              0x00\n              keccak256\n              0x00\n                /* \"Proposal.sol\":3508:3534  didVote[msg.sender] = true */\n              0x0100\n              exp\n              dup2\n              sload\n              dup2\n              0xff\n              mul\n              not\n              and\n              swap1\n              dup4\n              iszero\n              iszero\n              mul\n              or\n              swap1\n              sstore\n              pop\n                /* \"Proposal.sol\":3572:3573  0 */\n              0x00\n                /* \"Proposal.sol\":3551:3560  voteCount */\n              0x0d\n                /* \"Proposal.sol\":3551:3568  voteCount[leader] */\n              0x00\n                /* \"Proposal.sol\":3561:3567  leader */\n              0x0b\n              0x00\n              swap1\n              sload\n              swap1\n              0x0100\n              exp\n              swap1\n              div\n              0xffffffffffffffffffffffffffffffffffffffff\n              and\n                /* \"Proposal.sol\":3551:3568  voteCount[leader] */\n              0xffffffffffffffffffffffffffffffffffffffff\n              and\n              0xffffffffffffffffffffffffffffffffffffffff\n              and\n              dup2\n              mstore\n              0x20\n              add\n              swap1\n              dup2\n              mstore\n              0x20\n              add\n              0x00\n              keccak256\n              sload\n                /* \"Proposal.sol\":3551:3573  voteCount[leader] == 0 */\n              sub\n                /* \"Proposal.sol\":3547:3696  if (voteCount[leader] == 0) {... */\n              tag_194\n              jumpi\n                /* \"Proposal.sol\":3599:3601  id */\n              dup1\n                /* \"Proposal.sol\":3590:3596  leader */\n              0x0b\n              0x00\n                /* \"Proposal.sol\":3590:3601  leader = id */\n              0x0100\n              exp\n              dup2\n              sload\n              dup2\n              0xffffffffffffffffffffffffffffffffffffffff\n              mul\n              not\n              and\n              swap1\n              dup4\n              0xffffffffffffffffffffffffffffffffffffffff\n              and\n              mul\n              or\n              swap1\n              sstore\n              pop\n                /* \"Proposal.sol\":3547:3696  if (voteCount[leader] == 0) {... */\n              jump(tag_195)\n            tag_194:\n                /* \"Proposal.sol\":3639:3648  voteCount */\n              0x0d\n                /* \"Proposal.sol\":3639:3656  voteCount[leader] */\n              0x00\n                /* \"Proposal.sol\":3649:3655  leader */\n              0x0b\n              0x00\n              swap1\n              sload\n              swap1\n              0x0100\n              exp\n              swap1\n              div\n              0xffffffffffffffffffffffffffffffffffffffff\n              and\n                /* \"Proposal.sol\":3639:3656  voteCount[leader] */\n              0xffffffffffffffffffffffffffffffffffffffff\n              and\n              0xffffffffffffffffffffffffffffffffffffffff\n              and\n              dup2\n              mstore\n              0x20\n              add\n              swap1\n              dup2\n              mstore\n              0x20\n              add\n              0x00\n              keccak256\n              sload\n                /* \"Proposal.sol\":3623:3636  numberOfVotes */\n              0x09\n              0x05\n              swap1\n              sload\n              swap1\n              0x0100\n              exp\n              swap1\n              div\n              0xffffffff\n              and\n                /* \"Proposal.sol\":3623:3656  numberOfVotes < voteCount[leader] */\n              0xffffffff\n              and\n              lt\n                /* \"Proposal.sol\":3619:3696  if (numberOfVotes < voteCount[leader]) {... */\n              iszero\n              tag_196\n              jumpi\n                /* \"Proposal.sol\":3682:3684  id */\n              dup1\n                /* \"Proposal.sol\":3673:3679  leader */\n              0x0b\n              0x00\n                /* \"Proposal.sol\":3673:3684  leader = id */\n              0x0100\n              exp\n              dup2\n              sload\n              dup2\n              0xffffffffffffffffffffffffffffffffffffffff\n              mul\n              not\n              and\n              swap1\n              dup4\n              0xffffffffffffffffffffffffffffffffffffffff\n              and\n              mul\n              or\n              swap1\n              sstore\n              pop\n                /* \"Proposal.sol\":3619:3696  if (numberOfVotes < voteCount[leader]) {... */\n            tag_196:\n                /* \"Proposal.sol\":3547:3696  if (voteCount[leader] == 0) {... */\n            tag_195:\n                /* \"Proposal.sol\":3729:3747  voteCountThreshold */\n              0x09\n              0x00\n              swap1\n              sload\n              swap1\n              0x0100\n              exp\n              swap1\n              div\n              0xffffffff\n              and\n                /* \"Proposal.sol\":3712:3747  voteCount[id] >= voteCountThreshold */\n              0xffffffff\n              and\n                /* \"Proposal.sol\":3712:3721  voteCount */\n              0x0d\n                /* \"Proposal.sol\":3712:3725  voteCount[id] */\n              0x00\n                /* \"Proposal.sol\":3722:3724  id */\n              dup4\n                /* \"Proposal.sol\":3712:3725  voteCount[id] */\n              0xffffffffffffffffffffffffffffffffffffffff\n              and\n              0xffffffffffffffffffffffffffffffffffffffff\n              and\n              dup2\n              mstore\n              0x20\n              add\n              swap1\n              dup2\n              mstore\n              0x20\n              add\n              0x00\n              keccak256\n              sload\n                /* \"Proposal.sol\":3712:3747  voteCount[id] >= voteCountThreshold */\n              lt\n                /* \"Proposal.sol\":3708:3799  if (voteCount[id] >= voteCountThreshold) {... */\n              tag_197\n              jumpi\n                /* \"Proposal.sol\":3783:3787  true */\n              0x01\n                /* \"Proposal.sol\":3764:3780  leaderIsEligible */\n              0x09\n              0x04\n                /* \"Proposal.sol\":3764:3787  leaderIsEligible = true */\n              0x0100\n              exp\n              dup2\n              sload\n              dup2\n              0xff\n              mul\n              not\n              and\n              swap1\n              dup4\n              iszero\n              iszero\n              mul\n              or\n              swap1\n              sstore\n              pop\n                /* \"Proposal.sol\":3708:3799  if (voteCount[id] >= voteCountThreshold) {... */\n            tag_197:\n                /* \"Proposal.sol\":3814:3835  UserVoted(msg.sender) */\n              0x24e53c9b6f7a01c723fa01359e44b47e62ab501027dbb092d38e3669d6b01d08\n                /* \"Proposal.sol\":3824:3834  msg.sender */\n              caller\n                /* \"Proposal.sol\":3814:3835  UserVoted(msg.sender) */\n              mload(0x40)\n              tag_198\n              swap2\n              swap1\n              tag_62\n              jump\t// in\n            tag_198:\n              mload(0x40)\n              dup1\n              swap2\n              sub\n              swap1\n              log1\n                /* \"Proposal.sol\":3135:3843  function voteOnBid(address payable id) public {... */\n              pop\n              jump\t// out\n                /* \"Proposal.sol\":3964:4071  function getAmountForBid(address id) public view returns (uint256) {... */\n            tag_84:\n                /* \"Proposal.sol\":4022:4029  uint256 */\n              0x00\n                /* \"Proposal.sol\":4049:4059  bidsAmount */\n              0x05\n                /* \"Proposal.sol\":4049:4063  bidsAmount[id] */\n              0x00\n                /* \"Proposal.sol\":4060:4062  id */\n              dup4\n                /* \"Proposal.sol\":4049:4063  bidsAmount[id] */\n              0xffffffffffffffffffffffffffffffffffffffff\n              and\n              0xffffffffffffffffffffffffffffffffffffffff\n              and\n              dup2\n              mstore\n              0x20\n              add\n              swap1\n              dup2\n              mstore\n              0x20\n              add\n              0x00\n              keccak256\n              sload\n                /* \"Proposal.sol\":4042:4063  return bidsAmount[id] */\n              swap1\n              pop\n                /* \"Proposal.sol\":3964:4071  function getAmountForBid(address id) public view returns (uint256) {... */\n              swap2\n              swap1\n              pop\n              jump\t// out\n                /* \"Proposal.sol\":1204:1232  address public winningBidder */\n            tag_88:\n              0x0c\n              0x00\n              swap1\n              sload\n              swap1\n              0x0100\n              exp\n              swap1\n              div\n              0xffffffffffffffffffffffffffffffffffffffff\n              and\n              dup2\n              jump\t// out\n                /* \"Proposal.sol\":725:759  ProposalState public proposalState */\n            tag_92:\n              0x02\n              0x00\n              swap1\n              sload\n              swap1\n              0x0100\n              exp\n              swap1\n              div\n              0xff\n              and\n              dup2\n              jump\t// out\n                /* \"Proposal.sol\":543:565  uint256 public balance */\n            tag_97:\n              sload(0x00)\n              dup2\n              jump\t// out\n                /* \"Proposal.sol\":946:981  uint32 public voteBufferSeconds = 0 */\n            tag_101:\n              0x07\n              0x00\n              swap1\n              sload\n              swap1\n              0x0100\n              exp\n              swap1\n              div\n              0xffffffff\n              and\n              dup2\n              jump\t// out\n                /* \"Proposal.sol\":2868:2959  function getBids() public view returns (address[] memory) {... */\n            tag_105:\n                /* \"Proposal.sol\":2908:2924  address[] memory */\n              0x60\n                /* \"Proposal.sol\":2944:2951  bidders */\n              0x0a\n                /* \"Proposal.sol\":2937:2951  return bidders */\n              dup1\n              sload\n              dup1\n              0x20\n              mul\n              0x20\n              add\n              mload(0x40)\n              swap1\n              dup2\n              add\n              0x40\n              mstore\n              dup1\n              swap3\n              swap2\n              swap1\n              dup2\n              dup2\n              mstore\n              0x20\n              add\n              dup3\n              dup1\n              sload\n              dup1\n              iszero\n              tag_201\n              jumpi\n              0x20\n              mul\n              dup3\n              add\n              swap2\n              swap1\n              0x00\n              mstore\n              keccak256(0x00, 0x20)\n              swap1\n            tag_202:\n              dup2\n              0x00\n              swap1\n              sload\n              swap1\n              0x0100\n              exp\n              swap1\n              div\n              0xffffffffffffffffffffffffffffffffffffffff\n              and\n              0xffffffffffffffffffffffffffffffffffffffff\n              and\n              dup2\n              mstore\n              0x20\n              add\n              swap1\n              0x01\n              add\n              swap1\n              dup1\n              dup4\n              gt\n              tag_202\n              jumpi\n            tag_201:\n              pop\n              pop\n              pop\n              pop\n              pop\n              swap1\n              pop\n                /* \"Proposal.sol\":2868:2959  function getBids() public view returns (address[] memory) {... */\n              swap1\n              jump\t// out\n                /* \"Proposal.sol\":988:1017  uint256 public voteBufferDate */\n            tag_110:\n              sload(0x08)\n              dup2\n              jump\t// out\n                /* \"Proposal.sol\":2260:2860  function submitBid(string memory descriptionSet, uint256 amountNeeded)... */\n            tag_116:\n                /* \"Proposal.sol\":2402:2423  ProposalState.BIDDING */\n              0x00\n                /* \"Proposal.sol\":2385:2423  proposalState == ProposalState.BIDDING */\n              0x03\n              dup2\n              gt\n              iszero\n              tag_204\n              jumpi\n              tag_205\n              tag_137\n              jump\t// in\n            tag_205:\n            tag_204:\n                /* \"Proposal.sol\":2385:2398  proposalState */\n              0x02\n              0x00\n              swap1\n              sload\n              swap1\n              0x0100\n              exp\n              swap1\n              div\n              0xff\n              and\n                /* \"Proposal.sol\":2385:2423  proposalState == ProposalState.BIDDING */\n              0x03\n              dup2\n              gt\n              iszero\n              tag_206\n              jumpi\n              tag_207\n              tag_137\n              jump\t// in\n            tag_207:\n            tag_206:\n              eq\n                /* \"Proposal.sol\":2363:2475  require(... */\n              tag_208\n              jumpi\n              mload(0x40)\n              0x08c379a000000000000000000000000000000000000000000000000000000000\n              dup2\n              mstore\n              0x04\n              add\n              tag_209\n              swap1\n              tag_210\n              jump\t// in\n            tag_209:\n              mload(0x40)\n              dup1\n              swap2\n              sub\n              swap1\n              revert\n            tag_208:\n                /* \"Proposal.sol\":2486:2499  MemberMap map */\n              0x00\n                /* \"Proposal.sol\":2512:2521  memberMap */\n              immutable(\"0x135d24c3045eb2fc378507486529b206ce031bd4e306ff07b2abc1c06a63b749\")\n                /* \"Proposal.sol\":2486:2522  MemberMap map = MemberMap(memberMap) */\n              swap1\n              pop\n                /* \"Proposal.sol\":2541:2544  map */\n              dup1\n                /* \"Proposal.sol\":2541:2562  map.memberIsInAnyPool */\n              0xffffffffffffffffffffffffffffffffffffffff\n              and\n              0x75838862\n                /* \"Proposal.sol\":2563:2573  msg.sender */\n              caller\n                /* \"Proposal.sol\":2541:2574  map.memberIsInAnyPool(msg.sender) */\n              mload(0x40)\n              dup3\n              0xffffffff\n              and\n              0xe0\n              shl\n              dup2\n              mstore\n              0x04\n              add\n              tag_211\n              swap2\n              swap1\n              tag_62\n              jump\t// in\n            tag_211:\n              0x20\n              mload(0x40)\n              dup1\n              dup4\n              sub\n              dup2\n              dup7\n              gas\n              staticcall\n              iszero\n              dup1\n              iszero\n              tag_213\n              jumpi\n              returndatasize\n              0x00\n              dup1\n              returndatacopy\n              revert(0x00, returndatasize)\n            tag_213:\n              pop\n              pop\n              pop\n              pop\n              mload(0x40)\n              returndatasize\n              not(0x1f)\n              0x1f\n              dup3\n              add\n              and\n              dup3\n              add\n              dup1\n              0x40\n              mstore\n              pop\n              dup2\n              add\n              swap1\n              tag_214\n              swap2\n              swap1\n              tag_215\n              jump\t// in\n            tag_214:\n                /* \"Proposal.sol\":2533:2595  require(map.memberIsInAnyPool(msg.sender), \"Must be a member\") */\n              tag_216\n              jumpi\n              mload(0x40)\n              0x08c379a000000000000000000000000000000000000000000000000000000000\n              dup2\n              mstore\n              0x04\n              add\n              tag_217\n              swap1\n              tag_218\n              jump\t// in\n            tag_217:\n              mload(0x40)\n              dup1\n              swap2\n              sub\n              swap1\n              revert\n            tag_216:\n                /* \"Proposal.sol\":2640:2641  0 */\n              0x00\n                /* \"Proposal.sol\":2614:2624  bidsAmount */\n              0x05\n                /* \"Proposal.sol\":2614:2636  bidsAmount[msg.sender] */\n              0x00\n                /* \"Proposal.sol\":2625:2635  msg.sender */\n              caller\n                /* \"Proposal.sol\":2614:2636  bidsAmount[msg.sender] */\n              0xffffffffffffffffffffffffffffffffffffffff\n              and\n              0xffffffffffffffffffffffffffffffffffffffff\n              and\n              dup2\n              mstore\n              0x20\n              add\n              swap1\n              dup2\n              mstore\n              0x20\n              add\n              0x00\n              keccak256\n              sload\n                /* \"Proposal.sol\":2614:2641  bidsAmount[msg.sender] == 0 */\n              eq\n                /* \"Proposal.sol\":2606:2669  require(bidsAmount[msg.sender] == 0, \"address has already bid\") */\n              tag_219\n              jumpi\n              mload(0x40)\n              0x08c379a000000000000000000000000000000000000000000000000000000000\n              dup2\n              mstore\n              0x04\n              add\n              tag_220\n              swap1\n              tag_221\n              jump\t// in\n            tag_220:\n              mload(0x40)\n              dup1\n              swap2\n              sub\n              swap1\n              revert\n            tag_219:\n                /* \"Proposal.sol\":2710:2724  descriptionSet */\n              dup3\n                /* \"Proposal.sol\":2680:2695  bidDescriptions */\n              0x04\n                /* \"Proposal.sol\":2680:2707  bidDescriptions[msg.sender] */\n              0x00\n                /* \"Proposal.sol\":2696:2706  msg.sender */\n              caller\n                /* \"Proposal.sol\":2680:2707  bidDescriptions[msg.sender] */\n              0xffffffffffffffffffffffffffffffffffffffff\n              and\n              0xffffffffffffffffffffffffffffffffffffffff\n              and\n              dup2\n              mstore\n              0x20\n              add\n              swap1\n              dup2\n              mstore\n              0x20\n              add\n              0x00\n              keccak256\n                /* \"Proposal.sol\":2680:2724  bidDescriptions[msg.sender] = descriptionSet */\n              swap1\n              dup2\n              tag_222\n              swap2\n              swap1\n              tag_223\n              jump\t// in\n            tag_222:\n              pop\n                /* \"Proposal.sol\":2760:2772  amountNeeded */\n              dup2\n                /* \"Proposal.sol\":2735:2745  bidsAmount */\n              0x05\n                /* \"Proposal.sol\":2735:2757  bidsAmount[msg.sender] */\n              0x00\n                /* \"Proposal.sol\":2746:2756  msg.sender */\n              caller\n                /* \"Proposal.sol\":2735:2757  bidsAmount[msg.sender] */\n              0xffffffffffffffffffffffffffffffffffffffff\n              and\n              0xffffffffffffffffffffffffffffffffffffffff\n              and\n              dup2\n              mstore\n              0x20\n              add\n              swap1\n              dup2\n              mstore\n              0x20\n              add\n              0x00\n              keccak256\n                /* \"Proposal.sol\":2735:2772  bidsAmount[msg.sender] = amountNeeded */\n              dup2\n              swap1\n              sstore\n              pop\n                /* \"Proposal.sol\":2783:2790  bidders */\n              0x0a\n                /* \"Proposal.sol\":2796:2806  msg.sender */\n              caller\n                /* \"Proposal.sol\":2783:2807  bidders.push(msg.sender) */\n              swap1\n              dup1\n              0x01\n              dup2\n              sload\n              add\n              dup1\n              dup3\n              sstore\n              dup1\n              swap2\n              pop\n              pop\n              0x01\n              swap1\n              sub\n              swap1\n              0x00\n              mstore\n              keccak256(0x00, 0x20)\n              add\n              0x00\n              swap1\n              swap2\n              swap1\n              swap2\n              swap1\n              swap2\n              0x0100\n              exp\n              dup2\n              sload\n              dup2\n              0xffffffffffffffffffffffffffffffffffffffff\n              mul\n              not\n              and\n              swap1\n              dup4\n              0xffffffffffffffffffffffffffffffffffffffff\n              and\n              mul\n              or\n              swap1\n              sstore\n              pop\n                /* \"Proposal.sol\":2823:2852  ProposalSubmitted(msg.sender) */\n              0x23914683cb862ec5961902cca21fb0378fd27a633c4d929996c2a14abcfd5b51\n                /* \"Proposal.sol\":2841:2851  msg.sender */\n              caller\n                /* \"Proposal.sol\":2823:2852  ProposalSubmitted(msg.sender) */\n              mload(0x40)\n              tag_225\n              swap2\n              swap1\n              tag_62\n              jump\t// in\n            tag_225:\n              mload(0x40)\n              dup1\n              swap2\n              sub\n              swap1\n              log1\n                /* \"Proposal.sol\":2352:2860  {... */\n              pop\n                /* \"Proposal.sol\":2260:2860  function submitBid(string memory descriptionSet, uint256 amountNeeded)... */\n              pop\n              pop\n              jump\t// out\n                /* \"Proposal.sol\":4079:4948  function createProject() public {... */\n            tag_119:\n                /* \"Proposal.sol\":4144:4150  leader */\n              0x0b\n              0x00\n              swap1\n              sload\n              swap1\n              0x0100\n              exp\n              swap1\n              div\n              0xffffffffffffffffffffffffffffffffffffffff\n              and\n                /* \"Proposal.sol\":4130:4150  msg.sender == leader */\n              0xffffffffffffffffffffffffffffffffffffffff\n              and\n                /* \"Proposal.sol\":4130:4140  msg.sender */\n              caller\n                /* \"Proposal.sol\":4130:4150  msg.sender == leader */\n              0xffffffffffffffffffffffffffffffffffffffff\n              and\n              eq\n                /* \"Proposal.sol\":4122:4169  require(msg.sender == leader, \"must be leader\") */\n              tag_227\n              jumpi\n              mload(0x40)\n              0x08c379a000000000000000000000000000000000000000000000000000000000\n              dup2\n              mstore\n              0x04\n              add\n              tag_228\n              swap1\n              tag_229\n              jump\t// in\n            tag_228:\n              mload(0x40)\n              dup1\n              swap2\n              sub\n              swap1\n              revert\n            tag_227:\n                /* \"Proposal.sol\":4188:4204  leaderIsEligible */\n              0x09\n              0x04\n              swap1\n              sload\n              swap1\n              0x0100\n              exp\n              swap1\n              div\n              0xff\n              and\n                /* \"Proposal.sol\":4180:4231  require(leaderIsEligible, \"leader is not eligible\") */\n              tag_230\n              jumpi\n              mload(0x40)\n              0x08c379a000000000000000000000000000000000000000000000000000000000\n              dup2\n              mstore\n              0x04\n              add\n              tag_231\n              swap1\n              tag_232\n              jump\t// in\n            tag_231:\n              mload(0x40)\n              dup1\n              swap2\n              sub\n              swap1\n              revert\n            tag_230:\n                /* \"Proposal.sol\":4268:4282  voteBufferDate */\n              sload(0x08)\n                /* \"Proposal.sol\":4250:4265  block.timestamp */\n              timestamp\n                /* \"Proposal.sol\":4250:4282  block.timestamp > voteBufferDate */\n              gt\n                /* \"Proposal.sol\":4242:4303  require(block.timestamp > voteBufferDate, \"must wait longer\") */\n              tag_233\n              jumpi\n              mload(0x40)\n              0x08c379a000000000000000000000000000000000000000000000000000000000\n              dup2\n              mstore\n              0x04\n              add\n              tag_234\n              swap1\n              tag_235\n              jump\t// in\n            tag_234:\n              mload(0x40)\n              dup1\n              swap2\n              sub\n              swap1\n              revert\n            tag_233:\n                /* \"Proposal.sol\":4314:4334  uint256 neededAmount */\n              0x00\n                /* \"Proposal.sol\":4337:4347  bidsAmount */\n              0x05\n                /* \"Proposal.sol\":4337:4355  bidsAmount[leader] */\n              0x00\n                /* \"Proposal.sol\":4348:4354  leader */\n              0x0b\n              0x00\n              swap1\n              sload\n              swap1\n              0x0100\n              exp\n              swap1\n              div\n              0xffffffffffffffffffffffffffffffffffffffff\n              and\n                /* \"Proposal.sol\":4337:4355  bidsAmount[leader] */\n              0xffffffffffffffffffffffffffffffffffffffff\n              and\n              0xffffffffffffffffffffffffffffffffffffffff\n              and\n              dup2\n              mstore\n              0x20\n              add\n              swap1\n              dup2\n              mstore\n              0x20\n              add\n              0x00\n              keccak256\n              sload\n                /* \"Proposal.sol\":4314:4355  uint256 neededAmount = bidsAmount[leader] */\n              swap1\n              pop\n                /* \"Proposal.sol\":4384:4396  neededAmount */\n              dup1\n                /* \"Proposal.sol\":4374:4381  balance */\n              sload(0x00)\n                /* \"Proposal.sol\":4374:4396  balance > neededAmount */\n              gt\n                /* \"Proposal.sol\":4366:4423  require(balance > neededAmount, \"Funding amount not met\") */\n              tag_236\n              jumpi\n              mload(0x40)\n              0x08c379a000000000000000000000000000000000000000000000000000000000\n              dup2\n              mstore\n              0x04\n              add\n              tag_237\n              swap1\n              tag_238\n              jump\t// in\n            tag_237:\n              mload(0x40)\n              dup1\n              swap2\n              sub\n              swap1\n              revert\n            tag_236:\n                /* \"Proposal.sol\":4450:4456  leader */\n              0x0b\n              0x00\n              swap1\n              sload\n              swap1\n              0x0100\n              exp\n              swap1\n              div\n              0xffffffffffffffffffffffffffffffffffffffff\n              and\n                /* \"Proposal.sol\":4434:4447  winningBidder */\n              0x0c\n              0x00\n                /* \"Proposal.sol\":4434:4456  winningBidder = leader */\n              0x0100\n              exp\n              dup2\n              sload\n              dup2\n              0xffffffffffffffffffffffffffffffffffffffff\n              mul\n              not\n              and\n              swap1\n              dup4\n              0xffffffffffffffffffffffffffffffffffffffff\n              and\n              mul\n              or\n              swap1\n              sstore\n              pop\n                /* \"Proposal.sol\":4467:4480  MemberMap map */\n              0x00\n                /* \"Proposal.sol\":4493:4502  memberMap */\n              immutable(\"0x135d24c3045eb2fc378507486529b206ce031bd4e306ff07b2abc1c06a63b749\")\n                /* \"Proposal.sol\":4467:4503  MemberMap map = MemberMap(memberMap) */\n              swap1\n              pop\n                /* \"Proposal.sol\":4530:4552  ProposalState.APPROVED */\n              0x02\n                /* \"Proposal.sol\":4514:4527  proposalState */\n              dup1\n              0x00\n                /* \"Proposal.sol\":4514:4552  proposalState = ProposalState.APPROVED */\n              0x0100\n              exp\n              dup2\n              sload\n              dup2\n              0xff\n              mul\n              not\n              and\n              swap1\n              dup4\n              0x03\n              dup2\n              gt\n              iszero\n              tag_239\n              jumpi\n              tag_240\n              tag_137\n              jump\t// in\n            tag_240:\n            tag_239:\n              mul\n              or\n              swap1\n              sstore\n              pop\n                /* \"Proposal.sol\":4563:4589  ProjectFactory projFactory */\n              0x00\n                /* \"Proposal.sol\":4607:4628  projectFactoryAddress */\n              immutable(\"0xa1cc42789a1ab2a6460061541324a26bebdb692b477d17f8ab27f76b6e376d08\")\n                /* \"Proposal.sol\":4563:4629  ProjectFactory projFactory = ProjectFactory(projectFactoryAddress) */\n              swap1\n              pop\n                /* \"Proposal.sol\":4660:4689  address[] memory membersPools */\n              0x00\n                /* \"Proposal.sol\":4692:4695  map */\n              dup3\n                /* \"Proposal.sol\":4692:4710  map.getMemberPools */\n              0xffffffffffffffffffffffffffffffffffffffff\n              and\n              0xfadd65c3\n                /* \"Proposal.sol\":4711:4717  leader */\n              0x0b\n              0x00\n              swap1\n              sload\n              swap1\n              0x0100\n              exp\n              swap1\n              div\n              0xffffffffffffffffffffffffffffffffffffffff\n              and\n                /* \"Proposal.sol\":4692:4718  map.getMemberPools(leader) */\n              mload(0x40)\n              dup3\n              0xffffffff\n              and\n              0xe0\n              shl\n              dup2\n              mstore\n              0x04\n              add\n              tag_241\n              swap2\n              swap1\n              tag_62\n              jump\t// in\n            tag_241:\n              0x00\n              mload(0x40)\n              dup1\n              dup4\n              sub\n              dup2\n              dup7\n              gas\n              staticcall\n              iszero\n              dup1\n              iszero\n              tag_243\n              jumpi\n              returndatasize\n              0x00\n              dup1\n              returndatacopy\n              revert(0x00, returndatasize)\n            tag_243:\n              pop\n              pop\n              pop\n              pop\n              mload(0x40)\n              returndatasize\n              0x00\n              dup3\n              returndatacopy\n              returndatasize\n              not(0x1f)\n              0x1f\n              dup3\n              add\n              and\n              dup3\n              add\n              dup1\n              0x40\n              mstore\n              pop\n              dup2\n              add\n              swap1\n              tag_244\n              swap2\n              swap1\n              tag_245\n              jump\t// in\n            tag_244:\n                /* \"Proposal.sol\":4660:4718  address[] memory membersPools = map.getMemberPools(leader) */\n              swap1\n              pop\n                /* \"Proposal.sol\":4729:4740  projFactory */\n              dup2\n                /* \"Proposal.sol\":4729:4754  projFactory.createProject */\n              0xffffffffffffffffffffffffffffffffffffffff\n              and\n              0xc6211077\n                /* \"Proposal.sol\":4769:4781  membersPools */\n              dup3\n                /* \"Proposal.sol\":4782:4783  0 */\n              0x00\n                /* \"Proposal.sol\":4769:4784  membersPools[0] */\n              dup2\n              mload\n              dup2\n              lt\n              tag_246\n              jumpi\n              tag_247\n              tag_248\n              jump\t// in\n            tag_247:\n            tag_246:\n              0x20\n              mul\n              0x20\n              add\n              add\n              mload\n                /* \"Proposal.sol\":4799:4812  winningBidder */\n              0x0c\n              0x00\n              swap1\n              sload\n              swap1\n              0x0100\n              exp\n              swap1\n              div\n              0xffffffffffffffffffffffffffffffffffffffff\n              and\n                /* \"Proposal.sol\":4827:4834  creator */\n              immutable(\"0xdfd5b67accb2b5378e5d1ab05aca948173df65480c2f498125aa6b2e89895207\")\n                /* \"Proposal.sol\":4849:4867  ProjectType.FUNDED */\n              0x00\n                /* \"Proposal.sol\":4890:4894  this */\n              address\n                /* \"Proposal.sol\":4729:4906  projFactory.createProject(... */\n              mload(0x40)\n              dup7\n              0xffffffff\n              and\n              0xe0\n              shl\n              dup2\n              mstore\n              0x04\n              add\n              tag_249\n              swap6\n              swap5\n              swap4\n              swap3\n              swap2\n              swap1\n              tag_250\n              jump\t// in\n            tag_249:\n              0x00\n              mload(0x40)\n              dup1\n              dup4\n              sub\n              dup2\n              0x00\n              dup8\n              dup1\n              extcodesize\n              iszero\n              dup1\n              iszero\n              tag_251\n              jumpi\n              0x00\n              dup1\n              revert\n            tag_251:\n              pop\n              gas\n              call\n              iszero\n              dup1\n              iszero\n              tag_253\n              jumpi\n              returndatasize\n              0x00\n              dup1\n              returndatacopy\n              revert(0x00, returndatasize)\n            tag_253:\n              pop\n              pop\n              pop\n              pop\n                /* \"Proposal.sol\":4922:4940  CampaignAssigned() */\n              0x45b0f4bc838cfd8748cc5dfb3c6627145d32ddcb17804ddf52cd8cc9e5cd1b5d\n              mload(0x40)\n              mload(0x40)\n              dup1\n              swap2\n              sub\n              swap1\n              log1\n                /* \"Proposal.sol\":4111:4948  {... */\n              pop\n              pop\n              pop\n              pop\n                /* \"Proposal.sol\":4079:4948  function createProject() public {... */\n              jump\t// out\n                /* \"Proposal.sol\":1145:1169  address[] public bidders */\n            tag_124:\n              0x0a\n              dup2\n              dup2\n              sload\n              dup2\n              lt\n              tag_254\n              jumpi\n              0x00\n              dup1\n              revert\n            tag_254:\n              swap1\n              0x00\n              mstore\n              keccak256(0x00, 0x20)\n              add\n              0x00\n              swap2\n              pop\n              sload\n              swap1\n              0x0100\n              exp\n              swap1\n              div\n              0xffffffffffffffffffffffffffffffffffffffff\n              and\n              dup2\n              jump\t// out\n                /* \"Proposal.sol\":1783:2134  function contribute() public payable {... */\n            tag_127:\n                /* \"Proposal.sol\":1870:1891  ProposalState.BIDDING */\n              0x00\n                /* \"Proposal.sol\":1853:1891  proposalState == ProposalState.BIDDING */\n              0x03\n              dup2\n              gt\n              iszero\n              tag_257\n              jumpi\n              tag_258\n              tag_137\n              jump\t// in\n            tag_258:\n            tag_257:\n                /* \"Proposal.sol\":1853:1866  proposalState */\n              0x02\n              0x00\n              swap1\n              sload\n              swap1\n              0x0100\n              exp\n              swap1\n              div\n              0xff\n              and\n                /* \"Proposal.sol\":1853:1891  proposalState == ProposalState.BIDDING */\n              0x03\n              dup2\n              gt\n              iszero\n              tag_259\n              jumpi\n              tag_260\n              tag_137\n              jump\t// in\n            tag_260:\n            tag_259:\n              eq\n                /* \"Proposal.sol\":1853:1950  proposalState == ProposalState.BIDDING ||... */\n              dup1\n              tag_261\n              jumpi\n              pop\n                /* \"Proposal.sol\":1929:1950  ProposalState.FUNDING */\n              0x01\n                /* \"Proposal.sol\":1912:1950  proposalState == ProposalState.FUNDING */\n              0x03\n              dup2\n              gt\n              iszero\n              tag_262\n              jumpi\n              tag_263\n              tag_137\n              jump\t// in\n            tag_263:\n            tag_262:\n                /* \"Proposal.sol\":1912:1925  proposalState */\n              0x02\n              0x00\n              swap1\n              sload\n              swap1\n              0x0100\n              exp\n              swap1\n              div\n              0xff\n              and\n                /* \"Proposal.sol\":1912:1950  proposalState == ProposalState.FUNDING */\n              0x03\n              dup2\n              gt\n              iszero\n              tag_264\n              jumpi\n              tag_265\n              tag_137\n              jump\t// in\n            tag_265:\n            tag_264:\n              eq\n                /* \"Proposal.sol\":1853:1950  proposalState == ProposalState.BIDDING ||... */\n            tag_261:\n                /* \"Proposal.sol\":1831:2008  require(... */\n              tag_266\n              jumpi\n              mload(0x40)\n              0x08c379a000000000000000000000000000000000000000000000000000000000\n              dup2\n              mstore\n              0x04\n              add\n              tag_267\n              swap1\n              tag_268\n              jump\t// in\n            tag_267:\n              mload(0x40)\n              dup1\n              swap2\n              sub\n              swap1\n              revert\n            tag_266:\n                /* \"Proposal.sol\":2047:2056  msg.value */\n              callvalue\n                /* \"Proposal.sol\":2019:2031  contributors */\n              0x03\n                /* \"Proposal.sol\":2019:2043  contributors[msg.sender] */\n              0x00\n                /* \"Proposal.sol\":2032:2042  msg.sender */\n              caller\n                /* \"Proposal.sol\":2019:2043  contributors[msg.sender] */\n              0xffffffffffffffffffffffffffffffffffffffff\n              and\n              0xffffffffffffffffffffffffffffffffffffffff\n              and\n              dup2\n              mstore\n              0x20\n              add\n              swap1\n              dup2\n              mstore\n              0x20\n              add\n              0x00\n              keccak256\n              0x00\n                /* \"Proposal.sol\":2019:2056  contributors[msg.sender] += msg.value */\n              dup3\n              dup3\n              sload\n              tag_269\n              swap2\n              swap1\n              tag_191\n              jump\t// in\n            tag_269:\n              swap3\n              pop\n              pop\n              dup2\n              swap1\n              sstore\n              pop\n                /* \"Proposal.sol\":2078:2087  msg.value */\n              callvalue\n                /* \"Proposal.sol\":2067:2074  balance */\n              0x00\n              dup1\n                /* \"Proposal.sol\":2067:2087  balance += msg.value */\n              dup3\n              dup3\n              sload\n              tag_270\n              swap2\n              swap1\n              tag_191\n              jump\t// in\n            tag_270:\n              swap3\n              pop\n              pop\n              dup2\n              swap1\n              sstore\n              pop\n                /* \"Proposal.sol\":2103:2126  Contributed(msg.sender) */\n              0x35a268d4c65b4afb5b15f6e60f11fd64cce0aa427e6d48058be6e9b697c493d7\n                /* \"Proposal.sol\":2115:2125  msg.sender */\n              caller\n                /* \"Proposal.sol\":2103:2126  Contributed(msg.sender) */\n              mload(0x40)\n              tag_271\n              swap2\n              swap1\n              tag_62\n              jump\t// in\n            tag_271:\n              mload(0x40)\n              dup1\n              swap2\n              sub\n              swap1\n              log1\n                /* \"Proposal.sol\":1783:2134  function contribute() public payable {... */\n              jump\t// out\n                /* \"#utility.yul\":7:82   */\n            tag_272:\n                /* \"#utility.yul\":40:46   */\n              0x00\n                /* \"#utility.yul\":73:75   */\n              0x40\n                /* \"#utility.yul\":67:76   */\n              mload\n                /* \"#utility.yul\":57:76   */\n              swap1\n              pop\n                /* \"#utility.yul\":7:82   */\n              swap1\n              jump\t// out\n                /* \"#utility.yul\":88:205   */\n            tag_273:\n                /* \"#utility.yul\":197:198   */\n              0x00\n                /* \"#utility.yul\":194:195   */\n              dup1\n                /* \"#utility.yul\":187:199   */\n              revert\n                /* \"#utility.yul\":211:328   */\n            tag_274:\n                /* \"#utility.yul\":320:321   */\n              0x00\n                /* \"#utility.yul\":317:318   */\n              dup1\n                /* \"#utility.yul\":310:322   */\n              revert\n                /* \"#utility.yul\":334:460   */\n            tag_275:\n                /* \"#utility.yul\":371:378   */\n              0x00\n                /* \"#utility.yul\":411:453   */\n              0xffffffffffffffffffffffffffffffffffffffff\n                /* \"#utility.yul\":404:409   */\n              dup3\n                /* \"#utility.yul\":400:454   */\n              and\n                /* \"#utility.yul\":389:454   */\n              swap1\n              pop\n                /* \"#utility.yul\":334:460   */\n              swap2\n              swap1\n              pop\n              jump\t// out\n                /* \"#utility.yul\":466:562   */\n            tag_276:\n                /* \"#utility.yul\":503:510   */\n              0x00\n                /* \"#utility.yul\":532:556   */\n              tag_385\n                /* \"#utility.yul\":550:555   */\n              dup3\n                /* \"#utility.yul\":532:556   */\n              tag_275\n              jump\t// in\n            tag_385:\n                /* \"#utility.yul\":521:556   */\n              swap1\n              pop\n                /* \"#utility.yul\":466:562   */\n              swap2\n              swap1\n              pop\n              jump\t// out\n                /* \"#utility.yul\":568:690   */\n            tag_277:\n                /* \"#utility.yul\":641:665   */\n              tag_387\n                /* \"#utility.yul\":659:664   */\n              dup2\n                /* \"#utility.yul\":641:665   */\n              tag_276\n              jump\t// in\n            tag_387:\n                /* \"#utility.yul\":634:639   */\n              dup2\n                /* \"#utility.yul\":631:666   */\n              eq\n                /* \"#utility.yul\":621:684   */\n              tag_388\n              jumpi\n                /* \"#utility.yul\":680:681   */\n              0x00\n                /* \"#utility.yul\":677:678   */\n              dup1\n                /* \"#utility.yul\":670:682   */\n              revert\n                /* \"#utility.yul\":621:684   */\n            tag_388:\n                /* \"#utility.yul\":568:690   */\n              pop\n              jump\t// out\n                /* \"#utility.yul\":696:835   */\n            tag_278:\n                /* \"#utility.yul\":742:747   */\n              0x00\n                /* \"#utility.yul\":780:786   */\n              dup2\n                /* \"#utility.yul\":767:787   */\n              calldataload\n                /* \"#utility.yul\":758:787   */\n              swap1\n              pop\n                /* \"#utility.yul\":796:829   */\n              tag_390\n                /* \"#utility.yul\":823:828   */\n              dup2\n                /* \"#utility.yul\":796:829   */\n              tag_277\n              jump\t// in\n            tag_390:\n                /* \"#utility.yul\":696:835   */\n              swap3\n              swap2\n              pop\n              pop\n              jump\t// out\n                /* \"#utility.yul\":841:1170   */\n            tag_31:\n                /* \"#utility.yul\":900:906   */\n              0x00\n                /* \"#utility.yul\":949:951   */\n              0x20\n                /* \"#utility.yul\":937:946   */\n              dup3\n                /* \"#utility.yul\":928:935   */\n              dup5\n                /* \"#utility.yul\":924:947   */\n              sub\n                /* \"#utility.yul\":920:952   */\n              slt\n                /* \"#utility.yul\":917:1036   */\n              iszero\n              tag_392\n              jumpi\n                /* \"#utility.yul\":955:1034   */\n              tag_393\n              tag_273\n              jump\t// in\n            tag_393:\n                /* \"#utility.yul\":917:1036   */\n            tag_392:\n                /* \"#utility.yul\":1075:1076   */\n              0x00\n                /* \"#utility.yul\":1100:1153   */\n              tag_394\n                /* \"#utility.yul\":1145:1152   */\n              dup5\n                /* \"#utility.yul\":1136:1142   */\n              dup3\n                /* \"#utility.yul\":1125:1134   */\n              dup6\n                /* \"#utility.yul\":1121:1143   */\n              add\n                /* \"#utility.yul\":1100:1153   */\n              tag_278\n              jump\t// in\n            tag_394:\n                /* \"#utility.yul\":1090:1153   */\n              swap2\n              pop\n                /* \"#utility.yul\":1046:1163   */\n              pop\n                /* \"#utility.yul\":841:1170   */\n              swap3\n              swap2\n              pop\n              pop\n              jump\t// out\n                /* \"#utility.yul\":1176:1253   */\n            tag_279:\n                /* \"#utility.yul\":1213:1220   */\n              0x00\n                /* \"#utility.yul\":1242:1247   */\n              dup2\n                /* \"#utility.yul\":1231:1247   */\n              swap1\n              pop\n                /* \"#utility.yul\":1176:1253   */\n              swap2\n              swap1\n              pop\n              jump\t// out\n                /* \"#utility.yul\":1259:1377   */\n            tag_280:\n                /* \"#utility.yul\":1346:1370   */\n              tag_397\n                /* \"#utility.yul\":1364:1369   */\n              dup2\n                /* \"#utility.yul\":1346:1370   */\n              tag_279\n              jump\t// in\n            tag_397:\n                /* \"#utility.yul\":1341:1344   */\n              dup3\n                /* \"#utility.yul\":1334:1371   */\n              mstore\n                /* \"#utility.yul\":1259:1377   */\n              pop\n              pop\n              jump\t// out\n                /* \"#utility.yul\":1383:1605   */\n            tag_34:\n                /* \"#utility.yul\":1476:1480   */\n              0x00\n                /* \"#utility.yul\":1514:1516   */\n              0x20\n                /* \"#utility.yul\":1503:1512   */\n              dup3\n                /* \"#utility.yul\":1499:1517   */\n              add\n                /* \"#utility.yul\":1491:1517   */\n              swap1\n              pop\n                /* \"#utility.yul\":1527:1598   */\n              tag_399\n                /* \"#utility.yul\":1595:1596   */\n              0x00\n                /* \"#utility.yul\":1584:1593   */\n              dup4\n                /* \"#utility.yul\":1580:1597   */\n              add\n                /* \"#utility.yul\":1571:1577   */\n              dup5\n                /* \"#utility.yul\":1527:1598   */\n              tag_280\n              jump\t// in\n            tag_399:\n                /* \"#utility.yul\":1383:1605   */\n              swap3\n              swap2\n              pop\n              pop\n              jump\t// out\n                /* \"#utility.yul\":1611:1701   */\n            tag_281:\n                /* \"#utility.yul\":1645:1652   */\n              0x00\n                /* \"#utility.yul\":1688:1693   */\n              dup2\n                /* \"#utility.yul\":1681:1694   */\n              iszero\n                /* \"#utility.yul\":1674:1695   */\n              iszero\n                /* \"#utility.yul\":1663:1695   */\n              swap1\n              pop\n                /* \"#utility.yul\":1611:1701   */\n              swap2\n              swap1\n              pop\n              jump\t// out\n                /* \"#utility.yul\":1707:1816   */\n            tag_282:\n                /* \"#utility.yul\":1788:1809   */\n              tag_402\n                /* \"#utility.yul\":1803:1808   */\n              dup2\n                /* \"#utility.yul\":1788:1809   */\n              tag_281\n              jump\t// in\n            tag_402:\n                /* \"#utility.yul\":1783:1786   */\n              dup3\n                /* \"#utility.yul\":1776:1810   */\n              mstore\n                /* \"#utility.yul\":1707:1816   */\n              pop\n              pop\n              jump\t// out\n                /* \"#utility.yul\":1822:2032   */\n            tag_40:\n                /* \"#utility.yul\":1909:1913   */\n              0x00\n                /* \"#utility.yul\":1947:1949   */\n              0x20\n                /* \"#utility.yul\":1936:1945   */\n              dup3\n                /* \"#utility.yul\":1932:1950   */\n              add\n                /* \"#utility.yul\":1924:1950   */\n              swap1\n              pop\n                /* \"#utility.yul\":1960:2025   */\n              tag_404\n                /* \"#utility.yul\":2022:2023   */\n              0x00\n                /* \"#utility.yul\":2011:2020   */\n              dup4\n                /* \"#utility.yul\":2007:2024   */\n              add\n                /* \"#utility.yul\":1998:2004   */\n              dup5\n                /* \"#utility.yul\":1960:2025   */\n              tag_282\n              jump\t// in\n            tag_404:\n                /* \"#utility.yul\":1822:2032   */\n              swap3\n              swap2\n              pop\n              pop\n              jump\t// out\n                /* \"#utility.yul\":2038:2137   */\n            tag_283:\n                /* \"#utility.yul\":2090:2096   */\n              0x00\n                /* \"#utility.yul\":2124:2129   */\n              dup2\n                /* \"#utility.yul\":2118:2130   */\n              mload\n                /* \"#utility.yul\":2108:2130   */\n              swap1\n              pop\n                /* \"#utility.yul\":2038:2137   */\n              swap2\n              swap1\n              pop\n              jump\t// out\n                /* \"#utility.yul\":2143:2312   */\n            tag_284:\n                /* \"#utility.yul\":2227:2238   */\n              0x00\n                /* \"#utility.yul\":2261:2267   */\n              dup3\n                /* \"#utility.yul\":2256:2259   */\n              dup3\n                /* \"#utility.yul\":2249:2268   */\n              mstore\n                /* \"#utility.yul\":2301:2305   */\n              0x20\n                /* \"#utility.yul\":2296:2299   */\n              dup3\n                /* \"#utility.yul\":2292:2306   */\n              add\n                /* \"#utility.yul\":2277:2306   */\n              swap1\n              pop\n                /* \"#utility.yul\":2143:2312   */\n              swap3\n              swap2\n              pop\n              pop\n              jump\t// out\n                /* \"#utility.yul\":2318:2564   */\n            tag_285:\n                /* \"#utility.yul\":2399:2400   */\n              0x00\n                /* \"#utility.yul\":2409:2522   */\n            tag_408:\n                /* \"#utility.yul\":2423:2429   */\n              dup4\n                /* \"#utility.yul\":2420:2421   */\n              dup2\n                /* \"#utility.yul\":2417:2430   */\n              lt\n                /* \"#utility.yul\":2409:2522   */\n              iszero\n              tag_410\n              jumpi\n                /* \"#utility.yul\":2508:2509   */\n              dup1\n                /* \"#utility.yul\":2503:2506   */\n              dup3\n                /* \"#utility.yul\":2499:2510   */\n              add\n                /* \"#utility.yul\":2493:2511   */\n              mload\n                /* \"#utility.yul\":2489:2490   */\n              dup2\n                /* \"#utility.yul\":2484:2487   */\n              dup5\n                /* \"#utility.yul\":2480:2491   */\n              add\n                /* \"#utility.yul\":2473:2512   */\n              mstore\n                /* \"#utility.yul\":2445:2447   */\n              0x20\n                /* \"#utility.yul\":2442:2443   */\n              dup2\n                /* \"#utility.yul\":2438:2448   */\n              add\n                /* \"#utility.yul\":2433:2448   */\n              swap1\n              pop\n                /* \"#utility.yul\":2409:2522   */\n              jump(tag_408)\n            tag_410:\n                /* \"#utility.yul\":2556:2557   */\n              0x00\n                /* \"#utility.yul\":2547:2553   */\n              dup5\n                /* \"#utility.yul\":2542:2545   */\n              dup5\n                /* \"#utility.yul\":2538:2554   */\n              add\n                /* \"#utility.yul\":2531:2558   */\n              mstore\n                /* \"#utility.yul\":2380:2564   */\n              pop\n                /* \"#utility.yul\":2318:2564   */\n              pop\n              pop\n              pop\n              jump\t// out\n                /* \"#utility.yul\":2570:2672   */\n            tag_286:\n                /* \"#utility.yul\":2611:2617   */\n              0x00\n                /* \"#utility.yul\":2662:2664   */\n              0x1f\n                /* \"#utility.yul\":2658:2665   */\n              not\n                /* \"#utility.yul\":2653:2655   */\n              0x1f\n                /* \"#utility.yul\":2646:2651   */\n              dup4\n                /* \"#utility.yul\":2642:2656   */\n              add\n                /* \"#utility.yul\":2638:2666   */\n              and\n                /* \"#utility.yul\":2628:2666   */\n              swap1\n              pop\n                /* \"#utility.yul\":2570:2672   */\n              swap2\n              swap1\n              pop\n              jump\t// out\n                /* \"#utility.yul\":2678:3055   */\n            tag_287:\n                /* \"#utility.yul\":2766:2769   */\n              0x00\n                /* \"#utility.yul\":2794:2833   */\n              tag_413\n                /* \"#utility.yul\":2827:2832   */\n              dup3\n                /* \"#utility.yul\":2794:2833   */\n              tag_283\n              jump\t// in\n            tag_413:\n                /* \"#utility.yul\":2849:2920   */\n              tag_414\n                /* \"#utility.yul\":2913:2919   */\n              dup2\n                /* \"#utility.yul\":2908:2911   */\n              dup6\n                /* \"#utility.yul\":2849:2920   */\n              tag_284\n              jump\t// in\n            tag_414:\n                /* \"#utility.yul\":2842:2920   */\n              swap4\n              pop\n                /* \"#utility.yul\":2929:2994   */\n              tag_415\n                /* \"#utility.yul\":2987:2993   */\n              dup2\n                /* \"#utility.yul\":2982:2985   */\n              dup6\n                /* \"#utility.yul\":2975:2979   */\n              0x20\n                /* \"#utility.yul\":2968:2973   */\n              dup7\n                /* \"#utility.yul\":2964:2980   */\n              add\n                /* \"#utility.yul\":2929:2994   */\n              tag_285\n              jump\t// in\n            tag_415:\n                /* \"#utility.yul\":3019:3048   */\n              tag_416\n                /* \"#utility.yul\":3041:3047   */\n              dup2\n                /* \"#utility.yul\":3019:3048   */\n              tag_286\n              jump\t// in\n            tag_416:\n                /* \"#utility.yul\":3014:3017   */\n              dup5\n                /* \"#utility.yul\":3010:3049   */\n              add\n                /* \"#utility.yul\":3003:3049   */\n              swap2\n              pop\n                /* \"#utility.yul\":2770:3055   */\n              pop\n                /* \"#utility.yul\":2678:3055   */\n              swap3\n              swap2\n              pop\n              pop\n              jump\t// out\n                /* \"#utility.yul\":3061:3374   */\n            tag_57:\n                /* \"#utility.yul\":3174:3178   */\n              0x00\n                /* \"#utility.yul\":3212:3214   */\n              0x20\n                /* \"#utility.yul\":3201:3210   */\n              dup3\n                /* \"#utility.yul\":3197:3215   */\n              add\n                /* \"#utility.yul\":3189:3215   */\n              swap1\n              pop\n                /* \"#utility.yul\":3261:3270   */\n              dup2\n                /* \"#utility.yul\":3255:3259   */\n              dup2\n                /* \"#utility.yul\":3251:3271   */\n              sub\n                /* \"#utility.yul\":3247:3248   */\n              0x00\n                /* \"#utility.yul\":3236:3245   */\n              dup4\n                /* \"#utility.yul\":3232:3249   */\n              add\n                /* \"#utility.yul\":3225:3272   */\n              mstore\n                /* \"#utility.yul\":3289:3367   */\n              tag_418\n                /* \"#utility.yul\":3362:3366   */\n              dup2\n                /* \"#utility.yul\":3353:3359   */\n              dup5\n                /* \"#utility.yul\":3289:3367   */\n              tag_287\n              jump\t// in\n            tag_418:\n                /* \"#utility.yul\":3281:3367   */\n              swap1\n              pop\n                /* \"#utility.yul\":3061:3374   */\n              swap3\n              swap2\n              pop\n              pop\n              jump\t// out\n                /* \"#utility.yul\":3380:3498   */\n            tag_288:\n                /* \"#utility.yul\":3467:3491   */\n              tag_420\n                /* \"#utility.yul\":3485:3490   */\n              dup2\n                /* \"#utility.yul\":3467:3491   */\n              tag_276\n              jump\t// in\n            tag_420:\n                /* \"#utility.yul\":3462:3465   */\n              dup3\n                /* \"#utility.yul\":3455:3492   */\n              mstore\n                /* \"#utility.yul\":3380:3498   */\n              pop\n              pop\n              jump\t// out\n                /* \"#utility.yul\":3504:3726   */\n            tag_62:\n                /* \"#utility.yul\":3597:3601   */\n              0x00\n                /* \"#utility.yul\":3635:3637   */\n              0x20\n                /* \"#utility.yul\":3624:3633   */\n              dup3\n                /* \"#utility.yul\":3620:3638   */\n              add\n                /* \"#utility.yul\":3612:3638   */\n              swap1\n              pop\n                /* \"#utility.yul\":3648:3719   */\n              tag_422\n                /* \"#utility.yul\":3716:3717   */\n              0x00\n                /* \"#utility.yul\":3705:3714   */\n              dup4\n                /* \"#utility.yul\":3701:3718   */\n              add\n                /* \"#utility.yul\":3692:3698   */\n              dup5\n                /* \"#utility.yul\":3648:3719   */\n              tag_288\n              jump\t// in\n            tag_422:\n                /* \"#utility.yul\":3504:3726   */\n              swap3\n              swap2\n              pop\n              pop\n              jump\t// out\n                /* \"#utility.yul\":3732:3825   */\n            tag_289:\n                /* \"#utility.yul\":3768:3775   */\n              0x00\n                /* \"#utility.yul\":3808:3818   */\n              0xffffffff\n                /* \"#utility.yul\":3801:3806   */\n              dup3\n                /* \"#utility.yul\":3797:3819   */\n              and\n                /* \"#utility.yul\":3786:3819   */\n              swap1\n              pop\n                /* \"#utility.yul\":3732:3825   */\n              swap2\n              swap1\n              pop\n              jump\t// out\n                /* \"#utility.yul\":3831:3946   */\n            tag_290:\n                /* \"#utility.yul\":3916:3939   */\n              tag_425\n                /* \"#utility.yul\":3933:3938   */\n              dup2\n                /* \"#utility.yul\":3916:3939   */\n              tag_289\n              jump\t// in\n            tag_425:\n                /* \"#utility.yul\":3911:3914   */\n              dup3\n                /* \"#utility.yul\":3904:3940   */\n              mstore\n                /* \"#utility.yul\":3831:3946   */\n              pop\n              pop\n              jump\t// out\n                /* \"#utility.yul\":3952:4170   */\n            tag_73:\n                /* \"#utility.yul\":4043:4047   */\n              0x00\n                /* \"#utility.yul\":4081:4083   */\n              0x20\n                /* \"#utility.yul\":4070:4079   */\n              dup3\n                /* \"#utility.yul\":4066:4084   */\n              add\n                /* \"#utility.yul\":4058:4084   */\n              swap1\n              pop\n                /* \"#utility.yul\":4094:4163   */\n              tag_427\n                /* \"#utility.yul\":4160:4161   */\n              0x00\n                /* \"#utility.yul\":4149:4158   */\n              dup4\n                /* \"#utility.yul\":4145:4162   */\n              add\n                /* \"#utility.yul\":4136:4142   */\n              dup5\n                /* \"#utility.yul\":4094:4163   */\n              tag_290\n              jump\t// in\n            tag_427:\n                /* \"#utility.yul\":3952:4170   */\n              swap3\n              swap2\n              pop\n              pop\n              jump\t// out\n                /* \"#utility.yul\":4176:4280   */\n            tag_291:\n                /* \"#utility.yul\":4221:4228   */\n              0x00\n                /* \"#utility.yul\":4250:4274   */\n              tag_429\n                /* \"#utility.yul\":4268:4273   */\n              dup3\n                /* \"#utility.yul\":4250:4274   */\n              tag_275\n              jump\t// in\n            tag_429:\n                /* \"#utility.yul\":4239:4274   */\n              swap1\n              pop\n                /* \"#utility.yul\":4176:4280   */\n              swap2\n              swap1\n              pop\n              jump\t// out\n                /* \"#utility.yul\":4286:4424   */\n            tag_292:\n                /* \"#utility.yul\":4367:4399   */\n              tag_431\n                /* \"#utility.yul\":4393:4398   */\n              dup2\n                /* \"#utility.yul\":4367:4399   */\n              tag_291\n              jump\t// in\n            tag_431:\n                /* \"#utility.yul\":4360:4365   */\n              dup2\n                /* \"#utility.yul\":4357:4400   */\n              eq\n                /* \"#utility.yul\":4347:4418   */\n              tag_432\n              jumpi\n                /* \"#utility.yul\":4414:4415   */\n              0x00\n                /* \"#utility.yul\":4411:4412   */\n              dup1\n                /* \"#utility.yul\":4404:4416   */\n              revert\n                /* \"#utility.yul\":4347:4418   */\n            tag_432:\n                /* \"#utility.yul\":4286:4424   */\n              pop\n              jump\t// out\n                /* \"#utility.yul\":4430:4585   */\n            tag_293:\n                /* \"#utility.yul\":4484:4489   */\n              0x00\n                /* \"#utility.yul\":4522:4528   */\n              dup2\n                /* \"#utility.yul\":4509:4529   */\n              calldataload\n                /* \"#utility.yul\":4500:4529   */\n              swap1\n              pop\n                /* \"#utility.yul\":4538:4579   */\n              tag_434\n                /* \"#utility.yul\":4573:4578   */\n              dup2\n                /* \"#utility.yul\":4538:4579   */\n              tag_292\n              jump\t// in\n            tag_434:\n                /* \"#utility.yul\":4430:4585   */\n              swap3\n              swap2\n              pop\n              pop\n              jump\t// out\n                /* \"#utility.yul\":4591:4936   */\n            tag_79:\n                /* \"#utility.yul\":4658:4664   */\n              0x00\n                /* \"#utility.yul\":4707:4709   */\n              0x20\n                /* \"#utility.yul\":4695:4704   */\n              dup3\n                /* \"#utility.yul\":4686:4693   */\n              dup5\n                /* \"#utility.yul\":4682:4705   */\n              sub\n                /* \"#utility.yul\":4678:4710   */\n              slt\n                /* \"#utility.yul\":4675:4794   */\n              iszero\n              tag_436\n              jumpi\n                /* \"#utility.yul\":4713:4792   */\n              tag_437\n              tag_273\n              jump\t// in\n            tag_437:\n                /* \"#utility.yul\":4675:4794   */\n            tag_436:\n                /* \"#utility.yul\":4833:4834   */\n              0x00\n                /* \"#utility.yul\":4858:4919   */\n              tag_438\n                /* \"#utility.yul\":4911:4918   */\n              dup5\n                /* \"#utility.yul\":4902:4908   */\n              dup3\n                /* \"#utility.yul\":4891:4900   */\n              dup6\n                /* \"#utility.yul\":4887:4909   */\n              add\n                /* \"#utility.yul\":4858:4919   */\n              tag_293\n              jump\t// in\n            tag_438:\n                /* \"#utility.yul\":4848:4919   */\n              swap2\n              pop\n                /* \"#utility.yul\":4804:4929   */\n              pop\n                /* \"#utility.yul\":4591:4936   */\n              swap3\n              swap2\n              pop\n              pop\n              jump\t// out\n                /* \"#utility.yul\":4942:5122   */\n            tag_137:\n                /* \"#utility.yul\":4990:5067   */\n              0x4e487b7100000000000000000000000000000000000000000000000000000000\n                /* \"#utility.yul\":4987:4988   */\n              0x00\n                /* \"#utility.yul\":4980:5068   */\n              mstore\n                /* \"#utility.yul\":5087:5091   */\n              0x21\n                /* \"#utility.yul\":5084:5085   */\n              0x04\n                /* \"#utility.yul\":5077:5092   */\n              mstore\n                /* \"#utility.yul\":5111:5115   */\n              0x24\n                /* \"#utility.yul\":5108:5109   */\n              0x00\n                /* \"#utility.yul\":5101:5116   */\n              revert\n                /* \"#utility.yul\":5128:5251   */\n            tag_294:\n                /* \"#utility.yul\":5219:5220   */\n              0x04\n                /* \"#utility.yul\":5212:5217   */\n              dup2\n                /* \"#utility.yul\":5209:5221   */\n              lt\n                /* \"#utility.yul\":5199:5245   */\n              tag_441\n              jumpi\n                /* \"#utility.yul\":5225:5243   */\n              tag_442\n              tag_137\n              jump\t// in\n            tag_442:\n                /* \"#utility.yul\":5199:5245   */\n            tag_441:\n                /* \"#utility.yul\":5128:5251   */\n              pop\n              jump\t// out\n                /* \"#utility.yul\":5257:5404   */\n            tag_295:\n                /* \"#utility.yul\":5312:5319   */\n              0x00\n                /* \"#utility.yul\":5341:5346   */\n              dup2\n                /* \"#utility.yul\":5330:5346   */\n              swap1\n              pop\n                /* \"#utility.yul\":5347:5398   */\n              tag_444\n                /* \"#utility.yul\":5392:5397   */\n              dup3\n                /* \"#utility.yul\":5347:5398   */\n              tag_294\n              jump\t// in\n            tag_444:\n                /* \"#utility.yul\":5257:5404   */\n              swap2\n              swap1\n              pop\n              jump\t// out\n                /* \"#utility.yul\":5410:5557   */\n            tag_296:\n                /* \"#utility.yul\":5476:5485   */\n              0x00\n                /* \"#utility.yul\":5509:5551   */\n              tag_446\n                /* \"#utility.yul\":5545:5550   */\n              dup3\n                /* \"#utility.yul\":5509:5551   */\n              tag_295\n              jump\t// in\n            tag_446:\n                /* \"#utility.yul\":5496:5551   */\n              swap1\n              pop\n                /* \"#utility.yul\":5410:5557   */\n              swap2\n              swap1\n              pop\n              jump\t// out\n                /* \"#utility.yul\":5563:5726   */\n            tag_297:\n                /* \"#utility.yul\":5666:5719   */\n              tag_448\n                /* \"#utility.yul\":5713:5718   */\n              dup2\n                /* \"#utility.yul\":5666:5719   */\n              tag_296\n              jump\t// in\n            tag_448:\n                /* \"#utility.yul\":5661:5664   */\n              dup3\n                /* \"#utility.yul\":5654:5720   */\n              mstore\n                /* \"#utility.yul\":5563:5726   */\n              pop\n              pop\n              jump\t// out\n                /* \"#utility.yul\":5732:5986   */\n            tag_94:\n                /* \"#utility.yul\":5841:5845   */\n              0x00\n                /* \"#utility.yul\":5879:5881   */\n              0x20\n                /* \"#utility.yul\":5868:5877   */\n              dup3\n                /* \"#utility.yul\":5864:5882   */\n              add\n                /* \"#utility.yul\":5856:5882   */\n              swap1\n              pop\n                /* \"#utility.yul\":5892:5979   */\n              tag_450\n                /* \"#utility.yul\":5976:5977   */\n              0x00\n                /* \"#utility.yul\":5965:5974   */\n              dup4\n                /* \"#utility.yul\":5961:5978   */\n              add\n                /* \"#utility.yul\":5952:5958   */\n              dup5\n                /* \"#utility.yul\":5892:5979   */\n              tag_297\n              jump\t// in\n            tag_450:\n                /* \"#utility.yul\":5732:5986   */\n              swap3\n              swap2\n              pop\n              pop\n              jump\t// out\n                /* \"#utility.yul\":5992:6106   */\n            tag_298:\n                /* \"#utility.yul\":6059:6065   */\n              0x00\n                /* \"#utility.yul\":6093:6098   */\n              dup2\n                /* \"#utility.yul\":6087:6099   */\n              mload\n                /* \"#utility.yul\":6077:6099   */\n              swap1\n              pop\n                /* \"#utility.yul\":5992:6106   */\n              swap2\n              swap1\n              pop\n              jump\t// out\n                /* \"#utility.yul\":6112:6296   */\n            tag_299:\n                /* \"#utility.yul\":6211:6222   */\n              0x00\n                /* \"#utility.yul\":6245:6251   */\n              dup3\n                /* \"#utility.yul\":6240:6243   */\n              dup3\n                /* \"#utility.yul\":6233:6252   */\n              mstore\n                /* \"#utility.yul\":6285:6289   */\n              0x20\n                /* \"#utility.yul\":6280:6283   */\n              dup3\n                /* \"#utility.yul\":6276:6290   */\n              add\n                /* \"#utility.yul\":6261:6290   */\n              swap1\n              pop\n                /* \"#utility.yul\":6112:6296   */\n              swap3\n              swap2\n              pop\n              pop\n              jump\t// out\n                /* \"#utility.yul\":6302:6434   */\n            tag_300:\n                /* \"#utility.yul\":6369:6373   */\n              0x00\n                /* \"#utility.yul\":6392:6395   */\n              dup2\n                /* \"#utility.yul\":6384:6395   */\n              swap1\n              pop\n                /* \"#utility.yul\":6422:6426   */\n              0x20\n                /* \"#utility.yul\":6417:6420   */\n              dup3\n                /* \"#utility.yul\":6413:6427   */\n              add\n                /* \"#utility.yul\":6405:6427   */\n              swap1\n              pop\n                /* \"#utility.yul\":6302:6434   */\n              swap2\n              swap1\n              pop\n              jump\t// out\n                /* \"#utility.yul\":6440:6548   */\n            tag_301:\n                /* \"#utility.yul\":6517:6541   */\n              tag_455\n                /* \"#utility.yul\":6535:6540   */\n              dup2\n                /* \"#utility.yul\":6517:6541   */\n              tag_276\n              jump\t// in\n            tag_455:\n                /* \"#utility.yul\":6512:6515   */\n              dup3\n                /* \"#utility.yul\":6505:6542   */\n              mstore\n                /* \"#utility.yul\":6440:6548   */\n              pop\n              pop\n              jump\t// out\n                /* \"#utility.yul\":6554:6733   */\n            tag_302:\n                /* \"#utility.yul\":6623:6633   */\n              0x00\n                /* \"#utility.yul\":6644:6690   */\n              tag_457\n                /* \"#utility.yul\":6686:6689   */\n              dup4\n                /* \"#utility.yul\":6678:6684   */\n              dup4\n                /* \"#utility.yul\":6644:6690   */\n              tag_301\n              jump\t// in\n            tag_457:\n                /* \"#utility.yul\":6722:6726   */\n              0x20\n                /* \"#utility.yul\":6717:6720   */\n              dup4\n                /* \"#utility.yul\":6713:6727   */\n              add\n                /* \"#utility.yul\":6699:6727   */\n              swap1\n              pop\n                /* \"#utility.yul\":6554:6733   */\n              swap3\n              swap2\n              pop\n              pop\n              jump\t// out\n                /* \"#utility.yul\":6739:6852   */\n            tag_303:\n                /* \"#utility.yul\":6809:6813   */\n              0x00\n                /* \"#utility.yul\":6841:6845   */\n              0x20\n                /* \"#utility.yul\":6836:6839   */\n              dup3\n                /* \"#utility.yul\":6832:6846   */\n              add\n                /* \"#utility.yul\":6824:6846   */\n              swap1\n              pop\n                /* \"#utility.yul\":6739:6852   */\n              swap2\n              swap1\n              pop\n              jump\t// out\n                /* \"#utility.yul\":6888:7620   */\n            tag_304:\n                /* \"#utility.yul\":7007:7010   */\n              0x00\n                /* \"#utility.yul\":7036:7090   */\n              tag_460\n                /* \"#utility.yul\":7084:7089   */\n              dup3\n                /* \"#utility.yul\":7036:7090   */\n              tag_298\n              jump\t// in\n            tag_460:\n                /* \"#utility.yul\":7106:7192   */\n              tag_461\n                /* \"#utility.yul\":7185:7191   */\n              dup2\n                /* \"#utility.yul\":7180:7183   */\n              dup6\n                /* \"#utility.yul\":7106:7192   */\n              tag_299\n              jump\t// in\n            tag_461:\n                /* \"#utility.yul\":7099:7192   */\n              swap4\n              pop\n                /* \"#utility.yul\":7216:7272   */\n              tag_462\n                /* \"#utility.yul\":7266:7271   */\n              dup4\n                /* \"#utility.yul\":7216:7272   */\n              tag_300\n              jump\t// in\n            tag_462:\n                /* \"#utility.yul\":7295:7302   */\n              dup1\n                /* \"#utility.yul\":7326:7327   */\n              0x00\n                /* \"#utility.yul\":7311:7595   */\n            tag_463:\n                /* \"#utility.yul\":7336:7342   */\n              dup4\n                /* \"#utility.yul\":7333:7334   */\n              dup2\n                /* \"#utility.yul\":7330:7343   */\n              lt\n                /* \"#utility.yul\":7311:7595   */\n              iszero\n              tag_465\n              jumpi\n                /* \"#utility.yul\":7412:7418   */\n              dup2\n                /* \"#utility.yul\":7406:7419   */\n              mload\n                /* \"#utility.yul\":7439:7502   */\n              tag_466\n                /* \"#utility.yul\":7498:7501   */\n              dup9\n                /* \"#utility.yul\":7483:7496   */\n              dup3\n                /* \"#utility.yul\":7439:7502   */\n              tag_302\n              jump\t// in\n            tag_466:\n                /* \"#utility.yul\":7432:7502   */\n              swap8\n              pop\n                /* \"#utility.yul\":7525:7585   */\n              tag_467\n                /* \"#utility.yul\":7578:7584   */\n              dup4\n                /* \"#utility.yul\":7525:7585   */\n              tag_303\n              jump\t// in\n            tag_467:\n                /* \"#utility.yul\":7515:7585   */\n              swap3\n              pop\n                /* \"#utility.yul\":7371:7595   */\n              pop\n                /* \"#utility.yul\":7358:7359   */\n              0x01\n                /* \"#utility.yul\":7355:7356   */\n              dup2\n                /* \"#utility.yul\":7351:7360   */\n              add\n                /* \"#utility.yul\":7346:7360   */\n              swap1\n              pop\n                /* \"#utility.yul\":7311:7595   */\n              jump(tag_463)\n            tag_465:\n                /* \"#utility.yul\":7315:7329   */\n              pop\n                /* \"#utility.yul\":7611:7614   */\n              dup6\n                /* \"#utility.yul\":7604:7614   */\n              swap4\n              pop\n                /* \"#utility.yul\":7012:7620   */\n              pop\n              pop\n              pop\n                /* \"#utility.yul\":6888:7620   */\n              swap3\n              swap2\n              pop\n              pop\n              jump\t// out\n                /* \"#utility.yul\":7626:7999   */\n            tag_107:\n                /* \"#utility.yul\":7769:7773   */\n              0x00\n                /* \"#utility.yul\":7807:7809   */\n              0x20\n                /* \"#utility.yul\":7796:7805   */\n              dup3\n                /* \"#utility.yul\":7792:7810   */\n              add\n                /* \"#utility.yul\":7784:7810   */\n              swap1\n              pop\n                /* \"#utility.yul\":7856:7865   */\n              dup2\n                /* \"#utility.yul\":7850:7854   */\n              dup2\n                /* \"#utility.yul\":7846:7866   */\n              sub\n                /* \"#utility.yul\":7842:7843   */\n              0x00\n                /* \"#utility.yul\":7831:7840   */\n              dup4\n                /* \"#utility.yul\":7827:7844   */\n              add\n                /* \"#utility.yul\":7820:7867   */\n              mstore\n                /* \"#utility.yul\":7884:7992   */\n              tag_469\n                /* \"#utility.yul\":7987:7991   */\n              dup2\n                /* \"#utility.yul\":7978:7984   */\n              dup5\n                /* \"#utility.yul\":7884:7992   */\n              tag_304\n              jump\t// in\n            tag_469:\n                /* \"#utility.yul\":7876:7992   */\n              swap1\n              pop\n                /* \"#utility.yul\":7626:7999   */\n              swap3\n              swap2\n              pop\n              pop\n              jump\t// out\n                /* \"#utility.yul\":8005:8122   */\n            tag_305:\n                /* \"#utility.yul\":8114:8115   */\n              0x00\n                /* \"#utility.yul\":8111:8112   */\n              dup1\n                /* \"#utility.yul\":8104:8116   */\n              revert\n                /* \"#utility.yul\":8128:8245   */\n            tag_306:\n                /* \"#utility.yul\":8237:8238   */\n              0x00\n                /* \"#utility.yul\":8234:8235   */\n              dup1\n                /* \"#utility.yul\":8227:8239   */\n              revert\n                /* \"#utility.yul\":8251:8431   */\n            tag_307:\n                /* \"#utility.yul\":8299:8376   */\n              0x4e487b7100000000000000000000000000000000000000000000000000000000\n                /* \"#utility.yul\":8296:8297   */\n              0x00\n                /* \"#utility.yul\":8289:8377   */\n              mstore\n                /* \"#utility.yul\":8396:8400   */\n              0x41\n                /* \"#utility.yul\":8393:8394   */\n              0x04\n                /* \"#utility.yul\":8386:8401   */\n              mstore\n                /* \"#utility.yul\":8420:8424   */\n              0x24\n                /* \"#utility.yul\":8417:8418   */\n              0x00\n                /* \"#utility.yul\":8410:8425   */\n              revert\n                /* \"#utility.yul\":8437:8718   */\n            tag_308:\n                /* \"#utility.yul\":8520:8547   */\n              tag_474\n                /* \"#utility.yul\":8542:8546   */\n              dup3\n                /* \"#utility.yul\":8520:8547   */\n              tag_286\n              jump\t// in\n            tag_474:\n                /* \"#utility.yul\":8512:8518   */\n              dup2\n                /* \"#utility.yul\":8508:8548   */\n              add\n                /* \"#utility.yul\":8650:8656   */\n              dup2\n                /* \"#utility.yul\":8638:8648   */\n              dup2\n                /* \"#utility.yul\":8635:8657   */\n              lt\n                /* \"#utility.yul\":8614:8632   */\n              0xffffffffffffffff\n                /* \"#utility.yul\":8602:8612   */\n              dup3\n                /* \"#utility.yul\":8599:8633   */\n              gt\n                /* \"#utility.yul\":8596:8658   */\n              or\n                /* \"#utility.yul\":8593:8681   */\n              iszero\n              tag_475\n              jumpi\n                /* \"#utility.yul\":8661:8679   */\n              tag_476\n              tag_307\n              jump\t// in\n            tag_476:\n                /* \"#utility.yul\":8593:8681   */\n            tag_475:\n                /* \"#utility.yul\":8701:8711   */\n              dup1\n                /* \"#utility.yul\":8697:8699   */\n              0x40\n                /* \"#utility.yul\":8690:8712   */\n              mstore\n                /* \"#utility.yul\":8480:8718   */\n              pop\n                /* \"#utility.yul\":8437:8718   */\n              pop\n              pop\n              jump\t// out\n                /* \"#utility.yul\":8724:8853   */\n            tag_309:\n                /* \"#utility.yul\":8758:8764   */\n              0x00\n                /* \"#utility.yul\":8785:8805   */\n              tag_478\n              tag_272\n              jump\t// in\n            tag_478:\n                /* \"#utility.yul\":8775:8805   */\n              swap1\n              pop\n                /* \"#utility.yul\":8814:8847   */\n              tag_479\n                /* \"#utility.yul\":8842:8846   */\n              dup3\n                /* \"#utility.yul\":8834:8840   */\n              dup3\n                /* \"#utility.yul\":8814:8847   */\n              tag_308\n              jump\t// in\n            tag_479:\n                /* \"#utility.yul\":8724:8853   */\n              swap2\n              swap1\n              pop\n              jump\t// out\n                /* \"#utility.yul\":8859:9167   */\n            tag_310:\n                /* \"#utility.yul\":8921:8925   */\n              0x00\n                /* \"#utility.yul\":9011:9029   */\n              0xffffffffffffffff\n                /* \"#utility.yul\":9003:9009   */\n              dup3\n                /* \"#utility.yul\":9000:9030   */\n              gt\n                /* \"#utility.yul\":8997:9053   */\n              iszero\n              tag_481\n              jumpi\n                /* \"#utility.yul\":9033:9051   */\n              tag_482\n              tag_307\n              jump\t// in\n            tag_482:\n                /* \"#utility.yul\":8997:9053   */\n            tag_481:\n                /* \"#utility.yul\":9071:9100   */\n              tag_483\n                /* \"#utility.yul\":9093:9099   */\n              dup3\n                /* \"#utility.yul\":9071:9100   */\n              tag_286\n              jump\t// in\n            tag_483:\n                /* \"#utility.yul\":9063:9100   */\n              swap1\n              pop\n                /* \"#utility.yul\":9155:9159   */\n              0x20\n                /* \"#utility.yul\":9149:9153   */\n              dup2\n                /* \"#utility.yul\":9145:9160   */\n              add\n                /* \"#utility.yul\":9137:9160   */\n              swap1\n              pop\n                /* \"#utility.yul\":8859:9167   */\n              swap2\n              swap1\n              pop\n              jump\t// out\n                /* \"#utility.yul\":9173:9319   */\n            tag_311:\n                /* \"#utility.yul\":9270:9276   */\n              dup3\n                /* \"#utility.yul\":9265:9268   */\n              dup2\n                /* \"#utility.yul\":9260:9263   */\n              dup4\n                /* \"#utility.yul\":9247:9277   */\n              calldatacopy\n                /* \"#utility.yul\":9311:9312   */\n              0x00\n                /* \"#utility.yul\":9302:9308   */\n              dup4\n                /* \"#utility.yul\":9297:9300   */\n              dup4\n                /* \"#utility.yul\":9293:9309   */\n              add\n                /* \"#utility.yul\":9286:9313   */\n              mstore\n                /* \"#utility.yul\":9173:9319   */\n              pop\n              pop\n              pop\n              jump\t// out\n                /* \"#utility.yul\":9325:9750   */\n            tag_312:\n                /* \"#utility.yul\":9403:9408   */\n              0x00\n                /* \"#utility.yul\":9428:9494   */\n              tag_486\n                /* \"#utility.yul\":9444:9493   */\n              tag_487\n                /* \"#utility.yul\":9486:9492   */\n              dup5\n                /* \"#utility.yul\":9444:9493   */\n              tag_310\n              jump\t// in\n            tag_487:\n                /* \"#utility.yul\":9428:9494   */\n              tag_309\n              jump\t// in\n            tag_486:\n                /* \"#utility.yul\":9419:9494   */\n              swap1\n              pop\n                /* \"#utility.yul\":9517:9523   */\n              dup3\n                /* \"#utility.yul\":9510:9515   */\n              dup2\n                /* \"#utility.yul\":9503:9524   */\n              mstore\n                /* \"#utility.yul\":9555:9559   */\n              0x20\n                /* \"#utility.yul\":9548:9553   */\n              dup2\n                /* \"#utility.yul\":9544:9560   */\n              add\n                /* \"#utility.yul\":9593:9596   */\n              dup5\n                /* \"#utility.yul\":9584:9590   */\n              dup5\n                /* \"#utility.yul\":9579:9582   */\n              dup5\n                /* \"#utility.yul\":9575:9591   */\n              add\n                /* \"#utility.yul\":9572:9597   */\n              gt\n                /* \"#utility.yul\":9569:9681   */\n              iszero\n              tag_488\n              jumpi\n                /* \"#utility.yul\":9600:9679   */\n              tag_489\n              tag_306\n              jump\t// in\n            tag_489:\n                /* \"#utility.yul\":9569:9681   */\n            tag_488:\n                /* \"#utility.yul\":9690:9744   */\n              tag_490\n                /* \"#utility.yul\":9737:9743   */\n              dup5\n                /* \"#utility.yul\":9732:9735   */\n              dup3\n                /* \"#utility.yul\":9727:9730   */\n              dup6\n                /* \"#utility.yul\":9690:9744   */\n              tag_311\n              jump\t// in\n            tag_490:\n                /* \"#utility.yul\":9409:9750   */\n              pop\n                /* \"#utility.yul\":9325:9750   */\n              swap4\n              swap3\n              pop\n              pop\n              pop\n              jump\t// out\n                /* \"#utility.yul\":9770:10110   */\n            tag_313:\n                /* \"#utility.yul\":9826:9831   */\n              0x00\n                /* \"#utility.yul\":9875:9878   */\n              dup3\n                /* \"#utility.yul\":9868:9872   */\n              0x1f\n                /* \"#utility.yul\":9860:9866   */\n              dup4\n                /* \"#utility.yul\":9856:9873   */\n              add\n                /* \"#utility.yul\":9852:9879   */\n              slt\n                /* \"#utility.yul\":9842:9964   */\n              tag_492\n              jumpi\n                /* \"#utility.yul\":9883:9962   */\n              tag_493\n              tag_305\n              jump\t// in\n            tag_493:\n                /* \"#utility.yul\":9842:9964   */\n            tag_492:\n                /* \"#utility.yul\":10000:10006   */\n              dup2\n                /* \"#utility.yul\":9987:10007   */\n              calldataload\n                /* \"#utility.yul\":10025:10104   */\n              tag_494\n                /* \"#utility.yul\":10100:10103   */\n              dup5\n                /* \"#utility.yul\":10092:10098   */\n              dup3\n                /* \"#utility.yul\":10085:10089   */\n              0x20\n                /* \"#utility.yul\":10077:10083   */\n              dup7\n                /* \"#utility.yul\":10073:10090   */\n              add\n                /* \"#utility.yul\":10025:10104   */\n              tag_312\n              jump\t// in\n            tag_494:\n                /* \"#utility.yul\":10016:10104   */\n              swap2\n              pop\n                /* \"#utility.yul\":9832:10110   */\n              pop\n                /* \"#utility.yul\":9770:10110   */\n              swap3\n              swap2\n              pop\n              pop\n              jump\t// out\n                /* \"#utility.yul\":10116:10238   */\n            tag_314:\n                /* \"#utility.yul\":10189:10213   */\n              tag_496\n                /* \"#utility.yul\":10207:10212   */\n              dup2\n                /* \"#utility.yul\":10189:10213   */\n              tag_279\n              jump\t// in\n            tag_496:\n                /* \"#utility.yul\":10182:10187   */\n              dup2\n                /* \"#utility.yul\":10179:10214   */\n              eq\n                /* \"#utility.yul\":10169:10232   */\n              tag_497\n              jumpi\n                /* \"#utility.yul\":10228:10229   */\n              0x00\n                /* \"#utility.yul\":10225:10226   */\n              dup1\n                /* \"#utility.yul\":10218:10230   */\n              revert\n                /* \"#utility.yul\":10169:10232   */\n            tag_497:\n                /* \"#utility.yul\":10116:10238   */\n              pop\n              jump\t// out\n                /* \"#utility.yul\":10244:10383   */\n            tag_315:\n                /* \"#utility.yul\":10290:10295   */\n              0x00\n                /* \"#utility.yul\":10328:10334   */\n              dup2\n                /* \"#utility.yul\":10315:10335   */\n              calldataload\n                /* \"#utility.yul\":10306:10335   */\n              swap1\n              pop\n                /* \"#utility.yul\":10344:10377   */\n              tag_499\n                /* \"#utility.yul\":10371:10376   */\n              dup2\n                /* \"#utility.yul\":10344:10377   */\n              tag_314\n              jump\t// in\n            tag_499:\n                /* \"#utility.yul\":10244:10383   */\n              swap3\n              swap2\n              pop\n              pop\n              jump\t// out\n                /* \"#utility.yul\":10389:11043   */\n            tag_115:\n                /* \"#utility.yul\":10467:10473   */\n              0x00\n                /* \"#utility.yul\":10475:10481   */\n              dup1\n                /* \"#utility.yul\":10524:10526   */\n              0x40\n                /* \"#utility.yul\":10512:10521   */\n              dup4\n                /* \"#utility.yul\":10503:10510   */\n              dup6\n                /* \"#utility.yul\":10499:10522   */\n              sub\n                /* \"#utility.yul\":10495:10527   */\n              slt\n                /* \"#utility.yul\":10492:10611   */\n              iszero\n              tag_501\n              jumpi\n                /* \"#utility.yul\":10530:10609   */\n              tag_502\n              tag_273\n              jump\t// in\n            tag_502:\n                /* \"#utility.yul\":10492:10611   */\n            tag_501:\n                /* \"#utility.yul\":10678:10679   */\n              0x00\n                /* \"#utility.yul\":10667:10676   */\n              dup4\n                /* \"#utility.yul\":10663:10680   */\n              add\n                /* \"#utility.yul\":10650:10681   */\n              calldataload\n                /* \"#utility.yul\":10708:10726   */\n              0xffffffffffffffff\n                /* \"#utility.yul\":10700:10706   */\n              dup2\n                /* \"#utility.yul\":10697:10727   */\n              gt\n                /* \"#utility.yul\":10694:10811   */\n              iszero\n              tag_503\n              jumpi\n                /* \"#utility.yul\":10730:10809   */\n              tag_504\n              tag_274\n              jump\t// in\n            tag_504:\n                /* \"#utility.yul\":10694:10811   */\n            tag_503:\n                /* \"#utility.yul\":10835:10898   */\n              tag_505\n                /* \"#utility.yul\":10890:10897   */\n              dup6\n                /* \"#utility.yul\":10881:10887   */\n              dup3\n                /* \"#utility.yul\":10870:10879   */\n              dup7\n                /* \"#utility.yul\":10866:10888   */\n              add\n                /* \"#utility.yul\":10835:10898   */\n              tag_313\n              jump\t// in\n            tag_505:\n                /* \"#utility.yul\":10825:10898   */\n              swap3\n              pop\n                /* \"#utility.yul\":10621:10908   */\n              pop\n                /* \"#utility.yul\":10947:10949   */\n              0x20\n                /* \"#utility.yul\":10973:11026   */\n              tag_506\n                /* \"#utility.yul\":11018:11025   */\n              dup6\n                /* \"#utility.yul\":11009:11015   */\n              dup3\n                /* \"#utility.yul\":10998:11007   */\n              dup7\n                /* \"#utility.yul\":10994:11016   */\n              add\n                /* \"#utility.yul\":10973:11026   */\n              tag_315\n              jump\t// in\n            tag_506:\n                /* \"#utility.yul\":10963:11026   */\n              swap2\n              pop\n                /* \"#utility.yul\":10918:11036   */\n              pop\n                /* \"#utility.yul\":10389:11043   */\n              swap3\n              pop\n              swap3\n              swap1\n              pop\n              jump\t// out\n                /* \"#utility.yul\":11049:11378   */\n            tag_123:\n                /* \"#utility.yul\":11108:11114   */\n              0x00\n                /* \"#utility.yul\":11157:11159   */\n              0x20\n                /* \"#utility.yul\":11145:11154   */\n              dup3\n                /* \"#utility.yul\":11136:11143   */\n              dup5\n                /* \"#utility.yul\":11132:11155   */\n              sub\n                /* \"#utility.yul\":11128:11160   */\n              slt\n                /* \"#utility.yul\":11125:11244   */\n              iszero\n              tag_508\n              jumpi\n                /* \"#utility.yul\":11163:11242   */\n              tag_509\n              tag_273\n              jump\t// in\n            tag_509:\n                /* \"#utility.yul\":11125:11244   */\n            tag_508:\n                /* \"#utility.yul\":11283:11284   */\n              0x00\n                /* \"#utility.yul\":11308:11361   */\n              tag_510\n                /* \"#utility.yul\":11353:11360   */\n              dup5\n                /* \"#utility.yul\":11344:11350   */\n              dup3\n                /* \"#utility.yul\":11333:11342   */\n              dup6\n                /* \"#utility.yul\":11329:11351   */\n              add\n                /* \"#utility.yul\":11308:11361   */\n              tag_315\n              jump\t// in\n            tag_510:\n                /* \"#utility.yul\":11298:11361   */\n              swap2\n              pop\n                /* \"#utility.yul\":11254:11371   */\n              pop\n                /* \"#utility.yul\":11049:11378   */\n              swap3\n              swap2\n              pop\n              pop\n              jump\t// out\n                /* \"#utility.yul\":11384:11557   */\n            tag_316:\n                /* \"#utility.yul\":11524:11549   */\n              0x696e76616c6964206164647265737320746f2068616c74000000000000000000\n                /* \"#utility.yul\":11520:11521   */\n              0x00\n                /* \"#utility.yul\":11512:11518   */\n              dup3\n                /* \"#utility.yul\":11508:11522   */\n              add\n                /* \"#utility.yul\":11501:11550   */\n              mstore\n                /* \"#utility.yul\":11384:11557   */\n              pop\n              jump\t// out\n                /* \"#utility.yul\":11563:11929   */\n            tag_317:\n                /* \"#utility.yul\":11705:11708   */\n              0x00\n                /* \"#utility.yul\":11726:11793   */\n              tag_513\n                /* \"#utility.yul\":11790:11792   */\n              0x17\n                /* \"#utility.yul\":11785:11788   */\n              dup4\n                /* \"#utility.yul\":11726:11793   */\n              tag_284\n              jump\t// in\n            tag_513:\n                /* \"#utility.yul\":11719:11793   */\n              swap2\n              pop\n                /* \"#utility.yul\":11802:11895   */\n              tag_514\n                /* \"#utility.yul\":11891:11894   */\n              dup3\n                /* \"#utility.yul\":11802:11895   */\n              tag_316\n              jump\t// in\n            tag_514:\n                /* \"#utility.yul\":11920:11922   */\n              0x20\n                /* \"#utility.yul\":11915:11918   */\n              dup3\n                /* \"#utility.yul\":11911:11923   */\n              add\n                /* \"#utility.yul\":11904:11923   */\n              swap1\n              pop\n                /* \"#utility.yul\":11563:11929   */\n              swap2\n              swap1\n              pop\n              jump\t// out\n                /* \"#utility.yul\":11935:12354   */\n            tag_134:\n                /* \"#utility.yul\":12101:12105   */\n              0x00\n                /* \"#utility.yul\":12139:12141   */\n              0x20\n                /* \"#utility.yul\":12128:12137   */\n              dup3\n                /* \"#utility.yul\":12124:12142   */\n              add\n                /* \"#utility.yul\":12116:12142   */\n              swap1\n              pop\n                /* \"#utility.yul\":12188:12197   */\n              dup2\n                /* \"#utility.yul\":12182:12186   */\n              dup2\n                /* \"#utility.yul\":12178:12198   */\n              sub\n                /* \"#utility.yul\":12174:12175   */\n              0x00\n                /* \"#utility.yul\":12163:12172   */\n              dup4\n                /* \"#utility.yul\":12159:12176   */\n              add\n                /* \"#utility.yul\":12152:12199   */\n              mstore\n                /* \"#utility.yul\":12216:12347   */\n              tag_516\n                /* \"#utility.yul\":12342:12346   */\n              dup2\n                /* \"#utility.yul\":12216:12347   */\n              tag_317\n              jump\t// in\n            tag_516:\n                /* \"#utility.yul\":12208:12347   */\n              swap1\n              pop\n                /* \"#utility.yul\":11935:12354   */\n              swap2\n              swap1\n              pop\n              jump\t// out\n                /* \"#utility.yul\":12360:12540   */\n            tag_318:\n                /* \"#utility.yul\":12408:12485   */\n              0x4e487b7100000000000000000000000000000000000000000000000000000000\n                /* \"#utility.yul\":12405:12406   */\n              0x00\n                /* \"#utility.yul\":12398:12486   */\n              mstore\n                /* \"#utility.yul\":12505:12509   */\n              0x22\n                /* \"#utility.yul\":12502:12503   */\n              0x04\n                /* \"#utility.yul\":12495:12510   */\n              mstore\n                /* \"#utility.yul\":12529:12533   */\n              0x24\n                /* \"#utility.yul\":12526:12527   */\n              0x00\n                /* \"#utility.yul\":12519:12534   */\n              revert\n                /* \"#utility.yul\":12546:12866   */\n            tag_140:\n                /* \"#utility.yul\":12590:12596   */\n              0x00\n                /* \"#utility.yul\":12627:12628   */\n              0x02\n                /* \"#utility.yul\":12621:12625   */\n              dup3\n                /* \"#utility.yul\":12617:12629   */\n              div\n                /* \"#utility.yul\":12607:12629   */\n              swap1\n              pop\n                /* \"#utility.yul\":12674:12675   */\n              0x01\n                /* \"#utility.yul\":12668:12672   */\n              dup3\n                /* \"#utility.yul\":12664:12676   */\n              and\n                /* \"#utility.yul\":12695:12713   */\n              dup1\n                /* \"#utility.yul\":12685:12766   */\n              tag_519\n              jumpi\n                /* \"#utility.yul\":12751:12755   */\n              0x7f\n                /* \"#utility.yul\":12743:12749   */\n              dup3\n                /* \"#utility.yul\":12739:12756   */\n              and\n                /* \"#utility.yul\":12729:12756   */\n              swap2\n              pop\n                /* \"#utility.yul\":12685:12766   */\n            tag_519:\n                /* \"#utility.yul\":12813:12815   */\n              0x20\n                /* \"#utility.yul\":12805:12811   */\n              dup3\n                /* \"#utility.yul\":12802:12816   */\n              lt\n                /* \"#utility.yul\":12782:12800   */\n              dup2\n                /* \"#utility.yul\":12779:12817   */\n              sub\n                /* \"#utility.yul\":12776:12860   */\n              tag_520\n              jumpi\n                /* \"#utility.yul\":12832:12850   */\n              tag_521\n              tag_318\n              jump\t// in\n            tag_521:\n                /* \"#utility.yul\":12776:12860   */\n            tag_520:\n                /* \"#utility.yul\":12597:12866   */\n              pop\n                /* \"#utility.yul\":12546:12866   */\n              swap2\n              swap1\n              pop\n              jump\t// out\n                /* \"#utility.yul\":12872:13042   */\n            tag_319:\n                /* \"#utility.yul\":13012:13034   */\n              0x616c72656164792066756e646564207374617465000000000000000000000000\n                /* \"#utility.yul\":13008:13009   */\n              0x00\n                /* \"#utility.yul\":13000:13006   */\n              dup3\n                /* \"#utility.yul\":12996:13010   */\n              add\n                /* \"#utility.yul\":12989:13035   */\n              mstore\n                /* \"#utility.yul\":12872:13042   */\n              pop\n              jump\t// out\n                /* \"#utility.yul\":13048:13414   */\n            tag_320:\n                /* \"#utility.yul\":13190:13193   */\n              0x00\n                /* \"#utility.yul\":13211:13278   */\n              tag_524\n                /* \"#utility.yul\":13275:13277   */\n              0x14\n                /* \"#utility.yul\":13270:13273   */\n              dup4\n                /* \"#utility.yul\":13211:13278   */\n              tag_284\n              jump\t// in\n            tag_524:\n                /* \"#utility.yul\":13204:13278   */\n              swap2\n              pop\n                /* \"#utility.yul\":13287:13380   */\n              tag_525\n                /* \"#utility.yul\":13376:13379   */\n              dup3\n                /* \"#utility.yul\":13287:13380   */\n              tag_319\n              jump\t// in\n            tag_525:\n                /* \"#utility.yul\":13405:13407   */\n              0x20\n                /* \"#utility.yul\":13400:13403   */\n              dup3\n                /* \"#utility.yul\":13396:13408   */\n              add\n                /* \"#utility.yul\":13389:13408   */\n              swap1\n              pop\n                /* \"#utility.yul\":13048:13414   */\n              swap2\n              swap1\n              pop\n              jump\t// out\n                /* \"#utility.yul\":13420:13839   */\n            tag_157:\n                /* \"#utility.yul\":13586:13590   */\n              0x00\n                /* \"#utility.yul\":13624:13626   */\n              0x20\n                /* \"#utility.yul\":13613:13622   */\n              dup3\n                /* \"#utility.yul\":13609:13627   */\n              add\n                /* \"#utility.yul\":13601:13627   */\n              swap1\n              pop\n                /* \"#utility.yul\":13673:13682   */\n              dup2\n                /* \"#utility.yul\":13667:13671   */\n              dup2\n                /* \"#utility.yul\":13663:13683   */\n              sub\n                /* \"#utility.yul\":13659:13660   */\n              0x00\n                /* \"#utility.yul\":13648:13657   */\n              dup4\n                /* \"#utility.yul\":13644:13661   */\n              add\n                /* \"#utility.yul\":13637:13684   */\n              mstore\n                /* \"#utility.yul\":13701:13832   */\n              tag_527\n                /* \"#utility.yul\":13827:13831   */\n              dup2\n                /* \"#utility.yul\":13701:13832   */\n              tag_320\n              jump\t// in\n            tag_527:\n                /* \"#utility.yul\":13693:13832   */\n              swap1\n              pop\n                /* \"#utility.yul\":13420:13839   */\n              swap2\n              swap1\n              pop\n              jump\t// out\n                /* \"#utility.yul\":13845:14019   */\n            tag_321:\n                /* \"#utility.yul\":13985:14011   */\n              0x696e616c696420616d6f756e7420666f7220726566756e640000000000000000\n                /* \"#utility.yul\":13981:13982   */\n              0x00\n                /* \"#utility.yul\":13973:13979   */\n              dup3\n                /* \"#utility.yul\":13969:13983   */\n              add\n                /* \"#utility.yul\":13962:14012   */\n              mstore\n                /* \"#utility.yul\":13845:14019   */\n              pop\n              jump\t// out\n                /* \"#utility.yul\":14025:14391   */\n            tag_322:\n                /* \"#utility.yul\":14167:14170   */\n              0x00\n                /* \"#utility.yul\":14188:14255   */\n              tag_530\n                /* \"#utility.yul\":14252:14254   */\n              0x18\n                /* \"#utility.yul\":14247:14250   */\n              dup4\n                /* \"#utility.yul\":14188:14255   */\n              tag_284\n              jump\t// in\n            tag_530:\n                /* \"#utility.yul\":14181:14255   */\n              swap2\n              pop\n                /* \"#utility.yul\":14264:14357   */\n              tag_531\n                /* \"#utility.yul\":14353:14356   */\n              dup3\n                /* \"#utility.yul\":14264:14357   */\n              tag_321\n              jump\t// in\n            tag_531:\n                /* \"#utility.yul\":14382:14384   */\n              0x20\n                /* \"#utility.yul\":14377:14380   */\n              dup3\n                /* \"#utility.yul\":14373:14385   */\n              add\n                /* \"#utility.yul\":14366:14385   */\n              swap1\n              pop\n                /* \"#utility.yul\":14025:14391   */\n              swap2\n              swap1\n              pop\n              jump\t// out\n                /* \"#utility.yul\":14397:14816   */\n            tag_160:\n                /* \"#utility.yul\":14563:14567   */\n              0x00\n                /* \"#utility.yul\":14601:14603   */\n              0x20\n                /* \"#utility.yul\":14590:14599   */\n              dup3\n                /* \"#utility.yul\":14586:14604   */\n              add\n                /* \"#utility.yul\":14578:14604   */\n              swap1\n              pop\n                /* \"#utility.yul\":14650:14659   */\n              dup2\n                /* \"#utility.yul\":14644:14648   */\n              dup2\n                /* \"#utility.yul\":14640:14660   */\n              sub\n                /* \"#utility.yul\":14636:14637   */\n              0x00\n                /* \"#utility.yul\":14625:14634   */\n              dup4\n                /* \"#utility.yul\":14621:14638   */\n              add\n                /* \"#utility.yul\":14614:14661   */\n              mstore\n                /* \"#utility.yul\":14678:14809   */\n              tag_533\n                /* \"#utility.yul\":14804:14808   */\n              dup2\n                /* \"#utility.yul\":14678:14809   */\n              tag_322\n              jump\t// in\n            tag_533:\n                /* \"#utility.yul\":14670:14809   */\n              swap1\n              pop\n                /* \"#utility.yul\":14397:14816   */\n              swap2\n              swap1\n              pop\n              jump\t// out\n                /* \"#utility.yul\":14822:14986   */\n            tag_323:\n                /* \"#utility.yul\":14962:14978   */\n              0x616464726573732064656e696564000000000000000000000000000000000000\n                /* \"#utility.yul\":14958:14959   */\n              0x00\n                /* \"#utility.yul\":14950:14956   */\n              dup3\n                /* \"#utility.yul\":14946:14960   */\n              add\n                /* \"#utility.yul\":14939:14979   */\n              mstore\n                /* \"#utility.yul\":14822:14986   */\n              pop\n              jump\t// out\n                /* \"#utility.yul\":14992:15358   */\n            tag_324:\n                /* \"#utility.yul\":15134:15137   */\n              0x00\n                /* \"#utility.yul\":15155:15222   */\n              tag_536\n                /* \"#utility.yul\":15219:15221   */\n              0x0e\n                /* \"#utility.yul\":15214:15217   */\n              dup4\n                /* \"#utility.yul\":15155:15222   */\n              tag_284\n              jump\t// in\n            tag_536:\n                /* \"#utility.yul\":15148:15222   */\n              swap2\n              pop\n                /* \"#utility.yul\":15231:15324   */\n              tag_537\n                /* \"#utility.yul\":15320:15323   */\n              dup3\n                /* \"#utility.yul\":15231:15324   */\n              tag_323\n              jump\t// in\n            tag_537:\n                /* \"#utility.yul\":15349:15351   */\n              0x20\n                /* \"#utility.yul\":15344:15347   */\n              dup3\n                /* \"#utility.yul\":15340:15352   */\n              add\n                /* \"#utility.yul\":15333:15352   */\n              swap1\n              pop\n                /* \"#utility.yul\":14992:15358   */\n              swap2\n              swap1\n              pop\n              jump\t// out\n                /* \"#utility.yul\":15364:15783   */\n            tag_167:\n                /* \"#utility.yul\":15530:15534   */\n              0x00\n                /* \"#utility.yul\":15568:15570   */\n              0x20\n                /* \"#utility.yul\":15557:15566   */\n              dup3\n                /* \"#utility.yul\":15553:15571   */\n              add\n                /* \"#utility.yul\":15545:15571   */\n              swap1\n              pop\n                /* \"#utility.yul\":15617:15626   */\n              dup2\n                /* \"#utility.yul\":15611:15615   */\n              dup2\n                /* \"#utility.yul\":15607:15627   */\n              sub\n                /* \"#utility.yul\":15603:15604   */\n              0x00\n                /* \"#utility.yul\":15592:15601   */\n              dup4\n                /* \"#utility.yul\":15588:15605   */\n              add\n                /* \"#utility.yul\":15581:15628   */\n              mstore\n                /* \"#utility.yul\":15645:15776   */\n              tag_539\n                /* \"#utility.yul\":15771:15775   */\n              dup2\n                /* \"#utility.yul\":15645:15776   */\n              tag_324\n              jump\t// in\n            tag_539:\n                /* \"#utility.yul\":15637:15776   */\n              swap1\n              pop\n                /* \"#utility.yul\":15364:15783   */\n              swap2\n              swap1\n              pop\n              jump\t// out\n                /* \"#utility.yul\":15789:15936   */\n            tag_325:\n                /* \"#utility.yul\":15890:15901   */\n              0x00\n                /* \"#utility.yul\":15927:15930   */\n              dup2\n                /* \"#utility.yul\":15912:15930   */\n              swap1\n              pop\n                /* \"#utility.yul\":15789:15936   */\n              swap3\n              swap2\n              pop\n              pop\n              jump\t// out\n                /* \"#utility.yul\":15942:16056   */\n            tag_326:\n              pop\n              jump\t// out\n                /* \"#utility.yul\":16062:16460   */\n            tag_327:\n                /* \"#utility.yul\":16221:16224   */\n              0x00\n                /* \"#utility.yul\":16242:16325   */\n              tag_543\n                /* \"#utility.yul\":16323:16324   */\n              0x00\n                /* \"#utility.yul\":16318:16321   */\n              dup4\n                /* \"#utility.yul\":16242:16325   */\n              tag_325\n              jump\t// in\n            tag_543:\n                /* \"#utility.yul\":16235:16325   */\n              swap2\n              pop\n                /* \"#utility.yul\":16334:16427   */\n              tag_544\n                /* \"#utility.yul\":16423:16426   */\n              dup3\n                /* \"#utility.yul\":16334:16427   */\n              tag_326\n              jump\t// in\n            tag_544:\n                /* \"#utility.yul\":16452:16453   */\n              0x00\n                /* \"#utility.yul\":16447:16450   */\n              dup3\n                /* \"#utility.yul\":16443:16454   */\n              add\n                /* \"#utility.yul\":16436:16454   */\n              swap1\n              pop\n                /* \"#utility.yul\":16062:16460   */\n              swap2\n              swap1\n              pop\n              jump\t// out\n                /* \"#utility.yul\":16466:16845   */\n            tag_169:\n                /* \"#utility.yul\":16650:16653   */\n              0x00\n                /* \"#utility.yul\":16672:16819   */\n              tag_546\n                /* \"#utility.yul\":16815:16818   */\n              dup3\n                /* \"#utility.yul\":16672:16819   */\n              tag_327\n              jump\t// in\n            tag_546:\n                /* \"#utility.yul\":16665:16819   */\n              swap2\n              pop\n                /* \"#utility.yul\":16836:16839   */\n              dup2\n                /* \"#utility.yul\":16829:16839   */\n              swap1\n              pop\n                /* \"#utility.yul\":16466:16845   */\n              swap2\n              swap1\n              pop\n              jump\t// out\n                /* \"#utility.yul\":16851:17021   */\n            tag_328:\n                /* \"#utility.yul\":16991:17013   */\n              0x4661696c656420746f2073656e64204574686572000000000000000000000000\n                /* \"#utility.yul\":16987:16988   */\n              0x00\n                /* \"#utility.yul\":16979:16985   */\n              dup3\n                /* \"#utility.yul\":16975:16989   */\n              add\n                /* \"#utility.yul\":16968:17014   */\n              mstore\n                /* \"#utility.yul\":16851:17021   */\n              pop\n              jump\t// out\n                /* \"#utility.yul\":17027:17393   */\n            tag_329:\n                /* \"#utility.yul\":17169:17172   */\n              0x00\n                /* \"#utility.yul\":17190:17257   */\n              tag_549\n                /* \"#utility.yul\":17254:17256   */\n              0x14\n                /* \"#utility.yul\":17249:17252   */\n              dup4\n                /* \"#utility.yul\":17190:17257   */\n              tag_284\n              jump\t// in\n            tag_549:\n                /* \"#utility.yul\":17183:17257   */\n              swap2\n              pop\n                /* \"#utility.yul\":17266:17359   */\n              tag_550\n                /* \"#utility.yul\":17355:17358   */\n              dup3\n                /* \"#utility.yul\":17266:17359   */\n              tag_328\n              jump\t// in\n            tag_550:\n                /* \"#utility.yul\":17384:17386   */\n              0x20\n                /* \"#utility.yul\":17379:17382   */\n              dup3\n                /* \"#utility.yul\":17375:17387   */\n              add\n                /* \"#utility.yul\":17368:17387   */\n              swap1\n              pop\n                /* \"#utility.yul\":17027:17393   */\n              swap2\n              swap1\n              pop\n              jump\t// out\n                /* \"#utility.yul\":17399:17818   */\n            tag_175:\n                /* \"#utility.yul\":17565:17569   */\n              0x00\n                /* \"#utility.yul\":17603:17605   */\n              0x20\n                /* \"#utility.yul\":17592:17601   */\n              dup3\n                /* \"#utility.yul\":17588:17606   */\n              add\n                /* \"#utility.yul\":17580:17606   */\n              swap1\n              pop\n                /* \"#utility.yul\":17652:17661   */\n              dup2\n                /* \"#utility.yul\":17646:17650   */\n              dup2\n                /* \"#utility.yul\":17642:17662   */\n              sub\n                /* \"#utility.yul\":17638:17639   */\n              0x00\n                /* \"#utility.yul\":17627:17636   */\n              dup4\n                /* \"#utility.yul\":17623:17640   */\n              add\n                /* \"#utility.yul\":17616:17663   */\n              mstore\n                /* \"#utility.yul\":17680:17811   */\n              tag_552\n                /* \"#utility.yul\":17806:17810   */\n              dup2\n                /* \"#utility.yul\":17680:17811   */\n              tag_329\n              jump\t// in\n            tag_552:\n                /* \"#utility.yul\":17672:17811   */\n              swap1\n              pop\n                /* \"#utility.yul\":17399:17818   */\n              swap2\n              swap1\n              pop\n              jump\t// out\n                /* \"#utility.yul\":17824:17987   */\n            tag_330:\n                /* \"#utility.yul\":17964:17979   */\n              0x416c726561647920766f74656400000000000000000000000000000000000000\n                /* \"#utility.yul\":17960:17961   */\n              0x00\n                /* \"#utility.yul\":17952:17958   */\n              dup3\n                /* \"#utility.yul\":17948:17962   */\n              add\n                /* \"#utility.yul\":17941:17980   */\n              mstore\n                /* \"#utility.yul\":17824:17987   */\n              pop\n              jump\t// out\n                /* \"#utility.yul\":17993:18359   */\n            tag_331:\n                /* \"#utility.yul\":18135:18138   */\n              0x00\n                /* \"#utility.yul\":18156:18223   */\n              tag_555\n                /* \"#utility.yul\":18220:18222   */\n              0x0d\n                /* \"#utility.yul\":18215:18218   */\n              dup4\n                /* \"#utility.yul\":18156:18223   */\n              tag_284\n              jump\t// in\n            tag_555:\n                /* \"#utility.yul\":18149:18223   */\n              swap2\n              pop\n                /* \"#utility.yul\":18232:18325   */\n              tag_556\n                /* \"#utility.yul\":18321:18324   */\n              dup3\n                /* \"#utility.yul\":18232:18325   */\n              tag_330\n              jump\t// in\n            tag_556:\n                /* \"#utility.yul\":18350:18352   */\n              0x20\n                /* \"#utility.yul\":18345:18348   */\n              dup3\n                /* \"#utility.yul\":18341:18353   */\n              add\n                /* \"#utility.yul\":18334:18353   */\n              swap1\n              pop\n                /* \"#utility.yul\":17993:18359   */\n              swap2\n              swap1\n              pop\n              jump\t// out\n                /* \"#utility.yul\":18365:18784   */\n            tag_179:\n                /* \"#utility.yul\":18531:18535   */\n              0x00\n                /* \"#utility.yul\":18569:18571   */\n              0x20\n                /* \"#utility.yul\":18558:18567   */\n              dup3\n                /* \"#utility.yul\":18554:18572   */\n              add\n                /* \"#utility.yul\":18546:18572   */\n              swap1\n              pop\n                /* \"#utility.yul\":18618:18627   */\n              dup2\n                /* \"#utility.yul\":18612:18616   */\n              dup2\n                /* \"#utility.yul\":18608:18628   */\n              sub\n                /* \"#utility.yul\":18604:18605   */\n              0x00\n                /* \"#utility.yul\":18593:18602   */\n              dup4\n                /* \"#utility.yul\":18589:18606   */\n              add\n                /* \"#utility.yul\":18582:18629   */\n              mstore\n                /* \"#utility.yul\":18646:18777   */\n              tag_558\n                /* \"#utility.yul\":18772:18776   */\n              dup2\n                /* \"#utility.yul\":18646:18777   */\n              tag_331\n              jump\t// in\n            tag_558:\n                /* \"#utility.yul\":18638:18777   */\n              swap1\n              pop\n                /* \"#utility.yul\":18365:18784   */\n              swap2\n              swap1\n              pop\n              jump\t// out\n                /* \"#utility.yul\":18790:18972   */\n            tag_332:\n                /* \"#utility.yul\":18930:18964   */\n              0x4d75737420626520696e2062696464696e6720737461746520746f20766f7465\n                /* \"#utility.yul\":18926:18927   */\n              0x00\n                /* \"#utility.yul\":18918:18924   */\n              dup3\n                /* \"#utility.yul\":18914:18928   */\n              add\n                /* \"#utility.yul\":18907:18965   */\n              mstore\n                /* \"#utility.yul\":18790:18972   */\n              pop\n              jump\t// out\n                /* \"#utility.yul\":18978:19344   */\n            tag_333:\n                /* \"#utility.yul\":19120:19123   */\n              0x00\n                /* \"#utility.yul\":19141:19208   */\n              tag_561\n                /* \"#utility.yul\":19205:19207   */\n              0x20\n                /* \"#utility.yul\":19200:19203   */\n              dup4\n                /* \"#utility.yul\":19141:19208   */\n              tag_284\n              jump\t// in\n            tag_561:\n                /* \"#utility.yul\":19134:19208   */\n              swap2\n              pop\n                /* \"#utility.yul\":19217:19310   */\n              tag_562\n                /* \"#utility.yul\":19306:19309   */\n              dup3\n                /* \"#utility.yul\":19217:19310   */\n              tag_332\n              jump\t// in\n            tag_562:\n                /* \"#utility.yul\":19335:19337   */\n              0x20\n                /* \"#utility.yul\":19330:19333   */\n              dup3\n                /* \"#utility.yul\":19326:19338   */\n              add\n                /* \"#utility.yul\":19319:19338   */\n              swap1\n              pop\n                /* \"#utility.yul\":18978:19344   */\n              swap2\n              swap1\n              pop\n              jump\t// out\n                /* \"#utility.yul\":19350:19769   */\n            tag_186:\n                /* \"#utility.yul\":19516:19520   */\n              0x00\n                /* \"#utility.yul\":19554:19556   */\n              0x20\n                /* \"#utility.yul\":19543:19552   */\n              dup3\n                /* \"#utility.yul\":19539:19557   */\n              add\n                /* \"#utility.yul\":19531:19557   */\n              swap1\n              pop\n                /* \"#utility.yul\":19603:19612   */\n              dup2\n                /* \"#utility.yul\":19597:19601   */\n              dup2\n                /* \"#utility.yul\":19593:19613   */\n              sub\n                /* \"#utility.yul\":19589:19590   */\n              0x00\n                /* \"#utility.yul\":19578:19587   */\n              dup4\n                /* \"#utility.yul\":19574:19591   */\n              add\n                /* \"#utility.yul\":19567:19614   */\n              mstore\n                /* \"#utility.yul\":19631:19762   */\n              tag_564\n                /* \"#utility.yul\":19757:19761   */\n              dup2\n                /* \"#utility.yul\":19631:19762   */\n              tag_333\n              jump\t// in\n            tag_564:\n                /* \"#utility.yul\":19623:19762   */\n              swap1\n              pop\n                /* \"#utility.yul\":19350:19769   */\n              swap2\n              swap1\n              pop\n              jump\t// out\n                /* \"#utility.yul\":19775:19956   */\n            tag_334:\n                /* \"#utility.yul\":19915:19948   */\n              0x6164647265737320646964206e6f7420676976652062696420616d6f756e7400\n                /* \"#utility.yul\":19911:19912   */\n              0x00\n                /* \"#utility.yul\":19903:19909   */\n              dup3\n                /* \"#utility.yul\":19899:19913   */\n              add\n                /* \"#utility.yul\":19892:19949   */\n              mstore\n                /* \"#utility.yul\":19775:19956   */\n              pop\n              jump\t// out\n                /* \"#utility.yul\":19962:20328   */\n            tag_335:\n                /* \"#utility.yul\":20104:20107   */\n              0x00\n                /* \"#utility.yul\":20125:20192   */\n              tag_567\n                /* \"#utility.yul\":20189:20191   */\n              0x1f\n                /* \"#utility.yul\":20184:20187   */\n              dup4\n                /* \"#utility.yul\":20125:20192   */\n              tag_284\n              jump\t// in\n            tag_567:\n                /* \"#utility.yul\":20118:20192   */\n              swap2\n              pop\n                /* \"#utility.yul\":20201:20294   */\n              tag_568\n                /* \"#utility.yul\":20290:20293   */\n              dup3\n                /* \"#utility.yul\":20201:20294   */\n              tag_334\n              jump\t// in\n            tag_568:\n                /* \"#utility.yul\":20319:20321   */\n              0x20\n                /* \"#utility.yul\":20314:20317   */\n              dup3\n                /* \"#utility.yul\":20310:20322   */\n              add\n                /* \"#utility.yul\":20303:20322   */\n              swap1\n              pop\n                /* \"#utility.yul\":19962:20328   */\n              swap2\n              swap1\n              pop\n              jump\t// out\n                /* \"#utility.yul\":20334:20753   */\n            tag_189:\n                /* \"#utility.yul\":20500:20504   */\n              0x00\n                /* \"#utility.yul\":20538:20540   */\n              0x20\n                /* \"#utility.yul\":20527:20536   */\n              dup3\n                /* \"#utility.yul\":20523:20541   */\n              add\n                /* \"#utility.yul\":20515:20541   */\n              swap1\n              pop\n                /* \"#utility.yul\":20587:20596   */\n              dup2\n                /* \"#utility.yul\":20581:20585   */\n              dup2\n                /* \"#utility.yul\":20577:20597   */\n              sub\n                /* \"#utility.yul\":20573:20574   */\n              0x00\n                /* \"#utility.yul\":20562:20571   */\n              dup4\n                /* \"#utility.yul\":20558:20575   */\n              add\n                /* \"#utility.yul\":20551:20598   */\n              mstore\n                /* \"#utility.yul\":20615:20746   */\n              tag_570\n                /* \"#utility.yul\":20741:20745   */\n              dup2\n                /* \"#utility.yul\":20615:20746   */\n              tag_335\n              jump\t// in\n            tag_570:\n                /* \"#utility.yul\":20607:20746   */\n              swap1\n              pop\n                /* \"#utility.yul\":20334:20753   */\n              swap2\n              swap1\n              pop\n              jump\t// out\n                /* \"#utility.yul\":20759:20939   */\n            tag_336:\n                /* \"#utility.yul\":20807:20884   */\n              0x4e487b7100000000000000000000000000000000000000000000000000000000\n                /* \"#utility.yul\":20804:20805   */\n              0x00\n                /* \"#utility.yul\":20797:20885   */\n              mstore\n                /* \"#utility.yul\":20904:20908   */\n              0x11\n                /* \"#utility.yul\":20901:20902   */\n              0x04\n                /* \"#utility.yul\":20894:20909   */\n              mstore\n                /* \"#utility.yul\":20928:20932   */\n              0x24\n                /* \"#utility.yul\":20925:20926   */\n              0x00\n                /* \"#utility.yul\":20918:20933   */\n              revert\n                /* \"#utility.yul\":20945:21136   */\n            tag_191:\n                /* \"#utility.yul\":20985:20988   */\n              0x00\n                /* \"#utility.yul\":21004:21024   */\n              tag_573\n                /* \"#utility.yul\":21022:21023   */\n              dup3\n                /* \"#utility.yul\":21004:21024   */\n              tag_279\n              jump\t// in\n            tag_573:\n                /* \"#utility.yul\":20999:21024   */\n              swap2\n              pop\n                /* \"#utility.yul\":21038:21058   */\n              tag_574\n                /* \"#utility.yul\":21056:21057   */\n              dup4\n                /* \"#utility.yul\":21038:21058   */\n              tag_279\n              jump\t// in\n            tag_574:\n                /* \"#utility.yul\":21033:21058   */\n              swap3\n              pop\n                /* \"#utility.yul\":21081:21082   */\n              dup3\n                /* \"#utility.yul\":21078:21079   */\n              dup3\n                /* \"#utility.yul\":21074:21083   */\n              add\n                /* \"#utility.yul\":21067:21083   */\n              swap1\n              pop\n                /* \"#utility.yul\":21102:21105   */\n              dup1\n                /* \"#utility.yul\":21099:21100   */\n              dup3\n                /* \"#utility.yul\":21096:21106   */\n              gt\n                /* \"#utility.yul\":21093:21129   */\n              iszero\n              tag_575\n              jumpi\n                /* \"#utility.yul\":21109:21127   */\n              tag_576\n              tag_336\n              jump\t// in\n            tag_576:\n                /* \"#utility.yul\":21093:21129   */\n            tag_575:\n                /* \"#utility.yul\":20945:21136   */\n              swap3\n              swap2\n              pop\n              pop\n              jump\t// out\n                /* \"#utility.yul\":21142:21317   */\n            tag_193:\n                /* \"#utility.yul\":21180:21183   */\n              0x00\n                /* \"#utility.yul\":21203:21226   */\n              tag_578\n                /* \"#utility.yul\":21220:21225   */\n              dup3\n                /* \"#utility.yul\":21203:21226   */\n              tag_289\n              jump\t// in\n            tag_578:\n                /* \"#utility.yul\":21194:21226   */\n              swap2\n              pop\n                /* \"#utility.yul\":21248:21258   */\n              0xffffffff\n                /* \"#utility.yul\":21241:21246   */\n              dup3\n                /* \"#utility.yul\":21238:21259   */\n              sub\n                /* \"#utility.yul\":21235:21282   */\n              tag_579\n              jumpi\n                /* \"#utility.yul\":21262:21280   */\n              tag_580\n              tag_336\n              jump\t// in\n            tag_580:\n                /* \"#utility.yul\":21235:21282   */\n            tag_579:\n                /* \"#utility.yul\":21309:21310   */\n              0x01\n                /* \"#utility.yul\":21302:21307   */\n              dup3\n                /* \"#utility.yul\":21298:21311   */\n              add\n                /* \"#utility.yul\":21291:21311   */\n              swap1\n              pop\n                /* \"#utility.yul\":21142:21317   */\n              swap2\n              swap1\n              pop\n              jump\t// out\n                /* \"#utility.yul\":21323:21497   */\n            tag_337:\n                /* \"#utility.yul\":21463:21489   */\n              0x4d75737420626520696e2062696464696e672073746174650000000000000000\n                /* \"#utility.yul\":21459:21460   */\n              0x00\n                /* \"#utility.yul\":21451:21457   */\n              dup3\n                /* \"#utility.yul\":21447:21461   */\n              add\n                /* \"#utility.yul\":21440:21490   */\n              mstore\n                /* \"#utility.yul\":21323:21497   */\n              pop\n              jump\t// out\n                /* \"#utility.yul\":21503:21869   */\n            tag_338:\n                /* \"#utility.yul\":21645:21648   */\n              0x00\n                /* \"#utility.yul\":21666:21733   */\n              tag_583\n                /* \"#utility.yul\":21730:21732   */\n              0x18\n                /* \"#utility.yul\":21725:21728   */\n              dup4\n                /* \"#utility.yul\":21666:21733   */\n              tag_284\n              jump\t// in\n            tag_583:\n                /* \"#utility.yul\":21659:21733   */\n              swap2\n              pop\n                /* \"#utility.yul\":21742:21835   */\n              tag_584\n                /* \"#utility.yul\":21831:21834   */\n              dup3\n                /* \"#utility.yul\":21742:21835   */\n              tag_337\n              jump\t// in\n            tag_584:\n                /* \"#utility.yul\":21860:21862   */\n              0x20\n                /* \"#utility.yul\":21855:21858   */\n              dup3\n                /* \"#utility.yul\":21851:21863   */\n              add\n                /* \"#utility.yul\":21844:21863   */\n              swap1\n              pop\n                /* \"#utility.yul\":21503:21869   */\n              swap2\n              swap1\n              pop\n              jump\t// out\n                /* \"#utility.yul\":21875:22294   */\n            tag_210:\n                /* \"#utility.yul\":22041:22045   */\n              0x00\n                /* \"#utility.yul\":22079:22081   */\n              0x20\n                /* \"#utility.yul\":22068:22077   */\n              dup3\n                /* \"#utility.yul\":22064:22082   */\n              add\n                /* \"#utility.yul\":22056:22082   */\n              swap1\n              pop\n                /* \"#utility.yul\":22128:22137   */\n              dup2\n                /* \"#utility.yul\":22122:22126   */\n              dup2\n                /* \"#utility.yul\":22118:22138   */\n              sub\n                /* \"#utility.yul\":22114:22115   */\n              0x00\n                /* \"#utility.yul\":22103:22112   */\n              dup4\n                /* \"#utility.yul\":22099:22116   */\n              add\n                /* \"#utility.yul\":22092:22139   */\n              mstore\n                /* \"#utility.yul\":22156:22287   */\n              tag_586\n                /* \"#utility.yul\":22282:22286   */\n              dup2\n                /* \"#utility.yul\":22156:22287   */\n              tag_338\n              jump\t// in\n            tag_586:\n                /* \"#utility.yul\":22148:22287   */\n              swap1\n              pop\n                /* \"#utility.yul\":21875:22294   */\n              swap2\n              swap1\n              pop\n              jump\t// out\n                /* \"#utility.yul\":22300:22416   */\n            tag_339:\n                /* \"#utility.yul\":22370:22391   */\n              tag_588\n                /* \"#utility.yul\":22385:22390   */\n              dup2\n                /* \"#utility.yul\":22370:22391   */\n              tag_281\n              jump\t// in\n            tag_588:\n                /* \"#utility.yul\":22363:22368   */\n              dup2\n                /* \"#utility.yul\":22360:22392   */\n              eq\n                /* \"#utility.yul\":22350:22410   */\n              tag_589\n              jumpi\n                /* \"#utility.yul\":22406:22407   */\n              0x00\n                /* \"#utility.yul\":22403:22404   */\n              dup1\n                /* \"#utility.yul\":22396:22408   */\n              revert\n                /* \"#utility.yul\":22350:22410   */\n            tag_589:\n                /* \"#utility.yul\":22300:22416   */\n              pop\n              jump\t// out\n                /* \"#utility.yul\":22422:22559   */\n            tag_340:\n                /* \"#utility.yul\":22476:22481   */\n              0x00\n                /* \"#utility.yul\":22507:22513   */\n              dup2\n                /* \"#utility.yul\":22501:22514   */\n              mload\n                /* \"#utility.yul\":22492:22514   */\n              swap1\n              pop\n                /* \"#utility.yul\":22523:22553   */\n              tag_591\n                /* \"#utility.yul\":22547:22552   */\n              dup2\n                /* \"#utility.yul\":22523:22553   */\n              tag_339\n              jump\t// in\n            tag_591:\n                /* \"#utility.yul\":22422:22559   */\n              swap3\n              swap2\n              pop\n              pop\n              jump\t// out\n                /* \"#utility.yul\":22565:22910   */\n            tag_215:\n                /* \"#utility.yul\":22632:22638   */\n              0x00\n                /* \"#utility.yul\":22681:22683   */\n              0x20\n                /* \"#utility.yul\":22669:22678   */\n              dup3\n                /* \"#utility.yul\":22660:22667   */\n              dup5\n                /* \"#utility.yul\":22656:22679   */\n              sub\n                /* \"#utility.yul\":22652:22684   */\n              slt\n                /* \"#utility.yul\":22649:22768   */\n              iszero\n              tag_593\n              jumpi\n                /* \"#utility.yul\":22687:22766   */\n              tag_594\n              tag_273\n              jump\t// in\n            tag_594:\n                /* \"#utility.yul\":22649:22768   */\n            tag_593:\n                /* \"#utility.yul\":22807:22808   */\n              0x00\n                /* \"#utility.yul\":22832:22893   */\n              tag_595\n                /* \"#utility.yul\":22885:22892   */\n              dup5\n                /* \"#utility.yul\":22876:22882   */\n              dup3\n                /* \"#utility.yul\":22865:22874   */\n              dup6\n                /* \"#utility.yul\":22861:22883   */\n              add\n                /* \"#utility.yul\":22832:22893   */\n              tag_340\n              jump\t// in\n            tag_595:\n                /* \"#utility.yul\":22822:22893   */\n              swap2\n              pop\n                /* \"#utility.yul\":22778:22903   */\n              pop\n                /* \"#utility.yul\":22565:22910   */\n              swap3\n              swap2\n              pop\n              pop\n              jump\t// out\n                /* \"#utility.yul\":22916:23082   */\n            tag_341:\n                /* \"#utility.yul\":23056:23074   */\n              0x4d7573742062652061206d656d62657200000000000000000000000000000000\n                /* \"#utility.yul\":23052:23053   */\n              0x00\n                /* \"#utility.yul\":23044:23050   */\n              dup3\n                /* \"#utility.yul\":23040:23054   */\n              add\n                /* \"#utility.yul\":23033:23075   */\n              mstore\n                /* \"#utility.yul\":22916:23082   */\n              pop\n              jump\t// out\n                /* \"#utility.yul\":23088:23454   */\n            tag_342:\n                /* \"#utility.yul\":23230:23233   */\n              0x00\n                /* \"#utility.yul\":23251:23318   */\n              tag_598\n                /* \"#utility.yul\":23315:23317   */\n              0x10\n                /* \"#utility.yul\":23310:23313   */\n              dup4\n                /* \"#utility.yul\":23251:23318   */\n              tag_284\n              jump\t// in\n            tag_598:\n                /* \"#utility.yul\":23244:23318   */\n              swap2\n              pop\n                /* \"#utility.yul\":23327:23420   */\n              tag_599\n                /* \"#utility.yul\":23416:23419   */\n              dup3\n                /* \"#utility.yul\":23327:23420   */\n              tag_341\n              jump\t// in\n            tag_599:\n                /* \"#utility.yul\":23445:23447   */\n              0x20\n                /* \"#utility.yul\":23440:23443   */\n              dup3\n                /* \"#utility.yul\":23436:23448   */\n              add\n                /* \"#utility.yul\":23429:23448   */\n              swap1\n              pop\n                /* \"#utility.yul\":23088:23454   */\n              swap2\n              swap1\n              pop\n              jump\t// out\n                /* \"#utility.yul\":23460:23879   */\n            tag_218:\n                /* \"#utility.yul\":23626:23630   */\n              0x00\n                /* \"#utility.yul\":23664:23666   */\n              0x20\n                /* \"#utility.yul\":23653:23662   */\n              dup3\n                /* \"#utility.yul\":23649:23667   */\n              add\n                /* \"#utility.yul\":23641:23667   */\n              swap1\n              pop\n                /* \"#utility.yul\":23713:23722   */\n              dup2\n                /* \"#utility.yul\":23707:23711   */\n              dup2\n                /* \"#utility.yul\":23703:23723   */\n              sub\n                /* \"#utility.yul\":23699:23700   */\n              0x00\n                /* \"#utility.yul\":23688:23697   */\n              dup4\n                /* \"#utility.yul\":23684:23701   */\n              add\n                /* \"#utility.yul\":23677:23724   */\n              mstore\n                /* \"#utility.yul\":23741:23872   */\n              tag_601\n                /* \"#utility.yul\":23867:23871   */\n              dup2\n                /* \"#utility.yul\":23741:23872   */\n              tag_342\n              jump\t// in\n            tag_601:\n                /* \"#utility.yul\":23733:23872   */\n              swap1\n              pop\n                /* \"#utility.yul\":23460:23879   */\n              swap2\n              swap1\n              pop\n              jump\t// out\n                /* \"#utility.yul\":23885:24058   */\n            tag_343:\n                /* \"#utility.yul\":24025:24050   */\n              0x616464726573732068617320616c726561647920626964000000000000000000\n                /* \"#utility.yul\":24021:24022   */\n              0x00\n                /* \"#utility.yul\":24013:24019   */\n              dup3\n                /* \"#utility.yul\":24009:24023   */\n              add\n                /* \"#utility.yul\":24002:24051   */\n              mstore\n                /* \"#utility.yul\":23885:24058   */\n              pop\n              jump\t// out\n                /* \"#utility.yul\":24064:24430   */\n            tag_344:\n                /* \"#utility.yul\":24206:24209   */\n              0x00\n                /* \"#utility.yul\":24227:24294   */\n              tag_604\n                /* \"#utility.yul\":24291:24293   */\n              0x17\n                /* \"#utility.yul\":24286:24289   */\n              dup4\n                /* \"#utility.yul\":24227:24294   */\n              tag_284\n              jump\t// in\n            tag_604:\n                /* \"#utility.yul\":24220:24294   */\n              swap2\n              pop\n                /* \"#utility.yul\":24303:24396   */\n              tag_605\n                /* \"#utility.yul\":24392:24395   */\n              dup3\n                /* \"#utility.yul\":24303:24396   */\n              tag_343\n              jump\t// in\n            tag_605:\n                /* \"#utility.yul\":24421:24423   */\n              0x20\n                /* \"#utility.yul\":24416:24419   */\n              dup3\n                /* \"#utility.yul\":24412:24424   */\n              add\n                /* \"#utility.yul\":24405:24424   */\n              swap1\n              pop\n                /* \"#utility.yul\":24064:24430   */\n              swap2\n              swap1\n              pop\n              jump\t// out\n                /* \"#utility.yul\":24436:24855   */\n            tag_221:\n                /* \"#utility.yul\":24602:24606   */\n              0x00\n                /* \"#utility.yul\":24640:24642   */\n              0x20\n                /* \"#utility.yul\":24629:24638   */\n              dup3\n                /* \"#utility.yul\":24625:24643   */\n              add\n                /* \"#utility.yul\":24617:24643   */\n              swap1\n              pop\n                /* \"#utility.yul\":24689:24698   */\n              dup2\n                /* \"#utility.yul\":24683:24687   */\n              dup2\n                /* \"#utility.yul\":24679:24699   */\n              sub\n                /* \"#utility.yul\":24675:24676   */\n              0x00\n                /* \"#utility.yul\":24664:24673   */\n              dup4\n                /* \"#utility.yul\":24660:24677   */\n              add\n                /* \"#utility.yul\":24653:24700   */\n              mstore\n                /* \"#utility.yul\":24717:24848   */\n              tag_607\n                /* \"#utility.yul\":24843:24847   */\n              dup2\n                /* \"#utility.yul\":24717:24848   */\n              tag_344\n              jump\t// in\n            tag_607:\n                /* \"#utility.yul\":24709:24848   */\n              swap1\n              pop\n                /* \"#utility.yul\":24436:24855   */\n              swap2\n              swap1\n              pop\n              jump\t// out\n                /* \"#utility.yul\":24861:25002   */\n            tag_345:\n                /* \"#utility.yul\":24910:24914   */\n              0x00\n                /* \"#utility.yul\":24933:24936   */\n              dup2\n                /* \"#utility.yul\":24925:24936   */\n              swap1\n              pop\n                /* \"#utility.yul\":24956:24959   */\n              dup2\n                /* \"#utility.yul\":24953:24954   */\n              0x00\n                /* \"#utility.yul\":24946:24960   */\n              mstore\n                /* \"#utility.yul\":24990:24994   */\n              0x20\n                /* \"#utility.yul\":24987:24988   */\n              0x00\n                /* \"#utility.yul\":24977:24995   */\n              keccak256\n                /* \"#utility.yul\":24969:24995   */\n              swap1\n              pop\n                /* \"#utility.yul\":24861:25002   */\n              swap2\n              swap1\n              pop\n              jump\t// out\n                /* \"#utility.yul\":25008:25101   */\n            tag_346:\n                /* \"#utility.yul\":25045:25051   */\n              0x00\n                /* \"#utility.yul\":25092:25094   */\n              0x20\n                /* \"#utility.yul\":25087:25089   */\n              0x1f\n                /* \"#utility.yul\":25080:25085   */\n              dup4\n                /* \"#utility.yul\":25076:25090   */\n              add\n                /* \"#utility.yul\":25072:25095   */\n              div\n                /* \"#utility.yul\":25062:25095   */\n              swap1\n              pop\n                /* \"#utility.yul\":25008:25101   */\n              swap2\n              swap1\n              pop\n              jump\t// out\n                /* \"#utility.yul\":25107:25214   */\n            tag_347:\n                /* \"#utility.yul\":25151:25159   */\n              0x00\n                /* \"#utility.yul\":25201:25206   */\n              dup3\n                /* \"#utility.yul\":25195:25199   */\n              dup3\n                /* \"#utility.yul\":25191:25207   */\n              shl\n                /* \"#utility.yul\":25170:25207   */\n              swap1\n              pop\n                /* \"#utility.yul\":25107:25214   */\n              swap3\n              swap2\n              pop\n              pop\n              jump\t// out\n                /* \"#utility.yul\":25220:25613   */\n            tag_348:\n                /* \"#utility.yul\":25289:25295   */\n              0x00\n                /* \"#utility.yul\":25339:25340   */\n              0x08\n                /* \"#utility.yul\":25327:25337   */\n              dup4\n                /* \"#utility.yul\":25323:25341   */\n              mul\n                /* \"#utility.yul\":25362:25459   */\n              tag_612\n                /* \"#utility.yul\":25392:25458   */\n              0xffffffffffffffffffffffffffffffffffffffffffffffffffffffffffffffff\n                /* \"#utility.yul\":25381:25390   */\n              dup3\n                /* \"#utility.yul\":25362:25459   */\n              tag_347\n              jump\t// in\n            tag_612:\n                /* \"#utility.yul\":25480:25519   */\n              tag_613\n                /* \"#utility.yul\":25510:25518   */\n              dup7\n                /* \"#utility.yul\":25499:25508   */\n              dup4\n                /* \"#utility.yul\":25480:25519   */\n              tag_347\n              jump\t// in\n            tag_613:\n                /* \"#utility.yul\":25468:25519   */\n              swap6\n              pop\n                /* \"#utility.yul\":25552:25556   */\n              dup1\n                /* \"#utility.yul\":25548:25557   */\n              not\n                /* \"#utility.yul\":25541:25546   */\n              dup5\n                /* \"#utility.yul\":25537:25558   */\n              and\n                /* \"#utility.yul\":25528:25558   */\n              swap4\n              pop\n                /* \"#utility.yul\":25601:25605   */\n              dup1\n                /* \"#utility.yul\":25591:25599   */\n              dup7\n                /* \"#utility.yul\":25587:25606   */\n              and\n                /* \"#utility.yul\":25580:25585   */\n              dup5\n                /* \"#utility.yul\":25577:25607   */\n              or\n                /* \"#utility.yul\":25567:25607   */\n              swap3\n              pop\n                /* \"#utility.yul\":25296:25613   */\n              pop\n              pop\n                /* \"#utility.yul\":25220:25613   */\n              swap4\n              swap3\n              pop\n              pop\n              pop\n              jump\t// out\n                /* \"#utility.yul\":25619:25679   */\n            tag_349:\n                /* \"#utility.yul\":25647:25650   */\n              0x00\n                /* \"#utility.yul\":25668:25673   */\n              dup2\n                /* \"#utility.yul\":25661:25673   */\n              swap1\n              pop\n                /* \"#utility.yul\":25619:25679   */\n              swap2\n              swap1\n              pop\n              jump\t// out\n                /* \"#utility.yul\":25685:25827   */\n            tag_350:\n                /* \"#utility.yul\":25735:25744   */\n              0x00\n                /* \"#utility.yul\":25768:25821   */\n              tag_616\n                /* \"#utility.yul\":25786:25820   */\n              tag_617\n                /* \"#utility.yul\":25795:25819   */\n              tag_618\n                /* \"#utility.yul\":25813:25818   */\n              dup5\n                /* \"#utility.yul\":25795:25819   */\n              tag_279\n              jump\t// in\n            tag_618:\n                /* \"#utility.yul\":25786:25820   */\n              tag_349\n              jump\t// in\n            tag_617:\n                /* \"#utility.yul\":25768:25821   */\n              tag_279\n              jump\t// in\n            tag_616:\n                /* \"#utility.yul\":25755:25821   */\n              swap1\n              pop\n                /* \"#utility.yul\":25685:25827   */\n              swap2\n              swap1\n              pop\n              jump\t// out\n                /* \"#utility.yul\":25833:25908   */\n            tag_351:\n                /* \"#utility.yul\":25876:25879   */\n              0x00\n                /* \"#utility.yul\":25897:25902   */\n              dup2\n                /* \"#utility.yul\":25890:25902   */\n              swap1\n              pop\n                /* \"#utility.yul\":25833:25908   */\n              swap2\n              swap1\n              pop\n              jump\t// out\n                /* \"#utility.yul\":25914:26183   */\n            tag_352:\n                /* \"#utility.yul\":26024:26063   */\n              tag_621\n                /* \"#utility.yul\":26055:26062   */\n              dup4\n                /* \"#utility.yul\":26024:26063   */\n              tag_350\n              jump\t// in\n            tag_621:\n                /* \"#utility.yul\":26085:26176   */\n              tag_622\n                /* \"#utility.yul\":26134:26175   */\n              tag_623\n                /* \"#utility.yul\":26158:26174   */\n              dup3\n                /* \"#utility.yul\":26134:26175   */\n              tag_351\n              jump\t// in\n            tag_623:\n                /* \"#utility.yul\":26126:26132   */\n              dup5\n                /* \"#utility.yul\":26119:26123   */\n              dup5\n                /* \"#utility.yul\":26113:26124   */\n              sload\n                /* \"#utility.yul\":26085:26176   */\n              tag_348\n              jump\t// in\n            tag_622:\n                /* \"#utility.yul\":26079:26083   */\n              dup3\n                /* \"#utility.yul\":26072:26177   */\n              sstore\n                /* \"#utility.yul\":25990:26183   */\n              pop\n                /* \"#utility.yul\":25914:26183   */\n              pop\n              pop\n              pop\n              jump\t// out\n                /* \"#utility.yul\":26189:26262   */\n            tag_353:\n                /* \"#utility.yul\":26234:26237   */\n              0x00\n                /* \"#utility.yul\":26189:26262   */\n              swap1\n              jump\t// out\n                /* \"#utility.yul\":26268:26457   */\n            tag_354:\n                /* \"#utility.yul\":26345:26377   */\n              tag_626\n              tag_353\n              jump\t// in\n            tag_626:\n                /* \"#utility.yul\":26386:26451   */\n              tag_627\n                /* \"#utility.yul\":26444:26450   */\n              dup2\n                /* \"#utility.yul\":26436:26442   */\n              dup5\n                /* \"#utility.yul\":26430:26434   */\n              dup5\n                /* \"#utility.yul\":26386:26451   */\n              tag_352\n              jump\t// in\n            tag_627:\n                /* \"#utility.yul\":26321:26457   */\n              pop\n                /* \"#utility.yul\":26268:26457   */\n              pop\n              pop\n              jump\t// out\n                /* \"#utility.yul\":26463:26649   */\n            tag_355:\n                /* \"#utility.yul\":26523:26643   */\n            tag_629:\n                /* \"#utility.yul\":26540:26543   */\n              dup2\n                /* \"#utility.yul\":26533:26538   */\n              dup2\n                /* \"#utility.yul\":26530:26544   */\n              lt\n                /* \"#utility.yul\":26523:26643   */\n              iszero\n              tag_631\n              jumpi\n                /* \"#utility.yul\":26594:26633   */\n              tag_632\n                /* \"#utility.yul\":26631:26632   */\n              0x00\n                /* \"#utility.yul\":26624:26629   */\n              dup3\n                /* \"#utility.yul\":26594:26633   */\n              tag_354\n              jump\t// in\n            tag_632:\n                /* \"#utility.yul\":26567:26568   */\n              0x01\n                /* \"#utility.yul\":26560:26565   */\n              dup2\n                /* \"#utility.yul\":26556:26569   */\n              add\n                /* \"#utility.yul\":26547:26569   */\n              swap1\n              pop\n                /* \"#utility.yul\":26523:26643   */\n              jump(tag_629)\n            tag_631:\n                /* \"#utility.yul\":26463:26649   */\n              pop\n              pop\n              jump\t// out\n                /* \"#utility.yul\":26655:27198   */\n            tag_356:\n                /* \"#utility.yul\":26756:26758   */\n              0x1f\n                /* \"#utility.yul\":26751:26754   */\n              dup3\n                /* \"#utility.yul\":26748:26759   */\n              gt\n                /* \"#utility.yul\":26745:27191   */\n              iszero\n              tag_634\n              jumpi\n                /* \"#utility.yul\":26790:26828   */\n              tag_635\n                /* \"#utility.yul\":26822:26827   */\n              dup2\n                /* \"#utility.yul\":26790:26828   */\n              tag_345\n              jump\t// in\n            tag_635:\n                /* \"#utility.yul\":26874:26903   */\n              tag_636\n                /* \"#utility.yul\":26892:26902   */\n              dup5\n                /* \"#utility.yul\":26874:26903   */\n              tag_346\n              jump\t// in\n            tag_636:\n                /* \"#utility.yul\":26864:26872   */\n              dup2\n                /* \"#utility.yul\":26860:26904   */\n              add\n                /* \"#utility.yul\":27057:27059   */\n              0x20\n                /* \"#utility.yul\":27045:27055   */\n              dup6\n                /* \"#utility.yul\":27042:27060   */\n              lt\n                /* \"#utility.yul\":27039:27088   */\n              iszero\n              tag_637\n              jumpi\n                /* \"#utility.yul\":27078:27086   */\n              dup2\n                /* \"#utility.yul\":27063:27086   */\n              swap1\n              pop\n                /* \"#utility.yul\":27039:27088   */\n            tag_637:\n                /* \"#utility.yul\":27101:27181   */\n              tag_638\n                /* \"#utility.yul\":27157:27179   */\n              tag_639\n                /* \"#utility.yul\":27175:27178   */\n              dup6\n                /* \"#utility.yul\":27157:27179   */\n              tag_346\n              jump\t// in\n            tag_639:\n                /* \"#utility.yul\":27147:27155   */\n              dup4\n                /* \"#utility.yul\":27143:27180   */\n              add\n                /* \"#utility.yul\":27130:27141   */\n              dup3\n                /* \"#utility.yul\":27101:27181   */\n              tag_355\n              jump\t// in\n            tag_638:\n                /* \"#utility.yul\":26760:27191   */\n              pop\n              pop\n                /* \"#utility.yul\":26745:27191   */\n            tag_634:\n                /* \"#utility.yul\":26655:27198   */\n              pop\n              pop\n              pop\n              jump\t// out\n                /* \"#utility.yul\":27204:27321   */\n            tag_357:\n                /* \"#utility.yul\":27258:27266   */\n              0x00\n                /* \"#utility.yul\":27308:27313   */\n              dup3\n                /* \"#utility.yul\":27302:27306   */\n              dup3\n                /* \"#utility.yul\":27298:27314   */\n              shr\n                /* \"#utility.yul\":27277:27314   */\n              swap1\n              pop\n                /* \"#utility.yul\":27204:27321   */\n              swap3\n              swap2\n              pop\n              pop\n              jump\t// out\n                /* \"#utility.yul\":27327:27496   */\n            tag_358:\n                /* \"#utility.yul\":27371:27377   */\n              0x00\n                /* \"#utility.yul\":27404:27455   */\n              tag_642\n                /* \"#utility.yul\":27452:27453   */\n              0x00\n                /* \"#utility.yul\":27448:27454   */\n              not\n                /* \"#utility.yul\":27440:27445   */\n              dup5\n                /* \"#utility.yul\":27437:27438   */\n              0x08\n                /* \"#utility.yul\":27433:27446   */\n              mul\n                /* \"#utility.yul\":27404:27455   */\n              tag_357\n              jump\t// in\n            tag_642:\n                /* \"#utility.yul\":27400:27456   */\n              not\n                /* \"#utility.yul\":27485:27489   */\n              dup1\n                /* \"#utility.yul\":27479:27483   */\n              dup4\n                /* \"#utility.yul\":27475:27490   */\n              and\n                /* \"#utility.yul\":27465:27490   */\n              swap2\n              pop\n                /* \"#utility.yul\":27378:27496   */\n              pop\n                /* \"#utility.yul\":27327:27496   */\n              swap3\n              swap2\n              pop\n              pop\n              jump\t// out\n                /* \"#utility.yul\":27501:27796   */\n            tag_359:\n                /* \"#utility.yul\":27577:27581   */\n              0x00\n                /* \"#utility.yul\":27723:27752   */\n              tag_644\n                /* \"#utility.yul\":27748:27751   */\n              dup4\n                /* \"#utility.yul\":27742:27746   */\n              dup4\n                /* \"#utility.yul\":27723:27752   */\n              tag_358\n              jump\t// in\n            tag_644:\n                /* \"#utility.yul\":27715:27752   */\n              swap2\n              pop\n                /* \"#utility.yul\":27785:27788   */\n              dup3\n                /* \"#utility.yul\":27782:27783   */\n              0x02\n                /* \"#utility.yul\":27778:27789   */\n              mul\n                /* \"#utility.yul\":27772:27776   */\n              dup3\n                /* \"#utility.yul\":27769:27790   */\n              or\n                /* \"#utility.yul\":27761:27790   */\n              swap1\n              pop\n                /* \"#utility.yul\":27501:27796   */\n              swap3\n              swap2\n              pop\n              pop\n              jump\t// out\n                /* \"#utility.yul\":27801:29196   */\n            tag_223:\n                /* \"#utility.yul\":27918:27955   */\n              tag_646\n                /* \"#utility.yul\":27951:27954   */\n              dup3\n                /* \"#utility.yul\":27918:27955   */\n              tag_283\n              jump\t// in\n            tag_646:\n                /* \"#utility.yul\":28020:28038   */\n              0xffffffffffffffff\n                /* \"#utility.yul\":28012:28018   */\n              dup2\n                /* \"#utility.yul\":28009:28039   */\n              gt\n                /* \"#utility.yul\":28006:28062   */\n              iszero\n              tag_647\n              jumpi\n                /* \"#utility.yul\":28042:28060   */\n              tag_648\n              tag_307\n              jump\t// in\n            tag_648:\n                /* \"#utility.yul\":28006:28062   */\n            tag_647:\n                /* \"#utility.yul\":28086:28124   */\n              tag_649\n                /* \"#utility.yul\":28118:28122   */\n              dup3\n                /* \"#utility.yul\":28112:28123   */\n              sload\n                /* \"#utility.yul\":28086:28124   */\n              tag_140\n              jump\t// in\n            tag_649:\n                /* \"#utility.yul\":28171:28238   */\n              tag_650\n                /* \"#utility.yul\":28231:28237   */\n              dup3\n                /* \"#utility.yul\":28223:28229   */\n              dup3\n                /* \"#utility.yul\":28217:28221   */\n              dup6\n                /* \"#utility.yul\":28171:28238   */\n              tag_356\n              jump\t// in\n            tag_650:\n                /* \"#utility.yul\":28265:28266   */\n              0x00\n                /* \"#utility.yul\":28289:28293   */\n              0x20\n                /* \"#utility.yul\":28276:28293   */\n              swap1\n              pop\n                /* \"#utility.yul\":28321:28323   */\n              0x1f\n                /* \"#utility.yul\":28313:28319   */\n              dup4\n                /* \"#utility.yul\":28310:28324   */\n              gt\n                /* \"#utility.yul\":28338:28339   */\n              0x01\n                /* \"#utility.yul\":28333:28951   */\n              dup2\n              eq\n              tag_652\n              jumpi\n                /* \"#utility.yul\":28995:28996   */\n              0x00\n                /* \"#utility.yul\":29012:29018   */\n              dup5\n                /* \"#utility.yul\":29009:29086   */\n              iszero\n              tag_653\n              jumpi\n                /* \"#utility.yul\":29061:29070   */\n              dup3\n                /* \"#utility.yul\":29056:29059   */\n              dup8\n                /* \"#utility.yul\":29052:29071   */\n              add\n                /* \"#utility.yul\":29046:29072   */\n              mload\n                /* \"#utility.yul\":29037:29072   */\n              swap1\n              pop\n                /* \"#utility.yul\":29009:29086   */\n            tag_653:\n                /* \"#utility.yul\":29112:29179   */\n              tag_654\n                /* \"#utility.yul\":29172:29178   */\n              dup6\n                /* \"#utility.yul\":29165:29170   */\n              dup3\n                /* \"#utility.yul\":29112:29179   */\n              tag_359\n              jump\t// in\n            tag_654:\n                /* \"#utility.yul\":29106:29110   */\n              dup7\n                /* \"#utility.yul\":29099:29180   */\n              sstore\n                /* \"#utility.yul\":28968:29190   */\n              pop\n                /* \"#utility.yul\":28303:29190   */\n              jump(tag_651)\n                /* \"#utility.yul\":28333:28951   */\n            tag_652:\n                /* \"#utility.yul\":28385:28389   */\n              0x1f\n                /* \"#utility.yul\":28381:28390   */\n              not\n                /* \"#utility.yul\":28373:28379   */\n              dup5\n                /* \"#utility.yul\":28369:28391   */\n              and\n                /* \"#utility.yul\":28419:28456   */\n              tag_655\n                /* \"#utility.yul\":28451:28455   */\n              dup7\n                /* \"#utility.yul\":28419:28456   */\n              tag_345\n              jump\t// in\n            tag_655:\n                /* \"#utility.yul\":28478:28479   */\n              0x00\n                /* \"#utility.yul\":28492:28700   */\n            tag_656:\n                /* \"#utility.yul\":28506:28513   */\n              dup3\n                /* \"#utility.yul\":28503:28504   */\n              dup2\n                /* \"#utility.yul\":28500:28514   */\n              lt\n                /* \"#utility.yul\":28492:28700   */\n              iszero\n              tag_658\n              jumpi\n                /* \"#utility.yul\":28585:28594   */\n              dup5\n                /* \"#utility.yul\":28580:28583   */\n              dup10\n                /* \"#utility.yul\":28576:28595   */\n              add\n                /* \"#utility.yul\":28570:28596   */\n              mload\n                /* \"#utility.yul\":28562:28568   */\n              dup3\n                /* \"#utility.yul\":28555:28597   */\n              sstore\n                /* \"#utility.yul\":28636:28637   */\n              0x01\n                /* \"#utility.yul\":28628:28634   */\n              dup3\n                /* \"#utility.yul\":28624:28638   */\n              add\n                /* \"#utility.yul\":28614:28638   */\n              swap2\n              pop\n                /* \"#utility.yul\":28683:28685   */\n              0x20\n                /* \"#utility.yul\":28672:28681   */\n              dup6\n                /* \"#utility.yul\":28668:28686   */\n              add\n                /* \"#utility.yul\":28655:28686   */\n              swap5\n              pop\n                /* \"#utility.yul\":28529:28533   */\n              0x20\n                /* \"#utility.yul\":28526:28527   */\n              dup2\n                /* \"#utility.yul\":28522:28534   */\n              add\n                /* \"#utility.yul\":28517:28534   */\n              swap1\n              pop\n                /* \"#utility.yul\":28492:28700   */\n              jump(tag_656)\n            tag_658:\n                /* \"#utility.yul\":28728:28734   */\n              dup7\n                /* \"#utility.yul\":28719:28726   */\n              dup4\n                /* \"#utility.yul\":28716:28735   */\n              lt\n                /* \"#utility.yul\":28713:28892   */\n              iszero\n              tag_659\n              jumpi\n                /* \"#utility.yul\":28786:28795   */\n              dup5\n                /* \"#utility.yul\":28781:28784   */\n              dup10\n                /* \"#utility.yul\":28777:28796   */\n              add\n                /* \"#utility.yul\":28771:28797   */\n              mload\n                /* \"#utility.yul\":28829:28877   */\n              tag_660\n                /* \"#utility.yul\":28871:28875   */\n              0x1f\n                /* \"#utility.yul\":28863:28869   */\n              dup10\n                /* \"#utility.yul\":28859:28876   */\n              and\n                /* \"#utility.yul\":28848:28857   */\n              dup3\n                /* \"#utility.yul\":28829:28877   */\n              tag_358\n              jump\t// in\n            tag_660:\n                /* \"#utility.yul\":28821:28827   */\n              dup4\n                /* \"#utility.yul\":28814:28878   */\n              sstore\n                /* \"#utility.yul\":28736:28892   */\n              pop\n                /* \"#utility.yul\":28713:28892   */\n            tag_659:\n                /* \"#utility.yul\":28938:28939   */\n              0x01\n                /* \"#utility.yul\":28934:28935   */\n              0x02\n                /* \"#utility.yul\":28926:28932   */\n              dup9\n                /* \"#utility.yul\":28922:28936   */\n              mul\n                /* \"#utility.yul\":28918:28940   */\n              add\n                /* \"#utility.yul\":28912:28916   */\n              dup9\n                /* \"#utility.yul\":28905:28941   */\n              sstore\n                /* \"#utility.yul\":28340:28951   */\n              pop\n              pop\n              pop\n                /* \"#utility.yul\":28303:29190   */\n            tag_651:\n              pop\n                /* \"#utility.yul\":27893:29196   */\n              pop\n              pop\n              pop\n                /* \"#utility.yul\":27801:29196   */\n              pop\n              pop\n              jump\t// out\n                /* \"#utility.yul\":29202:29366   */\n            tag_360:\n                /* \"#utility.yul\":29342:29358   */\n              0x6d757374206265206c6561646572000000000000000000000000000000000000\n                /* \"#utility.yul\":29338:29339   */\n              0x00\n                /* \"#utility.yul\":29330:29336   */\n              dup3\n                /* \"#utility.yul\":29326:29340   */\n              add\n                /* \"#utility.yul\":29319:29359   */\n              mstore\n                /* \"#utility.yul\":29202:29366   */\n              pop\n              jump\t// out\n                /* \"#utility.yul\":29372:29738   */\n            tag_361:\n                /* \"#utility.yul\":29514:29517   */\n              0x00\n                /* \"#utility.yul\":29535:29602   */\n              tag_663\n                /* \"#utility.yul\":29599:29601   */\n              0x0e\n                /* \"#utility.yul\":29594:29597   */\n              dup4\n                /* \"#utility.yul\":29535:29602   */\n              tag_284\n              jump\t// in\n            tag_663:\n                /* \"#utility.yul\":29528:29602   */\n              swap2\n              pop\n                /* \"#utility.yul\":29611:29704   */\n              tag_664\n                /* \"#utility.yul\":29700:29703   */\n              dup3\n                /* \"#utility.yul\":29611:29704   */\n              tag_360\n              jump\t// in\n            tag_664:\n                /* \"#utility.yul\":29729:29731   */\n              0x20\n                /* \"#utility.yul\":29724:29727   */\n              dup3\n                /* \"#utility.yul\":29720:29732   */\n              add\n                /* \"#utility.yul\":29713:29732   */\n              swap1\n              pop\n                /* \"#utility.yul\":29372:29738   */\n              swap2\n              swap1\n              pop\n              jump\t// out\n                /* \"#utility.yul\":29744:30163   */\n            tag_229:\n                /* \"#utility.yul\":29910:29914   */\n              0x00\n                /* \"#utility.yul\":29948:29950   */\n              0x20\n                /* \"#utility.yul\":29937:29946   */\n              dup3\n                /* \"#utility.yul\":29933:29951   */\n              add\n                /* \"#utility.yul\":29925:29951   */\n              swap1\n              pop\n                /* \"#utility.yul\":29997:30006   */\n              dup2\n                /* \"#utility.yul\":29991:29995   */\n              dup2\n                /* \"#utility.yul\":29987:30007   */\n              sub\n                /* \"#utility.yul\":29983:29984   */\n              0x00\n                /* \"#utility.yul\":29972:29981   */\n              dup4\n                /* \"#utility.yul\":29968:29985   */\n              add\n                /* \"#utility.yul\":29961:30008   */\n              mstore\n                /* \"#utility.yul\":30025:30156   */\n              tag_666\n                /* \"#utility.yul\":30151:30155   */\n              dup2\n                /* \"#utility.yul\":30025:30156   */\n              tag_361\n              jump\t// in\n            tag_666:\n                /* \"#utility.yul\":30017:30156   */\n              swap1\n              pop\n                /* \"#utility.yul\":29744:30163   */\n              swap2\n              swap1\n              pop\n              jump\t// out\n                /* \"#utility.yul\":30169:30341   */\n            tag_362:\n                /* \"#utility.yul\":30309:30333   */\n              0x6c6561646572206973206e6f7420656c696769626c6500000000000000000000\n                /* \"#utility.yul\":30305:30306   */\n              0x00\n                /* \"#utility.yul\":30297:30303   */\n              dup3\n                /* \"#utility.yul\":30293:30307   */\n              add\n                /* \"#utility.yul\":30286:30334   */\n              mstore\n                /* \"#utility.yul\":30169:30341   */\n              pop\n              jump\t// out\n                /* \"#utility.yul\":30347:30713   */\n            tag_363:\n                /* \"#utility.yul\":30489:30492   */\n              0x00\n                /* \"#utility.yul\":30510:30577   */\n              tag_669\n                /* \"#utility.yul\":30574:30576   */\n              0x16\n                /* \"#utility.yul\":30569:30572   */\n              dup4\n                /* \"#utility.yul\":30510:30577   */\n              tag_284\n              jump\t// in\n            tag_669:\n                /* \"#utility.yul\":30503:30577   */\n              swap2\n              pop\n                /* \"#utility.yul\":30586:30679   */\n              tag_670\n                /* \"#utility.yul\":30675:30678   */\n              dup3\n                /* \"#utility.yul\":30586:30679   */\n              tag_362\n              jump\t// in\n            tag_670:\n                /* \"#utility.yul\":30704:30706   */\n              0x20\n                /* \"#utility.yul\":30699:30702   */\n              dup3\n                /* \"#utility.yul\":30695:30707   */\n              add\n                /* \"#utility.yul\":30688:30707   */\n              swap1\n              pop\n                /* \"#utility.yul\":30347:30713   */\n              swap2\n              swap1\n              pop\n              jump\t// out\n                /* \"#utility.yul\":30719:31138   */\n            tag_232:\n                /* \"#utility.yul\":30885:30889   */\n              0x00\n                /* \"#utility.yul\":30923:30925   */\n              0x20\n                /* \"#utility.yul\":30912:30921   */\n              dup3\n                /* \"#utility.yul\":30908:30926   */\n              add\n                /* \"#utility.yul\":30900:30926   */\n              swap1\n              pop\n                /* \"#utility.yul\":30972:30981   */\n              dup2\n                /* \"#utility.yul\":30966:30970   */\n              dup2\n                /* \"#utility.yul\":30962:30982   */\n              sub\n                /* \"#utility.yul\":30958:30959   */\n              0x00\n                /* \"#utility.yul\":30947:30956   */\n              dup4\n                /* \"#utility.yul\":30943:30960   */\n              add\n                /* \"#utility.yul\":30936:30983   */\n              mstore\n                /* \"#utility.yul\":31000:31131   */\n              tag_672\n                /* \"#utility.yul\":31126:31130   */\n              dup2\n                /* \"#utility.yul\":31000:31131   */\n              tag_363\n              jump\t// in\n            tag_672:\n                /* \"#utility.yul\":30992:31131   */\n              swap1\n              pop\n                /* \"#utility.yul\":30719:31138   */\n              swap2\n              swap1\n              pop\n              jump\t// out\n                /* \"#utility.yul\":31144:31310   */\n            tag_364:\n                /* \"#utility.yul\":31284:31302   */\n              0x6d7573742077616974206c6f6e67657200000000000000000000000000000000\n                /* \"#utility.yul\":31280:31281   */\n              0x00\n                /* \"#utility.yul\":31272:31278   */\n              dup3\n                /* \"#utility.yul\":31268:31282   */\n              add\n                /* \"#utility.yul\":31261:31303   */\n              mstore\n                /* \"#utility.yul\":31144:31310   */\n              pop\n              jump\t// out\n                /* \"#utility.yul\":31316:31682   */\n            tag_365:\n                /* \"#utility.yul\":31458:31461   */\n              0x00\n                /* \"#utility.yul\":31479:31546   */\n              tag_675\n                /* \"#utility.yul\":31543:31545   */\n              0x10\n                /* \"#utility.yul\":31538:31541   */\n              dup4\n                /* \"#utility.yul\":31479:31546   */\n              tag_284\n              jump\t// in\n            tag_675:\n                /* \"#utility.yul\":31472:31546   */\n              swap2\n              pop\n                /* \"#utility.yul\":31555:31648   */\n              tag_676\n                /* \"#utility.yul\":31644:31647   */\n              dup3\n                /* \"#utility.yul\":31555:31648   */\n              tag_364\n              jump\t// in\n            tag_676:\n                /* \"#utility.yul\":31673:31675   */\n              0x20\n                /* \"#utility.yul\":31668:31671   */\n              dup3\n                /* \"#utility.yul\":31664:31676   */\n              add\n                /* \"#utility.yul\":31657:31676   */\n              swap1\n              pop\n                /* \"#utility.yul\":31316:31682   */\n              swap2\n              swap1\n              pop\n              jump\t// out\n                /* \"#utility.yul\":31688:32107   */\n            tag_235:\n                /* \"#utility.yul\":31854:31858   */\n              0x00\n                /* \"#utility.yul\":31892:31894   */\n              0x20\n                /* \"#utility.yul\":31881:31890   */\n              dup3\n                /* \"#utility.yul\":31877:31895   */\n              add\n                /* \"#utility.yul\":31869:31895   */\n              swap1\n              pop\n                /* \"#utility.yul\":31941:31950   */\n              dup2\n                /* \"#utility.yul\":31935:31939   */\n              dup2\n                /* \"#utility.yul\":31931:31951   */\n              sub\n                /* \"#utility.yul\":31927:31928   */\n              0x00\n                /* \"#utility.yul\":31916:31925   */\n              dup4\n                /* \"#utility.yul\":31912:31929   */\n              add\n                /* \"#utility.yul\":31905:31952   */\n              mstore\n                /* \"#utility.yul\":31969:32100   */\n              tag_678\n                /* \"#utility.yul\":32095:32099   */\n              dup2\n                /* \"#utility.yul\":31969:32100   */\n              tag_365\n              jump\t// in\n            tag_678:\n                /* \"#utility.yul\":31961:32100   */\n              swap1\n              pop\n                /* \"#utility.yul\":31688:32107   */\n              swap2\n              swap1\n              pop\n              jump\t// out\n                /* \"#utility.yul\":32113:32285   */\n            tag_366:\n                /* \"#utility.yul\":32253:32277   */\n              0x46756e64696e6720616d6f756e74206e6f74206d657400000000000000000000\n                /* \"#utility.yul\":32249:32250   */\n              0x00\n                /* \"#utility.yul\":32241:32247   */\n              dup3\n                /* \"#utility.yul\":32237:32251   */\n              add\n                /* \"#utility.yul\":32230:32278   */\n              mstore\n                /* \"#utility.yul\":32113:32285   */\n              pop\n              jump\t// out\n                /* \"#utility.yul\":32291:32657   */\n            tag_367:\n                /* \"#utility.yul\":32433:32436   */\n              0x00\n                /* \"#utility.yul\":32454:32521   */\n              tag_681\n                /* \"#utility.yul\":32518:32520   */\n              0x16\n                /* \"#utility.yul\":32513:32516   */\n              dup4\n                /* \"#utility.yul\":32454:32521   */\n              tag_284\n              jump\t// in\n            tag_681:\n                /* \"#utility.yul\":32447:32521   */\n              swap2\n              pop\n                /* \"#utility.yul\":32530:32623   */\n              tag_682\n                /* \"#utility.yul\":32619:32622   */\n              dup3\n                /* \"#utility.yul\":32530:32623   */\n              tag_366\n              jump\t// in\n            tag_682:\n                /* \"#utility.yul\":32648:32650   */\n              0x20\n                /* \"#utility.yul\":32643:32646   */\n              dup3\n                /* \"#utility.yul\":32639:32651   */\n              add\n                /* \"#utility.yul\":32632:32651   */\n              swap1\n              pop\n                /* \"#utility.yul\":32291:32657   */\n              swap2\n              swap1\n              pop\n              jump\t// out\n                /* \"#utility.yul\":32663:33082   */\n            tag_238:\n                /* \"#utility.yul\":32829:32833   */\n              0x00\n                /* \"#utility.yul\":32867:32869   */\n              0x20\n                /* \"#utility.yul\":32856:32865   */\n              dup3\n                /* \"#utility.yul\":32852:32870   */\n              add\n                /* \"#utility.yul\":32844:32870   */\n              swap1\n              pop\n                /* \"#utility.yul\":32916:32925   */\n              dup2\n                /* \"#utility.yul\":32910:32914   */\n              dup2\n                /* \"#utility.yul\":32906:32926   */\n              sub\n                /* \"#utility.yul\":32902:32903   */\n              0x00\n                /* \"#utility.yul\":32891:32900   */\n              dup4\n                /* \"#utility.yul\":32887:32904   */\n              add\n                /* \"#utility.yul\":32880:32927   */\n              mstore\n                /* \"#utility.yul\":32944:33075   */\n              tag_684\n                /* \"#utility.yul\":33070:33074   */\n              dup2\n                /* \"#utility.yul\":32944:33075   */\n              tag_367\n              jump\t// in\n            tag_684:\n                /* \"#utility.yul\":32936:33075   */\n              swap1\n              pop\n                /* \"#utility.yul\":32663:33082   */\n              swap2\n              swap1\n              pop\n              jump\t// out\n                /* \"#utility.yul\":33088:33399   */\n            tag_368:\n                /* \"#utility.yul\":33165:33169   */\n              0x00\n                /* \"#utility.yul\":33255:33273   */\n              0xffffffffffffffff\n                /* \"#utility.yul\":33247:33253   */\n              dup3\n                /* \"#utility.yul\":33244:33274   */\n              gt\n                /* \"#utility.yul\":33241:33297   */\n              iszero\n              tag_686\n              jumpi\n                /* \"#utility.yul\":33277:33295   */\n              tag_687\n              tag_307\n              jump\t// in\n            tag_687:\n                /* \"#utility.yul\":33241:33297   */\n            tag_686:\n                /* \"#utility.yul\":33327:33331   */\n              0x20\n                /* \"#utility.yul\":33319:33325   */\n              dup3\n                /* \"#utility.yul\":33315:33332   */\n              mul\n                /* \"#utility.yul\":33307:33332   */\n              swap1\n              pop\n                /* \"#utility.yul\":33387:33391   */\n              0x20\n                /* \"#utility.yul\":33381:33385   */\n              dup2\n                /* \"#utility.yul\":33377:33392   */\n              add\n                /* \"#utility.yul\":33369:33392   */\n              swap1\n              pop\n                /* \"#utility.yul\":33088:33399   */\n              swap2\n              swap1\n              pop\n              jump\t// out\n                /* \"#utility.yul\":33405:33522   */\n            tag_369:\n                /* \"#utility.yul\":33514:33515   */\n              0x00\n                /* \"#utility.yul\":33511:33512   */\n              dup1\n                /* \"#utility.yul\":33504:33516   */\n              revert\n                /* \"#utility.yul\":33528:33671   */\n            tag_370:\n                /* \"#utility.yul\":33585:33590   */\n              0x00\n                /* \"#utility.yul\":33616:33622   */\n              dup2\n                /* \"#utility.yul\":33610:33623   */\n              mload\n                /* \"#utility.yul\":33601:33623   */\n              swap1\n              pop\n                /* \"#utility.yul\":33632:33665   */\n              tag_690\n                /* \"#utility.yul\":33659:33664   */\n              dup2\n                /* \"#utility.yul\":33632:33665   */\n              tag_277\n              jump\t// in\n            tag_690:\n                /* \"#utility.yul\":33528:33671   */\n              swap3\n              swap2\n              pop\n              pop\n              jump\t// out\n                /* \"#utility.yul\":33694:34426   */\n            tag_371:\n                /* \"#utility.yul\":33801:33806   */\n              0x00\n                /* \"#utility.yul\":33826:33907   */\n              tag_692\n                /* \"#utility.yul\":33842:33906   */\n              tag_693\n                /* \"#utility.yul\":33899:33905   */\n              dup5\n                /* \"#utility.yul\":33842:33906   */\n              tag_368\n              jump\t// in\n            tag_693:\n                /* \"#utility.yul\":33826:33907   */\n              tag_309\n              jump\t// in\n            tag_692:\n                /* \"#utility.yul\":33817:33907   */\n              swap1\n              pop\n                /* \"#utility.yul\":33927:33932   */\n              dup1\n                /* \"#utility.yul\":33956:33962   */\n              dup4\n                /* \"#utility.yul\":33949:33954   */\n              dup3\n                /* \"#utility.yul\":33942:33963   */\n              mstore\n                /* \"#utility.yul\":33990:33994   */\n              0x20\n                /* \"#utility.yul\":33983:33988   */\n              dup3\n                /* \"#utility.yul\":33979:33995   */\n              add\n                /* \"#utility.yul\":33972:33995   */\n              swap1\n              pop\n                /* \"#utility.yul\":34043:34047   */\n              0x20\n                /* \"#utility.yul\":34035:34041   */\n              dup5\n                /* \"#utility.yul\":34031:34048   */\n              mul\n                /* \"#utility.yul\":34023:34029   */\n              dup4\n                /* \"#utility.yul\":34019:34049   */\n              add\n                /* \"#utility.yul\":34072:34075   */\n              dup6\n                /* \"#utility.yul\":34064:34070   */\n              dup2\n                /* \"#utility.yul\":34061:34076   */\n              gt\n                /* \"#utility.yul\":34058:34180   */\n              iszero\n              tag_694\n              jumpi\n                /* \"#utility.yul\":34091:34170   */\n              tag_695\n              tag_369\n              jump\t// in\n            tag_695:\n                /* \"#utility.yul\":34058:34180   */\n            tag_694:\n                /* \"#utility.yul\":34206:34212   */\n              dup4\n                /* \"#utility.yul\":34189:34420   */\n            tag_696:\n                /* \"#utility.yul\":34223:34229   */\n              dup2\n                /* \"#utility.yul\":34218:34221   */\n              dup2\n                /* \"#utility.yul\":34215:34230   */\n              lt\n                /* \"#utility.yul\":34189:34420   */\n              iszero\n              tag_698\n              jumpi\n                /* \"#utility.yul\":34298:34301   */\n              dup1\n                /* \"#utility.yul\":34327:34375   */\n              tag_699\n                /* \"#utility.yul\":34371:34374   */\n              dup9\n                /* \"#utility.yul\":34359:34369   */\n              dup3\n                /* \"#utility.yul\":34327:34375   */\n              tag_370\n              jump\t// in\n            tag_699:\n                /* \"#utility.yul\":34322:34325   */\n              dup5\n                /* \"#utility.yul\":34315:34376   */\n              mstore\n                /* \"#utility.yul\":34405:34409   */\n              0x20\n                /* \"#utility.yul\":34400:34403   */\n              dup5\n                /* \"#utility.yul\":34396:34410   */\n              add\n                /* \"#utility.yul\":34389:34410   */\n              swap4\n              pop\n                /* \"#utility.yul\":34265:34420   */\n              pop\n                /* \"#utility.yul\":34249:34253   */\n              0x20\n                /* \"#utility.yul\":34244:34247   */\n              dup2\n                /* \"#utility.yul\":34240:34254   */\n              add\n                /* \"#utility.yul\":34233:34254   */\n              swap1\n              pop\n                /* \"#utility.yul\":34189:34420   */\n              jump(tag_696)\n            tag_698:\n                /* \"#utility.yul\":34193:34214   */\n              pop\n                /* \"#utility.yul\":33807:34426   */\n              pop\n              pop\n                /* \"#utility.yul\":33694:34426   */\n              swap4\n              swap3\n              pop\n              pop\n              pop\n              jump\t// out\n                /* \"#utility.yul\":34449:34834   */\n            tag_372:\n                /* \"#utility.yul\":34531:34536   */\n              0x00\n                /* \"#utility.yul\":34580:34583   */\n              dup3\n                /* \"#utility.yul\":34573:34577   */\n              0x1f\n                /* \"#utility.yul\":34565:34571   */\n              dup4\n                /* \"#utility.yul\":34561:34578   */\n              add\n                /* \"#utility.yul\":34557:34584   */\n              slt\n                /* \"#utility.yul\":34547:34669   */\n              tag_701\n              jumpi\n                /* \"#utility.yul\":34588:34667   */\n              tag_702\n              tag_305\n              jump\t// in\n            tag_702:\n                /* \"#utility.yul\":34547:34669   */\n            tag_701:\n                /* \"#utility.yul\":34698:34704   */\n              dup2\n                /* \"#utility.yul\":34692:34705   */\n              mload\n                /* \"#utility.yul\":34723:34828   */\n              tag_703\n                /* \"#utility.yul\":34824:34827   */\n              dup5\n                /* \"#utility.yul\":34816:34822   */\n              dup3\n                /* \"#utility.yul\":34809:34813   */\n              0x20\n                /* \"#utility.yul\":34801:34807   */\n              dup7\n                /* \"#utility.yul\":34797:34814   */\n              add\n                /* \"#utility.yul\":34723:34828   */\n              tag_371\n              jump\t// in\n            tag_703:\n                /* \"#utility.yul\":34714:34828   */\n              swap2\n              pop\n                /* \"#utility.yul\":34537:34834   */\n              pop\n                /* \"#utility.yul\":34449:34834   */\n              swap3\n              swap2\n              pop\n              pop\n              jump\t// out\n                /* \"#utility.yul\":34840:35394   */\n            tag_245:\n                /* \"#utility.yul\":34935:34941   */\n              0x00\n                /* \"#utility.yul\":34984:34986   */\n              0x20\n                /* \"#utility.yul\":34972:34981   */\n              dup3\n                /* \"#utility.yul\":34963:34970   */\n              dup5\n                /* \"#utility.yul\":34959:34982   */\n              sub\n                /* \"#utility.yul\":34955:34987   */\n              slt\n                /* \"#utility.yul\":34952:35071   */\n              iszero\n              tag_705\n              jumpi\n                /* \"#utility.yul\":34990:35069   */\n              tag_706\n              tag_273\n              jump\t// in\n            tag_706:\n                /* \"#utility.yul\":34952:35071   */\n            tag_705:\n                /* \"#utility.yul\":35131:35132   */\n              0x00\n                /* \"#utility.yul\":35120:35129   */\n              dup3\n                /* \"#utility.yul\":35116:35133   */\n              add\n                /* \"#utility.yul\":35110:35134   */\n              mload\n                /* \"#utility.yul\":35161:35179   */\n              0xffffffffffffffff\n                /* \"#utility.yul\":35153:35159   */\n              dup2\n                /* \"#utility.yul\":35150:35180   */\n              gt\n                /* \"#utility.yul\":35147:35264   */\n              iszero\n              tag_707\n              jumpi\n                /* \"#utility.yul\":35183:35262   */\n              tag_708\n              tag_274\n              jump\t// in\n            tag_708:\n                /* \"#utility.yul\":35147:35264   */\n            tag_707:\n                /* \"#utility.yul\":35288:35377   */\n              tag_709\n                /* \"#utility.yul\":35369:35376   */\n              dup5\n                /* \"#utility.yul\":35360:35366   */\n              dup3\n                /* \"#utility.yul\":35349:35358   */\n              dup6\n                /* \"#utility.yul\":35345:35367   */\n              add\n                /* \"#utility.yul\":35288:35377   */\n              tag_372\n              jump\t// in\n            tag_709:\n                /* \"#utility.yul\":35278:35377   */\n              swap2\n              pop\n                /* \"#utility.yul\":35081:35387   */\n              pop\n                /* \"#utility.yul\":34840:35394   */\n              swap3\n              swap2\n              pop\n              pop\n              jump\t// out\n                /* \"#utility.yul\":35400:35580   */\n            tag_248:\n                /* \"#utility.yul\":35448:35525   */\n              0x4e487b7100000000000000000000000000000000000000000000000000000000\n                /* \"#utility.yul\":35445:35446   */\n              0x00\n                /* \"#utility.yul\":35438:35526   */\n              mstore\n                /* \"#utility.yul\":35545:35549   */\n              0x32\n                /* \"#utility.yul\":35542:35543   */\n              0x04\n                /* \"#utility.yul\":35535:35550   */\n              mstore\n                /* \"#utility.yul\":35569:35573   */\n              0x24\n                /* \"#utility.yul\":35566:35567   */\n              0x00\n                /* \"#utility.yul\":35559:35574   */\n              revert\n                /* \"#utility.yul\":35586:35707   */\n            tag_373:\n                /* \"#utility.yul\":35675:35676   */\n              0x02\n                /* \"#utility.yul\":35668:35673   */\n              dup2\n                /* \"#utility.yul\":35665:35677   */\n              lt\n                /* \"#utility.yul\":35655:35701   */\n              tag_712\n              jumpi\n                /* \"#utility.yul\":35681:35699   */\n              tag_713\n              tag_137\n              jump\t// in\n            tag_713:\n                /* \"#utility.yul\":35655:35701   */\n            tag_712:\n                /* \"#utility.yul\":35586:35707   */\n              pop\n              jump\t// out\n                /* \"#utility.yul\":35713:35856   */\n            tag_374:\n                /* \"#utility.yul\":35766:35773   */\n              0x00\n                /* \"#utility.yul\":35795:35800   */\n              dup2\n                /* \"#utility.yul\":35784:35800   */\n              swap1\n              pop\n                /* \"#utility.yul\":35801:35850   */\n              tag_715\n                /* \"#utility.yul\":35844:35849   */\n              dup3\n                /* \"#utility.yul\":35801:35850   */\n              tag_373\n              jump\t// in\n            tag_715:\n                /* \"#utility.yul\":35713:35856   */\n              swap2\n              swap1\n              pop\n              jump\t// out\n                /* \"#utility.yul\":35862:36005   */\n            tag_375:\n                /* \"#utility.yul\":35926:35935   */\n              0x00\n                /* \"#utility.yul\":35959:35999   */\n              tag_717\n                /* \"#utility.yul\":35993:35998   */\n              dup3\n                /* \"#utility.yul\":35959:35999   */\n              tag_374\n              jump\t// in\n            tag_717:\n                /* \"#utility.yul\":35946:35999   */\n              swap1\n              pop\n                /* \"#utility.yul\":35862:36005   */\n              swap2\n              swap1\n              pop\n              jump\t// out\n                /* \"#utility.yul\":36011:36170   */\n            tag_376:\n                /* \"#utility.yul\":36112:36163   */\n              tag_719\n                /* \"#utility.yul\":36157:36162   */\n              dup2\n                /* \"#utility.yul\":36112:36163   */\n              tag_375\n              jump\t// in\n            tag_719:\n                /* \"#utility.yul\":36107:36110   */\n              dup3\n                /* \"#utility.yul\":36100:36164   */\n              mstore\n                /* \"#utility.yul\":36011:36170   */\n              pop\n              pop\n              jump\t// out\n                /* \"#utility.yul\":36176:36868   */\n            tag_250:\n                /* \"#utility.yul\":36395:36399   */\n              0x00\n                /* \"#utility.yul\":36433:36436   */\n              0xa0\n                /* \"#utility.yul\":36422:36431   */\n              dup3\n                /* \"#utility.yul\":36418:36437   */\n              add\n                /* \"#utility.yul\":36410:36437   */\n              swap1\n              pop\n                /* \"#utility.yul\":36447:36518   */\n              tag_721\n                /* \"#utility.yul\":36515:36516   */\n              0x00\n                /* \"#utility.yul\":36504:36513   */\n              dup4\n                /* \"#utility.yul\":36500:36517   */\n              add\n                /* \"#utility.yul\":36491:36497   */\n              dup9\n                /* \"#utility.yul\":36447:36518   */\n              tag_288\n              jump\t// in\n            tag_721:\n                /* \"#utility.yul\":36528:36600   */\n              tag_722\n                /* \"#utility.yul\":36596:36598   */\n              0x20\n                /* \"#utility.yul\":36585:36594   */\n              dup4\n                /* \"#utility.yul\":36581:36599   */\n              add\n                /* \"#utility.yul\":36572:36578   */\n              dup8\n                /* \"#utility.yul\":36528:36600   */\n              tag_288\n              jump\t// in\n            tag_722:\n                /* \"#utility.yul\":36610:36682   */\n              tag_723\n                /* \"#utility.yul\":36678:36680   */\n              0x40\n                /* \"#utility.yul\":36667:36676   */\n              dup4\n                /* \"#utility.yul\":36663:36681   */\n              add\n                /* \"#utility.yul\":36654:36660   */\n              dup7\n                /* \"#utility.yul\":36610:36682   */\n              tag_288\n              jump\t// in\n            tag_723:\n                /* \"#utility.yul\":36692:36778   */\n              tag_724\n                /* \"#utility.yul\":36774:36776   */\n              0x60\n                /* \"#utility.yul\":36763:36772   */\n              dup4\n                /* \"#utility.yul\":36759:36777   */\n              add\n                /* \"#utility.yul\":36750:36756   */\n              dup6\n                /* \"#utility.yul\":36692:36778   */\n              tag_376\n              jump\t// in\n            tag_724:\n                /* \"#utility.yul\":36788:36861   */\n              tag_725\n                /* \"#utility.yul\":36856:36859   */\n              0x80\n                /* \"#utility.yul\":36845:36854   */\n              dup4\n                /* \"#utility.yul\":36841:36860   */\n              add\n                /* \"#utility.yul\":36832:36838   */\n              dup5\n                /* \"#utility.yul\":36788:36861   */\n              tag_288\n              jump\t// in\n            tag_725:\n                /* \"#utility.yul\":36176:36868   */\n              swap7\n              swap6\n              pop\n              pop\n              pop\n              pop\n              pop\n              pop\n              jump\t// out\n                /* \"#utility.yul\":36874:37054   */\n            tag_377:\n                /* \"#utility.yul\":37014:37046   */\n              0x496e76616c696420737461746520666f7220636f6e747269627574696f6e0000\n                /* \"#utility.yul\":37010:37011   */\n              0x00\n                /* \"#utility.yul\":37002:37008   */\n              dup3\n                /* \"#utility.yul\":36998:37012   */\n              add\n                /* \"#utility.yul\":36991:37047   */\n              mstore\n                /* \"#utility.yul\":36874:37054   */\n              pop\n              jump\t// out\n                /* \"#utility.yul\":37060:37426   */\n            tag_378:\n                /* \"#utility.yul\":37202:37205   */\n              0x00\n                /* \"#utility.yul\":37223:37290   */\n              tag_728\n                /* \"#utility.yul\":37287:37289   */\n              0x1e\n                /* \"#utility.yul\":37282:37285   */\n              dup4\n                /* \"#utility.yul\":37223:37290   */\n              tag_284\n              jump\t// in\n            tag_728:\n                /* \"#utility.yul\":37216:37290   */\n              swap2\n              pop\n                /* \"#utility.yul\":37299:37392   */\n              tag_729\n                /* \"#utility.yul\":37388:37391   */\n              dup3\n                /* \"#utility.yul\":37299:37392   */\n              tag_377\n              jump\t// in\n            tag_729:\n                /* \"#utility.yul\":37417:37419   */\n              0x20\n                /* \"#utility.yul\":37412:37415   */\n              dup3\n                /* \"#utility.yul\":37408:37420   */\n              add\n                /* \"#utility.yul\":37401:37420   */\n              swap1\n              pop\n                /* \"#utility.yul\":37060:37426   */\n              swap2\n              swap1\n              pop\n              jump\t// out\n                /* \"#utility.yul\":37432:37851   */\n            tag_268:\n                /* \"#utility.yul\":37598:37602   */\n              0x00\n                /* \"#utility.yul\":37636:37638   */\n              0x20\n                /* \"#utility.yul\":37625:37634   */\n              dup3\n                /* \"#utility.yul\":37621:37639   */\n              add\n                /* \"#utility.yul\":37613:37639   */\n              swap1\n              pop\n                /* \"#utility.yul\":37685:37694   */\n              dup2\n                /* \"#utility.yul\":37679:37683   */\n              dup2\n                /* \"#utility.yul\":37675:37695   */\n              sub\n                /* \"#utility.yul\":37671:37672   */\n              0x00\n                /* \"#utility.yul\":37660:37669   */\n              dup4\n                /* \"#utility.yul\":37656:37673   */\n              add\n                /* \"#utility.yul\":37649:37696   */\n              mstore\n                /* \"#utility.yul\":37713:37844   */\n              tag_731\n                /* \"#utility.yul\":37839:37843   */\n              dup2\n                /* \"#utility.yul\":37713:37844   */\n              tag_378\n              jump\t// in\n            tag_731:\n                /* \"#utility.yul\":37705:37844   */\n              swap1\n              pop\n                /* \"#utility.yul\":37432:37851   */\n              swap2\n              swap1\n              pop\n              jump\t// out\n\n            auxdata: 0xa26469706673582212208d2728423685b6a3502afdf2d730659d036aeb0bbebe12a887e0bd4aeef6444b64736f6c63430008110033\n        }\n    }\n\n    auxdata: 0xa264697066735822122050e0b5cda3868ad3bae15384905c58d1c861aabc8fec6e0a541ff6c79cce36f464736f6c63430008110033\n}\n","bytecode":{"linkReferences":{},"object":"60e060405234801561001057600080fd5b50604051613e61380380613e6183398181016040528101906100329190610138565b3073ffffffffffffffffffffffffffffffffffffffff1660808173ffffffffffffffffffffffffffffffffffffffff16815250508173ffffffffffffffffffffffffffffffffffffffff1660a08173ffffffffffffffffffffffffffffffffffffffff16815250508073ffffffffffffffffffffffffffffffffffffffff1660c08173ffffffffffffffffffffffffffffffffffffffff16815250505050610178565b600080fd5b600073ffffffffffffffffffffffffffffffffffffffff82169050919050565b6000610105826100da565b9050919050565b610115816100fa565b811461012057600080fd5b50565b6000815190506101328161010c565b92915050565b6000806040838503121561014f5761014e6100d5565b5b600061015d85828601610123565b925050602061016e85828601610123565b9150509250929050565b60805160a05160c051613cba6101a7600039600061016301526000610142015260006103190152613cba6000f3fe60806040523480156200001157600080fd5b5060043610620000525760003560e01c8063013cf08b146200005757806349c2a1a6146200008d57806362564c4814620000ad5780638da5cb5b14620000cf575b600080fd5b6200007560048036038101906200006f9190620003c5565b620000f1565b6040516200008491906200043c565b60405180910390f35b620000ab6004803603810190620000a59190620004c7565b62000131565b005b620000b762000263565b604051620000c69190620005ea565b60405180910390f35b620000d9620002f3565b604051620000e891906200043c565b60405180910390f35b600181815481106200010257600080fd5b906000526020600020016000915054906101000a900473ffffffffffffffffffffffffffffffffffffffff1681565b6200013b62000317565b60003383837f00000000000000000000000000000000000000000000000000000000000000007f0000000000000000000000000000000000000000000000000000000000000000604051620001909062000372565b620001a095949392919062000672565b604051809103906000f080158015620001bd573d6000803e3d6000fd5b5090506001819080600181540180825580915050600190039060005260206000200160009091909190916101000a81548173ffffffffffffffffffffffffffffffffffffffff021916908373ffffffffffffffffffffffffffffffffffffffff1602179055507f452ab1b43e295baa201eb0d01fcbcb6bd9f5f2035554bcf6f3e1fedbbc53d830338260405162000256929190620006c8565b60405180910390a1505050565b60606001805480602002602001604051908101604052809291908181526020018280548015620002e957602002820191906000526020600020905b8160009054906101000a900473ffffffffffffffffffffffffffffffffffffffff1673ffffffffffffffffffffffffffffffffffffffff16815260200190600101908083116200029e575b5050505050905090565b60008054906101000a900473ffffffffffffffffffffffffffffffffffffffff1681565b7f000000000000000000000000000000000000000000000000000000000000000073ffffffffffffffffffffffffffffffffffffffff163073ffffffffffffffffffffffffffffffffffffffff16146200037057600080fd5b565b61358f80620006f683390190565b600080fd5b600080fd5b6000819050919050565b6200039f816200038a565b8114620003ab57600080fd5b50565b600081359050620003bf8162000394565b92915050565b600060208284031215620003de57620003dd62000380565b5b6000620003ee84828501620003ae565b91505092915050565b600073ffffffffffffffffffffffffffffffffffffffff82169050919050565b60006200042482620003f7565b9050919050565b620004368162000417565b82525050565b60006020820190506200045360008301846200042b565b92915050565b600080fd5b600080fd5b600080fd5b60008083601f84011262000481576200048062000459565b5b8235905067ffffffffffffffff811115620004a157620004a06200045e565b5b602083019150836001820283011115620004c057620004bf62000463565b5b9250929050565b60008060208385031215620004e157620004e062000380565b5b600083013567ffffffffffffffff81111562000502576200050162000385565b5b620005108582860162000468565b92509250509250929050565b600081519050919050565b600082825260208201905092915050565b6000819050602082019050919050565b620005538162000417565b82525050565b600062000567838362000548565b60208301905092915050565b6000602082019050919050565b60006200058d826200051c565b62000599818562000527565b9350620005a68362000538565b8060005b83811015620005dd578151620005c1888262000559565b9750620005ce8362000573565b925050600181019050620005aa565b5085935050505092915050565b6000602082019050818103600083015262000606818462000580565b905092915050565b600082825260208201905092915050565b82818337600083830152505050565b6000601f19601f8301169050919050565b60006200064d83856200060e565b93506200065c8385846200061f565b62000667836200062e565b840190509392505050565b60006080820190506200068960008301886200042b565b81810360208301526200069e8186886200063f565b9050620006af60408301856200042b565b620006be60608301846200042b565b9695505050505050565b6000604082019050620006df60008301856200042b565b620006ee60208301846200042b565b939250505056fe60e06040526000600760006101000a81548163ffffffff021916908363ffffffff1602179055506003600960006101000a81548163ffffffff021916908363ffffffff1602179055506000600960046101000a81548160ff0219169083151502179055506000600960056101000a81548163ffffffff021916908363ffffffff1602179055503480156200009257600080fd5b506040516200358f3803806200358f8339818101604052810190620000b89190620003c9565b8373ffffffffffffffffffffffffffffffffffffffff1660808173ffffffffffffffffffffffffffffffffffffffff16815250508260019081620000fd9190620006a5565b506000600260006101000a81548160ff021916908360038111156200012757620001266200078c565b5b02179055508173ffffffffffffffffffffffffffffffffffffffff1660a08173ffffffffffffffffffffffffffffffffffffffff168152505042600681905550600760009054906101000a900463ffffffff1663ffffffff16426200018d9190620007ea565b6008819055508073ffffffffffffffffffffffffffffffffffffffff1660c08173ffffffffffffffffffffffffffffffffffffffff16815250505050505062000825565b6000604051905090565b600080fd5b600080fd5b600073ffffffffffffffffffffffffffffffffffffffff82169050919050565b60006200021282620001e5565b9050919050565b620002248162000205565b81146200023057600080fd5b50565b600081519050620002448162000219565b92915050565b600080fd5b600080fd5b6000601f19601f8301169050919050565b7f4e487b7100000000000000000000000000000000000000000000000000000000600052604160045260246000fd5b6200029f8262000254565b810181811067ffffffffffffffff82111715620002c157620002c062000265565b5b80604052505050565b6000620002d6620001d1565b9050620002e4828262000294565b919050565b600067ffffffffffffffff82111562000307576200030662000265565b5b620003128262000254565b9050602081019050919050565b60005b838110156200033f57808201518184015260208101905062000322565b60008484015250505050565b6000620003626200035c84620002e9565b620002ca565b9050828152602081018484840111156200038157620003806200024f565b5b6200038e8482856200031f565b509392505050565b600082601f830112620003ae57620003ad6200024a565b5b8151620003c08482602086016200034b565b91505092915050565b60008060008060808587031215620003e657620003e5620001db565b5b6000620003f68782880162000233565b945050602085015167ffffffffffffffff8111156200041a5762000419620001e0565b5b620004288782880162000396565b93505060406200043b8782880162000233565b92505060606200044e8782880162000233565b91505092959194509250565b600081519050919050565b7f4e487b7100000000000000000000000000000000000000000000000000000000600052602260045260246000fd5b60006002820490506001821680620004ad57607f821691505b602082108103620004c357620004c262000465565b5b50919050565b60008190508160005260206000209050919050565b60006020601f8301049050919050565b600082821b905092915050565b6000600883026200052d7fffffffffffffffffffffffffffffffffffffffffffffffffffffffffffffffff82620004ee565b620005398683620004ee565b95508019841693508086168417925050509392505050565b6000819050919050565b6000819050919050565b600062000586620005806200057a8462000551565b6200055b565b62000551565b9050919050565b6000819050919050565b620005a28362000565565b620005ba620005b1826200058d565b848454620004fb565b825550505050565b600090565b620005d1620005c2565b620005de81848462000597565b505050565b5b818110156200060657620005fa600082620005c7565b600181019050620005e4565b5050565b601f82111562000655576200061f81620004c9565b6200062a84620004de565b810160208510156200063a578190505b620006526200064985620004de565b830182620005e3565b50505b505050565b600082821c905092915050565b60006200067a600019846008026200065a565b1980831691505092915050565b600062000695838362000667565b9150826002028217905092915050565b620006b0826200045a565b67ffffffffffffffff811115620006cc57620006cb62000265565b5b620006d8825462000494565b620006e58282856200060a565b600060209050601f8311600181146200071d576000841562000708578287015190505b62000714858262000687565b86555062000784565b601f1984166200072d86620004c9565b60005b82811015620007575784890151825560018201915060208501945060208101905062000730565b8683101562000777578489015162000773601f89168262000667565b8355505b6001600288020188555050505b505050505050565b7f4e487b7100000000000000000000000000000000000000000000000000000000600052602160045260246000fd5b7f4e487b7100000000000000000000000000000000000000000000000000000000600052601160045260246000fd5b6000620007f78262000551565b9150620008048362000551565b92508282019050808211156200081f576200081e620007bb565b5b92915050565b60805160a05160c051612d2c6200086360003960006116f10152600081816111e201526116a20152600081816105f301526118140152612d2c6000f3fe6080604052600436106101405760003560e01c80636eaef9a9116100b6578063b81c78ec1161006f578063b81c78ec14610410578063b81ccbf81461043b578063be58196b14610466578063c7b96dba1461048f578063cff29dfd146104a6578063d7bb99ba146104e357610140565b80636eaef9a9146102fe57806385758c27146103275780638890ed09146103645780638af9fe3f1461038f578063b69ef8a8146103ba578063b6abba9c146103e557610140565b80633dada5e1116101085780633dada5e11461022c57806340eedabb146102695780634b21bac714610294578063590e1ae3146102bf5780635f38a27e146102c95780636a3aa8e3146102f457610140565b806312dcffe5146101455780631d0d35f5146101825780631f741c7a146101bf57806320c414bf146101ea578063222268be14610215575b600080fd5b34801561015157600080fd5b5061016c60048036038101906101679190611ac6565b6104ed565b6040516101799190611b0c565b60405180910390f35b34801561018e57600080fd5b506101a960048036038101906101a49190611ac6565b610536565b6040516101b69190611b42565b60405180910390f35b3480156101cb57600080fd5b506101d4610581565b6040516101e19190611b0c565b60405180910390f35b3480156101f657600080fd5b506101ff610587565b60405161020c9190611b42565b60405180910390f35b34801561022157600080fd5b5061022a61059a565b005b34801561023857600080fd5b50610253600480360381019061024e9190611ac6565b6106d9565b6040516102609190611bed565b60405180910390f35b34801561027557600080fd5b5061027e6107aa565b60405161028b9190611c1e565b60405180910390f35b3480156102a057600080fd5b506102a96107d0565b6040516102b69190611bed565b60405180910390f35b6102c761085e565b005b3480156102d557600080fd5b506102de610a21565b6040516102eb9190611c58565b60405180910390f35b6102fc610a37565b005b34801561030a57600080fd5b5061032560048036038101906103209190611cb1565b610b9a565b005b34801561033357600080fd5b5061034e60048036038101906103499190611ac6565b611036565b60405161035b9190611b0c565b60405180910390f35b34801561037057600080fd5b5061037961107f565b6040516103869190611c1e565b60405180910390f35b34801561039b57600080fd5b506103a46110a5565b6040516103b19190611d55565b60405180910390f35b3480156103c657600080fd5b506103cf6110b8565b6040516103dc9190611b0c565b60405180910390f35b3480156103f157600080fd5b506103fa6110be565b6040516104079190611c58565b60405180910390f35b34801561041c57600080fd5b506104256110d4565b6040516104329190611e2e565b60405180910390f35b34801561044757600080fd5b50610450611162565b60405161045d9190611b0c565b60405180910390f35b34801561047257600080fd5b5061048d60048036038101906104889190611fb1565b611168565b005b34801561049b57600080fd5b506104a461146e565b005b3480156104b257600080fd5b506104cd60048036038101906104c8919061200d565b6118ba565b6040516104da9190611c1e565b60405180910390f35b6104eb6118f9565b005b6000600d60008373ffffffffffffffffffffffffffffffffffffffff1673ffffffffffffffffffffffffffffffffffffffff168152602001908152602001600020549050919050565b600080600360008473ffffffffffffffffffffffffffffffffffffffff1673ffffffffffffffffffffffffffffffffffffffff16815260200190815260200160002054119050919050565b60065481565b600960049054906101000a900460ff1681565b600c60009054906101000a900473ffffffffffffffffffffffffffffffffffffffff1673ffffffffffffffffffffffffffffffffffffffff163373ffffffffffffffffffffffffffffffffffffffff16148061064157507f000000000000000000000000000000000000000000000000000000000000000073ffffffffffffffffffffffffffffffffffffffff163373ffffffffffffffffffffffffffffffffffffffff16145b610680576040517f08c379a000000000000000000000000000000000000000000000000000000000815260040161067790612086565b60405180910390fd5b6003600260006101000a81548160ff021916908360038111156106a6576106a5611cde565b5b02179055507faa0bd7cd99bfeb112d24bcaee2e5d057407eb13494c8a5ceef53268f772c4d9b60405160405180910390a1565b6060600460008373ffffffffffffffffffffffffffffffffffffffff1673ffffffffffffffffffffffffffffffffffffffff1681526020019081526020016000208054610725906120d5565b80601f0160208091040260200160405190810160405280929190818152602001828054610751906120d5565b801561079e5780601f106107735761010080835404028352916020019161079e565b820191906000526020600020905b81548152906001019060200180831161078157829003601f168201915b50505050509050919050565b600b60009054906101000a900473ffffffffffffffffffffffffffffffffffffffff1681565b600180546107dd906120d5565b80601f0160208091040260200160405190810160405280929190818152602001828054610809906120d5565b80156108565780601f1061082b57610100808354040283529160200191610856565b820191906000526020600020905b81548152906001019060200180831161083957829003601f168201915b505050505081565b6002600381111561087257610871611cde565b5b600260009054906101000a900460ff16600381111561089457610893611cde565b5b036108d4576040517f08c379a00000000000000000000000000000000000000000000000000000000081526004016108cb90612152565b60405180910390fd5b6000600360003373ffffffffffffffffffffffffffffffffffffffff1673ffffffffffffffffffffffffffffffffffffffff1681526020019081526020016000205490506000811161095b576040517f08c379a0000000000000000000000000000000000000000000000000000000008152600401610952906121be565b60405180910390fd5b3373ffffffffffffffffffffffffffffffffffffffff166108fc829081150290604051600060405180830381858888f193505050501580156109a1573d6000803e3d6000fd5b506000600360003373ffffffffffffffffffffffffffffffffffffffff1673ffffffffffffffffffffffffffffffffffffffff168152602001908152602001600020819055507f64a19944946955995bb521fbf068bfd6ba64497e91e11948a97acd706bffb55f33604051610a169190611c1e565b60405180910390a150565b600960009054906101000a900463ffffffff1681565b3373ffffffffffffffffffffffffffffffffffffffff16600c60009054906101000a900473ffffffffffffffffffffffffffffffffffffffff1673ffffffffffffffffffffffffffffffffffffffff1614610ac7576040517f08c379a0000000000000000000000000000000000000000000000000000000008152600401610abe9061222a565b60405180910390fd5b6000600c60009054906101000a900473ffffffffffffffffffffffffffffffffffffffff1673ffffffffffffffffffffffffffffffffffffffff16600054604051610b119061227b565b60006040518083038185875af1925050503d8060008114610b4e576040519150601f19603f3d011682016040523d82523d6000602084013e610b53565b606091505b5050905080610b97576040517f08c379a0000000000000000000000000000000000000000000000000000000008152600401610b8e906122dc565b60405180910390fd5b50565b600e60003373ffffffffffffffffffffffffffffffffffffffff1673ffffffffffffffffffffffffffffffffffffffff16815260200190815260200160002060009054906101000a900460ff1615610c27576040517f08c379a0000000000000000000000000000000000000000000000000000000008152600401610c1e90612348565b60405180910390fd5b60006003811115610c3b57610c3a611cde565b5b600260009054906101000a900460ff166003811115610c5d57610c5c611cde565b5b14610c9d576040517f08c379a0000000000000000000000000000000000000000000000000000000008152600401610c94906123b4565b60405180910390fd5b6000600560008373ffffffffffffffffffffffffffffffffffffffff1673ffffffffffffffffffffffffffffffffffffffff1681526020019081526020016000205411610d1f576040517f08c379a0000000000000000000000000000000000000000000000000000000008152600401610d1690612420565b60405180910390fd5b6001600d60008373ffffffffffffffffffffffffffffffffffffffff1673ffffffffffffffffffffffffffffffffffffffff1681526020019081526020016000206000828254610d6f919061246f565b925050819055506009600581819054906101000a900463ffffffff1680929190610d98906124a3565b91906101000a81548163ffffffff021916908363ffffffff160217905550506001600e60003373ffffffffffffffffffffffffffffffffffffffff1673ffffffffffffffffffffffffffffffffffffffff16815260200190815260200160002060006101000a81548160ff0219169083151502179055506000600d6000600b60009054906101000a900473ffffffffffffffffffffffffffffffffffffffff1673ffffffffffffffffffffffffffffffffffffffff1673ffffffffffffffffffffffffffffffffffffffff1681526020019081526020016000205403610ebe5780600b60006101000a81548173ffffffffffffffffffffffffffffffffffffffff021916908373ffffffffffffffffffffffffffffffffffffffff160217905550610f82565b600d6000600b60009054906101000a900473ffffffffffffffffffffffffffffffffffffffff1673ffffffffffffffffffffffffffffffffffffffff1673ffffffffffffffffffffffffffffffffffffffff16815260200190815260200160002054600960059054906101000a900463ffffffff1663ffffffff161015610f815780600b60006101000a81548173ffffffffffffffffffffffffffffffffffffffff021916908373ffffffffffffffffffffffffffffffffffffffff1602179055505b5b600960009054906101000a900463ffffffff1663ffffffff16600d60008373ffffffffffffffffffffffffffffffffffffffff1673ffffffffffffffffffffffffffffffffffffffff1681526020019081526020016000205410610ffc576001600960046101000a81548160ff0219169083151502179055505b7f24e53c9b6f7a01c723fa01359e44b47e62ab501027dbb092d38e3669d6b01d083360405161102b9190611c1e565b60405180910390a150565b6000600560008373ffffffffffffffffffffffffffffffffffffffff1673ffffffffffffffffffffffffffffffffffffffff168152602001908152602001600020549050919050565b600c60009054906101000a900473ffffffffffffffffffffffffffffffffffffffff1681565b600260009054906101000a900460ff1681565b60005481565b600760009054906101000a900463ffffffff1681565b6060600a80548060200260200160405190810160405280929190818152602001828054801561115857602002820191906000526020600020905b8160009054906101000a900473ffffffffffffffffffffffffffffffffffffffff1673ffffffffffffffffffffffffffffffffffffffff168152602001906001019080831161110e575b5050505050905090565b60085481565b6000600381111561117c5761117b611cde565b5b600260009054906101000a900460ff16600381111561119e5761119d611cde565b5b146111de576040517f08c379a00000000000000000000000000000000000000000000000000000000081526004016111d59061251b565b60405180910390fd5b60007f000000000000000000000000000000000000000000000000000000000000000090508073ffffffffffffffffffffffffffffffffffffffff166375838862336040518263ffffffff1660e01b815260040161123c9190611c1e565b602060405180830381865afa158015611259573d6000803e3d6000fd5b505050506040513d601f19601f8201168201806040525081019061127d9190612567565b6112bc576040517f08c379a00000000000000000000000000000000000000000000000000000000081526004016112b3906125e0565b60405180910390fd5b6000600560003373ffffffffffffffffffffffffffffffffffffffff1673ffffffffffffffffffffffffffffffffffffffff168152602001908152602001600020541461133e576040517f08c379a00000000000000000000000000000000000000000000000000000000081526004016113359061264c565b60405180910390fd5b82600460003373ffffffffffffffffffffffffffffffffffffffff1673ffffffffffffffffffffffffffffffffffffffff168152602001908152602001600020908161138a9190612818565b5081600560003373ffffffffffffffffffffffffffffffffffffffff1673ffffffffffffffffffffffffffffffffffffffff16815260200190815260200160002081905550600a339080600181540180825580915050600190039060005260206000200160009091909190916101000a81548173ffffffffffffffffffffffffffffffffffffffff021916908373ffffffffffffffffffffffffffffffffffffffff1602179055507f23914683cb862ec5961902cca21fb0378fd27a633c4d929996c2a14abcfd5b51336040516114619190611c1e565b60405180910390a1505050565b600b60009054906101000a900473ffffffffffffffffffffffffffffffffffffffff1673ffffffffffffffffffffffffffffffffffffffff163373ffffffffffffffffffffffffffffffffffffffff16146114fe576040517f08c379a00000000000000000000000000000000000000000000000000000000081526004016114f590612936565b60405180910390fd5b600960049054906101000a900460ff1661154d576040517f08c379a0000000000000000000000000000000000000000000000000000000008152600401611544906129a2565b60405180910390fd5b6008544211611591576040517f08c379a000000000000000000000000000000000000000000000000000000000815260040161158890612a0e565b60405180910390fd5b600060056000600b60009054906101000a900473ffffffffffffffffffffffffffffffffffffffff1673ffffffffffffffffffffffffffffffffffffffff1673ffffffffffffffffffffffffffffffffffffffff168152602001908152602001600020549050806000541161163b576040517f08c379a000000000000000000000000000000000000000000000000000000000815260040161163290612a7a565b60405180910390fd5b600b60009054906101000a900473ffffffffffffffffffffffffffffffffffffffff16600c60006101000a81548173ffffffffffffffffffffffffffffffffffffffff021916908373ffffffffffffffffffffffffffffffffffffffff16021790555060007f0000000000000000000000000000000000000000000000000000000000000000905060028060006101000a81548160ff021916908360038111156116e8576116e7611cde565b5b021790555060007f0000000000000000000000000000000000000000000000000000000000000000905060008273ffffffffffffffffffffffffffffffffffffffff1663fadd65c3600b60009054906101000a900473ffffffffffffffffffffffffffffffffffffffff166040518263ffffffff1660e01b815260040161176f9190611c1e565b600060405180830381865afa15801561178c573d6000803e3d6000fd5b505050506040513d6000823e3d601f19601f820116820180604052508101906117b59190612b77565b90508173ffffffffffffffffffffffffffffffffffffffff1663c6211077826000815181106117e7576117e6612bc0565b5b6020026020010151600c60009054906101000a900473ffffffffffffffffffffffffffffffffffffffff167f00000000000000000000000000000000000000000000000000000000000000006000306040518663ffffffff1660e01b8152600401611856959493929190612c37565b600060405180830381600087803b15801561187057600080fd5b505af1158015611884573d6000803e3d6000fd5b505050507f45b0f4bc838cfd8748cc5dfb3c6627145d32ddcb17804ddf52cd8cc9e5cd1b5d60405160405180910390a150505050565b600a81815481106118ca57600080fd5b906000526020600020016000915054906101000a900473ffffffffffffffffffffffffffffffffffffffff1681565b6000600381111561190d5761190c611cde565b5b600260009054906101000a900460ff16600381111561192f5761192e611cde565b5b148061196e57506001600381111561194a57611949611cde565b5b600260009054906101000a900460ff16600381111561196c5761196b611cde565b5b145b6119ad576040517f08c379a00000000000000000000000000000000000000000000000000000000081526004016119a490612cd6565b60405180910390fd5b34600360003373ffffffffffffffffffffffffffffffffffffffff1673ffffffffffffffffffffffffffffffffffffffff16815260200190815260200160002060008282546119fc919061246f565b9250508190555034600080828254611a14919061246f565b925050819055507f35a268d4c65b4afb5b15f6e60f11fd64cce0aa427e6d48058be6e9b697c493d733604051611a4a9190611c1e565b60405180910390a1565b6000604051905090565b600080fd5b600080fd5b600073ffffffffffffffffffffffffffffffffffffffff82169050919050565b6000611a9382611a68565b9050919050565b611aa381611a88565b8114611aae57600080fd5b50565b600081359050611ac081611a9a565b92915050565b600060208284031215611adc57611adb611a5e565b5b6000611aea84828501611ab1565b91505092915050565b6000819050919050565b611b0681611af3565b82525050565b6000602082019050611b216000830184611afd565b92915050565b60008115159050919050565b611b3c81611b27565b82525050565b6000602082019050611b576000830184611b33565b92915050565b600081519050919050565b600082825260208201905092915050565b60005b83811015611b97578082015181840152602081019050611b7c565b60008484015250505050565b6000601f19601f8301169050919050565b6000611bbf82611b5d565b611bc98185611b68565b9350611bd9818560208601611b79565b611be281611ba3565b840191505092915050565b60006020820190508181036000830152611c078184611bb4565b905092915050565b611c1881611a88565b82525050565b6000602082019050611c336000830184611c0f565b92915050565b600063ffffffff82169050919050565b611c5281611c39565b82525050565b6000602082019050611c6d6000830184611c49565b92915050565b6000611c7e82611a68565b9050919050565b611c8e81611c73565b8114611c9957600080fd5b50565b600081359050611cab81611c85565b92915050565b600060208284031215611cc757611cc6611a5e565b5b6000611cd584828501611c9c565b91505092915050565b7f4e487b7100000000000000000000000000000000000000000000000000000000600052602160045260246000fd5b60048110611d1e57611d1d611cde565b5b50565b6000819050611d2f82611d0d565b919050565b6000611d3f82611d21565b9050919050565b611d4f81611d34565b82525050565b6000602082019050611d6a6000830184611d46565b92915050565b600081519050919050565b600082825260208201905092915050565b6000819050602082019050919050565b611da581611a88565b82525050565b6000611db78383611d9c565b60208301905092915050565b6000602082019050919050565b6000611ddb82611d70565b611de58185611d7b565b9350611df083611d8c565b8060005b83811015611e21578151611e088882611dab565b9750611e1383611dc3565b925050600181019050611df4565b5085935050505092915050565b60006020820190508181036000830152611e488184611dd0565b905092915050565b600080fd5b600080fd5b7f4e487b7100000000000000000000000000000000000000000000000000000000600052604160045260246000fd5b611e9282611ba3565b810181811067ffffffffffffffff82111715611eb157611eb0611e5a565b5b80604052505050565b6000611ec4611a54565b9050611ed08282611e89565b919050565b600067ffffffffffffffff821115611ef057611eef611e5a565b5b611ef982611ba3565b9050602081019050919050565b82818337600083830152505050565b6000611f28611f2384611ed5565b611eba565b905082815260208101848484011115611f4457611f43611e55565b5b611f4f848285611f06565b509392505050565b600082601f830112611f6c57611f6b611e50565b5b8135611f7c848260208601611f15565b91505092915050565b611f8e81611af3565b8114611f9957600080fd5b50565b600081359050611fab81611f85565b92915050565b60008060408385031215611fc857611fc7611a5e565b5b600083013567ffffffffffffffff811115611fe657611fe5611a63565b5b611ff285828601611f57565b925050602061200385828601611f9c565b9150509250929050565b60006020828403121561202357612022611a5e565b5b600061203184828501611f9c565b91505092915050565b7f696e76616c6964206164647265737320746f2068616c74000000000000000000600082015250565b6000612070601783611b68565b915061207b8261203a565b602082019050919050565b6000602082019050818103600083015261209f81612063565b9050919050565b7f4e487b7100000000000000000000000000000000000000000000000000000000600052602260045260246000fd5b600060028204905060018216806120ed57607f821691505b602082108103612100576120ff6120a6565b5b50919050565b7f616c72656164792066756e646564207374617465000000000000000000000000600082015250565b600061213c601483611b68565b915061214782612106565b602082019050919050565b6000602082019050818103600083015261216b8161212f565b9050919050565b7f696e616c696420616d6f756e7420666f7220726566756e640000000000000000600082015250565b60006121a8601883611b68565b91506121b382612172565b602082019050919050565b600060208201905081810360008301526121d78161219b565b9050919050565b7f616464726573732064656e696564000000000000000000000000000000000000600082015250565b6000612214600e83611b68565b915061221f826121de565b602082019050919050565b6000602082019050818103600083015261224381612207565b9050919050565b600081905092915050565b50565b600061226560008361224a565b915061227082612255565b600082019050919050565b600061228682612258565b9150819050919050565b7f4661696c656420746f2073656e64204574686572000000000000000000000000600082015250565b60006122c6601483611b68565b91506122d182612290565b602082019050919050565b600060208201905081810360008301526122f5816122b9565b9050919050565b7f416c726561647920766f74656400000000000000000000000000000000000000600082015250565b6000612332600d83611b68565b915061233d826122fc565b602082019050919050565b6000602082019050818103600083015261236181612325565b9050919050565b7f4d75737420626520696e2062696464696e6720737461746520746f20766f7465600082015250565b600061239e602083611b68565b91506123a982612368565b602082019050919050565b600060208201905081810360008301526123cd81612391565b9050919050565b7f6164647265737320646964206e6f7420676976652062696420616d6f756e7400600082015250565b600061240a601f83611b68565b9150612415826123d4565b602082019050919050565b60006020820190508181036000830152612439816123fd565b9050919050565b7f4e487b7100000000000000000000000000000000000000000000000000000000600052601160045260246000fd5b600061247a82611af3565b915061248583611af3565b925082820190508082111561249d5761249c612440565b5b92915050565b60006124ae82611c39565b915063ffffffff82036124c4576124c3612440565b5b600182019050919050565b7f4d75737420626520696e2062696464696e672073746174650000000000000000600082015250565b6000612505601883611b68565b9150612510826124cf565b602082019050919050565b60006020820190508181036000830152612534816124f8565b9050919050565b61254481611b27565b811461254f57600080fd5b50565b6000815190506125618161253b565b92915050565b60006020828403121561257d5761257c611a5e565b5b600061258b84828501612552565b91505092915050565b7f4d7573742062652061206d656d62657200000000000000000000000000000000600082015250565b60006125ca601083611b68565b91506125d582612594565b602082019050919050565b600060208201905081810360008301526125f9816125bd565b9050919050565b7f616464726573732068617320616c726561647920626964000000000000000000600082015250565b6000612636601783611b68565b915061264182612600565b602082019050919050565b6000602082019050818103600083015261266581612629565b9050919050565b60008190508160005260206000209050919050565b60006020601f8301049050919050565b600082821b905092915050565b6000600883026126ce7fffffffffffffffffffffffffffffffffffffffffffffffffffffffffffffffff82612691565b6126d88683612691565b95508019841693508086168417925050509392505050565b6000819050919050565b600061271561271061270b84611af3565b6126f0565b611af3565b9050919050565b6000819050919050565b61272f836126fa565b61274361273b8261271c565b84845461269e565b825550505050565b600090565b61275861274b565b612763818484612726565b505050565b5b818110156127875761277c600082612750565b600181019050612769565b5050565b601f8211156127cc5761279d8161266c565b6127a684612681565b810160208510156127b5578190505b6127c96127c185612681565b830182612768565b50505b505050565b600082821c905092915050565b60006127ef600019846008026127d1565b1980831691505092915050565b600061280883836127de565b9150826002028217905092915050565b61282182611b5d565b67ffffffffffffffff81111561283a57612839611e5a565b5b61284482546120d5565b61284f82828561278b565b600060209050601f8311600181146128825760008415612870578287015190505b61287a85826127fc565b8655506128e2565b601f1984166128908661266c565b60005b828110156128b857848901518255600182019150602085019450602081019050612893565b868310156128d557848901516128d1601f8916826127de565b8355505b6001600288020188555050505b505050505050565b7f6d757374206265206c6561646572000000000000000000000000000000000000600082015250565b6000612920600e83611b68565b915061292b826128ea565b602082019050919050565b6000602082019050818103600083015261294f81612913565b9050919050565b7f6c6561646572206973206e6f7420656c696769626c6500000000000000000000600082015250565b600061298c601683611b68565b915061299782612956565b602082019050919050565b600060208201905081810360008301526129bb8161297f565b9050919050565b7f6d7573742077616974206c6f6e67657200000000000000000000000000000000600082015250565b60006129f8601083611b68565b9150612a03826129c2565b602082019050919050565b60006020820190508181036000830152612a27816129eb565b9050919050565b7f46756e64696e6720616d6f756e74206e6f74206d657400000000000000000000600082015250565b6000612a64601683611b68565b9150612a6f82612a2e565b602082019050919050565b60006020820190508181036000830152612a9381612a57565b9050919050565b600067ffffffffffffffff821115612ab557612ab4611e5a565b5b602082029050602081019050919050565b600080fd5b600081519050612ada81611a9a565b92915050565b6000612af3612aee84612a9a565b611eba565b90508083825260208201905060208402830185811115612b1657612b15612ac6565b5b835b81811015612b3f5780612b2b8882612acb565b845260208401935050602081019050612b18565b5050509392505050565b600082601f830112612b5e57612b5d611e50565b5b8151612b6e848260208601612ae0565b91505092915050565b600060208284031215612b8d57612b8c611a5e565b5b600082015167ffffffffffffffff811115612bab57612baa611a63565b5b612bb784828501612b49565b91505092915050565b7f4e487b7100000000000000000000000000000000000000000000000000000000600052603260045260246000fd5b60028110612c0057612bff611cde565b5b50565b6000819050612c1182612bef565b919050565b6000612c2182612c03565b9050919050565b612c3181612c16565b82525050565b600060a082019050612c4c6000830188611c0f565b612c596020830187611c0f565b612c666040830186611c0f565b612c736060830185612c28565b612c806080830184611c0f565b9695505050505050565b7f496e76616c696420737461746520666f7220636f6e747269627574696f6e0000600082015250565b6000612cc0601e83611b68565b9150612ccb82612c8a565b602082019050919050565b60006020820190508181036000830152612cef81612cb3565b905091905056fea26469706673582212208d2728423685b6a3502afdf2d730659d036aeb0bbebe12a887e0bd4aeef6444b64736f6c63430008110033a264697066735822122050e0b5cda3868ad3bae15384905c58d1c861aabc8fec6e0a541ff6c79cce36f464736f6c63430008110033","opcodes":"PUSH1 0xE0 PUSH1 0x40 MSTORE CALLVALUE DUP1 ISZERO PUSH2 0x10 JUMPI PUSH1 0x0 DUP1 REVERT JUMPDEST POP PUSH1 0x40 MLOAD PUSH2 0x3E61 CODESIZE SUB DUP1 PUSH2 0x3E61 DUP4 CODECOPY DUP2 DUP2 ADD PUSH1 0x40 MSTORE DUP2 ADD SWAP1 PUSH2 0x32 SWAP2 SWAP1 PUSH2 0x138 JUMP JUMPDEST ADDRESS PUSH20 0xFFFFFFFFFFFFFFFFFFFFFFFFFFFFFFFFFFFFFFFF AND PUSH1 0x80 DUP2 PUSH20 0xFFFFFFFFFFFFFFFFFFFFFFFFFFFFFFFFFFFFFFFF AND DUP2 MSTORE POP POP DUP2 PUSH20 0xFFFFFFFFFFFFFFFFFFFFFFFFFFFFFFFFFFFFFFFF AND PUSH1 0xA0 DUP2 PUSH20 0xFFFFFFFFFFFFFFFFFFFFFFFFFFFFFFFFFFFFFFFF AND DUP2 MSTORE POP POP DUP1 PUSH20 0xFFFFFFFFFFFFFFFFFFFFFFFFFFFFFFFFFFFFFFFF AND PUSH1 0xC0 DUP2 PUSH20 0xFFFFFFFFFFFFFFFFFFFFFFFFFFFFFFFFFFFFFFFF AND DUP2 MSTORE POP POP POP POP PUSH2 0x178 JUMP JUMPDEST PUSH1 0x0 DUP1 REVERT JUMPDEST PUSH1 0x0 PUSH20 0xFFFFFFFFFFFFFFFFFFFFFFFFFFFFFFFFFFFFFFFF DUP3 AND SWAP1 POP SWAP2 SWAP1 POP JUMP JUMPDEST PUSH1 0x0 PUSH2 0x105 DUP3 PUSH2 0xDA JUMP JUMPDEST SWAP1 POP SWAP2 SWAP1 POP JUMP JUMPDEST PUSH2 0x115 DUP2 PUSH2 0xFA JUMP JUMPDEST DUP2 EQ PUSH2 0x120 JUMPI PUSH1 0x0 DUP1 REVERT JUMPDEST POP JUMP JUMPDEST PUSH1 0x0 DUP2 MLOAD SWAP1 POP PUSH2 0x132 DUP2 PUSH2 0x10C JUMP JUMPDEST SWAP3 SWAP2 POP POP JUMP JUMPDEST PUSH1 0x0 DUP1 PUSH1 0x40 DUP4 DUP6 SUB SLT ISZERO PUSH2 0x14F JUMPI PUSH2 0x14E PUSH2 0xD5 JUMP JUMPDEST JUMPDEST PUSH1 0x0 PUSH2 0x15D DUP6 DUP3 DUP7 ADD PUSH2 0x123 JUMP JUMPDEST SWAP3 POP POP PUSH1 0x20 PUSH2 0x16E DUP6 DUP3 DUP7 ADD PUSH2 0x123 JUMP JUMPDEST SWAP2 POP POP SWAP3 POP SWAP3 SWAP1 POP JUMP JUMPDEST PUSH1 0x80 MLOAD PUSH1 0xA0 MLOAD PUSH1 0xC0 MLOAD PUSH2 0x3CBA PUSH2 0x1A7 PUSH1 0x0 CODECOPY PUSH1 0x0 PUSH2 0x163 ADD MSTORE PUSH1 0x0 PUSH2 0x142 ADD MSTORE PUSH1 0x0 PUSH2 0x319 ADD MSTORE PUSH2 0x3CBA PUSH1 0x0 RETURN INVALID PUSH1 0x80 PUSH1 0x40 MSTORE CALLVALUE DUP1 ISZERO PUSH3 0x11 JUMPI PUSH1 0x0 DUP1 REVERT JUMPDEST POP PUSH1 0x4 CALLDATASIZE LT PUSH3 0x52 JUMPI PUSH1 0x0 CALLDATALOAD PUSH1 0xE0 SHR DUP1 PUSH4 0x13CF08B EQ PUSH3 0x57 JUMPI DUP1 PUSH4 0x49C2A1A6 EQ PUSH3 0x8D JUMPI DUP1 PUSH4 0x62564C48 EQ PUSH3 0xAD JUMPI DUP1 PUSH4 0x8DA5CB5B EQ PUSH3 0xCF JUMPI JUMPDEST PUSH1 0x0 DUP1 REVERT JUMPDEST PUSH3 0x75 PUSH1 0x4 DUP1 CALLDATASIZE SUB DUP2 ADD SWAP1 PUSH3 0x6F SWAP2 SWAP1 PUSH3 0x3C5 JUMP JUMPDEST PUSH3 0xF1 JUMP JUMPDEST PUSH1 0x40 MLOAD PUSH3 0x84 SWAP2 SWAP1 PUSH3 0x43C JUMP JUMPDEST PUSH1 0x40 MLOAD DUP1 SWAP2 SUB SWAP1 RETURN JUMPDEST PUSH3 0xAB PUSH1 0x4 DUP1 CALLDATASIZE SUB DUP2 ADD SWAP1 PUSH3 0xA5 SWAP2 SWAP1 PUSH3 0x4C7 JUMP JUMPDEST PUSH3 0x131 JUMP JUMPDEST STOP JUMPDEST PUSH3 0xB7 PUSH3 0x263 JUMP JUMPDEST PUSH1 0x40 MLOAD PUSH3 0xC6 SWAP2 SWAP1 PUSH3 0x5EA JUMP JUMPDEST PUSH1 0x40 MLOAD DUP1 SWAP2 SUB SWAP1 RETURN JUMPDEST PUSH3 0xD9 PUSH3 0x2F3 JUMP JUMPDEST PUSH1 0x40 MLOAD PUSH3 0xE8 SWAP2 SWAP1 PUSH3 0x43C JUMP JUMPDEST PUSH1 0x40 MLOAD DUP1 SWAP2 SUB SWAP1 RETURN JUMPDEST PUSH1 0x1 DUP2 DUP2 SLOAD DUP2 LT PUSH3 0x102 JUMPI PUSH1 0x0 DUP1 REVERT JUMPDEST SWAP1 PUSH1 0x0 MSTORE PUSH1 0x20 PUSH1 0x0 KECCAK256 ADD PUSH1 0x0 SWAP2 POP SLOAD SWAP1 PUSH2 0x100 EXP SWAP1 DIV PUSH20 0xFFFFFFFFFFFFFFFFFFFFFFFFFFFFFFFFFFFFFFFF AND DUP2 JUMP JUMPDEST PUSH3 0x13B PUSH3 0x317 JUMP JUMPDEST PUSH1 0x0 CALLER DUP4 DUP4 PUSH32 0x0 PUSH32 0x0 PUSH1 0x40 MLOAD PUSH3 0x190 SWAP1 PUSH3 0x372 JUMP JUMPDEST PUSH3 0x1A0 SWAP6 SWAP5 SWAP4 SWAP3 SWAP2 SWAP1 PUSH3 0x672 JUMP JUMPDEST PUSH1 0x40 MLOAD DUP1 SWAP2 SUB SWAP1 PUSH1 0x0 CREATE DUP1 ISZERO DUP1 ISZERO PUSH3 0x1BD JUMPI RETURNDATASIZE PUSH1 0x0 DUP1 RETURNDATACOPY RETURNDATASIZE PUSH1 0x0 REVERT JUMPDEST POP SWAP1 POP PUSH1 0x1 DUP2 SWAP1 DUP1 PUSH1 0x1 DUP2 SLOAD ADD DUP1 DUP3 SSTORE DUP1 SWAP2 POP POP PUSH1 0x1 SWAP1 SUB SWAP1 PUSH1 0x0 MSTORE PUSH1 0x20 PUSH1 0x0 KECCAK256 ADD PUSH1 0x0 SWAP1 SWAP2 SWAP1 SWAP2 SWAP1 SWAP2 PUSH2 0x100 EXP DUP2 SLOAD DUP2 PUSH20 0xFFFFFFFFFFFFFFFFFFFFFFFFFFFFFFFFFFFFFFFF MUL NOT AND SWAP1 DUP4 PUSH20 0xFFFFFFFFFFFFFFFFFFFFFFFFFFFFFFFFFFFFFFFF AND MUL OR SWAP1 SSTORE POP PUSH32 0x452AB1B43E295BAA201EB0D01FCBCB6BD9F5F2035554BCF6F3E1FEDBBC53D830 CALLER DUP3 PUSH1 0x40 MLOAD PUSH3 0x256 SWAP3 SWAP2 SWAP1 PUSH3 0x6C8 JUMP JUMPDEST PUSH1 0x40 MLOAD DUP1 SWAP2 SUB SWAP1 LOG1 POP POP POP JUMP JUMPDEST PUSH1 0x60 PUSH1 0x1 DUP1 SLOAD DUP1 PUSH1 0x20 MUL PUSH1 0x20 ADD PUSH1 0x40 MLOAD SWAP1 DUP2 ADD PUSH1 0x40 MSTORE DUP1 SWAP3 SWAP2 SWAP1 DUP2 DUP2 MSTORE PUSH1 0x20 ADD DUP3 DUP1 SLOAD DUP1 ISZERO PUSH3 0x2E9 JUMPI PUSH1 0x20 MUL DUP3 ADD SWAP2 SWAP1 PUSH1 0x0 MSTORE PUSH1 0x20 PUSH1 0x0 KECCAK256 SWAP1 JUMPDEST DUP2 PUSH1 0x0 SWAP1 SLOAD SWAP1 PUSH2 0x100 EXP SWAP1 DIV PUSH20 0xFFFFFFFFFFFFFFFFFFFFFFFFFFFFFFFFFFFFFFFF AND PUSH20 0xFFFFFFFFFFFFFFFFFFFFFFFFFFFFFFFFFFFFFFFF AND DUP2 MSTORE PUSH1 0x20 ADD SWAP1 PUSH1 0x1 ADD SWAP1 DUP1 DUP4 GT PUSH3 0x29E JUMPI JUMPDEST POP POP POP POP POP SWAP1 POP SWAP1 JUMP JUMPDEST PUSH1 0x0 DUP1 SLOAD SWAP1 PUSH2 0x100 EXP SWAP1 DIV PUSH20 0xFFFFFFFFFFFFFFFFFFFFFFFFFFFFFFFFFFFFFFFF AND DUP2 JUMP JUMPDEST PUSH32 0x0 PUSH20 0xFFFFFFFFFFFFFFFFFFFFFFFFFFFFFFFFFFFFFFFF AND ADDRESS PUSH20 0xFFFFFFFFFFFFFFFFFFFFFFFFFFFFFFFFFFFFFFFF AND EQ PUSH3 0x370 JUMPI PUSH1 0x0 DUP1 REVERT JUMPDEST JUMP JUMPDEST PUSH2 0x358F DUP1 PUSH3 0x6F6 DUP4 CODECOPY ADD SWAP1 JUMP JUMPDEST PUSH1 0x0 DUP1 REVERT JUMPDEST PUSH1 0x0 DUP1 REVERT JUMPDEST PUSH1 0x0 DUP2 SWAP1 POP SWAP2 SWAP1 POP JUMP JUMPDEST PUSH3 0x39F DUP2 PUSH3 0x38A JUMP JUMPDEST DUP2 EQ PUSH3 0x3AB JUMPI PUSH1 0x0 DUP1 REVERT JUMPDEST POP JUMP JUMPDEST PUSH1 0x0 DUP2 CALLDATALOAD SWAP1 POP PUSH3 0x3BF DUP2 PUSH3 0x394 JUMP JUMPDEST SWAP3 SWAP2 POP POP JUMP JUMPDEST PUSH1 0x0 PUSH1 0x20 DUP3 DUP5 SUB SLT ISZERO PUSH3 0x3DE JUMPI PUSH3 0x3DD PUSH3 0x380 JUMP JUMPDEST JUMPDEST PUSH1 0x0 PUSH3 0x3EE DUP5 DUP3 DUP6 ADD PUSH3 0x3AE JUMP JUMPDEST SWAP2 POP POP SWAP3 SWAP2 POP POP JUMP JUMPDEST PUSH1 0x0 PUSH20 0xFFFFFFFFFFFFFFFFFFFFFFFFFFFFFFFFFFFFFFFF DUP3 AND SWAP1 POP SWAP2 SWAP1 POP JUMP JUMPDEST PUSH1 0x0 PUSH3 0x424 DUP3 PUSH3 0x3F7 JUMP JUMPDEST SWAP1 POP SWAP2 SWAP1 POP JUMP JUMPDEST PUSH3 0x436 DUP2 PUSH3 0x417 JUMP JUMPDEST DUP3 MSTORE POP POP JUMP JUMPDEST PUSH1 0x0 PUSH1 0x20 DUP3 ADD SWAP1 POP PUSH3 0x453 PUSH1 0x0 DUP4 ADD DUP5 PUSH3 0x42B JUMP JUMPDEST SWAP3 SWAP2 POP POP JUMP JUMPDEST PUSH1 0x0 DUP1 REVERT JUMPDEST PUSH1 0x0 DUP1 REVERT JUMPDEST PUSH1 0x0 DUP1 REVERT JUMPDEST PUSH1 0x0 DUP1 DUP4 PUSH1 0x1F DUP5 ADD SLT PUSH3 0x481 JUMPI PUSH3 0x480 PUSH3 0x459 JUMP JUMPDEST JUMPDEST DUP3 CALLDATALOAD SWAP1 POP PUSH8 0xFFFFFFFFFFFFFFFF DUP2 GT ISZERO PUSH3 0x4A1 JUMPI PUSH3 0x4A0 PUSH3 0x45E JUMP JUMPDEST JUMPDEST PUSH1 0x20 DUP4 ADD SWAP2 POP DUP4 PUSH1 0x1 DUP3 MUL DUP4 ADD GT ISZERO PUSH3 0x4C0 JUMPI PUSH3 0x4BF PUSH3 0x463 JUMP JUMPDEST JUMPDEST SWAP3 POP SWAP3 SWAP1 POP JUMP JUMPDEST PUSH1 0x0 DUP1 PUSH1 0x20 DUP4 DUP6 SUB SLT ISZERO PUSH3 0x4E1 JUMPI PUSH3 0x4E0 PUSH3 0x380 JUMP JUMPDEST JUMPDEST PUSH1 0x0 DUP4 ADD CALLDATALOAD PUSH8 0xFFFFFFFFFFFFFFFF DUP2 GT ISZERO PUSH3 0x502 JUMPI PUSH3 0x501 PUSH3 0x385 JUMP JUMPDEST JUMPDEST PUSH3 0x510 DUP6 DUP3 DUP7 ADD PUSH3 0x468 JUMP JUMPDEST SWAP3 POP SWAP3 POP POP SWAP3 POP SWAP3 SWAP1 POP JUMP JUMPDEST PUSH1 0x0 DUP2 MLOAD SWAP1 POP SWAP2 SWAP1 POP JUMP JUMPDEST PUSH1 0x0 DUP3 DUP3 MSTORE PUSH1 0x20 DUP3 ADD SWAP1 POP SWAP3 SWAP2 POP POP JUMP JUMPDEST PUSH1 0x0 DUP2 SWAP1 POP PUSH1 0x20 DUP3 ADD SWAP1 POP SWAP2 SWAP1 POP JUMP JUMPDEST PUSH3 0x553 DUP2 PUSH3 0x417 JUMP JUMPDEST DUP3 MSTORE POP POP JUMP JUMPDEST PUSH1 0x0 PUSH3 0x567 DUP4 DUP4 PUSH3 0x548 JUMP JUMPDEST PUSH1 0x20 DUP4 ADD SWAP1 POP SWAP3 SWAP2 POP POP JUMP JUMPDEST PUSH1 0x0 PUSH1 0x20 DUP3 ADD SWAP1 POP SWAP2 SWAP1 POP JUMP JUMPDEST PUSH1 0x0 PUSH3 0x58D DUP3 PUSH3 0x51C JUMP JUMPDEST PUSH3 0x599 DUP2 DUP6 PUSH3 0x527 JUMP JUMPDEST SWAP4 POP PUSH3 0x5A6 DUP4 PUSH3 0x538 JUMP JUMPDEST DUP1 PUSH1 0x0 JUMPDEST DUP4 DUP2 LT ISZERO PUSH3 0x5DD JUMPI DUP2 MLOAD PUSH3 0x5C1 DUP9 DUP3 PUSH3 0x559 JUMP JUMPDEST SWAP8 POP PUSH3 0x5CE DUP4 PUSH3 0x573 JUMP JUMPDEST SWAP3 POP POP PUSH1 0x1 DUP2 ADD SWAP1 POP PUSH3 0x5AA JUMP JUMPDEST POP DUP6 SWAP4 POP POP POP POP SWAP3 SWAP2 POP POP JUMP JUMPDEST PUSH1 0x0 PUSH1 0x20 DUP3 ADD SWAP1 POP DUP2 DUP2 SUB PUSH1 0x0 DUP4 ADD MSTORE PUSH3 0x606 DUP2 DUP5 PUSH3 0x580 JUMP JUMPDEST SWAP1 POP SWAP3 SWAP2 POP POP JUMP JUMPDEST PUSH1 0x0 DUP3 DUP3 MSTORE PUSH1 0x20 DUP3 ADD SWAP1 POP SWAP3 SWAP2 POP POP JUMP JUMPDEST DUP3 DUP2 DUP4 CALLDATACOPY PUSH1 0x0 DUP4 DUP4 ADD MSTORE POP POP POP JUMP JUMPDEST PUSH1 0x0 PUSH1 0x1F NOT PUSH1 0x1F DUP4 ADD AND SWAP1 POP SWAP2 SWAP1 POP JUMP JUMPDEST PUSH1 0x0 PUSH3 0x64D DUP4 DUP6 PUSH3 0x60E JUMP JUMPDEST SWAP4 POP PUSH3 0x65C DUP4 DUP6 DUP5 PUSH3 0x61F JUMP JUMPDEST PUSH3 0x667 DUP4 PUSH3 0x62E JUMP JUMPDEST DUP5 ADD SWAP1 POP SWAP4 SWAP3 POP POP POP JUMP JUMPDEST PUSH1 0x0 PUSH1 0x80 DUP3 ADD SWAP1 POP PUSH3 0x689 PUSH1 0x0 DUP4 ADD DUP9 PUSH3 0x42B JUMP JUMPDEST DUP2 DUP2 SUB PUSH1 0x20 DUP4 ADD MSTORE PUSH3 0x69E DUP2 DUP7 DUP9 PUSH3 0x63F JUMP JUMPDEST SWAP1 POP PUSH3 0x6AF PUSH1 0x40 DUP4 ADD DUP6 PUSH3 0x42B JUMP JUMPDEST PUSH3 0x6BE PUSH1 0x60 DUP4 ADD DUP5 PUSH3 0x42B JUMP JUMPDEST SWAP7 SWAP6 POP POP POP POP POP POP JUMP JUMPDEST PUSH1 0x0 PUSH1 0x40 DUP3 ADD SWAP1 POP PUSH3 0x6DF PUSH1 0x0 DUP4 ADD DUP6 PUSH3 0x42B JUMP JUMPDEST PUSH3 0x6EE PUSH1 0x20 DUP4 ADD DUP5 PUSH3 0x42B JUMP JUMPDEST SWAP4 SWAP3 POP POP POP JUMP INVALID PUSH1 0xE0 PUSH1 0x40 MSTORE PUSH1 0x0 PUSH1 0x7 PUSH1 0x0 PUSH2 0x100 EXP DUP2 SLOAD DUP2 PUSH4 0xFFFFFFFF MUL NOT AND SWAP1 DUP4 PUSH4 0xFFFFFFFF AND MUL OR SWAP1 SSTORE POP PUSH1 0x3 PUSH1 0x9 PUSH1 0x0 PUSH2 0x100 EXP DUP2 SLOAD DUP2 PUSH4 0xFFFFFFFF MUL NOT AND SWAP1 DUP4 PUSH4 0xFFFFFFFF AND MUL OR SWAP1 SSTORE POP PUSH1 0x0 PUSH1 0x9 PUSH1 0x4 PUSH2 0x100 EXP DUP2 SLOAD DUP2 PUSH1 0xFF MUL NOT AND SWAP1 DUP4 ISZERO ISZERO MUL OR SWAP1 SSTORE POP PUSH1 0x0 PUSH1 0x9 PUSH1 0x5 PUSH2 0x100 EXP DUP2 SLOAD DUP2 PUSH4 0xFFFFFFFF MUL NOT AND SWAP1 DUP4 PUSH4 0xFFFFFFFF AND MUL OR SWAP1 SSTORE POP CALLVALUE DUP1 ISZERO PUSH3 0x92 JUMPI PUSH1 0x0 DUP1 REVERT JUMPDEST POP PUSH1 0x40 MLOAD PUSH3 0x358F CODESIZE SUB DUP1 PUSH3 0x358F DUP4 CODECOPY DUP2 DUP2 ADD PUSH1 0x40 MSTORE DUP2 ADD SWAP1 PUSH3 0xB8 SWAP2 SWAP1 PUSH3 0x3C9 JUMP JUMPDEST DUP4 PUSH20 0xFFFFFFFFFFFFFFFFFFFFFFFFFFFFFFFFFFFFFFFF AND PUSH1 0x80 DUP2 PUSH20 0xFFFFFFFFFFFFFFFFFFFFFFFFFFFFFFFFFFFFFFFF AND DUP2 MSTORE POP POP DUP3 PUSH1 0x1 SWAP1 DUP2 PUSH3 0xFD SWAP2 SWAP1 PUSH3 0x6A5 JUMP JUMPDEST POP PUSH1 0x0 PUSH1 0x2 PUSH1 0x0 PUSH2 0x100 EXP DUP2 SLOAD DUP2 PUSH1 0xFF MUL NOT AND SWAP1 DUP4 PUSH1 0x3 DUP2 GT ISZERO PUSH3 0x127 JUMPI PUSH3 0x126 PUSH3 0x78C JUMP JUMPDEST JUMPDEST MUL OR SWAP1 SSTORE POP DUP2 PUSH20 0xFFFFFFFFFFFFFFFFFFFFFFFFFFFFFFFFFFFFFFFF AND PUSH1 0xA0 DUP2 PUSH20 0xFFFFFFFFFFFFFFFFFFFFFFFFFFFFFFFFFFFFFFFF AND DUP2 MSTORE POP POP TIMESTAMP PUSH1 0x6 DUP2 SWAP1 SSTORE POP PUSH1 0x7 PUSH1 0x0 SWAP1 SLOAD SWAP1 PUSH2 0x100 EXP SWAP1 DIV PUSH4 0xFFFFFFFF AND PUSH4 0xFFFFFFFF AND TIMESTAMP PUSH3 0x18D SWAP2 SWAP1 PUSH3 0x7EA JUMP JUMPDEST PUSH1 0x8 DUP2 SWAP1 SSTORE POP DUP1 PUSH20 0xFFFFFFFFFFFFFFFFFFFFFFFFFFFFFFFFFFFFFFFF AND PUSH1 0xC0 DUP2 PUSH20 0xFFFFFFFFFFFFFFFFFFFFFFFFFFFFFFFFFFFFFFFF AND DUP2 MSTORE POP POP POP POP POP POP PUSH3 0x825 JUMP JUMPDEST PUSH1 0x0 PUSH1 0x40 MLOAD SWAP1 POP SWAP1 JUMP JUMPDEST PUSH1 0x0 DUP1 REVERT JUMPDEST PUSH1 0x0 DUP1 REVERT JUMPDEST PUSH1 0x0 PUSH20 0xFFFFFFFFFFFFFFFFFFFFFFFFFFFFFFFFFFFFFFFF DUP3 AND SWAP1 POP SWAP2 SWAP1 POP JUMP JUMPDEST PUSH1 0x0 PUSH3 0x212 DUP3 PUSH3 0x1E5 JUMP JUMPDEST SWAP1 POP SWAP2 SWAP1 POP JUMP JUMPDEST PUSH3 0x224 DUP2 PUSH3 0x205 JUMP JUMPDEST DUP2 EQ PUSH3 0x230 JUMPI PUSH1 0x0 DUP1 REVERT JUMPDEST POP JUMP JUMPDEST PUSH1 0x0 DUP2 MLOAD SWAP1 POP PUSH3 0x244 DUP2 PUSH3 0x219 JUMP JUMPDEST SWAP3 SWAP2 POP POP JUMP JUMPDEST PUSH1 0x0 DUP1 REVERT JUMPDEST PUSH1 0x0 DUP1 REVERT JUMPDEST PUSH1 0x0 PUSH1 0x1F NOT PUSH1 0x1F DUP4 ADD AND SWAP1 POP SWAP2 SWAP1 POP JUMP JUMPDEST PUSH32 0x4E487B7100000000000000000000000000000000000000000000000000000000 PUSH1 0x0 MSTORE PUSH1 0x41 PUSH1 0x4 MSTORE PUSH1 0x24 PUSH1 0x0 REVERT JUMPDEST PUSH3 0x29F DUP3 PUSH3 0x254 JUMP JUMPDEST DUP2 ADD DUP2 DUP2 LT PUSH8 0xFFFFFFFFFFFFFFFF DUP3 GT OR ISZERO PUSH3 0x2C1 JUMPI PUSH3 0x2C0 PUSH3 0x265 JUMP JUMPDEST JUMPDEST DUP1 PUSH1 0x40 MSTORE POP POP POP JUMP JUMPDEST PUSH1 0x0 PUSH3 0x2D6 PUSH3 0x1D1 JUMP JUMPDEST SWAP1 POP PUSH3 0x2E4 DUP3 DUP3 PUSH3 0x294 JUMP JUMPDEST SWAP2 SWAP1 POP JUMP JUMPDEST PUSH1 0x0 PUSH8 0xFFFFFFFFFFFFFFFF DUP3 GT ISZERO PUSH3 0x307 JUMPI PUSH3 0x306 PUSH3 0x265 JUMP JUMPDEST JUMPDEST PUSH3 0x312 DUP3 PUSH3 0x254 JUMP JUMPDEST SWAP1 POP PUSH1 0x20 DUP2 ADD SWAP1 POP SWAP2 SWAP1 POP JUMP JUMPDEST PUSH1 0x0 JUMPDEST DUP4 DUP2 LT ISZERO PUSH3 0x33F JUMPI DUP1 DUP3 ADD MLOAD DUP2 DUP5 ADD MSTORE PUSH1 0x20 DUP2 ADD SWAP1 POP PUSH3 0x322 JUMP JUMPDEST PUSH1 0x0 DUP5 DUP5 ADD MSTORE POP POP POP POP JUMP JUMPDEST PUSH1 0x0 PUSH3 0x362 PUSH3 0x35C DUP5 PUSH3 0x2E9 JUMP JUMPDEST PUSH3 0x2CA JUMP JUMPDEST SWAP1 POP DUP3 DUP2 MSTORE PUSH1 0x20 DUP2 ADD DUP5 DUP5 DUP5 ADD GT ISZERO PUSH3 0x381 JUMPI PUSH3 0x380 PUSH3 0x24F JUMP JUMPDEST JUMPDEST PUSH3 0x38E DUP5 DUP3 DUP6 PUSH3 0x31F JUMP JUMPDEST POP SWAP4 SWAP3 POP POP POP JUMP JUMPDEST PUSH1 0x0 DUP3 PUSH1 0x1F DUP4 ADD SLT PUSH3 0x3AE JUMPI PUSH3 0x3AD PUSH3 0x24A JUMP JUMPDEST JUMPDEST DUP2 MLOAD PUSH3 0x3C0 DUP5 DUP3 PUSH1 0x20 DUP7 ADD PUSH3 0x34B JUMP JUMPDEST SWAP2 POP POP SWAP3 SWAP2 POP POP JUMP JUMPDEST PUSH1 0x0 DUP1 PUSH1 0x0 DUP1 PUSH1 0x80 DUP6 DUP8 SUB SLT ISZERO PUSH3 0x3E6 JUMPI PUSH3 0x3E5 PUSH3 0x1DB JUMP JUMPDEST JUMPDEST PUSH1 0x0 PUSH3 0x3F6 DUP8 DUP3 DUP9 ADD PUSH3 0x233 JUMP JUMPDEST SWAP5 POP POP PUSH1 0x20 DUP6 ADD MLOAD PUSH8 0xFFFFFFFFFFFFFFFF DUP2 GT ISZERO PUSH3 0x41A JUMPI PUSH3 0x419 PUSH3 0x1E0 JUMP JUMPDEST JUMPDEST PUSH3 0x428 DUP8 DUP3 DUP9 ADD PUSH3 0x396 JUMP JUMPDEST SWAP4 POP POP PUSH1 0x40 PUSH3 0x43B DUP8 DUP3 DUP9 ADD PUSH3 0x233 JUMP JUMPDEST SWAP3 POP POP PUSH1 0x60 PUSH3 0x44E DUP8 DUP3 DUP9 ADD PUSH3 0x233 JUMP JUMPDEST SWAP2 POP POP SWAP3 SWAP6 SWAP2 SWAP5 POP SWAP3 POP JUMP JUMPDEST PUSH1 0x0 DUP2 MLOAD SWAP1 POP SWAP2 SWAP1 POP JUMP JUMPDEST PUSH32 0x4E487B7100000000000000000000000000000000000000000000000000000000 PUSH1 0x0 MSTORE PUSH1 0x22 PUSH1 0x4 MSTORE PUSH1 0x24 PUSH1 0x0 REVERT JUMPDEST PUSH1 0x0 PUSH1 0x2 DUP3 DIV SWAP1 POP PUSH1 0x1 DUP3 AND DUP1 PUSH3 0x4AD JUMPI PUSH1 0x7F DUP3 AND SWAP2 POP JUMPDEST PUSH1 0x20 DUP3 LT DUP2 SUB PUSH3 0x4C3 JUMPI PUSH3 0x4C2 PUSH3 0x465 JUMP JUMPDEST JUMPDEST POP SWAP2 SWAP1 POP JUMP JUMPDEST PUSH1 0x0 DUP2 SWAP1 POP DUP2 PUSH1 0x0 MSTORE PUSH1 0x20 PUSH1 0x0 KECCAK256 SWAP1 POP SWAP2 SWAP1 POP JUMP JUMPDEST PUSH1 0x0 PUSH1 0x20 PUSH1 0x1F DUP4 ADD DIV SWAP1 POP SWAP2 SWAP1 POP JUMP JUMPDEST PUSH1 0x0 DUP3 DUP3 SHL SWAP1 POP SWAP3 SWAP2 POP POP JUMP JUMPDEST PUSH1 0x0 PUSH1 0x8 DUP4 MUL PUSH3 0x52D PUSH32 0xFFFFFFFFFFFFFFFFFFFFFFFFFFFFFFFFFFFFFFFFFFFFFFFFFFFFFFFFFFFFFFFF DUP3 PUSH3 0x4EE JUMP JUMPDEST PUSH3 0x539 DUP7 DUP4 PUSH3 0x4EE JUMP JUMPDEST SWAP6 POP DUP1 NOT DUP5 AND SWAP4 POP DUP1 DUP7 AND DUP5 OR SWAP3 POP POP POP SWAP4 SWAP3 POP POP POP JUMP JUMPDEST PUSH1 0x0 DUP2 SWAP1 POP SWAP2 SWAP1 POP JUMP JUMPDEST PUSH1 0x0 DUP2 SWAP1 POP SWAP2 SWAP1 POP JUMP JUMPDEST PUSH1 0x0 PUSH3 0x586 PUSH3 0x580 PUSH3 0x57A DUP5 PUSH3 0x551 JUMP JUMPDEST PUSH3 0x55B JUMP JUMPDEST PUSH3 0x551 JUMP JUMPDEST SWAP1 POP SWAP2 SWAP1 POP JUMP JUMPDEST PUSH1 0x0 DUP2 SWAP1 POP SWAP2 SWAP1 POP JUMP JUMPDEST PUSH3 0x5A2 DUP4 PUSH3 0x565 JUMP JUMPDEST PUSH3 0x5BA PUSH3 0x5B1 DUP3 PUSH3 0x58D JUMP JUMPDEST DUP5 DUP5 SLOAD PUSH3 0x4FB JUMP JUMPDEST DUP3 SSTORE POP POP POP POP JUMP JUMPDEST PUSH1 0x0 SWAP1 JUMP JUMPDEST PUSH3 0x5D1 PUSH3 0x5C2 JUMP JUMPDEST PUSH3 0x5DE DUP2 DUP5 DUP5 PUSH3 0x597 JUMP JUMPDEST POP POP POP JUMP JUMPDEST JUMPDEST DUP2 DUP2 LT ISZERO PUSH3 0x606 JUMPI PUSH3 0x5FA PUSH1 0x0 DUP3 PUSH3 0x5C7 JUMP JUMPDEST PUSH1 0x1 DUP2 ADD SWAP1 POP PUSH3 0x5E4 JUMP JUMPDEST POP POP JUMP JUMPDEST PUSH1 0x1F DUP3 GT ISZERO PUSH3 0x655 JUMPI PUSH3 0x61F DUP2 PUSH3 0x4C9 JUMP JUMPDEST PUSH3 0x62A DUP5 PUSH3 0x4DE JUMP JUMPDEST DUP2 ADD PUSH1 0x20 DUP6 LT ISZERO PUSH3 0x63A JUMPI DUP2 SWAP1 POP JUMPDEST PUSH3 0x652 PUSH3 0x649 DUP6 PUSH3 0x4DE JUMP JUMPDEST DUP4 ADD DUP3 PUSH3 0x5E3 JUMP JUMPDEST POP POP JUMPDEST POP POP POP JUMP JUMPDEST PUSH1 0x0 DUP3 DUP3 SHR SWAP1 POP SWAP3 SWAP2 POP POP JUMP JUMPDEST PUSH1 0x0 PUSH3 0x67A PUSH1 0x0 NOT DUP5 PUSH1 0x8 MUL PUSH3 0x65A JUMP JUMPDEST NOT DUP1 DUP4 AND SWAP2 POP POP SWAP3 SWAP2 POP POP JUMP JUMPDEST PUSH1 0x0 PUSH3 0x695 DUP4 DUP4 PUSH3 0x667 JUMP JUMPDEST SWAP2 POP DUP3 PUSH1 0x2 MUL DUP3 OR SWAP1 POP SWAP3 SWAP2 POP POP JUMP JUMPDEST PUSH3 0x6B0 DUP3 PUSH3 0x45A JUMP JUMPDEST PUSH8 0xFFFFFFFFFFFFFFFF DUP2 GT ISZERO PUSH3 0x6CC JUMPI PUSH3 0x6CB PUSH3 0x265 JUMP JUMPDEST JUMPDEST PUSH3 0x6D8 DUP3 SLOAD PUSH3 0x494 JUMP JUMPDEST PUSH3 0x6E5 DUP3 DUP3 DUP6 PUSH3 0x60A JUMP JUMPDEST PUSH1 0x0 PUSH1 0x20 SWAP1 POP PUSH1 0x1F DUP4 GT PUSH1 0x1 DUP2 EQ PUSH3 0x71D JUMPI PUSH1 0x0 DUP5 ISZERO PUSH3 0x708 JUMPI DUP3 DUP8 ADD MLOAD SWAP1 POP JUMPDEST PUSH3 0x714 DUP6 DUP3 PUSH3 0x687 JUMP JUMPDEST DUP7 SSTORE POP PUSH3 0x784 JUMP JUMPDEST PUSH1 0x1F NOT DUP5 AND PUSH3 0x72D DUP7 PUSH3 0x4C9 JUMP JUMPDEST PUSH1 0x0 JUMPDEST DUP3 DUP2 LT ISZERO PUSH3 0x757 JUMPI DUP5 DUP10 ADD MLOAD DUP3 SSTORE PUSH1 0x1 DUP3 ADD SWAP2 POP PUSH1 0x20 DUP6 ADD SWAP5 POP PUSH1 0x20 DUP2 ADD SWAP1 POP PUSH3 0x730 JUMP JUMPDEST DUP7 DUP4 LT ISZERO PUSH3 0x777 JUMPI DUP5 DUP10 ADD MLOAD PUSH3 0x773 PUSH1 0x1F DUP10 AND DUP3 PUSH3 0x667 JUMP JUMPDEST DUP4 SSTORE POP JUMPDEST PUSH1 0x1 PUSH1 0x2 DUP9 MUL ADD DUP9 SSTORE POP POP POP JUMPDEST POP POP POP POP POP POP JUMP JUMPDEST PUSH32 0x4E487B7100000000000000000000000000000000000000000000000000000000 PUSH1 0x0 MSTORE PUSH1 0x21 PUSH1 0x4 MSTORE PUSH1 0x24 PUSH1 0x0 REVERT JUMPDEST PUSH32 0x4E487B7100000000000000000000000000000000000000000000000000000000 PUSH1 0x0 MSTORE PUSH1 0x11 PUSH1 0x4 MSTORE PUSH1 0x24 PUSH1 0x0 REVERT JUMPDEST PUSH1 0x0 PUSH3 0x7F7 DUP3 PUSH3 0x551 JUMP JUMPDEST SWAP2 POP PUSH3 0x804 DUP4 PUSH3 0x551 JUMP JUMPDEST SWAP3 POP DUP3 DUP3 ADD SWAP1 POP DUP1 DUP3 GT ISZERO PUSH3 0x81F JUMPI PUSH3 0x81E PUSH3 0x7BB JUMP JUMPDEST JUMPDEST SWAP3 SWAP2 POP POP JUMP JUMPDEST PUSH1 0x80 MLOAD PUSH1 0xA0 MLOAD PUSH1 0xC0 MLOAD PUSH2 0x2D2C PUSH3 0x863 PUSH1 0x0 CODECOPY PUSH1 0x0 PUSH2 0x16F1 ADD MSTORE PUSH1 0x0 DUP2 DUP2 PUSH2 0x11E2 ADD MSTORE PUSH2 0x16A2 ADD MSTORE PUSH1 0x0 DUP2 DUP2 PUSH2 0x5F3 ADD MSTORE PUSH2 0x1814 ADD MSTORE PUSH2 0x2D2C PUSH1 0x0 RETURN INVALID PUSH1 0x80 PUSH1 0x40 MSTORE PUSH1 0x4 CALLDATASIZE LT PUSH2 0x140 JUMPI PUSH1 0x0 CALLDATALOAD PUSH1 0xE0 SHR DUP1 PUSH4 0x6EAEF9A9 GT PUSH2 0xB6 JUMPI DUP1 PUSH4 0xB81C78EC GT PUSH2 0x6F JUMPI DUP1 PUSH4 0xB81C78EC EQ PUSH2 0x410 JUMPI DUP1 PUSH4 0xB81CCBF8 EQ PUSH2 0x43B JUMPI DUP1 PUSH4 0xBE58196B EQ PUSH2 0x466 JUMPI DUP1 PUSH4 0xC7B96DBA EQ PUSH2 0x48F JUMPI DUP1 PUSH4 0xCFF29DFD EQ PUSH2 0x4A6 JUMPI DUP1 PUSH4 0xD7BB99BA EQ PUSH2 0x4E3 JUMPI PUSH2 0x140 JUMP JUMPDEST DUP1 PUSH4 0x6EAEF9A9 EQ PUSH2 0x2FE JUMPI DUP1 PUSH4 0x85758C27 EQ PUSH2 0x327 JUMPI DUP1 PUSH4 0x8890ED09 EQ PUSH2 0x364 JUMPI DUP1 PUSH4 0x8AF9FE3F EQ PUSH2 0x38F JUMPI DUP1 PUSH4 0xB69EF8A8 EQ PUSH2 0x3BA JUMPI DUP1 PUSH4 0xB6ABBA9C EQ PUSH2 0x3E5 JUMPI PUSH2 0x140 JUMP JUMPDEST DUP1 PUSH4 0x3DADA5E1 GT PUSH2 0x108 JUMPI DUP1 PUSH4 0x3DADA5E1 EQ PUSH2 0x22C JUMPI DUP1 PUSH4 0x40EEDABB EQ PUSH2 0x269 JUMPI DUP1 PUSH4 0x4B21BAC7 EQ PUSH2 0x294 JUMPI DUP1 PUSH4 0x590E1AE3 EQ PUSH2 0x2BF JUMPI DUP1 PUSH4 0x5F38A27E EQ PUSH2 0x2C9 JUMPI DUP1 PUSH4 0x6A3AA8E3 EQ PUSH2 0x2F4 JUMPI PUSH2 0x140 JUMP JUMPDEST DUP1 PUSH4 0x12DCFFE5 EQ PUSH2 0x145 JUMPI DUP1 PUSH4 0x1D0D35F5 EQ PUSH2 0x182 JUMPI DUP1 PUSH4 0x1F741C7A EQ PUSH2 0x1BF JUMPI DUP1 PUSH4 0x20C414BF EQ PUSH2 0x1EA JUMPI DUP1 PUSH4 0x222268BE EQ PUSH2 0x215 JUMPI JUMPDEST PUSH1 0x0 DUP1 REVERT JUMPDEST CALLVALUE DUP1 ISZERO PUSH2 0x151 JUMPI PUSH1 0x0 DUP1 REVERT JUMPDEST POP PUSH2 0x16C PUSH1 0x4 DUP1 CALLDATASIZE SUB DUP2 ADD SWAP1 PUSH2 0x167 SWAP2 SWAP1 PUSH2 0x1AC6 JUMP JUMPDEST PUSH2 0x4ED JUMP JUMPDEST PUSH1 0x40 MLOAD PUSH2 0x179 SWAP2 SWAP1 PUSH2 0x1B0C JUMP JUMPDEST PUSH1 0x40 MLOAD DUP1 SWAP2 SUB SWAP1 RETURN JUMPDEST CALLVALUE DUP1 ISZERO PUSH2 0x18E JUMPI PUSH1 0x0 DUP1 REVERT JUMPDEST POP PUSH2 0x1A9 PUSH1 0x4 DUP1 CALLDATASIZE SUB DUP2 ADD SWAP1 PUSH2 0x1A4 SWAP2 SWAP1 PUSH2 0x1AC6 JUMP JUMPDEST PUSH2 0x536 JUMP JUMPDEST PUSH1 0x40 MLOAD PUSH2 0x1B6 SWAP2 SWAP1 PUSH2 0x1B42 JUMP JUMPDEST PUSH1 0x40 MLOAD DUP1 SWAP2 SUB SWAP1 RETURN JUMPDEST CALLVALUE DUP1 ISZERO PUSH2 0x1CB JUMPI PUSH1 0x0 DUP1 REVERT JUMPDEST POP PUSH2 0x1D4 PUSH2 0x581 JUMP JUMPDEST PUSH1 0x40 MLOAD PUSH2 0x1E1 SWAP2 SWAP1 PUSH2 0x1B0C JUMP JUMPDEST PUSH1 0x40 MLOAD DUP1 SWAP2 SUB SWAP1 RETURN JUMPDEST CALLVALUE DUP1 ISZERO PUSH2 0x1F6 JUMPI PUSH1 0x0 DUP1 REVERT JUMPDEST POP PUSH2 0x1FF PUSH2 0x587 JUMP JUMPDEST PUSH1 0x40 MLOAD PUSH2 0x20C SWAP2 SWAP1 PUSH2 0x1B42 JUMP JUMPDEST PUSH1 0x40 MLOAD DUP1 SWAP2 SUB SWAP1 RETURN JUMPDEST CALLVALUE DUP1 ISZERO PUSH2 0x221 JUMPI PUSH1 0x0 DUP1 REVERT JUMPDEST POP PUSH2 0x22A PUSH2 0x59A JUMP JUMPDEST STOP JUMPDEST CALLVALUE DUP1 ISZERO PUSH2 0x238 JUMPI PUSH1 0x0 DUP1 REVERT JUMPDEST POP PUSH2 0x253 PUSH1 0x4 DUP1 CALLDATASIZE SUB DUP2 ADD SWAP1 PUSH2 0x24E SWAP2 SWAP1 PUSH2 0x1AC6 JUMP JUMPDEST PUSH2 0x6D9 JUMP JUMPDEST PUSH1 0x40 MLOAD PUSH2 0x260 SWAP2 SWAP1 PUSH2 0x1BED JUMP JUMPDEST PUSH1 0x40 MLOAD DUP1 SWAP2 SUB SWAP1 RETURN JUMPDEST CALLVALUE DUP1 ISZERO PUSH2 0x275 JUMPI PUSH1 0x0 DUP1 REVERT JUMPDEST POP PUSH2 0x27E PUSH2 0x7AA JUMP JUMPDEST PUSH1 0x40 MLOAD PUSH2 0x28B SWAP2 SWAP1 PUSH2 0x1C1E JUMP JUMPDEST PUSH1 0x40 MLOAD DUP1 SWAP2 SUB SWAP1 RETURN JUMPDEST CALLVALUE DUP1 ISZERO PUSH2 0x2A0 JUMPI PUSH1 0x0 DUP1 REVERT JUMPDEST POP PUSH2 0x2A9 PUSH2 0x7D0 JUMP JUMPDEST PUSH1 0x40 MLOAD PUSH2 0x2B6 SWAP2 SWAP1 PUSH2 0x1BED JUMP JUMPDEST PUSH1 0x40 MLOAD DUP1 SWAP2 SUB SWAP1 RETURN JUMPDEST PUSH2 0x2C7 PUSH2 0x85E JUMP JUMPDEST STOP JUMPDEST CALLVALUE DUP1 ISZERO PUSH2 0x2D5 JUMPI PUSH1 0x0 DUP1 REVERT JUMPDEST POP PUSH2 0x2DE PUSH2 0xA21 JUMP JUMPDEST PUSH1 0x40 MLOAD PUSH2 0x2EB SWAP2 SWAP1 PUSH2 0x1C58 JUMP JUMPDEST PUSH1 0x40 MLOAD DUP1 SWAP2 SUB SWAP1 RETURN JUMPDEST PUSH2 0x2FC PUSH2 0xA37 JUMP JUMPDEST STOP JUMPDEST CALLVALUE DUP1 ISZERO PUSH2 0x30A JUMPI PUSH1 0x0 DUP1 REVERT JUMPDEST POP PUSH2 0x325 PUSH1 0x4 DUP1 CALLDATASIZE SUB DUP2 ADD SWAP1 PUSH2 0x320 SWAP2 SWAP1 PUSH2 0x1CB1 JUMP JUMPDEST PUSH2 0xB9A JUMP JUMPDEST STOP JUMPDEST CALLVALUE DUP1 ISZERO PUSH2 0x333 JUMPI PUSH1 0x0 DUP1 REVERT JUMPDEST POP PUSH2 0x34E PUSH1 0x4 DUP1 CALLDATASIZE SUB DUP2 ADD SWAP1 PUSH2 0x349 SWAP2 SWAP1 PUSH2 0x1AC6 JUMP JUMPDEST PUSH2 0x1036 JUMP JUMPDEST PUSH1 0x40 MLOAD PUSH2 0x35B SWAP2 SWAP1 PUSH2 0x1B0C JUMP JUMPDEST PUSH1 0x40 MLOAD DUP1 SWAP2 SUB SWAP1 RETURN JUMPDEST CALLVALUE DUP1 ISZERO PUSH2 0x370 JUMPI PUSH1 0x0 DUP1 REVERT JUMPDEST POP PUSH2 0x379 PUSH2 0x107F JUMP JUMPDEST PUSH1 0x40 MLOAD PUSH2 0x386 SWAP2 SWAP1 PUSH2 0x1C1E JUMP JUMPDEST PUSH1 0x40 MLOAD DUP1 SWAP2 SUB SWAP1 RETURN JUMPDEST CALLVALUE DUP1 ISZERO PUSH2 0x39B JUMPI PUSH1 0x0 DUP1 REVERT JUMPDEST POP PUSH2 0x3A4 PUSH2 0x10A5 JUMP JUMPDEST PUSH1 0x40 MLOAD PUSH2 0x3B1 SWAP2 SWAP1 PUSH2 0x1D55 JUMP JUMPDEST PUSH1 0x40 MLOAD DUP1 SWAP2 SUB SWAP1 RETURN JUMPDEST CALLVALUE DUP1 ISZERO PUSH2 0x3C6 JUMPI PUSH1 0x0 DUP1 REVERT JUMPDEST POP PUSH2 0x3CF PUSH2 0x10B8 JUMP JUMPDEST PUSH1 0x40 MLOAD PUSH2 0x3DC SWAP2 SWAP1 PUSH2 0x1B0C JUMP JUMPDEST PUSH1 0x40 MLOAD DUP1 SWAP2 SUB SWAP1 RETURN JUMPDEST CALLVALUE DUP1 ISZERO PUSH2 0x3F1 JUMPI PUSH1 0x0 DUP1 REVERT JUMPDEST POP PUSH2 0x3FA PUSH2 0x10BE JUMP JUMPDEST PUSH1 0x40 MLOAD PUSH2 0x407 SWAP2 SWAP1 PUSH2 0x1C58 JUMP JUMPDEST PUSH1 0x40 MLOAD DUP1 SWAP2 SUB SWAP1 RETURN JUMPDEST CALLVALUE DUP1 ISZERO PUSH2 0x41C JUMPI PUSH1 0x0 DUP1 REVERT JUMPDEST POP PUSH2 0x425 PUSH2 0x10D4 JUMP JUMPDEST PUSH1 0x40 MLOAD PUSH2 0x432 SWAP2 SWAP1 PUSH2 0x1E2E JUMP JUMPDEST PUSH1 0x40 MLOAD DUP1 SWAP2 SUB SWAP1 RETURN JUMPDEST CALLVALUE DUP1 ISZERO PUSH2 0x447 JUMPI PUSH1 0x0 DUP1 REVERT JUMPDEST POP PUSH2 0x450 PUSH2 0x1162 JUMP JUMPDEST PUSH1 0x40 MLOAD PUSH2 0x45D SWAP2 SWAP1 PUSH2 0x1B0C JUMP JUMPDEST PUSH1 0x40 MLOAD DUP1 SWAP2 SUB SWAP1 RETURN JUMPDEST CALLVALUE DUP1 ISZERO PUSH2 0x472 JUMPI PUSH1 0x0 DUP1 REVERT JUMPDEST POP PUSH2 0x48D PUSH1 0x4 DUP1 CALLDATASIZE SUB DUP2 ADD SWAP1 PUSH2 0x488 SWAP2 SWAP1 PUSH2 0x1FB1 JUMP JUMPDEST PUSH2 0x1168 JUMP JUMPDEST STOP JUMPDEST CALLVALUE DUP1 ISZERO PUSH2 0x49B JUMPI PUSH1 0x0 DUP1 REVERT JUMPDEST POP PUSH2 0x4A4 PUSH2 0x146E JUMP JUMPDEST STOP JUMPDEST CALLVALUE DUP1 ISZERO PUSH2 0x4B2 JUMPI PUSH1 0x0 DUP1 REVERT JUMPDEST POP PUSH2 0x4CD PUSH1 0x4 DUP1 CALLDATASIZE SUB DUP2 ADD SWAP1 PUSH2 0x4C8 SWAP2 SWAP1 PUSH2 0x200D JUMP JUMPDEST PUSH2 0x18BA JUMP JUMPDEST PUSH1 0x40 MLOAD PUSH2 0x4DA SWAP2 SWAP1 PUSH2 0x1C1E JUMP JUMPDEST PUSH1 0x40 MLOAD DUP1 SWAP2 SUB SWAP1 RETURN JUMPDEST PUSH2 0x4EB PUSH2 0x18F9 JUMP JUMPDEST STOP JUMPDEST PUSH1 0x0 PUSH1 0xD PUSH1 0x0 DUP4 PUSH20 0xFFFFFFFFFFFFFFFFFFFFFFFFFFFFFFFFFFFFFFFF AND PUSH20 0xFFFFFFFFFFFFFFFFFFFFFFFFFFFFFFFFFFFFFFFF AND DUP2 MSTORE PUSH1 0x20 ADD SWAP1 DUP2 MSTORE PUSH1 0x20 ADD PUSH1 0x0 KECCAK256 SLOAD SWAP1 POP SWAP2 SWAP1 POP JUMP JUMPDEST PUSH1 0x0 DUP1 PUSH1 0x3 PUSH1 0x0 DUP5 PUSH20 0xFFFFFFFFFFFFFFFFFFFFFFFFFFFFFFFFFFFFFFFF AND PUSH20 0xFFFFFFFFFFFFFFFFFFFFFFFFFFFFFFFFFFFFFFFF AND DUP2 MSTORE PUSH1 0x20 ADD SWAP1 DUP2 MSTORE PUSH1 0x20 ADD PUSH1 0x0 KECCAK256 SLOAD GT SWAP1 POP SWAP2 SWAP1 POP JUMP JUMPDEST PUSH1 0x6 SLOAD DUP2 JUMP JUMPDEST PUSH1 0x9 PUSH1 0x4 SWAP1 SLOAD SWAP1 PUSH2 0x100 EXP SWAP1 DIV PUSH1 0xFF AND DUP2 JUMP JUMPDEST PUSH1 0xC PUSH1 0x0 SWAP1 SLOAD SWAP1 PUSH2 0x100 EXP SWAP1 DIV PUSH20 0xFFFFFFFFFFFFFFFFFFFFFFFFFFFFFFFFFFFFFFFF AND PUSH20 0xFFFFFFFFFFFFFFFFFFFFFFFFFFFFFFFFFFFFFFFF AND CALLER PUSH20 0xFFFFFFFFFFFFFFFFFFFFFFFFFFFFFFFFFFFFFFFF AND EQ DUP1 PUSH2 0x641 JUMPI POP PUSH32 0x0 PUSH20 0xFFFFFFFFFFFFFFFFFFFFFFFFFFFFFFFFFFFFFFFF AND CALLER PUSH20 0xFFFFFFFFFFFFFFFFFFFFFFFFFFFFFFFFFFFFFFFF AND EQ JUMPDEST PUSH2 0x680 JUMPI PUSH1 0x40 MLOAD PUSH32 0x8C379A000000000000000000000000000000000000000000000000000000000 DUP2 MSTORE PUSH1 0x4 ADD PUSH2 0x677 SWAP1 PUSH2 0x2086 JUMP JUMPDEST PUSH1 0x40 MLOAD DUP1 SWAP2 SUB SWAP1 REVERT JUMPDEST PUSH1 0x3 PUSH1 0x2 PUSH1 0x0 PUSH2 0x100 EXP DUP2 SLOAD DUP2 PUSH1 0xFF MUL NOT AND SWAP1 DUP4 PUSH1 0x3 DUP2 GT ISZERO PUSH2 0x6A6 JUMPI PUSH2 0x6A5 PUSH2 0x1CDE JUMP JUMPDEST JUMPDEST MUL OR SWAP1 SSTORE POP PUSH32 0xAA0BD7CD99BFEB112D24BCAEE2E5D057407EB13494C8A5CEEF53268F772C4D9B PUSH1 0x40 MLOAD PUSH1 0x40 MLOAD DUP1 SWAP2 SUB SWAP1 LOG1 JUMP JUMPDEST PUSH1 0x60 PUSH1 0x4 PUSH1 0x0 DUP4 PUSH20 0xFFFFFFFFFFFFFFFFFFFFFFFFFFFFFFFFFFFFFFFF AND PUSH20 0xFFFFFFFFFFFFFFFFFFFFFFFFFFFFFFFFFFFFFFFF AND DUP2 MSTORE PUSH1 0x20 ADD SWAP1 DUP2 MSTORE PUSH1 0x20 ADD PUSH1 0x0 KECCAK256 DUP1 SLOAD PUSH2 0x725 SWAP1 PUSH2 0x20D5 JUMP JUMPDEST DUP1 PUSH1 0x1F ADD PUSH1 0x20 DUP1 SWAP2 DIV MUL PUSH1 0x20 ADD PUSH1 0x40 MLOAD SWAP1 DUP2 ADD PUSH1 0x40 MSTORE DUP1 SWAP3 SWAP2 SWAP1 DUP2 DUP2 MSTORE PUSH1 0x20 ADD DUP3 DUP1 SLOAD PUSH2 0x751 SWAP1 PUSH2 0x20D5 JUMP JUMPDEST DUP1 ISZERO PUSH2 0x79E JUMPI DUP1 PUSH1 0x1F LT PUSH2 0x773 JUMPI PUSH2 0x100 DUP1 DUP4 SLOAD DIV MUL DUP4 MSTORE SWAP2 PUSH1 0x20 ADD SWAP2 PUSH2 0x79E JUMP JUMPDEST DUP3 ADD SWAP2 SWAP1 PUSH1 0x0 MSTORE PUSH1 0x20 PUSH1 0x0 KECCAK256 SWAP1 JUMPDEST DUP2 SLOAD DUP2 MSTORE SWAP1 PUSH1 0x1 ADD SWAP1 PUSH1 0x20 ADD DUP1 DUP4 GT PUSH2 0x781 JUMPI DUP3 SWAP1 SUB PUSH1 0x1F AND DUP3 ADD SWAP2 JUMPDEST POP POP POP POP POP SWAP1 POP SWAP2 SWAP1 POP JUMP JUMPDEST PUSH1 0xB PUSH1 0x0 SWAP1 SLOAD SWAP1 PUSH2 0x100 EXP SWAP1 DIV PUSH20 0xFFFFFFFFFFFFFFFFFFFFFFFFFFFFFFFFFFFFFFFF AND DUP2 JUMP JUMPDEST PUSH1 0x1 DUP1 SLOAD PUSH2 0x7DD SWAP1 PUSH2 0x20D5 JUMP JUMPDEST DUP1 PUSH1 0x1F ADD PUSH1 0x20 DUP1 SWAP2 DIV MUL PUSH1 0x20 ADD PUSH1 0x40 MLOAD SWAP1 DUP2 ADD PUSH1 0x40 MSTORE DUP1 SWAP3 SWAP2 SWAP1 DUP2 DUP2 MSTORE PUSH1 0x20 ADD DUP3 DUP1 SLOAD PUSH2 0x809 SWAP1 PUSH2 0x20D5 JUMP JUMPDEST DUP1 ISZERO PUSH2 0x856 JUMPI DUP1 PUSH1 0x1F LT PUSH2 0x82B JUMPI PUSH2 0x100 DUP1 DUP4 SLOAD DIV MUL DUP4 MSTORE SWAP2 PUSH1 0x20 ADD SWAP2 PUSH2 0x856 JUMP JUMPDEST DUP3 ADD SWAP2 SWAP1 PUSH1 0x0 MSTORE PUSH1 0x20 PUSH1 0x0 KECCAK256 SWAP1 JUMPDEST DUP2 SLOAD DUP2 MSTORE SWAP1 PUSH1 0x1 ADD SWAP1 PUSH1 0x20 ADD DUP1 DUP4 GT PUSH2 0x839 JUMPI DUP3 SWAP1 SUB PUSH1 0x1F AND DUP3 ADD SWAP2 JUMPDEST POP POP POP POP POP DUP2 JUMP JUMPDEST PUSH1 0x2 PUSH1 0x3 DUP2 GT ISZERO PUSH2 0x872 JUMPI PUSH2 0x871 PUSH2 0x1CDE JUMP JUMPDEST JUMPDEST PUSH1 0x2 PUSH1 0x0 SWAP1 SLOAD SWAP1 PUSH2 0x100 EXP SWAP1 DIV PUSH1 0xFF AND PUSH1 0x3 DUP2 GT ISZERO PUSH2 0x894 JUMPI PUSH2 0x893 PUSH2 0x1CDE JUMP JUMPDEST JUMPDEST SUB PUSH2 0x8D4 JUMPI PUSH1 0x40 MLOAD PUSH32 0x8C379A000000000000000000000000000000000000000000000000000000000 DUP2 MSTORE PUSH1 0x4 ADD PUSH2 0x8CB SWAP1 PUSH2 0x2152 JUMP JUMPDEST PUSH1 0x40 MLOAD DUP1 SWAP2 SUB SWAP1 REVERT JUMPDEST PUSH1 0x0 PUSH1 0x3 PUSH1 0x0 CALLER PUSH20 0xFFFFFFFFFFFFFFFFFFFFFFFFFFFFFFFFFFFFFFFF AND PUSH20 0xFFFFFFFFFFFFFFFFFFFFFFFFFFFFFFFFFFFFFFFF AND DUP2 MSTORE PUSH1 0x20 ADD SWAP1 DUP2 MSTORE PUSH1 0x20 ADD PUSH1 0x0 KECCAK256 SLOAD SWAP1 POP PUSH1 0x0 DUP2 GT PUSH2 0x95B JUMPI PUSH1 0x40 MLOAD PUSH32 0x8C379A000000000000000000000000000000000000000000000000000000000 DUP2 MSTORE PUSH1 0x4 ADD PUSH2 0x952 SWAP1 PUSH2 0x21BE JUMP JUMPDEST PUSH1 0x40 MLOAD DUP1 SWAP2 SUB SWAP1 REVERT JUMPDEST CALLER PUSH20 0xFFFFFFFFFFFFFFFFFFFFFFFFFFFFFFFFFFFFFFFF AND PUSH2 0x8FC DUP3 SWAP1 DUP2 ISZERO MUL SWAP1 PUSH1 0x40 MLOAD PUSH1 0x0 PUSH1 0x40 MLOAD DUP1 DUP4 SUB DUP2 DUP6 DUP9 DUP9 CALL SWAP4 POP POP POP POP ISZERO DUP1 ISZERO PUSH2 0x9A1 JUMPI RETURNDATASIZE PUSH1 0x0 DUP1 RETURNDATACOPY RETURNDATASIZE PUSH1 0x0 REVERT JUMPDEST POP PUSH1 0x0 PUSH1 0x3 PUSH1 0x0 CALLER PUSH20 0xFFFFFFFFFFFFFFFFFFFFFFFFFFFFFFFFFFFFFFFF AND PUSH20 0xFFFFFFFFFFFFFFFFFFFFFFFFFFFFFFFFFFFFFFFF AND DUP2 MSTORE PUSH1 0x20 ADD SWAP1 DUP2 MSTORE PUSH1 0x20 ADD PUSH1 0x0 KECCAK256 DUP2 SWAP1 SSTORE POP PUSH32 0x64A19944946955995BB521FBF068BFD6BA64497E91E11948A97ACD706BFFB55F CALLER PUSH1 0x40 MLOAD PUSH2 0xA16 SWAP2 SWAP1 PUSH2 0x1C1E JUMP JUMPDEST PUSH1 0x40 MLOAD DUP1 SWAP2 SUB SWAP1 LOG1 POP JUMP JUMPDEST PUSH1 0x9 PUSH1 0x0 SWAP1 SLOAD SWAP1 PUSH2 0x100 EXP SWAP1 DIV PUSH4 0xFFFFFFFF AND DUP2 JUMP JUMPDEST CALLER PUSH20 0xFFFFFFFFFFFFFFFFFFFFFFFFFFFFFFFFFFFFFFFF AND PUSH1 0xC PUSH1 0x0 SWAP1 SLOAD SWAP1 PUSH2 0x100 EXP SWAP1 DIV PUSH20 0xFFFFFFFFFFFFFFFFFFFFFFFFFFFFFFFFFFFFFFFF AND PUSH20 0xFFFFFFFFFFFFFFFFFFFFFFFFFFFFFFFFFFFFFFFF AND EQ PUSH2 0xAC7 JUMPI PUSH1 0x40 MLOAD PUSH32 0x8C379A000000000000000000000000000000000000000000000000000000000 DUP2 MSTORE PUSH1 0x4 ADD PUSH2 0xABE SWAP1 PUSH2 0x222A JUMP JUMPDEST PUSH1 0x40 MLOAD DUP1 SWAP2 SUB SWAP1 REVERT JUMPDEST PUSH1 0x0 PUSH1 0xC PUSH1 0x0 SWAP1 SLOAD SWAP1 PUSH2 0x100 EXP SWAP1 DIV PUSH20 0xFFFFFFFFFFFFFFFFFFFFFFFFFFFFFFFFFFFFFFFF AND PUSH20 0xFFFFFFFFFFFFFFFFFFFFFFFFFFFFFFFFFFFFFFFF AND PUSH1 0x0 SLOAD PUSH1 0x40 MLOAD PUSH2 0xB11 SWAP1 PUSH2 0x227B JUMP JUMPDEST PUSH1 0x0 PUSH1 0x40 MLOAD DUP1 DUP4 SUB DUP2 DUP6 DUP8 GAS CALL SWAP3 POP POP POP RETURNDATASIZE DUP1 PUSH1 0x0 DUP2 EQ PUSH2 0xB4E JUMPI PUSH1 0x40 MLOAD SWAP2 POP PUSH1 0x1F NOT PUSH1 0x3F RETURNDATASIZE ADD AND DUP3 ADD PUSH1 0x40 MSTORE RETURNDATASIZE DUP3 MSTORE RETURNDATASIZE PUSH1 0x0 PUSH1 0x20 DUP5 ADD RETURNDATACOPY PUSH2 0xB53 JUMP JUMPDEST PUSH1 0x60 SWAP2 POP JUMPDEST POP POP SWAP1 POP DUP1 PUSH2 0xB97 JUMPI PUSH1 0x40 MLOAD PUSH32 0x8C379A000000000000000000000000000000000000000000000000000000000 DUP2 MSTORE PUSH1 0x4 ADD PUSH2 0xB8E SWAP1 PUSH2 0x22DC JUMP JUMPDEST PUSH1 0x40 MLOAD DUP1 SWAP2 SUB SWAP1 REVERT JUMPDEST POP JUMP JUMPDEST PUSH1 0xE PUSH1 0x0 CALLER PUSH20 0xFFFFFFFFFFFFFFFFFFFFFFFFFFFFFFFFFFFFFFFF AND PUSH20 0xFFFFFFFFFFFFFFFFFFFFFFFFFFFFFFFFFFFFFFFF AND DUP2 MSTORE PUSH1 0x20 ADD SWAP1 DUP2 MSTORE PUSH1 0x20 ADD PUSH1 0x0 KECCAK256 PUSH1 0x0 SWAP1 SLOAD SWAP1 PUSH2 0x100 EXP SWAP1 DIV PUSH1 0xFF AND ISZERO PUSH2 0xC27 JUMPI PUSH1 0x40 MLOAD PUSH32 0x8C379A000000000000000000000000000000000000000000000000000000000 DUP2 MSTORE PUSH1 0x4 ADD PUSH2 0xC1E SWAP1 PUSH2 0x2348 JUMP JUMPDEST PUSH1 0x40 MLOAD DUP1 SWAP2 SUB SWAP1 REVERT JUMPDEST PUSH1 0x0 PUSH1 0x3 DUP2 GT ISZERO PUSH2 0xC3B JUMPI PUSH2 0xC3A PUSH2 0x1CDE JUMP JUMPDEST JUMPDEST PUSH1 0x2 PUSH1 0x0 SWAP1 SLOAD SWAP1 PUSH2 0x100 EXP SWAP1 DIV PUSH1 0xFF AND PUSH1 0x3 DUP2 GT ISZERO PUSH2 0xC5D JUMPI PUSH2 0xC5C PUSH2 0x1CDE JUMP JUMPDEST JUMPDEST EQ PUSH2 0xC9D JUMPI PUSH1 0x40 MLOAD PUSH32 0x8C379A000000000000000000000000000000000000000000000000000000000 DUP2 MSTORE PUSH1 0x4 ADD PUSH2 0xC94 SWAP1 PUSH2 0x23B4 JUMP JUMPDEST PUSH1 0x40 MLOAD DUP1 SWAP2 SUB SWAP1 REVERT JUMPDEST PUSH1 0x0 PUSH1 0x5 PUSH1 0x0 DUP4 PUSH20 0xFFFFFFFFFFFFFFFFFFFFFFFFFFFFFFFFFFFFFFFF AND PUSH20 0xFFFFFFFFFFFFFFFFFFFFFFFFFFFFFFFFFFFFFFFF AND DUP2 MSTORE PUSH1 0x20 ADD SWAP1 DUP2 MSTORE PUSH1 0x20 ADD PUSH1 0x0 KECCAK256 SLOAD GT PUSH2 0xD1F JUMPI PUSH1 0x40 MLOAD PUSH32 0x8C379A000000000000000000000000000000000000000000000000000000000 DUP2 MSTORE PUSH1 0x4 ADD PUSH2 0xD16 SWAP1 PUSH2 0x2420 JUMP JUMPDEST PUSH1 0x40 MLOAD DUP1 SWAP2 SUB SWAP1 REVERT JUMPDEST PUSH1 0x1 PUSH1 0xD PUSH1 0x0 DUP4 PUSH20 0xFFFFFFFFFFFFFFFFFFFFFFFFFFFFFFFFFFFFFFFF AND PUSH20 0xFFFFFFFFFFFFFFFFFFFFFFFFFFFFFFFFFFFFFFFF AND DUP2 MSTORE PUSH1 0x20 ADD SWAP1 DUP2 MSTORE PUSH1 0x20 ADD PUSH1 0x0 KECCAK256 PUSH1 0x0 DUP3 DUP3 SLOAD PUSH2 0xD6F SWAP2 SWAP1 PUSH2 0x246F JUMP JUMPDEST SWAP3 POP POP DUP2 SWAP1 SSTORE POP PUSH1 0x9 PUSH1 0x5 DUP2 DUP2 SWAP1 SLOAD SWAP1 PUSH2 0x100 EXP SWAP1 DIV PUSH4 0xFFFFFFFF AND DUP1 SWAP3 SWAP2 SWAP1 PUSH2 0xD98 SWAP1 PUSH2 0x24A3 JUMP JUMPDEST SWAP2 SWAP1 PUSH2 0x100 EXP DUP2 SLOAD DUP2 PUSH4 0xFFFFFFFF MUL NOT AND SWAP1 DUP4 PUSH4 0xFFFFFFFF AND MUL OR SWAP1 SSTORE POP POP PUSH1 0x1 PUSH1 0xE PUSH1 0x0 CALLER PUSH20 0xFFFFFFFFFFFFFFFFFFFFFFFFFFFFFFFFFFFFFFFF AND PUSH20 0xFFFFFFFFFFFFFFFFFFFFFFFFFFFFFFFFFFFFFFFF AND DUP2 MSTORE PUSH1 0x20 ADD SWAP1 DUP2 MSTORE PUSH1 0x20 ADD PUSH1 0x0 KECCAK256 PUSH1 0x0 PUSH2 0x100 EXP DUP2 SLOAD DUP2 PUSH1 0xFF MUL NOT AND SWAP1 DUP4 ISZERO ISZERO MUL OR SWAP1 SSTORE POP PUSH1 0x0 PUSH1 0xD PUSH1 0x0 PUSH1 0xB PUSH1 0x0 SWAP1 SLOAD SWAP1 PUSH2 0x100 EXP SWAP1 DIV PUSH20 0xFFFFFFFFFFFFFFFFFFFFFFFFFFFFFFFFFFFFFFFF AND PUSH20 0xFFFFFFFFFFFFFFFFFFFFFFFFFFFFFFFFFFFFFFFF AND PUSH20 0xFFFFFFFFFFFFFFFFFFFFFFFFFFFFFFFFFFFFFFFF AND DUP2 MSTORE PUSH1 0x20 ADD SWAP1 DUP2 MSTORE PUSH1 0x20 ADD PUSH1 0x0 KECCAK256 SLOAD SUB PUSH2 0xEBE JUMPI DUP1 PUSH1 0xB PUSH1 0x0 PUSH2 0x100 EXP DUP2 SLOAD DUP2 PUSH20 0xFFFFFFFFFFFFFFFFFFFFFFFFFFFFFFFFFFFFFFFF MUL NOT AND SWAP1 DUP4 PUSH20 0xFFFFFFFFFFFFFFFFFFFFFFFFFFFFFFFFFFFFFFFF AND MUL OR SWAP1 SSTORE POP PUSH2 0xF82 JUMP JUMPDEST PUSH1 0xD PUSH1 0x0 PUSH1 0xB PUSH1 0x0 SWAP1 SLOAD SWAP1 PUSH2 0x100 EXP SWAP1 DIV PUSH20 0xFFFFFFFFFFFFFFFFFFFFFFFFFFFFFFFFFFFFFFFF AND PUSH20 0xFFFFFFFFFFFFFFFFFFFFFFFFFFFFFFFFFFFFFFFF AND PUSH20 0xFFFFFFFFFFFFFFFFFFFFFFFFFFFFFFFFFFFFFFFF AND DUP2 MSTORE PUSH1 0x20 ADD SWAP1 DUP2 MSTORE PUSH1 0x20 ADD PUSH1 0x0 KECCAK256 SLOAD PUSH1 0x9 PUSH1 0x5 SWAP1 SLOAD SWAP1 PUSH2 0x100 EXP SWAP1 DIV PUSH4 0xFFFFFFFF AND PUSH4 0xFFFFFFFF AND LT ISZERO PUSH2 0xF81 JUMPI DUP1 PUSH1 0xB PUSH1 0x0 PUSH2 0x100 EXP DUP2 SLOAD DUP2 PUSH20 0xFFFFFFFFFFFFFFFFFFFFFFFFFFFFFFFFFFFFFFFF MUL NOT AND SWAP1 DUP4 PUSH20 0xFFFFFFFFFFFFFFFFFFFFFFFFFFFFFFFFFFFFFFFF AND MUL OR SWAP1 SSTORE POP JUMPDEST JUMPDEST PUSH1 0x9 PUSH1 0x0 SWAP1 SLOAD SWAP1 PUSH2 0x100 EXP SWAP1 DIV PUSH4 0xFFFFFFFF AND PUSH4 0xFFFFFFFF AND PUSH1 0xD PUSH1 0x0 DUP4 PUSH20 0xFFFFFFFFFFFFFFFFFFFFFFFFFFFFFFFFFFFFFFFF AND PUSH20 0xFFFFFFFFFFFFFFFFFFFFFFFFFFFFFFFFFFFFFFFF AND DUP2 MSTORE PUSH1 0x20 ADD SWAP1 DUP2 MSTORE PUSH1 0x20 ADD PUSH1 0x0 KECCAK256 SLOAD LT PUSH2 0xFFC JUMPI PUSH1 0x1 PUSH1 0x9 PUSH1 0x4 PUSH2 0x100 EXP DUP2 SLOAD DUP2 PUSH1 0xFF MUL NOT AND SWAP1 DUP4 ISZERO ISZERO MUL OR SWAP1 SSTORE POP JUMPDEST PUSH32 0x24E53C9B6F7A01C723FA01359E44B47E62AB501027DBB092D38E3669D6B01D08 CALLER PUSH1 0x40 MLOAD PUSH2 0x102B SWAP2 SWAP1 PUSH2 0x1C1E JUMP JUMPDEST PUSH1 0x40 MLOAD DUP1 SWAP2 SUB SWAP1 LOG1 POP JUMP JUMPDEST PUSH1 0x0 PUSH1 0x5 PUSH1 0x0 DUP4 PUSH20 0xFFFFFFFFFFFFFFFFFFFFFFFFFFFFFFFFFFFFFFFF AND PUSH20 0xFFFFFFFFFFFFFFFFFFFFFFFFFFFFFFFFFFFFFFFF AND DUP2 MSTORE PUSH1 0x20 ADD SWAP1 DUP2 MSTORE PUSH1 0x20 ADD PUSH1 0x0 KECCAK256 SLOAD SWAP1 POP SWAP2 SWAP1 POP JUMP JUMPDEST PUSH1 0xC PUSH1 0x0 SWAP1 SLOAD SWAP1 PUSH2 0x100 EXP SWAP1 DIV PUSH20 0xFFFFFFFFFFFFFFFFFFFFFFFFFFFFFFFFFFFFFFFF AND DUP2 JUMP JUMPDEST PUSH1 0x2 PUSH1 0x0 SWAP1 SLOAD SWAP1 PUSH2 0x100 EXP SWAP1 DIV PUSH1 0xFF AND DUP2 JUMP JUMPDEST PUSH1 0x0 SLOAD DUP2 JUMP JUMPDEST PUSH1 0x7 PUSH1 0x0 SWAP1 SLOAD SWAP1 PUSH2 0x100 EXP SWAP1 DIV PUSH4 0xFFFFFFFF AND DUP2 JUMP JUMPDEST PUSH1 0x60 PUSH1 0xA DUP1 SLOAD DUP1 PUSH1 0x20 MUL PUSH1 0x20 ADD PUSH1 0x40 MLOAD SWAP1 DUP2 ADD PUSH1 0x40 MSTORE DUP1 SWAP3 SWAP2 SWAP1 DUP2 DUP2 MSTORE PUSH1 0x20 ADD DUP3 DUP1 SLOAD DUP1 ISZERO PUSH2 0x1158 JUMPI PUSH1 0x20 MUL DUP3 ADD SWAP2 SWAP1 PUSH1 0x0 MSTORE PUSH1 0x20 PUSH1 0x0 KECCAK256 SWAP1 JUMPDEST DUP2 PUSH1 0x0 SWAP1 SLOAD SWAP1 PUSH2 0x100 EXP SWAP1 DIV PUSH20 0xFFFFFFFFFFFFFFFFFFFFFFFFFFFFFFFFFFFFFFFF AND PUSH20 0xFFFFFFFFFFFFFFFFFFFFFFFFFFFFFFFFFFFFFFFF AND DUP2 MSTORE PUSH1 0x20 ADD SWAP1 PUSH1 0x1 ADD SWAP1 DUP1 DUP4 GT PUSH2 0x110E JUMPI JUMPDEST POP POP POP POP POP SWAP1 POP SWAP1 JUMP JUMPDEST PUSH1 0x8 SLOAD DUP2 JUMP JUMPDEST PUSH1 0x0 PUSH1 0x3 DUP2 GT ISZERO PUSH2 0x117C JUMPI PUSH2 0x117B PUSH2 0x1CDE JUMP JUMPDEST JUMPDEST PUSH1 0x2 PUSH1 0x0 SWAP1 SLOAD SWAP1 PUSH2 0x100 EXP SWAP1 DIV PUSH1 0xFF AND PUSH1 0x3 DUP2 GT ISZERO PUSH2 0x119E JUMPI PUSH2 0x119D PUSH2 0x1CDE JUMP JUMPDEST JUMPDEST EQ PUSH2 0x11DE JUMPI PUSH1 0x40 MLOAD PUSH32 0x8C379A000000000000000000000000000000000000000000000000000000000 DUP2 MSTORE PUSH1 0x4 ADD PUSH2 0x11D5 SWAP1 PUSH2 0x251B JUMP JUMPDEST PUSH1 0x40 MLOAD DUP1 SWAP2 SUB SWAP1 REVERT JUMPDEST PUSH1 0x0 PUSH32 0x0 SWAP1 POP DUP1 PUSH20 0xFFFFFFFFFFFFFFFFFFFFFFFFFFFFFFFFFFFFFFFF AND PUSH4 0x75838862 CALLER PUSH1 0x40 MLOAD DUP3 PUSH4 0xFFFFFFFF AND PUSH1 0xE0 SHL DUP2 MSTORE PUSH1 0x4 ADD PUSH2 0x123C SWAP2 SWAP1 PUSH2 0x1C1E JUMP JUMPDEST PUSH1 0x20 PUSH1 0x40 MLOAD DUP1 DUP4 SUB DUP2 DUP7 GAS STATICCALL ISZERO DUP1 ISZERO PUSH2 0x1259 JUMPI RETURNDATASIZE PUSH1 0x0 DUP1 RETURNDATACOPY RETURNDATASIZE PUSH1 0x0 REVERT JUMPDEST POP POP POP POP PUSH1 0x40 MLOAD RETURNDATASIZE PUSH1 0x1F NOT PUSH1 0x1F DUP3 ADD AND DUP3 ADD DUP1 PUSH1 0x40 MSTORE POP DUP2 ADD SWAP1 PUSH2 0x127D SWAP2 SWAP1 PUSH2 0x2567 JUMP JUMPDEST PUSH2 0x12BC JUMPI PUSH1 0x40 MLOAD PUSH32 0x8C379A000000000000000000000000000000000000000000000000000000000 DUP2 MSTORE PUSH1 0x4 ADD PUSH2 0x12B3 SWAP1 PUSH2 0x25E0 JUMP JUMPDEST PUSH1 0x40 MLOAD DUP1 SWAP2 SUB SWAP1 REVERT JUMPDEST PUSH1 0x0 PUSH1 0x5 PUSH1 0x0 CALLER PUSH20 0xFFFFFFFFFFFFFFFFFFFFFFFFFFFFFFFFFFFFFFFF AND PUSH20 0xFFFFFFFFFFFFFFFFFFFFFFFFFFFFFFFFFFFFFFFF AND DUP2 MSTORE PUSH1 0x20 ADD SWAP1 DUP2 MSTORE PUSH1 0x20 ADD PUSH1 0x0 KECCAK256 SLOAD EQ PUSH2 0x133E JUMPI PUSH1 0x40 MLOAD PUSH32 0x8C379A000000000000000000000000000000000000000000000000000000000 DUP2 MSTORE PUSH1 0x4 ADD PUSH2 0x1335 SWAP1 PUSH2 0x264C JUMP JUMPDEST PUSH1 0x40 MLOAD DUP1 SWAP2 SUB SWAP1 REVERT JUMPDEST DUP3 PUSH1 0x4 PUSH1 0x0 CALLER PUSH20 0xFFFFFFFFFFFFFFFFFFFFFFFFFFFFFFFFFFFFFFFF AND PUSH20 0xFFFFFFFFFFFFFFFFFFFFFFFFFFFFFFFFFFFFFFFF AND DUP2 MSTORE PUSH1 0x20 ADD SWAP1 DUP2 MSTORE PUSH1 0x20 ADD PUSH1 0x0 KECCAK256 SWAP1 DUP2 PUSH2 0x138A SWAP2 SWAP1 PUSH2 0x2818 JUMP JUMPDEST POP DUP2 PUSH1 0x5 PUSH1 0x0 CALLER PUSH20 0xFFFFFFFFFFFFFFFFFFFFFFFFFFFFFFFFFFFFFFFF AND PUSH20 0xFFFFFFFFFFFFFFFFFFFFFFFFFFFFFFFFFFFFFFFF AND DUP2 MSTORE PUSH1 0x20 ADD SWAP1 DUP2 MSTORE PUSH1 0x20 ADD PUSH1 0x0 KECCAK256 DUP2 SWAP1 SSTORE POP PUSH1 0xA CALLER SWAP1 DUP1 PUSH1 0x1 DUP2 SLOAD ADD DUP1 DUP3 SSTORE DUP1 SWAP2 POP POP PUSH1 0x1 SWAP1 SUB SWAP1 PUSH1 0x0 MSTORE PUSH1 0x20 PUSH1 0x0 KECCAK256 ADD PUSH1 0x0 SWAP1 SWAP2 SWAP1 SWAP2 SWAP1 SWAP2 PUSH2 0x100 EXP DUP2 SLOAD DUP2 PUSH20 0xFFFFFFFFFFFFFFFFFFFFFFFFFFFFFFFFFFFFFFFF MUL NOT AND SWAP1 DUP4 PUSH20 0xFFFFFFFFFFFFFFFFFFFFFFFFFFFFFFFFFFFFFFFF AND MUL OR SWAP1 SSTORE POP PUSH32 0x23914683CB862EC5961902CCA21FB0378FD27A633C4D929996C2A14ABCFD5B51 CALLER PUSH1 0x40 MLOAD PUSH2 0x1461 SWAP2 SWAP1 PUSH2 0x1C1E JUMP JUMPDEST PUSH1 0x40 MLOAD DUP1 SWAP2 SUB SWAP1 LOG1 POP POP POP JUMP JUMPDEST PUSH1 0xB PUSH1 0x0 SWAP1 SLOAD SWAP1 PUSH2 0x100 EXP SWAP1 DIV PUSH20 0xFFFFFFFFFFFFFFFFFFFFFFFFFFFFFFFFFFFFFFFF AND PUSH20 0xFFFFFFFFFFFFFFFFFFFFFFFFFFFFFFFFFFFFFFFF AND CALLER PUSH20 0xFFFFFFFFFFFFFFFFFFFFFFFFFFFFFFFFFFFFFFFF AND EQ PUSH2 0x14FE JUMPI PUSH1 0x40 MLOAD PUSH32 0x8C379A000000000000000000000000000000000000000000000000000000000 DUP2 MSTORE PUSH1 0x4 ADD PUSH2 0x14F5 SWAP1 PUSH2 0x2936 JUMP JUMPDEST PUSH1 0x40 MLOAD DUP1 SWAP2 SUB SWAP1 REVERT JUMPDEST PUSH1 0x9 PUSH1 0x4 SWAP1 SLOAD SWAP1 PUSH2 0x100 EXP SWAP1 DIV PUSH1 0xFF AND PUSH2 0x154D JUMPI PUSH1 0x40 MLOAD PUSH32 0x8C379A000000000000000000000000000000000000000000000000000000000 DUP2 MSTORE PUSH1 0x4 ADD PUSH2 0x1544 SWAP1 PUSH2 0x29A2 JUMP JUMPDEST PUSH1 0x40 MLOAD DUP1 SWAP2 SUB SWAP1 REVERT JUMPDEST PUSH1 0x8 SLOAD TIMESTAMP GT PUSH2 0x1591 JUMPI PUSH1 0x40 MLOAD PUSH32 0x8C379A000000000000000000000000000000000000000000000000000000000 DUP2 MSTORE PUSH1 0x4 ADD PUSH2 0x1588 SWAP1 PUSH2 0x2A0E JUMP JUMPDEST PUSH1 0x40 MLOAD DUP1 SWAP2 SUB SWAP1 REVERT JUMPDEST PUSH1 0x0 PUSH1 0x5 PUSH1 0x0 PUSH1 0xB PUSH1 0x0 SWAP1 SLOAD SWAP1 PUSH2 0x100 EXP SWAP1 DIV PUSH20 0xFFFFFFFFFFFFFFFFFFFFFFFFFFFFFFFFFFFFFFFF AND PUSH20 0xFFFFFFFFFFFFFFFFFFFFFFFFFFFFFFFFFFFFFFFF AND PUSH20 0xFFFFFFFFFFFFFFFFFFFFFFFFFFFFFFFFFFFFFFFF AND DUP2 MSTORE PUSH1 0x20 ADD SWAP1 DUP2 MSTORE PUSH1 0x20 ADD PUSH1 0x0 KECCAK256 SLOAD SWAP1 POP DUP1 PUSH1 0x0 SLOAD GT PUSH2 0x163B JUMPI PUSH1 0x40 MLOAD PUSH32 0x8C379A000000000000000000000000000000000000000000000000000000000 DUP2 MSTORE PUSH1 0x4 ADD PUSH2 0x1632 SWAP1 PUSH2 0x2A7A JUMP JUMPDEST PUSH1 0x40 MLOAD DUP1 SWAP2 SUB SWAP1 REVERT JUMPDEST PUSH1 0xB PUSH1 0x0 SWAP1 SLOAD SWAP1 PUSH2 0x100 EXP SWAP1 DIV PUSH20 0xFFFFFFFFFFFFFFFFFFFFFFFFFFFFFFFFFFFFFFFF AND PUSH1 0xC PUSH1 0x0 PUSH2 0x100 EXP DUP2 SLOAD DUP2 PUSH20 0xFFFFFFFFFFFFFFFFFFFFFFFFFFFFFFFFFFFFFFFF MUL NOT AND SWAP1 DUP4 PUSH20 0xFFFFFFFFFFFFFFFFFFFFFFFFFFFFFFFFFFFFFFFF AND MUL OR SWAP1 SSTORE POP PUSH1 0x0 PUSH32 0x0 SWAP1 POP PUSH1 0x2 DUP1 PUSH1 0x0 PUSH2 0x100 EXP DUP2 SLOAD DUP2 PUSH1 0xFF MUL NOT AND SWAP1 DUP4 PUSH1 0x3 DUP2 GT ISZERO PUSH2 0x16E8 JUMPI PUSH2 0x16E7 PUSH2 0x1CDE JUMP JUMPDEST JUMPDEST MUL OR SWAP1 SSTORE POP PUSH1 0x0 PUSH32 0x0 SWAP1 POP PUSH1 0x0 DUP3 PUSH20 0xFFFFFFFFFFFFFFFFFFFFFFFFFFFFFFFFFFFFFFFF AND PUSH4 0xFADD65C3 PUSH1 0xB PUSH1 0x0 SWAP1 SLOAD SWAP1 PUSH2 0x100 EXP SWAP1 DIV PUSH20 0xFFFFFFFFFFFFFFFFFFFFFFFFFFFFFFFFFFFFFFFF AND PUSH1 0x40 MLOAD DUP3 PUSH4 0xFFFFFFFF AND PUSH1 0xE0 SHL DUP2 MSTORE PUSH1 0x4 ADD PUSH2 0x176F SWAP2 SWAP1 PUSH2 0x1C1E JUMP JUMPDEST PUSH1 0x0 PUSH1 0x40 MLOAD DUP1 DUP4 SUB DUP2 DUP7 GAS STATICCALL ISZERO DUP1 ISZERO PUSH2 0x178C JUMPI RETURNDATASIZE PUSH1 0x0 DUP1 RETURNDATACOPY RETURNDATASIZE PUSH1 0x0 REVERT JUMPDEST POP POP POP POP PUSH1 0x40 MLOAD RETURNDATASIZE PUSH1 0x0 DUP3 RETURNDATACOPY RETURNDATASIZE PUSH1 0x1F NOT PUSH1 0x1F DUP3 ADD AND DUP3 ADD DUP1 PUSH1 0x40 MSTORE POP DUP2 ADD SWAP1 PUSH2 0x17B5 SWAP2 SWAP1 PUSH2 0x2B77 JUMP JUMPDEST SWAP1 POP DUP2 PUSH20 0xFFFFFFFFFFFFFFFFFFFFFFFFFFFFFFFFFFFFFFFF AND PUSH4 0xC6211077 DUP3 PUSH1 0x0 DUP2 MLOAD DUP2 LT PUSH2 0x17E7 JUMPI PUSH2 0x17E6 PUSH2 0x2BC0 JUMP JUMPDEST JUMPDEST PUSH1 0x20 MUL PUSH1 0x20 ADD ADD MLOAD PUSH1 0xC PUSH1 0x0 SWAP1 SLOAD SWAP1 PUSH2 0x100 EXP SWAP1 DIV PUSH20 0xFFFFFFFFFFFFFFFFFFFFFFFFFFFFFFFFFFFFFFFF AND PUSH32 0x0 PUSH1 0x0 ADDRESS PUSH1 0x40 MLOAD DUP7 PUSH4 0xFFFFFFFF AND PUSH1 0xE0 SHL DUP2 MSTORE PUSH1 0x4 ADD PUSH2 0x1856 SWAP6 SWAP5 SWAP4 SWAP3 SWAP2 SWAP1 PUSH2 0x2C37 JUMP JUMPDEST PUSH1 0x0 PUSH1 0x40 MLOAD DUP1 DUP4 SUB DUP2 PUSH1 0x0 DUP8 DUP1 EXTCODESIZE ISZERO DUP1 ISZERO PUSH2 0x1870 JUMPI PUSH1 0x0 DUP1 REVERT JUMPDEST POP GAS CALL ISZERO DUP1 ISZERO PUSH2 0x1884 JUMPI RETURNDATASIZE PUSH1 0x0 DUP1 RETURNDATACOPY RETURNDATASIZE PUSH1 0x0 REVERT JUMPDEST POP POP POP POP PUSH32 0x45B0F4BC838CFD8748CC5DFB3C6627145D32DDCB17804DDF52CD8CC9E5CD1B5D PUSH1 0x40 MLOAD PUSH1 0x40 MLOAD DUP1 SWAP2 SUB SWAP1 LOG1 POP POP POP POP JUMP JUMPDEST PUSH1 0xA DUP2 DUP2 SLOAD DUP2 LT PUSH2 0x18CA JUMPI PUSH1 0x0 DUP1 REVERT JUMPDEST SWAP1 PUSH1 0x0 MSTORE PUSH1 0x20 PUSH1 0x0 KECCAK256 ADD PUSH1 0x0 SWAP2 POP SLOAD SWAP1 PUSH2 0x100 EXP SWAP1 DIV PUSH20 0xFFFFFFFFFFFFFFFFFFFFFFFFFFFFFFFFFFFFFFFF AND DUP2 JUMP JUMPDEST PUSH1 0x0 PUSH1 0x3 DUP2 GT ISZERO PUSH2 0x190D JUMPI PUSH2 0x190C PUSH2 0x1CDE JUMP JUMPDEST JUMPDEST PUSH1 0x2 PUSH1 0x0 SWAP1 SLOAD SWAP1 PUSH2 0x100 EXP SWAP1 DIV PUSH1 0xFF AND PUSH1 0x3 DUP2 GT ISZERO PUSH2 0x192F JUMPI PUSH2 0x192E PUSH2 0x1CDE JUMP JUMPDEST JUMPDEST EQ DUP1 PUSH2 0x196E JUMPI POP PUSH1 0x1 PUSH1 0x3 DUP2 GT ISZERO PUSH2 0x194A JUMPI PUSH2 0x1949 PUSH2 0x1CDE JUMP JUMPDEST JUMPDEST PUSH1 0x2 PUSH1 0x0 SWAP1 SLOAD SWAP1 PUSH2 0x100 EXP SWAP1 DIV PUSH1 0xFF AND PUSH1 0x3 DUP2 GT ISZERO PUSH2 0x196C JUMPI PUSH2 0x196B PUSH2 0x1CDE JUMP JUMPDEST JUMPDEST EQ JUMPDEST PUSH2 0x19AD JUMPI PUSH1 0x40 MLOAD PUSH32 0x8C379A000000000000000000000000000000000000000000000000000000000 DUP2 MSTORE PUSH1 0x4 ADD PUSH2 0x19A4 SWAP1 PUSH2 0x2CD6 JUMP JUMPDEST PUSH1 0x40 MLOAD DUP1 SWAP2 SUB SWAP1 REVERT JUMPDEST CALLVALUE PUSH1 0x3 PUSH1 0x0 CALLER PUSH20 0xFFFFFFFFFFFFFFFFFFFFFFFFFFFFFFFFFFFFFFFF AND PUSH20 0xFFFFFFFFFFFFFFFFFFFFFFFFFFFFFFFFFFFFFFFF AND DUP2 MSTORE PUSH1 0x20 ADD SWAP1 DUP2 MSTORE PUSH1 0x20 ADD PUSH1 0x0 KECCAK256 PUSH1 0x0 DUP3 DUP3 SLOAD PUSH2 0x19FC SWAP2 SWAP1 PUSH2 0x246F JUMP JUMPDEST SWAP3 POP POP DUP2 SWAP1 SSTORE POP CALLVALUE PUSH1 0x0 DUP1 DUP3 DUP3 SLOAD PUSH2 0x1A14 SWAP2 SWAP1 PUSH2 0x246F JUMP JUMPDEST SWAP3 POP POP DUP2 SWAP1 SSTORE POP PUSH32 0x35A268D4C65B4AFB5B15F6E60F11FD64CCE0AA427E6D48058BE6E9B697C493D7 CALLER PUSH1 0x40 MLOAD PUSH2 0x1A4A SWAP2 SWAP1 PUSH2 0x1C1E JUMP JUMPDEST PUSH1 0x40 MLOAD DUP1 SWAP2 SUB SWAP1 LOG1 JUMP JUMPDEST PUSH1 0x0 PUSH1 0x40 MLOAD SWAP1 POP SWAP1 JUMP JUMPDEST PUSH1 0x0 DUP1 REVERT JUMPDEST PUSH1 0x0 DUP1 REVERT JUMPDEST PUSH1 0x0 PUSH20 0xFFFFFFFFFFFFFFFFFFFFFFFFFFFFFFFFFFFFFFFF DUP3 AND SWAP1 POP SWAP2 SWAP1 POP JUMP JUMPDEST PUSH1 0x0 PUSH2 0x1A93 DUP3 PUSH2 0x1A68 JUMP JUMPDEST SWAP1 POP SWAP2 SWAP1 POP JUMP JUMPDEST PUSH2 0x1AA3 DUP2 PUSH2 0x1A88 JUMP JUMPDEST DUP2 EQ PUSH2 0x1AAE JUMPI PUSH1 0x0 DUP1 REVERT JUMPDEST POP JUMP JUMPDEST PUSH1 0x0 DUP2 CALLDATALOAD SWAP1 POP PUSH2 0x1AC0 DUP2 PUSH2 0x1A9A JUMP JUMPDEST SWAP3 SWAP2 POP POP JUMP JUMPDEST PUSH1 0x0 PUSH1 0x20 DUP3 DUP5 SUB SLT ISZERO PUSH2 0x1ADC JUMPI PUSH2 0x1ADB PUSH2 0x1A5E JUMP JUMPDEST JUMPDEST PUSH1 0x0 PUSH2 0x1AEA DUP5 DUP3 DUP6 ADD PUSH2 0x1AB1 JUMP JUMPDEST SWAP2 POP POP SWAP3 SWAP2 POP POP JUMP JUMPDEST PUSH1 0x0 DUP2 SWAP1 POP SWAP2 SWAP1 POP JUMP JUMPDEST PUSH2 0x1B06 DUP2 PUSH2 0x1AF3 JUMP JUMPDEST DUP3 MSTORE POP POP JUMP JUMPDEST PUSH1 0x0 PUSH1 0x20 DUP3 ADD SWAP1 POP PUSH2 0x1B21 PUSH1 0x0 DUP4 ADD DUP5 PUSH2 0x1AFD JUMP JUMPDEST SWAP3 SWAP2 POP POP JUMP JUMPDEST PUSH1 0x0 DUP2 ISZERO ISZERO SWAP1 POP SWAP2 SWAP1 POP JUMP JUMPDEST PUSH2 0x1B3C DUP2 PUSH2 0x1B27 JUMP JUMPDEST DUP3 MSTORE POP POP JUMP JUMPDEST PUSH1 0x0 PUSH1 0x20 DUP3 ADD SWAP1 POP PUSH2 0x1B57 PUSH1 0x0 DUP4 ADD DUP5 PUSH2 0x1B33 JUMP JUMPDEST SWAP3 SWAP2 POP POP JUMP JUMPDEST PUSH1 0x0 DUP2 MLOAD SWAP1 POP SWAP2 SWAP1 POP JUMP JUMPDEST PUSH1 0x0 DUP3 DUP3 MSTORE PUSH1 0x20 DUP3 ADD SWAP1 POP SWAP3 SWAP2 POP POP JUMP JUMPDEST PUSH1 0x0 JUMPDEST DUP4 DUP2 LT ISZERO PUSH2 0x1B97 JUMPI DUP1 DUP3 ADD MLOAD DUP2 DUP5 ADD MSTORE PUSH1 0x20 DUP2 ADD SWAP1 POP PUSH2 0x1B7C JUMP JUMPDEST PUSH1 0x0 DUP5 DUP5 ADD MSTORE POP POP POP POP JUMP JUMPDEST PUSH1 0x0 PUSH1 0x1F NOT PUSH1 0x1F DUP4 ADD AND SWAP1 POP SWAP2 SWAP1 POP JUMP JUMPDEST PUSH1 0x0 PUSH2 0x1BBF DUP3 PUSH2 0x1B5D JUMP JUMPDEST PUSH2 0x1BC9 DUP2 DUP6 PUSH2 0x1B68 JUMP JUMPDEST SWAP4 POP PUSH2 0x1BD9 DUP2 DUP6 PUSH1 0x20 DUP7 ADD PUSH2 0x1B79 JUMP JUMPDEST PUSH2 0x1BE2 DUP2 PUSH2 0x1BA3 JUMP JUMPDEST DUP5 ADD SWAP2 POP POP SWAP3 SWAP2 POP POP JUMP JUMPDEST PUSH1 0x0 PUSH1 0x20 DUP3 ADD SWAP1 POP DUP2 DUP2 SUB PUSH1 0x0 DUP4 ADD MSTORE PUSH2 0x1C07 DUP2 DUP5 PUSH2 0x1BB4 JUMP JUMPDEST SWAP1 POP SWAP3 SWAP2 POP POP JUMP JUMPDEST PUSH2 0x1C18 DUP2 PUSH2 0x1A88 JUMP JUMPDEST DUP3 MSTORE POP POP JUMP JUMPDEST PUSH1 0x0 PUSH1 0x20 DUP3 ADD SWAP1 POP PUSH2 0x1C33 PUSH1 0x0 DUP4 ADD DUP5 PUSH2 0x1C0F JUMP JUMPDEST SWAP3 SWAP2 POP POP JUMP JUMPDEST PUSH1 0x0 PUSH4 0xFFFFFFFF DUP3 AND SWAP1 POP SWAP2 SWAP1 POP JUMP JUMPDEST PUSH2 0x1C52 DUP2 PUSH2 0x1C39 JUMP JUMPDEST DUP3 MSTORE POP POP JUMP JUMPDEST PUSH1 0x0 PUSH1 0x20 DUP3 ADD SWAP1 POP PUSH2 0x1C6D PUSH1 0x0 DUP4 ADD DUP5 PUSH2 0x1C49 JUMP JUMPDEST SWAP3 SWAP2 POP POP JUMP JUMPDEST PUSH1 0x0 PUSH2 0x1C7E DUP3 PUSH2 0x1A68 JUMP JUMPDEST SWAP1 POP SWAP2 SWAP1 POP JUMP JUMPDEST PUSH2 0x1C8E DUP2 PUSH2 0x1C73 JUMP JUMPDEST DUP2 EQ PUSH2 0x1C99 JUMPI PUSH1 0x0 DUP1 REVERT JUMPDEST POP JUMP JUMPDEST PUSH1 0x0 DUP2 CALLDATALOAD SWAP1 POP PUSH2 0x1CAB DUP2 PUSH2 0x1C85 JUMP JUMPDEST SWAP3 SWAP2 POP POP JUMP JUMPDEST PUSH1 0x0 PUSH1 0x20 DUP3 DUP5 SUB SLT ISZERO PUSH2 0x1CC7 JUMPI PUSH2 0x1CC6 PUSH2 0x1A5E JUMP JUMPDEST JUMPDEST PUSH1 0x0 PUSH2 0x1CD5 DUP5 DUP3 DUP6 ADD PUSH2 0x1C9C JUMP JUMPDEST SWAP2 POP POP SWAP3 SWAP2 POP POP JUMP JUMPDEST PUSH32 0x4E487B7100000000000000000000000000000000000000000000000000000000 PUSH1 0x0 MSTORE PUSH1 0x21 PUSH1 0x4 MSTORE PUSH1 0x24 PUSH1 0x0 REVERT JUMPDEST PUSH1 0x4 DUP2 LT PUSH2 0x1D1E JUMPI PUSH2 0x1D1D PUSH2 0x1CDE JUMP JUMPDEST JUMPDEST POP JUMP JUMPDEST PUSH1 0x0 DUP2 SWAP1 POP PUSH2 0x1D2F DUP3 PUSH2 0x1D0D JUMP JUMPDEST SWAP2 SWAP1 POP JUMP JUMPDEST PUSH1 0x0 PUSH2 0x1D3F DUP3 PUSH2 0x1D21 JUMP JUMPDEST SWAP1 POP SWAP2 SWAP1 POP JUMP JUMPDEST PUSH2 0x1D4F DUP2 PUSH2 0x1D34 JUMP JUMPDEST DUP3 MSTORE POP POP JUMP JUMPDEST PUSH1 0x0 PUSH1 0x20 DUP3 ADD SWAP1 POP PUSH2 0x1D6A PUSH1 0x0 DUP4 ADD DUP5 PUSH2 0x1D46 JUMP JUMPDEST SWAP3 SWAP2 POP POP JUMP JUMPDEST PUSH1 0x0 DUP2 MLOAD SWAP1 POP SWAP2 SWAP1 POP JUMP JUMPDEST PUSH1 0x0 DUP3 DUP3 MSTORE PUSH1 0x20 DUP3 ADD SWAP1 POP SWAP3 SWAP2 POP POP JUMP JUMPDEST PUSH1 0x0 DUP2 SWAP1 POP PUSH1 0x20 DUP3 ADD SWAP1 POP SWAP2 SWAP1 POP JUMP JUMPDEST PUSH2 0x1DA5 DUP2 PUSH2 0x1A88 JUMP JUMPDEST DUP3 MSTORE POP POP JUMP JUMPDEST PUSH1 0x0 PUSH2 0x1DB7 DUP4 DUP4 PUSH2 0x1D9C JUMP JUMPDEST PUSH1 0x20 DUP4 ADD SWAP1 POP SWAP3 SWAP2 POP POP JUMP JUMPDEST PUSH1 0x0 PUSH1 0x20 DUP3 ADD SWAP1 POP SWAP2 SWAP1 POP JUMP JUMPDEST PUSH1 0x0 PUSH2 0x1DDB DUP3 PUSH2 0x1D70 JUMP JUMPDEST PUSH2 0x1DE5 DUP2 DUP6 PUSH2 0x1D7B JUMP JUMPDEST SWAP4 POP PUSH2 0x1DF0 DUP4 PUSH2 0x1D8C JUMP JUMPDEST DUP1 PUSH1 0x0 JUMPDEST DUP4 DUP2 LT ISZERO PUSH2 0x1E21 JUMPI DUP2 MLOAD PUSH2 0x1E08 DUP9 DUP3 PUSH2 0x1DAB JUMP JUMPDEST SWAP8 POP PUSH2 0x1E13 DUP4 PUSH2 0x1DC3 JUMP JUMPDEST SWAP3 POP POP PUSH1 0x1 DUP2 ADD SWAP1 POP PUSH2 0x1DF4 JUMP JUMPDEST POP DUP6 SWAP4 POP POP POP POP SWAP3 SWAP2 POP POP JUMP JUMPDEST PUSH1 0x0 PUSH1 0x20 DUP3 ADD SWAP1 POP DUP2 DUP2 SUB PUSH1 0x0 DUP4 ADD MSTORE PUSH2 0x1E48 DUP2 DUP5 PUSH2 0x1DD0 JUMP JUMPDEST SWAP1 POP SWAP3 SWAP2 POP POP JUMP JUMPDEST PUSH1 0x0 DUP1 REVERT JUMPDEST PUSH1 0x0 DUP1 REVERT JUMPDEST PUSH32 0x4E487B7100000000000000000000000000000000000000000000000000000000 PUSH1 0x0 MSTORE PUSH1 0x41 PUSH1 0x4 MSTORE PUSH1 0x24 PUSH1 0x0 REVERT JUMPDEST PUSH2 0x1E92 DUP3 PUSH2 0x1BA3 JUMP JUMPDEST DUP2 ADD DUP2 DUP2 LT PUSH8 0xFFFFFFFFFFFFFFFF DUP3 GT OR ISZERO PUSH2 0x1EB1 JUMPI PUSH2 0x1EB0 PUSH2 0x1E5A JUMP JUMPDEST JUMPDEST DUP1 PUSH1 0x40 MSTORE POP POP POP JUMP JUMPDEST PUSH1 0x0 PUSH2 0x1EC4 PUSH2 0x1A54 JUMP JUMPDEST SWAP1 POP PUSH2 0x1ED0 DUP3 DUP3 PUSH2 0x1E89 JUMP JUMPDEST SWAP2 SWAP1 POP JUMP JUMPDEST PUSH1 0x0 PUSH8 0xFFFFFFFFFFFFFFFF DUP3 GT ISZERO PUSH2 0x1EF0 JUMPI PUSH2 0x1EEF PUSH2 0x1E5A JUMP JUMPDEST JUMPDEST PUSH2 0x1EF9 DUP3 PUSH2 0x1BA3 JUMP JUMPDEST SWAP1 POP PUSH1 0x20 DUP2 ADD SWAP1 POP SWAP2 SWAP1 POP JUMP JUMPDEST DUP3 DUP2 DUP4 CALLDATACOPY PUSH1 0x0 DUP4 DUP4 ADD MSTORE POP POP POP JUMP JUMPDEST PUSH1 0x0 PUSH2 0x1F28 PUSH2 0x1F23 DUP5 PUSH2 0x1ED5 JUMP JUMPDEST PUSH2 0x1EBA JUMP JUMPDEST SWAP1 POP DUP3 DUP2 MSTORE PUSH1 0x20 DUP2 ADD DUP5 DUP5 DUP5 ADD GT ISZERO PUSH2 0x1F44 JUMPI PUSH2 0x1F43 PUSH2 0x1E55 JUMP JUMPDEST JUMPDEST PUSH2 0x1F4F DUP5 DUP3 DUP6 PUSH2 0x1F06 JUMP JUMPDEST POP SWAP4 SWAP3 POP POP POP JUMP JUMPDEST PUSH1 0x0 DUP3 PUSH1 0x1F DUP4 ADD SLT PUSH2 0x1F6C JUMPI PUSH2 0x1F6B PUSH2 0x1E50 JUMP JUMPDEST JUMPDEST DUP2 CALLDATALOAD PUSH2 0x1F7C DUP5 DUP3 PUSH1 0x20 DUP7 ADD PUSH2 0x1F15 JUMP JUMPDEST SWAP2 POP POP SWAP3 SWAP2 POP POP JUMP JUMPDEST PUSH2 0x1F8E DUP2 PUSH2 0x1AF3 JUMP JUMPDEST DUP2 EQ PUSH2 0x1F99 JUMPI PUSH1 0x0 DUP1 REVERT JUMPDEST POP JUMP JUMPDEST PUSH1 0x0 DUP2 CALLDATALOAD SWAP1 POP PUSH2 0x1FAB DUP2 PUSH2 0x1F85 JUMP JUMPDEST SWAP3 SWAP2 POP POP JUMP JUMPDEST PUSH1 0x0 DUP1 PUSH1 0x40 DUP4 DUP6 SUB SLT ISZERO PUSH2 0x1FC8 JUMPI PUSH2 0x1FC7 PUSH2 0x1A5E JUMP JUMPDEST JUMPDEST PUSH1 0x0 DUP4 ADD CALLDATALOAD PUSH8 0xFFFFFFFFFFFFFFFF DUP2 GT ISZERO PUSH2 0x1FE6 JUMPI PUSH2 0x1FE5 PUSH2 0x1A63 JUMP JUMPDEST JUMPDEST PUSH2 0x1FF2 DUP6 DUP3 DUP7 ADD PUSH2 0x1F57 JUMP JUMPDEST SWAP3 POP POP PUSH1 0x20 PUSH2 0x2003 DUP6 DUP3 DUP7 ADD PUSH2 0x1F9C JUMP JUMPDEST SWAP2 POP POP SWAP3 POP SWAP3 SWAP1 POP JUMP JUMPDEST PUSH1 0x0 PUSH1 0x20 DUP3 DUP5 SUB SLT ISZERO PUSH2 0x2023 JUMPI PUSH2 0x2022 PUSH2 0x1A5E JUMP JUMPDEST JUMPDEST PUSH1 0x0 PUSH2 0x2031 DUP5 DUP3 DUP6 ADD PUSH2 0x1F9C JUMP JUMPDEST SWAP2 POP POP SWAP3 SWAP2 POP POP JUMP JUMPDEST PUSH32 0x696E76616C6964206164647265737320746F2068616C74000000000000000000 PUSH1 0x0 DUP3 ADD MSTORE POP JUMP JUMPDEST PUSH1 0x0 PUSH2 0x2070 PUSH1 0x17 DUP4 PUSH2 0x1B68 JUMP JUMPDEST SWAP2 POP PUSH2 0x207B DUP3 PUSH2 0x203A JUMP JUMPDEST PUSH1 0x20 DUP3 ADD SWAP1 POP SWAP2 SWAP1 POP JUMP JUMPDEST PUSH1 0x0 PUSH1 0x20 DUP3 ADD SWAP1 POP DUP2 DUP2 SUB PUSH1 0x0 DUP4 ADD MSTORE PUSH2 0x209F DUP2 PUSH2 0x2063 JUMP JUMPDEST SWAP1 POP SWAP2 SWAP1 POP JUMP JUMPDEST PUSH32 0x4E487B7100000000000000000000000000000000000000000000000000000000 PUSH1 0x0 MSTORE PUSH1 0x22 PUSH1 0x4 MSTORE PUSH1 0x24 PUSH1 0x0 REVERT JUMPDEST PUSH1 0x0 PUSH1 0x2 DUP3 DIV SWAP1 POP PUSH1 0x1 DUP3 AND DUP1 PUSH2 0x20ED JUMPI PUSH1 0x7F DUP3 AND SWAP2 POP JUMPDEST PUSH1 0x20 DUP3 LT DUP2 SUB PUSH2 0x2100 JUMPI PUSH2 0x20FF PUSH2 0x20A6 JUMP JUMPDEST JUMPDEST POP SWAP2 SWAP1 POP JUMP JUMPDEST PUSH32 0x616C72656164792066756E646564207374617465000000000000000000000000 PUSH1 0x0 DUP3 ADD MSTORE POP JUMP JUMPDEST PUSH1 0x0 PUSH2 0x213C PUSH1 0x14 DUP4 PUSH2 0x1B68 JUMP JUMPDEST SWAP2 POP PUSH2 0x2147 DUP3 PUSH2 0x2106 JUMP JUMPDEST PUSH1 0x20 DUP3 ADD SWAP1 POP SWAP2 SWAP1 POP JUMP JUMPDEST PUSH1 0x0 PUSH1 0x20 DUP3 ADD SWAP1 POP DUP2 DUP2 SUB PUSH1 0x0 DUP4 ADD MSTORE PUSH2 0x216B DUP2 PUSH2 0x212F JUMP JUMPDEST SWAP1 POP SWAP2 SWAP1 POP JUMP JUMPDEST PUSH32 0x696E616C696420616D6F756E7420666F7220726566756E640000000000000000 PUSH1 0x0 DUP3 ADD MSTORE POP JUMP JUMPDEST PUSH1 0x0 PUSH2 0x21A8 PUSH1 0x18 DUP4 PUSH2 0x1B68 JUMP JUMPDEST SWAP2 POP PUSH2 0x21B3 DUP3 PUSH2 0x2172 JUMP JUMPDEST PUSH1 0x20 DUP3 ADD SWAP1 POP SWAP2 SWAP1 POP JUMP JUMPDEST PUSH1 0x0 PUSH1 0x20 DUP3 ADD SWAP1 POP DUP2 DUP2 SUB PUSH1 0x0 DUP4 ADD MSTORE PUSH2 0x21D7 DUP2 PUSH2 0x219B JUMP JUMPDEST SWAP1 POP SWAP2 SWAP1 POP JUMP JUMPDEST PUSH32 0x616464726573732064656E696564000000000000000000000000000000000000 PUSH1 0x0 DUP3 ADD MSTORE POP JUMP JUMPDEST PUSH1 0x0 PUSH2 0x2214 PUSH1 0xE DUP4 PUSH2 0x1B68 JUMP JUMPDEST SWAP2 POP PUSH2 0x221F DUP3 PUSH2 0x21DE JUMP JUMPDEST PUSH1 0x20 DUP3 ADD SWAP1 POP SWAP2 SWAP1 POP JUMP JUMPDEST PUSH1 0x0 PUSH1 0x20 DUP3 ADD SWAP1 POP DUP2 DUP2 SUB PUSH1 0x0 DUP4 ADD MSTORE PUSH2 0x2243 DUP2 PUSH2 0x2207 JUMP JUMPDEST SWAP1 POP SWAP2 SWAP1 POP JUMP JUMPDEST PUSH1 0x0 DUP2 SWAP1 POP SWAP3 SWAP2 POP POP JUMP JUMPDEST POP JUMP JUMPDEST PUSH1 0x0 PUSH2 0x2265 PUSH1 0x0 DUP4 PUSH2 0x224A JUMP JUMPDEST SWAP2 POP PUSH2 0x2270 DUP3 PUSH2 0x2255 JUMP JUMPDEST PUSH1 0x0 DUP3 ADD SWAP1 POP SWAP2 SWAP1 POP JUMP JUMPDEST PUSH1 0x0 PUSH2 0x2286 DUP3 PUSH2 0x2258 JUMP JUMPDEST SWAP2 POP DUP2 SWAP1 POP SWAP2 SWAP1 POP JUMP JUMPDEST PUSH32 0x4661696C656420746F2073656E64204574686572000000000000000000000000 PUSH1 0x0 DUP3 ADD MSTORE POP JUMP JUMPDEST PUSH1 0x0 PUSH2 0x22C6 PUSH1 0x14 DUP4 PUSH2 0x1B68 JUMP JUMPDEST SWAP2 POP PUSH2 0x22D1 DUP3 PUSH2 0x2290 JUMP JUMPDEST PUSH1 0x20 DUP3 ADD SWAP1 POP SWAP2 SWAP1 POP JUMP JUMPDEST PUSH1 0x0 PUSH1 0x20 DUP3 ADD SWAP1 POP DUP2 DUP2 SUB PUSH1 0x0 DUP4 ADD MSTORE PUSH2 0x22F5 DUP2 PUSH2 0x22B9 JUMP JUMPDEST SWAP1 POP SWAP2 SWAP1 POP JUMP JUMPDEST PUSH32 0x416C726561647920766F74656400000000000000000000000000000000000000 PUSH1 0x0 DUP3 ADD MSTORE POP JUMP JUMPDEST PUSH1 0x0 PUSH2 0x2332 PUSH1 0xD DUP4 PUSH2 0x1B68 JUMP JUMPDEST SWAP2 POP PUSH2 0x233D DUP3 PUSH2 0x22FC JUMP JUMPDEST PUSH1 0x20 DUP3 ADD SWAP1 POP SWAP2 SWAP1 POP JUMP JUMPDEST PUSH1 0x0 PUSH1 0x20 DUP3 ADD SWAP1 POP DUP2 DUP2 SUB PUSH1 0x0 DUP4 ADD MSTORE PUSH2 0x2361 DUP2 PUSH2 0x2325 JUMP JUMPDEST SWAP1 POP SWAP2 SWAP1 POP JUMP JUMPDEST PUSH32 0x4D75737420626520696E2062696464696E6720737461746520746F20766F7465 PUSH1 0x0 DUP3 ADD MSTORE POP JUMP JUMPDEST PUSH1 0x0 PUSH2 0x239E PUSH1 0x20 DUP4 PUSH2 0x1B68 JUMP JUMPDEST SWAP2 POP PUSH2 0x23A9 DUP3 PUSH2 0x2368 JUMP JUMPDEST PUSH1 0x20 DUP3 ADD SWAP1 POP SWAP2 SWAP1 POP JUMP JUMPDEST PUSH1 0x0 PUSH1 0x20 DUP3 ADD SWAP1 POP DUP2 DUP2 SUB PUSH1 0x0 DUP4 ADD MSTORE PUSH2 0x23CD DUP2 PUSH2 0x2391 JUMP JUMPDEST SWAP1 POP SWAP2 SWAP1 POP JUMP JUMPDEST PUSH32 0x6164647265737320646964206E6F7420676976652062696420616D6F756E7400 PUSH1 0x0 DUP3 ADD MSTORE POP JUMP JUMPDEST PUSH1 0x0 PUSH2 0x240A PUSH1 0x1F DUP4 PUSH2 0x1B68 JUMP JUMPDEST SWAP2 POP PUSH2 0x2415 DUP3 PUSH2 0x23D4 JUMP JUMPDEST PUSH1 0x20 DUP3 ADD SWAP1 POP SWAP2 SWAP1 POP JUMP JUMPDEST PUSH1 0x0 PUSH1 0x20 DUP3 ADD SWAP1 POP DUP2 DUP2 SUB PUSH1 0x0 DUP4 ADD MSTORE PUSH2 0x2439 DUP2 PUSH2 0x23FD JUMP JUMPDEST SWAP1 POP SWAP2 SWAP1 POP JUMP JUMPDEST PUSH32 0x4E487B7100000000000000000000000000000000000000000000000000000000 PUSH1 0x0 MSTORE PUSH1 0x11 PUSH1 0x4 MSTORE PUSH1 0x24 PUSH1 0x0 REVERT JUMPDEST PUSH1 0x0 PUSH2 0x247A DUP3 PUSH2 0x1AF3 JUMP JUMPDEST SWAP2 POP PUSH2 0x2485 DUP4 PUSH2 0x1AF3 JUMP JUMPDEST SWAP3 POP DUP3 DUP3 ADD SWAP1 POP DUP1 DUP3 GT ISZERO PUSH2 0x249D JUMPI PUSH2 0x249C PUSH2 0x2440 JUMP JUMPDEST JUMPDEST SWAP3 SWAP2 POP POP JUMP JUMPDEST PUSH1 0x0 PUSH2 0x24AE DUP3 PUSH2 0x1C39 JUMP JUMPDEST SWAP2 POP PUSH4 0xFFFFFFFF DUP3 SUB PUSH2 0x24C4 JUMPI PUSH2 0x24C3 PUSH2 0x2440 JUMP JUMPDEST JUMPDEST PUSH1 0x1 DUP3 ADD SWAP1 POP SWAP2 SWAP1 POP JUMP JUMPDEST PUSH32 0x4D75737420626520696E2062696464696E672073746174650000000000000000 PUSH1 0x0 DUP3 ADD MSTORE POP JUMP JUMPDEST PUSH1 0x0 PUSH2 0x2505 PUSH1 0x18 DUP4 PUSH2 0x1B68 JUMP JUMPDEST SWAP2 POP PUSH2 0x2510 DUP3 PUSH2 0x24CF JUMP JUMPDEST PUSH1 0x20 DUP3 ADD SWAP1 POP SWAP2 SWAP1 POP JUMP JUMPDEST PUSH1 0x0 PUSH1 0x20 DUP3 ADD SWAP1 POP DUP2 DUP2 SUB PUSH1 0x0 DUP4 ADD MSTORE PUSH2 0x2534 DUP2 PUSH2 0x24F8 JUMP JUMPDEST SWAP1 POP SWAP2 SWAP1 POP JUMP JUMPDEST PUSH2 0x2544 DUP2 PUSH2 0x1B27 JUMP JUMPDEST DUP2 EQ PUSH2 0x254F JUMPI PUSH1 0x0 DUP1 REVERT JUMPDEST POP JUMP JUMPDEST PUSH1 0x0 DUP2 MLOAD SWAP1 POP PUSH2 0x2561 DUP2 PUSH2 0x253B JUMP JUMPDEST SWAP3 SWAP2 POP POP JUMP JUMPDEST PUSH1 0x0 PUSH1 0x20 DUP3 DUP5 SUB SLT ISZERO PUSH2 0x257D JUMPI PUSH2 0x257C PUSH2 0x1A5E JUMP JUMPDEST JUMPDEST PUSH1 0x0 PUSH2 0x258B DUP5 DUP3 DUP6 ADD PUSH2 0x2552 JUMP JUMPDEST SWAP2 POP POP SWAP3 SWAP2 POP POP JUMP JUMPDEST PUSH32 0x4D7573742062652061206D656D62657200000000000000000000000000000000 PUSH1 0x0 DUP3 ADD MSTORE POP JUMP JUMPDEST PUSH1 0x0 PUSH2 0x25CA PUSH1 0x10 DUP4 PUSH2 0x1B68 JUMP JUMPDEST SWAP2 POP PUSH2 0x25D5 DUP3 PUSH2 0x2594 JUMP JUMPDEST PUSH1 0x20 DUP3 ADD SWAP1 POP SWAP2 SWAP1 POP JUMP JUMPDEST PUSH1 0x0 PUSH1 0x20 DUP3 ADD SWAP1 POP DUP2 DUP2 SUB PUSH1 0x0 DUP4 ADD MSTORE PUSH2 0x25F9 DUP2 PUSH2 0x25BD JUMP JUMPDEST SWAP1 POP SWAP2 SWAP1 POP JUMP JUMPDEST PUSH32 0x616464726573732068617320616C726561647920626964000000000000000000 PUSH1 0x0 DUP3 ADD MSTORE POP JUMP JUMPDEST PUSH1 0x0 PUSH2 0x2636 PUSH1 0x17 DUP4 PUSH2 0x1B68 JUMP JUMPDEST SWAP2 POP PUSH2 0x2641 DUP3 PUSH2 0x2600 JUMP JUMPDEST PUSH1 0x20 DUP3 ADD SWAP1 POP SWAP2 SWAP1 POP JUMP JUMPDEST PUSH1 0x0 PUSH1 0x20 DUP3 ADD SWAP1 POP DUP2 DUP2 SUB PUSH1 0x0 DUP4 ADD MSTORE PUSH2 0x2665 DUP2 PUSH2 0x2629 JUMP JUMPDEST SWAP1 POP SWAP2 SWAP1 POP JUMP JUMPDEST PUSH1 0x0 DUP2 SWAP1 POP DUP2 PUSH1 0x0 MSTORE PUSH1 0x20 PUSH1 0x0 KECCAK256 SWAP1 POP SWAP2 SWAP1 POP JUMP JUMPDEST PUSH1 0x0 PUSH1 0x20 PUSH1 0x1F DUP4 ADD DIV SWAP1 POP SWAP2 SWAP1 POP JUMP JUMPDEST PUSH1 0x0 DUP3 DUP3 SHL SWAP1 POP SWAP3 SWAP2 POP POP JUMP JUMPDEST PUSH1 0x0 PUSH1 0x8 DUP4 MUL PUSH2 0x26CE PUSH32 0xFFFFFFFFFFFFFFFFFFFFFFFFFFFFFFFFFFFFFFFFFFFFFFFFFFFFFFFFFFFFFFFF DUP3 PUSH2 0x2691 JUMP JUMPDEST PUSH2 0x26D8 DUP7 DUP4 PUSH2 0x2691 JUMP JUMPDEST SWAP6 POP DUP1 NOT DUP5 AND SWAP4 POP DUP1 DUP7 AND DUP5 OR SWAP3 POP POP POP SWAP4 SWAP3 POP POP POP JUMP JUMPDEST PUSH1 0x0 DUP2 SWAP1 POP SWAP2 SWAP1 POP JUMP JUMPDEST PUSH1 0x0 PUSH2 0x2715 PUSH2 0x2710 PUSH2 0x270B DUP5 PUSH2 0x1AF3 JUMP JUMPDEST PUSH2 0x26F0 JUMP JUMPDEST PUSH2 0x1AF3 JUMP JUMPDEST SWAP1 POP SWAP2 SWAP1 POP JUMP JUMPDEST PUSH1 0x0 DUP2 SWAP1 POP SWAP2 SWAP1 POP JUMP JUMPDEST PUSH2 0x272F DUP4 PUSH2 0x26FA JUMP JUMPDEST PUSH2 0x2743 PUSH2 0x273B DUP3 PUSH2 0x271C JUMP JUMPDEST DUP5 DUP5 SLOAD PUSH2 0x269E JUMP JUMPDEST DUP3 SSTORE POP POP POP POP JUMP JUMPDEST PUSH1 0x0 SWAP1 JUMP JUMPDEST PUSH2 0x2758 PUSH2 0x274B JUMP JUMPDEST PUSH2 0x2763 DUP2 DUP5 DUP5 PUSH2 0x2726 JUMP JUMPDEST POP POP POP JUMP JUMPDEST JUMPDEST DUP2 DUP2 LT ISZERO PUSH2 0x2787 JUMPI PUSH2 0x277C PUSH1 0x0 DUP3 PUSH2 0x2750 JUMP JUMPDEST PUSH1 0x1 DUP2 ADD SWAP1 POP PUSH2 0x2769 JUMP JUMPDEST POP POP JUMP JUMPDEST PUSH1 0x1F DUP3 GT ISZERO PUSH2 0x27CC JUMPI PUSH2 0x279D DUP2 PUSH2 0x266C JUMP JUMPDEST PUSH2 0x27A6 DUP5 PUSH2 0x2681 JUMP JUMPDEST DUP2 ADD PUSH1 0x20 DUP6 LT ISZERO PUSH2 0x27B5 JUMPI DUP2 SWAP1 POP JUMPDEST PUSH2 0x27C9 PUSH2 0x27C1 DUP6 PUSH2 0x2681 JUMP JUMPDEST DUP4 ADD DUP3 PUSH2 0x2768 JUMP JUMPDEST POP POP JUMPDEST POP POP POP JUMP JUMPDEST PUSH1 0x0 DUP3 DUP3 SHR SWAP1 POP SWAP3 SWAP2 POP POP JUMP JUMPDEST PUSH1 0x0 PUSH2 0x27EF PUSH1 0x0 NOT DUP5 PUSH1 0x8 MUL PUSH2 0x27D1 JUMP JUMPDEST NOT DUP1 DUP4 AND SWAP2 POP POP SWAP3 SWAP2 POP POP JUMP JUMPDEST PUSH1 0x0 PUSH2 0x2808 DUP4 DUP4 PUSH2 0x27DE JUMP JUMPDEST SWAP2 POP DUP3 PUSH1 0x2 MUL DUP3 OR SWAP1 POP SWAP3 SWAP2 POP POP JUMP JUMPDEST PUSH2 0x2821 DUP3 PUSH2 0x1B5D JUMP JUMPDEST PUSH8 0xFFFFFFFFFFFFFFFF DUP2 GT ISZERO PUSH2 0x283A JUMPI PUSH2 0x2839 PUSH2 0x1E5A JUMP JUMPDEST JUMPDEST PUSH2 0x2844 DUP3 SLOAD PUSH2 0x20D5 JUMP JUMPDEST PUSH2 0x284F DUP3 DUP3 DUP6 PUSH2 0x278B JUMP JUMPDEST PUSH1 0x0 PUSH1 0x20 SWAP1 POP PUSH1 0x1F DUP4 GT PUSH1 0x1 DUP2 EQ PUSH2 0x2882 JUMPI PUSH1 0x0 DUP5 ISZERO PUSH2 0x2870 JUMPI DUP3 DUP8 ADD MLOAD SWAP1 POP JUMPDEST PUSH2 0x287A DUP6 DUP3 PUSH2 0x27FC JUMP JUMPDEST DUP7 SSTORE POP PUSH2 0x28E2 JUMP JUMPDEST PUSH1 0x1F NOT DUP5 AND PUSH2 0x2890 DUP7 PUSH2 0x266C JUMP JUMPDEST PUSH1 0x0 JUMPDEST DUP3 DUP2 LT ISZERO PUSH2 0x28B8 JUMPI DUP5 DUP10 ADD MLOAD DUP3 SSTORE PUSH1 0x1 DUP3 ADD SWAP2 POP PUSH1 0x20 DUP6 ADD SWAP5 POP PUSH1 0x20 DUP2 ADD SWAP1 POP PUSH2 0x2893 JUMP JUMPDEST DUP7 DUP4 LT ISZERO PUSH2 0x28D5 JUMPI DUP5 DUP10 ADD MLOAD PUSH2 0x28D1 PUSH1 0x1F DUP10 AND DUP3 PUSH2 0x27DE JUMP JUMPDEST DUP4 SSTORE POP JUMPDEST PUSH1 0x1 PUSH1 0x2 DUP9 MUL ADD DUP9 SSTORE POP POP POP JUMPDEST POP POP POP POP POP POP JUMP JUMPDEST PUSH32 0x6D757374206265206C6561646572000000000000000000000000000000000000 PUSH1 0x0 DUP3 ADD MSTORE POP JUMP JUMPDEST PUSH1 0x0 PUSH2 0x2920 PUSH1 0xE DUP4 PUSH2 0x1B68 JUMP JUMPDEST SWAP2 POP PUSH2 0x292B DUP3 PUSH2 0x28EA JUMP JUMPDEST PUSH1 0x20 DUP3 ADD SWAP1 POP SWAP2 SWAP1 POP JUMP JUMPDEST PUSH1 0x0 PUSH1 0x20 DUP3 ADD SWAP1 POP DUP2 DUP2 SUB PUSH1 0x0 DUP4 ADD MSTORE PUSH2 0x294F DUP2 PUSH2 0x2913 JUMP JUMPDEST SWAP1 POP SWAP2 SWAP1 POP JUMP JUMPDEST PUSH32 0x6C6561646572206973206E6F7420656C696769626C6500000000000000000000 PUSH1 0x0 DUP3 ADD MSTORE POP JUMP JUMPDEST PUSH1 0x0 PUSH2 0x298C PUSH1 0x16 DUP4 PUSH2 0x1B68 JUMP JUMPDEST SWAP2 POP PUSH2 0x2997 DUP3 PUSH2 0x2956 JUMP JUMPDEST PUSH1 0x20 DUP3 ADD SWAP1 POP SWAP2 SWAP1 POP JUMP JUMPDEST PUSH1 0x0 PUSH1 0x20 DUP3 ADD SWAP1 POP DUP2 DUP2 SUB PUSH1 0x0 DUP4 ADD MSTORE PUSH2 0x29BB DUP2 PUSH2 0x297F JUMP JUMPDEST SWAP1 POP SWAP2 SWAP1 POP JUMP JUMPDEST PUSH32 0x6D7573742077616974206C6F6E67657200000000000000000000000000000000 PUSH1 0x0 DUP3 ADD MSTORE POP JUMP JUMPDEST PUSH1 0x0 PUSH2 0x29F8 PUSH1 0x10 DUP4 PUSH2 0x1B68 JUMP JUMPDEST SWAP2 POP PUSH2 0x2A03 DUP3 PUSH2 0x29C2 JUMP JUMPDEST PUSH1 0x20 DUP3 ADD SWAP1 POP SWAP2 SWAP1 POP JUMP JUMPDEST PUSH1 0x0 PUSH1 0x20 DUP3 ADD SWAP1 POP DUP2 DUP2 SUB PUSH1 0x0 DUP4 ADD MSTORE PUSH2 0x2A27 DUP2 PUSH2 0x29EB JUMP JUMPDEST SWAP1 POP SWAP2 SWAP1 POP JUMP JUMPDEST PUSH32 0x46756E64696E6720616D6F756E74206E6F74206D657400000000000000000000 PUSH1 0x0 DUP3 ADD MSTORE POP JUMP JUMPDEST PUSH1 0x0 PUSH2 0x2A64 PUSH1 0x16 DUP4 PUSH2 0x1B68 JUMP JUMPDEST SWAP2 POP PUSH2 0x2A6F DUP3 PUSH2 0x2A2E JUMP JUMPDEST PUSH1 0x20 DUP3 ADD SWAP1 POP SWAP2 SWAP1 POP JUMP JUMPDEST PUSH1 0x0 PUSH1 0x20 DUP3 ADD SWAP1 POP DUP2 DUP2 SUB PUSH1 0x0 DUP4 ADD MSTORE PUSH2 0x2A93 DUP2 PUSH2 0x2A57 JUMP JUMPDEST SWAP1 POP SWAP2 SWAP1 POP JUMP JUMPDEST PUSH1 0x0 PUSH8 0xFFFFFFFFFFFFFFFF DUP3 GT ISZERO PUSH2 0x2AB5 JUMPI PUSH2 0x2AB4 PUSH2 0x1E5A JUMP JUMPDEST JUMPDEST PUSH1 0x20 DUP3 MUL SWAP1 POP PUSH1 0x20 DUP2 ADD SWAP1 POP SWAP2 SWAP1 POP JUMP JUMPDEST PUSH1 0x0 DUP1 REVERT JUMPDEST PUSH1 0x0 DUP2 MLOAD SWAP1 POP PUSH2 0x2ADA DUP2 PUSH2 0x1A9A JUMP JUMPDEST SWAP3 SWAP2 POP POP JUMP JUMPDEST PUSH1 0x0 PUSH2 0x2AF3 PUSH2 0x2AEE DUP5 PUSH2 0x2A9A JUMP JUMPDEST PUSH2 0x1EBA JUMP JUMPDEST SWAP1 POP DUP1 DUP4 DUP3 MSTORE PUSH1 0x20 DUP3 ADD SWAP1 POP PUSH1 0x20 DUP5 MUL DUP4 ADD DUP6 DUP2 GT ISZERO PUSH2 0x2B16 JUMPI PUSH2 0x2B15 PUSH2 0x2AC6 JUMP JUMPDEST JUMPDEST DUP4 JUMPDEST DUP2 DUP2 LT ISZERO PUSH2 0x2B3F JUMPI DUP1 PUSH2 0x2B2B DUP9 DUP3 PUSH2 0x2ACB JUMP JUMPDEST DUP5 MSTORE PUSH1 0x20 DUP5 ADD SWAP4 POP POP PUSH1 0x20 DUP2 ADD SWAP1 POP PUSH2 0x2B18 JUMP JUMPDEST POP POP POP SWAP4 SWAP3 POP POP POP JUMP JUMPDEST PUSH1 0x0 DUP3 PUSH1 0x1F DUP4 ADD SLT PUSH2 0x2B5E JUMPI PUSH2 0x2B5D PUSH2 0x1E50 JUMP JUMPDEST JUMPDEST DUP2 MLOAD PUSH2 0x2B6E DUP5 DUP3 PUSH1 0x20 DUP7 ADD PUSH2 0x2AE0 JUMP JUMPDEST SWAP2 POP POP SWAP3 SWAP2 POP POP JUMP JUMPDEST PUSH1 0x0 PUSH1 0x20 DUP3 DUP5 SUB SLT ISZERO PUSH2 0x2B8D JUMPI PUSH2 0x2B8C PUSH2 0x1A5E JUMP JUMPDEST JUMPDEST PUSH1 0x0 DUP3 ADD MLOAD PUSH8 0xFFFFFFFFFFFFFFFF DUP2 GT ISZERO PUSH2 0x2BAB JUMPI PUSH2 0x2BAA PUSH2 0x1A63 JUMP JUMPDEST JUMPDEST PUSH2 0x2BB7 DUP5 DUP3 DUP6 ADD PUSH2 0x2B49 JUMP JUMPDEST SWAP2 POP POP SWAP3 SWAP2 POP POP JUMP JUMPDEST PUSH32 0x4E487B7100000000000000000000000000000000000000000000000000000000 PUSH1 0x0 MSTORE PUSH1 0x32 PUSH1 0x4 MSTORE PUSH1 0x24 PUSH1 0x0 REVERT JUMPDEST PUSH1 0x2 DUP2 LT PUSH2 0x2C00 JUMPI PUSH2 0x2BFF PUSH2 0x1CDE JUMP JUMPDEST JUMPDEST POP JUMP JUMPDEST PUSH1 0x0 DUP2 SWAP1 POP PUSH2 0x2C11 DUP3 PUSH2 0x2BEF JUMP JUMPDEST SWAP2 SWAP1 POP JUMP JUMPDEST PUSH1 0x0 PUSH2 0x2C21 DUP3 PUSH2 0x2C03 JUMP JUMPDEST SWAP1 POP SWAP2 SWAP1 POP JUMP JUMPDEST PUSH2 0x2C31 DUP2 PUSH2 0x2C16 JUMP JUMPDEST DUP3 MSTORE POP POP JUMP JUMPDEST PUSH1 0x0 PUSH1 0xA0 DUP3 ADD SWAP1 POP PUSH2 0x2C4C PUSH1 0x0 DUP4 ADD DUP9 PUSH2 0x1C0F JUMP JUMPDEST PUSH2 0x2C59 PUSH1 0x20 DUP4 ADD DUP8 PUSH2 0x1C0F JUMP JUMPDEST PUSH2 0x2C66 PUSH1 0x40 DUP4 ADD DUP7 PUSH2 0x1C0F JUMP JUMPDEST PUSH2 0x2C73 PUSH1 0x60 DUP4 ADD DUP6 PUSH2 0x2C28 JUMP JUMPDEST PUSH2 0x2C80 PUSH1 0x80 DUP4 ADD DUP5 PUSH2 0x1C0F JUMP JUMPDEST SWAP7 SWAP6 POP POP POP POP POP POP JUMP JUMPDEST PUSH32 0x496E76616C696420737461746520666F7220636F6E747269627574696F6E0000 PUSH1 0x0 DUP3 ADD MSTORE POP JUMP JUMPDEST PUSH1 0x0 PUSH2 0x2CC0 PUSH1 0x1E DUP4 PUSH2 0x1B68 JUMP JUMPDEST SWAP2 POP PUSH2 0x2CCB DUP3 PUSH2 0x2C8A JUMP JUMPDEST PUSH1 0x20 DUP3 ADD SWAP1 POP SWAP2 SWAP1 POP JUMP JUMPDEST PUSH1 0x0 PUSH1 0x20 DUP3 ADD SWAP1 POP DUP2 DUP2 SUB PUSH1 0x0 DUP4 ADD MSTORE PUSH2 0x2CEF DUP2 PUSH2 0x2CB3 JUMP JUMPDEST SWAP1 POP SWAP2 SWAP1 POP JUMP INVALID LOG2 PUSH5 0x6970667358 0x22 SLT KECCAK256 DUP14 0x27 0x28 TIMESTAMP CALLDATASIZE DUP6 0xB6 LOG3 POP 0x2A REVERT CALLCODE 0xD7 ADDRESS PUSH6 0x9D036AEB0BBE 0xBE SLT 0xA8 DUP8 0xE0 0xBD 0x4A 0xEE 0xF6 DIFFICULTY 0x4B PUSH5 0x736F6C6343 STOP ADDMOD GT STOP CALLER LOG2 PUSH5 0x6970667358 0x22 SLT KECCAK256 POP 0xE0 0xB5 0xCD LOG3 DUP7 DUP11 0xD3 0xBA 0xE1 MSTORE8 DUP5 SWAP1 0x5C PC 0xD1 0xC8 PUSH2 0xAABC DUP16 0xEC PUSH15 0xA541FF6C79CCE36F464736F6C6343 STOP ADDMOD GT STOP CALLER "},"gasEstimates":{"creation":{"codeDepositCost":"3109200","executionCost":"infinite","totalCost":"infinite"},"external":{"createProposal(string)":"infinite","getProposals()":"infinite","owner()":"2555","proposals(uint256)":"4934"}},"methodIdentifiers":{"createProposal(string)":"49c2a1a6","getProposals()":"62564c48","owner()":"8da5cb5b","proposals(uint256)":"013cf08b"}},"storageLayout":{"storage":[{"astId":1886,"contract":"ProposalFactory.sol:ProposalFactory","label":"owner","offset":0,"slot":"0","type":"t_address"},{"astId":1889,"contract":"ProposalFactory.sol:ProposalFactory","label":"proposals","offset":0,"slot":"1","type":"t_array(t_address)dyn_storage"}],"types":{"t_address":{"encoding":"inplace","label":"address","numberOfBytes":"20"},"t_array(t_address)dyn_storage":{"base":"t_address","encoding":"dynamic_array","label":"address[]","numberOfBytes":"32"}}},"userdoc":{"kind":"user","methods":{},"version":1}}